{
    "balance_change": {
        "balanceChanges": [
            {
                "account": "0x320562f05baeeed8aa76a0110008bf0c8c156a8f",
                "assets": [
                    {
                        "address": "0xeeeeeeeeeeeeeeeeeeeeeeeeeeeeeeeeeeeeeeee",
                        "amount": "0.05",
                        "iconUrl": "https://assets.blocksec.com/image/1663669189317-3.png",
                        "isERC1155": false,
                        "isERC721": false,
                        "sign": false,
                        "value": "115.721671850000007"
                    },
                    {
                        "address": "0x495f947276749ce646f68ac8c248420045cb7b5e",
                        "amount": "1",
                        "iconUrl": "",
                        "isERC1155": true,
                        "isERC721": false,
                        "sign": true,
                        "tokenID": "79711860756009804397044124131261570909561527756554494652524010182631439204353",
                        "value": ""
                    }
                ]
            },
            {
                "account": "0x5b3256965e7c3cf26e11fcaf296dfc8807c01073",
                "assets": [
                    {
                        "address": "0xeeeeeeeeeeeeeeeeeeeeeeeeeeeeeeeeeeeeeeee",
                        "amount": "0.00625",
                        "iconUrl": "https://assets.blocksec.com/image/1663669189317-3.png",
                        "isERC1155": false,
                        "isERC721": false,
                        "sign": true,
                        "value": "14.465208981250000875"
                    }
                ]
            },
            {
                "account": "0xbf80137831a4739314bf28111e68884b6bee7beb",
                "assets": [
                    {
                        "address": "0x495f947276749ce646f68ac8c248420045cb7b5e",
                        "amount": "1",
                        "iconUrl": "",
                        "isERC1155": true,
                        "isERC721": false,
                        "sign": false,
                        "tokenID": "79711860756009804397044124131261570909561527756554494652524010182631439204353",
                        "value": ""
                    },
                    {
                        "address": "0xeeeeeeeeeeeeeeeeeeeeeeeeeeeeeeeeeeeeeeee",
                        "amount": "0.04375",
                        "iconUrl": "https://assets.blocksec.com/image/1663669189317-3.png",
                        "isERC1155": false,
                        "isERC721": false,
                        "sign": true,
                        "value": "101.25646286875000612"
                    }
                ]
            }
        ]
    },
    "profile": {
        "basic_info": {
            "baseFee": "",
            "blockNumber": 12931559,
            "callData": "0xab834bab0000000000000000000000007be8076f4ea4a4ad08075c2508e481d6c946d12b000000000000000000000000320562f05baeeed8aa76a0110008bf0c8c156a8f000000000000000000000000bf80137831a4739314bf28111e68884b6bee7beb0000000000000000000000000000000000000000000000000000000000000000000000000000000000000000495f947276749ce646f68ac8c248420045cb7b5e000000000000000000000000000000000000000000000000000000000000000000000000000000000000000000000000000000000000000000000000000000000000000000000000000000007be8076f4ea4a4ad08075c2508e481d6c946d12b000000000000000000000000bf80137831a4739314bf28111e68884b6bee7beb00000000000000000000000000000000000000000000000000000000000000000000000000000000000000005b3256965e7c3cf26e11fcaf296dfc8807c01073000000000000000000000000495f947276749ce646f68ac8c248420045cb7b5e0000000000000000000000000000000000000000000000000000000000000000000000000000000000000000000000000000000000000000000000000000000000000000000000000000000000000000000000000000000000000000000004e200000000000000000000000000000000000000000000000000000000000000000000000000000000000000000000000000000000000000000000000000000000000000000000000000000000000000000000000000000000000000000000000000000000000000000000000000000000000000000000000000b1a2bc2ec500000000000000000000000000000000000000000000000000000000000000000000000000000000000000000000000000000000000000000000000000006104e2f900000000000000000000000000000000000000000000000000000000000000002da7aa9a828222ba8e1e048dc7f00d92073413cddcef6bc3419f67944691da9400000000000000000000000000000000000000000000000000000000000004e200000000000000000000000000000000000000000000000000000000000000000000000000000000000000000000000000000000000000000000000000000000000000000000000000000000000000000000000000000000000000000000000000000000000000000000000000000000000000000000000000b1a2bc2ec5000000000000000000000000000000000000000000000000000000000000000000000000000000000000000000000000000000000000000000000000000060f3939000000000000000000000000000000000000000000000000000000000000000007c33837221598af7fcbd63f6bda3175e491f1de9a7f2a5c388690862a42d8ce20000000000000000000000000000000000000000000000000000000000000001000000000000000000000000000000000000000000000000000000000000000000000000000000000000000000000000000000000000000000000000000000000000000000000000000000000000000000000000000000000000000000000000000000000000000000000000000000000000000000000000000000000000000100000000000000000000000000000000000000000000000000000000000000010000000000000000000000000000000000000000000000000000000000000000000000000000000000000000000000000000000000000000000000000000000000000000000000000000000000000000000000000000000000000000000006a000000000000000000000000000000000000000000000000000000000000007a000000000000000000000000000000000000000000000000000000000000008a000000000000000000000000000000000000000000000000000000000000009a00000000000000000000000000000000000000000000000000000000000000aa00000000000000000000000000000000000000000000000000000000000000ac0000000000000000000000000000000000000000000000000000000000000001b000000000000000000000000000000000000000000000000000000000000001b369215022a8310a8811fdf793838841d12f1746d774e879c3086d52473530c1d052d390292a7e49f545d0cb97ca0d9b9ce554c00a9b0fb4f69eb436ad925b244369215022a8310a8811fdf793838841d12f1746d774e879c3086d52473530c1d052d390292a7e49f545d0cb97ca0d9b9ce554c00a9b0fb4f69eb436ad925b244000000000000000000000000000000000000000000000000000000000000000000000000000000000000000000000000000000000000000000000000000000c4f242432a0000000000000000000000000000000000000000000000000000000000000000000000000000000000000000320562f05baeeed8aa76a0110008bf0c8c156a8fb03b5079fd4353047f1fb6e3ecfd6394e2853f340000000000002f0000000001000000000000000000000000000000000000000000000000000000000000000100000000000000000000000000000000000000000000000000000000000000a000000000000000000000000000000000000000000000000000000000000000000000000000000000000000000000000000000000000000000000000000000000000000000000000000000000000000000000000000000000000000c4f242432a000000000000000000000000bf80137831a4739314bf28111e68884b6bee7beb0000000000000000000000000000000000000000000000000000000000000000b03b5079fd4353047f1fb6e3ecfd6394e2853f340000000000002f0000000001000000000000000000000000000000000000000000000000000000000000000100000000000000000000000000000000000000000000000000000000000000a000000000000000000000000000000000000000000000000000000000000000000000000000000000000000000000000000000000000000000000000000000000000000000000000000000000000000000000000000000000000000c400000000ffffffffffffffffffffffffffffffffffffffffffffffffffffffffffffffff000000000000000000000000000000000000000000000000000000000000000000000000000000000000000000000000000000000000000000000000000000000000000000000000000000000000000000000000000000000000000000000000000000000000000000000000000000000000000000000000000000000000000000000000000000000000000000000000000000000000000000000000000000000000000000000000000000000000000000000000000000000000000000000000000000000000000000000000000000000000000000000000000000c4000000000000000000000000000000000000000000000000000000000000000000000000ffffffffffffffffffffffffffffffffffffffffffffffffffffffffffffffff00000000000000000000000000000000000000000000000000000000000000000000000000000000000000000000000000000000000000000000000000000000000000000000000000000000000000000000000000000000000000000000000000000000000000000000000000000000000000000000000000000000000000000000000000000000000000000000000000000000000000000000000000000000000000000000000000000000000000000000000000000000000000000000000000000000000000000000000000000000000000000000000000000000",
            "debugEnable": true,
            "errorInfo": "",
            "eventCount": 2,
            "feeRecipient": "0x52bc44d5378309ee2abf1539bf71de1b7d7be3b5",
            "formatValue": "0.05",
            "gasLimit": 200611,
            "gasPrice": "23",
            "gasUsed": 178683,
            "intTxnCount": 11,
            "internalRevert": false,
            "internalRevertMessage": "",
            "isContractCreation": false,
            "isFlashloan": false,
            "maxFee": "",
            "nonce": 333,
            "overwritedBlockNumber": -1,
            "priorityFee": "",
            "receiver": "0x7be8076f4ea4a4ad08075c2508e481d6c946d12b",
            "revertMessage": "",
            "sender": "0x320562f05baeeed8aa76a0110008bf0c8c156a8f",
            "simulationEnable": true,
            "sourceTxnHash": "0xd7c7c05aed1e2c4d111a3d7e67dd8cb9c0e552f973ac07c79412dbeacc8996d8",
            "status": true,
            "timestamp": "2021-07-31T05:49:01Z",
            "transactionFee": "0.004109709",
            "txnHash": "0xd7c7c05aed1e2c4d111a3d7e67dd8cb9c0e552f973ac07c79412dbeacc8996d8",
            "txnIndex": 50,
            "type": 0,
            "value": "50000000000000000"
        },
        "fund_flow": [
            {
                "amount": "0.05",
                "from": "0x320562f05baeeed8aa76a0110008bf0c8c156a8f",
                "id": 1,
                "isERC1155": false,
                "isERC721": false,
                "isReverted": false,
                "order": 1,
                "to": "0x7be8076f4ea4a4ad08075c2508e481d6c946d12b",
                "token": "0xeeeeeeeeeeeeeeeeeeeeeeeeeeeeeeeeeeeeeeee"
            },
            {
                "amount": "0.00625",
                "from": "0x7be8076f4ea4a4ad08075c2508e481d6c946d12b",
                "id": 2,
                "isERC1155": false,
                "isERC721": false,
                "isReverted": false,
                "order": 2,
                "to": "0x5b3256965e7c3cf26e11fcaf296dfc8807c01073",
                "token": "0xeeeeeeeeeeeeeeeeeeeeeeeeeeeeeeeeeeeeeeee"
            },
            {
                "amount": "0.04375",
                "from": "0x7be8076f4ea4a4ad08075c2508e481d6c946d12b",
                "id": 3,
                "isERC1155": false,
                "isERC721": false,
                "isReverted": false,
                "order": 3,
                "to": "0xbf80137831a4739314bf28111e68884b6bee7beb",
                "token": "0xeeeeeeeeeeeeeeeeeeeeeeeeeeeeeeeeeeeeeeee"
            },
            {
                "amount": "1",
                "from": "0xbf80137831a4739314bf28111e68884b6bee7beb",
                "id": 4,
                "isERC1155": true,
                "isERC721": false,
                "isReverted": false,
                "order": 4,
                "to": "0x320562f05baeeed8aa76a0110008bf0c8c156a8f",
                "token": "0x495f947276749ce646f68ac8c248420045cb7b5e",
                "tokenID": "79711860756009804397044124131261570909561527756554494652524010182631439204353"
            }
        ],
        "token_infos": [
            {
                "address": "0xc02aaa39b223fe8d0a0e5c4f27ead9083c756cc2",
                "decimals": 18
            },
            {
                "address": "0xeeeeeeeeeeeeeeeeeeeeeeeeeeeeeeeeeeeeeeee",
                "decimals": 18
            }
        ]
    },
    "address_label": {
        "labels": [
            {
                "address": "0x0000000000000000000000000000000000000003",
                "label": "Precompiled"
            },
            {
                "address": "0xeeeeeeeeeeeeeeeeeeeeeeeeeeeeeeeeeeeeeeee",
                "label": "Ether"
            },
            {
                "address": "0x495f947276749ce646f68ac8c248420045cb7b5e",
                "label": "OpenSea: OPENSTORE Token"
            },
            {
                "address": "0x7be8076f4ea4a4ad08075c2508e481d6c946d12b",
                "label": "OpenSea: Wyvern Exchange v1"
            },
            {
                "address": "0x0000000000000000000000000000000000000001",
                "label": "Precompiled"
            },
            {
                "address": "0x2d4740f987e3526236759799134ac2b30c1c6ed2",
                "label": "OwnableDelegateProxy"
            },
            {
                "address": "0x0000000000000000000000000000000000000002",
                "label": "Precompiled"
            },
            {
                "address": "0x0000000000000000000000000000000000000004",
                "label": "Precompiled"
            },
            {
                "address": "0xa5409ec958c83c3f309868babaca7c86dcb077c1",
                "label": "OpenSea: Registry"
            },
            {
                "address": "0x5b3256965e7c3cf26e11fcaf296dfc8807c01073",
                "label": "OpenSea: Wallet"
            },
            {
                "address": "0xf9e266af4bca5890e2781812cc6a6e89495a79f2",
                "label": "AuthenticatedProxy"
            },
            {
                "address": "0x0000000000000000000000000000000000000000",
                "label": "Null Address"
            }
        ]
    },
    "trace": {
        "accountLabels": null,
        "dataMap": {
            "-1": {
                "invocation": {
                    "address": "0x320562f05baeeed8aa76a0110008bf0c8c156a8f",
                    "callData": "",
                    "decodedMethod": null,
                    "errorInfo": "",
                    "fromAddress": "",
                    "gasUsed": 0,
                    "id": -1,
                    "methodDecoded": false,
                    "operation": "",
                    "output": "",
                    "revert": false,
                    "revertMessage": "",
                    "selector": "",
                    "status": false,
                    "value": ""
                },
                "nodeType": 0
            },
            "0": {
                "invocation": {
                    "address": "0x7be8076f4ea4a4ad08075c2508e481d6c946d12b",
                    "callData": "0x0000000000000000000000007be8076f4ea4a4ad08075c2508e481d6c946d12b000000000000000000000000320562f05baeeed8aa76a0110008bf0c8c156a8f000000000000000000000000bf80137831a4739314bf28111e68884b6bee7beb0000000000000000000000000000000000000000000000000000000000000000000000000000000000000000495f947276749ce646f68ac8c248420045cb7b5e000000000000000000000000000000000000000000000000000000000000000000000000000000000000000000000000000000000000000000000000000000000000000000000000000000007be8076f4ea4a4ad08075c2508e481d6c946d12b000000000000000000000000bf80137831a4739314bf28111e68884b6bee7beb00000000000000000000000000000000000000000000000000000000000000000000000000000000000000005b3256965e7c3cf26e11fcaf296dfc8807c01073000000000000000000000000495f947276749ce646f68ac8c248420045cb7b5e0000000000000000000000000000000000000000000000000000000000000000000000000000000000000000000000000000000000000000000000000000000000000000000000000000000000000000000000000000000000000000000004e200000000000000000000000000000000000000000000000000000000000000000000000000000000000000000000000000000000000000000000000000000000000000000000000000000000000000000000000000000000000000000000000000000000000000000000000000000000000000000000000000b1a2bc2ec500000000000000000000000000000000000000000000000000000000000000000000000000000000000000000000000000000000000000000000000000006104e2f900000000000000000000000000000000000000000000000000000000000000002da7aa9a828222ba8e1e048dc7f00d92073413cddcef6bc3419f67944691da9400000000000000000000000000000000000000000000000000000000000004e200000000000000000000000000000000000000000000000000000000000000000000000000000000000000000000000000000000000000000000000000000000000000000000000000000000000000000000000000000000000000000000000000000000000000000000000000000000000000000000000000b1a2bc2ec5000000000000000000000000000000000000000000000000000000000000000000000000000000000000000000000000000000000000000000000000000060f3939000000000000000000000000000000000000000000000000000000000000000007c33837221598af7fcbd63f6bda3175e491f1de9a7f2a5c388690862a42d8ce20000000000000000000000000000000000000000000000000000000000000001000000000000000000000000000000000000000000000000000000000000000000000000000000000000000000000000000000000000000000000000000000000000000000000000000000000000000000000000000000000000000000000000000000000000000000000000000000000000000000000000000000000000000100000000000000000000000000000000000000000000000000000000000000010000000000000000000000000000000000000000000000000000000000000000000000000000000000000000000000000000000000000000000000000000000000000000000000000000000000000000000000000000000000000000000006a000000000000000000000000000000000000000000000000000000000000007a000000000000000000000000000000000000000000000000000000000000008a000000000000000000000000000000000000000000000000000000000000009a00000000000000000000000000000000000000000000000000000000000000aa00000000000000000000000000000000000000000000000000000000000000ac0000000000000000000000000000000000000000000000000000000000000001b000000000000000000000000000000000000000000000000000000000000001b369215022a8310a8811fdf793838841d12f1746d774e879c3086d52473530c1d052d390292a7e49f545d0cb97ca0d9b9ce554c00a9b0fb4f69eb436ad925b244369215022a8310a8811fdf793838841d12f1746d774e879c3086d52473530c1d052d390292a7e49f545d0cb97ca0d9b9ce554c00a9b0fb4f69eb436ad925b244000000000000000000000000000000000000000000000000000000000000000000000000000000000000000000000000000000000000000000000000000000c4f242432a0000000000000000000000000000000000000000000000000000000000000000000000000000000000000000320562f05baeeed8aa76a0110008bf0c8c156a8fb03b5079fd4353047f1fb6e3ecfd6394e2853f340000000000002f0000000001000000000000000000000000000000000000000000000000000000000000000100000000000000000000000000000000000000000000000000000000000000a000000000000000000000000000000000000000000000000000000000000000000000000000000000000000000000000000000000000000000000000000000000000000000000000000000000000000000000000000000000000000c4f242432a000000000000000000000000bf80137831a4739314bf28111e68884b6bee7beb0000000000000000000000000000000000000000000000000000000000000000b03b5079fd4353047f1fb6e3ecfd6394e2853f340000000000002f0000000001000000000000000000000000000000000000000000000000000000000000000100000000000000000000000000000000000000000000000000000000000000a000000000000000000000000000000000000000000000000000000000000000000000000000000000000000000000000000000000000000000000000000000000000000000000000000000000000000000000000000000000000000c400000000ffffffffffffffffffffffffffffffffffffffffffffffffffffffffffffffff000000000000000000000000000000000000000000000000000000000000000000000000000000000000000000000000000000000000000000000000000000000000000000000000000000000000000000000000000000000000000000000000000000000000000000000000000000000000000000000000000000000000000000000000000000000000000000000000000000000000000000000000000000000000000000000000000000000000000000000000000000000000000000000000000000000000000000000000000000000000000000000000000000c4000000000000000000000000000000000000000000000000000000000000000000000000ffffffffffffffffffffffffffffffffffffffffffffffffffffffffffffffff00000000000000000000000000000000000000000000000000000000000000000000000000000000000000000000000000000000000000000000000000000000000000000000000000000000000000000000000000000000000000000000000000000000000000000000000000000000000000000000000000000000000000000000000000000000000000000000000000000000000000000000000000000000000000000000000000000000000000000000000000000000000000000000000000000000000000000000000000000000000000000000000000000000",
                    "decodedMethod": {
                        "callParams": [
                            {
                                "name": "addrs",
                                "type": "address[14]",
                                "value": [
                                    "0x7be8076f4ea4a4ad08075c2508e481d6c946d12b",
                                    "0x320562f05baeeed8aa76a0110008bf0c8c156a8f",
                                    "0xbf80137831a4739314bf28111e68884b6bee7beb",
                                    "0x0000000000000000000000000000000000000000",
                                    "0x495f947276749ce646f68ac8c248420045cb7b5e",
                                    "0x0000000000000000000000000000000000000000",
                                    "0x0000000000000000000000000000000000000000",
                                    "0x7be8076f4ea4a4ad08075c2508e481d6c946d12b",
                                    "0xbf80137831a4739314bf28111e68884b6bee7beb",
                                    "0x0000000000000000000000000000000000000000",
                                    "0x5b3256965e7c3cf26e11fcaf296dfc8807c01073",
                                    "0x495f947276749ce646f68ac8c248420045cb7b5e",
                                    "0x0000000000000000000000000000000000000000",
                                    "0x0000000000000000000000000000000000000000"
                                ]
                            },
                            {
                                "name": "uints",
                                "type": "uint256[18]",
                                "value": [
                                    "1,250",
                                    "0",
                                    "0",
                                    "0",
                                    "50,000,000,000,000,000",
                                    "0",
                                    "1,627,710,201",
                                    "0",
                                    "20,650,319,108,519,851,418,826,896,234,868,042,829,997,682,289,407,505,104,655,105,443,211,739,519,636",
                                    "1,250",
                                    "0",
                                    "0",
                                    "0",
                                    "50,000,000,000,000,000",
                                    "0",
                                    "1,626,575,760",
                                    "0",
                                    "56,177,809,630,346,220,793,684,216,983,073,466,657,054,044,633,388,363,094,004,170,938,706,727,636,194"
                                ]
                            },
                            {
                                "name": "feeMethodsSidesKindsHowToCalls",
                                "type": "uint8[8]",
                                "value": [
                                    "1",
                                    "0",
                                    "0",
                                    "0",
                                    "1",
                                    "1",
                                    "0",
                                    "0"
                                ]
                            },
                            {
                                "name": "calldataBuy",
                                "type": "bytes",
                                "value": "0xf242432a0000000000000000000000000000000000000000000000000000000000000000000000000000000000000000320562f05baeeed8aa76a0110008bf0c8c156a8fb03b5079fd4353047f1fb6e3ecfd6394e2853f340000000000002f0000000001000000000000000000000000000000000000000000000000000000000000000100000000000000000000000000000000000000000000000000000000000000a00000000000000000000000000000000000000000000000000000000000000000"
                            },
                            {
                                "name": "calldataSell",
                                "type": "bytes",
                                "value": "0xf242432a000000000000000000000000bf80137831a4739314bf28111e68884b6bee7beb0000000000000000000000000000000000000000000000000000000000000000b03b5079fd4353047f1fb6e3ecfd6394e2853f340000000000002f0000000001000000000000000000000000000000000000000000000000000000000000000100000000000000000000000000000000000000000000000000000000000000a00000000000000000000000000000000000000000000000000000000000000000"
                            },
                            {
                                "name": "replacementPatternBuy",
                                "type": "bytes",
                                "value": "0x00000000ffffffffffffffffffffffffffffffffffffffffffffffffffffffffffffffff00000000000000000000000000000000000000000000000000000000000000000000000000000000000000000000000000000000000000000000000000000000000000000000000000000000000000000000000000000000000000000000000000000000000000000000000000000000000000000000000000000000000000000000000000000000000000000000000000000000000000000000000000000000"
                            },
                            {
                                "name": "replacementPatternSell",
                                "type": "bytes",
                                "value": "0x000000000000000000000000000000000000000000000000000000000000000000000000ffffffffffffffffffffffffffffffffffffffffffffffffffffffffffffffff0000000000000000000000000000000000000000000000000000000000000000000000000000000000000000000000000000000000000000000000000000000000000000000000000000000000000000000000000000000000000000000000000000000000000000000000000000000000000000000000000000000000000000"
                            },
                            {
                                "name": "staticExtradataBuy",
                                "type": "bytes",
                                "value": "0x"
                            },
                            {
                                "name": "staticExtradataSell",
                                "type": "bytes",
                                "value": "0x"
                            },
                            {
                                "name": "vs",
                                "type": "uint8[2]",
                                "value": [
                                    "27",
                                    "27"
                                ]
                            },
                            {
                                "name": "rssMetadata",
                                "type": "bytes32[5]",
                                "value": [
                                    "0x369215022a8310a8811fdf793838841d12f1746d774e879c3086d52473530c1d",
                                    "0x052d390292a7e49f545d0cb97ca0d9b9ce554c00a9b0fb4f69eb436ad925b244",
                                    "0x369215022a8310a8811fdf793838841d12f1746d774e879c3086d52473530c1d",
                                    "0x052d390292a7e49f545d0cb97ca0d9b9ce554c00a9b0fb4f69eb436ad925b244",
                                    "0x0000000000000000000000000000000000000000000000000000000000000000"
                                ]
                            }
                        ],
                        "constructorArguments": "",
                        "name": "atomicMatch_",
                        "returnParams": [],
                        "signature": "atomicMatch_(address[14],uint256[18],uint8[8],bytes,bytes,bytes,bytes,bytes,bytes,uint8[2],bytes32[5])"
                    },
                    "errorInfo": "",
                    "fromAddress": "0x320562f05baeeed8aa76a0110008bf0c8c156a8f",
                    "gasUsed": 178683,
                    "id": 0,
                    "methodDecoded": true,
                    "operation": "CALL",
                    "output": "",
                    "revert": false,
                    "revertMessage": "",
                    "selector": "0xab834bab",
                    "status": true,
                    "value": "0.05"
                },
                "nodeType": 0
            },
            "1": {
                "invocation": {
                    "address": "0x0000000000000000000000000000000000000001",
                    "callData": "0xc60a249e43d1d5fb5748a1fbdf0015af661069e14900a83748acad12000000000000000000000000000000000000000000000000000000000000001b369215022a8310a8811fdf793838841d12f1746d774e879c3086d52473530c1d052d390292a7e49f545d0cb97ca0d9b9ce554c00a9b0fb4f69eb436ad925b244",
                    "decodedMethod": {
                        "callParams": [
                            {
                                "name": "hash",
                                "type": "bytes32",
                                "value": "0x3f1dd4ecc60a249e43d1d5fb5748a1fbdf0015af661069e14900a83748acad12"
                            },
                            {
                                "name": "v",
                                "type": "uint256",
                                "value": "27"
                            },
                            {
                                "name": "r",
                                "type": "bytes32",
                                "value": "0x369215022a8310a8811fdf793838841d12f1746d774e879c3086d52473530c1d"
                            },
                            {
                                "name": "s",
                                "type": "bytes32",
                                "value": "0x052d390292a7e49f545d0cb97ca0d9b9ce554c00a9b0fb4f69eb436ad925b244"
                            }
                        ],
                        "constructorArguments": "",
                        "name": "ecrecover",
                        "returnParams": [
                            {
                                "name": "",
                                "type": "address",
                                "value": "0xbf80137831a4739314bf28111e68884b6bee7beb"
                            }
                        ],
                        "signature": "ecrecover(bytes32,uint256,bytes32,bytes32)"
                    },
                    "errorInfo": "",
                    "fromAddress": "0x7be8076f4ea4a4ad08075c2508e481d6c946d12b",
                    "gasUsed": 3000,
                    "id": 1,
                    "methodDecoded": true,
                    "operation": "CALL",
                    "output": "0x000000000000000000000000bf80137831a4739314bf28111e68884b6bee7beb",
                    "revert": false,
                    "revertMessage": "",
                    "selector": "0x3f1dd4ec",
                    "status": true,
                    "value": "0"
                },
                "nodeType": 0
            },
            "10": {
                "invocation": {
                    "address": "0x495f947276749ce646f68ac8c248420045cb7b5e",
                    "callData": "0x000000000000000000000000bf80137831a4739314bf28111e68884b6bee7beb000000000000000000000000320562f05baeeed8aa76a0110008bf0c8c156a8fb03b5079fd4353047f1fb6e3ecfd6394e2853f340000000000002f0000000001000000000000000000000000000000000000000000000000000000000000000100000000000000000000000000000000000000000000000000000000000000a0000000000000000000000000000000000000000000000000000000000000000000000000000000000000000000000000000000000000000000000000",
                    "decodedMethod": {
                        "callParams": [
                            {
                                "name": "from",
                                "type": "address",
                                "value": "0xbf80137831a4739314bf28111e68884b6bee7beb"
                            },
                            {
                                "name": "to",
                                "type": "address",
                                "value": "0x320562f05baeeed8aa76a0110008bf0c8c156a8f"
                            },
                            {
                                "name": "id",
                                "type": "uint256",
                                "value": "79,711,860,756,009,804,397,044,124,131,261,570,909,561,527,756,554,494,652,524,010,182,631,439,204,353"
                            },
                            {
                                "name": "amount",
                                "type": "uint256",
                                "value": "1"
                            },
                            {
                                "name": "data",
                                "type": "bytes",
                                "value": "0x"
                            }
                        ],
                        "constructorArguments": "",
                        "name": "safeTransferFrom",
                        "returnParams": [],
                        "signature": "safeTransferFrom(address,address,uint256,uint256,bytes)"
                    },
                    "errorInfo": "",
                    "fromAddress": "0x2d4740f987e3526236759799134ac2b30c1c6ed2",
                    "gasUsed": 37946,
                    "id": 10,
                    "methodDecoded": true,
                    "operation": "CALL",
                    "output": "",
                    "revert": false,
                    "revertMessage": "",
                    "selector": "0xf242432a",
                    "status": true,
                    "value": "0"
                },
                "nodeType": 0
            },
            "11": {
                "invocation": {
                    "address": "0xa5409ec958c83c3f309868babaca7c86dcb077c1",
                    "callData": "0x000000000000000000000000bf80137831a4739314bf28111e68884b6bee7beb",
                    "decodedMethod": {
                        "callParams": [
                            {
                                "name": "",
                                "type": "address",
                                "value": "0xbf80137831a4739314bf28111e68884b6bee7beb"
                            }
                        ],
                        "constructorArguments": "",
                        "name": "proxies",
                        "returnParams": [
                            {
                                "name": "",
                                "type": "address",
                                "value": "0x2d4740f987e3526236759799134ac2b30c1c6ed2"
                            }
                        ],
                        "signature": "proxies(address)"
                    },
                    "errorInfo": "",
                    "fromAddress": "0x495f947276749ce646f68ac8c248420045cb7b5e",
                    "gasUsed": 782,
                    "id": 11,
                    "methodDecoded": true,
                    "operation": "STATICCALL",
                    "output": "0x0000000000000000000000002d4740f987e3526236759799134ac2b30c1c6ed2",
                    "revert": false,
                    "revertMessage": "",
                    "selector": "0xc4552791",
                    "status": true,
                    "value": "0"
                },
                "nodeType": 0
            },
            "12": {
                "event": {
                    "contract": "0x495f947276749ce646f68ac8c248420045cb7b5e",
                    "decodedLog": {
                        "name": "TransferSingle",
                        "params": [
                            {
                                "name": "operator",
                                "type": "address",
                                "value": "0x2d4740f987e3526236759799134ac2b30c1c6ed2"
                            },
                            {
                                "name": "from",
                                "type": "address",
                                "value": "0xbf80137831a4739314bf28111e68884b6bee7beb"
                            },
                            {
                                "name": "to",
                                "type": "address",
                                "value": "0x320562f05baeeed8aa76a0110008bf0c8c156a8f"
                            },
                            {
                                "name": "id",
                                "type": "uint256",
                                "value": "79,711,860,756,009,804,397,044,124,131,261,570,909,561,527,756,554,494,652,524,010,182,631,439,204,353"
                            },
                            {
                                "name": "value",
                                "type": "uint256",
                                "value": "1"
                            }
                        ],
                        "signature": "TransferSingle(address,address,address,uint256,uint256)"
                    },
                    "id": 12,
                    "logData": "0xb03b5079fd4353047f1fb6e3ecfd6394e2853f340000000000002f00000000010000000000000000000000000000000000000000000000000000000000000001",
                    "logDecoded": true,
                    "operation": "EVENT",
                    "revert": false,
                    "status": true,
                    "topics": [
                        "0xc3d58168c5ae7397731d063d5bbf3d657854427343f4c083240f7aacaa2d0f62",
                        "0x0000000000000000000000002d4740f987e3526236759799134ac2b30c1c6ed2",
                        "0x000000000000000000000000bf80137831a4739314bf28111e68884b6bee7beb",
                        "0x000000000000000000000000320562f05baeeed8aa76a0110008bf0c8c156a8f"
                    ]
                },
                "nodeType": 1
            },
            "13": {
                "event": {
                    "contract": "0x7be8076f4ea4a4ad08075c2508e481d6c946d12b",
                    "decodedLog": {
                        "name": "OrdersMatched",
                        "params": [
                            {
                                "name": "maker",
                                "type": "address",
                                "value": "0xbf80137831a4739314bf28111e68884b6bee7beb"
                            },
                            {
                                "name": "taker",
                                "type": "address",
                                "value": "0x320562f05baeeed8aa76a0110008bf0c8c156a8f"
                            },
                            {
                                "name": "metadata",
                                "type": "bytes32",
                                "value": "0x0000000000000000000000000000000000000000000000000000000000000000"
                            },
                            {
                                "name": "buyHash",
                                "type": "bytes32",
                                "value": "0x0000000000000000000000000000000000000000000000000000000000000000"
                            },
                            {
                                "name": "sellHash",
                                "type": "bytes32",
                                "value": "0x3f1dd4ecc60a249e43d1d5fb5748a1fbdf0015af661069e14900a83748acad12"
                            },
                            {
                                "name": "price",
                                "type": "uint256",
                                "value": "50,000,000,000,000,000"
                            }
                        ],
                        "signature": "OrdersMatched(bytes32,bytes32,address,address,uint256,bytes32)"
                    },
                    "id": 13,
                    "logData": "0x00000000000000000000000000000000000000000000000000000000000000003f1dd4ecc60a249e43d1d5fb5748a1fbdf0015af661069e14900a83748acad1200000000000000000000000000000000000000000000000000b1a2bc2ec50000",
                    "logDecoded": true,
                    "operation": "EVENT",
                    "revert": false,
                    "status": true,
                    "topics": [
                        "0xc4109843e0b7d514e4c093114b863f8e7d8d9a458c372cd51bfe526b588006c9",
                        "0x000000000000000000000000bf80137831a4739314bf28111e68884b6bee7beb",
                        "0x000000000000000000000000320562f05baeeed8aa76a0110008bf0c8c156a8f",
                        "0x0000000000000000000000000000000000000000000000000000000000000000"
                    ]
                },
                "nodeType": 1
            },
            "2": {
                "invocation": {
                    "address": "0xa5409ec958c83c3f309868babaca7c86dcb077c1",
                    "callData": "0x000000000000000000000000bf80137831a4739314bf28111e68884b6bee7beb",
                    "decodedMethod": {
                        "callParams": [
                            {
                                "name": "",
                                "type": "address",
                                "value": "0xbf80137831a4739314bf28111e68884b6bee7beb"
                            }
                        ],
                        "constructorArguments": "",
                        "name": "proxies",
                        "returnParams": [
                            {
                                "name": "",
                                "type": "address",
                                "value": "0x2d4740f987e3526236759799134ac2b30c1c6ed2"
                            }
                        ],
                        "signature": "proxies(address)"
                    },
                    "errorInfo": "",
                    "fromAddress": "0x7be8076f4ea4a4ad08075c2508e481d6c946d12b",
                    "gasUsed": 2782,
                    "id": 2,
                    "methodDecoded": true,
                    "operation": "CALL",
                    "output": "0x0000000000000000000000002d4740f987e3526236759799134ac2b30c1c6ed2",
                    "revert": false,
                    "revertMessage": "",
                    "selector": "0xc4552791",
                    "status": true,
                    "value": "0"
                },
                "nodeType": 0
            },
            "3": {
                "invocation": {
                    "address": "0xa5409ec958c83c3f309868babaca7c86dcb077c1",
                    "callData": "0x",
                    "decodedMethod": {
                        "callParams": [],
                        "constructorArguments": "",
                        "name": "delegateProxyImplementation",
                        "returnParams": [
                            {
                                "name": "",
                                "type": "address",
                                "value": "0xf9e266af4bca5890e2781812cc6a6e89495a79f2"
                            }
                        ],
                        "signature": "delegateProxyImplementation()"
                    },
                    "errorInfo": "",
                    "fromAddress": "0x7be8076f4ea4a4ad08075c2508e481d6c946d12b",
                    "gasUsed": 2613,
                    "id": 3,
                    "methodDecoded": true,
                    "operation": "CALL",
                    "output": "0x000000000000000000000000f9e266af4bca5890e2781812cc6a6e89495a79f2",
                    "revert": false,
                    "revertMessage": "",
                    "selector": "0x97204d8e",
                    "status": true,
                    "value": "0"
                },
                "nodeType": 0
            },
            "4": {
                "invocation": {
                    "address": "0x2d4740f987e3526236759799134ac2b30c1c6ed2",
                    "callData": "0x",
                    "decodedMethod": {
                        "callParams": [],
                        "constructorArguments": "",
                        "name": "implementation",
                        "returnParams": [
                            {
                                "name": "",
                                "type": "address",
                                "value": "0xf9e266af4bca5890e2781812cc6a6e89495a79f2"
                            }
                        ],
                        "signature": "implementation()"
                    },
                    "errorInfo": "",
                    "fromAddress": "0x7be8076f4ea4a4ad08075c2508e481d6c946d12b",
                    "gasUsed": 2525,
                    "id": 4,
                    "methodDecoded": true,
                    "operation": "CALL",
                    "output": "0x000000000000000000000000f9e266af4bca5890e2781812cc6a6e89495a79f2",
                    "revert": false,
                    "revertMessage": "",
                    "selector": "0x5c60da1b",
                    "status": true,
                    "value": "0"
                },
                "nodeType": 0
            },
            "5": {
                "invocation": {
                    "address": "0x5b3256965e7c3cf26e11fcaf296dfc8807c01073",
                    "callData": "0x",
                    "decodedMethod": null,
                    "errorInfo": "",
                    "fromAddress": "0x7be8076f4ea4a4ad08075c2508e481d6c946d12b",
                    "gasUsed": 0,
                    "id": 5,
                    "methodDecoded": false,
                    "operation": "CALL",
                    "output": "",
                    "revert": false,
                    "revertMessage": "",
                    "selector": "fallback",
                    "status": true,
                    "value": "0.00625"
                },
                "nodeType": 0
            },
            "6": {
                "invocation": {
                    "address": "0xbf80137831a4739314bf28111e68884b6bee7beb",
                    "callData": "0x",
                    "decodedMethod": null,
                    "errorInfo": "",
                    "fromAddress": "0x7be8076f4ea4a4ad08075c2508e481d6c946d12b",
                    "gasUsed": 0,
                    "id": 6,
                    "methodDecoded": false,
                    "operation": "CALL",
                    "output": "",
                    "revert": false,
                    "revertMessage": "",
                    "selector": "fallback",
                    "status": true,
                    "value": "0.04375"
                },
                "nodeType": 0
            },
            "7": {
                "invocation": {
                    "address": "0x2d4740f987e3526236759799134ac2b30c1c6ed2",
                    "callData": "0x000000000000000000000000495f947276749ce646f68ac8c248420045cb7b5e0000000000000000000000000000000000000000000000000000000000000000000000000000000000000000000000000000000000000000000000000000006000000000000000000000000000000000000000000000000000000000000000c4f242432a000000000000000000000000bf80137831a4739314bf28111e68884b6bee7beb000000000000000000000000320562f05baeeed8aa76a0110008bf0c8c156a8fb03b5079fd4353047f1fb6e3ecfd6394e2853f340000000000002f0000000001000000000000000000000000000000000000000000000000000000000000000100000000000000000000000000000000000000000000000000000000000000a0000000000000000000000000000000000000000000000000000000000000000000000000000000000000000000000000000000000000000000000000",
                    "decodedMethod": {
                        "callParams": [
                            {
                                "name": "dest",
                                "type": "address",
                                "value": "0x495f947276749ce646f68ac8c248420045cb7b5e"
                            },
                            {
                                "name": "howToCall",
                                "type": "uint8",
                                "value": "0"
                            },
                            {
                                "name": "calldata",
                                "type": "bytes",
                                "value": "0xf242432a000000000000000000000000bf80137831a4739314bf28111e68884b6bee7beb000000000000000000000000320562f05baeeed8aa76a0110008bf0c8c156a8fb03b5079fd4353047f1fb6e3ecfd6394e2853f340000000000002f0000000001000000000000000000000000000000000000000000000000000000000000000100000000000000000000000000000000000000000000000000000000000000a00000000000000000000000000000000000000000000000000000000000000000"
                            }
                        ],
                        "constructorArguments": "",
                        "name": "proxy",
                        "returnParams": [
                            {
                                "name": "result",
                                "type": "bool",
                                "value": true
                            }
                        ],
                        "signature": "proxy(address,uint8,bytes)"
                    },
                    "errorInfo": "",
                    "fromAddress": "0x7be8076f4ea4a4ad08075c2508e481d6c946d12b",
                    "gasUsed": 50349,
                    "id": 7,
                    "methodDecoded": true,
                    "operation": "CALL",
                    "output": "0x0000000000000000000000000000000000000000000000000000000000000001",
                    "revert": false,
                    "revertMessage": "",
                    "selector": "0x1b0f7ba9",
                    "status": true,
                    "value": "0"
                },
                "nodeType": 0
            },
            "8": {
                "invocation": {
                    "address": "0xf9e266af4bca5890e2781812cc6a6e89495a79f2",
                    "callData": "0x000000000000000000000000495f947276749ce646f68ac8c248420045cb7b5e0000000000000000000000000000000000000000000000000000000000000000000000000000000000000000000000000000000000000000000000000000006000000000000000000000000000000000000000000000000000000000000000c4f242432a000000000000000000000000bf80137831a4739314bf28111e68884b6bee7beb000000000000000000000000320562f05baeeed8aa76a0110008bf0c8c156a8fb03b5079fd4353047f1fb6e3ecfd6394e2853f340000000000002f0000000001000000000000000000000000000000000000000000000000000000000000000100000000000000000000000000000000000000000000000000000000000000a0000000000000000000000000000000000000000000000000000000000000000000000000000000000000000000000000000000000000000000000000",
                    "decodedMethod": {
                        "callParams": [
                            {
                                "name": "dest",
                                "type": "address",
                                "value": "0x495f947276749ce646f68ac8c248420045cb7b5e"
                            },
                            {
                                "name": "howToCall",
                                "type": "uint8",
                                "value": "0"
                            },
                            {
                                "name": "calldata",
                                "type": "bytes",
                                "value": "0xf242432a000000000000000000000000bf80137831a4739314bf28111e68884b6bee7beb000000000000000000000000320562f05baeeed8aa76a0110008bf0c8c156a8fb03b5079fd4353047f1fb6e3ecfd6394e2853f340000000000002f0000000001000000000000000000000000000000000000000000000000000000000000000100000000000000000000000000000000000000000000000000000000000000a00000000000000000000000000000000000000000000000000000000000000000"
                            }
                        ],
                        "constructorArguments": "",
                        "name": "proxy",
                        "returnParams": [
                            {
                                "name": "result",
                                "type": "bool",
                                "value": true
                            }
                        ],
                        "signature": "proxy(address,uint8,bytes)"
                    },
                    "errorInfo": "",
                    "fromAddress": "0x2d4740f987e3526236759799134ac2b30c1c6ed2",
                    "gasUsed": 47071,
                    "id": 8,
                    "methodDecoded": true,
                    "operation": "DELEGATECALL",
                    "output": "0x0000000000000000000000000000000000000000000000000000000000000001",
                    "revert": false,
                    "revertMessage": "",
                    "selector": "0x1b0f7ba9",
                    "status": true,
                    "value": "0"
                },
                "nodeType": 0
            },
            "9": {
                "invocation": {
                    "address": "0xa5409ec958c83c3f309868babaca7c86dcb077c1",
                    "callData": "0x0000000000000000000000007be8076f4ea4a4ad08075c2508e481d6c946d12b",
                    "decodedMethod": {
                        "callParams": [
                            {
                                "name": "",
                                "type": "address",
                                "value": "0x7be8076f4ea4a4ad08075c2508e481d6c946d12b"
                            }
                        ],
                        "constructorArguments": "",
                        "name": "contracts",
                        "returnParams": [
                            {
                                "name": "",
                                "type": "bool",
                                "value": true
                            }
                        ],
                        "signature": "contracts(address)"
                    },
                    "errorInfo": "",
                    "fromAddress": "0x2d4740f987e3526236759799134ac2b30c1c6ed2",
                    "gasUsed": 2553,
                    "id": 9,
                    "methodDecoded": true,
                    "operation": "CALL",
                    "output": "0x0000000000000000000000000000000000000000000000000000000000000001",
                    "revert": false,
                    "revertMessage": "",
                    "selector": "0x69dc9ff3",
                    "status": true,
                    "value": "0"
                },
                "nodeType": 0
            }
        },
        "gasFlame": [
            {
                "children": [
                    {
                        "children": [
                            {
                                "children": [],
                                "depth": 0,
                                "name": "Initial Gas",
                                "value": 38788
                            },
                            {
                                "children": [
                                    {
                                        "children": [],
                                        "depth": 1,
                                        "name": "ecrecover",
                                        "value": 3000
                                    },
                                    {
                                        "children": [],
                                        "depth": 1,
                                        "name": "proxies",
                                        "value": 2782
                                    },
                                    {
                                        "children": [],
                                        "depth": 1,
                                        "name": "delegateProxyImplementation",
                                        "value": 2613
                                    },
                                    {
                                        "children": [],
                                        "depth": 1,
                                        "name": "implementation",
                                        "value": 2525
                                    },
                                    {
                                        "children": [],
                                        "depth": 1,
                                        "name": "fallback",
                                        "value": 0
                                    },
                                    {
                                        "children": [],
                                        "depth": 1,
                                        "name": "fallback",
                                        "value": 0
                                    },
                                    {
                                        "children": [
                                            {
                                                "children": [
                                                    {
                                                        "children": [],
                                                        "depth": 3,
                                                        "name": "contracts",
                                                        "value": 2553
                                                    },
                                                    {
                                                        "children": [
                                                            {
                                                                "children": [],
                                                                "depth": 4,
                                                                "name": "proxies",
                                                                "value": 782
                                                            }
                                                        ],
                                                        "depth": 3,
                                                        "name": "safeTransferFrom",
                                                        "value": 37946
                                                    }
                                                ],
                                                "depth": 2,
                                                "name": "proxy",
                                                "value": 47071
                                            }
                                        ],
                                        "depth": 1,
                                        "name": "proxy",
                                        "value": 50349
                                    }
                                ],
                                "depth": 0,
                                "name": "Executed Gas",
                                "value": 157695
                            }
                        ],
                        "depth": -1,
                        "name": "Actual Gas Used",
                        "value": 178683
                    },
                    {
                        "children": [],
                        "depth": -1,
                        "name": "Refunded Gas",
                        "value": 17800
                    }
                ],
                "depth": -2,
                "name": "Total Gas",
                "value": 196483
            }
        ],
        "isConfirmed": true,
        "mainTrace": [
            {
                "children": [
                    {
                        "children": [
                            {
                                "children": [],
                                "depth": 1,
                                "id": 1,
                                "order": 1
                            },
                            {
                                "children": [],
                                "depth": 1,
                                "id": 2,
                                "order": 2
                            },
                            {
                                "children": [],
                                "depth": 1,
                                "id": 3,
                                "order": 3
                            },
                            {
                                "children": [],
                                "depth": 1,
                                "id": 4,
                                "order": 4
                            },
                            {
                                "children": [],
                                "depth": 1,
                                "id": 5,
                                "order": 5
                            },
                            {
                                "children": [],
                                "depth": 1,
                                "id": 6,
                                "order": 6
                            },
                            {
                                "children": [
                                    {
                                        "children": [
                                            {
                                                "children": [],
                                                "depth": 3,
                                                "id": 9,
                                                "order": 9
                                            },
                                            {
                                                "children": [
                                                    {
                                                        "children": [],
                                                        "depth": 4,
                                                        "id": 11,
                                                        "order": 11
                                                    },
                                                    {
                                                        "children": [],
                                                        "depth": 4,
                                                        "id": 12,
                                                        "order": 12
                                                    }
                                                ],
                                                "depth": 3,
                                                "id": 10,
                                                "order": 10
                                            }
                                        ],
                                        "depth": 2,
                                        "id": 8,
                                        "order": 8
                                    }
                                ],
                                "depth": 1,
                                "id": 7,
                                "order": 7
                            },
                            {
                                "children": [],
                                "depth": 1,
                                "id": 13,
                                "order": 13
                            }
                        ],
                        "depth": 0,
                        "id": 0,
                        "order": 0
                    }
                ],
                "depth": -1,
                "id": -1,
                "order": -1
            }
        ],
        "mainTraceNodeCount": 14,
        "parentIdMap": {
            "0": -1,
            "1": 0,
            "10": 8,
            "11": 10,
            "12": 10,
            "13": 0,
            "2": 0,
            "3": 0,
            "4": 0,
            "5": 0,
            "6": 0,
            "7": 0,
            "8": 7,
            "9": 8
        },
        "tidyTrace": [
            {
                "children": [
                    {
                        "children": [
                            {
                                "children": [],
                                "depth": 1,
                                "id": 1,
                                "order": 1
                            },
                            {
                                "children": [],
                                "depth": 1,
                                "id": 2,
                                "order": 2
                            },
                            {
                                "children": [],
                                "depth": 1,
                                "id": 3,
                                "order": 3
                            },
                            {
                                "children": [],
                                "depth": 1,
                                "id": 4,
                                "order": 4
                            },
                            {
                                "children": [],
                                "depth": 1,
                                "id": 5,
                                "order": 5
                            },
                            {
                                "children": [],
                                "depth": 1,
                                "id": 6,
                                "order": 6
                            },
                            {
                                "children": [
                                    {
                                        "children": [
                                            {
                                                "children": [],
                                                "depth": 3,
                                                "id": 9,
                                                "order": 9
                                            },
                                            {
                                                "children": [
                                                    {
                                                        "children": [],
                                                        "depth": 4,
                                                        "id": 12,
                                                        "order": 12
                                                    }
                                                ],
                                                "depth": 3,
                                                "id": 10,
                                                "order": 10
                                            }
                                        ],
                                        "depth": 2,
                                        "id": 8,
                                        "order": 8
                                    }
                                ],
                                "depth": 1,
                                "id": 7,
                                "order": 7
                            },
                            {
                                "children": [],
                                "depth": 1,
                                "id": 13,
                                "order": 13
                            }
                        ],
                        "depth": 0,
                        "id": 0,
                        "order": 0
                    }
                ],
                "depth": -1,
                "id": -1,
                "order": -1
            }
        ],
        "tidyTraceNodeCount": 13
    },
    "state_change": {
        "stateChanges": [
            {
                "address": "0x495f947276749ce646f68ac8c248420045cb7b5e",
                "erc": "",
                "slots": [
                    {
                        "current": "0x0000000000000000000000000000000000000000000000000000000000000000",
                        "key": "0xef9d5b70ad49158251ca44a3c554808dce04bb01c46a3d7cce6a4292aab26a8e",
                        "prev": "0x0000000000000000000000000000000000000000000000000000000000000001"
                    },
                    {
                        "current": "0x0000000000000000000000000000000000000000000000000000000000000001",
                        "key": "0x5da675bd705be4df426576cdf87742ba66c888761d6c0080c190d2b501eccdfb",
                        "prev": "0x0000000000000000000000000000000000000000000000000000000000000000"
                    }
                ],
                "storageVariables": []
            },
            {
                "address": "0x7be8076f4ea4a4ad08075c2508e481d6c946d12b",
                "erc": "",
                "slots": [
                    {
                        "current": "0x0000000000000000000000000000000000000000000000000000000000000001",
                        "key": "0x471ac104cb0955fc4e7d46ca7dbc12a2b85f934303fad96a51684aaf226b5966",
                        "prev": "0x0000000000000000000000000000000000000000000000000000000000000000"
                    }
                ],
                "storageVariables": [
                    {
                        "name": "cancelledOrFinalized",
                        "type": "mapping(bytes32 => bool)",
                        "value": {
                            "pairs": [
                                {
                                    "key": "0x3f1dd4ecc60a249e43d1d5fb5748a1fbdf0015af661069e14900a83748acad12",
                                    "value": {
                                        "current": "true",
                                        "prev": "false",
                                        "typeTag": 1
                                    }
                                }
                            ],
                            "typeTag": 4
                        }
                    }
                ]
            }
        ]
    }
}