{
    "balance_change": {
        "balanceChanges": [
            {
                "account": "0x29d5527caa78f1946a409fa6acaf14a0a4a0274b",
                "assets": [
                    {
                        "address": "0xdac17f958d2ee523a2206206994597c13d831ec7",
                        "amount": "53.05",
                        "iconUrl": "https://assets.blocksec.com/icon/fcea71f3193ce895be44bfdf941f7e4c9381dd587f273c2d1a27f1263d84e4ea.png",
                        "isERC1155": false,
                        "isERC721": false,
                        "sign": false,
                        "value": "53.05255329"
                    }
                ]
            },
            {
                "account": "0x7499ec6e5efa1580d0a429aff8578576313898aa",
                "assets": [
                    {
                        "address": "0xdac17f958d2ee523a2206206994597c13d831ec7",
                        "amount": "53.05",
                        "iconUrl": "https://assets.blocksec.com/icon/fcea71f3193ce895be44bfdf941f7e4c9381dd587f273c2d1a27f1263d84e4ea.png",
                        "isERC1155": false,
                        "isERC721": false,
                        "sign": true,
                        "value": "53.05255329"
                    }
                ]
            }
        ]
    },
    "profile": {
        "basic_info": {
            "baseFee": "27.058055437",
            "blockNumber": 14729943,
            "callData": "0xa9059cbb0000000000000000000000007499ec6e5efa1580d0a429aff8578576313898aa0000000000000000000000000000000000000000000000000000000003297a90",
            "debugEnable": true,
            "errorInfo": "",
            "eventCount": 1,
            "feeRecipient": "0xd757fd54b273bb1234d4d9993f27699d28d0edd2",
            "formatValue": "0",
            "gasLimit": 65000,
            "gasPrice": "28.558055437",
            "gasUsed": 63209,
            "intTxnCount": 0,
            "internalRevert": false,
            "internalRevertMessage": "",
            "isContractCreation": false,
            "isFlashloan": false,
            "maxFee": "31.398991866",
            "nonce": 555099,
            "overwritedBlockNumber": -1,
            "priorityFee": "1.5",
            "receiver": "0xdac17f958d2ee523a2206206994597c13d831ec7",
            "revertMessage": "",
            "sender": "0x29d5527caa78f1946a409fa6acaf14a0a4a0274b",
            "simulationEnable": true,
            "sourceTxnHash": "0xd7d59cdceccf0a8d06079d842493e8de52ff272a1563f971715b16c3e15a32ab",
            "status": true,
            "timestamp": "2022-05-07T12:53:06Z",
            "transactionFee": "0.001805126126117333",
            "txnHash": "0xd7d59cdceccf0a8d06079d842493e8de52ff272a1563f971715b16c3e15a32ab",
            "txnIndex": 68,
            "type": 2,
            "value": "0"
        },
        "fund_flow": [
            {
                "amount": "53.05",
                "from": "0x29d5527caa78f1946a409fa6acaf14a0a4a0274b",
                "id": 1,
                "isERC1155": false,
                "isERC721": false,
                "isReverted": false,
                "order": 1,
                "to": "0x7499ec6e5efa1580d0a429aff8578576313898aa",
                "token": "0xdac17f958d2ee523a2206206994597c13d831ec7"
            }
        ],
        "token_infos": [
            {
                "address": "0xdac17f958d2ee523a2206206994597c13d831ec7",
                "decimals": 6
            },
            {
                "address": "0xeeeeeeeeeeeeeeeeeeeeeeeeeeeeeeeeeeeeeeee",
                "decimals": 18
            },
            {
                "address": "0xc02aaa39b223fe8d0a0e5c4f27ead9083c756cc2",
                "decimals": 18
            }
        ]
    },
    "address_label": {
        "labels": [
            {
                "address": "0x0000000000000000000000000000000000000003",
                "label": "Precompiled"
            },
            {
                "address": "0x0000000000000000000000000000000000000004",
                "label": "Precompiled"
            },
            {
                "address": "0xeeeeeeeeeeeeeeeeeeeeeeeeeeeeeeeeeeeeeeee",
                "label": "Ether"
            },
            {
                "address": "0xdac17f958d2ee523a2206206994597c13d831ec7",
                "label": "Tether: USDT Stablecoin"
            },
            {
                "address": "0x29d5527caa78f1946a409fa6acaf14a0a4a0274b",
                "label": "Bitso 2"
            },
            {
                "address": "0x0000000000000000000000000000000000000001",
                "label": "Precompiled"
            },
            {
                "address": "0x0000000000000000000000000000000000000002",
                "label": "Precompiled"
            }
        ]
    },
    "trace": {
        "accountLabels": null,
        "dataMap": {
            "-1": {
                "invocation": {
                    "address": "0x29d5527caa78f1946a409fa6acaf14a0a4a0274b",
                    "callData": "",
                    "decodedMethod": null,
                    "errorInfo": "",
                    "fromAddress": "",
                    "gasUsed": 0,
                    "id": -1,
                    "methodDecoded": false,
                    "operation": "",
                    "output": "",
                    "revert": false,
                    "revertMessage": "",
                    "selector": "",
                    "status": false,
                    "value": ""
                },
                "nodeType": 0
            },
            "0": {
                "invocation": {
                    "address": "0xdac17f958d2ee523a2206206994597c13d831ec7",
                    "callData": "0x0000000000000000000000007499ec6e5efa1580d0a429aff8578576313898aa0000000000000000000000000000000000000000000000000000000003297a90",
                    "decodedMethod": {
                        "callParams": [
                            {
                                "name": "_to",
                                "type": "address",
                                "value": "0x7499ec6e5efa1580d0a429aff8578576313898aa"
                            },
                            {
                                "decimalAvailable": true,
                                "name": "_value",
                                "type": "uint256",
                                "value": "53,050,000"
                            }
                        ],
                        "constructorArguments": "",
                        "name": "transfer",
                        "returnParams": [],
                        "signature": "transfer(address,uint256)"
                    },
                    "errorInfo": "",
                    "fromAddress": "0x29d5527caa78f1946a409fa6acaf14a0a4a0274b",
                    "gasUsed": 63209,
                    "id": 0,
                    "methodDecoded": true,
                    "operation": "CALL",
                    "output": "",
                    "revert": false,
                    "revertMessage": "",
                    "selector": "0xa9059cbb",
                    "status": true,
                    "value": "0"
                },
                "nodeType": 0
            },
            "1": {
                "event": {
                    "contract": "0xdac17f958d2ee523a2206206994597c13d831ec7",
                    "decodedLog": {
                        "name": "Transfer",
                        "params": [
                            {
                                "name": "from",
                                "type": "address",
                                "value": "0x29d5527caa78f1946a409fa6acaf14a0a4a0274b"
                            },
                            {
                                "name": "to",
                                "type": "address",
                                "value": "0x7499ec6e5efa1580d0a429aff8578576313898aa"
                            },
                            {
                                "decimalAvailable": true,
                                "name": "value",
                                "type": "uint256",
                                "value": "53,050,000"
                            }
                        ],
                        "signature": "Transfer(address,address,uint256)"
                    },
                    "id": 1,
                    "logData": "0x0000000000000000000000000000000000000000000000000000000003297a90",
                    "logDecoded": true,
                    "operation": "EVENT",
                    "revert": false,
                    "status": true,
                    "topics": [
                        "0xddf252ad1be2c89b69c2b068fc378daa952ba7f163c4a11628f55a4df523b3ef",
                        "0x00000000000000000000000029d5527caa78f1946a409fa6acaf14a0a4a0274b",
                        "0x0000000000000000000000007499ec6e5efa1580d0a429aff8578576313898aa"
                    ]
                },
                "nodeType": 1
            }
        },
        "gasFlame": [
            {
                "children": [
                    {
                        "children": [
                            {
                                "children": [],
                                "depth": 0,
                                "name": "Initial Gas",
                                "value": 21608
                            },
                            {
                                "children": [],
                                "depth": 0,
                                "name": "Executed Gas",
                                "value": 41601
                            }
                        ],
                        "depth": -1,
                        "name": "Actual Gas Used",
                        "value": 63209
                    },
                    {
                        "children": [],
                        "depth": -1,
                        "name": "Refunded Gas",
                        "value": 0
                    }
                ],
                "depth": -2,
                "name": "Total Gas",
                "value": 63209
            }
        ],
        "isConfirmed": true,
        "mainTrace": [
            {
                "children": [
                    {
                        "children": [
                            {
                                "children": [],
                                "depth": 1,
                                "id": 1,
                                "order": 1
                            }
                        ],
                        "depth": 0,
                        "id": 0,
                        "order": 0
                    }
                ],
                "depth": -1,
                "id": -1,
                "order": -1
            }
        ],
        "mainTraceNodeCount": 2,
        "parentIdMap": {
            "0": -1,
            "1": 0
        },
        "tidyTrace": [
            {
                "children": [
                    {
                        "children": [
                            {
                                "children": [],
                                "depth": 1,
                                "id": 1,
                                "order": 1
                            }
                        ],
                        "depth": 0,
                        "id": 0,
                        "order": 0
                    }
                ],
                "depth": -1,
                "id": -1,
                "order": -1
            }
        ],
        "tidyTraceNodeCount": 2
    },
    "state_change": {
        "stateChanges": [
            {
                "address": "0xdac17f958d2ee523a2206206994597c13d831ec7",
                "erc": "ERC-20",
                "slots": [
                    {
                        "current": "0x0000000000000000000000000000000000000000000000000000004770bf83d4",
                        "key": "0x0b0ebde75a7cd6b81bb398bd5fca4128e4abb0b098a4c383cf313c578db265da",
                        "prev": "0x0000000000000000000000000000000000000000000000000000004773e8fe64"
                    },
                    {
                        "current": "0x0000000000000000000000000000000000000000000000000000000003297a90",
                        "key": "0xf66c97387a9a4dbf9d980a2468eb7ba343ac6cbe089593d377c3bd75f6e79fdf",
                        "prev": "0x0000000000000000000000000000000000000000000000000000000000000000"
                    }
                ],
                "storageVariables": [
                    {
                        "name": "balances",
                        "type": "mapping(address => uint256)",
                        "value": {
                            "pairs": [
                                {
                                    "key": "0x29d5527caa78f1946a409fa6acaf14a0a4a0274b",
                                    "value": {
                                        "current": "306834277332",
                                        "prev": "306887327332",
                                        "typeTag": 1
                                    }
                                },
                                {
                                    "key": "0x7499ec6e5efa1580d0a429aff8578576313898aa",
                                    "value": {
                                        "current": "53050000",
                                        "prev": "0",
                                        "typeTag": 1
                                    }
                                }
                            ],
                            "typeTag": 4
                        }
                    }
                ]
            }
        ]
    }
}