{
    "balance_change": {
        "balanceChanges": [
            {
                "account": "0x1851ec1a96606c9f118f737766496d7a0feb42f5",
                "assets": [
                    {
                        "address": "0xa0b86991c6218b36c1d19d4a2e9eb0ce3606eb48",
                        "amount": "11.5",
                        "iconUrl": "https://assets.blocksec.com/icon/0347a86cc07dbd03fdc5db01a4e5ac7e1217f90e0b6e4bb0f75cbcca09160989.png",
                        "isERC1155": false,
                        "isERC721": false,
                        "sign": false,
                        "value": "11.5045931"
                    }
                ]
            },
            {
                "account": "0x4d9079bb4165aeb4084c526a32695dcfd2f77381",
                "assets": [
                    {
                        "address": "0xa0b86991c6218b36c1d19d4a2e9eb0ce3606eb48",
                        "amount": "11.5",
                        "iconUrl": "https://assets.blocksec.com/icon/0347a86cc07dbd03fdc5db01a4e5ac7e1217f90e0b6e4bb0f75cbcca09160989.png",
                        "isERC1155": false,
                        "isERC721": false,
                        "sign": true,
                        "value": "11.5045931"
                    }
                ]
            }
        ]
    },
    "profile": {
        "basic_info": {
            "baseFee": "13.574009853",
            "blockNumber": 15121337,
            "callData": "0x492289780000000000000000000000001851ec1a96606c9f118f737766496d7a0feb42f5000000000000000000000000a0b86991c6218b36c1d19d4a2e9eb0ce3606eb480000000000000000000000000000000000000000000000000000000000af79e0000000000000000000000000000000000000000000000000000000000000a4b100000000000000000000000000000000000000000000000000514c8fddcec5130000000000000000000000000000000000000000000000000000000062cc1623",
            "debugEnable": true,
            "errorInfo": "",
            "eventCount": 2,
            "feeRecipient": "0x00192fb10df37c9fb26829eb2cc623cd1bf599e8",
            "formatValue": "0",
            "gasLimit": 80090,
            "gasPrice": "14.574009853",
            "gasUsed": 75119,
            "intTxnCount": 2,
            "internalRevert": false,
            "internalRevertMessage": "",
            "isContractCreation": false,
            "isFlashloan": false,
            "maxFee": "24.312072488",
            "nonce": 10,
            "overwritedBlockNumber": -1,
            "priorityFee": "1",
            "receiver": "0x4d9079bb4165aeb4084c526a32695dcfd2f77381",
            "revertMessage": "",
            "sender": "0x1851ec1a96606c9f118f737766496d7a0feb42f5",
            "simulationEnable": true,
            "sourceTxnHash": "0xd8733ba417dc7693149a7c135258b8da87e0ababaae37f36ffcedc61bdea2870",
            "status": true,
            "timestamp": "2022-07-11T12:23:24Z",
            "transactionFee": "0.001094785046147507",
            "txnHash": "0xd8733ba417dc7693149a7c135258b8da87e0ababaae37f36ffcedc61bdea2870",
            "txnIndex": 34,
            "type": 2,
            "value": "0"
        },
        "fund_flow": [
            {
                "amount": "11.5",
                "from": "0x1851ec1a96606c9f118f737766496d7a0feb42f5",
                "id": 1,
                "isERC1155": false,
                "isERC721": false,
                "isReverted": false,
                "order": 1,
                "to": "0x4d9079bb4165aeb4084c526a32695dcfd2f77381",
                "token": "0xa0b86991c6218b36c1d19d4a2e9eb0ce3606eb48"
            }
        ],
        "token_infos": [
            {
                "address": "0xa0b86991c6218b36c1d19d4a2e9eb0ce3606eb48",
                "decimals": 6
            },
            {
                "address": "0xc02aaa39b223fe8d0a0e5c4f27ead9083c756cc2",
                "decimals": 18
            },
            {
                "address": "0xeeeeeeeeeeeeeeeeeeeeeeeeeeeeeeeeeeeeeeee",
                "decimals": 18
            }
        ]
    },
    "address_label": {
        "labels": [
            {
                "address": "0xa2327a938febf5fec13bacfb16ae10ecbc4cbdcf",
                "label": "FiatTokenV2_1"
            },
            {
                "address": "0x4d9079bb4165aeb4084c526a32695dcfd2f77381",
                "label": "Across Protocol: Ethereum Spoke Pool V2"
            },
            {
                "address": "0xa0b86991c6218b36c1d19d4a2e9eb0ce3606eb48",
                "label": "Circle: USDC Token"
            },
            {
                "address": "0x0000000000000000000000000000000000000001",
                "label": "Precompiled"
            },
            {
                "address": "0x0000000000000000000000000000000000000002",
                "label": "Precompiled"
            },
            {
                "address": "0x0000000000000000000000000000000000000003",
                "label": "Precompiled"
            },
            {
                "address": "0x0000000000000000000000000000000000000004",
                "label": "Precompiled"
            },
            {
                "address": "0xeeeeeeeeeeeeeeeeeeeeeeeeeeeeeeeeeeeeeeee",
                "label": "Ether"
            }
        ]
    },
    "trace": {
        "accountLabels": null,
        "dataMap": {
            "-1": {
                "invocation": {
                    "address": "0x1851ec1a96606c9f118f737766496d7a0feb42f5",
                    "callData": "",
                    "decodedMethod": null,
                    "errorInfo": "",
                    "fromAddress": "",
                    "gasUsed": 0,
                    "id": -1,
                    "methodDecoded": false,
                    "operation": "",
                    "output": "",
                    "revert": false,
                    "revertMessage": "",
                    "selector": "",
                    "status": false,
                    "value": ""
                },
                "nodeType": 0
            },
            "0": {
                "invocation": {
                    "address": "0x4d9079bb4165aeb4084c526a32695dcfd2f77381",
                    "callData": "0x0000000000000000000000001851ec1a96606c9f118f737766496d7a0feb42f5000000000000000000000000a0b86991c6218b36c1d19d4a2e9eb0ce3606eb480000000000000000000000000000000000000000000000000000000000af79e0000000000000000000000000000000000000000000000000000000000000a4b100000000000000000000000000000000000000000000000000514c8fddcec5130000000000000000000000000000000000000000000000000000000062cc1623",
                    "decodedMethod": {
                        "callParams": [
                            {
                                "name": "recipient",
                                "type": "address",
                                "value": "0x1851ec1a96606c9f118f737766496d7a0feb42f5"
                            },
                            {
                                "name": "originToken",
                                "type": "address",
                                "value": "0xa0b86991c6218b36c1d19d4a2e9eb0ce3606eb48"
                            },
                            {
                                "name": "amount",
                                "type": "uint256",
                                "value": "11,500,000"
                            },
                            {
                                "name": "destinationChainId",
                                "type": "uint256",
                                "value": "42,161"
                            },
                            {
                                "name": "relayerFeePct",
                                "type": "uint64",
                                "value": "22,883,653,898,913,043"
                            },
                            {
                                "name": "quoteTimestamp",
                                "type": "uint32",
                                "value": "1,657,542,179"
                            }
                        ],
                        "constructorArguments": "",
                        "name": "deposit",
                        "returnParams": [],
                        "signature": "deposit(address,address,uint256,uint256,uint64,uint32)"
                    },
                    "errorInfo": "",
                    "fromAddress": "0x1851ec1a96606c9f118f737766496d7a0feb42f5",
                    "gasUsed": 75119,
                    "id": 0,
                    "methodDecoded": true,
                    "operation": "CALL",
                    "output": "",
                    "revert": false,
                    "revertMessage": "",
                    "selector": "0x49228978",
                    "status": true,
                    "value": "0"
                },
                "nodeType": 0
            },
            "1": {
                "invocation": {
                    "address": "0xa0b86991c6218b36c1d19d4a2e9eb0ce3606eb48",
                    "callData": "0x0000000000000000000000001851ec1a96606c9f118f737766496d7a0feb42f50000000000000000000000004d9079bb4165aeb4084c526a32695dcfd2f773810000000000000000000000000000000000000000000000000000000000af79e0",
                    "decodedMethod": {
                        "callParams": [
                            {
                                "name": "from",
                                "type": "address",
                                "value": "0x1851ec1a96606c9f118f737766496d7a0feb42f5"
                            },
                            {
                                "name": "to",
                                "type": "address",
                                "value": "0x4d9079bb4165aeb4084c526a32695dcfd2f77381"
                            },
                            {
                                "decimalAvailable": true,
                                "name": "value",
                                "type": "uint256",
                                "value": "11,500,000"
                            }
                        ],
                        "constructorArguments": "",
                        "name": "transferFrom",
                        "returnParams": [
                            {
                                "name": "",
                                "type": "bool",
                                "value": true
                            }
                        ],
                        "signature": "transferFrom(address,address,uint256)"
                    },
                    "errorInfo": "",
                    "fromAddress": "0x4d9079bb4165aeb4084c526a32695dcfd2f77381",
                    "gasUsed": 32892,
                    "id": 1,
                    "methodDecoded": true,
                    "operation": "CALL",
                    "output": "0x0000000000000000000000000000000000000000000000000000000000000001",
                    "revert": false,
                    "revertMessage": "",
                    "selector": "0x23b872dd",
                    "status": true,
                    "value": "0"
                },
                "nodeType": 0
            },
            "2": {
                "invocation": {
                    "address": "0xa2327a938febf5fec13bacfb16ae10ecbc4cbdcf",
                    "callData": "0x0000000000000000000000001851ec1a96606c9f118f737766496d7a0feb42f50000000000000000000000004d9079bb4165aeb4084c526a32695dcfd2f773810000000000000000000000000000000000000000000000000000000000af79e0",
                    "decodedMethod": {
                        "callParams": [
                            {
                                "name": "from",
                                "type": "address",
                                "value": "0x1851ec1a96606c9f118f737766496d7a0feb42f5"
                            },
                            {
                                "name": "to",
                                "type": "address",
                                "value": "0x4d9079bb4165aeb4084c526a32695dcfd2f77381"
                            },
                            {
                                "decimalAvailable": true,
                                "name": "value",
                                "type": "uint256",
                                "value": "11,500,000"
                            }
                        ],
                        "constructorArguments": "",
                        "name": "transferFrom",
                        "returnParams": [
                            {
                                "name": "",
                                "type": "bool",
                                "value": true
                            }
                        ],
                        "signature": "transferFrom(address,address,uint256)"
                    },
                    "errorInfo": "",
                    "fromAddress": "0xa0b86991c6218b36c1d19d4a2e9eb0ce3606eb48",
                    "gasUsed": 25597,
                    "id": 2,
                    "methodDecoded": true,
                    "operation": "DELEGATECALL",
                    "output": "0x0000000000000000000000000000000000000000000000000000000000000001",
                    "revert": false,
                    "revertMessage": "",
                    "selector": "0x23b872dd",
                    "status": true,
                    "value": "0"
                },
                "nodeType": 0
            },
            "3": {
                "event": {
                    "contract": "0xa0b86991c6218b36c1d19d4a2e9eb0ce3606eb48",
                    "decodedLog": {
                        "name": "Transfer",
                        "params": [
                            {
                                "name": "from",
                                "type": "address",
                                "value": "0x1851ec1a96606c9f118f737766496d7a0feb42f5"
                            },
                            {
                                "name": "to",
                                "type": "address",
                                "value": "0x4d9079bb4165aeb4084c526a32695dcfd2f77381"
                            },
                            {
                                "decimalAvailable": true,
                                "name": "value",
                                "type": "uint256",
                                "value": "11,500,000"
                            }
                        ],
                        "signature": "Transfer(address,address,uint256)"
                    },
                    "id": 3,
                    "logData": "0x0000000000000000000000000000000000000000000000000000000000af79e0",
                    "logDecoded": true,
                    "operation": "EVENT",
                    "revert": false,
                    "status": true,
                    "topics": [
                        "0xddf252ad1be2c89b69c2b068fc378daa952ba7f163c4a11628f55a4df523b3ef",
                        "0x0000000000000000000000001851ec1a96606c9f118f737766496d7a0feb42f5",
                        "0x0000000000000000000000004d9079bb4165aeb4084c526a32695dcfd2f77381"
                    ]
                },
                "nodeType": 1
            },
            "4": {
                "event": {
                    "contract": "0x4d9079bb4165aeb4084c526a32695dcfd2f77381",
                    "decodedLog": {
                        "name": "FundsDeposited",
                        "params": [
                            {
                                "name": "depositId",
                                "type": "uint32",
                                "value": "15,954"
                            },
                            {
                                "name": "originToken",
                                "type": "address",
                                "value": "0xa0b86991c6218b36c1d19d4a2e9eb0ce3606eb48"
                            },
                            {
                                "name": "depositor",
                                "type": "address",
                                "value": "0x1851ec1a96606c9f118f737766496d7a0feb42f5"
                            },
                            {
                                "name": "amount",
                                "type": "uint256",
                                "value": "11,500,000"
                            },
                            {
                                "name": "originChainId",
                                "type": "uint256",
                                "value": "1"
                            },
                            {
                                "name": "destinationChainId",
                                "type": "uint256",
                                "value": "42,161"
                            },
                            {
                                "name": "relayerFeePct",
                                "type": "uint64",
                                "value": "22,883,653,898,913,043"
                            },
                            {
                                "name": "quoteTimestamp",
                                "type": "uint32",
                                "value": "1,657,542,179"
                            },
                            {
                                "name": "recipient",
                                "type": "address",
                                "value": "0x1851ec1a96606c9f118f737766496d7a0feb42f5"
                            }
                        ],
                        "signature": "FundsDeposited(uint256,uint256,uint256,uint64,uint32,uint32,address,address,address)"
                    },
                    "id": 4,
                    "logData": "0x0000000000000000000000000000000000000000000000000000000000af79e00000000000000000000000000000000000000000000000000000000000000001000000000000000000000000000000000000000000000000000000000000a4b100000000000000000000000000000000000000000000000000514c8fddcec5130000000000000000000000000000000000000000000000000000000062cc16230000000000000000000000001851ec1a96606c9f118f737766496d7a0feb42f5",
                    "logDecoded": true,
                    "operation": "EVENT",
                    "revert": false,
                    "status": true,
                    "topics": [
                        "0x4a4fc49abd237bfd7f4ac82d6c7a284c69daaea5154430cff04ad7482c6c4254",
                        "0x0000000000000000000000000000000000000000000000000000000000003e52",
                        "0x000000000000000000000000a0b86991c6218b36c1d19d4a2e9eb0ce3606eb48",
                        "0x0000000000000000000000001851ec1a96606c9f118f737766496d7a0feb42f5"
                    ]
                },
                "nodeType": 1
            }
        },
        "gasFlame": [
            {
                "children": [
                    {
                        "children": [
                            {
                                "children": [],
                                "depth": 0,
                                "name": "Initial Gas",
                                "value": 22504
                            },
                            {
                                "children": [
                                    {
                                        "children": [
                                            {
                                                "children": [],
                                                "depth": 2,
                                                "name": "transferFrom",
                                                "value": 25597
                                            }
                                        ],
                                        "depth": 1,
                                        "name": "transferFrom",
                                        "value": 32892
                                    }
                                ],
                                "depth": 0,
                                "name": "Executed Gas",
                                "value": 55415
                            }
                        ],
                        "depth": -1,
                        "name": "Actual Gas Used",
                        "value": 75119
                    },
                    {
                        "children": [],
                        "depth": -1,
                        "name": "Refunded Gas",
                        "value": 2800
                    }
                ],
                "depth": -2,
                "name": "Total Gas",
                "value": 77919
            }
        ],
        "isConfirmed": true,
        "mainTrace": [
            {
                "children": [
                    {
                        "children": [
                            {
                                "children": [
                                    {
                                        "children": [
                                            {
                                                "children": [],
                                                "depth": 3,
                                                "id": 3,
                                                "order": 3
                                            }
                                        ],
                                        "depth": 2,
                                        "id": 2,
                                        "order": 2
                                    }
                                ],
                                "depth": 1,
                                "id": 1,
                                "order": 1
                            },
                            {
                                "children": [],
                                "depth": 1,
                                "id": 4,
                                "order": 4
                            }
                        ],
                        "depth": 0,
                        "id": 0,
                        "order": 0
                    }
                ],
                "depth": -1,
                "id": -1,
                "order": -1
            }
        ],
        "mainTraceNodeCount": 5,
        "parentIdMap": {
            "0": -1,
            "1": 0,
            "2": 1,
            "3": 2,
            "4": 0
        },
        "tidyTrace": [
            {
                "children": [
                    {
                        "children": [
                            {
                                "children": [
                                    {
                                        "children": [
                                            {
                                                "children": [],
                                                "depth": 3,
                                                "id": 3,
                                                "order": 3
                                            }
                                        ],
                                        "depth": 2,
                                        "id": 2,
                                        "order": 2
                                    }
                                ],
                                "depth": 1,
                                "id": 1,
                                "order": 1
                            },
                            {
                                "children": [],
                                "depth": 1,
                                "id": 4,
                                "order": 4
                            }
                        ],
                        "depth": 0,
                        "id": 0,
                        "order": 0
                    }
                ],
                "depth": -1,
                "id": -1,
                "order": -1
            }
        ],
        "tidyTraceNodeCount": 5
    },
    "state_change": {
        "stateChanges": [
            {
                "address": "0x4d9079bb4165aeb4084c526a32695dcfd2f77381",
                "erc": "",
                "slots": [
                    {
                        "current": "0x0000000000003e53000002580541f7536dc9f86708ae6e98ab35cc351b0d1289",
                        "key": "0x0000000000000000000000000000000000000000000000000000000000000002",
                        "prev": "0x0000000000003e52000002580541f7536dc9f86708ae6e98ab35cc351b0d1289"
                    }
                ],
                "storageVariables": [
                    {
                        "name": "hubPool",
                        "type": "address",
                        "value": {
                            "current": "0x0541f7536dc9f86708ae6e98ab35cc351b0d1289",
                            "prev": "0x0541f7536dc9f86708ae6e98ab35cc351b0d1289",
                            "typeTag": 1
                        }
                    },
                    {
                        "name": "depositQuoteTimeBuffer",
                        "type": "uint32",
                        "value": {
                            "current": "600",
                            "prev": "600",
                            "typeTag": 1
                        }
                    },
                    {
                        "name": "numberOfDeposits",
                        "type": "uint32",
                        "value": {
                            "current": "15955",
                            "prev": "15954",
                            "typeTag": 1
                        }
                    }
                ]
            },
            {
                "address": "0xa0b86991c6218b36c1d19d4a2e9eb0ce3606eb48",
                "erc": "ERC-20",
                "slots": [
                    {
                        "current": "0x00000000000000000000000000000000000000000000000000000000b957ab6c",
                        "key": "0x1ccc40ec2db971d2148437a40da11c17a9c8c167edc943e44c931bb0479361d4",
                        "prev": "0x00000000000000000000000000000000000000000000000000000000b8a8318c"
                    },
                    {
                        "current": "0xfffffffffffffffffffffffffffffffffffffffffffffffffffffffff8ff179f",
                        "key": "0x01ef5533d190ea4e1c4f0a94995c29daba9fb7ad34a6ece6e1f10b74fe5c930b",
                        "prev": "0xfffffffffffffffffffffffffffffffffffffffffffffffffffffffff9ae917f"
                    },
                    {
                        "current": "0x00000000000000000000000000000000000000000000000000000000017bce6f",
                        "key": "0x4b3b13323cfcc4067d6b382491e4ef0e09927c85f1eef0fb58447ef685d1d771",
                        "prev": "0x00000000000000000000000000000000000000000000000000000000022b484f"
                    }
                ],
                "storageVariables": [
                    {
                        "name": "allowed",
                        "type": "mapping(address => mapping(address => uint256))",
                        "value": {
                            "pairs": [
                                {
                                    "key": "0x1851ec1a96606c9f118f737766496d7a0feb42f5",
                                    "value": {
                                        "pairs": [
                                            {
                                                "key": "0x4d9079bb4165aeb4084c526a32695dcfd2f77381",
                                                "value": {
                                                    "current": "115792089237316195423570985008687907853269984665640564039457584007913012139935",
                                                    "prev": "115792089237316195423570985008687907853269984665640564039457584007913023639935",
                                                    "typeTag": 1
                                                }
                                            }
                                        ],
                                        "typeTag": 4
                                    }
                                }
                            ],
                            "typeTag": 4
                        }
                    },
                    {
                        "name": "balances",
                        "type": "mapping(address => uint256)",
                        "value": {
                            "pairs": [
                                {
                                    "key": "0x1851ec1a96606c9f118f737766496d7a0feb42f5",
                                    "value": {
                                        "current": "24890991",
                                        "prev": "36390991",
                                        "typeTag": 1
                                    }
                                },
                                {
                                    "key": "0x4d9079bb4165aeb4084c526a32695dcfd2f77381",
                                    "value": {
                                        "current": "3109530476",
                                        "prev": "3098030476",
                                        "typeTag": 1
                                    }
                                }
                            ],
                            "typeTag": 4
                        }
                    }
                ]
            }
        ]
    }
}