{
    "balance_change": {
        "balanceChanges": [
            {
                "account": "0x18429e9a0282d8a1483154a30c612293877b6273",
                "assets": [
                    {
                        "address": "0xbf2179859fc6d5bee9bf9158632dc51678a4100e",
                        "amount": "0.5",
                        "iconUrl": "https://assets.blocksec.com/icon/e06cfc226becfcbb2c2d25dc6e028dc10b89f10fe9f1a23070d5cb6aa75abf54.png",
                        "isERC1155": false,
                        "isERC721": false,
                        "sign": false,
                        "value": ""
                    }
                ]
            },
            {
                "account": "0x59ce707e292de21eda1d7171370d47ce0889499b",
                "assets": [
                    {
                        "address": "0xbf2179859fc6d5bee9bf9158632dc51678a4100e",
                        "amount": "0.5",
                        "iconUrl": "https://assets.blocksec.com/icon/e06cfc226becfcbb2c2d25dc6e028dc10b89f10fe9f1a23070d5cb6aa75abf54.png",
                        "isERC1155": false,
                        "isERC721": false,
                        "sign": true,
                        "value": ""
                    }
                ]
            }
        ]
    },
    "profile": {
        "basic_info": {
            "baseFee": "",
            "blockNumber": 6097810,
            "callData": "0xa9059cbb00000000000000000000000059ce707e292de21eda1d7171370d47ce0889499b00000000000000000000000000000000000000000000000006f05b59d3b20000",
            "debugEnable": true,
            "errorInfo": "",
            "eventCount": 1,
            "feeRecipient": "0x5a0b54d5dc17e0aadc383d2db43b0a0d3e029c4c",
            "formatValue": "0",
            "gasLimit": 150000,
            "gasPrice": "5",
            "gasUsed": 37512,
            "intTxnCount": 0,
            "internalRevert": false,
            "internalRevertMessage": "",
            "isContractCreation": false,
            "isFlashloan": false,
            "maxFee": "",
            "nonce": 51,
            "overwritedBlockNumber": -1,
            "priorityFee": "",
            "receiver": "0xbf2179859fc6d5bee9bf9158632dc51678a4100e",
            "revertMessage": "",
            "sender": "0x18429e9a0282d8a1483154a30c612293877b6273",
            "simulationEnable": true,
            "sourceTxnHash": "0xd8e7a7648499998ac0481237ff4c9e5afa43b583e224bb1751702e0f7793870b",
            "status": true,
            "timestamp": "2018-08-06T09:08:32Z",
            "transactionFee": "0.00018756",
            "txnHash": "0xd8e7a7648499998ac0481237ff4c9e5afa43b583e224bb1751702e0f7793870b",
            "txnIndex": 109,
            "type": 0,
            "value": "0"
        },
        "fund_flow": [
            {
                "amount": "0.5",
                "from": "0x18429e9a0282d8a1483154a30c612293877b6273",
                "id": 1,
                "isERC1155": false,
                "isERC721": false,
                "isReverted": false,
                "order": 1,
                "to": "0x59ce707e292de21eda1d7171370d47ce0889499b",
                "token": "0xbf2179859fc6d5bee9bf9158632dc51678a4100e"
            }
        ],
        "token_infos": [
            {
                "address": "0xbf2179859fc6d5bee9bf9158632dc51678a4100e",
                "decimals": 18
            },
            {
                "address": "0xc02aaa39b223fe8d0a0e5c4f27ead9083c756cc2",
                "decimals": 18
            },
            {
                "address": "0xeeeeeeeeeeeeeeeeeeeeeeeeeeeeeeeeeeeeeeee",
                "decimals": 18
            }
        ]
    },
    "address_label": {
        "labels": [
            {
                "address": "0xeeeeeeeeeeeeeeeeeeeeeeeeeeeeeeeeeeeeeeee",
                "label": "Ether"
            },
            {
                "address": "0xbf2179859fc6d5bee9bf9158632dc51678a4100e",
                "label": "Aelf: ELF Token"
            },
            {
                "address": "0x0000000000000000000000000000000000000001",
                "label": "Precompiled"
            },
            {
                "address": "0x0000000000000000000000000000000000000002",
                "label": "Precompiled"
            },
            {
                "address": "0x0000000000000000000000000000000000000003",
                "label": "Precompiled"
            },
            {
                "address": "0x0000000000000000000000000000000000000004",
                "label": "Precompiled"
            }
        ]
    },
    "trace": {
        "accountLabels": null,
        "dataMap": {
            "-1": {
                "invocation": {
                    "address": "0x18429e9a0282d8a1483154a30c612293877b6273",
                    "callData": "",
                    "decodedMethod": null,
                    "errorInfo": "",
                    "fromAddress": "",
                    "gasUsed": 0,
                    "id": -1,
                    "methodDecoded": false,
                    "operation": "",
                    "output": "",
                    "revert": false,
                    "revertMessage": "",
                    "selector": "",
                    "status": false,
                    "value": ""
                },
                "nodeType": 0
            },
            "0": {
                "invocation": {
                    "address": "0xbf2179859fc6d5bee9bf9158632dc51678a4100e",
                    "callData": "0x00000000000000000000000059ce707e292de21eda1d7171370d47ce0889499b00000000000000000000000000000000000000000000000006f05b59d3b20000",
                    "decodedMethod": {
                        "callParams": [
                            {
                                "name": "_to",
                                "type": "address",
                                "value": "0x59ce707e292de21eda1d7171370d47ce0889499b"
                            },
                            {
                                "decimalAvailable": true,
                                "name": "_value",
                                "type": "uint256",
                                "value": "500,000,000,000,000,000"
                            }
                        ],
                        "constructorArguments": "",
                        "name": "transfer",
                        "returnParams": [
                            {
                                "name": "",
                                "type": "bool",
                                "value": true
                            }
                        ],
                        "signature": "transfer(address,uint256)"
                    },
                    "errorInfo": "",
                    "fromAddress": "0x18429e9a0282d8a1483154a30c612293877b6273",
                    "gasUsed": 37512,
                    "id": 0,
                    "methodDecoded": true,
                    "operation": "CALL",
                    "output": "0x0000000000000000000000000000000000000000000000000000000000000001",
                    "revert": false,
                    "revertMessage": "",
                    "selector": "0xa9059cbb",
                    "status": true,
                    "value": "0"
                },
                "nodeType": 0
            },
            "1": {
                "event": {
                    "contract": "0xbf2179859fc6d5bee9bf9158632dc51678a4100e",
                    "decodedLog": {
                        "name": "Transfer",
                        "params": [
                            {
                                "name": "from",
                                "type": "address",
                                "value": "0x18429e9a0282d8a1483154a30c612293877b6273"
                            },
                            {
                                "name": "to",
                                "type": "address",
                                "value": "0x59ce707e292de21eda1d7171370d47ce0889499b"
                            },
                            {
                                "decimalAvailable": true,
                                "name": "value",
                                "type": "uint256",
                                "value": "500,000,000,000,000,000"
                            }
                        ],
                        "signature": "Transfer(address,address,uint256)"
                    },
                    "id": 1,
                    "logData": "0x00000000000000000000000000000000000000000000000006f05b59d3b20000",
                    "logDecoded": true,
                    "operation": "EVENT",
                    "revert": false,
                    "status": true,
                    "topics": [
                        "0xddf252ad1be2c89b69c2b068fc378daa952ba7f163c4a11628f55a4df523b3ef",
                        "0x00000000000000000000000018429e9a0282d8a1483154a30c612293877b6273",
                        "0x00000000000000000000000059ce707e292de21eda1d7171370d47ce0889499b"
                    ]
                },
                "nodeType": 1
            }
        },
        "gasFlame": [
            {
                "children": [
                    {
                        "children": [
                            {
                                "children": [],
                                "depth": 0,
                                "name": "Initial Gas",
                                "value": 23192
                            },
                            {
                                "children": [],
                                "depth": 0,
                                "name": "Executed Gas",
                                "value": 14320
                            }
                        ],
                        "depth": -1,
                        "name": "Actual Gas Used",
                        "value": 37512
                    },
                    {
                        "children": [],
                        "depth": -1,
                        "name": "Refunded Gas",
                        "value": 0
                    }
                ],
                "depth": -2,
                "name": "Total Gas",
                "value": 37512
            }
        ],
        "isConfirmed": true,
        "mainTrace": [
            {
                "children": [
                    {
                        "children": [
                            {
                                "children": [],
                                "depth": 1,
                                "id": 1,
                                "order": 1
                            }
                        ],
                        "depth": 0,
                        "id": 0,
                        "order": 0
                    }
                ],
                "depth": -1,
                "id": -1,
                "order": -1
            }
        ],
        "mainTraceNodeCount": 2,
        "parentIdMap": {
            "0": -1,
            "1": 0
        },
        "tidyTrace": [
            {
                "children": [
                    {
                        "children": [
                            {
                                "children": [],
                                "depth": 1,
                                "id": 1,
                                "order": 1
                            }
                        ],
                        "depth": 0,
                        "id": 0,
                        "order": 0
                    }
                ],
                "depth": -1,
                "id": -1,
                "order": -1
            }
        ],
        "tidyTraceNodeCount": 2
    },
    "state_change": {
        "stateChanges": [
            {
                "address": "0xbf2179859fc6d5bee9bf9158632dc51678a4100e",
                "erc": "ERC-20",
                "slots": [
                    {
                        "current": "0x00000000000000000000000000000000000000000000000014d1120d7b160000",
                        "key": "0x185ed4fbfb293a8eedf9c4630526c187f46b5a84d0b3e24e5360418ad64e37c2",
                        "prev": "0x0000000000000000000000000000000000000000000000001bc16d674ec80000"
                    },
                    {
                        "current": "0x0000000000000000000000000000000000000000000000004c53ecdc18a60000",
                        "key": "0xdb8769ee2f5a0e22409eb37e1af52357ebddcbc8417a2089f1b6a2971b1c900b",
                        "prev": "0x0000000000000000000000000000000000000000000000004563918244f40000"
                    }
                ],
                "storageVariables": [
                    {
                        "name": "balances",
                        "type": "mapping(address => uint256)",
                        "value": {
                            "pairs": [
                                {
                                    "key": "0x18429e9a0282d8a1483154a30c612293877b6273",
                                    "value": {
                                        "current": "1500000000000000000",
                                        "prev": "2000000000000000000",
                                        "typeTag": 1
                                    }
                                },
                                {
                                    "key": "0x59ce707e292de21eda1d7171370d47ce0889499b",
                                    "value": {
                                        "current": "5500000000000000000",
                                        "prev": "5000000000000000000",
                                        "typeTag": 1
                                    }
                                }
                            ],
                            "typeTag": 4
                        }
                    }
                ]
            }
        ]
    }
}