{
    "balance_change": {
        "balanceChanges": [
            {
                "account": "0x0c684e270b8344ed61b94c34f8a6748ecff4acee",
                "assets": [
                    {
                        "address": "0xbba84f48a96bae2a2e551825280eb18759ece1ae",
                        "amount": "99.5",
                        "iconUrl": "",
                        "isERC1155": false,
                        "isERC721": false,
                        "sign": false,
                        "value": ""
                    }
                ]
            },
            {
                "account": "0x2da4d6d0b262b17bd13824b7feb6d34c0c50e2b3",
                "assets": [
                    {
                        "address": "0xbba84f48a96bae2a2e551825280eb18759ece1ae",
                        "amount": "99.5",
                        "iconUrl": "",
                        "isERC1155": false,
                        "isERC721": false,
                        "sign": true,
                        "value": ""
                    }
                ]
            }
        ]
    },
    "profile": {
        "basic_info": {
            "baseFee": "",
            "blockNumber": 9088070,
            "callData": "0xa9059cbb0000000000000000000000002da4d6d0b262b17bd13824b7feb6d34c0c50e2b300000000000000000000000000000000000000000000000564d702d38f5e0000",
            "debugEnable": true,
            "errorInfo": "",
            "eventCount": 1,
            "feeRecipient": "0x52bc44d5378309ee2abf1539bf71de1b7d7be3b5",
            "formatValue": "0",
            "gasLimit": 37517,
            "gasPrice": "21",
            "gasUsed": 22517,
            "intTxnCount": 0,
            "internalRevert": false,
            "internalRevertMessage": "",
            "isContractCreation": false,
            "isFlashloan": false,
            "maxFee": "",
            "nonce": 0,
            "overwritedBlockNumber": -1,
            "priorityFee": "",
            "receiver": "0xbba84f48a96bae2a2e551825280eb18759ece1ae",
            "revertMessage": "",
            "sender": "0x0c684e270b8344ed61b94c34f8a6748ecff4acee",
            "simulationEnable": true,
            "sourceTxnHash": "0xd8f54736df33a6b8ad29bf1aa25bad3a2a47f506fca2223658c5639176f41fd7",
            "status": true,
            "timestamp": "2019-12-11T09:41:30Z",
            "transactionFee": "0.000472857",
            "txnHash": "0xd8f54736df33a6b8ad29bf1aa25bad3a2a47f506fca2223658c5639176f41fd7",
            "txnIndex": 17,
            "type": 0,
            "value": "0"
        },
        "fund_flow": [
            {
                "amount": "99.5",
                "from": "0x0c684e270b8344ed61b94c34f8a6748ecff4acee",
                "id": 1,
                "isERC1155": false,
                "isERC721": false,
                "isReverted": false,
                "order": 1,
                "to": "0x2da4d6d0b262b17bd13824b7feb6d34c0c50e2b3",
                "token": "0xbba84f48a96bae2a2e551825280eb18759ece1ae"
            }
        ],
        "token_infos": [
            {
                "address": "0xbba84f48a96bae2a2e551825280eb18759ece1ae",
                "decimals": 18
            },
            {
                "address": "0xc02aaa39b223fe8d0a0e5c4f27ead9083c756cc2",
                "decimals": 18
            },
            {
                "address": "0xeeeeeeeeeeeeeeeeeeeeeeeeeeeeeeeeeeeeeeee",
                "decimals": 18
            }
        ]
    },
    "address_label": {
        "labels": [
            {
                "address": "0xeeeeeeeeeeeeeeeeeeeeeeeeeeeeeeeeeeeeeeee",
                "label": "Ether"
            },
            {
                "address": "0xbba84f48a96bae2a2e551825280eb18759ece1ae",
                "label": "SWC Token (SWC)"
            },
            {
                "address": "0x0000000000000000000000000000000000000001",
                "label": "Precompiled"
            },
            {
                "address": "0x0000000000000000000000000000000000000002",
                "label": "Precompiled"
            },
            {
                "address": "0x0000000000000000000000000000000000000003",
                "label": "Precompiled"
            },
            {
                "address": "0x0000000000000000000000000000000000000004",
                "label": "Precompiled"
            }
        ]
    },
    "trace": {
        "accountLabels": null,
        "dataMap": {
            "-1": {
                "invocation": {
                    "address": "0x0c684e270b8344ed61b94c34f8a6748ecff4acee",
                    "callData": "",
                    "decodedMethod": null,
                    "errorInfo": "",
                    "fromAddress": "",
                    "gasUsed": 0,
                    "id": -1,
                    "methodDecoded": false,
                    "operation": "",
                    "output": "",
                    "revert": false,
                    "revertMessage": "",
                    "selector": "",
                    "status": false,
                    "value": ""
                },
                "nodeType": 0
            },
            "0": {
                "invocation": {
                    "address": "0xbba84f48a96bae2a2e551825280eb18759ece1ae",
                    "callData": "0x0000000000000000000000002da4d6d0b262b17bd13824b7feb6d34c0c50e2b300000000000000000000000000000000000000000000000564d702d38f5e0000",
                    "decodedMethod": {
                        "callParams": [
                            {
                                "name": "_to",
                                "type": "address",
                                "value": "0x2da4d6d0b262b17bd13824b7feb6d34c0c50e2b3"
                            },
                            {
                                "decimalAvailable": true,
                                "name": "_value",
                                "type": "uint256",
                                "value": "99,500,000,000,000,000,000"
                            }
                        ],
                        "constructorArguments": "",
                        "name": "transfer",
                        "returnParams": [
                            {
                                "name": "",
                                "type": "bool",
                                "value": true
                            }
                        ],
                        "signature": "transfer(address,uint256)"
                    },
                    "errorInfo": "",
                    "fromAddress": "0x0c684e270b8344ed61b94c34f8a6748ecff4acee",
                    "gasUsed": 22517,
                    "id": 0,
                    "methodDecoded": true,
                    "operation": "CALL",
                    "output": "0x0000000000000000000000000000000000000000000000000000000000000001",
                    "revert": false,
                    "revertMessage": "",
                    "selector": "0xa9059cbb",
                    "status": true,
                    "value": "0"
                },
                "nodeType": 0
            },
            "1": {
                "event": {
                    "contract": "0xbba84f48a96bae2a2e551825280eb18759ece1ae",
                    "decodedLog": {
                        "name": "Transfer",
                        "params": [
                            {
                                "name": "from",
                                "type": "address",
                                "value": "0x0c684e270b8344ed61b94c34f8a6748ecff4acee"
                            },
                            {
                                "name": "to",
                                "type": "address",
                                "value": "0x2da4d6d0b262b17bd13824b7feb6d34c0c50e2b3"
                            },
                            {
                                "decimalAvailable": true,
                                "name": "value",
                                "type": "uint256",
                                "value": "99,500,000,000,000,000,000"
                            }
                        ],
                        "signature": "Transfer(address,address,uint256)"
                    },
                    "id": 1,
                    "logData": "0x00000000000000000000000000000000000000000000000564d702d38f5e0000",
                    "logDecoded": true,
                    "operation": "EVENT",
                    "revert": false,
                    "status": true,
                    "topics": [
                        "0xddf252ad1be2c89b69c2b068fc378daa952ba7f163c4a11628f55a4df523b3ef",
                        "0x0000000000000000000000000c684e270b8344ed61b94c34f8a6748ecff4acee",
                        "0x0000000000000000000000002da4d6d0b262b17bd13824b7feb6d34c0c50e2b3"
                    ]
                },
                "nodeType": 1
            }
        },
        "gasFlame": [
            {
                "children": [
                    {
                        "children": [
                            {
                                "children": [],
                                "depth": 0,
                                "name": "Initial Gas",
                                "value": 21644
                            },
                            {
                                "children": [],
                                "depth": 0,
                                "name": "Executed Gas",
                                "value": 15873
                            }
                        ],
                        "depth": -1,
                        "name": "Actual Gas Used",
                        "value": 22517
                    },
                    {
                        "children": [],
                        "depth": -1,
                        "name": "Refunded Gas",
                        "value": 15000
                    }
                ],
                "depth": -2,
                "name": "Total Gas",
                "value": 37517
            }
        ],
        "isConfirmed": true,
        "mainTrace": [
            {
                "children": [
                    {
                        "children": [
                            {
                                "children": [],
                                "depth": 1,
                                "id": 1,
                                "order": 1
                            }
                        ],
                        "depth": 0,
                        "id": 0,
                        "order": 0
                    }
                ],
                "depth": -1,
                "id": -1,
                "order": -1
            }
        ],
        "mainTraceNodeCount": 2,
        "parentIdMap": {
            "0": -1,
            "1": 0
        },
        "tidyTrace": [
            {
                "children": [
                    {
                        "children": [
                            {
                                "children": [],
                                "depth": 1,
                                "id": 1,
                                "order": 1
                            }
                        ],
                        "depth": 0,
                        "id": 0,
                        "order": 0
                    }
                ],
                "depth": -1,
                "id": -1,
                "order": -1
            }
        ],
        "tidyTraceNodeCount": 2
    },
    "state_change": {
        "stateChanges": [
            {
                "address": "0xbba84f48a96bae2a2e551825280eb18759ece1ae",
                "erc": "ERC-20",
                "slots": [
                    {
                        "current": "0x00000000000000000000000000000000000000000000220fc117e35b9e291c00",
                        "key": "0xb8a602474da157e70f6570d2ff97bebf6b8034a901af6811bcb815ddef824757",
                        "prev": "0x00000000000000000000000000000000000000000000220a5c40e0880ecb1c00"
                    },
                    {
                        "current": "0x0000000000000000000000000000000000000000000000000000000000000000",
                        "key": "0x40be2ac34e4925ff1b38127655bee9f5ff8cc93f88fa73903cd4d60ee7779957",
                        "prev": "0x00000000000000000000000000000000000000000000000564d702d38f5e0000"
                    }
                ],
                "storageVariables": [
                    {
                        "name": "balances",
                        "type": "mapping(address => uint256)",
                        "value": {
                            "pairs": [
                                {
                                    "key": "0x0c684e270b8344ed61b94c34f8a6748ecff4acee",
                                    "value": {
                                        "current": "0",
                                        "prev": "99500000000000000000",
                                        "typeTag": 1
                                    }
                                },
                                {
                                    "key": "0x2da4d6d0b262b17bd13824b7feb6d34c0c50e2b3",
                                    "value": {
                                        "current": "160851075418230000000000",
                                        "prev": "160751575418230000000000",
                                        "typeTag": 1
                                    }
                                }
                            ],
                            "typeTag": 4
                        }
                    }
                ]
            }
        ]
    }
}