{
    "balance_change": {
        "balanceChanges": [
            {
                "account": "0x822d3309377868f743c428e5ae0a63544bfcb187",
                "assets": [
                    {
                        "address": "0xeeeeeeeeeeeeeeeeeeeeeeeeeeeeeeeeeeeeeeee",
                        "amount": "0.011",
                        "iconUrl": "https://assets.blocksec.com/image/1663669189317-3.png",
                        "isERC1155": false,
                        "isERC721": false,
                        "sign": false,
                        "value": "21.5512000000000005"
                    },
                    {
                        "address": "0xa3ad8c7ab6b731045b5b16e3fdf77975c71abe79",
                        "amount": "2,383.750843481224121506",
                        "iconUrl": "",
                        "isERC1155": false,
                        "isERC721": false,
                        "sign": true,
                        "value": "20.4105801"
                    }
                ]
            },
            {
                "account": "0x605684b039b373568aeb4871356eefe0eb812ead",
                "assets": [
                    {
                        "address": "0xc02aaa39b223fe8d0a0e5c4f27ead9083c756cc2",
                        "amount": "0.011",
                        "iconUrl": "https://assets.blocksec.com/icon/f1cb2d02c471d545bbc7722daf3277fd852d98e63d118771af7047bd8256c516.png",
                        "isERC1155": false,
                        "isERC721": false,
                        "sign": true,
                        "value": "21.5512000000000005"
                    },
                    {
                        "address": "0xa3ad8c7ab6b731045b5b16e3fdf77975c71abe79",
                        "amount": "2,509.211414190762233164",
                        "iconUrl": "",
                        "isERC1155": false,
                        "isERC721": false,
                        "sign": false,
                        "value": "21.48124143"
                    }
                ]
            },
            {
                "account": "0xa3ad8c7ab6b731045b5b16e3fdf77975c71abe79",
                "assets": [
                    {
                        "address": "0xa3ad8c7ab6b731045b5b16e3fdf77975c71abe79",
                        "amount": "125.460570709538111658",
                        "iconUrl": "",
                        "isERC1155": false,
                        "isERC721": false,
                        "sign": true,
                        "value": "1.07396557"
                    }
                ]
            },
            {
                "account": "0xc02aaa39b223fe8d0a0e5c4f27ead9083c756cc2",
                "assets": [
                    {
                        "address": "0xeeeeeeeeeeeeeeeeeeeeeeeeeeeeeeeeeeeeeeee",
                        "amount": "0.011",
                        "iconUrl": "https://assets.blocksec.com/image/1663669189317-3.png",
                        "isERC1155": false,
                        "isERC721": false,
                        "sign": true,
                        "value": "21.5512000000000005"
                    },
                    {
                        "address": "0xc02aaa39b223fe8d0a0e5c4f27ead9083c756cc2",
                        "amount": "0.011",
                        "iconUrl": "https://assets.blocksec.com/icon/f1cb2d02c471d545bbc7722daf3277fd852d98e63d118771af7047bd8256c516.png",
                        "isERC1155": false,
                        "isERC721": false,
                        "sign": false,
                        "value": "21.5512000000000005"
                    }
                ]
            }
        ]
    },
    "profile": {
        "basic_info": {
            "baseFee": "16.78818922",
            "blockNumber": 18601484,
            "callData": "0x0b86a4c1000000000000000000000000eeeeeeeeeeeeeeeeeeeeeeeeeeeeeeeeeeeeeeee0000000000000000000000000000000000000000000000000027147114878000000000000000000000000000000000000000000000000086aa149df75ffa7391000000000000000000000000c02aaa39b223fe8d0a0e5c4f27ead9083c756cc200000000000000000000000000000000000000000000000000000000000000a00000000000000000000000000000000000000000000000000000000000000001000000000000000000004de5605684b039b373568aeb4871356eefe0eb812ead",
            "debugEnable": true,
            "errorInfo": "",
            "eventCount": 6,
            "feeRecipient": "0x95222290dd7278aa3ddd389cc1e1d165cc4bafe5",
            "formatValue": "0.011",
            "gasLimit": 255665,
            "gasPrice": "16.88818922",
            "gasUsed": 178498,
            "intTxnCount": 8,
            "internalRevert": false,
            "internalRevertMessage": "",
            "isContractCreation": false,
            "isFlashloan": false,
            "maxFee": "21.533588792",
            "nonce": 45,
            "overwritedBlockNumber": -1,
            "priorityFee": "0.1",
            "receiver": "0xdef171fe48cf0115b1d80b88dc8eab59176fee57",
            "revertMessage": "",
            "sender": "0x822d3309377868f743c428e5ae0a63544bfcb187",
            "simulationEnable": true,
            "sourceTxnHash": "0xd880320282f119f6043c4625dcd252dc87b2899f8f4e115d388e226bd9a32394",
            "status": true,
            "timestamp": "2023-11-18T21:46:23Z",
            "transactionFee": "0.00301450799939156",
            "txnHash": "0xd880320282f119f6043c4625dcd252dc87b2899f8f4e115d388e226bd9a32394",
            "txnIndex": 99,
            "type": 2,
            "value": "11000000000000000"
        },
        "fund_flow": [
            {
                "amount": "0.011",
                "from": "0x822d3309377868f743c428e5ae0a63544bfcb187",
                "id": 1,
                "isERC1155": false,
                "isERC721": false,
                "isReverted": false,
                "order": 1,
                "to": "0xdef171fe48cf0115b1d80b88dc8eab59176fee57",
                "token": "0xeeeeeeeeeeeeeeeeeeeeeeeeeeeeeeeeeeeeeeee"
            },
            {
                "amount": "0.011",
                "from": "0xdef171fe48cf0115b1d80b88dc8eab59176fee57",
                "id": 2,
                "isERC1155": false,
                "isERC721": false,
                "isReverted": false,
                "order": 2,
                "to": "0xc02aaa39b223fe8d0a0e5c4f27ead9083c756cc2",
                "token": "0xeeeeeeeeeeeeeeeeeeeeeeeeeeeeeeeeeeeeeeee"
            },
            {
                "amount": "0.011",
                "from": "0xc02aaa39b223fe8d0a0e5c4f27ead9083c756cc2",
                "id": 3,
                "isERC1155": false,
                "isERC721": false,
                "isReverted": false,
                "order": 3,
                "to": "0xdef171fe48cf0115b1d80b88dc8eab59176fee57",
                "token": "0xc02aaa39b223fe8d0a0e5c4f27ead9083c756cc2"
            },
            {
                "amount": "0.011",
                "from": "0xdef171fe48cf0115b1d80b88dc8eab59176fee57",
                "id": 4,
                "isERC1155": false,
                "isERC721": false,
                "isReverted": false,
                "order": 4,
                "to": "0x605684b039b373568aeb4871356eefe0eb812ead",
                "token": "0xc02aaa39b223fe8d0a0e5c4f27ead9083c756cc2"
            },
            {
                "amount": "125.460570709538111658",
                "from": "0x605684b039b373568aeb4871356eefe0eb812ead",
                "id": 5,
                "isERC1155": false,
                "isERC721": false,
                "isReverted": false,
                "order": 5,
                "to": "0xa3ad8c7ab6b731045b5b16e3fdf77975c71abe79",
                "token": "0xa3ad8c7ab6b731045b5b16e3fdf77975c71abe79"
            },
            {
                "amount": "2,383.750843481224121506",
                "from": "0x605684b039b373568aeb4871356eefe0eb812ead",
                "id": 6,
                "isERC1155": false,
                "isERC721": false,
                "isReverted": false,
                "order": 6,
                "to": "0x822d3309377868f743c428e5ae0a63544bfcb187",
                "token": "0xa3ad8c7ab6b731045b5b16e3fdf77975c71abe79"
            }
        ],
        "token_infos": [
            {
                "address": "0xa3ad8c7ab6b731045b5b16e3fdf77975c71abe79",
                "decimals": 18
            },
            {
                "address": "0xc02aaa39b223fe8d0a0e5c4f27ead9083c756cc2",
                "decimals": 18
            },
            {
                "address": "0xeeeeeeeeeeeeeeeeeeeeeeeeeeeeeeeeeeeeeeee",
                "decimals": 18
            }
        ]
    },
    "address_label": {
        "labels": [
            {
                "address": "0x0000000000000000000000000000000000000002",
                "label": "Precompiled"
            },
            {
                "address": "0x0000000000000000000000000000000000000004",
                "label": "Precompiled"
            },
            {
                "address": "0xeeeeeeeeeeeeeeeeeeeeeeeeeeeeeeeeeeeeeeee",
                "label": "Ether"
            },
            {
                "address": "0x4ff0dec5f9a763aa1e5c2a962aa6f4edfee4f9ea",
                "label": "NewUniswapV2Router"
            },
            {
                "address": "0xa3ad8c7ab6b731045b5b16e3fdf77975c71abe79",
                "label": "Dinero: DINERO Token"
            },
            {
                "address": "0x0000000000000000000000000000000000000001",
                "label": "Precompiled"
            },
            {
                "address": "0xc02aaa39b223fe8d0a0e5c4f27ead9083c756cc2",
                "label": "Wrapped Ether (WETH)"
            },
            {
                "address": "0x605684b039b373568aeb4871356eefe0eb812ead",
                "label": "Uniswap V2: DINERO"
            },
            {
                "address": "0xdef171fe48cf0115b1d80b88dc8eab59176fee57",
                "label": "Paraswap v5: Augustus Swapper Mainnet"
            },
            {
                "address": "0x0000000000000000000000000000000000000003",
                "label": "Precompiled"
            }
        ]
    },
    "trace": {
        "accountLabels": null,
        "dataMap": {
            "-1": {
                "invocation": {
                    "address": "0x822d3309377868f743c428e5ae0a63544bfcb187",
                    "callData": "",
                    "decodedMethod": null,
                    "errorInfo": "",
                    "fromAddress": "",
                    "gasUsed": 0,
                    "id": -1,
                    "methodDecoded": false,
                    "operation": "",
                    "output": "",
                    "revert": false,
                    "revertMessage": "",
                    "selector": "",
                    "status": false,
                    "value": ""
                },
                "nodeType": 0
            },
            "0": {
                "invocation": {
                    "address": "0xdef171fe48cf0115b1d80b88dc8eab59176fee57",
                    "callData": "0x000000000000000000000000eeeeeeeeeeeeeeeeeeeeeeeeeeeeeeeeeeeeeeee0000000000000000000000000000000000000000000000000027147114878000000000000000000000000000000000000000000000000086aa149df75ffa7391000000000000000000000000c02aaa39b223fe8d0a0e5c4f27ead9083c756cc200000000000000000000000000000000000000000000000000000000000000a00000000000000000000000000000000000000000000000000000000000000001000000000000000000004de5605684b039b373568aeb4871356eefe0eb812ead",
                    "decodedMethod": {
                        "callParams": [
                            {
                                "name": "tokenIn",
                                "type": "address",
                                "value": "0xeeeeeeeeeeeeeeeeeeeeeeeeeeeeeeeeeeeeeeee"
                            },
                            {
                                "name": "amountIn",
                                "type": "uint256",
                                "value": "11,000,000,000,000,000"
                            },
                            {
                                "name": "amountOutMin",
                                "type": "uint256",
                                "value": "2,484,119,300,048,854,610,833"
                            },
                            {
                                "name": "weth",
                                "type": "address",
                                "value": "0xc02aaa39b223fe8d0a0e5c4f27ead9083c756cc2"
                            },
                            {
                                "name": "pools",
                                "type": "uint256[]",
                                "value": [
                                    "29,144,354,142,552,409,391,454,264,667,709,439,944,023,735,984,533,165"
                                ]
                            }
                        ],
                        "constructorArguments": "",
                        "name": "swapOnUniswapV2Fork",
                        "returnParams": [],
                        "signature": "swapOnUniswapV2Fork(address,uint256,uint256,address,uint256[])"
                    },
                    "errorInfo": "",
                    "fromAddress": "0x822d3309377868f743c428e5ae0a63544bfcb187",
                    "gasUsed": 178498,
                    "id": 0,
                    "methodDecoded": true,
                    "operation": "CALL",
                    "output": "",
                    "revert": false,
                    "revertMessage": "",
                    "selector": "0x0b86a4c1",
                    "status": true,
                    "value": "0.011"
                },
                "nodeType": 0
            },
            "1": {
                "invocation": {
                    "address": "0x4ff0dec5f9a763aa1e5c2a962aa6f4edfee4f9ea",
                    "callData": "0x000000000000000000000000eeeeeeeeeeeeeeeeeeeeeeeeeeeeeeeeeeeeeeee0000000000000000000000000000000000000000000000000027147114878000000000000000000000000000000000000000000000000086aa149df75ffa7391000000000000000000000000c02aaa39b223fe8d0a0e5c4f27ead9083c756cc200000000000000000000000000000000000000000000000000000000000000a00000000000000000000000000000000000000000000000000000000000000001000000000000000000004de5605684b039b373568aeb4871356eefe0eb812ead",
                    "decodedMethod": {
                        "callParams": [
                            {
                                "name": "tokenIn",
                                "type": "address",
                                "value": "0xeeeeeeeeeeeeeeeeeeeeeeeeeeeeeeeeeeeeeeee"
                            },
                            {
                                "name": "amountIn",
                                "type": "uint256",
                                "value": "11,000,000,000,000,000"
                            },
                            {
                                "name": "amountOutMin",
                                "type": "uint256",
                                "value": "2,484,119,300,048,854,610,833"
                            },
                            {
                                "name": "weth",
                                "type": "address",
                                "value": "0xc02aaa39b223fe8d0a0e5c4f27ead9083c756cc2"
                            },
                            {
                                "name": "pools",
                                "type": "uint256[]",
                                "value": [
                                    "29,144,354,142,552,409,391,454,264,667,709,439,944,023,735,984,533,165"
                                ]
                            }
                        ],
                        "constructorArguments": "",
                        "name": "swapOnUniswapV2Fork",
                        "returnParams": [],
                        "signature": "swapOnUniswapV2Fork(address,uint256,uint256,address,uint256[])"
                    },
                    "errorInfo": "",
                    "fromAddress": "0xdef171fe48cf0115b1d80b88dc8eab59176fee57",
                    "gasUsed": 172938,
                    "id": 1,
                    "methodDecoded": true,
                    "operation": "DELEGATECALL",
                    "output": "",
                    "revert": false,
                    "revertMessage": "",
                    "selector": "0x0b86a4c1",
                    "status": true,
                    "value": "0.011"
                },
                "nodeType": 0
            },
            "10": {
                "event": {
                    "contract": "0xa3ad8c7ab6b731045b5b16e3fdf77975c71abe79",
                    "decodedLog": {
                        "name": "Transfer",
                        "params": [
                            {
                                "name": "from",
                                "type": "address",
                                "value": "0x605684b039b373568aeb4871356eefe0eb812ead"
                            },
                            {
                                "name": "to",
                                "type": "address",
                                "value": "0x822d3309377868f743c428e5ae0a63544bfcb187"
                            },
                            {
                                "decimalAvailable": true,
                                "name": "value",
                                "type": "uint256",
                                "value": "2,383,750,843,481,224,121,506"
                            }
                        ],
                        "signature": "Transfer(address,address,uint256)"
                    },
                    "id": 10,
                    "logData": "0x00000000000000000000000000000000000000000000008139303a7e30240ca2",
                    "logDecoded": true,
                    "operation": "EVENT",
                    "revert": false,
                    "status": true,
                    "topics": [
                        "0xddf252ad1be2c89b69c2b068fc378daa952ba7f163c4a11628f55a4df523b3ef",
                        "0x000000000000000000000000605684b039b373568aeb4871356eefe0eb812ead",
                        "0x000000000000000000000000822d3309377868f743c428e5ae0a63544bfcb187"
                    ]
                },
                "nodeType": 1
            },
            "11": {
                "invocation": {
                    "address": "0xa3ad8c7ab6b731045b5b16e3fdf77975c71abe79",
                    "callData": "0x000000000000000000000000605684b039b373568aeb4871356eefe0eb812ead",
                    "decodedMethod": {
                        "callParams": [
                            {
                                "name": "account",
                                "type": "address",
                                "value": "0x605684b039b373568aeb4871356eefe0eb812ead"
                            }
                        ],
                        "constructorArguments": "",
                        "name": "balanceOf",
                        "returnParams": [
                            {
                                "decimalAvailable": true,
                                "name": "",
                                "type": "uint256",
                                "value": "29,314,031,697,969,186,965,287,859"
                            }
                        ],
                        "signature": "balanceOf(address)"
                    },
                    "errorInfo": "",
                    "fromAddress": "0x605684b039b373568aeb4871356eefe0eb812ead",
                    "gasUsed": 930,
                    "id": 11,
                    "methodDecoded": true,
                    "operation": "STATICCALL",
                    "output": "0x000000000000000000000000000000000000000000183f7cd7b22aa69f97f3b3",
                    "revert": false,
                    "revertMessage": "",
                    "selector": "0x70a08231",
                    "status": true,
                    "value": "0"
                },
                "nodeType": 0
            },
            "12": {
                "invocation": {
                    "address": "0xc02aaa39b223fe8d0a0e5c4f27ead9083c756cc2",
                    "callData": "0x000000000000000000000000605684b039b373568aeb4871356eefe0eb812ead",
                    "decodedMethod": {
                        "callParams": [
                            {
                                "name": "",
                                "type": "address",
                                "value": "0x605684b039b373568aeb4871356eefe0eb812ead"
                            }
                        ],
                        "constructorArguments": "",
                        "name": "balanceOf",
                        "returnParams": [
                            {
                                "decimalAvailable": true,
                                "name": "",
                                "type": "uint256",
                                "value": "128,133,717,684,715,225,715"
                            }
                        ],
                        "signature": "balanceOf(address)"
                    },
                    "errorInfo": "",
                    "fromAddress": "0x605684b039b373568aeb4871356eefe0eb812ead",
                    "gasUsed": 534,
                    "id": 12,
                    "methodDecoded": true,
                    "operation": "STATICCALL",
                    "output": "0x000000000000000000000000000000000000000000000006f236695a4ba38273",
                    "revert": false,
                    "revertMessage": "",
                    "selector": "0x70a08231",
                    "status": true,
                    "value": "0"
                },
                "nodeType": 0
            },
            "13": {
                "event": {
                    "contract": "0x605684b039b373568aeb4871356eefe0eb812ead",
                    "decodedLog": {
                        "name": "Sync",
                        "params": [
                            {
                                "name": "reserve0",
                                "type": "uint112",
                                "value": "29,314,031,697,969,186,965,287,859"
                            },
                            {
                                "name": "reserve1",
                                "type": "uint112",
                                "value": "128,133,717,684,715,225,715"
                            }
                        ],
                        "signature": "Sync(uint112,uint112)"
                    },
                    "id": 13,
                    "logData": "0x000000000000000000000000000000000000000000183f7cd7b22aa69f97f3b3000000000000000000000000000000000000000000000006f236695a4ba38273",
                    "logDecoded": true,
                    "operation": "EVENT",
                    "revert": false,
                    "status": true,
                    "topics": [
                        "0x1c411e9a96e071241c2f21f7726b17ae89e3cab4c78be50e062b03a9fffbbad1"
                    ]
                },
                "nodeType": 1
            },
            "14": {
                "event": {
                    "contract": "0x605684b039b373568aeb4871356eefe0eb812ead",
                    "decodedLog": {
                        "name": "Swap",
                        "params": [
                            {
                                "name": "sender",
                                "type": "address",
                                "value": "0xdef171fe48cf0115b1d80b88dc8eab59176fee57"
                            },
                            {
                                "name": "to",
                                "type": "address",
                                "value": "0x822d3309377868f743c428e5ae0a63544bfcb187"
                            },
                            {
                                "name": "amount0In",
                                "type": "uint256",
                                "value": "0"
                            },
                            {
                                "name": "amount1In",
                                "type": "uint256",
                                "value": "11,000,000,000,000,000"
                            },
                            {
                                "name": "amount0Out",
                                "type": "uint256",
                                "value": "2,509,211,414,190,762,233,164"
                            },
                            {
                                "name": "amount1Out",
                                "type": "uint256",
                                "value": "0"
                            }
                        ],
                        "signature": "Swap(address,uint256,uint256,uint256,uint256,address)"
                    },
                    "id": 14,
                    "logData": "0x00000000000000000000000000000000000000000000000000000000000000000000000000000000000000000000000000000000000000000027147114878000000000000000000000000000000000000000000000000088064db6d5abf00d4c0000000000000000000000000000000000000000000000000000000000000000",
                    "logDecoded": true,
                    "operation": "EVENT",
                    "revert": false,
                    "status": true,
                    "topics": [
                        "0xd78ad95fa46c994b6551d0da85fc275fe613ce37657fb8d5e3d130840159d822",
                        "0x000000000000000000000000def171fe48cf0115b1d80b88dc8eab59176fee57",
                        "0x000000000000000000000000822d3309377868f743c428e5ae0a63544bfcb187"
                    ]
                },
                "nodeType": 1
            },
            "2": {
                "invocation": {
                    "address": "0xc02aaa39b223fe8d0a0e5c4f27ead9083c756cc2",
                    "callData": "0x",
                    "decodedMethod": {
                        "callParams": [],
                        "constructorArguments": "",
                        "name": "deposit",
                        "returnParams": [],
                        "signature": "deposit()"
                    },
                    "errorInfo": "",
                    "fromAddress": "0xdef171fe48cf0115b1d80b88dc8eab59176fee57",
                    "gasUsed": 23974,
                    "id": 2,
                    "methodDecoded": true,
                    "operation": "CALL",
                    "output": "",
                    "revert": false,
                    "revertMessage": "",
                    "selector": "0xd0e30db0",
                    "status": true,
                    "value": "0.011"
                },
                "nodeType": 0
            },
            "3": {
                "event": {
                    "contract": "0xc02aaa39b223fe8d0a0e5c4f27ead9083c756cc2",
                    "decodedLog": {
                        "name": "Deposit",
                        "params": [
                            {
                                "name": "dst",
                                "type": "address",
                                "value": "0xdef171fe48cf0115b1d80b88dc8eab59176fee57"
                            },
                            {
                                "name": "wad",
                                "type": "uint256",
                                "value": "11,000,000,000,000,000"
                            }
                        ],
                        "signature": "Deposit(address,uint256)"
                    },
                    "id": 3,
                    "logData": "0x0000000000000000000000000000000000000000000000000027147114878000",
                    "logDecoded": true,
                    "operation": "EVENT",
                    "revert": false,
                    "status": true,
                    "topics": [
                        "0xe1fffcc4923d04b559f4d29a8bfc6cda04eb5b0d3c460751c2402c5c5cc9109c",
                        "0x000000000000000000000000def171fe48cf0115b1d80b88dc8eab59176fee57"
                    ]
                },
                "nodeType": 1
            },
            "4": {
                "invocation": {
                    "address": "0xc02aaa39b223fe8d0a0e5c4f27ead9083c756cc2",
                    "callData": "0x000000000000000000000000605684b039b373568aeb4871356eefe0eb812ead0000000000000000000000000000000000000000000000000027147114878000",
                    "decodedMethod": {
                        "callParams": [
                            {
                                "name": "dst",
                                "type": "address",
                                "value": "0x605684b039b373568aeb4871356eefe0eb812ead"
                            },
                            {
                                "decimalAvailable": true,
                                "name": "wad",
                                "type": "uint256",
                                "value": "11,000,000,000,000,000"
                            }
                        ],
                        "constructorArguments": "",
                        "name": "transfer",
                        "returnParams": [
                            {
                                "name": "",
                                "type": "bool",
                                "value": true
                            }
                        ],
                        "signature": "transfer(address,uint256)"
                    },
                    "errorInfo": "",
                    "fromAddress": "0xdef171fe48cf0115b1d80b88dc8eab59176fee57",
                    "gasUsed": 8062,
                    "id": 4,
                    "methodDecoded": true,
                    "operation": "CALL",
                    "output": "0x0000000000000000000000000000000000000000000000000000000000000001",
                    "revert": false,
                    "revertMessage": "",
                    "selector": "0xa9059cbb",
                    "status": true,
                    "value": "0"
                },
                "nodeType": 0
            },
            "5": {
                "event": {
                    "contract": "0xc02aaa39b223fe8d0a0e5c4f27ead9083c756cc2",
                    "decodedLog": {
                        "name": "Transfer",
                        "params": [
                            {
                                "name": "src",
                                "type": "address",
                                "value": "0xdef171fe48cf0115b1d80b88dc8eab59176fee57"
                            },
                            {
                                "name": "dst",
                                "type": "address",
                                "value": "0x605684b039b373568aeb4871356eefe0eb812ead"
                            },
                            {
                                "decimalAvailable": true,
                                "name": "wad",
                                "type": "uint256",
                                "value": "11,000,000,000,000,000"
                            }
                        ],
                        "signature": "Transfer(address,address,uint256)"
                    },
                    "id": 5,
                    "logData": "0x0000000000000000000000000000000000000000000000000027147114878000",
                    "logDecoded": true,
                    "operation": "EVENT",
                    "revert": false,
                    "status": true,
                    "topics": [
                        "0xddf252ad1be2c89b69c2b068fc378daa952ba7f163c4a11628f55a4df523b3ef",
                        "0x000000000000000000000000def171fe48cf0115b1d80b88dc8eab59176fee57",
                        "0x000000000000000000000000605684b039b373568aeb4871356eefe0eb812ead"
                    ]
                },
                "nodeType": 1
            },
            "6": {
                "invocation": {
                    "address": "0x605684b039b373568aeb4871356eefe0eb812ead",
                    "callData": "0x",
                    "decodedMethod": {
                        "callParams": [],
                        "constructorArguments": "",
                        "name": "getReserves",
                        "returnParams": [
                            {
                                "name": "_reserve0",
                                "type": "uint112",
                                "value": "29,316,540,909,383,377,727,521,023"
                            },
                            {
                                "name": "_reserve1",
                                "type": "uint112",
                                "value": "128,122,717,684,715,225,715"
                            },
                            {
                                "name": "_blockTimestampLast",
                                "type": "uint32",
                                "value": "1,700,343,767"
                            }
                        ],
                        "signature": "getReserves()"
                    },
                    "errorInfo": "",
                    "fromAddress": "0xdef171fe48cf0115b1d80b88dc8eab59176fee57",
                    "gasUsed": 2504,
                    "id": 6,
                    "methodDecoded": true,
                    "operation": "STATICCALL",
                    "output": "0x000000000000000000000000000000000000000000184004ddffe17c4b8800ff000000000000000000000000000000000000000000000006f20f54e9371c02730000000000000000000000000000000000000000000000000000000065592fd7",
                    "revert": false,
                    "revertMessage": "",
                    "selector": "0x0902f1ac",
                    "status": true,
                    "value": "0"
                },
                "nodeType": 0
            },
            "7": {
                "invocation": {
                    "address": "0x605684b039b373568aeb4871356eefe0eb812ead",
                    "callData": "0x000000000000000000000000000000000000000000000088064db6d5abf00d4c0000000000000000000000000000000000000000000000000000000000000000000000000000000000000000822d3309377868f743c428e5ae0a63544bfcb18700000000000000000000000000000000000000000000000000000000000000800000000000000000000000000000000000000000000000000000000000000000",
                    "decodedMethod": {
                        "callParams": [
                            {
                                "name": "amount0Out",
                                "type": "uint256",
                                "value": "2,509,211,414,190,762,233,164"
                            },
                            {
                                "name": "amount1Out",
                                "type": "uint256",
                                "value": "0"
                            },
                            {
                                "name": "to",
                                "type": "address",
                                "value": "0x822d3309377868f743c428e5ae0a63544bfcb187"
                            },
                            {
                                "name": "data",
                                "type": "bytes",
                                "value": "0x"
                            }
                        ],
                        "constructorArguments": "",
                        "name": "swap",
                        "returnParams": [],
                        "signature": "swap(uint256,uint256,address,bytes)"
                    },
                    "errorInfo": "",
                    "fromAddress": "0xdef171fe48cf0115b1d80b88dc8eab59176fee57",
                    "gasUsed": 122481,
                    "id": 7,
                    "methodDecoded": true,
                    "operation": "CALL",
                    "output": "",
                    "revert": false,
                    "revertMessage": "",
                    "selector": "0x022c0d9f",
                    "status": true,
                    "value": "0"
                },
                "nodeType": 0
            },
            "8": {
                "invocation": {
                    "address": "0xa3ad8c7ab6b731045b5b16e3fdf77975c71abe79",
                    "callData": "0x000000000000000000000000822d3309377868f743c428e5ae0a63544bfcb187000000000000000000000000000000000000000000000088064db6d5abf00d4c",
                    "decodedMethod": {
                        "callParams": [
                            {
                                "name": "recipient",
                                "type": "address",
                                "value": "0x822d3309377868f743c428e5ae0a63544bfcb187"
                            },
                            {
                                "decimalAvailable": true,
                                "name": "amount",
                                "type": "uint256",
                                "value": "2,509,211,414,190,762,233,164"
                            }
                        ],
                        "constructorArguments": "",
                        "name": "transfer",
                        "returnParams": [
                            {
                                "name": "",
                                "type": "bool",
                                "value": true
                            }
                        ],
                        "signature": "transfer(address,uint256)"
                    },
                    "errorInfo": "",
                    "fromAddress": "0x605684b039b373568aeb4871356eefe0eb812ead",
                    "gasUsed": 87194,
                    "id": 8,
                    "methodDecoded": true,
                    "operation": "CALL",
                    "output": "0x0000000000000000000000000000000000000000000000000000000000000001",
                    "revert": false,
                    "revertMessage": "",
                    "selector": "0xa9059cbb",
                    "status": true,
                    "value": "0"
                },
                "nodeType": 0
            },
            "9": {
                "event": {
                    "contract": "0xa3ad8c7ab6b731045b5b16e3fdf77975c71abe79",
                    "decodedLog": {
                        "name": "Transfer",
                        "params": [
                            {
                                "name": "from",
                                "type": "address",
                                "value": "0x605684b039b373568aeb4871356eefe0eb812ead"
                            },
                            {
                                "name": "to",
                                "type": "address",
                                "value": "0xa3ad8c7ab6b731045b5b16e3fdf77975c71abe79"
                            },
                            {
                                "decimalAvailable": true,
                                "name": "value",
                                "type": "uint256",
                                "value": "125,460,570,709,538,111,658"
                            }
                        ],
                        "signature": "Transfer(address,address,uint256)"
                    },
                    "id": 9,
                    "logData": "0x000000000000000000000000000000000000000000000006cd1d7c577bcc00aa",
                    "logDecoded": true,
                    "operation": "EVENT",
                    "revert": false,
                    "status": true,
                    "topics": [
                        "0xddf252ad1be2c89b69c2b068fc378daa952ba7f163c4a11628f55a4df523b3ef",
                        "0x000000000000000000000000605684b039b373568aeb4871356eefe0eb812ead",
                        "0x000000000000000000000000a3ad8c7ab6b731045b5b16e3fdf77975c71abe79"
                    ]
                },
                "nodeType": 1
            }
        },
        "gasFlame": [
            {
                "children": [
                    {
                        "children": [
                            {
                                "children": [],
                                "depth": 0,
                                "name": "Initial Gas",
                                "value": 22908
                            },
                            {
                                "children": [
                                    {
                                        "children": [
                                            {
                                                "children": [],
                                                "depth": 2,
                                                "name": "deposit",
                                                "value": 23974
                                            },
                                            {
                                                "children": [],
                                                "depth": 2,
                                                "name": "transfer",
                                                "value": 8062
                                            },
                                            {
                                                "children": [],
                                                "depth": 2,
                                                "name": "getReserves",
                                                "value": 2504
                                            },
                                            {
                                                "children": [
                                                    {
                                                        "children": [],
                                                        "depth": 3,
                                                        "name": "transfer",
                                                        "value": 87194
                                                    },
                                                    {
                                                        "children": [],
                                                        "depth": 3,
                                                        "name": "balanceOf",
                                                        "value": 930
                                                    },
                                                    {
                                                        "children": [],
                                                        "depth": 3,
                                                        "name": "balanceOf",
                                                        "value": 534
                                                    }
                                                ],
                                                "depth": 2,
                                                "name": "swap",
                                                "value": 122481
                                            }
                                        ],
                                        "depth": 1,
                                        "name": "swapOnUniswapV2Fork",
                                        "value": 172938
                                    }
                                ],
                                "depth": 0,
                                "name": "Executed Gas",
                                "value": 178290
                            }
                        ],
                        "depth": -1,
                        "name": "Actual Gas Used",
                        "value": 178498
                    },
                    {
                        "children": [],
                        "depth": -1,
                        "name": "Refunded Gas",
                        "value": 22700
                    }
                ],
                "depth": -2,
                "name": "Total Gas",
                "value": 201198
            }
        ],
        "isConfirmed": true,
        "mainTrace": [
            {
                "children": [
                    {
                        "children": [
                            {
                                "children": [
                                    {
                                        "children": [
                                            {
                                                "children": [],
                                                "depth": 3,
                                                "id": 3,
                                                "order": 3
                                            }
                                        ],
                                        "depth": 2,
                                        "id": 2,
                                        "order": 2
                                    },
                                    {
                                        "children": [
                                            {
                                                "children": [],
                                                "depth": 3,
                                                "id": 5,
                                                "order": 5
                                            }
                                        ],
                                        "depth": 2,
                                        "id": 4,
                                        "order": 4
                                    },
                                    {
                                        "children": [],
                                        "depth": 2,
                                        "id": 6,
                                        "order": 6
                                    },
                                    {
                                        "children": [
                                            {
                                                "children": [
                                                    {
                                                        "children": [],
                                                        "depth": 4,
                                                        "id": 9,
                                                        "order": 9
                                                    },
                                                    {
                                                        "children": [],
                                                        "depth": 4,
                                                        "id": 10,
                                                        "order": 10
                                                    }
                                                ],
                                                "depth": 3,
                                                "id": 8,
                                                "order": 8
                                            },
                                            {
                                                "children": [],
                                                "depth": 3,
                                                "id": 11,
                                                "order": 11
                                            },
                                            {
                                                "children": [],
                                                "depth": 3,
                                                "id": 12,
                                                "order": 12
                                            },
                                            {
                                                "children": [],
                                                "depth": 3,
                                                "id": 13,
                                                "order": 13
                                            },
                                            {
                                                "children": [],
                                                "depth": 3,
                                                "id": 14,
                                                "order": 14
                                            }
                                        ],
                                        "depth": 2,
                                        "id": 7,
                                        "order": 7
                                    }
                                ],
                                "depth": 1,
                                "id": 1,
                                "order": 1
                            }
                        ],
                        "depth": 0,
                        "id": 0,
                        "order": 0
                    }
                ],
                "depth": -1,
                "id": -1,
                "order": -1
            }
        ],
        "mainTraceNodeCount": 15,
        "parentIdMap": {
            "0": -1,
            "1": 0,
            "10": 8,
            "11": 7,
            "12": 7,
            "13": 7,
            "14": 7,
            "2": 1,
            "3": 2,
            "4": 1,
            "5": 4,
            "6": 1,
            "7": 1,
            "8": 7,
            "9": 8
        },
        "tidyTrace": [
            {
                "children": [
                    {
                        "children": [
                            {
                                "children": [
                                    {
                                        "children": [
                                            {
                                                "children": [],
                                                "depth": 3,
                                                "id": 3,
                                                "order": 3
                                            }
                                        ],
                                        "depth": 2,
                                        "id": 2,
                                        "order": 2
                                    },
                                    {
                                        "children": [
                                            {
                                                "children": [],
                                                "depth": 3,
                                                "id": 5,
                                                "order": 5
                                            }
                                        ],
                                        "depth": 2,
                                        "id": 4,
                                        "order": 4
                                    },
                                    {
                                        "children": [
                                            {
                                                "children": [
                                                    {
                                                        "children": [],
                                                        "depth": 4,
                                                        "id": 9,
                                                        "order": 9
                                                    },
                                                    {
                                                        "children": [],
                                                        "depth": 4,
                                                        "id": 10,
                                                        "order": 10
                                                    }
                                                ],
                                                "depth": 3,
                                                "id": 8,
                                                "order": 8
                                            },
                                            {
                                                "children": [],
                                                "depth": 3,
                                                "id": 13,
                                                "order": 13
                                            },
                                            {
                                                "children": [],
                                                "depth": 3,
                                                "id": 14,
                                                "order": 14
                                            }
                                        ],
                                        "depth": 2,
                                        "id": 7,
                                        "order": 7
                                    }
                                ],
                                "depth": 1,
                                "id": 1,
                                "order": 1
                            }
                        ],
                        "depth": 0,
                        "id": 0,
                        "order": 0
                    }
                ],
                "depth": -1,
                "id": -1,
                "order": -1
            }
        ],
        "tidyTraceNodeCount": 12
    },
    "state_change": {
        "stateChanges": [
            {
                "address": "0x605684b039b373568aeb4871356eefe0eb812ead",
                "erc": "ERC-20",
                "slots": [
                    {
                        "current": "0x000000000000000000000000bec1f7aa15853fc586ea3ef8dd0f500f1a174dfc",
                        "key": "0x000000000000000000000000000000000000000000000000000000000000000a",
                        "prev": "0x000000000000000000000000bec1f4b7edef18e29065fb58e123881018e670cc"
                    },
                    {
                        "current": "0x655930af000000000006f236695a4ba38273000000183f7cd7b22aa69f97f3b3",
                        "key": "0x0000000000000000000000000000000000000000000000000000000000000008",
                        "prev": "0x65592fd7000000000006f20f54e9371c0273000000184004ddffe17c4b8800ff"
                    },
                    {
                        "current": "0x00000000000000000000000000000000000a6e470507be486eeede071b2ccd8c",
                        "key": "0x0000000000000000000000000000000000000000000000000000000000000009",
                        "prev": "0x00000000000000000000000000000000000a6e092783ae17660026e714b8ad94"
                    }
                ],
                "storageVariables": [
                    {
                        "name": "reserve0",
                        "type": "uint112",
                        "value": {
                            "current": "29314031697969186965287859",
                            "prev": "29316540909383377727521023",
                            "typeTag": 1
                        }
                    },
                    {
                        "name": "reserve1",
                        "type": "uint112",
                        "value": {
                            "current": "128133717684715225715",
                            "prev": "128122717684715225715",
                            "typeTag": 1
                        }
                    },
                    {
                        "name": "blockTimestampLast",
                        "type": "uint32",
                        "value": {
                            "current": "1700343983",
                            "prev": "1700343767",
                            "typeTag": 1
                        }
                    },
                    {
                        "name": "price0CumulativeLast",
                        "type": "uint256",
                        "value": {
                            "current": "54159660398074588434825100810571148",
                            "prev": "54154758924319377206001984364653972",
                            "typeTag": 1
                        }
                    },
                    {
                        "name": "price1CumulativeLast",
                        "type": "uint256",
                        "value": {
                            "current": "1089033864891079098046249823391277114339146288636",
                            "prev": "1089033608265554914580833551858099154284613890252",
                            "typeTag": 1
                        }
                    }
                ]
            },
            {
                "address": "0xa3ad8c7ab6b731045b5b16e3fdf77975c71abe79",
                "erc": "ERC-20",
                "slots": [
                    {
                        "current": "0x000000000000000000000000000000000000000000003790e39c2d2ca389aaa9",
                        "key": "0x0000000000000000000000000000000000000000000000000000000000000011",
                        "prev": "0x00000000000000000000000000000000000000000000378a167eb0d527bda9ff"
                    },
                    {
                        "current": "0x000000000000000000000000000000000000000000183f7cd7b22aa69f97f3b3",
                        "key": "0xf6903f84fa236b74918f1a83eb9afece2256713227599d045e863e582ed1ec05",
                        "prev": "0x000000000000000000000000000000000000000000184004ddffe17c4b8800ff"
                    },
                    {
                        "current": "0x000000000000000000000000000000000000000000003790e39c2d2ca389aaa9",
                        "key": "0x288eef7fc2889e2a88695184de0f25370d191658aba80fdd878f2fb2ff3fb328",
                        "prev": "0x00000000000000000000000000000000000000000000378a167eb0d527bda9ff"
                    },
                    {
                        "current": "0x00000000000000000000000000000000000000000000008139303a7e30240ca2",
                        "key": "0x6916752f9107d7f8efefd9a1c48413e0db26a829ab9e3751ac0b3ba3c726890a",
                        "prev": "0x0000000000000000000000000000000000000000000000000000000000000000"
                    }
                ],
                "storageVariables": [
                    {
                        "name": "tokensForMarketing",
                        "type": "uint256",
                        "value": {
                            "current": "262402888738057384209065",
                            "prev": "262277428167347846097407",
                            "typeTag": 1
                        }
                    },
                    {
                        "name": "_balances",
                        "type": "mapping(address => uint256)",
                        "value": {
                            "pairs": [
                                {
                                    "key": "0x605684b039b373568aeb4871356eefe0eb812ead",
                                    "value": {
                                        "current": "29314031697969186965287859",
                                        "prev": "29316540909383377727521023",
                                        "typeTag": 1
                                    }
                                },
                                {
                                    "key": "0x822d3309377868f743c428e5ae0a63544bfcb187",
                                    "value": {
                                        "current": "2383750843481224121506",
                                        "prev": "0",
                                        "typeTag": 1
                                    }
                                },
                                {
                                    "key": "0xa3ad8c7ab6b731045b5b16e3fdf77975c71abe79",
                                    "value": {
                                        "current": "262402888738057384209065",
                                        "prev": "262277428167347846097407",
                                        "typeTag": 1
                                    }
                                }
                            ],
                            "typeTag": 4
                        }
                    }
                ]
            },
            {
                "address": "0xc02aaa39b223fe8d0a0e5c4f27ead9083c756cc2",
                "erc": "ERC-20",
                "slots": [
                    {
                        "current": "0x000000000000000000000000000000000000000000000006f236695a4ba38273",
                        "key": "0x8b3bbb776fd8b87df3c6d88dfb2064fd276f56b7179966739481e8b69b58a21e",
                        "prev": "0x000000000000000000000000000000000000000000000006f20f54e9371c0273"
                    }
                ],
                "storageVariables": [
                    {
                        "name": "balanceOf",
                        "type": "mapping(address => uint256)",
                        "value": {
                            "pairs": [
                                {
                                    "key": "0x605684b039b373568aeb4871356eefe0eb812ead",
                                    "value": {
                                        "current": "128133717684715225715",
                                        "prev": "128122717684715225715",
                                        "typeTag": 1
                                    }
                                }
                            ],
                            "typeTag": 4
                        }
                    }
                ]
            }
        ]
    }
}