{
    "balance_change": {
        "balanceChanges": []
    },
    "profile": {
        "basic_info": {
            "baseFee": "",
            "blockNumber": 4422773,
            "callData": "0x0a19b14a000000000000000000000000539efe69bcdd21a83efd9122571a64cc25e0282b0000000000000000000000000000000000000000000000000000048c2739500000000000000000000000000000000000000000000000000000000000000000000000000000000000000000000000000000000000000000000b1a2bc2ec500000000000000000000000000000000000000000000000000000000000000043a33c00000000000000000000000000000000000000000000000000000000fc87c5370000000000000000000000009da7ad646dc636de4bbc54ece8723a2bc346ca36000000000000000000000000000000000000000000000000000000000000001c8bb865a3c5b790d2390df3014226852d333eefc88b9dfac8406170af060e7f263bdbb7597a017d49d6daf466abbd9973950ff3ab407c99751939b4759a36bfeb00000000000000000000000000000000000000000000000000000017360b4cce",
            "debugEnable": true,
            "errorInfo": "",
            "eventCount": 1,
            "feeRecipient": "0x52bc44d5378309ee2abf1539bf71de1b7d7be3b5",
            "formatValue": "0",
            "gasLimit": 250000,
            "gasPrice": "1",
            "gasUsed": 92858,
            "intTxnCount": 2,
            "internalRevert": false,
            "internalRevertMessage": "",
            "isContractCreation": false,
            "isFlashloan": false,
            "maxFee": "",
            "nonce": 6,
            "overwritedBlockNumber": -1,
            "priorityFee": "",
            "receiver": "0x8d12a197cb00d4747a1fe03395095ce2a5cc6819",
            "revertMessage": "",
            "sender": "0xd433188b411c1c484f06eb75abbb2bffb3a813c9",
            "simulationEnable": true,
            "sourceTxnHash": "0xd81b840a95cd99a072110aca3d95a1e763feb01a748db1aed25e92d940b25968",
            "status": true,
            "timestamp": "2017-10-24T20:34:02Z",
            "transactionFee": "0.000092858",
            "txnHash": "0xd81b840a95cd99a072110aca3d95a1e763feb01a748db1aed25e92d940b25968",
            "txnIndex": 37,
            "type": 0,
            "value": "0"
        },
        "fund_flow": [],
        "token_infos": [
            {
                "address": "0xc02aaa39b223fe8d0a0e5c4f27ead9083c756cc2",
                "decimals": 18
            },
            {
                "address": "0xeeeeeeeeeeeeeeeeeeeeeeeeeeeeeeeeeeeeeeee",
                "decimals": 18
            }
        ]
    },
    "address_label": {
        "labels": [
            {
                "address": "0xeeeeeeeeeeeeeeeeeeeeeeeeeeeeeeeeeeeeeeee",
                "label": "Ether"
            },
            {
                "address": "0x8d12a197cb00d4747a1fe03395095ce2a5cc6819",
                "label": "EtherDelta"
            },
            {
                "address": "0x0000000000000000000000000000000000000002",
                "label": "Precompiled"
            },
            {
                "address": "0x0000000000000000000000000000000000000000",
                "label": "Null Address"
            },
            {
                "address": "0x539efe69bcdd21a83efd9122571a64cc25e0282b",
                "label": "Ethereum Blue Token"
            },
            {
                "address": "0x0000000000000000000000000000000000000001",
                "label": "Precompiled"
            },
            {
                "address": "0x0000000000000000000000000000000000000003",
                "label": "Precompiled"
            },
            {
                "address": "0x0000000000000000000000000000000000000004",
                "label": "Precompiled"
            }
        ]
    },
    "trace": {
        "accountLabels": null,
        "dataMap": {
            "-1": {
                "invocation": {
                    "address": "0xd433188b411c1c484f06eb75abbb2bffb3a813c9",
                    "callData": "",
                    "decodedMethod": null,
                    "errorInfo": "",
                    "fromAddress": "",
                    "gasUsed": 0,
                    "id": -1,
                    "methodDecoded": false,
                    "operation": "",
                    "output": "",
                    "revert": false,
                    "revertMessage": "",
                    "selector": "",
                    "status": false,
                    "value": ""
                },
                "nodeType": 0
            },
            "0": {
                "invocation": {
                    "address": "0x8d12a197cb00d4747a1fe03395095ce2a5cc6819",
                    "callData": "0x000000000000000000000000539efe69bcdd21a83efd9122571a64cc25e0282b0000000000000000000000000000000000000000000000000000048c2739500000000000000000000000000000000000000000000000000000000000000000000000000000000000000000000000000000000000000000000b1a2bc2ec500000000000000000000000000000000000000000000000000000000000000043a33c00000000000000000000000000000000000000000000000000000000fc87c5370000000000000000000000009da7ad646dc636de4bbc54ece8723a2bc346ca36000000000000000000000000000000000000000000000000000000000000001c8bb865a3c5b790d2390df3014226852d333eefc88b9dfac8406170af060e7f263bdbb7597a017d49d6daf466abbd9973950ff3ab407c99751939b4759a36bfeb00000000000000000000000000000000000000000000000000000017360b4cce",
                    "decodedMethod": {
                        "callParams": [
                            {
                                "name": "tokenGet",
                                "type": "address",
                                "value": "0x539efe69bcdd21a83efd9122571a64cc25e0282b"
                            },
                            {
                                "name": "amountGet",
                                "type": "uint256",
                                "value": "5,000,000,000,000"
                            },
                            {
                                "name": "tokenGive",
                                "type": "address",
                                "value": "0x0000000000000000000000000000000000000000"
                            },
                            {
                                "name": "amountGive",
                                "type": "uint256",
                                "value": "800,000,000,000,000,000"
                            },
                            {
                                "name": "expires",
                                "type": "uint256",
                                "value": "4,432,700"
                            },
                            {
                                "name": "nonce",
                                "type": "uint256",
                                "value": "4,236,756,279"
                            },
                            {
                                "name": "user",
                                "type": "address",
                                "value": "0x9da7ad646dc636de4bbc54ece8723a2bc346ca36"
                            },
                            {
                                "name": "v",
                                "type": "uint8",
                                "value": "28"
                            },
                            {
                                "name": "r",
                                "type": "bytes32",
                                "value": "0x8bb865a3c5b790d2390df3014226852d333eefc88b9dfac8406170af060e7f26"
                            },
                            {
                                "name": "s",
                                "type": "bytes32",
                                "value": "0x3bdbb7597a017d49d6daf466abbd9973950ff3ab407c99751939b4759a36bfeb"
                            },
                            {
                                "name": "amount",
                                "type": "uint256",
                                "value": "99,690,958,030"
                            }
                        ],
                        "constructorArguments": "",
                        "name": "trade",
                        "returnParams": [],
                        "signature": "trade(address,uint256,address,uint256,uint256,uint256,address,uint8,bytes32,bytes32,uint256)"
                    },
                    "errorInfo": "",
                    "fromAddress": "0xd433188b411c1c484f06eb75abbb2bffb3a813c9",
                    "gasUsed": 92858,
                    "id": 0,
                    "methodDecoded": true,
                    "operation": "CALL",
                    "output": "",
                    "revert": false,
                    "revertMessage": "",
                    "selector": "0x0a19b14a",
                    "status": true,
                    "value": "0"
                },
                "nodeType": 0
            },
            "1": {
                "invocation": {
                    "address": "0x0000000000000000000000000000000000000002",
                    "callData": "0xcb00d4747a1fe03395095ce2a5cc6819539efe69bcdd21a83efd9122571a64cc25e0282b0000000000000000000000000000000000000000000000000000048c2739500000000000000000000000000000000000000000000000000000000000000000000000000000000000000000000b1a2bc2ec500000000000000000000000000000000000000000000000000000000000000043a33c00000000000000000000000000000000000000000000000000000000fc87c537",
                    "decodedMethod": {
                        "callParams": [
                            {
                                "name": "data",
                                "type": "bytes",
                                "value": "0x8d12a197cb00d4747a1fe03395095ce2a5cc6819539efe69bcdd21a83efd9122571a64cc25e0282b0000000000000000000000000000000000000000000000000000048c2739500000000000000000000000000000000000000000000000000000000000000000000000000000000000000000000b1a2bc2ec500000000000000000000000000000000000000000000000000000000000000043a33c00000000000000000000000000000000000000000000000000000000fc87c537"
                            }
                        ],
                        "constructorArguments": "",
                        "name": "sha256hash",
                        "returnParams": [
                            {
                                "name": "hash",
                                "type": "bytes32",
                                "value": "0x4c2f509765239b79eb8b534ec18d06cc25b2c8c674c420b7eb2e1329b5121c7d"
                            }
                        ],
                        "signature": "sha256hash(bytes)"
                    },
                    "errorInfo": "",
                    "fromAddress": "0x8d12a197cb00d4747a1fe03395095ce2a5cc6819",
                    "gasUsed": 132,
                    "id": 1,
                    "methodDecoded": true,
                    "operation": "CALL",
                    "output": "0x4c2f509765239b79eb8b534ec18d06cc25b2c8c674c420b7eb2e1329b5121c7d",
                    "revert": false,
                    "revertMessage": "",
                    "selector": "0x8d12a197",
                    "status": true,
                    "value": "0"
                },
                "nodeType": 0
            },
            "2": {
                "invocation": {
                    "address": "0x0000000000000000000000000000000000000001",
                    "callData": "0x81790deeeeb30977ec22b7d28015b7d7f7cf9bcb4d31afbe44aef925000000000000000000000000000000000000000000000000000000000000001c8bb865a3c5b790d2390df3014226852d333eefc88b9dfac8406170af060e7f263bdbb7597a017d49d6daf466abbd9973950ff3ab407c99751939b4759a36bfeb",
                    "decodedMethod": {
                        "callParams": [
                            {
                                "name": "hash",
                                "type": "bytes32",
                                "value": "0xdc4bdd3e81790deeeeb30977ec22b7d28015b7d7f7cf9bcb4d31afbe44aef925"
                            },
                            {
                                "name": "v",
                                "type": "uint256",
                                "value": "28"
                            },
                            {
                                "name": "r",
                                "type": "bytes32",
                                "value": "0x8bb865a3c5b790d2390df3014226852d333eefc88b9dfac8406170af060e7f26"
                            },
                            {
                                "name": "s",
                                "type": "bytes32",
                                "value": "0x3bdbb7597a017d49d6daf466abbd9973950ff3ab407c99751939b4759a36bfeb"
                            }
                        ],
                        "constructorArguments": "",
                        "name": "ecrecover",
                        "returnParams": [
                            {
                                "name": "",
                                "type": "address",
                                "value": "0x9da7ad646dc636de4bbc54ece8723a2bc346ca36"
                            }
                        ],
                        "signature": "ecrecover(bytes32,uint256,bytes32,bytes32)"
                    },
                    "errorInfo": "",
                    "fromAddress": "0x8d12a197cb00d4747a1fe03395095ce2a5cc6819",
                    "gasUsed": 3000,
                    "id": 2,
                    "methodDecoded": true,
                    "operation": "CALL",
                    "output": "0x0000000000000000000000009da7ad646dc636de4bbc54ece8723a2bc346ca36",
                    "revert": false,
                    "revertMessage": "",
                    "selector": "0xdc4bdd3e",
                    "status": true,
                    "value": "0"
                },
                "nodeType": 0
            },
            "3": {
                "event": {
                    "contract": "0x8d12a197cb00d4747a1fe03395095ce2a5cc6819",
                    "decodedLog": {
                        "name": "Trade",
                        "params": [
                            {
                                "name": "tokenGet",
                                "type": "address",
                                "value": "0x539efe69bcdd21a83efd9122571a64cc25e0282b"
                            },
                            {
                                "name": "amountGet",
                                "type": "uint256",
                                "value": "99,690,958,030"
                            },
                            {
                                "name": "tokenGive",
                                "type": "address",
                                "value": "0x0000000000000000000000000000000000000000"
                            },
                            {
                                "name": "amountGive",
                                "type": "uint256",
                                "value": "15,950,553,284,800,000"
                            },
                            {
                                "name": "get",
                                "type": "address",
                                "value": "0x9da7ad646dc636de4bbc54ece8723a2bc346ca36"
                            },
                            {
                                "name": "give",
                                "type": "address",
                                "value": "0xd433188b411c1c484f06eb75abbb2bffb3a813c9"
                            }
                        ],
                        "signature": "Trade(address,uint256,address,uint256,address,address)"
                    },
                    "id": 3,
                    "logData": "0x000000000000000000000000539efe69bcdd21a83efd9122571a64cc25e0282b00000000000000000000000000000000000000000000000000000017360b4cce00000000000000000000000000000000000000000000000000000000000000000000000000000000000000000000000000000000000000000038aaf19682ee000000000000000000000000009da7ad646dc636de4bbc54ece8723a2bc346ca36000000000000000000000000d433188b411c1c484f06eb75abbb2bffb3a813c9",
                    "logDecoded": true,
                    "operation": "EVENT",
                    "revert": false,
                    "status": true,
                    "topics": [
                        "0x6effdda786735d5033bfad5f53e5131abcced9e52be6c507b62d639685fbed6d"
                    ]
                },
                "nodeType": 1
            }
        },
        "gasFlame": [
            {
                "children": [
                    {
                        "children": [
                            {
                                "children": [],
                                "depth": 0,
                                "name": "Initial Gas",
                                "value": 30872
                            },
                            {
                                "children": [
                                    {
                                        "children": [],
                                        "depth": 1,
                                        "name": "sha256hash",
                                        "value": 132
                                    },
                                    {
                                        "children": [],
                                        "depth": 1,
                                        "name": "ecrecover",
                                        "value": 3000
                                    }
                                ],
                                "depth": 0,
                                "name": "Executed Gas",
                                "value": 61986
                            }
                        ],
                        "depth": -1,
                        "name": "Actual Gas Used",
                        "value": 92858
                    },
                    {
                        "children": [],
                        "depth": -1,
                        "name": "Refunded Gas",
                        "value": 0
                    }
                ],
                "depth": -2,
                "name": "Total Gas",
                "value": 92858
            }
        ],
        "isConfirmed": true,
        "mainTrace": [
            {
                "children": [
                    {
                        "children": [
                            {
                                "children": [],
                                "depth": 1,
                                "id": 1,
                                "order": 1
                            },
                            {
                                "children": [],
                                "depth": 1,
                                "id": 2,
                                "order": 2
                            },
                            {
                                "children": [],
                                "depth": 1,
                                "id": 3,
                                "order": 3
                            }
                        ],
                        "depth": 0,
                        "id": 0,
                        "order": 0
                    }
                ],
                "depth": -1,
                "id": -1,
                "order": -1
            }
        ],
        "mainTraceNodeCount": 4,
        "parentIdMap": {
            "0": -1,
            "1": 0,
            "2": 0,
            "3": 0
        },
        "tidyTrace": [
            {
                "children": [
                    {
                        "children": [
                            {
                                "children": [],
                                "depth": 1,
                                "id": 1,
                                "order": 1
                            },
                            {
                                "children": [],
                                "depth": 1,
                                "id": 2,
                                "order": 2
                            },
                            {
                                "children": [],
                                "depth": 1,
                                "id": 3,
                                "order": 3
                            }
                        ],
                        "depth": 0,
                        "id": 0,
                        "order": 0
                    }
                ],
                "depth": -1,
                "id": -1,
                "order": -1
            }
        ],
        "tidyTraceNodeCount": 4
    },
    "state_change": {
        "stateChanges": [
            {
                "address": "0x8d12a197cb00d4747a1fe03395095ce2a5cc6819",
                "erc": "",
                "slots": [
                    {
                        "current": "0x0000000000000000000000000000000000000000000000000000000000981dc8",
                        "key": "0xd3a9da7fc7ee734c8342d33e786d46152a737b22a53ea39d82e752f57e0dd3ca",
                        "prev": "0x000000000000000000000000000000000000000000000000000000174876e800"
                    },
                    {
                        "current": "0x0000000000000000000000000000000000000000000000000000002e6c16999c",
                        "key": "0xef32db8b51fc87deda0d27c0e9470275f3a7b8002f5667b37b1b48f3c8a05eae",
                        "prev": "0x00000000000000000000000000000000000000000000000000000017360b4cce"
                    },
                    {
                        "current": "0x00000000000000000000000000000000000000000000000000000428124eb815",
                        "key": "0x08f12b2a2891ac5889006e7c5c5cee0f8c2b29f363bfbdce543c2940c042ca05",
                        "prev": "0x00000000000000000000000000000000000000000000000000000428007b3aab"
                    },
                    {
                        "current": "0x000000000000000000000000000000000000000000000000fde4e49001156400",
                        "key": "0xfac2006beb6e3a7937915d5c9d52da0fe6fe3da0a3e0c3792c4f8f9489ff06cf",
                        "prev": "0x000000000000000000000000000000000000000000000000fe1d8f8197985200"
                    },
                    {
                        "current": "0x0000000000000000000000000000000000000000000000000038aaf19682ee00",
                        "key": "0x8af073524e2186f47b68ed6b6b6c8fb281b40d6d33897efd9028f392b0595465",
                        "prev": "0x0000000000000000000000000000000000000000000000000000000000000000"
                    },
                    {
                        "current": "0x0000000000000000000000000000000000000000000000000000002e6c16999c",
                        "key": "0xc854254d9d13856ccc013ea5e419e6103b9e7c0afed7a9753d8b0003496631d4",
                        "prev": "0x00000000000000000000000000000000000000000000000000000017360b4cce"
                    }
                ],
                "storageVariables": []
            }
        ]
    }
}