{
    "balance_change": {
        "balanceChanges": [
            {
                "account": "0xb17cc3ceb22cd4cdd7478ca2e171f580649f6335",
                "assets": [
                    {
                        "address": "0x967da4048cd07ab37855c090aaf366e4ce1b9f48",
                        "amount": "10",
                        "iconUrl": "https://assets.blocksec.com/icon/d04f3c1fedb0e68f6cad4aa54211b27acced2b1974dd8e4a30988d3bae166079.png",
                        "isERC1155": false,
                        "isERC721": false,
                        "sign": false,
                        "value": "2.0969999999999999751"
                    }
                ]
            },
            {
                "account": "0x2b263f27527f826b2816c349198aea974f9ef065",
                "assets": [
                    {
                        "address": "0x967da4048cd07ab37855c090aaf366e4ce1b9f48",
                        "amount": "10",
                        "iconUrl": "https://assets.blocksec.com/icon/d04f3c1fedb0e68f6cad4aa54211b27acced2b1974dd8e4a30988d3bae166079.png",
                        "isERC1155": false,
                        "isERC721": false,
                        "sign": true,
                        "value": "2.0969999999999999751"
                    }
                ]
            }
        ]
    },
    "profile": {
        "basic_info": {
            "baseFee": "11.656306755",
            "blockNumber": 15922266,
            "callData": "0xa9059cbb0000000000000000000000002b263f27527f826b2816c349198aea974f9ef0650000000000000000000000000000000000000000000000008ac7230489e80000",
            "debugEnable": true,
            "errorInfo": "",
            "eventCount": 1,
            "feeRecipient": "0x690b9a9e9aa1c9db991c7721a92d351db4fac990",
            "formatValue": "0",
            "gasLimit": 127783,
            "gasPrice": "12.656306755",
            "gasUsed": 58774,
            "intTxnCount": 0,
            "internalRevert": false,
            "internalRevertMessage": "",
            "isContractCreation": false,
            "isFlashloan": false,
            "maxFee": "36.494106164",
            "nonce": 27,
            "overwritedBlockNumber": -1,
            "priorityFee": "1",
            "receiver": "0x967da4048cd07ab37855c090aaf366e4ce1b9f48",
            "revertMessage": "",
            "sender": "0xb17cc3ceb22cd4cdd7478ca2e171f580649f6335",
            "simulationEnable": true,
            "sourceTxnHash": "0xd81a3d995d0ed5715e64d7e87423790597f57e28227d75658c268a2df8fda66f",
            "status": true,
            "timestamp": "2022-11-08T02:16:23Z",
            "transactionFee": "0.00074386177321837",
            "txnHash": "0xd81a3d995d0ed5715e64d7e87423790597f57e28227d75658c268a2df8fda66f",
            "txnIndex": 112,
            "type": 2,
            "value": "0"
        },
        "fund_flow": [
            {
                "amount": "10",
                "from": "0xb17cc3ceb22cd4cdd7478ca2e171f580649f6335",
                "id": 1,
                "isERC1155": false,
                "isERC721": false,
                "isReverted": false,
                "order": 1,
                "to": "0x2b263f27527f826b2816c349198aea974f9ef065",
                "token": "0x967da4048cd07ab37855c090aaf366e4ce1b9f48"
            }
        ],
        "token_infos": [
            {
                "address": "0x967da4048cd07ab37855c090aaf366e4ce1b9f48",
                "decimals": 18
            },
            {
                "address": "0xc02aaa39b223fe8d0a0e5c4f27ead9083c756cc2",
                "decimals": 18
            },
            {
                "address": "0xeeeeeeeeeeeeeeeeeeeeeeeeeeeeeeeeeeeeeeee",
                "decimals": 18
            }
        ]
    },
    "address_label": {
        "labels": [
            {
                "address": "0x0000000000000000000000000000000000000004",
                "label": "Precompiled"
            },
            {
                "address": "0xeeeeeeeeeeeeeeeeeeeeeeeeeeeeeeeeeeeeeeee",
                "label": "Ether"
            },
            {
                "address": "0x2b263f27527f826b2816c349198aea974f9ef065",
                "label": "BINANCE"
            },
            {
                "address": "0x967da4048cd07ab37855c090aaf366e4ce1b9f48",
                "label": "Ocean Protocol: OCEAN Token"
            },
            {
                "address": "0x0000000000000000000000000000000000000001",
                "label": "Precompiled"
            },
            {
                "address": "0x0000000000000000000000000000000000000002",
                "label": "Precompiled"
            },
            {
                "address": "0x0000000000000000000000000000000000000003",
                "label": "Precompiled"
            }
        ]
    },
    "trace": {
        "accountLabels": null,
        "dataMap": {
            "-1": {
                "invocation": {
                    "address": "0xb17cc3ceb22cd4cdd7478ca2e171f580649f6335",
                    "callData": "",
                    "decodedMethod": null,
                    "errorInfo": "",
                    "fromAddress": "",
                    "gasUsed": 0,
                    "id": -1,
                    "methodDecoded": false,
                    "operation": "",
                    "output": "",
                    "revert": false,
                    "revertMessage": "",
                    "selector": "",
                    "status": false,
                    "value": ""
                },
                "nodeType": 0
            },
            "0": {
                "invocation": {
                    "address": "0x967da4048cd07ab37855c090aaf366e4ce1b9f48",
                    "callData": "0x0000000000000000000000002b263f27527f826b2816c349198aea974f9ef0650000000000000000000000000000000000000000000000008ac7230489e80000",
                    "decodedMethod": {
                        "callParams": [
                            {
                                "name": "_to",
                                "type": "address",
                                "value": "0x2b263f27527f826b2816c349198aea974f9ef065"
                            },
                            {
                                "decimalAvailable": true,
                                "name": "_value",
                                "type": "uint256",
                                "value": "10,000,000,000,000,000,000"
                            }
                        ],
                        "constructorArguments": "",
                        "name": "transfer",
                        "returnParams": [
                            {
                                "name": "",
                                "type": "bool",
                                "value": true
                            }
                        ],
                        "signature": "transfer(address,uint256)"
                    },
                    "errorInfo": "",
                    "fromAddress": "0xb17cc3ceb22cd4cdd7478ca2e171f580649f6335",
                    "gasUsed": 58774,
                    "id": 0,
                    "methodDecoded": true,
                    "operation": "CALL",
                    "output": "0x0000000000000000000000000000000000000000000000000000000000000001",
                    "revert": false,
                    "revertMessage": "",
                    "selector": "0xa9059cbb",
                    "status": true,
                    "value": "0"
                },
                "nodeType": 0
            },
            "1": {
                "event": {
                    "contract": "0x967da4048cd07ab37855c090aaf366e4ce1b9f48",
                    "decodedLog": {
                        "name": "Transfer",
                        "params": [
                            {
                                "name": "from",
                                "type": "address",
                                "value": "0xb17cc3ceb22cd4cdd7478ca2e171f580649f6335"
                            },
                            {
                                "name": "to",
                                "type": "address",
                                "value": "0x2b263f27527f826b2816c349198aea974f9ef065"
                            },
                            {
                                "decimalAvailable": true,
                                "name": "value",
                                "type": "uint256",
                                "value": "10,000,000,000,000,000,000"
                            }
                        ],
                        "signature": "Transfer(address,address,uint256)"
                    },
                    "id": 1,
                    "logData": "0x0000000000000000000000000000000000000000000000008ac7230489e80000",
                    "logDecoded": true,
                    "operation": "EVENT",
                    "revert": false,
                    "status": true,
                    "topics": [
                        "0xddf252ad1be2c89b69c2b068fc378daa952ba7f163c4a11628f55a4df523b3ef",
                        "0x000000000000000000000000b17cc3ceb22cd4cdd7478ca2e171f580649f6335",
                        "0x0000000000000000000000002b263f27527f826b2816c349198aea974f9ef065"
                    ]
                },
                "nodeType": 1
            }
        },
        "gasFlame": [
            {
                "children": [
                    {
                        "children": [
                            {
                                "children": [],
                                "depth": 0,
                                "name": "Initial Gas",
                                "value": 21632
                            },
                            {
                                "children": [],
                                "depth": 0,
                                "name": "Executed Gas",
                                "value": 37142
                            }
                        ],
                        "depth": -1,
                        "name": "Actual Gas Used",
                        "value": 58774
                    },
                    {
                        "children": [],
                        "depth": -1,
                        "name": "Refunded Gas",
                        "value": 0
                    }
                ],
                "depth": -2,
                "name": "Total Gas",
                "value": 58774
            }
        ],
        "isConfirmed": true,
        "mainTrace": [
            {
                "children": [
                    {
                        "children": [
                            {
                                "children": [],
                                "depth": 1,
                                "id": 1,
                                "order": 1
                            }
                        ],
                        "depth": 0,
                        "id": 0,
                        "order": 0
                    }
                ],
                "depth": -1,
                "id": -1,
                "order": -1
            }
        ],
        "mainTraceNodeCount": 2,
        "parentIdMap": {
            "0": -1,
            "1": 0
        },
        "tidyTrace": [
            {
                "children": [
                    {
                        "children": [
                            {
                                "children": [],
                                "depth": 1,
                                "id": 1,
                                "order": 1
                            }
                        ],
                        "depth": 0,
                        "id": 0,
                        "order": 0
                    }
                ],
                "depth": -1,
                "id": -1,
                "order": -1
            }
        ],
        "tidyTraceNodeCount": 2
    },
    "state_change": {
        "stateChanges": [
            {
                "address": "0x967da4048cd07ab37855c090aaf366e4ce1b9f48",
                "erc": "ERC-20",
                "slots": [
                    {
                        "current": "0x00000000000000000000000000000000000000000006b0c6e31fb6cf6db80000",
                        "key": "0xf9a517cb068f40b69edfa4725e6319733fa026f852c3ef6c53616feb9a0cb129",
                        "prev": "0x00000000000000000000000000000000000000000006b0c76de6d9d3f7a00000"
                    },
                    {
                        "current": "0x0000000000000000000000000000000000000000000000008ac7230489e80000",
                        "key": "0x6d83efcb53c1c3dff45443c3a6a3b48cbec95bfb93733e92c276de0083b1336c",
                        "prev": "0x0000000000000000000000000000000000000000000000000000000000000000"
                    }
                ],
                "storageVariables": [
                    {
                        "name": "_balances",
                        "type": "mapping(address => uint256)",
                        "value": {
                            "pairs": [
                                {
                                    "key": "0x2b263f27527f826b2816c349198aea974f9ef065",
                                    "value": {
                                        "current": "10000000000000000000",
                                        "prev": "0",
                                        "typeTag": 1
                                    }
                                },
                                {
                                    "key": "0xb17cc3ceb22cd4cdd7478ca2e171f580649f6335",
                                    "value": {
                                        "current": "8088360240000000000000000",
                                        "prev": "8088370240000000000000000",
                                        "typeTag": 1
                                    }
                                }
                            ],
                            "typeTag": 4
                        }
                    }
                ]
            }
        ]
    }
}