{
    "balance_change": {
        "balanceChanges": [
            {
                "account": "0xa56884ed37b775034eb0898104e0589bc608aa10",
                "assets": [
                    {
                        "address": "0xeeeeeeeeeeeeeeeeeeeeeeeeeeeeeeeeeeeeeeee",
                        "amount": "0.36",
                        "iconUrl": "https://assets.blocksec.com/image/1663669189317-3.png",
                        "isERC1155": false,
                        "isERC721": false,
                        "sign": false,
                        "value": "1269.7741119599999547"
                    }
                ]
            },
            {
                "account": "0xf5c9f957705bea56a7e806943f98f7777b995826",
                "assets": [
                    {
                        "address": "0xeeeeeeeeeeeeeeeeeeeeeeeeeeeeeeeeeeeeeeee",
                        "amount": "0.36",
                        "iconUrl": "https://assets.blocksec.com/image/1663669189317-3.png",
                        "isERC1155": false,
                        "isERC721": false,
                        "sign": true,
                        "value": "1269.7741119599999547"
                    }
                ]
            }
        ]
    },
    "profile": {
        "basic_info": {
            "baseFee": "35.742024391",
            "blockNumber": 14505418,
            "callData": "0x6ce5d95703e2a5e19bf9e6b5e506819506efde20b89afacae4dd9d1adb690986caf6738300b333e3142fe16b78628f19bb15afddaef437e72d6d7f5c6c20c6801a27fba600000000000000000000000000000000000000000000000000000000004abed4",
            "debugEnable": true,
            "errorInfo": "",
            "eventCount": 1,
            "feeRecipient": "0xab3b229eb4bcff881275e7ea2f0fd24eeac8c83a",
            "formatValue": "0.36",
            "gasLimit": 76908,
            "gasPrice": "38.242024391",
            "gasUsed": 75534,
            "intTxnCount": 2,
            "internalRevert": false,
            "internalRevertMessage": "",
            "isContractCreation": false,
            "isFlashloan": false,
            "maxFee": "84.096338424",
            "nonce": 1,
            "overwritedBlockNumber": -1,
            "priorityFee": "2.5",
            "receiver": "0xf5c9f957705bea56a7e806943f98f7777b995826",
            "revertMessage": "",
            "sender": "0xa56884ed37b775034eb0898104e0589bc608aa10",
            "simulationEnable": true,
            "sourceTxnHash": "0xd8db5864592cfd4dcd1b7aa1be5d3e7c0664a0e1e2f47e88b6165f4297d0a90e",
            "status": true,
            "timestamp": "2022-04-02T07:27:05Z",
            "transactionFee": "0.002888573070349794",
            "txnHash": "0xd8db5864592cfd4dcd1b7aa1be5d3e7c0664a0e1e2f47e88b6165f4297d0a90e",
            "txnIndex": 9,
            "type": 2,
            "value": "360000000000000000"
        },
        "fund_flow": [
            {
                "amount": "0.36",
                "from": "0xa56884ed37b775034eb0898104e0589bc608aa10",
                "id": 1,
                "isERC1155": false,
                "isERC721": false,
                "isReverted": false,
                "order": 1,
                "to": "0xf5c9f957705bea56a7e806943f98f7777b995826",
                "token": "0xeeeeeeeeeeeeeeeeeeeeeeeeeeeeeeeeeeeeeeee"
            }
        ],
        "token_infos": [
            {
                "address": "0xc02aaa39b223fe8d0a0e5c4f27ead9083c756cc2",
                "decimals": 18
            },
            {
                "address": "0xeeeeeeeeeeeeeeeeeeeeeeeeeeeeeeeeeeeeeeee",
                "decimals": 18
            }
        ]
    },
    "address_label": {
        "labels": [
            {
                "address": "0x0000000000000000000000000000000000000003",
                "label": "Precompiled"
            },
            {
                "address": "0x0000000000000000000000000000000000000004",
                "label": "Precompiled"
            },
            {
                "address": "0xeeeeeeeeeeeeeeeeeeeeeeeeeeeeeeeeeeeeeeee",
                "label": "Ether"
            },
            {
                "address": "0xf5c9f957705bea56a7e806943f98f7777b995826",
                "label": "Sorare: L2 Bridge"
            },
            {
                "address": "0x8536850750956c2feebecab786d82271a5467687",
                "label": "TokensAndRamping"
            },
            {
                "address": "0x4edd62189732e9ff476aba880b48c29432a7ac9b",
                "label": "StarkExchange"
            },
            {
                "address": "0x0000000000000000000000000000000000000001",
                "label": "Precompiled"
            },
            {
                "address": "0x0000000000000000000000000000000000000002",
                "label": "Precompiled"
            }
        ]
    },
    "trace": {
        "accountLabels": null,
        "dataMap": {
            "-1": {
                "invocation": {
                    "address": "0xa56884ed37b775034eb0898104e0589bc608aa10",
                    "callData": "",
                    "decodedMethod": null,
                    "errorInfo": "",
                    "fromAddress": "",
                    "gasUsed": 0,
                    "id": -1,
                    "methodDecoded": false,
                    "operation": "",
                    "output": "",
                    "revert": false,
                    "revertMessage": "",
                    "selector": "",
                    "status": false,
                    "value": ""
                },
                "nodeType": 0
            },
            "0": {
                "invocation": {
                    "address": "0xf5c9f957705bea56a7e806943f98f7777b995826",
                    "callData": "0x03e2a5e19bf9e6b5e506819506efde20b89afacae4dd9d1adb690986caf6738300b333e3142fe16b78628f19bb15afddaef437e72d6d7f5c6c20c6801a27fba600000000000000000000000000000000000000000000000000000000004abed4",
                    "decodedMethod": {
                        "callParams": [
                            {
                                "name": "starkKey",
                                "type": "uint256",
                                "value": "1,757,390,852,951,143,180,365,567,767,582,025,157,669,971,699,572,226,260,586,611,988,834,578,494,339"
                            },
                            {
                                "name": "assetType",
                                "type": "uint256",
                                "value": "316,623,735,692,853,304,525,146,192,642,758,839,706,355,829,840,274,185,964,789,512,850,136,103,846"
                            },
                            {
                                "name": "vaultId",
                                "type": "uint256",
                                "value": "4,898,516"
                            }
                        ],
                        "constructorArguments": "",
                        "name": "depositEth",
                        "returnParams": [],
                        "signature": "depositEth(uint256,uint256,uint256)"
                    },
                    "errorInfo": "",
                    "fromAddress": "0xa56884ed37b775034eb0898104e0589bc608aa10",
                    "gasUsed": 75534,
                    "id": 0,
                    "methodDecoded": true,
                    "operation": "CALL",
                    "output": "",
                    "revert": false,
                    "revertMessage": "",
                    "selector": "0x6ce5d957",
                    "status": true,
                    "value": "0.36"
                },
                "nodeType": 0
            },
            "1": {
                "invocation": {
                    "address": "0x4edd62189732e9ff476aba880b48c29432a7ac9b",
                    "callData": "0x03e2a5e19bf9e6b5e506819506efde20b89afacae4dd9d1adb690986caf6738300b333e3142fe16b78628f19bb15afddaef437e72d6d7f5c6c20c6801a27fba600000000000000000000000000000000000000000000000000000000004abed4",
                    "decodedMethod": {
                        "callParams": [
                            {
                                "name": "starkKey",
                                "type": "uint256",
                                "value": "1,757,390,852,951,143,180,365,567,767,582,025,157,669,971,699,572,226,260,586,611,988,834,578,494,339"
                            },
                            {
                                "name": "assetType",
                                "type": "uint256",
                                "value": "316,623,735,692,853,304,525,146,192,642,758,839,706,355,829,840,274,185,964,789,512,850,136,103,846"
                            },
                            {
                                "name": "vaultId",
                                "type": "uint256",
                                "value": "4,898,516"
                            }
                        ],
                        "constructorArguments": "",
                        "name": "depositEth",
                        "returnParams": [],
                        "signature": "depositEth(uint256,uint256,uint256)"
                    },
                    "errorInfo": "",
                    "fromAddress": "0xf5c9f957705bea56a7e806943f98f7777b995826",
                    "gasUsed": 48180,
                    "id": 1,
                    "methodDecoded": true,
                    "operation": "DELEGATECALL",
                    "output": "",
                    "revert": false,
                    "revertMessage": "",
                    "selector": "0x6ce5d957",
                    "status": true,
                    "value": "0.36"
                },
                "nodeType": 0
            },
            "2": {
                "invocation": {
                    "address": "0x8536850750956c2feebecab786d82271a5467687",
                    "callData": "0x03e2a5e19bf9e6b5e506819506efde20b89afacae4dd9d1adb690986caf6738300b333e3142fe16b78628f19bb15afddaef437e72d6d7f5c6c20c6801a27fba600000000000000000000000000000000000000000000000000000000004abed4",
                    "decodedMethod": {
                        "callParams": [
                            {
                                "name": "starkKey",
                                "type": "uint256",
                                "value": "1,757,390,852,951,143,180,365,567,767,582,025,157,669,971,699,572,226,260,586,611,988,834,578,494,339"
                            },
                            {
                                "name": "assetType",
                                "type": "uint256",
                                "value": "316,623,735,692,853,304,525,146,192,642,758,839,706,355,829,840,274,185,964,789,512,850,136,103,846"
                            },
                            {
                                "name": "vaultId",
                                "type": "uint256",
                                "value": "4,898,516"
                            }
                        ],
                        "constructorArguments": "",
                        "name": "depositEth",
                        "returnParams": [],
                        "signature": "depositEth(uint256,uint256,uint256)"
                    },
                    "errorInfo": "",
                    "fromAddress": "0xf5c9f957705bea56a7e806943f98f7777b995826",
                    "gasUsed": 42644,
                    "id": 2,
                    "methodDecoded": true,
                    "operation": "DELEGATECALL",
                    "output": "",
                    "revert": false,
                    "revertMessage": "",
                    "selector": "0x6ce5d957",
                    "status": true,
                    "value": "0.36"
                },
                "nodeType": 0
            },
            "3": {
                "event": {
                    "contract": "0xf5c9f957705bea56a7e806943f98f7777b995826",
                    "decodedLog": {
                        "name": "LogDeposit",
                        "params": [
                            {
                                "name": "depositorEthKey",
                                "type": "address",
                                "value": "0xa56884ed37b775034eb0898104e0589bc608aa10"
                            },
                            {
                                "name": "starkKey",
                                "type": "uint256",
                                "value": "1,757,390,852,951,143,180,365,567,767,582,025,157,669,971,699,572,226,260,586,611,988,834,578,494,339"
                            },
                            {
                                "name": "vaultId",
                                "type": "uint256",
                                "value": "4,898,516"
                            },
                            {
                                "name": "assetType",
                                "type": "uint256",
                                "value": "316,623,735,692,853,304,525,146,192,642,758,839,706,355,829,840,274,185,964,789,512,850,136,103,846"
                            },
                            {
                                "name": "nonQuantizedAmount",
                                "type": "uint256",
                                "value": "360,000,000,000,000,000"
                            },
                            {
                                "name": "quantizedAmount",
                                "type": "uint256",
                                "value": "36,000,000"
                            }
                        ],
                        "signature": "LogDeposit(address,uint256,uint256,uint256,uint256,uint256)"
                    },
                    "id": 3,
                    "logData": "0x000000000000000000000000a56884ed37b775034eb0898104e0589bc608aa1003e2a5e19bf9e6b5e506819506efde20b89afacae4dd9d1adb690986caf6738300000000000000000000000000000000000000000000000000000000004abed400b333e3142fe16b78628f19bb15afddaef437e72d6d7f5c6c20c6801a27fba600000000000000000000000000000000000000000000000004fefa17b72400000000000000000000000000000000000000000000000000000000000002255100",
                    "logDecoded": true,
                    "operation": "EVENT",
                    "revert": false,
                    "status": true,
                    "topics": [
                        "0x06724742ccc8c330a39a641ef02a0b419bd09248360680bb38159b0a8c2635d6"
                    ]
                },
                "nodeType": 1
            }
        },
        "gasFlame": [
            {
                "children": [
                    {
                        "children": [
                            {
                                "children": [],
                                "depth": 0,
                                "name": "Initial Gas",
                                "value": 22240
                            },
                            {
                                "children": [
                                    {
                                        "children": [
                                            {
                                                "children": [],
                                                "depth": 2,
                                                "name": "depositEth",
                                                "value": 42644
                                            }
                                        ],
                                        "depth": 1,
                                        "name": "depositEth",
                                        "value": 48180
                                    }
                                ],
                                "depth": 0,
                                "name": "Executed Gas",
                                "value": 53294
                            }
                        ],
                        "depth": -1,
                        "name": "Actual Gas Used",
                        "value": 75534
                    },
                    {
                        "children": [],
                        "depth": -1,
                        "name": "Refunded Gas",
                        "value": 0
                    }
                ],
                "depth": -2,
                "name": "Total Gas",
                "value": 75534
            }
        ],
        "isConfirmed": true,
        "mainTrace": [
            {
                "children": [
                    {
                        "children": [
                            {
                                "children": [
                                    {
                                        "children": [
                                            {
                                                "children": [],
                                                "depth": 3,
                                                "id": 3,
                                                "order": 3
                                            }
                                        ],
                                        "depth": 2,
                                        "id": 2,
                                        "order": 2
                                    }
                                ],
                                "depth": 1,
                                "id": 1,
                                "order": 1
                            }
                        ],
                        "depth": 0,
                        "id": 0,
                        "order": 0
                    }
                ],
                "depth": -1,
                "id": -1,
                "order": -1
            }
        ],
        "mainTraceNodeCount": 4,
        "parentIdMap": {
            "0": -1,
            "1": 0,
            "2": 1,
            "3": 2
        },
        "tidyTrace": [
            {
                "children": [
                    {
                        "children": [
                            {
                                "children": [
                                    {
                                        "children": [
                                            {
                                                "children": [],
                                                "depth": 3,
                                                "id": 3,
                                                "order": 3
                                            }
                                        ],
                                        "depth": 2,
                                        "id": 2,
                                        "order": 2
                                    }
                                ],
                                "depth": 1,
                                "id": 1,
                                "order": 1
                            }
                        ],
                        "depth": 0,
                        "id": 0,
                        "order": 0
                    }
                ],
                "depth": -1,
                "id": -1,
                "order": -1
            }
        ],
        "tidyTraceNodeCount": 4
    },
    "state_change": {
        "stateChanges": [
            {
                "address": "0xf5c9f957705bea56a7e806943f98f7777b995826",
                "erc": "",
                "slots": [
                    {
                        "current": "0x0000000000000000000000000000000000000000000000000000000002255100",
                        "key": "0x9a2daf31fc84c48d40a868226e2b50606901acaadc4aa64960352c6f7a969e68",
                        "prev": "0x0000000000000000000000000000000000000000000000000000000000000000"
                    }
                ],
                "storageVariables": [
                    {
                        "name": "pendingDeposits",
                        "type": "mapping(uint256 => mapping(uint256 => mapping(uint256 => uint256)))",
                        "value": {
                            "pairs": [
                                {
                                    "key": "1757390852951143180365567767582025157669971699572226260586611988834578494339",
                                    "value": {
                                        "pairs": [
                                            {
                                                "key": "316623735692853304525146192642758839706355829840274185964789512850136103846",
                                                "value": {
                                                    "pairs": [
                                                        {
                                                            "key": "4898516",
                                                            "value": {
                                                                "current": "36000000",
                                                                "prev": "0",
                                                                "typeTag": 1
                                                            }
                                                        }
                                                    ],
                                                    "typeTag": 4
                                                }
                                            }
                                        ],
                                        "typeTag": 4
                                    }
                                }
                            ],
                            "typeTag": 4
                        }
                    }
                ]
            }
        ]
    }
}