{
    "balance_change": {
        "balanceChanges": [
            {
                "account": "0x326ae31c8fd4553c2df4763c77927eb4d3b51b18",
                "assets": [
                    {
                        "address": "0xeeeeeeeeeeeeeeeeeeeeeeeeeeeeeeeeeeeeeeee",
                        "amount": "0.16139008022961892",
                        "iconUrl": "https://assets.blocksec.com/image/1663669189317-3.png",
                        "isERC1155": false,
                        "isERC721": false,
                        "sign": false,
                        "value": "266.65030440724200586"
                    },
                    {
                        "address": "0x8086dea66276ea551edfe99d34d9bad70d0e2420",
                        "amount": "1,104,304.687295402",
                        "iconUrl": "",
                        "isERC1155": false,
                        "isERC721": false,
                        "sign": true,
                        "value": "256.6355245"
                    }
                ]
            },
            {
                "account": "0x4a5f741e4f9a18a21f9dd04c37ddb479fae9788a",
                "assets": [
                    {
                        "address": "0xc02aaa39b223fe8d0a0e5c4f27ead9083c756cc2",
                        "amount": "0.160905909988930064",
                        "iconUrl": "https://assets.blocksec.com/icon/f1cb2d02c471d545bbc7722daf3277fd852d98e63d118771af7047bd8256c516.png",
                        "isERC1155": false,
                        "isERC721": false,
                        "sign": true,
                        "value": "265.85035356110000584"
                    },
                    {
                        "address": "0x8086dea66276ea551edfe99d34d9bad70d0e2420",
                        "amount": "1,104,304.687295402",
                        "iconUrl": "",
                        "isERC1155": false,
                        "isERC721": false,
                        "sign": false,
                        "value": "256.6355245"
                    }
                ]
            },
            {
                "account": "0x69aaaff7419fd2ce58079f05ff06b2ff66d446d2",
                "assets": [
                    {
                        "address": "0xeeeeeeeeeeeeeeeeeeeeeeeeeeeeeeeeeeeeeeee",
                        "amount": "0.000484170240688856",
                        "iconUrl": "https://assets.blocksec.com/image/1663669189317-3.png",
                        "isERC1155": false,
                        "isERC721": false,
                        "sign": true,
                        "value": "0.7999509133869470176"
                    }
                ]
            },
            {
                "account": "0xc02aaa39b223fe8d0a0e5c4f27ead9083c756cc2",
                "assets": [
                    {
                        "address": "0xeeeeeeeeeeeeeeeeeeeeeeeeeeeeeeeeeeeeeeee",
                        "amount": "0.160905909988930064",
                        "iconUrl": "https://assets.blocksec.com/image/1663669189317-3.png",
                        "isERC1155": false,
                        "isERC721": false,
                        "sign": true,
                        "value": "265.85035356110000584"
                    },
                    {
                        "address": "0xc02aaa39b223fe8d0a0e5c4f27ead9083c756cc2",
                        "amount": "0.160905909988930064",
                        "iconUrl": "https://assets.blocksec.com/icon/f1cb2d02c471d545bbc7722daf3277fd852d98e63d118771af7047bd8256c516.png",
                        "isERC1155": false,
                        "isERC721": false,
                        "sign": false,
                        "value": "265.85035356110000584"
                    }
                ]
            }
        ]
    },
    "profile": {
        "basic_info": {
            "baseFee": "15.325115361",
            "blockNumber": 17994495,
            "callData": "0x0938b20b0000000000000000000000000000000000000000000000000000000000000020000000000000000000000000eeeeeeeeeeeeeeeeeeeeeeeeeeeeeeeeeeeeeeee0000000000000000000000008086dea66276ea551edfe99d34d9bad70d0e24200000000000000000000000004a5f741e4f9a18a21f9dd04c37ddb479fae9788a000000000000000000000000326ae31c8fd4553c2df4763c77927eb4d3b51b18000000000000000000000000000000000000000000000000023d5f6c425bb4e80000000000000000000000000000000000000000000000000003c70be16543490000000000000000000000000000000000000000000000000000000000000000000000000000000000000000000000000000000000000000000000000000001e00000000000000000000000069aaaff7419fd2ce58079f05ff06b2ff66d446d2000000000000000000000000000000000000000000000000000000000000000000000000000000000000000069aaaff7419fd2ce58079f05ff06b2ff66d446d200000000000000000000000000000000000000000000000000000000000001a0000000000000000000000000000000000000000000000000000000000000024000000000000000000000000000000000000000000000000000000000000000010000000000000000000000004a5f741e4f9a18a21f9dd04c37ddb479fae9788a000000000000000000000000c02aaa39b223fe8d0a0e5c4f27ead9083c756cc20000000000000000000000008086dea66276ea551edfe99d34d9bad70d0e24200000000000000000000000007a250d5630b4cf539739df2c5dacb4c659f2488d0000000000000000000000000000000000000000000000000000000000000000",
            "debugEnable": true,
            "errorInfo": "",
            "eventCount": 6,
            "feeRecipient": "0xcda9d71bdfae59b89cee131ed3079f8ac4c77062",
            "formatValue": "0.16139008022961892",
            "gasLimit": 262129,
            "gasPrice": "18.81773333",
            "gasUsed": 187954,
            "intTxnCount": 17,
            "internalRevert": false,
            "internalRevertMessage": "",
            "isContractCreation": false,
            "isFlashloan": false,
            "maxFee": "",
            "nonce": 2155,
            "overwritedBlockNumber": -1,
            "priorityFee": "",
            "receiver": "0x77edae6a5f332605720688c7fda7476476e8f83f",
            "revertMessage": "",
            "sender": "0x326ae31c8fd4553c2df4763c77927eb4d3b51b18",
            "simulationEnable": true,
            "sourceTxnHash": "0xd854b718337b4cf0654b354ab9ca70fff4e26801f1bcf974aaf96f34c2c8493f",
            "status": true,
            "timestamp": "2023-08-25T21:50:11Z",
            "transactionFee": "0.00353686825030682",
            "txnHash": "0xd854b718337b4cf0654b354ab9ca70fff4e26801f1bcf974aaf96f34c2c8493f",
            "txnIndex": 14,
            "type": 0,
            "value": "161390080229618920"
        },
        "fund_flow": [
            {
                "amount": "0.16139008022961892",
                "from": "0x326ae31c8fd4553c2df4763c77927eb4d3b51b18",
                "id": 1,
                "isERC1155": false,
                "isERC721": false,
                "isReverted": false,
                "order": 1,
                "to": "0x77edae6a5f332605720688c7fda7476476e8f83f",
                "token": "0xeeeeeeeeeeeeeeeeeeeeeeeeeeeeeeeeeeeeeeee"
            },
            {
                "amount": "0.000484170240688856",
                "from": "0x77edae6a5f332605720688c7fda7476476e8f83f",
                "id": 2,
                "isERC1155": false,
                "isERC721": false,
                "isReverted": false,
                "order": 2,
                "to": "0x69aaaff7419fd2ce58079f05ff06b2ff66d446d2",
                "token": "0xeeeeeeeeeeeeeeeeeeeeeeeeeeeeeeeeeeeeeeee"
            },
            {
                "amount": "0.160905909988930064",
                "from": "0x77edae6a5f332605720688c7fda7476476e8f83f",
                "id": 3,
                "isERC1155": false,
                "isERC721": false,
                "isReverted": false,
                "order": 3,
                "to": "0xc02aaa39b223fe8d0a0e5c4f27ead9083c756cc2",
                "token": "0xeeeeeeeeeeeeeeeeeeeeeeeeeeeeeeeeeeeeeeee"
            },
            {
                "amount": "0.160905909988930064",
                "from": "0xc02aaa39b223fe8d0a0e5c4f27ead9083c756cc2",
                "id": 4,
                "isERC1155": false,
                "isERC721": false,
                "isReverted": false,
                "order": 4,
                "to": "0x77edae6a5f332605720688c7fda7476476e8f83f",
                "token": "0xc02aaa39b223fe8d0a0e5c4f27ead9083c756cc2"
            },
            {
                "amount": "0.160905909988930064",
                "from": "0x77edae6a5f332605720688c7fda7476476e8f83f",
                "id": 5,
                "isERC1155": false,
                "isERC721": false,
                "isReverted": false,
                "order": 5,
                "to": "0x4a5f741e4f9a18a21f9dd04c37ddb479fae9788a",
                "token": "0xc02aaa39b223fe8d0a0e5c4f27ead9083c756cc2"
            },
            {
                "amount": "1,104,304.687295402",
                "from": "0x4a5f741e4f9a18a21f9dd04c37ddb479fae9788a",
                "id": 6,
                "isERC1155": false,
                "isERC721": false,
                "isReverted": false,
                "order": 6,
                "to": "0x326ae31c8fd4553c2df4763c77927eb4d3b51b18",
                "token": "0x8086dea66276ea551edfe99d34d9bad70d0e2420"
            }
        ],
        "token_infos": [
            {
                "address": "0x8086dea66276ea551edfe99d34d9bad70d0e2420",
                "decimals": 9
            },
            {
                "address": "0xc02aaa39b223fe8d0a0e5c4f27ead9083c756cc2",
                "decimals": 18
            },
            {
                "address": "0xeeeeeeeeeeeeeeeeeeeeeeeeeeeeeeeeeeeeeeee",
                "decimals": 18
            }
        ]
    },
    "address_label": {
        "labels": [
            {
                "address": "0xeeeeeeeeeeeeeeeeeeeeeeeeeeeeeeeeeeeeeeee",
                "label": "Ether"
            },
            {
                "address": "0xc02aaa39b223fe8d0a0e5c4f27ead9083c756cc2",
                "label": "Wrapped Ether (WETH)"
            },
            {
                "address": "0x77edae6a5f332605720688c7fda7476476e8f83f",
                "label": "TransparentUpgradeableProxy"
            },
            {
                "address": "0x0000000000000000000000000000000000000002",
                "label": "Precompiled"
            },
            {
                "address": "0x0000000000000000000000000000000000000003",
                "label": "Precompiled"
            },
            {
                "address": "0x0000000000000000000000000000000000000004",
                "label": "Precompiled"
            },
            {
                "address": "0x7a250d5630b4cf539739df2c5dacb4c659f2488d",
                "label": "Uniswap V2: Router 2"
            },
            {
                "address": "0x8086dea66276ea551edfe99d34d9bad70d0e2420",
                "label": "REFUND (RFD)"
            },
            {
                "address": "0x4a5f741e4f9a18a21f9dd04c37ddb479fae9788a",
                "label": "Uniswap V2 (UNI-V2)"
            },
            {
                "address": "0x0000000000000000000000000000000000000001",
                "label": "Precompiled"
            }
        ]
    },
    "trace": {
        "accountLabels": null,
        "dataMap": {
            "-1": {
                "invocation": {
                    "address": "0x326ae31c8fd4553c2df4763c77927eb4d3b51b18",
                    "callData": "",
                    "decodedMethod": null,
                    "errorInfo": "",
                    "fromAddress": "",
                    "gasUsed": 0,
                    "id": -1,
                    "methodDecoded": false,
                    "operation": "",
                    "output": "",
                    "revert": false,
                    "revertMessage": "",
                    "selector": "",
                    "status": false,
                    "value": ""
                },
                "nodeType": 0
            },
            "0": {
                "invocation": {
                    "address": "0x77edae6a5f332605720688c7fda7476476e8f83f",
                    "callData": "0x0000000000000000000000000000000000000000000000000000000000000020000000000000000000000000eeeeeeeeeeeeeeeeeeeeeeeeeeeeeeeeeeeeeeee0000000000000000000000008086dea66276ea551edfe99d34d9bad70d0e24200000000000000000000000004a5f741e4f9a18a21f9dd04c37ddb479fae9788a000000000000000000000000326ae31c8fd4553c2df4763c77927eb4d3b51b18000000000000000000000000000000000000000000000000023d5f6c425bb4e80000000000000000000000000000000000000000000000000003c70be16543490000000000000000000000000000000000000000000000000000000000000000000000000000000000000000000000000000000000000000000000000000001e00000000000000000000000069aaaff7419fd2ce58079f05ff06b2ff66d446d2000000000000000000000000000000000000000000000000000000000000000000000000000000000000000069aaaff7419fd2ce58079f05ff06b2ff66d446d200000000000000000000000000000000000000000000000000000000000001a0000000000000000000000000000000000000000000000000000000000000024000000000000000000000000000000000000000000000000000000000000000010000000000000000000000004a5f741e4f9a18a21f9dd04c37ddb479fae9788a000000000000000000000000c02aaa39b223fe8d0a0e5c4f27ead9083c756cc20000000000000000000000008086dea66276ea551edfe99d34d9bad70d0e24200000000000000000000000007a250d5630b4cf539739df2c5dacb4c659f2488d0000000000000000000000000000000000000000000000000000000000000000",
                    "decodedMethod": null,
                    "errorInfo": "",
                    "fromAddress": "0x326ae31c8fd4553c2df4763c77927eb4d3b51b18",
                    "gasUsed": 187954,
                    "id": 0,
                    "methodDecoded": false,
                    "operation": "CALL",
                    "output": "0x0000000000000000000000000000000000000000000000000003ec5bf89c2baa",
                    "revert": false,
                    "revertMessage": "",
                    "selector": "0x0938b20b",
                    "status": true,
                    "value": "0.16139008022961892"
                },
                "nodeType": 0
            },
            "1": {
                "invocation": {
                    "address": "0x3472fe1428d9c0195e046e003aa1e64bf44caa52",
                    "callData": "0x0000000000000000000000000000000000000000000000000000000000000020000000000000000000000000eeeeeeeeeeeeeeeeeeeeeeeeeeeeeeeeeeeeeeee0000000000000000000000008086dea66276ea551edfe99d34d9bad70d0e24200000000000000000000000004a5f741e4f9a18a21f9dd04c37ddb479fae9788a000000000000000000000000326ae31c8fd4553c2df4763c77927eb4d3b51b18000000000000000000000000000000000000000000000000023d5f6c425bb4e80000000000000000000000000000000000000000000000000003c70be16543490000000000000000000000000000000000000000000000000000000000000000000000000000000000000000000000000000000000000000000000000000001e00000000000000000000000069aaaff7419fd2ce58079f05ff06b2ff66d446d2000000000000000000000000000000000000000000000000000000000000000000000000000000000000000069aaaff7419fd2ce58079f05ff06b2ff66d446d200000000000000000000000000000000000000000000000000000000000001a0000000000000000000000000000000000000000000000000000000000000024000000000000000000000000000000000000000000000000000000000000000010000000000000000000000004a5f741e4f9a18a21f9dd04c37ddb479fae9788a000000000000000000000000c02aaa39b223fe8d0a0e5c4f27ead9083c756cc20000000000000000000000008086dea66276ea551edfe99d34d9bad70d0e24200000000000000000000000007a250d5630b4cf539739df2c5dacb4c659f2488d0000000000000000000000000000000000000000000000000000000000000000",
                    "decodedMethod": null,
                    "errorInfo": "",
                    "fromAddress": "0x77edae6a5f332605720688c7fda7476476e8f83f",
                    "gasUsed": 179736,
                    "id": 1,
                    "methodDecoded": false,
                    "operation": "DELEGATECALL",
                    "output": "0x0000000000000000000000000000000000000000000000000003ec5bf89c2baa",
                    "revert": false,
                    "revertMessage": "",
                    "selector": "0x0938b20b",
                    "status": true,
                    "value": "0.16139008022961892"
                },
                "nodeType": 0
            },
            "10": {
                "invocation": {
                    "address": "0x8086dea66276ea551edfe99d34d9bad70d0e2420",
                    "callData": "0x000000000000000000000000326ae31c8fd4553c2df4763c77927eb4d3b51b18",
                    "decodedMethod": {
                        "callParams": [
                            {
                                "name": "account",
                                "type": "address",
                                "value": "0x326ae31c8fd4553c2df4763c77927eb4d3b51b18"
                            }
                        ],
                        "constructorArguments": "",
                        "name": "balanceOf",
                        "returnParams": [
                            {
                                "decimalAvailable": true,
                                "name": "",
                                "type": "uint256",
                                "value": "1,356,406,413,248,805"
                            }
                        ],
                        "signature": "balanceOf(address)"
                    },
                    "errorInfo": "",
                    "fromAddress": "0x77edae6a5f332605720688c7fda7476476e8f83f",
                    "gasUsed": 2918,
                    "id": 10,
                    "methodDecoded": true,
                    "operation": "STATICCALL",
                    "output": "0x0000000000000000000000000000000000000000000000000004d1a4fa6ec925",
                    "revert": false,
                    "revertMessage": "",
                    "selector": "0x70a08231",
                    "status": true,
                    "value": "0"
                },
                "nodeType": 0
            },
            "11": {
                "invocation": {
                    "address": "0x4a5f741e4f9a18a21f9dd04c37ddb479fae9788a",
                    "callData": "0x",
                    "decodedMethod": {
                        "callParams": [],
                        "constructorArguments": "",
                        "name": "getReserves",
                        "returnParams": [
                            {
                                "name": "_reserve0",
                                "type": "uint112",
                                "value": "80,855,687,985,609,288"
                            },
                            {
                                "name": "_reserve1",
                                "type": "uint112",
                                "value": "11,585,544,861,824,243,129"
                            },
                            {
                                "name": "_blockTimestampLast",
                                "type": "uint32",
                                "value": "1,693,000,163"
                            }
                        ],
                        "signature": "getReserves()"
                    },
                    "errorInfo": "",
                    "fromAddress": "0x77edae6a5f332605720688c7fda7476476e8f83f",
                    "gasUsed": 504,
                    "id": 11,
                    "methodDecoded": true,
                    "operation": "STATICCALL",
                    "output": "0x000000000000000000000000000000000000000000000000011f41d1e073ba48000000000000000000000000000000000000000000000000a0c81fab4262d5b90000000000000000000000000000000000000000000000000000000064e921e3",
                    "revert": false,
                    "revertMessage": "",
                    "selector": "0x0902f1ac",
                    "status": true,
                    "value": "0"
                },
                "nodeType": 0
            },
            "12": {
                "invocation": {
                    "address": "0xc02aaa39b223fe8d0a0e5c4f27ead9083c756cc2",
                    "callData": "0x0000000000000000000000004a5f741e4f9a18a21f9dd04c37ddb479fae9788a",
                    "decodedMethod": {
                        "callParams": [
                            {
                                "name": "",
                                "type": "address",
                                "value": "0x4a5f741e4f9a18a21f9dd04c37ddb479fae9788a"
                            }
                        ],
                        "constructorArguments": "",
                        "name": "balanceOf",
                        "returnParams": [
                            {
                                "decimalAvailable": true,
                                "name": "",
                                "type": "uint256",
                                "value": "11,746,450,771,813,173,193"
                            }
                        ],
                        "signature": "balanceOf(address)"
                    },
                    "errorInfo": "",
                    "fromAddress": "0x77edae6a5f332605720688c7fda7476476e8f83f",
                    "gasUsed": 534,
                    "id": 12,
                    "methodDecoded": true,
                    "operation": "STATICCALL",
                    "output": "0x000000000000000000000000000000000000000000000000a303c6bdd98987c9",
                    "revert": false,
                    "revertMessage": "",
                    "selector": "0x70a08231",
                    "status": true,
                    "value": "0"
                },
                "nodeType": 0
            },
            "13": {
                "invocation": {
                    "address": "0x7a250d5630b4cf539739df2c5dacb4c659f2488d",
                    "callData": "0x000000000000000000000000000000000000000000000000023ba7129726b21000000000000000000000000000000000000000000000000000000000000000400000000000000000000000000000000000000000000000000000000000000002000000000000000000000000c02aaa39b223fe8d0a0e5c4f27ead9083c756cc20000000000000000000000008086dea66276ea551edfe99d34d9bad70d0e2420",
                    "decodedMethod": {
                        "callParams": [
                            {
                                "name": "amountIn",
                                "type": "uint256",
                                "value": "160,905,909,988,930,064"
                            },
                            {
                                "name": "path",
                                "type": "address[]",
                                "value": [
                                    "0xc02aaa39b223fe8d0a0e5c4f27ead9083c756cc2",
                                    "0x8086dea66276ea551edfe99d34d9bad70d0e2420"
                                ]
                            }
                        ],
                        "constructorArguments": "",
                        "name": "getAmountsOut",
                        "returnParams": [
                            {
                                "name": "amounts",
                                "type": "uint256[]",
                                "value": [
                                    "160,905,909,988,930,064",
                                    "1,104,304,687,295,402"
                                ]
                            }
                        ],
                        "signature": "getAmountsOut(uint256,address[])"
                    },
                    "errorInfo": "",
                    "fromAddress": "0x77edae6a5f332605720688c7fda7476476e8f83f",
                    "gasUsed": 4112,
                    "id": 13,
                    "methodDecoded": true,
                    "operation": "STATICCALL",
                    "output": "0x00000000000000000000000000000000000000000000000000000000000000200000000000000000000000000000000000000000000000000000000000000002000000000000000000000000000000000000000000000000023ba7129726b2100000000000000000000000000000000000000000000000000003ec5bf89c2baa",
                    "revert": false,
                    "revertMessage": "",
                    "selector": "0xd06ca61f",
                    "status": true,
                    "value": "0"
                },
                "nodeType": 0
            },
            "14": {
                "invocation": {
                    "address": "0x4a5f741e4f9a18a21f9dd04c37ddb479fae9788a",
                    "callData": "0x",
                    "decodedMethod": {
                        "callParams": [],
                        "constructorArguments": "",
                        "name": "getReserves",
                        "returnParams": [
                            {
                                "name": "_reserve0",
                                "type": "uint112",
                                "value": "80,855,687,985,609,288"
                            },
                            {
                                "name": "_reserve1",
                                "type": "uint112",
                                "value": "11,585,544,861,824,243,129"
                            },
                            {
                                "name": "_blockTimestampLast",
                                "type": "uint32",
                                "value": "1,693,000,163"
                            }
                        ],
                        "signature": "getReserves()"
                    },
                    "errorInfo": "",
                    "fromAddress": "0x7a250d5630b4cf539739df2c5dacb4c659f2488d",
                    "gasUsed": 504,
                    "id": 14,
                    "methodDecoded": true,
                    "operation": "STATICCALL",
                    "output": "0x000000000000000000000000000000000000000000000000011f41d1e073ba48000000000000000000000000000000000000000000000000a0c81fab4262d5b90000000000000000000000000000000000000000000000000000000064e921e3",
                    "revert": false,
                    "revertMessage": "",
                    "selector": "0x0902f1ac",
                    "status": true,
                    "value": "0"
                },
                "nodeType": 0
            },
            "15": {
                "invocation": {
                    "address": "0x4a5f741e4f9a18a21f9dd04c37ddb479fae9788a",
                    "callData": "0x0000000000000000000000000000000000000000000000000003ec5bf89c2baa0000000000000000000000000000000000000000000000000000000000000000000000000000000000000000326ae31c8fd4553c2df4763c77927eb4d3b51b1800000000000000000000000000000000000000000000000000000000000000800000000000000000000000000000000000000000000000000000000000000000",
                    "decodedMethod": {
                        "callParams": [
                            {
                                "name": "amount0Out",
                                "type": "uint256",
                                "value": "1,104,304,687,295,402"
                            },
                            {
                                "name": "amount1Out",
                                "type": "uint256",
                                "value": "0"
                            },
                            {
                                "name": "to",
                                "type": "address",
                                "value": "0x326ae31c8fd4553c2df4763c77927eb4d3b51b18"
                            },
                            {
                                "name": "data",
                                "type": "bytes",
                                "value": "0x"
                            }
                        ],
                        "constructorArguments": "",
                        "name": "swap",
                        "returnParams": [],
                        "signature": "swap(uint256,uint256,address,bytes)"
                    },
                    "errorInfo": "",
                    "fromAddress": "0x77edae6a5f332605720688c7fda7476476e8f83f",
                    "gasUsed": 74770,
                    "id": 15,
                    "methodDecoded": true,
                    "operation": "CALL",
                    "output": "",
                    "revert": false,
                    "revertMessage": "",
                    "selector": "0x022c0d9f",
                    "status": true,
                    "value": "0"
                },
                "nodeType": 0
            },
            "16": {
                "invocation": {
                    "address": "0x8086dea66276ea551edfe99d34d9bad70d0e2420",
                    "callData": "0x000000000000000000000000326ae31c8fd4553c2df4763c77927eb4d3b51b180000000000000000000000000000000000000000000000000003ec5bf89c2baa",
                    "decodedMethod": {
                        "callParams": [
                            {
                                "name": "recipient",
                                "type": "address",
                                "value": "0x326ae31c8fd4553c2df4763c77927eb4d3b51b18"
                            },
                            {
                                "decimalAvailable": true,
                                "name": "amount",
                                "type": "uint256",
                                "value": "1,104,304,687,295,402"
                            }
                        ],
                        "constructorArguments": "",
                        "name": "transfer",
                        "returnParams": [
                            {
                                "name": "",
                                "type": "bool",
                                "value": true
                            }
                        ],
                        "signature": "transfer(address,uint256)"
                    },
                    "errorInfo": "",
                    "fromAddress": "0x4a5f741e4f9a18a21f9dd04c37ddb479fae9788a",
                    "gasUsed": 41995,
                    "id": 16,
                    "methodDecoded": true,
                    "operation": "CALL",
                    "output": "0x0000000000000000000000000000000000000000000000000000000000000001",
                    "revert": false,
                    "revertMessage": "",
                    "selector": "0xa9059cbb",
                    "status": true,
                    "value": "0"
                },
                "nodeType": 0
            },
            "17": {
                "event": {
                    "contract": "0x8086dea66276ea551edfe99d34d9bad70d0e2420",
                    "decodedLog": {
                        "name": "Transfer",
                        "params": [
                            {
                                "name": "from",
                                "type": "address",
                                "value": "0x4a5f741e4f9a18a21f9dd04c37ddb479fae9788a"
                            },
                            {
                                "name": "to",
                                "type": "address",
                                "value": "0x326ae31c8fd4553c2df4763c77927eb4d3b51b18"
                            },
                            {
                                "decimalAvailable": true,
                                "name": "value",
                                "type": "uint256",
                                "value": "1,104,304,687,295,402"
                            }
                        ],
                        "signature": "Transfer(address,address,uint256)"
                    },
                    "id": 17,
                    "logData": "0x0000000000000000000000000000000000000000000000000003ec5bf89c2baa",
                    "logDecoded": true,
                    "operation": "EVENT",
                    "revert": false,
                    "status": true,
                    "topics": [
                        "0xddf252ad1be2c89b69c2b068fc378daa952ba7f163c4a11628f55a4df523b3ef",
                        "0x0000000000000000000000004a5f741e4f9a18a21f9dd04c37ddb479fae9788a",
                        "0x000000000000000000000000326ae31c8fd4553c2df4763c77927eb4d3b51b18"
                    ]
                },
                "nodeType": 1
            },
            "18": {
                "invocation": {
                    "address": "0x8086dea66276ea551edfe99d34d9bad70d0e2420",
                    "callData": "0x0000000000000000000000004a5f741e4f9a18a21f9dd04c37ddb479fae9788a",
                    "decodedMethod": {
                        "callParams": [
                            {
                                "name": "account",
                                "type": "address",
                                "value": "0x4a5f741e4f9a18a21f9dd04c37ddb479fae9788a"
                            }
                        ],
                        "constructorArguments": "",
                        "name": "balanceOf",
                        "returnParams": [
                            {
                                "decimalAvailable": true,
                                "name": "",
                                "type": "uint256",
                                "value": "79,751,383,298,313,886"
                            }
                        ],
                        "signature": "balanceOf(address)"
                    },
                    "errorInfo": "",
                    "fromAddress": "0x4a5f741e4f9a18a21f9dd04c37ddb479fae9788a",
                    "gasUsed": 918,
                    "id": 18,
                    "methodDecoded": true,
                    "operation": "STATICCALL",
                    "output": "0x000000000000000000000000000000000000000000000000011b5575e7d78e9e",
                    "revert": false,
                    "revertMessage": "",
                    "selector": "0x70a08231",
                    "status": true,
                    "value": "0"
                },
                "nodeType": 0
            },
            "19": {
                "invocation": {
                    "address": "0xc02aaa39b223fe8d0a0e5c4f27ead9083c756cc2",
                    "callData": "0x0000000000000000000000004a5f741e4f9a18a21f9dd04c37ddb479fae9788a",
                    "decodedMethod": {
                        "callParams": [
                            {
                                "name": "",
                                "type": "address",
                                "value": "0x4a5f741e4f9a18a21f9dd04c37ddb479fae9788a"
                            }
                        ],
                        "constructorArguments": "",
                        "name": "balanceOf",
                        "returnParams": [
                            {
                                "decimalAvailable": true,
                                "name": "",
                                "type": "uint256",
                                "value": "11,746,450,771,813,173,193"
                            }
                        ],
                        "signature": "balanceOf(address)"
                    },
                    "errorInfo": "",
                    "fromAddress": "0x4a5f741e4f9a18a21f9dd04c37ddb479fae9788a",
                    "gasUsed": 534,
                    "id": 19,
                    "methodDecoded": true,
                    "operation": "STATICCALL",
                    "output": "0x000000000000000000000000000000000000000000000000a303c6bdd98987c9",
                    "revert": false,
                    "revertMessage": "",
                    "selector": "0x70a08231",
                    "status": true,
                    "value": "0"
                },
                "nodeType": 0
            },
            "2": {
                "invocation": {
                    "address": "0xdcf63a49f5938fd3b673271015ecf1aa3a2ef154",
                    "callData": "0x0000000000000000000000000000000000000000000000000000000000000040000000000000000000000000000000000000000000000000023ba7129726b20f00000000000000000000000000000000000000000000000000000000000000010000000000000000000000004a5f741e4f9a18a21f9dd04c37ddb479fae9788a000000000000000000000000c02aaa39b223fe8d0a0e5c4f27ead9083c756cc20000000000000000000000008086dea66276ea551edfe99d34d9bad70d0e24200000000000000000000000007a250d5630b4cf539739df2c5dacb4c659f2488d",
                    "decodedMethod": {
                        "callParams": [
                            {
                                "name": "path",
                                "type": "(address,address,address,address)[]",
                                "value": [
                                    [
                                        {
                                            "name": "pair",
                                            "type": "address",
                                            "value": "0x4a5f741e4f9a18a21f9dd04c37ddb479fae9788a"
                                        },
                                        {
                                            "name": "tokenIn",
                                            "type": "address",
                                            "value": "0xc02aaa39b223fe8d0a0e5c4f27ead9083c756cc2"
                                        },
                                        {
                                            "name": "tokenOut",
                                            "type": "address",
                                            "value": "0x8086dea66276ea551edfe99d34d9bad70d0e2420"
                                        },
                                        {
                                            "name": "router",
                                            "type": "address",
                                            "value": "0x7a250d5630b4cf539739df2c5dacb4c659f2488d"
                                        }
                                    ]
                                ]
                            },
                            {
                                "name": "amountIn",
                                "type": "uint256",
                                "value": "160,905,909,988,930,063"
                            }
                        ],
                        "constructorArguments": "",
                        "name": "getAmountsOut",
                        "returnParams": [
                            {
                                "name": "amounts",
                                "type": "uint256[]",
                                "value": [
                                    "160,905,909,988,930,063",
                                    "1,104,304,687,295,402"
                                ]
                            }
                        ],
                        "signature": "getAmountsOut((address,address,address,address)[],uint256)"
                    },
                    "errorInfo": "",
                    "fromAddress": "0x77edae6a5f332605720688c7fda7476476e8f83f",
                    "gasUsed": 15436,
                    "id": 2,
                    "methodDecoded": true,
                    "operation": "CALL",
                    "output": "0x00000000000000000000000000000000000000000000000000000000000000200000000000000000000000000000000000000000000000000000000000000002000000000000000000000000000000000000000000000000023ba7129726b20f0000000000000000000000000000000000000000000000000003ec5bf89c2baa",
                    "revert": false,
                    "revertMessage": "",
                    "selector": "0x9cb2dade",
                    "status": true,
                    "value": "0"
                },
                "nodeType": 0
            },
            "20": {
                "event": {
                    "contract": "0x4a5f741e4f9a18a21f9dd04c37ddb479fae9788a",
                    "decodedLog": {
                        "name": "Sync",
                        "params": [
                            {
                                "name": "reserve0",
                                "type": "uint112",
                                "value": "79,751,383,298,313,886"
                            },
                            {
                                "name": "reserve1",
                                "type": "uint112",
                                "value": "11,746,450,771,813,173,193"
                            }
                        ],
                        "signature": "Sync(uint112,uint112)"
                    },
                    "id": 20,
                    "logData": "0x000000000000000000000000000000000000000000000000011b5575e7d78e9e000000000000000000000000000000000000000000000000a303c6bdd98987c9",
                    "logDecoded": true,
                    "operation": "EVENT",
                    "revert": false,
                    "status": true,
                    "topics": [
                        "0x1c411e9a96e071241c2f21f7726b17ae89e3cab4c78be50e062b03a9fffbbad1"
                    ]
                },
                "nodeType": 1
            },
            "21": {
                "event": {
                    "contract": "0x4a5f741e4f9a18a21f9dd04c37ddb479fae9788a",
                    "decodedLog": {
                        "name": "Swap",
                        "params": [
                            {
                                "name": "sender",
                                "type": "address",
                                "value": "0x77edae6a5f332605720688c7fda7476476e8f83f"
                            },
                            {
                                "name": "to",
                                "type": "address",
                                "value": "0x326ae31c8fd4553c2df4763c77927eb4d3b51b18"
                            },
                            {
                                "name": "amount0In",
                                "type": "uint256",
                                "value": "0"
                            },
                            {
                                "name": "amount1In",
                                "type": "uint256",
                                "value": "160,905,909,988,930,064"
                            },
                            {
                                "name": "amount0Out",
                                "type": "uint256",
                                "value": "1,104,304,687,295,402"
                            },
                            {
                                "name": "amount1Out",
                                "type": "uint256",
                                "value": "0"
                            }
                        ],
                        "signature": "Swap(address,uint256,uint256,uint256,uint256,address)"
                    },
                    "id": 21,
                    "logData": "0x0000000000000000000000000000000000000000000000000000000000000000000000000000000000000000000000000000000000000000023ba7129726b2100000000000000000000000000000000000000000000000000003ec5bf89c2baa0000000000000000000000000000000000000000000000000000000000000000",
                    "logDecoded": true,
                    "operation": "EVENT",
                    "revert": false,
                    "status": true,
                    "topics": [
                        "0xd78ad95fa46c994b6551d0da85fc275fe613ce37657fb8d5e3d130840159d822",
                        "0x00000000000000000000000077edae6a5f332605720688c7fda7476476e8f83f",
                        "0x000000000000000000000000326ae31c8fd4553c2df4763c77927eb4d3b51b18"
                    ]
                },
                "nodeType": 1
            },
            "22": {
                "invocation": {
                    "address": "0x8086dea66276ea551edfe99d34d9bad70d0e2420",
                    "callData": "0x000000000000000000000000326ae31c8fd4553c2df4763c77927eb4d3b51b18",
                    "decodedMethod": {
                        "callParams": [
                            {
                                "name": "account",
                                "type": "address",
                                "value": "0x326ae31c8fd4553c2df4763c77927eb4d3b51b18"
                            }
                        ],
                        "constructorArguments": "",
                        "name": "balanceOf",
                        "returnParams": [
                            {
                                "decimalAvailable": true,
                                "name": "",
                                "type": "uint256",
                                "value": "2,460,711,100,544,207"
                            }
                        ],
                        "signature": "balanceOf(address)"
                    },
                    "errorInfo": "",
                    "fromAddress": "0x77edae6a5f332605720688c7fda7476476e8f83f",
                    "gasUsed": 918,
                    "id": 22,
                    "methodDecoded": true,
                    "operation": "STATICCALL",
                    "output": "0x0000000000000000000000000000000000000000000000000008be00f30af4cf",
                    "revert": false,
                    "revertMessage": "",
                    "selector": "0x70a08231",
                    "status": true,
                    "value": "0"
                },
                "nodeType": 0
            },
            "23": {
                "event": {
                    "contract": "0x77edae6a5f332605720688c7fda7476476e8f83f",
                    "decodedLog": null,
                    "id": 23,
                    "logData": "0x000000000000000000000000326ae31c8fd4553c2df4763c77927eb4d3b51b18000000000000000000000000eeeeeeeeeeeeeeeeeeeeeeeeeeeeeeeeeeeeeeee0000000000000000000000008086dea66276ea551edfe99d34d9bad70d0e2420000000000000000000000000326ae31c8fd4553c2df4763c77927eb4d3b51b18000000000000000000000000000000000000000000000000023d5f6c425bb4e80000000000000000000000000000000000000000000000000003ec5bf89c2baa",
                    "logDecoded": false,
                    "operation": "EVENT",
                    "revert": false,
                    "status": true,
                    "topics": [
                        "0x20efd6d5195b7b50273f01cd79a27989255356f9f13293edc53ee142accfdb75"
                    ]
                },
                "nodeType": 1
            },
            "3": {
                "invocation": {
                    "address": "0x7a250d5630b4cf539739df2c5dacb4c659f2488d",
                    "callData": "0x000000000000000000000000000000000000000000000000023ba7129726b20f00000000000000000000000000000000000000000000000000000000000000400000000000000000000000000000000000000000000000000000000000000002000000000000000000000000c02aaa39b223fe8d0a0e5c4f27ead9083c756cc20000000000000000000000008086dea66276ea551edfe99d34d9bad70d0e2420",
                    "decodedMethod": {
                        "callParams": [
                            {
                                "name": "amountIn",
                                "type": "uint256",
                                "value": "160,905,909,988,930,063"
                            },
                            {
                                "name": "path",
                                "type": "address[]",
                                "value": [
                                    "0xc02aaa39b223fe8d0a0e5c4f27ead9083c756cc2",
                                    "0x8086dea66276ea551edfe99d34d9bad70d0e2420"
                                ]
                            }
                        ],
                        "constructorArguments": "",
                        "name": "getAmountsOut",
                        "returnParams": [
                            {
                                "name": "amounts",
                                "type": "uint256[]",
                                "value": [
                                    "160,905,909,988,930,063",
                                    "1,104,304,687,295,402"
                                ]
                            }
                        ],
                        "signature": "getAmountsOut(uint256,address[])"
                    },
                    "errorInfo": "",
                    "fromAddress": "0xdcf63a49f5938fd3b673271015ecf1aa3a2ef154",
                    "gasUsed": 8612,
                    "id": 3,
                    "methodDecoded": true,
                    "operation": "STATICCALL",
                    "output": "0x00000000000000000000000000000000000000000000000000000000000000200000000000000000000000000000000000000000000000000000000000000002000000000000000000000000000000000000000000000000023ba7129726b20f0000000000000000000000000000000000000000000000000003ec5bf89c2baa",
                    "revert": false,
                    "revertMessage": "",
                    "selector": "0xd06ca61f",
                    "status": true,
                    "value": "0"
                },
                "nodeType": 0
            },
            "4": {
                "invocation": {
                    "address": "0x4a5f741e4f9a18a21f9dd04c37ddb479fae9788a",
                    "callData": "0x",
                    "decodedMethod": {
                        "callParams": [],
                        "constructorArguments": "",
                        "name": "getReserves",
                        "returnParams": [
                            {
                                "name": "_reserve0",
                                "type": "uint112",
                                "value": "80,855,687,985,609,288"
                            },
                            {
                                "name": "_reserve1",
                                "type": "uint112",
                                "value": "11,585,544,861,824,243,129"
                            },
                            {
                                "name": "_blockTimestampLast",
                                "type": "uint32",
                                "value": "1,693,000,163"
                            }
                        ],
                        "signature": "getReserves()"
                    },
                    "errorInfo": "",
                    "fromAddress": "0x7a250d5630b4cf539739df2c5dacb4c659f2488d",
                    "gasUsed": 2504,
                    "id": 4,
                    "methodDecoded": true,
                    "operation": "STATICCALL",
                    "output": "0x000000000000000000000000000000000000000000000000011f41d1e073ba48000000000000000000000000000000000000000000000000a0c81fab4262d5b90000000000000000000000000000000000000000000000000000000064e921e3",
                    "revert": false,
                    "revertMessage": "",
                    "selector": "0x0902f1ac",
                    "status": true,
                    "value": "0"
                },
                "nodeType": 0
            },
            "5": {
                "invocation": {
                    "address": "0x69aaaff7419fd2ce58079f05ff06b2ff66d446d2",
                    "callData": "0x",
                    "decodedMethod": null,
                    "errorInfo": "",
                    "fromAddress": "0x77edae6a5f332605720688c7fda7476476e8f83f",
                    "gasUsed": 0,
                    "id": 5,
                    "methodDecoded": false,
                    "operation": "CALL",
                    "output": "",
                    "revert": false,
                    "revertMessage": "",
                    "selector": "fallback",
                    "status": true,
                    "value": "0.000484170240688856"
                },
                "nodeType": 0
            },
            "6": {
                "invocation": {
                    "address": "0xc02aaa39b223fe8d0a0e5c4f27ead9083c756cc2",
                    "callData": "0x",
                    "decodedMethod": {
                        "callParams": [],
                        "constructorArguments": "",
                        "name": "deposit",
                        "returnParams": [],
                        "signature": "deposit()"
                    },
                    "errorInfo": "",
                    "fromAddress": "0x77edae6a5f332605720688c7fda7476476e8f83f",
                    "gasUsed": 23974,
                    "id": 6,
                    "methodDecoded": true,
                    "operation": "CALL",
                    "output": "",
                    "revert": false,
                    "revertMessage": "",
                    "selector": "0xd0e30db0",
                    "status": true,
                    "value": "0.160905909988930064"
                },
                "nodeType": 0
            },
            "7": {
                "event": {
                    "contract": "0xc02aaa39b223fe8d0a0e5c4f27ead9083c756cc2",
                    "decodedLog": {
                        "name": "Deposit",
                        "params": [
                            {
                                "name": "dst",
                                "type": "address",
                                "value": "0x77edae6a5f332605720688c7fda7476476e8f83f"
                            },
                            {
                                "name": "wad",
                                "type": "uint256",
                                "value": "160,905,909,988,930,064"
                            }
                        ],
                        "signature": "Deposit(address,uint256)"
                    },
                    "id": 7,
                    "logData": "0x000000000000000000000000000000000000000000000000023ba7129726b210",
                    "logDecoded": true,
                    "operation": "EVENT",
                    "revert": false,
                    "status": true,
                    "topics": [
                        "0xe1fffcc4923d04b559f4d29a8bfc6cda04eb5b0d3c460751c2402c5c5cc9109c",
                        "0x00000000000000000000000077edae6a5f332605720688c7fda7476476e8f83f"
                    ]
                },
                "nodeType": 1
            },
            "8": {
                "invocation": {
                    "address": "0xc02aaa39b223fe8d0a0e5c4f27ead9083c756cc2",
                    "callData": "0x0000000000000000000000004a5f741e4f9a18a21f9dd04c37ddb479fae9788a000000000000000000000000000000000000000000000000023ba7129726b210",
                    "decodedMethod": {
                        "callParams": [
                            {
                                "name": "dst",
                                "type": "address",
                                "value": "0x4a5f741e4f9a18a21f9dd04c37ddb479fae9788a"
                            },
                            {
                                "decimalAvailable": true,
                                "name": "wad",
                                "type": "uint256",
                                "value": "160,905,909,988,930,064"
                            }
                        ],
                        "constructorArguments": "",
                        "name": "transfer",
                        "returnParams": [
                            {
                                "name": "",
                                "type": "bool",
                                "value": true
                            }
                        ],
                        "signature": "transfer(address,uint256)"
                    },
                    "errorInfo": "",
                    "fromAddress": "0x77edae6a5f332605720688c7fda7476476e8f83f",
                    "gasUsed": 8062,
                    "id": 8,
                    "methodDecoded": true,
                    "operation": "CALL",
                    "output": "0x0000000000000000000000000000000000000000000000000000000000000001",
                    "revert": false,
                    "revertMessage": "",
                    "selector": "0xa9059cbb",
                    "status": true,
                    "value": "0"
                },
                "nodeType": 0
            },
            "9": {
                "event": {
                    "contract": "0xc02aaa39b223fe8d0a0e5c4f27ead9083c756cc2",
                    "decodedLog": {
                        "name": "Transfer",
                        "params": [
                            {
                                "name": "src",
                                "type": "address",
                                "value": "0x77edae6a5f332605720688c7fda7476476e8f83f"
                            },
                            {
                                "name": "dst",
                                "type": "address",
                                "value": "0x4a5f741e4f9a18a21f9dd04c37ddb479fae9788a"
                            },
                            {
                                "decimalAvailable": true,
                                "name": "wad",
                                "type": "uint256",
                                "value": "160,905,909,988,930,064"
                            }
                        ],
                        "signature": "Transfer(address,address,uint256)"
                    },
                    "id": 9,
                    "logData": "0x000000000000000000000000000000000000000000000000023ba7129726b210",
                    "logDecoded": true,
                    "operation": "EVENT",
                    "revert": false,
                    "status": true,
                    "topics": [
                        "0xddf252ad1be2c89b69c2b068fc378daa952ba7f163c4a11628f55a4df523b3ef",
                        "0x00000000000000000000000077edae6a5f332605720688c7fda7476476e8f83f",
                        "0x0000000000000000000000004a5f741e4f9a18a21f9dd04c37ddb479fae9788a"
                    ]
                },
                "nodeType": 1
            }
        },
        "gasFlame": [
            {
                "children": [
                    {
                        "children": [
                            {
                                "children": [],
                                "depth": 0,
                                "name": "Initial Gas",
                                "value": 26288
                            },
                            {
                                "children": [
                                    {
                                        "children": [
                                            {
                                                "children": [
                                                    {
                                                        "children": [
                                                            {
                                                                "children": [],
                                                                "depth": 4,
                                                                "name": "getReserves",
                                                                "value": 2504
                                                            }
                                                        ],
                                                        "depth": 3,
                                                        "name": "getAmountsOut",
                                                        "value": 8612
                                                    }
                                                ],
                                                "depth": 2,
                                                "name": "getAmountsOut",
                                                "value": 15436
                                            },
                                            {
                                                "children": [],
                                                "depth": 2,
                                                "name": "fallback",
                                                "value": 0
                                            },
                                            {
                                                "children": [],
                                                "depth": 2,
                                                "name": "deposit",
                                                "value": 23974
                                            },
                                            {
                                                "children": [],
                                                "depth": 2,
                                                "name": "transfer",
                                                "value": 8062
                                            },
                                            {
                                                "children": [],
                                                "depth": 2,
                                                "name": "balanceOf",
                                                "value": 2918
                                            },
                                            {
                                                "children": [],
                                                "depth": 2,
                                                "name": "getReserves",
                                                "value": 504
                                            },
                                            {
                                                "children": [],
                                                "depth": 2,
                                                "name": "balanceOf",
                                                "value": 534
                                            },
                                            {
                                                "children": [
                                                    {
                                                        "children": [],
                                                        "depth": 3,
                                                        "name": "getReserves",
                                                        "value": 504
                                                    }
                                                ],
                                                "depth": 2,
                                                "name": "getAmountsOut",
                                                "value": 4112
                                            },
                                            {
                                                "children": [
                                                    {
                                                        "children": [],
                                                        "depth": 3,
                                                        "name": "transfer",
                                                        "value": 41995
                                                    },
                                                    {
                                                        "children": [],
                                                        "depth": 3,
                                                        "name": "balanceOf",
                                                        "value": 918
                                                    },
                                                    {
                                                        "children": [],
                                                        "depth": 3,
                                                        "name": "balanceOf",
                                                        "value": 534
                                                    }
                                                ],
                                                "depth": 2,
                                                "name": "swap",
                                                "value": 74770
                                            },
                                            {
                                                "children": [],
                                                "depth": 2,
                                                "name": "balanceOf",
                                                "value": 918
                                            }
                                        ],
                                        "depth": 1,
                                        "name": "0x0938b20b",
                                        "value": 179736
                                    }
                                ],
                                "depth": 0,
                                "name": "Executed Gas",
                                "value": 187166
                            }
                        ],
                        "depth": -1,
                        "name": "Actual Gas Used",
                        "value": 187954
                    },
                    {
                        "children": [],
                        "depth": -1,
                        "name": "Refunded Gas",
                        "value": 25500
                    }
                ],
                "depth": -2,
                "name": "Total Gas",
                "value": 213454
            }
        ],
        "isConfirmed": true,
        "mainTrace": [
            {
                "children": [
                    {
                        "children": [
                            {
                                "children": [
                                    {
                                        "children": [
                                            {
                                                "children": [
                                                    {
                                                        "children": [],
                                                        "depth": 4,
                                                        "id": 4,
                                                        "order": 4
                                                    }
                                                ],
                                                "depth": 3,
                                                "id": 3,
                                                "order": 3
                                            }
                                        ],
                                        "depth": 2,
                                        "id": 2,
                                        "order": 2
                                    },
                                    {
                                        "children": [],
                                        "depth": 2,
                                        "id": 5,
                                        "order": 5
                                    },
                                    {
                                        "children": [
                                            {
                                                "children": [],
                                                "depth": 3,
                                                "id": 7,
                                                "order": 7
                                            }
                                        ],
                                        "depth": 2,
                                        "id": 6,
                                        "order": 6
                                    },
                                    {
                                        "children": [
                                            {
                                                "children": [],
                                                "depth": 3,
                                                "id": 9,
                                                "order": 9
                                            }
                                        ],
                                        "depth": 2,
                                        "id": 8,
                                        "order": 8
                                    },
                                    {
                                        "children": [],
                                        "depth": 2,
                                        "id": 10,
                                        "order": 10
                                    },
                                    {
                                        "children": [],
                                        "depth": 2,
                                        "id": 11,
                                        "order": 11
                                    },
                                    {
                                        "children": [],
                                        "depth": 2,
                                        "id": 12,
                                        "order": 12
                                    },
                                    {
                                        "children": [
                                            {
                                                "children": [],
                                                "depth": 3,
                                                "id": 14,
                                                "order": 14
                                            }
                                        ],
                                        "depth": 2,
                                        "id": 13,
                                        "order": 13
                                    },
                                    {
                                        "children": [
                                            {
                                                "children": [
                                                    {
                                                        "children": [],
                                                        "depth": 4,
                                                        "id": 17,
                                                        "order": 17
                                                    }
                                                ],
                                                "depth": 3,
                                                "id": 16,
                                                "order": 16
                                            },
                                            {
                                                "children": [],
                                                "depth": 3,
                                                "id": 18,
                                                "order": 18
                                            },
                                            {
                                                "children": [],
                                                "depth": 3,
                                                "id": 19,
                                                "order": 19
                                            },
                                            {
                                                "children": [],
                                                "depth": 3,
                                                "id": 20,
                                                "order": 20
                                            },
                                            {
                                                "children": [],
                                                "depth": 3,
                                                "id": 21,
                                                "order": 21
                                            }
                                        ],
                                        "depth": 2,
                                        "id": 15,
                                        "order": 15
                                    },
                                    {
                                        "children": [],
                                        "depth": 2,
                                        "id": 22,
                                        "order": 22
                                    },
                                    {
                                        "children": [],
                                        "depth": 2,
                                        "id": 23,
                                        "order": 23
                                    }
                                ],
                                "depth": 1,
                                "id": 1,
                                "order": 1
                            }
                        ],
                        "depth": 0,
                        "id": 0,
                        "order": 0
                    }
                ],
                "depth": -1,
                "id": -1,
                "order": -1
            }
        ],
        "mainTraceNodeCount": 24,
        "parentIdMap": {
            "0": -1,
            "1": 0,
            "10": 1,
            "11": 1,
            "12": 1,
            "13": 1,
            "14": 13,
            "15": 1,
            "16": 15,
            "17": 16,
            "18": 15,
            "19": 15,
            "2": 1,
            "20": 15,
            "21": 15,
            "22": 1,
            "23": 1,
            "3": 2,
            "4": 3,
            "5": 1,
            "6": 1,
            "7": 6,
            "8": 1,
            "9": 8
        },
        "tidyTrace": [
            {
                "children": [
                    {
                        "children": [
                            {
                                "children": [
                                    {
                                        "children": [],
                                        "depth": 2,
                                        "id": 2,
                                        "order": 2
                                    },
                                    {
                                        "children": [],
                                        "depth": 2,
                                        "id": 5,
                                        "order": 5
                                    },
                                    {
                                        "children": [
                                            {
                                                "children": [],
                                                "depth": 3,
                                                "id": 7,
                                                "order": 7
                                            }
                                        ],
                                        "depth": 2,
                                        "id": 6,
                                        "order": 6
                                    },
                                    {
                                        "children": [
                                            {
                                                "children": [],
                                                "depth": 3,
                                                "id": 9,
                                                "order": 9
                                            }
                                        ],
                                        "depth": 2,
                                        "id": 8,
                                        "order": 8
                                    },
                                    {
                                        "children": [
                                            {
                                                "children": [
                                                    {
                                                        "children": [],
                                                        "depth": 4,
                                                        "id": 17,
                                                        "order": 17
                                                    }
                                                ],
                                                "depth": 3,
                                                "id": 16,
                                                "order": 16
                                            },
                                            {
                                                "children": [],
                                                "depth": 3,
                                                "id": 20,
                                                "order": 20
                                            },
                                            {
                                                "children": [],
                                                "depth": 3,
                                                "id": 21,
                                                "order": 21
                                            }
                                        ],
                                        "depth": 2,
                                        "id": 15,
                                        "order": 15
                                    },
                                    {
                                        "children": [],
                                        "depth": 2,
                                        "id": 23,
                                        "order": 23
                                    }
                                ],
                                "depth": 1,
                                "id": 1,
                                "order": 1
                            }
                        ],
                        "depth": 0,
                        "id": 0,
                        "order": 0
                    }
                ],
                "depth": -1,
                "id": -1,
                "order": -1
            }
        ],
        "tidyTraceNodeCount": 14
    },
    "state_change": {
        "stateChanges": [
            {
                "address": "0x4a5f741e4f9a18a21f9dd04c37ddb479fae9788a",
                "erc": "ERC-20",
                "slots": [
                    {
                        "current": "0x0000000000000000000000000000000000faed6095a6ff05036c21e2ee3d5568",
                        "key": "0x000000000000000000000000000000000000000000000000000000000000000a",
                        "prev": "0x0000000000000000000000000000000000fa979e80aa7d685457351754e0ad58"
                    },
                    {
                        "current": "0x64e92213000000000000a303c6bdd98987c9000000000000011b5575e7d78e9e",
                        "key": "0x0000000000000000000000000000000000000000000000000000000000000008",
                        "prev": "0x64e921e3000000000000a0c81fab4262d5b9000000000000011f41d1e073ba48"
                    },
                    {
                        "current": "0x0000000000000000000000000000002562f48844ed61d382ebbd1216cc31fc8c",
                        "key": "0x0000000000000000000000000000000000000000000000000000000000000009",
                        "prev": "0x000000000000000000000000000000254816c546b681b2d1489897c06fab3adc"
                    }
                ],
                "storageVariables": [
                    {
                        "name": "price1CumulativeLast",
                        "type": "uint256",
                        "value": {
                            "current": "1302888797928526167769413710291752296",
                            "prev": "1301149416353726429947762621594774872",
                            "typeTag": 1
                        }
                    },
                    {
                        "name": "reserve0",
                        "type": "uint112",
                        "value": {
                            "current": "79751383298313886",
                            "prev": "80855687985609288",
                            "typeTag": 1
                        }
                    },
                    {
                        "name": "reserve1",
                        "type": "uint112",
                        "value": {
                            "current": "11746450771813173193",
                            "prev": "11585544861824243129",
                            "typeTag": 1
                        }
                    },
                    {
                        "name": "blockTimestampLast",
                        "type": "uint32",
                        "value": {
                            "current": "1693000211",
                            "prev": "1693000163",
                            "typeTag": 1
                        }
                    },
                    {
                        "name": "price0CumulativeLast",
                        "type": "uint256",
                        "value": {
                            "current": "12721981603963814761194500389828128013452",
                            "prev": "12686270223539271220239389053084976757468",
                            "typeTag": 1
                        }
                    }
                ]
            },
            {
                "address": "0x8086dea66276ea551edfe99d34d9bad70d0e2420",
                "erc": "ERC-20",
                "slots": [
                    {
                        "current": "0x00000000000000000000000000000000000000000000000000000000000006ce",
                        "key": "0x000000000000000000000000000000000000000000000000000000000000000e",
                        "prev": "0x00000000000000000000000000000000000000000000000000000000000006cd"
                    },
                    {
                        "current": "0x000000000000000000000000000000000000000000000000011b5575e7d78e9e",
                        "key": "0xa48e6345c0ed3d76f06fdbacac8c2ab156e548c143e14ec4cc29e29561ac189b",
                        "prev": "0x000000000000000000000000000000000000000000000000011f41d1e073ba48"
                    },
                    {
                        "current": "0x0000000000000000000000000000000000000000000000000008be00f30af4cf",
                        "key": "0x44b9810af8a10378bee1ae62f2c698a717d264eabc280b23998036cfb5bbdcd1",
                        "prev": "0x0000000000000000000000000000000000000000000000000004d1a4fa6ec925"
                    }
                ],
                "storageVariables": [
                    {
                        "name": "_balances",
                        "type": "mapping(address => uint256)",
                        "value": {
                            "pairs": [
                                {
                                    "key": "0x326ae31c8fd4553c2df4763c77927eb4d3b51b18",
                                    "value": {
                                        "current": "2460711100544207",
                                        "prev": "1356406413248805",
                                        "typeTag": 1
                                    }
                                },
                                {
                                    "key": "0x4a5f741e4f9a18a21f9dd04c37ddb479fae9788a",
                                    "value": {
                                        "current": "79751383298313886",
                                        "prev": "80855687985609288",
                                        "typeTag": 1
                                    }
                                }
                            ],
                            "typeTag": 4
                        }
                    },
                    {
                        "name": "_buyCount",
                        "type": "uint256",
                        "value": {
                            "current": "1742",
                            "prev": "1741",
                            "typeTag": 1
                        }
                    }
                ]
            },
            {
                "address": "0xc02aaa39b223fe8d0a0e5c4f27ead9083c756cc2",
                "erc": "ERC-20",
                "slots": [
                    {
                        "current": "0x000000000000000000000000000000000000000000000000a303c6bdd98987c9",
                        "key": "0x6a38ed198768323cd7a393b46366407321c2920b6e8bcb1eceed1fc3895974e0",
                        "prev": "0x000000000000000000000000000000000000000000000000a0c81fab4262d5b9"
                    }
                ],
                "storageVariables": [
                    {
                        "name": "balanceOf",
                        "type": "mapping(address => uint256)",
                        "value": {
                            "pairs": [
                                {
                                    "key": "0x4a5f741e4f9a18a21f9dd04c37ddb479fae9788a",
                                    "value": {
                                        "current": "11746450771813173193",
                                        "prev": "11585544861824243129",
                                        "typeTag": 1
                                    }
                                }
                            ],
                            "typeTag": 4
                        }
                    }
                ]
            }
        ]
    }
}