{
    "balance_change": {
        "balanceChanges": [
            {
                "account": "0x4585fe77225b41b697c938b018e2ac67ac5a20c0",
                "assets": [
                    {
                        "address": "0xc02aaa39b223fe8d0a0e5c4f27ead9083c756cc2",
                        "amount": "11.580900674763620717",
                        "iconUrl": "https://assets.blocksec.com/icon/f1cb2d02c471d545bbc7722daf3277fd852d98e63d118771af7047bd8256c516.png",
                        "isERC1155": false,
                        "isERC721": false,
                        "sign": false,
                        "value": "36432.755769489160674"
                    },
                    {
                        "address": "0x2260fac5e5542a773aa44fbcfedf7c193bc2c599",
                        "amount": "0.79500579",
                        "iconUrl": "https://assets.blocksec.com/icon/878f2983cb21c5816eb5879d9b6f7a3fe2eb6fce7560c367a0315527852a8a84.png",
                        "isERC1155": false,
                        "isERC721": false,
                        "sign": true,
                        "value": "35380.308887410537274"
                    }
                ]
            },
            {
                "account": "0x56178a0d5f301baf6cf3e1cd53d9863437345bf9",
                "assets": [
                    {
                        "address": "0x2260fac5e5542a773aa44fbcfedf7c193bc2c599",
                        "amount": "0.79500579",
                        "iconUrl": "https://assets.blocksec.com/icon/878f2983cb21c5816eb5879d9b6f7a3fe2eb6fce7560c367a0315527852a8a84.png",
                        "isERC1155": false,
                        "isERC721": false,
                        "sign": false,
                        "value": "35380.308887410537274"
                    },
                    {
                        "address": "0xc02aaa39b223fe8d0a0e5c4f27ead9083c756cc2",
                        "amount": "11.580900674763620717",
                        "iconUrl": "https://assets.blocksec.com/icon/f1cb2d02c471d545bbc7722daf3277fd852d98e63d118771af7047bd8256c516.png",
                        "isERC1155": false,
                        "isERC721": false,
                        "sign": true,
                        "value": "36432.755769489160674"
                    }
                ]
            }
        ]
    },
    "profile": {
        "basic_info": {
            "baseFee": "",
            "blockNumber": 12964593,
            "callData": "0x1cff79cd0000000000000000000000008d5a5abf5b2c0755e87347db30b07850ddb22ba1000000000000000000000000000000000000000000000000000000000000004000000000000000000000000000000000000000000000000000000000000001841a0a1ebc00000000000000000000000000000000000000000000000000000000000001f4000000000000000000000000c02aaa39b223fe8d0a0e5c4f27ead9083c756cc20000000000000000000000002260fac5e5542a773aa44fbcfedf7c193bc2c59900000000000000000000000056178a0d5f301baf6cf3e1cd53d9863437345bf9000000000000000000000000000000000000000000000000002386f26fc100000000000000000000000000000000000000000000000000a2a15d09519be000000000000000000000000000000000000000000000000d32acadd7c89470aa700000000000000000000000000000000000000000000000000000186bc68fb8b800000000000000000000000000000000000005d246e462e7853eeda1611eb900800000000000000000000000000000000000000000000000000de0b6b3a764000000000000000000000000000000000000000000000000000000000000610bc4e2000000000000000000000000000000000000000000000000000000000000000000000000000000000000000000000000000000000000000000000000",
            "debugEnable": true,
            "errorInfo": "",
            "eventCount": 5,
            "feeRecipient": "0x5a0b54d5dc17e0aadc383d2db43b0a0d3e029c4c",
            "formatValue": "0",
            "gasLimit": 1200000,
            "gasPrice": "41.850373805",
            "gasUsed": 248143,
            "intTxnCount": 17,
            "internalRevert": true,
            "internalRevertMessage": "",
            "isContractCreation": false,
            "isFlashloan": false,
            "maxFee": "",
            "nonce": 24841,
            "overwritedBlockNumber": -1,
            "priorityFee": "",
            "receiver": "0xa57bd00134b2850b2a1c55860c9e9ea100fdd6cf",
            "revertMessage": "",
            "sender": "0xd248711655893f8bf0ccf44eeee4702cda9e7ba9",
            "simulationEnable": true,
            "sourceTxnHash": "0xd82fbc8e182789caabfbb281b80181b49d8d26ce58a386d203141967c2786b43",
            "status": true,
            "timestamp": "2021-08-05T10:58:24Z",
            "transactionFee": "0.010384877307094115",
            "txnHash": "0xd82fbc8e182789caabfbb281b80181b49d8d26ce58a386d203141967c2786b43",
            "txnIndex": 51,
            "type": 0,
            "value": "0"
        },
        "fund_flow": [
            {
                "amount": "0.79500579",
                "from": "0x56178a0d5f301baf6cf3e1cd53d9863437345bf9",
                "id": 2,
                "isERC1155": false,
                "isERC721": false,
                "isReverted": false,
                "order": 1,
                "to": "0xa57bd00134b2850b2a1c55860c9e9ea100fdd6cf",
                "token": "0x2260fac5e5542a773aa44fbcfedf7c193bc2c599"
            },
            {
                "amount": "11.580900674763620717",
                "from": "0x4585fe77225b41b697c938b018e2ac67ac5a20c0",
                "id": 3,
                "isERC1155": false,
                "isERC721": false,
                "isReverted": false,
                "order": 2,
                "to": "0x56178a0d5f301baf6cf3e1cd53d9863437345bf9",
                "token": "0xc02aaa39b223fe8d0a0e5c4f27ead9083c756cc2"
            },
            {
                "amount": "0.79500579",
                "from": "0xa57bd00134b2850b2a1c55860c9e9ea100fdd6cf",
                "id": 4,
                "isERC1155": false,
                "isERC721": false,
                "isReverted": false,
                "order": 3,
                "to": "0x4585fe77225b41b697c938b018e2ac67ac5a20c0",
                "token": "0x2260fac5e5542a773aa44fbcfedf7c193bc2c599"
            }
        ],
        "token_infos": [
            {
                "address": "0x2260fac5e5542a773aa44fbcfedf7c193bc2c599",
                "decimals": 8
            },
            {
                "address": "0xc02aaa39b223fe8d0a0e5c4f27ead9083c756cc2",
                "decimals": 18
            },
            {
                "address": "0xeeeeeeeeeeeeeeeeeeeeeeeeeeeeeeeeeeeeeeee",
                "decimals": 18
            }
        ]
    },
    "address_label": {
        "labels": [
            {
                "address": "0x2260fac5e5542a773aa44fbcfedf7c193bc2c599",
                "label": "Wrapped BTC: WBTC Token"
            },
            {
                "address": "0x0000000000000000000000000000000000000002",
                "label": "Precompiled"
            },
            {
                "address": "0x0000000000000000000000000000000000000004",
                "label": "Precompiled"
            },
            {
                "address": "0x4585fe77225b41b697c938b018e2ac67ac5a20c0",
                "label": "Uniswap V3: WBTC 2"
            },
            {
                "address": "0xa57bd00134b2850b2a1c55860c9e9ea100fdd6cf",
                "label": "MEV Bot: 0xa57...6CF"
            },
            {
                "address": "0xe592427a0aece92de3edee1f18e0157c05861564",
                "label": "Uniswap V3: Router"
            },
            {
                "address": "0x0000000000000000000000000000000000000001",
                "label": "Precompiled"
            },
            {
                "address": "0x0000000000000000000000000000000000000003",
                "label": "Precompiled"
            },
            {
                "address": "0xeeeeeeeeeeeeeeeeeeeeeeeeeeeeeeeeeeeeeeee",
                "label": "Ether"
            },
            {
                "address": "0xc02aaa39b223fe8d0a0e5c4f27ead9083c756cc2",
                "label": "Wrapped Ether (WETH)"
            }
        ]
    },
    "trace": {
        "accountLabels": null,
        "dataMap": {
            "-1": {
                "invocation": {
                    "address": "0xd248711655893f8bf0ccf44eeee4702cda9e7ba9",
                    "callData": "",
                    "decodedMethod": null,
                    "errorInfo": "",
                    "fromAddress": "",
                    "gasUsed": 0,
                    "id": -1,
                    "methodDecoded": false,
                    "operation": "",
                    "output": "",
                    "revert": false,
                    "revertMessage": "",
                    "selector": "",
                    "status": false,
                    "value": ""
                },
                "nodeType": 0
            },
            "0": {
                "invocation": {
                    "address": "0xa57bd00134b2850b2a1c55860c9e9ea100fdd6cf",
                    "callData": "0x0000000000000000000000008d5a5abf5b2c0755e87347db30b07850ddb22ba1000000000000000000000000000000000000000000000000000000000000004000000000000000000000000000000000000000000000000000000000000001841a0a1ebc00000000000000000000000000000000000000000000000000000000000001f4000000000000000000000000c02aaa39b223fe8d0a0e5c4f27ead9083c756cc20000000000000000000000002260fac5e5542a773aa44fbcfedf7c193bc2c59900000000000000000000000056178a0d5f301baf6cf3e1cd53d9863437345bf9000000000000000000000000000000000000000000000000002386f26fc100000000000000000000000000000000000000000000000000a2a15d09519be000000000000000000000000000000000000000000000000d32acadd7c89470aa700000000000000000000000000000000000000000000000000000186bc68fb8b800000000000000000000000000000000000005d246e462e7853eeda1611eb900800000000000000000000000000000000000000000000000000de0b6b3a764000000000000000000000000000000000000000000000000000000000000610bc4e2000000000000000000000000000000000000000000000000000000000000000000000000000000000000000000000000000000000000000000000000",
                    "decodedMethod": {
                        "callParams": [
                            {
                                "name": "_target",
                                "type": "address",
                                "value": "0x8d5a5abf5b2c0755e87347db30b07850ddb22ba1"
                            },
                            {
                                "name": "_data",
                                "type": "bytes",
                                "value": "0x1a0a1ebc00000000000000000000000000000000000000000000000000000000000001f4000000000000000000000000c02aaa39b223fe8d0a0e5c4f27ead9083c756cc20000000000000000000000002260fac5e5542a773aa44fbcfedf7c193bc2c59900000000000000000000000056178a0d5f301baf6cf3e1cd53d9863437345bf9000000000000000000000000000000000000000000000000002386f26fc100000000000000000000000000000000000000000000000000a2a15d09519be000000000000000000000000000000000000000000000000d32acadd7c89470aa700000000000000000000000000000000000000000000000000000186bc68fb8b800000000000000000000000000000000000005d246e462e7853eeda1611eb900800000000000000000000000000000000000000000000000000de0b6b3a764000000000000000000000000000000000000000000000000000000000000610bc4e20000000000000000000000000000000000000000000000000000000000000000"
                            }
                        ],
                        "constructorArguments": "",
                        "name": "execute",
                        "returnParams": [],
                        "signature": "execute(address,bytes)"
                    },
                    "errorInfo": "",
                    "fromAddress": "0xd248711655893f8bf0ccf44eeee4702cda9e7ba9",
                    "gasUsed": 248143,
                    "id": 0,
                    "methodDecoded": true,
                    "operation": "CALL",
                    "output": "",
                    "revert": false,
                    "revertMessage": "",
                    "selector": "0x1cff79cd",
                    "status": true,
                    "value": "0"
                },
                "nodeType": 0
            },
            "1": {
                "invocation": {
                    "address": "0x8d5a5abf5b2c0755e87347db30b07850ddb22ba1",
                    "callData": "0x00000000000000000000000000000000000000000000000000000000000001f4000000000000000000000000c02aaa39b223fe8d0a0e5c4f27ead9083c756cc20000000000000000000000002260fac5e5542a773aa44fbcfedf7c193bc2c59900000000000000000000000056178a0d5f301baf6cf3e1cd53d9863437345bf9000000000000000000000000000000000000000000000000002386f26fc100000000000000000000000000000000000000000000000000a2a15d09519be000000000000000000000000000000000000000000000000d32acadd7c89470aa700000000000000000000000000000000000000000000000000000186bc68fb8b800000000000000000000000000000000000005d246e462e7853eeda1611eb900800000000000000000000000000000000000000000000000000de0b6b3a764000000000000000000000000000000000000000000000000000000000000610bc4e20000000000000000000000000000000000000000000000000000000000000000",
                    "decodedMethod": null,
                    "errorInfo": "",
                    "fromAddress": "0xa57bd00134b2850b2a1c55860c9e9ea100fdd6cf",
                    "gasUsed": 237714,
                    "id": 1,
                    "methodDecoded": false,
                    "operation": "DELEGATECALL",
                    "output": "0x0000000000000000000000000000000000000000000000000000000004bd1523000000000000000000000000000000000000000000000000003676310059b104",
                    "revert": false,
                    "revertMessage": "",
                    "selector": "0x1a0a1ebc",
                    "status": true,
                    "value": "0"
                },
                "nodeType": 0
            },
            "10": {
                "invocation": {
                    "address": "0x2260fac5e5542a773aa44fbcfedf7c193bc2c599",
                    "callData": "0x00000000000000000000000056178a0d5f301baf6cf3e1cd53d9863437345bf9000000000000000000000000a57bd00134b2850b2a1c55860c9e9ea100fdd6cf0000000000000000000000000000000000000000000000000000000004bd1523",
                    "decodedMethod": {
                        "callParams": [
                            {
                                "name": "_from",
                                "type": "address",
                                "value": "0x56178a0d5f301baf6cf3e1cd53d9863437345bf9"
                            },
                            {
                                "name": "_to",
                                "type": "address",
                                "value": "0xa57bd00134b2850b2a1c55860c9e9ea100fdd6cf"
                            },
                            {
                                "decimalAvailable": true,
                                "name": "_value",
                                "type": "uint256",
                                "value": "79,500,579"
                            }
                        ],
                        "constructorArguments": "",
                        "name": "transferFrom",
                        "returnParams": [
                            {
                                "name": "",
                                "type": "bool",
                                "value": true
                            }
                        ],
                        "signature": "transferFrom(address,address,uint256)"
                    },
                    "errorInfo": "",
                    "fromAddress": "0xa57bd00134b2850b2a1c55860c9e9ea100fdd6cf",
                    "gasUsed": 36470,
                    "id": 10,
                    "methodDecoded": true,
                    "operation": "CALL",
                    "output": "0x0000000000000000000000000000000000000000000000000000000000000001",
                    "revert": false,
                    "revertMessage": "",
                    "selector": "0x23b872dd",
                    "status": true,
                    "value": "0"
                },
                "nodeType": 0
            },
            "11": {
                "event": {
                    "contract": "0x2260fac5e5542a773aa44fbcfedf7c193bc2c599",
                    "decodedLog": {
                        "name": "Transfer",
                        "params": [
                            {
                                "name": "from",
                                "type": "address",
                                "value": "0x56178a0d5f301baf6cf3e1cd53d9863437345bf9"
                            },
                            {
                                "name": "to",
                                "type": "address",
                                "value": "0xa57bd00134b2850b2a1c55860c9e9ea100fdd6cf"
                            },
                            {
                                "decimalAvailable": true,
                                "name": "value",
                                "type": "uint256",
                                "value": "79,500,579"
                            }
                        ],
                        "signature": "Transfer(address,address,uint256)"
                    },
                    "id": 11,
                    "logData": "0x0000000000000000000000000000000000000000000000000000000004bd1523",
                    "logDecoded": true,
                    "operation": "EVENT",
                    "revert": false,
                    "status": true,
                    "topics": [
                        "0xddf252ad1be2c89b69c2b068fc378daa952ba7f163c4a11628f55a4df523b3ef",
                        "0x00000000000000000000000056178a0d5f301baf6cf3e1cd53d9863437345bf9",
                        "0x000000000000000000000000a57bd00134b2850b2a1c55860c9e9ea100fdd6cf"
                    ]
                },
                "nodeType": 1
            },
            "12": {
                "invocation": {
                    "address": "0xe592427a0aece92de3edee1f18e0157c05861564",
                    "callData": "0x0000000000000000000000002260fac5e5542a773aa44fbcfedf7c193bc2c599000000000000000000000000c02aaa39b223fe8d0a0e5c4f27ead9083c756cc200000000000000000000000000000000000000000000000000000000000001f400000000000000000000000056178a0d5f301baf6cf3e1cd53d9863437345bf900000000000000000000000000000000000000000000000000000000610bc4e20000000000000000000000000000000000000000000000000000000004bd1523000000000000000000000000000000000000000000000000a081299d32045069000000000000000000000000000000000005d246e462e7853eeda1611eb90080",
                    "decodedMethod": {
                        "callParams": [
                            {
                                "name": "params",
                                "type": "(address,address,uint24,address,uint256,uint256,uint256,uint160)",
                                "value": [
                                    {
                                        "name": "tokenIn",
                                        "type": "address",
                                        "value": "0x2260fac5e5542a773aa44fbcfedf7c193bc2c599"
                                    },
                                    {
                                        "name": "tokenOut",
                                        "type": "address",
                                        "value": "0xc02aaa39b223fe8d0a0e5c4f27ead9083c756cc2"
                                    },
                                    {
                                        "name": "fee",
                                        "type": "uint24",
                                        "value": "500"
                                    },
                                    {
                                        "name": "recipient",
                                        "type": "address",
                                        "value": "0x56178a0d5f301baf6cf3e1cd53d9863437345bf9"
                                    },
                                    {
                                        "name": "deadline",
                                        "type": "uint256",
                                        "value": "1,628,161,250"
                                    },
                                    {
                                        "name": "amountIn",
                                        "type": "uint256",
                                        "value": "79,500,579"
                                    },
                                    {
                                        "name": "amountOutMinimum",
                                        "type": "uint256",
                                        "value": "11,565,571,073,189,892,201"
                                    },
                                    {
                                        "name": "sqrtPriceLimitX96",
                                        "type": "uint160",
                                        "value": "30,226,406,962,967,281,633,184,810,610,000,000"
                                    }
                                ]
                            }
                        ],
                        "constructorArguments": "",
                        "name": "exactInputSingle",
                        "returnParams": [
                            {
                                "name": "amountOut",
                                "type": "uint256",
                                "value": "11,580,900,674,763,620,717"
                            }
                        ],
                        "signature": "exactInputSingle((address,address,uint24,address,uint256,uint256,uint256,uint160))"
                    },
                    "errorInfo": "",
                    "fromAddress": "0xa57bd00134b2850b2a1c55860c9e9ea100fdd6cf",
                    "gasUsed": 77334,
                    "id": 12,
                    "methodDecoded": true,
                    "operation": "CALL",
                    "output": "0x000000000000000000000000000000000000000000000000a0b79fce325e016d",
                    "revert": false,
                    "revertMessage": "",
                    "selector": "0x414bf389",
                    "status": true,
                    "value": "0"
                },
                "nodeType": 0
            },
            "13": {
                "invocation": {
                    "address": "0x4585fe77225b41b697c938b018e2ac67ac5a20c0",
                    "callData": "0x00000000000000000000000056178a0d5f301baf6cf3e1cd53d9863437345bf900000000000000000000000000000000000000000000000000000000000000010000000000000000000000000000000000000000000000000000000004bd1523000000000000000000000000000000000005d246e462e7853eeda1611eb9008000000000000000000000000000000000000000000000000000000000000000a000000000000000000000000000000000000000000000000000000000000000c000000000000000000000000000000000000000000000000000000000000000200000000000000000000000000000000000000000000000000000000000000040000000000000000000000000a57bd00134b2850b2a1c55860c9e9ea100fdd6cf000000000000000000000000000000000000000000000000000000000000002b2260fac5e5542a773aa44fbcfedf7c193bc2c5990001f4c02aaa39b223fe8d0a0e5c4f27ead9083c756cc2000000000000000000000000000000000000000000",
                    "decodedMethod": {
                        "callParams": [
                            {
                                "name": "recipient",
                                "type": "address",
                                "value": "0x56178a0d5f301baf6cf3e1cd53d9863437345bf9"
                            },
                            {
                                "name": "zeroForOne",
                                "type": "bool",
                                "value": true
                            },
                            {
                                "name": "amountSpecified",
                                "type": "int256",
                                "value": "79,500,579"
                            },
                            {
                                "name": "sqrtPriceLimitX96",
                                "type": "uint160",
                                "value": "30,226,406,962,967,281,633,184,810,610,000,000"
                            },
                            {
                                "name": "data",
                                "type": "bytes",
                                "value": "0x00000000000000000000000000000000000000000000000000000000000000200000000000000000000000000000000000000000000000000000000000000040000000000000000000000000a57bd00134b2850b2a1c55860c9e9ea100fdd6cf000000000000000000000000000000000000000000000000000000000000002b2260fac5e5542a773aa44fbcfedf7c193bc2c5990001f4c02aaa39b223fe8d0a0e5c4f27ead9083c756cc2000000000000000000000000000000000000000000"
                            }
                        ],
                        "constructorArguments": "",
                        "name": "swap",
                        "returnParams": [
                            {
                                "name": "amount0",
                                "type": "int256",
                                "value": "79,500,579"
                            },
                            {
                                "name": "amount1",
                                "type": "int256",
                                "value": "-11,580,900,674,763,620,717"
                            }
                        ],
                        "signature": "swap(address,bool,int256,uint160,bytes)"
                    },
                    "errorInfo": "",
                    "fromAddress": "0xe592427a0aece92de3edee1f18e0157c05861564",
                    "gasUsed": 72409,
                    "id": 13,
                    "methodDecoded": true,
                    "operation": "CALL",
                    "output": "0x0000000000000000000000000000000000000000000000000000000004bd1523ffffffffffffffffffffffffffffffffffffffffffffffff5f486031cda1fe93",
                    "revert": false,
                    "revertMessage": "",
                    "selector": "0x128acb08",
                    "status": true,
                    "value": "0"
                },
                "nodeType": 0
            },
            "14": {
                "invocation": {
                    "address": "0xc02aaa39b223fe8d0a0e5c4f27ead9083c756cc2",
                    "callData": "0x00000000000000000000000056178a0d5f301baf6cf3e1cd53d9863437345bf9000000000000000000000000000000000000000000000000a0b79fce325e016d",
                    "decodedMethod": {
                        "callParams": [
                            {
                                "name": "dst",
                                "type": "address",
                                "value": "0x56178a0d5f301baf6cf3e1cd53d9863437345bf9"
                            },
                            {
                                "decimalAvailable": true,
                                "name": "wad",
                                "type": "uint256",
                                "value": "11,580,900,674,763,620,717"
                            }
                        ],
                        "constructorArguments": "",
                        "name": "transfer",
                        "returnParams": [
                            {
                                "name": "",
                                "type": "bool",
                                "value": true
                            }
                        ],
                        "signature": "transfer(address,uint256)"
                    },
                    "errorInfo": "",
                    "fromAddress": "0x4585fe77225b41b697c938b018e2ac67ac5a20c0",
                    "gasUsed": 10862,
                    "id": 14,
                    "methodDecoded": true,
                    "operation": "CALL",
                    "output": "0x0000000000000000000000000000000000000000000000000000000000000001",
                    "revert": false,
                    "revertMessage": "",
                    "selector": "0xa9059cbb",
                    "status": true,
                    "value": "0"
                },
                "nodeType": 0
            },
            "15": {
                "event": {
                    "contract": "0xc02aaa39b223fe8d0a0e5c4f27ead9083c756cc2",
                    "decodedLog": {
                        "name": "Transfer",
                        "params": [
                            {
                                "name": "src",
                                "type": "address",
                                "value": "0x4585fe77225b41b697c938b018e2ac67ac5a20c0"
                            },
                            {
                                "name": "dst",
                                "type": "address",
                                "value": "0x56178a0d5f301baf6cf3e1cd53d9863437345bf9"
                            },
                            {
                                "decimalAvailable": true,
                                "name": "wad",
                                "type": "uint256",
                                "value": "11,580,900,674,763,620,717"
                            }
                        ],
                        "signature": "Transfer(address,address,uint256)"
                    },
                    "id": 15,
                    "logData": "0x000000000000000000000000000000000000000000000000a0b79fce325e016d",
                    "logDecoded": true,
                    "operation": "EVENT",
                    "revert": false,
                    "status": true,
                    "topics": [
                        "0xddf252ad1be2c89b69c2b068fc378daa952ba7f163c4a11628f55a4df523b3ef",
                        "0x0000000000000000000000004585fe77225b41b697c938b018e2ac67ac5a20c0",
                        "0x00000000000000000000000056178a0d5f301baf6cf3e1cd53d9863437345bf9"
                    ]
                },
                "nodeType": 1
            },
            "16": {
                "invocation": {
                    "address": "0x2260fac5e5542a773aa44fbcfedf7c193bc2c599",
                    "callData": "0x0000000000000000000000004585fe77225b41b697c938b018e2ac67ac5a20c0",
                    "decodedMethod": {
                        "callParams": [
                            {
                                "name": "_owner",
                                "type": "address",
                                "value": "0x4585fe77225b41b697c938b018e2ac67ac5a20c0"
                            }
                        ],
                        "constructorArguments": "",
                        "name": "balanceOf",
                        "returnParams": [
                            {
                                "decimalAvailable": true,
                                "name": "",
                                "type": "uint256",
                                "value": "33,531,202,068"
                            }
                        ],
                        "signature": "balanceOf(address)"
                    },
                    "errorInfo": "",
                    "fromAddress": "0x4585fe77225b41b697c938b018e2ac67ac5a20c0",
                    "gasUsed": 2795,
                    "id": 16,
                    "methodDecoded": true,
                    "operation": "STATICCALL",
                    "output": "0x00000000000000000000000000000000000000000000000000000007ce9d8a14",
                    "revert": false,
                    "revertMessage": "",
                    "selector": "0x70a08231",
                    "status": true,
                    "value": "0"
                },
                "nodeType": 0
            },
            "17": {
                "invocation": {
                    "address": "0xe592427a0aece92de3edee1f18e0157c05861564",
                    "callData": "0x0000000000000000000000000000000000000000000000000000000004bd1523ffffffffffffffffffffffffffffffffffffffffffffffff5f486031cda1fe93000000000000000000000000000000000000000000000000000000000000006000000000000000000000000000000000000000000000000000000000000000c000000000000000000000000000000000000000000000000000000000000000200000000000000000000000000000000000000000000000000000000000000040000000000000000000000000a57bd00134b2850b2a1c55860c9e9ea100fdd6cf000000000000000000000000000000000000000000000000000000000000002b2260fac5e5542a773aa44fbcfedf7c193bc2c5990001f4c02aaa39b223fe8d0a0e5c4f27ead9083c756cc2000000000000000000000000000000000000000000",
                    "decodedMethod": {
                        "callParams": [
                            {
                                "name": "amount0Delta",
                                "type": "int256",
                                "value": "79,500,579"
                            },
                            {
                                "name": "amount1Delta",
                                "type": "int256",
                                "value": "-11,580,900,674,763,620,717"
                            },
                            {
                                "name": "_data",
                                "type": "bytes",
                                "value": "0x00000000000000000000000000000000000000000000000000000000000000200000000000000000000000000000000000000000000000000000000000000040000000000000000000000000a57bd00134b2850b2a1c55860c9e9ea100fdd6cf000000000000000000000000000000000000000000000000000000000000002b2260fac5e5542a773aa44fbcfedf7c193bc2c5990001f4c02aaa39b223fe8d0a0e5c4f27ead9083c756cc2000000000000000000000000000000000000000000"
                            }
                        ],
                        "constructorArguments": "",
                        "name": "uniswapV3SwapCallback",
                        "returnParams": [],
                        "signature": "uniswapV3SwapCallback(int256,int256,bytes)"
                    },
                    "errorInfo": "",
                    "fromAddress": "0x4585fe77225b41b697c938b018e2ac67ac5a20c0",
                    "gasUsed": 16626,
                    "id": 17,
                    "methodDecoded": true,
                    "operation": "CALL",
                    "output": "",
                    "revert": false,
                    "revertMessage": "",
                    "selector": "0xfa461e33",
                    "status": true,
                    "value": "0"
                },
                "nodeType": 0
            },
            "18": {
                "invocation": {
                    "address": "0x2260fac5e5542a773aa44fbcfedf7c193bc2c599",
                    "callData": "0x000000000000000000000000a57bd00134b2850b2a1c55860c9e9ea100fdd6cf0000000000000000000000004585fe77225b41b697c938b018e2ac67ac5a20c00000000000000000000000000000000000000000000000000000000004bd1523",
                    "decodedMethod": {
                        "callParams": [
                            {
                                "name": "_from",
                                "type": "address",
                                "value": "0xa57bd00134b2850b2a1c55860c9e9ea100fdd6cf"
                            },
                            {
                                "name": "_to",
                                "type": "address",
                                "value": "0x4585fe77225b41b697c938b018e2ac67ac5a20c0"
                            },
                            {
                                "decimalAvailable": true,
                                "name": "_value",
                                "type": "uint256",
                                "value": "79,500,579"
                            }
                        ],
                        "constructorArguments": "",
                        "name": "transferFrom",
                        "returnParams": [
                            {
                                "name": "",
                                "type": "bool",
                                "value": true
                            }
                        ],
                        "signature": "transferFrom(address,address,uint256)"
                    },
                    "errorInfo": "",
                    "fromAddress": "0xe592427a0aece92de3edee1f18e0157c05861564",
                    "gasUsed": 12570,
                    "id": 18,
                    "methodDecoded": true,
                    "operation": "CALL",
                    "output": "0x0000000000000000000000000000000000000000000000000000000000000001",
                    "revert": false,
                    "revertMessage": "",
                    "selector": "0x23b872dd",
                    "status": true,
                    "value": "0"
                },
                "nodeType": 0
            },
            "19": {
                "event": {
                    "contract": "0x2260fac5e5542a773aa44fbcfedf7c193bc2c599",
                    "decodedLog": {
                        "name": "Transfer",
                        "params": [
                            {
                                "name": "from",
                                "type": "address",
                                "value": "0xa57bd00134b2850b2a1c55860c9e9ea100fdd6cf"
                            },
                            {
                                "name": "to",
                                "type": "address",
                                "value": "0x4585fe77225b41b697c938b018e2ac67ac5a20c0"
                            },
                            {
                                "decimalAvailable": true,
                                "name": "value",
                                "type": "uint256",
                                "value": "79,500,579"
                            }
                        ],
                        "signature": "Transfer(address,address,uint256)"
                    },
                    "id": 19,
                    "logData": "0x0000000000000000000000000000000000000000000000000000000004bd1523",
                    "logDecoded": true,
                    "operation": "EVENT",
                    "revert": false,
                    "status": true,
                    "topics": [
                        "0xddf252ad1be2c89b69c2b068fc378daa952ba7f163c4a11628f55a4df523b3ef",
                        "0x000000000000000000000000a57bd00134b2850b2a1c55860c9e9ea100fdd6cf",
                        "0x0000000000000000000000004585fe77225b41b697c938b018e2ac67ac5a20c0"
                    ]
                },
                "nodeType": 1
            },
            "2": {
                "invocation": {
                    "address": "0x2260fac5e5542a773aa44fbcfedf7c193bc2c599",
                    "callData": "0x00000000000000000000000056178a0d5f301baf6cf3e1cd53d9863437345bf9",
                    "decodedMethod": {
                        "callParams": [
                            {
                                "name": "_owner",
                                "type": "address",
                                "value": "0x56178a0d5f301baf6cf3e1cd53d9863437345bf9"
                            }
                        ],
                        "constructorArguments": "",
                        "name": "balanceOf",
                        "returnParams": [
                            {
                                "decimalAvailable": true,
                                "name": "",
                                "type": "uint256",
                                "value": "14,262,403,380"
                            }
                        ],
                        "signature": "balanceOf(address)"
                    },
                    "errorInfo": "",
                    "fromAddress": "0xa57bd00134b2850b2a1c55860c9e9ea100fdd6cf",
                    "gasUsed": 2795,
                    "id": 2,
                    "methodDecoded": true,
                    "operation": "CALL",
                    "output": "0x00000000000000000000000000000000000000000000000000000003521b0134",
                    "revert": false,
                    "revertMessage": "",
                    "selector": "0x70a08231",
                    "status": true,
                    "value": "0"
                },
                "nodeType": 0
            },
            "20": {
                "invocation": {
                    "address": "0x2260fac5e5542a773aa44fbcfedf7c193bc2c599",
                    "callData": "0x0000000000000000000000004585fe77225b41b697c938b018e2ac67ac5a20c0",
                    "decodedMethod": {
                        "callParams": [
                            {
                                "name": "_owner",
                                "type": "address",
                                "value": "0x4585fe77225b41b697c938b018e2ac67ac5a20c0"
                            }
                        ],
                        "constructorArguments": "",
                        "name": "balanceOf",
                        "returnParams": [
                            {
                                "decimalAvailable": true,
                                "name": "",
                                "type": "uint256",
                                "value": "33,610,702,647"
                            }
                        ],
                        "signature": "balanceOf(address)"
                    },
                    "errorInfo": "",
                    "fromAddress": "0x4585fe77225b41b697c938b018e2ac67ac5a20c0",
                    "gasUsed": 795,
                    "id": 20,
                    "methodDecoded": true,
                    "operation": "STATICCALL",
                    "output": "0x00000000000000000000000000000000000000000000000000000007d35a9f37",
                    "revert": false,
                    "revertMessage": "",
                    "selector": "0x70a08231",
                    "status": true,
                    "value": "0"
                },
                "nodeType": 0
            },
            "21": {
                "event": {
                    "contract": "0x4585fe77225b41b697c938b018e2ac67ac5a20c0",
                    "decodedLog": {
                        "name": "Swap",
                        "params": [
                            {
                                "name": "sender",
                                "type": "address",
                                "value": "0xe592427a0aece92de3edee1f18e0157c05861564"
                            },
                            {
                                "name": "recipient",
                                "type": "address",
                                "value": "0x56178a0d5f301baf6cf3e1cd53d9863437345bf9"
                            },
                            {
                                "name": "amount0",
                                "type": "int256",
                                "value": "79,500,579"
                            },
                            {
                                "name": "amount1",
                                "type": "int256",
                                "value": "-11,580,900,674,763,620,717"
                            },
                            {
                                "name": "sqrtPriceX96",
                                "type": "uint160",
                                "value": "30,241,494,623,529,773,602,401,467,884,367,613"
                            },
                            {
                                "name": "liquidity",
                                "type": "uint128",
                                "value": "92,833,156,463,242,834"
                            },
                            {
                                "name": "tick",
                                "type": "int24",
                                "value": "257,060"
                            }
                        ],
                        "signature": "Swap(address,address,int256,int256,uint160,uint128,int24)"
                    },
                    "id": 21,
                    "logData": "0x0000000000000000000000000000000000000000000000000000000004bd1523ffffffffffffffffffffffffffffffffffffffffffffffff5f486031cda1fe93000000000000000000000000000000000005d305533f35e020fcbbcfb9ffeefd0000000000000000000000000000000000000000000000000149cf43925eae52000000000000000000000000000000000000000000000000000000000003ec24",
                    "logDecoded": true,
                    "operation": "EVENT",
                    "revert": false,
                    "status": true,
                    "topics": [
                        "0xc42079f94a6350d7e6235f29174924f928cc2ac818eb64fed8004e115fbcca67",
                        "0x000000000000000000000000e592427a0aece92de3edee1f18e0157c05861564",
                        "0x00000000000000000000000056178a0d5f301baf6cf3e1cd53d9863437345bf9"
                    ]
                },
                "nodeType": 1
            },
            "22": {
                "invocation": {
                    "address": "0xc02aaa39b223fe8d0a0e5c4f27ead9083c756cc2",
                    "callData": "0x00000000000000000000000056178a0d5f301baf6cf3e1cd53d9863437345bf9",
                    "decodedMethod": {
                        "callParams": [
                            {
                                "name": "",
                                "type": "address",
                                "value": "0x56178a0d5f301baf6cf3e1cd53d9863437345bf9"
                            }
                        ],
                        "constructorArguments": "",
                        "name": "balanceOf",
                        "returnParams": [
                            {
                                "decimalAvailable": true,
                                "name": "",
                                "type": "uint256",
                                "value": "13,110,718,572,690,065,470,729"
                            }
                        ],
                        "signature": "balanceOf(address)"
                    },
                    "errorInfo": "",
                    "fromAddress": "0xa57bd00134b2850b2a1c55860c9e9ea100fdd6cf",
                    "gasUsed": 534,
                    "id": 22,
                    "methodDecoded": true,
                    "operation": "CALL",
                    "output": "0x0000000000000000000000000000000000000000000002c6bbc5364c2bbe3509",
                    "revert": false,
                    "revertMessage": "",
                    "selector": "0x70a08231",
                    "status": true,
                    "value": "0"
                },
                "nodeType": 0
            },
            "3": {
                "invocation": {
                    "address": "0xc02aaa39b223fe8d0a0e5c4f27ead9083c756cc2",
                    "callData": "0x00000000000000000000000056178a0d5f301baf6cf3e1cd53d9863437345bf9",
                    "decodedMethod": {
                        "callParams": [
                            {
                                "name": "",
                                "type": "address",
                                "value": "0x56178a0d5f301baf6cf3e1cd53d9863437345bf9"
                            }
                        ],
                        "constructorArguments": "",
                        "name": "balanceOf",
                        "returnParams": [
                            {
                                "decimalAvailable": true,
                                "name": "",
                                "type": "uint256",
                                "value": "13,099,137,672,015,301,850,012"
                            }
                        ],
                        "signature": "balanceOf(address)"
                    },
                    "errorInfo": "",
                    "fromAddress": "0xa57bd00134b2850b2a1c55860c9e9ea100fdd6cf",
                    "gasUsed": 2534,
                    "id": 3,
                    "methodDecoded": true,
                    "operation": "CALL",
                    "output": "0x0000000000000000000000000000000000000000000002c61b0d967df960339c",
                    "revert": false,
                    "revertMessage": "",
                    "selector": "0x70a08231",
                    "status": true,
                    "value": "0"
                },
                "nodeType": 0
            },
            "4": {
                "invocation": {
                    "address": "0xa56006a9bc78fd64404b34d44f06d1141f8589be",
                    "callData": "0x0000000000000000000000002260fac5e5542a773aa44fbcfedf7c193bc2c599000000000000000000000000c02aaa39b223fe8d0a0e5c4f27ead9083c756cc200000000000000000000000000000000000000000000000000000000000001f400000000000000000000000000000000000000000000000000000003521b0133000000000000000000000000000000000005d246e462e7853eeda1611eb90080",
                    "decodedMethod": {
                        "callParams": [
                            {
                                "name": "tokenIn",
                                "type": "address",
                                "value": "0x2260fac5e5542a773aa44fbcfedf7c193bc2c599"
                            },
                            {
                                "name": "tokenOut",
                                "type": "address",
                                "value": "0xc02aaa39b223fe8d0a0e5c4f27ead9083c756cc2"
                            },
                            {
                                "name": "fee",
                                "type": "uint24",
                                "value": "500"
                            },
                            {
                                "name": "amountIn",
                                "type": "uint256",
                                "value": "14,262,403,379"
                            },
                            {
                                "name": "sqrtPriceLimitX96",
                                "type": "uint160",
                                "value": "30,226,406,962,967,281,633,184,810,610,000,000"
                            }
                        ],
                        "constructorArguments": "",
                        "name": "quoteExactInputSingle",
                        "returnParams": [
                            {
                                "name": "amountOut",
                                "type": "uint256",
                                "value": "187,427,920"
                            }
                        ],
                        "signature": "quoteExactInputSingle(address,address,uint24,uint256,uint160)"
                    },
                    "errorInfo": "",
                    "fromAddress": "0xa57bd00134b2850b2a1c55860c9e9ea100fdd6cf",
                    "gasUsed": 103593,
                    "id": 4,
                    "methodDecoded": true,
                    "operation": "CALL",
                    "output": "0x000000000000000000000000000000000000000000000000000000000b2bec500000000000000000000000000000000000000000000000017ab8fcdd137664de",
                    "revert": false,
                    "revertMessage": "",
                    "selector": "0xf7729d43",
                    "status": true,
                    "value": "0"
                },
                "nodeType": 0
            },
            "5": {
                "invocation": {
                    "address": "0x4585fe77225b41b697c938b018e2ac67ac5a20c0",
                    "callData": "0x000000000000000000000000a56006a9bc78fd64404b34d44f06d1141f8589be000000000000000000000000000000000000000000000000000000000000000100000000000000000000000000000000000000000000000000000003521b0133000000000000000000000000000000000005d246e462e7853eeda1611eb9008000000000000000000000000000000000000000000000000000000000000000a0000000000000000000000000000000000000000000000000000000000000002b2260fac5e5542a773aa44fbcfedf7c193bc2c5990001f4c02aaa39b223fe8d0a0e5c4f27ead9083c756cc2000000000000000000000000000000000000000000",
                    "decodedMethod": {
                        "callParams": [
                            {
                                "name": "recipient",
                                "type": "address",
                                "value": "0xa56006a9bc78fd64404b34d44f06d1141f8589be"
                            },
                            {
                                "name": "zeroForOne",
                                "type": "bool",
                                "value": true
                            },
                            {
                                "name": "amountSpecified",
                                "type": "int256",
                                "value": "14,262,403,379"
                            },
                            {
                                "name": "sqrtPriceLimitX96",
                                "type": "uint160",
                                "value": "30,226,406,962,967,281,633,184,810,610,000,000"
                            },
                            {
                                "name": "data",
                                "type": "bytes",
                                "value": "0x2260fac5e5542a773aa44fbcfedf7c193bc2c5990001f4c02aaa39b223fe8d0a0e5c4f27ead9083c756cc2"
                            }
                        ],
                        "constructorArguments": "",
                        "name": "swap",
                        "returnParams": [],
                        "signature": "swap(address,bool,int256,uint160,bytes)"
                    },
                    "errorInfo": "execution reverted",
                    "fromAddress": "0xa56006a9bc78fd64404b34d44f06d1141f8589be",
                    "gasUsed": 98101,
                    "id": 5,
                    "methodDecoded": true,
                    "operation": "CALL",
                    "output": "0x000000000000000000000000000000000000000000000000000000000b2bec500000000000000000000000000000000000000000000000017ab8fcdd137664de",
                    "revert": true,
                    "revertMessage": "",
                    "selector": "0x128acb08",
                    "status": false,
                    "value": "0"
                },
                "nodeType": 0
            },
            "6": {
                "invocation": {
                    "address": "0xc02aaa39b223fe8d0a0e5c4f27ead9083c756cc2",
                    "callData": "0x000000000000000000000000a56006a9bc78fd64404b34d44f06d1141f8589be0000000000000000000000000000000000000000000000017ab8fcdd137664de",
                    "decodedMethod": {
                        "callParams": [
                            {
                                "name": "dst",
                                "type": "address",
                                "value": "0xa56006a9bc78fd64404b34d44f06d1141f8589be"
                            },
                            {
                                "decimalAvailable": true,
                                "name": "wad",
                                "type": "uint256",
                                "value": "27,289,839,968,496,018,654"
                            }
                        ],
                        "constructorArguments": "",
                        "name": "transfer",
                        "returnParams": [
                            {
                                "name": "",
                                "type": "bool",
                                "value": true
                            }
                        ],
                        "signature": "transfer(address,uint256)"
                    },
                    "errorInfo": "",
                    "fromAddress": "0x4585fe77225b41b697c938b018e2ac67ac5a20c0",
                    "gasUsed": 29962,
                    "id": 6,
                    "methodDecoded": true,
                    "operation": "CALL",
                    "output": "0x0000000000000000000000000000000000000000000000000000000000000001",
                    "revert": true,
                    "revertMessage": "",
                    "selector": "0xa9059cbb",
                    "status": true,
                    "value": "0"
                },
                "nodeType": 0
            },
            "7": {
                "event": {
                    "contract": "0xc02aaa39b223fe8d0a0e5c4f27ead9083c756cc2",
                    "decodedLog": {
                        "name": "Transfer",
                        "params": [
                            {
                                "name": "src",
                                "type": "address",
                                "value": "0x4585fe77225b41b697c938b018e2ac67ac5a20c0"
                            },
                            {
                                "name": "dst",
                                "type": "address",
                                "value": "0xa56006a9bc78fd64404b34d44f06d1141f8589be"
                            },
                            {
                                "decimalAvailable": true,
                                "name": "wad",
                                "type": "uint256",
                                "value": "27,289,839,968,496,018,654"
                            }
                        ],
                        "signature": "Transfer(address,address,uint256)"
                    },
                    "id": 7,
                    "logData": "0x0000000000000000000000000000000000000000000000017ab8fcdd137664de",
                    "logDecoded": true,
                    "operation": "EVENT",
                    "revert": true,
                    "status": false,
                    "topics": [
                        "0xddf252ad1be2c89b69c2b068fc378daa952ba7f163c4a11628f55a4df523b3ef",
                        "0x0000000000000000000000004585fe77225b41b697c938b018e2ac67ac5a20c0",
                        "0x000000000000000000000000a56006a9bc78fd64404b34d44f06d1141f8589be"
                    ]
                },
                "nodeType": 1
            },
            "8": {
                "invocation": {
                    "address": "0x2260fac5e5542a773aa44fbcfedf7c193bc2c599",
                    "callData": "0x0000000000000000000000004585fe77225b41b697c938b018e2ac67ac5a20c0",
                    "decodedMethod": {
                        "callParams": [
                            {
                                "name": "_owner",
                                "type": "address",
                                "value": "0x4585fe77225b41b697c938b018e2ac67ac5a20c0"
                            }
                        ],
                        "constructorArguments": "",
                        "name": "balanceOf",
                        "returnParams": [
                            {
                                "decimalAvailable": true,
                                "name": "",
                                "type": "uint256",
                                "value": "33,531,202,068"
                            }
                        ],
                        "signature": "balanceOf(address)"
                    },
                    "errorInfo": "",
                    "fromAddress": "0x4585fe77225b41b697c938b018e2ac67ac5a20c0",
                    "gasUsed": 2795,
                    "id": 8,
                    "methodDecoded": true,
                    "operation": "STATICCALL",
                    "output": "0x00000000000000000000000000000000000000000000000000000007ce9d8a14",
                    "revert": true,
                    "revertMessage": "",
                    "selector": "0x70a08231",
                    "status": true,
                    "value": "0"
                },
                "nodeType": 0
            },
            "9": {
                "invocation": {
                    "address": "0xa56006a9bc78fd64404b34d44f06d1141f8589be",
                    "callData": "0x000000000000000000000000000000000000000000000000000000000b2bec50fffffffffffffffffffffffffffffffffffffffffffffffe85470322ec899b220000000000000000000000000000000000000000000000000000000000000060000000000000000000000000000000000000000000000000000000000000002b2260fac5e5542a773aa44fbcfedf7c193bc2c5990001f4c02aaa39b223fe8d0a0e5c4f27ead9083c756cc2000000000000000000000000000000000000000000",
                    "decodedMethod": {
                        "callParams": [
                            {
                                "name": "amount0Delta",
                                "type": "int256",
                                "value": "187,427,920"
                            },
                            {
                                "name": "amount1Delta",
                                "type": "int256",
                                "value": "-27,289,839,968,496,018,654"
                            },
                            {
                                "name": "data",
                                "type": "bytes",
                                "value": "0x2260fac5e5542a773aa44fbcfedf7c193bc2c5990001f4c02aaa39b223fe8d0a0e5c4f27ead9083c756cc2"
                            }
                        ],
                        "constructorArguments": "",
                        "name": "uniswapV3SwapCallback",
                        "returnParams": [],
                        "signature": "uniswapV3SwapCallback(int256,int256,bytes)"
                    },
                    "errorInfo": "execution reverted",
                    "fromAddress": "0x4585fe77225b41b697c938b018e2ac67ac5a20c0",
                    "gasUsed": 748,
                    "id": 9,
                    "methodDecoded": true,
                    "operation": "CALL",
                    "output": "0x000000000000000000000000000000000000000000000000000000000b2bec500000000000000000000000000000000000000000000000017ab8fcdd137664de",
                    "revert": true,
                    "revertMessage": "",
                    "selector": "0xfa461e33",
                    "status": false,
                    "value": "0"
                },
                "nodeType": 0
            }
        },
        "gasFlame": [
            {
                "children": [
                    {
                        "children": [
                            {
                                "children": [],
                                "depth": 0,
                                "name": "Initial Gas",
                                "value": 24804
                            },
                            {
                                "children": [
                                    {
                                        "children": [
                                            {
                                                "children": [],
                                                "depth": 2,
                                                "name": "balanceOf",
                                                "value": 2795
                                            },
                                            {
                                                "children": [],
                                                "depth": 2,
                                                "name": "balanceOf",
                                                "value": 2534
                                            },
                                            {
                                                "children": [
                                                    {
                                                        "children": [
                                                            {
                                                                "children": [],
                                                                "depth": 4,
                                                                "name": "transfer",
                                                                "value": 29962
                                                            },
                                                            {
                                                                "children": [],
                                                                "depth": 4,
                                                                "name": "balanceOf",
                                                                "value": 2795
                                                            },
                                                            {
                                                                "children": [],
                                                                "depth": 4,
                                                                "name": "uniswapV3SwapCallback",
                                                                "value": 748
                                                            }
                                                        ],
                                                        "depth": 3,
                                                        "name": "swap",
                                                        "value": 98101
                                                    }
                                                ],
                                                "depth": 2,
                                                "name": "quoteExactInputSingle",
                                                "value": 103593
                                            },
                                            {
                                                "children": [],
                                                "depth": 2,
                                                "name": "transferFrom",
                                                "value": 36470
                                            },
                                            {
                                                "children": [
                                                    {
                                                        "children": [
                                                            {
                                                                "children": [],
                                                                "depth": 4,
                                                                "name": "transfer",
                                                                "value": 10862
                                                            },
                                                            {
                                                                "children": [],
                                                                "depth": 4,
                                                                "name": "balanceOf",
                                                                "value": 2795
                                                            },
                                                            {
                                                                "children": [
                                                                    {
                                                                        "children": [],
                                                                        "depth": 5,
                                                                        "name": "transferFrom",
                                                                        "value": 12570
                                                                    }
                                                                ],
                                                                "depth": 4,
                                                                "name": "uniswapV3SwapCallback",
                                                                "value": 16626
                                                            },
                                                            {
                                                                "children": [],
                                                                "depth": 4,
                                                                "name": "balanceOf",
                                                                "value": 795
                                                            }
                                                        ],
                                                        "depth": 3,
                                                        "name": "swap",
                                                        "value": 72409
                                                    }
                                                ],
                                                "depth": 2,
                                                "name": "exactInputSingle",
                                                "value": 77334
                                            },
                                            {
                                                "children": [],
                                                "depth": 2,
                                                "name": "balanceOf",
                                                "value": 534
                                            }
                                        ],
                                        "depth": 1,
                                        "name": "0x1a0a1ebc",
                                        "value": 237714
                                    }
                                ],
                                "depth": 0,
                                "name": "Executed Gas",
                                "value": 243239
                            }
                        ],
                        "depth": -1,
                        "name": "Actual Gas Used",
                        "value": 248143
                    },
                    {
                        "children": [],
                        "depth": -1,
                        "name": "Refunded Gas",
                        "value": 19900
                    }
                ],
                "depth": -2,
                "name": "Total Gas",
                "value": 268043
            }
        ],
        "isConfirmed": true,
        "mainTrace": [
            {
                "children": [
                    {
                        "children": [
                            {
                                "children": [
                                    {
                                        "children": [],
                                        "depth": 2,
                                        "id": 2,
                                        "order": 2
                                    },
                                    {
                                        "children": [],
                                        "depth": 2,
                                        "id": 3,
                                        "order": 3
                                    },
                                    {
                                        "children": [
                                            {
                                                "children": [
                                                    {
                                                        "children": [
                                                            {
                                                                "children": [],
                                                                "depth": 5,
                                                                "id": 7,
                                                                "order": 7
                                                            }
                                                        ],
                                                        "depth": 4,
                                                        "id": 6,
                                                        "order": 6
                                                    },
                                                    {
                                                        "children": [],
                                                        "depth": 4,
                                                        "id": 8,
                                                        "order": 8
                                                    },
                                                    {
                                                        "children": [],
                                                        "depth": 4,
                                                        "id": 9,
                                                        "order": 9
                                                    }
                                                ],
                                                "depth": 3,
                                                "id": 5,
                                                "order": 5
                                            }
                                        ],
                                        "depth": 2,
                                        "id": 4,
                                        "order": 4
                                    },
                                    {
                                        "children": [
                                            {
                                                "children": [],
                                                "depth": 3,
                                                "id": 11,
                                                "order": 11
                                            }
                                        ],
                                        "depth": 2,
                                        "id": 10,
                                        "order": 10
                                    },
                                    {
                                        "children": [
                                            {
                                                "children": [
                                                    {
                                                        "children": [
                                                            {
                                                                "children": [],
                                                                "depth": 5,
                                                                "id": 15,
                                                                "order": 15
                                                            }
                                                        ],
                                                        "depth": 4,
                                                        "id": 14,
                                                        "order": 14
                                                    },
                                                    {
                                                        "children": [],
                                                        "depth": 4,
                                                        "id": 16,
                                                        "order": 16
                                                    },
                                                    {
                                                        "children": [
                                                            {
                                                                "children": [
                                                                    {
                                                                        "children": [],
                                                                        "depth": 6,
                                                                        "id": 19,
                                                                        "order": 19
                                                                    }
                                                                ],
                                                                "depth": 5,
                                                                "id": 18,
                                                                "order": 18
                                                            }
                                                        ],
                                                        "depth": 4,
                                                        "id": 17,
                                                        "order": 17
                                                    },
                                                    {
                                                        "children": [],
                                                        "depth": 4,
                                                        "id": 20,
                                                        "order": 20
                                                    },
                                                    {
                                                        "children": [],
                                                        "depth": 4,
                                                        "id": 21,
                                                        "order": 21
                                                    }
                                                ],
                                                "depth": 3,
                                                "id": 13,
                                                "order": 13
                                            }
                                        ],
                                        "depth": 2,
                                        "id": 12,
                                        "order": 12
                                    },
                                    {
                                        "children": [],
                                        "depth": 2,
                                        "id": 22,
                                        "order": 22
                                    }
                                ],
                                "depth": 1,
                                "id": 1,
                                "order": 1
                            }
                        ],
                        "depth": 0,
                        "id": 0,
                        "order": 0
                    }
                ],
                "depth": -1,
                "id": -1,
                "order": -1
            }
        ],
        "mainTraceNodeCount": 23,
        "parentIdMap": {
            "0": -1,
            "1": 0,
            "10": 1,
            "11": 10,
            "12": 1,
            "13": 12,
            "14": 13,
            "15": 14,
            "16": 13,
            "17": 13,
            "18": 17,
            "19": 18,
            "2": 1,
            "20": 13,
            "21": 13,
            "22": 1,
            "3": 1,
            "4": 1,
            "5": 4,
            "6": 5,
            "7": 6,
            "8": 5,
            "9": 5
        },
        "tidyTrace": [
            {
                "children": [
                    {
                        "children": [
                            {
                                "children": [
                                    {
                                        "children": [],
                                        "depth": 2,
                                        "id": 2,
                                        "order": 2
                                    },
                                    {
                                        "children": [],
                                        "depth": 2,
                                        "id": 3,
                                        "order": 3
                                    },
                                    {
                                        "children": [
                                            {
                                                "children": [
                                                    {
                                                        "children": [
                                                            {
                                                                "children": [],
                                                                "depth": 5,
                                                                "id": 7,
                                                                "order": 7
                                                            }
                                                        ],
                                                        "depth": 4,
                                                        "id": 6,
                                                        "order": 6
                                                    },
                                                    {
                                                        "children": [],
                                                        "depth": 4,
                                                        "id": 9,
                                                        "order": 9
                                                    }
                                                ],
                                                "depth": 3,
                                                "id": 5,
                                                "order": 5
                                            }
                                        ],
                                        "depth": 2,
                                        "id": 4,
                                        "order": 4
                                    },
                                    {
                                        "children": [
                                            {
                                                "children": [],
                                                "depth": 3,
                                                "id": 11,
                                                "order": 11
                                            }
                                        ],
                                        "depth": 2,
                                        "id": 10,
                                        "order": 10
                                    },
                                    {
                                        "children": [
                                            {
                                                "children": [
                                                    {
                                                        "children": [
                                                            {
                                                                "children": [],
                                                                "depth": 5,
                                                                "id": 15,
                                                                "order": 15
                                                            }
                                                        ],
                                                        "depth": 4,
                                                        "id": 14,
                                                        "order": 14
                                                    },
                                                    {
                                                        "children": [
                                                            {
                                                                "children": [
                                                                    {
                                                                        "children": [],
                                                                        "depth": 6,
                                                                        "id": 19,
                                                                        "order": 19
                                                                    }
                                                                ],
                                                                "depth": 5,
                                                                "id": 18,
                                                                "order": 18
                                                            }
                                                        ],
                                                        "depth": 4,
                                                        "id": 17,
                                                        "order": 17
                                                    },
                                                    {
                                                        "children": [],
                                                        "depth": 4,
                                                        "id": 21,
                                                        "order": 21
                                                    }
                                                ],
                                                "depth": 3,
                                                "id": 13,
                                                "order": 13
                                            }
                                        ],
                                        "depth": 2,
                                        "id": 12,
                                        "order": 12
                                    },
                                    {
                                        "children": [],
                                        "depth": 2,
                                        "id": 22,
                                        "order": 22
                                    }
                                ],
                                "depth": 1,
                                "id": 1,
                                "order": 1
                            }
                        ],
                        "depth": 0,
                        "id": 0,
                        "order": 0
                    }
                ],
                "depth": -1,
                "id": -1,
                "order": -1
            }
        ],
        "tidyTraceNodeCount": 20
    },
    "state_change": {
        "stateChanges": [
            {
                "address": "0x2260fac5e5542a773aa44fbcfedf7c193bc2c599",
                "erc": "ERC-20",
                "slots": [
                    {
                        "current": "0x000000000000000000000000000000000000000000000000000000034d5dec11",
                        "key": "0xf7c84b5d1f3a0563cd20b346c00dcaaaf749870e80d340ce8dc6213863709a60",
                        "prev": "0x00000000000000000000000000000000000000000000000000000003521b0134"
                    },
                    {
                        "current": "0xffffffffffffffffffffffffffffffffffffffffffffffffffffd597ae3f6fa6",
                        "key": "0x631603854828263717f78aebdf44701ab316ae3c9d57ea74169f98df3affd293",
                        "prev": "0xffffffffffffffffffffffffffffffffffffffffffffffffffffd597b2fc84c9"
                    },
                    {
                        "current": "0x00000000000000000000000000000000000000000000000000000007d35a9f37",
                        "key": "0xdc276a4f120117ad5ae6415d1c724b4f3a0e81f0ee6466e1392ca121b63123f2",
                        "prev": "0x00000000000000000000000000000000000000000000000000000007ce9d8a14"
                    },
                    {
                        "current": "0xfffffffffffffffffffffffffffffffffffffffffffffffffffffdd5581c8876",
                        "key": "0xec7c9d4ecfe2dc691ec4ec650e6c05f8899752a0ca14a8a5b6bcbaed546f78e3",
                        "prev": "0xfffffffffffffffffffffffffffffffffffffffffffffffffffffdd55cd99d99"
                    }
                ],
                "storageVariables": [
                    {
                        "name": "balances",
                        "type": "mapping(address => uint256)",
                        "value": {
                            "pairs": [
                                {
                                    "key": "0x4585fe77225b41b697c938b018e2ac67ac5a20c0",
                                    "value": {
                                        "current": "33610702647",
                                        "prev": "33531202068",
                                        "typeTag": 1
                                    }
                                },
                                {
                                    "key": "0x56178a0d5f301baf6cf3e1cd53d9863437345bf9",
                                    "value": {
                                        "current": "14182902801",
                                        "prev": "14262403380",
                                        "typeTag": 1
                                    }
                                }
                            ],
                            "typeTag": 4
                        }
                    },
                    {
                        "name": "allowed",
                        "type": "mapping(address => mapping(address => uint256))",
                        "value": {
                            "pairs": [
                                {
                                    "key": "0x56178a0d5f301baf6cf3e1cd53d9863437345bf9",
                                    "value": {
                                        "pairs": [
                                            {
                                                "key": "0xa57bd00134b2850b2a1c55860c9e9ea100fdd6cf",
                                                "value": {
                                                    "current": "115792089237316195423570985008687907853269984665640564039457583961285593100198",
                                                    "prev": "115792089237316195423570985008687907853269984665640564039457583961285672600777",
                                                    "typeTag": 1
                                                }
                                            }
                                        ],
                                        "typeTag": 4
                                    }
                                },
                                {
                                    "key": "0xa57bd00134b2850b2a1c55860c9e9ea100fdd6cf",
                                    "value": {
                                        "pairs": [
                                            {
                                                "key": "0xe592427a0aece92de3edee1f18e0157c05861564",
                                                "value": {
                                                    "current": "115792089237316195423570985008687907853269984665640564039457584005530901055606",
                                                    "prev": "115792089237316195423570985008687907853269984665640564039457584005530980556185",
                                                    "typeTag": 1
                                                }
                                            }
                                        ],
                                        "typeTag": 4
                                    }
                                }
                            ],
                            "typeTag": 4
                        }
                    }
                ]
            },
            {
                "address": "0x4585fe77225b41b697c938b018e2ac67ac5a20c0",
                "erc": "",
                "slots": [
                    {
                        "current": "0x000100000a000a000603ec24000000000005d305533f35e020fcbbcfb9ffeefd",
                        "key": "0x0000000000000000000000000000000000000000000000000000000000000000",
                        "prev": "0x000100000a000a000503ec2b000000000005d3821326152aadfc42fd062ea395"
                    },
                    {
                        "current": "0x010000000000000bf84023151426a6906ae134b7620001dab852fb43610bc450",
                        "key": "0x000000000000000000000000000000000000000000000000000000000000000e",
                        "prev": "0x010000000000000bf8402185b41b3724b343a725480001dab0922ee7610bc256"
                    },
                    {
                        "current": "0x00000000000000000000000000000000000000471eeaf74b3babe9ef6b96badf",
                        "key": "0x0000000000000000000000000000000000000000000000000000000000000001",
                        "prev": "0x00000000000000000000000000000000000000471e72705abc996a5190e3166d"
                    }
                ],
                "storageVariables": []
            },
            {
                "address": "0xc02aaa39b223fe8d0a0e5c4f27ead9083c756cc2",
                "erc": "ERC-20",
                "slots": [
                    {
                        "current": "0x000000000000000000000000000000000000000000000073750fbe9d61ab84bb",
                        "key": "0x9ede93be0d8fc6a5eb9cf1c7345a85b7519d8487a727aef0c2f00ab966aa7716",
                        "prev": "0x00000000000000000000000000000000000000000000007415c75e6b94098628"
                    },
                    {
                        "current": "0x0000000000000000000000000000000000000000000002c6bbc5364c2bbe3509",
                        "key": "0x30bd84b96629f958113934633d3bd1b64c3d259a85c57ceac65da8c5ec9bf3a7",
                        "prev": "0x0000000000000000000000000000000000000000000002c61b0d967df960339c"
                    }
                ],
                "storageVariables": [
                    {
                        "name": "balanceOf",
                        "type": "mapping(address => uint256)",
                        "value": {
                            "pairs": [
                                {
                                    "key": "0x4585fe77225b41b697c938b018e2ac67ac5a20c0",
                                    "value": {
                                        "current": "2129810738686844437691",
                                        "prev": "2141391639361608058408",
                                        "typeTag": 1
                                    }
                                },
                                {
                                    "key": "0x56178a0d5f301baf6cf3e1cd53d9863437345bf9",
                                    "value": {
                                        "current": "13110718572690065470729",
                                        "prev": "13099137672015301850012",
                                        "typeTag": 1
                                    }
                                }
                            ],
                            "typeTag": 4
                        }
                    }
                ]
            }
        ]
    }
}