{
    "balance_change": {
        "balanceChanges": [
            {
                "account": "0xae6f5b27965f1638d23d3989601a57727a659500",
                "assets": [
                    {
                        "address": "0xa15c7ebe1f07caf6bff097d8a589fb8ac49ae5b3",
                        "amount": "26,978.32800117",
                        "iconUrl": "",
                        "isERC1155": false,
                        "isERC721": false,
                        "sign": false,
                        "value": ""
                    }
                ]
            },
            {
                "account": "0x3c02290922a3618a4646e3bbca65853ea45fe7c6",
                "assets": [
                    {
                        "address": "0xa15c7ebe1f07caf6bff097d8a589fb8ac49ae5b3",
                        "amount": "26,978.32800117",
                        "iconUrl": "",
                        "isERC1155": false,
                        "isERC721": false,
                        "sign": true,
                        "value": ""
                    }
                ]
            }
        ]
    },
    "profile": {
        "basic_info": {
            "baseFee": "",
            "blockNumber": 8684329,
            "callData": "0xa9059cbb0000000000000000000000003c02290922a3618a4646e3bbca65853ea45fe7c60000000000000000000000000000000000000000000005b67f82ebc1a00b3400",
            "debugEnable": true,
            "errorInfo": "",
            "eventCount": 1,
            "feeRecipient": "0x9d6d492bd500da5b33cf95a5d610a73360fcaaa0",
            "formatValue": "0",
            "gasLimit": 60000,
            "gasPrice": "5",
            "gasUsed": 23037,
            "intTxnCount": 0,
            "internalRevert": false,
            "internalRevertMessage": "",
            "isContractCreation": false,
            "isFlashloan": false,
            "maxFee": "",
            "nonce": 16,
            "overwritedBlockNumber": -1,
            "priorityFee": "",
            "receiver": "0xa15c7ebe1f07caf6bff097d8a589fb8ac49ae5b3",
            "revertMessage": "",
            "sender": "0xae6f5b27965f1638d23d3989601a57727a659500",
            "simulationEnable": true,
            "sourceTxnHash": "0xd8fbf9b118a26d17b2a17ee6a0f95dc3d03c6ee36000aa0b8fdebee51d62e26a",
            "status": true,
            "timestamp": "2019-10-05T20:51:13Z",
            "transactionFee": "0.000115185",
            "txnHash": "0xd8fbf9b118a26d17b2a17ee6a0f95dc3d03c6ee36000aa0b8fdebee51d62e26a",
            "txnIndex": 16,
            "type": 0,
            "value": "0"
        },
        "fund_flow": [
            {
                "amount": "26,978.32800117",
                "from": "0xae6f5b27965f1638d23d3989601a57727a659500",
                "id": 1,
                "isERC1155": false,
                "isERC721": false,
                "isReverted": false,
                "order": 1,
                "to": "0x3c02290922a3618a4646e3bbca65853ea45fe7c6",
                "token": "0xa15c7ebe1f07caf6bff097d8a589fb8ac49ae5b3"
            }
        ],
        "token_infos": [
            {
                "address": "0xa15c7ebe1f07caf6bff097d8a589fb8ac49ae5b3",
                "decimals": 18
            },
            {
                "address": "0xc02aaa39b223fe8d0a0e5c4f27ead9083c756cc2",
                "decimals": 18
            },
            {
                "address": "0xeeeeeeeeeeeeeeeeeeeeeeeeeeeeeeeeeeeeeeee",
                "decimals": 18
            }
        ]
    },
    "address_label": {
        "labels": [
            {
                "address": "0x3c02290922a3618a4646e3bbca65853ea45fe7c6",
                "label": "Indodax 5"
            },
            {
                "address": "0x0000000000000000000000000000000000000001",
                "label": "Precompiled"
            },
            {
                "address": "0x0000000000000000000000000000000000000002",
                "label": "Precompiled"
            },
            {
                "address": "0x0000000000000000000000000000000000000003",
                "label": "Precompiled"
            },
            {
                "address": "0x0000000000000000000000000000000000000004",
                "label": "Precompiled"
            },
            {
                "address": "0xeeeeeeeeeeeeeeeeeeeeeeeeeeeeeeeeeeeeeeee",
                "label": "Ether"
            },
            {
                "address": "0xa15c7ebe1f07caf6bff097d8a589fb8ac49ae5b3",
                "label": "Pundi X: Old NPXS Token"
            }
        ]
    },
    "trace": {
        "accountLabels": null,
        "dataMap": {
            "-1": {
                "invocation": {
                    "address": "0xae6f5b27965f1638d23d3989601a57727a659500",
                    "callData": "",
                    "decodedMethod": null,
                    "errorInfo": "",
                    "fromAddress": "",
                    "gasUsed": 0,
                    "id": -1,
                    "methodDecoded": false,
                    "operation": "",
                    "output": "",
                    "revert": false,
                    "revertMessage": "",
                    "selector": "",
                    "status": false,
                    "value": ""
                },
                "nodeType": 0
            },
            "0": {
                "invocation": {
                    "address": "0xa15c7ebe1f07caf6bff097d8a589fb8ac49ae5b3",
                    "callData": "0x0000000000000000000000003c02290922a3618a4646e3bbca65853ea45fe7c60000000000000000000000000000000000000000000005b67f82ebc1a00b3400",
                    "decodedMethod": {
                        "callParams": [
                            {
                                "name": "_to",
                                "type": "address",
                                "value": "0x3c02290922a3618a4646e3bbca65853ea45fe7c6"
                            },
                            {
                                "decimalAvailable": true,
                                "name": "_value",
                                "type": "uint256",
                                "value": "26,978,328,001,170,000,000,000"
                            }
                        ],
                        "constructorArguments": "",
                        "name": "transfer",
                        "returnParams": [
                            {
                                "name": "",
                                "type": "bool",
                                "value": true
                            }
                        ],
                        "signature": "transfer(address,uint256)"
                    },
                    "errorInfo": "",
                    "fromAddress": "0xae6f5b27965f1638d23d3989601a57727a659500",
                    "gasUsed": 23037,
                    "id": 0,
                    "methodDecoded": true,
                    "operation": "CALL",
                    "output": "0x0000000000000000000000000000000000000000000000000000000000000001",
                    "revert": false,
                    "revertMessage": "",
                    "selector": "0xa9059cbb",
                    "status": true,
                    "value": "0"
                },
                "nodeType": 0
            },
            "1": {
                "event": {
                    "contract": "0xa15c7ebe1f07caf6bff097d8a589fb8ac49ae5b3",
                    "decodedLog": {
                        "name": "Transfer",
                        "params": [
                            {
                                "name": "from",
                                "type": "address",
                                "value": "0xae6f5b27965f1638d23d3989601a57727a659500"
                            },
                            {
                                "name": "to",
                                "type": "address",
                                "value": "0x3c02290922a3618a4646e3bbca65853ea45fe7c6"
                            },
                            {
                                "decimalAvailable": true,
                                "name": "value",
                                "type": "uint256",
                                "value": "26,978,328,001,170,000,000,000"
                            }
                        ],
                        "signature": "Transfer(address,address,uint256)"
                    },
                    "id": 1,
                    "logData": "0x0000000000000000000000000000000000000000000005b67f82ebc1a00b3400",
                    "logDecoded": true,
                    "operation": "EVENT",
                    "revert": false,
                    "status": true,
                    "topics": [
                        "0xddf252ad1be2c89b69c2b068fc378daa952ba7f163c4a11628f55a4df523b3ef",
                        "0x000000000000000000000000ae6f5b27965f1638d23d3989601a57727a659500",
                        "0x0000000000000000000000003c02290922a3618a4646e3bbca65853ea45fe7c6"
                    ]
                },
                "nodeType": 1
            }
        },
        "gasFlame": [
            {
                "children": [
                    {
                        "children": [
                            {
                                "children": [],
                                "depth": 0,
                                "name": "Initial Gas",
                                "value": 23384
                            },
                            {
                                "children": [],
                                "depth": 0,
                                "name": "Executed Gas",
                                "value": 14653
                            }
                        ],
                        "depth": -1,
                        "name": "Actual Gas Used",
                        "value": 23037
                    },
                    {
                        "children": [],
                        "depth": -1,
                        "name": "Refunded Gas",
                        "value": 15000
                    }
                ],
                "depth": -2,
                "name": "Total Gas",
                "value": 38037
            }
        ],
        "isConfirmed": true,
        "mainTrace": [
            {
                "children": [
                    {
                        "children": [
                            {
                                "children": [],
                                "depth": 1,
                                "id": 1,
                                "order": 1
                            }
                        ],
                        "depth": 0,
                        "id": 0,
                        "order": 0
                    }
                ],
                "depth": -1,
                "id": -1,
                "order": -1
            }
        ],
        "mainTraceNodeCount": 2,
        "parentIdMap": {
            "0": -1,
            "1": 0
        },
        "tidyTrace": [
            {
                "children": [
                    {
                        "children": [
                            {
                                "children": [],
                                "depth": 1,
                                "id": 1,
                                "order": 1
                            }
                        ],
                        "depth": 0,
                        "id": 0,
                        "order": 0
                    }
                ],
                "depth": -1,
                "id": -1,
                "order": -1
            }
        ],
        "tidyTraceNodeCount": 2
    },
    "state_change": {
        "stateChanges": [
            {
                "address": "0xa15c7ebe1f07caf6bff097d8a589fb8ac49ae5b3",
                "erc": "ERC-20",
                "slots": [
                    {
                        "current": "0x0000000000000000000000000000000000000000013f7de87d3818b4724eb5bb",
                        "key": "0xee6816aebd1ef108c406d3e964fd5703c7d294df2edbb50a90ed6b5ce98897fb",
                        "prev": "0x0000000000000000000000000000000000000000013f7831fdb52cf2d24381bb"
                    },
                    {
                        "current": "0x0000000000000000000000000000000000000000000000000000000000000000",
                        "key": "0x892686021c5f115ca1d17e34407669985a03ea3dedba6671a6cb338c5f6d6f6a",
                        "prev": "0x0000000000000000000000000000000000000000000005b67f82ebc1a00b3400"
                    }
                ],
                "storageVariables": [
                    {
                        "name": "balances",
                        "type": "mapping(address => uint256)",
                        "value": {
                            "pairs": [
                                {
                                    "key": "0x3c02290922a3618a4646e3bbca65853ea45fe7c6",
                                    "value": {
                                        "current": "386241920935039529726686651",
                                        "prev": "386214942607038359726686651",
                                        "typeTag": 1
                                    }
                                },
                                {
                                    "key": "0xae6f5b27965f1638d23d3989601a57727a659500",
                                    "value": {
                                        "current": "0",
                                        "prev": "26978328001170000000000",
                                        "typeTag": 1
                                    }
                                }
                            ],
                            "typeTag": 4
                        }
                    }
                ]
            }
        ]
    }
}