{
    "balance_change": {
        "balanceChanges": []
    },
    "profile": {
        "basic_info": {
            "baseFee": "",
            "blockNumber": 11598852,
            "callData": "0x202ee0ed00000000000000000000000000000000000000000000000000000000000008780000000000000000000000000000000000000000000000000003227976398400",
            "debugEnable": true,
            "errorInfo": "",
            "eventCount": 2,
            "feeRecipient": "0x5a0b54d5dc17e0aadc383d2db43b0a0d3e029c4c",
            "formatValue": "0",
            "gasLimit": 500000,
            "gasPrice": "150",
            "gasUsed": 82915,
            "intTxnCount": 0,
            "internalRevert": false,
            "internalRevertMessage": "",
            "isContractCreation": false,
            "isFlashloan": false,
            "maxFee": "",
            "nonce": 229387,
            "overwritedBlockNumber": -1,
            "priorityFee": "",
            "receiver": "0x661be809784e094ea70f980939cf3f09337a3178",
            "revertMessage": "",
            "sender": "0xc4a92358757ef8d22580c5efed30d5241ac725ae",
            "simulationEnable": true,
            "sourceTxnHash": "0xd8de97093d10e122233ffd4b3361633d2d858f1db6e5fee46ff90838087e12bd",
            "status": true,
            "timestamp": "2021-01-06T04:33:15Z",
            "transactionFee": "0.01243725",
            "txnHash": "0xd8de97093d10e122233ffd4b3361633d2d858f1db6e5fee46ff90838087e12bd",
            "txnIndex": 75,
            "type": 0,
            "value": "0"
        },
        "fund_flow": [],
        "token_infos": [
            {
                "address": "0xeeeeeeeeeeeeeeeeeeeeeeeeeeeeeeeeeeeeeeee",
                "decimals": 18
            },
            {
                "address": "0xc02aaa39b223fe8d0a0e5c4f27ead9083c756cc2",
                "decimals": 18
            }
        ]
    },
    "address_label": {
        "labels": [
            {
                "address": "0x661be809784e094ea70f980939cf3f09337a3178",
                "label": "AccessControlledAggregator"
            },
            {
                "address": "0x0000000000000000000000000000000000000001",
                "label": "Precompiled"
            },
            {
                "address": "0x0000000000000000000000000000000000000002",
                "label": "Precompiled"
            },
            {
                "address": "0x0000000000000000000000000000000000000003",
                "label": "Precompiled"
            },
            {
                "address": "0x0000000000000000000000000000000000000004",
                "label": "Precompiled"
            },
            {
                "address": "0xeeeeeeeeeeeeeeeeeeeeeeeeeeeeeeeeeeeeeeee",
                "label": "Ether"
            }
        ]
    },
    "trace": {
        "accountLabels": null,
        "dataMap": {
            "-1": {
                "invocation": {
                    "address": "0xc4a92358757ef8d22580c5efed30d5241ac725ae",
                    "callData": "",
                    "decodedMethod": null,
                    "errorInfo": "",
                    "fromAddress": "",
                    "gasUsed": 0,
                    "id": -1,
                    "methodDecoded": false,
                    "operation": "",
                    "output": "",
                    "revert": false,
                    "revertMessage": "",
                    "selector": "",
                    "status": false,
                    "value": ""
                },
                "nodeType": 0
            },
            "0": {
                "invocation": {
                    "address": "0x661be809784e094ea70f980939cf3f09337a3178",
                    "callData": "0x00000000000000000000000000000000000000000000000000000000000008780000000000000000000000000000000000000000000000000003227976398400",
                    "decodedMethod": {
                        "callParams": [
                            {
                                "name": "_roundId",
                                "type": "uint256",
                                "value": "2,168"
                            },
                            {
                                "name": "_submission",
                                "type": "int256",
                                "value": "882,330,000,000,000"
                            }
                        ],
                        "constructorArguments": "",
                        "name": "submit",
                        "returnParams": [],
                        "signature": "submit(uint256,int256)"
                    },
                    "errorInfo": "",
                    "fromAddress": "0xc4a92358757ef8d22580c5efed30d5241ac725ae",
                    "gasUsed": 82915,
                    "id": 0,
                    "methodDecoded": true,
                    "operation": "CALL",
                    "output": "",
                    "revert": false,
                    "revertMessage": "",
                    "selector": "0x202ee0ed",
                    "status": true,
                    "value": "0"
                },
                "nodeType": 0
            },
            "1": {
                "event": {
                    "contract": "0x661be809784e094ea70f980939cf3f09337a3178",
                    "decodedLog": {
                        "name": "SubmissionReceived",
                        "params": [
                            {
                                "name": "submission",
                                "type": "int256",
                                "value": "882,330,000,000,000"
                            },
                            {
                                "name": "round",
                                "type": "uint32",
                                "value": "2,168"
                            },
                            {
                                "name": "oracle",
                                "type": "address",
                                "value": "0xc4a92358757ef8d22580c5efed30d5241ac725ae"
                            }
                        ],
                        "signature": "SubmissionReceived(int256,uint32,address)"
                    },
                    "id": 1,
                    "logData": "0x",
                    "logDecoded": true,
                    "operation": "EVENT",
                    "revert": false,
                    "status": true,
                    "topics": [
                        "0x92e98423f8adac6e64d0608e519fd1cefb861498385c6dee70d58fc926ddc68c",
                        "0x0000000000000000000000000000000000000000000000000003227976398400",
                        "0x0000000000000000000000000000000000000000000000000000000000000878",
                        "0x000000000000000000000000c4a92358757ef8d22580c5efed30d5241ac725ae"
                    ]
                },
                "nodeType": 1
            },
            "2": {
                "event": {
                    "contract": "0x661be809784e094ea70f980939cf3f09337a3178",
                    "decodedLog": {
                        "name": "AvailableFundsUpdated",
                        "params": [
                            {
                                "name": "amount",
                                "type": "uint256",
                                "value": "9,936,180,000,000,000,000,000"
                            }
                        ],
                        "signature": "AvailableFundsUpdated(uint256)"
                    },
                    "id": 2,
                    "logData": "0x",
                    "logDecoded": true,
                    "operation": "EVENT",
                    "revert": false,
                    "status": true,
                    "topics": [
                        "0xfe25c73e3b9089fac37d55c4c7efcba6f04af04cebd2fc4d6d7dbb07e1e5234f",
                        "0x00000000000000000000000000000000000000000000021aa43299dcb4d20000"
                    ]
                },
                "nodeType": 1
            }
        },
        "gasFlame": [
            {
                "children": [
                    {
                        "children": [
                            {
                                "children": [],
                                "depth": 0,
                                "name": "Initial Gas",
                                "value": 21416
                            },
                            {
                                "children": [],
                                "depth": 0,
                                "name": "Executed Gas",
                                "value": 61499
                            }
                        ],
                        "depth": -1,
                        "name": "Actual Gas Used",
                        "value": 82915
                    },
                    {
                        "children": [],
                        "depth": -1,
                        "name": "Refunded Gas",
                        "value": 0
                    }
                ],
                "depth": -2,
                "name": "Total Gas",
                "value": 82915
            }
        ],
        "isConfirmed": true,
        "mainTrace": [
            {
                "children": [
                    {
                        "children": [
                            {
                                "children": [],
                                "depth": 1,
                                "id": 1,
                                "order": 1
                            },
                            {
                                "children": [],
                                "depth": 1,
                                "id": 2,
                                "order": 2
                            }
                        ],
                        "depth": 0,
                        "id": 0,
                        "order": 0
                    }
                ],
                "depth": -1,
                "id": -1,
                "order": -1
            }
        ],
        "mainTraceNodeCount": 3,
        "parentIdMap": {
            "0": -1,
            "1": 0,
            "2": 0
        },
        "tidyTrace": [
            {
                "children": [
                    {
                        "children": [
                            {
                                "children": [],
                                "depth": 1,
                                "id": 1,
                                "order": 1
                            },
                            {
                                "children": [],
                                "depth": 1,
                                "id": 2,
                                "order": 2
                            }
                        ],
                        "depth": 0,
                        "id": 0,
                        "order": 0
                    }
                ],
                "depth": -1,
                "id": -1,
                "order": -1
            }
        ],
        "tidyTraceNodeCount": 3
    },
    "state_change": {
        "stateChanges": [
            {
                "address": "0x661be809784e094ea70f980939cf3f09337a3178",
                "erc": "",
                "slots": [
                    {
                        "current": "0x0000000000000000000000000000000000000000000000000000000000000004",
                        "key": "0x923334761056f5f342c83432fa7851b3d89e439898312918c4bd4caea76ff932",
                        "prev": "0x0000000000000000000000000000000000000000000000000000000000000003"
                    },
                    {
                        "current": "0x0000000000000000000000000000000000000000000000000003227976398400",
                        "key": "0x032d8f860fbdbbb23587bda5d85448a3ee8714185c8a0aca5615c12e6d75aa7e",
                        "prev": "0x0000000000000000000000000000000000000000000000000000000000000000"
                    },
                    {
                        "current": "0x0000087000000878ffffffff000000010000000000000002f1d7683347380000",
                        "key": "0x856e10fd9193bb40655c8a89b6f673b4b6ede2aa5b75f8225024508611033eb0",
                        "prev": "0x0000087000000877ffffffff000000010000000000000002e4614656ef170000"
                    },
                    {
                        "current": "0x0000000000000000000000000000000000000000000000000003227976398400",
                        "key": "0x856e10fd9193bb40655c8a89b6f673b4b6ede2aa5b75f8225024508611033eb1",
                        "prev": "0x000000000000000000000000000000000000000000000000000324c51da83f5f"
                    },
                    {
                        "current": "0x00000000000000460ce09da187c40000000000000000021aa43299dcb4d20000",
                        "key": "0x000000000000000000000000000000000000000000000000000000000000000d",
                        "prev": "0x0000000000000045ff6a7bc52fa30000000000000000021ab1a8bbb90cf30000"
                    }
                ],
                "storageVariables": [
                    {
                        "name": "recordedFunds",
                        "type": "struct FluxAggregator.Funds",
                        "value": {
                            "fields": [
                                {
                                    "name": "available",
                                    "type": "uint128",
                                    "value": {
                                        "current": "9936180000000000000000",
                                        "prev": "9937150000000000000000",
                                        "typeTag": 1
                                    }
                                },
                                {
                                    "name": "allocated",
                                    "type": "uint128",
                                    "value": {
                                        "current": "1292200000000000000000",
                                        "prev": "1291230000000000000000",
                                        "typeTag": 1
                                    }
                                }
                            ],
                            "typeTag": 3
                        }
                    },
                    {
                        "name": "details",
                        "type": "mapping(uint32 => struct FluxAggregator.RoundDetails)",
                        "value": {
                            "pairs": [
                                {
                                    "key": "2168",
                                    "value": {
                                        "fields": [
                                            {
                                                "name": "submissions",
                                                "type": "int256[]",
                                                "value": {
                                                    "elemType": "int256",
                                                    "elems": [
                                                        {
                                                            "index": 3,
                                                            "value": {
                                                                "current": "882330000000000",
                                                                "prev": "0",
                                                                "typeTag": 1
                                                            }
                                                        }
                                                    ],
                                                    "typeTag": 2
                                                }
                                            }
                                        ],
                                        "typeTag": 3
                                    }
                                }
                            ],
                            "typeTag": 4
                        }
                    },
                    {
                        "name": "oracles",
                        "type": "mapping(address => struct FluxAggregator.OracleStatus)",
                        "value": {
                            "pairs": [
                                {
                                    "key": "0xc4a92358757ef8d22580c5efed30d5241ac725ae",
                                    "value": {
                                        "fields": [
                                            {
                                                "name": "withdrawable",
                                                "type": "uint128",
                                                "value": {
                                                    "current": "54320000000000000000",
                                                    "prev": "53350000000000000000",
                                                    "typeTag": 1
                                                }
                                            },
                                            {
                                                "name": "startingRound",
                                                "type": "uint32",
                                                "value": {
                                                    "current": "1",
                                                    "prev": "1",
                                                    "typeTag": 1
                                                }
                                            },
                                            {
                                                "name": "endingRound",
                                                "type": "uint32",
                                                "value": {
                                                    "current": "4294967295",
                                                    "prev": "4294967295",
                                                    "typeTag": 1
                                                }
                                            },
                                            {
                                                "name": "lastReportedRound",
                                                "type": "uint32",
                                                "value": {
                                                    "current": "2168",
                                                    "prev": "2167",
                                                    "typeTag": 1
                                                }
                                            },
                                            {
                                                "name": "lastStartedRound",
                                                "type": "uint32",
                                                "value": {
                                                    "current": "2160",
                                                    "prev": "2160",
                                                    "typeTag": 1
                                                }
                                            },
                                            {
                                                "name": "latestSubmission",
                                                "type": "int256",
                                                "value": {
                                                    "current": "882330000000000",
                                                    "prev": "884853954854751",
                                                    "typeTag": 1
                                                }
                                            }
                                        ],
                                        "typeTag": 3
                                    }
                                }
                            ],
                            "typeTag": 4
                        }
                    }
                ]
            }
        ]
    }
}