{
    "balance_change": {
        "balanceChanges": [
            {
                "account": "0x2282d91498e0bbbcd1e2ff0506e49b942142961f",
                "assets": [
                    {
                        "address": "0xe36ffb2d081064f62d5e21b8734bff2841413d14",
                        "amount": "1,050",
                        "iconUrl": "",
                        "isERC1155": false,
                        "isERC721": false,
                        "sign": false,
                        "value": ""
                    }
                ]
            },
            {
                "account": "0xa5a9db47b094a733ee7ffb3e416120db38b8c0f5",
                "assets": [
                    {
                        "address": "0xe36ffb2d081064f62d5e21b8734bff2841413d14",
                        "amount": "1,050",
                        "iconUrl": "",
                        "isERC1155": false,
                        "isERC721": false,
                        "sign": true,
                        "value": ""
                    }
                ]
            }
        ]
    },
    "profile": {
        "basic_info": {
            "baseFee": "",
            "blockNumber": 11347435,
            "callData": "0xa9059cbb000000000000000000000000a5a9db47b094a733ee7ffb3e416120db38b8c0f5000000000000000000000000000000000000000000000038ebad5cdc90280000",
            "debugEnable": true,
            "errorInfo": "",
            "eventCount": 1,
            "feeRecipient": "0x829bd824b016326a401d083b33d092293333a830",
            "formatValue": "0",
            "gasLimit": 120000,
            "gasPrice": "31.1",
            "gasUsed": 58249,
            "intTxnCount": 0,
            "internalRevert": false,
            "internalRevertMessage": "",
            "isContractCreation": false,
            "isFlashloan": false,
            "maxFee": "",
            "nonce": 33,
            "overwritedBlockNumber": -1,
            "priorityFee": "",
            "receiver": "0xe36ffb2d081064f62d5e21b8734bff2841413d14",
            "revertMessage": "",
            "sender": "0x2282d91498e0bbbcd1e2ff0506e49b942142961f",
            "simulationEnable": true,
            "sourceTxnHash": "0xd8a43f2a4a9d5a57a8e717404fcbdbcb207f197242a3312d0d025829c04adf68",
            "status": true,
            "timestamp": "2020-11-28T14:01:06Z",
            "transactionFee": "0.0018115439",
            "txnHash": "0xd8a43f2a4a9d5a57a8e717404fcbdbcb207f197242a3312d0d025829c04adf68",
            "txnIndex": 113,
            "type": 0,
            "value": "0"
        },
        "fund_flow": [
            {
                "amount": "1,050",
                "from": "0x2282d91498e0bbbcd1e2ff0506e49b942142961f",
                "id": 1,
                "isERC1155": false,
                "isERC721": false,
                "isReverted": false,
                "order": 1,
                "to": "0xa5a9db47b094a733ee7ffb3e416120db38b8c0f5",
                "token": "0xe36ffb2d081064f62d5e21b8734bff2841413d14"
            }
        ],
        "token_infos": [
            {
                "address": "0xc02aaa39b223fe8d0a0e5c4f27ead9083c756cc2",
                "decimals": 18
            },
            {
                "address": "0xe36ffb2d081064f62d5e21b8734bff2841413d14",
                "decimals": 18
            },
            {
                "address": "0xeeeeeeeeeeeeeeeeeeeeeeeeeeeeeeeeeeeeeeee",
                "decimals": 18
            }
        ]
    },
    "address_label": {
        "labels": [
            {
                "address": "0x0000000000000000000000000000000000000002",
                "label": "Precompiled"
            },
            {
                "address": "0x0000000000000000000000000000000000000003",
                "label": "Precompiled"
            },
            {
                "address": "0x0000000000000000000000000000000000000004",
                "label": "Precompiled"
            },
            {
                "address": "0xeeeeeeeeeeeeeeeeeeeeeeeeeeeeeeeeeeeeeeee",
                "label": "Ether"
            },
            {
                "address": "0xe36ffb2d081064f62d5e21b8734bff2841413d14",
                "label": "ran"
            },
            {
                "address": "0x0000000000000000000000000000000000000001",
                "label": "Precompiled"
            }
        ]
    },
    "trace": {
        "accountLabels": null,
        "dataMap": {
            "-1": {
                "invocation": {
                    "address": "0x2282d91498e0bbbcd1e2ff0506e49b942142961f",
                    "callData": "",
                    "decodedMethod": null,
                    "errorInfo": "",
                    "fromAddress": "",
                    "gasUsed": 0,
                    "id": -1,
                    "methodDecoded": false,
                    "operation": "",
                    "output": "",
                    "revert": false,
                    "revertMessage": "",
                    "selector": "",
                    "status": false,
                    "value": ""
                },
                "nodeType": 0
            },
            "0": {
                "invocation": {
                    "address": "0xe36ffb2d081064f62d5e21b8734bff2841413d14",
                    "callData": "0x000000000000000000000000a5a9db47b094a733ee7ffb3e416120db38b8c0f5000000000000000000000000000000000000000000000038ebad5cdc90280000",
                    "decodedMethod": {
                        "callParams": [
                            {
                                "name": "_to",
                                "type": "address",
                                "value": "0xa5a9db47b094a733ee7ffb3e416120db38b8c0f5"
                            },
                            {
                                "decimalAvailable": true,
                                "name": "_value",
                                "type": "uint256",
                                "value": "1,050,000,000,000,000,000,000"
                            }
                        ],
                        "constructorArguments": "",
                        "name": "transfer",
                        "returnParams": [
                            {
                                "name": "success",
                                "type": "bool",
                                "value": true
                            }
                        ],
                        "signature": "transfer(address,uint256)"
                    },
                    "errorInfo": "",
                    "fromAddress": "0x2282d91498e0bbbcd1e2ff0506e49b942142961f",
                    "gasUsed": 58249,
                    "id": 0,
                    "methodDecoded": true,
                    "operation": "CALL",
                    "output": "0x0000000000000000000000000000000000000000000000000000000000000001",
                    "revert": false,
                    "revertMessage": "",
                    "selector": "0xa9059cbb",
                    "status": true,
                    "value": "0"
                },
                "nodeType": 0
            },
            "1": {
                "event": {
                    "contract": "0xe36ffb2d081064f62d5e21b8734bff2841413d14",
                    "decodedLog": {
                        "name": "Transfer",
                        "params": [
                            {
                                "name": "from",
                                "type": "address",
                                "value": "0x2282d91498e0bbbcd1e2ff0506e49b942142961f"
                            },
                            {
                                "name": "to",
                                "type": "address",
                                "value": "0xa5a9db47b094a733ee7ffb3e416120db38b8c0f5"
                            },
                            {
                                "decimalAvailable": true,
                                "name": "value",
                                "type": "uint256",
                                "value": "1,050,000,000,000,000,000,000"
                            }
                        ],
                        "signature": "Transfer(address,address,uint256)"
                    },
                    "id": 1,
                    "logData": "0x000000000000000000000000000000000000000000000038ebad5cdc90280000",
                    "logDecoded": true,
                    "operation": "EVENT",
                    "revert": false,
                    "status": true,
                    "topics": [
                        "0xddf252ad1be2c89b69c2b068fc378daa952ba7f163c4a11628f55a4df523b3ef",
                        "0x0000000000000000000000002282d91498e0bbbcd1e2ff0506e49b942142961f",
                        "0x000000000000000000000000a5a9db47b094a733ee7ffb3e416120db38b8c0f5"
                    ]
                },
                "nodeType": 1
            }
        },
        "gasFlame": [
            {
                "children": [
                    {
                        "children": [
                            {
                                "children": [],
                                "depth": 0,
                                "name": "Initial Gas",
                                "value": 21644
                            },
                            {
                                "children": [],
                                "depth": 0,
                                "name": "Executed Gas",
                                "value": 36605
                            }
                        ],
                        "depth": -1,
                        "name": "Actual Gas Used",
                        "value": 58249
                    },
                    {
                        "children": [],
                        "depth": -1,
                        "name": "Refunded Gas",
                        "value": 0
                    }
                ],
                "depth": -2,
                "name": "Total Gas",
                "value": 58249
            }
        ],
        "isConfirmed": true,
        "mainTrace": [
            {
                "children": [
                    {
                        "children": [
                            {
                                "children": [],
                                "depth": 1,
                                "id": 1,
                                "order": 1
                            }
                        ],
                        "depth": 0,
                        "id": 0,
                        "order": 0
                    }
                ],
                "depth": -1,
                "id": -1,
                "order": -1
            }
        ],
        "mainTraceNodeCount": 2,
        "parentIdMap": {
            "0": -1,
            "1": 0
        },
        "tidyTrace": [
            {
                "children": [
                    {
                        "children": [
                            {
                                "children": [],
                                "depth": 1,
                                "id": 1,
                                "order": 1
                            }
                        ],
                        "depth": 0,
                        "id": 0,
                        "order": 0
                    }
                ],
                "depth": -1,
                "id": -1,
                "order": -1
            }
        ],
        "tidyTraceNodeCount": 2
    },
    "state_change": {
        "stateChanges": [
            {
                "address": "0xe36ffb2d081064f62d5e21b8734bff2841413d14",
                "erc": "ERC-20",
                "slots": [
                    {
                        "current": "0x0000000000000000000000000000000000000000000000ae0ee1e6176a9a4000",
                        "key": "0x5bea6bf4597b99ae9b1559604d5507d8c5a3e834c9c5766ba1f5079225a89b8e",
                        "prev": "0x0000000000000000000000000000000000000000000000e6fa8f42f3fac24000"
                    },
                    {
                        "current": "0x000000000000000000000000000000000000000000000038ebad5cdc90280000",
                        "key": "0xcf5a88defcee553e69dfb5f761d7338eef8935982e4a22774eb8935e6b98ecbb",
                        "prev": "0x0000000000000000000000000000000000000000000000000000000000000000"
                    }
                ],
                "storageVariables": [
                    {
                        "name": "balanceOf",
                        "type": "mapping(address => uint256)",
                        "value": {
                            "pairs": [
                                {
                                    "key": "0x2282d91498e0bbbcd1e2ff0506e49b942142961f",
                                    "value": {
                                        "current": "3210805860000000000000",
                                        "prev": "4260805860000000000000",
                                        "typeTag": 1
                                    }
                                },
                                {
                                    "key": "0xa5a9db47b094a733ee7ffb3e416120db38b8c0f5",
                                    "value": {
                                        "current": "1050000000000000000000",
                                        "prev": "0",
                                        "typeTag": 1
                                    }
                                }
                            ],
                            "typeTag": 4
                        }
                    }
                ]
            }
        ]
    }
}