{
    "balance_change": {
        "balanceChanges": [
            {
                "account": "0x92e7776ac329d8f43f0887c1ee129b82d54db0f2",
                "assets": [
                    {
                        "address": "0x7fc66500c84a76ad7e9c93437bfc5ac33e2ddae9",
                        "amount": "1.02041312",
                        "iconUrl": "https://assets.blocksec.com/icon/62f48bc5d1faeb48ff872297b2d01aca7a06f6613f30d65440b9b7703425b7e3.png",
                        "isERC1155": false,
                        "isERC721": false,
                        "sign": false,
                        "value": "170.0706022"
                    }
                ]
            },
            {
                "account": "0xd26ba28abb0dc6927532cb86cb4e98057c64fc4b",
                "assets": [
                    {
                        "address": "0x7fc66500c84a76ad7e9c93437bfc5ac33e2ddae9",
                        "amount": "1.02041312",
                        "iconUrl": "https://assets.blocksec.com/icon/62f48bc5d1faeb48ff872297b2d01aca7a06f6613f30d65440b9b7703425b7e3.png",
                        "isERC1155": false,
                        "isERC721": false,
                        "sign": true,
                        "value": "170.0706022"
                    }
                ]
            }
        ]
    },
    "profile": {
        "basic_info": {
            "baseFee": "",
            "blockNumber": 11700606,
            "callData": "0xa9059cbb000000000000000000000000d26ba28abb0dc6927532cb86cb4e98057c64fc4b0000000000000000000000000000000000000000000000000e293c5385bf8000",
            "debugEnable": true,
            "errorInfo": "",
            "eventCount": 5,
            "feeRecipient": "0x52bc44d5378309ee2abf1539bf71de1b7d7be3b5",
            "formatValue": "0",
            "gasLimit": 250000,
            "gasPrice": "127",
            "gasUsed": 201151,
            "intTxnCount": 1,
            "internalRevert": false,
            "internalRevertMessage": "",
            "isContractCreation": false,
            "isFlashloan": false,
            "maxFee": "",
            "nonce": 0,
            "overwritedBlockNumber": -1,
            "priorityFee": "",
            "receiver": "0x7fc66500c84a76ad7e9c93437bfc5ac33e2ddae9",
            "revertMessage": "",
            "sender": "0x92e7776ac329d8f43f0887c1ee129b82d54db0f2",
            "simulationEnable": true,
            "sourceTxnHash": "0xd8bba43597f227f1ca83e7a7cdbc4c57afbf0b6dd0c2ec82276e8498ef5f0518",
            "status": true,
            "timestamp": "2021-01-21T19:07:22Z",
            "transactionFee": "0.025546177",
            "txnHash": "0xd8bba43597f227f1ca83e7a7cdbc4c57afbf0b6dd0c2ec82276e8498ef5f0518",
            "txnIndex": 94,
            "type": 0,
            "value": "0"
        },
        "fund_flow": [
            {
                "amount": "1.02041312",
                "from": "0x92e7776ac329d8f43f0887c1ee129b82d54db0f2",
                "id": 1,
                "isERC1155": false,
                "isERC721": false,
                "isReverted": false,
                "order": 1,
                "to": "0xd26ba28abb0dc6927532cb86cb4e98057c64fc4b",
                "token": "0x7fc66500c84a76ad7e9c93437bfc5ac33e2ddae9"
            }
        ],
        "token_infos": [
            {
                "address": "0x7fc66500c84a76ad7e9c93437bfc5ac33e2ddae9",
                "decimals": 18
            },
            {
                "address": "0xc02aaa39b223fe8d0a0e5c4f27ead9083c756cc2",
                "decimals": 18
            },
            {
                "address": "0xeeeeeeeeeeeeeeeeeeeeeeeeeeeeeeeeeeeeeeee",
                "decimals": 18
            }
        ]
    },
    "address_label": {
        "labels": [
            {
                "address": "0x0000000000000000000000000000000000000002",
                "label": "Precompiled"
            },
            {
                "address": "0x0000000000000000000000000000000000000003",
                "label": "Precompiled"
            },
            {
                "address": "0x0000000000000000000000000000000000000004",
                "label": "Precompiled"
            },
            {
                "address": "0xeeeeeeeeeeeeeeeeeeeeeeeeeeeeeeeeeeeeeeee",
                "label": "Ether"
            },
            {
                "address": "0xc13eac3b4f9eed480045113b7af00f7b5655ece8",
                "label": "Aave Token (AAVE)"
            },
            {
                "address": "0x7fc66500c84a76ad7e9c93437bfc5ac33e2ddae9",
                "label": "Aave: AAVE Token"
            },
            {
                "address": "0x0000000000000000000000000000000000000001",
                "label": "Precompiled"
            }
        ]
    },
    "trace": {
        "accountLabels": null,
        "dataMap": {
            "-1": {
                "invocation": {
                    "address": "0x92e7776ac329d8f43f0887c1ee129b82d54db0f2",
                    "callData": "",
                    "decodedMethod": null,
                    "errorInfo": "",
                    "fromAddress": "",
                    "gasUsed": 0,
                    "id": -1,
                    "methodDecoded": false,
                    "operation": "",
                    "output": "",
                    "revert": false,
                    "revertMessage": "",
                    "selector": "",
                    "status": false,
                    "value": ""
                },
                "nodeType": 0
            },
            "0": {
                "invocation": {
                    "address": "0x7fc66500c84a76ad7e9c93437bfc5ac33e2ddae9",
                    "callData": "0x000000000000000000000000d26ba28abb0dc6927532cb86cb4e98057c64fc4b0000000000000000000000000000000000000000000000000e293c5385bf8000",
                    "decodedMethod": {
                        "callParams": [
                            {
                                "name": "recipient",
                                "type": "address",
                                "value": "0xd26ba28abb0dc6927532cb86cb4e98057c64fc4b"
                            },
                            {
                                "decimalAvailable": true,
                                "name": "amount",
                                "type": "uint256",
                                "value": "1,020,413,120,000,000,000"
                            }
                        ],
                        "constructorArguments": "",
                        "name": "transfer",
                        "returnParams": [
                            {
                                "name": "",
                                "type": "bool",
                                "value": true
                            }
                        ],
                        "signature": "transfer(address,uint256)"
                    },
                    "errorInfo": "",
                    "fromAddress": "0x92e7776ac329d8f43f0887c1ee129b82d54db0f2",
                    "gasUsed": 201151,
                    "id": 0,
                    "methodDecoded": true,
                    "operation": "CALL",
                    "output": "0x0000000000000000000000000000000000000000000000000000000000000001",
                    "revert": false,
                    "revertMessage": "",
                    "selector": "0xa9059cbb",
                    "status": true,
                    "value": "0"
                },
                "nodeType": 0
            },
            "1": {
                "invocation": {
                    "address": "0xc13eac3b4f9eed480045113b7af00f7b5655ece8",
                    "callData": "0x000000000000000000000000d26ba28abb0dc6927532cb86cb4e98057c64fc4b0000000000000000000000000000000000000000000000000e293c5385bf8000",
                    "decodedMethod": {
                        "callParams": [
                            {
                                "name": "recipient",
                                "type": "address",
                                "value": "0xd26ba28abb0dc6927532cb86cb4e98057c64fc4b"
                            },
                            {
                                "decimalAvailable": true,
                                "name": "amount",
                                "type": "uint256",
                                "value": "1,020,413,120,000,000,000"
                            }
                        ],
                        "constructorArguments": "",
                        "name": "transfer",
                        "returnParams": [
                            {
                                "name": "",
                                "type": "bool",
                                "value": true
                            }
                        ],
                        "signature": "transfer(address,uint256)"
                    },
                    "errorInfo": "",
                    "fromAddress": "0x7fc66500c84a76ad7e9c93437bfc5ac33e2ddae9",
                    "gasUsed": 191737,
                    "id": 1,
                    "methodDecoded": true,
                    "operation": "DELEGATECALL",
                    "output": "0x0000000000000000000000000000000000000000000000000000000000000001",
                    "revert": false,
                    "revertMessage": "",
                    "selector": "0xa9059cbb",
                    "status": true,
                    "value": "0"
                },
                "nodeType": 0
            },
            "2": {
                "event": {
                    "contract": "0x7fc66500c84a76ad7e9c93437bfc5ac33e2ddae9",
                    "decodedLog": {
                        "name": "DelegatedPowerChanged",
                        "params": [
                            {
                                "name": "user",
                                "type": "address",
                                "value": "0x92e7776ac329d8f43f0887c1ee129b82d54db0f2"
                            },
                            {
                                "name": "amount",
                                "type": "uint256",
                                "value": "0"
                            },
                            {
                                "name": "delegationType",
                                "type": "uint8",
                                "value": "0"
                            }
                        ],
                        "signature": "DelegatedPowerChanged(address,uint256,uint8)"
                    },
                    "id": 2,
                    "logData": "0x00000000000000000000000000000000000000000000000000000000000000000000000000000000000000000000000000000000000000000000000000000000",
                    "logDecoded": true,
                    "operation": "EVENT",
                    "revert": false,
                    "status": true,
                    "topics": [
                        "0xa0a19463ee116110c9b282012d9b65cc5522dc38a9520340cbaf3142e550127f",
                        "0x00000000000000000000000092e7776ac329d8f43f0887c1ee129b82d54db0f2"
                    ]
                },
                "nodeType": 1
            },
            "3": {
                "event": {
                    "contract": "0x7fc66500c84a76ad7e9c93437bfc5ac33e2ddae9",
                    "decodedLog": {
                        "name": "DelegatedPowerChanged",
                        "params": [
                            {
                                "name": "user",
                                "type": "address",
                                "value": "0xd26ba28abb0dc6927532cb86cb4e98057c64fc4b"
                            },
                            {
                                "name": "amount",
                                "type": "uint256",
                                "value": "1,020,413,120,000,000,000"
                            },
                            {
                                "name": "delegationType",
                                "type": "uint8",
                                "value": "0"
                            }
                        ],
                        "signature": "DelegatedPowerChanged(address,uint256,uint8)"
                    },
                    "id": 3,
                    "logData": "0x0000000000000000000000000000000000000000000000000e293c5385bf80000000000000000000000000000000000000000000000000000000000000000000",
                    "logDecoded": true,
                    "operation": "EVENT",
                    "revert": false,
                    "status": true,
                    "topics": [
                        "0xa0a19463ee116110c9b282012d9b65cc5522dc38a9520340cbaf3142e550127f",
                        "0x000000000000000000000000d26ba28abb0dc6927532cb86cb4e98057c64fc4b"
                    ]
                },
                "nodeType": 1
            },
            "4": {
                "event": {
                    "contract": "0x7fc66500c84a76ad7e9c93437bfc5ac33e2ddae9",
                    "decodedLog": {
                        "name": "DelegatedPowerChanged",
                        "params": [
                            {
                                "name": "user",
                                "type": "address",
                                "value": "0x92e7776ac329d8f43f0887c1ee129b82d54db0f2"
                            },
                            {
                                "name": "amount",
                                "type": "uint256",
                                "value": "0"
                            },
                            {
                                "name": "delegationType",
                                "type": "uint8",
                                "value": "1"
                            }
                        ],
                        "signature": "DelegatedPowerChanged(address,uint256,uint8)"
                    },
                    "id": 4,
                    "logData": "0x00000000000000000000000000000000000000000000000000000000000000000000000000000000000000000000000000000000000000000000000000000001",
                    "logDecoded": true,
                    "operation": "EVENT",
                    "revert": false,
                    "status": true,
                    "topics": [
                        "0xa0a19463ee116110c9b282012d9b65cc5522dc38a9520340cbaf3142e550127f",
                        "0x00000000000000000000000092e7776ac329d8f43f0887c1ee129b82d54db0f2"
                    ]
                },
                "nodeType": 1
            },
            "5": {
                "event": {
                    "contract": "0x7fc66500c84a76ad7e9c93437bfc5ac33e2ddae9",
                    "decodedLog": {
                        "name": "DelegatedPowerChanged",
                        "params": [
                            {
                                "name": "user",
                                "type": "address",
                                "value": "0xd26ba28abb0dc6927532cb86cb4e98057c64fc4b"
                            },
                            {
                                "name": "amount",
                                "type": "uint256",
                                "value": "1,020,413,120,000,000,000"
                            },
                            {
                                "name": "delegationType",
                                "type": "uint8",
                                "value": "1"
                            }
                        ],
                        "signature": "DelegatedPowerChanged(address,uint256,uint8)"
                    },
                    "id": 5,
                    "logData": "0x0000000000000000000000000000000000000000000000000e293c5385bf80000000000000000000000000000000000000000000000000000000000000000001",
                    "logDecoded": true,
                    "operation": "EVENT",
                    "revert": false,
                    "status": true,
                    "topics": [
                        "0xa0a19463ee116110c9b282012d9b65cc5522dc38a9520340cbaf3142e550127f",
                        "0x000000000000000000000000d26ba28abb0dc6927532cb86cb4e98057c64fc4b"
                    ]
                },
                "nodeType": 1
            },
            "6": {
                "event": {
                    "contract": "0x7fc66500c84a76ad7e9c93437bfc5ac33e2ddae9",
                    "decodedLog": {
                        "name": "Transfer",
                        "params": [
                            {
                                "name": "from",
                                "type": "address",
                                "value": "0x92e7776ac329d8f43f0887c1ee129b82d54db0f2"
                            },
                            {
                                "name": "to",
                                "type": "address",
                                "value": "0xd26ba28abb0dc6927532cb86cb4e98057c64fc4b"
                            },
                            {
                                "decimalAvailable": true,
                                "name": "value",
                                "type": "uint256",
                                "value": "1,020,413,120,000,000,000"
                            }
                        ],
                        "signature": "Transfer(address,address,uint256)"
                    },
                    "id": 6,
                    "logData": "0x0000000000000000000000000000000000000000000000000e293c5385bf8000",
                    "logDecoded": true,
                    "operation": "EVENT",
                    "revert": false,
                    "status": true,
                    "topics": [
                        "0xddf252ad1be2c89b69c2b068fc378daa952ba7f163c4a11628f55a4df523b3ef",
                        "0x00000000000000000000000092e7776ac329d8f43f0887c1ee129b82d54db0f2",
                        "0x000000000000000000000000d26ba28abb0dc6927532cb86cb4e98057c64fc4b"
                    ]
                },
                "nodeType": 1
            }
        },
        "gasFlame": [
            {
                "children": [
                    {
                        "children": [
                            {
                                "children": [],
                                "depth": 0,
                                "name": "Initial Gas",
                                "value": 21644
                            },
                            {
                                "children": [
                                    {
                                        "children": [],
                                        "depth": 1,
                                        "name": "transfer",
                                        "value": 191737
                                    }
                                ],
                                "depth": 0,
                                "name": "Executed Gas",
                                "value": 194507
                            }
                        ],
                        "depth": -1,
                        "name": "Actual Gas Used",
                        "value": 201151
                    },
                    {
                        "children": [],
                        "depth": -1,
                        "name": "Refunded Gas",
                        "value": 15000
                    }
                ],
                "depth": -2,
                "name": "Total Gas",
                "value": 216151
            }
        ],
        "isConfirmed": true,
        "mainTrace": [
            {
                "children": [
                    {
                        "children": [
                            {
                                "children": [
                                    {
                                        "children": [],
                                        "depth": 2,
                                        "id": 2,
                                        "order": 2
                                    },
                                    {
                                        "children": [],
                                        "depth": 2,
                                        "id": 3,
                                        "order": 3
                                    },
                                    {
                                        "children": [],
                                        "depth": 2,
                                        "id": 4,
                                        "order": 4
                                    },
                                    {
                                        "children": [],
                                        "depth": 2,
                                        "id": 5,
                                        "order": 5
                                    },
                                    {
                                        "children": [],
                                        "depth": 2,
                                        "id": 6,
                                        "order": 6
                                    }
                                ],
                                "depth": 1,
                                "id": 1,
                                "order": 1
                            }
                        ],
                        "depth": 0,
                        "id": 0,
                        "order": 0
                    }
                ],
                "depth": -1,
                "id": -1,
                "order": -1
            }
        ],
        "mainTraceNodeCount": 7,
        "parentIdMap": {
            "0": -1,
            "1": 0,
            "2": 1,
            "3": 1,
            "4": 1,
            "5": 1,
            "6": 1
        },
        "tidyTrace": [
            {
                "children": [
                    {
                        "children": [
                            {
                                "children": [
                                    {
                                        "children": [],
                                        "depth": 2,
                                        "id": 2,
                                        "order": 2
                                    },
                                    {
                                        "children": [],
                                        "depth": 2,
                                        "id": 3,
                                        "order": 3
                                    },
                                    {
                                        "children": [],
                                        "depth": 2,
                                        "id": 4,
                                        "order": 4
                                    },
                                    {
                                        "children": [],
                                        "depth": 2,
                                        "id": 5,
                                        "order": 5
                                    },
                                    {
                                        "children": [],
                                        "depth": 2,
                                        "id": 6,
                                        "order": 6
                                    }
                                ],
                                "depth": 1,
                                "id": 1,
                                "order": 1
                            }
                        ],
                        "depth": 0,
                        "id": 0,
                        "order": 0
                    }
                ],
                "depth": -1,
                "id": -1,
                "order": -1
            }
        ],
        "tidyTraceNodeCount": 7
    },
    "state_change": {
        "stateChanges": [
            {
                "address": "0x7fc66500c84a76ad7e9c93437bfc5ac33e2ddae9",
                "erc": "ERC-20",
                "slots": [
                    {
                        "current": "0x00000000000000000e293c5385bf800000000000000000000000000000b2897e",
                        "key": "0xfcbfa3ad43b58d2b20a1532575774a7dd2636266d9e2c22c236529caaf8d2e5e",
                        "prev": "0x0000000000000000000000000000000000000000000000000000000000000000"
                    },
                    {
                        "current": "0x0000000000000000000000000000000000000000000000000e293c5385bf8000",
                        "key": "0x8368e98354921e64e57ae5993713a3fa6e9522a3eb3cbb0d5e50a4c550bfc331",
                        "prev": "0x0000000000000000000000000000000000000000000000000000000000000000"
                    },
                    {
                        "current": "0x0000000000000000000000000000000000000000000000000000000000000002",
                        "key": "0x3ef61b6158cf05a8967361b08c34df07d4be7f6d5a7d668ce8326ee9fdcd7ebd",
                        "prev": "0x0000000000000000000000000000000000000000000000000000000000000001"
                    },
                    {
                        "current": "0x0000000000000000000000000000000000000000000000000000000000000001",
                        "key": "0x50c4c7fa6fdd61daf4159b626acc88ec54c9f9dc0396900c8f3e754745453f44",
                        "prev": "0x0000000000000000000000000000000000000000000000000000000000000000"
                    },
                    {
                        "current": "0x0000000000000000000000000000000000000000000000000000000000000000",
                        "key": "0x1465483eaa83b840a6681ace720b4eede501b30702ae1ff83b1fdee7584db6f3",
                        "prev": "0x0000000000000000000000000000000000000000000000000e293c5385bf8000"
                    },
                    {
                        "current": "0x00000000000000000e293c5385bf800000000000000000000000000000b2897e",
                        "key": "0x36ad6f52f90c59ccfb3c8e58f00b2dde791733cb6e8aa911901da7e69e76c102",
                        "prev": "0x0000000000000000000000000000000000000000000000000000000000000000"
                    },
                    {
                        "current": "0x0000000000000000000000000000000000000000000000000000000000b2897e",
                        "key": "0xcfeffc623d38b4c227dbf9e6c59a2e433cab312e8a45eda52f8191ae2e31a06c",
                        "prev": "0x0000000000000000000000000000000000000000000000000000000000000000"
                    },
                    {
                        "current": "0x0000000000000000000000000000000000000000000000000000000000000002",
                        "key": "0x89afbbe9acdc26a8877b78ea9bb084afee2b61af1f4baa85c978d6aa85ab1322",
                        "prev": "0x0000000000000000000000000000000000000000000000000000000000000001"
                    },
                    {
                        "current": "0x0000000000000000000000000000000000000000000000000000000000b2897e",
                        "key": "0x7ce0b891302c0b6d32ff15871cdeccecd9c3ec5de09d7e72481e9f8c6682a7dd",
                        "prev": "0x0000000000000000000000000000000000000000000000000000000000000000"
                    },
                    {
                        "current": "0x0000000000000000000000000000000000000000000000000000000000000001",
                        "key": "0x06d7b40365ef3ac07ba4595bb52e056137bc807aad8169f23b953cf084368934",
                        "prev": "0x0000000000000000000000000000000000000000000000000000000000000000"
                    }
                ],
                "storageVariables": [
                    {
                        "name": "_propositionPowerSnapshots",
                        "type": "mapping(address => mapping(uint256 => struct GovernancePowerDelegationERC20.Snapshot))",
                        "value": {
                            "pairs": [
                                {
                                    "key": "0x92e7776ac329d8f43f0887c1ee129b82d54db0f2",
                                    "value": {
                                        "pairs": [
                                            {
                                                "key": "1",
                                                "value": {
                                                    "fields": [
                                                        {
                                                            "name": "blockNumber",
                                                            "type": "uint128",
                                                            "value": {
                                                                "current": "11700606",
                                                                "prev": "0",
                                                                "typeTag": 1
                                                            }
                                                        },
                                                        {
                                                            "name": "value",
                                                            "type": "uint128",
                                                            "value": {
                                                                "current": "0",
                                                                "prev": "0",
                                                                "typeTag": 1
                                                            }
                                                        }
                                                    ],
                                                    "typeTag": 3
                                                }
                                            }
                                        ],
                                        "typeTag": 4
                                    }
                                },
                                {
                                    "key": "0xd26ba28abb0dc6927532cb86cb4e98057c64fc4b",
                                    "value": {
                                        "pairs": [
                                            {
                                                "key": "0",
                                                "value": {
                                                    "fields": [
                                                        {
                                                            "name": "blockNumber",
                                                            "type": "uint128",
                                                            "value": {
                                                                "current": "11700606",
                                                                "prev": "0",
                                                                "typeTag": 1
                                                            }
                                                        },
                                                        {
                                                            "name": "value",
                                                            "type": "uint128",
                                                            "value": {
                                                                "current": "1020413120000000000",
                                                                "prev": "0",
                                                                "typeTag": 1
                                                            }
                                                        }
                                                    ],
                                                    "typeTag": 3
                                                }
                                            }
                                        ],
                                        "typeTag": 4
                                    }
                                }
                            ],
                            "typeTag": 4
                        }
                    },
                    {
                        "name": "_balances",
                        "type": "mapping(address => uint256)",
                        "value": {
                            "pairs": [
                                {
                                    "key": "0x92e7776ac329d8f43f0887c1ee129b82d54db0f2",
                                    "value": {
                                        "current": "0",
                                        "prev": "1020413120000000000",
                                        "typeTag": 1
                                    }
                                },
                                {
                                    "key": "0xd26ba28abb0dc6927532cb86cb4e98057c64fc4b",
                                    "value": {
                                        "current": "1020413120000000000",
                                        "prev": "0",
                                        "typeTag": 1
                                    }
                                }
                            ],
                            "typeTag": 4
                        }
                    },
                    {
                        "name": "_propositionPowerSnapshotsCounts",
                        "type": "mapping(address => uint256)",
                        "value": {
                            "pairs": [
                                {
                                    "key": "0x92e7776ac329d8f43f0887c1ee129b82d54db0f2",
                                    "value": {
                                        "current": "2",
                                        "prev": "1",
                                        "typeTag": 1
                                    }
                                },
                                {
                                    "key": "0xd26ba28abb0dc6927532cb86cb4e98057c64fc4b",
                                    "value": {
                                        "current": "1",
                                        "prev": "0",
                                        "typeTag": 1
                                    }
                                }
                            ],
                            "typeTag": 4
                        }
                    },
                    {
                        "name": "_votingSnapshots",
                        "type": "mapping(address => mapping(uint256 => struct GovernancePowerDelegationERC20.Snapshot))",
                        "value": {
                            "pairs": [
                                {
                                    "key": "0x92e7776ac329d8f43f0887c1ee129b82d54db0f2",
                                    "value": {
                                        "pairs": [
                                            {
                                                "key": "1",
                                                "value": {
                                                    "fields": [
                                                        {
                                                            "name": "blockNumber",
                                                            "type": "uint128",
                                                            "value": {
                                                                "current": "11700606",
                                                                "prev": "0",
                                                                "typeTag": 1
                                                            }
                                                        },
                                                        {
                                                            "name": "value",
                                                            "type": "uint128",
                                                            "value": {
                                                                "current": "0",
                                                                "prev": "0",
                                                                "typeTag": 1
                                                            }
                                                        }
                                                    ],
                                                    "typeTag": 3
                                                }
                                            }
                                        ],
                                        "typeTag": 4
                                    }
                                },
                                {
                                    "key": "0xd26ba28abb0dc6927532cb86cb4e98057c64fc4b",
                                    "value": {
                                        "pairs": [
                                            {
                                                "key": "0",
                                                "value": {
                                                    "fields": [
                                                        {
                                                            "name": "blockNumber",
                                                            "type": "uint128",
                                                            "value": {
                                                                "current": "11700606",
                                                                "prev": "0",
                                                                "typeTag": 1
                                                            }
                                                        },
                                                        {
                                                            "name": "value",
                                                            "type": "uint128",
                                                            "value": {
                                                                "current": "1020413120000000000",
                                                                "prev": "0",
                                                                "typeTag": 1
                                                            }
                                                        }
                                                    ],
                                                    "typeTag": 3
                                                }
                                            }
                                        ],
                                        "typeTag": 4
                                    }
                                }
                            ],
                            "typeTag": 4
                        }
                    },
                    {
                        "name": "_votingSnapshotsCounts",
                        "type": "mapping(address => uint256)",
                        "value": {
                            "pairs": [
                                {
                                    "key": "0x92e7776ac329d8f43f0887c1ee129b82d54db0f2",
                                    "value": {
                                        "current": "2",
                                        "prev": "1",
                                        "typeTag": 1
                                    }
                                },
                                {
                                    "key": "0xd26ba28abb0dc6927532cb86cb4e98057c64fc4b",
                                    "value": {
                                        "current": "1",
                                        "prev": "0",
                                        "typeTag": 1
                                    }
                                }
                            ],
                            "typeTag": 4
                        }
                    }
                ]
            }
        ]
    }
}