{
    "balance_change": {
        "balanceChanges": [
            {
                "account": "0x3cd751e6b0078be393132286c442345e5dc49699",
                "assets": [
                    {
                        "address": "0xdac17f958d2ee523a2206206994597c13d831ec7",
                        "amount": "14.984267",
                        "iconUrl": "https://assets.blocksec.com/icon/fcea71f3193ce895be44bfdf941f7e4c9381dd587f273c2d1a27f1263d84e4ea.png",
                        "isERC1155": false,
                        "isERC721": false,
                        "sign": false,
                        "value": "14.99925126"
                    }
                ]
            },
            {
                "account": "0x4b3e6ea04d89280d1f0d441c5eaa770b69c8e003",
                "assets": [
                    {
                        "address": "0xdac17f958d2ee523a2206206994597c13d831ec7",
                        "amount": "14.984267",
                        "iconUrl": "https://assets.blocksec.com/icon/fcea71f3193ce895be44bfdf941f7e4c9381dd587f273c2d1a27f1263d84e4ea.png",
                        "isERC1155": false,
                        "isERC721": false,
                        "sign": true,
                        "value": "14.99925126"
                    }
                ]
            }
        ]
    },
    "profile": {
        "basic_info": {
            "baseFee": "108.380825088",
            "blockNumber": 13560099,
            "callData": "0xa9059cbb0000000000000000000000004b3e6ea04d89280d1f0d441c5eaa770b69c8e0030000000000000000000000000000000000000000000000000000000000e4a44b",
            "debugEnable": true,
            "errorInfo": "",
            "eventCount": 1,
            "feeRecipient": "0xcd458d7f11023556cc9058f729831a038cb8df9c",
            "formatValue": "0",
            "gasLimit": 250000,
            "gasPrice": "111.380825088",
            "gasUsed": 63197,
            "intTxnCount": 0,
            "internalRevert": false,
            "internalRevertMessage": "",
            "isContractCreation": false,
            "isFlashloan": false,
            "maxFee": "197",
            "nonce": 3916126,
            "overwritedBlockNumber": -1,
            "priorityFee": "3",
            "receiver": "0xdac17f958d2ee523a2206206994597c13d831ec7",
            "revertMessage": "",
            "sender": "0x3cd751e6b0078be393132286c442345e5dc49699",
            "simulationEnable": true,
            "sourceTxnHash": "0xd91dd135bf049b0b12d34e6cabfe2163ab7c3a8886fe15a9becdee148ab6bec5",
            "status": true,
            "timestamp": "2021-11-06T01:30:45Z",
            "transactionFee": "0.007038934003086336",
            "txnHash": "0xd91dd135bf049b0b12d34e6cabfe2163ab7c3a8886fe15a9becdee148ab6bec5",
            "txnIndex": 30,
            "type": 2,
            "value": "0"
        },
        "fund_flow": [
            {
                "amount": "14.984267",
                "from": "0x3cd751e6b0078be393132286c442345e5dc49699",
                "id": 1,
                "isERC1155": false,
                "isERC721": false,
                "isReverted": false,
                "order": 1,
                "to": "0x4b3e6ea04d89280d1f0d441c5eaa770b69c8e003",
                "token": "0xdac17f958d2ee523a2206206994597c13d831ec7"
            }
        ],
        "token_infos": [
            {
                "address": "0xc02aaa39b223fe8d0a0e5c4f27ead9083c756cc2",
                "decimals": 18
            },
            {
                "address": "0xdac17f958d2ee523a2206206994597c13d831ec7",
                "decimals": 6
            },
            {
                "address": "0xeeeeeeeeeeeeeeeeeeeeeeeeeeeeeeeeeeeeeeee",
                "decimals": 18
            }
        ]
    },
    "address_label": {
        "labels": [
            {
                "address": "0x0000000000000000000000000000000000000002",
                "label": "Precompiled"
            },
            {
                "address": "0x0000000000000000000000000000000000000003",
                "label": "Precompiled"
            },
            {
                "address": "0x0000000000000000000000000000000000000004",
                "label": "Precompiled"
            },
            {
                "address": "0xeeeeeeeeeeeeeeeeeeeeeeeeeeeeeeeeeeeeeeee",
                "label": "Ether"
            },
            {
                "address": "0xdac17f958d2ee523a2206206994597c13d831ec7",
                "label": "Tether: USDT Stablecoin"
            },
            {
                "address": "0x4b3e6ea04d89280d1f0d441c5eaa770b69c8e003",
                "label": "BITMART"
            },
            {
                "address": "0x3cd751e6b0078be393132286c442345e5dc49699",
                "label": "Coinbase 4"
            },
            {
                "address": "0x0000000000000000000000000000000000000001",
                "label": "Precompiled"
            }
        ]
    },
    "trace": {
        "accountLabels": null,
        "dataMap": {
            "-1": {
                "invocation": {
                    "address": "0x3cd751e6b0078be393132286c442345e5dc49699",
                    "callData": "",
                    "decodedMethod": null,
                    "errorInfo": "",
                    "fromAddress": "",
                    "gasUsed": 0,
                    "id": -1,
                    "methodDecoded": false,
                    "operation": "",
                    "output": "",
                    "revert": false,
                    "revertMessage": "",
                    "selector": "",
                    "status": false,
                    "value": ""
                },
                "nodeType": 0
            },
            "0": {
                "invocation": {
                    "address": "0xdac17f958d2ee523a2206206994597c13d831ec7",
                    "callData": "0x0000000000000000000000004b3e6ea04d89280d1f0d441c5eaa770b69c8e0030000000000000000000000000000000000000000000000000000000000e4a44b",
                    "decodedMethod": {
                        "callParams": [
                            {
                                "name": "_to",
                                "type": "address",
                                "value": "0x4b3e6ea04d89280d1f0d441c5eaa770b69c8e003"
                            },
                            {
                                "decimalAvailable": true,
                                "name": "_value",
                                "type": "uint256",
                                "value": "14,984,267"
                            }
                        ],
                        "constructorArguments": "",
                        "name": "transfer",
                        "returnParams": [],
                        "signature": "transfer(address,uint256)"
                    },
                    "errorInfo": "",
                    "fromAddress": "0x3cd751e6b0078be393132286c442345e5dc49699",
                    "gasUsed": 63197,
                    "id": 0,
                    "methodDecoded": true,
                    "operation": "CALL",
                    "output": "",
                    "revert": false,
                    "revertMessage": "",
                    "selector": "0xa9059cbb",
                    "status": true,
                    "value": "0"
                },
                "nodeType": 0
            },
            "1": {
                "event": {
                    "contract": "0xdac17f958d2ee523a2206206994597c13d831ec7",
                    "decodedLog": {
                        "name": "Transfer",
                        "params": [
                            {
                                "name": "from",
                                "type": "address",
                                "value": "0x3cd751e6b0078be393132286c442345e5dc49699"
                            },
                            {
                                "name": "to",
                                "type": "address",
                                "value": "0x4b3e6ea04d89280d1f0d441c5eaa770b69c8e003"
                            },
                            {
                                "decimalAvailable": true,
                                "name": "value",
                                "type": "uint256",
                                "value": "14,984,267"
                            }
                        ],
                        "signature": "Transfer(address,address,uint256)"
                    },
                    "id": 1,
                    "logData": "0x0000000000000000000000000000000000000000000000000000000000e4a44b",
                    "logDecoded": true,
                    "operation": "EVENT",
                    "revert": false,
                    "status": true,
                    "topics": [
                        "0xddf252ad1be2c89b69c2b068fc378daa952ba7f163c4a11628f55a4df523b3ef",
                        "0x0000000000000000000000003cd751e6b0078be393132286c442345e5dc49699",
                        "0x0000000000000000000000004b3e6ea04d89280d1f0d441c5eaa770b69c8e003"
                    ]
                },
                "nodeType": 1
            }
        },
        "gasFlame": [
            {
                "children": [
                    {
                        "children": [
                            {
                                "children": [],
                                "depth": 0,
                                "name": "Initial Gas",
                                "value": 21596
                            },
                            {
                                "children": [],
                                "depth": 0,
                                "name": "Executed Gas",
                                "value": 41601
                            }
                        ],
                        "depth": -1,
                        "name": "Actual Gas Used",
                        "value": 63197
                    },
                    {
                        "children": [],
                        "depth": -1,
                        "name": "Refunded Gas",
                        "value": 0
                    }
                ],
                "depth": -2,
                "name": "Total Gas",
                "value": 63197
            }
        ],
        "isConfirmed": true,
        "mainTrace": [
            {
                "children": [
                    {
                        "children": [
                            {
                                "children": [],
                                "depth": 1,
                                "id": 1,
                                "order": 1
                            }
                        ],
                        "depth": 0,
                        "id": 0,
                        "order": 0
                    }
                ],
                "depth": -1,
                "id": -1,
                "order": -1
            }
        ],
        "mainTraceNodeCount": 2,
        "parentIdMap": {
            "0": -1,
            "1": 0
        },
        "tidyTrace": [
            {
                "children": [
                    {
                        "children": [
                            {
                                "children": [],
                                "depth": 1,
                                "id": 1,
                                "order": 1
                            }
                        ],
                        "depth": 0,
                        "id": 0,
                        "order": 0
                    }
                ],
                "depth": -1,
                "id": -1,
                "order": -1
            }
        ],
        "tidyTraceNodeCount": 2
    },
    "state_change": {
        "stateChanges": [
            {
                "address": "0xdac17f958d2ee523a2206206994597c13d831ec7",
                "erc": "ERC-20",
                "slots": [
                    {
                        "current": "0x000000000000000000000000000000000000000000000000000009ac755ee32e",
                        "key": "0x66b20894c64d33fafb7e1531f228af9772bdc95e24d73f494da3e0e3cc46a05d",
                        "prev": "0x000000000000000000000000000000000000000000000000000009ac76438779"
                    },
                    {
                        "current": "0x0000000000000000000000000000000000000000000000000000000000e4a44b",
                        "key": "0xcab451cc23dc373b4cf3d660949f8dc3e12bdb6a196274948d8670dd9037b847",
                        "prev": "0x0000000000000000000000000000000000000000000000000000000000000000"
                    }
                ],
                "storageVariables": [
                    {
                        "name": "balances",
                        "type": "mapping(address => uint256)",
                        "value": {
                            "pairs": [
                                {
                                    "key": "0x3cd751e6b0078be393132286c442345e5dc49699",
                                    "value": {
                                        "current": "10636308177710",
                                        "prev": "10636323161977",
                                        "typeTag": 1
                                    }
                                },
                                {
                                    "key": "0x4b3e6ea04d89280d1f0d441c5eaa770b69c8e003",
                                    "value": {
                                        "current": "14984267",
                                        "prev": "0",
                                        "typeTag": 1
                                    }
                                }
                            ],
                            "typeTag": 4
                        }
                    }
                ]
            }
        ]
    }
}