{
    "balance_change": {
        "balanceChanges": [
            {
                "account": "0x224d6d16728c845fde6f526233176c01a73741c5",
                "assets": [
                    {
                        "address": "0xd7b2c1a7f3c67fb0ea57a7ef29bc1f18d7be3195",
                        "amount": "4,200",
                        "iconUrl": "",
                        "isERC1155": false,
                        "isERC721": false,
                        "sign": false,
                        "value": "40.55760019"
                    }
                ]
            },
            {
                "account": "0x1ab4973a48dc892cd9971ece8e01dcc7688f8f23",
                "assets": [
                    {
                        "address": "0xd7b2c1a7f3c67fb0ea57a7ef29bc1f18d7be3195",
                        "amount": "4,200",
                        "iconUrl": "",
                        "isERC1155": false,
                        "isERC721": false,
                        "sign": true,
                        "value": "40.55760019"
                    }
                ]
            }
        ]
    },
    "profile": {
        "basic_info": {
            "baseFee": "28.953958482",
            "blockNumber": 19180915,
            "callData": "0xa9059cbb0000000000000000000000001ab4973a48dc892cd9971ece8e01dcc7688f8f230000000000000000000000000000000000000000000000e3aeb5737240a00000",
            "debugEnable": true,
            "errorInfo": "",
            "eventCount": 1,
            "feeRecipient": "0xdcca982701a264e8d629a6e8cfba9c1a27912623",
            "formatValue": "0",
            "gasLimit": 100000,
            "gasPrice": "29.723090788",
            "gasUsed": 31872,
            "intTxnCount": 0,
            "internalRevert": false,
            "internalRevertMessage": "",
            "isContractCreation": false,
            "isFlashloan": false,
            "maxFee": "",
            "nonce": 0,
            "overwritedBlockNumber": -1,
            "priorityFee": "",
            "receiver": "0xd7b2c1a7f3c67fb0ea57a7ef29bc1f18d7be3195",
            "revertMessage": "",
            "sender": "0x224d6d16728c845fde6f526233176c01a73741c5",
            "simulationEnable": true,
            "sourceTxnHash": "0xd9bbb82bd23ae707c1c4b3ded00e7f2d1653427ffc537719d9aff2719a9bba72",
            "status": true,
            "timestamp": "2024-02-08T03:58:11Z",
            "transactionFee": "0.000947334349595136",
            "txnHash": "0xd9bbb82bd23ae707c1c4b3ded00e7f2d1653427ffc537719d9aff2719a9bba72",
            "txnIndex": 65,
            "type": 0,
            "value": "0"
        },
        "fund_flow": [
            {
                "amount": "4,200",
                "from": "0x224d6d16728c845fde6f526233176c01a73741c5",
                "id": 1,
                "isERC1155": false,
                "isERC721": false,
                "isReverted": false,
                "order": 1,
                "to": "0x1ab4973a48dc892cd9971ece8e01dcc7688f8f23",
                "token": "0xd7b2c1a7f3c67fb0ea57a7ef29bc1f18d7be3195"
            }
        ],
        "token_infos": [
            {
                "address": "0xc02aaa39b223fe8d0a0e5c4f27ead9083c756cc2",
                "decimals": 18
            },
            {
                "address": "0xd7b2c1a7f3c67fb0ea57a7ef29bc1f18d7be3195",
                "decimals": 18
            },
            {
                "address": "0xeeeeeeeeeeeeeeeeeeeeeeeeeeeeeeeeeeeeeeee",
                "decimals": 18
            }
        ]
    },
    "address_label": {
        "labels": [
            {
                "address": "0x0000000000000000000000000000000000000001",
                "label": "Precompiled"
            },
            {
                "address": "0x0000000000000000000000000000000000000002",
                "label": "Precompiled"
            },
            {
                "address": "0x0000000000000000000000000000000000000003",
                "label": "Precompiled"
            },
            {
                "address": "0x0000000000000000000000000000000000000004",
                "label": "Precompiled"
            },
            {
                "address": "0xeeeeeeeeeeeeeeeeeeeeeeeeeeeeeeeeeeeeeeee",
                "label": "Ether"
            },
            {
                "address": "0xd7b2c1a7f3c67fb0ea57a7ef29bc1f18d7be3195",
                "label": "Volumint: vMINT Token"
            },
            {
                "address": "0x1ab4973a48dc892cd9971ece8e01dcc7688f8f23",
                "label": "Bitget 6"
            }
        ]
    },
    "trace": {
        "accountLabels": null,
        "dataMap": {
            "-1": {
                "invocation": {
                    "address": "0x224d6d16728c845fde6f526233176c01a73741c5",
                    "callData": "",
                    "decodedMethod": null,
                    "errorInfo": "",
                    "fromAddress": "",
                    "gasUsed": 0,
                    "id": -1,
                    "methodDecoded": false,
                    "operation": "",
                    "output": "",
                    "revert": false,
                    "revertMessage": "",
                    "selector": "",
                    "status": false,
                    "value": ""
                },
                "nodeType": 0
            },
            "0": {
                "invocation": {
                    "address": "0xd7b2c1a7f3c67fb0ea57a7ef29bc1f18d7be3195",
                    "callData": "0x0000000000000000000000001ab4973a48dc892cd9971ece8e01dcc7688f8f230000000000000000000000000000000000000000000000e3aeb5737240a00000",
                    "decodedMethod": {
                        "callParams": [
                            {
                                "name": "to",
                                "type": "address",
                                "value": "0x1ab4973a48dc892cd9971ece8e01dcc7688f8f23"
                            },
                            {
                                "decimalAvailable": true,
                                "name": "amount",
                                "type": "uint256",
                                "value": "4,200,000,000,000,000,000,000"
                            }
                        ],
                        "constructorArguments": "",
                        "name": "transfer",
                        "returnParams": [
                            {
                                "name": "",
                                "type": "bool",
                                "value": true
                            }
                        ],
                        "signature": "transfer(address,uint256)"
                    },
                    "errorInfo": "",
                    "fromAddress": "0x224d6d16728c845fde6f526233176c01a73741c5",
                    "gasUsed": 31872,
                    "id": 0,
                    "methodDecoded": true,
                    "operation": "CALL",
                    "output": "0x0000000000000000000000000000000000000000000000000000000000000001",
                    "revert": false,
                    "revertMessage": "",
                    "selector": "0xa9059cbb",
                    "status": true,
                    "value": "0"
                },
                "nodeType": 0
            },
            "1": {
                "event": {
                    "contract": "0xd7b2c1a7f3c67fb0ea57a7ef29bc1f18d7be3195",
                    "decodedLog": {
                        "name": "Transfer",
                        "params": [
                            {
                                "name": "from",
                                "type": "address",
                                "value": "0x224d6d16728c845fde6f526233176c01a73741c5"
                            },
                            {
                                "name": "to",
                                "type": "address",
                                "value": "0x1ab4973a48dc892cd9971ece8e01dcc7688f8f23"
                            },
                            {
                                "decimalAvailable": true,
                                "name": "value",
                                "type": "uint256",
                                "value": "4,200,000,000,000,000,000,000"
                            }
                        ],
                        "signature": "Transfer(address,address,uint256)"
                    },
                    "id": 1,
                    "logData": "0x0000000000000000000000000000000000000000000000e3aeb5737240a00000",
                    "logDecoded": true,
                    "operation": "EVENT",
                    "revert": false,
                    "status": true,
                    "topics": [
                        "0xddf252ad1be2c89b69c2b068fc378daa952ba7f163c4a11628f55a4df523b3ef",
                        "0x000000000000000000000000224d6d16728c845fde6f526233176c01a73741c5",
                        "0x0000000000000000000000001ab4973a48dc892cd9971ece8e01dcc7688f8f23"
                    ]
                },
                "nodeType": 1
            }
        },
        "gasFlame": [
            {
                "children": [
                    {
                        "children": [
                            {
                                "children": [],
                                "depth": 0,
                                "name": "Initial Gas",
                                "value": 21644
                            },
                            {
                                "children": [],
                                "depth": 0,
                                "name": "Executed Gas",
                                "value": 15028
                            }
                        ],
                        "depth": -1,
                        "name": "Actual Gas Used",
                        "value": 31872
                    },
                    {
                        "children": [],
                        "depth": -1,
                        "name": "Refunded Gas",
                        "value": 4800
                    }
                ],
                "depth": -2,
                "name": "Total Gas",
                "value": 36672
            }
        ],
        "isConfirmed": true,
        "mainTrace": [
            {
                "children": [
                    {
                        "children": [
                            {
                                "children": [],
                                "depth": 1,
                                "id": 1,
                                "order": 1
                            }
                        ],
                        "depth": 0,
                        "id": 0,
                        "order": 0
                    }
                ],
                "depth": -1,
                "id": -1,
                "order": -1
            }
        ],
        "mainTraceNodeCount": 2,
        "parentIdMap": {
            "0": -1,
            "1": 0
        },
        "tidyTrace": [
            {
                "children": [
                    {
                        "children": [
                            {
                                "children": [],
                                "depth": 1,
                                "id": 1,
                                "order": 1
                            }
                        ],
                        "depth": 0,
                        "id": 0,
                        "order": 0
                    }
                ],
                "depth": -1,
                "id": -1,
                "order": -1
            }
        ],
        "tidyTraceNodeCount": 2
    },
    "state_change": {
        "stateChanges": [
            {
                "address": "0xd7b2c1a7f3c67fb0ea57a7ef29bc1f18d7be3195",
                "erc": "ERC-20",
                "slots": [
                    {
                        "current": "0x0000000000000000000000000000000000000000000000000000000000000000",
                        "key": "0x66d0de1a342c148987718597284efe61a852f9c4f6ba3ccaed27065342cfcf88",
                        "prev": "0x0000000000000000000000000000000000000000000000e3aeb5737240a00000"
                    },
                    {
                        "current": "0x0000000000000000000000000000000000000000000fc35e482c364b62d88680",
                        "key": "0x52d99b4087d9f300b91845813587ac5163c9fc5fa14ee3462835280bdd07efa7",
                        "prev": "0x0000000000000000000000000000000000000000000fc27a9976c2d922388680"
                    }
                ],
                "storageVariables": [
                    {
                        "name": "_balances",
                        "type": "mapping(address => uint256)",
                        "value": {
                            "pairs": [
                                {
                                    "key": "0x1ab4973a48dc892cd9971ece8e01dcc7688f8f23",
                                    "value": {
                                        "current": "19056487952913314250000000",
                                        "prev": "19052287952913314250000000",
                                        "typeTag": 1
                                    }
                                },
                                {
                                    "key": "0x224d6d16728c845fde6f526233176c01a73741c5",
                                    "value": {
                                        "current": "0",
                                        "prev": "4200000000000000000000",
                                        "typeTag": 1
                                    }
                                }
                            ],
                            "typeTag": 4
                        }
                    }
                ]
            }
        ]
    }
}