{
    "balance_change": {
        "balanceChanges": [
            {
                "account": "0x72298bd3ed75e0aa289ad61c6390596d60ffdcef",
                "assets": [
                    {
                        "address": "0xeeeeeeeeeeeeeeeeeeeeeeeeeeeeeeeeeeeeeeee",
                        "amount": "0.40546292",
                        "iconUrl": "https://assets.blocksec.com/image/1663669189317-3.png",
                        "isERC1155": false,
                        "isERC721": false,
                        "sign": false,
                        "value": "670.0274753"
                    }
                ]
            },
            {
                "account": "0xb9a675f79f019bf67a41ac9430c862ed9eb2a71f",
                "assets": [
                    {
                        "address": "0xeeeeeeeeeeeeeeeeeeeeeeeeeeeeeeeeeeeeeeee",
                        "amount": "0.40546292",
                        "iconUrl": "https://assets.blocksec.com/image/1663669189317-3.png",
                        "isERC1155": false,
                        "isERC721": false,
                        "sign": true,
                        "value": "670.0274753"
                    }
                ]
            }
        ]
    },
    "profile": {
        "basic_info": {
            "baseFee": "22.213568368",
            "blockNumber": 18235779,
            "callData": "0x39125215000000000000000000000000b9a675f79f019bf67a41ac9430c862ed9eb2a71f00000000000000000000000000000000000000000000000005a07e60a431500000000000000000000000000000000000000000000000000000000000000000c000000000000000000000000000000000000000000000000000000000651ef4d50000000000000000000000000000000000000000000000000000000000006d5300000000000000000000000000000000000000000000000000000000000000e00000000000000000000000000000000000000000000000000000000000000000000000000000000000000000000000000000000000000000000000000000004106ae7356c1f35abef59768d1ca74b4c6eca8f872d93909bcf57e43de9bf1bf112b55d87334f8732ddd6390492d0c9964d0bdc3c3c060ee2a723dbf82d5de53ba1c00000000000000000000000000000000000000000000000000000000000000",
            "debugEnable": true,
            "errorInfo": "",
            "eventCount": 1,
            "feeRecipient": "0x95222290dd7278aa3ddd389cc1e1d165cc4bafe5",
            "formatValue": "0",
            "gasLimit": 154040,
            "gasPrice": "23.363568368",
            "gasUsed": 84040,
            "intTxnCount": 2,
            "internalRevert": false,
            "internalRevertMessage": "",
            "isContractCreation": false,
            "isFlashloan": false,
            "maxFee": "44.661205472",
            "nonce": 44285,
            "overwritedBlockNumber": -1,
            "priorityFee": "1.15",
            "receiver": "0x72298bd3ed75e0aa289ad61c6390596d60ffdcef",
            "revertMessage": "",
            "sender": "0x9846ccad919446c1cce8a1aabfe0a88443c4d3fb",
            "simulationEnable": true,
            "sourceTxnHash": "0xd98f1c1633c5a3b9cb91ce9d951d4ec518af3feb008719b04d13f63e5500c4c9",
            "status": true,
            "timestamp": "2023-09-28T17:39:59Z",
            "transactionFee": "0.00196347428564672",
            "txnHash": "0xd98f1c1633c5a3b9cb91ce9d951d4ec518af3feb008719b04d13f63e5500c4c9",
            "txnIndex": 78,
            "type": 2,
            "value": "0"
        },
        "fund_flow": [
            {
                "amount": "0.40546292",
                "from": "0x72298bd3ed75e0aa289ad61c6390596d60ffdcef",
                "id": 1,
                "isERC1155": false,
                "isERC721": false,
                "isReverted": false,
                "order": 1,
                "to": "0xb9a675f79f019bf67a41ac9430c862ed9eb2a71f",
                "token": "0xeeeeeeeeeeeeeeeeeeeeeeeeeeeeeeeeeeeeeeee"
            }
        ],
        "token_infos": [
            {
                "address": "0xc02aaa39b223fe8d0a0e5c4f27ead9083c756cc2",
                "decimals": 18
            },
            {
                "address": "0xeeeeeeeeeeeeeeeeeeeeeeeeeeeeeeeeeeeeeeee",
                "decimals": 18
            }
        ]
    },
    "address_label": {
        "labels": [
            {
                "address": "0x0000000000000000000000000000000000000001",
                "label": "Precompiled"
            },
            {
                "address": "0x0000000000000000000000000000000000000002",
                "label": "Precompiled"
            },
            {
                "address": "0x0000000000000000000000000000000000000003",
                "label": "Precompiled"
            },
            {
                "address": "0x0000000000000000000000000000000000000004",
                "label": "Precompiled"
            },
            {
                "address": "0xeeeeeeeeeeeeeeeeeeeeeeeeeeeeeeeeeeeeeeee",
                "label": "Ether"
            },
            {
                "address": "0xb9a675f79f019bf67a41ac9430c862ed9eb2a71f",
                "label": "BINANCE"
            }
        ]
    },
    "trace": {
        "accountLabels": null,
        "dataMap": {
            "-1": {
                "invocation": {
                    "address": "0x9846ccad919446c1cce8a1aabfe0a88443c4d3fb",
                    "callData": "",
                    "decodedMethod": null,
                    "errorInfo": "",
                    "fromAddress": "",
                    "gasUsed": 0,
                    "id": -1,
                    "methodDecoded": false,
                    "operation": "",
                    "output": "",
                    "revert": false,
                    "revertMessage": "",
                    "selector": "",
                    "status": false,
                    "value": ""
                },
                "nodeType": 0
            },
            "0": {
                "invocation": {
                    "address": "0x72298bd3ed75e0aa289ad61c6390596d60ffdcef",
                    "callData": "0x000000000000000000000000b9a675f79f019bf67a41ac9430c862ed9eb2a71f00000000000000000000000000000000000000000000000005a07e60a431500000000000000000000000000000000000000000000000000000000000000000c000000000000000000000000000000000000000000000000000000000651ef4d50000000000000000000000000000000000000000000000000000000000006d5300000000000000000000000000000000000000000000000000000000000000e00000000000000000000000000000000000000000000000000000000000000000000000000000000000000000000000000000000000000000000000000000004106ae7356c1f35abef59768d1ca74b4c6eca8f872d93909bcf57e43de9bf1bf112b55d87334f8732ddd6390492d0c9964d0bdc3c3c060ee2a723dbf82d5de53ba1c00000000000000000000000000000000000000000000000000000000000000",
                    "decodedMethod": {
                        "callParams": [
                            {
                                "name": "toAddress",
                                "type": "address",
                                "value": "0xb9a675f79f019bf67a41ac9430c862ed9eb2a71f"
                            },
                            {
                                "name": "value",
                                "type": "uint256",
                                "value": "405,462,920,000,000,000"
                            },
                            {
                                "name": "data",
                                "type": "bytes",
                                "value": "0x"
                            },
                            {
                                "name": "expireTime",
                                "type": "uint256",
                                "value": "1,696,527,573"
                            },
                            {
                                "name": "sequenceId",
                                "type": "uint256",
                                "value": "27,987"
                            },
                            {
                                "name": "signature",
                                "type": "bytes",
                                "value": "0x06ae7356c1f35abef59768d1ca74b4c6eca8f872d93909bcf57e43de9bf1bf112b55d87334f8732ddd6390492d0c9964d0bdc3c3c060ee2a723dbf82d5de53ba1c"
                            }
                        ],
                        "constructorArguments": "",
                        "name": "sendMultiSig",
                        "returnParams": [],
                        "signature": "sendMultiSig(address,uint256,bytes,uint256,uint256,bytes)"
                    },
                    "errorInfo": "",
                    "fromAddress": "0x9846ccad919446c1cce8a1aabfe0a88443c4d3fb",
                    "gasUsed": 84040,
                    "id": 0,
                    "methodDecoded": true,
                    "operation": "CALL",
                    "output": "",
                    "revert": false,
                    "revertMessage": "",
                    "selector": "0x39125215",
                    "status": true,
                    "value": "0"
                },
                "nodeType": 0
            },
            "1": {
                "invocation": {
                    "address": "0x0000000000000000000000000000000000000001",
                    "callData": "0x46c6e41560844ddd8d4da49b0ed39450677fb01c297f0ed47c5c168f000000000000000000000000000000000000000000000000000000000000001c06ae7356c1f35abef59768d1ca74b4c6eca8f872d93909bcf57e43de9bf1bf112b55d87334f8732ddd6390492d0c9964d0bdc3c3c060ee2a723dbf82d5de53ba",
                    "decodedMethod": {
                        "callParams": [
                            {
                                "name": "hash",
                                "type": "bytes32",
                                "value": "0x469de4d246c6e41560844ddd8d4da49b0ed39450677fb01c297f0ed47c5c168f"
                            },
                            {
                                "name": "v",
                                "type": "uint256",
                                "value": "28"
                            },
                            {
                                "name": "r",
                                "type": "bytes32",
                                "value": "0x06ae7356c1f35abef59768d1ca74b4c6eca8f872d93909bcf57e43de9bf1bf11"
                            },
                            {
                                "name": "s",
                                "type": "bytes32",
                                "value": "0x2b55d87334f8732ddd6390492d0c9964d0bdc3c3c060ee2a723dbf82d5de53ba"
                            }
                        ],
                        "constructorArguments": "",
                        "name": "ecrecover",
                        "returnParams": [
                            {
                                "name": "",
                                "type": "address",
                                "value": "0xb29d6325740f4937dbb0702399f1824bcd55150a"
                            }
                        ],
                        "signature": "ecrecover(bytes32,uint256,bytes32,bytes32)"
                    },
                    "errorInfo": "",
                    "fromAddress": "0x72298bd3ed75e0aa289ad61c6390596d60ffdcef",
                    "gasUsed": 3000,
                    "id": 1,
                    "methodDecoded": true,
                    "operation": "CALL",
                    "output": "0x000000000000000000000000b29d6325740f4937dbb0702399f1824bcd55150a",
                    "revert": false,
                    "revertMessage": "",
                    "selector": "0x469de4d2",
                    "status": true,
                    "value": "0"
                },
                "nodeType": 0
            },
            "2": {
                "invocation": {
                    "address": "0xb9a675f79f019bf67a41ac9430c862ed9eb2a71f",
                    "callData": "0x",
                    "decodedMethod": null,
                    "errorInfo": "",
                    "fromAddress": "0x72298bd3ed75e0aa289ad61c6390596d60ffdcef",
                    "gasUsed": 0,
                    "id": 2,
                    "methodDecoded": false,
                    "operation": "CALL",
                    "output": "",
                    "revert": false,
                    "revertMessage": "",
                    "selector": "fallback",
                    "status": true,
                    "value": "0.40546292"
                },
                "nodeType": 0
            },
            "3": {
                "event": {
                    "contract": "0x72298bd3ed75e0aa289ad61c6390596d60ffdcef",
                    "decodedLog": {
                        "name": "Transacted",
                        "params": [
                            {
                                "name": "msgSender",
                                "type": "address",
                                "value": "0x9846ccad919446c1cce8a1aabfe0a88443c4d3fb"
                            },
                            {
                                "name": "otherSigner",
                                "type": "address",
                                "value": "0xb29d6325740f4937dbb0702399f1824bcd55150a"
                            },
                            {
                                "name": "operation",
                                "type": "bytes32",
                                "value": "0x469de4d246c6e41560844ddd8d4da49b0ed39450677fb01c297f0ed47c5c168f"
                            },
                            {
                                "name": "toAddress",
                                "type": "address",
                                "value": "0xb9a675f79f019bf67a41ac9430c862ed9eb2a71f"
                            },
                            {
                                "name": "value",
                                "type": "uint256",
                                "value": "405,462,920,000,000,000"
                            },
                            {
                                "name": "data",
                                "type": "bytes",
                                "value": "0x"
                            }
                        ],
                        "signature": "Transacted(address,address,bytes32,address,uint256,bytes)"
                    },
                    "id": 3,
                    "logData": "0x0000000000000000000000009846ccad919446c1cce8a1aabfe0a88443c4d3fb000000000000000000000000b29d6325740f4937dbb0702399f1824bcd55150a469de4d246c6e41560844ddd8d4da49b0ed39450677fb01c297f0ed47c5c168f000000000000000000000000b9a675f79f019bf67a41ac9430c862ed9eb2a71f00000000000000000000000000000000000000000000000005a07e60a431500000000000000000000000000000000000000000000000000000000000000000c00000000000000000000000000000000000000000000000000000000000000000",
                    "logDecoded": true,
                    "operation": "EVENT",
                    "revert": false,
                    "status": true,
                    "topics": [
                        "0x59bed9ab5d78073465dd642a9e3e76dfdb7d53bcae9d09df7d0b8f5234d5a806"
                    ]
                },
                "nodeType": 1
            }
        },
        "gasFlame": [
            {
                "children": [
                    {
                        "children": [
                            {
                                "children": [],
                                "depth": 0,
                                "name": "Initial Gas",
                                "value": 23684
                            },
                            {
                                "children": [
                                    {
                                        "children": [],
                                        "depth": 1,
                                        "name": "ecrecover",
                                        "value": 3000
                                    },
                                    {
                                        "children": [],
                                        "depth": 1,
                                        "name": "fallback",
                                        "value": 0
                                    }
                                ],
                                "depth": 0,
                                "name": "Executed Gas",
                                "value": 60356
                            }
                        ],
                        "depth": -1,
                        "name": "Actual Gas Used",
                        "value": 84040
                    },
                    {
                        "children": [],
                        "depth": -1,
                        "name": "Refunded Gas",
                        "value": 0
                    }
                ],
                "depth": -2,
                "name": "Total Gas",
                "value": 84040
            }
        ],
        "isConfirmed": true,
        "mainTrace": [
            {
                "children": [
                    {
                        "children": [
                            {
                                "children": [],
                                "depth": 1,
                                "id": 1,
                                "order": 1
                            },
                            {
                                "children": [],
                                "depth": 1,
                                "id": 2,
                                "order": 2
                            },
                            {
                                "children": [],
                                "depth": 1,
                                "id": 3,
                                "order": 3
                            }
                        ],
                        "depth": 0,
                        "id": 0,
                        "order": 0
                    }
                ],
                "depth": -1,
                "id": -1,
                "order": -1
            }
        ],
        "mainTraceNodeCount": 4,
        "parentIdMap": {
            "0": -1,
            "1": 0,
            "2": 0,
            "3": 0
        },
        "tidyTrace": [
            {
                "children": [
                    {
                        "children": [
                            {
                                "children": [],
                                "depth": 1,
                                "id": 1,
                                "order": 1
                            },
                            {
                                "children": [],
                                "depth": 1,
                                "id": 2,
                                "order": 2
                            },
                            {
                                "children": [],
                                "depth": 1,
                                "id": 3,
                                "order": 3
                            }
                        ],
                        "depth": 0,
                        "id": 0,
                        "order": 0
                    }
                ],
                "depth": -1,
                "id": -1,
                "order": -1
            }
        ],
        "tidyTraceNodeCount": 4
    },
    "state_change": {
        "stateChanges": [
            {
                "address": "0x72298bd3ed75e0aa289ad61c6390596d60ffdcef",
                "erc": "",
                "slots": [
                    {
                        "current": "0x0000000000000000000000000000000000000000000000000000000000006d53",
                        "key": "0x0000000000000000000000000000000000000000000000000000000000000005",
                        "prev": "0x0000000000000000000000000000000000000000000000000000000000006d49"
                    }
                ],
                "storageVariables": []
            }
        ]
    }
}