{
    "balance_change": {
        "balanceChanges": [
            {
                "account": "0xb46527505ddb8f10f7b65d9fcf00b28dcbad4746",
                "assets": [
                    {
                        "address": "0x5e6016ae7d7c49d347dcf834860b9f3ee282812b",
                        "amount": "1",
                        "iconUrl": "",
                        "isERC1155": false,
                        "isERC721": false,
                        "sign": false,
                        "value": ""
                    }
                ]
            },
            {
                "account": "0x2984581ece53a4390d1f568673cf693139c97049",
                "assets": [
                    {
                        "address": "0x5e6016ae7d7c49d347dcf834860b9f3ee282812b",
                        "amount": "1",
                        "iconUrl": "",
                        "isERC1155": false,
                        "isERC721": false,
                        "sign": true,
                        "value": ""
                    }
                ]
            }
        ]
    },
    "profile": {
        "basic_info": {
            "baseFee": "",
            "blockNumber": 5854964,
            "callData": "0xa9059cbb0000000000000000000000002984581ece53a4390d1f568673cf693139c970490000000000000000000000000000000000000000000000000000000005f5e100",
            "debugEnable": true,
            "errorInfo": "",
            "eventCount": 1,
            "feeRecipient": "0x829bd824b016326a401d083b33d092293333a830",
            "formatValue": "0",
            "gasLimit": 150000,
            "gasPrice": "10",
            "gasUsed": 22628,
            "intTxnCount": 0,
            "internalRevert": false,
            "internalRevertMessage": "",
            "isContractCreation": false,
            "isFlashloan": false,
            "maxFee": "",
            "nonce": 0,
            "overwritedBlockNumber": -1,
            "priorityFee": "",
            "receiver": "0x5e6016ae7d7c49d347dcf834860b9f3ee282812b",
            "revertMessage": "",
            "sender": "0xb46527505ddb8f10f7b65d9fcf00b28dcbad4746",
            "simulationEnable": true,
            "sourceTxnHash": "0xd9651832516dff054fa9c3445dc1776575fae41a19be396bb2757cf098b3e7b9",
            "status": true,
            "timestamp": "2018-06-26T02:02:44Z",
            "transactionFee": "0.00022628",
            "txnHash": "0xd9651832516dff054fa9c3445dc1776575fae41a19be396bb2757cf098b3e7b9",
            "txnIndex": 38,
            "type": 0,
            "value": "0"
        },
        "fund_flow": [
            {
                "amount": "1",
                "from": "0xb46527505ddb8f10f7b65d9fcf00b28dcbad4746",
                "id": 1,
                "isERC1155": false,
                "isERC721": false,
                "isReverted": false,
                "order": 1,
                "to": "0x2984581ece53a4390d1f568673cf693139c97049",
                "token": "0x5e6016ae7d7c49d347dcf834860b9f3ee282812b"
            }
        ],
        "token_infos": [
            {
                "address": "0x5e6016ae7d7c49d347dcf834860b9f3ee282812b",
                "decimals": 8
            },
            {
                "address": "0xc02aaa39b223fe8d0a0e5c4f27ead9083c756cc2",
                "decimals": 18
            },
            {
                "address": "0xeeeeeeeeeeeeeeeeeeeeeeeeeeeeeeeeeeeeeeee",
                "decimals": 18
            }
        ]
    },
    "address_label": {
        "labels": [
            {
                "address": "0x0000000000000000000000000000000000000003",
                "label": "Precompiled"
            },
            {
                "address": "0x0000000000000000000000000000000000000004",
                "label": "Precompiled"
            },
            {
                "address": "0xeeeeeeeeeeeeeeeeeeeeeeeeeeeeeeeeeeeeeeee",
                "label": "Ether"
            },
            {
                "address": "0x2984581ece53a4390d1f568673cf693139c97049",
                "label": "Cryptopia 2"
            },
            {
                "address": "0xb46527505ddb8f10f7b65d9fcf00b28dcbad4746",
                "label": "CRYPTOPIA"
            },
            {
                "address": "0x5e6016ae7d7c49d347dcf834860b9f3ee282812b",
                "label": "EZToken (EZT)"
            },
            {
                "address": "0x0000000000000000000000000000000000000001",
                "label": "Precompiled"
            },
            {
                "address": "0x0000000000000000000000000000000000000002",
                "label": "Precompiled"
            }
        ]
    },
    "trace": {
        "accountLabels": null,
        "dataMap": {
            "-1": {
                "invocation": {
                    "address": "0xb46527505ddb8f10f7b65d9fcf00b28dcbad4746",
                    "callData": "",
                    "decodedMethod": null,
                    "errorInfo": "",
                    "fromAddress": "",
                    "gasUsed": 0,
                    "id": -1,
                    "methodDecoded": false,
                    "operation": "",
                    "output": "",
                    "revert": false,
                    "revertMessage": "",
                    "selector": "",
                    "status": false,
                    "value": ""
                },
                "nodeType": 0
            },
            "0": {
                "invocation": {
                    "address": "0x5e6016ae7d7c49d347dcf834860b9f3ee282812b",
                    "callData": "0x0000000000000000000000002984581ece53a4390d1f568673cf693139c970490000000000000000000000000000000000000000000000000000000005f5e100",
                    "decodedMethod": {
                        "callParams": [
                            {
                                "name": "_to",
                                "type": "address",
                                "value": "0x2984581ece53a4390d1f568673cf693139c97049"
                            },
                            {
                                "decimalAvailable": true,
                                "name": "_value",
                                "type": "uint256",
                                "value": "100,000,000"
                            }
                        ],
                        "constructorArguments": "",
                        "name": "transfer",
                        "returnParams": [
                            {
                                "name": "",
                                "type": "bool",
                                "value": true
                            }
                        ],
                        "signature": "transfer(address,uint256)"
                    },
                    "errorInfo": "",
                    "fromAddress": "0xb46527505ddb8f10f7b65d9fcf00b28dcbad4746",
                    "gasUsed": 22628,
                    "id": 0,
                    "methodDecoded": true,
                    "operation": "CALL",
                    "output": "0x0000000000000000000000000000000000000000000000000000000000000001",
                    "revert": false,
                    "revertMessage": "",
                    "selector": "0xa9059cbb",
                    "status": true,
                    "value": "0"
                },
                "nodeType": 0
            },
            "1": {
                "event": {
                    "contract": "0x5e6016ae7d7c49d347dcf834860b9f3ee282812b",
                    "decodedLog": {
                        "name": "Transfer",
                        "params": [
                            {
                                "name": "from",
                                "type": "address",
                                "value": "0xb46527505ddb8f10f7b65d9fcf00b28dcbad4746"
                            },
                            {
                                "name": "to",
                                "type": "address",
                                "value": "0x2984581ece53a4390d1f568673cf693139c97049"
                            },
                            {
                                "decimalAvailable": true,
                                "name": "value",
                                "type": "uint256",
                                "value": "100,000,000"
                            }
                        ],
                        "signature": "Transfer(address,address,uint256)"
                    },
                    "id": 1,
                    "logData": "0x0000000000000000000000000000000000000000000000000000000005f5e100",
                    "logDecoded": true,
                    "operation": "EVENT",
                    "revert": false,
                    "status": true,
                    "topics": [
                        "0xddf252ad1be2c89b69c2b068fc378daa952ba7f163c4a11628f55a4df523b3ef",
                        "0x000000000000000000000000b46527505ddb8f10f7b65d9fcf00b28dcbad4746",
                        "0x0000000000000000000000002984581ece53a4390d1f568673cf693139c97049"
                    ]
                },
                "nodeType": 1
            }
        },
        "gasFlame": [
            {
                "children": [
                    {
                        "children": [
                            {
                                "children": [],
                                "depth": 0,
                                "name": "Initial Gas",
                                "value": 23000
                            },
                            {
                                "children": [],
                                "depth": 0,
                                "name": "Executed Gas",
                                "value": 14628
                            }
                        ],
                        "depth": -1,
                        "name": "Actual Gas Used",
                        "value": 22628
                    },
                    {
                        "children": [],
                        "depth": -1,
                        "name": "Refunded Gas",
                        "value": 15000
                    }
                ],
                "depth": -2,
                "name": "Total Gas",
                "value": 37628
            }
        ],
        "isConfirmed": true,
        "mainTrace": [
            {
                "children": [
                    {
                        "children": [
                            {
                                "children": [],
                                "depth": 1,
                                "id": 1,
                                "order": 1
                            }
                        ],
                        "depth": 0,
                        "id": 0,
                        "order": 0
                    }
                ],
                "depth": -1,
                "id": -1,
                "order": -1
            }
        ],
        "mainTraceNodeCount": 2,
        "parentIdMap": {
            "0": -1,
            "1": 0
        },
        "tidyTrace": [
            {
                "children": [
                    {
                        "children": [
                            {
                                "children": [],
                                "depth": 1,
                                "id": 1,
                                "order": 1
                            }
                        ],
                        "depth": 0,
                        "id": 0,
                        "order": 0
                    }
                ],
                "depth": -1,
                "id": -1,
                "order": -1
            }
        ],
        "tidyTraceNodeCount": 2
    },
    "state_change": {
        "stateChanges": [
            {
                "address": "0x5e6016ae7d7c49d347dcf834860b9f3ee282812b",
                "erc": "ERC-20",
                "slots": [
                    {
                        "current": "0x0000000000000000000000000000000000000000000000000000000000000000",
                        "key": "0x8f3138df86057bf69a724405c02c6b34100e5b76a0396bf423ddd9b7ebf31463",
                        "prev": "0x0000000000000000000000000000000000000000000000000000000005f5e100"
                    },
                    {
                        "current": "0x00000000000000000000000000000000000000000000000000000256de453e1f",
                        "key": "0x98962b1a46ecbe855d5c1b7829eb3a6d66e577b695303317ee2789c708aca14c",
                        "prev": "0x00000000000000000000000000000000000000000000000000000256d84f5d1f"
                    }
                ],
                "storageVariables": [
                    {
                        "name": "balances",
                        "type": "mapping(address => uint256)",
                        "value": {
                            "pairs": [
                                {
                                    "key": "0x2984581ece53a4390d1f568673cf693139c97049",
                                    "value": {
                                        "current": "2572119522847",
                                        "prev": "2572019522847",
                                        "typeTag": 1
                                    }
                                },
                                {
                                    "key": "0xb46527505ddb8f10f7b65d9fcf00b28dcbad4746",
                                    "value": {
                                        "current": "0",
                                        "prev": "100000000",
                                        "typeTag": 1
                                    }
                                }
                            ],
                            "typeTag": 4
                        }
                    }
                ]
            }
        ]
    }
}