{
    "balance_change": {
        "balanceChanges": [
            {
                "account": "0x618ffd1cdabee36ce5992a857cc7463f21272bd7",
                "assets": [
                    {
                        "address": "0x3845badade8e6dff049820680d1f14bd3903a5d0",
                        "amount": "7,022",
                        "iconUrl": "https://assets.blocksec.com/icon/7cbe910ee62b95d006cdf0f6bff21064470697470c1007c6bbb0744d19bfd504.png",
                        "isERC1155": false,
                        "isERC721": false,
                        "sign": false,
                        "value": "4416.838000000000025"
                    }
                ]
            },
            {
                "account": "0xe580d2d9a51b4296b95c42bb78c1e976d0f16f4b",
                "assets": [
                    {
                        "address": "0x3845badade8e6dff049820680d1f14bd3903a5d0",
                        "amount": "7,022",
                        "iconUrl": "https://assets.blocksec.com/icon/7cbe910ee62b95d006cdf0f6bff21064470697470c1007c6bbb0744d19bfd504.png",
                        "isERC1155": false,
                        "isERC721": false,
                        "sign": true,
                        "value": "4416.838000000000025"
                    }
                ]
            }
        ]
    },
    "profile": {
        "basic_info": {
            "baseFee": "26.469373461",
            "blockNumber": 16938282,
            "callData": "0xa9059cbb000000000000000000000000e580d2d9a51b4296b95c42bb78c1e976d0f16f4b00000000000000000000000000000000000000000000017ca9d373d978f80000",
            "debugEnable": true,
            "errorInfo": "",
            "eventCount": 1,
            "feeRecipient": "0x388c818ca8b9251b393131c08a736a67ccb19297",
            "formatValue": "0",
            "gasLimit": 120000,
            "gasPrice": "27.469373461",
            "gasUsed": 51336,
            "intTxnCount": 0,
            "internalRevert": false,
            "internalRevertMessage": "",
            "isContractCreation": false,
            "isFlashloan": false,
            "maxFee": "33",
            "nonce": 365667,
            "overwritedBlockNumber": -1,
            "priorityFee": "1",
            "receiver": "0x3845badade8e6dff049820680d1f14bd3903a5d0",
            "revertMessage": "",
            "sender": "0x618ffd1cdabee36ce5992a857cc7463f21272bd7",
            "simulationEnable": true,
            "sourceTxnHash": "0xda0253259dc08cc8aea9e825e084e1b9ca3b868712a1b567b6fe3ce6a51126b1",
            "status": true,
            "timestamp": "2023-03-30T06:28:47Z",
            "transactionFee": "0.001410167755993896",
            "txnHash": "0xda0253259dc08cc8aea9e825e084e1b9ca3b868712a1b567b6fe3ce6a51126b1",
            "txnIndex": 72,
            "type": 2,
            "value": "0"
        },
        "fund_flow": [
            {
                "amount": "7,022",
                "from": "0x618ffd1cdabee36ce5992a857cc7463f21272bd7",
                "id": 1,
                "isERC1155": false,
                "isERC721": false,
                "isReverted": false,
                "order": 1,
                "to": "0xe580d2d9a51b4296b95c42bb78c1e976d0f16f4b",
                "token": "0x3845badade8e6dff049820680d1f14bd3903a5d0"
            }
        ],
        "token_infos": [
            {
                "address": "0x3845badade8e6dff049820680d1f14bd3903a5d0",
                "decimals": 18
            },
            {
                "address": "0xc02aaa39b223fe8d0a0e5c4f27ead9083c756cc2",
                "decimals": 18
            },
            {
                "address": "0xeeeeeeeeeeeeeeeeeeeeeeeeeeeeeeeeeeeeeeee",
                "decimals": 18
            }
        ]
    },
    "address_label": {
        "labels": [
            {
                "address": "0x3845badade8e6dff049820680d1f14bd3903a5d0",
                "label": "The Sandbox: SAND Token"
            },
            {
                "address": "0xe580d2d9a51b4296b95c42bb78c1e976d0f16f4b",
                "label": "BINANCE"
            },
            {
                "address": "0x388c818ca8b9251b393131c08a736a67ccb19297",
                "label": "LidoExecutionLayerRewardsVault"
            },
            {
                "address": "0x0000000000000000000000000000000000000001",
                "label": "Precompiled"
            },
            {
                "address": "0x0000000000000000000000000000000000000002",
                "label": "Precompiled"
            },
            {
                "address": "0x0000000000000000000000000000000000000003",
                "label": "Precompiled"
            },
            {
                "address": "0x0000000000000000000000000000000000000004",
                "label": "Precompiled"
            },
            {
                "address": "0xeeeeeeeeeeeeeeeeeeeeeeeeeeeeeeeeeeeeeeee",
                "label": "Ether"
            }
        ]
    },
    "trace": {
        "accountLabels": null,
        "dataMap": {
            "-1": {
                "invocation": {
                    "address": "0x618ffd1cdabee36ce5992a857cc7463f21272bd7",
                    "callData": "",
                    "decodedMethod": null,
                    "errorInfo": "",
                    "fromAddress": "",
                    "gasUsed": 0,
                    "id": -1,
                    "methodDecoded": false,
                    "operation": "",
                    "output": "",
                    "revert": false,
                    "revertMessage": "",
                    "selector": "",
                    "status": false,
                    "value": ""
                },
                "nodeType": 0
            },
            "0": {
                "invocation": {
                    "address": "0x3845badade8e6dff049820680d1f14bd3903a5d0",
                    "callData": "0x000000000000000000000000e580d2d9a51b4296b95c42bb78c1e976d0f16f4b00000000000000000000000000000000000000000000017ca9d373d978f80000",
                    "decodedMethod": {
                        "callParams": [
                            {
                                "name": "to",
                                "type": "address",
                                "value": "0xe580d2d9a51b4296b95c42bb78c1e976d0f16f4b"
                            },
                            {
                                "decimalAvailable": true,
                                "name": "amount",
                                "type": "uint256",
                                "value": "7,022,000,000,000,000,000,000"
                            }
                        ],
                        "constructorArguments": "",
                        "name": "transfer",
                        "returnParams": [
                            {
                                "name": "success",
                                "type": "bool",
                                "value": true
                            }
                        ],
                        "signature": "transfer(address,uint256)"
                    },
                    "errorInfo": "",
                    "fromAddress": "0x618ffd1cdabee36ce5992a857cc7463f21272bd7",
                    "gasUsed": 51336,
                    "id": 0,
                    "methodDecoded": true,
                    "operation": "CALL",
                    "output": "0x0000000000000000000000000000000000000000000000000000000000000001",
                    "revert": false,
                    "revertMessage": "",
                    "selector": "0xa9059cbb",
                    "status": true,
                    "value": "0"
                },
                "nodeType": 0
            },
            "1": {
                "event": {
                    "contract": "0x3845badade8e6dff049820680d1f14bd3903a5d0",
                    "decodedLog": {
                        "name": "Transfer",
                        "params": [
                            {
                                "name": "from",
                                "type": "address",
                                "value": "0x618ffd1cdabee36ce5992a857cc7463f21272bd7"
                            },
                            {
                                "name": "to",
                                "type": "address",
                                "value": "0xe580d2d9a51b4296b95c42bb78c1e976d0f16f4b"
                            },
                            {
                                "decimalAvailable": true,
                                "name": "value",
                                "type": "uint256",
                                "value": "7,022,000,000,000,000,000,000"
                            }
                        ],
                        "signature": "Transfer(address,address,uint256)"
                    },
                    "id": 1,
                    "logData": "0x00000000000000000000000000000000000000000000017ca9d373d978f80000",
                    "logDecoded": true,
                    "operation": "EVENT",
                    "revert": false,
                    "status": true,
                    "topics": [
                        "0xddf252ad1be2c89b69c2b068fc378daa952ba7f163c4a11628f55a4df523b3ef",
                        "0x000000000000000000000000618ffd1cdabee36ce5992a857cc7463f21272bd7",
                        "0x000000000000000000000000e580d2d9a51b4296b95c42bb78c1e976d0f16f4b"
                    ]
                },
                "nodeType": 1
            }
        },
        "gasFlame": [
            {
                "children": [
                    {
                        "children": [
                            {
                                "children": [],
                                "depth": 0,
                                "name": "Initial Gas",
                                "value": 21656
                            },
                            {
                                "children": [],
                                "depth": 0,
                                "name": "Executed Gas",
                                "value": 29680
                            }
                        ],
                        "depth": -1,
                        "name": "Actual Gas Used",
                        "value": 51336
                    },
                    {
                        "children": [],
                        "depth": -1,
                        "name": "Refunded Gas",
                        "value": 0
                    }
                ],
                "depth": -2,
                "name": "Total Gas",
                "value": 51336
            }
        ],
        "isConfirmed": true,
        "mainTrace": [
            {
                "children": [
                    {
                        "children": [
                            {
                                "children": [],
                                "depth": 1,
                                "id": 1,
                                "order": 1
                            }
                        ],
                        "depth": 0,
                        "id": 0,
                        "order": 0
                    }
                ],
                "depth": -1,
                "id": -1,
                "order": -1
            }
        ],
        "mainTraceNodeCount": 2,
        "parentIdMap": {
            "0": -1,
            "1": 0
        },
        "tidyTrace": [
            {
                "children": [
                    {
                        "children": [
                            {
                                "children": [],
                                "depth": 1,
                                "id": 1,
                                "order": 1
                            }
                        ],
                        "depth": 0,
                        "id": 0,
                        "order": 0
                    }
                ],
                "depth": -1,
                "id": -1,
                "order": -1
            }
        ],
        "tidyTraceNodeCount": 2
    },
    "state_change": {
        "stateChanges": [
            {
                "address": "0x3845badade8e6dff049820680d1f14bd3903a5d0",
                "erc": "ERC-20",
                "slots": [
                    {
                        "current": "0x00000000000000000000000000000000000000000000017ca9d373d978f80000",
                        "key": "0x6af060147083079655a8680e010f36da6e4cf4e60cd87419608799d1add62c0e",
                        "prev": "0x0000000000000000000000000000000000000000000000000000000000000000"
                    },
                    {
                        "current": "0x0000000000000000000000000000000000000000000019f926ed27fbc376d000",
                        "key": "0xb519632c5d83777d2a1950fee0ae9bcba73fbf2bcf5c0b8ce8af11829d847677",
                        "prev": "0x000000000000000000000000000000000000000000001b75d0c09bd53c6ed000"
                    }
                ],
                "storageVariables": [
                    {
                        "name": "_balances",
                        "type": "mapping(address => uint256)",
                        "value": {
                            "pairs": [
                                {
                                    "key": "0x618ffd1cdabee36ce5992a857cc7463f21272bd7",
                                    "value": {
                                        "current": "122655206288200000000000",
                                        "prev": "129677206288200000000000",
                                        "typeTag": 1
                                    }
                                },
                                {
                                    "key": "0xe580d2d9a51b4296b95c42bb78c1e976d0f16f4b",
                                    "value": {
                                        "current": "7022000000000000000000",
                                        "prev": "0",
                                        "typeTag": 1
                                    }
                                }
                            ],
                            "typeTag": 4
                        }
                    }
                ]
            }
        ]
    }
}