{
    "balance_change": {
        "balanceChanges": [
            {
                "account": "0xc5ee5cf26b147c24c7c041d4df424e58e8e8cf76",
                "assets": [
                    {
                        "address": "0x33fbc07d9d9456d9e6d8316aa87792a20d3ad448",
                        "amount": "3,610.49588",
                        "iconUrl": "",
                        "isERC1155": false,
                        "isERC721": false,
                        "sign": false,
                        "value": ""
                    }
                ]
            },
            {
                "account": "0xa57e479e2fb68667de190547cd53c5f6d54b1dc8",
                "assets": [
                    {
                        "address": "0x33fbc07d9d9456d9e6d8316aa87792a20d3ad448",
                        "amount": "3,610.49588",
                        "iconUrl": "",
                        "isERC1155": false,
                        "isERC721": false,
                        "sign": true,
                        "value": ""
                    }
                ]
            }
        ]
    },
    "profile": {
        "basic_info": {
            "baseFee": "",
            "blockNumber": 7073474,
            "callData": "0xa9059cbb000000000000000000000000a57e479e2fb68667de190547cd53c5f6d54b1dc80000000000000000000000000000000000000000000000c3b9b219a20b608000",
            "debugEnable": true,
            "errorInfo": "",
            "eventCount": 1,
            "feeRecipient": "0xea674fdde714fd979de3edf0f56aa9716b898ec8",
            "formatValue": "0",
            "gasLimit": 4300000,
            "gasPrice": "10",
            "gasUsed": 37475,
            "intTxnCount": 0,
            "internalRevert": false,
            "internalRevertMessage": "",
            "isContractCreation": false,
            "isFlashloan": false,
            "maxFee": "",
            "nonce": 11567,
            "overwritedBlockNumber": -1,
            "priorityFee": "",
            "receiver": "0x33fbc07d9d9456d9e6d8316aa87792a20d3ad448",
            "revertMessage": "",
            "sender": "0xc5ee5cf26b147c24c7c041d4df424e58e8e8cf76",
            "simulationEnable": true,
            "sourceTxnHash": "0xdae6c5adb6523573c5acfb90c94540682033adffc1157281d502a791629096fd",
            "status": true,
            "timestamp": "2019-01-16T01:40:48Z",
            "transactionFee": "0.00037475",
            "txnHash": "0xdae6c5adb6523573c5acfb90c94540682033adffc1157281d502a791629096fd",
            "txnIndex": 3,
            "type": 0,
            "value": "0"
        },
        "fund_flow": [
            {
                "amount": "3,610.49588",
                "from": "0xc5ee5cf26b147c24c7c041d4df424e58e8e8cf76",
                "id": 1,
                "isERC1155": false,
                "isERC721": false,
                "isReverted": false,
                "order": 1,
                "to": "0xa57e479e2fb68667de190547cd53c5f6d54b1dc8",
                "token": "0x33fbc07d9d9456d9e6d8316aa87792a20d3ad448"
            }
        ],
        "token_infos": [
            {
                "address": "0x33fbc07d9d9456d9e6d8316aa87792a20d3ad448",
                "decimals": 18
            },
            {
                "address": "0xc02aaa39b223fe8d0a0e5c4f27ead9083c756cc2",
                "decimals": 18
            },
            {
                "address": "0xeeeeeeeeeeeeeeeeeeeeeeeeeeeeeeeeeeeeeeee",
                "decimals": 18
            }
        ]
    },
    "address_label": {
        "labels": [
            {
                "address": "0x33fbc07d9d9456d9e6d8316aa87792a20d3ad448",
                "label": "MECoin (MECoin)"
            },
            {
                "address": "0x0000000000000000000000000000000000000001",
                "label": "Precompiled"
            },
            {
                "address": "0x0000000000000000000000000000000000000002",
                "label": "Precompiled"
            },
            {
                "address": "0x0000000000000000000000000000000000000003",
                "label": "Precompiled"
            },
            {
                "address": "0x0000000000000000000000000000000000000004",
                "label": "Precompiled"
            },
            {
                "address": "0xeeeeeeeeeeeeeeeeeeeeeeeeeeeeeeeeeeeeeeee",
                "label": "Ether"
            }
        ]
    },
    "trace": {
        "accountLabels": null,
        "dataMap": {
            "-1": {
                "invocation": {
                    "address": "0xc5ee5cf26b147c24c7c041d4df424e58e8e8cf76",
                    "callData": "",
                    "decodedMethod": null,
                    "errorInfo": "",
                    "fromAddress": "",
                    "gasUsed": 0,
                    "id": -1,
                    "methodDecoded": false,
                    "operation": "",
                    "output": "",
                    "revert": false,
                    "revertMessage": "",
                    "selector": "",
                    "status": false,
                    "value": ""
                },
                "nodeType": 0
            },
            "0": {
                "invocation": {
                    "address": "0x33fbc07d9d9456d9e6d8316aa87792a20d3ad448",
                    "callData": "0x000000000000000000000000a57e479e2fb68667de190547cd53c5f6d54b1dc80000000000000000000000000000000000000000000000c3b9b219a20b608000",
                    "decodedMethod": {
                        "callParams": [
                            {
                                "name": "_to",
                                "type": "address",
                                "value": "0xa57e479e2fb68667de190547cd53c5f6d54b1dc8"
                            },
                            {
                                "decimalAvailable": true,
                                "name": "_value",
                                "type": "uint256",
                                "value": "3,610,495,880,000,000,000,000"
                            }
                        ],
                        "constructorArguments": "",
                        "name": "transfer",
                        "returnParams": [
                            {
                                "name": "",
                                "type": "bool",
                                "value": true
                            }
                        ],
                        "signature": "transfer(address,uint256)"
                    },
                    "errorInfo": "",
                    "fromAddress": "0xc5ee5cf26b147c24c7c041d4df424e58e8e8cf76",
                    "gasUsed": 37475,
                    "id": 0,
                    "methodDecoded": true,
                    "operation": "CALL",
                    "output": "0x0000000000000000000000000000000000000000000000000000000000000001",
                    "revert": false,
                    "revertMessage": "",
                    "selector": "0xa9059cbb",
                    "status": true,
                    "value": "0"
                },
                "nodeType": 0
            },
            "1": {
                "event": {
                    "contract": "0x33fbc07d9d9456d9e6d8316aa87792a20d3ad448",
                    "decodedLog": {
                        "name": "Transfer",
                        "params": [
                            {
                                "name": "from",
                                "type": "address",
                                "value": "0xc5ee5cf26b147c24c7c041d4df424e58e8e8cf76"
                            },
                            {
                                "name": "to",
                                "type": "address",
                                "value": "0xa57e479e2fb68667de190547cd53c5f6d54b1dc8"
                            },
                            {
                                "decimalAvailable": true,
                                "name": "value",
                                "type": "uint256",
                                "value": "3,610,495,880,000,000,000,000"
                            }
                        ],
                        "signature": "Transfer(address,address,uint256)"
                    },
                    "id": 1,
                    "logData": "0x0000000000000000000000000000000000000000000000c3b9b219a20b608000",
                    "logDecoded": true,
                    "operation": "EVENT",
                    "revert": false,
                    "status": true,
                    "topics": [
                        "0xddf252ad1be2c89b69c2b068fc378daa952ba7f163c4a11628f55a4df523b3ef",
                        "0x000000000000000000000000c5ee5cf26b147c24c7c041d4df424e58e8e8cf76",
                        "0x000000000000000000000000a57e479e2fb68667de190547cd53c5f6d54b1dc8"
                    ]
                },
                "nodeType": 1
            }
        },
        "gasFlame": [
            {
                "children": [
                    {
                        "children": [
                            {
                                "children": [],
                                "depth": 0,
                                "name": "Initial Gas",
                                "value": 23320
                            },
                            {
                                "children": [],
                                "depth": 0,
                                "name": "Executed Gas",
                                "value": 14155
                            }
                        ],
                        "depth": -1,
                        "name": "Actual Gas Used",
                        "value": 37475
                    },
                    {
                        "children": [],
                        "depth": -1,
                        "name": "Refunded Gas",
                        "value": 0
                    }
                ],
                "depth": -2,
                "name": "Total Gas",
                "value": 37475
            }
        ],
        "isConfirmed": true,
        "mainTrace": [
            {
                "children": [
                    {
                        "children": [
                            {
                                "children": [],
                                "depth": 1,
                                "id": 1,
                                "order": 1
                            }
                        ],
                        "depth": 0,
                        "id": 0,
                        "order": 0
                    }
                ],
                "depth": -1,
                "id": -1,
                "order": -1
            }
        ],
        "mainTraceNodeCount": 2,
        "parentIdMap": {
            "0": -1,
            "1": 0
        },
        "tidyTrace": [
            {
                "children": [
                    {
                        "children": [
                            {
                                "children": [],
                                "depth": 1,
                                "id": 1,
                                "order": 1
                            }
                        ],
                        "depth": 0,
                        "id": 0,
                        "order": 0
                    }
                ],
                "depth": -1,
                "id": -1,
                "order": -1
            }
        ],
        "tidyTraceNodeCount": 2
    },
    "state_change": {
        "stateChanges": [
            {
                "address": "0x33fbc07d9d9456d9e6d8316aa87792a20d3ad448",
                "erc": "ERC-20",
                "slots": [
                    {
                        "current": "0x00000000000000000000000000000000000000000009a8329a82ae01cc01e000",
                        "key": "0xf516fd4510f0479f9a0c4ede155f12f86ff6daaa77811c079e84c920160753bf",
                        "prev": "0x00000000000000000000000000000000000000000009a8f65434c7a3d7626000"
                    },
                    {
                        "current": "0x0000000000000000000000000000000000000000000003d0429dadf839a80000",
                        "key": "0x486962e4b57f931877db3608ab6e2d691594c58969dd330a83ce9d7e9c4029df",
                        "prev": "0x00000000000000000000000000000000000000000000030c88eb94562e478000"
                    }
                ],
                "storageVariables": [
                    {
                        "name": "balances",
                        "type": "mapping(address => uint256)",
                        "value": {
                            "pairs": [
                                {
                                    "key": "0xa57e479e2fb68667de190547cd53c5f6d54b1dc8",
                                    "value": {
                                        "current": "18008822400000000000000",
                                        "prev": "14398326520000000000000",
                                        "typeTag": 1
                                    }
                                },
                                {
                                    "key": "0xc5ee5cf26b147c24c7c041d4df424e58e8e8cf76",
                                    "value": {
                                        "current": "11674623416510000000000000",
                                        "prev": "11678233912390000000000000",
                                        "typeTag": 1
                                    }
                                }
                            ],
                            "typeTag": 4
                        }
                    }
                ]
            }
        ]
    }
}