{
    "balance_change": {
        "balanceChanges": [
            {
                "account": "0xe4a5ed09014ddd4ee4b9e3fc28862f06b239caec",
                "assets": [
                    {
                        "address": "0x48116961de03abdc79559bc84df6984fbc025cca",
                        "amount": "135,135,135,100,000,000,000",
                        "iconUrl": "",
                        "isERC1155": false,
                        "isERC721": false,
                        "sign": true,
                        "value": ""
                    }
                ]
            },
            {
                "account": "0xc785688ff4314cb891c66c770efe5e5e2fbff13f",
                "assets": [
                    {
                        "address": "0x48116961de03abdc79559bc84df6984fbc025cca",
                        "amount": "135,135,135,100,000,000,000",
                        "iconUrl": "",
                        "isERC1155": false,
                        "isERC721": false,
                        "sign": false,
                        "value": ""
                    }
                ]
            }
        ]
    },
    "profile": {
        "basic_info": {
            "baseFee": "",
            "blockNumber": 6482944,
            "callData": "0xa9059cbb000000000000000000000000e4a5ed09014ddd4ee4b9e3fc28862f06b239caec0000000000000000000000000000000000000000000000075360716595ebd800",
            "debugEnable": true,
            "errorInfo": "",
            "eventCount": 1,
            "feeRecipient": "0x52bc44d5378309ee2abf1539bf71de1b7d7be3b5",
            "formatValue": "0",
            "gasLimit": 38027,
            "gasPrice": "5",
            "gasUsed": 23027,
            "intTxnCount": 0,
            "internalRevert": false,
            "internalRevertMessage": "",
            "isContractCreation": false,
            "isFlashloan": false,
            "maxFee": "",
            "nonce": 14,
            "overwritedBlockNumber": -1,
            "priorityFee": "",
            "receiver": "0x48116961de03abdc79559bc84df6984fbc025cca",
            "revertMessage": "",
            "sender": "0xc785688ff4314cb891c66c770efe5e5e2fbff13f",
            "simulationEnable": true,
            "sourceTxnHash": "0xda2f6c8a44bc07174927b5cd67621dbddd03658ad07ce4a5a4ce656cc588cdb5",
            "status": true,
            "timestamp": "2018-10-09T13:21:34Z",
            "transactionFee": "0.000115135",
            "txnHash": "0xda2f6c8a44bc07174927b5cd67621dbddd03658ad07ce4a5a4ce656cc588cdb5",
            "txnIndex": 19,
            "type": 0,
            "value": "0"
        },
        "fund_flow": [
            {
                "amount": "135,135,135,100,000,000,000",
                "from": "0xc785688ff4314cb891c66c770efe5e5e2fbff13f",
                "id": 1,
                "isERC1155": false,
                "isERC721": false,
                "isReverted": false,
                "order": 1,
                "to": "0xe4a5ed09014ddd4ee4b9e3fc28862f06b239caec",
                "token": "0x48116961de03abdc79559bc84df6984fbc025cca"
            }
        ],
        "token_infos": [
            {
                "address": "0xc02aaa39b223fe8d0a0e5c4f27ead9083c756cc2",
                "decimals": 18
            },
            {
                "address": "0xeeeeeeeeeeeeeeeeeeeeeeeeeeeeeeeeeeeeeeee",
                "decimals": 18
            }
        ]
    },
    "address_label": {
        "labels": [
            {
                "address": "0xeeeeeeeeeeeeeeeeeeeeeeeeeeeeeeeeeeeeeeee",
                "label": "Ether"
            },
            {
                "address": "0x48116961de03abdc79559bc84df6984fbc025cca",
                "label": "TokenERC20"
            },
            {
                "address": "0x0000000000000000000000000000000000000001",
                "label": "Precompiled"
            },
            {
                "address": "0x0000000000000000000000000000000000000002",
                "label": "Precompiled"
            },
            {
                "address": "0x0000000000000000000000000000000000000003",
                "label": "Precompiled"
            },
            {
                "address": "0x0000000000000000000000000000000000000004",
                "label": "Precompiled"
            }
        ]
    },
    "trace": {
        "accountLabels": null,
        "dataMap": {
            "-1": {
                "invocation": {
                    "address": "0xc785688ff4314cb891c66c770efe5e5e2fbff13f",
                    "callData": "",
                    "decodedMethod": null,
                    "errorInfo": "",
                    "fromAddress": "",
                    "gasUsed": 0,
                    "id": -1,
                    "methodDecoded": false,
                    "operation": "",
                    "output": "",
                    "revert": false,
                    "revertMessage": "",
                    "selector": "",
                    "status": false,
                    "value": ""
                },
                "nodeType": 0
            },
            "0": {
                "invocation": {
                    "address": "0x48116961de03abdc79559bc84df6984fbc025cca",
                    "callData": "0x000000000000000000000000e4a5ed09014ddd4ee4b9e3fc28862f06b239caec0000000000000000000000000000000000000000000000075360716595ebd800",
                    "decodedMethod": {
                        "callParams": [
                            {
                                "name": "_to",
                                "type": "address",
                                "value": "0xe4a5ed09014ddd4ee4b9e3fc28862f06b239caec"
                            },
                            {
                                "decimalAvailable": true,
                                "name": "_value",
                                "type": "uint256",
                                "value": "135,135,135,100,000,000,000"
                            }
                        ],
                        "constructorArguments": "",
                        "name": "transfer",
                        "returnParams": [
                            {
                                "name": "success",
                                "type": "bool",
                                "value": true
                            }
                        ],
                        "signature": "transfer(address,uint256)"
                    },
                    "errorInfo": "",
                    "fromAddress": "0xc785688ff4314cb891c66c770efe5e5e2fbff13f",
                    "gasUsed": 23027,
                    "id": 0,
                    "methodDecoded": true,
                    "operation": "CALL",
                    "output": "0x0000000000000000000000000000000000000000000000000000000000000001",
                    "revert": false,
                    "revertMessage": "",
                    "selector": "0xa9059cbb",
                    "status": true,
                    "value": "0"
                },
                "nodeType": 0
            },
            "1": {
                "event": {
                    "contract": "0x48116961de03abdc79559bc84df6984fbc025cca",
                    "decodedLog": {
                        "name": "Transfer",
                        "params": [
                            {
                                "name": "from",
                                "type": "address",
                                "value": "0xc785688ff4314cb891c66c770efe5e5e2fbff13f"
                            },
                            {
                                "name": "to",
                                "type": "address",
                                "value": "0xe4a5ed09014ddd4ee4b9e3fc28862f06b239caec"
                            },
                            {
                                "decimalAvailable": true,
                                "name": "value",
                                "type": "uint256",
                                "value": "135,135,135,100,000,000,000"
                            }
                        ],
                        "signature": "Transfer(address,address,uint256)"
                    },
                    "id": 1,
                    "logData": "0x0000000000000000000000000000000000000000000000075360716595ebd800",
                    "logDecoded": true,
                    "operation": "EVENT",
                    "revert": false,
                    "status": true,
                    "topics": [
                        "0xddf252ad1be2c89b69c2b068fc378daa952ba7f163c4a11628f55a4df523b3ef",
                        "0x000000000000000000000000c785688ff4314cb891c66c770efe5e5e2fbff13f",
                        "0x000000000000000000000000e4a5ed09014ddd4ee4b9e3fc28862f06b239caec"
                    ]
                },
                "nodeType": 1
            }
        },
        "gasFlame": [
            {
                "children": [
                    {
                        "children": [
                            {
                                "children": [],
                                "depth": 0,
                                "name": "Initial Gas",
                                "value": 23320
                            },
                            {
                                "children": [],
                                "depth": 0,
                                "name": "Executed Gas",
                                "value": 14707
                            }
                        ],
                        "depth": -1,
                        "name": "Actual Gas Used",
                        "value": 23027
                    },
                    {
                        "children": [],
                        "depth": -1,
                        "name": "Refunded Gas",
                        "value": 15000
                    }
                ],
                "depth": -2,
                "name": "Total Gas",
                "value": 38027
            }
        ],
        "isConfirmed": true,
        "mainTrace": [
            {
                "children": [
                    {
                        "children": [
                            {
                                "children": [],
                                "depth": 1,
                                "id": 1,
                                "order": 1
                            }
                        ],
                        "depth": 0,
                        "id": 0,
                        "order": 0
                    }
                ],
                "depth": -1,
                "id": -1,
                "order": -1
            }
        ],
        "mainTraceNodeCount": 2,
        "parentIdMap": {
            "0": -1,
            "1": 0
        },
        "tidyTrace": [
            {
                "children": [
                    {
                        "children": [
                            {
                                "children": [],
                                "depth": 1,
                                "id": 1,
                                "order": 1
                            }
                        ],
                        "depth": 0,
                        "id": 0,
                        "order": 0
                    }
                ],
                "depth": -1,
                "id": -1,
                "order": -1
            }
        ],
        "tidyTraceNodeCount": 2
    },
    "state_change": {
        "stateChanges": [
            {
                "address": "0x48116961de03abdc79559bc84df6984fbc025cca",
                "erc": "ERC-20",
                "slots": [
                    {
                        "current": "0x0000000000000000000000000000000000000000000000000000000000000000",
                        "key": "0xe4615db451a308681964ffe88a50605b9e29577533bc34137bb5c67cd3d6b79c",
                        "prev": "0x0000000000000000000000000000000000000000000000075360716595ebd800"
                    },
                    {
                        "current": "0x000000000000000000000000000000000000000000001f77c85d93916dd28800",
                        "key": "0x9978a1332d113e54da9beffd93d3c849bf8fd4e56a9b62a12b7577af6693f5c5",
                        "prev": "0x000000000000000000000000000000000000000000001f7074fd222bd7e6b000"
                    }
                ],
                "storageVariables": [
                    {
                        "name": "balanceOf",
                        "type": "mapping(address => uint256)",
                        "value": {
                            "pairs": [
                                {
                                    "key": "0xc785688ff4314cb891c66c770efe5e5e2fbff13f",
                                    "value": {
                                        "current": "0",
                                        "prev": "135135135100000000000",
                                        "typeTag": 1
                                    }
                                },
                                {
                                    "key": "0xe4a5ed09014ddd4ee4b9e3fc28862f06b239caec",
                                    "value": {
                                        "current": "148602961371963680000000",
                                        "prev": "148467826236863680000000",
                                        "typeTag": 1
                                    }
                                }
                            ],
                            "typeTag": 4
                        }
                    }
                ]
            }
        ]
    }
}