{
    "balance_change": {
        "balanceChanges": [
            {
                "account": "0xdf16df14b5419e3341e4e68753fd237c3ca5e0e5",
                "assets": [
                    {
                        "address": "0xeeeeeeeeeeeeeeeeeeeeeeeeeeeeeeeeeeeeeeee",
                        "amount": "0.002",
                        "iconUrl": "https://assets.blocksec.com/image/1663669189317-3.png",
                        "isERC1155": false,
                        "isERC721": false,
                        "sign": false,
                        "value": "3.2947800000000001999"
                    }
                ]
            },
            {
                "account": "0xb584d4be1a5470ca1a8778e9b86c81e165204599",
                "assets": [
                    {
                        "address": "0xeeeeeeeeeeeeeeeeeeeeeeeeeeeeeeeeeeeeeeee",
                        "amount": "0.002",
                        "iconUrl": "https://assets.blocksec.com/image/1663669189317-3.png",
                        "isERC1155": false,
                        "isERC721": false,
                        "sign": true,
                        "value": "3.2947800000000001999"
                    }
                ]
            }
        ]
    },
    "profile": {
        "basic_info": {
            "baseFee": "10.247818793",
            "blockNumber": 18270294,
            "callData": "0xe56461ad0000000000000000000000000000000000000000000000000000000000000144000000000000000000000000df16df14b5419e3341e4e68753fd237c3ca5e0e5",
            "debugEnable": true,
            "errorInfo": "",
            "eventCount": 1,
            "feeRecipient": "0x95222290dd7278aa3ddd389cc1e1d165cc4bafe5",
            "formatValue": "0.002",
            "gasLimit": 43059,
            "gasPrice": "12",
            "gasUsed": 28706,
            "intTxnCount": 0,
            "internalRevert": false,
            "internalRevertMessage": "",
            "isContractCreation": false,
            "isFlashloan": false,
            "maxFee": "12",
            "nonce": 1,
            "overwritedBlockNumber": -1,
            "priorityFee": "2",
            "receiver": "0xb584d4be1a5470ca1a8778e9b86c81e165204599",
            "revertMessage": "",
            "sender": "0xdf16df14b5419e3341e4e68753fd237c3ca5e0e5",
            "simulationEnable": true,
            "sourceTxnHash": "0xda0ff378caef97a76316faef2941510e609bb13557b6d9886593f53b5dbdda10",
            "status": true,
            "timestamp": "2023-10-03T13:25:11Z",
            "transactionFee": "0.000344472",
            "txnHash": "0xda0ff378caef97a76316faef2941510e609bb13557b6d9886593f53b5dbdda10",
            "txnIndex": 57,
            "type": 2,
            "value": "2000000000000000"
        },
        "fund_flow": [
            {
                "amount": "0.002",
                "from": "0xdf16df14b5419e3341e4e68753fd237c3ca5e0e5",
                "id": 1,
                "isERC1155": false,
                "isERC721": false,
                "isReverted": false,
                "order": 1,
                "to": "0xb584d4be1a5470ca1a8778e9b86c81e165204599",
                "token": "0xeeeeeeeeeeeeeeeeeeeeeeeeeeeeeeeeeeeeeeee"
            }
        ],
        "token_infos": [
            {
                "address": "0xc02aaa39b223fe8d0a0e5c4f27ead9083c756cc2",
                "decimals": 18
            },
            {
                "address": "0xeeeeeeeeeeeeeeeeeeeeeeeeeeeeeeeeeeeeeeee",
                "decimals": 18
            }
        ]
    },
    "address_label": {
        "labels": [
            {
                "address": "0x0000000000000000000000000000000000000001",
                "label": "Precompiled"
            },
            {
                "address": "0x0000000000000000000000000000000000000002",
                "label": "Precompiled"
            },
            {
                "address": "0x0000000000000000000000000000000000000003",
                "label": "Precompiled"
            },
            {
                "address": "0x0000000000000000000000000000000000000004",
                "label": "Precompiled"
            },
            {
                "address": "0xeeeeeeeeeeeeeeeeeeeeeeeeeeeeeeeeeeeeeeee",
                "label": "Ether"
            },
            {
                "address": "0xb584d4be1a5470ca1a8778e9b86c81e165204599",
                "label": "Socket: GasMovr"
            }
        ]
    },
    "trace": {
        "accountLabels": null,
        "dataMap": {
            "-1": {
                "invocation": {
                    "address": "0xdf16df14b5419e3341e4e68753fd237c3ca5e0e5",
                    "callData": "",
                    "decodedMethod": null,
                    "errorInfo": "",
                    "fromAddress": "",
                    "gasUsed": 0,
                    "id": -1,
                    "methodDecoded": false,
                    "operation": "",
                    "output": "",
                    "revert": false,
                    "revertMessage": "",
                    "selector": "",
                    "status": false,
                    "value": ""
                },
                "nodeType": 0
            },
            "0": {
                "invocation": {
                    "address": "0xb584d4be1a5470ca1a8778e9b86c81e165204599",
                    "callData": "0x0000000000000000000000000000000000000000000000000000000000000144000000000000000000000000df16df14b5419e3341e4e68753fd237c3ca5e0e5",
                    "decodedMethod": {
                        "callParams": [
                            {
                                "name": "destinationChainId",
                                "type": "uint256",
                                "value": "324"
                            },
                            {
                                "name": "_to",
                                "type": "address",
                                "value": "0xdf16df14b5419e3341e4e68753fd237c3ca5e0e5"
                            }
                        ],
                        "constructorArguments": "",
                        "name": "depositNativeToken",
                        "returnParams": [],
                        "signature": "depositNativeToken(uint256,address)"
                    },
                    "errorInfo": "",
                    "fromAddress": "0xdf16df14b5419e3341e4e68753fd237c3ca5e0e5",
                    "gasUsed": 28706,
                    "id": 0,
                    "methodDecoded": true,
                    "operation": "CALL",
                    "output": "",
                    "revert": false,
                    "revertMessage": "",
                    "selector": "0xe56461ad",
                    "status": true,
                    "value": "0.002"
                },
                "nodeType": 0
            },
            "1": {
                "event": {
                    "contract": "0xb584d4be1a5470ca1a8778e9b86c81e165204599",
                    "decodedLog": {
                        "name": "Deposit",
                        "params": [
                            {
                                "name": "destinationReceiver",
                                "type": "address",
                                "value": "0xdf16df14b5419e3341e4e68753fd237c3ca5e0e5"
                            },
                            {
                                "name": "destinationChainId",
                                "type": "uint256",
                                "value": "324"
                            },
                            {
                                "name": "amount",
                                "type": "uint256",
                                "value": "2,000,000,000,000,000"
                            }
                        ],
                        "signature": "Deposit(address,uint256,uint256)"
                    },
                    "id": 1,
                    "logData": "0x00000000000000000000000000000000000000000000000000071afd498d0000",
                    "logDecoded": true,
                    "operation": "EVENT",
                    "revert": false,
                    "status": true,
                    "topics": [
                        "0x90890809c654f11d6e72a28fa60149770a0d11ec6c92319d6ceb2bb0a4ea1a15",
                        "0x000000000000000000000000df16df14b5419e3341e4e68753fd237c3ca5e0e5",
                        "0x0000000000000000000000000000000000000000000000000000000000000144"
                    ]
                },
                "nodeType": 1
            }
        },
        "gasFlame": [
            {
                "children": [
                    {
                        "children": [
                            {
                                "children": [],
                                "depth": 0,
                                "name": "Initial Gas",
                                "value": 21584
                            },
                            {
                                "children": [],
                                "depth": 0,
                                "name": "Executed Gas",
                                "value": 7122
                            }
                        ],
                        "depth": -1,
                        "name": "Actual Gas Used",
                        "value": 28706
                    },
                    {
                        "children": [],
                        "depth": -1,
                        "name": "Refunded Gas",
                        "value": 0
                    }
                ],
                "depth": -2,
                "name": "Total Gas",
                "value": 28706
            }
        ],
        "isConfirmed": true,
        "mainTrace": [
            {
                "children": [
                    {
                        "children": [
                            {
                                "children": [],
                                "depth": 1,
                                "id": 1,
                                "order": 1
                            }
                        ],
                        "depth": 0,
                        "id": 0,
                        "order": 0
                    }
                ],
                "depth": -1,
                "id": -1,
                "order": -1
            }
        ],
        "mainTraceNodeCount": 2,
        "parentIdMap": {
            "0": -1,
            "1": 0
        },
        "tidyTrace": [
            {
                "children": [
                    {
                        "children": [
                            {
                                "children": [],
                                "depth": 1,
                                "id": 1,
                                "order": 1
                            }
                        ],
                        "depth": 0,
                        "id": 0,
                        "order": 0
                    }
                ],
                "depth": -1,
                "id": -1,
                "order": -1
            }
        ],
        "tidyTraceNodeCount": 2
    },
    "state_change": {
        "stateChanges": []
    }
}