{
    "balance_change": {
        "balanceChanges": [
            {
                "account": "0x5b4f630e0b90f932855d7db199c53fca79c5594f",
                "assets": [
                    {
                        "address": "0xcadb96858fe496bb6309622f9023ba2defb5d540",
                        "amount": "1,172.11926743",
                        "iconUrl": "",
                        "isERC1155": false,
                        "isERC721": false,
                        "sign": false,
                        "value": ""
                    }
                ]
            },
            {
                "account": "0x2b57b8f7a4b48cf8d9e480d9b7d210d95a20988f",
                "assets": [
                    {
                        "address": "0xcadb96858fe496bb6309622f9023ba2defb5d540",
                        "amount": "1,172.11926743",
                        "iconUrl": "",
                        "isERC1155": false,
                        "isERC721": false,
                        "sign": true,
                        "value": ""
                    }
                ]
            }
        ]
    },
    "profile": {
        "basic_info": {
            "baseFee": "",
            "blockNumber": 9179374,
            "callData": "0xa9059cbb0000000000000000000000002b57b8f7a4b48cf8d9e480d9b7d210d95a20988f00000000000000000000000000000000000000000000003f8a6c2792d43c7c00",
            "debugEnable": true,
            "errorInfo": "",
            "eventCount": 1,
            "feeRecipient": "0x5a0b54d5dc17e0aadc383d2db43b0a0d3e029c4c",
            "formatValue": "0",
            "gasLimit": 150000,
            "gasPrice": "6",
            "gasUsed": 53841,
            "intTxnCount": 0,
            "internalRevert": false,
            "internalRevertMessage": "",
            "isContractCreation": false,
            "isFlashloan": false,
            "maxFee": "",
            "nonce": 18973,
            "overwritedBlockNumber": -1,
            "priorityFee": "",
            "receiver": "0xcadb96858fe496bb6309622f9023ba2defb5d540",
            "revertMessage": "",
            "sender": "0x5b4f630e0b90f932855d7db199c53fca79c5594f",
            "simulationEnable": true,
            "sourceTxnHash": "0xdaed29149a82c9293d7694cf54cf88e662e9332f07037e7b0d984995b7fdca3d",
            "status": true,
            "timestamp": "2019-12-29T05:28:42Z",
            "transactionFee": "0.000323046",
            "txnHash": "0xdaed29149a82c9293d7694cf54cf88e662e9332f07037e7b0d984995b7fdca3d",
            "txnIndex": 97,
            "type": 0,
            "value": "0"
        },
        "fund_flow": [
            {
                "amount": "1,172.11926743",
                "from": "0x5b4f630e0b90f932855d7db199c53fca79c5594f",
                "id": 1,
                "isERC1155": false,
                "isERC721": false,
                "isReverted": false,
                "order": 1,
                "to": "0x2b57b8f7a4b48cf8d9e480d9b7d210d95a20988f",
                "token": "0xcadb96858fe496bb6309622f9023ba2defb5d540"
            }
        ],
        "token_infos": [
            {
                "address": "0xeeeeeeeeeeeeeeeeeeeeeeeeeeeeeeeeeeeeeeee",
                "decimals": 18
            },
            {
                "address": "0xc02aaa39b223fe8d0a0e5c4f27ead9083c756cc2",
                "decimals": 18
            },
            {
                "address": "0xcadb96858fe496bb6309622f9023ba2defb5d540",
                "decimals": 18
            }
        ]
    },
    "address_label": {
        "labels": [
            {
                "address": "0x0000000000000000000000000000000000000003",
                "label": "Precompiled"
            },
            {
                "address": "0x0000000000000000000000000000000000000004",
                "label": "Precompiled"
            },
            {
                "address": "0xeeeeeeeeeeeeeeeeeeeeeeeeeeeeeeeeeeeeeeee",
                "label": "Ether"
            },
            {
                "address": "0xcadb96858fe496bb6309622f9023ba2defb5d540",
                "label": "SBToken (SBC)"
            },
            {
                "address": "0x0000000000000000000000000000000000000001",
                "label": "Precompiled"
            },
            {
                "address": "0x0000000000000000000000000000000000000002",
                "label": "Precompiled"
            }
        ]
    },
    "trace": {
        "accountLabels": null,
        "dataMap": {
            "-1": {
                "invocation": {
                    "address": "0x5b4f630e0b90f932855d7db199c53fca79c5594f",
                    "callData": "",
                    "decodedMethod": null,
                    "errorInfo": "",
                    "fromAddress": "",
                    "gasUsed": 0,
                    "id": -1,
                    "methodDecoded": false,
                    "operation": "",
                    "output": "",
                    "revert": false,
                    "revertMessage": "",
                    "selector": "",
                    "status": false,
                    "value": ""
                },
                "nodeType": 0
            },
            "0": {
                "invocation": {
                    "address": "0xcadb96858fe496bb6309622f9023ba2defb5d540",
                    "callData": "0x0000000000000000000000002b57b8f7a4b48cf8d9e480d9b7d210d95a20988f00000000000000000000000000000000000000000000003f8a6c2792d43c7c00",
                    "decodedMethod": {
                        "callParams": [
                            {
                                "name": "_to",
                                "type": "address",
                                "value": "0x2b57b8f7a4b48cf8d9e480d9b7d210d95a20988f"
                            },
                            {
                                "decimalAvailable": true,
                                "name": "_value",
                                "type": "uint256",
                                "value": "1,172,119,267,430,000,000,000"
                            }
                        ],
                        "constructorArguments": "",
                        "name": "transfer",
                        "returnParams": [
                            {
                                "name": "success",
                                "type": "bool",
                                "value": true
                            }
                        ],
                        "signature": "transfer(address,uint256)"
                    },
                    "errorInfo": "",
                    "fromAddress": "0x5b4f630e0b90f932855d7db199c53fca79c5594f",
                    "gasUsed": 53841,
                    "id": 0,
                    "methodDecoded": true,
                    "operation": "CALL",
                    "output": "0x0000000000000000000000000000000000000000000000000000000000000001",
                    "revert": false,
                    "revertMessage": "",
                    "selector": "0xa9059cbb",
                    "status": true,
                    "value": "0"
                },
                "nodeType": 0
            },
            "1": {
                "event": {
                    "contract": "0xcadb96858fe496bb6309622f9023ba2defb5d540",
                    "decodedLog": {
                        "name": "Transfer",
                        "params": [
                            {
                                "name": "_from",
                                "type": "address",
                                "value": "0x5b4f630e0b90f932855d7db199c53fca79c5594f"
                            },
                            {
                                "name": "_to",
                                "type": "address",
                                "value": "0x2b57b8f7a4b48cf8d9e480d9b7d210d95a20988f"
                            },
                            {
                                "decimalAvailable": true,
                                "name": "_value",
                                "type": "uint256",
                                "value": "1,172,119,267,430,000,000,000"
                            }
                        ],
                        "signature": "Transfer(address,address,uint256)"
                    },
                    "id": 1,
                    "logData": "0x00000000000000000000000000000000000000000000003f8a6c2792d43c7c00",
                    "logDecoded": true,
                    "operation": "EVENT",
                    "revert": false,
                    "status": true,
                    "topics": [
                        "0xddf252ad1be2c89b69c2b068fc378daa952ba7f163c4a11628f55a4df523b3ef",
                        "0x0000000000000000000000005b4f630e0b90f932855d7db199c53fca79c5594f",
                        "0x0000000000000000000000002b57b8f7a4b48cf8d9e480d9b7d210d95a20988f"
                    ]
                },
                "nodeType": 1
            }
        },
        "gasFlame": [
            {
                "children": [
                    {
                        "children": [
                            {
                                "children": [],
                                "depth": 0,
                                "name": "Initial Gas",
                                "value": 21656
                            },
                            {
                                "children": [],
                                "depth": 0,
                                "name": "Executed Gas",
                                "value": 32185
                            }
                        ],
                        "depth": -1,
                        "name": "Actual Gas Used",
                        "value": 53841
                    },
                    {
                        "children": [],
                        "depth": -1,
                        "name": "Refunded Gas",
                        "value": 0
                    }
                ],
                "depth": -2,
                "name": "Total Gas",
                "value": 53841
            }
        ],
        "isConfirmed": true,
        "mainTrace": [
            {
                "children": [
                    {
                        "children": [
                            {
                                "children": [],
                                "depth": 1,
                                "id": 1,
                                "order": 1
                            }
                        ],
                        "depth": 0,
                        "id": 0,
                        "order": 0
                    }
                ],
                "depth": -1,
                "id": -1,
                "order": -1
            }
        ],
        "mainTraceNodeCount": 2,
        "parentIdMap": {
            "0": -1,
            "1": 0
        },
        "tidyTrace": [
            {
                "children": [
                    {
                        "children": [
                            {
                                "children": [],
                                "depth": 1,
                                "id": 1,
                                "order": 1
                            }
                        ],
                        "depth": 0,
                        "id": 0,
                        "order": 0
                    }
                ],
                "depth": -1,
                "id": -1,
                "order": -1
            }
        ],
        "tidyTraceNodeCount": 2
    },
    "state_change": {
        "stateChanges": [
            {
                "address": "0xcadb96858fe496bb6309622f9023ba2defb5d540",
                "erc": "ERC-20",
                "slots": [
                    {
                        "current": "0x00000000000000000000000000000000000000000001046abd321e51e1b71000",
                        "key": "0x9e35c6c4a5707654c085bfcabffefaee1c828e42c235cf9081c73452283632d2",
                        "prev": "0x0000000000000000000000000000000000000000000104aa479e45e4b5f38c00"
                    },
                    {
                        "current": "0x00000000000000000000000000000000000000000000003f8a6c2792d43c7c00",
                        "key": "0xbb9ffed0cab23dd85e9438793ea6263ce5e6c93e8aa3f00490a18ee0bfff7c1f",
                        "prev": "0x0000000000000000000000000000000000000000000000000000000000000000"
                    }
                ],
                "storageVariables": [
                    {
                        "name": "balances",
                        "type": "mapping(address => uint256)",
                        "value": {
                            "pairs": [
                                {
                                    "key": "0x2b57b8f7a4b48cf8d9e480d9b7d210d95a20988f",
                                    "value": {
                                        "current": "1172119267430000000000",
                                        "prev": "0",
                                        "typeTag": 1
                                    }
                                },
                                {
                                    "key": "0x5b4f630e0b90f932855d7db199c53fca79c5594f",
                                    "value": {
                                        "current": "1229784273410280000000000",
                                        "prev": "1230956392677710000000000",
                                        "typeTag": 1
                                    }
                                }
                            ],
                            "typeTag": 4
                        }
                    }
                ]
            }
        ]
    }
}