{
    "balance_change": {
        "balanceChanges": [
            {
                "account": "0x6aceab8ffac7929aa44ffcdb435ed0a3c1b7c179",
                "assets": [
                    {
                        "address": "0x9b9647431632af44be02ddd22477ed94d14aacaa",
                        "amount": "29.7",
                        "iconUrl": "",
                        "isERC1155": false,
                        "isERC721": false,
                        "sign": false,
                        "value": "0.79996506"
                    }
                ]
            },
            {
                "account": "0x161a9c58a148847ef4621cc232339c284613e81b",
                "assets": [
                    {
                        "address": "0x9b9647431632af44be02ddd22477ed94d14aacaa",
                        "amount": "29.7",
                        "iconUrl": "",
                        "isERC1155": false,
                        "isERC721": false,
                        "sign": true,
                        "value": "0.79996506"
                    }
                ]
            }
        ]
    },
    "profile": {
        "basic_info": {
            "baseFee": "27.912200847",
            "blockNumber": 17340468,
            "callData": "0xa9059cbb000000000000000000000000161a9c58a148847ef4621cc232339c284613e81b0000000000000000000000000000000000000000000000019c2b98a4851a0000",
            "debugEnable": true,
            "errorInfo": "",
            "eventCount": 1,
            "feeRecipient": "0x95222290dd7278aa3ddd389cc1e1d165cc4bafe5",
            "formatValue": "0",
            "gasLimit": 80000,
            "gasPrice": "35",
            "gasUsed": 58403,
            "intTxnCount": 0,
            "internalRevert": false,
            "internalRevertMessage": "",
            "isContractCreation": false,
            "isFlashloan": false,
            "maxFee": "",
            "nonce": 469394,
            "overwritedBlockNumber": -1,
            "priorityFee": "",
            "receiver": "0x9b9647431632af44be02ddd22477ed94d14aacaa",
            "revertMessage": "",
            "sender": "0x6aceab8ffac7929aa44ffcdb435ed0a3c1b7c179",
            "simulationEnable": true,
            "sourceTxnHash": "0xdabdda07f7d64449dcf15ae18db6dd3c866dbe42dcb9f934888bf4d32e195690",
            "status": true,
            "timestamp": "2023-05-26T03:00:47Z",
            "transactionFee": "0.002044105",
            "txnHash": "0xdabdda07f7d64449dcf15ae18db6dd3c866dbe42dcb9f934888bf4d32e195690",
            "txnIndex": 11,
            "type": 0,
            "value": "0"
        },
        "fund_flow": [
            {
                "amount": "29.7",
                "from": "0x6aceab8ffac7929aa44ffcdb435ed0a3c1b7c179",
                "id": 1,
                "isERC1155": false,
                "isERC721": false,
                "isReverted": false,
                "order": 1,
                "to": "0x161a9c58a148847ef4621cc232339c284613e81b",
                "token": "0x9b9647431632af44be02ddd22477ed94d14aacaa"
            }
        ],
        "token_infos": [
            {
                "address": "0x9b9647431632af44be02ddd22477ed94d14aacaa",
                "decimals": 18
            },
            {
                "address": "0xc02aaa39b223fe8d0a0e5c4f27ead9083c756cc2",
                "decimals": 18
            },
            {
                "address": "0xeeeeeeeeeeeeeeeeeeeeeeeeeeeeeeeeeeeeeeee",
                "decimals": 18
            }
        ]
    },
    "address_label": {
        "labels": [
            {
                "address": "0xeeeeeeeeeeeeeeeeeeeeeeeeeeeeeeeeeeeeeeee",
                "label": "Ether"
            },
            {
                "address": "0x9b9647431632af44be02ddd22477ed94d14aacaa",
                "label": "KOK PLAY: KOK Token"
            },
            {
                "address": "0x0000000000000000000000000000000000000001",
                "label": "Precompiled"
            },
            {
                "address": "0x0000000000000000000000000000000000000002",
                "label": "Precompiled"
            },
            {
                "address": "0x0000000000000000000000000000000000000003",
                "label": "Precompiled"
            },
            {
                "address": "0x0000000000000000000000000000000000000004",
                "label": "Precompiled"
            }
        ]
    },
    "trace": {
        "accountLabels": null,
        "dataMap": {
            "-1": {
                "invocation": {
                    "address": "0x6aceab8ffac7929aa44ffcdb435ed0a3c1b7c179",
                    "callData": "",
                    "decodedMethod": null,
                    "errorInfo": "",
                    "fromAddress": "",
                    "gasUsed": 0,
                    "id": -1,
                    "methodDecoded": false,
                    "operation": "",
                    "output": "",
                    "revert": false,
                    "revertMessage": "",
                    "selector": "",
                    "status": false,
                    "value": ""
                },
                "nodeType": 0
            },
            "0": {
                "invocation": {
                    "address": "0x9b9647431632af44be02ddd22477ed94d14aacaa",
                    "callData": "0x000000000000000000000000161a9c58a148847ef4621cc232339c284613e81b0000000000000000000000000000000000000000000000019c2b98a4851a0000",
                    "decodedMethod": {
                        "callParams": [
                            {
                                "name": "_to",
                                "type": "address",
                                "value": "0x161a9c58a148847ef4621cc232339c284613e81b"
                            },
                            {
                                "decimalAvailable": true,
                                "name": "_value",
                                "type": "uint256",
                                "value": "29,700,000,000,000,000,000"
                            }
                        ],
                        "constructorArguments": "",
                        "name": "transfer",
                        "returnParams": [
                            {
                                "name": "success",
                                "type": "bool",
                                "value": true
                            }
                        ],
                        "signature": "transfer(address,uint256)"
                    },
                    "errorInfo": "",
                    "fromAddress": "0x6aceab8ffac7929aa44ffcdb435ed0a3c1b7c179",
                    "gasUsed": 58403,
                    "id": 0,
                    "methodDecoded": true,
                    "operation": "CALL",
                    "output": "0x0000000000000000000000000000000000000000000000000000000000000001",
                    "revert": false,
                    "revertMessage": "",
                    "selector": "0xa9059cbb",
                    "status": true,
                    "value": "0"
                },
                "nodeType": 0
            },
            "1": {
                "event": {
                    "contract": "0x9b9647431632af44be02ddd22477ed94d14aacaa",
                    "decodedLog": {
                        "name": "Transfer",
                        "params": [
                            {
                                "name": "_from",
                                "type": "address",
                                "value": "0x6aceab8ffac7929aa44ffcdb435ed0a3c1b7c179"
                            },
                            {
                                "name": "_to",
                                "type": "address",
                                "value": "0x161a9c58a148847ef4621cc232339c284613e81b"
                            },
                            {
                                "decimalAvailable": true,
                                "name": "_value",
                                "type": "uint256",
                                "value": "29,700,000,000,000,000,000"
                            }
                        ],
                        "signature": "Transfer(address,address,uint256)"
                    },
                    "id": 1,
                    "logData": "0x0000000000000000000000000000000000000000000000019c2b98a4851a0000",
                    "logDecoded": true,
                    "operation": "EVENT",
                    "revert": false,
                    "status": true,
                    "topics": [
                        "0xddf252ad1be2c89b69c2b068fc378daa952ba7f163c4a11628f55a4df523b3ef",
                        "0x0000000000000000000000006aceab8ffac7929aa44ffcdb435ed0a3c1b7c179",
                        "0x000000000000000000000000161a9c58a148847ef4621cc232339c284613e81b"
                    ]
                },
                "nodeType": 1
            }
        },
        "gasFlame": [
            {
                "children": [
                    {
                        "children": [
                            {
                                "children": [],
                                "depth": 0,
                                "name": "Initial Gas",
                                "value": 21644
                            },
                            {
                                "children": [],
                                "depth": 0,
                                "name": "Executed Gas",
                                "value": 36759
                            }
                        ],
                        "depth": -1,
                        "name": "Actual Gas Used",
                        "value": 58403
                    },
                    {
                        "children": [],
                        "depth": -1,
                        "name": "Refunded Gas",
                        "value": 0
                    }
                ],
                "depth": -2,
                "name": "Total Gas",
                "value": 58403
            }
        ],
        "isConfirmed": true,
        "mainTrace": [
            {
                "children": [
                    {
                        "children": [
                            {
                                "children": [],
                                "depth": 1,
                                "id": 1,
                                "order": 1
                            }
                        ],
                        "depth": 0,
                        "id": 0,
                        "order": 0
                    }
                ],
                "depth": -1,
                "id": -1,
                "order": -1
            }
        ],
        "mainTraceNodeCount": 2,
        "parentIdMap": {
            "0": -1,
            "1": 0
        },
        "tidyTrace": [
            {
                "children": [
                    {
                        "children": [
                            {
                                "children": [],
                                "depth": 1,
                                "id": 1,
                                "order": 1
                            }
                        ],
                        "depth": 0,
                        "id": 0,
                        "order": 0
                    }
                ],
                "depth": -1,
                "id": -1,
                "order": -1
            }
        ],
        "tidyTraceNodeCount": 2
    },
    "state_change": {
        "stateChanges": [
            {
                "address": "0x9b9647431632af44be02ddd22477ed94d14aacaa",
                "erc": "ERC-20",
                "slots": [
                    {
                        "current": "0x0000000000000000000000000000000000000000001499ed18cce3b29de9c08b",
                        "key": "0x370af7a2f2c92060248911ec6a5c034096bc464cf29b05bb3cfe921fc4fcc07b",
                        "prev": "0x0000000000000000000000000000000000000000001499eeb4f87c572303c08b"
                    },
                    {
                        "current": "0x0000000000000000000000000000000000000000000000019c2b98a4851a0000",
                        "key": "0xbb0487f56fc6b388bbd0a6e76253138ce4d186bb85e961d9ba723cddf4998d40",
                        "prev": "0x0000000000000000000000000000000000000000000000000000000000000000"
                    }
                ],
                "storageVariables": [
                    {
                        "name": "balances",
                        "type": "mapping(address => uint256)",
                        "value": {
                            "pairs": [
                                {
                                    "key": "0x161a9c58a148847ef4621cc232339c284613e81b",
                                    "value": {
                                        "current": "29700000000000000000",
                                        "prev": "0",
                                        "typeTag": 1
                                    }
                                },
                                {
                                    "key": "0x6aceab8ffac7929aa44ffcdb435ed0a3c1b7c179",
                                    "value": {
                                        "current": "24905412129570616827822219",
                                        "prev": "24905441829570616827822219",
                                        "typeTag": 1
                                    }
                                }
                            ],
                            "typeTag": 4
                        }
                    }
                ]
            }
        ]
    }
}