{
    "balance_change": {
        "balanceChanges": [
            {
                "account": "0x86053256c96f8c090f30287c910ab63f1204875b",
                "assets": [
                    {
                        "address": "0xdfb410994b66778bd6cc2c82e8ffe4f7b2870006",
                        "amount": "42.48733431",
                        "iconUrl": "",
                        "isERC1155": false,
                        "isERC721": false,
                        "sign": true,
                        "value": ""
                    },
                    {
                        "address": "0xc02aaa39b223fe8d0a0e5c4f27ead9083c756cc2",
                        "amount": "0.08497466862",
                        "iconUrl": "https://assets.blocksec.com/icon/f1cb2d02c471d545bbc7722daf3277fd852d98e63d118771af7047bd8256c516.png",
                        "isERC1155": false,
                        "isERC721": false,
                        "sign": false,
                        "value": ""
                    }
                ]
            },
            {
                "account": "0x7a9dad4e03966c2f08dd98ddddb8043a6c1691c6",
                "assets": [
                    {
                        "address": "0xdfb410994b66778bd6cc2c82e8ffe4f7b2870006",
                        "amount": "42.48733431",
                        "iconUrl": "",
                        "isERC1155": false,
                        "isERC721": false,
                        "sign": false,
                        "value": ""
                    },
                    {
                        "address": "0xc02aaa39b223fe8d0a0e5c4f27ead9083c756cc2",
                        "amount": "0.08497466862",
                        "iconUrl": "https://assets.blocksec.com/icon/f1cb2d02c471d545bbc7722daf3277fd852d98e63d118771af7047bd8256c516.png",
                        "isERC1155": false,
                        "isERC721": false,
                        "sign": true,
                        "value": ""
                    }
                ]
            }
        ]
    },
    "profile": {
        "basic_info": {
            "baseFee": "",
            "blockNumber": 8337764,
            "callData": "0x90c3bc3f00000000000000000000000000000000000000000000000000000000000000a000000000000000000000000086053256c96f8c090f30287c910ab63f1204875b000000000000000000000000000000000000000000000000000000000000046000000000000000000000000000000000000000000000000000000000000004e000000000000000000000000000000000000000000000000000000000000005207790ceb74075f1c4f5dc86b7c7a9e7cda04038161b88c5b06779499448d4c8af00000000000000000000000086053256c96f8c090f30287c910ab63f1204875b00000000000000000000000000000000000000000000000000000000000000600000000000000000000000000000000000000000000000000000000000000324b4be83d50000000000000000000000000000000000000000000000000000000000000060000000000000000000000000000000000000000000000000012de402ca006b0000000000000000000000000000000000000000000000000000000000000002a00000000000000000000000007a9dad4e03966c2f08dd98ddddb8043a6c1691c60000000000000000000000000000000000000000000000000000000000000000000000000000000000000000c898fbee1cc94c0ff077faa5449915a506eff384000000000000000000000000a14857e8930acd9a882d33ec20559beb5479c8a60000000000000000000000000000000000000000000000485ed8c2ddea7c0000000000000000000000000000000000000000000000000000250dbeda8e4b000000000000000000000000000000000000000000000000000000000000000000000000000000000000000000000000000000000000000000000000000000000000000000000000000000000000000000000000000000000000000000005d767ffd837b5e44e2ad16e7d58ffe45defb318b06737785f1e3324ad47cb5f35709141f000000000000000000000000000000000000000000000000000000000000018000000000000000000000000000000000000000000000000000000000000001e00000000000000000000000000000000000000000000000000000000000000024f47261b0000000000000000000000000dfb410994b66778bd6cc2c82e8ffe4f7b2870006000000000000000000000000000000000000000000000000000000000000000000000000000000000000000000000000000000000000000000000024f47261b0000000000000000000000000c02aaa39b223fe8d0a0e5c4f27ead9083c756cc20000000000000000000000000000000000000000000000000000000000000000000000000000000000000000000000000000000000000000000000421b0ece7b5a74551746b0122411d74d0b0ec05e8760c128b626fda5e397b00819c70beeaec72d040bb5377bce9fd0af873dfd9e06e6cb2c849ad19a233b4fa39dea020000000000000000000000000000000000000000000000000000000000000000000000000000000000000000000000000000000000000000000000000000000000000000000000000000000000000000000000000000000000421b9a78fd3c133d3c9d0c59142f6618de3ada37499560af42fb79618ad322f427d96761424b29de94f1c74813eb9e1d486aca5c68c9d539500f7f0fdebc358a8d24020000000000000000000000000000000000000000000000000000000000000000000000000000000000000000000000000000000000000000000000000001000000000000000000000000000000000000000000000000000000005d51c5930000000000000000000000000000000000000000000000000000000000000001000000000000000000000000000000000000000000000000000000000000002000000000000000000000000000000000000000000000000000000000000000421bad3b216e58b4bfe6eff675dfdc725a76aa5ad66a128bbb4916d3e4acc5c2174b02daf207b2c682536f1f53bbb996d6ec11f65fbf433f94bf5ceca6d3571c35a802000000000000000000000000000000000000000000000000000000000000",
            "debugEnable": true,
            "errorInfo": "",
            "eventCount": 3,
            "feeRecipient": "0x829bd824b016326a401d083b33d092293333a830",
            "formatValue": "0",
            "gasLimit": 264741,
            "gasPrice": "3.15",
            "gasUsed": 231882,
            "intTxnCount": 9,
            "internalRevert": false,
            "internalRevertMessage": "",
            "isContractCreation": false,
            "isFlashloan": false,
            "maxFee": "",
            "nonce": 27,
            "overwritedBlockNumber": -1,
            "priorityFee": "",
            "receiver": "0xa14857e8930acd9a882d33ec20559beb5479c8a6",
            "revertMessage": "",
            "sender": "0x86053256c96f8c090f30287c910ab63f1204875b",
            "simulationEnable": true,
            "sourceTxnHash": "0xda56060a6da4d0e2f5e7ee00027cf385ca51b5459024c631ca250e1c91d0ee70",
            "status": true,
            "timestamp": "2019-08-12T19:59:58Z",
            "transactionFee": "0.0007304283",
            "txnHash": "0xda56060a6da4d0e2f5e7ee00027cf385ca51b5459024c631ca250e1c91d0ee70",
            "txnIndex": 5,
            "type": 0,
            "value": "0"
        },
        "fund_flow": [
            {
                "amount": "42.48733431",
                "from": "0x7a9dad4e03966c2f08dd98ddddb8043a6c1691c6",
                "id": 1,
                "isERC1155": false,
                "isERC721": false,
                "isReverted": false,
                "order": 1,
                "to": "0x86053256c96f8c090f30287c910ab63f1204875b",
                "token": "0xdfb410994b66778bd6cc2c82e8ffe4f7b2870006"
            },
            {
                "amount": "0.08497466862",
                "from": "0x86053256c96f8c090f30287c910ab63f1204875b",
                "id": 2,
                "isERC1155": false,
                "isERC721": false,
                "isReverted": false,
                "order": 2,
                "to": "0x7a9dad4e03966c2f08dd98ddddb8043a6c1691c6",
                "token": "0xc02aaa39b223fe8d0a0e5c4f27ead9083c756cc2"
            }
        ],
        "token_infos": [
            {
                "address": "0xc02aaa39b223fe8d0a0e5c4f27ead9083c756cc2",
                "decimals": 18
            },
            {
                "address": "0xdfb410994b66778bd6cc2c82e8ffe4f7b2870006",
                "decimals": 18
            },
            {
                "address": "0xeeeeeeeeeeeeeeeeeeeeeeeeeeeeeeeeeeeeeeee",
                "decimals": 18
            }
        ]
    },
    "address_label": {
        "labels": [
            {
                "address": "0x0000000000000000000000000000000000000004",
                "label": "Precompiled"
            },
            {
                "address": "0xc898fbee1cc94c0ff077faa5449915a506eff384",
                "label": "Bamboo Relay"
            },
            {
                "address": "0x080bf510fcbf18b91105470639e9561022937712",
                "label": "0x: Exchange v2.1"
            },
            {
                "address": "0xdfb410994b66778bd6cc2c82e8ffe4f7b2870006",
                "label": "Kinguin Krowns (KRS)"
            },
            {
                "address": "0x95e6f48254609a6ee006f7d493c8e5fb97094cef",
                "label": "0x: ERC20 Proxy V3"
            },
            {
                "address": "0x0000000000000000000000000000000000000000",
                "label": "Null Address"
            },
            {
                "address": "0x0000000000000000000000000000000000000001",
                "label": "Precompiled"
            },
            {
                "address": "0x0000000000000000000000000000000000000003",
                "label": "Precompiled"
            },
            {
                "address": "0xeeeeeeeeeeeeeeeeeeeeeeeeeeeeeeeeeeeeeeee",
                "label": "Ether"
            },
            {
                "address": "0xc02aaa39b223fe8d0a0e5c4f27ead9083c756cc2",
                "label": "Wrapped Ether (WETH)"
            },
            {
                "address": "0x0000000000000000000000000000000000000002",
                "label": "Precompiled"
            }
        ]
    },
    "trace": {
        "accountLabels": null,
        "dataMap": {
            "-1": {
                "invocation": {
                    "address": "0x86053256c96f8c090f30287c910ab63f1204875b",
                    "callData": "",
                    "decodedMethod": null,
                    "errorInfo": "",
                    "fromAddress": "",
                    "gasUsed": 0,
                    "id": -1,
                    "methodDecoded": false,
                    "operation": "",
                    "output": "",
                    "revert": false,
                    "revertMessage": "",
                    "selector": "",
                    "status": false,
                    "value": ""
                },
                "nodeType": 0
            },
            "0": {
                "invocation": {
                    "address": "0xa14857e8930acd9a882d33ec20559beb5479c8a6",
                    "callData": "0x00000000000000000000000000000000000000000000000000000000000000a000000000000000000000000086053256c96f8c090f30287c910ab63f1204875b000000000000000000000000000000000000000000000000000000000000046000000000000000000000000000000000000000000000000000000000000004e000000000000000000000000000000000000000000000000000000000000005207790ceb74075f1c4f5dc86b7c7a9e7cda04038161b88c5b06779499448d4c8af00000000000000000000000086053256c96f8c090f30287c910ab63f1204875b00000000000000000000000000000000000000000000000000000000000000600000000000000000000000000000000000000000000000000000000000000324b4be83d50000000000000000000000000000000000000000000000000000000000000060000000000000000000000000000000000000000000000000012de402ca006b0000000000000000000000000000000000000000000000000000000000000002a00000000000000000000000007a9dad4e03966c2f08dd98ddddb8043a6c1691c60000000000000000000000000000000000000000000000000000000000000000000000000000000000000000c898fbee1cc94c0ff077faa5449915a506eff384000000000000000000000000a14857e8930acd9a882d33ec20559beb5479c8a60000000000000000000000000000000000000000000000485ed8c2ddea7c0000000000000000000000000000000000000000000000000000250dbeda8e4b000000000000000000000000000000000000000000000000000000000000000000000000000000000000000000000000000000000000000000000000000000000000000000000000000000000000000000000000000000000000000000005d767ffd837b5e44e2ad16e7d58ffe45defb318b06737785f1e3324ad47cb5f35709141f000000000000000000000000000000000000000000000000000000000000018000000000000000000000000000000000000000000000000000000000000001e00000000000000000000000000000000000000000000000000000000000000024f47261b0000000000000000000000000dfb410994b66778bd6cc2c82e8ffe4f7b2870006000000000000000000000000000000000000000000000000000000000000000000000000000000000000000000000000000000000000000000000024f47261b0000000000000000000000000c02aaa39b223fe8d0a0e5c4f27ead9083c756cc20000000000000000000000000000000000000000000000000000000000000000000000000000000000000000000000000000000000000000000000421b0ece7b5a74551746b0122411d74d0b0ec05e8760c128b626fda5e397b00819c70beeaec72d040bb5377bce9fd0af873dfd9e06e6cb2c849ad19a233b4fa39dea020000000000000000000000000000000000000000000000000000000000000000000000000000000000000000000000000000000000000000000000000000000000000000000000000000000000000000000000000000000000421b9a78fd3c133d3c9d0c59142f6618de3ada37499560af42fb79618ad322f427d96761424b29de94f1c74813eb9e1d486aca5c68c9d539500f7f0fdebc358a8d24020000000000000000000000000000000000000000000000000000000000000000000000000000000000000000000000000000000000000000000000000001000000000000000000000000000000000000000000000000000000005d51c5930000000000000000000000000000000000000000000000000000000000000001000000000000000000000000000000000000000000000000000000000000002000000000000000000000000000000000000000000000000000000000000000421bad3b216e58b4bfe6eff675dfdc725a76aa5ad66a128bbb4916d3e4acc5c2174b02daf207b2c682536f1f53bbb996d6ec11f65fbf433f94bf5ceca6d3571c35a802000000000000000000000000000000000000000000000000000000000000",
                    "decodedMethod": null,
                    "errorInfo": "",
                    "fromAddress": "0x86053256c96f8c090f30287c910ab63f1204875b",
                    "gasUsed": 231882,
                    "id": 0,
                    "methodDecoded": false,
                    "operation": "CALL",
                    "output": "",
                    "revert": false,
                    "revertMessage": "",
                    "selector": "0x90c3bc3f",
                    "status": true,
                    "value": "0"
                },
                "nodeType": 0
            },
            "1": {
                "invocation": {
                    "address": "0x0000000000000000000000000000000000000001",
                    "callData": "0xbe1a798978145a9dff542cefcb12d2849562820da7f6690ae1bf4ffb000000000000000000000000000000000000000000000000000000000000001bad3b216e58b4bfe6eff675dfdc725a76aa5ad66a128bbb4916d3e4acc5c2174b02daf207b2c682536f1f53bbb996d6ec11f65fbf433f94bf5ceca6d3571c35a8",
                    "decodedMethod": {
                        "callParams": [
                            {
                                "name": "hash",
                                "type": "bytes32",
                                "value": "0x5c8de612be1a798978145a9dff542cefcb12d2849562820da7f6690ae1bf4ffb"
                            },
                            {
                                "name": "v",
                                "type": "uint256",
                                "value": "27"
                            },
                            {
                                "name": "r",
                                "type": "bytes32",
                                "value": "0xad3b216e58b4bfe6eff675dfdc725a76aa5ad66a128bbb4916d3e4acc5c2174b"
                            },
                            {
                                "name": "s",
                                "type": "bytes32",
                                "value": "0x02daf207b2c682536f1f53bbb996d6ec11f65fbf433f94bf5ceca6d3571c35a8"
                            }
                        ],
                        "constructorArguments": "",
                        "name": "ecrecover",
                        "returnParams": [
                            {
                                "name": "",
                                "type": "address",
                                "value": "0xc898fbee1cc94c0ff077faa5449915a506eff384"
                            }
                        ],
                        "signature": "ecrecover(bytes32,uint256,bytes32,bytes32)"
                    },
                    "errorInfo": "",
                    "fromAddress": "0xa14857e8930acd9a882d33ec20559beb5479c8a6",
                    "gasUsed": 3000,
                    "id": 1,
                    "methodDecoded": true,
                    "operation": "STATICCALL",
                    "output": "0x000000000000000000000000c898fbee1cc94c0ff077faa5449915a506eff384",
                    "revert": false,
                    "revertMessage": "",
                    "selector": "0x5c8de612",
                    "status": true,
                    "value": "0"
                },
                "nodeType": 0
            },
            "10": {
                "invocation": {
                    "address": "0x95e6f48254609a6ee006f7d493c8e5fb97094cef",
                    "callData": "0x000000000000000000000000000000000000000000000000000000000000008000000000000000000000000086053256c96f8c090f30287c910ab63f1204875b0000000000000000000000007a9dad4e03966c2f08dd98ddddb8043a6c1691c6000000000000000000000000000000000000000000000000012de402ca006b000000000000000000000000000000000000000000000000000000000000000024f47261b0000000000000000000000000c02aaa39b223fe8d0a0e5c4f27ead9083c756cc200000000000000000000000000000000000000000000000000000000",
                    "decodedMethod": {
                        "callParams": [
                            {
                                "name": "assetData",
                                "type": "bytes",
                                "value": "0xf47261b0000000000000000000000000c02aaa39b223fe8d0a0e5c4f27ead9083c756cc2"
                            },
                            {
                                "name": "from",
                                "type": "address",
                                "value": "0x86053256c96f8c090f30287c910ab63f1204875b"
                            },
                            {
                                "name": "to",
                                "type": "address",
                                "value": "0x7a9dad4e03966c2f08dd98ddddb8043a6c1691c6"
                            },
                            {
                                "name": "amount",
                                "type": "uint256",
                                "value": "84,974,668,620,000,000"
                            }
                        ],
                        "constructorArguments": "",
                        "name": "transferFrom",
                        "returnParams": [],
                        "signature": "transferFrom(bytes,address,address,uint256)"
                    },
                    "errorInfo": "",
                    "fromAddress": "0x080bf510fcbf18b91105470639e9561022937712",
                    "gasUsed": 30079,
                    "id": 10,
                    "methodDecoded": true,
                    "operation": "CALL",
                    "output": "",
                    "revert": false,
                    "revertMessage": "",
                    "selector": "0xa85e59e4",
                    "status": true,
                    "value": "0"
                },
                "nodeType": 0
            },
            "11": {
                "invocation": {
                    "address": "0xc02aaa39b223fe8d0a0e5c4f27ead9083c756cc2",
                    "callData": "0x00000000000000000000000086053256c96f8c090f30287c910ab63f1204875b0000000000000000000000007a9dad4e03966c2f08dd98ddddb8043a6c1691c6000000000000000000000000000000000000000000000000012de402ca006b00",
                    "decodedMethod": {
                        "callParams": [
                            {
                                "name": "src",
                                "type": "address",
                                "value": "0x86053256c96f8c090f30287c910ab63f1204875b"
                            },
                            {
                                "name": "dst",
                                "type": "address",
                                "value": "0x7a9dad4e03966c2f08dd98ddddb8043a6c1691c6"
                            },
                            {
                                "decimalAvailable": true,
                                "name": "wad",
                                "type": "uint256",
                                "value": "84,974,668,620,000,000"
                            }
                        ],
                        "constructorArguments": "",
                        "name": "transferFrom",
                        "returnParams": [
                            {
                                "name": "",
                                "type": "bool",
                                "value": true
                            }
                        ],
                        "signature": "transferFrom(address,address,uint256)"
                    },
                    "errorInfo": "",
                    "fromAddress": "0x95e6f48254609a6ee006f7d493c8e5fb97094cef",
                    "gasUsed": 28625,
                    "id": 11,
                    "methodDecoded": true,
                    "operation": "CALL",
                    "output": "0x0000000000000000000000000000000000000000000000000000000000000001",
                    "revert": false,
                    "revertMessage": "",
                    "selector": "0x23b872dd",
                    "status": true,
                    "value": "0"
                },
                "nodeType": 0
            },
            "12": {
                "event": {
                    "contract": "0xc02aaa39b223fe8d0a0e5c4f27ead9083c756cc2",
                    "decodedLog": {
                        "name": "Transfer",
                        "params": [
                            {
                                "name": "src",
                                "type": "address",
                                "value": "0x86053256c96f8c090f30287c910ab63f1204875b"
                            },
                            {
                                "name": "dst",
                                "type": "address",
                                "value": "0x7a9dad4e03966c2f08dd98ddddb8043a6c1691c6"
                            },
                            {
                                "decimalAvailable": true,
                                "name": "wad",
                                "type": "uint256",
                                "value": "84,974,668,620,000,000"
                            }
                        ],
                        "signature": "Transfer(address,address,uint256)"
                    },
                    "id": 12,
                    "logData": "0x000000000000000000000000000000000000000000000000012de402ca006b00",
                    "logDecoded": true,
                    "operation": "EVENT",
                    "revert": false,
                    "status": true,
                    "topics": [
                        "0xddf252ad1be2c89b69c2b068fc378daa952ba7f163c4a11628f55a4df523b3ef",
                        "0x00000000000000000000000086053256c96f8c090f30287c910ab63f1204875b",
                        "0x0000000000000000000000007a9dad4e03966c2f08dd98ddddb8043a6c1691c6"
                    ]
                },
                "nodeType": 1
            },
            "2": {
                "invocation": {
                    "address": "0x080bf510fcbf18b91105470639e9561022937712",
                    "callData": "0x7790ceb74075f1c4f5dc86b7c7a9e7cda04038161b88c5b06779499448d4c8af00000000000000000000000086053256c96f8c090f30287c910ab63f1204875b000000000000000000000000000000000000000000000000000000000000008000000000000000000000000000000000000000000000000000000000000003e00000000000000000000000000000000000000000000000000000000000000324b4be83d50000000000000000000000000000000000000000000000000000000000000060000000000000000000000000000000000000000000000000012de402ca006b0000000000000000000000000000000000000000000000000000000000000002a00000000000000000000000007a9dad4e03966c2f08dd98ddddb8043a6c1691c60000000000000000000000000000000000000000000000000000000000000000000000000000000000000000c898fbee1cc94c0ff077faa5449915a506eff384000000000000000000000000a14857e8930acd9a882d33ec20559beb5479c8a60000000000000000000000000000000000000000000000485ed8c2ddea7c0000000000000000000000000000000000000000000000000000250dbeda8e4b000000000000000000000000000000000000000000000000000000000000000000000000000000000000000000000000000000000000000000000000000000000000000000000000000000000000000000000000000000000000000000005d767ffd837b5e44e2ad16e7d58ffe45defb318b06737785f1e3324ad47cb5f35709141f000000000000000000000000000000000000000000000000000000000000018000000000000000000000000000000000000000000000000000000000000001e00000000000000000000000000000000000000000000000000000000000000024f47261b0000000000000000000000000dfb410994b66778bd6cc2c82e8ffe4f7b2870006000000000000000000000000000000000000000000000000000000000000000000000000000000000000000000000000000000000000000000000024f47261b0000000000000000000000000c02aaa39b223fe8d0a0e5c4f27ead9083c756cc20000000000000000000000000000000000000000000000000000000000000000000000000000000000000000000000000000000000000000000000421b0ece7b5a74551746b0122411d74d0b0ec05e8760c128b626fda5e397b00819c70beeaec72d040bb5377bce9fd0af873dfd9e06e6cb2c849ad19a233b4fa39dea020000000000000000000000000000000000000000000000000000000000000000000000000000000000000000000000000000000000000000000000000000000000000000000000000000000000000000000000000000000000421b9a78fd3c133d3c9d0c59142f6618de3ada37499560af42fb79618ad322f427d96761424b29de94f1c74813eb9e1d486aca5c68c9d539500f7f0fdebc358a8d2402000000000000000000000000000000000000000000000000000000000000",
                    "decodedMethod": {
                        "callParams": [
                            {
                                "name": "salt",
                                "type": "uint256",
                                "value": "54,081,081,658,942,972,688,091,280,402,184,296,978,964,465,487,649,539,808,301,631,746,455,769,499,823"
                            },
                            {
                                "name": "signerAddress",
                                "type": "address",
                                "value": "0x86053256c96f8c090f30287c910ab63f1204875b"
                            },
                            {
                                "name": "data",
                                "type": "bytes",
                                "value": "0xb4be83d50000000000000000000000000000000000000000000000000000000000000060000000000000000000000000000000000000000000000000012de402ca006b0000000000000000000000000000000000000000000000000000000000000002a00000000000000000000000007a9dad4e03966c2f08dd98ddddb8043a6c1691c60000000000000000000000000000000000000000000000000000000000000000000000000000000000000000c898fbee1cc94c0ff077faa5449915a506eff384000000000000000000000000a14857e8930acd9a882d33ec20559beb5479c8a60000000000000000000000000000000000000000000000485ed8c2ddea7c0000000000000000000000000000000000000000000000000000250dbeda8e4b000000000000000000000000000000000000000000000000000000000000000000000000000000000000000000000000000000000000000000000000000000000000000000000000000000000000000000000000000000000000000000005d767ffd837b5e44e2ad16e7d58ffe45defb318b06737785f1e3324ad47cb5f35709141f000000000000000000000000000000000000000000000000000000000000018000000000000000000000000000000000000000000000000000000000000001e00000000000000000000000000000000000000000000000000000000000000024f47261b0000000000000000000000000dfb410994b66778bd6cc2c82e8ffe4f7b2870006000000000000000000000000000000000000000000000000000000000000000000000000000000000000000000000000000000000000000000000024f47261b0000000000000000000000000c02aaa39b223fe8d0a0e5c4f27ead9083c756cc20000000000000000000000000000000000000000000000000000000000000000000000000000000000000000000000000000000000000000000000421b0ece7b5a74551746b0122411d74d0b0ec05e8760c128b626fda5e397b00819c70beeaec72d040bb5377bce9fd0af873dfd9e06e6cb2c849ad19a233b4fa39dea02000000000000000000000000000000000000000000000000000000000000"
                            },
                            {
                                "name": "signature",
                                "type": "bytes",
                                "value": "0x1b9a78fd3c133d3c9d0c59142f6618de3ada37499560af42fb79618ad322f427d96761424b29de94f1c74813eb9e1d486aca5c68c9d539500f7f0fdebc358a8d2402"
                            }
                        ],
                        "constructorArguments": "",
                        "name": "executeTransaction",
                        "returnParams": [],
                        "signature": "executeTransaction(uint256,address,bytes,bytes)"
                    },
                    "errorInfo": "",
                    "fromAddress": "0xa14857e8930acd9a882d33ec20559beb5479c8a6",
                    "gasUsed": 183272,
                    "id": 2,
                    "methodDecoded": true,
                    "operation": "CALL",
                    "output": "",
                    "revert": false,
                    "revertMessage": "",
                    "selector": "0xbfc8bfce",
                    "status": true,
                    "value": "0"
                },
                "nodeType": 0
            },
            "3": {
                "invocation": {
                    "address": "0x0000000000000000000000000000000000000001",
                    "callData": "0xf07b11001225833836e8450536685ce55a298e2c50e041c4c7384eb0000000000000000000000000000000000000000000000000000000000000001b9a78fd3c133d3c9d0c59142f6618de3ada37499560af42fb79618ad322f427d96761424b29de94f1c74813eb9e1d486aca5c68c9d539500f7f0fdebc358a8d24",
                    "decodedMethod": {
                        "callParams": [
                            {
                                "name": "hash",
                                "type": "bytes32",
                                "value": "0x60927589f07b11001225833836e8450536685ce55a298e2c50e041c4c7384eb0"
                            },
                            {
                                "name": "v",
                                "type": "uint256",
                                "value": "27"
                            },
                            {
                                "name": "r",
                                "type": "bytes32",
                                "value": "0x9a78fd3c133d3c9d0c59142f6618de3ada37499560af42fb79618ad322f427d9"
                            },
                            {
                                "name": "s",
                                "type": "bytes32",
                                "value": "0x6761424b29de94f1c74813eb9e1d486aca5c68c9d539500f7f0fdebc358a8d24"
                            }
                        ],
                        "constructorArguments": "",
                        "name": "ecrecover",
                        "returnParams": [
                            {
                                "name": "",
                                "type": "address",
                                "value": "0x86053256c96f8c090f30287c910ab63f1204875b"
                            }
                        ],
                        "signature": "ecrecover(bytes32,uint256,bytes32,bytes32)"
                    },
                    "errorInfo": "",
                    "fromAddress": "0x080bf510fcbf18b91105470639e9561022937712",
                    "gasUsed": 3000,
                    "id": 3,
                    "methodDecoded": true,
                    "operation": "CALL",
                    "output": "0x00000000000000000000000086053256c96f8c090f30287c910ab63f1204875b",
                    "revert": false,
                    "revertMessage": "",
                    "selector": "0x60927589",
                    "status": true,
                    "value": "0"
                },
                "nodeType": 0
            },
            "4": {
                "invocation": {
                    "address": "0x080bf510fcbf18b91105470639e9561022937712",
                    "callData": "0x0000000000000000000000000000000000000000000000000000000000000060000000000000000000000000000000000000000000000000012de402ca006b0000000000000000000000000000000000000000000000000000000000000002a00000000000000000000000007a9dad4e03966c2f08dd98ddddb8043a6c1691c60000000000000000000000000000000000000000000000000000000000000000000000000000000000000000c898fbee1cc94c0ff077faa5449915a506eff384000000000000000000000000a14857e8930acd9a882d33ec20559beb5479c8a60000000000000000000000000000000000000000000000485ed8c2ddea7c0000000000000000000000000000000000000000000000000000250dbeda8e4b000000000000000000000000000000000000000000000000000000000000000000000000000000000000000000000000000000000000000000000000000000000000000000000000000000000000000000000000000000000000000000005d767ffd837b5e44e2ad16e7d58ffe45defb318b06737785f1e3324ad47cb5f35709141f000000000000000000000000000000000000000000000000000000000000018000000000000000000000000000000000000000000000000000000000000001e00000000000000000000000000000000000000000000000000000000000000024f47261b0000000000000000000000000dfb410994b66778bd6cc2c82e8ffe4f7b2870006000000000000000000000000000000000000000000000000000000000000000000000000000000000000000000000000000000000000000000000024f47261b0000000000000000000000000c02aaa39b223fe8d0a0e5c4f27ead9083c756cc20000000000000000000000000000000000000000000000000000000000000000000000000000000000000000000000000000000000000000000000421b0ece7b5a74551746b0122411d74d0b0ec05e8760c128b626fda5e397b00819c70beeaec72d040bb5377bce9fd0af873dfd9e06e6cb2c849ad19a233b4fa39dea02000000000000000000000000000000000000000000000000000000000000",
                    "decodedMethod": {
                        "callParams": [
                            {
                                "name": "order",
                                "type": "(address,address,address,address,uint256,uint256,uint256,uint256,uint256,uint256,bytes,bytes)",
                                "value": [
                                    {
                                        "name": "makerAddress",
                                        "type": "address",
                                        "value": "0x7a9dad4e03966c2f08dd98ddddb8043a6c1691c6"
                                    },
                                    {
                                        "name": "takerAddress",
                                        "type": "address",
                                        "value": "0x0000000000000000000000000000000000000000"
                                    },
                                    {
                                        "name": "feeRecipientAddress",
                                        "type": "address",
                                        "value": "0xc898fbee1cc94c0ff077faa5449915a506eff384"
                                    },
                                    {
                                        "name": "senderAddress",
                                        "type": "address",
                                        "value": "0xa14857e8930acd9a882d33ec20559beb5479c8a6"
                                    },
                                    {
                                        "name": "makerAssetAmount",
                                        "type": "uint256",
                                        "value": "1,335,000,000,000,000,000,000"
                                    },
                                    {
                                        "name": "takerAssetAmount",
                                        "type": "uint256",
                                        "value": "2,670,000,000,000,000,000"
                                    },
                                    {
                                        "name": "makerFee",
                                        "type": "uint256",
                                        "value": "0"
                                    },
                                    {
                                        "name": "takerFee",
                                        "type": "uint256",
                                        "value": "0"
                                    },
                                    {
                                        "name": "expirationTimeSeconds",
                                        "type": "uint256",
                                        "value": "1,568,047,101"
                                    },
                                    {
                                        "name": "salt",
                                        "type": "uint256",
                                        "value": "59,470,955,974,680,392,625,765,813,026,042,483,970,251,245,229,388,086,854,969,898,236,030,422,160,415"
                                    },
                                    {
                                        "name": "makerAssetData",
                                        "type": "bytes",
                                        "value": "0xf47261b0000000000000000000000000dfb410994b66778bd6cc2c82e8ffe4f7b2870006"
                                    },
                                    {
                                        "name": "takerAssetData",
                                        "type": "bytes",
                                        "value": "0xf47261b0000000000000000000000000c02aaa39b223fe8d0a0e5c4f27ead9083c756cc2"
                                    }
                                ]
                            },
                            {
                                "name": "takerAssetFillAmount",
                                "type": "uint256",
                                "value": "84,974,668,620,000,000"
                            },
                            {
                                "name": "signature",
                                "type": "bytes",
                                "value": "0x1b0ece7b5a74551746b0122411d74d0b0ec05e8760c128b626fda5e397b00819c70beeaec72d040bb5377bce9fd0af873dfd9e06e6cb2c849ad19a233b4fa39dea02"
                            }
                        ],
                        "constructorArguments": "",
                        "name": "fillOrder",
                        "returnParams": [
                            {
                                "name": "fillResults",
                                "type": "(uint256,uint256,uint256,uint256)",
                                "value": [
                                    {
                                        "name": "makerAssetFilledAmount",
                                        "type": "uint256",
                                        "value": "42,487,334,310,000,000,000"
                                    },
                                    {
                                        "name": "takerAssetFilledAmount",
                                        "type": "uint256",
                                        "value": "84,974,668,620,000,000"
                                    },
                                    {
                                        "name": "makerFeePaid",
                                        "type": "uint256",
                                        "value": "0"
                                    },
                                    {
                                        "name": "takerFeePaid",
                                        "type": "uint256",
                                        "value": "0"
                                    }
                                ]
                            }
                        ],
                        "signature": "fillOrder((address,address,address,address,uint256,uint256,uint256,uint256,uint256,uint256,bytes,bytes),uint256,bytes)"
                    },
                    "errorInfo": "",
                    "fromAddress": "0x080bf510fcbf18b91105470639e9561022937712",
                    "gasUsed": 125544,
                    "id": 4,
                    "methodDecoded": true,
                    "operation": "DELEGATECALL",
                    "output": "0x0000000000000000000000000000000000000000000000024da1557288d0fc00000000000000000000000000000000000000000000000000012de402ca006b0000000000000000000000000000000000000000000000000000000000000000000000000000000000000000000000000000000000000000000000000000000000",
                    "revert": false,
                    "revertMessage": "",
                    "selector": "0xb4be83d5",
                    "status": true,
                    "value": "0"
                },
                "nodeType": 0
            },
            "5": {
                "invocation": {
                    "address": "0x0000000000000000000000000000000000000001",
                    "callData": "0x98c4589bd70f2c96ea2f5c15d69c1d82abc25701fb2e40f384c2865a000000000000000000000000000000000000000000000000000000000000001b0ece7b5a74551746b0122411d74d0b0ec05e8760c128b626fda5e397b00819c70beeaec72d040bb5377bce9fd0af873dfd9e06e6cb2c849ad19a233b4fa39dea",
                    "decodedMethod": {
                        "callParams": [
                            {
                                "name": "hash",
                                "type": "bytes32",
                                "value": "0x0eb621a198c4589bd70f2c96ea2f5c15d69c1d82abc25701fb2e40f384c2865a"
                            },
                            {
                                "name": "v",
                                "type": "uint256",
                                "value": "27"
                            },
                            {
                                "name": "r",
                                "type": "bytes32",
                                "value": "0x0ece7b5a74551746b0122411d74d0b0ec05e8760c128b626fda5e397b00819c7"
                            },
                            {
                                "name": "s",
                                "type": "bytes32",
                                "value": "0x0beeaec72d040bb5377bce9fd0af873dfd9e06e6cb2c849ad19a233b4fa39dea"
                            }
                        ],
                        "constructorArguments": "",
                        "name": "ecrecover",
                        "returnParams": [
                            {
                                "name": "",
                                "type": "address",
                                "value": "0x7a9dad4e03966c2f08dd98ddddb8043a6c1691c6"
                            }
                        ],
                        "signature": "ecrecover(bytes32,uint256,bytes32,bytes32)"
                    },
                    "errorInfo": "",
                    "fromAddress": "0x080bf510fcbf18b91105470639e9561022937712",
                    "gasUsed": 3000,
                    "id": 5,
                    "methodDecoded": true,
                    "operation": "CALL",
                    "output": "0x0000000000000000000000007a9dad4e03966c2f08dd98ddddb8043a6c1691c6",
                    "revert": false,
                    "revertMessage": "",
                    "selector": "0x0eb621a1",
                    "status": true,
                    "value": "0"
                },
                "nodeType": 0
            },
            "6": {
                "event": {
                    "contract": "0x080bf510fcbf18b91105470639e9561022937712",
                    "decodedLog": {
                        "name": "Fill",
                        "params": [
                            {
                                "name": "makerAddress",
                                "type": "address",
                                "value": "0x7a9dad4e03966c2f08dd98ddddb8043a6c1691c6"
                            },
                            {
                                "name": "feeRecipientAddress",
                                "type": "address",
                                "value": "0xc898fbee1cc94c0ff077faa5449915a506eff384"
                            },
                            {
                                "name": "orderHash",
                                "type": "bytes32",
                                "value": "0x0eb621a198c4589bd70f2c96ea2f5c15d69c1d82abc25701fb2e40f384c2865a"
                            },
                            {
                                "name": "takerAddress",
                                "type": "address",
                                "value": "0x86053256c96f8c090f30287c910ab63f1204875b"
                            },
                            {
                                "name": "senderAddress",
                                "type": "address",
                                "value": "0xa14857e8930acd9a882d33ec20559beb5479c8a6"
                            },
                            {
                                "name": "makerAssetFilledAmount",
                                "type": "uint256",
                                "value": "42,487,334,310,000,000,000"
                            },
                            {
                                "name": "takerAssetFilledAmount",
                                "type": "uint256",
                                "value": "84,974,668,620,000,000"
                            },
                            {
                                "name": "makerFeePaid",
                                "type": "uint256",
                                "value": "0"
                            },
                            {
                                "name": "takerFeePaid",
                                "type": "uint256",
                                "value": "0"
                            },
                            {
                                "name": "makerAssetData",
                                "type": "bytes",
                                "value": "0xf47261b0000000000000000000000000dfb410994b66778bd6cc2c82e8ffe4f7b2870006"
                            },
                            {
                                "name": "takerAssetData",
                                "type": "bytes",
                                "value": "0xf47261b0000000000000000000000000c02aaa39b223fe8d0a0e5c4f27ead9083c756cc2"
                            }
                        ],
                        "signature": "Fill(address,address,address,address,uint256,uint256,uint256,uint256,bytes32,bytes,bytes)"
                    },
                    "id": 6,
                    "logData": "0x00000000000000000000000086053256c96f8c090f30287c910ab63f1204875b000000000000000000000000a14857e8930acd9a882d33ec20559beb5479c8a60000000000000000000000000000000000000000000000024da1557288d0fc00000000000000000000000000000000000000000000000000012de402ca006b0000000000000000000000000000000000000000000000000000000000000000000000000000000000000000000000000000000000000000000000000000000000000000000000000000000000000000000000000000000000000000000000010000000000000000000000000000000000000000000000000000000000000001600000000000000000000000000000000000000000000000000000000000000024f47261b0000000000000000000000000dfb410994b66778bd6cc2c82e8ffe4f7b2870006000000000000000000000000000000000000000000000000000000000000000000000000000000000000000000000000000000000000000000000024f47261b0000000000000000000000000c02aaa39b223fe8d0a0e5c4f27ead9083c756cc200000000000000000000000000000000000000000000000000000000",
                    "logDecoded": true,
                    "operation": "EVENT",
                    "revert": false,
                    "status": true,
                    "topics": [
                        "0x0bcc4c97732e47d9946f229edb95f5b6323f601300e4690de719993f3c371129",
                        "0x0000000000000000000000007a9dad4e03966c2f08dd98ddddb8043a6c1691c6",
                        "0x000000000000000000000000c898fbee1cc94c0ff077faa5449915a506eff384",
                        "0x0eb621a198c4589bd70f2c96ea2f5c15d69c1d82abc25701fb2e40f384c2865a"
                    ]
                },
                "nodeType": 1
            },
            "7": {
                "invocation": {
                    "address": "0x95e6f48254609a6ee006f7d493c8e5fb97094cef",
                    "callData": "0x00000000000000000000000000000000000000000000000000000000000000800000000000000000000000007a9dad4e03966c2f08dd98ddddb8043a6c1691c600000000000000000000000086053256c96f8c090f30287c910ab63f1204875b0000000000000000000000000000000000000000000000024da1557288d0fc000000000000000000000000000000000000000000000000000000000000000024f47261b0000000000000000000000000dfb410994b66778bd6cc2c82e8ffe4f7b287000600000000000000000000000000000000000000000000000000000000",
                    "decodedMethod": {
                        "callParams": [
                            {
                                "name": "assetData",
                                "type": "bytes",
                                "value": "0xf47261b0000000000000000000000000dfb410994b66778bd6cc2c82e8ffe4f7b2870006"
                            },
                            {
                                "name": "from",
                                "type": "address",
                                "value": "0x7a9dad4e03966c2f08dd98ddddb8043a6c1691c6"
                            },
                            {
                                "name": "to",
                                "type": "address",
                                "value": "0x86053256c96f8c090f30287c910ab63f1204875b"
                            },
                            {
                                "name": "amount",
                                "type": "uint256",
                                "value": "42,487,334,310,000,000,000"
                            }
                        ],
                        "constructorArguments": "",
                        "name": "transferFrom",
                        "returnParams": [],
                        "signature": "transferFrom(bytes,address,address,uint256)"
                    },
                    "errorInfo": "",
                    "fromAddress": "0x080bf510fcbf18b91105470639e9561022937712",
                    "gasUsed": 21338,
                    "id": 7,
                    "methodDecoded": true,
                    "operation": "CALL",
                    "output": "",
                    "revert": false,
                    "revertMessage": "",
                    "selector": "0xa85e59e4",
                    "status": true,
                    "value": "0"
                },
                "nodeType": 0
            },
            "8": {
                "invocation": {
                    "address": "0xdfb410994b66778bd6cc2c82e8ffe4f7b2870006",
                    "callData": "0x0000000000000000000000007a9dad4e03966c2f08dd98ddddb8043a6c1691c600000000000000000000000086053256c96f8c090f30287c910ab63f1204875b0000000000000000000000000000000000000000000000024da1557288d0fc00",
                    "decodedMethod": {
                        "callParams": [
                            {
                                "name": "_from",
                                "type": "address",
                                "value": "0x7a9dad4e03966c2f08dd98ddddb8043a6c1691c6"
                            },
                            {
                                "name": "_to",
                                "type": "address",
                                "value": "0x86053256c96f8c090f30287c910ab63f1204875b"
                            },
                            {
                                "decimalAvailable": true,
                                "name": "_value",
                                "type": "uint256",
                                "value": "42,487,334,310,000,000,000"
                            }
                        ],
                        "constructorArguments": "",
                        "name": "transferFrom",
                        "returnParams": [
                            {
                                "name": "success",
                                "type": "bool",
                                "value": true
                            }
                        ],
                        "signature": "transferFrom(address,address,uint256)"
                    },
                    "errorInfo": "",
                    "fromAddress": "0x95e6f48254609a6ee006f7d493c8e5fb97094cef",
                    "gasUsed": 19884,
                    "id": 8,
                    "methodDecoded": true,
                    "operation": "CALL",
                    "output": "0x0000000000000000000000000000000000000000000000000000000000000001",
                    "revert": false,
                    "revertMessage": "",
                    "selector": "0x23b872dd",
                    "status": true,
                    "value": "0"
                },
                "nodeType": 0
            },
            "9": {
                "event": {
                    "contract": "0xdfb410994b66778bd6cc2c82e8ffe4f7b2870006",
                    "decodedLog": {
                        "name": "Transfer",
                        "params": [
                            {
                                "name": "from",
                                "type": "address",
                                "value": "0x7a9dad4e03966c2f08dd98ddddb8043a6c1691c6"
                            },
                            {
                                "name": "to",
                                "type": "address",
                                "value": "0x86053256c96f8c090f30287c910ab63f1204875b"
                            },
                            {
                                "decimalAvailable": true,
                                "name": "value",
                                "type": "uint256",
                                "value": "42,487,334,310,000,000,000"
                            }
                        ],
                        "signature": "Transfer(address,address,uint256)"
                    },
                    "id": 9,
                    "logData": "0x0000000000000000000000000000000000000000000000024da1557288d0fc00",
                    "logDecoded": true,
                    "operation": "EVENT",
                    "revert": false,
                    "status": true,
                    "topics": [
                        "0xddf252ad1be2c89b69c2b068fc378daa952ba7f163c4a11628f55a4df523b3ef",
                        "0x0000000000000000000000007a9dad4e03966c2f08dd98ddddb8043a6c1691c6",
                        "0x00000000000000000000000086053256c96f8c090f30287c910ab63f1204875b"
                    ]
                },
                "nodeType": 1
            }
        },
        "gasFlame": [
            {
                "children": [
                    {
                        "children": [
                            {
                                "children": [],
                                "depth": 0,
                                "name": "Initial Gas",
                                "value": 57048
                            },
                            {
                                "children": [
                                    {
                                        "children": [],
                                        "depth": 1,
                                        "name": "ecrecover",
                                        "value": 3000
                                    },
                                    {
                                        "children": [
                                            {
                                                "children": [],
                                                "depth": 2,
                                                "name": "ecrecover",
                                                "value": 3000
                                            },
                                            {
                                                "children": [
                                                    {
                                                        "children": [],
                                                        "depth": 3,
                                                        "name": "ecrecover",
                                                        "value": 3000
                                                    },
                                                    {
                                                        "children": [
                                                            {
                                                                "children": [],
                                                                "depth": 4,
                                                                "name": "transferFrom",
                                                                "value": 19884
                                                            }
                                                        ],
                                                        "depth": 3,
                                                        "name": "transferFrom",
                                                        "value": 21338
                                                    },
                                                    {
                                                        "children": [
                                                            {
                                                                "children": [],
                                                                "depth": 4,
                                                                "name": "transferFrom",
                                                                "value": 28625
                                                            }
                                                        ],
                                                        "depth": 3,
                                                        "name": "transferFrom",
                                                        "value": 30079
                                                    }
                                                ],
                                                "depth": 2,
                                                "name": "fillOrder",
                                                "value": 125544
                                            }
                                        ],
                                        "depth": 1,
                                        "name": "executeTransaction",
                                        "value": 183272
                                    }
                                ],
                                "depth": 0,
                                "name": "Executed Gas",
                                "value": 204834
                            }
                        ],
                        "depth": -1,
                        "name": "Actual Gas Used",
                        "value": 231882
                    },
                    {
                        "children": [],
                        "depth": -1,
                        "name": "Refunded Gas",
                        "value": 30000
                    }
                ],
                "depth": -2,
                "name": "Total Gas",
                "value": 261882
            }
        ],
        "isConfirmed": true,
        "mainTrace": [
            {
                "children": [
                    {
                        "children": [
                            {
                                "children": [],
                                "depth": 1,
                                "id": 1,
                                "order": 1
                            },
                            {
                                "children": [
                                    {
                                        "children": [],
                                        "depth": 2,
                                        "id": 3,
                                        "order": 3
                                    },
                                    {
                                        "children": [
                                            {
                                                "children": [],
                                                "depth": 3,
                                                "id": 5,
                                                "order": 5
                                            },
                                            {
                                                "children": [],
                                                "depth": 3,
                                                "id": 6,
                                                "order": 6
                                            },
                                            {
                                                "children": [
                                                    {
                                                        "children": [
                                                            {
                                                                "children": [],
                                                                "depth": 5,
                                                                "id": 9,
                                                                "order": 9
                                                            }
                                                        ],
                                                        "depth": 4,
                                                        "id": 8,
                                                        "order": 8
                                                    }
                                                ],
                                                "depth": 3,
                                                "id": 7,
                                                "order": 7
                                            },
                                            {
                                                "children": [
                                                    {
                                                        "children": [
                                                            {
                                                                "children": [],
                                                                "depth": 5,
                                                                "id": 12,
                                                                "order": 12
                                                            }
                                                        ],
                                                        "depth": 4,
                                                        "id": 11,
                                                        "order": 11
                                                    }
                                                ],
                                                "depth": 3,
                                                "id": 10,
                                                "order": 10
                                            }
                                        ],
                                        "depth": 2,
                                        "id": 4,
                                        "order": 4
                                    }
                                ],
                                "depth": 1,
                                "id": 2,
                                "order": 2
                            }
                        ],
                        "depth": 0,
                        "id": 0,
                        "order": 0
                    }
                ],
                "depth": -1,
                "id": -1,
                "order": -1
            }
        ],
        "mainTraceNodeCount": 13,
        "parentIdMap": {
            "0": -1,
            "1": 0,
            "10": 4,
            "11": 10,
            "12": 11,
            "2": 0,
            "3": 2,
            "4": 2,
            "5": 4,
            "6": 4,
            "7": 4,
            "8": 7,
            "9": 8
        },
        "tidyTrace": [
            {
                "children": [
                    {
                        "children": [
                            {
                                "children": [
                                    {
                                        "children": [],
                                        "depth": 2,
                                        "id": 3,
                                        "order": 3
                                    },
                                    {
                                        "children": [
                                            {
                                                "children": [],
                                                "depth": 3,
                                                "id": 5,
                                                "order": 5
                                            },
                                            {
                                                "children": [],
                                                "depth": 3,
                                                "id": 6,
                                                "order": 6
                                            },
                                            {
                                                "children": [
                                                    {
                                                        "children": [
                                                            {
                                                                "children": [],
                                                                "depth": 5,
                                                                "id": 9,
                                                                "order": 9
                                                            }
                                                        ],
                                                        "depth": 4,
                                                        "id": 8,
                                                        "order": 8
                                                    }
                                                ],
                                                "depth": 3,
                                                "id": 7,
                                                "order": 7
                                            },
                                            {
                                                "children": [
                                                    {
                                                        "children": [
                                                            {
                                                                "children": [],
                                                                "depth": 5,
                                                                "id": 12,
                                                                "order": 12
                                                            }
                                                        ],
                                                        "depth": 4,
                                                        "id": 11,
                                                        "order": 11
                                                    }
                                                ],
                                                "depth": 3,
                                                "id": 10,
                                                "order": 10
                                            }
                                        ],
                                        "depth": 2,
                                        "id": 4,
                                        "order": 4
                                    }
                                ],
                                "depth": 1,
                                "id": 2,
                                "order": 2
                            }
                        ],
                        "depth": 0,
                        "id": 0,
                        "order": 0
                    }
                ],
                "depth": -1,
                "id": -1,
                "order": -1
            }
        ],
        "tidyTraceNodeCount": 12
    },
    "state_change": {
        "stateChanges": [
            {
                "address": "0x080bf510fcbf18b91105470639e9561022937712",
                "erc": "",
                "slots": [
                    {
                        "current": "0x0000000000000000000000000000000000000000000000000000000000000001",
                        "key": "0x264b38df7750368d2cf8f193f19f969db632610213362dadf379b63978c52f6a",
                        "prev": "0x0000000000000000000000000000000000000000000000000000000000000000"
                    },
                    {
                        "current": "0x000000000000000000000000000000000000000000000000012de402ca006b00",
                        "key": "0xe3e2ffc706b0080a5ff913083ca75fe2a7fc78af20106df41caa9a00370cf96e",
                        "prev": "0x0000000000000000000000000000000000000000000000000000000000000000"
                    }
                ],
                "storageVariables": [
                    {
                        "name": "transactions",
                        "type": "mapping(bytes32 => bool)",
                        "value": {
                            "pairs": [
                                {
                                    "key": "0x60927589f07b11001225833836e8450536685ce55a298e2c50e041c4c7384eb0",
                                    "value": {
                                        "current": "true",
                                        "prev": "false",
                                        "typeTag": 1
                                    }
                                }
                            ],
                            "typeTag": 4
                        }
                    },
                    {
                        "name": "filled",
                        "type": "mapping(bytes32 => uint256)",
                        "value": {
                            "pairs": [
                                {
                                    "key": "0x0eb621a198c4589bd70f2c96ea2f5c15d69c1d82abc25701fb2e40f384c2865a",
                                    "value": {
                                        "current": "84974668620000000",
                                        "prev": "0",
                                        "typeTag": 1
                                    }
                                }
                            ],
                            "typeTag": 4
                        }
                    }
                ]
            },
            {
                "address": "0xc02aaa39b223fe8d0a0e5c4f27ead9083c756cc2",
                "erc": "ERC-20",
                "slots": [
                    {
                        "current": "0x000000000000000000000000000000000000000000000000012de402ca006b00",
                        "key": "0x96332196b112eb350f27aa264a259db83b26c877845fb65ec845316c859acc84",
                        "prev": "0x0000000000000000000000000000000000000000000000000000000000000000"
                    },
                    {
                        "current": "0x0000000000000000000000000000000000000000000000000000000000000064",
                        "key": "0x37afe1c989db46924cbc6e0c65abaccc47734829e8cf30a0792942b55df541fe",
                        "prev": "0x000000000000000000000000000000000000000000000000012de402ca006b64"
                    }
                ],
                "storageVariables": [
                    {
                        "name": "balanceOf",
                        "type": "mapping(address => uint256)",
                        "value": {
                            "pairs": [
                                {
                                    "key": "0x7a9dad4e03966c2f08dd98ddddb8043a6c1691c6",
                                    "value": {
                                        "current": "84974668620000000",
                                        "prev": "0",
                                        "typeTag": 1
                                    }
                                },
                                {
                                    "key": "0x86053256c96f8c090f30287c910ab63f1204875b",
                                    "value": {
                                        "current": "100",
                                        "prev": "84974668620000100",
                                        "typeTag": 1
                                    }
                                }
                            ],
                            "typeTag": 4
                        }
                    }
                ]
            },
            {
                "address": "0xdfb410994b66778bd6cc2c82e8ffe4f7b2870006",
                "erc": "ERC-20",
                "slots": [
                    {
                        "current": "0x000000000000000000000000000000000000000000000002a4727ea1b6711836",
                        "key": "0x8bab705ad10af1807b387990278c5e5e5ee834308c6052505d15934a113c19d8",
                        "prev": "0x00000000000000000000000000000000000000000000000056d1292f2da01c36"
                    },
                    {
                        "current": "0x00000000000000000000000000000000000000000000004611376d6b61ab0400",
                        "key": "0x8e58bc91297d3d3d7ce9b5ff29149b3b9a4987125118fbd038faf27bcc303088",
                        "prev": "0x0000000000000000000000000000000000000000000000485ed8c2ddea7c0000"
                    },
                    {
                        "current": "0xfffffffffffffffffffffffffffffffffffffffffffffffdb25eaa8d772f03ff",
                        "key": "0x1aa71c5cf56a7232ffe0c212b38a1cbded5e13e7f8c29173f05352c98540c93d",
                        "prev": "0xffffffffffffffffffffffffffffffffffffffffffffffffffffffffffffffff"
                    }
                ],
                "storageVariables": [
                    {
                        "name": "balances",
                        "type": "mapping(address => uint256)",
                        "value": {
                            "pairs": [
                                {
                                    "key": "0x7a9dad4e03966c2f08dd98ddddb8043a6c1691c6",
                                    "value": {
                                        "current": "1292512665690000000000",
                                        "prev": "1335000000000000000000",
                                        "typeTag": 1
                                    }
                                },
                                {
                                    "key": "0x86053256c96f8c090f30287c910ab63f1204875b",
                                    "value": {
                                        "current": "48743160949999999030",
                                        "prev": "6255826639999999030",
                                        "typeTag": 1
                                    }
                                }
                            ],
                            "typeTag": 4
                        }
                    },
                    {
                        "name": "allowed",
                        "type": "mapping(address => mapping(address => uint256))",
                        "value": {
                            "pairs": [
                                {
                                    "key": "0x7a9dad4e03966c2f08dd98ddddb8043a6c1691c6",
                                    "value": {
                                        "pairs": [
                                            {
                                                "key": "0x95e6f48254609a6ee006f7d493c8e5fb97094cef",
                                                "value": {
                                                    "current": "115792089237316195423570985008687907853269984665640564039415096673603129639935",
                                                    "prev": "115792089237316195423570985008687907853269984665640564039457584007913129639935",
                                                    "typeTag": 1
                                                }
                                            }
                                        ],
                                        "typeTag": 4
                                    }
                                }
                            ],
                            "typeTag": 4
                        }
                    }
                ]
            }
        ]
    }
}