{
    "balance_change": {
        "balanceChanges": [
            {
                "account": "0x786780d160773beb2311c6674156f0cf1a587dec",
                "assets": [
                    {
                        "address": "0x86fa049857e0209aa7d9e616f7eb3b3b78ecfdb0",
                        "amount": "3,435",
                        "iconUrl": "",
                        "isERC1155": false,
                        "isERC721": false,
                        "sign": false,
                        "value": ""
                    }
                ]
            },
            {
                "account": "0xc145ea02c5fd577786dc50523b00309c92ca87e2",
                "assets": [
                    {
                        "address": "0x86fa049857e0209aa7d9e616f7eb3b3b78ecfdb0",
                        "amount": "3,435",
                        "iconUrl": "",
                        "isERC1155": false,
                        "isERC721": false,
                        "sign": true,
                        "value": ""
                    }
                ]
            }
        ]
    },
    "profile": {
        "basic_info": {
            "baseFee": "",
            "blockNumber": 4215383,
            "callData": "0xa9059cbb000000000000000000000000c145ea02c5fd577786dc50523b00309c92ca87e20000000000000000000000000000000000000000000000ba36337c970acc0000",
            "debugEnable": true,
            "errorInfo": "",
            "eventCount": 2,
            "feeRecipient": "0x1e9939daaad6924ad004c2560e90804164900341",
            "formatValue": "0",
            "gasLimit": 90000,
            "gasPrice": "31.402825774",
            "gasUsed": 25779,
            "intTxnCount": 0,
            "internalRevert": false,
            "internalRevertMessage": "",
            "isContractCreation": false,
            "isFlashloan": false,
            "maxFee": "",
            "nonce": 0,
            "overwritedBlockNumber": -1,
            "priorityFee": "",
            "receiver": "0x86fa049857e0209aa7d9e616f7eb3b3b78ecfdb0",
            "revertMessage": "",
            "sender": "0x786780d160773beb2311c6674156f0cf1a587dec",
            "simulationEnable": true,
            "sourceTxnHash": "0xdaef719f5c920397f64c03d96be3202161e5c2cad1ab00d1361bf7287a3f4123",
            "status": true,
            "timestamp": "2017-08-29T06:04:15Z",
            "transactionFee": "0.000809533445627946",
            "txnHash": "0xdaef719f5c920397f64c03d96be3202161e5c2cad1ab00d1361bf7287a3f4123",
            "txnIndex": 17,
            "type": 0,
            "value": "0"
        },
        "fund_flow": [
            {
                "amount": "3,435",
                "from": "0x786780d160773beb2311c6674156f0cf1a587dec",
                "id": 1,
                "isERC1155": false,
                "isERC721": false,
                "isReverted": false,
                "order": 1,
                "to": "0xc145ea02c5fd577786dc50523b00309c92ca87e2",
                "token": "0x86fa049857e0209aa7d9e616f7eb3b3b78ecfdb0"
            }
        ],
        "token_infos": [
            {
                "address": "0x86fa049857e0209aa7d9e616f7eb3b3b78ecfdb0",
                "decimals": 18
            },
            {
                "address": "0xc02aaa39b223fe8d0a0e5c4f27ead9083c756cc2",
                "decimals": 18
            },
            {
                "address": "0xeeeeeeeeeeeeeeeeeeeeeeeeeeeeeeeeeeeeeeee",
                "decimals": 18
            }
        ]
    },
    "address_label": {
        "labels": [
            {
                "address": "0xeeeeeeeeeeeeeeeeeeeeeeeeeeeeeeeeeeeeeeee",
                "label": "Ether"
            },
            {
                "address": "0x86fa049857e0209aa7d9e616f7eb3b3b78ecfdb0",
                "label": "EOS: Old Token"
            },
            {
                "address": "0x0000000000000000000000000000000000000001",
                "label": "Precompiled"
            },
            {
                "address": "0x0000000000000000000000000000000000000002",
                "label": "Precompiled"
            },
            {
                "address": "0x0000000000000000000000000000000000000003",
                "label": "Precompiled"
            },
            {
                "address": "0x0000000000000000000000000000000000000004",
                "label": "Precompiled"
            }
        ]
    },
    "trace": {
        "accountLabels": null,
        "dataMap": {
            "-1": {
                "invocation": {
                    "address": "0x786780d160773beb2311c6674156f0cf1a587dec",
                    "callData": "",
                    "decodedMethod": null,
                    "errorInfo": "",
                    "fromAddress": "",
                    "gasUsed": 0,
                    "id": -1,
                    "methodDecoded": false,
                    "operation": "",
                    "output": "",
                    "revert": false,
                    "revertMessage": "",
                    "selector": "",
                    "status": false,
                    "value": ""
                },
                "nodeType": 0
            },
            "0": {
                "invocation": {
                    "address": "0x86fa049857e0209aa7d9e616f7eb3b3b78ecfdb0",
                    "callData": "0x000000000000000000000000c145ea02c5fd577786dc50523b00309c92ca87e20000000000000000000000000000000000000000000000ba36337c970acc0000",
                    "decodedMethod": {
                        "callParams": [
                            {
                                "name": "dst",
                                "type": "address",
                                "value": "0xc145ea02c5fd577786dc50523b00309c92ca87e2"
                            },
                            {
                                "decimalAvailable": true,
                                "name": "wad",
                                "type": "uint256",
                                "value": "3,435,000,000,000,000,000,000"
                            }
                        ],
                        "constructorArguments": "",
                        "name": "transfer",
                        "returnParams": [
                            {
                                "name": "",
                                "type": "bool",
                                "value": true
                            }
                        ],
                        "signature": "transfer(address,uint256)"
                    },
                    "errorInfo": "",
                    "fromAddress": "0x786780d160773beb2311c6674156f0cf1a587dec",
                    "gasUsed": 25779,
                    "id": 0,
                    "methodDecoded": true,
                    "operation": "CALL",
                    "output": "0x0000000000000000000000000000000000000000000000000000000000000001",
                    "revert": false,
                    "revertMessage": "",
                    "selector": "0xa9059cbb",
                    "status": true,
                    "value": "0"
                },
                "nodeType": 0
            },
            "1": {
                "event": {
                    "contract": "0x86fa049857e0209aa7d9e616f7eb3b3b78ecfdb0",
                    "decodedLog": null,
                    "id": 1,
                    "logData": "0x000000000000000000000000000000000000000000000000000000000000000000000000000000000000000000000000000000000000000000000000000000400000000000000000000000000000000000000000000000000000000000000044a9059cbb000000000000000000000000c145ea02c5fd577786dc50523b00309c92ca87e20000000000000000000000000000000000000000000000ba36337c970acc0000",
                    "logDecoded": false,
                    "operation": "EVENT",
                    "revert": false,
                    "status": true,
                    "topics": [
                        "0xa9059cbb00000000000000000000000000000000000000000000000000000000",
                        "0x000000000000000000000000786780d160773beb2311c6674156f0cf1a587dec",
                        "0x000000000000000000000000c145ea02c5fd577786dc50523b00309c92ca87e2",
                        "0x0000000000000000000000000000000000000000000000ba36337c970acc0000"
                    ]
                },
                "nodeType": 1
            },
            "2": {
                "event": {
                    "contract": "0x86fa049857e0209aa7d9e616f7eb3b3b78ecfdb0",
                    "decodedLog": {
                        "name": "Transfer",
                        "params": [
                            {
                                "name": "from",
                                "type": "address",
                                "value": "0x786780d160773beb2311c6674156f0cf1a587dec"
                            },
                            {
                                "name": "to",
                                "type": "address",
                                "value": "0xc145ea02c5fd577786dc50523b00309c92ca87e2"
                            },
                            {
                                "decimalAvailable": true,
                                "name": "value",
                                "type": "uint256",
                                "value": "3,435,000,000,000,000,000,000"
                            }
                        ],
                        "signature": "Transfer(address,address,uint256)"
                    },
                    "id": 2,
                    "logData": "0x0000000000000000000000000000000000000000000000ba36337c970acc0000",
                    "logDecoded": true,
                    "operation": "EVENT",
                    "revert": false,
                    "status": true,
                    "topics": [
                        "0xddf252ad1be2c89b69c2b068fc378daa952ba7f163c4a11628f55a4df523b3ef",
                        "0x000000000000000000000000786780d160773beb2311c6674156f0cf1a587dec",
                        "0x000000000000000000000000c145ea02c5fd577786dc50523b00309c92ca87e2"
                    ]
                },
                "nodeType": 1
            }
        },
        "gasFlame": [
            {
                "children": [
                    {
                        "children": [
                            {
                                "children": [],
                                "depth": 0,
                                "name": "Initial Gas",
                                "value": 23192
                            },
                            {
                                "children": [],
                                "depth": 0,
                                "name": "Executed Gas",
                                "value": 17587
                            }
                        ],
                        "depth": -1,
                        "name": "Actual Gas Used",
                        "value": 25779
                    },
                    {
                        "children": [],
                        "depth": -1,
                        "name": "Refunded Gas",
                        "value": 15000
                    }
                ],
                "depth": -2,
                "name": "Total Gas",
                "value": 40779
            }
        ],
        "isConfirmed": true,
        "mainTrace": [
            {
                "children": [
                    {
                        "children": [
                            {
                                "children": [],
                                "depth": 1,
                                "id": 1,
                                "order": 1
                            },
                            {
                                "children": [],
                                "depth": 1,
                                "id": 2,
                                "order": 2
                            }
                        ],
                        "depth": 0,
                        "id": 0,
                        "order": 0
                    }
                ],
                "depth": -1,
                "id": -1,
                "order": -1
            }
        ],
        "mainTraceNodeCount": 3,
        "parentIdMap": {
            "0": -1,
            "1": 0,
            "2": 0
        },
        "tidyTrace": [
            {
                "children": [
                    {
                        "children": [
                            {
                                "children": [],
                                "depth": 1,
                                "id": 1,
                                "order": 1
                            },
                            {
                                "children": [],
                                "depth": 1,
                                "id": 2,
                                "order": 2
                            }
                        ],
                        "depth": 0,
                        "id": 0,
                        "order": 0
                    }
                ],
                "depth": -1,
                "id": -1,
                "order": -1
            }
        ],
        "tidyTraceNodeCount": 3
    },
    "state_change": {
        "stateChanges": [
            {
                "address": "0x86fa049857e0209aa7d9e616f7eb3b3b78ecfdb0",
                "erc": "ERC-20",
                "slots": [
                    {
                        "current": "0x0000000000000000000000000000000000000000000000000000000000000000",
                        "key": "0x391376185b8f53ea1730e54e3394aee9e5aba8291e7fbe63774212eb0da3da7f",
                        "prev": "0x0000000000000000000000000000000000000000000000ba36337c970acc0000"
                    },
                    {
                        "current": "0x00000000000000000000000000000000000000000000dd5af1a02cecb3673800",
                        "key": "0x47d58d77a6b515f904f94e76d92cde75a270cbc88b8b6d5c6c1ea0ba33f82693",
                        "prev": "0x00000000000000000000000000000000000000000000dca0bb6cb055a89b3800"
                    }
                ],
                "storageVariables": []
            }
        ]
    }
}