{
    "balance_change": {
        "balanceChanges": []
    },
    "profile": {
        "basic_info": {
            "baseFee": "",
            "blockNumber": 8024702,
            "callData": "0x0a19b14a0000000000000000000000003b4b29c4c1872a60d09937686bd2b358db9dee8a0000000000000000000000000000000000000000000000001bc16d674ec8000000000000000000000000000000000000000000000000000000000000000000000000000000000000000000000000000000000000000000000005e5c2de53c00000000000000000000000000000000000000000000000000000000000007a9414000000000000000000000000000000000000000000000000000000004cb28b2d00000000000000000000000082a89355e57cb415e3173a5ef359e072439f2a51000000000000000000000000000000000000000000000000000000000000001cbc6342c0092a093b7497a691b07b76ba7470bc24f477b5d12da9ce7198ba30c554462e05d418663d68f25a89f9df97053241a017d9ab94ea75e879a85650944d0000000000000000000000000000000000000000000000001bc16d674ec80000",
            "debugEnable": true,
            "errorInfo": "",
            "eventCount": 1,
            "feeRecipient": "0x005e288d713a5fb3d7c9cf1b43810a98688c7223",
            "formatValue": "0",
            "gasLimit": 250000,
            "gasPrice": "6",
            "gasUsed": 92923,
            "intTxnCount": 2,
            "internalRevert": false,
            "internalRevertMessage": "",
            "isContractCreation": false,
            "isFlashloan": false,
            "maxFee": "",
            "nonce": 106,
            "overwritedBlockNumber": -1,
            "priorityFee": "",
            "receiver": "0x3c020e014069df790d4f4e63fd297ba4e1c8e51f",
            "revertMessage": "",
            "sender": "0xf777f981f5e5f4c6a95bea1d8ff012c6e3cef92b",
            "simulationEnable": true,
            "sourceTxnHash": "0xdac662a7cfd405062c77baf991183f03819d594ad8b41f085cd557ce9994006e",
            "status": true,
            "timestamp": "2019-06-25T03:20:54Z",
            "transactionFee": "0.000557538",
            "txnHash": "0xdac662a7cfd405062c77baf991183f03819d594ad8b41f085cd557ce9994006e",
            "txnIndex": 130,
            "type": 0,
            "value": "0"
        },
        "fund_flow": [],
        "token_infos": [
            {
                "address": "0xc02aaa39b223fe8d0a0e5c4f27ead9083c756cc2",
                "decimals": 18
            },
            {
                "address": "0xeeeeeeeeeeeeeeeeeeeeeeeeeeeeeeeeeeeeeeee",
                "decimals": 18
            }
        ]
    },
    "address_label": {
        "labels": [
            {
                "address": "0x3b4b29c4c1872a60d09937686bd2b358db9dee8a",
                "label": "Teacher Coin: TCH Token"
            },
            {
                "address": "0x0000000000000000000000000000000000000002",
                "label": "Precompiled"
            },
            {
                "address": "0x0000000000000000000000000000000000000004",
                "label": "Precompiled"
            },
            {
                "address": "0x0000000000000000000000000000000000000001",
                "label": "Precompiled"
            },
            {
                "address": "0x0000000000000000000000000000000000000003",
                "label": "Precompiled"
            },
            {
                "address": "0xeeeeeeeeeeeeeeeeeeeeeeeeeeeeeeeeeeeeeeee",
                "label": "Ether"
            },
            {
                "address": "0x3c020e014069df790d4f4e63fd297ba4e1c8e51f",
                "label": "Bitcratic"
            },
            {
                "address": "0x82a89355e57cb415e3173a5ef359e072439f2a51",
                "label": "Teacher Coin: Deployer"
            },
            {
                "address": "0x0000000000000000000000000000000000000000",
                "label": "Null Address"
            }
        ]
    },
    "trace": {
        "accountLabels": null,
        "dataMap": {
            "-1": {
                "invocation": {
                    "address": "0xf777f981f5e5f4c6a95bea1d8ff012c6e3cef92b",
                    "callData": "",
                    "decodedMethod": null,
                    "errorInfo": "",
                    "fromAddress": "",
                    "gasUsed": 0,
                    "id": -1,
                    "methodDecoded": false,
                    "operation": "",
                    "output": "",
                    "revert": false,
                    "revertMessage": "",
                    "selector": "",
                    "status": false,
                    "value": ""
                },
                "nodeType": 0
            },
            "0": {
                "invocation": {
                    "address": "0x3c020e014069df790d4f4e63fd297ba4e1c8e51f",
                    "callData": "0x0000000000000000000000003b4b29c4c1872a60d09937686bd2b358db9dee8a0000000000000000000000000000000000000000000000001bc16d674ec8000000000000000000000000000000000000000000000000000000000000000000000000000000000000000000000000000000000000000000000005e5c2de53c00000000000000000000000000000000000000000000000000000000000007a9414000000000000000000000000000000000000000000000000000000004cb28b2d00000000000000000000000082a89355e57cb415e3173a5ef359e072439f2a51000000000000000000000000000000000000000000000000000000000000001cbc6342c0092a093b7497a691b07b76ba7470bc24f477b5d12da9ce7198ba30c554462e05d418663d68f25a89f9df97053241a017d9ab94ea75e879a85650944d0000000000000000000000000000000000000000000000001bc16d674ec80000",
                    "decodedMethod": {
                        "callParams": [
                            {
                                "name": "tokenGet",
                                "type": "address",
                                "value": "0x3b4b29c4c1872a60d09937686bd2b358db9dee8a"
                            },
                            {
                                "name": "amountGet",
                                "type": "uint256",
                                "value": "2,000,000,000,000,000,000"
                            },
                            {
                                "name": "tokenGive",
                                "type": "address",
                                "value": "0x0000000000000000000000000000000000000000"
                            },
                            {
                                "name": "amountGive",
                                "type": "uint256",
                                "value": "1,660,000,000,000,000"
                            },
                            {
                                "name": "expires",
                                "type": "uint256",
                                "value": "8,033,300"
                            },
                            {
                                "name": "nonce",
                                "type": "uint256",
                                "value": "1,286,769,453"
                            },
                            {
                                "name": "user",
                                "type": "address",
                                "value": "0x82a89355e57cb415e3173a5ef359e072439f2a51"
                            },
                            {
                                "name": "v",
                                "type": "uint8",
                                "value": "28"
                            },
                            {
                                "name": "r",
                                "type": "bytes32",
                                "value": "0xbc6342c0092a093b7497a691b07b76ba7470bc24f477b5d12da9ce7198ba30c5"
                            },
                            {
                                "name": "s",
                                "type": "bytes32",
                                "value": "0x54462e05d418663d68f25a89f9df97053241a017d9ab94ea75e879a85650944d"
                            },
                            {
                                "name": "amount",
                                "type": "uint256",
                                "value": "2,000,000,000,000,000,000"
                            }
                        ],
                        "constructorArguments": "",
                        "name": "trade",
                        "returnParams": [],
                        "signature": "trade(address,uint256,address,uint256,uint256,uint256,address,uint8,bytes32,bytes32,uint256)"
                    },
                    "errorInfo": "",
                    "fromAddress": "0xf777f981f5e5f4c6a95bea1d8ff012c6e3cef92b",
                    "gasUsed": 92923,
                    "id": 0,
                    "methodDecoded": true,
                    "operation": "CALL",
                    "output": "",
                    "revert": false,
                    "revertMessage": "",
                    "selector": "0x0a19b14a",
                    "status": true,
                    "value": "0"
                },
                "nodeType": 0
            },
            "1": {
                "invocation": {
                    "address": "0x0000000000000000000000000000000000000002",
                    "callData": "0x4069df790d4f4e63fd297ba4e1c8e51f3b4b29c4c1872a60d09937686bd2b358db9dee8a0000000000000000000000000000000000000000000000001bc16d674ec8000000000000000000000000000000000000000000000000000000000000000000000000000000000000000000000005e5c2de53c00000000000000000000000000000000000000000000000000000000000007a9414000000000000000000000000000000000000000000000000000000004cb28b2d",
                    "decodedMethod": {
                        "callParams": [
                            {
                                "name": "data",
                                "type": "bytes",
                                "value": "0x3c020e014069df790d4f4e63fd297ba4e1c8e51f3b4b29c4c1872a60d09937686bd2b358db9dee8a0000000000000000000000000000000000000000000000001bc16d674ec8000000000000000000000000000000000000000000000000000000000000000000000000000000000000000000000005e5c2de53c00000000000000000000000000000000000000000000000000000000000007a9414000000000000000000000000000000000000000000000000000000004cb28b2d"
                            }
                        ],
                        "constructorArguments": "",
                        "name": "sha256hash",
                        "returnParams": [
                            {
                                "name": "hash",
                                "type": "bytes32",
                                "value": "0x5871034b39e6591a8a8b79a51a3cfa87e210b8a32946e37894a75d37991a8fdd"
                            }
                        ],
                        "signature": "sha256hash(bytes)"
                    },
                    "errorInfo": "",
                    "fromAddress": "0x3c020e014069df790d4f4e63fd297ba4e1c8e51f",
                    "gasUsed": 132,
                    "id": 1,
                    "methodDecoded": true,
                    "operation": "CALL",
                    "output": "0x5871034b39e6591a8a8b79a51a3cfa87e210b8a32946e37894a75d37991a8fdd",
                    "revert": false,
                    "revertMessage": "",
                    "selector": "0x3c020e01",
                    "status": true,
                    "value": "0"
                },
                "nodeType": 0
            },
            "2": {
                "invocation": {
                    "address": "0x0000000000000000000000000000000000000001",
                    "callData": "0x338f18c4406d79c41101f7d4c612e300789465ec934eb9298043812a000000000000000000000000000000000000000000000000000000000000001cbc6342c0092a093b7497a691b07b76ba7470bc24f477b5d12da9ce7198ba30c554462e05d418663d68f25a89f9df97053241a017d9ab94ea75e879a85650944d",
                    "decodedMethod": {
                        "callParams": [
                            {
                                "name": "hash",
                                "type": "bytes32",
                                "value": "0xc820e61b338f18c4406d79c41101f7d4c612e300789465ec934eb9298043812a"
                            },
                            {
                                "name": "v",
                                "type": "uint256",
                                "value": "28"
                            },
                            {
                                "name": "r",
                                "type": "bytes32",
                                "value": "0xbc6342c0092a093b7497a691b07b76ba7470bc24f477b5d12da9ce7198ba30c5"
                            },
                            {
                                "name": "s",
                                "type": "bytes32",
                                "value": "0x54462e05d418663d68f25a89f9df97053241a017d9ab94ea75e879a85650944d"
                            }
                        ],
                        "constructorArguments": "",
                        "name": "ecrecover",
                        "returnParams": [
                            {
                                "name": "",
                                "type": "address",
                                "value": "0x82a89355e57cb415e3173a5ef359e072439f2a51"
                            }
                        ],
                        "signature": "ecrecover(bytes32,uint256,bytes32,bytes32)"
                    },
                    "errorInfo": "",
                    "fromAddress": "0x3c020e014069df790d4f4e63fd297ba4e1c8e51f",
                    "gasUsed": 3000,
                    "id": 2,
                    "methodDecoded": true,
                    "operation": "CALL",
                    "output": "0x00000000000000000000000082a89355e57cb415e3173a5ef359e072439f2a51",
                    "revert": false,
                    "revertMessage": "",
                    "selector": "0xc820e61b",
                    "status": true,
                    "value": "0"
                },
                "nodeType": 0
            },
            "3": {
                "event": {
                    "contract": "0x3c020e014069df790d4f4e63fd297ba4e1c8e51f",
                    "decodedLog": {
                        "name": "Trade",
                        "params": [
                            {
                                "name": "tokenGet",
                                "type": "address",
                                "value": "0x3b4b29c4c1872a60d09937686bd2b358db9dee8a"
                            },
                            {
                                "name": "amountGet",
                                "type": "uint256",
                                "value": "2,000,000,000,000,000,000"
                            },
                            {
                                "name": "tokenGive",
                                "type": "address",
                                "value": "0x0000000000000000000000000000000000000000"
                            },
                            {
                                "name": "amountGive",
                                "type": "uint256",
                                "value": "1,660,000,000,000,000"
                            },
                            {
                                "name": "get",
                                "type": "address",
                                "value": "0x82a89355e57cb415e3173a5ef359e072439f2a51"
                            },
                            {
                                "name": "give",
                                "type": "address",
                                "value": "0xf777f981f5e5f4c6a95bea1d8ff012c6e3cef92b"
                            }
                        ],
                        "signature": "Trade(address,uint256,address,uint256,address,address)"
                    },
                    "id": 3,
                    "logData": "0x0000000000000000000000003b4b29c4c1872a60d09937686bd2b358db9dee8a0000000000000000000000000000000000000000000000001bc16d674ec8000000000000000000000000000000000000000000000000000000000000000000000000000000000000000000000000000000000000000000000005e5c2de53c00000000000000000000000000082a89355e57cb415e3173a5ef359e072439f2a51000000000000000000000000f777f981f5e5f4c6a95bea1d8ff012c6e3cef92b",
                    "logDecoded": true,
                    "operation": "EVENT",
                    "revert": false,
                    "status": true,
                    "topics": [
                        "0x6effdda786735d5033bfad5f53e5131abcced9e52be6c507b62d639685fbed6d"
                    ]
                },
                "nodeType": 1
            }
        },
        "gasFlame": [
            {
                "children": [
                    {
                        "children": [
                            {
                                "children": [],
                                "depth": 0,
                                "name": "Initial Gas",
                                "value": 31000
                            },
                            {
                                "children": [
                                    {
                                        "children": [],
                                        "depth": 1,
                                        "name": "sha256hash",
                                        "value": 132
                                    },
                                    {
                                        "children": [],
                                        "depth": 1,
                                        "name": "ecrecover",
                                        "value": 3000
                                    }
                                ],
                                "depth": 0,
                                "name": "Executed Gas",
                                "value": 61923
                            }
                        ],
                        "depth": -1,
                        "name": "Actual Gas Used",
                        "value": 92923
                    },
                    {
                        "children": [],
                        "depth": -1,
                        "name": "Refunded Gas",
                        "value": 0
                    }
                ],
                "depth": -2,
                "name": "Total Gas",
                "value": 92923
            }
        ],
        "isConfirmed": true,
        "mainTrace": [
            {
                "children": [
                    {
                        "children": [
                            {
                                "children": [],
                                "depth": 1,
                                "id": 1,
                                "order": 1
                            },
                            {
                                "children": [],
                                "depth": 1,
                                "id": 2,
                                "order": 2
                            },
                            {
                                "children": [],
                                "depth": 1,
                                "id": 3,
                                "order": 3
                            }
                        ],
                        "depth": 0,
                        "id": 0,
                        "order": 0
                    }
                ],
                "depth": -1,
                "id": -1,
                "order": -1
            }
        ],
        "mainTraceNodeCount": 4,
        "parentIdMap": {
            "0": -1,
            "1": 0,
            "2": 0,
            "3": 0
        },
        "tidyTrace": [
            {
                "children": [
                    {
                        "children": [
                            {
                                "children": [],
                                "depth": 1,
                                "id": 1,
                                "order": 1
                            },
                            {
                                "children": [],
                                "depth": 1,
                                "id": 2,
                                "order": 2
                            },
                            {
                                "children": [],
                                "depth": 1,
                                "id": 3,
                                "order": 3
                            }
                        ],
                        "depth": 0,
                        "id": 0,
                        "order": 0
                    }
                ],
                "depth": -1,
                "id": -1,
                "order": -1
            }
        ],
        "tidyTraceNodeCount": 4
    },
    "state_change": {
        "stateChanges": [
            {
                "address": "0x3c020e014069df790d4f4e63fd297ba4e1c8e51f",
                "erc": "",
                "slots": [
                    {
                        "current": "0x00000000000000000000000000000000000000000002e421b19bc4febadb64bc",
                        "key": "0xd09f0c47dacffc74ba38f0cd7cd0e050063d05f6a67c983f3730fe21288f70d5",
                        "prev": "0x00000000000000000000000000000000000000000002e42195da57976c1364bc"
                    },
                    {
                        "current": "0x0000000000000000000000000000000000000000000000000300e82d002d1a97",
                        "key": "0xc316bffce119528afb08cce7aa57af7a5713a22acc1d6b4082f8570074d00670",
                        "prev": "0x00000000000000000000000000000000000000000000000002eb973523861a97"
                    },
                    {
                        "current": "0x000000000000000000000000000000000000000000000000007e4b223b0f72e3",
                        "key": "0xf23459f507caebdbb8ba98652383716369731c78c1f2bb0c117f3b582ee3258a",
                        "prev": "0x000000000000000000000000000000000000000000000000008430e5196332e3"
                    },
                    {
                        "current": "0x00000000000000000000000000000000000000000000000000371a1f4f8c76ff",
                        "key": "0x373422fa223feefab30c782265ff2a94f9a1d922e7f5036c823f4cf7cfaf5c20",
                        "prev": "0x0000000000000000000000000000000000000000000000000031345c7138b6ff"
                    },
                    {
                        "current": "0x0000000000000000000000000000000000000000000000001bc16d674ec80000",
                        "key": "0x88d0017e2f28d68234b4bad6291b78d27a078a685fff2d4b9138e670da9eecaa",
                        "prev": "0x0000000000000000000000000000000000000000000000000000000000000000"
                    },
                    {
                        "current": "0x0000000000000000000000000000000000000000000001e8e6c8d5b6c3eeef9c",
                        "key": "0xd35d3760800d1e4a8777c72159137b90dd4c10d887c6fc1ebc37d6e4ca6c54dc",
                        "prev": "0x0000000000000000000000000000000000000000000001e9029f9415ef5def9c"
                    }
                ],
                "storageVariables": []
            }
        ]
    }
}