{
    "balance_change": {
        "balanceChanges": [
            {
                "account": "0x005f7b5faa2f8a7a647d2b2dd2c278b35429fdc6",
                "assets": [
                    {
                        "address": "0xb64ef51c888972c908cfacf59b47c1afbc0ab8ac",
                        "amount": "1.22850328",
                        "iconUrl": "https://assets.blocksec.com/icon/adb507b7df0c119aef80ed36afeebbe0220982ead2feb7b77ef22bb1559b7c3a.png",
                        "isERC1155": false,
                        "isERC721": false,
                        "sign": false,
                        "value": ""
                    }
                ]
            },
            {
                "account": "0x687e6a1ea9b381ea34b1270ec5ef5f9a778ffba3",
                "assets": [
                    {
                        "address": "0xb64ef51c888972c908cfacf59b47c1afbc0ab8ac",
                        "amount": "1.22850328",
                        "iconUrl": "https://assets.blocksec.com/icon/adb507b7df0c119aef80ed36afeebbe0220982ead2feb7b77ef22bb1559b7c3a.png",
                        "isERC1155": false,
                        "isERC721": false,
                        "sign": true,
                        "value": ""
                    }
                ]
            }
        ]
    },
    "profile": {
        "basic_info": {
            "baseFee": "",
            "blockNumber": 9424965,
            "callData": "0x23b872dd000000000000000000000000005f7b5faa2f8a7a647d2b2dd2c278b35429fdc6000000000000000000000000687e6a1ea9b381ea34b1270ec5ef5f9a778ffba30000000000000000000000000000000000000000000000000000000007528c18",
            "debugEnable": true,
            "errorInfo": "",
            "eventCount": 1,
            "feeRecipient": "0x5a0b54d5dc17e0aadc383d2db43b0a0d3e029c4c",
            "formatValue": "0",
            "gasLimit": 60000,
            "gasPrice": "3.01",
            "gasUsed": 42915,
            "intTxnCount": 0,
            "internalRevert": false,
            "internalRevertMessage": "",
            "isContractCreation": false,
            "isFlashloan": false,
            "maxFee": "",
            "nonce": 12361,
            "overwritedBlockNumber": -1,
            "priorityFee": "",
            "receiver": "0xb64ef51c888972c908cfacf59b47c1afbc0ab8ac",
            "revertMessage": "",
            "sender": "0x0071edcf0c4dd52231bcafc7caab231062b75561",
            "simulationEnable": true,
            "sourceTxnHash": "0xdaa8abf5f07038ad5eadb7c8df3dc3187310262051e208790f90381ce43a1f3a",
            "status": true,
            "timestamp": "2020-02-05T21:11:12Z",
            "transactionFee": "0.00012917415",
            "txnHash": "0xdaa8abf5f07038ad5eadb7c8df3dc3187310262051e208790f90381ce43a1f3a",
            "txnIndex": 80,
            "type": 0,
            "value": "0"
        },
        "fund_flow": [
            {
                "amount": "1.22850328",
                "from": "0x005f7b5faa2f8a7a647d2b2dd2c278b35429fdc6",
                "id": 1,
                "isERC1155": false,
                "isERC721": false,
                "isReverted": false,
                "order": 1,
                "to": "0x687e6a1ea9b381ea34b1270ec5ef5f9a778ffba3",
                "token": "0xb64ef51c888972c908cfacf59b47c1afbc0ab8ac"
            }
        ],
        "token_infos": [
            {
                "address": "0xb64ef51c888972c908cfacf59b47c1afbc0ab8ac",
                "decimals": 8
            },
            {
                "address": "0xc02aaa39b223fe8d0a0e5c4f27ead9083c756cc2",
                "decimals": 18
            },
            {
                "address": "0xeeeeeeeeeeeeeeeeeeeeeeeeeeeeeeeeeeeeeeee",
                "decimals": 18
            }
        ]
    },
    "address_label": {
        "labels": [
            {
                "address": "0xb64ef51c888972c908cfacf59b47c1afbc0ab8ac",
                "label": "Storj (STORJ)"
            },
            {
                "address": "0x0000000000000000000000000000000000000001",
                "label": "Precompiled"
            },
            {
                "address": "0x0000000000000000000000000000000000000002",
                "label": "Precompiled"
            },
            {
                "address": "0x0000000000000000000000000000000000000003",
                "label": "Precompiled"
            },
            {
                "address": "0x0000000000000000000000000000000000000004",
                "label": "Precompiled"
            },
            {
                "address": "0xeeeeeeeeeeeeeeeeeeeeeeeeeeeeeeeeeeeeeeee",
                "label": "Ether"
            }
        ]
    },
    "trace": {
        "accountLabels": null,
        "dataMap": {
            "-1": {
                "invocation": {
                    "address": "0x0071edcf0c4dd52231bcafc7caab231062b75561",
                    "callData": "",
                    "decodedMethod": null,
                    "errorInfo": "",
                    "fromAddress": "",
                    "gasUsed": 0,
                    "id": -1,
                    "methodDecoded": false,
                    "operation": "",
                    "output": "",
                    "revert": false,
                    "revertMessage": "",
                    "selector": "",
                    "status": false,
                    "value": ""
                },
                "nodeType": 0
            },
            "0": {
                "invocation": {
                    "address": "0xb64ef51c888972c908cfacf59b47c1afbc0ab8ac",
                    "callData": "0x000000000000000000000000005f7b5faa2f8a7a647d2b2dd2c278b35429fdc6000000000000000000000000687e6a1ea9b381ea34b1270ec5ef5f9a778ffba30000000000000000000000000000000000000000000000000000000007528c18",
                    "decodedMethod": {
                        "callParams": [
                            {
                                "name": "_from",
                                "type": "address",
                                "value": "0x005f7b5faa2f8a7a647d2b2dd2c278b35429fdc6"
                            },
                            {
                                "name": "_to",
                                "type": "address",
                                "value": "0x687e6a1ea9b381ea34b1270ec5ef5f9a778ffba3"
                            },
                            {
                                "decimalAvailable": true,
                                "name": "_value",
                                "type": "uint256",
                                "value": "122,850,328"
                            }
                        ],
                        "constructorArguments": "",
                        "name": "transferFrom",
                        "returnParams": [
                            {
                                "name": "success",
                                "type": "bool",
                                "value": true
                            }
                        ],
                        "signature": "transferFrom(address,address,uint256)"
                    },
                    "errorInfo": "",
                    "fromAddress": "0x0071edcf0c4dd52231bcafc7caab231062b75561",
                    "gasUsed": 42915,
                    "id": 0,
                    "methodDecoded": true,
                    "operation": "CALL",
                    "output": "0x0000000000000000000000000000000000000000000000000000000000000001",
                    "revert": false,
                    "revertMessage": "",
                    "selector": "0x23b872dd",
                    "status": true,
                    "value": "0"
                },
                "nodeType": 0
            },
            "1": {
                "event": {
                    "contract": "0xb64ef51c888972c908cfacf59b47c1afbc0ab8ac",
                    "decodedLog": {
                        "name": "Transfer",
                        "params": [
                            {
                                "name": "from",
                                "type": "address",
                                "value": "0x005f7b5faa2f8a7a647d2b2dd2c278b35429fdc6"
                            },
                            {
                                "name": "to",
                                "type": "address",
                                "value": "0x687e6a1ea9b381ea34b1270ec5ef5f9a778ffba3"
                            },
                            {
                                "decimalAvailable": true,
                                "name": "value",
                                "type": "uint256",
                                "value": "122,850,328"
                            }
                        ],
                        "signature": "Transfer(address,address,uint256)"
                    },
                    "id": 1,
                    "logData": "0x0000000000000000000000000000000000000000000000000000000007528c18",
                    "logDecoded": true,
                    "operation": "EVENT",
                    "revert": false,
                    "status": true,
                    "topics": [
                        "0xddf252ad1be2c89b69c2b068fc378daa952ba7f163c4a11628f55a4df523b3ef",
                        "0x000000000000000000000000005f7b5faa2f8a7a647d2b2dd2c278b35429fdc6",
                        "0x000000000000000000000000687e6a1ea9b381ea34b1270ec5ef5f9a778ffba3"
                    ]
                },
                "nodeType": 1
            }
        },
        "gasFlame": [
            {
                "children": [
                    {
                        "children": [
                            {
                                "children": [],
                                "depth": 0,
                                "name": "Initial Gas",
                                "value": 21964
                            },
                            {
                                "children": [],
                                "depth": 0,
                                "name": "Executed Gas",
                                "value": 20951
                            }
                        ],
                        "depth": -1,
                        "name": "Actual Gas Used",
                        "value": 42915
                    },
                    {
                        "children": [],
                        "depth": -1,
                        "name": "Refunded Gas",
                        "value": 0
                    }
                ],
                "depth": -2,
                "name": "Total Gas",
                "value": 42915
            }
        ],
        "isConfirmed": true,
        "mainTrace": [
            {
                "children": [
                    {
                        "children": [
                            {
                                "children": [],
                                "depth": 1,
                                "id": 1,
                                "order": 1
                            }
                        ],
                        "depth": 0,
                        "id": 0,
                        "order": 0
                    }
                ],
                "depth": -1,
                "id": -1,
                "order": -1
            }
        ],
        "mainTraceNodeCount": 2,
        "parentIdMap": {
            "0": -1,
            "1": 0
        },
        "tidyTrace": [
            {
                "children": [
                    {
                        "children": [
                            {
                                "children": [],
                                "depth": 1,
                                "id": 1,
                                "order": 1
                            }
                        ],
                        "depth": 0,
                        "id": 0,
                        "order": 0
                    }
                ],
                "depth": -1,
                "id": -1,
                "order": -1
            }
        ],
        "tidyTraceNodeCount": 2
    },
    "state_change": {
        "stateChanges": [
            {
                "address": "0xb64ef51c888972c908cfacf59b47c1afbc0ab8ac",
                "erc": "ERC-20",
                "slots": [
                    {
                        "current": "0x00000000000000000000000000000000000000000000000000000007e26be08c",
                        "key": "0xdfe29f04ea2c4d8f2f3530386d65fbe12cc290cf09638f892219255af7cda7bc",
                        "prev": "0x00000000000000000000000000000000000000000000000000000007db195474"
                    },
                    {
                        "current": "0x000000000000000000000000000000000000000000000000000044b27fc06bfe",
                        "key": "0x243b313fdc959fcf5bfad9ef28c6a0125e50e99d0a6a42bfa781135ab53fb2be",
                        "prev": "0x000000000000000000000000000000000000000000000000000044b28712f816"
                    },
                    {
                        "current": "0x0000000000000000000000000000000000000000000000000000007e860bbf48",
                        "key": "0xda07738aa7058dbb21bf279ea9500950bed1b6c6c5dbf8906b34da3d3373a35a",
                        "prev": "0x0000000000000000000000000000000000000000000000000000007e8d5e4b60"
                    }
                ],
                "storageVariables": []
            }
        ]
    }
}