{
    "balance_change": {
        "balanceChanges": [
            {
                "account": "0x43b69a8bbe7a19dfbf22cfcb6be551ebd7958f82",
                "assets": [
                    {
                        "address": "0x558ec3152e2eb2174905cd19aea4e34a23de9ad6",
                        "amount": "50",
                        "iconUrl": "https://assets.blocksec.com/icon/bac7d570c727b21c654e5cd1b2600c35355c575873049122c0c2a5925a58757c.png",
                        "isERC1155": false,
                        "isERC721": false,
                        "sign": false,
                        "value": ""
                    }
                ]
            },
            {
                "account": "0x263f226e76bd0c6bb0a4187dd6f04e8341242e94",
                "assets": [
                    {
                        "address": "0x558ec3152e2eb2174905cd19aea4e34a23de9ad6",
                        "amount": "50",
                        "iconUrl": "https://assets.blocksec.com/icon/bac7d570c727b21c654e5cd1b2600c35355c575873049122c0c2a5925a58757c.png",
                        "isERC1155": false,
                        "isERC721": false,
                        "sign": true,
                        "value": ""
                    }
                ]
            }
        ]
    },
    "profile": {
        "basic_info": {
            "baseFee": "",
            "blockNumber": 5239159,
            "callData": "0xa9059cbb000000000000000000000000263f226e76bd0c6bb0a4187dd6f04e8341242e94000000000000000000000000000000000000000000000002b5e3af16b1880000",
            "debugEnable": true,
            "errorInfo": "",
            "eventCount": 1,
            "feeRecipient": "0x829bd824b016326a401d083b33d092293333a830",
            "formatValue": "0",
            "gasLimit": 150000,
            "gasPrice": "5",
            "gasUsed": 52365,
            "intTxnCount": 0,
            "internalRevert": false,
            "internalRevertMessage": "",
            "isContractCreation": false,
            "isFlashloan": false,
            "maxFee": "",
            "nonce": 15,
            "overwritedBlockNumber": -1,
            "priorityFee": "",
            "receiver": "0x558ec3152e2eb2174905cd19aea4e34a23de9ad6",
            "revertMessage": "",
            "sender": "0x43b69a8bbe7a19dfbf22cfcb6be551ebd7958f82",
            "simulationEnable": true,
            "sourceTxnHash": "0xda7ac4bc2df2dd39d8c5eef5d7281406120cc9073f8bfcdb6e419dfa20b42012",
            "status": true,
            "timestamp": "2018-03-12T00:35:58Z",
            "transactionFee": "0.000261825",
            "txnHash": "0xda7ac4bc2df2dd39d8c5eef5d7281406120cc9073f8bfcdb6e419dfa20b42012",
            "txnIndex": 46,
            "type": 0,
            "value": "0"
        },
        "fund_flow": [
            {
                "amount": "50",
                "from": "0x43b69a8bbe7a19dfbf22cfcb6be551ebd7958f82",
                "id": 1,
                "isERC1155": false,
                "isERC721": false,
                "isReverted": false,
                "order": 1,
                "to": "0x263f226e76bd0c6bb0a4187dd6f04e8341242e94",
                "token": "0x558ec3152e2eb2174905cd19aea4e34a23de9ad6"
            }
        ],
        "token_infos": [
            {
                "address": "0x558ec3152e2eb2174905cd19aea4e34a23de9ad6",
                "decimals": 18
            },
            {
                "address": "0xc02aaa39b223fe8d0a0e5c4f27ead9083c756cc2",
                "decimals": 18
            },
            {
                "address": "0xeeeeeeeeeeeeeeeeeeeeeeeeeeeeeeeeeeeeeeee",
                "decimals": 18
            }
        ]
    },
    "address_label": {
        "labels": [
            {
                "address": "0x0000000000000000000000000000000000000002",
                "label": "Precompiled"
            },
            {
                "address": "0x0000000000000000000000000000000000000003",
                "label": "Precompiled"
            },
            {
                "address": "0x0000000000000000000000000000000000000004",
                "label": "Precompiled"
            },
            {
                "address": "0xeeeeeeeeeeeeeeeeeeeeeeeeeeeeeeeeeeeeeeee",
                "label": "Ether"
            },
            {
                "address": "0x263f226e76bd0c6bb0a4187dd6f04e8341242e94",
                "label": "BINANCE"
            },
            {
                "address": "0x558ec3152e2eb2174905cd19aea4e34a23de9ad6",
                "label": "Bread: BRD Token"
            },
            {
                "address": "0x0000000000000000000000000000000000000001",
                "label": "Precompiled"
            }
        ]
    },
    "trace": {
        "accountLabels": null,
        "dataMap": {
            "-1": {
                "invocation": {
                    "address": "0x43b69a8bbe7a19dfbf22cfcb6be551ebd7958f82",
                    "callData": "",
                    "decodedMethod": null,
                    "errorInfo": "",
                    "fromAddress": "",
                    "gasUsed": 0,
                    "id": -1,
                    "methodDecoded": false,
                    "operation": "",
                    "output": "",
                    "revert": false,
                    "revertMessage": "",
                    "selector": "",
                    "status": false,
                    "value": ""
                },
                "nodeType": 0
            },
            "0": {
                "invocation": {
                    "address": "0x558ec3152e2eb2174905cd19aea4e34a23de9ad6",
                    "callData": "0x000000000000000000000000263f226e76bd0c6bb0a4187dd6f04e8341242e94000000000000000000000000000000000000000000000002b5e3af16b1880000",
                    "decodedMethod": {
                        "callParams": [
                            {
                                "name": "_to",
                                "type": "address",
                                "value": "0x263f226e76bd0c6bb0a4187dd6f04e8341242e94"
                            },
                            {
                                "decimalAvailable": true,
                                "name": "_value",
                                "type": "uint256",
                                "value": "50,000,000,000,000,000,000"
                            }
                        ],
                        "constructorArguments": "",
                        "name": "transfer",
                        "returnParams": [
                            {
                                "name": "",
                                "type": "bool",
                                "value": true
                            }
                        ],
                        "signature": "transfer(address,uint256)"
                    },
                    "errorInfo": "",
                    "fromAddress": "0x43b69a8bbe7a19dfbf22cfcb6be551ebd7958f82",
                    "gasUsed": 52365,
                    "id": 0,
                    "methodDecoded": true,
                    "operation": "CALL",
                    "output": "0x0000000000000000000000000000000000000000000000000000000000000001",
                    "revert": false,
                    "revertMessage": "",
                    "selector": "0xa9059cbb",
                    "status": true,
                    "value": "0"
                },
                "nodeType": 0
            },
            "1": {
                "event": {
                    "contract": "0x558ec3152e2eb2174905cd19aea4e34a23de9ad6",
                    "decodedLog": {
                        "name": "Transfer",
                        "params": [
                            {
                                "name": "from",
                                "type": "address",
                                "value": "0x43b69a8bbe7a19dfbf22cfcb6be551ebd7958f82"
                            },
                            {
                                "name": "to",
                                "type": "address",
                                "value": "0x263f226e76bd0c6bb0a4187dd6f04e8341242e94"
                            },
                            {
                                "decimalAvailable": true,
                                "name": "value",
                                "type": "uint256",
                                "value": "50,000,000,000,000,000,000"
                            }
                        ],
                        "signature": "Transfer(address,address,uint256)"
                    },
                    "id": 1,
                    "logData": "0x000000000000000000000000000000000000000000000002b5e3af16b1880000",
                    "logDecoded": true,
                    "operation": "EVENT",
                    "revert": false,
                    "status": true,
                    "topics": [
                        "0xddf252ad1be2c89b69c2b068fc378daa952ba7f163c4a11628f55a4df523b3ef",
                        "0x00000000000000000000000043b69a8bbe7a19dfbf22cfcb6be551ebd7958f82",
                        "0x000000000000000000000000263f226e76bd0c6bb0a4187dd6f04e8341242e94"
                    ]
                },
                "nodeType": 1
            }
        },
        "gasFlame": [
            {
                "children": [
                    {
                        "children": [
                            {
                                "children": [],
                                "depth": 0,
                                "name": "Initial Gas",
                                "value": 23256
                            },
                            {
                                "children": [],
                                "depth": 0,
                                "name": "Executed Gas",
                                "value": 29109
                            }
                        ],
                        "depth": -1,
                        "name": "Actual Gas Used",
                        "value": 52365
                    },
                    {
                        "children": [],
                        "depth": -1,
                        "name": "Refunded Gas",
                        "value": 0
                    }
                ],
                "depth": -2,
                "name": "Total Gas",
                "value": 52365
            }
        ],
        "isConfirmed": true,
        "mainTrace": [
            {
                "children": [
                    {
                        "children": [
                            {
                                "children": [],
                                "depth": 1,
                                "id": 1,
                                "order": 1
                            }
                        ],
                        "depth": 0,
                        "id": 0,
                        "order": 0
                    }
                ],
                "depth": -1,
                "id": -1,
                "order": -1
            }
        ],
        "mainTraceNodeCount": 2,
        "parentIdMap": {
            "0": -1,
            "1": 0
        },
        "tidyTrace": [
            {
                "children": [
                    {
                        "children": [
                            {
                                "children": [],
                                "depth": 1,
                                "id": 1,
                                "order": 1
                            }
                        ],
                        "depth": 0,
                        "id": 0,
                        "order": 0
                    }
                ],
                "depth": -1,
                "id": -1,
                "order": -1
            }
        ],
        "tidyTraceNodeCount": 2
    },
    "state_change": {
        "stateChanges": [
            {
                "address": "0x558ec3152e2eb2174905cd19aea4e34a23de9ad6",
                "erc": "ERC-20",
                "slots": [
                    {
                        "current": "0x00000000000000000000000000000000000000000000014859c2c0a37d040000",
                        "key": "0xdf1b06d6191244d28061256260ac4a7dc73409136deaa315e8908dbd11ee7f4e",
                        "prev": "0x00000000000000000000000000000000000000000000014b0fa66fba2e8c0000"
                    },
                    {
                        "current": "0x000000000000000000000000000000000000000000000002b5e3af16b1880000",
                        "key": "0x68674bd79e69d6cadbcff5c9daa8e510ed00f602f44b1e1bf1737c0e0408f7e9",
                        "prev": "0x0000000000000000000000000000000000000000000000000000000000000000"
                    }
                ],
                "storageVariables": [
                    {
                        "name": "balances",
                        "type": "mapping(address => uint256)",
                        "value": {
                            "pairs": [
                                {
                                    "key": "0x263f226e76bd0c6bb0a4187dd6f04e8341242e94",
                                    "value": {
                                        "current": "50000000000000000000",
                                        "prev": "0",
                                        "typeTag": 1
                                    }
                                },
                                {
                                    "key": "0x43b69a8bbe7a19dfbf22cfcb6be551ebd7958f82",
                                    "value": {
                                        "current": "6057000000000000000000",
                                        "prev": "6107000000000000000000",
                                        "typeTag": 1
                                    }
                                }
                            ],
                            "typeTag": 4
                        }
                    }
                ]
            }
        ]
    }
}