{
    "balance_change": {
        "balanceChanges": [
            {
                "account": "0x7dc819405822600cefcb09bc35cdfb87b537d199",
                "assets": [
                    {
                        "address": "0x53066cddbc0099eb6c96785d9b3df2aaeede5da3",
                        "amount": "5,000,000",
                        "iconUrl": "",
                        "isERC1155": false,
                        "isERC721": false,
                        "sign": false,
                        "value": ""
                    }
                ]
            },
            {
                "account": "0x1dab9e56279c3d044287c04d94916fbafb1f8cc6",
                "assets": [
                    {
                        "address": "0x53066cddbc0099eb6c96785d9b3df2aaeede5da3",
                        "amount": "5,000,000",
                        "iconUrl": "",
                        "isERC1155": false,
                        "isERC721": false,
                        "sign": true,
                        "value": ""
                    }
                ]
            }
        ]
    },
    "profile": {
        "basic_info": {
            "baseFee": "",
            "blockNumber": 5500786,
            "callData": "0xa9059cbb0000000000000000000000001dab9e56279c3d044287c04d94916fbafb1f8cc60000000000000000000000000000000000000000000422ca8b0a00a425000000",
            "debugEnable": true,
            "errorInfo": "",
            "eventCount": 1,
            "feeRecipient": "0xb2930b35844a230f00e51431acae96fe543a0347",
            "formatValue": "0",
            "gasLimit": 36967,
            "gasPrice": "41",
            "gasUsed": 36903,
            "intTxnCount": 0,
            "internalRevert": false,
            "internalRevertMessage": "",
            "isContractCreation": false,
            "isFlashloan": false,
            "maxFee": "",
            "nonce": 2,
            "overwritedBlockNumber": -1,
            "priorityFee": "",
            "receiver": "0x53066cddbc0099eb6c96785d9b3df2aaeede5da3",
            "revertMessage": "",
            "sender": "0x7dc819405822600cefcb09bc35cdfb87b537d199",
            "simulationEnable": true,
            "sourceTxnHash": "0xdaa7a2309e7b84950aec9ab3ffe6cfe4e07cd6cf617880ec102d70edb4c6b6ff",
            "status": true,
            "timestamp": "2018-04-25T02:24:29Z",
            "transactionFee": "0.001513023",
            "txnHash": "0xdaa7a2309e7b84950aec9ab3ffe6cfe4e07cd6cf617880ec102d70edb4c6b6ff",
            "txnIndex": 18,
            "type": 0,
            "value": "0"
        },
        "fund_flow": [
            {
                "amount": "5,000,000",
                "from": "0x7dc819405822600cefcb09bc35cdfb87b537d199",
                "id": 1,
                "isERC1155": false,
                "isERC721": false,
                "isReverted": false,
                "order": 1,
                "to": "0x1dab9e56279c3d044287c04d94916fbafb1f8cc6",
                "token": "0x53066cddbc0099eb6c96785d9b3df2aaeede5da3"
            }
        ],
        "token_infos": [
            {
                "address": "0x53066cddbc0099eb6c96785d9b3df2aaeede5da3",
                "decimals": 18
            },
            {
                "address": "0xc02aaa39b223fe8d0a0e5c4f27ead9083c756cc2",
                "decimals": 18
            },
            {
                "address": "0xeeeeeeeeeeeeeeeeeeeeeeeeeeeeeeeeeeeeeeee",
                "decimals": 18
            }
        ]
    },
    "address_label": {
        "labels": [
            {
                "address": "0xeeeeeeeeeeeeeeeeeeeeeeeeeeeeeeeeeeeeeeee",
                "label": "Ether"
            },
            {
                "address": "0x53066cddbc0099eb6c96785d9b3df2aaeede5da3",
                "label": "Penta Network: PNT Token"
            },
            {
                "address": "0x0000000000000000000000000000000000000001",
                "label": "Precompiled"
            },
            {
                "address": "0x0000000000000000000000000000000000000002",
                "label": "Precompiled"
            },
            {
                "address": "0x0000000000000000000000000000000000000003",
                "label": "Precompiled"
            },
            {
                "address": "0x0000000000000000000000000000000000000004",
                "label": "Precompiled"
            }
        ]
    },
    "trace": {
        "accountLabels": null,
        "dataMap": {
            "-1": {
                "invocation": {
                    "address": "0x7dc819405822600cefcb09bc35cdfb87b537d199",
                    "callData": "",
                    "decodedMethod": null,
                    "errorInfo": "",
                    "fromAddress": "",
                    "gasUsed": 0,
                    "id": -1,
                    "methodDecoded": false,
                    "operation": "",
                    "output": "",
                    "revert": false,
                    "revertMessage": "",
                    "selector": "",
                    "status": false,
                    "value": ""
                },
                "nodeType": 0
            },
            "0": {
                "invocation": {
                    "address": "0x53066cddbc0099eb6c96785d9b3df2aaeede5da3",
                    "callData": "0x0000000000000000000000001dab9e56279c3d044287c04d94916fbafb1f8cc60000000000000000000000000000000000000000000422ca8b0a00a425000000",
                    "decodedMethod": {
                        "callParams": [
                            {
                                "name": "_to",
                                "type": "address",
                                "value": "0x1dab9e56279c3d044287c04d94916fbafb1f8cc6"
                            },
                            {
                                "decimalAvailable": true,
                                "name": "_value",
                                "type": "uint256",
                                "value": "5,000,000,000,000,000,000,000,000"
                            }
                        ],
                        "constructorArguments": "",
                        "name": "transfer",
                        "returnParams": [
                            {
                                "name": "",
                                "type": "bool",
                                "value": true
                            }
                        ],
                        "signature": "transfer(address,uint256)"
                    },
                    "errorInfo": "",
                    "fromAddress": "0x7dc819405822600cefcb09bc35cdfb87b537d199",
                    "gasUsed": 36903,
                    "id": 0,
                    "methodDecoded": true,
                    "operation": "CALL",
                    "output": "0x0000000000000000000000000000000000000000000000000000000000000001",
                    "revert": false,
                    "revertMessage": "",
                    "selector": "0xa9059cbb",
                    "status": true,
                    "value": "0"
                },
                "nodeType": 0
            },
            "1": {
                "event": {
                    "contract": "0x53066cddbc0099eb6c96785d9b3df2aaeede5da3",
                    "decodedLog": {
                        "name": "Transfer",
                        "params": [
                            {
                                "name": "from",
                                "type": "address",
                                "value": "0x7dc819405822600cefcb09bc35cdfb87b537d199"
                            },
                            {
                                "name": "to",
                                "type": "address",
                                "value": "0x1dab9e56279c3d044287c04d94916fbafb1f8cc6"
                            },
                            {
                                "decimalAvailable": true,
                                "name": "value",
                                "type": "uint256",
                                "value": "5,000,000,000,000,000,000,000,000"
                            }
                        ],
                        "signature": "Transfer(address,address,uint256)"
                    },
                    "id": 1,
                    "logData": "0x0000000000000000000000000000000000000000000422ca8b0a00a425000000",
                    "logDecoded": true,
                    "operation": "EVENT",
                    "revert": false,
                    "status": true,
                    "topics": [
                        "0xddf252ad1be2c89b69c2b068fc378daa952ba7f163c4a11628f55a4df523b3ef",
                        "0x0000000000000000000000007dc819405822600cefcb09bc35cdfb87b537d199",
                        "0x0000000000000000000000001dab9e56279c3d044287c04d94916fbafb1f8cc6"
                    ]
                },
                "nodeType": 1
            }
        },
        "gasFlame": [
            {
                "children": [
                    {
                        "children": [
                            {
                                "children": [],
                                "depth": 0,
                                "name": "Initial Gas",
                                "value": 23256
                            },
                            {
                                "children": [],
                                "depth": 0,
                                "name": "Executed Gas",
                                "value": 13647
                            }
                        ],
                        "depth": -1,
                        "name": "Actual Gas Used",
                        "value": 36903
                    },
                    {
                        "children": [],
                        "depth": -1,
                        "name": "Refunded Gas",
                        "value": 0
                    }
                ],
                "depth": -2,
                "name": "Total Gas",
                "value": 36903
            }
        ],
        "isConfirmed": true,
        "mainTrace": [
            {
                "children": [
                    {
                        "children": [
                            {
                                "children": [],
                                "depth": 1,
                                "id": 1,
                                "order": 1
                            }
                        ],
                        "depth": 0,
                        "id": 0,
                        "order": 0
                    }
                ],
                "depth": -1,
                "id": -1,
                "order": -1
            }
        ],
        "mainTraceNodeCount": 2,
        "parentIdMap": {
            "0": -1,
            "1": 0
        },
        "tidyTrace": [
            {
                "children": [
                    {
                        "children": [
                            {
                                "children": [],
                                "depth": 1,
                                "id": 1,
                                "order": 1
                            }
                        ],
                        "depth": 0,
                        "id": 0,
                        "order": 0
                    }
                ],
                "depth": -1,
                "id": -1,
                "order": -1
            }
        ],
        "tidyTraceNodeCount": 2
    },
    "state_change": {
        "stateChanges": [
            {
                "address": "0x53066cddbc0099eb6c96785d9b3df2aaeede5da3",
                "erc": "ERC-20",
                "slots": [
                    {
                        "current": "0x0000000000000000000000000000000000000000000c685fa11e01ec6f000000",
                        "key": "0xbf990c1cf7db064b7d1e69239729261c64b5993626f9469cf107014c7b685dfa",
                        "prev": "0x000000000000000000000000000000000000000000108b2a2c28029094000000"
                    },
                    {
                        "current": "0x0000000000000000000000000000000000000000000c3e059b8e3f5682000000",
                        "key": "0xe68ab7b935238f067c32d9fcb2c6b938153825f69a8c25ee5bd40d0f51e113dd",
                        "prev": "0x000000000000000000000000000000000000000000081b3b10843eb25d000000"
                    }
                ],
                "storageVariables": [
                    {
                        "name": "balances",
                        "type": "mapping(address => uint256)",
                        "value": {
                            "pairs": [
                                {
                                    "key": "0x1dab9e56279c3d044287c04d94916fbafb1f8cc6",
                                    "value": {
                                        "current": "14800000000000000000000000",
                                        "prev": "9800000000000000000000000",
                                        "typeTag": 1
                                    }
                                },
                                {
                                    "key": "0x7dc819405822600cefcb09bc35cdfb87b537d199",
                                    "value": {
                                        "current": "15000000000000000000000000",
                                        "prev": "20000000000000000000000000",
                                        "typeTag": 1
                                    }
                                }
                            ],
                            "typeTag": 4
                        }
                    }
                ]
            }
        ]
    }
}