{
    "balance_change": {
        "balanceChanges": [
            {
                "account": "0x7185651bc29971a6232332e05ffb1c1c9c0fc07a",
                "assets": [
                    {
                        "address": "0xaa247c0d81b83812e1abf8bab078e4540d87e3fb",
                        "amount": "9.7983622",
                        "iconUrl": "",
                        "isERC1155": false,
                        "isERC721": false,
                        "sign": true,
                        "value": ""
                    }
                ]
            },
            {
                "account": "0x1eb4a2620b909a8838e0e24a8e912bd32f4a47a3",
                "assets": [
                    {
                        "address": "0xaa247c0d81b83812e1abf8bab078e4540d87e3fb",
                        "amount": "9.7983622",
                        "iconUrl": "",
                        "isERC1155": false,
                        "isERC721": false,
                        "sign": false,
                        "value": ""
                    }
                ]
            }
        ]
    },
    "profile": {
        "basic_info": {
            "baseFee": "3.507006658",
            "blockNumber": 19852672,
            "callData": "0x5eddd1570000000000000000000000000000000000000000000000003d7f996a1894252200000000000000000000000000000000000000000000000087fac681c79d700000000000000000000000000000000000000000000000000000000000000000600000000000000000000000000000000000000000000000000000000000000041b28d45cdf75ff1a2851d77de35eeeaf624a217732482ac8063d5905ff0a51f0f17338ac436da7f04d76155ccdca1378ac5ffeaf632ebac84ca61d574b5eecea60000000000000000000000000000000000000000000000000000000000000000",
            "debugEnable": true,
            "errorInfo": "",
            "eventCount": 1,
            "feeRecipient": "0x4838b106fce9647bdf1e7877bf73ce8b0bad5f97",
            "formatValue": "0",
            "gasLimit": 90629,
            "gasPrice": "3.544666467",
            "gasUsed": 89690,
            "intTxnCount": 2,
            "internalRevert": false,
            "internalRevertMessage": "",
            "isContractCreation": false,
            "isFlashloan": false,
            "maxFee": "5.307613714",
            "nonce": 4,
            "overwritedBlockNumber": -1,
            "priorityFee": "0.037659809",
            "receiver": "0x1eb4a2620b909a8838e0e24a8e912bd32f4a47a3",
            "revertMessage": "",
            "sender": "0x7185651bc29971a6232332e05ffb1c1c9c0fc07a",
            "simulationEnable": true,
            "sourceTxnHash": "0xdab9a7c26d209c147a6373cc7ed4379f2ee28db75f45663e81460832bfae04cd",
            "status": true,
            "timestamp": "2024-05-12T08:12:47Z",
            "transactionFee": "0.00031792113542523",
            "txnHash": "0xdab9a7c26d209c147a6373cc7ed4379f2ee28db75f45663e81460832bfae04cd",
            "txnIndex": 162,
            "type": 2,
            "value": "0"
        },
        "fund_flow": [
            {
                "amount": "9.7983622",
                "from": "0x1eb4a2620b909a8838e0e24a8e912bd32f4a47a3",
                "id": 1,
                "isERC1155": false,
                "isERC721": false,
                "isReverted": false,
                "order": 1,
                "to": "0x7185651bc29971a6232332e05ffb1c1c9c0fc07a",
                "token": "0xaa247c0d81b83812e1abf8bab078e4540d87e3fb"
            }
        ],
        "token_infos": [
            {
                "address": "0xaa247c0d81b83812e1abf8bab078e4540d87e3fb",
                "decimals": 18
            },
            {
                "address": "0xc02aaa39b223fe8d0a0e5c4f27ead9083c756cc2",
                "decimals": 18
            },
            {
                "address": "0xeeeeeeeeeeeeeeeeeeeeeeeeeeeeeeeeeeeeeeee",
                "decimals": 18
            }
        ]
    },
    "address_label": {
        "labels": [
            {
                "address": "0xaa247c0d81b83812e1abf8bab078e4540d87e3fb",
                "label": "Meson Network: MSN Token"
            },
            {
                "address": "0x1eb4a2620b909a8838e0e24a8e912bd32f4a47a3",
                "label": "MSN_SIMPLE_CLAIM"
            },
            {
                "address": "0x0000000000000000000000000000000000000001",
                "label": "Precompiled"
            },
            {
                "address": "0x0000000000000000000000000000000000000002",
                "label": "Precompiled"
            },
            {
                "address": "0x0000000000000000000000000000000000000003",
                "label": "Precompiled"
            },
            {
                "address": "0x0000000000000000000000000000000000000004",
                "label": "Precompiled"
            },
            {
                "address": "0xeeeeeeeeeeeeeeeeeeeeeeeeeeeeeeeeeeeeeeee",
                "label": "Ether"
            }
        ]
    },
    "trace": {
        "accountLabels": null,
        "dataMap": {
            "-1": {
                "invocation": {
                    "address": "0x7185651bc29971a6232332e05ffb1c1c9c0fc07a",
                    "callData": "",
                    "decodedMethod": null,
                    "errorInfo": "",
                    "fromAddress": "",
                    "gasUsed": 0,
                    "id": -1,
                    "methodDecoded": false,
                    "operation": "",
                    "output": "",
                    "revert": false,
                    "revertMessage": "",
                    "selector": "",
                    "status": false,
                    "value": ""
                },
                "nodeType": 0
            },
            "0": {
                "invocation": {
                    "address": "0x1eb4a2620b909a8838e0e24a8e912bd32f4a47a3",
                    "callData": "0x0000000000000000000000000000000000000000000000003d7f996a1894252200000000000000000000000000000000000000000000000087fac681c79d700000000000000000000000000000000000000000000000000000000000000000600000000000000000000000000000000000000000000000000000000000000041b28d45cdf75ff1a2851d77de35eeeaf624a217732482ac8063d5905ff0a51f0f17338ac436da7f04d76155ccdca1378ac5ffeaf632ebac84ca61d574b5eecea60000000000000000000000000000000000000000000000000000000000000000",
                    "decodedMethod": {
                        "callParams": [
                            {
                                "name": "signature_id",
                                "type": "uint256",
                                "value": "4,431,429,239,313,802,530"
                            },
                            {
                                "name": "amount",
                                "type": "uint256",
                                "value": "9,798,362,200,000,000,000"
                            },
                            {
                                "name": "signature",
                                "type": "bytes",
                                "value": "0xb28d45cdf75ff1a2851d77de35eeeaf624a217732482ac8063d5905ff0a51f0f17338ac436da7f04d76155ccdca1378ac5ffeaf632ebac84ca61d574b5eecea600"
                            }
                        ],
                        "constructorArguments": "",
                        "name": "claim",
                        "returnParams": [],
                        "signature": "claim(uint256,uint256,bytes)"
                    },
                    "errorInfo": "",
                    "fromAddress": "0x7185651bc29971a6232332e05ffb1c1c9c0fc07a",
                    "gasUsed": 89690,
                    "id": 0,
                    "methodDecoded": true,
                    "operation": "CALL",
                    "output": "",
                    "revert": false,
                    "revertMessage": "",
                    "selector": "0x5eddd157",
                    "status": true,
                    "value": "0"
                },
                "nodeType": 0
            },
            "1": {
                "invocation": {
                    "address": "0x0000000000000000000000000000000000000001",
                    "callData": "0xff448e55c787cccb8a8371e3fb38b5711f126f5881bb5a142dab3bbd000000000000000000000000000000000000000000000000000000000000001bb28d45cdf75ff1a2851d77de35eeeaf624a217732482ac8063d5905ff0a51f0f17338ac436da7f04d76155ccdca1378ac5ffeaf632ebac84ca61d574b5eecea6",
                    "decodedMethod": {
                        "callParams": [
                            {
                                "name": "hash",
                                "type": "bytes32",
                                "value": "0x88dc490aff448e55c787cccb8a8371e3fb38b5711f126f5881bb5a142dab3bbd"
                            },
                            {
                                "name": "v",
                                "type": "uint256",
                                "value": "27"
                            },
                            {
                                "name": "r",
                                "type": "bytes32",
                                "value": "0xb28d45cdf75ff1a2851d77de35eeeaf624a217732482ac8063d5905ff0a51f0f"
                            },
                            {
                                "name": "s",
                                "type": "bytes32",
                                "value": "0x17338ac436da7f04d76155ccdca1378ac5ffeaf632ebac84ca61d574b5eecea6"
                            }
                        ],
                        "constructorArguments": "",
                        "name": "ecrecover",
                        "returnParams": [
                            {
                                "name": "",
                                "type": "address",
                                "value": "0xed4c221096522ca1baa10429759f9b8e37e6d6b5"
                            }
                        ],
                        "signature": "ecrecover(bytes32,uint256,bytes32,bytes32)"
                    },
                    "errorInfo": "",
                    "fromAddress": "0x1eb4a2620b909a8838e0e24a8e912bd32f4a47a3",
                    "gasUsed": 3000,
                    "id": 1,
                    "methodDecoded": true,
                    "operation": "STATICCALL",
                    "output": "0x000000000000000000000000ed4c221096522ca1baa10429759f9b8e37e6d6b5",
                    "revert": false,
                    "revertMessage": "",
                    "selector": "0x88dc490a",
                    "status": true,
                    "value": "0"
                },
                "nodeType": 0
            },
            "2": {
                "invocation": {
                    "address": "0xaa247c0d81b83812e1abf8bab078e4540d87e3fb",
                    "callData": "0x0000000000000000000000007185651bc29971a6232332e05ffb1c1c9c0fc07a00000000000000000000000000000000000000000000000087fac681c79d7000",
                    "decodedMethod": {
                        "callParams": [
                            {
                                "name": "to",
                                "type": "address",
                                "value": "0x7185651bc29971a6232332e05ffb1c1c9c0fc07a"
                            },
                            {
                                "decimalAvailable": true,
                                "name": "amount",
                                "type": "uint256",
                                "value": "9,798,362,200,000,000,000"
                            }
                        ],
                        "constructorArguments": "",
                        "name": "transfer",
                        "returnParams": [
                            {
                                "name": "",
                                "type": "bool",
                                "value": true
                            }
                        ],
                        "signature": "transfer(address,uint256)"
                    },
                    "errorInfo": "",
                    "fromAddress": "0x1eb4a2620b909a8838e0e24a8e912bd32f4a47a3",
                    "gasUsed": 30551,
                    "id": 2,
                    "methodDecoded": true,
                    "operation": "CALL",
                    "output": "0x0000000000000000000000000000000000000000000000000000000000000001",
                    "revert": false,
                    "revertMessage": "",
                    "selector": "0xa9059cbb",
                    "status": true,
                    "value": "0"
                },
                "nodeType": 0
            },
            "3": {
                "event": {
                    "contract": "0xaa247c0d81b83812e1abf8bab078e4540d87e3fb",
                    "decodedLog": {
                        "name": "Transfer",
                        "params": [
                            {
                                "name": "from",
                                "type": "address",
                                "value": "0x1eb4a2620b909a8838e0e24a8e912bd32f4a47a3"
                            },
                            {
                                "name": "to",
                                "type": "address",
                                "value": "0x7185651bc29971a6232332e05ffb1c1c9c0fc07a"
                            },
                            {
                                "decimalAvailable": true,
                                "name": "value",
                                "type": "uint256",
                                "value": "9,798,362,200,000,000,000"
                            }
                        ],
                        "signature": "Transfer(address,address,uint256)"
                    },
                    "id": 3,
                    "logData": "0x00000000000000000000000000000000000000000000000087fac681c79d7000",
                    "logDecoded": true,
                    "operation": "EVENT",
                    "revert": false,
                    "status": true,
                    "topics": [
                        "0xddf252ad1be2c89b69c2b068fc378daa952ba7f163c4a11628f55a4df523b3ef",
                        "0x0000000000000000000000001eb4a2620b909a8838e0e24a8e912bd32f4a47a3",
                        "0x0000000000000000000000007185651bc29971a6232332e05ffb1c1c9c0fc07a"
                    ]
                },
                "nodeType": 1
            }
        },
        "gasFlame": [
            {
                "children": [
                    {
                        "children": [
                            {
                                "children": [],
                                "depth": 0,
                                "name": "Initial Gas",
                                "value": 22932
                            },
                            {
                                "children": [
                                    {
                                        "children": [],
                                        "depth": 1,
                                        "name": "ecrecover",
                                        "value": 3000
                                    },
                                    {
                                        "children": [],
                                        "depth": 1,
                                        "name": "transfer",
                                        "value": 30551
                                    }
                                ],
                                "depth": 0,
                                "name": "Executed Gas",
                                "value": 66758
                            }
                        ],
                        "depth": -1,
                        "name": "Actual Gas Used",
                        "value": 89690
                    },
                    {
                        "children": [],
                        "depth": -1,
                        "name": "Refunded Gas",
                        "value": 0
                    }
                ],
                "depth": -2,
                "name": "Total Gas",
                "value": 89690
            }
        ],
        "isConfirmed": true,
        "mainTrace": [
            {
                "children": [
                    {
                        "children": [
                            {
                                "children": [],
                                "depth": 1,
                                "id": 1,
                                "order": 1
                            },
                            {
                                "children": [
                                    {
                                        "children": [],
                                        "depth": 2,
                                        "id": 3,
                                        "order": 3
                                    }
                                ],
                                "depth": 1,
                                "id": 2,
                                "order": 2
                            }
                        ],
                        "depth": 0,
                        "id": 0,
                        "order": 0
                    }
                ],
                "depth": -1,
                "id": -1,
                "order": -1
            }
        ],
        "mainTraceNodeCount": 4,
        "parentIdMap": {
            "0": -1,
            "1": 0,
            "2": 0,
            "3": 2
        },
        "tidyTrace": [
            {
                "children": [
                    {
                        "children": [
                            {
                                "children": [
                                    {
                                        "children": [],
                                        "depth": 2,
                                        "id": 3,
                                        "order": 3
                                    }
                                ],
                                "depth": 1,
                                "id": 2,
                                "order": 2
                            }
                        ],
                        "depth": 0,
                        "id": 0,
                        "order": 0
                    }
                ],
                "depth": -1,
                "id": -1,
                "order": -1
            }
        ],
        "tidyTraceNodeCount": 3
    },
    "state_change": {
        "stateChanges": [
            {
                "address": "0x1eb4a2620b909a8838e0e24a8e912bd32f4a47a3",
                "erc": "",
                "slots": [
                    {
                        "current": "0x00000000000000000000000000000000000000000000000087fac681c79d7000",
                        "key": "0x53e2c6a093528344b4b4b497ac3c24be398ef07376dd1f679444b69d2c01fb40",
                        "prev": "0x0000000000000000000000000000000000000000000000000000000000000000"
                    }
                ],
                "storageVariables": [
                    {
                        "name": "claim_sig_amount_map",
                        "type": "mapping(uint256 => uint256)",
                        "value": {
                            "pairs": [
                                {
                                    "key": "4431429239313802530",
                                    "value": {
                                        "current": "9798362200000000000",
                                        "prev": "0",
                                        "typeTag": 1
                                    }
                                }
                            ],
                            "typeTag": 4
                        }
                    }
                ]
            },
            {
                "address": "0xaa247c0d81b83812e1abf8bab078e4540d87e3fb",
                "erc": "ERC-20",
                "slots": [
                    {
                        "current": "0x00000000000000000000000000000000000000000000619d9705c3b88cd26000",
                        "key": "0x1cb9db71b8905bcc8181c7da10577f97a18336aae23122c7245e5794ed7a9c2d",
                        "prev": "0x00000000000000000000000000000000000000000000619e1f008a3a546fd000"
                    },
                    {
                        "current": "0x00000000000000000000000000000000000000000000000087fac681c79d7000",
                        "key": "0x88f8c2a9dd4031a3b832c7e930481df6aa9cee2742481177a1e5419e7e0c8e73",
                        "prev": "0x0000000000000000000000000000000000000000000000000000000000000000"
                    }
                ],
                "storageVariables": [
                    {
                        "name": "_balances",
                        "type": "mapping(address => uint256)",
                        "value": {
                            "pairs": [
                                {
                                    "key": "0x1eb4a2620b909a8838e0e24a8e912bd32f4a47a3",
                                    "value": {
                                        "current": "460976569977200000000000",
                                        "prev": "460986368339400000000000",
                                        "typeTag": 1
                                    }
                                },
                                {
                                    "key": "0x7185651bc29971a6232332e05ffb1c1c9c0fc07a",
                                    "value": {
                                        "current": "9798362200000000000",
                                        "prev": "0",
                                        "typeTag": 1
                                    }
                                }
                            ],
                            "typeTag": 4
                        }
                    }
                ]
            }
        ]
    }
}