{
    "balance_change": {
        "balanceChanges": [
            {
                "account": "0x40a6e726c4686941e89cf4637b7c3788fa6bfbe4",
                "assets": [
                    {
                        "address": "0x9992ec3cf6a55b00978cddf2b27bc6882d88d1ec",
                        "amount": "3,442.43231713",
                        "iconUrl": "https://assets.blocksec.com/icon/4d3b6632543a37e6ec4a2b40857b5b9fe2160bb2f50c5585d260d025e7e81945.png",
                        "isERC1155": false,
                        "isERC721": false,
                        "sign": false,
                        "value": "1332.486972"
                    }
                ]
            },
            {
                "account": "0xddfabcdc4d8ffc6d5beaf154f18b778f892a0740",
                "assets": [
                    {
                        "address": "0x9992ec3cf6a55b00978cddf2b27bc6882d88d1ec",
                        "amount": "3,442.43231713",
                        "iconUrl": "https://assets.blocksec.com/icon/4d3b6632543a37e6ec4a2b40857b5b9fe2160bb2f50c5585d260d025e7e81945.png",
                        "isERC1155": false,
                        "isERC721": false,
                        "sign": true,
                        "value": "1332.486972"
                    }
                ]
            }
        ]
    },
    "profile": {
        "basic_info": {
            "baseFee": "71.6172217",
            "blockNumber": 14335235,
            "callData": "0xa9059cbb000000000000000000000000ddfabcdc4d8ffc6d5beaf154f18b778f892a07400000000000000000000000000000000000000000000000ba9d5861a4427f6400",
            "debugEnable": true,
            "errorInfo": "",
            "eventCount": 1,
            "feeRecipient": "0xea674fdde714fd979de3edf0f56aa9716b898ec8",
            "formatValue": "0",
            "gasLimit": 250000,
            "gasPrice": "73.6172217",
            "gasUsed": 30211,
            "intTxnCount": 0,
            "internalRevert": false,
            "internalRevertMessage": "",
            "isContractCreation": false,
            "isFlashloan": false,
            "maxFee": "172",
            "nonce": 0,
            "overwritedBlockNumber": -1,
            "priorityFee": "2",
            "receiver": "0x9992ec3cf6a55b00978cddf2b27bc6882d88d1ec",
            "revertMessage": "",
            "sender": "0x40a6e726c4686941e89cf4637b7c3788fa6bfbe4",
            "simulationEnable": true,
            "sourceTxnHash": "0xdb17f06ad88138b8cb2f945b159725f2e323e08344a0f8fff8ab73f19d3b930f",
            "status": true,
            "timestamp": "2022-03-06T19:37:51Z",
            "transactionFee": "0.0022240498847787",
            "txnHash": "0xdb17f06ad88138b8cb2f945b159725f2e323e08344a0f8fff8ab73f19d3b930f",
            "txnIndex": 126,
            "type": 2,
            "value": "0"
        },
        "fund_flow": [
            {
                "amount": "3,442.43231713",
                "from": "0x40a6e726c4686941e89cf4637b7c3788fa6bfbe4",
                "id": 1,
                "isERC1155": false,
                "isERC721": false,
                "isReverted": false,
                "order": 1,
                "to": "0xddfabcdc4d8ffc6d5beaf154f18b778f892a0740",
                "token": "0x9992ec3cf6a55b00978cddf2b27bc6882d88d1ec"
            }
        ],
        "token_infos": [
            {
                "address": "0x9992ec3cf6a55b00978cddf2b27bc6882d88d1ec",
                "decimals": 18
            },
            {
                "address": "0xc02aaa39b223fe8d0a0e5c4f27ead9083c756cc2",
                "decimals": 18
            },
            {
                "address": "0xeeeeeeeeeeeeeeeeeeeeeeeeeeeeeeeeeeeeeeee",
                "decimals": 18
            }
        ]
    },
    "address_label": {
        "labels": [
            {
                "address": "0x0000000000000000000000000000000000000002",
                "label": "Precompiled"
            },
            {
                "address": "0x0000000000000000000000000000000000000003",
                "label": "Precompiled"
            },
            {
                "address": "0x0000000000000000000000000000000000000004",
                "label": "Precompiled"
            },
            {
                "address": "0xeeeeeeeeeeeeeeeeeeeeeeeeeeeeeeeeeeeeeeee",
                "label": "Ether"
            },
            {
                "address": "0xddfabcdc4d8ffc6d5beaf154f18b778f892a0740",
                "label": "Coinbase 3"
            },
            {
                "address": "0x9992ec3cf6a55b00978cddf2b27bc6882d88d1ec",
                "label": "Polymath Token"
            },
            {
                "address": "0x40a6e726c4686941e89cf4637b7c3788fa6bfbe4",
                "label": "COINBASE"
            },
            {
                "address": "0x0000000000000000000000000000000000000001",
                "label": "Precompiled"
            }
        ]
    },
    "trace": {
        "accountLabels": null,
        "dataMap": {
            "-1": {
                "invocation": {
                    "address": "0x40a6e726c4686941e89cf4637b7c3788fa6bfbe4",
                    "callData": "",
                    "decodedMethod": null,
                    "errorInfo": "",
                    "fromAddress": "",
                    "gasUsed": 0,
                    "id": -1,
                    "methodDecoded": false,
                    "operation": "",
                    "output": "",
                    "revert": false,
                    "revertMessage": "",
                    "selector": "",
                    "status": false,
                    "value": ""
                },
                "nodeType": 0
            },
            "0": {
                "invocation": {
                    "address": "0x9992ec3cf6a55b00978cddf2b27bc6882d88d1ec",
                    "callData": "0x000000000000000000000000ddfabcdc4d8ffc6d5beaf154f18b778f892a07400000000000000000000000000000000000000000000000ba9d5861a4427f6400",
                    "decodedMethod": {
                        "callParams": [
                            {
                                "name": "_to",
                                "type": "address",
                                "value": "0xddfabcdc4d8ffc6d5beaf154f18b778f892a0740"
                            },
                            {
                                "decimalAvailable": true,
                                "name": "_value",
                                "type": "uint256",
                                "value": "3,442,432,317,130,000,000,000"
                            }
                        ],
                        "constructorArguments": "",
                        "name": "transfer",
                        "returnParams": [
                            {
                                "name": "",
                                "type": "bool",
                                "value": true
                            }
                        ],
                        "signature": "transfer(address,uint256)"
                    },
                    "errorInfo": "",
                    "fromAddress": "0x40a6e726c4686941e89cf4637b7c3788fa6bfbe4",
                    "gasUsed": 30211,
                    "id": 0,
                    "methodDecoded": true,
                    "operation": "CALL",
                    "output": "0x0000000000000000000000000000000000000000000000000000000000000001",
                    "revert": false,
                    "revertMessage": "",
                    "selector": "0xa9059cbb",
                    "status": true,
                    "value": "0"
                },
                "nodeType": 0
            },
            "1": {
                "event": {
                    "contract": "0x9992ec3cf6a55b00978cddf2b27bc6882d88d1ec",
                    "decodedLog": {
                        "name": "Transfer",
                        "params": [
                            {
                                "name": "from",
                                "type": "address",
                                "value": "0x40a6e726c4686941e89cf4637b7c3788fa6bfbe4"
                            },
                            {
                                "name": "to",
                                "type": "address",
                                "value": "0xddfabcdc4d8ffc6d5beaf154f18b778f892a0740"
                            },
                            {
                                "decimalAvailable": true,
                                "name": "value",
                                "type": "uint256",
                                "value": "3,442,432,317,130,000,000,000"
                            }
                        ],
                        "signature": "Transfer(address,address,uint256)"
                    },
                    "id": 1,
                    "logData": "0x0000000000000000000000000000000000000000000000ba9d5861a4427f6400",
                    "logDecoded": true,
                    "operation": "EVENT",
                    "revert": false,
                    "status": true,
                    "topics": [
                        "0xddf252ad1be2c89b69c2b068fc378daa952ba7f163c4a11628f55a4df523b3ef",
                        "0x00000000000000000000000040a6e726c4686941e89cf4637b7c3788fa6bfbe4",
                        "0x000000000000000000000000ddfabcdc4d8ffc6d5beaf154f18b778f892a0740"
                    ]
                },
                "nodeType": 1
            }
        },
        "gasFlame": [
            {
                "children": [
                    {
                        "children": [
                            {
                                "children": [],
                                "depth": 0,
                                "name": "Initial Gas",
                                "value": 21656
                            },
                            {
                                "children": [],
                                "depth": 0,
                                "name": "Executed Gas",
                                "value": 13355
                            }
                        ],
                        "depth": -1,
                        "name": "Actual Gas Used",
                        "value": 30211
                    },
                    {
                        "children": [],
                        "depth": -1,
                        "name": "Refunded Gas",
                        "value": 4800
                    }
                ],
                "depth": -2,
                "name": "Total Gas",
                "value": 35011
            }
        ],
        "isConfirmed": true,
        "mainTrace": [
            {
                "children": [
                    {
                        "children": [
                            {
                                "children": [],
                                "depth": 1,
                                "id": 1,
                                "order": 1
                            }
                        ],
                        "depth": 0,
                        "id": 0,
                        "order": 0
                    }
                ],
                "depth": -1,
                "id": -1,
                "order": -1
            }
        ],
        "mainTraceNodeCount": 2,
        "parentIdMap": {
            "0": -1,
            "1": 0
        },
        "tidyTrace": [
            {
                "children": [
                    {
                        "children": [
                            {
                                "children": [],
                                "depth": 1,
                                "id": 1,
                                "order": 1
                            }
                        ],
                        "depth": 0,
                        "id": 0,
                        "order": 0
                    }
                ],
                "depth": -1,
                "id": -1,
                "order": -1
            }
        ],
        "tidyTraceNodeCount": 2
    },
    "state_change": {
        "stateChanges": [
            {
                "address": "0x9992ec3cf6a55b00978cddf2b27bc6882d88d1ec",
                "erc": "ERC-20",
                "slots": [
                    {
                        "current": "0x0000000000000000000000000000000000000000000000000000000000000000",
                        "key": "0xd15fc14b0be8ceb01601f3d5677044fa383652dfeb989380d5e2b813c1d7b9f6",
                        "prev": "0x0000000000000000000000000000000000000000000000ba9d5861a4427f6400"
                    },
                    {
                        "current": "0x000000000000000000000000000000000000000000021c5a04fb3baaee04d69c",
                        "key": "0xbefcd55286a65f2c15806215d7aba9a3d1f41434a32c6b114d7bddee673d971f",
                        "prev": "0x000000000000000000000000000000000000000000021b9f67a2da06ab85729c"
                    }
                ],
                "storageVariables": [
                    {
                        "name": "balances",
                        "type": "mapping(address => uint256)",
                        "value": {
                            "pairs": [
                                {
                                    "key": "0x40a6e726c4686941e89cf4637b7c3788fa6bfbe4",
                                    "value": {
                                        "current": "0",
                                        "prev": "3442432317130000000000",
                                        "typeTag": 1
                                    }
                                },
                                {
                                    "key": "0xddfabcdc4d8ffc6d5beaf154f18b778f892a0740",
                                    "value": {
                                        "current": "2551738466662442904901276",
                                        "prev": "2548296034345312904901276",
                                        "typeTag": 1
                                    }
                                }
                            ],
                            "typeTag": 4
                        }
                    }
                ]
            }
        ]
    }
}