{
    "balance_change": {
        "balanceChanges": [
            {
                "account": "0xd8c958f774de4b671e43f78fd0a04255e2291a13",
                "assets": [
                    {
                        "address": "0xeeeeeeeeeeeeeeeeeeeeeeeeeeeeeeeeeeeeeeee",
                        "amount": "0.01",
                        "iconUrl": "https://assets.blocksec.com/image/1663669189317-3.png",
                        "isERC1155": false,
                        "isERC721": false,
                        "sign": false,
                        "value": ""
                    }
                ]
            },
            {
                "account": "0x53e73e51e8e5a009a8b9fbcca24af202a8769dad",
                "assets": [
                    {
                        "address": "0xeeeeeeeeeeeeeeeeeeeeeeeeeeeeeeeeeeeeeeee",
                        "amount": "0.01",
                        "iconUrl": "https://assets.blocksec.com/image/1663669189317-3.png",
                        "isERC1155": false,
                        "isERC721": false,
                        "sign": true,
                        "value": ""
                    }
                ]
            }
        ]
    },
    "profile": {
        "basic_info": {
            "baseFee": "",
            "blockNumber": 4029540,
            "callData": "0xfebefd610000000000000000000000000000000000000000000000000000000000000040391c90acf298ed19c6d31b01f4b21aab45a54a1608e0f848714cda5a56c775410000000000000000000000000000000000000000000000000000000000000003e9f578526f3d2a2610614b80a4c4f39b87bc26d55ee5cc814de0ff6cd6a55e6842b4642b231e314bbcc1dbd726ca5dbeb585dddd62b430e27e00c4051479796edec1eb91753508951e6c1118a25926b18ad87a85434f178a40504820b892febb",
            "debugEnable": true,
            "errorInfo": "",
            "eventCount": 4,
            "feeRecipient": "0x829bd824b016326a401d083b33d092293333a830",
            "formatValue": "0.01",
            "gasLimit": 650000,
            "gasPrice": "20",
            "gasUsed": 518449,
            "intTxnCount": 4,
            "internalRevert": false,
            "internalRevertMessage": "",
            "isContractCreation": false,
            "isFlashloan": false,
            "maxFee": "",
            "nonce": 3242,
            "overwritedBlockNumber": -1,
            "priorityFee": "",
            "receiver": "0x6090a6e47849629b7245dfa1ca21d94cd15878ef",
            "revertMessage": "",
            "sender": "0xd8c958f774de4b671e43f78fd0a04255e2291a13",
            "simulationEnable": true,
            "sourceTxnHash": "0xdb9476252267c5b7e2913f7ba562d2c58967c6c00cda936308a0d639c0d3764a",
            "status": true,
            "timestamp": "2017-07-16T08:58:06Z",
            "transactionFee": "0.01036898",
            "txnHash": "0xdb9476252267c5b7e2913f7ba562d2c58967c6c00cda936308a0d639c0d3764a",
            "txnIndex": 70,
            "type": 0,
            "value": "10000000000000000"
        },
        "fund_flow": [
            {
                "amount": "0.01",
                "from": "0xd8c958f774de4b671e43f78fd0a04255e2291a13",
                "id": 1,
                "isERC1155": false,
                "isERC721": false,
                "isReverted": false,
                "order": 1,
                "to": "0x6090a6e47849629b7245dfa1ca21d94cd15878ef",
                "token": "0xeeeeeeeeeeeeeeeeeeeeeeeeeeeeeeeeeeeeeeee"
            },
            {
                "amount": "0.01",
                "from": "0x6090a6e47849629b7245dfa1ca21d94cd15878ef",
                "id": 2,
                "isERC1155": false,
                "isERC721": false,
                "isReverted": false,
                "order": 2,
                "to": "0x53e73e51e8e5a009a8b9fbcca24af202a8769dad",
                "token": "0xeeeeeeeeeeeeeeeeeeeeeeeeeeeeeeeeeeeeeeee"
            }
        ],
        "token_infos": [
            {
                "address": "0xc02aaa39b223fe8d0a0e5c4f27ead9083c756cc2",
                "decimals": 18
            },
            {
                "address": "0xeeeeeeeeeeeeeeeeeeeeeeeeeeeeeeeeeeeeeeee",
                "decimals": 18
            }
        ]
    },
    "address_label": {
        "labels": [
            {
                "address": "0x6090a6e47849629b7245dfa1ca21d94cd15878ef",
                "label": "ENS: Old Registrar"
            },
            {
                "address": "0x314159265dd8dbb310642f98f50c066173c1259b",
                "label": "ENS: Eth Name Service"
            },
            {
                "address": "0x53e73e51e8e5a009a8b9fbcca24af202a8769dad",
                "label": "Deed"
            },
            {
                "address": "0x0000000000000000000000000000000000000001",
                "label": "Precompiled"
            },
            {
                "address": "0x0000000000000000000000000000000000000002",
                "label": "Precompiled"
            },
            {
                "address": "0x0000000000000000000000000000000000000003",
                "label": "Precompiled"
            },
            {
                "address": "0x0000000000000000000000000000000000000004",
                "label": "Precompiled"
            },
            {
                "address": "0xeeeeeeeeeeeeeeeeeeeeeeeeeeeeeeeeeeeeeeee",
                "label": "Ether"
            }
        ]
    },
    "trace": {
        "accountLabels": null,
        "dataMap": {
            "-1": {
                "invocation": {
                    "address": "0xd8c958f774de4b671e43f78fd0a04255e2291a13",
                    "callData": "",
                    "decodedMethod": null,
                    "errorInfo": "",
                    "fromAddress": "",
                    "gasUsed": 0,
                    "id": -1,
                    "methodDecoded": false,
                    "operation": "",
                    "output": "",
                    "revert": false,
                    "revertMessage": "",
                    "selector": "",
                    "status": false,
                    "value": ""
                },
                "nodeType": 0
            },
            "0": {
                "invocation": {
                    "address": "0x6090a6e47849629b7245dfa1ca21d94cd15878ef",
                    "callData": "0x0000000000000000000000000000000000000000000000000000000000000040391c90acf298ed19c6d31b01f4b21aab45a54a1608e0f848714cda5a56c775410000000000000000000000000000000000000000000000000000000000000003e9f578526f3d2a2610614b80a4c4f39b87bc26d55ee5cc814de0ff6cd6a55e6842b4642b231e314bbcc1dbd726ca5dbeb585dddd62b430e27e00c4051479796edec1eb91753508951e6c1118a25926b18ad87a85434f178a40504820b892febb",
                    "decodedMethod": {
                        "callParams": [
                            {
                                "name": "hashes",
                                "type": "bytes32[]",
                                "value": [
                                    "0xe9f578526f3d2a2610614b80a4c4f39b87bc26d55ee5cc814de0ff6cd6a55e68",
                                    "0x42b4642b231e314bbcc1dbd726ca5dbeb585dddd62b430e27e00c4051479796e",
                                    "0xdec1eb91753508951e6c1118a25926b18ad87a85434f178a40504820b892febb"
                                ]
                            },
                            {
                                "name": "sealedBid",
                                "type": "bytes32",
                                "value": "0x391c90acf298ed19c6d31b01f4b21aab45a54a1608e0f848714cda5a56c77541"
                            }
                        ],
                        "constructorArguments": "",
                        "name": "startAuctionsAndBid",
                        "returnParams": [],
                        "signature": "startAuctionsAndBid(bytes32[],bytes32)"
                    },
                    "errorInfo": "",
                    "fromAddress": "0xd8c958f774de4b671e43f78fd0a04255e2291a13",
                    "gasUsed": 518449,
                    "id": 0,
                    "methodDecoded": true,
                    "operation": "CALL",
                    "output": "",
                    "revert": false,
                    "revertMessage": "",
                    "selector": "0xfebefd61",
                    "status": true,
                    "value": "0.01"
                },
                "nodeType": 0
            },
            "1": {
                "invocation": {
                    "address": "0x314159265dd8dbb310642f98f50c066173c1259b",
                    "callData": "0x93cdeb708b7545dc668eb9280176169d1c33cfd8ed6f04690a0bcc88a93fc4ae",
                    "decodedMethod": {
                        "callParams": [
                            {
                                "name": "node",
                                "type": "bytes32",
                                "value": "0x93cdeb708b7545dc668eb9280176169d1c33cfd8ed6f04690a0bcc88a93fc4ae"
                            }
                        ],
                        "constructorArguments": "",
                        "name": "owner",
                        "returnParams": [
                            {
                                "name": "",
                                "type": "address",
                                "value": "0x6090a6e47849629b7245dfa1ca21d94cd15878ef"
                            }
                        ],
                        "signature": "owner(bytes32)"
                    },
                    "errorInfo": "",
                    "fromAddress": "0x6090a6e47849629b7245dfa1ca21d94cd15878ef",
                    "gasUsed": 432,
                    "id": 1,
                    "methodDecoded": true,
                    "operation": "CALL",
                    "output": "0x0000000000000000000000006090a6e47849629b7245dfa1ca21d94cd15878ef",
                    "revert": false,
                    "revertMessage": "",
                    "selector": "0x02571be3",
                    "status": true,
                    "value": "0"
                },
                "nodeType": 0
            },
            "2": {
                "event": {
                    "contract": "0x6090a6e47849629b7245dfa1ca21d94cd15878ef",
                    "decodedLog": {
                        "name": "AuctionStarted",
                        "params": [
                            {
                                "name": "hash",
                                "type": "bytes32",
                                "value": "0xe9f578526f3d2a2610614b80a4c4f39b87bc26d55ee5cc814de0ff6cd6a55e68"
                            },
                            {
                                "name": "registrationDate",
                                "type": "uint256",
                                "value": "1,500,627,486"
                            }
                        ],
                        "signature": "AuctionStarted(bytes32,uint256)"
                    },
                    "id": 2,
                    "logData": "0x000000000000000000000000000000000000000000000000000000005971c21e",
                    "logDecoded": true,
                    "operation": "EVENT",
                    "revert": false,
                    "status": true,
                    "topics": [
                        "0x87e97e825a1d1fa0c54e1d36c7506c1dea8b1efd451fe68b000cf96f7cf40003",
                        "0xe9f578526f3d2a2610614b80a4c4f39b87bc26d55ee5cc814de0ff6cd6a55e68"
                    ]
                },
                "nodeType": 1
            },
            "3": {
                "invocation": {
                    "address": "0x314159265dd8dbb310642f98f50c066173c1259b",
                    "callData": "0x93cdeb708b7545dc668eb9280176169d1c33cfd8ed6f04690a0bcc88a93fc4ae",
                    "decodedMethod": {
                        "callParams": [
                            {
                                "name": "node",
                                "type": "bytes32",
                                "value": "0x93cdeb708b7545dc668eb9280176169d1c33cfd8ed6f04690a0bcc88a93fc4ae"
                            }
                        ],
                        "constructorArguments": "",
                        "name": "owner",
                        "returnParams": [
                            {
                                "name": "",
                                "type": "address",
                                "value": "0x6090a6e47849629b7245dfa1ca21d94cd15878ef"
                            }
                        ],
                        "signature": "owner(bytes32)"
                    },
                    "errorInfo": "",
                    "fromAddress": "0x6090a6e47849629b7245dfa1ca21d94cd15878ef",
                    "gasUsed": 432,
                    "id": 3,
                    "methodDecoded": true,
                    "operation": "CALL",
                    "output": "0x0000000000000000000000006090a6e47849629b7245dfa1ca21d94cd15878ef",
                    "revert": false,
                    "revertMessage": "",
                    "selector": "0x02571be3",
                    "status": true,
                    "value": "0"
                },
                "nodeType": 0
            },
            "4": {
                "event": {
                    "contract": "0x6090a6e47849629b7245dfa1ca21d94cd15878ef",
                    "decodedLog": {
                        "name": "AuctionStarted",
                        "params": [
                            {
                                "name": "hash",
                                "type": "bytes32",
                                "value": "0x42b4642b231e314bbcc1dbd726ca5dbeb585dddd62b430e27e00c4051479796e"
                            },
                            {
                                "name": "registrationDate",
                                "type": "uint256",
                                "value": "1,500,627,486"
                            }
                        ],
                        "signature": "AuctionStarted(bytes32,uint256)"
                    },
                    "id": 4,
                    "logData": "0x000000000000000000000000000000000000000000000000000000005971c21e",
                    "logDecoded": true,
                    "operation": "EVENT",
                    "revert": false,
                    "status": true,
                    "topics": [
                        "0x87e97e825a1d1fa0c54e1d36c7506c1dea8b1efd451fe68b000cf96f7cf40003",
                        "0x42b4642b231e314bbcc1dbd726ca5dbeb585dddd62b430e27e00c4051479796e"
                    ]
                },
                "nodeType": 1
            },
            "5": {
                "invocation": {
                    "address": "0x314159265dd8dbb310642f98f50c066173c1259b",
                    "callData": "0x93cdeb708b7545dc668eb9280176169d1c33cfd8ed6f04690a0bcc88a93fc4ae",
                    "decodedMethod": {
                        "callParams": [
                            {
                                "name": "node",
                                "type": "bytes32",
                                "value": "0x93cdeb708b7545dc668eb9280176169d1c33cfd8ed6f04690a0bcc88a93fc4ae"
                            }
                        ],
                        "constructorArguments": "",
                        "name": "owner",
                        "returnParams": [
                            {
                                "name": "",
                                "type": "address",
                                "value": "0x6090a6e47849629b7245dfa1ca21d94cd15878ef"
                            }
                        ],
                        "signature": "owner(bytes32)"
                    },
                    "errorInfo": "",
                    "fromAddress": "0x6090a6e47849629b7245dfa1ca21d94cd15878ef",
                    "gasUsed": 432,
                    "id": 5,
                    "methodDecoded": true,
                    "operation": "CALL",
                    "output": "0x0000000000000000000000006090a6e47849629b7245dfa1ca21d94cd15878ef",
                    "revert": false,
                    "revertMessage": "",
                    "selector": "0x02571be3",
                    "status": true,
                    "value": "0"
                },
                "nodeType": 0
            },
            "6": {
                "event": {
                    "contract": "0x6090a6e47849629b7245dfa1ca21d94cd15878ef",
                    "decodedLog": {
                        "name": "AuctionStarted",
                        "params": [
                            {
                                "name": "hash",
                                "type": "bytes32",
                                "value": "0xdec1eb91753508951e6c1118a25926b18ad87a85434f178a40504820b892febb"
                            },
                            {
                                "name": "registrationDate",
                                "type": "uint256",
                                "value": "1,500,627,486"
                            }
                        ],
                        "signature": "AuctionStarted(bytes32,uint256)"
                    },
                    "id": 6,
                    "logData": "0x000000000000000000000000000000000000000000000000000000005971c21e",
                    "logDecoded": true,
                    "operation": "EVENT",
                    "revert": false,
                    "status": true,
                    "topics": [
                        "0x87e97e825a1d1fa0c54e1d36c7506c1dea8b1efd451fe68b000cf96f7cf40003",
                        "0xdec1eb91753508951e6c1118a25926b18ad87a85434f178a40504820b892febb"
                    ]
                },
                "nodeType": 1
            },
            "7": {
                "invocation": {
                    "address": "0x53e73e51e8e5a009a8b9fbcca24af202a8769dad",
                    "callData": "606060405260405160208061051683398101604052515b60028054600160a060020a03808416600160a060020a0319928316179092556000805433909316929091169190911790554260019081556005805460ff19169091179055346004555b505b6104a6806100706000396000f300606060405236156100885763ffffffff60e060020a60003504166305b34410811461008a5780630b5ab3d5146100ac57806313af4035146100be5780632b20e397146100dc5780633fa4f24514610108578063674f220f1461012a5780638da5cb5b14610156578063b0c8097214610182578063bbe427711461019c578063faab9d39146101b1575bfe5b341561009257fe5b61009a6101cf565b60408051918252519081900360200190f35b34156100b457fe5b6100bc6101d5565b005b34156100c657fe5b6100bc600160a060020a036004351661021d565b005b34156100e457fe5b6100ec6102c3565b60408051600160a060020a039092168252519081900360200190f35b341561011057fe5b61009a6102d2565b60408051918252519081900360200190f35b341561013257fe5b6100ec6102d8565b60408051600160a060020a039092168252519081900360200190f35b341561015e57fe5b6100ec6102e7565b60408051600160a060020a039092168252519081900360200190f35b341561018a57fe5b6100bc60043560243515156102f6565b005b34156101a457fe5b6100bc600435610382565b005b34156101b957fe5b6100bc600160a060020a0360043516610431565b005b60015481565b60055460ff16156101e65760006000fd5b600254604051600160a060020a039182169130163180156108fc02916000818181858888f193505050501561021a5761deadff5b5b565b60005433600160a060020a039081169116146102395760006000fd5b600160a060020a038116151561024f5760006000fd5b600280546003805473ffffffffffffffffffffffffffffffffffffffff19908116600160a060020a03808516919091179092559084169116811790915560408051918252517fa2ea9883a321a3e97b8266c2b078bfeec6d50c711ed71f874a90d500ae2eaf369181900360200190a15b5b50565b600054600160a060020a031681565b60045481565b600354600160a060020a031681565b600254600160a060020a031681565b60005433600160a060020a039081169116146103125760006000fd5b60055460ff1615156103245760006000fd5b8160045410156103345760006000fd5b6004829055600254604051600160a060020a039182169130163184900380156108fc02916000818181858888f193505050501580156103705750805b1561037b5760006000fd5b5b5b5b5050565b60005433600160a060020a0390811691161461039e5760006000fd5b60055460ff1615156103b05760006000fd5b6005805460ff1916905561dead6108fc6103e883810330600160a060020a031631025b604051919004801590920291906000818181858888f1935050505015156103fa5760006000fd5b6040517fbb2ce2f51803bba16bc85282b47deeea9a5c6223eabea1077be696b3f265cf1390600090a16102bf6101d5565b5b5b5b50565b60005433600160a060020a0390811691161461044d5760006000fd5b6000805473ffffffffffffffffffffffffffffffffffffffff1916600160a060020a0383161790555b5b505600a165627a7a72305820fbfa6f8a2024760ef0e0eb29a332c9a820526e92f8b4fbcce6f00c7643234b140029000000000000000000000000d8c958f774de4b671e43f78fd0a04255e2291a13",
                    "decodedMethod": {
                        "callParams": [
                            {
                                "name": "_owner",
                                "type": "address",
                                "value": "0x051683398101604052515b60028054600160a060"
                            }
                        ],
                        "constructorArguments": "606060405260405160208061051683398101604052515b60028054600160a060020a03808416600160a060020a0319928316179092556000805433909316929091169190911790554260019081556005805460ff19169091179055346004555b505b6104a6806100706000396000f300606060405236156100885763ffffffff60e060020a60003504166305b34410811461008a5780630b5ab3d5146100ac57806313af4035146100be5780632b20e397146100dc5780633fa4f24514610108578063674f220f1461012a5780638da5cb5b14610156578063b0c8097214610182578063bbe427711461019c578063faab9d39146101b1575bfe5b341561009257fe5b61009a6101cf565b60408051918252519081900360200190f35b34156100b457fe5b6100bc6101d5565b005b34156100c657fe5b6100bc600160a060020a036004351661021d565b005b34156100e457fe5b6100ec6102c3565b60408051600160a060020a039092168252519081900360200190f35b341561011057fe5b61009a6102d2565b60408051918252519081900360200190f35b341561013257fe5b6100ec6102d8565b60408051600160a060020a039092168252519081900360200190f35b341561015e57fe5b6100ec6102e7565b60408051600160a060020a039092168252519081900360200190f35b341561018a57fe5b6100bc60043560243515156102f6565b005b34156101a457fe5b6100bc600435610382565b005b34156101b957fe5b6100bc600160a060020a0360043516610431565b005b60015481565b60055460ff16156101e65760006000fd5b600254604051600160a060020a039182169130163180156108fc02916000818181858888f193505050501561021a5761deadff5b5b565b60005433600160a060020a039081169116146102395760006000fd5b600160a060020a038116151561024f5760006000fd5b600280546003805473ffffffffffffffffffffffffffffffffffffffff19908116600160a060020a03808516919091179092559084169116811790915560408051918252517fa2ea9883a321a3e97b8266c2b078bfeec6d50c711ed71f874a90d500ae2eaf369181900360200190a15b5b50565b600054600160a060020a031681565b60045481565b600354600160a060020a031681565b600254600160a060020a031681565b60005433600160a060020a039081169116146103125760006000fd5b60055460ff1615156103245760006000fd5b8160045410156103345760006000fd5b6004829055600254604051600160a060020a039182169130163184900380156108fc02916000818181858888f193505050501580156103705750805b1561037b5760006000fd5b5b5b5b5050565b60005433600160a060020a0390811691161461039e5760006000fd5b60055460ff1615156103b05760006000fd5b6005805460ff1916905561dead6108fc6103e883810330600160a060020a031631025b604051919004801590920291906000818181858888f1935050505015156103fa5760006000fd5b6040517fbb2ce2f51803bba16bc85282b47deeea9a5c6223eabea1077be696b3f265cf1390600090a16102bf6101d5565b5b5b5b50565b60005433600160a060020a0390811691161461044d5760006000fd5b6000805473ffffffffffffffffffffffffffffffffffffffff1916600160a060020a0383161790555b5b505600a165627a7a72305820fbfa6f8a2024760ef0e0eb29a332c9a820526e92f8b4fbcce6f00c7643234b140029000000000000000000000000d8c958f774de4b671e43f78fd0a04255e2291a13",
                        "name": "constructor",
                        "returnParams": [
                            {
                                "name": "runtime code",
                                "type": "",
                                "value": "0x606060405236156100885763ffffffff60e060020a60003504166305b34410811461008a5780630b5ab3d5146100ac57806313af4035146100be5780632b20e397146100dc5780633fa4f24514610108578063674f220f1461012a5780638da5cb5b14610156578063b0c8097214610182578063bbe427711461019c578063faab9d39146101b1575bfe5b341561009257fe5b61009a6101cf565b60408051918252519081900360200190f35b34156100b457fe5b6100bc6101d5565b005b34156100c657fe5b6100bc600160a060020a036004351661021d565b005b34156100e457fe5b6100ec6102c3565b60408051600160a060020a039092168252519081900360200190f35b341561011057fe5b61009a6102d2565b60408051918252519081900360200190f35b341561013257fe5b6100ec6102d8565b60408051600160a060020a039092168252519081900360200190f35b341561015e57fe5b6100ec6102e7565b60408051600160a060020a039092168252519081900360200190f35b341561018a57fe5b6100bc60043560243515156102f6565b005b34156101a457fe5b6100bc600435610382565b005b34156101b957fe5b6100bc600160a060020a0360043516610431565b005b60015481565b60055460ff16156101e65760006000fd5b600254604051600160a060020a039182169130163180156108fc02916000818181858888f193505050501561021a5761deadff5b5b565b60005433600160a060020a039081169116146102395760006000fd5b600160a060020a038116151561024f5760006000fd5b600280546003805473ffffffffffffffffffffffffffffffffffffffff19908116600160a060020a03808516919091179092559084169116811790915560408051918252517fa2ea9883a321a3e97b8266c2b078bfeec6d50c711ed71f874a90d500ae2eaf369181900360200190a15b5b50565b600054600160a060020a031681565b60045481565b600354600160a060020a031681565b600254600160a060020a031681565b60005433600160a060020a039081169116146103125760006000fd5b60055460ff1615156103245760006000fd5b8160045410156103345760006000fd5b6004829055600254604051600160a060020a039182169130163184900380156108fc02916000818181858888f193505050501580156103705750805b1561037b5760006000fd5b5b5b5b5050565b60005433600160a060020a0390811691161461039e5760006000fd5b60055460ff1615156103b05760006000fd5b6005805460ff1916905561dead6108fc6103e883810330600160a060020a031631025b604051919004801590920291906000818181858888f1935050505015156103fa5760006000fd5b6040517fbb2ce2f51803bba16bc85282b47deeea9a5c6223eabea1077be696b3f265cf1390600090a16102bf6101d5565b5b5b5b50565b60005433600160a060020a0390811691161461044d5760006000fd5b6000805473ffffffffffffffffffffffffffffffffffffffff1916600160a060020a0383161790555b5b505600a165627a7a72305820fbfa6f8a2024760ef0e0eb29a332c9a820526e92f8b4fbcce6f00c7643234b140029"
                            }
                        ],
                        "signature": ""
                    },
                    "errorInfo": "",
                    "fromAddress": "0x6090a6e47849629b7245dfa1ca21d94cd15878ef",
                    "gasUsed": 339168,
                    "id": 7,
                    "methodDecoded": true,
                    "operation": "CREATE",
                    "output": "0x606060405236156100885763ffffffff60e060020a60003504166305b34410811461008a5780630b5ab3d5146100ac57806313af4035146100be5780632b20e397146100dc5780633fa4f24514610108578063674f220f1461012a5780638da5cb5b14610156578063b0c8097214610182578063bbe427711461019c578063faab9d39146101b1575bfe5b341561009257fe5b61009a6101cf565b60408051918252519081900360200190f35b34156100b457fe5b6100bc6101d5565b005b34156100c657fe5b6100bc600160a060020a036004351661021d565b005b34156100e457fe5b6100ec6102c3565b60408051600160a060020a039092168252519081900360200190f35b341561011057fe5b61009a6102d2565b60408051918252519081900360200190f35b341561013257fe5b6100ec6102d8565b60408051600160a060020a039092168252519081900360200190f35b341561015e57fe5b6100ec6102e7565b60408051600160a060020a039092168252519081900360200190f35b341561018a57fe5b6100bc60043560243515156102f6565b005b34156101a457fe5b6100bc600435610382565b005b34156101b957fe5b6100bc600160a060020a0360043516610431565b005b60015481565b60055460ff16156101e65760006000fd5b600254604051600160a060020a039182169130163180156108fc02916000818181858888f193505050501561021a5761deadff5b5b565b60005433600160a060020a039081169116146102395760006000fd5b600160a060020a038116151561024f5760006000fd5b600280546003805473ffffffffffffffffffffffffffffffffffffffff19908116600160a060020a03808516919091179092559084169116811790915560408051918252517fa2ea9883a321a3e97b8266c2b078bfeec6d50c711ed71f874a90d500ae2eaf369181900360200190a15b5b50565b600054600160a060020a031681565b60045481565b600354600160a060020a031681565b600254600160a060020a031681565b60005433600160a060020a039081169116146103125760006000fd5b60055460ff1615156103245760006000fd5b8160045410156103345760006000fd5b6004829055600254604051600160a060020a039182169130163184900380156108fc02916000818181858888f193505050501580156103705750805b1561037b5760006000fd5b5b5b5b5050565b60005433600160a060020a0390811691161461039e5760006000fd5b60055460ff1615156103b05760006000fd5b6005805460ff1916905561dead6108fc6103e883810330600160a060020a031631025b604051919004801590920291906000818181858888f1935050505015156103fa5760006000fd5b6040517fbb2ce2f51803bba16bc85282b47deeea9a5c6223eabea1077be696b3f265cf1390600090a16102bf6101d5565b5b5b5b50565b60005433600160a060020a0390811691161461044d5760006000fd5b6000805473ffffffffffffffffffffffffffffffffffffffff1916600160a060020a0383161790555b5b505600a165627a7a72305820fbfa6f8a2024760ef0e0eb29a332c9a820526e92f8b4fbcce6f00c7643234b140029",
                    "revert": false,
                    "revertMessage": "",
                    "selector": "",
                    "status": true,
                    "value": "0.01"
                },
                "nodeType": 0
            },
            "8": {
                "event": {
                    "contract": "0x6090a6e47849629b7245dfa1ca21d94cd15878ef",
                    "decodedLog": {
                        "name": "NewBid",
                        "params": [
                            {
                                "name": "hash",
                                "type": "bytes32",
                                "value": "0x391c90acf298ed19c6d31b01f4b21aab45a54a1608e0f848714cda5a56c77541"
                            },
                            {
                                "name": "bidder",
                                "type": "address",
                                "value": "0xd8c958f774de4b671e43f78fd0a04255e2291a13"
                            },
                            {
                                "name": "deposit",
                                "type": "uint256",
                                "value": "10,000,000,000,000,000"
                            }
                        ],
                        "signature": "NewBid(bytes32,address,uint256)"
                    },
                    "id": 8,
                    "logData": "0x000000000000000000000000000000000000000000000000002386f26fc10000",
                    "logDecoded": true,
                    "operation": "EVENT",
                    "revert": false,
                    "status": true,
                    "topics": [
                        "0xb556ff269c1b6714f432c36431e2041d28436a73b6c3f19c021827bbdc6bfc29",
                        "0x391c90acf298ed19c6d31b01f4b21aab45a54a1608e0f848714cda5a56c77541",
                        "0x000000000000000000000000d8c958f774de4b671e43f78fd0a04255e2291a13"
                    ]
                },
                "nodeType": 1
            }
        },
        "gasFlame": [
            {
                "children": [
                    {
                        "children": [
                            {
                                "children": [],
                                "depth": 0,
                                "name": "Initial Gas",
                                "value": 30296
                            },
                            {
                                "children": [
                                    {
                                        "children": [],
                                        "depth": 1,
                                        "name": "owner",
                                        "value": 432
                                    },
                                    {
                                        "children": [],
                                        "depth": 1,
                                        "name": "owner",
                                        "value": 432
                                    },
                                    {
                                        "children": [],
                                        "depth": 1,
                                        "name": "owner",
                                        "value": 432
                                    },
                                    {
                                        "children": [],
                                        "depth": 1,
                                        "name": "constructor",
                                        "value": 339168
                                    }
                                ],
                                "depth": 0,
                                "name": "Executed Gas",
                                "value": 488153
                            }
                        ],
                        "depth": -1,
                        "name": "Actual Gas Used",
                        "value": 518449
                    },
                    {
                        "children": [],
                        "depth": -1,
                        "name": "Refunded Gas",
                        "value": 0
                    }
                ],
                "depth": -2,
                "name": "Total Gas",
                "value": 518449
            }
        ],
        "isConfirmed": true,
        "mainTrace": [
            {
                "children": [
                    {
                        "children": [
                            {
                                "children": [],
                                "depth": 1,
                                "id": 1,
                                "order": 1
                            },
                            {
                                "children": [],
                                "depth": 1,
                                "id": 2,
                                "order": 2
                            },
                            {
                                "children": [],
                                "depth": 1,
                                "id": 3,
                                "order": 3
                            },
                            {
                                "children": [],
                                "depth": 1,
                                "id": 4,
                                "order": 4
                            },
                            {
                                "children": [],
                                "depth": 1,
                                "id": 5,
                                "order": 5
                            },
                            {
                                "children": [],
                                "depth": 1,
                                "id": 6,
                                "order": 6
                            },
                            {
                                "children": [],
                                "depth": 1,
                                "id": 7,
                                "order": 7
                            },
                            {
                                "children": [],
                                "depth": 1,
                                "id": 8,
                                "order": 8
                            }
                        ],
                        "depth": 0,
                        "id": 0,
                        "order": 0
                    }
                ],
                "depth": -1,
                "id": -1,
                "order": -1
            }
        ],
        "mainTraceNodeCount": 9,
        "parentIdMap": {
            "0": -1,
            "1": 0,
            "2": 0,
            "3": 0,
            "4": 0,
            "5": 0,
            "6": 0,
            "7": 0,
            "8": 0
        },
        "tidyTrace": [
            {
                "children": [
                    {
                        "children": [
                            {
                                "children": [],
                                "depth": 1,
                                "id": 1,
                                "order": 1
                            },
                            {
                                "children": [],
                                "depth": 1,
                                "id": 2,
                                "order": 2
                            },
                            {
                                "children": [],
                                "depth": 1,
                                "id": 3,
                                "order": 3
                            },
                            {
                                "children": [],
                                "depth": 1,
                                "id": 4,
                                "order": 4
                            },
                            {
                                "children": [],
                                "depth": 1,
                                "id": 5,
                                "order": 5
                            },
                            {
                                "children": [],
                                "depth": 1,
                                "id": 6,
                                "order": 6
                            },
                            {
                                "children": [],
                                "depth": 1,
                                "id": 7,
                                "order": 7
                            },
                            {
                                "children": [],
                                "depth": 1,
                                "id": 8,
                                "order": 8
                            }
                        ],
                        "depth": 0,
                        "id": 0,
                        "order": 0
                    }
                ],
                "depth": -1,
                "id": -1,
                "order": -1
            }
        ],
        "tidyTraceNodeCount": 9
    },
    "state_change": {
        "stateChanges": [
            {
                "address": "0x53e73e51e8e5a009a8b9fbcca24af202a8769dad",
                "erc": "",
                "slots": [
                    {
                        "current": "0x00000000000000000000000000000000000000000000000000000000596b2a9e",
                        "key": "0x0000000000000000000000000000000000000000000000000000000000000001",
                        "prev": "0x0000000000000000000000000000000000000000000000000000000000000000"
                    },
                    {
                        "current": "0x0000000000000000000000000000000000000000000000000000000000000001",
                        "key": "0x0000000000000000000000000000000000000000000000000000000000000005",
                        "prev": "0x0000000000000000000000000000000000000000000000000000000000000000"
                    },
                    {
                        "current": "0x000000000000000000000000000000000000000000000000002386f26fc10000",
                        "key": "0x0000000000000000000000000000000000000000000000000000000000000004",
                        "prev": "0x0000000000000000000000000000000000000000000000000000000000000000"
                    },
                    {
                        "current": "0x000000000000000000000000d8c958f774de4b671e43f78fd0a04255e2291a13",
                        "key": "0x0000000000000000000000000000000000000000000000000000000000000002",
                        "prev": "0x0000000000000000000000000000000000000000000000000000000000000000"
                    },
                    {
                        "current": "0x0000000000000000000000006090a6e47849629b7245dfa1ca21d94cd15878ef",
                        "key": "0x0000000000000000000000000000000000000000000000000000000000000000",
                        "prev": "0x0000000000000000000000000000000000000000000000000000000000000000"
                    }
                ],
                "storageVariables": []
            },
            {
                "address": "0x6090a6e47849629b7245dfa1ca21d94cd15878ef",
                "erc": "",
                "slots": [
                    {
                        "current": "0x000000000000000000000000000000000000000000000000000000005971c21e",
                        "key": "0x318ba9506de673f380cf57051dbfbb79c239c701f678d3774c54b2e1341fc7e6",
                        "prev": "0x00000000000000000000000000000000000000000000000000000000595b1187"
                    },
                    {
                        "current": "0x000000000000000000000000000000000000000000000000000000005971c21e",
                        "key": "0x7ff424293e76038704268ab03bda58326e7c4d63d0643c0151eb09675bfcbcbe",
                        "prev": "0x0000000000000000000000000000000000000000000000000000000000000000"
                    },
                    {
                        "current": "0x000000000000000000000000000000000000000000000000000000005971c21e",
                        "key": "0x15fe69ae23b62a6a175713e44f22173adee621632887e710bba131fd9e836366",
                        "prev": "0x0000000000000000000000000000000000000000000000000000000000000000"
                    },
                    {
                        "current": "0x00000000000000000000000053e73e51e8e5a009a8b9fbcca24af202a8769dad",
                        "key": "0xda3ce54a1fe3fbdac89f5ebd303c57c0e29b317ec1da6b4c7ac4a65d9b1c3469",
                        "prev": "0x0000000000000000000000000000000000000000000000000000000000000000"
                    }
                ],
                "storageVariables": []
            }
        ]
    }
}