{
    "balance_change": {
        "balanceChanges": [
            {
                "account": "0x0000000000000000000000000000000000000000",
                "assets": [
                    {
                        "address": "0x11801ca8a1873e16ec0f11758eb642e7ced2d8ec",
                        "amount": "1",
                        "iconUrl": "",
                        "isERC1155": false,
                        "isERC721": true,
                        "sign": false,
                        "tokenID": "9496",
                        "value": ""
                    },
                    {
                        "address": "0x11801ca8a1873e16ec0f11758eb642e7ced2d8ec",
                        "amount": "1",
                        "iconUrl": "",
                        "isERC1155": false,
                        "isERC721": true,
                        "sign": false,
                        "tokenID": "9501",
                        "value": ""
                    },
                    {
                        "address": "0x11801ca8a1873e16ec0f11758eb642e7ced2d8ec",
                        "amount": "1",
                        "iconUrl": "",
                        "isERC1155": false,
                        "isERC721": true,
                        "sign": false,
                        "tokenID": "9503",
                        "value": ""
                    },
                    {
                        "address": "0x11801ca8a1873e16ec0f11758eb642e7ced2d8ec",
                        "amount": "1",
                        "iconUrl": "",
                        "isERC1155": false,
                        "isERC721": true,
                        "sign": false,
                        "tokenID": "9509",
                        "value": ""
                    },
                    {
                        "address": "0x11801ca8a1873e16ec0f11758eb642e7ced2d8ec",
                        "amount": "1",
                        "iconUrl": "",
                        "isERC1155": false,
                        "isERC721": true,
                        "sign": false,
                        "tokenID": "9492",
                        "value": ""
                    },
                    {
                        "address": "0x11801ca8a1873e16ec0f11758eb642e7ced2d8ec",
                        "amount": "1",
                        "iconUrl": "",
                        "isERC1155": false,
                        "isERC721": true,
                        "sign": false,
                        "tokenID": "9494",
                        "value": ""
                    },
                    {
                        "address": "0x11801ca8a1873e16ec0f11758eb642e7ced2d8ec",
                        "amount": "1",
                        "iconUrl": "",
                        "isERC1155": false,
                        "isERC721": true,
                        "sign": false,
                        "tokenID": "9495",
                        "value": ""
                    },
                    {
                        "address": "0x11801ca8a1873e16ec0f11758eb642e7ced2d8ec",
                        "amount": "1",
                        "iconUrl": "",
                        "isERC1155": false,
                        "isERC721": true,
                        "sign": false,
                        "tokenID": "9498",
                        "value": ""
                    },
                    {
                        "address": "0x11801ca8a1873e16ec0f11758eb642e7ced2d8ec",
                        "amount": "1",
                        "iconUrl": "",
                        "isERC1155": false,
                        "isERC721": true,
                        "sign": false,
                        "tokenID": "9508",
                        "value": ""
                    },
                    {
                        "address": "0x11801ca8a1873e16ec0f11758eb642e7ced2d8ec",
                        "amount": "1",
                        "iconUrl": "",
                        "isERC1155": false,
                        "isERC721": true,
                        "sign": false,
                        "tokenID": "9491",
                        "value": ""
                    },
                    {
                        "address": "0x11801ca8a1873e16ec0f11758eb642e7ced2d8ec",
                        "amount": "1",
                        "iconUrl": "",
                        "isERC1155": false,
                        "isERC721": true,
                        "sign": false,
                        "tokenID": "9493",
                        "value": ""
                    },
                    {
                        "address": "0x11801ca8a1873e16ec0f11758eb642e7ced2d8ec",
                        "amount": "1",
                        "iconUrl": "",
                        "isERC1155": false,
                        "isERC721": true,
                        "sign": false,
                        "tokenID": "9499",
                        "value": ""
                    },
                    {
                        "address": "0x11801ca8a1873e16ec0f11758eb642e7ced2d8ec",
                        "amount": "1",
                        "iconUrl": "",
                        "isERC1155": false,
                        "isERC721": true,
                        "sign": false,
                        "tokenID": "9504",
                        "value": ""
                    },
                    {
                        "address": "0x11801ca8a1873e16ec0f11758eb642e7ced2d8ec",
                        "amount": "1",
                        "iconUrl": "",
                        "isERC1155": false,
                        "isERC721": true,
                        "sign": false,
                        "tokenID": "9505",
                        "value": ""
                    },
                    {
                        "address": "0x11801ca8a1873e16ec0f11758eb642e7ced2d8ec",
                        "amount": "1",
                        "iconUrl": "",
                        "isERC1155": false,
                        "isERC721": true,
                        "sign": false,
                        "tokenID": "9506",
                        "value": ""
                    },
                    {
                        "address": "0x11801ca8a1873e16ec0f11758eb642e7ced2d8ec",
                        "amount": "1",
                        "iconUrl": "",
                        "isERC1155": false,
                        "isERC721": true,
                        "sign": false,
                        "tokenID": "9507",
                        "value": ""
                    },
                    {
                        "address": "0x11801ca8a1873e16ec0f11758eb642e7ced2d8ec",
                        "amount": "1",
                        "iconUrl": "",
                        "isERC1155": false,
                        "isERC721": true,
                        "sign": false,
                        "tokenID": "9490",
                        "value": ""
                    },
                    {
                        "address": "0x11801ca8a1873e16ec0f11758eb642e7ced2d8ec",
                        "amount": "1",
                        "iconUrl": "",
                        "isERC1155": false,
                        "isERC721": true,
                        "sign": false,
                        "tokenID": "9497",
                        "value": ""
                    },
                    {
                        "address": "0x11801ca8a1873e16ec0f11758eb642e7ced2d8ec",
                        "amount": "1",
                        "iconUrl": "",
                        "isERC1155": false,
                        "isERC721": true,
                        "sign": false,
                        "tokenID": "9500",
                        "value": ""
                    },
                    {
                        "address": "0x11801ca8a1873e16ec0f11758eb642e7ced2d8ec",
                        "amount": "1",
                        "iconUrl": "",
                        "isERC1155": false,
                        "isERC721": true,
                        "sign": false,
                        "tokenID": "9502",
                        "value": ""
                    }
                ]
            },
            {
                "account": "0xbe4e0072267cbd32d47a028acced5ef1098ee145",
                "assets": [
                    {
                        "address": "0x11801ca8a1873e16ec0f11758eb642e7ced2d8ec",
                        "amount": "1",
                        "iconUrl": "",
                        "isERC1155": false,
                        "isERC721": true,
                        "sign": true,
                        "tokenID": "9493",
                        "value": ""
                    },
                    {
                        "address": "0x11801ca8a1873e16ec0f11758eb642e7ced2d8ec",
                        "amount": "1",
                        "iconUrl": "",
                        "isERC1155": false,
                        "isERC721": true,
                        "sign": true,
                        "tokenID": "9498",
                        "value": ""
                    },
                    {
                        "address": "0x11801ca8a1873e16ec0f11758eb642e7ced2d8ec",
                        "amount": "1",
                        "iconUrl": "",
                        "isERC1155": false,
                        "isERC721": true,
                        "sign": true,
                        "tokenID": "9500",
                        "value": ""
                    },
                    {
                        "address": "0x11801ca8a1873e16ec0f11758eb642e7ced2d8ec",
                        "amount": "1",
                        "iconUrl": "",
                        "isERC1155": false,
                        "isERC721": true,
                        "sign": true,
                        "tokenID": "9507",
                        "value": ""
                    },
                    {
                        "address": "0x11801ca8a1873e16ec0f11758eb642e7ced2d8ec",
                        "amount": "1",
                        "iconUrl": "",
                        "isERC1155": false,
                        "isERC721": true,
                        "sign": true,
                        "tokenID": "9509",
                        "value": ""
                    },
                    {
                        "address": "0x11801ca8a1873e16ec0f11758eb642e7ced2d8ec",
                        "amount": "1",
                        "iconUrl": "",
                        "isERC1155": false,
                        "isERC721": true,
                        "sign": true,
                        "tokenID": "9495",
                        "value": ""
                    },
                    {
                        "address": "0x11801ca8a1873e16ec0f11758eb642e7ced2d8ec",
                        "amount": "1",
                        "iconUrl": "",
                        "isERC1155": false,
                        "isERC721": true,
                        "sign": true,
                        "tokenID": "9501",
                        "value": ""
                    },
                    {
                        "address": "0x11801ca8a1873e16ec0f11758eb642e7ced2d8ec",
                        "amount": "1",
                        "iconUrl": "",
                        "isERC1155": false,
                        "isERC721": true,
                        "sign": true,
                        "tokenID": "9506",
                        "value": ""
                    },
                    {
                        "address": "0x11801ca8a1873e16ec0f11758eb642e7ced2d8ec",
                        "amount": "1",
                        "iconUrl": "",
                        "isERC1155": false,
                        "isERC721": true,
                        "sign": true,
                        "tokenID": "9491",
                        "value": ""
                    },
                    {
                        "address": "0x11801ca8a1873e16ec0f11758eb642e7ced2d8ec",
                        "amount": "1",
                        "iconUrl": "",
                        "isERC1155": false,
                        "isERC721": true,
                        "sign": true,
                        "tokenID": "9497",
                        "value": ""
                    },
                    {
                        "address": "0x11801ca8a1873e16ec0f11758eb642e7ced2d8ec",
                        "amount": "1",
                        "iconUrl": "",
                        "isERC1155": false,
                        "isERC721": true,
                        "sign": true,
                        "tokenID": "9499",
                        "value": ""
                    },
                    {
                        "address": "0x11801ca8a1873e16ec0f11758eb642e7ced2d8ec",
                        "amount": "1",
                        "iconUrl": "",
                        "isERC1155": false,
                        "isERC721": true,
                        "sign": true,
                        "tokenID": "9504",
                        "value": ""
                    },
                    {
                        "address": "0x11801ca8a1873e16ec0f11758eb642e7ced2d8ec",
                        "amount": "1",
                        "iconUrl": "",
                        "isERC1155": false,
                        "isERC721": true,
                        "sign": true,
                        "tokenID": "9503",
                        "value": ""
                    },
                    {
                        "address": "0x11801ca8a1873e16ec0f11758eb642e7ced2d8ec",
                        "amount": "1",
                        "iconUrl": "",
                        "isERC1155": false,
                        "isERC721": true,
                        "sign": true,
                        "tokenID": "9505",
                        "value": ""
                    },
                    {
                        "address": "0x11801ca8a1873e16ec0f11758eb642e7ced2d8ec",
                        "amount": "1",
                        "iconUrl": "",
                        "isERC1155": false,
                        "isERC721": true,
                        "sign": true,
                        "tokenID": "9508",
                        "value": ""
                    },
                    {
                        "address": "0x11801ca8a1873e16ec0f11758eb642e7ced2d8ec",
                        "amount": "1",
                        "iconUrl": "",
                        "isERC1155": false,
                        "isERC721": true,
                        "sign": true,
                        "tokenID": "9490",
                        "value": ""
                    },
                    {
                        "address": "0x11801ca8a1873e16ec0f11758eb642e7ced2d8ec",
                        "amount": "1",
                        "iconUrl": "",
                        "isERC1155": false,
                        "isERC721": true,
                        "sign": true,
                        "tokenID": "9492",
                        "value": ""
                    },
                    {
                        "address": "0x11801ca8a1873e16ec0f11758eb642e7ced2d8ec",
                        "amount": "1",
                        "iconUrl": "",
                        "isERC1155": false,
                        "isERC721": true,
                        "sign": true,
                        "tokenID": "9494",
                        "value": ""
                    },
                    {
                        "address": "0x11801ca8a1873e16ec0f11758eb642e7ced2d8ec",
                        "amount": "1",
                        "iconUrl": "",
                        "isERC1155": false,
                        "isERC721": true,
                        "sign": true,
                        "tokenID": "9496",
                        "value": ""
                    },
                    {
                        "address": "0x11801ca8a1873e16ec0f11758eb642e7ced2d8ec",
                        "amount": "1",
                        "iconUrl": "",
                        "isERC1155": false,
                        "isERC721": true,
                        "sign": true,
                        "tokenID": "9502",
                        "value": ""
                    }
                ]
            }
        ]
    },
    "profile": {
        "basic_info": {
            "baseFee": "15.490165143",
            "blockNumber": 15118418,
            "callData": "0xa0712d680000000000000000000000000000000000000000000000000000000000000014",
            "debugEnable": true,
            "errorInfo": "",
            "eventCount": 20,
            "feeRecipient": "0x2a20380dca5bc24d052acfbf79ba23e988ad0050",
            "formatValue": "0",
            "gasLimit": 142031,
            "gasPrice": "16.990165143",
            "gasUsed": 142031,
            "intTxnCount": 0,
            "internalRevert": false,
            "internalRevertMessage": "",
            "isContractCreation": false,
            "isFlashloan": false,
            "maxFee": "20.256730112",
            "nonce": 379,
            "overwritedBlockNumber": -1,
            "priorityFee": "1.5",
            "receiver": "0x11801ca8a1873e16ec0f11758eb642e7ced2d8ec",
            "revertMessage": "",
            "sender": "0xbe4e0072267cbd32d47a028acced5ef1098ee145",
            "simulationEnable": true,
            "sourceTxnHash": "0xdbb5c13be6ac4bcc596601212765d1aaf94e15200a039e173dde92a3b482917a",
            "status": true,
            "timestamp": "2022-07-11T01:35:13Z",
            "transactionFee": "0.002413130145425433",
            "txnHash": "0xdbb5c13be6ac4bcc596601212765d1aaf94e15200a039e173dde92a3b482917a",
            "txnIndex": 0,
            "type": 2,
            "value": "0"
        },
        "fund_flow": [
            {
                "amount": "1",
                "from": "0x0000000000000000000000000000000000000000",
                "id": 1,
                "isERC1155": false,
                "isERC721": true,
                "isReverted": false,
                "order": 1,
                "to": "0xbe4e0072267cbd32d47a028acced5ef1098ee145",
                "token": "0x11801ca8a1873e16ec0f11758eb642e7ced2d8ec",
                "tokenID": "9490"
            },
            {
                "amount": "1",
                "from": "0x0000000000000000000000000000000000000000",
                "id": 2,
                "isERC1155": false,
                "isERC721": true,
                "isReverted": false,
                "order": 2,
                "to": "0xbe4e0072267cbd32d47a028acced5ef1098ee145",
                "token": "0x11801ca8a1873e16ec0f11758eb642e7ced2d8ec",
                "tokenID": "9491"
            },
            {
                "amount": "1",
                "from": "0x0000000000000000000000000000000000000000",
                "id": 3,
                "isERC1155": false,
                "isERC721": true,
                "isReverted": false,
                "order": 3,
                "to": "0xbe4e0072267cbd32d47a028acced5ef1098ee145",
                "token": "0x11801ca8a1873e16ec0f11758eb642e7ced2d8ec",
                "tokenID": "9492"
            },
            {
                "amount": "1",
                "from": "0x0000000000000000000000000000000000000000",
                "id": 4,
                "isERC1155": false,
                "isERC721": true,
                "isReverted": false,
                "order": 4,
                "to": "0xbe4e0072267cbd32d47a028acced5ef1098ee145",
                "token": "0x11801ca8a1873e16ec0f11758eb642e7ced2d8ec",
                "tokenID": "9493"
            },
            {
                "amount": "1",
                "from": "0x0000000000000000000000000000000000000000",
                "id": 5,
                "isERC1155": false,
                "isERC721": true,
                "isReverted": false,
                "order": 5,
                "to": "0xbe4e0072267cbd32d47a028acced5ef1098ee145",
                "token": "0x11801ca8a1873e16ec0f11758eb642e7ced2d8ec",
                "tokenID": "9494"
            },
            {
                "amount": "1",
                "from": "0x0000000000000000000000000000000000000000",
                "id": 6,
                "isERC1155": false,
                "isERC721": true,
                "isReverted": false,
                "order": 6,
                "to": "0xbe4e0072267cbd32d47a028acced5ef1098ee145",
                "token": "0x11801ca8a1873e16ec0f11758eb642e7ced2d8ec",
                "tokenID": "9495"
            },
            {
                "amount": "1",
                "from": "0x0000000000000000000000000000000000000000",
                "id": 7,
                "isERC1155": false,
                "isERC721": true,
                "isReverted": false,
                "order": 7,
                "to": "0xbe4e0072267cbd32d47a028acced5ef1098ee145",
                "token": "0x11801ca8a1873e16ec0f11758eb642e7ced2d8ec",
                "tokenID": "9496"
            },
            {
                "amount": "1",
                "from": "0x0000000000000000000000000000000000000000",
                "id": 8,
                "isERC1155": false,
                "isERC721": true,
                "isReverted": false,
                "order": 8,
                "to": "0xbe4e0072267cbd32d47a028acced5ef1098ee145",
                "token": "0x11801ca8a1873e16ec0f11758eb642e7ced2d8ec",
                "tokenID": "9497"
            },
            {
                "amount": "1",
                "from": "0x0000000000000000000000000000000000000000",
                "id": 9,
                "isERC1155": false,
                "isERC721": true,
                "isReverted": false,
                "order": 9,
                "to": "0xbe4e0072267cbd32d47a028acced5ef1098ee145",
                "token": "0x11801ca8a1873e16ec0f11758eb642e7ced2d8ec",
                "tokenID": "9498"
            },
            {
                "amount": "1",
                "from": "0x0000000000000000000000000000000000000000",
                "id": 10,
                "isERC1155": false,
                "isERC721": true,
                "isReverted": false,
                "order": 10,
                "to": "0xbe4e0072267cbd32d47a028acced5ef1098ee145",
                "token": "0x11801ca8a1873e16ec0f11758eb642e7ced2d8ec",
                "tokenID": "9499"
            },
            {
                "amount": "1",
                "from": "0x0000000000000000000000000000000000000000",
                "id": 11,
                "isERC1155": false,
                "isERC721": true,
                "isReverted": false,
                "order": 11,
                "to": "0xbe4e0072267cbd32d47a028acced5ef1098ee145",
                "token": "0x11801ca8a1873e16ec0f11758eb642e7ced2d8ec",
                "tokenID": "9500"
            },
            {
                "amount": "1",
                "from": "0x0000000000000000000000000000000000000000",
                "id": 12,
                "isERC1155": false,
                "isERC721": true,
                "isReverted": false,
                "order": 12,
                "to": "0xbe4e0072267cbd32d47a028acced5ef1098ee145",
                "token": "0x11801ca8a1873e16ec0f11758eb642e7ced2d8ec",
                "tokenID": "9501"
            },
            {
                "amount": "1",
                "from": "0x0000000000000000000000000000000000000000",
                "id": 13,
                "isERC1155": false,
                "isERC721": true,
                "isReverted": false,
                "order": 13,
                "to": "0xbe4e0072267cbd32d47a028acced5ef1098ee145",
                "token": "0x11801ca8a1873e16ec0f11758eb642e7ced2d8ec",
                "tokenID": "9502"
            },
            {
                "amount": "1",
                "from": "0x0000000000000000000000000000000000000000",
                "id": 14,
                "isERC1155": false,
                "isERC721": true,
                "isReverted": false,
                "order": 14,
                "to": "0xbe4e0072267cbd32d47a028acced5ef1098ee145",
                "token": "0x11801ca8a1873e16ec0f11758eb642e7ced2d8ec",
                "tokenID": "9503"
            },
            {
                "amount": "1",
                "from": "0x0000000000000000000000000000000000000000",
                "id": 15,
                "isERC1155": false,
                "isERC721": true,
                "isReverted": false,
                "order": 15,
                "to": "0xbe4e0072267cbd32d47a028acced5ef1098ee145",
                "token": "0x11801ca8a1873e16ec0f11758eb642e7ced2d8ec",
                "tokenID": "9504"
            },
            {
                "amount": "1",
                "from": "0x0000000000000000000000000000000000000000",
                "id": 16,
                "isERC1155": false,
                "isERC721": true,
                "isReverted": false,
                "order": 16,
                "to": "0xbe4e0072267cbd32d47a028acced5ef1098ee145",
                "token": "0x11801ca8a1873e16ec0f11758eb642e7ced2d8ec",
                "tokenID": "9505"
            },
            {
                "amount": "1",
                "from": "0x0000000000000000000000000000000000000000",
                "id": 17,
                "isERC1155": false,
                "isERC721": true,
                "isReverted": false,
                "order": 17,
                "to": "0xbe4e0072267cbd32d47a028acced5ef1098ee145",
                "token": "0x11801ca8a1873e16ec0f11758eb642e7ced2d8ec",
                "tokenID": "9506"
            },
            {
                "amount": "1",
                "from": "0x0000000000000000000000000000000000000000",
                "id": 18,
                "isERC1155": false,
                "isERC721": true,
                "isReverted": false,
                "order": 18,
                "to": "0xbe4e0072267cbd32d47a028acced5ef1098ee145",
                "token": "0x11801ca8a1873e16ec0f11758eb642e7ced2d8ec",
                "tokenID": "9507"
            },
            {
                "amount": "1",
                "from": "0x0000000000000000000000000000000000000000",
                "id": 19,
                "isERC1155": false,
                "isERC721": true,
                "isReverted": false,
                "order": 19,
                "to": "0xbe4e0072267cbd32d47a028acced5ef1098ee145",
                "token": "0x11801ca8a1873e16ec0f11758eb642e7ced2d8ec",
                "tokenID": "9508"
            },
            {
                "amount": "1",
                "from": "0x0000000000000000000000000000000000000000",
                "id": 20,
                "isERC1155": false,
                "isERC721": true,
                "isReverted": false,
                "order": 20,
                "to": "0xbe4e0072267cbd32d47a028acced5ef1098ee145",
                "token": "0x11801ca8a1873e16ec0f11758eb642e7ced2d8ec",
                "tokenID": "9509"
            }
        ],
        "token_infos": [
            {
                "address": "0xc02aaa39b223fe8d0a0e5c4f27ead9083c756cc2",
                "decimals": 18
            },
            {
                "address": "0xeeeeeeeeeeeeeeeeeeeeeeeeeeeeeeeeeeeeeeee",
                "decimals": 18
            }
        ]
    },
    "address_label": {
        "labels": [
            {
                "address": "0xeeeeeeeeeeeeeeeeeeeeeeeeeeeeeeeeeeeeeeee",
                "label": "Ether"
            },
            {
                "address": "0x11801ca8a1873e16ec0f11758eb642e7ced2d8ec",
                "label": "Kicktoons"
            },
            {
                "address": "0x0000000000000000000000000000000000000001",
                "label": "Precompiled"
            },
            {
                "address": "0x0000000000000000000000000000000000000002",
                "label": "Precompiled"
            },
            {
                "address": "0x0000000000000000000000000000000000000003",
                "label": "Precompiled"
            },
            {
                "address": "0x0000000000000000000000000000000000000004",
                "label": "Precompiled"
            }
        ]
    },
    "trace": {
        "accountLabels": null,
        "dataMap": {
            "-1": {
                "invocation": {
                    "address": "0xbe4e0072267cbd32d47a028acced5ef1098ee145",
                    "callData": "",
                    "decodedMethod": null,
                    "errorInfo": "",
                    "fromAddress": "",
                    "gasUsed": 0,
                    "id": -1,
                    "methodDecoded": false,
                    "operation": "",
                    "output": "",
                    "revert": false,
                    "revertMessage": "",
                    "selector": "",
                    "status": false,
                    "value": ""
                },
                "nodeType": 0
            },
            "0": {
                "invocation": {
                    "address": "0x11801ca8a1873e16ec0f11758eb642e7ced2d8ec",
                    "callData": "0x0000000000000000000000000000000000000000000000000000000000000014",
                    "decodedMethod": {
                        "callParams": [
                            {
                                "name": "qty",
                                "type": "uint256",
                                "value": "20"
                            }
                        ],
                        "constructorArguments": "",
                        "name": "mint",
                        "returnParams": [],
                        "signature": "mint(uint256)"
                    },
                    "errorInfo": "",
                    "fromAddress": "0xbe4e0072267cbd32d47a028acced5ef1098ee145",
                    "gasUsed": 142031,
                    "id": 0,
                    "methodDecoded": true,
                    "operation": "CALL",
                    "output": "",
                    "revert": false,
                    "revertMessage": "",
                    "selector": "0xa0712d68",
                    "status": true,
                    "value": "0"
                },
                "nodeType": 0
            },
            "1": {
                "event": {
                    "contract": "0x11801ca8a1873e16ec0f11758eb642e7ced2d8ec",
                    "decodedLog": {
                        "name": "Transfer",
                        "params": [
                            {
                                "name": "from",
                                "type": "address",
                                "value": "0x0000000000000000000000000000000000000000"
                            },
                            {
                                "name": "to",
                                "type": "address",
                                "value": "0xbe4e0072267cbd32d47a028acced5ef1098ee145"
                            },
                            {
                                "decimalAvailable": true,
                                "name": "tokenId",
                                "type": "uint256",
                                "value": "9,490"
                            }
                        ],
                        "signature": "Transfer(address,address,uint256)"
                    },
                    "id": 1,
                    "logData": "0x",
                    "logDecoded": true,
                    "operation": "EVENT",
                    "revert": false,
                    "status": true,
                    "topics": [
                        "0xddf252ad1be2c89b69c2b068fc378daa952ba7f163c4a11628f55a4df523b3ef",
                        "0x0000000000000000000000000000000000000000000000000000000000000000",
                        "0x000000000000000000000000be4e0072267cbd32d47a028acced5ef1098ee145",
                        "0x0000000000000000000000000000000000000000000000000000000000002512"
                    ]
                },
                "nodeType": 1
            },
            "10": {
                "event": {
                    "contract": "0x11801ca8a1873e16ec0f11758eb642e7ced2d8ec",
                    "decodedLog": {
                        "name": "Transfer",
                        "params": [
                            {
                                "name": "from",
                                "type": "address",
                                "value": "0x0000000000000000000000000000000000000000"
                            },
                            {
                                "name": "to",
                                "type": "address",
                                "value": "0xbe4e0072267cbd32d47a028acced5ef1098ee145"
                            },
                            {
                                "decimalAvailable": true,
                                "name": "tokenId",
                                "type": "uint256",
                                "value": "9,499"
                            }
                        ],
                        "signature": "Transfer(address,address,uint256)"
                    },
                    "id": 10,
                    "logData": "0x",
                    "logDecoded": true,
                    "operation": "EVENT",
                    "revert": false,
                    "status": true,
                    "topics": [
                        "0xddf252ad1be2c89b69c2b068fc378daa952ba7f163c4a11628f55a4df523b3ef",
                        "0x0000000000000000000000000000000000000000000000000000000000000000",
                        "0x000000000000000000000000be4e0072267cbd32d47a028acced5ef1098ee145",
                        "0x000000000000000000000000000000000000000000000000000000000000251b"
                    ]
                },
                "nodeType": 1
            },
            "11": {
                "event": {
                    "contract": "0x11801ca8a1873e16ec0f11758eb642e7ced2d8ec",
                    "decodedLog": {
                        "name": "Transfer",
                        "params": [
                            {
                                "name": "from",
                                "type": "address",
                                "value": "0x0000000000000000000000000000000000000000"
                            },
                            {
                                "name": "to",
                                "type": "address",
                                "value": "0xbe4e0072267cbd32d47a028acced5ef1098ee145"
                            },
                            {
                                "decimalAvailable": true,
                                "name": "tokenId",
                                "type": "uint256",
                                "value": "9,500"
                            }
                        ],
                        "signature": "Transfer(address,address,uint256)"
                    },
                    "id": 11,
                    "logData": "0x",
                    "logDecoded": true,
                    "operation": "EVENT",
                    "revert": false,
                    "status": true,
                    "topics": [
                        "0xddf252ad1be2c89b69c2b068fc378daa952ba7f163c4a11628f55a4df523b3ef",
                        "0x0000000000000000000000000000000000000000000000000000000000000000",
                        "0x000000000000000000000000be4e0072267cbd32d47a028acced5ef1098ee145",
                        "0x000000000000000000000000000000000000000000000000000000000000251c"
                    ]
                },
                "nodeType": 1
            },
            "12": {
                "event": {
                    "contract": "0x11801ca8a1873e16ec0f11758eb642e7ced2d8ec",
                    "decodedLog": {
                        "name": "Transfer",
                        "params": [
                            {
                                "name": "from",
                                "type": "address",
                                "value": "0x0000000000000000000000000000000000000000"
                            },
                            {
                                "name": "to",
                                "type": "address",
                                "value": "0xbe4e0072267cbd32d47a028acced5ef1098ee145"
                            },
                            {
                                "decimalAvailable": true,
                                "name": "tokenId",
                                "type": "uint256",
                                "value": "9,501"
                            }
                        ],
                        "signature": "Transfer(address,address,uint256)"
                    },
                    "id": 12,
                    "logData": "0x",
                    "logDecoded": true,
                    "operation": "EVENT",
                    "revert": false,
                    "status": true,
                    "topics": [
                        "0xddf252ad1be2c89b69c2b068fc378daa952ba7f163c4a11628f55a4df523b3ef",
                        "0x0000000000000000000000000000000000000000000000000000000000000000",
                        "0x000000000000000000000000be4e0072267cbd32d47a028acced5ef1098ee145",
                        "0x000000000000000000000000000000000000000000000000000000000000251d"
                    ]
                },
                "nodeType": 1
            },
            "13": {
                "event": {
                    "contract": "0x11801ca8a1873e16ec0f11758eb642e7ced2d8ec",
                    "decodedLog": {
                        "name": "Transfer",
                        "params": [
                            {
                                "name": "from",
                                "type": "address",
                                "value": "0x0000000000000000000000000000000000000000"
                            },
                            {
                                "name": "to",
                                "type": "address",
                                "value": "0xbe4e0072267cbd32d47a028acced5ef1098ee145"
                            },
                            {
                                "decimalAvailable": true,
                                "name": "tokenId",
                                "type": "uint256",
                                "value": "9,502"
                            }
                        ],
                        "signature": "Transfer(address,address,uint256)"
                    },
                    "id": 13,
                    "logData": "0x",
                    "logDecoded": true,
                    "operation": "EVENT",
                    "revert": false,
                    "status": true,
                    "topics": [
                        "0xddf252ad1be2c89b69c2b068fc378daa952ba7f163c4a11628f55a4df523b3ef",
                        "0x0000000000000000000000000000000000000000000000000000000000000000",
                        "0x000000000000000000000000be4e0072267cbd32d47a028acced5ef1098ee145",
                        "0x000000000000000000000000000000000000000000000000000000000000251e"
                    ]
                },
                "nodeType": 1
            },
            "14": {
                "event": {
                    "contract": "0x11801ca8a1873e16ec0f11758eb642e7ced2d8ec",
                    "decodedLog": {
                        "name": "Transfer",
                        "params": [
                            {
                                "name": "from",
                                "type": "address",
                                "value": "0x0000000000000000000000000000000000000000"
                            },
                            {
                                "name": "to",
                                "type": "address",
                                "value": "0xbe4e0072267cbd32d47a028acced5ef1098ee145"
                            },
                            {
                                "decimalAvailable": true,
                                "name": "tokenId",
                                "type": "uint256",
                                "value": "9,503"
                            }
                        ],
                        "signature": "Transfer(address,address,uint256)"
                    },
                    "id": 14,
                    "logData": "0x",
                    "logDecoded": true,
                    "operation": "EVENT",
                    "revert": false,
                    "status": true,
                    "topics": [
                        "0xddf252ad1be2c89b69c2b068fc378daa952ba7f163c4a11628f55a4df523b3ef",
                        "0x0000000000000000000000000000000000000000000000000000000000000000",
                        "0x000000000000000000000000be4e0072267cbd32d47a028acced5ef1098ee145",
                        "0x000000000000000000000000000000000000000000000000000000000000251f"
                    ]
                },
                "nodeType": 1
            },
            "15": {
                "event": {
                    "contract": "0x11801ca8a1873e16ec0f11758eb642e7ced2d8ec",
                    "decodedLog": {
                        "name": "Transfer",
                        "params": [
                            {
                                "name": "from",
                                "type": "address",
                                "value": "0x0000000000000000000000000000000000000000"
                            },
                            {
                                "name": "to",
                                "type": "address",
                                "value": "0xbe4e0072267cbd32d47a028acced5ef1098ee145"
                            },
                            {
                                "decimalAvailable": true,
                                "name": "tokenId",
                                "type": "uint256",
                                "value": "9,504"
                            }
                        ],
                        "signature": "Transfer(address,address,uint256)"
                    },
                    "id": 15,
                    "logData": "0x",
                    "logDecoded": true,
                    "operation": "EVENT",
                    "revert": false,
                    "status": true,
                    "topics": [
                        "0xddf252ad1be2c89b69c2b068fc378daa952ba7f163c4a11628f55a4df523b3ef",
                        "0x0000000000000000000000000000000000000000000000000000000000000000",
                        "0x000000000000000000000000be4e0072267cbd32d47a028acced5ef1098ee145",
                        "0x0000000000000000000000000000000000000000000000000000000000002520"
                    ]
                },
                "nodeType": 1
            },
            "16": {
                "event": {
                    "contract": "0x11801ca8a1873e16ec0f11758eb642e7ced2d8ec",
                    "decodedLog": {
                        "name": "Transfer",
                        "params": [
                            {
                                "name": "from",
                                "type": "address",
                                "value": "0x0000000000000000000000000000000000000000"
                            },
                            {
                                "name": "to",
                                "type": "address",
                                "value": "0xbe4e0072267cbd32d47a028acced5ef1098ee145"
                            },
                            {
                                "decimalAvailable": true,
                                "name": "tokenId",
                                "type": "uint256",
                                "value": "9,505"
                            }
                        ],
                        "signature": "Transfer(address,address,uint256)"
                    },
                    "id": 16,
                    "logData": "0x",
                    "logDecoded": true,
                    "operation": "EVENT",
                    "revert": false,
                    "status": true,
                    "topics": [
                        "0xddf252ad1be2c89b69c2b068fc378daa952ba7f163c4a11628f55a4df523b3ef",
                        "0x0000000000000000000000000000000000000000000000000000000000000000",
                        "0x000000000000000000000000be4e0072267cbd32d47a028acced5ef1098ee145",
                        "0x0000000000000000000000000000000000000000000000000000000000002521"
                    ]
                },
                "nodeType": 1
            },
            "17": {
                "event": {
                    "contract": "0x11801ca8a1873e16ec0f11758eb642e7ced2d8ec",
                    "decodedLog": {
                        "name": "Transfer",
                        "params": [
                            {
                                "name": "from",
                                "type": "address",
                                "value": "0x0000000000000000000000000000000000000000"
                            },
                            {
                                "name": "to",
                                "type": "address",
                                "value": "0xbe4e0072267cbd32d47a028acced5ef1098ee145"
                            },
                            {
                                "decimalAvailable": true,
                                "name": "tokenId",
                                "type": "uint256",
                                "value": "9,506"
                            }
                        ],
                        "signature": "Transfer(address,address,uint256)"
                    },
                    "id": 17,
                    "logData": "0x",
                    "logDecoded": true,
                    "operation": "EVENT",
                    "revert": false,
                    "status": true,
                    "topics": [
                        "0xddf252ad1be2c89b69c2b068fc378daa952ba7f163c4a11628f55a4df523b3ef",
                        "0x0000000000000000000000000000000000000000000000000000000000000000",
                        "0x000000000000000000000000be4e0072267cbd32d47a028acced5ef1098ee145",
                        "0x0000000000000000000000000000000000000000000000000000000000002522"
                    ]
                },
                "nodeType": 1
            },
            "18": {
                "event": {
                    "contract": "0x11801ca8a1873e16ec0f11758eb642e7ced2d8ec",
                    "decodedLog": {
                        "name": "Transfer",
                        "params": [
                            {
                                "name": "from",
                                "type": "address",
                                "value": "0x0000000000000000000000000000000000000000"
                            },
                            {
                                "name": "to",
                                "type": "address",
                                "value": "0xbe4e0072267cbd32d47a028acced5ef1098ee145"
                            },
                            {
                                "decimalAvailable": true,
                                "name": "tokenId",
                                "type": "uint256",
                                "value": "9,507"
                            }
                        ],
                        "signature": "Transfer(address,address,uint256)"
                    },
                    "id": 18,
                    "logData": "0x",
                    "logDecoded": true,
                    "operation": "EVENT",
                    "revert": false,
                    "status": true,
                    "topics": [
                        "0xddf252ad1be2c89b69c2b068fc378daa952ba7f163c4a11628f55a4df523b3ef",
                        "0x0000000000000000000000000000000000000000000000000000000000000000",
                        "0x000000000000000000000000be4e0072267cbd32d47a028acced5ef1098ee145",
                        "0x0000000000000000000000000000000000000000000000000000000000002523"
                    ]
                },
                "nodeType": 1
            },
            "19": {
                "event": {
                    "contract": "0x11801ca8a1873e16ec0f11758eb642e7ced2d8ec",
                    "decodedLog": {
                        "name": "Transfer",
                        "params": [
                            {
                                "name": "from",
                                "type": "address",
                                "value": "0x0000000000000000000000000000000000000000"
                            },
                            {
                                "name": "to",
                                "type": "address",
                                "value": "0xbe4e0072267cbd32d47a028acced5ef1098ee145"
                            },
                            {
                                "decimalAvailable": true,
                                "name": "tokenId",
                                "type": "uint256",
                                "value": "9,508"
                            }
                        ],
                        "signature": "Transfer(address,address,uint256)"
                    },
                    "id": 19,
                    "logData": "0x",
                    "logDecoded": true,
                    "operation": "EVENT",
                    "revert": false,
                    "status": true,
                    "topics": [
                        "0xddf252ad1be2c89b69c2b068fc378daa952ba7f163c4a11628f55a4df523b3ef",
                        "0x0000000000000000000000000000000000000000000000000000000000000000",
                        "0x000000000000000000000000be4e0072267cbd32d47a028acced5ef1098ee145",
                        "0x0000000000000000000000000000000000000000000000000000000000002524"
                    ]
                },
                "nodeType": 1
            },
            "2": {
                "event": {
                    "contract": "0x11801ca8a1873e16ec0f11758eb642e7ced2d8ec",
                    "decodedLog": {
                        "name": "Transfer",
                        "params": [
                            {
                                "name": "from",
                                "type": "address",
                                "value": "0x0000000000000000000000000000000000000000"
                            },
                            {
                                "name": "to",
                                "type": "address",
                                "value": "0xbe4e0072267cbd32d47a028acced5ef1098ee145"
                            },
                            {
                                "decimalAvailable": true,
                                "name": "tokenId",
                                "type": "uint256",
                                "value": "9,491"
                            }
                        ],
                        "signature": "Transfer(address,address,uint256)"
                    },
                    "id": 2,
                    "logData": "0x",
                    "logDecoded": true,
                    "operation": "EVENT",
                    "revert": false,
                    "status": true,
                    "topics": [
                        "0xddf252ad1be2c89b69c2b068fc378daa952ba7f163c4a11628f55a4df523b3ef",
                        "0x0000000000000000000000000000000000000000000000000000000000000000",
                        "0x000000000000000000000000be4e0072267cbd32d47a028acced5ef1098ee145",
                        "0x0000000000000000000000000000000000000000000000000000000000002513"
                    ]
                },
                "nodeType": 1
            },
            "20": {
                "event": {
                    "contract": "0x11801ca8a1873e16ec0f11758eb642e7ced2d8ec",
                    "decodedLog": {
                        "name": "Transfer",
                        "params": [
                            {
                                "name": "from",
                                "type": "address",
                                "value": "0x0000000000000000000000000000000000000000"
                            },
                            {
                                "name": "to",
                                "type": "address",
                                "value": "0xbe4e0072267cbd32d47a028acced5ef1098ee145"
                            },
                            {
                                "decimalAvailable": true,
                                "name": "tokenId",
                                "type": "uint256",
                                "value": "9,509"
                            }
                        ],
                        "signature": "Transfer(address,address,uint256)"
                    },
                    "id": 20,
                    "logData": "0x",
                    "logDecoded": true,
                    "operation": "EVENT",
                    "revert": false,
                    "status": true,
                    "topics": [
                        "0xddf252ad1be2c89b69c2b068fc378daa952ba7f163c4a11628f55a4df523b3ef",
                        "0x0000000000000000000000000000000000000000000000000000000000000000",
                        "0x000000000000000000000000be4e0072267cbd32d47a028acced5ef1098ee145",
                        "0x0000000000000000000000000000000000000000000000000000000000002525"
                    ]
                },
                "nodeType": 1
            },
            "3": {
                "event": {
                    "contract": "0x11801ca8a1873e16ec0f11758eb642e7ced2d8ec",
                    "decodedLog": {
                        "name": "Transfer",
                        "params": [
                            {
                                "name": "from",
                                "type": "address",
                                "value": "0x0000000000000000000000000000000000000000"
                            },
                            {
                                "name": "to",
                                "type": "address",
                                "value": "0xbe4e0072267cbd32d47a028acced5ef1098ee145"
                            },
                            {
                                "decimalAvailable": true,
                                "name": "tokenId",
                                "type": "uint256",
                                "value": "9,492"
                            }
                        ],
                        "signature": "Transfer(address,address,uint256)"
                    },
                    "id": 3,
                    "logData": "0x",
                    "logDecoded": true,
                    "operation": "EVENT",
                    "revert": false,
                    "status": true,
                    "topics": [
                        "0xddf252ad1be2c89b69c2b068fc378daa952ba7f163c4a11628f55a4df523b3ef",
                        "0x0000000000000000000000000000000000000000000000000000000000000000",
                        "0x000000000000000000000000be4e0072267cbd32d47a028acced5ef1098ee145",
                        "0x0000000000000000000000000000000000000000000000000000000000002514"
                    ]
                },
                "nodeType": 1
            },
            "4": {
                "event": {
                    "contract": "0x11801ca8a1873e16ec0f11758eb642e7ced2d8ec",
                    "decodedLog": {
                        "name": "Transfer",
                        "params": [
                            {
                                "name": "from",
                                "type": "address",
                                "value": "0x0000000000000000000000000000000000000000"
                            },
                            {
                                "name": "to",
                                "type": "address",
                                "value": "0xbe4e0072267cbd32d47a028acced5ef1098ee145"
                            },
                            {
                                "decimalAvailable": true,
                                "name": "tokenId",
                                "type": "uint256",
                                "value": "9,493"
                            }
                        ],
                        "signature": "Transfer(address,address,uint256)"
                    },
                    "id": 4,
                    "logData": "0x",
                    "logDecoded": true,
                    "operation": "EVENT",
                    "revert": false,
                    "status": true,
                    "topics": [
                        "0xddf252ad1be2c89b69c2b068fc378daa952ba7f163c4a11628f55a4df523b3ef",
                        "0x0000000000000000000000000000000000000000000000000000000000000000",
                        "0x000000000000000000000000be4e0072267cbd32d47a028acced5ef1098ee145",
                        "0x0000000000000000000000000000000000000000000000000000000000002515"
                    ]
                },
                "nodeType": 1
            },
            "5": {
                "event": {
                    "contract": "0x11801ca8a1873e16ec0f11758eb642e7ced2d8ec",
                    "decodedLog": {
                        "name": "Transfer",
                        "params": [
                            {
                                "name": "from",
                                "type": "address",
                                "value": "0x0000000000000000000000000000000000000000"
                            },
                            {
                                "name": "to",
                                "type": "address",
                                "value": "0xbe4e0072267cbd32d47a028acced5ef1098ee145"
                            },
                            {
                                "decimalAvailable": true,
                                "name": "tokenId",
                                "type": "uint256",
                                "value": "9,494"
                            }
                        ],
                        "signature": "Transfer(address,address,uint256)"
                    },
                    "id": 5,
                    "logData": "0x",
                    "logDecoded": true,
                    "operation": "EVENT",
                    "revert": false,
                    "status": true,
                    "topics": [
                        "0xddf252ad1be2c89b69c2b068fc378daa952ba7f163c4a11628f55a4df523b3ef",
                        "0x0000000000000000000000000000000000000000000000000000000000000000",
                        "0x000000000000000000000000be4e0072267cbd32d47a028acced5ef1098ee145",
                        "0x0000000000000000000000000000000000000000000000000000000000002516"
                    ]
                },
                "nodeType": 1
            },
            "6": {
                "event": {
                    "contract": "0x11801ca8a1873e16ec0f11758eb642e7ced2d8ec",
                    "decodedLog": {
                        "name": "Transfer",
                        "params": [
                            {
                                "name": "from",
                                "type": "address",
                                "value": "0x0000000000000000000000000000000000000000"
                            },
                            {
                                "name": "to",
                                "type": "address",
                                "value": "0xbe4e0072267cbd32d47a028acced5ef1098ee145"
                            },
                            {
                                "decimalAvailable": true,
                                "name": "tokenId",
                                "type": "uint256",
                                "value": "9,495"
                            }
                        ],
                        "signature": "Transfer(address,address,uint256)"
                    },
                    "id": 6,
                    "logData": "0x",
                    "logDecoded": true,
                    "operation": "EVENT",
                    "revert": false,
                    "status": true,
                    "topics": [
                        "0xddf252ad1be2c89b69c2b068fc378daa952ba7f163c4a11628f55a4df523b3ef",
                        "0x0000000000000000000000000000000000000000000000000000000000000000",
                        "0x000000000000000000000000be4e0072267cbd32d47a028acced5ef1098ee145",
                        "0x0000000000000000000000000000000000000000000000000000000000002517"
                    ]
                },
                "nodeType": 1
            },
            "7": {
                "event": {
                    "contract": "0x11801ca8a1873e16ec0f11758eb642e7ced2d8ec",
                    "decodedLog": {
                        "name": "Transfer",
                        "params": [
                            {
                                "name": "from",
                                "type": "address",
                                "value": "0x0000000000000000000000000000000000000000"
                            },
                            {
                                "name": "to",
                                "type": "address",
                                "value": "0xbe4e0072267cbd32d47a028acced5ef1098ee145"
                            },
                            {
                                "decimalAvailable": true,
                                "name": "tokenId",
                                "type": "uint256",
                                "value": "9,496"
                            }
                        ],
                        "signature": "Transfer(address,address,uint256)"
                    },
                    "id": 7,
                    "logData": "0x",
                    "logDecoded": true,
                    "operation": "EVENT",
                    "revert": false,
                    "status": true,
                    "topics": [
                        "0xddf252ad1be2c89b69c2b068fc378daa952ba7f163c4a11628f55a4df523b3ef",
                        "0x0000000000000000000000000000000000000000000000000000000000000000",
                        "0x000000000000000000000000be4e0072267cbd32d47a028acced5ef1098ee145",
                        "0x0000000000000000000000000000000000000000000000000000000000002518"
                    ]
                },
                "nodeType": 1
            },
            "8": {
                "event": {
                    "contract": "0x11801ca8a1873e16ec0f11758eb642e7ced2d8ec",
                    "decodedLog": {
                        "name": "Transfer",
                        "params": [
                            {
                                "name": "from",
                                "type": "address",
                                "value": "0x0000000000000000000000000000000000000000"
                            },
                            {
                                "name": "to",
                                "type": "address",
                                "value": "0xbe4e0072267cbd32d47a028acced5ef1098ee145"
                            },
                            {
                                "decimalAvailable": true,
                                "name": "tokenId",
                                "type": "uint256",
                                "value": "9,497"
                            }
                        ],
                        "signature": "Transfer(address,address,uint256)"
                    },
                    "id": 8,
                    "logData": "0x",
                    "logDecoded": true,
                    "operation": "EVENT",
                    "revert": false,
                    "status": true,
                    "topics": [
                        "0xddf252ad1be2c89b69c2b068fc378daa952ba7f163c4a11628f55a4df523b3ef",
                        "0x0000000000000000000000000000000000000000000000000000000000000000",
                        "0x000000000000000000000000be4e0072267cbd32d47a028acced5ef1098ee145",
                        "0x0000000000000000000000000000000000000000000000000000000000002519"
                    ]
                },
                "nodeType": 1
            },
            "9": {
                "event": {
                    "contract": "0x11801ca8a1873e16ec0f11758eb642e7ced2d8ec",
                    "decodedLog": {
                        "name": "Transfer",
                        "params": [
                            {
                                "name": "from",
                                "type": "address",
                                "value": "0x0000000000000000000000000000000000000000"
                            },
                            {
                                "name": "to",
                                "type": "address",
                                "value": "0xbe4e0072267cbd32d47a028acced5ef1098ee145"
                            },
                            {
                                "decimalAvailable": true,
                                "name": "tokenId",
                                "type": "uint256",
                                "value": "9,498"
                            }
                        ],
                        "signature": "Transfer(address,address,uint256)"
                    },
                    "id": 9,
                    "logData": "0x",
                    "logDecoded": true,
                    "operation": "EVENT",
                    "revert": false,
                    "status": true,
                    "topics": [
                        "0xddf252ad1be2c89b69c2b068fc378daa952ba7f163c4a11628f55a4df523b3ef",
                        "0x0000000000000000000000000000000000000000000000000000000000000000",
                        "0x000000000000000000000000be4e0072267cbd32d47a028acced5ef1098ee145",
                        "0x000000000000000000000000000000000000000000000000000000000000251a"
                    ]
                },
                "nodeType": 1
            }
        },
        "gasFlame": [
            {
                "children": [
                    {
                        "children": [
                            {
                                "children": [],
                                "depth": 0,
                                "name": "Initial Gas",
                                "value": 21204
                            },
                            {
                                "children": [],
                                "depth": 0,
                                "name": "Executed Gas",
                                "value": 120827
                            }
                        ],
                        "depth": -1,
                        "name": "Actual Gas Used",
                        "value": 142031
                    },
                    {
                        "children": [],
                        "depth": -1,
                        "name": "Refunded Gas",
                        "value": 0
                    }
                ],
                "depth": -2,
                "name": "Total Gas",
                "value": 142031
            }
        ],
        "isConfirmed": true,
        "mainTrace": [
            {
                "children": [
                    {
                        "children": [
                            {
                                "children": [],
                                "depth": 1,
                                "id": 1,
                                "order": 1
                            },
                            {
                                "children": [],
                                "depth": 1,
                                "id": 2,
                                "order": 2
                            },
                            {
                                "children": [],
                                "depth": 1,
                                "id": 3,
                                "order": 3
                            },
                            {
                                "children": [],
                                "depth": 1,
                                "id": 4,
                                "order": 4
                            },
                            {
                                "children": [],
                                "depth": 1,
                                "id": 5,
                                "order": 5
                            },
                            {
                                "children": [],
                                "depth": 1,
                                "id": 6,
                                "order": 6
                            },
                            {
                                "children": [],
                                "depth": 1,
                                "id": 7,
                                "order": 7
                            },
                            {
                                "children": [],
                                "depth": 1,
                                "id": 8,
                                "order": 8
                            },
                            {
                                "children": [],
                                "depth": 1,
                                "id": 9,
                                "order": 9
                            },
                            {
                                "children": [],
                                "depth": 1,
                                "id": 10,
                                "order": 10
                            },
                            {
                                "children": [],
                                "depth": 1,
                                "id": 11,
                                "order": 11
                            },
                            {
                                "children": [],
                                "depth": 1,
                                "id": 12,
                                "order": 12
                            },
                            {
                                "children": [],
                                "depth": 1,
                                "id": 13,
                                "order": 13
                            },
                            {
                                "children": [],
                                "depth": 1,
                                "id": 14,
                                "order": 14
                            },
                            {
                                "children": [],
                                "depth": 1,
                                "id": 15,
                                "order": 15
                            },
                            {
                                "children": [],
                                "depth": 1,
                                "id": 16,
                                "order": 16
                            },
                            {
                                "children": [],
                                "depth": 1,
                                "id": 17,
                                "order": 17
                            },
                            {
                                "children": [],
                                "depth": 1,
                                "id": 18,
                                "order": 18
                            },
                            {
                                "children": [],
                                "depth": 1,
                                "id": 19,
                                "order": 19
                            },
                            {
                                "children": [],
                                "depth": 1,
                                "id": 20,
                                "order": 20
                            }
                        ],
                        "depth": 0,
                        "id": 0,
                        "order": 0
                    }
                ],
                "depth": -1,
                "id": -1,
                "order": -1
            }
        ],
        "mainTraceNodeCount": 21,
        "parentIdMap": {
            "0": -1,
            "1": 0,
            "10": 0,
            "11": 0,
            "12": 0,
            "13": 0,
            "14": 0,
            "15": 0,
            "16": 0,
            "17": 0,
            "18": 0,
            "19": 0,
            "2": 0,
            "20": 0,
            "3": 0,
            "4": 0,
            "5": 0,
            "6": 0,
            "7": 0,
            "8": 0,
            "9": 0
        },
        "tidyTrace": [
            {
                "children": [
                    {
                        "children": [
                            {
                                "children": [],
                                "depth": 1,
                                "id": 1,
                                "order": 1
                            },
                            {
                                "children": [],
                                "depth": 1,
                                "id": 2,
                                "order": 2
                            },
                            {
                                "children": [],
                                "depth": 1,
                                "id": 3,
                                "order": 3
                            },
                            {
                                "children": [],
                                "depth": 1,
                                "id": 4,
                                "order": 4
                            },
                            {
                                "children": [],
                                "depth": 1,
                                "id": 5,
                                "order": 5
                            },
                            {
                                "children": [],
                                "depth": 1,
                                "id": 6,
                                "order": 6
                            },
                            {
                                "children": [],
                                "depth": 1,
                                "id": 7,
                                "order": 7
                            },
                            {
                                "children": [],
                                "depth": 1,
                                "id": 8,
                                "order": 8
                            },
                            {
                                "children": [],
                                "depth": 1,
                                "id": 9,
                                "order": 9
                            },
                            {
                                "children": [],
                                "depth": 1,
                                "id": 10,
                                "order": 10
                            },
                            {
                                "children": [],
                                "depth": 1,
                                "id": 11,
                                "order": 11
                            },
                            {
                                "children": [],
                                "depth": 1,
                                "id": 12,
                                "order": 12
                            },
                            {
                                "children": [],
                                "depth": 1,
                                "id": 13,
                                "order": 13
                            },
                            {
                                "children": [],
                                "depth": 1,
                                "id": 14,
                                "order": 14
                            },
                            {
                                "children": [],
                                "depth": 1,
                                "id": 15,
                                "order": 15
                            },
                            {
                                "children": [],
                                "depth": 1,
                                "id": 16,
                                "order": 16
                            },
                            {
                                "children": [],
                                "depth": 1,
                                "id": 17,
                                "order": 17
                            },
                            {
                                "children": [],
                                "depth": 1,
                                "id": 18,
                                "order": 18
                            },
                            {
                                "children": [],
                                "depth": 1,
                                "id": 19,
                                "order": 19
                            },
                            {
                                "children": [],
                                "depth": 1,
                                "id": 20,
                                "order": 20
                            }
                        ],
                        "depth": 0,
                        "id": 0,
                        "order": 0
                    }
                ],
                "depth": -1,
                "id": -1,
                "order": -1
            }
        ],
        "tidyTraceNodeCount": 21
    },
    "state_change": {
        "stateChanges": [
            {
                "address": "0x11801ca8a1873e16ec0f11758eb642e7ced2d8ec",
                "erc": "ERC-721",
                "slots": [
                    {
                        "current": "0x0000000000000000000000000000000000000000000000140000000000000014",
                        "key": "0x6d7aaebd022bae727d0f4bf975b73cb8a2f4fcfdad218a011e8ee7569b74ee98",
                        "prev": "0x0000000000000000000000000000000000000000000000000000000000000000"
                    },
                    {
                        "current": "0x000000000000000062cb7e51be4e0072267cbd32d47a028acced5ef1098ee145",
                        "key": "0x5c106e4b5476e38aee5f36105716e686a21e64bc3cc5b9df041758ffaabb745c",
                        "prev": "0x0000000000000000000000000000000000000000000000000000000000000000"
                    },
                    {
                        "current": "0x0000000000000000000000000000000000000000000000000000000000002526",
                        "key": "0x0000000000000000000000000000000000000000000000000000000000000000",
                        "prev": "0x0000000000000000000000000000000000000000000000000000000000002512"
                    },
                    {
                        "current": "0x0000000000000000000000000000000000000000000000000000000000000014",
                        "key": "0xe20306fd4c2c45e7b2b522cf8fdd91d7194b9318948734de1d4a3475fdf534eb",
                        "prev": "0x0000000000000000000000000000000000000000000000000000000000000000"
                    }
                ],
                "storageVariables": [
                    {
                        "name": "_addressData",
                        "type": "mapping(address => struct ERC721A.AddressData)",
                        "value": {
                            "pairs": [
                                {
                                    "key": "0xbe4e0072267cbd32d47a028acced5ef1098ee145",
                                    "value": {
                                        "fields": [
                                            {
                                                "name": "balance",
                                                "type": "uint64",
                                                "value": {
                                                    "current": "20",
                                                    "prev": "0",
                                                    "typeTag": 1
                                                }
                                            },
                                            {
                                                "name": "numberMinted",
                                                "type": "uint64",
                                                "value": {
                                                    "current": "20",
                                                    "prev": "0",
                                                    "typeTag": 1
                                                }
                                            },
                                            {
                                                "name": "numberBurned",
                                                "type": "uint64",
                                                "value": {
                                                    "current": "0",
                                                    "prev": "0",
                                                    "typeTag": 1
                                                }
                                            },
                                            {
                                                "name": "aux",
                                                "type": "uint64",
                                                "value": {
                                                    "current": "0",
                                                    "prev": "0",
                                                    "typeTag": 1
                                                }
                                            }
                                        ],
                                        "typeTag": 3
                                    }
                                }
                            ],
                            "typeTag": 4
                        }
                    },
                    {
                        "name": "_ownerships",
                        "type": "mapping(uint256 => struct ERC721A.TokenOwnership)",
                        "value": {
                            "pairs": [
                                {
                                    "key": "9490",
                                    "value": {
                                        "fields": [
                                            {
                                                "name": "addr",
                                                "type": "address",
                                                "value": {
                                                    "current": "0xbe4e0072267cbd32d47a028acced5ef1098ee145",
                                                    "prev": "0x0000000000000000000000000000000000000000",
                                                    "typeTag": 1
                                                }
                                            },
                                            {
                                                "name": "startTimestamp",
                                                "type": "uint64",
                                                "value": {
                                                    "current": "1657503313",
                                                    "prev": "0",
                                                    "typeTag": 1
                                                }
                                            },
                                            {
                                                "name": "burned",
                                                "type": "bool",
                                                "value": {
                                                    "current": "false",
                                                    "prev": "false",
                                                    "typeTag": 1
                                                }
                                            }
                                        ],
                                        "typeTag": 3
                                    }
                                }
                            ],
                            "typeTag": 4
                        }
                    },
                    {
                        "name": "_currentIndex",
                        "type": "uint256",
                        "value": {
                            "current": "9510",
                            "prev": "9490",
                            "typeTag": 1
                        }
                    },
                    {
                        "name": "addressMintBalance",
                        "type": "mapping(address => uint256)",
                        "value": {
                            "pairs": [
                                {
                                    "key": "0xbe4e0072267cbd32d47a028acced5ef1098ee145",
                                    "value": {
                                        "current": "20",
                                        "prev": "0",
                                        "typeTag": 1
                                    }
                                }
                            ],
                            "typeTag": 4
                        }
                    }
                ]
            }
        ]
    }
}