{
    "balance_change": {
        "balanceChanges": [
            {
                "account": "0x46598a108adec833677f8394d1853431e7b90ff6",
                "assets": [
                    {
                        "address": "0x0ee70564a07682c1ca3d2c1cf3a0ad0d8a07d760",
                        "amount": "15,628",
                        "iconUrl": "",
                        "isERC1155": false,
                        "isERC721": false,
                        "sign": false,
                        "value": ""
                    }
                ]
            },
            {
                "account": "0xf580d9fd9c66b92d74002fa1dbebb4e17a0cb2f5",
                "assets": [
                    {
                        "address": "0x0ee70564a07682c1ca3d2c1cf3a0ad0d8a07d760",
                        "amount": "15,628",
                        "iconUrl": "",
                        "isERC1155": false,
                        "isERC721": false,
                        "sign": true,
                        "value": ""
                    }
                ]
            }
        ]
    },
    "profile": {
        "basic_info": {
            "baseFee": "",
            "blockNumber": 10518632,
            "callData": "0xa9059cbb000000000000000000000000f580d9fd9c66b92d74002fa1dbebb4e17a0cb2f50000000000000000000000000000000000000000000000000000016bde238c00",
            "debugEnable": true,
            "errorInfo": "",
            "eventCount": 1,
            "feeRecipient": "0x4c549990a7ef3fea8784406c1eecc98bf4211fa5",
            "formatValue": "0",
            "gasLimit": 100000,
            "gasPrice": "60",
            "gasUsed": 37191,
            "intTxnCount": 0,
            "internalRevert": false,
            "internalRevertMessage": "",
            "isContractCreation": false,
            "isFlashloan": false,
            "maxFee": "",
            "nonce": 2121,
            "overwritedBlockNumber": -1,
            "priorityFee": "",
            "receiver": "0x0ee70564a07682c1ca3d2c1cf3a0ad0d8a07d760",
            "revertMessage": "",
            "sender": "0x46598a108adec833677f8394d1853431e7b90ff6",
            "simulationEnable": true,
            "sourceTxnHash": "0xdbc749d178f903ec86cd2a937ac218eec7dd3b651755b0aa56cffb394d74c6de",
            "status": true,
            "timestamp": "2020-07-23T23:17:57Z",
            "transactionFee": "0.00223146",
            "txnHash": "0xdbc749d178f903ec86cd2a937ac218eec7dd3b651755b0aa56cffb394d74c6de",
            "txnIndex": 4,
            "type": 0,
            "value": "0"
        },
        "fund_flow": [
            {
                "amount": "15,628",
                "from": "0x46598a108adec833677f8394d1853431e7b90ff6",
                "id": 1,
                "isERC1155": false,
                "isERC721": false,
                "isReverted": false,
                "order": 1,
                "to": "0xf580d9fd9c66b92d74002fa1dbebb4e17a0cb2f5",
                "token": "0x0ee70564a07682c1ca3d2c1cf3a0ad0d8a07d760"
            }
        ],
        "token_infos": [
            {
                "address": "0x0ee70564a07682c1ca3d2c1cf3a0ad0d8a07d760",
                "decimals": 8
            },
            {
                "address": "0xc02aaa39b223fe8d0a0e5c4f27ead9083c756cc2",
                "decimals": 18
            },
            {
                "address": "0xeeeeeeeeeeeeeeeeeeeeeeeeeeeeeeeeeeeeeeee",
                "decimals": 18
            }
        ]
    },
    "address_label": {
        "labels": [
            {
                "address": "0xeeeeeeeeeeeeeeeeeeeeeeeeeeeeeeeeeeeeeeee",
                "label": "Ether"
            },
            {
                "address": "0x0ee70564a07682c1ca3d2c1cf3a0ad0d8a07d760",
                "label": "D-NEON (DNN)"
            },
            {
                "address": "0x0000000000000000000000000000000000000001",
                "label": "Precompiled"
            },
            {
                "address": "0x0000000000000000000000000000000000000002",
                "label": "Precompiled"
            },
            {
                "address": "0x0000000000000000000000000000000000000003",
                "label": "Precompiled"
            },
            {
                "address": "0x0000000000000000000000000000000000000004",
                "label": "Precompiled"
            }
        ]
    },
    "trace": {
        "accountLabels": null,
        "dataMap": {
            "-1": {
                "invocation": {
                    "address": "0x46598a108adec833677f8394d1853431e7b90ff6",
                    "callData": "",
                    "decodedMethod": null,
                    "errorInfo": "",
                    "fromAddress": "",
                    "gasUsed": 0,
                    "id": -1,
                    "methodDecoded": false,
                    "operation": "",
                    "output": "",
                    "revert": false,
                    "revertMessage": "",
                    "selector": "",
                    "status": false,
                    "value": ""
                },
                "nodeType": 0
            },
            "0": {
                "invocation": {
                    "address": "0x0ee70564a07682c1ca3d2c1cf3a0ad0d8a07d760",
                    "callData": "0x000000000000000000000000f580d9fd9c66b92d74002fa1dbebb4e17a0cb2f50000000000000000000000000000000000000000000000000000016bde238c00",
                    "decodedMethod": {
                        "callParams": [
                            {
                                "name": "to",
                                "type": "address",
                                "value": "0xf580d9fd9c66b92d74002fa1dbebb4e17a0cb2f5"
                            },
                            {
                                "decimalAvailable": true,
                                "name": "value",
                                "type": "uint256",
                                "value": "1,562,800,000,000"
                            }
                        ],
                        "constructorArguments": "",
                        "name": "transfer",
                        "returnParams": [
                            {
                                "name": "",
                                "type": "bool",
                                "value": true
                            }
                        ],
                        "signature": "transfer(address,uint256)"
                    },
                    "errorInfo": "",
                    "fromAddress": "0x46598a108adec833677f8394d1853431e7b90ff6",
                    "gasUsed": 37191,
                    "id": 0,
                    "methodDecoded": true,
                    "operation": "CALL",
                    "output": "0x0000000000000000000000000000000000000000000000000000000000000001",
                    "revert": false,
                    "revertMessage": "",
                    "selector": "0xa9059cbb",
                    "status": true,
                    "value": "0"
                },
                "nodeType": 0
            },
            "1": {
                "event": {
                    "contract": "0x0ee70564a07682c1ca3d2c1cf3a0ad0d8a07d760",
                    "decodedLog": {
                        "name": "Transfer",
                        "params": [
                            {
                                "name": "from",
                                "type": "address",
                                "value": "0x46598a108adec833677f8394d1853431e7b90ff6"
                            },
                            {
                                "name": "to",
                                "type": "address",
                                "value": "0xf580d9fd9c66b92d74002fa1dbebb4e17a0cb2f5"
                            },
                            {
                                "decimalAvailable": true,
                                "name": "value",
                                "type": "uint256",
                                "value": "1,562,800,000,000"
                            }
                        ],
                        "signature": "Transfer(address,address,uint256)"
                    },
                    "id": 1,
                    "logData": "0x0000000000000000000000000000000000000000000000000000016bde238c00",
                    "logDecoded": true,
                    "operation": "EVENT",
                    "revert": false,
                    "status": true,
                    "topics": [
                        "0xddf252ad1be2c89b69c2b068fc378daa952ba7f163c4a11628f55a4df523b3ef",
                        "0x00000000000000000000000046598a108adec833677f8394d1853431e7b90ff6",
                        "0x000000000000000000000000f580d9fd9c66b92d74002fa1dbebb4e17a0cb2f5"
                    ]
                },
                "nodeType": 1
            }
        },
        "gasFlame": [
            {
                "children": [
                    {
                        "children": [
                            {
                                "children": [],
                                "depth": 0,
                                "name": "Initial Gas",
                                "value": 21608
                            },
                            {
                                "children": [],
                                "depth": 0,
                                "name": "Executed Gas",
                                "value": 15583
                            }
                        ],
                        "depth": -1,
                        "name": "Actual Gas Used",
                        "value": 37191
                    },
                    {
                        "children": [],
                        "depth": -1,
                        "name": "Refunded Gas",
                        "value": 0
                    }
                ],
                "depth": -2,
                "name": "Total Gas",
                "value": 37191
            }
        ],
        "isConfirmed": true,
        "mainTrace": [
            {
                "children": [
                    {
                        "children": [
                            {
                                "children": [],
                                "depth": 1,
                                "id": 1,
                                "order": 1
                            }
                        ],
                        "depth": 0,
                        "id": 0,
                        "order": 0
                    }
                ],
                "depth": -1,
                "id": -1,
                "order": -1
            }
        ],
        "mainTraceNodeCount": 2,
        "parentIdMap": {
            "0": -1,
            "1": 0
        },
        "tidyTrace": [
            {
                "children": [
                    {
                        "children": [
                            {
                                "children": [],
                                "depth": 1,
                                "id": 1,
                                "order": 1
                            }
                        ],
                        "depth": 0,
                        "id": 0,
                        "order": 0
                    }
                ],
                "depth": -1,
                "id": -1,
                "order": -1
            }
        ],
        "tidyTraceNodeCount": 2
    },
    "state_change": {
        "stateChanges": [
            {
                "address": "0x0ee70564a07682c1ca3d2c1cf3a0ad0d8a07d760",
                "erc": "ERC-20",
                "slots": [
                    {
                        "current": "0x00000000000000000000000000000000000000000000000000000382ef92b100",
                        "key": "0x73a40c5679662794e82eac93fc8b1dec16fb2876b1c07c19909693de7caa4bb8",
                        "prev": "0x00000000000000000000000000000000000000000000000000000217116f2500"
                    },
                    {
                        "current": "0x00000000000000000000000000000000000000000000000001f677b4543f4300",
                        "key": "0x38da076af8c78df1acbf4e0159762f9772444b31e1bee4a085e0addd4103981d",
                        "prev": "0x00000000000000000000000000000000000000000000000001f679203262cf00"
                    }
                ],
                "storageVariables": [
                    {
                        "name": "_balances",
                        "type": "mapping(address => uint256)",
                        "value": {
                            "pairs": [
                                {
                                    "key": "0x46598a108adec833677f8394d1853431e7b90ff6",
                                    "value": {
                                        "current": "141432054700000000",
                                        "prev": "141433617500000000",
                                        "typeTag": 1
                                    }
                                },
                                {
                                    "key": "0xf580d9fd9c66b92d74002fa1dbebb4e17a0cb2f5",
                                    "value": {
                                        "current": "3860900000000",
                                        "prev": "2298100000000",
                                        "typeTag": 1
                                    }
                                }
                            ],
                            "typeTag": 4
                        }
                    }
                ]
            }
        ]
    }
}