{
    "balance_change": {
        "balanceChanges": [
            {
                "account": "0x1c9c66c61fbb95aac1af09f3d5e9004cfca937d8",
                "assets": [
                    {
                        "address": "0xeeeeeeeeeeeeeeeeeeeeeeeeeeeeeeeeeeeeeeee",
                        "amount": "0.0000750000000001",
                        "iconUrl": "https://assets.blocksec.com/image/1663669189317-3.png",
                        "isERC1155": false,
                        "isERC721": false,
                        "sign": false,
                        "value": ""
                    }
                ]
            },
            {
                "account": "0xe7d2c826292ce8bdd5e51ce44fff4033be657269",
                "assets": [
                    {
                        "address": "0xeeeeeeeeeeeeeeeeeeeeeeeeeeeeeeeeeeeeeeee",
                        "amount": "0.000072750000000097",
                        "iconUrl": "https://assets.blocksec.com/image/1663669189317-3.png",
                        "isERC1155": false,
                        "isERC721": false,
                        "sign": true,
                        "value": ""
                    }
                ]
            },
            {
                "account": "0x40ae782714c22319ee27e44480e92e6731bda0f1",
                "assets": [
                    {
                        "address": "0xeeeeeeeeeeeeeeeeeeeeeeeeeeeeeeeeeeeeeeee",
                        "amount": "0.000002250000000003",
                        "iconUrl": "https://assets.blocksec.com/image/1663669189317-3.png",
                        "isERC1155": false,
                        "isERC721": false,
                        "sign": true,
                        "value": ""
                    }
                ]
            }
        ]
    },
    "profile": {
        "basic_info": {
            "baseFee": "",
            "blockNumber": 6455712,
            "callData": "0xa65b37a167616d65000000000000000000000000000000000000000000000000000000000000000000000000000000000000000000000000000000000000000000000002",
            "debugEnable": true,
            "errorInfo": "",
            "eventCount": 2,
            "feeRecipient": "0xcc16e3c00dbbe76603fa833ec20a48f786dfe610",
            "formatValue": "0.0000750000000001",
            "gasLimit": 638464,
            "gasPrice": "0.2",
            "gasUsed": 441228,
            "intTxnCount": 4,
            "internalRevert": false,
            "internalRevertMessage": "",
            "isContractCreation": false,
            "isFlashloan": false,
            "maxFee": "",
            "nonce": 9,
            "overwritedBlockNumber": -1,
            "priorityFee": "",
            "receiver": "0xe7d2c826292ce8bdd5e51ce44fff4033be657269",
            "revertMessage": "",
            "sender": "0x1c9c66c61fbb95aac1af09f3d5e9004cfca937d8",
            "simulationEnable": true,
            "sourceTxnHash": "0xdbcdcf60daeb58f056005695b1d63893ddd736273a05a1da5446ca2e001d87fa",
            "status": true,
            "timestamp": "2018-10-05T03:41:14Z",
            "transactionFee": "0.0000882456",
            "txnHash": "0xdbcdcf60daeb58f056005695b1d63893ddd736273a05a1da5446ca2e001d87fa",
            "txnIndex": 66,
            "type": 0,
            "value": "75000000000100"
        },
        "fund_flow": [
            {
                "amount": "0.0000750000000001",
                "from": "0x1c9c66c61fbb95aac1af09f3d5e9004cfca937d8",
                "id": 1,
                "isERC1155": false,
                "isERC721": false,
                "isReverted": false,
                "order": 1,
                "to": "0xe7d2c826292ce8bdd5e51ce44fff4033be657269",
                "token": "0xeeeeeeeeeeeeeeeeeeeeeeeeeeeeeeeeeeeeeeee"
            },
            {
                "amount": "0.000002250000000003",
                "from": "0xe7d2c826292ce8bdd5e51ce44fff4033be657269",
                "id": 2,
                "isERC1155": false,
                "isERC721": false,
                "isReverted": false,
                "order": 2,
                "to": "0x40ae782714c22319ee27e44480e92e6731bda0f1",
                "token": "0xeeeeeeeeeeeeeeeeeeeeeeeeeeeeeeeeeeeeeeee"
            }
        ],
        "token_infos": [
            {
                "address": "0xc02aaa39b223fe8d0a0e5c4f27ead9083c756cc2",
                "decimals": 18
            },
            {
                "address": "0xeeeeeeeeeeeeeeeeeeeeeeeeeeeeeeeeeeeeeeee",
                "decimals": 18
            }
        ]
    },
    "address_label": {
        "labels": [
            {
                "address": "0xe7d2c826292ce8bdd5e51ce44fff4033be657269",
                "label": "GameOfSwords (GOS)"
            },
            {
                "address": "0xfea380f677c9f9c0654afea10f720773efa6b4f1",
                "label": "PlayerBook"
            },
            {
                "address": "0x0000000000000000000000000000000000000001",
                "label": "Precompiled"
            },
            {
                "address": "0x0000000000000000000000000000000000000002",
                "label": "Precompiled"
            },
            {
                "address": "0x0000000000000000000000000000000000000003",
                "label": "Precompiled"
            },
            {
                "address": "0x0000000000000000000000000000000000000004",
                "label": "Precompiled"
            },
            {
                "address": "0xeeeeeeeeeeeeeeeeeeeeeeeeeeeeeeeeeeeeeeee",
                "label": "Ether"
            }
        ]
    },
    "trace": {
        "accountLabels": null,
        "dataMap": {
            "-1": {
                "invocation": {
                    "address": "0x1c9c66c61fbb95aac1af09f3d5e9004cfca937d8",
                    "callData": "",
                    "decodedMethod": null,
                    "errorInfo": "",
                    "fromAddress": "",
                    "gasUsed": 0,
                    "id": -1,
                    "methodDecoded": false,
                    "operation": "",
                    "output": "",
                    "revert": false,
                    "revertMessage": "",
                    "selector": "",
                    "status": false,
                    "value": ""
                },
                "nodeType": 0
            },
            "0": {
                "invocation": {
                    "address": "0xe7d2c826292ce8bdd5e51ce44fff4033be657269",
                    "callData": "0x67616d65000000000000000000000000000000000000000000000000000000000000000000000000000000000000000000000000000000000000000000000002",
                    "decodedMethod": {
                        "callParams": [
                            {
                                "name": "_affCode",
                                "type": "bytes32",
                                "value": "0x67616d6500000000000000000000000000000000000000000000000000000000"
                            },
                            {
                                "name": "_team",
                                "type": "uint256",
                                "value": "2"
                            }
                        ],
                        "constructorArguments": "",
                        "name": "buyXname",
                        "returnParams": [],
                        "signature": "buyXname(bytes32,uint256)"
                    },
                    "errorInfo": "",
                    "fromAddress": "0x1c9c66c61fbb95aac1af09f3d5e9004cfca937d8",
                    "gasUsed": 441228,
                    "id": 0,
                    "methodDecoded": true,
                    "operation": "CALL",
                    "output": "",
                    "revert": false,
                    "revertMessage": "",
                    "selector": "0xa65b37a1",
                    "status": true,
                    "value": "0.0000750000000001"
                },
                "nodeType": 0
            },
            "1": {
                "invocation": {
                    "address": "0xfea380f677c9f9c0654afea10f720773efa6b4f1",
                    "callData": "0x0000000000000000000000001c9c66c61fbb95aac1af09f3d5e9004cfca937d8",
                    "decodedMethod": {
                        "callParams": [
                            {
                                "name": "_addr",
                                "type": "address",
                                "value": "0x1c9c66c61fbb95aac1af09f3d5e9004cfca937d8"
                            }
                        ],
                        "constructorArguments": "",
                        "name": "getPlayerID",
                        "returnParams": [
                            {
                                "name": "",
                                "type": "uint256",
                                "value": "128"
                            }
                        ],
                        "signature": "getPlayerID(address)"
                    },
                    "errorInfo": "",
                    "fromAddress": "0xe7d2c826292ce8bdd5e51ce44fff4033be657269",
                    "gasUsed": 47595,
                    "id": 1,
                    "methodDecoded": true,
                    "operation": "CALL",
                    "output": "0x0000000000000000000000000000000000000000000000000000000000000080",
                    "revert": false,
                    "revertMessage": "",
                    "selector": "0xe56556a9",
                    "status": true,
                    "value": "0"
                },
                "nodeType": 0
            },
            "2": {
                "invocation": {
                    "address": "0xfea380f677c9f9c0654afea10f720773efa6b4f1",
                    "callData": "0x0000000000000000000000000000000000000000000000000000000000000080",
                    "decodedMethod": {
                        "callParams": [
                            {
                                "name": "_pID",
                                "type": "uint256",
                                "value": "128"
                            }
                        ],
                        "constructorArguments": "",
                        "name": "getPlayerName",
                        "returnParams": [
                            {
                                "name": "",
                                "type": "bytes32",
                                "value": "0x0000000000000000000000000000000000000000000000000000000000000000"
                            }
                        ],
                        "signature": "getPlayerName(uint256)"
                    },
                    "errorInfo": "",
                    "fromAddress": "0xe7d2c826292ce8bdd5e51ce44fff4033be657269",
                    "gasUsed": 792,
                    "id": 2,
                    "methodDecoded": true,
                    "operation": "CALL",
                    "output": "0x0000000000000000000000000000000000000000000000000000000000000000",
                    "revert": false,
                    "revertMessage": "",
                    "selector": "0x82e37b2c",
                    "status": true,
                    "value": "0"
                },
                "nodeType": 0
            },
            "3": {
                "invocation": {
                    "address": "0xfea380f677c9f9c0654afea10f720773efa6b4f1",
                    "callData": "0x0000000000000000000000000000000000000000000000000000000000000080",
                    "decodedMethod": {
                        "callParams": [
                            {
                                "name": "_pID",
                                "type": "uint256",
                                "value": "128"
                            }
                        ],
                        "constructorArguments": "",
                        "name": "getPlayerLAff",
                        "returnParams": [
                            {
                                "name": "",
                                "type": "uint256",
                                "value": "0"
                            }
                        ],
                        "signature": "getPlayerLAff(uint256)"
                    },
                    "errorInfo": "",
                    "fromAddress": "0xe7d2c826292ce8bdd5e51ce44fff4033be657269",
                    "gasUsed": 1034,
                    "id": 3,
                    "methodDecoded": true,
                    "operation": "CALL",
                    "output": "0x0000000000000000000000000000000000000000000000000000000000000000",
                    "revert": false,
                    "revertMessage": "",
                    "selector": "0xe3c08adf",
                    "status": true,
                    "value": "0"
                },
                "nodeType": 0
            },
            "4": {
                "invocation": {
                    "address": "0x40ae782714c22319ee27e44480e92e6731bda0f1",
                    "callData": "0x",
                    "decodedMethod": null,
                    "errorInfo": "",
                    "fromAddress": "0xe7d2c826292ce8bdd5e51ce44fff4033be657269",
                    "gasUsed": 0,
                    "id": 4,
                    "methodDecoded": false,
                    "operation": "CALL",
                    "output": "",
                    "revert": false,
                    "revertMessage": "",
                    "selector": "fallback",
                    "status": true,
                    "value": "0.000002250000000003"
                },
                "nodeType": 0
            },
            "5": {
                "event": {
                    "contract": "0xe7d2c826292ce8bdd5e51ce44fff4033be657269",
                    "decodedLog": {
                        "name": "onAffiliatePayout",
                        "params": [
                            {
                                "name": "affiliateID",
                                "type": "uint256",
                                "value": "12"
                            },
                            {
                                "name": "roundID",
                                "type": "uint256",
                                "value": "14"
                            },
                            {
                                "name": "buyerID",
                                "type": "uint256",
                                "value": "128"
                            },
                            {
                                "name": "affiliateAddress",
                                "type": "address",
                                "value": "0x84ecb387395a1be65e133c75ff9e5fcc6f756db3"
                            },
                            {
                                "name": "affiliateName",
                                "type": "bytes32",
                                "value": "0x67616d6500000000000000000000000000000000000000000000000000000000"
                            },
                            {
                                "name": "amount",
                                "type": "uint256",
                                "value": "7,500,000,000,010"
                            },
                            {
                                "name": "timeStamp",
                                "type": "uint256",
                                "value": "1,538,710,874"
                            }
                        ],
                        "signature": "onAffiliatePayout(uint256,address,bytes32,uint256,uint256,uint256,uint256)"
                    },
                    "id": 5,
                    "logData": "0x00000000000000000000000084ecb387395a1be65e133c75ff9e5fcc6f756db367616d6500000000000000000000000000000000000000000000000000000000000000000000000000000000000000000000000000000000000006d23ad5f80a000000000000000000000000000000000000000000000000000000005bb6dd5a",
                    "logDecoded": true,
                    "operation": "EVENT",
                    "revert": false,
                    "status": true,
                    "topics": [
                        "0x590bbc0fc16915a85269a48f74783c39842b7ae9eceb7c295c95dbe8b3ec7331",
                        "0x000000000000000000000000000000000000000000000000000000000000000c",
                        "0x000000000000000000000000000000000000000000000000000000000000000e",
                        "0x0000000000000000000000000000000000000000000000000000000000000080"
                    ]
                },
                "nodeType": 1
            },
            "6": {
                "event": {
                    "contract": "0xe7d2c826292ce8bdd5e51ce44fff4033be657269",
                    "decodedLog": {
                        "name": "onEndTx",
                        "params": [
                            {
                                "name": "compressedData",
                                "type": "uint256",
                                "value": "201,538,710,874,000,000,000,000,036,111"
                            },
                            {
                                "name": "compressedIDs",
                                "type": "uint256",
                                "value": "140,000,000,000,000,000,000,000,000,000,000,000,000,000,000,000,000,128"
                            },
                            {
                                "name": "playerName",
                                "type": "bytes32",
                                "value": "0x0000000000000000000000000000000000000000000000000000000000000000"
                            },
                            {
                                "name": "playerAddress",
                                "type": "address",
                                "value": "0x1c9c66c61fbb95aac1af09f3d5e9004cfca937d8"
                            },
                            {
                                "name": "ethIn",
                                "type": "uint256",
                                "value": "75,000,000,000,100"
                            },
                            {
                                "name": "keysBought",
                                "type": "uint256",
                                "value": "1,000,000,000,001,333,331"
                            },
                            {
                                "name": "winnerAddr",
                                "type": "address",
                                "value": "0x0000000000000000000000000000000000000000"
                            },
                            {
                                "name": "winnerName",
                                "type": "bytes32",
                                "value": "0x0000000000000000000000000000000000000000000000000000000000000000"
                            },
                            {
                                "name": "amountWon",
                                "type": "uint256",
                                "value": "0"
                            },
                            {
                                "name": "newPot",
                                "type": "uint256",
                                "value": "0"
                            },
                            {
                                "name": "P3DAmount",
                                "type": "uint256",
                                "value": "7,500,000,000,010"
                            },
                            {
                                "name": "genAmount",
                                "type": "uint256",
                                "value": "42,000,000,000,055"
                            },
                            {
                                "name": "potAmount",
                                "type": "uint256",
                                "value": "15,000,000,000,020"
                            },
                            {
                                "name": "airDropPot",
                                "type": "uint256",
                                "value": "130,325,515,093,653,265"
                            }
                        ],
                        "signature": "onEndTx(uint256,uint256,bytes32,address,uint256,uint256,address,bytes32,uint256,uint256,uint256,uint256,uint256,uint256)"
                    },
                    "id": 6,
                    "logData": "0x00000000000000000000000000000000000000028b34ea1079d70f576d288d0f00000000000000000001762fe3202cd8a0b6c89ffc79cb77fae000000000008000000000000000000000000000000000000000000000000000000000000000000000000000000000000000001c9c66c61fbb95aac1af09f3d5e9004cfca937d8000000000000000000000000000000000000000000000000000044364c5bb0640000000000000000000000000000000000000000000000000de0b6b3a77858530000000000000000000000000000000000000000000000000000000000000000000000000000000000000000000000000000000000000000000000000000000000000000000000000000000000000000000000000000000000000000000000000000000000000000000000000000000000000000000000000000000000000000000000000000000000000000000000000000000000000000000006d23ad5f80a00000000000000000000000000000000000000000000000000002632e314a03700000000000000000000000000000000000000000000000000000da475abf01400000000000000000000000000000000000000000000000001cf025d9053b711",
                    "logDecoded": true,
                    "operation": "EVENT",
                    "revert": false,
                    "status": true,
                    "topics": [
                        "0x500e72a0e114930aebdbcb371ccdbf43922c49f979794b5de4257ff7e310c746"
                    ]
                },
                "nodeType": 1
            }
        },
        "gasFlame": [
            {
                "children": [
                    {
                        "children": [
                            {
                                "children": [],
                                "depth": 0,
                                "name": "Initial Gas",
                                "value": 21848
                            },
                            {
                                "children": [
                                    {
                                        "children": [],
                                        "depth": 1,
                                        "name": "getPlayerID",
                                        "value": 47595
                                    },
                                    {
                                        "children": [],
                                        "depth": 1,
                                        "name": "getPlayerName",
                                        "value": 792
                                    },
                                    {
                                        "children": [],
                                        "depth": 1,
                                        "name": "getPlayerLAff",
                                        "value": 1034
                                    },
                                    {
                                        "children": [],
                                        "depth": 1,
                                        "name": "fallback",
                                        "value": 0
                                    }
                                ],
                                "depth": 0,
                                "name": "Executed Gas",
                                "value": 419380
                            }
                        ],
                        "depth": -1,
                        "name": "Actual Gas Used",
                        "value": 441228
                    },
                    {
                        "children": [],
                        "depth": -1,
                        "name": "Refunded Gas",
                        "value": 0
                    }
                ],
                "depth": -2,
                "name": "Total Gas",
                "value": 441228
            }
        ],
        "isConfirmed": true,
        "mainTrace": [
            {
                "children": [
                    {
                        "children": [
                            {
                                "children": [],
                                "depth": 1,
                                "id": 1,
                                "order": 1
                            },
                            {
                                "children": [],
                                "depth": 1,
                                "id": 2,
                                "order": 2
                            },
                            {
                                "children": [],
                                "depth": 1,
                                "id": 3,
                                "order": 3
                            },
                            {
                                "children": [],
                                "depth": 1,
                                "id": 4,
                                "order": 4
                            },
                            {
                                "children": [],
                                "depth": 1,
                                "id": 5,
                                "order": 5
                            },
                            {
                                "children": [],
                                "depth": 1,
                                "id": 6,
                                "order": 6
                            }
                        ],
                        "depth": 0,
                        "id": 0,
                        "order": 0
                    }
                ],
                "depth": -1,
                "id": -1,
                "order": -1
            }
        ],
        "mainTraceNodeCount": 7,
        "parentIdMap": {
            "0": -1,
            "1": 0,
            "2": 0,
            "3": 0,
            "4": 0,
            "5": 0,
            "6": 0
        },
        "tidyTrace": [
            {
                "children": [
                    {
                        "children": [
                            {
                                "children": [],
                                "depth": 1,
                                "id": 1,
                                "order": 1
                            },
                            {
                                "children": [],
                                "depth": 1,
                                "id": 2,
                                "order": 2
                            },
                            {
                                "children": [],
                                "depth": 1,
                                "id": 3,
                                "order": 3
                            },
                            {
                                "children": [],
                                "depth": 1,
                                "id": 4,
                                "order": 4
                            },
                            {
                                "children": [],
                                "depth": 1,
                                "id": 5,
                                "order": 5
                            },
                            {
                                "children": [],
                                "depth": 1,
                                "id": 6,
                                "order": 6
                            }
                        ],
                        "depth": 0,
                        "id": 0,
                        "order": 0
                    }
                ],
                "depth": -1,
                "id": -1,
                "order": -1
            }
        ],
        "tidyTraceNodeCount": 7
    },
    "state_change": {
        "stateChanges": [
            {
                "address": "0xe7d2c826292ce8bdd5e51ce44fff4033be657269",
                "erc": "",
                "slots": [
                    {
                        "current": "0x000000000000000000000000000000000000000000000000000000000000000e",
                        "key": "0x6ad96b05f0a26079b5850e370a7fc8c1867ddf7bb338c0d2d23b5f7ba273720b",
                        "prev": "0x0000000000000000000000000000000000000000000000000000000000000000"
                    },
                    {
                        "current": "0x0000000000000000000000000000000000000000000000000001cdbad950c8a1",
                        "key": "0x4c711c77a2730b2744c96ef60e2967c2b4247d6a372f8b2e95c748d1459b2387",
                        "prev": "0x0000000000000000000000000000000000000000000000000001b94428cee082"
                    },
                    {
                        "current": "0x000000000000000000000000000000000000000000000000000000005bb6dd78",
                        "key": "0x4c711c77a2730b2744c96ef60e2967c2b4247d6a372f8b2e95c748d1459b2382",
                        "prev": "0x000000000000000000000000000000000000000000000000000000005b653bce"
                    },
                    {
                        "current": "0x000000000000000000000000000000000000000000000000000044364c5bb064",
                        "key": "0xcf31206476e137f4eae64fe52754b4c1ed833518da5a3bc80dee65b1835a84e8",
                        "prev": "0x0000000000000000000000000000000000000000000000000000000000000000"
                    },
                    {
                        "current": "0x0000000000000000000000001c9c66c61fbb95aac1af09f3d5e9004cfca937d8",
                        "key": "0x6ad96b05f0a26079b5850e370a7fc8c1867ddf7bb338c0d2d23b5f7ba2737206",
                        "prev": "0x0000000000000000000000000000000000000000000000000000000000000000"
                    },
                    {
                        "current": "0x000000000000000000000000000000000000000000000000000006d23ad5f80a",
                        "key": "0xc7b54da85b38015141aec405fe9a03fa9e057971f48e8d0d8fc78485848a2314",
                        "prev": "0x0000000000000000000000000000000000000000000000000000000000000000"
                    },
                    {
                        "current": "0x0000000000000000000000000000000000000000000000000000000000000002",
                        "key": "0x4c711c77a2730b2744c96ef60e2967c2b4247d6a372f8b2e95c748d1459b2381",
                        "prev": "0x0000000000000000000000000000000000000000000000000000000000000000"
                    },
                    {
                        "current": "0x0000000000000000000000000000000000000000000000000de0b6b3a7785853",
                        "key": "0x4c711c77a2730b2744c96ef60e2967c2b4247d6a372f8b2e95c748d1459b2385",
                        "prev": "0x0000000000000000000000000000000000000000000000000000000000000000"
                    },
                    {
                        "current": "0x00000000000000000000000000000000000000000000000000002632e314a000",
                        "key": "0x4c711c77a2730b2744c96ef60e2967c2b4247d6a372f8b2e95c748d1459b2388",
                        "prev": "0x0000000000000000000000000000000000000000000000000000000000000000"
                    },
                    {
                        "current": "0x000000000000000000000000000000000000000000000000000044364c5bb064",
                        "key": "0x4c711c77a2730b2744c96ef60e2967c2b4247d6a372f8b2e95c748d1459b2386",
                        "prev": "0x0000000000000000000000000000000000000000000000000000000000000000"
                    },
                    {
                        "current": "0x000000000000000000000000000000000000000000000000000044364c5bb064",
                        "key": "0x8165eed4549aef210e1dcb646726625cb87dcb97fe3cca80a719911970c1c46a",
                        "prev": "0x0000000000000000000000000000000000000000000000000000000000000000"
                    },
                    {
                        "current": "0x0000000000000000000000000000000000000000000000000000000000000080",
                        "key": "0x1bef46e8f4f67c981b0f26f5f80d47e486ab86726f805b959bc5e0c40d294ab4",
                        "prev": "0x0000000000000000000000000000000000000000000000000000000000000000"
                    },
                    {
                        "current": "0x000000000000000000000000000000000000000000000000000000000000000c",
                        "key": "0x6ad96b05f0a26079b5850e370a7fc8c1867ddf7bb338c0d2d23b5f7ba273720c",
                        "prev": "0x0000000000000000000000000000000000000000000000000000000000000000"
                    },
                    {
                        "current": "0x0000000000000000000000000000000000000000000000000000000000000080",
                        "key": "0x4c711c77a2730b2744c96ef60e2967c2b4247d6a372f8b2e95c748d1459b2380",
                        "prev": "0x0000000000000000000000000000000000000000000000000000000000000000"
                    },
                    {
                        "current": "0x0000000000000000000000000000000000000000000000000de0b6b3a7785853",
                        "key": "0xcf31206476e137f4eae64fe52754b4c1ed833518da5a3bc80dee65b1835a84e9",
                        "prev": "0x0000000000000000000000000000000000000000000000000000000000000000"
                    },
                    {
                        "current": "0x00000000000000000000000000000000000000000000000001cf025d9053b711",
                        "key": "0x0000000000000000000000000000000000000000000000000000000000000004",
                        "prev": "0x00000000000000000000000000000000000000000000000001cf01aef0d7eb10"
                    }
                ],
                "storageVariables": [
                    {
                        "name": "pIDxAddr_",
                        "type": "mapping(address => uint256)",
                        "value": {
                            "pairs": [
                                {
                                    "key": "0x1c9c66c61fbb95aac1af09f3d5e9004cfca937d8",
                                    "value": {
                                        "current": "128",
                                        "prev": "0",
                                        "typeTag": 1
                                    }
                                }
                            ],
                            "typeTag": 4
                        }
                    },
                    {
                        "name": "plyr_",
                        "type": "mapping(uint256 => struct F3Ddatasets.Player)",
                        "value": {
                            "pairs": [
                                {
                                    "key": "12",
                                    "value": {
                                        "fields": [
                                            {
                                                "name": "aff",
                                                "type": "uint256",
                                                "value": {
                                                    "current": "7500000000010",
                                                    "prev": "0",
                                                    "typeTag": 1
                                                }
                                            }
                                        ],
                                        "typeTag": 3
                                    }
                                },
                                {
                                    "key": "128",
                                    "value": {
                                        "fields": [
                                            {
                                                "name": "addr",
                                                "type": "address",
                                                "value": {
                                                    "current": "0x1c9c66c61fbb95aac1af09f3d5e9004cfca937d8",
                                                    "prev": "0x0000000000000000000000000000000000000000",
                                                    "typeTag": 1
                                                }
                                            },
                                            {
                                                "name": "lrnd",
                                                "type": "uint256",
                                                "value": {
                                                    "current": "14",
                                                    "prev": "0",
                                                    "typeTag": 1
                                                }
                                            },
                                            {
                                                "name": "laff",
                                                "type": "uint256",
                                                "value": {
                                                    "current": "12",
                                                    "prev": "0",
                                                    "typeTag": 1
                                                }
                                            }
                                        ],
                                        "typeTag": 3
                                    }
                                }
                            ],
                            "typeTag": 4
                        }
                    },
                    {
                        "name": "round_",
                        "type": "mapping(uint256 => struct F3Ddatasets.Round)",
                        "value": {
                            "pairs": [
                                {
                                    "key": "14",
                                    "value": {
                                        "fields": [
                                            {
                                                "name": "plyr",
                                                "type": "uint256",
                                                "value": {
                                                    "current": "128",
                                                    "prev": "0",
                                                    "typeTag": 1
                                                }
                                            },
                                            {
                                                "name": "team",
                                                "type": "uint256",
                                                "value": {
                                                    "current": "2",
                                                    "prev": "0",
                                                    "typeTag": 1
                                                }
                                            },
                                            {
                                                "name": "end",
                                                "type": "uint256",
                                                "value": {
                                                    "current": "1538710904",
                                                    "prev": "1533361102",
                                                    "typeTag": 1
                                                }
                                            },
                                            {
                                                "name": "keys",
                                                "type": "uint256",
                                                "value": {
                                                    "current": "1000000000001333331",
                                                    "prev": "0",
                                                    "typeTag": 1
                                                }
                                            },
                                            {
                                                "name": "eth",
                                                "type": "uint256",
                                                "value": {
                                                    "current": "75000000000100",
                                                    "prev": "0",
                                                    "typeTag": 1
                                                }
                                            },
                                            {
                                                "name": "pot",
                                                "type": "uint256",
                                                "value": {
                                                    "current": "507677370271905",
                                                    "prev": "485177370271874",
                                                    "typeTag": 1
                                                }
                                            },
                                            {
                                                "name": "mask",
                                                "type": "uint256",
                                                "value": {
                                                    "current": "42000000000000",
                                                    "prev": "0",
                                                    "typeTag": 1
                                                }
                                            }
                                        ],
                                        "typeTag": 3
                                    }
                                }
                            ],
                            "typeTag": 4
                        }
                    },
                    {
                        "name": "rndTmEth_",
                        "type": "mapping(uint256 => mapping(uint256 => uint256))",
                        "value": {
                            "pairs": [
                                {
                                    "key": "14",
                                    "value": {
                                        "pairs": [
                                            {
                                                "key": "2",
                                                "value": {
                                                    "current": "75000000000100",
                                                    "prev": "0",
                                                    "typeTag": 1
                                                }
                                            }
                                        ],
                                        "typeTag": 4
                                    }
                                }
                            ],
                            "typeTag": 4
                        }
                    },
                    {
                        "name": "plyrRnds_",
                        "type": "mapping(uint256 => mapping(uint256 => struct F3Ddatasets.PlayerRounds))",
                        "value": {
                            "pairs": [
                                {
                                    "key": "128",
                                    "value": {
                                        "pairs": [
                                            {
                                                "key": "14",
                                                "value": {
                                                    "fields": [
                                                        {
                                                            "name": "eth",
                                                            "type": "uint256",
                                                            "value": {
                                                                "current": "75000000000100",
                                                                "prev": "0",
                                                                "typeTag": 1
                                                            }
                                                        },
                                                        {
                                                            "name": "keys",
                                                            "type": "uint256",
                                                            "value": {
                                                                "current": "1000000000001333331",
                                                                "prev": "0",
                                                                "typeTag": 1
                                                            }
                                                        }
                                                    ],
                                                    "typeTag": 3
                                                }
                                            }
                                        ],
                                        "typeTag": 4
                                    }
                                }
                            ],
                            "typeTag": 4
                        }
                    },
                    {
                        "name": "airDropPot_",
                        "type": "uint256",
                        "value": {
                            "current": "130325515093653265",
                            "prev": "130324765093653264",
                            "typeTag": 1
                        }
                    }
                ]
            },
            {
                "address": "0xfea380f677c9f9c0654afea10f720773efa6b4f1",
                "erc": "",
                "slots": [
                    {
                        "current": "0x0000000000000000000000000000000000000000000000000000000000000080",
                        "key": "0x0000000000000000000000000000000000000000000000000000000000000007",
                        "prev": "0x000000000000000000000000000000000000000000000000000000000000007f"
                    },
                    {
                        "current": "0x0000000000000000000000000000000000000000000000000000000000000080",
                        "key": "0xc97d73b1a0a0a5772cdf3bbd19a9a0c65abfff79789b1476a4f4254daf090bc0",
                        "prev": "0x0000000000000000000000000000000000000000000000000000000000000000"
                    },
                    {
                        "current": "0x0000000000000000000000001c9c66c61fbb95aac1af09f3d5e9004cfca937d8",
                        "key": "0x55aa9403d2e921b67e0c210d0416f1f2659b97124ce6acc5d53c87d5e9ad6dbf",
                        "prev": "0x0000000000000000000000000000000000000000000000000000000000000000"
                    }
                ],
                "storageVariables": [
                    {
                        "name": "pIDxAddr_",
                        "type": "mapping(address => uint256)",
                        "value": {
                            "pairs": [
                                {
                                    "key": "0x1c9c66c61fbb95aac1af09f3d5e9004cfca937d8",
                                    "value": {
                                        "current": "128",
                                        "prev": "0",
                                        "typeTag": 1
                                    }
                                }
                            ],
                            "typeTag": 4
                        }
                    },
                    {
                        "name": "plyr_",
                        "type": "mapping(uint256 => struct PlayerBook.Player)",
                        "value": {
                            "pairs": [
                                {
                                    "key": "128",
                                    "value": {
                                        "fields": [
                                            {
                                                "name": "addr",
                                                "type": "address",
                                                "value": {
                                                    "current": "0x1c9c66c61fbb95aac1af09f3d5e9004cfca937d8",
                                                    "prev": "0x0000000000000000000000000000000000000000",
                                                    "typeTag": 1
                                                }
                                            }
                                        ],
                                        "typeTag": 3
                                    }
                                }
                            ],
                            "typeTag": 4
                        }
                    },
                    {
                        "name": "pID_",
                        "type": "uint256",
                        "value": {
                            "current": "128",
                            "prev": "127",
                            "typeTag": 1
                        }
                    }
                ]
            }
        ]
    }
}