{
    "balance_change": {
        "balanceChanges": [
            {
                "account": "0x0f5ca565909c6c91f11415989bedb6204242bed6",
                "assets": [
                    {
                        "address": "0x8a88f04e0c905054d2f33b26bb3a46d7091a039a",
                        "amount": "7,146.07612875458969508",
                        "iconUrl": "",
                        "isERC1155": false,
                        "isERC721": false,
                        "sign": false,
                        "value": ""
                    }
                ]
            },
            {
                "account": "0x581e0be71b101bb716d66415c0ac4a9c6bca9bf5",
                "assets": [
                    {
                        "address": "0x8a88f04e0c905054d2f33b26bb3a46d7091a039a",
                        "amount": "7,146.07612875458969508",
                        "iconUrl": "",
                        "isERC1155": false,
                        "isERC721": false,
                        "sign": true,
                        "value": ""
                    }
                ]
            }
        ]
    },
    "profile": {
        "basic_info": {
            "baseFee": "",
            "blockNumber": 6018966,
            "callData": "0xa9059cbb000000000000000000000000581e0be71b101bb716d66415c0ac4a9c6bca9bf500000000000000000000000000000000000000000000018363ba69917beafc68",
            "debugEnable": true,
            "errorInfo": "",
            "eventCount": 1,
            "feeRecipient": "0x5a0b54d5dc17e0aadc383d2db43b0a0d3e029c4c",
            "formatValue": "0",
            "gasLimit": 100000,
            "gasPrice": "2",
            "gasUsed": 22226,
            "intTxnCount": 0,
            "internalRevert": false,
            "internalRevertMessage": "",
            "isContractCreation": false,
            "isFlashloan": false,
            "maxFee": "",
            "nonce": 47,
            "overwritedBlockNumber": -1,
            "priorityFee": "",
            "receiver": "0x8a88f04e0c905054d2f33b26bb3a46d7091a039a",
            "revertMessage": "",
            "sender": "0x0f5ca565909c6c91f11415989bedb6204242bed6",
            "simulationEnable": true,
            "sourceTxnHash": "0xdbf7a524de11f670b6db715b66766a66b8421069bddfc13b75e72067219a7152",
            "status": true,
            "timestamp": "2018-07-24T01:22:33Z",
            "transactionFee": "0.000044452",
            "txnHash": "0xdbf7a524de11f670b6db715b66766a66b8421069bddfc13b75e72067219a7152",
            "txnIndex": 35,
            "type": 0,
            "value": "0"
        },
        "fund_flow": [
            {
                "amount": "7,146.07612875458969508",
                "from": "0x0f5ca565909c6c91f11415989bedb6204242bed6",
                "id": 1,
                "isERC1155": false,
                "isERC721": false,
                "isReverted": false,
                "order": 1,
                "to": "0x581e0be71b101bb716d66415c0ac4a9c6bca9bf5",
                "token": "0x8a88f04e0c905054d2f33b26bb3a46d7091a039a"
            }
        ],
        "token_infos": [
            {
                "address": "0x8a88f04e0c905054d2f33b26bb3a46d7091a039a",
                "decimals": 18
            },
            {
                "address": "0xc02aaa39b223fe8d0a0e5c4f27ead9083c756cc2",
                "decimals": 18
            },
            {
                "address": "0xeeeeeeeeeeeeeeeeeeeeeeeeeeeeeeeeeeeeeeee",
                "decimals": 18
            }
        ]
    },
    "address_label": {
        "labels": [
            {
                "address": "0xeeeeeeeeeeeeeeeeeeeeeeeeeeeeeeeeeeeeeeee",
                "label": "Ether"
            },
            {
                "address": "0x8a88f04e0c905054d2f33b26bb3a46d7091a039a",
                "label": "IG Token"
            },
            {
                "address": "0x0000000000000000000000000000000000000001",
                "label": "Precompiled"
            },
            {
                "address": "0x0000000000000000000000000000000000000002",
                "label": "Precompiled"
            },
            {
                "address": "0x0000000000000000000000000000000000000003",
                "label": "Precompiled"
            },
            {
                "address": "0x0000000000000000000000000000000000000004",
                "label": "Precompiled"
            }
        ]
    },
    "trace": {
        "accountLabels": null,
        "dataMap": {
            "-1": {
                "invocation": {
                    "address": "0x0f5ca565909c6c91f11415989bedb6204242bed6",
                    "callData": "",
                    "decodedMethod": null,
                    "errorInfo": "",
                    "fromAddress": "",
                    "gasUsed": 0,
                    "id": -1,
                    "methodDecoded": false,
                    "operation": "",
                    "output": "",
                    "revert": false,
                    "revertMessage": "",
                    "selector": "",
                    "status": false,
                    "value": ""
                },
                "nodeType": 0
            },
            "0": {
                "invocation": {
                    "address": "0x8a88f04e0c905054d2f33b26bb3a46d7091a039a",
                    "callData": "0x000000000000000000000000581e0be71b101bb716d66415c0ac4a9c6bca9bf500000000000000000000000000000000000000000000018363ba69917beafc68",
                    "decodedMethod": {
                        "callParams": [
                            {
                                "name": "_to",
                                "type": "address",
                                "value": "0x581e0be71b101bb716d66415c0ac4a9c6bca9bf5"
                            },
                            {
                                "decimalAvailable": true,
                                "name": "_amount",
                                "type": "uint256",
                                "value": "7,146,076,128,754,589,695,080"
                            }
                        ],
                        "constructorArguments": "",
                        "name": "transfer",
                        "returnParams": [
                            {
                                "name": "success",
                                "type": "bool",
                                "value": true
                            }
                        ],
                        "signature": "transfer(address,uint256)"
                    },
                    "errorInfo": "",
                    "fromAddress": "0x0f5ca565909c6c91f11415989bedb6204242bed6",
                    "gasUsed": 22226,
                    "id": 0,
                    "methodDecoded": true,
                    "operation": "CALL",
                    "output": "0x0000000000000000000000000000000000000000000000000000000000000001",
                    "revert": false,
                    "revertMessage": "",
                    "selector": "0xa9059cbb",
                    "status": true,
                    "value": "0"
                },
                "nodeType": 0
            },
            "1": {
                "event": {
                    "contract": "0x8a88f04e0c905054d2f33b26bb3a46d7091a039a",
                    "decodedLog": {
                        "name": "Transfer",
                        "params": [
                            {
                                "name": "_from",
                                "type": "address",
                                "value": "0x0f5ca565909c6c91f11415989bedb6204242bed6"
                            },
                            {
                                "name": "_to",
                                "type": "address",
                                "value": "0x581e0be71b101bb716d66415c0ac4a9c6bca9bf5"
                            },
                            {
                                "decimalAvailable": true,
                                "name": "_value",
                                "type": "uint256",
                                "value": "7,146,076,128,754,589,695,080"
                            }
                        ],
                        "signature": "Transfer(address,address,uint256)"
                    },
                    "id": 1,
                    "logData": "0x00000000000000000000000000000000000000000000018363ba69917beafc68",
                    "logDecoded": true,
                    "operation": "EVENT",
                    "revert": false,
                    "status": true,
                    "topics": [
                        "0xddf252ad1be2c89b69c2b068fc378daa952ba7f163c4a11628f55a4df523b3ef",
                        "0x0000000000000000000000000f5ca565909c6c91f11415989bedb6204242bed6",
                        "0x000000000000000000000000581e0be71b101bb716d66415c0ac4a9c6bca9bf5"
                    ]
                },
                "nodeType": 1
            }
        },
        "gasFlame": [
            {
                "children": [
                    {
                        "children": [
                            {
                                "children": [],
                                "depth": 0,
                                "name": "Initial Gas",
                                "value": 23448
                            },
                            {
                                "children": [],
                                "depth": 0,
                                "name": "Executed Gas",
                                "value": 13778
                            }
                        ],
                        "depth": -1,
                        "name": "Actual Gas Used",
                        "value": 22226
                    },
                    {
                        "children": [],
                        "depth": -1,
                        "name": "Refunded Gas",
                        "value": 15000
                    }
                ],
                "depth": -2,
                "name": "Total Gas",
                "value": 37226
            }
        ],
        "isConfirmed": true,
        "mainTrace": [
            {
                "children": [
                    {
                        "children": [
                            {
                                "children": [],
                                "depth": 1,
                                "id": 1,
                                "order": 1
                            }
                        ],
                        "depth": 0,
                        "id": 0,
                        "order": 0
                    }
                ],
                "depth": -1,
                "id": -1,
                "order": -1
            }
        ],
        "mainTraceNodeCount": 2,
        "parentIdMap": {
            "0": -1,
            "1": 0
        },
        "tidyTrace": [
            {
                "children": [
                    {
                        "children": [
                            {
                                "children": [],
                                "depth": 1,
                                "id": 1,
                                "order": 1
                            }
                        ],
                        "depth": 0,
                        "id": 0,
                        "order": 0
                    }
                ],
                "depth": -1,
                "id": -1,
                "order": -1
            }
        ],
        "tidyTraceNodeCount": 2
    },
    "state_change": {
        "stateChanges": [
            {
                "address": "0x8a88f04e0c905054d2f33b26bb3a46d7091a039a",
                "erc": "ERC-20",
                "slots": [
                    {
                        "current": "0x0000000000000000000000000000000000000000000000000000000000000000",
                        "key": "0x44a01fd09aa40c4d2088ec55c231d61030651fd8159afc5170b197a6ff2f1921",
                        "prev": "0x00000000000000000000000000000000000000000000018363ba69917beafc68"
                    },
                    {
                        "current": "0x000000000000000000000000000000000000000000000306cb6c5e5f03647218",
                        "key": "0xc45636164a3f3821b8209c7b0d1af6e0add99310fbce68728c753173f332679a",
                        "prev": "0x00000000000000000000000000000000000000000000018367b1f4cd877975b0"
                    }
                ],
                "storageVariables": [
                    {
                        "name": "balances",
                        "type": "mapping(address => uint256)",
                        "value": {
                            "pairs": [
                                {
                                    "key": "0x0f5ca565909c6c91f11415989bedb6204242bed6",
                                    "value": {
                                        "current": "0",
                                        "prev": "7146076128754589695080",
                                        "typeTag": 1
                                    }
                                },
                                {
                                    "key": "0x581e0be71b101bb716d66415c0ac4a9c6bca9bf5",
                                    "value": {
                                        "current": "14292438107700548891160",
                                        "prev": "7146361978945959196080",
                                        "typeTag": 1
                                    }
                                }
                            ],
                            "typeTag": 4
                        }
                    }
                ]
            }
        ]
    }
}