{
    "balance_change": {
        "balanceChanges": [
            {
                "account": "0x27a75906390206878bfa899caa3e14a482c259dc",
                "assets": [
                    {
                        "address": "0xa253be28580ae23548a4182d95bf8201c28369a8",
                        "amount": "50",
                        "iconUrl": "",
                        "isERC1155": false,
                        "isERC721": false,
                        "sign": false,
                        "value": ""
                    }
                ]
            },
            {
                "account": "0x55e6c3b84f3c42158c608ff29462d5616c3e90a6",
                "assets": [
                    {
                        "address": "0xa253be28580ae23548a4182d95bf8201c28369a8",
                        "amount": "50",
                        "iconUrl": "",
                        "isERC1155": false,
                        "isERC721": false,
                        "sign": true,
                        "value": ""
                    }
                ]
            }
        ]
    },
    "profile": {
        "basic_info": {
            "baseFee": "",
            "blockNumber": 6521682,
            "callData": "0xa9059cbb00000000000000000000000055e6c3b84f3c42158c608ff29462d5616c3e90a6000000000000000000000000000000000000000000000002b5e3af16b1880000",
            "debugEnable": true,
            "errorInfo": "",
            "eventCount": 1,
            "feeRecipient": "0x002e08000acbbae2155fab7ac01929564949070d",
            "formatValue": "0",
            "gasLimit": 39000,
            "gasPrice": "2",
            "gasUsed": 21925,
            "intTxnCount": 0,
            "internalRevert": false,
            "internalRevertMessage": "",
            "isContractCreation": false,
            "isFlashloan": false,
            "maxFee": "",
            "nonce": 2,
            "overwritedBlockNumber": -1,
            "priorityFee": "",
            "receiver": "0xa253be28580ae23548a4182d95bf8201c28369a8",
            "revertMessage": "",
            "sender": "0x27a75906390206878bfa899caa3e14a482c259dc",
            "simulationEnable": true,
            "sourceTxnHash": "0xdb1d3cf2fdd7ed0f696fb113aa6ef8555ff7b3ff29a73dbe65e9aabcebfdfd7f",
            "status": true,
            "timestamp": "2018-10-15T20:29:03Z",
            "transactionFee": "0.00004385",
            "txnHash": "0xdb1d3cf2fdd7ed0f696fb113aa6ef8555ff7b3ff29a73dbe65e9aabcebfdfd7f",
            "txnIndex": 87,
            "type": 0,
            "value": "0"
        },
        "fund_flow": [
            {
                "amount": "50",
                "from": "0x27a75906390206878bfa899caa3e14a482c259dc",
                "id": 1,
                "isERC1155": false,
                "isERC721": false,
                "isReverted": false,
                "order": 1,
                "to": "0x55e6c3b84f3c42158c608ff29462d5616c3e90a6",
                "token": "0xa253be28580ae23548a4182d95bf8201c28369a8"
            }
        ],
        "token_infos": [
            {
                "address": "0xa253be28580ae23548a4182d95bf8201c28369a8",
                "decimals": 18
            },
            {
                "address": "0xc02aaa39b223fe8d0a0e5c4f27ead9083c756cc2",
                "decimals": 18
            },
            {
                "address": "0xeeeeeeeeeeeeeeeeeeeeeeeeeeeeeeeeeeeeeeee",
                "decimals": 18
            }
        ]
    },
    "address_label": {
        "labels": [
            {
                "address": "0x0000000000000000000000000000000000000003",
                "label": "Precompiled"
            },
            {
                "address": "0x0000000000000000000000000000000000000004",
                "label": "Precompiled"
            },
            {
                "address": "0xeeeeeeeeeeeeeeeeeeeeeeeeeeeeeeeeeeeeeeee",
                "label": "Ether"
            },
            {
                "address": "0xa253be28580ae23548a4182d95bf8201c28369a8",
                "label": "DIW Token (DIW)"
            },
            {
                "address": "0x0000000000000000000000000000000000000001",
                "label": "Precompiled"
            },
            {
                "address": "0x0000000000000000000000000000000000000002",
                "label": "Precompiled"
            }
        ]
    },
    "trace": {
        "accountLabels": null,
        "dataMap": {
            "-1": {
                "invocation": {
                    "address": "0x27a75906390206878bfa899caa3e14a482c259dc",
                    "callData": "",
                    "decodedMethod": null,
                    "errorInfo": "",
                    "fromAddress": "",
                    "gasUsed": 0,
                    "id": -1,
                    "methodDecoded": false,
                    "operation": "",
                    "output": "",
                    "revert": false,
                    "revertMessage": "",
                    "selector": "",
                    "status": false,
                    "value": ""
                },
                "nodeType": 0
            },
            "0": {
                "invocation": {
                    "address": "0xa253be28580ae23548a4182d95bf8201c28369a8",
                    "callData": "0x00000000000000000000000055e6c3b84f3c42158c608ff29462d5616c3e90a6000000000000000000000000000000000000000000000002b5e3af16b1880000",
                    "decodedMethod": {
                        "callParams": [
                            {
                                "name": "_to",
                                "type": "address",
                                "value": "0x55e6c3b84f3c42158c608ff29462d5616c3e90a6"
                            },
                            {
                                "decimalAvailable": true,
                                "name": "_value",
                                "type": "uint256",
                                "value": "50,000,000,000,000,000,000"
                            }
                        ],
                        "constructorArguments": "",
                        "name": "transfer",
                        "returnParams": [
                            {
                                "name": "",
                                "type": "bool",
                                "value": true
                            }
                        ],
                        "signature": "transfer(address,uint256)"
                    },
                    "errorInfo": "",
                    "fromAddress": "0x27a75906390206878bfa899caa3e14a482c259dc",
                    "gasUsed": 21925,
                    "id": 0,
                    "methodDecoded": true,
                    "operation": "CALL",
                    "output": "0x0000000000000000000000000000000000000000000000000000000000000001",
                    "revert": false,
                    "revertMessage": "",
                    "selector": "0xa9059cbb",
                    "status": true,
                    "value": "0"
                },
                "nodeType": 0
            },
            "1": {
                "event": {
                    "contract": "0xa253be28580ae23548a4182d95bf8201c28369a8",
                    "decodedLog": {
                        "name": "Transfer",
                        "params": [
                            {
                                "name": "from",
                                "type": "address",
                                "value": "0x27a75906390206878bfa899caa3e14a482c259dc"
                            },
                            {
                                "name": "to",
                                "type": "address",
                                "value": "0x55e6c3b84f3c42158c608ff29462d5616c3e90a6"
                            },
                            {
                                "decimalAvailable": true,
                                "name": "value",
                                "type": "uint256",
                                "value": "50,000,000,000,000,000,000"
                            }
                        ],
                        "signature": "Transfer(address,address,uint256)"
                    },
                    "id": 1,
                    "logData": "0x000000000000000000000000000000000000000000000002b5e3af16b1880000",
                    "logDecoded": true,
                    "operation": "EVENT",
                    "revert": false,
                    "status": true,
                    "topics": [
                        "0xddf252ad1be2c89b69c2b068fc378daa952ba7f163c4a11628f55a4df523b3ef",
                        "0x00000000000000000000000027a75906390206878bfa899caa3e14a482c259dc",
                        "0x00000000000000000000000055e6c3b84f3c42158c608ff29462d5616c3e90a6"
                    ]
                },
                "nodeType": 1
            }
        },
        "gasFlame": [
            {
                "children": [
                    {
                        "children": [
                            {
                                "children": [],
                                "depth": 0,
                                "name": "Initial Gas",
                                "value": 23256
                            },
                            {
                                "children": [],
                                "depth": 0,
                                "name": "Executed Gas",
                                "value": 13669
                            }
                        ],
                        "depth": -1,
                        "name": "Actual Gas Used",
                        "value": 21925
                    },
                    {
                        "children": [],
                        "depth": -1,
                        "name": "Refunded Gas",
                        "value": 15000
                    }
                ],
                "depth": -2,
                "name": "Total Gas",
                "value": 36925
            }
        ],
        "isConfirmed": true,
        "mainTrace": [
            {
                "children": [
                    {
                        "children": [
                            {
                                "children": [],
                                "depth": 1,
                                "id": 1,
                                "order": 1
                            }
                        ],
                        "depth": 0,
                        "id": 0,
                        "order": 0
                    }
                ],
                "depth": -1,
                "id": -1,
                "order": -1
            }
        ],
        "mainTraceNodeCount": 2,
        "parentIdMap": {
            "0": -1,
            "1": 0
        },
        "tidyTrace": [
            {
                "children": [
                    {
                        "children": [
                            {
                                "children": [],
                                "depth": 1,
                                "id": 1,
                                "order": 1
                            }
                        ],
                        "depth": 0,
                        "id": 0,
                        "order": 0
                    }
                ],
                "depth": -1,
                "id": -1,
                "order": -1
            }
        ],
        "tidyTraceNodeCount": 2
    },
    "state_change": {
        "stateChanges": [
            {
                "address": "0xa253be28580ae23548a4182d95bf8201c28369a8",
                "erc": "ERC-20",
                "slots": [
                    {
                        "current": "0x00000000000000000000000000000000000000000000046fb3a7922491980000",
                        "key": "0xaf2f1df2a9521269f88b57c440c2f079a0b133d64435271acadb8efaa7348026",
                        "prev": "0x00000000000000000000000000000000000000000000046cfdc3e30de0100000"
                    },
                    {
                        "current": "0x0000000000000000000000000000000000000000000000000000000000000000",
                        "key": "0x4b47863299ff77689336a8b63f45f84e63ddfe0e8f96ab07248ded9254697663",
                        "prev": "0x000000000000000000000000000000000000000000000002b5e3af16b1880000"
                    }
                ],
                "storageVariables": [
                    {
                        "name": "balances",
                        "type": "mapping(address => uint256)",
                        "value": {
                            "pairs": [
                                {
                                    "key": "0x27a75906390206878bfa899caa3e14a482c259dc",
                                    "value": {
                                        "current": "0",
                                        "prev": "50000000000000000000",
                                        "typeTag": 1
                                    }
                                },
                                {
                                    "key": "0x55e6c3b84f3c42158c608ff29462d5616c3e90a6",
                                    "value": {
                                        "current": "20950000000000000000000",
                                        "prev": "20900000000000000000000",
                                        "typeTag": 1
                                    }
                                }
                            ],
                            "typeTag": 4
                        }
                    }
                ]
            }
        ]
    }
}