{
    "balance_change": {
        "balanceChanges": [
            {
                "account": "0xa13aabe6a17bac77b659374cf4a005f7947c104b",
                "assets": [
                    {
                        "address": "0xeeeeeeeeeeeeeeeeeeeeeeeeeeeeeeeeeeeeeeee",
                        "amount": "0.004",
                        "iconUrl": "https://assets.blocksec.com/image/1663669189317-3.png",
                        "isERC1155": false,
                        "isERC721": false,
                        "sign": true,
                        "value": ""
                    },
                    {
                        "address": "0xff71cb760666ab06aa73f34995b42dd4b85ea07b",
                        "amount": "123",
                        "iconUrl": "",
                        "isERC1155": false,
                        "isERC721": false,
                        "sign": false,
                        "value": ""
                    }
                ]
            },
            {
                "account": "0x024946f63dc4bc5307c376ce54bafcbbc243f4d5",
                "assets": [
                    {
                        "address": "0xeeeeeeeeeeeeeeeeeeeeeeeeeeeeeeeeeeeeeeee",
                        "amount": "0.004",
                        "iconUrl": "https://assets.blocksec.com/image/1663669189317-3.png",
                        "isERC1155": false,
                        "isERC721": false,
                        "sign": false,
                        "value": ""
                    }
                ]
            },
            {
                "account": "0x692b90983c0ced5b8ae7c66cebdb7e45e589ab67",
                "assets": [
                    {
                        "address": "0xff71cb760666ab06aa73f34995b42dd4b85ea07b",
                        "amount": "123",
                        "iconUrl": "",
                        "isERC1155": false,
                        "isERC721": false,
                        "sign": true,
                        "value": ""
                    }
                ]
            }
        ]
    },
    "profile": {
        "basic_info": {
            "baseFee": "",
            "blockNumber": 1974398,
            "callData": "0xa9059cbb000000000000000000000000692b90983c0ced5b8ae7c66cebdb7e45e589ab67000000000000000000000000000000000000000000000000000000000000007b",
            "debugEnable": true,
            "errorInfo": "",
            "eventCount": 2,
            "feeRecipient": "0xbcdfc35b86bedf72f0cda046a3c16829a2ef41d1",
            "formatValue": "0",
            "gasLimit": 200000,
            "gasPrice": "20",
            "gasUsed": 66960,
            "intTxnCount": 13,
            "internalRevert": false,
            "internalRevertMessage": "",
            "isContractCreation": false,
            "isFlashloan": false,
            "maxFee": "",
            "nonce": 0,
            "overwritedBlockNumber": -1,
            "priorityFee": "",
            "receiver": "0xff71cb760666ab06aa73f34995b42dd4b85ea07b",
            "revertMessage": "",
            "sender": "0xa13aabe6a17bac77b659374cf4a005f7947c104b",
            "simulationEnable": true,
            "sourceTxnHash": "0xdcac70a14861529be1b07c232f9b366a396c4b150c217f25f5af82c4f53cde1b",
            "status": true,
            "timestamp": "2016-07-29T14:58:45Z",
            "transactionFee": "0.0013392",
            "txnHash": "0xdcac70a14861529be1b07c232f9b366a396c4b150c217f25f5af82c4f53cde1b",
            "txnIndex": 1,
            "type": 0,
            "value": "0"
        },
        "fund_flow": [
            {
                "amount": "0.004",
                "from": "0x024946f63dc4bc5307c376ce54bafcbbc243f4d5",
                "id": 1,
                "isERC1155": false,
                "isERC721": false,
                "isReverted": false,
                "order": 1,
                "to": "0xa13aabe6a17bac77b659374cf4a005f7947c104b",
                "token": "0xeeeeeeeeeeeeeeeeeeeeeeeeeeeeeeeeeeeeeeee"
            },
            {
                "amount": "123",
                "from": "0xa13aabe6a17bac77b659374cf4a005f7947c104b",
                "id": 2,
                "isERC1155": false,
                "isERC721": false,
                "isReverted": false,
                "order": 2,
                "to": "0x692b90983c0ced5b8ae7c66cebdb7e45e589ab67",
                "token": "0xff71cb760666ab06aa73f34995b42dd4b85ea07b"
            }
        ],
        "token_infos": [
            {
                "address": "0xc02aaa39b223fe8d0a0e5c4f27ead9083c756cc2",
                "decimals": 18
            },
            {
                "address": "0xeeeeeeeeeeeeeeeeeeeeeeeeeeeeeeeeeeeeeeee",
                "decimals": 18
            }
        ]
    },
    "address_label": {
        "labels": [
            {
                "address": "0xff71cb760666ab06aa73f34995b42dd4b85ea07b",
                "label": "THBEX (THBEX)"
            },
            {
                "address": "0x0000000000000000000000000000000000000004",
                "label": "Precompiled"
            },
            {
                "address": "0x0000000000000000000000000000000000000001",
                "label": "Precompiled"
            },
            {
                "address": "0x0000000000000000000000000000000000000002",
                "label": "Precompiled"
            },
            {
                "address": "0x0000000000000000000000000000000000000003",
                "label": "Precompiled"
            },
            {
                "address": "0xeeeeeeeeeeeeeeeeeeeeeeeeeeeeeeeeeeeeeeee",
                "label": "Ether"
            }
        ]
    },
    "trace": {
        "accountLabels": null,
        "dataMap": {
            "-1": {
                "invocation": {
                    "address": "0xa13aabe6a17bac77b659374cf4a005f7947c104b",
                    "callData": "",
                    "decodedMethod": null,
                    "errorInfo": "",
                    "fromAddress": "",
                    "gasUsed": 0,
                    "id": -1,
                    "methodDecoded": false,
                    "operation": "",
                    "output": "",
                    "revert": false,
                    "revertMessage": "",
                    "selector": "",
                    "status": false,
                    "value": ""
                },
                "nodeType": 0
            },
            "0": {
                "invocation": {
                    "address": "0xff71cb760666ab06aa73f34995b42dd4b85ea07b",
                    "callData": "0x000000000000000000000000692b90983c0ced5b8ae7c66cebdb7e45e589ab67000000000000000000000000000000000000000000000000000000000000007b",
                    "decodedMethod": {
                        "callParams": [
                            {
                                "name": "recipient",
                                "type": "address",
                                "value": "0x692b90983c0ced5b8ae7c66cebdb7e45e589ab67"
                            },
                            {
                                "decimalAvailable": true,
                                "name": "amount",
                                "type": "uint256",
                                "value": "123"
                            }
                        ],
                        "constructorArguments": "",
                        "name": "transfer",
                        "returnParams": [
                            {
                                "name": "",
                                "type": "bool",
                                "value": true
                            }
                        ],
                        "signature": "transfer(address,uint256)"
                    },
                    "errorInfo": "",
                    "fromAddress": "0xa13aabe6a17bac77b659374cf4a005f7947c104b",
                    "gasUsed": 66960,
                    "id": 0,
                    "methodDecoded": true,
                    "operation": "CALL",
                    "output": "0x0000000000000000000000000000000000000000000000000000000000000001",
                    "revert": false,
                    "revertMessage": "",
                    "selector": "0xa9059cbb",
                    "status": true,
                    "value": "0"
                },
                "nodeType": 0
            },
            "1": {
                "invocation": {
                    "address": "0x024946f63dc4bc5307c376ce54bafcbbc243f4d5",
                    "callData": "0x000000000000000000000000a13aabe6a17bac77b659374cf4a005f7947c104b000000000000000000000000692b90983c0ced5b8ae7c66cebdb7e45e589ab67000000000000000000000000000000000000000000000000000000000000007b",
                    "decodedMethod": {
                        "callParams": [
                            {
                                "name": "token",
                                "type": "address",
                                "value": "0xa13aabe6a17bac77b659374cf4a005f7947c104b"
                            },
                            {
                                "name": "to",
                                "type": "address",
                                "value": "0x692b90983c0ced5b8ae7c66cebdb7e45e589ab67"
                            },
                            {
                                "name": "amount",
                                "type": "uint256",
                                "value": "123"
                            }
                        ],
                        "constructorArguments": "",
                        "name": "send",
                        "returnParams": [],
                        "signature": "send(address,address,uint256)"
                    },
                    "errorInfo": "",
                    "fromAddress": "0xff71cb760666ab06aa73f34995b42dd4b85ea07b",
                    "gasUsed": 38805,
                    "id": 1,
                    "methodDecoded": true,
                    "operation": "CALL",
                    "output": "0x0000000000000000000000000000000000000000000000000000000000000001",
                    "revert": false,
                    "revertMessage": "",
                    "selector": "0x0779afe6",
                    "status": true,
                    "value": "0"
                },
                "nodeType": 0
            },
            "10": {
                "invocation": {
                    "address": "0xa13aabe6a17bac77b659374cf4a005f7947c104b",
                    "callData": "0x",
                    "decodedMethod": null,
                    "errorInfo": "",
                    "fromAddress": "0x024946f63dc4bc5307c376ce54bafcbbc243f4d5",
                    "gasUsed": 0,
                    "id": 10,
                    "methodDecoded": false,
                    "operation": "CALL",
                    "output": "",
                    "revert": false,
                    "revertMessage": "",
                    "selector": "fallback",
                    "status": true,
                    "value": "0.004"
                },
                "nodeType": 0
            },
            "11": {
                "invocation": {
                    "address": "0x0000000000000000000000000000000000000004",
                    "callData": "0x726163742e6973416374697665",
                    "decodedMethod": {
                        "callParams": [
                            {
                                "name": "data",
                                "type": "bytes",
                                "value": "0x636f6e74726163742e6973416374697665"
                            }
                        ],
                        "constructorArguments": "",
                        "name": "dataCopy()",
                        "returnParams": [
                            {
                                "name": "data",
                                "type": "bytes",
                                "value": "0x636f6e74726163742e6973416374697665"
                            }
                        ],
                        "signature": "dataCopy(bytes)"
                    },
                    "errorInfo": "",
                    "fromAddress": "0x024946f63dc4bc5307c376ce54bafcbbc243f4d5",
                    "gasUsed": 18,
                    "id": 11,
                    "methodDecoded": true,
                    "operation": "CALL",
                    "output": "0x636f6e74726163742e6973416374697665",
                    "revert": false,
                    "revertMessage": "",
                    "selector": "0x636f6e74",
                    "status": true,
                    "value": "0"
                },
                "nodeType": 0
            },
            "12": {
                "invocation": {
                    "address": "0x0000000000000000000000000000000000000004",
                    "callData": "0x6c6c2e6d696e42616c616e6365",
                    "decodedMethod": {
                        "callParams": [
                            {
                                "name": "data",
                                "type": "bytes",
                                "value": "0x726566696c6c2e6d696e42616c616e6365"
                            }
                        ],
                        "constructorArguments": "",
                        "name": "dataCopy()",
                        "returnParams": [
                            {
                                "name": "data",
                                "type": "bytes",
                                "value": "0x726566696c6c2e6d696e42616c616e6365"
                            }
                        ],
                        "signature": "dataCopy(bytes)"
                    },
                    "errorInfo": "",
                    "fromAddress": "0x024946f63dc4bc5307c376ce54bafcbbc243f4d5",
                    "gasUsed": 18,
                    "id": 12,
                    "methodDecoded": true,
                    "operation": "CALL",
                    "output": "0x726566696c6c2e6d696e42616c616e6365",
                    "revert": false,
                    "revertMessage": "",
                    "selector": "0x72656669",
                    "status": true,
                    "value": "0"
                },
                "nodeType": 0
            },
            "13": {
                "invocation": {
                    "address": "0x0000000000000000000000000000000000000004",
                    "callData": "0x6c6c2e726566696c6c546f",
                    "decodedMethod": {
                        "callParams": [
                            {
                                "name": "data",
                                "type": "bytes",
                                "value": "0x726566696c6c2e726566696c6c546f"
                            }
                        ],
                        "constructorArguments": "",
                        "name": "dataCopy()",
                        "returnParams": [
                            {
                                "name": "data",
                                "type": "bytes",
                                "value": "0x726566696c6c2e726566696c6c546f"
                            }
                        ],
                        "signature": "dataCopy(bytes)"
                    },
                    "errorInfo": "",
                    "fromAddress": "0x024946f63dc4bc5307c376ce54bafcbbc243f4d5",
                    "gasUsed": 18,
                    "id": 13,
                    "methodDecoded": true,
                    "operation": "CALL",
                    "output": "0x726566696c6c2e726566696c6c546f",
                    "revert": false,
                    "revertMessage": "",
                    "selector": "0x72656669",
                    "status": true,
                    "value": "0"
                },
                "nodeType": 0
            },
            "14": {
                "event": {
                    "contract": "0xff71cb760666ab06aa73f34995b42dd4b85ea07b",
                    "decodedLog": {
                        "name": "Transfer",
                        "params": [
                            {
                                "name": "from",
                                "type": "address",
                                "value": "0xa13aabe6a17bac77b659374cf4a005f7947c104b"
                            },
                            {
                                "name": "to",
                                "type": "address",
                                "value": "0x692b90983c0ced5b8ae7c66cebdb7e45e589ab67"
                            },
                            {
                                "decimalAvailable": true,
                                "name": "value",
                                "type": "uint256",
                                "value": "123"
                            }
                        ],
                        "signature": "Transfer(address,address,uint256)"
                    },
                    "id": 14,
                    "logData": "0x000000000000000000000000000000000000000000000000000000000000007b",
                    "logDecoded": true,
                    "operation": "EVENT",
                    "revert": false,
                    "status": true,
                    "topics": [
                        "0xddf252ad1be2c89b69c2b068fc378daa952ba7f163c4a11628f55a4df523b3ef",
                        "0x000000000000000000000000a13aabe6a17bac77b659374cf4a005f7947c104b",
                        "0x000000000000000000000000692b90983c0ced5b8ae7c66cebdb7e45e589ab67"
                    ]
                },
                "nodeType": 1
            },
            "15": {
                "event": {
                    "contract": "0xff71cb760666ab06aa73f34995b42dd4b85ea07b",
                    "decodedLog": null,
                    "id": 15,
                    "logData": "0x000000000000000000000000000000000000000000000000000000000000007b00000000000000000000000000000000000000000000000000000000579b6f25",
                    "logDecoded": false,
                    "operation": "EVENT",
                    "revert": false,
                    "status": true,
                    "topics": [
                        "0x436afd08e8cbecd4e5688f6ecb7e3b36b5652b405176dc453c763a8d2f1b0345",
                        "0x000000000000000000000000a13aabe6a17bac77b659374cf4a005f7947c104b",
                        "0x000000000000000000000000692b90983c0ced5b8ae7c66cebdb7e45e589ab67"
                    ]
                },
                "nodeType": 1
            },
            "2": {
                "invocation": {
                    "address": "0x0000000000000000000000000000000000000004",
                    "callData": "0x726163742e6973416374697665",
                    "decodedMethod": {
                        "callParams": [
                            {
                                "name": "data",
                                "type": "bytes",
                                "value": "0x636f6e74726163742e6973416374697665"
                            }
                        ],
                        "constructorArguments": "",
                        "name": "dataCopy()",
                        "returnParams": [
                            {
                                "name": "data",
                                "type": "bytes",
                                "value": "0x636f6e74726163742e6973416374697665"
                            }
                        ],
                        "signature": "dataCopy(bytes)"
                    },
                    "errorInfo": "",
                    "fromAddress": "0x024946f63dc4bc5307c376ce54bafcbbc243f4d5",
                    "gasUsed": 18,
                    "id": 2,
                    "methodDecoded": true,
                    "operation": "CALL",
                    "output": "0x636f6e74726163742e6973416374697665",
                    "revert": false,
                    "revertMessage": "",
                    "selector": "0x636f6e74",
                    "status": true,
                    "value": "0"
                },
                "nodeType": 0
            },
            "3": {
                "invocation": {
                    "address": "0xff71cb760666ab06aa73f34995b42dd4b85ea07b",
                    "callData": "0x000000000000000000000000a13aabe6a17bac77b659374cf4a005f7947c104b000000000000000000000000692b90983c0ced5b8ae7c66cebdb7e45e589ab67",
                    "decodedMethod": {
                        "callParams": [
                            {
                                "name": "token",
                                "type": "address",
                                "value": "0xa13aabe6a17bac77b659374cf4a005f7947c104b"
                            },
                            {
                                "name": "add",
                                "type": "address",
                                "value": "0x692b90983c0ced5b8ae7c66cebdb7e45e589ab67"
                            }
                        ],
                        "constructorArguments": "",
                        "name": "getBalances",
                        "returnParams": [
                            {
                                "name": "",
                                "type": "uint256",
                                "value": "2,803,250"
                            }
                        ],
                        "signature": "getBalances(address,address)"
                    },
                    "errorInfo": "",
                    "fromAddress": "0x024946f63dc4bc5307c376ce54bafcbbc243f4d5",
                    "gasUsed": 447,
                    "id": 3,
                    "methodDecoded": true,
                    "operation": "CALL",
                    "output": "0x00000000000000000000000000000000000000000000000000000000002ac6320000000000000000000000000000000000000000000000000000000000000000",
                    "revert": false,
                    "revertMessage": "",
                    "selector": "0x045d46c2",
                    "status": true,
                    "value": "0"
                },
                "nodeType": 0
            },
            "4": {
                "invocation": {
                    "address": "0x0000000000000000000000000000000000000004",
                    "callData": "0x736665722e6c696d69742e6973416374697665",
                    "decodedMethod": {
                        "callParams": [
                            {
                                "name": "data",
                                "type": "bytes",
                                "value": "0x7472616e736665722e6c696d69742e6973416374697665"
                            }
                        ],
                        "constructorArguments": "",
                        "name": "dataCopy()",
                        "returnParams": [
                            {
                                "name": "data",
                                "type": "bytes",
                                "value": "0x7472616e736665722e6c696d69742e6973416374697665"
                            }
                        ],
                        "signature": "dataCopy(bytes)"
                    },
                    "errorInfo": "",
                    "fromAddress": "0x024946f63dc4bc5307c376ce54bafcbbc243f4d5",
                    "gasUsed": 18,
                    "id": 4,
                    "methodDecoded": true,
                    "operation": "CALL",
                    "output": "0x7472616e736665722e6c696d69742e6973416374697665",
                    "revert": false,
                    "revertMessage": "",
                    "selector": "0x7472616e",
                    "status": true,
                    "value": "0"
                },
                "nodeType": 0
            },
            "5": {
                "invocation": {
                    "address": "0xff71cb760666ab06aa73f34995b42dd4b85ea07b",
                    "callData": "0x000000000000000000000000a13aabe6a17bac77b659374cf4a005f7947c104b00000000000000000000000000000000000000000000000000000000002ac5b7",
                    "decodedMethod": {
                        "callParams": [
                            {
                                "name": "target",
                                "type": "address",
                                "value": "0xa13aabe6a17bac77b659374cf4a005f7947c104b"
                            },
                            {
                                "name": "value",
                                "type": "uint256",
                                "value": "2,803,127"
                            }
                        ],
                        "constructorArguments": "",
                        "name": "setAddressBalance",
                        "returnParams": [],
                        "signature": "setAddressBalance(address,uint256)"
                    },
                    "errorInfo": "",
                    "fromAddress": "0x024946f63dc4bc5307c376ce54bafcbbc243f4d5",
                    "gasUsed": 5421,
                    "id": 5,
                    "methodDecoded": true,
                    "operation": "CALL",
                    "output": "",
                    "revert": false,
                    "revertMessage": "",
                    "selector": "0x09901f70",
                    "status": true,
                    "value": "0"
                },
                "nodeType": 0
            },
            "6": {
                "invocation": {
                    "address": "0xff71cb760666ab06aa73f34995b42dd4b85ea07b",
                    "callData": "0x000000000000000000000000692b90983c0ced5b8ae7c66cebdb7e45e589ab67000000000000000000000000000000000000000000000000000000000000007b",
                    "decodedMethod": {
                        "callParams": [
                            {
                                "name": "target",
                                "type": "address",
                                "value": "0x692b90983c0ced5b8ae7c66cebdb7e45e589ab67"
                            },
                            {
                                "name": "value",
                                "type": "uint256",
                                "value": "123"
                            }
                        ],
                        "constructorArguments": "",
                        "name": "setAddressBalance",
                        "returnParams": [],
                        "signature": "setAddressBalance(address,uint256)"
                    },
                    "errorInfo": "",
                    "fromAddress": "0x024946f63dc4bc5307c376ce54bafcbbc243f4d5",
                    "gasUsed": 20421,
                    "id": 6,
                    "methodDecoded": true,
                    "operation": "CALL",
                    "output": "",
                    "revert": false,
                    "revertMessage": "",
                    "selector": "0x09901f70",
                    "status": true,
                    "value": "0"
                },
                "nodeType": 0
            },
            "7": {
                "invocation": {
                    "address": "0x0000000000000000000000000000000000000004",
                    "callData": "0x726163742e6973416374697665",
                    "decodedMethod": {
                        "callParams": [
                            {
                                "name": "data",
                                "type": "bytes",
                                "value": "0x636f6e74726163742e6973416374697665"
                            }
                        ],
                        "constructorArguments": "",
                        "name": "dataCopy()",
                        "returnParams": [
                            {
                                "name": "data",
                                "type": "bytes",
                                "value": "0x636f6e74726163742e6973416374697665"
                            }
                        ],
                        "signature": "dataCopy(bytes)"
                    },
                    "errorInfo": "",
                    "fromAddress": "0x024946f63dc4bc5307c376ce54bafcbbc243f4d5",
                    "gasUsed": 18,
                    "id": 7,
                    "methodDecoded": true,
                    "operation": "CALL",
                    "output": "0x636f6e74726163742e6973416374697665",
                    "revert": false,
                    "revertMessage": "",
                    "selector": "0x636f6e74",
                    "status": true,
                    "value": "0"
                },
                "nodeType": 0
            },
            "8": {
                "invocation": {
                    "address": "0x0000000000000000000000000000000000000004",
                    "callData": "0x6c6c2e6d696e42616c616e6365",
                    "decodedMethod": {
                        "callParams": [
                            {
                                "name": "data",
                                "type": "bytes",
                                "value": "0x726566696c6c2e6d696e42616c616e6365"
                            }
                        ],
                        "constructorArguments": "",
                        "name": "dataCopy()",
                        "returnParams": [
                            {
                                "name": "data",
                                "type": "bytes",
                                "value": "0x726566696c6c2e6d696e42616c616e6365"
                            }
                        ],
                        "signature": "dataCopy(bytes)"
                    },
                    "errorInfo": "",
                    "fromAddress": "0x024946f63dc4bc5307c376ce54bafcbbc243f4d5",
                    "gasUsed": 18,
                    "id": 8,
                    "methodDecoded": true,
                    "operation": "CALL",
                    "output": "0x726566696c6c2e6d696e42616c616e6365",
                    "revert": false,
                    "revertMessage": "",
                    "selector": "0x72656669",
                    "status": true,
                    "value": "0"
                },
                "nodeType": 0
            },
            "9": {
                "invocation": {
                    "address": "0x0000000000000000000000000000000000000004",
                    "callData": "0x6c6c2e726566696c6c546f",
                    "decodedMethod": {
                        "callParams": [
                            {
                                "name": "data",
                                "type": "bytes",
                                "value": "0x726566696c6c2e726566696c6c546f"
                            }
                        ],
                        "constructorArguments": "",
                        "name": "dataCopy()",
                        "returnParams": [
                            {
                                "name": "data",
                                "type": "bytes",
                                "value": "0x726566696c6c2e726566696c6c546f"
                            }
                        ],
                        "signature": "dataCopy(bytes)"
                    },
                    "errorInfo": "",
                    "fromAddress": "0x024946f63dc4bc5307c376ce54bafcbbc243f4d5",
                    "gasUsed": 18,
                    "id": 9,
                    "methodDecoded": true,
                    "operation": "CALL",
                    "output": "0x726566696c6c2e726566696c6c546f",
                    "revert": false,
                    "revertMessage": "",
                    "selector": "0x72656669",
                    "status": true,
                    "value": "0"
                },
                "nodeType": 0
            }
        },
        "gasFlame": [
            {
                "children": [
                    {
                        "children": [
                            {
                                "children": [],
                                "depth": 0,
                                "name": "Initial Gas",
                                "value": 22872
                            },
                            {
                                "children": [
                                    {
                                        "children": [
                                            {
                                                "children": [],
                                                "depth": 2,
                                                "name": "dataCopy()",
                                                "value": 18
                                            },
                                            {
                                                "children": [],
                                                "depth": 2,
                                                "name": "getBalances",
                                                "value": 447
                                            },
                                            {
                                                "children": [],
                                                "depth": 2,
                                                "name": "dataCopy()",
                                                "value": 18
                                            },
                                            {
                                                "children": [],
                                                "depth": 2,
                                                "name": "setAddressBalance",
                                                "value": 5421
                                            },
                                            {
                                                "children": [],
                                                "depth": 2,
                                                "name": "setAddressBalance",
                                                "value": 20421
                                            },
                                            {
                                                "children": [],
                                                "depth": 2,
                                                "name": "dataCopy()",
                                                "value": 18
                                            },
                                            {
                                                "children": [],
                                                "depth": 2,
                                                "name": "dataCopy()",
                                                "value": 18
                                            },
                                            {
                                                "children": [],
                                                "depth": 2,
                                                "name": "dataCopy()",
                                                "value": 18
                                            },
                                            {
                                                "children": [],
                                                "depth": 2,
                                                "name": "fallback",
                                                "value": 0
                                            },
                                            {
                                                "children": [],
                                                "depth": 2,
                                                "name": "dataCopy()",
                                                "value": 18
                                            },
                                            {
                                                "children": [],
                                                "depth": 2,
                                                "name": "dataCopy()",
                                                "value": 18
                                            },
                                            {
                                                "children": [],
                                                "depth": 2,
                                                "name": "dataCopy()",
                                                "value": 18
                                            }
                                        ],
                                        "depth": 1,
                                        "name": "send",
                                        "value": 38805
                                    }
                                ],
                                "depth": 0,
                                "name": "Executed Gas",
                                "value": 44088
                            }
                        ],
                        "depth": -1,
                        "name": "Actual Gas Used",
                        "value": 66960
                    },
                    {
                        "children": [],
                        "depth": -1,
                        "name": "Refunded Gas",
                        "value": 0
                    }
                ],
                "depth": -2,
                "name": "Total Gas",
                "value": 66960
            }
        ],
        "isConfirmed": true,
        "mainTrace": [
            {
                "children": [
                    {
                        "children": [
                            {
                                "children": [
                                    {
                                        "children": [],
                                        "depth": 2,
                                        "id": 2,
                                        "order": 2
                                    },
                                    {
                                        "children": [],
                                        "depth": 2,
                                        "id": 3,
                                        "order": 3
                                    },
                                    {
                                        "children": [],
                                        "depth": 2,
                                        "id": 4,
                                        "order": 4
                                    },
                                    {
                                        "children": [],
                                        "depth": 2,
                                        "id": 5,
                                        "order": 5
                                    },
                                    {
                                        "children": [],
                                        "depth": 2,
                                        "id": 6,
                                        "order": 6
                                    },
                                    {
                                        "children": [],
                                        "depth": 2,
                                        "id": 7,
                                        "order": 7
                                    },
                                    {
                                        "children": [],
                                        "depth": 2,
                                        "id": 8,
                                        "order": 8
                                    },
                                    {
                                        "children": [],
                                        "depth": 2,
                                        "id": 9,
                                        "order": 9
                                    },
                                    {
                                        "children": [],
                                        "depth": 2,
                                        "id": 10,
                                        "order": 10
                                    },
                                    {
                                        "children": [],
                                        "depth": 2,
                                        "id": 11,
                                        "order": 11
                                    },
                                    {
                                        "children": [],
                                        "depth": 2,
                                        "id": 12,
                                        "order": 12
                                    },
                                    {
                                        "children": [],
                                        "depth": 2,
                                        "id": 13,
                                        "order": 13
                                    }
                                ],
                                "depth": 1,
                                "id": 1,
                                "order": 1
                            },
                            {
                                "children": [],
                                "depth": 1,
                                "id": 14,
                                "order": 14
                            },
                            {
                                "children": [],
                                "depth": 1,
                                "id": 15,
                                "order": 15
                            }
                        ],
                        "depth": 0,
                        "id": 0,
                        "order": 0
                    }
                ],
                "depth": -1,
                "id": -1,
                "order": -1
            }
        ],
        "mainTraceNodeCount": 16,
        "parentIdMap": {
            "0": -1,
            "1": 0,
            "10": 1,
            "11": 1,
            "12": 1,
            "13": 1,
            "14": 0,
            "15": 0,
            "2": 1,
            "3": 1,
            "4": 1,
            "5": 1,
            "6": 1,
            "7": 1,
            "8": 1,
            "9": 1
        },
        "tidyTrace": [
            {
                "children": [
                    {
                        "children": [
                            {
                                "children": [
                                    {
                                        "children": [],
                                        "depth": 2,
                                        "id": 2,
                                        "order": 2
                                    },
                                    {
                                        "children": [],
                                        "depth": 2,
                                        "id": 3,
                                        "order": 3
                                    },
                                    {
                                        "children": [],
                                        "depth": 2,
                                        "id": 4,
                                        "order": 4
                                    },
                                    {
                                        "children": [],
                                        "depth": 2,
                                        "id": 5,
                                        "order": 5
                                    },
                                    {
                                        "children": [],
                                        "depth": 2,
                                        "id": 6,
                                        "order": 6
                                    },
                                    {
                                        "children": [],
                                        "depth": 2,
                                        "id": 7,
                                        "order": 7
                                    },
                                    {
                                        "children": [],
                                        "depth": 2,
                                        "id": 8,
                                        "order": 8
                                    },
                                    {
                                        "children": [],
                                        "depth": 2,
                                        "id": 9,
                                        "order": 9
                                    },
                                    {
                                        "children": [],
                                        "depth": 2,
                                        "id": 10,
                                        "order": 10
                                    },
                                    {
                                        "children": [],
                                        "depth": 2,
                                        "id": 11,
                                        "order": 11
                                    },
                                    {
                                        "children": [],
                                        "depth": 2,
                                        "id": 12,
                                        "order": 12
                                    },
                                    {
                                        "children": [],
                                        "depth": 2,
                                        "id": 13,
                                        "order": 13
                                    }
                                ],
                                "depth": 1,
                                "id": 1,
                                "order": 1
                            },
                            {
                                "children": [],
                                "depth": 1,
                                "id": 14,
                                "order": 14
                            },
                            {
                                "children": [],
                                "depth": 1,
                                "id": 15,
                                "order": 15
                            }
                        ],
                        "depth": 0,
                        "id": 0,
                        "order": 0
                    }
                ],
                "depth": -1,
                "id": -1,
                "order": -1
            }
        ],
        "tidyTraceNodeCount": 16
    },
    "state_change": {
        "stateChanges": [
            {
                "address": "0xff71cb760666ab06aa73f34995b42dd4b85ea07b",
                "erc": "",
                "slots": [
                    {
                        "current": "0x00000000000000000000000000000000000000000000000000000000002ac5b7",
                        "key": "0x14977315865239215aa388ef65af27115e861c47859aa32929d91e2a3d1ef26c",
                        "prev": "0x00000000000000000000000000000000000000000000000000000000002ac632"
                    },
                    {
                        "current": "0x000000000000000000000000000000000000000000000000000000000000007b",
                        "key": "0xd3874ecfbd540b213848e6a7904d66174639bfc5a42990655518f74134c08014",
                        "prev": "0x0000000000000000000000000000000000000000000000000000000000000000"
                    }
                ],
                "storageVariables": []
            }
        ]
    }
}