{
    "balance_change": {
        "balanceChanges": []
    },
    "profile": {
        "basic_info": {
            "baseFee": "12.511106331",
            "blockNumber": 19145398,
            "callData": "0x32db547000000000000000000000000000000000000000000000000000000002540fde5c0000000000000000000000000000000000000000000000cae420f1fb23686b9e0000000000000000000000000000000000000000000000c748b354b08d06222c0000000000000000000000000000000000000000000000bbfbab93181311240c",
            "debugEnable": true,
            "errorInfo": "",
            "eventCount": 2,
            "feeRecipient": "0xb279d48442aafcf8f2af6d9e7d5d9c23f63b4e16",
            "formatValue": "0",
            "gasLimit": 5000000,
            "gasPrice": "12.521106331",
            "gasUsed": 184654,
            "intTxnCount": 22,
            "internalRevert": false,
            "internalRevertMessage": "",
            "isContractCreation": false,
            "isFlashloan": false,
            "maxFee": "17.836992835",
            "nonce": 7088,
            "overwritedBlockNumber": -1,
            "priorityFee": "0.01",
            "receiver": "0xda9726fd1b125a3923f9d9521e28fe888091698d",
            "revertMessage": "",
            "sender": "0x80aa112eed03dcc44bee7f2a1da7e5a0d04591bd",
            "simulationEnable": true,
            "sourceTxnHash": "0xdccddb14c4b94935644d1ad9c15aca45620963b2f6c62cfa57f6a49465966539",
            "status": true,
            "timestamp": "2024-02-03T04:14:47Z",
            "transactionFee": "0.002312072368444474",
            "txnHash": "0xdccddb14c4b94935644d1ad9c15aca45620963b2f6c62cfa57f6a49465966539",
            "txnIndex": 115,
            "type": 2,
            "value": "0"
        },
        "fund_flow": [],
        "token_infos": [
            {
                "address": "0xc02aaa39b223fe8d0a0e5c4f27ead9083c756cc2",
                "decimals": 18
            },
            {
                "address": "0xeeeeeeeeeeeeeeeeeeeeeeeeeeeeeeeeeeeeeeee",
                "decimals": 18
            }
        ]
    },
    "address_label": {
        "labels": [
            {
                "address": "0xd8575c32bbc1ea9d33856a6de74be258712307a8",
                "label": "StafiNodeManager"
            },
            {
                "address": "0x0000000000000000000000000000000000000001",
                "label": "Precompiled"
            },
            {
                "address": "0x0000000000000000000000000000000000000002",
                "label": "Precompiled"
            },
            {
                "address": "0x0000000000000000000000000000000000000003",
                "label": "Precompiled"
            },
            {
                "address": "0x0000000000000000000000000000000000000004",
                "label": "Precompiled"
            },
            {
                "address": "0xeeeeeeeeeeeeeeeeeeeeeeeeeeeeeeeeeeeeeeee",
                "label": "Ether"
            }
        ]
    },
    "trace": {
        "accountLabels": null,
        "dataMap": {
            "-1": {
                "invocation": {
                    "address": "0x80aa112eed03dcc44bee7f2a1da7e5a0d04591bd",
                    "callData": "",
                    "decodedMethod": null,
                    "errorInfo": "",
                    "fromAddress": "",
                    "gasUsed": 0,
                    "id": -1,
                    "methodDecoded": false,
                    "operation": "",
                    "output": "",
                    "revert": false,
                    "revertMessage": "",
                    "selector": "",
                    "status": false,
                    "value": ""
                },
                "nodeType": 0
            },
            "0": {
                "invocation": {
                    "address": "0xda9726fd1b125a3923f9d9521e28fe888091698d",
                    "callData": "0x00000000000000000000000000000000000000000000000000000002540fde5c0000000000000000000000000000000000000000000000cae420f1fb23686b9e0000000000000000000000000000000000000000000000c748b354b08d06222c0000000000000000000000000000000000000000000000bbfbab93181311240c",
                    "decodedMethod": {
                        "callParams": [
                            {
                                "name": "_block",
                                "type": "uint256",
                                "value": "10,000,260,700"
                            },
                            {
                                "name": "_totalEth",
                                "type": "uint256",
                                "value": "3,742,680,707,590,164,867,998"
                            },
                            {
                                "name": "_stakingEth",
                                "type": "uint256",
                                "value": "3,676,140,694,577,019,757,100"
                            },
                            {
                                "name": "_rethSupply",
                                "type": "uint256",
                                "value": "3,467,675,891,839,831,974,924"
                            }
                        ],
                        "constructorArguments": "",
                        "name": "submitBalances",
                        "returnParams": [],
                        "signature": "submitBalances(uint256,uint256,uint256,uint256)"
                    },
                    "errorInfo": "",
                    "fromAddress": "0x80aa112eed03dcc44bee7f2a1da7e5a0d04591bd",
                    "gasUsed": 184654,
                    "id": 0,
                    "methodDecoded": true,
                    "operation": "CALL",
                    "output": "",
                    "revert": false,
                    "revertMessage": "",
                    "selector": "0x32db5470",
                    "status": true,
                    "value": "0"
                },
                "nodeType": 0
            },
            "1": {
                "invocation": {
                    "address": "0x6c2f7b6110a37b3b0fbdd811876be368df02e8b0",
                    "callData": "0xf555eab20ddd3f4fe99457e9b77d0ac0ffd7bb5fc8dba3891cfaa61feb9a8c65",
                    "decodedMethod": {
                        "callParams": [
                            {
                                "name": "id",
                                "type": "bytes32",
                                "value": "0xf555eab20ddd3f4fe99457e9b77d0ac0ffd7bb5fc8dba3891cfaa61feb9a8c65"
                            }
                        ],
                        "constructorArguments": "",
                        "name": "getAddress",
                        "returnParams": [
                            {
                                "name": "",
                                "type": "address",
                                "value": "0xda9726fd1b125a3923f9d9521e28fe888091698d"
                            }
                        ],
                        "signature": "getAddress(bytes32)"
                    },
                    "errorInfo": "",
                    "fromAddress": "0xda9726fd1b125a3923f9d9521e28fe888091698d",
                    "gasUsed": 2588,
                    "id": 1,
                    "methodDecoded": true,
                    "operation": "STATICCALL",
                    "output": "0x000000000000000000000000da9726fd1b125a3923f9d9521e28fe888091698d",
                    "revert": false,
                    "revertMessage": "",
                    "selector": "0x21f8a721",
                    "status": true,
                    "value": "0"
                },
                "nodeType": 0
            },
            "10": {
                "invocation": {
                    "address": "0x6c2f7b6110a37b3b0fbdd811876be368df02e8b0",
                    "callData": "0x2bfa751af4ec0c4b9cc295d362dd9af4179aab2196acf142f525e0190abd0a62",
                    "decodedMethod": {
                        "callParams": [
                            {
                                "name": "key",
                                "type": "bytes32",
                                "value": "0x2bfa751af4ec0c4b9cc295d362dd9af4179aab2196acf142f525e0190abd0a62"
                            }
                        ],
                        "constructorArguments": "",
                        "name": "getUint",
                        "returnParams": [
                            {
                                "name": "",
                                "type": "uint256",
                                "value": "0"
                            }
                        ],
                        "signature": "getUint(bytes32)"
                    },
                    "errorInfo": "",
                    "fromAddress": "0xda9726fd1b125a3923f9d9521e28fe888091698d",
                    "gasUsed": 2589,
                    "id": 10,
                    "methodDecoded": true,
                    "operation": "STATICCALL",
                    "output": "0x0000000000000000000000000000000000000000000000000000000000000000",
                    "revert": false,
                    "revertMessage": "",
                    "selector": "0xbd02d0f5",
                    "status": true,
                    "value": "0"
                },
                "nodeType": 0
            },
            "11": {
                "invocation": {
                    "address": "0x6c2f7b6110a37b3b0fbdd811876be368df02e8b0",
                    "callData": "0x2bfa751af4ec0c4b9cc295d362dd9af4179aab2196acf142f525e0190abd0a620000000000000000000000000000000000000000000000000000000000000001",
                    "decodedMethod": {
                        "callParams": [
                            {
                                "name": "_key",
                                "type": "bytes32",
                                "value": "0x2bfa751af4ec0c4b9cc295d362dd9af4179aab2196acf142f525e0190abd0a62"
                            },
                            {
                                "name": "_value",
                                "type": "uint256",
                                "value": "1"
                            }
                        ],
                        "constructorArguments": "",
                        "name": "setUint",
                        "returnParams": [],
                        "signature": "setUint(bytes32,uint256)"
                    },
                    "errorInfo": "",
                    "fromAddress": "0xda9726fd1b125a3923f9d9521e28fe888091698d",
                    "gasUsed": 21223,
                    "id": 11,
                    "methodDecoded": true,
                    "operation": "CALL",
                    "output": "",
                    "revert": false,
                    "revertMessage": "",
                    "selector": "0xe2a4853a",
                    "status": true,
                    "value": "0"
                },
                "nodeType": 0
            },
            "12": {
                "event": {
                    "contract": "0xda9726fd1b125a3923f9d9521e28fe888091698d",
                    "decodedLog": {
                        "name": "BalancesSubmitted",
                        "params": [
                            {
                                "name": "from",
                                "type": "address",
                                "value": "0x80aa112eed03dcc44bee7f2a1da7e5a0d04591bd"
                            },
                            {
                                "name": "block",
                                "type": "uint256",
                                "value": "10,000,260,700"
                            },
                            {
                                "name": "totalEth",
                                "type": "uint256",
                                "value": "3,742,680,707,590,164,867,998"
                            },
                            {
                                "name": "stakingEth",
                                "type": "uint256",
                                "value": "3,676,140,694,577,019,757,100"
                            },
                            {
                                "name": "rethSupply",
                                "type": "uint256",
                                "value": "3,467,675,891,839,831,974,924"
                            },
                            {
                                "name": "time",
                                "type": "uint256",
                                "value": "1,706,933,687"
                            }
                        ],
                        "signature": "BalancesSubmitted(address,uint256,uint256,uint256,uint256,uint256)"
                    },
                    "id": 12,
                    "logData": "0x00000000000000000000000000000000000000000000000000000002540fde5c0000000000000000000000000000000000000000000000cae420f1fb23686b9e0000000000000000000000000000000000000000000000c748b354b08d06222c0000000000000000000000000000000000000000000000bbfbab93181311240c0000000000000000000000000000000000000000000000000000000065bdbdb7",
                    "logDecoded": true,
                    "operation": "EVENT",
                    "revert": false,
                    "status": true,
                    "topics": [
                        "0xe657a6d6957f4fabb37b86d4d6571e82df061bd2d8a3ede5d197b0b98a5a1bdf",
                        "0x00000000000000000000000080aa112eed03dcc44bee7f2a1da7e5a0d04591bd"
                    ]
                },
                "nodeType": 1
            },
            "13": {
                "invocation": {
                    "address": "0x6c2f7b6110a37b3b0fbdd811876be368df02e8b0",
                    "callData": "0xffb863a8dc7b58729a4c88fbb739df84b5cbc5e26602263293adbe27f3d3f99b",
                    "decodedMethod": {
                        "callParams": [
                            {
                                "name": "id",
                                "type": "bytes32",
                                "value": "0xffb863a8dc7b58729a4c88fbb739df84b5cbc5e26602263293adbe27f3d3f99b"
                            }
                        ],
                        "constructorArguments": "",
                        "name": "getAddress",
                        "returnParams": [
                            {
                                "name": "",
                                "type": "address",
                                "value": "0xd8575c32bbc1ea9d33856a6de74be258712307a8"
                            }
                        ],
                        "signature": "getAddress(bytes32)"
                    },
                    "errorInfo": "",
                    "fromAddress": "0xda9726fd1b125a3923f9d9521e28fe888091698d",
                    "gasUsed": 2588,
                    "id": 13,
                    "methodDecoded": true,
                    "operation": "STATICCALL",
                    "output": "0x000000000000000000000000d8575c32bbc1ea9d33856a6de74be258712307a8",
                    "revert": false,
                    "revertMessage": "",
                    "selector": "0x21f8a721",
                    "status": true,
                    "value": "0"
                },
                "nodeType": 0
            },
            "14": {
                "invocation": {
                    "address": "0xc59ff0c05de52347b2d7bf38eebdc994d97cea8f",
                    "callData": "0x",
                    "decodedMethod": {
                        "callParams": [],
                        "constructorArguments": "",
                        "name": "getNodeConsensusThreshold",
                        "returnParams": [
                            {
                                "name": "",
                                "type": "uint256",
                                "value": "100,000,000,000,000,000"
                            }
                        ],
                        "signature": "getNodeConsensusThreshold()"
                    },
                    "errorInfo": "",
                    "fromAddress": "0xda9726fd1b125a3923f9d9521e28fe888091698d",
                    "gasUsed": 3980,
                    "id": 14,
                    "methodDecoded": true,
                    "operation": "STATICCALL",
                    "output": "0x000000000000000000000000000000000000000000000000016345785d8a0000",
                    "revert": false,
                    "revertMessage": "",
                    "selector": "0x1f66e8ed",
                    "status": true,
                    "value": "0"
                },
                "nodeType": 0
            },
            "15": {
                "invocation": {
                    "address": "0x6c2f7b6110a37b3b0fbdd811876be368df02e8b0",
                    "callData": "0x4dee93339ebea5bfc523e9352ac0e60cbd0e63d1409a849603fe632fc21e7a43",
                    "decodedMethod": {
                        "callParams": [
                            {
                                "name": "key",
                                "type": "bytes32",
                                "value": "0x4dee93339ebea5bfc523e9352ac0e60cbd0e63d1409a849603fe632fc21e7a43"
                            }
                        ],
                        "constructorArguments": "",
                        "name": "getUint",
                        "returnParams": [
                            {
                                "name": "",
                                "type": "uint256",
                                "value": "100,000,000,000,000,000"
                            }
                        ],
                        "signature": "getUint(bytes32)"
                    },
                    "errorInfo": "",
                    "fromAddress": "0xc59ff0c05de52347b2d7bf38eebdc994d97cea8f",
                    "gasUsed": 2589,
                    "id": 15,
                    "methodDecoded": true,
                    "operation": "STATICCALL",
                    "output": "0x000000000000000000000000000000000000000000000000016345785d8a0000",
                    "revert": false,
                    "revertMessage": "",
                    "selector": "0xbd02d0f5",
                    "status": true,
                    "value": "0"
                },
                "nodeType": 0
            },
            "16": {
                "invocation": {
                    "address": "0xd8575c32bbc1ea9d33856a6de74be258712307a8",
                    "callData": "0x",
                    "decodedMethod": {
                        "callParams": [],
                        "constructorArguments": "",
                        "name": "getTrustedNodeCount",
                        "returnParams": [
                            {
                                "name": "",
                                "type": "uint256",
                                "value": "4"
                            }
                        ],
                        "signature": "getTrustedNodeCount()"
                    },
                    "errorInfo": "",
                    "fromAddress": "0xda9726fd1b125a3923f9d9521e28fe888091698d",
                    "gasUsed": 14889,
                    "id": 16,
                    "methodDecoded": true,
                    "operation": "STATICCALL",
                    "output": "0x0000000000000000000000000000000000000000000000000000000000000004",
                    "revert": false,
                    "revertMessage": "",
                    "selector": "0x66e3c026",
                    "status": true,
                    "value": "0"
                },
                "nodeType": 0
            },
            "17": {
                "invocation": {
                    "address": "0x6c2f7b6110a37b3b0fbdd811876be368df02e8b0",
                    "callData": "0x8b4d8aed962734b7d06d04f965f3793ad1bbf0a61133d3ad89386824b7a54b7b",
                    "decodedMethod": {
                        "callParams": [
                            {
                                "name": "id",
                                "type": "bytes32",
                                "value": "0x8b4d8aed962734b7d06d04f965f3793ad1bbf0a61133d3ad89386824b7a54b7b"
                            }
                        ],
                        "constructorArguments": "",
                        "name": "getAddress",
                        "returnParams": [
                            {
                                "name": "",
                                "type": "address",
                                "value": "0x86d14d8bb0e094c35583091ee346a4ca99e81506"
                            }
                        ],
                        "signature": "getAddress(bytes32)"
                    },
                    "errorInfo": "",
                    "fromAddress": "0xd8575c32bbc1ea9d33856a6de74be258712307a8",
                    "gasUsed": 2588,
                    "id": 17,
                    "methodDecoded": true,
                    "operation": "STATICCALL",
                    "output": "0x00000000000000000000000086d14d8bb0e094c35583091ee346a4ca99e81506",
                    "revert": false,
                    "revertMessage": "",
                    "selector": "0x21f8a721",
                    "status": true,
                    "value": "0"
                },
                "nodeType": 0
            },
            "18": {
                "invocation": {
                    "address": "0x86d14d8bb0e094c35583091ee346a4ca99e81506",
                    "callData": "0x1423297475c46d6c3d40e16c2a527d342a4108184c71b371ca792c4df78ffe28",
                    "decodedMethod": {
                        "callParams": [
                            {
                                "name": "_node",
                                "type": "bytes32",
                                "value": "0x1423297475c46d6c3d40e16c2a527d342a4108184c71b371ca792c4df78ffe28"
                            }
                        ],
                        "constructorArguments": "",
                        "name": "getCount",
                        "returnParams": [
                            {
                                "name": "",
                                "type": "uint256",
                                "value": "4"
                            }
                        ],
                        "signature": "getCount(bytes32)"
                    },
                    "errorInfo": "",
                    "fromAddress": "0xd8575c32bbc1ea9d33856a6de74be258712307a8",
                    "gasUsed": 5755,
                    "id": 18,
                    "methodDecoded": true,
                    "operation": "STATICCALL",
                    "output": "0x0000000000000000000000000000000000000000000000000000000000000004",
                    "revert": false,
                    "revertMessage": "",
                    "selector": "0xc9d6fee9",
                    "status": true,
                    "value": "0"
                },
                "nodeType": 0
            },
            "19": {
                "invocation": {
                    "address": "0x6c2f7b6110a37b3b0fbdd811876be368df02e8b0",
                    "callData": "0xf51962f92f58eafec69cf12a6ab7031ba0b4bdcb3739e81e2c4c8ca1abe66692",
                    "decodedMethod": {
                        "callParams": [
                            {
                                "name": "key",
                                "type": "bytes32",
                                "value": "0xf51962f92f58eafec69cf12a6ab7031ba0b4bdcb3739e81e2c4c8ca1abe66692"
                            }
                        ],
                        "constructorArguments": "",
                        "name": "getUint",
                        "returnParams": [
                            {
                                "name": "",
                                "type": "uint256",
                                "value": "4"
                            }
                        ],
                        "signature": "getUint(bytes32)"
                    },
                    "errorInfo": "",
                    "fromAddress": "0x86d14d8bb0e094c35583091ee346a4ca99e81506",
                    "gasUsed": 2589,
                    "id": 19,
                    "methodDecoded": true,
                    "operation": "STATICCALL",
                    "output": "0x0000000000000000000000000000000000000000000000000000000000000004",
                    "revert": false,
                    "revertMessage": "",
                    "selector": "0xbd02d0f5",
                    "status": true,
                    "value": "0"
                },
                "nodeType": 0
            },
            "2": {
                "invocation": {
                    "address": "0x6c2f7b6110a37b3b0fbdd811876be368df02e8b0",
                    "callData": "0x2e3f0af62823e7ed5b60b0c05ede1e35a413905c2173237b64cb8d66f9bc19ae",
                    "decodedMethod": {
                        "callParams": [
                            {
                                "name": "key",
                                "type": "bytes32",
                                "value": "0x2e3f0af62823e7ed5b60b0c05ede1e35a413905c2173237b64cb8d66f9bc19ae"
                            }
                        ],
                        "constructorArguments": "",
                        "name": "getBool",
                        "returnParams": [
                            {
                                "name": "",
                                "type": "bool",
                                "value": true
                            }
                        ],
                        "signature": "getBool(bytes32)"
                    },
                    "errorInfo": "",
                    "fromAddress": "0xda9726fd1b125a3923f9d9521e28fe888091698d",
                    "gasUsed": 2631,
                    "id": 2,
                    "methodDecoded": true,
                    "operation": "STATICCALL",
                    "output": "0x0000000000000000000000000000000000000000000000000000000000000001",
                    "revert": false,
                    "revertMessage": "",
                    "selector": "0x7ae1cfca",
                    "status": true,
                    "value": "0"
                },
                "nodeType": 0
            },
            "20": {
                "invocation": {
                    "address": "0x6c2f7b6110a37b3b0fbdd811876be368df02e8b0",
                    "callData": "0x8e228cc95820b1264270ce3b51a2a54e17242e0b792a7f57c45f45e402f44c7400000000000000000000000000000000000000000000000000000002540fde5c",
                    "decodedMethod": {
                        "callParams": [
                            {
                                "name": "_key",
                                "type": "bytes32",
                                "value": "0x8e228cc95820b1264270ce3b51a2a54e17242e0b792a7f57c45f45e402f44c74"
                            },
                            {
                                "name": "_value",
                                "type": "uint256",
                                "value": "10,000,260,700"
                            }
                        ],
                        "constructorArguments": "",
                        "name": "setUint",
                        "returnParams": [],
                        "signature": "setUint(bytes32,uint256)"
                    },
                    "errorInfo": "",
                    "fromAddress": "0xda9726fd1b125a3923f9d9521e28fe888091698d",
                    "gasUsed": 4123,
                    "id": 20,
                    "methodDecoded": true,
                    "operation": "CALL",
                    "output": "",
                    "revert": false,
                    "revertMessage": "",
                    "selector": "0xe2a4853a",
                    "status": true,
                    "value": "0"
                },
                "nodeType": 0
            },
            "21": {
                "invocation": {
                    "address": "0x6c2f7b6110a37b3b0fbdd811876be368df02e8b0",
                    "callData": "0x9dc185b46ed0f11d151f055e45fde635375a9680c34e501b43a82eb6c09c09510000000000000000000000000000000000000000000000cae420f1fb23686b9e",
                    "decodedMethod": {
                        "callParams": [
                            {
                                "name": "_key",
                                "type": "bytes32",
                                "value": "0x9dc185b46ed0f11d151f055e45fde635375a9680c34e501b43a82eb6c09c0951"
                            },
                            {
                                "name": "_value",
                                "type": "uint256",
                                "value": "3,742,680,707,590,164,867,998"
                            }
                        ],
                        "constructorArguments": "",
                        "name": "setUint",
                        "returnParams": [],
                        "signature": "setUint(bytes32,uint256)"
                    },
                    "errorInfo": "",
                    "fromAddress": "0xda9726fd1b125a3923f9d9521e28fe888091698d",
                    "gasUsed": 6223,
                    "id": 21,
                    "methodDecoded": true,
                    "operation": "CALL",
                    "output": "",
                    "revert": false,
                    "revertMessage": "",
                    "selector": "0xe2a4853a",
                    "status": true,
                    "value": "0"
                },
                "nodeType": 0
            },
            "22": {
                "invocation": {
                    "address": "0x6c2f7b6110a37b3b0fbdd811876be368df02e8b0",
                    "callData": "0x60ada356ca70f00927cab348673259fa737f98b9c6c4cb8433c182af17149aef0000000000000000000000000000000000000000000000c748b354b08d06222c",
                    "decodedMethod": {
                        "callParams": [
                            {
                                "name": "_key",
                                "type": "bytes32",
                                "value": "0x60ada356ca70f00927cab348673259fa737f98b9c6c4cb8433c182af17149aef"
                            },
                            {
                                "name": "_value",
                                "type": "uint256",
                                "value": "3,676,140,694,577,019,757,100"
                            }
                        ],
                        "constructorArguments": "",
                        "name": "setUint",
                        "returnParams": [],
                        "signature": "setUint(bytes32,uint256)"
                    },
                    "errorInfo": "",
                    "fromAddress": "0xda9726fd1b125a3923f9d9521e28fe888091698d",
                    "gasUsed": 6223,
                    "id": 22,
                    "methodDecoded": true,
                    "operation": "CALL",
                    "output": "",
                    "revert": false,
                    "revertMessage": "",
                    "selector": "0xe2a4853a",
                    "status": true,
                    "value": "0"
                },
                "nodeType": 0
            },
            "23": {
                "invocation": {
                    "address": "0x6c2f7b6110a37b3b0fbdd811876be368df02e8b0",
                    "callData": "0x5b3a7b8bdde2122fad4dc45e51ae0c5cedc887473a999474f2ead5a8faadfe3c0000000000000000000000000000000000000000000000bbfbab93181311240c",
                    "decodedMethod": {
                        "callParams": [
                            {
                                "name": "_key",
                                "type": "bytes32",
                                "value": "0x5b3a7b8bdde2122fad4dc45e51ae0c5cedc887473a999474f2ead5a8faadfe3c"
                            },
                            {
                                "name": "_value",
                                "type": "uint256",
                                "value": "3,467,675,891,839,831,974,924"
                            }
                        ],
                        "constructorArguments": "",
                        "name": "setUint",
                        "returnParams": [],
                        "signature": "setUint(bytes32,uint256)"
                    },
                    "errorInfo": "",
                    "fromAddress": "0xda9726fd1b125a3923f9d9521e28fe888091698d",
                    "gasUsed": 3423,
                    "id": 23,
                    "methodDecoded": true,
                    "operation": "CALL",
                    "output": "",
                    "revert": false,
                    "revertMessage": "",
                    "selector": "0xe2a4853a",
                    "status": true,
                    "value": "0"
                },
                "nodeType": 0
            },
            "24": {
                "event": {
                    "contract": "0xda9726fd1b125a3923f9d9521e28fe888091698d",
                    "decodedLog": {
                        "name": "BalancesUpdated",
                        "params": [
                            {
                                "name": "block",
                                "type": "uint256",
                                "value": "10,000,260,700"
                            },
                            {
                                "name": "totalEth",
                                "type": "uint256",
                                "value": "3,742,680,707,590,164,867,998"
                            },
                            {
                                "name": "stakingEth",
                                "type": "uint256",
                                "value": "3,676,140,694,577,019,757,100"
                            },
                            {
                                "name": "rethSupply",
                                "type": "uint256",
                                "value": "3,467,675,891,839,831,974,924"
                            },
                            {
                                "name": "time",
                                "type": "uint256",
                                "value": "1,706,933,687"
                            }
                        ],
                        "signature": "BalancesUpdated(uint256,uint256,uint256,uint256,uint256)"
                    },
                    "id": 24,
                    "logData": "0x00000000000000000000000000000000000000000000000000000002540fde5c0000000000000000000000000000000000000000000000cae420f1fb23686b9e0000000000000000000000000000000000000000000000c748b354b08d06222c0000000000000000000000000000000000000000000000bbfbab93181311240c0000000000000000000000000000000000000000000000000000000065bdbdb7",
                    "logDecoded": true,
                    "operation": "EVENT",
                    "revert": false,
                    "status": true,
                    "topics": [
                        "0x7bbbb137fdad433d6168b1c75c714c72b8abe8d07460f0c0b433063e7bf1f394"
                    ]
                },
                "nodeType": 1
            },
            "3": {
                "invocation": {
                    "address": "0x6c2f7b6110a37b3b0fbdd811876be368df02e8b0",
                    "callData": "0x357b4e0d9fa1f2e459f2280b7ebfe19d3e8ff8a1fecedc054c37a686f3aa9c46",
                    "decodedMethod": {
                        "callParams": [
                            {
                                "name": "id",
                                "type": "bytes32",
                                "value": "0x357b4e0d9fa1f2e459f2280b7ebfe19d3e8ff8a1fecedc054c37a686f3aa9c46"
                            }
                        ],
                        "constructorArguments": "",
                        "name": "getAddress",
                        "returnParams": [
                            {
                                "name": "",
                                "type": "address",
                                "value": "0xc59ff0c05de52347b2d7bf38eebdc994d97cea8f"
                            }
                        ],
                        "signature": "getAddress(bytes32)"
                    },
                    "errorInfo": "",
                    "fromAddress": "0xda9726fd1b125a3923f9d9521e28fe888091698d",
                    "gasUsed": 2588,
                    "id": 3,
                    "methodDecoded": true,
                    "operation": "STATICCALL",
                    "output": "0x000000000000000000000000c59ff0c05de52347b2d7bf38eebdc994d97cea8f",
                    "revert": false,
                    "revertMessage": "",
                    "selector": "0x21f8a721",
                    "status": true,
                    "value": "0"
                },
                "nodeType": 0
            },
            "4": {
                "invocation": {
                    "address": "0xc59ff0c05de52347b2d7bf38eebdc994d97cea8f",
                    "callData": "0x",
                    "decodedMethod": {
                        "callParams": [],
                        "constructorArguments": "",
                        "name": "getSubmitBalancesEnabled",
                        "returnParams": [
                            {
                                "name": "",
                                "type": "bool",
                                "value": true
                            }
                        ],
                        "signature": "getSubmitBalancesEnabled()"
                    },
                    "errorInfo": "",
                    "fromAddress": "0xda9726fd1b125a3923f9d9521e28fe888091698d",
                    "gasUsed": 6092,
                    "id": 4,
                    "methodDecoded": true,
                    "operation": "STATICCALL",
                    "output": "0x0000000000000000000000000000000000000000000000000000000000000001",
                    "revert": false,
                    "revertMessage": "",
                    "selector": "0xfcdb60db",
                    "status": true,
                    "value": "0"
                },
                "nodeType": 0
            },
            "5": {
                "invocation": {
                    "address": "0x6c2f7b6110a37b3b0fbdd811876be368df02e8b0",
                    "callData": "0x58416fdf91c0c43056a0a742b2eb963aad412a9a671bffeaecbff0ea64d8720a",
                    "decodedMethod": {
                        "callParams": [
                            {
                                "name": "key",
                                "type": "bytes32",
                                "value": "0x58416fdf91c0c43056a0a742b2eb963aad412a9a671bffeaecbff0ea64d8720a"
                            }
                        ],
                        "constructorArguments": "",
                        "name": "getBool",
                        "returnParams": [
                            {
                                "name": "",
                                "type": "bool",
                                "value": true
                            }
                        ],
                        "signature": "getBool(bytes32)"
                    },
                    "errorInfo": "",
                    "fromAddress": "0xc59ff0c05de52347b2d7bf38eebdc994d97cea8f",
                    "gasUsed": 2631,
                    "id": 5,
                    "methodDecoded": true,
                    "operation": "STATICCALL",
                    "output": "0x0000000000000000000000000000000000000000000000000000000000000001",
                    "revert": false,
                    "revertMessage": "",
                    "selector": "0x7ae1cfca",
                    "status": true,
                    "value": "0"
                },
                "nodeType": 0
            },
            "6": {
                "invocation": {
                    "address": "0x6c2f7b6110a37b3b0fbdd811876be368df02e8b0",
                    "callData": "0x8e228cc95820b1264270ce3b51a2a54e17242e0b792a7f57c45f45e402f44c74",
                    "decodedMethod": {
                        "callParams": [
                            {
                                "name": "key",
                                "type": "bytes32",
                                "value": "0x8e228cc95820b1264270ce3b51a2a54e17242e0b792a7f57c45f45e402f44c74"
                            }
                        ],
                        "constructorArguments": "",
                        "name": "getUint",
                        "returnParams": [
                            {
                                "name": "",
                                "type": "uint256",
                                "value": "10,000,260,625"
                            }
                        ],
                        "signature": "getUint(bytes32)"
                    },
                    "errorInfo": "",
                    "fromAddress": "0xda9726fd1b125a3923f9d9521e28fe888091698d",
                    "gasUsed": 2589,
                    "id": 6,
                    "methodDecoded": true,
                    "operation": "STATICCALL",
                    "output": "0x00000000000000000000000000000000000000000000000000000002540fde11",
                    "revert": false,
                    "revertMessage": "",
                    "selector": "0xbd02d0f5",
                    "status": true,
                    "value": "0"
                },
                "nodeType": 0
            },
            "7": {
                "invocation": {
                    "address": "0x6c2f7b6110a37b3b0fbdd811876be368df02e8b0",
                    "callData": "0x29a147cd9d187b887440a97d991a7983b9696cc5f844d9971a38390da4c080f9",
                    "decodedMethod": {
                        "callParams": [
                            {
                                "name": "key",
                                "type": "bytes32",
                                "value": "0x29a147cd9d187b887440a97d991a7983b9696cc5f844d9971a38390da4c080f9"
                            }
                        ],
                        "constructorArguments": "",
                        "name": "getBool",
                        "returnParams": [
                            {
                                "name": "",
                                "type": "bool",
                                "value": false
                            }
                        ],
                        "signature": "getBool(bytes32)"
                    },
                    "errorInfo": "",
                    "fromAddress": "0xda9726fd1b125a3923f9d9521e28fe888091698d",
                    "gasUsed": 2631,
                    "id": 7,
                    "methodDecoded": true,
                    "operation": "STATICCALL",
                    "output": "0x0000000000000000000000000000000000000000000000000000000000000000",
                    "revert": false,
                    "revertMessage": "",
                    "selector": "0x7ae1cfca",
                    "status": true,
                    "value": "0"
                },
                "nodeType": 0
            },
            "8": {
                "invocation": {
                    "address": "0x6c2f7b6110a37b3b0fbdd811876be368df02e8b0",
                    "callData": "0x29a147cd9d187b887440a97d991a7983b9696cc5f844d9971a38390da4c080f90000000000000000000000000000000000000000000000000000000000000001",
                    "decodedMethod": {
                        "callParams": [
                            {
                                "name": "_key",
                                "type": "bytes32",
                                "value": "0x29a147cd9d187b887440a97d991a7983b9696cc5f844d9971a38390da4c080f9"
                            },
                            {
                                "name": "_value",
                                "type": "bool",
                                "value": true
                            }
                        ],
                        "constructorArguments": "",
                        "name": "setBool",
                        "returnParams": [],
                        "signature": "setBool(bytes32,bool)"
                    },
                    "errorInfo": "",
                    "fromAddress": "0xda9726fd1b125a3923f9d9521e28fe888091698d",
                    "gasUsed": 25383,
                    "id": 8,
                    "methodDecoded": true,
                    "operation": "CALL",
                    "output": "",
                    "revert": false,
                    "revertMessage": "",
                    "selector": "0xabfdcced",
                    "status": true,
                    "value": "0"
                },
                "nodeType": 0
            },
            "9": {
                "invocation": {
                    "address": "0x6c2f7b6110a37b3b0fbdd811876be368df02e8b0",
                    "callData": "0x29da786efeef2a687e96bd2d509f4db9bb2a31076f8fb8299d5dd3c2ff13694a0000000000000000000000000000000000000000000000000000000000000001",
                    "decodedMethod": {
                        "callParams": [
                            {
                                "name": "_key",
                                "type": "bytes32",
                                "value": "0x29da786efeef2a687e96bd2d509f4db9bb2a31076f8fb8299d5dd3c2ff13694a"
                            },
                            {
                                "name": "_value",
                                "type": "bool",
                                "value": true
                            }
                        ],
                        "constructorArguments": "",
                        "name": "setBool",
                        "returnParams": [],
                        "signature": "setBool(bytes32,bool)"
                    },
                    "errorInfo": "",
                    "fromAddress": "0xda9726fd1b125a3923f9d9521e28fe888091698d",
                    "gasUsed": 23383,
                    "id": 9,
                    "methodDecoded": true,
                    "operation": "CALL",
                    "output": "",
                    "revert": false,
                    "revertMessage": "",
                    "selector": "0xabfdcced",
                    "status": true,
                    "value": "0"
                },
                "nodeType": 0
            }
        },
        "gasFlame": [
            {
                "children": [
                    {
                        "children": [
                            {
                                "children": [],
                                "depth": 0,
                                "name": "Initial Gas",
                                "value": 21960
                            },
                            {
                                "children": [
                                    {
                                        "children": [],
                                        "depth": 1,
                                        "name": "getAddress",
                                        "value": 2588
                                    },
                                    {
                                        "children": [],
                                        "depth": 1,
                                        "name": "getBool",
                                        "value": 2631
                                    },
                                    {
                                        "children": [],
                                        "depth": 1,
                                        "name": "getAddress",
                                        "value": 2588
                                    },
                                    {
                                        "children": [
                                            {
                                                "children": [],
                                                "depth": 2,
                                                "name": "getBool",
                                                "value": 2631
                                            }
                                        ],
                                        "depth": 1,
                                        "name": "getSubmitBalancesEnabled",
                                        "value": 6092
                                    },
                                    {
                                        "children": [],
                                        "depth": 1,
                                        "name": "getUint",
                                        "value": 2589
                                    },
                                    {
                                        "children": [],
                                        "depth": 1,
                                        "name": "getBool",
                                        "value": 2631
                                    },
                                    {
                                        "children": [],
                                        "depth": 1,
                                        "name": "setBool",
                                        "value": 25383
                                    },
                                    {
                                        "children": [],
                                        "depth": 1,
                                        "name": "setBool",
                                        "value": 23383
                                    },
                                    {
                                        "children": [],
                                        "depth": 1,
                                        "name": "getUint",
                                        "value": 2589
                                    },
                                    {
                                        "children": [],
                                        "depth": 1,
                                        "name": "setUint",
                                        "value": 21223
                                    },
                                    {
                                        "children": [],
                                        "depth": 1,
                                        "name": "getAddress",
                                        "value": 2588
                                    },
                                    {
                                        "children": [
                                            {
                                                "children": [],
                                                "depth": 2,
                                                "name": "getUint",
                                                "value": 2589
                                            }
                                        ],
                                        "depth": 1,
                                        "name": "getNodeConsensusThreshold",
                                        "value": 3980
                                    },
                                    {
                                        "children": [
                                            {
                                                "children": [],
                                                "depth": 2,
                                                "name": "getAddress",
                                                "value": 2588
                                            },
                                            {
                                                "children": [
                                                    {
                                                        "children": [],
                                                        "depth": 3,
                                                        "name": "getUint",
                                                        "value": 2589
                                                    }
                                                ],
                                                "depth": 2,
                                                "name": "getCount",
                                                "value": 5755
                                            }
                                        ],
                                        "depth": 1,
                                        "name": "getTrustedNodeCount",
                                        "value": 14889
                                    },
                                    {
                                        "children": [],
                                        "depth": 1,
                                        "name": "setUint",
                                        "value": 4123
                                    },
                                    {
                                        "children": [],
                                        "depth": 1,
                                        "name": "setUint",
                                        "value": 6223
                                    },
                                    {
                                        "children": [],
                                        "depth": 1,
                                        "name": "setUint",
                                        "value": 6223
                                    },
                                    {
                                        "children": [],
                                        "depth": 1,
                                        "name": "setUint",
                                        "value": 3423
                                    }
                                ],
                                "depth": 0,
                                "name": "Executed Gas",
                                "value": 162694
                            }
                        ],
                        "depth": -1,
                        "name": "Actual Gas Used",
                        "value": 184654
                    },
                    {
                        "children": [],
                        "depth": -1,
                        "name": "Refunded Gas",
                        "value": 0
                    }
                ],
                "depth": -2,
                "name": "Total Gas",
                "value": 184654
            }
        ],
        "isConfirmed": true,
        "mainTrace": [
            {
                "children": [
                    {
                        "children": [
                            {
                                "children": [],
                                "depth": 1,
                                "id": 1,
                                "order": 1
                            },
                            {
                                "children": [],
                                "depth": 1,
                                "id": 2,
                                "order": 2
                            },
                            {
                                "children": [],
                                "depth": 1,
                                "id": 3,
                                "order": 3
                            },
                            {
                                "children": [
                                    {
                                        "children": [],
                                        "depth": 2,
                                        "id": 5,
                                        "order": 5
                                    }
                                ],
                                "depth": 1,
                                "id": 4,
                                "order": 4
                            },
                            {
                                "children": [],
                                "depth": 1,
                                "id": 6,
                                "order": 6
                            },
                            {
                                "children": [],
                                "depth": 1,
                                "id": 7,
                                "order": 7
                            },
                            {
                                "children": [],
                                "depth": 1,
                                "id": 8,
                                "order": 8
                            },
                            {
                                "children": [],
                                "depth": 1,
                                "id": 9,
                                "order": 9
                            },
                            {
                                "children": [],
                                "depth": 1,
                                "id": 10,
                                "order": 10
                            },
                            {
                                "children": [],
                                "depth": 1,
                                "id": 11,
                                "order": 11
                            },
                            {
                                "children": [],
                                "depth": 1,
                                "id": 12,
                                "order": 12
                            },
                            {
                                "children": [],
                                "depth": 1,
                                "id": 13,
                                "order": 13
                            },
                            {
                                "children": [
                                    {
                                        "children": [],
                                        "depth": 2,
                                        "id": 15,
                                        "order": 15
                                    }
                                ],
                                "depth": 1,
                                "id": 14,
                                "order": 14
                            },
                            {
                                "children": [
                                    {
                                        "children": [],
                                        "depth": 2,
                                        "id": 17,
                                        "order": 17
                                    },
                                    {
                                        "children": [
                                            {
                                                "children": [],
                                                "depth": 3,
                                                "id": 19,
                                                "order": 19
                                            }
                                        ],
                                        "depth": 2,
                                        "id": 18,
                                        "order": 18
                                    }
                                ],
                                "depth": 1,
                                "id": 16,
                                "order": 16
                            },
                            {
                                "children": [],
                                "depth": 1,
                                "id": 20,
                                "order": 20
                            },
                            {
                                "children": [],
                                "depth": 1,
                                "id": 21,
                                "order": 21
                            },
                            {
                                "children": [],
                                "depth": 1,
                                "id": 22,
                                "order": 22
                            },
                            {
                                "children": [],
                                "depth": 1,
                                "id": 23,
                                "order": 23
                            },
                            {
                                "children": [],
                                "depth": 1,
                                "id": 24,
                                "order": 24
                            }
                        ],
                        "depth": 0,
                        "id": 0,
                        "order": 0
                    }
                ],
                "depth": -1,
                "id": -1,
                "order": -1
            }
        ],
        "mainTraceNodeCount": 25,
        "parentIdMap": {
            "0": -1,
            "1": 0,
            "10": 0,
            "11": 0,
            "12": 0,
            "13": 0,
            "14": 0,
            "15": 14,
            "16": 0,
            "17": 16,
            "18": 16,
            "19": 18,
            "2": 0,
            "20": 0,
            "21": 0,
            "22": 0,
            "23": 0,
            "24": 0,
            "3": 0,
            "4": 0,
            "5": 4,
            "6": 0,
            "7": 0,
            "8": 0,
            "9": 0
        },
        "tidyTrace": [
            {
                "children": [
                    {
                        "children": [
                            {
                                "children": [],
                                "depth": 1,
                                "id": 8,
                                "order": 8
                            },
                            {
                                "children": [],
                                "depth": 1,
                                "id": 9,
                                "order": 9
                            },
                            {
                                "children": [],
                                "depth": 1,
                                "id": 11,
                                "order": 11
                            },
                            {
                                "children": [],
                                "depth": 1,
                                "id": 12,
                                "order": 12
                            },
                            {
                                "children": [],
                                "depth": 1,
                                "id": 20,
                                "order": 20
                            },
                            {
                                "children": [],
                                "depth": 1,
                                "id": 21,
                                "order": 21
                            },
                            {
                                "children": [],
                                "depth": 1,
                                "id": 22,
                                "order": 22
                            },
                            {
                                "children": [],
                                "depth": 1,
                                "id": 23,
                                "order": 23
                            },
                            {
                                "children": [],
                                "depth": 1,
                                "id": 24,
                                "order": 24
                            }
                        ],
                        "depth": 0,
                        "id": 0,
                        "order": 0
                    }
                ],
                "depth": -1,
                "id": -1,
                "order": -1
            }
        ],
        "tidyTraceNodeCount": 10
    },
    "state_change": {
        "stateChanges": [
            {
                "address": "0x6c2f7b6110a37b3b0fbdd811876be368df02e8b0",
                "erc": "",
                "slots": [
                    {
                        "current": "0x0000000000000000000000000000000000000000000000c748b354b08d06222c",
                        "key": "0x9ad1bbdb13be775dce0996cf7d856c3f56517b36afdc5126e70d52cc7786219c",
                        "prev": "0x0000000000000000000000000000000000000000000000cac0e1019a6606222c"
                    },
                    {
                        "current": "0x0000000000000000000000000000000000000000000000000000000000000001",
                        "key": "0x71abbd3f60e5a8d85d834c63c5fe44b3d276f36a98bed72bd3f8e55d144a3084",
                        "prev": "0x0000000000000000000000000000000000000000000000000000000000000000"
                    },
                    {
                        "current": "0x0000000000000000000000000000000000000000000000000000000000000001",
                        "key": "0x9ed8f64d636a68f1896bf6d720e3548c98e81e62a25ea4eae095f1937a29cbab",
                        "prev": "0x0000000000000000000000000000000000000000000000000000000000000000"
                    },
                    {
                        "current": "0x0000000000000000000000000000000000000000000000000000000000000001",
                        "key": "0x707c21c793f63d02ea8238602ebc785d5b78ec8683035d88ba61f34c044543b7",
                        "prev": "0x0000000000000000000000000000000000000000000000000000000000000000"
                    },
                    {
                        "current": "0x00000000000000000000000000000000000000000000000000000002540fde5c",
                        "key": "0x0ac2b16e9ce52fcfcdeb620b3bf31feba01b3d9046e117191a5a952bf3166fc2",
                        "prev": "0x00000000000000000000000000000000000000000000000000000002540fde11"
                    },
                    {
                        "current": "0x0000000000000000000000000000000000000000000000cae420f1fb23686b9e",
                        "key": "0x5828b7e6c4cfef6febc63d87809979508740607124007f0bf2d79f3f07e5b10e",
                        "prev": "0x0000000000000000000000000000000000000000000000cae30e2c4404ea209e"
                    }
                ],
                "storageVariables": []
            }
        ]
    }
}