{
    "balance_change": {
        "balanceChanges": []
    },
    "profile": {
        "basic_info": {
            "baseFee": "",
            "blockNumber": 10789862,
            "callData": "0x38ed173900000000000000000000000000000000000000000000000672c564487f24a6b600000000000000000000000000000000000000000000002cd30459b8eb8ace0600000000000000000000000000000000000000000000000000000000000000a000000000000000000000000065bc8ecbb83175d6c0471946f2672ae35014e253000000000000000000000000000000000000000000000000000000005f5136b500000000000000000000000000000000000000000000000000000000000000020000000000000000000000001e18821e69b9faa8e6e75dffe54e7e25754beda00000000000000000000000004b7dfae2567181e54776337c840e142acb42aa1f",
            "debugEnable": true,
            "errorInfo": "execution reverted",
            "eventCount": 5,
            "feeRecipient": "0xd224ca0c819e8e97ba0136b3b95ceff503b79f53",
            "formatValue": "0",
            "gasLimit": 130546,
            "gasPrice": "700",
            "gasUsed": 129441,
            "intTxnCount": 6,
            "internalRevert": true,
            "internalRevertMessage": "",
            "isContractCreation": false,
            "isFlashloan": false,
            "maxFee": "",
            "nonce": 48,
            "overwritedBlockNumber": -1,
            "priorityFee": "",
            "receiver": "0x7a250d5630b4cf539739df2c5dacb4c659f2488d",
            "revertMessage": "",
            "sender": "0x65bc8ecbb83175d6c0471946f2672ae35014e253",
            "simulationEnable": true,
            "sourceTxnHash": "0xdc8e12e30cc92a78829ad04868bf2c228fe31428fa570f01eb4cbdfe1e779998",
            "status": false,
            "timestamp": "2020-09-03T18:12:48Z",
            "transactionFee": "0.0906087",
            "txnHash": "0xdc8e12e30cc92a78829ad04868bf2c228fe31428fa570f01eb4cbdfe1e779998",
            "txnIndex": 9,
            "type": 0,
            "value": "0"
        },
        "fund_flow": [],
        "token_infos": [
            {
                "address": "0x1e18821e69b9faa8e6e75dffe54e7e25754beda0",
                "decimals": 18
            },
            {
                "address": "0x4b7dfae2567181e54776337c840e142acb42aa1f",
                "decimals": 18
            },
            {
                "address": "0xc02aaa39b223fe8d0a0e5c4f27ead9083c756cc2",
                "decimals": 18
            },
            {
                "address": "0xeeeeeeeeeeeeeeeeeeeeeeeeeeeeeeeeeeeeeeee",
                "decimals": 18
            }
        ]
    },
    "address_label": {
        "labels": [
            {
                "address": "0x7a250d5630b4cf539739df2c5dacb4c659f2488d",
                "label": "Uniswap V2: Router 2"
            },
            {
                "address": "0x2e966cbf41530b288c5c933e8e4cd5ca3ae6bb6a",
                "label": "Uniswap V2: KIMCHI-gKIMCHI"
            },
            {
                "address": "0x4b7dfae2567181e54776337c840e142acb42aa1f",
                "label": "GOD KIMCHI (gKIMCHI)"
            },
            {
                "address": "0x0000000000000000000000000000000000000002",
                "label": "Precompiled"
            },
            {
                "address": "0x0000000000000000000000000000000000000003",
                "label": "Precompiled"
            },
            {
                "address": "0xeeeeeeeeeeeeeeeeeeeeeeeeeeeeeeeeeeeeeeee",
                "label": "Ether"
            },
            {
                "address": "0x0000000000000000000000000000000000000001",
                "label": "Precompiled"
            },
            {
                "address": "0x0000000000000000000000000000000000000004",
                "label": "Precompiled"
            },
            {
                "address": "0x1e18821e69b9faa8e6e75dffe54e7e25754beda0",
                "label": "Kimchi.Finance: KIMCHI Token"
            }
        ]
    },
    "trace": {
        "accountLabels": null,
        "dataMap": {
            "-1": {
                "invocation": {
                    "address": "0x65bc8ecbb83175d6c0471946f2672ae35014e253",
                    "callData": "",
                    "decodedMethod": null,
                    "errorInfo": "",
                    "fromAddress": "",
                    "gasUsed": 0,
                    "id": -1,
                    "methodDecoded": false,
                    "operation": "",
                    "output": "",
                    "revert": false,
                    "revertMessage": "",
                    "selector": "",
                    "status": false,
                    "value": ""
                },
                "nodeType": 0
            },
            "0": {
                "invocation": {
                    "address": "0x7a250d5630b4cf539739df2c5dacb4c659f2488d",
                    "callData": "0x00000000000000000000000000000000000000000000000672c564487f24a6b600000000000000000000000000000000000000000000002cd30459b8eb8ace0600000000000000000000000000000000000000000000000000000000000000a000000000000000000000000065bc8ecbb83175d6c0471946f2672ae35014e253000000000000000000000000000000000000000000000000000000005f5136b500000000000000000000000000000000000000000000000000000000000000020000000000000000000000001e18821e69b9faa8e6e75dffe54e7e25754beda00000000000000000000000004b7dfae2567181e54776337c840e142acb42aa1f",
                    "decodedMethod": {
                        "callParams": [
                            {
                                "name": "amountIn",
                                "type": "uint256",
                                "value": "118,950,590,995,526,624,950"
                            },
                            {
                                "name": "amountOutMin",
                                "type": "uint256",
                                "value": "826,862,116,135,890,505,222"
                            },
                            {
                                "name": "path",
                                "type": "address[]",
                                "value": [
                                    "0x1e18821e69b9faa8e6e75dffe54e7e25754beda0",
                                    "0x4b7dfae2567181e54776337c840e142acb42aa1f"
                                ]
                            },
                            {
                                "name": "to",
                                "type": "address",
                                "value": "0x65bc8ecbb83175d6c0471946f2672ae35014e253"
                            },
                            {
                                "name": "deadline",
                                "type": "uint256",
                                "value": "1,599,157,941"
                            }
                        ],
                        "constructorArguments": "",
                        "name": "swapExactTokensForTokens",
                        "returnParams": [],
                        "signature": "swapExactTokensForTokens(uint256,uint256,address[],address,uint256)"
                    },
                    "errorInfo": "execution reverted",
                    "fromAddress": "0x65bc8ecbb83175d6c0471946f2672ae35014e253",
                    "gasUsed": 129441,
                    "id": 0,
                    "methodDecoded": true,
                    "operation": "CALL",
                    "output": "",
                    "revert": true,
                    "revertMessage": "",
                    "selector": "0x38ed1739",
                    "status": false,
                    "value": "0"
                },
                "nodeType": 0
            },
            "1": {
                "invocation": {
                    "address": "0x2e966cbf41530b288c5c933e8e4cd5ca3ae6bb6a",
                    "callData": "0x",
                    "decodedMethod": {
                        "callParams": [],
                        "constructorArguments": "",
                        "name": "getReserves",
                        "returnParams": [
                            {
                                "name": "_reserve0",
                                "type": "uint112",
                                "value": "582,697,742,770,198,231,182,762"
                            },
                            {
                                "name": "_reserve1",
                                "type": "uint112",
                                "value": "4,073,808,462,946,193,861,759,574"
                            },
                            {
                                "name": "_blockTimestampLast",
                                "type": "uint32",
                                "value": "1,599,156,742"
                            }
                        ],
                        "signature": "getReserves()"
                    },
                    "errorInfo": "",
                    "fromAddress": "0x7a250d5630b4cf539739df2c5dacb4c659f2488d",
                    "gasUsed": 1204,
                    "id": 1,
                    "methodDecoded": true,
                    "operation": "STATICCALL",
                    "output": "0x000000000000000000000000000000000000000000007b641ba1588a3654edaa000000000000000000000000000000000000000000035ea9996b1f479e7fd256000000000000000000000000000000000000000000000000000000005f513206",
                    "revert": true,
                    "revertMessage": "",
                    "selector": "0x0902f1ac",
                    "status": true,
                    "value": "0"
                },
                "nodeType": 0
            },
            "10": {
                "event": {
                    "contract": "0x2e966cbf41530b288c5c933e8e4cd5ca3ae6bb6a",
                    "decodedLog": {
                        "name": "Sync",
                        "params": [
                            {
                                "name": "reserve0",
                                "type": "uint112",
                                "value": "582,816,693,361,193,757,807,712"
                            },
                            {
                                "name": "reserve1",
                                "type": "uint112",
                                "value": "4,072,979,508,525,679,933,329,391"
                            }
                        ],
                        "signature": "Sync(uint112,uint112)"
                    },
                    "id": 10,
                    "logData": "0x000000000000000000000000000000000000000000007b6a8e66bcd2b5799460000000000000000000000000000000000000000000035e7ca95d69cfa4030fef",
                    "logDecoded": true,
                    "operation": "EVENT",
                    "revert": true,
                    "status": false,
                    "topics": [
                        "0x1c411e9a96e071241c2f21f7726b17ae89e3cab4c78be50e062b03a9fffbbad1"
                    ]
                },
                "nodeType": 1
            },
            "11": {
                "event": {
                    "contract": "0x2e966cbf41530b288c5c933e8e4cd5ca3ae6bb6a",
                    "decodedLog": {
                        "name": "Swap",
                        "params": [
                            {
                                "name": "sender",
                                "type": "address",
                                "value": "0x7a250d5630b4cf539739df2c5dacb4c659f2488d"
                            },
                            {
                                "name": "to",
                                "type": "address",
                                "value": "0x65bc8ecbb83175d6c0471946f2672ae35014e253"
                            },
                            {
                                "name": "amount0In",
                                "type": "uint256",
                                "value": "118,950,590,995,526,624,950"
                            },
                            {
                                "name": "amount1In",
                                "type": "uint256",
                                "value": "0"
                            },
                            {
                                "name": "amount0Out",
                                "type": "uint256",
                                "value": "0"
                            },
                            {
                                "name": "amount1Out",
                                "type": "uint256",
                                "value": "828,954,420,513,928,430,183"
                            }
                        ],
                        "signature": "Swap(address,uint256,uint256,uint256,uint256,address)"
                    },
                    "id": 11,
                    "logData": "0x00000000000000000000000000000000000000000000000672c564487f24a6b60000000000000000000000000000000000000000000000000000000000000000000000000000000000000000000000000000000000000000000000000000000000000000000000000000000000000000000000000000002cf00db577fa7cc267",
                    "logDecoded": true,
                    "operation": "EVENT",
                    "revert": true,
                    "status": false,
                    "topics": [
                        "0xd78ad95fa46c994b6551d0da85fc275fe613ce37657fb8d5e3d130840159d822",
                        "0x0000000000000000000000007a250d5630b4cf539739df2c5dacb4c659f2488d",
                        "0x00000000000000000000000065bc8ecbb83175d6c0471946f2672ae35014e253"
                    ]
                },
                "nodeType": 1
            },
            "2": {
                "invocation": {
                    "address": "0x1e18821e69b9faa8e6e75dffe54e7e25754beda0",
                    "callData": "0x00000000000000000000000065bc8ecbb83175d6c0471946f2672ae35014e2530000000000000000000000002e966cbf41530b288c5c933e8e4cd5ca3ae6bb6a00000000000000000000000000000000000000000000000672c564487f24a6b6",
                    "decodedMethod": {
                        "callParams": [
                            {
                                "name": "sender",
                                "type": "address",
                                "value": "0x65bc8ecbb83175d6c0471946f2672ae35014e253"
                            },
                            {
                                "name": "recipient",
                                "type": "address",
                                "value": "0x2e966cbf41530b288c5c933e8e4cd5ca3ae6bb6a"
                            },
                            {
                                "decimalAvailable": true,
                                "name": "amount",
                                "type": "uint256",
                                "value": "118,950,590,995,526,624,950"
                            }
                        ],
                        "constructorArguments": "",
                        "name": "transferFrom",
                        "returnParams": [
                            {
                                "name": "",
                                "type": "bool",
                                "value": true
                            }
                        ],
                        "signature": "transferFrom(address,address,uint256)"
                    },
                    "errorInfo": "",
                    "fromAddress": "0x7a250d5630b4cf539739df2c5dacb4c659f2488d",
                    "gasUsed": 22791,
                    "id": 2,
                    "methodDecoded": true,
                    "operation": "CALL",
                    "output": "0x0000000000000000000000000000000000000000000000000000000000000001",
                    "revert": true,
                    "revertMessage": "",
                    "selector": "0x23b872dd",
                    "status": true,
                    "value": "0"
                },
                "nodeType": 0
            },
            "3": {
                "event": {
                    "contract": "0x1e18821e69b9faa8e6e75dffe54e7e25754beda0",
                    "decodedLog": {
                        "name": "Transfer",
                        "params": [
                            {
                                "name": "from",
                                "type": "address",
                                "value": "0x65bc8ecbb83175d6c0471946f2672ae35014e253"
                            },
                            {
                                "name": "to",
                                "type": "address",
                                "value": "0x2e966cbf41530b288c5c933e8e4cd5ca3ae6bb6a"
                            },
                            {
                                "decimalAvailable": true,
                                "name": "value",
                                "type": "uint256",
                                "value": "118,950,590,995,526,624,950"
                            }
                        ],
                        "signature": "Transfer(address,address,uint256)"
                    },
                    "id": 3,
                    "logData": "0x00000000000000000000000000000000000000000000000672c564487f24a6b6",
                    "logDecoded": true,
                    "operation": "EVENT",
                    "revert": true,
                    "status": false,
                    "topics": [
                        "0xddf252ad1be2c89b69c2b068fc378daa952ba7f163c4a11628f55a4df523b3ef",
                        "0x00000000000000000000000065bc8ecbb83175d6c0471946f2672ae35014e253",
                        "0x0000000000000000000000002e966cbf41530b288c5c933e8e4cd5ca3ae6bb6a"
                    ]
                },
                "nodeType": 1
            },
            "4": {
                "event": {
                    "contract": "0x1e18821e69b9faa8e6e75dffe54e7e25754beda0",
                    "decodedLog": {
                        "name": "Approval",
                        "params": [
                            {
                                "name": "owner",
                                "type": "address",
                                "value": "0x65bc8ecbb83175d6c0471946f2672ae35014e253"
                            },
                            {
                                "name": "spender",
                                "type": "address",
                                "value": "0x7a250d5630b4cf539739df2c5dacb4c659f2488d"
                            },
                            {
                                "decimalAvailable": true,
                                "name": "value",
                                "type": "uint256",
                                "value": "115,792,089,237,316,195,423,570,985,008,687,907,853,269,984,665,640,564,039,074,055,296,731,430,098,493"
                            }
                        ],
                        "signature": "Approval(address,address,uint256)"
                    },
                    "id": 4,
                    "logData": "0xffffffffffffffffffffffffffffffffffffffffffffffeb35784d33d369963d",
                    "logDecoded": true,
                    "operation": "EVENT",
                    "revert": true,
                    "status": false,
                    "topics": [
                        "0x8c5be1e5ebec7d5bd14f71427d1e84f3dd0314c0f7b2291e5b200ac8c7c3b925",
                        "0x00000000000000000000000065bc8ecbb83175d6c0471946f2672ae35014e253",
                        "0x0000000000000000000000007a250d5630b4cf539739df2c5dacb4c659f2488d"
                    ]
                },
                "nodeType": 1
            },
            "5": {
                "invocation": {
                    "address": "0x2e966cbf41530b288c5c933e8e4cd5ca3ae6bb6a",
                    "callData": "0x000000000000000000000000000000000000000000000000000000000000000000000000000000000000000000000000000000000000002cf00db577fa7cc26700000000000000000000000065bc8ecbb83175d6c0471946f2672ae35014e25300000000000000000000000000000000000000000000000000000000000000800000000000000000000000000000000000000000000000000000000000000000",
                    "decodedMethod": {
                        "callParams": [
                            {
                                "name": "amount0Out",
                                "type": "uint256",
                                "value": "0"
                            },
                            {
                                "name": "amount1Out",
                                "type": "uint256",
                                "value": "828,954,420,513,928,430,183"
                            },
                            {
                                "name": "to",
                                "type": "address",
                                "value": "0x65bc8ecbb83175d6c0471946f2672ae35014e253"
                            },
                            {
                                "name": "data",
                                "type": "bytes",
                                "value": "0x"
                            }
                        ],
                        "constructorArguments": "",
                        "name": "swap",
                        "returnParams": [],
                        "signature": "swap(uint256,uint256,address,bytes)"
                    },
                    "errorInfo": "out of gas: not enough gas for reentrancy sentry",
                    "fromAddress": "0x7a250d5630b4cf539739df2c5dacb4c659f2488d",
                    "gasUsed": 72021,
                    "id": 5,
                    "methodDecoded": true,
                    "operation": "CALL",
                    "output": "",
                    "revert": true,
                    "revertMessage": "",
                    "selector": "0x022c0d9f",
                    "status": false,
                    "value": "0"
                },
                "nodeType": 0
            },
            "6": {
                "invocation": {
                    "address": "0x4b7dfae2567181e54776337c840e142acb42aa1f",
                    "callData": "0x00000000000000000000000065bc8ecbb83175d6c0471946f2672ae35014e25300000000000000000000000000000000000000000000002cf00db577fa7cc267",
                    "decodedMethod": {
                        "callParams": [
                            {
                                "name": "recipient",
                                "type": "address",
                                "value": "0x65bc8ecbb83175d6c0471946f2672ae35014e253"
                            },
                            {
                                "decimalAvailable": true,
                                "name": "amount",
                                "type": "uint256",
                                "value": "828,954,420,513,928,430,183"
                            }
                        ],
                        "constructorArguments": "",
                        "name": "transfer",
                        "returnParams": [
                            {
                                "name": "",
                                "type": "bool",
                                "value": true
                            }
                        ],
                        "signature": "transfer(address,uint256)"
                    },
                    "errorInfo": "",
                    "fromAddress": "0x2e966cbf41530b288c5c933e8e4cd5ca3ae6bb6a",
                    "gasUsed": 29523,
                    "id": 6,
                    "methodDecoded": true,
                    "operation": "CALL",
                    "output": "0x0000000000000000000000000000000000000000000000000000000000000001",
                    "revert": true,
                    "revertMessage": "",
                    "selector": "0xa9059cbb",
                    "status": true,
                    "value": "0"
                },
                "nodeType": 0
            },
            "7": {
                "event": {
                    "contract": "0x4b7dfae2567181e54776337c840e142acb42aa1f",
                    "decodedLog": {
                        "name": "Transfer",
                        "params": [
                            {
                                "name": "from",
                                "type": "address",
                                "value": "0x2e966cbf41530b288c5c933e8e4cd5ca3ae6bb6a"
                            },
                            {
                                "name": "to",
                                "type": "address",
                                "value": "0x65bc8ecbb83175d6c0471946f2672ae35014e253"
                            },
                            {
                                "decimalAvailable": true,
                                "name": "value",
                                "type": "uint256",
                                "value": "828,954,420,513,928,430,183"
                            }
                        ],
                        "signature": "Transfer(address,address,uint256)"
                    },
                    "id": 7,
                    "logData": "0x00000000000000000000000000000000000000000000002cf00db577fa7cc267",
                    "logDecoded": true,
                    "operation": "EVENT",
                    "revert": true,
                    "status": false,
                    "topics": [
                        "0xddf252ad1be2c89b69c2b068fc378daa952ba7f163c4a11628f55a4df523b3ef",
                        "0x0000000000000000000000002e966cbf41530b288c5c933e8e4cd5ca3ae6bb6a",
                        "0x00000000000000000000000065bc8ecbb83175d6c0471946f2672ae35014e253"
                    ]
                },
                "nodeType": 1
            },
            "8": {
                "invocation": {
                    "address": "0x1e18821e69b9faa8e6e75dffe54e7e25754beda0",
                    "callData": "0x0000000000000000000000002e966cbf41530b288c5c933e8e4cd5ca3ae6bb6a",
                    "decodedMethod": {
                        "callParams": [
                            {
                                "name": "account",
                                "type": "address",
                                "value": "0x2e966cbf41530b288c5c933e8e4cd5ca3ae6bb6a"
                            }
                        ],
                        "constructorArguments": "",
                        "name": "balanceOf",
                        "returnParams": [
                            {
                                "decimalAvailable": true,
                                "name": "",
                                "type": "uint256",
                                "value": "582,816,693,361,193,757,807,712"
                            }
                        ],
                        "signature": "balanceOf(address)"
                    },
                    "errorInfo": "",
                    "fromAddress": "0x2e966cbf41530b288c5c933e8e4cd5ca3ae6bb6a",
                    "gasUsed": 1168,
                    "id": 8,
                    "methodDecoded": true,
                    "operation": "STATICCALL",
                    "output": "0x000000000000000000000000000000000000000000007b6a8e66bcd2b5799460",
                    "revert": true,
                    "revertMessage": "",
                    "selector": "0x70a08231",
                    "status": true,
                    "value": "0"
                },
                "nodeType": 0
            },
            "9": {
                "invocation": {
                    "address": "0x4b7dfae2567181e54776337c840e142acb42aa1f",
                    "callData": "0x0000000000000000000000002e966cbf41530b288c5c933e8e4cd5ca3ae6bb6a",
                    "decodedMethod": {
                        "callParams": [
                            {
                                "name": "account",
                                "type": "address",
                                "value": "0x2e966cbf41530b288c5c933e8e4cd5ca3ae6bb6a"
                            }
                        ],
                        "constructorArguments": "",
                        "name": "balanceOf",
                        "returnParams": [
                            {
                                "decimalAvailable": true,
                                "name": "",
                                "type": "uint256",
                                "value": "4,072,979,508,525,679,933,329,391"
                            }
                        ],
                        "signature": "balanceOf(address)"
                    },
                    "errorInfo": "",
                    "fromAddress": "0x2e966cbf41530b288c5c933e8e4cd5ca3ae6bb6a",
                    "gasUsed": 1168,
                    "id": 9,
                    "methodDecoded": true,
                    "operation": "STATICCALL",
                    "output": "0x000000000000000000000000000000000000000000035e7ca95d69cfa4030fef",
                    "revert": true,
                    "revertMessage": "",
                    "selector": "0x70a08231",
                    "status": true,
                    "value": "0"
                },
                "nodeType": 0
            }
        },
        "gasFlame": [
            {
                "children": [
                    {
                        "children": [
                            {
                                "children": [],
                                "depth": 0,
                                "name": "Initial Gas",
                                "value": 23096
                            },
                            {
                                "children": [
                                    {
                                        "children": [],
                                        "depth": 1,
                                        "name": "getReserves",
                                        "value": 1204
                                    },
                                    {
                                        "children": [],
                                        "depth": 1,
                                        "name": "transferFrom",
                                        "value": 22791
                                    },
                                    {
                                        "children": [
                                            {
                                                "children": [],
                                                "depth": 2,
                                                "name": "transfer",
                                                "value": 29523
                                            },
                                            {
                                                "children": [],
                                                "depth": 2,
                                                "name": "balanceOf",
                                                "value": 1168
                                            },
                                            {
                                                "children": [],
                                                "depth": 2,
                                                "name": "balanceOf",
                                                "value": 1168
                                            }
                                        ],
                                        "depth": 1,
                                        "name": "swap",
                                        "value": 72021
                                    }
                                ],
                                "depth": 0,
                                "name": "Executed Gas",
                                "value": 106345
                            }
                        ],
                        "depth": -1,
                        "name": "Actual Gas Used",
                        "value": 129441
                    },
                    {
                        "children": [],
                        "depth": -1,
                        "name": "Refunded Gas",
                        "value": 0
                    }
                ],
                "depth": -2,
                "name": "Total Gas",
                "value": 129441
            }
        ],
        "isConfirmed": true,
        "mainTrace": [
            {
                "children": [
                    {
                        "children": [
                            {
                                "children": [],
                                "depth": 1,
                                "id": 1,
                                "order": 1
                            },
                            {
                                "children": [
                                    {
                                        "children": [],
                                        "depth": 2,
                                        "id": 3,
                                        "order": 3
                                    },
                                    {
                                        "children": [],
                                        "depth": 2,
                                        "id": 4,
                                        "order": 4
                                    }
                                ],
                                "depth": 1,
                                "id": 2,
                                "order": 2
                            },
                            {
                                "children": [
                                    {
                                        "children": [
                                            {
                                                "children": [],
                                                "depth": 3,
                                                "id": 7,
                                                "order": 7
                                            }
                                        ],
                                        "depth": 2,
                                        "id": 6,
                                        "order": 6
                                    },
                                    {
                                        "children": [],
                                        "depth": 2,
                                        "id": 8,
                                        "order": 8
                                    },
                                    {
                                        "children": [],
                                        "depth": 2,
                                        "id": 9,
                                        "order": 9
                                    },
                                    {
                                        "children": [],
                                        "depth": 2,
                                        "id": 10,
                                        "order": 10
                                    },
                                    {
                                        "children": [],
                                        "depth": 2,
                                        "id": 11,
                                        "order": 11
                                    }
                                ],
                                "depth": 1,
                                "id": 5,
                                "order": 5
                            }
                        ],
                        "depth": 0,
                        "id": 0,
                        "order": 0
                    }
                ],
                "depth": -1,
                "id": -1,
                "order": -1
            }
        ],
        "mainTraceNodeCount": 12,
        "parentIdMap": {
            "0": -1,
            "1": 0,
            "10": 5,
            "11": 5,
            "2": 0,
            "3": 2,
            "4": 2,
            "5": 0,
            "6": 5,
            "7": 6,
            "8": 5,
            "9": 5
        },
        "tidyTrace": [
            {
                "children": [
                    {
                        "children": [
                            {
                                "children": [
                                    {
                                        "children": [],
                                        "depth": 2,
                                        "id": 3,
                                        "order": 3
                                    },
                                    {
                                        "children": [],
                                        "depth": 2,
                                        "id": 4,
                                        "order": 4
                                    }
                                ],
                                "depth": 1,
                                "id": 2,
                                "order": 2
                            },
                            {
                                "children": [
                                    {
                                        "children": [
                                            {
                                                "children": [],
                                                "depth": 3,
                                                "id": 7,
                                                "order": 7
                                            }
                                        ],
                                        "depth": 2,
                                        "id": 6,
                                        "order": 6
                                    },
                                    {
                                        "children": [],
                                        "depth": 2,
                                        "id": 10,
                                        "order": 10
                                    },
                                    {
                                        "children": [],
                                        "depth": 2,
                                        "id": 11,
                                        "order": 11
                                    }
                                ],
                                "depth": 1,
                                "id": 5,
                                "order": 5
                            }
                        ],
                        "depth": 0,
                        "id": 0,
                        "order": 0
                    }
                ],
                "depth": -1,
                "id": -1,
                "order": -1
            }
        ],
        "tidyTraceNodeCount": 9
    },
    "state_change": {
        "stateChanges": []
    }
}