{
    "balance_change": {
        "balanceChanges": []
    },
    "profile": {
        "basic_info": {
            "baseFee": "",
            "blockNumber": 6692660,
            "callData": "0x4a8268230000000000000000000000000000000000000000000000000000000000007aac0000000000000000000000000000000000000000000000000000000000006f0500000000000000000000000000000000000000000000000000000000000063e7000000000000000000000000000000000000000000000000000000000000000000000000000000000000000000000000000000000000000000000000000000000000000000000000000000000000000000000000000000000000000000000000",
            "debugEnable": true,
            "errorInfo": "",
            "eventCount": 1,
            "feeRecipient": "0x829bd824b016326a401d083b33d092293333a830",
            "formatValue": "0",
            "gasLimit": 139202,
            "gasPrice": "3",
            "gasUsed": 101002,
            "intTxnCount": 16,
            "internalRevert": false,
            "internalRevertMessage": "",
            "isContractCreation": false,
            "isFlashloan": false,
            "maxFee": "",
            "nonce": 792,
            "overwritedBlockNumber": -1,
            "priorityFee": "",
            "receiver": "0x022c635044ba01ced1e098bc32e62a954147f2de",
            "revertMessage": "",
            "sender": "0xc76c0f8171d643975a30bcd7f3230ddd346b8ba7",
            "simulationEnable": true,
            "sourceTxnHash": "0xdca8a4473f17959628a4e695fadf8324cf27f56e2043b73fd601fcdd764db112",
            "status": true,
            "timestamp": "2018-11-12T20:09:33Z",
            "transactionFee": "0.000303006",
            "txnHash": "0xdca8a4473f17959628a4e695fadf8324cf27f56e2043b73fd601fcdd764db112",
            "txnIndex": 114,
            "type": 0,
            "value": "0"
        },
        "fund_flow": [],
        "token_infos": [
            {
                "address": "0xeeeeeeeeeeeeeeeeeeeeeeeeeeeeeeeeeeeeeeee",
                "decimals": 18
            },
            {
                "address": "0xc02aaa39b223fe8d0a0e5c4f27ead9083c756cc2",
                "decimals": 18
            }
        ]
    },
    "address_label": {
        "labels": [
            {
                "address": "0xeeeeeeeeeeeeeeeeeeeeeeeeeeeeeeeeeeeeeeee",
                "label": "Ether"
            },
            {
                "address": "0x022c635044ba01ced1e098bc32e62a954147f2de",
                "label": "Etheremon: Rank Battle 2"
            },
            {
                "address": "0xabc1c404424bdf24c19a5cc5ef8f47781d18eb3e",
                "label": "Etheremon: Data"
            },
            {
                "address": "0x9a376e31f1947c468ca904b4307c8970667e0ec2",
                "label": "EtheremonTradeData"
            },
            {
                "address": "0x0000000000000000000000000000000000000001",
                "label": "Precompiled"
            },
            {
                "address": "0x838cda4a4cc873fff10f4d6373ada6636517fa31",
                "label": "Etheremon: Rank Data"
            },
            {
                "address": "0xd7a729dcc836265218a71511b27e078338e578f1",
                "label": "EtheremonTradingVerifier"
            },
            {
                "address": "0x0000000000000000000000000000000000000002",
                "label": "Precompiled"
            },
            {
                "address": "0x0000000000000000000000000000000000000003",
                "label": "Precompiled"
            },
            {
                "address": "0x0000000000000000000000000000000000000004",
                "label": "Precompiled"
            }
        ]
    },
    "trace": {
        "accountLabels": null,
        "dataMap": {
            "-1": {
                "invocation": {
                    "address": "0xc76c0f8171d643975a30bcd7f3230ddd346b8ba7",
                    "callData": "",
                    "decodedMethod": null,
                    "errorInfo": "",
                    "fromAddress": "",
                    "gasUsed": 0,
                    "id": -1,
                    "methodDecoded": false,
                    "operation": "",
                    "output": "",
                    "revert": false,
                    "revertMessage": "",
                    "selector": "",
                    "status": false,
                    "value": ""
                },
                "nodeType": 0
            },
            "0": {
                "invocation": {
                    "address": "0x022c635044ba01ced1e098bc32e62a954147f2de",
                    "callData": "0x0000000000000000000000000000000000000000000000000000000000007aac0000000000000000000000000000000000000000000000000000000000006f0500000000000000000000000000000000000000000000000000000000000063e7000000000000000000000000000000000000000000000000000000000000000000000000000000000000000000000000000000000000000000000000000000000000000000000000000000000000000000000000000000000000000000000000",
                    "decodedMethod": {
                        "callParams": [
                            {
                                "name": "_a1",
                                "type": "uint64",
                                "value": "31,404"
                            },
                            {
                                "name": "_a2",
                                "type": "uint64",
                                "value": "28,421"
                            },
                            {
                                "name": "_a3",
                                "type": "uint64",
                                "value": "25,575"
                            },
                            {
                                "name": "_s1",
                                "type": "uint64",
                                "value": "0"
                            },
                            {
                                "name": "_s2",
                                "type": "uint64",
                                "value": "0"
                            },
                            {
                                "name": "_s3",
                                "type": "uint64",
                                "value": "0"
                            }
                        ],
                        "constructorArguments": "",
                        "name": "setCastle",
                        "returnParams": [],
                        "signature": "setCastle(uint64,uint64,uint64,uint64,uint64,uint64)"
                    },
                    "errorInfo": "",
                    "fromAddress": "0xc76c0f8171d643975a30bcd7f3230ddd346b8ba7",
                    "gasUsed": 101002,
                    "id": 0,
                    "methodDecoded": true,
                    "operation": "CALL",
                    "output": "",
                    "revert": false,
                    "revertMessage": "",
                    "selector": "0x4a826823",
                    "status": true,
                    "value": "0"
                },
                "nodeType": 0
            },
            "1": {
                "invocation": {
                    "address": "0xabc1c404424bdf24c19a5cc5ef8f47781d18eb3e",
                    "callData": "0x0000000000000000000000000000000000000000000000000000000000007aac",
                    "decodedMethod": {
                        "callParams": [
                            {
                                "name": "_objId",
                                "type": "uint64",
                                "value": "31,404"
                            }
                        ],
                        "constructorArguments": "",
                        "name": "getMonsterObj",
                        "returnParams": [
                            {
                                "name": "objId",
                                "type": "uint64",
                                "value": "31,404"
                            },
                            {
                                "name": "classId",
                                "type": "uint32",
                                "value": "25"
                            },
                            {
                                "name": "trainer",
                                "type": "address",
                                "value": "0xc76c0f8171d643975a30bcd7f3230ddd346b8ba7"
                            },
                            {
                                "name": "exp",
                                "type": "uint32",
                                "value": "678"
                            },
                            {
                                "name": "createIndex",
                                "type": "uint32",
                                "value": "6,099"
                            },
                            {
                                "name": "lastClaimIndex",
                                "type": "uint32",
                                "value": "6,099"
                            },
                            {
                                "name": "createTime",
                                "type": "uint256",
                                "value": "1,525,515,852"
                            }
                        ],
                        "signature": "getMonsterObj(uint64)"
                    },
                    "errorInfo": "",
                    "fromAddress": "0x022c635044ba01ced1e098bc32e62a954147f2de",
                    "gasUsed": 2448,
                    "id": 1,
                    "methodDecoded": true,
                    "operation": "CALL",
                    "output": "0x0000000000000000000000000000000000000000000000000000000000007aac0000000000000000000000000000000000000000000000000000000000000019000000000000000000000000c76c0f8171d643975a30bcd7f3230ddd346b8ba700000000000000000000000000000000000000000000000000000000000002a600000000000000000000000000000000000000000000000000000000000017d300000000000000000000000000000000000000000000000000000000000017d3000000000000000000000000000000000000000000000000000000005aed864c",
                    "revert": false,
                    "revertMessage": "",
                    "selector": "0x07202460",
                    "status": true,
                    "value": "0"
                },
                "nodeType": 0
            },
            "10": {
                "invocation": {
                    "address": "0xd7a729dcc836265218a71511b27e078338e578f1",
                    "callData": "0x0000000000000000000000000000000000000000000000000000000000000000",
                    "decodedMethod": {
                        "callParams": [
                            {
                                "name": "_objId",
                                "type": "uint64",
                                "value": "0"
                            }
                        ],
                        "constructorArguments": "",
                        "name": "isOnTrading",
                        "returnParams": [
                            {
                                "name": "",
                                "type": "bool",
                                "value": false
                            }
                        ],
                        "signature": "isOnTrading(uint64)"
                    },
                    "errorInfo": "",
                    "fromAddress": "0x022c635044ba01ced1e098bc32e62a954147f2de",
                    "gasUsed": 3606,
                    "id": 10,
                    "methodDecoded": true,
                    "operation": "CALL",
                    "output": "0x0000000000000000000000000000000000000000000000000000000000000000",
                    "revert": false,
                    "revertMessage": "",
                    "selector": "0xa847a71c",
                    "status": true,
                    "value": "0"
                },
                "nodeType": 0
            },
            "11": {
                "invocation": {
                    "address": "0x9a376e31f1947c468ca904b4307c8970667e0ec2",
                    "callData": "0x0000000000000000000000000000000000000000000000000000000000000000",
                    "decodedMethod": {
                        "callParams": [
                            {
                                "name": "_objId",
                                "type": "uint256",
                                "value": "0"
                            }
                        ],
                        "constructorArguments": "",
                        "name": "isOnTrade",
                        "returnParams": [
                            {
                                "name": "",
                                "type": "bool",
                                "value": false
                            }
                        ],
                        "signature": "isOnTrade(uint256)"
                    },
                    "errorInfo": "",
                    "fromAddress": "0xd7a729dcc836265218a71511b27e078338e578f1",
                    "gasUsed": 1506,
                    "id": 11,
                    "methodDecoded": true,
                    "operation": "CALL",
                    "output": "0x0000000000000000000000000000000000000000000000000000000000000000",
                    "revert": false,
                    "revertMessage": "",
                    "selector": "0xff510ad8",
                    "status": true,
                    "value": "0"
                },
                "nodeType": 0
            },
            "12": {
                "invocation": {
                    "address": "0xd7a729dcc836265218a71511b27e078338e578f1",
                    "callData": "0x0000000000000000000000000000000000000000000000000000000000000000",
                    "decodedMethod": {
                        "callParams": [
                            {
                                "name": "_objId",
                                "type": "uint64",
                                "value": "0"
                            }
                        ],
                        "constructorArguments": "",
                        "name": "isOnTrading",
                        "returnParams": [
                            {
                                "name": "",
                                "type": "bool",
                                "value": false
                            }
                        ],
                        "signature": "isOnTrading(uint64)"
                    },
                    "errorInfo": "",
                    "fromAddress": "0x022c635044ba01ced1e098bc32e62a954147f2de",
                    "gasUsed": 3606,
                    "id": 12,
                    "methodDecoded": true,
                    "operation": "CALL",
                    "output": "0x0000000000000000000000000000000000000000000000000000000000000000",
                    "revert": false,
                    "revertMessage": "",
                    "selector": "0xa847a71c",
                    "status": true,
                    "value": "0"
                },
                "nodeType": 0
            },
            "13": {
                "invocation": {
                    "address": "0x9a376e31f1947c468ca904b4307c8970667e0ec2",
                    "callData": "0x0000000000000000000000000000000000000000000000000000000000000000",
                    "decodedMethod": {
                        "callParams": [
                            {
                                "name": "_objId",
                                "type": "uint256",
                                "value": "0"
                            }
                        ],
                        "constructorArguments": "",
                        "name": "isOnTrade",
                        "returnParams": [
                            {
                                "name": "",
                                "type": "bool",
                                "value": false
                            }
                        ],
                        "signature": "isOnTrade(uint256)"
                    },
                    "errorInfo": "",
                    "fromAddress": "0xd7a729dcc836265218a71511b27e078338e578f1",
                    "gasUsed": 1506,
                    "id": 13,
                    "methodDecoded": true,
                    "operation": "CALL",
                    "output": "0x0000000000000000000000000000000000000000000000000000000000000000",
                    "revert": false,
                    "revertMessage": "",
                    "selector": "0xff510ad8",
                    "status": true,
                    "value": "0"
                },
                "nodeType": 0
            },
            "14": {
                "invocation": {
                    "address": "0xd7a729dcc836265218a71511b27e078338e578f1",
                    "callData": "0x0000000000000000000000000000000000000000000000000000000000000000",
                    "decodedMethod": {
                        "callParams": [
                            {
                                "name": "_objId",
                                "type": "uint64",
                                "value": "0"
                            }
                        ],
                        "constructorArguments": "",
                        "name": "isOnTrading",
                        "returnParams": [
                            {
                                "name": "",
                                "type": "bool",
                                "value": false
                            }
                        ],
                        "signature": "isOnTrading(uint64)"
                    },
                    "errorInfo": "",
                    "fromAddress": "0x022c635044ba01ced1e098bc32e62a954147f2de",
                    "gasUsed": 3606,
                    "id": 14,
                    "methodDecoded": true,
                    "operation": "CALL",
                    "output": "0x0000000000000000000000000000000000000000000000000000000000000000",
                    "revert": false,
                    "revertMessage": "",
                    "selector": "0xa847a71c",
                    "status": true,
                    "value": "0"
                },
                "nodeType": 0
            },
            "15": {
                "invocation": {
                    "address": "0x9a376e31f1947c468ca904b4307c8970667e0ec2",
                    "callData": "0x0000000000000000000000000000000000000000000000000000000000000000",
                    "decodedMethod": {
                        "callParams": [
                            {
                                "name": "_objId",
                                "type": "uint256",
                                "value": "0"
                            }
                        ],
                        "constructorArguments": "",
                        "name": "isOnTrade",
                        "returnParams": [
                            {
                                "name": "",
                                "type": "bool",
                                "value": false
                            }
                        ],
                        "signature": "isOnTrade(uint256)"
                    },
                    "errorInfo": "",
                    "fromAddress": "0xd7a729dcc836265218a71511b27e078338e578f1",
                    "gasUsed": 1506,
                    "id": 15,
                    "methodDecoded": true,
                    "operation": "CALL",
                    "output": "0x0000000000000000000000000000000000000000000000000000000000000000",
                    "revert": false,
                    "revertMessage": "",
                    "selector": "0xff510ad8",
                    "status": true,
                    "value": "0"
                },
                "nodeType": 0
            },
            "16": {
                "invocation": {
                    "address": "0x838cda4a4cc873fff10f4d6373ada6636517fa31",
                    "callData": "0x000000000000000000000000c76c0f8171d643975a30bcd7f3230ddd346b8ba70000000000000000000000000000000000000000000000000000000000007aac0000000000000000000000000000000000000000000000000000000000006f0500000000000000000000000000000000000000000000000000000000000063e7000000000000000000000000000000000000000000000000000000000000000000000000000000000000000000000000000000000000000000000000000000000000000000000000000000000000000000000000000000000000000000000000",
                    "decodedMethod": {
                        "callParams": [
                            {
                                "name": "_trainer",
                                "type": "address",
                                "value": "0xc76c0f8171d643975a30bcd7f3230ddd346b8ba7"
                            },
                            {
                                "name": "_a0",
                                "type": "uint64",
                                "value": "31,404"
                            },
                            {
                                "name": "_a1",
                                "type": "uint64",
                                "value": "28,421"
                            },
                            {
                                "name": "_a2",
                                "type": "uint64",
                                "value": "25,575"
                            },
                            {
                                "name": "_s0",
                                "type": "uint64",
                                "value": "0"
                            },
                            {
                                "name": "_s1",
                                "type": "uint64",
                                "value": "0"
                            },
                            {
                                "name": "_s2",
                                "type": "uint64",
                                "value": "0"
                            }
                        ],
                        "constructorArguments": "",
                        "name": "setPlayer",
                        "returnParams": [
                            {
                                "name": "playerId",
                                "type": "uint32",
                                "value": "44"
                            }
                        ],
                        "signature": "setPlayer(address,uint64,uint64,uint64,uint64,uint64,uint64)"
                    },
                    "errorInfo": "",
                    "fromAddress": "0x022c635044ba01ced1e098bc32e62a954147f2de",
                    "gasUsed": 39295,
                    "id": 16,
                    "methodDecoded": true,
                    "operation": "CALL",
                    "output": "0x000000000000000000000000000000000000000000000000000000000000002c",
                    "revert": false,
                    "revertMessage": "",
                    "selector": "0x49a92910",
                    "status": true,
                    "value": "0"
                },
                "nodeType": 0
            },
            "17": {
                "event": {
                    "contract": "0x022c635044ba01ced1e098bc32e62a954147f2de",
                    "decodedLog": {
                        "name": "EventUpdateCastle",
                        "params": [
                            {
                                "name": "trainer",
                                "type": "address",
                                "value": "0xc76c0f8171d643975a30bcd7f3230ddd346b8ba7"
                            },
                            {
                                "name": "playerId",
                                "type": "uint32",
                                "value": "44"
                            }
                        ],
                        "signature": "EventUpdateCastle(address,uint32)"
                    },
                    "id": 17,
                    "logData": "0x000000000000000000000000000000000000000000000000000000000000002c",
                    "logDecoded": true,
                    "operation": "EVENT",
                    "revert": false,
                    "status": true,
                    "topics": [
                        "0x73e58b14fab1ee02f4e1a0ab06d580a880c03f88b1d660acf5528ea85d455dfe",
                        "0x000000000000000000000000c76c0f8171d643975a30bcd7f3230ddd346b8ba7"
                    ]
                },
                "nodeType": 1
            },
            "2": {
                "invocation": {
                    "address": "0xabc1c404424bdf24c19a5cc5ef8f47781d18eb3e",
                    "callData": "0x0000000000000000000000000000000000000000000000000000000000006f05",
                    "decodedMethod": {
                        "callParams": [
                            {
                                "name": "_objId",
                                "type": "uint64",
                                "value": "28,421"
                            }
                        ],
                        "constructorArguments": "",
                        "name": "getMonsterObj",
                        "returnParams": [
                            {
                                "name": "objId",
                                "type": "uint64",
                                "value": "28,421"
                            },
                            {
                                "name": "classId",
                                "type": "uint32",
                                "value": "27"
                            },
                            {
                                "name": "trainer",
                                "type": "address",
                                "value": "0xc76c0f8171d643975a30bcd7f3230ddd346b8ba7"
                            },
                            {
                                "name": "exp",
                                "type": "uint32",
                                "value": "2,567"
                            },
                            {
                                "name": "createIndex",
                                "type": "uint32",
                                "value": "5,772"
                            },
                            {
                                "name": "lastClaimIndex",
                                "type": "uint32",
                                "value": "5,772"
                            },
                            {
                                "name": "createTime",
                                "type": "uint256",
                                "value": "1,521,639,011"
                            }
                        ],
                        "signature": "getMonsterObj(uint64)"
                    },
                    "errorInfo": "",
                    "fromAddress": "0x022c635044ba01ced1e098bc32e62a954147f2de",
                    "gasUsed": 2448,
                    "id": 2,
                    "methodDecoded": true,
                    "operation": "CALL",
                    "output": "0x0000000000000000000000000000000000000000000000000000000000006f05000000000000000000000000000000000000000000000000000000000000001b000000000000000000000000c76c0f8171d643975a30bcd7f3230ddd346b8ba70000000000000000000000000000000000000000000000000000000000000a07000000000000000000000000000000000000000000000000000000000000168c000000000000000000000000000000000000000000000000000000000000168c000000000000000000000000000000000000000000000000000000005ab25e63",
                    "revert": false,
                    "revertMessage": "",
                    "selector": "0x07202460",
                    "status": true,
                    "value": "0"
                },
                "nodeType": 0
            },
            "3": {
                "invocation": {
                    "address": "0xabc1c404424bdf24c19a5cc5ef8f47781d18eb3e",
                    "callData": "0x00000000000000000000000000000000000000000000000000000000000063e7",
                    "decodedMethod": {
                        "callParams": [
                            {
                                "name": "_objId",
                                "type": "uint64",
                                "value": "25,575"
                            }
                        ],
                        "constructorArguments": "",
                        "name": "getMonsterObj",
                        "returnParams": [
                            {
                                "name": "objId",
                                "type": "uint64",
                                "value": "25,575"
                            },
                            {
                                "name": "classId",
                                "type": "uint32",
                                "value": "4"
                            },
                            {
                                "name": "trainer",
                                "type": "address",
                                "value": "0xc76c0f8171d643975a30bcd7f3230ddd346b8ba7"
                            },
                            {
                                "name": "exp",
                                "type": "uint32",
                                "value": "25"
                            },
                            {
                                "name": "createIndex",
                                "type": "uint32",
                                "value": "467"
                            },
                            {
                                "name": "lastClaimIndex",
                                "type": "uint32",
                                "value": "467"
                            },
                            {
                                "name": "createTime",
                                "type": "uint256",
                                "value": "1,518,770,967"
                            }
                        ],
                        "signature": "getMonsterObj(uint64)"
                    },
                    "errorInfo": "",
                    "fromAddress": "0x022c635044ba01ced1e098bc32e62a954147f2de",
                    "gasUsed": 2448,
                    "id": 3,
                    "methodDecoded": true,
                    "operation": "CALL",
                    "output": "0x00000000000000000000000000000000000000000000000000000000000063e70000000000000000000000000000000000000000000000000000000000000004000000000000000000000000c76c0f8171d643975a30bcd7f3230ddd346b8ba7000000000000000000000000000000000000000000000000000000000000001900000000000000000000000000000000000000000000000000000000000001d300000000000000000000000000000000000000000000000000000000000001d3000000000000000000000000000000000000000000000000000000005a869b17",
                    "revert": false,
                    "revertMessage": "",
                    "selector": "0x07202460",
                    "status": true,
                    "value": "0"
                },
                "nodeType": 0
            },
            "4": {
                "invocation": {
                    "address": "0xd7a729dcc836265218a71511b27e078338e578f1",
                    "callData": "0x0000000000000000000000000000000000000000000000000000000000007aac",
                    "decodedMethod": {
                        "callParams": [
                            {
                                "name": "_objId",
                                "type": "uint64",
                                "value": "31,404"
                            }
                        ],
                        "constructorArguments": "",
                        "name": "isOnTrading",
                        "returnParams": [
                            {
                                "name": "",
                                "type": "bool",
                                "value": false
                            }
                        ],
                        "signature": "isOnTrading(uint64)"
                    },
                    "errorInfo": "",
                    "fromAddress": "0x022c635044ba01ced1e098bc32e62a954147f2de",
                    "gasUsed": 3606,
                    "id": 4,
                    "methodDecoded": true,
                    "operation": "CALL",
                    "output": "0x0000000000000000000000000000000000000000000000000000000000000000",
                    "revert": false,
                    "revertMessage": "",
                    "selector": "0xa847a71c",
                    "status": true,
                    "value": "0"
                },
                "nodeType": 0
            },
            "5": {
                "invocation": {
                    "address": "0x9a376e31f1947c468ca904b4307c8970667e0ec2",
                    "callData": "0x0000000000000000000000000000000000000000000000000000000000007aac",
                    "decodedMethod": {
                        "callParams": [
                            {
                                "name": "_objId",
                                "type": "uint256",
                                "value": "31,404"
                            }
                        ],
                        "constructorArguments": "",
                        "name": "isOnTrade",
                        "returnParams": [
                            {
                                "name": "",
                                "type": "bool",
                                "value": false
                            }
                        ],
                        "signature": "isOnTrade(uint256)"
                    },
                    "errorInfo": "",
                    "fromAddress": "0xd7a729dcc836265218a71511b27e078338e578f1",
                    "gasUsed": 1506,
                    "id": 5,
                    "methodDecoded": true,
                    "operation": "CALL",
                    "output": "0x0000000000000000000000000000000000000000000000000000000000000000",
                    "revert": false,
                    "revertMessage": "",
                    "selector": "0xff510ad8",
                    "status": true,
                    "value": "0"
                },
                "nodeType": 0
            },
            "6": {
                "invocation": {
                    "address": "0xd7a729dcc836265218a71511b27e078338e578f1",
                    "callData": "0x0000000000000000000000000000000000000000000000000000000000006f05",
                    "decodedMethod": {
                        "callParams": [
                            {
                                "name": "_objId",
                                "type": "uint64",
                                "value": "28,421"
                            }
                        ],
                        "constructorArguments": "",
                        "name": "isOnTrading",
                        "returnParams": [
                            {
                                "name": "",
                                "type": "bool",
                                "value": false
                            }
                        ],
                        "signature": "isOnTrading(uint64)"
                    },
                    "errorInfo": "",
                    "fromAddress": "0x022c635044ba01ced1e098bc32e62a954147f2de",
                    "gasUsed": 3606,
                    "id": 6,
                    "methodDecoded": true,
                    "operation": "CALL",
                    "output": "0x0000000000000000000000000000000000000000000000000000000000000000",
                    "revert": false,
                    "revertMessage": "",
                    "selector": "0xa847a71c",
                    "status": true,
                    "value": "0"
                },
                "nodeType": 0
            },
            "7": {
                "invocation": {
                    "address": "0x9a376e31f1947c468ca904b4307c8970667e0ec2",
                    "callData": "0x0000000000000000000000000000000000000000000000000000000000006f05",
                    "decodedMethod": {
                        "callParams": [
                            {
                                "name": "_objId",
                                "type": "uint256",
                                "value": "28,421"
                            }
                        ],
                        "constructorArguments": "",
                        "name": "isOnTrade",
                        "returnParams": [
                            {
                                "name": "",
                                "type": "bool",
                                "value": false
                            }
                        ],
                        "signature": "isOnTrade(uint256)"
                    },
                    "errorInfo": "",
                    "fromAddress": "0xd7a729dcc836265218a71511b27e078338e578f1",
                    "gasUsed": 1506,
                    "id": 7,
                    "methodDecoded": true,
                    "operation": "CALL",
                    "output": "0x0000000000000000000000000000000000000000000000000000000000000000",
                    "revert": false,
                    "revertMessage": "",
                    "selector": "0xff510ad8",
                    "status": true,
                    "value": "0"
                },
                "nodeType": 0
            },
            "8": {
                "invocation": {
                    "address": "0xd7a729dcc836265218a71511b27e078338e578f1",
                    "callData": "0x00000000000000000000000000000000000000000000000000000000000063e7",
                    "decodedMethod": {
                        "callParams": [
                            {
                                "name": "_objId",
                                "type": "uint64",
                                "value": "25,575"
                            }
                        ],
                        "constructorArguments": "",
                        "name": "isOnTrading",
                        "returnParams": [
                            {
                                "name": "",
                                "type": "bool",
                                "value": false
                            }
                        ],
                        "signature": "isOnTrading(uint64)"
                    },
                    "errorInfo": "",
                    "fromAddress": "0x022c635044ba01ced1e098bc32e62a954147f2de",
                    "gasUsed": 3606,
                    "id": 8,
                    "methodDecoded": true,
                    "operation": "CALL",
                    "output": "0x0000000000000000000000000000000000000000000000000000000000000000",
                    "revert": false,
                    "revertMessage": "",
                    "selector": "0xa847a71c",
                    "status": true,
                    "value": "0"
                },
                "nodeType": 0
            },
            "9": {
                "invocation": {
                    "address": "0x9a376e31f1947c468ca904b4307c8970667e0ec2",
                    "callData": "0x00000000000000000000000000000000000000000000000000000000000063e7",
                    "decodedMethod": {
                        "callParams": [
                            {
                                "name": "_objId",
                                "type": "uint256",
                                "value": "25,575"
                            }
                        ],
                        "constructorArguments": "",
                        "name": "isOnTrade",
                        "returnParams": [
                            {
                                "name": "",
                                "type": "bool",
                                "value": false
                            }
                        ],
                        "signature": "isOnTrade(uint256)"
                    },
                    "errorInfo": "",
                    "fromAddress": "0xd7a729dcc836265218a71511b27e078338e578f1",
                    "gasUsed": 1506,
                    "id": 9,
                    "methodDecoded": true,
                    "operation": "CALL",
                    "output": "0x0000000000000000000000000000000000000000000000000000000000000000",
                    "revert": false,
                    "revertMessage": "",
                    "selector": "0xff510ad8",
                    "status": true,
                    "value": "0"
                },
                "nodeType": 0
            }
        },
        "gasFlame": [
            {
                "children": [
                    {
                        "children": [
                            {
                                "children": [],
                                "depth": 0,
                                "name": "Initial Gas",
                                "value": 22424
                            },
                            {
                                "children": [
                                    {
                                        "children": [],
                                        "depth": 1,
                                        "name": "getMonsterObj",
                                        "value": 2448
                                    },
                                    {
                                        "children": [],
                                        "depth": 1,
                                        "name": "getMonsterObj",
                                        "value": 2448
                                    },
                                    {
                                        "children": [],
                                        "depth": 1,
                                        "name": "getMonsterObj",
                                        "value": 2448
                                    },
                                    {
                                        "children": [
                                            {
                                                "children": [],
                                                "depth": 2,
                                                "name": "isOnTrade",
                                                "value": 1506
                                            }
                                        ],
                                        "depth": 1,
                                        "name": "isOnTrading",
                                        "value": 3606
                                    },
                                    {
                                        "children": [
                                            {
                                                "children": [],
                                                "depth": 2,
                                                "name": "isOnTrade",
                                                "value": 1506
                                            }
                                        ],
                                        "depth": 1,
                                        "name": "isOnTrading",
                                        "value": 3606
                                    },
                                    {
                                        "children": [
                                            {
                                                "children": [],
                                                "depth": 2,
                                                "name": "isOnTrade",
                                                "value": 1506
                                            }
                                        ],
                                        "depth": 1,
                                        "name": "isOnTrading",
                                        "value": 3606
                                    },
                                    {
                                        "children": [
                                            {
                                                "children": [],
                                                "depth": 2,
                                                "name": "isOnTrade",
                                                "value": 1506
                                            }
                                        ],
                                        "depth": 1,
                                        "name": "isOnTrading",
                                        "value": 3606
                                    },
                                    {
                                        "children": [
                                            {
                                                "children": [],
                                                "depth": 2,
                                                "name": "isOnTrade",
                                                "value": 1506
                                            }
                                        ],
                                        "depth": 1,
                                        "name": "isOnTrading",
                                        "value": 3606
                                    },
                                    {
                                        "children": [
                                            {
                                                "children": [],
                                                "depth": 2,
                                                "name": "isOnTrade",
                                                "value": 1506
                                            }
                                        ],
                                        "depth": 1,
                                        "name": "isOnTrading",
                                        "value": 3606
                                    },
                                    {
                                        "children": [],
                                        "depth": 1,
                                        "name": "setPlayer",
                                        "value": 39295
                                    }
                                ],
                                "depth": 0,
                                "name": "Executed Gas",
                                "value": 93578
                            }
                        ],
                        "depth": -1,
                        "name": "Actual Gas Used",
                        "value": 101002
                    },
                    {
                        "children": [],
                        "depth": -1,
                        "name": "Refunded Gas",
                        "value": 15000
                    }
                ],
                "depth": -2,
                "name": "Total Gas",
                "value": 116002
            }
        ],
        "isConfirmed": true,
        "mainTrace": [
            {
                "children": [
                    {
                        "children": [
                            {
                                "children": [],
                                "depth": 1,
                                "id": 1,
                                "order": 1
                            },
                            {
                                "children": [],
                                "depth": 1,
                                "id": 2,
                                "order": 2
                            },
                            {
                                "children": [],
                                "depth": 1,
                                "id": 3,
                                "order": 3
                            },
                            {
                                "children": [
                                    {
                                        "children": [],
                                        "depth": 2,
                                        "id": 5,
                                        "order": 5
                                    }
                                ],
                                "depth": 1,
                                "id": 4,
                                "order": 4
                            },
                            {
                                "children": [
                                    {
                                        "children": [],
                                        "depth": 2,
                                        "id": 7,
                                        "order": 7
                                    }
                                ],
                                "depth": 1,
                                "id": 6,
                                "order": 6
                            },
                            {
                                "children": [
                                    {
                                        "children": [],
                                        "depth": 2,
                                        "id": 9,
                                        "order": 9
                                    }
                                ],
                                "depth": 1,
                                "id": 8,
                                "order": 8
                            },
                            {
                                "children": [
                                    {
                                        "children": [],
                                        "depth": 2,
                                        "id": 11,
                                        "order": 11
                                    }
                                ],
                                "depth": 1,
                                "id": 10,
                                "order": 10
                            },
                            {
                                "children": [
                                    {
                                        "children": [],
                                        "depth": 2,
                                        "id": 13,
                                        "order": 13
                                    }
                                ],
                                "depth": 1,
                                "id": 12,
                                "order": 12
                            },
                            {
                                "children": [
                                    {
                                        "children": [],
                                        "depth": 2,
                                        "id": 15,
                                        "order": 15
                                    }
                                ],
                                "depth": 1,
                                "id": 14,
                                "order": 14
                            },
                            {
                                "children": [],
                                "depth": 1,
                                "id": 16,
                                "order": 16
                            },
                            {
                                "children": [],
                                "depth": 1,
                                "id": 17,
                                "order": 17
                            }
                        ],
                        "depth": 0,
                        "id": 0,
                        "order": 0
                    }
                ],
                "depth": -1,
                "id": -1,
                "order": -1
            }
        ],
        "mainTraceNodeCount": 18,
        "parentIdMap": {
            "0": -1,
            "1": 0,
            "10": 0,
            "11": 10,
            "12": 0,
            "13": 12,
            "14": 0,
            "15": 14,
            "16": 0,
            "17": 0,
            "2": 0,
            "3": 0,
            "4": 0,
            "5": 4,
            "6": 0,
            "7": 6,
            "8": 0,
            "9": 8
        },
        "tidyTrace": [
            {
                "children": [
                    {
                        "children": [
                            {
                                "children": [],
                                "depth": 1,
                                "id": 1,
                                "order": 1
                            },
                            {
                                "children": [],
                                "depth": 1,
                                "id": 2,
                                "order": 2
                            },
                            {
                                "children": [],
                                "depth": 1,
                                "id": 3,
                                "order": 3
                            },
                            {
                                "children": [
                                    {
                                        "children": [],
                                        "depth": 2,
                                        "id": 5,
                                        "order": 5
                                    }
                                ],
                                "depth": 1,
                                "id": 4,
                                "order": 4
                            },
                            {
                                "children": [
                                    {
                                        "children": [],
                                        "depth": 2,
                                        "id": 7,
                                        "order": 7
                                    }
                                ],
                                "depth": 1,
                                "id": 6,
                                "order": 6
                            },
                            {
                                "children": [
                                    {
                                        "children": [],
                                        "depth": 2,
                                        "id": 9,
                                        "order": 9
                                    }
                                ],
                                "depth": 1,
                                "id": 8,
                                "order": 8
                            },
                            {
                                "children": [
                                    {
                                        "children": [],
                                        "depth": 2,
                                        "id": 11,
                                        "order": 11
                                    }
                                ],
                                "depth": 1,
                                "id": 10,
                                "order": 10
                            },
                            {
                                "children": [
                                    {
                                        "children": [],
                                        "depth": 2,
                                        "id": 13,
                                        "order": 13
                                    }
                                ],
                                "depth": 1,
                                "id": 12,
                                "order": 12
                            },
                            {
                                "children": [
                                    {
                                        "children": [],
                                        "depth": 2,
                                        "id": 15,
                                        "order": 15
                                    }
                                ],
                                "depth": 1,
                                "id": 14,
                                "order": 14
                            },
                            {
                                "children": [],
                                "depth": 1,
                                "id": 16,
                                "order": 16
                            },
                            {
                                "children": [],
                                "depth": 1,
                                "id": 17,
                                "order": 17
                            }
                        ],
                        "depth": 0,
                        "id": 0,
                        "order": 0
                    }
                ],
                "depth": -1,
                "id": -1,
                "order": -1
            }
        ],
        "tidyTraceNodeCount": 18
    },
    "state_change": {
        "stateChanges": [
            {
                "address": "0x838cda4a4cc873fff10f4d6373ada6636517fa31",
                "erc": "",
                "slots": [
                    {
                        "current": "0x0000000000000000000000000000000000000000000000000000000000000000",
                        "key": "0x181ec19a0f957384e4ecbe9410e516ad0fe8cc3e53caac5ffc50eb11e64bf48c",
                        "prev": "0x0000000000000000000000000000000000000000000063e700000000000065b4"
                    },
                    {
                        "current": "0x000000000000000000000000000063e70000000000006f050000000000007aac",
                        "key": "0x181ec19a0f957384e4ecbe9410e516ad0fe8cc3e53caac5ffc50eb11e64bf48b",
                        "prev": "0x0000000000006f050000000000009b4a00000000000079e30000000000007187"
                    }
                ],
                "storageVariables": [
                    {
                        "name": "players",
                        "type": "mapping(uint32 => struct EtheremonRankData.PlayerData)",
                        "value": {
                            "pairs": [
                                {
                                    "key": "44",
                                    "value": {
                                        "fields": [
                                            {
                                                "name": "monsters",
                                                "type": "uint64[6]",
                                                "value": {
                                                    "elemType": "uint64",
                                                    "elems": [
                                                        {
                                                            "index": 0,
                                                            "value": {
                                                                "current": "31404",
                                                                "prev": "29063",
                                                                "typeTag": 1
                                                            }
                                                        },
                                                        {
                                                            "index": 1,
                                                            "value": {
                                                                "current": "28421",
                                                                "prev": "31203",
                                                                "typeTag": 1
                                                            }
                                                        },
                                                        {
                                                            "index": 2,
                                                            "value": {
                                                                "current": "25575",
                                                                "prev": "39754",
                                                                "typeTag": 1
                                                            }
                                                        },
                                                        {
                                                            "index": 3,
                                                            "value": {
                                                                "current": "0",
                                                                "prev": "0",
                                                                "typeTag": 1
                                                            }
                                                        },
                                                        {
                                                            "index": 4,
                                                            "value": {
                                                                "current": "0",
                                                                "prev": "26036",
                                                                "typeTag": 1
                                                            }
                                                        },
                                                        {
                                                            "index": 5,
                                                            "value": {
                                                                "current": "0",
                                                                "prev": "25575",
                                                                "typeTag": 1
                                                            }
                                                        }
                                                    ],
                                                    "typeTag": 2
                                                }
                                            }
                                        ],
                                        "typeTag": 3
                                    }
                                }
                            ],
                            "typeTag": 4
                        }
                    }
                ]
            }
        ]
    }
}