{
    "balance_change": {
        "balanceChanges": [
            {
                "account": "0x0000000000000000000000000000000000000000",
                "assets": [
                    {
                        "address": "0x9b8b9c7c02be0bd0aa4d669bf6a1f6003424c6dc",
                        "amount": "1",
                        "iconUrl": "",
                        "isERC1155": false,
                        "isERC721": true,
                        "sign": false,
                        "tokenID": "13337",
                        "value": ""
                    }
                ]
            },
            {
                "account": "0x887ec97d62f725dd2e10ea4833587354d253ff6f",
                "assets": [
                    {
                        "address": "0x9b8b9c7c02be0bd0aa4d669bf6a1f6003424c6dc",
                        "amount": "1",
                        "iconUrl": "",
                        "isERC1155": false,
                        "isERC721": true,
                        "sign": true,
                        "tokenID": "13337",
                        "value": ""
                    }
                ]
            }
        ]
    },
    "profile": {
        "basic_info": {
            "baseFee": "561.760562023",
            "blockNumber": 14623208,
            "callData": "0x8df9da4600000000000000000000000000000000000000000000000000000000000000600000000000000000000000000000000000000000000000000000000000000001000000000000000000000000000000000000000000000000000000000000000000000000000000000000000000000000000000000000000000000000000000010000000000000000000000000000000000000000000000000000000000000001000000000000000000000000887ec97d62f725dd2e10ea4833587354d253ff6f0000000000000000000000000000000000000000000000000000000000000000000000000000000000000000000000000000000000000000000000014b230ce30000000000000000000000000000000000000000000000000000000000000000000000000000000000000000000000000000000000000000000000000000000000000000000000000000000000000000000000000000000000000000000001000000000000000000000000000000000000000000000000000000000000000041961a77fb88476fc61be9de569351fa390e13631a0994080a81fc745ecab8853a22b6d9612e66a794e0e98ee8d4675ae6ed141b93f78100e7d31ad6beff433ee71b00000000000000000000000000000000000000000000000000000000000000",
            "debugEnable": true,
            "errorInfo": "",
            "eventCount": 2,
            "feeRecipient": "0x5b310960a7922092fdcb9295ece336012f9cf87e",
            "formatValue": "0",
            "gasLimit": 217290,
            "gasPrice": "563.760562023",
            "gasUsed": 216782,
            "intTxnCount": 2,
            "internalRevert": false,
            "internalRevertMessage": "",
            "isContractCreation": false,
            "isFlashloan": false,
            "maxFee": "800",
            "nonce": 6,
            "overwritedBlockNumber": -1,
            "priorityFee": "2",
            "receiver": "0xdd5a649fc076886dfd4b9ad6acfc9b5eb882e83c",
            "revertMessage": "",
            "sender": "0x887ec97d62f725dd2e10ea4833587354d253ff6f",
            "simulationEnable": true,
            "sourceTxnHash": "0xdc7d8179910889cd680be80b55419c235029ea86218d40317b17a70cd83360aa",
            "status": true,
            "timestamp": "2022-04-20T17:20:57Z",
            "transactionFee": "0.122213142156469986",
            "txnHash": "0xdc7d8179910889cd680be80b55419c235029ea86218d40317b17a70cd83360aa",
            "txnIndex": 97,
            "type": 2,
            "value": "0"
        },
        "fund_flow": [
            {
                "amount": "1",
                "from": "0x0000000000000000000000000000000000000000",
                "id": 1,
                "isERC1155": false,
                "isERC721": true,
                "isReverted": false,
                "order": 1,
                "to": "0x887ec97d62f725dd2e10ea4833587354d253ff6f",
                "token": "0x9b8b9c7c02be0bd0aa4d669bf6a1f6003424c6dc",
                "tokenID": "13337"
            }
        ],
        "token_infos": [
            {
                "address": "0xc02aaa39b223fe8d0a0e5c4f27ead9083c756cc2",
                "decimals": 18
            },
            {
                "address": "0xeeeeeeeeeeeeeeeeeeeeeeeeeeeeeeeeeeeeeeee",
                "decimals": 18
            }
        ]
    },
    "address_label": {
        "labels": [
            {
                "address": "0x0000000000000000000000000000000000000004",
                "label": "Precompiled"
            },
            {
                "address": "0xeeeeeeeeeeeeeeeeeeeeeeeeeeeeeeeeeeeeeeee",
                "label": "Ether"
            },
            {
                "address": "0x9b8b9c7c02be0bd0aa4d669bf6a1f6003424c6dc",
                "label": "The Association NFT: ASSOC Token"
            },
            {
                "address": "0xdd5a649fc076886dfd4b9ad6acfc9b5eb882e83c",
                "label": "The Association NFT: Sales"
            },
            {
                "address": "0x0000000000000000000000000000000000000001",
                "label": "Precompiled"
            },
            {
                "address": "0x0000000000000000000000000000000000000002",
                "label": "Precompiled"
            },
            {
                "address": "0x0000000000000000000000000000000000000003",
                "label": "Precompiled"
            }
        ]
    },
    "trace": {
        "accountLabels": null,
        "dataMap": {
            "-1": {
                "invocation": {
                    "address": "0x887ec97d62f725dd2e10ea4833587354d253ff6f",
                    "callData": "",
                    "decodedMethod": null,
                    "errorInfo": "",
                    "fromAddress": "",
                    "gasUsed": 0,
                    "id": -1,
                    "methodDecoded": false,
                    "operation": "",
                    "output": "",
                    "revert": false,
                    "revertMessage": "",
                    "selector": "",
                    "status": false,
                    "value": ""
                },
                "nodeType": 0
            },
            "0": {
                "invocation": {
                    "address": "0xdd5a649fc076886dfd4b9ad6acfc9b5eb882e83c",
                    "callData": "0x00000000000000000000000000000000000000000000000000000000000000600000000000000000000000000000000000000000000000000000000000000001000000000000000000000000000000000000000000000000000000000000000000000000000000000000000000000000000000000000000000000000000000010000000000000000000000000000000000000000000000000000000000000001000000000000000000000000887ec97d62f725dd2e10ea4833587354d253ff6f0000000000000000000000000000000000000000000000000000000000000000000000000000000000000000000000000000000000000000000000014b230ce30000000000000000000000000000000000000000000000000000000000000000000000000000000000000000000000000000000000000000000000000000000000000000000000000000000000000000000000000000000000000000000001000000000000000000000000000000000000000000000000000000000000000041961a77fb88476fc61be9de569351fa390e13631a0994080a81fc745ecab8853a22b6d9612e66a794e0e98ee8d4675ae6ed141b93f78100e7d31ad6beff433ee71b00000000000000000000000000000000000000000000000000000000000000",
                    "decodedMethod": {
                        "callParams": [
                            {
                                "name": "info",
                                "type": "(bool,uint256,address,uint256,uint256,uint256,uint256,bytes)",
                                "value": [
                                    {
                                        "name": "mint_free",
                                        "type": "bool",
                                        "value": true
                                    },
                                    {
                                        "name": "max_mint",
                                        "type": "uint256",
                                        "value": "1"
                                    },
                                    {
                                        "name": "from",
                                        "type": "address",
                                        "value": "0x887ec97d62f725dd2e10ea4833587354d253ff6f"
                                    },
                                    {
                                        "name": "start",
                                        "type": "uint256",
                                        "value": "0"
                                    },
                                    {
                                        "name": "end",
                                        "type": "uint256",
                                        "value": "5,555,555,555"
                                    },
                                    {
                                        "name": "eth_price",
                                        "type": "uint256",
                                        "value": "0"
                                    },
                                    {
                                        "name": "dust_price",
                                        "type": "uint256",
                                        "value": "0"
                                    },
                                    {
                                        "name": "signature",
                                        "type": "bytes",
                                        "value": "0x961a77fb88476fc61be9de569351fa390e13631a0994080a81fc745ecab8853a22b6d9612e66a794e0e98ee8d4675ae6ed141b93f78100e7d31ad6beff433ee71b"
                                    }
                                ]
                            },
                            {
                                "name": "number_of_items_requested",
                                "type": "uint256",
                                "value": "1"
                            },
                            {
                                "name": "_batchNumber",
                                "type": "uint16",
                                "value": "0"
                            }
                        ],
                        "constructorArguments": "",
                        "name": "mint_approved",
                        "returnParams": [],
                        "signature": "mint_approved((bool,uint256,address,uint256,uint256,uint256,uint256,bytes),uint256,uint16)"
                    },
                    "errorInfo": "",
                    "fromAddress": "0x887ec97d62f725dd2e10ea4833587354d253ff6f",
                    "gasUsed": 216782,
                    "id": 0,
                    "methodDecoded": true,
                    "operation": "CALL",
                    "output": "",
                    "revert": false,
                    "revertMessage": "",
                    "selector": "0x8df9da46",
                    "status": true,
                    "value": "0"
                },
                "nodeType": 0
            },
            "1": {
                "invocation": {
                    "address": "0x0000000000000000000000000000000000000001",
                    "callData": "0xb16feb4b61a26693b053acc39e8a44f155b76a4a0821e468032017c3000000000000000000000000000000000000000000000000000000000000001b961a77fb88476fc61be9de569351fa390e13631a0994080a81fc745ecab8853a22b6d9612e66a794e0e98ee8d4675ae6ed141b93f78100e7d31ad6beff433ee7",
                    "decodedMethod": {
                        "callParams": [
                            {
                                "name": "hash",
                                "type": "bytes32",
                                "value": "0xfbb08657b16feb4b61a26693b053acc39e8a44f155b76a4a0821e468032017c3"
                            },
                            {
                                "name": "v",
                                "type": "uint256",
                                "value": "27"
                            },
                            {
                                "name": "r",
                                "type": "bytes32",
                                "value": "0x961a77fb88476fc61be9de569351fa390e13631a0994080a81fc745ecab8853a"
                            },
                            {
                                "name": "s",
                                "type": "bytes32",
                                "value": "0x22b6d9612e66a794e0e98ee8d4675ae6ed141b93f78100e7d31ad6beff433ee7"
                            }
                        ],
                        "constructorArguments": "",
                        "name": "ecrecover",
                        "returnParams": [
                            {
                                "name": "",
                                "type": "address",
                                "value": "0x669f499e7ba51836bb76f7dd2bc3c1a37a5342d7"
                            }
                        ],
                        "signature": "ecrecover(bytes32,uint256,bytes32,bytes32)"
                    },
                    "errorInfo": "",
                    "fromAddress": "0xdd5a649fc076886dfd4b9ad6acfc9b5eb882e83c",
                    "gasUsed": 3000,
                    "id": 1,
                    "methodDecoded": true,
                    "operation": "STATICCALL",
                    "output": "0x000000000000000000000000669f499e7ba51836bb76f7dd2bc3c1a37a5342d7",
                    "revert": false,
                    "revertMessage": "",
                    "selector": "0xfbb08657",
                    "status": true,
                    "value": "0"
                },
                "nodeType": 0
            },
            "2": {
                "invocation": {
                    "address": "0x9b8b9c7c02be0bd0aa4d669bf6a1f6003424c6dc",
                    "callData": "0x0000000000000000000000000000000000000000000000000000000000000001000000000000000000000000887ec97d62f725dd2e10ea4833587354d253ff6f",
                    "decodedMethod": {
                        "callParams": [
                            {
                                "name": "numberOfCards",
                                "type": "uint256",
                                "value": "1"
                            },
                            {
                                "name": "recipient",
                                "type": "address",
                                "value": "0x887ec97d62f725dd2e10ea4833587354d253ff6f"
                            }
                        ],
                        "constructorArguments": "",
                        "name": "mintCards",
                        "returnParams": [],
                        "signature": "mintCards(uint256,address)"
                    },
                    "errorInfo": "",
                    "fromAddress": "0xdd5a649fc076886dfd4b9ad6acfc9b5eb882e83c",
                    "gasUsed": 126418,
                    "id": 2,
                    "methodDecoded": true,
                    "operation": "CALL",
                    "output": "",
                    "revert": false,
                    "revertMessage": "",
                    "selector": "0x134f3337",
                    "status": true,
                    "value": "0"
                },
                "nodeType": 0
            },
            "3": {
                "event": {
                    "contract": "0x9b8b9c7c02be0bd0aa4d669bf6a1f6003424c6dc",
                    "decodedLog": {
                        "name": "Transfer",
                        "params": [
                            {
                                "name": "from",
                                "type": "address",
                                "value": "0x0000000000000000000000000000000000000000"
                            },
                            {
                                "name": "to",
                                "type": "address",
                                "value": "0x887ec97d62f725dd2e10ea4833587354d253ff6f"
                            },
                            {
                                "decimalAvailable": true,
                                "name": "tokenId",
                                "type": "uint256",
                                "value": "13,337"
                            }
                        ],
                        "signature": "Transfer(address,address,uint256)"
                    },
                    "id": 3,
                    "logData": "0x",
                    "logDecoded": true,
                    "operation": "EVENT",
                    "revert": false,
                    "status": true,
                    "topics": [
                        "0xddf252ad1be2c89b69c2b068fc378daa952ba7f163c4a11628f55a4df523b3ef",
                        "0x0000000000000000000000000000000000000000000000000000000000000000",
                        "0x000000000000000000000000887ec97d62f725dd2e10ea4833587354d253ff6f",
                        "0x0000000000000000000000000000000000000000000000000000000000003419"
                    ]
                },
                "nodeType": 1
            },
            "4": {
                "event": {
                    "contract": "0xdd5a649fc076886dfd4b9ad6acfc9b5eb882e83c",
                    "decodedLog": {
                        "name": "batchWhitelistMint",
                        "params": [
                            {
                                "name": "batchNumber",
                                "type": "uint16",
                                "value": "0"
                            },
                            {
                                "name": "receiver",
                                "type": "address",
                                "value": "0x887ec97d62f725dd2e10ea4833587354d253ff6f"
                            }
                        ],
                        "signature": "batchWhitelistMint(uint16,address)"
                    },
                    "id": 4,
                    "logData": "0x000000000000000000000000887ec97d62f725dd2e10ea4833587354d253ff6f",
                    "logDecoded": true,
                    "operation": "EVENT",
                    "revert": false,
                    "status": true,
                    "topics": [
                        "0x01945d29b0ca5ed6c040963fd02660745b70c4ae2e20234793b268045e5f81b6",
                        "0x0000000000000000000000000000000000000000000000000000000000000000"
                    ]
                },
                "nodeType": 1
            }
        },
        "gasFlame": [
            {
                "children": [
                    {
                        "children": [
                            {
                                "children": [],
                                "depth": 0,
                                "name": "Initial Gas",
                                "value": 24124
                            },
                            {
                                "children": [
                                    {
                                        "children": [],
                                        "depth": 1,
                                        "name": "ecrecover",
                                        "value": 3000
                                    },
                                    {
                                        "children": [],
                                        "depth": 1,
                                        "name": "mintCards",
                                        "value": 126418
                                    }
                                ],
                                "depth": 0,
                                "name": "Executed Gas",
                                "value": 192658
                            }
                        ],
                        "depth": -1,
                        "name": "Actual Gas Used",
                        "value": 216782
                    },
                    {
                        "children": [],
                        "depth": -1,
                        "name": "Refunded Gas",
                        "value": 0
                    }
                ],
                "depth": -2,
                "name": "Total Gas",
                "value": 216782
            }
        ],
        "isConfirmed": true,
        "mainTrace": [
            {
                "children": [
                    {
                        "children": [
                            {
                                "children": [],
                                "depth": 1,
                                "id": 1,
                                "order": 1
                            },
                            {
                                "children": [
                                    {
                                        "children": [],
                                        "depth": 2,
                                        "id": 3,
                                        "order": 3
                                    }
                                ],
                                "depth": 1,
                                "id": 2,
                                "order": 2
                            },
                            {
                                "children": [],
                                "depth": 1,
                                "id": 4,
                                "order": 4
                            }
                        ],
                        "depth": 0,
                        "id": 0,
                        "order": 0
                    }
                ],
                "depth": -1,
                "id": -1,
                "order": -1
            }
        ],
        "mainTraceNodeCount": 5,
        "parentIdMap": {
            "0": -1,
            "1": 0,
            "2": 0,
            "3": 2,
            "4": 0
        },
        "tidyTrace": [
            {
                "children": [
                    {
                        "children": [
                            {
                                "children": [
                                    {
                                        "children": [],
                                        "depth": 2,
                                        "id": 3,
                                        "order": 3
                                    }
                                ],
                                "depth": 1,
                                "id": 2,
                                "order": 2
                            },
                            {
                                "children": [],
                                "depth": 1,
                                "id": 4,
                                "order": 4
                            }
                        ],
                        "depth": 0,
                        "id": 0,
                        "order": 0
                    }
                ],
                "depth": -1,
                "id": -1,
                "order": -1
            }
        ],
        "tidyTraceNodeCount": 4
    },
    "state_change": {
        "stateChanges": [
            {
                "address": "0x9b8b9c7c02be0bd0aa4d669bf6a1f6003424c6dc",
                "erc": "ERC-721",
                "slots": [
                    {
                        "current": "0x0000000000000000000000000000000000000000000000000000000000003419",
                        "key": "0x0000000000000000000000000000000000000000000000000000000000000008",
                        "prev": "0x0000000000000000000000000000000000000000000000000000000000003418"
                    },
                    {
                        "current": "0x0000000000000000000000000000000000000000000000000000000000003419",
                        "key": "0xf3f7a9fe364faab93b216da50a3214154f22a0a2b415b23a84c8169e8b63a2fb",
                        "prev": "0x0000000000000000000000000000000000000000000000000000000000000000"
                    },
                    {
                        "current": "0x0000000000000000000000000000000000000000000000000000000000003419",
                        "key": "0x397604f0e514ba5d9bdd34924910e620336dc6f45231fe9b4d40ed1c4d3216a2",
                        "prev": "0x0000000000000000000000000000000000000000000000000000000000000000"
                    },
                    {
                        "current": "0x0000000000000000000000000000000000000000000000000000000000000001",
                        "key": "0x082e729ecbfce2662c9e6807fd33fe5733c4d09c332c1748a3d94fd6ea609544",
                        "prev": "0x0000000000000000000000000000000000000000000000000000000000000000"
                    },
                    {
                        "current": "0x000000000000000000000000887ec97d62f725dd2e10ea4833587354d253ff6f",
                        "key": "0xdcc5078c0c9ad9d8464f1368b1a6d580c971e94ed1e6e77a3035efeaa436fec3",
                        "prev": "0x0000000000000000000000000000000000000000000000000000000000000000"
                    },
                    {
                        "current": "0x0000000000000000000000000000000000000000000000000000000000003418",
                        "key": "0x38fc131412c8aea64b9f7b17fcfd9500e41f0eec6073f634458029f598966464",
                        "prev": "0x0000000000000000000000000000000000000000000000000000000000000000"
                    }
                ],
                "storageVariables": [
                    {
                        "name": "_allTokensIndex",
                        "type": "mapping(uint256 => uint256)",
                        "value": {
                            "pairs": [
                                {
                                    "key": "13337",
                                    "value": {
                                        "current": "13336",
                                        "prev": "0",
                                        "typeTag": 1
                                    }
                                }
                            ],
                            "typeTag": 4
                        }
                    },
                    {
                        "name": "_allTokens",
                        "type": "uint256[]",
                        "value": {
                            "elemType": "uint256",
                            "elems": [
                                {
                                    "index": 13336,
                                    "value": {
                                        "current": "13337",
                                        "prev": "0",
                                        "typeTag": 1
                                    }
                                }
                            ],
                            "typeTag": 2
                        }
                    },
                    {
                        "name": "_ownedTokens",
                        "type": "mapping(address => mapping(uint256 => uint256))",
                        "value": {
                            "pairs": [
                                {
                                    "key": "0x887ec97d62f725dd2e10ea4833587354d253ff6f",
                                    "value": {
                                        "pairs": [
                                            {
                                                "key": "0",
                                                "value": {
                                                    "current": "13337",
                                                    "prev": "0",
                                                    "typeTag": 1
                                                }
                                            }
                                        ],
                                        "typeTag": 4
                                    }
                                }
                            ],
                            "typeTag": 4
                        }
                    },
                    {
                        "name": "_balances",
                        "type": "mapping(address => uint256)",
                        "value": {
                            "pairs": [
                                {
                                    "key": "0x887ec97d62f725dd2e10ea4833587354d253ff6f",
                                    "value": {
                                        "current": "1",
                                        "prev": "0",
                                        "typeTag": 1
                                    }
                                }
                            ],
                            "typeTag": 4
                        }
                    },
                    {
                        "name": "_owners",
                        "type": "mapping(uint256 => address)",
                        "value": {
                            "pairs": [
                                {
                                    "key": "13337",
                                    "value": {
                                        "current": "0x887ec97d62f725dd2e10ea4833587354d253ff6f",
                                        "prev": "0x0000000000000000000000000000000000000000",
                                        "typeTag": 1
                                    }
                                }
                            ],
                            "typeTag": 4
                        }
                    }
                ]
            },
            {
                "address": "0xdd5a649fc076886dfd4b9ad6acfc9b5eb882e83c",
                "erc": "",
                "slots": [
                    {
                        "current": "0x0000000000000000000000000000000000000000000000000000000000003419",
                        "key": "0x0000000000000000000000000000000000000000000000000000000000000022",
                        "prev": "0x0000000000000000000000000000000000000000000000000000000000003418"
                    },
                    {
                        "current": "0x0000000000000000000000000000000000000000000000000000000000000001",
                        "key": "0x30da90f77a0e3685a875996e8c4bf827b347ffdfd72060c1ba936f462440d075",
                        "prev": "0x0000000000000000000000000000000000000000000000000000000000000000"
                    },
                    {
                        "current": "0x0000000000000000000000000000000000000000000000000000000000000001",
                        "key": "0x05fcc5c5155c2b29945ae6a8211dbbb4e8e784d85ec87c00498ecfa6eaedb487",
                        "prev": "0x0000000000000000000000000000000000000000000000000000000000000000"
                    }
                ],
                "storageVariables": [
                    {
                        "name": "_discountedClaimedPerWallet",
                        "type": "mapping(address => uint256)",
                        "value": {
                            "pairs": [
                                {
                                    "key": "0x887ec97d62f725dd2e10ea4833587354d253ff6f",
                                    "value": {
                                        "current": "1",
                                        "prev": "0",
                                        "typeTag": 1
                                    }
                                }
                            ],
                            "typeTag": 4
                        }
                    },
                    {
                        "name": "presold",
                        "type": "mapping(address => uint256)",
                        "value": {
                            "pairs": [
                                {
                                    "key": "0x887ec97d62f725dd2e10ea4833587354d253ff6f",
                                    "value": {
                                        "current": "1",
                                        "prev": "0",
                                        "typeTag": 1
                                    }
                                }
                            ],
                            "typeTag": 4
                        }
                    },
                    {
                        "name": "_userMinted",
                        "type": "uint256",
                        "value": {
                            "current": "13337",
                            "prev": "13336",
                            "typeTag": 1
                        }
                    }
                ]
            }
        ]
    }
}