{
    "balance_change": {
        "balanceChanges": []
    },
    "profile": {
        "basic_info": {
            "baseFee": "78.434909544",
            "blockNumber": 13760945,
            "callData": "0x3e4fcb210000000000000000000000000000000000000000000000000000000000000a910000000000000000000000004676326c81e14045979c5f8b7caed52351af59470000000000000000000000000000000000000000000000002e8124bee25580000000000000000000000000000000000000000000000001c3ea9fadec651a000000000000000000000000000000000000000000000000000000000000000000a0000000000000000000000000000000000000000000000000000000000000000e2ae63481cdf690880c615a825188876aef5e3581984ee10f6983712c37fe41ca302421d4d2947684838dee256b8a4cd22e86d293351a910a002247e682cd09fd2d4708881e60f5038b8fd805ca1463dba2c8f514c2bac91203a482f4e51931bffbdf0a6ab676790cc84aca163ad29f1b76572a1e78a3fce621a377b9898c023194b596919f74e3e5620bc419f3e8e3ea2dd50e6048ca77b99e13857f6d4f103ffcf45216f281b9b5a3ef91a432d457867d68bdbf1d9aaa89a9e632f65f6fbeac8a3a2524e740ebd11f237e522cf25c52973dc1738357d492f529e5b65447c51545304fb0877736b8073414227072e255e1285f5d9f7324723f521f873d6dae3a5b29bd781bb398b5fa270f2b81018a483fafd3e306bfeb7f1e90ae069f197f404e74916a68c7434e72b404348ba63586702000eaec9e400e12c98be7e55dfcac7c032b12fadd6b0c70c0cd3d293bd5ae9a43d0d2169e68078f306d55a4a39e17ed72f26a7d57639bb8196392e5692bdb59ec239a4714d5cbb2ad70aebd39032f7efb920c5422912229a1945d831b162adfc4f3d2eddb8455a130cfcda067757f03d0e7d894e4092f3134beb772bd45f2797b0bfce549dc5e766ec7a1b5c2c0af",
            "debugEnable": true,
            "errorInfo": "execution reverted",
            "eventCount": 0,
            "feeRecipient": "0x433022c4066558e7a32d850f02d2da5ca782174d",
            "formatValue": "0",
            "gasLimit": 97035,
            "gasPrice": "79.934909544",
            "gasUsed": 32338,
            "intTxnCount": 0,
            "internalRevert": false,
            "internalRevertMessage": "",
            "isContractCreation": false,
            "isFlashloan": false,
            "maxFee": "85.103407922",
            "nonce": 105,
            "overwritedBlockNumber": -1,
            "priorityFee": "1.5",
            "receiver": "0xc1339cf4c27d29b5bd1faa90739ad1e2d4a8b9cb",
            "revertMessage": "(MerkleDistributor: Drop already claimed.",
            "sender": "0x4676326c81e14045979c5f8b7caed52351af5947",
            "simulationEnable": true,
            "sourceTxnHash": "0xdd6656dc36ef26cbff0e8e90a02325fbb3529749a16382e730a93d9c1b953be9",
            "status": false,
            "timestamp": "2021-12-07T21:31:43Z",
            "transactionFee": "0.002584935104833872",
            "txnHash": "0xdd6656dc36ef26cbff0e8e90a02325fbb3529749a16382e730a93d9c1b953be9",
            "txnIndex": 21,
            "type": 2,
            "value": "0"
        },
        "fund_flow": [],
        "token_infos": [
            {
                "address": "0xc02aaa39b223fe8d0a0e5c4f27ead9083c756cc2",
                "decimals": 18
            },
            {
                "address": "0xeeeeeeeeeeeeeeeeeeeeeeeeeeeeeeeeeeeeeeee",
                "decimals": 18
            }
        ]
    },
    "address_label": {
        "labels": [
            {
                "address": "0xeeeeeeeeeeeeeeeeeeeeeeeeeeeeeeeeeeeeeeee",
                "label": "Ether"
            },
            {
                "address": "0xc1339cf4c27d29b5bd1faa90739ad1e2d4a8b9cb",
                "label": "MerkleDistributor"
            },
            {
                "address": "0x0000000000000000000000000000000000000001",
                "label": "Precompiled"
            },
            {
                "address": "0x0000000000000000000000000000000000000002",
                "label": "Precompiled"
            },
            {
                "address": "0x0000000000000000000000000000000000000003",
                "label": "Precompiled"
            },
            {
                "address": "0x0000000000000000000000000000000000000004",
                "label": "Precompiled"
            }
        ]
    },
    "trace": {
        "accountLabels": null,
        "dataMap": {
            "-1": {
                "invocation": {
                    "address": "0x4676326c81e14045979c5f8b7caed52351af5947",
                    "callData": "",
                    "decodedMethod": null,
                    "errorInfo": "",
                    "fromAddress": "",
                    "gasUsed": 0,
                    "id": -1,
                    "methodDecoded": false,
                    "operation": "",
                    "output": "",
                    "revert": false,
                    "revertMessage": "",
                    "selector": "",
                    "status": false,
                    "value": ""
                },
                "nodeType": 0
            },
            "0": {
                "invocation": {
                    "address": "0xc1339cf4c27d29b5bd1faa90739ad1e2d4a8b9cb",
                    "callData": "0x0000000000000000000000000000000000000000000000000000000000000a910000000000000000000000004676326c81e14045979c5f8b7caed52351af59470000000000000000000000000000000000000000000000002e8124bee25580000000000000000000000000000000000000000000000001c3ea9fadec651a000000000000000000000000000000000000000000000000000000000000000000a0000000000000000000000000000000000000000000000000000000000000000e2ae63481cdf690880c615a825188876aef5e3581984ee10f6983712c37fe41ca302421d4d2947684838dee256b8a4cd22e86d293351a910a002247e682cd09fd2d4708881e60f5038b8fd805ca1463dba2c8f514c2bac91203a482f4e51931bffbdf0a6ab676790cc84aca163ad29f1b76572a1e78a3fce621a377b9898c023194b596919f74e3e5620bc419f3e8e3ea2dd50e6048ca77b99e13857f6d4f103ffcf45216f281b9b5a3ef91a432d457867d68bdbf1d9aaa89a9e632f65f6fbeac8a3a2524e740ebd11f237e522cf25c52973dc1738357d492f529e5b65447c51545304fb0877736b8073414227072e255e1285f5d9f7324723f521f873d6dae3a5b29bd781bb398b5fa270f2b81018a483fafd3e306bfeb7f1e90ae069f197f404e74916a68c7434e72b404348ba63586702000eaec9e400e12c98be7e55dfcac7c032b12fadd6b0c70c0cd3d293bd5ae9a43d0d2169e68078f306d55a4a39e17ed72f26a7d57639bb8196392e5692bdb59ec239a4714d5cbb2ad70aebd39032f7efb920c5422912229a1945d831b162adfc4f3d2eddb8455a130cfcda067757f03d0e7d894e4092f3134beb772bd45f2797b0bfce549dc5e766ec7a1b5c2c0af",
                    "decodedMethod": {
                        "callParams": [
                            {
                                "name": "index",
                                "type": "uint256",
                                "value": "2,705"
                            },
                            {
                                "name": "account",
                                "type": "address",
                                "value": "0x4676326c81e14045979c5f8b7caed52351af5947"
                            },
                            {
                                "name": "ethAmount",
                                "type": "uint256",
                                "value": "3,351,000,000,000,000,000"
                            },
                            {
                                "name": "tokenAmount",
                                "type": "uint256",
                                "value": "8,336,388,000,000,000,000,000"
                            },
                            {
                                "name": "merkleProof",
                                "type": "bytes32[]",
                                "value": [
                                    "0x2ae63481cdf690880c615a825188876aef5e3581984ee10f6983712c37fe41ca",
                                    "0x302421d4d2947684838dee256b8a4cd22e86d293351a910a002247e682cd09fd",
                                    "0x2d4708881e60f5038b8fd805ca1463dba2c8f514c2bac91203a482f4e51931bf",
                                    "0xfbdf0a6ab676790cc84aca163ad29f1b76572a1e78a3fce621a377b9898c0231",
                                    "0x94b596919f74e3e5620bc419f3e8e3ea2dd50e6048ca77b99e13857f6d4f103f",
                                    "0xfcf45216f281b9b5a3ef91a432d457867d68bdbf1d9aaa89a9e632f65f6fbeac",
                                    "0x8a3a2524e740ebd11f237e522cf25c52973dc1738357d492f529e5b65447c515",
                                    "0x45304fb0877736b8073414227072e255e1285f5d9f7324723f521f873d6dae3a",
                                    "0x5b29bd781bb398b5fa270f2b81018a483fafd3e306bfeb7f1e90ae069f197f40",
                                    "0x4e74916a68c7434e72b404348ba63586702000eaec9e400e12c98be7e55dfcac",
                                    "0x7c032b12fadd6b0c70c0cd3d293bd5ae9a43d0d2169e68078f306d55a4a39e17",
                                    "0xed72f26a7d57639bb8196392e5692bdb59ec239a4714d5cbb2ad70aebd39032f",
                                    "0x7efb920c5422912229a1945d831b162adfc4f3d2eddb8455a130cfcda067757f",
                                    "0x03d0e7d894e4092f3134beb772bd45f2797b0bfce549dc5e766ec7a1b5c2c0af"
                                ]
                            }
                        ],
                        "constructorArguments": "",
                        "name": "claim",
                        "returnParams": [],
                        "signature": "claim(uint256,address,uint256,uint256,bytes32[])"
                    },
                    "errorInfo": "execution reverted",
                    "fromAddress": "0x4676326c81e14045979c5f8b7caed52351af5947",
                    "gasUsed": 32338,
                    "id": 0,
                    "methodDecoded": true,
                    "operation": "CALL",
                    "output": "0x08c379a0000000000000000000000000000000000000000000000000000000000000002000000000000000000000000000000000000000000000000000000000000000284d65726b6c654469737472696275746f723a2044726f7020616c726561647920636c61696d65642e000000000000000000000000000000000000000000000000",
                    "revert": true,
                    "revertMessage": "(MerkleDistributor: Drop already claimed.",
                    "selector": "0x3e4fcb21",
                    "status": false,
                    "value": "0"
                },
                "nodeType": 0
            }
        },
        "gasFlame": [
            {
                "children": [
                    {
                        "children": [
                            {
                                "children": [],
                                "depth": 0,
                                "name": "Initial Gas",
                                "value": 29444
                            },
                            {
                                "children": [],
                                "depth": 0,
                                "name": "Executed Gas",
                                "value": 2894
                            }
                        ],
                        "depth": -1,
                        "name": "Actual Gas Used",
                        "value": 32338
                    },
                    {
                        "children": [],
                        "depth": -1,
                        "name": "Refunded Gas",
                        "value": 0
                    }
                ],
                "depth": -2,
                "name": "Total Gas",
                "value": 32338
            }
        ],
        "isConfirmed": true,
        "mainTrace": [
            {
                "children": [
                    {
                        "children": [],
                        "depth": 0,
                        "id": 0,
                        "order": 0
                    }
                ],
                "depth": -1,
                "id": -1,
                "order": -1
            }
        ],
        "mainTraceNodeCount": 1,
        "parentIdMap": {
            "0": -1
        },
        "tidyTrace": [
            {
                "children": [
                    {
                        "children": [],
                        "depth": 0,
                        "id": 0,
                        "order": 0
                    }
                ],
                "depth": -1,
                "id": -1,
                "order": -1
            }
        ],
        "tidyTraceNodeCount": 1
    },
    "state_change": {
        "stateChanges": []
    }
}