{
    "balance_change": {
        "balanceChanges": [
            {
                "account": "0xa13766ae4398e600aec45996f192804f80af7ba0",
                "assets": [
                    {
                        "address": "0x4a527d8fc13c5203ab24ba0944f4cb14658d1db6",
                        "amount": "154.52854",
                        "iconUrl": "https://assets.blocksec.com/icon/d574e1f048c5ee8625b241cbfe3c2080c08b336dab78402018ff7c093b108c1f.png",
                        "isERC1155": false,
                        "isERC721": false,
                        "sign": false,
                        "value": ""
                    }
                ]
            },
            {
                "account": "0xbeb093da4084d44cc2da5524351aaf5b498a82b5",
                "assets": [
                    {
                        "address": "0x4a527d8fc13c5203ab24ba0944f4cb14658d1db6",
                        "amount": "154.52854",
                        "iconUrl": "https://assets.blocksec.com/icon/d574e1f048c5ee8625b241cbfe3c2080c08b336dab78402018ff7c093b108c1f.png",
                        "isERC1155": false,
                        "isERC721": false,
                        "sign": true,
                        "value": ""
                    }
                ]
            }
        ]
    },
    "profile": {
        "basic_info": {
            "baseFee": "",
            "blockNumber": 5607634,
            "callData": "0xa9059cbb000000000000000000000000beb093da4084d44cc2da5524351aaf5b498a82b50000000000000000000000000000000000000000000000086083a86717bdc000",
            "debugEnable": true,
            "errorInfo": "",
            "eventCount": 1,
            "feeRecipient": "0x5a0b54d5dc17e0aadc383d2db43b0a0d3e029c4c",
            "formatValue": "0",
            "gasLimit": 52019,
            "gasPrice": "10",
            "gasUsed": 37019,
            "intTxnCount": 0,
            "internalRevert": false,
            "internalRevertMessage": "",
            "isContractCreation": false,
            "isFlashloan": false,
            "maxFee": "",
            "nonce": 23,
            "overwritedBlockNumber": -1,
            "priorityFee": "",
            "receiver": "0x4a527d8fc13c5203ab24ba0944f4cb14658d1db6",
            "revertMessage": "",
            "sender": "0xa13766ae4398e600aec45996f192804f80af7ba0",
            "simulationEnable": true,
            "sourceTxnHash": "0xddb2edabd478e2f6c20d16b872453c00f5c9a7c4e01e50d21965f12308954968",
            "status": true,
            "timestamp": "2018-05-13T17:21:24Z",
            "transactionFee": "0.00037019",
            "txnHash": "0xddb2edabd478e2f6c20d16b872453c00f5c9a7c4e01e50d21965f12308954968",
            "txnIndex": 53,
            "type": 0,
            "value": "0"
        },
        "fund_flow": [
            {
                "amount": "154.52854",
                "from": "0xa13766ae4398e600aec45996f192804f80af7ba0",
                "id": 1,
                "isERC1155": false,
                "isERC721": false,
                "isReverted": false,
                "order": 1,
                "to": "0xbeb093da4084d44cc2da5524351aaf5b498a82b5",
                "token": "0x4a527d8fc13c5203ab24ba0944f4cb14658d1db6"
            }
        ],
        "token_infos": [
            {
                "address": "0x4a527d8fc13c5203ab24ba0944f4cb14658d1db6",
                "decimals": 18
            },
            {
                "address": "0xc02aaa39b223fe8d0a0e5c4f27ead9083c756cc2",
                "decimals": 18
            },
            {
                "address": "0xeeeeeeeeeeeeeeeeeeeeeeeeeeeeeeeeeeeeeeee",
                "decimals": 18
            }
        ]
    },
    "address_label": {
        "labels": [
            {
                "address": "0x4a527d8fc13c5203ab24ba0944f4cb14658d1db6",
                "label": "Morpheus Labs: MITx Token"
            },
            {
                "address": "0x0000000000000000000000000000000000000001",
                "label": "Precompiled"
            },
            {
                "address": "0x0000000000000000000000000000000000000002",
                "label": "Precompiled"
            },
            {
                "address": "0x0000000000000000000000000000000000000003",
                "label": "Precompiled"
            },
            {
                "address": "0x0000000000000000000000000000000000000004",
                "label": "Precompiled"
            },
            {
                "address": "0xeeeeeeeeeeeeeeeeeeeeeeeeeeeeeeeeeeeeeeee",
                "label": "Ether"
            }
        ]
    },
    "trace": {
        "accountLabels": null,
        "dataMap": {
            "-1": {
                "invocation": {
                    "address": "0xa13766ae4398e600aec45996f192804f80af7ba0",
                    "callData": "",
                    "decodedMethod": null,
                    "errorInfo": "",
                    "fromAddress": "",
                    "gasUsed": 0,
                    "id": -1,
                    "methodDecoded": false,
                    "operation": "",
                    "output": "",
                    "revert": false,
                    "revertMessage": "",
                    "selector": "",
                    "status": false,
                    "value": ""
                },
                "nodeType": 0
            },
            "0": {
                "invocation": {
                    "address": "0x4a527d8fc13c5203ab24ba0944f4cb14658d1db6",
                    "callData": "0x000000000000000000000000beb093da4084d44cc2da5524351aaf5b498a82b50000000000000000000000000000000000000000000000086083a86717bdc000",
                    "decodedMethod": {
                        "callParams": [
                            {
                                "name": "_to",
                                "type": "address",
                                "value": "0xbeb093da4084d44cc2da5524351aaf5b498a82b5"
                            },
                            {
                                "decimalAvailable": true,
                                "name": "_value",
                                "type": "uint256",
                                "value": "154,528,540,000,000,000,000"
                            }
                        ],
                        "constructorArguments": "",
                        "name": "transfer",
                        "returnParams": [
                            {
                                "name": "",
                                "type": "bool",
                                "value": true
                            }
                        ],
                        "signature": "transfer(address,uint256)"
                    },
                    "errorInfo": "",
                    "fromAddress": "0xa13766ae4398e600aec45996f192804f80af7ba0",
                    "gasUsed": 37019,
                    "id": 0,
                    "methodDecoded": true,
                    "operation": "CALL",
                    "output": "0x0000000000000000000000000000000000000000000000000000000000000001",
                    "revert": false,
                    "revertMessage": "",
                    "selector": "0xa9059cbb",
                    "status": true,
                    "value": "0"
                },
                "nodeType": 0
            },
            "1": {
                "event": {
                    "contract": "0x4a527d8fc13c5203ab24ba0944f4cb14658d1db6",
                    "decodedLog": {
                        "name": "Transfer",
                        "params": [
                            {
                                "name": "from",
                                "type": "address",
                                "value": "0xa13766ae4398e600aec45996f192804f80af7ba0"
                            },
                            {
                                "name": "to",
                                "type": "address",
                                "value": "0xbeb093da4084d44cc2da5524351aaf5b498a82b5"
                            },
                            {
                                "decimalAvailable": true,
                                "name": "value",
                                "type": "uint256",
                                "value": "154,528,540,000,000,000,000"
                            }
                        ],
                        "signature": "Transfer(address,address,uint256)"
                    },
                    "id": 1,
                    "logData": "0x0000000000000000000000000000000000000000000000086083a86717bdc000",
                    "logDecoded": true,
                    "operation": "EVENT",
                    "revert": false,
                    "status": true,
                    "topics": [
                        "0xddf252ad1be2c89b69c2b068fc378daa952ba7f163c4a11628f55a4df523b3ef",
                        "0x000000000000000000000000a13766ae4398e600aec45996f192804f80af7ba0",
                        "0x000000000000000000000000beb093da4084d44cc2da5524351aaf5b498a82b5"
                    ]
                },
                "nodeType": 1
            }
        },
        "gasFlame": [
            {
                "children": [
                    {
                        "children": [
                            {
                                "children": [],
                                "depth": 0,
                                "name": "Initial Gas",
                                "value": 23320
                            },
                            {
                                "children": [],
                                "depth": 0,
                                "name": "Executed Gas",
                                "value": 28699
                            }
                        ],
                        "depth": -1,
                        "name": "Actual Gas Used",
                        "value": 37019
                    },
                    {
                        "children": [],
                        "depth": -1,
                        "name": "Refunded Gas",
                        "value": 15000
                    }
                ],
                "depth": -2,
                "name": "Total Gas",
                "value": 52019
            }
        ],
        "isConfirmed": true,
        "mainTrace": [
            {
                "children": [
                    {
                        "children": [
                            {
                                "children": [],
                                "depth": 1,
                                "id": 1,
                                "order": 1
                            }
                        ],
                        "depth": 0,
                        "id": 0,
                        "order": 0
                    }
                ],
                "depth": -1,
                "id": -1,
                "order": -1
            }
        ],
        "mainTraceNodeCount": 2,
        "parentIdMap": {
            "0": -1,
            "1": 0
        },
        "tidyTrace": [
            {
                "children": [
                    {
                        "children": [
                            {
                                "children": [],
                                "depth": 1,
                                "id": 1,
                                "order": 1
                            }
                        ],
                        "depth": 0,
                        "id": 0,
                        "order": 0
                    }
                ],
                "depth": -1,
                "id": -1,
                "order": -1
            }
        ],
        "tidyTraceNodeCount": 2
    },
    "state_change": {
        "stateChanges": [
            {
                "address": "0x4a527d8fc13c5203ab24ba0944f4cb14658d1db6",
                "erc": "ERC-20",
                "slots": [
                    {
                        "current": "0x0000000000000000000000000000000000000000000000086083a86717bdc000",
                        "key": "0x9ad3ec01e7854516e31c2e00c4103621c7384c21a8abe36b75d56b016cefbda9",
                        "prev": "0x0000000000000000000000000000000000000000000000000000000000000000"
                    },
                    {
                        "current": "0x0000000000000000000000000000000000000000000000000000000000000000",
                        "key": "0xa4a1eeeb2c4d239727ea9f402eab628e4eeff705a679731f9d4441e4be6778fa",
                        "prev": "0x0000000000000000000000000000000000000000000000086083a86717bdc000"
                    }
                ],
                "storageVariables": [
                    {
                        "name": "balances",
                        "type": "mapping(address => uint256)",
                        "value": {
                            "pairs": [
                                {
                                    "key": "0xa13766ae4398e600aec45996f192804f80af7ba0",
                                    "value": {
                                        "current": "0",
                                        "prev": "154528540000000000000",
                                        "typeTag": 1
                                    }
                                },
                                {
                                    "key": "0xbeb093da4084d44cc2da5524351aaf5b498a82b5",
                                    "value": {
                                        "current": "154528540000000000000",
                                        "prev": "0",
                                        "typeTag": 1
                                    }
                                }
                            ],
                            "typeTag": 4
                        }
                    }
                ]
            }
        ]
    }
}