{
    "balance_change": {
        "balanceChanges": [
            {
                "account": "0x4cab0c99f151456937c7470e946fd125ba57e455",
                "assets": [
                    {
                        "address": "0x4c11249814f11b9346808179cf06e71ac328c1b5",
                        "amount": "533.464999999999999997",
                        "iconUrl": "https://assets.blocksec.com/icon/719a47c2ff6e70032a96bf571af9d79fdf4a69c95f88f7d896153ce528bbbfe2.png",
                        "isERC1155": false,
                        "isERC721": false,
                        "sign": false,
                        "value": "4721.1652499999998107"
                    }
                ]
            },
            {
                "account": "0x1dc698b3d2995afb66f96e1b19941f990a6b2662",
                "assets": [
                    {
                        "address": "0x4c11249814f11b9346808179cf06e71ac328c1b5",
                        "amount": "533.464999999999999997",
                        "iconUrl": "https://assets.blocksec.com/icon/719a47c2ff6e70032a96bf571af9d79fdf4a69c95f88f7d896153ce528bbbfe2.png",
                        "isERC1155": false,
                        "isERC721": false,
                        "sign": true,
                        "value": "4721.1652499999998107"
                    }
                ]
            }
        ]
    },
    "profile": {
        "basic_info": {
            "baseFee": "2.050059301",
            "blockNumber": 20222716,
            "callData": "0x219f5d1700000000000000000000000000000000000000000000000000000000000b457100000000000000000000000000000000000000000000001ceb506714cfc27ffc000000000000000000000000000000000000000000000000000000000000000000000000000000000000000000000000000000000000001ceb506714cfc27ffc0000000000000000000000000000000000000000000000000000000000000000000000000000000000000000000000000000000000000000000000006684ac07",
            "debugEnable": true,
            "errorInfo": "",
            "eventCount": 3,
            "feeRecipient": "0x95222290dd7278aa3ddd389cc1e1d165cc4bafe5",
            "formatValue": "0",
            "gasLimit": 167151,
            "gasPrice": "2.583746581",
            "gasUsed": 136493,
            "intTxnCount": 7,
            "internalRevert": false,
            "internalRevertMessage": "",
            "isContractCreation": false,
            "isFlashloan": false,
            "maxFee": "3.202030607",
            "nonce": 223,
            "overwritedBlockNumber": -1,
            "priorityFee": "0.53368728",
            "receiver": "0xc36442b4a4522e871399cd717abdd847ab11fe88",
            "revertMessage": "",
            "sender": "0x4cab0c99f151456937c7470e946fd125ba57e455",
            "simulationEnable": true,
            "sourceTxnHash": "0xddf376791e8440533db1670038db4302f3723a49bef837fe611adc7cc8aeefdc",
            "status": true,
            "timestamp": "2024-07-03T01:30:59Z",
            "transactionFee": "0.000352663322080433",
            "txnHash": "0xddf376791e8440533db1670038db4302f3723a49bef837fe611adc7cc8aeefdc",
            "txnIndex": 29,
            "type": 2,
            "value": "0"
        },
        "fund_flow": [
            {
                "amount": "533.464999999999999997",
                "from": "0x4cab0c99f151456937c7470e946fd125ba57e455",
                "id": 1,
                "isERC1155": false,
                "isERC721": false,
                "isReverted": false,
                "order": 1,
                "to": "0x1dc698b3d2995afb66f96e1b19941f990a6b2662",
                "token": "0x4c11249814f11b9346808179cf06e71ac328c1b5"
            }
        ],
        "token_infos": [
            {
                "address": "0x4c11249814f11b9346808179cf06e71ac328c1b5",
                "decimals": 18
            },
            {
                "address": "0xc02aaa39b223fe8d0a0e5c4f27ead9083c756cc2",
                "decimals": 18
            },
            {
                "address": "0xeeeeeeeeeeeeeeeeeeeeeeeeeeeeeeeeeeeeeeee",
                "decimals": 18
            }
        ]
    },
    "address_label": {
        "labels": [
            {
                "address": "0x4c11249814f11b9346808179cf06e71ac328c1b5",
                "label": "OraiChain: ORAI Token"
            },
            {
                "address": "0x1dc698b3d2995afb66f96e1b19941f990a6b2662",
                "label": "Uniswap V3: ORAI"
            },
            {
                "address": "0xc36442b4a4522e871399cd717abdd847ab11fe88",
                "label": "Uniswap V3: Positions NFT"
            },
            {
                "address": "0x0000000000000000000000000000000000000001",
                "label": "Precompiled"
            },
            {
                "address": "0x0000000000000000000000000000000000000002",
                "label": "Precompiled"
            },
            {
                "address": "0x0000000000000000000000000000000000000003",
                "label": "Precompiled"
            },
            {
                "address": "0x0000000000000000000000000000000000000004",
                "label": "Precompiled"
            },
            {
                "address": "0xeeeeeeeeeeeeeeeeeeeeeeeeeeeeeeeeeeeeeeee",
                "label": "Ether"
            }
        ]
    },
    "trace": {
        "accountLabels": null,
        "dataMap": {
            "-1": {
                "invocation": {
                    "address": "0x4cab0c99f151456937c7470e946fd125ba57e455",
                    "callData": "",
                    "decodedMethod": null,
                    "errorInfo": "",
                    "fromAddress": "",
                    "gasUsed": 0,
                    "id": -1,
                    "methodDecoded": false,
                    "operation": "",
                    "output": "",
                    "revert": false,
                    "revertMessage": "",
                    "selector": "",
                    "status": false,
                    "value": ""
                },
                "nodeType": 0
            },
            "0": {
                "invocation": {
                    "address": "0xc36442b4a4522e871399cd717abdd847ab11fe88",
                    "callData": "0x00000000000000000000000000000000000000000000000000000000000b457100000000000000000000000000000000000000000000001ceb506714cfc27ffc000000000000000000000000000000000000000000000000000000000000000000000000000000000000000000000000000000000000001ceb506714cfc27ffc0000000000000000000000000000000000000000000000000000000000000000000000000000000000000000000000000000000000000000000000006684ac07",
                    "decodedMethod": {
                        "callParams": [
                            {
                                "name": "params",
                                "type": "(uint256,uint256,uint256,uint256,uint256,uint256)",
                                "value": [
                                    {
                                        "name": "tokenId",
                                        "type": "uint256",
                                        "value": "738,673"
                                    },
                                    {
                                        "name": "amount0Desired",
                                        "type": "uint256",
                                        "value": "533,464,999,999,999,999,996"
                                    },
                                    {
                                        "name": "amount1Desired",
                                        "type": "uint256",
                                        "value": "0"
                                    },
                                    {
                                        "name": "amount0Min",
                                        "type": "uint256",
                                        "value": "533,464,999,999,999,999,996"
                                    },
                                    {
                                        "name": "amount1Min",
                                        "type": "uint256",
                                        "value": "0"
                                    },
                                    {
                                        "name": "deadline",
                                        "type": "uint256",
                                        "value": "1,719,970,823"
                                    }
                                ]
                            }
                        ],
                        "constructorArguments": "",
                        "name": "increaseLiquidity",
                        "returnParams": [
                            {
                                "name": "liquidity",
                                "type": "uint128",
                                "value": "64,448,919,798,462,084,609"
                            },
                            {
                                "name": "amount0",
                                "type": "uint256",
                                "value": "533,464,999,999,999,999,996"
                            },
                            {
                                "name": "amount1",
                                "type": "uint256",
                                "value": "0"
                            }
                        ],
                        "signature": "increaseLiquidity((uint256,uint256,uint256,uint256,uint256,uint256))"
                    },
                    "errorInfo": "",
                    "fromAddress": "0x4cab0c99f151456937c7470e946fd125ba57e455",
                    "gasUsed": 136493,
                    "id": 0,
                    "methodDecoded": true,
                    "operation": "CALL",
                    "output": "0x0000000000000000000000000000000000000000000000037e688f1778f8f60100000000000000000000000000000000000000000000001ceb506714cfc27ffc0000000000000000000000000000000000000000000000000000000000000000",
                    "revert": false,
                    "revertMessage": "",
                    "selector": "0x219f5d17",
                    "status": true,
                    "value": "0"
                },
                "nodeType": 0
            },
            "1": {
                "invocation": {
                    "address": "0x1dc698b3d2995afb66f96e1b19941f990a6b2662",
                    "callData": "0x",
                    "decodedMethod": {
                        "callParams": [],
                        "constructorArguments": "",
                        "name": "slot0",
                        "returnParams": [
                            {
                                "name": "sqrtPriceX96",
                                "type": "uint160",
                                "value": "4,058,355,992,174,958,535,854,897,826"
                            },
                            {
                                "name": "tick",
                                "type": "int24",
                                "value": "-59,435"
                            },
                            {
                                "name": "observationIndex",
                                "type": "uint16",
                                "value": "0"
                            },
                            {
                                "name": "observationCardinality",
                                "type": "uint16",
                                "value": "2"
                            },
                            {
                                "name": "observationCardinalityNext",
                                "type": "uint16",
                                "value": "2"
                            },
                            {
                                "name": "feeProtocol",
                                "type": "uint8",
                                "value": "0"
                            },
                            {
                                "name": "unlocked",
                                "type": "bool",
                                "value": true
                            }
                        ],
                        "signature": "slot0()"
                    },
                    "errorInfo": "",
                    "fromAddress": "0xc36442b4a4522e871399cd717abdd847ab11fe88",
                    "gasUsed": 2696,
                    "id": 1,
                    "methodDecoded": true,
                    "operation": "STATICCALL",
                    "output": "0x00000000000000000000000000000000000000000d1cfe4f2bf9f432f96dbaa2ffffffffffffffffffffffffffffffffffffffffffffffffffffffffffff17d500000000000000000000000000000000000000000000000000000000000000000000000000000000000000000000000000000000000000000000000000000002000000000000000000000000000000000000000000000000000000000000000200000000000000000000000000000000000000000000000000000000000000000000000000000000000000000000000000000000000000000000000000000001",
                    "revert": false,
                    "revertMessage": "",
                    "selector": "0x3850c7bd",
                    "status": true,
                    "value": "0"
                },
                "nodeType": 0
            },
            "10": {
                "event": {
                    "contract": "0xc36442b4a4522e871399cd717abdd847ab11fe88",
                    "decodedLog": {
                        "name": "IncreaseLiquidity",
                        "params": [
                            {
                                "name": "tokenId",
                                "type": "uint256",
                                "value": "738,673"
                            },
                            {
                                "name": "liquidity",
                                "type": "uint128",
                                "value": "64,448,919,798,462,084,609"
                            },
                            {
                                "name": "amount0",
                                "type": "uint256",
                                "value": "533,464,999,999,999,999,996"
                            },
                            {
                                "name": "amount1",
                                "type": "uint256",
                                "value": "0"
                            }
                        ],
                        "signature": "IncreaseLiquidity(uint256,uint128,uint256,uint256)"
                    },
                    "id": 10,
                    "logData": "0x0000000000000000000000000000000000000000000000037e688f1778f8f60100000000000000000000000000000000000000000000001ceb506714cfc27ffc0000000000000000000000000000000000000000000000000000000000000000",
                    "logDecoded": true,
                    "operation": "EVENT",
                    "revert": false,
                    "status": true,
                    "topics": [
                        "0x3067048beee31b25b2f1681f88dac838c8bba36af25bfb2b7cf7473a5847e35f",
                        "0x00000000000000000000000000000000000000000000000000000000000b4571"
                    ]
                },
                "nodeType": 1
            },
            "2": {
                "invocation": {
                    "address": "0x1dc698b3d2995afb66f96e1b19941f990a6b2662",
                    "callData": "0x000000000000000000000000c36442b4a4522e871399cd717abdd847ab11fe88ffffffffffffffffffffffffffffffffffffffffffffffffffffffffffff2478ffffffffffffffffffffffffffffffffffffffffffffffffffffffffffff5a600000000000000000000000000000000000000000000000037e688f1778f8f60100000000000000000000000000000000000000000000000000000000000000a000000000000000000000000000000000000000000000000000000000000000800000000000000000000000004c11249814f11b9346808179cf06e71ac328c1b5000000000000000000000000c02aaa39b223fe8d0a0e5c4f27ead9083c756cc200000000000000000000000000000000000000000000000000000000000027100000000000000000000000004cab0c99f151456937c7470e946fd125ba57e455",
                    "decodedMethod": {
                        "callParams": [
                            {
                                "name": "recipient",
                                "type": "address",
                                "value": "0xc36442b4a4522e871399cd717abdd847ab11fe88"
                            },
                            {
                                "name": "tickLower",
                                "type": "int24",
                                "value": "-56,200"
                            },
                            {
                                "name": "tickUpper",
                                "type": "int24",
                                "value": "-42,400"
                            },
                            {
                                "name": "amount",
                                "type": "uint128",
                                "value": "64,448,919,798,462,084,609"
                            },
                            {
                                "name": "data",
                                "type": "bytes",
                                "value": "0x0000000000000000000000004c11249814f11b9346808179cf06e71ac328c1b5000000000000000000000000c02aaa39b223fe8d0a0e5c4f27ead9083c756cc200000000000000000000000000000000000000000000000000000000000027100000000000000000000000004cab0c99f151456937c7470e946fd125ba57e455"
                            }
                        ],
                        "constructorArguments": "",
                        "name": "mint",
                        "returnParams": [
                            {
                                "name": "amount0",
                                "type": "uint256",
                                "value": "533,464,999,999,999,999,996"
                            },
                            {
                                "name": "amount1",
                                "type": "uint256",
                                "value": "0"
                            }
                        ],
                        "signature": "mint(address,int24,int24,uint128,bytes)"
                    },
                    "errorInfo": "",
                    "fromAddress": "0xc36442b4a4522e871399cd717abdd847ab11fe88",
                    "gasUsed": 83015,
                    "id": 2,
                    "methodDecoded": true,
                    "operation": "CALL",
                    "output": "0x00000000000000000000000000000000000000000000001ceb506714cfc27ffc0000000000000000000000000000000000000000000000000000000000000000",
                    "revert": false,
                    "revertMessage": "",
                    "selector": "0x3c8a7d8d",
                    "status": true,
                    "value": "0"
                },
                "nodeType": 0
            },
            "3": {
                "invocation": {
                    "address": "0x4c11249814f11b9346808179cf06e71ac328c1b5",
                    "callData": "0x0000000000000000000000001dc698b3d2995afb66f96e1b19941f990a6b2662",
                    "decodedMethod": {
                        "callParams": [
                            {
                                "name": "_owner",
                                "type": "address",
                                "value": "0x1dc698b3d2995afb66f96e1b19941f990a6b2662"
                            }
                        ],
                        "constructorArguments": "",
                        "name": "balanceOf",
                        "returnParams": [
                            {
                                "decimalAvailable": true,
                                "name": "balance",
                                "type": "uint256",
                                "value": "5,710,562,966,685,117,873,779"
                            }
                        ],
                        "signature": "balanceOf(address)"
                    },
                    "errorInfo": "",
                    "fromAddress": "0x1dc698b3d2995afb66f96e1b19941f990a6b2662",
                    "gasUsed": 2581,
                    "id": 3,
                    "methodDecoded": true,
                    "operation": "STATICCALL",
                    "output": "0x00000000000000000000000000000000000000000000013591fb2a573f4c7e73",
                    "revert": false,
                    "revertMessage": "",
                    "selector": "0x70a08231",
                    "status": true,
                    "value": "0"
                },
                "nodeType": 0
            },
            "4": {
                "invocation": {
                    "address": "0xc36442b4a4522e871399cd717abdd847ab11fe88",
                    "callData": "0x00000000000000000000000000000000000000000000001ceb506714cfc27ffc0000000000000000000000000000000000000000000000000000000000000000000000000000000000000000000000000000000000000000000000000000006000000000000000000000000000000000000000000000000000000000000000800000000000000000000000004c11249814f11b9346808179cf06e71ac328c1b5000000000000000000000000c02aaa39b223fe8d0a0e5c4f27ead9083c756cc200000000000000000000000000000000000000000000000000000000000027100000000000000000000000004cab0c99f151456937c7470e946fd125ba57e455",
                    "decodedMethod": {
                        "callParams": [
                            {
                                "name": "amount0Owed",
                                "type": "uint256",
                                "value": "533,464,999,999,999,999,996"
                            },
                            {
                                "name": "amount1Owed",
                                "type": "uint256",
                                "value": "0"
                            },
                            {
                                "name": "data",
                                "type": "bytes",
                                "value": "0x0000000000000000000000004c11249814f11b9346808179cf06e71ac328c1b5000000000000000000000000c02aaa39b223fe8d0a0e5c4f27ead9083c756cc200000000000000000000000000000000000000000000000000000000000027100000000000000000000000004cab0c99f151456937c7470e946fd125ba57e455"
                            }
                        ],
                        "constructorArguments": "",
                        "name": "uniswapV3MintCallback",
                        "returnParams": [],
                        "signature": "uniswapV3MintCallback(uint256,uint256,bytes)"
                    },
                    "errorInfo": "",
                    "fromAddress": "0x1dc698b3d2995afb66f96e1b19941f990a6b2662",
                    "gasUsed": 19626,
                    "id": 4,
                    "methodDecoded": true,
                    "operation": "CALL",
                    "output": "",
                    "revert": false,
                    "revertMessage": "",
                    "selector": "0xd3487997",
                    "status": true,
                    "value": "0"
                },
                "nodeType": 0
            },
            "5": {
                "invocation": {
                    "address": "0x4c11249814f11b9346808179cf06e71ac328c1b5",
                    "callData": "0x0000000000000000000000004cab0c99f151456937c7470e946fd125ba57e4550000000000000000000000001dc698b3d2995afb66f96e1b19941f990a6b266200000000000000000000000000000000000000000000001ceb506714cfc27ffc",
                    "decodedMethod": {
                        "callParams": [
                            {
                                "name": "_from",
                                "type": "address",
                                "value": "0x4cab0c99f151456937c7470e946fd125ba57e455"
                            },
                            {
                                "name": "_to",
                                "type": "address",
                                "value": "0x1dc698b3d2995afb66f96e1b19941f990a6b2662"
                            },
                            {
                                "decimalAvailable": true,
                                "name": "_value",
                                "type": "uint256",
                                "value": "533,464,999,999,999,999,996"
                            }
                        ],
                        "constructorArguments": "",
                        "name": "transferFrom",
                        "returnParams": [
                            {
                                "name": "",
                                "type": "bool",
                                "value": true
                            }
                        ],
                        "signature": "transferFrom(address,address,uint256)"
                    },
                    "errorInfo": "",
                    "fromAddress": "0xc36442b4a4522e871399cd717abdd847ab11fe88",
                    "gasUsed": 16443,
                    "id": 5,
                    "methodDecoded": true,
                    "operation": "CALL",
                    "output": "0x0000000000000000000000000000000000000000000000000000000000000001",
                    "revert": false,
                    "revertMessage": "",
                    "selector": "0x23b872dd",
                    "status": true,
                    "value": "0"
                },
                "nodeType": 0
            },
            "6": {
                "event": {
                    "contract": "0x4c11249814f11b9346808179cf06e71ac328c1b5",
                    "decodedLog": {
                        "name": "Transfer",
                        "params": [
                            {
                                "name": "from",
                                "type": "address",
                                "value": "0x4cab0c99f151456937c7470e946fd125ba57e455"
                            },
                            {
                                "name": "to",
                                "type": "address",
                                "value": "0x1dc698b3d2995afb66f96e1b19941f990a6b2662"
                            },
                            {
                                "decimalAvailable": true,
                                "name": "value",
                                "type": "uint256",
                                "value": "533,464,999,999,999,999,996"
                            }
                        ],
                        "signature": "Transfer(address,address,uint256)"
                    },
                    "id": 6,
                    "logData": "0x00000000000000000000000000000000000000000000001ceb506714cfc27ffc",
                    "logDecoded": true,
                    "operation": "EVENT",
                    "revert": false,
                    "status": true,
                    "topics": [
                        "0xddf252ad1be2c89b69c2b068fc378daa952ba7f163c4a11628f55a4df523b3ef",
                        "0x0000000000000000000000004cab0c99f151456937c7470e946fd125ba57e455",
                        "0x0000000000000000000000001dc698b3d2995afb66f96e1b19941f990a6b2662"
                    ]
                },
                "nodeType": 1
            },
            "7": {
                "invocation": {
                    "address": "0x4c11249814f11b9346808179cf06e71ac328c1b5",
                    "callData": "0x0000000000000000000000001dc698b3d2995afb66f96e1b19941f990a6b2662",
                    "decodedMethod": {
                        "callParams": [
                            {
                                "name": "_owner",
                                "type": "address",
                                "value": "0x1dc698b3d2995afb66f96e1b19941f990a6b2662"
                            }
                        ],
                        "constructorArguments": "",
                        "name": "balanceOf",
                        "returnParams": [
                            {
                                "decimalAvailable": true,
                                "name": "balance",
                                "type": "uint256",
                                "value": "6,244,027,966,685,117,873,775"
                            }
                        ],
                        "signature": "balanceOf(address)"
                    },
                    "errorInfo": "",
                    "fromAddress": "0x1dc698b3d2995afb66f96e1b19941f990a6b2662",
                    "gasUsed": 581,
                    "id": 7,
                    "methodDecoded": true,
                    "operation": "STATICCALL",
                    "output": "0x0000000000000000000000000000000000000000000001527d4b916c0f0efe6f",
                    "revert": false,
                    "revertMessage": "",
                    "selector": "0x70a08231",
                    "status": true,
                    "value": "0"
                },
                "nodeType": 0
            },
            "8": {
                "event": {
                    "contract": "0x1dc698b3d2995afb66f96e1b19941f990a6b2662",
                    "decodedLog": {
                        "name": "Mint",
                        "params": [
                            {
                                "name": "owner",
                                "type": "address",
                                "value": "0xc36442b4a4522e871399cd717abdd847ab11fe88"
                            },
                            {
                                "name": "tickLower",
                                "type": "int24",
                                "value": "-56,200"
                            },
                            {
                                "name": "tickUpper",
                                "type": "int24",
                                "value": "-42,400"
                            },
                            {
                                "name": "sender",
                                "type": "address",
                                "value": "0xc36442b4a4522e871399cd717abdd847ab11fe88"
                            },
                            {
                                "name": "amount",
                                "type": "uint128",
                                "value": "64,448,919,798,462,084,609"
                            },
                            {
                                "name": "amount0",
                                "type": "uint256",
                                "value": "533,464,999,999,999,999,996"
                            },
                            {
                                "name": "amount1",
                                "type": "uint256",
                                "value": "0"
                            }
                        ],
                        "signature": "Mint(address,address,int24,int24,uint128,uint256,uint256)"
                    },
                    "id": 8,
                    "logData": "0x000000000000000000000000c36442b4a4522e871399cd717abdd847ab11fe880000000000000000000000000000000000000000000000037e688f1778f8f60100000000000000000000000000000000000000000000001ceb506714cfc27ffc0000000000000000000000000000000000000000000000000000000000000000",
                    "logDecoded": true,
                    "operation": "EVENT",
                    "revert": false,
                    "status": true,
                    "topics": [
                        "0x7a53080ba414158be7ec69b987b5fb7d07dee101fe85488f0853ae16239d0bde",
                        "0x000000000000000000000000c36442b4a4522e871399cd717abdd847ab11fe88",
                        "0xffffffffffffffffffffffffffffffffffffffffffffffffffffffffffff2478",
                        "0xffffffffffffffffffffffffffffffffffffffffffffffffffffffffffff5a60"
                    ]
                },
                "nodeType": 1
            },
            "9": {
                "invocation": {
                    "address": "0x1dc698b3d2995afb66f96e1b19941f990a6b2662",
                    "callData": "0x9d1ab8c5914fdbcbec87b48a93a57789cd5c7f66ae542d8934f4215bcf16b0fd",
                    "decodedMethod": {
                        "callParams": [
                            {
                                "name": "",
                                "type": "bytes32",
                                "value": "0x9d1ab8c5914fdbcbec87b48a93a57789cd5c7f66ae542d8934f4215bcf16b0fd"
                            }
                        ],
                        "constructorArguments": "",
                        "name": "positions",
                        "returnParams": [
                            {
                                "name": "liquidity",
                                "type": "uint128",
                                "value": "754,304,268,090,894,671,386"
                            },
                            {
                                "name": "feeGrowthInside0LastX128",
                                "type": "uint256",
                                "value": "19,810,909,110,618,469,388,281,779,089,735,339,640"
                            },
                            {
                                "name": "feeGrowthInside1LastX128",
                                "type": "uint256",
                                "value": "75,497,779,673,360,519,884,963,451,018,868,374"
                            },
                            {
                                "name": "tokensOwed0",
                                "type": "uint128",
                                "value": "0"
                            },
                            {
                                "name": "tokensOwed1",
                                "type": "uint128",
                                "value": "0"
                            }
                        ],
                        "signature": "positions(bytes32)"
                    },
                    "errorInfo": "",
                    "fromAddress": "0xc36442b4a4522e871399cd717abdd847ab11fe88",
                    "gasUsed": 1013,
                    "id": 9,
                    "methodDecoded": true,
                    "operation": "STATICCALL",
                    "output": "0x000000000000000000000000000000000000000000000028e413175a76cb5e1a000000000000000000000000000000000ee7713b1ba9be017362ccccfd7ece7800000000000000000000000000000000000e8a53f2f49a97a63d4fc9ceeaf69600000000000000000000000000000000000000000000000000000000000000000000000000000000000000000000000000000000000000000000000000000000",
                    "revert": false,
                    "revertMessage": "",
                    "selector": "0x514ea4bf",
                    "status": true,
                    "value": "0"
                },
                "nodeType": 0
            }
        },
        "gasFlame": [
            {
                "children": [
                    {
                        "children": [
                            {
                                "children": [],
                                "depth": 0,
                                "name": "Initial Gas",
                                "value": 22132
                            },
                            {
                                "children": [
                                    {
                                        "children": [],
                                        "depth": 1,
                                        "name": "slot0",
                                        "value": 2696
                                    },
                                    {
                                        "children": [
                                            {
                                                "children": [],
                                                "depth": 2,
                                                "name": "balanceOf",
                                                "value": 2581
                                            },
                                            {
                                                "children": [
                                                    {
                                                        "children": [],
                                                        "depth": 3,
                                                        "name": "transferFrom",
                                                        "value": 16443
                                                    }
                                                ],
                                                "depth": 2,
                                                "name": "uniswapV3MintCallback",
                                                "value": 19626
                                            },
                                            {
                                                "children": [],
                                                "depth": 2,
                                                "name": "balanceOf",
                                                "value": 581
                                            }
                                        ],
                                        "depth": 1,
                                        "name": "mint",
                                        "value": 83015
                                    },
                                    {
                                        "children": [],
                                        "depth": 1,
                                        "name": "positions",
                                        "value": 1013
                                    }
                                ],
                                "depth": 0,
                                "name": "Executed Gas",
                                "value": 117161
                            }
                        ],
                        "depth": -1,
                        "name": "Actual Gas Used",
                        "value": 136493
                    },
                    {
                        "children": [],
                        "depth": -1,
                        "name": "Refunded Gas",
                        "value": 2800
                    }
                ],
                "depth": -2,
                "name": "Total Gas",
                "value": 139293
            }
        ],
        "isConfirmed": true,
        "mainTrace": [
            {
                "children": [
                    {
                        "children": [
                            {
                                "children": [],
                                "depth": 1,
                                "id": 1,
                                "order": 1
                            },
                            {
                                "children": [
                                    {
                                        "children": [],
                                        "depth": 2,
                                        "id": 3,
                                        "order": 3
                                    },
                                    {
                                        "children": [
                                            {
                                                "children": [
                                                    {
                                                        "children": [],
                                                        "depth": 4,
                                                        "id": 6,
                                                        "order": 6
                                                    }
                                                ],
                                                "depth": 3,
                                                "id": 5,
                                                "order": 5
                                            }
                                        ],
                                        "depth": 2,
                                        "id": 4,
                                        "order": 4
                                    },
                                    {
                                        "children": [],
                                        "depth": 2,
                                        "id": 7,
                                        "order": 7
                                    },
                                    {
                                        "children": [],
                                        "depth": 2,
                                        "id": 8,
                                        "order": 8
                                    }
                                ],
                                "depth": 1,
                                "id": 2,
                                "order": 2
                            },
                            {
                                "children": [],
                                "depth": 1,
                                "id": 9,
                                "order": 9
                            },
                            {
                                "children": [],
                                "depth": 1,
                                "id": 10,
                                "order": 10
                            }
                        ],
                        "depth": 0,
                        "id": 0,
                        "order": 0
                    }
                ],
                "depth": -1,
                "id": -1,
                "order": -1
            }
        ],
        "mainTraceNodeCount": 11,
        "parentIdMap": {
            "0": -1,
            "1": 0,
            "10": 0,
            "2": 0,
            "3": 2,
            "4": 2,
            "5": 4,
            "6": 5,
            "7": 2,
            "8": 2,
            "9": 0
        },
        "tidyTrace": [
            {
                "children": [
                    {
                        "children": [
                            {
                                "children": [
                                    {
                                        "children": [
                                            {
                                                "children": [
                                                    {
                                                        "children": [],
                                                        "depth": 4,
                                                        "id": 6,
                                                        "order": 6
                                                    }
                                                ],
                                                "depth": 3,
                                                "id": 5,
                                                "order": 5
                                            }
                                        ],
                                        "depth": 2,
                                        "id": 4,
                                        "order": 4
                                    },
                                    {
                                        "children": [],
                                        "depth": 2,
                                        "id": 8,
                                        "order": 8
                                    }
                                ],
                                "depth": 1,
                                "id": 2,
                                "order": 2
                            },
                            {
                                "children": [],
                                "depth": 1,
                                "id": 10,
                                "order": 10
                            }
                        ],
                        "depth": 0,
                        "id": 0,
                        "order": 0
                    }
                ],
                "depth": -1,
                "id": -1,
                "order": -1
            }
        ],
        "tidyTraceNodeCount": 7
    },
    "state_change": {
        "stateChanges": [
            {
                "address": "0x1dc698b3d2995afb66f96e1b19941f990a6b2662",
                "erc": "",
                "slots": [
                    {
                        "current": "0x0000000000000028e413175a76cb5e1a0000000000000028e413175a76cb5e1a",
                        "key": "0x866176cd6768367998cb2f133c7285ccfdf04458cefcba480a21c627bb6c1ad4",
                        "prev": "0x000000000000002565aa8842fdd26819000000000000002565aa8842fdd26819"
                    },
                    {
                        "current": "0xffffffffffffffd71bece8a58934a1e60000000000000028e413175a76cb5e1a",
                        "key": "0x1eb42222ee786f017b0891a0656ee1d3c7c04a79eaf6a0a2a63fab2b05ccc27b",
                        "prev": "0xffffffffffffffda9a5577bd022d97e7000000000000002565aa8842fdd26819"
                    },
                    {
                        "current": "0x000000000000000000000000000000000000000000000028e413175a76cb5e1a",
                        "key": "0x7703c74af0b28984a42fabaece1dec8c712d0004c44e7affb41fca54da564b9a",
                        "prev": "0x00000000000000000000000000000000000000000000002565aa8842fdd26819"
                    }
                ],
                "storageVariables": []
            },
            {
                "address": "0x4c11249814f11b9346808179cf06e71ac328c1b5",
                "erc": "",
                "slots": [
                    {
                        "current": "0x0000000000000000000000000000000000000000000000000000000000000006",
                        "key": "0x3da2fe924b0fca0a6f720c88643a47acca773ec05fb76588452ac3c1fb986e5a",
                        "prev": "0x00000000000000000000000000000000000000000000001ceb506714cfc28002"
                    },
                    {
                        "current": "0x0000000000000000000000000000000000000000000001527d4b916c0f0efe6f",
                        "key": "0xf91df68c20c2e7befb3d5f0646d1e6b814c96599a861e540e8b75131a016eec3",
                        "prev": "0x00000000000000000000000000000000000000000000013591fb2a573f4c7e73"
                    },
                    {
                        "current": "0x00000000000000000000000000000000000000000000010f0cf064dd59200006",
                        "key": "0x16e6eaf091d0e2a0910aca46b65f54443a07bb07c78f3bec0bbfb93c4f87b576",
                        "prev": "0x00000000000000000000000000000000000000000000012bf840cbf228e28002"
                    }
                ],
                "storageVariables": [
                    {
                        "name": "balances",
                        "type": "mapping(address => uint256)",
                        "value": {
                            "pairs": [
                                {
                                    "key": "0x1dc698b3d2995afb66f96e1b19941f990a6b2662",
                                    "value": {
                                        "current": "6244027966685117873775",
                                        "prev": "5710562966685117873779",
                                        "typeTag": 1
                                    }
                                },
                                {
                                    "key": "0x4cab0c99f151456937c7470e946fd125ba57e455",
                                    "value": {
                                        "current": "6",
                                        "prev": "533465000000000000002",
                                        "typeTag": 1
                                    }
                                }
                            ],
                            "typeTag": 4
                        }
                    },
                    {
                        "name": "allowed",
                        "type": "mapping(address => mapping(address => uint256))",
                        "value": {
                            "pairs": [
                                {
                                    "key": "0x4cab0c99f151456937c7470e946fd125ba57e455",
                                    "value": {
                                        "pairs": [
                                            {
                                                "key": "0xc36442b4a4522e871399cd717abdd847ab11fe88",
                                                "value": {
                                                    "current": "5000000000000000000006",
                                                    "prev": "5533465000000000000002",
                                                    "typeTag": 1
                                                }
                                            }
                                        ],
                                        "typeTag": 4
                                    }
                                }
                            ],
                            "typeTag": 4
                        }
                    }
                ]
            },
            {
                "address": "0xc36442b4a4522e871399cd717abdd847ab11fe88",
                "erc": "ERC-721",
                "slots": [
                    {
                        "current": "0x0000000000000028e413175a76cb5e1aff5a60ff247800000000000000000d8d",
                        "key": "0xe43d6f3f3f4e983611e07fdf2f19be2010bd1a5a90e8e4a3617db5e994d2dfde",
                        "prev": "0x000000000000002565aa8842fdd26819ff5a60ff247800000000000000000d8d"
                    }
                ],
                "storageVariables": [
                    {
                        "name": "_positions",
                        "type": "mapping(uint256 => struct NonfungiblePositionManager.Position)",
                        "value": {
                            "pairs": [
                                {
                                    "key": "738673",
                                    "value": {
                                        "fields": [
                                            {
                                                "name": "poolId",
                                                "type": "uint80",
                                                "value": {
                                                    "current": "3469",
                                                    "prev": "3469",
                                                    "typeTag": 1
                                                }
                                            },
                                            {
                                                "name": "tickLower",
                                                "type": "int24",
                                                "value": {
                                                    "current": "-56200",
                                                    "prev": "-56200",
                                                    "typeTag": 1
                                                }
                                            },
                                            {
                                                "name": "tickUpper",
                                                "type": "int24",
                                                "value": {
                                                    "current": "-42400",
                                                    "prev": "-42400",
                                                    "typeTag": 1
                                                }
                                            },
                                            {
                                                "name": "liquidity",
                                                "type": "uint128",
                                                "value": {
                                                    "current": "754304268090894671386",
                                                    "prev": "689855348292432586777",
                                                    "typeTag": 1
                                                }
                                            }
                                        ],
                                        "typeTag": 3
                                    }
                                }
                            ],
                            "typeTag": 4
                        }
                    }
                ]
            }
        ]
    }
}