{
    "balance_change": {
        "balanceChanges": [
            {
                "account": "0xb3f636cae9e8ad9795d14d3bdda3e382dba47c73",
                "assets": [
                    {
                        "address": "0xcb97e65f07da24d46bcdd078ebebd7c6e6e3d750",
                        "amount": "13,905.54",
                        "iconUrl": "https://assets.blocksec.com/icon/0ce7d458db0511a7b405913d692a6e8c0dc00bde394b216b07e59f39b7da53ae.png",
                        "isERC1155": false,
                        "isERC721": false,
                        "sign": false,
                        "value": ""
                    }
                ]
            },
            {
                "account": "0x5e054f4dbf5efce5e73f155458e60aba69552849",
                "assets": [
                    {
                        "address": "0xcb97e65f07da24d46bcdd078ebebd7c6e6e3d750",
                        "amount": "13,905.54",
                        "iconUrl": "https://assets.blocksec.com/icon/0ce7d458db0511a7b405913d692a6e8c0dc00bde394b216b07e59f39b7da53ae.png",
                        "isERC1155": false,
                        "isERC721": false,
                        "sign": true,
                        "value": ""
                    }
                ]
            }
        ]
    },
    "profile": {
        "basic_info": {
            "baseFee": "",
            "blockNumber": 4193217,
            "callData": "0xa9059cbb0000000000000000000000005e054f4dbf5efce5e73f155458e60aba6955284900000000000000000000000000000000000000000000000000000143c37a2a80",
            "debugEnable": true,
            "errorInfo": "",
            "eventCount": 1,
            "feeRecipient": "0x1e9939daaad6924ad004c2560e90804164900341",
            "formatValue": "0",
            "gasLimit": 300000,
            "gasPrice": "20",
            "gasUsed": 36475,
            "intTxnCount": 0,
            "internalRevert": false,
            "internalRevertMessage": "",
            "isContractCreation": false,
            "isFlashloan": false,
            "maxFee": "",
            "nonce": 74101,
            "overwritedBlockNumber": -1,
            "priorityFee": "",
            "receiver": "0xcb97e65f07da24d46bcdd078ebebd7c6e6e3d750",
            "revertMessage": "",
            "sender": "0xb3f636cae9e8ad9795d14d3bdda3e382dba47c73",
            "simulationEnable": true,
            "sourceTxnHash": "0xdd6be6438884711e3b4fcf8724ffdef01abd4e61bde81c4dd562b0481d0062ea",
            "status": true,
            "timestamp": "2017-08-23T06:27:05Z",
            "transactionFee": "0.0007295",
            "txnHash": "0xdd6be6438884711e3b4fcf8724ffdef01abd4e61bde81c4dd562b0481d0062ea",
            "txnIndex": 37,
            "type": 0,
            "value": "0"
        },
        "fund_flow": [
            {
                "amount": "13,905.54",
                "from": "0xb3f636cae9e8ad9795d14d3bdda3e382dba47c73",
                "id": 1,
                "isERC1155": false,
                "isERC721": false,
                "isReverted": false,
                "order": 1,
                "to": "0x5e054f4dbf5efce5e73f155458e60aba69552849",
                "token": "0xcb97e65f07da24d46bcdd078ebebd7c6e6e3d750"
            }
        ],
        "token_infos": [
            {
                "address": "0xc02aaa39b223fe8d0a0e5c4f27ead9083c756cc2",
                "decimals": 18
            },
            {
                "address": "0xcb97e65f07da24d46bcdd078ebebd7c6e6e3d750",
                "decimals": 8
            },
            {
                "address": "0xeeeeeeeeeeeeeeeeeeeeeeeeeeeeeeeeeeeeeeee",
                "decimals": 18
            }
        ]
    },
    "address_label": {
        "labels": [
            {
                "address": "0x0000000000000000000000000000000000000002",
                "label": "Precompiled"
            },
            {
                "address": "0x0000000000000000000000000000000000000003",
                "label": "Precompiled"
            },
            {
                "address": "0x0000000000000000000000000000000000000004",
                "label": "Precompiled"
            },
            {
                "address": "0xeeeeeeeeeeeeeeeeeeeeeeeeeeeeeeeeeeeeeeee",
                "label": "Ether"
            },
            {
                "address": "0x5e054f4dbf5efce5e73f155458e60aba69552849",
                "label": "BINANCE"
            },
            {
                "address": "0xcb97e65f07da24d46bcdd078ebebd7c6e6e3d750",
                "label": "Bytom: Old Token"
            },
            {
                "address": "0x0000000000000000000000000000000000000001",
                "label": "Precompiled"
            }
        ]
    },
    "trace": {
        "accountLabels": null,
        "dataMap": {
            "-1": {
                "invocation": {
                    "address": "0xb3f636cae9e8ad9795d14d3bdda3e382dba47c73",
                    "callData": "",
                    "decodedMethod": null,
                    "errorInfo": "",
                    "fromAddress": "",
                    "gasUsed": 0,
                    "id": -1,
                    "methodDecoded": false,
                    "operation": "",
                    "output": "",
                    "revert": false,
                    "revertMessage": "",
                    "selector": "",
                    "status": false,
                    "value": ""
                },
                "nodeType": 0
            },
            "0": {
                "invocation": {
                    "address": "0xcb97e65f07da24d46bcdd078ebebd7c6e6e3d750",
                    "callData": "0x0000000000000000000000005e054f4dbf5efce5e73f155458e60aba6955284900000000000000000000000000000000000000000000000000000143c37a2a80",
                    "decodedMethod": {
                        "callParams": [
                            {
                                "name": "_to",
                                "type": "address",
                                "value": "0x5e054f4dbf5efce5e73f155458e60aba69552849"
                            },
                            {
                                "decimalAvailable": true,
                                "name": "_value",
                                "type": "uint256",
                                "value": "1,390,554,000,000"
                            }
                        ],
                        "constructorArguments": "",
                        "name": "transfer",
                        "returnParams": [
                            {
                                "name": "success",
                                "type": "bool",
                                "value": true
                            }
                        ],
                        "signature": "transfer(address,uint256)"
                    },
                    "errorInfo": "",
                    "fromAddress": "0xb3f636cae9e8ad9795d14d3bdda3e382dba47c73",
                    "gasUsed": 36475,
                    "id": 0,
                    "methodDecoded": true,
                    "operation": "CALL",
                    "output": "0x0000000000000000000000000000000000000000000000000000000000000001",
                    "revert": false,
                    "revertMessage": "",
                    "selector": "0xa9059cbb",
                    "status": true,
                    "value": "0"
                },
                "nodeType": 0
            },
            "1": {
                "event": {
                    "contract": "0xcb97e65f07da24d46bcdd078ebebd7c6e6e3d750",
                    "decodedLog": {
                        "name": "Transfer",
                        "params": [
                            {
                                "name": "_from",
                                "type": "address",
                                "value": "0xb3f636cae9e8ad9795d14d3bdda3e382dba47c73"
                            },
                            {
                                "name": "_to",
                                "type": "address",
                                "value": "0x5e054f4dbf5efce5e73f155458e60aba69552849"
                            },
                            {
                                "decimalAvailable": true,
                                "name": "_value",
                                "type": "uint256",
                                "value": "1,390,554,000,000"
                            }
                        ],
                        "signature": "Transfer(address,address,uint256)"
                    },
                    "id": 1,
                    "logData": "0x00000000000000000000000000000000000000000000000000000143c37a2a80",
                    "logDecoded": true,
                    "operation": "EVENT",
                    "revert": false,
                    "status": true,
                    "topics": [
                        "0xddf252ad1be2c89b69c2b068fc378daa952ba7f163c4a11628f55a4df523b3ef",
                        "0x000000000000000000000000b3f636cae9e8ad9795d14d3bdda3e382dba47c73",
                        "0x0000000000000000000000005e054f4dbf5efce5e73f155458e60aba69552849"
                    ]
                },
                "nodeType": 1
            }
        },
        "gasFlame": [
            {
                "children": [
                    {
                        "children": [
                            {
                                "children": [],
                                "depth": 0,
                                "name": "Initial Gas",
                                "value": 23192
                            },
                            {
                                "children": [],
                                "depth": 0,
                                "name": "Executed Gas",
                                "value": 13283
                            }
                        ],
                        "depth": -1,
                        "name": "Actual Gas Used",
                        "value": 36475
                    },
                    {
                        "children": [],
                        "depth": -1,
                        "name": "Refunded Gas",
                        "value": 0
                    }
                ],
                "depth": -2,
                "name": "Total Gas",
                "value": 36475
            }
        ],
        "isConfirmed": true,
        "mainTrace": [
            {
                "children": [
                    {
                        "children": [
                            {
                                "children": [],
                                "depth": 1,
                                "id": 1,
                                "order": 1
                            }
                        ],
                        "depth": 0,
                        "id": 0,
                        "order": 0
                    }
                ],
                "depth": -1,
                "id": -1,
                "order": -1
            }
        ],
        "mainTraceNodeCount": 2,
        "parentIdMap": {
            "0": -1,
            "1": 0
        },
        "tidyTrace": [
            {
                "children": [
                    {
                        "children": [
                            {
                                "children": [],
                                "depth": 1,
                                "id": 1,
                                "order": 1
                            }
                        ],
                        "depth": 0,
                        "id": 0,
                        "order": 0
                    }
                ],
                "depth": -1,
                "id": -1,
                "order": -1
            }
        ],
        "tidyTraceNodeCount": 2
    },
    "state_change": {
        "stateChanges": [
            {
                "address": "0xcb97e65f07da24d46bcdd078ebebd7c6e6e3d750",
                "erc": "ERC-20",
                "slots": [
                    {
                        "current": "0x00000000000000000000000000000000000000000000000000000b1b2ebec3fb",
                        "key": "0xa84595217801367c5e03f20d8182a4bd0a55621065fe943038f0e4479e1f7ec9",
                        "prev": "0x000000000000000000000000000000000000000000000000000009d76b44997b"
                    },
                    {
                        "current": "0x0000000000000000000000000000000000000000000000000000611e6291f15b",
                        "key": "0x57fbafc3478c5eed20af69ad696d5d0e4955edb6e2faa4d7c424a944b917d48d",
                        "prev": "0x00000000000000000000000000000000000000000000000000006262260c1bdb"
                    }
                ],
                "storageVariables": [
                    {
                        "name": "balances",
                        "type": "mapping(address => uint256)",
                        "value": {
                            "pairs": [
                                {
                                    "key": "0x5e054f4dbf5efce5e73f155458e60aba69552849",
                                    "value": {
                                        "current": "12211376276475",
                                        "prev": "10820822276475",
                                        "typeTag": 1
                                    }
                                },
                                {
                                    "key": "0xb3f636cae9e8ad9795d14d3bdda3e382dba47c73",
                                    "value": {
                                        "current": "106783130644827",
                                        "prev": "108173684644827",
                                        "typeTag": 1
                                    }
                                }
                            ],
                            "typeTag": 4
                        }
                    }
                ]
            }
        ]
    }
}