{
    "balance_change": {
        "balanceChanges": [
            {
                "account": "0xf1ac627400d0e4877ef6bd555a47c628ff80fc21",
                "assets": [
                    {
                        "address": "0x98b4ca8bd52e4ed1f28d3f30d9f567d1166c9483",
                        "amount": "1.03",
                        "iconUrl": "",
                        "isERC1155": false,
                        "isERC721": false,
                        "sign": false,
                        "value": ""
                    }
                ]
            },
            {
                "account": "0x8c10310e972c07ac8209dc11c6d78180d11ddd7f",
                "assets": [
                    {
                        "address": "0x98b4ca8bd52e4ed1f28d3f30d9f567d1166c9483",
                        "amount": "1.03",
                        "iconUrl": "",
                        "isERC1155": false,
                        "isERC721": false,
                        "sign": true,
                        "value": ""
                    }
                ]
            }
        ]
    },
    "profile": {
        "basic_info": {
            "baseFee": "",
            "blockNumber": 5962364,
            "callData": "0xa9059cbb0000000000000000000000008c10310e972c07ac8209dc11c6d78180d11ddd7f0000000000000000000000000000000000000000000000000e4b4b8af6a70000",
            "debugEnable": true,
            "errorInfo": "",
            "eventCount": 1,
            "feeRecipient": "0xea674fdde714fd979de3edf0f56aa9716b898ec8",
            "formatValue": "0",
            "gasLimit": 60000,
            "gasPrice": "70",
            "gasUsed": 52325,
            "intTxnCount": 0,
            "internalRevert": false,
            "internalRevertMessage": "",
            "isContractCreation": false,
            "isFlashloan": false,
            "maxFee": "",
            "nonce": 1,
            "overwritedBlockNumber": -1,
            "priorityFee": "",
            "receiver": "0x98b4ca8bd52e4ed1f28d3f30d9f567d1166c9483",
            "revertMessage": "",
            "sender": "0xf1ac627400d0e4877ef6bd555a47c628ff80fc21",
            "simulationEnable": true,
            "sourceTxnHash": "0xdd0dd3a05e743113bbb1973980df62fc76d9e0d4fa4c80caa86d0ff190926129",
            "status": true,
            "timestamp": "2018-07-14T11:00:37Z",
            "transactionFee": "0.00366275",
            "txnHash": "0xdd0dd3a05e743113bbb1973980df62fc76d9e0d4fa4c80caa86d0ff190926129",
            "txnIndex": 15,
            "type": 0,
            "value": "0"
        },
        "fund_flow": [
            {
                "amount": "1.03",
                "from": "0xf1ac627400d0e4877ef6bd555a47c628ff80fc21",
                "id": 1,
                "isERC1155": false,
                "isERC721": false,
                "isReverted": false,
                "order": 1,
                "to": "0x8c10310e972c07ac8209dc11c6d78180d11ddd7f",
                "token": "0x98b4ca8bd52e4ed1f28d3f30d9f567d1166c9483"
            }
        ],
        "token_infos": [
            {
                "address": "0x98b4ca8bd52e4ed1f28d3f30d9f567d1166c9483",
                "decimals": 18
            },
            {
                "address": "0xc02aaa39b223fe8d0a0e5c4f27ead9083c756cc2",
                "decimals": 18
            },
            {
                "address": "0xeeeeeeeeeeeeeeeeeeeeeeeeeeeeeeeeeeeeeeee",
                "decimals": 18
            }
        ]
    },
    "address_label": {
        "labels": [
            {
                "address": "0xeeeeeeeeeeeeeeeeeeeeeeeeeeeeeeeeeeeeeeee",
                "label": "Ether"
            },
            {
                "address": "0x98b4ca8bd52e4ed1f28d3f30d9f567d1166c9483",
                "label": "iFishYunYu (iFish)"
            },
            {
                "address": "0x0000000000000000000000000000000000000001",
                "label": "Precompiled"
            },
            {
                "address": "0x0000000000000000000000000000000000000002",
                "label": "Precompiled"
            },
            {
                "address": "0x0000000000000000000000000000000000000003",
                "label": "Precompiled"
            },
            {
                "address": "0x0000000000000000000000000000000000000004",
                "label": "Precompiled"
            }
        ]
    },
    "trace": {
        "accountLabels": null,
        "dataMap": {
            "-1": {
                "invocation": {
                    "address": "0xf1ac627400d0e4877ef6bd555a47c628ff80fc21",
                    "callData": "",
                    "decodedMethod": null,
                    "errorInfo": "",
                    "fromAddress": "",
                    "gasUsed": 0,
                    "id": -1,
                    "methodDecoded": false,
                    "operation": "",
                    "output": "",
                    "revert": false,
                    "revertMessage": "",
                    "selector": "",
                    "status": false,
                    "value": ""
                },
                "nodeType": 0
            },
            "0": {
                "invocation": {
                    "address": "0x98b4ca8bd52e4ed1f28d3f30d9f567d1166c9483",
                    "callData": "0x0000000000000000000000008c10310e972c07ac8209dc11c6d78180d11ddd7f0000000000000000000000000000000000000000000000000e4b4b8af6a70000",
                    "decodedMethod": {
                        "callParams": [
                            {
                                "name": "_to",
                                "type": "address",
                                "value": "0x8c10310e972c07ac8209dc11c6d78180d11ddd7f"
                            },
                            {
                                "decimalAvailable": true,
                                "name": "_value",
                                "type": "uint256",
                                "value": "1,030,000,000,000,000,000"
                            }
                        ],
                        "constructorArguments": "",
                        "name": "transfer",
                        "returnParams": [
                            {
                                "name": "",
                                "type": "bool",
                                "value": true
                            }
                        ],
                        "signature": "transfer(address,uint256)"
                    },
                    "errorInfo": "",
                    "fromAddress": "0xf1ac627400d0e4877ef6bd555a47c628ff80fc21",
                    "gasUsed": 52325,
                    "id": 0,
                    "methodDecoded": true,
                    "operation": "CALL",
                    "output": "0x0000000000000000000000000000000000000000000000000000000000000001",
                    "revert": false,
                    "revertMessage": "",
                    "selector": "0xa9059cbb",
                    "status": true,
                    "value": "0"
                },
                "nodeType": 0
            },
            "1": {
                "event": {
                    "contract": "0x98b4ca8bd52e4ed1f28d3f30d9f567d1166c9483",
                    "decodedLog": {
                        "name": "Transfer",
                        "params": [
                            {
                                "name": "from",
                                "type": "address",
                                "value": "0xf1ac627400d0e4877ef6bd555a47c628ff80fc21"
                            },
                            {
                                "name": "to",
                                "type": "address",
                                "value": "0x8c10310e972c07ac8209dc11c6d78180d11ddd7f"
                            },
                            {
                                "decimalAvailable": true,
                                "name": "value",
                                "type": "uint256",
                                "value": "1,030,000,000,000,000,000"
                            }
                        ],
                        "signature": "Transfer(address,address,uint256)"
                    },
                    "id": 1,
                    "logData": "0x0000000000000000000000000000000000000000000000000e4b4b8af6a70000",
                    "logDecoded": true,
                    "operation": "EVENT",
                    "revert": false,
                    "status": true,
                    "topics": [
                        "0xddf252ad1be2c89b69c2b068fc378daa952ba7f163c4a11628f55a4df523b3ef",
                        "0x000000000000000000000000f1ac627400d0e4877ef6bd555a47c628ff80fc21",
                        "0x0000000000000000000000008c10310e972c07ac8209dc11c6d78180d11ddd7f"
                    ]
                },
                "nodeType": 1
            }
        },
        "gasFlame": [
            {
                "children": [
                    {
                        "children": [
                            {
                                "children": [],
                                "depth": 0,
                                "name": "Initial Gas",
                                "value": 23192
                            },
                            {
                                "children": [],
                                "depth": 0,
                                "name": "Executed Gas",
                                "value": 29133
                            }
                        ],
                        "depth": -1,
                        "name": "Actual Gas Used",
                        "value": 52325
                    },
                    {
                        "children": [],
                        "depth": -1,
                        "name": "Refunded Gas",
                        "value": 0
                    }
                ],
                "depth": -2,
                "name": "Total Gas",
                "value": 52325
            }
        ],
        "isConfirmed": true,
        "mainTrace": [
            {
                "children": [
                    {
                        "children": [
                            {
                                "children": [],
                                "depth": 1,
                                "id": 1,
                                "order": 1
                            }
                        ],
                        "depth": 0,
                        "id": 0,
                        "order": 0
                    }
                ],
                "depth": -1,
                "id": -1,
                "order": -1
            }
        ],
        "mainTraceNodeCount": 2,
        "parentIdMap": {
            "0": -1,
            "1": 0
        },
        "tidyTrace": [
            {
                "children": [
                    {
                        "children": [
                            {
                                "children": [],
                                "depth": 1,
                                "id": 1,
                                "order": 1
                            }
                        ],
                        "depth": 0,
                        "id": 0,
                        "order": 0
                    }
                ],
                "depth": -1,
                "id": -1,
                "order": -1
            }
        ],
        "tidyTraceNodeCount": 2
    },
    "state_change": {
        "stateChanges": [
            {
                "address": "0x98b4ca8bd52e4ed1f28d3f30d9f567d1166c9483",
                "erc": "ERC-20",
                "slots": [
                    {
                        "current": "0x00000000000000000000000000000000000000000000000b45bf484962ba0000",
                        "key": "0xa5de13b0ba9465d388cf8047ac991020436d76d021ec6a555a56c026c8717f7f",
                        "prev": "0x00000000000000000000000000000000000000000000000b540a93d459610000"
                    },
                    {
                        "current": "0x0000000000000000000000000000000000000000000000000e4b4b8af6a70000",
                        "key": "0x4c2d17fecdc7e3d05420e375b88c000208ea1eddcb4e13c5d43d10179f39297f",
                        "prev": "0x0000000000000000000000000000000000000000000000000000000000000000"
                    }
                ],
                "storageVariables": [
                    {
                        "name": "balances",
                        "type": "mapping(address => uint256)",
                        "value": {
                            "pairs": [
                                {
                                    "key": "0x8c10310e972c07ac8209dc11c6d78180d11ddd7f",
                                    "value": {
                                        "current": "1030000000000000000",
                                        "prev": "0",
                                        "typeTag": 1
                                    }
                                },
                                {
                                    "key": "0xf1ac627400d0e4877ef6bd555a47c628ff80fc21",
                                    "value": {
                                        "current": "207940000000000000000",
                                        "prev": "208970000000000000000",
                                        "typeTag": 1
                                    }
                                }
                            ],
                            "typeTag": 4
                        }
                    }
                ]
            }
        ]
    }
}