{
    "balance_change": {
        "balanceChanges": [
            {
                "account": "0x60e7cb73b6bb7506cffd803e60fcec5f7275af0c",
                "assets": [
                    {
                        "address": "0xeeeeeeeeeeeeeeeeeeeeeeeeeeeeeeeeeeeeeeee",
                        "amount": "6.02976",
                        "iconUrl": "https://assets.blocksec.com/image/1663669189317-3.png",
                        "isERC1155": false,
                        "isERC721": false,
                        "sign": true,
                        "value": "1387.6465530681600624"
                    }
                ]
            },
            {
                "account": "0xa9375923ddb69cd32955f536a351007415c02696",
                "assets": [
                    {
                        "address": "0xeeeeeeeeeeeeeeeeeeeeeeeeeeeeeeeeeeeeeeee",
                        "amount": "6.02976",
                        "iconUrl": "https://assets.blocksec.com/image/1663669189317-3.png",
                        "isERC1155": false,
                        "isERC721": false,
                        "sign": false,
                        "value": "1387.6465530681600624"
                    }
                ]
            }
        ]
    },
    "profile": {
        "basic_info": {
            "baseFee": "",
            "blockNumber": 9723578,
            "callData": "0xdef8ecf40000000000000000000000000000000000000000000000000000000000000d90",
            "debugEnable": true,
            "errorInfo": "",
            "eventCount": 1,
            "feeRecipient": "0x5a0b54d5dc17e0aadc383d2db43b0a0d3e029c4c",
            "formatValue": "0",
            "gasLimit": 76084,
            "gasPrice": "2",
            "gasUsed": 37985,
            "intTxnCount": 1,
            "internalRevert": false,
            "internalRevertMessage": "",
            "isContractCreation": false,
            "isFlashloan": false,
            "maxFee": "",
            "nonce": 1154,
            "overwritedBlockNumber": -1,
            "priorityFee": "",
            "receiver": "0xa9375923ddb69cd32955f536a351007415c02696",
            "revertMessage": "",
            "sender": "0x60e7cb73b6bb7506cffd803e60fcec5f7275af0c",
            "simulationEnable": true,
            "sourceTxnHash": "0xdd7ece874f4b71a61b993a4aed910a63d332685ddea3311ba7053b210b80ef34",
            "status": true,
            "timestamp": "2020-03-22T20:50:37Z",
            "transactionFee": "0.00007597",
            "txnHash": "0xdd7ece874f4b71a61b993a4aed910a63d332685ddea3311ba7053b210b80ef34",
            "txnIndex": 26,
            "type": 0,
            "value": "0"
        },
        "fund_flow": [
            {
                "amount": "6.02976",
                "from": "0xa9375923ddb69cd32955f536a351007415c02696",
                "id": 1,
                "isERC1155": false,
                "isERC721": false,
                "isReverted": false,
                "order": 1,
                "to": "0x60e7cb73b6bb7506cffd803e60fcec5f7275af0c",
                "token": "0xeeeeeeeeeeeeeeeeeeeeeeeeeeeeeeeeeeeeeeee"
            }
        ],
        "token_infos": [
            {
                "address": "0xc02aaa39b223fe8d0a0e5c4f27ead9083c756cc2",
                "decimals": 18
            },
            {
                "address": "0xeeeeeeeeeeeeeeeeeeeeeeeeeeeeeeeeeeeeeeee",
                "decimals": 18
            }
        ]
    },
    "address_label": {
        "labels": [
            {
                "address": "0x0000000000000000000000000000000000000001",
                "label": "Precompiled"
            },
            {
                "address": "0x0000000000000000000000000000000000000002",
                "label": "Precompiled"
            },
            {
                "address": "0x0000000000000000000000000000000000000003",
                "label": "Precompiled"
            },
            {
                "address": "0x0000000000000000000000000000000000000004",
                "label": "Precompiled"
            },
            {
                "address": "0xeeeeeeeeeeeeeeeeeeeeeeeeeeeeeeeeeeeeeeee",
                "label": "Ether"
            },
            {
                "address": "0xa9375923ddb69cd32955f536a351007415c02696",
                "label": "OwnersExchange"
            }
        ]
    },
    "trace": {
        "accountLabels": null,
        "dataMap": {
            "-1": {
                "invocation": {
                    "address": "0x60e7cb73b6bb7506cffd803e60fcec5f7275af0c",
                    "callData": "",
                    "decodedMethod": null,
                    "errorInfo": "",
                    "fromAddress": "",
                    "gasUsed": 0,
                    "id": -1,
                    "methodDecoded": false,
                    "operation": "",
                    "output": "",
                    "revert": false,
                    "revertMessage": "",
                    "selector": "",
                    "status": false,
                    "value": ""
                },
                "nodeType": 0
            },
            "0": {
                "invocation": {
                    "address": "0xa9375923ddb69cd32955f536a351007415c02696",
                    "callData": "0x0000000000000000000000000000000000000000000000000000000000000d90",
                    "decodedMethod": {
                        "callParams": [
                            {
                                "name": "_key",
                                "type": "uint256",
                                "value": "3,472"
                            }
                        ],
                        "constructorArguments": "",
                        "name": "removeBuyOrder",
                        "returnParams": [],
                        "signature": "removeBuyOrder(uint256)"
                    },
                    "errorInfo": "",
                    "fromAddress": "0x60e7cb73b6bb7506cffd803e60fcec5f7275af0c",
                    "gasUsed": 37985,
                    "id": 0,
                    "methodDecoded": true,
                    "operation": "CALL",
                    "output": "",
                    "revert": false,
                    "revertMessage": "",
                    "selector": "0xdef8ecf4",
                    "status": true,
                    "value": "0"
                },
                "nodeType": 0
            },
            "1": {
                "invocation": {
                    "address": "0x60e7cb73b6bb7506cffd803e60fcec5f7275af0c",
                    "callData": "0x",
                    "decodedMethod": null,
                    "errorInfo": "",
                    "fromAddress": "0xa9375923ddb69cd32955f536a351007415c02696",
                    "gasUsed": 0,
                    "id": 1,
                    "methodDecoded": false,
                    "operation": "CALL",
                    "output": "",
                    "revert": false,
                    "revertMessage": "",
                    "selector": "fallback",
                    "status": true,
                    "value": "6.02976"
                },
                "nodeType": 0
            },
            "2": {
                "event": {
                    "contract": "0xa9375923ddb69cd32955f536a351007415c02696",
                    "decodedLog": {
                        "name": "OrderRemoved",
                        "params": [
                            {
                                "name": "orderType",
                                "type": "uint8",
                                "value": "1"
                            },
                            {
                                "name": "sender",
                                "type": "address",
                                "value": "0x60e7cb73b6bb7506cffd803e60fcec5f7275af0c"
                            },
                            {
                                "name": "price",
                                "type": "uint256",
                                "value": "30,148,800,000,000,000,000"
                            },
                            {
                                "name": "amount",
                                "type": "uint256",
                                "value": "200,000,000,000,000,000"
                            }
                        ],
                        "signature": "OrderRemoved(uint8,address,uint256,uint256)"
                    },
                    "id": 2,
                    "logData": "0x000000000000000000000000000000000000000000000001a2660ddd644c000000000000000000000000000000000000000000000000000002c68af0bb140000",
                    "logDecoded": true,
                    "operation": "EVENT",
                    "revert": false,
                    "status": true,
                    "topics": [
                        "0xe2f99b27ce844edd7e242a1056afe8f0a4f5c28c45b300a13fec9aff87d82bff",
                        "0x0000000000000000000000000000000000000000000000000000000000000001",
                        "0x00000000000000000000000060e7cb73b6bb7506cffd803e60fcec5f7275af0c"
                    ]
                },
                "nodeType": 1
            }
        },
        "gasFlame": [
            {
                "children": [
                    {
                        "children": [
                            {
                                "children": [],
                                "depth": 0,
                                "name": "Initial Gas",
                                "value": 21216
                            },
                            {
                                "children": [
                                    {
                                        "children": [],
                                        "depth": 1,
                                        "name": "fallback",
                                        "value": 0
                                    }
                                ],
                                "depth": 0,
                                "name": "Executed Gas",
                                "value": 54753
                            }
                        ],
                        "depth": -1,
                        "name": "Actual Gas Used",
                        "value": 37985
                    },
                    {
                        "children": [],
                        "depth": -1,
                        "name": "Refunded Gas",
                        "value": 37984
                    }
                ],
                "depth": -2,
                "name": "Total Gas",
                "value": 75969
            }
        ],
        "isConfirmed": true,
        "mainTrace": [
            {
                "children": [
                    {
                        "children": [
                            {
                                "children": [],
                                "depth": 1,
                                "id": 1,
                                "order": 1
                            },
                            {
                                "children": [],
                                "depth": 1,
                                "id": 2,
                                "order": 2
                            }
                        ],
                        "depth": 0,
                        "id": 0,
                        "order": 0
                    }
                ],
                "depth": -1,
                "id": -1,
                "order": -1
            }
        ],
        "mainTraceNodeCount": 3,
        "parentIdMap": {
            "0": -1,
            "1": 0,
            "2": 0
        },
        "tidyTrace": [
            {
                "children": [
                    {
                        "children": [
                            {
                                "children": [],
                                "depth": 1,
                                "id": 1,
                                "order": 1
                            },
                            {
                                "children": [],
                                "depth": 1,
                                "id": 2,
                                "order": 2
                            }
                        ],
                        "depth": 0,
                        "id": 0,
                        "order": 0
                    }
                ],
                "depth": -1,
                "id": -1,
                "order": -1
            }
        ],
        "tidyTraceNodeCount": 3
    },
    "state_change": {
        "stateChanges": [
            {
                "address": "0xa9375923ddb69cd32955f536a351007415c02696",
                "erc": "",
                "slots": [
                    {
                        "current": "0x0000000000000000000000000000000000000000000000000000000000000000",
                        "key": "0x6e1540171b6c0c960b71a7020d9f60077f6af931a8bbf590da0223dacf75c820",
                        "prev": "0x0000000000000000000000000000000000000000000000000000000000000da7"
                    },
                    {
                        "current": "0x0000000000000000000000000000000000000000000000000000000000000000",
                        "key": "0x7f950f84be9d8d88feb3b4dcfe7704f975f04d19541005f24a064f4f9a82fe5d",
                        "prev": "0x000000000000000000000000000000000000000000000000000000000000003f"
                    },
                    {
                        "current": "0x0000000000000000000000000000000000000000000000000000000000000000",
                        "key": "0x7f950f84be9d8d88feb3b4dcfe7704f975f04d19541005f24a064f4f9a82fe5e",
                        "prev": "0x40000001c00000000000d13306eeb226000000000000000002c68af0bb140000"
                    },
                    {
                        "current": "0x000000000000000000000000000000000000000000000000000000000000003f",
                        "key": "0x227cc2a533dc0fff88a45739516f2dde7f070cf158ef505a28116ea9e66b0088",
                        "prev": "0x0000000000000000000000000000000000000000000000000000000000000072"
                    },
                    {
                        "current": "0x0000000000000000000000000000000000000000000000000000000000000da7",
                        "key": "0x6e1540171b6c0c960b71a7020d9f60077f6af931a8bbf590da0223dacf75c7ed",
                        "prev": "0x0000000000000000000000000000000000000000000000000000000000000d90"
                    },
                    {
                        "current": "0x0000000000000000000000000000000000000000000000000000000000000071",
                        "key": "0x0000000000000000000000000000000000000000000000000000000000000009",
                        "prev": "0x0000000000000000000000000000000000000000000000000000000000000072"
                    }
                ],
                "storageVariables": [
                    {
                        "name": "orderBook",
                        "type": "struct itmap.itmap",
                        "value": {
                            "fields": [
                                {
                                    "name": "data",
                                    "type": "mapping(uint256 => struct itmap.entry)",
                                    "value": {
                                        "pairs": [
                                            {
                                                "key": "3472",
                                                "value": {
                                                    "fields": [
                                                        {
                                                            "name": "keyIndex",
                                                            "type": "uint256",
                                                            "value": {
                                                                "current": "0",
                                                                "prev": "63",
                                                                "typeTag": 1
                                                            }
                                                        },
                                                        {
                                                            "name": "value",
                                                            "type": "uint256",
                                                            "value": {
                                                                "current": "0",
                                                                "prev": "28948022356508955523406444163599017663007453365389008944725740243909600346112",
                                                                "typeTag": 1
                                                            }
                                                        }
                                                    ],
                                                    "typeTag": 3
                                                }
                                            },
                                            {
                                                "key": "3495",
                                                "value": {
                                                    "fields": [
                                                        {
                                                            "name": "keyIndex",
                                                            "type": "uint256",
                                                            "value": {
                                                                "current": "63",
                                                                "prev": "114",
                                                                "typeTag": 1
                                                            }
                                                        }
                                                    ],
                                                    "typeTag": 3
                                                }
                                            }
                                        ],
                                        "typeTag": 4
                                    }
                                },
                                {
                                    "name": "keys",
                                    "type": "uint256[]",
                                    "value": {
                                        "elemType": "uint256",
                                        "elems": [
                                            {
                                                "index": 62,
                                                "value": {
                                                    "current": "3495",
                                                    "prev": "3472",
                                                    "typeTag": 1
                                                }
                                            }
                                        ],
                                        "typeTag": 2
                                    }
                                }
                            ],
                            "typeTag": 3
                        }
                    }
                ]
            }
        ]
    }
}