{
    "balance_change": {
        "balanceChanges": [
            {
                "account": "0xe93381fb4c4f14bda253907b18fad305d799241a",
                "assets": [
                    {
                        "address": "0x25f8087ead173b73d6e8b84329989a8eea16cf73",
                        "amount": "3,386.065",
                        "iconUrl": "",
                        "isERC1155": false,
                        "isERC721": false,
                        "sign": false,
                        "value": "20334.42643"
                    }
                ]
            },
            {
                "account": "0x0a60e164aa897ef76779164dff6e36161980c6fb",
                "assets": [
                    {
                        "address": "0x25f8087ead173b73d6e8b84329989a8eea16cf73",
                        "amount": "3,386.065",
                        "iconUrl": "",
                        "isERC1155": false,
                        "isERC721": false,
                        "sign": true,
                        "value": "20334.42643"
                    }
                ]
            }
        ]
    },
    "profile": {
        "basic_info": {
            "baseFee": "89.240275227",
            "blockNumber": 13758587,
            "callData": "0xa9059cbb0000000000000000000000000a60e164aa897ef76779164dff6e36161980c6fb0000000000000000000000000000000000000000000000b78f17715bd70e8000",
            "debugEnable": true,
            "errorInfo": "",
            "eventCount": 1,
            "feeRecipient": "0x45a36a8e118c37e4c47ef4ab827a7c9e579e11e2",
            "formatValue": "0",
            "gasLimit": 62387,
            "gasPrice": "103",
            "gasUsed": 34623,
            "intTxnCount": 0,
            "internalRevert": false,
            "internalRevertMessage": "",
            "isContractCreation": false,
            "isFlashloan": false,
            "maxFee": "",
            "nonce": 2486611,
            "overwritedBlockNumber": -1,
            "priorityFee": "",
            "receiver": "0x25f8087ead173b73d6e8b84329989a8eea16cf73",
            "revertMessage": "",
            "sender": "0xe93381fb4c4f14bda253907b18fad305d799241a",
            "simulationEnable": true,
            "sourceTxnHash": "0xdd6bc2ce10a505d9dc2e10da52cfa9e8a6106a9fdf4fed8c96050eb995087928",
            "status": true,
            "timestamp": "2021-12-07T12:44:33Z",
            "transactionFee": "0.003566169",
            "txnHash": "0xdd6bc2ce10a505d9dc2e10da52cfa9e8a6106a9fdf4fed8c96050eb995087928",
            "txnIndex": 15,
            "type": 0,
            "value": "0"
        },
        "fund_flow": [
            {
                "amount": "3,386.065",
                "from": "0xe93381fb4c4f14bda253907b18fad305d799241a",
                "id": 1,
                "isERC1155": false,
                "isERC721": false,
                "isReverted": false,
                "order": 1,
                "to": "0x0a60e164aa897ef76779164dff6e36161980c6fb",
                "token": "0x25f8087ead173b73d6e8b84329989a8eea16cf73"
            }
        ],
        "token_infos": [
            {
                "address": "0x25f8087ead173b73d6e8b84329989a8eea16cf73",
                "decimals": 18
            },
            {
                "address": "0xc02aaa39b223fe8d0a0e5c4f27ead9083c756cc2",
                "decimals": 18
            },
            {
                "address": "0xeeeeeeeeeeeeeeeeeeeeeeeeeeeeeeeeeeeeeeee",
                "decimals": 18
            }
        ]
    },
    "address_label": {
        "labels": [
            {
                "address": "0x0000000000000000000000000000000000000004",
                "label": "Precompiled"
            },
            {
                "address": "0xeeeeeeeeeeeeeeeeeeeeeeeeeeeeeeeeeeeeeeee",
                "label": "Ether"
            },
            {
                "address": "0x25f8087ead173b73d6e8b84329989a8eea16cf73",
                "label": "Yield Guild Games: YGG Token"
            },
            {
                "address": "0xe93381fb4c4f14bda253907b18fad305d799241a",
                "label": "HTX 10"
            },
            {
                "address": "0x0000000000000000000000000000000000000001",
                "label": "Precompiled"
            },
            {
                "address": "0x0000000000000000000000000000000000000002",
                "label": "Precompiled"
            },
            {
                "address": "0x0000000000000000000000000000000000000003",
                "label": "Precompiled"
            }
        ]
    },
    "trace": {
        "accountLabels": null,
        "dataMap": {
            "-1": {
                "invocation": {
                    "address": "0xe93381fb4c4f14bda253907b18fad305d799241a",
                    "callData": "",
                    "decodedMethod": null,
                    "errorInfo": "",
                    "fromAddress": "",
                    "gasUsed": 0,
                    "id": -1,
                    "methodDecoded": false,
                    "operation": "",
                    "output": "",
                    "revert": false,
                    "revertMessage": "",
                    "selector": "",
                    "status": false,
                    "value": ""
                },
                "nodeType": 0
            },
            "0": {
                "invocation": {
                    "address": "0x25f8087ead173b73d6e8b84329989a8eea16cf73",
                    "callData": "0x0000000000000000000000000a60e164aa897ef76779164dff6e36161980c6fb0000000000000000000000000000000000000000000000b78f17715bd70e8000",
                    "decodedMethod": {
                        "callParams": [
                            {
                                "name": "recipient",
                                "type": "address",
                                "value": "0x0a60e164aa897ef76779164dff6e36161980c6fb"
                            },
                            {
                                "decimalAvailable": true,
                                "name": "amount",
                                "type": "uint256",
                                "value": "3,386,065,000,000,000,000,000"
                            }
                        ],
                        "constructorArguments": "",
                        "name": "transfer",
                        "returnParams": [
                            {
                                "name": "",
                                "type": "bool",
                                "value": true
                            }
                        ],
                        "signature": "transfer(address,uint256)"
                    },
                    "errorInfo": "",
                    "fromAddress": "0xe93381fb4c4f14bda253907b18fad305d799241a",
                    "gasUsed": 34623,
                    "id": 0,
                    "methodDecoded": true,
                    "operation": "CALL",
                    "output": "0x0000000000000000000000000000000000000000000000000000000000000001",
                    "revert": false,
                    "revertMessage": "",
                    "selector": "0xa9059cbb",
                    "status": true,
                    "value": "0"
                },
                "nodeType": 0
            },
            "1": {
                "event": {
                    "contract": "0x25f8087ead173b73d6e8b84329989a8eea16cf73",
                    "decodedLog": {
                        "name": "Transfer",
                        "params": [
                            {
                                "name": "from",
                                "type": "address",
                                "value": "0xe93381fb4c4f14bda253907b18fad305d799241a"
                            },
                            {
                                "name": "to",
                                "type": "address",
                                "value": "0x0a60e164aa897ef76779164dff6e36161980c6fb"
                            },
                            {
                                "decimalAvailable": true,
                                "name": "value",
                                "type": "uint256",
                                "value": "3,386,065,000,000,000,000,000"
                            }
                        ],
                        "signature": "Transfer(address,address,uint256)"
                    },
                    "id": 1,
                    "logData": "0x0000000000000000000000000000000000000000000000b78f17715bd70e8000",
                    "logDecoded": true,
                    "operation": "EVENT",
                    "revert": false,
                    "status": true,
                    "topics": [
                        "0xddf252ad1be2c89b69c2b068fc378daa952ba7f163c4a11628f55a4df523b3ef",
                        "0x000000000000000000000000e93381fb4c4f14bda253907b18fad305d799241a",
                        "0x0000000000000000000000000a60e164aa897ef76779164dff6e36161980c6fb"
                    ]
                },
                "nodeType": 1
            }
        },
        "gasFlame": [
            {
                "children": [
                    {
                        "children": [
                            {
                                "children": [],
                                "depth": 0,
                                "name": "Initial Gas",
                                "value": 21656
                            },
                            {
                                "children": [],
                                "depth": 0,
                                "name": "Executed Gas",
                                "value": 12967
                            }
                        ],
                        "depth": -1,
                        "name": "Actual Gas Used",
                        "value": 34623
                    },
                    {
                        "children": [],
                        "depth": -1,
                        "name": "Refunded Gas",
                        "value": 0
                    }
                ],
                "depth": -2,
                "name": "Total Gas",
                "value": 34623
            }
        ],
        "isConfirmed": true,
        "mainTrace": [
            {
                "children": [
                    {
                        "children": [
                            {
                                "children": [],
                                "depth": 1,
                                "id": 1,
                                "order": 1
                            }
                        ],
                        "depth": 0,
                        "id": 0,
                        "order": 0
                    }
                ],
                "depth": -1,
                "id": -1,
                "order": -1
            }
        ],
        "mainTraceNodeCount": 2,
        "parentIdMap": {
            "0": -1,
            "1": 0
        },
        "tidyTrace": [
            {
                "children": [
                    {
                        "children": [
                            {
                                "children": [],
                                "depth": 1,
                                "id": 1,
                                "order": 1
                            }
                        ],
                        "depth": 0,
                        "id": 0,
                        "order": 0
                    }
                ],
                "depth": -1,
                "id": -1,
                "order": -1
            }
        ],
        "tidyTraceNodeCount": 2
    },
    "state_change": {
        "stateChanges": [
            {
                "address": "0x25f8087ead173b73d6e8b84329989a8eea16cf73",
                "erc": "ERC-20",
                "slots": [
                    {
                        "current": "0x000000000000000000000000000000000000000000024151c6fc3f48ba624e00",
                        "key": "0x553db2ad166707e74afbfea2ccd0e64900a3cbbbed2064d16f9923b4b8ba4be1",
                        "prev": "0x0000000000000000000000000000000000000000000242095613b0a49170ce00"
                    },
                    {
                        "current": "0x00000000000000000000000000000000000000000000298e63cd7f0dee4d8000",
                        "key": "0x840f580c5554cb7b82e148874e812564cc37cf8b5102a226a3c74689cf7f7d8f",
                        "prev": "0x0000000000000000000000000000000000000000000028d6d4b60db2173f0000"
                    }
                ],
                "storageVariables": [
                    {
                        "name": "_balances",
                        "type": "mapping(address => uint256)",
                        "value": {
                            "pairs": [
                                {
                                    "key": "0x0a60e164aa897ef76779164dff6e36161980c6fb",
                                    "value": {
                                        "current": "196243655000000000000000",
                                        "prev": "192857590000000000000000",
                                        "typeTag": 1
                                    }
                                },
                                {
                                    "key": "0xe93381fb4c4f14bda253907b18fad305d799241a",
                                    "value": {
                                        "current": "2726313985290651000000000",
                                        "prev": "2729700050290651000000000",
                                        "typeTag": 1
                                    }
                                }
                            ],
                            "typeTag": 4
                        }
                    }
                ]
            }
        ]
    }
}