{
    "balance_change": {
        "balanceChanges": [
            {
                "account": "0x46cdf57e58c3c260c0fb6450c92b564e21c650ef",
                "assets": [
                    {
                        "address": "0x7fc66500c84a76ad7e9c93437bfc5ac33e2ddae9",
                        "amount": "335.94734074",
                        "iconUrl": "https://assets.blocksec.com/icon/62f48bc5d1faeb48ff872297b2d01aca7a06f6613f30d65440b9b7703425b7e3.png",
                        "isERC1155": false,
                        "isERC721": false,
                        "sign": false,
                        "value": "46874.73244787100038"
                    }
                ]
            },
            {
                "account": "0x6cc5f688a315f3dc28a7781717a9a798a59fda7b",
                "assets": [
                    {
                        "address": "0x7fc66500c84a76ad7e9c93437bfc5ac33e2ddae9",
                        "amount": "335.94734074",
                        "iconUrl": "https://assets.blocksec.com/icon/62f48bc5d1faeb48ff872297b2d01aca7a06f6613f30d65440b9b7703425b7e3.png",
                        "isERC1155": false,
                        "isERC721": false,
                        "sign": true,
                        "value": "46874.73244787100038"
                    }
                ]
            }
        ]
    },
    "profile": {
        "basic_info": {
            "baseFee": "4.346909432",
            "blockNumber": 20593074,
            "callData": "0xa9059cbb0000000000000000000000006cc5f688a315f3dc28a7781717a9a798a59fda7b0000000000000000000000000000000000000000000000123634b67a4cd0a800",
            "debugEnable": true,
            "errorInfo": "",
            "eventCount": 1,
            "feeRecipient": "0x1f9090aae28b8a3dceadf281b0f12828e676c326",
            "formatValue": "0",
            "gasLimit": 47700,
            "gasPrice": "6.346909432",
            "gasUsed": 44308,
            "intTxnCount": 1,
            "internalRevert": false,
            "internalRevertMessage": "",
            "isContractCreation": false,
            "isFlashloan": false,
            "maxFee": "7",
            "nonce": 10171,
            "overwritedBlockNumber": -1,
            "priorityFee": "2",
            "receiver": "0x7fc66500c84a76ad7e9c93437bfc5ac33e2ddae9",
            "revertMessage": "",
            "sender": "0x46cdf57e58c3c260c0fb6450c92b564e21c650ef",
            "simulationEnable": true,
            "sourceTxnHash": "0xdec164502214664045979313240b9a7987f7d65404dbfbca83dab945585bdcee",
            "status": true,
            "timestamp": "2024-08-23T18:24:59Z",
            "transactionFee": "0.000281218863113056",
            "txnHash": "0xdec164502214664045979313240b9a7987f7d65404dbfbca83dab945585bdcee",
            "txnIndex": 20,
            "type": 2,
            "value": "0"
        },
        "fund_flow": [
            {
                "amount": "335.94734074",
                "from": "0x46cdf57e58c3c260c0fb6450c92b564e21c650ef",
                "id": 1,
                "isERC1155": false,
                "isERC721": false,
                "isReverted": false,
                "order": 1,
                "to": "0x6cc5f688a315f3dc28a7781717a9a798a59fda7b",
                "token": "0x7fc66500c84a76ad7e9c93437bfc5ac33e2ddae9"
            }
        ],
        "token_infos": [
            {
                "address": "0x7fc66500c84a76ad7e9c93437bfc5ac33e2ddae9",
                "decimals": 18
            },
            {
                "address": "0xc02aaa39b223fe8d0a0e5c4f27ead9083c756cc2",
                "decimals": 18
            },
            {
                "address": "0xeeeeeeeeeeeeeeeeeeeeeeeeeeeeeeeeeeeeeeee",
                "decimals": 18
            }
        ]
    },
    "address_label": {
        "labels": [
            {
                "address": "0x6cc5f688a315f3dc28a7781717a9a798a59fda7b",
                "label": "OKX"
            },
            {
                "address": "0x0000000000000000000000000000000000000001",
                "label": "Precompiled"
            },
            {
                "address": "0x0000000000000000000000000000000000000002",
                "label": "Precompiled"
            },
            {
                "address": "0x0000000000000000000000000000000000000003",
                "label": "Precompiled"
            },
            {
                "address": "0x0000000000000000000000000000000000000004",
                "label": "Precompiled"
            },
            {
                "address": "0xeeeeeeeeeeeeeeeeeeeeeeeeeeeeeeeeeeeeeeee",
                "label": "Ether"
            },
            {
                "address": "0x46cdf57e58c3c260c0fb6450c92b564e21c650ef",
                "label": "OKEX"
            },
            {
                "address": "0x7fc66500c84a76ad7e9c93437bfc5ac33e2ddae9",
                "label": "Aave: AAVE Token"
            },
            {
                "address": "0x5d4aa78b08bc7c530e21bf7447988b1be7991322",
                "label": "AaveTokenV3"
            }
        ]
    },
    "trace": {
        "accountLabels": null,
        "dataMap": {
            "-1": {
                "invocation": {
                    "address": "0x46cdf57e58c3c260c0fb6450c92b564e21c650ef",
                    "callData": "",
                    "decodedMethod": null,
                    "errorInfo": "",
                    "fromAddress": "",
                    "gasUsed": 0,
                    "id": -1,
                    "methodDecoded": false,
                    "operation": "",
                    "output": "",
                    "revert": false,
                    "revertMessage": "",
                    "selector": "",
                    "status": false,
                    "value": ""
                },
                "nodeType": 0
            },
            "0": {
                "invocation": {
                    "address": "0x7fc66500c84a76ad7e9c93437bfc5ac33e2ddae9",
                    "callData": "0x0000000000000000000000006cc5f688a315f3dc28a7781717a9a798a59fda7b0000000000000000000000000000000000000000000000123634b67a4cd0a800",
                    "decodedMethod": {
                        "callParams": [
                            {
                                "name": "to",
                                "type": "address",
                                "value": "0x6cc5f688a315f3dc28a7781717a9a798a59fda7b"
                            },
                            {
                                "decimalAvailable": true,
                                "name": "amount",
                                "type": "uint256",
                                "value": "335,947,340,740,000,000,000"
                            }
                        ],
                        "constructorArguments": "",
                        "name": "transfer",
                        "returnParams": [
                            {
                                "name": "",
                                "type": "bool",
                                "value": true
                            }
                        ],
                        "signature": "transfer(address,uint256)"
                    },
                    "errorInfo": "",
                    "fromAddress": "0x46cdf57e58c3c260c0fb6450c92b564e21c650ef",
                    "gasUsed": 44308,
                    "id": 0,
                    "methodDecoded": true,
                    "operation": "CALL",
                    "output": "0x0000000000000000000000000000000000000000000000000000000000000001",
                    "revert": false,
                    "revertMessage": "",
                    "selector": "0xa9059cbb",
                    "status": true,
                    "value": "0"
                },
                "nodeType": 0
            },
            "1": {
                "invocation": {
                    "address": "0x5d4aa78b08bc7c530e21bf7447988b1be7991322",
                    "callData": "0x0000000000000000000000006cc5f688a315f3dc28a7781717a9a798a59fda7b0000000000000000000000000000000000000000000000123634b67a4cd0a800",
                    "decodedMethod": {
                        "callParams": [
                            {
                                "name": "to",
                                "type": "address",
                                "value": "0x6cc5f688a315f3dc28a7781717a9a798a59fda7b"
                            },
                            {
                                "decimalAvailable": true,
                                "name": "amount",
                                "type": "uint256",
                                "value": "335,947,340,740,000,000,000"
                            }
                        ],
                        "constructorArguments": "",
                        "name": "transfer",
                        "returnParams": [
                            {
                                "name": "",
                                "type": "bool",
                                "value": true
                            }
                        ],
                        "signature": "transfer(address,uint256)"
                    },
                    "errorInfo": "",
                    "fromAddress": "0x7fc66500c84a76ad7e9c93437bfc5ac33e2ddae9",
                    "gasUsed": 15382,
                    "id": 1,
                    "methodDecoded": true,
                    "operation": "DELEGATECALL",
                    "output": "0x0000000000000000000000000000000000000000000000000000000000000001",
                    "revert": false,
                    "revertMessage": "",
                    "selector": "0xa9059cbb",
                    "status": true,
                    "value": "0"
                },
                "nodeType": 0
            },
            "2": {
                "event": {
                    "contract": "0x7fc66500c84a76ad7e9c93437bfc5ac33e2ddae9",
                    "decodedLog": {
                        "name": "Transfer",
                        "params": [
                            {
                                "name": "from",
                                "type": "address",
                                "value": "0x46cdf57e58c3c260c0fb6450c92b564e21c650ef"
                            },
                            {
                                "name": "to",
                                "type": "address",
                                "value": "0x6cc5f688a315f3dc28a7781717a9a798a59fda7b"
                            },
                            {
                                "decimalAvailable": true,
                                "name": "value",
                                "type": "uint256",
                                "value": "335,947,340,740,000,000,000"
                            }
                        ],
                        "signature": "Transfer(address,address,uint256)"
                    },
                    "id": 2,
                    "logData": "0x0000000000000000000000000000000000000000000000123634b67a4cd0a800",
                    "logDecoded": true,
                    "operation": "EVENT",
                    "revert": false,
                    "status": true,
                    "topics": [
                        "0xddf252ad1be2c89b69c2b068fc378daa952ba7f163c4a11628f55a4df523b3ef",
                        "0x00000000000000000000000046cdf57e58c3c260c0fb6450c92b564e21c650ef",
                        "0x0000000000000000000000006cc5f688a315f3dc28a7781717a9a798a59fda7b"
                    ]
                },
                "nodeType": 1
            }
        },
        "gasFlame": [
            {
                "children": [
                    {
                        "children": [
                            {
                                "children": [],
                                "depth": 0,
                                "name": "Initial Gas",
                                "value": 21656
                            },
                            {
                                "children": [
                                    {
                                        "children": [],
                                        "depth": 1,
                                        "name": "transfer",
                                        "value": 15382
                                    }
                                ],
                                "depth": 0,
                                "name": "Executed Gas",
                                "value": 22652
                            }
                        ],
                        "depth": -1,
                        "name": "Actual Gas Used",
                        "value": 44308
                    },
                    {
                        "children": [],
                        "depth": -1,
                        "name": "Refunded Gas",
                        "value": 0
                    }
                ],
                "depth": -2,
                "name": "Total Gas",
                "value": 44308
            }
        ],
        "isConfirmed": true,
        "mainTrace": [
            {
                "children": [
                    {
                        "children": [
                            {
                                "children": [
                                    {
                                        "children": [],
                                        "depth": 2,
                                        "id": 2,
                                        "order": 2
                                    }
                                ],
                                "depth": 1,
                                "id": 1,
                                "order": 1
                            }
                        ],
                        "depth": 0,
                        "id": 0,
                        "order": 0
                    }
                ],
                "depth": -1,
                "id": -1,
                "order": -1
            }
        ],
        "mainTraceNodeCount": 3,
        "parentIdMap": {
            "0": -1,
            "1": 0,
            "2": 1
        },
        "tidyTrace": [
            {
                "children": [
                    {
                        "children": [
                            {
                                "children": [
                                    {
                                        "children": [],
                                        "depth": 2,
                                        "id": 2,
                                        "order": 2
                                    }
                                ],
                                "depth": 1,
                                "id": 1,
                                "order": 1
                            }
                        ],
                        "depth": 0,
                        "id": 0,
                        "order": 0
                    }
                ],
                "depth": -1,
                "id": -1,
                "order": -1
            }
        ],
        "tidyTraceNodeCount": 3
    },
    "state_change": {
        "stateChanges": [
            {
                "address": "0x7fc66500c84a76ad7e9c93437bfc5ac33e2ddae9",
                "erc": "ERC-20",
                "slots": [
                    {
                        "current": "0x0000000000000000000000000000000000000000000000000000000000000001",
                        "key": "0x67a836c690c80955a2ffd63969bd673fef3385000425d6779dc52e0332212774",
                        "prev": "0x0000000000000000000000000000000000000000000000123634b67a4cd0a801"
                    },
                    {
                        "current": "0x0000000000000000000000000000000000000000000020abe9101e31682194eb",
                        "key": "0xf320692c47514b5ff69503836be0506f1667cd3f5c074c801b2305e178ec6842",
                        "prev": "0x000000000000000000000000000000000000000000002099b2db67b71b50eceb"
                    }
                ],
                "storageVariables": [
                    {
                        "name": "_balances",
                        "type": "mapping(address => struct BaseAaveToken.DelegationAwareBalance)",
                        "value": {
                            "pairs": [
                                {
                                    "key": "0x46cdf57e58c3c260c0fb6450c92b564e21c650ef",
                                    "value": {
                                        "fields": [
                                            {
                                                "name": "balance",
                                                "type": "uint104",
                                                "value": {
                                                    "current": "1",
                                                    "prev": "335947340740000000001",
                                                    "typeTag": 1
                                                }
                                            },
                                            {
                                                "name": "delegatedPropositionBalance",
                                                "type": "uint72",
                                                "value": {
                                                    "current": "0",
                                                    "prev": "0",
                                                    "typeTag": 1
                                                }
                                            },
                                            {
                                                "name": "delegatedVotingBalance",
                                                "type": "uint72",
                                                "value": {
                                                    "current": "0",
                                                    "prev": "0",
                                                    "typeTag": 1
                                                }
                                            },
                                            {
                                                "name": "delegationMode",
                                                "type": "enum DelegationMode",
                                                "value": {
                                                    "current": "0",
                                                    "prev": "0",
                                                    "typeTag": 1
                                                }
                                            }
                                        ],
                                        "typeTag": 3
                                    }
                                },
                                {
                                    "key": "0x6cc5f688a315f3dc28a7781717a9a798a59fda7b",
                                    "value": {
                                        "fields": [
                                            {
                                                "name": "balance",
                                                "type": "uint104",
                                                "value": {
                                                    "current": "154286914644640994006251",
                                                    "prev": "153950967303900994006251",
                                                    "typeTag": 1
                                                }
                                            },
                                            {
                                                "name": "delegatedPropositionBalance",
                                                "type": "uint72",
                                                "value": {
                                                    "current": "0",
                                                    "prev": "0",
                                                    "typeTag": 1
                                                }
                                            },
                                            {
                                                "name": "delegatedVotingBalance",
                                                "type": "uint72",
                                                "value": {
                                                    "current": "0",
                                                    "prev": "0",
                                                    "typeTag": 1
                                                }
                                            },
                                            {
                                                "name": "delegationMode",
                                                "type": "enum DelegationMode",
                                                "value": {
                                                    "current": "0",
                                                    "prev": "0",
                                                    "typeTag": 1
                                                }
                                            }
                                        ],
                                        "typeTag": 3
                                    }
                                }
                            ],
                            "typeTag": 4
                        }
                    }
                ]
            }
        ]
    }
}