{
    "balance_change": {
        "balanceChanges": [
            {
                "account": "0x14633ea8d5d75f895dfb9d15fe82d0042e7ee042",
                "assets": [
                    {
                        "address": "0xdac17f958d2ee523a2206206994597c13d831ec7",
                        "amount": "3,504.5256",
                        "iconUrl": "https://assets.blocksec.com/icon/fcea71f3193ce895be44bfdf941f7e4c9381dd587f273c2d1a27f1263d84e4ea.png",
                        "isERC1155": false,
                        "isERC721": false,
                        "sign": false,
                        "value": "3503.8246948800000773"
                    }
                ]
            },
            {
                "account": "0x94b9ceee5fb7c073249874c6dbbdb3e62f499956",
                "assets": [
                    {
                        "address": "0xdac17f958d2ee523a2206206994597c13d831ec7",
                        "amount": "3,504.5256",
                        "iconUrl": "https://assets.blocksec.com/icon/fcea71f3193ce895be44bfdf941f7e4c9381dd587f273c2d1a27f1263d84e4ea.png",
                        "isERC1155": false,
                        "isERC721": false,
                        "sign": true,
                        "value": "3503.8246948800000773"
                    }
                ]
            }
        ]
    },
    "profile": {
        "basic_info": {
            "baseFee": "13.161236172",
            "blockNumber": 19727055,
            "callData": "0x0dcd7a6c00000000000000000000000094b9ceee5fb7c073249874c6dbbdb3e62f49995600000000000000000000000000000000000000000000000000000000d0e2d120000000000000000000000000dac17f958d2ee523a2206206994597c13d831ec70000000000000000000000000000000000000000000000000000000066328b7a0000000000000000000000000000000000000000000000000000000000017a2400000000000000000000000000000000000000000000000000000000000000c00000000000000000000000000000000000000000000000000000000000000041dbb407b5f2f0008b71b163e672b66fba7591a58681d6434540cc690582f59cd127ba5116979d82ea4a6a360f4c54b11e7c78f890ff5de406a7ea7ed61e0b8b641b00000000000000000000000000000000000000000000000000000000000000",
            "debugEnable": true,
            "errorInfo": "",
            "eventCount": 1,
            "feeRecipient": "0x388c818ca8b9251b393131c08a736a67ccb19297",
            "formatValue": "0",
            "gasLimit": 216968,
            "gasPrice": "14.311236172",
            "gasUsed": 115925,
            "intTxnCount": 2,
            "internalRevert": false,
            "internalRevertMessage": "",
            "isContractCreation": false,
            "isFlashloan": false,
            "maxFee": "25.014719364",
            "nonce": 187768,
            "overwritedBlockNumber": -1,
            "priorityFee": "1.15",
            "receiver": "0x14633ea8d5d75f895dfb9d15fe82d0042e7ee042",
            "revertMessage": "",
            "sender": "0x088876687ac7c4c60cbc0690a4bfae0971964162",
            "simulationEnable": true,
            "sourceTxnHash": "0xde7d99788ff1617a42c45a9ceac7479f6ca5ccff49d857a144fc2217e6b0167c",
            "status": true,
            "timestamp": "2024-04-24T18:35:59Z",
            "transactionFee": "0.0016590300532391",
            "txnHash": "0xde7d99788ff1617a42c45a9ceac7479f6ca5ccff49d857a144fc2217e6b0167c",
            "txnIndex": 33,
            "type": 2,
            "value": "0"
        },
        "fund_flow": [
            {
                "amount": "3,504.5256",
                "from": "0x14633ea8d5d75f895dfb9d15fe82d0042e7ee042",
                "id": 1,
                "isERC1155": false,
                "isERC721": false,
                "isReverted": false,
                "order": 1,
                "to": "0x94b9ceee5fb7c073249874c6dbbdb3e62f499956",
                "token": "0xdac17f958d2ee523a2206206994597c13d831ec7"
            }
        ],
        "token_infos": [
            {
                "address": "0xc02aaa39b223fe8d0a0e5c4f27ead9083c756cc2",
                "decimals": 18
            },
            {
                "address": "0xdac17f958d2ee523a2206206994597c13d831ec7",
                "decimals": 6
            },
            {
                "address": "0xeeeeeeeeeeeeeeeeeeeeeeeeeeeeeeeeeeeeeeee",
                "decimals": 18
            }
        ]
    },
    "address_label": {
        "labels": [
            {
                "address": "0x388c818ca8b9251b393131c08a736a67ccb19297",
                "label": "LidoExecutionLayerRewardsVault"
            },
            {
                "address": "0x0000000000000000000000000000000000000001",
                "label": "Precompiled"
            },
            {
                "address": "0x0000000000000000000000000000000000000002",
                "label": "Precompiled"
            },
            {
                "address": "0x0000000000000000000000000000000000000003",
                "label": "Precompiled"
            },
            {
                "address": "0x0000000000000000000000000000000000000004",
                "label": "Precompiled"
            },
            {
                "address": "0xeeeeeeeeeeeeeeeeeeeeeeeeeeeeeeeeeeeeeeee",
                "label": "Ether"
            },
            {
                "address": "0xdac17f958d2ee523a2206206994597c13d831ec7",
                "label": "Tether: USDT Stablecoin"
            }
        ]
    },
    "trace": {
        "accountLabels": null,
        "dataMap": {
            "-1": {
                "invocation": {
                    "address": "0x088876687ac7c4c60cbc0690a4bfae0971964162",
                    "callData": "",
                    "decodedMethod": null,
                    "errorInfo": "",
                    "fromAddress": "",
                    "gasUsed": 0,
                    "id": -1,
                    "methodDecoded": false,
                    "operation": "",
                    "output": "",
                    "revert": false,
                    "revertMessage": "",
                    "selector": "",
                    "status": false,
                    "value": ""
                },
                "nodeType": 0
            },
            "0": {
                "invocation": {
                    "address": "0x14633ea8d5d75f895dfb9d15fe82d0042e7ee042",
                    "callData": "0x00000000000000000000000094b9ceee5fb7c073249874c6dbbdb3e62f49995600000000000000000000000000000000000000000000000000000000d0e2d120000000000000000000000000dac17f958d2ee523a2206206994597c13d831ec70000000000000000000000000000000000000000000000000000000066328b7a0000000000000000000000000000000000000000000000000000000000017a2400000000000000000000000000000000000000000000000000000000000000c00000000000000000000000000000000000000000000000000000000000000041dbb407b5f2f0008b71b163e672b66fba7591a58681d6434540cc690582f59cd127ba5116979d82ea4a6a360f4c54b11e7c78f890ff5de406a7ea7ed61e0b8b641b00000000000000000000000000000000000000000000000000000000000000",
                    "decodedMethod": {
                        "callParams": [
                            {
                                "name": "toAddress",
                                "type": "address",
                                "value": "0x94b9ceee5fb7c073249874c6dbbdb3e62f499956"
                            },
                            {
                                "name": "value",
                                "type": "uint256",
                                "value": "3,504,525,600"
                            },
                            {
                                "name": "tokenContractAddress",
                                "type": "address",
                                "value": "0xdac17f958d2ee523a2206206994597c13d831ec7"
                            },
                            {
                                "name": "expireTime",
                                "type": "uint256",
                                "value": "1,714,588,538"
                            },
                            {
                                "name": "sequenceId",
                                "type": "uint256",
                                "value": "96,804"
                            },
                            {
                                "name": "signature",
                                "type": "bytes",
                                "value": "0xdbb407b5f2f0008b71b163e672b66fba7591a58681d6434540cc690582f59cd127ba5116979d82ea4a6a360f4c54b11e7c78f890ff5de406a7ea7ed61e0b8b641b"
                            }
                        ],
                        "constructorArguments": "",
                        "name": "sendMultiSigToken",
                        "returnParams": [],
                        "signature": "sendMultiSigToken(address,uint256,address,uint256,uint256,bytes)"
                    },
                    "errorInfo": "",
                    "fromAddress": "0x088876687ac7c4c60cbc0690a4bfae0971964162",
                    "gasUsed": 115925,
                    "id": 0,
                    "methodDecoded": true,
                    "operation": "CALL",
                    "output": "",
                    "revert": false,
                    "revertMessage": "",
                    "selector": "0x0dcd7a6c",
                    "status": true,
                    "value": "0"
                },
                "nodeType": 0
            },
            "1": {
                "invocation": {
                    "address": "0x0000000000000000000000000000000000000001",
                    "callData": "0x5aa05bc4b41ba4b507af7864e15c1129cec31940ad55f878b48da041000000000000000000000000000000000000000000000000000000000000001bdbb407b5f2f0008b71b163e672b66fba7591a58681d6434540cc690582f59cd127ba5116979d82ea4a6a360f4c54b11e7c78f890ff5de406a7ea7ed61e0b8b64",
                    "decodedMethod": {
                        "callParams": [
                            {
                                "name": "hash",
                                "type": "bytes32",
                                "value": "0x95daf4705aa05bc4b41ba4b507af7864e15c1129cec31940ad55f878b48da041"
                            },
                            {
                                "name": "v",
                                "type": "uint256",
                                "value": "27"
                            },
                            {
                                "name": "r",
                                "type": "bytes32",
                                "value": "0xdbb407b5f2f0008b71b163e672b66fba7591a58681d6434540cc690582f59cd1"
                            },
                            {
                                "name": "s",
                                "type": "bytes32",
                                "value": "0x27ba5116979d82ea4a6a360f4c54b11e7c78f890ff5de406a7ea7ed61e0b8b64"
                            }
                        ],
                        "constructorArguments": "",
                        "name": "ecrecover",
                        "returnParams": [
                            {
                                "name": "",
                                "type": "address",
                                "value": "0x915da8947f4c8b0b418240f2f98fdff76c70d93e"
                            }
                        ],
                        "signature": "ecrecover(bytes32,uint256,bytes32,bytes32)"
                    },
                    "errorInfo": "",
                    "fromAddress": "0x14633ea8d5d75f895dfb9d15fe82d0042e7ee042",
                    "gasUsed": 3000,
                    "id": 1,
                    "methodDecoded": true,
                    "operation": "CALL",
                    "output": "0x000000000000000000000000915da8947f4c8b0b418240f2f98fdff76c70d93e",
                    "revert": false,
                    "revertMessage": "",
                    "selector": "0x95daf470",
                    "status": true,
                    "value": "0"
                },
                "nodeType": 0
            },
            "2": {
                "invocation": {
                    "address": "0xdac17f958d2ee523a2206206994597c13d831ec7",
                    "callData": "0x00000000000000000000000094b9ceee5fb7c073249874c6dbbdb3e62f49995600000000000000000000000000000000000000000000000000000000d0e2d120",
                    "decodedMethod": {
                        "callParams": [
                            {
                                "name": "_to",
                                "type": "address",
                                "value": "0x94b9ceee5fb7c073249874c6dbbdb3e62f499956"
                            },
                            {
                                "decimalAvailable": true,
                                "name": "_value",
                                "type": "uint256",
                                "value": "3,504,525,600"
                            }
                        ],
                        "constructorArguments": "",
                        "name": "transfer",
                        "returnParams": [],
                        "signature": "transfer(address,uint256)"
                    },
                    "errorInfo": "",
                    "fromAddress": "0x14633ea8d5d75f895dfb9d15fe82d0042e7ee042",
                    "gasUsed": 41601,
                    "id": 2,
                    "methodDecoded": true,
                    "operation": "CALL",
                    "output": "",
                    "revert": false,
                    "revertMessage": "",
                    "selector": "0xa9059cbb",
                    "status": true,
                    "value": "0"
                },
                "nodeType": 0
            },
            "3": {
                "event": {
                    "contract": "0xdac17f958d2ee523a2206206994597c13d831ec7",
                    "decodedLog": {
                        "name": "Transfer",
                        "params": [
                            {
                                "name": "from",
                                "type": "address",
                                "value": "0x14633ea8d5d75f895dfb9d15fe82d0042e7ee042"
                            },
                            {
                                "name": "to",
                                "type": "address",
                                "value": "0x94b9ceee5fb7c073249874c6dbbdb3e62f499956"
                            },
                            {
                                "decimalAvailable": true,
                                "name": "value",
                                "type": "uint256",
                                "value": "3,504,525,600"
                            }
                        ],
                        "signature": "Transfer(address,address,uint256)"
                    },
                    "id": 3,
                    "logData": "0x00000000000000000000000000000000000000000000000000000000d0e2d120",
                    "logDecoded": true,
                    "operation": "EVENT",
                    "revert": false,
                    "status": true,
                    "topics": [
                        "0xddf252ad1be2c89b69c2b068fc378daa952ba7f163c4a11628f55a4df523b3ef",
                        "0x00000000000000000000000014633ea8d5d75f895dfb9d15fe82d0042e7ee042",
                        "0x00000000000000000000000094b9ceee5fb7c073249874c6dbbdb3e62f499956"
                    ]
                },
                "nodeType": 1
            }
        },
        "gasFlame": [
            {
                "children": [
                    {
                        "children": [
                            {
                                "children": [],
                                "depth": 0,
                                "name": "Initial Gas",
                                "value": 23748
                            },
                            {
                                "children": [
                                    {
                                        "children": [],
                                        "depth": 1,
                                        "name": "ecrecover",
                                        "value": 3000
                                    },
                                    {
                                        "children": [],
                                        "depth": 1,
                                        "name": "transfer",
                                        "value": 41601
                                    }
                                ],
                                "depth": 0,
                                "name": "Executed Gas",
                                "value": 92177
                            }
                        ],
                        "depth": -1,
                        "name": "Actual Gas Used",
                        "value": 115925
                    },
                    {
                        "children": [],
                        "depth": -1,
                        "name": "Refunded Gas",
                        "value": 0
                    }
                ],
                "depth": -2,
                "name": "Total Gas",
                "value": 115925
            }
        ],
        "isConfirmed": true,
        "mainTrace": [
            {
                "children": [
                    {
                        "children": [
                            {
                                "children": [],
                                "depth": 1,
                                "id": 1,
                                "order": 1
                            },
                            {
                                "children": [
                                    {
                                        "children": [],
                                        "depth": 2,
                                        "id": 3,
                                        "order": 3
                                    }
                                ],
                                "depth": 1,
                                "id": 2,
                                "order": 2
                            }
                        ],
                        "depth": 0,
                        "id": 0,
                        "order": 0
                    }
                ],
                "depth": -1,
                "id": -1,
                "order": -1
            }
        ],
        "mainTraceNodeCount": 4,
        "parentIdMap": {
            "0": -1,
            "1": 0,
            "2": 0,
            "3": 2
        },
        "tidyTrace": [
            {
                "children": [
                    {
                        "children": [
                            {
                                "children": [],
                                "depth": 1,
                                "id": 1,
                                "order": 1
                            },
                            {
                                "children": [
                                    {
                                        "children": [],
                                        "depth": 2,
                                        "id": 3,
                                        "order": 3
                                    }
                                ],
                                "depth": 1,
                                "id": 2,
                                "order": 2
                            }
                        ],
                        "depth": 0,
                        "id": 0,
                        "order": 0
                    }
                ],
                "depth": -1,
                "id": -1,
                "order": -1
            }
        ],
        "tidyTraceNodeCount": 4
    },
    "state_change": {
        "stateChanges": [
            {
                "address": "0x14633ea8d5d75f895dfb9d15fe82d0042e7ee042",
                "erc": "",
                "slots": [
                    {
                        "current": "0x0000000000000000000000000000000000000000000000000000000000017a24",
                        "key": "0x0000000000000000000000000000000000000000000000000000000000000003",
                        "prev": "0x0000000000000000000000000000000000000000000000000000000000017a1a"
                    }
                ],
                "storageVariables": []
            },
            {
                "address": "0xdac17f958d2ee523a2206206994597c13d831ec7",
                "erc": "ERC-20",
                "slots": [
                    {
                        "current": "0x00000000000000000000000000000000000000000000000000000000d0e2d120",
                        "key": "0x2acbdbf5edd8a8a3bde4cd3c272aac2b092a6cb480a2ca893cad94131d56bbfb",
                        "prev": "0x0000000000000000000000000000000000000000000000000000000000000000"
                    },
                    {
                        "current": "0x0000000000000000000000000000000000000000000000000000002640489bd7",
                        "key": "0xdabdf417284ffaa2ae4384946d603d3010ccf14bca1674288eb42d3c757f1b9d",
                        "prev": "0x00000000000000000000000000000000000000000000000000000027112b6cf7"
                    }
                ],
                "storageVariables": [
                    {
                        "name": "balances",
                        "type": "mapping(address => uint256)",
                        "value": {
                            "pairs": [
                                {
                                    "key": "0x14633ea8d5d75f895dfb9d15fe82d0042e7ee042",
                                    "value": {
                                        "current": "164287257559",
                                        "prev": "167791783159",
                                        "typeTag": 1
                                    }
                                },
                                {
                                    "key": "0x94b9ceee5fb7c073249874c6dbbdb3e62f499956",
                                    "value": {
                                        "current": "3504525600",
                                        "prev": "0",
                                        "typeTag": 1
                                    }
                                }
                            ],
                            "typeTag": 4
                        }
                    }
                ]
            }
        ]
    }
}