{
    "balance_change": {
        "balanceChanges": [
            {
                "account": "0x621f2a5ef987e064e76da1eb378e7193cefc0baa",
                "assets": [
                    {
                        "address": "0xfeef77d3f69374f66429c91d732a244f074bdf74",
                        "amount": "6,838.91205606",
                        "iconUrl": "",
                        "isERC1155": false,
                        "isERC721": false,
                        "sign": false,
                        "value": "169972.2779"
                    },
                    {
                        "address": "0xf3a43307dcafa93275993862aae628fcb50dc768",
                        "amount": "3,368.782081042872107253",
                        "iconUrl": "",
                        "isERC1155": false,
                        "isERC721": false,
                        "sign": true,
                        "value": "169971.0737"
                    }
                ]
            },
            {
                "account": "0xd658a338613198204dca1143ac3f01a722b5d94a",
                "assets": [
                    {
                        "address": "0xfeef77d3f69374f66429c91d732a244f074bdf74",
                        "amount": "6,838.91205606",
                        "iconUrl": "",
                        "isERC1155": false,
                        "isERC721": false,
                        "sign": true,
                        "value": "169972.2779"
                    }
                ]
            },
            {
                "account": "0x0000000000000000000000000000000000000000",
                "assets": [
                    {
                        "address": "0xf3a43307dcafa93275993862aae628fcb50dc768",
                        "amount": "3,369.963981383217378955",
                        "iconUrl": "",
                        "isERC1155": false,
                        "isERC721": false,
                        "sign": false,
                        "value": "170032.1178"
                    }
                ]
            },
            {
                "account": "0xecb456ea5365865ebab8a2661b0c503410e9b347",
                "assets": [
                    {
                        "address": "0xf3a43307dcafa93275993862aae628fcb50dc768",
                        "amount": "1.181900340345271702",
                        "iconUrl": "",
                        "isERC1155": false,
                        "isERC721": false,
                        "sign": true,
                        "value": "59.63273253"
                    }
                ]
            }
        ]
    },
    "profile": {
        "basic_info": {
            "baseFee": "29.709886807",
            "blockNumber": 14314310,
            "callData": "0x0b4c7e4d0000000000000000000000000000000000000000000000000000000000000000000000000000000000000000000000000000000000000172bcf868e0a8a2d8000000000000000000000000000000000000000000000000b48b85871ca25a6995",
            "debugEnable": true,
            "errorInfo": "",
            "eventCount": 6,
            "feeRecipient": "0xea674fdde714fd979de3edf0f56aa9716b898ec8",
            "formatValue": "0",
            "gasLimit": 491064,
            "gasPrice": "31.209886807",
            "gasUsed": 283139,
            "intTxnCount": 16,
            "internalRevert": false,
            "internalRevertMessage": "",
            "isContractCreation": false,
            "isFlashloan": false,
            "maxFee": "46.207738058",
            "nonce": 4185,
            "overwritedBlockNumber": -1,
            "priorityFee": "1.5",
            "receiver": "0xd658a338613198204dca1143ac3f01a722b5d94a",
            "revertMessage": "",
            "sender": "0x621f2a5ef987e064e76da1eb378e7193cefc0baa",
            "simulationEnable": true,
            "sourceTxnHash": "0xde2e9e050c14778410521f28e0edbf5ac9420d576591d41054cefdcdde84c2f4",
            "status": true,
            "timestamp": "2022-03-03T13:40:18Z",
            "transactionFee": "0.008836736140647173",
            "txnHash": "0xde2e9e050c14778410521f28e0edbf5ac9420d576591d41054cefdcdde84c2f4",
            "txnIndex": 308,
            "type": 2,
            "value": "0"
        },
        "fund_flow": [
            {
                "amount": "6,838.91205606",
                "from": "0x621f2a5ef987e064e76da1eb378e7193cefc0baa",
                "id": 1,
                "isERC1155": false,
                "isERC721": false,
                "isReverted": false,
                "order": 1,
                "to": "0xd658a338613198204dca1143ac3f01a722b5d94a",
                "token": "0xfeef77d3f69374f66429c91d732a244f074bdf74"
            },
            {
                "amount": "3,368.782081042872107253",
                "from": "0x0000000000000000000000000000000000000000",
                "id": 2,
                "isERC1155": false,
                "isERC721": false,
                "isReverted": false,
                "order": 2,
                "to": "0x621f2a5ef987e064e76da1eb378e7193cefc0baa",
                "token": "0xf3a43307dcafa93275993862aae628fcb50dc768"
            },
            {
                "amount": "1.181900340345271702",
                "from": "0x0000000000000000000000000000000000000000",
                "id": 3,
                "isERC1155": false,
                "isERC721": false,
                "isReverted": false,
                "order": 3,
                "to": "0xecb456ea5365865ebab8a2661b0c503410e9b347",
                "token": "0xf3a43307dcafa93275993862aae628fcb50dc768"
            }
        ],
        "token_infos": [
            {
                "address": "0xc02aaa39b223fe8d0a0e5c4f27ead9083c756cc2",
                "decimals": 18
            },
            {
                "address": "0xf3a43307dcafa93275993862aae628fcb50dc768",
                "decimals": 18
            },
            {
                "address": "0xfeef77d3f69374f66429c91d732a244f074bdf74",
                "decimals": 18
            },
            {
                "address": "0xeeeeeeeeeeeeeeeeeeeeeeeeeeeeeeeeeeeeeeee",
                "decimals": 18
            }
        ]
    },
    "address_label": {
        "labels": [
            {
                "address": "0xfeef77d3f69374f66429c91d732a244f074bdf74",
                "label": "ConvexFinance: cvxFXS Token"
            },
            {
                "address": "0xd658a338613198204dca1143ac3f01a722b5d94a",
                "label": "Curve.fi Factory Pool: cvxFxs/Fxs"
            },
            {
                "address": "0xeeeeeeeeeeeeeeeeeeeeeeeeeeeeeeeeeeeeeeee",
                "label": "Ether"
            },
            {
                "address": "0xf18056bbd320e96a48e3fbf8bc061322531aac99",
                "label": "0xf180_Vyper_contract"
            },
            {
                "address": "0x0000000000000000000000000000000000000002",
                "label": "Precompiled"
            },
            {
                "address": "0xc08550a4cc5333f40e593ecc4c4724808085d304",
                "label": "0xc085_Vyper_contract"
            },
            {
                "address": "0xecb456ea5365865ebab8a2661b0c503410e9b347",
                "label": "0xecb4_Vyper_contract"
            },
            {
                "address": "0x0000000000000000000000000000000000000004",
                "label": "Precompiled"
            },
            {
                "address": "0x0000000000000000000000000000000000000001",
                "label": "Precompiled"
            },
            {
                "address": "0x3432b6a60d23ca0dfca7761b7ab56459d9c964d0",
                "label": "Frax Share (FXS)"
            },
            {
                "address": "0xa85461afc2deec01bda23b5cd267d51f765fba10",
                "label": "0xa854_Vyper_contract"
            },
            {
                "address": "0x0000000000000000000000000000000000000003",
                "label": "Precompiled"
            },
            {
                "address": "0xf3a43307dcafa93275993862aae628fcb50dc768",
                "label": "Frax Finance: cvxFXSFXS-f Token"
            }
        ]
    },
    "trace": {
        "accountLabels": null,
        "dataMap": {
            "-1": {
                "invocation": {
                    "address": "0x621f2a5ef987e064e76da1eb378e7193cefc0baa",
                    "callData": "",
                    "decodedMethod": null,
                    "errorInfo": "",
                    "fromAddress": "",
                    "gasUsed": 0,
                    "id": -1,
                    "methodDecoded": false,
                    "operation": "",
                    "output": "",
                    "revert": false,
                    "revertMessage": "",
                    "selector": "",
                    "status": false,
                    "value": ""
                },
                "nodeType": 0
            },
            "0": {
                "invocation": {
                    "address": "0xd658a338613198204dca1143ac3f01a722b5d94a",
                    "callData": "0x0000000000000000000000000000000000000000000000000000000000000000000000000000000000000000000000000000000000000172bcf868e0a8a2d8000000000000000000000000000000000000000000000000b48b85871ca25a6995",
                    "decodedMethod": {
                        "callParams": [
                            {
                                "name": "amounts",
                                "type": "uint256[2]",
                                "value": [
                                    "0",
                                    "6,838,912,056,060,000,000,000"
                                ]
                            },
                            {
                                "name": "min_mint_amount",
                                "type": "uint256",
                                "value": "3,330,467,523,567,946,459,541"
                            }
                        ],
                        "constructorArguments": "",
                        "name": "add_liquidity",
                        "returnParams": [
                            {
                                "name": "",
                                "type": "uint256",
                                "value": "3,368,782,081,042,872,107,253"
                            }
                        ],
                        "signature": "add_liquidity(uint256[2],uint256)"
                    },
                    "errorInfo": "",
                    "fromAddress": "0x621f2a5ef987e064e76da1eb378e7193cefc0baa",
                    "gasUsed": 283139,
                    "id": 0,
                    "methodDecoded": true,
                    "operation": "CALL",
                    "output": "0x0000000000000000000000000000000000000000000000b69f3e2e22d59580f5",
                    "revert": false,
                    "revertMessage": "",
                    "selector": "0x0b4c7e4d",
                    "status": true,
                    "value": "0"
                },
                "nodeType": 0
            },
            "1": {
                "invocation": {
                    "address": "0xa85461afc2deec01bda23b5cd267d51f765fba10",
                    "callData": "0x0000000000000000000000000000000000000000000000000000000000000000000000000000000000000000000000000000000000000172bcf868e0a8a2d8000000000000000000000000000000000000000000000000b48b85871ca25a6995",
                    "decodedMethod": {
                        "callParams": [
                            {
                                "name": "amounts",
                                "type": "uint256[2]",
                                "value": [
                                    "0",
                                    "6,838,912,056,060,000,000,000"
                                ]
                            },
                            {
                                "name": "min_mint_amount",
                                "type": "uint256",
                                "value": "3,330,467,523,567,946,459,541"
                            }
                        ],
                        "constructorArguments": "",
                        "name": "add_liquidity",
                        "returnParams": [
                            {
                                "name": "",
                                "type": "uint256",
                                "value": "3,368,782,081,042,872,107,253"
                            }
                        ],
                        "signature": "add_liquidity(uint256[2],uint256)"
                    },
                    "errorInfo": "",
                    "fromAddress": "0xd658a338613198204dca1143ac3f01a722b5d94a",
                    "gasUsed": 298591,
                    "id": 1,
                    "methodDecoded": true,
                    "operation": "DELEGATECALL",
                    "output": "0x0000000000000000000000000000000000000000000000b69f3e2e22d59580f5",
                    "revert": false,
                    "revertMessage": "",
                    "selector": "0x0b4c7e4d",
                    "status": true,
                    "value": "0"
                },
                "nodeType": 0
            },
            "10": {
                "event": {
                    "contract": "0xf3a43307dcafa93275993862aae628fcb50dc768",
                    "decodedLog": {
                        "name": "Transfer",
                        "params": [
                            {
                                "name": "from",
                                "type": "address",
                                "value": "0x0000000000000000000000000000000000000000"
                            },
                            {
                                "name": "to",
                                "type": "address",
                                "value": "0x621f2a5ef987e064e76da1eb378e7193cefc0baa"
                            },
                            {
                                "decimalAvailable": true,
                                "name": "value",
                                "type": "uint256",
                                "value": "3,368,782,081,042,872,107,253"
                            }
                        ],
                        "signature": "Transfer(address,address,uint256)"
                    },
                    "id": 10,
                    "logData": "0x0000000000000000000000000000000000000000000000b69f3e2e22d59580f5",
                    "logDecoded": true,
                    "operation": "EVENT",
                    "revert": false,
                    "status": true,
                    "topics": [
                        "0xddf252ad1be2c89b69c2b068fc378daa952ba7f163c4a11628f55a4df523b3ef",
                        "0x0000000000000000000000000000000000000000000000000000000000000000",
                        "0x000000000000000000000000621f2a5ef987e064e76da1eb378e7193cefc0baa"
                    ]
                },
                "nodeType": 1
            },
            "11": {
                "invocation": {
                    "address": "0xf3a43307dcafa93275993862aae628fcb50dc768",
                    "callData": "0x",
                    "decodedMethod": {
                        "callParams": [],
                        "constructorArguments": "",
                        "name": "totalSupply",
                        "returnParams": [
                            {
                                "name": "",
                                "type": "uint256",
                                "value": "3,047,866,716,741,385,711,227,350"
                            }
                        ],
                        "signature": "totalSupply()"
                    },
                    "errorInfo": "",
                    "fromAddress": "0xd658a338613198204dca1143ac3f01a722b5d94a",
                    "gasUsed": 779,
                    "id": 11,
                    "methodDecoded": true,
                    "operation": "STATICCALL",
                    "output": "0x0000000000000000000000000000000000000000000285692f8fba572dcb91d6",
                    "revert": false,
                    "revertMessage": "",
                    "selector": "0x18160ddd",
                    "status": true,
                    "value": "0"
                },
                "nodeType": 0
            },
            "12": {
                "invocation": {
                    "address": "0xc08550a4cc5333f40e593ecc4c4724808085d304",
                    "callData": "0x",
                    "decodedMethod": {
                        "callParams": [],
                        "constructorArguments": "",
                        "name": "totalSupply",
                        "returnParams": [
                            {
                                "name": "",
                                "type": "uint256",
                                "value": "3,047,866,716,741,385,711,227,350"
                            }
                        ],
                        "signature": "totalSupply()"
                    },
                    "errorInfo": "",
                    "fromAddress": "0xf3a43307dcafa93275993862aae628fcb50dc768",
                    "gasUsed": 613,
                    "id": 12,
                    "methodDecoded": true,
                    "operation": "DELEGATECALL",
                    "output": "0x0000000000000000000000000000000000000000000285692f8fba572dcb91d6",
                    "revert": false,
                    "revertMessage": "",
                    "selector": "0x18160ddd",
                    "status": true,
                    "value": "0"
                },
                "nodeType": 0
            },
            "13": {
                "invocation": {
                    "address": "0x3432b6a60d23ca0dfca7761b7ab56459d9c964d0",
                    "callData": "0x000000000000000000000000d658a338613198204dca1143ac3f01a722b5d94a",
                    "decodedMethod": {
                        "callParams": [
                            {
                                "name": "account",
                                "type": "address",
                                "value": "0xd658a338613198204dca1143ac3f01a722b5d94a"
                            }
                        ],
                        "constructorArguments": "",
                        "name": "balanceOf",
                        "returnParams": [
                            {
                                "decimalAvailable": true,
                                "name": "",
                                "type": "uint256",
                                "value": "2,508,020,423,297,313,493,762,597"
                            }
                        ],
                        "signature": "balanceOf(address)"
                    },
                    "errorInfo": "",
                    "fromAddress": "0xd658a338613198204dca1143ac3f01a722b5d94a",
                    "gasUsed": 2665,
                    "id": 13,
                    "methodDecoded": true,
                    "operation": "STATICCALL",
                    "output": "0x0000000000000000000000000000000000000000000213180f408f34107c4225",
                    "revert": false,
                    "revertMessage": "",
                    "selector": "0x70a08231",
                    "status": true,
                    "value": "0"
                },
                "nodeType": 0
            },
            "14": {
                "invocation": {
                    "address": "0xfeef77d3f69374f66429c91d732a244f074bdf74",
                    "callData": "0x000000000000000000000000d658a338613198204dca1143ac3f01a722b5d94a",
                    "decodedMethod": {
                        "callParams": [
                            {
                                "name": "account",
                                "type": "address",
                                "value": "0xd658a338613198204dca1143ac3f01a722b5d94a"
                            }
                        ],
                        "constructorArguments": "",
                        "name": "balanceOf",
                        "returnParams": [
                            {
                                "decimalAvailable": true,
                                "name": "",
                                "type": "uint256",
                                "value": "3,611,966,429,539,561,026,735,483"
                            }
                        ],
                        "signature": "balanceOf(address)"
                    },
                    "errorInfo": "",
                    "fromAddress": "0xd658a338613198204dca1143ac3f01a722b5d94a",
                    "gasUsed": 585,
                    "id": 14,
                    "methodDecoded": true,
                    "operation": "STATICCALL",
                    "output": "0x00000000000000000000000000000000000000000002fcdd17ad97e95631cd7b",
                    "revert": false,
                    "revertMessage": "",
                    "selector": "0x70a08231",
                    "status": true,
                    "value": "0"
                },
                "nodeType": 0
            },
            "15": {
                "invocation": {
                    "address": "0xf18056bbd320e96a48e3fbf8bc061322531aac99",
                    "callData": "0x",
                    "decodedMethod": {
                        "callParams": [],
                        "constructorArguments": "",
                        "name": "fee_receiver",
                        "returnParams": [
                            {
                                "name": "",
                                "type": "address",
                                "value": "0xecb456ea5365865ebab8a2661b0c503410e9b347"
                            }
                        ],
                        "signature": "fee_receiver()"
                    },
                    "errorInfo": "",
                    "fromAddress": "0xd658a338613198204dca1143ac3f01a722b5d94a",
                    "gasUsed": 2659,
                    "id": 15,
                    "methodDecoded": true,
                    "operation": "STATICCALL",
                    "output": "0x000000000000000000000000ecb456ea5365865ebab8a2661b0c503410e9b347",
                    "revert": false,
                    "revertMessage": "",
                    "selector": "0xcab4d3db",
                    "status": true,
                    "value": "0"
                },
                "nodeType": 0
            },
            "16": {
                "invocation": {
                    "address": "0xf3a43307dcafa93275993862aae628fcb50dc768",
                    "callData": "0x000000000000000000000000ecb456ea5365865ebab8a2661b0c503410e9b3470000000000000000000000000000000000000000000000000000005a49762365",
                    "decodedMethod": {
                        "callParams": [
                            {
                                "name": "_to",
                                "type": "address",
                                "value": "0xecb456ea5365865ebab8a2661b0c503410e9b347"
                            },
                            {
                                "name": "frac",
                                "type": "uint256",
                                "value": "387,779,535,717"
                            }
                        ],
                        "constructorArguments": "",
                        "name": "mint_relative",
                        "returnParams": [
                            {
                                "name": "",
                                "type": "uint256",
                                "value": "1,181,900,340,345,271,702"
                            }
                        ],
                        "signature": "mint_relative(address,uint256)"
                    },
                    "errorInfo": "",
                    "fromAddress": "0xd658a338613198204dca1143ac3f01a722b5d94a",
                    "gasUsed": 7949,
                    "id": 16,
                    "methodDecoded": true,
                    "operation": "CALL",
                    "output": "0x0000000000000000000000000000000000000000000000001066f418fa317596",
                    "revert": false,
                    "revertMessage": "",
                    "selector": "0x6962f845",
                    "status": true,
                    "value": "0"
                },
                "nodeType": 0
            },
            "17": {
                "invocation": {
                    "address": "0xc08550a4cc5333f40e593ecc4c4724808085d304",
                    "callData": "0x000000000000000000000000ecb456ea5365865ebab8a2661b0c503410e9b3470000000000000000000000000000000000000000000000000000005a49762365",
                    "decodedMethod": {
                        "callParams": [
                            {
                                "name": "_to",
                                "type": "address",
                                "value": "0xecb456ea5365865ebab8a2661b0c503410e9b347"
                            },
                            {
                                "name": "frac",
                                "type": "uint256",
                                "value": "387,779,535,717"
                            }
                        ],
                        "constructorArguments": "",
                        "name": "mint_relative",
                        "returnParams": [
                            {
                                "name": "",
                                "type": "uint256",
                                "value": "1,181,900,340,345,271,702"
                            }
                        ],
                        "signature": "mint_relative(address,uint256)"
                    },
                    "errorInfo": "",
                    "fromAddress": "0xf3a43307dcafa93275993862aae628fcb50dc768",
                    "gasUsed": 7771,
                    "id": 17,
                    "methodDecoded": true,
                    "operation": "DELEGATECALL",
                    "output": "0x0000000000000000000000000000000000000000000000001066f418fa317596",
                    "revert": false,
                    "revertMessage": "",
                    "selector": "0x6962f845",
                    "status": true,
                    "value": "0"
                },
                "nodeType": 0
            },
            "18": {
                "event": {
                    "contract": "0xf3a43307dcafa93275993862aae628fcb50dc768",
                    "decodedLog": {
                        "name": "Transfer",
                        "params": [
                            {
                                "name": "from",
                                "type": "address",
                                "value": "0x0000000000000000000000000000000000000000"
                            },
                            {
                                "name": "to",
                                "type": "address",
                                "value": "0xecb456ea5365865ebab8a2661b0c503410e9b347"
                            },
                            {
                                "decimalAvailable": true,
                                "name": "value",
                                "type": "uint256",
                                "value": "1,181,900,340,345,271,702"
                            }
                        ],
                        "signature": "Transfer(address,address,uint256)"
                    },
                    "id": 18,
                    "logData": "0x0000000000000000000000000000000000000000000000001066f418fa317596",
                    "logDecoded": true,
                    "operation": "EVENT",
                    "revert": false,
                    "status": true,
                    "topics": [
                        "0xddf252ad1be2c89b69c2b068fc378daa952ba7f163c4a11628f55a4df523b3ef",
                        "0x0000000000000000000000000000000000000000000000000000000000000000",
                        "0x000000000000000000000000ecb456ea5365865ebab8a2661b0c503410e9b347"
                    ]
                },
                "nodeType": 1
            },
            "19": {
                "event": {
                    "contract": "0xd658a338613198204dca1143ac3f01a722b5d94a",
                    "decodedLog": {
                        "name": "ClaimAdminFee",
                        "params": [
                            {
                                "name": "admin",
                                "type": "address",
                                "value": "0xecb456ea5365865ebab8a2661b0c503410e9b347"
                            },
                            {
                                "name": "tokens",
                                "type": "uint256",
                                "value": "1,181,900,340,345,271,702"
                            }
                        ],
                        "signature": "ClaimAdminFee(address,uint256)"
                    },
                    "id": 19,
                    "logData": "0x0000000000000000000000000000000000000000000000001066f418fa317596",
                    "logDecoded": true,
                    "operation": "EVENT",
                    "revert": false,
                    "status": true,
                    "topics": [
                        "0x6059a38198b1dc42b3791087d1ff0fbd72b3179553c25f678cd246f52ffaaf59",
                        "0x000000000000000000000000ecb456ea5365865ebab8a2661b0c503410e9b347"
                    ]
                },
                "nodeType": 1
            },
            "2": {
                "invocation": {
                    "address": "0xfeef77d3f69374f66429c91d732a244f074bdf74",
                    "callData": "0x000000000000000000000000621f2a5ef987e064e76da1eb378e7193cefc0baa000000000000000000000000d658a338613198204dca1143ac3f01a722b5d94a000000000000000000000000000000000000000000000172bcf868e0a8a2d800",
                    "decodedMethod": {
                        "callParams": [
                            {
                                "name": "sender",
                                "type": "address",
                                "value": "0x621f2a5ef987e064e76da1eb378e7193cefc0baa"
                            },
                            {
                                "name": "recipient",
                                "type": "address",
                                "value": "0xd658a338613198204dca1143ac3f01a722b5d94a"
                            },
                            {
                                "decimalAvailable": true,
                                "name": "amount",
                                "type": "uint256",
                                "value": "6,838,912,056,060,000,000,000"
                            }
                        ],
                        "constructorArguments": "",
                        "name": "transferFrom",
                        "returnParams": [
                            {
                                "name": "",
                                "type": "bool",
                                "value": true
                            }
                        ],
                        "signature": "transferFrom(address,address,uint256)"
                    },
                    "errorInfo": "",
                    "fromAddress": "0xd658a338613198204dca1143ac3f01a722b5d94a",
                    "gasUsed": 20180,
                    "id": 2,
                    "methodDecoded": true,
                    "operation": "CALL",
                    "output": "0x0000000000000000000000000000000000000000000000000000000000000001",
                    "revert": false,
                    "revertMessage": "",
                    "selector": "0x23b872dd",
                    "status": true,
                    "value": "0"
                },
                "nodeType": 0
            },
            "20": {
                "invocation": {
                    "address": "0xf3a43307dcafa93275993862aae628fcb50dc768",
                    "callData": "0x",
                    "decodedMethod": {
                        "callParams": [],
                        "constructorArguments": "",
                        "name": "totalSupply",
                        "returnParams": [
                            {
                                "name": "",
                                "type": "uint256",
                                "value": "3,047,867,898,641,726,056,499,052"
                            }
                        ],
                        "signature": "totalSupply()"
                    },
                    "errorInfo": "",
                    "fromAddress": "0xd658a338613198204dca1143ac3f01a722b5d94a",
                    "gasUsed": 779,
                    "id": 20,
                    "methodDecoded": true,
                    "operation": "STATICCALL",
                    "output": "0x0000000000000000000000000000000000000000000285693ff6ae7027fd076c",
                    "revert": false,
                    "revertMessage": "",
                    "selector": "0x18160ddd",
                    "status": true,
                    "value": "0"
                },
                "nodeType": 0
            },
            "21": {
                "invocation": {
                    "address": "0xc08550a4cc5333f40e593ecc4c4724808085d304",
                    "callData": "0x",
                    "decodedMethod": {
                        "callParams": [],
                        "constructorArguments": "",
                        "name": "totalSupply",
                        "returnParams": [
                            {
                                "name": "",
                                "type": "uint256",
                                "value": "3,047,867,898,641,726,056,499,052"
                            }
                        ],
                        "signature": "totalSupply()"
                    },
                    "errorInfo": "",
                    "fromAddress": "0xf3a43307dcafa93275993862aae628fcb50dc768",
                    "gasUsed": 613,
                    "id": 21,
                    "methodDecoded": true,
                    "operation": "DELEGATECALL",
                    "output": "0x0000000000000000000000000000000000000000000285693ff6ae7027fd076c",
                    "revert": false,
                    "revertMessage": "",
                    "selector": "0x18160ddd",
                    "status": true,
                    "value": "0"
                },
                "nodeType": 0
            },
            "22": {
                "event": {
                    "contract": "0xd658a338613198204dca1143ac3f01a722b5d94a",
                    "decodedLog": {
                        "name": "AddLiquidity",
                        "params": [
                            {
                                "name": "provider",
                                "type": "address",
                                "value": "0x621f2a5ef987e064e76da1eb378e7193cefc0baa"
                            },
                            {
                                "name": "token_amounts",
                                "type": "uint256[2]",
                                "value": [
                                    "0",
                                    "6,838,912,056,060,000,000,000"
                                ]
                            },
                            {
                                "name": "fee",
                                "type": "uint256",
                                "value": "4,718,449,746,504,804,173"
                            },
                            {
                                "name": "token_supply",
                                "type": "uint256",
                                "value": "3,047,866,716,741,385,711,227,350"
                            }
                        ],
                        "signature": "AddLiquidity(address,uint256[2],uint256,uint256)"
                    },
                    "id": 22,
                    "logData": "0x0000000000000000000000000000000000000000000000000000000000000000000000000000000000000000000000000000000000000172bcf868e0a8a2d800000000000000000000000000000000000000000000000000417b4d0b86f3674d0000000000000000000000000000000000000000000285692f8fba572dcb91d6",
                    "logDecoded": true,
                    "operation": "EVENT",
                    "revert": false,
                    "status": true,
                    "topics": [
                        "0x540ab385f9b5d450a27404172caade516b3ba3f4be88239ac56a2ad1de2a1f5a",
                        "0x000000000000000000000000621f2a5ef987e064e76da1eb378e7193cefc0baa"
                    ]
                },
                "nodeType": 1
            },
            "3": {
                "event": {
                    "contract": "0xfeef77d3f69374f66429c91d732a244f074bdf74",
                    "decodedLog": {
                        "name": "Transfer",
                        "params": [
                            {
                                "name": "from",
                                "type": "address",
                                "value": "0x621f2a5ef987e064e76da1eb378e7193cefc0baa"
                            },
                            {
                                "name": "to",
                                "type": "address",
                                "value": "0xd658a338613198204dca1143ac3f01a722b5d94a"
                            },
                            {
                                "decimalAvailable": true,
                                "name": "value",
                                "type": "uint256",
                                "value": "6,838,912,056,060,000,000,000"
                            }
                        ],
                        "signature": "Transfer(address,address,uint256)"
                    },
                    "id": 3,
                    "logData": "0x000000000000000000000000000000000000000000000172bcf868e0a8a2d800",
                    "logDecoded": true,
                    "operation": "EVENT",
                    "revert": false,
                    "status": true,
                    "topics": [
                        "0xddf252ad1be2c89b69c2b068fc378daa952ba7f163c4a11628f55a4df523b3ef",
                        "0x000000000000000000000000621f2a5ef987e064e76da1eb378e7193cefc0baa",
                        "0x000000000000000000000000d658a338613198204dca1143ac3f01a722b5d94a"
                    ]
                },
                "nodeType": 1
            },
            "4": {
                "event": {
                    "contract": "0xfeef77d3f69374f66429c91d732a244f074bdf74",
                    "decodedLog": {
                        "name": "Approval",
                        "params": [
                            {
                                "name": "owner",
                                "type": "address",
                                "value": "0x621f2a5ef987e064e76da1eb378e7193cefc0baa"
                            },
                            {
                                "name": "spender",
                                "type": "address",
                                "value": "0xd658a338613198204dca1143ac3f01a722b5d94a"
                            },
                            {
                                "decimalAvailable": true,
                                "name": "value",
                                "type": "uint256",
                                "value": "115,792,089,237,316,195,423,570,985,008,687,907,853,269,984,665,640,564,032,618,671,951,853,129,639,935"
                            }
                        ],
                        "signature": "Approval(address,address,uint256)"
                    },
                    "id": 4,
                    "logData": "0xfffffffffffffffffffffffffffffffffffffffffffffe8d4307971f575d27ff",
                    "logDecoded": true,
                    "operation": "EVENT",
                    "revert": false,
                    "status": true,
                    "topics": [
                        "0x8c5be1e5ebec7d5bd14f71427d1e84f3dd0314c0f7b2291e5b200ac8c7c3b925",
                        "0x000000000000000000000000621f2a5ef987e064e76da1eb378e7193cefc0baa",
                        "0x000000000000000000000000d658a338613198204dca1143ac3f01a722b5d94a"
                    ]
                },
                "nodeType": 1
            },
            "5": {
                "invocation": {
                    "address": "0x0000000000000000000000000000000000000004",
                    "callData": "0x000000000000000000000000000000000000000000000000000000200000000000000000000000000000000000000000000000000000000000000001",
                    "decodedMethod": {
                        "callParams": [
                            {
                                "name": "data",
                                "type": "bytes",
                                "value": "0x00000000000000000000000000000000000000000000000000000000000000200000000000000000000000000000000000000000000000000000000000000001"
                            }
                        ],
                        "constructorArguments": "",
                        "name": "dataCopy()",
                        "returnParams": [
                            {
                                "name": "data",
                                "type": "bytes",
                                "value": "0x00000000000000000000000000000000000000000000000000000000000000200000000000000000000000000000000000000000000000000000000000000001"
                            }
                        ],
                        "signature": "dataCopy(bytes)"
                    },
                    "errorInfo": "",
                    "fromAddress": "0xd658a338613198204dca1143ac3f01a722b5d94a",
                    "gasUsed": 21,
                    "id": 5,
                    "methodDecoded": true,
                    "operation": "STATICCALL",
                    "output": "0x00000000000000000000000000000000000000000000000000000000000000200000000000000000000000000000000000000000000000000000000000000001",
                    "revert": false,
                    "revertMessage": "",
                    "selector": "0x00000000",
                    "status": true,
                    "value": "0"
                },
                "nodeType": 0
            },
            "6": {
                "invocation": {
                    "address": "0xf3a43307dcafa93275993862aae628fcb50dc768",
                    "callData": "0x",
                    "decodedMethod": {
                        "callParams": [],
                        "constructorArguments": "",
                        "name": "totalSupply",
                        "returnParams": [
                            {
                                "name": "",
                                "type": "uint256",
                                "value": "3,044,497,934,660,342,839,120,097"
                            }
                        ],
                        "signature": "totalSupply()"
                    },
                    "errorInfo": "",
                    "fromAddress": "0xd658a338613198204dca1143ac3f01a722b5d94a",
                    "gasUsed": 5279,
                    "id": 6,
                    "methodDecoded": true,
                    "operation": "STATICCALL",
                    "output": "0x0000000000000000000000000000000000000000000284b290518c34583610e1",
                    "revert": false,
                    "revertMessage": "",
                    "selector": "0x18160ddd",
                    "status": true,
                    "value": "0"
                },
                "nodeType": 0
            },
            "7": {
                "invocation": {
                    "address": "0xc08550a4cc5333f40e593ecc4c4724808085d304",
                    "callData": "0x",
                    "decodedMethod": {
                        "callParams": [],
                        "constructorArguments": "",
                        "name": "totalSupply",
                        "returnParams": [
                            {
                                "name": "",
                                "type": "uint256",
                                "value": "3,044,497,934,660,342,839,120,097"
                            }
                        ],
                        "signature": "totalSupply()"
                    },
                    "errorInfo": "",
                    "fromAddress": "0xf3a43307dcafa93275993862aae628fcb50dc768",
                    "gasUsed": 2613,
                    "id": 7,
                    "methodDecoded": true,
                    "operation": "DELEGATECALL",
                    "output": "0x0000000000000000000000000000000000000000000284b290518c34583610e1",
                    "revert": false,
                    "revertMessage": "",
                    "selector": "0x18160ddd",
                    "status": true,
                    "value": "0"
                },
                "nodeType": 0
            },
            "8": {
                "invocation": {
                    "address": "0xf3a43307dcafa93275993862aae628fcb50dc768",
                    "callData": "0x000000000000000000000000621f2a5ef987e064e76da1eb378e7193cefc0baa0000000000000000000000000000000000000000000000b69f3e2e22d59580f5",
                    "decodedMethod": {
                        "callParams": [
                            {
                                "name": "to",
                                "type": "address",
                                "value": "0x621f2a5ef987e064e76da1eb378e7193cefc0baa"
                            },
                            {
                                "name": "amount",
                                "type": "uint256",
                                "value": "3,368,782,081,042,872,107,253"
                            }
                        ],
                        "constructorArguments": "",
                        "name": "mint",
                        "returnParams": [],
                        "signature": "mint(address,uint256)"
                    },
                    "errorInfo": "",
                    "fromAddress": "0xd658a338613198204dca1143ac3f01a722b5d94a",
                    "gasUsed": 29676,
                    "id": 8,
                    "methodDecoded": true,
                    "operation": "CALL",
                    "output": "0x0000000000000000000000000000000000000000000000000000000000000001",
                    "revert": false,
                    "revertMessage": "",
                    "selector": "0x40c10f19",
                    "status": true,
                    "value": "0"
                },
                "nodeType": 0
            },
            "9": {
                "invocation": {
                    "address": "0xc08550a4cc5333f40e593ecc4c4724808085d304",
                    "callData": "0x000000000000000000000000621f2a5ef987e064e76da1eb378e7193cefc0baa0000000000000000000000000000000000000000000000b69f3e2e22d59580f5",
                    "decodedMethod": {
                        "callParams": [
                            {
                                "name": "to",
                                "type": "address",
                                "value": "0x621f2a5ef987e064e76da1eb378e7193cefc0baa"
                            },
                            {
                                "name": "amount",
                                "type": "uint256",
                                "value": "3,368,782,081,042,872,107,253"
                            }
                        ],
                        "constructorArguments": "",
                        "name": "mint",
                        "returnParams": [],
                        "signature": "mint(address,uint256)"
                    },
                    "errorInfo": "",
                    "fromAddress": "0xf3a43307dcafa93275993862aae628fcb50dc768",
                    "gasUsed": 29498,
                    "id": 9,
                    "methodDecoded": true,
                    "operation": "DELEGATECALL",
                    "output": "0x0000000000000000000000000000000000000000000000000000000000000001",
                    "revert": false,
                    "revertMessage": "",
                    "selector": "0x40c10f19",
                    "status": true,
                    "value": "0"
                },
                "nodeType": 0
            }
        },
        "gasFlame": [
            {
                "children": [
                    {
                        "children": [
                            {
                                "children": [],
                                "depth": 0,
                                "name": "Initial Gas",
                                "value": 21664
                            },
                            {
                                "children": [
                                    {
                                        "children": [
                                            {
                                                "children": [],
                                                "depth": 2,
                                                "name": "transferFrom",
                                                "value": 20180
                                            },
                                            {
                                                "children": [],
                                                "depth": 2,
                                                "name": "dataCopy()",
                                                "value": 21
                                            },
                                            {
                                                "children": [
                                                    {
                                                        "children": [],
                                                        "depth": 3,
                                                        "name": "totalSupply",
                                                        "value": 2613
                                                    }
                                                ],
                                                "depth": 2,
                                                "name": "totalSupply",
                                                "value": 5279
                                            },
                                            {
                                                "children": [
                                                    {
                                                        "children": [],
                                                        "depth": 3,
                                                        "name": "mint",
                                                        "value": 29498
                                                    }
                                                ],
                                                "depth": 2,
                                                "name": "mint",
                                                "value": 29676
                                            },
                                            {
                                                "children": [
                                                    {
                                                        "children": [],
                                                        "depth": 3,
                                                        "name": "totalSupply",
                                                        "value": 613
                                                    }
                                                ],
                                                "depth": 2,
                                                "name": "totalSupply",
                                                "value": 779
                                            },
                                            {
                                                "children": [],
                                                "depth": 2,
                                                "name": "balanceOf",
                                                "value": 2665
                                            },
                                            {
                                                "children": [],
                                                "depth": 2,
                                                "name": "balanceOf",
                                                "value": 585
                                            },
                                            {
                                                "children": [],
                                                "depth": 2,
                                                "name": "fee_receiver",
                                                "value": 2659
                                            },
                                            {
                                                "children": [
                                                    {
                                                        "children": [],
                                                        "depth": 3,
                                                        "name": "mint_relative",
                                                        "value": 7771
                                                    }
                                                ],
                                                "depth": 2,
                                                "name": "mint_relative",
                                                "value": 7949
                                            },
                                            {
                                                "children": [
                                                    {
                                                        "children": [],
                                                        "depth": 3,
                                                        "name": "totalSupply",
                                                        "value": 613
                                                    }
                                                ],
                                                "depth": 2,
                                                "name": "totalSupply",
                                                "value": 779
                                            }
                                        ],
                                        "depth": 1,
                                        "name": "add_liquidity",
                                        "value": 298591
                                    }
                                ],
                                "depth": 0,
                                "name": "Executed Gas",
                                "value": 301275
                            }
                        ],
                        "depth": -1,
                        "name": "Actual Gas Used",
                        "value": 283139
                    },
                    {
                        "children": [],
                        "depth": -1,
                        "name": "Refunded Gas",
                        "value": 39800
                    }
                ],
                "depth": -2,
                "name": "Total Gas",
                "value": 322939
            }
        ],
        "isConfirmed": true,
        "mainTrace": [
            {
                "children": [
                    {
                        "children": [
                            {
                                "children": [
                                    {
                                        "children": [
                                            {
                                                "children": [],
                                                "depth": 3,
                                                "id": 3,
                                                "order": 3
                                            },
                                            {
                                                "children": [],
                                                "depth": 3,
                                                "id": 4,
                                                "order": 4
                                            }
                                        ],
                                        "depth": 2,
                                        "id": 2,
                                        "order": 2
                                    },
                                    {
                                        "children": [],
                                        "depth": 2,
                                        "id": 5,
                                        "order": 5
                                    },
                                    {
                                        "children": [
                                            {
                                                "children": [],
                                                "depth": 3,
                                                "id": 7,
                                                "order": 7
                                            }
                                        ],
                                        "depth": 2,
                                        "id": 6,
                                        "order": 6
                                    },
                                    {
                                        "children": [
                                            {
                                                "children": [
                                                    {
                                                        "children": [],
                                                        "depth": 4,
                                                        "id": 10,
                                                        "order": 10
                                                    }
                                                ],
                                                "depth": 3,
                                                "id": 9,
                                                "order": 9
                                            }
                                        ],
                                        "depth": 2,
                                        "id": 8,
                                        "order": 8
                                    },
                                    {
                                        "children": [
                                            {
                                                "children": [],
                                                "depth": 3,
                                                "id": 12,
                                                "order": 12
                                            }
                                        ],
                                        "depth": 2,
                                        "id": 11,
                                        "order": 11
                                    },
                                    {
                                        "children": [],
                                        "depth": 2,
                                        "id": 13,
                                        "order": 13
                                    },
                                    {
                                        "children": [],
                                        "depth": 2,
                                        "id": 14,
                                        "order": 14
                                    },
                                    {
                                        "children": [],
                                        "depth": 2,
                                        "id": 15,
                                        "order": 15
                                    },
                                    {
                                        "children": [
                                            {
                                                "children": [
                                                    {
                                                        "children": [],
                                                        "depth": 4,
                                                        "id": 18,
                                                        "order": 18
                                                    }
                                                ],
                                                "depth": 3,
                                                "id": 17,
                                                "order": 17
                                            }
                                        ],
                                        "depth": 2,
                                        "id": 16,
                                        "order": 16
                                    },
                                    {
                                        "children": [],
                                        "depth": 2,
                                        "id": 19,
                                        "order": 19
                                    },
                                    {
                                        "children": [
                                            {
                                                "children": [],
                                                "depth": 3,
                                                "id": 21,
                                                "order": 21
                                            }
                                        ],
                                        "depth": 2,
                                        "id": 20,
                                        "order": 20
                                    },
                                    {
                                        "children": [],
                                        "depth": 2,
                                        "id": 22,
                                        "order": 22
                                    }
                                ],
                                "depth": 1,
                                "id": 1,
                                "order": 1
                            }
                        ],
                        "depth": 0,
                        "id": 0,
                        "order": 0
                    }
                ],
                "depth": -1,
                "id": -1,
                "order": -1
            }
        ],
        "mainTraceNodeCount": 23,
        "parentIdMap": {
            "0": -1,
            "1": 0,
            "10": 9,
            "11": 1,
            "12": 11,
            "13": 1,
            "14": 1,
            "15": 1,
            "16": 1,
            "17": 16,
            "18": 17,
            "19": 1,
            "2": 1,
            "20": 1,
            "21": 20,
            "22": 1,
            "3": 2,
            "4": 2,
            "5": 1,
            "6": 1,
            "7": 6,
            "8": 1,
            "9": 8
        },
        "tidyTrace": [
            {
                "children": [
                    {
                        "children": [
                            {
                                "children": [
                                    {
                                        "children": [
                                            {
                                                "children": [],
                                                "depth": 3,
                                                "id": 3,
                                                "order": 3
                                            },
                                            {
                                                "children": [],
                                                "depth": 3,
                                                "id": 4,
                                                "order": 4
                                            }
                                        ],
                                        "depth": 2,
                                        "id": 2,
                                        "order": 2
                                    },
                                    {
                                        "children": [
                                            {
                                                "children": [
                                                    {
                                                        "children": [],
                                                        "depth": 4,
                                                        "id": 10,
                                                        "order": 10
                                                    }
                                                ],
                                                "depth": 3,
                                                "id": 9,
                                                "order": 9
                                            }
                                        ],
                                        "depth": 2,
                                        "id": 8,
                                        "order": 8
                                    },
                                    {
                                        "children": [
                                            {
                                                "children": [
                                                    {
                                                        "children": [],
                                                        "depth": 4,
                                                        "id": 18,
                                                        "order": 18
                                                    }
                                                ],
                                                "depth": 3,
                                                "id": 17,
                                                "order": 17
                                            }
                                        ],
                                        "depth": 2,
                                        "id": 16,
                                        "order": 16
                                    },
                                    {
                                        "children": [],
                                        "depth": 2,
                                        "id": 19,
                                        "order": 19
                                    },
                                    {
                                        "children": [],
                                        "depth": 2,
                                        "id": 22,
                                        "order": 22
                                    }
                                ],
                                "depth": 1,
                                "id": 1,
                                "order": 1
                            }
                        ],
                        "depth": 0,
                        "id": 0,
                        "order": 0
                    }
                ],
                "depth": -1,
                "id": -1,
                "order": -1
            }
        ],
        "tidyTraceNodeCount": 13
    },
    "state_change": {
        "stateChanges": [
            {
                "address": "0xd658a338613198204dca1143ac3f01a722b5d94a",
                "erc": "",
                "slots": [
                    {
                        "current": "0x00000000000000000000000000000000000000000004fec400ef848df51c2be4",
                        "key": "0x000000000000000000000000000000000000000000000000000000000000001c",
                        "prev": "0x00000000000000000000000000000000000000000004fd59aa27d7ce9f2df448"
                    },
                    {
                        "current": "0x0000000000000000000000000000000000000000000000000de7bcdced0499a5",
                        "key": "0x0000000000000000000000000000000000000000000000000000000000000020",
                        "prev": "0x0000000000000000000000000000000000000000000000000de7bbce3af8f6d3"
                    },
                    {
                        "current": "0x0000000000000000000000000000000000000000000000000deea50ead80302d",
                        "key": "0x000000000000000000000000000000000000000000000000000000000000001f",
                        "prev": "0x0000000000000000000000000000000000000000000000000deea459bf2ebcd5"
                    },
                    {
                        "current": "0x00000000000000000000000000000000000000000002fcdd17ad97e95631cd7b",
                        "key": "0x000000000000000000000000000000000000000000000000000000000000001b",
                        "prev": "0x00000000000000000000000000000000000000000002fb6a5ab52f08ad8ef57b"
                    },
                    {
                        "current": "0x0000000000000000000000000000000000000000000000000d83af0e9d903cda",
                        "key": "0x0000000000000000000000000000000000000000000000000000000000000006",
                        "prev": "0x0000000000000000000000000000000000000000000000000d871b3769957906"
                    },
                    {
                        "current": "0x0000000000000000000000000000000000000000000000000deea50ead80302d",
                        "key": "0x000000000000000000000000000000000000000000000000000000000000001e",
                        "prev": "0x0000000000000000000000000000000000000000000000000deea459bf2ebcd5"
                    }
                ],
                "storageVariables": []
            },
            {
                "address": "0xf3a43307dcafa93275993862aae628fcb50dc768",
                "erc": "",
                "slots": [
                    {
                        "current": "0x0000000000000000000000000000000000000000000285693ff6ae7027fd076c",
                        "key": "0x0000000000000000000000000000000000000000000000000000000000000008",
                        "prev": "0x0000000000000000000000000000000000000000000284b290518c34583610e1"
                    },
                    {
                        "current": "0x000000000000000000000000000000000000000000000048173ca44f5dd1fa80",
                        "key": "0x13922dd0cbb79ab56dc5b7aaa4af0fc65f863f74ddc1c173237a14a1925cf85c",
                        "prev": "0x00000000000000000000000000000000000000000000004806d5b03663a084ea"
                    },
                    {
                        "current": "0x0000000000000000000000000000000000000000000000b69f3e2e22d59580f5",
                        "key": "0x04d9f872cd6cd8cfaee2c9b348793301e57586236b34ce8c55cabc086b241a8a",
                        "prev": "0x0000000000000000000000000000000000000000000000000000000000000000"
                    }
                ],
                "storageVariables": []
            },
            {
                "address": "0xfeef77d3f69374f66429c91d732a244f074bdf74",
                "erc": "ERC-20",
                "slots": [
                    {
                        "current": "0x00000000000000000000000000000000000000000000000000000000aa4a18a0",
                        "key": "0xf08baaa18e29d9c6cfdf1a782fe57f1a4171e3750b9593f63797d599160a5178",
                        "prev": "0x000000000000000000000000000000000000000000000172bcf868e152ecf0a0"
                    },
                    {
                        "current": "0x00000000000000000000000000000000000000000002fcdd17ad97e95631cd7b",
                        "key": "0x9766c27397aac7098699315d60df5449540c9cc5367622cc6cae7ba04776166a",
                        "prev": "0x00000000000000000000000000000000000000000002fb6a5ab52f08ad8ef57b"
                    },
                    {
                        "current": "0xfffffffffffffffffffffffffffffffffffffffffffffe8d4307971f575d27ff",
                        "key": "0xfae8ede0d8be8e555b23676a7154945fb7a190b7f371843c7f5de9e6a11e5e81",
                        "prev": "0xffffffffffffffffffffffffffffffffffffffffffffffffffffffffffffffff"
                    }
                ],
                "storageVariables": [
                    {
                        "name": "_balances",
                        "type": "mapping(address => uint256)",
                        "value": {
                            "pairs": [
                                {
                                    "key": "0x621f2a5ef987e064e76da1eb378e7193cefc0baa",
                                    "value": {
                                        "current": "2856982688",
                                        "prev": "6838912056062856982688",
                                        "typeTag": 1
                                    }
                                },
                                {
                                    "key": "0xd658a338613198204dca1143ac3f01a722b5d94a",
                                    "value": {
                                        "current": "3611966429539561026735483",
                                        "prev": "3605127517483501026735483",
                                        "typeTag": 1
                                    }
                                }
                            ],
                            "typeTag": 4
                        }
                    },
                    {
                        "name": "_allowances",
                        "type": "mapping(address => mapping(address => uint256))",
                        "value": {
                            "pairs": [
                                {
                                    "key": "0x621f2a5ef987e064e76da1eb378e7193cefc0baa",
                                    "value": {
                                        "pairs": [
                                            {
                                                "key": "0xd658a338613198204dca1143ac3f01a722b5d94a",
                                                "value": {
                                                    "current": "115792089237316195423570985008687907853269984665640564032618671951853129639935",
                                                    "prev": "115792089237316195423570985008687907853269984665640564039457584007913129639935",
                                                    "typeTag": 1
                                                }
                                            }
                                        ],
                                        "typeTag": 4
                                    }
                                }
                            ],
                            "typeTag": 4
                        }
                    }
                ]
            }
        ]
    }
}