{
    "balance_change": {
        "balanceChanges": [
            {
                "account": "0x481da0f1e89c206712bcea4f7d6e60d7b42f6c6c",
                "assets": [
                    {
                        "address": "0xa74476443119a942de498590fe1f2454d7d4ac0d",
                        "amount": "100,000",
                        "iconUrl": "",
                        "isERC1155": false,
                        "isERC721": false,
                        "sign": true,
                        "value": ""
                    }
                ]
            },
            {
                "account": "0xaf4ace80410fe1274a2244a3714d387c11b020a8",
                "assets": [
                    {
                        "address": "0xa74476443119a942de498590fe1f2454d7d4ac0d",
                        "amount": "100,000",
                        "iconUrl": "",
                        "isERC1155": false,
                        "isERC721": false,
                        "sign": false,
                        "value": ""
                    }
                ]
            }
        ]
    },
    "profile": {
        "basic_info": {
            "baseFee": "",
            "blockNumber": 3021960,
            "callData": "0x8d92fdf300000000000000000000000000000000000000000000152d02c7e14af6800000",
            "debugEnable": true,
            "errorInfo": "",
            "eventCount": 1,
            "feeRecipient": "0x61c808d82a3ac53231750dadc13c777b59310bd9",
            "formatValue": "0",
            "gasLimit": 138112,
            "gasPrice": "77",
            "gasUsed": 38112,
            "intTxnCount": 1,
            "internalRevert": false,
            "internalRevertMessage": "",
            "isContractCreation": false,
            "isFlashloan": false,
            "maxFee": "",
            "nonce": 39,
            "overwritedBlockNumber": -1,
            "priorityFee": "",
            "receiver": "0xaf4ace80410fe1274a2244a3714d387c11b020a8",
            "revertMessage": "",
            "sender": "0x481da0f1e89c206712bcea4f7d6e60d7b42f6c6c",
            "simulationEnable": true,
            "sourceTxnHash": "0xdeaf65b3127f85e70808c4f6670ca73eb520f6b311c05587786a6186876b11f7",
            "status": true,
            "timestamp": "2017-01-19T01:18:29Z",
            "transactionFee": "0.002934624",
            "txnHash": "0xdeaf65b3127f85e70808c4f6670ca73eb520f6b311c05587786a6186876b11f7",
            "txnIndex": 0,
            "type": 0,
            "value": "0"
        },
        "fund_flow": [
            {
                "amount": "100,000",
                "from": "0xaf4ace80410fe1274a2244a3714d387c11b020a8",
                "id": 1,
                "isERC1155": false,
                "isERC721": false,
                "isReverted": false,
                "order": 1,
                "to": "0x481da0f1e89c206712bcea4f7d6e60d7b42f6c6c",
                "token": "0xa74476443119a942de498590fe1f2454d7d4ac0d"
            }
        ],
        "token_infos": [
            {
                "address": "0xa74476443119a942de498590fe1f2454d7d4ac0d",
                "decimals": 18
            },
            {
                "address": "0xc02aaa39b223fe8d0a0e5c4f27ead9083c756cc2",
                "decimals": 18
            },
            {
                "address": "0xeeeeeeeeeeeeeeeeeeeeeeeeeeeeeeeeeeeeeeee",
                "decimals": 18
            }
        ]
    },
    "address_label": {
        "labels": [
            {
                "address": "0x0000000000000000000000000000000000000004",
                "label": "Precompiled"
            },
            {
                "address": "0xeeeeeeeeeeeeeeeeeeeeeeeeeeeeeeeeeeeeeeee",
                "label": "Ether"
            },
            {
                "address": "0xa74476443119a942de498590fe1f2454d7d4ac0d",
                "label": "Golem Token"
            },
            {
                "address": "0xaf4ace80410fe1274a2244a3714d387c11b020a8",
                "label": "TokenTrader"
            },
            {
                "address": "0x0000000000000000000000000000000000000001",
                "label": "Precompiled"
            },
            {
                "address": "0x0000000000000000000000000000000000000002",
                "label": "Precompiled"
            },
            {
                "address": "0x0000000000000000000000000000000000000003",
                "label": "Precompiled"
            }
        ]
    },
    "trace": {
        "accountLabels": null,
        "dataMap": {
            "-1": {
                "invocation": {
                    "address": "0x481da0f1e89c206712bcea4f7d6e60d7b42f6c6c",
                    "callData": "",
                    "decodedMethod": null,
                    "errorInfo": "",
                    "fromAddress": "",
                    "gasUsed": 0,
                    "id": -1,
                    "methodDecoded": false,
                    "operation": "",
                    "output": "",
                    "revert": false,
                    "revertMessage": "",
                    "selector": "",
                    "status": false,
                    "value": ""
                },
                "nodeType": 0
            },
            "0": {
                "invocation": {
                    "address": "0xaf4ace80410fe1274a2244a3714d387c11b020a8",
                    "callData": "0x00000000000000000000000000000000000000000000152d02c7e14af6800000",
                    "decodedMethod": {
                        "callParams": [
                            {
                                "name": "_value",
                                "type": "uint256",
                                "value": "100,000,000,000,000,000,000,000"
                            }
                        ],
                        "constructorArguments": "",
                        "name": "withdrawAsset",
                        "returnParams": [
                            {
                                "name": "ok",
                                "type": "bool",
                                "value": true
                            }
                        ],
                        "signature": "withdrawAsset(uint256)"
                    },
                    "errorInfo": "",
                    "fromAddress": "0x481da0f1e89c206712bcea4f7d6e60d7b42f6c6c",
                    "gasUsed": 38112,
                    "id": 0,
                    "methodDecoded": true,
                    "operation": "CALL",
                    "output": "0x0000000000000000000000000000000000000000000000000000000000000001",
                    "revert": false,
                    "revertMessage": "",
                    "selector": "0x8d92fdf3",
                    "status": true,
                    "value": "0"
                },
                "nodeType": 0
            },
            "1": {
                "invocation": {
                    "address": "0xa74476443119a942de498590fe1f2454d7d4ac0d",
                    "callData": "0x000000000000000000000000481da0f1e89c206712bcea4f7d6e60d7b42f6c6c00000000000000000000000000000000000000000000152d02c7e14af6800000",
                    "decodedMethod": {
                        "callParams": [
                            {
                                "name": "_to",
                                "type": "address",
                                "value": "0x481da0f1e89c206712bcea4f7d6e60d7b42f6c6c"
                            },
                            {
                                "decimalAvailable": true,
                                "name": "_value",
                                "type": "uint256",
                                "value": "100,000,000,000,000,000,000,000"
                            }
                        ],
                        "constructorArguments": "",
                        "name": "transfer",
                        "returnParams": [
                            {
                                "name": "",
                                "type": "bool",
                                "value": true
                            }
                        ],
                        "signature": "transfer(address,uint256)"
                    },
                    "errorInfo": "",
                    "fromAddress": "0xaf4ace80410fe1274a2244a3714d387c11b020a8",
                    "gasUsed": 13528,
                    "id": 1,
                    "methodDecoded": true,
                    "operation": "CALL",
                    "output": "0x0000000000000000000000000000000000000000000000000000000000000001",
                    "revert": false,
                    "revertMessage": "",
                    "selector": "0xa9059cbb",
                    "status": true,
                    "value": "0"
                },
                "nodeType": 0
            },
            "2": {
                "event": {
                    "contract": "0xa74476443119a942de498590fe1f2454d7d4ac0d",
                    "decodedLog": {
                        "name": "Transfer",
                        "params": [
                            {
                                "name": "_from",
                                "type": "address",
                                "value": "0xaf4ace80410fe1274a2244a3714d387c11b020a8"
                            },
                            {
                                "name": "_to",
                                "type": "address",
                                "value": "0x481da0f1e89c206712bcea4f7d6e60d7b42f6c6c"
                            },
                            {
                                "decimalAvailable": true,
                                "name": "_value",
                                "type": "uint256",
                                "value": "100,000,000,000,000,000,000,000"
                            }
                        ],
                        "signature": "Transfer(address,address,uint256)"
                    },
                    "id": 2,
                    "logData": "0x00000000000000000000000000000000000000000000152d02c7e14af6800000",
                    "logDecoded": true,
                    "operation": "EVENT",
                    "revert": false,
                    "status": true,
                    "topics": [
                        "0xddf252ad1be2c89b69c2b068fc378daa952ba7f163c4a11628f55a4df523b3ef",
                        "0x000000000000000000000000af4ace80410fe1274a2244a3714d387c11b020a8",
                        "0x000000000000000000000000481da0f1e89c206712bcea4f7d6e60d7b42f6c6c"
                    ]
                },
                "nodeType": 1
            }
        },
        "gasFlame": [
            {
                "children": [
                    {
                        "children": [
                            {
                                "children": [],
                                "depth": 0,
                                "name": "Initial Gas",
                                "value": 21912
                            },
                            {
                                "children": [
                                    {
                                        "children": [],
                                        "depth": 1,
                                        "name": "transfer",
                                        "value": 13528
                                    }
                                ],
                                "depth": 0,
                                "name": "Executed Gas",
                                "value": 16200
                            }
                        ],
                        "depth": -1,
                        "name": "Actual Gas Used",
                        "value": 38112
                    },
                    {
                        "children": [],
                        "depth": -1,
                        "name": "Refunded Gas",
                        "value": 0
                    }
                ],
                "depth": -2,
                "name": "Total Gas",
                "value": 38112
            }
        ],
        "isConfirmed": true,
        "mainTrace": [
            {
                "children": [
                    {
                        "children": [
                            {
                                "children": [
                                    {
                                        "children": [],
                                        "depth": 2,
                                        "id": 2,
                                        "order": 2
                                    }
                                ],
                                "depth": 1,
                                "id": 1,
                                "order": 1
                            }
                        ],
                        "depth": 0,
                        "id": 0,
                        "order": 0
                    }
                ],
                "depth": -1,
                "id": -1,
                "order": -1
            }
        ],
        "mainTraceNodeCount": 3,
        "parentIdMap": {
            "0": -1,
            "1": 0,
            "2": 1
        },
        "tidyTrace": [
            {
                "children": [
                    {
                        "children": [
                            {
                                "children": [
                                    {
                                        "children": [],
                                        "depth": 2,
                                        "id": 2,
                                        "order": 2
                                    }
                                ],
                                "depth": 1,
                                "id": 1,
                                "order": 1
                            }
                        ],
                        "depth": 0,
                        "id": 0,
                        "order": 0
                    }
                ],
                "depth": -1,
                "id": -1,
                "order": -1
            }
        ],
        "tidyTraceNodeCount": 3
    },
    "state_change": {
        "stateChanges": [
            {
                "address": "0xa74476443119a942de498590fe1f2454d7d4ac0d",
                "erc": "",
                "slots": [
                    {
                        "current": "0x000000000000000000000000000000000000000000000004dcb574236df792c0",
                        "key": "0xa1ba09caa73560adb04faf0c06a9ace7d2cffd11a09d25c34b0eae59ea4b05b1",
                        "prev": "0x000000000000000000000000000000000000000000001531df7d556e647792c0"
                    },
                    {
                        "current": "0x0000000000000000000000000000000000000000000015f691a24485aded2080",
                        "key": "0x8e7e27eac985d828e1bbbb933f5a83ea71894469580435ea036e2325a837ace6",
                        "prev": "0x0000000000000000000000000000000000000000000000c98eda633ab76d2080"
                    }
                ],
                "storageVariables": []
            }
        ]
    }
}