{
    "balance_change": {
        "balanceChanges": [
            {
                "account": "0xd7723c591ae3477503d6a419a9cc173ae13a75cd",
                "assets": [
                    {
                        "address": "0xeeeeeeeeeeeeeeeeeeeeeeeeeeeeeeeeeeeeeeee",
                        "amount": "184.6635157391894",
                        "iconUrl": "https://assets.blocksec.com/image/1663669189317-3.png",
                        "isERC1155": false,
                        "isERC721": false,
                        "sign": true,
                        "value": "78684.24023"
                    },
                    {
                        "address": "0x514910771af9ca656af840dff83e8264ecf986ca",
                        "amount": "4,975.515185983986377425",
                        "iconUrl": "https://assets.blocksec.com/icon/f97453a18956674db69f16b525216d646fc76f3c7f90f0cd6147f8534d5af3e9.png",
                        "isERC1155": false,
                        "isERC721": false,
                        "sign": false,
                        "value": "79663.47826"
                    }
                ]
            },
            {
                "account": "0x63825c174ab367968ec60f061753d3bbd36a0d8f",
                "assets": [
                    {
                        "address": "0x514910771af9ca656af840dff83e8264ecf986ca",
                        "amount": "4,975.515185983986377425",
                        "iconUrl": "https://assets.blocksec.com/icon/f97453a18956674db69f16b525216d646fc76f3c7f90f0cd6147f8534d5af3e9.png",
                        "isERC1155": false,
                        "isERC721": false,
                        "sign": true,
                        "value": "79663.47826"
                    },
                    {
                        "address": "0xeeeeeeeeeeeeeeeeeeeeeeeeeeeeeeeeeeeeeeee",
                        "amount": "185.498257899738221998",
                        "iconUrl": "https://assets.blocksec.com/image/1663669189317-3.png",
                        "isERC1155": false,
                        "isERC721": false,
                        "sign": false,
                        "value": "79039.91988"
                    }
                ]
            },
            {
                "account": "0x7c66550c9c730b6fdd4c03bc2e73c5462c5f7acc",
                "assets": [
                    {
                        "address": "0xeeeeeeeeeeeeeeeeeeeeeeeeeeeeeeeeeeeeeeee",
                        "amount": "0.000000000000000001",
                        "iconUrl": "https://assets.blocksec.com/image/1663669189317-3.png",
                        "isERC1155": false,
                        "isERC721": false,
                        "sign": true,
                        "value": ""
                    }
                ]
            },
            {
                "account": "0xd3d2b5643e506c6d9b7099e9116d7aaa941114fe",
                "assets": [
                    {
                        "address": "0xeeeeeeeeeeeeeeeeeeeeeeeeeeeeeeeeeeeeeeee",
                        "amount": "0.834742160548821997",
                        "iconUrl": "https://assets.blocksec.com/image/1663669189317-3.png",
                        "isERC1155": false,
                        "isERC721": false,
                        "sign": true,
                        "value": "355.6796394"
                    }
                ]
            }
        ]
    },
    "profile": {
        "basic_info": {
            "baseFee": "",
            "blockNumber": 10685848,
            "callData": "0xae591d54000000000000000000000000514910771af9ca656af840dff83e8264ecf986ca00000000000000000000000000000000000000000000010f0cf064dd59200000000000000000000000000000eeeeeeeeeeeeeeeeeeeeeeeeeeeeeeeeeeeeeeee000000000000000000000000d7723c591ae3477503d6a419a9cc173ae13a75cd00000000000000000000000000000000000000000000000a02b8992cf123d1c0000000000000000000000000000000000000000000000000007f43de8c54ea28000000000000000000000000f1aa99c69715f423086008eb9d06dc1e35cc504d000000000000000000000000000000000000000000000000000000000000001900000000000000000000000000000000000000000000000000000000000001200000000000000000000000000000000000000000000000000000000000000000",
            "debugEnable": true,
            "errorInfo": "",
            "eventCount": 8,
            "feeRecipient": "0x04668ec2f57cc15c381b461b9fedab5d451c8f7f",
            "formatValue": "0",
            "gasLimit": 884000,
            "gasPrice": "78.1",
            "gasUsed": 492819,
            "intTxnCount": 32,
            "internalRevert": false,
            "internalRevertMessage": "",
            "isContractCreation": false,
            "isFlashloan": false,
            "maxFee": "",
            "nonce": 10,
            "overwritedBlockNumber": -1,
            "priorityFee": "",
            "receiver": "0x9aab3f75489902f3a48495025729a0af77d4b11e",
            "revertMessage": "",
            "sender": "0xd7723c591ae3477503d6a419a9cc173ae13a75cd",
            "simulationEnable": true,
            "sourceTxnHash": "0xdf412e865ee19a3f2e95371b9e0faf7e1abee828c6b5835446f4f9f05a55abc5",
            "status": true,
            "timestamp": "2020-08-18T19:09:07Z",
            "transactionFee": "0.0384891639",
            "txnHash": "0xdf412e865ee19a3f2e95371b9e0faf7e1abee828c6b5835446f4f9f05a55abc5",
            "txnIndex": 139,
            "type": 0,
            "value": "0"
        },
        "fund_flow": [
            {
                "amount": "5,000",
                "from": "0xd7723c591ae3477503d6a419a9cc173ae13a75cd",
                "id": 1,
                "isERC1155": false,
                "isERC721": false,
                "isReverted": false,
                "order": 1,
                "to": "0x7c66550c9c730b6fdd4c03bc2e73c5462c5f7acc",
                "token": "0x514910771af9ca656af840dff83e8264ecf986ca"
            },
            {
                "amount": "4,975.515185983986377425",
                "from": "0x7c66550c9c730b6fdd4c03bc2e73c5462c5f7acc",
                "id": 2,
                "isERC1155": false,
                "isERC721": false,
                "isReverted": false,
                "order": 2,
                "to": "0x63825c174ab367968ec60f061753d3bbd36a0d8f",
                "token": "0x514910771af9ca656af840dff83e8264ecf986ca"
            },
            {
                "amount": "185.498257899738221998",
                "from": "0x63825c174ab367968ec60f061753d3bbd36a0d8f",
                "id": 3,
                "isERC1155": false,
                "isERC721": false,
                "isReverted": false,
                "order": 3,
                "to": "0x7c66550c9c730b6fdd4c03bc2e73c5462c5f7acc",
                "token": "0xeeeeeeeeeeeeeeeeeeeeeeeeeeeeeeeeeeeeeeee"
            },
            {
                "amount": "184.6635157391894",
                "from": "0x7c66550c9c730b6fdd4c03bc2e73c5462c5f7acc",
                "id": 4,
                "isERC1155": false,
                "isERC721": false,
                "isReverted": false,
                "order": 4,
                "to": "0xd7723c591ae3477503d6a419a9cc173ae13a75cd",
                "token": "0xeeeeeeeeeeeeeeeeeeeeeeeeeeeeeeeeeeeeeeee"
            },
            {
                "amount": "24.484814016013622575",
                "from": "0x7c66550c9c730b6fdd4c03bc2e73c5462c5f7acc",
                "id": 5,
                "isERC1155": false,
                "isERC721": false,
                "isReverted": false,
                "order": 5,
                "to": "0xd7723c591ae3477503d6a419a9cc173ae13a75cd",
                "token": "0x514910771af9ca656af840dff83e8264ecf986ca"
            },
            {
                "amount": "0.834742160548821997",
                "from": "0x7c66550c9c730b6fdd4c03bc2e73c5462c5f7acc",
                "id": 6,
                "isERC1155": false,
                "isERC721": false,
                "isReverted": false,
                "order": 6,
                "to": "0xd3d2b5643e506c6d9b7099e9116d7aaa941114fe",
                "token": "0xeeeeeeeeeeeeeeeeeeeeeeeeeeeeeeeeeeeeeeee"
            }
        ],
        "token_infos": [
            {
                "address": "0x514910771af9ca656af840dff83e8264ecf986ca",
                "decimals": 18
            },
            {
                "address": "0xc02aaa39b223fe8d0a0e5c4f27ead9083c756cc2",
                "decimals": 18
            },
            {
                "address": "0xeeeeeeeeeeeeeeeeeeeeeeeeeeeeeeeeeeeeeeee",
                "decimals": 18
            }
        ]
    },
    "address_label": {
        "labels": [
            {
                "address": "0x7a250d5630b4cf539739df2c5dacb4c659f2488d",
                "label": "Uniswap V2: Router 2"
            },
            {
                "address": "0xc8fb12402cb16970f3c5f4b48ff68eb9d1289301",
                "label": "Kyber: Storage"
            },
            {
                "address": "0xd3d2b5643e506c6d9b7099e9116d7aaa941114fe",
                "label": "Kyber: Fee Handler"
            },
            {
                "address": "0x0000000000000000000000000000000000000002",
                "label": "Precompiled"
            },
            {
                "address": "0x0000000000000000000000000000000000000004",
                "label": "Precompiled"
            },
            {
                "address": "0xa2107fa5b38d9bbd2c461d6edf11b11a50f6b974",
                "label": "Uniswap V2: LINK"
            },
            {
                "address": "0xfb80bfa19cae9e00f28b0f7e1023109deeb10483",
                "label": "0xfb80_ConversionRates"
            },
            {
                "address": "0x63825c174ab367968ec60f061753d3bbd36a0d8f",
                "label": "Kyber: Reserve"
            },
            {
                "address": "0x7a3370075a54b187d7bd5dcebf0ff2b5552d4f7d",
                "label": "Kyber: Reserve 2"
            },
            {
                "address": "0xa1c0fa73c39cfbcc11ec9eb1afc665aba9996e2c",
                "label": "Kyber: Matching Engine"
            },
            {
                "address": "0x0559324025d6ef4a715c2e22562b90210fcfe25a",
                "label": "0x0559_ConversionRates"
            },
            {
                "address": "0x514910771af9ca656af840dff83e8264ecf986ca",
                "label": "Chainlink: LINK Token"
            },
            {
                "address": "0x7c66550c9c730b6fdd4c03bc2e73c5462c5f7acc",
                "label": "Kyber: Contract 2"
            },
            {
                "address": "0x10908c875d865c66f271f5d3949848971c9595c9",
                "label": "Kyber: Reserve Uniswap V2"
            },
            {
                "address": "0xbaf075545c3a56ecbaf219e4a1b69bc2b94b0b75",
                "label": "0xbaf0_ConversionRates"
            },
            {
                "address": "0x0000000000000000000000000000000000000003",
                "label": "Precompiled"
            },
            {
                "address": "0xeeeeeeeeeeeeeeeeeeeeeeeeeeeeeeeeeeeeeeee",
                "label": "Ether"
            },
            {
                "address": "0xc02aaa39b223fe8d0a0e5c4f27ead9083c756cc2",
                "label": "Wrapped Ether (WETH)"
            },
            {
                "address": "0x9aab3f75489902f3a48495025729a0af77d4b11e",
                "label": "Kyber: Proxy 2"
            },
            {
                "address": "0x4f32bbe8dfc9efd54345fc936f9fef1048746fcf",
                "label": "KyberReserve"
            },
            {
                "address": "0x4a1581d6fb28b5868051beef8f1af432adde69ed",
                "label": "SanityRates"
            },
            {
                "address": "0x0000000000000000000000000000000000000001",
                "label": "Precompiled"
            }
        ]
    },
    "trace": {
        "accountLabels": null,
        "dataMap": {
            "-1": {
                "invocation": {
                    "address": "0xd7723c591ae3477503d6a419a9cc173ae13a75cd",
                    "callData": "",
                    "decodedMethod": null,
                    "errorInfo": "",
                    "fromAddress": "",
                    "gasUsed": 0,
                    "id": -1,
                    "methodDecoded": false,
                    "operation": "",
                    "output": "",
                    "revert": false,
                    "revertMessage": "",
                    "selector": "",
                    "status": false,
                    "value": ""
                },
                "nodeType": 0
            },
            "0": {
                "invocation": {
                    "address": "0x9aab3f75489902f3a48495025729a0af77d4b11e",
                    "callData": "0x000000000000000000000000514910771af9ca656af840dff83e8264ecf986ca00000000000000000000000000000000000000000000010f0cf064dd59200000000000000000000000000000eeeeeeeeeeeeeeeeeeeeeeeeeeeeeeeeeeeeeeee000000000000000000000000d7723c591ae3477503d6a419a9cc173ae13a75cd00000000000000000000000000000000000000000000000a02b8992cf123d1c0000000000000000000000000000000000000000000000000007f43de8c54ea28000000000000000000000000f1aa99c69715f423086008eb9d06dc1e35cc504d000000000000000000000000000000000000000000000000000000000000001900000000000000000000000000000000000000000000000000000000000001200000000000000000000000000000000000000000000000000000000000000000",
                    "decodedMethod": {
                        "callParams": [
                            {
                                "name": "src",
                                "type": "address",
                                "value": "0x514910771af9ca656af840dff83e8264ecf986ca"
                            },
                            {
                                "name": "srcAmount",
                                "type": "uint256",
                                "value": "5,000,000,000,000,000,000,000"
                            },
                            {
                                "name": "dest",
                                "type": "address",
                                "value": "0xeeeeeeeeeeeeeeeeeeeeeeeeeeeeeeeeeeeeeeee"
                            },
                            {
                                "name": "destAddress",
                                "type": "address",
                                "value": "0xd7723c591ae3477503d6a419a9cc173ae13a75cd"
                            },
                            {
                                "name": "maxDestAmount",
                                "type": "uint256",
                                "value": "184,663,515,739,189,400,000"
                            },
                            {
                                "name": "minConversionRate",
                                "type": "uint256",
                                "value": "35,821,945,158,429,224"
                            },
                            {
                                "name": "platformWallet",
                                "type": "address",
                                "value": "0xf1aa99c69715f423086008eb9d06dc1e35cc504d"
                            },
                            {
                                "name": "platformFeeBps",
                                "type": "uint256",
                                "value": "25"
                            },
                            {
                                "name": "hint",
                                "type": "bytes",
                                "value": "0x"
                            }
                        ],
                        "constructorArguments": "",
                        "name": "tradeWithHintAndFee",
                        "returnParams": [
                            {
                                "name": "destAmount",
                                "type": "uint256",
                                "value": "184,663,515,739,189,400,000"
                            }
                        ],
                        "signature": "tradeWithHintAndFee(address,uint256,address,address,uint256,uint256,address,uint256,bytes)"
                    },
                    "errorInfo": "",
                    "fromAddress": "0xd7723c591ae3477503d6a419a9cc173ae13a75cd",
                    "gasUsed": 492819,
                    "id": 0,
                    "methodDecoded": true,
                    "operation": "CALL",
                    "output": "0x00000000000000000000000000000000000000000000000a02b8992cf123d1c0",
                    "revert": false,
                    "revertMessage": "",
                    "selector": "0xae591d54",
                    "status": true,
                    "value": "0"
                },
                "nodeType": 0
            },
            "1": {
                "invocation": {
                    "address": "0x514910771af9ca656af840dff83e8264ecf986ca",
                    "callData": "0x000000000000000000000000d7723c591ae3477503d6a419a9cc173ae13a75cd",
                    "decodedMethod": {
                        "callParams": [
                            {
                                "name": "_owner",
                                "type": "address",
                                "value": "0xd7723c591ae3477503d6a419a9cc173ae13a75cd"
                            }
                        ],
                        "constructorArguments": "",
                        "name": "balanceOf",
                        "returnParams": [
                            {
                                "decimalAvailable": true,
                                "name": "balance",
                                "type": "uint256",
                                "value": "20,097,686,179,308,518,542,525"
                            }
                        ],
                        "signature": "balanceOf(address)"
                    },
                    "errorInfo": "",
                    "fromAddress": "0x9aab3f75489902f3a48495025729a0af77d4b11e",
                    "gasUsed": 1355,
                    "id": 1,
                    "methodDecoded": true,
                    "operation": "STATICCALL",
                    "output": "0x0000000000000000000000000000000000000000000004417f6c99f9e1dc8cbd",
                    "revert": false,
                    "revertMessage": "",
                    "selector": "0x70a08231",
                    "status": true,
                    "value": "0"
                },
                "nodeType": 0
            },
            "10": {
                "invocation": {
                    "address": "0xbaf075545c3a56ecbaf219e4a1b69bc2b94b0b75",
                    "callData": "0x000000000000000000000000514910771af9ca656af840dff83e8264ecf986ca0000000000000000000000000000000000000000000000000000000000a30d98000000000000000000000000000000000000000000000000000000000000000000000000000000000000000000000000000000000000010f0cf064dd59200000",
                    "decodedMethod": {
                        "callParams": [
                            {
                                "name": "token",
                                "type": "address",
                                "value": "0x514910771af9ca656af840dff83e8264ecf986ca"
                            },
                            {
                                "name": "currentBlockNumber",
                                "type": "uint256",
                                "value": "10,685,848"
                            },
                            {
                                "name": "buy",
                                "type": "bool",
                                "value": false
                            },
                            {
                                "name": "qty",
                                "type": "uint256",
                                "value": "5,000,000,000,000,000,000,000"
                            }
                        ],
                        "constructorArguments": "",
                        "name": "getRate",
                        "returnParams": [
                            {
                                "name": "",
                                "type": "uint256",
                                "value": "37,282,221,230,534,346"
                            }
                        ],
                        "signature": "getRate(address,uint256,bool,uint256)"
                    },
                    "errorInfo": "",
                    "fromAddress": "0x63825c174ab367968ec60f061753d3bbd36a0d8f",
                    "gasUsed": 48259,
                    "id": 10,
                    "methodDecoded": true,
                    "operation": "CALL",
                    "output": "0x000000000000000000000000000000000000000000000000008473fb90e22eca",
                    "revert": false,
                    "revertMessage": "",
                    "selector": "0xb8e9c22e",
                    "status": true,
                    "value": "0"
                },
                "nodeType": 0
            },
            "11": {
                "invocation": {
                    "address": "0xa2d951a22d5c0256fc2daee7e2b3ede75ebfa22d",
                    "callData": "0x000000000000000000000000514910771af9ca656af840dff83e8264ecf986ca000000000000000000000000eeeeeeeeeeeeeeeeeeeeeeeeeeeeeeeeeeeeeeee",
                    "decodedMethod": {
                        "callParams": [
                            {
                                "name": "src",
                                "type": "address",
                                "value": "0x514910771af9ca656af840dff83e8264ecf986ca"
                            },
                            {
                                "name": "dest",
                                "type": "address",
                                "value": "0xeeeeeeeeeeeeeeeeeeeeeeeeeeeeeeeeeeeeeeee"
                            }
                        ],
                        "constructorArguments": "",
                        "name": "getSanityRate",
                        "returnParams": [
                            {
                                "name": "",
                                "type": "uint256",
                                "value": "42,610,158,051,330,786"
                            }
                        ],
                        "signature": "getSanityRate(address,address)"
                    },
                    "errorInfo": "",
                    "fromAddress": "0x63825c174ab367968ec60f061753d3bbd36a0d8f",
                    "gasUsed": 2470,
                    "id": 11,
                    "methodDecoded": true,
                    "operation": "CALL",
                    "output": "0x000000000000000000000000000000000000000000000000009761b686790ae2",
                    "revert": false,
                    "revertMessage": "",
                    "selector": "0xa58092b7",
                    "status": true,
                    "value": "0"
                },
                "nodeType": 0
            },
            "12": {
                "invocation": {
                    "address": "0x7a3370075a54b187d7bd5dcebf0ff2b5552d4f7d",
                    "callData": "0x000000000000000000000000514910771af9ca656af840dff83e8264ecf986ca000000000000000000000000eeeeeeeeeeeeeeeeeeeeeeeeeeeeeeeeeeeeeeee00000000000000000000000000000000000000000000010f0cf064dd592000000000000000000000000000000000000000000000000000000000000000a30d98",
                    "decodedMethod": {
                        "callParams": [
                            {
                                "name": "src",
                                "type": "address",
                                "value": "0x514910771af9ca656af840dff83e8264ecf986ca"
                            },
                            {
                                "name": "dest",
                                "type": "address",
                                "value": "0xeeeeeeeeeeeeeeeeeeeeeeeeeeeeeeeeeeeeeeee"
                            },
                            {
                                "name": "srcQty",
                                "type": "uint256",
                                "value": "5,000,000,000,000,000,000,000"
                            },
                            {
                                "name": "blockNumber",
                                "type": "uint256",
                                "value": "10,685,848"
                            }
                        ],
                        "constructorArguments": "",
                        "name": "getConversionRate",
                        "returnParams": [
                            {
                                "name": "",
                                "type": "uint256",
                                "value": "37,124,939,498,330,843"
                            }
                        ],
                        "signature": "getConversionRate(address,address,uint256,uint256)"
                    },
                    "errorInfo": "",
                    "fromAddress": "0x7c66550c9c730b6fdd4c03bc2e73c5462c5f7acc",
                    "gasUsed": 58610,
                    "id": 12,
                    "methodDecoded": true,
                    "operation": "STATICCALL",
                    "output": "0x0000000000000000000000000000000000000000000000000083e4ef8f1b1adb",
                    "revert": false,
                    "revertMessage": "",
                    "selector": "0x7cd44272",
                    "status": true,
                    "value": "0"
                },
                "nodeType": 0
            },
            "13": {
                "invocation": {
                    "address": "0xfb80bfa19cae9e00f28b0f7e1023109deeb10483",
                    "callData": "0x000000000000000000000000514910771af9ca656af840dff83e8264ecf986ca0000000000000000000000000000000000000000000000000000000000a30d98000000000000000000000000000000000000000000000000000000000000000000000000000000000000000000000000000000000000010f0cf064dd59200000",
                    "decodedMethod": {
                        "callParams": [
                            {
                                "name": "token",
                                "type": "address",
                                "value": "0x514910771af9ca656af840dff83e8264ecf986ca"
                            },
                            {
                                "name": "currentBlockNumber",
                                "type": "uint256",
                                "value": "10,685,848"
                            },
                            {
                                "name": "buy",
                                "type": "bool",
                                "value": false
                            },
                            {
                                "name": "qty",
                                "type": "uint256",
                                "value": "5,000,000,000,000,000,000,000"
                            }
                        ],
                        "constructorArguments": "",
                        "name": "getRate",
                        "returnParams": [
                            {
                                "name": "",
                                "type": "uint256",
                                "value": "37,124,939,498,330,843"
                            }
                        ],
                        "signature": "getRate(address,uint256,bool,uint256)"
                    },
                    "errorInfo": "",
                    "fromAddress": "0x7a3370075a54b187d7bd5dcebf0ff2b5552d4f7d",
                    "gasUsed": 48467,
                    "id": 13,
                    "methodDecoded": true,
                    "operation": "CALL",
                    "output": "0x0000000000000000000000000000000000000000000000000083e4ef8f1b1adb",
                    "revert": false,
                    "revertMessage": "",
                    "selector": "0xb8e9c22e",
                    "status": true,
                    "value": "0"
                },
                "nodeType": 0
            },
            "14": {
                "invocation": {
                    "address": "0x514910771af9ca656af840dff83e8264ecf986ca",
                    "callData": "0x",
                    "decodedMethod": {
                        "callParams": [],
                        "constructorArguments": "",
                        "name": "decimals",
                        "returnParams": [
                            {
                                "name": "",
                                "type": "uint8",
                                "value": "18"
                            }
                        ],
                        "signature": "decimals()"
                    },
                    "errorInfo": "",
                    "fromAddress": "0x7a3370075a54b187d7bd5dcebf0ff2b5552d4f7d",
                    "gasUsed": 267,
                    "id": 14,
                    "methodDecoded": true,
                    "operation": "CALL",
                    "output": "0x0000000000000000000000000000000000000000000000000000000000000012",
                    "revert": false,
                    "revertMessage": "",
                    "selector": "0x313ce567",
                    "status": true,
                    "value": "0"
                },
                "nodeType": 0
            },
            "15": {
                "invocation": {
                    "address": "0x4f32bbe8dfc9efd54345fc936f9fef1048746fcf",
                    "callData": "0x000000000000000000000000514910771af9ca656af840dff83e8264ecf986ca000000000000000000000000eeeeeeeeeeeeeeeeeeeeeeeeeeeeeeeeeeeeeeee00000000000000000000000000000000000000000000010f0cf064dd592000000000000000000000000000000000000000000000000000000000000000a30d98",
                    "decodedMethod": {
                        "callParams": [
                            {
                                "name": "src",
                                "type": "address",
                                "value": "0x514910771af9ca656af840dff83e8264ecf986ca"
                            },
                            {
                                "name": "dest",
                                "type": "address",
                                "value": "0xeeeeeeeeeeeeeeeeeeeeeeeeeeeeeeeeeeeeeeee"
                            },
                            {
                                "name": "srcQty",
                                "type": "uint256",
                                "value": "5,000,000,000,000,000,000,000"
                            },
                            {
                                "name": "blockNumber",
                                "type": "uint256",
                                "value": "10,685,848"
                            }
                        ],
                        "constructorArguments": "",
                        "name": "getConversionRate",
                        "returnParams": [
                            {
                                "name": "",
                                "type": "uint256",
                                "value": "0"
                            }
                        ],
                        "signature": "getConversionRate(address,address,uint256,uint256)"
                    },
                    "errorInfo": "",
                    "fromAddress": "0x7c66550c9c730b6fdd4c03bc2e73c5462c5f7acc",
                    "gasUsed": 58561,
                    "id": 15,
                    "methodDecoded": true,
                    "operation": "STATICCALL",
                    "output": "0x0000000000000000000000000000000000000000000000000000000000000000",
                    "revert": false,
                    "revertMessage": "",
                    "selector": "0x7cd44272",
                    "status": true,
                    "value": "0"
                },
                "nodeType": 0
            },
            "16": {
                "invocation": {
                    "address": "0x0559324025d6ef4a715c2e22562b90210fcfe25a",
                    "callData": "0x000000000000000000000000514910771af9ca656af840dff83e8264ecf986ca0000000000000000000000000000000000000000000000000000000000a30d98000000000000000000000000000000000000000000000000000000000000000000000000000000000000000000000000000000000000010f0cf064dd59200000",
                    "decodedMethod": {
                        "callParams": [
                            {
                                "name": "token",
                                "type": "address",
                                "value": "0x514910771af9ca656af840dff83e8264ecf986ca"
                            },
                            {
                                "name": "currentBlockNumber",
                                "type": "uint256",
                                "value": "10,685,848"
                            },
                            {
                                "name": "buy",
                                "type": "bool",
                                "value": false
                            },
                            {
                                "name": "qty",
                                "type": "uint256",
                                "value": "5,000,000,000,000,000,000,000"
                            }
                        ],
                        "constructorArguments": "",
                        "name": "getRate",
                        "returnParams": [
                            {
                                "name": "",
                                "type": "uint256",
                                "value": "0"
                            }
                        ],
                        "signature": "getRate(address,uint256,bool,uint256)"
                    },
                    "errorInfo": "",
                    "fromAddress": "0x4f32bbe8dfc9efd54345fc936f9fef1048746fcf",
                    "gasUsed": 42979,
                    "id": 16,
                    "methodDecoded": true,
                    "operation": "CALL",
                    "output": "0x0000000000000000000000000000000000000000000000000000000000000000",
                    "revert": false,
                    "revertMessage": "",
                    "selector": "0xb8e9c22e",
                    "status": true,
                    "value": "0"
                },
                "nodeType": 0
            },
            "17": {
                "invocation": {
                    "address": "0x514910771af9ca656af840dff83e8264ecf986ca",
                    "callData": "0x",
                    "decodedMethod": {
                        "callParams": [],
                        "constructorArguments": "",
                        "name": "decimals",
                        "returnParams": [
                            {
                                "name": "",
                                "type": "uint8",
                                "value": "18"
                            }
                        ],
                        "signature": "decimals()"
                    },
                    "errorInfo": "",
                    "fromAddress": "0x4f32bbe8dfc9efd54345fc936f9fef1048746fcf",
                    "gasUsed": 267,
                    "id": 17,
                    "methodDecoded": true,
                    "operation": "CALL",
                    "output": "0x0000000000000000000000000000000000000000000000000000000000000012",
                    "revert": false,
                    "revertMessage": "",
                    "selector": "0x313ce567",
                    "status": true,
                    "value": "0"
                },
                "nodeType": 0
            },
            "18": {
                "invocation": {
                    "address": "0x4a1581d6fb28b5868051beef8f1af432adde69ed",
                    "callData": "0x000000000000000000000000514910771af9ca656af840dff83e8264ecf986ca000000000000000000000000eeeeeeeeeeeeeeeeeeeeeeeeeeeeeeeeeeeeeeee",
                    "decodedMethod": {
                        "callParams": [
                            {
                                "name": "src",
                                "type": "address",
                                "value": "0x514910771af9ca656af840dff83e8264ecf986ca"
                            },
                            {
                                "name": "dest",
                                "type": "address",
                                "value": "0xeeeeeeeeeeeeeeeeeeeeeeeeeeeeeeeeeeeeeeee"
                            }
                        ],
                        "constructorArguments": "",
                        "name": "getSanityRate",
                        "returnParams": [
                            {
                                "name": "",
                                "type": "uint256",
                                "value": "39,086,830,695,652,177"
                            }
                        ],
                        "signature": "getSanityRate(address,address)"
                    },
                    "errorInfo": "",
                    "fromAddress": "0x4f32bbe8dfc9efd54345fc936f9fef1048746fcf",
                    "gasUsed": 2797,
                    "id": 18,
                    "methodDecoded": true,
                    "operation": "CALL",
                    "output": "0x000000000000000000000000000000000000000000000000008add43f3029b51",
                    "revert": false,
                    "revertMessage": "",
                    "selector": "0xa58092b7",
                    "status": true,
                    "value": "0"
                },
                "nodeType": 0
            },
            "19": {
                "invocation": {
                    "address": "0x10908c875d865c66f271f5d3949848971c9595c9",
                    "callData": "0x000000000000000000000000514910771af9ca656af840dff83e8264ecf986ca000000000000000000000000eeeeeeeeeeeeeeeeeeeeeeeeeeeeeeeeeeeeeeee00000000000000000000000000000000000000000000010f0cf064dd592000000000000000000000000000000000000000000000000000000000000000a30d98",
                    "decodedMethod": {
                        "callParams": [
                            {
                                "name": "src",
                                "type": "address",
                                "value": "0x514910771af9ca656af840dff83e8264ecf986ca"
                            },
                            {
                                "name": "dest",
                                "type": "address",
                                "value": "0xeeeeeeeeeeeeeeeeeeeeeeeeeeeeeeeeeeeeeeee"
                            },
                            {
                                "name": "srcQty",
                                "type": "uint256",
                                "value": "5,000,000,000,000,000,000,000"
                            },
                            {
                                "name": "blockNumber",
                                "type": "uint256",
                                "value": "10,685,848"
                            }
                        ],
                        "constructorArguments": "",
                        "name": "getConversionRate",
                        "returnParams": [
                            {
                                "name": "",
                                "type": "uint256",
                                "value": "36,264,273,536,902,507"
                            }
                        ],
                        "signature": "getConversionRate(address,address,uint256,uint256)"
                    },
                    "errorInfo": "",
                    "fromAddress": "0x7c66550c9c730b6fdd4c03bc2e73c5462c5f7acc",
                    "gasUsed": 19423,
                    "id": 19,
                    "methodDecoded": true,
                    "operation": "STATICCALL",
                    "output": "0x0000000000000000000000000000000000000000000000000080d62a2634656b",
                    "revert": false,
                    "revertMessage": "",
                    "selector": "0x7cd44272",
                    "status": true,
                    "value": "0"
                },
                "nodeType": 0
            },
            "2": {
                "invocation": {
                    "address": "0x514910771af9ca656af840dff83e8264ecf986ca",
                    "callData": "0x000000000000000000000000d7723c591ae3477503d6a419a9cc173ae13a75cd0000000000000000000000007c66550c9c730b6fdd4c03bc2e73c5462c5f7acc00000000000000000000000000000000000000000000010f0cf064dd59200000",
                    "decodedMethod": {
                        "callParams": [
                            {
                                "name": "_from",
                                "type": "address",
                                "value": "0xd7723c591ae3477503d6a419a9cc173ae13a75cd"
                            },
                            {
                                "name": "_to",
                                "type": "address",
                                "value": "0x7c66550c9c730b6fdd4c03bc2e73c5462c5f7acc"
                            },
                            {
                                "decimalAvailable": true,
                                "name": "_value",
                                "type": "uint256",
                                "value": "5,000,000,000,000,000,000,000"
                            }
                        ],
                        "constructorArguments": "",
                        "name": "transferFrom",
                        "returnParams": [
                            {
                                "name": "",
                                "type": "bool",
                                "value": true
                            }
                        ],
                        "signature": "transferFrom(address,address,uint256)"
                    },
                    "errorInfo": "",
                    "fromAddress": "0x9aab3f75489902f3a48495025729a0af77d4b11e",
                    "gasUsed": 21100,
                    "id": 2,
                    "methodDecoded": true,
                    "operation": "CALL",
                    "output": "0x0000000000000000000000000000000000000000000000000000000000000001",
                    "revert": false,
                    "revertMessage": "",
                    "selector": "0x23b872dd",
                    "status": true,
                    "value": "0"
                },
                "nodeType": 0
            },
            "20": {
                "invocation": {
                    "address": "0x7a250d5630b4cf539739df2c5dacb4c659f2488d",
                    "callData": "0x00000000000000000000000000000000000000000000010f0cf064dd5920000000000000000000000000000000000000000000000000000000000000000000400000000000000000000000000000000000000000000000000000000000000002000000000000000000000000514910771af9ca656af840dff83e8264ecf986ca000000000000000000000000c02aaa39b223fe8d0a0e5c4f27ead9083c756cc2",
                    "decodedMethod": {
                        "callParams": [
                            {
                                "name": "amountIn",
                                "type": "uint256",
                                "value": "5,000,000,000,000,000,000,000"
                            },
                            {
                                "name": "path",
                                "type": "address[]",
                                "value": [
                                    "0x514910771af9ca656af840dff83e8264ecf986ca",
                                    "0xc02aaa39b223fe8d0a0e5c4f27ead9083c756cc2"
                                ]
                            }
                        ],
                        "constructorArguments": "",
                        "name": "getAmountsOut",
                        "returnParams": [
                            {
                                "name": "amounts",
                                "type": "uint256[]",
                                "value": [
                                    "5,000,000,000,000,000,000,000",
                                    "181,321,367,684,512,535,007"
                                ]
                            }
                        ],
                        "signature": "getAmountsOut(uint256,address[])"
                    },
                    "errorInfo": "",
                    "fromAddress": "0x10908c875d865c66f271f5d3949848971c9595c9",
                    "gasUsed": 5982,
                    "id": 20,
                    "methodDecoded": true,
                    "operation": "STATICCALL",
                    "output": "0x0000000000000000000000000000000000000000000000000000000000000020000000000000000000000000000000000000000000000000000000000000000200000000000000000000000000000000000000000000010f0cf064dd59200000000000000000000000000000000000000000000000000009d456e73a2f5cd1df",
                    "revert": false,
                    "revertMessage": "",
                    "selector": "0xd06ca61f",
                    "status": true,
                    "value": "0"
                },
                "nodeType": 0
            },
            "21": {
                "invocation": {
                    "address": "0xa2107fa5b38d9bbd2c461d6edf11b11a50f6b974",
                    "callData": "0x",
                    "decodedMethod": {
                        "callParams": [],
                        "constructorArguments": "",
                        "name": "getReserves",
                        "returnParams": [
                            {
                                "name": "_reserve0",
                                "type": "uint112",
                                "value": "163,809,752,350,497,153,020,330"
                            },
                            {
                                "name": "_reserve1",
                                "type": "uint112",
                                "value": "6,139,637,984,786,505,665,521"
                            },
                            {
                                "name": "_blockTimestampLast",
                                "type": "uint32",
                                "value": "1,597,777,619"
                            }
                        ],
                        "signature": "getReserves()"
                    },
                    "errorInfo": "",
                    "fromAddress": "0x7a250d5630b4cf539739df2c5dacb4c659f2488d",
                    "gasUsed": 1204,
                    "id": 21,
                    "methodDecoded": true,
                    "operation": "STATICCALL",
                    "output": "0x0000000000000000000000000000000000000000000022b024fbe5833c48f1aa00000000000000000000000000000000000000000000014cd497d9f796d20bf1000000000000000000000000000000000000000000000000000000005f3c26d3",
                    "revert": false,
                    "revertMessage": "",
                    "selector": "0x0902f1ac",
                    "status": true,
                    "value": "0"
                },
                "nodeType": 0
            },
            "22": {
                "invocation": {
                    "address": "0xa1c0fa73c39cfbcc11ec9eb1afc665aba9996e2c",
                    "callData": "0x000000000000000000000000514910771af9ca656af840dff83e8264ecf986ca000000000000000000000000eeeeeeeeeeeeeeeeeeeeeeeeeeeeeeeeeeeeeeee00000000000000000000000000000000000000000000000000000000000000a0000000000000000000000000000000000000000000000000000000000000014000000000000000000000000000000000000000000000000000000000000001e0000000000000000000000000000000000000000000000000000000000000000400000000000000000000000000000000000000000000010f0cf064dd5920000000000000000000000000000000000000000000000000010f0cf064dd5920000000000000000000000000000000000000000000000000010f0cf064dd5920000000000000000000000000000000000000000000000000010f0cf064dd59200000000000000000000000000000000000000000000000000000000000000000000400000000000000000000000000000000000000000000000000000000000000140000000000000000000000000000000000000000000000000000000000000014000000000000000000000000000000000000000000000000000000000000001400000000000000000000000000000000000000000000000000000000000000000000000000000000000000000000000000000000000000000000000000000004000000000000000000000000000000000000000000000000008473fb90e22eca0000000000000000000000000000000000000000000000000083e4ef8f1b1adb00000000000000000000000000000000000000000000000000000000000000000000000000000000000000000000000000000000000000000080d62a2634656b",
                    "decodedMethod": {
                        "callParams": [
                            {
                                "name": "src",
                                "type": "address",
                                "value": "0x514910771af9ca656af840dff83e8264ecf986ca"
                            },
                            {
                                "name": "dest",
                                "type": "address",
                                "value": "0xeeeeeeeeeeeeeeeeeeeeeeeeeeeeeeeeeeeeeeee"
                            },
                            {
                                "name": "srcAmounts",
                                "type": "uint256[]",
                                "value": [
                                    "5,000,000,000,000,000,000,000",
                                    "5,000,000,000,000,000,000,000",
                                    "5,000,000,000,000,000,000,000",
                                    "5,000,000,000,000,000,000,000"
                                ]
                            },
                            {
                                "name": "feesAccountedDestBps",
                                "type": "uint256[]",
                                "value": [
                                    "20",
                                    "20",
                                    "20",
                                    "0"
                                ]
                            },
                            {
                                "name": "rates",
                                "type": "uint256[]",
                                "value": [
                                    "37,282,221,230,534,346",
                                    "37,124,939,498,330,843",
                                    "0",
                                    "36,264,273,536,902,507"
                                ]
                            }
                        ],
                        "constructorArguments": "",
                        "name": "doMatch",
                        "returnParams": [
                            {
                                "name": "reserveIndexes",
                                "type": "uint256[]",
                                "value": [
                                    "0"
                                ]
                            }
                        ],
                        "signature": "doMatch(address,address,uint256[],uint256[],uint256[])"
                    },
                    "errorInfo": "",
                    "fromAddress": "0x7c66550c9c730b6fdd4c03bc2e73c5462c5f7acc",
                    "gasUsed": 4898,
                    "id": 22,
                    "methodDecoded": true,
                    "operation": "STATICCALL",
                    "output": "0x000000000000000000000000000000000000000000000000000000000000002000000000000000000000000000000000000000000000000000000000000000010000000000000000000000000000000000000000000000000000000000000000",
                    "revert": false,
                    "revertMessage": "",
                    "selector": "0x84d174bc",
                    "status": true,
                    "value": "0"
                },
                "nodeType": 0
            },
            "23": {
                "invocation": {
                    "address": "0x514910771af9ca656af840dff83e8264ecf986ca",
                    "callData": "0x0000000000000000000000007c66550c9c730b6fdd4c03bc2e73c5462c5f7acc",
                    "decodedMethod": {
                        "callParams": [
                            {
                                "name": "_owner",
                                "type": "address",
                                "value": "0x7c66550c9c730b6fdd4c03bc2e73c5462c5f7acc"
                            }
                        ],
                        "constructorArguments": "",
                        "name": "balanceOf",
                        "returnParams": [
                            {
                                "decimalAvailable": true,
                                "name": "balance",
                                "type": "uint256",
                                "value": "5,000,231,522,326,896,532,643"
                            }
                        ],
                        "signature": "balanceOf(address)"
                    },
                    "errorInfo": "",
                    "fromAddress": "0x7c66550c9c730b6fdd4c03bc2e73c5462c5f7acc",
                    "gasUsed": 1355,
                    "id": 23,
                    "methodDecoded": true,
                    "operation": "STATICCALL",
                    "output": "0x00000000000000000000000000000000000000000000010f1026ed31bd5d5ca3",
                    "revert": false,
                    "revertMessage": "",
                    "selector": "0x70a08231",
                    "status": true,
                    "value": "0"
                },
                "nodeType": 0
            },
            "24": {
                "invocation": {
                    "address": "0x63825c174ab367968ec60f061753d3bbd36a0d8f",
                    "callData": "0x000000000000000000000000514910771af9ca656af840dff83e8264ecf986ca00000000000000000000000000000000000000000000010db924dc3e4120a2d1000000000000000000000000eeeeeeeeeeeeeeeeeeeeeeeeeeeeeeeeeeeeeeee0000000000000000000000007c66550c9c730b6fdd4c03bc2e73c5462c5f7acc000000000000000000000000000000000000000000000000008473fb90e22eca0000000000000000000000000000000000000000000000000000000000000001",
                    "decodedMethod": {
                        "callParams": [
                            {
                                "name": "srcToken",
                                "type": "address",
                                "value": "0x514910771af9ca656af840dff83e8264ecf986ca"
                            },
                            {
                                "name": "srcAmount",
                                "type": "uint256",
                                "value": "4,975,515,185,983,986,377,425"
                            },
                            {
                                "name": "destToken",
                                "type": "address",
                                "value": "0xeeeeeeeeeeeeeeeeeeeeeeeeeeeeeeeeeeeeeeee"
                            },
                            {
                                "name": "destAddress",
                                "type": "address",
                                "value": "0x7c66550c9c730b6fdd4c03bc2e73c5462c5f7acc"
                            },
                            {
                                "name": "conversionRate",
                                "type": "uint256",
                                "value": "37,282,221,230,534,346"
                            },
                            {
                                "name": "validate",
                                "type": "bool",
                                "value": true
                            }
                        ],
                        "constructorArguments": "",
                        "name": "trade",
                        "returnParams": [
                            {
                                "name": "",
                                "type": "bool",
                                "value": true
                            }
                        ],
                        "signature": "trade(address,uint256,address,address,uint256,bool)"
                    },
                    "errorInfo": "",
                    "fromAddress": "0x7c66550c9c730b6fdd4c03bc2e73c5462c5f7acc",
                    "gasUsed": 59280,
                    "id": 24,
                    "methodDecoded": true,
                    "operation": "CALL",
                    "output": "0x0000000000000000000000000000000000000000000000000000000000000001",
                    "revert": false,
                    "revertMessage": "",
                    "selector": "0x6cf69811",
                    "status": true,
                    "value": "0"
                },
                "nodeType": 0
            },
            "25": {
                "invocation": {
                    "address": "0xbaf075545c3a56ecbaf219e4a1b69bc2b94b0b75",
                    "callData": "0x000000000000000000000000514910771af9ca656af840dff83e8264ecf986cafffffffffffffffffffffffffffffffffffffffffffffef246db23c1bedf5d2f00000000000000000000000000000000000000000000000000000000000000000000000000000000000000000000000000000000000000000000000000a30d98",
                    "decodedMethod": {
                        "callParams": [
                            {
                                "name": "token",
                                "type": "address",
                                "value": "0x514910771af9ca656af840dff83e8264ecf986ca"
                            },
                            {
                                "name": "buyAmount",
                                "type": "int256",
                                "value": "-4,975,515,185,983,986,377,425"
                            },
                            {
                                "name": "rateUpdateBlock",
                                "type": "uint256",
                                "value": "0"
                            },
                            {
                                "name": "currentBlock",
                                "type": "uint256",
                                "value": "10,685,848"
                            }
                        ],
                        "constructorArguments": "",
                        "name": "recordImbalance",
                        "returnParams": [],
                        "signature": "recordImbalance(address,int256,uint256,uint256)"
                    },
                    "errorInfo": "",
                    "fromAddress": "0x63825c174ab367968ec60f061753d3bbd36a0d8f",
                    "gasUsed": 21359,
                    "id": 25,
                    "methodDecoded": true,
                    "operation": "CALL",
                    "output": "",
                    "revert": false,
                    "revertMessage": "",
                    "selector": "0xc6fd2103",
                    "status": true,
                    "value": "0"
                },
                "nodeType": 0
            },
            "26": {
                "invocation": {
                    "address": "0x514910771af9ca656af840dff83e8264ecf986ca",
                    "callData": "0x0000000000000000000000007c66550c9c730b6fdd4c03bc2e73c5462c5f7acc00000000000000000000000063825c174ab367968ec60f061753d3bbd36a0d8f00000000000000000000000000000000000000000000010db924dc3e4120a2d1",
                    "decodedMethod": {
                        "callParams": [
                            {
                                "name": "_from",
                                "type": "address",
                                "value": "0x7c66550c9c730b6fdd4c03bc2e73c5462c5f7acc"
                            },
                            {
                                "name": "_to",
                                "type": "address",
                                "value": "0x63825c174ab367968ec60f061753d3bbd36a0d8f"
                            },
                            {
                                "decimalAvailable": true,
                                "name": "_value",
                                "type": "uint256",
                                "value": "4,975,515,185,983,986,377,425"
                            }
                        ],
                        "constructorArguments": "",
                        "name": "transferFrom",
                        "returnParams": [
                            {
                                "name": "",
                                "type": "bool",
                                "value": true
                            }
                        ],
                        "signature": "transferFrom(address,address,uint256)"
                    },
                    "errorInfo": "",
                    "fromAddress": "0x63825c174ab367968ec60f061753d3bbd36a0d8f",
                    "gasUsed": 16900,
                    "id": 26,
                    "methodDecoded": true,
                    "operation": "CALL",
                    "output": "0x0000000000000000000000000000000000000000000000000000000000000001",
                    "revert": false,
                    "revertMessage": "",
                    "selector": "0x23b872dd",
                    "status": true,
                    "value": "0"
                },
                "nodeType": 0
            },
            "27": {
                "event": {
                    "contract": "0x514910771af9ca656af840dff83e8264ecf986ca",
                    "decodedLog": {
                        "name": "Transfer",
                        "params": [
                            {
                                "name": "from",
                                "type": "address",
                                "value": "0x7c66550c9c730b6fdd4c03bc2e73c5462c5f7acc"
                            },
                            {
                                "name": "to",
                                "type": "address",
                                "value": "0x63825c174ab367968ec60f061753d3bbd36a0d8f"
                            },
                            {
                                "decimalAvailable": true,
                                "name": "value",
                                "type": "uint256",
                                "value": "4,975,515,185,983,986,377,425"
                            }
                        ],
                        "signature": "Transfer(address,address,uint256)"
                    },
                    "id": 27,
                    "logData": "0x00000000000000000000000000000000000000000000010db924dc3e4120a2d1",
                    "logDecoded": true,
                    "operation": "EVENT",
                    "revert": false,
                    "status": true,
                    "topics": [
                        "0xddf252ad1be2c89b69c2b068fc378daa952ba7f163c4a11628f55a4df523b3ef",
                        "0x0000000000000000000000007c66550c9c730b6fdd4c03bc2e73c5462c5f7acc",
                        "0x00000000000000000000000063825c174ab367968ec60f061753d3bbd36a0d8f"
                    ]
                },
                "nodeType": 1
            },
            "28": {
                "invocation": {
                    "address": "0x7c66550c9c730b6fdd4c03bc2e73c5462c5f7acc",
                    "callData": "0x",
                    "decodedMethod": null,
                    "errorInfo": "",
                    "fromAddress": "0x63825c174ab367968ec60f061753d3bbd36a0d8f",
                    "gasUsed": 1497,
                    "id": 28,
                    "methodDecoded": false,
                    "operation": "CALL",
                    "output": "",
                    "revert": false,
                    "revertMessage": "",
                    "selector": "fallback",
                    "status": true,
                    "value": "185.498257899738221998"
                },
                "nodeType": 0
            },
            "29": {
                "event": {
                    "contract": "0x7c66550c9c730b6fdd4c03bc2e73c5462c5f7acc",
                    "decodedLog": {
                        "name": "EtherReceival",
                        "params": [
                            {
                                "name": "sender",
                                "type": "address",
                                "value": "0x63825c174ab367968ec60f061753d3bbd36a0d8f"
                            },
                            {
                                "name": "amount",
                                "type": "uint256",
                                "value": "185,498,257,899,738,221,998"
                            }
                        ],
                        "signature": "EtherReceival(address,uint256)"
                    },
                    "id": 29,
                    "logData": "0x00000000000000000000000000000000000000000000000a0e4e32bf77b1cdae",
                    "logDecoded": true,
                    "operation": "EVENT",
                    "revert": false,
                    "status": true,
                    "topics": [
                        "0x75f33ed68675112c77094e7c5b073890598be1d23e27cd7f6907b4a7d98ac619",
                        "0x00000000000000000000000063825c174ab367968ec60f061753d3bbd36a0d8f"
                    ]
                },
                "nodeType": 1
            },
            "3": {
                "event": {
                    "contract": "0x514910771af9ca656af840dff83e8264ecf986ca",
                    "decodedLog": {
                        "name": "Transfer",
                        "params": [
                            {
                                "name": "from",
                                "type": "address",
                                "value": "0xd7723c591ae3477503d6a419a9cc173ae13a75cd"
                            },
                            {
                                "name": "to",
                                "type": "address",
                                "value": "0x7c66550c9c730b6fdd4c03bc2e73c5462c5f7acc"
                            },
                            {
                                "decimalAvailable": true,
                                "name": "value",
                                "type": "uint256",
                                "value": "5,000,000,000,000,000,000,000"
                            }
                        ],
                        "signature": "Transfer(address,address,uint256)"
                    },
                    "id": 3,
                    "logData": "0x00000000000000000000000000000000000000000000010f0cf064dd59200000",
                    "logDecoded": true,
                    "operation": "EVENT",
                    "revert": false,
                    "status": true,
                    "topics": [
                        "0xddf252ad1be2c89b69c2b068fc378daa952ba7f163c4a11628f55a4df523b3ef",
                        "0x000000000000000000000000d7723c591ae3477503d6a419a9cc173ae13a75cd",
                        "0x0000000000000000000000007c66550c9c730b6fdd4c03bc2e73c5462c5f7acc"
                    ]
                },
                "nodeType": 1
            },
            "30": {
                "event": {
                    "contract": "0x63825c174ab367968ec60f061753d3bbd36a0d8f",
                    "decodedLog": {
                        "name": "TradeExecute",
                        "params": [
                            {
                                "name": "origin",
                                "type": "address",
                                "value": "0x7c66550c9c730b6fdd4c03bc2e73c5462c5f7acc"
                            },
                            {
                                "name": "src",
                                "type": "address",
                                "value": "0x514910771af9ca656af840dff83e8264ecf986ca"
                            },
                            {
                                "name": "srcAmount",
                                "type": "uint256",
                                "value": "4,975,515,185,983,986,377,425"
                            },
                            {
                                "name": "destToken",
                                "type": "address",
                                "value": "0xeeeeeeeeeeeeeeeeeeeeeeeeeeeeeeeeeeeeeeee"
                            },
                            {
                                "name": "destAmount",
                                "type": "uint256",
                                "value": "185,498,257,899,738,221,998"
                            },
                            {
                                "name": "destAddress",
                                "type": "address",
                                "value": "0x7c66550c9c730b6fdd4c03bc2e73c5462c5f7acc"
                            }
                        ],
                        "signature": "TradeExecute(address,address,uint256,address,uint256,address)"
                    },
                    "id": 30,
                    "logData": "0x000000000000000000000000514910771af9ca656af840dff83e8264ecf986ca00000000000000000000000000000000000000000000010db924dc3e4120a2d1000000000000000000000000eeeeeeeeeeeeeeeeeeeeeeeeeeeeeeeeeeeeeeee00000000000000000000000000000000000000000000000a0e4e32bf77b1cdae0000000000000000000000007c66550c9c730b6fdd4c03bc2e73c5462c5f7acc",
                    "logDecoded": true,
                    "operation": "EVENT",
                    "revert": false,
                    "status": true,
                    "topics": [
                        "0xea9415385bae08fe9f6dc457b02577166790cde83bb18cc340aac6cb81b824de",
                        "0x0000000000000000000000007c66550c9c730b6fdd4c03bc2e73c5462c5f7acc"
                    ]
                },
                "nodeType": 1
            },
            "31": {
                "invocation": {
                    "address": "0x514910771af9ca656af840dff83e8264ecf986ca",
                    "callData": "0x0000000000000000000000007c66550c9c730b6fdd4c03bc2e73c5462c5f7acc",
                    "decodedMethod": {
                        "callParams": [
                            {
                                "name": "_owner",
                                "type": "address",
                                "value": "0x7c66550c9c730b6fdd4c03bc2e73c5462c5f7acc"
                            }
                        ],
                        "constructorArguments": "",
                        "name": "balanceOf",
                        "returnParams": [
                            {
                                "decimalAvailable": true,
                                "name": "balance",
                                "type": "uint256",
                                "value": "24,716,336,342,910,155,218"
                            }
                        ],
                        "signature": "balanceOf(address)"
                    },
                    "errorInfo": "",
                    "fromAddress": "0x7c66550c9c730b6fdd4c03bc2e73c5462c5f7acc",
                    "gasUsed": 1355,
                    "id": 31,
                    "methodDecoded": true,
                    "operation": "STATICCALL",
                    "output": "0x000000000000000000000000000000000000000000000001570210f37c3cb9d2",
                    "revert": false,
                    "revertMessage": "",
                    "selector": "0x70a08231",
                    "status": true,
                    "value": "0"
                },
                "nodeType": 0
            },
            "32": {
                "invocation": {
                    "address": "0xd7723c591ae3477503d6a419a9cc173ae13a75cd",
                    "callData": "0x",
                    "decodedMethod": null,
                    "errorInfo": "",
                    "fromAddress": "0x7c66550c9c730b6fdd4c03bc2e73c5462c5f7acc",
                    "gasUsed": 0,
                    "id": 32,
                    "methodDecoded": false,
                    "operation": "CALL",
                    "output": "",
                    "revert": false,
                    "revertMessage": "",
                    "selector": "fallback",
                    "status": true,
                    "value": "184.6635157391894"
                },
                "nodeType": 0
            },
            "33": {
                "invocation": {
                    "address": "0x514910771af9ca656af840dff83e8264ecf986ca",
                    "callData": "0x000000000000000000000000d7723c591ae3477503d6a419a9cc173ae13a75cd00000000000000000000000000000000000000000000000153cb889f17ff5d2f",
                    "decodedMethod": {
                        "callParams": [
                            {
                                "name": "_to",
                                "type": "address",
                                "value": "0xd7723c591ae3477503d6a419a9cc173ae13a75cd"
                            },
                            {
                                "decimalAvailable": true,
                                "name": "_value",
                                "type": "uint256",
                                "value": "24,484,814,016,013,622,575"
                            }
                        ],
                        "constructorArguments": "",
                        "name": "transfer",
                        "returnParams": [
                            {
                                "name": "success",
                                "type": "bool",
                                "value": true
                            }
                        ],
                        "signature": "transfer(address,uint256)"
                    },
                    "errorInfo": "",
                    "fromAddress": "0x7c66550c9c730b6fdd4c03bc2e73c5462c5f7acc",
                    "gasUsed": 6545,
                    "id": 33,
                    "methodDecoded": true,
                    "operation": "CALL",
                    "output": "0x0000000000000000000000000000000000000000000000000000000000000001",
                    "revert": false,
                    "revertMessage": "",
                    "selector": "0xa9059cbb",
                    "status": true,
                    "value": "0"
                },
                "nodeType": 0
            },
            "34": {
                "event": {
                    "contract": "0x514910771af9ca656af840dff83e8264ecf986ca",
                    "decodedLog": {
                        "name": "Transfer",
                        "params": [
                            {
                                "name": "from",
                                "type": "address",
                                "value": "0x7c66550c9c730b6fdd4c03bc2e73c5462c5f7acc"
                            },
                            {
                                "name": "to",
                                "type": "address",
                                "value": "0xd7723c591ae3477503d6a419a9cc173ae13a75cd"
                            },
                            {
                                "decimalAvailable": true,
                                "name": "value",
                                "type": "uint256",
                                "value": "24,484,814,016,013,622,575"
                            }
                        ],
                        "signature": "Transfer(address,address,uint256)"
                    },
                    "id": 34,
                    "logData": "0x00000000000000000000000000000000000000000000000153cb889f17ff5d2f",
                    "logDecoded": true,
                    "operation": "EVENT",
                    "revert": false,
                    "status": true,
                    "topics": [
                        "0xddf252ad1be2c89b69c2b068fc378daa952ba7f163c4a11628f55a4df523b3ef",
                        "0x0000000000000000000000007c66550c9c730b6fdd4c03bc2e73c5462c5f7acc",
                        "0x000000000000000000000000d7723c591ae3477503d6a419a9cc173ae13a75cd"
                    ]
                },
                "nodeType": 1
            },
            "35": {
                "invocation": {
                    "address": "0xc8fb12402cb16970f3c5f4b48ff68eb9d1289301",
                    "callData": "0x00000000000000000000000000000000000000000000000000000000000000200000000000000000000000000000000000000000000000000000000000000001ff4b796265722046707200000000000000000000000000000000000000000000",
                    "decodedMethod": {
                        "callParams": [
                            {
                                "name": "reserveIds",
                                "type": "bytes32[]",
                                "value": [
                                    "0xff4b796265722046707200000000000000000000000000000000000000000000"
                                ]
                            }
                        ],
                        "constructorArguments": "",
                        "name": "getRebateWalletsFromIds",
                        "returnParams": [
                            {
                                "name": "rebateWallets",
                                "type": "address[]",
                                "value": [
                                    "0xbc33a1f908612640f2849b56b67a4de4d179c151"
                                ]
                            }
                        ],
                        "signature": "getRebateWalletsFromIds(bytes32[])"
                    },
                    "errorInfo": "",
                    "fromAddress": "0x7c66550c9c730b6fdd4c03bc2e73c5462c5f7acc",
                    "gasUsed": 2069,
                    "id": 35,
                    "methodDecoded": true,
                    "operation": "STATICCALL",
                    "output": "0x00000000000000000000000000000000000000000000000000000000000000200000000000000000000000000000000000000000000000000000000000000001000000000000000000000000bc33a1f908612640f2849b56b67a4de4d179c151",
                    "revert": false,
                    "revertMessage": "",
                    "selector": "0x0a3cf98e",
                    "status": true,
                    "value": "0"
                },
                "nodeType": 0
            },
            "36": {
                "invocation": {
                    "address": "0xd3d2b5643e506c6d9b7099e9116d7aaa941114fe",
                    "callData": "0x000000000000000000000000eeeeeeeeeeeeeeeeeeeeeeeeeeeeeeeeeeeeeeee00000000000000000000000000000000000000000000000000000000000000c00000000000000000000000000000000000000000000000000000000000000100000000000000000000000000f1aa99c69715f423086008eb9d06dc1e35cc504d000000000000000000000000000000000000000000000000066f8e34f56b531200000000000000000000000000000000000000000000000005260b5d9122a8db0000000000000000000000000000000000000000000000000000000000000001000000000000000000000000bc33a1f908612640f2849b56b67a4de4d179c15100000000000000000000000000000000000000000000000000000000000000010000000000000000000000000000000000000000000000000000000000002710",
                    "decodedMethod": {
                        "callParams": [
                            {
                                "name": "token",
                                "type": "address",
                                "value": "0xeeeeeeeeeeeeeeeeeeeeeeeeeeeeeeeeeeeeeeee"
                            },
                            {
                                "name": "rebateWallets",
                                "type": "address[]",
                                "value": [
                                    "0xbc33a1f908612640f2849b56b67a4de4d179c151"
                                ]
                            },
                            {
                                "name": "rebateBpsPerWallet",
                                "type": "uint256[]",
                                "value": [
                                    "10,000"
                                ]
                            },
                            {
                                "name": "platformWallet",
                                "type": "address",
                                "value": "0xf1aa99c69715f423086008eb9d06dc1e35cc504d"
                            },
                            {
                                "name": "platformFee",
                                "type": "uint256",
                                "value": "463,745,644,749,345,554"
                            },
                            {
                                "name": "networkFee",
                                "type": "uint256",
                                "value": "370,996,515,799,476,443"
                            }
                        ],
                        "constructorArguments": "",
                        "name": "handleFees",
                        "returnParams": [],
                        "signature": "handleFees(address,address[],uint256[],address,uint256,uint256)"
                    },
                    "errorInfo": "",
                    "fromAddress": "0x7c66550c9c730b6fdd4c03bc2e73c5462c5f7acc",
                    "gasUsed": 42880,
                    "id": 36,
                    "methodDecoded": true,
                    "operation": "CALL",
                    "output": "",
                    "revert": false,
                    "revertMessage": "",
                    "selector": "0xb7c5ab41",
                    "status": true,
                    "value": "0.834742160548821997"
                },
                "nodeType": 0
            },
            "37": {
                "event": {
                    "contract": "0xd3d2b5643e506c6d9b7099e9116d7aaa941114fe",
                    "decodedLog": {
                        "name": "FeeDistributed",
                        "params": [
                            {
                                "name": "token",
                                "type": "address",
                                "value": "0xeeeeeeeeeeeeeeeeeeeeeeeeeeeeeeeeeeeeeeee"
                            },
                            {
                                "name": "platformWallet",
                                "type": "address",
                                "value": "0xf1aa99c69715f423086008eb9d06dc1e35cc504d"
                            },
                            {
                                "name": "platformFeeWei",
                                "type": "uint256",
                                "value": "463,745,644,749,345,554"
                            },
                            {
                                "name": "rewardWei",
                                "type": "uint256",
                                "value": "242,260,724,817,058,117"
                            },
                            {
                                "name": "rebateWei",
                                "type": "uint256",
                                "value": "113,895,930,350,439,268"
                            },
                            {
                                "name": "rebateWallets",
                                "type": "address[]",
                                "value": [
                                    "0xbc33a1f908612640f2849b56b67a4de4d179c151"
                                ]
                            },
                            {
                                "name": "rebatePercentBpsPerWallet",
                                "type": "uint256[]",
                                "value": [
                                    "10,000"
                                ]
                            },
                            {
                                "name": "burnAmtWei",
                                "type": "uint256",
                                "value": "14,839,860,631,979,058"
                            }
                        ],
                        "signature": "FeeDistributed(address,address,uint256,uint256,uint256,address[],uint256[],uint256)"
                    },
                    "id": 37,
                    "logData": "0x000000000000000000000000000000000000000000000000066f8e34f56b5312000000000000000000000000000000000000000000000000035caed87dbfd9450000000000000000000000000000000000000000000000000194a3bec5e68b6400000000000000000000000000000000000000000000000000000000000000c000000000000000000000000000000000000000000000000000000000000001000000000000000000000000000000000000000000000000000034b8c64d7c44320000000000000000000000000000000000000000000000000000000000000001000000000000000000000000bc33a1f908612640f2849b56b67a4de4d179c15100000000000000000000000000000000000000000000000000000000000000010000000000000000000000000000000000000000000000000000000000002710",
                    "logDecoded": true,
                    "operation": "EVENT",
                    "revert": false,
                    "status": true,
                    "topics": [
                        "0x53e2e1b5ab64e0a76fcc6a932558eba265d4e58c512401a7d776ae0f8fc08994",
                        "0x000000000000000000000000eeeeeeeeeeeeeeeeeeeeeeeeeeeeeeeeeeeeeeee",
                        "0x000000000000000000000000f1aa99c69715f423086008eb9d06dc1e35cc504d"
                    ]
                },
                "nodeType": 1
            },
            "38": {
                "event": {
                    "contract": "0x7c66550c9c730b6fdd4c03bc2e73c5462c5f7acc",
                    "decodedLog": {
                        "name": "KyberTrade",
                        "params": [
                            {
                                "name": "src",
                                "type": "address",
                                "value": "0x514910771af9ca656af840dff83e8264ecf986ca"
                            },
                            {
                                "name": "dest",
                                "type": "address",
                                "value": "0xeeeeeeeeeeeeeeeeeeeeeeeeeeeeeeeeeeeeeeee"
                            },
                            {
                                "name": "ethWeiValue",
                                "type": "uint256",
                                "value": "185,498,257,899,738,221,998"
                            },
                            {
                                "name": "networkFeeWei",
                                "type": "uint256",
                                "value": "370,996,515,799,476,443"
                            },
                            {
                                "name": "customPlatformFeeWei",
                                "type": "uint256",
                                "value": "463,745,644,749,345,554"
                            },
                            {
                                "name": "t2eIds",
                                "type": "bytes32[]",
                                "value": [
                                    "0xff4b796265722046707200000000000000000000000000000000000000000000"
                                ]
                            },
                            {
                                "name": "e2tIds",
                                "type": "bytes32[]",
                                "value": []
                            },
                            {
                                "name": "t2eSrcAmounts",
                                "type": "uint256[]",
                                "value": [
                                    "4,975,515,185,983,986,377,425"
                                ]
                            },
                            {
                                "name": "e2tSrcAmounts",
                                "type": "uint256[]",
                                "value": []
                            },
                            {
                                "name": "t2eRates",
                                "type": "uint256[]",
                                "value": [
                                    "37,282,221,230,534,346"
                                ]
                            },
                            {
                                "name": "e2tRates",
                                "type": "uint256[]",
                                "value": []
                            }
                        ],
                        "signature": "KyberTrade(address,address,uint256,uint256,uint256,bytes32[],bytes32[],uint256[],uint256[],uint256[],uint256[])"
                    },
                    "id": 38,
                    "logData": "0x00000000000000000000000000000000000000000000000a0e4e32bf77b1cdae00000000000000000000000000000000000000000000000005260b5d9122a8db000000000000000000000000000000000000000000000000066f8e34f56b531200000000000000000000000000000000000000000000000000000000000001200000000000000000000000000000000000000000000000000000000000000160000000000000000000000000000000000000000000000000000000000000018000000000000000000000000000000000000000000000000000000000000001c000000000000000000000000000000000000000000000000000000000000001e000000000000000000000000000000000000000000000000000000000000002200000000000000000000000000000000000000000000000000000000000000001ff4b7962657220467072000000000000000000000000000000000000000000000000000000000000000000000000000000000000000000000000000000000000000000000000000000000000000000000000000000000000000000000000000100000000000000000000000000000000000000000000010db924dc3e4120a2d100000000000000000000000000000000000000000000000000000000000000000000000000000000000000000000000000000000000000000000000000000001000000000000000000000000000000000000000000000000008473fb90e22eca0000000000000000000000000000000000000000000000000000000000000000",
                    "logDecoded": true,
                    "operation": "EVENT",
                    "revert": false,
                    "status": true,
                    "topics": [
                        "0x30bbea603a7b36858fe5e3ec6ba5ff59dde039d02120d758eacfaed01520577d",
                        "0x000000000000000000000000514910771af9ca656af840dff83e8264ecf986ca",
                        "0x000000000000000000000000eeeeeeeeeeeeeeeeeeeeeeeeeeeeeeeeeeeeeeee"
                    ]
                },
                "nodeType": 1
            },
            "39": {
                "invocation": {
                    "address": "0x514910771af9ca656af840dff83e8264ecf986ca",
                    "callData": "0x000000000000000000000000d7723c591ae3477503d6a419a9cc173ae13a75cd",
                    "decodedMethod": {
                        "callParams": [
                            {
                                "name": "_owner",
                                "type": "address",
                                "value": "0xd7723c591ae3477503d6a419a9cc173ae13a75cd"
                            }
                        ],
                        "constructorArguments": "",
                        "name": "balanceOf",
                        "returnParams": [
                            {
                                "decimalAvailable": true,
                                "name": "balance",
                                "type": "uint256",
                                "value": "15,122,170,993,324,532,165,100"
                            }
                        ],
                        "signature": "balanceOf(address)"
                    },
                    "errorInfo": "",
                    "fromAddress": "0x9aab3f75489902f3a48495025729a0af77d4b11e",
                    "gasUsed": 1355,
                    "id": 39,
                    "methodDecoded": true,
                    "operation": "STATICCALL",
                    "output": "0x000000000000000000000000000000000000000000000333c647bdbba0bbe9ec",
                    "revert": false,
                    "revertMessage": "",
                    "selector": "0x70a08231",
                    "status": true,
                    "value": "0"
                },
                "nodeType": 0
            },
            "4": {
                "invocation": {
                    "address": "0x7c66550c9c730b6fdd4c03bc2e73c5462c5f7acc",
                    "callData": "0x000000000000000000000000d7723c591ae3477503d6a419a9cc173ae13a75cd000000000000000000000000514910771af9ca656af840dff83e8264ecf986ca00000000000000000000000000000000000000000000010f0cf064dd59200000000000000000000000000000eeeeeeeeeeeeeeeeeeeeeeeeeeeeeeeeeeeeeeee000000000000000000000000d7723c591ae3477503d6a419a9cc173ae13a75cd00000000000000000000000000000000000000000000000a02b8992cf123d1c0000000000000000000000000000000000000000000000000007f43de8c54ea28000000000000000000000000f1aa99c69715f423086008eb9d06dc1e35cc504d000000000000000000000000000000000000000000000000000000000000001900000000000000000000000000000000000000000000000000000000000001400000000000000000000000000000000000000000000000000000000000000000",
                    "decodedMethod": {
                        "callParams": [
                            {
                                "name": "trader",
                                "type": "address",
                                "value": "0xd7723c591ae3477503d6a419a9cc173ae13a75cd"
                            },
                            {
                                "name": "src",
                                "type": "address",
                                "value": "0x514910771af9ca656af840dff83e8264ecf986ca"
                            },
                            {
                                "name": "srcAmount",
                                "type": "uint256",
                                "value": "5,000,000,000,000,000,000,000"
                            },
                            {
                                "name": "dest",
                                "type": "address",
                                "value": "0xeeeeeeeeeeeeeeeeeeeeeeeeeeeeeeeeeeeeeeee"
                            },
                            {
                                "name": "destAddress",
                                "type": "address",
                                "value": "0xd7723c591ae3477503d6a419a9cc173ae13a75cd"
                            },
                            {
                                "name": "maxDestAmount",
                                "type": "uint256",
                                "value": "184,663,515,739,189,400,000"
                            },
                            {
                                "name": "minConversionRate",
                                "type": "uint256",
                                "value": "35,821,945,158,429,224"
                            },
                            {
                                "name": "platformWallet",
                                "type": "address",
                                "value": "0xf1aa99c69715f423086008eb9d06dc1e35cc504d"
                            },
                            {
                                "name": "platformFeeBps",
                                "type": "uint256",
                                "value": "25"
                            },
                            {
                                "name": "hint",
                                "type": "bytes",
                                "value": "0x"
                            }
                        ],
                        "constructorArguments": "",
                        "name": "tradeWithHintAndFee",
                        "returnParams": [
                            {
                                "name": "destAmount",
                                "type": "uint256",
                                "value": "184,663,515,739,189,400,000"
                            }
                        ],
                        "signature": "tradeWithHintAndFee(address,address,uint256,address,address,uint256,uint256,address,uint256,bytes)"
                    },
                    "errorInfo": "",
                    "fromAddress": "0x9aab3f75489902f3a48495025729a0af77d4b11e",
                    "gasUsed": 440087,
                    "id": 4,
                    "methodDecoded": true,
                    "operation": "CALL",
                    "output": "0x00000000000000000000000000000000000000000000000a02b8992cf123d1c0",
                    "revert": false,
                    "revertMessage": "",
                    "selector": "0xc43190f5",
                    "status": true,
                    "value": "0"
                },
                "nodeType": 0
            },
            "40": {
                "event": {
                    "contract": "0x9aab3f75489902f3a48495025729a0af77d4b11e",
                    "decodedLog": {
                        "name": "ExecuteTrade",
                        "params": [
                            {
                                "name": "trader",
                                "type": "address",
                                "value": "0xd7723c591ae3477503d6a419a9cc173ae13a75cd"
                            },
                            {
                                "name": "src",
                                "type": "address",
                                "value": "0x514910771af9ca656af840dff83e8264ecf986ca"
                            },
                            {
                                "name": "dest",
                                "type": "address",
                                "value": "0xeeeeeeeeeeeeeeeeeeeeeeeeeeeeeeeeeeeeeeee"
                            },
                            {
                                "name": "destAddress",
                                "type": "address",
                                "value": "0xd7723c591ae3477503d6a419a9cc173ae13a75cd"
                            },
                            {
                                "name": "actualSrcAmount",
                                "type": "uint256",
                                "value": "4,975,515,185,983,986,377,425"
                            },
                            {
                                "name": "actualDestAmount",
                                "type": "uint256",
                                "value": "184,663,515,739,189,400,000"
                            },
                            {
                                "name": "platformWallet",
                                "type": "address",
                                "value": "0xf1aa99c69715f423086008eb9d06dc1e35cc504d"
                            },
                            {
                                "name": "platformFeeBps",
                                "type": "uint256",
                                "value": "25"
                            }
                        ],
                        "signature": "ExecuteTrade(address,address,address,address,uint256,uint256,address,uint256)"
                    },
                    "id": 40,
                    "logData": "0x000000000000000000000000514910771af9ca656af840dff83e8264ecf986ca000000000000000000000000eeeeeeeeeeeeeeeeeeeeeeeeeeeeeeeeeeeeeeee000000000000000000000000d7723c591ae3477503d6a419a9cc173ae13a75cd00000000000000000000000000000000000000000000010db924dc3e4120a2d100000000000000000000000000000000000000000000000a02b8992cf123d1c0000000000000000000000000f1aa99c69715f423086008eb9d06dc1e35cc504d0000000000000000000000000000000000000000000000000000000000000019",
                    "logDecoded": true,
                    "operation": "EVENT",
                    "revert": false,
                    "status": true,
                    "topics": [
                        "0xf724b4df6617473612b53d7f88ecc6ea983074b30960a049fcd0657ffe808083",
                        "0x000000000000000000000000d7723c591ae3477503d6a419a9cc173ae13a75cd"
                    ]
                },
                "nodeType": 1
            },
            "5": {
                "invocation": {
                    "address": "0x514910771af9ca656af840dff83e8264ecf986ca",
                    "callData": "0x0000000000000000000000007c66550c9c730b6fdd4c03bc2e73c5462c5f7acc",
                    "decodedMethod": {
                        "callParams": [
                            {
                                "name": "_owner",
                                "type": "address",
                                "value": "0x7c66550c9c730b6fdd4c03bc2e73c5462c5f7acc"
                            }
                        ],
                        "constructorArguments": "",
                        "name": "balanceOf",
                        "returnParams": [
                            {
                                "decimalAvailable": true,
                                "name": "balance",
                                "type": "uint256",
                                "value": "5,000,231,522,326,896,532,643"
                            }
                        ],
                        "signature": "balanceOf(address)"
                    },
                    "errorInfo": "",
                    "fromAddress": "0x7c66550c9c730b6fdd4c03bc2e73c5462c5f7acc",
                    "gasUsed": 1355,
                    "id": 5,
                    "methodDecoded": true,
                    "operation": "STATICCALL",
                    "output": "0x00000000000000000000000000000000000000000000010f1026ed31bd5d5ca3",
                    "revert": false,
                    "revertMessage": "",
                    "selector": "0x70a08231",
                    "status": true,
                    "value": "0"
                },
                "nodeType": 0
            },
            "6": {
                "invocation": {
                    "address": "0xa1c0fa73c39cfbcc11ec9eb1afc665aba9996e2c",
                    "callData": "0x000000000000000000000000514910771af9ca656af840dff83e8264ecf986ca000000000000000000000000eeeeeeeeeeeeeeeeeeeeeeeeeeeeeeeeeeeeeeee000000000000000000000000000000000000000000000000000000000000000000000000000000000000000000000000000000000000000000000000000000800000000000000000000000000000000000000000000000000000000000000000",
                    "decodedMethod": {
                        "callParams": [
                            {
                                "name": "src",
                                "type": "address",
                                "value": "0x514910771af9ca656af840dff83e8264ecf986ca"
                            },
                            {
                                "name": "dest",
                                "type": "address",
                                "value": "0xeeeeeeeeeeeeeeeeeeeeeeeeeeeeeeeeeeeeeeee"
                            },
                            {
                                "name": "isTokenToToken",
                                "type": "bool",
                                "value": false
                            },
                            {
                                "name": "hint",
                                "type": "bytes",
                                "value": "0x"
                            }
                        ],
                        "constructorArguments": "",
                        "name": "getTradingReserves",
                        "returnParams": [
                            {
                                "name": "reserveIds",
                                "type": "bytes32[]",
                                "value": [
                                    "0xff4b796265722046707200000000000000000000000000000000000000000000",
                                    "0xffabcd0000000000000000000000000000000000000000000000000000000000",
                                    "0xff4f6e65426974205175616e7400000000000000000000000000000000000000",
                                    "0xbb756e6973776170563200000000000000000000000000000000000000000000"
                                ]
                            },
                            {
                                "name": "splitValuesBps",
                                "type": "uint256[]",
                                "value": [
                                    "10,000",
                                    "10,000",
                                    "10,000",
                                    "10,000"
                                ]
                            },
                            {
                                "name": "processWithRate",
                                "type": "uint8",
                                "value": "1"
                            }
                        ],
                        "signature": "getTradingReserves(address,address,bool,bytes)"
                    },
                    "errorInfo": "",
                    "fromAddress": "0x7c66550c9c730b6fdd4c03bc2e73c5462c5f7acc",
                    "gasUsed": 10630,
                    "id": 6,
                    "methodDecoded": true,
                    "operation": "STATICCALL",
                    "output": "0x0000000000000000000000000000000000000000000000000000000000000060000000000000000000000000000000000000000000000000000000000000010000000000000000000000000000000000000000000000000000000000000000010000000000000000000000000000000000000000000000000000000000000004ff4b796265722046707200000000000000000000000000000000000000000000ffabcd0000000000000000000000000000000000000000000000000000000000ff4f6e65426974205175616e7400000000000000000000000000000000000000bb756e697377617056320000000000000000000000000000000000000000000000000000000000000000000000000000000000000000000000000000000000040000000000000000000000000000000000000000000000000000000000002710000000000000000000000000000000000000000000000000000000000000271000000000000000000000000000000000000000000000000000000000000027100000000000000000000000000000000000000000000000000000000000002710",
                    "revert": false,
                    "revertMessage": "",
                    "selector": "0x910ffc71",
                    "status": true,
                    "value": "0"
                },
                "nodeType": 0
            },
            "7": {
                "invocation": {
                    "address": "0xc8fb12402cb16970f3c5f4b48ff68eb9d1289301",
                    "callData": "0x000000000000000000000000514910771af9ca656af840dff83e8264ecf986ca",
                    "decodedMethod": {
                        "callParams": [
                            {
                                "name": "token",
                                "type": "address",
                                "value": "0x514910771af9ca656af840dff83e8264ecf986ca"
                            }
                        ],
                        "constructorArguments": "",
                        "name": "getReserveIdsPerTokenSrc",
                        "returnParams": [
                            {
                                "name": "reserveIds",
                                "type": "bytes32[]",
                                "value": [
                                    "0xff4b796265722046707200000000000000000000000000000000000000000000",
                                    "0xffabcd0000000000000000000000000000000000000000000000000000000000",
                                    "0xff4f6e65426974205175616e7400000000000000000000000000000000000000",
                                    "0xbb756e6973776170563200000000000000000000000000000000000000000000"
                                ]
                            }
                        ],
                        "signature": "getReserveIdsPerTokenSrc(address)"
                    },
                    "errorInfo": "",
                    "fromAddress": "0xa1c0fa73c39cfbcc11ec9eb1afc665aba9996e2c",
                    "gasUsed": 5254,
                    "id": 7,
                    "methodDecoded": true,
                    "operation": "STATICCALL",
                    "output": "0x00000000000000000000000000000000000000000000000000000000000000200000000000000000000000000000000000000000000000000000000000000004ff4b796265722046707200000000000000000000000000000000000000000000ffabcd0000000000000000000000000000000000000000000000000000000000ff4f6e65426974205175616e7400000000000000000000000000000000000000bb756e6973776170563200000000000000000000000000000000000000000000",
                    "revert": false,
                    "revertMessage": "",
                    "selector": "0x3d3dc52c",
                    "status": true,
                    "value": "0"
                },
                "nodeType": 0
            },
            "8": {
                "invocation": {
                    "address": "0xc8fb12402cb16970f3c5f4b48ff68eb9d1289301",
                    "callData": "0x0000000000000000000000000000000000000000000000000000000000000060000000000000000000000000514910771af9ca656af840dff83e8264ecf986ca000000000000000000000000eeeeeeeeeeeeeeeeeeeeeeeeeeeeeeeeeeeeeeee0000000000000000000000000000000000000000000000000000000000000004ff4b796265722046707200000000000000000000000000000000000000000000ffabcd0000000000000000000000000000000000000000000000000000000000ff4f6e65426974205175616e7400000000000000000000000000000000000000bb756e6973776170563200000000000000000000000000000000000000000000",
                    "decodedMethod": {
                        "callParams": [
                            {
                                "name": "reserveIds",
                                "type": "bytes32[]",
                                "value": [
                                    "0xff4b796265722046707200000000000000000000000000000000000000000000",
                                    "0xffabcd0000000000000000000000000000000000000000000000000000000000",
                                    "0xff4f6e65426974205175616e7400000000000000000000000000000000000000",
                                    "0xbb756e6973776170563200000000000000000000000000000000000000000000"
                                ]
                            },
                            {
                                "name": "src",
                                "type": "address",
                                "value": "0x514910771af9ca656af840dff83e8264ecf986ca"
                            },
                            {
                                "name": "dest",
                                "type": "address",
                                "value": "0xeeeeeeeeeeeeeeeeeeeeeeeeeeeeeeeeeeeeeeee"
                            }
                        ],
                        "constructorArguments": "",
                        "name": "getReservesData",
                        "returnParams": [
                            {
                                "name": "areAllReservesListed",
                                "type": "bool",
                                "value": true
                            },
                            {
                                "name": "feeAccountedArr",
                                "type": "bool[]",
                                "value": [
                                    true,
                                    true,
                                    true,
                                    false
                                ]
                            },
                            {
                                "name": "entitledRebateArr",
                                "type": "bool[]",
                                "value": [
                                    true,
                                    true,
                                    true,
                                    false
                                ]
                            },
                            {
                                "name": "reserveAddresses",
                                "type": "address[]",
                                "value": [
                                    "0x63825c174ab367968ec60f061753d3bbd36a0d8f",
                                    "0x7a3370075a54b187d7bd5dcebf0ff2b5552d4f7d",
                                    "0x4f32bbe8dfc9efd54345fc936f9fef1048746fcf",
                                    "0x10908c875d865c66f271f5d3949848971c9595c9"
                                ]
                            }
                        ],
                        "signature": "getReservesData(bytes32[],address,address)"
                    },
                    "errorInfo": "",
                    "fromAddress": "0x7c66550c9c730b6fdd4c03bc2e73c5462c5f7acc",
                    "gasUsed": 20648,
                    "id": 8,
                    "methodDecoded": true,
                    "operation": "STATICCALL",
                    "output": "0x00000000000000000000000000000000000000000000000000000000000000010000000000000000000000000000000000000000000000000000000000000080000000000000000000000000000000000000000000000000000000000000012000000000000000000000000000000000000000000000000000000000000001c00000000000000000000000000000000000000000000000000000000000000004000000000000000000000000000000000000000000000000000000000000000100000000000000000000000000000000000000000000000000000000000000010000000000000000000000000000000000000000000000000000000000000001000000000000000000000000000000000000000000000000000000000000000000000000000000000000000000000000000000000000000000000000000000040000000000000000000000000000000000000000000000000000000000000001000000000000000000000000000000000000000000000000000000000000000100000000000000000000000000000000000000000000000000000000000000010000000000000000000000000000000000000000000000000000000000000000000000000000000000000000000000000000000000000000000000000000000400000000000000000000000063825c174ab367968ec60f061753d3bbd36a0d8f0000000000000000000000007a3370075a54b187d7bd5dcebf0ff2b5552d4f7d0000000000000000000000004f32bbe8dfc9efd54345fc936f9fef1048746fcf00000000000000000000000010908c875d865c66f271f5d3949848971c9595c9",
                    "revert": false,
                    "revertMessage": "",
                    "selector": "0x50dceb74",
                    "status": true,
                    "value": "0"
                },
                "nodeType": 0
            },
            "9": {
                "invocation": {
                    "address": "0x63825c174ab367968ec60f061753d3bbd36a0d8f",
                    "callData": "0x000000000000000000000000514910771af9ca656af840dff83e8264ecf986ca000000000000000000000000eeeeeeeeeeeeeeeeeeeeeeeeeeeeeeeeeeeeeeee00000000000000000000000000000000000000000000010f0cf064dd592000000000000000000000000000000000000000000000000000000000000000a30d98",
                    "decodedMethod": {
                        "callParams": [
                            {
                                "name": "src",
                                "type": "address",
                                "value": "0x514910771af9ca656af840dff83e8264ecf986ca"
                            },
                            {
                                "name": "dest",
                                "type": "address",
                                "value": "0xeeeeeeeeeeeeeeeeeeeeeeeeeeeeeeeeeeeeeeee"
                            },
                            {
                                "name": "srcQty",
                                "type": "uint256",
                                "value": "5,000,000,000,000,000,000,000"
                            },
                            {
                                "name": "blockNumber",
                                "type": "uint256",
                                "value": "10,685,848"
                            }
                        ],
                        "constructorArguments": "",
                        "name": "getConversionRate",
                        "returnParams": [
                            {
                                "name": "",
                                "type": "uint256",
                                "value": "37,282,221,230,534,346"
                            }
                        ],
                        "signature": "getConversionRate(address,address,uint256,uint256)"
                    },
                    "errorInfo": "",
                    "fromAddress": "0x7c66550c9c730b6fdd4c03bc2e73c5462c5f7acc",
                    "gasUsed": 61502,
                    "id": 9,
                    "methodDecoded": true,
                    "operation": "STATICCALL",
                    "output": "0x000000000000000000000000000000000000000000000000008473fb90e22eca",
                    "revert": false,
                    "revertMessage": "",
                    "selector": "0x7cd44272",
                    "status": true,
                    "value": "0"
                },
                "nodeType": 0
            }
        },
        "gasFlame": [
            {
                "children": [
                    {
                        "children": [
                            {
                                "children": [],
                                "depth": 0,
                                "name": "Initial Gas",
                                "value": 23628
                            },
                            {
                                "children": [
                                    {
                                        "children": [],
                                        "depth": 1,
                                        "name": "balanceOf",
                                        "value": 1355
                                    },
                                    {
                                        "children": [],
                                        "depth": 1,
                                        "name": "transferFrom",
                                        "value": 21100
                                    },
                                    {
                                        "children": [
                                            {
                                                "children": [],
                                                "depth": 2,
                                                "name": "balanceOf",
                                                "value": 1355
                                            },
                                            {
                                                "children": [
                                                    {
                                                        "children": [],
                                                        "depth": 3,
                                                        "name": "getReserveIdsPerTokenSrc",
                                                        "value": 5254
                                                    }
                                                ],
                                                "depth": 2,
                                                "name": "getTradingReserves",
                                                "value": 10630
                                            },
                                            {
                                                "children": [],
                                                "depth": 2,
                                                "name": "getReservesData",
                                                "value": 20648
                                            },
                                            {
                                                "children": [
                                                    {
                                                        "children": [],
                                                        "depth": 3,
                                                        "name": "getRate",
                                                        "value": 48259
                                                    },
                                                    {
                                                        "children": [],
                                                        "depth": 3,
                                                        "name": "getSanityRate",
                                                        "value": 2470
                                                    }
                                                ],
                                                "depth": 2,
                                                "name": "getConversionRate",
                                                "value": 61502
                                            },
                                            {
                                                "children": [
                                                    {
                                                        "children": [],
                                                        "depth": 3,
                                                        "name": "getRate",
                                                        "value": 48467
                                                    },
                                                    {
                                                        "children": [],
                                                        "depth": 3,
                                                        "name": "decimals",
                                                        "value": 267
                                                    }
                                                ],
                                                "depth": 2,
                                                "name": "getConversionRate",
                                                "value": 58610
                                            },
                                            {
                                                "children": [
                                                    {
                                                        "children": [],
                                                        "depth": 3,
                                                        "name": "getRate",
                                                        "value": 42979
                                                    },
                                                    {
                                                        "children": [],
                                                        "depth": 3,
                                                        "name": "decimals",
                                                        "value": 267
                                                    },
                                                    {
                                                        "children": [],
                                                        "depth": 3,
                                                        "name": "getSanityRate",
                                                        "value": 2797
                                                    }
                                                ],
                                                "depth": 2,
                                                "name": "getConversionRate",
                                                "value": 58561
                                            },
                                            {
                                                "children": [
                                                    {
                                                        "children": [
                                                            {
                                                                "children": [],
                                                                "depth": 4,
                                                                "name": "getReserves",
                                                                "value": 1204
                                                            }
                                                        ],
                                                        "depth": 3,
                                                        "name": "getAmountsOut",
                                                        "value": 5982
                                                    }
                                                ],
                                                "depth": 2,
                                                "name": "getConversionRate",
                                                "value": 19423
                                            },
                                            {
                                                "children": [],
                                                "depth": 2,
                                                "name": "doMatch",
                                                "value": 4898
                                            },
                                            {
                                                "children": [],
                                                "depth": 2,
                                                "name": "balanceOf",
                                                "value": 1355
                                            },
                                            {
                                                "children": [
                                                    {
                                                        "children": [],
                                                        "depth": 3,
                                                        "name": "recordImbalance",
                                                        "value": 21359
                                                    },
                                                    {
                                                        "children": [],
                                                        "depth": 3,
                                                        "name": "transferFrom",
                                                        "value": 16900
                                                    },
                                                    {
                                                        "children": [],
                                                        "depth": 3,
                                                        "name": "fallback",
                                                        "value": 1497
                                                    }
                                                ],
                                                "depth": 2,
                                                "name": "trade",
                                                "value": 59280
                                            },
                                            {
                                                "children": [],
                                                "depth": 2,
                                                "name": "balanceOf",
                                                "value": 1355
                                            },
                                            {
                                                "children": [],
                                                "depth": 2,
                                                "name": "fallback",
                                                "value": 0
                                            },
                                            {
                                                "children": [],
                                                "depth": 2,
                                                "name": "transfer",
                                                "value": 6545
                                            },
                                            {
                                                "children": [],
                                                "depth": 2,
                                                "name": "getRebateWalletsFromIds",
                                                "value": 2069
                                            },
                                            {
                                                "children": [],
                                                "depth": 2,
                                                "name": "handleFees",
                                                "value": 42880
                                            }
                                        ],
                                        "depth": 1,
                                        "name": "tradeWithHintAndFee",
                                        "value": 440087
                                    },
                                    {
                                        "children": [],
                                        "depth": 1,
                                        "name": "balanceOf",
                                        "value": 1355
                                    }
                                ],
                                "depth": 0,
                                "name": "Executed Gas",
                                "value": 481791
                            }
                        ],
                        "depth": -1,
                        "name": "Actual Gas Used",
                        "value": 492819
                    },
                    {
                        "children": [],
                        "depth": -1,
                        "name": "Refunded Gas",
                        "value": 12600
                    }
                ],
                "depth": -2,
                "name": "Total Gas",
                "value": 505419
            }
        ],
        "isConfirmed": true,
        "mainTrace": [
            {
                "children": [
                    {
                        "children": [
                            {
                                "children": [],
                                "depth": 1,
                                "id": 1,
                                "order": 1
                            },
                            {
                                "children": [
                                    {
                                        "children": [],
                                        "depth": 2,
                                        "id": 3,
                                        "order": 3
                                    }
                                ],
                                "depth": 1,
                                "id": 2,
                                "order": 2
                            },
                            {
                                "children": [
                                    {
                                        "children": [],
                                        "depth": 2,
                                        "id": 5,
                                        "order": 5
                                    },
                                    {
                                        "children": [
                                            {
                                                "children": [],
                                                "depth": 3,
                                                "id": 7,
                                                "order": 7
                                            }
                                        ],
                                        "depth": 2,
                                        "id": 6,
                                        "order": 6
                                    },
                                    {
                                        "children": [],
                                        "depth": 2,
                                        "id": 8,
                                        "order": 8
                                    },
                                    {
                                        "children": [
                                            {
                                                "children": [],
                                                "depth": 3,
                                                "id": 10,
                                                "order": 10
                                            },
                                            {
                                                "children": [],
                                                "depth": 3,
                                                "id": 11,
                                                "order": 11
                                            }
                                        ],
                                        "depth": 2,
                                        "id": 9,
                                        "order": 9
                                    },
                                    {
                                        "children": [
                                            {
                                                "children": [],
                                                "depth": 3,
                                                "id": 13,
                                                "order": 13
                                            },
                                            {
                                                "children": [],
                                                "depth": 3,
                                                "id": 14,
                                                "order": 14
                                            }
                                        ],
                                        "depth": 2,
                                        "id": 12,
                                        "order": 12
                                    },
                                    {
                                        "children": [
                                            {
                                                "children": [],
                                                "depth": 3,
                                                "id": 16,
                                                "order": 16
                                            },
                                            {
                                                "children": [],
                                                "depth": 3,
                                                "id": 17,
                                                "order": 17
                                            },
                                            {
                                                "children": [],
                                                "depth": 3,
                                                "id": 18,
                                                "order": 18
                                            }
                                        ],
                                        "depth": 2,
                                        "id": 15,
                                        "order": 15
                                    },
                                    {
                                        "children": [
                                            {
                                                "children": [
                                                    {
                                                        "children": [],
                                                        "depth": 4,
                                                        "id": 21,
                                                        "order": 21
                                                    }
                                                ],
                                                "depth": 3,
                                                "id": 20,
                                                "order": 20
                                            }
                                        ],
                                        "depth": 2,
                                        "id": 19,
                                        "order": 19
                                    },
                                    {
                                        "children": [],
                                        "depth": 2,
                                        "id": 22,
                                        "order": 22
                                    },
                                    {
                                        "children": [],
                                        "depth": 2,
                                        "id": 23,
                                        "order": 23
                                    },
                                    {
                                        "children": [
                                            {
                                                "children": [],
                                                "depth": 3,
                                                "id": 25,
                                                "order": 25
                                            },
                                            {
                                                "children": [
                                                    {
                                                        "children": [],
                                                        "depth": 4,
                                                        "id": 27,
                                                        "order": 27
                                                    }
                                                ],
                                                "depth": 3,
                                                "id": 26,
                                                "order": 26
                                            },
                                            {
                                                "children": [
                                                    {
                                                        "children": [],
                                                        "depth": 4,
                                                        "id": 29,
                                                        "order": 29
                                                    }
                                                ],
                                                "depth": 3,
                                                "id": 28,
                                                "order": 28
                                            },
                                            {
                                                "children": [],
                                                "depth": 3,
                                                "id": 30,
                                                "order": 30
                                            }
                                        ],
                                        "depth": 2,
                                        "id": 24,
                                        "order": 24
                                    },
                                    {
                                        "children": [],
                                        "depth": 2,
                                        "id": 31,
                                        "order": 31
                                    },
                                    {
                                        "children": [],
                                        "depth": 2,
                                        "id": 32,
                                        "order": 32
                                    },
                                    {
                                        "children": [
                                            {
                                                "children": [],
                                                "depth": 3,
                                                "id": 34,
                                                "order": 34
                                            }
                                        ],
                                        "depth": 2,
                                        "id": 33,
                                        "order": 33
                                    },
                                    {
                                        "children": [],
                                        "depth": 2,
                                        "id": 35,
                                        "order": 35
                                    },
                                    {
                                        "children": [
                                            {
                                                "children": [],
                                                "depth": 3,
                                                "id": 37,
                                                "order": 37
                                            }
                                        ],
                                        "depth": 2,
                                        "id": 36,
                                        "order": 36
                                    },
                                    {
                                        "children": [],
                                        "depth": 2,
                                        "id": 38,
                                        "order": 38
                                    }
                                ],
                                "depth": 1,
                                "id": 4,
                                "order": 4
                            },
                            {
                                "children": [],
                                "depth": 1,
                                "id": 39,
                                "order": 39
                            },
                            {
                                "children": [],
                                "depth": 1,
                                "id": 40,
                                "order": 40
                            }
                        ],
                        "depth": 0,
                        "id": 0,
                        "order": 0
                    }
                ],
                "depth": -1,
                "id": -1,
                "order": -1
            }
        ],
        "mainTraceNodeCount": 41,
        "parentIdMap": {
            "0": -1,
            "1": 0,
            "10": 9,
            "11": 9,
            "12": 4,
            "13": 12,
            "14": 12,
            "15": 4,
            "16": 15,
            "17": 15,
            "18": 15,
            "19": 4,
            "2": 0,
            "20": 19,
            "21": 20,
            "22": 4,
            "23": 4,
            "24": 4,
            "25": 24,
            "26": 24,
            "27": 26,
            "28": 24,
            "29": 28,
            "3": 2,
            "30": 24,
            "31": 4,
            "32": 4,
            "33": 4,
            "34": 33,
            "35": 4,
            "36": 4,
            "37": 36,
            "38": 4,
            "39": 0,
            "4": 0,
            "40": 0,
            "5": 4,
            "6": 4,
            "7": 6,
            "8": 4,
            "9": 4
        },
        "tidyTrace": [
            {
                "children": [
                    {
                        "children": [
                            {
                                "children": [
                                    {
                                        "children": [],
                                        "depth": 2,
                                        "id": 3,
                                        "order": 3
                                    }
                                ],
                                "depth": 1,
                                "id": 2,
                                "order": 2
                            },
                            {
                                "children": [
                                    {
                                        "children": [
                                            {
                                                "children": [],
                                                "depth": 3,
                                                "id": 25,
                                                "order": 25
                                            },
                                            {
                                                "children": [
                                                    {
                                                        "children": [],
                                                        "depth": 4,
                                                        "id": 27,
                                                        "order": 27
                                                    }
                                                ],
                                                "depth": 3,
                                                "id": 26,
                                                "order": 26
                                            },
                                            {
                                                "children": [
                                                    {
                                                        "children": [],
                                                        "depth": 4,
                                                        "id": 29,
                                                        "order": 29
                                                    }
                                                ],
                                                "depth": 3,
                                                "id": 28,
                                                "order": 28
                                            },
                                            {
                                                "children": [],
                                                "depth": 3,
                                                "id": 30,
                                                "order": 30
                                            }
                                        ],
                                        "depth": 2,
                                        "id": 24,
                                        "order": 24
                                    },
                                    {
                                        "children": [],
                                        "depth": 2,
                                        "id": 32,
                                        "order": 32
                                    },
                                    {
                                        "children": [
                                            {
                                                "children": [],
                                                "depth": 3,
                                                "id": 34,
                                                "order": 34
                                            }
                                        ],
                                        "depth": 2,
                                        "id": 33,
                                        "order": 33
                                    },
                                    {
                                        "children": [
                                            {
                                                "children": [],
                                                "depth": 3,
                                                "id": 37,
                                                "order": 37
                                            }
                                        ],
                                        "depth": 2,
                                        "id": 36,
                                        "order": 36
                                    },
                                    {
                                        "children": [],
                                        "depth": 2,
                                        "id": 38,
                                        "order": 38
                                    }
                                ],
                                "depth": 1,
                                "id": 4,
                                "order": 4
                            },
                            {
                                "children": [],
                                "depth": 1,
                                "id": 40,
                                "order": 40
                            }
                        ],
                        "depth": 0,
                        "id": 0,
                        "order": 0
                    }
                ],
                "depth": -1,
                "id": -1,
                "order": -1
            }
        ],
        "tidyTraceNodeCount": 18
    },
    "state_change": {
        "stateChanges": [
            {
                "address": "0x514910771af9ca656af840dff83e8264ecf986ca",
                "erc": "",
                "slots": [
                    {
                        "current": "0x0000000000000000000000000000000000000000000002a44c8d743634675014",
                        "key": "0xbf930f93b54a87a77c513b3e85704087a4e708bd53467fc14f0ec596b737d141",
                        "prev": "0x000000000000000000000000000000000000000000000196936897f7f346ad43"
                    },
                    {
                        "current": "0xffffffffffffffffffffffffffffffffffffffffffff69c94d424a1d4ac58e13",
                        "key": "0x80cf2ba92294bca5dc008e7500c0cf1e30df0839830474218ed02733fb06e82b",
                        "prev": "0xffffffffffffffffffffffffffffffffffffffffffff6ad70667265b8be630e4"
                    },
                    {
                        "current": "0xfffffffffffffffffffffffffffffffffffffffffffffda6448e2a520c0fffff",
                        "key": "0x1ed5ee25427cd6d76befbc180cf1d8134af80a238c70c0b1a37c819c2c82ce7e",
                        "prev": "0xfffffffffffffffffffffffffffffffffffffffffffffeb5517e8f2f652fffff"
                    },
                    {
                        "current": "0x000000000000000000000000000000000000000000000333c647bdbba0bbe9ec",
                        "key": "0xe72f15f0733fee9ff04638a337b138562c78b25150f5cbc7274ee77235b5fb65",
                        "prev": "0x0000000000000000000000000000000000000000000004417f6c99f9e1dc8cbd"
                    }
                ],
                "storageVariables": [
                    {
                        "name": "allowed",
                        "type": "mapping(address => mapping(address => uint256))",
                        "value": {
                            "pairs": [
                                {
                                    "key": "0x7c66550c9c730b6fdd4c03bc2e73c5462c5f7acc",
                                    "value": {
                                        "pairs": [
                                            {
                                                "key": "0x63825c174ab367968ec60f061753d3bbd36a0d8f",
                                                "value": {
                                                    "current": "115792089237316195423570985008687907853269984665640563330093607746991374568979",
                                                    "prev": "115792089237316195423570985008687907853269984665640563335069122932975360946404",
                                                    "typeTag": 1
                                                }
                                            }
                                        ],
                                        "typeTag": 4
                                    }
                                },
                                {
                                    "key": "0xd7723c591ae3477503d6a419a9cc173ae13a75cd",
                                    "value": {
                                        "pairs": [
                                            {
                                                "key": "0x9aab3f75489902f3a48495025729a0af77d4b11e",
                                                "value": {
                                                    "current": "115792089237316195423570985008687907853269984665640564028357584007913129639935",
                                                    "prev": "115792089237316195423570985008687907853269984665640564033357584007913129639935",
                                                    "typeTag": 1
                                                }
                                            }
                                        ],
                                        "typeTag": 4
                                    }
                                }
                            ],
                            "typeTag": 4
                        }
                    },
                    {
                        "name": "balances",
                        "type": "mapping(address => uint256)",
                        "value": {
                            "pairs": [
                                {
                                    "key": "0x63825c174ab367968ec60f061753d3bbd36a0d8f",
                                    "value": {
                                        "current": "12475515186722411859988",
                                        "prev": "7500000000738425482563",
                                        "typeTag": 1
                                    }
                                },
                                {
                                    "key": "0xd7723c591ae3477503d6a419a9cc173ae13a75cd",
                                    "value": {
                                        "current": "15122170993324532165100",
                                        "prev": "20097686179308518542525",
                                        "typeTag": 1
                                    }
                                }
                            ],
                            "typeTag": 4
                        }
                    }
                ]
            },
            {
                "address": "0xbaf075545c3a56ecbaf219e4a1b69bc2b94b0b75",
                "erc": "",
                "slots": [
                    {
                        "current": "0x0000000000a30d93ffffffffffb414650000000000a30d98ffffffffffb41465",
                        "key": "0xbb52bf5fc8e4f5c8802a61ba5f3f4ecf40756e359c88714bfa2d8042116630da",
                        "prev": "0x0000000000a30d14fffffffffff9e5800000000000a30d1bfffffffffff9e580"
                    }
                ],
                "storageVariables": [
                    {
                        "name": "tokenImbalanceData",
                        "type": "mapping(address => mapping(uint256 => uint256))",
                        "value": {
                            "pairs": [
                                {
                                    "key": "0x514910771af9ca656af840dff83e8264ecf986ca",
                                    "value": {
                                        "pairs": [
                                            {
                                                "key": "3",
                                                "value": {
                                                    "current": "67076129916471350318457007372396469787667005123910767341221450853",
                                                    "prev": "67075332724550956211556967301221980167685780285849478123189036416",
                                                    "typeTag": 1
                                                }
                                            }
                                        ],
                                        "typeTag": 4
                                    }
                                }
                            ],
                            "typeTag": 4
                        }
                    }
                ]
            },
            {
                "address": "0xd3d2b5643e506c6d9b7099e9116d7aaa941114fe",
                "erc": "",
                "slots": [
                    {
                        "current": "0x000000000000000000000000000000000000000000000009dcf1117b822af9de",
                        "key": "0xac4bbb871fd9373802ab6f36d626a22a96b43243a276d88db0f79542a6668c42",
                        "prev": "0x000000000000000000000000000000000000000000000009db5c6dbcbc446e7a"
                    },
                    {
                        "current": "0x00000000000000000000000000000000000000000000000fbb57415cc199eccc",
                        "key": "0x64c15cc42be7899b001f818cf4433057002112c418d1d3a67cd5cb453051d33e",
                        "prev": "0x00000000000000000000000000000000000000000000000fb7fa928443da1387"
                    },
                    {
                        "current": "0x0000000000000000000000000000000000000000000000527c058223bad803f9",
                        "key": "0x000000000000000000000000000000000000000000000000000000000000000e",
                        "prev": "0x00000000000000000000000000000000000000000000005270a4a15781c64c3e"
                    },
                    {
                        "current": "0x0000000000000000000000000000000000000000000000059059cab7d1c7a243",
                        "key": "0x90f7d38192b3e9c34e624f264c15f003a5af48e4b97fa6290d00571606ab54d5",
                        "prev": "0x00000000000000000000000000000000000000000000000589ea3c82dc5c4f31"
                    }
                ],
                "storageVariables": [
                    {
                        "name": "feePerPlatformWallet",
                        "type": "mapping(address => uint256)",
                        "value": {
                            "pairs": [
                                {
                                    "key": "0xf1aa99c69715f423086008eb9d06dc1e35cc504d",
                                    "value": {
                                        "current": "102635288073783976515",
                                        "prev": "102171542429034630961",
                                        "typeTag": 1
                                    }
                                }
                            ],
                            "typeTag": 4
                        }
                    },
                    {
                        "name": "rebatePerWallet",
                        "type": "mapping(address => uint256)",
                        "value": {
                            "pairs": [
                                {
                                    "key": "0xbc33a1f908612640f2849b56b67a4de4d179c151",
                                    "value": {
                                        "current": "181941222043279882718",
                                        "prev": "181827326112929443450",
                                        "typeTag": 1
                                    }
                                }
                            ],
                            "typeTag": 4
                        }
                    },
                    {
                        "name": "rewardsPerEpoch",
                        "type": "mapping(uint256 => uint256)",
                        "value": {
                            "pairs": [
                                {
                                    "key": "3",
                                    "value": {
                                        "current": "290200491380350512332",
                                        "prev": "289958230655533454215",
                                        "typeTag": 1
                                    }
                                }
                            ],
                            "typeTag": 4
                        }
                    },
                    {
                        "name": "totalPayoutBalance",
                        "type": "uint256",
                        "value": {
                            "current": "1521569706169740035065",
                            "prev": "1520749803869823192126",
                            "typeTag": 1
                        }
                    }
                ]
            }
        ]
    }
}