{
    "balance_change": {
        "balanceChanges": [
            {
                "account": "0x3748f286e6a6fd2f42f1b43068e5728a505c71aa",
                "assets": [
                    {
                        "address": "0x0a638f07acc6969abf392bb009f216d22adea36d",
                        "amount": "800",
                        "iconUrl": "",
                        "isERC1155": false,
                        "isERC721": false,
                        "sign": false,
                        "value": ""
                    }
                ]
            },
            {
                "account": "0x83cb3018523915426f74020a36d15fd676e11901",
                "assets": [
                    {
                        "address": "0x0a638f07acc6969abf392bb009f216d22adea36d",
                        "amount": "800",
                        "iconUrl": "",
                        "isERC1155": false,
                        "isERC721": false,
                        "sign": true,
                        "value": ""
                    }
                ]
            }
        ]
    },
    "profile": {
        "basic_info": {
            "baseFee": "19.461701366",
            "blockNumber": 17434235,
            "callData": "0xa9059cbb00000000000000000000000083cb3018523915426f74020a36d15fd676e1190100000000000000000000000000000000000000000000002b5e3af16b18800000",
            "debugEnable": true,
            "errorInfo": "",
            "eventCount": 1,
            "feeRecipient": "0xad743963f16676acbee18e967efdd287587b72c7",
            "formatValue": "0",
            "gasLimit": 58935,
            "gasPrice": "19.561701366",
            "gasUsed": 39290,
            "intTxnCount": 0,
            "internalRevert": false,
            "internalRevertMessage": "",
            "isContractCreation": false,
            "isFlashloan": false,
            "maxFee": "25.319981563",
            "nonce": 10,
            "overwritedBlockNumber": -1,
            "priorityFee": "0.1",
            "receiver": "0x0a638f07acc6969abf392bb009f216d22adea36d",
            "revertMessage": "",
            "sender": "0x3748f286e6a6fd2f42f1b43068e5728a505c71aa",
            "simulationEnable": true,
            "sourceTxnHash": "0xdf89244cf249c008b63d8ad8c8214c91a1483c3de815aa7531a8398433d3addb",
            "status": true,
            "timestamp": "2023-06-08T07:53:59Z",
            "transactionFee": "0.00076857924667014",
            "txnHash": "0xdf89244cf249c008b63d8ad8c8214c91a1483c3de815aa7531a8398433d3addb",
            "txnIndex": 79,
            "type": 2,
            "value": "0"
        },
        "fund_flow": [
            {
                "amount": "800",
                "from": "0x3748f286e6a6fd2f42f1b43068e5728a505c71aa",
                "id": 1,
                "isERC1155": false,
                "isERC721": false,
                "isReverted": false,
                "order": 1,
                "to": "0x83cb3018523915426f74020a36d15fd676e11901",
                "token": "0x0a638f07acc6969abf392bb009f216d22adea36d"
            }
        ],
        "token_infos": [
            {
                "address": "0x0a638f07acc6969abf392bb009f216d22adea36d",
                "decimals": 18
            },
            {
                "address": "0xc02aaa39b223fe8d0a0e5c4f27ead9083c756cc2",
                "decimals": 18
            },
            {
                "address": "0xeeeeeeeeeeeeeeeeeeeeeeeeeeeeeeeeeeeeeeee",
                "decimals": 18
            }
        ]
    },
    "address_label": {
        "labels": [
            {
                "address": "0x0000000000000000000000000000000000000001",
                "label": "Precompiled"
            },
            {
                "address": "0x0000000000000000000000000000000000000002",
                "label": "Precompiled"
            },
            {
                "address": "0x0000000000000000000000000000000000000003",
                "label": "Precompiled"
            },
            {
                "address": "0x0000000000000000000000000000000000000004",
                "label": "Precompiled"
            },
            {
                "address": "0xeeeeeeeeeeeeeeeeeeeeeeeeeeeeeeeeeeeeeeee",
                "label": "Ether"
            },
            {
                "address": "0x0a638f07acc6969abf392bb009f216d22adea36d",
                "label": "Brickken: BKN Token"
            }
        ]
    },
    "trace": {
        "accountLabels": null,
        "dataMap": {
            "-1": {
                "invocation": {
                    "address": "0x3748f286e6a6fd2f42f1b43068e5728a505c71aa",
                    "callData": "",
                    "decodedMethod": null,
                    "errorInfo": "",
                    "fromAddress": "",
                    "gasUsed": 0,
                    "id": -1,
                    "methodDecoded": false,
                    "operation": "",
                    "output": "",
                    "revert": false,
                    "revertMessage": "",
                    "selector": "",
                    "status": false,
                    "value": ""
                },
                "nodeType": 0
            },
            "0": {
                "invocation": {
                    "address": "0x0a638f07acc6969abf392bb009f216d22adea36d",
                    "callData": "0x00000000000000000000000083cb3018523915426f74020a36d15fd676e1190100000000000000000000000000000000000000000000002b5e3af16b18800000",
                    "decodedMethod": {
                        "callParams": [
                            {
                                "name": "recipient",
                                "type": "address",
                                "value": "0x83cb3018523915426f74020a36d15fd676e11901"
                            },
                            {
                                "decimalAvailable": true,
                                "name": "amount",
                                "type": "uint256",
                                "value": "800,000,000,000,000,000,000"
                            }
                        ],
                        "constructorArguments": "",
                        "name": "transfer",
                        "returnParams": [
                            {
                                "name": "",
                                "type": "bool",
                                "value": true
                            }
                        ],
                        "signature": "transfer(address,uint256)"
                    },
                    "errorInfo": "",
                    "fromAddress": "0x3748f286e6a6fd2f42f1b43068e5728a505c71aa",
                    "gasUsed": 39290,
                    "id": 0,
                    "methodDecoded": true,
                    "operation": "CALL",
                    "output": "0x0000000000000000000000000000000000000000000000000000000000000001",
                    "revert": false,
                    "revertMessage": "",
                    "selector": "0xa9059cbb",
                    "status": true,
                    "value": "0"
                },
                "nodeType": 0
            },
            "1": {
                "event": {
                    "contract": "0x0a638f07acc6969abf392bb009f216d22adea36d",
                    "decodedLog": {
                        "name": "Transfer",
                        "params": [
                            {
                                "name": "from",
                                "type": "address",
                                "value": "0x3748f286e6a6fd2f42f1b43068e5728a505c71aa"
                            },
                            {
                                "name": "to",
                                "type": "address",
                                "value": "0x83cb3018523915426f74020a36d15fd676e11901"
                            },
                            {
                                "decimalAvailable": true,
                                "name": "value",
                                "type": "uint256",
                                "value": "800,000,000,000,000,000,000"
                            }
                        ],
                        "signature": "Transfer(address,address,uint256)"
                    },
                    "id": 1,
                    "logData": "0x00000000000000000000000000000000000000000000002b5e3af16b18800000",
                    "logDecoded": true,
                    "operation": "EVENT",
                    "revert": false,
                    "status": true,
                    "topics": [
                        "0xddf252ad1be2c89b69c2b068fc378daa952ba7f163c4a11628f55a4df523b3ef",
                        "0x0000000000000000000000003748f286e6a6fd2f42f1b43068e5728a505c71aa",
                        "0x00000000000000000000000083cb3018523915426f74020a36d15fd676e11901"
                    ]
                },
                "nodeType": 1
            }
        },
        "gasFlame": [
            {
                "children": [
                    {
                        "children": [
                            {
                                "children": [],
                                "depth": 0,
                                "name": "Initial Gas",
                                "value": 21644
                            },
                            {
                                "children": [],
                                "depth": 0,
                                "name": "Executed Gas",
                                "value": 17646
                            }
                        ],
                        "depth": -1,
                        "name": "Actual Gas Used",
                        "value": 39290
                    },
                    {
                        "children": [],
                        "depth": -1,
                        "name": "Refunded Gas",
                        "value": 0
                    }
                ],
                "depth": -2,
                "name": "Total Gas",
                "value": 39290
            }
        ],
        "isConfirmed": true,
        "mainTrace": [
            {
                "children": [
                    {
                        "children": [
                            {
                                "children": [],
                                "depth": 1,
                                "id": 1,
                                "order": 1
                            }
                        ],
                        "depth": 0,
                        "id": 0,
                        "order": 0
                    }
                ],
                "depth": -1,
                "id": -1,
                "order": -1
            }
        ],
        "mainTraceNodeCount": 2,
        "parentIdMap": {
            "0": -1,
            "1": 0
        },
        "tidyTrace": [
            {
                "children": [
                    {
                        "children": [
                            {
                                "children": [],
                                "depth": 1,
                                "id": 1,
                                "order": 1
                            }
                        ],
                        "depth": 0,
                        "id": 0,
                        "order": 0
                    }
                ],
                "depth": -1,
                "id": -1,
                "order": -1
            }
        ],
        "tidyTraceNodeCount": 2
    },
    "state_change": {
        "stateChanges": [
            {
                "address": "0x0a638f07acc6969abf392bb009f216d22adea36d",
                "erc": "ERC-20",
                "slots": [
                    {
                        "current": "0x0000000000000000000000000000000000000000000001f1dd9a6d1523800000",
                        "key": "0xf5af70dcac1bfd840697f52719cfc9b1cc62e95172404d27158defae2e7a1a64",
                        "prev": "0x0000000000000000000000000000000000000000000001c67f5f7baa0b000000"
                    },
                    {
                        "current": "0x0000000000000000000000000000000000000000000001aee7c27d73e1000000",
                        "key": "0xbc14d91401c95b2d35192beb08e9d101cbd45edf86c55955ed6cd892a01f5a9b",
                        "prev": "0x0000000000000000000000000000000000000000000001da45fd6edef9800000"
                    }
                ],
                "storageVariables": [
                    {
                        "name": "_balances",
                        "type": "mapping(address => uint256)",
                        "value": {
                            "pairs": [
                                {
                                    "key": "0x3748f286e6a6fd2f42f1b43068e5728a505c71aa",
                                    "value": {
                                        "current": "7948800000000000000000",
                                        "prev": "8748800000000000000000",
                                        "typeTag": 1
                                    }
                                },
                                {
                                    "key": "0x83cb3018523915426f74020a36d15fd676e11901",
                                    "value": {
                                        "current": "9184000000000000000000",
                                        "prev": "8384000000000000000000",
                                        "typeTag": 1
                                    }
                                }
                            ],
                            "typeTag": 4
                        }
                    }
                ]
            }
        ]
    }
}