{
    "balance_change": {
        "balanceChanges": [
            {
                "account": "0x5f65f7b609678448494de4c87521cdf6cef1e932",
                "assets": [
                    {
                        "address": "0x5f98805a4e8be255a32880fdec7f6728c6568ba0",
                        "amount": "59,989.351644786452657986",
                        "iconUrl": "",
                        "isERC1155": false,
                        "isERC721": false,
                        "sign": false,
                        "value": "59451.067187734279475"
                    }
                ]
            },
            {
                "account": "0xbd8ccbe7247b99d87a10593ce0f5d7e300bc049e",
                "assets": [
                    {
                        "address": "0x5f98805a4e8be255a32880fdec7f6728c6568ba0",
                        "amount": "59,989.351644786452657986",
                        "iconUrl": "",
                        "isERC1155": false,
                        "isERC721": false,
                        "sign": true,
                        "value": "59451.067187734279475"
                    }
                ]
            }
        ]
    },
    "profile": {
        "basic_info": {
            "baseFee": "40.07125918",
            "blockNumber": 19171431,
            "callData": "0xfa558b710000000000000000000000005f98805a4e8be255a32880fdec7f6728c6568ba0000000000000000000000000000000000000000000000000000000000000006000000000000000000000000000000000000000000000000000000000000000a00000000000000000000000000000000000000000000000000000000000000001000000000000000000000000bd8ccbe7247b99d87a10593ce0f5d7e300bc049e0000000000000000000000000000000000000000000000000000000000000001000000000000000000000000000000000000000000000cb4077e2bb9f3d4f742",
            "debugEnable": true,
            "errorInfo": "",
            "eventCount": 1,
            "feeRecipient": "0x388c818ca8b9251b393131c08a736a67ccb19297",
            "formatValue": "0",
            "gasLimit": 351400,
            "gasPrice": "40.758094181",
            "gasUsed": 60957,
            "intTxnCount": 1,
            "internalRevert": false,
            "internalRevertMessage": "",
            "isContractCreation": false,
            "isFlashloan": false,
            "maxFee": "500",
            "nonce": 4316020,
            "overwritedBlockNumber": -1,
            "priorityFee": "0.686835001",
            "receiver": "0x5f65f7b609678448494de4c87521cdf6cef1e932",
            "revertMessage": "",
            "sender": "0xd24400ae8bfebb18ca49be86258a3c749cf46853",
            "simulationEnable": true,
            "sourceTxnHash": "0xdf65a7d6a89bd2714805385761dd764016aa2b32b1a9012f819324bc0890efbf",
            "status": true,
            "timestamp": "2024-02-06T20:00:23Z",
            "transactionFee": "0.002484491146991217",
            "txnHash": "0xdf65a7d6a89bd2714805385761dd764016aa2b32b1a9012f819324bc0890efbf",
            "txnIndex": 127,
            "type": 2,
            "value": "0"
        },
        "fund_flow": [
            {
                "amount": "59,989.351644786452657986",
                "from": "0x5f65f7b609678448494de4c87521cdf6cef1e932",
                "id": 1,
                "isERC1155": false,
                "isERC721": false,
                "isReverted": false,
                "order": 1,
                "to": "0xbd8ccbe7247b99d87a10593ce0f5d7e300bc049e",
                "token": "0x5f98805a4e8be255a32880fdec7f6728c6568ba0"
            }
        ],
        "token_infos": [
            {
                "address": "0x5f98805a4e8be255a32880fdec7f6728c6568ba0",
                "decimals": 18
            },
            {
                "address": "0xc02aaa39b223fe8d0a0e5c4f27ead9083c756cc2",
                "decimals": 18
            },
            {
                "address": "0xeeeeeeeeeeeeeeeeeeeeeeeeeeeeeeeeeeeeeeee",
                "decimals": 18
            }
        ]
    },
    "address_label": {
        "labels": [
            {
                "address": "0xeeeeeeeeeeeeeeeeeeeeeeeeeeeeeeeeeeeeeeee",
                "label": "Ether"
            },
            {
                "address": "0x5f65f7b609678448494de4c87521cdf6cef1e932",
                "label": "GEMINI"
            },
            {
                "address": "0x5f98805a4e8be255a32880fdec7f6728c6568ba0",
                "label": "LUSD Stablecoin (LUSD)"
            },
            {
                "address": "0x388c818ca8b9251b393131c08a736a67ccb19297",
                "label": "LidoExecutionLayerRewardsVault"
            },
            {
                "address": "0x0000000000000000000000000000000000000002",
                "label": "Precompiled"
            },
            {
                "address": "0x0000000000000000000000000000000000000003",
                "label": "Precompiled"
            },
            {
                "address": "0x0000000000000000000000000000000000000004",
                "label": "Precompiled"
            },
            {
                "address": "0xd24400ae8bfebb18ca49be86258a3c749cf46853",
                "label": "Gemini"
            },
            {
                "address": "0xbd8ccbe7247b99d87a10593ce0f5d7e300bc049e",
                "label": "Maker Vault Owner"
            },
            {
                "address": "0x0000000000000000000000000000000000000001",
                "label": "Precompiled"
            }
        ]
    },
    "trace": {
        "accountLabels": null,
        "dataMap": {
            "-1": {
                "invocation": {
                    "address": "0xd24400ae8bfebb18ca49be86258a3c749cf46853",
                    "callData": "",
                    "decodedMethod": null,
                    "errorInfo": "",
                    "fromAddress": "",
                    "gasUsed": 0,
                    "id": -1,
                    "methodDecoded": false,
                    "operation": "",
                    "output": "",
                    "revert": false,
                    "revertMessage": "",
                    "selector": "",
                    "status": false,
                    "value": ""
                },
                "nodeType": 0
            },
            "0": {
                "invocation": {
                    "address": "0x5f65f7b609678448494de4c87521cdf6cef1e932",
                    "callData": "0x0000000000000000000000005f98805a4e8be255a32880fdec7f6728c6568ba0000000000000000000000000000000000000000000000000000000000000006000000000000000000000000000000000000000000000000000000000000000a00000000000000000000000000000000000000000000000000000000000000001000000000000000000000000bd8ccbe7247b99d87a10593ce0f5d7e300bc049e0000000000000000000000000000000000000000000000000000000000000001000000000000000000000000000000000000000000000cb4077e2bb9f3d4f742",
                    "decodedMethod": {
                        "callParams": [
                            {
                                "name": "recipient",
                                "type": "address",
                                "value": "0x5f98805a4e8be255a32880fdec7f6728c6568ba0"
                            },
                            {
                                "name": "tokens",
                                "type": "address[]",
                                "value": [
                                    "0xbd8ccbe7247b99d87a10593ce0f5d7e300bc049e"
                                ]
                            },
                            {
                                "name": "amounts",
                                "type": "uint256[]",
                                "value": [
                                    "59,989,351,644,786,452,657,986"
                                ]
                            }
                        ],
                        "constructorArguments": "",
                        "name": "transferERC20",
                        "returnParams": [],
                        "signature": "transferERC20(address,address[],uint256[])"
                    },
                    "errorInfo": "",
                    "fromAddress": "0xd24400ae8bfebb18ca49be86258a3c749cf46853",
                    "gasUsed": 60957,
                    "id": 0,
                    "methodDecoded": true,
                    "operation": "CALL",
                    "output": "",
                    "revert": false,
                    "revertMessage": "",
                    "selector": "0xfa558b71",
                    "status": true,
                    "value": "0"
                },
                "nodeType": 0
            },
            "1": {
                "invocation": {
                    "address": "0x5f98805a4e8be255a32880fdec7f6728c6568ba0",
                    "callData": "0x000000000000000000000000bd8ccbe7247b99d87a10593ce0f5d7e300bc049e000000000000000000000000000000000000000000000cb4077e2bb9f3d4f742",
                    "decodedMethod": {
                        "callParams": [
                            {
                                "name": "recipient",
                                "type": "address",
                                "value": "0xbd8ccbe7247b99d87a10593ce0f5d7e300bc049e"
                            },
                            {
                                "decimalAvailable": true,
                                "name": "amount",
                                "type": "uint256",
                                "value": "59,989,351,644,786,452,657,986"
                            }
                        ],
                        "constructorArguments": "",
                        "name": "transfer",
                        "returnParams": [
                            {
                                "name": "",
                                "type": "bool",
                                "value": true
                            }
                        ],
                        "signature": "transfer(address,uint256)"
                    },
                    "errorInfo": "",
                    "fromAddress": "0x5f65f7b609678448494de4c87521cdf6cef1e932",
                    "gasUsed": 26300,
                    "id": 1,
                    "methodDecoded": true,
                    "operation": "CALL",
                    "output": "0x0000000000000000000000000000000000000000000000000000000000000001",
                    "revert": false,
                    "revertMessage": "",
                    "selector": "0xa9059cbb",
                    "status": true,
                    "value": "0"
                },
                "nodeType": 0
            },
            "2": {
                "event": {
                    "contract": "0x5f98805a4e8be255a32880fdec7f6728c6568ba0",
                    "decodedLog": {
                        "name": "Transfer",
                        "params": [
                            {
                                "name": "from",
                                "type": "address",
                                "value": "0x5f65f7b609678448494de4c87521cdf6cef1e932"
                            },
                            {
                                "name": "to",
                                "type": "address",
                                "value": "0xbd8ccbe7247b99d87a10593ce0f5d7e300bc049e"
                            },
                            {
                                "decimalAvailable": true,
                                "name": "value",
                                "type": "uint256",
                                "value": "59,989,351,644,786,452,657,986"
                            }
                        ],
                        "signature": "Transfer(address,address,uint256)"
                    },
                    "id": 2,
                    "logData": "0x000000000000000000000000000000000000000000000cb4077e2bb9f3d4f742",
                    "logDecoded": true,
                    "operation": "EVENT",
                    "revert": false,
                    "status": true,
                    "topics": [
                        "0xddf252ad1be2c89b69c2b068fc378daa952ba7f163c4a11628f55a4df523b3ef",
                        "0x0000000000000000000000005f65f7b609678448494de4c87521cdf6cef1e932",
                        "0x000000000000000000000000bd8ccbe7247b99d87a10593ce0f5d7e300bc049e"
                    ]
                },
                "nodeType": 1
            }
        },
        "gasFlame": [
            {
                "children": [
                    {
                        "children": [
                            {
                                "children": [],
                                "depth": 0,
                                "name": "Initial Gas",
                                "value": 33096
                            },
                            {
                                "children": [
                                    {
                                        "children": [],
                                        "depth": 1,
                                        "name": "transfer",
                                        "value": 26300
                                    }
                                ],
                                "depth": 0,
                                "name": "Executed Gas",
                                "value": 27861
                            }
                        ],
                        "depth": -1,
                        "name": "Actual Gas Used",
                        "value": 60957
                    },
                    {
                        "children": [],
                        "depth": -1,
                        "name": "Refunded Gas",
                        "value": 0
                    }
                ],
                "depth": -2,
                "name": "Total Gas",
                "value": 60957
            }
        ],
        "isConfirmed": true,
        "mainTrace": [
            {
                "children": [
                    {
                        "children": [
                            {
                                "children": [
                                    {
                                        "children": [],
                                        "depth": 2,
                                        "id": 2,
                                        "order": 2
                                    }
                                ],
                                "depth": 1,
                                "id": 1,
                                "order": 1
                            }
                        ],
                        "depth": 0,
                        "id": 0,
                        "order": 0
                    }
                ],
                "depth": -1,
                "id": -1,
                "order": -1
            }
        ],
        "mainTraceNodeCount": 3,
        "parentIdMap": {
            "0": -1,
            "1": 0,
            "2": 1
        },
        "tidyTrace": [
            {
                "children": [
                    {
                        "children": [
                            {
                                "children": [
                                    {
                                        "children": [],
                                        "depth": 2,
                                        "id": 2,
                                        "order": 2
                                    }
                                ],
                                "depth": 1,
                                "id": 1,
                                "order": 1
                            }
                        ],
                        "depth": 0,
                        "id": 0,
                        "order": 0
                    }
                ],
                "depth": -1,
                "id": -1,
                "order": -1
            }
        ],
        "tidyTraceNodeCount": 3
    },
    "state_change": {
        "stateChanges": [
            {
                "address": "0x5f98805a4e8be255a32880fdec7f6728c6568ba0",
                "erc": "ERC-20",
                "slots": [
                    {
                        "current": "0x000000000000000000000000000000000000000000000cb4077e2bb9f3d4f742",
                        "key": "0x513908de44e32f1b3ec9217470118de1e238d3a860152b00f8bc5281736507c5",
                        "prev": "0x0000000000000000000000000000000000000000000000000000000000000000"
                    },
                    {
                        "current": "0x000000000000000000000000000000000000000000000201e817a8b2ec8e26c4",
                        "key": "0xe0c0bcfb0107a3fe795ac05e50c4589e4bf6af85df30a729108f9d0c5813581b",
                        "prev": "0x000000000000000000000000000000000000000000000eb5ef95d46ce0631e06"
                    }
                ],
                "storageVariables": [
                    {
                        "name": "_balances",
                        "type": "mapping(address => uint256)",
                        "value": {
                            "pairs": [
                                {
                                    "key": "0x5f65f7b609678448494de4c87521cdf6cef1e932",
                                    "value": {
                                        "current": "9479903731040689989316",
                                        "prev": "69469255375827142647302",
                                        "typeTag": 1
                                    }
                                },
                                {
                                    "key": "0xbd8ccbe7247b99d87a10593ce0f5d7e300bc049e",
                                    "value": {
                                        "current": "59989351644786452657986",
                                        "prev": "0",
                                        "typeTag": 1
                                    }
                                }
                            ],
                            "typeTag": 4
                        }
                    }
                ]
            }
        ]
    }
}