{
    "balance_change": {
        "balanceChanges": [
            {
                "account": "0x69f36ea1ebf4ec9e53e3aabf11caf62b034ff3ee",
                "assets": [
                    {
                        "address": "0xeeeeeeeeeeeeeeeeeeeeeeeeeeeeeeeeeeeeeeee",
                        "amount": "1.811248",
                        "iconUrl": "https://assets.blocksec.com/image/1663669189317-3.png",
                        "isERC1155": false,
                        "isERC721": false,
                        "sign": false,
                        "value": "1988.4605043199998518"
                    }
                ]
            },
            {
                "account": "0xe544cf993c7d477c7ef8e91d28aca250d135aa03",
                "assets": [
                    {
                        "address": "0xeeeeeeeeeeeeeeeeeeeeeeeeeeeeeeeeeeeeeeee",
                        "amount": "1.811248",
                        "iconUrl": "https://assets.blocksec.com/image/1663669189317-3.png",
                        "isERC1155": false,
                        "isERC721": false,
                        "sign": true,
                        "value": "1988.4605043199998518"
                    }
                ]
            }
        ]
    },
    "profile": {
        "basic_info": {
            "baseFee": "9.963953666",
            "blockNumber": 16023097,
            "callData": "0x7ba3033d000000000000000000000000000000000000000000000000000000000000000000000000000000000000000000000000000000000000000000000000000000010000000000000000000000000000000000000000000000000000000000000060000000000000000000000000000000000000000000000000000000000000000300000000000000000000000000000000000000000000000001c0be46999460000000000000000000000000000000000000000000000000001922d875a8230000000000000000000000000000000000000000000000000faf90483509d63fa000",
            "debugEnable": true,
            "errorInfo": "",
            "eventCount": 3,
            "feeRecipient": "0x6d2e03b7effeae98bd302a9f836d0d6ab0002766",
            "formatValue": "1.811248",
            "gasLimit": 600000,
            "gasPrice": "10.811063494",
            "gasUsed": 210636,
            "intTxnCount": 1,
            "internalRevert": false,
            "internalRevertMessage": "",
            "isContractCreation": false,
            "isFlashloan": false,
            "maxFee": "10.811063494",
            "nonce": 73799,
            "overwritedBlockNumber": -1,
            "priorityFee": "1.308110634",
            "receiver": "0xe544cf993c7d477c7ef8e91d28aca250d135aa03",
            "revertMessage": "",
            "sender": "0x69f36ea1ebf4ec9e53e3aabf11caf62b034ff3ee",
            "simulationEnable": true,
            "sourceTxnHash": "0xdf8990739e8a176de7d4805e3425725216bdbca9262600fd86cde112ae2ace11",
            "status": true,
            "timestamp": "2022-11-22T04:15:11Z",
            "transactionFee": "0.002277199170122184",
            "txnHash": "0xdf8990739e8a176de7d4805e3425725216bdbca9262600fd86cde112ae2ace11",
            "txnIndex": 10,
            "type": 2,
            "value": "1811248000000000000"
        },
        "fund_flow": [
            {
                "amount": "1.811248",
                "from": "0x69f36ea1ebf4ec9e53e3aabf11caf62b034ff3ee",
                "id": 1,
                "isERC1155": false,
                "isERC721": false,
                "isReverted": false,
                "order": 1,
                "to": "0xe544cf993c7d477c7ef8e91d28aca250d135aa03",
                "token": "0xeeeeeeeeeeeeeeeeeeeeeeeeeeeeeeeeeeeeeeee"
            }
        ],
        "token_infos": [
            {
                "address": "0xc02aaa39b223fe8d0a0e5c4f27ead9083c756cc2",
                "decimals": 18
            },
            {
                "address": "0xeeeeeeeeeeeeeeeeeeeeeeeeeeeeeeeeeeeeeeee",
                "decimals": 18
            }
        ]
    },
    "address_label": {
        "labels": [
            {
                "address": "0x0adb9cf4d1747b85700944bb1a0654f681bb11b3",
                "label": "NestBatchPlatform2"
            },
            {
                "address": "0x0000000000000000000000000000000000000001",
                "label": "Precompiled"
            },
            {
                "address": "0x0000000000000000000000000000000000000002",
                "label": "Precompiled"
            },
            {
                "address": "0x0000000000000000000000000000000000000003",
                "label": "Precompiled"
            },
            {
                "address": "0x0000000000000000000000000000000000000004",
                "label": "Precompiled"
            },
            {
                "address": "0xeeeeeeeeeeeeeeeeeeeeeeeeeeeeeeeeeeeeeeee",
                "label": "Ether"
            },
            {
                "address": "0xe544cf993c7d477c7ef8e91d28aca250d135aa03",
                "label": "TransparentUpgradeableProxy_e544_aa03"
            }
        ]
    },
    "trace": {
        "accountLabels": null,
        "dataMap": {
            "-1": {
                "invocation": {
                    "address": "0x69f36ea1ebf4ec9e53e3aabf11caf62b034ff3ee",
                    "callData": "",
                    "decodedMethod": null,
                    "errorInfo": "",
                    "fromAddress": "",
                    "gasUsed": 0,
                    "id": -1,
                    "methodDecoded": false,
                    "operation": "",
                    "output": "",
                    "revert": false,
                    "revertMessage": "",
                    "selector": "",
                    "status": false,
                    "value": ""
                },
                "nodeType": 0
            },
            "0": {
                "invocation": {
                    "address": "0xe544cf993c7d477c7ef8e91d28aca250d135aa03",
                    "callData": "0x000000000000000000000000000000000000000000000000000000000000000000000000000000000000000000000000000000000000000000000000000000010000000000000000000000000000000000000000000000000000000000000060000000000000000000000000000000000000000000000000000000000000000300000000000000000000000000000000000000000000000001c0be46999460000000000000000000000000000000000000000000000000001922d875a8230000000000000000000000000000000000000000000000000faf90483509d63fa000",
                    "decodedMethod": {
                        "callParams": [
                            {
                                "name": "channelId",
                                "type": "uint256",
                                "value": "0"
                            },
                            {
                                "name": "scale",
                                "type": "uint256",
                                "value": "1"
                            },
                            {
                                "name": "equivalents",
                                "type": "uint256[]",
                                "value": [
                                    "126,310,000,000,000,000",
                                    "1,811,248,000,000,000,000",
                                    "74,074,074,074,000,000,000,000"
                                ]
                            }
                        ],
                        "constructorArguments": "",
                        "name": "post",
                        "returnParams": [],
                        "signature": "post(uint256,uint256,uint256[])"
                    },
                    "errorInfo": "",
                    "fromAddress": "0x69f36ea1ebf4ec9e53e3aabf11caf62b034ff3ee",
                    "gasUsed": 210636,
                    "id": 0,
                    "methodDecoded": true,
                    "operation": "CALL",
                    "output": "",
                    "revert": false,
                    "revertMessage": "",
                    "selector": "0x7ba3033d",
                    "status": true,
                    "value": "1.811248"
                },
                "nodeType": 0
            },
            "1": {
                "invocation": {
                    "address": "0x0adb9cf4d1747b85700944bb1a0654f681bb11b3",
                    "callData": "0x000000000000000000000000000000000000000000000000000000000000000000000000000000000000000000000000000000000000000000000000000000010000000000000000000000000000000000000000000000000000000000000060000000000000000000000000000000000000000000000000000000000000000300000000000000000000000000000000000000000000000001c0be46999460000000000000000000000000000000000000000000000000001922d875a8230000000000000000000000000000000000000000000000000faf90483509d63fa000",
                    "decodedMethod": {
                        "callParams": [
                            {
                                "name": "channelId",
                                "type": "uint256",
                                "value": "0"
                            },
                            {
                                "name": "scale",
                                "type": "uint256",
                                "value": "1"
                            },
                            {
                                "name": "equivalents",
                                "type": "uint256[]",
                                "value": [
                                    "126,310,000,000,000,000",
                                    "1,811,248,000,000,000,000",
                                    "74,074,074,074,000,000,000,000"
                                ]
                            }
                        ],
                        "constructorArguments": "",
                        "name": "post",
                        "returnParams": [],
                        "signature": "post(uint256,uint256,uint256[])"
                    },
                    "errorInfo": "",
                    "fromAddress": "0xe544cf993c7d477c7ef8e91d28aca250d135aa03",
                    "gasUsed": 181015,
                    "id": 1,
                    "methodDecoded": true,
                    "operation": "DELEGATECALL",
                    "output": "",
                    "revert": false,
                    "revertMessage": "",
                    "selector": "0x7ba3033d",
                    "status": true,
                    "value": "1.811248"
                },
                "nodeType": 0
            },
            "2": {
                "event": {
                    "contract": "0xe544cf993c7d477c7ef8e91d28aca250d135aa03",
                    "decodedLog": {
                        "name": "Post",
                        "params": [
                            {
                                "name": "channelId",
                                "type": "uint256",
                                "value": "0"
                            },
                            {
                                "name": "pairIndex",
                                "type": "uint256",
                                "value": "2"
                            },
                            {
                                "name": "miner",
                                "type": "address",
                                "value": "0x69f36ea1ebf4ec9e53e3aabf11caf62b034ff3ee"
                            },
                            {
                                "name": "index",
                                "type": "uint256",
                                "value": "54,806"
                            },
                            {
                                "name": "scale",
                                "type": "uint256",
                                "value": "1"
                            },
                            {
                                "name": "price",
                                "type": "uint256",
                                "value": "74,074,074,074,000,000,000,000"
                            }
                        ],
                        "signature": "Post(uint256,uint256,address,uint256,uint256,uint256)"
                    },
                    "id": 2,
                    "logData": "0x0000000000000000000000000000000000000000000000000000000000000000000000000000000000000000000000000000000000000000000000000000000200000000000000000000000069f36ea1ebf4ec9e53e3aabf11caf62b034ff3ee000000000000000000000000000000000000000000000000000000000000d6160000000000000000000000000000000000000000000000000000000000000001000000000000000000000000000000000000000000000faf90483509d63fa000",
                    "logDecoded": true,
                    "operation": "EVENT",
                    "revert": false,
                    "status": true,
                    "topics": [
                        "0xa9f51105abd325b0b448a253f5a627f7e2b99b1f2ff238d0779128d29ac3d85b"
                    ]
                },
                "nodeType": 1
            },
            "3": {
                "event": {
                    "contract": "0xe544cf993c7d477c7ef8e91d28aca250d135aa03",
                    "decodedLog": {
                        "name": "Post",
                        "params": [
                            {
                                "name": "channelId",
                                "type": "uint256",
                                "value": "0"
                            },
                            {
                                "name": "pairIndex",
                                "type": "uint256",
                                "value": "1"
                            },
                            {
                                "name": "miner",
                                "type": "address",
                                "value": "0x69f36ea1ebf4ec9e53e3aabf11caf62b034ff3ee"
                            },
                            {
                                "name": "index",
                                "type": "uint256",
                                "value": "54,794"
                            },
                            {
                                "name": "scale",
                                "type": "uint256",
                                "value": "1"
                            },
                            {
                                "name": "price",
                                "type": "uint256",
                                "value": "1,811,248,000,000,000,000"
                            }
                        ],
                        "signature": "Post(uint256,uint256,address,uint256,uint256,uint256)"
                    },
                    "id": 3,
                    "logData": "0x0000000000000000000000000000000000000000000000000000000000000000000000000000000000000000000000000000000000000000000000000000000100000000000000000000000069f36ea1ebf4ec9e53e3aabf11caf62b034ff3ee000000000000000000000000000000000000000000000000000000000000d60a00000000000000000000000000000000000000000000000000000000000000010000000000000000000000000000000000000000000000001922d875a8230000",
                    "logDecoded": true,
                    "operation": "EVENT",
                    "revert": false,
                    "status": true,
                    "topics": [
                        "0xa9f51105abd325b0b448a253f5a627f7e2b99b1f2ff238d0779128d29ac3d85b"
                    ]
                },
                "nodeType": 1
            },
            "4": {
                "event": {
                    "contract": "0xe544cf993c7d477c7ef8e91d28aca250d135aa03",
                    "decodedLog": {
                        "name": "Post",
                        "params": [
                            {
                                "name": "channelId",
                                "type": "uint256",
                                "value": "0"
                            },
                            {
                                "name": "pairIndex",
                                "type": "uint256",
                                "value": "0"
                            },
                            {
                                "name": "miner",
                                "type": "address",
                                "value": "0x69f36ea1ebf4ec9e53e3aabf11caf62b034ff3ee"
                            },
                            {
                                "name": "index",
                                "type": "uint256",
                                "value": "55,873"
                            },
                            {
                                "name": "scale",
                                "type": "uint256",
                                "value": "1"
                            },
                            {
                                "name": "price",
                                "type": "uint256",
                                "value": "126,310,000,000,000,000"
                            }
                        ],
                        "signature": "Post(uint256,uint256,address,uint256,uint256,uint256)"
                    },
                    "id": 4,
                    "logData": "0x0000000000000000000000000000000000000000000000000000000000000000000000000000000000000000000000000000000000000000000000000000000000000000000000000000000069f36ea1ebf4ec9e53e3aabf11caf62b034ff3ee000000000000000000000000000000000000000000000000000000000000da41000000000000000000000000000000000000000000000000000000000000000100000000000000000000000000000000000000000000000001c0be4699946000",
                    "logDecoded": true,
                    "operation": "EVENT",
                    "revert": false,
                    "status": true,
                    "topics": [
                        "0xa9f51105abd325b0b448a253f5a627f7e2b99b1f2ff238d0779128d29ac3d85b"
                    ]
                },
                "nodeType": 1
            }
        },
        "gasFlame": [
            {
                "children": [
                    {
                        "children": [
                            {
                                "children": [],
                                "depth": 0,
                                "name": "Initial Gas",
                                "value": 22260
                            },
                            {
                                "children": [
                                    {
                                        "children": [],
                                        "depth": 1,
                                        "name": "post",
                                        "value": 181015
                                    }
                                ],
                                "depth": 0,
                                "name": "Executed Gas",
                                "value": 188376
                            }
                        ],
                        "depth": -1,
                        "name": "Actual Gas Used",
                        "value": 210636
                    },
                    {
                        "children": [],
                        "depth": -1,
                        "name": "Refunded Gas",
                        "value": 0
                    }
                ],
                "depth": -2,
                "name": "Total Gas",
                "value": 210636
            }
        ],
        "isConfirmed": true,
        "mainTrace": [
            {
                "children": [
                    {
                        "children": [
                            {
                                "children": [
                                    {
                                        "children": [],
                                        "depth": 2,
                                        "id": 2,
                                        "order": 2
                                    },
                                    {
                                        "children": [],
                                        "depth": 2,
                                        "id": 3,
                                        "order": 3
                                    },
                                    {
                                        "children": [],
                                        "depth": 2,
                                        "id": 4,
                                        "order": 4
                                    }
                                ],
                                "depth": 1,
                                "id": 1,
                                "order": 1
                            }
                        ],
                        "depth": 0,
                        "id": 0,
                        "order": 0
                    }
                ],
                "depth": -1,
                "id": -1,
                "order": -1
            }
        ],
        "mainTraceNodeCount": 5,
        "parentIdMap": {
            "0": -1,
            "1": 0,
            "2": 1,
            "3": 1,
            "4": 1
        },
        "tidyTrace": [
            {
                "children": [
                    {
                        "children": [
                            {
                                "children": [
                                    {
                                        "children": [],
                                        "depth": 2,
                                        "id": 2,
                                        "order": 2
                                    },
                                    {
                                        "children": [],
                                        "depth": 2,
                                        "id": 3,
                                        "order": 3
                                    },
                                    {
                                        "children": [],
                                        "depth": 2,
                                        "id": 4,
                                        "order": 4
                                    }
                                ],
                                "depth": 1,
                                "id": 1,
                                "order": 1
                            }
                        ],
                        "depth": 0,
                        "id": 0,
                        "order": 0
                    }
                ],
                "depth": -1,
                "id": -1,
                "order": -1
            }
        ],
        "tidyTraceNodeCount": 5
    },
    "state_change": {}
}