{
    "balance_change": {
        "balanceChanges": [
            {
                "account": "0x2fbe3808a01301c9475082f109e0088a19c63949",
                "assets": [
                    {
                        "address": "0xe6b75a1960f91bfa7010dec8543685ead67f8cff",
                        "amount": "7,706",
                        "iconUrl": "",
                        "isERC1155": false,
                        "isERC721": false,
                        "sign": false,
                        "value": ""
                    }
                ]
            },
            {
                "account": "0xaff68273128e34a160c516c4bc01e325087ddf44",
                "assets": [
                    {
                        "address": "0xe6b75a1960f91bfa7010dec8543685ead67f8cff",
                        "amount": "7,706",
                        "iconUrl": "",
                        "isERC1155": false,
                        "isERC721": false,
                        "sign": true,
                        "value": ""
                    }
                ]
            }
        ]
    },
    "profile": {
        "basic_info": {
            "baseFee": "",
            "blockNumber": 8159162,
            "callData": "0xa9059cbb000000000000000000000000aff68273128e34a160c516c4bc01e325087ddf440000000000000000000000000000000000000000000001a1be3b9bdcb8280000",
            "debugEnable": true,
            "errorInfo": "",
            "eventCount": 1,
            "feeRecipient": "0x829bd824b016326a401d083b33d092293333a830",
            "formatValue": "0",
            "gasLimit": 210000,
            "gasPrice": "10",
            "gasUsed": 38040,
            "intTxnCount": 0,
            "internalRevert": false,
            "internalRevertMessage": "",
            "isContractCreation": false,
            "isFlashloan": false,
            "maxFee": "",
            "nonce": 4055,
            "overwritedBlockNumber": -1,
            "priorityFee": "",
            "receiver": "0xe6b75a1960f91bfa7010dec8543685ead67f8cff",
            "revertMessage": "",
            "sender": "0x2fbe3808a01301c9475082f109e0088a19c63949",
            "simulationEnable": true,
            "sourceTxnHash": "0xdfed00bae42dcdacc699289fdd5748d804dbb6198344b237153d684c2ec218e6",
            "status": true,
            "timestamp": "2019-07-16T01:56:04Z",
            "transactionFee": "0.0003804",
            "txnHash": "0xdfed00bae42dcdacc699289fdd5748d804dbb6198344b237153d684c2ec218e6",
            "txnIndex": 31,
            "type": 0,
            "value": "0"
        },
        "fund_flow": [
            {
                "amount": "7,706",
                "from": "0x2fbe3808a01301c9475082f109e0088a19c63949",
                "id": 1,
                "isERC1155": false,
                "isERC721": false,
                "isReverted": false,
                "order": 1,
                "to": "0xaff68273128e34a160c516c4bc01e325087ddf44",
                "token": "0xe6b75a1960f91bfa7010dec8543685ead67f8cff"
            }
        ],
        "token_infos": [
            {
                "address": "0xeeeeeeeeeeeeeeeeeeeeeeeeeeeeeeeeeeeeeeee",
                "decimals": 18
            },
            {
                "address": "0xc02aaa39b223fe8d0a0e5c4f27ead9083c756cc2",
                "decimals": 18
            },
            {
                "address": "0xe6b75a1960f91bfa7010dec8543685ead67f8cff",
                "decimals": 18
            }
        ]
    },
    "address_label": {
        "labels": [
            {
                "address": "0xe6b75a1960f91bfa7010dec8543685ead67f8cff",
                "label": "Sea Cucumber Chain (SCC)"
            },
            {
                "address": "0x0000000000000000000000000000000000000001",
                "label": "Precompiled"
            },
            {
                "address": "0x0000000000000000000000000000000000000002",
                "label": "Precompiled"
            },
            {
                "address": "0x0000000000000000000000000000000000000003",
                "label": "Precompiled"
            },
            {
                "address": "0x0000000000000000000000000000000000000004",
                "label": "Precompiled"
            },
            {
                "address": "0xeeeeeeeeeeeeeeeeeeeeeeeeeeeeeeeeeeeeeeee",
                "label": "Ether"
            }
        ]
    },
    "trace": {
        "accountLabels": null,
        "dataMap": {
            "-1": {
                "invocation": {
                    "address": "0x2fbe3808a01301c9475082f109e0088a19c63949",
                    "callData": "",
                    "decodedMethod": null,
                    "errorInfo": "",
                    "fromAddress": "",
                    "gasUsed": 0,
                    "id": -1,
                    "methodDecoded": false,
                    "operation": "",
                    "output": "",
                    "revert": false,
                    "revertMessage": "",
                    "selector": "",
                    "status": false,
                    "value": ""
                },
                "nodeType": 0
            },
            "0": {
                "invocation": {
                    "address": "0xe6b75a1960f91bfa7010dec8543685ead67f8cff",
                    "callData": "0x000000000000000000000000aff68273128e34a160c516c4bc01e325087ddf440000000000000000000000000000000000000000000001a1be3b9bdcb8280000",
                    "decodedMethod": {
                        "callParams": [
                            {
                                "name": "_to",
                                "type": "address",
                                "value": "0xaff68273128e34a160c516c4bc01e325087ddf44"
                            },
                            {
                                "decimalAvailable": true,
                                "name": "_value",
                                "type": "uint256",
                                "value": "7,706,000,000,000,000,000,000"
                            }
                        ],
                        "constructorArguments": "",
                        "name": "transfer",
                        "returnParams": [
                            {
                                "name": "",
                                "type": "bool",
                                "value": true
                            }
                        ],
                        "signature": "transfer(address,uint256)"
                    },
                    "errorInfo": "",
                    "fromAddress": "0x2fbe3808a01301c9475082f109e0088a19c63949",
                    "gasUsed": 38040,
                    "id": 0,
                    "methodDecoded": true,
                    "operation": "CALL",
                    "output": "0x0000000000000000000000000000000000000000000000000000000000000001",
                    "revert": false,
                    "revertMessage": "",
                    "selector": "0xa9059cbb",
                    "status": true,
                    "value": "0"
                },
                "nodeType": 0
            },
            "1": {
                "event": {
                    "contract": "0xe6b75a1960f91bfa7010dec8543685ead67f8cff",
                    "decodedLog": {
                        "name": "Transfer",
                        "params": [
                            {
                                "name": "from",
                                "type": "address",
                                "value": "0x2fbe3808a01301c9475082f109e0088a19c63949"
                            },
                            {
                                "name": "to",
                                "type": "address",
                                "value": "0xaff68273128e34a160c516c4bc01e325087ddf44"
                            },
                            {
                                "decimalAvailable": true,
                                "name": "value",
                                "type": "uint256",
                                "value": "7,706,000,000,000,000,000,000"
                            }
                        ],
                        "signature": "Transfer(address,address,uint256)"
                    },
                    "id": 1,
                    "logData": "0x0000000000000000000000000000000000000000000001a1be3b9bdcb8280000",
                    "logDecoded": true,
                    "operation": "EVENT",
                    "revert": false,
                    "status": true,
                    "topics": [
                        "0xddf252ad1be2c89b69c2b068fc378daa952ba7f163c4a11628f55a4df523b3ef",
                        "0x0000000000000000000000002fbe3808a01301c9475082f109e0088a19c63949",
                        "0x000000000000000000000000aff68273128e34a160c516c4bc01e325087ddf44"
                    ]
                },
                "nodeType": 1
            }
        },
        "gasFlame": [
            {
                "children": [
                    {
                        "children": [
                            {
                                "children": [],
                                "depth": 0,
                                "name": "Initial Gas",
                                "value": 23320
                            },
                            {
                                "children": [],
                                "depth": 0,
                                "name": "Executed Gas",
                                "value": 14720
                            }
                        ],
                        "depth": -1,
                        "name": "Actual Gas Used",
                        "value": 38040
                    },
                    {
                        "children": [],
                        "depth": -1,
                        "name": "Refunded Gas",
                        "value": 0
                    }
                ],
                "depth": -2,
                "name": "Total Gas",
                "value": 38040
            }
        ],
        "isConfirmed": true,
        "mainTrace": [
            {
                "children": [
                    {
                        "children": [
                            {
                                "children": [],
                                "depth": 1,
                                "id": 1,
                                "order": 1
                            }
                        ],
                        "depth": 0,
                        "id": 0,
                        "order": 0
                    }
                ],
                "depth": -1,
                "id": -1,
                "order": -1
            }
        ],
        "mainTraceNodeCount": 2,
        "parentIdMap": {
            "0": -1,
            "1": 0
        },
        "tidyTrace": [
            {
                "children": [
                    {
                        "children": [
                            {
                                "children": [],
                                "depth": 1,
                                "id": 1,
                                "order": 1
                            }
                        ],
                        "depth": 0,
                        "id": 0,
                        "order": 0
                    }
                ],
                "depth": -1,
                "id": -1,
                "order": -1
            }
        ],
        "tidyTraceNodeCount": 2
    },
    "state_change": {
        "stateChanges": [
            {
                "address": "0xe6b75a1960f91bfa7010dec8543685ead67f8cff",
                "erc": "ERC-20",
                "slots": [
                    {
                        "current": "0x00000000000000000000000000000000000000000002c37faed10026e1500000",
                        "key": "0xb23b1921dfd80e2ec93814c386c38d2ea274a63d5af4af34495062febcf04000",
                        "prev": "0x00000000000000000000000000000000000000000002c5216d0c9c0399780000"
                    },
                    {
                        "current": "0x0000000000000000000000000000000000000000000001a206df20794e159bb0",
                        "key": "0x31d86525b9819ebd06d9970b613a4f1dc9e41802473925c74f24fbce18ff1458",
                        "prev": "0x00000000000000000000000000000000000000000000000048a3849c95ed9bb0"
                    }
                ],
                "storageVariables": [
                    {
                        "name": "balances",
                        "type": "mapping(address => uint256)",
                        "value": {
                            "pairs": [
                                {
                                    "key": "0x2fbe3808a01301c9475082f109e0088a19c63949",
                                    "value": {
                                        "current": "3341068436736000000000000",
                                        "prev": "3348774436736000000000000",
                                        "typeTag": 1
                                    }
                                },
                                {
                                    "key": "0xaff68273128e34a160c516c4bc01e325087ddf44",
                                    "value": {
                                        "current": "7711234172999999790000",
                                        "prev": "5234172999999790000",
                                        "typeTag": 1
                                    }
                                }
                            ],
                            "typeTag": 4
                        }
                    }
                ]
            }
        ]
    }
}