{
    "balance_change": {
        "balanceChanges": [
            {
                "account": "0x49ae94872ab1627067a2f5a9e870164228c6e7cc",
                "assets": [
                    {
                        "address": "0x9dffe202df7f82ba57a7f8d571628805eff7fed9",
                        "amount": "3,000",
                        "iconUrl": "",
                        "isERC1155": false,
                        "isERC721": false,
                        "sign": false,
                        "value": ""
                    }
                ]
            },
            {
                "account": "0xfcde6f7acc67c40094e5ca4985e3497f045aa417",
                "assets": [
                    {
                        "address": "0x9dffe202df7f82ba57a7f8d571628805eff7fed9",
                        "amount": "3,000",
                        "iconUrl": "",
                        "isERC1155": false,
                        "isERC721": false,
                        "sign": true,
                        "value": ""
                    }
                ]
            }
        ]
    },
    "profile": {
        "basic_info": {
            "baseFee": "",
            "blockNumber": 9932415,
            "callData": "0xa9059cbb000000000000000000000000fcde6f7acc67c40094e5ca4985e3497f045aa4170000000000000000000000000000000000000000000000a2a15d09519be00000",
            "debugEnable": true,
            "errorInfo": "",
            "eventCount": 1,
            "feeRecipient": "0xea674fdde714fd979de3edf0f56aa9716b898ec8",
            "formatValue": "0",
            "gasLimit": 55576,
            "gasPrice": "4",
            "gasUsed": 55576,
            "intTxnCount": 0,
            "internalRevert": false,
            "internalRevertMessage": "",
            "isContractCreation": false,
            "isFlashloan": false,
            "maxFee": "",
            "nonce": 14781,
            "overwritedBlockNumber": -1,
            "priorityFee": "",
            "receiver": "0x9dffe202df7f82ba57a7f8d571628805eff7fed9",
            "revertMessage": "",
            "sender": "0x49ae94872ab1627067a2f5a9e870164228c6e7cc",
            "simulationEnable": true,
            "sourceTxnHash": "0xdf06bc75498726e4ad305d806af0952304e7ebca171f0462c1e45ce0f953a48b",
            "status": true,
            "timestamp": "2020-04-24T02:10:40Z",
            "transactionFee": "0.000222304",
            "txnHash": "0xdf06bc75498726e4ad305d806af0952304e7ebca171f0462c1e45ce0f953a48b",
            "txnIndex": 161,
            "type": 0,
            "value": "0"
        },
        "fund_flow": [
            {
                "amount": "3,000",
                "from": "0x49ae94872ab1627067a2f5a9e870164228c6e7cc",
                "id": 1,
                "isERC1155": false,
                "isERC721": false,
                "isReverted": false,
                "order": 1,
                "to": "0xfcde6f7acc67c40094e5ca4985e3497f045aa417",
                "token": "0x9dffe202df7f82ba57a7f8d571628805eff7fed9"
            }
        ],
        "token_infos": [
            {
                "address": "0x9dffe202df7f82ba57a7f8d571628805eff7fed9",
                "decimals": 18
            },
            {
                "address": "0xc02aaa39b223fe8d0a0e5c4f27ead9083c756cc2",
                "decimals": 18
            },
            {
                "address": "0xeeeeeeeeeeeeeeeeeeeeeeeeeeeeeeeeeeeeeeee",
                "decimals": 18
            }
        ]
    },
    "address_label": {
        "labels": [
            {
                "address": "0x0000000000000000000000000000000000000001",
                "label": "Precompiled"
            },
            {
                "address": "0x0000000000000000000000000000000000000002",
                "label": "Precompiled"
            },
            {
                "address": "0x0000000000000000000000000000000000000003",
                "label": "Precompiled"
            },
            {
                "address": "0x0000000000000000000000000000000000000004",
                "label": "Precompiled"
            },
            {
                "address": "0xeeeeeeeeeeeeeeeeeeeeeeeeeeeeeeeeeeeeeeee",
                "label": "Ether"
            },
            {
                "address": "0x9dffe202df7f82ba57a7f8d571628805eff7fed9",
                "label": "Green&nbsp;(China)&nbsp;ec... (GEC)"
            }
        ]
    },
    "trace": {
        "accountLabels": null,
        "dataMap": {
            "-1": {
                "invocation": {
                    "address": "0x49ae94872ab1627067a2f5a9e870164228c6e7cc",
                    "callData": "",
                    "decodedMethod": null,
                    "errorInfo": "",
                    "fromAddress": "",
                    "gasUsed": 0,
                    "id": -1,
                    "methodDecoded": false,
                    "operation": "",
                    "output": "",
                    "revert": false,
                    "revertMessage": "",
                    "selector": "",
                    "status": false,
                    "value": ""
                },
                "nodeType": 0
            },
            "0": {
                "invocation": {
                    "address": "0x9dffe202df7f82ba57a7f8d571628805eff7fed9",
                    "callData": "0x000000000000000000000000fcde6f7acc67c40094e5ca4985e3497f045aa4170000000000000000000000000000000000000000000000a2a15d09519be00000",
                    "decodedMethod": {
                        "callParams": [
                            {
                                "name": "_to",
                                "type": "address",
                                "value": "0xfcde6f7acc67c40094e5ca4985e3497f045aa417"
                            },
                            {
                                "decimalAvailable": true,
                                "name": "_value",
                                "type": "uint256",
                                "value": "3,000,000,000,000,000,000,000"
                            }
                        ],
                        "constructorArguments": "",
                        "name": "transfer",
                        "returnParams": [
                            {
                                "name": "success",
                                "type": "bool",
                                "value": true
                            }
                        ],
                        "signature": "transfer(address,uint256)"
                    },
                    "errorInfo": "",
                    "fromAddress": "0x49ae94872ab1627067a2f5a9e870164228c6e7cc",
                    "gasUsed": 55576,
                    "id": 0,
                    "methodDecoded": true,
                    "operation": "CALL",
                    "output": "0x0000000000000000000000000000000000000000000000000000000000000001",
                    "revert": false,
                    "revertMessage": "",
                    "selector": "0xa9059cbb",
                    "status": true,
                    "value": "0"
                },
                "nodeType": 0
            },
            "1": {
                "event": {
                    "contract": "0x9dffe202df7f82ba57a7f8d571628805eff7fed9",
                    "decodedLog": {
                        "name": "Transfer",
                        "params": [
                            {
                                "name": "from",
                                "type": "address",
                                "value": "0x49ae94872ab1627067a2f5a9e870164228c6e7cc"
                            },
                            {
                                "name": "to",
                                "type": "address",
                                "value": "0xfcde6f7acc67c40094e5ca4985e3497f045aa417"
                            },
                            {
                                "decimalAvailable": true,
                                "name": "value",
                                "type": "uint256",
                                "value": "3,000,000,000,000,000,000,000"
                            }
                        ],
                        "signature": "Transfer(address,address,uint256)"
                    },
                    "id": 1,
                    "logData": "0x0000000000000000000000000000000000000000000000a2a15d09519be00000",
                    "logDecoded": true,
                    "operation": "EVENT",
                    "revert": false,
                    "status": true,
                    "topics": [
                        "0xddf252ad1be2c89b69c2b068fc378daa952ba7f163c4a11628f55a4df523b3ef",
                        "0x00000000000000000000000049ae94872ab1627067a2f5a9e870164228c6e7cc",
                        "0x000000000000000000000000fcde6f7acc67c40094e5ca4985e3497f045aa417"
                    ]
                },
                "nodeType": 1
            }
        },
        "gasFlame": [
            {
                "children": [
                    {
                        "children": [
                            {
                                "children": [],
                                "depth": 0,
                                "name": "Initial Gas",
                                "value": 21632
                            },
                            {
                                "children": [],
                                "depth": 0,
                                "name": "Executed Gas",
                                "value": 33944
                            }
                        ],
                        "depth": -1,
                        "name": "Actual Gas Used",
                        "value": 55576
                    },
                    {
                        "children": [],
                        "depth": -1,
                        "name": "Refunded Gas",
                        "value": 0
                    }
                ],
                "depth": -2,
                "name": "Total Gas",
                "value": 55576
            }
        ],
        "isConfirmed": true,
        "mainTrace": [
            {
                "children": [
                    {
                        "children": [
                            {
                                "children": [],
                                "depth": 1,
                                "id": 1,
                                "order": 1
                            }
                        ],
                        "depth": 0,
                        "id": 0,
                        "order": 0
                    }
                ],
                "depth": -1,
                "id": -1,
                "order": -1
            }
        ],
        "mainTraceNodeCount": 2,
        "parentIdMap": {
            "0": -1,
            "1": 0
        },
        "tidyTrace": [
            {
                "children": [
                    {
                        "children": [
                            {
                                "children": [],
                                "depth": 1,
                                "id": 1,
                                "order": 1
                            }
                        ],
                        "depth": 0,
                        "id": 0,
                        "order": 0
                    }
                ],
                "depth": -1,
                "id": -1,
                "order": -1
            }
        ],
        "tidyTraceNodeCount": 2
    },
    "state_change": {
        "stateChanges": [
            {
                "address": "0x9dffe202df7f82ba57a7f8d571628805eff7fed9",
                "erc": "ERC-20",
                "slots": [
                    {
                        "current": "0x000000000000000000000000000000000000000000004b31dfc1e9ae14853c00",
                        "key": "0xe98571821f0e48f10c28149bc3a7eefd874e3b11d44ff16432e4b504d9dcb904",
                        "prev": "0x000000000000000000000000000000000000000000004bd4811ef2ffb0653c00"
                    },
                    {
                        "current": "0x0000000000000000000000000000000000000000000000a2a15d09519be00000",
                        "key": "0xc811ae7130ab933b57e63c7d25de559ce24103b0cd34e84bbfce6344d32dcd13",
                        "prev": "0x0000000000000000000000000000000000000000000000000000000000000000"
                    }
                ],
                "storageVariables": [
                    {
                        "name": "balanceOf",
                        "type": "mapping(address => uint256)",
                        "value": {
                            "pairs": [
                                {
                                    "key": "0x49ae94872ab1627067a2f5a9e870164228c6e7cc",
                                    "value": {
                                        "current": "355097500099910000000000",
                                        "prev": "358097500099910000000000",
                                        "typeTag": 1
                                    }
                                },
                                {
                                    "key": "0xfcde6f7acc67c40094e5ca4985e3497f045aa417",
                                    "value": {
                                        "current": "3000000000000000000000",
                                        "prev": "0",
                                        "typeTag": 1
                                    }
                                }
                            ],
                            "typeTag": 4
                        }
                    }
                ]
            }
        ]
    }
}