{
    "balance_change": {
        "balanceChanges": [
            {
                "account": "0x073f0dc58e9989c827ba5b7b35570b7315652e63",
                "assets": [
                    {
                        "address": "0xeeeeeeeeeeeeeeeeeeeeeeeeeeeeeeeeeeeeeeee",
                        "amount": "0.2",
                        "iconUrl": "https://assets.blocksec.com/image/1663669189317-3.png",
                        "isERC1155": false,
                        "isERC721": false,
                        "sign": false,
                        "value": "736.08175099999998564"
                    },
                    {
                        "address": "0xf4d2888d29d722226fafa5d9b24f9164c092421e",
                        "amount": "125.850343856186713765",
                        "iconUrl": "",
                        "isERC1155": false,
                        "isERC721": false,
                        "sign": true,
                        "value": "628.9974834"
                    }
                ]
            },
            {
                "account": "0xc02aaa39b223fe8d0a0e5c4f27ead9083c756cc2",
                "assets": [
                    {
                        "address": "0xeeeeeeeeeeeeeeeeeeeeeeeeeeeeeeeeeeeeeeee",
                        "amount": "0.19825",
                        "iconUrl": "https://assets.blocksec.com/image/1663669189317-3.png",
                        "isERC1155": false,
                        "isERC721": false,
                        "sign": true,
                        "value": "729.64103567874998574"
                    },
                    {
                        "address": "0xc02aaa39b223fe8d0a0e5c4f27ead9083c756cc2",
                        "amount": "0.19825",
                        "iconUrl": "https://assets.blocksec.com/icon/f1cb2d02c471d545bbc7722daf3277fd852d98e63d118771af7047bd8256c516.png",
                        "isERC1155": false,
                        "isERC721": false,
                        "sign": false,
                        "value": "729.64103567874998574"
                    }
                ]
            },
            {
                "account": "0xdc00ba87cc2d99468f7f34bc04cbf72e111a32f7",
                "assets": [
                    {
                        "address": "0xc02aaa39b223fe8d0a0e5c4f27ead9083c756cc2",
                        "amount": "0.19825",
                        "iconUrl": "https://assets.blocksec.com/icon/f1cb2d02c471d545bbc7722daf3277fd852d98e63d118771af7047bd8256c516.png",
                        "isERC1155": false,
                        "isERC721": false,
                        "sign": true,
                        "value": "729.64103567874998574"
                    },
                    {
                        "address": "0xf4d2888d29d722226fafa5d9b24f9164c092421e",
                        "amount": "125.850343856186713765",
                        "iconUrl": "",
                        "isERC1155": false,
                        "isERC721": false,
                        "sign": false,
                        "value": "628.9974834"
                    }
                ]
            },
            {
                "account": "0xf326e4de8f66a0bdc0970b79e0924e33c79f1915",
                "assets": [
                    {
                        "address": "0xeeeeeeeeeeeeeeeeeeeeeeeeeeeeeeeeeeeeeeee",
                        "amount": "0.00175",
                        "iconUrl": "https://assets.blocksec.com/image/1663669189317-3.png",
                        "isERC1155": false,
                        "isERC721": false,
                        "sign": true,
                        "value": "6.4407153212499998747"
                    }
                ]
            }
        ]
    },
    "profile": {
        "basic_info": {
            "baseFee": "75.73433556",
            "blockNumber": 14033150,
            "callData": "0x5f5755290000000000000000000000000000000000000000000000000000000000000080000000000000000000000000000000000000000000000000000000000000000000000000000000000000000000000000000000000000000002c68af0bb14000000000000000000000000000000000000000000000000000000000000000000c0000000000000000000000000000000000000000000000000000000000000000c307846656544796e616d6963000000000000000000000000000000000000000000000000000000000000000000000000000000000000000000000000000002600000000000000000000000000000000000000000000000000000000000000000000000000000000000000000f4d2888d29d722226fafa5d9b24f9164c092421e00000000000000000000000000000000000000000000000002c053531ab8a0000000000000000000000000000000000000000000000000069e20ee532c82862000000000000000000000000000000000000000000000000000000000000001200000000000000000000000000000000000000000000000000006379da05b6000000000000000000000000000f326e4de8f66a0bdc0970b79e0924e33c79f191500000000000000000000000000000000000000000000000000000000000000000000000000000000000000000000000000000000000000000000000000000128d9627aa4000000000000000000000000000000000000000000000000000000000000008000000000000000000000000000000000000000000000000002c053531ab8a0000000000000000000000000000000000000000000000000069e20ee532c82862000000000000000000000000000000000000000000000000000000000000000000000000000000000000000000000000000000000000000000000000000000002000000000000000000000000eeeeeeeeeeeeeeeeeeeeeeeeeeeeeeeeeeeeeeee000000000000000000000000f4d2888d29d722226fafa5d9b24f9164c092421e869584cd00000000000000000000000011ededebf63bef0ea2d2d071bdf88f71543ec6fb00000000000000000000000000000000000000000000005529b2dad861e76eb600000000000000000000000000000000000000000000000018",
            "debugEnable": true,
            "errorInfo": "",
            "eventCount": 7,
            "feeRecipient": "0xea674fdde714fd979de3edf0f56aa9716b898ec8",
            "formatValue": "0.2",
            "gasLimit": 261104,
            "gasPrice": "77.73433556",
            "gasUsed": 186180,
            "intTxnCount": 15,
            "internalRevert": false,
            "internalRevertMessage": "",
            "isContractCreation": false,
            "isFlashloan": false,
            "maxFee": "120.48374544",
            "nonce": 132,
            "overwritedBlockNumber": -1,
            "priorityFee": "2",
            "receiver": "0x881d40237659c251811cec9c364ef91dc08d300c",
            "revertMessage": "",
            "sender": "0x073f0dc58e9989c827ba5b7b35570b7315652e63",
            "simulationEnable": true,
            "sourceTxnHash": "0xdf6894250cbfd09c046ed623707c30fee39988609329ee4c1d23ad472cb041d8",
            "status": true,
            "timestamp": "2022-01-19T01:51:45Z",
            "transactionFee": "0.0144725785945608",
            "txnHash": "0xdf6894250cbfd09c046ed623707c30fee39988609329ee4c1d23ad472cb041d8",
            "txnIndex": 227,
            "type": 2,
            "value": "200000000000000000"
        },
        "fund_flow": [
            {
                "amount": "0.2",
                "from": "0x073f0dc58e9989c827ba5b7b35570b7315652e63",
                "id": 1,
                "isERC1155": false,
                "isERC721": false,
                "isReverted": false,
                "order": 1,
                "to": "0x881d40237659c251811cec9c364ef91dc08d300c",
                "token": "0xeeeeeeeeeeeeeeeeeeeeeeeeeeeeeeeeeeeeeeee"
            },
            {
                "amount": "0.2",
                "from": "0x881d40237659c251811cec9c364ef91dc08d300c",
                "id": 2,
                "isERC1155": false,
                "isERC721": false,
                "isReverted": false,
                "order": 2,
                "to": "0x74de5d4fcbf63e00296fd95d33236b9794016631",
                "token": "0xeeeeeeeeeeeeeeeeeeeeeeeeeeeeeeeeeeeeeeee"
            },
            {
                "amount": "0.19825",
                "from": "0x74de5d4fcbf63e00296fd95d33236b9794016631",
                "id": 3,
                "isERC1155": false,
                "isERC721": false,
                "isReverted": false,
                "order": 3,
                "to": "0xdef1c0ded9bec7f1a1670819833240f027b25eff",
                "token": "0xeeeeeeeeeeeeeeeeeeeeeeeeeeeeeeeeeeeeeeee"
            },
            {
                "amount": "0.19825",
                "from": "0xdef1c0ded9bec7f1a1670819833240f027b25eff",
                "id": 4,
                "isERC1155": false,
                "isERC721": false,
                "isReverted": false,
                "order": 4,
                "to": "0xc02aaa39b223fe8d0a0e5c4f27ead9083c756cc2",
                "token": "0xeeeeeeeeeeeeeeeeeeeeeeeeeeeeeeeeeeeeeeee"
            },
            {
                "amount": "0.19825",
                "from": "0xc02aaa39b223fe8d0a0e5c4f27ead9083c756cc2",
                "id": 5,
                "isERC1155": false,
                "isERC721": false,
                "isReverted": false,
                "order": 5,
                "to": "0xdef1c0ded9bec7f1a1670819833240f027b25eff",
                "token": "0xc02aaa39b223fe8d0a0e5c4f27ead9083c756cc2"
            },
            {
                "amount": "0.19825",
                "from": "0xdef1c0ded9bec7f1a1670819833240f027b25eff",
                "id": 6,
                "isERC1155": false,
                "isERC721": false,
                "isReverted": false,
                "order": 6,
                "to": "0xdc00ba87cc2d99468f7f34bc04cbf72e111a32f7",
                "token": "0xc02aaa39b223fe8d0a0e5c4f27ead9083c756cc2"
            },
            {
                "amount": "125.850343856186713765",
                "from": "0xdc00ba87cc2d99468f7f34bc04cbf72e111a32f7",
                "id": 7,
                "isERC1155": false,
                "isERC721": false,
                "isReverted": false,
                "order": 7,
                "to": "0x74de5d4fcbf63e00296fd95d33236b9794016631",
                "token": "0xf4d2888d29d722226fafa5d9b24f9164c092421e"
            },
            {
                "amount": "0.00175",
                "from": "0x74de5d4fcbf63e00296fd95d33236b9794016631",
                "id": 8,
                "isERC1155": false,
                "isERC721": false,
                "isReverted": false,
                "order": 8,
                "to": "0xf326e4de8f66a0bdc0970b79e0924e33c79f1915",
                "token": "0xeeeeeeeeeeeeeeeeeeeeeeeeeeeeeeeeeeeeeeee"
            },
            {
                "amount": "125.850343856186713765",
                "from": "0x74de5d4fcbf63e00296fd95d33236b9794016631",
                "id": 9,
                "isERC1155": false,
                "isERC721": false,
                "isReverted": false,
                "order": 9,
                "to": "0x073f0dc58e9989c827ba5b7b35570b7315652e63",
                "token": "0xf4d2888d29d722226fafa5d9b24f9164c092421e"
            }
        ],
        "token_infos": [
            {
                "address": "0xc02aaa39b223fe8d0a0e5c4f27ead9083c756cc2",
                "decimals": 18
            },
            {
                "address": "0xf4d2888d29d722226fafa5d9b24f9164c092421e",
                "decimals": 18
            },
            {
                "address": "0xeeeeeeeeeeeeeeeeeeeeeeeeeeeeeeeeeeeeeeee",
                "decimals": 18
            }
        ]
    },
    "address_label": {
        "labels": [
            {
                "address": "0x0000000000000000000000000000000000000003",
                "label": "Precompiled"
            },
            {
                "address": "0x34cfac646f301356faa8b21e94227e3583fe3f5f",
                "label": "Safe: Mastercopy 1.1.1"
            },
            {
                "address": "0xf4d2888d29d722226fafa5d9b24f9164c092421e",
                "label": "LooksRare: LOOKS Token"
            },
            {
                "address": "0x0000000000000000000000000000000000000001",
                "label": "Precompiled"
            },
            {
                "address": "0xeeeeeeeeeeeeeeeeeeeeeeeeeeeeeeeeeeeeeeee",
                "label": "Ether"
            },
            {
                "address": "0xdc00ba87cc2d99468f7f34bc04cbf72e111a32f7",
                "label": "Uniswap V2: LOOKS 3"
            },
            {
                "address": "0x881d40237659c251811cec9c364ef91dc08d300c",
                "label": "Metamask: Swap Router"
            },
            {
                "address": "0xdef1c0ded9bec7f1a1670819833240f027b25eff",
                "label": "0x: Exchange Proxy"
            },
            {
                "address": "0xf9b30557afcf76ea82c04015d80057fa2147dfa9",
                "label": "UniswapFeature"
            },
            {
                "address": "0x0000000000000000000000000000000000000004",
                "label": "Precompiled"
            },
            {
                "address": "0xf326e4de8f66a0bdc0970b79e0924e33c79f1915",
                "label": "MetaMask: DS Proxy"
            },
            {
                "address": "0x74de5d4fcbf63e00296fd95d33236b9794016631",
                "label": "MetaMask: Swaps Spender"
            },
            {
                "address": "0xc02aaa39b223fe8d0a0e5c4f27ead9083c756cc2",
                "label": "Wrapped Ether (WETH)"
            },
            {
                "address": "0x0000000000000000000000000000000000000000",
                "label": "Null Address"
            },
            {
                "address": "0x0000000000000000000000000000000000000002",
                "label": "Precompiled"
            }
        ]
    },
    "trace": {
        "accountLabels": null,
        "dataMap": {
            "-1": {
                "invocation": {
                    "address": "0x073f0dc58e9989c827ba5b7b35570b7315652e63",
                    "callData": "",
                    "decodedMethod": null,
                    "errorInfo": "",
                    "fromAddress": "",
                    "gasUsed": 0,
                    "id": -1,
                    "methodDecoded": false,
                    "operation": "",
                    "output": "",
                    "revert": false,
                    "revertMessage": "",
                    "selector": "",
                    "status": false,
                    "value": ""
                },
                "nodeType": 0
            },
            "0": {
                "invocation": {
                    "address": "0x881d40237659c251811cec9c364ef91dc08d300c",
                    "callData": "0x0000000000000000000000000000000000000000000000000000000000000080000000000000000000000000000000000000000000000000000000000000000000000000000000000000000000000000000000000000000002c68af0bb14000000000000000000000000000000000000000000000000000000000000000000c0000000000000000000000000000000000000000000000000000000000000000c307846656544796e616d6963000000000000000000000000000000000000000000000000000000000000000000000000000000000000000000000000000002600000000000000000000000000000000000000000000000000000000000000000000000000000000000000000f4d2888d29d722226fafa5d9b24f9164c092421e00000000000000000000000000000000000000000000000002c053531ab8a0000000000000000000000000000000000000000000000000069e20ee532c82862000000000000000000000000000000000000000000000000000000000000001200000000000000000000000000000000000000000000000000006379da05b6000000000000000000000000000f326e4de8f66a0bdc0970b79e0924e33c79f191500000000000000000000000000000000000000000000000000000000000000000000000000000000000000000000000000000000000000000000000000000128d9627aa4000000000000000000000000000000000000000000000000000000000000008000000000000000000000000000000000000000000000000002c053531ab8a0000000000000000000000000000000000000000000000000069e20ee532c82862000000000000000000000000000000000000000000000000000000000000000000000000000000000000000000000000000000000000000000000000000000002000000000000000000000000eeeeeeeeeeeeeeeeeeeeeeeeeeeeeeeeeeeeeeee000000000000000000000000f4d2888d29d722226fafa5d9b24f9164c092421e869584cd00000000000000000000000011ededebf63bef0ea2d2d071bdf88f71543ec6fb00000000000000000000000000000000000000000000005529b2dad861e76eb600000000000000000000000000000000000000000000000018",
                    "decodedMethod": {
                        "callParams": [
                            {
                                "name": "aggregatorId",
                                "type": "string",
                                "value": "0xFeeDynamic"
                            },
                            {
                                "name": "tokenFrom",
                                "type": "address",
                                "value": "0x0000000000000000000000000000000000000000"
                            },
                            {
                                "name": "amount",
                                "type": "uint256",
                                "value": "200,000,000,000,000,000"
                            },
                            {
                                "name": "data",
                                "type": "bytes",
                                "value": "0x0000000000000000000000000000000000000000000000000000000000000000000000000000000000000000f4d2888d29d722226fafa5d9b24f9164c092421e00000000000000000000000000000000000000000000000002c053531ab8a0000000000000000000000000000000000000000000000000069e20ee532c82862000000000000000000000000000000000000000000000000000000000000001200000000000000000000000000000000000000000000000000006379da05b6000000000000000000000000000f326e4de8f66a0bdc0970b79e0924e33c79f191500000000000000000000000000000000000000000000000000000000000000000000000000000000000000000000000000000000000000000000000000000128d9627aa4000000000000000000000000000000000000000000000000000000000000008000000000000000000000000000000000000000000000000002c053531ab8a0000000000000000000000000000000000000000000000000069e20ee532c82862000000000000000000000000000000000000000000000000000000000000000000000000000000000000000000000000000000000000000000000000000000002000000000000000000000000eeeeeeeeeeeeeeeeeeeeeeeeeeeeeeeeeeeeeeee000000000000000000000000f4d2888d29d722226fafa5d9b24f9164c092421e869584cd00000000000000000000000011ededebf63bef0ea2d2d071bdf88f71543ec6fb00000000000000000000000000000000000000000000005529b2dad861e76eb6000000000000000000000000000000000000000000000000"
                            }
                        ],
                        "constructorArguments": "",
                        "name": "swap",
                        "returnParams": [],
                        "signature": "swap(string,address,uint256,bytes)"
                    },
                    "errorInfo": "",
                    "fromAddress": "0x073f0dc58e9989c827ba5b7b35570b7315652e63",
                    "gasUsed": 186180,
                    "id": 0,
                    "methodDecoded": true,
                    "operation": "CALL",
                    "output": "",
                    "revert": false,
                    "revertMessage": "",
                    "selector": "0x5f575529",
                    "status": true,
                    "value": "0.2"
                },
                "nodeType": 0
            },
            "1": {
                "invocation": {
                    "address": "0x74de5d4fcbf63e00296fd95d33236b9794016631",
                    "callData": "0x0000000000000000000000003d1d55c23dfc759c5ae48500ca88ddf477b3c9e50000000000000000000000000000000000000000000000000000000000000040000000000000000000000000000000000000000000000000000000000000028492f5f037000000000000000000000000073f0dc58e9989c827ba5b7b35570b7315652e630000000000000000000000000000000000000000000000000000000000000000000000000000000000000000f4d2888d29d722226fafa5d9b24f9164c092421e00000000000000000000000000000000000000000000000002c053531ab8a0000000000000000000000000000000000000000000000000069e20ee532c82862000000000000000000000000000000000000000000000000000000000000001200000000000000000000000000000000000000000000000000006379da05b6000000000000000000000000000f326e4de8f66a0bdc0970b79e0924e33c79f191500000000000000000000000000000000000000000000000000000000000000000000000000000000000000000000000000000000000000000000000000000128d9627aa4000000000000000000000000000000000000000000000000000000000000008000000000000000000000000000000000000000000000000002c053531ab8a0000000000000000000000000000000000000000000000000069e20ee532c82862000000000000000000000000000000000000000000000000000000000000000000000000000000000000000000000000000000000000000000000000000000002000000000000000000000000eeeeeeeeeeeeeeeeeeeeeeeeeeeeeeeeeeeeeeee000000000000000000000000f4d2888d29d722226fafa5d9b24f9164c092421e869584cd00000000000000000000000011ededebf63bef0ea2d2d071bdf88f71543ec6fb00000000000000000000000000000000000000000000005529b2dad861e76eb600000000000000000000000000000000000000000000000000000000000000000000000000000000000000000000000000000000",
                    "decodedMethod": {
                        "callParams": [
                            {
                                "name": "adapter",
                                "type": "address",
                                "value": "0x3d1d55c23dfc759c5ae48500ca88ddf477b3c9e5"
                            },
                            {
                                "name": "data",
                                "type": "bytes",
                                "value": "0x92f5f037000000000000000000000000073f0dc58e9989c827ba5b7b35570b7315652e630000000000000000000000000000000000000000000000000000000000000000000000000000000000000000f4d2888d29d722226fafa5d9b24f9164c092421e00000000000000000000000000000000000000000000000002c053531ab8a0000000000000000000000000000000000000000000000000069e20ee532c82862000000000000000000000000000000000000000000000000000000000000001200000000000000000000000000000000000000000000000000006379da05b6000000000000000000000000000f326e4de8f66a0bdc0970b79e0924e33c79f191500000000000000000000000000000000000000000000000000000000000000000000000000000000000000000000000000000000000000000000000000000128d9627aa4000000000000000000000000000000000000000000000000000000000000008000000000000000000000000000000000000000000000000002c053531ab8a0000000000000000000000000000000000000000000000000069e20ee532c82862000000000000000000000000000000000000000000000000000000000000000000000000000000000000000000000000000000000000000000000000000000002000000000000000000000000eeeeeeeeeeeeeeeeeeeeeeeeeeeeeeeeeeeeeeee000000000000000000000000f4d2888d29d722226fafa5d9b24f9164c092421e869584cd00000000000000000000000011ededebf63bef0ea2d2d071bdf88f71543ec6fb00000000000000000000000000000000000000000000005529b2dad861e76eb6000000000000000000000000000000000000000000000000"
                            }
                        ],
                        "constructorArguments": "",
                        "name": "swap",
                        "returnParams": [],
                        "signature": "swap(address,bytes)"
                    },
                    "errorInfo": "",
                    "fromAddress": "0x881d40237659c251811cec9c364ef91dc08d300c",
                    "gasUsed": 161852,
                    "id": 1,
                    "methodDecoded": true,
                    "operation": "CALL",
                    "output": "",
                    "revert": false,
                    "revertMessage": "",
                    "selector": "0xe3547335",
                    "status": true,
                    "value": "0.2"
                },
                "nodeType": 0
            },
            "10": {
                "invocation": {
                    "address": "0xdc00ba87cc2d99468f7f34bc04cbf72e111a32f7",
                    "callData": "0x0000000000000000000000000000000000000000000000000000000000000000000000000000000000000000000000000000000000000006d2863cf418c5e6a500000000000000000000000074de5d4fcbf63e00296fd95d33236b979401663100000000000000000000000000000000000000000000000000000000000000800000000000000000000000000000000000000000000000000000000000000000",
                    "decodedMethod": {
                        "callParams": [
                            {
                                "name": "amount0Out",
                                "type": "uint256",
                                "value": "0"
                            },
                            {
                                "name": "amount1Out",
                                "type": "uint256",
                                "value": "125,850,343,856,186,713,765"
                            },
                            {
                                "name": "to",
                                "type": "address",
                                "value": "0x74de5d4fcbf63e00296fd95d33236b9794016631"
                            },
                            {
                                "name": "data",
                                "type": "bytes",
                                "value": "0x"
                            }
                        ],
                        "constructorArguments": "",
                        "name": "swap",
                        "returnParams": [],
                        "signature": "swap(uint256,uint256,address,bytes)"
                    },
                    "errorInfo": "",
                    "fromAddress": "0xdef1c0ded9bec7f1a1670819833240f027b25eff",
                    "gasUsed": 64722,
                    "id": 10,
                    "methodDecoded": true,
                    "operation": "CALL",
                    "output": "",
                    "revert": false,
                    "revertMessage": "",
                    "selector": "0x022c0d9f",
                    "status": true,
                    "value": "0"
                },
                "nodeType": 0
            },
            "11": {
                "invocation": {
                    "address": "0xf4d2888d29d722226fafa5d9b24f9164c092421e",
                    "callData": "0x00000000000000000000000074de5d4fcbf63e00296fd95d33236b9794016631000000000000000000000000000000000000000000000006d2863cf418c5e6a5",
                    "decodedMethod": {
                        "callParams": [
                            {
                                "name": "recipient",
                                "type": "address",
                                "value": "0x74de5d4fcbf63e00296fd95d33236b9794016631"
                            },
                            {
                                "decimalAvailable": true,
                                "name": "amount",
                                "type": "uint256",
                                "value": "125,850,343,856,186,713,765"
                            }
                        ],
                        "constructorArguments": "",
                        "name": "transfer",
                        "returnParams": [
                            {
                                "name": "",
                                "type": "bool",
                                "value": true
                            }
                        ],
                        "signature": "transfer(address,uint256)"
                    },
                    "errorInfo": "",
                    "fromAddress": "0xdc00ba87cc2d99468f7f34bc04cbf72e111a32f7",
                    "gasUsed": 29826,
                    "id": 11,
                    "methodDecoded": true,
                    "operation": "CALL",
                    "output": "0x0000000000000000000000000000000000000000000000000000000000000001",
                    "revert": false,
                    "revertMessage": "",
                    "selector": "0xa9059cbb",
                    "status": true,
                    "value": "0"
                },
                "nodeType": 0
            },
            "12": {
                "event": {
                    "contract": "0xf4d2888d29d722226fafa5d9b24f9164c092421e",
                    "decodedLog": {
                        "name": "Transfer",
                        "params": [
                            {
                                "name": "from",
                                "type": "address",
                                "value": "0xdc00ba87cc2d99468f7f34bc04cbf72e111a32f7"
                            },
                            {
                                "name": "to",
                                "type": "address",
                                "value": "0x74de5d4fcbf63e00296fd95d33236b9794016631"
                            },
                            {
                                "decimalAvailable": true,
                                "name": "value",
                                "type": "uint256",
                                "value": "125,850,343,856,186,713,765"
                            }
                        ],
                        "signature": "Transfer(address,address,uint256)"
                    },
                    "id": 12,
                    "logData": "0x000000000000000000000000000000000000000000000006d2863cf418c5e6a5",
                    "logDecoded": true,
                    "operation": "EVENT",
                    "revert": false,
                    "status": true,
                    "topics": [
                        "0xddf252ad1be2c89b69c2b068fc378daa952ba7f163c4a11628f55a4df523b3ef",
                        "0x000000000000000000000000dc00ba87cc2d99468f7f34bc04cbf72e111a32f7",
                        "0x00000000000000000000000074de5d4fcbf63e00296fd95d33236b9794016631"
                    ]
                },
                "nodeType": 1
            },
            "13": {
                "invocation": {
                    "address": "0xc02aaa39b223fe8d0a0e5c4f27ead9083c756cc2",
                    "callData": "0x000000000000000000000000dc00ba87cc2d99468f7f34bc04cbf72e111a32f7",
                    "decodedMethod": {
                        "callParams": [
                            {
                                "name": "",
                                "type": "address",
                                "value": "0xdc00ba87cc2d99468f7f34bc04cbf72e111a32f7"
                            }
                        ],
                        "constructorArguments": "",
                        "name": "balanceOf",
                        "returnParams": [
                            {
                                "decimalAvailable": true,
                                "name": "",
                                "type": "uint256",
                                "value": "3,133,327,818,313,590,869,806"
                            }
                        ],
                        "signature": "balanceOf(address)"
                    },
                    "errorInfo": "",
                    "fromAddress": "0xdc00ba87cc2d99468f7f34bc04cbf72e111a32f7",
                    "gasUsed": 534,
                    "id": 13,
                    "methodDecoded": true,
                    "operation": "STATICCALL",
                    "output": "0x0000000000000000000000000000000000000000000000a9dba899ac87478f2e",
                    "revert": false,
                    "revertMessage": "",
                    "selector": "0x70a08231",
                    "status": true,
                    "value": "0"
                },
                "nodeType": 0
            },
            "14": {
                "invocation": {
                    "address": "0xf4d2888d29d722226fafa5d9b24f9164c092421e",
                    "callData": "0x000000000000000000000000dc00ba87cc2d99468f7f34bc04cbf72e111a32f7",
                    "decodedMethod": {
                        "callParams": [
                            {
                                "name": "account",
                                "type": "address",
                                "value": "0xdc00ba87cc2d99468f7f34bc04cbf72e111a32f7"
                            }
                        ],
                        "constructorArguments": "",
                        "name": "balanceOf",
                        "returnParams": [
                            {
                                "decimalAvailable": true,
                                "name": "",
                                "type": "uint256",
                                "value": "1,994,915,052,943,199,087,408,237"
                            }
                        ],
                        "signature": "balanceOf(address)"
                    },
                    "errorInfo": "",
                    "fromAddress": "0xdc00ba87cc2d99468f7f34bc04cbf72e111a32f7",
                    "gasUsed": 539,
                    "id": 14,
                    "methodDecoded": true,
                    "operation": "STATICCALL",
                    "output": "0x00000000000000000000000000000000000000000001a6708fcca2e6738cb46d",
                    "revert": false,
                    "revertMessage": "",
                    "selector": "0x70a08231",
                    "status": true,
                    "value": "0"
                },
                "nodeType": 0
            },
            "15": {
                "event": {
                    "contract": "0xdc00ba87cc2d99468f7f34bc04cbf72e111a32f7",
                    "decodedLog": {
                        "name": "Sync",
                        "params": [
                            {
                                "name": "reserve0",
                                "type": "uint112",
                                "value": "3,133,327,818,313,590,869,806"
                            },
                            {
                                "name": "reserve1",
                                "type": "uint112",
                                "value": "1,994,915,052,943,199,087,408,237"
                            }
                        ],
                        "signature": "Sync(uint112,uint112)"
                    },
                    "id": 15,
                    "logData": "0x0000000000000000000000000000000000000000000000a9dba899ac87478f2e00000000000000000000000000000000000000000001a6708fcca2e6738cb46d",
                    "logDecoded": true,
                    "operation": "EVENT",
                    "revert": false,
                    "status": true,
                    "topics": [
                        "0x1c411e9a96e071241c2f21f7726b17ae89e3cab4c78be50e062b03a9fffbbad1"
                    ]
                },
                "nodeType": 1
            },
            "16": {
                "event": {
                    "contract": "0xdc00ba87cc2d99468f7f34bc04cbf72e111a32f7",
                    "decodedLog": {
                        "name": "Swap",
                        "params": [
                            {
                                "name": "sender",
                                "type": "address",
                                "value": "0xdef1c0ded9bec7f1a1670819833240f027b25eff"
                            },
                            {
                                "name": "to",
                                "type": "address",
                                "value": "0x74de5d4fcbf63e00296fd95d33236b9794016631"
                            },
                            {
                                "name": "amount0In",
                                "type": "uint256",
                                "value": "198,250,000,000,000,000"
                            },
                            {
                                "name": "amount1In",
                                "type": "uint256",
                                "value": "0"
                            },
                            {
                                "name": "amount0Out",
                                "type": "uint256",
                                "value": "0"
                            },
                            {
                                "name": "amount1Out",
                                "type": "uint256",
                                "value": "125,850,343,856,186,713,765"
                            }
                        ],
                        "signature": "Swap(address,uint256,uint256,uint256,uint256,address)"
                    },
                    "id": 16,
                    "logData": "0x00000000000000000000000000000000000000000000000002c053531ab8a00000000000000000000000000000000000000000000000000000000000000000000000000000000000000000000000000000000000000000000000000000000000000000000000000000000000000000000000000000000006d2863cf418c5e6a5",
                    "logDecoded": true,
                    "operation": "EVENT",
                    "revert": false,
                    "status": true,
                    "topics": [
                        "0xd78ad95fa46c994b6551d0da85fc275fe613ce37657fb8d5e3d130840159d822",
                        "0x000000000000000000000000def1c0ded9bec7f1a1670819833240f027b25eff",
                        "0x00000000000000000000000074de5d4fcbf63e00296fd95d33236b9794016631"
                    ]
                },
                "nodeType": 1
            },
            "17": {
                "invocation": {
                    "address": "0xf326e4de8f66a0bdc0970b79e0924e33c79f1915",
                    "callData": "0x",
                    "decodedMethod": null,
                    "errorInfo": "",
                    "fromAddress": "0x74de5d4fcbf63e00296fd95d33236b9794016631",
                    "gasUsed": 4918,
                    "id": 17,
                    "methodDecoded": false,
                    "operation": "CALL",
                    "output": "",
                    "revert": false,
                    "revertMessage": "",
                    "selector": "fallback",
                    "status": true,
                    "value": "0.00175"
                },
                "nodeType": 0
            },
            "18": {
                "invocation": {
                    "address": "0x34cfac646f301356faa8b21e94227e3583fe3f5f",
                    "callData": "0x",
                    "decodedMethod": null,
                    "errorInfo": "",
                    "fromAddress": "0xf326e4de8f66a0bdc0970b79e0924e33c79f1915",
                    "gasUsed": 93,
                    "id": 18,
                    "methodDecoded": false,
                    "operation": "DELEGATECALL",
                    "output": "",
                    "revert": false,
                    "revertMessage": "",
                    "selector": "fallback",
                    "status": true,
                    "value": "0.00175"
                },
                "nodeType": 0
            },
            "19": {
                "invocation": {
                    "address": "0xf4d2888d29d722226fafa5d9b24f9164c092421e",
                    "callData": "0x00000000000000000000000074de5d4fcbf63e00296fd95d33236b9794016631",
                    "decodedMethod": {
                        "callParams": [
                            {
                                "name": "account",
                                "type": "address",
                                "value": "0x74de5d4fcbf63e00296fd95d33236b9794016631"
                            }
                        ],
                        "constructorArguments": "",
                        "name": "balanceOf",
                        "returnParams": [
                            {
                                "decimalAvailable": true,
                                "name": "",
                                "type": "uint256",
                                "value": "125,850,343,856,186,713,765"
                            }
                        ],
                        "signature": "balanceOf(address)"
                    },
                    "errorInfo": "",
                    "fromAddress": "0x74de5d4fcbf63e00296fd95d33236b9794016631",
                    "gasUsed": 539,
                    "id": 19,
                    "methodDecoded": true,
                    "operation": "STATICCALL",
                    "output": "0x000000000000000000000000000000000000000000000006d2863cf418c5e6a5",
                    "revert": false,
                    "revertMessage": "",
                    "selector": "0x70a08231",
                    "status": true,
                    "value": "0"
                },
                "nodeType": 0
            },
            "2": {
                "invocation": {
                    "address": "0x3d1d55c23dfc759c5ae48500ca88ddf477b3c9e5",
                    "callData": "0x000000000000000000000000073f0dc58e9989c827ba5b7b35570b7315652e630000000000000000000000000000000000000000000000000000000000000000000000000000000000000000f4d2888d29d722226fafa5d9b24f9164c092421e00000000000000000000000000000000000000000000000002c053531ab8a0000000000000000000000000000000000000000000000000069e20ee532c82862000000000000000000000000000000000000000000000000000000000000001200000000000000000000000000000000000000000000000000006379da05b6000000000000000000000000000f326e4de8f66a0bdc0970b79e0924e33c79f191500000000000000000000000000000000000000000000000000000000000000000000000000000000000000000000000000000000000000000000000000000128d9627aa4000000000000000000000000000000000000000000000000000000000000008000000000000000000000000000000000000000000000000002c053531ab8a0000000000000000000000000000000000000000000000000069e20ee532c82862000000000000000000000000000000000000000000000000000000000000000000000000000000000000000000000000000000000000000000000000000000002000000000000000000000000eeeeeeeeeeeeeeeeeeeeeeeeeeeeeeeeeeeeeeee000000000000000000000000f4d2888d29d722226fafa5d9b24f9164c092421e869584cd00000000000000000000000011ededebf63bef0ea2d2d071bdf88f71543ec6fb00000000000000000000000000000000000000000000005529b2dad861e76eb6000000000000000000000000000000000000000000000000",
                    "decodedMethod": null,
                    "errorInfo": "",
                    "fromAddress": "0x74de5d4fcbf63e00296fd95d33236b9794016631",
                    "gasUsed": 156463,
                    "id": 2,
                    "methodDecoded": false,
                    "operation": "DELEGATECALL",
                    "output": "",
                    "revert": false,
                    "revertMessage": "",
                    "selector": "0x92f5f037",
                    "status": true,
                    "value": "0.2"
                },
                "nodeType": 0
            },
            "20": {
                "invocation": {
                    "address": "0xf4d2888d29d722226fafa5d9b24f9164c092421e",
                    "callData": "0x000000000000000000000000073f0dc58e9989c827ba5b7b35570b7315652e63000000000000000000000000000000000000000000000006d2863cf418c5e6a5",
                    "decodedMethod": {
                        "callParams": [
                            {
                                "name": "recipient",
                                "type": "address",
                                "value": "0x073f0dc58e9989c827ba5b7b35570b7315652e63"
                            },
                            {
                                "decimalAvailable": true,
                                "name": "amount",
                                "type": "uint256",
                                "value": "125,850,343,856,186,713,765"
                            }
                        ],
                        "constructorArguments": "",
                        "name": "transfer",
                        "returnParams": [
                            {
                                "name": "",
                                "type": "bool",
                                "value": true
                            }
                        ],
                        "signature": "transfer(address,uint256)"
                    },
                    "errorInfo": "",
                    "fromAddress": "0x74de5d4fcbf63e00296fd95d33236b9794016631",
                    "gasUsed": 25026,
                    "id": 20,
                    "methodDecoded": true,
                    "operation": "CALL",
                    "output": "0x0000000000000000000000000000000000000000000000000000000000000001",
                    "revert": false,
                    "revertMessage": "",
                    "selector": "0xa9059cbb",
                    "status": true,
                    "value": "0"
                },
                "nodeType": 0
            },
            "21": {
                "event": {
                    "contract": "0xf4d2888d29d722226fafa5d9b24f9164c092421e",
                    "decodedLog": {
                        "name": "Transfer",
                        "params": [
                            {
                                "name": "from",
                                "type": "address",
                                "value": "0x74de5d4fcbf63e00296fd95d33236b9794016631"
                            },
                            {
                                "name": "to",
                                "type": "address",
                                "value": "0x073f0dc58e9989c827ba5b7b35570b7315652e63"
                            },
                            {
                                "decimalAvailable": true,
                                "name": "value",
                                "type": "uint256",
                                "value": "125,850,343,856,186,713,765"
                            }
                        ],
                        "signature": "Transfer(address,address,uint256)"
                    },
                    "id": 21,
                    "logData": "0x000000000000000000000000000000000000000000000006d2863cf418c5e6a5",
                    "logDecoded": true,
                    "operation": "EVENT",
                    "revert": false,
                    "status": true,
                    "topics": [
                        "0xddf252ad1be2c89b69c2b068fc378daa952ba7f163c4a11628f55a4df523b3ef",
                        "0x00000000000000000000000074de5d4fcbf63e00296fd95d33236b9794016631",
                        "0x000000000000000000000000073f0dc58e9989c827ba5b7b35570b7315652e63"
                    ]
                },
                "nodeType": 1
            },
            "22": {
                "event": {
                    "contract": "0x881d40237659c251811cec9c364ef91dc08d300c",
                    "decodedLog": {
                        "name": "Swap",
                        "params": [
                            {
                                "name": "aggregatorId",
                                "type": "string",
                                "value": "0xa8dc30b66c6d4a8aac3d15925bfca09e42cac4a00c50f9949154b045088e2ac2"
                            },
                            {
                                "name": "sender",
                                "type": "address",
                                "value": "0x073f0dc58e9989c827ba5b7b35570b7315652e63"
                            }
                        ],
                        "signature": "Swap(string,address)"
                    },
                    "id": 22,
                    "logData": "0x",
                    "logDecoded": true,
                    "operation": "EVENT",
                    "revert": false,
                    "status": true,
                    "topics": [
                        "0xbeee1e6e7fe307ddcf84b0a16137a4430ad5e2480fc4f4a8e250ab56ccd7630d",
                        "0xa8dc30b66c6d4a8aac3d15925bfca09e42cac4a00c50f9949154b045088e2ac2",
                        "0x000000000000000000000000073f0dc58e9989c827ba5b7b35570b7315652e63"
                    ]
                },
                "nodeType": 1
            },
            "3": {
                "invocation": {
                    "address": "0xdef1c0ded9bec7f1a1670819833240f027b25eff",
                    "callData": "0x000000000000000000000000000000000000000000000000000000000000008000000000000000000000000000000000000000000000000002c053531ab8a0000000000000000000000000000000000000000000000000069e20ee532c82862000000000000000000000000000000000000000000000000000000000000000000000000000000000000000000000000000000000000000000000000000000002000000000000000000000000eeeeeeeeeeeeeeeeeeeeeeeeeeeeeeeeeeeeeeee000000000000000000000000f4d2888d29d722226fafa5d9b24f9164c092421e869584cd00000000000000000000000011ededebf63bef0ea2d2d071bdf88f71543ec6fb00000000000000000000000000000000000000000000005529b2dad861e76eb6",
                    "decodedMethod": {
                        "callParams": [
                            {
                                "name": "tokens",
                                "type": "address[]",
                                "value": [
                                    "0xeeeeeeeeeeeeeeeeeeeeeeeeeeeeeeeeeeeeeeee",
                                    "0xf4d2888d29d722226fafa5d9b24f9164c092421e"
                                ]
                            },
                            {
                                "name": "sellAmount",
                                "type": "uint256",
                                "value": "198,250,000,000,000,000"
                            },
                            {
                                "name": "minBuyAmount",
                                "type": "uint256",
                                "value": "122,074,833,540,501,112,352"
                            },
                            {
                                "name": "isSushi",
                                "type": "bool",
                                "value": false
                            }
                        ],
                        "constructorArguments": "",
                        "name": "sellToUniswap",
                        "returnParams": [
                            {
                                "name": "buyAmount",
                                "type": "uint256",
                                "value": "125,850,343,856,186,713,765"
                            }
                        ],
                        "signature": "sellToUniswap(address[],uint256,uint256,bool)"
                    },
                    "errorInfo": "",
                    "fromAddress": "0x74de5d4fcbf63e00296fd95d33236b9794016631",
                    "gasUsed": 102559,
                    "id": 3,
                    "methodDecoded": true,
                    "operation": "CALL",
                    "output": "0x000000000000000000000000000000000000000000000006d2863cf418c5e6a5",
                    "revert": false,
                    "revertMessage": "",
                    "selector": "0xd9627aa4",
                    "status": true,
                    "value": "0.19825"
                },
                "nodeType": 0
            },
            "4": {
                "invocation": {
                    "address": "0xf9b30557afcf76ea82c04015d80057fa2147dfa9",
                    "callData": "0x000000000000000000000000000000000000000000000000000000000000008000000000000000000000000000000000000000000000000002c053531ab8a0000000000000000000000000000000000000000000000000069e20ee532c82862000000000000000000000000000000000000000000000000000000000000000000000000000000000000000000000000000000000000000000000000000000002000000000000000000000000eeeeeeeeeeeeeeeeeeeeeeeeeeeeeeeeeeeeeeee000000000000000000000000f4d2888d29d722226fafa5d9b24f9164c092421e869584cd00000000000000000000000011ededebf63bef0ea2d2d071bdf88f71543ec6fb00000000000000000000000000000000000000000000005529b2dad861e76eb6",
                    "decodedMethod": {
                        "callParams": [
                            {
                                "name": "tokens",
                                "type": "address[]",
                                "value": [
                                    "0xeeeeeeeeeeeeeeeeeeeeeeeeeeeeeeeeeeeeeeee",
                                    "0xf4d2888d29d722226fafa5d9b24f9164c092421e"
                                ]
                            },
                            {
                                "name": "sellAmount",
                                "type": "uint256",
                                "value": "198,250,000,000,000,000"
                            },
                            {
                                "name": "minBuyAmount",
                                "type": "uint256",
                                "value": "122,074,833,540,501,112,352"
                            },
                            {
                                "name": "isSushi",
                                "type": "bool",
                                "value": false
                            }
                        ],
                        "constructorArguments": "",
                        "name": "sellToUniswap",
                        "returnParams": [
                            {
                                "name": "buyAmount",
                                "type": "uint256",
                                "value": "125,850,343,856,186,713,765"
                            }
                        ],
                        "signature": "sellToUniswap(address[],uint256,uint256,bool)"
                    },
                    "errorInfo": "",
                    "fromAddress": "0xdef1c0ded9bec7f1a1670819833240f027b25eff",
                    "gasUsed": 96805,
                    "id": 4,
                    "methodDecoded": true,
                    "operation": "DELEGATECALL",
                    "output": "0x000000000000000000000000000000000000000000000006d2863cf418c5e6a5",
                    "revert": false,
                    "revertMessage": "",
                    "selector": "0xd9627aa4",
                    "status": true,
                    "value": "0.19825"
                },
                "nodeType": 0
            },
            "5": {
                "invocation": {
                    "address": "0xc02aaa39b223fe8d0a0e5c4f27ead9083c756cc2",
                    "callData": "0x",
                    "decodedMethod": {
                        "callParams": [],
                        "constructorArguments": "",
                        "name": "deposit",
                        "returnParams": [],
                        "signature": "deposit()"
                    },
                    "errorInfo": "",
                    "fromAddress": "0xdef1c0ded9bec7f1a1670819833240f027b25eff",
                    "gasUsed": 6874,
                    "id": 5,
                    "methodDecoded": true,
                    "operation": "CALL",
                    "output": "",
                    "revert": false,
                    "revertMessage": "",
                    "selector": "0xd0e30db0",
                    "status": true,
                    "value": "0.19825"
                },
                "nodeType": 0
            },
            "6": {
                "event": {
                    "contract": "0xc02aaa39b223fe8d0a0e5c4f27ead9083c756cc2",
                    "decodedLog": {
                        "name": "Deposit",
                        "params": [
                            {
                                "name": "dst",
                                "type": "address",
                                "value": "0xdef1c0ded9bec7f1a1670819833240f027b25eff"
                            },
                            {
                                "name": "wad",
                                "type": "uint256",
                                "value": "198,250,000,000,000,000"
                            }
                        ],
                        "signature": "Deposit(address,uint256)"
                    },
                    "id": 6,
                    "logData": "0x00000000000000000000000000000000000000000000000002c053531ab8a000",
                    "logDecoded": true,
                    "operation": "EVENT",
                    "revert": false,
                    "status": true,
                    "topics": [
                        "0xe1fffcc4923d04b559f4d29a8bfc6cda04eb5b0d3c460751c2402c5c5cc9109c",
                        "0x000000000000000000000000def1c0ded9bec7f1a1670819833240f027b25eff"
                    ]
                },
                "nodeType": 1
            },
            "7": {
                "invocation": {
                    "address": "0xc02aaa39b223fe8d0a0e5c4f27ead9083c756cc2",
                    "callData": "0x000000000000000000000000dc00ba87cc2d99468f7f34bc04cbf72e111a32f700000000000000000000000000000000000000000000000002c053531ab8a000",
                    "decodedMethod": {
                        "callParams": [
                            {
                                "name": "dst",
                                "type": "address",
                                "value": "0xdc00ba87cc2d99468f7f34bc04cbf72e111a32f7"
                            },
                            {
                                "decimalAvailable": true,
                                "name": "wad",
                                "type": "uint256",
                                "value": "198,250,000,000,000,000"
                            }
                        ],
                        "constructorArguments": "",
                        "name": "transfer",
                        "returnParams": [
                            {
                                "name": "",
                                "type": "bool",
                                "value": true
                            }
                        ],
                        "signature": "transfer(address,uint256)"
                    },
                    "errorInfo": "",
                    "fromAddress": "0xdef1c0ded9bec7f1a1670819833240f027b25eff",
                    "gasUsed": 8062,
                    "id": 7,
                    "methodDecoded": true,
                    "operation": "CALL",
                    "output": "0x0000000000000000000000000000000000000000000000000000000000000001",
                    "revert": false,
                    "revertMessage": "",
                    "selector": "0xa9059cbb",
                    "status": true,
                    "value": "0"
                },
                "nodeType": 0
            },
            "8": {
                "event": {
                    "contract": "0xc02aaa39b223fe8d0a0e5c4f27ead9083c756cc2",
                    "decodedLog": {
                        "name": "Transfer",
                        "params": [
                            {
                                "name": "src",
                                "type": "address",
                                "value": "0xdef1c0ded9bec7f1a1670819833240f027b25eff"
                            },
                            {
                                "name": "dst",
                                "type": "address",
                                "value": "0xdc00ba87cc2d99468f7f34bc04cbf72e111a32f7"
                            },
                            {
                                "decimalAvailable": true,
                                "name": "wad",
                                "type": "uint256",
                                "value": "198,250,000,000,000,000"
                            }
                        ],
                        "signature": "Transfer(address,address,uint256)"
                    },
                    "id": 8,
                    "logData": "0x00000000000000000000000000000000000000000000000002c053531ab8a000",
                    "logDecoded": true,
                    "operation": "EVENT",
                    "revert": false,
                    "status": true,
                    "topics": [
                        "0xddf252ad1be2c89b69c2b068fc378daa952ba7f163c4a11628f55a4df523b3ef",
                        "0x000000000000000000000000def1c0ded9bec7f1a1670819833240f027b25eff",
                        "0x000000000000000000000000dc00ba87cc2d99468f7f34bc04cbf72e111a32f7"
                    ]
                },
                "nodeType": 1
            },
            "9": {
                "invocation": {
                    "address": "0xdc00ba87cc2d99468f7f34bc04cbf72e111a32f7",
                    "callData": "0x",
                    "decodedMethod": {
                        "callParams": [],
                        "constructorArguments": "",
                        "name": "getReserves",
                        "returnParams": [
                            {
                                "name": "_reserve0",
                                "type": "uint112",
                                "value": "3,133,129,568,313,590,869,806"
                            },
                            {
                                "name": "_reserve1",
                                "type": "uint112",
                                "value": "1,995,040,903,287,055,274,122,002"
                            },
                            {
                                "name": "_blockTimestampLast",
                                "type": "uint32",
                                "value": "1,642,557,093"
                            }
                        ],
                        "signature": "getReserves()"
                    },
                    "errorInfo": "",
                    "fromAddress": "0xdef1c0ded9bec7f1a1670819833240f027b25eff",
                    "gasUsed": 2504,
                    "id": 9,
                    "methodDecoded": true,
                    "operation": "STATICCALL",
                    "output": "0x0000000000000000000000000000000000000000000000a9d8e846596c8eef2e00000000000000000000000000000000000000000001a6776252dfda8c529b120000000000000000000000000000000000000000000000000000000061e76ea5",
                    "revert": false,
                    "revertMessage": "",
                    "selector": "0x0902f1ac",
                    "status": true,
                    "value": "0"
                },
                "nodeType": 0
            }
        },
        "gasFlame": [
            {
                "children": [
                    {
                        "children": [
                            {
                                "children": [],
                                "depth": 0,
                                "name": "Initial Gas",
                                "value": 26616
                            },
                            {
                                "children": [
                                    {
                                        "children": [
                                            {
                                                "children": [
                                                    {
                                                        "children": [
                                                            {
                                                                "children": [
                                                                    {
                                                                        "children": [],
                                                                        "depth": 5,
                                                                        "name": "deposit",
                                                                        "value": 6874
                                                                    },
                                                                    {
                                                                        "children": [],
                                                                        "depth": 5,
                                                                        "name": "transfer",
                                                                        "value": 8062
                                                                    },
                                                                    {
                                                                        "children": [],
                                                                        "depth": 5,
                                                                        "name": "getReserves",
                                                                        "value": 2504
                                                                    },
                                                                    {
                                                                        "children": [
                                                                            {
                                                                                "children": [],
                                                                                "depth": 6,
                                                                                "name": "transfer",
                                                                                "value": 29826
                                                                            },
                                                                            {
                                                                                "children": [],
                                                                                "depth": 6,
                                                                                "name": "balanceOf",
                                                                                "value": 534
                                                                            },
                                                                            {
                                                                                "children": [],
                                                                                "depth": 6,
                                                                                "name": "balanceOf",
                                                                                "value": 539
                                                                            }
                                                                        ],
                                                                        "depth": 5,
                                                                        "name": "swap",
                                                                        "value": 64722
                                                                    }
                                                                ],
                                                                "depth": 4,
                                                                "name": "sellToUniswap",
                                                                "value": 96805
                                                            }
                                                        ],
                                                        "depth": 3,
                                                        "name": "sellToUniswap",
                                                        "value": 102559
                                                    },
                                                    {
                                                        "children": [
                                                            {
                                                                "children": [],
                                                                "depth": 4,
                                                                "name": "fallback",
                                                                "value": 93
                                                            }
                                                        ],
                                                        "depth": 3,
                                                        "name": "fallback",
                                                        "value": 4918
                                                    },
                                                    {
                                                        "children": [],
                                                        "depth": 3,
                                                        "name": "balanceOf",
                                                        "value": 539
                                                    },
                                                    {
                                                        "children": [],
                                                        "depth": 3,
                                                        "name": "transfer",
                                                        "value": 25026
                                                    }
                                                ],
                                                "depth": 2,
                                                "name": "0x92f5f037",
                                                "value": 156463
                                            }
                                        ],
                                        "depth": 1,
                                        "name": "swap",
                                        "value": 161852
                                    }
                                ],
                                "depth": 0,
                                "name": "Executed Gas",
                                "value": 187864
                            }
                        ],
                        "depth": -1,
                        "name": "Actual Gas Used",
                        "value": 186180
                    },
                    {
                        "children": [],
                        "depth": -1,
                        "name": "Refunded Gas",
                        "value": 28300
                    }
                ],
                "depth": -2,
                "name": "Total Gas",
                "value": 214480
            }
        ],
        "isConfirmed": true,
        "mainTrace": [
            {
                "children": [
                    {
                        "children": [
                            {
                                "children": [
                                    {
                                        "children": [
                                            {
                                                "children": [
                                                    {
                                                        "children": [
                                                            {
                                                                "children": [
                                                                    {
                                                                        "children": [],
                                                                        "depth": 6,
                                                                        "id": 6,
                                                                        "order": 6
                                                                    }
                                                                ],
                                                                "depth": 5,
                                                                "id": 5,
                                                                "order": 5
                                                            },
                                                            {
                                                                "children": [
                                                                    {
                                                                        "children": [],
                                                                        "depth": 6,
                                                                        "id": 8,
                                                                        "order": 8
                                                                    }
                                                                ],
                                                                "depth": 5,
                                                                "id": 7,
                                                                "order": 7
                                                            },
                                                            {
                                                                "children": [],
                                                                "depth": 5,
                                                                "id": 9,
                                                                "order": 9
                                                            },
                                                            {
                                                                "children": [
                                                                    {
                                                                        "children": [
                                                                            {
                                                                                "children": [],
                                                                                "depth": 7,
                                                                                "id": 12,
                                                                                "order": 12
                                                                            }
                                                                        ],
                                                                        "depth": 6,
                                                                        "id": 11,
                                                                        "order": 11
                                                                    },
                                                                    {
                                                                        "children": [],
                                                                        "depth": 6,
                                                                        "id": 13,
                                                                        "order": 13
                                                                    },
                                                                    {
                                                                        "children": [],
                                                                        "depth": 6,
                                                                        "id": 14,
                                                                        "order": 14
                                                                    },
                                                                    {
                                                                        "children": [],
                                                                        "depth": 6,
                                                                        "id": 15,
                                                                        "order": 15
                                                                    },
                                                                    {
                                                                        "children": [],
                                                                        "depth": 6,
                                                                        "id": 16,
                                                                        "order": 16
                                                                    }
                                                                ],
                                                                "depth": 5,
                                                                "id": 10,
                                                                "order": 10
                                                            }
                                                        ],
                                                        "depth": 4,
                                                        "id": 4,
                                                        "order": 4
                                                    }
                                                ],
                                                "depth": 3,
                                                "id": 3,
                                                "order": 3
                                            },
                                            {
                                                "children": [
                                                    {
                                                        "children": [],
                                                        "depth": 4,
                                                        "id": 18,
                                                        "order": 18
                                                    }
                                                ],
                                                "depth": 3,
                                                "id": 17,
                                                "order": 17
                                            },
                                            {
                                                "children": [],
                                                "depth": 3,
                                                "id": 19,
                                                "order": 19
                                            },
                                            {
                                                "children": [
                                                    {
                                                        "children": [],
                                                        "depth": 4,
                                                        "id": 21,
                                                        "order": 21
                                                    }
                                                ],
                                                "depth": 3,
                                                "id": 20,
                                                "order": 20
                                            }
                                        ],
                                        "depth": 2,
                                        "id": 2,
                                        "order": 2
                                    }
                                ],
                                "depth": 1,
                                "id": 1,
                                "order": 1
                            },
                            {
                                "children": [],
                                "depth": 1,
                                "id": 22,
                                "order": 22
                            }
                        ],
                        "depth": 0,
                        "id": 0,
                        "order": 0
                    }
                ],
                "depth": -1,
                "id": -1,
                "order": -1
            }
        ],
        "mainTraceNodeCount": 23,
        "parentIdMap": {
            "0": -1,
            "1": 0,
            "10": 4,
            "11": 10,
            "12": 11,
            "13": 10,
            "14": 10,
            "15": 10,
            "16": 10,
            "17": 2,
            "18": 17,
            "19": 2,
            "2": 1,
            "20": 2,
            "21": 20,
            "22": 0,
            "3": 2,
            "4": 3,
            "5": 4,
            "6": 5,
            "7": 4,
            "8": 7,
            "9": 4
        },
        "tidyTrace": [
            {
                "children": [
                    {
                        "children": [
                            {
                                "children": [
                                    {
                                        "children": [
                                            {
                                                "children": [
                                                    {
                                                        "children": [
                                                            {
                                                                "children": [
                                                                    {
                                                                        "children": [],
                                                                        "depth": 6,
                                                                        "id": 6,
                                                                        "order": 6
                                                                    }
                                                                ],
                                                                "depth": 5,
                                                                "id": 5,
                                                                "order": 5
                                                            },
                                                            {
                                                                "children": [
                                                                    {
                                                                        "children": [],
                                                                        "depth": 6,
                                                                        "id": 8,
                                                                        "order": 8
                                                                    }
                                                                ],
                                                                "depth": 5,
                                                                "id": 7,
                                                                "order": 7
                                                            },
                                                            {
                                                                "children": [
                                                                    {
                                                                        "children": [
                                                                            {
                                                                                "children": [],
                                                                                "depth": 7,
                                                                                "id": 12,
                                                                                "order": 12
                                                                            }
                                                                        ],
                                                                        "depth": 6,
                                                                        "id": 11,
                                                                        "order": 11
                                                                    },
                                                                    {
                                                                        "children": [],
                                                                        "depth": 6,
                                                                        "id": 15,
                                                                        "order": 15
                                                                    },
                                                                    {
                                                                        "children": [],
                                                                        "depth": 6,
                                                                        "id": 16,
                                                                        "order": 16
                                                                    }
                                                                ],
                                                                "depth": 5,
                                                                "id": 10,
                                                                "order": 10
                                                            }
                                                        ],
                                                        "depth": 4,
                                                        "id": 4,
                                                        "order": 4
                                                    }
                                                ],
                                                "depth": 3,
                                                "id": 3,
                                                "order": 3
                                            },
                                            {
                                                "children": [
                                                    {
                                                        "children": [],
                                                        "depth": 4,
                                                        "id": 18,
                                                        "order": 18
                                                    }
                                                ],
                                                "depth": 3,
                                                "id": 17,
                                                "order": 17
                                            },
                                            {
                                                "children": [
                                                    {
                                                        "children": [],
                                                        "depth": 4,
                                                        "id": 21,
                                                        "order": 21
                                                    }
                                                ],
                                                "depth": 3,
                                                "id": 20,
                                                "order": 20
                                            }
                                        ],
                                        "depth": 2,
                                        "id": 2,
                                        "order": 2
                                    }
                                ],
                                "depth": 1,
                                "id": 1,
                                "order": 1
                            },
                            {
                                "children": [],
                                "depth": 1,
                                "id": 22,
                                "order": 22
                            }
                        ],
                        "depth": 0,
                        "id": 0,
                        "order": 0
                    }
                ],
                "depth": -1,
                "id": -1,
                "order": -1
            }
        ],
        "tidyTraceNodeCount": 19
    },
    "state_change": {
        "stateChanges": [
            {
                "address": "0xc02aaa39b223fe8d0a0e5c4f27ead9083c756cc2",
                "erc": "ERC-20",
                "slots": [
                    {
                        "current": "0x0000000000000000000000000000000000000000000000a9dba899ac87478f2e",
                        "key": "0xcf25fcfeaefc4bad483f8585079be7dbf95939dd51b2fad403d859684343252a",
                        "prev": "0x0000000000000000000000000000000000000000000000a9d8e846596c8eef2e"
                    }
                ],
                "storageVariables": [
                    {
                        "name": "balanceOf",
                        "type": "mapping(address => uint256)",
                        "value": {
                            "pairs": [
                                {
                                    "key": "0xdc00ba87cc2d99468f7f34bc04cbf72e111a32f7",
                                    "value": {
                                        "current": "3133327818313590869806",
                                        "prev": "3133129568313590869806",
                                        "typeTag": 1
                                    }
                                }
                            ],
                            "typeTag": 4
                        }
                    }
                ]
            },
            {
                "address": "0xdc00ba87cc2d99468f7f34bc04cbf72e111a32f7",
                "erc": "ERC-20",
                "slots": [
                    {
                        "current": "0x00000000000000000000000000000000037ad0695e4a07aa7b45a6c3c753b6ed",
                        "key": "0x000000000000000000000000000000000000000000000000000000000000000a",
                        "prev": "0x00000000000000000000000000000000037acb964f2b2541689ecde779db7761"
                    },
                    {
                        "current": "0x61e76eb100000001a6708fcca2e6738cb46d0000000000a9dba899ac87478f2e",
                        "key": "0x0000000000000000000000000000000000000000000000000000000000000008",
                        "prev": "0x61e76ea500000001a6776252dfda8c529b120000000000a9d8e846596c8eef2e"
                    },
                    {
                        "current": "0x000000000000000000000000000027bb8493241f3b26d9bd3c256a3f11a08c20",
                        "key": "0x0000000000000000000000000000000000000000000000000000000000000009",
                        "prev": "0x000000000000000000000000000027bb66ba0fdfce525bf5ff382fd83e4cdf78"
                    }
                ],
                "storageVariables": [
                    {
                        "name": "price0CumulativeLast",
                        "type": "uint256",
                        "value": {
                            "current": "3461188176048588050753275058545575831047200",
                            "prev": "3461148501297618738556627829048179736502136",
                            "typeTag": 1
                        }
                    },
                    {
                        "name": "price1CumulativeLast",
                        "type": "uint256",
                        "value": {
                            "current": "4625371293431707769848250920437266157",
                            "prev": "4625273441971390538405451728703682401",
                            "typeTag": 1
                        }
                    },
                    {
                        "name": "reserve0",
                        "type": "uint112",
                        "value": {
                            "current": "3133327818313590869806",
                            "prev": "3133129568313590869806",
                            "typeTag": 1
                        }
                    },
                    {
                        "name": "reserve1",
                        "type": "uint112",
                        "value": {
                            "current": "1994915052943199087408237",
                            "prev": "1995040903287055274122002",
                            "typeTag": 1
                        }
                    },
                    {
                        "name": "blockTimestampLast",
                        "type": "uint32",
                        "value": {
                            "current": "1642557105",
                            "prev": "1642557093",
                            "typeTag": 1
                        }
                    }
                ]
            },
            {
                "address": "0xf4d2888d29d722226fafa5d9b24f9164c092421e",
                "erc": "ERC-20",
                "slots": [
                    {
                        "current": "0x00000000000000000000000000000000000000000001a6708fcca2e6738cb46d",
                        "key": "0x030210a4ef0faebd07135ff1a65e07a382e63e3b8ebf246fcd8513786a117029",
                        "prev": "0x00000000000000000000000000000000000000000001a6776252dfda8c529b12"
                    },
                    {
                        "current": "0x000000000000000000000000000000000000000000000006d2863cf418c5e6a5",
                        "key": "0xd4a20eac5e219e54c8fc639dcbcd53d2394d5e2fd94ac6120dd113a26da1dd97",
                        "prev": "0x0000000000000000000000000000000000000000000000000000000000000000"
                    }
                ],
                "storageVariables": [
                    {
                        "name": "_balances",
                        "type": "mapping(address => uint256)",
                        "value": {
                            "pairs": [
                                {
                                    "key": "0x073f0dc58e9989c827ba5b7b35570b7315652e63",
                                    "value": {
                                        "current": "125850343856186713765",
                                        "prev": "0",
                                        "typeTag": 1
                                    }
                                },
                                {
                                    "key": "0xdc00ba87cc2d99468f7f34bc04cbf72e111a32f7",
                                    "value": {
                                        "current": "1994915052943199087408237",
                                        "prev": "1995040903287055274122002",
                                        "typeTag": 1
                                    }
                                }
                            ],
                            "typeTag": 4
                        }
                    }
                ]
            }
        ]
    }
}