{
    "balance_change": {
        "balanceChanges": [
            {
                "account": "0x8b3b3b624c3c0397d3da8fd861512393d51dcbac",
                "assets": [
                    {
                        "address": "0xbb9bc244d798123fde783fcc1c72d3bb8c189413",
                        "amount": "93,569,996,070,000,000",
                        "iconUrl": "",
                        "isERC1155": false,
                        "isERC721": false,
                        "sign": false,
                        "value": ""
                    }
                ]
            },
            {
                "account": "0x76f45374d0e5fc2b52bcc0ec01c57b38d3d76058",
                "assets": [
                    {
                        "address": "0xbb9bc244d798123fde783fcc1c72d3bb8c189413",
                        "amount": "93,569,996,070,000,000",
                        "iconUrl": "",
                        "isERC1155": false,
                        "isERC721": false,
                        "sign": true,
                        "value": ""
                    }
                ]
            }
        ]
    },
    "profile": {
        "basic_info": {
            "baseFee": "",
            "blockNumber": 1746076,
            "callData": "0xf3fef3a300000000000000000000000076f45374d0e5fc2b52bcc0ec01c57b38d3d760580000000000000000000000000000000000000000000000000cfc46281dded700",
            "debugEnable": true,
            "errorInfo": "",
            "eventCount": 2,
            "feeRecipient": "0xbcdfc35b86bedf72f0cda046a3c16829a2ef41d1",
            "formatValue": "0",
            "gasLimit": 250000,
            "gasPrice": "22.311032074",
            "gasUsed": 80376,
            "intTxnCount": 1,
            "internalRevert": false,
            "internalRevertMessage": "",
            "isContractCreation": false,
            "isFlashloan": false,
            "maxFee": "",
            "nonce": 30774,
            "overwritedBlockNumber": -1,
            "priorityFee": "",
            "receiver": "0x8b3b3b624c3c0397d3da8fd861512393d51dcbac",
            "revertMessage": "",
            "sender": "0xed059bc543141c8c93031d545079b3da0233b27f",
            "simulationEnable": true,
            "sourceTxnHash": "0xdf848cf0249d6b91e17f297384b68cca2d1e036b24e3d441fef9c74f587b6ca2",
            "status": true,
            "timestamp": "2016-06-21T18:28:30Z",
            "transactionFee": "0.001793271513979824",
            "txnHash": "0xdf848cf0249d6b91e17f297384b68cca2d1e036b24e3d441fef9c74f587b6ca2",
            "txnIndex": 0,
            "type": 0,
            "value": "0"
        },
        "fund_flow": [
            {
                "amount": "93,569,996,070,000,000",
                "from": "0x8b3b3b624c3c0397d3da8fd861512393d51dcbac",
                "id": 1,
                "isERC1155": false,
                "isERC721": false,
                "isReverted": false,
                "order": 1,
                "to": "0x76f45374d0e5fc2b52bcc0ec01c57b38d3d76058",
                "token": "0xbb9bc244d798123fde783fcc1c72d3bb8c189413"
            }
        ],
        "token_infos": [
            {
                "address": "0xbb9bc244d798123fde783fcc1c72d3bb8c189413",
                "decimals": 1
            },
            {
                "address": "0xc02aaa39b223fe8d0a0e5c4f27ead9083c756cc2",
                "decimals": 18
            },
            {
                "address": "0xeeeeeeeeeeeeeeeeeeeeeeeeeeeeeeeeeeeeeeee",
                "decimals": 18
            }
        ]
    },
    "address_label": {
        "labels": [
            {
                "address": "0xeeeeeeeeeeeeeeeeeeeeeeeeeeeeeeeeeeeeeeee",
                "label": "Ether"
            },
            {
                "address": "0xbb9bc244d798123fde783fcc1c72d3bb8c189413",
                "label": "TheDAO Token"
            },
            {
                "address": "0x0000000000000000000000000000000000000001",
                "label": "Precompiled"
            },
            {
                "address": "0x0000000000000000000000000000000000000002",
                "label": "Precompiled"
            },
            {
                "address": "0x0000000000000000000000000000000000000003",
                "label": "Precompiled"
            },
            {
                "address": "0x0000000000000000000000000000000000000004",
                "label": "Precompiled"
            }
        ]
    },
    "trace": {
        "accountLabels": null,
        "dataMap": {
            "-1": {
                "invocation": {
                    "address": "0xed059bc543141c8c93031d545079b3da0233b27f",
                    "callData": "",
                    "decodedMethod": null,
                    "errorInfo": "",
                    "fromAddress": "",
                    "gasUsed": 0,
                    "id": -1,
                    "methodDecoded": false,
                    "operation": "",
                    "output": "",
                    "revert": false,
                    "revertMessage": "",
                    "selector": "",
                    "status": false,
                    "value": ""
                },
                "nodeType": 0
            },
            "0": {
                "invocation": {
                    "address": "0x8b3b3b624c3c0397d3da8fd861512393d51dcbac",
                    "callData": "0x00000000000000000000000076f45374d0e5fc2b52bcc0ec01c57b38d3d760580000000000000000000000000000000000000000000000000cfc46281dded700",
                    "decodedMethod": {
                        "callParams": [
                            {
                                "name": "_token",
                                "type": "address",
                                "value": "0x76f45374d0e5fc2b52bcc0ec01c57b38d3d76058"
                            },
                            {
                                "name": "_amount",
                                "type": "uint256",
                                "value": "935,699,960,700,000,000"
                            }
                        ],
                        "constructorArguments": "",
                        "name": "withdraw",
                        "returnParams": [],
                        "signature": "withdraw(address,uint256)"
                    },
                    "errorInfo": "",
                    "fromAddress": "0xed059bc543141c8c93031d545079b3da0233b27f",
                    "gasUsed": 80376,
                    "id": 0,
                    "methodDecoded": true,
                    "operation": "CALL",
                    "output": "0x0000000000000000000000000000000000000000000000000000000000000001",
                    "revert": false,
                    "revertMessage": "",
                    "selector": "0xf3fef3a3",
                    "status": true,
                    "value": "0"
                },
                "nodeType": 0
            },
            "1": {
                "invocation": {
                    "address": "0xbb9bc244d798123fde783fcc1c72d3bb8c189413",
                    "callData": "0x00000000000000000000000076f45374d0e5fc2b52bcc0ec01c57b38d3d760580000000000000000000000000000000000000000000000000cfc46281dded700",
                    "decodedMethod": {
                        "callParams": [
                            {
                                "name": "_to",
                                "type": "address",
                                "value": "0x76f45374d0e5fc2b52bcc0ec01c57b38d3d76058"
                            },
                            {
                                "decimalAvailable": true,
                                "name": "_value",
                                "type": "uint256",
                                "value": "935,699,960,700,000,000"
                            }
                        ],
                        "constructorArguments": "",
                        "name": "transfer",
                        "returnParams": [
                            {
                                "name": "success",
                                "type": "bool",
                                "value": true
                            }
                        ],
                        "signature": "transfer(address,uint256)"
                    },
                    "errorInfo": "",
                    "fromAddress": "0x8b3b3b624c3c0397d3da8fd861512393d51dcbac",
                    "gasUsed": 54522,
                    "id": 1,
                    "methodDecoded": true,
                    "operation": "CALL",
                    "output": "0x0000000000000000000000000000000000000000000000000000000000000001",
                    "revert": false,
                    "revertMessage": "",
                    "selector": "0xa9059cbb",
                    "status": true,
                    "value": "0"
                },
                "nodeType": 0
            },
            "2": {
                "event": {
                    "contract": "0xbb9bc244d798123fde783fcc1c72d3bb8c189413",
                    "decodedLog": {
                        "name": "Transfer",
                        "params": [
                            {
                                "name": "_from",
                                "type": "address",
                                "value": "0x8b3b3b624c3c0397d3da8fd861512393d51dcbac"
                            },
                            {
                                "name": "_to",
                                "type": "address",
                                "value": "0x76f45374d0e5fc2b52bcc0ec01c57b38d3d76058"
                            },
                            {
                                "decimalAvailable": true,
                                "name": "_amount",
                                "type": "uint256",
                                "value": "935,699,960,700,000,000"
                            }
                        ],
                        "signature": "Transfer(address,address,uint256)"
                    },
                    "id": 2,
                    "logData": "0x0000000000000000000000000000000000000000000000000cfc46281dded700",
                    "logDecoded": true,
                    "operation": "EVENT",
                    "revert": false,
                    "status": true,
                    "topics": [
                        "0xddf252ad1be2c89b69c2b068fc378daa952ba7f163c4a11628f55a4df523b3ef",
                        "0x0000000000000000000000008b3b3b624c3c0397d3da8fd861512393d51dcbac",
                        "0x00000000000000000000000076f45374d0e5fc2b52bcc0ec01c57b38d3d76058"
                    ]
                },
                "nodeType": 1
            },
            "3": {
                "event": {
                    "contract": "0x8b3b3b624c3c0397d3da8fd861512393d51dcbac",
                    "decodedLog": {
                        "name": "Withdraw",
                        "params": [
                            {
                                "name": "user",
                                "type": "address",
                                "value": "0x76f45374d0e5fc2b52bcc0ec01c57b38d3d76058"
                            },
                            {
                                "name": "amount",
                                "type": "uint256",
                                "value": "935,699,960,700,000,000"
                            }
                        ],
                        "signature": "Withdraw(address,uint256)"
                    },
                    "id": 3,
                    "logData": "0x",
                    "logDecoded": true,
                    "operation": "EVENT",
                    "revert": false,
                    "status": true,
                    "topics": [
                        "0x884edad9ce6fa2440d8a54cc123490eb96d2768479d49ff9c7366125a9424364",
                        "0x00000000000000000000000076f45374d0e5fc2b52bcc0ec01c57b38d3d76058",
                        "0x0000000000000000000000000000000000000000000000000cfc46281dded700"
                    ]
                },
                "nodeType": 1
            }
        },
        "gasFlame": [
            {
                "children": [
                    {
                        "children": [
                            {
                                "children": [],
                                "depth": 0,
                                "name": "Initial Gas",
                                "value": 23256
                            },
                            {
                                "children": [
                                    {
                                        "children": [],
                                        "depth": 1,
                                        "name": "transfer",
                                        "value": 54522
                                    }
                                ],
                                "depth": 0,
                                "name": "Executed Gas",
                                "value": 57120
                            }
                        ],
                        "depth": -1,
                        "name": "Actual Gas Used",
                        "value": 80376
                    },
                    {
                        "children": [],
                        "depth": -1,
                        "name": "Refunded Gas",
                        "value": 0
                    }
                ],
                "depth": -2,
                "name": "Total Gas",
                "value": 80376
            }
        ],
        "isConfirmed": true,
        "mainTrace": [
            {
                "children": [
                    {
                        "children": [
                            {
                                "children": [
                                    {
                                        "children": [],
                                        "depth": 2,
                                        "id": 2,
                                        "order": 2
                                    }
                                ],
                                "depth": 1,
                                "id": 1,
                                "order": 1
                            },
                            {
                                "children": [],
                                "depth": 1,
                                "id": 3,
                                "order": 3
                            }
                        ],
                        "depth": 0,
                        "id": 0,
                        "order": 0
                    }
                ],
                "depth": -1,
                "id": -1,
                "order": -1
            }
        ],
        "mainTraceNodeCount": 4,
        "parentIdMap": {
            "0": -1,
            "1": 0,
            "2": 1,
            "3": 0
        },
        "tidyTrace": [
            {
                "children": [
                    {
                        "children": [
                            {
                                "children": [
                                    {
                                        "children": [],
                                        "depth": 2,
                                        "id": 2,
                                        "order": 2
                                    }
                                ],
                                "depth": 1,
                                "id": 1,
                                "order": 1
                            },
                            {
                                "children": [],
                                "depth": 1,
                                "id": 3,
                                "order": 3
                            }
                        ],
                        "depth": 0,
                        "id": 0,
                        "order": 0
                    }
                ],
                "depth": -1,
                "id": -1,
                "order": -1
            }
        ],
        "tidyTraceNodeCount": 4
    },
    "state_change": {
        "stateChanges": [
            {
                "address": "0xbb9bc244d798123fde783fcc1c72d3bb8c189413",
                "erc": "ERC-20",
                "slots": [
                    {
                        "current": "0x00000000000000000000000000000000000000000000000000000000046bb88e",
                        "key": "0x6d93d4a1e109dc7da699794386ca5696a73f96252d519db8b6014b2a6089ec29",
                        "prev": "0x00000000000000000000000000000000000000000000000000000000046cf142"
                    },
                    {
                        "current": "0x00000000000000000000000000000000000000000000000000000000000138b4",
                        "key": "0xa66da1def0670d9ce2d05d8634dad76e5bed079062bb14d4fa628ac807e15865",
                        "prev": "0x0000000000000000000000000000000000000000000000000000000000000000"
                    },
                    {
                        "current": "0x00000000000000000000000000000000000000000000002efefd2df0ea1c741a",
                        "key": "0x857ee5bc0e6250243c8d960a995e42ec3b4ea3bbd6518f534f52278231b138a7",
                        "prev": "0x00000000000000000000000000000000000000000000002f0bf9741907fb4b1a"
                    },
                    {
                        "current": "0x0000000000000000000000000000000000000000000000000cfc46281dded700",
                        "key": "0x523ef6157c4173d9144d5ca6be3c436d857325312ef81dfa60ce6dc973439126",
                        "prev": "0x0000000000000000000000000000000000000000000000000000000000000000"
                    }
                ],
                "storageVariables": []
            }
        ]
    }
}