{
    "balance_change": {
        "balanceChanges": [
            {
                "account": "0x2e022a02cdc17d49e3b17816de74f2219fe9513b",
                "assets": [
                    {
                        "address": "0xeeeeeeeeeeeeeeeeeeeeeeeeeeeeeeeeeeeeeeee",
                        "amount": "3.75",
                        "iconUrl": "https://assets.blocksec.com/image/1663669189317-3.png",
                        "isERC1155": false,
                        "isERC721": false,
                        "sign": false,
                        "value": "11797.254637499999603"
                    }
                ]
            },
            {
                "account": "0x41a322b28d0ff354040e2cbc676f0320d8c8850d",
                "assets": [
                    {
                        "address": "0xeeeeeeeeeeeeeeeeeeeeeeeeeeeeeeeeeeeeeeee",
                        "amount": "3.75",
                        "iconUrl": "https://assets.blocksec.com/image/1663669189317-3.png",
                        "isERC1155": false,
                        "isERC721": false,
                        "sign": true,
                        "value": "11797.254637499999603"
                    }
                ]
            }
        ]
    },
    "profile": {
        "basic_info": {
            "baseFee": "70.113052734",
            "blockNumber": 13102712,
            "callData": "0x454a2ab30000000000000000000000000000000000000000000000000000000000000477",
            "debugEnable": true,
            "errorInfo": "",
            "eventCount": 1,
            "feeRecipient": "0x5a0b54d5dc17e0aadc383d2db43b0a0d3e029c4c",
            "formatValue": "3.75",
            "gasLimit": 106561,
            "gasPrice": "83.481303739",
            "gasUsed": 71041,
            "intTxnCount": 0,
            "internalRevert": false,
            "internalRevertMessage": "",
            "isContractCreation": false,
            "isFlashloan": false,
            "maxFee": "83.481303739",
            "nonce": 47,
            "overwritedBlockNumber": -1,
            "priorityFee": "83.481303739",
            "receiver": "0x41a322b28d0ff354040e2cbc676f0320d8c8850d",
            "revertMessage": "",
            "sender": "0x2e022a02cdc17d49e3b17816de74f2219fe9513b",
            "simulationEnable": true,
            "sourceTxnHash": "0xdffad6d35e5db363dd7f060c9ddc33fc40daf312e22422eec2c8465830894d2c",
            "status": true,
            "timestamp": "2021-08-26T18:46:11Z",
            "transactionFee": "0.005930595298922299",
            "txnHash": "0xdffad6d35e5db363dd7f060c9ddc33fc40daf312e22422eec2c8465830894d2c",
            "txnIndex": 63,
            "type": 2,
            "value": "3750000000000000000"
        },
        "fund_flow": [
            {
                "amount": "3.75",
                "from": "0x2e022a02cdc17d49e3b17816de74f2219fe9513b",
                "id": 1,
                "isERC1155": false,
                "isERC721": false,
                "isReverted": false,
                "order": 1,
                "to": "0x41a322b28d0ff354040e2cbc676f0320d8c8850d",
                "token": "0xeeeeeeeeeeeeeeeeeeeeeeeeeeeeeeeeeeeeeeee"
            }
        ],
        "token_infos": [
            {
                "address": "0xc02aaa39b223fe8d0a0e5c4f27ead9083c756cc2",
                "decimals": 18
            },
            {
                "address": "0xeeeeeeeeeeeeeeeeeeeeeeeeeeeeeeeeeeeeeeee",
                "decimals": 18
            }
        ]
    },
    "address_label": {
        "labels": [
            {
                "address": "0x0000000000000000000000000000000000000003",
                "label": "Precompiled"
            },
            {
                "address": "0x0000000000000000000000000000000000000004",
                "label": "Precompiled"
            },
            {
                "address": "0xeeeeeeeeeeeeeeeeeeeeeeeeeeeeeeeeeeeeeeee",
                "label": "Ether"
            },
            {
                "address": "0x41a322b28d0ff354040e2cbc676f0320d8c8850d",
                "label": "SupeRare Token"
            },
            {
                "address": "0x0000000000000000000000000000000000000001",
                "label": "Precompiled"
            },
            {
                "address": "0x0000000000000000000000000000000000000002",
                "label": "Precompiled"
            }
        ]
    },
    "trace": {
        "accountLabels": null,
        "dataMap": {
            "-1": {
                "invocation": {
                    "address": "0x2e022a02cdc17d49e3b17816de74f2219fe9513b",
                    "callData": "",
                    "decodedMethod": null,
                    "errorInfo": "",
                    "fromAddress": "",
                    "gasUsed": 0,
                    "id": -1,
                    "methodDecoded": false,
                    "operation": "",
                    "output": "",
                    "revert": false,
                    "revertMessage": "",
                    "selector": "",
                    "status": false,
                    "value": ""
                },
                "nodeType": 0
            },
            "0": {
                "invocation": {
                    "address": "0x41a322b28d0ff354040e2cbc676f0320d8c8850d",
                    "callData": "0x0000000000000000000000000000000000000000000000000000000000000477",
                    "decodedMethod": {
                        "callParams": [
                            {
                                "name": "_tokenId",
                                "type": "uint256",
                                "value": "1,143"
                            }
                        ],
                        "constructorArguments": "",
                        "name": "bid",
                        "returnParams": [],
                        "signature": "bid(uint256)"
                    },
                    "errorInfo": "",
                    "fromAddress": "0x2e022a02cdc17d49e3b17816de74f2219fe9513b",
                    "gasUsed": 71041,
                    "id": 0,
                    "methodDecoded": true,
                    "operation": "CALL",
                    "output": "",
                    "revert": false,
                    "revertMessage": "",
                    "selector": "0x454a2ab3",
                    "status": true,
                    "value": "3.75"
                },
                "nodeType": 0
            },
            "1": {
                "event": {
                    "contract": "0x41a322b28d0ff354040e2cbc676f0320d8c8850d",
                    "decodedLog": {
                        "name": "Bid",
                        "params": [
                            {
                                "name": "_bidder",
                                "type": "address",
                                "value": "0x2e022a02cdc17d49e3b17816de74f2219fe9513b"
                            },
                            {
                                "name": "_amount",
                                "type": "uint256",
                                "value": "3,750,000,000,000,000,000"
                            },
                            {
                                "name": "_tokenId",
                                "type": "uint256",
                                "value": "1,143"
                            }
                        ],
                        "signature": "Bid(address,uint256,uint256)"
                    },
                    "id": 1,
                    "logData": "0x",
                    "logDecoded": true,
                    "operation": "EVENT",
                    "revert": false,
                    "status": true,
                    "topics": [
                        "0x19421268847f42dd61705778018ddfc43bcdce8517e7a630acb12f122c709481",
                        "0x0000000000000000000000002e022a02cdc17d49e3b17816de74f2219fe9513b",
                        "0x000000000000000000000000000000000000000000000000340aad21b3b70000",
                        "0x0000000000000000000000000000000000000000000000000000000000000477"
                    ]
                },
                "nodeType": 1
            }
        },
        "gasFlame": [
            {
                "children": [
                    {
                        "children": [
                            {
                                "children": [],
                                "depth": 0,
                                "name": "Initial Gas",
                                "value": 21216
                            },
                            {
                                "children": [],
                                "depth": 0,
                                "name": "Executed Gas",
                                "value": 49825
                            }
                        ],
                        "depth": -1,
                        "name": "Actual Gas Used",
                        "value": 71041
                    },
                    {
                        "children": [],
                        "depth": -1,
                        "name": "Refunded Gas",
                        "value": 0
                    }
                ],
                "depth": -2,
                "name": "Total Gas",
                "value": 71041
            }
        ],
        "isConfirmed": true,
        "mainTrace": [
            {
                "children": [
                    {
                        "children": [
                            {
                                "children": [],
                                "depth": 1,
                                "id": 1,
                                "order": 1
                            }
                        ],
                        "depth": 0,
                        "id": 0,
                        "order": 0
                    }
                ],
                "depth": -1,
                "id": -1,
                "order": -1
            }
        ],
        "mainTraceNodeCount": 2,
        "parentIdMap": {
            "0": -1,
            "1": 0
        },
        "tidyTrace": [
            {
                "children": [
                    {
                        "children": [
                            {
                                "children": [],
                                "depth": 1,
                                "id": 1,
                                "order": 1
                            }
                        ],
                        "depth": 0,
                        "id": 0,
                        "order": 0
                    }
                ],
                "depth": -1,
                "id": -1,
                "order": -1
            }
        ],
        "tidyTraceNodeCount": 2
    },
    "state_change": {
        "stateChanges": [
            {
                "address": "0x41a322b28d0ff354040e2cbc676f0320d8c8850d",
                "erc": "",
                "slots": [
                    {
                        "current": "0x0000000000000000000000002e022a02cdc17d49e3b17816de74f2219fe9513b",
                        "key": "0xddd6d7e4de3c8c10ca0cf3d0e85fbcc2e8de9766684b0963789acfb35f2a44cb",
                        "prev": "0x0000000000000000000000000000000000000000000000000000000000000000"
                    },
                    {
                        "current": "0x000000000000000000000000000000000000000000000000340aad21b3b70000",
                        "key": "0x14e59b587725109682b4d5dcd14ce2256a182ec024070da1f647ea0a06d51ddf",
                        "prev": "0x0000000000000000000000000000000000000000000000000000000000000000"
                    }
                ],
                "storageVariables": [
                    {
                        "name": "tokenBidder",
                        "type": "mapping(uint256 => address)",
                        "value": {
                            "pairs": [
                                {
                                    "key": "1143",
                                    "value": {
                                        "current": "0x2e022a02cdc17d49e3b17816de74f2219fe9513b",
                                        "prev": "0x0000000000000000000000000000000000000000",
                                        "typeTag": 1
                                    }
                                }
                            ],
                            "typeTag": 4
                        }
                    },
                    {
                        "name": "tokenCurrentBid",
                        "type": "mapping(uint256 => uint256)",
                        "value": {
                            "pairs": [
                                {
                                    "key": "1143",
                                    "value": {
                                        "current": "3750000000000000000",
                                        "prev": "0",
                                        "typeTag": 1
                                    }
                                }
                            ],
                            "typeTag": 4
                        }
                    }
                ]
            }
        ]
    }
}