{
    "balance_change": {
        "balanceChanges": [
            {
                "account": "0x106ebeb47ad365ed8dca7a25e6493ac2dbf2c304",
                "assets": [
                    {
                        "address": "0xc770eefad204b5180df6a14ee197d99d808ee52d",
                        "amount": "100",
                        "iconUrl": "https://assets.blocksec.com/icon/abbc175c114974ba787f2e56f904e1c3b188098a02040d55f4039f986e4b481b.png",
                        "isERC1155": false,
                        "isERC721": false,
                        "sign": false,
                        "value": ""
                    }
                ]
            },
            {
                "account": "0x776233e15fb21b6ceb799d967360453493dd7d79",
                "assets": [
                    {
                        "address": "0xc770eefad204b5180df6a14ee197d99d808ee52d",
                        "amount": "100",
                        "iconUrl": "https://assets.blocksec.com/icon/abbc175c114974ba787f2e56f904e1c3b188098a02040d55f4039f986e4b481b.png",
                        "isERC1155": false,
                        "isERC721": false,
                        "sign": true,
                        "value": ""
                    }
                ]
            }
        ]
    },
    "profile": {
        "basic_info": {
            "baseFee": "",
            "blockNumber": 9444036,
            "callData": "0xa9059cbb000000000000000000000000776233e15fb21b6ceb799d967360453493dd7d790000000000000000000000000000000000000000000000056bc75e2d63100000",
            "debugEnable": true,
            "errorInfo": "",
            "eventCount": 1,
            "feeRecipient": "0x5a0b54d5dc17e0aadc383d2db43b0a0d3e029c4c",
            "formatValue": "0",
            "gasLimit": 240000,
            "gasPrice": "4.024999998",
            "gasUsed": 51167,
            "intTxnCount": 0,
            "internalRevert": false,
            "internalRevertMessage": "",
            "isContractCreation": false,
            "isFlashloan": false,
            "maxFee": "",
            "nonce": 9402,
            "overwritedBlockNumber": -1,
            "priorityFee": "",
            "receiver": "0xc770eefad204b5180df6a14ee197d99d808ee52d",
            "revertMessage": "",
            "sender": "0x106ebeb47ad365ed8dca7a25e6493ac2dbf2c304",
            "simulationEnable": true,
            "sourceTxnHash": "0xdf7d6a21b01378214c8a9b785efc6ce9a6918d4233d82539fd4601302260a773",
            "status": true,
            "timestamp": "2020-02-08T19:39:19Z",
            "transactionFee": "0.000205947174897666",
            "txnHash": "0xdf7d6a21b01378214c8a9b785efc6ce9a6918d4233d82539fd4601302260a773",
            "txnIndex": 48,
            "type": 0,
            "value": "0"
        },
        "fund_flow": [
            {
                "amount": "100",
                "from": "0x106ebeb47ad365ed8dca7a25e6493ac2dbf2c304",
                "id": 1,
                "isERC1155": false,
                "isERC721": false,
                "isReverted": false,
                "order": 1,
                "to": "0x776233e15fb21b6ceb799d967360453493dd7d79",
                "token": "0xc770eefad204b5180df6a14ee197d99d808ee52d"
            }
        ],
        "token_infos": [
            {
                "address": "0xc02aaa39b223fe8d0a0e5c4f27ead9083c756cc2",
                "decimals": 18
            },
            {
                "address": "0xc770eefad204b5180df6a14ee197d99d808ee52d",
                "decimals": 18
            },
            {
                "address": "0xeeeeeeeeeeeeeeeeeeeeeeeeeeeeeeeeeeeeeeee",
                "decimals": 18
            }
        ]
    },
    "address_label": {
        "labels": [
            {
                "address": "0xeeeeeeeeeeeeeeeeeeeeeeeeeeeeeeeeeeeeeeee",
                "label": "Ether"
            },
            {
                "address": "0xc770eefad204b5180df6a14ee197d99d808ee52d",
                "label": "ShapeShift: FOX Token"
            },
            {
                "address": "0x0000000000000000000000000000000000000001",
                "label": "Precompiled"
            },
            {
                "address": "0x0000000000000000000000000000000000000002",
                "label": "Precompiled"
            },
            {
                "address": "0x0000000000000000000000000000000000000003",
                "label": "Precompiled"
            },
            {
                "address": "0x0000000000000000000000000000000000000004",
                "label": "Precompiled"
            }
        ]
    },
    "trace": {
        "accountLabels": null,
        "dataMap": {
            "-1": {
                "invocation": {
                    "address": "0x106ebeb47ad365ed8dca7a25e6493ac2dbf2c304",
                    "callData": "",
                    "decodedMethod": null,
                    "errorInfo": "",
                    "fromAddress": "",
                    "gasUsed": 0,
                    "id": -1,
                    "methodDecoded": false,
                    "operation": "",
                    "output": "",
                    "revert": false,
                    "revertMessage": "",
                    "selector": "",
                    "status": false,
                    "value": ""
                },
                "nodeType": 0
            },
            "0": {
                "invocation": {
                    "address": "0xc770eefad204b5180df6a14ee197d99d808ee52d",
                    "callData": "0x000000000000000000000000776233e15fb21b6ceb799d967360453493dd7d790000000000000000000000000000000000000000000000056bc75e2d63100000",
                    "decodedMethod": {
                        "callParams": [
                            {
                                "name": "to",
                                "type": "address",
                                "value": "0x776233e15fb21b6ceb799d967360453493dd7d79"
                            },
                            {
                                "decimalAvailable": true,
                                "name": "value",
                                "type": "uint256",
                                "value": "100,000,000,000,000,000,000"
                            }
                        ],
                        "constructorArguments": "",
                        "name": "transfer",
                        "returnParams": [
                            {
                                "name": "",
                                "type": "bool",
                                "value": true
                            }
                        ],
                        "signature": "transfer(address,uint256)"
                    },
                    "errorInfo": "",
                    "fromAddress": "0x106ebeb47ad365ed8dca7a25e6493ac2dbf2c304",
                    "gasUsed": 51167,
                    "id": 0,
                    "methodDecoded": true,
                    "operation": "CALL",
                    "output": "0x0000000000000000000000000000000000000000000000000000000000000001",
                    "revert": false,
                    "revertMessage": "",
                    "selector": "0xa9059cbb",
                    "status": true,
                    "value": "0"
                },
                "nodeType": 0
            },
            "1": {
                "event": {
                    "contract": "0xc770eefad204b5180df6a14ee197d99d808ee52d",
                    "decodedLog": {
                        "name": "Transfer",
                        "params": [
                            {
                                "name": "from",
                                "type": "address",
                                "value": "0x106ebeb47ad365ed8dca7a25e6493ac2dbf2c304"
                            },
                            {
                                "name": "to",
                                "type": "address",
                                "value": "0x776233e15fb21b6ceb799d967360453493dd7d79"
                            },
                            {
                                "decimalAvailable": true,
                                "name": "value",
                                "type": "uint256",
                                "value": "100,000,000,000,000,000,000"
                            }
                        ],
                        "signature": "Transfer(address,address,uint256)"
                    },
                    "id": 1,
                    "logData": "0x0000000000000000000000000000000000000000000000056bc75e2d63100000",
                    "logDecoded": true,
                    "operation": "EVENT",
                    "revert": false,
                    "status": true,
                    "topics": [
                        "0xddf252ad1be2c89b69c2b068fc378daa952ba7f163c4a11628f55a4df523b3ef",
                        "0x000000000000000000000000106ebeb47ad365ed8dca7a25e6493ac2dbf2c304",
                        "0x000000000000000000000000776233e15fb21b6ceb799d967360453493dd7d79"
                    ]
                },
                "nodeType": 1
            }
        },
        "gasFlame": [
            {
                "children": [
                    {
                        "children": [
                            {
                                "children": [],
                                "depth": 0,
                                "name": "Initial Gas",
                                "value": 21644
                            },
                            {
                                "children": [],
                                "depth": 0,
                                "name": "Executed Gas",
                                "value": 29523
                            }
                        ],
                        "depth": -1,
                        "name": "Actual Gas Used",
                        "value": 51167
                    },
                    {
                        "children": [],
                        "depth": -1,
                        "name": "Refunded Gas",
                        "value": 0
                    }
                ],
                "depth": -2,
                "name": "Total Gas",
                "value": 51167
            }
        ],
        "isConfirmed": true,
        "mainTrace": [
            {
                "children": [
                    {
                        "children": [
                            {
                                "children": [],
                                "depth": 1,
                                "id": 1,
                                "order": 1
                            }
                        ],
                        "depth": 0,
                        "id": 0,
                        "order": 0
                    }
                ],
                "depth": -1,
                "id": -1,
                "order": -1
            }
        ],
        "mainTraceNodeCount": 2,
        "parentIdMap": {
            "0": -1,
            "1": 0
        },
        "tidyTrace": [
            {
                "children": [
                    {
                        "children": [
                            {
                                "children": [],
                                "depth": 1,
                                "id": 1,
                                "order": 1
                            }
                        ],
                        "depth": 0,
                        "id": 0,
                        "order": 0
                    }
                ],
                "depth": -1,
                "id": -1,
                "order": -1
            }
        ],
        "tidyTraceNodeCount": 2
    },
    "state_change": {
        "stateChanges": [
            {
                "address": "0xc770eefad204b5180df6a14ee197d99d808ee52d",
                "erc": "ERC-20",
                "slots": [
                    {
                        "current": "0x000000000000000000000000000000000000000000000cea61da15d77808971d",
                        "key": "0x28e38e88328bc1b5a8c325f28db75409d8138d7a98acb8c6b7983b188f932a28",
                        "prev": "0x000000000000000000000000000000000000000000000cefcda17404db18971d"
                    },
                    {
                        "current": "0x0000000000000000000000000000000000000000000000056bc75e2d63100000",
                        "key": "0xc7f661a5647541516537b3114f93971e5bab36f62c70ee104a42f3565b9994a8",
                        "prev": "0x0000000000000000000000000000000000000000000000000000000000000000"
                    }
                ],
                "storageVariables": [
                    {
                        "name": "_balances",
                        "type": "mapping(address => uint256)",
                        "value": {
                            "pairs": [
                                {
                                    "key": "0x106ebeb47ad365ed8dca7a25e6493ac2dbf2c304",
                                    "value": {
                                        "current": "60991986879865555556125",
                                        "prev": "61091986879865555556125",
                                        "typeTag": 1
                                    }
                                },
                                {
                                    "key": "0x776233e15fb21b6ceb799d967360453493dd7d79",
                                    "value": {
                                        "current": "100000000000000000000",
                                        "prev": "0",
                                        "typeTag": 1
                                    }
                                }
                            ],
                            "typeTag": 4
                        }
                    }
                ]
            }
        ]
    }
}