{
    "balance_change": {
        "balanceChanges": [
            {
                "account": "0xd1ceeeeee83f8bcf3bedad437202b6154e9f5405",
                "assets": [
                    {
                        "address": "0xeeeeeeeeeeeeeeeeeeeeeeeeeeeeeeeeeeeeeeee",
                        "amount": "0.222727272727272727",
                        "iconUrl": "https://assets.blocksec.com/image/1663669189317-3.png",
                        "isERC1155": false,
                        "isERC721": false,
                        "sign": false,
                        "value": ""
                    }
                ]
            },
            {
                "account": "0xf0db58597bc2eca1355e611f9c0db8ea18253024",
                "assets": [
                    {
                        "address": "0xeeeeeeeeeeeeeeeeeeeeeeeeeeeeeeeeeeeeeeee",
                        "amount": "0.222727272727272727",
                        "iconUrl": "https://assets.blocksec.com/image/1663669189317-3.png",
                        "isERC1155": false,
                        "isERC721": false,
                        "sign": true,
                        "value": ""
                    }
                ]
            }
        ]
    },
    "profile": {
        "basic_info": {
            "baseFee": "",
            "blockNumber": 10273304,
            "callData": "0xca722cdc79e14015076c63aba206515a636a1e5b60053f781e314b81c52a3b9cc9192db980a3f8d9626410defd1124bc9d7c3154f1e177ea43e9e667cefa65b4e6c106e0",
            "debugEnable": true,
            "errorInfo": "",
            "eventCount": 1,
            "feeRecipient": "0x5a0b54d5dc17e0aadc383d2db43b0a0d3e029c4c",
            "formatValue": "0",
            "gasLimit": 65000,
            "gasPrice": "32",
            "gasUsed": 32951,
            "intTxnCount": 1,
            "internalRevert": false,
            "internalRevertMessage": "",
            "isContractCreation": false,
            "isFlashloan": false,
            "maxFee": "",
            "nonce": 1993924,
            "overwritedBlockNumber": -1,
            "priorityFee": "",
            "receiver": "0xd1ceeeeee83f8bcf3bedad437202b6154e9f5405",
            "revertMessage": "",
            "sender": "0x00000000c0293c8ca34dac9bcc0f953532d34e4d",
            "simulationEnable": true,
            "sourceTxnHash": "0xe02cd6e05dc468e2bcfcc26eedf447b82834b4618dcecdc685efd096e67cb151",
            "status": true,
            "timestamp": "2020-06-15T23:25:01Z",
            "transactionFee": "0.001054432",
            "txnHash": "0xe02cd6e05dc468e2bcfcc26eedf447b82834b4618dcecdc685efd096e67cb151",
            "txnIndex": 36,
            "type": 0,
            "value": "0"
        },
        "fund_flow": [
            {
                "amount": "0.222727272727272727",
                "from": "0xd1ceeeeee83f8bcf3bedad437202b6154e9f5405",
                "id": 1,
                "isERC1155": false,
                "isERC721": false,
                "isReverted": false,
                "order": 1,
                "to": "0xf0db58597bc2eca1355e611f9c0db8ea18253024",
                "token": "0xeeeeeeeeeeeeeeeeeeeeeeeeeeeeeeeeeeeeeeee"
            }
        ],
        "token_infos": [
            {
                "address": "0xc02aaa39b223fe8d0a0e5c4f27ead9083c756cc2",
                "decimals": 18
            },
            {
                "address": "0xeeeeeeeeeeeeeeeeeeeeeeeeeeeeeeeeeeeeeeee",
                "decimals": 18
            }
        ]
    },
    "address_label": {
        "labels": [
            {
                "address": "0xeeeeeeeeeeeeeeeeeeeeeeeeeeeeeeeeeeeeeeee",
                "label": "Ether"
            },
            {
                "address": "0xd1ceeeeee83f8bcf3bedad437202b6154e9f5405",
                "label": "Dice2Win"
            },
            {
                "address": "0x00000000c0293c8ca34dac9bcc0f953532d34e4d",
                "label": "Dice2Win 2"
            },
            {
                "address": "0x0000000000000000000000000000000000000001",
                "label": "Precompiled"
            },
            {
                "address": "0x0000000000000000000000000000000000000002",
                "label": "Precompiled"
            },
            {
                "address": "0x0000000000000000000000000000000000000003",
                "label": "Precompiled"
            },
            {
                "address": "0x0000000000000000000000000000000000000004",
                "label": "Precompiled"
            }
        ]
    },
    "trace": {
        "accountLabels": null,
        "dataMap": {
            "-1": {
                "invocation": {
                    "address": "0x00000000c0293c8ca34dac9bcc0f953532d34e4d",
                    "callData": "",
                    "decodedMethod": null,
                    "errorInfo": "",
                    "fromAddress": "",
                    "gasUsed": 0,
                    "id": -1,
                    "methodDecoded": false,
                    "operation": "",
                    "output": "",
                    "revert": false,
                    "revertMessage": "",
                    "selector": "",
                    "status": false,
                    "value": ""
                },
                "nodeType": 0
            },
            "0": {
                "invocation": {
                    "address": "0xd1ceeeeee83f8bcf3bedad437202b6154e9f5405",
                    "callData": "0x79e14015076c63aba206515a636a1e5b60053f781e314b81c52a3b9cc9192db980a3f8d9626410defd1124bc9d7c3154f1e177ea43e9e667cefa65b4e6c106e0",
                    "decodedMethod": {
                        "callParams": [
                            {
                                "name": "reveal",
                                "type": "uint256",
                                "value": "55,127,837,546,857,218,902,525,481,659,798,467,093,591,805,939,648,011,075,270,665,118,421,142,285,753"
                            },
                            {
                                "name": "blockHash",
                                "type": "bytes32",
                                "value": "0x80a3f8d9626410defd1124bc9d7c3154f1e177ea43e9e667cefa65b4e6c106e0"
                            }
                        ],
                        "constructorArguments": "",
                        "name": "settleBet",
                        "returnParams": [],
                        "signature": "settleBet(uint256,bytes32)"
                    },
                    "errorInfo": "",
                    "fromAddress": "0x00000000c0293c8ca34dac9bcc0f953532d34e4d",
                    "gasUsed": 32951,
                    "id": 0,
                    "methodDecoded": true,
                    "operation": "CALL",
                    "output": "",
                    "revert": false,
                    "revertMessage": "",
                    "selector": "0xca722cdc",
                    "status": true,
                    "value": "0"
                },
                "nodeType": 0
            },
            "1": {
                "invocation": {
                    "address": "0xf0db58597bc2eca1355e611f9c0db8ea18253024",
                    "callData": "0x",
                    "decodedMethod": null,
                    "errorInfo": "",
                    "fromAddress": "0xd1ceeeeee83f8bcf3bedad437202b6154e9f5405",
                    "gasUsed": 0,
                    "id": 1,
                    "methodDecoded": false,
                    "operation": "CALL",
                    "output": "",
                    "revert": false,
                    "revertMessage": "",
                    "selector": "fallback",
                    "status": true,
                    "value": "0.222727272727272727"
                },
                "nodeType": 0
            },
            "2": {
                "event": {
                    "contract": "0xd1ceeeeee83f8bcf3bedad437202b6154e9f5405",
                    "decodedLog": {
                        "name": "Payment",
                        "params": [
                            {
                                "name": "beneficiary",
                                "type": "address",
                                "value": "0xf0db58597bc2eca1355e611f9c0db8ea18253024"
                            },
                            {
                                "name": "amount",
                                "type": "uint256",
                                "value": "222,727,272,727,272,727"
                            }
                        ],
                        "signature": "Payment(address,uint256)"
                    },
                    "id": 2,
                    "logData": "0x0000000000000000000000000000000000000000000000000317494644b35d17",
                    "logDecoded": true,
                    "operation": "EVENT",
                    "revert": false,
                    "status": true,
                    "topics": [
                        "0xd4f43975feb89f48dd30cabbb32011045be187d1e11c8ea9faa43efc35282519",
                        "0x000000000000000000000000f0db58597bc2eca1355e611f9c0db8ea18253024"
                    ]
                },
                "nodeType": 1
            }
        },
        "gasFlame": [
            {
                "children": [
                    {
                        "children": [
                            {
                                "children": [],
                                "depth": 0,
                                "name": "Initial Gas",
                                "value": 22088
                            },
                            {
                                "children": [
                                    {
                                        "children": [],
                                        "depth": 1,
                                        "name": "fallback",
                                        "value": 0
                                    }
                                ],
                                "depth": 0,
                                "name": "Executed Gas",
                                "value": 25863
                            }
                        ],
                        "depth": -1,
                        "name": "Actual Gas Used",
                        "value": 32951
                    },
                    {
                        "children": [],
                        "depth": -1,
                        "name": "Refunded Gas",
                        "value": 15000
                    }
                ],
                "depth": -2,
                "name": "Total Gas",
                "value": 47951
            }
        ],
        "isConfirmed": true,
        "mainTrace": [
            {
                "children": [
                    {
                        "children": [
                            {
                                "children": [],
                                "depth": 1,
                                "id": 1,
                                "order": 1
                            },
                            {
                                "children": [],
                                "depth": 1,
                                "id": 2,
                                "order": 2
                            }
                        ],
                        "depth": 0,
                        "id": 0,
                        "order": 0
                    }
                ],
                "depth": -1,
                "id": -1,
                "order": -1
            }
        ],
        "mainTraceNodeCount": 3,
        "parentIdMap": {
            "0": -1,
            "1": 0,
            "2": 0
        },
        "tidyTrace": [
            {
                "children": [
                    {
                        "children": [
                            {
                                "children": [],
                                "depth": 1,
                                "id": 1,
                                "order": 1
                            },
                            {
                                "children": [],
                                "depth": 1,
                                "id": 2,
                                "order": 2
                            }
                        ],
                        "depth": 0,
                        "id": 0,
                        "order": 0
                    }
                ],
                "depth": -1,
                "id": -1,
                "order": -1
            }
        ],
        "tidyTraceNodeCount": 3
    },
    "state_change": {
        "stateChanges": [
            {
                "address": "0xd1ceeeeee83f8bcf3bedad437202b6154e9f5405",
                "erc": "",
                "slots": [
                    {
                        "current": "0x000000000000000021c7d1acdf846dc9000000000000000014e9f083fc838000",
                        "key": "0x0000000000000000000000000000000000000000000000000000000000000004",
                        "prev": "0x000000000000000024df1af32437cae0000000000000000014e9f083fc838000"
                    },
                    {
                        "current": "0x0000000000000000000000000000000000000000000000000000000000000000",
                        "key": "0x7f819b4d685904560e2a7d5ede1ba0c4a4242f0d0344d7621648bf130b95483c",
                        "prev": "0x000000000000000000000000000000000000000000000000016345785d8a0000"
                    }
                ],
                "storageVariables": [
                    {
                        "name": "jackpotSize",
                        "type": "uint128",
                        "value": {
                            "current": "1507000000000000000",
                            "prev": "1507000000000000000",
                            "typeTag": 1
                        }
                    },
                    {
                        "name": "lockedInBets",
                        "type": "uint128",
                        "value": {
                            "current": "2434144664031620553",
                            "prev": "2656871936758893280",
                            "typeTag": 1
                        }
                    },
                    {
                        "name": "bets",
                        "type": "mapping(uint256 => struct Dice2Win.Bet)",
                        "value": {
                            "pairs": [
                                {
                                    "key": "101782930323836177066874158280443761863402402322592596747926681217610785772855",
                                    "value": {
                                        "fields": [
                                            {
                                                "name": "amount",
                                                "type": "uint256",
                                                "value": {
                                                    "current": "0",
                                                    "prev": "100000000000000000",
                                                    "typeTag": 1
                                                }
                                            }
                                        ],
                                        "typeTag": 3
                                    }
                                }
                            ],
                            "typeTag": 4
                        }
                    }
                ]
            }
        ]
    }
}