{
    "balance_change": {
        "balanceChanges": [
            {
                "account": "0x0000000000000000000000000000000000000000",
                "assets": [
                    {
                        "address": "0x54b743d6055e3bbbf13eb2c748a3783516156e5b",
                        "amount": "1",
                        "iconUrl": "",
                        "isERC1155": true,
                        "isERC721": false,
                        "sign": false,
                        "tokenID": "34",
                        "value": ""
                    }
                ]
            },
            {
                "account": "0x0735d535f2009602a8a1c5b8fbd0454c3ca1b2b0",
                "assets": [
                    {
                        "address": "0x54b743d6055e3bbbf13eb2c748a3783516156e5b",
                        "amount": "1",
                        "iconUrl": "",
                        "isERC1155": true,
                        "isERC721": false,
                        "sign": true,
                        "tokenID": "34",
                        "value": ""
                    }
                ]
            }
        ]
    },
    "profile": {
        "basic_info": {
            "baseFee": "9.050609397",
            "blockNumber": 16065124,
            "callData": "0x38926b6d00000000000000000000000000000000000000000000000000000000000000220000000000000000000000000000000000000000000000000000000000000040000000000000000000000000000000000000000000000000000000000000004153ec6373c48a18ed5326d11f0ec4be0e0cf053d46cfcb68c35bcea522212bbbd4e8a76f195d9547572e203692e03416f60daa558fe6e679c78e317de91eb61761c00000000000000000000000000000000000000000000000000000000000000",
            "debugEnable": true,
            "errorInfo": "",
            "eventCount": 2,
            "feeRecipient": "0xaab27b150451726ec7738aa1d0a94505c8729bd1",
            "formatValue": "0",
            "gasLimit": 94285,
            "gasPrice": "10.550609397",
            "gasUsed": 94285,
            "intTxnCount": 1,
            "internalRevert": false,
            "internalRevertMessage": "",
            "isContractCreation": false,
            "isFlashloan": false,
            "maxFee": "14.169336192",
            "nonce": 133,
            "overwritedBlockNumber": -1,
            "priorityFee": "1.5",
            "receiver": "0x54b743d6055e3bbbf13eb2c748a3783516156e5b",
            "revertMessage": "",
            "sender": "0x0735d535f2009602a8a1c5b8fbd0454c3ca1b2b0",
            "simulationEnable": true,
            "sourceTxnHash": "0xe01708820de93e6bf423d62455fdbb5b7d253ac8dc0027a83b0bf6aed5c96405",
            "status": true,
            "timestamp": "2022-11-28T01:14:11Z",
            "transactionFee": "0.000994764206996145",
            "txnHash": "0xe01708820de93e6bf423d62455fdbb5b7d253ac8dc0027a83b0bf6aed5c96405",
            "txnIndex": 95,
            "type": 2,
            "value": "0"
        },
        "fund_flow": [
            {
                "amount": "1",
                "from": "0x0000000000000000000000000000000000000000",
                "id": 1,
                "isERC1155": true,
                "isERC721": false,
                "isReverted": false,
                "order": 1,
                "to": "0x0735d535f2009602a8a1c5b8fbd0454c3ca1b2b0",
                "token": "0x54b743d6055e3bbbf13eb2c748a3783516156e5b",
                "tokenID": "34"
            }
        ],
        "token_infos": [
            {
                "address": "0xc02aaa39b223fe8d0a0e5c4f27ead9083c756cc2",
                "decimals": 18
            },
            {
                "address": "0xeeeeeeeeeeeeeeeeeeeeeeeeeeeeeeeeeeeeeeee",
                "decimals": 18
            }
        ]
    },
    "address_label": {
        "labels": [
            {
                "address": "0xeeeeeeeeeeeeeeeeeeeeeeeeeeeeeeeeeeeeeeee",
                "label": "Ether"
            },
            {
                "address": "0x54b743d6055e3bbbf13eb2c748a3783516156e5b",
                "label": "InfinityKeysAchievement (IKA)"
            },
            {
                "address": "0x0000000000000000000000000000000000000001",
                "label": "Precompiled"
            },
            {
                "address": "0x0000000000000000000000000000000000000002",
                "label": "Precompiled"
            },
            {
                "address": "0x0000000000000000000000000000000000000003",
                "label": "Precompiled"
            },
            {
                "address": "0x0000000000000000000000000000000000000004",
                "label": "Precompiled"
            }
        ]
    },
    "trace": {
        "accountLabels": null,
        "dataMap": {
            "-1": {
                "invocation": {
                    "address": "0x0735d535f2009602a8a1c5b8fbd0454c3ca1b2b0",
                    "callData": "",
                    "decodedMethod": null,
                    "errorInfo": "",
                    "fromAddress": "",
                    "gasUsed": 0,
                    "id": -1,
                    "methodDecoded": false,
                    "operation": "",
                    "output": "",
                    "revert": false,
                    "revertMessage": "",
                    "selector": "",
                    "status": false,
                    "value": ""
                },
                "nodeType": 0
            },
            "0": {
                "invocation": {
                    "address": "0x54b743d6055e3bbbf13eb2c748a3783516156e5b",
                    "callData": "0x00000000000000000000000000000000000000000000000000000000000000220000000000000000000000000000000000000000000000000000000000000040000000000000000000000000000000000000000000000000000000000000004153ec6373c48a18ed5326d11f0ec4be0e0cf053d46cfcb68c35bcea522212bbbd4e8a76f195d9547572e203692e03416f60daa558fe6e679c78e317de91eb61761c00000000000000000000000000000000000000000000000000000000000000",
                    "decodedMethod": {
                        "callParams": [
                            {
                                "name": "_tokenID",
                                "type": "uint256",
                                "value": "34"
                            },
                            {
                                "name": "_signature",
                                "type": "bytes",
                                "value": "0x53ec6373c48a18ed5326d11f0ec4be0e0cf053d46cfcb68c35bcea522212bbbd4e8a76f195d9547572e203692e03416f60daa558fe6e679c78e317de91eb61761c"
                            }
                        ],
                        "constructorArguments": "",
                        "name": "claim",
                        "returnParams": [],
                        "signature": "claim(uint256,bytes)"
                    },
                    "errorInfo": "",
                    "fromAddress": "0x0735d535f2009602a8a1c5b8fbd0454c3ca1b2b0",
                    "gasUsed": 94285,
                    "id": 0,
                    "methodDecoded": true,
                    "operation": "CALL",
                    "output": "",
                    "revert": false,
                    "revertMessage": "",
                    "selector": "0x38926b6d",
                    "status": true,
                    "value": "0"
                },
                "nodeType": 0
            },
            "1": {
                "invocation": {
                    "address": "0x0000000000000000000000000000000000000001",
                    "callData": "0x3e97287bed640fe6ee5f9fa993b2f23d0d3f6f633d899d1deb671a17000000000000000000000000000000000000000000000000000000000000001c53ec6373c48a18ed5326d11f0ec4be0e0cf053d46cfcb68c35bcea522212bbbd4e8a76f195d9547572e203692e03416f60daa558fe6e679c78e317de91eb6176",
                    "decodedMethod": {
                        "callParams": [
                            {
                                "name": "hash",
                                "type": "bytes32",
                                "value": "0x62a3a66f3e97287bed640fe6ee5f9fa993b2f23d0d3f6f633d899d1deb671a17"
                            },
                            {
                                "name": "v",
                                "type": "uint256",
                                "value": "28"
                            },
                            {
                                "name": "r",
                                "type": "bytes32",
                                "value": "0x53ec6373c48a18ed5326d11f0ec4be0e0cf053d46cfcb68c35bcea522212bbbd"
                            },
                            {
                                "name": "s",
                                "type": "bytes32",
                                "value": "0x4e8a76f195d9547572e203692e03416f60daa558fe6e679c78e317de91eb6176"
                            }
                        ],
                        "constructorArguments": "",
                        "name": "ecrecover",
                        "returnParams": [
                            {
                                "name": "",
                                "type": "address",
                                "value": "0x247fefef45134228093ac6ce41ee615d327b957e"
                            }
                        ],
                        "signature": "ecrecover(bytes32,uint256,bytes32,bytes32)"
                    },
                    "errorInfo": "",
                    "fromAddress": "0x54b743d6055e3bbbf13eb2c748a3783516156e5b",
                    "gasUsed": 3000,
                    "id": 1,
                    "methodDecoded": true,
                    "operation": "STATICCALL",
                    "output": "0x000000000000000000000000247fefef45134228093ac6ce41ee615d327b957e",
                    "revert": false,
                    "revertMessage": "",
                    "selector": "0x62a3a66f",
                    "status": true,
                    "value": "0"
                },
                "nodeType": 0
            },
            "2": {
                "event": {
                    "contract": "0x54b743d6055e3bbbf13eb2c748a3783516156e5b",
                    "decodedLog": {
                        "name": "TransferSingle",
                        "params": [
                            {
                                "name": "operator",
                                "type": "address",
                                "value": "0x0735d535f2009602a8a1c5b8fbd0454c3ca1b2b0"
                            },
                            {
                                "name": "from",
                                "type": "address",
                                "value": "0x0000000000000000000000000000000000000000"
                            },
                            {
                                "name": "to",
                                "type": "address",
                                "value": "0x0735d535f2009602a8a1c5b8fbd0454c3ca1b2b0"
                            },
                            {
                                "name": "id",
                                "type": "uint256",
                                "value": "34"
                            },
                            {
                                "name": "value",
                                "type": "uint256",
                                "value": "1"
                            }
                        ],
                        "signature": "TransferSingle(address,address,address,uint256,uint256)"
                    },
                    "id": 2,
                    "logData": "0x00000000000000000000000000000000000000000000000000000000000000220000000000000000000000000000000000000000000000000000000000000001",
                    "logDecoded": true,
                    "operation": "EVENT",
                    "revert": false,
                    "status": true,
                    "topics": [
                        "0xc3d58168c5ae7397731d063d5bbf3d657854427343f4c083240f7aacaa2d0f62",
                        "0x0000000000000000000000000735d535f2009602a8a1c5b8fbd0454c3ca1b2b0",
                        "0x0000000000000000000000000000000000000000000000000000000000000000",
                        "0x0000000000000000000000000735d535f2009602a8a1c5b8fbd0454c3ca1b2b0"
                    ]
                },
                "nodeType": 1
            },
            "3": {
                "event": {
                    "contract": "0x54b743d6055e3bbbf13eb2c748a3783516156e5b",
                    "decodedLog": {
                        "name": "Claimed",
                        "params": [
                            {
                                "name": "_tokenID",
                                "type": "uint256",
                                "value": "34"
                            },
                            {
                                "name": "_account",
                                "type": "address",
                                "value": "0x0735d535f2009602a8a1c5b8fbd0454c3ca1b2b0"
                            }
                        ],
                        "signature": "Claimed(uint256,address)"
                    },
                    "id": 3,
                    "logData": "0x",
                    "logDecoded": true,
                    "operation": "EVENT",
                    "revert": false,
                    "status": true,
                    "topics": [
                        "0x6aa3eac93d079e5e100b1029be716caa33586c96aa4baac390669fb5c2a21212",
                        "0x0000000000000000000000000000000000000000000000000000000000000022",
                        "0x0000000000000000000000000735d535f2009602a8a1c5b8fbd0454c3ca1b2b0"
                    ]
                },
                "nodeType": 1
            }
        },
        "gasFlame": [
            {
                "children": [
                    {
                        "children": [
                            {
                                "children": [],
                                "depth": 0,
                                "name": "Initial Gas",
                                "value": 22648
                            },
                            {
                                "children": [
                                    {
                                        "children": [],
                                        "depth": 1,
                                        "name": "ecrecover",
                                        "value": 3000
                                    }
                                ],
                                "depth": 0,
                                "name": "Executed Gas",
                                "value": 71637
                            }
                        ],
                        "depth": -1,
                        "name": "Actual Gas Used",
                        "value": 94285
                    },
                    {
                        "children": [],
                        "depth": -1,
                        "name": "Refunded Gas",
                        "value": 0
                    }
                ],
                "depth": -2,
                "name": "Total Gas",
                "value": 94285
            }
        ],
        "isConfirmed": true,
        "mainTrace": [
            {
                "children": [
                    {
                        "children": [
                            {
                                "children": [],
                                "depth": 1,
                                "id": 1,
                                "order": 1
                            },
                            {
                                "children": [],
                                "depth": 1,
                                "id": 2,
                                "order": 2
                            },
                            {
                                "children": [],
                                "depth": 1,
                                "id": 3,
                                "order": 3
                            }
                        ],
                        "depth": 0,
                        "id": 0,
                        "order": 0
                    }
                ],
                "depth": -1,
                "id": -1,
                "order": -1
            }
        ],
        "mainTraceNodeCount": 4,
        "parentIdMap": {
            "0": -1,
            "1": 0,
            "2": 0,
            "3": 0
        },
        "tidyTrace": [
            {
                "children": [
                    {
                        "children": [
                            {
                                "children": [],
                                "depth": 1,
                                "id": 2,
                                "order": 2
                            },
                            {
                                "children": [],
                                "depth": 1,
                                "id": 3,
                                "order": 3
                            }
                        ],
                        "depth": 0,
                        "id": 0,
                        "order": 0
                    }
                ],
                "depth": -1,
                "id": -1,
                "order": -1
            }
        ],
        "tidyTraceNodeCount": 3
    },
    "state_change": {
        "stateChanges": [
            {
                "address": "0x54b743d6055e3bbbf13eb2c748a3783516156e5b",
                "erc": "ERC-1155",
                "slots": [
                    {
                        "current": "0x0000000000000000000000000000000000000000000000000000000000000001",
                        "key": "0x8c4cdf10e953f20d1db9633be50f58c0fbb68330da4ba5525fe740471f38f4ee",
                        "prev": "0x0000000000000000000000000000000000000000000000000000000000000000"
                    },
                    {
                        "current": "0x0000000000000000000000000000000000000000000000000000000000000139",
                        "key": "0x53e745d3a0288b4f074f91b5108d1f15cdc75852e87354269951b8a0b76f9808",
                        "prev": "0x0000000000000000000000000000000000000000000000000000000000000138"
                    },
                    {
                        "current": "0x0000000000000000000000000000000000000000000000000000000000000001",
                        "key": "0xe9350a378ac0171b3e5fbcbaba76e79ece9ba24f5529ee341810fe06b0f370bf",
                        "prev": "0x0000000000000000000000000000000000000000000000000000000000000000"
                    }
                ],
                "storageVariables": [
                    {
                        "name": "tokens",
                        "type": "mapping(uint256 => struct InfinityKeysAchievement.Token)",
                        "value": {
                            "pairs": [
                                {
                                    "key": "34",
                                    "value": {
                                        "fields": [
                                            {
                                                "name": "tokenURI",
                                                "type": "string",
                                                "value": {
                                                    "current": "https://www.infinitykeys.io/api/metadata/achievement?tokenid=34",
                                                    "prev": "https://www.infinitykeys.io/api/metadata/achievement?tokenid=34",
                                                    "typeTag": 1
                                                }
                                            },
                                            {
                                                "name": "claimed",
                                                "type": "mapping(address => bool)",
                                                "value": {
                                                    "pairs": [
                                                        {
                                                            "key": "0x0735d535f2009602a8a1c5b8fbd0454c3ca1b2b0",
                                                            "value": {
                                                                "current": "true",
                                                                "prev": "false",
                                                                "typeTag": 1
                                                            }
                                                        }
                                                    ],
                                                    "typeTag": 4
                                                }
                                            }
                                        ],
                                        "typeTag": 3
                                    }
                                }
                            ],
                            "typeTag": 4
                        }
                    },
                    {
                        "name": "_totalSupply",
                        "type": "mapping(uint256 => uint256)",
                        "value": {
                            "pairs": [
                                {
                                    "key": "34",
                                    "value": {
                                        "current": "313",
                                        "prev": "312",
                                        "typeTag": 1
                                    }
                                }
                            ],
                            "typeTag": 4
                        }
                    },
                    {
                        "name": "_balances",
                        "type": "mapping(uint256 => mapping(address => uint256))",
                        "value": {
                            "pairs": [
                                {
                                    "key": "34",
                                    "value": {
                                        "pairs": [
                                            {
                                                "key": "0x0735d535f2009602a8a1c5b8fbd0454c3ca1b2b0",
                                                "value": {
                                                    "current": "1",
                                                    "prev": "0",
                                                    "typeTag": 1
                                                }
                                            }
                                        ],
                                        "typeTag": 4
                                    }
                                }
                            ],
                            "typeTag": 4
                        }
                    }
                ]
            }
        ]
    }
}