{
    "balance_change": {
        "balanceChanges": [
            {
                "account": "0xa579371b8adfb387241e5e49bbc9b5903a74befa",
                "assets": [
                    {
                        "address": "0x744d70fdbe2ba4cf95131626614a1763df805b9e",
                        "amount": "7,425.54478278",
                        "iconUrl": "https://assets.blocksec.com/icon/122cbce3f18317d2e72ada02bb0ad90b741b42246dc91c7b27b8eb5443557bd4.png",
                        "isERC1155": false,
                        "isERC721": false,
                        "sign": false,
                        "value": ""
                    }
                ]
            },
            {
                "account": "0x2b5634c42055806a59e9107ed44d43c426e58258",
                "assets": [
                    {
                        "address": "0x744d70fdbe2ba4cf95131626614a1763df805b9e",
                        "amount": "7,425.54478278",
                        "iconUrl": "https://assets.blocksec.com/icon/122cbce3f18317d2e72ada02bb0ad90b741b42246dc91c7b27b8eb5443557bd4.png",
                        "isERC1155": false,
                        "isERC721": false,
                        "sign": true,
                        "value": ""
                    }
                ]
            }
        ]
    },
    "profile": {
        "basic_info": {
            "baseFee": "",
            "blockNumber": 5525554,
            "callData": "0xa9059cbb0000000000000000000000002b5634c42055806a59e9107ed44d43c426e582580000000000000000000000000000000000000000000001928a2285b74d0a5800",
            "debugEnable": true,
            "errorInfo": "",
            "eventCount": 1,
            "feeRecipient": "0x4a071eee72bc8664c81b62836932ed0d246da82b",
            "formatValue": "0",
            "gasLimit": 105957,
            "gasPrice": "3.34375",
            "gasUsed": 70638,
            "intTxnCount": 1,
            "internalRevert": false,
            "internalRevertMessage": "",
            "isContractCreation": false,
            "isFlashloan": false,
            "maxFee": "",
            "nonce": 46,
            "overwritedBlockNumber": -1,
            "priorityFee": "",
            "receiver": "0x744d70fdbe2ba4cf95131626614a1763df805b9e",
            "revertMessage": "",
            "sender": "0xa579371b8adfb387241e5e49bbc9b5903a74befa",
            "simulationEnable": true,
            "sourceTxnHash": "0xe00dcf3c85ddf2eae758207961a89869ceca6ffc50caf2d6a6ed5a5eff5be9b6",
            "status": true,
            "timestamp": "2018-04-29T09:07:16Z",
            "transactionFee": "0.0002361958125",
            "txnHash": "0xe00dcf3c85ddf2eae758207961a89869ceca6ffc50caf2d6a6ed5a5eff5be9b6",
            "txnIndex": 111,
            "type": 0,
            "value": "0"
        },
        "fund_flow": [
            {
                "amount": "7,425.54478278",
                "from": "0xa579371b8adfb387241e5e49bbc9b5903a74befa",
                "id": 1,
                "isERC1155": false,
                "isERC721": false,
                "isReverted": false,
                "order": 1,
                "to": "0x2b5634c42055806a59e9107ed44d43c426e58258",
                "token": "0x744d70fdbe2ba4cf95131626614a1763df805b9e"
            }
        ],
        "token_infos": [
            {
                "address": "0x744d70fdbe2ba4cf95131626614a1763df805b9e",
                "decimals": 18
            },
            {
                "address": "0xc02aaa39b223fe8d0a0e5c4f27ead9083c756cc2",
                "decimals": 18
            },
            {
                "address": "0xeeeeeeeeeeeeeeeeeeeeeeeeeeeeeeeeeeeeeeee",
                "decimals": 18
            }
        ]
    },
    "address_label": {
        "labels": [
            {
                "address": "0xeeeeeeeeeeeeeeeeeeeeeeeeeeeeeeeeeeeeeeee",
                "label": "Ether"
            },
            {
                "address": "0x52ae2b53c847327f95a5084a7c38c0adb12fd302",
                "label": "SNTPlaceHolder"
            },
            {
                "address": "0xa579371b8adfb387241e5e49bbc9b5903a74befa",
                "label": "KUCOIN"
            },
            {
                "address": "0x0000000000000000000000000000000000000002",
                "label": "Precompiled"
            },
            {
                "address": "0x0000000000000000000000000000000000000004",
                "label": "Precompiled"
            },
            {
                "address": "0x744d70fdbe2ba4cf95131626614a1763df805b9e",
                "label": "Status Network: SNT Token"
            },
            {
                "address": "0x2b5634c42055806a59e9107ed44d43c426e58258",
                "label": "KuCoin"
            },
            {
                "address": "0x0000000000000000000000000000000000000001",
                "label": "Precompiled"
            },
            {
                "address": "0x0000000000000000000000000000000000000003",
                "label": "Precompiled"
            }
        ]
    },
    "trace": {
        "accountLabels": null,
        "dataMap": {
            "-1": {
                "invocation": {
                    "address": "0xa579371b8adfb387241e5e49bbc9b5903a74befa",
                    "callData": "",
                    "decodedMethod": null,
                    "errorInfo": "",
                    "fromAddress": "",
                    "gasUsed": 0,
                    "id": -1,
                    "methodDecoded": false,
                    "operation": "",
                    "output": "",
                    "revert": false,
                    "revertMessage": "",
                    "selector": "",
                    "status": false,
                    "value": ""
                },
                "nodeType": 0
            },
            "0": {
                "invocation": {
                    "address": "0x744d70fdbe2ba4cf95131626614a1763df805b9e",
                    "callData": "0x0000000000000000000000002b5634c42055806a59e9107ed44d43c426e582580000000000000000000000000000000000000000000001928a2285b74d0a5800",
                    "decodedMethod": {
                        "callParams": [
                            {
                                "name": "_to",
                                "type": "address",
                                "value": "0x2b5634c42055806a59e9107ed44d43c426e58258"
                            },
                            {
                                "decimalAvailable": true,
                                "name": "_amount",
                                "type": "uint256",
                                "value": "7,425,544,782,780,000,000,000"
                            }
                        ],
                        "constructorArguments": "",
                        "name": "transfer",
                        "returnParams": [
                            {
                                "name": "success",
                                "type": "bool",
                                "value": true
                            }
                        ],
                        "signature": "transfer(address,uint256)"
                    },
                    "errorInfo": "",
                    "fromAddress": "0xa579371b8adfb387241e5e49bbc9b5903a74befa",
                    "gasUsed": 70638,
                    "id": 0,
                    "methodDecoded": true,
                    "operation": "CALL",
                    "output": "0x0000000000000000000000000000000000000000000000000000000000000001",
                    "revert": false,
                    "revertMessage": "",
                    "selector": "0xa9059cbb",
                    "status": true,
                    "value": "0"
                },
                "nodeType": 0
            },
            "1": {
                "invocation": {
                    "address": "0x52ae2b53c847327f95a5084a7c38c0adb12fd302",
                    "callData": "0x000000000000000000000000a579371b8adfb387241e5e49bbc9b5903a74befa0000000000000000000000002b5634c42055806a59e9107ed44d43c426e582580000000000000000000000000000000000000000000001928a2285b74d0a5800",
                    "decodedMethod": {
                        "callParams": [
                            {
                                "name": "_from",
                                "type": "address",
                                "value": "0xa579371b8adfb387241e5e49bbc9b5903a74befa"
                            },
                            {
                                "name": "",
                                "type": "address",
                                "value": "0x2b5634c42055806a59e9107ed44d43c426e58258"
                            },
                            {
                                "name": "",
                                "type": "uint256",
                                "value": "7,425,544,782,780,000,000,000"
                            }
                        ],
                        "constructorArguments": "",
                        "name": "onTransfer",
                        "returnParams": [
                            {
                                "name": "",
                                "type": "bool",
                                "value": true
                            }
                        ],
                        "signature": "onTransfer(address,address,uint256)"
                    },
                    "errorInfo": "",
                    "fromAddress": "0x744d70fdbe2ba4cf95131626614a1763df805b9e",
                    "gasUsed": 869,
                    "id": 1,
                    "methodDecoded": true,
                    "operation": "CALL",
                    "output": "0x0000000000000000000000000000000000000000000000000000000000000001",
                    "revert": false,
                    "revertMessage": "",
                    "selector": "0x4a393149",
                    "status": true,
                    "value": "0"
                },
                "nodeType": 0
            },
            "2": {
                "event": {
                    "contract": "0x744d70fdbe2ba4cf95131626614a1763df805b9e",
                    "decodedLog": {
                        "name": "Transfer",
                        "params": [
                            {
                                "name": "_from",
                                "type": "address",
                                "value": "0xa579371b8adfb387241e5e49bbc9b5903a74befa"
                            },
                            {
                                "name": "_to",
                                "type": "address",
                                "value": "0x2b5634c42055806a59e9107ed44d43c426e58258"
                            },
                            {
                                "decimalAvailable": true,
                                "name": "_amount",
                                "type": "uint256",
                                "value": "7,425,544,782,780,000,000,000"
                            }
                        ],
                        "signature": "Transfer(address,address,uint256)"
                    },
                    "id": 2,
                    "logData": "0x0000000000000000000000000000000000000000000001928a2285b74d0a5800",
                    "logDecoded": true,
                    "operation": "EVENT",
                    "revert": false,
                    "status": true,
                    "topics": [
                        "0xddf252ad1be2c89b69c2b068fc378daa952ba7f163c4a11628f55a4df523b3ef",
                        "0x000000000000000000000000a579371b8adfb387241e5e49bbc9b5903a74befa",
                        "0x0000000000000000000000002b5634c42055806a59e9107ed44d43c426e58258"
                    ]
                },
                "nodeType": 1
            }
        },
        "gasFlame": [
            {
                "children": [
                    {
                        "children": [
                            {
                                "children": [],
                                "depth": 0,
                                "name": "Initial Gas",
                                "value": 23384
                            },
                            {
                                "children": [
                                    {
                                        "children": [],
                                        "depth": 1,
                                        "name": "onTransfer",
                                        "value": 869
                                    }
                                ],
                                "depth": 0,
                                "name": "Executed Gas",
                                "value": 47254
                            }
                        ],
                        "depth": -1,
                        "name": "Actual Gas Used",
                        "value": 70638
                    },
                    {
                        "children": [],
                        "depth": -1,
                        "name": "Refunded Gas",
                        "value": 0
                    }
                ],
                "depth": -2,
                "name": "Total Gas",
                "value": 70638
            }
        ],
        "isConfirmed": true,
        "mainTrace": [
            {
                "children": [
                    {
                        "children": [
                            {
                                "children": [],
                                "depth": 1,
                                "id": 1,
                                "order": 1
                            },
                            {
                                "children": [],
                                "depth": 1,
                                "id": 2,
                                "order": 2
                            }
                        ],
                        "depth": 0,
                        "id": 0,
                        "order": 0
                    }
                ],
                "depth": -1,
                "id": -1,
                "order": -1
            }
        ],
        "mainTraceNodeCount": 3,
        "parentIdMap": {
            "0": -1,
            "1": 0,
            "2": 0
        },
        "tidyTrace": [
            {
                "children": [
                    {
                        "children": [
                            {
                                "children": [],
                                "depth": 1,
                                "id": 1,
                                "order": 1
                            },
                            {
                                "children": [],
                                "depth": 1,
                                "id": 2,
                                "order": 2
                            }
                        ],
                        "depth": 0,
                        "id": 0,
                        "order": 0
                    }
                ],
                "depth": -1,
                "id": -1,
                "order": -1
            }
        ],
        "tidyTraceNodeCount": 3
    },
    "state_change": {
        "stateChanges": [
            {
                "address": "0x744d70fdbe2ba4cf95131626614a1763df805b9e",
                "erc": "ERC-20",
                "slots": [
                    {
                        "current": "0x000000000000000000000000000000000000000000000000000000000000000f",
                        "key": "0x7c86dad401e2f1e36d635054bfeae475bdceac2ecb3c696673a282849833a1c4",
                        "prev": "0x000000000000000000000000000000000000000000000000000000000000000e"
                    },
                    {
                        "current": "0x0000000000000000000000000000000000000000000000000000000000545032",
                        "key": "0xd0fc6db80d987ae7feb36127a8c05db1bbe9cee51d26b4b1c91b8e625e844b4b",
                        "prev": "0x0000000000000000000000000000000000000000000000000000000000000000"
                    },
                    {
                        "current": "0x000000000000f98ec3b8cfb01e6cce8e00000000000000000000000000545032",
                        "key": "0xffe7592991188f6b15f730c0e355275064e5691fbff34dd8d27f1f1205ac2a1e",
                        "prev": "0x000000000000f7fc399649f8d162768e00000000000000000000000000545032"
                    }
                ],
                "storageVariables": []
            }
        ]
    }
}