{
    "balance_change": {
        "balanceChanges": []
    },
    "profile": {
        "basic_info": {
            "baseFee": "",
            "blockNumber": 4716953,
            "callData": "0x3d7d3f5a00000000000000000000000000000000000000000000000000000000000329d7000000000000000000000000000000000000000000000000008e1bc9bf04000000000000000000000000000000000000000000000000000000470de4df8200000000000000000000000000000000000000000000000000000000000000015180",
            "debugEnable": true,
            "errorInfo": "",
            "eventCount": 2,
            "feeRecipient": "0x52bc44d5378309ee2abf1539bf71de1b7d7be3b5",
            "formatValue": "0",
            "gasLimit": 235411,
            "gasPrice": "25",
            "gasUsed": 140276,
            "intTxnCount": 2,
            "internalRevert": false,
            "internalRevertMessage": "",
            "isContractCreation": false,
            "isFlashloan": false,
            "maxFee": "",
            "nonce": 44,
            "overwritedBlockNumber": -1,
            "priorityFee": "",
            "receiver": "0x06012c8cf97bead5deae237070f9587f8e7a266d",
            "revertMessage": "",
            "sender": "0xa60c88962e24b2f43a87744dfc761caf9c1e7cab",
            "simulationEnable": true,
            "sourceTxnHash": "0xe01052576eada5c2c721fd5bd03ff8884845cd83803d574a8b2bcc54738220f5",
            "status": true,
            "timestamp": "2017-12-12T00:34:59Z",
            "transactionFee": "0.0035069",
            "txnHash": "0xe01052576eada5c2c721fd5bd03ff8884845cd83803d574a8b2bcc54738220f5",
            "txnIndex": 83,
            "type": 0,
            "value": "0"
        },
        "fund_flow": [],
        "token_infos": [
            {
                "address": "0xc02aaa39b223fe8d0a0e5c4f27ead9083c756cc2",
                "decimals": 18
            },
            {
                "address": "0xeeeeeeeeeeeeeeeeeeeeeeeeeeeeeeeeeeeeeeee",
                "decimals": 18
            }
        ]
    },
    "address_label": {
        "labels": [
            {
                "address": "0x0000000000000000000000000000000000000004",
                "label": "Precompiled"
            },
            {
                "address": "0xeeeeeeeeeeeeeeeeeeeeeeeeeeeeeeeeeeeeeeee",
                "label": "Ether"
            },
            {
                "address": "0x06012c8cf97bead5deae237070f9587f8e7a266d",
                "label": "CryptoKitties: Core"
            },
            {
                "address": "0xb1690c08e213a35ed9bab7b318de14420fb57d8c",
                "label": "SaleClockAuction"
            },
            {
                "address": "0x0000000000000000000000000000000000000001",
                "label": "Precompiled"
            },
            {
                "address": "0x0000000000000000000000000000000000000002",
                "label": "Precompiled"
            },
            {
                "address": "0x0000000000000000000000000000000000000003",
                "label": "Precompiled"
            }
        ]
    },
    "trace": {
        "accountLabels": null,
        "dataMap": {
            "-1": {
                "invocation": {
                    "address": "0xa60c88962e24b2f43a87744dfc761caf9c1e7cab",
                    "callData": "",
                    "decodedMethod": null,
                    "errorInfo": "",
                    "fromAddress": "",
                    "gasUsed": 0,
                    "id": -1,
                    "methodDecoded": false,
                    "operation": "",
                    "output": "",
                    "revert": false,
                    "revertMessage": "",
                    "selector": "",
                    "status": false,
                    "value": ""
                },
                "nodeType": 0
            },
            "0": {
                "invocation": {
                    "address": "0x06012c8cf97bead5deae237070f9587f8e7a266d",
                    "callData": "0x00000000000000000000000000000000000000000000000000000000000329d7000000000000000000000000000000000000000000000000008e1bc9bf04000000000000000000000000000000000000000000000000000000470de4df8200000000000000000000000000000000000000000000000000000000000000015180",
                    "decodedMethod": {
                        "callParams": [
                            {
                                "name": "_kittyId",
                                "type": "uint256",
                                "value": "207,319"
                            },
                            {
                                "name": "_startingPrice",
                                "type": "uint256",
                                "value": "40,000,000,000,000,000"
                            },
                            {
                                "name": "_endingPrice",
                                "type": "uint256",
                                "value": "20,000,000,000,000,000"
                            },
                            {
                                "name": "_duration",
                                "type": "uint256",
                                "value": "86,400"
                            }
                        ],
                        "constructorArguments": "",
                        "name": "createSaleAuction",
                        "returnParams": [],
                        "signature": "createSaleAuction(uint256,uint256,uint256,uint256)"
                    },
                    "errorInfo": "",
                    "fromAddress": "0xa60c88962e24b2f43a87744dfc761caf9c1e7cab",
                    "gasUsed": 140276,
                    "id": 0,
                    "methodDecoded": true,
                    "operation": "CALL",
                    "output": "",
                    "revert": false,
                    "revertMessage": "",
                    "selector": "0x3d7d3f5a",
                    "status": true,
                    "value": "0"
                },
                "nodeType": 0
            },
            "1": {
                "invocation": {
                    "address": "0xb1690c08e213a35ed9bab7b318de14420fb57d8c",
                    "callData": "0x00000000000000000000000000000000000000000000000000000000000329d7000000000000000000000000000000000000000000000000008e1bc9bf04000000000000000000000000000000000000000000000000000000470de4df8200000000000000000000000000000000000000000000000000000000000000015180000000000000000000000000a60c88962e24b2f43a87744dfc761caf9c1e7cab",
                    "decodedMethod": {
                        "callParams": [
                            {
                                "name": "_tokenId",
                                "type": "uint256",
                                "value": "207,319"
                            },
                            {
                                "name": "_startingPrice",
                                "type": "uint256",
                                "value": "40,000,000,000,000,000"
                            },
                            {
                                "name": "_endingPrice",
                                "type": "uint256",
                                "value": "20,000,000,000,000,000"
                            },
                            {
                                "name": "_duration",
                                "type": "uint256",
                                "value": "86,400"
                            },
                            {
                                "name": "_seller",
                                "type": "address",
                                "value": "0xa60c88962e24b2f43a87744dfc761caf9c1e7cab"
                            }
                        ],
                        "constructorArguments": "",
                        "name": "createAuction",
                        "returnParams": [],
                        "signature": "createAuction(uint256,uint256,uint256,uint256,address)"
                    },
                    "errorInfo": "",
                    "fromAddress": "0x06012c8cf97bead5deae237070f9587f8e7a266d",
                    "gasUsed": 107646,
                    "id": 1,
                    "methodDecoded": true,
                    "operation": "CALL",
                    "output": "",
                    "revert": false,
                    "revertMessage": "",
                    "selector": "0x27ebe40a",
                    "status": true,
                    "value": "0"
                },
                "nodeType": 0
            },
            "2": {
                "invocation": {
                    "address": "0x06012c8cf97bead5deae237070f9587f8e7a266d",
                    "callData": "0x000000000000000000000000a60c88962e24b2f43a87744dfc761caf9c1e7cab000000000000000000000000b1690c08e213a35ed9bab7b318de14420fb57d8c00000000000000000000000000000000000000000000000000000000000329d7",
                    "decodedMethod": {
                        "callParams": [
                            {
                                "name": "_from",
                                "type": "address",
                                "value": "0xa60c88962e24b2f43a87744dfc761caf9c1e7cab"
                            },
                            {
                                "name": "_to",
                                "type": "address",
                                "value": "0xb1690c08e213a35ed9bab7b318de14420fb57d8c"
                            },
                            {
                                "decimalAvailable": true,
                                "name": "_tokenId",
                                "type": "uint256",
                                "value": "207,319"
                            }
                        ],
                        "constructorArguments": "",
                        "name": "transferFrom",
                        "returnParams": [],
                        "signature": "transferFrom(address,address,uint256)"
                    },
                    "errorInfo": "",
                    "fromAddress": "0xb1690c08e213a35ed9bab7b318de14420fb57d8c",
                    "gasUsed": 30507,
                    "id": 2,
                    "methodDecoded": true,
                    "operation": "CALL",
                    "output": "",
                    "revert": false,
                    "revertMessage": "",
                    "selector": "0x23b872dd",
                    "status": true,
                    "value": "0"
                },
                "nodeType": 0
            },
            "3": {
                "event": {
                    "contract": "0x06012c8cf97bead5deae237070f9587f8e7a266d",
                    "decodedLog": {
                        "name": "Transfer",
                        "params": [
                            {
                                "name": "from",
                                "type": "address",
                                "value": "0xa60c88962e24b2f43a87744dfc761caf9c1e7cab"
                            },
                            {
                                "name": "to",
                                "type": "address",
                                "value": "0xb1690c08e213a35ed9bab7b318de14420fb57d8c"
                            },
                            {
                                "decimalAvailable": true,
                                "name": "tokenId",
                                "type": "uint256",
                                "value": "207,319"
                            }
                        ],
                        "signature": "Transfer(address,address,uint256)"
                    },
                    "id": 3,
                    "logData": "0x000000000000000000000000a60c88962e24b2f43a87744dfc761caf9c1e7cab000000000000000000000000b1690c08e213a35ed9bab7b318de14420fb57d8c00000000000000000000000000000000000000000000000000000000000329d7",
                    "logDecoded": true,
                    "operation": "EVENT",
                    "revert": false,
                    "status": true,
                    "topics": [
                        "0xddf252ad1be2c89b69c2b068fc378daa952ba7f163c4a11628f55a4df523b3ef"
                    ]
                },
                "nodeType": 1
            },
            "4": {
                "event": {
                    "contract": "0xb1690c08e213a35ed9bab7b318de14420fb57d8c",
                    "decodedLog": {
                        "name": "AuctionCreated",
                        "params": [
                            {
                                "name": "tokenId",
                                "type": "uint256",
                                "value": "207,319"
                            },
                            {
                                "name": "startingPrice",
                                "type": "uint256",
                                "value": "40,000,000,000,000,000"
                            },
                            {
                                "name": "endingPrice",
                                "type": "uint256",
                                "value": "20,000,000,000,000,000"
                            },
                            {
                                "name": "duration",
                                "type": "uint256",
                                "value": "86,400"
                            }
                        ],
                        "signature": "AuctionCreated(uint256,uint256,uint256,uint256)"
                    },
                    "id": 4,
                    "logData": "0x00000000000000000000000000000000000000000000000000000000000329d7000000000000000000000000000000000000000000000000008e1bc9bf04000000000000000000000000000000000000000000000000000000470de4df8200000000000000000000000000000000000000000000000000000000000000015180",
                    "logDecoded": true,
                    "operation": "EVENT",
                    "revert": false,
                    "status": true,
                    "topics": [
                        "0xa9c8dfcda5664a5a124c713e386da27de87432d5b668e79458501eb296389ba7"
                    ]
                },
                "nodeType": 1
            }
        },
        "gasFlame": [
            {
                "children": [
                    {
                        "children": [
                            {
                                "children": [],
                                "depth": 0,
                                "name": "Initial Gas",
                                "value": 22808
                            },
                            {
                                "children": [
                                    {
                                        "children": [
                                            {
                                                "children": [],
                                                "depth": 2,
                                                "name": "transferFrom",
                                                "value": 30507
                                            }
                                        ],
                                        "depth": 1,
                                        "name": "createAuction",
                                        "value": 107646
                                    }
                                ],
                                "depth": 0,
                                "name": "Executed Gas",
                                "value": 132468
                            }
                        ],
                        "depth": -1,
                        "name": "Actual Gas Used",
                        "value": 140276
                    },
                    {
                        "children": [],
                        "depth": -1,
                        "name": "Refunded Gas",
                        "value": 15000
                    }
                ],
                "depth": -2,
                "name": "Total Gas",
                "value": 155276
            }
        ],
        "isConfirmed": true,
        "mainTrace": [
            {
                "children": [
                    {
                        "children": [
                            {
                                "children": [
                                    {
                                        "children": [
                                            {
                                                "children": [],
                                                "depth": 3,
                                                "id": 3,
                                                "order": 3
                                            }
                                        ],
                                        "depth": 2,
                                        "id": 2,
                                        "order": 2
                                    },
                                    {
                                        "children": [],
                                        "depth": 2,
                                        "id": 4,
                                        "order": 4
                                    }
                                ],
                                "depth": 1,
                                "id": 1,
                                "order": 1
                            }
                        ],
                        "depth": 0,
                        "id": 0,
                        "order": 0
                    }
                ],
                "depth": -1,
                "id": -1,
                "order": -1
            }
        ],
        "mainTraceNodeCount": 5,
        "parentIdMap": {
            "0": -1,
            "1": 0,
            "2": 1,
            "3": 2,
            "4": 1
        },
        "tidyTrace": [
            {
                "children": [
                    {
                        "children": [
                            {
                                "children": [
                                    {
                                        "children": [
                                            {
                                                "children": [],
                                                "depth": 3,
                                                "id": 3,
                                                "order": 3
                                            }
                                        ],
                                        "depth": 2,
                                        "id": 2,
                                        "order": 2
                                    },
                                    {
                                        "children": [],
                                        "depth": 2,
                                        "id": 4,
                                        "order": 4
                                    }
                                ],
                                "depth": 1,
                                "id": 1,
                                "order": 1
                            }
                        ],
                        "depth": 0,
                        "id": 0,
                        "order": 0
                    }
                ],
                "depth": -1,
                "id": -1,
                "order": -1
            }
        ],
        "tidyTraceNodeCount": 5
    },
    "state_change": {
        "stateChanges": [
            {
                "address": "0x06012c8cf97bead5deae237070f9587f8e7a266d",
                "erc": "",
                "slots": [
                    {
                        "current": "0x000000000000000000000000000000000000000000000000000000000000e2f8",
                        "key": "0xc56c286245a85e4048e082d091c57ede29ec05df707b458fe836e199193ff182",
                        "prev": "0x000000000000000000000000000000000000000000000000000000000000e2f7"
                    },
                    {
                        "current": "0x000000000000000000000000b1690c08e213a35ed9bab7b318de14420fb57d8c",
                        "key": "0x9d59003cd7efe8280b18071cbdf55a9854dcfb6a77e30818d75833538f928fb1",
                        "prev": "0x000000000000000000000000a60c88962e24b2f43a87744dfc761caf9c1e7cab"
                    },
                    {
                        "current": "0x0000000000000000000000000000000000000000000000000000000000000002",
                        "key": "0xee35e01ddbd4f0682aa8162a2ed137d090cd401e74c275903e1396e8899b572f",
                        "prev": "0x0000000000000000000000000000000000000000000000000000000000000003"
                    }
                ],
                "storageVariables": [
                    {
                        "name": "kittyIndexToOwner",
                        "type": "mapping(uint256 => address)",
                        "value": {
                            "pairs": [
                                {
                                    "key": "207319",
                                    "value": {
                                        "current": "0xb1690c08e213a35ed9bab7b318de14420fb57d8c",
                                        "prev": "0xa60c88962e24b2f43a87744dfc761caf9c1e7cab",
                                        "typeTag": 1
                                    }
                                }
                            ],
                            "typeTag": 4
                        }
                    },
                    {
                        "name": "ownershipTokenCount",
                        "type": "mapping(address => uint256)",
                        "value": {
                            "pairs": [
                                {
                                    "key": "0xa60c88962e24b2f43a87744dfc761caf9c1e7cab",
                                    "value": {
                                        "current": "2",
                                        "prev": "3",
                                        "typeTag": 1
                                    }
                                },
                                {
                                    "key": "0xb1690c08e213a35ed9bab7b318de14420fb57d8c",
                                    "value": {
                                        "current": "58104",
                                        "prev": "58103",
                                        "typeTag": 1
                                    }
                                }
                            ],
                            "typeTag": 4
                        }
                    }
                ]
            },
            {
                "address": "0xb1690c08e213a35ed9bab7b318de14420fb57d8c",
                "erc": "",
                "slots": [
                    {
                        "current": "0x000000000000000000000000a60c88962e24b2f43a87744dfc761caf9c1e7cab",
                        "key": "0xfe081621400f57fec565ebb98cbbb4f0a5d385605667e9bcfd36021820a840d6",
                        "prev": "0x0000000000000000000000000000000000000000000000000000000000000000"
                    },
                    {
                        "current": "0x000000000000000000470de4df8200000000000000000000008e1bc9bf040000",
                        "key": "0xfe081621400f57fec565ebb98cbbb4f0a5d385605667e9bcfd36021820a840d7",
                        "prev": "0x0000000000000000000000000000000000000000000000000000000000000000"
                    },
                    {
                        "current": "0x00000000000000000000000000000000000000005a2f24330000000000015180",
                        "key": "0xfe081621400f57fec565ebb98cbbb4f0a5d385605667e9bcfd36021820a840d8",
                        "prev": "0x0000000000000000000000000000000000000000000000000000000000000000"
                    }
                ],
                "storageVariables": [
                    {
                        "name": "tokenIdToAuction",
                        "type": "mapping(uint256 => struct ClockAuctionBase.Auction)",
                        "value": {
                            "pairs": [
                                {
                                    "key": "207319",
                                    "value": {
                                        "fields": [
                                            {
                                                "name": "seller",
                                                "type": "address",
                                                "value": {
                                                    "current": "0xa60c88962e24b2f43a87744dfc761caf9c1e7cab",
                                                    "prev": "0x0000000000000000000000000000000000000000",
                                                    "typeTag": 1
                                                }
                                            },
                                            {
                                                "name": "startingPrice",
                                                "type": "uint128",
                                                "value": {
                                                    "current": "40000000000000000",
                                                    "prev": "0",
                                                    "typeTag": 1
                                                }
                                            },
                                            {
                                                "name": "endingPrice",
                                                "type": "uint128",
                                                "value": {
                                                    "current": "20000000000000000",
                                                    "prev": "0",
                                                    "typeTag": 1
                                                }
                                            },
                                            {
                                                "name": "duration",
                                                "type": "uint64",
                                                "value": {
                                                    "current": "86400",
                                                    "prev": "0",
                                                    "typeTag": 1
                                                }
                                            },
                                            {
                                                "name": "startedAt",
                                                "type": "uint64",
                                                "value": {
                                                    "current": "1513038899",
                                                    "prev": "0",
                                                    "typeTag": 1
                                                }
                                            }
                                        ],
                                        "typeTag": 3
                                    }
                                }
                            ],
                            "typeTag": 4
                        }
                    }
                ]
            }
        ]
    }
}