{
    "balance_change": {
        "balanceChanges": [
            {
                "account": "0x73064f6c1c5dad8d917782aec16ab564feb3c011",
                "assets": [
                    {
                        "address": "0xb3999f658c0391d94a37f7ff328f3fec942bcadc",
                        "amount": "114.496332736725188608",
                        "iconUrl": "https://assets.blocksec.com/icon/ef3c244191edd2c79c19b644d0e4ab9f6da4162742cbec7293336337f5e4034d.png",
                        "isERC1155": false,
                        "isERC721": false,
                        "sign": false,
                        "value": "90.0055671354700024"
                    }
                ]
            },
            {
                "account": "0x15725391a37a5ffeb04f79cf25da8460a3f068f6",
                "assets": [
                    {
                        "address": "0xb3999f658c0391d94a37f7ff328f3fec942bcadc",
                        "amount": "114.496332736725188608",
                        "iconUrl": "https://assets.blocksec.com/icon/ef3c244191edd2c79c19b644d0e4ab9f6da4162742cbec7293336337f5e4034d.png",
                        "isERC1155": false,
                        "isERC721": false,
                        "sign": true,
                        "value": "90.0055671354700024"
                    }
                ]
            }
        ]
    },
    "profile": {
        "basic_info": {
            "baseFee": "14.596234326",
            "blockNumber": 16854829,
            "callData": "0x3072133a00000000000000000000000000000000000000000000000634f4afff196f000000000000000000000000000000000000000000000000000000000000000005b4",
            "debugEnable": true,
            "errorInfo": "",
            "eventCount": 3,
            "feeRecipient": "0x5f927395213ee6b95de97bddcb1b2b1c0f16844f",
            "formatValue": "0",
            "gasLimit": 76124,
            "gasPrice": "14.696234326",
            "gasUsed": 71324,
            "intTxnCount": 1,
            "internalRevert": false,
            "internalRevertMessage": "",
            "isContractCreation": false,
            "isFlashloan": false,
            "maxFee": "20.061428504",
            "nonce": 891,
            "overwritedBlockNumber": -1,
            "priorityFee": "0.1",
            "receiver": "0x15725391a37a5ffeb04f79cf25da8460a3f068f6",
            "revertMessage": "",
            "sender": "0x73064f6c1c5dad8d917782aec16ab564feb3c011",
            "simulationEnable": true,
            "sourceTxnHash": "0xe0b3f15ae153c72e0c12603afa4d4fbc8056a3f777222dea911f86484cf65102",
            "status": true,
            "timestamp": "2023-03-18T13:06:23Z",
            "transactionFee": "0.001048194217067624",
            "txnHash": "0xe0b3f15ae153c72e0c12603afa4d4fbc8056a3f777222dea911f86484cf65102",
            "txnIndex": 105,
            "type": 2,
            "value": "0"
        },
        "fund_flow": [
            {
                "amount": "114.496332736725188608",
                "from": "0x73064f6c1c5dad8d917782aec16ab564feb3c011",
                "id": 1,
                "isERC1155": false,
                "isERC721": false,
                "isReverted": false,
                "order": 1,
                "to": "0x15725391a37a5ffeb04f79cf25da8460a3f068f6",
                "token": "0xb3999f658c0391d94a37f7ff328f3fec942bcadc"
            }
        ],
        "token_infos": [
            {
                "address": "0xb3999f658c0391d94a37f7ff328f3fec942bcadc",
                "decimals": 18
            },
            {
                "address": "0xc02aaa39b223fe8d0a0e5c4f27ead9083c756cc2",
                "decimals": 18
            },
            {
                "address": "0xeeeeeeeeeeeeeeeeeeeeeeeeeeeeeeeeeeeeeeee",
                "decimals": 18
            }
        ]
    },
    "address_label": {
        "labels": [
            {
                "address": "0xb3999f658c0391d94a37f7ff328f3fec942bcadc",
                "label": "Hashflow: HFT Token"
            },
            {
                "address": "0x0000000000000000000000000000000000000001",
                "label": "Precompiled"
            },
            {
                "address": "0x0000000000000000000000000000000000000002",
                "label": "Precompiled"
            },
            {
                "address": "0x0000000000000000000000000000000000000003",
                "label": "Precompiled"
            },
            {
                "address": "0x0000000000000000000000000000000000000004",
                "label": "Precompiled"
            },
            {
                "address": "0xeeeeeeeeeeeeeeeeeeeeeeeeeeeeeeeeeeeeeeee",
                "label": "Ether"
            },
            {
                "address": "0x15725391a37a5ffeb04f79cf25da8460a3f068f6",
                "label": "StakingVault"
            }
        ]
    },
    "trace": {
        "accountLabels": null,
        "dataMap": {
            "-1": {
                "invocation": {
                    "address": "0x73064f6c1c5dad8d917782aec16ab564feb3c011",
                    "callData": "",
                    "decodedMethod": null,
                    "errorInfo": "",
                    "fromAddress": "",
                    "gasUsed": 0,
                    "id": -1,
                    "methodDecoded": false,
                    "operation": "",
                    "output": "",
                    "revert": false,
                    "revertMessage": "",
                    "selector": "",
                    "status": false,
                    "value": ""
                },
                "nodeType": 0
            },
            "0": {
                "invocation": {
                    "address": "0x15725391a37a5ffeb04f79cf25da8460a3f068f6",
                    "callData": "0x00000000000000000000000000000000000000000000000634f4afff196f000000000000000000000000000000000000000000000000000000000000000005b4",
                    "decodedMethod": {
                        "callParams": [
                            {
                                "name": "amount",
                                "type": "uint128",
                                "value": "114,496,332,736,725,188,608"
                            },
                            {
                                "name": "daysToStake",
                                "type": "uint16",
                                "value": "1,460"
                            }
                        ],
                        "constructorArguments": "",
                        "name": "boostHFTStake",
                        "returnParams": [],
                        "signature": "boostHFTStake(uint128,uint16)"
                    },
                    "errorInfo": "",
                    "fromAddress": "0x73064f6c1c5dad8d917782aec16ab564feb3c011",
                    "gasUsed": 71324,
                    "id": 0,
                    "methodDecoded": true,
                    "operation": "CALL",
                    "output": "",
                    "revert": false,
                    "revertMessage": "",
                    "selector": "0x3072133a",
                    "status": true,
                    "value": "0"
                },
                "nodeType": 0
            },
            "1": {
                "event": {
                    "contract": "0x15725391a37a5ffeb04f79cf25da8460a3f068f6",
                    "decodedLog": {
                        "name": "StakeChanged",
                        "params": [
                            {
                                "name": "account",
                                "type": "address",
                                "value": "0x73064f6c1c5dad8d917782aec16ab564feb3c011"
                            },
                            {
                                "name": "amount",
                                "type": "uint128",
                                "value": "114,496,332,736,725,188,608"
                            },
                            {
                                "name": "lockExpiry",
                                "type": "uint64",
                                "value": "1,805,288,783"
                            }
                        ],
                        "signature": "StakeChanged(address,uint128,uint64)"
                    },
                    "id": 1,
                    "logData": "0x00000000000000000000000000000000000000000000000634f4afff196f0000000000000000000000000000000000000000000000000000000000006b9a854f",
                    "logDecoded": true,
                    "operation": "EVENT",
                    "revert": false,
                    "status": true,
                    "topics": [
                        "0xdbdb18caec8ad3ec704832308d0bd122427925c5d868b0433d7274abcb3dced9",
                        "0x00000000000000000000000073064f6c1c5dad8d917782aec16ab564feb3c011"
                    ]
                },
                "nodeType": 1
            },
            "2": {
                "event": {
                    "contract": "0x15725391a37a5ffeb04f79cf25da8460a3f068f6",
                    "decodedLog": {
                        "name": "BoostHFTStake",
                        "params": [
                            {
                                "name": "account",
                                "type": "address",
                                "value": "0x73064f6c1c5dad8d917782aec16ab564feb3c011"
                            },
                            {
                                "name": "amount",
                                "type": "uint128",
                                "value": "114,496,332,736,725,188,608"
                            },
                            {
                                "name": "daysStaked",
                                "type": "uint64",
                                "value": "1,460"
                            }
                        ],
                        "signature": "BoostHFTStake(address,uint128,uint64)"
                    },
                    "id": 2,
                    "logData": "0x00000000000000000000000000000000000000000000000634f4afff196f000000000000000000000000000000000000000000000000000000000000000005b4",
                    "logDecoded": true,
                    "operation": "EVENT",
                    "revert": false,
                    "status": true,
                    "topics": [
                        "0x86b3e0a1de6bacc903f2345288bc1d2c660fc307c42f9101090143f7efc8f664",
                        "0x00000000000000000000000073064f6c1c5dad8d917782aec16ab564feb3c011"
                    ]
                },
                "nodeType": 1
            },
            "3": {
                "invocation": {
                    "address": "0xb3999f658c0391d94a37f7ff328f3fec942bcadc",
                    "callData": "0x00000000000000000000000073064f6c1c5dad8d917782aec16ab564feb3c01100000000000000000000000015725391a37a5ffeb04f79cf25da8460a3f068f600000000000000000000000000000000000000000000000634f4afff196f0000",
                    "decodedMethod": {
                        "callParams": [
                            {
                                "name": "src",
                                "type": "address",
                                "value": "0x73064f6c1c5dad8d917782aec16ab564feb3c011"
                            },
                            {
                                "name": "dst",
                                "type": "address",
                                "value": "0x15725391a37a5ffeb04f79cf25da8460a3f068f6"
                            },
                            {
                                "decimalAvailable": true,
                                "name": "rawAmount",
                                "type": "uint256",
                                "value": "114,496,332,736,725,188,608"
                            }
                        ],
                        "constructorArguments": "",
                        "name": "transferFrom",
                        "returnParams": [
                            {
                                "name": "",
                                "type": "bool",
                                "value": true
                            }
                        ],
                        "signature": "transferFrom(address,address,uint256)"
                    },
                    "errorInfo": "",
                    "fromAddress": "0x15725391a37a5ffeb04f79cf25da8460a3f068f6",
                    "gasUsed": 20918,
                    "id": 3,
                    "methodDecoded": true,
                    "operation": "CALL",
                    "output": "0x0000000000000000000000000000000000000000000000000000000000000001",
                    "revert": false,
                    "revertMessage": "",
                    "selector": "0x23b872dd",
                    "status": true,
                    "value": "0"
                },
                "nodeType": 0
            },
            "4": {
                "event": {
                    "contract": "0xb3999f658c0391d94a37f7ff328f3fec942bcadc",
                    "decodedLog": {
                        "name": "Transfer",
                        "params": [
                            {
                                "name": "from",
                                "type": "address",
                                "value": "0x73064f6c1c5dad8d917782aec16ab564feb3c011"
                            },
                            {
                                "name": "to",
                                "type": "address",
                                "value": "0x15725391a37a5ffeb04f79cf25da8460a3f068f6"
                            },
                            {
                                "decimalAvailable": true,
                                "name": "amount",
                                "type": "uint256",
                                "value": "114,496,332,736,725,188,608"
                            }
                        ],
                        "signature": "Transfer(address,address,uint256)"
                    },
                    "id": 4,
                    "logData": "0x00000000000000000000000000000000000000000000000634f4afff196f0000",
                    "logDecoded": true,
                    "operation": "EVENT",
                    "revert": false,
                    "status": true,
                    "topics": [
                        "0xddf252ad1be2c89b69c2b068fc378daa952ba7f163c4a11628f55a4df523b3ef",
                        "0x00000000000000000000000073064f6c1c5dad8d917782aec16ab564feb3c011",
                        "0x00000000000000000000000015725391a37a5ffeb04f79cf25da8460a3f068f6"
                    ]
                },
                "nodeType": 1
            }
        },
        "gasFlame": [
            {
                "children": [
                    {
                        "children": [
                            {
                                "children": [],
                                "depth": 0,
                                "name": "Initial Gas",
                                "value": 21428
                            },
                            {
                                "children": [
                                    {
                                        "children": [],
                                        "depth": 1,
                                        "name": "transferFrom",
                                        "value": 20918
                                    }
                                ],
                                "depth": 0,
                                "name": "Executed Gas",
                                "value": 54696
                            }
                        ],
                        "depth": -1,
                        "name": "Actual Gas Used",
                        "value": 71324
                    },
                    {
                        "children": [],
                        "depth": -1,
                        "name": "Refunded Gas",
                        "value": 4800
                    }
                ],
                "depth": -2,
                "name": "Total Gas",
                "value": 76124
            }
        ],
        "isConfirmed": true,
        "mainTrace": [
            {
                "children": [
                    {
                        "children": [
                            {
                                "children": [],
                                "depth": 1,
                                "id": 1,
                                "order": 1
                            },
                            {
                                "children": [],
                                "depth": 1,
                                "id": 2,
                                "order": 2
                            },
                            {
                                "children": [
                                    {
                                        "children": [],
                                        "depth": 2,
                                        "id": 4,
                                        "order": 4
                                    }
                                ],
                                "depth": 1,
                                "id": 3,
                                "order": 3
                            }
                        ],
                        "depth": 0,
                        "id": 0,
                        "order": 0
                    }
                ],
                "depth": -1,
                "id": -1,
                "order": -1
            }
        ],
        "mainTraceNodeCount": 5,
        "parentIdMap": {
            "0": -1,
            "1": 0,
            "2": 0,
            "3": 0,
            "4": 3
        },
        "tidyTrace": [
            {
                "children": [
                    {
                        "children": [
                            {
                                "children": [],
                                "depth": 1,
                                "id": 1,
                                "order": 1
                            },
                            {
                                "children": [],
                                "depth": 1,
                                "id": 2,
                                "order": 2
                            },
                            {
                                "children": [
                                    {
                                        "children": [],
                                        "depth": 2,
                                        "id": 4,
                                        "order": 4
                                    }
                                ],
                                "depth": 1,
                                "id": 3,
                                "order": 3
                            }
                        ],
                        "depth": 0,
                        "id": 0,
                        "order": 0
                    }
                ],
                "depth": -1,
                "id": -1,
                "order": -1
            }
        ],
        "tidyTraceNodeCount": 5
    },
    "state_change": {
        "stateChanges": [
            {
                "address": "0x15725391a37a5ffeb04f79cf25da8460a3f068f6",
                "erc": "",
                "slots": [
                    {
                        "current": "0x0000000000000000000000006b9a854f000000000000000634f4afff196f0000",
                        "key": "0x25ccbb8878c5b8813931d1c16c9613f77ca150f4417a1d78846f057d5d3eb87f",
                        "prev": "0x0000000000000000000000000000000000000000000000000000000000000000"
                    }
                ],
                "storageVariables": [
                    {
                        "name": "stakes",
                        "type": "mapping(address => struct IStakingVault.Stake)",
                        "value": {
                            "pairs": [
                                {
                                    "key": "0x73064f6c1c5dad8d917782aec16ab564feb3c011",
                                    "value": {
                                        "fields": [
                                            {
                                                "name": "amount",
                                                "type": "uint128",
                                                "value": {
                                                    "current": "114496332736725188608",
                                                    "prev": "0",
                                                    "typeTag": 1
                                                }
                                            },
                                            {
                                                "name": "lockExpiry",
                                                "type": "uint64",
                                                "value": {
                                                    "current": "1805288783",
                                                    "prev": "0",
                                                    "typeTag": 1
                                                }
                                            }
                                        ],
                                        "typeTag": 3
                                    }
                                }
                            ],
                            "typeTag": 4
                        }
                    }
                ]
            },
            {
                "address": "0xb3999f658c0391d94a37f7ff328f3fec942bcadc",
                "erc": "ERC-20",
                "slots": [
                    {
                        "current": "0x00000000000000000000000000000000000000000004fc95f851790c39bab0f5",
                        "key": "0x98de39cfa714ad5a50b02bc150fd56b06693203f63595358e71ea052b81b733d",
                        "prev": "0x00000000000000000000000000000000000000000004fc8fc35cc90d204bb0f5"
                    },
                    {
                        "current": "0x0000000000000000000000000000000000000000000000000000000000000000",
                        "key": "0x51f4308cc91555f6ab18e6d37a5817b1ffedbe54dbb94720a88656b2d3b2ca02",
                        "prev": "0x00000000000000000000000000000000000000000000000634f4afff196f0000"
                    }
                ],
                "storageVariables": [
                    {
                        "name": "balances",
                        "type": "mapping(address => uint96)",
                        "value": {
                            "pairs": [
                                {
                                    "key": "0x15725391a37a5ffeb04f79cf25da8460a3f068f6",
                                    "value": {
                                        "current": "6028506090224537950662901",
                                        "prev": "6028391593891801225474293",
                                        "typeTag": 1
                                    }
                                },
                                {
                                    "key": "0x73064f6c1c5dad8d917782aec16ab564feb3c011",
                                    "value": {
                                        "current": "0",
                                        "prev": "114496332736725188608",
                                        "typeTag": 1
                                    }
                                }
                            ],
                            "typeTag": 4
                        }
                    }
                ]
            }
        ]
    }
}