{
    "balance_change": {
        "balanceChanges": [
            {
                "account": "0xbb8402f3769fc2facd38efb1e1d7e9e1aa91b1eb",
                "assets": [
                    {
                        "address": "0x508e00d5cef397b02d260d035e5ee80775e4c821",
                        "amount": "80,000",
                        "iconUrl": "",
                        "isERC1155": false,
                        "isERC721": false,
                        "sign": true,
                        "value": "221.5200000000000155"
                    }
                ]
            },
            {
                "account": "0x02aa179c203a663126df4d86b8849e9fd5532588",
                "assets": [
                    {
                        "address": "0x508e00d5cef397b02d260d035e5ee80775e4c821",
                        "amount": "80,000",
                        "iconUrl": "",
                        "isERC1155": false,
                        "isERC721": false,
                        "sign": false,
                        "value": "221.5200000000000155"
                    }
                ]
            }
        ]
    },
    "profile": {
        "basic_info": {
            "baseFee": "54.179655326",
            "blockNumber": 18825777,
            "callData": "0x5d3eea910000000000000000000000000000000000000000000010f0cf064dd592000000",
            "debugEnable": true,
            "errorInfo": "",
            "eventCount": 2,
            "feeRecipient": "0x0077732907bfc6208933cfd2a51afb8f33ca5958",
            "formatValue": "0",
            "gasLimit": 151701,
            "gasPrice": "54.279655326",
            "gasUsed": 96334,
            "intTxnCount": 1,
            "internalRevert": false,
            "internalRevertMessage": "",
            "isContractCreation": false,
            "isFlashloan": false,
            "maxFee": "71.793409003",
            "nonce": 44,
            "overwritedBlockNumber": -1,
            "priorityFee": "0.1",
            "receiver": "0x02aa179c203a663126df4d86b8849e9fd5532588",
            "revertMessage": "",
            "sender": "0xbb8402f3769fc2facd38efb1e1d7e9e1aa91b1eb",
            "simulationEnable": true,
            "sourceTxnHash": "0xe0bcd123d259cb7b6ac28c5e93fe4dc4b12d14d969174ee1c16f09ff0c85958a",
            "status": true,
            "timestamp": "2023-12-20T07:57:11Z",
            "transactionFee": "0.005228976316174884",
            "txnHash": "0xe0bcd123d259cb7b6ac28c5e93fe4dc4b12d14d969174ee1c16f09ff0c85958a",
            "txnIndex": 142,
            "type": 2,
            "value": "0"
        },
        "fund_flow": [
            {
                "amount": "80,000",
                "from": "0x02aa179c203a663126df4d86b8849e9fd5532588",
                "id": 1,
                "isERC1155": false,
                "isERC721": false,
                "isReverted": false,
                "order": 1,
                "to": "0xbb8402f3769fc2facd38efb1e1d7e9e1aa91b1eb",
                "token": "0x508e00d5cef397b02d260d035e5ee80775e4c821"
            }
        ],
        "token_infos": [
            {
                "address": "0x508e00d5cef397b02d260d035e5ee80775e4c821",
                "decimals": 18
            },
            {
                "address": "0xc02aaa39b223fe8d0a0e5c4f27ead9083c756cc2",
                "decimals": 18
            },
            {
                "address": "0xeeeeeeeeeeeeeeeeeeeeeeeeeeeeeeeeeeeeeeee",
                "decimals": 18
            }
        ]
    },
    "address_label": {
        "labels": [
            {
                "address": "0x0000000000000000000000000000000000000003",
                "label": "Precompiled"
            },
            {
                "address": "0x0000000000000000000000000000000000000004",
                "label": "Precompiled"
            },
            {
                "address": "0xeeeeeeeeeeeeeeeeeeeeeeeeeeeeeeeeeeeeeeee",
                "label": "Ether"
            },
            {
                "address": "0x508e00d5cef397b02d260d035e5ee80775e4c821",
                "label": "Bitcoin Cats: 1CAT Token"
            },
            {
                "address": "0x02aa179c203a663126df4d86b8849e9fd5532588",
                "label": "StakeCat"
            },
            {
                "address": "0x0000000000000000000000000000000000000001",
                "label": "Precompiled"
            },
            {
                "address": "0x0000000000000000000000000000000000000002",
                "label": "Precompiled"
            }
        ]
    },
    "trace": {
        "accountLabels": null,
        "dataMap": {
            "-1": {
                "invocation": {
                    "address": "0xbb8402f3769fc2facd38efb1e1d7e9e1aa91b1eb",
                    "callData": "",
                    "decodedMethod": null,
                    "errorInfo": "",
                    "fromAddress": "",
                    "gasUsed": 0,
                    "id": -1,
                    "methodDecoded": false,
                    "operation": "",
                    "output": "",
                    "revert": false,
                    "revertMessage": "",
                    "selector": "",
                    "status": false,
                    "value": ""
                },
                "nodeType": 0
            },
            "0": {
                "invocation": {
                    "address": "0x02aa179c203a663126df4d86b8849e9fd5532588",
                    "callData": "0x0000000000000000000000000000000000000000000010f0cf064dd592000000",
                    "decodedMethod": {
                        "callParams": [
                            {
                                "name": "_amount",
                                "type": "uint256",
                                "value": "80,000,000,000,000,000,000,000"
                            }
                        ],
                        "constructorArguments": "",
                        "name": "unStake",
                        "returnParams": [],
                        "signature": "unStake(uint256)"
                    },
                    "errorInfo": "",
                    "fromAddress": "0xbb8402f3769fc2facd38efb1e1d7e9e1aa91b1eb",
                    "gasUsed": 96334,
                    "id": 0,
                    "methodDecoded": true,
                    "operation": "CALL",
                    "output": "",
                    "revert": false,
                    "revertMessage": "",
                    "selector": "0x5d3eea91",
                    "status": true,
                    "value": "0"
                },
                "nodeType": 0
            },
            "1": {
                "invocation": {
                    "address": "0x508e00d5cef397b02d260d035e5ee80775e4c821",
                    "callData": "0x000000000000000000000000bb8402f3769fc2facd38efb1e1d7e9e1aa91b1eb0000000000000000000000000000000000000000000010f0cf064dd592000000",
                    "decodedMethod": {
                        "callParams": [
                            {
                                "name": "to",
                                "type": "address",
                                "value": "0xbb8402f3769fc2facd38efb1e1d7e9e1aa91b1eb"
                            },
                            {
                                "decimalAvailable": true,
                                "name": "amount",
                                "type": "uint256",
                                "value": "80,000,000,000,000,000,000,000"
                            }
                        ],
                        "constructorArguments": "",
                        "name": "transfer",
                        "returnParams": [
                            {
                                "name": "",
                                "type": "bool",
                                "value": true
                            }
                        ],
                        "signature": "transfer(address,uint256)"
                    },
                    "errorInfo": "",
                    "fromAddress": "0x02aa179c203a663126df4d86b8849e9fd5532588",
                    "gasUsed": 32079,
                    "id": 1,
                    "methodDecoded": true,
                    "operation": "CALL",
                    "output": "0x0000000000000000000000000000000000000000000000000000000000000001",
                    "revert": false,
                    "revertMessage": "",
                    "selector": "0xa9059cbb",
                    "status": true,
                    "value": "0"
                },
                "nodeType": 0
            },
            "2": {
                "event": {
                    "contract": "0x508e00d5cef397b02d260d035e5ee80775e4c821",
                    "decodedLog": {
                        "name": "Transfer",
                        "params": [
                            {
                                "name": "from",
                                "type": "address",
                                "value": "0x02aa179c203a663126df4d86b8849e9fd5532588"
                            },
                            {
                                "name": "to",
                                "type": "address",
                                "value": "0xbb8402f3769fc2facd38efb1e1d7e9e1aa91b1eb"
                            },
                            {
                                "decimalAvailable": true,
                                "name": "value",
                                "type": "uint256",
                                "value": "80,000,000,000,000,000,000,000"
                            }
                        ],
                        "signature": "Transfer(address,address,uint256)"
                    },
                    "id": 2,
                    "logData": "0x0000000000000000000000000000000000000000000010f0cf064dd592000000",
                    "logDecoded": true,
                    "operation": "EVENT",
                    "revert": false,
                    "status": true,
                    "topics": [
                        "0xddf252ad1be2c89b69c2b068fc378daa952ba7f163c4a11628f55a4df523b3ef",
                        "0x00000000000000000000000002aa179c203a663126df4d86b8849e9fd5532588",
                        "0x000000000000000000000000bb8402f3769fc2facd38efb1e1d7e9e1aa91b1eb"
                    ]
                },
                "nodeType": 1
            },
            "3": {
                "event": {
                    "contract": "0x02aa179c203a663126df4d86b8849e9fd5532588",
                    "decodedLog": {
                        "name": "UnStake",
                        "params": [
                            {
                                "name": "sender",
                                "type": "address",
                                "value": "0xbb8402f3769fc2facd38efb1e1d7e9e1aa91b1eb"
                            },
                            {
                                "name": "amount",
                                "type": "uint256",
                                "value": "80,000,000,000,000,000,000,000"
                            }
                        ],
                        "signature": "UnStake(address,uint256)"
                    },
                    "id": 3,
                    "logData": "0x0000000000000000000000000000000000000000000010f0cf064dd592000000",
                    "logDecoded": true,
                    "operation": "EVENT",
                    "revert": false,
                    "status": true,
                    "topics": [
                        "0xb24546d975e2628748efc9aced80665e0fad66272033e5c0ea25fd3afac99795",
                        "0x000000000000000000000000bb8402f3769fc2facd38efb1e1d7e9e1aa91b1eb"
                    ]
                },
                "nodeType": 1
            }
        },
        "gasFlame": [
            {
                "children": [
                    {
                        "children": [
                            {
                                "children": [],
                                "depth": 0,
                                "name": "Initial Gas",
                                "value": 21276
                            },
                            {
                                "children": [
                                    {
                                        "children": [],
                                        "depth": 1,
                                        "name": "transfer",
                                        "value": 32079
                                    }
                                ],
                                "depth": 0,
                                "name": "Executed Gas",
                                "value": 79858
                            }
                        ],
                        "depth": -1,
                        "name": "Actual Gas Used",
                        "value": 96334
                    },
                    {
                        "children": [],
                        "depth": -1,
                        "name": "Refunded Gas",
                        "value": 4800
                    }
                ],
                "depth": -2,
                "name": "Total Gas",
                "value": 101134
            }
        ],
        "isConfirmed": true,
        "mainTrace": [
            {
                "children": [
                    {
                        "children": [
                            {
                                "children": [
                                    {
                                        "children": [],
                                        "depth": 2,
                                        "id": 2,
                                        "order": 2
                                    }
                                ],
                                "depth": 1,
                                "id": 1,
                                "order": 1
                            },
                            {
                                "children": [],
                                "depth": 1,
                                "id": 3,
                                "order": 3
                            }
                        ],
                        "depth": 0,
                        "id": 0,
                        "order": 0
                    }
                ],
                "depth": -1,
                "id": -1,
                "order": -1
            }
        ],
        "mainTraceNodeCount": 4,
        "parentIdMap": {
            "0": -1,
            "1": 0,
            "2": 1,
            "3": 0
        },
        "tidyTrace": [
            {
                "children": [
                    {
                        "children": [
                            {
                                "children": [
                                    {
                                        "children": [],
                                        "depth": 2,
                                        "id": 2,
                                        "order": 2
                                    }
                                ],
                                "depth": 1,
                                "id": 1,
                                "order": 1
                            },
                            {
                                "children": [],
                                "depth": 1,
                                "id": 3,
                                "order": 3
                            }
                        ],
                        "depth": 0,
                        "id": 0,
                        "order": 0
                    }
                ],
                "depth": -1,
                "id": -1,
                "order": -1
            }
        ],
        "tidyTraceNodeCount": 4
    },
    "state_change": {
        "stateChanges": [
            {
                "address": "0x02aa179c203a663126df4d86b8849e9fd5532588",
                "erc": "",
                "slots": [
                    {
                        "current": "0x000000000000000000000000000000000000000000000000000109c649c0438c",
                        "key": "0xbf97544c6d43db5c1651f1f96857c81792d2885187ac0de9ddf142d2c5629bcb",
                        "prev": "0x0000000000000000000000000000000000000000000000000000000000000000"
                    },
                    {
                        "current": "0x0000000000000000000000000000000000000000000000000000000065829e57",
                        "key": "0xbf97544c6d43db5c1651f1f96857c81792d2885187ac0de9ddf142d2c5629bc9",
                        "prev": "0x000000000000000000000000000000000000000000000000000000006582795b"
                    },
                    {
                        "current": "0x0000000000000000000000000000000000000000000000000000000000000000",
                        "key": "0xbf97544c6d43db5c1651f1f96857c81792d2885187ac0de9ddf142d2c5629bca",
                        "prev": "0x0000000000000000000000000000000000000000000010f0cf064dd592000000"
                    }
                ],
                "storageVariables": [
                    {
                        "name": "stakes",
                        "type": "mapping(address => struct StakeCat.StakeInfo)",
                        "value": {
                            "pairs": [
                                {
                                    "key": "0xbb8402f3769fc2facd38efb1e1d7e9e1aa91b1eb",
                                    "value": {
                                        "fields": [
                                            {
                                                "name": "lastTime",
                                                "type": "uint256",
                                                "value": {
                                                    "current": "1703059031",
                                                    "prev": "1703049563",
                                                    "typeTag": 1
                                                }
                                            },
                                            {
                                                "name": "amount",
                                                "type": "uint256",
                                                "value": {
                                                    "current": "0",
                                                    "prev": "80000000000000000000000",
                                                    "typeTag": 1
                                                }
                                            },
                                            {
                                                "name": "reward",
                                                "type": "uint256",
                                                "value": {
                                                    "current": "292222222222220",
                                                    "prev": "0",
                                                    "typeTag": 1
                                                }
                                            }
                                        ],
                                        "typeTag": 3
                                    }
                                }
                            ],
                            "typeTag": 4
                        }
                    }
                ]
            },
            {
                "address": "0x508e00d5cef397b02d260d035e5ee80775e4c821",
                "erc": "ERC-20",
                "slots": [
                    {
                        "current": "0x0000000000000000000000000000000000000000000010f0cf064dd592000000",
                        "key": "0x7a8554dc1a8bcde2f8d19043c6b7bb33cd9510301be8178a2b70b7948584400f",
                        "prev": "0x0000000000000000000000000000000000000000000000000000000000000000"
                    },
                    {
                        "current": "0x0000000000000000000000000000000000000000091af70dc52702779e3ca000",
                        "key": "0xa3b37d1b493639634b2b4efee6e081c2f3aa554b272c622f9bd7dc98465c047f",
                        "prev": "0x0000000000000000000000000000000000000000091b07fe942d504d303ca000"
                    }
                ],
                "storageVariables": [
                    {
                        "name": "_balances",
                        "type": "mapping(address => uint256)",
                        "value": {
                            "pairs": [
                                {
                                    "key": "0x02aa179c203a663126df4d86b8849e9fd5532588",
                                    "value": {
                                        "current": "2817963838237354000000000000",
                                        "prev": "2818043838237354000000000000",
                                        "typeTag": 1
                                    }
                                },
                                {
                                    "key": "0xbb8402f3769fc2facd38efb1e1d7e9e1aa91b1eb",
                                    "value": {
                                        "current": "80000000000000000000000",
                                        "prev": "0",
                                        "typeTag": 1
                                    }
                                }
                            ],
                            "typeTag": 4
                        }
                    }
                ]
            }
        ]
    }
}