{
    "balance_change": {
        "balanceChanges": [
            {
                "account": "0x753cf57210d2be5239c26d8c5f0b30013398aa5f",
                "assets": [
                    {
                        "address": "0xb33522fa127a73ed4afc43500bbf56c5abbf45bb",
                        "amount": "3,918.049874",
                        "iconUrl": "",
                        "isERC1155": false,
                        "isERC721": false,
                        "sign": false,
                        "value": ""
                    }
                ]
            },
            {
                "account": "0xe39cb745e8db0da1be665adb2eab58f4fd600927",
                "assets": [
                    {
                        "address": "0xb33522fa127a73ed4afc43500bbf56c5abbf45bb",
                        "amount": "3,918.049874",
                        "iconUrl": "",
                        "isERC1155": false,
                        "isERC721": false,
                        "sign": true,
                        "value": ""
                    }
                ]
            }
        ]
    },
    "profile": {
        "basic_info": {
            "baseFee": "2.971875168",
            "blockNumber": 20430489,
            "callData": "0xa9059cbb000000000000000000000000e39cb745e8db0da1be665adb2eab58f4fd6009270000000000000000000000000000000000000000000000d465dd61af61ff2000",
            "debugEnable": true,
            "errorInfo": "",
            "eventCount": 1,
            "feeRecipient": "0x95222290dd7278aa3ddd389cc1e1d165cc4bafe5",
            "formatValue": "0",
            "gasLimit": 53335,
            "gasPrice": "3.88581064",
            "gasUsed": 35196,
            "intTxnCount": 0,
            "internalRevert": false,
            "internalRevertMessage": "",
            "isContractCreation": false,
            "isFlashloan": false,
            "maxFee": "5.107972105",
            "nonce": 1603,
            "overwritedBlockNumber": -1,
            "priorityFee": "0.913935472",
            "receiver": "0xb33522fa127a73ed4afc43500bbf56c5abbf45bb",
            "revertMessage": "",
            "sender": "0x753cf57210d2be5239c26d8c5f0b30013398aa5f",
            "simulationEnable": true,
            "sourceTxnHash": "0xe1c3332202b23484ec701820a1a2ab7806e05a0a43dc6e874d2e5dea5c875cbd",
            "status": true,
            "timestamp": "2024-08-01T01:43:35Z",
            "transactionFee": "0.00013676499128544",
            "txnHash": "0xe1c3332202b23484ec701820a1a2ab7806e05a0a43dc6e874d2e5dea5c875cbd",
            "txnIndex": 138,
            "type": 2,
            "value": "0"
        },
        "fund_flow": [
            {
                "amount": "3,918.049874",
                "from": "0x753cf57210d2be5239c26d8c5f0b30013398aa5f",
                "id": 1,
                "isERC1155": false,
                "isERC721": false,
                "isReverted": false,
                "order": 1,
                "to": "0xe39cb745e8db0da1be665adb2eab58f4fd600927",
                "token": "0xb33522fa127a73ed4afc43500bbf56c5abbf45bb"
            }
        ],
        "token_infos": [
            {
                "address": "0xb33522fa127a73ed4afc43500bbf56c5abbf45bb",
                "decimals": 18
            },
            {
                "address": "0xc02aaa39b223fe8d0a0e5c4f27ead9083c756cc2",
                "decimals": 18
            },
            {
                "address": "0xeeeeeeeeeeeeeeeeeeeeeeeeeeeeeeeeeeeeeeee",
                "decimals": 18
            }
        ]
    },
    "address_label": {
        "labels": [
            {
                "address": "0xb33522fa127a73ed4afc43500bbf56c5abbf45bb",
                "label": "MTC"
            },
            {
                "address": "0x0000000000000000000000000000000000000001",
                "label": "Precompiled"
            },
            {
                "address": "0x0000000000000000000000000000000000000002",
                "label": "Precompiled"
            },
            {
                "address": "0x0000000000000000000000000000000000000003",
                "label": "Precompiled"
            },
            {
                "address": "0x0000000000000000000000000000000000000004",
                "label": "Precompiled"
            },
            {
                "address": "0xeeeeeeeeeeeeeeeeeeeeeeeeeeeeeeeeeeeeeeee",
                "label": "Ether"
            }
        ]
    },
    "trace": {
        "accountLabels": null,
        "dataMap": {
            "-1": {
                "invocation": {
                    "address": "0x753cf57210d2be5239c26d8c5f0b30013398aa5f",
                    "callData": "",
                    "decodedMethod": null,
                    "errorInfo": "",
                    "fromAddress": "",
                    "gasUsed": 0,
                    "id": -1,
                    "methodDecoded": false,
                    "operation": "",
                    "output": "",
                    "revert": false,
                    "revertMessage": "",
                    "selector": "",
                    "status": false,
                    "value": ""
                },
                "nodeType": 0
            },
            "0": {
                "invocation": {
                    "address": "0xb33522fa127a73ed4afc43500bbf56c5abbf45bb",
                    "callData": "0x000000000000000000000000e39cb745e8db0da1be665adb2eab58f4fd6009270000000000000000000000000000000000000000000000d465dd61af61ff2000",
                    "decodedMethod": {
                        "callParams": [
                            {
                                "name": "to",
                                "type": "address",
                                "value": "0xe39cb745e8db0da1be665adb2eab58f4fd600927"
                            },
                            {
                                "decimalAvailable": true,
                                "name": "value",
                                "type": "uint256",
                                "value": "3,918,049,874,000,000,000,000"
                            }
                        ],
                        "constructorArguments": "",
                        "name": "transfer",
                        "returnParams": [
                            {
                                "name": "",
                                "type": "bool",
                                "value": true
                            }
                        ],
                        "signature": "transfer(address,uint256)"
                    },
                    "errorInfo": "",
                    "fromAddress": "0x753cf57210d2be5239c26d8c5f0b30013398aa5f",
                    "gasUsed": 35196,
                    "id": 0,
                    "methodDecoded": true,
                    "operation": "CALL",
                    "output": "0x0000000000000000000000000000000000000000000000000000000000000001",
                    "revert": false,
                    "revertMessage": "",
                    "selector": "0xa9059cbb",
                    "status": true,
                    "value": "0"
                },
                "nodeType": 0
            },
            "1": {
                "event": {
                    "contract": "0xb33522fa127a73ed4afc43500bbf56c5abbf45bb",
                    "decodedLog": {
                        "name": "Transfer",
                        "params": [
                            {
                                "name": "from",
                                "type": "address",
                                "value": "0x753cf57210d2be5239c26d8c5f0b30013398aa5f"
                            },
                            {
                                "name": "to",
                                "type": "address",
                                "value": "0xe39cb745e8db0da1be665adb2eab58f4fd600927"
                            },
                            {
                                "decimalAvailable": true,
                                "name": "value",
                                "type": "uint256",
                                "value": "3,918,049,874,000,000,000,000"
                            }
                        ],
                        "signature": "Transfer(address,address,uint256)"
                    },
                    "id": 1,
                    "logData": "0x0000000000000000000000000000000000000000000000d465dd61af61ff2000",
                    "logDecoded": true,
                    "operation": "EVENT",
                    "revert": false,
                    "status": true,
                    "topics": [
                        "0xddf252ad1be2c89b69c2b068fc378daa952ba7f163c4a11628f55a4df523b3ef",
                        "0x000000000000000000000000753cf57210d2be5239c26d8c5f0b30013398aa5f",
                        "0x000000000000000000000000e39cb745e8db0da1be665adb2eab58f4fd600927"
                    ]
                },
                "nodeType": 1
            }
        },
        "gasFlame": [
            {
                "children": [
                    {
                        "children": [
                            {
                                "children": [],
                                "depth": 0,
                                "name": "Initial Gas",
                                "value": 21656
                            },
                            {
                                "children": [],
                                "depth": 0,
                                "name": "Executed Gas",
                                "value": 13540
                            }
                        ],
                        "depth": -1,
                        "name": "Actual Gas Used",
                        "value": 35196
                    },
                    {
                        "children": [],
                        "depth": -1,
                        "name": "Refunded Gas",
                        "value": 0
                    }
                ],
                "depth": -2,
                "name": "Total Gas",
                "value": 35196
            }
        ],
        "isConfirmed": true,
        "mainTrace": [
            {
                "children": [
                    {
                        "children": [
                            {
                                "children": [],
                                "depth": 1,
                                "id": 1,
                                "order": 1
                            }
                        ],
                        "depth": 0,
                        "id": 0,
                        "order": 0
                    }
                ],
                "depth": -1,
                "id": -1,
                "order": -1
            }
        ],
        "mainTraceNodeCount": 2,
        "parentIdMap": {
            "0": -1,
            "1": 0
        },
        "tidyTrace": [
            {
                "children": [
                    {
                        "children": [
                            {
                                "children": [],
                                "depth": 1,
                                "id": 1,
                                "order": 1
                            }
                        ],
                        "depth": 0,
                        "id": 0,
                        "order": 0
                    }
                ],
                "depth": -1,
                "id": -1,
                "order": -1
            }
        ],
        "tidyTraceNodeCount": 2
    },
    "state_change": {
        "stateChanges": [
            {
                "address": "0xb33522fa127a73ed4afc43500bbf56c5abbf45bb",
                "erc": "ERC-20",
                "slots": [
                    {
                        "current": "0x000000000000000000000000000000000000000000009e151fa8ea0322dfbd67",
                        "key": "0x69dfc8dca413a3833855abac725ee9af0dd85482493d76098ce21cc8cf65900d",
                        "prev": "0x000000000000000000000000000000000000000000009ee985864bb284dedd67"
                    },
                    {
                        "current": "0x0000000000000000000000000000000000000000000003a015fd1a554af08000",
                        "key": "0x51cb5790a2492f797c702bce77595af958ffc562beb002cc037aa0d393377a37",
                        "prev": "0x0000000000000000000000000000000000000000000002cbb01fb8a5e8f16000"
                    }
                ],
                "storageVariables": [
                    {
                        "name": "_balances",
                        "type": "mapping(address => uint256)",
                        "value": {
                            "pairs": [
                                {
                                    "key": "0x753cf57210d2be5239c26d8c5f0b30013398aa5f",
                                    "value": {
                                        "current": "746523567249462298393959",
                                        "prev": "750441617123462298393959",
                                        "typeTag": 1
                                    }
                                },
                                {
                                    "key": "0xe39cb745e8db0da1be665adb2eab58f4fd600927",
                                    "value": {
                                        "current": "17120162952000000000000",
                                        "prev": "13202113078000000000000",
                                        "typeTag": 1
                                    }
                                }
                            ],
                            "typeTag": 4
                        }
                    }
                ]
            }
        ]
    }
}