{
    "balance_change": {
        "balanceChanges": [
            {
                "account": "0xe081119453fc9a1f7168de2f6318f74979d175ed",
                "assets": [
                    {
                        "address": "0xa15c7ebe1f07caf6bff097d8a589fb8ac49ae5b3",
                        "amount": "279,588.63265133",
                        "iconUrl": "",
                        "isERC1155": false,
                        "isERC721": false,
                        "sign": false,
                        "value": ""
                    }
                ]
            },
            {
                "account": "0x5e1e4036697fe8909e6b86c8c2e3abd8f4e5b8a3",
                "assets": [
                    {
                        "address": "0xa15c7ebe1f07caf6bff097d8a589fb8ac49ae5b3",
                        "amount": "279,588.63265133",
                        "iconUrl": "",
                        "isERC1155": false,
                        "isERC721": false,
                        "sign": true,
                        "value": ""
                    }
                ]
            }
        ]
    },
    "profile": {
        "basic_info": {
            "baseFee": "",
            "blockNumber": 8034882,
            "callData": "0xa9059cbb0000000000000000000000005e1e4036697fe8909e6b86c8c2e3abd8f4e5b8a3000000000000000000000000000000000000000000003b3487b7a85279641400",
            "debugEnable": true,
            "errorInfo": "",
            "eventCount": 1,
            "feeRecipient": "0x52e44f279f4203dcf680395379e5f9990a69f13c",
            "formatValue": "0",
            "gasLimit": 120000,
            "gasPrice": "16",
            "gasUsed": 53037,
            "intTxnCount": 0,
            "internalRevert": false,
            "internalRevertMessage": "",
            "isContractCreation": false,
            "isFlashloan": false,
            "maxFee": "",
            "nonce": 14551,
            "overwritedBlockNumber": -1,
            "priorityFee": "",
            "receiver": "0xa15c7ebe1f07caf6bff097d8a589fb8ac49ae5b3",
            "revertMessage": "",
            "sender": "0xe081119453fc9a1f7168de2f6318f74979d175ed",
            "simulationEnable": true,
            "sourceTxnHash": "0xe228148ebf896059b950ced985797a9ab7b14a223751246dc40675392be3d069",
            "status": true,
            "timestamp": "2019-06-26T17:15:14Z",
            "transactionFee": "0.000848592",
            "txnHash": "0xe228148ebf896059b950ced985797a9ab7b14a223751246dc40675392be3d069",
            "txnIndex": 35,
            "type": 0,
            "value": "0"
        },
        "fund_flow": [
            {
                "amount": "279,588.63265133",
                "from": "0xe081119453fc9a1f7168de2f6318f74979d175ed",
                "id": 1,
                "isERC1155": false,
                "isERC721": false,
                "isReverted": false,
                "order": 1,
                "to": "0x5e1e4036697fe8909e6b86c8c2e3abd8f4e5b8a3",
                "token": "0xa15c7ebe1f07caf6bff097d8a589fb8ac49ae5b3"
            }
        ],
        "token_infos": [
            {
                "address": "0xa15c7ebe1f07caf6bff097d8a589fb8ac49ae5b3",
                "decimals": 18
            },
            {
                "address": "0xc02aaa39b223fe8d0a0e5c4f27ead9083c756cc2",
                "decimals": 18
            },
            {
                "address": "0xeeeeeeeeeeeeeeeeeeeeeeeeeeeeeeeeeeeeeeee",
                "decimals": 18
            }
        ]
    },
    "address_label": {
        "labels": [
            {
                "address": "0xeeeeeeeeeeeeeeeeeeeeeeeeeeeeeeeeeeeeeeee",
                "label": "Ether"
            },
            {
                "address": "0xa15c7ebe1f07caf6bff097d8a589fb8ac49ae5b3",
                "label": "Pundi X: Old NPXS Token"
            },
            {
                "address": "0x0000000000000000000000000000000000000001",
                "label": "Precompiled"
            },
            {
                "address": "0x0000000000000000000000000000000000000002",
                "label": "Precompiled"
            },
            {
                "address": "0x0000000000000000000000000000000000000003",
                "label": "Precompiled"
            },
            {
                "address": "0x0000000000000000000000000000000000000004",
                "label": "Precompiled"
            }
        ]
    },
    "trace": {
        "accountLabels": null,
        "dataMap": {
            "-1": {
                "invocation": {
                    "address": "0xe081119453fc9a1f7168de2f6318f74979d175ed",
                    "callData": "",
                    "decodedMethod": null,
                    "errorInfo": "",
                    "fromAddress": "",
                    "gasUsed": 0,
                    "id": -1,
                    "methodDecoded": false,
                    "operation": "",
                    "output": "",
                    "revert": false,
                    "revertMessage": "",
                    "selector": "",
                    "status": false,
                    "value": ""
                },
                "nodeType": 0
            },
            "0": {
                "invocation": {
                    "address": "0xa15c7ebe1f07caf6bff097d8a589fb8ac49ae5b3",
                    "callData": "0x0000000000000000000000005e1e4036697fe8909e6b86c8c2e3abd8f4e5b8a3000000000000000000000000000000000000000000003b3487b7a85279641400",
                    "decodedMethod": {
                        "callParams": [
                            {
                                "name": "_to",
                                "type": "address",
                                "value": "0x5e1e4036697fe8909e6b86c8c2e3abd8f4e5b8a3"
                            },
                            {
                                "decimalAvailable": true,
                                "name": "_value",
                                "type": "uint256",
                                "value": "279,588,632,651,330,000,000,000"
                            }
                        ],
                        "constructorArguments": "",
                        "name": "transfer",
                        "returnParams": [
                            {
                                "name": "",
                                "type": "bool",
                                "value": true
                            }
                        ],
                        "signature": "transfer(address,uint256)"
                    },
                    "errorInfo": "",
                    "fromAddress": "0xe081119453fc9a1f7168de2f6318f74979d175ed",
                    "gasUsed": 53037,
                    "id": 0,
                    "methodDecoded": true,
                    "operation": "CALL",
                    "output": "0x0000000000000000000000000000000000000000000000000000000000000001",
                    "revert": false,
                    "revertMessage": "",
                    "selector": "0xa9059cbb",
                    "status": true,
                    "value": "0"
                },
                "nodeType": 0
            },
            "1": {
                "event": {
                    "contract": "0xa15c7ebe1f07caf6bff097d8a589fb8ac49ae5b3",
                    "decodedLog": {
                        "name": "Transfer",
                        "params": [
                            {
                                "name": "from",
                                "type": "address",
                                "value": "0xe081119453fc9a1f7168de2f6318f74979d175ed"
                            },
                            {
                                "name": "to",
                                "type": "address",
                                "value": "0x5e1e4036697fe8909e6b86c8c2e3abd8f4e5b8a3"
                            },
                            {
                                "decimalAvailable": true,
                                "name": "value",
                                "type": "uint256",
                                "value": "279,588,632,651,330,000,000,000"
                            }
                        ],
                        "signature": "Transfer(address,address,uint256)"
                    },
                    "id": 1,
                    "logData": "0x000000000000000000000000000000000000000000003b3487b7a85279641400",
                    "logDecoded": true,
                    "operation": "EVENT",
                    "revert": false,
                    "status": true,
                    "topics": [
                        "0xddf252ad1be2c89b69c2b068fc378daa952ba7f163c4a11628f55a4df523b3ef",
                        "0x000000000000000000000000e081119453fc9a1f7168de2f6318f74979d175ed",
                        "0x0000000000000000000000005e1e4036697fe8909e6b86c8c2e3abd8f4e5b8a3"
                    ]
                },
                "nodeType": 1
            }
        },
        "gasFlame": [
            {
                "children": [
                    {
                        "children": [
                            {
                                "children": [],
                                "depth": 0,
                                "name": "Initial Gas",
                                "value": 23384
                            },
                            {
                                "children": [],
                                "depth": 0,
                                "name": "Executed Gas",
                                "value": 29653
                            }
                        ],
                        "depth": -1,
                        "name": "Actual Gas Used",
                        "value": 53037
                    },
                    {
                        "children": [],
                        "depth": -1,
                        "name": "Refunded Gas",
                        "value": 0
                    }
                ],
                "depth": -2,
                "name": "Total Gas",
                "value": 53037
            }
        ],
        "isConfirmed": true,
        "mainTrace": [
            {
                "children": [
                    {
                        "children": [
                            {
                                "children": [],
                                "depth": 1,
                                "id": 1,
                                "order": 1
                            }
                        ],
                        "depth": 0,
                        "id": 0,
                        "order": 0
                    }
                ],
                "depth": -1,
                "id": -1,
                "order": -1
            }
        ],
        "mainTraceNodeCount": 2,
        "parentIdMap": {
            "0": -1,
            "1": 0
        },
        "tidyTrace": [
            {
                "children": [
                    {
                        "children": [
                            {
                                "children": [],
                                "depth": 1,
                                "id": 1,
                                "order": 1
                            }
                        ],
                        "depth": 0,
                        "id": 0,
                        "order": 0
                    }
                ],
                "depth": -1,
                "id": -1,
                "order": -1
            }
        ],
        "tidyTraceNodeCount": 2
    },
    "state_change": {
        "stateChanges": [
            {
                "address": "0xa15c7ebe1f07caf6bff097d8a589fb8ac49ae5b3",
                "erc": "ERC-20",
                "slots": [
                    {
                        "current": "0x00000000000000000000000000000000000000000353e115ab9e0c336f75be08",
                        "key": "0x8e25103cd99469a2c8d88d1e19ef26e122f54a12a72407631ef3b0abcccfe129",
                        "prev": "0x000000000000000000000000000000000000000003541c4a3355b485e8d9d208"
                    },
                    {
                        "current": "0x000000000000000000000000000000000000000000003b3487b7a85279641400",
                        "key": "0xaf67d7277b538ee4f11463890659a4ef1974b65f1fdb650060541ac018129c78",
                        "prev": "0x0000000000000000000000000000000000000000000000000000000000000000"
                    }
                ],
                "storageVariables": [
                    {
                        "name": "balances",
                        "type": "mapping(address => uint256)",
                        "value": {
                            "pairs": [
                                {
                                    "key": "0x5e1e4036697fe8909e6b86c8c2e3abd8f4e5b8a3",
                                    "value": {
                                        "current": "279588632651330000000000",
                                        "prev": "0",
                                        "typeTag": 1
                                    }
                                },
                                {
                                    "key": "0xe081119453fc9a1f7168de2f6318f74979d175ed",
                                    "value": {
                                        "current": "1029858804698655687607434760",
                                        "prev": "1030138393331307017607434760",
                                        "typeTag": 1
                                    }
                                }
                            ],
                            "typeTag": 4
                        }
                    }
                ]
            }
        ]
    }
}