{
    "balance_change": {
        "balanceChanges": []
    },
    "profile": {
        "basic_info": {
            "baseFee": "20.442257834",
            "blockNumber": 17873712,
            "callData": "0xadc9772e0000000000000000000000006f6b24d4d9ace2107b47b894d6a66622def4c0d80000000000000000000000000000000000000000000000000000000000000000",
            "debugEnable": true,
            "errorInfo": "",
            "eventCount": 3,
            "feeRecipient": "0x1f9090aae28b8a3dceadf281b0f12828e676c326",
            "formatValue": "0",
            "gasLimit": 82039,
            "gasPrice": "20.542257834",
            "gasUsed": 54693,
            "intTxnCount": 2,
            "internalRevert": false,
            "internalRevertMessage": "",
            "isContractCreation": false,
            "isFlashloan": false,
            "maxFee": "27.577495427",
            "nonce": 87,
            "overwritedBlockNumber": -1,
            "priorityFee": "0.1",
            "receiver": "0xa6897cce09980a302822256f875a7dcb1ebb79c9",
            "revertMessage": "",
            "sender": "0x6f6b24d4d9ace2107b47b894d6a66622def4c0d8",
            "simulationEnable": true,
            "sourceTxnHash": "0xe21bd6a6474ce369937eadfcde7a20be47b54127d8ce3d2cbb8a6fc90b7a79d9",
            "status": true,
            "timestamp": "2023-08-09T00:16:23Z",
            "transactionFee": "0.001123517707714962",
            "txnHash": "0xe21bd6a6474ce369937eadfcde7a20be47b54127d8ce3d2cbb8a6fc90b7a79d9",
            "txnIndex": 89,
            "type": 2,
            "value": "0"
        },
        "fund_flow": [
            {
                "amount": "0",
                "from": "0x6f6b24d4d9ace2107b47b894d6a66622def4c0d8",
                "id": 1,
                "isERC1155": false,
                "isERC721": false,
                "isReverted": false,
                "order": 1,
                "to": "0xa6897cce09980a302822256f875a7dcb1ebb79c9",
                "token": "0xb354b5da5ea39dadb1cea8140bf242eb24b1821a"
            },
            {
                "amount": "0",
                "from": "0xa6897cce09980a302822256f875a7dcb1ebb79c9",
                "id": 2,
                "isERC1155": false,
                "isERC721": false,
                "isReverted": false,
                "order": 2,
                "to": "0x6f6b24d4d9ace2107b47b894d6a66622def4c0d8",
                "token": "0x03c793511b835e41769432eb3a3ef4af02ab648c"
            }
        ],
        "token_infos": [
            {
                "address": "0x03c793511b835e41769432eb3a3ef4af02ab648c",
                "decimals": 9
            },
            {
                "address": "0xb354b5da5ea39dadb1cea8140bf242eb24b1821a",
                "decimals": 9
            },
            {
                "address": "0xc02aaa39b223fe8d0a0e5c4f27ead9083c756cc2",
                "decimals": 18
            },
            {
                "address": "0xeeeeeeeeeeeeeeeeeeeeeeeeeeeeeeeeeeeeeeee",
                "decimals": 18
            }
        ]
    },
    "address_label": {
        "labels": [
            {
                "address": "0xa6897cce09980a302822256f875a7dcb1ebb79c9",
                "label": "QWNStaking"
            },
            {
                "address": "0x0000000000000000000000000000000000000001",
                "label": "Precompiled"
            },
            {
                "address": "0x0000000000000000000000000000000000000002",
                "label": "Precompiled"
            },
            {
                "address": "0x0000000000000000000000000000000000000003",
                "label": "Precompiled"
            },
            {
                "address": "0x0000000000000000000000000000000000000004",
                "label": "Precompiled"
            },
            {
                "address": "0xeeeeeeeeeeeeeeeeeeeeeeeeeeeeeeeeeeeeeeee",
                "label": "Ether"
            },
            {
                "address": "0x03c793511b835e41769432eb3a3ef4af02ab648c",
                "label": "Staked QWN (sQWN)"
            },
            {
                "address": "0xb354b5da5ea39dadb1cea8140bf242eb24b1821a",
                "label": "Quantum Wealth Network (QWN)"
            }
        ]
    },
    "trace": {
        "accountLabels": null,
        "dataMap": {
            "-1": {
                "invocation": {
                    "address": "0x6f6b24d4d9ace2107b47b894d6a66622def4c0d8",
                    "callData": "",
                    "decodedMethod": null,
                    "errorInfo": "",
                    "fromAddress": "",
                    "gasUsed": 0,
                    "id": -1,
                    "methodDecoded": false,
                    "operation": "",
                    "output": "",
                    "revert": false,
                    "revertMessage": "",
                    "selector": "",
                    "status": false,
                    "value": ""
                },
                "nodeType": 0
            },
            "0": {
                "invocation": {
                    "address": "0xa6897cce09980a302822256f875a7dcb1ebb79c9",
                    "callData": "0x0000000000000000000000006f6b24d4d9ace2107b47b894d6a66622def4c0d80000000000000000000000000000000000000000000000000000000000000000",
                    "decodedMethod": {
                        "callParams": [
                            {
                                "name": "_to",
                                "type": "address",
                                "value": "0x6f6b24d4d9ace2107b47b894d6a66622def4c0d8"
                            },
                            {
                                "name": "_amount",
                                "type": "uint256",
                                "value": "0"
                            }
                        ],
                        "constructorArguments": "",
                        "name": "stake",
                        "returnParams": [],
                        "signature": "stake(address,uint256)"
                    },
                    "errorInfo": "",
                    "fromAddress": "0x6f6b24d4d9ace2107b47b894d6a66622def4c0d8",
                    "gasUsed": 54693,
                    "id": 0,
                    "methodDecoded": true,
                    "operation": "CALL",
                    "output": "",
                    "revert": false,
                    "revertMessage": "",
                    "selector": "0xadc9772e",
                    "status": true,
                    "value": "0"
                },
                "nodeType": 0
            },
            "1": {
                "invocation": {
                    "address": "0xb354b5da5ea39dadb1cea8140bf242eb24b1821a",
                    "callData": "0x0000000000000000000000006f6b24d4d9ace2107b47b894d6a66622def4c0d8000000000000000000000000a6897cce09980a302822256f875a7dcb1ebb79c90000000000000000000000000000000000000000000000000000000000000000",
                    "decodedMethod": {
                        "callParams": [
                            {
                                "name": "sender",
                                "type": "address",
                                "value": "0x6f6b24d4d9ace2107b47b894d6a66622def4c0d8"
                            },
                            {
                                "name": "recipient",
                                "type": "address",
                                "value": "0xa6897cce09980a302822256f875a7dcb1ebb79c9"
                            },
                            {
                                "decimalAvailable": true,
                                "name": "amount",
                                "type": "uint256",
                                "value": "0"
                            }
                        ],
                        "constructorArguments": "",
                        "name": "transferFrom",
                        "returnParams": [
                            {
                                "name": "",
                                "type": "bool",
                                "value": true
                            }
                        ],
                        "signature": "transferFrom(address,address,uint256)"
                    },
                    "errorInfo": "",
                    "fromAddress": "0xa6897cce09980a302822256f875a7dcb1ebb79c9",
                    "gasUsed": 13160,
                    "id": 1,
                    "methodDecoded": true,
                    "operation": "CALL",
                    "output": "0x0000000000000000000000000000000000000000000000000000000000000001",
                    "revert": false,
                    "revertMessage": "",
                    "selector": "0x23b872dd",
                    "status": true,
                    "value": "0"
                },
                "nodeType": 0
            },
            "2": {
                "event": {
                    "contract": "0xb354b5da5ea39dadb1cea8140bf242eb24b1821a",
                    "decodedLog": {
                        "name": "Transfer",
                        "params": [
                            {
                                "name": "from",
                                "type": "address",
                                "value": "0x6f6b24d4d9ace2107b47b894d6a66622def4c0d8"
                            },
                            {
                                "name": "to",
                                "type": "address",
                                "value": "0xa6897cce09980a302822256f875a7dcb1ebb79c9"
                            },
                            {
                                "decimalAvailable": true,
                                "name": "value",
                                "type": "uint256",
                                "value": "0"
                            }
                        ],
                        "signature": "Transfer(address,address,uint256)"
                    },
                    "id": 2,
                    "logData": "0x0000000000000000000000000000000000000000000000000000000000000000",
                    "logDecoded": true,
                    "operation": "EVENT",
                    "revert": false,
                    "status": true,
                    "topics": [
                        "0xddf252ad1be2c89b69c2b068fc378daa952ba7f163c4a11628f55a4df523b3ef",
                        "0x0000000000000000000000006f6b24d4d9ace2107b47b894d6a66622def4c0d8",
                        "0x000000000000000000000000a6897cce09980a302822256f875a7dcb1ebb79c9"
                    ]
                },
                "nodeType": 1
            },
            "3": {
                "event": {
                    "contract": "0xb354b5da5ea39dadb1cea8140bf242eb24b1821a",
                    "decodedLog": {
                        "name": "Approval",
                        "params": [
                            {
                                "name": "owner",
                                "type": "address",
                                "value": "0x6f6b24d4d9ace2107b47b894d6a66622def4c0d8"
                            },
                            {
                                "name": "spender",
                                "type": "address",
                                "value": "0xa6897cce09980a302822256f875a7dcb1ebb79c9"
                            },
                            {
                                "decimalAvailable": true,
                                "name": "value",
                                "type": "uint256",
                                "value": "36,376"
                            }
                        ],
                        "signature": "Approval(address,address,uint256)"
                    },
                    "id": 3,
                    "logData": "0x0000000000000000000000000000000000000000000000000000000000008e18",
                    "logDecoded": true,
                    "operation": "EVENT",
                    "revert": false,
                    "status": true,
                    "topics": [
                        "0x8c5be1e5ebec7d5bd14f71427d1e84f3dd0314c0f7b2291e5b200ac8c7c3b925",
                        "0x0000000000000000000000006f6b24d4d9ace2107b47b894d6a66622def4c0d8",
                        "0x000000000000000000000000a6897cce09980a302822256f875a7dcb1ebb79c9"
                    ]
                },
                "nodeType": 1
            },
            "4": {
                "invocation": {
                    "address": "0x03c793511b835e41769432eb3a3ef4af02ab648c",
                    "callData": "0x0000000000000000000000006f6b24d4d9ace2107b47b894d6a66622def4c0d80000000000000000000000000000000000000000000000000000000000000000",
                    "decodedMethod": {
                        "callParams": [
                            {
                                "name": "to",
                                "type": "address",
                                "value": "0x6f6b24d4d9ace2107b47b894d6a66622def4c0d8"
                            },
                            {
                                "decimalAvailable": true,
                                "name": "value",
                                "type": "uint256",
                                "value": "0"
                            }
                        ],
                        "constructorArguments": "",
                        "name": "transfer",
                        "returnParams": [
                            {
                                "name": "",
                                "type": "bool",
                                "value": true
                            }
                        ],
                        "signature": "transfer(address,uint256)"
                    },
                    "errorInfo": "",
                    "fromAddress": "0xa6897cce09980a302822256f875a7dcb1ebb79c9",
                    "gasUsed": 10397,
                    "id": 4,
                    "methodDecoded": true,
                    "operation": "CALL",
                    "output": "0x0000000000000000000000000000000000000000000000000000000000000001",
                    "revert": false,
                    "revertMessage": "",
                    "selector": "0xa9059cbb",
                    "status": true,
                    "value": "0"
                },
                "nodeType": 0
            },
            "5": {
                "event": {
                    "contract": "0x03c793511b835e41769432eb3a3ef4af02ab648c",
                    "decodedLog": {
                        "name": "Transfer",
                        "params": [
                            {
                                "name": "from",
                                "type": "address",
                                "value": "0xa6897cce09980a302822256f875a7dcb1ebb79c9"
                            },
                            {
                                "name": "to",
                                "type": "address",
                                "value": "0x6f6b24d4d9ace2107b47b894d6a66622def4c0d8"
                            },
                            {
                                "decimalAvailable": true,
                                "name": "value",
                                "type": "uint256",
                                "value": "0"
                            }
                        ],
                        "signature": "Transfer(address,address,uint256)"
                    },
                    "id": 5,
                    "logData": "0x0000000000000000000000000000000000000000000000000000000000000000",
                    "logDecoded": true,
                    "operation": "EVENT",
                    "revert": false,
                    "status": true,
                    "topics": [
                        "0xddf252ad1be2c89b69c2b068fc378daa952ba7f163c4a11628f55a4df523b3ef",
                        "0x000000000000000000000000a6897cce09980a302822256f875a7dcb1ebb79c9",
                        "0x0000000000000000000000006f6b24d4d9ace2107b47b894d6a66622def4c0d8"
                    ]
                },
                "nodeType": 1
            }
        },
        "gasFlame": [
            {
                "children": [
                    {
                        "children": [
                            {
                                "children": [],
                                "depth": 0,
                                "name": "Initial Gas",
                                "value": 21560
                            },
                            {
                                "children": [
                                    {
                                        "children": [],
                                        "depth": 1,
                                        "name": "transferFrom",
                                        "value": 13160
                                    },
                                    {
                                        "children": [],
                                        "depth": 1,
                                        "name": "transfer",
                                        "value": 10397
                                    }
                                ],
                                "depth": 0,
                                "name": "Executed Gas",
                                "value": 33133
                            }
                        ],
                        "depth": -1,
                        "name": "Actual Gas Used",
                        "value": 54693
                    },
                    {
                        "children": [],
                        "depth": -1,
                        "name": "Refunded Gas",
                        "value": 0
                    }
                ],
                "depth": -2,
                "name": "Total Gas",
                "value": 54693
            }
        ],
        "isConfirmed": true,
        "mainTrace": [
            {
                "children": [
                    {
                        "children": [
                            {
                                "children": [
                                    {
                                        "children": [],
                                        "depth": 2,
                                        "id": 2,
                                        "order": 2
                                    },
                                    {
                                        "children": [],
                                        "depth": 2,
                                        "id": 3,
                                        "order": 3
                                    }
                                ],
                                "depth": 1,
                                "id": 1,
                                "order": 1
                            },
                            {
                                "children": [
                                    {
                                        "children": [],
                                        "depth": 2,
                                        "id": 5,
                                        "order": 5
                                    }
                                ],
                                "depth": 1,
                                "id": 4,
                                "order": 4
                            }
                        ],
                        "depth": 0,
                        "id": 0,
                        "order": 0
                    }
                ],
                "depth": -1,
                "id": -1,
                "order": -1
            }
        ],
        "mainTraceNodeCount": 6,
        "parentIdMap": {
            "0": -1,
            "1": 0,
            "2": 1,
            "3": 1,
            "4": 0,
            "5": 4
        },
        "tidyTrace": [
            {
                "children": [
                    {
                        "children": [
                            {
                                "children": [
                                    {
                                        "children": [],
                                        "depth": 2,
                                        "id": 2,
                                        "order": 2
                                    },
                                    {
                                        "children": [],
                                        "depth": 2,
                                        "id": 3,
                                        "order": 3
                                    }
                                ],
                                "depth": 1,
                                "id": 1,
                                "order": 1
                            },
                            {
                                "children": [
                                    {
                                        "children": [],
                                        "depth": 2,
                                        "id": 5,
                                        "order": 5
                                    }
                                ],
                                "depth": 1,
                                "id": 4,
                                "order": 4
                            }
                        ],
                        "depth": 0,
                        "id": 0,
                        "order": 0
                    }
                ],
                "depth": -1,
                "id": -1,
                "order": -1
            }
        ],
        "tidyTraceNodeCount": 6
    },
    "state_change": {
        "stateChanges": []
    }
}