{
    "balance_change": {
        "balanceChanges": []
    },
    "profile": {
        "basic_info": {
            "baseFee": "",
            "blockNumber": 10635300,
            "callData": "0x4ab0d190e55d3bf071ffdf353dc702369bdf0b7ff9b07a98d6bf78bc0febd2d8cac8632a00000000000000000000000000000000000000000000000006f05b59d3b200000000000000000000000000003dbb9fa54efc244e1823b5782be8a08cc143ea5e6a9705b400000000000000000000000000000000000000000000000000000000000000000000000000000000000000000000000000000000000000005f31e0d2000000000000000000000000000000000000000000000000000181df0ea38c00",
            "debugEnable": true,
            "errorInfo": "",
            "eventCount": 2,
            "feeRecipient": "0xea674fdde714fd979de3edf0f56aa9716b898ec8",
            "formatValue": "0",
            "gasLimit": 500000,
            "gasPrice": "96.8",
            "gasUsed": 42210,
            "intTxnCount": 1,
            "internalRevert": false,
            "internalRevertMessage": "",
            "isContractCreation": false,
            "isFlashloan": false,
            "maxFee": "",
            "nonce": 3015,
            "overwritedBlockNumber": -1,
            "priorityFee": "",
            "receiver": "0x58eb922f60ae3d7a8b9f6ccbe7ae4f05431f998c",
            "revertMessage": "",
            "sender": "0xab76e1200b94004a13425fa006f0bb28577590c3",
            "simulationEnable": true,
            "sourceTxnHash": "0xe2a59be5979204faf649acb4208d64907d2a6fcc772234bc9190239ecf9bb053",
            "status": true,
            "timestamp": "2020-08-11T00:01:15Z",
            "transactionFee": "0.004085928",
            "txnHash": "0xe2a59be5979204faf649acb4208d64907d2a6fcc772234bc9190239ecf9bb053",
            "txnIndex": 30,
            "type": 0,
            "value": "0"
        },
        "fund_flow": [],
        "token_infos": [
            {
                "address": "0xc02aaa39b223fe8d0a0e5c4f27ead9083c756cc2",
                "decimals": 18
            },
            {
                "address": "0xeeeeeeeeeeeeeeeeeeeeeeeeeeeeeeeeeeeeeeee",
                "decimals": 18
            }
        ]
    },
    "address_label": {
        "labels": [
            {
                "address": "0x0000000000000000000000000000000000000002",
                "label": "Precompiled"
            },
            {
                "address": "0x0000000000000000000000000000000000000003",
                "label": "Precompiled"
            },
            {
                "address": "0x0000000000000000000000000000000000000004",
                "label": "Precompiled"
            },
            {
                "address": "0xeeeeeeeeeeeeeeeeeeeeeeeeeeeeeeeeeeeeeeee",
                "label": "Ether"
            },
            {
                "address": "0x3dbb9fa54efc244e1823b5782be8a08cc143ea5e",
                "label": "Aggregator"
            },
            {
                "address": "0x58eb922f60ae3d7a8b9f6ccbe7ae4f05431f998c",
                "label": "Oracle"
            },
            {
                "address": "0x0000000000000000000000000000000000000001",
                "label": "Precompiled"
            }
        ]
    },
    "trace": {
        "accountLabels": null,
        "dataMap": {
            "-1": {
                "invocation": {
                    "address": "0xab76e1200b94004a13425fa006f0bb28577590c3",
                    "callData": "",
                    "decodedMethod": null,
                    "errorInfo": "",
                    "fromAddress": "",
                    "gasUsed": 0,
                    "id": -1,
                    "methodDecoded": false,
                    "operation": "",
                    "output": "",
                    "revert": false,
                    "revertMessage": "",
                    "selector": "",
                    "status": false,
                    "value": ""
                },
                "nodeType": 0
            },
            "0": {
                "invocation": {
                    "address": "0x58eb922f60ae3d7a8b9f6ccbe7ae4f05431f998c",
                    "callData": "0xe55d3bf071ffdf353dc702369bdf0b7ff9b07a98d6bf78bc0febd2d8cac8632a00000000000000000000000000000000000000000000000006f05b59d3b200000000000000000000000000003dbb9fa54efc244e1823b5782be8a08cc143ea5e6a9705b400000000000000000000000000000000000000000000000000000000000000000000000000000000000000000000000000000000000000005f31e0d2000000000000000000000000000000000000000000000000000181df0ea38c00",
                    "decodedMethod": {
                        "callParams": [
                            {
                                "name": "_requestId",
                                "type": "bytes32",
                                "value": "0xe55d3bf071ffdf353dc702369bdf0b7ff9b07a98d6bf78bc0febd2d8cac8632a"
                            },
                            {
                                "name": "_payment",
                                "type": "uint256",
                                "value": "500,000,000,000,000,000"
                            },
                            {
                                "name": "_callbackAddress",
                                "type": "address",
                                "value": "0x3dbb9fa54efc244e1823b5782be8a08cc143ea5e"
                            },
                            {
                                "name": "_callbackFunctionId",
                                "type": "bytes4",
                                "value": "0x6a9705b4"
                            },
                            {
                                "name": "_expiration",
                                "type": "uint256",
                                "value": "1,597,104,338"
                            },
                            {
                                "name": "_data",
                                "type": "bytes32",
                                "value": "0x000000000000000000000000000000000000000000000000000181df0ea38c00"
                            }
                        ],
                        "constructorArguments": "",
                        "name": "fulfillOracleRequest",
                        "returnParams": [
                            {
                                "name": "",
                                "type": "bool",
                                "value": true
                            }
                        ],
                        "signature": "fulfillOracleRequest(bytes32,uint256,address,bytes4,uint256,bytes32)"
                    },
                    "errorInfo": "",
                    "fromAddress": "0xab76e1200b94004a13425fa006f0bb28577590c3",
                    "gasUsed": 42210,
                    "id": 0,
                    "methodDecoded": true,
                    "operation": "CALL",
                    "output": "0x0000000000000000000000000000000000000000000000000000000000000001",
                    "revert": false,
                    "revertMessage": "",
                    "selector": "0x4ab0d190",
                    "status": true,
                    "value": "0"
                },
                "nodeType": 0
            },
            "1": {
                "invocation": {
                    "address": "0x3dbb9fa54efc244e1823b5782be8a08cc143ea5e",
                    "callData": "0xe55d3bf071ffdf353dc702369bdf0b7ff9b07a98d6bf78bc0febd2d8cac8632a000000000000000000000000000000000000000000000000000181df0ea38c00",
                    "decodedMethod": {
                        "callParams": [
                            {
                                "name": "_clRequestId",
                                "type": "bytes32",
                                "value": "0xe55d3bf071ffdf353dc702369bdf0b7ff9b07a98d6bf78bc0febd2d8cac8632a"
                            },
                            {
                                "name": "_response",
                                "type": "int256",
                                "value": "424,270,000,000,000"
                            }
                        ],
                        "constructorArguments": "",
                        "name": "chainlinkCallback",
                        "returnParams": [],
                        "signature": "chainlinkCallback(bytes32,int256)"
                    },
                    "errorInfo": "",
                    "fromAddress": "0x58eb922f60ae3d7a8b9f6ccbe7ae4f05431f998c",
                    "gasUsed": 45918,
                    "id": 1,
                    "methodDecoded": true,
                    "operation": "CALL",
                    "output": "",
                    "revert": false,
                    "revertMessage": "",
                    "selector": "0x6a9705b4",
                    "status": true,
                    "value": "0"
                },
                "nodeType": 0
            },
            "2": {
                "event": {
                    "contract": "0x3dbb9fa54efc244e1823b5782be8a08cc143ea5e",
                    "decodedLog": {
                        "name": "ChainlinkFulfilled",
                        "params": [
                            {
                                "name": "id",
                                "type": "bytes32",
                                "value": "0xe55d3bf071ffdf353dc702369bdf0b7ff9b07a98d6bf78bc0febd2d8cac8632a"
                            }
                        ],
                        "signature": "ChainlinkFulfilled(bytes32)"
                    },
                    "id": 2,
                    "logData": "0x",
                    "logDecoded": true,
                    "operation": "EVENT",
                    "revert": false,
                    "status": true,
                    "topics": [
                        "0x7cc135e0cebb02c3480ae5d74d377283180a2601f8f644edf7987b009316c63a",
                        "0xe55d3bf071ffdf353dc702369bdf0b7ff9b07a98d6bf78bc0febd2d8cac8632a"
                    ]
                },
                "nodeType": 1
            },
            "3": {
                "event": {
                    "contract": "0x3dbb9fa54efc244e1823b5782be8a08cc143ea5e",
                    "decodedLog": {
                        "name": "ResponseReceived",
                        "params": [
                            {
                                "name": "response",
                                "type": "int256",
                                "value": "424,270,000,000,000"
                            },
                            {
                                "name": "answerId",
                                "type": "uint256",
                                "value": "144"
                            },
                            {
                                "name": "sender",
                                "type": "address",
                                "value": "0x58eb922f60ae3d7a8b9f6ccbe7ae4f05431f998c"
                            }
                        ],
                        "signature": "ResponseReceived(int256,uint256,address)"
                    },
                    "id": 3,
                    "logData": "0x",
                    "logDecoded": true,
                    "operation": "EVENT",
                    "revert": false,
                    "status": true,
                    "topics": [
                        "0xb51168059c83c860caf5b830c5d2e64c2172c6fb2fe9f25447d9838e18d93b60",
                        "0x000000000000000000000000000000000000000000000000000181df0ea38c00",
                        "0x0000000000000000000000000000000000000000000000000000000000000090",
                        "0x00000000000000000000000058eb922f60ae3d7a8b9f6ccbe7ae4f05431f998c"
                    ]
                },
                "nodeType": 1
            }
        },
        "gasFlame": [
            {
                "children": [
                    {
                        "children": [
                            {
                                "children": [],
                                "depth": 0,
                                "name": "Initial Gas",
                                "value": 22696
                            },
                            {
                                "children": [
                                    {
                                        "children": [],
                                        "depth": 1,
                                        "name": "chainlinkCallback",
                                        "value": 45918
                                    }
                                ],
                                "depth": 0,
                                "name": "Executed Gas",
                                "value": 61724
                            }
                        ],
                        "depth": -1,
                        "name": "Actual Gas Used",
                        "value": 42210
                    },
                    {
                        "children": [],
                        "depth": -1,
                        "name": "Refunded Gas",
                        "value": 42210
                    }
                ],
                "depth": -2,
                "name": "Total Gas",
                "value": 84420
            }
        ],
        "isConfirmed": true,
        "mainTrace": [
            {
                "children": [
                    {
                        "children": [
                            {
                                "children": [
                                    {
                                        "children": [],
                                        "depth": 2,
                                        "id": 2,
                                        "order": 2
                                    },
                                    {
                                        "children": [],
                                        "depth": 2,
                                        "id": 3,
                                        "order": 3
                                    }
                                ],
                                "depth": 1,
                                "id": 1,
                                "order": 1
                            }
                        ],
                        "depth": 0,
                        "id": 0,
                        "order": 0
                    }
                ],
                "depth": -1,
                "id": -1,
                "order": -1
            }
        ],
        "mainTraceNodeCount": 4,
        "parentIdMap": {
            "0": -1,
            "1": 0,
            "2": 1,
            "3": 1
        },
        "tidyTrace": [
            {
                "children": [
                    {
                        "children": [
                            {
                                "children": [
                                    {
                                        "children": [],
                                        "depth": 2,
                                        "id": 2,
                                        "order": 2
                                    },
                                    {
                                        "children": [],
                                        "depth": 2,
                                        "id": 3,
                                        "order": 3
                                    }
                                ],
                                "depth": 1,
                                "id": 1,
                                "order": 1
                            }
                        ],
                        "depth": 0,
                        "id": 0,
                        "order": 0
                    }
                ],
                "depth": -1,
                "id": -1,
                "order": -1
            }
        ],
        "tidyTraceNodeCount": 4
    },
    "state_change": {
        "stateChanges": [
            {
                "address": "0x3dbb9fa54efc244e1823b5782be8a08cc143ea5e",
                "erc": "",
                "slots": [
                    {
                        "current": "0x0000000000000000000000000000000000000000000000000000000000000000",
                        "key": "0x17e79d3ac34cc9b7c85365f8c9303dffb46ec6e21122a40a596566efb372ac9c",
                        "prev": "0x00000000000000000000000058eb922f60ae3d7a8b9f6ccbe7ae4f05431f998c"
                    },
                    {
                        "current": "0x0000000000000000000000000000000000000000000000000000000000000000",
                        "key": "0xd7f8d42b1a2ea143ddcb6e2114d73b0440ae0cbc3c930430158bfa51a3848e5b",
                        "prev": "0x0000000000000000000000000000000000000000000000000000000000000090"
                    },
                    {
                        "current": "0x0000000000000000000000000000000000000000000000000000000000000003",
                        "key": "0x3a339ce61b6c3e92d729de1878dcd41a6855c7b8daa5736e8ecda7272d9c9fa2",
                        "prev": "0x0000000000000000000000000000000000000000000000000000000000000002"
                    },
                    {
                        "current": "0x000000000000000000000000000000000000000000000000000181df0ea38c00",
                        "key": "0x5662392c67b98ccaee3ea6fb63721aa734951e6c7b2b9b8dd4336dd6e1a2ea80",
                        "prev": "0x0000000000000000000000000000000000000000000000000000000000000000"
                    }
                ],
                "storageVariables": [
                    {
                        "name": "answers",
                        "type": "mapping(uint256 => struct Aggregator.Answer)",
                        "value": {
                            "pairs": [
                                {
                                    "key": "144",
                                    "value": {
                                        "fields": [
                                            {
                                                "name": "responses",
                                                "type": "int256[]",
                                                "value": {
                                                    "elemType": "int256",
                                                    "elems": [
                                                        {
                                                            "index": 2,
                                                            "value": {
                                                                "current": "424270000000000",
                                                                "prev": "0",
                                                                "typeTag": 1
                                                            }
                                                        }
                                                    ],
                                                    "typeTag": 2
                                                }
                                            }
                                        ],
                                        "typeTag": 3
                                    }
                                }
                            ],
                            "typeTag": 4
                        }
                    },
                    {
                        "name": "pendingRequests",
                        "type": "mapping(bytes32 => address)",
                        "value": {
                            "pairs": [
                                {
                                    "key": "0xe55d3bf071ffdf353dc702369bdf0b7ff9b07a98d6bf78bc0febd2d8cac8632a",
                                    "value": {
                                        "current": "0x0000000000000000000000000000000000000000",
                                        "prev": "0x58eb922f60ae3d7a8b9f6ccbe7ae4f05431f998c",
                                        "typeTag": 1
                                    }
                                }
                            ],
                            "typeTag": 4
                        }
                    },
                    {
                        "name": "requestAnswers",
                        "type": "mapping(bytes32 => uint256)",
                        "value": {
                            "pairs": [
                                {
                                    "key": "0xe55d3bf071ffdf353dc702369bdf0b7ff9b07a98d6bf78bc0febd2d8cac8632a",
                                    "value": {
                                        "current": "0",
                                        "prev": "144",
                                        "typeTag": 1
                                    }
                                }
                            ],
                            "typeTag": 4
                        }
                    }
                ]
            },
            {
                "address": "0x58eb922f60ae3d7a8b9f6ccbe7ae4f05431f998c",
                "erc": "",
                "slots": [
                    {
                        "current": "0x0000000000000000000000000000000000000000000000000000000000000000",
                        "key": "0x8b6b32ad5f5f7fe6b4c37707fdb2399e5115738d773240bcaa4e4313e3851e9d",
                        "prev": "0xfa9c7507556ae42288b4eb8ee3092b0cc1b5eafc3bfa69b8099d149ed9d8feb8"
                    },
                    {
                        "current": "0x0000000000000000000000000000000000000000000000074a01e199b3060001",
                        "key": "0x0000000000000000000000000000000000000000000000000000000000000004",
                        "prev": "0x0000000000000000000000000000000000000000000000074311863fdf540001"
                    }
                ],
                "storageVariables": [
                    {
                        "name": "commitments",
                        "type": "mapping(bytes32 => bytes32)",
                        "value": {
                            "pairs": [
                                {
                                    "key": "0xe55d3bf071ffdf353dc702369bdf0b7ff9b07a98d6bf78bc0febd2d8cac8632a",
                                    "value": {
                                        "current": "0x0000000000000000000000000000000000000000000000000000000000000000",
                                        "prev": "0xfa9c7507556ae42288b4eb8ee3092b0cc1b5eafc3bfa69b8099d149ed9d8feb8",
                                        "typeTag": 1
                                    }
                                }
                            ],
                            "typeTag": 4
                        }
                    },
                    {
                        "name": "withdrawableTokens",
                        "type": "uint256",
                        "value": {
                            "current": "134460000000000000001",
                            "prev": "133960000000000000001",
                            "typeTag": 1
                        }
                    }
                ]
            }
        ]
    }
}