{
    "balance_change": {
        "balanceChanges": [
            {
                "account": "0x1ae094f46ab5a2003a1e6fdc979038e681ada72a",
                "assets": [
                    {
                        "address": "0x97a9a15168c22b3c137e6381037e1499c8ad0978",
                        "amount": "467.76",
                        "iconUrl": "",
                        "isERC1155": false,
                        "isERC721": false,
                        "sign": true,
                        "value": ""
                    }
                ]
            },
            {
                "account": "0x6e97eac711f309bf18d536a92428b13280d6f6e7",
                "assets": [
                    {
                        "address": "0x97a9a15168c22b3c137e6381037e1499c8ad0978",
                        "amount": "467.76",
                        "iconUrl": "",
                        "isERC1155": false,
                        "isERC721": false,
                        "sign": false,
                        "value": ""
                    }
                ]
            }
        ]
    },
    "profile": {
        "basic_info": {
            "baseFee": "4.104338348",
            "blockNumber": 19897567,
            "callData": "0x83092e470000000000000000000000000000000000000000000000195b7959b388b80000000000000000000000000000000000000000000000000000000000000000012000000000000000000000000000000000000000000000000000000000000003c000000000000000000000000000000000000000000000000000000000000003e0000000000000000000000000000000000000000000000000000000000000000000000000000000000000000000000000000000000000000000000000000000000000000000000000000000000000000000000000000000000000000000000000000000000000000000000000000000000000000000000000000000000000000000000000000000000000000000000000000000000000000000000000000000000000000000000000000000000000000000000000000000000000000000000014c21c825d71aff13d514ce1b6b7410790903128c0a485121e42eba8cc10496acedf0958c07e345b50389ed914455b7d826497623134e875db636ba635370487e3a536aca655053061f9f8267bc7c50290982cef0346d57610e749f53afa14306bc7d74c26899c3b45885a91ebd076bd2f21da1e7440b331c51aae58af1f15c8cc699e27c7ba1b0f304a29bc6b6d3b9ee36427067a1fed8712dbfc23562787133f27bd8f2681367c957b1ede1fb61fcfc665ca1eeac32dad7ebdd7c87200b5207d512375aebebd0d933a3370cd715920d9cea2631ba5108e60df7ed2728ff86dde61441450ad63d584f12a60f13e031c359cefbf03d92f678f31a85eed3c1c8fd8003751d558c5b4a68751af7b6d16b94098ee31c8e3f75c8e4f450edba6b737e47d07948200201a480afd61f5e3784f9165e605f190e978bdf9597339c17cf5dc6106bff3ef8d31e2bc6b24584784e3c7a1eced245975b0fa36ecd59a4f68191a3638f700334eb4a49a5e3cdd6fce127dc5b916f60d4beb5826ecef635559b714acf81196c6a6e1ad4b520bb5a3e560a50a1238e74ebfe14258153bdf0f7aea68139b3adefc79c24b03b89df02dd7149a8136f4aa1b5ed006787e4ec3c9f860cb761e3d1f977fe9a14d07096a25d8bfce21ecacea40e0b78a87118eb53f8ee9146a5d2d2a7aa4575ceeae759a4c0addde657492f6536270701ed6d53b9ec0d26c03a92f0708a63188f5aacb086e96c96c058a963b09a2e3bd55a9d1322f5d77e0adb5bade8215257ca7f1ed050da79346ee167b9ce05f64a1b91b41f91067ff0ee40022f35c64e03d7c8f1f64a8bf3c1474d708af2286ebebe542bde0862edfb013873d0cedc2e2e752fe449bb7c0a0ca3fbeca803ffab475b40171e94f031b5700000000000000000000000000000000000000000000000000000000000000000000000000000000000000000000000000000000000000000000000000000000",
            "debugEnable": true,
            "errorInfo": "",
            "eventCount": 2,
            "feeRecipient": "0x1f9090aae28b8a3dceadf281b0f12828e676c326",
            "formatValue": "0",
            "gasLimit": 196563,
            "gasPrice": "4.604338348",
            "gasUsed": 125661,
            "intTxnCount": 1,
            "internalRevert": false,
            "internalRevertMessage": "",
            "isContractCreation": false,
            "isFlashloan": false,
            "maxFee": "6.0485",
            "nonce": 0,
            "overwritedBlockNumber": -1,
            "priorityFee": "0.5",
            "receiver": "0x35f4817b14718c66dbbdba085f5f8d2c3a4aa420",
            "revertMessage": "",
            "sender": "0x1ae094f46ab5a2003a1e6fdc979038e681ada72a",
            "simulationEnable": true,
            "sourceTxnHash": "0xe25d50c385bf1d3287031a017a12003540fbff71e68cc103365309af34998f80",
            "status": true,
            "timestamp": "2024-05-18T14:56:35Z",
            "transactionFee": "0.000578585761148028",
            "txnHash": "0xe25d50c385bf1d3287031a017a12003540fbff71e68cc103365309af34998f80",
            "txnIndex": 88,
            "type": 2,
            "value": "0"
        },
        "fund_flow": [
            {
                "amount": "467.76",
                "from": "0x6e97eac711f309bf18d536a92428b13280d6f6e7",
                "id": 1,
                "isERC1155": false,
                "isERC721": false,
                "isReverted": false,
                "order": 1,
                "to": "0x1ae094f46ab5a2003a1e6fdc979038e681ada72a",
                "token": "0x97a9a15168c22b3c137e6381037e1499c8ad0978"
            }
        ],
        "token_infos": [
            {
                "address": "0x97a9a15168c22b3c137e6381037e1499c8ad0978",
                "decimals": 18
            },
            {
                "address": "0xc02aaa39b223fe8d0a0e5c4f27ead9083c756cc2",
                "decimals": 18
            },
            {
                "address": "0xeeeeeeeeeeeeeeeeeeeeeeeeeeeeeeeeeeeeeeee",
                "decimals": 18
            }
        ]
    },
    "address_label": {
        "labels": [
            {
                "address": "0x35f4817b14718c66dbbdba085f5f8d2c3a4aa420",
                "label": "DopClaims"
            },
            {
                "address": "0x0000000000000000000000000000000000000001",
                "label": "Precompiled"
            },
            {
                "address": "0x0000000000000000000000000000000000000002",
                "label": "Precompiled"
            },
            {
                "address": "0x0000000000000000000000000000000000000003",
                "label": "Precompiled"
            },
            {
                "address": "0x0000000000000000000000000000000000000004",
                "label": "Precompiled"
            },
            {
                "address": "0xeeeeeeeeeeeeeeeeeeeeeeeeeeeeeeeeeeeeeeee",
                "label": "Ether"
            },
            {
                "address": "0x97a9a15168c22b3c137e6381037e1499c8ad0978",
                "label": "Data Ownership Protocol: DOP Token"
            },
            {
                "address": "0x6e97eac711f309bf18d536a92428b13280d6f6e7",
                "label": "GnosisSafeProxy_6e97_f6e7"
            }
        ]
    },
    "trace": {
        "accountLabels": null,
        "dataMap": {
            "-1": {
                "invocation": {
                    "address": "0x1ae094f46ab5a2003a1e6fdc979038e681ada72a",
                    "callData": "",
                    "decodedMethod": null,
                    "errorInfo": "",
                    "fromAddress": "",
                    "gasUsed": 0,
                    "id": -1,
                    "methodDecoded": false,
                    "operation": "",
                    "output": "",
                    "revert": false,
                    "revertMessage": "",
                    "selector": "",
                    "status": false,
                    "value": ""
                },
                "nodeType": 0
            },
            "0": {
                "invocation": {
                    "address": "0x35f4817b14718c66dbbdba085f5f8d2c3a4aa420",
                    "callData": "0x0000000000000000000000000000000000000000000000195b7959b388b80000000000000000000000000000000000000000000000000000000000000000012000000000000000000000000000000000000000000000000000000000000003c000000000000000000000000000000000000000000000000000000000000003e0000000000000000000000000000000000000000000000000000000000000000000000000000000000000000000000000000000000000000000000000000000000000000000000000000000000000000000000000000000000000000000000000000000000000000000000000000000000000000000000000000000000000000000000000000000000000000000000000000000000000000000000000000000000000000000000000000000000000000000000000000000000000000000000014c21c825d71aff13d514ce1b6b7410790903128c0a485121e42eba8cc10496acedf0958c07e345b50389ed914455b7d826497623134e875db636ba635370487e3a536aca655053061f9f8267bc7c50290982cef0346d57610e749f53afa14306bc7d74c26899c3b45885a91ebd076bd2f21da1e7440b331c51aae58af1f15c8cc699e27c7ba1b0f304a29bc6b6d3b9ee36427067a1fed8712dbfc23562787133f27bd8f2681367c957b1ede1fb61fcfc665ca1eeac32dad7ebdd7c87200b5207d512375aebebd0d933a3370cd715920d9cea2631ba5108e60df7ed2728ff86dde61441450ad63d584f12a60f13e031c359cefbf03d92f678f31a85eed3c1c8fd8003751d558c5b4a68751af7b6d16b94098ee31c8e3f75c8e4f450edba6b737e47d07948200201a480afd61f5e3784f9165e605f190e978bdf9597339c17cf5dc6106bff3ef8d31e2bc6b24584784e3c7a1eced245975b0fa36ecd59a4f68191a3638f700334eb4a49a5e3cdd6fce127dc5b916f60d4beb5826ecef635559b714acf81196c6a6e1ad4b520bb5a3e560a50a1238e74ebfe14258153bdf0f7aea68139b3adefc79c24b03b89df02dd7149a8136f4aa1b5ed006787e4ec3c9f860cb761e3d1f977fe9a14d07096a25d8bfce21ecacea40e0b78a87118eb53f8ee9146a5d2d2a7aa4575ceeae759a4c0addde657492f6536270701ed6d53b9ec0d26c03a92f0708a63188f5aacb086e96c96c058a963b09a2e3bd55a9d1322f5d77e0adb5bade8215257ca7f1ed050da79346ee167b9ce05f64a1b91b41f91067ff0ee40022f35c64e03d7c8f1f64a8bf3c1474d708af2286ebebe542bde0862edfb013873d0cedc2e2e752fe449bb7c0a0ca3fbeca803ffab475b40171e94f031b5700000000000000000000000000000000000000000000000000000000000000000000000000000000000000000000000000000000000000000000000000000000",
                    "decodedMethod": {
                        "callParams": [
                            {
                                "name": "amountToClaim",
                                "type": "uint256",
                                "value": "467,760,000,000,000,000,000"
                            },
                            {
                                "name": "merkleProof",
                                "type": "bytes32[]",
                                "value": [
                                    "0xc21c825d71aff13d514ce1b6b7410790903128c0a485121e42eba8cc10496ace",
                                    "0xdf0958c07e345b50389ed914455b7d826497623134e875db636ba635370487e3",
                                    "0xa536aca655053061f9f8267bc7c50290982cef0346d57610e749f53afa14306b",
                                    "0xc7d74c26899c3b45885a91ebd076bd2f21da1e7440b331c51aae58af1f15c8cc",
                                    "0x699e27c7ba1b0f304a29bc6b6d3b9ee36427067a1fed8712dbfc23562787133f",
                                    "0x27bd8f2681367c957b1ede1fb61fcfc665ca1eeac32dad7ebdd7c87200b5207d",
                                    "0x512375aebebd0d933a3370cd715920d9cea2631ba5108e60df7ed2728ff86dde",
                                    "0x61441450ad63d584f12a60f13e031c359cefbf03d92f678f31a85eed3c1c8fd8",
                                    "0x003751d558c5b4a68751af7b6d16b94098ee31c8e3f75c8e4f450edba6b737e4",
                                    "0x7d07948200201a480afd61f5e3784f9165e605f190e978bdf9597339c17cf5dc",
                                    "0x6106bff3ef8d31e2bc6b24584784e3c7a1eced245975b0fa36ecd59a4f68191a",
                                    "0x3638f700334eb4a49a5e3cdd6fce127dc5b916f60d4beb5826ecef635559b714",
                                    "0xacf81196c6a6e1ad4b520bb5a3e560a50a1238e74ebfe14258153bdf0f7aea68",
                                    "0x139b3adefc79c24b03b89df02dd7149a8136f4aa1b5ed006787e4ec3c9f860cb",
                                    "0x761e3d1f977fe9a14d07096a25d8bfce21ecacea40e0b78a87118eb53f8ee914",
                                    "0x6a5d2d2a7aa4575ceeae759a4c0addde657492f6536270701ed6d53b9ec0d26c",
                                    "0x03a92f0708a63188f5aacb086e96c96c058a963b09a2e3bd55a9d1322f5d77e0",
                                    "0xadb5bade8215257ca7f1ed050da79346ee167b9ce05f64a1b91b41f91067ff0e",
                                    "0xe40022f35c64e03d7c8f1f64a8bf3c1474d708af2286ebebe542bde0862edfb0",
                                    "0x13873d0cedc2e2e752fe449bb7c0a0ca3fbeca803ffab475b40171e94f031b57"
                                ]
                            },
                            {
                                "name": "ids",
                                "type": "uint256[]",
                                "value": []
                            },
                            {
                                "name": "quantity",
                                "type": "uint256[]",
                                "value": []
                            },
                            {
                                "name": "claimNFT",
                                "type": "bool",
                                "value": false
                            },
                            {
                                "name": "isKycRequired",
                                "type": "bool",
                                "value": false
                            },
                            {
                                "name": "v",
                                "type": "uint8",
                                "value": "0"
                            },
                            {
                                "name": "r",
                                "type": "bytes32",
                                "value": "0x0000000000000000000000000000000000000000000000000000000000000000"
                            },
                            {
                                "name": "s",
                                "type": "bytes32",
                                "value": "0x0000000000000000000000000000000000000000000000000000000000000000"
                            }
                        ],
                        "constructorArguments": "",
                        "name": "claimDop",
                        "returnParams": [],
                        "signature": "claimDop(uint256,bytes32[],uint256[],uint256[],bool,bool,uint8,bytes32,bytes32)"
                    },
                    "errorInfo": "",
                    "fromAddress": "0x1ae094f46ab5a2003a1e6fdc979038e681ada72a",
                    "gasUsed": 125661,
                    "id": 0,
                    "methodDecoded": true,
                    "operation": "CALL",
                    "output": "",
                    "revert": false,
                    "revertMessage": "",
                    "selector": "0x83092e47",
                    "status": true,
                    "value": "0"
                },
                "nodeType": 0
            },
            "1": {
                "invocation": {
                    "address": "0x97a9a15168c22b3c137e6381037e1499c8ad0978",
                    "callData": "0x0000000000000000000000006e97eac711f309bf18d536a92428b13280d6f6e70000000000000000000000001ae094f46ab5a2003a1e6fdc979038e681ada72a0000000000000000000000000000000000000000000000195b7959b388b80000",
                    "decodedMethod": {
                        "callParams": [
                            {
                                "name": "from",
                                "type": "address",
                                "value": "0x6e97eac711f309bf18d536a92428b13280d6f6e7"
                            },
                            {
                                "name": "to",
                                "type": "address",
                                "value": "0x1ae094f46ab5a2003a1e6fdc979038e681ada72a"
                            },
                            {
                                "decimalAvailable": true,
                                "name": "value",
                                "type": "uint256",
                                "value": "467,760,000,000,000,000,000"
                            }
                        ],
                        "constructorArguments": "",
                        "name": "transferFrom",
                        "returnParams": [
                            {
                                "name": "",
                                "type": "bool",
                                "value": true
                            }
                        ],
                        "signature": "transferFrom(address,address,uint256)"
                    },
                    "errorInfo": "",
                    "fromAddress": "0x35f4817b14718c66dbbdba085f5f8d2c3a4aa420",
                    "gasUsed": 39836,
                    "id": 1,
                    "methodDecoded": true,
                    "operation": "CALL",
                    "output": "0x0000000000000000000000000000000000000000000000000000000000000001",
                    "revert": false,
                    "revertMessage": "",
                    "selector": "0x23b872dd",
                    "status": true,
                    "value": "0"
                },
                "nodeType": 0
            },
            "2": {
                "event": {
                    "contract": "0x97a9a15168c22b3c137e6381037e1499c8ad0978",
                    "decodedLog": {
                        "name": "Transfer",
                        "params": [
                            {
                                "name": "from",
                                "type": "address",
                                "value": "0x6e97eac711f309bf18d536a92428b13280d6f6e7"
                            },
                            {
                                "name": "to",
                                "type": "address",
                                "value": "0x1ae094f46ab5a2003a1e6fdc979038e681ada72a"
                            },
                            {
                                "decimalAvailable": true,
                                "name": "value",
                                "type": "uint256",
                                "value": "467,760,000,000,000,000,000"
                            }
                        ],
                        "signature": "Transfer(address,address,uint256)"
                    },
                    "id": 2,
                    "logData": "0x0000000000000000000000000000000000000000000000195b7959b388b80000",
                    "logDecoded": true,
                    "operation": "EVENT",
                    "revert": false,
                    "status": true,
                    "topics": [
                        "0xddf252ad1be2c89b69c2b068fc378daa952ba7f163c4a11628f55a4df523b3ef",
                        "0x0000000000000000000000006e97eac711f309bf18d536a92428b13280d6f6e7",
                        "0x0000000000000000000000001ae094f46ab5a2003a1e6fdc979038e681ada72a"
                    ]
                },
                "nodeType": 1
            },
            "3": {
                "event": {
                    "contract": "0x35f4817b14718c66dbbdba085f5f8d2c3a4aa420",
                    "decodedLog": {
                        "name": "Claimed",
                        "params": [
                            {
                                "name": "by",
                                "type": "address",
                                "value": "0x1ae094f46ab5a2003a1e6fdc979038e681ada72a"
                            },
                            {
                                "name": "ids",
                                "type": "uint256[]",
                                "value": "0xc5d2460186f7233c927e7db2dcc703c0e500b653ca82273b7bfad8045d85a470"
                            },
                            {
                                "name": "quantity",
                                "type": "uint256[]",
                                "value": "0xc5d2460186f7233c927e7db2dcc703c0e500b653ca82273b7bfad8045d85a470"
                            },
                            {
                                "name": "dopAmount",
                                "type": "uint256",
                                "value": "467,760,000,000,000,000,000"
                            }
                        ],
                        "signature": "Claimed(address,uint256,uint256[],uint256[])"
                    },
                    "id": 3,
                    "logData": "0x0000000000000000000000000000000000000000000000195b7959b388b80000",
                    "logDecoded": true,
                    "operation": "EVENT",
                    "revert": false,
                    "status": true,
                    "topics": [
                        "0x42103fa0eeaa26645ba1c99347e3c5a902bdf5fe04e611affb25c41d72e438aa",
                        "0x0000000000000000000000001ae094f46ab5a2003a1e6fdc979038e681ada72a",
                        "0xc5d2460186f7233c927e7db2dcc703c0e500b653ca82273b7bfad8045d85a470",
                        "0xc5d2460186f7233c927e7db2dcc703c0e500b653ca82273b7bfad8045d85a470"
                    ]
                },
                "nodeType": 1
            }
        },
        "gasFlame": [
            {
                "children": [
                    {
                        "children": [
                            {
                                "children": [],
                                "depth": 0,
                                "name": "Initial Gas",
                                "value": 32948
                            },
                            {
                                "children": [
                                    {
                                        "children": [],
                                        "depth": 1,
                                        "name": "transferFrom",
                                        "value": 39836
                                    }
                                ],
                                "depth": 0,
                                "name": "Executed Gas",
                                "value": 95513
                            }
                        ],
                        "depth": -1,
                        "name": "Actual Gas Used",
                        "value": 125661
                    },
                    {
                        "children": [],
                        "depth": -1,
                        "name": "Refunded Gas",
                        "value": 2800
                    }
                ],
                "depth": -2,
                "name": "Total Gas",
                "value": 128461
            }
        ],
        "isConfirmed": true,
        "mainTrace": [
            {
                "children": [
                    {
                        "children": [
                            {
                                "children": [
                                    {
                                        "children": [],
                                        "depth": 2,
                                        "id": 2,
                                        "order": 2
                                    }
                                ],
                                "depth": 1,
                                "id": 1,
                                "order": 1
                            },
                            {
                                "children": [],
                                "depth": 1,
                                "id": 3,
                                "order": 3
                            }
                        ],
                        "depth": 0,
                        "id": 0,
                        "order": 0
                    }
                ],
                "depth": -1,
                "id": -1,
                "order": -1
            }
        ],
        "mainTraceNodeCount": 4,
        "parentIdMap": {
            "0": -1,
            "1": 0,
            "2": 1,
            "3": 0
        },
        "tidyTrace": [
            {
                "children": [
                    {
                        "children": [
                            {
                                "children": [
                                    {
                                        "children": [],
                                        "depth": 2,
                                        "id": 2,
                                        "order": 2
                                    }
                                ],
                                "depth": 1,
                                "id": 1,
                                "order": 1
                            },
                            {
                                "children": [],
                                "depth": 1,
                                "id": 3,
                                "order": 3
                            }
                        ],
                        "depth": 0,
                        "id": 0,
                        "order": 0
                    }
                ],
                "depth": -1,
                "id": -1,
                "order": -1
            }
        ],
        "tidyTraceNodeCount": 4
    },
    "state_change": {
        "stateChanges": [
            {
                "address": "0x35f4817b14718c66dbbdba085f5f8d2c3a4aa420",
                "erc": "",
                "slots": [
                    {
                        "current": "0x0000000000000000000000000000000000000000000000000000000000000001",
                        "key": "0x17c04ed031186855906388a51022693d90c63c629a99bb92d7021d75b237df21",
                        "prev": "0x0000000000000000000000000000000000000000000000000000000000000000"
                    }
                ],
                "storageVariables": [
                    {
                        "name": "isClaimed",
                        "type": "mapping(address => bool)",
                        "value": {
                            "pairs": [
                                {
                                    "key": "0x1ae094f46ab5a2003a1e6fdc979038e681ada72a",
                                    "value": {
                                        "current": "true",
                                        "prev": "false",
                                        "typeTag": 1
                                    }
                                }
                            ],
                            "typeTag": 4
                        }
                    }
                ]
            },
            {
                "address": "0x97a9a15168c22b3c137e6381037e1499c8ad0978",
                "erc": "ERC-20",
                "slots": [
                    {
                        "current": "0x0000000000000000000000000000000000000000000000195b7959b388b80000",
                        "key": "0xb67c12d3debcc278f538bb91aa1a0c10a65db630a9071e17997c0be01db0a507",
                        "prev": "0x0000000000000000000000000000000000000000000000000000000000000000"
                    },
                    {
                        "current": "0x00000000000000000000000000000000000000000764fe9cc460408d5949ea28",
                        "key": "0x4fae244fabdd309b0e1e052bc26e5224005d090a62bda53784800c82c9830278",
                        "prev": "0x00000000000000000000000000000000000000000764feb61fd99a40e201ea28"
                    },
                    {
                        "current": "0x00000000000000000000000000000000000000000764fe9cc460408d5949ea28",
                        "key": "0xd5e3b5e1e724bdb681be1901ce0c972ff36a91739e0eb13a8af11d7fee2930b6",
                        "prev": "0x00000000000000000000000000000000000000000764feb61fd99a40e201ea28"
                    }
                ],
                "storageVariables": [
                    {
                        "name": "_balances",
                        "type": "mapping(address => uint256)",
                        "value": {
                            "pairs": [
                                {
                                    "key": "0x1ae094f46ab5a2003a1e6fdc979038e681ada72a",
                                    "value": {
                                        "current": "467760000000000000000",
                                        "prev": "0",
                                        "typeTag": 1
                                    }
                                },
                                {
                                    "key": "0x6e97eac711f309bf18d536a92428b13280d6f6e7",
                                    "value": {
                                        "current": "2288490023639983792149097000",
                                        "prev": "2288490491399983792149097000",
                                        "typeTag": 1
                                    }
                                }
                            ],
                            "typeTag": 4
                        }
                    },
                    {
                        "name": "_allowances",
                        "type": "mapping(address => mapping(address => uint256))",
                        "value": {
                            "pairs": [
                                {
                                    "key": "0x6e97eac711f309bf18d536a92428b13280d6f6e7",
                                    "value": {
                                        "pairs": [
                                            {
                                                "key": "0x35f4817b14718c66dbbdba085f5f8d2c3a4aa420",
                                                "value": {
                                                    "current": "2288490023639983792149097000",
                                                    "prev": "2288490491399983792149097000",
                                                    "typeTag": 1
                                                }
                                            }
                                        ],
                                        "typeTag": 4
                                    }
                                }
                            ],
                            "typeTag": 4
                        }
                    }
                ]
            }
        ]
    }
}