{
    "balance_change": {
        "balanceChanges": [
            {
                "account": "0xd1669ac6044269b59fa12c5822439f609ca54f41",
                "assets": [
                    {
                        "address": "0xeeeeeeeeeeeeeeeeeeeeeeeeeeeeeeeeeeeeeeee",
                        "amount": "0.264878049143743206",
                        "iconUrl": "https://assets.blocksec.com/image/1663669189317-3.png",
                        "isERC1155": false,
                        "isERC721": false,
                        "sign": false,
                        "value": "465.0967176341990265"
                    }
                ]
            },
            {
                "account": "0x32c0e9f1e33f7574eb9a3ce73aab53ff5dd6a785",
                "assets": [
                    {
                        "address": "0xeeeeeeeeeeeeeeeeeeeeeeeeeeeeeeeeeeeeeeee",
                        "amount": "0.264878049143743206",
                        "iconUrl": "https://assets.blocksec.com/image/1663669189317-3.png",
                        "isERC1155": false,
                        "isERC721": false,
                        "sign": true,
                        "value": "465.0967176341990265"
                    }
                ]
            }
        ]
    },
    "profile": {
        "basic_info": {
            "baseFee": "14.412811278",
            "blockNumber": 16888448,
            "callData": "0x3912521500000000000000000000000032c0e9f1e33f7574eb9a3ce73aab53ff5dd6a78500000000000000000000000000000000000000000000000003ad092eac02e2e600000000000000000000000000000000000000000000000000000000000000c00000000000000000000000000000000000000000000000000000000064252b13000000000000000000000000000000000000000000000000000000000029f42600000000000000000000000000000000000000000000000000000000000000e00000000000000000000000000000000000000000000000000000000000000000000000000000000000000000000000000000000000000000000000000000004163b8c2b83f33761aba57ee210a00f69eca446fcc42fabcf9a2ddd874c426076918f1bcb3b1916d1eb5ea323bde010ee7ab0b45890063449a33f6d99813382bf71c00000000000000000000000000000000000000000000000000000000000000",
            "debugEnable": true,
            "errorInfo": "",
            "eventCount": 1,
            "feeRecipient": "0x1f9090aae28b8a3dceadf281b0f12828e676c326",
            "formatValue": "0",
            "gasLimit": 154032,
            "gasPrice": "16.233975407",
            "gasUsed": 84032,
            "intTxnCount": 2,
            "internalRevert": false,
            "internalRevertMessage": "",
            "isContractCreation": false,
            "isFlashloan": false,
            "maxFee": "",
            "nonce": 1994612,
            "overwritedBlockNumber": -1,
            "priorityFee": "",
            "receiver": "0xd1669ac6044269b59fa12c5822439f609ca54f41",
            "revertMessage": "",
            "sender": "0xd2c82f2e5fa236e114a81173e375a73664610998",
            "simulationEnable": true,
            "sourceTxnHash": "0xe2e24036db152faa89b449425f3286f3c3a0e2eebe2012e7cb4066e3705967b0",
            "status": true,
            "timestamp": "2023-03-23T06:24:35Z",
            "transactionFee": "0.001364173421401024",
            "txnHash": "0xe2e24036db152faa89b449425f3286f3c3a0e2eebe2012e7cb4066e3705967b0",
            "txnIndex": 35,
            "type": 0,
            "value": "0"
        },
        "fund_flow": [
            {
                "amount": "0.264878049143743206",
                "from": "0xd1669ac6044269b59fa12c5822439f609ca54f41",
                "id": 1,
                "isERC1155": false,
                "isERC721": false,
                "isReverted": false,
                "order": 1,
                "to": "0x32c0e9f1e33f7574eb9a3ce73aab53ff5dd6a785",
                "token": "0xeeeeeeeeeeeeeeeeeeeeeeeeeeeeeeeeeeeeeeee"
            }
        ],
        "token_infos": [
            {
                "address": "0xc02aaa39b223fe8d0a0e5c4f27ead9083c756cc2",
                "decimals": 18
            },
            {
                "address": "0xeeeeeeeeeeeeeeeeeeeeeeeeeeeeeeeeeeeeeeee",
                "decimals": 18
            }
        ]
    },
    "address_label": {
        "labels": [
            {
                "address": "0xeeeeeeeeeeeeeeeeeeeeeeeeeeeeeeeeeeeeeeee",
                "label": "Ether"
            },
            {
                "address": "0xd1669ac6044269b59fa12c5822439f609ca54f41",
                "label": "CoinList 1"
            },
            {
                "address": "0xd2c82f2e5fa236e114a81173e375a73664610998",
                "label": "CoinList 3"
            },
            {
                "address": "0x0000000000000000000000000000000000000001",
                "label": "Precompiled"
            },
            {
                "address": "0x0000000000000000000000000000000000000002",
                "label": "Precompiled"
            },
            {
                "address": "0x0000000000000000000000000000000000000003",
                "label": "Precompiled"
            },
            {
                "address": "0x0000000000000000000000000000000000000004",
                "label": "Precompiled"
            }
        ]
    },
    "trace": {
        "accountLabels": null,
        "dataMap": {
            "-1": {
                "invocation": {
                    "address": "0xd2c82f2e5fa236e114a81173e375a73664610998",
                    "callData": "",
                    "decodedMethod": null,
                    "errorInfo": "",
                    "fromAddress": "",
                    "gasUsed": 0,
                    "id": -1,
                    "methodDecoded": false,
                    "operation": "",
                    "output": "",
                    "revert": false,
                    "revertMessage": "",
                    "selector": "",
                    "status": false,
                    "value": ""
                },
                "nodeType": 0
            },
            "0": {
                "invocation": {
                    "address": "0xd1669ac6044269b59fa12c5822439f609ca54f41",
                    "callData": "0x00000000000000000000000032c0e9f1e33f7574eb9a3ce73aab53ff5dd6a78500000000000000000000000000000000000000000000000003ad092eac02e2e600000000000000000000000000000000000000000000000000000000000000c00000000000000000000000000000000000000000000000000000000064252b13000000000000000000000000000000000000000000000000000000000029f42600000000000000000000000000000000000000000000000000000000000000e00000000000000000000000000000000000000000000000000000000000000000000000000000000000000000000000000000000000000000000000000000004163b8c2b83f33761aba57ee210a00f69eca446fcc42fabcf9a2ddd874c426076918f1bcb3b1916d1eb5ea323bde010ee7ab0b45890063449a33f6d99813382bf71c00000000000000000000000000000000000000000000000000000000000000",
                    "decodedMethod": {
                        "callParams": [
                            {
                                "name": "toAddress",
                                "type": "address",
                                "value": "0x32c0e9f1e33f7574eb9a3ce73aab53ff5dd6a785"
                            },
                            {
                                "name": "value",
                                "type": "uint256",
                                "value": "264,878,049,143,743,206"
                            },
                            {
                                "name": "data",
                                "type": "bytes",
                                "value": "0x"
                            },
                            {
                                "name": "expireTime",
                                "type": "uint256",
                                "value": "1,680,157,459"
                            },
                            {
                                "name": "sequenceId",
                                "type": "uint256",
                                "value": "2,749,478"
                            },
                            {
                                "name": "signature",
                                "type": "bytes",
                                "value": "0x63b8c2b83f33761aba57ee210a00f69eca446fcc42fabcf9a2ddd874c426076918f1bcb3b1916d1eb5ea323bde010ee7ab0b45890063449a33f6d99813382bf71c"
                            }
                        ],
                        "constructorArguments": "",
                        "name": "sendMultiSig",
                        "returnParams": [],
                        "signature": "sendMultiSig(address,uint256,bytes,uint256,uint256,bytes)"
                    },
                    "errorInfo": "",
                    "fromAddress": "0xd2c82f2e5fa236e114a81173e375a73664610998",
                    "gasUsed": 84032,
                    "id": 0,
                    "methodDecoded": true,
                    "operation": "CALL",
                    "output": "",
                    "revert": false,
                    "revertMessage": "",
                    "selector": "0x39125215",
                    "status": true,
                    "value": "0"
                },
                "nodeType": 0
            },
            "1": {
                "invocation": {
                    "address": "0x0000000000000000000000000000000000000001",
                    "callData": "0xd9b4e2d6f1769cd67bc905771f161d740740e7cbae7384c9387c4988000000000000000000000000000000000000000000000000000000000000001c63b8c2b83f33761aba57ee210a00f69eca446fcc42fabcf9a2ddd874c426076918f1bcb3b1916d1eb5ea323bde010ee7ab0b45890063449a33f6d99813382bf7",
                    "decodedMethod": {
                        "callParams": [
                            {
                                "name": "hash",
                                "type": "bytes32",
                                "value": "0x08c1cc7dd9b4e2d6f1769cd67bc905771f161d740740e7cbae7384c9387c4988"
                            },
                            {
                                "name": "v",
                                "type": "uint256",
                                "value": "28"
                            },
                            {
                                "name": "r",
                                "type": "bytes32",
                                "value": "0x63b8c2b83f33761aba57ee210a00f69eca446fcc42fabcf9a2ddd874c4260769"
                            },
                            {
                                "name": "s",
                                "type": "bytes32",
                                "value": "0x18f1bcb3b1916d1eb5ea323bde010ee7ab0b45890063449a33f6d99813382bf7"
                            }
                        ],
                        "constructorArguments": "",
                        "name": "ecrecover",
                        "returnParams": [
                            {
                                "name": "",
                                "type": "address",
                                "value": "0xb067fee58723af1d5fc03e63ae8c278717f2c83d"
                            }
                        ],
                        "signature": "ecrecover(bytes32,uint256,bytes32,bytes32)"
                    },
                    "errorInfo": "",
                    "fromAddress": "0xd1669ac6044269b59fa12c5822439f609ca54f41",
                    "gasUsed": 3000,
                    "id": 1,
                    "methodDecoded": true,
                    "operation": "CALL",
                    "output": "0x000000000000000000000000b067fee58723af1d5fc03e63ae8c278717f2c83d",
                    "revert": false,
                    "revertMessage": "",
                    "selector": "0x08c1cc7d",
                    "status": true,
                    "value": "0"
                },
                "nodeType": 0
            },
            "2": {
                "invocation": {
                    "address": "0x32c0e9f1e33f7574eb9a3ce73aab53ff5dd6a785",
                    "callData": "0x",
                    "decodedMethod": null,
                    "errorInfo": "",
                    "fromAddress": "0xd1669ac6044269b59fa12c5822439f609ca54f41",
                    "gasUsed": 0,
                    "id": 2,
                    "methodDecoded": false,
                    "operation": "CALL",
                    "output": "",
                    "revert": false,
                    "revertMessage": "",
                    "selector": "fallback",
                    "status": true,
                    "value": "0.264878049143743206"
                },
                "nodeType": 0
            },
            "3": {
                "event": {
                    "contract": "0xd1669ac6044269b59fa12c5822439f609ca54f41",
                    "decodedLog": {
                        "name": "Transacted",
                        "params": [
                            {
                                "name": "msgSender",
                                "type": "address",
                                "value": "0xd2c82f2e5fa236e114a81173e375a73664610998"
                            },
                            {
                                "name": "otherSigner",
                                "type": "address",
                                "value": "0xb067fee58723af1d5fc03e63ae8c278717f2c83d"
                            },
                            {
                                "name": "operation",
                                "type": "bytes32",
                                "value": "0x08c1cc7dd9b4e2d6f1769cd67bc905771f161d740740e7cbae7384c9387c4988"
                            },
                            {
                                "name": "toAddress",
                                "type": "address",
                                "value": "0x32c0e9f1e33f7574eb9a3ce73aab53ff5dd6a785"
                            },
                            {
                                "name": "value",
                                "type": "uint256",
                                "value": "264,878,049,143,743,206"
                            },
                            {
                                "name": "data",
                                "type": "bytes",
                                "value": "0x"
                            }
                        ],
                        "signature": "Transacted(address,address,bytes32,address,uint256,bytes)"
                    },
                    "id": 3,
                    "logData": "0x000000000000000000000000d2c82f2e5fa236e114a81173e375a73664610998000000000000000000000000b067fee58723af1d5fc03e63ae8c278717f2c83d08c1cc7dd9b4e2d6f1769cd67bc905771f161d740740e7cbae7384c9387c498800000000000000000000000032c0e9f1e33f7574eb9a3ce73aab53ff5dd6a78500000000000000000000000000000000000000000000000003ad092eac02e2e600000000000000000000000000000000000000000000000000000000000000c00000000000000000000000000000000000000000000000000000000000000000",
                    "logDecoded": true,
                    "operation": "EVENT",
                    "revert": false,
                    "status": true,
                    "topics": [
                        "0x59bed9ab5d78073465dd642a9e3e76dfdb7d53bcae9d09df7d0b8f5234d5a806"
                    ]
                },
                "nodeType": 1
            }
        },
        "gasFlame": [
            {
                "children": [
                    {
                        "children": [
                            {
                                "children": [],
                                "depth": 0,
                                "name": "Initial Gas",
                                "value": 23684
                            },
                            {
                                "children": [
                                    {
                                        "children": [],
                                        "depth": 1,
                                        "name": "ecrecover",
                                        "value": 3000
                                    },
                                    {
                                        "children": [],
                                        "depth": 1,
                                        "name": "fallback",
                                        "value": 0
                                    }
                                ],
                                "depth": 0,
                                "name": "Executed Gas",
                                "value": 60348
                            }
                        ],
                        "depth": -1,
                        "name": "Actual Gas Used",
                        "value": 84032
                    },
                    {
                        "children": [],
                        "depth": -1,
                        "name": "Refunded Gas",
                        "value": 0
                    }
                ],
                "depth": -2,
                "name": "Total Gas",
                "value": 84032
            }
        ],
        "isConfirmed": true,
        "mainTrace": [
            {
                "children": [
                    {
                        "children": [
                            {
                                "children": [],
                                "depth": 1,
                                "id": 1,
                                "order": 1
                            },
                            {
                                "children": [],
                                "depth": 1,
                                "id": 2,
                                "order": 2
                            },
                            {
                                "children": [],
                                "depth": 1,
                                "id": 3,
                                "order": 3
                            }
                        ],
                        "depth": 0,
                        "id": 0,
                        "order": 0
                    }
                ],
                "depth": -1,
                "id": -1,
                "order": -1
            }
        ],
        "mainTraceNodeCount": 4,
        "parentIdMap": {
            "0": -1,
            "1": 0,
            "2": 0,
            "3": 0
        },
        "tidyTrace": [
            {
                "children": [
                    {
                        "children": [
                            {
                                "children": [],
                                "depth": 1,
                                "id": 1,
                                "order": 1
                            },
                            {
                                "children": [],
                                "depth": 1,
                                "id": 2,
                                "order": 2
                            },
                            {
                                "children": [],
                                "depth": 1,
                                "id": 3,
                                "order": 3
                            }
                        ],
                        "depth": 0,
                        "id": 0,
                        "order": 0
                    }
                ],
                "depth": -1,
                "id": -1,
                "order": -1
            }
        ],
        "tidyTraceNodeCount": 4
    },
    "state_change": {
        "stateChanges": [
            {
                "address": "0xd1669ac6044269b59fa12c5822439f609ca54f41",
                "erc": "",
                "slots": [
                    {
                        "current": "0x000000000000000000000000000000000000000000000000000000000029f426",
                        "key": "0x0000000000000000000000000000000000000000000000000000000000000006",
                        "prev": "0x000000000000000000000000000000000000000000000000000000000029f405"
                    }
                ],
                "storageVariables": []
            }
        ]
    }
}