{
    "balance_change": {
        "balanceChanges": [
            {
                "account": "0x467e4e0fe243716aecb4b8a9b264a0b8c622108b",
                "assets": [
                    {
                        "address": "0x6c22dd71cde0af8a67e20db8c7f81d74daf48f7a",
                        "amount": "1,000,000,000",
                        "iconUrl": "",
                        "isERC1155": false,
                        "isERC721": false,
                        "sign": true,
                        "value": ""
                    }
                ]
            },
            {
                "account": "0x8257b46c7ab0e7657c951164d23f7969da2672db",
                "assets": [
                    {
                        "address": "0x6c22dd71cde0af8a67e20db8c7f81d74daf48f7a",
                        "amount": "1,000,000,000",
                        "iconUrl": "",
                        "isERC1155": false,
                        "isERC721": false,
                        "sign": false,
                        "value": ""
                    }
                ]
            }
        ]
    },
    "profile": {
        "basic_info": {
            "baseFee": "",
            "blockNumber": 8343718,
            "callData": "0xa9059cbb000000000000000000000000467e4e0fe243716aecb4b8a9b264a0b8c622108b000000000000000000000000000000000000000000000000000000003b9aca00",
            "debugEnable": true,
            "errorInfo": "",
            "eventCount": 1,
            "feeRecipient": "0x829bd824b016326a401d083b33d092293333a830",
            "formatValue": "0",
            "gasLimit": 100000,
            "gasPrice": "10",
            "gasUsed": 37645,
            "intTxnCount": 0,
            "internalRevert": false,
            "internalRevertMessage": "",
            "isContractCreation": false,
            "isFlashloan": false,
            "maxFee": "",
            "nonce": 708,
            "overwritedBlockNumber": -1,
            "priorityFee": "",
            "receiver": "0x6c22dd71cde0af8a67e20db8c7f81d74daf48f7a",
            "revertMessage": "",
            "sender": "0x8257b46c7ab0e7657c951164d23f7969da2672db",
            "simulationEnable": true,
            "sourceTxnHash": "0xe325c19398f973035b4dc57614570c45483acdafa87a29a9cd41404fd671f235",
            "status": true,
            "timestamp": "2019-08-13T18:14:16Z",
            "transactionFee": "0.00037645",
            "txnHash": "0xe325c19398f973035b4dc57614570c45483acdafa87a29a9cd41404fd671f235",
            "txnIndex": 24,
            "type": 0,
            "value": "0"
        },
        "fund_flow": [
            {
                "amount": "1,000,000,000",
                "from": "0x8257b46c7ab0e7657c951164d23f7969da2672db",
                "id": 1,
                "isERC1155": false,
                "isERC721": false,
                "isReverted": false,
                "order": 1,
                "to": "0x467e4e0fe243716aecb4b8a9b264a0b8c622108b",
                "token": "0x6c22dd71cde0af8a67e20db8c7f81d74daf48f7a"
            }
        ],
        "token_infos": [
            {
                "address": "0xc02aaa39b223fe8d0a0e5c4f27ead9083c756cc2",
                "decimals": 18
            },
            {
                "address": "0xeeeeeeeeeeeeeeeeeeeeeeeeeeeeeeeeeeeeeeee",
                "decimals": 18
            }
        ]
    },
    "address_label": {
        "labels": [
            {
                "address": "0x0000000000000000000000000000000000000001",
                "label": "Precompiled"
            },
            {
                "address": "0x0000000000000000000000000000000000000002",
                "label": "Precompiled"
            },
            {
                "address": "0x0000000000000000000000000000000000000003",
                "label": "Precompiled"
            },
            {
                "address": "0x0000000000000000000000000000000000000004",
                "label": "Precompiled"
            },
            {
                "address": "0xeeeeeeeeeeeeeeeeeeeeeeeeeeeeeeeeeeeeeeee",
                "label": "Ether"
            }
        ]
    },
    "trace": {
        "accountLabels": null,
        "dataMap": {
            "-1": {
                "invocation": {
                    "address": "0x8257b46c7ab0e7657c951164d23f7969da2672db",
                    "callData": "",
                    "decodedMethod": null,
                    "errorInfo": "",
                    "fromAddress": "",
                    "gasUsed": 0,
                    "id": -1,
                    "methodDecoded": false,
                    "operation": "",
                    "output": "",
                    "revert": false,
                    "revertMessage": "",
                    "selector": "",
                    "status": false,
                    "value": ""
                },
                "nodeType": 0
            },
            "0": {
                "invocation": {
                    "address": "0x6c22dd71cde0af8a67e20db8c7f81d74daf48f7a",
                    "callData": "0x000000000000000000000000467e4e0fe243716aecb4b8a9b264a0b8c622108b000000000000000000000000000000000000000000000000000000003b9aca00",
                    "decodedMethod": {
                        "callParams": [
                            {
                                "name": "_to",
                                "type": "address",
                                "value": "0x467e4e0fe243716aecb4b8a9b264a0b8c622108b"
                            },
                            {
                                "decimalAvailable": true,
                                "name": "_value",
                                "type": "uint256",
                                "value": "1,000,000,000"
                            }
                        ],
                        "constructorArguments": "",
                        "name": "transfer",
                        "returnParams": [],
                        "signature": "transfer(address,uint256)"
                    },
                    "errorInfo": "",
                    "fromAddress": "0x8257b46c7ab0e7657c951164d23f7969da2672db",
                    "gasUsed": 37645,
                    "id": 0,
                    "methodDecoded": true,
                    "operation": "CALL",
                    "output": "",
                    "revert": false,
                    "revertMessage": "",
                    "selector": "0xa9059cbb",
                    "status": true,
                    "value": "0"
                },
                "nodeType": 0
            },
            "1": {
                "event": {
                    "contract": "0x6c22dd71cde0af8a67e20db8c7f81d74daf48f7a",
                    "decodedLog": {
                        "name": "Transfer",
                        "params": [
                            {
                                "name": "from",
                                "type": "address",
                                "value": "0x8257b46c7ab0e7657c951164d23f7969da2672db"
                            },
                            {
                                "name": "to",
                                "type": "address",
                                "value": "0x467e4e0fe243716aecb4b8a9b264a0b8c622108b"
                            },
                            {
                                "decimalAvailable": true,
                                "name": "value",
                                "type": "uint256",
                                "value": "1,000,000,000"
                            }
                        ],
                        "signature": "Transfer(address,address,uint256)"
                    },
                    "id": 1,
                    "logData": "0x000000000000000000000000000000000000000000000000000000003b9aca00",
                    "logDecoded": true,
                    "operation": "EVENT",
                    "revert": false,
                    "status": true,
                    "topics": [
                        "0xddf252ad1be2c89b69c2b068fc378daa952ba7f163c4a11628f55a4df523b3ef",
                        "0x0000000000000000000000008257b46c7ab0e7657c951164d23f7969da2672db",
                        "0x000000000000000000000000467e4e0fe243716aecb4b8a9b264a0b8c622108b"
                    ]
                },
                "nodeType": 1
            }
        },
        "gasFlame": [
            {
                "children": [
                    {
                        "children": [
                            {
                                "children": [],
                                "depth": 0,
                                "name": "Initial Gas",
                                "value": 23000
                            },
                            {
                                "children": [],
                                "depth": 0,
                                "name": "Executed Gas",
                                "value": 14645
                            }
                        ],
                        "depth": -1,
                        "name": "Actual Gas Used",
                        "value": 37645
                    },
                    {
                        "children": [],
                        "depth": -1,
                        "name": "Refunded Gas",
                        "value": 0
                    }
                ],
                "depth": -2,
                "name": "Total Gas",
                "value": 37645
            }
        ],
        "isConfirmed": true,
        "mainTrace": [
            {
                "children": [
                    {
                        "children": [
                            {
                                "children": [],
                                "depth": 1,
                                "id": 1,
                                "order": 1
                            }
                        ],
                        "depth": 0,
                        "id": 0,
                        "order": 0
                    }
                ],
                "depth": -1,
                "id": -1,
                "order": -1
            }
        ],
        "mainTraceNodeCount": 2,
        "parentIdMap": {
            "0": -1,
            "1": 0
        },
        "tidyTrace": [
            {
                "children": [
                    {
                        "children": [
                            {
                                "children": [],
                                "depth": 1,
                                "id": 1,
                                "order": 1
                            }
                        ],
                        "depth": 0,
                        "id": 0,
                        "order": 0
                    }
                ],
                "depth": -1,
                "id": -1,
                "order": -1
            }
        ],
        "tidyTraceNodeCount": 2
    },
    "state_change": {
        "stateChanges": [
            {
                "address": "0x6c22dd71cde0af8a67e20db8c7f81d74daf48f7a",
                "erc": "",
                "slots": [
                    {
                        "current": "0x000000000000000000000000000000000000000000000000000000b09f88f4c8",
                        "key": "0xe87eb8502eb40455c949859a7d45397d64241b51afc38f0270711c84f107a264",
                        "prev": "0x000000000000000000000000000000000000000000000000000000b0db23bec8"
                    },
                    {
                        "current": "0x000000000000000000000000000000000000000000000000000000020b542b00",
                        "key": "0xd32250291f9acac7953d17ff146fbd422b9a55173c3a93e699451b21b10c6535",
                        "prev": "0x00000000000000000000000000000000000000000000000000000001cfb96100"
                    }
                ],
                "storageVariables": []
            }
        ]
    }
}