{
    "balance_change": {
        "balanceChanges": []
    },
    "profile": {
        "basic_info": {
            "baseFee": "",
            "blockNumber": 12934579,
            "callData": "0xdd2414d4000000000000000000000000df5ff0af29a8c3c4f452573dad647d7c600be89b0074b5b85e550545b95f5c8ddb8095bad2f7df45dd9253bc62f70631c908c91f000000000000000000000000000000000000000000000000000000000000006000000000000000000000000000000000000000000000000000000000000000410f5060318393952dee9686bc057df4e96d0879e5c52eb40ba6793a9ff68aa95c18c67cae7c56b04f65fefc41faa0b88117f1bcd787646550fdebdafc6a428bf01b00000000000000000000000000000000000000000000000000000000000000",
            "debugEnable": true,
            "errorInfo": "",
            "eventCount": 1,
            "feeRecipient": "0x5a0b54d5dc17e0aadc383d2db43b0a0d3e029c4c",
            "formatValue": "0",
            "gasLimit": 300000,
            "gasPrice": "45",
            "gasUsed": 67710,
            "intTxnCount": 4,
            "internalRevert": false,
            "internalRevertMessage": "",
            "isContractCreation": false,
            "isFlashloan": false,
            "maxFee": "",
            "nonce": 31824,
            "overwritedBlockNumber": -1,
            "priorityFee": "",
            "receiver": "0x5fdcca53617f4d2b9134b29090c87d01058e27e9",
            "revertMessage": "",
            "sender": "0xf613ba58aedbcdf846eb4cdfebced0848f95d3d2",
            "simulationEnable": true,
            "sourceTxnHash": "0xe38e57c800b023854835eea72f1e828ae178d1cc5c68061e741e1ca017b00cd8",
            "status": true,
            "timestamp": "2021-07-31T17:08:22Z",
            "transactionFee": "0.00304695",
            "txnHash": "0xe38e57c800b023854835eea72f1e828ae178d1cc5c68061e741e1ca017b00cd8",
            "txnIndex": 71,
            "type": 0,
            "value": "0"
        },
        "fund_flow": [],
        "token_infos": [
            {
                "address": "0xeeeeeeeeeeeeeeeeeeeeeeeeeeeeeeeeeeeeeeee",
                "decimals": 18
            },
            {
                "address": "0xc02aaa39b223fe8d0a0e5c4f27ead9083c756cc2",
                "decimals": 18
            }
        ]
    },
    "address_label": {
        "labels": [
            {
                "address": "0x49401ddc4e0a858b5b4cf3d6de38393b7fac7378",
                "label": "StarkExchange"
            },
            {
                "address": "0x5fdcca53617f4d2b9134b29090c87d01058e27e9",
                "label": "Immutable X: Bridge"
            },
            {
                "address": "0xa4e9524efba0cb6bd7474a48c14582deb300469e",
                "label": "TokensAndRamping"
            },
            {
                "address": "0x0000000000000000000000000000000000000001",
                "label": "Precompiled"
            },
            {
                "address": "0x0000000000000000000000000000000000000002",
                "label": "Precompiled"
            },
            {
                "address": "0x0000000000000000000000000000000000000005",
                "label": "Null: 0x000...005"
            },
            {
                "address": "0x0000000000000000000000000000000000000003",
                "label": "Precompiled"
            },
            {
                "address": "0x0000000000000000000000000000000000000004",
                "label": "Precompiled"
            },
            {
                "address": "0xeeeeeeeeeeeeeeeeeeeeeeeeeeeeeeeeeeeeeeee",
                "label": "Ether"
            }
        ]
    },
    "trace": {
        "accountLabels": null,
        "dataMap": {
            "-1": {
                "invocation": {
                    "address": "0xf613ba58aedbcdf846eb4cdfebced0848f95d3d2",
                    "callData": "",
                    "decodedMethod": null,
                    "errorInfo": "",
                    "fromAddress": "",
                    "gasUsed": 0,
                    "id": -1,
                    "methodDecoded": false,
                    "operation": "",
                    "output": "",
                    "revert": false,
                    "revertMessage": "",
                    "selector": "",
                    "status": false,
                    "value": ""
                },
                "nodeType": 0
            },
            "0": {
                "invocation": {
                    "address": "0x5fdcca53617f4d2b9134b29090c87d01058e27e9",
                    "callData": "0x000000000000000000000000df5ff0af29a8c3c4f452573dad647d7c600be89b0074b5b85e550545b95f5c8ddb8095bad2f7df45dd9253bc62f70631c908c91f000000000000000000000000000000000000000000000000000000000000006000000000000000000000000000000000000000000000000000000000000000410f5060318393952dee9686bc057df4e96d0879e5c52eb40ba6793a9ff68aa95c18c67cae7c56b04f65fefc41faa0b88117f1bcd787646550fdebdafc6a428bf01b00000000000000000000000000000000000000000000000000000000000000",
                    "decodedMethod": {
                        "callParams": [
                            {
                                "name": "ethKey",
                                "type": "address",
                                "value": "0xdf5ff0af29a8c3c4f452573dad647d7c600be89b"
                            },
                            {
                                "name": "starkKey",
                                "type": "uint256",
                                "value": "206,208,446,167,579,291,037,923,256,108,816,847,348,654,621,180,515,486,268,408,718,788,701,767,967"
                            },
                            {
                                "name": "signature",
                                "type": "bytes",
                                "value": "0x0f5060318393952dee9686bc057df4e96d0879e5c52eb40ba6793a9ff68aa95c18c67cae7c56b04f65fefc41faa0b88117f1bcd787646550fdebdafc6a428bf01b"
                            }
                        ],
                        "constructorArguments": "",
                        "name": "registerUser",
                        "returnParams": [],
                        "signature": "registerUser(address,uint256,bytes)"
                    },
                    "errorInfo": "",
                    "fromAddress": "0xf613ba58aedbcdf846eb4cdfebced0848f95d3d2",
                    "gasUsed": 67710,
                    "id": 0,
                    "methodDecoded": true,
                    "operation": "CALL",
                    "output": "",
                    "revert": false,
                    "revertMessage": "",
                    "selector": "0xdd2414d4",
                    "status": true,
                    "value": "0"
                },
                "nodeType": 0
            },
            "1": {
                "invocation": {
                    "address": "0x49401ddc4e0a858b5b4cf3d6de38393b7fac7378",
                    "callData": "0x000000000000000000000000df5ff0af29a8c3c4f452573dad647d7c600be89b0074b5b85e550545b95f5c8ddb8095bad2f7df45dd9253bc62f70631c908c91f000000000000000000000000000000000000000000000000000000000000006000000000000000000000000000000000000000000000000000000000000000410f5060318393952dee9686bc057df4e96d0879e5c52eb40ba6793a9ff68aa95c18c67cae7c56b04f65fefc41faa0b88117f1bcd787646550fdebdafc6a428bf01b00000000000000000000000000000000000000000000000000000000000000",
                    "decodedMethod": {
                        "callParams": [
                            {
                                "name": "ethKey",
                                "type": "address",
                                "value": "0xdf5ff0af29a8c3c4f452573dad647d7c600be89b"
                            },
                            {
                                "name": "starkKey",
                                "type": "uint256",
                                "value": "206,208,446,167,579,291,037,923,256,108,816,847,348,654,621,180,515,486,268,408,718,788,701,767,967"
                            },
                            {
                                "name": "signature",
                                "type": "bytes",
                                "value": "0x0f5060318393952dee9686bc057df4e96d0879e5c52eb40ba6793a9ff68aa95c18c67cae7c56b04f65fefc41faa0b88117f1bcd787646550fdebdafc6a428bf01b"
                            }
                        ],
                        "constructorArguments": "",
                        "name": "registerUser",
                        "returnParams": [],
                        "signature": "registerUser(address,uint256,bytes)"
                    },
                    "errorInfo": "",
                    "fromAddress": "0x5fdcca53617f4d2b9134b29090c87d01058e27e9",
                    "gasUsed": 39218,
                    "id": 1,
                    "methodDecoded": true,
                    "operation": "DELEGATECALL",
                    "output": "",
                    "revert": false,
                    "revertMessage": "",
                    "selector": "0xdd2414d4",
                    "status": true,
                    "value": "0"
                },
                "nodeType": 0
            },
            "2": {
                "invocation": {
                    "address": "0xa4e9524efba0cb6bd7474a48c14582deb300469e",
                    "callData": "0x000000000000000000000000df5ff0af29a8c3c4f452573dad647d7c600be89b0074b5b85e550545b95f5c8ddb8095bad2f7df45dd9253bc62f70631c908c91f000000000000000000000000000000000000000000000000000000000000006000000000000000000000000000000000000000000000000000000000000000410f5060318393952dee9686bc057df4e96d0879e5c52eb40ba6793a9ff68aa95c18c67cae7c56b04f65fefc41faa0b88117f1bcd787646550fdebdafc6a428bf01b00000000000000000000000000000000000000000000000000000000000000",
                    "decodedMethod": {
                        "callParams": [
                            {
                                "name": "ethKey",
                                "type": "address",
                                "value": "0xdf5ff0af29a8c3c4f452573dad647d7c600be89b"
                            },
                            {
                                "name": "starkKey",
                                "type": "uint256",
                                "value": "206,208,446,167,579,291,037,923,256,108,816,847,348,654,621,180,515,486,268,408,718,788,701,767,967"
                            },
                            {
                                "name": "signature",
                                "type": "bytes",
                                "value": "0x0f5060318393952dee9686bc057df4e96d0879e5c52eb40ba6793a9ff68aa95c18c67cae7c56b04f65fefc41faa0b88117f1bcd787646550fdebdafc6a428bf01b"
                            }
                        ],
                        "constructorArguments": "",
                        "name": "registerUser",
                        "returnParams": [],
                        "signature": "registerUser(address,uint256,bytes)"
                    },
                    "errorInfo": "",
                    "fromAddress": "0x5fdcca53617f4d2b9134b29090c87d01058e27e9",
                    "gasUsed": 33787,
                    "id": 2,
                    "methodDecoded": true,
                    "operation": "DELEGATECALL",
                    "output": "",
                    "revert": false,
                    "revertMessage": "",
                    "selector": "0xdd2414d4",
                    "status": true,
                    "value": "0"
                },
                "nodeType": 0
            },
            "3": {
                "invocation": {
                    "address": "0x0000000000000000000000000000000000000005",
                    "callData": "0x00000000000000000000000000000000000000000000000000000020000000000000000000000000000000000000000000000000000000000000002000000000000000000000000000000000000000000000000000000000000000200701e569faa61582668c307554cb11e259ed512c21b116ec5d13a6cd05ec9d4204000000000000088000000000000000000000000000000000000000000000000800000000000011000000000000000000000000000000000000000000000001",
                    "decodedMethod": {
                        "callParams": [],
                        "constructorArguments": "",
                        "name": "ROOT4146650865",
                        "returnParams": [
                            {
                                "name": "",
                                "type": "bytes4",
                                "value": "0x00000000"
                            }
                        ],
                        "signature": "ROOT4146650865()"
                    },
                    "errorInfo": "",
                    "fromAddress": "0x5fdcca53617f4d2b9134b29090c87d01058e27e9",
                    "gasUsed": 1333,
                    "id": 3,
                    "methodDecoded": true,
                    "operation": "STATICCALL",
                    "output": "0x0000000000000000000000000000000000000000000000000000000000000001",
                    "revert": false,
                    "revertMessage": "",
                    "selector": "0x00000000",
                    "status": true,
                    "value": "0"
                },
                "nodeType": 0
            },
            "4": {
                "invocation": {
                    "address": "0x0000000000000000000000000000000000000001",
                    "callData": "0xd630bd8347cdc5c8f66b8ae76753ece91495263292727d31a2a68ca9000000000000000000000000000000000000000000000000000000000000001b0f5060318393952dee9686bc057df4e96d0879e5c52eb40ba6793a9ff68aa95c18c67cae7c56b04f65fefc41faa0b88117f1bcd787646550fdebdafc6a428bf0",
                    "decodedMethod": {
                        "callParams": [
                            {
                                "name": "hash",
                                "type": "bytes32",
                                "value": "0xafc9c462d630bd8347cdc5c8f66b8ae76753ece91495263292727d31a2a68ca9"
                            },
                            {
                                "name": "v",
                                "type": "uint256",
                                "value": "27"
                            },
                            {
                                "name": "r",
                                "type": "bytes32",
                                "value": "0x0f5060318393952dee9686bc057df4e96d0879e5c52eb40ba6793a9ff68aa95c"
                            },
                            {
                                "name": "s",
                                "type": "bytes32",
                                "value": "0x18c67cae7c56b04f65fefc41faa0b88117f1bcd787646550fdebdafc6a428bf0"
                            }
                        ],
                        "constructorArguments": "",
                        "name": "ecrecover",
                        "returnParams": [
                            {
                                "name": "",
                                "type": "address",
                                "value": "0xf613ba58aedbcdf846eb4cdfebced0848f95d3d2"
                            }
                        ],
                        "signature": "ecrecover(bytes32,uint256,bytes32,bytes32)"
                    },
                    "errorInfo": "",
                    "fromAddress": "0x5fdcca53617f4d2b9134b29090c87d01058e27e9",
                    "gasUsed": 3000,
                    "id": 4,
                    "methodDecoded": true,
                    "operation": "STATICCALL",
                    "output": "0x000000000000000000000000f613ba58aedbcdf846eb4cdfebced0848f95d3d2",
                    "revert": false,
                    "revertMessage": "",
                    "selector": "0xafc9c462",
                    "status": true,
                    "value": "0"
                },
                "nodeType": 0
            },
            "5": {
                "event": {
                    "contract": "0x5fdcca53617f4d2b9134b29090c87d01058e27e9",
                    "decodedLog": {
                        "name": "LogUserRegistered",
                        "params": [
                            {
                                "name": "ethKey",
                                "type": "address",
                                "value": "0xdf5ff0af29a8c3c4f452573dad647d7c600be89b"
                            },
                            {
                                "name": "starkKey",
                                "type": "uint256",
                                "value": "206,208,446,167,579,291,037,923,256,108,816,847,348,654,621,180,515,486,268,408,718,788,701,767,967"
                            },
                            {
                                "name": "sender",
                                "type": "address",
                                "value": "0xf613ba58aedbcdf846eb4cdfebced0848f95d3d2"
                            }
                        ],
                        "signature": "LogUserRegistered(address,uint256,address)"
                    },
                    "id": 5,
                    "logData": "0x000000000000000000000000df5ff0af29a8c3c4f452573dad647d7c600be89b0074b5b85e550545b95f5c8ddb8095bad2f7df45dd9253bc62f70631c908c91f000000000000000000000000f613ba58aedbcdf846eb4cdfebced0848f95d3d2",
                    "logDecoded": true,
                    "operation": "EVENT",
                    "revert": false,
                    "status": true,
                    "topics": [
                        "0xcab1cf17c190e4e2195a7b8f7b362023246fa774390432b4704ab6b29d56b07b"
                    ]
                },
                "nodeType": 1
            }
        },
        "gasFlame": [
            {
                "children": [
                    {
                        "children": [
                            {
                                "children": [],
                                "depth": 0,
                                "name": "Initial Gas",
                                "value": 23376
                            },
                            {
                                "children": [
                                    {
                                        "children": [
                                            {
                                                "children": [
                                                    {
                                                        "children": [],
                                                        "depth": 3,
                                                        "name": "ROOT4146650865",
                                                        "value": 1333
                                                    },
                                                    {
                                                        "children": [],
                                                        "depth": 3,
                                                        "name": "ecrecover",
                                                        "value": 3000
                                                    }
                                                ],
                                                "depth": 2,
                                                "name": "registerUser",
                                                "value": 33787
                                            }
                                        ],
                                        "depth": 1,
                                        "name": "registerUser",
                                        "value": 39218
                                    }
                                ],
                                "depth": 0,
                                "name": "Executed Gas",
                                "value": 44334
                            }
                        ],
                        "depth": -1,
                        "name": "Actual Gas Used",
                        "value": 67710
                    },
                    {
                        "children": [],
                        "depth": -1,
                        "name": "Refunded Gas",
                        "value": 0
                    }
                ],
                "depth": -2,
                "name": "Total Gas",
                "value": 67710
            }
        ],
        "isConfirmed": true,
        "mainTrace": [
            {
                "children": [
                    {
                        "children": [
                            {
                                "children": [
                                    {
                                        "children": [
                                            {
                                                "children": [],
                                                "depth": 3,
                                                "id": 3,
                                                "order": 3
                                            },
                                            {
                                                "children": [],
                                                "depth": 3,
                                                "id": 4,
                                                "order": 4
                                            },
                                            {
                                                "children": [],
                                                "depth": 3,
                                                "id": 5,
                                                "order": 5
                                            }
                                        ],
                                        "depth": 2,
                                        "id": 2,
                                        "order": 2
                                    }
                                ],
                                "depth": 1,
                                "id": 1,
                                "order": 1
                            }
                        ],
                        "depth": 0,
                        "id": 0,
                        "order": 0
                    }
                ],
                "depth": -1,
                "id": -1,
                "order": -1
            }
        ],
        "mainTraceNodeCount": 6,
        "parentIdMap": {
            "0": -1,
            "1": 0,
            "2": 1,
            "3": 2,
            "4": 2,
            "5": 2
        },
        "tidyTrace": [
            {
                "children": [
                    {
                        "children": [
                            {
                                "children": [
                                    {
                                        "children": [
                                            {
                                                "children": [],
                                                "depth": 3,
                                                "id": 5,
                                                "order": 5
                                            }
                                        ],
                                        "depth": 2,
                                        "id": 2,
                                        "order": 2
                                    }
                                ],
                                "depth": 1,
                                "id": 1,
                                "order": 1
                            }
                        ],
                        "depth": 0,
                        "id": 0,
                        "order": 0
                    }
                ],
                "depth": -1,
                "id": -1,
                "order": -1
            }
        ],
        "tidyTraceNodeCount": 4
    },
    "state_change": {
        "stateChanges": [
            {
                "address": "0x5fdcca53617f4d2b9134b29090c87d01058e27e9",
                "erc": "",
                "slots": [
                    {
                        "current": "0x000000000000000000000000df5ff0af29a8c3c4f452573dad647d7c600be89b",
                        "key": "0x518ed5779ce72a22e7b56b3105815539350c48759cb6cfb9c77e749b64ec15e0",
                        "prev": "0x0000000000000000000000000000000000000000000000000000000000000000"
                    }
                ],
                "storageVariables": [
                    {
                        "name": "ethKeys",
                        "type": "mapping(uint256 => address)",
                        "value": {
                            "pairs": [
                                {
                                    "key": "206208446167579291037923256108816847348654621180515486268408718788701767967",
                                    "value": {
                                        "current": "0xdf5ff0af29a8c3c4f452573dad647d7c600be89b",
                                        "prev": "0x0000000000000000000000000000000000000000",
                                        "typeTag": 1
                                    }
                                }
                            ],
                            "typeTag": 4
                        }
                    }
                ]
            }
        ]
    }
}