{
    "balance_change": {
        "balanceChanges": [
            {
                "account": "0x2ffdf56a7a37a752b7c45e95bc44384cd5fe599a",
                "assets": [
                    {
                        "address": "0xf3072cae973c7b87ff2a8bbdf2575914df2b1d41",
                        "amount": "1.73",
                        "iconUrl": "",
                        "isERC1155": false,
                        "isERC721": false,
                        "sign": false,
                        "value": ""
                    }
                ]
            },
            {
                "account": "0xb983562984465912a7798c20d8997ffb6092a01d",
                "assets": [
                    {
                        "address": "0xf3072cae973c7b87ff2a8bbdf2575914df2b1d41",
                        "amount": "1.73",
                        "iconUrl": "",
                        "isERC1155": false,
                        "isERC721": false,
                        "sign": true,
                        "value": ""
                    }
                ]
            }
        ]
    },
    "profile": {
        "basic_info": {
            "baseFee": "",
            "blockNumber": 9831317,
            "callData": "0xa9059cbb000000000000000000000000b983562984465912a7798c20d8997ffb6092a01d0000000000000000000000000000000000000000000000000000000000004394",
            "debugEnable": true,
            "errorInfo": "",
            "eventCount": 1,
            "feeRecipient": "0x002e08000acbbae2155fab7ac01929564949070d",
            "formatValue": "0",
            "gasLimit": 90000,
            "gasPrice": "10",
            "gasUsed": 23435,
            "intTxnCount": 0,
            "internalRevert": false,
            "internalRevertMessage": "",
            "isContractCreation": false,
            "isFlashloan": false,
            "maxFee": "",
            "nonce": 1,
            "overwritedBlockNumber": -1,
            "priorityFee": "",
            "receiver": "0xf3072cae973c7b87ff2a8bbdf2575914df2b1d41",
            "revertMessage": "",
            "sender": "0x2ffdf56a7a37a752b7c45e95bc44384cd5fe599a",
            "simulationEnable": true,
            "sourceTxnHash": "0xe30bc58b2f2bd61287ca079bc6fa0b6c071d0a1a36a0035ba01b1bbc40f61077",
            "status": true,
            "timestamp": "2020-04-08T11:44:12Z",
            "transactionFee": "0.00023435",
            "txnHash": "0xe30bc58b2f2bd61287ca079bc6fa0b6c071d0a1a36a0035ba01b1bbc40f61077",
            "txnIndex": 11,
            "type": 0,
            "value": "0"
        },
        "fund_flow": [
            {
                "amount": "1.73",
                "from": "0x2ffdf56a7a37a752b7c45e95bc44384cd5fe599a",
                "id": 1,
                "isERC1155": false,
                "isERC721": false,
                "isReverted": false,
                "order": 1,
                "to": "0xb983562984465912a7798c20d8997ffb6092a01d",
                "token": "0xf3072cae973c7b87ff2a8bbdf2575914df2b1d41"
            }
        ],
        "token_infos": [
            {
                "address": "0xeeeeeeeeeeeeeeeeeeeeeeeeeeeeeeeeeeeeeeee",
                "decimals": 18
            },
            {
                "address": "0xc02aaa39b223fe8d0a0e5c4f27ead9083c756cc2",
                "decimals": 18
            },
            {
                "address": "0xf3072cae973c7b87ff2a8bbdf2575914df2b1d41",
                "decimals": 4
            }
        ]
    },
    "address_label": {
        "labels": [
            {
                "address": "0xeeeeeeeeeeeeeeeeeeeeeeeeeeeeeeeeeeeeeeee",
                "label": "Ether"
            },
            {
                "address": "0xf3072cae973c7b87ff2a8bbdf2575914df2b1d41",
                "label": "WTT"
            },
            {
                "address": "0x0000000000000000000000000000000000000001",
                "label": "Precompiled"
            },
            {
                "address": "0x0000000000000000000000000000000000000002",
                "label": "Precompiled"
            },
            {
                "address": "0x0000000000000000000000000000000000000003",
                "label": "Precompiled"
            },
            {
                "address": "0x0000000000000000000000000000000000000004",
                "label": "Precompiled"
            }
        ]
    },
    "trace": {
        "accountLabels": null,
        "dataMap": {
            "-1": {
                "invocation": {
                    "address": "0x2ffdf56a7a37a752b7c45e95bc44384cd5fe599a",
                    "callData": "",
                    "decodedMethod": null,
                    "errorInfo": "",
                    "fromAddress": "",
                    "gasUsed": 0,
                    "id": -1,
                    "methodDecoded": false,
                    "operation": "",
                    "output": "",
                    "revert": false,
                    "revertMessage": "",
                    "selector": "",
                    "status": false,
                    "value": ""
                },
                "nodeType": 0
            },
            "0": {
                "invocation": {
                    "address": "0xf3072cae973c7b87ff2a8bbdf2575914df2b1d41",
                    "callData": "0x000000000000000000000000b983562984465912a7798c20d8997ffb6092a01d0000000000000000000000000000000000000000000000000000000000004394",
                    "decodedMethod": {
                        "callParams": [
                            {
                                "name": "recipient",
                                "type": "address",
                                "value": "0xb983562984465912a7798c20d8997ffb6092a01d"
                            },
                            {
                                "decimalAvailable": true,
                                "name": "amount",
                                "type": "uint256",
                                "value": "17,300"
                            }
                        ],
                        "constructorArguments": "",
                        "name": "transfer",
                        "returnParams": [
                            {
                                "name": "",
                                "type": "bool",
                                "value": true
                            }
                        ],
                        "signature": "transfer(address,uint256)"
                    },
                    "errorInfo": "",
                    "fromAddress": "0x2ffdf56a7a37a752b7c45e95bc44384cd5fe599a",
                    "gasUsed": 23435,
                    "id": 0,
                    "methodDecoded": true,
                    "operation": "CALL",
                    "output": "0x0000000000000000000000000000000000000000000000000000000000000001",
                    "revert": false,
                    "revertMessage": "",
                    "selector": "0xa9059cbb",
                    "status": true,
                    "value": "0"
                },
                "nodeType": 0
            },
            "1": {
                "event": {
                    "contract": "0xf3072cae973c7b87ff2a8bbdf2575914df2b1d41",
                    "decodedLog": {
                        "name": "Transfer",
                        "params": [
                            {
                                "name": "from",
                                "type": "address",
                                "value": "0x2ffdf56a7a37a752b7c45e95bc44384cd5fe599a"
                            },
                            {
                                "name": "to",
                                "type": "address",
                                "value": "0xb983562984465912a7798c20d8997ffb6092a01d"
                            },
                            {
                                "decimalAvailable": true,
                                "name": "value",
                                "type": "uint256",
                                "value": "17,300"
                            }
                        ],
                        "signature": "Transfer(address,address,uint256)"
                    },
                    "id": 1,
                    "logData": "0x0000000000000000000000000000000000000000000000000000000000004394",
                    "logDecoded": true,
                    "operation": "EVENT",
                    "revert": false,
                    "status": true,
                    "topics": [
                        "0xddf252ad1be2c89b69c2b068fc378daa952ba7f163c4a11628f55a4df523b3ef",
                        "0x0000000000000000000000002ffdf56a7a37a752b7c45e95bc44384cd5fe599a",
                        "0x000000000000000000000000b983562984465912a7798c20d8997ffb6092a01d"
                    ]
                },
                "nodeType": 1
            }
        },
        "gasFlame": [
            {
                "children": [
                    {
                        "children": [
                            {
                                "children": [],
                                "depth": 0,
                                "name": "Initial Gas",
                                "value": 21584
                            },
                            {
                                "children": [],
                                "depth": 0,
                                "name": "Executed Gas",
                                "value": 16851
                            }
                        ],
                        "depth": -1,
                        "name": "Actual Gas Used",
                        "value": 23435
                    },
                    {
                        "children": [],
                        "depth": -1,
                        "name": "Refunded Gas",
                        "value": 15000
                    }
                ],
                "depth": -2,
                "name": "Total Gas",
                "value": 38435
            }
        ],
        "isConfirmed": true,
        "mainTrace": [
            {
                "children": [
                    {
                        "children": [
                            {
                                "children": [],
                                "depth": 1,
                                "id": 1,
                                "order": 1
                            }
                        ],
                        "depth": 0,
                        "id": 0,
                        "order": 0
                    }
                ],
                "depth": -1,
                "id": -1,
                "order": -1
            }
        ],
        "mainTraceNodeCount": 2,
        "parentIdMap": {
            "0": -1,
            "1": 0
        },
        "tidyTrace": [
            {
                "children": [
                    {
                        "children": [
                            {
                                "children": [],
                                "depth": 1,
                                "id": 1,
                                "order": 1
                            }
                        ],
                        "depth": 0,
                        "id": 0,
                        "order": 0
                    }
                ],
                "depth": -1,
                "id": -1,
                "order": -1
            }
        ],
        "tidyTraceNodeCount": 2
    },
    "state_change": {
        "stateChanges": [
            {
                "address": "0xf3072cae973c7b87ff2a8bbdf2575914df2b1d41",
                "erc": "",
                "slots": [
                    {
                        "current": "0x00000000000000000000000000000000000000000000000000000000088a4395",
                        "key": "0x365b7df7c4bf45f7f0394477a28a77701849a292002d6e3351e177cf7f8cc43a",
                        "prev": "0x00000000000000000000000000000000000000000000000000000000088a0001"
                    },
                    {
                        "current": "0x0000000000000000000000000000000000000000000000000000000000000000",
                        "key": "0xf19e750cb6f3bd2bdf7299a0bbbd883105cbb9f8db114f9d3848ef1c954464a5",
                        "prev": "0x0000000000000000000000000000000000000000000000000000000000004394"
                    }
                ],
                "storageVariables": []
            }
        ]
    }
}