{
    "balance_change": {
        "balanceChanges": [
            {
                "account": "0x001d4aa2e380eefba519188a1f0c974de411e292",
                "assets": [
                    {
                        "address": "0x2e98a6804e4b6c832ed0ca876a943abd3400b224",
                        "amount": "10",
                        "iconUrl": "",
                        "isERC1155": false,
                        "isERC721": false,
                        "sign": false,
                        "value": ""
                    }
                ]
            },
            {
                "account": "0xe03c23519e18d64f144d2800e30e81b0065c48b5",
                "assets": [
                    {
                        "address": "0x2e98a6804e4b6c832ed0ca876a943abd3400b224",
                        "amount": "10",
                        "iconUrl": "",
                        "isERC1155": false,
                        "isERC721": false,
                        "sign": true,
                        "value": ""
                    }
                ]
            }
        ]
    },
    "profile": {
        "basic_info": {
            "baseFee": "",
            "blockNumber": 6013230,
            "callData": "0xc8fea2fb000000000000000000000000e03c23519e18d64f144d2800e30e81b0065c48b50000000000000000000000002e98a6804e4b6c832ed0ca876a943abd3400b2240000000000000000000000000000000000000000000000008ac7230489e80000",
            "debugEnable": true,
            "errorInfo": "",
            "eventCount": 1,
            "feeRecipient": "0xea674fdde714fd979de3edf0f56aa9716b898ec8",
            "formatValue": "0",
            "gasLimit": 90000,
            "gasPrice": "15",
            "gasUsed": 25467,
            "intTxnCount": 1,
            "internalRevert": false,
            "internalRevertMessage": "",
            "isContractCreation": false,
            "isFlashloan": false,
            "maxFee": "",
            "nonce": 237027,
            "overwritedBlockNumber": -1,
            "priorityFee": "",
            "receiver": "0x001d4aa2e380eefba519188a1f0c974de411e292",
            "revertMessage": "",
            "sender": "0x9862d074e33003726fa05c74f0142995f33a3250",
            "simulationEnable": true,
            "sourceTxnHash": "0xe37be40e728c2168d01c88409e5c5186c5cd1764d3baf8d552a6a0db53c8f1c2",
            "status": true,
            "timestamp": "2018-07-23T01:53:33Z",
            "transactionFee": "0.000382005",
            "txnHash": "0xe37be40e728c2168d01c88409e5c5186c5cd1764d3baf8d552a6a0db53c8f1c2",
            "txnIndex": 76,
            "type": 0,
            "value": "0"
        },
        "fund_flow": [
            {
                "amount": "10",
                "from": "0x001d4aa2e380eefba519188a1f0c974de411e292",
                "id": 1,
                "isERC1155": false,
                "isERC721": false,
                "isReverted": false,
                "order": 1,
                "to": "0xe03c23519e18d64f144d2800e30e81b0065c48b5",
                "token": "0x2e98a6804e4b6c832ed0ca876a943abd3400b224"
            }
        ],
        "token_infos": [
            {
                "address": "0x2e98a6804e4b6c832ed0ca876a943abd3400b224",
                "decimals": 18
            },
            {
                "address": "0xc02aaa39b223fe8d0a0e5c4f27ead9083c756cc2",
                "decimals": 18
            },
            {
                "address": "0xeeeeeeeeeeeeeeeeeeeeeeeeeeeeeeeeeeeeeeee",
                "decimals": 18
            }
        ]
    },
    "address_label": {
        "labels": [
            {
                "address": "0x0000000000000000000000000000000000000002",
                "label": "Precompiled"
            },
            {
                "address": "0x0000000000000000000000000000000000000003",
                "label": "Precompiled"
            },
            {
                "address": "0x0000000000000000000000000000000000000004",
                "label": "Precompiled"
            },
            {
                "address": "0xeeeeeeeeeeeeeeeeeeeeeeeeeeeeeeeeeeeeeeee",
                "label": "Ether"
            },
            {
                "address": "0x2e98a6804e4b6c832ed0ca876a943abd3400b224",
                "label": "Livebela.com: BELA Token"
            },
            {
                "address": "0xe03c23519e18d64f144d2800e30e81b0065c48b5",
                "label": "Mercatox"
            },
            {
                "address": "0x0000000000000000000000000000000000000001",
                "label": "Precompiled"
            }
        ]
    },
    "trace": {
        "accountLabels": null,
        "dataMap": {
            "-1": {
                "invocation": {
                    "address": "0x9862d074e33003726fa05c74f0142995f33a3250",
                    "callData": "",
                    "decodedMethod": null,
                    "errorInfo": "",
                    "fromAddress": "",
                    "gasUsed": 0,
                    "id": -1,
                    "methodDecoded": false,
                    "operation": "",
                    "output": "",
                    "revert": false,
                    "revertMessage": "",
                    "selector": "",
                    "status": false,
                    "value": ""
                },
                "nodeType": 0
            },
            "0": {
                "invocation": {
                    "address": "0x001d4aa2e380eefba519188a1f0c974de411e292",
                    "callData": "0x000000000000000000000000e03c23519e18d64f144d2800e30e81b0065c48b50000000000000000000000002e98a6804e4b6c832ed0ca876a943abd3400b2240000000000000000000000000000000000000000000000008ac7230489e80000",
                    "decodedMethod": {
                        "callParams": [
                            {
                                "name": "_to",
                                "type": "address",
                                "value": "0xe03c23519e18d64f144d2800e30e81b0065c48b5"
                            },
                            {
                                "name": "_token",
                                "type": "address",
                                "value": "0x2e98a6804e4b6c832ed0ca876a943abd3400b224"
                            },
                            {
                                "name": "_amount",
                                "type": "uint256",
                                "value": "10,000,000,000,000,000,000"
                            }
                        ],
                        "constructorArguments": "",
                        "name": "collect",
                        "returnParams": [],
                        "signature": "collect(address,address,uint256)"
                    },
                    "errorInfo": "",
                    "fromAddress": "0x9862d074e33003726fa05c74f0142995f33a3250",
                    "gasUsed": 25467,
                    "id": 0,
                    "methodDecoded": true,
                    "operation": "CALL",
                    "output": "",
                    "revert": false,
                    "revertMessage": "",
                    "selector": "0xc8fea2fb",
                    "status": true,
                    "value": "0"
                },
                "nodeType": 0
            },
            "1": {
                "invocation": {
                    "address": "0x2e98a6804e4b6c832ed0ca876a943abd3400b224",
                    "callData": "0x000000000000000000000000e03c23519e18d64f144d2800e30e81b0065c48b50000000000000000000000000000000000000000000000008ac7230489e80000",
                    "decodedMethod": {
                        "callParams": [
                            {
                                "name": "_to",
                                "type": "address",
                                "value": "0xe03c23519e18d64f144d2800e30e81b0065c48b5"
                            },
                            {
                                "decimalAvailable": true,
                                "name": "_value",
                                "type": "uint256",
                                "value": "10,000,000,000,000,000,000"
                            }
                        ],
                        "constructorArguments": "",
                        "name": "transfer",
                        "returnParams": [
                            {
                                "name": "",
                                "type": "bool",
                                "value": true
                            }
                        ],
                        "signature": "transfer(address,uint256)"
                    },
                    "errorInfo": "",
                    "fromAddress": "0x001d4aa2e380eefba519188a1f0c974de411e292",
                    "gasUsed": 13845,
                    "id": 1,
                    "methodDecoded": true,
                    "operation": "CALL",
                    "output": "0x0000000000000000000000000000000000000000000000000000000000000001",
                    "revert": false,
                    "revertMessage": "",
                    "selector": "0xa9059cbb",
                    "status": true,
                    "value": "0"
                },
                "nodeType": 0
            },
            "2": {
                "event": {
                    "contract": "0x2e98a6804e4b6c832ed0ca876a943abd3400b224",
                    "decodedLog": {
                        "name": "Transfer",
                        "params": [
                            {
                                "name": "from",
                                "type": "address",
                                "value": "0x001d4aa2e380eefba519188a1f0c974de411e292"
                            },
                            {
                                "name": "to",
                                "type": "address",
                                "value": "0xe03c23519e18d64f144d2800e30e81b0065c48b5"
                            },
                            {
                                "decimalAvailable": true,
                                "name": "value",
                                "type": "uint256",
                                "value": "10,000,000,000,000,000,000"
                            }
                        ],
                        "signature": "Transfer(address,address,uint256)"
                    },
                    "id": 2,
                    "logData": "0x0000000000000000000000000000000000000000000000008ac7230489e80000",
                    "logDecoded": true,
                    "operation": "EVENT",
                    "revert": false,
                    "status": true,
                    "topics": [
                        "0xddf252ad1be2c89b69c2b068fc378daa952ba7f163c4a11628f55a4df523b3ef",
                        "0x000000000000000000000000001d4aa2e380eefba519188a1f0c974de411e292",
                        "0x000000000000000000000000e03c23519e18d64f144d2800e30e81b0065c48b5"
                    ]
                },
                "nodeType": 1
            }
        },
        "gasFlame": [
            {
                "children": [
                    {
                        "children": [
                            {
                                "children": [],
                                "depth": 0,
                                "name": "Initial Gas",
                                "value": 24472
                            },
                            {
                                "children": [
                                    {
                                        "children": [],
                                        "depth": 1,
                                        "name": "transfer",
                                        "value": 13845
                                    }
                                ],
                                "depth": 0,
                                "name": "Executed Gas",
                                "value": 15995
                            }
                        ],
                        "depth": -1,
                        "name": "Actual Gas Used",
                        "value": 25467
                    },
                    {
                        "children": [],
                        "depth": -1,
                        "name": "Refunded Gas",
                        "value": 15000
                    }
                ],
                "depth": -2,
                "name": "Total Gas",
                "value": 40467
            }
        ],
        "isConfirmed": true,
        "mainTrace": [
            {
                "children": [
                    {
                        "children": [
                            {
                                "children": [
                                    {
                                        "children": [],
                                        "depth": 2,
                                        "id": 2,
                                        "order": 2
                                    }
                                ],
                                "depth": 1,
                                "id": 1,
                                "order": 1
                            }
                        ],
                        "depth": 0,
                        "id": 0,
                        "order": 0
                    }
                ],
                "depth": -1,
                "id": -1,
                "order": -1
            }
        ],
        "mainTraceNodeCount": 3,
        "parentIdMap": {
            "0": -1,
            "1": 0,
            "2": 1
        },
        "tidyTrace": [
            {
                "children": [
                    {
                        "children": [
                            {
                                "children": [
                                    {
                                        "children": [],
                                        "depth": 2,
                                        "id": 2,
                                        "order": 2
                                    }
                                ],
                                "depth": 1,
                                "id": 1,
                                "order": 1
                            }
                        ],
                        "depth": 0,
                        "id": 0,
                        "order": 0
                    }
                ],
                "depth": -1,
                "id": -1,
                "order": -1
            }
        ],
        "tidyTraceNodeCount": 3
    },
    "state_change": {
        "stateChanges": [
            {
                "address": "0x2e98a6804e4b6c832ed0ca876a943abd3400b224",
                "erc": "ERC-20",
                "slots": [
                    {
                        "current": "0x0000000000000000000000000000000000000000000000000000000000000000",
                        "key": "0xd303f8785fad6dae0a94ca0ad570cb0cc453fadb392d36b88f6287b16342d614",
                        "prev": "0x0000000000000000000000000000000000000000000000008ac7230489e80000"
                    },
                    {
                        "current": "0x000000000000000000000000000000000000000000002ada7457cf0492983aa0",
                        "key": "0xe8e14a86b2b17555659106c9c557a99a85283450b47f4d1fedfb85d1445fb589",
                        "prev": "0x000000000000000000000000000000000000000000002ad9e990ac0008b03aa0"
                    }
                ],
                "storageVariables": [
                    {
                        "name": "balances",
                        "type": "mapping(address => uint256)",
                        "value": {
                            "pairs": [
                                {
                                    "key": "0x001d4aa2e380eefba519188a1f0c974de411e292",
                                    "value": {
                                        "current": "0",
                                        "prev": "10000000000000000000",
                                        "typeTag": 1
                                    }
                                },
                                {
                                    "key": "0xe03c23519e18d64f144d2800e30e81b0065c48b5",
                                    "value": {
                                        "current": "202369165885443700964000",
                                        "prev": "202359165885443700964000",
                                        "typeTag": 1
                                    }
                                }
                            ],
                            "typeTag": 4
                        }
                    }
                ]
            }
        ]
    }
}