{
    "balance_change": {
        "balanceChanges": [
            {
                "account": "0xd0fe971732e547059ea6009c79a2d6155bdb41a4",
                "assets": [
                    {
                        "address": "0xb136c33c8fba0f2c32bfb384f3b65bb095d27789",
                        "amount": "1",
                        "iconUrl": "",
                        "isERC1155": false,
                        "isERC721": true,
                        "sign": true,
                        "tokenID": "1",
                        "value": ""
                    }
                ]
            },
            {
                "account": "0xcda72070e455bb31c7690a170224ce43623d0b6f",
                "assets": [
                    {
                        "address": "0xb136c33c8fba0f2c32bfb384f3b65bb095d27789",
                        "amount": "1",
                        "iconUrl": "",
                        "isERC1155": false,
                        "isERC721": true,
                        "sign": false,
                        "tokenID": "1",
                        "value": ""
                    },
                    {
                        "address": "0xeeeeeeeeeeeeeeeeeeeeeeeeeeeeeeeeeeeeeeee",
                        "amount": "0.6",
                        "iconUrl": "https://assets.blocksec.com/image/1663669189317-3.png",
                        "isERC1155": false,
                        "isERC721": false,
                        "sign": false,
                        "value": "756.7020000000000437"
                    }
                ]
            },
            {
                "account": "0x67df244584b67e8c51b10ad610aaffa9a402fdb6",
                "assets": [
                    {
                        "address": "0xeeeeeeeeeeeeeeeeeeeeeeeeeeeeeeeeeeeeeeee",
                        "amount": "0.03",
                        "iconUrl": "https://assets.blocksec.com/image/1663669189317-3.png",
                        "isERC1155": false,
                        "isERC721": false,
                        "sign": true,
                        "value": "37.83510000000000218"
                    }
                ]
            },
            {
                "account": "0xeb451138caeea7dc67badca037d91418f99e831e",
                "assets": [
                    {
                        "address": "0xeeeeeeeeeeeeeeeeeeeeeeeeeeeeeeeeeeeeeeee",
                        "amount": "0.57",
                        "iconUrl": "https://assets.blocksec.com/image/1663669189317-3.png",
                        "isERC1155": false,
                        "isERC721": false,
                        "sign": true,
                        "value": "718.86690000000004147"
                    }
                ]
            }
        ]
    },
    "profile": {
        "basic_info": {
            "baseFee": "19.817720211",
            "blockNumber": 15948386,
            "callData": "0x7430e0c60000000000000000000000000000000000000000000000000000000000024b5a",
            "debugEnable": true,
            "errorInfo": "",
            "eventCount": 3,
            "feeRecipient": "0x690b9a9e9aa1c9db991c7721a92d351db4fac990",
            "formatValue": "0",
            "gasLimit": 190110,
            "gasPrice": "21.317720211",
            "gasUsed": 134738,
            "intTxnCount": 14,
            "internalRevert": false,
            "internalRevertMessage": "",
            "isContractCreation": false,
            "isFlashloan": false,
            "maxFee": "28.908617531",
            "nonce": 740,
            "overwritedBlockNumber": -1,
            "priorityFee": "1.5",
            "receiver": "0xcda72070e455bb31c7690a170224ce43623d0b6f",
            "revertMessage": "",
            "sender": "0xd0fe971732e547059ea6009c79a2d6155bdb41a4",
            "simulationEnable": true,
            "sourceTxnHash": "0xe3053bff6d6341558f7c18951b8f15a4ee5bad4827cf00da3415c380a017e12b",
            "status": true,
            "timestamp": "2022-11-11T17:52:47Z",
            "transactionFee": "0.002872306985789718",
            "txnHash": "0xe3053bff6d6341558f7c18951b8f15a4ee5bad4827cf00da3415c380a017e12b",
            "txnIndex": 91,
            "type": 2,
            "value": "0"
        },
        "fund_flow": [
            {
                "amount": "1",
                "from": "0xcda72070e455bb31c7690a170224ce43623d0b6f",
                "id": 1,
                "isERC1155": false,
                "isERC721": true,
                "isReverted": false,
                "order": 1,
                "to": "0xd0fe971732e547059ea6009c79a2d6155bdb41a4",
                "token": "0xb136c33c8fba0f2c32bfb384f3b65bb095d27789",
                "tokenID": "1"
            },
            {
                "amount": "0.57",
                "from": "0xcda72070e455bb31c7690a170224ce43623d0b6f",
                "id": 2,
                "isERC1155": false,
                "isERC721": false,
                "isReverted": false,
                "order": 2,
                "to": "0xeb451138caeea7dc67badca037d91418f99e831e",
                "token": "0xeeeeeeeeeeeeeeeeeeeeeeeeeeeeeeeeeeeeeeee"
            },
            {
                "amount": "0.03",
                "from": "0xcda72070e455bb31c7690a170224ce43623d0b6f",
                "id": 3,
                "isERC1155": false,
                "isERC721": false,
                "isReverted": false,
                "order": 3,
                "to": "0x67df244584b67e8c51b10ad610aaffa9a402fdb6",
                "token": "0xeeeeeeeeeeeeeeeeeeeeeeeeeeeeeeeeeeeeeeee"
            }
        ],
        "token_infos": [
            {
                "address": "0xc02aaa39b223fe8d0a0e5c4f27ead9083c756cc2",
                "decimals": 18
            },
            {
                "address": "0xeeeeeeeeeeeeeeeeeeeeeeeeeeeeeeeeeeeeeeee",
                "decimals": 18
            }
        ]
    },
    "address_label": {
        "labels": [
            {
                "address": "0x0000000000000000000000000000000000000002",
                "label": "Precompiled"
            },
            {
                "address": "0x0000000000000000000000000000000000000004",
                "label": "Precompiled"
            },
            {
                "address": "0x1c0df262a40f99d7d6145faba04db75d1126f93d",
                "label": "FoundationTreasury"
            },
            {
                "address": "0xe38f942db7a1b4213d6213f70c499b59287b01f1",
                "label": "Foundation Collection Template v2 (FCTv2)"
            },
            {
                "address": "0x67df244584b67e8c51b10ad610aaffa9a402fdb6",
                "label": "Foundation: Treasury"
            },
            {
                "address": "0xcda72070e455bb31c7690a170224ce43623d0b6f",
                "label": "Foundation: Market"
            },
            {
                "address": "0x9b5d1e314a8c8af17150fe4e327e8523ee15d25f",
                "label": "FNDNFTMarket"
            },
            {
                "address": "0x0000000000000000000000000000000000000001",
                "label": "Precompiled"
            },
            {
                "address": "0x0000000000000000000000000000000000000003",
                "label": "Precompiled"
            },
            {
                "address": "0xeeeeeeeeeeeeeeeeeeeeeeeeeeeeeeeeeeeeeeee",
                "label": "Ether"
            }
        ]
    },
    "trace": {
        "accountLabels": null,
        "dataMap": {
            "-1": {
                "invocation": {
                    "address": "0xd0fe971732e547059ea6009c79a2d6155bdb41a4",
                    "callData": "",
                    "decodedMethod": null,
                    "errorInfo": "",
                    "fromAddress": "",
                    "gasUsed": 0,
                    "id": -1,
                    "methodDecoded": false,
                    "operation": "",
                    "output": "",
                    "revert": false,
                    "revertMessage": "",
                    "selector": "",
                    "status": false,
                    "value": ""
                },
                "nodeType": 0
            },
            "0": {
                "invocation": {
                    "address": "0xcda72070e455bb31c7690a170224ce43623d0b6f",
                    "callData": "0x0000000000000000000000000000000000000000000000000000000000024b5a",
                    "decodedMethod": {
                        "callParams": [
                            {
                                "name": "auctionId",
                                "type": "uint256",
                                "value": "150,362"
                            }
                        ],
                        "constructorArguments": "",
                        "name": "finalizeReserveAuction",
                        "returnParams": [],
                        "signature": "finalizeReserveAuction(uint256)"
                    },
                    "errorInfo": "",
                    "fromAddress": "0xd0fe971732e547059ea6009c79a2d6155bdb41a4",
                    "gasUsed": 134738,
                    "id": 0,
                    "methodDecoded": true,
                    "operation": "CALL",
                    "output": "",
                    "revert": false,
                    "revertMessage": "",
                    "selector": "0x7430e0c6",
                    "status": true,
                    "value": "0"
                },
                "nodeType": 0
            },
            "1": {
                "invocation": {
                    "address": "0x9b5d1e314a8c8af17150fe4e327e8523ee15d25f",
                    "callData": "0x0000000000000000000000000000000000000000000000000000000000024b5a",
                    "decodedMethod": {
                        "callParams": [
                            {
                                "name": "auctionId",
                                "type": "uint256",
                                "value": "150,362"
                            }
                        ],
                        "constructorArguments": "",
                        "name": "finalizeReserveAuction",
                        "returnParams": [],
                        "signature": "finalizeReserveAuction(uint256)"
                    },
                    "errorInfo": "",
                    "fromAddress": "0xcda72070e455bb31c7690a170224ce43623d0b6f",
                    "gasUsed": 139921,
                    "id": 1,
                    "methodDecoded": true,
                    "operation": "DELEGATECALL",
                    "output": "",
                    "revert": false,
                    "revertMessage": "",
                    "selector": "0x7430e0c6",
                    "status": true,
                    "value": "0"
                },
                "nodeType": 0
            },
            "10": {
                "invocation": {
                    "address": "0xb136c33c8fba0f2c32bfb384f3b65bb095d27789",
                    "callData": "0x2a55205a00000000000000000000000000000000000000000000000000000000",
                    "decodedMethod": {
                        "callParams": [
                            {
                                "name": "interfaceId",
                                "type": "bytes4",
                                "value": "0x2a55205a"
                            }
                        ],
                        "constructorArguments": "",
                        "name": "supportsInterface",
                        "returnParams": [
                            {
                                "name": "",
                                "type": "bool",
                                "value": true
                            }
                        ],
                        "signature": "supportsInterface(bytes4)"
                    },
                    "errorInfo": "",
                    "fromAddress": "0x9b5d1e314a8c8af17150fe4e327e8523ee15d25f",
                    "gasUsed": 828,
                    "id": 10,
                    "methodDecoded": true,
                    "operation": "STATICCALL",
                    "output": "0x0000000000000000000000000000000000000000000000000000000000000001",
                    "revert": false,
                    "revertMessage": "",
                    "selector": "0x01ffc9a7",
                    "status": true,
                    "value": "0"
                },
                "nodeType": 0
            },
            "11": {
                "invocation": {
                    "address": "0xe38f942db7a1b4213d6213f70c499b59287b01f1",
                    "callData": "0x2a55205a00000000000000000000000000000000000000000000000000000000",
                    "decodedMethod": {
                        "callParams": [
                            {
                                "name": "interfaceId",
                                "type": "bytes4",
                                "value": "0x2a55205a"
                            }
                        ],
                        "constructorArguments": "",
                        "name": "supportsInterface",
                        "returnParams": [
                            {
                                "name": "",
                                "type": "bool",
                                "value": true
                            }
                        ],
                        "signature": "supportsInterface(bytes4)"
                    },
                    "errorInfo": "",
                    "fromAddress": "0xb136c33c8fba0f2c32bfb384f3b65bb095d27789",
                    "gasUsed": 656,
                    "id": 11,
                    "methodDecoded": true,
                    "operation": "DELEGATECALL",
                    "output": "0x0000000000000000000000000000000000000000000000000000000000000001",
                    "revert": false,
                    "revertMessage": "",
                    "selector": "0x01ffc9a7",
                    "status": true,
                    "value": "0"
                },
                "nodeType": 0
            },
            "12": {
                "invocation": {
                    "address": "0xb136c33c8fba0f2c32bfb384f3b65bb095d27789",
                    "callData": "0x00000000000000000000000000000000000000000000000000000000000000010000000000000000000000000000000000000000000000000000000000002710",
                    "decodedMethod": {
                        "callParams": [
                            {
                                "name": "_tokenId",
                                "type": "uint256",
                                "value": "1"
                            },
                            {
                                "name": "_salePrice",
                                "type": "uint256",
                                "value": "10,000"
                            }
                        ],
                        "constructorArguments": "",
                        "name": "royaltyInfo",
                        "returnParams": [
                            {
                                "name": "receiver",
                                "type": "address",
                                "value": "0xeb451138caeea7dc67badca037d91418f99e831e"
                            },
                            {
                                "name": "royaltyAmount",
                                "type": "uint256",
                                "value": "1,000"
                            }
                        ],
                        "signature": "royaltyInfo(uint256,uint256)"
                    },
                    "errorInfo": "",
                    "fromAddress": "0x9b5d1e314a8c8af17150fe4e327e8523ee15d25f",
                    "gasUsed": 3033,
                    "id": 12,
                    "methodDecoded": true,
                    "operation": "STATICCALL",
                    "output": "0x000000000000000000000000eb451138caeea7dc67badca037d91418f99e831e00000000000000000000000000000000000000000000000000000000000003e8",
                    "revert": false,
                    "revertMessage": "",
                    "selector": "0x2a55205a",
                    "status": true,
                    "value": "0"
                },
                "nodeType": 0
            },
            "13": {
                "invocation": {
                    "address": "0xe38f942db7a1b4213d6213f70c499b59287b01f1",
                    "callData": "0x00000000000000000000000000000000000000000000000000000000000000010000000000000000000000000000000000000000000000000000000000002710",
                    "decodedMethod": {
                        "callParams": [
                            {
                                "name": "_tokenId",
                                "type": "uint256",
                                "value": "1"
                            },
                            {
                                "name": "_salePrice",
                                "type": "uint256",
                                "value": "10,000"
                            }
                        ],
                        "constructorArguments": "",
                        "name": "royaltyInfo",
                        "returnParams": [
                            {
                                "name": "receiver",
                                "type": "address",
                                "value": "0xeb451138caeea7dc67badca037d91418f99e831e"
                            },
                            {
                                "name": "royaltyAmount",
                                "type": "uint256",
                                "value": "1,000"
                            }
                        ],
                        "signature": "royaltyInfo(uint256,uint256)"
                    },
                    "errorInfo": "",
                    "fromAddress": "0xb136c33c8fba0f2c32bfb384f3b65bb095d27789",
                    "gasUsed": 2852,
                    "id": 13,
                    "methodDecoded": true,
                    "operation": "DELEGATECALL",
                    "output": "0x000000000000000000000000eb451138caeea7dc67badca037d91418f99e831e00000000000000000000000000000000000000000000000000000000000003e8",
                    "revert": false,
                    "revertMessage": "",
                    "selector": "0x2a55205a",
                    "status": true,
                    "value": "0"
                },
                "nodeType": 0
            },
            "14": {
                "invocation": {
                    "address": "0xeb451138caeea7dc67badca037d91418f99e831e",
                    "callData": "0x",
                    "decodedMethod": null,
                    "errorInfo": "",
                    "fromAddress": "0xcda72070e455bb31c7690a170224ce43623d0b6f",
                    "gasUsed": 0,
                    "id": 14,
                    "methodDecoded": false,
                    "operation": "CALL",
                    "output": "",
                    "revert": false,
                    "revertMessage": "",
                    "selector": "fallback",
                    "status": true,
                    "value": "0.57"
                },
                "nodeType": 0
            },
            "15": {
                "invocation": {
                    "address": "0x67df244584b67e8c51b10ad610aaffa9a402fdb6",
                    "callData": "0x",
                    "decodedMethod": null,
                    "errorInfo": "",
                    "fromAddress": "0xcda72070e455bb31c7690a170224ce43623d0b6f",
                    "gasUsed": 7204,
                    "id": 15,
                    "methodDecoded": false,
                    "operation": "CALL",
                    "output": "",
                    "revert": false,
                    "revertMessage": "",
                    "selector": "fallback",
                    "status": true,
                    "value": "0.03"
                },
                "nodeType": 0
            },
            "16": {
                "invocation": {
                    "address": "0x1c0df262a40f99d7d6145faba04db75d1126f93d",
                    "callData": "0x",
                    "decodedMethod": null,
                    "errorInfo": "",
                    "fromAddress": "0x67df244584b67e8c51b10ad610aaffa9a402fdb6",
                    "gasUsed": 55,
                    "id": 16,
                    "methodDecoded": false,
                    "operation": "DELEGATECALL",
                    "output": "",
                    "revert": false,
                    "revertMessage": "",
                    "selector": "fallback",
                    "status": true,
                    "value": "0.03"
                },
                "nodeType": 0
            },
            "17": {
                "event": {
                    "contract": "0xcda72070e455bb31c7690a170224ce43623d0b6f",
                    "decodedLog": {
                        "name": "ReserveAuctionFinalized",
                        "params": [
                            {
                                "name": "auctionId",
                                "type": "uint256",
                                "value": "150,362"
                            },
                            {
                                "name": "seller",
                                "type": "address",
                                "value": "0xeb451138caeea7dc67badca037d91418f99e831e"
                            },
                            {
                                "name": "bidder",
                                "type": "address",
                                "value": "0xd0fe971732e547059ea6009c79a2d6155bdb41a4"
                            },
                            {
                                "name": "totalFees",
                                "type": "uint256",
                                "value": "30,000,000,000,000,000"
                            },
                            {
                                "name": "creatorRev",
                                "type": "uint256",
                                "value": "570,000,000,000,000,000"
                            },
                            {
                                "name": "sellerRev",
                                "type": "uint256",
                                "value": "0"
                            }
                        ],
                        "signature": "ReserveAuctionFinalized(uint256,address,address,uint256,uint256,uint256)"
                    },
                    "id": 17,
                    "logData": "0x000000000000000000000000000000000000000000000000006a94d74f43000000000000000000000000000000000000000000000000000007e90bfae1f900000000000000000000000000000000000000000000000000000000000000000000",
                    "logDecoded": true,
                    "operation": "EVENT",
                    "revert": false,
                    "status": true,
                    "topics": [
                        "0x2edb0e99c6ac35be6731dab554c1d1fa1b7beb675090dbb09fb14e615aca1c4a",
                        "0x0000000000000000000000000000000000000000000000000000000000024b5a",
                        "0x000000000000000000000000eb451138caeea7dc67badca037d91418f99e831e",
                        "0x000000000000000000000000d0fe971732e547059ea6009c79a2d6155bdb41a4"
                    ]
                },
                "nodeType": 1
            },
            "2": {
                "invocation": {
                    "address": "0xb136c33c8fba0f2c32bfb384f3b65bb095d27789",
                    "callData": "0x000000000000000000000000cda72070e455bb31c7690a170224ce43623d0b6f000000000000000000000000d0fe971732e547059ea6009c79a2d6155bdb41a40000000000000000000000000000000000000000000000000000000000000001",
                    "decodedMethod": {
                        "callParams": [
                            {
                                "name": "from",
                                "type": "address",
                                "value": "0xcda72070e455bb31c7690a170224ce43623d0b6f"
                            },
                            {
                                "name": "to",
                                "type": "address",
                                "value": "0xd0fe971732e547059ea6009c79a2d6155bdb41a4"
                            },
                            {
                                "decimalAvailable": true,
                                "name": "tokenId",
                                "type": "uint256",
                                "value": "1"
                            }
                        ],
                        "constructorArguments": "",
                        "name": "transferFrom",
                        "returnParams": [],
                        "signature": "transferFrom(address,address,uint256)"
                    },
                    "errorInfo": "",
                    "fromAddress": "0xcda72070e455bb31c7690a170224ce43623d0b6f",
                    "gasUsed": 43166,
                    "id": 2,
                    "methodDecoded": true,
                    "operation": "CALL",
                    "output": "",
                    "revert": false,
                    "revertMessage": "",
                    "selector": "0x23b872dd",
                    "status": true,
                    "value": "0"
                },
                "nodeType": 0
            },
            "3": {
                "invocation": {
                    "address": "0xe38f942db7a1b4213d6213f70c499b59287b01f1",
                    "callData": "0x000000000000000000000000cda72070e455bb31c7690a170224ce43623d0b6f000000000000000000000000d0fe971732e547059ea6009c79a2d6155bdb41a40000000000000000000000000000000000000000000000000000000000000001",
                    "decodedMethod": {
                        "callParams": [
                            {
                                "name": "from",
                                "type": "address",
                                "value": "0xcda72070e455bb31c7690a170224ce43623d0b6f"
                            },
                            {
                                "name": "to",
                                "type": "address",
                                "value": "0xd0fe971732e547059ea6009c79a2d6155bdb41a4"
                            },
                            {
                                "decimalAvailable": true,
                                "name": "tokenId",
                                "type": "uint256",
                                "value": "1"
                            }
                        ],
                        "constructorArguments": "",
                        "name": "transferFrom",
                        "returnParams": [],
                        "signature": "transferFrom(address,address,uint256)"
                    },
                    "errorInfo": "",
                    "fromAddress": "0xb136c33c8fba0f2c32bfb384f3b65bb095d27789",
                    "gasUsed": 40485,
                    "id": 3,
                    "methodDecoded": true,
                    "operation": "DELEGATECALL",
                    "output": "",
                    "revert": false,
                    "revertMessage": "",
                    "selector": "0x23b872dd",
                    "status": true,
                    "value": "0"
                },
                "nodeType": 0
            },
            "4": {
                "event": {
                    "contract": "0xb136c33c8fba0f2c32bfb384f3b65bb095d27789",
                    "decodedLog": {
                        "name": "Approval",
                        "params": [
                            {
                                "name": "owner",
                                "type": "address",
                                "value": "0xcda72070e455bb31c7690a170224ce43623d0b6f"
                            },
                            {
                                "name": "approved",
                                "type": "address",
                                "value": "0x0000000000000000000000000000000000000000"
                            },
                            {
                                "decimalAvailable": true,
                                "name": "tokenId",
                                "type": "uint256",
                                "value": "1"
                            }
                        ],
                        "signature": "Approval(address,address,uint256)"
                    },
                    "id": 4,
                    "logData": "0x",
                    "logDecoded": true,
                    "operation": "EVENT",
                    "revert": false,
                    "status": true,
                    "topics": [
                        "0x8c5be1e5ebec7d5bd14f71427d1e84f3dd0314c0f7b2291e5b200ac8c7c3b925",
                        "0x000000000000000000000000cda72070e455bb31c7690a170224ce43623d0b6f",
                        "0x0000000000000000000000000000000000000000000000000000000000000000",
                        "0x0000000000000000000000000000000000000000000000000000000000000001"
                    ]
                },
                "nodeType": 1
            },
            "5": {
                "event": {
                    "contract": "0xb136c33c8fba0f2c32bfb384f3b65bb095d27789",
                    "decodedLog": {
                        "name": "Transfer",
                        "params": [
                            {
                                "name": "from",
                                "type": "address",
                                "value": "0xcda72070e455bb31c7690a170224ce43623d0b6f"
                            },
                            {
                                "name": "to",
                                "type": "address",
                                "value": "0xd0fe971732e547059ea6009c79a2d6155bdb41a4"
                            },
                            {
                                "decimalAvailable": true,
                                "name": "tokenId",
                                "type": "uint256",
                                "value": "1"
                            }
                        ],
                        "signature": "Transfer(address,address,uint256)"
                    },
                    "id": 5,
                    "logData": "0x",
                    "logDecoded": true,
                    "operation": "EVENT",
                    "revert": false,
                    "status": true,
                    "topics": [
                        "0xddf252ad1be2c89b69c2b068fc378daa952ba7f163c4a11628f55a4df523b3ef",
                        "0x000000000000000000000000cda72070e455bb31c7690a170224ce43623d0b6f",
                        "0x000000000000000000000000d0fe971732e547059ea6009c79a2d6155bdb41a4",
                        "0x0000000000000000000000000000000000000000000000000000000000000001"
                    ]
                },
                "nodeType": 1
            },
            "6": {
                "invocation": {
                    "address": "0x9b5d1e314a8c8af17150fe4e327e8523ee15d25f",
                    "callData": "0x000000000000000000000000b136c33c8fba0f2c32bfb384f3b65bb095d277890000000000000000000000000000000000000000000000000000000000000001",
                    "decodedMethod": {
                        "callParams": [
                            {
                                "name": "nftContract",
                                "type": "address",
                                "value": "0xb136c33c8fba0f2c32bfb384f3b65bb095d27789"
                            },
                            {
                                "name": "tokenId",
                                "type": "uint256",
                                "value": "1"
                            }
                        ],
                        "constructorArguments": "",
                        "name": "getTokenCreator",
                        "returnParams": [
                            {
                                "name": "creator",
                                "type": "address",
                                "value": "0xeb451138caeea7dc67badca037d91418f99e831e"
                            }
                        ],
                        "signature": "getTokenCreator(address,uint256)"
                    },
                    "errorInfo": "",
                    "fromAddress": "0xcda72070e455bb31c7690a170224ce43623d0b6f",
                    "gasUsed": 3565,
                    "id": 6,
                    "methodDecoded": true,
                    "operation": "STATICCALL",
                    "output": "0x000000000000000000000000eb451138caeea7dc67badca037d91418f99e831e",
                    "revert": false,
                    "revertMessage": "",
                    "selector": "0xd220d30a",
                    "status": true,
                    "value": "0"
                },
                "nodeType": 0
            },
            "7": {
                "invocation": {
                    "address": "0xb136c33c8fba0f2c32bfb384f3b65bb095d27789",
                    "callData": "0x0000000000000000000000000000000000000000000000000000000000000001",
                    "decodedMethod": {
                        "callParams": [
                            {
                                "name": "",
                                "type": "uint256",
                                "value": "1"
                            }
                        ],
                        "constructorArguments": "",
                        "name": "tokenCreator",
                        "returnParams": [
                            {
                                "name": "",
                                "type": "address",
                                "value": "0xeb451138caeea7dc67badca037d91418f99e831e"
                            }
                        ],
                        "signature": "tokenCreator(uint256)"
                    },
                    "errorInfo": "",
                    "fromAddress": "0x9b5d1e314a8c8af17150fe4e327e8523ee15d25f",
                    "gasUsed": 2676,
                    "id": 7,
                    "methodDecoded": true,
                    "operation": "STATICCALL",
                    "output": "0x000000000000000000000000eb451138caeea7dc67badca037d91418f99e831e",
                    "revert": false,
                    "revertMessage": "",
                    "selector": "0x40c1a064",
                    "status": true,
                    "value": "0"
                },
                "nodeType": 0
            },
            "8": {
                "invocation": {
                    "address": "0xe38f942db7a1b4213d6213f70c499b59287b01f1",
                    "callData": "0x0000000000000000000000000000000000000000000000000000000000000001",
                    "decodedMethod": {
                        "callParams": [
                            {
                                "name": "",
                                "type": "uint256",
                                "value": "1"
                            }
                        ],
                        "constructorArguments": "",
                        "name": "tokenCreator",
                        "returnParams": [
                            {
                                "name": "",
                                "type": "address",
                                "value": "0xeb451138caeea7dc67badca037d91418f99e831e"
                            }
                        ],
                        "signature": "tokenCreator(uint256)"
                    },
                    "errorInfo": "",
                    "fromAddress": "0xb136c33c8fba0f2c32bfb384f3b65bb095d27789",
                    "gasUsed": 2504,
                    "id": 8,
                    "methodDecoded": true,
                    "operation": "DELEGATECALL",
                    "output": "0x000000000000000000000000eb451138caeea7dc67badca037d91418f99e831e",
                    "revert": false,
                    "revertMessage": "",
                    "selector": "0x40c1a064",
                    "status": true,
                    "value": "0"
                },
                "nodeType": 0
            },
            "9": {
                "invocation": {
                    "address": "0x9b5d1e314a8c8af17150fe4e327e8523ee15d25f",
                    "callData": "0x000000000000000000000000b136c33c8fba0f2c32bfb384f3b65bb095d277890000000000000000000000000000000000000000000000000000000000000001",
                    "decodedMethod": {
                        "callParams": [
                            {
                                "name": "nftContract",
                                "type": "address",
                                "value": "0xb136c33c8fba0f2c32bfb384f3b65bb095d27789"
                            },
                            {
                                "name": "tokenId",
                                "type": "uint256",
                                "value": "1"
                            }
                        ],
                        "constructorArguments": "",
                        "name": "getImmutableRoyalties",
                        "returnParams": [
                            {
                                "name": "recipients",
                                "type": "address[]",
                                "value": [
                                    "0xeb451138caeea7dc67badca037d91418f99e831e"
                                ]
                            },
                            {
                                "name": "splitPerRecipientInBasisPoints",
                                "type": "uint256[]",
                                "value": []
                            }
                        ],
                        "signature": "getImmutableRoyalties(address,uint256)"
                    },
                    "errorInfo": "",
                    "fromAddress": "0xcda72070e455bb31c7690a170224ce43623d0b6f",
                    "gasUsed": 6523,
                    "id": 9,
                    "methodDecoded": true,
                    "operation": "STATICCALL",
                    "output": "0x000000000000000000000000000000000000000000000000000000000000004000000000000000000000000000000000000000000000000000000000000000800000000000000000000000000000000000000000000000000000000000000001000000000000000000000000eb451138caeea7dc67badca037d91418f99e831e0000000000000000000000000000000000000000000000000000000000000000",
                    "revert": false,
                    "revertMessage": "",
                    "selector": "0x71275f2a",
                    "status": true,
                    "value": "0"
                },
                "nodeType": 0
            }
        },
        "gasFlame": [
            {
                "children": [
                    {
                        "children": [
                            {
                                "children": [],
                                "depth": 0,
                                "name": "Initial Gas",
                                "value": 21228
                            },
                            {
                                "children": [
                                    {
                                        "children": [
                                            {
                                                "children": [
                                                    {
                                                        "children": [],
                                                        "depth": 3,
                                                        "name": "transferFrom",
                                                        "value": 40485
                                                    }
                                                ],
                                                "depth": 2,
                                                "name": "transferFrom",
                                                "value": 43166
                                            },
                                            {
                                                "children": [
                                                    {
                                                        "children": [
                                                            {
                                                                "children": [],
                                                                "depth": 4,
                                                                "name": "tokenCreator",
                                                                "value": 2504
                                                            }
                                                        ],
                                                        "depth": 3,
                                                        "name": "tokenCreator",
                                                        "value": 2676
                                                    }
                                                ],
                                                "depth": 2,
                                                "name": "getTokenCreator",
                                                "value": 3565
                                            },
                                            {
                                                "children": [
                                                    {
                                                        "children": [
                                                            {
                                                                "children": [],
                                                                "depth": 4,
                                                                "name": "supportsInterface",
                                                                "value": 656
                                                            }
                                                        ],
                                                        "depth": 3,
                                                        "name": "supportsInterface",
                                                        "value": 828
                                                    },
                                                    {
                                                        "children": [
                                                            {
                                                                "children": [],
                                                                "depth": 4,
                                                                "name": "royaltyInfo",
                                                                "value": 2852
                                                            }
                                                        ],
                                                        "depth": 3,
                                                        "name": "royaltyInfo",
                                                        "value": 3033
                                                    }
                                                ],
                                                "depth": 2,
                                                "name": "getImmutableRoyalties",
                                                "value": 6523
                                            },
                                            {
                                                "children": [],
                                                "depth": 2,
                                                "name": "fallback",
                                                "value": 0
                                            },
                                            {
                                                "children": [
                                                    {
                                                        "children": [],
                                                        "depth": 3,
                                                        "name": "fallback",
                                                        "value": 55
                                                    }
                                                ],
                                                "depth": 2,
                                                "name": "fallback",
                                                "value": 7204
                                            }
                                        ],
                                        "depth": 1,
                                        "name": "finalizeReserveAuction",
                                        "value": 139921
                                    }
                                ],
                                "depth": 0,
                                "name": "Executed Gas",
                                "value": 147194
                            }
                        ],
                        "depth": -1,
                        "name": "Actual Gas Used",
                        "value": 134738
                    },
                    {
                        "children": [],
                        "depth": -1,
                        "name": "Refunded Gas",
                        "value": 33684
                    }
                ],
                "depth": -2,
                "name": "Total Gas",
                "value": 168422
            }
        ],
        "isConfirmed": true,
        "mainTrace": [
            {
                "children": [
                    {
                        "children": [
                            {
                                "children": [
                                    {
                                        "children": [
                                            {
                                                "children": [
                                                    {
                                                        "children": [],
                                                        "depth": 4,
                                                        "id": 4,
                                                        "order": 4
                                                    },
                                                    {
                                                        "children": [],
                                                        "depth": 4,
                                                        "id": 5,
                                                        "order": 5
                                                    }
                                                ],
                                                "depth": 3,
                                                "id": 3,
                                                "order": 3
                                            }
                                        ],
                                        "depth": 2,
                                        "id": 2,
                                        "order": 2
                                    },
                                    {
                                        "children": [
                                            {
                                                "children": [
                                                    {
                                                        "children": [],
                                                        "depth": 4,
                                                        "id": 8,
                                                        "order": 8
                                                    }
                                                ],
                                                "depth": 3,
                                                "id": 7,
                                                "order": 7
                                            }
                                        ],
                                        "depth": 2,
                                        "id": 6,
                                        "order": 6
                                    },
                                    {
                                        "children": [
                                            {
                                                "children": [
                                                    {
                                                        "children": [],
                                                        "depth": 4,
                                                        "id": 11,
                                                        "order": 11
                                                    }
                                                ],
                                                "depth": 3,
                                                "id": 10,
                                                "order": 10
                                            },
                                            {
                                                "children": [
                                                    {
                                                        "children": [],
                                                        "depth": 4,
                                                        "id": 13,
                                                        "order": 13
                                                    }
                                                ],
                                                "depth": 3,
                                                "id": 12,
                                                "order": 12
                                            }
                                        ],
                                        "depth": 2,
                                        "id": 9,
                                        "order": 9
                                    },
                                    {
                                        "children": [],
                                        "depth": 2,
                                        "id": 14,
                                        "order": 14
                                    },
                                    {
                                        "children": [
                                            {
                                                "children": [],
                                                "depth": 3,
                                                "id": 16,
                                                "order": 16
                                            }
                                        ],
                                        "depth": 2,
                                        "id": 15,
                                        "order": 15
                                    },
                                    {
                                        "children": [],
                                        "depth": 2,
                                        "id": 17,
                                        "order": 17
                                    }
                                ],
                                "depth": 1,
                                "id": 1,
                                "order": 1
                            }
                        ],
                        "depth": 0,
                        "id": 0,
                        "order": 0
                    }
                ],
                "depth": -1,
                "id": -1,
                "order": -1
            }
        ],
        "mainTraceNodeCount": 18,
        "parentIdMap": {
            "0": -1,
            "1": 0,
            "10": 9,
            "11": 10,
            "12": 9,
            "13": 12,
            "14": 1,
            "15": 1,
            "16": 15,
            "17": 1,
            "2": 1,
            "3": 2,
            "4": 3,
            "5": 3,
            "6": 1,
            "7": 6,
            "8": 7,
            "9": 1
        },
        "tidyTrace": [
            {
                "children": [
                    {
                        "children": [
                            {
                                "children": [
                                    {
                                        "children": [
                                            {
                                                "children": [
                                                    {
                                                        "children": [],
                                                        "depth": 4,
                                                        "id": 4,
                                                        "order": 4
                                                    },
                                                    {
                                                        "children": [],
                                                        "depth": 4,
                                                        "id": 5,
                                                        "order": 5
                                                    }
                                                ],
                                                "depth": 3,
                                                "id": 3,
                                                "order": 3
                                            }
                                        ],
                                        "depth": 2,
                                        "id": 2,
                                        "order": 2
                                    },
                                    {
                                        "children": [],
                                        "depth": 2,
                                        "id": 14,
                                        "order": 14
                                    },
                                    {
                                        "children": [
                                            {
                                                "children": [],
                                                "depth": 3,
                                                "id": 16,
                                                "order": 16
                                            }
                                        ],
                                        "depth": 2,
                                        "id": 15,
                                        "order": 15
                                    },
                                    {
                                        "children": [],
                                        "depth": 2,
                                        "id": 17,
                                        "order": 17
                                    }
                                ],
                                "depth": 1,
                                "id": 1,
                                "order": 1
                            }
                        ],
                        "depth": 0,
                        "id": 0,
                        "order": 0
                    }
                ],
                "depth": -1,
                "id": -1,
                "order": -1
            }
        ],
        "tidyTraceNodeCount": 10
    },
    "state_change": {
        "stateChanges": [
            {
                "address": "0xb136c33c8fba0f2c32bfb384f3b65bb095d27789",
                "erc": "ERC-721",
                "slots": [
                    {
                        "current": "0x000000000000000000000000d0fe971732e547059ea6009c79a2d6155bdb41a4",
                        "key": "0x6bee784efeb983674392298ab585b22866bedf00ebb0eea949d1e66f3f50e71d",
                        "prev": "0x000000000000000000000000cda72070e455bb31c7690a170224ce43623d0b6f"
                    },
                    {
                        "current": "0x0000000000000000000000000000000000000000000000000000000000000000",
                        "key": "0xeb40862b1d6c4ab7ecfc5aea55b22c875e4ab0a78d1a611b68c7ad49f7631166",
                        "prev": "0x0000000000000000000000000000000000000000000000000000000000000001"
                    },
                    {
                        "current": "0x0000000000000000000000000000000000000000000000000000000000000001",
                        "key": "0x10c1dd88844fb06bad5b03aba85f318b46d43f13f8fb5fdd8cd624de8718b3bf",
                        "prev": "0x0000000000000000000000000000000000000000000000000000000000000000"
                    }
                ],
                "storageVariables": [
                    {
                        "name": "_owners",
                        "type": "mapping(uint256 => address)",
                        "value": {
                            "pairs": [
                                {
                                    "key": "1",
                                    "value": {
                                        "current": "0xd0fe971732e547059ea6009c79a2d6155bdb41a4",
                                        "prev": "0xcda72070e455bb31c7690a170224ce43623d0b6f",
                                        "typeTag": 1
                                    }
                                }
                            ],
                            "typeTag": 4
                        }
                    },
                    {
                        "name": "_balances",
                        "type": "mapping(address => uint256)",
                        "value": {
                            "pairs": [
                                {
                                    "key": "0xcda72070e455bb31c7690a170224ce43623d0b6f",
                                    "value": {
                                        "current": "0",
                                        "prev": "1",
                                        "typeTag": 1
                                    }
                                },
                                {
                                    "key": "0xd0fe971732e547059ea6009c79a2d6155bdb41a4",
                                    "value": {
                                        "current": "1",
                                        "prev": "0",
                                        "typeTag": 1
                                    }
                                }
                            ],
                            "typeTag": 4
                        }
                    }
                ]
            },
            {
                "address": "0xcda72070e455bb31c7690a170224ce43623d0b6f",
                "erc": "",
                "slots": [
                    {
                        "current": "0x0000000000000000000000000000000000000000000000000000000000000000",
                        "key": "0x679cd1b05e688327dd63a088be8a5cb951b516b74e0a01ffe3c87355114adbcf",
                        "prev": "0x0000000000000000000000000000000000000000000000000000000000015180"
                    },
                    {
                        "current": "0x0000000000000000000000000000000000000000000000000000000000000000",
                        "key": "0x679cd1b05e688327dd63a088be8a5cb951b516b74e0a01ffe3c87355114adbd0",
                        "prev": "0x0000000000000000000000000000000000000000000000000000000000000384"
                    },
                    {
                        "current": "0x0000000000000000000000000000000000000000000000000000000000000000",
                        "key": "0x679cd1b05e688327dd63a088be8a5cb951b516b74e0a01ffe3c87355114adbd1",
                        "prev": "0x00000000000000000000000000000000000000000000000000000000636c7337"
                    },
                    {
                        "current": "0x0000000000000000000000000000000000000000000000000000000000000000",
                        "key": "0x679cd1b05e688327dd63a088be8a5cb951b516b74e0a01ffe3c87355114adbd3",
                        "prev": "0x0000000000000000000000000000000000000000000000000853a0d2313c0000"
                    },
                    {
                        "current": "0x0000000000000000000000000000000000000000000000000000000000000000",
                        "key": "0x679cd1b05e688327dd63a088be8a5cb951b516b74e0a01ffe3c87355114adbcd",
                        "prev": "0x0000000000000000000000000000000000000000000000000000000000000001"
                    },
                    {
                        "current": "0x0000000000000000000000000000000000000000000000000000000000000000",
                        "key": "0x679cd1b05e688327dd63a088be8a5cb951b516b74e0a01ffe3c87355114adbce",
                        "prev": "0x000000000000000000000000eb451138caeea7dc67badca037d91418f99e831e"
                    },
                    {
                        "current": "0x0000000000000000000000000000000000000000000000000000000000000000",
                        "key": "0x40597572eddac7a20518854b084b564e6a6c365b35e24ffc294b2d16b6b139c3",
                        "prev": "0x0000000000000000000000000000000000000000000000000000000000024b5a"
                    },
                    {
                        "current": "0x0000000000000000000000000000000000000000000000000000000000000000",
                        "key": "0x679cd1b05e688327dd63a088be8a5cb951b516b74e0a01ffe3c87355114adbd2",
                        "prev": "0x000000000000000000000000d0fe971732e547059ea6009c79a2d6155bdb41a4"
                    },
                    {
                        "current": "0x0000000000000000000000000000000000000000000000000000000000000000",
                        "key": "0x679cd1b05e688327dd63a088be8a5cb951b516b74e0a01ffe3c87355114adbcc",
                        "prev": "0x000000000000000000000000b136c33c8fba0f2c32bfb384f3b65bb095d27789"
                    }
                ],
                "storageVariables": [
                    {
                        "name": "auctionIdToAuction",
                        "type": "mapping(uint256 => struct NFTMarketReserveAuction.ReserveAuctionStorage)",
                        "value": {
                            "pairs": [
                                {
                                    "key": "150362",
                                    "value": {
                                        "fields": [
                                            {
                                                "name": "nftContract",
                                                "type": "address",
                                                "value": {
                                                    "current": "0x0000000000000000000000000000000000000000",
                                                    "prev": "0xb136c33c8fba0f2c32bfb384f3b65bb095d27789",
                                                    "typeTag": 1
                                                }
                                            },
                                            {
                                                "name": "tokenId",
                                                "type": "uint256",
                                                "value": {
                                                    "current": "0",
                                                    "prev": "1",
                                                    "typeTag": 1
                                                }
                                            },
                                            {
                                                "name": "seller",
                                                "type": "address payable",
                                                "value": {
                                                    "current": "0x0000000000000000000000000000000000000000",
                                                    "prev": "0xeb451138caeea7dc67badca037d91418f99e831e",
                                                    "typeTag": 1
                                                }
                                            },
                                            {
                                                "name": "bidReferrerAddressSlot0",
                                                "type": "uint96",
                                                "value": {
                                                    "current": "0",
                                                    "prev": "0",
                                                    "typeTag": 1
                                                }
                                            },
                                            {
                                                "name": "__gap_was_duration",
                                                "type": "uint256",
                                                "value": {
                                                    "current": "0",
                                                    "prev": "86400",
                                                    "typeTag": 1
                                                }
                                            },
                                            {
                                                "name": "__gap_was_extensionDuration",
                                                "type": "uint256",
                                                "value": {
                                                    "current": "0",
                                                    "prev": "900",
                                                    "typeTag": 1
                                                }
                                            },
                                            {
                                                "name": "endTime",
                                                "type": "uint256",
                                                "value": {
                                                    "current": "0",
                                                    "prev": "1668051767",
                                                    "typeTag": 1
                                                }
                                            },
                                            {
                                                "name": "bidder",
                                                "type": "address payable",
                                                "value": {
                                                    "current": "0x0000000000000000000000000000000000000000",
                                                    "prev": "0xd0fe971732e547059ea6009c79a2d6155bdb41a4",
                                                    "typeTag": 1
                                                }
                                            },
                                            {
                                                "name": "bidReferrerAddressSlot1",
                                                "type": "uint64",
                                                "value": {
                                                    "current": "0",
                                                    "prev": "0",
                                                    "typeTag": 1
                                                }
                                            },
                                            {
                                                "name": "amount",
                                                "type": "uint256",
                                                "value": {
                                                    "current": "0",
                                                    "prev": "600000000000000000",
                                                    "typeTag": 1
                                                }
                                            }
                                        ],
                                        "typeTag": 3
                                    }
                                }
                            ],
                            "typeTag": 4
                        }
                    },
                    {
                        "name": "nftContractToTokenIdToAuctionId",
                        "type": "mapping(address => mapping(uint256 => uint256))",
                        "value": {
                            "pairs": [
                                {
                                    "key": "0xb136c33c8fba0f2c32bfb384f3b65bb095d27789",
                                    "value": {
                                        "pairs": [
                                            {
                                                "key": "1",
                                                "value": {
                                                    "current": "0",
                                                    "prev": "150362",
                                                    "typeTag": 1
                                                }
                                            }
                                        ],
                                        "typeTag": 4
                                    }
                                }
                            ],
                            "typeTag": 4
                        }
                    }
                ]
            }
        ]
    }
}