{
    "balance_change": {
        "balanceChanges": []
    },
    "profile": {
        "basic_info": {
            "baseFee": "",
            "blockNumber": 8446468,
            "callData": "0x8bf9d979000000000000000000000000000000000000000000000000000000000000004000000000000000000000000000000000000000000000000000000000000000000000000000000000000000000000000000000000000000000000000000000041c03d1317ef79364768e7788e8ef7569a7f6e7b6fc6619a3ae4aff9d4b254bdea6851a5b3dabd7579c16da54fe5f2c61c5f30f80ddc4ec2a8614432b5a5896cef0000000000000000000000000000000000000000000000000000000000000000",
            "debugEnable": true,
            "errorInfo": "",
            "eventCount": 1,
            "feeRecipient": "0xea674fdde714fd979de3edf0f56aa9716b898ec8",
            "formatValue": "0",
            "gasLimit": 46942,
            "gasPrice": "1.999999881",
            "gasUsed": 46942,
            "intTxnCount": 1,
            "internalRevert": false,
            "internalRevertMessage": "",
            "isContractCreation": false,
            "isFlashloan": false,
            "maxFee": "",
            "nonce": 484,
            "overwritedBlockNumber": -1,
            "priorityFee": "",
            "receiver": "0xfd0174784ebce943bdb8832ecdea9fea30e7c7a9",
            "revertMessage": "",
            "sender": "0x2c65f5acfb619f9938a811a6b8bd62ef92ad00eb",
            "simulationEnable": true,
            "sourceTxnHash": "0xe41a51d16a59dce06665a26994a07c78c85680c990004bea169e89b4c153ddb9",
            "status": true,
            "timestamp": "2019-08-29T17:27:01Z",
            "transactionFee": "0.000093883994413902",
            "txnHash": "0xe41a51d16a59dce06665a26994a07c78c85680c990004bea169e89b4c153ddb9",
            "txnIndex": 23,
            "type": 0,
            "value": "0"
        },
        "fund_flow": [],
        "token_infos": [
            {
                "address": "0xeeeeeeeeeeeeeeeeeeeeeeeeeeeeeeeeeeeeeeee",
                "decimals": 18
            },
            {
                "address": "0xc02aaa39b223fe8d0a0e5c4f27ead9083c756cc2",
                "decimals": 18
            }
        ]
    },
    "address_label": {
        "labels": [
            {
                "address": "0x0000000000000000000000000000000000000003",
                "label": "Precompiled"
            },
            {
                "address": "0x0000000000000000000000000000000000000004",
                "label": "Precompiled"
            },
            {
                "address": "0xeeeeeeeeeeeeeeeeeeeeeeeeeeeeeeeeeeeeeeee",
                "label": "Ether"
            },
            {
                "address": "0xfd0174784ebce943bdb8832ecdea9fea30e7c7a9",
                "label": "MCH: Daily Action 2"
            },
            {
                "address": "0x0000000000000000000000000000000000000000",
                "label": "Null Address"
            },
            {
                "address": "0x0000000000000000000000000000000000000001",
                "label": "Precompiled"
            },
            {
                "address": "0x0000000000000000000000000000000000000002",
                "label": "Precompiled"
            }
        ]
    },
    "trace": {
        "accountLabels": null,
        "dataMap": {
            "-1": {
                "invocation": {
                    "address": "0x2c65f5acfb619f9938a811a6b8bd62ef92ad00eb",
                    "callData": "",
                    "decodedMethod": null,
                    "errorInfo": "",
                    "fromAddress": "",
                    "gasUsed": 0,
                    "id": -1,
                    "methodDecoded": false,
                    "operation": "",
                    "output": "",
                    "revert": false,
                    "revertMessage": "",
                    "selector": "",
                    "status": false,
                    "value": ""
                },
                "nodeType": 0
            },
            "0": {
                "invocation": {
                    "address": "0xfd0174784ebce943bdb8832ecdea9fea30e7c7a9",
                    "callData": "0x000000000000000000000000000000000000000000000000000000000000004000000000000000000000000000000000000000000000000000000000000000000000000000000000000000000000000000000000000000000000000000000041c03d1317ef79364768e7788e8ef7569a7f6e7b6fc6619a3ae4aff9d4b254bdea6851a5b3dabd7579c16da54fe5f2c61c5f30f80ddc4ec2a8614432b5a5896cef0000000000000000000000000000000000000000000000000000000000000000",
                    "decodedMethod": {
                        "callParams": [
                            {
                                "name": "_signature",
                                "type": "bytes",
                                "value": "0xc03d1317ef79364768e7788e8ef7569a7f6e7b6fc6619a3ae4aff9d4b254bdea6851a5b3dabd7579c16da54fe5f2c61c5f30f80ddc4ec2a8614432b5a5896cef00"
                            },
                            {
                                "name": "_referrer",
                                "type": "address",
                                "value": "0x0000000000000000000000000000000000000000"
                            }
                        ],
                        "constructorArguments": "",
                        "name": "requestDailyActionReward",
                        "returnParams": [],
                        "signature": "requestDailyActionReward(bytes,address)"
                    },
                    "errorInfo": "",
                    "fromAddress": "0x2c65f5acfb619f9938a811a6b8bd62ef92ad00eb",
                    "gasUsed": 46942,
                    "id": 0,
                    "methodDecoded": true,
                    "operation": "CALL",
                    "output": "",
                    "revert": false,
                    "revertMessage": "",
                    "selector": "0x8bf9d979",
                    "status": true,
                    "value": "0"
                },
                "nodeType": 0
            },
            "1": {
                "invocation": {
                    "address": "0x0000000000000000000000000000000000000001",
                    "callData": "0xebbf827061987fd6beb8cd57b4f3248fd4ee902eadf4b617c0359161000000000000000000000000000000000000000000000000000000000000001bc03d1317ef79364768e7788e8ef7569a7f6e7b6fc6619a3ae4aff9d4b254bdea6851a5b3dabd7579c16da54fe5f2c61c5f30f80ddc4ec2a8614432b5a5896cef",
                    "decodedMethod": {
                        "callParams": [
                            {
                                "name": "hash",
                                "type": "bytes32",
                                "value": "0x629624a8ebbf827061987fd6beb8cd57b4f3248fd4ee902eadf4b617c0359161"
                            },
                            {
                                "name": "v",
                                "type": "uint256",
                                "value": "27"
                            },
                            {
                                "name": "r",
                                "type": "bytes32",
                                "value": "0xc03d1317ef79364768e7788e8ef7569a7f6e7b6fc6619a3ae4aff9d4b254bdea"
                            },
                            {
                                "name": "s",
                                "type": "bytes32",
                                "value": "0x6851a5b3dabd7579c16da54fe5f2c61c5f30f80ddc4ec2a8614432b5a5896cef"
                            }
                        ],
                        "constructorArguments": "",
                        "name": "ecrecover",
                        "returnParams": [
                            {
                                "name": "",
                                "type": "address",
                                "value": "0x984e7b0f2cb06b847dd465eec65a3a41c1e27c06"
                            }
                        ],
                        "signature": "ecrecover(bytes32,uint256,bytes32,bytes32)"
                    },
                    "errorInfo": "",
                    "fromAddress": "0xfd0174784ebce943bdb8832ecdea9fea30e7c7a9",
                    "gasUsed": 3000,
                    "id": 1,
                    "methodDecoded": true,
                    "operation": "STATICCALL",
                    "output": "0x000000000000000000000000984e7b0f2cb06b847dd465eec65a3a41c1e27c06",
                    "revert": false,
                    "revertMessage": "",
                    "selector": "0x629624a8",
                    "status": true,
                    "value": "0"
                },
                "nodeType": 0
            },
            "2": {
                "event": {
                    "contract": "0xfd0174784ebce943bdb8832ecdea9fea30e7c7a9",
                    "decodedLog": {
                        "name": "Action",
                        "params": [
                            {
                                "name": "user",
                                "type": "address",
                                "value": "0x2c65f5acfb619f9938a811a6b8bd62ef92ad00eb"
                            },
                            {
                                "name": "referrer",
                                "type": "address",
                                "value": "0x0000000000000000000000000000000000000000"
                            },
                            {
                                "name": "at",
                                "type": "uint256",
                                "value": "1,567,099,621"
                            }
                        ],
                        "signature": "Action(address,address,uint256)"
                    },
                    "id": 2,
                    "logData": "0x000000000000000000000000000000000000000000000000000000005d680ae5",
                    "logDecoded": true,
                    "operation": "EVENT",
                    "revert": false,
                    "status": true,
                    "topics": [
                        "0x03bee8945a564e58a4243604a426d1168e3654790c5ad819fd04206500e60b36",
                        "0x0000000000000000000000002c65f5acfb619f9938a811a6b8bd62ef92ad00eb",
                        "0x0000000000000000000000000000000000000000000000000000000000000000"
                    ]
                },
                "nodeType": 1
            }
        },
        "gasFlame": [
            {
                "children": [
                    {
                        "children": [
                            {
                                "children": [],
                                "depth": 0,
                                "name": "Initial Gas",
                                "value": 26264
                            },
                            {
                                "children": [
                                    {
                                        "children": [],
                                        "depth": 1,
                                        "name": "ecrecover",
                                        "value": 3000
                                    }
                                ],
                                "depth": 0,
                                "name": "Executed Gas",
                                "value": 20678
                            }
                        ],
                        "depth": -1,
                        "name": "Actual Gas Used",
                        "value": 46942
                    },
                    {
                        "children": [],
                        "depth": -1,
                        "name": "Refunded Gas",
                        "value": 0
                    }
                ],
                "depth": -2,
                "name": "Total Gas",
                "value": 46942
            }
        ],
        "isConfirmed": true,
        "mainTrace": [
            {
                "children": [
                    {
                        "children": [
                            {
                                "children": [],
                                "depth": 1,
                                "id": 1,
                                "order": 1
                            },
                            {
                                "children": [],
                                "depth": 1,
                                "id": 2,
                                "order": 2
                            }
                        ],
                        "depth": 0,
                        "id": 0,
                        "order": 0
                    }
                ],
                "depth": -1,
                "id": -1,
                "order": -1
            }
        ],
        "mainTraceNodeCount": 3,
        "parentIdMap": {
            "0": -1,
            "1": 0,
            "2": 0
        },
        "tidyTrace": [
            {
                "children": [
                    {
                        "children": [
                            {
                                "children": [],
                                "depth": 1,
                                "id": 2,
                                "order": 2
                            }
                        ],
                        "depth": 0,
                        "id": 0,
                        "order": 0
                    }
                ],
                "depth": -1,
                "id": -1,
                "order": -1
            }
        ],
        "tidyTraceNodeCount": 2
    },
    "state_change": {
        "stateChanges": [
            {
                "address": "0xfd0174784ebce943bdb8832ecdea9fea30e7c7a9",
                "erc": "",
                "slots": [
                    {
                        "current": "0x0000000000000000000000000000000000000000000000000000000000000076",
                        "key": "0x5580b236965839d8a77516ee6c06a59ba600b71a9ef3c9a68b3c2a0893232325",
                        "prev": "0x0000000000000000000000000000000000000000000000000000000000000075"
                    },
                    {
                        "current": "0x000000000000000000000000000000000000000000000000000000005d680ae5",
                        "key": "0x355ea6c129f3622d0f94d268ddc033042eb3ba658825ddd7c3afb95c901fc788",
                        "prev": "0x000000000000000000000000000000000000000000000000000000005d669f6b"
                    }
                ],
                "storageVariables": [
                    {
                        "name": "counter",
                        "type": "mapping(address => mapping(address => uint256))",
                        "value": {
                            "pairs": [
                                {
                                    "key": "0x984e7b0f2cb06b847dd465eec65a3a41c1e27c06",
                                    "value": {
                                        "pairs": [
                                            {
                                                "key": "0x2c65f5acfb619f9938a811a6b8bd62ef92ad00eb",
                                                "value": {
                                                    "current": "118",
                                                    "prev": "117",
                                                    "typeTag": 1
                                                }
                                            }
                                        ],
                                        "typeTag": 4
                                    }
                                }
                            ],
                            "typeTag": 4
                        }
                    },
                    {
                        "name": "latestActionTime",
                        "type": "mapping(address => uint256)",
                        "value": {
                            "pairs": [
                                {
                                    "key": "0x2c65f5acfb619f9938a811a6b8bd62ef92ad00eb",
                                    "value": {
                                        "current": "1567099621",
                                        "prev": "1567006571",
                                        "typeTag": 1
                                    }
                                }
                            ],
                            "typeTag": 4
                        }
                    }
                ]
            }
        ]
    }
}