{
    "balance_change": {
        "balanceChanges": [
            {
                "account": "0x4fb312915b779b1339388e14b6d079741ca83128",
                "assets": [
                    {
                        "address": "0xa1d0e215a23d7030842fc67ce582a6afa3ccab83",
                        "amount": "49",
                        "iconUrl": "",
                        "isERC1155": false,
                        "isERC721": false,
                        "sign": false,
                        "value": "10595.06388"
                    }
                ]
            },
            {
                "account": "0xa03400e098f4421b34a3a44a1b4e571419517687",
                "assets": [
                    {
                        "address": "0xa1d0e215a23d7030842fc67ce582a6afa3ccab83",
                        "amount": "49",
                        "iconUrl": "",
                        "isERC1155": false,
                        "isERC721": false,
                        "sign": true,
                        "value": "10595.06388"
                    }
                ]
            }
        ]
    },
    "profile": {
        "basic_info": {
            "baseFee": "1.088596757",
            "blockNumber": 20640022,
            "callData": "0x6a761202000000000000000000000000a1d0e215a23d7030842fc67ce582a6afa3ccab830000000000000000000000000000000000000000000000000000000000000000000000000000000000000000000000000000000000000000000000000000014000000000000000000000000000000000000000000000000000000000000000000000000000000000000000000000000000000000000000000000000000000000000000000000000000000000000000000000000000000000000000000000000000000000000000000000000000000000000000000000000000000000000000000000000000000000000000000000000000000000000000000000000000000000000000000000000000000000000000000000000000000000000000000000000000000000000000000000000000000000000000000000000000000000000001c00000000000000000000000000000000000000000000000000000000000000044a9059cbb000000000000000000000000a03400e098f4421b34a3a44a1b4e571419517687000000000000000000000000000000000000000000000002a802f8630a2400000000000000000000000000000000000000000000000000000000000000000000000000000000000000000000000000000000000000000000000000c32903f9e651ed07215c61bfc757a9ba3db838683c977bf3a745ee3baf0fa8f18a58cbb6f75157ffb47a0d0001231f217a73b50e7db2a9ffd6c308aab1c8bf0a831c000000000000000000000000b865d3112b3cf67f09027d209c0b866bc6312a03000000000000000000000000000000000000000000000000000000000000000001e2750e39cfd63352cf8c6722706b970ab61860d4a6e57646cf62732ce95928523005622f08d18893e8b657bed5a6715b70d8aac0f0d4f0b102515f699fa896ae1c0000000000000000000000000000000000000000000000000000000000",
            "debugEnable": true,
            "errorInfo": "",
            "eventCount": 2,
            "feeRecipient": "0x95222290dd7278aa3ddd389cc1e1d165cc4bafe5",
            "formatValue": "0",
            "gasLimit": 76790,
            "gasPrice": "1.508596758",
            "gasUsed": 75906,
            "intTxnCount": 4,
            "internalRevert": false,
            "internalRevertMessage": "",
            "isContractCreation": false,
            "isFlashloan": false,
            "maxFee": "1.555548947",
            "nonce": 3811,
            "overwritedBlockNumber": -1,
            "priorityFee": "0.420000001",
            "receiver": "0x4fb312915b779b1339388e14b6d079741ca83128",
            "revertMessage": "",
            "sender": "0xb865d3112b3cf67f09027d209c0b866bc6312a03",
            "simulationEnable": true,
            "sourceTxnHash": "0xe49fc1c3b25c52bcb5b45a28eb7606d0c48ed2d244143ac3d099c64cecd1e575",
            "status": true,
            "timestamp": "2024-08-30T07:52:47Z",
            "transactionFee": "0.000114511545512748",
            "txnHash": "0xe49fc1c3b25c52bcb5b45a28eb7606d0c48ed2d244143ac3d099c64cecd1e575",
            "txnIndex": 99,
            "type": 2,
            "value": "0"
        },
        "fund_flow": [
            {
                "amount": "49",
                "from": "0x4fb312915b779b1339388e14b6d079741ca83128",
                "id": 1,
                "isERC1155": false,
                "isERC721": false,
                "isReverted": false,
                "order": 1,
                "to": "0xa03400e098f4421b34a3a44a1b4e571419517687",
                "token": "0xa1d0e215a23d7030842fc67ce582a6afa3ccab83"
            }
        ],
        "token_infos": [
            {
                "address": "0xa1d0e215a23d7030842fc67ce582a6afa3ccab83",
                "decimals": 18
            },
            {
                "address": "0xc02aaa39b223fe8d0a0e5c4f27ead9083c756cc2",
                "decimals": 18
            },
            {
                "address": "0xeeeeeeeeeeeeeeeeeeeeeeeeeeeeeeeeeeeeeeee",
                "decimals": 18
            }
        ]
    },
    "address_label": {
        "labels": [
            {
                "address": "0x0000000000000000000000000000000000000000",
                "label": "Null Address"
            },
            {
                "address": "0x0000000000000000000000000000000000000003",
                "label": "Precompiled"
            },
            {
                "address": "0x0000000000000000000000000000000000000004",
                "label": "Precompiled"
            },
            {
                "address": "0xeeeeeeeeeeeeeeeeeeeeeeeeeeeeeeeeeeeeeeee",
                "label": "Ether"
            },
            {
                "address": "0xa1d0e215a23d7030842fc67ce582a6afa3ccab83",
                "label": "YFII.finance: YFII Token"
            },
            {
                "address": "0x4fb312915b779b1339388e14b6d079741ca83128",
                "label": "HTX 60"
            },
            {
                "address": "0xd9db270c1b5e3bd161e8c8503c55ceabee709552",
                "label": "Safe: Singleton 1.3.0"
            },
            {
                "address": "0xa03400e098f4421b34a3a44a1b4e571419517687",
                "label": "HTX 52"
            },
            {
                "address": "0x0000000000000000000000000000000000000001",
                "label": "Precompiled"
            },
            {
                "address": "0x0000000000000000000000000000000000000002",
                "label": "Precompiled"
            }
        ]
    },
    "trace": {
        "accountLabels": null,
        "dataMap": {
            "-1": {
                "invocation": {
                    "address": "0xb865d3112b3cf67f09027d209c0b866bc6312a03",
                    "callData": "",
                    "decodedMethod": null,
                    "errorInfo": "",
                    "fromAddress": "",
                    "gasUsed": 0,
                    "id": -1,
                    "methodDecoded": false,
                    "operation": "",
                    "output": "",
                    "revert": false,
                    "revertMessage": "",
                    "selector": "",
                    "status": false,
                    "value": ""
                },
                "nodeType": 0
            },
            "0": {
                "invocation": {
                    "address": "0x4fb312915b779b1339388e14b6d079741ca83128",
                    "callData": "0x000000000000000000000000a1d0e215a23d7030842fc67ce582a6afa3ccab830000000000000000000000000000000000000000000000000000000000000000000000000000000000000000000000000000000000000000000000000000014000000000000000000000000000000000000000000000000000000000000000000000000000000000000000000000000000000000000000000000000000000000000000000000000000000000000000000000000000000000000000000000000000000000000000000000000000000000000000000000000000000000000000000000000000000000000000000000000000000000000000000000000000000000000000000000000000000000000000000000000000000000000000000000000000000000000000000000000000000000000000000000000000000000000001c00000000000000000000000000000000000000000000000000000000000000044a9059cbb000000000000000000000000a03400e098f4421b34a3a44a1b4e571419517687000000000000000000000000000000000000000000000002a802f8630a2400000000000000000000000000000000000000000000000000000000000000000000000000000000000000000000000000000000000000000000000000c32903f9e651ed07215c61bfc757a9ba3db838683c977bf3a745ee3baf0fa8f18a58cbb6f75157ffb47a0d0001231f217a73b50e7db2a9ffd6c308aab1c8bf0a831c000000000000000000000000b865d3112b3cf67f09027d209c0b866bc6312a03000000000000000000000000000000000000000000000000000000000000000001e2750e39cfd63352cf8c6722706b970ab61860d4a6e57646cf62732ce95928523005622f08d18893e8b657bed5a6715b70d8aac0f0d4f0b102515f699fa896ae1c0000000000000000000000000000000000000000000000000000000000",
                    "decodedMethod": {
                        "callParams": [
                            {
                                "name": "to",
                                "type": "address",
                                "value": "0xa1d0e215a23d7030842fc67ce582a6afa3ccab83"
                            },
                            {
                                "name": "value",
                                "type": "uint256",
                                "value": "0"
                            },
                            {
                                "name": "data",
                                "type": "bytes",
                                "value": "0xa9059cbb000000000000000000000000a03400e098f4421b34a3a44a1b4e571419517687000000000000000000000000000000000000000000000002a802f8630a240000"
                            },
                            {
                                "name": "operation",
                                "type": "uint8",
                                "value": "0"
                            },
                            {
                                "name": "safeTxGas",
                                "type": "uint256",
                                "value": "0"
                            },
                            {
                                "name": "baseGas",
                                "type": "uint256",
                                "value": "0"
                            },
                            {
                                "name": "gasPrice",
                                "type": "uint256",
                                "value": "0"
                            },
                            {
                                "name": "gasToken",
                                "type": "address",
                                "value": "0x0000000000000000000000000000000000000000"
                            },
                            {
                                "name": "refundReceiver",
                                "type": "address",
                                "value": "0x0000000000000000000000000000000000000000"
                            },
                            {
                                "name": "signatures",
                                "type": "bytes",
                                "value": "0x2903f9e651ed07215c61bfc757a9ba3db838683c977bf3a745ee3baf0fa8f18a58cbb6f75157ffb47a0d0001231f217a73b50e7db2a9ffd6c308aab1c8bf0a831c000000000000000000000000b865d3112b3cf67f09027d209c0b866bc6312a03000000000000000000000000000000000000000000000000000000000000000001e2750e39cfd63352cf8c6722706b970ab61860d4a6e57646cf62732ce95928523005622f08d18893e8b657bed5a6715b70d8aac0f0d4f0b102515f699fa896ae1c"
                            }
                        ],
                        "constructorArguments": "",
                        "name": "execTransaction",
                        "returnParams": [
                            {
                                "name": "success",
                                "type": "bool",
                                "value": true
                            }
                        ],
                        "signature": "execTransaction(address,uint256,bytes,uint8,uint256,uint256,uint256,address,address,bytes)"
                    },
                    "errorInfo": "",
                    "fromAddress": "0xb865d3112b3cf67f09027d209c0b866bc6312a03",
                    "gasUsed": 75906,
                    "id": 0,
                    "methodDecoded": true,
                    "operation": "CALL",
                    "output": "0x0000000000000000000000000000000000000000000000000000000000000001",
                    "revert": false,
                    "revertMessage": "",
                    "selector": "0x6a761202",
                    "status": true,
                    "value": "0"
                },
                "nodeType": 0
            },
            "1": {
                "invocation": {
                    "address": "0xd9db270c1b5e3bd161e8c8503c55ceabee709552",
                    "callData": "0x000000000000000000000000a1d0e215a23d7030842fc67ce582a6afa3ccab830000000000000000000000000000000000000000000000000000000000000000000000000000000000000000000000000000000000000000000000000000014000000000000000000000000000000000000000000000000000000000000000000000000000000000000000000000000000000000000000000000000000000000000000000000000000000000000000000000000000000000000000000000000000000000000000000000000000000000000000000000000000000000000000000000000000000000000000000000000000000000000000000000000000000000000000000000000000000000000000000000000000000000000000000000000000000000000000000000000000000000000000000000000000000000000001c00000000000000000000000000000000000000000000000000000000000000044a9059cbb000000000000000000000000a03400e098f4421b34a3a44a1b4e571419517687000000000000000000000000000000000000000000000002a802f8630a2400000000000000000000000000000000000000000000000000000000000000000000000000000000000000000000000000000000000000000000000000c32903f9e651ed07215c61bfc757a9ba3db838683c977bf3a745ee3baf0fa8f18a58cbb6f75157ffb47a0d0001231f217a73b50e7db2a9ffd6c308aab1c8bf0a831c000000000000000000000000b865d3112b3cf67f09027d209c0b866bc6312a03000000000000000000000000000000000000000000000000000000000000000001e2750e39cfd63352cf8c6722706b970ab61860d4a6e57646cf62732ce95928523005622f08d18893e8b657bed5a6715b70d8aac0f0d4f0b102515f699fa896ae1c0000000000000000000000000000000000000000000000000000000000",
                    "decodedMethod": {
                        "callParams": [
                            {
                                "name": "to",
                                "type": "address",
                                "value": "0xa1d0e215a23d7030842fc67ce582a6afa3ccab83"
                            },
                            {
                                "name": "value",
                                "type": "uint256",
                                "value": "0"
                            },
                            {
                                "name": "data",
                                "type": "bytes",
                                "value": "0xa9059cbb000000000000000000000000a03400e098f4421b34a3a44a1b4e571419517687000000000000000000000000000000000000000000000002a802f8630a240000"
                            },
                            {
                                "name": "operation",
                                "type": "uint8",
                                "value": "0"
                            },
                            {
                                "name": "safeTxGas",
                                "type": "uint256",
                                "value": "0"
                            },
                            {
                                "name": "baseGas",
                                "type": "uint256",
                                "value": "0"
                            },
                            {
                                "name": "gasPrice",
                                "type": "uint256",
                                "value": "0"
                            },
                            {
                                "name": "gasToken",
                                "type": "address",
                                "value": "0x0000000000000000000000000000000000000000"
                            },
                            {
                                "name": "refundReceiver",
                                "type": "address",
                                "value": "0x0000000000000000000000000000000000000000"
                            },
                            {
                                "name": "signatures",
                                "type": "bytes",
                                "value": "0x2903f9e651ed07215c61bfc757a9ba3db838683c977bf3a745ee3baf0fa8f18a58cbb6f75157ffb47a0d0001231f217a73b50e7db2a9ffd6c308aab1c8bf0a831c000000000000000000000000b865d3112b3cf67f09027d209c0b866bc6312a03000000000000000000000000000000000000000000000000000000000000000001e2750e39cfd63352cf8c6722706b970ab61860d4a6e57646cf62732ce95928523005622f08d18893e8b657bed5a6715b70d8aac0f0d4f0b102515f699fa896ae1c"
                            }
                        ],
                        "constructorArguments": "",
                        "name": "execTransaction",
                        "returnParams": [
                            {
                                "name": "success",
                                "type": "bool",
                                "value": true
                            }
                        ],
                        "signature": "execTransaction(address,uint256,bytes,uint8,uint256,uint256,uint256,address,address,bytes)"
                    },
                    "errorInfo": "",
                    "fromAddress": "0x4fb312915b779b1339388e14b6d079741ca83128",
                    "gasUsed": 44596,
                    "id": 1,
                    "methodDecoded": true,
                    "operation": "DELEGATECALL",
                    "output": "0x0000000000000000000000000000000000000000000000000000000000000001",
                    "revert": false,
                    "revertMessage": "",
                    "selector": "0x6a761202",
                    "status": true,
                    "value": "0"
                },
                "nodeType": 0
            },
            "2": {
                "invocation": {
                    "address": "0x0000000000000000000000000000000000000001",
                    "callData": "0x5456cac30969f43fceeaa727fc92052a1031536288a4304ca1a764a7000000000000000000000000000000000000000000000000000000000000001c2903f9e651ed07215c61bfc757a9ba3db838683c977bf3a745ee3baf0fa8f18a58cbb6f75157ffb47a0d0001231f217a73b50e7db2a9ffd6c308aab1c8bf0a83",
                    "decodedMethod": {
                        "callParams": [
                            {
                                "name": "hash",
                                "type": "bytes32",
                                "value": "0x76fa52f95456cac30969f43fceeaa727fc92052a1031536288a4304ca1a764a7"
                            },
                            {
                                "name": "v",
                                "type": "uint256",
                                "value": "28"
                            },
                            {
                                "name": "r",
                                "type": "bytes32",
                                "value": "0x2903f9e651ed07215c61bfc757a9ba3db838683c977bf3a745ee3baf0fa8f18a"
                            },
                            {
                                "name": "s",
                                "type": "bytes32",
                                "value": "0x58cbb6f75157ffb47a0d0001231f217a73b50e7db2a9ffd6c308aab1c8bf0a83"
                            }
                        ],
                        "constructorArguments": "",
                        "name": "ecrecover",
                        "returnParams": [
                            {
                                "name": "",
                                "type": "address",
                                "value": "0x1d8133ba1cf2c1d8b7066976acdddc31245a2870"
                            }
                        ],
                        "signature": "ecrecover(bytes32,uint256,bytes32,bytes32)"
                    },
                    "errorInfo": "",
                    "fromAddress": "0x4fb312915b779b1339388e14b6d079741ca83128",
                    "gasUsed": 3000,
                    "id": 2,
                    "methodDecoded": true,
                    "operation": "STATICCALL",
                    "output": "0x0000000000000000000000001d8133ba1cf2c1d8b7066976acdddc31245a2870",
                    "revert": false,
                    "revertMessage": "",
                    "selector": "0x76fa52f9",
                    "status": true,
                    "value": "0"
                },
                "nodeType": 0
            },
            "3": {
                "invocation": {
                    "address": "0x0000000000000000000000000000000000000001",
                    "callData": "0x5456cac30969f43fceeaa727fc92052a1031536288a4304ca1a764a7000000000000000000000000000000000000000000000000000000000000001ce2750e39cfd63352cf8c6722706b970ab61860d4a6e57646cf62732ce95928523005622f08d18893e8b657bed5a6715b70d8aac0f0d4f0b102515f699fa896ae",
                    "decodedMethod": {
                        "callParams": [
                            {
                                "name": "hash",
                                "type": "bytes32",
                                "value": "0x76fa52f95456cac30969f43fceeaa727fc92052a1031536288a4304ca1a764a7"
                            },
                            {
                                "name": "v",
                                "type": "uint256",
                                "value": "28"
                            },
                            {
                                "name": "r",
                                "type": "bytes32",
                                "value": "0xe2750e39cfd63352cf8c6722706b970ab61860d4a6e57646cf62732ce9592852"
                            },
                            {
                                "name": "s",
                                "type": "bytes32",
                                "value": "0x3005622f08d18893e8b657bed5a6715b70d8aac0f0d4f0b102515f699fa896ae"
                            }
                        ],
                        "constructorArguments": "",
                        "name": "ecrecover",
                        "returnParams": [
                            {
                                "name": "",
                                "type": "address",
                                "value": "0xd0388ddedf55c5a0f962ca9405fb088d5303614a"
                            }
                        ],
                        "signature": "ecrecover(bytes32,uint256,bytes32,bytes32)"
                    },
                    "errorInfo": "",
                    "fromAddress": "0x4fb312915b779b1339388e14b6d079741ca83128",
                    "gasUsed": 3000,
                    "id": 3,
                    "methodDecoded": true,
                    "operation": "STATICCALL",
                    "output": "0x000000000000000000000000d0388ddedf55c5a0f962ca9405fb088d5303614a",
                    "revert": false,
                    "revertMessage": "",
                    "selector": "0x76fa52f9",
                    "status": true,
                    "value": "0"
                },
                "nodeType": 0
            },
            "4": {
                "invocation": {
                    "address": "0xa1d0e215a23d7030842fc67ce582a6afa3ccab83",
                    "callData": "0x000000000000000000000000a03400e098f4421b34a3a44a1b4e571419517687000000000000000000000000000000000000000000000002a802f8630a240000",
                    "decodedMethod": {
                        "callParams": [
                            {
                                "name": "recipient",
                                "type": "address",
                                "value": "0xa03400e098f4421b34a3a44a1b4e571419517687"
                            },
                            {
                                "decimalAvailable": true,
                                "name": "amount",
                                "type": "uint256",
                                "value": "49,000,000,000,000,000,000"
                            }
                        ],
                        "constructorArguments": "",
                        "name": "transfer",
                        "returnParams": [
                            {
                                "name": "",
                                "type": "bool",
                                "value": true
                            }
                        ],
                        "signature": "transfer(address,uint256)"
                    },
                    "errorInfo": "",
                    "fromAddress": "0x4fb312915b779b1339388e14b6d079741ca83128",
                    "gasUsed": 12896,
                    "id": 4,
                    "methodDecoded": true,
                    "operation": "CALL",
                    "output": "0x0000000000000000000000000000000000000000000000000000000000000001",
                    "revert": false,
                    "revertMessage": "",
                    "selector": "0xa9059cbb",
                    "status": true,
                    "value": "0"
                },
                "nodeType": 0
            },
            "5": {
                "event": {
                    "contract": "0xa1d0e215a23d7030842fc67ce582a6afa3ccab83",
                    "decodedLog": {
                        "name": "Transfer",
                        "params": [
                            {
                                "name": "from",
                                "type": "address",
                                "value": "0x4fb312915b779b1339388e14b6d079741ca83128"
                            },
                            {
                                "name": "to",
                                "type": "address",
                                "value": "0xa03400e098f4421b34a3a44a1b4e571419517687"
                            },
                            {
                                "decimalAvailable": true,
                                "name": "value",
                                "type": "uint256",
                                "value": "49,000,000,000,000,000,000"
                            }
                        ],
                        "signature": "Transfer(address,address,uint256)"
                    },
                    "id": 5,
                    "logData": "0x000000000000000000000000000000000000000000000002a802f8630a240000",
                    "logDecoded": true,
                    "operation": "EVENT",
                    "revert": false,
                    "status": true,
                    "topics": [
                        "0xddf252ad1be2c89b69c2b068fc378daa952ba7f163c4a11628f55a4df523b3ef",
                        "0x0000000000000000000000004fb312915b779b1339388e14b6d079741ca83128",
                        "0x000000000000000000000000a03400e098f4421b34a3a44a1b4e571419517687"
                    ]
                },
                "nodeType": 1
            },
            "6": {
                "event": {
                    "contract": "0x4fb312915b779b1339388e14b6d079741ca83128",
                    "decodedLog": {
                        "name": "ExecutionSuccess",
                        "params": [
                            {
                                "name": "txHash",
                                "type": "bytes32",
                                "value": "0x76fa52f95456cac30969f43fceeaa727fc92052a1031536288a4304ca1a764a7"
                            },
                            {
                                "name": "payment",
                                "type": "uint256",
                                "value": "0"
                            }
                        ],
                        "signature": "ExecutionSuccess(bytes32,uint256)"
                    },
                    "id": 6,
                    "logData": "0x76fa52f95456cac30969f43fceeaa727fc92052a1031536288a4304ca1a764a70000000000000000000000000000000000000000000000000000000000000000",
                    "logDecoded": true,
                    "operation": "EVENT",
                    "revert": false,
                    "status": true,
                    "topics": [
                        "0x442e715f626346e8c54381002da614f62bee8d27386535b2521ec8540898556e"
                    ]
                },
                "nodeType": 1
            }
        },
        "gasFlame": [
            {
                "children": [
                    {
                        "children": [
                            {
                                "children": [],
                                "depth": 0,
                                "name": "Initial Gas",
                                "value": 26352
                            },
                            {
                                "children": [
                                    {
                                        "children": [
                                            {
                                                "children": [],
                                                "depth": 2,
                                                "name": "ecrecover",
                                                "value": 3000
                                            },
                                            {
                                                "children": [],
                                                "depth": 2,
                                                "name": "ecrecover",
                                                "value": 3000
                                            },
                                            {
                                                "children": [],
                                                "depth": 2,
                                                "name": "transfer",
                                                "value": 12896
                                            }
                                        ],
                                        "depth": 1,
                                        "name": "execTransaction",
                                        "value": 44596
                                    }
                                ],
                                "depth": 0,
                                "name": "Executed Gas",
                                "value": 49554
                            }
                        ],
                        "depth": -1,
                        "name": "Actual Gas Used",
                        "value": 75906
                    },
                    {
                        "children": [],
                        "depth": -1,
                        "name": "Refunded Gas",
                        "value": 0
                    }
                ],
                "depth": -2,
                "name": "Total Gas",
                "value": 75906
            }
        ],
        "isConfirmed": true,
        "mainTrace": [
            {
                "children": [
                    {
                        "children": [
                            {
                                "children": [
                                    {
                                        "children": [],
                                        "depth": 2,
                                        "id": 2,
                                        "order": 2
                                    },
                                    {
                                        "children": [],
                                        "depth": 2,
                                        "id": 3,
                                        "order": 3
                                    },
                                    {
                                        "children": [
                                            {
                                                "children": [],
                                                "depth": 3,
                                                "id": 5,
                                                "order": 5
                                            }
                                        ],
                                        "depth": 2,
                                        "id": 4,
                                        "order": 4
                                    },
                                    {
                                        "children": [],
                                        "depth": 2,
                                        "id": 6,
                                        "order": 6
                                    }
                                ],
                                "depth": 1,
                                "id": 1,
                                "order": 1
                            }
                        ],
                        "depth": 0,
                        "id": 0,
                        "order": 0
                    }
                ],
                "depth": -1,
                "id": -1,
                "order": -1
            }
        ],
        "mainTraceNodeCount": 7,
        "parentIdMap": {
            "0": -1,
            "1": 0,
            "2": 1,
            "3": 1,
            "4": 1,
            "5": 4,
            "6": 1
        },
        "tidyTrace": [
            {
                "children": [
                    {
                        "children": [
                            {
                                "children": [
                                    {
                                        "children": [
                                            {
                                                "children": [],
                                                "depth": 3,
                                                "id": 5,
                                                "order": 5
                                            }
                                        ],
                                        "depth": 2,
                                        "id": 4,
                                        "order": 4
                                    },
                                    {
                                        "children": [],
                                        "depth": 2,
                                        "id": 6,
                                        "order": 6
                                    }
                                ],
                                "depth": 1,
                                "id": 1,
                                "order": 1
                            }
                        ],
                        "depth": 0,
                        "id": 0,
                        "order": 0
                    }
                ],
                "depth": -1,
                "id": -1,
                "order": -1
            }
        ],
        "tidyTraceNodeCount": 5
    },
    "state_change": {
        "stateChanges": [
            {
                "address": "0x4fb312915b779b1339388e14b6d079741ca83128",
                "erc": "",
                "slots": [
                    {
                        "current": "0x00000000000000000000000000000000000000000000000000000000000027e1",
                        "key": "0x0000000000000000000000000000000000000000000000000000000000000005",
                        "prev": "0x00000000000000000000000000000000000000000000000000000000000027e0"
                    }
                ],
                "storageVariables": [
                    {
                        "name": "nonce",
                        "type": "uint256",
                        "value": {
                            "current": "10209",
                            "prev": "10208",
                            "typeTag": 1
                        }
                    }
                ]
            },
            {
                "address": "0xa1d0e215a23d7030842fc67ce582a6afa3ccab83",
                "erc": "ERC-20",
                "slots": [
                    {
                        "current": "0x000000000000000000000000000000000000000000000003a5b0cd3948e211ae",
                        "key": "0x5316930b04afac8db34f1f9389f7a0b53e7e6a2b598b01394bd78e148be06b24",
                        "prev": "0x000000000000000000000000000000000000000000000000fdadd4d63ebe11ae"
                    },
                    {
                        "current": "0x000000000000000000000000000000000000000000000074d7249c1946cc8000",
                        "key": "0x07a9efbbeb607d02185736cf6756bbb3a38859384ea7384248a20aabd7deadb5",
                        "prev": "0x0000000000000000000000000000000000000000000000777f27947c50f08000"
                    }
                ],
                "storageVariables": [
                    {
                        "name": "_balances",
                        "type": "mapping(address => uint256)",
                        "value": {
                            "pairs": [
                                {
                                    "key": "0x4fb312915b779b1339388e14b6d079741ca83128",
                                    "value": {
                                        "current": "2155325000000000000000",
                                        "prev": "2204325000000000000000",
                                        "typeTag": 1
                                    }
                                },
                                {
                                    "key": "0xa03400e098f4421b34a3a44a1b4e571419517687",
                                    "value": {
                                        "current": "67279500479207444910",
                                        "prev": "18279500479207444910",
                                        "typeTag": 1
                                    }
                                }
                            ],
                            "typeTag": 4
                        }
                    }
                ]
            }
        ]
    }
}