{
    "balance_change": {
        "balanceChanges": [
            {
                "account": "0x9f89388141c632c4c6f36d1060d5f50604ee3abc",
                "assets": [
                    {
                        "address": "0x68e14bb5a45b9681327e16e528084b9d962c1a39",
                        "amount": "5",
                        "iconUrl": "",
                        "isERC1155": false,
                        "isERC721": false,
                        "sign": false,
                        "value": ""
                    }
                ]
            },
            {
                "account": "0x156fc5e9c78be509afe395a31c2fb19d8cd5537d",
                "assets": [
                    {
                        "address": "0x68e14bb5a45b9681327e16e528084b9d962c1a39",
                        "amount": "5",
                        "iconUrl": "",
                        "isERC1155": false,
                        "isERC721": false,
                        "sign": true,
                        "value": ""
                    }
                ]
            }
        ]
    },
    "profile": {
        "basic_info": {
            "baseFee": "",
            "blockNumber": 4624166,
            "callData": "0x9b03a211000000000000000000000000156fc5e9c78be509afe395a31c2fb19d8cd5537d0000000000000000000000000000000000000000000000004563918244f40000",
            "debugEnable": true,
            "errorInfo": "",
            "eventCount": 3,
            "feeRecipient": "0xbcdfc35b86bedf72f0cda046a3c16829a2ef41d1",
            "formatValue": "0",
            "gasLimit": 85000,
            "gasPrice": "5",
            "gasUsed": 73822,
            "intTxnCount": 3,
            "internalRevert": false,
            "internalRevertMessage": "",
            "isContractCreation": false,
            "isFlashloan": false,
            "maxFee": "",
            "nonce": 34131,
            "overwritedBlockNumber": -1,
            "priorityFee": "",
            "receiver": "0x9f89388141c632c4c6f36d1060d5f50604ee3abc",
            "revertMessage": "",
            "sender": "0xec4f63c53223c54cf0eb7a57c2f984ab5e5bfdac",
            "simulationEnable": true,
            "sourceTxnHash": "0xe470818a7916a78f96261a925f1283d977b03188ee5fc8fefbb97e4535f12ae0",
            "status": true,
            "timestamp": "2017-11-26T07:12:32Z",
            "transactionFee": "0.00036911",
            "txnHash": "0xe470818a7916a78f96261a925f1283d977b03188ee5fc8fefbb97e4535f12ae0",
            "txnIndex": 56,
            "type": 0,
            "value": "0"
        },
        "fund_flow": [
            {
                "amount": "5",
                "from": "0x9f89388141c632c4c6f36d1060d5f50604ee3abc",
                "id": 1,
                "isERC1155": false,
                "isERC721": false,
                "isReverted": false,
                "order": 1,
                "to": "0x156fc5e9c78be509afe395a31c2fb19d8cd5537d",
                "token": "0x68e14bb5a45b9681327e16e528084b9d962c1a39"
            }
        ],
        "token_infos": [
            {
                "address": "0xeeeeeeeeeeeeeeeeeeeeeeeeeeeeeeeeeeeeeeee",
                "decimals": 18
            },
            {
                "address": "0x68e14bb5a45b9681327e16e528084b9d962c1a39",
                "decimals": 18
            },
            {
                "address": "0xc02aaa39b223fe8d0a0e5c4f27ead9083c756cc2",
                "decimals": 18
            }
        ]
    },
    "address_label": {
        "labels": [
            {
                "address": "0x68e14bb5a45b9681327e16e528084b9d962c1a39",
                "label": "CAT"
            },
            {
                "address": "0x9f89388141c632c4c6f36d1060d5f50604ee3abc",
                "label": "CATCrowdsale"
            },
            {
                "address": "0x0000000000000000000000000000000000000001",
                "label": "Precompiled"
            },
            {
                "address": "0x0000000000000000000000000000000000000002",
                "label": "Precompiled"
            },
            {
                "address": "0x0000000000000000000000000000000000000003",
                "label": "Precompiled"
            },
            {
                "address": "0x0000000000000000000000000000000000000004",
                "label": "Precompiled"
            },
            {
                "address": "0xeeeeeeeeeeeeeeeeeeeeeeeeeeeeeeeeeeeeeeee",
                "label": "Ether"
            }
        ]
    },
    "trace": {
        "accountLabels": null,
        "dataMap": {
            "-1": {
                "invocation": {
                    "address": "0xec4f63c53223c54cf0eb7a57c2f984ab5e5bfdac",
                    "callData": "",
                    "decodedMethod": null,
                    "errorInfo": "",
                    "fromAddress": "",
                    "gasUsed": 0,
                    "id": -1,
                    "methodDecoded": false,
                    "operation": "",
                    "output": "",
                    "revert": false,
                    "revertMessage": "",
                    "selector": "",
                    "status": false,
                    "value": ""
                },
                "nodeType": 0
            },
            "0": {
                "invocation": {
                    "address": "0x9f89388141c632c4c6f36d1060d5f50604ee3abc",
                    "callData": "0x000000000000000000000000156fc5e9c78be509afe395a31c2fb19d8cd5537d0000000000000000000000000000000000000000000000004563918244f40000",
                    "decodedMethod": {
                        "callParams": [
                            {
                                "name": "destination",
                                "type": "address",
                                "value": "0x156fc5e9c78be509afe395a31c2fb19d8cd5537d"
                            },
                            {
                                "name": "amount",
                                "type": "uint256",
                                "value": "5,000,000,000,000,000,000"
                            }
                        ],
                        "constructorArguments": "",
                        "name": "transferPresaleTokens",
                        "returnParams": [],
                        "signature": "transferPresaleTokens(address,uint256)"
                    },
                    "errorInfo": "",
                    "fromAddress": "0xec4f63c53223c54cf0eb7a57c2f984ab5e5bfdac",
                    "gasUsed": 73822,
                    "id": 0,
                    "methodDecoded": true,
                    "operation": "CALL",
                    "output": "",
                    "revert": false,
                    "revertMessage": "",
                    "selector": "0x9b03a211",
                    "status": true,
                    "value": "0"
                },
                "nodeType": 0
            },
            "1": {
                "invocation": {
                    "address": "0x68e14bb5a45b9681327e16e528084b9d962c1a39",
                    "callData": "0x",
                    "decodedMethod": {
                        "callParams": [],
                        "constructorArguments": "",
                        "name": "unpause",
                        "returnParams": [],
                        "signature": "unpause()"
                    },
                    "errorInfo": "",
                    "fromAddress": "0x9f89388141c632c4c6f36d1060d5f50604ee3abc",
                    "gasUsed": 6864,
                    "id": 1,
                    "methodDecoded": true,
                    "operation": "CALL",
                    "output": "",
                    "revert": false,
                    "revertMessage": "",
                    "selector": "0x3f4ba83a",
                    "status": true,
                    "value": "0"
                },
                "nodeType": 0
            },
            "2": {
                "event": {
                    "contract": "0x68e14bb5a45b9681327e16e528084b9d962c1a39",
                    "decodedLog": {
                        "name": "Unpause",
                        "params": [],
                        "signature": "Unpause()"
                    },
                    "id": 2,
                    "logData": "0x",
                    "logDecoded": true,
                    "operation": "EVENT",
                    "revert": false,
                    "status": true,
                    "topics": [
                        "0x7805862f689e2f13df9f062ff482ad3ad112aca9e0847911ed832e158c525b33"
                    ]
                },
                "nodeType": 1
            },
            "3": {
                "invocation": {
                    "address": "0x68e14bb5a45b9681327e16e528084b9d962c1a39",
                    "callData": "0x000000000000000000000000156fc5e9c78be509afe395a31c2fb19d8cd5537d0000000000000000000000000000000000000000000000004563918244f40000",
                    "decodedMethod": {
                        "callParams": [
                            {
                                "name": "_to",
                                "type": "address",
                                "value": "0x156fc5e9c78be509afe395a31c2fb19d8cd5537d"
                            },
                            {
                                "decimalAvailable": true,
                                "name": "_value",
                                "type": "uint256",
                                "value": "5,000,000,000,000,000,000"
                            }
                        ],
                        "constructorArguments": "",
                        "name": "transfer",
                        "returnParams": [
                            {
                                "name": "",
                                "type": "bool",
                                "value": true
                            }
                        ],
                        "signature": "transfer(address,uint256)"
                    },
                    "errorInfo": "",
                    "fromAddress": "0x9f89388141c632c4c6f36d1060d5f50604ee3abc",
                    "gasUsed": 29010,
                    "id": 3,
                    "methodDecoded": true,
                    "operation": "CALL",
                    "output": "0x0000000000000000000000000000000000000000000000000000000000000001",
                    "revert": false,
                    "revertMessage": "",
                    "selector": "0xa9059cbb",
                    "status": true,
                    "value": "0"
                },
                "nodeType": 0
            },
            "4": {
                "event": {
                    "contract": "0x68e14bb5a45b9681327e16e528084b9d962c1a39",
                    "decodedLog": {
                        "name": "Transfer",
                        "params": [
                            {
                                "name": "from",
                                "type": "address",
                                "value": "0x9f89388141c632c4c6f36d1060d5f50604ee3abc"
                            },
                            {
                                "name": "to",
                                "type": "address",
                                "value": "0x156fc5e9c78be509afe395a31c2fb19d8cd5537d"
                            },
                            {
                                "decimalAvailable": true,
                                "name": "value",
                                "type": "uint256",
                                "value": "5,000,000,000,000,000,000"
                            }
                        ],
                        "signature": "Transfer(address,address,uint256)"
                    },
                    "id": 4,
                    "logData": "0x0000000000000000000000000000000000000000000000004563918244f40000",
                    "logDecoded": true,
                    "operation": "EVENT",
                    "revert": false,
                    "status": true,
                    "topics": [
                        "0xddf252ad1be2c89b69c2b068fc378daa952ba7f163c4a11628f55a4df523b3ef",
                        "0x0000000000000000000000009f89388141c632c4c6f36d1060d5f50604ee3abc",
                        "0x000000000000000000000000156fc5e9c78be509afe395a31c2fb19d8cd5537d"
                    ]
                },
                "nodeType": 1
            },
            "5": {
                "invocation": {
                    "address": "0x68e14bb5a45b9681327e16e528084b9d962c1a39",
                    "callData": "0x",
                    "decodedMethod": {
                        "callParams": [],
                        "constructorArguments": "",
                        "name": "pause",
                        "returnParams": [],
                        "signature": "pause()"
                    },
                    "errorInfo": "",
                    "fromAddress": "0x9f89388141c632c4c6f36d1060d5f50604ee3abc",
                    "gasUsed": 7106,
                    "id": 5,
                    "methodDecoded": true,
                    "operation": "CALL",
                    "output": "",
                    "revert": false,
                    "revertMessage": "",
                    "selector": "0x8456cb59",
                    "status": true,
                    "value": "0"
                },
                "nodeType": 0
            },
            "6": {
                "event": {
                    "contract": "0x68e14bb5a45b9681327e16e528084b9d962c1a39",
                    "decodedLog": {
                        "name": "Pause",
                        "params": [],
                        "signature": "Pause()"
                    },
                    "id": 6,
                    "logData": "0x",
                    "logDecoded": true,
                    "operation": "EVENT",
                    "revert": false,
                    "status": true,
                    "topics": [
                        "0x6985a02210a168e66602d3235cb6db0e70f92b3ba4d376a33c0f3d9434bff625"
                    ]
                },
                "nodeType": 1
            }
        },
        "gasFlame": [
            {
                "children": [
                    {
                        "children": [
                            {
                                "children": [],
                                "depth": 0,
                                "name": "Initial Gas",
                                "value": 23192
                            },
                            {
                                "children": [
                                    {
                                        "children": [],
                                        "depth": 1,
                                        "name": "unpause",
                                        "value": 6864
                                    },
                                    {
                                        "children": [],
                                        "depth": 1,
                                        "name": "transfer",
                                        "value": 29010
                                    },
                                    {
                                        "children": [],
                                        "depth": 1,
                                        "name": "pause",
                                        "value": 7106
                                    }
                                ],
                                "depth": 0,
                                "name": "Executed Gas",
                                "value": 50630
                            }
                        ],
                        "depth": -1,
                        "name": "Actual Gas Used",
                        "value": 73822
                    },
                    {
                        "children": [],
                        "depth": -1,
                        "name": "Refunded Gas",
                        "value": 0
                    }
                ],
                "depth": -2,
                "name": "Total Gas",
                "value": 73822
            }
        ],
        "isConfirmed": true,
        "mainTrace": [
            {
                "children": [
                    {
                        "children": [
                            {
                                "children": [
                                    {
                                        "children": [],
                                        "depth": 2,
                                        "id": 2,
                                        "order": 2
                                    }
                                ],
                                "depth": 1,
                                "id": 1,
                                "order": 1
                            },
                            {
                                "children": [
                                    {
                                        "children": [],
                                        "depth": 2,
                                        "id": 4,
                                        "order": 4
                                    }
                                ],
                                "depth": 1,
                                "id": 3,
                                "order": 3
                            },
                            {
                                "children": [
                                    {
                                        "children": [],
                                        "depth": 2,
                                        "id": 6,
                                        "order": 6
                                    }
                                ],
                                "depth": 1,
                                "id": 5,
                                "order": 5
                            }
                        ],
                        "depth": 0,
                        "id": 0,
                        "order": 0
                    }
                ],
                "depth": -1,
                "id": -1,
                "order": -1
            }
        ],
        "mainTraceNodeCount": 7,
        "parentIdMap": {
            "0": -1,
            "1": 0,
            "2": 1,
            "3": 0,
            "4": 3,
            "5": 0,
            "6": 5
        },
        "tidyTrace": [
            {
                "children": [
                    {
                        "children": [
                            {
                                "children": [
                                    {
                                        "children": [],
                                        "depth": 2,
                                        "id": 2,
                                        "order": 2
                                    }
                                ],
                                "depth": 1,
                                "id": 1,
                                "order": 1
                            },
                            {
                                "children": [
                                    {
                                        "children": [],
                                        "depth": 2,
                                        "id": 4,
                                        "order": 4
                                    }
                                ],
                                "depth": 1,
                                "id": 3,
                                "order": 3
                            },
                            {
                                "children": [
                                    {
                                        "children": [],
                                        "depth": 2,
                                        "id": 6,
                                        "order": 6
                                    }
                                ],
                                "depth": 1,
                                "id": 5,
                                "order": 5
                            }
                        ],
                        "depth": 0,
                        "id": 0,
                        "order": 0
                    }
                ],
                "depth": -1,
                "id": -1,
                "order": -1
            }
        ],
        "tidyTraceNodeCount": 7
    },
    "state_change": {
        "stateChanges": [
            {
                "address": "0x68e14bb5a45b9681327e16e528084b9d962c1a39",
                "erc": "ERC-20",
                "slots": [
                    {
                        "current": "0x0000000000000000000000000000000000000000000000004563918244f40000",
                        "key": "0x0d24bbcd19d9ac53ee7946d12c43ca52ef27771ca34cf5a34fec973a5bbf06a2",
                        "prev": "0x0000000000000000000000000000000000000000000000000000000000000000"
                    },
                    {
                        "current": "0x00000000000000000000000000000000000000000000078bb9173af9fd880000",
                        "key": "0x9459132bcf650503e0790741ad160bae4a619e17de0c7d02f8b861fdad6884c5",
                        "prev": "0x00000000000000000000000000000000000000000000078bfe7acc7c427c0000"
                    }
                ],
                "storageVariables": [
                    {
                        "name": "balances",
                        "type": "mapping(address => uint256)",
                        "value": {
                            "pairs": [
                                {
                                    "key": "0x156fc5e9c78be509afe395a31c2fb19d8cd5537d",
                                    "value": {
                                        "current": "5000000000000000000",
                                        "prev": "0",
                                        "typeTag": 1
                                    }
                                },
                                {
                                    "key": "0x9f89388141c632c4c6f36d1060d5f50604ee3abc",
                                    "value": {
                                        "current": "35634000000000000000000",
                                        "prev": "35639000000000000000000",
                                        "typeTag": 1
                                    }
                                }
                            ],
                            "typeTag": 4
                        }
                    }
                ]
            }
        ]
    }
}