{
    "balance_change": {
        "balanceChanges": [
            {
                "account": "0xb4b0014c6d27930cedd9eabed23bc7c0fe9b3ad4",
                "assets": [
                    {
                        "address": "0xeeeeeeeeeeeeeeeeeeeeeeeeeeeeeeeeeeeeeeee",
                        "amount": "36.533",
                        "iconUrl": "https://assets.blocksec.com/image/1663669189317-3.png",
                        "isERC1155": false,
                        "isERC721": false,
                        "sign": false,
                        "value": "43453.08086"
                    }
                ]
            },
            {
                "account": "0x1bf68a9d1eaee7826b3593c20a0ca93293cb489a",
                "assets": [
                    {
                        "address": "0xeeeeeeeeeeeeeeeeeeeeeeeeeeeeeeeeeeeeeeee",
                        "amount": "36.533",
                        "iconUrl": "https://assets.blocksec.com/image/1663669189317-3.png",
                        "isERC1155": false,
                        "isERC721": false,
                        "sign": true,
                        "value": "43453.08086"
                    }
                ]
            }
        ]
    },
    "profile": {
        "basic_info": {
            "baseFee": "",
            "blockNumber": 11663198,
            "callData": "0xd6f871090000000000000000000000000000000000000000000000000000000000000040000000000000000000000000000000000000000000000000000000000000008000000000000000000000000000000000000000000000000000000000000000064b4c4159544e00000000000000000000000000000000000000000000000000000000000000000000000000000000000000000000000000000000000000000014eabb3d57c192a698afadede90b4ba18be522e15b000000000000000000000000",
            "debugEnable": true,
            "errorInfo": "",
            "eventCount": 1,
            "feeRecipient": "0x52bc44d5378309ee2abf1539bf71de1b7d7be3b5",
            "formatValue": "36.533",
            "gasLimit": 85566,
            "gasPrice": "41",
            "gasUsed": 42542,
            "intTxnCount": 2,
            "internalRevert": false,
            "internalRevertMessage": "",
            "isContractCreation": false,
            "isFlashloan": false,
            "maxFee": "",
            "nonce": 3,
            "overwritedBlockNumber": -1,
            "priorityFee": "",
            "receiver": "0x1bf68a9d1eaee7826b3593c20a0ca93293cb489a",
            "revertMessage": "",
            "sender": "0xb4b0014c6d27930cedd9eabed23bc7c0fe9b3ad4",
            "simulationEnable": true,
            "sourceTxnHash": "0xe4a3b445770e35dc40f24fd6196b17be67c05fc06f33a4185641bfe11754b569",
            "status": true,
            "timestamp": "2021-01-16T01:07:54Z",
            "transactionFee": "0.001744222",
            "txnHash": "0xe4a3b445770e35dc40f24fd6196b17be67c05fc06f33a4185641bfe11754b569",
            "txnIndex": 32,
            "type": 0,
            "value": "36533000000000000000"
        },
        "fund_flow": [
            {
                "amount": "36.533",
                "from": "0xb4b0014c6d27930cedd9eabed23bc7c0fe9b3ad4",
                "id": 1,
                "isERC1155": false,
                "isERC721": false,
                "isReverted": false,
                "order": 1,
                "to": "0x1bf68a9d1eaee7826b3593c20a0ca93293cb489a",
                "token": "0xeeeeeeeeeeeeeeeeeeeeeeeeeeeeeeeeeeeeeeee"
            }
        ],
        "token_infos": [
            {
                "address": "0xc02aaa39b223fe8d0a0e5c4f27ead9083c756cc2",
                "decimals": 18
            },
            {
                "address": "0xeeeeeeeeeeeeeeeeeeeeeeeeeeeeeeeeeeeeeeee",
                "decimals": 18
            }
        ]
    },
    "address_label": {
        "labels": [
            {
                "address": "0x0000000000000000000000000000000000000004",
                "label": "Precompiled"
            },
            {
                "address": "0xeeeeeeeeeeeeeeeeeeeeeeeeeeeeeeeeeeeeeeee",
                "label": "Ether"
            },
            {
                "address": "0x0000000000000000000000000000000000000002",
                "label": "Precompiled"
            },
            {
                "address": "0x1bf68a9d1eaee7826b3593c20a0ca93293cb489a",
                "label": "Orbit Chain: Bridge"
            },
            {
                "address": "0x0000000000000000000000000000000000000001",
                "label": "Precompiled"
            },
            {
                "address": "0x0000000000000000000000000000000000000003",
                "label": "Precompiled"
            }
        ]
    },
    "trace": {
        "accountLabels": null,
        "dataMap": {
            "-1": {
                "invocation": {
                    "address": "0xb4b0014c6d27930cedd9eabed23bc7c0fe9b3ad4",
                    "callData": "",
                    "decodedMethod": null,
                    "errorInfo": "",
                    "fromAddress": "",
                    "gasUsed": 0,
                    "id": -1,
                    "methodDecoded": false,
                    "operation": "",
                    "output": "",
                    "revert": false,
                    "revertMessage": "",
                    "selector": "",
                    "status": false,
                    "value": ""
                },
                "nodeType": 0
            },
            "0": {
                "invocation": {
                    "address": "0x1bf68a9d1eaee7826b3593c20a0ca93293cb489a",
                    "callData": "0x0000000000000000000000000000000000000000000000000000000000000040000000000000000000000000000000000000000000000000000000000000008000000000000000000000000000000000000000000000000000000000000000064b4c4159544e00000000000000000000000000000000000000000000000000000000000000000000000000000000000000000000000000000000000000000014eabb3d57c192a698afadede90b4ba18be522e15b000000000000000000000000",
                    "decodedMethod": {
                        "callParams": [
                            {
                                "name": "toChain",
                                "type": "string",
                                "value": "KLAYTN"
                            },
                            {
                                "name": "toAddr",
                                "type": "bytes",
                                "value": "0xeabb3d57c192a698afadede90b4ba18be522e15b"
                            }
                        ],
                        "constructorArguments": "",
                        "name": "deposit",
                        "returnParams": [],
                        "signature": "deposit(string,bytes)"
                    },
                    "errorInfo": "",
                    "fromAddress": "0xb4b0014c6d27930cedd9eabed23bc7c0fe9b3ad4",
                    "gasUsed": 42542,
                    "id": 0,
                    "methodDecoded": true,
                    "operation": "CALL",
                    "output": "",
                    "revert": false,
                    "revertMessage": "",
                    "selector": "0xd6f87109",
                    "status": true,
                    "value": "36.533"
                },
                "nodeType": 0
            },
            "1": {
                "invocation": {
                    "address": "0xba07bb02e88ac15d95f8c15f569b53140265e1d0",
                    "callData": "0x0000000000000000000000000000000000000000000000000000000000000040000000000000000000000000000000000000000000000000000000000000008000000000000000000000000000000000000000000000000000000000000000064b4c4159544e00000000000000000000000000000000000000000000000000000000000000000000000000000000000000000000000000000000000000000014eabb3d57c192a698afadede90b4ba18be522e15b000000000000000000000000",
                    "decodedMethod": {
                        "callParams": [
                            {
                                "name": "toChain",
                                "type": "string",
                                "value": "KLAYTN"
                            },
                            {
                                "name": "toAddr",
                                "type": "bytes",
                                "value": "0xeabb3d57c192a698afadede90b4ba18be522e15b"
                            }
                        ],
                        "constructorArguments": "",
                        "name": "deposit",
                        "returnParams": [],
                        "signature": "deposit(string,bytes)"
                    },
                    "errorInfo": "",
                    "fromAddress": "0x1bf68a9d1eaee7826b3593c20a0ca93293cb489a",
                    "gasUsed": 17854,
                    "id": 1,
                    "methodDecoded": true,
                    "operation": "DELEGATECALL",
                    "output": "",
                    "revert": false,
                    "revertMessage": "",
                    "selector": "0xd6f87109",
                    "status": true,
                    "value": "36.533"
                },
                "nodeType": 0
            },
            "2": {
                "invocation": {
                    "address": "0x0000000000000000000000000000000000000002",
                    "callData": "0x1eaee7826b3593c20a0ca93293cb489a4b4c4159544e",
                    "decodedMethod": {
                        "callParams": [
                            {
                                "name": "data",
                                "type": "bytes",
                                "value": "0x1bf68a9d1eaee7826b3593c20a0ca93293cb489a4b4c4159544e"
                            }
                        ],
                        "constructorArguments": "",
                        "name": "sha256hash",
                        "returnParams": [
                            {
                                "name": "hash",
                                "type": "bytes32",
                                "value": "0x9ac19347ca4424419c9f0d93e82cb425ac3d411cb01127daebd34d4a8d9c3db1"
                            }
                        ],
                        "signature": "sha256hash(bytes)"
                    },
                    "errorInfo": "",
                    "fromAddress": "0x1bf68a9d1eaee7826b3593c20a0ca93293cb489a",
                    "gasUsed": 72,
                    "id": 2,
                    "methodDecoded": true,
                    "operation": "STATICCALL",
                    "output": "0x9ac19347ca4424419c9f0d93e82cb425ac3d411cb01127daebd34d4a8d9c3db1",
                    "revert": false,
                    "revertMessage": "",
                    "selector": "0x1bf68a9d",
                    "status": true,
                    "value": "0"
                },
                "nodeType": 0
            },
            "3": {
                "event": {
                    "contract": "0x1bf68a9d1eaee7826b3593c20a0ca93293cb489a",
                    "decodedLog": null,
                    "id": 3,
                    "logData": "0x00000000000000000000000000000000000000000000000000000000000001200000000000000000000000000000000000000000000000000000000000000160000000000000000000000000b4b0014c6d27930cedd9eabed23bc7c0fe9b3ad400000000000000000000000000000000000000000000000000000000000001a000000000000000000000000000000000000000000000000000000000000000000000000000000000000000000000000000000000000000000000000000000012000000000000000000000000000000000000000000000001faff49f09b58800000000000000000000000000000000000000000000000000000000000000013fd0000000000000000000000000000000000000000000000000000000000b1f75e0000000000000000000000000000000000000000000000000000000000000003455448000000000000000000000000000000000000000000000000000000000000000000000000000000000000000000000000000000000000000000000000064b4c4159544e00000000000000000000000000000000000000000000000000000000000000000000000000000000000000000000000000000000000000000014eabb3d57c192a698afadede90b4ba18be522e15b000000000000000000000000",
                    "logDecoded": false,
                    "operation": "EVENT",
                    "revert": false,
                    "status": true,
                    "topics": [
                        "0xf7bd4f8a5eb50e4cd93f1ca48ad71fe2d1dacaf25068775ef2bd9b4de638ae48"
                    ]
                },
                "nodeType": 1
            }
        },
        "gasFlame": [
            {
                "children": [
                    {
                        "children": [
                            {
                                "children": [],
                                "depth": 0,
                                "name": "Initial Gas",
                                "value": 22192
                            },
                            {
                                "children": [
                                    {
                                        "children": [
                                            {
                                                "children": [],
                                                "depth": 2,
                                                "name": "sha256hash",
                                                "value": 72
                                            }
                                        ],
                                        "depth": 1,
                                        "name": "deposit",
                                        "value": 17854
                                    }
                                ],
                                "depth": 0,
                                "name": "Executed Gas",
                                "value": 20350
                            }
                        ],
                        "depth": -1,
                        "name": "Actual Gas Used",
                        "value": 42542
                    },
                    {
                        "children": [],
                        "depth": -1,
                        "name": "Refunded Gas",
                        "value": 0
                    }
                ],
                "depth": -2,
                "name": "Total Gas",
                "value": 42542
            }
        ],
        "isConfirmed": true,
        "mainTrace": [
            {
                "children": [
                    {
                        "children": [
                            {
                                "children": [
                                    {
                                        "children": [],
                                        "depth": 2,
                                        "id": 2,
                                        "order": 2
                                    },
                                    {
                                        "children": [],
                                        "depth": 2,
                                        "id": 3,
                                        "order": 3
                                    }
                                ],
                                "depth": 1,
                                "id": 1,
                                "order": 1
                            }
                        ],
                        "depth": 0,
                        "id": 0,
                        "order": 0
                    }
                ],
                "depth": -1,
                "id": -1,
                "order": -1
            }
        ],
        "mainTraceNodeCount": 4,
        "parentIdMap": {
            "0": -1,
            "1": 0,
            "2": 1,
            "3": 1
        },
        "tidyTrace": [
            {
                "children": [
                    {
                        "children": [
                            {
                                "children": [
                                    {
                                        "children": [],
                                        "depth": 2,
                                        "id": 3,
                                        "order": 3
                                    }
                                ],
                                "depth": 1,
                                "id": 1,
                                "order": 1
                            }
                        ],
                        "depth": 0,
                        "id": 0,
                        "order": 0
                    }
                ],
                "depth": -1,
                "id": -1,
                "order": -1
            }
        ],
        "tidyTraceNodeCount": 3
    },
    "state_change": {
        "stateChanges": [
            {
                "address": "0x1bf68a9d1eaee7826b3593c20a0ca93293cb489a",
                "erc": "",
                "slots": [
                    {
                        "current": "0x00000000000000000000000000000000000000000000000000000000000013fd",
                        "key": "0x0000000000000000000000000000000000000000000000000000000000000008",
                        "prev": "0x00000000000000000000000000000000000000000000000000000000000013fc"
                    }
                ],
                "storageVariables": [
                    {
                        "name": "depositCount",
                        "type": "uint256",
                        "value": {
                            "current": "5117",
                            "prev": "5116",
                            "typeTag": 1
                        }
                    }
                ]
            }
        ]
    }
}