{
    "balance_change": {
        "balanceChanges": [
            {
                "account": "0x3b15cec2d922ab0ef74688bcc1056461049f89cb",
                "assets": [
                    {
                        "address": "0x4591dbff62656e7859afe5e45f6f47d3669fbb28",
                        "amount": "106,451.153450705897283097",
                        "iconUrl": "",
                        "isERC1155": false,
                        "isERC721": false,
                        "sign": true,
                        "value": "106243.2664"
                    }
                ]
            },
            {
                "account": "0xed8b26d99834540c5013701bb3715fafd39993ba",
                "assets": [
                    {
                        "address": "0x4591dbff62656e7859afe5e45f6f47d3669fbb28",
                        "amount": "106,451.153450705897283097",
                        "iconUrl": "",
                        "isERC1155": false,
                        "isERC721": false,
                        "sign": false,
                        "value": "106243.2664"
                    }
                ]
            }
        ]
    },
    "profile": {
        "basic_info": {
            "baseFee": "38.639629375",
            "blockNumber": 18565927,
            "callData": "0x2e54bf9500000000000000000000000000000000000000000000168aba84fd08b2f65e19",
            "debugEnable": true,
            "errorInfo": "",
            "eventCount": 5,
            "feeRecipient": "0x4838b106fce9647bdf1e7877bf73ce8b0bad5f97",
            "formatValue": "0",
            "gasLimit": 129248,
            "gasPrice": "38.649629375",
            "gasUsed": 114848,
            "intTxnCount": 1,
            "internalRevert": false,
            "internalRevertMessage": "",
            "isContractCreation": false,
            "isFlashloan": false,
            "maxFee": "40",
            "nonce": 27440,
            "overwritedBlockNumber": -1,
            "priorityFee": "0.01",
            "receiver": "0xed8b26d99834540c5013701bb3715fafd39993ba",
            "revertMessage": "",
            "sender": "0x3b15cec2d922ab0ef74688bcc1056461049f89cb",
            "simulationEnable": true,
            "sourceTxnHash": "0xe529956582bbadd0571d86a9d88e3f9ed60bf50695ee8ad7706815ef34096746",
            "status": true,
            "timestamp": "2023-11-13T22:21:23Z",
            "transactionFee": "0.00443883263446",
            "txnHash": "0xe529956582bbadd0571d86a9d88e3f9ed60bf50695ee8ad7706815ef34096746",
            "txnIndex": 70,
            "type": 2,
            "value": "0"
        },
        "fund_flow": [
            {
                "amount": "106,451.153450705897283097",
                "from": "0xed8b26d99834540c5013701bb3715fafd39993ba",
                "id": 1,
                "isERC1155": false,
                "isERC721": false,
                "isReverted": false,
                "order": 1,
                "to": "0x3b15cec2d922ab0ef74688bcc1056461049f89cb",
                "token": "0x4591dbff62656e7859afe5e45f6f47d3669fbb28"
            }
        ],
        "token_infos": [
            {
                "address": "0x4591dbff62656e7859afe5e45f6f47d3669fbb28",
                "decimals": 18
            },
            {
                "address": "0xc02aaa39b223fe8d0a0e5c4f27ead9083c756cc2",
                "decimals": 18
            },
            {
                "address": "0xeeeeeeeeeeeeeeeeeeeeeeeeeeeeeeeeeeeeeeee",
                "decimals": 18
            }
        ]
    },
    "address_label": {
        "labels": [
            {
                "address": "0x0000000000000000000000000000000000000002",
                "label": "Precompiled"
            },
            {
                "address": "0x0000000000000000000000000000000000000003",
                "label": "Precompiled"
            },
            {
                "address": "0x0000000000000000000000000000000000000004",
                "label": "Precompiled"
            },
            {
                "address": "0xeeeeeeeeeeeeeeeeeeeeeeeeeeeeeeeeeeeeeeee",
                "label": "Ether"
            },
            {
                "address": "0xed8b26d99834540c5013701bb3715fafd39993ba",
                "label": "StabilityPool"
            },
            {
                "address": "0x4591dbff62656e7859afe5e45f6f47d3669fbb28",
                "label": "Prisma Finance: mkUSD Token"
            },
            {
                "address": "0x0000000000000000000000000000000000000001",
                "label": "Precompiled"
            }
        ]
    },
    "trace": {
        "accountLabels": null,
        "dataMap": {
            "-1": {
                "invocation": {
                    "address": "0x3b15cec2d922ab0ef74688bcc1056461049f89cb",
                    "callData": "",
                    "decodedMethod": null,
                    "errorInfo": "",
                    "fromAddress": "",
                    "gasUsed": 0,
                    "id": -1,
                    "methodDecoded": false,
                    "operation": "",
                    "output": "",
                    "revert": false,
                    "revertMessage": "",
                    "selector": "",
                    "status": false,
                    "value": ""
                },
                "nodeType": 0
            },
            "0": {
                "invocation": {
                    "address": "0xed8b26d99834540c5013701bb3715fafd39993ba",
                    "callData": "0x00000000000000000000000000000000000000000000168aba84fd08b2f65e19",
                    "decodedMethod": {
                        "callParams": [
                            {
                                "name": "_amount",
                                "type": "uint256",
                                "value": "106,451,153,450,705,897,283,097"
                            }
                        ],
                        "constructorArguments": "",
                        "name": "withdrawFromSP",
                        "returnParams": [],
                        "signature": "withdrawFromSP(uint256)"
                    },
                    "errorInfo": "",
                    "fromAddress": "0x3b15cec2d922ab0ef74688bcc1056461049f89cb",
                    "gasUsed": 114848,
                    "id": 0,
                    "methodDecoded": true,
                    "operation": "CALL",
                    "output": "",
                    "revert": false,
                    "revertMessage": "",
                    "selector": "0x2e54bf95",
                    "status": true,
                    "value": "0"
                },
                "nodeType": 0
            },
            "1": {
                "event": {
                    "contract": "0xed8b26d99834540c5013701bb3715fafd39993ba",
                    "decodedLog": {
                        "name": "G_Updated",
                        "params": [
                            {
                                "name": "_G",
                                "type": "uint256",
                                "value": "9,267,098,115,341,897,171,228,131,230,974,337"
                            },
                            {
                                "name": "_epoch",
                                "type": "uint128",
                                "value": "0"
                            },
                            {
                                "name": "_scale",
                                "type": "uint128",
                                "value": "0"
                            }
                        ],
                        "signature": "G_Updated(uint256,uint128,uint128)"
                    },
                    "id": 1,
                    "logData": "0x000000000000000000000000000000000001c8e738f7a3346edc73ddf517818100000000000000000000000000000000000000000000000000000000000000000000000000000000000000000000000000000000000000000000000000000000",
                    "logDecoded": true,
                    "operation": "EVENT",
                    "revert": false,
                    "status": true,
                    "topics": [
                        "0x2d6127771b164a9cc8827d24b5955db2a77e7a81dac389107ebb8bce9fb64968"
                    ]
                },
                "nodeType": 1
            },
            "2": {
                "invocation": {
                    "address": "0x4591dbff62656e7859afe5e45f6f47d3669fbb28",
                    "callData": "0x000000000000000000000000ed8b26d99834540c5013701bb3715fafd39993ba0000000000000000000000003b15cec2d922ab0ef74688bcc1056461049f89cb00000000000000000000000000000000000000000000168aba84fd08b2f65e19",
                    "decodedMethod": {
                        "callParams": [
                            {
                                "name": "_poolAddress",
                                "type": "address",
                                "value": "0xed8b26d99834540c5013701bb3715fafd39993ba"
                            },
                            {
                                "name": "_receiver",
                                "type": "address",
                                "value": "0x3b15cec2d922ab0ef74688bcc1056461049f89cb"
                            },
                            {
                                "name": "_amount",
                                "type": "uint256",
                                "value": "106,451,153,450,705,897,283,097"
                            }
                        ],
                        "constructorArguments": "",
                        "name": "returnFromPool",
                        "returnParams": [],
                        "signature": "returnFromPool(address,address,uint256)"
                    },
                    "errorInfo": "",
                    "fromAddress": "0xed8b26d99834540c5013701bb3715fafd39993ba",
                    "gasUsed": 12856,
                    "id": 2,
                    "methodDecoded": true,
                    "operation": "CALL",
                    "output": "",
                    "revert": false,
                    "revertMessage": "",
                    "selector": "0x20c582be",
                    "status": true,
                    "value": "0"
                },
                "nodeType": 0
            },
            "3": {
                "event": {
                    "contract": "0x4591dbff62656e7859afe5e45f6f47d3669fbb28",
                    "decodedLog": {
                        "name": "Transfer",
                        "params": [
                            {
                                "name": "from",
                                "type": "address",
                                "value": "0xed8b26d99834540c5013701bb3715fafd39993ba"
                            },
                            {
                                "name": "to",
                                "type": "address",
                                "value": "0x3b15cec2d922ab0ef74688bcc1056461049f89cb"
                            },
                            {
                                "decimalAvailable": true,
                                "name": "value",
                                "type": "uint256",
                                "value": "106,451,153,450,705,897,283,097"
                            }
                        ],
                        "signature": "Transfer(address,address,uint256)"
                    },
                    "id": 3,
                    "logData": "0x00000000000000000000000000000000000000000000168aba84fd08b2f65e19",
                    "logDecoded": true,
                    "operation": "EVENT",
                    "revert": false,
                    "status": true,
                    "topics": [
                        "0xddf252ad1be2c89b69c2b068fc378daa952ba7f163c4a11628f55a4df523b3ef",
                        "0x000000000000000000000000ed8b26d99834540c5013701bb3715fafd39993ba",
                        "0x0000000000000000000000003b15cec2d922ab0ef74688bcc1056461049f89cb"
                    ]
                },
                "nodeType": 1
            },
            "4": {
                "event": {
                    "contract": "0xed8b26d99834540c5013701bb3715fafd39993ba",
                    "decodedLog": {
                        "name": "StabilityPoolDebtBalanceUpdated",
                        "params": [
                            {
                                "name": "_newBalance",
                                "type": "uint256",
                                "value": "121,667,385,068,866,641,257,820,639"
                            }
                        ],
                        "signature": "StabilityPoolDebtBalanceUpdated(uint256)"
                    },
                    "id": 4,
                    "logData": "0x00000000000000000000000000000000000000000064a412291e0ce34a4ff1df",
                    "logDecoded": true,
                    "operation": "EVENT",
                    "revert": false,
                    "status": true,
                    "topics": [
                        "0x5c1eb83edfbe7709b9a63e8c7e294df8731e15bc212a85bf6e95cb906600bcbb"
                    ]
                },
                "nodeType": 1
            },
            "5": {
                "event": {
                    "contract": "0xed8b26d99834540c5013701bb3715fafd39993ba",
                    "decodedLog": {
                        "name": "DepositSnapshotUpdated",
                        "params": [
                            {
                                "name": "_depositor",
                                "type": "address",
                                "value": "0x3b15cec2d922ab0ef74688bcc1056461049f89cb"
                            },
                            {
                                "name": "_P",
                                "type": "uint256",
                                "value": "0"
                            },
                            {
                                "name": "_G",
                                "type": "uint256",
                                "value": "0"
                            }
                        ],
                        "signature": "DepositSnapshotUpdated(address,uint256,uint256)"
                    },
                    "id": 5,
                    "logData": "0x00000000000000000000000000000000000000000000000000000000000000000000000000000000000000000000000000000000000000000000000000000000",
                    "logDecoded": true,
                    "operation": "EVENT",
                    "revert": false,
                    "status": true,
                    "topics": [
                        "0xc48943df4095f4f20d171fd2872eafdc0eed4d9014ac3672f3bde7fd425449d5",
                        "0x0000000000000000000000003b15cec2d922ab0ef74688bcc1056461049f89cb"
                    ]
                },
                "nodeType": 1
            },
            "6": {
                "event": {
                    "contract": "0xed8b26d99834540c5013701bb3715fafd39993ba",
                    "decodedLog": {
                        "name": "UserDepositChanged",
                        "params": [
                            {
                                "name": "_depositor",
                                "type": "address",
                                "value": "0x3b15cec2d922ab0ef74688bcc1056461049f89cb"
                            },
                            {
                                "name": "_newDeposit",
                                "type": "uint256",
                                "value": "0"
                            }
                        ],
                        "signature": "UserDepositChanged(address,uint256)"
                    },
                    "id": 6,
                    "logData": "0x0000000000000000000000000000000000000000000000000000000000000000",
                    "logDecoded": true,
                    "operation": "EVENT",
                    "revert": false,
                    "status": true,
                    "topics": [
                        "0xbce78369dccab09eec1986f4d409ab09ffbb47d65423e5148fcf98411c5111c9",
                        "0x0000000000000000000000003b15cec2d922ab0ef74688bcc1056461049f89cb"
                    ]
                },
                "nodeType": 1
            }
        },
        "gasFlame": [
            {
                "children": [
                    {
                        "children": [
                            {
                                "children": [],
                                "depth": 0,
                                "name": "Initial Gas",
                                "value": 21312
                            },
                            {
                                "children": [
                                    {
                                        "children": [],
                                        "depth": 1,
                                        "name": "returnFromPool",
                                        "value": 12856
                                    }
                                ],
                                "depth": 0,
                                "name": "Executed Gas",
                                "value": 107936
                            }
                        ],
                        "depth": -1,
                        "name": "Actual Gas Used",
                        "value": 114848
                    },
                    {
                        "children": [],
                        "depth": -1,
                        "name": "Refunded Gas",
                        "value": 14400
                    }
                ],
                "depth": -2,
                "name": "Total Gas",
                "value": 129248
            }
        ],
        "isConfirmed": true,
        "mainTrace": [
            {
                "children": [
                    {
                        "children": [
                            {
                                "children": [],
                                "depth": 1,
                                "id": 1,
                                "order": 1
                            },
                            {
                                "children": [
                                    {
                                        "children": [],
                                        "depth": 2,
                                        "id": 3,
                                        "order": 3
                                    }
                                ],
                                "depth": 1,
                                "id": 2,
                                "order": 2
                            },
                            {
                                "children": [],
                                "depth": 1,
                                "id": 4,
                                "order": 4
                            },
                            {
                                "children": [],
                                "depth": 1,
                                "id": 5,
                                "order": 5
                            },
                            {
                                "children": [],
                                "depth": 1,
                                "id": 6,
                                "order": 6
                            }
                        ],
                        "depth": 0,
                        "id": 0,
                        "order": 0
                    }
                ],
                "depth": -1,
                "id": -1,
                "order": -1
            }
        ],
        "mainTraceNodeCount": 7,
        "parentIdMap": {
            "0": -1,
            "1": 0,
            "2": 0,
            "3": 2,
            "4": 0,
            "5": 0,
            "6": 0
        },
        "tidyTrace": [
            {
                "children": [
                    {
                        "children": [
                            {
                                "children": [],
                                "depth": 1,
                                "id": 1,
                                "order": 1
                            },
                            {
                                "children": [
                                    {
                                        "children": [],
                                        "depth": 2,
                                        "id": 3,
                                        "order": 3
                                    }
                                ],
                                "depth": 1,
                                "id": 2,
                                "order": 2
                            },
                            {
                                "children": [],
                                "depth": 1,
                                "id": 4,
                                "order": 4
                            },
                            {
                                "children": [],
                                "depth": 1,
                                "id": 5,
                                "order": 5
                            },
                            {
                                "children": [],
                                "depth": 1,
                                "id": 6,
                                "order": 6
                            }
                        ],
                        "depth": 0,
                        "id": 0,
                        "order": 0
                    }
                ],
                "depth": -1,
                "id": -1,
                "order": -1
            }
        ],
        "tidyTraceNodeCount": 7
    },
    "state_change": {
        "stateChanges": [
            {
                "address": "0x4591dbff62656e7859afe5e45f6f47d3669fbb28",
                "erc": "ERC-20",
                "slots": [
                    {
                        "current": "0x00000000000000000000000000000000000000000064a412291e0ce34a4ff1df",
                        "key": "0xe0160c576ad9f767f7d7606a5e214fb45bbf2a14e1a0ca12f77aac8de150de42",
                        "prev": "0x00000000000000000000000000000000000000000064ba9ce3a309ebfd464ff8"
                    },
                    {
                        "current": "0x00000000000000000000000000000000000000000000173f20f5ffc811237477",
                        "key": "0x2b6be051fe9258a03c802ad77216a8291bfd6773e294248a378766175ddd7ea7",
                        "prev": "0x0000000000000000000000000000000000000000000000b4667102bf5e2d165e"
                    }
                ],
                "storageVariables": [
                    {
                        "name": "_balances",
                        "type": "mapping(address => uint256)",
                        "value": {
                            "pairs": [
                                {
                                    "key": "0x3b15cec2d922ab0ef74688bcc1056461049f89cb",
                                    "value": {
                                        "current": "109778949068258795549815",
                                        "prev": "3327795617552898266718",
                                        "typeTag": 1
                                    }
                                },
                                {
                                    "key": "0xed8b26d99834540c5013701bb3715fafd39993ba",
                                    "value": {
                                        "current": "121667385068866641257820639",
                                        "prev": "121773836222317347155103736",
                                        "typeTag": 1
                                    }
                                }
                            ],
                            "typeTag": 4
                        }
                    }
                ]
            },
            {
                "address": "0xed8b26d99834540c5013701bb3715fafd39993ba",
                "erc": "",
                "slots": [
                    {
                        "current": "0x0000000000000000000000000000000000000000005ef019db1f0c01d458a222",
                        "key": "0x000000000000000000000000000000000000000000000000000000000000000d",
                        "prev": "0x00000000000000000000000000000000000000000052522e6ef79b081adcddea"
                    },
                    {
                        "current": "0x00000000000000000000000000000000000000000064a412291e0ce34a4ff1df",
                        "key": "0x0000000000000000000000000000000000000000000000000000000000000003",
                        "prev": "0x00000000000000000000000000000000000000000064ba9ce3a309ebfd464ff8"
                    },
                    {
                        "current": "0x0000000000000000000000000000000000000000000000000000000000000000",
                        "key": "0x3c7cfec49466fd0879edc63b5b5431a43c1e9e7843ea6867eba9d94b685afefd",
                        "prev": "0x0000000000000000000000000000000000000000000000000ddfbbd5ec3bfbe7"
                    },
                    {
                        "current": "0x00000000000000000000000065501c9300000000000000000000000000000000",
                        "key": "0x78e5dc0de9befdee24aeeff15539aeb21457bdac33984ef33af9484e136262e1",
                        "prev": "0x00000000000000000000000065501c93000000000000168aba84fd08b2f65e19"
                    },
                    {
                        "current": "0x0000000000000000000000000000000000000000000000000000000000000000",
                        "key": "0x3c7cfec49466fd0879edc63b5b5431a43c1e9e7843ea6867eba9d94b685afefe",
                        "prev": "0x000000000000000000000000000000000001b4a43c95e2c718da0a3dabd93ad7"
                    },
                    {
                        "current": "0x0000000000000000000000000000000000000000000000000000000000000000",
                        "key": "0x22a2c86b089c4a303f5ad05797e98241949a110cd92d6d47c0edc876cb4c05f7",
                        "prev": "0x00000000000000000000000000000000000000023d399b97aca2c8378cd31d38"
                    },
                    {
                        "current": "0x000000000000000000000000000000000001c8e738f7a3346edc73ddf5178181",
                        "key": "0x18ea5137d4b638f7150ef5d67284baa6628dc5dcf2cde6ec4377e9be2774c55f",
                        "prev": "0x000000000000000000000000000000000001c52caeec002dfa82492b14bd78b0"
                    },
                    {
                        "current": "0x000000000000000065555f576552a1630000000000000000118d02b2853e1b8b",
                        "key": "0x0000000000000000000000000000000000000000000000000000000000000000",
                        "prev": "0x000000000000000065555f57655284ef0000000000000000118d02b2853e1b8b"
                    },
                    {
                        "current": "0x00000000000000000000000000000000000000000000000622b54f2e4ded65a7",
                        "key": "0x293046a63c22c840e940431e182f73a7d9c5df5d4650f27de39ef76fcc360d0f",
                        "prev": "0x000000000000000000000000000000000000000000000003c36f072fef098ac4"
                    }
                ],
                "storageVariables": [
                    {
                        "name": "storedPendingReward",
                        "type": "mapping(address => uint256)",
                        "value": {
                            "pairs": [
                                {
                                    "key": "0x3b15cec2d922ab0ef74688bcc1056461049f89cb",
                                    "value": {
                                        "current": "113181456670625981863",
                                        "prev": "69422714683394722500",
                                        "typeTag": 1
                                    }
                                }
                            ],
                            "typeTag": 4
                        }
                    },
                    {
                        "name": "depositSnapshots",
                        "type": "mapping(address => struct StabilityPool.Snapshots)",
                        "value": {
                            "pairs": [
                                {
                                    "key": "0x3b15cec2d922ab0ef74688bcc1056461049f89cb",
                                    "value": {
                                        "fields": [
                                            {
                                                "name": "P",
                                                "type": "uint256",
                                                "value": {
                                                    "current": "0",
                                                    "prev": "999724169765321703",
                                                    "typeTag": 1
                                                }
                                            },
                                            {
                                                "name": "G",
                                                "type": "uint256",
                                                "value": {
                                                    "current": "0",
                                                    "prev": "8856142756145931577444483131325143",
                                                    "typeTag": 1
                                                }
                                            }
                                        ],
                                        "typeTag": 3
                                    }
                                }
                            ],
                            "typeTag": 4
                        }
                    },
                    {
                        "name": "depositSums",
                        "type": "mapping(address => uint256[256])",
                        "value": {
                            "pairs": [
                                {
                                    "key": "0x3b15cec2d922ab0ef74688bcc1056461049f89cb",
                                    "value": {
                                        "elemType": "uint256",
                                        "elems": [
                                            {
                                                "index": 0,
                                                "value": {
                                                    "current": "0",
                                                    "prev": "177404554164051683429070347576",
                                                    "typeTag": 1
                                                }
                                            }
                                        ],
                                        "typeTag": 2
                                    }
                                }
                            ],
                            "typeTag": 4
                        }
                    },
                    {
                        "name": "epochToScaleToG",
                        "type": "mapping(uint128 => mapping(uint128 => uint256))",
                        "value": {
                            "pairs": [
                                {
                                    "key": "0",
                                    "value": {
                                        "pairs": [
                                            {
                                                "key": "0",
                                                "value": {
                                                    "current": "9267098115341897171228131230974337",
                                                    "prev": "9191471725303884830550686873516208",
                                                    "typeTag": 1
                                                }
                                            }
                                        ],
                                        "typeTag": 4
                                    }
                                }
                            ],
                            "typeTag": 4
                        }
                    },
                    {
                        "name": "lastPrismaError",
                        "type": "uint256",
                        "value": {
                            "current": "114772871957617720593785378",
                            "prev": "99520007806252416405134826",
                            "typeTag": 1
                        }
                    },
                    {
                        "name": "totalDebtTokenDeposits",
                        "type": "uint256",
                        "value": {
                            "current": "121667385068866641257820639",
                            "prev": "121773836222317347155103736",
                            "typeTag": 1
                        }
                    },
                    {
                        "name": "accountDeposits",
                        "type": "mapping(address => struct StabilityPool.AccountDeposit)",
                        "value": {
                            "pairs": [
                                {
                                    "key": "0x3b15cec2d922ab0ef74688bcc1056461049f89cb",
                                    "value": {
                                        "fields": [
                                            {
                                                "name": "amount",
                                                "type": "uint128",
                                                "value": {
                                                    "current": "0",
                                                    "prev": "106451153450705897283097",
                                                    "typeTag": 1
                                                }
                                            },
                                            {
                                                "name": "timestamp",
                                                "type": "uint128",
                                                "value": {
                                                    "current": "1699749011",
                                                    "prev": "1699749011",
                                                    "typeTag": 1
                                                }
                                            }
                                        ],
                                        "typeTag": 3
                                    }
                                }
                            ],
                            "typeTag": 4
                        }
                    },
                    {
                        "name": "rewardRate",
                        "type": "uint128",
                        "value": {
                            "current": "1264670036123851659",
                            "prev": "1264670036123851659",
                            "typeTag": 1
                        }
                    },
                    {
                        "name": "lastUpdate",
                        "type": "uint32",
                        "value": {
                            "current": "1699914083",
                            "prev": "1699906799",
                            "typeTag": 1
                        }
                    },
                    {
                        "name": "periodFinish",
                        "type": "uint32",
                        "value": {
                            "current": "1700093783",
                            "prev": "1700093783",
                            "typeTag": 1
                        }
                    }
                ]
            }
        ]
    }
}