{
    "balance_change": {
        "balanceChanges": [
            {
                "account": "0xd9bd20efca7b0e6606b969548b1516c08d37374b",
                "assets": [
                    {
                        "address": "0xaf30d2a7e90d7dc361c8c4585e9bb7d2f6f15bc7",
                        "amount": "9",
                        "iconUrl": "",
                        "isERC1155": false,
                        "isERC721": false,
                        "sign": false,
                        "value": ""
                    }
                ]
            },
            {
                "account": "0x577f67467de69250dd736fec8aa81b10bb506ccc",
                "assets": [
                    {
                        "address": "0xaf30d2a7e90d7dc361c8c4585e9bb7d2f6f15bc7",
                        "amount": "9",
                        "iconUrl": "",
                        "isERC1155": false,
                        "isERC721": false,
                        "sign": true,
                        "value": ""
                    }
                ]
            }
        ]
    },
    "profile": {
        "basic_info": {
            "baseFee": "",
            "blockNumber": 3727385,
            "callData": "0xa9059cbb000000000000000000000000577f67467de69250dd736fec8aa81b10bb506ccc0000000000000000000000000000000000000000000000007ce66c50e2840000",
            "debugEnable": true,
            "errorInfo": "",
            "eventCount": 1,
            "feeRecipient": "0xf3b9d2c81f2b24b0fa0acaaa865b7d9ced5fc2fb",
            "formatValue": "0",
            "gasLimit": 150000,
            "gasPrice": "20",
            "gasUsed": 37648,
            "intTxnCount": 0,
            "internalRevert": false,
            "internalRevertMessage": "",
            "isContractCreation": false,
            "isFlashloan": false,
            "maxFee": "",
            "nonce": 3687,
            "overwritedBlockNumber": -1,
            "priorityFee": "",
            "receiver": "0xaf30d2a7e90d7dc361c8c4585e9bb7d2f6f15bc7",
            "revertMessage": "",
            "sender": "0xd9bd20efca7b0e6606b969548b1516c08d37374b",
            "simulationEnable": true,
            "sourceTxnHash": "0xe54b054293cfe0a58f373aa70ef6133c29c4d88434ae84d057ad157dab428e4e",
            "status": true,
            "timestamp": "2017-05-18T13:56:41Z",
            "transactionFee": "0.00075296",
            "txnHash": "0xe54b054293cfe0a58f373aa70ef6133c29c4d88434ae84d057ad157dab428e4e",
            "txnIndex": 10,
            "type": 0,
            "value": "0"
        },
        "fund_flow": [
            {
                "amount": "9",
                "from": "0xd9bd20efca7b0e6606b969548b1516c08d37374b",
                "id": 1,
                "isERC1155": false,
                "isERC721": false,
                "isReverted": false,
                "order": 1,
                "to": "0x577f67467de69250dd736fec8aa81b10bb506ccc",
                "token": "0xaf30d2a7e90d7dc361c8c4585e9bb7d2f6f15bc7"
            }
        ],
        "token_infos": [
            {
                "address": "0xaf30d2a7e90d7dc361c8c4585e9bb7d2f6f15bc7",
                "decimals": 18
            },
            {
                "address": "0xc02aaa39b223fe8d0a0e5c4f27ead9083c756cc2",
                "decimals": 18
            },
            {
                "address": "0xeeeeeeeeeeeeeeeeeeeeeeeeeeeeeeeeeeeeeeee",
                "decimals": 18
            }
        ]
    },
    "address_label": {
        "labels": [
            {
                "address": "0x0000000000000000000000000000000000000003",
                "label": "Precompiled"
            },
            {
                "address": "0x0000000000000000000000000000000000000004",
                "label": "Precompiled"
            },
            {
                "address": "0xeeeeeeeeeeeeeeeeeeeeeeeeeeeeeeeeeeeeeeee",
                "label": "Ether"
            },
            {
                "address": "0xaf30d2a7e90d7dc361c8c4585e9bb7d2f6f15bc7",
                "label": "FirstBlood"
            },
            {
                "address": "0x0000000000000000000000000000000000000001",
                "label": "Precompiled"
            },
            {
                "address": "0x0000000000000000000000000000000000000002",
                "label": "Precompiled"
            }
        ]
    },
    "trace": {
        "accountLabels": null,
        "dataMap": {
            "-1": {
                "invocation": {
                    "address": "0xd9bd20efca7b0e6606b969548b1516c08d37374b",
                    "callData": "",
                    "decodedMethod": null,
                    "errorInfo": "",
                    "fromAddress": "",
                    "gasUsed": 0,
                    "id": -1,
                    "methodDecoded": false,
                    "operation": "",
                    "output": "",
                    "revert": false,
                    "revertMessage": "",
                    "selector": "",
                    "status": false,
                    "value": ""
                },
                "nodeType": 0
            },
            "0": {
                "invocation": {
                    "address": "0xaf30d2a7e90d7dc361c8c4585e9bb7d2f6f15bc7",
                    "callData": "0x000000000000000000000000577f67467de69250dd736fec8aa81b10bb506ccc0000000000000000000000000000000000000000000000007ce66c50e2840000",
                    "decodedMethod": {
                        "callParams": [
                            {
                                "name": "_to",
                                "type": "address",
                                "value": "0x577f67467de69250dd736fec8aa81b10bb506ccc"
                            },
                            {
                                "decimalAvailable": true,
                                "name": "_value",
                                "type": "uint256",
                                "value": "9,000,000,000,000,000,000"
                            }
                        ],
                        "constructorArguments": "",
                        "name": "transfer",
                        "returnParams": [
                            {
                                "name": "success",
                                "type": "bool",
                                "value": true
                            }
                        ],
                        "signature": "transfer(address,uint256)"
                    },
                    "errorInfo": "",
                    "fromAddress": "0xd9bd20efca7b0e6606b969548b1516c08d37374b",
                    "gasUsed": 37648,
                    "id": 0,
                    "methodDecoded": true,
                    "operation": "CALL",
                    "output": "0x0000000000000000000000000000000000000000000000000000000000000001",
                    "revert": false,
                    "revertMessage": "",
                    "selector": "0xa9059cbb",
                    "status": true,
                    "value": "0"
                },
                "nodeType": 0
            },
            "1": {
                "event": {
                    "contract": "0xaf30d2a7e90d7dc361c8c4585e9bb7d2f6f15bc7",
                    "decodedLog": {
                        "name": "Transfer",
                        "params": [
                            {
                                "name": "_from",
                                "type": "address",
                                "value": "0xd9bd20efca7b0e6606b969548b1516c08d37374b"
                            },
                            {
                                "name": "_to",
                                "type": "address",
                                "value": "0x577f67467de69250dd736fec8aa81b10bb506ccc"
                            },
                            {
                                "decimalAvailable": true,
                                "name": "_value",
                                "type": "uint256",
                                "value": "9,000,000,000,000,000,000"
                            }
                        ],
                        "signature": "Transfer(address,address,uint256)"
                    },
                    "id": 1,
                    "logData": "0x0000000000000000000000000000000000000000000000007ce66c50e2840000",
                    "logDecoded": true,
                    "operation": "EVENT",
                    "revert": false,
                    "status": true,
                    "topics": [
                        "0xddf252ad1be2c89b69c2b068fc378daa952ba7f163c4a11628f55a4df523b3ef",
                        "0x000000000000000000000000d9bd20efca7b0e6606b969548b1516c08d37374b",
                        "0x000000000000000000000000577f67467de69250dd736fec8aa81b10bb506ccc"
                    ]
                },
                "nodeType": 1
            }
        },
        "gasFlame": [
            {
                "children": [
                    {
                        "children": [
                            {
                                "children": [],
                                "depth": 0,
                                "name": "Initial Gas",
                                "value": 23192
                            },
                            {
                                "children": [],
                                "depth": 0,
                                "name": "Executed Gas",
                                "value": 14456
                            }
                        ],
                        "depth": -1,
                        "name": "Actual Gas Used",
                        "value": 37648
                    },
                    {
                        "children": [],
                        "depth": -1,
                        "name": "Refunded Gas",
                        "value": 0
                    }
                ],
                "depth": -2,
                "name": "Total Gas",
                "value": 37648
            }
        ],
        "isConfirmed": true,
        "mainTrace": [
            {
                "children": [
                    {
                        "children": [
                            {
                                "children": [],
                                "depth": 1,
                                "id": 1,
                                "order": 1
                            }
                        ],
                        "depth": 0,
                        "id": 0,
                        "order": 0
                    }
                ],
                "depth": -1,
                "id": -1,
                "order": -1
            }
        ],
        "mainTraceNodeCount": 2,
        "parentIdMap": {
            "0": -1,
            "1": 0
        },
        "tidyTrace": [
            {
                "children": [
                    {
                        "children": [
                            {
                                "children": [],
                                "depth": 1,
                                "id": 1,
                                "order": 1
                            }
                        ],
                        "depth": 0,
                        "id": 0,
                        "order": 0
                    }
                ],
                "depth": -1,
                "id": -1,
                "order": -1
            }
        ],
        "tidyTraceNodeCount": 2
    },
    "state_change": {
        "stateChanges": [
            {
                "address": "0xaf30d2a7e90d7dc361c8c4585e9bb7d2f6f15bc7",
                "erc": "ERC-20",
                "slots": [
                    {
                        "current": "0x000000000000000000000000000000000000000000002348a9642a137acaa387",
                        "key": "0x5f487f6dc36c4b39cd6e445bdf13b1536201bd6034f707a8732867bf4c7f4801",
                        "prev": "0x000000000000000000000000000000000000000000002349264a96645d4ea387"
                    },
                    {
                        "current": "0x000000000000000000000000000000000000000000000000b469471f80140000",
                        "key": "0x2911e5d1ece99410044f3a3053d5b6fc1c46031fa0136b9e281c36cea61f5e7c",
                        "prev": "0x0000000000000000000000000000000000000000000000003782dace9d900000"
                    }
                ],
                "storageVariables": []
            }
        ]
    }
}