{
    "balance_change": {
        "balanceChanges": []
    },
    "profile": {
        "basic_info": {
            "baseFee": "4.388206713",
            "blockNumber": 19898145,
            "callData": "0x42af92af0000000000000000000000000000000000000000000000000000000000000080000000000000000000000000000000000000000000000000000000000000028000000000000000000000000000000000000000000000000000000000000002e00000000000000000000000000000000000000000000000000000000000000360000000000000000000000000000000000000000000000000000000000000000f000000000000000000000000000000000000000000000000000000000000000100000000000000000000000000000000000000000000000001aa535d3d0c00000000000000000000000000000000000000000000001075fd296021459d8000000000000000000000000000000000000000000000000000000000000000000064000000000000000000000000000000000000000000000000000000000000000000000000000000000000000000000000000000000000000000000000000000010000000000000000000000000000000000000000000000000000000000000000000000000000000000000000000000000000000000000000000000000000000000000000000000000000000000000000000000000000000000000000000000000000000000000000000000000000000000000000000000000000000000000000000000000000000000000000000000000000000000000000000000000000000000000000000000000000000000000000000000000000000000000000000000010000000000000000000000000000000000000000000000000000000000000000000000000000000000000000000000000000000000000000000000000000000000000000000000000000000000000000000000000000000000000000000000000000000000000000000000000000000000000000000000000000000000000002000000000000000000000000c02aaa39b223fe8d0a0e5c4f27ead9083c756cc20000000000000000000000007c29ba2777087fd7422d6fd37abc3da028c363c400000000000000000000000000000000000000000000000000000000000000030000000000000000000000003302fea50e32cd53739671fa30f6c47cabf2cb030000000000000000000000002c9e1f82db560812d2878f7ec62eb95103a3800f0000000000000000000000000857787a73326f497ccadee624da1607ab6b306d00000000000000000000000000000000000000000000000000000000000000030000000000000000000000007a250d5630b4cf539739df2c5dacb4c659f2488d0000000000000000000000005c69bee701ef814a2b6a3edd4b1652cb9cc5aa6f0000000000000000000000005c69bee701ef814a2b6a3edd4b1652cb9cc5aa6f",
            "debugEnable": true,
            "errorInfo": "execution reverted",
            "eventCount": 0,
            "feeRecipient": "0x95222290dd7278aa3ddd389cc1e1d165cc4bafe5",
            "formatValue": "0.36",
            "gasLimit": 1115000,
            "gasPrice": "5.888206713",
            "gasUsed": 48670,
            "intTxnCount": 2,
            "internalRevert": true,
            "internalRevertMessage": "",
            "isContractCreation": false,
            "isFlashloan": false,
            "maxFee": "200",
            "nonce": 729,
            "overwritedBlockNumber": -1,
            "priorityFee": "1.5",
            "receiver": "0xe5bba2bde7d4192d4b986e9e87a39f0c0dadeb38",
            "revertMessage": "(UniswapV2Library: INSUFFICIENT_LIQUIDITY",
            "sender": "0x3302fea50e32cd53739671fa30f6c47cabf2cb03",
            "simulationEnable": true,
            "sourceTxnHash": "0xe5d71a95e13394836507c61aed52c70d73a9307c4ec85930ad87ce040022fa44",
            "status": false,
            "timestamp": "2024-05-18T16:53:35Z",
            "transactionFee": "0.00028657902072171",
            "txnHash": "0xe5d71a95e13394836507c61aed52c70d73a9307c4ec85930ad87ce040022fa44",
            "txnIndex": 71,
            "type": 2,
            "value": "360000000000000000"
        },
        "fund_flow": [],
        "token_infos": [
            {
                "address": "0xeeeeeeeeeeeeeeeeeeeeeeeeeeeeeeeeeeeeeeee",
                "decimals": 18
            },
            {
                "address": "0xc02aaa39b223fe8d0a0e5c4f27ead9083c756cc2",
                "decimals": 18
            }
        ]
    },
    "address_label": {
        "labels": [
            {
                "address": "0x7c29ba2777087fd7422d6fd37abc3da028c363c4",
                "label": "POGGERS"
            },
            {
                "address": "0x13080e0c4eab76c6bed463e78dd713721fa0c2ac",
                "label": "UniswapV2Pair"
            },
            {
                "address": "0x0000000000000000000000000000000000000002",
                "label": "Precompiled"
            },
            {
                "address": "0x0000000000000000000000000000000000000003",
                "label": "Precompiled"
            },
            {
                "address": "0x0000000000000000000000000000000000000004",
                "label": "Precompiled"
            },
            {
                "address": "0xeeeeeeeeeeeeeeeeeeeeeeeeeeeeeeeeeeeeeeee",
                "label": "Ether"
            },
            {
                "address": "0x7a250d5630b4cf539739df2c5dacb4c659f2488d",
                "label": "Uniswap V2: Router 2"
            },
            {
                "address": "0x0000000000000000000000000000000000000001",
                "label": "Precompiled"
            },
            {
                "address": "0xe5bba2bde7d4192d4b986e9e87a39f0c0dadeb38",
                "label": "MEV Bot: 0xe5b...b38"
            },
            {
                "address": "0xc02aaa39b223fe8d0a0e5c4f27ead9083c756cc2",
                "label": "Wrapped Ether (WETH)"
            }
        ]
    },
    "trace": {
        "accountLabels": null,
        "dataMap": {
            "-1": {
                "invocation": {
                    "address": "0x3302fea50e32cd53739671fa30f6c47cabf2cb03",
                    "callData": "",
                    "decodedMethod": null,
                    "errorInfo": "",
                    "fromAddress": "",
                    "gasUsed": 0,
                    "id": -1,
                    "methodDecoded": false,
                    "operation": "",
                    "output": "",
                    "revert": false,
                    "revertMessage": "",
                    "selector": "",
                    "status": false,
                    "value": ""
                },
                "nodeType": 0
            },
            "0": {
                "invocation": {
                    "address": "0xe5bba2bde7d4192d4b986e9e87a39f0c0dadeb38",
                    "callData": "0x0000000000000000000000000000000000000000000000000000000000000080000000000000000000000000000000000000000000000000000000000000028000000000000000000000000000000000000000000000000000000000000002e00000000000000000000000000000000000000000000000000000000000000360000000000000000000000000000000000000000000000000000000000000000f000000000000000000000000000000000000000000000000000000000000000100000000000000000000000000000000000000000000000001aa535d3d0c00000000000000000000000000000000000000000000001075fd296021459d8000000000000000000000000000000000000000000000000000000000000000000064000000000000000000000000000000000000000000000000000000000000000000000000000000000000000000000000000000000000000000000000000000010000000000000000000000000000000000000000000000000000000000000000000000000000000000000000000000000000000000000000000000000000000000000000000000000000000000000000000000000000000000000000000000000000000000000000000000000000000000000000000000000000000000000000000000000000000000000000000000000000000000000000000000000000000000000000000000000000000000000000000000000000000000000000000000010000000000000000000000000000000000000000000000000000000000000000000000000000000000000000000000000000000000000000000000000000000000000000000000000000000000000000000000000000000000000000000000000000000000000000000000000000000000000000000000000000000000000002000000000000000000000000c02aaa39b223fe8d0a0e5c4f27ead9083c756cc20000000000000000000000007c29ba2777087fd7422d6fd37abc3da028c363c400000000000000000000000000000000000000000000000000000000000000030000000000000000000000003302fea50e32cd53739671fa30f6c47cabf2cb030000000000000000000000002c9e1f82db560812d2878f7ec62eb95103a3800f0000000000000000000000000857787a73326f497ccadee624da1607ab6b306d00000000000000000000000000000000000000000000000000000000000000030000000000000000000000007a250d5630b4cf539739df2c5dacb4c659f2488d0000000000000000000000005c69bee701ef814a2b6a3edd4b1652cb9cc5aa6f0000000000000000000000005c69bee701ef814a2b6a3edd4b1652cb9cc5aa6f",
                    "decodedMethod": null,
                    "errorInfo": "execution reverted",
                    "fromAddress": "0x3302fea50e32cd53739671fa30f6c47cabf2cb03",
                    "gasUsed": 48670,
                    "id": 0,
                    "methodDecoded": false,
                    "operation": "CALL",
                    "output": "0x08c379a000000000000000000000000000000000000000000000000000000000000000200000000000000000000000000000000000000000000000000000000000000028556e697377617056324c6962726172793a20494e53554646494349454e545f4c4951554944495459000000000000000000000000000000000000000000000000",
                    "revert": true,
                    "revertMessage": "(UniswapV2Library: INSUFFICIENT_LIQUIDITY",
                    "selector": "0x42af92af",
                    "status": false,
                    "value": "0.36"
                },
                "nodeType": 0
            },
            "1": {
                "invocation": {
                    "address": "0x7a250d5630b4cf539739df2c5dacb4c659f2488d",
                    "callData": "0x00000000000000000000000000000000000000000000000001aa535d3d0c000000000000000000000000000000000000000000000000000000000000000000400000000000000000000000000000000000000000000000000000000000000002000000000000000000000000c02aaa39b223fe8d0a0e5c4f27ead9083c756cc20000000000000000000000007c29ba2777087fd7422d6fd37abc3da028c363c4",
                    "decodedMethod": {
                        "callParams": [
                            {
                                "name": "amountIn",
                                "type": "uint256",
                                "value": "120,000,000,000,000,000"
                            },
                            {
                                "name": "path",
                                "type": "address[]",
                                "value": [
                                    "0xc02aaa39b223fe8d0a0e5c4f27ead9083c756cc2",
                                    "0x7c29ba2777087fd7422d6fd37abc3da028c363c4"
                                ]
                            }
                        ],
                        "constructorArguments": "",
                        "name": "getAmountsOut",
                        "returnParams": [],
                        "signature": "getAmountsOut(uint256,address[])"
                    },
                    "errorInfo": "execution reverted",
                    "fromAddress": "0xe5bba2bde7d4192d4b986e9e87a39f0c0dadeb38",
                    "gasUsed": 7674,
                    "id": 1,
                    "methodDecoded": true,
                    "operation": "STATICCALL",
                    "output": "0x08c379a000000000000000000000000000000000000000000000000000000000000000200000000000000000000000000000000000000000000000000000000000000028556e697377617056324c6962726172793a20494e53554646494349454e545f4c4951554944495459000000000000000000000000000000000000000000000000",
                    "revert": true,
                    "revertMessage": "(UniswapV2Library: INSUFFICIENT_LIQUIDITY",
                    "selector": "0xd06ca61f",
                    "status": false,
                    "value": "0"
                },
                "nodeType": 0
            },
            "2": {
                "invocation": {
                    "address": "0x13080e0c4eab76c6bed463e78dd713721fa0c2ac",
                    "callData": "0x",
                    "decodedMethod": {
                        "callParams": [],
                        "constructorArguments": "",
                        "name": "getReserves",
                        "returnParams": [
                            {
                                "name": "_reserve0",
                                "type": "uint112",
                                "value": "0"
                            },
                            {
                                "name": "_reserve1",
                                "type": "uint112",
                                "value": "0"
                            },
                            {
                                "name": "_blockTimestampLast",
                                "type": "uint32",
                                "value": "0"
                            }
                        ],
                        "signature": "getReserves()"
                    },
                    "errorInfo": "",
                    "fromAddress": "0x7a250d5630b4cf539739df2c5dacb4c659f2488d",
                    "gasUsed": 2504,
                    "id": 2,
                    "methodDecoded": true,
                    "operation": "STATICCALL",
                    "output": "0x000000000000000000000000000000000000000000000000000000000000000000000000000000000000000000000000000000000000000000000000000000000000000000000000000000000000000000000000000000000000000000000000",
                    "revert": true,
                    "revertMessage": "",
                    "selector": "0x0902f1ac",
                    "status": true,
                    "value": "0"
                },
                "nodeType": 0
            }
        },
        "gasFlame": [
            {
                "children": [
                    {
                        "children": [
                            {
                                "children": [],
                                "depth": 0,
                                "name": "Initial Gas",
                                "value": 27312
                            },
                            {
                                "children": [
                                    {
                                        "children": [
                                            {
                                                "children": [],
                                                "depth": 2,
                                                "name": "getReserves",
                                                "value": 2504
                                            }
                                        ],
                                        "depth": 1,
                                        "name": "getAmountsOut",
                                        "value": 7674
                                    }
                                ],
                                "depth": 0,
                                "name": "Executed Gas",
                                "value": 21358
                            }
                        ],
                        "depth": -1,
                        "name": "Actual Gas Used",
                        "value": 48670
                    },
                    {
                        "children": [],
                        "depth": -1,
                        "name": "Refunded Gas",
                        "value": 0
                    }
                ],
                "depth": -2,
                "name": "Total Gas",
                "value": 48670
            }
        ],
        "isConfirmed": true,
        "mainTrace": [
            {
                "children": [
                    {
                        "children": [
                            {
                                "children": [
                                    {
                                        "children": [],
                                        "depth": 2,
                                        "id": 2,
                                        "order": 2
                                    }
                                ],
                                "depth": 1,
                                "id": 1,
                                "order": 1
                            }
                        ],
                        "depth": 0,
                        "id": 0,
                        "order": 0
                    }
                ],
                "depth": -1,
                "id": -1,
                "order": -1
            }
        ],
        "mainTraceNodeCount": 3,
        "parentIdMap": {
            "0": -1,
            "1": 0,
            "2": 1
        },
        "tidyTrace": [
            {
                "children": [
                    {
                        "children": [],
                        "depth": 0,
                        "id": 0,
                        "order": 0
                    }
                ],
                "depth": -1,
                "id": -1,
                "order": -1
            }
        ],
        "tidyTraceNodeCount": 1
    },
    "state_change": {
        "stateChanges": []
    }
}