{
    "balance_change": {
        "balanceChanges": [
            {
                "account": "0x2e32935bfd5b2718f99bc8fdf8b37c16811f7d97",
                "assets": [
                    {
                        "address": "0x62b9c7356a2dc64a1969e19c23e4f579f9810aa7",
                        "amount": "337.639454744636968981",
                        "iconUrl": "",
                        "isERC1155": false,
                        "isERC721": false,
                        "sign": false,
                        "value": "707.8386655"
                    }
                ]
            },
            {
                "account": "0x3fe65692bfcd0e6cf84cb1e7d24108e434a7587e",
                "assets": [
                    {
                        "address": "0x62b9c7356a2dc64a1969e19c23e4f579f9810aa7",
                        "amount": "337.639454744636968981",
                        "iconUrl": "",
                        "isERC1155": false,
                        "isERC721": false,
                        "sign": true,
                        "value": "707.8386655"
                    }
                ]
            }
        ]
    },
    "profile": {
        "basic_info": {
            "baseFee": "",
            "blockNumber": 12625747,
            "callData": "0xa694fc3a0000000000000000000000000000000000000000000000124db04f3322aa5015",
            "debugEnable": true,
            "errorInfo": "",
            "eventCount": 4,
            "feeRecipient": "0x04668ec2f57cc15c381b461b9fedab5d451c8f7f",
            "formatValue": "0",
            "gasLimit": 247536,
            "gasPrice": "6",
            "gasUsed": 150024,
            "intTxnCount": 7,
            "internalRevert": false,
            "internalRevertMessage": "",
            "isContractCreation": false,
            "isFlashloan": false,
            "maxFee": "",
            "nonce": 1413,
            "overwritedBlockNumber": -1,
            "priorityFee": "",
            "receiver": "0x3fe65692bfcd0e6cf84cb1e7d24108e434a7587e",
            "revertMessage": "",
            "sender": "0x2e32935bfd5b2718f99bc8fdf8b37c16811f7d97",
            "simulationEnable": true,
            "sourceTxnHash": "0xe55449161a4a590b5aff015a781ddc56a16eebf587284e321edce8898709d9b0",
            "status": true,
            "timestamp": "2021-06-13T11:02:13Z",
            "transactionFee": "0.000900144",
            "txnHash": "0xe55449161a4a590b5aff015a781ddc56a16eebf587284e321edce8898709d9b0",
            "txnIndex": 111,
            "type": 0,
            "value": "0"
        },
        "fund_flow": [
            {
                "amount": "337.639454744636968981",
                "from": "0x2e32935bfd5b2718f99bc8fdf8b37c16811f7d97",
                "id": 1,
                "isERC1155": false,
                "isERC721": false,
                "isReverted": false,
                "order": 1,
                "to": "0x3fe65692bfcd0e6cf84cb1e7d24108e434a7587e",
                "token": "0x62b9c7356a2dc64a1969e19c23e4f579f9810aa7"
            }
        ],
        "token_infos": [
            {
                "address": "0x62b9c7356a2dc64a1969e19c23e4f579f9810aa7",
                "decimals": 18
            },
            {
                "address": "0xc02aaa39b223fe8d0a0e5c4f27ead9083c756cc2",
                "decimals": 18
            },
            {
                "address": "0xeeeeeeeeeeeeeeeeeeeeeeeeeeeeeeeeeeeeeeee",
                "decimals": 18
            }
        ]
    },
    "address_label": {
        "labels": [
            {
                "address": "0x0000000000000000000000000000000000000003",
                "label": "Precompiled"
            },
            {
                "address": "0x0000000000000000000000000000000000000004",
                "label": "Precompiled"
            },
            {
                "address": "0xeeeeeeeeeeeeeeeeeeeeeeeeeeeeeeeeeeeeeeee",
                "label": "Ether"
            },
            {
                "address": "0x3fe65692bfcd0e6cf84cb1e7d24108e434a7587e",
                "label": "Convex Finance: cvxCRV Rewards"
            },
            {
                "address": "0x7091dbb7fcba54569ef1387ac89eb2a5c9f6d2ea",
                "label": "Convex Finance: Virtual Balance Reward Pool"
            },
            {
                "address": "0x62b9c7356a2dc64a1969e19c23e4f579f9810aa7",
                "label": "Convex Finance: cvxCRV Token"
            },
            {
                "address": "0x0000000000000000000000000000000000000001",
                "label": "Precompiled"
            },
            {
                "address": "0x0000000000000000000000000000000000000002",
                "label": "Precompiled"
            }
        ]
    },
    "trace": {
        "accountLabels": null,
        "dataMap": {
            "-1": {
                "invocation": {
                    "address": "0x2e32935bfd5b2718f99bc8fdf8b37c16811f7d97",
                    "callData": "",
                    "decodedMethod": null,
                    "errorInfo": "",
                    "fromAddress": "",
                    "gasUsed": 0,
                    "id": -1,
                    "methodDecoded": false,
                    "operation": "",
                    "output": "",
                    "revert": false,
                    "revertMessage": "",
                    "selector": "",
                    "status": false,
                    "value": ""
                },
                "nodeType": 0
            },
            "0": {
                "invocation": {
                    "address": "0x3fe65692bfcd0e6cf84cb1e7d24108e434a7587e",
                    "callData": "0x0000000000000000000000000000000000000000000000124db04f3322aa5015",
                    "decodedMethod": {
                        "callParams": [
                            {
                                "name": "_amount",
                                "type": "uint256",
                                "value": "337,639,454,744,636,968,981"
                            }
                        ],
                        "constructorArguments": "",
                        "name": "stake",
                        "returnParams": [
                            {
                                "name": "",
                                "type": "bool",
                                "value": true
                            }
                        ],
                        "signature": "stake(uint256)"
                    },
                    "errorInfo": "",
                    "fromAddress": "0x2e32935bfd5b2718f99bc8fdf8b37c16811f7d97",
                    "gasUsed": 150024,
                    "id": 0,
                    "methodDecoded": true,
                    "operation": "CALL",
                    "output": "0x0000000000000000000000000000000000000000000000000000000000000001",
                    "revert": false,
                    "revertMessage": "",
                    "selector": "0xa694fc3a",
                    "status": true,
                    "value": "0"
                },
                "nodeType": 0
            },
            "1": {
                "invocation": {
                    "address": "0x7091dbb7fcba54569ef1387ac89eb2a5c9f6d2ea",
                    "callData": "0x0000000000000000000000002e32935bfd5b2718f99bc8fdf8b37c16811f7d970000000000000000000000000000000000000000000000124db04f3322aa5015",
                    "decodedMethod": {
                        "callParams": [
                            {
                                "name": "_account",
                                "type": "address",
                                "value": "0x2e32935bfd5b2718f99bc8fdf8b37c16811f7d97"
                            },
                            {
                                "name": "amount",
                                "type": "uint256",
                                "value": "337,639,454,744,636,968,981"
                            }
                        ],
                        "constructorArguments": "",
                        "name": "stake",
                        "returnParams": [],
                        "signature": "stake(address,uint256)"
                    },
                    "errorInfo": "",
                    "fromAddress": "0x3fe65692bfcd0e6cf84cb1e7d24108e434a7587e",
                    "gasUsed": 52728,
                    "id": 1,
                    "methodDecoded": true,
                    "operation": "CALL",
                    "output": "",
                    "revert": false,
                    "revertMessage": "",
                    "selector": "0xadc9772e",
                    "status": true,
                    "value": "0"
                },
                "nodeType": 0
            },
            "10": {
                "event": {
                    "contract": "0x62b9c7356a2dc64a1969e19c23e4f579f9810aa7",
                    "decodedLog": {
                        "name": "Approval",
                        "params": [
                            {
                                "name": "owner",
                                "type": "address",
                                "value": "0x2e32935bfd5b2718f99bc8fdf8b37c16811f7d97"
                            },
                            {
                                "name": "spender",
                                "type": "address",
                                "value": "0x3fe65692bfcd0e6cf84cb1e7d24108e434a7587e"
                            },
                            {
                                "decimalAvailable": true,
                                "name": "value",
                                "type": "uint256",
                                "value": "115,792,089,237,316,195,423,570,985,008,687,907,853,269,984,665,640,564,034,276,253,940,009,163,970,006"
                            }
                        ],
                        "signature": "Approval(address,address,uint256)"
                    },
                    "id": 10,
                    "logData": "0xfffffffffffffffffffffffffffffffffffffffffffffee71e99cb1ac58a55d6",
                    "logDecoded": true,
                    "operation": "EVENT",
                    "revert": false,
                    "status": true,
                    "topics": [
                        "0x8c5be1e5ebec7d5bd14f71427d1e84f3dd0314c0f7b2291e5b200ac8c7c3b925",
                        "0x0000000000000000000000002e32935bfd5b2718f99bc8fdf8b37c16811f7d97",
                        "0x0000000000000000000000003fe65692bfcd0e6cf84cb1e7d24108e434a7587e"
                    ]
                },
                "nodeType": 1
            },
            "11": {
                "event": {
                    "contract": "0x3fe65692bfcd0e6cf84cb1e7d24108e434a7587e",
                    "decodedLog": {
                        "name": "Staked",
                        "params": [
                            {
                                "name": "user",
                                "type": "address",
                                "value": "0x2e32935bfd5b2718f99bc8fdf8b37c16811f7d97"
                            },
                            {
                                "name": "amount",
                                "type": "uint256",
                                "value": "337,639,454,744,636,968,981"
                            }
                        ],
                        "signature": "Staked(address,uint256)"
                    },
                    "id": 11,
                    "logData": "0x0000000000000000000000000000000000000000000000124db04f3322aa5015",
                    "logDecoded": true,
                    "operation": "EVENT",
                    "revert": false,
                    "status": true,
                    "topics": [
                        "0x9e71bc8eea02a63969f509818f2dafb9254532904319f9dbda79b67bd34a5f3d",
                        "0x0000000000000000000000002e32935bfd5b2718f99bc8fdf8b37c16811f7d97"
                    ]
                },
                "nodeType": 1
            },
            "2": {
                "invocation": {
                    "address": "0x3fe65692bfcd0e6cf84cb1e7d24108e434a7587e",
                    "callData": "0x",
                    "decodedMethod": {
                        "callParams": [],
                        "constructorArguments": "",
                        "name": "totalSupply",
                        "returnParams": [
                            {
                                "name": "",
                                "type": "uint256",
                                "value": "27,237,350,408,130,271,111,603,098"
                            }
                        ],
                        "signature": "totalSupply()"
                    },
                    "errorInfo": "",
                    "fromAddress": "0x7091dbb7fcba54569ef1387ac89eb2a5c9f6d2ea",
                    "gasUsed": 367,
                    "id": 2,
                    "methodDecoded": true,
                    "operation": "STATICCALL",
                    "output": "0x0000000000000000000000000000000000000000001687bbb9693f2fa788e39a",
                    "revert": false,
                    "revertMessage": "",
                    "selector": "0x18160ddd",
                    "status": true,
                    "value": "0"
                },
                "nodeType": 0
            },
            "3": {
                "invocation": {
                    "address": "0x3fe65692bfcd0e6cf84cb1e7d24108e434a7587e",
                    "callData": "0x",
                    "decodedMethod": {
                        "callParams": [],
                        "constructorArguments": "",
                        "name": "totalSupply",
                        "returnParams": [
                            {
                                "name": "",
                                "type": "uint256",
                                "value": "27,237,350,408,130,271,111,603,098"
                            }
                        ],
                        "signature": "totalSupply()"
                    },
                    "errorInfo": "",
                    "fromAddress": "0x7091dbb7fcba54569ef1387ac89eb2a5c9f6d2ea",
                    "gasUsed": 367,
                    "id": 3,
                    "methodDecoded": true,
                    "operation": "STATICCALL",
                    "output": "0x0000000000000000000000000000000000000000001687bbb9693f2fa788e39a",
                    "revert": false,
                    "revertMessage": "",
                    "selector": "0x18160ddd",
                    "status": true,
                    "value": "0"
                },
                "nodeType": 0
            },
            "4": {
                "invocation": {
                    "address": "0x3fe65692bfcd0e6cf84cb1e7d24108e434a7587e",
                    "callData": "0x",
                    "decodedMethod": {
                        "callParams": [],
                        "constructorArguments": "",
                        "name": "totalSupply",
                        "returnParams": [
                            {
                                "name": "",
                                "type": "uint256",
                                "value": "27,237,350,408,130,271,111,603,098"
                            }
                        ],
                        "signature": "totalSupply()"
                    },
                    "errorInfo": "",
                    "fromAddress": "0x7091dbb7fcba54569ef1387ac89eb2a5c9f6d2ea",
                    "gasUsed": 367,
                    "id": 4,
                    "methodDecoded": true,
                    "operation": "STATICCALL",
                    "output": "0x0000000000000000000000000000000000000000001687bbb9693f2fa788e39a",
                    "revert": false,
                    "revertMessage": "",
                    "selector": "0x18160ddd",
                    "status": true,
                    "value": "0"
                },
                "nodeType": 0
            },
            "5": {
                "invocation": {
                    "address": "0x3fe65692bfcd0e6cf84cb1e7d24108e434a7587e",
                    "callData": "0x",
                    "decodedMethod": {
                        "callParams": [],
                        "constructorArguments": "",
                        "name": "totalSupply",
                        "returnParams": [
                            {
                                "name": "",
                                "type": "uint256",
                                "value": "27,237,350,408,130,271,111,603,098"
                            }
                        ],
                        "signature": "totalSupply()"
                    },
                    "errorInfo": "",
                    "fromAddress": "0x7091dbb7fcba54569ef1387ac89eb2a5c9f6d2ea",
                    "gasUsed": 367,
                    "id": 5,
                    "methodDecoded": true,
                    "operation": "STATICCALL",
                    "output": "0x0000000000000000000000000000000000000000001687bbb9693f2fa788e39a",
                    "revert": false,
                    "revertMessage": "",
                    "selector": "0x18160ddd",
                    "status": true,
                    "value": "0"
                },
                "nodeType": 0
            },
            "6": {
                "invocation": {
                    "address": "0x3fe65692bfcd0e6cf84cb1e7d24108e434a7587e",
                    "callData": "0x0000000000000000000000002e32935bfd5b2718f99bc8fdf8b37c16811f7d97",
                    "decodedMethod": {
                        "callParams": [
                            {
                                "name": "account",
                                "type": "address",
                                "value": "0x2e32935bfd5b2718f99bc8fdf8b37c16811f7d97"
                            }
                        ],
                        "constructorArguments": "",
                        "name": "balanceOf",
                        "returnParams": [
                            {
                                "decimalAvailable": true,
                                "name": "",
                                "type": "uint256",
                                "value": "4,707,920,368,725,531,594,020"
                            }
                        ],
                        "signature": "balanceOf(address)"
                    },
                    "errorInfo": "",
                    "fromAddress": "0x7091dbb7fcba54569ef1387ac89eb2a5c9f6d2ea",
                    "gasUsed": 510,
                    "id": 6,
                    "methodDecoded": true,
                    "operation": "STATICCALL",
                    "output": "0x0000000000000000000000000000000000000000000000ff378517b9875c8d24",
                    "revert": false,
                    "revertMessage": "",
                    "selector": "0x70a08231",
                    "status": true,
                    "value": "0"
                },
                "nodeType": 0
            },
            "7": {
                "event": {
                    "contract": "0x7091dbb7fcba54569ef1387ac89eb2a5c9f6d2ea",
                    "decodedLog": {
                        "name": "Staked",
                        "params": [
                            {
                                "name": "user",
                                "type": "address",
                                "value": "0x2e32935bfd5b2718f99bc8fdf8b37c16811f7d97"
                            },
                            {
                                "name": "amount",
                                "type": "uint256",
                                "value": "337,639,454,744,636,968,981"
                            }
                        ],
                        "signature": "Staked(address,uint256)"
                    },
                    "id": 7,
                    "logData": "0x0000000000000000000000000000000000000000000000124db04f3322aa5015",
                    "logDecoded": true,
                    "operation": "EVENT",
                    "revert": false,
                    "status": true,
                    "topics": [
                        "0x9e71bc8eea02a63969f509818f2dafb9254532904319f9dbda79b67bd34a5f3d",
                        "0x0000000000000000000000002e32935bfd5b2718f99bc8fdf8b37c16811f7d97"
                    ]
                },
                "nodeType": 1
            },
            "8": {
                "invocation": {
                    "address": "0x62b9c7356a2dc64a1969e19c23e4f579f9810aa7",
                    "callData": "0x0000000000000000000000002e32935bfd5b2718f99bc8fdf8b37c16811f7d970000000000000000000000003fe65692bfcd0e6cf84cb1e7d24108e434a7587e0000000000000000000000000000000000000000000000124db04f3322aa5015",
                    "decodedMethod": {
                        "callParams": [
                            {
                                "name": "sender",
                                "type": "address",
                                "value": "0x2e32935bfd5b2718f99bc8fdf8b37c16811f7d97"
                            },
                            {
                                "name": "recipient",
                                "type": "address",
                                "value": "0x3fe65692bfcd0e6cf84cb1e7d24108e434a7587e"
                            },
                            {
                                "decimalAvailable": true,
                                "name": "amount",
                                "type": "uint256",
                                "value": "337,639,454,744,636,968,981"
                            }
                        ],
                        "constructorArguments": "",
                        "name": "transferFrom",
                        "returnParams": [
                            {
                                "name": "",
                                "type": "bool",
                                "value": true
                            }
                        ],
                        "signature": "transferFrom(address,address,uint256)"
                    },
                    "errorInfo": "",
                    "fromAddress": "0x3fe65692bfcd0e6cf84cb1e7d24108e434a7587e",
                    "gasUsed": 20391,
                    "id": 8,
                    "methodDecoded": true,
                    "operation": "CALL",
                    "output": "0x0000000000000000000000000000000000000000000000000000000000000001",
                    "revert": false,
                    "revertMessage": "",
                    "selector": "0x23b872dd",
                    "status": true,
                    "value": "0"
                },
                "nodeType": 0
            },
            "9": {
                "event": {
                    "contract": "0x62b9c7356a2dc64a1969e19c23e4f579f9810aa7",
                    "decodedLog": {
                        "name": "Transfer",
                        "params": [
                            {
                                "name": "from",
                                "type": "address",
                                "value": "0x2e32935bfd5b2718f99bc8fdf8b37c16811f7d97"
                            },
                            {
                                "name": "to",
                                "type": "address",
                                "value": "0x3fe65692bfcd0e6cf84cb1e7d24108e434a7587e"
                            },
                            {
                                "decimalAvailable": true,
                                "name": "value",
                                "type": "uint256",
                                "value": "337,639,454,744,636,968,981"
                            }
                        ],
                        "signature": "Transfer(address,address,uint256)"
                    },
                    "id": 9,
                    "logData": "0x0000000000000000000000000000000000000000000000124db04f3322aa5015",
                    "logDecoded": true,
                    "operation": "EVENT",
                    "revert": false,
                    "status": true,
                    "topics": [
                        "0xddf252ad1be2c89b69c2b068fc378daa952ba7f163c4a11628f55a4df523b3ef",
                        "0x0000000000000000000000002e32935bfd5b2718f99bc8fdf8b37c16811f7d97",
                        "0x0000000000000000000000003fe65692bfcd0e6cf84cb1e7d24108e434a7587e"
                    ]
                },
                "nodeType": 1
            }
        },
        "gasFlame": [
            {
                "children": [
                    {
                        "children": [
                            {
                                "children": [],
                                "depth": 0,
                                "name": "Initial Gas",
                                "value": 21300
                            },
                            {
                                "children": [
                                    {
                                        "children": [
                                            {
                                                "children": [],
                                                "depth": 2,
                                                "name": "totalSupply",
                                                "value": 367
                                            },
                                            {
                                                "children": [],
                                                "depth": 2,
                                                "name": "totalSupply",
                                                "value": 367
                                            },
                                            {
                                                "children": [],
                                                "depth": 2,
                                                "name": "totalSupply",
                                                "value": 367
                                            },
                                            {
                                                "children": [],
                                                "depth": 2,
                                                "name": "totalSupply",
                                                "value": 367
                                            },
                                            {
                                                "children": [],
                                                "depth": 2,
                                                "name": "balanceOf",
                                                "value": 510
                                            }
                                        ],
                                        "depth": 1,
                                        "name": "stake",
                                        "value": 52728
                                    },
                                    {
                                        "children": [],
                                        "depth": 1,
                                        "name": "transferFrom",
                                        "value": 20391
                                    }
                                ],
                                "depth": 0,
                                "name": "Executed Gas",
                                "value": 143724
                            }
                        ],
                        "depth": -1,
                        "name": "Actual Gas Used",
                        "value": 150024
                    },
                    {
                        "children": [],
                        "depth": -1,
                        "name": "Refunded Gas",
                        "value": 15000
                    }
                ],
                "depth": -2,
                "name": "Total Gas",
                "value": 165024
            }
        ],
        "isConfirmed": true,
        "mainTrace": [
            {
                "children": [
                    {
                        "children": [
                            {
                                "children": [
                                    {
                                        "children": [],
                                        "depth": 2,
                                        "id": 2,
                                        "order": 2
                                    },
                                    {
                                        "children": [],
                                        "depth": 2,
                                        "id": 3,
                                        "order": 3
                                    },
                                    {
                                        "children": [],
                                        "depth": 2,
                                        "id": 4,
                                        "order": 4
                                    },
                                    {
                                        "children": [],
                                        "depth": 2,
                                        "id": 5,
                                        "order": 5
                                    },
                                    {
                                        "children": [],
                                        "depth": 2,
                                        "id": 6,
                                        "order": 6
                                    },
                                    {
                                        "children": [],
                                        "depth": 2,
                                        "id": 7,
                                        "order": 7
                                    }
                                ],
                                "depth": 1,
                                "id": 1,
                                "order": 1
                            },
                            {
                                "children": [
                                    {
                                        "children": [],
                                        "depth": 2,
                                        "id": 9,
                                        "order": 9
                                    },
                                    {
                                        "children": [],
                                        "depth": 2,
                                        "id": 10,
                                        "order": 10
                                    }
                                ],
                                "depth": 1,
                                "id": 8,
                                "order": 8
                            },
                            {
                                "children": [],
                                "depth": 1,
                                "id": 11,
                                "order": 11
                            }
                        ],
                        "depth": 0,
                        "id": 0,
                        "order": 0
                    }
                ],
                "depth": -1,
                "id": -1,
                "order": -1
            }
        ],
        "mainTraceNodeCount": 12,
        "parentIdMap": {
            "0": -1,
            "1": 0,
            "10": 8,
            "11": 0,
            "2": 1,
            "3": 1,
            "4": 1,
            "5": 1,
            "6": 1,
            "7": 1,
            "8": 0,
            "9": 8
        },
        "tidyTrace": [
            {
                "children": [
                    {
                        "children": [
                            {
                                "children": [
                                    {
                                        "children": [],
                                        "depth": 2,
                                        "id": 7,
                                        "order": 7
                                    }
                                ],
                                "depth": 1,
                                "id": 1,
                                "order": 1
                            },
                            {
                                "children": [
                                    {
                                        "children": [],
                                        "depth": 2,
                                        "id": 9,
                                        "order": 9
                                    },
                                    {
                                        "children": [],
                                        "depth": 2,
                                        "id": 10,
                                        "order": 10
                                    }
                                ],
                                "depth": 1,
                                "id": 8,
                                "order": 8
                            },
                            {
                                "children": [],
                                "depth": 1,
                                "id": 11,
                                "order": 11
                            }
                        ],
                        "depth": 0,
                        "id": 0,
                        "order": 0
                    }
                ],
                "depth": -1,
                "id": -1,
                "order": -1
            }
        ],
        "tidyTraceNodeCount": 7
    },
    "state_change": {
        "stateChanges": [
            {
                "address": "0x3fe65692bfcd0e6cf84cb1e7d24108e434a7587e",
                "erc": "",
                "slots": [
                    {
                        "current": "0x0000000000000000000000000000000000000000001687ce07198e62ca3333af",
                        "key": "0x000000000000000000000000000000000000000000000000000000000000000c",
                        "prev": "0x0000000000000000000000000000000000000000001687bbb9693f2fa788e39a"
                    },
                    {
                        "current": "0x000000000000000000000000000000000000000000000111853566ecaa06dd39",
                        "key": "0xc0e52750c537f7b1817841da67de7b97f4353f35c66687c8ca619eab9d9e608b",
                        "prev": "0x0000000000000000000000000000000000000000000000ff378517b9875c8d24"
                    },
                    {
                        "current": "0x000000000000000000000000000000000000000000000000006c6c1f5d60f4ed",
                        "key": "0x0000000000000000000000000000000000000000000000000000000000000008",
                        "prev": "0x000000000000000000000000000000000000000000000000006c6be9cf9d170b"
                    },
                    {
                        "current": "0x0000000000000000000000000000000000000000000000000000000060c5e5b5",
                        "key": "0x0000000000000000000000000000000000000000000000000000000000000007",
                        "prev": "0x0000000000000000000000000000000000000000000000000000000060c5e5a5"
                    },
                    {
                        "current": "0x000000000000000000000000000000000000000000000000004b0517e67e2990",
                        "key": "0x2297b5bdeb84e77102a26a57065bd817eb6ba80f6d3a2785ee428ecab8ca287f",
                        "prev": "0x0000000000000000000000000000000000000000000000000000000000000000"
                    },
                    {
                        "current": "0x000000000000000000000000000000000000000000000000006c6c1f5d60f4ed",
                        "key": "0x1970879147be6eb79856d11277aee7f0e05098474e67938c26beb8dbb1d49675",
                        "prev": "0x000000000000000000000000000000000000000000000000006c680b0f58bb18"
                    }
                ],
                "storageVariables": [
                    {
                        "name": "_totalSupply",
                        "type": "uint256",
                        "value": {
                            "current": "27237688047585015748572079",
                            "prev": "27237350408130271111603098",
                            "typeTag": 1
                        }
                    },
                    {
                        "name": "_balances",
                        "type": "mapping(address => uint256)",
                        "value": {
                            "pairs": [
                                {
                                    "key": "0x2e32935bfd5b2718f99bc8fdf8b37c16811f7d97",
                                    "value": {
                                        "current": "5045559823470168563001",
                                        "prev": "4707920368725531594020",
                                        "typeTag": 1
                                    }
                                }
                            ],
                            "typeTag": 4
                        }
                    },
                    {
                        "name": "rewardPerTokenStored",
                        "type": "uint256",
                        "value": {
                            "current": "30518179451172077",
                            "prev": "30517949439481611",
                            "typeTag": 1
                        }
                    },
                    {
                        "name": "lastUpdateTime",
                        "type": "uint256",
                        "value": {
                            "current": "1623582133",
                            "prev": "1623582117",
                            "typeTag": 1
                        }
                    },
                    {
                        "name": "rewards",
                        "type": "mapping(address => uint256)",
                        "value": {
                            "pairs": [
                                {
                                    "key": "0x2e32935bfd5b2718f99bc8fdf8b37c16811f7d97",
                                    "value": {
                                        "current": "21116223462713744",
                                        "prev": "0",
                                        "typeTag": 1
                                    }
                                }
                            ],
                            "typeTag": 4
                        }
                    },
                    {
                        "name": "userRewardPerTokenPaid",
                        "type": "mapping(address => uint256)",
                        "value": {
                            "pairs": [
                                {
                                    "key": "0x2e32935bfd5b2718f99bc8fdf8b37c16811f7d97",
                                    "value": {
                                        "current": "30518179451172077",
                                        "prev": "30513694196153112",
                                        "typeTag": 1
                                    }
                                }
                            ],
                            "typeTag": 4
                        }
                    }
                ]
            },
            {
                "address": "0x62b9c7356a2dc64a1969e19c23e4f579f9810aa7",
                "erc": "ERC-20",
                "slots": [
                    {
                        "current": "0x0000000000000000000000000000000000000000000000000000000000000000",
                        "key": "0xc1edadd21fc8ad71aeb55c55bec88074e19ced0f373e0ca8a396e08e86720798",
                        "prev": "0x0000000000000000000000000000000000000000000000124db04f3322aa5015"
                    },
                    {
                        "current": "0x0000000000000000000000000000000000000000001687ce07198e62ca3333af",
                        "key": "0x86e22a6ea067f56e6f9680a667717d996ff369535d187860f65a50e4ea086354",
                        "prev": "0x0000000000000000000000000000000000000000001687bbb9693f2fa788e39a"
                    },
                    {
                        "current": "0xfffffffffffffffffffffffffffffffffffffffffffffee71e99cb1ac58a55d6",
                        "key": "0x7cb90fddbd13e022b3f5343cbb77271cba26d813398c889901550628eb8afe27",
                        "prev": "0xfffffffffffffffffffffffffffffffffffffffffffffef96c4a1a4de834a5eb"
                    }
                ],
                "storageVariables": [
                    {
                        "name": "_allowances",
                        "type": "mapping(address => mapping(address => uint256))",
                        "value": {
                            "pairs": [
                                {
                                    "key": "0x2e32935bfd5b2718f99bc8fdf8b37c16811f7d97",
                                    "value": {
                                        "pairs": [
                                            {
                                                "key": "0x3fe65692bfcd0e6cf84cb1e7d24108e434a7587e",
                                                "value": {
                                                    "current": "115792089237316195423570985008687907853269984665640564034276253940009163970006",
                                                    "prev": "115792089237316195423570985008687907853269984665640564034613893394753800938987",
                                                    "typeTag": 1
                                                }
                                            }
                                        ],
                                        "typeTag": 4
                                    }
                                }
                            ],
                            "typeTag": 4
                        }
                    },
                    {
                        "name": "_balances",
                        "type": "mapping(address => uint256)",
                        "value": {
                            "pairs": [
                                {
                                    "key": "0x2e32935bfd5b2718f99bc8fdf8b37c16811f7d97",
                                    "value": {
                                        "current": "0",
                                        "prev": "337639454744636968981",
                                        "typeTag": 1
                                    }
                                },
                                {
                                    "key": "0x3fe65692bfcd0e6cf84cb1e7d24108e434a7587e",
                                    "value": {
                                        "current": "27237688047585015748572079",
                                        "prev": "27237350408130271111603098",
                                        "typeTag": 1
                                    }
                                }
                            ],
                            "typeTag": 4
                        }
                    }
                ]
            },
            {
                "address": "0x7091dbb7fcba54569ef1387ac89eb2a5c9f6d2ea",
                "erc": "",
                "slots": [
                    {
                        "current": "0x000000000000000000000000000000000000000000000000002fe4154e735508",
                        "key": "0x0000000000000000000000000000000000000000000000000000000000000006",
                        "prev": "0x000000000000000000000000000000000000000000000000002fe3f86a2ecb32"
                    },
                    {
                        "current": "0x0000000000000000000000000000000000000000000000000000000060c5e5b5",
                        "key": "0x0000000000000000000000000000000000000000000000000000000000000005",
                        "prev": "0x0000000000000000000000000000000000000000000000000000000060c5e5a5"
                    },
                    {
                        "current": "0x000000000000000000000000000000000000000000000000002878efddd8865d",
                        "key": "0x3268e8a85203cc23da011a06dc194659cf81b3e6274cc524aa14a095a7ad15a3",
                        "prev": "0x0000000000000000000000000000000000000000000000000000000000000000"
                    },
                    {
                        "current": "0x000000000000000000000000000000000000000000000000002fe4154e735508",
                        "key": "0x9b9495d5dbe7d559d4ba6f3246c59bcb8c12f868dfd01d5111dcfae8f10d5a39",
                        "prev": "0x000000000000000000000000000000000000000000000000002fe1e1ea5c1e5a"
                    }
                ],
                "storageVariables": [
                    {
                        "name": "lastUpdateTime",
                        "type": "uint256",
                        "value": {
                            "current": "1623582133",
                            "prev": "1623582117",
                            "typeTag": 1
                        }
                    },
                    {
                        "name": "rewards",
                        "type": "mapping(address => uint256)",
                        "value": {
                            "pairs": [
                                {
                                    "key": "0x2e32935bfd5b2718f99bc8fdf8b37c16811f7d97",
                                    "value": {
                                        "current": "11391970682898013",
                                        "prev": "0",
                                        "typeTag": 1
                                    }
                                }
                            ],
                            "typeTag": 4
                        }
                    },
                    {
                        "name": "userRewardPerTokenPaid",
                        "type": "mapping(address => uint256)",
                        "value": {
                            "pairs": [
                                {
                                    "key": "0x2e32935bfd5b2718f99bc8fdf8b37c16811f7d97",
                                    "value": {
                                        "current": "13480104067028232",
                                        "prev": "13477684321197658",
                                        "typeTag": 1
                                    }
                                }
                            ],
                            "typeTag": 4
                        }
                    },
                    {
                        "name": "rewardPerTokenStored",
                        "type": "uint256",
                        "value": {
                            "current": "13480104067028232",
                            "prev": "13479979978246962",
                            "typeTag": 1
                        }
                    }
                ]
            }
        ]
    }
}