{
    "balance_change": {
        "balanceChanges": [
            {
                "account": "0x89214c8ca9a49e60a3bfa8e00544f384c93719b1",
                "assets": [
                    {
                        "address": "0x0f5d2fb29fb7d3cfee444a200298f468908cc942",
                        "amount": "200,000",
                        "iconUrl": "https://assets.blocksec.com/icon/54d64db7c4b21ad51c32e15fe06a87bf31831382d6c6aa49b4adb5dfaa42993c.png",
                        "isERC1155": false,
                        "isERC721": false,
                        "sign": false,
                        "value": "123900.000000000010125"
                    }
                ]
            },
            {
                "account": "0xdab8c0126102db3b5d678475e7f5ff6fbd390a54",
                "assets": [
                    {
                        "address": "0x0f5d2fb29fb7d3cfee444a200298f468908cc942",
                        "amount": "200,000",
                        "iconUrl": "https://assets.blocksec.com/icon/54d64db7c4b21ad51c32e15fe06a87bf31831382d6c6aa49b4adb5dfaa42993c.png",
                        "isERC1155": false,
                        "isERC721": false,
                        "sign": true,
                        "value": "123900.000000000010125"
                    }
                ]
            }
        ]
    },
    "profile": {
        "basic_info": {
            "baseFee": "18.503406959",
            "blockNumber": 16878101,
            "callData": "0x6a7612020000000000000000000000000f5d2fb29fb7d3cfee444a200298f468908cc94200000000000000000000000000000000000000000000000000000000000000000000000000000000000000000000000000000000000000000000000000000140000000000000000000000000000000000000000000000000000000000000000000000000000000000000000000000000000000000000000000000000000117e8000000000000000000000000000000000000000000000000000000000000000000000000000000000000000000000000000000000000000000000000000000000000000000000000000000000000000000000000000000000000000000000000000000000000000000000000000000000000000000000000000000000000000000000000000000000000000000000000000000000000000000000000000001c00000000000000000000000000000000000000000000000000000000000000044a9059cbb000000000000000000000000dab8c0126102db3b5d678475e7f5ff6fbd390a54000000000000000000000000000000000000000000002a5a058fc295ed000000000000000000000000000000000000000000000000000000000000000000000000000000000000000000000000000000000000000000000000000082000000000000000000000000bef99f5f55cf7cdb3a70998c57061b7e1386a9b0000000000000000000000000000000000000000000000000000000000000000001759ffbe4c1f42d657c4e53a25f9f80e5703a0c707d606cbbf918c9dd8498c31f4fc22a415c2784706abe8f073743c95cc6f595406a37e7567126ef641e9bf1ad1b000000000000000000000000000000000000000000000000000000000000",
            "debugEnable": true,
            "errorInfo": "",
            "eventCount": 2,
            "feeRecipient": "0xdafea492d9c6733ae3d56b7ed1adb60692c98bc5",
            "formatValue": "0",
            "gasLimit": 124116,
            "gasPrice": "20.003406959",
            "gasUsed": 88375,
            "intTxnCount": 3,
            "internalRevert": false,
            "internalRevertMessage": "",
            "isContractCreation": false,
            "isFlashloan": false,
            "maxFee": "23",
            "nonce": 121,
            "overwritedBlockNumber": -1,
            "priorityFee": "1.5",
            "receiver": "0x89214c8ca9a49e60a3bfa8e00544f384c93719b1",
            "revertMessage": "",
            "sender": "0xbef99f5f55cf7cdb3a70998c57061b7e1386a9b0",
            "simulationEnable": true,
            "sourceTxnHash": "0xe57708753ab76929b86388019685000c8e9b7a2fcf820f593b7b79480ecdd94a",
            "status": true,
            "timestamp": "2023-03-21T19:31:59Z",
            "transactionFee": "0.001767801090001625",
            "txnHash": "0xe57708753ab76929b86388019685000c8e9b7a2fcf820f593b7b79480ecdd94a",
            "txnIndex": 34,
            "type": 2,
            "value": "0"
        },
        "fund_flow": [
            {
                "amount": "200,000",
                "from": "0x89214c8ca9a49e60a3bfa8e00544f384c93719b1",
                "id": 1,
                "isERC1155": false,
                "isERC721": false,
                "isReverted": false,
                "order": 1,
                "to": "0xdab8c0126102db3b5d678475e7f5ff6fbd390a54",
                "token": "0x0f5d2fb29fb7d3cfee444a200298f468908cc942"
            }
        ],
        "token_infos": [
            {
                "address": "0x0f5d2fb29fb7d3cfee444a200298f468908cc942",
                "decimals": 18
            },
            {
                "address": "0xc02aaa39b223fe8d0a0e5c4f27ead9083c756cc2",
                "decimals": 18
            },
            {
                "address": "0xeeeeeeeeeeeeeeeeeeeeeeeeeeeeeeeeeeeeeeee",
                "decimals": 18
            }
        ]
    },
    "address_label": {
        "labels": [
            {
                "address": "0x0000000000000000000000000000000000000004",
                "label": "Precompiled"
            },
            {
                "address": "0x0000000000000000000000000000000000000000",
                "label": "Null Address"
            },
            {
                "address": "0x0000000000000000000000000000000000000002",
                "label": "Precompiled"
            },
            {
                "address": "0xdab8c0126102db3b5d678475e7f5ff6fbd390a54",
                "label": "SmartVault"
            },
            {
                "address": "0x34cfac646f301356faa8b21e94227e3583fe3f5f",
                "label": "Safe: Mastercopy 1.1.1"
            },
            {
                "address": "0x89214c8ca9a49e60a3bfa8e00544f384c93719b1",
                "label": "Decentraland: DAO Community"
            },
            {
                "address": "0x0000000000000000000000000000000000000001",
                "label": "Precompiled"
            },
            {
                "address": "0x0000000000000000000000000000000000000003",
                "label": "Precompiled"
            },
            {
                "address": "0xeeeeeeeeeeeeeeeeeeeeeeeeeeeeeeeeeeeeeeee",
                "label": "Ether"
            },
            {
                "address": "0x0f5d2fb29fb7d3cfee444a200298f468908cc942",
                "label": "Decentraland: MANA Token"
            }
        ]
    },
    "trace": {
        "accountLabels": null,
        "dataMap": {
            "-1": {
                "invocation": {
                    "address": "0xbef99f5f55cf7cdb3a70998c57061b7e1386a9b0",
                    "callData": "",
                    "decodedMethod": null,
                    "errorInfo": "",
                    "fromAddress": "",
                    "gasUsed": 0,
                    "id": -1,
                    "methodDecoded": false,
                    "operation": "",
                    "output": "",
                    "revert": false,
                    "revertMessage": "",
                    "selector": "",
                    "status": false,
                    "value": ""
                },
                "nodeType": 0
            },
            "0": {
                "invocation": {
                    "address": "0x89214c8ca9a49e60a3bfa8e00544f384c93719b1",
                    "callData": "0x0000000000000000000000000f5d2fb29fb7d3cfee444a200298f468908cc94200000000000000000000000000000000000000000000000000000000000000000000000000000000000000000000000000000000000000000000000000000140000000000000000000000000000000000000000000000000000000000000000000000000000000000000000000000000000000000000000000000000000117e8000000000000000000000000000000000000000000000000000000000000000000000000000000000000000000000000000000000000000000000000000000000000000000000000000000000000000000000000000000000000000000000000000000000000000000000000000000000000000000000000000000000000000000000000000000000000000000000000000000000000000000000000000001c00000000000000000000000000000000000000000000000000000000000000044a9059cbb000000000000000000000000dab8c0126102db3b5d678475e7f5ff6fbd390a54000000000000000000000000000000000000000000002a5a058fc295ed000000000000000000000000000000000000000000000000000000000000000000000000000000000000000000000000000000000000000000000000000082000000000000000000000000bef99f5f55cf7cdb3a70998c57061b7e1386a9b0000000000000000000000000000000000000000000000000000000000000000001759ffbe4c1f42d657c4e53a25f9f80e5703a0c707d606cbbf918c9dd8498c31f4fc22a415c2784706abe8f073743c95cc6f595406a37e7567126ef641e9bf1ad1b000000000000000000000000000000000000000000000000000000000000",
                    "decodedMethod": {
                        "callParams": [
                            {
                                "name": "to",
                                "type": "address",
                                "value": "0x0f5d2fb29fb7d3cfee444a200298f468908cc942"
                            },
                            {
                                "name": "value",
                                "type": "uint256",
                                "value": "0"
                            },
                            {
                                "name": "data",
                                "type": "bytes",
                                "value": "0xa9059cbb000000000000000000000000dab8c0126102db3b5d678475e7f5ff6fbd390a54000000000000000000000000000000000000000000002a5a058fc295ed000000"
                            },
                            {
                                "name": "operation",
                                "type": "uint8",
                                "value": "0"
                            },
                            {
                                "name": "safeTxGas",
                                "type": "uint256",
                                "value": "71,656"
                            },
                            {
                                "name": "baseGas",
                                "type": "uint256",
                                "value": "0"
                            },
                            {
                                "name": "gasPrice",
                                "type": "uint256",
                                "value": "0"
                            },
                            {
                                "name": "gasToken",
                                "type": "address",
                                "value": "0x0000000000000000000000000000000000000000"
                            },
                            {
                                "name": "refundReceiver",
                                "type": "address",
                                "value": "0x0000000000000000000000000000000000000000"
                            },
                            {
                                "name": "signatures",
                                "type": "bytes",
                                "value": "0x000000000000000000000000bef99f5f55cf7cdb3a70998c57061b7e1386a9b0000000000000000000000000000000000000000000000000000000000000000001759ffbe4c1f42d657c4e53a25f9f80e5703a0c707d606cbbf918c9dd8498c31f4fc22a415c2784706abe8f073743c95cc6f595406a37e7567126ef641e9bf1ad1b"
                            }
                        ],
                        "constructorArguments": "",
                        "name": "execTransaction",
                        "returnParams": [
                            {
                                "name": "success",
                                "type": "bool",
                                "value": true
                            }
                        ],
                        "signature": "execTransaction(address,uint256,bytes,uint8,uint256,uint256,uint256,address,address,bytes)"
                    },
                    "errorInfo": "",
                    "fromAddress": "0xbef99f5f55cf7cdb3a70998c57061b7e1386a9b0",
                    "gasUsed": 88375,
                    "id": 0,
                    "methodDecoded": true,
                    "operation": "CALL",
                    "output": "0x0000000000000000000000000000000000000000000000000000000000000001",
                    "revert": false,
                    "revertMessage": "",
                    "selector": "0x6a761202",
                    "status": true,
                    "value": "0"
                },
                "nodeType": 0
            },
            "1": {
                "invocation": {
                    "address": "0x34cfac646f301356faa8b21e94227e3583fe3f5f",
                    "callData": "0x0000000000000000000000000f5d2fb29fb7d3cfee444a200298f468908cc94200000000000000000000000000000000000000000000000000000000000000000000000000000000000000000000000000000000000000000000000000000140000000000000000000000000000000000000000000000000000000000000000000000000000000000000000000000000000000000000000000000000000117e8000000000000000000000000000000000000000000000000000000000000000000000000000000000000000000000000000000000000000000000000000000000000000000000000000000000000000000000000000000000000000000000000000000000000000000000000000000000000000000000000000000000000000000000000000000000000000000000000000000000000000000000000000001c00000000000000000000000000000000000000000000000000000000000000044a9059cbb000000000000000000000000dab8c0126102db3b5d678475e7f5ff6fbd390a54000000000000000000000000000000000000000000002a5a058fc295ed000000000000000000000000000000000000000000000000000000000000000000000000000000000000000000000000000000000000000000000000000082000000000000000000000000bef99f5f55cf7cdb3a70998c57061b7e1386a9b0000000000000000000000000000000000000000000000000000000000000000001759ffbe4c1f42d657c4e53a25f9f80e5703a0c707d606cbbf918c9dd8498c31f4fc22a415c2784706abe8f073743c95cc6f595406a37e7567126ef641e9bf1ad1b000000000000000000000000000000000000000000000000000000000000",
                    "decodedMethod": {
                        "callParams": [
                            {
                                "name": "to",
                                "type": "address",
                                "value": "0x0f5d2fb29fb7d3cfee444a200298f468908cc942"
                            },
                            {
                                "name": "value",
                                "type": "uint256",
                                "value": "0"
                            },
                            {
                                "name": "data",
                                "type": "bytes",
                                "value": "0xa9059cbb000000000000000000000000dab8c0126102db3b5d678475e7f5ff6fbd390a54000000000000000000000000000000000000000000002a5a058fc295ed000000"
                            },
                            {
                                "name": "operation",
                                "type": "uint8",
                                "value": "0"
                            },
                            {
                                "name": "safeTxGas",
                                "type": "uint256",
                                "value": "71,656"
                            },
                            {
                                "name": "baseGas",
                                "type": "uint256",
                                "value": "0"
                            },
                            {
                                "name": "gasPrice",
                                "type": "uint256",
                                "value": "0"
                            },
                            {
                                "name": "gasToken",
                                "type": "address",
                                "value": "0x0000000000000000000000000000000000000000"
                            },
                            {
                                "name": "refundReceiver",
                                "type": "address",
                                "value": "0x0000000000000000000000000000000000000000"
                            },
                            {
                                "name": "signatures",
                                "type": "bytes",
                                "value": "0x000000000000000000000000bef99f5f55cf7cdb3a70998c57061b7e1386a9b0000000000000000000000000000000000000000000000000000000000000000001759ffbe4c1f42d657c4e53a25f9f80e5703a0c707d606cbbf918c9dd8498c31f4fc22a415c2784706abe8f073743c95cc6f595406a37e7567126ef641e9bf1ad1b"
                            }
                        ],
                        "constructorArguments": "",
                        "name": "execTransaction",
                        "returnParams": [
                            {
                                "name": "success",
                                "type": "bool",
                                "value": true
                            }
                        ],
                        "signature": "execTransaction(address,uint256,bytes,uint8,uint256,uint256,uint256,address,address,bytes)"
                    },
                    "errorInfo": "",
                    "fromAddress": "0x89214c8ca9a49e60a3bfa8e00544f384c93719b1",
                    "gasUsed": 58054,
                    "id": 1,
                    "methodDecoded": true,
                    "operation": "DELEGATECALL",
                    "output": "0x0000000000000000000000000000000000000000000000000000000000000001",
                    "revert": false,
                    "revertMessage": "",
                    "selector": "0x6a761202",
                    "status": true,
                    "value": "0"
                },
                "nodeType": 0
            },
            "2": {
                "invocation": {
                    "address": "0x0000000000000000000000000000000000000001",
                    "callData": "0x4c9d33cf04d4934c0dfc6bbe340159ba2d27cf9eacdca457bb985df7000000000000000000000000000000000000000000000000000000000000001b759ffbe4c1f42d657c4e53a25f9f80e5703a0c707d606cbbf918c9dd8498c31f4fc22a415c2784706abe8f073743c95cc6f595406a37e7567126ef641e9bf1ad",
                    "decodedMethod": {
                        "callParams": [
                            {
                                "name": "hash",
                                "type": "bytes32",
                                "value": "0xddff0c014c9d33cf04d4934c0dfc6bbe340159ba2d27cf9eacdca457bb985df7"
                            },
                            {
                                "name": "v",
                                "type": "uint256",
                                "value": "27"
                            },
                            {
                                "name": "r",
                                "type": "bytes32",
                                "value": "0x759ffbe4c1f42d657c4e53a25f9f80e5703a0c707d606cbbf918c9dd8498c31f"
                            },
                            {
                                "name": "s",
                                "type": "bytes32",
                                "value": "0x4fc22a415c2784706abe8f073743c95cc6f595406a37e7567126ef641e9bf1ad"
                            }
                        ],
                        "constructorArguments": "",
                        "name": "ecrecover",
                        "returnParams": [
                            {
                                "name": "",
                                "type": "address",
                                "value": "0xbfa6d24e6a061e9aea3447163fdfe045177dd40e"
                            }
                        ],
                        "signature": "ecrecover(bytes32,uint256,bytes32,bytes32)"
                    },
                    "errorInfo": "",
                    "fromAddress": "0x89214c8ca9a49e60a3bfa8e00544f384c93719b1",
                    "gasUsed": 3000,
                    "id": 2,
                    "methodDecoded": true,
                    "operation": "STATICCALL",
                    "output": "0x000000000000000000000000bfa6d24e6a061e9aea3447163fdfe045177dd40e",
                    "revert": false,
                    "revertMessage": "",
                    "selector": "0xddff0c01",
                    "status": true,
                    "value": "0"
                },
                "nodeType": 0
            },
            "3": {
                "invocation": {
                    "address": "0x0f5d2fb29fb7d3cfee444a200298f468908cc942",
                    "callData": "0x000000000000000000000000dab8c0126102db3b5d678475e7f5ff6fbd390a54000000000000000000000000000000000000000000002a5a058fc295ed000000",
                    "decodedMethod": {
                        "callParams": [
                            {
                                "name": "_to",
                                "type": "address",
                                "value": "0xdab8c0126102db3b5d678475e7f5ff6fbd390a54"
                            },
                            {
                                "decimalAvailable": true,
                                "name": "_value",
                                "type": "uint256",
                                "value": "200,000,000,000,000,000,000,000"
                            }
                        ],
                        "constructorArguments": "",
                        "name": "transfer",
                        "returnParams": [
                            {
                                "name": "",
                                "type": "bool",
                                "value": true
                            }
                        ],
                        "signature": "transfer(address,uint256)"
                    },
                    "errorInfo": "",
                    "fromAddress": "0x89214c8ca9a49e60a3bfa8e00544f384c93719b1",
                    "gasUsed": 32593,
                    "id": 3,
                    "methodDecoded": true,
                    "operation": "CALL",
                    "output": "0x0000000000000000000000000000000000000000000000000000000000000001",
                    "revert": false,
                    "revertMessage": "",
                    "selector": "0xa9059cbb",
                    "status": true,
                    "value": "0"
                },
                "nodeType": 0
            },
            "4": {
                "event": {
                    "contract": "0x0f5d2fb29fb7d3cfee444a200298f468908cc942",
                    "decodedLog": {
                        "name": "Transfer",
                        "params": [
                            {
                                "name": "from",
                                "type": "address",
                                "value": "0x89214c8ca9a49e60a3bfa8e00544f384c93719b1"
                            },
                            {
                                "name": "to",
                                "type": "address",
                                "value": "0xdab8c0126102db3b5d678475e7f5ff6fbd390a54"
                            },
                            {
                                "decimalAvailable": true,
                                "name": "value",
                                "type": "uint256",
                                "value": "200,000,000,000,000,000,000,000"
                            }
                        ],
                        "signature": "Transfer(address,address,uint256)"
                    },
                    "id": 4,
                    "logData": "0x000000000000000000000000000000000000000000002a5a058fc295ed000000",
                    "logDecoded": true,
                    "operation": "EVENT",
                    "revert": false,
                    "status": true,
                    "topics": [
                        "0xddf252ad1be2c89b69c2b068fc378daa952ba7f163c4a11628f55a4df523b3ef",
                        "0x00000000000000000000000089214c8ca9a49e60a3bfa8e00544f384c93719b1",
                        "0x000000000000000000000000dab8c0126102db3b5d678475e7f5ff6fbd390a54"
                    ]
                },
                "nodeType": 1
            },
            "5": {
                "event": {
                    "contract": "0x89214c8ca9a49e60a3bfa8e00544f384c93719b1",
                    "decodedLog": {
                        "name": "ExecutionSuccess",
                        "params": [
                            {
                                "name": "txHash",
                                "type": "bytes32",
                                "value": "0xddff0c014c9d33cf04d4934c0dfc6bbe340159ba2d27cf9eacdca457bb985df7"
                            },
                            {
                                "name": "payment",
                                "type": "uint256",
                                "value": "0"
                            }
                        ],
                        "signature": "ExecutionSuccess(bytes32,uint256)"
                    },
                    "id": 5,
                    "logData": "0xddff0c014c9d33cf04d4934c0dfc6bbe340159ba2d27cf9eacdca457bb985df70000000000000000000000000000000000000000000000000000000000000000",
                    "logDecoded": true,
                    "operation": "EVENT",
                    "revert": false,
                    "status": true,
                    "topics": [
                        "0x442e715f626346e8c54381002da614f62bee8d27386535b2521ec8540898556e"
                    ]
                },
                "nodeType": 1
            }
        },
        "gasFlame": [
            {
                "children": [
                    {
                        "children": [
                            {
                                "children": [],
                                "depth": 0,
                                "name": "Initial Gas",
                                "value": 25376
                            },
                            {
                                "children": [
                                    {
                                        "children": [
                                            {
                                                "children": [],
                                                "depth": 2,
                                                "name": "ecrecover",
                                                "value": 3000
                                            },
                                            {
                                                "children": [],
                                                "depth": 2,
                                                "name": "transfer",
                                                "value": 32593
                                            }
                                        ],
                                        "depth": 1,
                                        "name": "execTransaction",
                                        "value": 58054
                                    }
                                ],
                                "depth": 0,
                                "name": "Executed Gas",
                                "value": 62999
                            }
                        ],
                        "depth": -1,
                        "name": "Actual Gas Used",
                        "value": 88375
                    },
                    {
                        "children": [],
                        "depth": -1,
                        "name": "Refunded Gas",
                        "value": 0
                    }
                ],
                "depth": -2,
                "name": "Total Gas",
                "value": 88375
            }
        ],
        "isConfirmed": true,
        "mainTrace": [
            {
                "children": [
                    {
                        "children": [
                            {
                                "children": [
                                    {
                                        "children": [],
                                        "depth": 2,
                                        "id": 2,
                                        "order": 2
                                    },
                                    {
                                        "children": [
                                            {
                                                "children": [],
                                                "depth": 3,
                                                "id": 4,
                                                "order": 4
                                            }
                                        ],
                                        "depth": 2,
                                        "id": 3,
                                        "order": 3
                                    },
                                    {
                                        "children": [],
                                        "depth": 2,
                                        "id": 5,
                                        "order": 5
                                    }
                                ],
                                "depth": 1,
                                "id": 1,
                                "order": 1
                            }
                        ],
                        "depth": 0,
                        "id": 0,
                        "order": 0
                    }
                ],
                "depth": -1,
                "id": -1,
                "order": -1
            }
        ],
        "mainTraceNodeCount": 6,
        "parentIdMap": {
            "0": -1,
            "1": 0,
            "2": 1,
            "3": 1,
            "4": 3,
            "5": 1
        },
        "tidyTrace": [
            {
                "children": [
                    {
                        "children": [
                            {
                                "children": [
                                    {
                                        "children": [
                                            {
                                                "children": [],
                                                "depth": 3,
                                                "id": 4,
                                                "order": 4
                                            }
                                        ],
                                        "depth": 2,
                                        "id": 3,
                                        "order": 3
                                    },
                                    {
                                        "children": [],
                                        "depth": 2,
                                        "id": 5,
                                        "order": 5
                                    }
                                ],
                                "depth": 1,
                                "id": 1,
                                "order": 1
                            }
                        ],
                        "depth": 0,
                        "id": 0,
                        "order": 0
                    }
                ],
                "depth": -1,
                "id": -1,
                "order": -1
            }
        ],
        "tidyTraceNodeCount": 5
    },
    "state_change": {
        "stateChanges": [
            {
                "address": "0x0f5d2fb29fb7d3cfee444a200298f468908cc942",
                "erc": "ERC-20",
                "slots": [
                    {
                        "current": "0x000000000000000000000000000000000000000000025b61c3d6be5e2b5370bd",
                        "key": "0xb52240ee487f23dded8d4adc7f69bea91338439e689f652ac2a48ca8fbf6d326",
                        "prev": "0x0000000000000000000000000000000000000000000285bbc96680f4185370bd"
                    },
                    {
                        "current": "0x000000000000000000000000000000000000000000002a5a058fc295ed000000",
                        "key": "0x1cbb227fb155918a7793d1a4a84e020fb5317cc58d3e2d9bee63222ba734c81a",
                        "prev": "0x0000000000000000000000000000000000000000000000000000000000000000"
                    }
                ],
                "storageVariables": []
            },
            {
                "address": "0x89214c8ca9a49e60a3bfa8e00544f384c93719b1",
                "erc": "",
                "slots": [
                    {
                        "current": "0x0000000000000000000000000000000000000000000000000000000000000102",
                        "key": "0x0000000000000000000000000000000000000000000000000000000000000005",
                        "prev": "0x0000000000000000000000000000000000000000000000000000000000000101"
                    }
                ],
                "storageVariables": [
                    {
                        "name": "nonce",
                        "type": "uint256",
                        "value": {
                            "current": "258",
                            "prev": "257",
                            "typeTag": 1
                        }
                    }
                ]
            }
        ]
    }
}