{
    "balance_change": {
        "balanceChanges": [
            {
                "account": "0x9a75eabb817b9cbff16d84c18dbb2dadb18309c6",
                "assets": [
                    {
                        "address": "0xbc2faad1ec407571249b0e874a9abd840111389b",
                        "amount": "14.76315789",
                        "iconUrl": "",
                        "isERC1155": false,
                        "isERC721": false,
                        "sign": false,
                        "value": ""
                    }
                ]
            },
            {
                "account": "0x410b0342078f5295ce426b1406bf2457f2d19941",
                "assets": [
                    {
                        "address": "0xbc2faad1ec407571249b0e874a9abd840111389b",
                        "amount": "14.76315789",
                        "iconUrl": "",
                        "isERC1155": false,
                        "isERC721": false,
                        "sign": true,
                        "value": ""
                    }
                ]
            }
        ]
    },
    "profile": {
        "basic_info": {
            "baseFee": "",
            "blockNumber": 9418960,
            "callData": "0xa9059cbb000000000000000000000000410b0342078f5295ce426b1406bf2457f2d199410000000000000000000000000000000000000000000000000000000057feca8d",
            "debugEnable": true,
            "errorInfo": "",
            "eventCount": 1,
            "feeRecipient": "0x04668ec2f57cc15c381b461b9fedab5d451c8f7f",
            "formatValue": "0",
            "gasLimit": 100000,
            "gasPrice": "3",
            "gasUsed": 39603,
            "intTxnCount": 0,
            "internalRevert": false,
            "internalRevertMessage": "",
            "isContractCreation": false,
            "isFlashloan": false,
            "maxFee": "",
            "nonce": 486102,
            "overwritedBlockNumber": -1,
            "priorityFee": "",
            "receiver": "0xbc2faad1ec407571249b0e874a9abd840111389b",
            "revertMessage": "",
            "sender": "0x9a75eabb817b9cbff16d84c18dbb2dadb18309c6",
            "simulationEnable": true,
            "sourceTxnHash": "0xe573f1416a03cbc22375a58889bdec595415b4bd38224f7ede2121e54e58599a",
            "status": true,
            "timestamp": "2020-02-04T22:52:26Z",
            "transactionFee": "0.000118809",
            "txnHash": "0xe573f1416a03cbc22375a58889bdec595415b4bd38224f7ede2121e54e58599a",
            "txnIndex": 10,
            "type": 0,
            "value": "0"
        },
        "fund_flow": [
            {
                "amount": "14.76315789",
                "from": "0x9a75eabb817b9cbff16d84c18dbb2dadb18309c6",
                "id": 1,
                "isERC1155": false,
                "isERC721": false,
                "isReverted": false,
                "order": 1,
                "to": "0x410b0342078f5295ce426b1406bf2457f2d19941",
                "token": "0xbc2faad1ec407571249b0e874a9abd840111389b"
            }
        ],
        "token_infos": [
            {
                "address": "0xbc2faad1ec407571249b0e874a9abd840111389b",
                "decimals": 8
            },
            {
                "address": "0xc02aaa39b223fe8d0a0e5c4f27ead9083c756cc2",
                "decimals": 18
            },
            {
                "address": "0xeeeeeeeeeeeeeeeeeeeeeeeeeeeeeeeeeeeeeeee",
                "decimals": 18
            }
        ]
    },
    "address_label": {
        "labels": [
            {
                "address": "0x0000000000000000000000000000000000000003",
                "label": "Precompiled"
            },
            {
                "address": "0x0000000000000000000000000000000000000004",
                "label": "Precompiled"
            },
            {
                "address": "0xeeeeeeeeeeeeeeeeeeeeeeeeeeeeeeeeeeeeeeee",
                "label": "Ether"
            },
            {
                "address": "0xbc2faad1ec407571249b0e874a9abd840111389b",
                "label": "BFX"
            },
            {
                "address": "0x0000000000000000000000000000000000000001",
                "label": "Precompiled"
            },
            {
                "address": "0x0000000000000000000000000000000000000002",
                "label": "Precompiled"
            }
        ]
    },
    "trace": {
        "accountLabels": null,
        "dataMap": {
            "-1": {
                "invocation": {
                    "address": "0x9a75eabb817b9cbff16d84c18dbb2dadb18309c6",
                    "callData": "",
                    "decodedMethod": null,
                    "errorInfo": "",
                    "fromAddress": "",
                    "gasUsed": 0,
                    "id": -1,
                    "methodDecoded": false,
                    "operation": "",
                    "output": "",
                    "revert": false,
                    "revertMessage": "",
                    "selector": "",
                    "status": false,
                    "value": ""
                },
                "nodeType": 0
            },
            "0": {
                "invocation": {
                    "address": "0xbc2faad1ec407571249b0e874a9abd840111389b",
                    "callData": "0x000000000000000000000000410b0342078f5295ce426b1406bf2457f2d199410000000000000000000000000000000000000000000000000000000057feca8d",
                    "decodedMethod": {
                        "callParams": [
                            {
                                "name": "_to",
                                "type": "address",
                                "value": "0x410b0342078f5295ce426b1406bf2457f2d19941"
                            },
                            {
                                "decimalAvailable": true,
                                "name": "_value",
                                "type": "uint256",
                                "value": "1,476,315,789"
                            }
                        ],
                        "constructorArguments": "",
                        "name": "transfer",
                        "returnParams": [
                            {
                                "name": "success",
                                "type": "bool",
                                "value": true
                            }
                        ],
                        "signature": "transfer(address,uint256)"
                    },
                    "errorInfo": "",
                    "fromAddress": "0x9a75eabb817b9cbff16d84c18dbb2dadb18309c6",
                    "gasUsed": 39603,
                    "id": 0,
                    "methodDecoded": true,
                    "operation": "CALL",
                    "output": "0x0000000000000000000000000000000000000000000000000000000000000001",
                    "revert": false,
                    "revertMessage": "",
                    "selector": "0xa9059cbb",
                    "status": true,
                    "value": "0"
                },
                "nodeType": 0
            },
            "1": {
                "event": {
                    "contract": "0xbc2faad1ec407571249b0e874a9abd840111389b",
                    "decodedLog": {
                        "name": "Transfer",
                        "params": [
                            {
                                "name": "_from",
                                "type": "address",
                                "value": "0x9a75eabb817b9cbff16d84c18dbb2dadb18309c6"
                            },
                            {
                                "name": "_to",
                                "type": "address",
                                "value": "0x410b0342078f5295ce426b1406bf2457f2d19941"
                            },
                            {
                                "decimalAvailable": true,
                                "name": "_value",
                                "type": "uint256",
                                "value": "1,476,315,789"
                            }
                        ],
                        "signature": "Transfer(address,address,uint256)"
                    },
                    "id": 1,
                    "logData": "0x0000000000000000000000000000000000000000000000000000000057feca8d",
                    "logDecoded": true,
                    "operation": "EVENT",
                    "revert": false,
                    "status": true,
                    "topics": [
                        "0xddf252ad1be2c89b69c2b068fc378daa952ba7f163c4a11628f55a4df523b3ef",
                        "0x0000000000000000000000009a75eabb817b9cbff16d84c18dbb2dadb18309c6",
                        "0x000000000000000000000000410b0342078f5295ce426b1406bf2457f2d19941"
                    ]
                },
                "nodeType": 1
            }
        },
        "gasFlame": [
            {
                "children": [
                    {
                        "children": [
                            {
                                "children": [],
                                "depth": 0,
                                "name": "Initial Gas",
                                "value": 21608
                            },
                            {
                                "children": [],
                                "depth": 0,
                                "name": "Executed Gas",
                                "value": 17995
                            }
                        ],
                        "depth": -1,
                        "name": "Actual Gas Used",
                        "value": 39603
                    },
                    {
                        "children": [],
                        "depth": -1,
                        "name": "Refunded Gas",
                        "value": 0
                    }
                ],
                "depth": -2,
                "name": "Total Gas",
                "value": 39603
            }
        ],
        "isConfirmed": true,
        "mainTrace": [
            {
                "children": [
                    {
                        "children": [
                            {
                                "children": [],
                                "depth": 1,
                                "id": 1,
                                "order": 1
                            }
                        ],
                        "depth": 0,
                        "id": 0,
                        "order": 0
                    }
                ],
                "depth": -1,
                "id": -1,
                "order": -1
            }
        ],
        "mainTraceNodeCount": 2,
        "parentIdMap": {
            "0": -1,
            "1": 0
        },
        "tidyTrace": [
            {
                "children": [
                    {
                        "children": [
                            {
                                "children": [],
                                "depth": 1,
                                "id": 1,
                                "order": 1
                            }
                        ],
                        "depth": 0,
                        "id": 0,
                        "order": 0
                    }
                ],
                "depth": -1,
                "id": -1,
                "order": -1
            }
        ],
        "tidyTraceNodeCount": 2
    },
    "state_change": {
        "stateChanges": [
            {
                "address": "0xbc2faad1ec407571249b0e874a9abd840111389b",
                "erc": "ERC-20",
                "slots": [
                    {
                        "current": "0x0000000000000000000000000000000000000000000000000000cda10e904173",
                        "key": "0xf31b6963c87947f27e83f4c2a929424b71d6c58e912b93d504a6d09dbb45a64d",
                        "prev": "0x0000000000000000000000000000000000000000000000000000cda1668f0c00"
                    },
                    {
                        "current": "0x000000000000000000000000000000000000000000000000000000075be61f56",
                        "key": "0xdd5fcbee81574552ce2c496275a18415a891c5f908b63283354708bc8c53c2c3",
                        "prev": "0x0000000000000000000000000000000000000000000000000000000703e754c9"
                    }
                ],
                "storageVariables": [
                    {
                        "name": "balanceOf",
                        "type": "mapping(address => uint256)",
                        "value": {
                            "pairs": [
                                {
                                    "key": "0x410b0342078f5295ce426b1406bf2457f2d19941",
                                    "value": {
                                        "current": "31606579030",
                                        "prev": "30130263241",
                                        "typeTag": 1
                                    }
                                },
                                {
                                    "key": "0x9a75eabb817b9cbff16d84c18dbb2dadb18309c6",
                                    "value": {
                                        "current": "226091617763699",
                                        "prev": "226093094079488",
                                        "typeTag": 1
                                    }
                                }
                            ],
                            "typeTag": 4
                        }
                    }
                ]
            }
        ]
    }
}