{
    "balance_change": {
        "balanceChanges": [
            {
                "account": "0x304cc179719bc5b05418d6f7f6783abe45d83090",
                "assets": [
                    {
                        "address": "0x93e682107d1e9defb0b5ee701c71707a4b2e46bc",
                        "amount": "124.7763",
                        "iconUrl": "",
                        "isERC1155": false,
                        "isERC721": false,
                        "sign": false,
                        "value": ""
                    }
                ]
            },
            {
                "account": "0x5fa3bf26bcdb427e1b1557530103d494838b7463",
                "assets": [
                    {
                        "address": "0x93e682107d1e9defb0b5ee701c71707a4b2e46bc",
                        "amount": "124.7763",
                        "iconUrl": "",
                        "isERC1155": false,
                        "isERC721": false,
                        "sign": true,
                        "value": ""
                    }
                ]
            }
        ]
    },
    "profile": {
        "basic_info": {
            "baseFee": "",
            "blockNumber": 4295426,
            "callData": "0xa9059cbb0000000000000000000000005fa3bf26bcdb427e1b1557530103d494838b746300000000000000000000000000000000000000000000000000000002e7b98630",
            "debugEnable": true,
            "errorInfo": "",
            "eventCount": 1,
            "feeRecipient": "0xf3b9d2c81f2b24b0fa0acaaa865b7d9ced5fc2fb",
            "formatValue": "0",
            "gasLimit": 350000,
            "gasPrice": "21",
            "gasUsed": 51856,
            "intTxnCount": 0,
            "internalRevert": false,
            "internalRevertMessage": "",
            "isContractCreation": false,
            "isFlashloan": false,
            "maxFee": "",
            "nonce": 124731,
            "overwritedBlockNumber": -1,
            "priorityFee": "",
            "receiver": "0x93e682107d1e9defb0b5ee701c71707a4b2e46bc",
            "revertMessage": "",
            "sender": "0x304cc179719bc5b05418d6f7f6783abe45d83090",
            "simulationEnable": true,
            "sourceTxnHash": "0xe5b0bf10003ace2912f7b16f07699197809207b5eae1ffba94f35728e83836f7",
            "status": true,
            "timestamp": "2017-09-20T17:15:31Z",
            "transactionFee": "0.001088976",
            "txnHash": "0xe5b0bf10003ace2912f7b16f07699197809207b5eae1ffba94f35728e83836f7",
            "txnIndex": 104,
            "type": 0,
            "value": "0"
        },
        "fund_flow": [
            {
                "amount": "124.7763",
                "from": "0x304cc179719bc5b05418d6f7f6783abe45d83090",
                "id": 1,
                "isERC1155": false,
                "isERC721": false,
                "isReverted": false,
                "order": 1,
                "to": "0x5fa3bf26bcdb427e1b1557530103d494838b7463",
                "token": "0x93e682107d1e9defb0b5ee701c71707a4b2e46bc"
            }
        ],
        "token_infos": [
            {
                "address": "0x93e682107d1e9defb0b5ee701c71707a4b2e46bc",
                "decimals": 8
            },
            {
                "address": "0xc02aaa39b223fe8d0a0e5c4f27ead9083c756cc2",
                "decimals": 18
            },
            {
                "address": "0xeeeeeeeeeeeeeeeeeeeeeeeeeeeeeeeeeeeeeeee",
                "decimals": 18
            }
        ]
    },
    "address_label": {
        "labels": [
            {
                "address": "0x0000000000000000000000000000000000000002",
                "label": "Precompiled"
            },
            {
                "address": "0x0000000000000000000000000000000000000003",
                "label": "Precompiled"
            },
            {
                "address": "0x0000000000000000000000000000000000000004",
                "label": "Precompiled"
            },
            {
                "address": "0xeeeeeeeeeeeeeeeeeeeeeeeeeeeeeeeeeeeeeeee",
                "label": "Ether"
            },
            {
                "address": "0x93e682107d1e9defb0b5ee701c71707a4b2e46bc",
                "label": "MCAP"
            },
            {
                "address": "0x0000000000000000000000000000000000000001",
                "label": "Precompiled"
            }
        ]
    },
    "trace": {
        "accountLabels": null,
        "dataMap": {
            "-1": {
                "invocation": {
                    "address": "0x304cc179719bc5b05418d6f7f6783abe45d83090",
                    "callData": "",
                    "decodedMethod": null,
                    "errorInfo": "",
                    "fromAddress": "",
                    "gasUsed": 0,
                    "id": -1,
                    "methodDecoded": false,
                    "operation": "",
                    "output": "",
                    "revert": false,
                    "revertMessage": "",
                    "selector": "",
                    "status": false,
                    "value": ""
                },
                "nodeType": 0
            },
            "0": {
                "invocation": {
                    "address": "0x93e682107d1e9defb0b5ee701c71707a4b2e46bc",
                    "callData": "0x0000000000000000000000005fa3bf26bcdb427e1b1557530103d494838b746300000000000000000000000000000000000000000000000000000002e7b98630",
                    "decodedMethod": {
                        "callParams": [
                            {
                                "name": "_to",
                                "type": "address",
                                "value": "0x5fa3bf26bcdb427e1b1557530103d494838b7463"
                            },
                            {
                                "decimalAvailable": true,
                                "name": "_value",
                                "type": "uint256",
                                "value": "12,477,630,000"
                            }
                        ],
                        "constructorArguments": "",
                        "name": "transfer",
                        "returnParams": [],
                        "signature": "transfer(address,uint256)"
                    },
                    "errorInfo": "",
                    "fromAddress": "0x304cc179719bc5b05418d6f7f6783abe45d83090",
                    "gasUsed": 51856,
                    "id": 0,
                    "methodDecoded": true,
                    "operation": "CALL",
                    "output": "",
                    "revert": false,
                    "revertMessage": "",
                    "selector": "0xa9059cbb",
                    "status": true,
                    "value": "0"
                },
                "nodeType": 0
            },
            "1": {
                "event": {
                    "contract": "0x93e682107d1e9defb0b5ee701c71707a4b2e46bc",
                    "decodedLog": {
                        "name": "Transfer",
                        "params": [
                            {
                                "name": "from",
                                "type": "address",
                                "value": "0x304cc179719bc5b05418d6f7f6783abe45d83090"
                            },
                            {
                                "name": "to",
                                "type": "address",
                                "value": "0x5fa3bf26bcdb427e1b1557530103d494838b7463"
                            },
                            {
                                "decimalAvailable": true,
                                "name": "value",
                                "type": "uint256",
                                "value": "12,477,630,000"
                            }
                        ],
                        "signature": "Transfer(address,address,uint256)"
                    },
                    "id": 1,
                    "logData": "0x00000000000000000000000000000000000000000000000000000002e7b98630",
                    "logDecoded": true,
                    "operation": "EVENT",
                    "revert": false,
                    "status": true,
                    "topics": [
                        "0xddf252ad1be2c89b69c2b068fc378daa952ba7f163c4a11628f55a4df523b3ef",
                        "0x000000000000000000000000304cc179719bc5b05418d6f7f6783abe45d83090",
                        "0x0000000000000000000000005fa3bf26bcdb427e1b1557530103d494838b7463"
                    ]
                },
                "nodeType": 1
            }
        },
        "gasFlame": [
            {
                "children": [
                    {
                        "children": [
                            {
                                "children": [],
                                "depth": 0,
                                "name": "Initial Gas",
                                "value": 23128
                            },
                            {
                                "children": [],
                                "depth": 0,
                                "name": "Executed Gas",
                                "value": 28728
                            }
                        ],
                        "depth": -1,
                        "name": "Actual Gas Used",
                        "value": 51856
                    },
                    {
                        "children": [],
                        "depth": -1,
                        "name": "Refunded Gas",
                        "value": 0
                    }
                ],
                "depth": -2,
                "name": "Total Gas",
                "value": 51856
            }
        ],
        "isConfirmed": true,
        "mainTrace": [
            {
                "children": [
                    {
                        "children": [
                            {
                                "children": [],
                                "depth": 1,
                                "id": 1,
                                "order": 1
                            }
                        ],
                        "depth": 0,
                        "id": 0,
                        "order": 0
                    }
                ],
                "depth": -1,
                "id": -1,
                "order": -1
            }
        ],
        "mainTraceNodeCount": 2,
        "parentIdMap": {
            "0": -1,
            "1": 0
        },
        "tidyTrace": [
            {
                "children": [
                    {
                        "children": [
                            {
                                "children": [],
                                "depth": 1,
                                "id": 1,
                                "order": 1
                            }
                        ],
                        "depth": 0,
                        "id": 0,
                        "order": 0
                    }
                ],
                "depth": -1,
                "id": -1,
                "order": -1
            }
        ],
        "tidyTraceNodeCount": 2
    },
    "state_change": {
        "stateChanges": [
            {
                "address": "0x93e682107d1e9defb0b5ee701c71707a4b2e46bc",
                "erc": "",
                "slots": [
                    {
                        "current": "0x00000000000000000000000000000000000000000000000000000002e7b98630",
                        "key": "0xacbf1756cb305fe0484a3a1a63ad9a941b5cc6f0b75c50b0c0354a50b77bcc27",
                        "prev": "0x0000000000000000000000000000000000000000000000000000000000000000"
                    },
                    {
                        "current": "0x000000000000000000000000000000000000000000000000000516b34af03587",
                        "key": "0xfd2d9c35b7e637ef26a15ac1bf174bd2a066f61b0eb61edfd1c64f81c6bf0c33",
                        "prev": "0x000000000000000000000000000000000000000000000000000516b632a9bbb7"
                    }
                ],
                "storageVariables": []
            }
        ]
    }
}