{
    "balance_change": {
        "balanceChanges": []
    },
    "profile": {
        "basic_info": {
            "baseFee": "",
            "blockNumber": 5811642,
            "callData": "0x278b8c0e000000000000000000000000aa19961b6b858d9f18a115f25aa1d98abc1fdba800000000000000000000000000000000000000000000000ad78ebc5ac6200000000000000000000000000000000000000000000000000000000000000000000000000000000000000000000000000000000000000000000000470de4df820000000000000000000000000000000000000000000000000000000000000058cffa00000000000000000000000000000000000000000000000000000000ff1b0acc000000000000000000000000000000000000000000000000000000000000001c5279e3ef719c9527a2dda3e7b163678a33610c6da552c6d55ba6799ccc41c4044ea244e268db20b3a7e878906a84a59c8e5f2e1e1508ed275076b522f32c9949",
            "debugEnable": true,
            "errorInfo": "",
            "eventCount": 1,
            "feeRecipient": "0xb2930b35844a230f00e51431acae96fe543a0347",
            "formatValue": "0",
            "gasLimit": 250000,
            "gasPrice": "4",
            "gasUsed": 59226,
            "intTxnCount": 2,
            "internalRevert": false,
            "internalRevertMessage": "",
            "isContractCreation": false,
            "isFlashloan": false,
            "maxFee": "",
            "nonce": 50,
            "overwritedBlockNumber": -1,
            "priorityFee": "",
            "receiver": "0x8d12a197cb00d4747a1fe03395095ce2a5cc6819",
            "revertMessage": "",
            "sender": "0x2086c3bf693fd79399da1a648a54f7dbcb799e51",
            "simulationEnable": true,
            "sourceTxnHash": "0xe6b7c10e29a4a4a50c5342a9244fbf734aa21997fe720fc36eeb0d9ba154a8ba",
            "status": true,
            "timestamp": "2018-06-18T15:44:51Z",
            "transactionFee": "0.000236904",
            "txnHash": "0xe6b7c10e29a4a4a50c5342a9244fbf734aa21997fe720fc36eeb0d9ba154a8ba",
            "txnIndex": 42,
            "type": 0,
            "value": "0"
        },
        "fund_flow": [],
        "token_infos": [
            {
                "address": "0xc02aaa39b223fe8d0a0e5c4f27ead9083c756cc2",
                "decimals": 18
            },
            {
                "address": "0xeeeeeeeeeeeeeeeeeeeeeeeeeeeeeeeeeeeeeeee",
                "decimals": 18
            }
        ]
    },
    "address_label": {
        "labels": [
            {
                "address": "0xaa19961b6b858d9f18a115f25aa1d98abc1fdba8",
                "label": "LocalCoinSwap Token"
            },
            {
                "address": "0x0000000000000000000000000000000000000000",
                "label": "Null Address"
            },
            {
                "address": "0x0000000000000000000000000000000000000001",
                "label": "Precompiled"
            },
            {
                "address": "0x0000000000000000000000000000000000000003",
                "label": "Precompiled"
            },
            {
                "address": "0x0000000000000000000000000000000000000004",
                "label": "Precompiled"
            },
            {
                "address": "0xeeeeeeeeeeeeeeeeeeeeeeeeeeeeeeeeeeeeeeee",
                "label": "Ether"
            },
            {
                "address": "0x8d12a197cb00d4747a1fe03395095ce2a5cc6819",
                "label": "EtherDelta"
            },
            {
                "address": "0x0000000000000000000000000000000000000002",
                "label": "Precompiled"
            }
        ]
    },
    "trace": {
        "accountLabels": null,
        "dataMap": {
            "-1": {
                "invocation": {
                    "address": "0x2086c3bf693fd79399da1a648a54f7dbcb799e51",
                    "callData": "",
                    "decodedMethod": null,
                    "errorInfo": "",
                    "fromAddress": "",
                    "gasUsed": 0,
                    "id": -1,
                    "methodDecoded": false,
                    "operation": "",
                    "output": "",
                    "revert": false,
                    "revertMessage": "",
                    "selector": "",
                    "status": false,
                    "value": ""
                },
                "nodeType": 0
            },
            "0": {
                "invocation": {
                    "address": "0x8d12a197cb00d4747a1fe03395095ce2a5cc6819",
                    "callData": "0x000000000000000000000000aa19961b6b858d9f18a115f25aa1d98abc1fdba800000000000000000000000000000000000000000000000ad78ebc5ac6200000000000000000000000000000000000000000000000000000000000000000000000000000000000000000000000000000000000000000000000470de4df820000000000000000000000000000000000000000000000000000000000000058cffa00000000000000000000000000000000000000000000000000000000ff1b0acc000000000000000000000000000000000000000000000000000000000000001c5279e3ef719c9527a2dda3e7b163678a33610c6da552c6d55ba6799ccc41c4044ea244e268db20b3a7e878906a84a59c8e5f2e1e1508ed275076b522f32c9949",
                    "decodedMethod": {
                        "callParams": [
                            {
                                "name": "tokenGet",
                                "type": "address",
                                "value": "0xaa19961b6b858d9f18a115f25aa1d98abc1fdba8"
                            },
                            {
                                "name": "amountGet",
                                "type": "uint256",
                                "value": "200,000,000,000,000,000,000"
                            },
                            {
                                "name": "tokenGive",
                                "type": "address",
                                "value": "0x0000000000000000000000000000000000000000"
                            },
                            {
                                "name": "amountGive",
                                "type": "uint256",
                                "value": "20,000,000,000,000,000"
                            },
                            {
                                "name": "expires",
                                "type": "uint256",
                                "value": "5,820,410"
                            },
                            {
                                "name": "nonce",
                                "type": "uint256",
                                "value": "4,279,962,316"
                            },
                            {
                                "name": "v",
                                "type": "uint8",
                                "value": "28"
                            },
                            {
                                "name": "r",
                                "type": "bytes32",
                                "value": "0x5279e3ef719c9527a2dda3e7b163678a33610c6da552c6d55ba6799ccc41c404"
                            },
                            {
                                "name": "s",
                                "type": "bytes32",
                                "value": "0x4ea244e268db20b3a7e878906a84a59c8e5f2e1e1508ed275076b522f32c9949"
                            }
                        ],
                        "constructorArguments": "",
                        "name": "cancelOrder",
                        "returnParams": [],
                        "signature": "cancelOrder(address,uint256,address,uint256,uint256,uint256,uint8,bytes32,bytes32)"
                    },
                    "errorInfo": "",
                    "fromAddress": "0x2086c3bf693fd79399da1a648a54f7dbcb799e51",
                    "gasUsed": 59226,
                    "id": 0,
                    "methodDecoded": true,
                    "operation": "CALL",
                    "output": "",
                    "revert": false,
                    "revertMessage": "",
                    "selector": "0x278b8c0e",
                    "status": true,
                    "value": "0"
                },
                "nodeType": 0
            },
            "1": {
                "invocation": {
                    "address": "0x0000000000000000000000000000000000000002",
                    "callData": "0xcb00d4747a1fe03395095ce2a5cc6819aa19961b6b858d9f18a115f25aa1d98abc1fdba800000000000000000000000000000000000000000000000ad78ebc5ac6200000000000000000000000000000000000000000000000000000000000000000000000000000000000000000000000470de4df820000000000000000000000000000000000000000000000000000000000000058cffa00000000000000000000000000000000000000000000000000000000ff1b0acc",
                    "decodedMethod": {
                        "callParams": [
                            {
                                "name": "data",
                                "type": "bytes",
                                "value": "0x8d12a197cb00d4747a1fe03395095ce2a5cc6819aa19961b6b858d9f18a115f25aa1d98abc1fdba800000000000000000000000000000000000000000000000ad78ebc5ac6200000000000000000000000000000000000000000000000000000000000000000000000000000000000000000000000470de4df820000000000000000000000000000000000000000000000000000000000000058cffa00000000000000000000000000000000000000000000000000000000ff1b0acc"
                            }
                        ],
                        "constructorArguments": "",
                        "name": "sha256hash",
                        "returnParams": [
                            {
                                "name": "hash",
                                "type": "bytes32",
                                "value": "0x14005f05d5fc77091200648c72a2c3c89e6bcca9225bc41ff1921af7782e44fc"
                            }
                        ],
                        "signature": "sha256hash(bytes)"
                    },
                    "errorInfo": "",
                    "fromAddress": "0x8d12a197cb00d4747a1fe03395095ce2a5cc6819",
                    "gasUsed": 132,
                    "id": 1,
                    "methodDecoded": true,
                    "operation": "CALL",
                    "output": "0x14005f05d5fc77091200648c72a2c3c89e6bcca9225bc41ff1921af7782e44fc",
                    "revert": false,
                    "revertMessage": "",
                    "selector": "0x8d12a197",
                    "status": true,
                    "value": "0"
                },
                "nodeType": 0
            },
            "2": {
                "invocation": {
                    "address": "0x0000000000000000000000000000000000000001",
                    "callData": "0x40d564733f9dcb5f69be1553ffc4444d7152ae66e055ec12f541776e000000000000000000000000000000000000000000000000000000000000001c5279e3ef719c9527a2dda3e7b163678a33610c6da552c6d55ba6799ccc41c4044ea244e268db20b3a7e878906a84a59c8e5f2e1e1508ed275076b522f32c9949",
                    "decodedMethod": {
                        "callParams": [
                            {
                                "name": "hash",
                                "type": "bytes32",
                                "value": "0x18d13dfb40d564733f9dcb5f69be1553ffc4444d7152ae66e055ec12f541776e"
                            },
                            {
                                "name": "v",
                                "type": "uint256",
                                "value": "28"
                            },
                            {
                                "name": "r",
                                "type": "bytes32",
                                "value": "0x5279e3ef719c9527a2dda3e7b163678a33610c6da552c6d55ba6799ccc41c404"
                            },
                            {
                                "name": "s",
                                "type": "bytes32",
                                "value": "0x4ea244e268db20b3a7e878906a84a59c8e5f2e1e1508ed275076b522f32c9949"
                            }
                        ],
                        "constructorArguments": "",
                        "name": "ecrecover",
                        "returnParams": [
                            {
                                "name": "",
                                "type": "address",
                                "value": "0x2086c3bf693fd79399da1a648a54f7dbcb799e51"
                            }
                        ],
                        "signature": "ecrecover(bytes32,uint256,bytes32,bytes32)"
                    },
                    "errorInfo": "",
                    "fromAddress": "0x8d12a197cb00d4747a1fe03395095ce2a5cc6819",
                    "gasUsed": 3000,
                    "id": 2,
                    "methodDecoded": true,
                    "operation": "CALL",
                    "output": "0x0000000000000000000000002086c3bf693fd79399da1a648a54f7dbcb799e51",
                    "revert": false,
                    "revertMessage": "",
                    "selector": "0x18d13dfb",
                    "status": true,
                    "value": "0"
                },
                "nodeType": 0
            },
            "3": {
                "event": {
                    "contract": "0x8d12a197cb00d4747a1fe03395095ce2a5cc6819",
                    "decodedLog": {
                        "name": "Cancel",
                        "params": [
                            {
                                "name": "tokenGet",
                                "type": "address",
                                "value": "0xaa19961b6b858d9f18a115f25aa1d98abc1fdba8"
                            },
                            {
                                "name": "amountGet",
                                "type": "uint256",
                                "value": "200,000,000,000,000,000,000"
                            },
                            {
                                "name": "tokenGive",
                                "type": "address",
                                "value": "0x0000000000000000000000000000000000000000"
                            },
                            {
                                "name": "amountGive",
                                "type": "uint256",
                                "value": "20,000,000,000,000,000"
                            },
                            {
                                "name": "expires",
                                "type": "uint256",
                                "value": "5,820,410"
                            },
                            {
                                "name": "nonce",
                                "type": "uint256",
                                "value": "4,279,962,316"
                            },
                            {
                                "name": "user",
                                "type": "address",
                                "value": "0x2086c3bf693fd79399da1a648a54f7dbcb799e51"
                            },
                            {
                                "name": "v",
                                "type": "uint8",
                                "value": "28"
                            },
                            {
                                "name": "r",
                                "type": "bytes32",
                                "value": "0x5279e3ef719c9527a2dda3e7b163678a33610c6da552c6d55ba6799ccc41c404"
                            },
                            {
                                "name": "s",
                                "type": "bytes32",
                                "value": "0x4ea244e268db20b3a7e878906a84a59c8e5f2e1e1508ed275076b522f32c9949"
                            }
                        ],
                        "signature": "Cancel(address,uint256,address,uint256,uint256,uint256,address,uint8,bytes32,bytes32)"
                    },
                    "id": 3,
                    "logData": "0x000000000000000000000000aa19961b6b858d9f18a115f25aa1d98abc1fdba800000000000000000000000000000000000000000000000ad78ebc5ac6200000000000000000000000000000000000000000000000000000000000000000000000000000000000000000000000000000000000000000000000470de4df820000000000000000000000000000000000000000000000000000000000000058cffa00000000000000000000000000000000000000000000000000000000ff1b0acc0000000000000000000000002086c3bf693fd79399da1a648a54f7dbcb799e51000000000000000000000000000000000000000000000000000000000000001c5279e3ef719c9527a2dda3e7b163678a33610c6da552c6d55ba6799ccc41c4044ea244e268db20b3a7e878906a84a59c8e5f2e1e1508ed275076b522f32c9949",
                    "logDecoded": true,
                    "operation": "EVENT",
                    "revert": false,
                    "status": true,
                    "topics": [
                        "0x1e0b760c386003e9cb9bcf4fcf3997886042859d9b6ed6320e804597fcdb28b0"
                    ]
                },
                "nodeType": 1
            }
        },
        "gasFlame": [
            {
                "children": [
                    {
                        "children": [
                            {
                                "children": [],
                                "depth": 0,
                                "name": "Initial Gas",
                                "value": 29080
                            },
                            {
                                "children": [
                                    {
                                        "children": [],
                                        "depth": 1,
                                        "name": "sha256hash",
                                        "value": 132
                                    },
                                    {
                                        "children": [],
                                        "depth": 1,
                                        "name": "ecrecover",
                                        "value": 3000
                                    }
                                ],
                                "depth": 0,
                                "name": "Executed Gas",
                                "value": 30146
                            }
                        ],
                        "depth": -1,
                        "name": "Actual Gas Used",
                        "value": 59226
                    },
                    {
                        "children": [],
                        "depth": -1,
                        "name": "Refunded Gas",
                        "value": 0
                    }
                ],
                "depth": -2,
                "name": "Total Gas",
                "value": 59226
            }
        ],
        "isConfirmed": true,
        "mainTrace": [
            {
                "children": [
                    {
                        "children": [
                            {
                                "children": [],
                                "depth": 1,
                                "id": 1,
                                "order": 1
                            },
                            {
                                "children": [],
                                "depth": 1,
                                "id": 2,
                                "order": 2
                            },
                            {
                                "children": [],
                                "depth": 1,
                                "id": 3,
                                "order": 3
                            }
                        ],
                        "depth": 0,
                        "id": 0,
                        "order": 0
                    }
                ],
                "depth": -1,
                "id": -1,
                "order": -1
            }
        ],
        "mainTraceNodeCount": 4,
        "parentIdMap": {
            "0": -1,
            "1": 0,
            "2": 0,
            "3": 0
        },
        "tidyTrace": [
            {
                "children": [
                    {
                        "children": [
                            {
                                "children": [],
                                "depth": 1,
                                "id": 1,
                                "order": 1
                            },
                            {
                                "children": [],
                                "depth": 1,
                                "id": 2,
                                "order": 2
                            },
                            {
                                "children": [],
                                "depth": 1,
                                "id": 3,
                                "order": 3
                            }
                        ],
                        "depth": 0,
                        "id": 0,
                        "order": 0
                    }
                ],
                "depth": -1,
                "id": -1,
                "order": -1
            }
        ],
        "tidyTraceNodeCount": 4
    },
    "state_change": {
        "stateChanges": [
            {
                "address": "0x8d12a197cb00d4747a1fe03395095ce2a5cc6819",
                "erc": "",
                "slots": [
                    {
                        "current": "0x00000000000000000000000000000000000000000000000ad78ebc5ac6200000",
                        "key": "0x7d3e789fd0390aa646dda6a6f6850a04710e0c6ffdc725fea8751548f46e70b0",
                        "prev": "0x0000000000000000000000000000000000000000000000000000000000000000"
                    }
                ],
                "storageVariables": []
            }
        ]
    }
}