{
    "balance_change": {
        "balanceChanges": [
            {
                "account": "0x6c673a60bcb4f3e559973ce80e7427b51a48fa44",
                "assets": [
                    {
                        "address": "0x30cecb5461a449a90081f5a5f55db4e048397bab",
                        "amount": "10.74964706",
                        "iconUrl": "https://assets.blocksec.com/icon/a1be03956ceb093b4acef4069e47fe27f99cc2f04131016070301410680588f4.png",
                        "isERC1155": false,
                        "isERC721": false,
                        "sign": false,
                        "value": ""
                    }
                ]
            },
            {
                "account": "0x24854fb268c959ab116996d53b3d6afb4bded988",
                "assets": [
                    {
                        "address": "0x30cecb5461a449a90081f5a5f55db4e048397bab",
                        "amount": "10.74964706",
                        "iconUrl": "https://assets.blocksec.com/icon/a1be03956ceb093b4acef4069e47fe27f99cc2f04131016070301410680588f4.png",
                        "isERC1155": false,
                        "isERC721": false,
                        "sign": true,
                        "value": ""
                    }
                ]
            }
        ]
    },
    "profile": {
        "basic_info": {
            "baseFee": "",
            "blockNumber": 4405575,
            "callData": "0xa9059cbb00000000000000000000000024854fb268c959ab116996d53b3d6afb4bded988000000000000000000000000000000000000000000000000000000004012a8e2",
            "debugEnable": true,
            "errorInfo": "",
            "eventCount": 1,
            "feeRecipient": "0xea674fdde714fd979de3edf0f56aa9716b898ec8",
            "formatValue": "0",
            "gasLimit": 100000,
            "gasPrice": "21.1",
            "gasUsed": 52084,
            "intTxnCount": 0,
            "internalRevert": false,
            "internalRevertMessage": "",
            "isContractCreation": false,
            "isFlashloan": false,
            "maxFee": "",
            "nonce": 334,
            "overwritedBlockNumber": -1,
            "priorityFee": "",
            "receiver": "0x30cecb5461a449a90081f5a5f55db4e048397bab",
            "revertMessage": "",
            "sender": "0x6c673a60bcb4f3e559973ce80e7427b51a48fa44",
            "simulationEnable": true,
            "sourceTxnHash": "0xe6589cf4ffb93d50cee35d728e7a869de7140b0804baff24d7734ff5cc817cff",
            "status": true,
            "timestamp": "2017-10-22T02:30:43Z",
            "transactionFee": "0.0010989724",
            "txnHash": "0xe6589cf4ffb93d50cee35d728e7a869de7140b0804baff24d7734ff5cc817cff",
            "txnIndex": 0,
            "type": 0,
            "value": "0"
        },
        "fund_flow": [
            {
                "amount": "10.74964706",
                "from": "0x6c673a60bcb4f3e559973ce80e7427b51a48fa44",
                "id": 1,
                "isERC1155": false,
                "isERC721": false,
                "isReverted": false,
                "order": 1,
                "to": "0x24854fb268c959ab116996d53b3d6afb4bded988",
                "token": "0x30cecb5461a449a90081f5a5f55db4e048397bab"
            }
        ],
        "token_infos": [
            {
                "address": "0x30cecb5461a449a90081f5a5f55db4e048397bab",
                "decimals": 8
            },
            {
                "address": "0xc02aaa39b223fe8d0a0e5c4f27ead9083c756cc2",
                "decimals": 18
            },
            {
                "address": "0xeeeeeeeeeeeeeeeeeeeeeeeeeeeeeeeeeeeeeeee",
                "decimals": 18
            }
        ]
    },
    "address_label": {
        "labels": [
            {
                "address": "0x24854fb268c959ab116996d53b3d6afb4bded988",
                "label": "TIDEX"
            },
            {
                "address": "0x0000000000000000000000000000000000000001",
                "label": "Precompiled"
            },
            {
                "address": "0x0000000000000000000000000000000000000002",
                "label": "Precompiled"
            },
            {
                "address": "0x0000000000000000000000000000000000000003",
                "label": "Precompiled"
            },
            {
                "address": "0x0000000000000000000000000000000000000004",
                "label": "Precompiled"
            },
            {
                "address": "0xeeeeeeeeeeeeeeeeeeeeeeeeeeeeeeeeeeeeeeee",
                "label": "Ether"
            },
            {
                "address": "0x30cecb5461a449a90081f5a5f55db4e048397bab",
                "label": "Tracto Token"
            }
        ]
    },
    "trace": {
        "accountLabels": null,
        "dataMap": {
            "-1": {
                "invocation": {
                    "address": "0x6c673a60bcb4f3e559973ce80e7427b51a48fa44",
                    "callData": "",
                    "decodedMethod": null,
                    "errorInfo": "",
                    "fromAddress": "",
                    "gasUsed": 0,
                    "id": -1,
                    "methodDecoded": false,
                    "operation": "",
                    "output": "",
                    "revert": false,
                    "revertMessage": "",
                    "selector": "",
                    "status": false,
                    "value": ""
                },
                "nodeType": 0
            },
            "0": {
                "invocation": {
                    "address": "0x30cecb5461a449a90081f5a5f55db4e048397bab",
                    "callData": "0x00000000000000000000000024854fb268c959ab116996d53b3d6afb4bded988000000000000000000000000000000000000000000000000000000004012a8e2",
                    "decodedMethod": {
                        "callParams": [
                            {
                                "name": "_to",
                                "type": "address",
                                "value": "0x24854fb268c959ab116996d53b3d6afb4bded988"
                            },
                            {
                                "decimalAvailable": true,
                                "name": "_amount",
                                "type": "uint256",
                                "value": "1,074,964,706"
                            }
                        ],
                        "constructorArguments": "",
                        "name": "transfer",
                        "returnParams": [
                            {
                                "name": "success",
                                "type": "bool",
                                "value": true
                            }
                        ],
                        "signature": "transfer(address,uint256)"
                    },
                    "errorInfo": "",
                    "fromAddress": "0x6c673a60bcb4f3e559973ce80e7427b51a48fa44",
                    "gasUsed": 52084,
                    "id": 0,
                    "methodDecoded": true,
                    "operation": "CALL",
                    "output": "0x0000000000000000000000000000000000000000000000000000000000000001",
                    "revert": false,
                    "revertMessage": "",
                    "selector": "0xa9059cbb",
                    "status": true,
                    "value": "0"
                },
                "nodeType": 0
            },
            "1": {
                "event": {
                    "contract": "0x30cecb5461a449a90081f5a5f55db4e048397bab",
                    "decodedLog": {
                        "name": "Transfer",
                        "params": [
                            {
                                "name": "_from",
                                "type": "address",
                                "value": "0x6c673a60bcb4f3e559973ce80e7427b51a48fa44"
                            },
                            {
                                "name": "_to",
                                "type": "address",
                                "value": "0x24854fb268c959ab116996d53b3d6afb4bded988"
                            },
                            {
                                "decimalAvailable": true,
                                "name": "_value",
                                "type": "uint256",
                                "value": "1,074,964,706"
                            }
                        ],
                        "signature": "Transfer(address,address,uint256)"
                    },
                    "id": 1,
                    "logData": "0x000000000000000000000000000000000000000000000000000000004012a8e2",
                    "logDecoded": true,
                    "operation": "EVENT",
                    "revert": false,
                    "status": true,
                    "topics": [
                        "0xddf252ad1be2c89b69c2b068fc378daa952ba7f163c4a11628f55a4df523b3ef",
                        "0x0000000000000000000000006c673a60bcb4f3e559973ce80e7427b51a48fa44",
                        "0x00000000000000000000000024854fb268c959ab116996d53b3d6afb4bded988"
                    ]
                },
                "nodeType": 1
            }
        },
        "gasFlame": [
            {
                "children": [
                    {
                        "children": [
                            {
                                "children": [],
                                "depth": 0,
                                "name": "Initial Gas",
                                "value": 23064
                            },
                            {
                                "children": [],
                                "depth": 0,
                                "name": "Executed Gas",
                                "value": 29020
                            }
                        ],
                        "depth": -1,
                        "name": "Actual Gas Used",
                        "value": 52084
                    },
                    {
                        "children": [],
                        "depth": -1,
                        "name": "Refunded Gas",
                        "value": 0
                    }
                ],
                "depth": -2,
                "name": "Total Gas",
                "value": 52084
            }
        ],
        "isConfirmed": true,
        "mainTrace": [
            {
                "children": [
                    {
                        "children": [
                            {
                                "children": [],
                                "depth": 1,
                                "id": 1,
                                "order": 1
                            }
                        ],
                        "depth": 0,
                        "id": 0,
                        "order": 0
                    }
                ],
                "depth": -1,
                "id": -1,
                "order": -1
            }
        ],
        "mainTraceNodeCount": 2,
        "parentIdMap": {
            "0": -1,
            "1": 0
        },
        "tidyTrace": [
            {
                "children": [
                    {
                        "children": [
                            {
                                "children": [],
                                "depth": 1,
                                "id": 1,
                                "order": 1
                            }
                        ],
                        "depth": 0,
                        "id": 0,
                        "order": 0
                    }
                ],
                "depth": -1,
                "id": -1,
                "order": -1
            }
        ],
        "tidyTraceNodeCount": 2
    },
    "state_change": {
        "stateChanges": [
            {
                "address": "0x30cecb5461a449a90081f5a5f55db4e048397bab",
                "erc": "ERC-20",
                "slots": [
                    {
                        "current": "0x0000000000000000000000000000000000000000000000000000069c12463b04",
                        "key": "0x6affaaa61eb7a0e325e3ef83e6a66afde96f7db8eaec44e1451873ca385cfb16",
                        "prev": "0x0000000000000000000000000000000000000000000000000000069c5258e3e6"
                    },
                    {
                        "current": "0x000000000000000000000000000000000000000000000000000000004012a8e2",
                        "key": "0x84db22616f51090f2ded2096d2fe850ee31aff4b4526ffca134971e1f37cc15d",
                        "prev": "0x0000000000000000000000000000000000000000000000000000000000000000"
                    }
                ],
                "storageVariables": [
                    {
                        "name": "balances",
                        "type": "mapping(address => uint256)",
                        "value": {
                            "pairs": [
                                {
                                    "key": "0x24854fb268c959ab116996d53b3d6afb4bded988",
                                    "value": {
                                        "current": "1074964706",
                                        "prev": "0",
                                        "typeTag": 1
                                    }
                                },
                                {
                                    "key": "0x6c673a60bcb4f3e559973ce80e7427b51a48fa44",
                                    "value": {
                                        "current": "7267391257348",
                                        "prev": "7268466222054",
                                        "typeTag": 1
                                    }
                                }
                            ],
                            "typeTag": 4
                        }
                    }
                ]
            }
        ]
    }
}