{
    "balance_change": {
        "balanceChanges": []
    },
    "profile": {
        "basic_info": {
            "baseFee": "",
            "blockNumber": 7689925,
            "callData": "0xef34358800000000000000000000000000000000000000000000000033590a6584f2000000000000000000000000000000000000000000000000006c6b935b8bbd400000000000000000000000000000000000000000000000000000000000000002e63000000000000000000000000000000000000000000000000000000000000000a4000000000000000000000000000000000000000000000000020dcd3742c20000000000000000000000000000000000000000000000000000000000000000000600000000000000000000000000000000000000000000000000038d7ea4c6800000000000000000000000000000000000000000000000000000176dbfb43f9f2200000000000000000000000000000000000000000000000000000000000000000000000000000000000000006737fe98389ffb356f64ebb726aa1a92390d94fb0000000000000000000000006d79d82ddcea5f12109851bbeeb16d7b8c9fdd97000000000000000000000000213e1e658609d3aa72421c9d55e896ac2eade4cc000000000000000000000000000000000000000000000000000000000000001c000000000000000000000000000000000000000000000000000000000000001cc033e53907b9eb154f344ba412aa247518f1c1a16a3612da395c5e23c1c3e73c47b772adc62c0f7b54c928416997d2a0a06987e1870f074a121d0b8941b79ccfec3952bec707aabce311142006e3aa060645486c53a7507dd5635c8747d88465571eb8d27e5f0fa273f406d801c5409f34f8edaa22e68330ff725d3b2ffee2b5",
            "debugEnable": true,
            "errorInfo": "",
            "eventCount": 0,
            "feeRecipient": "0x5a0b54d5dc17e0aadc383d2db43b0a0d3e029c4c",
            "formatValue": "0",
            "gasLimit": 400000,
            "gasPrice": "4",
            "gasUsed": 127388,
            "intTxnCount": 2,
            "internalRevert": false,
            "internalRevertMessage": "",
            "isContractCreation": false,
            "isFlashloan": false,
            "maxFee": "",
            "nonce": 3101967,
            "overwritedBlockNumber": -1,
            "priorityFee": "",
            "receiver": "0x2a0c0dbecc7e4d658f48e01e3fa353f44050c208",
            "revertMessage": "",
            "sender": "0xa7a7899d944fe658c4b0a1803bab2f490bd3849e",
            "simulationEnable": true,
            "sourceTxnHash": "0xe6813b47683e6a17e25c30f6a219cc43dba799e28f39a773acb6fdf32d7a8e4b",
            "status": true,
            "timestamp": "2019-05-03T19:36:51Z",
            "transactionFee": "0.000509552",
            "txnHash": "0xe6813b47683e6a17e25c30f6a219cc43dba799e28f39a773acb6fdf32d7a8e4b",
            "txnIndex": 7,
            "type": 0,
            "value": "0"
        },
        "fund_flow": [],
        "token_infos": [
            {
                "address": "0xc02aaa39b223fe8d0a0e5c4f27ead9083c756cc2",
                "decimals": 18
            },
            {
                "address": "0xeeeeeeeeeeeeeeeeeeeeeeeeeeeeeeeeeeeeeeee",
                "decimals": 18
            }
        ]
    },
    "address_label": {
        "labels": [
            {
                "address": "0xeeeeeeeeeeeeeeeeeeeeeeeeeeeeeeeeeeeeeeee",
                "label": "Ether"
            },
            {
                "address": "0x2a0c0dbecc7e4d658f48e01e3fa353f44050c208",
                "label": "IDEX"
            },
            {
                "address": "0x6737fe98389ffb356f64ebb726aa1a92390d94fb",
                "label": "ZeroCarbon (ZCC)"
            },
            {
                "address": "0x0000000000000000000000000000000000000001",
                "label": "Precompiled"
            },
            {
                "address": "0x0000000000000000000000000000000000000003",
                "label": "Precompiled"
            },
            {
                "address": "0xa7a7899d944fe658c4b0a1803bab2f490bd3849e",
                "label": "IDEX 2"
            },
            {
                "address": "0x0000000000000000000000000000000000000000",
                "label": "Null Address"
            },
            {
                "address": "0x0000000000000000000000000000000000000002",
                "label": "Precompiled"
            },
            {
                "address": "0x0000000000000000000000000000000000000004",
                "label": "Precompiled"
            }
        ]
    },
    "trace": {
        "accountLabels": null,
        "dataMap": {
            "-1": {
                "invocation": {
                    "address": "0xa7a7899d944fe658c4b0a1803bab2f490bd3849e",
                    "callData": "",
                    "decodedMethod": null,
                    "errorInfo": "",
                    "fromAddress": "",
                    "gasUsed": 0,
                    "id": -1,
                    "methodDecoded": false,
                    "operation": "",
                    "output": "",
                    "revert": false,
                    "revertMessage": "",
                    "selector": "",
                    "status": false,
                    "value": ""
                },
                "nodeType": 0
            },
            "0": {
                "invocation": {
                    "address": "0x2a0c0dbecc7e4d658f48e01e3fa353f44050c208",
                    "callData": "0x00000000000000000000000000000000000000000000000033590a6584f2000000000000000000000000000000000000000000000000006c6b935b8bbd400000000000000000000000000000000000000000000000000000000000000002e63000000000000000000000000000000000000000000000000000000000000000a4000000000000000000000000000000000000000000000000020dcd3742c20000000000000000000000000000000000000000000000000000000000000000000600000000000000000000000000000000000000000000000000038d7ea4c6800000000000000000000000000000000000000000000000000000176dbfb43f9f2200000000000000000000000000000000000000000000000000000000000000000000000000000000000000006737fe98389ffb356f64ebb726aa1a92390d94fb0000000000000000000000006d79d82ddcea5f12109851bbeeb16d7b8c9fdd97000000000000000000000000213e1e658609d3aa72421c9d55e896ac2eade4cc000000000000000000000000000000000000000000000000000000000000001c000000000000000000000000000000000000000000000000000000000000001cc033e53907b9eb154f344ba412aa247518f1c1a16a3612da395c5e23c1c3e73c47b772adc62c0f7b54c928416997d2a0a06987e1870f074a121d0b8941b79ccfec3952bec707aabce311142006e3aa060645486c53a7507dd5635c8747d88465571eb8d27e5f0fa273f406d801c5409f34f8edaa22e68330ff725d3b2ffee2b5",
                    "decodedMethod": {
                        "callParams": [
                            {
                                "name": "tradeValues",
                                "type": "uint256[8]",
                                "value": [
                                    "3,700,000,000,000,000,000",
                                    "2,000,000,000,000,000,000,000",
                                    "190,000",
                                    "164",
                                    "148,000,000,000,000,000",
                                    "6",
                                    "1,000,000,000,000,000",
                                    "6,594,594,594,594,594"
                                ]
                            },
                            {
                                "name": "tradeAddresses",
                                "type": "address[4]",
                                "value": [
                                    "0x0000000000000000000000000000000000000000",
                                    "0x6737fe98389ffb356f64ebb726aa1a92390d94fb",
                                    "0x6d79d82ddcea5f12109851bbeeb16d7b8c9fdd97",
                                    "0x213e1e658609d3aa72421c9d55e896ac2eade4cc"
                                ]
                            },
                            {
                                "name": "v",
                                "type": "uint8[2]",
                                "value": [
                                    "28",
                                    "28"
                                ]
                            },
                            {
                                "name": "rs",
                                "type": "bytes32[4]",
                                "value": [
                                    "0xc033e53907b9eb154f344ba412aa247518f1c1a16a3612da395c5e23c1c3e73c",
                                    "0x47b772adc62c0f7b54c928416997d2a0a06987e1870f074a121d0b8941b79ccf",
                                    "0xec3952bec707aabce311142006e3aa060645486c53a7507dd5635c8747d88465",
                                    "0x571eb8d27e5f0fa273f406d801c5409f34f8edaa22e68330ff725d3b2ffee2b5"
                                ]
                            }
                        ],
                        "constructorArguments": "",
                        "name": "trade",
                        "returnParams": [
                            {
                                "name": "success",
                                "type": "bool",
                                "value": false
                            }
                        ],
                        "signature": "trade(uint256[8],address[4],uint8[2],bytes32[4])"
                    },
                    "errorInfo": "",
                    "fromAddress": "0xa7a7899d944fe658c4b0a1803bab2f490bd3849e",
                    "gasUsed": 127388,
                    "id": 0,
                    "methodDecoded": true,
                    "operation": "CALL",
                    "output": "0x0000000000000000000000000000000000000000000000000000000000000000",
                    "revert": false,
                    "revertMessage": "",
                    "selector": "0xef343588",
                    "status": true,
                    "value": "0"
                },
                "nodeType": 0
            },
            "1": {
                "invocation": {
                    "address": "0x0000000000000000000000000000000000000001",
                    "callData": "0xae1bdda02a350b444dbf0012c1a7585ecb621bdafdc03ec8d164e8ab000000000000000000000000000000000000000000000000000000000000001cc033e53907b9eb154f344ba412aa247518f1c1a16a3612da395c5e23c1c3e73c47b772adc62c0f7b54c928416997d2a0a06987e1870f074a121d0b8941b79ccf",
                    "decodedMethod": {
                        "callParams": [
                            {
                                "name": "hash",
                                "type": "bytes32",
                                "value": "0xf49679b2ae1bdda02a350b444dbf0012c1a7585ecb621bdafdc03ec8d164e8ab"
                            },
                            {
                                "name": "v",
                                "type": "uint256",
                                "value": "28"
                            },
                            {
                                "name": "r",
                                "type": "bytes32",
                                "value": "0xc033e53907b9eb154f344ba412aa247518f1c1a16a3612da395c5e23c1c3e73c"
                            },
                            {
                                "name": "s",
                                "type": "bytes32",
                                "value": "0x47b772adc62c0f7b54c928416997d2a0a06987e1870f074a121d0b8941b79ccf"
                            }
                        ],
                        "constructorArguments": "",
                        "name": "ecrecover",
                        "returnParams": [
                            {
                                "name": "",
                                "type": "address",
                                "value": "0x6d79d82ddcea5f12109851bbeeb16d7b8c9fdd97"
                            }
                        ],
                        "signature": "ecrecover(bytes32,uint256,bytes32,bytes32)"
                    },
                    "errorInfo": "",
                    "fromAddress": "0x2a0c0dbecc7e4d658f48e01e3fa353f44050c208",
                    "gasUsed": 3000,
                    "id": 1,
                    "methodDecoded": true,
                    "operation": "CALL",
                    "output": "0x0000000000000000000000006d79d82ddcea5f12109851bbeeb16d7b8c9fdd97",
                    "revert": false,
                    "revertMessage": "",
                    "selector": "0xf49679b2",
                    "status": true,
                    "value": "0"
                },
                "nodeType": 0
            },
            "2": {
                "invocation": {
                    "address": "0x0000000000000000000000000000000000000001",
                    "callData": "0x6406748affb4dcbc68f5d17ce3bf21b1e37d662a0831e56c2cdad26b000000000000000000000000000000000000000000000000000000000000001cec3952bec707aabce311142006e3aa060645486c53a7507dd5635c8747d88465571eb8d27e5f0fa273f406d801c5409f34f8edaa22e68330ff725d3b2ffee2b5",
                    "decodedMethod": {
                        "callParams": [
                            {
                                "name": "hash",
                                "type": "bytes32",
                                "value": "0x38226b4f6406748affb4dcbc68f5d17ce3bf21b1e37d662a0831e56c2cdad26b"
                            },
                            {
                                "name": "v",
                                "type": "uint256",
                                "value": "28"
                            },
                            {
                                "name": "r",
                                "type": "bytes32",
                                "value": "0xec3952bec707aabce311142006e3aa060645486c53a7507dd5635c8747d88465"
                            },
                            {
                                "name": "s",
                                "type": "bytes32",
                                "value": "0x571eb8d27e5f0fa273f406d801c5409f34f8edaa22e68330ff725d3b2ffee2b5"
                            }
                        ],
                        "constructorArguments": "",
                        "name": "ecrecover",
                        "returnParams": [
                            {
                                "name": "",
                                "type": "address",
                                "value": "0x213e1e658609d3aa72421c9d55e896ac2eade4cc"
                            }
                        ],
                        "signature": "ecrecover(bytes32,uint256,bytes32,bytes32)"
                    },
                    "errorInfo": "",
                    "fromAddress": "0x2a0c0dbecc7e4d658f48e01e3fa353f44050c208",
                    "gasUsed": 3000,
                    "id": 2,
                    "methodDecoded": true,
                    "operation": "CALL",
                    "output": "0x000000000000000000000000213e1e658609d3aa72421c9d55e896ac2eade4cc",
                    "revert": false,
                    "revertMessage": "",
                    "selector": "0x38226b4f",
                    "status": true,
                    "value": "0"
                },
                "nodeType": 0
            }
        },
        "gasFlame": [
            {
                "children": [
                    {
                        "children": [
                            {
                                "children": [],
                                "depth": 0,
                                "name": "Initial Gas",
                                "value": 38104
                            },
                            {
                                "children": [
                                    {
                                        "children": [],
                                        "depth": 1,
                                        "name": "ecrecover",
                                        "value": 3000
                                    },
                                    {
                                        "children": [],
                                        "depth": 1,
                                        "name": "ecrecover",
                                        "value": 3000
                                    }
                                ],
                                "depth": 0,
                                "name": "Executed Gas",
                                "value": 89284
                            }
                        ],
                        "depth": -1,
                        "name": "Actual Gas Used",
                        "value": 127388
                    },
                    {
                        "children": [],
                        "depth": -1,
                        "name": "Refunded Gas",
                        "value": 0
                    }
                ],
                "depth": -2,
                "name": "Total Gas",
                "value": 127388
            }
        ],
        "isConfirmed": true,
        "mainTrace": [
            {
                "children": [
                    {
                        "children": [
                            {
                                "children": [],
                                "depth": 1,
                                "id": 1,
                                "order": 1
                            },
                            {
                                "children": [],
                                "depth": 1,
                                "id": 2,
                                "order": 2
                            }
                        ],
                        "depth": 0,
                        "id": 0,
                        "order": 0
                    }
                ],
                "depth": -1,
                "id": -1,
                "order": -1
            }
        ],
        "mainTraceNodeCount": 3,
        "parentIdMap": {
            "0": -1,
            "1": 0,
            "2": 0
        },
        "tidyTrace": [
            {
                "children": [
                    {
                        "children": [
                            {
                                "children": [],
                                "depth": 1,
                                "id": 1,
                                "order": 1
                            },
                            {
                                "children": [],
                                "depth": 1,
                                "id": 2,
                                "order": 2
                            }
                        ],
                        "depth": 0,
                        "id": 0,
                        "order": 0
                    }
                ],
                "depth": -1,
                "id": -1,
                "order": -1
            }
        ],
        "tidyTraceNodeCount": 3
    },
    "state_change": {
        "stateChanges": [
            {
                "address": "0x2a0c0dbecc7e4d658f48e01e3fa353f44050c208",
                "erc": "",
                "slots": [
                    {
                        "current": "0x00000000000000000000000000000000000000000000000000000000007556c5",
                        "key": "0x1d1d245f075a107d5b01c162fad66f659815046ee53bc392baf25c3a7c7e8787",
                        "prev": "0x0000000000000000000000000000000000000000000000000000000000753182"
                    },
                    {
                        "current": "0x0000000000000000000000000000000000000000000000197fa34a9228d98cfb",
                        "key": "0xe4c0b55d23b38261952f5de8c4b4a980e664fd75a24588cc349a49a0733c26cc",
                        "prev": "0x00000000000000000000000000000000000000000000001530bc7e562d7b479b"
                    },
                    {
                        "current": "0x00000000000000000000000000000000000000000000000000000000007556c5",
                        "key": "0x84998190599fc9b2e1f824be32bde2261425f1725ae16eef2a6436f2f00d4502",
                        "prev": "0x00000000000000000000000000000000000000000000000000000000007556aa"
                    },
                    {
                        "current": "0x00000000000000000000000000000000000000000000000012c613566db36000",
                        "key": "0x28a752d343a0d04f428d59d7bfd11415724272eef3e312e7fc5805160c1654a4",
                        "prev": "0x00000000000000000000000000000000000000000000000014d3e08db0756000"
                    },
                    {
                        "current": "0x00000000000000000000000000000000000000000000000072a78ba5baeb65e7",
                        "key": "0xeb6d52502d711a79a717d7d16920be584f1ad590a224a03a75717b48cd8b6ca4",
                        "prev": "0x000000000000000000000000000000000000000000000000709a45096796a5e7"
                    },
                    {
                        "current": "0x000000000000000000000000000000000000000000000005bc3672f5ce44f3ff",
                        "key": "0x3ccb72d91c5c66cba135a4135963ed23443b8a63817f501517468fcd5097e277",
                        "prev": "0x000000000000000000000000000000000000000000000005bc35ec5aded7b3ff"
                    },
                    {
                        "current": "0x0000000000000000000000000000000000000000000003a12cf27425e30cc746",
                        "key": "0xa9fa807977fec53e45202b289d19893cd3376eaed07a5293ed294951fafb15b3",
                        "prev": "0x0000000000000000000000000000000000000000000003a5832b8c4a324cc746"
                    },
                    {
                        "current": "0x000000000000000000000000000000000000000000000000cac03e1fb500446c",
                        "key": "0xe1c3cb4289033de5fa5a1569578bd53c6cb258e32cc13cbe56119e162a801935",
                        "prev": "0x000000000000000000000000000000000000000000000000c36df237611e89cc"
                    },
                    {
                        "current": "0x0000000000000000000000000000000000000000000000001bba526a053b0000",
                        "key": "0xce181b64659f082feca3d1970ee12ebc5f19ed76234410b445d8345fee453668",
                        "prev": "0x00000000000000000000000000000000000000000000000019ac8532c2790000"
                    },
                    {
                        "current": "0x0000000000000000000000000000000000000000000000000000000000000001",
                        "key": "0x47b1ee1414b496cef00b813f48b6da11a296693c5d82a75eeb014c7a1cfa32fe",
                        "prev": "0x0000000000000000000000000000000000000000000000000000000000000000"
                    }
                ],
                "storageVariables": [
                    {
                        "name": "lastActiveTransaction",
                        "type": "mapping(address => uint256)",
                        "value": {
                            "pairs": [
                                {
                                    "key": "0x213e1e658609d3aa72421c9d55e896ac2eade4cc",
                                    "value": {
                                        "current": "7689925",
                                        "prev": "7689898",
                                        "typeTag": 1
                                    }
                                },
                                {
                                    "key": "0x6d79d82ddcea5f12109851bbeeb16d7b8c9fdd97",
                                    "value": {
                                        "current": "7689925",
                                        "prev": "7680386",
                                        "typeTag": 1
                                    }
                                }
                            ],
                            "typeTag": 4
                        }
                    },
                    {
                        "name": "orderFills",
                        "type": "mapping(bytes32 => uint256)",
                        "value": {
                            "pairs": [
                                {
                                    "key": "0x1c02220fdd4b15e82025d0ed1ebda31afb1ad9db1a82ef419afbf870f9688937",
                                    "value": {
                                        "current": "1998000000000000000",
                                        "prev": "1850000000000000000",
                                        "typeTag": 1
                                    }
                                }
                            ],
                            "typeTag": 4
                        }
                    },
                    {
                        "name": "traded",
                        "type": "mapping(bytes32 => bool)",
                        "value": {
                            "pairs": [
                                {
                                    "key": "0xc50027ea507cb43a12c173aa078867993ed9c503e686f365c047f763c79a51d1",
                                    "value": {
                                        "current": "true",
                                        "prev": "false",
                                        "typeTag": 1
                                    }
                                }
                            ],
                            "typeTag": 4
                        }
                    },
                    {
                        "name": "tokens",
                        "type": "mapping(address => mapping(address => uint256))",
                        "value": {
                            "pairs": [
                                {
                                    "key": "0x0000000000000000000000000000000000000000",
                                    "value": {
                                        "pairs": [
                                            {
                                                "key": "0x034767f3c519f361c5ecf46ebfc08981c629d381",
                                                "value": {
                                                    "current": "105795874096473764863",
                                                    "prev": "105795726096473764863",
                                                    "typeTag": 1
                                                }
                                            },
                                            {
                                                "key": "0x213e1e658609d3aa72421c9d55e896ac2eade4cc",
                                                "value": {
                                                    "current": "1352790000000000000",
                                                    "prev": "1500790000000000000",
                                                    "typeTag": 1
                                                }
                                            },
                                            {
                                                "key": "0x6d79d82ddcea5f12109851bbeeb16d7b8c9fdd97",
                                                "value": {
                                                    "current": "8261725585356318183",
                                                    "prev": "8113873585356318183",
                                                    "typeTag": 1
                                                }
                                            }
                                        ],
                                        "typeTag": 4
                                    }
                                },
                                {
                                    "key": "0x6737fe98389ffb356f64ebb726aa1a92390d94fb",
                                    "value": {
                                        "pairs": [
                                            {
                                                "key": "0x034767f3c519f361c5ecf46ebfc08981c629d381",
                                                "value": {
                                                    "current": "14609745497091490924",
                                                    "prev": "14082177929523923404",
                                                    "typeTag": 1
                                                }
                                            },
                                            {
                                                "key": "0x213e1e658609d3aa72421c9d55e896ac2eade4cc",
                                                "value": {
                                                    "current": "470365878698370501883",
                                                    "prev": "390893446265938069403",
                                                    "typeTag": 1
                                                }
                                            },
                                            {
                                                "key": "0x6d79d82ddcea5f12109851bbeeb16d7b8c9fdd97",
                                                "value": {
                                                    "current": "17140264023264278136646",
                                                    "prev": "17220264023264278136646",
                                                    "typeTag": 1
                                                }
                                            }
                                        ],
                                        "typeTag": 4
                                    }
                                }
                            ],
                            "typeTag": 4
                        }
                    }
                ]
            }
        ]
    }
}