{
    "balance_change": {
        "balanceChanges": [
            {
                "account": "0xbb3ba4277d1499726aca5e54205a78de0e8104d6",
                "assets": [
                    {
                        "address": "0x2b591e99afe9f32eaa6214f7b7629768c40eeb39",
                        "amount": "6,076.39290568",
                        "iconUrl": "https://assets.blocksec.com/icon/095f9b44449785f7c45bb63956eff8a843b6ae503f7b4576f9d9f27351808b2a.png",
                        "isERC1155": false,
                        "isERC721": false,
                        "sign": true,
                        "value": ""
                    }
                ]
            },
            {
                "account": "0x0000000000000000000000000000000000000000",
                "assets": [
                    {
                        "address": "0x2b591e99afe9f32eaa6214f7b7629768c40eeb39",
                        "amount": "7,549.4578525",
                        "iconUrl": "https://assets.blocksec.com/icon/095f9b44449785f7c45bb63956eff8a843b6ae503f7b4576f9d9f27351808b2a.png",
                        "isERC1155": false,
                        "isERC721": false,
                        "sign": false,
                        "value": ""
                    }
                ]
            },
            {
                "account": "0x9a6a414d6f3497c05e3b1de90520765fa1e07c03",
                "assets": [
                    {
                        "address": "0x2b591e99afe9f32eaa6214f7b7629768c40eeb39",
                        "amount": "1,473.06494682",
                        "iconUrl": "https://assets.blocksec.com/icon/095f9b44449785f7c45bb63956eff8a843b6ae503f7b4576f9d9f27351808b2a.png",
                        "isERC1155": false,
                        "isERC721": false,
                        "sign": true,
                        "value": ""
                    }
                ]
            }
        ]
    },
    "profile": {
        "basic_info": {
            "baseFee": "",
            "blockNumber": 10217180,
            "callData": "0xcbb151d300000000000000000000000000000000000000000000000000000000000000ba0000000000000000000000000000000000000000000000000000000000000000",
            "debugEnable": true,
            "errorInfo": "",
            "eventCount": 3,
            "feeRecipient": "0x5a0b54d5dc17e0aadc383d2db43b0a0d3e029c4c",
            "formatValue": "0",
            "gasLimit": 81876,
            "gasPrice": "20",
            "gasUsed": 66876,
            "intTxnCount": 0,
            "internalRevert": false,
            "internalRevertMessage": "",
            "isContractCreation": false,
            "isFlashloan": false,
            "maxFee": "",
            "nonce": 453,
            "overwritedBlockNumber": -1,
            "priorityFee": "",
            "receiver": "0x2b591e99afe9f32eaa6214f7b7629768c40eeb39",
            "revertMessage": "",
            "sender": "0xbb3ba4277d1499726aca5e54205a78de0e8104d6",
            "simulationEnable": true,
            "sourceTxnHash": "0xe65ce2f1f5bfa667ce4fdf2eb5283bc255e3dbf512b652a8a0316852982cd3e8",
            "status": true,
            "timestamp": "2020-06-07T06:48:47Z",
            "transactionFee": "0.00133752",
            "txnHash": "0xe65ce2f1f5bfa667ce4fdf2eb5283bc255e3dbf512b652a8a0316852982cd3e8",
            "txnIndex": 90,
            "type": 0,
            "value": "0"
        },
        "fund_flow": [
            {
                "amount": "1,473.06494682",
                "from": "0x0000000000000000000000000000000000000000",
                "id": 1,
                "isERC1155": false,
                "isERC721": false,
                "isReverted": false,
                "order": 1,
                "to": "0x9a6a414d6f3497c05e3b1de90520765fa1e07c03",
                "token": "0x2b591e99afe9f32eaa6214f7b7629768c40eeb39"
            },
            {
                "amount": "6,076.39290568",
                "from": "0x0000000000000000000000000000000000000000",
                "id": 2,
                "isERC1155": false,
                "isERC721": false,
                "isReverted": false,
                "order": 2,
                "to": "0xbb3ba4277d1499726aca5e54205a78de0e8104d6",
                "token": "0x2b591e99afe9f32eaa6214f7b7629768c40eeb39"
            }
        ],
        "token_infos": [
            {
                "address": "0xc02aaa39b223fe8d0a0e5c4f27ead9083c756cc2",
                "decimals": 18
            },
            {
                "address": "0xeeeeeeeeeeeeeeeeeeeeeeeeeeeeeeeeeeeeeeee",
                "decimals": 18
            },
            {
                "address": "0x2b591e99afe9f32eaa6214f7b7629768c40eeb39",
                "decimals": 8
            }
        ]
    },
    "address_label": {
        "labels": [
            {
                "address": "0x2b591e99afe9f32eaa6214f7b7629768c40eeb39",
                "label": "HEX.com: HEX Token"
            },
            {
                "address": "0x0000000000000000000000000000000000000001",
                "label": "Precompiled"
            },
            {
                "address": "0x0000000000000000000000000000000000000002",
                "label": "Precompiled"
            },
            {
                "address": "0x0000000000000000000000000000000000000003",
                "label": "Precompiled"
            },
            {
                "address": "0x0000000000000000000000000000000000000004",
                "label": "Precompiled"
            },
            {
                "address": "0xeeeeeeeeeeeeeeeeeeeeeeeeeeeeeeeeeeeeeeee",
                "label": "Ether"
            }
        ]
    },
    "trace": {
        "accountLabels": null,
        "dataMap": {
            "-1": {
                "invocation": {
                    "address": "0xbb3ba4277d1499726aca5e54205a78de0e8104d6",
                    "callData": "",
                    "decodedMethod": null,
                    "errorInfo": "",
                    "fromAddress": "",
                    "gasUsed": 0,
                    "id": -1,
                    "methodDecoded": false,
                    "operation": "",
                    "output": "",
                    "revert": false,
                    "revertMessage": "",
                    "selector": "",
                    "status": false,
                    "value": ""
                },
                "nodeType": 0
            },
            "0": {
                "invocation": {
                    "address": "0x2b591e99afe9f32eaa6214f7b7629768c40eeb39",
                    "callData": "0x00000000000000000000000000000000000000000000000000000000000000ba0000000000000000000000000000000000000000000000000000000000000000",
                    "decodedMethod": {
                        "callParams": [
                            {
                                "name": "enterDay",
                                "type": "uint256",
                                "value": "186"
                            },
                            {
                                "name": "count",
                                "type": "uint256",
                                "value": "0"
                            }
                        ],
                        "constructorArguments": "",
                        "name": "xfLobbyExit",
                        "returnParams": [],
                        "signature": "xfLobbyExit(uint256,uint256)"
                    },
                    "errorInfo": "",
                    "fromAddress": "0xbb3ba4277d1499726aca5e54205a78de0e8104d6",
                    "gasUsed": 66876,
                    "id": 0,
                    "methodDecoded": true,
                    "operation": "CALL",
                    "output": "",
                    "revert": false,
                    "revertMessage": "",
                    "selector": "0xcbb151d3",
                    "status": true,
                    "value": "0"
                },
                "nodeType": 0
            },
            "1": {
                "event": {
                    "contract": "0x2b591e99afe9f32eaa6214f7b7629768c40eeb39",
                    "decodedLog": {
                        "name": "XfLobbyExit",
                        "params": [
                            {
                                "name": "memberAddr",
                                "type": "address",
                                "value": "0xbb3ba4277d1499726aca5e54205a78de0e8104d6"
                            },
                            {
                                "name": "entryId",
                                "type": "uint256",
                                "value": "204,509,162,766,336"
                            },
                            {
                                "name": "referrerAddr",
                                "type": "address",
                                "value": "0xbb3ba4277d1499726aca5e54205a78de0e8104d6"
                            },
                            {
                                "name": "data0",
                                "type": "uint256",
                                "value": "668,106,465,473,077,115,129,295"
                            }
                        ],
                        "signature": "XfLobbyExit(uint256,address,uint256,address)"
                    },
                    "id": 1,
                    "logData": "0x000000000000000000000000000000000000000000008d7a1fc2c8005edc8dcf",
                    "logDecoded": true,
                    "operation": "EVENT",
                    "revert": false,
                    "status": true,
                    "topics": [
                        "0xa6b19fa7f41317a186e1d58e9d81f86a52f1102b6bce10b4eca83f37aaa58468",
                        "0x000000000000000000000000bb3ba4277d1499726aca5e54205a78de0e8104d6",
                        "0x0000000000000000000000000000000000000000000000000000ba0000000000",
                        "0x000000000000000000000000bb3ba4277d1499726aca5e54205a78de0e8104d6"
                    ]
                },
                "nodeType": 1
            },
            "2": {
                "event": {
                    "contract": "0x2b591e99afe9f32eaa6214f7b7629768c40eeb39",
                    "decodedLog": {
                        "name": "Transfer",
                        "params": [
                            {
                                "name": "from",
                                "type": "address",
                                "value": "0x0000000000000000000000000000000000000000"
                            },
                            {
                                "name": "to",
                                "type": "address",
                                "value": "0x9a6a414d6f3497c05e3b1de90520765fa1e07c03"
                            },
                            {
                                "decimalAvailable": true,
                                "name": "value",
                                "type": "uint256",
                                "value": "147,306,494,682"
                            }
                        ],
                        "signature": "Transfer(address,address,uint256)"
                    },
                    "id": 2,
                    "logData": "0x000000000000000000000000000000000000000000000000000000224c26bada",
                    "logDecoded": true,
                    "operation": "EVENT",
                    "revert": false,
                    "status": true,
                    "topics": [
                        "0xddf252ad1be2c89b69c2b068fc378daa952ba7f163c4a11628f55a4df523b3ef",
                        "0x0000000000000000000000000000000000000000000000000000000000000000",
                        "0x0000000000000000000000009a6a414d6f3497c05e3b1de90520765fa1e07c03"
                    ]
                },
                "nodeType": 1
            },
            "3": {
                "event": {
                    "contract": "0x2b591e99afe9f32eaa6214f7b7629768c40eeb39",
                    "decodedLog": {
                        "name": "Transfer",
                        "params": [
                            {
                                "name": "from",
                                "type": "address",
                                "value": "0x0000000000000000000000000000000000000000"
                            },
                            {
                                "name": "to",
                                "type": "address",
                                "value": "0xbb3ba4277d1499726aca5e54205a78de0e8104d6"
                            },
                            {
                                "decimalAvailable": true,
                                "name": "value",
                                "type": "uint256",
                                "value": "607,639,290,568"
                            }
                        ],
                        "signature": "Transfer(address,address,uint256)"
                    },
                    "id": 3,
                    "logData": "0x0000000000000000000000000000000000000000000000000000008d7a1fc2c8",
                    "logDecoded": true,
                    "operation": "EVENT",
                    "revert": false,
                    "status": true,
                    "topics": [
                        "0xddf252ad1be2c89b69c2b068fc378daa952ba7f163c4a11628f55a4df523b3ef",
                        "0x0000000000000000000000000000000000000000000000000000000000000000",
                        "0x000000000000000000000000bb3ba4277d1499726aca5e54205a78de0e8104d6"
                    ]
                },
                "nodeType": 1
            }
        },
        "gasFlame": [
            {
                "children": [
                    {
                        "children": [
                            {
                                "children": [],
                                "depth": 0,
                                "name": "Initial Gas",
                                "value": 21332
                            },
                            {
                                "children": [],
                                "depth": 0,
                                "name": "Executed Gas",
                                "value": 60544
                            }
                        ],
                        "depth": -1,
                        "name": "Actual Gas Used",
                        "value": 66876
                    },
                    {
                        "children": [],
                        "depth": -1,
                        "name": "Refunded Gas",
                        "value": 15000
                    }
                ],
                "depth": -2,
                "name": "Total Gas",
                "value": 81876
            }
        ],
        "isConfirmed": true,
        "mainTrace": [
            {
                "children": [
                    {
                        "children": [
                            {
                                "children": [],
                                "depth": 1,
                                "id": 1,
                                "order": 1
                            },
                            {
                                "children": [],
                                "depth": 1,
                                "id": 2,
                                "order": 2
                            },
                            {
                                "children": [],
                                "depth": 1,
                                "id": 3,
                                "order": 3
                            }
                        ],
                        "depth": 0,
                        "id": 0,
                        "order": 0
                    }
                ],
                "depth": -1,
                "id": -1,
                "order": -1
            }
        ],
        "mainTraceNodeCount": 4,
        "parentIdMap": {
            "0": -1,
            "1": 0,
            "2": 0,
            "3": 0
        },
        "tidyTrace": [
            {
                "children": [
                    {
                        "children": [
                            {
                                "children": [],
                                "depth": 1,
                                "id": 1,
                                "order": 1
                            },
                            {
                                "children": [],
                                "depth": 1,
                                "id": 2,
                                "order": 2
                            },
                            {
                                "children": [],
                                "depth": 1,
                                "id": 3,
                                "order": 3
                            }
                        ],
                        "depth": 0,
                        "id": 0,
                        "order": 0
                    }
                ],
                "depth": -1,
                "id": -1,
                "order": -1
            }
        ],
        "tidyTraceNodeCount": 4
    },
    "state_change": {
        "stateChanges": [
            {
                "address": "0x2b591e99afe9f32eaa6214f7b7629768c40eeb39",
                "erc": "ERC-20",
                "slots": [
                    {
                        "current": "0x0000000000000000000000000000000000000000000000000000010000000001",
                        "key": "0x006d370e1d8b4a687f676302fb30045968288d062bf020839a9ab82232d52de7",
                        "prev": "0x0000000000000000000000000000000000000000000000000000010000000000"
                    },
                    {
                        "current": "0x0000000000000000000000000000000000000000000000011495cb9132a77261",
                        "key": "0x0000000000000000000000000000000000000000000000000000000000000002",
                        "prev": "0x0000000000000000000000000000000000000000000000011495cae16c60f4bf"
                    },
                    {
                        "current": "0x0000000000000000000000000000000000000000000000000937bd93835f2ebc",
                        "key": "0xeb60b90da10420aa177acf4901d8bf9dc896f1b6a6736e8a4c587042f1830c24",
                        "prev": "0x0000000000000000000000000000000000000000000000000937bd71373873e2"
                    },
                    {
                        "current": "0x0000000000000000000000000000000000000000000000000000008d7a1fc2c8",
                        "key": "0x41a13b2ebb1498e44c3bb80f4e266bff7b0c213ff53a5602d1ce3c68c940f1b3",
                        "prev": "0x0000000000000000000000000000000000000000000000000000000000000000"
                    },
                    {
                        "current": "0x0000000000000000000000000000000000000000000000000000000000000000",
                        "key": "0x18db91ca4e4f24a0b2ff1e671d5cea6d7c6a940bc16d33fb456ea17cbc47f2f2",
                        "prev": "0xbb3ba4277d1499726aca5e54205a78de0e8104d600000000016345785d8a0000"
                    }
                ],
                "storageVariables": [
                    {
                        "name": "xfLobbyMembers",
                        "type": "mapping(uint256 => mapping(address => struct GlobalsAndUtility.XfLobbyQueueStore))",
                        "value": {
                            "pairs": [
                                {
                                    "key": "186",
                                    "value": {
                                        "pairs": [
                                            {
                                                "key": "0xbb3ba4277d1499726aca5e54205a78de0e8104d6",
                                                "value": {
                                                    "fields": [
                                                        {
                                                            "name": "headIndex",
                                                            "type": "uint40",
                                                            "value": {
                                                                "current": "1",
                                                                "prev": "0",
                                                                "typeTag": 1
                                                            }
                                                        },
                                                        {
                                                            "name": "tailIndex",
                                                            "type": "uint40",
                                                            "value": {
                                                                "current": "1",
                                                                "prev": "1",
                                                                "typeTag": 1
                                                            }
                                                        },
                                                        {
                                                            "name": "entries",
                                                            "type": "mapping(uint256 => struct GlobalsAndUtility.XfLobbyEntryStore)",
                                                            "value": {
                                                                "pairs": [
                                                                    {
                                                                        "key": "0",
                                                                        "value": {
                                                                            "fields": [
                                                                                {
                                                                                    "name": "rawAmount",
                                                                                    "type": "uint96",
                                                                                    "value": {
                                                                                        "current": "0",
                                                                                        "prev": "100000000000000000",
                                                                                        "typeTag": 1
                                                                                    }
                                                                                },
                                                                                {
                                                                                    "name": "referrerAddr",
                                                                                    "type": "address",
                                                                                    "value": {
                                                                                        "current": "0x0000000000000000000000000000000000000000",
                                                                                        "prev": "0xbb3ba4277d1499726aca5e54205a78de0e8104d6",
                                                                                        "typeTag": 1
                                                                                    }
                                                                                }
                                                                            ],
                                                                            "typeTag": 3
                                                                        }
                                                                    }
                                                                ],
                                                                "typeTag": 4
                                                            }
                                                        }
                                                    ],
                                                    "typeTag": 3
                                                }
                                            }
                                        ],
                                        "typeTag": 4
                                    }
                                }
                            ],
                            "typeTag": 4
                        }
                    },
                    {
                        "name": "_totalSupply",
                        "type": "uint256",
                        "value": {
                            "current": "19930059550478529121",
                            "prev": "19930058795532743871",
                            "typeTag": 1
                        }
                    },
                    {
                        "name": "_balances",
                        "type": "mapping(address => uint256)",
                        "value": {
                            "pairs": [
                                {
                                    "key": "0x9a6a414d6f3497c05e3b1de90520765fa1e07c03",
                                    "value": {
                                        "current": "664207911322332860",
                                        "prev": "664207764015838178",
                                        "typeTag": 1
                                    }
                                },
                                {
                                    "key": "0xbb3ba4277d1499726aca5e54205a78de0e8104d6",
                                    "value": {
                                        "current": "607639290568",
                                        "prev": "0",
                                        "typeTag": 1
                                    }
                                }
                            ],
                            "typeTag": 4
                        }
                    }
                ]
            }
        ]
    }
}