{
    "balance_change": {
        "balanceChanges": [
            {
                "account": "0x676a7bedbea0380f11270fedda17b535bf5fc228",
                "assets": [
                    {
                        "address": "0xb72c794effb775197287d767ca80c22ae9094cb5",
                        "amount": "137.5871",
                        "iconUrl": "",
                        "isERC1155": false,
                        "isERC721": false,
                        "sign": false,
                        "value": ""
                    }
                ]
            },
            {
                "account": "0x6b56dceb02c4d19bf4493f73d98807170b533b1b",
                "assets": [
                    {
                        "address": "0xb72c794effb775197287d767ca80c22ae9094cb5",
                        "amount": "137.5871",
                        "iconUrl": "",
                        "isERC1155": false,
                        "isERC721": false,
                        "sign": true,
                        "value": ""
                    }
                ]
            }
        ]
    },
    "profile": {
        "basic_info": {
            "baseFee": "",
            "blockNumber": 9944061,
            "callData": "0xa9059cbb0000000000000000000000006b56dceb02c4d19bf4493f73d98807170b533b1b0000000000000000000000000000000000000000000000077567927b7825c000",
            "debugEnable": true,
            "errorInfo": "",
            "eventCount": 1,
            "feeRecipient": "0x829bd824b016326a401d083b33d092293333a830",
            "formatValue": "0",
            "gasLimit": 100000,
            "gasPrice": "20",
            "gasUsed": 36383,
            "intTxnCount": 0,
            "internalRevert": false,
            "internalRevertMessage": "",
            "isContractCreation": false,
            "isFlashloan": false,
            "maxFee": "",
            "nonce": 6975,
            "overwritedBlockNumber": -1,
            "priorityFee": "",
            "receiver": "0xb72c794effb775197287d767ca80c22ae9094cb5",
            "revertMessage": "",
            "sender": "0x676a7bedbea0380f11270fedda17b535bf5fc228",
            "simulationEnable": true,
            "sourceTxnHash": "0xe60a135674652eb47d7a8c0fd4abef155b9b1589f3108acd2df700b222608507",
            "status": true,
            "timestamp": "2020-04-25T21:31:42Z",
            "transactionFee": "0.00072766",
            "txnHash": "0xe60a135674652eb47d7a8c0fd4abef155b9b1589f3108acd2df700b222608507",
            "txnIndex": 4,
            "type": 0,
            "value": "0"
        },
        "fund_flow": [
            {
                "amount": "137.5871",
                "from": "0x676a7bedbea0380f11270fedda17b535bf5fc228",
                "id": 1,
                "isERC1155": false,
                "isERC721": false,
                "isReverted": false,
                "order": 1,
                "to": "0x6b56dceb02c4d19bf4493f73d98807170b533b1b",
                "token": "0xb72c794effb775197287d767ca80c22ae9094cb5"
            }
        ],
        "token_infos": [
            {
                "address": "0xc02aaa39b223fe8d0a0e5c4f27ead9083c756cc2",
                "decimals": 18
            },
            {
                "address": "0xeeeeeeeeeeeeeeeeeeeeeeeeeeeeeeeeeeeeeeee",
                "decimals": 18
            },
            {
                "address": "0xb72c794effb775197287d767ca80c22ae9094cb5",
                "decimals": 18
            }
        ]
    },
    "address_label": {
        "labels": [
            {
                "address": "0x0000000000000000000000000000000000000004",
                "label": "Precompiled"
            },
            {
                "address": "0xeeeeeeeeeeeeeeeeeeeeeeeeeeeeeeeeeeeeeeee",
                "label": "Ether"
            },
            {
                "address": "0xb72c794effb775197287d767ca80c22ae9094cb5",
                "label": "SCDSTOKEN (SCDS)"
            },
            {
                "address": "0x0000000000000000000000000000000000000001",
                "label": "Precompiled"
            },
            {
                "address": "0x0000000000000000000000000000000000000002",
                "label": "Precompiled"
            },
            {
                "address": "0x0000000000000000000000000000000000000003",
                "label": "Precompiled"
            }
        ]
    },
    "trace": {
        "accountLabels": null,
        "dataMap": {
            "-1": {
                "invocation": {
                    "address": "0x676a7bedbea0380f11270fedda17b535bf5fc228",
                    "callData": "",
                    "decodedMethod": null,
                    "errorInfo": "",
                    "fromAddress": "",
                    "gasUsed": 0,
                    "id": -1,
                    "methodDecoded": false,
                    "operation": "",
                    "output": "",
                    "revert": false,
                    "revertMessage": "",
                    "selector": "",
                    "status": false,
                    "value": ""
                },
                "nodeType": 0
            },
            "0": {
                "invocation": {
                    "address": "0xb72c794effb775197287d767ca80c22ae9094cb5",
                    "callData": "0x0000000000000000000000006b56dceb02c4d19bf4493f73d98807170b533b1b0000000000000000000000000000000000000000000000077567927b7825c000",
                    "decodedMethod": {
                        "callParams": [
                            {
                                "name": "recipient",
                                "type": "address",
                                "value": "0x6b56dceb02c4d19bf4493f73d98807170b533b1b"
                            },
                            {
                                "decimalAvailable": true,
                                "name": "amount",
                                "type": "uint256",
                                "value": "137,587,100,000,000,000,000"
                            }
                        ],
                        "constructorArguments": "",
                        "name": "transfer",
                        "returnParams": [
                            {
                                "name": "",
                                "type": "bool",
                                "value": true
                            }
                        ],
                        "signature": "transfer(address,uint256)"
                    },
                    "errorInfo": "",
                    "fromAddress": "0x676a7bedbea0380f11270fedda17b535bf5fc228",
                    "gasUsed": 36383,
                    "id": 0,
                    "methodDecoded": true,
                    "operation": "CALL",
                    "output": "0x0000000000000000000000000000000000000000000000000000000000000001",
                    "revert": false,
                    "revertMessage": "",
                    "selector": "0xa9059cbb",
                    "status": true,
                    "value": "0"
                },
                "nodeType": 0
            },
            "1": {
                "event": {
                    "contract": "0xb72c794effb775197287d767ca80c22ae9094cb5",
                    "decodedLog": {
                        "name": "Transfer",
                        "params": [
                            {
                                "name": "from",
                                "type": "address",
                                "value": "0x676a7bedbea0380f11270fedda17b535bf5fc228"
                            },
                            {
                                "name": "to",
                                "type": "address",
                                "value": "0x6b56dceb02c4d19bf4493f73d98807170b533b1b"
                            },
                            {
                                "decimalAvailable": true,
                                "name": "value",
                                "type": "uint256",
                                "value": "137,587,100,000,000,000,000"
                            }
                        ],
                        "signature": "Transfer(address,address,uint256)"
                    },
                    "id": 1,
                    "logData": "0x0000000000000000000000000000000000000000000000077567927b7825c000",
                    "logDecoded": true,
                    "operation": "EVENT",
                    "revert": false,
                    "status": true,
                    "topics": [
                        "0xddf252ad1be2c89b69c2b068fc378daa952ba7f163c4a11628f55a4df523b3ef",
                        "0x000000000000000000000000676a7bedbea0380f11270fedda17b535bf5fc228",
                        "0x0000000000000000000000006b56dceb02c4d19bf4493f73d98807170b533b1b"
                    ]
                },
                "nodeType": 1
            }
        },
        "gasFlame": [
            {
                "children": [
                    {
                        "children": [
                            {
                                "children": [],
                                "depth": 0,
                                "name": "Initial Gas",
                                "value": 21656
                            },
                            {
                                "children": [],
                                "depth": 0,
                                "name": "Executed Gas",
                                "value": 14727
                            }
                        ],
                        "depth": -1,
                        "name": "Actual Gas Used",
                        "value": 36383
                    },
                    {
                        "children": [],
                        "depth": -1,
                        "name": "Refunded Gas",
                        "value": 0
                    }
                ],
                "depth": -2,
                "name": "Total Gas",
                "value": 36383
            }
        ],
        "isConfirmed": true,
        "mainTrace": [
            {
                "children": [
                    {
                        "children": [
                            {
                                "children": [],
                                "depth": 1,
                                "id": 1,
                                "order": 1
                            }
                        ],
                        "depth": 0,
                        "id": 0,
                        "order": 0
                    }
                ],
                "depth": -1,
                "id": -1,
                "order": -1
            }
        ],
        "mainTraceNodeCount": 2,
        "parentIdMap": {
            "0": -1,
            "1": 0
        },
        "tidyTrace": [
            {
                "children": [
                    {
                        "children": [
                            {
                                "children": [],
                                "depth": 1,
                                "id": 1,
                                "order": 1
                            }
                        ],
                        "depth": 0,
                        "id": 0,
                        "order": 0
                    }
                ],
                "depth": -1,
                "id": -1,
                "order": -1
            }
        ],
        "tidyTraceNodeCount": 2
    },
    "state_change": {
        "stateChanges": [
            {
                "address": "0xb72c794effb775197287d767ca80c22ae9094cb5",
                "erc": "ERC-20",
                "slots": [
                    {
                        "current": "0x00000000000000000000000000000000000000000000509f110af486e1323000",
                        "key": "0x4765fefdd4b52f8dd2b98500f6171a1360e34f41c179c582dd4d902ffc4e5860",
                        "prev": "0x0000000000000000000000000000000000000000000050a6867287025957f000"
                    },
                    {
                        "current": "0x000000000000000000000000000000000000000000000007756793644ccab000",
                        "key": "0x5dcbb43a8e482194a549407a5bf4cb872865dc0800355accd2216d220890d49d",
                        "prev": "0x000000000000000000000000000000000000000000000000000000e8d4a4f000"
                    }
                ],
                "storageVariables": [
                    {
                        "name": "_balances",
                        "type": "mapping(address => uint256)",
                        "value": {
                            "pairs": [
                                {
                                    "key": "0x676a7bedbea0380f11270fedda17b535bf5fc228",
                                    "value": {
                                        "current": "380723578999999988641792",
                                        "prev": "380861166099999988641792",
                                        "typeTag": 1
                                    }
                                },
                                {
                                    "key": "0x6b56dceb02c4d19bf4493f73d98807170b533b1b",
                                    "value": {
                                        "current": "137587100999999991808",
                                        "prev": "999999991808",
                                        "typeTag": 1
                                    }
                                }
                            ],
                            "typeTag": 4
                        }
                    }
                ]
            }
        ]
    }
}