{
    "balance_change": {
        "balanceChanges": []
    },
    "profile": {
        "basic_info": {
            "baseFee": "31.280104286",
            "blockNumber": 19281386,
            "callData": "0x000001862f6244420000000000000000000000000000000000000000000000000058d15e1762800000000000000000000000000000000000000000000000000000012a3ad47eb14500000000000000000000000000000000000000000000000000000000000000cd0000000000000000000000005dd404e36dfc4991addb2217ee2ab61fc02e4c4f0000000000000000000000000000000000000000000000000000000000000144000000000000000000000000000000000000000000000000000000000005b7db0000000000000000000000000000000000000000000000000000000000000320",
            "debugEnable": true,
            "errorInfo": "execution reverted",
            "eventCount": 0,
            "feeRecipient": "0x95222290dd7278aa3ddd389cc1e1d165cc4bafe5",
            "formatValue": "0.025327907138253125",
            "gasLimit": 198394,
            "gasPrice": "31.304919607",
            "gasUsed": 58151,
            "intTxnCount": 3,
            "internalRevert": true,
            "internalRevertMessage": "",
            "isContractCreation": false,
            "isFlashloan": false,
            "maxFee": "41.417342323",
            "nonce": 13,
            "overwritedBlockNumber": -1,
            "priorityFee": "0.024815321",
            "receiver": "0x3a23f943181408eac424116af7b7790c94cb97a5",
            "revertMessage": "mv",
            "sender": "0x5dd404e36dfc4991addb2217ee2ab61fc02e4c4f",
            "simulationEnable": true,
            "sourceTxnHash": "0xe6e1a58039f7777ccaa4adc1ae88b075e44de679a8cd80cfe5a2f312e319a897",
            "status": false,
            "timestamp": "2024-02-22T06:30:47Z",
            "transactionFee": "0.001820412380066657",
            "txnHash": "0xe6e1a58039f7777ccaa4adc1ae88b075e44de679a8cd80cfe5a2f312e319a897",
            "txnIndex": 123,
            "type": 2,
            "value": "25327907138253125"
        },
        "fund_flow": [],
        "token_infos": [
            {
                "address": "0xc02aaa39b223fe8d0a0e5c4f27ead9083c756cc2",
                "decimals": 18
            },
            {
                "address": "0xeeeeeeeeeeeeeeeeeeeeeeeeeeeeeeeeeeeeeeee",
                "decimals": 18
            }
        ]
    },
    "address_label": {
        "labels": [
            {
                "address": "0x0f58fd6c9ed966e09c1dffbc8e6ff600ec65f6eb",
                "label": "MailboxFacet"
            },
            {
                "address": "0x0000000000000000000000000000000000000001",
                "label": "Precompiled"
            },
            {
                "address": "0x0000000000000000000000000000000000000004",
                "label": "Precompiled"
            },
            {
                "address": "0x32400084c286cf3e17e7b677ea9583e60a000324",
                "label": "zkSync Era: Diamond Proxy"
            },
            {
                "address": "0x3a23f943181408eac424116af7b7790c94cb97a5",
                "label": "Socket: Gateway"
            },
            {
                "address": "0x0000000000000000000000000000000000000002",
                "label": "Precompiled"
            },
            {
                "address": "0x0000000000000000000000000000000000000003",
                "label": "Precompiled"
            },
            {
                "address": "0xeeeeeeeeeeeeeeeeeeeeeeeeeeeeeeeeeeeeeeee",
                "label": "Ether"
            },
            {
                "address": "0x2fa9fd7259a1634666916f5a597dfe99029dfc67",
                "label": "ZkSyncBridgeImpl"
            }
        ]
    },
    "trace": {
        "accountLabels": null,
        "dataMap": {
            "-1": {
                "invocation": {
                    "address": "0x5dd404e36dfc4991addb2217ee2ab61fc02e4c4f",
                    "callData": "",
                    "decodedMethod": null,
                    "errorInfo": "",
                    "fromAddress": "",
                    "gasUsed": 0,
                    "id": -1,
                    "methodDecoded": false,
                    "operation": "",
                    "output": "",
                    "revert": false,
                    "revertMessage": "",
                    "selector": "",
                    "status": false,
                    "value": ""
                },
                "nodeType": 0
            },
            "0": {
                "invocation": {
                    "address": "0x3a23f943181408eac424116af7b7790c94cb97a5",
                    "callData": "0x2f6244420000000000000000000000000000000000000000000000000058d15e1762800000000000000000000000000000000000000000000000000000012a3ad47eb14500000000000000000000000000000000000000000000000000000000000000cd0000000000000000000000005dd404e36dfc4991addb2217ee2ab61fc02e4c4f0000000000000000000000000000000000000000000000000000000000000144000000000000000000000000000000000000000000000000000000000005b7db0000000000000000000000000000000000000000000000000000000000000320",
                    "decodedMethod": null,
                    "errorInfo": "execution reverted",
                    "fromAddress": "0x5dd404e36dfc4991addb2217ee2ab61fc02e4c4f",
                    "gasUsed": 58151,
                    "id": 0,
                    "methodDecoded": false,
                    "operation": "CALL",
                    "output": "0x08c379a0000000000000000000000000000000000000000000000000000000000000002000000000000000000000000000000000000000000000000000000000000000026d76000000000000000000000000000000000000000000000000000000000000",
                    "revert": true,
                    "revertMessage": "mv",
                    "selector": "0x00000186",
                    "status": false,
                    "value": "0.025327907138253125"
                },
                "nodeType": 0
            },
            "1": {
                "invocation": {
                    "address": "0x2fa9fd7259a1634666916f5a597dfe99029dfc67",
                    "callData": "0x0000000000000000000000000000000000000000000000000058d15e1762800000000000000000000000000000000000000000000000000000012a3ad47eb14500000000000000000000000000000000000000000000000000000000000000cd0000000000000000000000005dd404e36dfc4991addb2217ee2ab61fc02e4c4f0000000000000000000000000000000000000000000000000000000000000144000000000000000000000000000000000000000000000000000000000005b7db0000000000000000000000000000000000000000000000000000000000000320",
                    "decodedMethod": {
                        "callParams": [
                            {
                                "name": "amount",
                                "type": "uint256",
                                "value": "25,000,000,000,000,000"
                            },
                            {
                                "name": "fees",
                                "type": "uint256",
                                "value": "327,907,138,253,125"
                            },
                            {
                                "name": "metadata",
                                "type": "bytes32",
                                "value": "0x00000000000000000000000000000000000000000000000000000000000000cd"
                            },
                            {
                                "name": "receiverAddress",
                                "type": "address",
                                "value": "0x5dd404e36dfc4991addb2217ee2ab61fc02e4c4f"
                            },
                            {
                                "name": "toChainId",
                                "type": "uint256",
                                "value": "324"
                            },
                            {
                                "name": "l2TxGasLimit",
                                "type": "uint256",
                                "value": "374,747"
                            },
                            {
                                "name": "l2TxGasPerPubdataByte",
                                "type": "uint256",
                                "value": "800"
                            }
                        ],
                        "constructorArguments": "",
                        "name": "bridgeNativeTo",
                        "returnParams": [],
                        "signature": "bridgeNativeTo(uint256,uint256,bytes32,address,uint256,uint256,uint256)"
                    },
                    "errorInfo": "execution reverted",
                    "fromAddress": "0x3a23f943181408eac424116af7b7790c94cb97a5",
                    "gasUsed": 30261,
                    "id": 1,
                    "methodDecoded": true,
                    "operation": "DELEGATECALL",
                    "output": "0x08c379a0000000000000000000000000000000000000000000000000000000000000002000000000000000000000000000000000000000000000000000000000000000026d76000000000000000000000000000000000000000000000000000000000000",
                    "revert": true,
                    "revertMessage": "mv",
                    "selector": "0x2f624442",
                    "status": false,
                    "value": "0.025327907138253125"
                },
                "nodeType": 0
            },
            "2": {
                "invocation": {
                    "address": "0x32400084c286cf3e17e7b677ea9583e60a000324",
                    "callData": "0x0000000000000000000000005dd404e36dfc4991addb2217ee2ab61fc02e4c4f0000000000000000000000000000000000000000000000000058d15e1762800000000000000000000000000000000000000000000000000000000000000000e0000000000000000000000000000000000000000000000000000000000005b7db000000000000000000000000000000000000000000000000000000000000032000000000000000000000000000000000000000000000000000000000000001200000000000000000000000005dd404e36dfc4991addb2217ee2ab61fc02e4c4f000000000000000000000000000000000000000000000000000000000000000230780000000000000000000000000000000000000000000000000000000000000000000000000000000000000000000000000000000000000000000000000000",
                    "decodedMethod": {
                        "callParams": [
                            {
                                "name": "_contractL2",
                                "type": "address",
                                "value": "0x5dd404e36dfc4991addb2217ee2ab61fc02e4c4f"
                            },
                            {
                                "name": "_l2Value",
                                "type": "uint256",
                                "value": "25,000,000,000,000,000"
                            },
                            {
                                "name": "_calldata",
                                "type": "bytes",
                                "value": "0x3078"
                            },
                            {
                                "name": "_l2GasLimit",
                                "type": "uint256",
                                "value": "374,747"
                            },
                            {
                                "name": "_l2GasPerPubdataByteLimit",
                                "type": "uint256",
                                "value": "800"
                            },
                            {
                                "name": "_factoryDeps",
                                "type": "bytes[]",
                                "value": []
                            },
                            {
                                "name": "_refundRecipient",
                                "type": "address",
                                "value": "0x5dd404e36dfc4991addb2217ee2ab61fc02e4c4f"
                            }
                        ],
                        "constructorArguments": "",
                        "name": "requestL2Transaction",
                        "returnParams": [],
                        "signature": "requestL2Transaction(address,uint256,bytes,uint256,uint256,bytes[],address)"
                    },
                    "errorInfo": "execution reverted",
                    "fromAddress": "0x3a23f943181408eac424116af7b7790c94cb97a5",
                    "gasUsed": 19780,
                    "id": 2,
                    "methodDecoded": true,
                    "operation": "CALL",
                    "output": "0x08c379a0000000000000000000000000000000000000000000000000000000000000002000000000000000000000000000000000000000000000000000000000000000026d76000000000000000000000000000000000000000000000000000000000000",
                    "revert": true,
                    "revertMessage": "mv",
                    "selector": "0xeb672419",
                    "status": false,
                    "value": "0.025327907138253125"
                },
                "nodeType": 0
            },
            "3": {
                "invocation": {
                    "address": "0x0f58fd6c9ed966e09c1dffbc8e6ff600ec65f6eb",
                    "callData": "0x0000000000000000000000005dd404e36dfc4991addb2217ee2ab61fc02e4c4f0000000000000000000000000000000000000000000000000058d15e1762800000000000000000000000000000000000000000000000000000000000000000e0000000000000000000000000000000000000000000000000000000000005b7db000000000000000000000000000000000000000000000000000000000000032000000000000000000000000000000000000000000000000000000000000001200000000000000000000000005dd404e36dfc4991addb2217ee2ab61fc02e4c4f000000000000000000000000000000000000000000000000000000000000000230780000000000000000000000000000000000000000000000000000000000000000000000000000000000000000000000000000000000000000000000000000",
                    "decodedMethod": {
                        "callParams": [
                            {
                                "name": "_contractL2",
                                "type": "address",
                                "value": "0x5dd404e36dfc4991addb2217ee2ab61fc02e4c4f"
                            },
                            {
                                "name": "_l2Value",
                                "type": "uint256",
                                "value": "25,000,000,000,000,000"
                            },
                            {
                                "name": "_calldata",
                                "type": "bytes",
                                "value": "0x3078"
                            },
                            {
                                "name": "_l2GasLimit",
                                "type": "uint256",
                                "value": "374,747"
                            },
                            {
                                "name": "_l2GasPerPubdataByteLimit",
                                "type": "uint256",
                                "value": "800"
                            },
                            {
                                "name": "_factoryDeps",
                                "type": "bytes[]",
                                "value": []
                            },
                            {
                                "name": "_refundRecipient",
                                "type": "address",
                                "value": "0x5dd404e36dfc4991addb2217ee2ab61fc02e4c4f"
                            }
                        ],
                        "constructorArguments": "",
                        "name": "requestL2Transaction",
                        "returnParams": [],
                        "signature": "requestL2Transaction(address,uint256,bytes,uint256,uint256,bytes[],address)"
                    },
                    "errorInfo": "execution reverted",
                    "fromAddress": "0x32400084c286cf3e17e7b677ea9583e60a000324",
                    "gasUsed": 12402,
                    "id": 3,
                    "methodDecoded": true,
                    "operation": "DELEGATECALL",
                    "output": "0x08c379a0000000000000000000000000000000000000000000000000000000000000002000000000000000000000000000000000000000000000000000000000000000026d76000000000000000000000000000000000000000000000000000000000000",
                    "revert": true,
                    "revertMessage": "mv",
                    "selector": "0xeb672419",
                    "status": false,
                    "value": "0.025327907138253125"
                },
                "nodeType": 0
            }
        },
        "gasFlame": [
            {
                "children": [
                    {
                        "children": [
                            {
                                "children": [],
                                "depth": 0,
                                "name": "Initial Gas",
                                "value": 22492
                            },
                            {
                                "children": [
                                    {
                                        "children": [
                                            {
                                                "children": [
                                                    {
                                                        "children": [],
                                                        "depth": 3,
                                                        "name": "requestL2Transaction",
                                                        "value": 12402
                                                    }
                                                ],
                                                "depth": 2,
                                                "name": "requestL2Transaction",
                                                "value": 19780
                                            }
                                        ],
                                        "depth": 1,
                                        "name": "bridgeNativeTo",
                                        "value": 30261
                                    }
                                ],
                                "depth": 0,
                                "name": "Executed Gas",
                                "value": 35659
                            }
                        ],
                        "depth": -1,
                        "name": "Actual Gas Used",
                        "value": 58151
                    },
                    {
                        "children": [],
                        "depth": -1,
                        "name": "Refunded Gas",
                        "value": 0
                    }
                ],
                "depth": -2,
                "name": "Total Gas",
                "value": 58151
            }
        ],
        "isConfirmed": true,
        "mainTrace": [
            {
                "children": [
                    {
                        "children": [
                            {
                                "children": [
                                    {
                                        "children": [
                                            {
                                                "children": [],
                                                "depth": 3,
                                                "id": 3,
                                                "order": 3
                                            }
                                        ],
                                        "depth": 2,
                                        "id": 2,
                                        "order": 2
                                    }
                                ],
                                "depth": 1,
                                "id": 1,
                                "order": 1
                            }
                        ],
                        "depth": 0,
                        "id": 0,
                        "order": 0
                    }
                ],
                "depth": -1,
                "id": -1,
                "order": -1
            }
        ],
        "mainTraceNodeCount": 4,
        "parentIdMap": {
            "0": -1,
            "1": 0,
            "2": 1,
            "3": 2
        },
        "tidyTrace": [
            {
                "children": [
                    {
                        "children": [
                            {
                                "children": [
                                    {
                                        "children": [
                                            {
                                                "children": [],
                                                "depth": 3,
                                                "id": 3,
                                                "order": 3
                                            }
                                        ],
                                        "depth": 2,
                                        "id": 2,
                                        "order": 2
                                    }
                                ],
                                "depth": 1,
                                "id": 1,
                                "order": 1
                            }
                        ],
                        "depth": 0,
                        "id": 0,
                        "order": 0
                    }
                ],
                "depth": -1,
                "id": -1,
                "order": -1
            }
        ],
        "tidyTraceNodeCount": 4
    },
    "state_change": {
        "stateChanges": []
    }
}