{
    "balance_change": {
        "balanceChanges": [
            {
                "account": "0xd090aa8d7432cc39c0b0a225c851794477a55d7f",
                "assets": [
                    {
                        "address": "0xeeeeeeeeeeeeeeeeeeeeeeeeeeeeeeeeeeeeeeee",
                        "amount": "0.1",
                        "iconUrl": "https://assets.blocksec.com/image/1663669189317-3.png",
                        "isERC1155": false,
                        "isERC721": false,
                        "sign": false,
                        "value": ""
                    }
                ]
            },
            {
                "account": "0x0ffef1bf3a19dd96310194e73b38c069d1d1c31f",
                "assets": [
                    {
                        "address": "0xeeeeeeeeeeeeeeeeeeeeeeeeeeeeeeeeeeeeeeee",
                        "amount": "0.1",
                        "iconUrl": "https://assets.blocksec.com/image/1663669189317-3.png",
                        "isERC1155": false,
                        "isERC721": false,
                        "sign": true,
                        "value": ""
                    }
                ]
            }
        ]
    },
    "profile": {
        "basic_info": {
            "baseFee": "",
            "blockNumber": 10390194,
            "callData": "0x07c331cd000000000000000000000000bdd6b08b4e6bb2551c3e2353ca4cb7f40d830bae",
            "debugEnable": true,
            "errorInfo": "",
            "eventCount": 7,
            "feeRecipient": "0xea674fdde714fd979de3edf0f56aa9716b898ec8",
            "formatValue": "0.1",
            "gasLimit": 547047,
            "gasPrice": "28",
            "gasUsed": 420806,
            "intTxnCount": 0,
            "internalRevert": false,
            "internalRevertMessage": "",
            "isContractCreation": false,
            "isFlashloan": false,
            "maxFee": "",
            "nonce": 37,
            "overwritedBlockNumber": -1,
            "priorityFee": "",
            "receiver": "0x0ffef1bf3a19dd96310194e73b38c069d1d1c31f",
            "revertMessage": "",
            "sender": "0xd090aa8d7432cc39c0b0a225c851794477a55d7f",
            "simulationEnable": true,
            "sourceTxnHash": "0xe6a051de2da51a7636cef585c798efbe04fa15a980b0690154c909f181c36074",
            "status": true,
            "timestamp": "2020-07-04T02:15:42Z",
            "transactionFee": "0.011782568",
            "txnHash": "0xe6a051de2da51a7636cef585c798efbe04fa15a980b0690154c909f181c36074",
            "txnIndex": 98,
            "type": 0,
            "value": "100000000000000000"
        },
        "fund_flow": [
            {
                "amount": "0.1",
                "from": "0xd090aa8d7432cc39c0b0a225c851794477a55d7f",
                "id": 1,
                "isERC1155": false,
                "isERC721": false,
                "isReverted": false,
                "order": 1,
                "to": "0x0ffef1bf3a19dd96310194e73b38c069d1d1c31f",
                "token": "0xeeeeeeeeeeeeeeeeeeeeeeeeeeeeeeeeeeeeeeee"
            }
        ],
        "token_infos": [
            {
                "address": "0xc02aaa39b223fe8d0a0e5c4f27ead9083c756cc2",
                "decimals": 18
            },
            {
                "address": "0xeeeeeeeeeeeeeeeeeeeeeeeeeeeeeeeeeeeeeeee",
                "decimals": 18
            }
        ]
    },
    "address_label": {
        "labels": [
            {
                "address": "0x0000000000000000000000000000000000000002",
                "label": "Precompiled"
            },
            {
                "address": "0x0000000000000000000000000000000000000003",
                "label": "Precompiled"
            },
            {
                "address": "0x0000000000000000000000000000000000000004",
                "label": "Precompiled"
            },
            {
                "address": "0xeeeeeeeeeeeeeeeeeeeeeeeeeeeeeeeeeeeeeeee",
                "label": "Ether"
            },
            {
                "address": "0x0ffef1bf3a19dd96310194e73b38c069d1d1c31f",
                "label": "EtherShare.io"
            },
            {
                "address": "0x0000000000000000000000000000000000000001",
                "label": "Precompiled"
            }
        ]
    },
    "trace": {
        "accountLabels": null,
        "dataMap": {
            "-1": {
                "invocation": {
                    "address": "0xd090aa8d7432cc39c0b0a225c851794477a55d7f",
                    "callData": "",
                    "decodedMethod": null,
                    "errorInfo": "",
                    "fromAddress": "",
                    "gasUsed": 0,
                    "id": -1,
                    "methodDecoded": false,
                    "operation": "",
                    "output": "",
                    "revert": false,
                    "revertMessage": "",
                    "selector": "",
                    "status": false,
                    "value": ""
                },
                "nodeType": 0
            },
            "0": {
                "invocation": {
                    "address": "0x0ffef1bf3a19dd96310194e73b38c069d1d1c31f",
                    "callData": "0x000000000000000000000000bdd6b08b4e6bb2551c3e2353ca4cb7f40d830bae",
                    "decodedMethod": {
                        "callParams": [
                            {
                                "name": "_referrer",
                                "type": "address",
                                "value": "0xbdd6b08b4e6bb2551c3e2353ca4cb7f40d830bae"
                            }
                        ],
                        "constructorArguments": "",
                        "name": "playGame",
                        "returnParams": [],
                        "signature": "playGame(address)"
                    },
                    "errorInfo": "",
                    "fromAddress": "0xd090aa8d7432cc39c0b0a225c851794477a55d7f",
                    "gasUsed": 420806,
                    "id": 0,
                    "methodDecoded": true,
                    "operation": "CALL",
                    "output": "",
                    "revert": false,
                    "revertMessage": "",
                    "selector": "0x07c331cd",
                    "status": true,
                    "value": "0.1"
                },
                "nodeType": 0
            },
            "1": {
                "event": {
                    "contract": "0x0ffef1bf3a19dd96310194e73b38c069d1d1c31f",
                    "decodedLog": {
                        "name": "referralCommissionEvent",
                        "params": [
                            {
                                "name": "_playerAddress",
                                "type": "address",
                                "value": "0xd090aa8d7432cc39c0b0a225c851794477a55d7f"
                            },
                            {
                                "name": "_referrer",
                                "type": "address",
                                "value": "0xbdd6b08b4e6bb2551c3e2353ca4cb7f40d830bae"
                            },
                            {
                                "name": "amount",
                                "type": "uint256",
                                "value": "10,000,000,000,000,000"
                            },
                            {
                                "name": "timeStamp",
                                "type": "uint256",
                                "value": "1,593,828,942"
                            }
                        ],
                        "signature": "referralCommissionEvent(address,address,uint256,uint256)"
                    },
                    "id": 1,
                    "logData": "0x000000000000000000000000000000000000000000000000000000005effe64e",
                    "logDecoded": true,
                    "operation": "EVENT",
                    "revert": false,
                    "status": true,
                    "topics": [
                        "0xe8a8de0c33658c3de38a3892af2c86397248fb25ae303545885fd8775df21317",
                        "0x000000000000000000000000d090aa8d7432cc39c0b0a225c851794477a55d7f",
                        "0x000000000000000000000000bdd6b08b4e6bb2551c3e2353ca4cb7f40d830bae",
                        "0x000000000000000000000000000000000000000000000000002386f26fc10000"
                    ]
                },
                "nodeType": 1
            },
            "2": {
                "event": {
                    "contract": "0x0ffef1bf3a19dd96310194e73b38c069d1d1c31f",
                    "decodedLog": {
                        "name": "referralCommissionEvent",
                        "params": [
                            {
                                "name": "_playerAddress",
                                "type": "address",
                                "value": "0xd090aa8d7432cc39c0b0a225c851794477a55d7f"
                            },
                            {
                                "name": "_referrer",
                                "type": "address",
                                "value": "0x4d461c1facf3974adfbdf42d8578a4d6c06865f9"
                            },
                            {
                                "name": "amount",
                                "type": "uint256",
                                "value": "1,000,000,000,000,000"
                            },
                            {
                                "name": "timeStamp",
                                "type": "uint256",
                                "value": "1,593,828,942"
                            }
                        ],
                        "signature": "referralCommissionEvent(address,address,uint256,uint256)"
                    },
                    "id": 2,
                    "logData": "0x000000000000000000000000000000000000000000000000000000005effe64e",
                    "logDecoded": true,
                    "operation": "EVENT",
                    "revert": false,
                    "status": true,
                    "topics": [
                        "0xe8a8de0c33658c3de38a3892af2c86397248fb25ae303545885fd8775df21317",
                        "0x000000000000000000000000d090aa8d7432cc39c0b0a225c851794477a55d7f",
                        "0x0000000000000000000000004d461c1facf3974adfbdf42d8578a4d6c06865f9",
                        "0x00000000000000000000000000000000000000000000000000038d7ea4c68000"
                    ]
                },
                "nodeType": 1
            },
            "3": {
                "event": {
                    "contract": "0x0ffef1bf3a19dd96310194e73b38c069d1d1c31f",
                    "decodedLog": {
                        "name": "referralCommissionEvent",
                        "params": [
                            {
                                "name": "_playerAddress",
                                "type": "address",
                                "value": "0xd090aa8d7432cc39c0b0a225c851794477a55d7f"
                            },
                            {
                                "name": "_referrer",
                                "type": "address",
                                "value": "0xf516726eb084d8ec5e9eb61c4cfabf1d831c606a"
                            },
                            {
                                "name": "amount",
                                "type": "uint256",
                                "value": "1,000,000,000,000,000"
                            },
                            {
                                "name": "timeStamp",
                                "type": "uint256",
                                "value": "1,593,828,942"
                            }
                        ],
                        "signature": "referralCommissionEvent(address,address,uint256,uint256)"
                    },
                    "id": 3,
                    "logData": "0x000000000000000000000000000000000000000000000000000000005effe64e",
                    "logDecoded": true,
                    "operation": "EVENT",
                    "revert": false,
                    "status": true,
                    "topics": [
                        "0xe8a8de0c33658c3de38a3892af2c86397248fb25ae303545885fd8775df21317",
                        "0x000000000000000000000000d090aa8d7432cc39c0b0a225c851794477a55d7f",
                        "0x000000000000000000000000f516726eb084d8ec5e9eb61c4cfabf1d831c606a",
                        "0x00000000000000000000000000000000000000000000000000038d7ea4c68000"
                    ]
                },
                "nodeType": 1
            },
            "4": {
                "event": {
                    "contract": "0x0ffef1bf3a19dd96310194e73b38c069d1d1c31f",
                    "decodedLog": {
                        "name": "referralCommissionEvent",
                        "params": [
                            {
                                "name": "_playerAddress",
                                "type": "address",
                                "value": "0xd090aa8d7432cc39c0b0a225c851794477a55d7f"
                            },
                            {
                                "name": "_referrer",
                                "type": "address",
                                "value": "0xde47055f11c667945686e47c14041dfdf9fedeae"
                            },
                            {
                                "name": "amount",
                                "type": "uint256",
                                "value": "1,000,000,000,000,000"
                            },
                            {
                                "name": "timeStamp",
                                "type": "uint256",
                                "value": "1,593,828,942"
                            }
                        ],
                        "signature": "referralCommissionEvent(address,address,uint256,uint256)"
                    },
                    "id": 4,
                    "logData": "0x000000000000000000000000000000000000000000000000000000005effe64e",
                    "logDecoded": true,
                    "operation": "EVENT",
                    "revert": false,
                    "status": true,
                    "topics": [
                        "0xe8a8de0c33658c3de38a3892af2c86397248fb25ae303545885fd8775df21317",
                        "0x000000000000000000000000d090aa8d7432cc39c0b0a225c851794477a55d7f",
                        "0x000000000000000000000000de47055f11c667945686e47c14041dfdf9fedeae",
                        "0x00000000000000000000000000000000000000000000000000038d7ea4c68000"
                    ]
                },
                "nodeType": 1
            },
            "5": {
                "event": {
                    "contract": "0x0ffef1bf3a19dd96310194e73b38c069d1d1c31f",
                    "decodedLog": {
                        "name": "referralCommissionEvent",
                        "params": [
                            {
                                "name": "_playerAddress",
                                "type": "address",
                                "value": "0xd090aa8d7432cc39c0b0a225c851794477a55d7f"
                            },
                            {
                                "name": "_referrer",
                                "type": "address",
                                "value": "0xc2ee1275697d67417e27fb32e0280d2ca6cd111a"
                            },
                            {
                                "name": "amount",
                                "type": "uint256",
                                "value": "1,000,000,000,000,000"
                            },
                            {
                                "name": "timeStamp",
                                "type": "uint256",
                                "value": "1,593,828,942"
                            }
                        ],
                        "signature": "referralCommissionEvent(address,address,uint256,uint256)"
                    },
                    "id": 5,
                    "logData": "0x000000000000000000000000000000000000000000000000000000005effe64e",
                    "logDecoded": true,
                    "operation": "EVENT",
                    "revert": false,
                    "status": true,
                    "topics": [
                        "0xe8a8de0c33658c3de38a3892af2c86397248fb25ae303545885fd8775df21317",
                        "0x000000000000000000000000d090aa8d7432cc39c0b0a225c851794477a55d7f",
                        "0x000000000000000000000000c2ee1275697d67417e27fb32e0280d2ca6cd111a",
                        "0x00000000000000000000000000000000000000000000000000038d7ea4c68000"
                    ]
                },
                "nodeType": 1
            },
            "6": {
                "event": {
                    "contract": "0x0ffef1bf3a19dd96310194e73b38c069d1d1c31f",
                    "decodedLog": {
                        "name": "registerUserEvent",
                        "params": [
                            {
                                "name": "_playerAddress",
                                "type": "address",
                                "value": "0xd090aa8d7432cc39c0b0a225c851794477a55d7f"
                            },
                            {
                                "name": "_referrer",
                                "type": "address",
                                "value": "0xbdd6b08b4e6bb2551c3e2353ca4cb7f40d830bae"
                            }
                        ],
                        "signature": "registerUserEvent(address,address)"
                    },
                    "id": 6,
                    "logData": "0x",
                    "logDecoded": true,
                    "operation": "EVENT",
                    "revert": false,
                    "status": true,
                    "topics": [
                        "0xddb5b955685e49590bf27ea3575cf7aea7a942422afa776dba9c6fd4ff3e655a",
                        "0x000000000000000000000000d090aa8d7432cc39c0b0a225c851794477a55d7f",
                        "0x000000000000000000000000bdd6b08b4e6bb2551c3e2353ca4cb7f40d830bae"
                    ]
                },
                "nodeType": 1
            },
            "7": {
                "event": {
                    "contract": "0x0ffef1bf3a19dd96310194e73b38c069d1d1c31f",
                    "decodedLog": {
                        "name": "investmentEvent",
                        "params": [
                            {
                                "name": "_playerAddress",
                                "type": "address",
                                "value": "0xd090aa8d7432cc39c0b0a225c851794477a55d7f"
                            },
                            {
                                "name": "_amount",
                                "type": "uint256",
                                "value": "100,000,000,000,000,000"
                            }
                        ],
                        "signature": "investmentEvent(address,uint256)"
                    },
                    "id": 7,
                    "logData": "0x",
                    "logDecoded": true,
                    "operation": "EVENT",
                    "revert": false,
                    "status": true,
                    "topics": [
                        "0x1c58ec20c926cc585eaf181eaf11cb4eb553acc2fda2d960f36b962c17e8e753",
                        "0x000000000000000000000000d090aa8d7432cc39c0b0a225c851794477a55d7f",
                        "0x000000000000000000000000000000000000000000000000016345785d8a0000"
                    ]
                },
                "nodeType": 1
            }
        },
        "gasFlame": [
            {
                "children": [
                    {
                        "children": [
                            {
                                "children": [],
                                "depth": 0,
                                "name": "Initial Gas",
                                "value": 21432
                            },
                            {
                                "children": [],
                                "depth": 0,
                                "name": "Executed Gas",
                                "value": 399374
                            }
                        ],
                        "depth": -1,
                        "name": "Actual Gas Used",
                        "value": 420806
                    },
                    {
                        "children": [],
                        "depth": -1,
                        "name": "Refunded Gas",
                        "value": 0
                    }
                ],
                "depth": -2,
                "name": "Total Gas",
                "value": 420806
            }
        ],
        "isConfirmed": true,
        "mainTrace": [
            {
                "children": [
                    {
                        "children": [
                            {
                                "children": [],
                                "depth": 1,
                                "id": 1,
                                "order": 1
                            },
                            {
                                "children": [],
                                "depth": 1,
                                "id": 2,
                                "order": 2
                            },
                            {
                                "children": [],
                                "depth": 1,
                                "id": 3,
                                "order": 3
                            },
                            {
                                "children": [],
                                "depth": 1,
                                "id": 4,
                                "order": 4
                            },
                            {
                                "children": [],
                                "depth": 1,
                                "id": 5,
                                "order": 5
                            },
                            {
                                "children": [],
                                "depth": 1,
                                "id": 6,
                                "order": 6
                            },
                            {
                                "children": [],
                                "depth": 1,
                                "id": 7,
                                "order": 7
                            }
                        ],
                        "depth": 0,
                        "id": 0,
                        "order": 0
                    }
                ],
                "depth": -1,
                "id": -1,
                "order": -1
            }
        ],
        "mainTraceNodeCount": 8,
        "parentIdMap": {
            "0": -1,
            "1": 0,
            "2": 0,
            "3": 0,
            "4": 0,
            "5": 0,
            "6": 0,
            "7": 0
        },
        "tidyTrace": [
            {
                "children": [
                    {
                        "children": [
                            {
                                "children": [],
                                "depth": 1,
                                "id": 1,
                                "order": 1
                            },
                            {
                                "children": [],
                                "depth": 1,
                                "id": 2,
                                "order": 2
                            },
                            {
                                "children": [],
                                "depth": 1,
                                "id": 3,
                                "order": 3
                            },
                            {
                                "children": [],
                                "depth": 1,
                                "id": 4,
                                "order": 4
                            },
                            {
                                "children": [],
                                "depth": 1,
                                "id": 5,
                                "order": 5
                            },
                            {
                                "children": [],
                                "depth": 1,
                                "id": 6,
                                "order": 6
                            },
                            {
                                "children": [],
                                "depth": 1,
                                "id": 7,
                                "order": 7
                            }
                        ],
                        "depth": 0,
                        "id": 0,
                        "order": 0
                    }
                ],
                "depth": -1,
                "id": -1,
                "order": -1
            }
        ],
        "tidyTraceNodeCount": 8
    },
    "state_change": {
        "stateChanges": [
            {
                "address": "0x0ffef1bf3a19dd96310194e73b38c069d1d1c31f",
                "erc": "",
                "slots": [
                    {
                        "current": "0x000000000000000000000000000000000000000000000000000000005effe64e",
                        "key": "0x2663bcaf6099f7f15aa7471a4ed71def7f2904511f046a2ba843b9a5227367a5",
                        "prev": "0x0000000000000000000000000000000000000000000000000000000000000000"
                    },
                    {
                        "current": "0x0000000000000000000000000000000000000000000000000429d069189e0000",
                        "key": "0x2663bcaf6099f7f15aa7471a4ed71def7f2904511f046a2ba843b9a5227367a6",
                        "prev": "0x0000000000000000000000000000000000000000000000000000000000000000"
                    },
                    {
                        "current": "0x0000000000000000000000000000000000000000000000001509e9f7c77e0000",
                        "key": "0xdd608523ceaf226554fb21b7c527a6caf9c66a73103aa64bf6c7cd6d7661b43f",
                        "prev": "0x00000000000000000000000000000000000000000000000015065c7922b78000"
                    },
                    {
                        "current": "0x00000000000000000000000000000000000000000000000238fd42c5cf040000",
                        "key": "0x2fedb8cac919e2d61802d3f3f65600df9e1e136f03180ed4a848faa78b371a4b",
                        "prev": "0x00000000000000000000000000000000000000000000000238d9bbd35f430000"
                    },
                    {
                        "current": "0x000000000000000000000000000000000000000000000000016345785d8a0000",
                        "key": "0x96094cf776857f5a65db655f4d2350bc114ffffedd0e8baceb7c2c83bac16a6e",
                        "prev": "0x0000000000000000000000000000000000000000000000000000000000000000"
                    },
                    {
                        "current": "0x000000000000000000000000000000000000000000000000016345785d8a0000",
                        "key": "0x6fc2ab2f744452e08b12a084853dea73c284fcc700acc301afe9c489dabbed39",
                        "prev": "0x0000000000000000000000000000000000000000000000000000000000000000"
                    },
                    {
                        "current": "0x0000000000000000000000000000000000000000000000004da1e15c99890000",
                        "key": "0x7461c589ffbc1a1385ddf41a30184dc2e562c39f5277dbd6a6cc8c2792776e99",
                        "prev": "0x0000000000000000000000000000000000000000000000004da56edb3e4f8000"
                    },
                    {
                        "current": "0x0000000000000000000000000000000000000000000000000000000000000001",
                        "key": "0xd297109f2fcdd152278c705217edcca4b47665c40c6681eddfc6ab24720ebb58",
                        "prev": "0x0000000000000000000000000000000000000000000000000000000000000000"
                    },
                    {
                        "current": "0x0000000000000000000000000000000000000000000000102e4c309061b20000",
                        "key": "0xdd608523ceaf226554fb21b7c527a6caf9c66a73103aa64bf6c7cd6d7661b444",
                        "prev": "0x0000000000000000000000000000000000000000000000102e4fbe0f06788000"
                    },
                    {
                        "current": "0x0000000000000000000000000000000000000000000000056bc75e2d63100000",
                        "key": "0x2663bcaf6099f7f15aa7471a4ed71def7f2904511f046a2ba843b9a5227367a0",
                        "prev": "0x0000000000000000000000000000000000000000000000000000000000000000"
                    },
                    {
                        "current": "0x000000000000000000000000000000000000000000000000016345785d8a0000",
                        "key": "0x2663bcaf6099f7f15aa7471a4ed71def7f2904511f046a2ba843b9a5227367a3",
                        "prev": "0x0000000000000000000000000000000000000000000000000000000000000000"
                    },
                    {
                        "current": "0x0000000000000000000000000000000000000000000000001d2f5b5b9aa58000",
                        "key": "0x8c5fe5cf375b41b5cdb2019d35f17b7fdd35bb250f4ffb05e2f69b62acfcf603",
                        "prev": "0x0000000000000000000000000000000000000000000000001d32e8da3f6c0000"
                    },
                    {
                        "current": "0x00000000000000000000000000000000000000000000000005a266d952cf0000",
                        "key": "0x7461c589ffbc1a1385ddf41a30184dc2e562c39f5277dbd6a6cc8c2792776e94",
                        "prev": "0x000000000000000000000000000000000000000000000000059ed95aae088000"
                    },
                    {
                        "current": "0x0000000000000000000000000000000000000000000000000c72c8bf5b868000",
                        "key": "0x8c5fe5cf375b41b5cdb2019d35f17b7fdd35bb250f4ffb05e2f69b62acfcf5fe",
                        "prev": "0x0000000000000000000000000000000000000000000000000c6f3b40b6c00000"
                    },
                    {
                        "current": "0x000000000000000000000000000000000000000000000000019faae14eb88000",
                        "key": "0xc46f25f8cbda9cca84975a93010418ddb4a652dc5a1ff049216d281a2e152484",
                        "prev": "0x000000000000000000000000000000000000000000000000019c1d62a9f20000"
                    },
                    {
                        "current": "0x000000000000000000000000000000000000000000000000002386f26fc10000",
                        "key": "0x6fc2ab2f744452e08b12a084853dea73c284fcc700acc301afe9c489dabbed3b",
                        "prev": "0x0000000000000000000000000000000000000000000000000000000000000000"
                    },
                    {
                        "current": "0x0000000000000000000000000000000000000000000000000000000000000001",
                        "key": "0x6fc2ab2f744452e08b12a084853dea73c284fcc700acc301afe9c489dabbed44",
                        "prev": "0x0000000000000000000000000000000000000000000000000000000000000000"
                    },
                    {
                        "current": "0x000000000000000000000000000000000000000000000000016345785d8a0000",
                        "key": "0x01efa6dba805cfc60cfe592f3c246cdb82f8dcfb0cdcb382f47895a04344e596",
                        "prev": "0x0000000000000000000000000000000000000000000000000000000000000000"
                    },
                    {
                        "current": "0x000000000000000000000000000000000000000000000000aab260d4f14e0000",
                        "key": "0xaf016be2268f7f772704c18d1a514a3a95db71601910fada440ac7c9f7df84f3",
                        "prev": "0x000000000000000000000000000000000000000000000000aaa7b85902fa8000"
                    },
                    {
                        "current": "0x000000000000000000000000bdd6b08b4e6bb2551c3e2353ca4cb7f40d830bae",
                        "key": "0x2663bcaf6099f7f15aa7471a4ed71def7f2904511f046a2ba843b9a5227367ab",
                        "prev": "0x0000000000000000000000000000000000000000000000000000000000000000"
                    },
                    {
                        "current": "0x0000000000000000000000000000000000000000000000021e547f73597d8000",
                        "key": "0x0000000000000000000000000000000000000000000000000000000000000009",
                        "prev": "0x0000000000000000000000000000000000000000000000021e3f2e7b7cd68000"
                    },
                    {
                        "current": "0x000000000000000000000000000000000000000000000000016345785d8a0000",
                        "key": "0x2663bcaf6099f7f15aa7471a4ed71def7f2904511f046a2ba843b9a52273679e",
                        "prev": "0x0000000000000000000000000000000000000000000000000000000000000000"
                    },
                    {
                        "current": "0x000000000000000000000000000000000000000000000002b4207d42f30e8000",
                        "key": "0xc46f25f8cbda9cca84975a93010418ddb4a652dc5a1ff049216d281a2e152489",
                        "prev": "0x000000000000000000000000000000000000000000000002b4240ac197d50000"
                    },
                    {
                        "current": "0x000000000000000000000000000000000000000000000000d0072d945f1b0000",
                        "key": "0x6fc2ab2f744452e08b12a084853dea73c284fcc700acc301afe9c489dabbed40",
                        "prev": "0x000000000000000000000000000000000000000000000000d02ab486cedc0000"
                    },
                    {
                        "current": "0x000000000000000000000000000000000000000000000000d71b0fe0a28e0000",
                        "key": "0x000000000000000000000000000000000000000000000000000000000000000b",
                        "prev": "0x000000000000000000000000000000000000000000000000d7094c676aad8000"
                    }
                ],
                "storageVariables": [
                    {
                        "name": "player",
                        "type": "mapping(address => struct DataStructs.Player)",
                        "value": {
                            "pairs": [
                                {
                                    "key": "0x4d461c1facf3974adfbdf42d8578a4d6c06865f9",
                                    "value": {
                                        "fields": [
                                            {
                                                "name": "directReferralIncome",
                                                "type": "uint256",
                                                "value": {
                                                    "current": "406000000000000000",
                                                    "prev": "405000000000000000",
                                                    "typeTag": 1
                                                }
                                            },
                                            {
                                                "name": "incomeLimitLeft",
                                                "type": "uint256",
                                                "value": {
                                                    "current": "5594000000000000000",
                                                    "prev": "5595000000000000000",
                                                    "typeTag": 1
                                                }
                                            }
                                        ],
                                        "typeTag": 3
                                    }
                                },
                                {
                                    "key": "0xbdd6b08b4e6bb2551c3e2353ca4cb7f40d830bae",
                                    "value": {
                                        "fields": [
                                            {
                                                "name": "totalVolumeEth",
                                                "type": "uint256",
                                                "value": {
                                                    "current": "100000000000000000",
                                                    "prev": "0",
                                                    "typeTag": 1
                                                }
                                            },
                                            {
                                                "name": "directReferralIncome",
                                                "type": "uint256",
                                                "value": {
                                                    "current": "10000000000000000",
                                                    "prev": "0",
                                                    "typeTag": 1
                                                }
                                            },
                                            {
                                                "name": "incomeLimitLeft",
                                                "type": "uint256",
                                                "value": {
                                                    "current": "14990000000000000000",
                                                    "prev": "15000000000000000000",
                                                    "typeTag": 1
                                                }
                                            },
                                            {
                                                "name": "referralCount",
                                                "type": "uint256",
                                                "value": {
                                                    "current": "1",
                                                    "prev": "0",
                                                    "typeTag": 1
                                                }
                                            }
                                        ],
                                        "typeTag": 3
                                    }
                                },
                                {
                                    "key": "0xc2ee1275697d67417e27fb32e0280d2ca6cd111a",
                                    "value": {
                                        "fields": [
                                            {
                                                "name": "directReferralIncome",
                                                "type": "uint256",
                                                "value": {
                                                    "current": "117000000000000000",
                                                    "prev": "116000000000000000",
                                                    "typeTag": 1
                                                }
                                            },
                                            {
                                                "name": "incomeLimitLeft",
                                                "type": "uint256",
                                                "value": {
                                                    "current": "49873000000000000000",
                                                    "prev": "49874000000000000000",
                                                    "typeTag": 1
                                                }
                                            }
                                        ],
                                        "typeTag": 3
                                    }
                                },
                                {
                                    "key": "0xd090aa8d7432cc39c0b0a225c851794477a55d7f",
                                    "value": {
                                        "fields": [
                                            {
                                                "name": "totalInvestment",
                                                "type": "uint256",
                                                "value": {
                                                    "current": "100000000000000000",
                                                    "prev": "0",
                                                    "typeTag": 1
                                                }
                                            },
                                            {
                                                "name": "eventVariable",
                                                "type": "uint256",
                                                "value": {
                                                    "current": "100000000000000000000",
                                                    "prev": "0",
                                                    "typeTag": 1
                                                }
                                            },
                                            {
                                                "name": "currentInvestedAmount",
                                                "type": "uint256",
                                                "value": {
                                                    "current": "100000000000000000",
                                                    "prev": "0",
                                                    "typeTag": 1
                                                }
                                            },
                                            {
                                                "name": "lastSettledTime",
                                                "type": "uint256",
                                                "value": {
                                                    "current": "1593828942",
                                                    "prev": "0",
                                                    "typeTag": 1
                                                }
                                            },
                                            {
                                                "name": "incomeLimitLeft",
                                                "type": "uint256",
                                                "value": {
                                                    "current": "300000000000000000",
                                                    "prev": "0",
                                                    "typeTag": 1
                                                }
                                            },
                                            {
                                                "name": "referrer",
                                                "type": "address",
                                                "value": {
                                                    "current": "0xbdd6b08b4e6bb2551c3e2353ca4cb7f40d830bae",
                                                    "prev": "0x0000000000000000000000000000000000000000",
                                                    "typeTag": 1
                                                }
                                            }
                                        ],
                                        "typeTag": 3
                                    }
                                },
                                {
                                    "key": "0xd8d37d2ff193b6eb6403ba8194a250361eff0af3",
                                    "value": {
                                        "fields": [
                                            {
                                                "name": "dailyIncome",
                                                "type": "uint256",
                                                "value": {
                                                    "current": "12300000000000000000",
                                                    "prev": "12297000000000000000",
                                                    "typeTag": 1
                                                }
                                            }
                                        ],
                                        "typeTag": 3
                                    }
                                },
                                {
                                    "key": "0xde47055f11c667945686e47c14041dfdf9fedeae",
                                    "value": {
                                        "fields": [
                                            {
                                                "name": "directReferralIncome",
                                                "type": "uint256",
                                                "value": {
                                                    "current": "1516000000000000000",
                                                    "prev": "1515000000000000000",
                                                    "typeTag": 1
                                                }
                                            },
                                            {
                                                "name": "incomeLimitLeft",
                                                "type": "uint256",
                                                "value": {
                                                    "current": "298484000000000000000",
                                                    "prev": "298485000000000000000",
                                                    "typeTag": 1
                                                }
                                            }
                                        ],
                                        "typeTag": 3
                                    }
                                },
                                {
                                    "key": "0xf516726eb084d8ec5e9eb61c4cfabf1d831c606a",
                                    "value": {
                                        "fields": [
                                            {
                                                "name": "directReferralIncome",
                                                "type": "uint256",
                                                "value": {
                                                    "current": "897000000000000000",
                                                    "prev": "896000000000000000",
                                                    "typeTag": 1
                                                }
                                            },
                                            {
                                                "name": "incomeLimitLeft",
                                                "type": "uint256",
                                                "value": {
                                                    "current": "2103000000000000000",
                                                    "prev": "2104000000000000000",
                                                    "typeTag": 1
                                                }
                                            }
                                        ],
                                        "typeTag": 3
                                    }
                                }
                            ],
                            "typeTag": 4
                        }
                    },
                    {
                        "name": "r1",
                        "type": "uint256",
                        "value": {
                            "current": "39079000000000000000",
                            "prev": "39073000000000000000",
                            "typeTag": 1
                        }
                    },
                    {
                        "name": "plyrRnds_",
                        "type": "mapping(address => mapping(uint256 => struct DataStructs.PlayerDailyRounds))",
                        "value": {
                            "pairs": [
                                {
                                    "key": "0xbdd6b08b4e6bb2551c3e2353ca4cb7f40d830bae",
                                    "value": {
                                        "pairs": [
                                            {
                                                "key": "1",
                                                "value": {
                                                    "fields": [
                                                        {
                                                            "name": "ethVolume",
                                                            "type": "uint256",
                                                            "value": {
                                                                "current": "100000000000000000",
                                                                "prev": "0",
                                                                "typeTag": 1
                                                            }
                                                        }
                                                    ],
                                                    "typeTag": 3
                                                }
                                            }
                                        ],
                                        "typeTag": 4
                                    }
                                },
                                {
                                    "key": "0xd090aa8d7432cc39c0b0a225c851794477a55d7f",
                                    "value": {
                                        "pairs": [
                                            {
                                                "key": "1",
                                                "value": {
                                                    "fields": [
                                                        {
                                                            "name": "selfInvestment",
                                                            "type": "uint256",
                                                            "value": {
                                                                "current": "100000000000000000",
                                                                "prev": "0",
                                                                "typeTag": 1
                                                            }
                                                        }
                                                    ],
                                                    "typeTag": 3
                                                }
                                            }
                                        ],
                                        "typeTag": 4
                                    }
                                }
                            ],
                            "typeTag": 4
                        }
                    },
                    {
                        "name": "r3",
                        "type": "uint256",
                        "value": {
                            "current": "15500000000000000000",
                            "prev": "15495000000000000000",
                            "typeTag": 1
                        }
                    },
                    {
                        "name": "round",
                        "type": "mapping(uint256 => struct DataStructs.DailyRound)",
                        "value": {
                            "pairs": [
                                {
                                    "key": "1",
                                    "value": {
                                        "fields": [
                                            {
                                                "name": "pool",
                                                "type": "uint256",
                                                "value": {
                                                    "current": "41000000000000000000",
                                                    "prev": "40990000000000000000",
                                                    "typeTag": 1
                                                }
                                            }
                                        ],
                                        "typeTag": 3
                                    }
                                }
                            ],
                            "typeTag": 4
                        }
                    },
                    {
                        "name": "playerExist",
                        "type": "mapping(address => bool)",
                        "value": {
                            "pairs": [
                                {
                                    "key": "0xd090aa8d7432cc39c0b0a225c851794477a55d7f",
                                    "value": {
                                        "current": "true",
                                        "prev": "false",
                                        "typeTag": 1
                                    }
                                }
                            ],
                            "typeTag": 4
                        }
                    }
                ]
            }
        ]
    }
}