{
    "balance_change": {
        "balanceChanges": [
            {
                "account": "0x6cc8dcbca746a6e4fdefb98e1d0df903b107fd21",
                "assets": [
                    {
                        "address": "0x990f341946a3fdb507ae7e52d17851b87168017c",
                        "amount": "27.87",
                        "iconUrl": "",
                        "isERC1155": false,
                        "isERC721": false,
                        "sign": false,
                        "value": "17966.49655"
                    }
                ]
            },
            {
                "account": "0x6078aabfd06af26edd14dd0e758354aa0bfd1449",
                "assets": [
                    {
                        "address": "0x990f341946a3fdb507ae7e52d17851b87168017c",
                        "amount": "27.87",
                        "iconUrl": "",
                        "isERC1155": false,
                        "isERC721": false,
                        "sign": true,
                        "value": "17966.49655"
                    }
                ]
            }
        ]
    },
    "profile": {
        "basic_info": {
            "baseFee": "81.978600381",
            "blockNumber": 13408566,
            "callData": "0xa9059cbb0000000000000000000000006078aabfd06af26edd14dd0e758354aa0bfd144900000000000000000000000000000000000000000000000182c62156a2230000",
            "debugEnable": true,
            "errorInfo": "",
            "eventCount": 1,
            "feeRecipient": "0x829bd824b016326a401d083b33d092293333a830",
            "formatValue": "0",
            "gasLimit": 93873,
            "gasPrice": "83.079600382",
            "gasUsed": 51873,
            "intTxnCount": 0,
            "internalRevert": false,
            "internalRevertMessage": "",
            "isContractCreation": false,
            "isFlashloan": false,
            "maxFee": "156.512244375",
            "nonce": 195519,
            "overwritedBlockNumber": -1,
            "priorityFee": "1.101000001",
            "receiver": "0x990f341946a3fdb507ae7e52d17851b87168017c",
            "revertMessage": "",
            "sender": "0x6cc8dcbca746a6e4fdefb98e1d0df903b107fd21",
            "simulationEnable": true,
            "sourceTxnHash": "0xe767c37c8ba210590dd49b9e33a02f72d503cafd5c3c2600cfda3089a877a9a0",
            "status": true,
            "timestamp": "2021-10-13T06:54:19Z",
            "transactionFee": "0.004309588110615486",
            "txnHash": "0xe767c37c8ba210590dd49b9e33a02f72d503cafd5c3c2600cfda3089a877a9a0",
            "txnIndex": 44,
            "type": 2,
            "value": "0"
        },
        "fund_flow": [
            {
                "amount": "27.87",
                "from": "0x6cc8dcbca746a6e4fdefb98e1d0df903b107fd21",
                "id": 1,
                "isERC1155": false,
                "isERC721": false,
                "isReverted": false,
                "order": 1,
                "to": "0x6078aabfd06af26edd14dd0e758354aa0bfd1449",
                "token": "0x990f341946a3fdb507ae7e52d17851b87168017c"
            }
        ],
        "token_infos": [
            {
                "address": "0x990f341946a3fdb507ae7e52d17851b87168017c",
                "decimals": 18
            },
            {
                "address": "0xc02aaa39b223fe8d0a0e5c4f27ead9083c756cc2",
                "decimals": 18
            },
            {
                "address": "0xeeeeeeeeeeeeeeeeeeeeeeeeeeeeeeeeeeeeeeee",
                "decimals": 18
            }
        ]
    },
    "address_label": {
        "labels": [
            {
                "address": "0x6cc8dcbca746a6e4fdefb98e1d0df903b107fd21",
                "label": "Bitrue"
            },
            {
                "address": "0x0000000000000000000000000000000000000001",
                "label": "Precompiled"
            },
            {
                "address": "0x0000000000000000000000000000000000000002",
                "label": "Precompiled"
            },
            {
                "address": "0x0000000000000000000000000000000000000003",
                "label": "Precompiled"
            },
            {
                "address": "0x0000000000000000000000000000000000000004",
                "label": "Precompiled"
            },
            {
                "address": "0xeeeeeeeeeeeeeeeeeeeeeeeeeeeeeeeeeeeeeeee",
                "label": "Ether"
            },
            {
                "address": "0x990f341946a3fdb507ae7e52d17851b87168017c",
                "label": "StrongBlock: STRONG Token"
            }
        ]
    },
    "trace": {
        "accountLabels": null,
        "dataMap": {
            "-1": {
                "invocation": {
                    "address": "0x6cc8dcbca746a6e4fdefb98e1d0df903b107fd21",
                    "callData": "",
                    "decodedMethod": null,
                    "errorInfo": "",
                    "fromAddress": "",
                    "gasUsed": 0,
                    "id": -1,
                    "methodDecoded": false,
                    "operation": "",
                    "output": "",
                    "revert": false,
                    "revertMessage": "",
                    "selector": "",
                    "status": false,
                    "value": ""
                },
                "nodeType": 0
            },
            "0": {
                "invocation": {
                    "address": "0x990f341946a3fdb507ae7e52d17851b87168017c",
                    "callData": "0x0000000000000000000000006078aabfd06af26edd14dd0e758354aa0bfd144900000000000000000000000000000000000000000000000182c62156a2230000",
                    "decodedMethod": {
                        "callParams": [
                            {
                                "name": "recipient",
                                "type": "address",
                                "value": "0x6078aabfd06af26edd14dd0e758354aa0bfd1449"
                            },
                            {
                                "decimalAvailable": true,
                                "name": "amount",
                                "type": "uint256",
                                "value": "27,870,000,000,000,000,000"
                            }
                        ],
                        "constructorArguments": "",
                        "name": "transfer",
                        "returnParams": [
                            {
                                "name": "",
                                "type": "bool",
                                "value": true
                            }
                        ],
                        "signature": "transfer(address,uint256)"
                    },
                    "errorInfo": "",
                    "fromAddress": "0x6cc8dcbca746a6e4fdefb98e1d0df903b107fd21",
                    "gasUsed": 51873,
                    "id": 0,
                    "methodDecoded": true,
                    "operation": "CALL",
                    "output": "0x0000000000000000000000000000000000000000000000000000000000000001",
                    "revert": false,
                    "revertMessage": "",
                    "selector": "0xa9059cbb",
                    "status": true,
                    "value": "0"
                },
                "nodeType": 0
            },
            "1": {
                "event": {
                    "contract": "0x990f341946a3fdb507ae7e52d17851b87168017c",
                    "decodedLog": {
                        "name": "Transfer",
                        "params": [
                            {
                                "name": "from",
                                "type": "address",
                                "value": "0x6cc8dcbca746a6e4fdefb98e1d0df903b107fd21"
                            },
                            {
                                "name": "to",
                                "type": "address",
                                "value": "0x6078aabfd06af26edd14dd0e758354aa0bfd1449"
                            },
                            {
                                "decimalAvailable": true,
                                "name": "value",
                                "type": "uint256",
                                "value": "27,870,000,000,000,000,000"
                            }
                        ],
                        "signature": "Transfer(address,address,uint256)"
                    },
                    "id": 1,
                    "logData": "0x00000000000000000000000000000000000000000000000182c62156a2230000",
                    "logDecoded": true,
                    "operation": "EVENT",
                    "revert": false,
                    "status": true,
                    "topics": [
                        "0xddf252ad1be2c89b69c2b068fc378daa952ba7f163c4a11628f55a4df523b3ef",
                        "0x0000000000000000000000006cc8dcbca746a6e4fdefb98e1d0df903b107fd21",
                        "0x0000000000000000000000006078aabfd06af26edd14dd0e758354aa0bfd1449"
                    ]
                },
                "nodeType": 1
            }
        },
        "gasFlame": [
            {
                "children": [
                    {
                        "children": [
                            {
                                "children": [],
                                "depth": 0,
                                "name": "Initial Gas",
                                "value": 21644
                            },
                            {
                                "children": [],
                                "depth": 0,
                                "name": "Executed Gas",
                                "value": 30229
                            }
                        ],
                        "depth": -1,
                        "name": "Actual Gas Used",
                        "value": 51873
                    },
                    {
                        "children": [],
                        "depth": -1,
                        "name": "Refunded Gas",
                        "value": 0
                    }
                ],
                "depth": -2,
                "name": "Total Gas",
                "value": 51873
            }
        ],
        "isConfirmed": true,
        "mainTrace": [
            {
                "children": [
                    {
                        "children": [
                            {
                                "children": [],
                                "depth": 1,
                                "id": 1,
                                "order": 1
                            }
                        ],
                        "depth": 0,
                        "id": 0,
                        "order": 0
                    }
                ],
                "depth": -1,
                "id": -1,
                "order": -1
            }
        ],
        "mainTraceNodeCount": 2,
        "parentIdMap": {
            "0": -1,
            "1": 0
        },
        "tidyTrace": [
            {
                "children": [
                    {
                        "children": [
                            {
                                "children": [],
                                "depth": 1,
                                "id": 1,
                                "order": 1
                            }
                        ],
                        "depth": 0,
                        "id": 0,
                        "order": 0
                    }
                ],
                "depth": -1,
                "id": -1,
                "order": -1
            }
        ],
        "tidyTraceNodeCount": 2
    },
    "state_change": {
        "stateChanges": [
            {
                "address": "0x990f341946a3fdb507ae7e52d17851b87168017c",
                "erc": "ERC-20",
                "slots": [
                    {
                        "current": "0x0000000000000000000000000000000000000000000000169d1e6cc561b0ea78",
                        "key": "0x5a5b844252133f56de91a1e431615d18c1b7ee167f922c687c4dc4802409c22a",
                        "prev": "0x0000000000000000000000000000000000000000000000181fe48e1c03d3ea78"
                    },
                    {
                        "current": "0x00000000000000000000000000000000000000000000000182c62156a2230000",
                        "key": "0xa9f7eabc71636080368d1b0a7cb32589e9b5e19d05908f76afb10ca3d05613f8",
                        "prev": "0x0000000000000000000000000000000000000000000000000000000000000000"
                    }
                ],
                "storageVariables": [
                    {
                        "name": "_balances",
                        "type": "mapping(address => uint256)",
                        "value": {
                            "pairs": [
                                {
                                    "key": "0x6078aabfd06af26edd14dd0e758354aa0bfd1449",
                                    "value": {
                                        "current": "27870000000000000000",
                                        "prev": "0",
                                        "typeTag": 1
                                    }
                                },
                                {
                                    "key": "0x6cc8dcbca746a6e4fdefb98e1d0df903b107fd21",
                                    "value": {
                                        "current": "417149975729869482616",
                                        "prev": "445019975729869482616",
                                        "typeTag": 1
                                    }
                                }
                            ],
                            "typeTag": 4
                        }
                    }
                ]
            }
        ]
    }
}