{
    "balance_change": {
        "balanceChanges": [
            {
                "account": "0xd4bddf5e3d0435d7a6214a0b949c7bb58621f37c",
                "assets": [
                    {
                        "address": "0x514910771af9ca656af840dff83e8264ecf986ca",
                        "amount": "14.675669875528849102",
                        "iconUrl": "https://assets.blocksec.com/icon/f97453a18956674db69f16b525216d646fc76f3c7f90f0cd6147f8534d5af3e9.png",
                        "isERC1155": false,
                        "isERC721": false,
                        "sign": false,
                        "value": "93.77753053319999531"
                    }
                ]
            },
            {
                "account": "0x418f5aeb5176fb72af2a36ebac9ba6926b9ca685",
                "assets": [
                    {
                        "address": "0x514910771af9ca656af840dff83e8264ecf986ca",
                        "amount": "14.675669875528849102",
                        "iconUrl": "https://assets.blocksec.com/icon/f97453a18956674db69f16b525216d646fc76f3c7f90f0cd6147f8534d5af3e9.png",
                        "isERC1155": false,
                        "isERC721": false,
                        "sign": true,
                        "value": "93.77753053319999531"
                    }
                ]
            }
        ]
    },
    "profile": {
        "basic_info": {
            "baseFee": "20.641557014",
            "blockNumber": 16392959,
            "callData": "0xa9059cbb000000000000000000000000418f5aeb5176fb72af2a36ebac9ba6926b9ca685000000000000000000000000000000000000000000000000cbaa73ff2bcc56ce",
            "debugEnable": true,
            "errorInfo": "",
            "eventCount": 1,
            "feeRecipient": "0x6d2e03b7effeae98bd302a9f836d0d6ab0002766",
            "formatValue": "0",
            "gasLimit": 250000,
            "gasPrice": "34",
            "gasUsed": 52101,
            "intTxnCount": 0,
            "internalRevert": false,
            "internalRevertMessage": "",
            "isContractCreation": false,
            "isFlashloan": false,
            "maxFee": "",
            "nonce": 139810,
            "overwritedBlockNumber": -1,
            "priorityFee": "",
            "receiver": "0x514910771af9ca656af840dff83e8264ecf986ca",
            "revertMessage": "",
            "sender": "0xd4bddf5e3d0435d7a6214a0b949c7bb58621f37c",
            "simulationEnable": true,
            "sourceTxnHash": "0xe7c347fe788138dae821f1614eaecee479681a5588522fed9da90669e1f9106d",
            "status": true,
            "timestamp": "2023-01-12T19:59:11Z",
            "transactionFee": "0.001771434",
            "txnHash": "0xe7c347fe788138dae821f1614eaecee479681a5588522fed9da90669e1f9106d",
            "txnIndex": 10,
            "type": 0,
            "value": "0"
        },
        "fund_flow": [
            {
                "amount": "14.675669875528849102",
                "from": "0xd4bddf5e3d0435d7a6214a0b949c7bb58621f37c",
                "id": 1,
                "isERC1155": false,
                "isERC721": false,
                "isReverted": false,
                "order": 1,
                "to": "0x418f5aeb5176fb72af2a36ebac9ba6926b9ca685",
                "token": "0x514910771af9ca656af840dff83e8264ecf986ca"
            }
        ],
        "token_infos": [
            {
                "address": "0x514910771af9ca656af840dff83e8264ecf986ca",
                "decimals": 18
            },
            {
                "address": "0xc02aaa39b223fe8d0a0e5c4f27ead9083c756cc2",
                "decimals": 18
            },
            {
                "address": "0xeeeeeeeeeeeeeeeeeeeeeeeeeeeeeeeeeeeeeeee",
                "decimals": 18
            }
        ]
    },
    "address_label": {
        "labels": [
            {
                "address": "0xd4bddf5e3d0435d7a6214a0b949c7bb58621f37c",
                "label": "Coinhako"
            },
            {
                "address": "0x418f5aeb5176fb72af2a36ebac9ba6926b9ca685",
                "label": "CRYPTO.COM"
            },
            {
                "address": "0x0000000000000000000000000000000000000001",
                "label": "Precompiled"
            },
            {
                "address": "0x0000000000000000000000000000000000000002",
                "label": "Precompiled"
            },
            {
                "address": "0x0000000000000000000000000000000000000003",
                "label": "Precompiled"
            },
            {
                "address": "0x0000000000000000000000000000000000000004",
                "label": "Precompiled"
            },
            {
                "address": "0xeeeeeeeeeeeeeeeeeeeeeeeeeeeeeeeeeeeeeeee",
                "label": "Ether"
            },
            {
                "address": "0x514910771af9ca656af840dff83e8264ecf986ca",
                "label": "Chainlink: LINK Token"
            }
        ]
    },
    "trace": {
        "accountLabels": null,
        "dataMap": {
            "-1": {
                "invocation": {
                    "address": "0xd4bddf5e3d0435d7a6214a0b949c7bb58621f37c",
                    "callData": "",
                    "decodedMethod": null,
                    "errorInfo": "",
                    "fromAddress": "",
                    "gasUsed": 0,
                    "id": -1,
                    "methodDecoded": false,
                    "operation": "",
                    "output": "",
                    "revert": false,
                    "revertMessage": "",
                    "selector": "",
                    "status": false,
                    "value": ""
                },
                "nodeType": 0
            },
            "0": {
                "invocation": {
                    "address": "0x514910771af9ca656af840dff83e8264ecf986ca",
                    "callData": "0x000000000000000000000000418f5aeb5176fb72af2a36ebac9ba6926b9ca685000000000000000000000000000000000000000000000000cbaa73ff2bcc56ce",
                    "decodedMethod": {
                        "callParams": [
                            {
                                "name": "_to",
                                "type": "address",
                                "value": "0x418f5aeb5176fb72af2a36ebac9ba6926b9ca685"
                            },
                            {
                                "decimalAvailable": true,
                                "name": "_value",
                                "type": "uint256",
                                "value": "14,675,669,875,528,849,102"
                            }
                        ],
                        "constructorArguments": "",
                        "name": "transfer",
                        "returnParams": [
                            {
                                "name": "success",
                                "type": "bool",
                                "value": true
                            }
                        ],
                        "signature": "transfer(address,uint256)"
                    },
                    "errorInfo": "",
                    "fromAddress": "0xd4bddf5e3d0435d7a6214a0b949c7bb58621f37c",
                    "gasUsed": 52101,
                    "id": 0,
                    "methodDecoded": true,
                    "operation": "CALL",
                    "output": "0x0000000000000000000000000000000000000000000000000000000000000001",
                    "revert": false,
                    "revertMessage": "",
                    "selector": "0xa9059cbb",
                    "status": true,
                    "value": "0"
                },
                "nodeType": 0
            },
            "1": {
                "event": {
                    "contract": "0x514910771af9ca656af840dff83e8264ecf986ca",
                    "decodedLog": {
                        "name": "Transfer",
                        "params": [
                            {
                                "name": "from",
                                "type": "address",
                                "value": "0xd4bddf5e3d0435d7a6214a0b949c7bb58621f37c"
                            },
                            {
                                "name": "to",
                                "type": "address",
                                "value": "0x418f5aeb5176fb72af2a36ebac9ba6926b9ca685"
                            },
                            {
                                "decimalAvailable": true,
                                "name": "value",
                                "type": "uint256",
                                "value": "14,675,669,875,528,849,102"
                            }
                        ],
                        "signature": "Transfer(address,address,uint256)"
                    },
                    "id": 1,
                    "logData": "0x000000000000000000000000000000000000000000000000cbaa73ff2bcc56ce",
                    "logDecoded": true,
                    "operation": "EVENT",
                    "revert": false,
                    "status": true,
                    "topics": [
                        "0xddf252ad1be2c89b69c2b068fc378daa952ba7f163c4a11628f55a4df523b3ef",
                        "0x000000000000000000000000d4bddf5e3d0435d7a6214a0b949c7bb58621f37c",
                        "0x000000000000000000000000418f5aeb5176fb72af2a36ebac9ba6926b9ca685"
                    ]
                },
                "nodeType": 1
            }
        },
        "gasFlame": [
            {
                "children": [
                    {
                        "children": [
                            {
                                "children": [],
                                "depth": 0,
                                "name": "Initial Gas",
                                "value": 21656
                            },
                            {
                                "children": [],
                                "depth": 0,
                                "name": "Executed Gas",
                                "value": 30445
                            }
                        ],
                        "depth": -1,
                        "name": "Actual Gas Used",
                        "value": 52101
                    },
                    {
                        "children": [],
                        "depth": -1,
                        "name": "Refunded Gas",
                        "value": 0
                    }
                ],
                "depth": -2,
                "name": "Total Gas",
                "value": 52101
            }
        ],
        "isConfirmed": true,
        "mainTrace": [
            {
                "children": [
                    {
                        "children": [
                            {
                                "children": [],
                                "depth": 1,
                                "id": 1,
                                "order": 1
                            }
                        ],
                        "depth": 0,
                        "id": 0,
                        "order": 0
                    }
                ],
                "depth": -1,
                "id": -1,
                "order": -1
            }
        ],
        "mainTraceNodeCount": 2,
        "parentIdMap": {
            "0": -1,
            "1": 0
        },
        "tidyTrace": [
            {
                "children": [
                    {
                        "children": [
                            {
                                "children": [],
                                "depth": 1,
                                "id": 1,
                                "order": 1
                            }
                        ],
                        "depth": 0,
                        "id": 0,
                        "order": 0
                    }
                ],
                "depth": -1,
                "id": -1,
                "order": -1
            }
        ],
        "tidyTraceNodeCount": 2
    },
    "state_change": {
        "stateChanges": [
            {
                "address": "0x514910771af9ca656af840dff83e8264ecf986ca",
                "erc": "",
                "slots": [
                    {
                        "current": "0x00000000000000000000000000000000000000000000000ae93b199cef8f165c",
                        "key": "0x426cf57d9c43a029ddac5eaecfbc8c6577c51101ff207cc2357863d11adadeb7",
                        "prev": "0x00000000000000000000000000000000000000000000000bb4e58d9c1b5b6d2a"
                    },
                    {
                        "current": "0x000000000000000000000000000000000000000000000000cbaa73ff2bcc56ce",
                        "key": "0x0e01ba0e6a6e93e0781d6fad8dd5088e805165dff15eb5bc6065c98cdf913490",
                        "prev": "0x0000000000000000000000000000000000000000000000000000000000000000"
                    }
                ],
                "storageVariables": [
                    {
                        "name": "balances",
                        "type": "mapping(address => uint256)",
                        "value": {
                            "pairs": [
                                {
                                    "key": "0x418f5aeb5176fb72af2a36ebac9ba6926b9ca685",
                                    "value": {
                                        "current": "14675669875528849102",
                                        "prev": "0",
                                        "typeTag": 1
                                    }
                                },
                                {
                                    "key": "0xd4bddf5e3d0435d7a6214a0b949c7bb58621f37c",
                                    "value": {
                                        "current": "201273495333383378524",
                                        "prev": "215949165208912227626",
                                        "typeTag": 1
                                    }
                                }
                            ],
                            "typeTag": 4
                        }
                    }
                ]
            }
        ]
    }
}