{
    "balance_change": {
        "balanceChanges": []
    },
    "profile": {
        "basic_info": {
            "baseFee": "",
            "blockNumber": 7029802,
            "callData": "0x3ccfd60b",
            "debugEnable": true,
            "errorInfo": "execution reverted",
            "eventCount": 0,
            "feeRecipient": "0xea674fdde714fd979de3edf0f56aa9716b898ec8",
            "formatValue": "0",
            "gasLimit": 7000000,
            "gasPrice": "6.75",
            "gasUsed": 32392,
            "intTxnCount": 3,
            "internalRevert": true,
            "internalRevertMessage": "",
            "isContractCreation": false,
            "isFlashloan": false,
            "maxFee": "",
            "nonce": 15,
            "overwritedBlockNumber": -1,
            "priorityFee": "",
            "receiver": "0x86c72ba64629e535d557cd6bc18a3a9cf93fe33e",
            "revertMessage": "not allow withdraw",
            "sender": "0x395522e5ed5a0fee73c7a55c45210c16d30d42cd",
            "simulationEnable": true,
            "sourceTxnHash": "0xe7de23131f0eb528eab88c021ac13c3768840e1ffd9014c12669813313ad7ee6",
            "status": false,
            "timestamp": "2019-01-08T06:19:17Z",
            "transactionFee": "0.000218646",
            "txnHash": "0xe7de23131f0eb528eab88c021ac13c3768840e1ffd9014c12669813313ad7ee6",
            "txnIndex": 9,
            "type": 0,
            "value": "0"
        },
        "fund_flow": [],
        "token_infos": [
            {
                "address": "0xc02aaa39b223fe8d0a0e5c4f27ead9083c756cc2",
                "decimals": 18
            },
            {
                "address": "0xeeeeeeeeeeeeeeeeeeeeeeeeeeeeeeeeeeeeeeee",
                "decimals": 18
            }
        ]
    },
    "address_label": {
        "labels": [
            {
                "address": "0xeeeeeeeeeeeeeeeeeeeeeeeeeeeeeeeeeeeeeeee",
                "label": "Ether"
            },
            {
                "address": "0x0000000000000000000000000000000000000001",
                "label": "Precompiled"
            },
            {
                "address": "0x0000000000000000000000000000000000000002",
                "label": "Precompiled"
            },
            {
                "address": "0x0000000000000000000000000000000000000003",
                "label": "Precompiled"
            },
            {
                "address": "0x0000000000000000000000000000000000000004",
                "label": "Precompiled"
            }
        ]
    },
    "trace": {
        "accountLabels": null,
        "dataMap": {
            "-1": {
                "invocation": {
                    "address": "0x395522e5ed5a0fee73c7a55c45210c16d30d42cd",
                    "callData": "",
                    "decodedMethod": null,
                    "errorInfo": "",
                    "fromAddress": "",
                    "gasUsed": 0,
                    "id": -1,
                    "methodDecoded": false,
                    "operation": "",
                    "output": "",
                    "revert": false,
                    "revertMessage": "",
                    "selector": "",
                    "status": false,
                    "value": ""
                },
                "nodeType": 0
            },
            "0": {
                "invocation": {
                    "address": "0x86c72ba64629e535d557cd6bc18a3a9cf93fe33e",
                    "callData": "0x",
                    "decodedMethod": {
                        "callParams": [],
                        "constructorArguments": "",
                        "name": "withdraw",
                        "returnParams": [],
                        "signature": "withdraw()"
                    },
                    "errorInfo": "execution reverted",
                    "fromAddress": "0x395522e5ed5a0fee73c7a55c45210c16d30d42cd",
                    "gasUsed": 32392,
                    "id": 0,
                    "methodDecoded": true,
                    "operation": "CALL",
                    "output": "0x08c379a0000000000000000000000000000000000000000000000000000000000000002000000000000000000000000000000000000000000000000000000000000000126e6f7420616c6c6f772077697468647261770000000000000000000000000000",
                    "revert": true,
                    "revertMessage": "not allow withdraw",
                    "selector": "0x3ccfd60b",
                    "status": false,
                    "value": "0"
                },
                "nodeType": 0
            },
            "1": {
                "invocation": {
                    "address": "0x64600573f016a1f1512005cde3805801cd820a20",
                    "callData": "0x000000000000000000000000395522e5ed5a0fee73c7a55c45210c16d30d42cd",
                    "decodedMethod": {
                        "callParams": [
                            {
                                "name": "user",
                                "type": "address",
                                "value": "0x395522e5ed5a0fee73c7a55c45210c16d30d42cd"
                            }
                        ],
                        "constructorArguments": "",
                        "name": "getUserInviter",
                        "returnParams": [
                            {
                                "name": "",
                                "type": "address",
                                "value": "0x322e3d3bf13ba4f44aa108b595b32514e40f69fd"
                            }
                        ],
                        "signature": "getUserInviter(address)"
                    },
                    "errorInfo": "",
                    "fromAddress": "0x86c72ba64629e535d557cd6bc18a3a9cf93fe33e",
                    "gasUsed": 913,
                    "id": 1,
                    "methodDecoded": true,
                    "operation": "CALL",
                    "output": "0x000000000000000000000000322e3d3bf13ba4f44aa108b595b32514e40f69fd",
                    "revert": true,
                    "revertMessage": "",
                    "selector": "0x26aa9b44",
                    "status": true,
                    "value": "0"
                },
                "nodeType": 0
            },
            "2": {
                "invocation": {
                    "address": "0x64600573f016a1f1512005cde3805801cd820a20",
                    "callData": "0x000000000000000000000000395522e5ed5a0fee73c7a55c45210c16d30d42cd",
                    "decodedMethod": null,
                    "errorInfo": "",
                    "fromAddress": "0x86c72ba64629e535d557cd6bc18a3a9cf93fe33e",
                    "gasUsed": 1718,
                    "id": 2,
                    "methodDecoded": false,
                    "operation": "CALL",
                    "output": "0x0000000000000000000000000000000000000000000000000e95038ed1bde000",
                    "revert": true,
                    "revertMessage": "",
                    "selector": "0x3014c22d",
                    "status": true,
                    "value": "0"
                },
                "nodeType": 0
            },
            "3": {
                "invocation": {
                    "address": "0x64600573f016a1f1512005cde3805801cd820a20",
                    "callData": "0x000000000000000000000000395522e5ed5a0fee73c7a55c45210c16d30d42cd",
                    "decodedMethod": null,
                    "errorInfo": "",
                    "fromAddress": "0x86c72ba64629e535d557cd6bc18a3a9cf93fe33e",
                    "gasUsed": 1638,
                    "id": 3,
                    "methodDecoded": false,
                    "operation": "CALL",
                    "output": "0x0000000000000000000000000000000000000000000000005fc1b97136320000",
                    "revert": true,
                    "revertMessage": "",
                    "selector": "0xc76474db",
                    "status": true,
                    "value": "0"
                },
                "nodeType": 0
            }
        },
        "gasFlame": [
            {
                "children": [
                    {
                        "children": [
                            {
                                "children": [],
                                "depth": 0,
                                "name": "Initial Gas",
                                "value": 21272
                            },
                            {
                                "children": [
                                    {
                                        "children": [],
                                        "depth": 1,
                                        "name": "getUserInviter",
                                        "value": 913
                                    },
                                    {
                                        "children": [],
                                        "depth": 1,
                                        "name": "0x3014c22d",
                                        "value": 1718
                                    },
                                    {
                                        "children": [],
                                        "depth": 1,
                                        "name": "0xc76474db",
                                        "value": 1638
                                    }
                                ],
                                "depth": 0,
                                "name": "Executed Gas",
                                "value": 11120
                            }
                        ],
                        "depth": -1,
                        "name": "Actual Gas Used",
                        "value": 32392
                    },
                    {
                        "children": [],
                        "depth": -1,
                        "name": "Refunded Gas",
                        "value": 0
                    }
                ],
                "depth": -2,
                "name": "Total Gas",
                "value": 32392
            }
        ],
        "isConfirmed": true,
        "mainTrace": [
            {
                "children": [
                    {
                        "children": [
                            {
                                "children": [],
                                "depth": 1,
                                "id": 1,
                                "order": 1
                            },
                            {
                                "children": [],
                                "depth": 1,
                                "id": 2,
                                "order": 2
                            },
                            {
                                "children": [],
                                "depth": 1,
                                "id": 3,
                                "order": 3
                            }
                        ],
                        "depth": 0,
                        "id": 0,
                        "order": 0
                    }
                ],
                "depth": -1,
                "id": -1,
                "order": -1
            }
        ],
        "mainTraceNodeCount": 4,
        "parentIdMap": {
            "0": -1,
            "1": 0,
            "2": 0,
            "3": 0
        },
        "tidyTrace": [
            {
                "children": [
                    {
                        "children": [
                            {
                                "children": [],
                                "depth": 1,
                                "id": 1,
                                "order": 1
                            },
                            {
                                "children": [],
                                "depth": 1,
                                "id": 2,
                                "order": 2
                            },
                            {
                                "children": [],
                                "depth": 1,
                                "id": 3,
                                "order": 3
                            }
                        ],
                        "depth": 0,
                        "id": 0,
                        "order": 0
                    }
                ],
                "depth": -1,
                "id": -1,
                "order": -1
            }
        ],
        "tidyTraceNodeCount": 4
    },
    "state_change": {
        "stateChanges": []
    }
}