{
    "balance_change": {
        "balanceChanges": []
    },
    "profile": {
        "basic_info": {
            "baseFee": "20.569007775",
            "blockNumber": 16667983,
            "callData": "0xd48e983d0000000000000000000000000000000000000000000000000000000000000020000000000000000000000000000000000000000000000000000000000000000f0000000000000000000000003e903dd036e11d45344ee41390987e4d8561a95d000000000000000000000000d953c542aafa0a61baf619d54051493157d977f3000000000000000000000000dac17f958d2ee523a2206206994597c13d831ec7000000000000000000000000ca9c5d7be1ab0e85791682234873445e0cdff91a000000000000000000000000f6583462034dc86d9519e86792dc068ef1d02d4d000000000000000000000000c02aaa39b223fe8d0a0e5c4f27ead9083c756cc200000000000000000000000046aff093df3b7dd62c4b3ed29ac4ddb741f9c130000000000000000000000000d018ee99fff5eea8f26fe918c4acebaa48c429fa000000000000000000000000a0b86991c6218b36c1d19d4a2e9eb0ce3606eb48000000000000000000000000d910254222ae825aa2448e46200be08809403d02000000000000000000000000fb7715ce647452d1799d7cd12fcc0ca0adfe48e3000000000000000000000000dac17f958d2ee523a2206206994597c13d831ec700000000000000000000000000356ce6250f8489d23ff32742256ab5be9dd8d700000000000000000000000041a1d9082c4a3b6225187cb851367c303accfac20000000000000000000000002b591e99afe9f32eaa6214f7b7629768c40eeb390000000000000000000000003e903dd036e11d45344ee41390987e4d8561a95d000000000000000000000000d95821ebcf0d8aaffb048db0577694c863d977f3000000000000000000000000dac17f958d2ee523a2206206994597c13d831ec700000000000000000000000013a120f7a6bb521ec33d293cd1537504a2e182c200000000000000000000000099b7a3c3188b8c38a3c1c52ff9a61df1554389e6000000000000000000000000a0b86991c6218b36c1d19d4a2e9eb0ce3606eb480000000000000000000000001b204458c1125a20d7efcbc8f4ea3410287cf1cc0000000000000000000000008ce410610b5f88b8589482b13b8327e04c29d1b6000000000000000000000000dac17f958d2ee523a2206206994597c13d831ec700000000000000000000000055eeaa27c9ce98ed460a03a3c4f93c7b77f283270000000000000000000000003e855d6c9d1e6f8223995d618867ca3c0b42d116000000000000000000000000dac17f958d2ee523a2206206994597c13d831ec700000000000000000000000035f09f57fd5c6106da70f4ed8e14312614747efc0000000000000000000000000cbe32c2d223f65ea91ef5ddc3e9515f24ccffe5000000000000000000000000c02aaa39b223fe8d0a0e5c4f27ead9083c756cc20000000000000000000000005851a8e8401036fcb3324133526b3fc248370028000000000000000000000000222778104620466240d5cdb92cc694a072941aff000000000000000000000000dac17f958d2ee523a2206206994597c13d831ec7000000000000000000000000a816d5f2333817b0843eb85e01bba823885a913c000000000000000000000000860d37f3fd8c71c0a30150063a6ffbf8cb7545f8000000000000000000000000c02aaa39b223fe8d0a0e5c4f27ead9083c756cc2000000000000000000000000c0d2fee9deb8440790f6a1f95f89b3ef1daf8ae0000000000000000000000000b93e8c129381dc97e406dbe3c3e2cf7fe37bb415000000000000000000000000dac17f958d2ee523a2206206994597c13d831ec7000000000000000000000000403466a60252e6339572757645426c62894b8bb6000000000000000000000000ccd4f7394ca8e40671cb065328fea59ffb18b679000000000000000000000000dac17f958d2ee523a2206206994597c13d831ec70000000000000000000000008a118182895647c2d9bd4e8701beddc097a80d9f000000000000000000000000d8b33bc647a66ad460e08904676f8e6476e8d2d9000000000000000000000000a0b86991c6218b36c1d19d4a2e9eb0ce3606eb48",
            "debugEnable": true,
            "errorInfo": "",
            "eventCount": 16,
            "feeRecipient": "0x95222290dd7278aa3ddd389cc1e1d165cc4bafe5",
            "formatValue": "0",
            "gasLimit": 360085,
            "gasPrice": "21.569007775",
            "gasUsed": 317013,
            "intTxnCount": 18,
            "internalRevert": false,
            "internalRevertMessage": "",
            "isContractCreation": false,
            "isFlashloan": false,
            "maxFee": "45.483554712",
            "nonce": 1332,
            "overwritedBlockNumber": -1,
            "priorityFee": "1",
            "receiver": "0x6c5319df4fcca5961d71e117287c76a1f2aad593",
            "revertMessage": "",
            "sender": "0x845ac2ecbcc5759be209abf65df8612cdb334822",
            "simulationEnable": true,
            "sourceTxnHash": "0xe750b83ee8903484018820828e07b7ef9aa2ed2c59457f16ab62b285be42e9c5",
            "status": true,
            "timestamp": "2023-02-20T06:28:59Z",
            "transactionFee": "0.006837655861776075",
            "txnHash": "0xe750b83ee8903484018820828e07b7ef9aa2ed2c59457f16ab62b285be42e9c5",
            "txnIndex": 105,
            "type": 2,
            "value": "0"
        },
        "fund_flow": [
            {
                "amount": "0",
                "from": "0x3e903dd036e11d45344ee41390987e4d8561a95d",
                "id": 1,
                "isERC1155": false,
                "isERC721": false,
                "isReverted": false,
                "order": 1,
                "to": "0xd953c542aafa0a61baf619d54051493157d977f3",
                "token": "0xdac17f958d2ee523a2206206994597c13d831ec7"
            },
            {
                "amount": "0",
                "from": "0xca9c5d7be1ab0e85791682234873445e0cdff91a",
                "id": 2,
                "isERC1155": false,
                "isERC721": false,
                "isReverted": false,
                "order": 2,
                "to": "0xf6583462034dc86d9519e86792dc068ef1d02d4d",
                "token": "0xc02aaa39b223fe8d0a0e5c4f27ead9083c756cc2"
            },
            {
                "amount": "0",
                "from": "0x46aff093df3b7dd62c4b3ed29ac4ddb741f9c130",
                "id": 3,
                "isERC1155": false,
                "isERC721": false,
                "isReverted": false,
                "order": 3,
                "to": "0xd018ee99fff5eea8f26fe918c4acebaa48c429fa",
                "token": "0xa0b86991c6218b36c1d19d4a2e9eb0ce3606eb48"
            },
            {
                "amount": "0",
                "from": "0xd910254222ae825aa2448e46200be08809403d02",
                "id": 4,
                "isERC1155": false,
                "isERC721": false,
                "isReverted": false,
                "order": 4,
                "to": "0xfb7715ce647452d1799d7cd12fcc0ca0adfe48e3",
                "token": "0xdac17f958d2ee523a2206206994597c13d831ec7"
            },
            {
                "amount": "0",
                "from": "0x00356ce6250f8489d23ff32742256ab5be9dd8d7",
                "id": 5,
                "isERC1155": false,
                "isERC721": false,
                "isReverted": false,
                "order": 5,
                "to": "0x41a1d9082c4a3b6225187cb851367c303accfac2",
                "token": "0x2b591e99afe9f32eaa6214f7b7629768c40eeb39"
            },
            {
                "amount": "0",
                "from": "0x3e903dd036e11d45344ee41390987e4d8561a95d",
                "id": 6,
                "isERC1155": false,
                "isERC721": false,
                "isReverted": false,
                "order": 6,
                "to": "0xd95821ebcf0d8aaffb048db0577694c863d977f3",
                "token": "0xdac17f958d2ee523a2206206994597c13d831ec7"
            },
            {
                "amount": "0",
                "from": "0x13a120f7a6bb521ec33d293cd1537504a2e182c2",
                "id": 7,
                "isERC1155": false,
                "isERC721": false,
                "isReverted": false,
                "order": 7,
                "to": "0x99b7a3c3188b8c38a3c1c52ff9a61df1554389e6",
                "token": "0xa0b86991c6218b36c1d19d4a2e9eb0ce3606eb48"
            },
            {
                "amount": "0",
                "from": "0x1b204458c1125a20d7efcbc8f4ea3410287cf1cc",
                "id": 8,
                "isERC1155": false,
                "isERC721": false,
                "isReverted": false,
                "order": 8,
                "to": "0x8ce410610b5f88b8589482b13b8327e04c29d1b6",
                "token": "0xdac17f958d2ee523a2206206994597c13d831ec7"
            },
            {
                "amount": "0",
                "from": "0x55eeaa27c9ce98ed460a03a3c4f93c7b77f28327",
                "id": 9,
                "isERC1155": false,
                "isERC721": false,
                "isReverted": false,
                "order": 9,
                "to": "0x3e855d6c9d1e6f8223995d618867ca3c0b42d116",
                "token": "0xdac17f958d2ee523a2206206994597c13d831ec7"
            },
            {
                "amount": "0",
                "from": "0x35f09f57fd5c6106da70f4ed8e14312614747efc",
                "id": 10,
                "isERC1155": false,
                "isERC721": false,
                "isReverted": false,
                "order": 10,
                "to": "0x0cbe32c2d223f65ea91ef5ddc3e9515f24ccffe5",
                "token": "0xc02aaa39b223fe8d0a0e5c4f27ead9083c756cc2"
            },
            {
                "amount": "0",
                "from": "0x5851a8e8401036fcb3324133526b3fc248370028",
                "id": 11,
                "isERC1155": false,
                "isERC721": false,
                "isReverted": false,
                "order": 11,
                "to": "0x222778104620466240d5cdb92cc694a072941aff",
                "token": "0xdac17f958d2ee523a2206206994597c13d831ec7"
            },
            {
                "amount": "0",
                "from": "0xa816d5f2333817b0843eb85e01bba823885a913c",
                "id": 12,
                "isERC1155": false,
                "isERC721": false,
                "isReverted": false,
                "order": 12,
                "to": "0x860d37f3fd8c71c0a30150063a6ffbf8cb7545f8",
                "token": "0xc02aaa39b223fe8d0a0e5c4f27ead9083c756cc2"
            },
            {
                "amount": "0",
                "from": "0xc0d2fee9deb8440790f6a1f95f89b3ef1daf8ae0",
                "id": 13,
                "isERC1155": false,
                "isERC721": false,
                "isReverted": false,
                "order": 13,
                "to": "0xb93e8c129381dc97e406dbe3c3e2cf7fe37bb415",
                "token": "0xdac17f958d2ee523a2206206994597c13d831ec7"
            },
            {
                "amount": "0",
                "from": "0x403466a60252e6339572757645426c62894b8bb6",
                "id": 14,
                "isERC1155": false,
                "isERC721": false,
                "isReverted": false,
                "order": 14,
                "to": "0xccd4f7394ca8e40671cb065328fea59ffb18b679",
                "token": "0xdac17f958d2ee523a2206206994597c13d831ec7"
            },
            {
                "amount": "0",
                "from": "0x8a118182895647c2d9bd4e8701beddc097a80d9f",
                "id": 15,
                "isERC1155": false,
                "isERC721": false,
                "isReverted": false,
                "order": 15,
                "to": "0xd8b33bc647a66ad460e08904676f8e6476e8d2d9",
                "token": "0xa0b86991c6218b36c1d19d4a2e9eb0ce3606eb48"
            }
        ],
        "token_infos": [
            {
                "address": "0x2b591e99afe9f32eaa6214f7b7629768c40eeb39",
                "decimals": 8
            },
            {
                "address": "0xa0b86991c6218b36c1d19d4a2e9eb0ce3606eb48",
                "decimals": 6
            },
            {
                "address": "0xc02aaa39b223fe8d0a0e5c4f27ead9083c756cc2",
                "decimals": 18
            },
            {
                "address": "0xdac17f958d2ee523a2206206994597c13d831ec7",
                "decimals": 6
            },
            {
                "address": "0xeeeeeeeeeeeeeeeeeeeeeeeeeeeeeeeeeeeeeeee",
                "decimals": 18
            }
        ]
    },
    "address_label": {
        "labels": [
            {
                "address": "0xc02aaa39b223fe8d0a0e5c4f27ead9083c756cc2",
                "label": "Wrapped Ether (WETH)"
            },
            {
                "address": "0xa0b86991c6218b36c1d19d4a2e9eb0ce3606eb48",
                "label": "Circle: USDC Token"
            },
            {
                "address": "0xdac17f958d2ee523a2206206994597c13d831ec7",
                "label": "Tether: USDT Stablecoin"
            },
            {
                "address": "0x0000000000000000000000000000000000000001",
                "label": "Precompiled"
            },
            {
                "address": "0x0000000000000000000000000000000000000002",
                "label": "Precompiled"
            },
            {
                "address": "0xeeeeeeeeeeeeeeeeeeeeeeeeeeeeeeeeeeeeeeee",
                "label": "Ether"
            },
            {
                "address": "0x2b591e99afe9f32eaa6214f7b7629768c40eeb39",
                "label": "HEX.com: HEX Token"
            },
            {
                "address": "0x6c5319df4fcca5961d71e117287c76a1f2aad593",
                "label": "Fake_Phishing11683"
            },
            {
                "address": "0x0000000000000000000000000000000000000004",
                "label": "Precompiled"
            },
            {
                "address": "0xa2327a938febf5fec13bacfb16ae10ecbc4cbdcf",
                "label": "FiatTokenV2_1"
            },
            {
                "address": "0x845ac2ecbcc5759be209abf65df8612cdb334822",
                "label": "Fake_Phishing11684"
            },
            {
                "address": "0x403466a60252e6339572757645426c62894b8bb6",
                "label": "Alameda Research:8bb6(related_level_1)"
            },
            {
                "address": "0x0000000000000000000000000000000000000003",
                "label": "Precompiled"
            }
        ]
    },
    "trace": {
        "accountLabels": null,
        "dataMap": {
            "-1": {
                "invocation": {
                    "address": "0x845ac2ecbcc5759be209abf65df8612cdb334822",
                    "callData": "",
                    "decodedMethod": null,
                    "errorInfo": "",
                    "fromAddress": "",
                    "gasUsed": 0,
                    "id": -1,
                    "methodDecoded": false,
                    "operation": "",
                    "output": "",
                    "revert": false,
                    "revertMessage": "",
                    "selector": "",
                    "status": false,
                    "value": ""
                },
                "nodeType": 0
            },
            "0": {
                "invocation": {
                    "address": "0x6c5319df4fcca5961d71e117287c76a1f2aad593",
                    "callData": "0x0000000000000000000000000000000000000000000000000000000000000020000000000000000000000000000000000000000000000000000000000000000f0000000000000000000000003e903dd036e11d45344ee41390987e4d8561a95d000000000000000000000000d953c542aafa0a61baf619d54051493157d977f3000000000000000000000000dac17f958d2ee523a2206206994597c13d831ec7000000000000000000000000ca9c5d7be1ab0e85791682234873445e0cdff91a000000000000000000000000f6583462034dc86d9519e86792dc068ef1d02d4d000000000000000000000000c02aaa39b223fe8d0a0e5c4f27ead9083c756cc200000000000000000000000046aff093df3b7dd62c4b3ed29ac4ddb741f9c130000000000000000000000000d018ee99fff5eea8f26fe918c4acebaa48c429fa000000000000000000000000a0b86991c6218b36c1d19d4a2e9eb0ce3606eb48000000000000000000000000d910254222ae825aa2448e46200be08809403d02000000000000000000000000fb7715ce647452d1799d7cd12fcc0ca0adfe48e3000000000000000000000000dac17f958d2ee523a2206206994597c13d831ec700000000000000000000000000356ce6250f8489d23ff32742256ab5be9dd8d700000000000000000000000041a1d9082c4a3b6225187cb851367c303accfac20000000000000000000000002b591e99afe9f32eaa6214f7b7629768c40eeb390000000000000000000000003e903dd036e11d45344ee41390987e4d8561a95d000000000000000000000000d95821ebcf0d8aaffb048db0577694c863d977f3000000000000000000000000dac17f958d2ee523a2206206994597c13d831ec700000000000000000000000013a120f7a6bb521ec33d293cd1537504a2e182c200000000000000000000000099b7a3c3188b8c38a3c1c52ff9a61df1554389e6000000000000000000000000a0b86991c6218b36c1d19d4a2e9eb0ce3606eb480000000000000000000000001b204458c1125a20d7efcbc8f4ea3410287cf1cc0000000000000000000000008ce410610b5f88b8589482b13b8327e04c29d1b6000000000000000000000000dac17f958d2ee523a2206206994597c13d831ec700000000000000000000000055eeaa27c9ce98ed460a03a3c4f93c7b77f283270000000000000000000000003e855d6c9d1e6f8223995d618867ca3c0b42d116000000000000000000000000dac17f958d2ee523a2206206994597c13d831ec700000000000000000000000035f09f57fd5c6106da70f4ed8e14312614747efc0000000000000000000000000cbe32c2d223f65ea91ef5ddc3e9515f24ccffe5000000000000000000000000c02aaa39b223fe8d0a0e5c4f27ead9083c756cc20000000000000000000000005851a8e8401036fcb3324133526b3fc248370028000000000000000000000000222778104620466240d5cdb92cc694a072941aff000000000000000000000000dac17f958d2ee523a2206206994597c13d831ec7000000000000000000000000a816d5f2333817b0843eb85e01bba823885a913c000000000000000000000000860d37f3fd8c71c0a30150063a6ffbf8cb7545f8000000000000000000000000c02aaa39b223fe8d0a0e5c4f27ead9083c756cc2000000000000000000000000c0d2fee9deb8440790f6a1f95f89b3ef1daf8ae0000000000000000000000000b93e8c129381dc97e406dbe3c3e2cf7fe37bb415000000000000000000000000dac17f958d2ee523a2206206994597c13d831ec7000000000000000000000000403466a60252e6339572757645426c62894b8bb6000000000000000000000000ccd4f7394ca8e40671cb065328fea59ffb18b679000000000000000000000000dac17f958d2ee523a2206206994597c13d831ec70000000000000000000000008a118182895647c2d9bd4e8701beddc097a80d9f000000000000000000000000d8b33bc647a66ad460e08904676f8e6476e8d2d9000000000000000000000000a0b86991c6218b36c1d19d4a2e9eb0ce3606eb48",
                    "decodedMethod": null,
                    "errorInfo": "",
                    "fromAddress": "0x845ac2ecbcc5759be209abf65df8612cdb334822",
                    "gasUsed": 317013,
                    "id": 0,
                    "methodDecoded": false,
                    "operation": "CALL",
                    "output": "",
                    "revert": false,
                    "revertMessage": "",
                    "selector": "0xd48e983d",
                    "status": true,
                    "value": "0"
                },
                "nodeType": 0
            },
            "1": {
                "invocation": {
                    "address": "0xdac17f958d2ee523a2206206994597c13d831ec7",
                    "callData": "0x0000000000000000000000003e903dd036e11d45344ee41390987e4d8561a95d000000000000000000000000d953c542aafa0a61baf619d54051493157d977f30000000000000000000000000000000000000000000000000000000000000000",
                    "decodedMethod": {
                        "callParams": [
                            {
                                "name": "_from",
                                "type": "address",
                                "value": "0x3e903dd036e11d45344ee41390987e4d8561a95d"
                            },
                            {
                                "name": "_to",
                                "type": "address",
                                "value": "0xd953c542aafa0a61baf619d54051493157d977f3"
                            },
                            {
                                "decimalAvailable": true,
                                "name": "_value",
                                "type": "uint256",
                                "value": "0"
                            }
                        ],
                        "constructorArguments": "",
                        "name": "transferFrom",
                        "returnParams": [],
                        "signature": "transferFrom(address,address,uint256)"
                    },
                    "errorInfo": "",
                    "fromAddress": "0x6c5319df4fcca5961d71e117287c76a1f2aad593",
                    "gasUsed": 21258,
                    "id": 1,
                    "methodDecoded": true,
                    "operation": "CALL",
                    "output": "",
                    "revert": false,
                    "revertMessage": "",
                    "selector": "0x23b872dd",
                    "status": true,
                    "value": "0"
                },
                "nodeType": 0
            },
            "10": {
                "invocation": {
                    "address": "0x2b591e99afe9f32eaa6214f7b7629768c40eeb39",
                    "callData": "0x00000000000000000000000000356ce6250f8489d23ff32742256ab5be9dd8d700000000000000000000000041a1d9082c4a3b6225187cb851367c303accfac20000000000000000000000000000000000000000000000000000000000000000",
                    "decodedMethod": {
                        "callParams": [
                            {
                                "name": "sender",
                                "type": "address",
                                "value": "0x00356ce6250f8489d23ff32742256ab5be9dd8d7"
                            },
                            {
                                "name": "recipient",
                                "type": "address",
                                "value": "0x41a1d9082c4a3b6225187cb851367c303accfac2"
                            },
                            {
                                "decimalAvailable": true,
                                "name": "amount",
                                "type": "uint256",
                                "value": "0"
                            }
                        ],
                        "constructorArguments": "",
                        "name": "transferFrom",
                        "returnParams": [
                            {
                                "name": "",
                                "type": "bool",
                                "value": true
                            }
                        ],
                        "signature": "transferFrom(address,address,uint256)"
                    },
                    "errorInfo": "",
                    "fromAddress": "0x6c5319df4fcca5961d71e117287c76a1f2aad593",
                    "gasUsed": 12061,
                    "id": 10,
                    "methodDecoded": true,
                    "operation": "CALL",
                    "output": "0x0000000000000000000000000000000000000000000000000000000000000001",
                    "revert": false,
                    "revertMessage": "",
                    "selector": "0x23b872dd",
                    "status": true,
                    "value": "0"
                },
                "nodeType": 0
            },
            "11": {
                "event": {
                    "contract": "0x2b591e99afe9f32eaa6214f7b7629768c40eeb39",
                    "decodedLog": {
                        "name": "Transfer",
                        "params": [
                            {
                                "name": "from",
                                "type": "address",
                                "value": "0x00356ce6250f8489d23ff32742256ab5be9dd8d7"
                            },
                            {
                                "name": "to",
                                "type": "address",
                                "value": "0x41a1d9082c4a3b6225187cb851367c303accfac2"
                            },
                            {
                                "decimalAvailable": true,
                                "name": "value",
                                "type": "uint256",
                                "value": "0"
                            }
                        ],
                        "signature": "Transfer(address,address,uint256)"
                    },
                    "id": 11,
                    "logData": "0x0000000000000000000000000000000000000000000000000000000000000000",
                    "logDecoded": true,
                    "operation": "EVENT",
                    "revert": false,
                    "status": true,
                    "topics": [
                        "0xddf252ad1be2c89b69c2b068fc378daa952ba7f163c4a11628f55a4df523b3ef",
                        "0x00000000000000000000000000356ce6250f8489d23ff32742256ab5be9dd8d7",
                        "0x00000000000000000000000041a1d9082c4a3b6225187cb851367c303accfac2"
                    ]
                },
                "nodeType": 1
            },
            "12": {
                "event": {
                    "contract": "0x2b591e99afe9f32eaa6214f7b7629768c40eeb39",
                    "decodedLog": {
                        "name": "Approval",
                        "params": [
                            {
                                "name": "owner",
                                "type": "address",
                                "value": "0x00356ce6250f8489d23ff32742256ab5be9dd8d7"
                            },
                            {
                                "name": "spender",
                                "type": "address",
                                "value": "0x6c5319df4fcca5961d71e117287c76a1f2aad593"
                            },
                            {
                                "decimalAvailable": true,
                                "name": "value",
                                "type": "uint256",
                                "value": "0"
                            }
                        ],
                        "signature": "Approval(address,address,uint256)"
                    },
                    "id": 12,
                    "logData": "0x0000000000000000000000000000000000000000000000000000000000000000",
                    "logDecoded": true,
                    "operation": "EVENT",
                    "revert": false,
                    "status": true,
                    "topics": [
                        "0x8c5be1e5ebec7d5bd14f71427d1e84f3dd0314c0f7b2291e5b200ac8c7c3b925",
                        "0x00000000000000000000000000356ce6250f8489d23ff32742256ab5be9dd8d7",
                        "0x0000000000000000000000006c5319df4fcca5961d71e117287c76a1f2aad593"
                    ]
                },
                "nodeType": 1
            },
            "13": {
                "invocation": {
                    "address": "0xdac17f958d2ee523a2206206994597c13d831ec7",
                    "callData": "0x0000000000000000000000003e903dd036e11d45344ee41390987e4d8561a95d000000000000000000000000d95821ebcf0d8aaffb048db0577694c863d977f30000000000000000000000000000000000000000000000000000000000000000",
                    "decodedMethod": {
                        "callParams": [
                            {
                                "name": "_from",
                                "type": "address",
                                "value": "0x3e903dd036e11d45344ee41390987e4d8561a95d"
                            },
                            {
                                "name": "_to",
                                "type": "address",
                                "value": "0xd95821ebcf0d8aaffb048db0577694c863d977f3"
                            },
                            {
                                "decimalAvailable": true,
                                "name": "_value",
                                "type": "uint256",
                                "value": "0"
                            }
                        ],
                        "constructorArguments": "",
                        "name": "transferFrom",
                        "returnParams": [],
                        "signature": "transferFrom(address,address,uint256)"
                    },
                    "errorInfo": "",
                    "fromAddress": "0x6c5319df4fcca5961d71e117287c76a1f2aad593",
                    "gasUsed": 7258,
                    "id": 13,
                    "methodDecoded": true,
                    "operation": "CALL",
                    "output": "",
                    "revert": false,
                    "revertMessage": "",
                    "selector": "0x23b872dd",
                    "status": true,
                    "value": "0"
                },
                "nodeType": 0
            },
            "14": {
                "event": {
                    "contract": "0xdac17f958d2ee523a2206206994597c13d831ec7",
                    "decodedLog": {
                        "name": "Transfer",
                        "params": [
                            {
                                "name": "from",
                                "type": "address",
                                "value": "0x3e903dd036e11d45344ee41390987e4d8561a95d"
                            },
                            {
                                "name": "to",
                                "type": "address",
                                "value": "0xd95821ebcf0d8aaffb048db0577694c863d977f3"
                            },
                            {
                                "decimalAvailable": true,
                                "name": "value",
                                "type": "uint256",
                                "value": "0"
                            }
                        ],
                        "signature": "Transfer(address,address,uint256)"
                    },
                    "id": 14,
                    "logData": "0x0000000000000000000000000000000000000000000000000000000000000000",
                    "logDecoded": true,
                    "operation": "EVENT",
                    "revert": false,
                    "status": true,
                    "topics": [
                        "0xddf252ad1be2c89b69c2b068fc378daa952ba7f163c4a11628f55a4df523b3ef",
                        "0x0000000000000000000000003e903dd036e11d45344ee41390987e4d8561a95d",
                        "0x000000000000000000000000d95821ebcf0d8aaffb048db0577694c863d977f3"
                    ]
                },
                "nodeType": 1
            },
            "15": {
                "invocation": {
                    "address": "0xa0b86991c6218b36c1d19d4a2e9eb0ce3606eb48",
                    "callData": "0x00000000000000000000000013a120f7a6bb521ec33d293cd1537504a2e182c200000000000000000000000099b7a3c3188b8c38a3c1c52ff9a61df1554389e60000000000000000000000000000000000000000000000000000000000000000",
                    "decodedMethod": {
                        "callParams": [
                            {
                                "name": "from",
                                "type": "address",
                                "value": "0x13a120f7a6bb521ec33d293cd1537504a2e182c2"
                            },
                            {
                                "name": "to",
                                "type": "address",
                                "value": "0x99b7a3c3188b8c38a3c1c52ff9a61df1554389e6"
                            },
                            {
                                "decimalAvailable": true,
                                "name": "value",
                                "type": "uint256",
                                "value": "0"
                            }
                        ],
                        "constructorArguments": "",
                        "name": "transferFrom",
                        "returnParams": [
                            {
                                "name": "",
                                "type": "bool",
                                "value": true
                            }
                        ],
                        "signature": "transferFrom(address,address,uint256)"
                    },
                    "errorInfo": "",
                    "fromAddress": "0x6c5319df4fcca5961d71e117287c76a1f2aad593",
                    "gasUsed": 15992,
                    "id": 15,
                    "methodDecoded": true,
                    "operation": "CALL",
                    "output": "0x0000000000000000000000000000000000000000000000000000000000000001",
                    "revert": false,
                    "revertMessage": "",
                    "selector": "0x23b872dd",
                    "status": true,
                    "value": "0"
                },
                "nodeType": 0
            },
            "16": {
                "invocation": {
                    "address": "0xa2327a938febf5fec13bacfb16ae10ecbc4cbdcf",
                    "callData": "0x00000000000000000000000013a120f7a6bb521ec33d293cd1537504a2e182c200000000000000000000000099b7a3c3188b8c38a3c1c52ff9a61df1554389e60000000000000000000000000000000000000000000000000000000000000000",
                    "decodedMethod": {
                        "callParams": [
                            {
                                "name": "from",
                                "type": "address",
                                "value": "0x13a120f7a6bb521ec33d293cd1537504a2e182c2"
                            },
                            {
                                "name": "to",
                                "type": "address",
                                "value": "0x99b7a3c3188b8c38a3c1c52ff9a61df1554389e6"
                            },
                            {
                                "decimalAvailable": true,
                                "name": "value",
                                "type": "uint256",
                                "value": "0"
                            }
                        ],
                        "constructorArguments": "",
                        "name": "transferFrom",
                        "returnParams": [
                            {
                                "name": "",
                                "type": "bool",
                                "value": true
                            }
                        ],
                        "signature": "transferFrom(address,address,uint256)"
                    },
                    "errorInfo": "",
                    "fromAddress": "0xa0b86991c6218b36c1d19d4a2e9eb0ce3606eb48",
                    "gasUsed": 15197,
                    "id": 16,
                    "methodDecoded": true,
                    "operation": "DELEGATECALL",
                    "output": "0x0000000000000000000000000000000000000000000000000000000000000001",
                    "revert": false,
                    "revertMessage": "",
                    "selector": "0x23b872dd",
                    "status": true,
                    "value": "0"
                },
                "nodeType": 0
            },
            "17": {
                "event": {
                    "contract": "0xa0b86991c6218b36c1d19d4a2e9eb0ce3606eb48",
                    "decodedLog": {
                        "name": "Transfer",
                        "params": [
                            {
                                "name": "from",
                                "type": "address",
                                "value": "0x13a120f7a6bb521ec33d293cd1537504a2e182c2"
                            },
                            {
                                "name": "to",
                                "type": "address",
                                "value": "0x99b7a3c3188b8c38a3c1c52ff9a61df1554389e6"
                            },
                            {
                                "decimalAvailable": true,
                                "name": "value",
                                "type": "uint256",
                                "value": "0"
                            }
                        ],
                        "signature": "Transfer(address,address,uint256)"
                    },
                    "id": 17,
                    "logData": "0x0000000000000000000000000000000000000000000000000000000000000000",
                    "logDecoded": true,
                    "operation": "EVENT",
                    "revert": false,
                    "status": true,
                    "topics": [
                        "0xddf252ad1be2c89b69c2b068fc378daa952ba7f163c4a11628f55a4df523b3ef",
                        "0x00000000000000000000000013a120f7a6bb521ec33d293cd1537504a2e182c2",
                        "0x00000000000000000000000099b7a3c3188b8c38a3c1c52ff9a61df1554389e6"
                    ]
                },
                "nodeType": 1
            },
            "18": {
                "invocation": {
                    "address": "0xdac17f958d2ee523a2206206994597c13d831ec7",
                    "callData": "0x0000000000000000000000001b204458c1125a20d7efcbc8f4ea3410287cf1cc0000000000000000000000008ce410610b5f88b8589482b13b8327e04c29d1b60000000000000000000000000000000000000000000000000000000000000000",
                    "decodedMethod": {
                        "callParams": [
                            {
                                "name": "_from",
                                "type": "address",
                                "value": "0x1b204458c1125a20d7efcbc8f4ea3410287cf1cc"
                            },
                            {
                                "name": "_to",
                                "type": "address",
                                "value": "0x8ce410610b5f88b8589482b13b8327e04c29d1b6"
                            },
                            {
                                "decimalAvailable": true,
                                "name": "_value",
                                "type": "uint256",
                                "value": "0"
                            }
                        ],
                        "constructorArguments": "",
                        "name": "transferFrom",
                        "returnParams": [],
                        "signature": "transferFrom(address,address,uint256)"
                    },
                    "errorInfo": "",
                    "fromAddress": "0x6c5319df4fcca5961d71e117287c76a1f2aad593",
                    "gasUsed": 13258,
                    "id": 18,
                    "methodDecoded": true,
                    "operation": "CALL",
                    "output": "",
                    "revert": false,
                    "revertMessage": "",
                    "selector": "0x23b872dd",
                    "status": true,
                    "value": "0"
                },
                "nodeType": 0
            },
            "19": {
                "event": {
                    "contract": "0xdac17f958d2ee523a2206206994597c13d831ec7",
                    "decodedLog": {
                        "name": "Transfer",
                        "params": [
                            {
                                "name": "from",
                                "type": "address",
                                "value": "0x1b204458c1125a20d7efcbc8f4ea3410287cf1cc"
                            },
                            {
                                "name": "to",
                                "type": "address",
                                "value": "0x8ce410610b5f88b8589482b13b8327e04c29d1b6"
                            },
                            {
                                "decimalAvailable": true,
                                "name": "value",
                                "type": "uint256",
                                "value": "0"
                            }
                        ],
                        "signature": "Transfer(address,address,uint256)"
                    },
                    "id": 19,
                    "logData": "0x0000000000000000000000000000000000000000000000000000000000000000",
                    "logDecoded": true,
                    "operation": "EVENT",
                    "revert": false,
                    "status": true,
                    "topics": [
                        "0xddf252ad1be2c89b69c2b068fc378daa952ba7f163c4a11628f55a4df523b3ef",
                        "0x0000000000000000000000001b204458c1125a20d7efcbc8f4ea3410287cf1cc",
                        "0x0000000000000000000000008ce410610b5f88b8589482b13b8327e04c29d1b6"
                    ]
                },
                "nodeType": 1
            },
            "2": {
                "event": {
                    "contract": "0xdac17f958d2ee523a2206206994597c13d831ec7",
                    "decodedLog": {
                        "name": "Transfer",
                        "params": [
                            {
                                "name": "from",
                                "type": "address",
                                "value": "0x3e903dd036e11d45344ee41390987e4d8561a95d"
                            },
                            {
                                "name": "to",
                                "type": "address",
                                "value": "0xd953c542aafa0a61baf619d54051493157d977f3"
                            },
                            {
                                "decimalAvailable": true,
                                "name": "value",
                                "type": "uint256",
                                "value": "0"
                            }
                        ],
                        "signature": "Transfer(address,address,uint256)"
                    },
                    "id": 2,
                    "logData": "0x0000000000000000000000000000000000000000000000000000000000000000",
                    "logDecoded": true,
                    "operation": "EVENT",
                    "revert": false,
                    "status": true,
                    "topics": [
                        "0xddf252ad1be2c89b69c2b068fc378daa952ba7f163c4a11628f55a4df523b3ef",
                        "0x0000000000000000000000003e903dd036e11d45344ee41390987e4d8561a95d",
                        "0x000000000000000000000000d953c542aafa0a61baf619d54051493157d977f3"
                    ]
                },
                "nodeType": 1
            },
            "20": {
                "invocation": {
                    "address": "0xdac17f958d2ee523a2206206994597c13d831ec7",
                    "callData": "0x00000000000000000000000055eeaa27c9ce98ed460a03a3c4f93c7b77f283270000000000000000000000003e855d6c9d1e6f8223995d618867ca3c0b42d1160000000000000000000000000000000000000000000000000000000000000000",
                    "decodedMethod": {
                        "callParams": [
                            {
                                "name": "_from",
                                "type": "address",
                                "value": "0x55eeaa27c9ce98ed460a03a3c4f93c7b77f28327"
                            },
                            {
                                "name": "_to",
                                "type": "address",
                                "value": "0x3e855d6c9d1e6f8223995d618867ca3c0b42d116"
                            },
                            {
                                "decimalAvailable": true,
                                "name": "_value",
                                "type": "uint256",
                                "value": "0"
                            }
                        ],
                        "constructorArguments": "",
                        "name": "transferFrom",
                        "returnParams": [],
                        "signature": "transferFrom(address,address,uint256)"
                    },
                    "errorInfo": "",
                    "fromAddress": "0x6c5319df4fcca5961d71e117287c76a1f2aad593",
                    "gasUsed": 13258,
                    "id": 20,
                    "methodDecoded": true,
                    "operation": "CALL",
                    "output": "",
                    "revert": false,
                    "revertMessage": "",
                    "selector": "0x23b872dd",
                    "status": true,
                    "value": "0"
                },
                "nodeType": 0
            },
            "21": {
                "event": {
                    "contract": "0xdac17f958d2ee523a2206206994597c13d831ec7",
                    "decodedLog": {
                        "name": "Transfer",
                        "params": [
                            {
                                "name": "from",
                                "type": "address",
                                "value": "0x55eeaa27c9ce98ed460a03a3c4f93c7b77f28327"
                            },
                            {
                                "name": "to",
                                "type": "address",
                                "value": "0x3e855d6c9d1e6f8223995d618867ca3c0b42d116"
                            },
                            {
                                "decimalAvailable": true,
                                "name": "value",
                                "type": "uint256",
                                "value": "0"
                            }
                        ],
                        "signature": "Transfer(address,address,uint256)"
                    },
                    "id": 21,
                    "logData": "0x0000000000000000000000000000000000000000000000000000000000000000",
                    "logDecoded": true,
                    "operation": "EVENT",
                    "revert": false,
                    "status": true,
                    "topics": [
                        "0xddf252ad1be2c89b69c2b068fc378daa952ba7f163c4a11628f55a4df523b3ef",
                        "0x00000000000000000000000055eeaa27c9ce98ed460a03a3c4f93c7b77f28327",
                        "0x0000000000000000000000003e855d6c9d1e6f8223995d618867ca3c0b42d116"
                    ]
                },
                "nodeType": 1
            },
            "22": {
                "invocation": {
                    "address": "0xc02aaa39b223fe8d0a0e5c4f27ead9083c756cc2",
                    "callData": "0x00000000000000000000000035f09f57fd5c6106da70f4ed8e14312614747efc0000000000000000000000000cbe32c2d223f65ea91ef5ddc3e9515f24ccffe50000000000000000000000000000000000000000000000000000000000000000",
                    "decodedMethod": {
                        "callParams": [
                            {
                                "name": "src",
                                "type": "address",
                                "value": "0x35f09f57fd5c6106da70f4ed8e14312614747efc"
                            },
                            {
                                "name": "dst",
                                "type": "address",
                                "value": "0x0cbe32c2d223f65ea91ef5ddc3e9515f24ccffe5"
                            },
                            {
                                "decimalAvailable": true,
                                "name": "wad",
                                "type": "uint256",
                                "value": "0"
                            }
                        ],
                        "constructorArguments": "",
                        "name": "transferFrom",
                        "returnParams": [
                            {
                                "name": "",
                                "type": "bool",
                                "value": true
                            }
                        ],
                        "signature": "transferFrom(address,address,uint256)"
                    },
                    "errorInfo": "",
                    "fromAddress": "0x6c5319df4fcca5961d71e117287c76a1f2aad593",
                    "gasUsed": 10148,
                    "id": 22,
                    "methodDecoded": true,
                    "operation": "CALL",
                    "output": "0x0000000000000000000000000000000000000000000000000000000000000001",
                    "revert": false,
                    "revertMessage": "",
                    "selector": "0x23b872dd",
                    "status": true,
                    "value": "0"
                },
                "nodeType": 0
            },
            "23": {
                "event": {
                    "contract": "0xc02aaa39b223fe8d0a0e5c4f27ead9083c756cc2",
                    "decodedLog": {
                        "name": "Transfer",
                        "params": [
                            {
                                "name": "src",
                                "type": "address",
                                "value": "0x35f09f57fd5c6106da70f4ed8e14312614747efc"
                            },
                            {
                                "name": "dst",
                                "type": "address",
                                "value": "0x0cbe32c2d223f65ea91ef5ddc3e9515f24ccffe5"
                            },
                            {
                                "decimalAvailable": true,
                                "name": "wad",
                                "type": "uint256",
                                "value": "0"
                            }
                        ],
                        "signature": "Transfer(address,address,uint256)"
                    },
                    "id": 23,
                    "logData": "0x0000000000000000000000000000000000000000000000000000000000000000",
                    "logDecoded": true,
                    "operation": "EVENT",
                    "revert": false,
                    "status": true,
                    "topics": [
                        "0xddf252ad1be2c89b69c2b068fc378daa952ba7f163c4a11628f55a4df523b3ef",
                        "0x00000000000000000000000035f09f57fd5c6106da70f4ed8e14312614747efc",
                        "0x0000000000000000000000000cbe32c2d223f65ea91ef5ddc3e9515f24ccffe5"
                    ]
                },
                "nodeType": 1
            },
            "24": {
                "invocation": {
                    "address": "0xdac17f958d2ee523a2206206994597c13d831ec7",
                    "callData": "0x0000000000000000000000005851a8e8401036fcb3324133526b3fc248370028000000000000000000000000222778104620466240d5cdb92cc694a072941aff0000000000000000000000000000000000000000000000000000000000000000",
                    "decodedMethod": {
                        "callParams": [
                            {
                                "name": "_from",
                                "type": "address",
                                "value": "0x5851a8e8401036fcb3324133526b3fc248370028"
                            },
                            {
                                "name": "_to",
                                "type": "address",
                                "value": "0x222778104620466240d5cdb92cc694a072941aff"
                            },
                            {
                                "decimalAvailable": true,
                                "name": "_value",
                                "type": "uint256",
                                "value": "0"
                            }
                        ],
                        "constructorArguments": "",
                        "name": "transferFrom",
                        "returnParams": [],
                        "signature": "transferFrom(address,address,uint256)"
                    },
                    "errorInfo": "",
                    "fromAddress": "0x6c5319df4fcca5961d71e117287c76a1f2aad593",
                    "gasUsed": 13258,
                    "id": 24,
                    "methodDecoded": true,
                    "operation": "CALL",
                    "output": "",
                    "revert": false,
                    "revertMessage": "",
                    "selector": "0x23b872dd",
                    "status": true,
                    "value": "0"
                },
                "nodeType": 0
            },
            "25": {
                "event": {
                    "contract": "0xdac17f958d2ee523a2206206994597c13d831ec7",
                    "decodedLog": {
                        "name": "Transfer",
                        "params": [
                            {
                                "name": "from",
                                "type": "address",
                                "value": "0x5851a8e8401036fcb3324133526b3fc248370028"
                            },
                            {
                                "name": "to",
                                "type": "address",
                                "value": "0x222778104620466240d5cdb92cc694a072941aff"
                            },
                            {
                                "decimalAvailable": true,
                                "name": "value",
                                "type": "uint256",
                                "value": "0"
                            }
                        ],
                        "signature": "Transfer(address,address,uint256)"
                    },
                    "id": 25,
                    "logData": "0x0000000000000000000000000000000000000000000000000000000000000000",
                    "logDecoded": true,
                    "operation": "EVENT",
                    "revert": false,
                    "status": true,
                    "topics": [
                        "0xddf252ad1be2c89b69c2b068fc378daa952ba7f163c4a11628f55a4df523b3ef",
                        "0x0000000000000000000000005851a8e8401036fcb3324133526b3fc248370028",
                        "0x000000000000000000000000222778104620466240d5cdb92cc694a072941aff"
                    ]
                },
                "nodeType": 1
            },
            "26": {
                "invocation": {
                    "address": "0xc02aaa39b223fe8d0a0e5c4f27ead9083c756cc2",
                    "callData": "0x000000000000000000000000a816d5f2333817b0843eb85e01bba823885a913c000000000000000000000000860d37f3fd8c71c0a30150063a6ffbf8cb7545f80000000000000000000000000000000000000000000000000000000000000000",
                    "decodedMethod": {
                        "callParams": [
                            {
                                "name": "src",
                                "type": "address",
                                "value": "0xa816d5f2333817b0843eb85e01bba823885a913c"
                            },
                            {
                                "name": "dst",
                                "type": "address",
                                "value": "0x860d37f3fd8c71c0a30150063a6ffbf8cb7545f8"
                            },
                            {
                                "decimalAvailable": true,
                                "name": "wad",
                                "type": "uint256",
                                "value": "0"
                            }
                        ],
                        "constructorArguments": "",
                        "name": "transferFrom",
                        "returnParams": [
                            {
                                "name": "",
                                "type": "bool",
                                "value": true
                            }
                        ],
                        "signature": "transferFrom(address,address,uint256)"
                    },
                    "errorInfo": "",
                    "fromAddress": "0x6c5319df4fcca5961d71e117287c76a1f2aad593",
                    "gasUsed": 10148,
                    "id": 26,
                    "methodDecoded": true,
                    "operation": "CALL",
                    "output": "0x0000000000000000000000000000000000000000000000000000000000000001",
                    "revert": false,
                    "revertMessage": "",
                    "selector": "0x23b872dd",
                    "status": true,
                    "value": "0"
                },
                "nodeType": 0
            },
            "27": {
                "event": {
                    "contract": "0xc02aaa39b223fe8d0a0e5c4f27ead9083c756cc2",
                    "decodedLog": {
                        "name": "Transfer",
                        "params": [
                            {
                                "name": "src",
                                "type": "address",
                                "value": "0xa816d5f2333817b0843eb85e01bba823885a913c"
                            },
                            {
                                "name": "dst",
                                "type": "address",
                                "value": "0x860d37f3fd8c71c0a30150063a6ffbf8cb7545f8"
                            },
                            {
                                "decimalAvailable": true,
                                "name": "wad",
                                "type": "uint256",
                                "value": "0"
                            }
                        ],
                        "signature": "Transfer(address,address,uint256)"
                    },
                    "id": 27,
                    "logData": "0x0000000000000000000000000000000000000000000000000000000000000000",
                    "logDecoded": true,
                    "operation": "EVENT",
                    "revert": false,
                    "status": true,
                    "topics": [
                        "0xddf252ad1be2c89b69c2b068fc378daa952ba7f163c4a11628f55a4df523b3ef",
                        "0x000000000000000000000000a816d5f2333817b0843eb85e01bba823885a913c",
                        "0x000000000000000000000000860d37f3fd8c71c0a30150063a6ffbf8cb7545f8"
                    ]
                },
                "nodeType": 1
            },
            "28": {
                "invocation": {
                    "address": "0xdac17f958d2ee523a2206206994597c13d831ec7",
                    "callData": "0x000000000000000000000000c0d2fee9deb8440790f6a1f95f89b3ef1daf8ae0000000000000000000000000b93e8c129381dc97e406dbe3c3e2cf7fe37bb4150000000000000000000000000000000000000000000000000000000000000000",
                    "decodedMethod": {
                        "callParams": [
                            {
                                "name": "_from",
                                "type": "address",
                                "value": "0xc0d2fee9deb8440790f6a1f95f89b3ef1daf8ae0"
                            },
                            {
                                "name": "_to",
                                "type": "address",
                                "value": "0xb93e8c129381dc97e406dbe3c3e2cf7fe37bb415"
                            },
                            {
                                "decimalAvailable": true,
                                "name": "_value",
                                "type": "uint256",
                                "value": "0"
                            }
                        ],
                        "constructorArguments": "",
                        "name": "transferFrom",
                        "returnParams": [],
                        "signature": "transferFrom(address,address,uint256)"
                    },
                    "errorInfo": "",
                    "fromAddress": "0x6c5319df4fcca5961d71e117287c76a1f2aad593",
                    "gasUsed": 13258,
                    "id": 28,
                    "methodDecoded": true,
                    "operation": "CALL",
                    "output": "",
                    "revert": false,
                    "revertMessage": "",
                    "selector": "0x23b872dd",
                    "status": true,
                    "value": "0"
                },
                "nodeType": 0
            },
            "29": {
                "event": {
                    "contract": "0xdac17f958d2ee523a2206206994597c13d831ec7",
                    "decodedLog": {
                        "name": "Transfer",
                        "params": [
                            {
                                "name": "from",
                                "type": "address",
                                "value": "0xc0d2fee9deb8440790f6a1f95f89b3ef1daf8ae0"
                            },
                            {
                                "name": "to",
                                "type": "address",
                                "value": "0xb93e8c129381dc97e406dbe3c3e2cf7fe37bb415"
                            },
                            {
                                "decimalAvailable": true,
                                "name": "value",
                                "type": "uint256",
                                "value": "0"
                            }
                        ],
                        "signature": "Transfer(address,address,uint256)"
                    },
                    "id": 29,
                    "logData": "0x0000000000000000000000000000000000000000000000000000000000000000",
                    "logDecoded": true,
                    "operation": "EVENT",
                    "revert": false,
                    "status": true,
                    "topics": [
                        "0xddf252ad1be2c89b69c2b068fc378daa952ba7f163c4a11628f55a4df523b3ef",
                        "0x000000000000000000000000c0d2fee9deb8440790f6a1f95f89b3ef1daf8ae0",
                        "0x000000000000000000000000b93e8c129381dc97e406dbe3c3e2cf7fe37bb415"
                    ]
                },
                "nodeType": 1
            },
            "3": {
                "invocation": {
                    "address": "0xc02aaa39b223fe8d0a0e5c4f27ead9083c756cc2",
                    "callData": "0x000000000000000000000000ca9c5d7be1ab0e85791682234873445e0cdff91a000000000000000000000000f6583462034dc86d9519e86792dc068ef1d02d4d0000000000000000000000000000000000000000000000000000000000000000",
                    "decodedMethod": {
                        "callParams": [
                            {
                                "name": "src",
                                "type": "address",
                                "value": "0xca9c5d7be1ab0e85791682234873445e0cdff91a"
                            },
                            {
                                "name": "dst",
                                "type": "address",
                                "value": "0xf6583462034dc86d9519e86792dc068ef1d02d4d"
                            },
                            {
                                "decimalAvailable": true,
                                "name": "wad",
                                "type": "uint256",
                                "value": "0"
                            }
                        ],
                        "constructorArguments": "",
                        "name": "transferFrom",
                        "returnParams": [
                            {
                                "name": "",
                                "type": "bool",
                                "value": true
                            }
                        ],
                        "signature": "transferFrom(address,address,uint256)"
                    },
                    "errorInfo": "",
                    "fromAddress": "0x6c5319df4fcca5961d71e117287c76a1f2aad593",
                    "gasUsed": 10148,
                    "id": 3,
                    "methodDecoded": true,
                    "operation": "CALL",
                    "output": "0x0000000000000000000000000000000000000000000000000000000000000001",
                    "revert": false,
                    "revertMessage": "",
                    "selector": "0x23b872dd",
                    "status": true,
                    "value": "0"
                },
                "nodeType": 0
            },
            "30": {
                "invocation": {
                    "address": "0xdac17f958d2ee523a2206206994597c13d831ec7",
                    "callData": "0x000000000000000000000000403466a60252e6339572757645426c62894b8bb6000000000000000000000000ccd4f7394ca8e40671cb065328fea59ffb18b6790000000000000000000000000000000000000000000000000000000000000000",
                    "decodedMethod": {
                        "callParams": [
                            {
                                "name": "_from",
                                "type": "address",
                                "value": "0x403466a60252e6339572757645426c62894b8bb6"
                            },
                            {
                                "name": "_to",
                                "type": "address",
                                "value": "0xccd4f7394ca8e40671cb065328fea59ffb18b679"
                            },
                            {
                                "decimalAvailable": true,
                                "name": "_value",
                                "type": "uint256",
                                "value": "0"
                            }
                        ],
                        "constructorArguments": "",
                        "name": "transferFrom",
                        "returnParams": [],
                        "signature": "transferFrom(address,address,uint256)"
                    },
                    "errorInfo": "",
                    "fromAddress": "0x6c5319df4fcca5961d71e117287c76a1f2aad593",
                    "gasUsed": 13258,
                    "id": 30,
                    "methodDecoded": true,
                    "operation": "CALL",
                    "output": "",
                    "revert": false,
                    "revertMessage": "",
                    "selector": "0x23b872dd",
                    "status": true,
                    "value": "0"
                },
                "nodeType": 0
            },
            "31": {
                "event": {
                    "contract": "0xdac17f958d2ee523a2206206994597c13d831ec7",
                    "decodedLog": {
                        "name": "Transfer",
                        "params": [
                            {
                                "name": "from",
                                "type": "address",
                                "value": "0x403466a60252e6339572757645426c62894b8bb6"
                            },
                            {
                                "name": "to",
                                "type": "address",
                                "value": "0xccd4f7394ca8e40671cb065328fea59ffb18b679"
                            },
                            {
                                "decimalAvailable": true,
                                "name": "value",
                                "type": "uint256",
                                "value": "0"
                            }
                        ],
                        "signature": "Transfer(address,address,uint256)"
                    },
                    "id": 31,
                    "logData": "0x0000000000000000000000000000000000000000000000000000000000000000",
                    "logDecoded": true,
                    "operation": "EVENT",
                    "revert": false,
                    "status": true,
                    "topics": [
                        "0xddf252ad1be2c89b69c2b068fc378daa952ba7f163c4a11628f55a4df523b3ef",
                        "0x000000000000000000000000403466a60252e6339572757645426c62894b8bb6",
                        "0x000000000000000000000000ccd4f7394ca8e40671cb065328fea59ffb18b679"
                    ]
                },
                "nodeType": 1
            },
            "32": {
                "invocation": {
                    "address": "0xa0b86991c6218b36c1d19d4a2e9eb0ce3606eb48",
                    "callData": "0x0000000000000000000000008a118182895647c2d9bd4e8701beddc097a80d9f000000000000000000000000d8b33bc647a66ad460e08904676f8e6476e8d2d90000000000000000000000000000000000000000000000000000000000000000",
                    "decodedMethod": {
                        "callParams": [
                            {
                                "name": "from",
                                "type": "address",
                                "value": "0x8a118182895647c2d9bd4e8701beddc097a80d9f"
                            },
                            {
                                "name": "to",
                                "type": "address",
                                "value": "0xd8b33bc647a66ad460e08904676f8e6476e8d2d9"
                            },
                            {
                                "decimalAvailable": true,
                                "name": "value",
                                "type": "uint256",
                                "value": "0"
                            }
                        ],
                        "constructorArguments": "",
                        "name": "transferFrom",
                        "returnParams": [
                            {
                                "name": "",
                                "type": "bool",
                                "value": true
                            }
                        ],
                        "signature": "transferFrom(address,address,uint256)"
                    },
                    "errorInfo": "",
                    "fromAddress": "0x6c5319df4fcca5961d71e117287c76a1f2aad593",
                    "gasUsed": 15992,
                    "id": 32,
                    "methodDecoded": true,
                    "operation": "CALL",
                    "output": "0x0000000000000000000000000000000000000000000000000000000000000001",
                    "revert": false,
                    "revertMessage": "",
                    "selector": "0x23b872dd",
                    "status": true,
                    "value": "0"
                },
                "nodeType": 0
            },
            "33": {
                "invocation": {
                    "address": "0xa2327a938febf5fec13bacfb16ae10ecbc4cbdcf",
                    "callData": "0x0000000000000000000000008a118182895647c2d9bd4e8701beddc097a80d9f000000000000000000000000d8b33bc647a66ad460e08904676f8e6476e8d2d90000000000000000000000000000000000000000000000000000000000000000",
                    "decodedMethod": {
                        "callParams": [
                            {
                                "name": "from",
                                "type": "address",
                                "value": "0x8a118182895647c2d9bd4e8701beddc097a80d9f"
                            },
                            {
                                "name": "to",
                                "type": "address",
                                "value": "0xd8b33bc647a66ad460e08904676f8e6476e8d2d9"
                            },
                            {
                                "decimalAvailable": true,
                                "name": "value",
                                "type": "uint256",
                                "value": "0"
                            }
                        ],
                        "constructorArguments": "",
                        "name": "transferFrom",
                        "returnParams": [
                            {
                                "name": "",
                                "type": "bool",
                                "value": true
                            }
                        ],
                        "signature": "transferFrom(address,address,uint256)"
                    },
                    "errorInfo": "",
                    "fromAddress": "0xa0b86991c6218b36c1d19d4a2e9eb0ce3606eb48",
                    "gasUsed": 15197,
                    "id": 33,
                    "methodDecoded": true,
                    "operation": "DELEGATECALL",
                    "output": "0x0000000000000000000000000000000000000000000000000000000000000001",
                    "revert": false,
                    "revertMessage": "",
                    "selector": "0x23b872dd",
                    "status": true,
                    "value": "0"
                },
                "nodeType": 0
            },
            "34": {
                "event": {
                    "contract": "0xa0b86991c6218b36c1d19d4a2e9eb0ce3606eb48",
                    "decodedLog": {
                        "name": "Transfer",
                        "params": [
                            {
                                "name": "from",
                                "type": "address",
                                "value": "0x8a118182895647c2d9bd4e8701beddc097a80d9f"
                            },
                            {
                                "name": "to",
                                "type": "address",
                                "value": "0xd8b33bc647a66ad460e08904676f8e6476e8d2d9"
                            },
                            {
                                "decimalAvailable": true,
                                "name": "value",
                                "type": "uint256",
                                "value": "0"
                            }
                        ],
                        "signature": "Transfer(address,address,uint256)"
                    },
                    "id": 34,
                    "logData": "0x0000000000000000000000000000000000000000000000000000000000000000",
                    "logDecoded": true,
                    "operation": "EVENT",
                    "revert": false,
                    "status": true,
                    "topics": [
                        "0xddf252ad1be2c89b69c2b068fc378daa952ba7f163c4a11628f55a4df523b3ef",
                        "0x0000000000000000000000008a118182895647c2d9bd4e8701beddc097a80d9f",
                        "0x000000000000000000000000d8b33bc647a66ad460e08904676f8e6476e8d2d9"
                    ]
                },
                "nodeType": 1
            },
            "4": {
                "event": {
                    "contract": "0xc02aaa39b223fe8d0a0e5c4f27ead9083c756cc2",
                    "decodedLog": {
                        "name": "Transfer",
                        "params": [
                            {
                                "name": "src",
                                "type": "address",
                                "value": "0xca9c5d7be1ab0e85791682234873445e0cdff91a"
                            },
                            {
                                "name": "dst",
                                "type": "address",
                                "value": "0xf6583462034dc86d9519e86792dc068ef1d02d4d"
                            },
                            {
                                "decimalAvailable": true,
                                "name": "wad",
                                "type": "uint256",
                                "value": "0"
                            }
                        ],
                        "signature": "Transfer(address,address,uint256)"
                    },
                    "id": 4,
                    "logData": "0x0000000000000000000000000000000000000000000000000000000000000000",
                    "logDecoded": true,
                    "operation": "EVENT",
                    "revert": false,
                    "status": true,
                    "topics": [
                        "0xddf252ad1be2c89b69c2b068fc378daa952ba7f163c4a11628f55a4df523b3ef",
                        "0x000000000000000000000000ca9c5d7be1ab0e85791682234873445e0cdff91a",
                        "0x000000000000000000000000f6583462034dc86d9519e86792dc068ef1d02d4d"
                    ]
                },
                "nodeType": 1
            },
            "5": {
                "invocation": {
                    "address": "0xa0b86991c6218b36c1d19d4a2e9eb0ce3606eb48",
                    "callData": "0x00000000000000000000000046aff093df3b7dd62c4b3ed29ac4ddb741f9c130000000000000000000000000d018ee99fff5eea8f26fe918c4acebaa48c429fa0000000000000000000000000000000000000000000000000000000000000000",
                    "decodedMethod": {
                        "callParams": [
                            {
                                "name": "from",
                                "type": "address",
                                "value": "0x46aff093df3b7dd62c4b3ed29ac4ddb741f9c130"
                            },
                            {
                                "name": "to",
                                "type": "address",
                                "value": "0xd018ee99fff5eea8f26fe918c4acebaa48c429fa"
                            },
                            {
                                "decimalAvailable": true,
                                "name": "value",
                                "type": "uint256",
                                "value": "0"
                            }
                        ],
                        "constructorArguments": "",
                        "name": "transferFrom",
                        "returnParams": [
                            {
                                "name": "",
                                "type": "bool",
                                "value": true
                            }
                        ],
                        "signature": "transferFrom(address,address,uint256)"
                    },
                    "errorInfo": "",
                    "fromAddress": "0x6c5319df4fcca5961d71e117287c76a1f2aad593",
                    "gasUsed": 26492,
                    "id": 5,
                    "methodDecoded": true,
                    "operation": "CALL",
                    "output": "0x0000000000000000000000000000000000000000000000000000000000000001",
                    "revert": false,
                    "revertMessage": "",
                    "selector": "0x23b872dd",
                    "status": true,
                    "value": "0"
                },
                "nodeType": 0
            },
            "6": {
                "invocation": {
                    "address": "0xa2327a938febf5fec13bacfb16ae10ecbc4cbdcf",
                    "callData": "0x00000000000000000000000046aff093df3b7dd62c4b3ed29ac4ddb741f9c130000000000000000000000000d018ee99fff5eea8f26fe918c4acebaa48c429fa0000000000000000000000000000000000000000000000000000000000000000",
                    "decodedMethod": {
                        "callParams": [
                            {
                                "name": "from",
                                "type": "address",
                                "value": "0x46aff093df3b7dd62c4b3ed29ac4ddb741f9c130"
                            },
                            {
                                "name": "to",
                                "type": "address",
                                "value": "0xd018ee99fff5eea8f26fe918c4acebaa48c429fa"
                            },
                            {
                                "decimalAvailable": true,
                                "name": "value",
                                "type": "uint256",
                                "value": "0"
                            }
                        ],
                        "constructorArguments": "",
                        "name": "transferFrom",
                        "returnParams": [
                            {
                                "name": "",
                                "type": "bool",
                                "value": true
                            }
                        ],
                        "signature": "transferFrom(address,address,uint256)"
                    },
                    "errorInfo": "",
                    "fromAddress": "0xa0b86991c6218b36c1d19d4a2e9eb0ce3606eb48",
                    "gasUsed": 19197,
                    "id": 6,
                    "methodDecoded": true,
                    "operation": "DELEGATECALL",
                    "output": "0x0000000000000000000000000000000000000000000000000000000000000001",
                    "revert": false,
                    "revertMessage": "",
                    "selector": "0x23b872dd",
                    "status": true,
                    "value": "0"
                },
                "nodeType": 0
            },
            "7": {
                "event": {
                    "contract": "0xa0b86991c6218b36c1d19d4a2e9eb0ce3606eb48",
                    "decodedLog": {
                        "name": "Transfer",
                        "params": [
                            {
                                "name": "from",
                                "type": "address",
                                "value": "0x46aff093df3b7dd62c4b3ed29ac4ddb741f9c130"
                            },
                            {
                                "name": "to",
                                "type": "address",
                                "value": "0xd018ee99fff5eea8f26fe918c4acebaa48c429fa"
                            },
                            {
                                "decimalAvailable": true,
                                "name": "value",
                                "type": "uint256",
                                "value": "0"
                            }
                        ],
                        "signature": "Transfer(address,address,uint256)"
                    },
                    "id": 7,
                    "logData": "0x0000000000000000000000000000000000000000000000000000000000000000",
                    "logDecoded": true,
                    "operation": "EVENT",
                    "revert": false,
                    "status": true,
                    "topics": [
                        "0xddf252ad1be2c89b69c2b068fc378daa952ba7f163c4a11628f55a4df523b3ef",
                        "0x00000000000000000000000046aff093df3b7dd62c4b3ed29ac4ddb741f9c130",
                        "0x000000000000000000000000d018ee99fff5eea8f26fe918c4acebaa48c429fa"
                    ]
                },
                "nodeType": 1
            },
            "8": {
                "invocation": {
                    "address": "0xdac17f958d2ee523a2206206994597c13d831ec7",
                    "callData": "0x000000000000000000000000d910254222ae825aa2448e46200be08809403d02000000000000000000000000fb7715ce647452d1799d7cd12fcc0ca0adfe48e30000000000000000000000000000000000000000000000000000000000000000",
                    "decodedMethod": {
                        "callParams": [
                            {
                                "name": "_from",
                                "type": "address",
                                "value": "0xd910254222ae825aa2448e46200be08809403d02"
                            },
                            {
                                "name": "_to",
                                "type": "address",
                                "value": "0xfb7715ce647452d1799d7cd12fcc0ca0adfe48e3"
                            },
                            {
                                "decimalAvailable": true,
                                "name": "_value",
                                "type": "uint256",
                                "value": "0"
                            }
                        ],
                        "constructorArguments": "",
                        "name": "transferFrom",
                        "returnParams": [],
                        "signature": "transferFrom(address,address,uint256)"
                    },
                    "errorInfo": "",
                    "fromAddress": "0x6c5319df4fcca5961d71e117287c76a1f2aad593",
                    "gasUsed": 13258,
                    "id": 8,
                    "methodDecoded": true,
                    "operation": "CALL",
                    "output": "",
                    "revert": false,
                    "revertMessage": "",
                    "selector": "0x23b872dd",
                    "status": true,
                    "value": "0"
                },
                "nodeType": 0
            },
            "9": {
                "event": {
                    "contract": "0xdac17f958d2ee523a2206206994597c13d831ec7",
                    "decodedLog": {
                        "name": "Transfer",
                        "params": [
                            {
                                "name": "from",
                                "type": "address",
                                "value": "0xd910254222ae825aa2448e46200be08809403d02"
                            },
                            {
                                "name": "to",
                                "type": "address",
                                "value": "0xfb7715ce647452d1799d7cd12fcc0ca0adfe48e3"
                            },
                            {
                                "decimalAvailable": true,
                                "name": "value",
                                "type": "uint256",
                                "value": "0"
                            }
                        ],
                        "signature": "Transfer(address,address,uint256)"
                    },
                    "id": 9,
                    "logData": "0x0000000000000000000000000000000000000000000000000000000000000000",
                    "logDecoded": true,
                    "operation": "EVENT",
                    "revert": false,
                    "status": true,
                    "topics": [
                        "0xddf252ad1be2c89b69c2b068fc378daa952ba7f163c4a11628f55a4df523b3ef",
                        "0x000000000000000000000000d910254222ae825aa2448e46200be08809403d02",
                        "0x000000000000000000000000fb7715ce647452d1799d7cd12fcc0ca0adfe48e3"
                    ]
                },
                "nodeType": 1
            }
        },
        "gasFlame": [
            {
                "children": [
                    {
                        "children": [
                            {
                                "children": [],
                                "depth": 0,
                                "name": "Initial Gas",
                                "value": 37880
                            },
                            {
                                "children": [
                                    {
                                        "children": [],
                                        "depth": 1,
                                        "name": "transferFrom",
                                        "value": 21258
                                    },
                                    {
                                        "children": [],
                                        "depth": 1,
                                        "name": "transferFrom",
                                        "value": 10148
                                    },
                                    {
                                        "children": [
                                            {
                                                "children": [],
                                                "depth": 2,
                                                "name": "transferFrom",
                                                "value": 19197
                                            }
                                        ],
                                        "depth": 1,
                                        "name": "transferFrom",
                                        "value": 26492
                                    },
                                    {
                                        "children": [],
                                        "depth": 1,
                                        "name": "transferFrom",
                                        "value": 13258
                                    },
                                    {
                                        "children": [],
                                        "depth": 1,
                                        "name": "transferFrom",
                                        "value": 12061
                                    },
                                    {
                                        "children": [],
                                        "depth": 1,
                                        "name": "transferFrom",
                                        "value": 7258
                                    },
                                    {
                                        "children": [
                                            {
                                                "children": [],
                                                "depth": 2,
                                                "name": "transferFrom",
                                                "value": 15197
                                            }
                                        ],
                                        "depth": 1,
                                        "name": "transferFrom",
                                        "value": 15992
                                    },
                                    {
                                        "children": [],
                                        "depth": 1,
                                        "name": "transferFrom",
                                        "value": 13258
                                    },
                                    {
                                        "children": [],
                                        "depth": 1,
                                        "name": "transferFrom",
                                        "value": 13258
                                    },
                                    {
                                        "children": [],
                                        "depth": 1,
                                        "name": "transferFrom",
                                        "value": 10148
                                    },
                                    {
                                        "children": [],
                                        "depth": 1,
                                        "name": "transferFrom",
                                        "value": 13258
                                    },
                                    {
                                        "children": [],
                                        "depth": 1,
                                        "name": "transferFrom",
                                        "value": 10148
                                    },
                                    {
                                        "children": [],
                                        "depth": 1,
                                        "name": "transferFrom",
                                        "value": 13258
                                    },
                                    {
                                        "children": [],
                                        "depth": 1,
                                        "name": "transferFrom",
                                        "value": 13258
                                    },
                                    {
                                        "children": [
                                            {
                                                "children": [],
                                                "depth": 2,
                                                "name": "transferFrom",
                                                "value": 15197
                                            }
                                        ],
                                        "depth": 1,
                                        "name": "transferFrom",
                                        "value": 15992
                                    }
                                ],
                                "depth": 0,
                                "name": "Executed Gas",
                                "value": 287533
                            }
                        ],
                        "depth": -1,
                        "name": "Actual Gas Used",
                        "value": 317013
                    },
                    {
                        "children": [],
                        "depth": -1,
                        "name": "Refunded Gas",
                        "value": 8400
                    }
                ],
                "depth": -2,
                "name": "Total Gas",
                "value": 325413
            }
        ],
        "isConfirmed": true,
        "mainTrace": [
            {
                "children": [
                    {
                        "children": [
                            {
                                "children": [
                                    {
                                        "children": [],
                                        "depth": 2,
                                        "id": 2,
                                        "order": 2
                                    }
                                ],
                                "depth": 1,
                                "id": 1,
                                "order": 1
                            },
                            {
                                "children": [
                                    {
                                        "children": [],
                                        "depth": 2,
                                        "id": 4,
                                        "order": 4
                                    }
                                ],
                                "depth": 1,
                                "id": 3,
                                "order": 3
                            },
                            {
                                "children": [
                                    {
                                        "children": [
                                            {
                                                "children": [],
                                                "depth": 3,
                                                "id": 7,
                                                "order": 7
                                            }
                                        ],
                                        "depth": 2,
                                        "id": 6,
                                        "order": 6
                                    }
                                ],
                                "depth": 1,
                                "id": 5,
                                "order": 5
                            },
                            {
                                "children": [
                                    {
                                        "children": [],
                                        "depth": 2,
                                        "id": 9,
                                        "order": 9
                                    }
                                ],
                                "depth": 1,
                                "id": 8,
                                "order": 8
                            },
                            {
                                "children": [
                                    {
                                        "children": [],
                                        "depth": 2,
                                        "id": 11,
                                        "order": 11
                                    },
                                    {
                                        "children": [],
                                        "depth": 2,
                                        "id": 12,
                                        "order": 12
                                    }
                                ],
                                "depth": 1,
                                "id": 10,
                                "order": 10
                            },
                            {
                                "children": [
                                    {
                                        "children": [],
                                        "depth": 2,
                                        "id": 14,
                                        "order": 14
                                    }
                                ],
                                "depth": 1,
                                "id": 13,
                                "order": 13
                            },
                            {
                                "children": [
                                    {
                                        "children": [
                                            {
                                                "children": [],
                                                "depth": 3,
                                                "id": 17,
                                                "order": 17
                                            }
                                        ],
                                        "depth": 2,
                                        "id": 16,
                                        "order": 16
                                    }
                                ],
                                "depth": 1,
                                "id": 15,
                                "order": 15
                            },
                            {
                                "children": [
                                    {
                                        "children": [],
                                        "depth": 2,
                                        "id": 19,
                                        "order": 19
                                    }
                                ],
                                "depth": 1,
                                "id": 18,
                                "order": 18
                            },
                            {
                                "children": [
                                    {
                                        "children": [],
                                        "depth": 2,
                                        "id": 21,
                                        "order": 21
                                    }
                                ],
                                "depth": 1,
                                "id": 20,
                                "order": 20
                            },
                            {
                                "children": [
                                    {
                                        "children": [],
                                        "depth": 2,
                                        "id": 23,
                                        "order": 23
                                    }
                                ],
                                "depth": 1,
                                "id": 22,
                                "order": 22
                            },
                            {
                                "children": [
                                    {
                                        "children": [],
                                        "depth": 2,
                                        "id": 25,
                                        "order": 25
                                    }
                                ],
                                "depth": 1,
                                "id": 24,
                                "order": 24
                            },
                            {
                                "children": [
                                    {
                                        "children": [],
                                        "depth": 2,
                                        "id": 27,
                                        "order": 27
                                    }
                                ],
                                "depth": 1,
                                "id": 26,
                                "order": 26
                            },
                            {
                                "children": [
                                    {
                                        "children": [],
                                        "depth": 2,
                                        "id": 29,
                                        "order": 29
                                    }
                                ],
                                "depth": 1,
                                "id": 28,
                                "order": 28
                            },
                            {
                                "children": [
                                    {
                                        "children": [],
                                        "depth": 2,
                                        "id": 31,
                                        "order": 31
                                    }
                                ],
                                "depth": 1,
                                "id": 30,
                                "order": 30
                            },
                            {
                                "children": [
                                    {
                                        "children": [
                                            {
                                                "children": [],
                                                "depth": 3,
                                                "id": 34,
                                                "order": 34
                                            }
                                        ],
                                        "depth": 2,
                                        "id": 33,
                                        "order": 33
                                    }
                                ],
                                "depth": 1,
                                "id": 32,
                                "order": 32
                            }
                        ],
                        "depth": 0,
                        "id": 0,
                        "order": 0
                    }
                ],
                "depth": -1,
                "id": -1,
                "order": -1
            }
        ],
        "mainTraceNodeCount": 35,
        "parentIdMap": {
            "0": -1,
            "1": 0,
            "10": 0,
            "11": 10,
            "12": 10,
            "13": 0,
            "14": 13,
            "15": 0,
            "16": 15,
            "17": 16,
            "18": 0,
            "19": 18,
            "2": 1,
            "20": 0,
            "21": 20,
            "22": 0,
            "23": 22,
            "24": 0,
            "25": 24,
            "26": 0,
            "27": 26,
            "28": 0,
            "29": 28,
            "3": 0,
            "30": 0,
            "31": 30,
            "32": 0,
            "33": 32,
            "34": 33,
            "4": 3,
            "5": 0,
            "6": 5,
            "7": 6,
            "8": 0,
            "9": 8
        },
        "tidyTrace": [
            {
                "children": [
                    {
                        "children": [
                            {
                                "children": [
                                    {
                                        "children": [],
                                        "depth": 2,
                                        "id": 2,
                                        "order": 2
                                    }
                                ],
                                "depth": 1,
                                "id": 1,
                                "order": 1
                            },
                            {
                                "children": [
                                    {
                                        "children": [],
                                        "depth": 2,
                                        "id": 4,
                                        "order": 4
                                    }
                                ],
                                "depth": 1,
                                "id": 3,
                                "order": 3
                            },
                            {
                                "children": [
                                    {
                                        "children": [
                                            {
                                                "children": [],
                                                "depth": 3,
                                                "id": 7,
                                                "order": 7
                                            }
                                        ],
                                        "depth": 2,
                                        "id": 6,
                                        "order": 6
                                    }
                                ],
                                "depth": 1,
                                "id": 5,
                                "order": 5
                            },
                            {
                                "children": [
                                    {
                                        "children": [],
                                        "depth": 2,
                                        "id": 9,
                                        "order": 9
                                    }
                                ],
                                "depth": 1,
                                "id": 8,
                                "order": 8
                            },
                            {
                                "children": [
                                    {
                                        "children": [],
                                        "depth": 2,
                                        "id": 11,
                                        "order": 11
                                    },
                                    {
                                        "children": [],
                                        "depth": 2,
                                        "id": 12,
                                        "order": 12
                                    }
                                ],
                                "depth": 1,
                                "id": 10,
                                "order": 10
                            },
                            {
                                "children": [
                                    {
                                        "children": [],
                                        "depth": 2,
                                        "id": 14,
                                        "order": 14
                                    }
                                ],
                                "depth": 1,
                                "id": 13,
                                "order": 13
                            },
                            {
                                "children": [
                                    {
                                        "children": [
                                            {
                                                "children": [],
                                                "depth": 3,
                                                "id": 17,
                                                "order": 17
                                            }
                                        ],
                                        "depth": 2,
                                        "id": 16,
                                        "order": 16
                                    }
                                ],
                                "depth": 1,
                                "id": 15,
                                "order": 15
                            },
                            {
                                "children": [
                                    {
                                        "children": [],
                                        "depth": 2,
                                        "id": 19,
                                        "order": 19
                                    }
                                ],
                                "depth": 1,
                                "id": 18,
                                "order": 18
                            },
                            {
                                "children": [
                                    {
                                        "children": [],
                                        "depth": 2,
                                        "id": 21,
                                        "order": 21
                                    }
                                ],
                                "depth": 1,
                                "id": 20,
                                "order": 20
                            },
                            {
                                "children": [
                                    {
                                        "children": [],
                                        "depth": 2,
                                        "id": 23,
                                        "order": 23
                                    }
                                ],
                                "depth": 1,
                                "id": 22,
                                "order": 22
                            },
                            {
                                "children": [
                                    {
                                        "children": [],
                                        "depth": 2,
                                        "id": 25,
                                        "order": 25
                                    }
                                ],
                                "depth": 1,
                                "id": 24,
                                "order": 24
                            },
                            {
                                "children": [
                                    {
                                        "children": [],
                                        "depth": 2,
                                        "id": 27,
                                        "order": 27
                                    }
                                ],
                                "depth": 1,
                                "id": 26,
                                "order": 26
                            },
                            {
                                "children": [
                                    {
                                        "children": [],
                                        "depth": 2,
                                        "id": 29,
                                        "order": 29
                                    }
                                ],
                                "depth": 1,
                                "id": 28,
                                "order": 28
                            },
                            {
                                "children": [
                                    {
                                        "children": [],
                                        "depth": 2,
                                        "id": 31,
                                        "order": 31
                                    }
                                ],
                                "depth": 1,
                                "id": 30,
                                "order": 30
                            },
                            {
                                "children": [
                                    {
                                        "children": [
                                            {
                                                "children": [],
                                                "depth": 3,
                                                "id": 34,
                                                "order": 34
                                            }
                                        ],
                                        "depth": 2,
                                        "id": 33,
                                        "order": 33
                                    }
                                ],
                                "depth": 1,
                                "id": 32,
                                "order": 32
                            }
                        ],
                        "depth": 0,
                        "id": 0,
                        "order": 0
                    }
                ],
                "depth": -1,
                "id": -1,
                "order": -1
            }
        ],
        "tidyTraceNodeCount": 35
    },
    "state_change": {
        "stateChanges": []
    }
}