{
    "balance_change": {
        "balanceChanges": [
            {
                "account": "0x02488be6cbe4d925b009016463b0978ef454d723",
                "assets": [
                    {
                        "address": "0xaaaebe6fe48e54f431b0c390cfaf0b017d09d42d",
                        "amount": "39,255.0743",
                        "iconUrl": "https://assets.blocksec.com/icon/b35e0a0388a29aa4ea2998efee66fc15d468cdee6031804a09570153163f1eb9.png",
                        "isERC1155": false,
                        "isERC721": false,
                        "sign": false,
                        "value": "204545.6091"
                    }
                ]
            },
            {
                "account": "0x4f6742badb049791cd9a37ea913f2bac38d01279",
                "assets": [
                    {
                        "address": "0xaaaebe6fe48e54f431b0c390cfaf0b017d09d42d",
                        "amount": "39,255.0743",
                        "iconUrl": "https://assets.blocksec.com/icon/b35e0a0388a29aa4ea2998efee66fc15d468cdee6031804a09570153163f1eb9.png",
                        "isERC1155": false,
                        "isERC721": false,
                        "sign": true,
                        "value": "204545.6091"
                    }
                ]
            }
        ]
    },
    "profile": {
        "basic_info": {
            "baseFee": "97.246947209",
            "blockNumber": 13365385,
            "callData": "0xa9059cbb0000000000000000000000004f6742badb049791cd9a37ea913f2bac38d01279000000000000000000000000000000000000000000000000000000001765d957",
            "debugEnable": true,
            "errorInfo": "",
            "eventCount": 1,
            "feeRecipient": "0x1ad91ee08f21be3de0ba2ba6918e714da6b45836",
            "formatValue": "0",
            "gasLimit": 44642,
            "gasPrice": "116.6",
            "gasUsed": 32402,
            "intTxnCount": 0,
            "internalRevert": false,
            "internalRevertMessage": "",
            "isContractCreation": false,
            "isFlashloan": false,
            "maxFee": "116.6",
            "nonce": 56,
            "overwritedBlockNumber": -1,
            "priorityFee": "116.6",
            "receiver": "0xaaaebe6fe48e54f431b0c390cfaf0b017d09d42d",
            "revertMessage": "",
            "sender": "0x02488be6cbe4d925b009016463b0978ef454d723",
            "simulationEnable": true,
            "sourceTxnHash": "0xe7a447a31a8e8812c40fa71240f531caec5632e9a730a92f6a4b13739a134a11",
            "status": true,
            "timestamp": "2021-10-06T12:21:31Z",
            "transactionFee": "0.0037780732",
            "txnHash": "0xe7a447a31a8e8812c40fa71240f531caec5632e9a730a92f6a4b13739a134a11",
            "txnIndex": 60,
            "type": 2,
            "value": "0"
        },
        "fund_flow": [
            {
                "amount": "39,255.0743",
                "from": "0x02488be6cbe4d925b009016463b0978ef454d723",
                "id": 1,
                "isERC1155": false,
                "isERC721": false,
                "isReverted": false,
                "order": 1,
                "to": "0x4f6742badb049791cd9a37ea913f2bac38d01279",
                "token": "0xaaaebe6fe48e54f431b0c390cfaf0b017d09d42d"
            }
        ],
        "token_infos": [
            {
                "address": "0xaaaebe6fe48e54f431b0c390cfaf0b017d09d42d",
                "decimals": 4
            },
            {
                "address": "0xc02aaa39b223fe8d0a0e5c4f27ead9083c756cc2",
                "decimals": 18
            },
            {
                "address": "0xeeeeeeeeeeeeeeeeeeeeeeeeeeeeeeeeeeeeeeee",
                "decimals": 18
            }
        ]
    },
    "address_label": {
        "labels": [
            {
                "address": "0xeeeeeeeeeeeeeeeeeeeeeeeeeeeeeeeeeeeeeeee",
                "label": "Ether"
            },
            {
                "address": "0x4f6742badb049791cd9a37ea913f2bac38d01279",
                "label": "Celsius Network: Wallet 5"
            },
            {
                "address": "0xaaaebe6fe48e54f431b0c390cfaf0b017d09d42d",
                "label": "Celsius Network: CEL Token"
            },
            {
                "address": "0x0000000000000000000000000000000000000001",
                "label": "Precompiled"
            },
            {
                "address": "0x0000000000000000000000000000000000000002",
                "label": "Precompiled"
            },
            {
                "address": "0x0000000000000000000000000000000000000003",
                "label": "Precompiled"
            },
            {
                "address": "0x0000000000000000000000000000000000000004",
                "label": "Precompiled"
            }
        ]
    },
    "trace": {
        "accountLabels": null,
        "dataMap": {
            "-1": {
                "invocation": {
                    "address": "0x02488be6cbe4d925b009016463b0978ef454d723",
                    "callData": "",
                    "decodedMethod": null,
                    "errorInfo": "",
                    "fromAddress": "",
                    "gasUsed": 0,
                    "id": -1,
                    "methodDecoded": false,
                    "operation": "",
                    "output": "",
                    "revert": false,
                    "revertMessage": "",
                    "selector": "",
                    "status": false,
                    "value": ""
                },
                "nodeType": 0
            },
            "0": {
                "invocation": {
                    "address": "0xaaaebe6fe48e54f431b0c390cfaf0b017d09d42d",
                    "callData": "0x0000000000000000000000004f6742badb049791cd9a37ea913f2bac38d01279000000000000000000000000000000000000000000000000000000001765d957",
                    "decodedMethod": {
                        "callParams": [
                            {
                                "name": "_to",
                                "type": "address",
                                "value": "0x4f6742badb049791cd9a37ea913f2bac38d01279"
                            },
                            {
                                "decimalAvailable": true,
                                "name": "_value",
                                "type": "uint256",
                                "value": "392,550,743"
                            }
                        ],
                        "constructorArguments": "",
                        "name": "transfer",
                        "returnParams": [
                            {
                                "name": "success",
                                "type": "bool",
                                "value": true
                            }
                        ],
                        "signature": "transfer(address,uint256)"
                    },
                    "errorInfo": "",
                    "fromAddress": "0x02488be6cbe4d925b009016463b0978ef454d723",
                    "gasUsed": 32402,
                    "id": 0,
                    "methodDecoded": true,
                    "operation": "CALL",
                    "output": "0x0000000000000000000000000000000000000000000000000000000000000001",
                    "revert": false,
                    "revertMessage": "",
                    "selector": "0xa9059cbb",
                    "status": true,
                    "value": "0"
                },
                "nodeType": 0
            },
            "1": {
                "event": {
                    "contract": "0xaaaebe6fe48e54f431b0c390cfaf0b017d09d42d",
                    "decodedLog": {
                        "name": "Transfer",
                        "params": [
                            {
                                "name": "_from",
                                "type": "address",
                                "value": "0x02488be6cbe4d925b009016463b0978ef454d723"
                            },
                            {
                                "name": "_to",
                                "type": "address",
                                "value": "0x4f6742badb049791cd9a37ea913f2bac38d01279"
                            },
                            {
                                "decimalAvailable": true,
                                "name": "_value",
                                "type": "uint256",
                                "value": "392,550,743"
                            }
                        ],
                        "signature": "Transfer(address,address,uint256)"
                    },
                    "id": 1,
                    "logData": "0x000000000000000000000000000000000000000000000000000000001765d957",
                    "logDecoded": true,
                    "operation": "EVENT",
                    "revert": false,
                    "status": true,
                    "topics": [
                        "0xddf252ad1be2c89b69c2b068fc378daa952ba7f163c4a11628f55a4df523b3ef",
                        "0x00000000000000000000000002488be6cbe4d925b009016463b0978ef454d723",
                        "0x0000000000000000000000004f6742badb049791cd9a37ea913f2bac38d01279"
                    ]
                },
                "nodeType": 1
            }
        },
        "gasFlame": [
            {
                "children": [
                    {
                        "children": [
                            {
                                "children": [],
                                "depth": 0,
                                "name": "Initial Gas",
                                "value": 21608
                            },
                            {
                                "children": [],
                                "depth": 0,
                                "name": "Executed Gas",
                                "value": 15594
                            }
                        ],
                        "depth": -1,
                        "name": "Actual Gas Used",
                        "value": 32402
                    },
                    {
                        "children": [],
                        "depth": -1,
                        "name": "Refunded Gas",
                        "value": 4800
                    }
                ],
                "depth": -2,
                "name": "Total Gas",
                "value": 37202
            }
        ],
        "isConfirmed": true,
        "mainTrace": [
            {
                "children": [
                    {
                        "children": [
                            {
                                "children": [],
                                "depth": 1,
                                "id": 1,
                                "order": 1
                            }
                        ],
                        "depth": 0,
                        "id": 0,
                        "order": 0
                    }
                ],
                "depth": -1,
                "id": -1,
                "order": -1
            }
        ],
        "mainTraceNodeCount": 2,
        "parentIdMap": {
            "0": -1,
            "1": 0
        },
        "tidyTrace": [
            {
                "children": [
                    {
                        "children": [
                            {
                                "children": [],
                                "depth": 1,
                                "id": 1,
                                "order": 1
                            }
                        ],
                        "depth": 0,
                        "id": 0,
                        "order": 0
                    }
                ],
                "depth": -1,
                "id": -1,
                "order": -1
            }
        ],
        "tidyTraceNodeCount": 2
    },
    "state_change": {
        "stateChanges": [
            {
                "address": "0xaaaebe6fe48e54f431b0c390cfaf0b017d09d42d",
                "erc": "ERC-20",
                "slots": [
                    {
                        "current": "0x0000000000000000000000000000000000000000000000000000000000000000",
                        "key": "0x7e3a60107161ab8350eacad92212e168cb61980c4e1c13bb75ed11dc70efbf0e",
                        "prev": "0x000000000000000000000000000000000000000000000000000000001765d957"
                    },
                    {
                        "current": "0x00000000000000000000000000000000000000000000000000000075abe6f6ad",
                        "key": "0x35de398a8bf6fa3f0424a3448d2a8df5b0944cdafcb2ad248413aef48f37d961",
                        "prev": "0x0000000000000000000000000000000000000000000000000000007594811d56"
                    }
                ],
                "storageVariables": [
                    {
                        "name": "accounts",
                        "type": "mapping(address => uint256)",
                        "value": {
                            "pairs": [
                                {
                                    "key": "0x02488be6cbe4d925b009016463b0978ef454d723",
                                    "value": {
                                        "current": "0",
                                        "prev": "392550743",
                                        "typeTag": 1
                                    }
                                },
                                {
                                    "key": "0x4f6742badb049791cd9a37ea913f2bac38d01279",
                                    "value": {
                                        "current": "505395213997",
                                        "prev": "505002663254",
                                        "typeTag": 1
                                    }
                                }
                            ],
                            "typeTag": 4
                        }
                    }
                ]
            }
        ]
    }
}