{
    "balance_change": {
        "balanceChanges": [
            {
                "account": "0x90b890412dafe4e525ebe892df043851b1dd7b90",
                "assets": [
                    {
                        "address": "0x83e6f1e41cdd28eaceb20cb649155049fac3d5aa",
                        "amount": "1,001",
                        "iconUrl": "",
                        "isERC1155": false,
                        "isERC721": false,
                        "sign": false,
                        "value": "3134.786774"
                    }
                ]
            },
            {
                "account": "0xa3cae48ebbd14c14b40750ea3b36ebe1313c6442",
                "assets": [
                    {
                        "address": "0x83e6f1e41cdd28eaceb20cb649155049fac3d5aa",
                        "amount": "1,001",
                        "iconUrl": "",
                        "isERC1155": false,
                        "isERC721": false,
                        "sign": true,
                        "value": "3134.786774"
                    }
                ]
            }
        ]
    },
    "profile": {
        "basic_info": {
            "baseFee": "109.542383673",
            "blockNumber": 13616778,
            "callData": "0xa9059cbb000000000000000000000000a3cae48ebbd14c14b40750ea3b36ebe1313c644200000000000000000000000000000000000000000000003643aa647986040000",
            "debugEnable": true,
            "errorInfo": "",
            "eventCount": 1,
            "feeRecipient": "0x829bd824b016326a401d083b33d092293333a830",
            "formatValue": "0",
            "gasLimit": 81279,
            "gasPrice": "111.042383673",
            "gasUsed": 49386,
            "intTxnCount": 0,
            "internalRevert": false,
            "internalRevertMessage": "",
            "isContractCreation": false,
            "isFlashloan": false,
            "maxFee": "117.019604385",
            "nonce": 4,
            "overwritedBlockNumber": -1,
            "priorityFee": "1.5",
            "receiver": "0x83e6f1e41cdd28eaceb20cb649155049fac3d5aa",
            "revertMessage": "",
            "sender": "0x90b890412dafe4e525ebe892df043851b1dd7b90",
            "simulationEnable": true,
            "sourceTxnHash": "0xe71262d6016c41a968762c740c2ceff8d8e945d95d6501dc3b4895ae6a1c5b89",
            "status": true,
            "timestamp": "2021-11-14T22:57:42Z",
            "transactionFee": "0.005483939160074778",
            "txnHash": "0xe71262d6016c41a968762c740c2ceff8d8e945d95d6501dc3b4895ae6a1c5b89",
            "txnIndex": 293,
            "type": 2,
            "value": "0"
        },
        "fund_flow": [
            {
                "amount": "1,001",
                "from": "0x90b890412dafe4e525ebe892df043851b1dd7b90",
                "id": 1,
                "isERC1155": false,
                "isERC721": false,
                "isReverted": false,
                "order": 1,
                "to": "0xa3cae48ebbd14c14b40750ea3b36ebe1313c6442",
                "token": "0x83e6f1e41cdd28eaceb20cb649155049fac3d5aa"
            }
        ],
        "token_infos": [
            {
                "address": "0x83e6f1e41cdd28eaceb20cb649155049fac3d5aa",
                "decimals": 18
            },
            {
                "address": "0xc02aaa39b223fe8d0a0e5c4f27ead9083c756cc2",
                "decimals": 18
            },
            {
                "address": "0xeeeeeeeeeeeeeeeeeeeeeeeeeeeeeeeeeeeeeeee",
                "decimals": 18
            }
        ]
    },
    "address_label": {
        "labels": [
            {
                "address": "0x83e6f1e41cdd28eaceb20cb649155049fac3d5aa",
                "label": "Polkastarter: POLS Token"
            },
            {
                "address": "0x0000000000000000000000000000000000000001",
                "label": "Precompiled"
            },
            {
                "address": "0x0000000000000000000000000000000000000002",
                "label": "Precompiled"
            },
            {
                "address": "0x0000000000000000000000000000000000000003",
                "label": "Precompiled"
            },
            {
                "address": "0x0000000000000000000000000000000000000004",
                "label": "Precompiled"
            },
            {
                "address": "0xeeeeeeeeeeeeeeeeeeeeeeeeeeeeeeeeeeeeeeee",
                "label": "Ether"
            }
        ]
    },
    "trace": {
        "accountLabels": null,
        "dataMap": {
            "-1": {
                "invocation": {
                    "address": "0x90b890412dafe4e525ebe892df043851b1dd7b90",
                    "callData": "",
                    "decodedMethod": null,
                    "errorInfo": "",
                    "fromAddress": "",
                    "gasUsed": 0,
                    "id": -1,
                    "methodDecoded": false,
                    "operation": "",
                    "output": "",
                    "revert": false,
                    "revertMessage": "",
                    "selector": "",
                    "status": false,
                    "value": ""
                },
                "nodeType": 0
            },
            "0": {
                "invocation": {
                    "address": "0x83e6f1e41cdd28eaceb20cb649155049fac3d5aa",
                    "callData": "0x000000000000000000000000a3cae48ebbd14c14b40750ea3b36ebe1313c644200000000000000000000000000000000000000000000003643aa647986040000",
                    "decodedMethod": {
                        "callParams": [
                            {
                                "name": "_to",
                                "type": "address",
                                "value": "0xa3cae48ebbd14c14b40750ea3b36ebe1313c6442"
                            },
                            {
                                "decimalAvailable": true,
                                "name": "_value",
                                "type": "uint256",
                                "value": "1,001,000,000,000,000,000,000"
                            }
                        ],
                        "constructorArguments": "",
                        "name": "transfer",
                        "returnParams": [
                            {
                                "name": "",
                                "type": "bool",
                                "value": true
                            }
                        ],
                        "signature": "transfer(address,uint256)"
                    },
                    "errorInfo": "",
                    "fromAddress": "0x90b890412dafe4e525ebe892df043851b1dd7b90",
                    "gasUsed": 49386,
                    "id": 0,
                    "methodDecoded": true,
                    "operation": "CALL",
                    "output": "0x0000000000000000000000000000000000000000000000000000000000000001",
                    "revert": false,
                    "revertMessage": "",
                    "selector": "0xa9059cbb",
                    "status": true,
                    "value": "0"
                },
                "nodeType": 0
            },
            "1": {
                "event": {
                    "contract": "0x83e6f1e41cdd28eaceb20cb649155049fac3d5aa",
                    "decodedLog": {
                        "name": "Transfer",
                        "params": [
                            {
                                "name": "from",
                                "type": "address",
                                "value": "0x90b890412dafe4e525ebe892df043851b1dd7b90"
                            },
                            {
                                "name": "to",
                                "type": "address",
                                "value": "0xa3cae48ebbd14c14b40750ea3b36ebe1313c6442"
                            },
                            {
                                "decimalAvailable": true,
                                "name": "value",
                                "type": "uint256",
                                "value": "1,001,000,000,000,000,000,000"
                            }
                        ],
                        "signature": "Transfer(address,address,uint256)"
                    },
                    "id": 1,
                    "logData": "0x00000000000000000000000000000000000000000000003643aa647986040000",
                    "logDecoded": true,
                    "operation": "EVENT",
                    "revert": false,
                    "status": true,
                    "topics": [
                        "0xddf252ad1be2c89b69c2b068fc378daa952ba7f163c4a11628f55a4df523b3ef",
                        "0x00000000000000000000000090b890412dafe4e525ebe892df043851b1dd7b90",
                        "0x000000000000000000000000a3cae48ebbd14c14b40750ea3b36ebe1313c6442"
                    ]
                },
                "nodeType": 1
            }
        },
        "gasFlame": [
            {
                "children": [
                    {
                        "children": [
                            {
                                "children": [],
                                "depth": 0,
                                "name": "Initial Gas",
                                "value": 21644
                            },
                            {
                                "children": [],
                                "depth": 0,
                                "name": "Executed Gas",
                                "value": 32542
                            }
                        ],
                        "depth": -1,
                        "name": "Actual Gas Used",
                        "value": 49386
                    },
                    {
                        "children": [],
                        "depth": -1,
                        "name": "Refunded Gas",
                        "value": 4800
                    }
                ],
                "depth": -2,
                "name": "Total Gas",
                "value": 54186
            }
        ],
        "isConfirmed": true,
        "mainTrace": [
            {
                "children": [
                    {
                        "children": [
                            {
                                "children": [],
                                "depth": 1,
                                "id": 1,
                                "order": 1
                            }
                        ],
                        "depth": 0,
                        "id": 0,
                        "order": 0
                    }
                ],
                "depth": -1,
                "id": -1,
                "order": -1
            }
        ],
        "mainTraceNodeCount": 2,
        "parentIdMap": {
            "0": -1,
            "1": 0
        },
        "tidyTrace": [
            {
                "children": [
                    {
                        "children": [
                            {
                                "children": [],
                                "depth": 1,
                                "id": 1,
                                "order": 1
                            }
                        ],
                        "depth": 0,
                        "id": 0,
                        "order": 0
                    }
                ],
                "depth": -1,
                "id": -1,
                "order": -1
            }
        ],
        "tidyTraceNodeCount": 2
    },
    "state_change": {
        "stateChanges": [
            {
                "address": "0x83e6f1e41cdd28eaceb20cb649155049fac3d5aa",
                "erc": "ERC-20",
                "slots": [
                    {
                        "current": "0x0000000000000000000000000000000000000000000000000000000000000000",
                        "key": "0xc34f55021f295bd3916828bc59a4c351bb866d68f8a76223c1219a125e7203b0",
                        "prev": "0x00000000000000000000000000000000000000000000003643aa647986040000"
                    },
                    {
                        "current": "0x00000000000000000000000000000000000000000000003643aa647986040000",
                        "key": "0x37c3b1cceba06482b03c58bd5c18fa998e61f8f7d095cab08117323d4f737e24",
                        "prev": "0x0000000000000000000000000000000000000000000000000000000000000000"
                    }
                ],
                "storageVariables": [
                    {
                        "name": "balances",
                        "type": "mapping(address => uint256)",
                        "value": {
                            "pairs": [
                                {
                                    "key": "0x90b890412dafe4e525ebe892df043851b1dd7b90",
                                    "value": {
                                        "current": "0",
                                        "prev": "1001000000000000000000",
                                        "typeTag": 1
                                    }
                                },
                                {
                                    "key": "0xa3cae48ebbd14c14b40750ea3b36ebe1313c6442",
                                    "value": {
                                        "current": "1001000000000000000000",
                                        "prev": "0",
                                        "typeTag": 1
                                    }
                                }
                            ],
                            "typeTag": 4
                        }
                    }
                ]
            }
        ]
    }
}