{
    "balance_change": {
        "balanceChanges": []
    },
    "profile": {
        "basic_info": {
            "baseFee": "4.048995898",
            "blockNumber": 15608618,
            "callData": "0x75090ebf0000000000000000000000000000000000000000000000000000000057414c4c00000000000000000000000000000000000000000000000000000000001e8480000000000000000000000000000000000000000000000000000000000000000000000000000000000000000091f0232a36b2fc1239e89ac83e3ef57318b1bb9e",
            "debugEnable": true,
            "errorInfo": "",
            "eventCount": 1,
            "feeRecipient": "0xdafea492d9c6733ae3d56b7ed1adb60692c98bc5",
            "formatValue": "0",
            "gasLimit": 110000,
            "gasPrice": "5.548995898",
            "gasUsed": 59011,
            "intTxnCount": 0,
            "internalRevert": false,
            "internalRevertMessage": "",
            "isContractCreation": false,
            "isFlashloan": false,
            "maxFee": "8",
            "nonce": 1145,
            "overwritedBlockNumber": -1,
            "priorityFee": "1.5",
            "receiver": "0xd588b586d61c826a0e87919b3d1a239206d58bf2",
            "revertMessage": "",
            "sender": "0x91f0232a36b2fc1239e89ac83e3ef57318b1bb9e",
            "simulationEnable": true,
            "sourceTxnHash": "0xe7d6aac94d2b9ee90bf8a659da04a888e0de1349cf6bb10a2b25bc3c082a380b",
            "status": true,
            "timestamp": "2022-09-25T06:32:47Z",
            "transactionFee": "0.000327451796936878",
            "txnHash": "0xe7d6aac94d2b9ee90bf8a659da04a888e0de1349cf6bb10a2b25bc3c082a380b",
            "txnIndex": 61,
            "type": 2,
            "value": "0"
        },
        "fund_flow": [],
        "token_infos": [
            {
                "address": "0xc02aaa39b223fe8d0a0e5c4f27ead9083c756cc2",
                "decimals": 18
            },
            {
                "address": "0xeeeeeeeeeeeeeeeeeeeeeeeeeeeeeeeeeeeeeeee",
                "decimals": 18
            }
        ]
    },
    "address_label": {
        "labels": [
            {
                "address": "0x0000000000000000000000000000000000000001",
                "label": "Precompiled"
            },
            {
                "address": "0x0000000000000000000000000000000000000002",
                "label": "Precompiled"
            },
            {
                "address": "0x0000000000000000000000000000000000000003",
                "label": "Precompiled"
            },
            {
                "address": "0x0000000000000000000000000000000000000004",
                "label": "Precompiled"
            },
            {
                "address": "0xeeeeeeeeeeeeeeeeeeeeeeeeeeeeeeeeeeeeeeee",
                "label": "Ether"
            },
            {
                "address": "0xd588b586d61c826a0e87919b3d1a239206d58bf2",
                "label": "EtherID"
            }
        ]
    },
    "trace": {
        "accountLabels": null,
        "dataMap": {
            "-1": {
                "invocation": {
                    "address": "0x91f0232a36b2fc1239e89ac83e3ef57318b1bb9e",
                    "callData": "",
                    "decodedMethod": null,
                    "errorInfo": "",
                    "fromAddress": "",
                    "gasUsed": 0,
                    "id": -1,
                    "methodDecoded": false,
                    "operation": "",
                    "output": "",
                    "revert": false,
                    "revertMessage": "",
                    "selector": "",
                    "status": false,
                    "value": ""
                },
                "nodeType": 0
            },
            "0": {
                "invocation": {
                    "address": "0xd588b586d61c826a0e87919b3d1a239206d58bf2",
                    "callData": "0x0000000000000000000000000000000000000000000000000000000057414c4c00000000000000000000000000000000000000000000000000000000001e8480000000000000000000000000000000000000000000000000000000000000000000000000000000000000000091f0232a36b2fc1239e89ac83e3ef57318b1bb9e",
                    "decodedMethod": {
                        "callParams": [
                            {
                                "name": "domain",
                                "type": "uint256",
                                "value": "1,463,897,164"
                            },
                            {
                                "name": "expires",
                                "type": "uint256",
                                "value": "2,000,000"
                            },
                            {
                                "name": "price",
                                "type": "uint256",
                                "value": "0"
                            },
                            {
                                "name": "transfer",
                                "type": "address",
                                "value": "0x91f0232a36b2fc1239e89ac83e3ef57318b1bb9e"
                            }
                        ],
                        "constructorArguments": "",
                        "name": "changeDomain",
                        "returnParams": [],
                        "signature": "changeDomain(uint256,uint256,uint256,address)"
                    },
                    "errorInfo": "",
                    "fromAddress": "0x91f0232a36b2fc1239e89ac83e3ef57318b1bb9e",
                    "gasUsed": 59011,
                    "id": 0,
                    "methodDecoded": true,
                    "operation": "CALL",
                    "output": "",
                    "revert": false,
                    "revertMessage": "",
                    "selector": "0x75090ebf",
                    "status": true,
                    "value": "0"
                },
                "nodeType": 0
            },
            "1": {
                "event": {
                    "contract": "0xd588b586d61c826a0e87919b3d1a239206d58bf2",
                    "decodedLog": {
                        "name": "DomainChanged",
                        "params": [
                            {
                                "name": "sender",
                                "type": "address",
                                "value": "0x91f0232a36b2fc1239e89ac83e3ef57318b1bb9e"
                            },
                            {
                                "name": "domain",
                                "type": "uint256",
                                "value": "1,463,897,164"
                            },
                            {
                                "name": "id",
                                "type": "uint256",
                                "value": "0"
                            }
                        ],
                        "signature": "DomainChanged(address,uint256,uint256)"
                    },
                    "id": 1,
                    "logData": "0x0000000000000000000000000000000000000000000000000000000057414c4c0000000000000000000000000000000000000000000000000000000000000000",
                    "logDecoded": true,
                    "operation": "EVENT",
                    "revert": false,
                    "status": true,
                    "topics": [
                        "0xf10cb5dcb691bb26c2685b3fd72f4ca4008c33eafd1ee88c27210ef1db722459",
                        "0x00000000000000000000000091f0232a36b2fc1239e89ac83e3ef57318b1bb9e"
                    ]
                },
                "nodeType": 1
            }
        },
        "gasFlame": [
            {
                "children": [
                    {
                        "children": [
                            {
                                "children": [],
                                "depth": 0,
                                "name": "Initial Gas",
                                "value": 21900
                            },
                            {
                                "children": [],
                                "depth": 0,
                                "name": "Executed Gas",
                                "value": 37111
                            }
                        ],
                        "depth": -1,
                        "name": "Actual Gas Used",
                        "value": 59011
                    },
                    {
                        "children": [],
                        "depth": -1,
                        "name": "Refunded Gas",
                        "value": 0
                    }
                ],
                "depth": -2,
                "name": "Total Gas",
                "value": 59011
            }
        ],
        "isConfirmed": true,
        "mainTrace": [
            {
                "children": [
                    {
                        "children": [
                            {
                                "children": [],
                                "depth": 1,
                                "id": 1,
                                "order": 1
                            }
                        ],
                        "depth": 0,
                        "id": 0,
                        "order": 0
                    }
                ],
                "depth": -1,
                "id": -1,
                "order": -1
            }
        ],
        "mainTraceNodeCount": 2,
        "parentIdMap": {
            "0": -1,
            "1": 0
        },
        "tidyTrace": [
            {
                "children": [
                    {
                        "children": [
                            {
                                "children": [],
                                "depth": 1,
                                "id": 1,
                                "order": 1
                            }
                        ],
                        "depth": 0,
                        "id": 0,
                        "order": 0
                    }
                ],
                "depth": -1,
                "id": -1,
                "order": -1
            }
        ],
        "tidyTraceNodeCount": 2
    },
    "state_change": {
        "stateChanges": [
            {
                "address": "0xd588b586d61c826a0e87919b3d1a239206d58bf2",
                "erc": "",
                "slots": [
                    {
                        "current": "0x00000000000000000000000091f0232a36b2fc1239e89ac83e3ef57318b1bb9e",
                        "key": "0x5b51054993b574219a1119d78b441451a814b4f4fe4bc187f799f0165836f419",
                        "prev": "0x000000000000000000000000c5a59924cce38b9c8bef18dff73569a0e2fb8d08"
                    },
                    {
                        "current": "0x00000000000000000000000091f0232a36b2fc1239e89ac83e3ef57318b1bb9e",
                        "key": "0x5b51054993b574219a1119d78b441451a814b4f4fe4bc187f799f0165836f41c",
                        "prev": "0x0000000000000000000000000000000000000000000000000000000000000000"
                    },
                    {
                        "current": "0x00000000000000000000000000000000000000000000000000000000010cafaa",
                        "key": "0x5b51054993b574219a1119d78b441451a814b4f4fe4bc187f799f0165836f41a",
                        "prev": "0x000000000000000000000000000000000000000000000000000000000039eea4"
                    }
                ],
                "storageVariables": []
            }
        ]
    }
}