{
    "balance_change": {
        "balanceChanges": [
            {
                "account": "0xb03c34877971f5ddbc921edce178512abdde2fc4",
                "assets": [
                    {
                        "address": "0x818fc6c2ec5986bc6e2cbf00939d90556ab12ce5",
                        "amount": "500,000",
                        "iconUrl": "https://assets.blocksec.com/icon/18c19de04f3f5c2ce79831de9b74b1264795a449aa28f1589d1d090f2945fea1.png",
                        "isERC1155": false,
                        "isERC721": false,
                        "sign": false,
                        "value": ""
                    }
                ]
            },
            {
                "account": "0x8f6e7b59b33133817ff68ce8f9707fd84564e084",
                "assets": [
                    {
                        "address": "0x818fc6c2ec5986bc6e2cbf00939d90556ab12ce5",
                        "amount": "500,000",
                        "iconUrl": "https://assets.blocksec.com/icon/18c19de04f3f5c2ce79831de9b74b1264795a449aa28f1589d1d090f2945fea1.png",
                        "isERC1155": false,
                        "isERC721": false,
                        "sign": true,
                        "value": ""
                    }
                ]
            }
        ]
    },
    "profile": {
        "basic_info": {
            "baseFee": "",
            "blockNumber": 6676827,
            "callData": "0xa9059cbb0000000000000000000000008f6e7b59b33133817ff68ce8f9707fd84564e0840000000000000000000000000000000000000000000069e10de76676d0800000",
            "debugEnable": true,
            "errorInfo": "",
            "eventCount": 1,
            "feeRecipient": "0x5a0b54d5dc17e0aadc383d2db43b0a0d3e029c4c",
            "formatValue": "0",
            "gasLimit": 38068,
            "gasPrice": "12",
            "gasUsed": 37068,
            "intTxnCount": 0,
            "internalRevert": false,
            "internalRevertMessage": "",
            "isContractCreation": false,
            "isFlashloan": false,
            "maxFee": "",
            "nonce": 6,
            "overwritedBlockNumber": -1,
            "priorityFee": "",
            "receiver": "0x818fc6c2ec5986bc6e2cbf00939d90556ab12ce5",
            "revertMessage": "",
            "sender": "0xb03c34877971f5ddbc921edce178512abdde2fc4",
            "simulationEnable": true,
            "sourceTxnHash": "0xe832b69c183f7429c8069d17b5e53b716c18989ba36db2354f2a1b3a62387cc3",
            "status": true,
            "timestamp": "2018-11-10T06:06:04Z",
            "transactionFee": "0.000444816",
            "txnHash": "0xe832b69c183f7429c8069d17b5e53b716c18989ba36db2354f2a1b3a62387cc3",
            "txnIndex": 8,
            "type": 0,
            "value": "0"
        },
        "fund_flow": [
            {
                "amount": "500,000",
                "from": "0xb03c34877971f5ddbc921edce178512abdde2fc4",
                "id": 1,
                "isERC1155": false,
                "isERC721": false,
                "isReverted": false,
                "order": 1,
                "to": "0x8f6e7b59b33133817ff68ce8f9707fd84564e084",
                "token": "0x818fc6c2ec5986bc6e2cbf00939d90556ab12ce5"
            }
        ],
        "token_infos": [
            {
                "address": "0x818fc6c2ec5986bc6e2cbf00939d90556ab12ce5",
                "decimals": 18
            },
            {
                "address": "0xc02aaa39b223fe8d0a0e5c4f27ead9083c756cc2",
                "decimals": 18
            },
            {
                "address": "0xeeeeeeeeeeeeeeeeeeeeeeeeeeeeeeeeeeeeeeee",
                "decimals": 18
            }
        ]
    },
    "address_label": {
        "labels": [
            {
                "address": "0x0000000000000000000000000000000000000004",
                "label": "Precompiled"
            },
            {
                "address": "0xeeeeeeeeeeeeeeeeeeeeeeeeeeeeeeeeeeeeeeee",
                "label": "Ether"
            },
            {
                "address": "0x818fc6c2ec5986bc6e2cbf00939d90556ab12ce5",
                "label": "Kin: Old Token"
            },
            {
                "address": "0x0000000000000000000000000000000000000001",
                "label": "Precompiled"
            },
            {
                "address": "0x0000000000000000000000000000000000000002",
                "label": "Precompiled"
            },
            {
                "address": "0x0000000000000000000000000000000000000003",
                "label": "Precompiled"
            }
        ]
    },
    "trace": {
        "accountLabels": null,
        "dataMap": {
            "-1": {
                "invocation": {
                    "address": "0xb03c34877971f5ddbc921edce178512abdde2fc4",
                    "callData": "",
                    "decodedMethod": null,
                    "errorInfo": "",
                    "fromAddress": "",
                    "gasUsed": 0,
                    "id": -1,
                    "methodDecoded": false,
                    "operation": "",
                    "output": "",
                    "revert": false,
                    "revertMessage": "",
                    "selector": "",
                    "status": false,
                    "value": ""
                },
                "nodeType": 0
            },
            "0": {
                "invocation": {
                    "address": "0x818fc6c2ec5986bc6e2cbf00939d90556ab12ce5",
                    "callData": "0x0000000000000000000000008f6e7b59b33133817ff68ce8f9707fd84564e0840000000000000000000000000000000000000000000069e10de76676d0800000",
                    "decodedMethod": {
                        "callParams": [
                            {
                                "name": "_to",
                                "type": "address",
                                "value": "0x8f6e7b59b33133817ff68ce8f9707fd84564e084"
                            },
                            {
                                "decimalAvailable": true,
                                "name": "_value",
                                "type": "uint256",
                                "value": "500,000,000,000,000,000,000,000"
                            }
                        ],
                        "constructorArguments": "",
                        "name": "transfer",
                        "returnParams": [
                            {
                                "name": "",
                                "type": "bool",
                                "value": true
                            }
                        ],
                        "signature": "transfer(address,uint256)"
                    },
                    "errorInfo": "",
                    "fromAddress": "0xb03c34877971f5ddbc921edce178512abdde2fc4",
                    "gasUsed": 37068,
                    "id": 0,
                    "methodDecoded": true,
                    "operation": "CALL",
                    "output": "0x0000000000000000000000000000000000000000000000000000000000000001",
                    "revert": false,
                    "revertMessage": "",
                    "selector": "0xa9059cbb",
                    "status": true,
                    "value": "0"
                },
                "nodeType": 0
            },
            "1": {
                "event": {
                    "contract": "0x818fc6c2ec5986bc6e2cbf00939d90556ab12ce5",
                    "decodedLog": {
                        "name": "Transfer",
                        "params": [
                            {
                                "name": "from",
                                "type": "address",
                                "value": "0xb03c34877971f5ddbc921edce178512abdde2fc4"
                            },
                            {
                                "name": "to",
                                "type": "address",
                                "value": "0x8f6e7b59b33133817ff68ce8f9707fd84564e084"
                            },
                            {
                                "decimalAvailable": true,
                                "name": "value",
                                "type": "uint256",
                                "value": "500,000,000,000,000,000,000,000"
                            }
                        ],
                        "signature": "Transfer(address,address,uint256)"
                    },
                    "id": 1,
                    "logData": "0x0000000000000000000000000000000000000000000069e10de76676d0800000",
                    "logDecoded": true,
                    "operation": "EVENT",
                    "revert": false,
                    "status": true,
                    "topics": [
                        "0xddf252ad1be2c89b69c2b068fc378daa952ba7f163c4a11628f55a4df523b3ef",
                        "0x000000000000000000000000b03c34877971f5ddbc921edce178512abdde2fc4",
                        "0x0000000000000000000000008f6e7b59b33133817ff68ce8f9707fd84564e084"
                    ]
                },
                "nodeType": 1
            }
        },
        "gasFlame": [
            {
                "children": [
                    {
                        "children": [
                            {
                                "children": [],
                                "depth": 0,
                                "name": "Initial Gas",
                                "value": 23320
                            },
                            {
                                "children": [],
                                "depth": 0,
                                "name": "Executed Gas",
                                "value": 13748
                            }
                        ],
                        "depth": -1,
                        "name": "Actual Gas Used",
                        "value": 37068
                    },
                    {
                        "children": [],
                        "depth": -1,
                        "name": "Refunded Gas",
                        "value": 0
                    }
                ],
                "depth": -2,
                "name": "Total Gas",
                "value": 37068
            }
        ],
        "isConfirmed": true,
        "mainTrace": [
            {
                "children": [
                    {
                        "children": [
                            {
                                "children": [],
                                "depth": 1,
                                "id": 1,
                                "order": 1
                            }
                        ],
                        "depth": 0,
                        "id": 0,
                        "order": 0
                    }
                ],
                "depth": -1,
                "id": -1,
                "order": -1
            }
        ],
        "mainTraceNodeCount": 2,
        "parentIdMap": {
            "0": -1,
            "1": 0
        },
        "tidyTrace": [
            {
                "children": [
                    {
                        "children": [
                            {
                                "children": [],
                                "depth": 1,
                                "id": 1,
                                "order": 1
                            }
                        ],
                        "depth": 0,
                        "id": 0,
                        "order": 0
                    }
                ],
                "depth": -1,
                "id": -1,
                "order": -1
            }
        ],
        "tidyTraceNodeCount": 2
    },
    "state_change": {
        "stateChanges": [
            {
                "address": "0x818fc6c2ec5986bc6e2cbf00939d90556ab12ce5",
                "erc": "ERC-20",
                "slots": [
                    {
                        "current": "0x000000000000000000000000000000000000000000177094a3d3b0103e94635a",
                        "key": "0x837096e435207318649803df1801d8e37f5841c569b424d3eba1265a3f132ec2",
                        "prev": "0x00000000000000000000000000000000000000000017da75b1bb16870f14635a"
                    },
                    {
                        "current": "0x00000000000000000000000000000000000000000000d3c21bcecceda1000000",
                        "key": "0x9cf3daf293cf5cfa010a4e51229ac83d77c91877af05e6f0b273b783e89cbf14",
                        "prev": "0x0000000000000000000000000000000000000000000069e10de76676d0800000"
                    }
                ],
                "storageVariables": [
                    {
                        "name": "balances",
                        "type": "mapping(address => uint256)",
                        "value": {
                            "pairs": [
                                {
                                    "key": "0x8f6e7b59b33133817ff68ce8f9707fd84564e084",
                                    "value": {
                                        "current": "1000000000000000000000000",
                                        "prev": "500000000000000000000000",
                                        "typeTag": 1
                                    }
                                },
                                {
                                    "key": "0xb03c34877971f5ddbc921edce178512abdde2fc4",
                                    "value": {
                                        "current": "28336940820313412379894618",
                                        "prev": "28836940820313412379894618",
                                        "typeTag": 1
                                    }
                                }
                            ],
                            "typeTag": 4
                        }
                    }
                ]
            }
        ]
    }
}