{
    "balance_change": {
        "balanceChanges": [
            {
                "account": "0xa7fcd74557d6ebbdeec632865f2de150cd1ecae2",
                "assets": [
                    {
                        "address": "0x629a673a8242c2ac4b7b8c5d8735fbeac21a6205",
                        "amount": "1",
                        "iconUrl": "https://assets.blocksec.com/nft/icon/nft_11293161-c85d-4baf-b59e-037fba4af028.png",
                        "isERC1155": false,
                        "isERC721": true,
                        "sign": false,
                        "tokenID": "83461145707905573595144773723112802197847302664514610604473074342722655036142",
                        "value": ""
                    }
                ]
            },
            {
                "account": "0x79c5090fd1d752d2d1485d98ab6240544ae0c042",
                "assets": [
                    {
                        "address": "0x629a673a8242c2ac4b7b8c5d8735fbeac21a6205",
                        "amount": "1",
                        "iconUrl": "https://assets.blocksec.com/nft/icon/nft_11293161-c85d-4baf-b59e-037fba4af028.png",
                        "isERC1155": false,
                        "isERC721": true,
                        "sign": true,
                        "tokenID": "83461145707905573595144773723112802197847302664514610604473074342722655036142",
                        "value": ""
                    }
                ]
            }
        ]
    },
    "profile": {
        "basic_info": {
            "baseFee": "",
            "blockNumber": 11809276,
            "callData": "0x223da1ba00000000000000000000000000000000000000000000000000000000000000c000000000000000000000000079c5090fd1d752d2d1485d98ab6240544ae0c04200000000000000000000000019f494583c7c933be7b0ee58104ddafac1e8adfa0000000000000000000000000000000000000000000000000000000000000000000000000000000000000000000000000000000000000000009fdf42f6e480000000000000000000000000000000000000000000000000000000000000000200000000000000000000000000000000020e4c79799368b5ef88525bcbd30b482c000000000000000000000000a7fcd74557d6ebbdeec632865f2de150cd1ecae200000000000000000000000000000000000000000000000000000000000000000000000000000000000000000000000000000000000000000000000000000000000000000000000000000000000000000000000000000000009fdf42f6e4800000000000000000000000000000000000000000000000000000000000000000e000000000000000000000000000000000000000000000000000000000000001200000000000000000000000000000000000000000000000000000000000000001b885559e0825a3c3de8132c65e8d222c1300db58bbd644a94fe4136ef2c122ee000000000000000000000000000000000000000000000000000000000000000000000000000000000000000000000000000000000000000000000000000000c000000000000000000000000000000000000000000000000000000000000000e0000000000000000000000000000000000000000000000000000000000000016000000000000000000000000000000000000000000000000000000000000001800000000000000000000000000000000000000000000000000000000000000200000000000000000000000000000000000000000000000000000000000000022000000000000000000000000000000000000000000000000000000000000000000000000000000000000000000000000000000000000000000000000000000041361ebb21b17cf3e1760f4a4bb80e528c803f06ad1aba1c95a9201d958ea249d21d369d2cc71aed3f85d2e4f4f8f629f43443a2920ed7cdfa2f224e62a6b3dd1f1c0000000000000000000000000000000000000000000000000000000000000000000000000000000000000000000000000000000000000000000000000000000000000000000000000000000000000000000000000000000000000000000041de848d989d8d22f48de5bf395a36d3cc56422bfbcf314970f6fe2a5eb1567dff368e9e8063e63f06df9614d1e93cf3c8791df2814ca0ce9311feef5878e594b81b0000000000000000000000000000000000000000000000000000000000000000000000000000000000000000000000000000000000000000000000000000000000000000000000000000000000000000000000000000000000000000000000",
            "debugEnable": true,
            "errorInfo": "",
            "eventCount": 5,
            "feeRecipient": "0x5a0b54d5dc17e0aadc383d2db43b0a0d3e029c4c",
            "formatValue": "0",
            "gasLimit": 364167,
            "gasPrice": "110.889",
            "gasUsed": 230119,
            "intTxnCount": 7,
            "internalRevert": false,
            "internalRevertMessage": "",
            "isContractCreation": false,
            "isFlashloan": false,
            "maxFee": "",
            "nonce": 16815,
            "overwritedBlockNumber": -1,
            "priorityFee": "",
            "receiver": "0xaeb960ed44c8a4ce848c50ef451f472a503456b2",
            "revertMessage": "",
            "sender": "0x3bdb4c22b38876a0fa19ed7e588ad239f344e004",
            "simulationEnable": true,
            "sourceTxnHash": "0xe84cdbf95ac02d79f174bbef5b9c22d7fc7961b310265eb8988545e29e288c8d",
            "status": true,
            "timestamp": "2021-02-07T12:34:08Z",
            "transactionFee": "0.025517665791",
            "txnHash": "0xe84cdbf95ac02d79f174bbef5b9c22d7fc7961b310265eb8988545e29e288c8d",
            "txnIndex": 183,
            "type": 0,
            "value": "0"
        },
        "fund_flow": [
            {
                "amount": "1",
                "from": "0xa7fcd74557d6ebbdeec632865f2de150cd1ecae2",
                "id": 1,
                "isERC1155": false,
                "isERC721": true,
                "isReverted": false,
                "order": 1,
                "to": "0x79c5090fd1d752d2d1485d98ab6240544ae0c042",
                "token": "0x629a673a8242c2ac4b7b8c5d8735fbeac21a6205",
                "tokenID": "83461145707905573595144773723112802197847302664514610604473074342722655036142"
            }
        ],
        "token_infos": [
            {
                "address": "0xc02aaa39b223fe8d0a0e5c4f27ead9083c756cc2",
                "decimals": 18
            },
            {
                "address": "0xeeeeeeeeeeeeeeeeeeeeeeeeeeeeeeeeeeeeeeee",
                "decimals": 18
            }
        ]
    },
    "address_label": {
        "labels": [
            {
                "address": "0xeeeeeeeeeeeeeeeeeeeeeeeeeeeeeeeeeeeeeeee",
                "label": "Ether"
            },
            {
                "address": "0x629a673a8242c2ac4b7b8c5d8735fbeac21a6205",
                "label": "Sorare: SOR Token"
            },
            {
                "address": "0xaeb960ed44c8a4ce848c50ef451f472a503456b2",
                "label": "Sorare: Exchange"
            },
            {
                "address": "0x0000000000000000000000000000000000000001",
                "label": "Precompiled"
            },
            {
                "address": "0x0000000000000000000000000000000000000002",
                "label": "Precompiled"
            },
            {
                "address": "0x0000000000000000000000000000000000000003",
                "label": "Precompiled"
            },
            {
                "address": "0x0000000000000000000000000000000000000004",
                "label": "Precompiled"
            }
        ]
    },
    "trace": {
        "accountLabels": null,
        "dataMap": {
            "-1": {
                "invocation": {
                    "address": "0x3bdb4c22b38876a0fa19ed7e588ad239f344e004",
                    "callData": "",
                    "decodedMethod": null,
                    "errorInfo": "",
                    "fromAddress": "",
                    "gasUsed": 0,
                    "id": -1,
                    "methodDecoded": false,
                    "operation": "",
                    "output": "",
                    "revert": false,
                    "revertMessage": "",
                    "selector": "",
                    "status": false,
                    "value": ""
                },
                "nodeType": 0
            },
            "0": {
                "invocation": {
                    "address": "0xaeb960ed44c8a4ce848c50ef451f472a503456b2",
                    "callData": "0x00000000000000000000000000000000000000000000000000000000000000c000000000000000000000000079c5090fd1d752d2d1485d98ab6240544ae0c04200000000000000000000000019f494583c7c933be7b0ee58104ddafac1e8adfa0000000000000000000000000000000000000000000000000000000000000000000000000000000000000000000000000000000000000000009fdf42f6e480000000000000000000000000000000000000000000000000000000000000000200000000000000000000000000000000020e4c79799368b5ef88525bcbd30b482c000000000000000000000000a7fcd74557d6ebbdeec632865f2de150cd1ecae200000000000000000000000000000000000000000000000000000000000000000000000000000000000000000000000000000000000000000000000000000000000000000000000000000000000000000000000000000000009fdf42f6e4800000000000000000000000000000000000000000000000000000000000000000e000000000000000000000000000000000000000000000000000000000000001200000000000000000000000000000000000000000000000000000000000000001b885559e0825a3c3de8132c65e8d222c1300db58bbd644a94fe4136ef2c122ee000000000000000000000000000000000000000000000000000000000000000000000000000000000000000000000000000000000000000000000000000000c000000000000000000000000000000000000000000000000000000000000000e0000000000000000000000000000000000000000000000000000000000000016000000000000000000000000000000000000000000000000000000000000001800000000000000000000000000000000000000000000000000000000000000200000000000000000000000000000000000000000000000000000000000000022000000000000000000000000000000000000000000000000000000000000000000000000000000000000000000000000000000000000000000000000000000041361ebb21b17cf3e1760f4a4bb80e528c803f06ad1aba1c95a9201d958ea249d21d369d2cc71aed3f85d2e4f4f8f629f43443a2920ed7cdfa2f224e62a6b3dd1f1c0000000000000000000000000000000000000000000000000000000000000000000000000000000000000000000000000000000000000000000000000000000000000000000000000000000000000000000000000000000000000000000041de848d989d8d22f48de5bf395a36d3cc56422bfbcf314970f6fe2a5eb1567dff368e9e8063e63f06df9614d1e93cf3c8791df2814ca0ce9311feef5878e594b81b0000000000000000000000000000000000000000000000000000000000000000000000000000000000000000000000000000000000000000000000000000000000000000000000000000000000000000000000000000000000000000000000",
                    "decodedMethod": null,
                    "errorInfo": "",
                    "fromAddress": "0x3bdb4c22b38876a0fa19ed7e588ad239f344e004",
                    "gasUsed": 230119,
                    "id": 0,
                    "methodDecoded": false,
                    "operation": "CALL",
                    "output": "",
                    "revert": false,
                    "revertMessage": "",
                    "selector": "0x223da1ba",
                    "status": true,
                    "value": "0"
                },
                "nodeType": 0
            },
            "1": {
                "invocation": {
                    "address": "0x629a673a8242c2ac4b7b8c5d8735fbeac21a6205",
                    "callData": "0xb885559e0825a3c3de8132c65e8d222c1300db58bbd644a94fe4136ef2c122ee",
                    "decodedMethod": {
                        "callParams": [
                            {
                                "name": "tokenId",
                                "type": "uint256",
                                "value": "83,461,145,707,905,573,595,144,773,723,112,802,197,847,302,664,514,610,604,473,074,342,722,655,036,142"
                            }
                        ],
                        "constructorArguments": "",
                        "name": "ownerOf",
                        "returnParams": [
                            {
                                "name": "",
                                "type": "address",
                                "value": "0xa7fcd74557d6ebbdeec632865f2de150cd1ecae2"
                            }
                        ],
                        "signature": "ownerOf(uint256)"
                    },
                    "errorInfo": "",
                    "fromAddress": "0xaeb960ed44c8a4ce848c50ef451f472a503456b2",
                    "gasUsed": 3290,
                    "id": 1,
                    "methodDecoded": true,
                    "operation": "STATICCALL",
                    "output": "0x000000000000000000000000a7fcd74557d6ebbdeec632865f2de150cd1ecae2",
                    "revert": false,
                    "revertMessage": "",
                    "selector": "0x6352211e",
                    "status": true,
                    "value": "0"
                },
                "nodeType": 0
            },
            "10": {
                "event": {
                    "contract": "0x629a673a8242c2ac4b7b8c5d8735fbeac21a6205",
                    "decodedLog": {
                        "name": "Approval",
                        "params": [
                            {
                                "name": "owner",
                                "type": "address",
                                "value": "0xa7fcd74557d6ebbdeec632865f2de150cd1ecae2"
                            },
                            {
                                "name": "approved",
                                "type": "address",
                                "value": "0x0000000000000000000000000000000000000000"
                            },
                            {
                                "decimalAvailable": true,
                                "name": "tokenId",
                                "type": "uint256",
                                "value": "83,461,145,707,905,573,595,144,773,723,112,802,197,847,302,664,514,610,604,473,074,342,722,655,036,142"
                            }
                        ],
                        "signature": "Approval(address,address,uint256)"
                    },
                    "id": 10,
                    "logData": "0x",
                    "logDecoded": true,
                    "operation": "EVENT",
                    "revert": false,
                    "status": true,
                    "topics": [
                        "0x8c5be1e5ebec7d5bd14f71427d1e84f3dd0314c0f7b2291e5b200ac8c7c3b925",
                        "0x000000000000000000000000a7fcd74557d6ebbdeec632865f2de150cd1ecae2",
                        "0x0000000000000000000000000000000000000000000000000000000000000000",
                        "0xb885559e0825a3c3de8132c65e8d222c1300db58bbd644a94fe4136ef2c122ee"
                    ]
                },
                "nodeType": 1
            },
            "11": {
                "event": {
                    "contract": "0x629a673a8242c2ac4b7b8c5d8735fbeac21a6205",
                    "decodedLog": {
                        "name": "Transfer",
                        "params": [
                            {
                                "name": "from",
                                "type": "address",
                                "value": "0xa7fcd74557d6ebbdeec632865f2de150cd1ecae2"
                            },
                            {
                                "name": "to",
                                "type": "address",
                                "value": "0x79c5090fd1d752d2d1485d98ab6240544ae0c042"
                            },
                            {
                                "decimalAvailable": true,
                                "name": "tokenId",
                                "type": "uint256",
                                "value": "83,461,145,707,905,573,595,144,773,723,112,802,197,847,302,664,514,610,604,473,074,342,722,655,036,142"
                            }
                        ],
                        "signature": "Transfer(address,address,uint256)"
                    },
                    "id": 11,
                    "logData": "0x",
                    "logDecoded": true,
                    "operation": "EVENT",
                    "revert": false,
                    "status": true,
                    "topics": [
                        "0xddf252ad1be2c89b69c2b068fc378daa952ba7f163c4a11628f55a4df523b3ef",
                        "0x000000000000000000000000a7fcd74557d6ebbdeec632865f2de150cd1ecae2",
                        "0x00000000000000000000000079c5090fd1d752d2d1485d98ab6240544ae0c042",
                        "0xb885559e0825a3c3de8132c65e8d222c1300db58bbd644a94fe4136ef2c122ee"
                    ]
                },
                "nodeType": 1
            },
            "12": {
                "event": {
                    "contract": "0xaeb960ed44c8a4ce848c50ef451f472a503456b2",
                    "decodedLog": null,
                    "id": 12,
                    "logData": "0x00000000000000000000000000000000000000000000000000000000000000a000000000000000000000000079c5090fd1d752d2d1485d98ab6240544ae0c042000000000000000000000000000000000000000000000000009fdf42f6e4800000000000000000000000000019f494583c7c933be7b0ee58104ddafac1e8adfa0000000000000000000000000000000000000000000000000000000000000000000000000000000000000000000000020e4c79799368b5ef88525bcbd30b482c000000000000000000000000a7fcd74557d6ebbdeec632865f2de150cd1ecae200000000000000000000000000000000000000000000000000000000000000000000000000000000000000000000000000000000000000000000000000000000000000000000000000000000000000000000000000000000009fdf42f6e4800000000000000000000000000000000000000000000000000000000000000000e000000000000000000000000000000000000000000000000000000000000001200000000000000000000000000000000000000000000000000000000000000001b885559e0825a3c3de8132c65e8d222c1300db58bbd644a94fe4136ef2c122ee0000000000000000000000000000000000000000000000000000000000000000",
                    "logDecoded": false,
                    "operation": "EVENT",
                    "revert": false,
                    "status": true,
                    "topics": [
                        "0x43eb744b69e2ba057b09224246fa56336142aad9761bcd000ffd900a59431795",
                        "0x000000000000000000000000000000020e4c79799368b5ef88525bcbd30b482c"
                    ]
                },
                "nodeType": 1
            },
            "2": {
                "invocation": {
                    "address": "0xdb404188f3428f80fcac37a2ee7a3391f5d28c48",
                    "callData": "0x0000000000000000000000000000000000000000000000000000000000000060000000000000000000000000000000000000000000000000000000000000026000000000000000000000000019f494583c7c933be7b0ee58104ddafac1e8adfa00000000000000000000000000000000000000000000000000000000000001e00000000000000000000000000000000000000000000000000000000000000003000000000000000000000000000000000000000000000000009fdf42f6e4800000000000000000000000000000000000000000000000000000000000000000600000000000000000000000000000000000000000000000000000000000000160000000000000000000000000000000020e4c79799368b5ef88525bcbd30b482c000000000000000000000000a7fcd74557d6ebbdeec632865f2de150cd1ecae20000000000000000000000000000000000000000000000000000000000000000000000000000000000000000000000000000000000000000000000000000010000000000000000000000000000000000000000000000000000000000000001200000000000000000000000000000000000000000000000000000000000000000000000000000000000000000000000000000000000000000009fdf42f6e48000000000000000000000000000aeb960ed44c8a4ce848c50ef451f472a503456b200000000000000000000000000000000000000000000000000000000000000000000000000000000000000000000000000000000000000000000000000000001b885559e0825a3c3de8132c65e8d222c1300db58bbd644a94fe4136ef2c122ee0000000000000000000000000000000000000000000000000000000000000041de848d989d8d22f48de5bf395a36d3cc56422bfbcf314970f6fe2a5eb1567dff368e9e8063e63f06df9614d1e93cf3c8791df2814ca0ce9311feef5878e594b81b00000000000000000000000000000000000000000000000000000000000000",
                    "decodedMethod": null,
                    "errorInfo": "",
                    "fromAddress": "0xaeb960ed44c8a4ce848c50ef451f472a503456b2",
                    "gasUsed": 6430,
                    "id": 2,
                    "methodDecoded": false,
                    "operation": "DELEGATECALL",
                    "output": "",
                    "revert": false,
                    "revertMessage": "",
                    "selector": "0x9a5f14b2",
                    "status": true,
                    "value": "0"
                },
                "nodeType": 0
            },
            "3": {
                "invocation": {
                    "address": "0x0000000000000000000000000000000000000001",
                    "callData": "0x8ab292cb3a79532f1fefaea15559b51112bf3940cce6d5c2a72f3708000000000000000000000000000000000000000000000000000000000000001bde848d989d8d22f48de5bf395a36d3cc56422bfbcf314970f6fe2a5eb1567dff368e9e8063e63f06df9614d1e93cf3c8791df2814ca0ce9311feef5878e594b8",
                    "decodedMethod": {
                        "callParams": [
                            {
                                "name": "hash",
                                "type": "bytes32",
                                "value": "0x690ff8138ab292cb3a79532f1fefaea15559b51112bf3940cce6d5c2a72f3708"
                            },
                            {
                                "name": "v",
                                "type": "uint256",
                                "value": "27"
                            },
                            {
                                "name": "r",
                                "type": "bytes32",
                                "value": "0xde848d989d8d22f48de5bf395a36d3cc56422bfbcf314970f6fe2a5eb1567dff"
                            },
                            {
                                "name": "s",
                                "type": "bytes32",
                                "value": "0x368e9e8063e63f06df9614d1e93cf3c8791df2814ca0ce9311feef5878e594b8"
                            }
                        ],
                        "constructorArguments": "",
                        "name": "ecrecover",
                        "returnParams": [
                            {
                                "name": "",
                                "type": "address",
                                "value": "0x19f494583c7c933be7b0ee58104ddafac1e8adfa"
                            }
                        ],
                        "signature": "ecrecover(bytes32,uint256,bytes32,bytes32)"
                    },
                    "errorInfo": "",
                    "fromAddress": "0xaeb960ed44c8a4ce848c50ef451f472a503456b2",
                    "gasUsed": 3000,
                    "id": 3,
                    "methodDecoded": true,
                    "operation": "STATICCALL",
                    "output": "0x00000000000000000000000019f494583c7c933be7b0ee58104ddafac1e8adfa",
                    "revert": false,
                    "revertMessage": "",
                    "selector": "0x690ff813",
                    "status": true,
                    "value": "0"
                },
                "nodeType": 0
            },
            "4": {
                "event": {
                    "contract": "0xaeb960ed44c8a4ce848c50ef451f472a503456b2",
                    "decodedLog": null,
                    "id": 4,
                    "logData": "0x0000000000000000000000000000000000000000000000018b6e26f1edd60a0d",
                    "logDecoded": false,
                    "operation": "EVENT",
                    "revert": false,
                    "status": true,
                    "topics": [
                        "0xd03c77ba06fdea91615ddd289bcef4a278bcbf729ba06c5d12b6fd9d5a0998d2",
                        "0x00000000000000000000000019f494583c7c933be7b0ee58104ddafac1e8adfa",
                        "0x000000000000000000000000a6199ba2e5b2cbdb482c4303fa33baca37db1848"
                    ]
                },
                "nodeType": 1
            },
            "5": {
                "event": {
                    "contract": "0xaeb960ed44c8a4ce848c50ef451f472a503456b2",
                    "decodedLog": null,
                    "id": 5,
                    "logData": "0x000000000000000000000000000000000000000000000000009fdf42f6e48000",
                    "logDecoded": false,
                    "operation": "EVENT",
                    "revert": false,
                    "status": true,
                    "topics": [
                        "0xd03c77ba06fdea91615ddd289bcef4a278bcbf729ba06c5d12b6fd9d5a0998d2",
                        "0x000000000000000000000000a7fcd74557d6ebbdeec632865f2de150cd1ecae2",
                        "0x0000000000000000000000000000000000000000000000000000000000000000"
                    ]
                },
                "nodeType": 1
            },
            "6": {
                "invocation": {
                    "address": "0xdb404188f3428f80fcac37a2ee7a3391f5d28c48",
                    "callData": "0x00000000000000000000000000000000000000000000000000000000000000600000000000000000000000000000000000000000000000000000000000000240000000000000000000000000a7fcd74557d6ebbdeec632865f2de150cd1ecae200000000000000000000000000000000000000000000000000000000000001c0000000000000000000000000000000000000000000000000000000000000000100000000000000000000000000000000000000000000000000000000000000400000000000000000000000000000000000000000000000000000000000000160000000000000000000000000000000020e4c79799368b5ef88525bcbd30b482c000000000000000000000000a7fcd74557d6ebbdeec632865f2de150cd1ecae20000000000000000000000000000000000000000000000000000000000000000000000000000000000000000000000000000000000000000000000000000010000000000000000000000000000000000000000000000000000000000000001200000000000000000000000000000000000000000000000000000000000000000000000000000000000000000000000000000000000000000009fdf42f6e48000000000000000000000000000aeb960ed44c8a4ce848c50ef451f472a503456b200000000000000000000000000000000000000000000000000000000000000000000000000000000000000000000000000000000000000000000000000000001b885559e0825a3c3de8132c65e8d222c1300db58bbd644a94fe4136ef2c122ee0000000000000000000000000000000000000000000000000000000000000041361ebb21b17cf3e1760f4a4bb80e528c803f06ad1aba1c95a9201d958ea249d21d369d2cc71aed3f85d2e4f4f8f629f43443a2920ed7cdfa2f224e62a6b3dd1f1c00000000000000000000000000000000000000000000000000000000000000",
                    "decodedMethod": null,
                    "errorInfo": "",
                    "fromAddress": "0xaeb960ed44c8a4ce848c50ef451f472a503456b2",
                    "gasUsed": 6437,
                    "id": 6,
                    "methodDecoded": false,
                    "operation": "DELEGATECALL",
                    "output": "",
                    "revert": false,
                    "revertMessage": "",
                    "selector": "0x9a5f14b2",
                    "status": true,
                    "value": "0"
                },
                "nodeType": 0
            },
            "7": {
                "invocation": {
                    "address": "0x0000000000000000000000000000000000000001",
                    "callData": "0x7e7fba4db3d98b9009a09ecd27c32437922c3cd26794e5b90fa75587000000000000000000000000000000000000000000000000000000000000001c361ebb21b17cf3e1760f4a4bb80e528c803f06ad1aba1c95a9201d958ea249d21d369d2cc71aed3f85d2e4f4f8f629f43443a2920ed7cdfa2f224e62a6b3dd1f",
                    "decodedMethod": {
                        "callParams": [
                            {
                                "name": "hash",
                                "type": "bytes32",
                                "value": "0xf4d5026f7e7fba4db3d98b9009a09ecd27c32437922c3cd26794e5b90fa75587"
                            },
                            {
                                "name": "v",
                                "type": "uint256",
                                "value": "28"
                            },
                            {
                                "name": "r",
                                "type": "bytes32",
                                "value": "0x361ebb21b17cf3e1760f4a4bb80e528c803f06ad1aba1c95a9201d958ea249d2"
                            },
                            {
                                "name": "s",
                                "type": "bytes32",
                                "value": "0x1d369d2cc71aed3f85d2e4f4f8f629f43443a2920ed7cdfa2f224e62a6b3dd1f"
                            }
                        ],
                        "constructorArguments": "",
                        "name": "ecrecover",
                        "returnParams": [
                            {
                                "name": "",
                                "type": "address",
                                "value": "0xa7fcd74557d6ebbdeec632865f2de150cd1ecae2"
                            }
                        ],
                        "signature": "ecrecover(bytes32,uint256,bytes32,bytes32)"
                    },
                    "errorInfo": "",
                    "fromAddress": "0xaeb960ed44c8a4ce848c50ef451f472a503456b2",
                    "gasUsed": 3000,
                    "id": 7,
                    "methodDecoded": true,
                    "operation": "STATICCALL",
                    "output": "0x000000000000000000000000a7fcd74557d6ebbdeec632865f2de150cd1ecae2",
                    "revert": false,
                    "revertMessage": "",
                    "selector": "0xf4d5026f",
                    "status": true,
                    "value": "0"
                },
                "nodeType": 0
            },
            "8": {
                "invocation": {
                    "address": "0xe2fd97cdd6182c1223ff8bc6344abaf7132b51d5",
                    "callData": "0x000000000000000000000000629a673a8242c2ac4b7b8c5d8735fbeac21a6205000000000000000000000000a7fcd74557d6ebbdeec632865f2de150cd1ecae200000000000000000000000079c5090fd1d752d2d1485d98ab6240544ae0c04200000000000000000000000000000000000000000000000000000000000000800000000000000000000000000000000000000000000000000000000000000001b885559e0825a3c3de8132c65e8d222c1300db58bbd644a94fe4136ef2c122ee",
                    "decodedMethod": null,
                    "errorInfo": "",
                    "fromAddress": "0xaeb960ed44c8a4ce848c50ef451f472a503456b2",
                    "gasUsed": 109468,
                    "id": 8,
                    "methodDecoded": false,
                    "operation": "DELEGATECALL",
                    "output": "",
                    "revert": false,
                    "revertMessage": "",
                    "selector": "0x40125765",
                    "status": true,
                    "value": "0"
                },
                "nodeType": 0
            },
            "9": {
                "invocation": {
                    "address": "0x629a673a8242c2ac4b7b8c5d8735fbeac21a6205",
                    "callData": "0x000000000000000000000000a7fcd74557d6ebbdeec632865f2de150cd1ecae200000000000000000000000079c5090fd1d752d2d1485d98ab6240544ae0c042b885559e0825a3c3de8132c65e8d222c1300db58bbd644a94fe4136ef2c122ee",
                    "decodedMethod": {
                        "callParams": [
                            {
                                "name": "from",
                                "type": "address",
                                "value": "0xa7fcd74557d6ebbdeec632865f2de150cd1ecae2"
                            },
                            {
                                "name": "to",
                                "type": "address",
                                "value": "0x79c5090fd1d752d2d1485d98ab6240544ae0c042"
                            },
                            {
                                "name": "tokenId",
                                "type": "uint256",
                                "value": "83,461,145,707,905,573,595,144,773,723,112,802,197,847,302,664,514,610,604,473,074,342,722,655,036,142"
                            }
                        ],
                        "constructorArguments": "",
                        "name": "safeTransferFrom",
                        "returnParams": [],
                        "signature": "safeTransferFrom(address,address,uint256)"
                    },
                    "errorInfo": "",
                    "fromAddress": "0xaeb960ed44c8a4ce848c50ef451f472a503456b2",
                    "gasUsed": 106922,
                    "id": 9,
                    "methodDecoded": true,
                    "operation": "CALL",
                    "output": "",
                    "revert": false,
                    "revertMessage": "",
                    "selector": "0x42842e0e",
                    "status": true,
                    "value": "0"
                },
                "nodeType": 0
            }
        },
        "gasFlame": [
            {
                "children": [
                    {
                        "children": [
                            {
                                "children": [],
                                "depth": 0,
                                "name": "Initial Gas",
                                "value": 28620
                            },
                            {
                                "children": [
                                    {
                                        "children": [],
                                        "depth": 1,
                                        "name": "ownerOf",
                                        "value": 3290
                                    },
                                    {
                                        "children": [
                                            {
                                                "children": [],
                                                "depth": 2,
                                                "name": "ecrecover",
                                                "value": 3000
                                            }
                                        ],
                                        "depth": 1,
                                        "name": "0x9a5f14b2",
                                        "value": 6430
                                    },
                                    {
                                        "children": [
                                            {
                                                "children": [],
                                                "depth": 2,
                                                "name": "ecrecover",
                                                "value": 3000
                                            }
                                        ],
                                        "depth": 1,
                                        "name": "0x9a5f14b2",
                                        "value": 6437
                                    },
                                    {
                                        "children": [
                                            {
                                                "children": [],
                                                "depth": 2,
                                                "name": "safeTransferFrom",
                                                "value": 106922
                                            }
                                        ],
                                        "depth": 1,
                                        "name": "0x40125765",
                                        "value": 109468
                                    }
                                ],
                                "depth": 0,
                                "name": "Executed Gas",
                                "value": 231499
                            }
                        ],
                        "depth": -1,
                        "name": "Actual Gas Used",
                        "value": 230119
                    },
                    {
                        "children": [],
                        "depth": -1,
                        "name": "Refunded Gas",
                        "value": 30000
                    }
                ],
                "depth": -2,
                "name": "Total Gas",
                "value": 260119
            }
        ],
        "isConfirmed": true,
        "mainTrace": [
            {
                "children": [
                    {
                        "children": [
                            {
                                "children": [],
                                "depth": 1,
                                "id": 1,
                                "order": 1
                            },
                            {
                                "children": [
                                    {
                                        "children": [],
                                        "depth": 2,
                                        "id": 3,
                                        "order": 3
                                    }
                                ],
                                "depth": 1,
                                "id": 2,
                                "order": 2
                            },
                            {
                                "children": [],
                                "depth": 1,
                                "id": 4,
                                "order": 4
                            },
                            {
                                "children": [],
                                "depth": 1,
                                "id": 5,
                                "order": 5
                            },
                            {
                                "children": [
                                    {
                                        "children": [],
                                        "depth": 2,
                                        "id": 7,
                                        "order": 7
                                    }
                                ],
                                "depth": 1,
                                "id": 6,
                                "order": 6
                            },
                            {
                                "children": [
                                    {
                                        "children": [
                                            {
                                                "children": [],
                                                "depth": 3,
                                                "id": 10,
                                                "order": 10
                                            },
                                            {
                                                "children": [],
                                                "depth": 3,
                                                "id": 11,
                                                "order": 11
                                            }
                                        ],
                                        "depth": 2,
                                        "id": 9,
                                        "order": 9
                                    }
                                ],
                                "depth": 1,
                                "id": 8,
                                "order": 8
                            },
                            {
                                "children": [],
                                "depth": 1,
                                "id": 12,
                                "order": 12
                            }
                        ],
                        "depth": 0,
                        "id": 0,
                        "order": 0
                    }
                ],
                "depth": -1,
                "id": -1,
                "order": -1
            }
        ],
        "mainTraceNodeCount": 13,
        "parentIdMap": {
            "0": -1,
            "1": 0,
            "10": 9,
            "11": 9,
            "12": 0,
            "2": 0,
            "3": 2,
            "4": 0,
            "5": 0,
            "6": 0,
            "7": 6,
            "8": 0,
            "9": 8
        },
        "tidyTrace": [
            {
                "children": [
                    {
                        "children": [
                            {
                                "children": [],
                                "depth": 1,
                                "id": 2,
                                "order": 2
                            },
                            {
                                "children": [],
                                "depth": 1,
                                "id": 4,
                                "order": 4
                            },
                            {
                                "children": [],
                                "depth": 1,
                                "id": 5,
                                "order": 5
                            },
                            {
                                "children": [],
                                "depth": 1,
                                "id": 6,
                                "order": 6
                            },
                            {
                                "children": [
                                    {
                                        "children": [
                                            {
                                                "children": [],
                                                "depth": 3,
                                                "id": 10,
                                                "order": 10
                                            },
                                            {
                                                "children": [],
                                                "depth": 3,
                                                "id": 11,
                                                "order": 11
                                            }
                                        ],
                                        "depth": 2,
                                        "id": 9,
                                        "order": 9
                                    }
                                ],
                                "depth": 1,
                                "id": 8,
                                "order": 8
                            },
                            {
                                "children": [],
                                "depth": 1,
                                "id": 12,
                                "order": 12
                            }
                        ],
                        "depth": 0,
                        "id": 0,
                        "order": 0
                    }
                ],
                "depth": -1,
                "id": -1,
                "order": -1
            }
        ],
        "tidyTraceNodeCount": 10
    },
    "state_change": {
        "stateChanges": [
            {
                "address": "0x629a673a8242c2ac4b7b8c5d8735fbeac21a6205",
                "erc": "ERC-721",
                "slots": [
                    {
                        "current": "0x0000000000000000000000000000000000000000000000000000000000000005",
                        "key": "0x8f1e31c00d023b51019a32fcdf06ce4ae51a4652d7bf35974ab96889949d0c41",
                        "prev": "0x0000000000000000000000000000000000000000000000000000000000000004"
                    },
                    {
                        "current": "0x0000000000000000000000000000000000000000000000000000000000000010",
                        "key": "0xdab53ff059841fcd0c0561d65ef28f49f7806af7978a960a85dac5a123ac71a6",
                        "prev": "0x0000000000000000000000000000000000000000000000000000000000000011"
                    },
                    {
                        "current": "0x0000000000000000000000000000000000000000000000000000000000000005",
                        "key": "0xfa253746026ad1abe6f9962144ca9a339cd2958e3271080851993b0fbeb1b216",
                        "prev": "0x0000000000000000000000000000000000000000000000000000000000000000"
                    },
                    {
                        "current": "0xb885559e0825a3c3de8132c65e8d222c1300db58bbd644a94fe4136ef2c122ee",
                        "key": "0x40eff5ef9c46f360ad12c4bb6249fd5f2928ebbb41a65e4e02f7be1d2bc811c5",
                        "prev": "0x0000000000000000000000000000000000000000000000000000000000000000"
                    },
                    {
                        "current": "0x00000000000000000000000079c5090fd1d752d2d1485d98ab6240544ae0c042",
                        "key": "0x036b6384b5eca791c62761152d0c79bb0604c104a5fb6f4eb0703f3154bdefa9",
                        "prev": "0x000000000000000000000000a7fcd74557d6ebbdeec632865f2de150cd1ecae2"
                    },
                    {
                        "current": "0x000000000000000000000000000000000000000000000000000000000000000a",
                        "key": "0xfa2250f1900025f49e77b413fdb59915766d7ef9865c70b4d64274b1a11b02d9",
                        "prev": "0x0000000000000000000000000000000000000000000000000000000000000011"
                    },
                    {
                        "current": "0x0000000000000000000000000000000000000000000000000000000000000000",
                        "key": "0xdc022359a90fab712d97e28ab36863c695efd50006b43fcee942cc5f55f3e848",
                        "prev": "0x000000000000000000000000000000000000000000000000000000000000000a"
                    },
                    {
                        "current": "0xeb0d0f550ad054e7a7785ae48ae5f6c9d362ba0b09ecebb3fd9b7d9c0e8c5cea",
                        "key": "0x4db8becf0de425dfe06f3a2713f1a30d8567a78bf0afb500755c6f4d7fa25a4a",
                        "prev": "0xb885559e0825a3c3de8132c65e8d222c1300db58bbd644a94fe4136ef2c122ee"
                    },
                    {
                        "current": "0x0000000000000000000000000000000000000000000000000000000000000000",
                        "key": "0x4db8becf0de425dfe06f3a2713f1a30d8567a78bf0afb500755c6f4d7fa25a51",
                        "prev": "0xeb0d0f550ad054e7a7785ae48ae5f6c9d362ba0b09ecebb3fd9b7d9c0e8c5cea"
                    }
                ],
                "storageVariables": [
                    {
                        "name": "_holderTokens",
                        "type": "mapping(address => struct EnumerableSet.UintSet)",
                        "value": {
                            "pairs": [
                                {
                                    "key": "0x79c5090fd1d752d2d1485d98ab6240544ae0c042",
                                    "value": {
                                        "fields": [
                                            {
                                                "name": "_inner",
                                                "type": "struct EnumerableSet.Set",
                                                "value": {
                                                    "fields": [
                                                        {
                                                            "name": "_values",
                                                            "type": "bytes32[]",
                                                            "value": {
                                                                "elemType": "bytes32",
                                                                "elems": [
                                                                    {
                                                                        "index": 4,
                                                                        "value": {
                                                                            "current": "0xb885559e0825a3c3de8132c65e8d222c1300db58bbd644a94fe4136ef2c122ee",
                                                                            "prev": "0x0000000000000000000000000000000000000000000000000000000000000000",
                                                                            "typeTag": 1
                                                                        }
                                                                    }
                                                                ],
                                                                "typeTag": 2
                                                            }
                                                        },
                                                        {
                                                            "name": "_indexes",
                                                            "type": "mapping(bytes32 => uint256)",
                                                            "value": {
                                                                "pairs": [
                                                                    {
                                                                        "key": "0xb885559e0825a3c3de8132c65e8d222c1300db58bbd644a94fe4136ef2c122ee",
                                                                        "value": {
                                                                            "current": "5",
                                                                            "prev": "0",
                                                                            "typeTag": 1
                                                                        }
                                                                    }
                                                                ],
                                                                "typeTag": 4
                                                            }
                                                        }
                                                    ],
                                                    "typeTag": 3
                                                }
                                            }
                                        ],
                                        "typeTag": 3
                                    }
                                },
                                {
                                    "key": "0xa7fcd74557d6ebbdeec632865f2de150cd1ecae2",
                                    "value": {
                                        "fields": [
                                            {
                                                "name": "_inner",
                                                "type": "struct EnumerableSet.Set",
                                                "value": {
                                                    "fields": [
                                                        {
                                                            "name": "_values",
                                                            "type": "bytes32[]",
                                                            "value": {
                                                                "elemType": "bytes32",
                                                                "elems": [
                                                                    {
                                                                        "index": 9,
                                                                        "value": {
                                                                            "current": "0xeb0d0f550ad054e7a7785ae48ae5f6c9d362ba0b09ecebb3fd9b7d9c0e8c5cea",
                                                                            "prev": "0xb885559e0825a3c3de8132c65e8d222c1300db58bbd644a94fe4136ef2c122ee",
                                                                            "typeTag": 1
                                                                        }
                                                                    }
                                                                ],
                                                                "typeTag": 2
                                                            }
                                                        },
                                                        {
                                                            "name": "_indexes",
                                                            "type": "mapping(bytes32 => uint256)",
                                                            "value": {
                                                                "pairs": [
                                                                    {
                                                                        "key": "0xb885559e0825a3c3de8132c65e8d222c1300db58bbd644a94fe4136ef2c122ee",
                                                                        "value": {
                                                                            "current": "0",
                                                                            "prev": "10",
                                                                            "typeTag": 1
                                                                        }
                                                                    },
                                                                    {
                                                                        "key": "0xeb0d0f550ad054e7a7785ae48ae5f6c9d362ba0b09ecebb3fd9b7d9c0e8c5cea",
                                                                        "value": {
                                                                            "current": "10",
                                                                            "prev": "17",
                                                                            "typeTag": 1
                                                                        }
                                                                    }
                                                                ],
                                                                "typeTag": 4
                                                            }
                                                        }
                                                    ],
                                                    "typeTag": 3
                                                }
                                            }
                                        ],
                                        "typeTag": 3
                                    }
                                }
                            ],
                            "typeTag": 4
                        }
                    },
                    {
                        "name": "_tokenOwners",
                        "type": "struct EnumerableMap.UintToAddressMap",
                        "value": {
                            "fields": [
                                {
                                    "name": "_inner",
                                    "type": "struct EnumerableMap.Map",
                                    "value": {
                                        "fields": [
                                            {
                                                "name": "_entries",
                                                "type": "struct EnumerableMap.MapEntry[]",
                                                "value": {
                                                    "elemType": "struct EnumerableMap.MapEntry",
                                                    "elems": [
                                                        {
                                                            "index": 88316,
                                                            "value": {
                                                                "fields": [
                                                                    {
                                                                        "name": "_value",
                                                                        "type": "bytes32",
                                                                        "value": {
                                                                            "current": "0x00000000000000000000000079c5090fd1d752d2d1485d98ab6240544ae0c042",
                                                                            "prev": "0x000000000000000000000000a7fcd74557d6ebbdeec632865f2de150cd1ecae2",
                                                                            "typeTag": 1
                                                                        }
                                                                    }
                                                                ],
                                                                "typeTag": 3
                                                            }
                                                        }
                                                    ],
                                                    "typeTag": 2
                                                }
                                            }
                                        ],
                                        "typeTag": 3
                                    }
                                }
                            ],
                            "typeTag": 3
                        }
                    }
                ]
            },
            {
                "address": "0xaeb960ed44c8a4ce848c50ef451f472a503456b2",
                "erc": "",
                "slots": [
                    {
                        "current": "0x000000000000000000000000000000000000000000000000009fdf42f6e48000",
                        "key": "0x124f2e05b5d0b981231cb1bcab63389720bab6dbf8c9a075cc5c5a0c6ba554a1",
                        "prev": "0x0000000000000000000000000000000000000000000000000000000000000000"
                    },
                    {
                        "current": "0x0000000000000000000000000000000000000000000000018b6e26f1edd60a0d",
                        "key": "0xf2c9af22c95a385ee23f5ee757a64bcd69b272deea43ac08465714549751d4a7",
                        "prev": "0x0000000000000000000000000000000000000000000000018c0e0634e4ba8a0d"
                    },
                    {
                        "current": "0x0000000000000000000000000000000000000000000000000000000000000001",
                        "key": "0x715099482e7e00ae9c6873814ac054a90a86f45c47a27472828722cde55eeb89",
                        "prev": "0x0000000000000000000000000000000000000000000000000000000000000000"
                    }
                ],
                "storageVariables": []
            }
        ]
    }
}