{
    "balance_change": {
        "balanceChanges": [
            {
                "account": "0x34e15635a4de3d82da31a4baeb7b9d465017dc63",
                "assets": [
                    {
                        "address": "0x2260fac5e5542a773aa44fbcfedf7c193bc2c599",
                        "amount": "0.01933042",
                        "iconUrl": "https://assets.blocksec.com/icon/878f2983cb21c5816eb5879d9b6f7a3fe2eb6fce7560c367a0315527852a8a84.png",
                        "isERC1155": false,
                        "isERC721": false,
                        "sign": false,
                        "value": "761.8064958"
                    },
                    {
                        "address": "0xdac17f958d2ee523a2206206994597c13d831ec7",
                        "amount": "761.556634",
                        "iconUrl": "https://assets.blocksec.com/icon/fcea71f3193ce895be44bfdf941f7e4c9381dd587f273c2d1a27f1263d84e4ea.png",
                        "isERC1155": false,
                        "isERC721": false,
                        "sign": true,
                        "value": "761.7270171"
                    }
                ]
            },
            {
                "account": "0xd51a44d3fae010294c616388b506acda1bfaae46",
                "assets": [
                    {
                        "address": "0x2260fac5e5542a773aa44fbcfedf7c193bc2c599",
                        "amount": "0.01933042",
                        "iconUrl": "https://assets.blocksec.com/icon/878f2983cb21c5816eb5879d9b6f7a3fe2eb6fce7560c367a0315527852a8a84.png",
                        "isERC1155": false,
                        "isERC721": false,
                        "sign": true,
                        "value": "761.8064958"
                    },
                    {
                        "address": "0xdac17f958d2ee523a2206206994597c13d831ec7",
                        "amount": "761.556634",
                        "iconUrl": "https://assets.blocksec.com/icon/fcea71f3193ce895be44bfdf941f7e4c9381dd587f273c2d1a27f1263d84e4ea.png",
                        "isERC1155": false,
                        "isERC721": false,
                        "sign": false,
                        "value": "761.7270171"
                    }
                ]
            }
        ]
    },
    "profile": {
        "basic_info": {
            "baseFee": "68.037828146",
            "blockNumber": 14636093,
            "callData": "0x394747c50000000000000000000000000000000000000000000000000000000000000001000000000000000000000000000000000000000000000000000000000000000000000000000000000000000000000000000000000000000000000000001d7ef2000000000000000000000000000000000000000000000000000000002cf03a4c0000000000000000000000000000000000000000000000000000000000000001",
            "debugEnable": true,
            "errorInfo": "",
            "eventCount": 3,
            "feeRecipient": "0x2daa35962a6d43eb54c48367b33d0b379c930e5e",
            "formatValue": "0",
            "gasLimit": 465100,
            "gasPrice": "69.557828146",
            "gasUsed": 356535,
            "intTxnCount": 11,
            "internalRevert": false,
            "internalRevertMessage": "",
            "isContractCreation": false,
            "isFlashloan": false,
            "maxFee": "95.279338493",
            "nonce": 1377,
            "overwritedBlockNumber": -1,
            "priorityFee": "1.52",
            "receiver": "0xd51a44d3fae010294c616388b506acda1bfaae46",
            "revertMessage": "",
            "sender": "0x34e15635a4de3d82da31a4baeb7b9d465017dc63",
            "simulationEnable": true,
            "sourceTxnHash": "0xe817292d4ad4e594c51e1f2962bdb6c9ddf50a8e1960ad7f8ebcf27218f784c0",
            "status": true,
            "timestamp": "2022-04-22T17:48:54Z",
            "transactionFee": "0.02479980025803411",
            "txnHash": "0xe817292d4ad4e594c51e1f2962bdb6c9ddf50a8e1960ad7f8ebcf27218f784c0",
            "txnIndex": 34,
            "type": 2,
            "value": "0"
        },
        "fund_flow": [
            {
                "amount": "0.01933042",
                "from": "0x34e15635a4de3d82da31a4baeb7b9d465017dc63",
                "id": 1,
                "isERC1155": false,
                "isERC721": false,
                "isReverted": false,
                "order": 1,
                "to": "0xd51a44d3fae010294c616388b506acda1bfaae46",
                "token": "0x2260fac5e5542a773aa44fbcfedf7c193bc2c599"
            },
            {
                "amount": "761.556634",
                "from": "0xd51a44d3fae010294c616388b506acda1bfaae46",
                "id": 2,
                "isERC1155": false,
                "isERC721": false,
                "isReverted": false,
                "order": 2,
                "to": "0x34e15635a4de3d82da31a4baeb7b9d465017dc63",
                "token": "0xdac17f958d2ee523a2206206994597c13d831ec7"
            }
        ],
        "token_infos": [
            {
                "address": "0xeeeeeeeeeeeeeeeeeeeeeeeeeeeeeeeeeeeeeeee",
                "decimals": 18
            },
            {
                "address": "0x2260fac5e5542a773aa44fbcfedf7c193bc2c599",
                "decimals": 8
            },
            {
                "address": "0xc02aaa39b223fe8d0a0e5c4f27ead9083c756cc2",
                "decimals": 18
            },
            {
                "address": "0xdac17f958d2ee523a2206206994597c13d831ec7",
                "decimals": 6
            }
        ]
    },
    "address_label": {
        "labels": [
            {
                "address": "0xd51a44d3fae010294c616388b506acda1bfaae46",
                "label": "Curve.fi: USDT/WBTC/WETH Pool"
            },
            {
                "address": "0x2260fac5e5542a773aa44fbcfedf7c193bc2c599",
                "label": "Wrapped BTC: WBTC Token"
            },
            {
                "address": "0xc4ad29ba4b3c580e6d59105fff484999997675ff",
                "label": "Curve.fi USD-BTC-ETH (crv3crypto)"
            },
            {
                "address": "0x0000000000000000000000000000000000000001",
                "label": "Precompiled"
            },
            {
                "address": "0x0000000000000000000000000000000000000003",
                "label": "Precompiled"
            },
            {
                "address": "0x0000000000000000000000000000000000000004",
                "label": "Precompiled"
            },
            {
                "address": "0xeeeeeeeeeeeeeeeeeeeeeeeeeeeeeeeeeeeeeeee",
                "label": "Ether"
            },
            {
                "address": "0x8f68f4810cce3194b6cb6f3d50fa58c2c9bdd1d5",
                "label": "Vyper_contract"
            },
            {
                "address": "0xdac17f958d2ee523a2206206994597c13d831ec7",
                "label": "Tether: USDT Stablecoin"
            },
            {
                "address": "0x0000000000000000000000000000000000000002",
                "label": "Precompiled"
            }
        ]
    },
    "trace": {
        "accountLabels": null,
        "dataMap": {
            "-1": {
                "invocation": {
                    "address": "0x34e15635a4de3d82da31a4baeb7b9d465017dc63",
                    "callData": "",
                    "decodedMethod": null,
                    "errorInfo": "",
                    "fromAddress": "",
                    "gasUsed": 0,
                    "id": -1,
                    "methodDecoded": false,
                    "operation": "",
                    "output": "",
                    "revert": false,
                    "revertMessage": "",
                    "selector": "",
                    "status": false,
                    "value": ""
                },
                "nodeType": 0
            },
            "0": {
                "invocation": {
                    "address": "0xd51a44d3fae010294c616388b506acda1bfaae46",
                    "callData": "0x0000000000000000000000000000000000000000000000000000000000000001000000000000000000000000000000000000000000000000000000000000000000000000000000000000000000000000000000000000000000000000001d7ef2000000000000000000000000000000000000000000000000000000002cf03a4c0000000000000000000000000000000000000000000000000000000000000001",
                    "decodedMethod": {
                        "callParams": [
                            {
                                "name": "from",
                                "type": "uint256",
                                "value": "1"
                            },
                            {
                                "name": "to",
                                "type": "uint256",
                                "value": "0"
                            },
                            {
                                "name": "_from_amount",
                                "type": "uint256",
                                "value": "1,933,042"
                            },
                            {
                                "name": "_min_to_amount",
                                "type": "uint256",
                                "value": "753,941,068"
                            },
                            {
                                "name": "use_eth",
                                "type": "bool",
                                "value": true
                            }
                        ],
                        "constructorArguments": "",
                        "name": "exchange",
                        "returnParams": [],
                        "signature": "exchange(uint256,uint256,uint256,uint256,bool)"
                    },
                    "errorInfo": "",
                    "fromAddress": "0x34e15635a4de3d82da31a4baeb7b9d465017dc63",
                    "gasUsed": 356535,
                    "id": 0,
                    "methodDecoded": true,
                    "operation": "CALL",
                    "output": "",
                    "revert": false,
                    "revertMessage": "",
                    "selector": "0x394747c5",
                    "status": true,
                    "value": "0"
                },
                "nodeType": 0
            },
            "1": {
                "invocation": {
                    "address": "0x2260fac5e5542a773aa44fbcfedf7c193bc2c599",
                    "callData": "0x00000000000000000000000034e15635a4de3d82da31a4baeb7b9d465017dc63000000000000000000000000d51a44d3fae010294c616388b506acda1bfaae4600000000000000000000000000000000000000000000000000000000001d7ef2",
                    "decodedMethod": {
                        "callParams": [
                            {
                                "name": "_from",
                                "type": "address",
                                "value": "0x34e15635a4de3d82da31a4baeb7b9d465017dc63"
                            },
                            {
                                "name": "_to",
                                "type": "address",
                                "value": "0xd51a44d3fae010294c616388b506acda1bfaae46"
                            },
                            {
                                "decimalAvailable": true,
                                "name": "_value",
                                "type": "uint256",
                                "value": "1,933,042"
                            }
                        ],
                        "constructorArguments": "",
                        "name": "transferFrom",
                        "returnParams": [
                            {
                                "name": "",
                                "type": "bool",
                                "value": true
                            }
                        ],
                        "signature": "transferFrom(address,address,uint256)"
                    },
                    "errorInfo": "",
                    "fromAddress": "0xd51a44d3fae010294c616388b506acda1bfaae46",
                    "gasUsed": 21370,
                    "id": 1,
                    "methodDecoded": true,
                    "operation": "CALL",
                    "output": "0x0000000000000000000000000000000000000000000000000000000000000001",
                    "revert": false,
                    "revertMessage": "",
                    "selector": "0x23b872dd",
                    "status": true,
                    "value": "0"
                },
                "nodeType": 0
            },
            "10": {
                "invocation": {
                    "address": "0x8f68f4810cce3194b6cb6f3d50fa58c2c9bdd1d5",
                    "callData": "0x000000000000000000000000000000000000000000ed9cc5994666f89c08d60400000000000000000000000000000000000000000000017e2c4b616bb4903f170000000000000000000000000000000000000000000014260137c26b056c2905",
                    "decodedMethod": {
                        "callParams": [
                            {
                                "name": "_x",
                                "type": "uint256[3]",
                                "value": [
                                    "287,255,753,473,205,653,968,836,100",
                                    "7,049,847,988,033,189,592,855",
                                    "95,148,393,684,676,532,513,029"
                                ]
                            }
                        ],
                        "constructorArguments": "",
                        "name": "geometric_mean",
                        "returnParams": [
                            {
                                "name": "",
                                "type": "uint256",
                                "value": "577,585,989,241,211,746,439,670"
                            }
                        ],
                        "signature": "geometric_mean(uint256[3])"
                    },
                    "errorInfo": "",
                    "fromAddress": "0xd51a44d3fae010294c616388b506acda1bfaae46",
                    "gasUsed": 25206,
                    "id": 10,
                    "methodDecoded": true,
                    "operation": "STATICCALL",
                    "output": "0x000000000000000000000000000000000000000000007a4effcca9285976d1f6",
                    "revert": false,
                    "revertMessage": "",
                    "selector": "0xbad1dc26",
                    "status": true,
                    "value": "0"
                },
                "nodeType": 0
            },
            "11": {
                "invocation": {
                    "address": "0x8f68f4810cce3194b6cb6f3d50fa58c2c9bdd1d5",
                    "callData": "0x0000000000000000000000000000000000000000000000000005347cedda8c4d",
                    "decodedMethod": {
                        "callParams": [
                            {
                                "name": "x",
                                "type": "uint256",
                                "value": "1,465,086,054,665,293"
                            }
                        ],
                        "constructorArguments": "",
                        "name": "sqrt_int",
                        "returnParams": [
                            {
                                "name": "",
                                "type": "uint256",
                                "value": "38,276,442,554,987,956"
                            }
                        ],
                        "signature": "sqrt_int(uint256)"
                    },
                    "errorInfo": "",
                    "fromAddress": "0xd51a44d3fae010294c616388b506acda1bfaae46",
                    "gasUsed": 3473,
                    "id": 11,
                    "methodDecoded": true,
                    "operation": "STATICCALL",
                    "output": "0x0000000000000000000000000000000000000000000000000087fc38c1c175b4",
                    "revert": false,
                    "revertMessage": "",
                    "selector": "0x4e60b141",
                    "status": true,
                    "value": "0"
                },
                "nodeType": 0
            },
            "12": {
                "invocation": {
                    "address": "0x8f68f4810cce3194b6cb6f3d50fa58c2c9bdd1d5",
                    "callData": "0x00000000000000000000000000000000000000000000000000000000001a0e6d00000000000000000000000000000000000000000000000000000abd8940e805000000000000000000000000000000000000000000e8cb2996f3f2c94b74c000000000000000000000000000000000000000000000f14e25016c511190f83c5f000000000000000000000000000000000000000000ee21ba9806776b8276d944",
                    "decodedMethod": {
                        "callParams": [
                            {
                                "name": "ANN",
                                "type": "uint256",
                                "value": "1,707,629"
                            },
                            {
                                "name": "gamma",
                                "type": "uint256",
                                "value": "11,809,167,828,997"
                            },
                            {
                                "name": "x_unsorted",
                                "type": "uint256[3]",
                                "value": [
                                    "281,430,197,740,428,000,000,000,000",
                                    "291,720,149,744,866,218,095,426,655",
                                    "287,883,625,211,188,599,108,065,604"
                                ]
                            }
                        ],
                        "constructorArguments": "",
                        "name": "newton_D",
                        "returnParams": [
                            {
                                "name": "",
                                "type": "uint256",
                                "value": "860,971,655,109,534,717,495,339,449"
                            }
                        ],
                        "signature": "newton_D(uint256,uint256,uint256[3])"
                    },
                    "errorInfo": "",
                    "fromAddress": "0xd51a44d3fae010294c616388b506acda1bfaae46",
                    "gasUsed": 46370,
                    "id": 12,
                    "methodDecoded": true,
                    "operation": "STATICCALL",
                    "output": "0x000000000000000000000000000000000000000002c82dd6f22726b4549de9b9",
                    "revert": false,
                    "revertMessage": "",
                    "selector": "0xc7fab708",
                    "status": true,
                    "value": "0"
                },
                "nodeType": 0
            },
            "13": {
                "invocation": {
                    "address": "0x8f68f4810cce3194b6cb6f3d50fa58c2c9bdd1d5",
                    "callData": "0x000000000000000000000000000000000000000000ed649cfb62623c1c34a33d00000000000000000000000000000000000000000000017e76a1c9dcae57b720000000000000000000000000000000000000000000001426d3adc850c7f4eba6",
                    "decodedMethod": {
                        "callParams": [
                            {
                                "name": "_x",
                                "type": "uint256[3]",
                                "value": [
                                    "286,990,551,703,178,239,165,113,149",
                                    "7,055,204,571,674,429,601,568",
                                    "95,163,558,999,956,118,629,286"
                                ]
                            }
                        ],
                        "constructorArguments": "",
                        "name": "geometric_mean",
                        "returnParams": [
                            {
                                "name": "",
                                "type": "uint256",
                                "value": "577,585,074,440,941,275,986,313"
                            }
                        ],
                        "signature": "geometric_mean(uint256[3])"
                    },
                    "errorInfo": "",
                    "fromAddress": "0xd51a44d3fae010294c616388b506acda1bfaae46",
                    "gasUsed": 25206,
                    "id": 13,
                    "methodDecoded": true,
                    "operation": "STATICCALL",
                    "output": "0x000000000000000000000000000000000000000000007a4ef31aa3288fa43989",
                    "revert": false,
                    "revertMessage": "",
                    "selector": "0xbad1dc26",
                    "status": true,
                    "value": "0"
                },
                "nodeType": 0
            },
            "14": {
                "event": {
                    "contract": "0xd51a44d3fae010294c616388b506acda1bfaae46",
                    "decodedLog": {
                        "name": "TokenExchange",
                        "params": [
                            {
                                "name": "buyer",
                                "type": "address",
                                "value": "0x34e15635a4de3d82da31a4baeb7b9d465017dc63"
                            },
                            {
                                "name": "sold_id",
                                "type": "uint256",
                                "value": "1"
                            },
                            {
                                "name": "tokens_sold",
                                "type": "uint256",
                                "value": "1,933,042"
                            },
                            {
                                "name": "bought_id",
                                "type": "uint256",
                                "value": "0"
                            },
                            {
                                "name": "tokens_bought",
                                "type": "uint256",
                                "value": "761,556,634"
                            }
                        ],
                        "signature": "TokenExchange(address,uint256,uint256,uint256,uint256)"
                    },
                    "id": 14,
                    "logData": "0x000000000000000000000000000000000000000000000000000000000000000100000000000000000000000000000000000000000000000000000000001d7ef20000000000000000000000000000000000000000000000000000000000000000000000000000000000000000000000000000000000000000000000002d646e9a",
                    "logDecoded": true,
                    "operation": "EVENT",
                    "revert": false,
                    "status": true,
                    "topics": [
                        "0xb2e76ae99761dc136e598d4a629bb347eccb9532a5f8bbd72e18467c3c34cc98",
                        "0x00000000000000000000000034e15635a4de3d82da31a4baeb7b9d465017dc63"
                    ]
                },
                "nodeType": 1
            },
            "2": {
                "event": {
                    "contract": "0x2260fac5e5542a773aa44fbcfedf7c193bc2c599",
                    "decodedLog": {
                        "name": "Transfer",
                        "params": [
                            {
                                "name": "from",
                                "type": "address",
                                "value": "0x34e15635a4de3d82da31a4baeb7b9d465017dc63"
                            },
                            {
                                "name": "to",
                                "type": "address",
                                "value": "0xd51a44d3fae010294c616388b506acda1bfaae46"
                            },
                            {
                                "decimalAvailable": true,
                                "name": "value",
                                "type": "uint256",
                                "value": "1,933,042"
                            }
                        ],
                        "signature": "Transfer(address,address,uint256)"
                    },
                    "id": 2,
                    "logData": "0x00000000000000000000000000000000000000000000000000000000001d7ef2",
                    "logDecoded": true,
                    "operation": "EVENT",
                    "revert": false,
                    "status": true,
                    "topics": [
                        "0xddf252ad1be2c89b69c2b068fc378daa952ba7f163c4a11628f55a4df523b3ef",
                        "0x00000000000000000000000034e15635a4de3d82da31a4baeb7b9d465017dc63",
                        "0x000000000000000000000000d51a44d3fae010294c616388b506acda1bfaae46"
                    ]
                },
                "nodeType": 1
            },
            "3": {
                "invocation": {
                    "address": "0x8f68f4810cce3194b6cb6f3d50fa58c2c9bdd1d5",
                    "callData": "0x00000000000000000000000000000000000000000000000000000000001a0e6d00000000000000000000000000000000000000000000000000000abd8940e805000000000000000000000000000000000000000000e8cb52dfac9e8263a06000000000000000000000000000000000000000000000f1b63583052227d60936f1000000000000000000000000000000000000000000ee63c9a8012df98c183e84000000000000000000000000000000000000000002c8d650bb26662e30029d600000000000000000000000000000000000000000000000000000000000000000",
                    "decodedMethod": {
                        "callParams": [
                            {
                                "name": "ANN",
                                "type": "uint256",
                                "value": "1,707,629"
                            },
                            {
                                "name": "gamma",
                                "type": "uint256",
                                "value": "11,809,167,828,997"
                            },
                            {
                                "name": "x",
                                "type": "uint256[3]",
                                "value": [
                                    "281,430,959,297,062,000,000,000,000",
                                    "292,211,580,345,433,561,481,426,673",
                                    "288,195,579,251,652,477,245,210,244"
                                ]
                            },
                            {
                                "name": "D",
                                "type": "uint256",
                                "value": "861,767,259,218,054,455,998,192,992"
                            },
                            {
                                "name": "i",
                                "type": "uint256",
                                "value": "0"
                            }
                        ],
                        "constructorArguments": "",
                        "name": "newton_y",
                        "returnParams": [
                            {
                                "name": "",
                                "type": "uint256",
                                "value": "281,430,196,559,738,295,251,078,929"
                            }
                        ],
                        "signature": "newton_y(uint256,uint256,uint256[3],uint256,uint256)"
                    },
                    "errorInfo": "",
                    "fromAddress": "0xd51a44d3fae010294c616388b506acda1bfaae46",
                    "gasUsed": 33511,
                    "id": 3,
                    "methodDecoded": true,
                    "operation": "STATICCALL",
                    "output": "0x000000000000000000000000000000000000000000e8cb2986914bc161ef8f11",
                    "revert": false,
                    "revertMessage": "",
                    "selector": "0x36bc8855",
                    "status": true,
                    "value": "0"
                },
                "nodeType": 0
            },
            "4": {
                "invocation": {
                    "address": "0x8f68f4810cce3194b6cb6f3d50fa58c2c9bdd1d5",
                    "callData": "0x000000000000000000000000000000000000000000e8cb2986914bc161ef8f11000000000000000000000000000000000000000000f1b63583052227d60936f1000000000000000000000000000000000000000000ee63c9a8012df98c183e840000000000000000000000000000000000000000000000000001c6bf52634000",
                    "decodedMethod": {
                        "callParams": [
                            {
                                "name": "x",
                                "type": "uint256[3]",
                                "value": [
                                    "281,430,196,559,738,295,251,078,929",
                                    "292,211,580,345,433,561,481,426,673",
                                    "288,195,579,251,652,477,245,210,244"
                                ]
                            },
                            {
                                "name": "fee_gamma",
                                "type": "uint256",
                                "value": "500,000,000,000,000"
                            }
                        ],
                        "constructorArguments": "",
                        "name": "reduction_coefficient",
                        "returnParams": [
                            {
                                "name": "",
                                "type": "uint256",
                                "value": "580,814,551,556,864,702"
                            }
                        ],
                        "signature": "reduction_coefficient(uint256[3],uint256)"
                    },
                    "errorInfo": "",
                    "fromAddress": "0xd51a44d3fae010294c616388b506acda1bfaae46",
                    "gasUsed": 1818,
                    "id": 4,
                    "methodDecoded": true,
                    "operation": "STATICCALL",
                    "output": "0x000000000000000000000000000000000000000000000000080f77c1e1ecbabe",
                    "revert": false,
                    "revertMessage": "",
                    "selector": "0xfa18042d",
                    "status": true,
                    "value": "0"
                },
                "nodeType": 0
            },
            "5": {
                "invocation": {
                    "address": "0xdac17f958d2ee523a2206206994597c13d831ec7",
                    "callData": "0x00000000000000000000000034e15635a4de3d82da31a4baeb7b9d465017dc63000000000000000000000000000000000000000000000000000000002d646e9a",
                    "decodedMethod": {
                        "callParams": [
                            {
                                "name": "_to",
                                "type": "address",
                                "value": "0x34e15635a4de3d82da31a4baeb7b9d465017dc63"
                            },
                            {
                                "decimalAvailable": true,
                                "name": "_value",
                                "type": "uint256",
                                "value": "761,556,634"
                            }
                        ],
                        "constructorArguments": "",
                        "name": "transfer",
                        "returnParams": [],
                        "signature": "transfer(address,uint256)"
                    },
                    "errorInfo": "",
                    "fromAddress": "0xd51a44d3fae010294c616388b506acda1bfaae46",
                    "gasUsed": 24501,
                    "id": 5,
                    "methodDecoded": true,
                    "operation": "CALL",
                    "output": "",
                    "revert": false,
                    "revertMessage": "",
                    "selector": "0xa9059cbb",
                    "status": true,
                    "value": "0"
                },
                "nodeType": 0
            },
            "6": {
                "event": {
                    "contract": "0xdac17f958d2ee523a2206206994597c13d831ec7",
                    "decodedLog": {
                        "name": "Transfer",
                        "params": [
                            {
                                "name": "from",
                                "type": "address",
                                "value": "0xd51a44d3fae010294c616388b506acda1bfaae46"
                            },
                            {
                                "name": "to",
                                "type": "address",
                                "value": "0x34e15635a4de3d82da31a4baeb7b9d465017dc63"
                            },
                            {
                                "decimalAvailable": true,
                                "name": "value",
                                "type": "uint256",
                                "value": "761,556,634"
                            }
                        ],
                        "signature": "Transfer(address,address,uint256)"
                    },
                    "id": 6,
                    "logData": "0x000000000000000000000000000000000000000000000000000000002d646e9a",
                    "logDecoded": true,
                    "operation": "EVENT",
                    "revert": false,
                    "status": true,
                    "topics": [
                        "0xddf252ad1be2c89b69c2b068fc378daa952ba7f163c4a11628f55a4df523b3ef",
                        "0x000000000000000000000000d51a44d3fae010294c616388b506acda1bfaae46",
                        "0x00000000000000000000000034e15635a4de3d82da31a4baeb7b9d465017dc63"
                    ]
                },
                "nodeType": 1
            },
            "7": {
                "invocation": {
                    "address": "0x8f68f4810cce3194b6cb6f3d50fa58c2c9bdd1d5",
                    "callData": "0x0000000000000000000000000000000000000000000000000f794697ac8f800000000000000000000000000000000000000000000000000000000002540be400",
                    "decodedMethod": {
                        "callParams": [
                            {
                                "name": "power",
                                "type": "uint256",
                                "value": "1,115,000,000,000,000,000"
                            },
                            {
                                "name": "precision",
                                "type": "uint256",
                                "value": "10,000,000,000"
                            }
                        ],
                        "constructorArguments": "",
                        "name": "halfpow",
                        "returnParams": [
                            {
                                "name": "",
                                "type": "uint256",
                                "value": "461,691,158,795,433,348"
                            }
                        ],
                        "signature": "halfpow(uint256,uint256)"
                    },
                    "errorInfo": "",
                    "fromAddress": "0xd51a44d3fae010294c616388b506acda1bfaae46",
                    "gasUsed": 13214,
                    "id": 7,
                    "methodDecoded": true,
                    "operation": "STATICCALL",
                    "output": "0x000000000000000000000000000000000000000000000000066841a9abf0b584",
                    "revert": false,
                    "revertMessage": "",
                    "selector": "0x571bae3f",
                    "status": true,
                    "value": "0"
                },
                "nodeType": 0
            },
            "8": {
                "invocation": {
                    "address": "0x8f68f4810cce3194b6cb6f3d50fa58c2c9bdd1d5",
                    "callData": "0x00000000000000000000000000000000000000000000000000000000001a0e6d00000000000000000000000000000000000000000000000000000abd8940e805000000000000000000000000000000000000000000e8cb2996f3f2c94b74c000000000000000000000000000000000000000000000f1b63583052227d60936f1000000000000000000000000000000000000000000ee63c9a8012df98c183e84",
                    "decodedMethod": {
                        "callParams": [
                            {
                                "name": "ANN",
                                "type": "uint256",
                                "value": "1,707,629"
                            },
                            {
                                "name": "gamma",
                                "type": "uint256",
                                "value": "11,809,167,828,997"
                            },
                            {
                                "name": "x_unsorted",
                                "type": "uint256[3]",
                                "value": [
                                    "281,430,197,740,428,000,000,000,000",
                                    "292,211,580,345,433,561,481,426,673",
                                    "288,195,579,251,652,477,245,210,244"
                                ]
                            }
                        ],
                        "constructorArguments": "",
                        "name": "newton_D",
                        "returnParams": [
                            {
                                "name": "",
                                "type": "uint256",
                                "value": "861,767,260,419,616,961,906,508,300"
                            }
                        ],
                        "signature": "newton_D(uint256,uint256,uint256[3])"
                    },
                    "errorInfo": "",
                    "fromAddress": "0xd51a44d3fae010294c616388b506acda1bfaae46",
                    "gasUsed": 46470,
                    "id": 8,
                    "methodDecoded": true,
                    "operation": "STATICCALL",
                    "output": "0x000000000000000000000000000000000000000002c8d650cbd334e9d41a820c",
                    "revert": false,
                    "revertMessage": "",
                    "selector": "0xc7fab708",
                    "status": true,
                    "value": "0"
                },
                "nodeType": 0
            },
            "9": {
                "invocation": {
                    "address": "0xc4ad29ba4b3c580e6d59105fff484999997675ff",
                    "callData": "0x",
                    "decodedMethod": {
                        "callParams": [],
                        "constructorArguments": "",
                        "name": "totalSupply",
                        "returnParams": [
                            {
                                "name": "",
                                "type": "uint256",
                                "value": "571,726,974,423,483,876,365,780"
                            }
                        ],
                        "signature": "totalSupply()"
                    },
                    "errorInfo": "",
                    "fromAddress": "0xd51a44d3fae010294c616388b506acda1bfaae46",
                    "gasUsed": 2598,
                    "id": 9,
                    "methodDecoded": true,
                    "operation": "STATICCALL",
                    "output": "0x00000000000000000000000000000000000000000000791161a292d335b7d5d4",
                    "revert": false,
                    "revertMessage": "",
                    "selector": "0x18160ddd",
                    "status": true,
                    "value": "0"
                },
                "nodeType": 0
            }
        },
        "gasFlame": [
            {
                "children": [
                    {
                        "children": [
                            {
                                "children": [],
                                "depth": 0,
                                "name": "Initial Gas",
                                "value": 21812
                            },
                            {
                                "children": [
                                    {
                                        "children": [],
                                        "depth": 1,
                                        "name": "transferFrom",
                                        "value": 21370
                                    },
                                    {
                                        "children": [],
                                        "depth": 1,
                                        "name": "newton_y",
                                        "value": 33511
                                    },
                                    {
                                        "children": [],
                                        "depth": 1,
                                        "name": "reduction_coefficient",
                                        "value": 1818
                                    },
                                    {
                                        "children": [],
                                        "depth": 1,
                                        "name": "transfer",
                                        "value": 24501
                                    },
                                    {
                                        "children": [],
                                        "depth": 1,
                                        "name": "halfpow",
                                        "value": 13214
                                    },
                                    {
                                        "children": [],
                                        "depth": 1,
                                        "name": "newton_D",
                                        "value": 46470
                                    },
                                    {
                                        "children": [],
                                        "depth": 1,
                                        "name": "totalSupply",
                                        "value": 2598
                                    },
                                    {
                                        "children": [],
                                        "depth": 1,
                                        "name": "geometric_mean",
                                        "value": 25206
                                    },
                                    {
                                        "children": [],
                                        "depth": 1,
                                        "name": "sqrt_int",
                                        "value": 3473
                                    },
                                    {
                                        "children": [],
                                        "depth": 1,
                                        "name": "newton_D",
                                        "value": 46370
                                    },
                                    {
                                        "children": [],
                                        "depth": 1,
                                        "name": "geometric_mean",
                                        "value": 25206
                                    }
                                ],
                                "depth": 0,
                                "name": "Executed Gas",
                                "value": 364223
                            }
                        ],
                        "depth": -1,
                        "name": "Actual Gas Used",
                        "value": 356535
                    },
                    {
                        "children": [],
                        "depth": -1,
                        "name": "Refunded Gas",
                        "value": 29500
                    }
                ],
                "depth": -2,
                "name": "Total Gas",
                "value": 386035
            }
        ],
        "isConfirmed": true,
        "mainTrace": [
            {
                "children": [
                    {
                        "children": [
                            {
                                "children": [
                                    {
                                        "children": [],
                                        "depth": 2,
                                        "id": 2,
                                        "order": 2
                                    }
                                ],
                                "depth": 1,
                                "id": 1,
                                "order": 1
                            },
                            {
                                "children": [],
                                "depth": 1,
                                "id": 3,
                                "order": 3
                            },
                            {
                                "children": [],
                                "depth": 1,
                                "id": 4,
                                "order": 4
                            },
                            {
                                "children": [
                                    {
                                        "children": [],
                                        "depth": 2,
                                        "id": 6,
                                        "order": 6
                                    }
                                ],
                                "depth": 1,
                                "id": 5,
                                "order": 5
                            },
                            {
                                "children": [],
                                "depth": 1,
                                "id": 7,
                                "order": 7
                            },
                            {
                                "children": [],
                                "depth": 1,
                                "id": 8,
                                "order": 8
                            },
                            {
                                "children": [],
                                "depth": 1,
                                "id": 9,
                                "order": 9
                            },
                            {
                                "children": [],
                                "depth": 1,
                                "id": 10,
                                "order": 10
                            },
                            {
                                "children": [],
                                "depth": 1,
                                "id": 11,
                                "order": 11
                            },
                            {
                                "children": [],
                                "depth": 1,
                                "id": 12,
                                "order": 12
                            },
                            {
                                "children": [],
                                "depth": 1,
                                "id": 13,
                                "order": 13
                            },
                            {
                                "children": [],
                                "depth": 1,
                                "id": 14,
                                "order": 14
                            }
                        ],
                        "depth": 0,
                        "id": 0,
                        "order": 0
                    }
                ],
                "depth": -1,
                "id": -1,
                "order": -1
            }
        ],
        "mainTraceNodeCount": 15,
        "parentIdMap": {
            "0": -1,
            "1": 0,
            "10": 0,
            "11": 0,
            "12": 0,
            "13": 0,
            "14": 0,
            "2": 1,
            "3": 0,
            "4": 0,
            "5": 0,
            "6": 5,
            "7": 0,
            "8": 0,
            "9": 0
        },
        "tidyTrace": [
            {
                "children": [
                    {
                        "children": [
                            {
                                "children": [
                                    {
                                        "children": [],
                                        "depth": 2,
                                        "id": 2,
                                        "order": 2
                                    }
                                ],
                                "depth": 1,
                                "id": 1,
                                "order": 1
                            },
                            {
                                "children": [
                                    {
                                        "children": [],
                                        "depth": 2,
                                        "id": 6,
                                        "order": 6
                                    }
                                ],
                                "depth": 1,
                                "id": 5,
                                "order": 5
                            },
                            {
                                "children": [],
                                "depth": 1,
                                "id": 14,
                                "order": 14
                            }
                        ],
                        "depth": 0,
                        "id": 0,
                        "order": 0
                    }
                ],
                "depth": -1,
                "id": -1,
                "order": -1
            }
        ],
        "tidyTraceNodeCount": 6
    },
    "state_change": {
        "stateChanges": [
            {
                "address": "0x2260fac5e5542a773aa44fbcfedf7c193bc2c599",
                "erc": "ERC-20",
                "slots": [
                    {
                        "current": "0x0000000000000000000000000000000000000000000000000000000000000000",
                        "key": "0x9d34faac3d772c590922e0ba4e5f06b241ce674f8e5482a67f11e93f0fa7ee7b",
                        "prev": "0x00000000000000000000000000000000000000000000000000000000001d7ef2"
                    },
                    {
                        "current": "0x000000000000000000000000000000000000000000000000000000a6f9513138",
                        "key": "0x041fb92791af656a5970d946eab0726fa7cc29ad5366ae52491c17c2fe5efcb1",
                        "prev": "0x000000000000000000000000000000000000000000000000000000a6f933b246"
                    },
                    {
                        "current": "0xffffffffffffffffffffffffffffffffffffffffffffffffffffffffffe2810d",
                        "key": "0x9207a9a29e92b41c0babdd1c4e7cf4e13b2dc6232becc1207a55b0538b2d5b6d",
                        "prev": "0xffffffffffffffffffffffffffffffffffffffffffffffffffffffffffffffff"
                    }
                ],
                "storageVariables": [
                    {
                        "name": "balances",
                        "type": "mapping(address => uint256)",
                        "value": {
                            "pairs": [
                                {
                                    "key": "0x34e15635a4de3d82da31a4baeb7b9d465017dc63",
                                    "value": {
                                        "current": "0",
                                        "prev": "1933042",
                                        "typeTag": 1
                                    }
                                },
                                {
                                    "key": "0xd51a44d3fae010294c616388b506acda1bfaae46",
                                    "value": {
                                        "current": "717147418936",
                                        "prev": "717145485894",
                                        "typeTag": 1
                                    }
                                }
                            ],
                            "typeTag": 4
                        }
                    },
                    {
                        "name": "allowed",
                        "type": "mapping(address => mapping(address => uint256))",
                        "value": {
                            "pairs": [
                                {
                                    "key": "0x34e15635a4de3d82da31a4baeb7b9d465017dc63",
                                    "value": {
                                        "pairs": [
                                            {
                                                "key": "0xd51a44d3fae010294c616388b506acda1bfaae46",
                                                "value": {
                                                    "current": "115792089237316195423570985008687907853269984665640564039457584007913127706893",
                                                    "prev": "115792089237316195423570985008687907853269984665640564039457584007913129639935",
                                                    "typeTag": 1
                                                }
                                            }
                                        ],
                                        "typeTag": 4
                                    }
                                }
                            ],
                            "typeTag": 4
                        }
                    }
                ]
            },
            {
                "address": "0xd51a44d3fae010294c616388b506acda1bfaae46",
                "erc": "",
                "slots": [
                    {
                        "current": "0x00000000000000a081663d0f39fede5f0000000000000857b463d925c08a4a15",
                        "key": "0x0000000000000000000000000000000000000000000000000000000000000002",
                        "prev": "0x00000000000000a081663d0f39fede5f0000000000000859c61923e9f834948b"
                    },
                    {
                        "current": "0x000000000000000000000000000000000000000002c8d650cbd334e9d41a820c",
                        "key": "0x0000000000000000000000000000000000000000000000000000000000000017",
                        "prev": "0x000000000000000000000000000000000000000002c8d650bb26662e30029d60"
                    },
                    {
                        "current": "0x0000000000000000000000000000000000000000000000000000fff592f7238c",
                        "key": "0xd833147d7dc355ba459fc788f669e58cfaf9dc25ddcd0702e87d69c7b5124289",
                        "prev": "0x0000000000000000000000000000000000000000000000000000fff5c05b9226"
                    },
                    {
                        "current": "0x000000000000000000000000000000000000000000000000000000006262ea86",
                        "key": "0x0000000000000000000000000000000000000000000000000000000000000003",
                        "prev": "0x000000000000000000000000000000000000000000000000000000006262e7e9"
                    },
                    {
                        "current": "0x0000000000000000000000000000000000000000000000000000000000000000",
                        "key": "0x000000000000000000000000000000000000000000000000000000000000001d",
                        "prev": "0x0000000000000000000000000000000000000000000000000000000000000001"
                    },
                    {
                        "current": "0x0000000000000000000000000000000000000000000000000e051f227d9abadf",
                        "key": "0x000000000000000000000000000000000000000000000000000000000000001c",
                        "prev": "0x0000000000000000000000000000000000000000000000000e051f2229a55d70"
                    },
                    {
                        "current": "0x000000000000000000000000000000000000000000000000000000a6f9513138",
                        "key": "0xd833147d7dc355ba459fc788f669e58cfaf9dc25ddcd0702e87d69c7b512428a",
                        "prev": "0x000000000000000000000000000000000000000000000000000000a6f933b246"
                    },
                    {
                        "current": "0x00000000000000a0457f5f831f2bf0090000000000000859c560cc0bc5b090a5",
                        "key": "0x0000000000000000000000000000000000000000000000000000000000000001",
                        "prev": "0x000000000000009fffa7af841da385a50000000000000859c489dcaf1abfa0f7"
                    },
                    {
                        "current": "0x0000000000000000000000000000000000000000000000000e2986b1a2234c70",
                        "key": "0x000000000000000000000000000000000000000000000000000000000000001a",
                        "prev": "0x0000000000000000000000000000000000000000000000000e2986b14d53ed0f"
                    }
                ],
                "storageVariables": []
            },
            {
                "address": "0xdac17f958d2ee523a2206206994597c13d831ec7",
                "erc": "ERC-20",
                "slots": [
                    {
                        "current": "0x0000000000000000000000000000000000000000000000000000fff592f7238c",
                        "key": "0xeb449bc003e7395128833de1fb3384246962a9d4d29c66083486accd9139c704",
                        "prev": "0x0000000000000000000000000000000000000000000000000000fff5c05b9226"
                    },
                    {
                        "current": "0x0000000000000000000000000000000000000000000000000000000075722e64",
                        "key": "0xfbe0c6c9fa90df63180df9138c98f3f06d4da4bb9fb970fb175ff5e740860e6e",
                        "prev": "0x00000000000000000000000000000000000000000000000000000000480dbfca"
                    }
                ],
                "storageVariables": [
                    {
                        "name": "balances",
                        "type": "mapping(address => uint256)",
                        "value": {
                            "pairs": [
                                {
                                    "key": "0x34e15635a4de3d82da31a4baeb7b9d465017dc63",
                                    "value": {
                                        "current": "1970417252",
                                        "prev": "1208860618",
                                        "typeTag": 1
                                    }
                                },
                                {
                                    "key": "0xd51a44d3fae010294c616388b506acda1bfaae46",
                                    "value": {
                                        "current": "281430197740428",
                                        "prev": "281430959297062",
                                        "typeTag": 1
                                    }
                                }
                            ],
                            "typeTag": 4
                        }
                    }
                ]
            }
        ]
    }
}