{
    "balance_change": {
        "balanceChanges": [
            {
                "account": "0x59a5208b32e627891c389ebafc644145224006e8",
                "assets": [
                    {
                        "address": "0x0d8775f648430679a709e98d2b0cb6250d2887ef",
                        "amount": "269.50152411",
                        "iconUrl": "https://assets.blocksec.com/icon/c5e7cd8dfdc41ede0b39a767b7a8b9ac3f98749148ad9c0ffe838d1ca4891ff1.png",
                        "isERC1155": false,
                        "isERC721": false,
                        "sign": false,
                        "value": "148.7559242"
                    }
                ]
            },
            {
                "account": "0x12af0245cb3fd0f98e1053ed91cbd4187911c336",
                "assets": [
                    {
                        "address": "0x0d8775f648430679a709e98d2b0cb6250d2887ef",
                        "amount": "269.50152411",
                        "iconUrl": "https://assets.blocksec.com/icon/c5e7cd8dfdc41ede0b39a767b7a8b9ac3f98749148ad9c0ffe838d1ca4891ff1.png",
                        "isERC1155": false,
                        "isERC721": false,
                        "sign": true,
                        "value": "148.7559242"
                    }
                ]
            }
        ]
    },
    "profile": {
        "basic_info": {
            "baseFee": "",
            "blockNumber": 12907276,
            "callData": "0xa9059cbb00000000000000000000000012af0245cb3fd0f98e1053ed91cbd4187911c33600000000000000000000000000000000000000000000000e9c15c04c3aec0c00",
            "debugEnable": true,
            "errorInfo": "",
            "eventCount": 1,
            "feeRecipient": "0x5a0b54d5dc17e0aadc383d2db43b0a0d3e029c4c",
            "formatValue": "0",
            "gasLimit": 82963,
            "gasPrice": "18",
            "gasUsed": 51852,
            "intTxnCount": 0,
            "internalRevert": false,
            "internalRevertMessage": "",
            "isContractCreation": false,
            "isFlashloan": false,
            "maxFee": "",
            "nonce": 1679367,
            "overwritedBlockNumber": -1,
            "priorityFee": "",
            "receiver": "0x0d8775f648430679a709e98d2b0cb6250d2887ef",
            "revertMessage": "",
            "sender": "0x59a5208b32e627891c389ebafc644145224006e8",
            "simulationEnable": true,
            "sourceTxnHash": "0xe854e956555960964f595baa7b1ec2dc3fd4e43ab9dc84be327d918baa356b82",
            "status": true,
            "timestamp": "2021-07-27T09:12:32Z",
            "transactionFee": "0.000933336",
            "txnHash": "0xe854e956555960964f595baa7b1ec2dc3fd4e43ab9dc84be327d918baa356b82",
            "txnIndex": 289,
            "type": 0,
            "value": "0"
        },
        "fund_flow": [
            {
                "amount": "269.50152411",
                "from": "0x59a5208b32e627891c389ebafc644145224006e8",
                "id": 1,
                "isERC1155": false,
                "isERC721": false,
                "isReverted": false,
                "order": 1,
                "to": "0x12af0245cb3fd0f98e1053ed91cbd4187911c336",
                "token": "0x0d8775f648430679a709e98d2b0cb6250d2887ef"
            }
        ],
        "token_infos": [
            {
                "address": "0x0d8775f648430679a709e98d2b0cb6250d2887ef",
                "decimals": 18
            },
            {
                "address": "0xc02aaa39b223fe8d0a0e5c4f27ead9083c756cc2",
                "decimals": 18
            },
            {
                "address": "0xeeeeeeeeeeeeeeeeeeeeeeeeeeeeeeeeeeeeeeee",
                "decimals": 18
            }
        ]
    },
    "address_label": {
        "labels": [
            {
                "address": "0xeeeeeeeeeeeeeeeeeeeeeeeeeeeeeeeeeeeeeeee",
                "label": "Ether"
            },
            {
                "address": "0x59a5208b32e627891c389ebafc644145224006e8",
                "label": "HitBTC 2"
            },
            {
                "address": "0x0d8775f648430679a709e98d2b0cb6250d2887ef",
                "label": "Basic Attention: BAT Token"
            },
            {
                "address": "0x0000000000000000000000000000000000000001",
                "label": "Precompiled"
            },
            {
                "address": "0x0000000000000000000000000000000000000002",
                "label": "Precompiled"
            },
            {
                "address": "0x0000000000000000000000000000000000000003",
                "label": "Precompiled"
            },
            {
                "address": "0x0000000000000000000000000000000000000004",
                "label": "Precompiled"
            }
        ]
    },
    "trace": {
        "accountLabels": null,
        "dataMap": {
            "-1": {
                "invocation": {
                    "address": "0x59a5208b32e627891c389ebafc644145224006e8",
                    "callData": "",
                    "decodedMethod": null,
                    "errorInfo": "",
                    "fromAddress": "",
                    "gasUsed": 0,
                    "id": -1,
                    "methodDecoded": false,
                    "operation": "",
                    "output": "",
                    "revert": false,
                    "revertMessage": "",
                    "selector": "",
                    "status": false,
                    "value": ""
                },
                "nodeType": 0
            },
            "0": {
                "invocation": {
                    "address": "0x0d8775f648430679a709e98d2b0cb6250d2887ef",
                    "callData": "0x00000000000000000000000012af0245cb3fd0f98e1053ed91cbd4187911c33600000000000000000000000000000000000000000000000e9c15c04c3aec0c00",
                    "decodedMethod": {
                        "callParams": [
                            {
                                "name": "_to",
                                "type": "address",
                                "value": "0x12af0245cb3fd0f98e1053ed91cbd4187911c336"
                            },
                            {
                                "decimalAvailable": true,
                                "name": "_value",
                                "type": "uint256",
                                "value": "269,501,524,110,000,000,000"
                            }
                        ],
                        "constructorArguments": "",
                        "name": "transfer",
                        "returnParams": [
                            {
                                "name": "success",
                                "type": "bool",
                                "value": true
                            }
                        ],
                        "signature": "transfer(address,uint256)"
                    },
                    "errorInfo": "",
                    "fromAddress": "0x59a5208b32e627891c389ebafc644145224006e8",
                    "gasUsed": 51852,
                    "id": 0,
                    "methodDecoded": true,
                    "operation": "CALL",
                    "output": "0x0000000000000000000000000000000000000000000000000000000000000001",
                    "revert": false,
                    "revertMessage": "",
                    "selector": "0xa9059cbb",
                    "status": true,
                    "value": "0"
                },
                "nodeType": 0
            },
            "1": {
                "event": {
                    "contract": "0x0d8775f648430679a709e98d2b0cb6250d2887ef",
                    "decodedLog": {
                        "name": "Transfer",
                        "params": [
                            {
                                "name": "_from",
                                "type": "address",
                                "value": "0x59a5208b32e627891c389ebafc644145224006e8"
                            },
                            {
                                "name": "_to",
                                "type": "address",
                                "value": "0x12af0245cb3fd0f98e1053ed91cbd4187911c336"
                            },
                            {
                                "decimalAvailable": true,
                                "name": "_value",
                                "type": "uint256",
                                "value": "269,501,524,110,000,000,000"
                            }
                        ],
                        "signature": "Transfer(address,address,uint256)"
                    },
                    "id": 1,
                    "logData": "0x00000000000000000000000000000000000000000000000e9c15c04c3aec0c00",
                    "logDecoded": true,
                    "operation": "EVENT",
                    "revert": false,
                    "status": true,
                    "topics": [
                        "0xddf252ad1be2c89b69c2b068fc378daa952ba7f163c4a11628f55a4df523b3ef",
                        "0x00000000000000000000000059a5208b32e627891c389ebafc644145224006e8",
                        "0x00000000000000000000000012af0245cb3fd0f98e1053ed91cbd4187911c336"
                    ]
                },
                "nodeType": 1
            }
        },
        "gasFlame": [
            {
                "children": [
                    {
                        "children": [
                            {
                                "children": [],
                                "depth": 0,
                                "name": "Initial Gas",
                                "value": 21656
                            },
                            {
                                "children": [],
                                "depth": 0,
                                "name": "Executed Gas",
                                "value": 30196
                            }
                        ],
                        "depth": -1,
                        "name": "Actual Gas Used",
                        "value": 51852
                    },
                    {
                        "children": [],
                        "depth": -1,
                        "name": "Refunded Gas",
                        "value": 0
                    }
                ],
                "depth": -2,
                "name": "Total Gas",
                "value": 51852
            }
        ],
        "isConfirmed": true,
        "mainTrace": [
            {
                "children": [
                    {
                        "children": [
                            {
                                "children": [],
                                "depth": 1,
                                "id": 1,
                                "order": 1
                            }
                        ],
                        "depth": 0,
                        "id": 0,
                        "order": 0
                    }
                ],
                "depth": -1,
                "id": -1,
                "order": -1
            }
        ],
        "mainTraceNodeCount": 2,
        "parentIdMap": {
            "0": -1,
            "1": 0
        },
        "tidyTrace": [
            {
                "children": [
                    {
                        "children": [
                            {
                                "children": [],
                                "depth": 1,
                                "id": 1,
                                "order": 1
                            }
                        ],
                        "depth": 0,
                        "id": 0,
                        "order": 0
                    }
                ],
                "depth": -1,
                "id": -1,
                "order": -1
            }
        ],
        "tidyTraceNodeCount": 2
    },
    "state_change": {
        "stateChanges": [
            {
                "address": "0x0d8775f648430679a709e98d2b0cb6250d2887ef",
                "erc": "ERC-20",
                "slots": [
                    {
                        "current": "0x0000000000000000000000000000000000000000000001b504d416f408b0735c",
                        "key": "0x2454d1bafa996bd64a29c8b5bf292cf823fb79d55818e0580394d0f3fedf7abb",
                        "prev": "0x0000000000000000000000000000000000000000000001c3a0e9d740439c7f5c"
                    },
                    {
                        "current": "0x00000000000000000000000000000000000000000000000e9c15c04c3aec0c00",
                        "key": "0xf76287c3d5e8e38c3c5ed3a4f52377f64035beb9aa053cb08350c99fde644d4f",
                        "prev": "0x0000000000000000000000000000000000000000000000000000000000000000"
                    }
                ],
                "storageVariables": []
            }
        ]
    }
}