{
    "balance_change": {
        "balanceChanges": [
            {
                "account": "0x639ebd0728a9baef842e3b243ee7f763c84cd051",
                "assets": [
                    {
                        "address": "0xff75ced57419bcaebe5f05254983b013b0646ef5",
                        "amount": "9,395.430295276526515709",
                        "iconUrl": "",
                        "isERC1155": false,
                        "isERC721": false,
                        "sign": false,
                        "value": "846.9151234"
                    }
                ]
            },
            {
                "account": "0x7ee680a47953aff929acd71c3ed16e9daa9bd312",
                "assets": [
                    {
                        "address": "0xff75ced57419bcaebe5f05254983b013b0646ef5",
                        "amount": "9,395.430295276526515709",
                        "iconUrl": "",
                        "isERC1155": false,
                        "isERC721": false,
                        "sign": true,
                        "value": "846.9151234"
                    }
                ]
            }
        ]
    },
    "profile": {
        "basic_info": {
            "baseFee": "",
            "blockNumber": 12249289,
            "callData": "0xa694fc3a0000000000000000000000000000000000000000000001fd53c9ba6e4cd035fd",
            "debugEnable": true,
            "errorInfo": "",
            "eventCount": 3,
            "feeRecipient": "0xb3b7874f13387d44a3398d298b075b7a3505d8d4",
            "formatValue": "0",
            "gasLimit": 246864,
            "gasPrice": "121",
            "gasUsed": 149576,
            "intTxnCount": 6,
            "internalRevert": false,
            "internalRevertMessage": "",
            "isContractCreation": false,
            "isFlashloan": false,
            "maxFee": "",
            "nonce": 1574,
            "overwritedBlockNumber": -1,
            "priorityFee": "",
            "receiver": "0x7ee680a47953aff929acd71c3ed16e9daa9bd312",
            "revertMessage": "",
            "sender": "0x639ebd0728a9baef842e3b243ee7f763c84cd051",
            "simulationEnable": true,
            "sourceTxnHash": "0xe85a5cd60599ba7065b47b4bb164508a97a1d273ec255dfecc295e1b4b618dbb",
            "status": true,
            "timestamp": "2021-04-16T05:45:07Z",
            "transactionFee": "0.018098696",
            "txnHash": "0xe85a5cd60599ba7065b47b4bb164508a97a1d273ec255dfecc295e1b4b618dbb",
            "txnIndex": 141,
            "type": 0,
            "value": "0"
        },
        "fund_flow": [
            {
                "amount": "9,395.430295276526515709",
                "from": "0x639ebd0728a9baef842e3b243ee7f763c84cd051",
                "id": 1,
                "isERC1155": false,
                "isERC721": false,
                "isReverted": false,
                "order": 1,
                "to": "0x7ee680a47953aff929acd71c3ed16e9daa9bd312",
                "token": "0xff75ced57419bcaebe5f05254983b013b0646ef5"
            }
        ],
        "token_infos": [
            {
                "address": "0xc02aaa39b223fe8d0a0e5c4f27ead9083c756cc2",
                "decimals": 18
            },
            {
                "address": "0xff75ced57419bcaebe5f05254983b013b0646ef5",
                "decimals": 18
            },
            {
                "address": "0xeeeeeeeeeeeeeeeeeeeeeeeeeeeeeeeeeeeeeeee",
                "decimals": 18
            }
        ]
    },
    "address_label": {
        "labels": [
            {
                "address": "0x0c5778a97e5f143fefdaa251b6b7ac3404c21a85",
                "label": "CookToken"
            },
            {
                "address": "0xff75ced57419bcaebe5f05254983b013b0646ef5",
                "label": "Cook Protocol: COOK Token"
            },
            {
                "address": "0x7ee680a47953aff929acd71c3ed16e9daa9bd312",
                "label": "CookPool"
            },
            {
                "address": "0x0000000000000000000000000000000000000001",
                "label": "Precompiled"
            },
            {
                "address": "0x0000000000000000000000000000000000000002",
                "label": "Precompiled"
            },
            {
                "address": "0x0000000000000000000000000000000000000003",
                "label": "Precompiled"
            },
            {
                "address": "0x0000000000000000000000000000000000000004",
                "label": "Precompiled"
            },
            {
                "address": "0xeeeeeeeeeeeeeeeeeeeeeeeeeeeeeeeeeeeeeeee",
                "label": "Ether"
            }
        ]
    },
    "trace": {
        "accountLabels": null,
        "dataMap": {
            "-1": {
                "invocation": {
                    "address": "0x639ebd0728a9baef842e3b243ee7f763c84cd051",
                    "callData": "",
                    "decodedMethod": null,
                    "errorInfo": "",
                    "fromAddress": "",
                    "gasUsed": 0,
                    "id": -1,
                    "methodDecoded": false,
                    "operation": "",
                    "output": "",
                    "revert": false,
                    "revertMessage": "",
                    "selector": "",
                    "status": false,
                    "value": ""
                },
                "nodeType": 0
            },
            "0": {
                "invocation": {
                    "address": "0x7ee680a47953aff929acd71c3ed16e9daa9bd312",
                    "callData": "0x0000000000000000000000000000000000000000000001fd53c9ba6e4cd035fd",
                    "decodedMethod": {
                        "callParams": [
                            {
                                "name": "cookAmount",
                                "type": "uint256",
                                "value": "9,395,430,295,276,526,515,709"
                            }
                        ],
                        "constructorArguments": "",
                        "name": "stake",
                        "returnParams": [],
                        "signature": "stake(uint256)"
                    },
                    "errorInfo": "",
                    "fromAddress": "0x639ebd0728a9baef842e3b243ee7f763c84cd051",
                    "gasUsed": 149576,
                    "id": 0,
                    "methodDecoded": true,
                    "operation": "CALL",
                    "output": "",
                    "revert": false,
                    "revertMessage": "",
                    "selector": "0xa694fc3a",
                    "status": true,
                    "value": "0"
                },
                "nodeType": 0
            },
            "1": {
                "invocation": {
                    "address": "0xff75ced57419bcaebe5f05254983b013b0646ef5",
                    "callData": "0x0000000000000000000000007ee680a47953aff929acd71c3ed16e9daa9bd312",
                    "decodedMethod": {
                        "callParams": [
                            {
                                "name": "account",
                                "type": "address",
                                "value": "0x7ee680a47953aff929acd71c3ed16e9daa9bd312"
                            }
                        ],
                        "constructorArguments": "",
                        "name": "balanceOf",
                        "returnParams": [
                            {
                                "decimalAvailable": true,
                                "name": "",
                                "type": "uint256",
                                "value": "28,853,503,818,110,402,143,272,213"
                            }
                        ],
                        "signature": "balanceOf(address)"
                    },
                    "errorInfo": "",
                    "fromAddress": "0x7ee680a47953aff929acd71c3ed16e9daa9bd312",
                    "gasUsed": 9883,
                    "id": 1,
                    "methodDecoded": true,
                    "operation": "STATICCALL",
                    "output": "0x00000000000000000000000000000000000000000017ddf7937fec5dcf693d15",
                    "revert": false,
                    "revertMessage": "",
                    "selector": "0x70a08231",
                    "status": true,
                    "value": "0"
                },
                "nodeType": 0
            },
            "2": {
                "invocation": {
                    "address": "0x0c5778a97e5f143fefdaa251b6b7ac3404c21a85",
                    "callData": "0x0000000000000000000000007ee680a47953aff929acd71c3ed16e9daa9bd312",
                    "decodedMethod": {
                        "callParams": [
                            {
                                "name": "account",
                                "type": "address",
                                "value": "0x7ee680a47953aff929acd71c3ed16e9daa9bd312"
                            }
                        ],
                        "constructorArguments": "",
                        "name": "balanceOf",
                        "returnParams": [
                            {
                                "decimalAvailable": true,
                                "name": "",
                                "type": "uint256",
                                "value": "28,853,503,818,110,402,143,272,213"
                            }
                        ],
                        "signature": "balanceOf(address)"
                    },
                    "errorInfo": "",
                    "fromAddress": "0xff75ced57419bcaebe5f05254983b013b0646ef5",
                    "gasUsed": 2607,
                    "id": 2,
                    "methodDecoded": true,
                    "operation": "DELEGATECALL",
                    "output": "0x00000000000000000000000000000000000000000017ddf7937fec5dcf693d15",
                    "revert": false,
                    "revertMessage": "",
                    "selector": "0x70a08231",
                    "status": true,
                    "value": "0"
                },
                "nodeType": 0
            },
            "3": {
                "invocation": {
                    "address": "0xff75ced57419bcaebe5f05254983b013b0646ef5",
                    "callData": "0x000000000000000000000000639ebd0728a9baef842e3b243ee7f763c84cd0510000000000000000000000007ee680a47953aff929acd71c3ed16e9daa9bd3120000000000000000000000000000000000000000000001fd53c9ba6e4cd035fd",
                    "decodedMethod": {
                        "callParams": [
                            {
                                "name": "sender",
                                "type": "address",
                                "value": "0x639ebd0728a9baef842e3b243ee7f763c84cd051"
                            },
                            {
                                "name": "recipient",
                                "type": "address",
                                "value": "0x7ee680a47953aff929acd71c3ed16e9daa9bd312"
                            },
                            {
                                "decimalAvailable": true,
                                "name": "amount",
                                "type": "uint256",
                                "value": "9,395,430,295,276,526,515,709"
                            }
                        ],
                        "constructorArguments": "",
                        "name": "transferFrom",
                        "returnParams": [
                            {
                                "name": "",
                                "type": "bool",
                                "value": true
                            }
                        ],
                        "signature": "transferFrom(address,address,uint256)"
                    },
                    "errorInfo": "",
                    "fromAddress": "0x7ee680a47953aff929acd71c3ed16e9daa9bd312",
                    "gasUsed": 21721,
                    "id": 3,
                    "methodDecoded": true,
                    "operation": "CALL",
                    "output": "0x0000000000000000000000000000000000000000000000000000000000000001",
                    "revert": false,
                    "revertMessage": "",
                    "selector": "0x23b872dd",
                    "status": true,
                    "value": "0"
                },
                "nodeType": 0
            },
            "4": {
                "invocation": {
                    "address": "0x0c5778a97e5f143fefdaa251b6b7ac3404c21a85",
                    "callData": "0x000000000000000000000000639ebd0728a9baef842e3b243ee7f763c84cd0510000000000000000000000007ee680a47953aff929acd71c3ed16e9daa9bd3120000000000000000000000000000000000000000000001fd53c9ba6e4cd035fd",
                    "decodedMethod": {
                        "callParams": [
                            {
                                "name": "sender",
                                "type": "address",
                                "value": "0x639ebd0728a9baef842e3b243ee7f763c84cd051"
                            },
                            {
                                "name": "recipient",
                                "type": "address",
                                "value": "0x7ee680a47953aff929acd71c3ed16e9daa9bd312"
                            },
                            {
                                "decimalAvailable": true,
                                "name": "amount",
                                "type": "uint256",
                                "value": "9,395,430,295,276,526,515,709"
                            }
                        ],
                        "constructorArguments": "",
                        "name": "transferFrom",
                        "returnParams": [
                            {
                                "name": "",
                                "type": "bool",
                                "value": true
                            }
                        ],
                        "signature": "transferFrom(address,address,uint256)"
                    },
                    "errorInfo": "",
                    "fromAddress": "0xff75ced57419bcaebe5f05254983b013b0646ef5",
                    "gasUsed": 20936,
                    "id": 4,
                    "methodDecoded": true,
                    "operation": "DELEGATECALL",
                    "output": "0x0000000000000000000000000000000000000000000000000000000000000001",
                    "revert": false,
                    "revertMessage": "",
                    "selector": "0x23b872dd",
                    "status": true,
                    "value": "0"
                },
                "nodeType": 0
            },
            "5": {
                "event": {
                    "contract": "0xff75ced57419bcaebe5f05254983b013b0646ef5",
                    "decodedLog": {
                        "name": "Transfer",
                        "params": [
                            {
                                "name": "from",
                                "type": "address",
                                "value": "0x639ebd0728a9baef842e3b243ee7f763c84cd051"
                            },
                            {
                                "name": "to",
                                "type": "address",
                                "value": "0x7ee680a47953aff929acd71c3ed16e9daa9bd312"
                            },
                            {
                                "decimalAvailable": true,
                                "name": "value",
                                "type": "uint256",
                                "value": "9,395,430,295,276,526,515,709"
                            }
                        ],
                        "signature": "Transfer(address,address,uint256)"
                    },
                    "id": 5,
                    "logData": "0x0000000000000000000000000000000000000000000001fd53c9ba6e4cd035fd",
                    "logDecoded": true,
                    "operation": "EVENT",
                    "revert": false,
                    "status": true,
                    "topics": [
                        "0xddf252ad1be2c89b69c2b068fc378daa952ba7f163c4a11628f55a4df523b3ef",
                        "0x000000000000000000000000639ebd0728a9baef842e3b243ee7f763c84cd051",
                        "0x0000000000000000000000007ee680a47953aff929acd71c3ed16e9daa9bd312"
                    ]
                },
                "nodeType": 1
            },
            "6": {
                "event": {
                    "contract": "0xff75ced57419bcaebe5f05254983b013b0646ef5",
                    "decodedLog": {
                        "name": "Approval",
                        "params": [
                            {
                                "name": "owner",
                                "type": "address",
                                "value": "0x639ebd0728a9baef842e3b243ee7f763c84cd051"
                            },
                            {
                                "name": "spender",
                                "type": "address",
                                "value": "0x7ee680a47953aff929acd71c3ed16e9daa9bd312"
                            },
                            {
                                "decimalAvailable": true,
                                "name": "value",
                                "type": "uint256",
                                "value": "115,792,089,237,316,195,423,570,985,008,687,907,853,269,984,665,640,563,883,175,445,453,649,121,356,742"
                            }
                        ],
                        "signature": "Approval(address,address,uint256)"
                    },
                    "id": 6,
                    "logData": "0xffffffffffffffffffffffffffffffffffffffffffffdee7eda49b277a03abc6",
                    "logDecoded": true,
                    "operation": "EVENT",
                    "revert": false,
                    "status": true,
                    "topics": [
                        "0x8c5be1e5ebec7d5bd14f71427d1e84f3dd0314c0f7b2291e5b200ac8c7c3b925",
                        "0x000000000000000000000000639ebd0728a9baef842e3b243ee7f763c84cd051",
                        "0x0000000000000000000000007ee680a47953aff929acd71c3ed16e9daa9bd312"
                    ]
                },
                "nodeType": 1
            },
            "7": {
                "invocation": {
                    "address": "0xff75ced57419bcaebe5f05254983b013b0646ef5",
                    "callData": "0x0000000000000000000000007ee680a47953aff929acd71c3ed16e9daa9bd312",
                    "decodedMethod": {
                        "callParams": [
                            {
                                "name": "account",
                                "type": "address",
                                "value": "0x7ee680a47953aff929acd71c3ed16e9daa9bd312"
                            }
                        ],
                        "constructorArguments": "",
                        "name": "balanceOf",
                        "returnParams": [
                            {
                                "decimalAvailable": true,
                                "name": "",
                                "type": "uint256",
                                "value": "28,862,899,248,405,678,669,787,922"
                            }
                        ],
                        "signature": "balanceOf(address)"
                    },
                    "errorInfo": "",
                    "fromAddress": "0x7ee680a47953aff929acd71c3ed16e9daa9bd312",
                    "gasUsed": 1383,
                    "id": 7,
                    "methodDecoded": true,
                    "operation": "STATICCALL",
                    "output": "0x00000000000000000000000000000000000000000017dff4e749a6cc1c397312",
                    "revert": false,
                    "revertMessage": "",
                    "selector": "0x70a08231",
                    "status": true,
                    "value": "0"
                },
                "nodeType": 0
            },
            "8": {
                "invocation": {
                    "address": "0x0c5778a97e5f143fefdaa251b6b7ac3404c21a85",
                    "callData": "0x0000000000000000000000007ee680a47953aff929acd71c3ed16e9daa9bd312",
                    "decodedMethod": {
                        "callParams": [
                            {
                                "name": "account",
                                "type": "address",
                                "value": "0x7ee680a47953aff929acd71c3ed16e9daa9bd312"
                            }
                        ],
                        "constructorArguments": "",
                        "name": "balanceOf",
                        "returnParams": [
                            {
                                "decimalAvailable": true,
                                "name": "",
                                "type": "uint256",
                                "value": "28,862,899,248,405,678,669,787,922"
                            }
                        ],
                        "signature": "balanceOf(address)"
                    },
                    "errorInfo": "",
                    "fromAddress": "0xff75ced57419bcaebe5f05254983b013b0646ef5",
                    "gasUsed": 607,
                    "id": 8,
                    "methodDecoded": true,
                    "operation": "DELEGATECALL",
                    "output": "0x00000000000000000000000000000000000000000017dff4e749a6cc1c397312",
                    "revert": false,
                    "revertMessage": "",
                    "selector": "0x70a08231",
                    "status": true,
                    "value": "0"
                },
                "nodeType": 0
            },
            "9": {
                "event": {
                    "contract": "0x7ee680a47953aff929acd71c3ed16e9daa9bd312",
                    "decodedLog": {
                        "name": "Stake",
                        "params": [
                            {
                                "name": "account",
                                "type": "address",
                                "value": "0x639ebd0728a9baef842e3b243ee7f763c84cd051"
                            },
                            {
                                "name": "cookAmount",
                                "type": "uint256",
                                "value": "9,395,430,295,276,526,515,709"
                            }
                        ],
                        "signature": "Stake(address,uint256)"
                    },
                    "id": 9,
                    "logData": "0x0000000000000000000000000000000000000000000001fd53c9ba6e4cd035fd",
                    "logDecoded": true,
                    "operation": "EVENT",
                    "revert": false,
                    "status": true,
                    "topics": [
                        "0xebedb8b3c678666e7f36970bc8f57abf6d8fa2e828c0da91ea5b75bf68ed101a",
                        "0x000000000000000000000000639ebd0728a9baef842e3b243ee7f763c84cd051"
                    ]
                },
                "nodeType": 1
            }
        },
        "gasFlame": [
            {
                "children": [
                    {
                        "children": [
                            {
                                "children": [],
                                "depth": 0,
                                "name": "Initial Gas",
                                "value": 21312
                            },
                            {
                                "children": [
                                    {
                                        "children": [
                                            {
                                                "children": [],
                                                "depth": 2,
                                                "name": "balanceOf",
                                                "value": 2607
                                            }
                                        ],
                                        "depth": 1,
                                        "name": "balanceOf",
                                        "value": 9883
                                    },
                                    {
                                        "children": [
                                            {
                                                "children": [],
                                                "depth": 2,
                                                "name": "transferFrom",
                                                "value": 20936
                                            }
                                        ],
                                        "depth": 1,
                                        "name": "transferFrom",
                                        "value": 21721
                                    },
                                    {
                                        "children": [
                                            {
                                                "children": [],
                                                "depth": 2,
                                                "name": "balanceOf",
                                                "value": 607
                                            }
                                        ],
                                        "depth": 1,
                                        "name": "balanceOf",
                                        "value": 1383
                                    }
                                ],
                                "depth": 0,
                                "name": "Executed Gas",
                                "value": 143264
                            }
                        ],
                        "depth": -1,
                        "name": "Actual Gas Used",
                        "value": 149576
                    },
                    {
                        "children": [],
                        "depth": -1,
                        "name": "Refunded Gas",
                        "value": 15000
                    }
                ],
                "depth": -2,
                "name": "Total Gas",
                "value": 164576
            }
        ],
        "isConfirmed": true,
        "mainTrace": [
            {
                "children": [
                    {
                        "children": [
                            {
                                "children": [
                                    {
                                        "children": [],
                                        "depth": 2,
                                        "id": 2,
                                        "order": 2
                                    }
                                ],
                                "depth": 1,
                                "id": 1,
                                "order": 1
                            },
                            {
                                "children": [
                                    {
                                        "children": [
                                            {
                                                "children": [],
                                                "depth": 3,
                                                "id": 5,
                                                "order": 5
                                            },
                                            {
                                                "children": [],
                                                "depth": 3,
                                                "id": 6,
                                                "order": 6
                                            }
                                        ],
                                        "depth": 2,
                                        "id": 4,
                                        "order": 4
                                    }
                                ],
                                "depth": 1,
                                "id": 3,
                                "order": 3
                            },
                            {
                                "children": [
                                    {
                                        "children": [],
                                        "depth": 2,
                                        "id": 8,
                                        "order": 8
                                    }
                                ],
                                "depth": 1,
                                "id": 7,
                                "order": 7
                            },
                            {
                                "children": [],
                                "depth": 1,
                                "id": 9,
                                "order": 9
                            }
                        ],
                        "depth": 0,
                        "id": 0,
                        "order": 0
                    }
                ],
                "depth": -1,
                "id": -1,
                "order": -1
            }
        ],
        "mainTraceNodeCount": 10,
        "parentIdMap": {
            "0": -1,
            "1": 0,
            "2": 1,
            "3": 0,
            "4": 3,
            "5": 4,
            "6": 4,
            "7": 0,
            "8": 7,
            "9": 0
        },
        "tidyTrace": [
            {
                "children": [
                    {
                        "children": [
                            {
                                "children": [
                                    {
                                        "children": [
                                            {
                                                "children": [],
                                                "depth": 3,
                                                "id": 5,
                                                "order": 5
                                            },
                                            {
                                                "children": [],
                                                "depth": 3,
                                                "id": 6,
                                                "order": 6
                                            }
                                        ],
                                        "depth": 2,
                                        "id": 4,
                                        "order": 4
                                    }
                                ],
                                "depth": 1,
                                "id": 3,
                                "order": 3
                            },
                            {
                                "children": [],
                                "depth": 1,
                                "id": 9,
                                "order": 9
                            }
                        ],
                        "depth": 0,
                        "id": 0,
                        "order": 0
                    }
                ],
                "depth": -1,
                "id": -1,
                "order": -1
            }
        ],
        "tidyTraceNodeCount": 6
    },
    "state_change": {
        "stateChanges": [
            {
                "address": "0x7ee680a47953aff929acd71c3ed16e9daa9bd312",
                "erc": "",
                "slots": [
                    {
                        "current": "0x0000000000000000000000000000000000000000000000000000000060792463",
                        "key": "0xa4d71a1490370b77090c1caebdfc7f4b55c52090d8abc64191ab7aafbbd06c26",
                        "prev": "0x0000000000000000000000000000000000000000000000000000000000000000"
                    },
                    {
                        "current": "0x0000000000000000000000000000000000000000000001fd53c9ba6e4cd035fd",
                        "key": "0xa4d71a1490370b77090c1caebdfc7f4b55c52090d8abc64191ab7aafbbd06c27",
                        "prev": "0x0000000000000000000000000000000000000000000000000000000000000000"
                    },
                    {
                        "current": "0x000000000000000000000000000000000000000219612a9ab82f2ce457a86dfb",
                        "key": "0x85f94c3ac77b8ee43db96ddd309318577e53f902ca828d0c134b9cef5fccd02c",
                        "prev": "0x0000000000000000000000000000000000000001fb056cb980578af99ceff13e"
                    },
                    {
                        "current": "0x00000000000000000000000000000000000000c215537e1002690326d207eb7e",
                        "key": "0x0000000000000000000000000000000000000000000000000000000000000006",
                        "prev": "0x00000000000000000000000000000000000000c1f6f7c02eca91613c174f6ec1"
                    },
                    {
                        "current": "0x00000000000000000000000000000000000000000001b69b6abd5623dccdc612",
                        "key": "0x0000000000000000000000000000000000000000000000000000000000000003",
                        "prev": "0x00000000000000000000000000000000000000000001b1289ade1625259fc612"
                    },
                    {
                        "current": "0x0000000000000000000000000000000000000000000000000000000000bae8c9",
                        "key": "0x0000000000000000000000000000000000000000000000000000000000000009",
                        "prev": "0x0000000000000000000000000000000000000000000000000000000000bae648"
                    },
                    {
                        "current": "0x0000000000000000000000000000000000000000000000000000000000000006",
                        "key": "0x85f94c3ac77b8ee43db96ddd309318577e53f902ca828d0c134b9cef5fccd02e",
                        "prev": "0x0000000000000000000000000000000000000000000000000000000000000005"
                    },
                    {
                        "current": "0x000000000000000000000000000000000000000000002337b48e6783bcedee04",
                        "key": "0x85f94c3ac77b8ee43db96ddd309318577e53f902ca828d0c134b9cef5fccd02b",
                        "prev": "0x00000000000000000000000000000000000000000000213a60c4ad15701db807"
                    },
                    {
                        "current": "0x0000000000000000000000000000000000000000000cb82afe84f4f22cb72241",
                        "key": "0x0000000000000000000000000000000000000000000000000000000000000002",
                        "prev": "0x0000000000000000000000000000000000000000000cb62daabb3a83dfe6ec44"
                    }
                ],
                "storageVariables": [
                    {
                        "name": "_state",
                        "type": "struct Storage.State",
                        "value": {
                            "fields": [
                                {
                                    "name": "balance",
                                    "type": "struct Storage.Balance",
                                    "value": {
                                        "fields": [
                                            {
                                                "name": "staked",
                                                "type": "uint256",
                                                "value": {
                                                    "current": "15376818371527564145926721",
                                                    "prev": "15367422941232287619411012",
                                                    "typeTag": 1
                                                }
                                            },
                                            {
                                                "name": "rewarded",
                                                "type": "uint256",
                                                "value": {
                                                    "current": "2071263456226780231091730",
                                                    "prev": "2045533716226780231091730",
                                                    "typeTag": 1
                                                }
                                            },
                                            {
                                                "name": "phantom",
                                                "type": "uint256",
                                                "value": {
                                                    "current": "15376863649130056174092794981246",
                                                    "prev": "15367468189904024349006952885953",
                                                    "typeTag": 1
                                                }
                                            }
                                        ],
                                        "typeTag": 3
                                    }
                                },
                                {
                                    "name": "lastRewardBlock",
                                    "type": "uint256",
                                    "value": {
                                        "current": "12249289",
                                        "prev": "12248648",
                                        "typeTag": 1
                                    }
                                },
                                {
                                    "name": "accounts",
                                    "type": "mapping(address => struct Account.State)",
                                    "value": {
                                        "pairs": [
                                            {
                                                "key": "0x639ebd0728a9baef842e3b243ee7f763c84cd051",
                                                "value": {
                                                    "fields": [
                                                        {
                                                            "name": "staked",
                                                            "type": "uint256",
                                                            "value": {
                                                                "current": "166310408274680635846148",
                                                                "prev": "156914977979404109330439",
                                                                "typeTag": 1
                                                            }
                                                        },
                                                        {
                                                            "name": "phantom",
                                                            "type": "uint256",
                                                            "value": {
                                                                "current": "166310917272027664797642812923",
                                                                "prev": "156915458045995839711800717630",
                                                                "typeTag": 1
                                                            }
                                                        },
                                                        {
                                                            "name": "stakings",
                                                            "type": "struct Vesting[]",
                                                            "value": {
                                                                "elemType": "struct Vesting",
                                                                "elems": [
                                                                    {
                                                                        "index": 5,
                                                                        "value": {
                                                                            "fields": [
                                                                                {
                                                                                    "name": "start",
                                                                                    "type": "uint256",
                                                                                    "value": {
                                                                                        "current": "1618551907",
                                                                                        "prev": "0",
                                                                                        "typeTag": 1
                                                                                    }
                                                                                },
                                                                                {
                                                                                    "name": "amount",
                                                                                    "type": "uint256",
                                                                                    "value": {
                                                                                        "current": "9395430295276526515709",
                                                                                        "prev": "0",
                                                                                        "typeTag": 1
                                                                                    }
                                                                                }
                                                                            ],
                                                                            "typeTag": 3
                                                                        }
                                                                    }
                                                                ],
                                                                "typeTag": 2
                                                            }
                                                        }
                                                    ],
                                                    "typeTag": 3
                                                }
                                            }
                                        ],
                                        "typeTag": 4
                                    }
                                }
                            ],
                            "typeTag": 3
                        }
                    }
                ]
            },
            {
                "address": "0xff75ced57419bcaebe5f05254983b013b0646ef5",
                "erc": "ERC-20",
                "slots": [
                    {
                        "current": "0x0000000000000000000000000000000000000000000000000000000000000000",
                        "key": "0x734c5890617b1712dfac489fdc6936f1b77278e72b533d7d3afe657a04d2b51e",
                        "prev": "0x0000000000000000000000000000000000000000000001fd53c9ba6e4cd035fd"
                    },
                    {
                        "current": "0x00000000000000000000000000000000000000000017dff4e749a6cc1c397312",
                        "key": "0x2e01010153cf45bda2c1bcf0ac9c491bacb6819b357406af94d572ceb85490d1",
                        "prev": "0x00000000000000000000000000000000000000000017ddf7937fec5dcf693d15"
                    },
                    {
                        "current": "0xffffffffffffffffffffffffffffffffffffffffffffdee7eda49b277a03abc6",
                        "key": "0x01d4a136a9134fede69a8125bce7ddbb527b7b8bf6a55332f40890793327ec02",
                        "prev": "0xffffffffffffffffffffffffffffffffffffffffffffe0e5416e5595c6d3e1c3"
                    }
                ],
                "storageVariables": [
                    {
                        "name": "_balances",
                        "type": "mapping(address => uint256)",
                        "value": {
                            "pairs": [
                                {
                                    "key": "0x639ebd0728a9baef842e3b243ee7f763c84cd051",
                                    "value": {
                                        "current": "0",
                                        "prev": "9395430295276526515709",
                                        "typeTag": 1
                                    }
                                },
                                {
                                    "key": "0x7ee680a47953aff929acd71c3ed16e9daa9bd312",
                                    "value": {
                                        "current": "28862899248405678669787922",
                                        "prev": "28853503818110402143272213",
                                        "typeTag": 1
                                    }
                                }
                            ],
                            "typeTag": 4
                        }
                    },
                    {
                        "name": "_allowances",
                        "type": "mapping(address => mapping(address => uint256))",
                        "value": {
                            "pairs": [
                                {
                                    "key": "0x639ebd0728a9baef842e3b243ee7f763c84cd051",
                                    "value": {
                                        "pairs": [
                                            {
                                                "key": "0x7ee680a47953aff929acd71c3ed16e9daa9bd312",
                                                "value": {
                                                    "current": "115792089237316195423570985008687907853269984665640563883175445453649121356742",
                                                    "prev": "115792089237316195423570985008687907853269984665640563892570875748925647872451",
                                                    "typeTag": 1
                                                }
                                            }
                                        ],
                                        "typeTag": 4
                                    }
                                }
                            ],
                            "typeTag": 4
                        }
                    }
                ]
            }
        ]
    }
}