{
    "balance_change": {
        "balanceChanges": []
    },
    "profile": {
        "basic_info": {
            "baseFee": "",
            "blockNumber": 7867282,
            "callData": "0x4ab0d190eba1960f858572bf46bde2e11c3d5c670d08e3825bea61f54a77fe7c4165b08100000000000000000000000000000000000000000000000004a03ce68d21555500000000000000000000000079febf6b9f76853edbcbc913e6aae8232cfb9de96a9705b400000000000000000000000000000000000000000000000000000000000000000000000000000000000000000000000000000000000000005cf11e4500000000000000000000000000000000000000000000000000000005f7cb5a28",
            "debugEnable": true,
            "errorInfo": "",
            "eventCount": 2,
            "feeRecipient": "0x5a0b54d5dc17e0aadc383d2db43b0a0d3e029c4c",
            "formatValue": "0",
            "gasLimit": 500000,
            "gasPrice": "20",
            "gasUsed": 40606,
            "intTxnCount": 1,
            "internalRevert": false,
            "internalRevertMessage": "",
            "isContractCreation": false,
            "isFlashloan": false,
            "maxFee": "",
            "nonce": 282,
            "overwritedBlockNumber": -1,
            "priorityFee": "",
            "receiver": "0x049bd8c3adc3fe7d3fc2a44541d955a537c2a484",
            "revertMessage": "",
            "sender": "0x481df95742cc38b387871e789913659a2469daa6",
            "simulationEnable": true,
            "sourceTxnHash": "0xe85eea68997168c32ca5fd6ad62f6e9d67a511f5a290cf6b22ac4af099db24aa",
            "status": true,
            "timestamp": "2019-05-31T12:25:58Z",
            "transactionFee": "0.00081212",
            "txnHash": "0xe85eea68997168c32ca5fd6ad62f6e9d67a511f5a290cf6b22ac4af099db24aa",
            "txnIndex": 53,
            "type": 0,
            "value": "0"
        },
        "fund_flow": [],
        "token_infos": [
            {
                "address": "0xc02aaa39b223fe8d0a0e5c4f27ead9083c756cc2",
                "decimals": 18
            },
            {
                "address": "0xeeeeeeeeeeeeeeeeeeeeeeeeeeeeeeeeeeeeeeee",
                "decimals": 18
            }
        ]
    },
    "address_label": {
        "labels": [
            {
                "address": "0x0000000000000000000000000000000000000001",
                "label": "Precompiled"
            },
            {
                "address": "0x0000000000000000000000000000000000000002",
                "label": "Precompiled"
            },
            {
                "address": "0x0000000000000000000000000000000000000003",
                "label": "Precompiled"
            },
            {
                "address": "0x0000000000000000000000000000000000000004",
                "label": "Precompiled"
            },
            {
                "address": "0xeeeeeeeeeeeeeeeeeeeeeeeeeeeeeeeeeeeeeeee",
                "label": "Ether"
            },
            {
                "address": "0x79febf6b9f76853edbcbc913e6aae8232cfb9de9",
                "label": "Chainlink: Aggregator"
            },
            {
                "address": "0x049bd8c3adc3fe7d3fc2a44541d955a537c2a484",
                "label": "Oracle"
            }
        ]
    },
    "trace": {
        "accountLabels": null,
        "dataMap": {
            "-1": {
                "invocation": {
                    "address": "0x481df95742cc38b387871e789913659a2469daa6",
                    "callData": "",
                    "decodedMethod": null,
                    "errorInfo": "",
                    "fromAddress": "",
                    "gasUsed": 0,
                    "id": -1,
                    "methodDecoded": false,
                    "operation": "",
                    "output": "",
                    "revert": false,
                    "revertMessage": "",
                    "selector": "",
                    "status": false,
                    "value": ""
                },
                "nodeType": 0
            },
            "0": {
                "invocation": {
                    "address": "0x049bd8c3adc3fe7d3fc2a44541d955a537c2a484",
                    "callData": "0xeba1960f858572bf46bde2e11c3d5c670d08e3825bea61f54a77fe7c4165b08100000000000000000000000000000000000000000000000004a03ce68d21555500000000000000000000000079febf6b9f76853edbcbc913e6aae8232cfb9de96a9705b400000000000000000000000000000000000000000000000000000000000000000000000000000000000000000000000000000000000000005cf11e4500000000000000000000000000000000000000000000000000000005f7cb5a28",
                    "decodedMethod": {
                        "callParams": [
                            {
                                "name": "_requestId",
                                "type": "bytes32",
                                "value": "0xeba1960f858572bf46bde2e11c3d5c670d08e3825bea61f54a77fe7c4165b081"
                            },
                            {
                                "name": "_payment",
                                "type": "uint256",
                                "value": "333,333,333,333,333,333"
                            },
                            {
                                "name": "_callbackAddress",
                                "type": "address",
                                "value": "0x79febf6b9f76853edbcbc913e6aae8232cfb9de9"
                            },
                            {
                                "name": "_callbackFunctionId",
                                "type": "bytes4",
                                "value": "0x6a9705b4"
                            },
                            {
                                "name": "_expiration",
                                "type": "uint256",
                                "value": "1,559,305,797"
                            },
                            {
                                "name": "_data",
                                "type": "bytes32",
                                "value": "0x00000000000000000000000000000000000000000000000000000005f7cb5a28"
                            }
                        ],
                        "constructorArguments": "",
                        "name": "fulfillOracleRequest",
                        "returnParams": [
                            {
                                "name": "",
                                "type": "bool",
                                "value": true
                            }
                        ],
                        "signature": "fulfillOracleRequest(bytes32,uint256,address,bytes4,uint256,bytes32)"
                    },
                    "errorInfo": "",
                    "fromAddress": "0x481df95742cc38b387871e789913659a2469daa6",
                    "gasUsed": 40606,
                    "id": 0,
                    "methodDecoded": true,
                    "operation": "CALL",
                    "output": "0x0000000000000000000000000000000000000000000000000000000000000001",
                    "revert": false,
                    "revertMessage": "",
                    "selector": "0x4ab0d190",
                    "status": true,
                    "value": "0"
                },
                "nodeType": 0
            },
            "1": {
                "invocation": {
                    "address": "0x79febf6b9f76853edbcbc913e6aae8232cfb9de9",
                    "callData": "0xeba1960f858572bf46bde2e11c3d5c670d08e3825bea61f54a77fe7c4165b08100000000000000000000000000000000000000000000000000000005f7cb5a28",
                    "decodedMethod": {
                        "callParams": [
                            {
                                "name": "_clRequestId",
                                "type": "bytes32",
                                "value": "0xeba1960f858572bf46bde2e11c3d5c670d08e3825bea61f54a77fe7c4165b081"
                            },
                            {
                                "name": "_response",
                                "type": "int256",
                                "value": "25,632,135,720"
                            }
                        ],
                        "constructorArguments": "",
                        "name": "chainlinkCallback",
                        "returnParams": [],
                        "signature": "chainlinkCallback(bytes32,int256)"
                    },
                    "errorInfo": "",
                    "fromAddress": "0x049bd8c3adc3fe7d3fc2a44541d955a537c2a484",
                    "gasUsed": 41094,
                    "id": 1,
                    "methodDecoded": true,
                    "operation": "CALL",
                    "output": "",
                    "revert": false,
                    "revertMessage": "",
                    "selector": "0x6a9705b4",
                    "status": true,
                    "value": "0"
                },
                "nodeType": 0
            },
            "2": {
                "event": {
                    "contract": "0x79febf6b9f76853edbcbc913e6aae8232cfb9de9",
                    "decodedLog": {
                        "name": "ChainlinkFulfilled",
                        "params": [
                            {
                                "name": "id",
                                "type": "bytes32",
                                "value": "0xeba1960f858572bf46bde2e11c3d5c670d08e3825bea61f54a77fe7c4165b081"
                            }
                        ],
                        "signature": "ChainlinkFulfilled(bytes32)"
                    },
                    "id": 2,
                    "logData": "0x",
                    "logDecoded": true,
                    "operation": "EVENT",
                    "revert": false,
                    "status": true,
                    "topics": [
                        "0x7cc135e0cebb02c3480ae5d74d377283180a2601f8f644edf7987b009316c63a",
                        "0xeba1960f858572bf46bde2e11c3d5c670d08e3825bea61f54a77fe7c4165b081"
                    ]
                },
                "nodeType": 1
            },
            "3": {
                "event": {
                    "contract": "0x79febf6b9f76853edbcbc913e6aae8232cfb9de9",
                    "decodedLog": {
                        "name": "ResponseReceived",
                        "params": [
                            {
                                "name": "response",
                                "type": "int256",
                                "value": "25,632,135,720"
                            },
                            {
                                "name": "answerId",
                                "type": "uint256",
                                "value": "272"
                            },
                            {
                                "name": "sender",
                                "type": "address",
                                "value": "0x049bd8c3adc3fe7d3fc2a44541d955a537c2a484"
                            }
                        ],
                        "signature": "ResponseReceived(int256,uint256,address)"
                    },
                    "id": 3,
                    "logData": "0x",
                    "logDecoded": true,
                    "operation": "EVENT",
                    "revert": false,
                    "status": true,
                    "topics": [
                        "0xb51168059c83c860caf5b830c5d2e64c2172c6fb2fe9f25447d9838e18d93b60",
                        "0x00000000000000000000000000000000000000000000000000000005f7cb5a28",
                        "0x0000000000000000000000000000000000000000000000000000000000000110",
                        "0x000000000000000000000000049bd8c3adc3fe7d3fc2a44541d955a537c2a484"
                    ]
                },
                "nodeType": 1
            }
        },
        "gasFlame": [
            {
                "children": [
                    {
                        "children": [
                            {
                                "children": [],
                                "depth": 0,
                                "name": "Initial Gas",
                                "value": 26712
                            },
                            {
                                "children": [
                                    {
                                        "children": [],
                                        "depth": 1,
                                        "name": "chainlinkCallback",
                                        "value": 41094
                                    }
                                ],
                                "depth": 0,
                                "name": "Executed Gas",
                                "value": 54500
                            }
                        ],
                        "depth": -1,
                        "name": "Actual Gas Used",
                        "value": 40606
                    },
                    {
                        "children": [],
                        "depth": -1,
                        "name": "Refunded Gas",
                        "value": 40606
                    }
                ],
                "depth": -2,
                "name": "Total Gas",
                "value": 81212
            }
        ],
        "isConfirmed": true,
        "mainTrace": [
            {
                "children": [
                    {
                        "children": [
                            {
                                "children": [
                                    {
                                        "children": [],
                                        "depth": 2,
                                        "id": 2,
                                        "order": 2
                                    },
                                    {
                                        "children": [],
                                        "depth": 2,
                                        "id": 3,
                                        "order": 3
                                    }
                                ],
                                "depth": 1,
                                "id": 1,
                                "order": 1
                            }
                        ],
                        "depth": 0,
                        "id": 0,
                        "order": 0
                    }
                ],
                "depth": -1,
                "id": -1,
                "order": -1
            }
        ],
        "mainTraceNodeCount": 4,
        "parentIdMap": {
            "0": -1,
            "1": 0,
            "2": 1,
            "3": 1
        },
        "tidyTrace": [
            {
                "children": [
                    {
                        "children": [
                            {
                                "children": [
                                    {
                                        "children": [],
                                        "depth": 2,
                                        "id": 2,
                                        "order": 2
                                    },
                                    {
                                        "children": [],
                                        "depth": 2,
                                        "id": 3,
                                        "order": 3
                                    }
                                ],
                                "depth": 1,
                                "id": 1,
                                "order": 1
                            }
                        ],
                        "depth": 0,
                        "id": 0,
                        "order": 0
                    }
                ],
                "depth": -1,
                "id": -1,
                "order": -1
            }
        ],
        "tidyTraceNodeCount": 4
    },
    "state_change": {
        "stateChanges": [
            {
                "address": "0x049bd8c3adc3fe7d3fc2a44541d955a537c2a484",
                "erc": "",
                "slots": [
                    {
                        "current": "0x00000000000000000000000000000000000000000000000503b203e9fba1ffab",
                        "key": "0x0000000000000000000000000000000000000000000000000000000000000004",
                        "prev": "0x000000000000000000000000000000000000000000000004ff11c7036e80aa56"
                    },
                    {
                        "current": "0x0000000000000000000000000000000000000000000000000000000000000000",
                        "key": "0x5be4feecfd5757eafd945096e70c9e21d970680b7b15cd05b9c99e18944fd5a0",
                        "prev": "0xc7ee52ad231308ee2a75caff88433b6fe969a294a8a70b7203bd26cc1be7c61d"
                    }
                ],
                "storageVariables": [
                    {
                        "name": "withdrawableTokens",
                        "type": "uint256",
                        "value": {
                            "current": "92499999999999999915",
                            "prev": "92166666666666666582",
                            "typeTag": 1
                        }
                    },
                    {
                        "name": "commitments",
                        "type": "mapping(bytes32 => bytes32)",
                        "value": {
                            "pairs": [
                                {
                                    "key": "0xeba1960f858572bf46bde2e11c3d5c670d08e3825bea61f54a77fe7c4165b081",
                                    "value": {
                                        "current": "0x0000000000000000000000000000000000000000000000000000000000000000",
                                        "prev": "0xc7ee52ad231308ee2a75caff88433b6fe969a294a8a70b7203bd26cc1be7c61d",
                                        "typeTag": 1
                                    }
                                }
                            ],
                            "typeTag": 4
                        }
                    }
                ]
            },
            {
                "address": "0x79febf6b9f76853edbcbc913e6aae8232cfb9de9",
                "erc": "",
                "slots": [
                    {
                        "current": "0x0000000000000000000000000000000000000000000000000000000000000000",
                        "key": "0xa7315daa6ac67b9c09ebb4bc9b5f58be03484f4e5de115badd9a347682c71e67",
                        "prev": "0x000000000000000000000000049bd8c3adc3fe7d3fc2a44541d955a537c2a484"
                    },
                    {
                        "current": "0x0000000000000000000000000000000000000000000000000000000000000000",
                        "key": "0x185712daad87c4c6f94deaf4fb64eb599a506f9653aa57b77a9e4ae8ed419349",
                        "prev": "0x0000000000000000000000000000000000000000000000000000000000000110"
                    },
                    {
                        "current": "0x0000000000000000000000000000000000000000000000000000000000000002",
                        "key": "0x23a5454391f32f7865ccdfa6fb0eb9af4fd0cdcc2289cb8fce6eb33ff6b5868d",
                        "prev": "0x0000000000000000000000000000000000000000000000000000000000000001"
                    },
                    {
                        "current": "0x00000000000000000000000000000000000000000000000000000005f7cb5a28",
                        "key": "0x05781f420081b05423b25f17cf380a6b3ea36abc007c4126a6e55db0405a2050",
                        "prev": "0x0000000000000000000000000000000000000000000000000000000000000000"
                    }
                ],
                "storageVariables": [
                    {
                        "name": "requestAnswers",
                        "type": "mapping(bytes32 => uint256)",
                        "value": {
                            "pairs": [
                                {
                                    "key": "0xeba1960f858572bf46bde2e11c3d5c670d08e3825bea61f54a77fe7c4165b081",
                                    "value": {
                                        "current": "0",
                                        "prev": "272",
                                        "typeTag": 1
                                    }
                                }
                            ],
                            "typeTag": 4
                        }
                    },
                    {
                        "name": "answers",
                        "type": "mapping(uint256 => struct Aggregator.Answer)",
                        "value": {
                            "pairs": [
                                {
                                    "key": "272",
                                    "value": {
                                        "fields": [
                                            {
                                                "name": "responses",
                                                "type": "int256[]",
                                                "value": {
                                                    "elemType": "int256",
                                                    "elems": [
                                                        {
                                                            "index": 1,
                                                            "value": {
                                                                "current": "25632135720",
                                                                "prev": "0",
                                                                "typeTag": 1
                                                            }
                                                        }
                                                    ],
                                                    "typeTag": 2
                                                }
                                            }
                                        ],
                                        "typeTag": 3
                                    }
                                }
                            ],
                            "typeTag": 4
                        }
                    },
                    {
                        "name": "pendingRequests",
                        "type": "mapping(bytes32 => address)",
                        "value": {
                            "pairs": [
                                {
                                    "key": "0xeba1960f858572bf46bde2e11c3d5c670d08e3825bea61f54a77fe7c4165b081",
                                    "value": {
                                        "current": "0x0000000000000000000000000000000000000000",
                                        "prev": "0x049bd8c3adc3fe7d3fc2a44541d955a537c2a484",
                                        "typeTag": 1
                                    }
                                }
                            ],
                            "typeTag": 4
                        }
                    }
                ]
            }
        ]
    }
}