{
    "balance_change": {
        "balanceChanges": [
            {
                "account": "0x447d759772f9bfcab954ad2e55e537ed71084f1d",
                "assets": [
                    {
                        "address": "0x87c8b57077ec4979f1dfe03a85ed0a8a8b0d6211",
                        "amount": "1,000",
                        "iconUrl": "",
                        "isERC1155": false,
                        "isERC721": false,
                        "sign": false,
                        "value": ""
                    }
                ]
            },
            {
                "account": "0x53d054f83a565c6eb6e30e190a8a45776b845c33",
                "assets": [
                    {
                        "address": "0x87c8b57077ec4979f1dfe03a85ed0a8a8b0d6211",
                        "amount": "1,000",
                        "iconUrl": "",
                        "isERC1155": false,
                        "isERC721": false,
                        "sign": true,
                        "value": ""
                    }
                ]
            }
        ]
    },
    "profile": {
        "basic_info": {
            "baseFee": "",
            "blockNumber": 7653425,
            "callData": "0xa9059cbb00000000000000000000000053d054f83a565c6eb6e30e190a8a45776b845c3300000000000000000000000000000000000000000000003635c9adc5dea00000",
            "debugEnable": true,
            "errorInfo": "",
            "eventCount": 1,
            "feeRecipient": "0x5a0b54d5dc17e0aadc383d2db43b0a0d3e029c4c",
            "formatValue": "0",
            "gasLimit": 60000,
            "gasPrice": "3",
            "gasUsed": 51824,
            "intTxnCount": 0,
            "internalRevert": false,
            "internalRevertMessage": "",
            "isContractCreation": false,
            "isFlashloan": false,
            "maxFee": "",
            "nonce": 695,
            "overwritedBlockNumber": -1,
            "priorityFee": "",
            "receiver": "0x87c8b57077ec4979f1dfe03a85ed0a8a8b0d6211",
            "revertMessage": "",
            "sender": "0x447d759772f9bfcab954ad2e55e537ed71084f1d",
            "simulationEnable": true,
            "sourceTxnHash": "0xe8c08f6ed3e12030a8ac1b7b4236f7c593570c5006fddfe7b47019cf549ea5ff",
            "status": true,
            "timestamp": "2019-04-28T03:05:59Z",
            "transactionFee": "0.000155472",
            "txnHash": "0xe8c08f6ed3e12030a8ac1b7b4236f7c593570c5006fddfe7b47019cf549ea5ff",
            "txnIndex": 109,
            "type": 0,
            "value": "0"
        },
        "fund_flow": [
            {
                "amount": "1,000",
                "from": "0x447d759772f9bfcab954ad2e55e537ed71084f1d",
                "id": 1,
                "isERC1155": false,
                "isERC721": false,
                "isReverted": false,
                "order": 1,
                "to": "0x53d054f83a565c6eb6e30e190a8a45776b845c33",
                "token": "0x87c8b57077ec4979f1dfe03a85ed0a8a8b0d6211"
            }
        ],
        "token_infos": [
            {
                "address": "0xc02aaa39b223fe8d0a0e5c4f27ead9083c756cc2",
                "decimals": 18
            },
            {
                "address": "0xeeeeeeeeeeeeeeeeeeeeeeeeeeeeeeeeeeeeeeee",
                "decimals": 18
            },
            {
                "address": "0x87c8b57077ec4979f1dfe03a85ed0a8a8b0d6211",
                "decimals": 18
            }
        ]
    },
    "address_label": {
        "labels": [
            {
                "address": "0xeeeeeeeeeeeeeeeeeeeeeeeeeeeeeeeeeeeeeeee",
                "label": "Ether"
            },
            {
                "address": "0x87c8b57077ec4979f1dfe03a85ed0a8a8b0d6211",
                "label": "ATC"
            },
            {
                "address": "0x0000000000000000000000000000000000000001",
                "label": "Precompiled"
            },
            {
                "address": "0x0000000000000000000000000000000000000002",
                "label": "Precompiled"
            },
            {
                "address": "0x0000000000000000000000000000000000000003",
                "label": "Precompiled"
            },
            {
                "address": "0x0000000000000000000000000000000000000004",
                "label": "Precompiled"
            }
        ]
    },
    "trace": {
        "accountLabels": null,
        "dataMap": {
            "-1": {
                "invocation": {
                    "address": "0x447d759772f9bfcab954ad2e55e537ed71084f1d",
                    "callData": "",
                    "decodedMethod": null,
                    "errorInfo": "",
                    "fromAddress": "",
                    "gasUsed": 0,
                    "id": -1,
                    "methodDecoded": false,
                    "operation": "",
                    "output": "",
                    "revert": false,
                    "revertMessage": "",
                    "selector": "",
                    "status": false,
                    "value": ""
                },
                "nodeType": 0
            },
            "0": {
                "invocation": {
                    "address": "0x87c8b57077ec4979f1dfe03a85ed0a8a8b0d6211",
                    "callData": "0x00000000000000000000000053d054f83a565c6eb6e30e190a8a45776b845c3300000000000000000000000000000000000000000000003635c9adc5dea00000",
                    "decodedMethod": {
                        "callParams": [
                            {
                                "name": "recipient",
                                "type": "address",
                                "value": "0x53d054f83a565c6eb6e30e190a8a45776b845c33"
                            },
                            {
                                "decimalAvailable": true,
                                "name": "amount",
                                "type": "uint256",
                                "value": "1,000,000,000,000,000,000,000"
                            }
                        ],
                        "constructorArguments": "",
                        "name": "transfer",
                        "returnParams": [
                            {
                                "name": "",
                                "type": "bool",
                                "value": true
                            }
                        ],
                        "signature": "transfer(address,uint256)"
                    },
                    "errorInfo": "",
                    "fromAddress": "0x447d759772f9bfcab954ad2e55e537ed71084f1d",
                    "gasUsed": 51824,
                    "id": 0,
                    "methodDecoded": true,
                    "operation": "CALL",
                    "output": "0x0000000000000000000000000000000000000000000000000000000000000001",
                    "revert": false,
                    "revertMessage": "",
                    "selector": "0xa9059cbb",
                    "status": true,
                    "value": "0"
                },
                "nodeType": 0
            },
            "1": {
                "event": {
                    "contract": "0x87c8b57077ec4979f1dfe03a85ed0a8a8b0d6211",
                    "decodedLog": {
                        "name": "Transfer",
                        "params": [
                            {
                                "name": "from",
                                "type": "address",
                                "value": "0x447d759772f9bfcab954ad2e55e537ed71084f1d"
                            },
                            {
                                "name": "to",
                                "type": "address",
                                "value": "0x53d054f83a565c6eb6e30e190a8a45776b845c33"
                            },
                            {
                                "decimalAvailable": true,
                                "name": "value",
                                "type": "uint256",
                                "value": "1,000,000,000,000,000,000,000"
                            }
                        ],
                        "signature": "Transfer(address,address,uint256)"
                    },
                    "id": 1,
                    "logData": "0x00000000000000000000000000000000000000000000003635c9adc5dea00000",
                    "logDecoded": true,
                    "operation": "EVENT",
                    "revert": false,
                    "status": true,
                    "topics": [
                        "0xddf252ad1be2c89b69c2b068fc378daa952ba7f163c4a11628f55a4df523b3ef",
                        "0x000000000000000000000000447d759772f9bfcab954ad2e55e537ed71084f1d",
                        "0x00000000000000000000000053d054f83a565c6eb6e30e190a8a45776b845c33"
                    ]
                },
                "nodeType": 1
            }
        },
        "gasFlame": [
            {
                "children": [
                    {
                        "children": [
                            {
                                "children": [],
                                "depth": 0,
                                "name": "Initial Gas",
                                "value": 23256
                            },
                            {
                                "children": [],
                                "depth": 0,
                                "name": "Executed Gas",
                                "value": 28568
                            }
                        ],
                        "depth": -1,
                        "name": "Actual Gas Used",
                        "value": 51824
                    },
                    {
                        "children": [],
                        "depth": -1,
                        "name": "Refunded Gas",
                        "value": 0
                    }
                ],
                "depth": -2,
                "name": "Total Gas",
                "value": 51824
            }
        ],
        "isConfirmed": true,
        "mainTrace": [
            {
                "children": [
                    {
                        "children": [
                            {
                                "children": [],
                                "depth": 1,
                                "id": 1,
                                "order": 1
                            }
                        ],
                        "depth": 0,
                        "id": 0,
                        "order": 0
                    }
                ],
                "depth": -1,
                "id": -1,
                "order": -1
            }
        ],
        "mainTraceNodeCount": 2,
        "parentIdMap": {
            "0": -1,
            "1": 0
        },
        "tidyTrace": [
            {
                "children": [
                    {
                        "children": [
                            {
                                "children": [],
                                "depth": 1,
                                "id": 1,
                                "order": 1
                            }
                        ],
                        "depth": 0,
                        "id": 0,
                        "order": 0
                    }
                ],
                "depth": -1,
                "id": -1,
                "order": -1
            }
        ],
        "tidyTraceNodeCount": 2
    },
    "state_change": {
        "stateChanges": [
            {
                "address": "0x87c8b57077ec4979f1dfe03a85ed0a8a8b0d6211",
                "erc": "",
                "slots": [
                    {
                        "current": "0x00000000000000000000000000000000000000000000003635c9adc5dea00000",
                        "key": "0xf3fee1d9bf76cdb59a31c7fe1e9ffd439ec0a979c592ac0a3935607a0b2f1cbe",
                        "prev": "0x0000000000000000000000000000000000000000000000000000000000000000"
                    },
                    {
                        "current": "0x00000000000000000000000000000000000000000000a9c188989c4496880000",
                        "key": "0xcfcd76ec0b413560ab7fb895314c7fcca9f987208546eb8f87bd4f5370d87cfd",
                        "prev": "0x00000000000000000000000000000000000000000000a9f7be624a0a75280000"
                    }
                ],
                "storageVariables": []
            }
        ]
    }
}