{
    "balance_change": {
        "balanceChanges": []
    },
    "profile": {
        "basic_info": {
            "baseFee": "",
            "blockNumber": 9921702,
            "callData": "0xf14fcbc831b6ad4cc5a4086ba19486abd751cec706a78842c237c5312282da43e5c82028",
            "debugEnable": true,
            "errorInfo": "",
            "eventCount": 0,
            "feeRecipient": "0x5a0b54d5dc17e0aadc383d2db43b0a0d3e029c4c",
            "formatValue": "0",
            "gasLimit": 43667,
            "gasPrice": "11",
            "gasUsed": 43667,
            "intTxnCount": 0,
            "internalRevert": false,
            "internalRevertMessage": "",
            "isContractCreation": false,
            "isFlashloan": false,
            "maxFee": "",
            "nonce": 3,
            "overwritedBlockNumber": -1,
            "priorityFee": "",
            "receiver": "0x283af0b28c62c092c9727f1ee09c02ca627eb7f5",
            "revertMessage": "",
            "sender": "0x2931b24e740f9fd5e2ea16ecd9201a1695c62691",
            "simulationEnable": true,
            "sourceTxnHash": "0xe837316284f7bedf0fbccc9b6f6260d17442a8da4e03c74cbccced6b9f73aff8",
            "status": true,
            "timestamp": "2020-04-22T10:24:35Z",
            "transactionFee": "0.000480337",
            "txnHash": "0xe837316284f7bedf0fbccc9b6f6260d17442a8da4e03c74cbccced6b9f73aff8",
            "txnIndex": 77,
            "type": 0,
            "value": "0"
        },
        "fund_flow": [],
        "token_infos": [
            {
                "address": "0xc02aaa39b223fe8d0a0e5c4f27ead9083c756cc2",
                "decimals": 18
            },
            {
                "address": "0xeeeeeeeeeeeeeeeeeeeeeeeeeeeeeeeeeeeeeeee",
                "decimals": 18
            }
        ]
    },
    "address_label": {
        "labels": [
            {
                "address": "0x0000000000000000000000000000000000000001",
                "label": "Precompiled"
            },
            {
                "address": "0x0000000000000000000000000000000000000002",
                "label": "Precompiled"
            },
            {
                "address": "0x0000000000000000000000000000000000000003",
                "label": "Precompiled"
            },
            {
                "address": "0x0000000000000000000000000000000000000004",
                "label": "Precompiled"
            },
            {
                "address": "0xeeeeeeeeeeeeeeeeeeeeeeeeeeeeeeeeeeeeeeee",
                "label": "Ether"
            },
            {
                "address": "0x283af0b28c62c092c9727f1ee09c02ca627eb7f5",
                "label": "ENS: Old ETH Registrar Controller"
            }
        ]
    },
    "trace": {
        "accountLabels": null,
        "dataMap": {
            "-1": {
                "invocation": {
                    "address": "0x2931b24e740f9fd5e2ea16ecd9201a1695c62691",
                    "callData": "",
                    "decodedMethod": null,
                    "errorInfo": "",
                    "fromAddress": "",
                    "gasUsed": 0,
                    "id": -1,
                    "methodDecoded": false,
                    "operation": "",
                    "output": "",
                    "revert": false,
                    "revertMessage": "",
                    "selector": "",
                    "status": false,
                    "value": ""
                },
                "nodeType": 0
            },
            "0": {
                "invocation": {
                    "address": "0x283af0b28c62c092c9727f1ee09c02ca627eb7f5",
                    "callData": "0x31b6ad4cc5a4086ba19486abd751cec706a78842c237c5312282da43e5c82028",
                    "decodedMethod": {
                        "callParams": [
                            {
                                "name": "commitment",
                                "type": "bytes32",
                                "value": "0x31b6ad4cc5a4086ba19486abd751cec706a78842c237c5312282da43e5c82028"
                            }
                        ],
                        "constructorArguments": "",
                        "name": "commit",
                        "returnParams": [],
                        "signature": "commit(bytes32)"
                    },
                    "errorInfo": "",
                    "fromAddress": "0x2931b24e740f9fd5e2ea16ecd9201a1695c62691",
                    "gasUsed": 43667,
                    "id": 0,
                    "methodDecoded": true,
                    "operation": "CALL",
                    "output": "",
                    "revert": false,
                    "revertMessage": "",
                    "selector": "0xf14fcbc8",
                    "status": true,
                    "value": "0"
                },
                "nodeType": 0
            }
        },
        "gasFlame": [
            {
                "children": [
                    {
                        "children": [
                            {
                                "children": [],
                                "depth": 0,
                                "name": "Initial Gas",
                                "value": 21576
                            },
                            {
                                "children": [],
                                "depth": 0,
                                "name": "Executed Gas",
                                "value": 22091
                            }
                        ],
                        "depth": -1,
                        "name": "Actual Gas Used",
                        "value": 43667
                    },
                    {
                        "children": [],
                        "depth": -1,
                        "name": "Refunded Gas",
                        "value": 0
                    }
                ],
                "depth": -2,
                "name": "Total Gas",
                "value": 43667
            }
        ],
        "isConfirmed": true,
        "mainTrace": [
            {
                "children": [
                    {
                        "children": [],
                        "depth": 0,
                        "id": 0,
                        "order": 0
                    }
                ],
                "depth": -1,
                "id": -1,
                "order": -1
            }
        ],
        "mainTraceNodeCount": 1,
        "parentIdMap": {
            "0": -1
        },
        "tidyTrace": [
            {
                "children": [
                    {
                        "children": [],
                        "depth": 0,
                        "id": 0,
                        "order": 0
                    }
                ],
                "depth": -1,
                "id": -1,
                "order": -1
            }
        ],
        "tidyTraceNodeCount": 1
    },
    "state_change": {
        "stateChanges": [
            {
                "address": "0x283af0b28c62c092c9727f1ee09c02ca627eb7f5",
                "erc": "",
                "slots": [
                    {
                        "current": "0x000000000000000000000000000000000000000000000000000000005ea01b63",
                        "key": "0xc6156d9a29bc6c8434f5734c62d0d72c18ad0e2d4c459d3da024d1aa95d7a204",
                        "prev": "0x0000000000000000000000000000000000000000000000000000000000000000"
                    }
                ],
                "storageVariables": [
                    {
                        "name": "commitments",
                        "type": "mapping(bytes32 => uint256)",
                        "value": {
                            "pairs": [
                                {
                                    "key": "0x31b6ad4cc5a4086ba19486abd751cec706a78842c237c5312282da43e5c82028",
                                    "value": {
                                        "current": "1587551075",
                                        "prev": "0",
                                        "typeTag": 1
                                    }
                                }
                            ],
                            "typeTag": 4
                        }
                    }
                ]
            }
        ]
    }
}