{
    "balance_change": {
        "balanceChanges": [
            {
                "account": "0x48985974cc514110a92a5821c7ad9b992fcd2e32",
                "assets": [
                    {
                        "address": "0x74faab6986560fd1140508e4266d8a7b87274ffd",
                        "amount": "1,347.91",
                        "iconUrl": "",
                        "isERC1155": false,
                        "isERC721": false,
                        "sign": false,
                        "value": ""
                    }
                ]
            },
            {
                "account": "0x0019231be68c83337e1da06cebdd102954b7d265",
                "assets": [
                    {
                        "address": "0x74faab6986560fd1140508e4266d8a7b87274ffd",
                        "amount": "1,347.91",
                        "iconUrl": "",
                        "isERC1155": false,
                        "isERC721": false,
                        "sign": true,
                        "value": ""
                    }
                ]
            }
        ]
    },
    "profile": {
        "basic_info": {
            "baseFee": "",
            "blockNumber": 10445770,
            "callData": "0xa9059cbb0000000000000000000000000019231be68c83337e1da06cebdd102954b7d26500000000000000000000000000000000000000000000004912024b777cc70000",
            "debugEnable": true,
            "errorInfo": "",
            "eventCount": 1,
            "feeRecipient": "0x6a7a43be33ba930fe58f34e07d0ad6ba7adb9b1f",
            "formatValue": "0",
            "gasLimit": 51660,
            "gasPrice": "38",
            "gasUsed": 51660,
            "intTxnCount": 0,
            "internalRevert": false,
            "internalRevertMessage": "",
            "isContractCreation": false,
            "isFlashloan": false,
            "maxFee": "",
            "nonce": 11,
            "overwritedBlockNumber": -1,
            "priorityFee": "",
            "receiver": "0x74faab6986560fd1140508e4266d8a7b87274ffd",
            "revertMessage": "",
            "sender": "0x48985974cc514110a92a5821c7ad9b992fcd2e32",
            "simulationEnable": true,
            "sourceTxnHash": "0xe8bba7f6ae6a08083c99a0fe7b8844e3a1b7b6d2e3d36d1fc9efd8e330041ec9",
            "status": true,
            "timestamp": "2020-07-12T16:18:20Z",
            "transactionFee": "0.00196308",
            "txnHash": "0xe8bba7f6ae6a08083c99a0fe7b8844e3a1b7b6d2e3d36d1fc9efd8e330041ec9",
            "txnIndex": 60,
            "type": 0,
            "value": "0"
        },
        "fund_flow": [
            {
                "amount": "1,347.91",
                "from": "0x48985974cc514110a92a5821c7ad9b992fcd2e32",
                "id": 1,
                "isERC1155": false,
                "isERC721": false,
                "isReverted": false,
                "order": 1,
                "to": "0x0019231be68c83337e1da06cebdd102954b7d265",
                "token": "0x74faab6986560fd1140508e4266d8a7b87274ffd"
            }
        ],
        "token_infos": [
            {
                "address": "0x74faab6986560fd1140508e4266d8a7b87274ffd",
                "decimals": 18
            },
            {
                "address": "0xc02aaa39b223fe8d0a0e5c4f27ead9083c756cc2",
                "decimals": 18
            },
            {
                "address": "0xeeeeeeeeeeeeeeeeeeeeeeeeeeeeeeeeeeeeeeee",
                "decimals": 18
            }
        ]
    },
    "address_label": {
        "labels": [
            {
                "address": "0x0000000000000000000000000000000000000001",
                "label": "Precompiled"
            },
            {
                "address": "0x0000000000000000000000000000000000000002",
                "label": "Precompiled"
            },
            {
                "address": "0x0000000000000000000000000000000000000003",
                "label": "Precompiled"
            },
            {
                "address": "0x0000000000000000000000000000000000000004",
                "label": "Precompiled"
            },
            {
                "address": "0xeeeeeeeeeeeeeeeeeeeeeeeeeeeeeeeeeeeeeeee",
                "label": "Ether"
            },
            {
                "address": "0x0019231be68c83337e1da06cebdd102954b7d265",
                "label": "HOO.COM"
            },
            {
                "address": "0x74faab6986560fd1140508e4266d8a7b87274ffd",
                "label": "HyperDao: HDAO Token"
            }
        ]
    },
    "trace": {
        "accountLabels": null,
        "dataMap": {
            "-1": {
                "invocation": {
                    "address": "0x48985974cc514110a92a5821c7ad9b992fcd2e32",
                    "callData": "",
                    "decodedMethod": null,
                    "errorInfo": "",
                    "fromAddress": "",
                    "gasUsed": 0,
                    "id": -1,
                    "methodDecoded": false,
                    "operation": "",
                    "output": "",
                    "revert": false,
                    "revertMessage": "",
                    "selector": "",
                    "status": false,
                    "value": ""
                },
                "nodeType": 0
            },
            "0": {
                "invocation": {
                    "address": "0x74faab6986560fd1140508e4266d8a7b87274ffd",
                    "callData": "0x0000000000000000000000000019231be68c83337e1da06cebdd102954b7d26500000000000000000000000000000000000000000000004912024b777cc70000",
                    "decodedMethod": {
                        "callParams": [
                            {
                                "name": "recipient",
                                "type": "address",
                                "value": "0x0019231be68c83337e1da06cebdd102954b7d265"
                            },
                            {
                                "decimalAvailable": true,
                                "name": "amount",
                                "type": "uint256",
                                "value": "1,347,910,000,000,000,000,000"
                            }
                        ],
                        "constructorArguments": "",
                        "name": "transfer",
                        "returnParams": [
                            {
                                "name": "",
                                "type": "bool",
                                "value": true
                            }
                        ],
                        "signature": "transfer(address,uint256)"
                    },
                    "errorInfo": "",
                    "fromAddress": "0x48985974cc514110a92a5821c7ad9b992fcd2e32",
                    "gasUsed": 51660,
                    "id": 0,
                    "methodDecoded": true,
                    "operation": "CALL",
                    "output": "0x0000000000000000000000000000000000000000000000000000000000000001",
                    "revert": false,
                    "revertMessage": "",
                    "selector": "0xa9059cbb",
                    "status": true,
                    "value": "0"
                },
                "nodeType": 0
            },
            "1": {
                "event": {
                    "contract": "0x74faab6986560fd1140508e4266d8a7b87274ffd",
                    "decodedLog": {
                        "name": "Transfer",
                        "params": [
                            {
                                "name": "from",
                                "type": "address",
                                "value": "0x48985974cc514110a92a5821c7ad9b992fcd2e32"
                            },
                            {
                                "name": "to",
                                "type": "address",
                                "value": "0x0019231be68c83337e1da06cebdd102954b7d265"
                            },
                            {
                                "decimalAvailable": true,
                                "name": "value",
                                "type": "uint256",
                                "value": "1,347,910,000,000,000,000,000"
                            }
                        ],
                        "signature": "Transfer(address,address,uint256)"
                    },
                    "id": 1,
                    "logData": "0x00000000000000000000000000000000000000000000004912024b777cc70000",
                    "logDecoded": true,
                    "operation": "EVENT",
                    "revert": false,
                    "status": true,
                    "topics": [
                        "0xddf252ad1be2c89b69c2b068fc378daa952ba7f163c4a11628f55a4df523b3ef",
                        "0x00000000000000000000000048985974cc514110a92a5821c7ad9b992fcd2e32",
                        "0x0000000000000000000000000019231be68c83337e1da06cebdd102954b7d265"
                    ]
                },
                "nodeType": 1
            }
        },
        "gasFlame": [
            {
                "children": [
                    {
                        "children": [
                            {
                                "children": [],
                                "depth": 0,
                                "name": "Initial Gas",
                                "value": 21632
                            },
                            {
                                "children": [],
                                "depth": 0,
                                "name": "Executed Gas",
                                "value": 30028
                            }
                        ],
                        "depth": -1,
                        "name": "Actual Gas Used",
                        "value": 51660
                    },
                    {
                        "children": [],
                        "depth": -1,
                        "name": "Refunded Gas",
                        "value": 0
                    }
                ],
                "depth": -2,
                "name": "Total Gas",
                "value": 51660
            }
        ],
        "isConfirmed": true,
        "mainTrace": [
            {
                "children": [
                    {
                        "children": [
                            {
                                "children": [],
                                "depth": 1,
                                "id": 1,
                                "order": 1
                            }
                        ],
                        "depth": 0,
                        "id": 0,
                        "order": 0
                    }
                ],
                "depth": -1,
                "id": -1,
                "order": -1
            }
        ],
        "mainTraceNodeCount": 2,
        "parentIdMap": {
            "0": -1,
            "1": 0
        },
        "tidyTrace": [
            {
                "children": [
                    {
                        "children": [
                            {
                                "children": [],
                                "depth": 1,
                                "id": 1,
                                "order": 1
                            }
                        ],
                        "depth": 0,
                        "id": 0,
                        "order": 0
                    }
                ],
                "depth": -1,
                "id": -1,
                "order": -1
            }
        ],
        "tidyTraceNodeCount": 2
    },
    "state_change": {
        "stateChanges": [
            {
                "address": "0x74faab6986560fd1140508e4266d8a7b87274ffd",
                "erc": "ERC-20",
                "slots": [
                    {
                        "current": "0x00000000000000000000000000000000000000000000004912024b777cc70000",
                        "key": "0xb35eeda776010436a85c279dffdfba84c3279ceadb28a4bb906a6fb66e5d44e4",
                        "prev": "0x0000000000000000000000000000000000000000000000000000000000000000"
                    },
                    {
                        "current": "0x0000000000000000000000000000000000000000000041452ed0455d1bda0000",
                        "key": "0xa36b88538c0c6aee765a775c4febc6a5857ed42483fb476215d5dfb007a239d3",
                        "prev": "0x00000000000000000000000000000000000000000000418e40d290d498a10000"
                    }
                ],
                "storageVariables": [
                    {
                        "name": "_balances",
                        "type": "mapping(address => uint256)",
                        "value": {
                            "pairs": [
                                {
                                    "key": "0x0019231be68c83337e1da06cebdd102954b7d265",
                                    "value": {
                                        "current": "1347910000000000000000",
                                        "prev": "0",
                                        "typeTag": 1
                                    }
                                },
                                {
                                    "key": "0x48985974cc514110a92a5821c7ad9b992fcd2e32",
                                    "value": {
                                        "current": "308230020000000000000000",
                                        "prev": "309577930000000000000000",
                                        "typeTag": 1
                                    }
                                }
                            ],
                            "typeTag": 4
                        }
                    }
                ]
            }
        ]
    }
}