{
    "balance_change": {
        "balanceChanges": [
            {
                "account": "0xeb8500fadaa004da20dff01ffb03acee8db107e4",
                "assets": [
                    {
                        "address": "0xeeeeeeeeeeeeeeeeeeeeeeeeeeeeeeeeeeeeeeee",
                        "amount": "0.000527",
                        "iconUrl": "https://assets.blocksec.com/image/1663669189317-3.png",
                        "isERC1155": false,
                        "isERC721": false,
                        "sign": false,
                        "value": ""
                    }
                ]
            },
            {
                "account": "0xdd9fd6b6f8f7ea932997992bbe67eabb3e316f3c",
                "assets": [
                    {
                        "address": "0xeeeeeeeeeeeeeeeeeeeeeeeeeeeeeeeeeeeeeeee",
                        "amount": "0.00050592",
                        "iconUrl": "https://assets.blocksec.com/image/1663669189317-3.png",
                        "isERC1155": false,
                        "isERC721": false,
                        "sign": true,
                        "value": ""
                    }
                ]
            },
            {
                "account": "0x79f77200c65076c5b8494899097cf9ccd01c8293",
                "assets": [
                    {
                        "address": "0xeeeeeeeeeeeeeeeeeeeeeeeeeeeeeeeeeeeeeeee",
                        "amount": "0.00001054",
                        "iconUrl": "https://assets.blocksec.com/image/1663669189317-3.png",
                        "isERC1155": false,
                        "isERC721": false,
                        "sign": true,
                        "value": ""
                    }
                ]
            },
            {
                "account": "0xd71cbd05fc1935b21753991ee9c83bf21404a739",
                "assets": [
                    {
                        "address": "0xeeeeeeeeeeeeeeeeeeeeeeeeeeeeeeeeeeeeeeee",
                        "amount": "0.00001054",
                        "iconUrl": "https://assets.blocksec.com/image/1663669189317-3.png",
                        "isERC1155": false,
                        "isERC721": false,
                        "sign": true,
                        "value": ""
                    }
                ]
            }
        ]
    },
    "profile": {
        "basic_info": {
            "baseFee": "",
            "blockNumber": 6320975,
            "callData": "0x8f38f3090000000000000000000000000000000000000000000000000000000000000b840000000000000000000000000000000000000000000000000000000000000002",
            "debugEnable": true,
            "errorInfo": "",
            "eventCount": 2,
            "feeRecipient": "0xea674fdde714fd979de3edf0f56aa9716b898ec8",
            "formatValue": "0.000527",
            "gasLimit": 800000,
            "gasPrice": "10",
            "gasUsed": 200869,
            "intTxnCount": 2,
            "internalRevert": false,
            "internalRevertMessage": "",
            "isContractCreation": false,
            "isFlashloan": false,
            "maxFee": "",
            "nonce": 69,
            "overwritedBlockNumber": -1,
            "priorityFee": "",
            "receiver": "0xdd9fd6b6f8f7ea932997992bbe67eabb3e316f3c",
            "revertMessage": "",
            "sender": "0xeb8500fadaa004da20dff01ffb03acee8db107e4",
            "simulationEnable": true,
            "sourceTxnHash": "0xe9a90533620543a95d70c4594bdb49b0cd23e7ca4858e0c724529c71ad494716",
            "status": true,
            "timestamp": "2018-09-13T00:02:11Z",
            "transactionFee": "0.00200869",
            "txnHash": "0xe9a90533620543a95d70c4594bdb49b0cd23e7ca4858e0c724529c71ad494716",
            "txnIndex": 65,
            "type": 0,
            "value": "527000000000000"
        },
        "fund_flow": [
            {
                "amount": "0.000527",
                "from": "0xeb8500fadaa004da20dff01ffb03acee8db107e4",
                "id": 1,
                "isERC1155": false,
                "isERC721": false,
                "isReverted": false,
                "order": 1,
                "to": "0xdd9fd6b6f8f7ea932997992bbe67eabb3e316f3c",
                "token": "0xeeeeeeeeeeeeeeeeeeeeeeeeeeeeeeeeeeeeeeee"
            },
            {
                "amount": "0.00001054",
                "from": "0xdd9fd6b6f8f7ea932997992bbe67eabb3e316f3c",
                "id": 2,
                "isERC1155": false,
                "isERC721": false,
                "isReverted": false,
                "order": 2,
                "to": "0xd71cbd05fc1935b21753991ee9c83bf21404a739",
                "token": "0xeeeeeeeeeeeeeeeeeeeeeeeeeeeeeeeeeeeeeeee"
            },
            {
                "amount": "0.00001054",
                "from": "0xdd9fd6b6f8f7ea932997992bbe67eabb3e316f3c",
                "id": 3,
                "isERC1155": false,
                "isERC721": false,
                "isReverted": false,
                "order": 3,
                "to": "0x79f77200c65076c5b8494899097cf9ccd01c8293",
                "token": "0xeeeeeeeeeeeeeeeeeeeeeeeeeeeeeeeeeeeeeeee"
            }
        ],
        "token_infos": [
            {
                "address": "0xc02aaa39b223fe8d0a0e5c4f27ead9083c756cc2",
                "decimals": 18
            },
            {
                "address": "0xeeeeeeeeeeeeeeeeeeeeeeeeeeeeeeeeeeeeeeee",
                "decimals": 18
            }
        ]
    },
    "address_label": {
        "labels": [
            {
                "address": "0x0000000000000000000000000000000000000003",
                "label": "Precompiled"
            },
            {
                "address": "0x0000000000000000000000000000000000000004",
                "label": "Precompiled"
            },
            {
                "address": "0xeeeeeeeeeeeeeeeeeeeeeeeeeeeeeeeeeeeeeeee",
                "label": "Ether"
            },
            {
                "address": "0x0000000000000000000000000000000000000001",
                "label": "Precompiled"
            },
            {
                "address": "0x0000000000000000000000000000000000000002",
                "label": "Precompiled"
            }
        ]
    },
    "trace": {
        "accountLabels": null,
        "dataMap": {
            "-1": {
                "invocation": {
                    "address": "0xeb8500fadaa004da20dff01ffb03acee8db107e4",
                    "callData": "",
                    "decodedMethod": null,
                    "errorInfo": "",
                    "fromAddress": "",
                    "gasUsed": 0,
                    "id": -1,
                    "methodDecoded": false,
                    "operation": "",
                    "output": "",
                    "revert": false,
                    "revertMessage": "",
                    "selector": "",
                    "status": false,
                    "value": ""
                },
                "nodeType": 0
            },
            "0": {
                "invocation": {
                    "address": "0xdd9fd6b6f8f7ea932997992bbe67eabb3e316f3c",
                    "callData": "0x0000000000000000000000000000000000000000000000000000000000000b840000000000000000000000000000000000000000000000000000000000000002",
                    "decodedMethod": {
                        "callParams": [
                            {
                                "name": "_affCode",
                                "type": "uint256",
                                "value": "2,948"
                            },
                            {
                                "name": "_team",
                                "type": "uint256",
                                "value": "2"
                            }
                        ],
                        "constructorArguments": "",
                        "name": "buyXid",
                        "returnParams": [],
                        "signature": "buyXid(uint256,uint256)"
                    },
                    "errorInfo": "",
                    "fromAddress": "0xeb8500fadaa004da20dff01ffb03acee8db107e4",
                    "gasUsed": 200869,
                    "id": 0,
                    "methodDecoded": true,
                    "operation": "CALL",
                    "output": "",
                    "revert": false,
                    "revertMessage": "",
                    "selector": "0x8f38f309",
                    "status": true,
                    "value": "0.000527"
                },
                "nodeType": 0
            },
            "1": {
                "invocation": {
                    "address": "0xd71cbd05fc1935b21753991ee9c83bf21404a739",
                    "callData": "0x",
                    "decodedMethod": null,
                    "errorInfo": "",
                    "fromAddress": "0xdd9fd6b6f8f7ea932997992bbe67eabb3e316f3c",
                    "gasUsed": 0,
                    "id": 1,
                    "methodDecoded": false,
                    "operation": "CALL",
                    "output": "",
                    "revert": false,
                    "revertMessage": "",
                    "selector": "fallback",
                    "status": true,
                    "value": "0.00001054"
                },
                "nodeType": 0
            },
            "2": {
                "invocation": {
                    "address": "0x79f77200c65076c5b8494899097cf9ccd01c8293",
                    "callData": "0x",
                    "decodedMethod": null,
                    "errorInfo": "",
                    "fromAddress": "0xdd9fd6b6f8f7ea932997992bbe67eabb3e316f3c",
                    "gasUsed": 0,
                    "id": 2,
                    "methodDecoded": false,
                    "operation": "CALL",
                    "output": "",
                    "revert": false,
                    "revertMessage": "",
                    "selector": "fallback",
                    "status": true,
                    "value": "0.00001054"
                },
                "nodeType": 0
            },
            "3": {
                "event": {
                    "contract": "0xdd9fd6b6f8f7ea932997992bbe67eabb3e316f3c",
                    "decodedLog": {
                        "name": "onAffiliatePayout",
                        "params": [
                            {
                                "name": "affiliateID",
                                "type": "uint256",
                                "value": "2,948"
                            },
                            {
                                "name": "roundID",
                                "type": "uint256",
                                "value": "8"
                            },
                            {
                                "name": "buyerID",
                                "type": "uint256",
                                "value": "78,530"
                            },
                            {
                                "name": "affiliateAddress",
                                "type": "address",
                                "value": "0xd4e428b71f511ee1a25c63318dc11a3cbb29939a"
                            },
                            {
                                "name": "affiliateName",
                                "type": "bytes32",
                                "value": "0x6263726a707a616d6962786167716e3135333335373034343635313000000000"
                            },
                            {
                                "name": "amount",
                                "type": "uint256",
                                "value": "52,700,000,000,000"
                            },
                            {
                                "name": "timeStamp",
                                "type": "uint256",
                                "value": "1,536,796,931"
                            }
                        ],
                        "signature": "onAffiliatePayout(uint256,address,bytes32,uint256,uint256,uint256,uint256)"
                    },
                    "id": 3,
                    "logData": "0x000000000000000000000000d4e428b71f511ee1a25c63318dc11a3cbb29939a6263726a707a616d6962786167716e313533333537303434363531300000000000000000000000000000000000000000000000000000000000002fee2cc79800000000000000000000000000000000000000000000000000000000005b99a903",
                    "logDecoded": true,
                    "operation": "EVENT",
                    "revert": false,
                    "status": true,
                    "topics": [
                        "0x590bbc0fc16915a85269a48f74783c39842b7ae9eceb7c295c95dbe8b3ec7331",
                        "0x0000000000000000000000000000000000000000000000000000000000000b84",
                        "0x0000000000000000000000000000000000000000000000000000000000000008",
                        "0x00000000000000000000000000000000000000000000000000000000000132c2"
                    ]
                },
                "nodeType": 1
            },
            "4": {
                "event": {
                    "contract": "0xdd9fd6b6f8f7ea932997992bbe67eabb3e316f3c",
                    "decodedLog": {
                        "name": "onEndTx",
                        "params": [
                            {
                                "name": "compressedData",
                                "type": "uint256",
                                "value": "201,536,796,931,000,000,000,000,000,100"
                            },
                            {
                                "name": "compressedIDs",
                                "type": "uint256",
                                "value": "80,000,000,000,000,000,000,000,000,000,000,000,000,000,000,000,078,530"
                            },
                            {
                                "name": "playerName",
                                "type": "bytes32",
                                "value": "0x0000000000000000000000000000000000000000000000000000000000000000"
                            },
                            {
                                "name": "playerAddress",
                                "type": "address",
                                "value": "0xeb8500fadaa004da20dff01ffb03acee8db107e4"
                            },
                            {
                                "name": "ethIn",
                                "type": "uint256",
                                "value": "527,000,000,000,000"
                            },
                            {
                                "name": "keysBought",
                                "type": "uint256",
                                "value": "1,000,317,727,643,860,536"
                            },
                            {
                                "name": "winnerAddr",
                                "type": "address",
                                "value": "0x0000000000000000000000000000000000000000"
                            },
                            {
                                "name": "winnerName",
                                "type": "bytes32",
                                "value": "0x0000000000000000000000000000000000000000000000000000000000000000"
                            },
                            {
                                "name": "amountWon",
                                "type": "uint256",
                                "value": "0"
                            },
                            {
                                "name": "newPot",
                                "type": "uint256",
                                "value": "0"
                            },
                            {
                                "name": "P3DAmount",
                                "type": "uint256",
                                "value": "0"
                            },
                            {
                                "name": "genAmount",
                                "type": "uint256",
                                "value": "194,989,999,358,208"
                            },
                            {
                                "name": "potAmount",
                                "type": "uint256",
                                "value": "189,720,000,000,000"
                            },
                            {
                                "name": "airDropPot",
                                "type": "uint256",
                                "value": "951,182,152,766,305,624"
                            }
                        ],
                        "signature": "onEndTx(uint256,uint256,bytes32,address,uint256,uint256,address,bytes32,uint256,uint256,uint256,uint256,uint256,uint256)"
                    },
                    "id": 4,
                    "logData": "0x00000000000000000000000000000000000000028b3354c56b0283f53a2c006400000000000000000000d5d238a4abe9806872a4904598d6d8800000000132c20000000000000000000000000000000000000000000000000000000000000000000000000000000000000000eb8500fadaa004da20dff01ffb03acee8db107e40000000000000000000000000000000000000000000000000001df4dbfcbf0000000000000000000000000000000000000000000000000000de1d7ac62bcfe38000000000000000000000000000000000000000000000000000000000000000000000000000000000000000000000000000000000000000000000000000000000000000000000000000000000000000000000000000000000000000000000000000000000000000000000000000000000000000000000000000000000000000000000000000000000000000000000000000000000000000000000000000000000000000000000000000000000000000000000000000000000000b157a5a581000000000000000000000000000000000000000000000000000000ac8ca134f0000000000000000000000000000000000000000000000000000d334720dc53b558",
                    "logDecoded": true,
                    "operation": "EVENT",
                    "revert": false,
                    "status": true,
                    "topics": [
                        "0x500e72a0e114930aebdbcb371ccdbf43922c49f979794b5de4257ff7e310c746"
                    ]
                },
                "nodeType": 1
            }
        },
        "gasFlame": [
            {
                "children": [
                    {
                        "children": [
                            {
                                "children": [],
                                "depth": 0,
                                "name": "Initial Gas",
                                "value": 21720
                            },
                            {
                                "children": [
                                    {
                                        "children": [],
                                        "depth": 1,
                                        "name": "fallback",
                                        "value": 0
                                    },
                                    {
                                        "children": [],
                                        "depth": 1,
                                        "name": "fallback",
                                        "value": 0
                                    }
                                ],
                                "depth": 0,
                                "name": "Executed Gas",
                                "value": 179149
                            }
                        ],
                        "depth": -1,
                        "name": "Actual Gas Used",
                        "value": 200869
                    },
                    {
                        "children": [],
                        "depth": -1,
                        "name": "Refunded Gas",
                        "value": 0
                    }
                ],
                "depth": -2,
                "name": "Total Gas",
                "value": 200869
            }
        ],
        "isConfirmed": true,
        "mainTrace": [
            {
                "children": [
                    {
                        "children": [
                            {
                                "children": [],
                                "depth": 1,
                                "id": 1,
                                "order": 1
                            },
                            {
                                "children": [],
                                "depth": 1,
                                "id": 2,
                                "order": 2
                            },
                            {
                                "children": [],
                                "depth": 1,
                                "id": 3,
                                "order": 3
                            },
                            {
                                "children": [],
                                "depth": 1,
                                "id": 4,
                                "order": 4
                            }
                        ],
                        "depth": 0,
                        "id": 0,
                        "order": 0
                    }
                ],
                "depth": -1,
                "id": -1,
                "order": -1
            }
        ],
        "mainTraceNodeCount": 5,
        "parentIdMap": {
            "0": -1,
            "1": 0,
            "2": 0,
            "3": 0,
            "4": 0
        },
        "tidyTrace": [
            {
                "children": [
                    {
                        "children": [
                            {
                                "children": [],
                                "depth": 1,
                                "id": 1,
                                "order": 1
                            },
                            {
                                "children": [],
                                "depth": 1,
                                "id": 2,
                                "order": 2
                            },
                            {
                                "children": [],
                                "depth": 1,
                                "id": 3,
                                "order": 3
                            },
                            {
                                "children": [],
                                "depth": 1,
                                "id": 4,
                                "order": 4
                            }
                        ],
                        "depth": 0,
                        "id": 0,
                        "order": 0
                    }
                ],
                "depth": -1,
                "id": -1,
                "order": -1
            }
        ],
        "tidyTraceNodeCount": 5
    },
    "state_change": {
        "stateChanges": [
            {
                "address": "0xdd9fd6b6f8f7ea932997992bbe67eabb3e316f3c",
                "erc": "",
                "slots": [
                    {
                        "current": "0x00000000000000000000000000000000000000000000000ed617d9fd91c8edd3",
                        "key": "0x0b705463cf5f7356780ee6e96132d37412c1b5816a4d207b8dcd42c34976745f",
                        "prev": "0x00000000000000000000000000000000000000000000000ed6172d70f08a32d3"
                    },
                    {
                        "current": "0x000000000000000000000000000000000000000000026458fb4ba2e70799d04e",
                        "key": "0x0b705463cf5f7356780ee6e96132d37412c1b5816a4d207b8dcd42c34976745d",
                        "prev": "0x000000000000000000000000000000000000000000026458ed69cb3aa4dcd216"
                    },
                    {
                        "current": "0x00000000000000000000000000000000000000000000000000000000000132c2",
                        "key": "0x0b705463cf5f7356780ee6e96132d37412c1b5816a4d207b8dcd42c349767457",
                        "prev": "0x0000000000000000000000000000000000000000000000000000000000017ec2"
                    },
                    {
                        "current": "0x00000000000000000000000000000000000000000000000000af4d8f95029000",
                        "key": "0x3f77118d50935d98a498f48ef342a9d63edb65e35f4ce0ea5927ff9786bc96c7",
                        "prev": "0x00000000000000000000000000000000000000000000000000af1da1683af800"
                    },
                    {
                        "current": "0x000000000000000000000000000000000000000000000000030e4ccbcda5cc00",
                        "key": "0xfb0a17fe11263f3496fc03b840c9ad784d1d6ce28b7f1a429d46ccae4e935189",
                        "prev": "0x000000000000000000000000000000000000000000000000030e3e6ac036b800"
                    },
                    {
                        "current": "0x0000000000000000000000000000000000000000000000000d334720dc53b558",
                        "key": "0x0000000000000000000000000000000000000000000000000000000000000005",
                        "prev": "0x0000000000000000000000000000000000000000000000000d331732af8c1d58"
                    },
                    {
                        "current": "0x000000000000000000000000000000000000000000000000006d24f8d8c5f7a3",
                        "key": "0xa6d488eb8f60fcf8b5d8f725693ee3f83da9d9ecdb7bd3eee30d46b0a64b2a8c",
                        "prev": "0x000000000000000000000000000000000000000000000000006b6a02f0cabc1f"
                    },
                    {
                        "current": "0x000000000000000000000000000000000000000000000005768d04de374c0a01",
                        "key": "0xde8f6a4d46c13e8abd16df2a154302ced4a1320aabed100cb2d37cba51d186fe",
                        "prev": "0x000000000000000000000000000000000000000000000005768b259077801a01"
                    },
                    {
                        "current": "0x000000000000000000000000000000000000000000000000000000005b99a9bc",
                        "key": "0x0b705463cf5f7356780ee6e96132d37412c1b5816a4d207b8dcd42c34976745a",
                        "prev": "0x000000000000000000000000000000000000000000000000000000005b99a9b7"
                    },
                    {
                        "current": "0x0000000000000000000000000000000000000000000000000000000000000002",
                        "key": "0x0b705463cf5f7356780ee6e96132d37412c1b5816a4d207b8dcd42c349767458",
                        "prev": "0x0000000000000000000000000000000000000000000000000000000000000000"
                    },
                    {
                        "current": "0x000000000000000000000000eb8500fadaa004da20dff01ffb03acee8db107e4",
                        "key": "0x0b705463cf5f7356780ee6e96132d37412c1b5816a4d207b8dcd42c349767459",
                        "prev": "0x000000000000000000000000cd10b8e0be9f9ceb1af66c503a96a75b829d6a3f"
                    },
                    {
                        "current": "0x00000000000000000000000000000000000000000000002f2c03f59d88b36b40",
                        "key": "0x0b705463cf5f7356780ee6e96132d37412c1b5816a4d207b8dcd42c34976745e",
                        "prev": "0x00000000000000000000000000000000000000000000002f2c02164fc8e77b40"
                    },
                    {
                        "current": "0x00000000000000000000000000000000000000000000000373af5bc96b5113c1",
                        "key": "0xa6d488eb8f60fcf8b5d8f725693ee3f83da9d9ecdb7bd3eee30d46b0a64b2a8b",
                        "prev": "0x00000000000000000000000000000000000000000000000365cd841d08941589"
                    },
                    {
                        "current": "0x000000000000000000000000000000000000000000000000007517205a81e000",
                        "key": "0xa6d488eb8f60fcf8b5d8f725693ee3f83da9d9ecdb7bd3eee30d46b0a64b2a8a",
                        "prev": "0x000000000000000000000000000000000000000000000000007337d29ab5f000"
                    },
                    {
                        "current": "0x0000000000000000000000000000000000000000000000000001bad1e7570417",
                        "key": "0x0b705463cf5f7356780ee6e96132d37412c1b5816a4d207b8dcd42c349767460",
                        "prev": "0x0000000000000000000000000000000000000000000000000001bad1e3521cc1"
                    }
                ],
                "storageVariables": []
            }
        ]
    }
}