{
    "balance_change": {
        "balanceChanges": [
            {
                "account": "0xa9d0cfa7d9dce854245a5701e0e9643aa109c06a",
                "assets": [
                    {
                        "address": "0xabe580e7ee158da464b51ee1a83ac0289622e6be",
                        "amount": "1,000.222708144360554414",
                        "iconUrl": "https://assets.blocksec.com/icon/9cdf016748f5e3429a738215e2e5f29aacee24fbb4aea5900878efc417c0b4db.png",
                        "isERC1155": false,
                        "isERC721": false,
                        "sign": false,
                        "value": "585.1645694"
                    },
                    {
                        "address": "0x1712aad2c773ee04bdc9114b32163c058321cd85",
                        "amount": "88.720295887056105302",
                        "iconUrl": "",
                        "isERC1155": false,
                        "isERC721": false,
                        "sign": true,
                        "value": "563.3706561"
                    }
                ]
            },
            {
                "account": "0x2b9e92a5b6e69db9fedc47a4c656c9395e8a26d2",
                "assets": [
                    {
                        "address": "0xabe580e7ee158da464b51ee1a83ac0289622e6be",
                        "amount": "1,000.222708144360554414",
                        "iconUrl": "https://assets.blocksec.com/icon/9cdf016748f5e3429a738215e2e5f29aacee24fbb4aea5900878efc417c0b4db.png",
                        "isERC1155": false,
                        "isERC721": false,
                        "sign": true,
                        "value": "585.1645694"
                    },
                    {
                        "address": "0xc02aaa39b223fe8d0a0e5c4f27ead9083c756cc2",
                        "amount": "1.420923144861536626",
                        "iconUrl": "https://assets.blocksec.com/icon/f1cb2d02c471d545bbc7722daf3277fd852d98e63d118771af7047bd8256c516.png",
                        "isERC1155": false,
                        "isERC721": false,
                        "sign": false,
                        "value": "519.3490648729639456"
                    }
                ]
            },
            {
                "account": "0x6ebb1c40cd3789e6fc02f003b2416383ea5c96f4",
                "assets": [
                    {
                        "address": "0xc02aaa39b223fe8d0a0e5c4f27ead9083c756cc2",
                        "amount": "1.420923144861536626",
                        "iconUrl": "https://assets.blocksec.com/icon/f1cb2d02c471d545bbc7722daf3277fd852d98e63d118771af7047bd8256c516.png",
                        "isERC1155": false,
                        "isERC721": false,
                        "sign": true,
                        "value": "519.3490648729639456"
                    },
                    {
                        "address": "0x1712aad2c773ee04bdc9114b32163c058321cd85",
                        "amount": "88.720295887056105302",
                        "iconUrl": "",
                        "isERC1155": false,
                        "isERC721": false,
                        "sign": false,
                        "value": "563.3706561"
                    }
                ]
            }
        ]
    },
    "profile": {
        "basic_info": {
            "baseFee": "",
            "blockNumber": 11122210,
            "callData": "0x38ed173900000000000000000000000000000000000000000000003638e0e5a677d27fae000000000000000000000000000000000000000000000004c30d09d4a8903b8a00000000000000000000000000000000000000000000000000000000000000a0000000000000000000000000a9d0cfa7d9dce854245a5701e0e9643aa109c06a000000000000000000000000000000000000000000000000000000005f94c3100000000000000000000000000000000000000000000000000000000000000003000000000000000000000000abe580e7ee158da464b51ee1a83ac0289622e6be000000000000000000000000c02aaa39b223fe8d0a0e5c4f27ead9083c756cc20000000000000000000000001712aad2c773ee04bdc9114b32163c058321cd85",
            "debugEnable": true,
            "errorInfo": "",
            "eventCount": 7,
            "feeRecipient": "0x5a0b54d5dc17e0aadc383d2db43b0a0d3e029c4c",
            "formatValue": "0",
            "gasLimit": 203618,
            "gasPrice": "16.5",
            "gasUsed": 174830,
            "intTxnCount": 11,
            "internalRevert": false,
            "internalRevertMessage": "",
            "isContractCreation": false,
            "isFlashloan": false,
            "maxFee": "",
            "nonce": 233,
            "overwritedBlockNumber": -1,
            "priorityFee": "",
            "receiver": "0x7a250d5630b4cf539739df2c5dacb4c659f2488d",
            "revertMessage": "",
            "sender": "0xa9d0cfa7d9dce854245a5701e0e9643aa109c06a",
            "simulationEnable": true,
            "sourceTxnHash": "0xe9d4be85b8cabd6e605808f9ea3e11694e50a2460de0c9b7c466c9ee06764ca2",
            "status": true,
            "timestamp": "2020-10-24T23:54:47Z",
            "transactionFee": "0.002884695",
            "txnHash": "0xe9d4be85b8cabd6e605808f9ea3e11694e50a2460de0c9b7c466c9ee06764ca2",
            "txnIndex": 36,
            "type": 0,
            "value": "0"
        },
        "fund_flow": [
            {
                "amount": "1,000.222708144360554414",
                "from": "0xa9d0cfa7d9dce854245a5701e0e9643aa109c06a",
                "id": 1,
                "isERC1155": false,
                "isERC721": false,
                "isReverted": false,
                "order": 1,
                "to": "0x2b9e92a5b6e69db9fedc47a4c656c9395e8a26d2",
                "token": "0xabe580e7ee158da464b51ee1a83ac0289622e6be"
            },
            {
                "amount": "1.420923144861536626",
                "from": "0x2b9e92a5b6e69db9fedc47a4c656c9395e8a26d2",
                "id": 2,
                "isERC1155": false,
                "isERC721": false,
                "isReverted": false,
                "order": 2,
                "to": "0x6ebb1c40cd3789e6fc02f003b2416383ea5c96f4",
                "token": "0xc02aaa39b223fe8d0a0e5c4f27ead9083c756cc2"
            },
            {
                "amount": "88.720295887056105302",
                "from": "0x6ebb1c40cd3789e6fc02f003b2416383ea5c96f4",
                "id": 3,
                "isERC1155": false,
                "isERC721": false,
                "isReverted": false,
                "order": 3,
                "to": "0xa9d0cfa7d9dce854245a5701e0e9643aa109c06a",
                "token": "0x1712aad2c773ee04bdc9114b32163c058321cd85"
            }
        ],
        "token_infos": [
            {
                "address": "0xc02aaa39b223fe8d0a0e5c4f27ead9083c756cc2",
                "decimals": 18
            },
            {
                "address": "0xeeeeeeeeeeeeeeeeeeeeeeeeeeeeeeeeeeeeeeee",
                "decimals": 18
            },
            {
                "address": "0x1712aad2c773ee04bdc9114b32163c058321cd85",
                "decimals": 18
            },
            {
                "address": "0xabe580e7ee158da464b51ee1a83ac0289622e6be",
                "decimals": 18
            }
        ]
    },
    "address_label": {
        "labels": [
            {
                "address": "0xeeeeeeeeeeeeeeeeeeeeeeeeeeeeeeeeeeeeeeee",
                "label": "Ether"
            },
            {
                "address": "0x6ebb1c40cd3789e6fc02f003b2416383ea5c96f4",
                "label": "Uniswap V2: LIMIT"
            },
            {
                "address": "0x0000000000000000000000000000000000000002",
                "label": "Precompiled"
            },
            {
                "address": "0x0000000000000000000000000000000000000003",
                "label": "Precompiled"
            },
            {
                "address": "0x1712aad2c773ee04bdc9114b32163c058321cd85",
                "label": "LimitSwap: LIMIT Token"
            },
            {
                "address": "0x7a250d5630b4cf539739df2c5dacb4c659f2488d",
                "label": "Uniswap V2: Router 2"
            },
            {
                "address": "0xc02aaa39b223fe8d0a0e5c4f27ead9083c756cc2",
                "label": "Wrapped Ether (WETH)"
            },
            {
                "address": "0x2b9e92a5b6e69db9fedc47a4c656c9395e8a26d2",
                "label": "Uniswap V2: XFT"
            },
            {
                "address": "0xabe580e7ee158da464b51ee1a83ac0289622e6be",
                "label": "Offshift: XFT Token"
            },
            {
                "address": "0x0000000000000000000000000000000000000001",
                "label": "Precompiled"
            },
            {
                "address": "0x0000000000000000000000000000000000000004",
                "label": "Precompiled"
            }
        ]
    },
    "trace": {
        "accountLabels": null,
        "dataMap": {
            "-1": {
                "invocation": {
                    "address": "0xa9d0cfa7d9dce854245a5701e0e9643aa109c06a",
                    "callData": "",
                    "decodedMethod": null,
                    "errorInfo": "",
                    "fromAddress": "",
                    "gasUsed": 0,
                    "id": -1,
                    "methodDecoded": false,
                    "operation": "",
                    "output": "",
                    "revert": false,
                    "revertMessage": "",
                    "selector": "",
                    "status": false,
                    "value": ""
                },
                "nodeType": 0
            },
            "0": {
                "invocation": {
                    "address": "0x7a250d5630b4cf539739df2c5dacb4c659f2488d",
                    "callData": "0x00000000000000000000000000000000000000000000003638e0e5a677d27fae000000000000000000000000000000000000000000000004c30d09d4a8903b8a00000000000000000000000000000000000000000000000000000000000000a0000000000000000000000000a9d0cfa7d9dce854245a5701e0e9643aa109c06a000000000000000000000000000000000000000000000000000000005f94c3100000000000000000000000000000000000000000000000000000000000000003000000000000000000000000abe580e7ee158da464b51ee1a83ac0289622e6be000000000000000000000000c02aaa39b223fe8d0a0e5c4f27ead9083c756cc20000000000000000000000001712aad2c773ee04bdc9114b32163c058321cd85",
                    "decodedMethod": {
                        "callParams": [
                            {
                                "name": "amountIn",
                                "type": "uint256",
                                "value": "1,000,222,708,144,360,554,414"
                            },
                            {
                                "name": "amountOutMin",
                                "type": "uint256",
                                "value": "87,841,877,115,897,133,962"
                            },
                            {
                                "name": "path",
                                "type": "address[]",
                                "value": [
                                    "0xabe580e7ee158da464b51ee1a83ac0289622e6be",
                                    "0xc02aaa39b223fe8d0a0e5c4f27ead9083c756cc2",
                                    "0x1712aad2c773ee04bdc9114b32163c058321cd85"
                                ]
                            },
                            {
                                "name": "to",
                                "type": "address",
                                "value": "0xa9d0cfa7d9dce854245a5701e0e9643aa109c06a"
                            },
                            {
                                "name": "deadline",
                                "type": "uint256",
                                "value": "1,603,584,784"
                            }
                        ],
                        "constructorArguments": "",
                        "name": "swapExactTokensForTokens",
                        "returnParams": [
                            {
                                "name": "amounts",
                                "type": "uint256[]",
                                "value": [
                                    "1,000,222,708,144,360,554,414",
                                    "1,420,923,144,861,536,626",
                                    "88,720,295,887,056,105,302"
                                ]
                            }
                        ],
                        "signature": "swapExactTokensForTokens(uint256,uint256,address[],address,uint256)"
                    },
                    "errorInfo": "",
                    "fromAddress": "0xa9d0cfa7d9dce854245a5701e0e9643aa109c06a",
                    "gasUsed": 174830,
                    "id": 0,
                    "methodDecoded": true,
                    "operation": "CALL",
                    "output": "0x0000000000000000000000000000000000000000000000000000000000000020000000000000000000000000000000000000000000000000000000000000000300000000000000000000000000000000000000000000003638e0e5a677d27fae00000000000000000000000000000000000000000000000013b82212669a5172000000000000000000000000000000000000000000000004cf3dcf0c8b876f56",
                    "revert": false,
                    "revertMessage": "",
                    "selector": "0x38ed1739",
                    "status": true,
                    "value": "0"
                },
                "nodeType": 0
            },
            "1": {
                "invocation": {
                    "address": "0x2b9e92a5b6e69db9fedc47a4c656c9395e8a26d2",
                    "callData": "0x",
                    "decodedMethod": {
                        "callParams": [],
                        "constructorArguments": "",
                        "name": "getReserves",
                        "returnParams": [
                            {
                                "name": "_reserve0",
                                "type": "uint112",
                                "value": "197,986,020,897,529,375,209,929"
                            },
                            {
                                "name": "_reserve1",
                                "type": "uint112",
                                "value": "283,527,523,442,943,274,378"
                            },
                            {
                                "name": "_blockTimestampLast",
                                "type": "uint32",
                                "value": "1,603,581,553"
                            }
                        ],
                        "signature": "getReserves()"
                    },
                    "errorInfo": "",
                    "fromAddress": "0x7a250d5630b4cf539739df2c5dacb4c659f2488d",
                    "gasUsed": 1204,
                    "id": 1,
                    "methodDecoded": true,
                    "operation": "STATICCALL",
                    "output": "0x0000000000000000000000000000000000000000000029ecd7fca7683f5fb9c900000000000000000000000000000000000000000000000f5ebc1c60cedf2d8a000000000000000000000000000000000000000000000000000000005f94b671",
                    "revert": false,
                    "revertMessage": "",
                    "selector": "0x0902f1ac",
                    "status": true,
                    "value": "0"
                },
                "nodeType": 0
            },
            "10": {
                "event": {
                    "contract": "0x2b9e92a5b6e69db9fedc47a4c656c9395e8a26d2",
                    "decodedLog": {
                        "name": "Sync",
                        "params": [
                            {
                                "name": "reserve0",
                                "type": "uint112",
                                "value": "198,986,243,605,673,735,764,343"
                            },
                            {
                                "name": "reserve1",
                                "type": "uint112",
                                "value": "282,106,600,298,081,737,752"
                            }
                        ],
                        "signature": "Sync(uint112,uint112)"
                    },
                    "id": 10,
                    "logData": "0x000000000000000000000000000000000000000000002a2310dd8d0eb732397700000000000000000000000000000000000000000000000f4b03fa4e6844dc18",
                    "logDecoded": true,
                    "operation": "EVENT",
                    "revert": false,
                    "status": true,
                    "topics": [
                        "0x1c411e9a96e071241c2f21f7726b17ae89e3cab4c78be50e062b03a9fffbbad1"
                    ]
                },
                "nodeType": 1
            },
            "11": {
                "event": {
                    "contract": "0x2b9e92a5b6e69db9fedc47a4c656c9395e8a26d2",
                    "decodedLog": {
                        "name": "Swap",
                        "params": [
                            {
                                "name": "sender",
                                "type": "address",
                                "value": "0x7a250d5630b4cf539739df2c5dacb4c659f2488d"
                            },
                            {
                                "name": "to",
                                "type": "address",
                                "value": "0x6ebb1c40cd3789e6fc02f003b2416383ea5c96f4"
                            },
                            {
                                "name": "amount0In",
                                "type": "uint256",
                                "value": "1,000,222,708,144,360,554,414"
                            },
                            {
                                "name": "amount1In",
                                "type": "uint256",
                                "value": "0"
                            },
                            {
                                "name": "amount0Out",
                                "type": "uint256",
                                "value": "0"
                            },
                            {
                                "name": "amount1Out",
                                "type": "uint256",
                                "value": "1,420,923,144,861,536,626"
                            }
                        ],
                        "signature": "Swap(address,uint256,uint256,uint256,uint256,address)"
                    },
                    "id": 11,
                    "logData": "0x00000000000000000000000000000000000000000000003638e0e5a677d27fae0000000000000000000000000000000000000000000000000000000000000000000000000000000000000000000000000000000000000000000000000000000000000000000000000000000000000000000000000000000013b82212669a5172",
                    "logDecoded": true,
                    "operation": "EVENT",
                    "revert": false,
                    "status": true,
                    "topics": [
                        "0xd78ad95fa46c994b6551d0da85fc275fe613ce37657fb8d5e3d130840159d822",
                        "0x0000000000000000000000007a250d5630b4cf539739df2c5dacb4c659f2488d",
                        "0x0000000000000000000000006ebb1c40cd3789e6fc02f003b2416383ea5c96f4"
                    ]
                },
                "nodeType": 1
            },
            "12": {
                "invocation": {
                    "address": "0x6ebb1c40cd3789e6fc02f003b2416383ea5c96f4",
                    "callData": "0x000000000000000000000000000000000000000000000004cf3dcf0c8b876f560000000000000000000000000000000000000000000000000000000000000000000000000000000000000000a9d0cfa7d9dce854245a5701e0e9643aa109c06a00000000000000000000000000000000000000000000000000000000000000800000000000000000000000000000000000000000000000000000000000000000",
                    "decodedMethod": {
                        "callParams": [
                            {
                                "name": "amount0Out",
                                "type": "uint256",
                                "value": "88,720,295,887,056,105,302"
                            },
                            {
                                "name": "amount1Out",
                                "type": "uint256",
                                "value": "0"
                            },
                            {
                                "name": "to",
                                "type": "address",
                                "value": "0xa9d0cfa7d9dce854245a5701e0e9643aa109c06a"
                            },
                            {
                                "name": "data",
                                "type": "bytes",
                                "value": "0x"
                            }
                        ],
                        "constructorArguments": "",
                        "name": "swap",
                        "returnParams": [],
                        "signature": "swap(uint256,uint256,address,bytes)"
                    },
                    "errorInfo": "",
                    "fromAddress": "0x7a250d5630b4cf539739df2c5dacb4c659f2488d",
                    "gasUsed": 57106,
                    "id": 12,
                    "methodDecoded": true,
                    "operation": "CALL",
                    "output": "",
                    "revert": false,
                    "revertMessage": "",
                    "selector": "0x022c0d9f",
                    "status": true,
                    "value": "0"
                },
                "nodeType": 0
            },
            "13": {
                "invocation": {
                    "address": "0x1712aad2c773ee04bdc9114b32163c058321cd85",
                    "callData": "0x000000000000000000000000a9d0cfa7d9dce854245a5701e0e9643aa109c06a000000000000000000000000000000000000000000000004cf3dcf0c8b876f56",
                    "decodedMethod": {
                        "callParams": [
                            {
                                "name": "to",
                                "type": "address",
                                "value": "0xa9d0cfa7d9dce854245a5701e0e9643aa109c06a"
                            },
                            {
                                "decimalAvailable": true,
                                "name": "value",
                                "type": "uint256",
                                "value": "88,720,295,887,056,105,302"
                            }
                        ],
                        "constructorArguments": "",
                        "name": "transfer",
                        "returnParams": [
                            {
                                "name": "",
                                "type": "bool",
                                "value": true
                            }
                        ],
                        "signature": "transfer(address,uint256)"
                    },
                    "errorInfo": "",
                    "fromAddress": "0x6ebb1c40cd3789e6fc02f003b2416383ea5c96f4",
                    "gasUsed": 15571,
                    "id": 13,
                    "methodDecoded": true,
                    "operation": "CALL",
                    "output": "0x0000000000000000000000000000000000000000000000000000000000000001",
                    "revert": false,
                    "revertMessage": "",
                    "selector": "0xa9059cbb",
                    "status": true,
                    "value": "0"
                },
                "nodeType": 0
            },
            "14": {
                "event": {
                    "contract": "0x1712aad2c773ee04bdc9114b32163c058321cd85",
                    "decodedLog": {
                        "name": "Transfer",
                        "params": [
                            {
                                "name": "from",
                                "type": "address",
                                "value": "0x6ebb1c40cd3789e6fc02f003b2416383ea5c96f4"
                            },
                            {
                                "name": "to",
                                "type": "address",
                                "value": "0xa9d0cfa7d9dce854245a5701e0e9643aa109c06a"
                            },
                            {
                                "decimalAvailable": true,
                                "name": "value",
                                "type": "uint256",
                                "value": "88,720,295,887,056,105,302"
                            }
                        ],
                        "signature": "Transfer(address,address,uint256)"
                    },
                    "id": 14,
                    "logData": "0x000000000000000000000000000000000000000000000004cf3dcf0c8b876f56",
                    "logDecoded": true,
                    "operation": "EVENT",
                    "revert": false,
                    "status": true,
                    "topics": [
                        "0xddf252ad1be2c89b69c2b068fc378daa952ba7f163c4a11628f55a4df523b3ef",
                        "0x0000000000000000000000006ebb1c40cd3789e6fc02f003b2416383ea5c96f4",
                        "0x000000000000000000000000a9d0cfa7d9dce854245a5701e0e9643aa109c06a"
                    ]
                },
                "nodeType": 1
            },
            "15": {
                "invocation": {
                    "address": "0x1712aad2c773ee04bdc9114b32163c058321cd85",
                    "callData": "0x0000000000000000000000006ebb1c40cd3789e6fc02f003b2416383ea5c96f4",
                    "decodedMethod": {
                        "callParams": [
                            {
                                "name": "account",
                                "type": "address",
                                "value": "0x6ebb1c40cd3789e6fc02f003b2416383ea5c96f4"
                            }
                        ],
                        "constructorArguments": "",
                        "name": "balanceOf",
                        "returnParams": [
                            {
                                "decimalAvailable": true,
                                "name": "",
                                "type": "uint256",
                                "value": "5,457,886,305,035,159,546,178"
                            }
                        ],
                        "signature": "balanceOf(address)"
                    },
                    "errorInfo": "",
                    "fromAddress": "0x6ebb1c40cd3789e6fc02f003b2416383ea5c96f4",
                    "gasUsed": 1278,
                    "id": 15,
                    "methodDecoded": true,
                    "operation": "STATICCALL",
                    "output": "0x000000000000000000000000000000000000000000000127df63554ef9f72942",
                    "revert": false,
                    "revertMessage": "",
                    "selector": "0x70a08231",
                    "status": true,
                    "value": "0"
                },
                "nodeType": 0
            },
            "16": {
                "invocation": {
                    "address": "0xc02aaa39b223fe8d0a0e5c4f27ead9083c756cc2",
                    "callData": "0x0000000000000000000000006ebb1c40cd3789e6fc02f003b2416383ea5c96f4",
                    "decodedMethod": {
                        "callParams": [
                            {
                                "name": "",
                                "type": "address",
                                "value": "0x6ebb1c40cd3789e6fc02f003b2416383ea5c96f4"
                            }
                        ],
                        "constructorArguments": "",
                        "name": "balanceOf",
                        "returnParams": [
                            {
                                "decimalAvailable": true,
                                "name": "",
                                "type": "uint256",
                                "value": "88,570,894,688,822,416,575"
                            }
                        ],
                        "signature": "balanceOf(address)"
                    },
                    "errorInfo": "",
                    "fromAddress": "0x6ebb1c40cd3789e6fc02f003b2416383ea5c96f4",
                    "gasUsed": 1234,
                    "id": 16,
                    "methodDecoded": true,
                    "operation": "STATICCALL",
                    "output": "0x000000000000000000000000000000000000000000000004cd2b077365cad4bf",
                    "revert": false,
                    "revertMessage": "",
                    "selector": "0x70a08231",
                    "status": true,
                    "value": "0"
                },
                "nodeType": 0
            },
            "17": {
                "event": {
                    "contract": "0x6ebb1c40cd3789e6fc02f003b2416383ea5c96f4",
                    "decodedLog": {
                        "name": "Sync",
                        "params": [
                            {
                                "name": "reserve0",
                                "type": "uint112",
                                "value": "5,457,886,305,035,159,546,178"
                            },
                            {
                                "name": "reserve1",
                                "type": "uint112",
                                "value": "88,570,894,688,822,416,575"
                            }
                        ],
                        "signature": "Sync(uint112,uint112)"
                    },
                    "id": 17,
                    "logData": "0x000000000000000000000000000000000000000000000127df63554ef9f72942000000000000000000000000000000000000000000000004cd2b077365cad4bf",
                    "logDecoded": true,
                    "operation": "EVENT",
                    "revert": false,
                    "status": true,
                    "topics": [
                        "0x1c411e9a96e071241c2f21f7726b17ae89e3cab4c78be50e062b03a9fffbbad1"
                    ]
                },
                "nodeType": 1
            },
            "18": {
                "event": {
                    "contract": "0x6ebb1c40cd3789e6fc02f003b2416383ea5c96f4",
                    "decodedLog": {
                        "name": "Swap",
                        "params": [
                            {
                                "name": "sender",
                                "type": "address",
                                "value": "0x7a250d5630b4cf539739df2c5dacb4c659f2488d"
                            },
                            {
                                "name": "to",
                                "type": "address",
                                "value": "0xa9d0cfa7d9dce854245a5701e0e9643aa109c06a"
                            },
                            {
                                "name": "amount0In",
                                "type": "uint256",
                                "value": "0"
                            },
                            {
                                "name": "amount1In",
                                "type": "uint256",
                                "value": "1,420,923,144,861,536,626"
                            },
                            {
                                "name": "amount0Out",
                                "type": "uint256",
                                "value": "88,720,295,887,056,105,302"
                            },
                            {
                                "name": "amount1Out",
                                "type": "uint256",
                                "value": "0"
                            }
                        ],
                        "signature": "Swap(address,uint256,uint256,uint256,uint256,address)"
                    },
                    "id": 18,
                    "logData": "0x000000000000000000000000000000000000000000000000000000000000000000000000000000000000000000000000000000000000000013b82212669a5172000000000000000000000000000000000000000000000004cf3dcf0c8b876f560000000000000000000000000000000000000000000000000000000000000000",
                    "logDecoded": true,
                    "operation": "EVENT",
                    "revert": false,
                    "status": true,
                    "topics": [
                        "0xd78ad95fa46c994b6551d0da85fc275fe613ce37657fb8d5e3d130840159d822",
                        "0x0000000000000000000000007a250d5630b4cf539739df2c5dacb4c659f2488d",
                        "0x000000000000000000000000a9d0cfa7d9dce854245a5701e0e9643aa109c06a"
                    ]
                },
                "nodeType": 1
            },
            "2": {
                "invocation": {
                    "address": "0x6ebb1c40cd3789e6fc02f003b2416383ea5c96f4",
                    "callData": "0x",
                    "decodedMethod": {
                        "callParams": [],
                        "constructorArguments": "",
                        "name": "getReserves",
                        "returnParams": [
                            {
                                "name": "_reserve0",
                                "type": "uint112",
                                "value": "5,546,606,600,922,215,651,480"
                            },
                            {
                                "name": "_reserve1",
                                "type": "uint112",
                                "value": "87,149,971,543,960,879,949"
                            },
                            {
                                "name": "_blockTimestampLast",
                                "type": "uint32",
                                "value": "1,603,580,617"
                            }
                        ],
                        "signature": "getReserves()"
                    },
                    "errorInfo": "",
                    "fromAddress": "0x7a250d5630b4cf539739df2c5dacb4c659f2488d",
                    "gasUsed": 1204,
                    "id": 2,
                    "methodDecoded": true,
                    "operation": "STATICCALL",
                    "output": "0x00000000000000000000000000000000000000000000012caea1245b857e9898000000000000000000000000000000000000000000000004b972e560ff30834d000000000000000000000000000000000000000000000000000000005f94b2c9",
                    "revert": false,
                    "revertMessage": "",
                    "selector": "0x0902f1ac",
                    "status": true,
                    "value": "0"
                },
                "nodeType": 0
            },
            "3": {
                "invocation": {
                    "address": "0xabe580e7ee158da464b51ee1a83ac0289622e6be",
                    "callData": "0x000000000000000000000000a9d0cfa7d9dce854245a5701e0e9643aa109c06a0000000000000000000000002b9e92a5b6e69db9fedc47a4c656c9395e8a26d200000000000000000000000000000000000000000000003638e0e5a677d27fae",
                    "decodedMethod": {
                        "callParams": [
                            {
                                "name": "_from",
                                "type": "address",
                                "value": "0xa9d0cfa7d9dce854245a5701e0e9643aa109c06a"
                            },
                            {
                                "name": "_to",
                                "type": "address",
                                "value": "0x2b9e92a5b6e69db9fedc47a4c656c9395e8a26d2"
                            },
                            {
                                "decimalAvailable": true,
                                "name": "_value",
                                "type": "uint256",
                                "value": "1,000,222,708,144,360,554,414"
                            }
                        ],
                        "constructorArguments": "",
                        "name": "transferFrom",
                        "returnParams": [
                            {
                                "name": "_success",
                                "type": "bool",
                                "value": true
                            }
                        ],
                        "signature": "transferFrom(address,address,uint256)"
                    },
                    "errorInfo": "",
                    "fromAddress": "0x7a250d5630b4cf539739df2c5dacb4c659f2488d",
                    "gasUsed": 23983,
                    "id": 3,
                    "methodDecoded": true,
                    "operation": "CALL",
                    "output": "0x0000000000000000000000000000000000000000000000000000000000000001",
                    "revert": false,
                    "revertMessage": "",
                    "selector": "0x23b872dd",
                    "status": true,
                    "value": "0"
                },
                "nodeType": 0
            },
            "4": {
                "event": {
                    "contract": "0xabe580e7ee158da464b51ee1a83ac0289622e6be",
                    "decodedLog": {
                        "name": "Transfer",
                        "params": [
                            {
                                "name": "from",
                                "type": "address",
                                "value": "0xa9d0cfa7d9dce854245a5701e0e9643aa109c06a"
                            },
                            {
                                "name": "to",
                                "type": "address",
                                "value": "0x2b9e92a5b6e69db9fedc47a4c656c9395e8a26d2"
                            },
                            {
                                "decimalAvailable": true,
                                "name": "value",
                                "type": "uint256",
                                "value": "1,000,222,708,144,360,554,414"
                            }
                        ],
                        "signature": "Transfer(address,address,uint256)"
                    },
                    "id": 4,
                    "logData": "0x00000000000000000000000000000000000000000000003638e0e5a677d27fae",
                    "logDecoded": true,
                    "operation": "EVENT",
                    "revert": false,
                    "status": true,
                    "topics": [
                        "0xddf252ad1be2c89b69c2b068fc378daa952ba7f163c4a11628f55a4df523b3ef",
                        "0x000000000000000000000000a9d0cfa7d9dce854245a5701e0e9643aa109c06a",
                        "0x0000000000000000000000002b9e92a5b6e69db9fedc47a4c656c9395e8a26d2"
                    ]
                },
                "nodeType": 1
            },
            "5": {
                "invocation": {
                    "address": "0x2b9e92a5b6e69db9fedc47a4c656c9395e8a26d2",
                    "callData": "0x000000000000000000000000000000000000000000000000000000000000000000000000000000000000000000000000000000000000000013b82212669a51720000000000000000000000006ebb1c40cd3789e6fc02f003b2416383ea5c96f400000000000000000000000000000000000000000000000000000000000000800000000000000000000000000000000000000000000000000000000000000000",
                    "decodedMethod": {
                        "callParams": [
                            {
                                "name": "amount0Out",
                                "type": "uint256",
                                "value": "0"
                            },
                            {
                                "name": "amount1Out",
                                "type": "uint256",
                                "value": "1,420,923,144,861,536,626"
                            },
                            {
                                "name": "to",
                                "type": "address",
                                "value": "0x6ebb1c40cd3789e6fc02f003b2416383ea5c96f4"
                            },
                            {
                                "name": "data",
                                "type": "bytes",
                                "value": "0x"
                            }
                        ],
                        "constructorArguments": "",
                        "name": "swap",
                        "returnParams": [],
                        "signature": "swap(uint256,uint256,address,bytes)"
                    },
                    "errorInfo": "",
                    "fromAddress": "0x7a250d5630b4cf539739df2c5dacb4c659f2488d",
                    "gasUsed": 58121,
                    "id": 5,
                    "methodDecoded": true,
                    "operation": "CALL",
                    "output": "",
                    "revert": false,
                    "revertMessage": "",
                    "selector": "0x022c0d9f",
                    "status": true,
                    "value": "0"
                },
                "nodeType": 0
            },
            "6": {
                "invocation": {
                    "address": "0xc02aaa39b223fe8d0a0e5c4f27ead9083c756cc2",
                    "callData": "0x0000000000000000000000006ebb1c40cd3789e6fc02f003b2416383ea5c96f400000000000000000000000000000000000000000000000013b82212669a5172",
                    "decodedMethod": {
                        "callParams": [
                            {
                                "name": "dst",
                                "type": "address",
                                "value": "0x6ebb1c40cd3789e6fc02f003b2416383ea5c96f4"
                            },
                            {
                                "decimalAvailable": true,
                                "name": "wad",
                                "type": "uint256",
                                "value": "1,420,923,144,861,536,626"
                            }
                        ],
                        "constructorArguments": "",
                        "name": "transfer",
                        "returnParams": [
                            {
                                "name": "",
                                "type": "bool",
                                "value": true
                            }
                        ],
                        "signature": "transfer(address,uint256)"
                    },
                    "errorInfo": "",
                    "fromAddress": "0x2b9e92a5b6e69db9fedc47a4c656c9395e8a26d2",
                    "gasUsed": 15162,
                    "id": 6,
                    "methodDecoded": true,
                    "operation": "CALL",
                    "output": "0x0000000000000000000000000000000000000000000000000000000000000001",
                    "revert": false,
                    "revertMessage": "",
                    "selector": "0xa9059cbb",
                    "status": true,
                    "value": "0"
                },
                "nodeType": 0
            },
            "7": {
                "event": {
                    "contract": "0xc02aaa39b223fe8d0a0e5c4f27ead9083c756cc2",
                    "decodedLog": {
                        "name": "Transfer",
                        "params": [
                            {
                                "name": "src",
                                "type": "address",
                                "value": "0x2b9e92a5b6e69db9fedc47a4c656c9395e8a26d2"
                            },
                            {
                                "name": "dst",
                                "type": "address",
                                "value": "0x6ebb1c40cd3789e6fc02f003b2416383ea5c96f4"
                            },
                            {
                                "decimalAvailable": true,
                                "name": "wad",
                                "type": "uint256",
                                "value": "1,420,923,144,861,536,626"
                            }
                        ],
                        "signature": "Transfer(address,address,uint256)"
                    },
                    "id": 7,
                    "logData": "0x00000000000000000000000000000000000000000000000013b82212669a5172",
                    "logDecoded": true,
                    "operation": "EVENT",
                    "revert": false,
                    "status": true,
                    "topics": [
                        "0xddf252ad1be2c89b69c2b068fc378daa952ba7f163c4a11628f55a4df523b3ef",
                        "0x0000000000000000000000002b9e92a5b6e69db9fedc47a4c656c9395e8a26d2",
                        "0x0000000000000000000000006ebb1c40cd3789e6fc02f003b2416383ea5c96f4"
                    ]
                },
                "nodeType": 1
            },
            "8": {
                "invocation": {
                    "address": "0xabe580e7ee158da464b51ee1a83ac0289622e6be",
                    "callData": "0x0000000000000000000000002b9e92a5b6e69db9fedc47a4c656c9395e8a26d2",
                    "decodedMethod": {
                        "callParams": [
                            {
                                "name": "_owner",
                                "type": "address",
                                "value": "0x2b9e92a5b6e69db9fedc47a4c656c9395e8a26d2"
                            }
                        ],
                        "constructorArguments": "",
                        "name": "balanceOf",
                        "returnParams": [
                            {
                                "decimalAvailable": true,
                                "name": "balance",
                                "type": "uint256",
                                "value": "198,986,243,605,673,735,764,343"
                            }
                        ],
                        "signature": "balanceOf(address)"
                    },
                    "errorInfo": "",
                    "fromAddress": "0x2b9e92a5b6e69db9fedc47a4c656c9395e8a26d2",
                    "gasUsed": 2702,
                    "id": 8,
                    "methodDecoded": true,
                    "operation": "STATICCALL",
                    "output": "0x000000000000000000000000000000000000000000002a2310dd8d0eb7323977",
                    "revert": false,
                    "revertMessage": "",
                    "selector": "0x70a08231",
                    "status": true,
                    "value": "0"
                },
                "nodeType": 0
            },
            "9": {
                "invocation": {
                    "address": "0xc02aaa39b223fe8d0a0e5c4f27ead9083c756cc2",
                    "callData": "0x0000000000000000000000002b9e92a5b6e69db9fedc47a4c656c9395e8a26d2",
                    "decodedMethod": {
                        "callParams": [
                            {
                                "name": "",
                                "type": "address",
                                "value": "0x2b9e92a5b6e69db9fedc47a4c656c9395e8a26d2"
                            }
                        ],
                        "constructorArguments": "",
                        "name": "balanceOf",
                        "returnParams": [
                            {
                                "decimalAvailable": true,
                                "name": "",
                                "type": "uint256",
                                "value": "282,106,600,298,081,737,752"
                            }
                        ],
                        "signature": "balanceOf(address)"
                    },
                    "errorInfo": "",
                    "fromAddress": "0x2b9e92a5b6e69db9fedc47a4c656c9395e8a26d2",
                    "gasUsed": 1234,
                    "id": 9,
                    "methodDecoded": true,
                    "operation": "STATICCALL",
                    "output": "0x00000000000000000000000000000000000000000000000f4b03fa4e6844dc18",
                    "revert": false,
                    "revertMessage": "",
                    "selector": "0x70a08231",
                    "status": true,
                    "value": "0"
                },
                "nodeType": 0
            }
        },
        "gasFlame": [
            {
                "children": [
                    {
                        "children": [
                            {
                                "children": [],
                                "depth": 0,
                                "name": "Initial Gas",
                                "value": 23464
                            },
                            {
                                "children": [
                                    {
                                        "children": [],
                                        "depth": 1,
                                        "name": "getReserves",
                                        "value": 1204
                                    },
                                    {
                                        "children": [],
                                        "depth": 1,
                                        "name": "getReserves",
                                        "value": 1204
                                    },
                                    {
                                        "children": [],
                                        "depth": 1,
                                        "name": "transferFrom",
                                        "value": 23983
                                    },
                                    {
                                        "children": [
                                            {
                                                "children": [],
                                                "depth": 2,
                                                "name": "transfer",
                                                "value": 15162
                                            },
                                            {
                                                "children": [],
                                                "depth": 2,
                                                "name": "balanceOf",
                                                "value": 2702
                                            },
                                            {
                                                "children": [],
                                                "depth": 2,
                                                "name": "balanceOf",
                                                "value": 1234
                                            }
                                        ],
                                        "depth": 1,
                                        "name": "swap",
                                        "value": 58121
                                    },
                                    {
                                        "children": [
                                            {
                                                "children": [],
                                                "depth": 2,
                                                "name": "transfer",
                                                "value": 15571
                                            },
                                            {
                                                "children": [],
                                                "depth": 2,
                                                "name": "balanceOf",
                                                "value": 1278
                                            },
                                            {
                                                "children": [],
                                                "depth": 2,
                                                "name": "balanceOf",
                                                "value": 1234
                                            }
                                        ],
                                        "depth": 1,
                                        "name": "swap",
                                        "value": 57106
                                    }
                                ],
                                "depth": 0,
                                "name": "Executed Gas",
                                "value": 159766
                            }
                        ],
                        "depth": -1,
                        "name": "Actual Gas Used",
                        "value": 174830
                    },
                    {
                        "children": [],
                        "depth": -1,
                        "name": "Refunded Gas",
                        "value": 8400
                    }
                ],
                "depth": -2,
                "name": "Total Gas",
                "value": 183230
            }
        ],
        "isConfirmed": true,
        "mainTrace": [
            {
                "children": [
                    {
                        "children": [
                            {
                                "children": [],
                                "depth": 1,
                                "id": 1,
                                "order": 1
                            },
                            {
                                "children": [],
                                "depth": 1,
                                "id": 2,
                                "order": 2
                            },
                            {
                                "children": [
                                    {
                                        "children": [],
                                        "depth": 2,
                                        "id": 4,
                                        "order": 4
                                    }
                                ],
                                "depth": 1,
                                "id": 3,
                                "order": 3
                            },
                            {
                                "children": [
                                    {
                                        "children": [
                                            {
                                                "children": [],
                                                "depth": 3,
                                                "id": 7,
                                                "order": 7
                                            }
                                        ],
                                        "depth": 2,
                                        "id": 6,
                                        "order": 6
                                    },
                                    {
                                        "children": [],
                                        "depth": 2,
                                        "id": 8,
                                        "order": 8
                                    },
                                    {
                                        "children": [],
                                        "depth": 2,
                                        "id": 9,
                                        "order": 9
                                    },
                                    {
                                        "children": [],
                                        "depth": 2,
                                        "id": 10,
                                        "order": 10
                                    },
                                    {
                                        "children": [],
                                        "depth": 2,
                                        "id": 11,
                                        "order": 11
                                    }
                                ],
                                "depth": 1,
                                "id": 5,
                                "order": 5
                            },
                            {
                                "children": [
                                    {
                                        "children": [
                                            {
                                                "children": [],
                                                "depth": 3,
                                                "id": 14,
                                                "order": 14
                                            }
                                        ],
                                        "depth": 2,
                                        "id": 13,
                                        "order": 13
                                    },
                                    {
                                        "children": [],
                                        "depth": 2,
                                        "id": 15,
                                        "order": 15
                                    },
                                    {
                                        "children": [],
                                        "depth": 2,
                                        "id": 16,
                                        "order": 16
                                    },
                                    {
                                        "children": [],
                                        "depth": 2,
                                        "id": 17,
                                        "order": 17
                                    },
                                    {
                                        "children": [],
                                        "depth": 2,
                                        "id": 18,
                                        "order": 18
                                    }
                                ],
                                "depth": 1,
                                "id": 12,
                                "order": 12
                            }
                        ],
                        "depth": 0,
                        "id": 0,
                        "order": 0
                    }
                ],
                "depth": -1,
                "id": -1,
                "order": -1
            }
        ],
        "mainTraceNodeCount": 19,
        "parentIdMap": {
            "0": -1,
            "1": 0,
            "10": 5,
            "11": 5,
            "12": 0,
            "13": 12,
            "14": 13,
            "15": 12,
            "16": 12,
            "17": 12,
            "18": 12,
            "2": 0,
            "3": 0,
            "4": 3,
            "5": 0,
            "6": 5,
            "7": 6,
            "8": 5,
            "9": 5
        },
        "tidyTrace": [
            {
                "children": [
                    {
                        "children": [
                            {
                                "children": [
                                    {
                                        "children": [],
                                        "depth": 2,
                                        "id": 4,
                                        "order": 4
                                    }
                                ],
                                "depth": 1,
                                "id": 3,
                                "order": 3
                            },
                            {
                                "children": [
                                    {
                                        "children": [
                                            {
                                                "children": [],
                                                "depth": 3,
                                                "id": 7,
                                                "order": 7
                                            }
                                        ],
                                        "depth": 2,
                                        "id": 6,
                                        "order": 6
                                    },
                                    {
                                        "children": [],
                                        "depth": 2,
                                        "id": 10,
                                        "order": 10
                                    },
                                    {
                                        "children": [],
                                        "depth": 2,
                                        "id": 11,
                                        "order": 11
                                    }
                                ],
                                "depth": 1,
                                "id": 5,
                                "order": 5
                            },
                            {
                                "children": [
                                    {
                                        "children": [
                                            {
                                                "children": [],
                                                "depth": 3,
                                                "id": 14,
                                                "order": 14
                                            }
                                        ],
                                        "depth": 2,
                                        "id": 13,
                                        "order": 13
                                    },
                                    {
                                        "children": [],
                                        "depth": 2,
                                        "id": 17,
                                        "order": 17
                                    },
                                    {
                                        "children": [],
                                        "depth": 2,
                                        "id": 18,
                                        "order": 18
                                    }
                                ],
                                "depth": 1,
                                "id": 12,
                                "order": 12
                            }
                        ],
                        "depth": 0,
                        "id": 0,
                        "order": 0
                    }
                ],
                "depth": -1,
                "id": -1,
                "order": -1
            }
        ],
        "tidyTraceNodeCount": 13
    },
    "state_change": {
        "stateChanges": [
            {
                "address": "0x1712aad2c773ee04bdc9114b32163c058321cd85",
                "erc": "ERC-20",
                "slots": [
                    {
                        "current": "0x000000000000000000000000000000000000000000000127df63554ef9f72942",
                        "key": "0xa76d3727a66e001e7f330efd3f0fc9c1ca9809795b22a62d91f3b4e9686be0ce",
                        "prev": "0x00000000000000000000000000000000000000000000012caea1245b857e9898"
                    },
                    {
                        "current": "0x00000000000000000000000000000000000000000000000c0fc2ed8eb0a9748e",
                        "key": "0x23f958a2e3b66f4f87cbaf4859eeef9fd3715b68c647ed044fd3da8f073b7e53",
                        "prev": "0x00000000000000000000000000000000000000000000000740851e8225220538"
                    }
                ],
                "storageVariables": [
                    {
                        "name": "_balances",
                        "type": "mapping(address => uint256)",
                        "value": {
                            "pairs": [
                                {
                                    "key": "0x6ebb1c40cd3789e6fc02f003b2416383ea5c96f4",
                                    "value": {
                                        "current": "5457886305035159546178",
                                        "prev": "5546606600922215651480",
                                        "typeTag": 1
                                    }
                                },
                                {
                                    "key": "0xa9d0cfa7d9dce854245a5701e0e9643aa109c06a",
                                    "value": {
                                        "current": "222496660137670440078",
                                        "prev": "133776364250614334776",
                                        "typeTag": 1
                                    }
                                }
                            ],
                            "typeTag": 4
                        }
                    }
                ]
            },
            {
                "address": "0x2b9e92a5b6e69db9fedc47a4c656c9395e8a26d2",
                "erc": "ERC-20",
                "slots": [
                    {
                        "current": "0x000000000000000000000000000000006a1736431fb828b6e19347d49c73f244",
                        "key": "0x0000000000000000000000000000000000000000000000000000000000000009",
                        "prev": "0x000000000000000000000000000000006a1427ec4b93002e7f77d33b389c21f4"
                    },
                    {
                        "current": "0x00000000000000000000000000009206efeda86a6f7ccd5dc446fb08b895b928",
                        "key": "0x000000000000000000000000000000000000000000000000000000000000000a",
                        "prev": "0x000000000000000000000000000091f032fadb44c117792451cfac88eb32567e"
                    },
                    {
                        "current": "0x5f94bec700000000000f4b03fa4e6844dc18000000002a2310dd8d0eb7323977",
                        "key": "0x0000000000000000000000000000000000000000000000000000000000000008",
                        "prev": "0x5f94b67100000000000f5ebc1c60cedf2d8a0000000029ecd7fca7683f5fb9c9"
                    }
                ],
                "storageVariables": [
                    {
                        "name": "price0CumulativeLast",
                        "type": "uint256",
                        "value": {
                            "current": "141018690949169539132665201282457530948",
                            "prev": "141002823225581763551723864585504825844",
                            "typeTag": 1
                        }
                    },
                    {
                        "name": "price1CumulativeLast",
                        "type": "uint256",
                        "value": {
                            "current": "12720754359719747211188340818608923233073448",
                            "prev": "12713016992087559851727179147497522550953598",
                            "typeTag": 1
                        }
                    },
                    {
                        "name": "reserve0",
                        "type": "uint112",
                        "value": {
                            "current": "198986243605673735764343",
                            "prev": "197986020897529375209929",
                            "typeTag": 1
                        }
                    },
                    {
                        "name": "reserve1",
                        "type": "uint112",
                        "value": {
                            "current": "282106600298081737752",
                            "prev": "283527523442943274378",
                            "typeTag": 1
                        }
                    },
                    {
                        "name": "blockTimestampLast",
                        "type": "uint32",
                        "value": {
                            "current": "1603583687",
                            "prev": "1603581553",
                            "typeTag": 1
                        }
                    }
                ]
            },
            {
                "address": "0x6ebb1c40cd3789e6fc02f003b2416383ea5c96f4",
                "erc": "ERC-20",
                "slots": [
                    {
                        "current": "0x00000000000000000000000000000000b452ff7b01d62ab411e5c33fc89e1d57",
                        "key": "0x0000000000000000000000000000000000000000000000000000000000000009",
                        "prev": "0x00000000000000000000000000000000b422c2ddbe839639dd9410bb36ba7c1b"
                    },
                    {
                        "current": "0x000000000000000000000000000003d662931a0f04bff36d8091903ae322ed79",
                        "key": "0x000000000000000000000000000000000000000000000000000000000000000a",
                        "prev": "0x000000000000000000000000000003d36756d4a9615410dfb80785ab357cd9f1"
                    },
                    {
                        "current": "0x5f94bec7000000000004cd2b077365cad4bf000000000127df63554ef9f72942",
                        "key": "0x0000000000000000000000000000000000000000000000000000000000000008",
                        "prev": "0x5f94b2c9000000000004b972e560ff30834d00000000012caea1245b857e9898"
                    }
                ],
                "storageVariables": [
                    {
                        "name": "price0CumulativeLast",
                        "type": "uint256",
                        "value": {
                            "current": "239691989343766030215011143156399742295",
                            "prev": "239441529690323295909364488768637795355",
                            "typeTag": 1
                        }
                    },
                    {
                        "name": "price1CumulativeLast",
                        "type": "uint256",
                        "value": {
                            "current": "334288312456119239623323074219692412562809",
                            "prev": "333273798549984953175199955825187199179249",
                            "typeTag": 1
                        }
                    },
                    {
                        "name": "reserve0",
                        "type": "uint112",
                        "value": {
                            "current": "5457886305035159546178",
                            "prev": "5546606600922215651480",
                            "typeTag": 1
                        }
                    },
                    {
                        "name": "reserve1",
                        "type": "uint112",
                        "value": {
                            "current": "88570894688822416575",
                            "prev": "87149971543960879949",
                            "typeTag": 1
                        }
                    },
                    {
                        "name": "blockTimestampLast",
                        "type": "uint32",
                        "value": {
                            "current": "1603583687",
                            "prev": "1603580617",
                            "typeTag": 1
                        }
                    }
                ]
            },
            {
                "address": "0xabe580e7ee158da464b51ee1a83ac0289622e6be",
                "erc": "ERC-20",
                "slots": [
                    {
                        "current": "0x0000000000000000000000000000000000000000000002955d02e1a135a00000",
                        "key": "0x23f958a2e3b66f4f87cbaf4859eeef9fd3715b68c647ed044fd3da8f073b7e53",
                        "prev": "0x0000000000000000000000000000000000000000000002cb95e3c747ad727fae"
                    },
                    {
                        "current": "0x000000000000000000000000000000000000000000002a2310dd8d0eb7323977",
                        "key": "0x182d98b8590e4ab4769442c73da4cc96d448b9a94215c2c4289361a49e7e14a6",
                        "prev": "0x0000000000000000000000000000000000000000000029ecd7fca7683f5fb9c9"
                    },
                    {
                        "current": "0xfffffffffffffffffffffffffffffffffffffffffffff3a2593f7f831d8e7df3",
                        "key": "0xd8dcf0e9ed93c42eba08630629656ea6fbb46ca2cdcf0a45507c27f25ee72a72",
                        "prev": "0xfffffffffffffffffffffffffffffffffffffffffffff3d8922065299560fda1"
                    }
                ],
                "storageVariables": [
                    {
                        "name": "allowed",
                        "type": "mapping(address => mapping(address => uint256))",
                        "value": {
                            "pairs": [
                                {
                                    "key": "0xa9d0cfa7d9dce854245a5701e0e9643aa109c06a",
                                    "value": {
                                        "pairs": [
                                            {
                                                "key": "0x7a250d5630b4cf539739df2c5dacb4c659f2488d",
                                                "value": {
                                                    "current": "115792089237316195423570985008687907853269984665640563981061623269542710902259",
                                                    "prev": "115792089237316195423570985008687907853269984665640563982061845977687071456673",
                                                    "typeTag": 1
                                                }
                                            }
                                        ],
                                        "typeTag": 4
                                    }
                                }
                            ],
                            "typeTag": 4
                        }
                    },
                    {
                        "name": "balances",
                        "type": "mapping(address => uint256)",
                        "value": {
                            "pairs": [
                                {
                                    "key": "0x2b9e92a5b6e69db9fedc47a4c656c9395e8a26d2",
                                    "value": {
                                        "current": "198986243605673735764343",
                                        "prev": "197986020897529375209929",
                                        "typeTag": 1
                                    }
                                },
                                {
                                    "key": "0xa9d0cfa7d9dce854245a5701e0e9643aa109c06a",
                                    "value": {
                                        "current": "12200000000000000000000",
                                        "prev": "13200222708144360554414",
                                        "typeTag": 1
                                    }
                                }
                            ],
                            "typeTag": 4
                        }
                    }
                ]
            },
            {
                "address": "0xc02aaa39b223fe8d0a0e5c4f27ead9083c756cc2",
                "erc": "ERC-20",
                "slots": [
                    {
                        "current": "0x00000000000000000000000000000000000000000000000f4b03fa4e6844dc18",
                        "key": "0xfba477dd8226fff4185fc50a860564b8e8f740617938c29a5c3527dfcc5cfe32",
                        "prev": "0x00000000000000000000000000000000000000000000000f5ebc1c60cedf2d8a"
                    },
                    {
                        "current": "0x000000000000000000000000000000000000000000000004cd2b077365cad4bf",
                        "key": "0x939ca0b4e4d97e202589e7cbfe624294a90bc8ec792c6251a24a5887265089fe",
                        "prev": "0x000000000000000000000000000000000000000000000004b972e560ff30834d"
                    }
                ],
                "storageVariables": [
                    {
                        "name": "balanceOf",
                        "type": "mapping(address => uint256)",
                        "value": {
                            "pairs": [
                                {
                                    "key": "0x2b9e92a5b6e69db9fedc47a4c656c9395e8a26d2",
                                    "value": {
                                        "current": "282106600298081737752",
                                        "prev": "283527523442943274378",
                                        "typeTag": 1
                                    }
                                },
                                {
                                    "key": "0x6ebb1c40cd3789e6fc02f003b2416383ea5c96f4",
                                    "value": {
                                        "current": "88570894688822416575",
                                        "prev": "87149971543960879949",
                                        "typeTag": 1
                                    }
                                }
                            ],
                            "typeTag": 4
                        }
                    }
                ]
            }
        ]
    }
}