{
    "balance_change": {
        "balanceChanges": [
            {
                "account": "0x710bda329b2a6224e4b44833de30f38e7f81d564",
                "assets": [
                    {
                        "address": "0xeeeeeeeeeeeeeeeeeeeeeeeeeeeeeeeeeeeeeeee",
                        "amount": "0.003464838128864123",
                        "iconUrl": "https://assets.blocksec.com/image/1663669189317-3.png",
                        "isERC1155": false,
                        "isERC721": false,
                        "sign": true,
                        "value": "7.244699340688680252"
                    }
                ]
            },
            {
                "account": "0xb8901acb165ed027e32754e0ffe830802919727f",
                "assets": [
                    {
                        "address": "0xeeeeeeeeeeeeeeeeeeeeeeeeeeeeeeeeeeeeeeee",
                        "amount": "0.022980064577200653",
                        "iconUrl": "https://assets.blocksec.com/image/1663669189317-3.png",
                        "isERC1155": false,
                        "isERC721": false,
                        "sign": false,
                        "value": "48.049476631613601673"
                    }
                ]
            },
            {
                "account": "0xba61e216e02d18e6f8f9605a3ac1c67b93042282",
                "assets": [
                    {
                        "address": "0xeeeeeeeeeeeeeeeeeeeeeeeeeeeeeeeeeeeeeeee",
                        "amount": "0.01951522644833653",
                        "iconUrl": "https://assets.blocksec.com/image/1663669189317-3.png",
                        "isERC1155": false,
                        "isERC721": false,
                        "sign": true,
                        "value": "40.80477728883400142"
                    }
                ]
            }
        ]
    },
    "profile": {
        "basic_info": {
            "baseFee": "23.228363668",
            "blockNumber": 17059786,
            "callData": "0x23c452cd000000000000000000000000ba61e216e02d18e6f8f9605a3ac1c67b930422820000000000000000000000000000000000000000000000000051a43f3a0a220df5e8e11033b952a3bec1421484e9ba032064771362c7aa271054e71c46c23736000000000000000000000000000000000000000000000000000c4f407de00b7b",
            "debugEnable": true,
            "errorInfo": "",
            "eventCount": 1,
            "feeRecipient": "0xfeebabe6b0418ec13b30aadf129f5dcdd4f70cea",
            "formatValue": "0",
            "gasLimit": 500000,
            "gasPrice": "23.428363668",
            "gasUsed": 140447,
            "intTxnCount": 2,
            "internalRevert": false,
            "internalRevertMessage": "",
            "isContractCreation": false,
            "isFlashloan": false,
            "maxFee": "48.591463564",
            "nonce": 328868,
            "overwritedBlockNumber": -1,
            "priorityFee": "0.2",
            "receiver": "0xb8901acb165ed027e32754e0ffe830802919727f",
            "revertMessage": "",
            "sender": "0x710bda329b2a6224e4b44833de30f38e7f81d564",
            "simulationEnable": true,
            "sourceTxnHash": "0xe91624a141d3a32e01783d03a3a53df105d740d55c38d0527da42c88aff86f38",
            "status": true,
            "timestamp": "2023-04-16T13:37:35Z",
            "transactionFee": "0.003290443392079596",
            "txnHash": "0xe91624a141d3a32e01783d03a3a53df105d740d55c38d0527da42c88aff86f38",
            "txnIndex": 48,
            "type": 2,
            "value": "0"
        },
        "fund_flow": [
            {
                "amount": "0.01951522644833653",
                "from": "0xb8901acb165ed027e32754e0ffe830802919727f",
                "id": 1,
                "isERC1155": false,
                "isERC721": false,
                "isReverted": false,
                "order": 1,
                "to": "0xba61e216e02d18e6f8f9605a3ac1c67b93042282",
                "token": "0xeeeeeeeeeeeeeeeeeeeeeeeeeeeeeeeeeeeeeeee"
            },
            {
                "amount": "0.003464838128864123",
                "from": "0xb8901acb165ed027e32754e0ffe830802919727f",
                "id": 2,
                "isERC1155": false,
                "isERC721": false,
                "isReverted": false,
                "order": 2,
                "to": "0x710bda329b2a6224e4b44833de30f38e7f81d564",
                "token": "0xeeeeeeeeeeeeeeeeeeeeeeeeeeeeeeeeeeeeeeee"
            }
        ],
        "token_infos": [
            {
                "address": "0xc02aaa39b223fe8d0a0e5c4f27ead9083c756cc2",
                "decimals": 18
            },
            {
                "address": "0xeeeeeeeeeeeeeeeeeeeeeeeeeeeeeeeeeeeeeeee",
                "decimals": 18
            }
        ]
    },
    "address_label": {
        "labels": [
            {
                "address": "0x0000000000000000000000000000000000000004",
                "label": "Precompiled"
            },
            {
                "address": "0xeeeeeeeeeeeeeeeeeeeeeeeeeeeeeeeeeeeeeeee",
                "label": "Ether"
            },
            {
                "address": "0xb8901acb165ed027e32754e0ffe830802919727f",
                "label": "Hop Protocol: Ethereum Bridge"
            },
            {
                "address": "0x710bda329b2a6224e4b44833de30f38e7f81d564",
                "label": "Hop Protocol: ETH Bonder"
            },
            {
                "address": "0x0000000000000000000000000000000000000001",
                "label": "Precompiled"
            },
            {
                "address": "0x0000000000000000000000000000000000000002",
                "label": "Precompiled"
            },
            {
                "address": "0x0000000000000000000000000000000000000003",
                "label": "Precompiled"
            }
        ]
    },
    "trace": {
        "accountLabels": null,
        "dataMap": {
            "-1": {
                "invocation": {
                    "address": "0x710bda329b2a6224e4b44833de30f38e7f81d564",
                    "callData": "",
                    "decodedMethod": null,
                    "errorInfo": "",
                    "fromAddress": "",
                    "gasUsed": 0,
                    "id": -1,
                    "methodDecoded": false,
                    "operation": "",
                    "output": "",
                    "revert": false,
                    "revertMessage": "",
                    "selector": "",
                    "status": false,
                    "value": ""
                },
                "nodeType": 0
            },
            "0": {
                "invocation": {
                    "address": "0xb8901acb165ed027e32754e0ffe830802919727f",
                    "callData": "0x000000000000000000000000ba61e216e02d18e6f8f9605a3ac1c67b930422820000000000000000000000000000000000000000000000000051a43f3a0a220df5e8e11033b952a3bec1421484e9ba032064771362c7aa271054e71c46c23736000000000000000000000000000000000000000000000000000c4f407de00b7b",
                    "decodedMethod": {
                        "callParams": [
                            {
                                "name": "recipient",
                                "type": "address",
                                "value": "0xba61e216e02d18e6f8f9605a3ac1c67b93042282"
                            },
                            {
                                "name": "amount",
                                "type": "uint256",
                                "value": "22,980,064,577,200,653"
                            },
                            {
                                "name": "transferNonce",
                                "type": "bytes32",
                                "value": "0xf5e8e11033b952a3bec1421484e9ba032064771362c7aa271054e71c46c23736"
                            },
                            {
                                "name": "bonderFee",
                                "type": "uint256",
                                "value": "3,464,838,128,864,123"
                            }
                        ],
                        "constructorArguments": "",
                        "name": "bondWithdrawal",
                        "returnParams": [],
                        "signature": "bondWithdrawal(address,uint256,bytes32,uint256)"
                    },
                    "errorInfo": "",
                    "fromAddress": "0x710bda329b2a6224e4b44833de30f38e7f81d564",
                    "gasUsed": 140447,
                    "id": 0,
                    "methodDecoded": true,
                    "operation": "CALL",
                    "output": "",
                    "revert": false,
                    "revertMessage": "",
                    "selector": "0x23c452cd",
                    "status": true,
                    "value": "0"
                },
                "nodeType": 0
            },
            "1": {
                "event": {
                    "contract": "0xb8901acb165ed027e32754e0ffe830802919727f",
                    "decodedLog": {
                        "name": "WithdrawalBonded",
                        "params": [
                            {
                                "name": "transferId",
                                "type": "bytes32",
                                "value": "0x84b83e58a20d166cf338803c072ffff04dca475c572d5cda10b5b9edaac63458"
                            },
                            {
                                "name": "amount",
                                "type": "uint256",
                                "value": "22,980,064,577,200,653"
                            }
                        ],
                        "signature": "WithdrawalBonded(bytes32,uint256)"
                    },
                    "id": 1,
                    "logData": "0x0000000000000000000000000000000000000000000000000051a43f3a0a220d",
                    "logDecoded": true,
                    "operation": "EVENT",
                    "revert": false,
                    "status": true,
                    "topics": [
                        "0x0c3d250c7831051e78aa6a56679e590374c7c424415ffe4aa474491def2fe705",
                        "0x84b83e58a20d166cf338803c072ffff04dca475c572d5cda10b5b9edaac63458"
                    ]
                },
                "nodeType": 1
            },
            "2": {
                "invocation": {
                    "address": "0xba61e216e02d18e6f8f9605a3ac1c67b93042282",
                    "callData": "0x",
                    "decodedMethod": null,
                    "errorInfo": "",
                    "fromAddress": "0xb8901acb165ed027e32754e0ffe830802919727f",
                    "gasUsed": 0,
                    "id": 2,
                    "methodDecoded": false,
                    "operation": "CALL",
                    "output": "",
                    "revert": false,
                    "revertMessage": "",
                    "selector": "fallback",
                    "status": true,
                    "value": "0.01951522644833653"
                },
                "nodeType": 0
            },
            "3": {
                "invocation": {
                    "address": "0x710bda329b2a6224e4b44833de30f38e7f81d564",
                    "callData": "0x",
                    "decodedMethod": null,
                    "errorInfo": "",
                    "fromAddress": "0xb8901acb165ed027e32754e0ffe830802919727f",
                    "gasUsed": 0,
                    "id": 3,
                    "methodDecoded": false,
                    "operation": "CALL",
                    "output": "",
                    "revert": false,
                    "revertMessage": "",
                    "selector": "fallback",
                    "status": true,
                    "value": "0.003464838128864123"
                },
                "nodeType": 0
            }
        },
        "gasFlame": [
            {
                "children": [
                    {
                        "children": [
                            {
                                "children": [],
                                "depth": 0,
                                "name": "Initial Gas",
                                "value": 22368
                            },
                            {
                                "children": [
                                    {
                                        "children": [],
                                        "depth": 1,
                                        "name": "fallback",
                                        "value": 0
                                    },
                                    {
                                        "children": [],
                                        "depth": 1,
                                        "name": "fallback",
                                        "value": 0
                                    }
                                ],
                                "depth": 0,
                                "name": "Executed Gas",
                                "value": 120879
                            }
                        ],
                        "depth": -1,
                        "name": "Actual Gas Used",
                        "value": 140447
                    },
                    {
                        "children": [],
                        "depth": -1,
                        "name": "Refunded Gas",
                        "value": 2800
                    }
                ],
                "depth": -2,
                "name": "Total Gas",
                "value": 143247
            }
        ],
        "isConfirmed": true,
        "mainTrace": [
            {
                "children": [
                    {
                        "children": [
                            {
                                "children": [],
                                "depth": 1,
                                "id": 1,
                                "order": 1
                            },
                            {
                                "children": [],
                                "depth": 1,
                                "id": 2,
                                "order": 2
                            },
                            {
                                "children": [],
                                "depth": 1,
                                "id": 3,
                                "order": 3
                            }
                        ],
                        "depth": 0,
                        "id": 0,
                        "order": 0
                    }
                ],
                "depth": -1,
                "id": -1,
                "order": -1
            }
        ],
        "mainTraceNodeCount": 4,
        "parentIdMap": {
            "0": -1,
            "1": 0,
            "2": 0,
            "3": 0
        },
        "tidyTrace": [
            {
                "children": [
                    {
                        "children": [
                            {
                                "children": [],
                                "depth": 1,
                                "id": 1,
                                "order": 1
                            },
                            {
                                "children": [],
                                "depth": 1,
                                "id": 2,
                                "order": 2
                            },
                            {
                                "children": [],
                                "depth": 1,
                                "id": 3,
                                "order": 3
                            }
                        ],
                        "depth": 0,
                        "id": 0,
                        "order": 0
                    }
                ],
                "depth": -1,
                "id": -1,
                "order": -1
            }
        ],
        "tidyTraceNodeCount": 4
    },
    "state_change": {
        "stateChanges": [
            {
                "address": "0xb8901acb165ed027e32754e0ffe830802919727f",
                "erc": "",
                "slots": [
                    {
                        "current": "0x00000000000000000000000000000000000000000000555b3175230a3042f58f",
                        "key": "0x812c8fc731d689ed5ded39e7869bf6693f18a74a2f3cb1feb1b6e33f7014843a",
                        "prev": "0x00000000000000000000000000000000000000000000555b31237ecaf638d382"
                    },
                    {
                        "current": "0x0000000000000000000000000000000000000000000000000051a43f3a0a220d",
                        "key": "0xcc7bef992cfd843b9aed04ecc4ef790e867311c33a7a741f86d6267d24d2d5c8",
                        "prev": "0x0000000000000000000000000000000000000000000000000000000000000000"
                    },
                    {
                        "current": "0x0000000000000000000000000000000000000000000000000000000000000001",
                        "key": "0x8dd698fd4ec3da58fb13a11a0484372cca1e98fc81293926a7a7f52e8687de02",
                        "prev": "0x0000000000000000000000000000000000000000000000000000000000000000"
                    }
                ],
                "storageVariables": [
                    {
                        "name": "_spentTransferIds",
                        "type": "mapping(bytes32 => bool)",
                        "value": {
                            "pairs": [
                                {
                                    "key": "0x84b83e58a20d166cf338803c072ffff04dca475c572d5cda10b5b9edaac63458",
                                    "value": {
                                        "current": "true",
                                        "prev": "false",
                                        "typeTag": 1
                                    }
                                }
                            ],
                            "typeTag": 4
                        }
                    },
                    {
                        "name": "_debit",
                        "type": "mapping(address => uint256)",
                        "value": {
                            "pairs": [
                                {
                                    "key": "0x710bda329b2a6224e4b44833de30f38e7f81d564",
                                    "value": {
                                        "current": "403083368547834212316559",
                                        "prev": "403083345567769635115906",
                                        "typeTag": 1
                                    }
                                }
                            ],
                            "typeTag": 4
                        }
                    },
                    {
                        "name": "_bondedWithdrawalAmounts",
                        "type": "mapping(address => mapping(bytes32 => uint256))",
                        "value": {
                            "pairs": [
                                {
                                    "key": "0x710bda329b2a6224e4b44833de30f38e7f81d564",
                                    "value": {
                                        "pairs": [
                                            {
                                                "key": "0x84b83e58a20d166cf338803c072ffff04dca475c572d5cda10b5b9edaac63458",
                                                "value": {
                                                    "current": "22980064577200653",
                                                    "prev": "0",
                                                    "typeTag": 1
                                                }
                                            }
                                        ],
                                        "typeTag": 4
                                    }
                                }
                            ],
                            "typeTag": 4
                        }
                    }
                ]
            }
        ]
    }
}