{
    "balance_change": {
        "balanceChanges": [
            {
                "account": "0x56cd8289c6b9227f2e006924403de894687a0580",
                "assets": [
                    {
                        "address": "0xa2b1f45de96b8d8661b1476ff78ac4752b1b9559",
                        "amount": "12.4932",
                        "iconUrl": "",
                        "isERC1155": false,
                        "isERC721": false,
                        "sign": false,
                        "value": ""
                    }
                ]
            },
            {
                "account": "0xe05e391c437fd065d2b288947a74d8df9dcfc300",
                "assets": [
                    {
                        "address": "0xa2b1f45de96b8d8661b1476ff78ac4752b1b9559",
                        "amount": "12.4932",
                        "iconUrl": "",
                        "isERC1155": false,
                        "isERC721": false,
                        "sign": true,
                        "value": ""
                    }
                ]
            }
        ]
    },
    "profile": {
        "basic_info": {
            "baseFee": "",
            "blockNumber": 7508842,
            "callData": "0xa9059cbb000000000000000000000000e05e391c437fd065d2b288947a74d8df9dcfc300000000000000000000000000000000000000000000000000000000004a771c40",
            "debugEnable": true,
            "errorInfo": "",
            "eventCount": 1,
            "feeRecipient": "0x52bc44d5378309ee2abf1539bf71de1b7d7be3b5",
            "formatValue": "0",
            "gasLimit": 90000,
            "gasPrice": "10",
            "gasUsed": 36944,
            "intTxnCount": 0,
            "internalRevert": false,
            "internalRevertMessage": "",
            "isContractCreation": false,
            "isFlashloan": false,
            "maxFee": "",
            "nonce": 9,
            "overwritedBlockNumber": -1,
            "priorityFee": "",
            "receiver": "0xa2b1f45de96b8d8661b1476ff78ac4752b1b9559",
            "revertMessage": "",
            "sender": "0x56cd8289c6b9227f2e006924403de894687a0580",
            "simulationEnable": true,
            "sourceTxnHash": "0xe918ebaa2f61973e0680b34cbda05fc5c81e1f00f2083e2a4d2cb43cdfdf8647",
            "status": true,
            "timestamp": "2019-04-05T15:26:15Z",
            "transactionFee": "0.00036944",
            "txnHash": "0xe918ebaa2f61973e0680b34cbda05fc5c81e1f00f2083e2a4d2cb43cdfdf8647",
            "txnIndex": 22,
            "type": 0,
            "value": "0"
        },
        "fund_flow": [
            {
                "amount": "12.4932",
                "from": "0x56cd8289c6b9227f2e006924403de894687a0580",
                "id": 1,
                "isERC1155": false,
                "isERC721": false,
                "isReverted": false,
                "order": 1,
                "to": "0xe05e391c437fd065d2b288947a74d8df9dcfc300",
                "token": "0xa2b1f45de96b8d8661b1476ff78ac4752b1b9559"
            }
        ],
        "token_infos": [
            {
                "address": "0xa2b1f45de96b8d8661b1476ff78ac4752b1b9559",
                "decimals": 8
            },
            {
                "address": "0xc02aaa39b223fe8d0a0e5c4f27ead9083c756cc2",
                "decimals": 18
            },
            {
                "address": "0xeeeeeeeeeeeeeeeeeeeeeeeeeeeeeeeeeeeeeeee",
                "decimals": 18
            }
        ]
    },
    "address_label": {
        "labels": [
            {
                "address": "0x0000000000000000000000000000000000000001",
                "label": "Precompiled"
            },
            {
                "address": "0x0000000000000000000000000000000000000002",
                "label": "Precompiled"
            },
            {
                "address": "0x0000000000000000000000000000000000000003",
                "label": "Precompiled"
            },
            {
                "address": "0x0000000000000000000000000000000000000004",
                "label": "Precompiled"
            },
            {
                "address": "0xeeeeeeeeeeeeeeeeeeeeeeeeeeeeeeeeeeeeeeee",
                "label": "Ether"
            },
            {
                "address": "0xa2b1f45de96b8d8661b1476ff78ac4752b1b9559",
                "label": "SEGG (SEGG)"
            }
        ]
    },
    "trace": {
        "accountLabels": null,
        "dataMap": {
            "-1": {
                "invocation": {
                    "address": "0x56cd8289c6b9227f2e006924403de894687a0580",
                    "callData": "",
                    "decodedMethod": null,
                    "errorInfo": "",
                    "fromAddress": "",
                    "gasUsed": 0,
                    "id": -1,
                    "methodDecoded": false,
                    "operation": "",
                    "output": "",
                    "revert": false,
                    "revertMessage": "",
                    "selector": "",
                    "status": false,
                    "value": ""
                },
                "nodeType": 0
            },
            "0": {
                "invocation": {
                    "address": "0xa2b1f45de96b8d8661b1476ff78ac4752b1b9559",
                    "callData": "0x000000000000000000000000e05e391c437fd065d2b288947a74d8df9dcfc300000000000000000000000000000000000000000000000000000000004a771c40",
                    "decodedMethod": {
                        "callParams": [
                            {
                                "name": "to",
                                "type": "address",
                                "value": "0xe05e391c437fd065d2b288947a74d8df9dcfc300"
                            },
                            {
                                "decimalAvailable": true,
                                "name": "value",
                                "type": "uint256",
                                "value": "1,249,320,000"
                            }
                        ],
                        "constructorArguments": "",
                        "name": "transfer",
                        "returnParams": [
                            {
                                "name": "",
                                "type": "bool",
                                "value": true
                            }
                        ],
                        "signature": "transfer(address,uint256)"
                    },
                    "errorInfo": "",
                    "fromAddress": "0x56cd8289c6b9227f2e006924403de894687a0580",
                    "gasUsed": 36944,
                    "id": 0,
                    "methodDecoded": true,
                    "operation": "CALL",
                    "output": "0x0000000000000000000000000000000000000000000000000000000000000001",
                    "revert": false,
                    "revertMessage": "",
                    "selector": "0xa9059cbb",
                    "status": true,
                    "value": "0"
                },
                "nodeType": 0
            },
            "1": {
                "event": {
                    "contract": "0xa2b1f45de96b8d8661b1476ff78ac4752b1b9559",
                    "decodedLog": {
                        "name": "Transfer",
                        "params": [
                            {
                                "name": "from",
                                "type": "address",
                                "value": "0x56cd8289c6b9227f2e006924403de894687a0580"
                            },
                            {
                                "name": "to",
                                "type": "address",
                                "value": "0xe05e391c437fd065d2b288947a74d8df9dcfc300"
                            },
                            {
                                "decimalAvailable": true,
                                "name": "value",
                                "type": "uint256",
                                "value": "1,249,320,000"
                            }
                        ],
                        "signature": "Transfer(address,address,uint256)"
                    },
                    "id": 1,
                    "logData": "0x000000000000000000000000000000000000000000000000000000004a771c40",
                    "logDecoded": true,
                    "operation": "EVENT",
                    "revert": false,
                    "status": true,
                    "topics": [
                        "0xddf252ad1be2c89b69c2b068fc378daa952ba7f163c4a11628f55a4df523b3ef",
                        "0x00000000000000000000000056cd8289c6b9227f2e006924403de894687a0580",
                        "0x000000000000000000000000e05e391c437fd065d2b288947a74d8df9dcfc300"
                    ]
                },
                "nodeType": 1
            }
        },
        "gasFlame": [
            {
                "children": [
                    {
                        "children": [
                            {
                                "children": [],
                                "depth": 0,
                                "name": "Initial Gas",
                                "value": 23000
                            },
                            {
                                "children": [],
                                "depth": 0,
                                "name": "Executed Gas",
                                "value": 13944
                            }
                        ],
                        "depth": -1,
                        "name": "Actual Gas Used",
                        "value": 36944
                    },
                    {
                        "children": [],
                        "depth": -1,
                        "name": "Refunded Gas",
                        "value": 0
                    }
                ],
                "depth": -2,
                "name": "Total Gas",
                "value": 36944
            }
        ],
        "isConfirmed": true,
        "mainTrace": [
            {
                "children": [
                    {
                        "children": [
                            {
                                "children": [],
                                "depth": 1,
                                "id": 1,
                                "order": 1
                            }
                        ],
                        "depth": 0,
                        "id": 0,
                        "order": 0
                    }
                ],
                "depth": -1,
                "id": -1,
                "order": -1
            }
        ],
        "mainTraceNodeCount": 2,
        "parentIdMap": {
            "0": -1,
            "1": 0
        },
        "tidyTrace": [
            {
                "children": [
                    {
                        "children": [
                            {
                                "children": [],
                                "depth": 1,
                                "id": 1,
                                "order": 1
                            }
                        ],
                        "depth": 0,
                        "id": 0,
                        "order": 0
                    }
                ],
                "depth": -1,
                "id": -1,
                "order": -1
            }
        ],
        "tidyTraceNodeCount": 2
    },
    "state_change": {
        "stateChanges": [
            {
                "address": "0xa2b1f45de96b8d8661b1476ff78ac4752b1b9559",
                "erc": "ERC-20",
                "slots": [
                    {
                        "current": "0x000000000000000000000000000000000000000000000000000000005d30ac98",
                        "key": "0x5b20996c624f30f90f2a43880a9526ea8c114146029ec38d4c7c5d04e6b23098",
                        "prev": "0x00000000000000000000000000000000000000000000000000000000a7a7c8d8"
                    },
                    {
                        "current": "0x00000000000000000000000000000000000000000000000000209773ea878a7e",
                        "key": "0xbceab0de36b601928fa256a9d402c6fcac2828f4dd5f76f4d2ed6a1fee50a9a9",
                        "prev": "0x00000000000000000000000000000000000000000000000000209773a0106e3e"
                    }
                ],
                "storageVariables": [
                    {
                        "name": "_balances",
                        "type": "mapping(address => uint256)",
                        "value": {
                            "pairs": [
                                {
                                    "key": "0x56cd8289c6b9227f2e006924403de894687a0580",
                                    "value": {
                                        "current": "1563471000",
                                        "prev": "2812791000",
                                        "typeTag": 1
                                    }
                                },
                                {
                                    "key": "0xe05e391c437fd065d2b288947a74d8df9dcfc300",
                                    "value": {
                                        "current": "9173723366525566",
                                        "prev": "9173722117205566",
                                        "typeTag": 1
                                    }
                                }
                            ],
                            "typeTag": 4
                        }
                    }
                ]
            }
        ]
    }
}