{
    "balance_change": {
        "balanceChanges": [
            {
                "account": "0xfa28f4130e6929b9bd801e8e3c332ed9005fafa4",
                "assets": [
                    {
                        "address": "0xb97048628db6b661d4c2aa833e95dbe1a905b280",
                        "amount": "7,736.52655462",
                        "iconUrl": "https://assets.blocksec.com/icon/ec0f7e099dbc22739675b174de8dd7bf62eb35591e0101ef6568a7a50510095f.png",
                        "isERC1155": false,
                        "isERC721": false,
                        "sign": false,
                        "value": ""
                    }
                ]
            },
            {
                "account": "0x62e6bda165898bcc40aef0209ef5353ec96879da",
                "assets": [
                    {
                        "address": "0xb97048628db6b661d4c2aa833e95dbe1a905b280",
                        "amount": "7,736.52655462",
                        "iconUrl": "https://assets.blocksec.com/icon/ec0f7e099dbc22739675b174de8dd7bf62eb35591e0101ef6568a7a50510095f.png",
                        "isERC1155": false,
                        "isERC721": false,
                        "sign": true,
                        "value": ""
                    }
                ]
            }
        ]
    },
    "profile": {
        "basic_info": {
            "baseFee": "",
            "blockNumber": 7200528,
            "callData": "0x0dcd7a6c00000000000000000000000062e6bda165898bcc40aef0209ef5353ec96879da0000000000000000000000000000000000000000000001a365dfb78d6dd0d800000000000000000000000000b97048628db6b661d4c2aa833e95dbe1a905b280000000000000000000000000000000000000000000000000000000005c5f816d00000000000000000000000000000000000000000000000000000000000001d200000000000000000000000000000000000000000000000000000000000000c000000000000000000000000000000000000000000000000000000000000000419f92b6b9511076ced74bbc19f3883004ba1167c94d275b0f05f8b8795ff8b821091adf7da6d7fbc31e3cd2f15d5792d2658244e159a5bc699b9028787e1559521c00000000000000000000000000000000000000000000000000000000000000",
            "debugEnable": true,
            "errorInfo": "",
            "eventCount": 1,
            "feeRecipient": "0x5a0b54d5dc17e0aadc383d2db43b0a0d3e029c4c",
            "formatValue": "0",
            "gasLimit": 200000,
            "gasPrice": "60",
            "gasUsed": 84723,
            "intTxnCount": 2,
            "internalRevert": false,
            "internalRevertMessage": "",
            "isContractCreation": false,
            "isFlashloan": false,
            "maxFee": "",
            "nonce": 924,
            "overwritedBlockNumber": -1,
            "priorityFee": "",
            "receiver": "0xfa28f4130e6929b9bd801e8e3c332ed9005fafa4",
            "revertMessage": "",
            "sender": "0x5b270a205822ff959ff9723b0b62d7c02596fc37",
            "simulationEnable": true,
            "sourceTxnHash": "0xe990db0b964ddcbd3b69d2f4276e632be6d2c725d68aec113ff99a35c010c595",
            "status": true,
            "timestamp": "2019-02-10T01:37:15Z",
            "transactionFee": "0.00508338",
            "txnHash": "0xe990db0b964ddcbd3b69d2f4276e632be6d2c725d68aec113ff99a35c010c595",
            "txnIndex": 0,
            "type": 0,
            "value": "0"
        },
        "fund_flow": [
            {
                "amount": "7,736.52655462",
                "from": "0xfa28f4130e6929b9bd801e8e3c332ed9005fafa4",
                "id": 1,
                "isERC1155": false,
                "isERC721": false,
                "isReverted": false,
                "order": 1,
                "to": "0x62e6bda165898bcc40aef0209ef5353ec96879da",
                "token": "0xb97048628db6b661d4c2aa833e95dbe1a905b280"
            }
        ],
        "token_infos": [
            {
                "address": "0xb97048628db6b661d4c2aa833e95dbe1a905b280",
                "decimals": 18
            },
            {
                "address": "0xc02aaa39b223fe8d0a0e5c4f27ead9083c756cc2",
                "decimals": 18
            },
            {
                "address": "0xeeeeeeeeeeeeeeeeeeeeeeeeeeeeeeeeeeeeeeee",
                "decimals": 18
            }
        ]
    },
    "address_label": {
        "labels": [
            {
                "address": "0xeeeeeeeeeeeeeeeeeeeeeeeeeeeeeeeeeeeeeeee",
                "label": "Ether"
            },
            {
                "address": "0xb97048628db6b661d4c2aa833e95dbe1a905b280",
                "label": "TenX Token"
            },
            {
                "address": "0x62e6bda165898bcc40aef0209ef5353ec96879da",
                "label": "UPBIT"
            },
            {
                "address": "0x0000000000000000000000000000000000000001",
                "label": "Precompiled"
            },
            {
                "address": "0x0000000000000000000000000000000000000002",
                "label": "Precompiled"
            },
            {
                "address": "0x0000000000000000000000000000000000000003",
                "label": "Precompiled"
            },
            {
                "address": "0x0000000000000000000000000000000000000004",
                "label": "Precompiled"
            }
        ]
    },
    "trace": {
        "accountLabels": null,
        "dataMap": {
            "-1": {
                "invocation": {
                    "address": "0x5b270a205822ff959ff9723b0b62d7c02596fc37",
                    "callData": "",
                    "decodedMethod": null,
                    "errorInfo": "",
                    "fromAddress": "",
                    "gasUsed": 0,
                    "id": -1,
                    "methodDecoded": false,
                    "operation": "",
                    "output": "",
                    "revert": false,
                    "revertMessage": "",
                    "selector": "",
                    "status": false,
                    "value": ""
                },
                "nodeType": 0
            },
            "0": {
                "invocation": {
                    "address": "0xfa28f4130e6929b9bd801e8e3c332ed9005fafa4",
                    "callData": "0x00000000000000000000000062e6bda165898bcc40aef0209ef5353ec96879da0000000000000000000000000000000000000000000001a365dfb78d6dd0d800000000000000000000000000b97048628db6b661d4c2aa833e95dbe1a905b280000000000000000000000000000000000000000000000000000000005c5f816d00000000000000000000000000000000000000000000000000000000000001d200000000000000000000000000000000000000000000000000000000000000c000000000000000000000000000000000000000000000000000000000000000419f92b6b9511076ced74bbc19f3883004ba1167c94d275b0f05f8b8795ff8b821091adf7da6d7fbc31e3cd2f15d5792d2658244e159a5bc699b9028787e1559521c00000000000000000000000000000000000000000000000000000000000000",
                    "decodedMethod": {
                        "callParams": [
                            {
                                "name": "toAddress",
                                "type": "address",
                                "value": "0x62e6bda165898bcc40aef0209ef5353ec96879da"
                            },
                            {
                                "name": "value",
                                "type": "uint256",
                                "value": "7,736,526,554,620,000,000,000"
                            },
                            {
                                "name": "tokenContractAddress",
                                "type": "address",
                                "value": "0xb97048628db6b661d4c2aa833e95dbe1a905b280"
                            },
                            {
                                "name": "expireTime",
                                "type": "uint256",
                                "value": "1,549,762,925"
                            },
                            {
                                "name": "sequenceId",
                                "type": "uint256",
                                "value": "466"
                            },
                            {
                                "name": "signature",
                                "type": "bytes",
                                "value": "0x9f92b6b9511076ced74bbc19f3883004ba1167c94d275b0f05f8b8795ff8b821091adf7da6d7fbc31e3cd2f15d5792d2658244e159a5bc699b9028787e1559521c"
                            }
                        ],
                        "constructorArguments": "",
                        "name": "sendMultiSigToken",
                        "returnParams": [],
                        "signature": "sendMultiSigToken(address,uint256,address,uint256,uint256,bytes)"
                    },
                    "errorInfo": "",
                    "fromAddress": "0x5b270a205822ff959ff9723b0b62d7c02596fc37",
                    "gasUsed": 84723,
                    "id": 0,
                    "methodDecoded": true,
                    "operation": "CALL",
                    "output": "",
                    "revert": false,
                    "revertMessage": "",
                    "selector": "0x0dcd7a6c",
                    "status": true,
                    "value": "0"
                },
                "nodeType": 0
            },
            "1": {
                "invocation": {
                    "address": "0x0000000000000000000000000000000000000001",
                    "callData": "0xbc568e156ffff2a6ca436ff7a3f2aeb63456dd746984e7475f4c02e8000000000000000000000000000000000000000000000000000000000000001c9f92b6b9511076ced74bbc19f3883004ba1167c94d275b0f05f8b8795ff8b821091adf7da6d7fbc31e3cd2f15d5792d2658244e159a5bc699b9028787e155952",
                    "decodedMethod": {
                        "callParams": [
                            {
                                "name": "hash",
                                "type": "bytes32",
                                "value": "0x1c02a72fbc568e156ffff2a6ca436ff7a3f2aeb63456dd746984e7475f4c02e8"
                            },
                            {
                                "name": "v",
                                "type": "uint256",
                                "value": "28"
                            },
                            {
                                "name": "r",
                                "type": "bytes32",
                                "value": "0x9f92b6b9511076ced74bbc19f3883004ba1167c94d275b0f05f8b8795ff8b821"
                            },
                            {
                                "name": "s",
                                "type": "bytes32",
                                "value": "0x091adf7da6d7fbc31e3cd2f15d5792d2658244e159a5bc699b9028787e155952"
                            }
                        ],
                        "constructorArguments": "",
                        "name": "ecrecover",
                        "returnParams": [
                            {
                                "name": "",
                                "type": "address",
                                "value": "0x393c14412499636a03c7e9be46d74d6836804522"
                            }
                        ],
                        "signature": "ecrecover(bytes32,uint256,bytes32,bytes32)"
                    },
                    "errorInfo": "",
                    "fromAddress": "0xfa28f4130e6929b9bd801e8e3c332ed9005fafa4",
                    "gasUsed": 3000,
                    "id": 1,
                    "methodDecoded": true,
                    "operation": "CALL",
                    "output": "0x000000000000000000000000393c14412499636a03c7e9be46d74d6836804522",
                    "revert": false,
                    "revertMessage": "",
                    "selector": "0x1c02a72f",
                    "status": true,
                    "value": "0"
                },
                "nodeType": 0
            },
            "2": {
                "invocation": {
                    "address": "0xb97048628db6b661d4c2aa833e95dbe1a905b280",
                    "callData": "0x00000000000000000000000062e6bda165898bcc40aef0209ef5353ec96879da0000000000000000000000000000000000000000000001a365dfb78d6dd0d800",
                    "decodedMethod": {
                        "callParams": [
                            {
                                "name": "_to",
                                "type": "address",
                                "value": "0x62e6bda165898bcc40aef0209ef5353ec96879da"
                            },
                            {
                                "decimalAvailable": true,
                                "name": "_value",
                                "type": "uint256",
                                "value": "7,736,526,554,620,000,000,000"
                            }
                        ],
                        "constructorArguments": "",
                        "name": "transfer",
                        "returnParams": [],
                        "signature": "transfer(address,uint256)"
                    },
                    "errorInfo": "",
                    "fromAddress": "0xfa28f4130e6929b9bd801e8e3c332ed9005fafa4",
                    "gasUsed": 28809,
                    "id": 2,
                    "methodDecoded": true,
                    "operation": "CALL",
                    "output": "",
                    "revert": false,
                    "revertMessage": "",
                    "selector": "0xa9059cbb",
                    "status": true,
                    "value": "0"
                },
                "nodeType": 0
            },
            "3": {
                "event": {
                    "contract": "0xb97048628db6b661d4c2aa833e95dbe1a905b280",
                    "decodedLog": {
                        "name": "Transfer",
                        "params": [
                            {
                                "name": "from",
                                "type": "address",
                                "value": "0xfa28f4130e6929b9bd801e8e3c332ed9005fafa4"
                            },
                            {
                                "name": "to",
                                "type": "address",
                                "value": "0x62e6bda165898bcc40aef0209ef5353ec96879da"
                            },
                            {
                                "decimalAvailable": true,
                                "name": "value",
                                "type": "uint256",
                                "value": "7,736,526,554,620,000,000,000"
                            }
                        ],
                        "signature": "Transfer(address,address,uint256)"
                    },
                    "id": 3,
                    "logData": "0x0000000000000000000000000000000000000000000001a365dfb78d6dd0d800",
                    "logDecoded": true,
                    "operation": "EVENT",
                    "revert": false,
                    "status": true,
                    "topics": [
                        "0xddf252ad1be2c89b69c2b068fc378daa952ba7f163c4a11628f55a4df523b3ef",
                        "0x000000000000000000000000fa28f4130e6929b9bd801e8e3c332ed9005fafa4",
                        "0x00000000000000000000000062e6bda165898bcc40aef0209ef5353ec96879da"
                    ]
                },
                "nodeType": 1
            }
        },
        "gasFlame": [
            {
                "children": [
                    {
                        "children": [
                            {
                                "children": [],
                                "depth": 0,
                                "name": "Initial Gas",
                                "value": 30360
                            },
                            {
                                "children": [
                                    {
                                        "children": [],
                                        "depth": 1,
                                        "name": "ecrecover",
                                        "value": 3000
                                    },
                                    {
                                        "children": [],
                                        "depth": 1,
                                        "name": "transfer",
                                        "value": 28809
                                    }
                                ],
                                "depth": 0,
                                "name": "Executed Gas",
                                "value": 54363
                            }
                        ],
                        "depth": -1,
                        "name": "Actual Gas Used",
                        "value": 84723
                    },
                    {
                        "children": [],
                        "depth": -1,
                        "name": "Refunded Gas",
                        "value": 0
                    }
                ],
                "depth": -2,
                "name": "Total Gas",
                "value": 84723
            }
        ],
        "isConfirmed": true,
        "mainTrace": [
            {
                "children": [
                    {
                        "children": [
                            {
                                "children": [],
                                "depth": 1,
                                "id": 1,
                                "order": 1
                            },
                            {
                                "children": [
                                    {
                                        "children": [],
                                        "depth": 2,
                                        "id": 3,
                                        "order": 3
                                    }
                                ],
                                "depth": 1,
                                "id": 2,
                                "order": 2
                            }
                        ],
                        "depth": 0,
                        "id": 0,
                        "order": 0
                    }
                ],
                "depth": -1,
                "id": -1,
                "order": -1
            }
        ],
        "mainTraceNodeCount": 4,
        "parentIdMap": {
            "0": -1,
            "1": 0,
            "2": 0,
            "3": 2
        },
        "tidyTrace": [
            {
                "children": [
                    {
                        "children": [
                            {
                                "children": [],
                                "depth": 1,
                                "id": 1,
                                "order": 1
                            },
                            {
                                "children": [
                                    {
                                        "children": [],
                                        "depth": 2,
                                        "id": 3,
                                        "order": 3
                                    }
                                ],
                                "depth": 1,
                                "id": 2,
                                "order": 2
                            }
                        ],
                        "depth": 0,
                        "id": 0,
                        "order": 0
                    }
                ],
                "depth": -1,
                "id": -1,
                "order": -1
            }
        ],
        "tidyTraceNodeCount": 4
    },
    "state_change": {
        "stateChanges": [
            {
                "address": "0xb97048628db6b661d4c2aa833e95dbe1a905b280",
                "erc": "ERC-20",
                "slots": [
                    {
                        "current": "0x000000000000000000000000000000000000000000017f25c207251b976b8400",
                        "key": "0x88bfe545cfd0b01be2b394ecb3c16cc7325f0b84ba827e70b46cf8ea912e9b99",
                        "prev": "0x0000000000000000000000000000000000000000000180c927e6dca9053c5c00"
                    },
                    {
                        "current": "0x0000000000000000000000000000000000000000000001a365dfb78d6dd0d800",
                        "key": "0xceeec6bd137f1b9b24e9f79b59181070b65205ecbbba68daa3f474610a5a551d",
                        "prev": "0x0000000000000000000000000000000000000000000000000000000000000000"
                    }
                ],
                "storageVariables": []
            },
            {
                "address": "0xfa28f4130e6929b9bd801e8e3c332ed9005fafa4",
                "erc": "",
                "slots": [
                    {
                        "current": "0x00000000000000000000000000000000000000000000000000000000000001d2",
                        "key": "0x0000000000000000000000000000000000000000000000000000000000000007",
                        "prev": "0x00000000000000000000000000000000000000000000000000000000000001c8"
                    }
                ],
                "storageVariables": []
            }
        ]
    }
}