{
    "balance_change": {
        "balanceChanges": []
    },
    "profile": {
        "basic_info": {
            "baseFee": "100.392081196",
            "blockNumber": 14088328,
            "callData": "0xab834bab0000000000000000000000007be8076f4ea4a4ad08075c2508e481d6c946d12b000000000000000000000000c80137da44bc4bba45fb120cc740c3fb84643c580000000000000000000000005b436b7cc93d246d3a62fc7a95339f6fac7d2a4a0000000000000000000000000000000000000000000000000000000000000000000000000000000000000000652d68c39d3545714d9bf4616f778424a34cf603000000000000000000000000000000000000000000000000000000000000000000000000000000000000000000000000000000000000000000000000000000000000000000000000000000007be8076f4ea4a4ad08075c2508e481d6c946d12b0000000000000000000000005b436b7cc93d246d3a62fc7a95339f6fac7d2a4a00000000000000000000000000000000000000000000000000000000000000000000000000000000000000005b3256965e7c3cf26e11fcaf296dfc8807c01073000000000000000000000000652d68c39d3545714d9bf4616f778424a34cf6030000000000000000000000000000000000000000000000000000000000000000000000000000000000000000000000000000000000000000000000000000000000000000000000000000000000000000000000000000000000000000000002ee000000000000000000000000000000000000000000000000000000000000000000000000000000000000000000000000000000000000000000000000000000000000000000000000000000000000000000000000000000000000000000000000000000000000000000000000000000000000000000000000002714711487800000000000000000000000000000000000000000000000000000000000000000000000000000000000000000000000000000000000000000000000000061f2b20c000000000000000000000000000000000000000000000000000000000000000093ca8b617af235a68a72873e5abbb76349c3e45a37fa21c83c120df35b97ca0b00000000000000000000000000000000000000000000000000000000000002ee000000000000000000000000000000000000000000000000000000000000000000000000000000000000000000000000000000000000000000000000000000000000000000000000000000000000000000000000000000000000000000000000000000000000000000000000000000000000000000000000002714711487800000000000000000000000000000000000000000000000000000000000000000000000000000000000000000000000000000000000000000000000000061f2b1b700000000000000000000000000000000000000000000000000000000621b8e22a1c2bece1efbee30850c8d1012f232cf95753d602709a0aad2c7c1cce0558e780000000000000000000000000000000000000000000000000000000000000001000000000000000000000000000000000000000000000000000000000000000000000000000000000000000000000000000000000000000000000000000000000000000000000000000000000000000000000000000000000000000000000000000000000000000000000000000000000000000000000000000000000000000100000000000000000000000000000000000000000000000000000000000000010000000000000000000000000000000000000000000000000000000000000000000000000000000000000000000000000000000000000000000000000000000000000000000000000000000000000000000000000000000000000000000006a0000000000000000000000000000000000000000000000000000000000000074000000000000000000000000000000000000000000000000000000000000007e0000000000000000000000000000000000000000000000000000000000000088000000000000000000000000000000000000000000000000000000000000009200000000000000000000000000000000000000000000000000000000000000940000000000000000000000000000000000000000000000000000000000000001c000000000000000000000000000000000000000000000000000000000000001c0fc6a9decfdac2e0a1e576a227c559e207573476056a211312a31a03c4719d743f51288292dc8fc4b3cea148ce87cfb0522839644778f921fa9a3f9ee68724430fc6a9decfdac2e0a1e576a227c559e207573476056a211312a31a03c4719d743f51288292dc8fc4b3cea148ce87cfb0522839644778f921fa9a3f9ee68724430000000000000000000000000000000000000000000000000000000000000000000000000000000000000000000000000000000000000000000000000000006423b872dd0000000000000000000000000000000000000000000000000000000000000000000000000000000000000000c80137da44bc4bba45fb120cc740c3fb84643c580000000000000000000000000000000000000000000000000000000000000a7100000000000000000000000000000000000000000000000000000000000000000000000000000000000000000000000000000000000000000000006423b872dd0000000000000000000000005b436b7cc93d246d3a62fc7a95339f6fac7d2a4a00000000000000000000000000000000000000000000000000000000000000000000000000000000000000000000000000000000000000000000000000000a7100000000000000000000000000000000000000000000000000000000000000000000000000000000000000000000000000000000000000000000006400000000ffffffffffffffffffffffffffffffffffffffffffffffffffffffffffffffff00000000000000000000000000000000000000000000000000000000000000000000000000000000000000000000000000000000000000000000000000000000000000000000000000000000000000000000000000000000000000000000000000000000000000000000000000000000000000000000000000000064000000000000000000000000000000000000000000000000000000000000000000000000ffffffffffffffffffffffffffffffffffffffffffffffffffffffffffffffff00000000000000000000000000000000000000000000000000000000000000000000000000000000000000000000000000000000000000000000000000000000000000000000000000000000000000000000000000000000000000000000000000000000000000000000000000000000000000000000000000000000",
            "debugEnable": true,
            "errorInfo": "execution reverted",
            "eventCount": 0,
            "feeRecipient": "0x1ad91ee08f21be3de0ba2ba6918e714da6b45836",
            "formatValue": "0.011",
            "gasLimit": 235384,
            "gasPrice": "101",
            "gasUsed": 64724,
            "intTxnCount": 0,
            "internalRevert": false,
            "internalRevertMessage": "",
            "isContractCreation": false,
            "isFlashloan": false,
            "maxFee": "101",
            "nonce": 169,
            "overwritedBlockNumber": -1,
            "priorityFee": "1.5",
            "receiver": "0x7be8076f4ea4a4ad08075c2508e481d6c946d12b",
            "revertMessage": "",
            "sender": "0xc80137da44bc4bba45fb120cc740c3fb84643c58",
            "simulationEnable": true,
            "sourceTxnHash": "0xe90346e12e7d53e63815ff79a68a08432c87a468101737cb2a2272eda093ddfe",
            "status": false,
            "timestamp": "2022-01-27T14:58:41Z",
            "transactionFee": "0.006537124",
            "txnHash": "0xe90346e12e7d53e63815ff79a68a08432c87a468101737cb2a2272eda093ddfe",
            "txnIndex": 163,
            "type": 2,
            "value": "11000000000000000"
        },
        "fund_flow": [],
        "token_infos": [
            {
                "address": "0xc02aaa39b223fe8d0a0e5c4f27ead9083c756cc2",
                "decimals": 18
            },
            {
                "address": "0xeeeeeeeeeeeeeeeeeeeeeeeeeeeeeeeeeeeeeeee",
                "decimals": 18
            }
        ]
    },
    "address_label": {
        "labels": [
            {
                "address": "0x0000000000000000000000000000000000000000",
                "label": "Null Address"
            },
            {
                "address": "0x0000000000000000000000000000000000000002",
                "label": "Precompiled"
            },
            {
                "address": "0x0000000000000000000000000000000000000004",
                "label": "Precompiled"
            },
            {
                "address": "0xeeeeeeeeeeeeeeeeeeeeeeeeeeeeeeeeeeeeeeee",
                "label": "Ether"
            },
            {
                "address": "0x652d68c39d3545714d9bf4616f778424a34cf603",
                "label": "Old Ape Country Club: OACC Token"
            },
            {
                "address": "0x0000000000000000000000000000000000000001",
                "label": "Precompiled"
            },
            {
                "address": "0x0000000000000000000000000000000000000003",
                "label": "Precompiled"
            },
            {
                "address": "0x5b3256965e7c3cf26e11fcaf296dfc8807c01073",
                "label": "OpenSea: Wallet"
            },
            {
                "address": "0x7be8076f4ea4a4ad08075c2508e481d6c946d12b",
                "label": "OpenSea: Wyvern Exchange v1"
            }
        ]
    },
    "trace": {
        "accountLabels": null,
        "dataMap": {
            "-1": {
                "invocation": {
                    "address": "0xc80137da44bc4bba45fb120cc740c3fb84643c58",
                    "callData": "",
                    "decodedMethod": null,
                    "errorInfo": "",
                    "fromAddress": "",
                    "gasUsed": 0,
                    "id": -1,
                    "methodDecoded": false,
                    "operation": "",
                    "output": "",
                    "revert": false,
                    "revertMessage": "",
                    "selector": "",
                    "status": false,
                    "value": ""
                },
                "nodeType": 0
            },
            "0": {
                "invocation": {
                    "address": "0x7be8076f4ea4a4ad08075c2508e481d6c946d12b",
                    "callData": "0x0000000000000000000000007be8076f4ea4a4ad08075c2508e481d6c946d12b000000000000000000000000c80137da44bc4bba45fb120cc740c3fb84643c580000000000000000000000005b436b7cc93d246d3a62fc7a95339f6fac7d2a4a0000000000000000000000000000000000000000000000000000000000000000000000000000000000000000652d68c39d3545714d9bf4616f778424a34cf603000000000000000000000000000000000000000000000000000000000000000000000000000000000000000000000000000000000000000000000000000000000000000000000000000000007be8076f4ea4a4ad08075c2508e481d6c946d12b0000000000000000000000005b436b7cc93d246d3a62fc7a95339f6fac7d2a4a00000000000000000000000000000000000000000000000000000000000000000000000000000000000000005b3256965e7c3cf26e11fcaf296dfc8807c01073000000000000000000000000652d68c39d3545714d9bf4616f778424a34cf6030000000000000000000000000000000000000000000000000000000000000000000000000000000000000000000000000000000000000000000000000000000000000000000000000000000000000000000000000000000000000000000002ee000000000000000000000000000000000000000000000000000000000000000000000000000000000000000000000000000000000000000000000000000000000000000000000000000000000000000000000000000000000000000000000000000000000000000000000000000000000000000000000000002714711487800000000000000000000000000000000000000000000000000000000000000000000000000000000000000000000000000000000000000000000000000061f2b20c000000000000000000000000000000000000000000000000000000000000000093ca8b617af235a68a72873e5abbb76349c3e45a37fa21c83c120df35b97ca0b00000000000000000000000000000000000000000000000000000000000002ee000000000000000000000000000000000000000000000000000000000000000000000000000000000000000000000000000000000000000000000000000000000000000000000000000000000000000000000000000000000000000000000000000000000000000000000000000000000000000000000000002714711487800000000000000000000000000000000000000000000000000000000000000000000000000000000000000000000000000000000000000000000000000061f2b1b700000000000000000000000000000000000000000000000000000000621b8e22a1c2bece1efbee30850c8d1012f232cf95753d602709a0aad2c7c1cce0558e780000000000000000000000000000000000000000000000000000000000000001000000000000000000000000000000000000000000000000000000000000000000000000000000000000000000000000000000000000000000000000000000000000000000000000000000000000000000000000000000000000000000000000000000000000000000000000000000000000000000000000000000000000000100000000000000000000000000000000000000000000000000000000000000010000000000000000000000000000000000000000000000000000000000000000000000000000000000000000000000000000000000000000000000000000000000000000000000000000000000000000000000000000000000000000000006a0000000000000000000000000000000000000000000000000000000000000074000000000000000000000000000000000000000000000000000000000000007e0000000000000000000000000000000000000000000000000000000000000088000000000000000000000000000000000000000000000000000000000000009200000000000000000000000000000000000000000000000000000000000000940000000000000000000000000000000000000000000000000000000000000001c000000000000000000000000000000000000000000000000000000000000001c0fc6a9decfdac2e0a1e576a227c559e207573476056a211312a31a03c4719d743f51288292dc8fc4b3cea148ce87cfb0522839644778f921fa9a3f9ee68724430fc6a9decfdac2e0a1e576a227c559e207573476056a211312a31a03c4719d743f51288292dc8fc4b3cea148ce87cfb0522839644778f921fa9a3f9ee68724430000000000000000000000000000000000000000000000000000000000000000000000000000000000000000000000000000000000000000000000000000006423b872dd0000000000000000000000000000000000000000000000000000000000000000000000000000000000000000c80137da44bc4bba45fb120cc740c3fb84643c580000000000000000000000000000000000000000000000000000000000000a7100000000000000000000000000000000000000000000000000000000000000000000000000000000000000000000000000000000000000000000006423b872dd0000000000000000000000005b436b7cc93d246d3a62fc7a95339f6fac7d2a4a00000000000000000000000000000000000000000000000000000000000000000000000000000000000000000000000000000000000000000000000000000a7100000000000000000000000000000000000000000000000000000000000000000000000000000000000000000000000000000000000000000000006400000000ffffffffffffffffffffffffffffffffffffffffffffffffffffffffffffffff00000000000000000000000000000000000000000000000000000000000000000000000000000000000000000000000000000000000000000000000000000000000000000000000000000000000000000000000000000000000000000000000000000000000000000000000000000000000000000000000000000064000000000000000000000000000000000000000000000000000000000000000000000000ffffffffffffffffffffffffffffffffffffffffffffffffffffffffffffffff00000000000000000000000000000000000000000000000000000000000000000000000000000000000000000000000000000000000000000000000000000000000000000000000000000000000000000000000000000000000000000000000000000000000000000000000000000000000000000000000000000000",
                    "decodedMethod": {
                        "callParams": [
                            {
                                "name": "addrs",
                                "type": "address[14]",
                                "value": [
                                    "0x7be8076f4ea4a4ad08075c2508e481d6c946d12b",
                                    "0xc80137da44bc4bba45fb120cc740c3fb84643c58",
                                    "0x5b436b7cc93d246d3a62fc7a95339f6fac7d2a4a",
                                    "0x0000000000000000000000000000000000000000",
                                    "0x652d68c39d3545714d9bf4616f778424a34cf603",
                                    "0x0000000000000000000000000000000000000000",
                                    "0x0000000000000000000000000000000000000000",
                                    "0x7be8076f4ea4a4ad08075c2508e481d6c946d12b",
                                    "0x5b436b7cc93d246d3a62fc7a95339f6fac7d2a4a",
                                    "0x0000000000000000000000000000000000000000",
                                    "0x5b3256965e7c3cf26e11fcaf296dfc8807c01073",
                                    "0x652d68c39d3545714d9bf4616f778424a34cf603",
                                    "0x0000000000000000000000000000000000000000",
                                    "0x0000000000000000000000000000000000000000"
                                ]
                            },
                            {
                                "name": "uints",
                                "type": "uint256[18]",
                                "value": [
                                    "750",
                                    "0",
                                    "0",
                                    "0",
                                    "11,000,000,000,000,000",
                                    "0",
                                    "1,643,295,244",
                                    "0",
                                    "66,847,853,819,630,162,149,824,854,485,831,119,720,896,011,484,505,586,992,608,746,647,697,269,180,939",
                                    "750",
                                    "0",
                                    "0",
                                    "0",
                                    "11,000,000,000,000,000",
                                    "0",
                                    "1,643,295,159",
                                    "1,645,973,026",
                                    "73,166,453,841,290,805,645,042,150,689,585,768,340,368,246,057,343,066,512,668,005,687,379,543,559,800"
                                ]
                            },
                            {
                                "name": "feeMethodsSidesKindsHowToCalls",
                                "type": "uint8[8]",
                                "value": [
                                    "1",
                                    "0",
                                    "0",
                                    "0",
                                    "1",
                                    "1",
                                    "0",
                                    "0"
                                ]
                            },
                            {
                                "name": "calldataBuy",
                                "type": "bytes",
                                "value": "0x23b872dd0000000000000000000000000000000000000000000000000000000000000000000000000000000000000000c80137da44bc4bba45fb120cc740c3fb84643c580000000000000000000000000000000000000000000000000000000000000a71"
                            },
                            {
                                "name": "calldataSell",
                                "type": "bytes",
                                "value": "0x23b872dd0000000000000000000000005b436b7cc93d246d3a62fc7a95339f6fac7d2a4a00000000000000000000000000000000000000000000000000000000000000000000000000000000000000000000000000000000000000000000000000000a71"
                            },
                            {
                                "name": "replacementPatternBuy",
                                "type": "bytes",
                                "value": "0x00000000ffffffffffffffffffffffffffffffffffffffffffffffffffffffffffffffff00000000000000000000000000000000000000000000000000000000000000000000000000000000000000000000000000000000000000000000000000000000"
                            },
                            {
                                "name": "replacementPatternSell",
                                "type": "bytes",
                                "value": "0x000000000000000000000000000000000000000000000000000000000000000000000000ffffffffffffffffffffffffffffffffffffffffffffffffffffffffffffffff0000000000000000000000000000000000000000000000000000000000000000"
                            },
                            {
                                "name": "staticExtradataBuy",
                                "type": "bytes",
                                "value": "0x"
                            },
                            {
                                "name": "staticExtradataSell",
                                "type": "bytes",
                                "value": "0x"
                            },
                            {
                                "name": "vs",
                                "type": "uint8[2]",
                                "value": [
                                    "28",
                                    "28"
                                ]
                            },
                            {
                                "name": "rssMetadata",
                                "type": "bytes32[5]",
                                "value": [
                                    "0x0fc6a9decfdac2e0a1e576a227c559e207573476056a211312a31a03c4719d74",
                                    "0x3f51288292dc8fc4b3cea148ce87cfb0522839644778f921fa9a3f9ee6872443",
                                    "0x0fc6a9decfdac2e0a1e576a227c559e207573476056a211312a31a03c4719d74",
                                    "0x3f51288292dc8fc4b3cea148ce87cfb0522839644778f921fa9a3f9ee6872443",
                                    "0x0000000000000000000000000000000000000000000000000000000000000000"
                                ]
                            }
                        ],
                        "constructorArguments": "",
                        "name": "atomicMatch_",
                        "returnParams": [],
                        "signature": "atomicMatch_(address[14],uint256[18],uint8[8],bytes,bytes,bytes,bytes,bytes,bytes,uint8[2],bytes32[5])"
                    },
                    "errorInfo": "execution reverted",
                    "fromAddress": "0xc80137da44bc4bba45fb120cc740c3fb84643c58",
                    "gasUsed": 64724,
                    "id": 0,
                    "methodDecoded": true,
                    "operation": "CALL",
                    "output": "",
                    "revert": true,
                    "revertMessage": "",
                    "selector": "0xab834bab",
                    "status": false,
                    "value": "0.011"
                },
                "nodeType": 0
            }
        },
        "gasFlame": [
            {
                "children": [
                    {
                        "children": [
                            {
                                "children": [],
                                "depth": 0,
                                "name": "Initial Gas",
                                "value": 36868
                            },
                            {
                                "children": [],
                                "depth": 0,
                                "name": "Executed Gas",
                                "value": 27856
                            }
                        ],
                        "depth": -1,
                        "name": "Actual Gas Used",
                        "value": 64724
                    },
                    {
                        "children": [],
                        "depth": -1,
                        "name": "Refunded Gas",
                        "value": 0
                    }
                ],
                "depth": -2,
                "name": "Total Gas",
                "value": 64724
            }
        ],
        "isConfirmed": true,
        "mainTrace": [
            {
                "children": [
                    {
                        "children": [],
                        "depth": 0,
                        "id": 0,
                        "order": 0
                    }
                ],
                "depth": -1,
                "id": -1,
                "order": -1
            }
        ],
        "mainTraceNodeCount": 1,
        "parentIdMap": {
            "0": -1
        },
        "tidyTrace": [
            {
                "children": [
                    {
                        "children": [],
                        "depth": 0,
                        "id": 0,
                        "order": 0
                    }
                ],
                "depth": -1,
                "id": -1,
                "order": -1
            }
        ],
        "tidyTraceNodeCount": 1
    },
    "state_change": {
        "stateChanges": []
    }
}