{
    "balance_change": {
        "balanceChanges": [
            {
                "account": "0x048717ea892f23fb0126f00640e2b18072efd9d2",
                "assets": [
                    {
                        "address": "0xeeeeeeeeeeeeeeeeeeeeeeeeeeeeeeeeeeeeeeee",
                        "amount": "0.000000000000000001",
                        "iconUrl": "https://assets.blocksec.com/image/1663669189317-3.png",
                        "isERC1155": false,
                        "isERC721": false,
                        "sign": false,
                        "value": ""
                    }
                ]
            },
            {
                "account": "0x005bc6a6ee494ffa3a155ab746c501459bbf900a",
                "assets": [
                    {
                        "address": "0xeeeeeeeeeeeeeeeeeeeeeeeeeeeeeeeeeeeeeeee",
                        "amount": "0.000000000000000001",
                        "iconUrl": "https://assets.blocksec.com/image/1663669189317-3.png",
                        "isERC1155": false,
                        "isERC721": false,
                        "sign": true,
                        "value": ""
                    }
                ]
            }
        ]
    },
    "profile": {
        "basic_info": {
            "baseFee": "",
            "blockNumber": 5432185,
            "callData": "0x38bbfa5060167550f97591aea8be72cf9116ce025d3d43d46dc07355c7a97fbd62f5397d000000000000000000000000000000000000000000000000000000000000006000000000000000000000000000000000000000000000000000000000000000a0000000000000000000000000000000000000000000000000000000000000000f5b3239323736342c205b3130305d5d0000000000000000000000000000000000000000000000000000000000000000000000000000000000000000000000002212207ee108ccadd27f8972a93268292570123a2179fdacc70eed4d3893bad285d858000000000000000000000000000000000000000000000000000000000000",
            "debugEnable": true,
            "errorInfo": "",
            "eventCount": 1,
            "feeRecipient": "0x829bd824b016326a401d083b33d092293333a830",
            "formatValue": "0",
            "gasLimit": 235000,
            "gasPrice": "4",
            "gasUsed": 145103,
            "intTxnCount": 3,
            "internalRevert": false,
            "internalRevertMessage": "",
            "isContractCreation": false,
            "isFlashloan": false,
            "maxFee": "",
            "nonce": 489417,
            "overwritedBlockNumber": -1,
            "priorityFee": "",
            "receiver": "0x048717ea892f23fb0126f00640e2b18072efd9d2",
            "revertMessage": "",
            "sender": "0x26588a9301b0428d95e6fc3a5024fce8bec12d51",
            "simulationEnable": true,
            "sourceTxnHash": "0xe92d9fd2a874d079cff331f3c36a3bfcc0797c42662e199e9eba2fa246c28bf7",
            "status": true,
            "timestamp": "2018-04-13T08:32:48Z",
            "transactionFee": "0.000580412",
            "txnHash": "0xe92d9fd2a874d079cff331f3c36a3bfcc0797c42662e199e9eba2fa246c28bf7",
            "txnIndex": 69,
            "type": 0,
            "value": "0"
        },
        "fund_flow": [
            {
                "amount": "0.000000000000000001",
                "from": "0x048717ea892f23fb0126f00640e2b18072efd9d2",
                "id": 1,
                "isERC1155": false,
                "isERC721": false,
                "isReverted": false,
                "order": 1,
                "to": "0x005bc6a6ee494ffa3a155ab746c501459bbf900a",
                "token": "0xeeeeeeeeeeeeeeeeeeeeeeeeeeeeeeeeeeeeeeee"
            }
        ],
        "token_infos": [
            {
                "address": "0xc02aaa39b223fe8d0a0e5c4f27ead9083c756cc2",
                "decimals": 18
            },
            {
                "address": "0xeeeeeeeeeeeeeeeeeeeeeeeeeeeeeeeeeeeeeeee",
                "decimals": 18
            }
        ]
    },
    "address_label": {
        "labels": [
            {
                "address": "0x0000000000000000000000000000000000000004",
                "label": "Precompiled"
            },
            {
                "address": "0x26588a9301b0428d95e6fc3a5024fce8bec12d51",
                "label": "0x2658_Oraclize"
            },
            {
                "address": "0x1d3b2638a7cc9f2cb3d298a3da7a90b67e5506ed",
                "label": "OraclizeAddrResolver"
            },
            {
                "address": "0x0000000000000000000000000000000000000002",
                "label": "Precompiled"
            },
            {
                "address": "0x0000000000000000000000000000000000000001",
                "label": "Precompiled"
            },
            {
                "address": "0x0000000000000000000000000000000000000003",
                "label": "Precompiled"
            },
            {
                "address": "0xeeeeeeeeeeeeeeeeeeeeeeeeeeeeeeeeeeeeeeee",
                "label": "Ether"
            },
            {
                "address": "0x048717ea892f23fb0126f00640e2b18072efd9d2",
                "label": "Etheroll"
            },
            {
                "address": "0x3dbdc81a6edc94c720b0b88fb65dbd7e395fdcf6",
                "label": "0x3dbd_Oraclize"
            }
        ]
    },
    "trace": {
        "accountLabels": null,
        "dataMap": {
            "-1": {
                "invocation": {
                    "address": "0x26588a9301b0428d95e6fc3a5024fce8bec12d51",
                    "callData": "",
                    "decodedMethod": null,
                    "errorInfo": "",
                    "fromAddress": "",
                    "gasUsed": 0,
                    "id": -1,
                    "methodDecoded": false,
                    "operation": "",
                    "output": "",
                    "revert": false,
                    "revertMessage": "",
                    "selector": "",
                    "status": false,
                    "value": ""
                },
                "nodeType": 0
            },
            "0": {
                "invocation": {
                    "address": "0x048717ea892f23fb0126f00640e2b18072efd9d2",
                    "callData": "0x60167550f97591aea8be72cf9116ce025d3d43d46dc07355c7a97fbd62f5397d000000000000000000000000000000000000000000000000000000000000006000000000000000000000000000000000000000000000000000000000000000a0000000000000000000000000000000000000000000000000000000000000000f5b3239323736342c205b3130305d5d0000000000000000000000000000000000000000000000000000000000000000000000000000000000000000000000002212207ee108ccadd27f8972a93268292570123a2179fdacc70eed4d3893bad285d858000000000000000000000000000000000000000000000000000000000000",
                    "decodedMethod": {
                        "callParams": [
                            {
                                "name": "myid",
                                "type": "bytes32",
                                "value": "0x60167550f97591aea8be72cf9116ce025d3d43d46dc07355c7a97fbd62f5397d"
                            },
                            {
                                "name": "result",
                                "type": "string",
                                "value": "[292764, [100]]"
                            },
                            {
                                "name": "proof",
                                "type": "bytes",
                                "value": "0x12207ee108ccadd27f8972a93268292570123a2179fdacc70eed4d3893bad285d858"
                            }
                        ],
                        "constructorArguments": "",
                        "name": "__callback",
                        "returnParams": [],
                        "signature": "__callback(bytes32,string,bytes)"
                    },
                    "errorInfo": "",
                    "fromAddress": "0x26588a9301b0428d95e6fc3a5024fce8bec12d51",
                    "gasUsed": 145103,
                    "id": 0,
                    "methodDecoded": true,
                    "operation": "CALL",
                    "output": "",
                    "revert": false,
                    "revertMessage": "",
                    "selector": "0x38bbfa50",
                    "status": true,
                    "value": "0"
                },
                "nodeType": 0
            },
            "1": {
                "invocation": {
                    "address": "0x1d3b2638a7cc9f2cb3d298a3da7a90b67e5506ed",
                    "callData": "0x",
                    "decodedMethod": {
                        "callParams": [],
                        "constructorArguments": "",
                        "name": "getAddress",
                        "returnParams": [
                            {
                                "name": "oaddr",
                                "type": "address",
                                "value": "0x3dbdc81a6edc94c720b0b88fb65dbd7e395fdcf6"
                            }
                        ],
                        "signature": "getAddress()"
                    },
                    "errorInfo": "",
                    "fromAddress": "0x048717ea892f23fb0126f00640e2b18072efd9d2",
                    "gasUsed": 418,
                    "id": 1,
                    "methodDecoded": true,
                    "operation": "CALL",
                    "output": "0x0000000000000000000000003dbdc81a6edc94c720b0b88fb65dbd7e395fdcf6",
                    "revert": false,
                    "revertMessage": "",
                    "selector": "0x38cc4831",
                    "status": true,
                    "value": "0"
                },
                "nodeType": 0
            },
            "2": {
                "invocation": {
                    "address": "0x3dbdc81a6edc94c720b0b88fb65dbd7e395fdcf6",
                    "callData": "0x",
                    "decodedMethod": {
                        "callParams": [],
                        "constructorArguments": "",
                        "name": "cbAddress",
                        "returnParams": [
                            {
                                "name": "_cbAddress",
                                "type": "address",
                                "value": "0x26588a9301b0428d95e6fc3a5024fce8bec12d51"
                            }
                        ],
                        "signature": "cbAddress()"
                    },
                    "errorInfo": "",
                    "fromAddress": "0x048717ea892f23fb0126f00640e2b18072efd9d2",
                    "gasUsed": 1444,
                    "id": 2,
                    "methodDecoded": true,
                    "operation": "CALL",
                    "output": "0x00000000000000000000000026588a9301b0428d95e6fc3a5024fce8bec12d51",
                    "revert": false,
                    "revertMessage": "",
                    "selector": "0xc281d19e",
                    "status": true,
                    "value": "0"
                },
                "nodeType": 0
            },
            "3": {
                "event": {
                    "contract": "0x048717ea892f23fb0126f00640e2b18072efd9d2",
                    "decodedLog": {
                        "name": "LogResult",
                        "params": [
                            {
                                "name": "ResultSerialNumber",
                                "type": "uint256",
                                "value": "292,764"
                            },
                            {
                                "name": "BetID",
                                "type": "bytes32",
                                "value": "0x60167550f97591aea8be72cf9116ce025d3d43d46dc07355c7a97fbd62f5397d"
                            },
                            {
                                "name": "PlayerAddress",
                                "type": "address",
                                "value": "0x005bc6a6ee494ffa3a155ab746c501459bbf900a"
                            },
                            {
                                "name": "PlayerNumber",
                                "type": "uint256",
                                "value": "20"
                            },
                            {
                                "name": "DiceResult",
                                "type": "uint256",
                                "value": "100"
                            },
                            {
                                "name": "Value",
                                "type": "uint256",
                                "value": "100,000,000,000,000,000"
                            },
                            {
                                "name": "Status",
                                "type": "int256",
                                "value": "0"
                            },
                            {
                                "name": "Proof",
                                "type": "bytes",
                                "value": "0x12207ee108ccadd27f8972a93268292570123a2179fdacc70eed4d3893bad285d858"
                            }
                        ],
                        "signature": "LogResult(uint256,bytes32,address,uint256,uint256,uint256,int256,bytes)"
                    },
                    "id": 3,
                    "logData": "0x00000000000000000000000000000000000000000000000000000000000000140000000000000000000000000000000000000000000000000000000000000064000000000000000000000000000000000000000000000000016345785d8a0000000000000000000000000000000000000000000000000000000000000000000000000000000000000000000000000000000000000000000000000000000000a0000000000000000000000000000000000000000000000000000000000000002212207ee108ccadd27f8972a93268292570123a2179fdacc70eed4d3893bad285d858000000000000000000000000000000000000000000000000000000000000",
                    "logDecoded": true,
                    "operation": "EVENT",
                    "revert": false,
                    "status": true,
                    "topics": [
                        "0x8dd0b145385d04711e29558ceab40b456976a2b9a7d648cc1bcd416161bf97b9",
                        "0x000000000000000000000000000000000000000000000000000000000004779c",
                        "0x60167550f97591aea8be72cf9116ce025d3d43d46dc07355c7a97fbd62f5397d",
                        "0x000000000000000000000000005bc6a6ee494ffa3a155ab746c501459bbf900a"
                    ]
                },
                "nodeType": 1
            },
            "4": {
                "invocation": {
                    "address": "0x005bc6a6ee494ffa3a155ab746c501459bbf900a",
                    "callData": "0x",
                    "decodedMethod": null,
                    "errorInfo": "",
                    "fromAddress": "0x048717ea892f23fb0126f00640e2b18072efd9d2",
                    "gasUsed": 0,
                    "id": 4,
                    "methodDecoded": false,
                    "operation": "CALL",
                    "output": "",
                    "revert": false,
                    "revertMessage": "",
                    "selector": "fallback",
                    "status": true,
                    "value": "0.000000000000000001"
                },
                "nodeType": 0
            }
        },
        "gasFlame": [
            {
                "children": [
                    {
                        "children": [
                            {
                                "children": [],
                                "depth": 0,
                                "name": "Initial Gas",
                                "value": 27736
                            },
                            {
                                "children": [
                                    {
                                        "children": [],
                                        "depth": 1,
                                        "name": "getAddress",
                                        "value": 418
                                    },
                                    {
                                        "children": [],
                                        "depth": 1,
                                        "name": "cbAddress",
                                        "value": 1444
                                    },
                                    {
                                        "children": [],
                                        "depth": 1,
                                        "name": "fallback",
                                        "value": 0
                                    }
                                ],
                                "depth": 0,
                                "name": "Executed Gas",
                                "value": 162367
                            }
                        ],
                        "depth": -1,
                        "name": "Actual Gas Used",
                        "value": 145103
                    },
                    {
                        "children": [],
                        "depth": -1,
                        "name": "Refunded Gas",
                        "value": 45000
                    }
                ],
                "depth": -2,
                "name": "Total Gas",
                "value": 190103
            }
        ],
        "isConfirmed": true,
        "mainTrace": [
            {
                "children": [
                    {
                        "children": [
                            {
                                "children": [],
                                "depth": 1,
                                "id": 1,
                                "order": 1
                            },
                            {
                                "children": [],
                                "depth": 1,
                                "id": 2,
                                "order": 2
                            },
                            {
                                "children": [],
                                "depth": 1,
                                "id": 3,
                                "order": 3
                            },
                            {
                                "children": [],
                                "depth": 1,
                                "id": 4,
                                "order": 4
                            }
                        ],
                        "depth": 0,
                        "id": 0,
                        "order": 0
                    }
                ],
                "depth": -1,
                "id": -1,
                "order": -1
            }
        ],
        "mainTraceNodeCount": 5,
        "parentIdMap": {
            "0": -1,
            "1": 0,
            "2": 0,
            "3": 0,
            "4": 0
        },
        "tidyTrace": [
            {
                "children": [
                    {
                        "children": [
                            {
                                "children": [],
                                "depth": 1,
                                "id": 1,
                                "order": 1
                            },
                            {
                                "children": [],
                                "depth": 1,
                                "id": 2,
                                "order": 2
                            },
                            {
                                "children": [],
                                "depth": 1,
                                "id": 3,
                                "order": 3
                            },
                            {
                                "children": [],
                                "depth": 1,
                                "id": 4,
                                "order": 4
                            }
                        ],
                        "depth": 0,
                        "id": 0,
                        "order": 0
                    }
                ],
                "depth": -1,
                "id": -1,
                "order": -1
            }
        ],
        "tidyTraceNodeCount": 5
    },
    "state_change": {
        "stateChanges": [
            {
                "address": "0x048717ea892f23fb0126f00640e2b18072efd9d2",
                "erc": "",
                "slots": [
                    {
                        "current": "0x0000000000000000000000000000000000000000000000000000000000000000",
                        "key": "0x2befac908ed13a2e5b23fceb3dacf6b786dbd16dc55c1277c883b9f9833fb180",
                        "prev": "0x000000000000000000000000005bc6a6ee494ffa3a155ab746c501459bbf900a"
                    },
                    {
                        "current": "0x0000000000000000000000000000000000000000000000000000000000000000",
                        "key": "0x80165f4466815fa77a04af3eeeb4c1bcaf888f8870f6968cd90fa5280e45efb6",
                        "prev": "0x00000000000000000000000000000000000000000000000005d7e1233901af27"
                    },
                    {
                        "current": "0x000000000000000000000000000000000000000000004a9d0434d45f5ddb86c1",
                        "key": "0x000000000000000000000000000000000000000000000000000000000000000f",
                        "prev": "0x000000000000000000000000000000000000000000004a9d02d18ee7005186c1"
                    },
                    {
                        "current": "0x0000000000000000000000000000000000000000000000000000000000045855",
                        "key": "0x000000000000000000000000000000000000000000000000000000000000000c",
                        "prev": "0x0000000000000000000000000000000000000000000000000000000000045854"
                    },
                    {
                        "current": "0x000000000000000000000000000000000000000000000002b195ce9ea7f2b053",
                        "key": "0x0000000000000000000000000000000000000000000000000000000000000009",
                        "prev": "0x000000000000000000000000000000000000000000000002b1924120032c3053"
                    },
                    {
                        "current": "0x00000000000000000000000000000000000000000000010d5e84b5f99acce0a6",
                        "key": "0x0000000000000000000000000000000000000000000000000000000000000007",
                        "prev": "0x00000000000000000000000000000000000000000000010d5d2170813d42e0a7"
                    },
                    {
                        "current": "0x0000000000000000000000000000000000000000000000000000000000000064",
                        "key": "0xb20a4c6c9cad8b7906ef4f0b12e10b173ea70bdc0a06520cd83feab4100da54d",
                        "prev": "0x0000000000000000000000000000000000000000000000000000000000000000"
                    },
                    {
                        "current": "0x000000000000000000000000005bc6a6ee494ffa3a155ab746c501459bbf900a",
                        "key": "0x18fc883ad91e29f0a0c41563714157fb4e8e59500e240bde04930b8482fcab33",
                        "prev": "0x0000000000000000000000000000000000000000000000000000000000000000"
                    },
                    {
                        "current": "0x00000000000000000000000000000000000000000000000005d7e1233901af27",
                        "key": "0x51537c41d767882881f97bcd74a4689e4c86d4c11f4c6c16b958f4a257e37bc5",
                        "prev": "0x0000000000000000000000000000000000000000000000000000000000000000"
                    },
                    {
                        "current": "0x0000000000000000000000000000000000000000000000009b1cf886b3d42c67",
                        "key": "0x000000000000000000000000000000000000000000000000000000000000000d",
                        "prev": "0x000000000000000000000000000000000000000000000000a0f4d9a9ecd5db8e"
                    },
                    {
                        "current": "0x000000000000000000000000000000000000000000000000016345785d8a0000",
                        "key": "0x8d63a862b3d49072370c610cbf0cbd693588c4d08316aadcd02455f11e0ccc23",
                        "prev": "0x0000000000000000000000000000000000000000000000000000000000000000"
                    },
                    {
                        "current": "0x0000000000000000000000000000000000000000000000000000000000000000",
                        "key": "0x269f9ba82881d17c8de1b8743bcdb774ef918fb4d923b8c8d97bf3cc18558c77",
                        "prev": "0x000000000000000000000000000000000000000000000000016345785d8a0000"
                    }
                ],
                "storageVariables": [
                    {
                        "name": "playerAddress",
                        "type": "mapping(bytes32 => address)",
                        "value": {
                            "pairs": [
                                {
                                    "key": "0x60167550f97591aea8be72cf9116ce025d3d43d46dc07355c7a97fbd62f5397d",
                                    "value": {
                                        "current": "0x0000000000000000000000000000000000000000",
                                        "prev": "0x005bc6a6ee494ffa3a155ab746c501459bbf900a",
                                        "typeTag": 1
                                    }
                                }
                            ],
                            "typeTag": 4
                        }
                    },
                    {
                        "name": "totalWeiWagered",
                        "type": "uint256",
                        "value": {
                            "current": "352351561652507147732673",
                            "prev": "352351461652507147732673",
                            "typeTag": 1
                        }
                    },
                    {
                        "name": "maxProfit",
                        "type": "uint256",
                        "value": {
                            "current": "49689849244480090195",
                            "prev": "49688849244480090195",
                            "typeTag": 1
                        }
                    },
                    {
                        "name": "contractBalance",
                        "type": "uint256",
                        "value": {
                            "current": "4968984924448009019558",
                            "prev": "4968884924448009019559",
                            "typeTag": 1
                        }
                    },
                    {
                        "name": "playerTempReward",
                        "type": "mapping(bytes32 => uint256)",
                        "value": {
                            "pairs": [
                                {
                                    "key": "0x60167550f97591aea8be72cf9116ce025d3d43d46dc07355c7a97fbd62f5397d",
                                    "value": {
                                        "current": "421052631578947367",
                                        "prev": "0",
                                        "typeTag": 1
                                    }
                                }
                            ],
                            "typeTag": 4
                        }
                    },
                    {
                        "name": "maxPendingPayouts",
                        "type": "uint256",
                        "value": {
                            "current": "11177081632653061223",
                            "prev": "11598134264232008590",
                            "typeTag": 1
                        }
                    },
                    {
                        "name": "playerTempBetValue",
                        "type": "mapping(bytes32 => uint256)",
                        "value": {
                            "pairs": [
                                {
                                    "key": "0x60167550f97591aea8be72cf9116ce025d3d43d46dc07355c7a97fbd62f5397d",
                                    "value": {
                                        "current": "100000000000000000",
                                        "prev": "0",
                                        "typeTag": 1
                                    }
                                }
                            ],
                            "typeTag": 4
                        }
                    },
                    {
                        "name": "totalBets",
                        "type": "uint256",
                        "value": {
                            "current": "284757",
                            "prev": "284756",
                            "typeTag": 1
                        }
                    },
                    {
                        "name": "playerDieResult",
                        "type": "mapping(bytes32 => uint256)",
                        "value": {
                            "pairs": [
                                {
                                    "key": "0x60167550f97591aea8be72cf9116ce025d3d43d46dc07355c7a97fbd62f5397d",
                                    "value": {
                                        "current": "100",
                                        "prev": "0",
                                        "typeTag": 1
                                    }
                                }
                            ],
                            "typeTag": 4
                        }
                    },
                    {
                        "name": "playerBetValue",
                        "type": "mapping(bytes32 => uint256)",
                        "value": {
                            "pairs": [
                                {
                                    "key": "0x60167550f97591aea8be72cf9116ce025d3d43d46dc07355c7a97fbd62f5397d",
                                    "value": {
                                        "current": "0",
                                        "prev": "100000000000000000",
                                        "typeTag": 1
                                    }
                                }
                            ],
                            "typeTag": 4
                        }
                    },
                    {
                        "name": "playerProfit",
                        "type": "mapping(bytes32 => uint256)",
                        "value": {
                            "pairs": [
                                {
                                    "key": "0x60167550f97591aea8be72cf9116ce025d3d43d46dc07355c7a97fbd62f5397d",
                                    "value": {
                                        "current": "0",
                                        "prev": "421052631578947367",
                                        "typeTag": 1
                                    }
                                }
                            ],
                            "typeTag": 4
                        }
                    },
                    {
                        "name": "playerTempAddress",
                        "type": "mapping(bytes32 => address)",
                        "value": {
                            "pairs": [
                                {
                                    "key": "0x60167550f97591aea8be72cf9116ce025d3d43d46dc07355c7a97fbd62f5397d",
                                    "value": {
                                        "current": "0x005bc6a6ee494ffa3a155ab746c501459bbf900a",
                                        "prev": "0x0000000000000000000000000000000000000000",
                                        "typeTag": 1
                                    }
                                }
                            ],
                            "typeTag": 4
                        }
                    }
                ]
            }
        ]
    }
}