{
    "balance_change": {
        "balanceChanges": [
            {
                "account": "0x3d0fe604797ce88e288f68929d4a047c2a5f8a76",
                "assets": [
                    {
                        "address": "0xbb9bc244d798123fde783fcc1c72d3bb8c189413",
                        "amount": "89,000,000,000,000,000",
                        "iconUrl": "",
                        "isERC1155": false,
                        "isERC721": false,
                        "sign": false,
                        "value": ""
                    }
                ]
            },
            {
                "account": "0xb8be97ea13ca2a4d9c8c1c700081d8c14df9f0e9",
                "assets": [
                    {
                        "address": "0xbb9bc244d798123fde783fcc1c72d3bb8c189413",
                        "amount": "89,000,000,000,000,000",
                        "iconUrl": "",
                        "isERC1155": false,
                        "isERC721": false,
                        "sign": true,
                        "value": ""
                    }
                ]
            }
        ]
    },
    "profile": {
        "basic_info": {
            "baseFee": "",
            "blockNumber": 1962230,
            "callData": "0xa9059cbb000000000000000000000000b8be97ea13ca2a4d9c8c1c700081d8c14df9f0e90000000000000000000000000000000000000000000000000c59ea48da190000",
            "debugEnable": true,
            "errorInfo": "",
            "eventCount": 1,
            "feeRecipient": "0xea674fdde714fd979de3edf0f56aa9716b898ec8",
            "formatValue": "0",
            "gasLimit": 147650,
            "gasPrice": "20",
            "gasUsed": 47650,
            "intTxnCount": 0,
            "internalRevert": false,
            "internalRevertMessage": "",
            "isContractCreation": false,
            "isFlashloan": false,
            "maxFee": "",
            "nonce": 17,
            "overwritedBlockNumber": -1,
            "priorityFee": "",
            "receiver": "0xbb9bc244d798123fde783fcc1c72d3bb8c189413",
            "revertMessage": "",
            "sender": "0x3d0fe604797ce88e288f68929d4a047c2a5f8a76",
            "simulationEnable": true,
            "sourceTxnHash": "0xe99d24977691b2b82673314d1054673a4b6d6301740a49596b13be9ac1ebeb4c",
            "status": true,
            "timestamp": "2016-07-27T14:36:29Z",
            "transactionFee": "0.000953",
            "txnHash": "0xe99d24977691b2b82673314d1054673a4b6d6301740a49596b13be9ac1ebeb4c",
            "txnIndex": 1,
            "type": 0,
            "value": "0"
        },
        "fund_flow": [
            {
                "amount": "89,000,000,000,000,000",
                "from": "0x3d0fe604797ce88e288f68929d4a047c2a5f8a76",
                "id": 1,
                "isERC1155": false,
                "isERC721": false,
                "isReverted": false,
                "order": 1,
                "to": "0xb8be97ea13ca2a4d9c8c1c700081d8c14df9f0e9",
                "token": "0xbb9bc244d798123fde783fcc1c72d3bb8c189413"
            }
        ],
        "token_infos": [
            {
                "address": "0xbb9bc244d798123fde783fcc1c72d3bb8c189413",
                "decimals": 1
            },
            {
                "address": "0xc02aaa39b223fe8d0a0e5c4f27ead9083c756cc2",
                "decimals": 18
            },
            {
                "address": "0xeeeeeeeeeeeeeeeeeeeeeeeeeeeeeeeeeeeeeeee",
                "decimals": 18
            }
        ]
    },
    "address_label": {
        "labels": [
            {
                "address": "0xeeeeeeeeeeeeeeeeeeeeeeeeeeeeeeeeeeeeeeee",
                "label": "Ether"
            },
            {
                "address": "0xbb9bc244d798123fde783fcc1c72d3bb8c189413",
                "label": "TheDAO Token"
            },
            {
                "address": "0x0000000000000000000000000000000000000001",
                "label": "Precompiled"
            },
            {
                "address": "0x0000000000000000000000000000000000000002",
                "label": "Precompiled"
            },
            {
                "address": "0x0000000000000000000000000000000000000003",
                "label": "Precompiled"
            },
            {
                "address": "0x0000000000000000000000000000000000000004",
                "label": "Precompiled"
            }
        ]
    },
    "trace": {
        "accountLabels": null,
        "dataMap": {
            "-1": {
                "invocation": {
                    "address": "0x3d0fe604797ce88e288f68929d4a047c2a5f8a76",
                    "callData": "",
                    "decodedMethod": null,
                    "errorInfo": "",
                    "fromAddress": "",
                    "gasUsed": 0,
                    "id": -1,
                    "methodDecoded": false,
                    "operation": "",
                    "output": "",
                    "revert": false,
                    "revertMessage": "",
                    "selector": "",
                    "status": false,
                    "value": ""
                },
                "nodeType": 0
            },
            "0": {
                "invocation": {
                    "address": "0xbb9bc244d798123fde783fcc1c72d3bb8c189413",
                    "callData": "0x000000000000000000000000b8be97ea13ca2a4d9c8c1c700081d8c14df9f0e90000000000000000000000000000000000000000000000000c59ea48da190000",
                    "decodedMethod": {
                        "callParams": [
                            {
                                "name": "_to",
                                "type": "address",
                                "value": "0xb8be97ea13ca2a4d9c8c1c700081d8c14df9f0e9"
                            },
                            {
                                "decimalAvailable": true,
                                "name": "_value",
                                "type": "uint256",
                                "value": "890,000,000,000,000,000"
                            }
                        ],
                        "constructorArguments": "",
                        "name": "transfer",
                        "returnParams": [
                            {
                                "name": "success",
                                "type": "bool",
                                "value": true
                            }
                        ],
                        "signature": "transfer(address,uint256)"
                    },
                    "errorInfo": "",
                    "fromAddress": "0x3d0fe604797ce88e288f68929d4a047c2a5f8a76",
                    "gasUsed": 47650,
                    "id": 0,
                    "methodDecoded": true,
                    "operation": "CALL",
                    "output": "0x0000000000000000000000000000000000000000000000000000000000000001",
                    "revert": false,
                    "revertMessage": "",
                    "selector": "0xa9059cbb",
                    "status": true,
                    "value": "0"
                },
                "nodeType": 0
            },
            "1": {
                "event": {
                    "contract": "0xbb9bc244d798123fde783fcc1c72d3bb8c189413",
                    "decodedLog": {
                        "name": "Transfer",
                        "params": [
                            {
                                "name": "_from",
                                "type": "address",
                                "value": "0x3d0fe604797ce88e288f68929d4a047c2a5f8a76"
                            },
                            {
                                "name": "_to",
                                "type": "address",
                                "value": "0xb8be97ea13ca2a4d9c8c1c700081d8c14df9f0e9"
                            },
                            {
                                "decimalAvailable": true,
                                "name": "_amount",
                                "type": "uint256",
                                "value": "890,000,000,000,000,000"
                            }
                        ],
                        "signature": "Transfer(address,address,uint256)"
                    },
                    "id": 1,
                    "logData": "0x0000000000000000000000000000000000000000000000000c59ea48da190000",
                    "logDecoded": true,
                    "operation": "EVENT",
                    "revert": false,
                    "status": true,
                    "topics": [
                        "0xddf252ad1be2c89b69c2b068fc378daa952ba7f163c4a11628f55a4df523b3ef",
                        "0x0000000000000000000000003d0fe604797ce88e288f68929d4a047c2a5f8a76",
                        "0x000000000000000000000000b8be97ea13ca2a4d9c8c1c700081d8c14df9f0e9"
                    ]
                },
                "nodeType": 1
            }
        },
        "gasFlame": [
            {
                "children": [
                    {
                        "children": [
                            {
                                "children": [],
                                "depth": 0,
                                "name": "Initial Gas",
                                "value": 23128
                            },
                            {
                                "children": [],
                                "depth": 0,
                                "name": "Executed Gas",
                                "value": 24522
                            }
                        ],
                        "depth": -1,
                        "name": "Actual Gas Used",
                        "value": 47650
                    },
                    {
                        "children": [],
                        "depth": -1,
                        "name": "Refunded Gas",
                        "value": 0
                    }
                ],
                "depth": -2,
                "name": "Total Gas",
                "value": 47650
            }
        ],
        "isConfirmed": true,
        "mainTrace": [
            {
                "children": [
                    {
                        "children": [
                            {
                                "children": [],
                                "depth": 1,
                                "id": 1,
                                "order": 1
                            }
                        ],
                        "depth": 0,
                        "id": 0,
                        "order": 0
                    }
                ],
                "depth": -1,
                "id": -1,
                "order": -1
            }
        ],
        "mainTraceNodeCount": 2,
        "parentIdMap": {
            "0": -1,
            "1": 0
        },
        "tidyTrace": [
            {
                "children": [
                    {
                        "children": [
                            {
                                "children": [],
                                "depth": 1,
                                "id": 1,
                                "order": 1
                            }
                        ],
                        "depth": 0,
                        "id": 0,
                        "order": 0
                    }
                ],
                "depth": -1,
                "id": -1,
                "order": -1
            }
        ],
        "tidyTraceNodeCount": 2
    },
    "state_change": {
        "stateChanges": [
            {
                "address": "0xbb9bc244d798123fde783fcc1c72d3bb8c189413",
                "erc": "ERC-20",
                "slots": [
                    {
                        "current": "0x0000000000000000000000000000000000000000000000000c59ea48dab196e4",
                        "key": "0x3bf40a6cea2ea6ebf83e59164981291219d843066ec5803c0d8c0db0f7255ef1",
                        "prev": "0x00000000000000000000000000000000000000000000000000000000009896e4"
                    },
                    {
                        "current": "0x0000000000000000000000000000000000000000000000219c5e020bd558691c",
                        "key": "0x9881a369883b16ef2c8606dc56c3c3702b1011615ba30c395341d35cb527a2ed",
                        "prev": "0x000000000000000000000000000000000000000000000021a8b7ec54af71691c"
                    }
                ],
                "storageVariables": []
            }
        ]
    }
}