{
    "balance_change": {
        "balanceChanges": [
            {
                "account": "0x46340b20830761efd32832a74d7169b29feb9758",
                "assets": [
                    {
                        "address": "0x514910771af9ca656af840dff83e8264ecf986ca",
                        "amount": "3.733",
                        "iconUrl": "https://assets.blocksec.com/icon/f97453a18956674db69f16b525216d646fc76f3c7f90f0cd6147f8534d5af3e9.png",
                        "isERC1155": false,
                        "isERC721": false,
                        "sign": false,
                        "value": "29.64002000000000146"
                    }
                ]
            },
            {
                "account": "0x4722b8a09080264026c813a1ecdb9719210796de",
                "assets": [
                    {
                        "address": "0x514910771af9ca656af840dff83e8264ecf986ca",
                        "amount": "3.733",
                        "iconUrl": "https://assets.blocksec.com/icon/f97453a18956674db69f16b525216d646fc76f3c7f90f0cd6147f8534d5af3e9.png",
                        "isERC1155": false,
                        "isERC721": false,
                        "sign": true,
                        "value": "29.64002000000000146"
                    }
                ]
            }
        ]
    },
    "profile": {
        "basic_info": {
            "baseFee": "32.884577217",
            "blockNumber": 17758150,
            "callData": "0xa9059cbb0000000000000000000000004722b8a09080264026c813a1ecdb9719210796de00000000000000000000000000000000000000000000000033ce47b8c2888000",
            "debugEnable": true,
            "errorInfo": "",
            "eventCount": 1,
            "feeRecipient": "0x4675c7e5baafbffbca748158becba61ef3b0a263",
            "formatValue": "0",
            "gasLimit": 350000,
            "gasPrice": "41.398655306",
            "gasUsed": 34989,
            "intTxnCount": 0,
            "internalRevert": false,
            "internalRevertMessage": "",
            "isContractCreation": false,
            "isFlashloan": false,
            "maxFee": "",
            "nonce": 9184902,
            "overwritedBlockNumber": -1,
            "priorityFee": "",
            "receiver": "0x514910771af9ca656af840dff83e8264ecf986ca",
            "revertMessage": "",
            "sender": "0x46340b20830761efd32832a74d7169b29feb9758",
            "simulationEnable": true,
            "sourceTxnHash": "0xeac34b8ecff545a6fa2c2c22bc4f149e610b7b8a4b1287805a38a2225d34b73a",
            "status": true,
            "timestamp": "2023-07-23T20:18:59Z",
            "transactionFee": "0.001448497550501634",
            "txnHash": "0xeac34b8ecff545a6fa2c2c22bc4f149e610b7b8a4b1287805a38a2225d34b73a",
            "txnIndex": 17,
            "type": 0,
            "value": "0"
        },
        "fund_flow": [
            {
                "amount": "3.733",
                "from": "0x46340b20830761efd32832a74d7169b29feb9758",
                "id": 1,
                "isERC1155": false,
                "isERC721": false,
                "isReverted": false,
                "order": 1,
                "to": "0x4722b8a09080264026c813a1ecdb9719210796de",
                "token": "0x514910771af9ca656af840dff83e8264ecf986ca"
            }
        ],
        "token_infos": [
            {
                "address": "0x514910771af9ca656af840dff83e8264ecf986ca",
                "decimals": 18
            },
            {
                "address": "0xc02aaa39b223fe8d0a0e5c4f27ead9083c756cc2",
                "decimals": 18
            },
            {
                "address": "0xeeeeeeeeeeeeeeeeeeeeeeeeeeeeeeeeeeeeeeee",
                "decimals": 18
            }
        ]
    },
    "address_label": {
        "labels": [
            {
                "address": "0x0000000000000000000000000000000000000002",
                "label": "Precompiled"
            },
            {
                "address": "0x0000000000000000000000000000000000000003",
                "label": "Precompiled"
            },
            {
                "address": "0x0000000000000000000000000000000000000004",
                "label": "Precompiled"
            },
            {
                "address": "0xeeeeeeeeeeeeeeeeeeeeeeeeeeeeeeeeeeeeeeee",
                "label": "Ether"
            },
            {
                "address": "0x514910771af9ca656af840dff83e8264ecf986ca",
                "label": "Chainlink: LINK Token"
            },
            {
                "address": "0x46340b20830761efd32832a74d7169b29feb9758",
                "label": "Crypto.com 2"
            },
            {
                "address": "0x0000000000000000000000000000000000000001",
                "label": "Precompiled"
            }
        ]
    },
    "trace": {
        "accountLabels": null,
        "dataMap": {
            "-1": {
                "invocation": {
                    "address": "0x46340b20830761efd32832a74d7169b29feb9758",
                    "callData": "",
                    "decodedMethod": null,
                    "errorInfo": "",
                    "fromAddress": "",
                    "gasUsed": 0,
                    "id": -1,
                    "methodDecoded": false,
                    "operation": "",
                    "output": "",
                    "revert": false,
                    "revertMessage": "",
                    "selector": "",
                    "status": false,
                    "value": ""
                },
                "nodeType": 0
            },
            "0": {
                "invocation": {
                    "address": "0x514910771af9ca656af840dff83e8264ecf986ca",
                    "callData": "0x0000000000000000000000004722b8a09080264026c813a1ecdb9719210796de00000000000000000000000000000000000000000000000033ce47b8c2888000",
                    "decodedMethod": {
                        "callParams": [
                            {
                                "name": "_to",
                                "type": "address",
                                "value": "0x4722b8a09080264026c813a1ecdb9719210796de"
                            },
                            {
                                "decimalAvailable": true,
                                "name": "_value",
                                "type": "uint256",
                                "value": "3,733,000,000,000,000,000"
                            }
                        ],
                        "constructorArguments": "",
                        "name": "transfer",
                        "returnParams": [
                            {
                                "name": "success",
                                "type": "bool",
                                "value": true
                            }
                        ],
                        "signature": "transfer(address,uint256)"
                    },
                    "errorInfo": "",
                    "fromAddress": "0x46340b20830761efd32832a74d7169b29feb9758",
                    "gasUsed": 34989,
                    "id": 0,
                    "methodDecoded": true,
                    "operation": "CALL",
                    "output": "0x0000000000000000000000000000000000000000000000000000000000000001",
                    "revert": false,
                    "revertMessage": "",
                    "selector": "0xa9059cbb",
                    "status": true,
                    "value": "0"
                },
                "nodeType": 0
            },
            "1": {
                "event": {
                    "contract": "0x514910771af9ca656af840dff83e8264ecf986ca",
                    "decodedLog": {
                        "name": "Transfer",
                        "params": [
                            {
                                "name": "from",
                                "type": "address",
                                "value": "0x46340b20830761efd32832a74d7169b29feb9758"
                            },
                            {
                                "name": "to",
                                "type": "address",
                                "value": "0x4722b8a09080264026c813a1ecdb9719210796de"
                            },
                            {
                                "decimalAvailable": true,
                                "name": "value",
                                "type": "uint256",
                                "value": "3,733,000,000,000,000,000"
                            }
                        ],
                        "signature": "Transfer(address,address,uint256)"
                    },
                    "id": 1,
                    "logData": "0x00000000000000000000000000000000000000000000000033ce47b8c2888000",
                    "logDecoded": true,
                    "operation": "EVENT",
                    "revert": false,
                    "status": true,
                    "topics": [
                        "0xddf252ad1be2c89b69c2b068fc378daa952ba7f163c4a11628f55a4df523b3ef",
                        "0x00000000000000000000000046340b20830761efd32832a74d7169b29feb9758",
                        "0x0000000000000000000000004722b8a09080264026c813a1ecdb9719210796de"
                    ]
                },
                "nodeType": 1
            }
        },
        "gasFlame": [
            {
                "children": [
                    {
                        "children": [
                            {
                                "children": [],
                                "depth": 0,
                                "name": "Initial Gas",
                                "value": 21644
                            },
                            {
                                "children": [],
                                "depth": 0,
                                "name": "Executed Gas",
                                "value": 13345
                            }
                        ],
                        "depth": -1,
                        "name": "Actual Gas Used",
                        "value": 34989
                    },
                    {
                        "children": [],
                        "depth": -1,
                        "name": "Refunded Gas",
                        "value": 0
                    }
                ],
                "depth": -2,
                "name": "Total Gas",
                "value": 34989
            }
        ],
        "isConfirmed": true,
        "mainTrace": [
            {
                "children": [
                    {
                        "children": [
                            {
                                "children": [],
                                "depth": 1,
                                "id": 1,
                                "order": 1
                            }
                        ],
                        "depth": 0,
                        "id": 0,
                        "order": 0
                    }
                ],
                "depth": -1,
                "id": -1,
                "order": -1
            }
        ],
        "mainTraceNodeCount": 2,
        "parentIdMap": {
            "0": -1,
            "1": 0
        },
        "tidyTrace": [
            {
                "children": [
                    {
                        "children": [
                            {
                                "children": [],
                                "depth": 1,
                                "id": 1,
                                "order": 1
                            }
                        ],
                        "depth": 0,
                        "id": 0,
                        "order": 0
                    }
                ],
                "depth": -1,
                "id": -1,
                "order": -1
            }
        ],
        "tidyTraceNodeCount": 2
    },
    "state_change": {
        "stateChanges": [
            {
                "address": "0x514910771af9ca656af840dff83e8264ecf986ca",
                "erc": "",
                "slots": [
                    {
                        "current": "0x000000000000000000000000000000000000000000000337ff7da93d202102d1",
                        "key": "0x735258387f00dbdbdb9ed7917bbfc4e54ea6541541dbbaa303f4ed9aae81e240",
                        "prev": "0x000000000000000000000000000000000000000000000338334bf0f5e2a982d1"
                    },
                    {
                        "current": "0x0000000000000000000000000000000000000000000000040f724129acc20000",
                        "key": "0xc939614abd2139223e24a8cde0e6f961e1ae0a855e453d815d655b16cea7040e",
                        "prev": "0x000000000000000000000000000000000000000000000003dba3f970ea398000"
                    }
                ],
                "storageVariables": [
                    {
                        "name": "balances",
                        "type": "mapping(address => uint256)",
                        "value": {
                            "pairs": [
                                {
                                    "key": "0x46340b20830761efd32832a74d7169b29feb9758",
                                    "value": {
                                        "current": "15200080429594718569169",
                                        "prev": "15203813429594718569169",
                                        "typeTag": 1
                                    }
                                },
                                {
                                    "key": "0x4722b8a09080264026c813a1ecdb9719210796de",
                                    "value": {
                                        "current": "74900000000000000000",
                                        "prev": "71167000000000000000",
                                        "typeTag": 1
                                    }
                                }
                            ],
                            "typeTag": 4
                        }
                    }
                ]
            }
        ]
    }
}