{
    "balance_change": {
        "balanceChanges": [
            {
                "account": "0x109e9ec078804ae30c345d025c772032610b5b94",
                "assets": [
                    {
                        "address": "0x5e7ebea68ab05198f771d77a875480314f1d0aae",
                        "amount": "7.640454545454545453",
                        "iconUrl": "",
                        "isERC1155": false,
                        "isERC721": false,
                        "sign": true,
                        "value": ""
                    }
                ]
            },
            {
                "account": "0x0a7d984c7f91e9be3ea02a5369fcc9f1a4f6a322",
                "assets": [
                    {
                        "address": "0x5e7ebea68ab05198f771d77a875480314f1d0aae",
                        "amount": "7.909090909090909089",
                        "iconUrl": "",
                        "isERC1155": false,
                        "isERC721": false,
                        "sign": false,
                        "value": ""
                    }
                ]
            },
            {
                "account": "0xf0342819ad53288c92665658a0f39afec4ba6000",
                "assets": [
                    {
                        "address": "0x5e7ebea68ab05198f771d77a875480314f1d0aae",
                        "amount": "0.250727272727272727",
                        "iconUrl": "",
                        "isERC1155": false,
                        "isERC721": false,
                        "sign": true,
                        "value": ""
                    }
                ]
            },
            {
                "account": "0xfe894f1fcf787cfd44d05ca18f246d18f9066143",
                "assets": [
                    {
                        "address": "0x5e7ebea68ab05198f771d77a875480314f1d0aae",
                        "amount": "0.017909090909090909",
                        "iconUrl": "",
                        "isERC1155": false,
                        "isERC721": false,
                        "sign": true,
                        "value": ""
                    }
                ]
            }
        ]
    },
    "profile": {
        "basic_info": {
            "baseFee": "",
            "blockNumber": 8744619,
            "callData": "0x40e800d8000000000000000000000000000000000000000000000000000000000000000100000000000000000000000000000000000000000000000000000000000000370000000000000000000000000000000000000000000000008ac7230489e800000000000000000000000000008bd9aec4bbb22c7c6dcf32154c9290a8ef95bd5100000000000000000000000000000000000000000000000000000000000000c00000000000000000000000000000000000000000000000000000000000000100000000000000000000000000000000000000000000000000000000000000000d3135373131323536333834343500000000000000000000000000000000000000000000000000000000000000000000000000000000000000000000000000000b6c75636b794e756d626572000000000000000000000000000000000000000000",
            "debugEnable": true,
            "errorInfo": "",
            "eventCount": 6,
            "feeRecipient": "0x5a0b54d5dc17e0aadc383d2db43b0a0d3e029c4c",
            "formatValue": "0",
            "gasLimit": 220000,
            "gasPrice": "1",
            "gasUsed": 165949,
            "intTxnCount": 6,
            "internalRevert": false,
            "internalRevertMessage": "",
            "isContractCreation": false,
            "isFlashloan": false,
            "maxFee": "",
            "nonce": 1831,
            "overwritedBlockNumber": -1,
            "priorityFee": "",
            "receiver": "0x0a7d984c7f91e9be3ea02a5369fcc9f1a4f6a322",
            "revertMessage": "",
            "sender": "0x109e9ec078804ae30c345d025c772032610b5b94",
            "simulationEnable": true,
            "sourceTxnHash": "0xea5d3cc69aa5f408b85b11c72f47f388747331b1063a032b5cf502619c952532",
            "status": true,
            "timestamp": "2019-10-15T07:47:56Z",
            "transactionFee": "0.000165949",
            "txnHash": "0xea5d3cc69aa5f408b85b11c72f47f388747331b1063a032b5cf502619c952532",
            "txnIndex": 154,
            "type": 0,
            "value": "0"
        },
        "fund_flow": [
            {
                "amount": "10",
                "from": "0x109e9ec078804ae30c345d025c772032610b5b94",
                "id": 1,
                "isERC1155": false,
                "isERC721": false,
                "isReverted": false,
                "order": 1,
                "to": "0x0a7d984c7f91e9be3ea02a5369fcc9f1a4f6a322",
                "token": "0x5e7ebea68ab05198f771d77a875480314f1d0aae"
            },
            {
                "amount": "0.017909090909090909",
                "from": "0x0a7d984c7f91e9be3ea02a5369fcc9f1a4f6a322",
                "id": 2,
                "isERC1155": false,
                "isERC721": false,
                "isReverted": false,
                "order": 2,
                "to": "0xfe894f1fcf787cfd44d05ca18f246d18f9066143",
                "token": "0x5e7ebea68ab05198f771d77a875480314f1d0aae"
            },
            {
                "amount": "0.250727272727272727",
                "from": "0x0a7d984c7f91e9be3ea02a5369fcc9f1a4f6a322",
                "id": 3,
                "isERC1155": false,
                "isERC721": false,
                "isReverted": false,
                "order": 3,
                "to": "0xf0342819ad53288c92665658a0f39afec4ba6000",
                "token": "0x5e7ebea68ab05198f771d77a875480314f1d0aae"
            },
            {
                "amount": "17.640454545454545453",
                "from": "0x0a7d984c7f91e9be3ea02a5369fcc9f1a4f6a322",
                "id": 4,
                "isERC1155": false,
                "isERC721": false,
                "isReverted": false,
                "order": 4,
                "to": "0x109e9ec078804ae30c345d025c772032610b5b94",
                "token": "0x5e7ebea68ab05198f771d77a875480314f1d0aae"
            }
        ],
        "token_infos": [
            {
                "address": "0xeeeeeeeeeeeeeeeeeeeeeeeeeeeeeeeeeeeeeeee",
                "decimals": 18
            },
            {
                "address": "0x5e7ebea68ab05198f771d77a875480314f1d0aae",
                "decimals": 18
            },
            {
                "address": "0xc02aaa39b223fe8d0a0e5c4f27ead9083c756cc2",
                "decimals": 18
            }
        ]
    },
    "address_label": {
        "labels": [
            {
                "address": "0x0000000000000000000000000000000000000003",
                "label": "Precompiled"
            },
            {
                "address": "0x0000000000000000000000000000000000000004",
                "label": "Precompiled"
            },
            {
                "address": "0xeeeeeeeeeeeeeeeeeeeeeeeeeeeeeeeeeeeeeeee",
                "label": "Ether"
            },
            {
                "address": "0x5e7ebea68ab05198f771d77a875480314f1d0aae",
                "label": "DABANKING: DAB Token"
            },
            {
                "address": "0xa8745e0bf1953f9a8ee785b22dc2b383dbf795e6",
                "label": "Citizen"
            },
            {
                "address": "0x0000000000000000000000000000000000000001",
                "label": "Precompiled"
            },
            {
                "address": "0x0000000000000000000000000000000000000002",
                "label": "Precompiled"
            }
        ]
    },
    "trace": {
        "accountLabels": null,
        "dataMap": {
            "-1": {
                "invocation": {
                    "address": "0x109e9ec078804ae30c345d025c772032610b5b94",
                    "callData": "",
                    "decodedMethod": null,
                    "errorInfo": "",
                    "fromAddress": "",
                    "gasUsed": 0,
                    "id": -1,
                    "methodDecoded": false,
                    "operation": "",
                    "output": "",
                    "revert": false,
                    "revertMessage": "",
                    "selector": "",
                    "status": false,
                    "value": ""
                },
                "nodeType": 0
            },
            "0": {
                "invocation": {
                    "address": "0x0a7d984c7f91e9be3ea02a5369fcc9f1a4f6a322",
                    "callData": "0x000000000000000000000000000000000000000000000000000000000000000100000000000000000000000000000000000000000000000000000000000000370000000000000000000000000000000000000000000000008ac7230489e800000000000000000000000000008bd9aec4bbb22c7c6dcf32154c9290a8ef95bd5100000000000000000000000000000000000000000000000000000000000000c00000000000000000000000000000000000000000000000000000000000000100000000000000000000000000000000000000000000000000000000000000000d3135373131323536333834343500000000000000000000000000000000000000000000000000000000000000000000000000000000000000000000000000000b6c75636b794e756d626572000000000000000000000000000000000000000000",
                    "decodedMethod": null,
                    "errorInfo": "",
                    "fromAddress": "0x109e9ec078804ae30c345d025c772032610b5b94",
                    "gasUsed": 165949,
                    "id": 0,
                    "methodDecoded": false,
                    "operation": "CALL",
                    "output": "",
                    "revert": false,
                    "revertMessage": "",
                    "selector": "0x40e800d8",
                    "status": true,
                    "value": "0"
                },
                "nodeType": 0
            },
            "1": {
                "invocation": {
                    "address": "0x5e7ebea68ab05198f771d77a875480314f1d0aae",
                    "callData": "0x000000000000000000000000109e9ec078804ae30c345d025c772032610b5b940000000000000000000000000a7d984c7f91e9be3ea02a5369fcc9f1a4f6a322",
                    "decodedMethod": {
                        "callParams": [
                            {
                                "name": "owner",
                                "type": "address",
                                "value": "0x109e9ec078804ae30c345d025c772032610b5b94"
                            },
                            {
                                "name": "spender",
                                "type": "address",
                                "value": "0x0a7d984c7f91e9be3ea02a5369fcc9f1a4f6a322"
                            }
                        ],
                        "constructorArguments": "",
                        "name": "allowance",
                        "returnParams": [
                            {
                                "decimalAvailable": true,
                                "name": "",
                                "type": "uint256",
                                "value": "99,984,295,000,000,000,000,000,000"
                            }
                        ],
                        "signature": "allowance(address,address)"
                    },
                    "errorInfo": "",
                    "fromAddress": "0x0a7d984c7f91e9be3ea02a5369fcc9f1a4f6a322",
                    "gasUsed": 928,
                    "id": 1,
                    "methodDecoded": true,
                    "operation": "CALL",
                    "output": "0x00000000000000000000000000000000000000000052b47f7e1fb97ade3c0000",
                    "revert": false,
                    "revertMessage": "",
                    "selector": "0xdd62ed3e",
                    "status": true,
                    "value": "0"
                },
                "nodeType": 0
            },
            "10": {
                "event": {
                    "contract": "0x5e7ebea68ab05198f771d77a875480314f1d0aae",
                    "decodedLog": {
                        "name": "Transfer",
                        "params": [
                            {
                                "name": "from",
                                "type": "address",
                                "value": "0x0a7d984c7f91e9be3ea02a5369fcc9f1a4f6a322"
                            },
                            {
                                "name": "to",
                                "type": "address",
                                "value": "0x109e9ec078804ae30c345d025c772032610b5b94"
                            },
                            {
                                "decimalAvailable": true,
                                "name": "value",
                                "type": "uint256",
                                "value": "17,640,454,545,454,545,453"
                            }
                        ],
                        "signature": "Transfer(address,address,uint256)"
                    },
                    "id": 10,
                    "logData": "0x000000000000000000000000000000000000000000000000f4cf7bf22a3e3a2d",
                    "logDecoded": true,
                    "operation": "EVENT",
                    "revert": false,
                    "status": true,
                    "topics": [
                        "0xddf252ad1be2c89b69c2b068fc378daa952ba7f163c4a11628f55a4df523b3ef",
                        "0x0000000000000000000000000a7d984c7f91e9be3ea02a5369fcc9f1a4f6a322",
                        "0x000000000000000000000000109e9ec078804ae30c345d025c772032610b5b94"
                    ]
                },
                "nodeType": 1
            },
            "11": {
                "invocation": {
                    "address": "0xa8745e0bf1953f9a8ee785b22dc2b383dbf795e6",
                    "callData": "0x0000000000000000000000008bd9aec4bbb22c7c6dcf32154c9290a8ef95bd51",
                    "decodedMethod": {
                        "callParams": [
                            {
                                "name": "_investor",
                                "type": "address",
                                "value": "0x8bd9aec4bbb22c7c6dcf32154c9290a8ef95bd51"
                            }
                        ],
                        "constructorArguments": "",
                        "name": "isCitizen",
                        "returnParams": [
                            {
                                "name": "",
                                "type": "bool",
                                "value": true
                            }
                        ],
                        "signature": "isCitizen(address)"
                    },
                    "errorInfo": "",
                    "fromAddress": "0x0a7d984c7f91e9be3ea02a5369fcc9f1a4f6a322",
                    "gasUsed": 3004,
                    "id": 11,
                    "methodDecoded": true,
                    "operation": "CALL",
                    "output": "0x0000000000000000000000000000000000000000000000000000000000000001",
                    "revert": false,
                    "revertMessage": "",
                    "selector": "0xf3caad03",
                    "status": true,
                    "value": "0"
                },
                "nodeType": 0
            },
            "12": {
                "event": {
                    "contract": "0x0a7d984c7f91e9be3ea02a5369fcc9f1a4f6a322",
                    "decodedLog": null,
                    "id": 12,
                    "logData": "0x0000000000000000000000000000000000000000000000000000000000000001000000000000000000000000000000000000000000000000000000000000003700000000000000000000000000000000000000000000000000000000000000280000000000000000000000000000000000000000000000006c1d41222ca53a2d000000000000000000000000000000000000000000000000f4cf7bf22a3e3a2d",
                    "logDecoded": false,
                    "operation": "EVENT",
                    "revert": false,
                    "status": true,
                    "topics": [
                        "0xe260bb0cdf58af341d75a45558e03a7d5ed5b9d61f99704337af3c9b2a0a0e39",
                        "0x000000000000000000000000109e9ec078804ae30c345d025c772032610b5b94",
                        "0x0000000000000000000000000000000000000000000000008ac7230489e80000",
                        "0x0000000000000000000000000000000000000000000000000000000000000037"
                    ]
                },
                "nodeType": 1
            },
            "2": {
                "invocation": {
                    "address": "0x5e7ebea68ab05198f771d77a875480314f1d0aae",
                    "callData": "0x000000000000000000000000109e9ec078804ae30c345d025c772032610b5b940000000000000000000000000a7d984c7f91e9be3ea02a5369fcc9f1a4f6a3220000000000000000000000000000000000000000000000008ac7230489e80000",
                    "decodedMethod": {
                        "callParams": [
                            {
                                "name": "from",
                                "type": "address",
                                "value": "0x109e9ec078804ae30c345d025c772032610b5b94"
                            },
                            {
                                "name": "to",
                                "type": "address",
                                "value": "0x0a7d984c7f91e9be3ea02a5369fcc9f1a4f6a322"
                            },
                            {
                                "decimalAvailable": true,
                                "name": "value",
                                "type": "uint256",
                                "value": "10,000,000,000,000,000,000"
                            }
                        ],
                        "constructorArguments": "",
                        "name": "transferFrom",
                        "returnParams": [
                            {
                                "name": "",
                                "type": "bool",
                                "value": true
                            }
                        ],
                        "signature": "transferFrom(address,address,uint256)"
                    },
                    "errorInfo": "",
                    "fromAddress": "0x0a7d984c7f91e9be3ea02a5369fcc9f1a4f6a322",
                    "gasUsed": 21219,
                    "id": 2,
                    "methodDecoded": true,
                    "operation": "CALL",
                    "output": "0x0000000000000000000000000000000000000000000000000000000000000001",
                    "revert": false,
                    "revertMessage": "",
                    "selector": "0x23b872dd",
                    "status": true,
                    "value": "0"
                },
                "nodeType": 0
            },
            "3": {
                "event": {
                    "contract": "0x5e7ebea68ab05198f771d77a875480314f1d0aae",
                    "decodedLog": {
                        "name": "Transfer",
                        "params": [
                            {
                                "name": "from",
                                "type": "address",
                                "value": "0x109e9ec078804ae30c345d025c772032610b5b94"
                            },
                            {
                                "name": "to",
                                "type": "address",
                                "value": "0x0a7d984c7f91e9be3ea02a5369fcc9f1a4f6a322"
                            },
                            {
                                "decimalAvailable": true,
                                "name": "value",
                                "type": "uint256",
                                "value": "10,000,000,000,000,000,000"
                            }
                        ],
                        "signature": "Transfer(address,address,uint256)"
                    },
                    "id": 3,
                    "logData": "0x0000000000000000000000000000000000000000000000008ac7230489e80000",
                    "logDecoded": true,
                    "operation": "EVENT",
                    "revert": false,
                    "status": true,
                    "topics": [
                        "0xddf252ad1be2c89b69c2b068fc378daa952ba7f163c4a11628f55a4df523b3ef",
                        "0x000000000000000000000000109e9ec078804ae30c345d025c772032610b5b94",
                        "0x0000000000000000000000000a7d984c7f91e9be3ea02a5369fcc9f1a4f6a322"
                    ]
                },
                "nodeType": 1
            },
            "4": {
                "event": {
                    "contract": "0x5e7ebea68ab05198f771d77a875480314f1d0aae",
                    "decodedLog": {
                        "name": "Approval",
                        "params": [
                            {
                                "name": "owner",
                                "type": "address",
                                "value": "0x109e9ec078804ae30c345d025c772032610b5b94"
                            },
                            {
                                "name": "spender",
                                "type": "address",
                                "value": "0x0a7d984c7f91e9be3ea02a5369fcc9f1a4f6a322"
                            },
                            {
                                "decimalAvailable": true,
                                "name": "value",
                                "type": "uint256",
                                "value": "99,984,285,000,000,000,000,000,000"
                            }
                        ],
                        "signature": "Approval(address,address,uint256)"
                    },
                    "id": 4,
                    "logData": "0x00000000000000000000000000000000000000000052b47ef358967654540000",
                    "logDecoded": true,
                    "operation": "EVENT",
                    "revert": false,
                    "status": true,
                    "topics": [
                        "0x8c5be1e5ebec7d5bd14f71427d1e84f3dd0314c0f7b2291e5b200ac8c7c3b925",
                        "0x000000000000000000000000109e9ec078804ae30c345d025c772032610b5b94",
                        "0x0000000000000000000000000a7d984c7f91e9be3ea02a5369fcc9f1a4f6a322"
                    ]
                },
                "nodeType": 1
            },
            "5": {
                "invocation": {
                    "address": "0x5e7ebea68ab05198f771d77a875480314f1d0aae",
                    "callData": "0x000000000000000000000000fe894f1fcf787cfd44d05ca18f246d18f9066143000000000000000000000000000000000000000000000000003fa03929e2f45d",
                    "decodedMethod": {
                        "callParams": [
                            {
                                "name": "to",
                                "type": "address",
                                "value": "0xfe894f1fcf787cfd44d05ca18f246d18f9066143"
                            },
                            {
                                "decimalAvailable": true,
                                "name": "value",
                                "type": "uint256",
                                "value": "17,909,090,909,090,909"
                            }
                        ],
                        "constructorArguments": "",
                        "name": "transfer",
                        "returnParams": [
                            {
                                "name": "",
                                "type": "bool",
                                "value": true
                            }
                        ],
                        "signature": "transfer(address,uint256)"
                    },
                    "errorInfo": "",
                    "fromAddress": "0x0a7d984c7f91e9be3ea02a5369fcc9f1a4f6a322",
                    "gasUsed": 13549,
                    "id": 5,
                    "methodDecoded": true,
                    "operation": "CALL",
                    "output": "0x0000000000000000000000000000000000000000000000000000000000000001",
                    "revert": false,
                    "revertMessage": "",
                    "selector": "0xa9059cbb",
                    "status": true,
                    "value": "0"
                },
                "nodeType": 0
            },
            "6": {
                "event": {
                    "contract": "0x5e7ebea68ab05198f771d77a875480314f1d0aae",
                    "decodedLog": {
                        "name": "Transfer",
                        "params": [
                            {
                                "name": "from",
                                "type": "address",
                                "value": "0x0a7d984c7f91e9be3ea02a5369fcc9f1a4f6a322"
                            },
                            {
                                "name": "to",
                                "type": "address",
                                "value": "0xfe894f1fcf787cfd44d05ca18f246d18f9066143"
                            },
                            {
                                "decimalAvailable": true,
                                "name": "value",
                                "type": "uint256",
                                "value": "17,909,090,909,090,909"
                            }
                        ],
                        "signature": "Transfer(address,address,uint256)"
                    },
                    "id": 6,
                    "logData": "0x000000000000000000000000000000000000000000000000003fa03929e2f45d",
                    "logDecoded": true,
                    "operation": "EVENT",
                    "revert": false,
                    "status": true,
                    "topics": [
                        "0xddf252ad1be2c89b69c2b068fc378daa952ba7f163c4a11628f55a4df523b3ef",
                        "0x0000000000000000000000000a7d984c7f91e9be3ea02a5369fcc9f1a4f6a322",
                        "0x000000000000000000000000fe894f1fcf787cfd44d05ca18f246d18f9066143"
                    ]
                },
                "nodeType": 1
            },
            "7": {
                "invocation": {
                    "address": "0x5e7ebea68ab05198f771d77a875480314f1d0aae",
                    "callData": "0x000000000000000000000000f0342819ad53288c92665658a0f39afec4ba6000000000000000000000000000000000000000000000000000037ac3204a695d17",
                    "decodedMethod": {
                        "callParams": [
                            {
                                "name": "to",
                                "type": "address",
                                "value": "0xf0342819ad53288c92665658a0f39afec4ba6000"
                            },
                            {
                                "decimalAvailable": true,
                                "name": "value",
                                "type": "uint256",
                                "value": "250,727,272,727,272,727"
                            }
                        ],
                        "constructorArguments": "",
                        "name": "transfer",
                        "returnParams": [
                            {
                                "name": "",
                                "type": "bool",
                                "value": true
                            }
                        ],
                        "signature": "transfer(address,uint256)"
                    },
                    "errorInfo": "",
                    "fromAddress": "0x0a7d984c7f91e9be3ea02a5369fcc9f1a4f6a322",
                    "gasUsed": 13549,
                    "id": 7,
                    "methodDecoded": true,
                    "operation": "CALL",
                    "output": "0x0000000000000000000000000000000000000000000000000000000000000001",
                    "revert": false,
                    "revertMessage": "",
                    "selector": "0xa9059cbb",
                    "status": true,
                    "value": "0"
                },
                "nodeType": 0
            },
            "8": {
                "event": {
                    "contract": "0x5e7ebea68ab05198f771d77a875480314f1d0aae",
                    "decodedLog": {
                        "name": "Transfer",
                        "params": [
                            {
                                "name": "from",
                                "type": "address",
                                "value": "0x0a7d984c7f91e9be3ea02a5369fcc9f1a4f6a322"
                            },
                            {
                                "name": "to",
                                "type": "address",
                                "value": "0xf0342819ad53288c92665658a0f39afec4ba6000"
                            },
                            {
                                "decimalAvailable": true,
                                "name": "value",
                                "type": "uint256",
                                "value": "250,727,272,727,272,727"
                            }
                        ],
                        "signature": "Transfer(address,address,uint256)"
                    },
                    "id": 8,
                    "logData": "0x000000000000000000000000000000000000000000000000037ac3204a695d17",
                    "logDecoded": true,
                    "operation": "EVENT",
                    "revert": false,
                    "status": true,
                    "topics": [
                        "0xddf252ad1be2c89b69c2b068fc378daa952ba7f163c4a11628f55a4df523b3ef",
                        "0x0000000000000000000000000a7d984c7f91e9be3ea02a5369fcc9f1a4f6a322",
                        "0x000000000000000000000000f0342819ad53288c92665658a0f39afec4ba6000"
                    ]
                },
                "nodeType": 1
            },
            "9": {
                "invocation": {
                    "address": "0x5e7ebea68ab05198f771d77a875480314f1d0aae",
                    "callData": "0x000000000000000000000000109e9ec078804ae30c345d025c772032610b5b94000000000000000000000000000000000000000000000000f4cf7bf22a3e3a2d",
                    "decodedMethod": {
                        "callParams": [
                            {
                                "name": "to",
                                "type": "address",
                                "value": "0x109e9ec078804ae30c345d025c772032610b5b94"
                            },
                            {
                                "decimalAvailable": true,
                                "name": "value",
                                "type": "uint256",
                                "value": "17,640,454,545,454,545,453"
                            }
                        ],
                        "constructorArguments": "",
                        "name": "transfer",
                        "returnParams": [
                            {
                                "name": "",
                                "type": "bool",
                                "value": true
                            }
                        ],
                        "signature": "transfer(address,uint256)"
                    },
                    "errorInfo": "",
                    "fromAddress": "0x0a7d984c7f91e9be3ea02a5369fcc9f1a4f6a322",
                    "gasUsed": 13549,
                    "id": 9,
                    "methodDecoded": true,
                    "operation": "CALL",
                    "output": "0x0000000000000000000000000000000000000000000000000000000000000001",
                    "revert": false,
                    "revertMessage": "",
                    "selector": "0xa9059cbb",
                    "status": true,
                    "value": "0"
                },
                "nodeType": 0
            }
        },
        "gasFlame": [
            {
                "children": [
                    {
                        "children": [
                            {
                                "children": [],
                                "depth": 0,
                                "name": "Initial Gas",
                                "value": 26072
                            },
                            {
                                "children": [
                                    {
                                        "children": [],
                                        "depth": 1,
                                        "name": "allowance",
                                        "value": 928
                                    },
                                    {
                                        "children": [],
                                        "depth": 1,
                                        "name": "transferFrom",
                                        "value": 21219
                                    },
                                    {
                                        "children": [],
                                        "depth": 1,
                                        "name": "transfer",
                                        "value": 13549
                                    },
                                    {
                                        "children": [],
                                        "depth": 1,
                                        "name": "transfer",
                                        "value": 13549
                                    },
                                    {
                                        "children": [],
                                        "depth": 1,
                                        "name": "transfer",
                                        "value": 13549
                                    },
                                    {
                                        "children": [],
                                        "depth": 1,
                                        "name": "isCitizen",
                                        "value": 3004
                                    }
                                ],
                                "depth": 0,
                                "name": "Executed Gas",
                                "value": 139877
                            }
                        ],
                        "depth": -1,
                        "name": "Actual Gas Used",
                        "value": 165949
                    },
                    {
                        "children": [],
                        "depth": -1,
                        "name": "Refunded Gas",
                        "value": 0
                    }
                ],
                "depth": -2,
                "name": "Total Gas",
                "value": 165949
            }
        ],
        "isConfirmed": true,
        "mainTrace": [
            {
                "children": [
                    {
                        "children": [
                            {
                                "children": [],
                                "depth": 1,
                                "id": 1,
                                "order": 1
                            },
                            {
                                "children": [
                                    {
                                        "children": [],
                                        "depth": 2,
                                        "id": 3,
                                        "order": 3
                                    },
                                    {
                                        "children": [],
                                        "depth": 2,
                                        "id": 4,
                                        "order": 4
                                    }
                                ],
                                "depth": 1,
                                "id": 2,
                                "order": 2
                            },
                            {
                                "children": [
                                    {
                                        "children": [],
                                        "depth": 2,
                                        "id": 6,
                                        "order": 6
                                    }
                                ],
                                "depth": 1,
                                "id": 5,
                                "order": 5
                            },
                            {
                                "children": [
                                    {
                                        "children": [],
                                        "depth": 2,
                                        "id": 8,
                                        "order": 8
                                    }
                                ],
                                "depth": 1,
                                "id": 7,
                                "order": 7
                            },
                            {
                                "children": [
                                    {
                                        "children": [],
                                        "depth": 2,
                                        "id": 10,
                                        "order": 10
                                    }
                                ],
                                "depth": 1,
                                "id": 9,
                                "order": 9
                            },
                            {
                                "children": [],
                                "depth": 1,
                                "id": 11,
                                "order": 11
                            },
                            {
                                "children": [],
                                "depth": 1,
                                "id": 12,
                                "order": 12
                            }
                        ],
                        "depth": 0,
                        "id": 0,
                        "order": 0
                    }
                ],
                "depth": -1,
                "id": -1,
                "order": -1
            }
        ],
        "mainTraceNodeCount": 13,
        "parentIdMap": {
            "0": -1,
            "1": 0,
            "10": 9,
            "11": 0,
            "12": 0,
            "2": 0,
            "3": 2,
            "4": 2,
            "5": 0,
            "6": 5,
            "7": 0,
            "8": 7,
            "9": 0
        },
        "tidyTrace": [
            {
                "children": [
                    {
                        "children": [
                            {
                                "children": [],
                                "depth": 1,
                                "id": 1,
                                "order": 1
                            },
                            {
                                "children": [
                                    {
                                        "children": [],
                                        "depth": 2,
                                        "id": 3,
                                        "order": 3
                                    },
                                    {
                                        "children": [],
                                        "depth": 2,
                                        "id": 4,
                                        "order": 4
                                    }
                                ],
                                "depth": 1,
                                "id": 2,
                                "order": 2
                            },
                            {
                                "children": [
                                    {
                                        "children": [],
                                        "depth": 2,
                                        "id": 6,
                                        "order": 6
                                    }
                                ],
                                "depth": 1,
                                "id": 5,
                                "order": 5
                            },
                            {
                                "children": [
                                    {
                                        "children": [],
                                        "depth": 2,
                                        "id": 8,
                                        "order": 8
                                    }
                                ],
                                "depth": 1,
                                "id": 7,
                                "order": 7
                            },
                            {
                                "children": [
                                    {
                                        "children": [],
                                        "depth": 2,
                                        "id": 10,
                                        "order": 10
                                    }
                                ],
                                "depth": 1,
                                "id": 9,
                                "order": 9
                            },
                            {
                                "children": [],
                                "depth": 1,
                                "id": 11,
                                "order": 11
                            },
                            {
                                "children": [],
                                "depth": 1,
                                "id": 12,
                                "order": 12
                            }
                        ],
                        "depth": 0,
                        "id": 0,
                        "order": 0
                    }
                ],
                "depth": -1,
                "id": -1,
                "order": -1
            }
        ],
        "tidyTraceNodeCount": 13
    },
    "state_change": {
        "stateChanges": [
            {
                "address": "0x0a7d984c7f91e9be3ea02a5369fcc9f1a4f6a322",
                "erc": "",
                "slots": [
                    {
                        "current": "0x000000000000000000000000000000000000000000000121890867b9529e0424",
                        "key": "0x0000000000000000000000000000000000000000000000000000000000000011",
                        "prev": "0x000000000000000000000000000000000000000000000121f77cc6bc96058fc6"
                    },
                    {
                        "current": "0x00000000000000000000000000000000000000000001df3bc41a61d5dfad645e",
                        "key": "0x0000000000000000000000000000000000000000000000000000000000000002",
                        "prev": "0x00000000000000000000000000000000000000000001df3acf4ae5e3b56f2a31"
                    },
                    {
                        "current": "0x000000000000000000000000000000000000000000000353e96f765c8fac0000",
                        "key": "0xa8e4077f5214b827703116716b10d8b189ed2dce26558d637a6e3254ec5d5c08",
                        "prev": "0x0000000000000000000000000000000000000000000003535ea8535805c40000"
                    },
                    {
                        "current": "0x0000000000000000000000000000000000000000000000000000000000000670",
                        "key": "0xa8e4077f5214b827703116716b10d8b189ed2dce26558d637a6e3254ec5d5c09",
                        "prev": "0x000000000000000000000000000000000000000000000000000000000000066f"
                    },
                    {
                        "current": "0x0000000000000000000000000000000000000000000004c940e11974e5f5b69e",
                        "key": "0xa8e4077f5214b827703116716b10d8b189ed2dce26558d637a6e3254ec5d5c0b",
                        "prev": "0x0000000000000000000000000000000000000000000004c84c119d82bbb77c71"
                    },
                    {
                        "current": "0x000000000000000000000000000000000000000000000000000000000000ea35",
                        "key": "0x0000000000000000000000000000000000000000000000000000000000000003",
                        "prev": "0x000000000000000000000000000000000000000000000000000000000000ea34"
                    },
                    {
                        "current": "0x000000000000000000000000000000000000000000000006d0ec7453d1bd8000",
                        "key": "0xd03e23df32d4614d612c83334bbf42b7cf8a68c9a15a1ec8cf471343946c582d",
                        "prev": "0x000000000000000000000000000000000000000000000006d03ad197a2f88000"
                    }
                ],
                "storageVariables": []
            },
            {
                "address": "0x5e7ebea68ab05198f771d77a875480314f1d0aae",
                "erc": "ERC-20",
                "slots": [
                    {
                        "current": "0x00000000000000000000000000000000000000000000020f873ddc32a842ae08",
                        "key": "0xefa8519cd6dbfb54ffb86a950b01a09ddc471e34f8e394865a29b330a2f47a35",
                        "prev": "0x00000000000000000000000000000000000000000000020ff5009879bce539a9"
                    },
                    {
                        "current": "0x00000000000000000000000000000000000000000052b47ef358967654540000",
                        "key": "0x7627c681563cb06196ef5ea301746089a4eab3d7d82462d41075e81a6a735540",
                        "prev": "0x00000000000000000000000000000000000000000052b47f7e1fb97ade3c0000"
                    },
                    {
                        "current": "0x0000000000000000000000000000000000000000000003d3aa236b0233bb3afa",
                        "key": "0x23fdf237820c617a151b819602ca88aa7b23ac492b835e9f405eba384ff3e9c3",
                        "prev": "0x0000000000000000000000000000000000000000000003d3a9e3cac909d8469d"
                    },
                    {
                        "current": "0x00000000000000000000000000000000000000000000032e7bb91147bc20c919",
                        "key": "0x9e4ccc11e1f2ff8bc0e941df2e525921b1e9cc8233d5afccad36e9a5f68ee7ff",
                        "prev": "0x00000000000000000000000000000000000000000000032e783e4e2771b76c02"
                    },
                    {
                        "current": "0x0000000000000000000000000000000000000000000000d5d815d7e74dc8bc26",
                        "key": "0xe56a9c2c5bc6e45eb8a63371be21ca2e25217b7750c45f1ec1af66571fba056c",
                        "prev": "0x0000000000000000000000000000000000000000000000d56e0d7ef9ad7281f9"
                    }
                ],
                "storageVariables": [
                    {
                        "name": "_balances",
                        "type": "mapping(address => uint256)",
                        "value": {
                            "pairs": [
                                {
                                    "key": "0x0a7d984c7f91e9be3ea02a5369fcc9f1a4f6a322",
                                    "value": {
                                        "current": "9731179314123762740744",
                                        "prev": "9739088405032853649833",
                                        "typeTag": 1
                                    }
                                },
                                {
                                    "key": "0x109e9ec078804ae30c345d025c772032610b5b94",
                                    "value": {
                                        "current": "3944727076375280270374",
                                        "prev": "3937086621829825724921",
                                        "typeTag": 1
                                    }
                                },
                                {
                                    "key": "0xf0342819ad53288c92665658a0f39afec4ba6000",
                                    "value": {
                                        "current": "15024564851936728238361",
                                        "prev": "15024314124664000965634",
                                        "typeTag": 1
                                    }
                                },
                                {
                                    "key": "0xfe894f1fcf787cfd44d05ca18f246d18f9066143",
                                    "value": {
                                        "current": "18071622208429485669114",
                                        "prev": "18071604299338576578205",
                                        "typeTag": 1
                                    }
                                }
                            ],
                            "typeTag": 4
                        }
                    },
                    {
                        "name": "_allowed",
                        "type": "mapping(address => mapping(address => uint256))",
                        "value": {
                            "pairs": [
                                {
                                    "key": "0x109e9ec078804ae30c345d025c772032610b5b94",
                                    "value": {
                                        "pairs": [
                                            {
                                                "key": "0x0a7d984c7f91e9be3ea02a5369fcc9f1a4f6a322",
                                                "value": {
                                                    "current": "99984285000000000000000000",
                                                    "prev": "99984295000000000000000000",
                                                    "typeTag": 1
                                                }
                                            }
                                        ],
                                        "typeTag": 4
                                    }
                                }
                            ],
                            "typeTag": 4
                        }
                    }
                ]
            }
        ]
    }
}