{
    "balance_change": {
        "balanceChanges": [
            {
                "account": "0x4ea10e61b7f52df9bfba87bda6e612aeca055dd8",
                "assets": [
                    {
                        "address": "0xed5464bd5c477b7f71739ce1d741b43e932b97b0",
                        "amount": "1,041",
                        "iconUrl": "",
                        "isERC1155": false,
                        "isERC721": false,
                        "sign": true,
                        "value": "0.03621489"
                    }
                ]
            },
            {
                "account": "0x0000000000000000000000000000000000000000",
                "assets": [
                    {
                        "address": "0xed5464bd5c477b7f71739ce1d741b43e932b97b0",
                        "amount": "1,041",
                        "iconUrl": "",
                        "isERC1155": false,
                        "isERC721": false,
                        "sign": false,
                        "value": "0.03621489"
                    }
                ]
            }
        ]
    },
    "profile": {
        "basic_info": {
            "baseFee": "24.632223647",
            "blockNumber": 16701471,
            "callData": "0x555c1cd500000000000000000000000000000000000000000000000000000000000000c000000000000000000000000000000000000000000000000000000000000001400000000000000000000000000000000000000000000000000000000000000160000000000000000000000000000000000000000000000000000000000000033f0000000000000000000000000000000000000000000000000000000063f94ece0000000000000000000000000000000000000000000000000000000000000220000000000000000000000000000000000000000000000000000000000000000300000000000000000000000000000000000000000000000000000000000010e8000000000000000000000000000000000000000000000000000000000000011a000000000000000000000000000000000000000000000000000000000000013900000000000000000000000000000000000000000000000000000000000000000000000000000000000000000000000000000000000000000000000000000005000000000000000000000000000000000000000000000000000000000000330c00000000000000000000000000000000000000000000000000000000000032fd00000000000000000000000000000000000000000000000000000000000032b3000000000000000000000000000000000000000000000000000000000000319f00000000000000000000000000000000000000000000000000000000000026c400000000000000000000000000000000000000000000000000000000000000411f9ee28fb910e6bd45cbdd96f6b323708d5e87b9c47fa8761cb74ddfd2c5d3254ec9560ff90717aeb663397a1be63bff65073168479cd9d2bb310c0b6cf803dc1c00000000000000000000000000000000000000000000000000000000000000",
            "debugEnable": true,
            "errorInfo": "",
            "eventCount": 3,
            "feeRecipient": "0xdafea492d9c6733ae3d56b7ed1adb60692c98bc5",
            "formatValue": "0",
            "gasLimit": 210112,
            "gasPrice": "27.132223647",
            "gasUsed": 209533,
            "intTxnCount": 14,
            "internalRevert": false,
            "internalRevertMessage": "",
            "isContractCreation": false,
            "isFlashloan": false,
            "maxFee": "51.094587186",
            "nonce": 922,
            "overwritedBlockNumber": -1,
            "priorityFee": "2.5",
            "receiver": "0x4afd163f281ed126cb07eaf99f52d8a083e135e3",
            "revertMessage": "",
            "sender": "0x4ea10e61b7f52df9bfba87bda6e612aeca055dd8",
            "simulationEnable": true,
            "sourceTxnHash": "0xea274d9479a741c078ee7d7bfe566e3314bb2a3f4398e6e7d5013b004a7009d4",
            "status": true,
            "timestamp": "2023-02-24T23:34:11Z",
            "transactionFee": "0.005685096217426851",
            "txnHash": "0xea274d9479a741c078ee7d7bfe566e3314bb2a3f4398e6e7d5013b004a7009d4",
            "txnIndex": 23,
            "type": 2,
            "value": "0"
        },
        "fund_flow": [
            {
                "amount": "1,041",
                "from": "0x0000000000000000000000000000000000000000",
                "id": 1,
                "isERC1155": false,
                "isERC721": false,
                "isReverted": false,
                "order": 1,
                "to": "0x4ea10e61b7f52df9bfba87bda6e612aeca055dd8",
                "token": "0xed5464bd5c477b7f71739ce1d741b43e932b97b0"
            }
        ],
        "token_infos": [
            {
                "address": "0xeeeeeeeeeeeeeeeeeeeeeeeeeeeeeeeeeeeeeeee",
                "decimals": 18
            },
            {
                "address": "0xc02aaa39b223fe8d0a0e5c4f27ead9083c756cc2",
                "decimals": 18
            },
            {
                "address": "0xed5464bd5c477b7f71739ce1d741b43e932b97b0",
                "decimals": 0
            }
        ]
    },
    "address_label": {
        "labels": [
            {
                "address": "0xeeeeeeeeeeeeeeeeeeeeeeeeeeeeeeeeeeeeeeee",
                "label": "Ether"
            },
            {
                "address": "0x2cf6be9aac1c7630d5a23af88c28275c70eb8819",
                "label": "Bulls & Apes: BAPBULL Token"
            },
            {
                "address": "0xcf099445347f0f006c19b90f1c1933eb9413682b",
                "label": "BAP TEEN BULLS (BAPTEENB)"
            },
            {
                "address": "0x0000000000000000000000000000000000000001",
                "label": "Precompiled"
            },
            {
                "address": "0x4afd163f281ed126cb07eaf99f52d8a083e135e3",
                "label": "BAPOrchestratorV3"
            },
            {
                "address": "0xed5464bd5c477b7f71739ce1d741b43e932b97b0",
                "label": "BAP Methane (METH)"
            },
            {
                "address": "0x0000000000000000000000000000000000000002",
                "label": "Precompiled"
            },
            {
                "address": "0x0000000000000000000000000000000000000003",
                "label": "Precompiled"
            },
            {
                "address": "0x0000000000000000000000000000000000000004",
                "label": "Precompiled"
            }
        ]
    },
    "trace": {
        "accountLabels": null,
        "dataMap": {
            "-1": {
                "invocation": {
                    "address": "0x4ea10e61b7f52df9bfba87bda6e612aeca055dd8",
                    "callData": "",
                    "decodedMethod": null,
                    "errorInfo": "",
                    "fromAddress": "",
                    "gasUsed": 0,
                    "id": -1,
                    "methodDecoded": false,
                    "operation": "",
                    "output": "",
                    "revert": false,
                    "revertMessage": "",
                    "selector": "",
                    "status": false,
                    "value": ""
                },
                "nodeType": 0
            },
            "0": {
                "invocation": {
                    "address": "0x4afd163f281ed126cb07eaf99f52d8a083e135e3",
                    "callData": "0x00000000000000000000000000000000000000000000000000000000000000c000000000000000000000000000000000000000000000000000000000000001400000000000000000000000000000000000000000000000000000000000000160000000000000000000000000000000000000000000000000000000000000033f0000000000000000000000000000000000000000000000000000000063f94ece0000000000000000000000000000000000000000000000000000000000000220000000000000000000000000000000000000000000000000000000000000000300000000000000000000000000000000000000000000000000000000000010e8000000000000000000000000000000000000000000000000000000000000011a000000000000000000000000000000000000000000000000000000000000013900000000000000000000000000000000000000000000000000000000000000000000000000000000000000000000000000000000000000000000000000000005000000000000000000000000000000000000000000000000000000000000330c00000000000000000000000000000000000000000000000000000000000032fd00000000000000000000000000000000000000000000000000000000000032b3000000000000000000000000000000000000000000000000000000000000319f00000000000000000000000000000000000000000000000000000000000026c400000000000000000000000000000000000000000000000000000000000000411f9ee28fb910e6bd45cbdd96f6b323708d5e87b9c47fa8761cb74ddfd2c5d3254ec9560ff90717aeb663397a1be63bff65073168479cd9d2bb310c0b6cf803dc1c00000000000000000000000000000000000000000000000000000000000000",
                    "decodedMethod": {
                        "callParams": [
                            {
                                "name": "bulls",
                                "type": "uint256[]",
                                "value": [
                                    "4,328",
                                    "282",
                                    "313"
                                ]
                            },
                            {
                                "name": "gods",
                                "type": "uint256[]",
                                "value": []
                            },
                            {
                                "name": "teens",
                                "type": "uint256[]",
                                "value": [
                                    "13,068",
                                    "13,053",
                                    "12,979",
                                    "12,703",
                                    "9,924"
                                ]
                            },
                            {
                                "name": "amount",
                                "type": "uint256",
                                "value": "831"
                            },
                            {
                                "name": "seed",
                                "type": "uint256",
                                "value": "1,677,283,022"
                            },
                            {
                                "name": "signature",
                                "type": "bytes",
                                "value": "0x1f9ee28fb910e6bd45cbdd96f6b323708d5e87b9c47fa8761cb74ddfd2c5d3254ec9560ff90717aeb663397a1be63bff65073168479cd9d2bb310c0b6cf803dc1c"
                            }
                        ],
                        "constructorArguments": "",
                        "name": "claimAllMeth",
                        "returnParams": [],
                        "signature": "claimAllMeth(uint256[],uint256[],uint256[],uint256,uint256,bytes)"
                    },
                    "errorInfo": "",
                    "fromAddress": "0x4ea10e61b7f52df9bfba87bda6e612aeca055dd8",
                    "gasUsed": 209533,
                    "id": 0,
                    "methodDecoded": true,
                    "operation": "CALL",
                    "output": "",
                    "revert": false,
                    "revertMessage": "",
                    "selector": "0x555c1cd5",
                    "status": true,
                    "value": "0"
                },
                "nodeType": 0
            },
            "1": {
                "invocation": {
                    "address": "0x2cf6be9aac1c7630d5a23af88c28275c70eb8819",
                    "callData": "0x00000000000000000000000000000000000000000000000000000000000010e8",
                    "decodedMethod": {
                        "callParams": [
                            {
                                "name": "tokenId",
                                "type": "uint256",
                                "value": "4,328"
                            }
                        ],
                        "constructorArguments": "",
                        "name": "ownerOf",
                        "returnParams": [
                            {
                                "name": "",
                                "type": "address",
                                "value": "0x4ea10e61b7f52df9bfba87bda6e612aeca055dd8"
                            }
                        ],
                        "signature": "ownerOf(uint256)"
                    },
                    "errorInfo": "",
                    "fromAddress": "0x4afd163f281ed126cb07eaf99f52d8a083e135e3",
                    "gasUsed": 5284,
                    "id": 1,
                    "methodDecoded": true,
                    "operation": "STATICCALL",
                    "output": "0x0000000000000000000000004ea10e61b7f52df9bfba87bda6e612aeca055dd8",
                    "revert": false,
                    "revertMessage": "",
                    "selector": "0x6352211e",
                    "status": true,
                    "value": "0"
                },
                "nodeType": 0
            },
            "10": {
                "invocation": {
                    "address": "0xcf099445347f0f006c19b90f1c1933eb9413682b",
                    "callData": "0x000000000000000000000000000000000000000000000000000000000000319f",
                    "decodedMethod": {
                        "callParams": [
                            {
                                "name": "tokenId",
                                "type": "uint256",
                                "value": "12,703"
                            }
                        ],
                        "constructorArguments": "",
                        "name": "ownerOf",
                        "returnParams": [
                            {
                                "name": "",
                                "type": "address",
                                "value": "0x4ea10e61b7f52df9bfba87bda6e612aeca055dd8"
                            }
                        ],
                        "signature": "ownerOf(uint256)"
                    },
                    "errorInfo": "",
                    "fromAddress": "0x4afd163f281ed126cb07eaf99f52d8a083e135e3",
                    "gasUsed": 3262,
                    "id": 10,
                    "methodDecoded": true,
                    "operation": "STATICCALL",
                    "output": "0x0000000000000000000000004ea10e61b7f52df9bfba87bda6e612aeca055dd8",
                    "revert": false,
                    "revertMessage": "",
                    "selector": "0x6352211e",
                    "status": true,
                    "value": "0"
                },
                "nodeType": 0
            },
            "11": {
                "invocation": {
                    "address": "0xcf099445347f0f006c19b90f1c1933eb9413682b",
                    "callData": "0x00000000000000000000000000000000000000000000000000000000000026c4",
                    "decodedMethod": {
                        "callParams": [
                            {
                                "name": "tokenId",
                                "type": "uint256",
                                "value": "9,924"
                            }
                        ],
                        "constructorArguments": "",
                        "name": "ownerOf",
                        "returnParams": [
                            {
                                "name": "",
                                "type": "address",
                                "value": "0x4ea10e61b7f52df9bfba87bda6e612aeca055dd8"
                            }
                        ],
                        "signature": "ownerOf(uint256)"
                    },
                    "errorInfo": "",
                    "fromAddress": "0x4afd163f281ed126cb07eaf99f52d8a083e135e3",
                    "gasUsed": 3262,
                    "id": 11,
                    "methodDecoded": true,
                    "operation": "STATICCALL",
                    "output": "0x0000000000000000000000004ea10e61b7f52df9bfba87bda6e612aeca055dd8",
                    "revert": false,
                    "revertMessage": "",
                    "selector": "0x6352211e",
                    "status": true,
                    "value": "0"
                },
                "nodeType": 0
            },
            "12": {
                "invocation": {
                    "address": "0xed5464bd5c477b7f71739ce1d741b43e932b97b0",
                    "callData": "0x0000000000000000000000004ea10e61b7f52df9bfba87bda6e612aeca055dd800000000000000000000000000000000000000000000000000000000000000d2",
                    "decodedMethod": {
                        "callParams": [
                            {
                                "name": "wallet",
                                "type": "address",
                                "value": "0x4ea10e61b7f52df9bfba87bda6e612aeca055dd8"
                            },
                            {
                                "name": "tokenAmount",
                                "type": "uint256",
                                "value": "210"
                            }
                        ],
                        "constructorArguments": "",
                        "name": "claim",
                        "returnParams": [],
                        "signature": "claim(address,uint256)"
                    },
                    "errorInfo": "",
                    "fromAddress": "0x4afd163f281ed126cb07eaf99f52d8a083e135e3",
                    "gasUsed": 29965,
                    "id": 12,
                    "methodDecoded": true,
                    "operation": "CALL",
                    "output": "",
                    "revert": false,
                    "revertMessage": "",
                    "selector": "0xaad3ec96",
                    "status": true,
                    "value": "0"
                },
                "nodeType": 0
            },
            "13": {
                "event": {
                    "contract": "0xed5464bd5c477b7f71739ce1d741b43e932b97b0",
                    "decodedLog": {
                        "name": "Transfer",
                        "params": [
                            {
                                "name": "from",
                                "type": "address",
                                "value": "0x0000000000000000000000000000000000000000"
                            },
                            {
                                "name": "to",
                                "type": "address",
                                "value": "0x4ea10e61b7f52df9bfba87bda6e612aeca055dd8"
                            },
                            {
                                "decimalAvailable": true,
                                "name": "value",
                                "type": "uint256",
                                "value": "210"
                            }
                        ],
                        "signature": "Transfer(address,address,uint256)"
                    },
                    "id": 13,
                    "logData": "0x00000000000000000000000000000000000000000000000000000000000000d2",
                    "logDecoded": true,
                    "operation": "EVENT",
                    "revert": false,
                    "status": true,
                    "topics": [
                        "0xddf252ad1be2c89b69c2b068fc378daa952ba7f163c4a11628f55a4df523b3ef",
                        "0x0000000000000000000000000000000000000000000000000000000000000000",
                        "0x0000000000000000000000004ea10e61b7f52df9bfba87bda6e612aeca055dd8"
                    ]
                },
                "nodeType": 1
            },
            "14": {
                "invocation": {
                    "address": "0x0000000000000000000000000000000000000001",
                    "callData": "0xaaa464dbbcd047b80cacd1987e6ad3c15dffe5a77f41a74a5d2a6d9c000000000000000000000000000000000000000000000000000000000000001c1f9ee28fb910e6bd45cbdd96f6b323708d5e87b9c47fa8761cb74ddfd2c5d3254ec9560ff90717aeb663397a1be63bff65073168479cd9d2bb310c0b6cf803dc",
                    "decodedMethod": {
                        "callParams": [
                            {
                                "name": "hash",
                                "type": "bytes32",
                                "value": "0x8cfd0f87aaa464dbbcd047b80cacd1987e6ad3c15dffe5a77f41a74a5d2a6d9c"
                            },
                            {
                                "name": "v",
                                "type": "uint256",
                                "value": "28"
                            },
                            {
                                "name": "r",
                                "type": "bytes32",
                                "value": "0x1f9ee28fb910e6bd45cbdd96f6b323708d5e87b9c47fa8761cb74ddfd2c5d325"
                            },
                            {
                                "name": "s",
                                "type": "bytes32",
                                "value": "0x4ec9560ff90717aeb663397a1be63bff65073168479cd9d2bb310c0b6cf803dc"
                            }
                        ],
                        "constructorArguments": "",
                        "name": "ecrecover",
                        "returnParams": [
                            {
                                "name": "",
                                "type": "address",
                                "value": "0xb1bbe302bb74f45564258a8eb00e7852230a33ff"
                            }
                        ],
                        "signature": "ecrecover(bytes32,uint256,bytes32,bytes32)"
                    },
                    "errorInfo": "",
                    "fromAddress": "0x4afd163f281ed126cb07eaf99f52d8a083e135e3",
                    "gasUsed": 3000,
                    "id": 14,
                    "methodDecoded": true,
                    "operation": "STATICCALL",
                    "output": "0x000000000000000000000000b1bbe302bb74f45564258a8eb00e7852230a33ff",
                    "revert": false,
                    "revertMessage": "",
                    "selector": "0x8cfd0f87",
                    "status": true,
                    "value": "0"
                },
                "nodeType": 0
            },
            "15": {
                "invocation": {
                    "address": "0xed5464bd5c477b7f71739ce1d741b43e932b97b0",
                    "callData": "0x0000000000000000000000004ea10e61b7f52df9bfba87bda6e612aeca055dd8000000000000000000000000000000000000000000000000000000000000033f",
                    "decodedMethod": {
                        "callParams": [
                            {
                                "name": "wallet",
                                "type": "address",
                                "value": "0x4ea10e61b7f52df9bfba87bda6e612aeca055dd8"
                            },
                            {
                                "name": "tokenAmount",
                                "type": "uint256",
                                "value": "831"
                            }
                        ],
                        "constructorArguments": "",
                        "name": "claim",
                        "returnParams": [],
                        "signature": "claim(address,uint256)"
                    },
                    "errorInfo": "",
                    "fromAddress": "0x4afd163f281ed126cb07eaf99f52d8a083e135e3",
                    "gasUsed": 5565,
                    "id": 15,
                    "methodDecoded": true,
                    "operation": "CALL",
                    "output": "",
                    "revert": false,
                    "revertMessage": "",
                    "selector": "0xaad3ec96",
                    "status": true,
                    "value": "0"
                },
                "nodeType": 0
            },
            "16": {
                "event": {
                    "contract": "0xed5464bd5c477b7f71739ce1d741b43e932b97b0",
                    "decodedLog": {
                        "name": "Transfer",
                        "params": [
                            {
                                "name": "from",
                                "type": "address",
                                "value": "0x0000000000000000000000000000000000000000"
                            },
                            {
                                "name": "to",
                                "type": "address",
                                "value": "0x4ea10e61b7f52df9bfba87bda6e612aeca055dd8"
                            },
                            {
                                "decimalAvailable": true,
                                "name": "value",
                                "type": "uint256",
                                "value": "831"
                            }
                        ],
                        "signature": "Transfer(address,address,uint256)"
                    },
                    "id": 16,
                    "logData": "0x000000000000000000000000000000000000000000000000000000000000033f",
                    "logDecoded": true,
                    "operation": "EVENT",
                    "revert": false,
                    "status": true,
                    "topics": [
                        "0xddf252ad1be2c89b69c2b068fc378daa952ba7f163c4a11628f55a4df523b3ef",
                        "0x0000000000000000000000000000000000000000000000000000000000000000",
                        "0x0000000000000000000000004ea10e61b7f52df9bfba87bda6e612aeca055dd8"
                    ]
                },
                "nodeType": 1
            },
            "17": {
                "event": {
                    "contract": "0x4afd163f281ed126cb07eaf99f52d8a083e135e3",
                    "decodedLog": {
                        "name": "METH_CLAIMED",
                        "params": [
                            {
                                "name": "user",
                                "type": "address",
                                "value": "0x4ea10e61b7f52df9bfba87bda6e612aeca055dd8"
                            },
                            {
                                "name": "amount",
                                "type": "uint256",
                                "value": "831"
                            },
                            {
                                "name": "timestamp",
                                "type": "uint256",
                                "value": "1,677,281,651"
                            }
                        ],
                        "signature": "METH_CLAIMED(address,uint256,uint256)"
                    },
                    "id": 17,
                    "logData": "0x0000000000000000000000004ea10e61b7f52df9bfba87bda6e612aeca055dd8000000000000000000000000000000000000000000000000000000000000033f0000000000000000000000000000000000000000000000000000000063f94973",
                    "logDecoded": true,
                    "operation": "EVENT",
                    "revert": false,
                    "status": true,
                    "topics": [
                        "0x2f8ab381fbd0825c053ecbf79303331859669e3bc28daaa5b334720c093a2a0b"
                    ]
                },
                "nodeType": 1
            },
            "2": {
                "invocation": {
                    "address": "0x2cf6be9aac1c7630d5a23af88c28275c70eb8819",
                    "callData": "0x00000000000000000000000000000000000000000000000000000000000010e8",
                    "decodedMethod": {
                        "callParams": [
                            {
                                "name": "",
                                "type": "uint256",
                                "value": "4,328"
                            }
                        ],
                        "constructorArguments": "",
                        "name": "breedings",
                        "returnParams": [
                            {
                                "name": "",
                                "type": "uint256",
                                "value": "0"
                            }
                        ],
                        "signature": "breedings(uint256)"
                    },
                    "errorInfo": "",
                    "fromAddress": "0x4afd163f281ed126cb07eaf99f52d8a083e135e3",
                    "gasUsed": 2856,
                    "id": 2,
                    "methodDecoded": true,
                    "operation": "STATICCALL",
                    "output": "0x0000000000000000000000000000000000000000000000000000000000000000",
                    "revert": false,
                    "revertMessage": "",
                    "selector": "0x1cf777ec",
                    "status": true,
                    "value": "0"
                },
                "nodeType": 0
            },
            "3": {
                "invocation": {
                    "address": "0x2cf6be9aac1c7630d5a23af88c28275c70eb8819",
                    "callData": "0x000000000000000000000000000000000000000000000000000000000000011a",
                    "decodedMethod": {
                        "callParams": [
                            {
                                "name": "tokenId",
                                "type": "uint256",
                                "value": "282"
                            }
                        ],
                        "constructorArguments": "",
                        "name": "ownerOf",
                        "returnParams": [
                            {
                                "name": "",
                                "type": "address",
                                "value": "0x4ea10e61b7f52df9bfba87bda6e612aeca055dd8"
                            }
                        ],
                        "signature": "ownerOf(uint256)"
                    },
                    "errorInfo": "",
                    "fromAddress": "0x4afd163f281ed126cb07eaf99f52d8a083e135e3",
                    "gasUsed": 3284,
                    "id": 3,
                    "methodDecoded": true,
                    "operation": "STATICCALL",
                    "output": "0x0000000000000000000000004ea10e61b7f52df9bfba87bda6e612aeca055dd8",
                    "revert": false,
                    "revertMessage": "",
                    "selector": "0x6352211e",
                    "status": true,
                    "value": "0"
                },
                "nodeType": 0
            },
            "4": {
                "invocation": {
                    "address": "0x2cf6be9aac1c7630d5a23af88c28275c70eb8819",
                    "callData": "0x000000000000000000000000000000000000000000000000000000000000011a",
                    "decodedMethod": {
                        "callParams": [
                            {
                                "name": "",
                                "type": "uint256",
                                "value": "282"
                            }
                        ],
                        "constructorArguments": "",
                        "name": "breedings",
                        "returnParams": [
                            {
                                "name": "",
                                "type": "uint256",
                                "value": "0"
                            }
                        ],
                        "signature": "breedings(uint256)"
                    },
                    "errorInfo": "",
                    "fromAddress": "0x4afd163f281ed126cb07eaf99f52d8a083e135e3",
                    "gasUsed": 2856,
                    "id": 4,
                    "methodDecoded": true,
                    "operation": "STATICCALL",
                    "output": "0x0000000000000000000000000000000000000000000000000000000000000000",
                    "revert": false,
                    "revertMessage": "",
                    "selector": "0x1cf777ec",
                    "status": true,
                    "value": "0"
                },
                "nodeType": 0
            },
            "5": {
                "invocation": {
                    "address": "0x2cf6be9aac1c7630d5a23af88c28275c70eb8819",
                    "callData": "0x0000000000000000000000000000000000000000000000000000000000000139",
                    "decodedMethod": {
                        "callParams": [
                            {
                                "name": "tokenId",
                                "type": "uint256",
                                "value": "313"
                            }
                        ],
                        "constructorArguments": "",
                        "name": "ownerOf",
                        "returnParams": [
                            {
                                "name": "",
                                "type": "address",
                                "value": "0x4ea10e61b7f52df9bfba87bda6e612aeca055dd8"
                            }
                        ],
                        "signature": "ownerOf(uint256)"
                    },
                    "errorInfo": "",
                    "fromAddress": "0x4afd163f281ed126cb07eaf99f52d8a083e135e3",
                    "gasUsed": 3284,
                    "id": 5,
                    "methodDecoded": true,
                    "operation": "STATICCALL",
                    "output": "0x0000000000000000000000004ea10e61b7f52df9bfba87bda6e612aeca055dd8",
                    "revert": false,
                    "revertMessage": "",
                    "selector": "0x6352211e",
                    "status": true,
                    "value": "0"
                },
                "nodeType": 0
            },
            "6": {
                "invocation": {
                    "address": "0x2cf6be9aac1c7630d5a23af88c28275c70eb8819",
                    "callData": "0x0000000000000000000000000000000000000000000000000000000000000139",
                    "decodedMethod": {
                        "callParams": [
                            {
                                "name": "",
                                "type": "uint256",
                                "value": "313"
                            }
                        ],
                        "constructorArguments": "",
                        "name": "breedings",
                        "returnParams": [
                            {
                                "name": "",
                                "type": "uint256",
                                "value": "0"
                            }
                        ],
                        "signature": "breedings(uint256)"
                    },
                    "errorInfo": "",
                    "fromAddress": "0x4afd163f281ed126cb07eaf99f52d8a083e135e3",
                    "gasUsed": 2856,
                    "id": 6,
                    "methodDecoded": true,
                    "operation": "STATICCALL",
                    "output": "0x0000000000000000000000000000000000000000000000000000000000000000",
                    "revert": false,
                    "revertMessage": "",
                    "selector": "0x1cf777ec",
                    "status": true,
                    "value": "0"
                },
                "nodeType": 0
            },
            "7": {
                "invocation": {
                    "address": "0xcf099445347f0f006c19b90f1c1933eb9413682b",
                    "callData": "0x000000000000000000000000000000000000000000000000000000000000330c",
                    "decodedMethod": {
                        "callParams": [
                            {
                                "name": "tokenId",
                                "type": "uint256",
                                "value": "13,068"
                            }
                        ],
                        "constructorArguments": "",
                        "name": "ownerOf",
                        "returnParams": [
                            {
                                "name": "",
                                "type": "address",
                                "value": "0x4ea10e61b7f52df9bfba87bda6e612aeca055dd8"
                            }
                        ],
                        "signature": "ownerOf(uint256)"
                    },
                    "errorInfo": "",
                    "fromAddress": "0x4afd163f281ed126cb07eaf99f52d8a083e135e3",
                    "gasUsed": 5262,
                    "id": 7,
                    "methodDecoded": true,
                    "operation": "STATICCALL",
                    "output": "0x0000000000000000000000004ea10e61b7f52df9bfba87bda6e612aeca055dd8",
                    "revert": false,
                    "revertMessage": "",
                    "selector": "0x6352211e",
                    "status": true,
                    "value": "0"
                },
                "nodeType": 0
            },
            "8": {
                "invocation": {
                    "address": "0xcf099445347f0f006c19b90f1c1933eb9413682b",
                    "callData": "0x00000000000000000000000000000000000000000000000000000000000032fd",
                    "decodedMethod": {
                        "callParams": [
                            {
                                "name": "tokenId",
                                "type": "uint256",
                                "value": "13,053"
                            }
                        ],
                        "constructorArguments": "",
                        "name": "ownerOf",
                        "returnParams": [
                            {
                                "name": "",
                                "type": "address",
                                "value": "0x4ea10e61b7f52df9bfba87bda6e612aeca055dd8"
                            }
                        ],
                        "signature": "ownerOf(uint256)"
                    },
                    "errorInfo": "",
                    "fromAddress": "0x4afd163f281ed126cb07eaf99f52d8a083e135e3",
                    "gasUsed": 3262,
                    "id": 8,
                    "methodDecoded": true,
                    "operation": "STATICCALL",
                    "output": "0x0000000000000000000000004ea10e61b7f52df9bfba87bda6e612aeca055dd8",
                    "revert": false,
                    "revertMessage": "",
                    "selector": "0x6352211e",
                    "status": true,
                    "value": "0"
                },
                "nodeType": 0
            },
            "9": {
                "invocation": {
                    "address": "0xcf099445347f0f006c19b90f1c1933eb9413682b",
                    "callData": "0x00000000000000000000000000000000000000000000000000000000000032b3",
                    "decodedMethod": {
                        "callParams": [
                            {
                                "name": "tokenId",
                                "type": "uint256",
                                "value": "12,979"
                            }
                        ],
                        "constructorArguments": "",
                        "name": "ownerOf",
                        "returnParams": [
                            {
                                "name": "",
                                "type": "address",
                                "value": "0x4ea10e61b7f52df9bfba87bda6e612aeca055dd8"
                            }
                        ],
                        "signature": "ownerOf(uint256)"
                    },
                    "errorInfo": "",
                    "fromAddress": "0x4afd163f281ed126cb07eaf99f52d8a083e135e3",
                    "gasUsed": 3262,
                    "id": 9,
                    "methodDecoded": true,
                    "operation": "STATICCALL",
                    "output": "0x0000000000000000000000004ea10e61b7f52df9bfba87bda6e612aeca055dd8",
                    "revert": false,
                    "revertMessage": "",
                    "selector": "0x6352211e",
                    "status": true,
                    "value": "0"
                },
                "nodeType": 0
            }
        },
        "gasFlame": [
            {
                "children": [
                    {
                        "children": [
                            {
                                "children": [],
                                "depth": 0,
                                "name": "Initial Gas",
                                "value": 24916
                            },
                            {
                                "children": [
                                    {
                                        "children": [],
                                        "depth": 1,
                                        "name": "ownerOf",
                                        "value": 5284
                                    },
                                    {
                                        "children": [],
                                        "depth": 1,
                                        "name": "breedings",
                                        "value": 2856
                                    },
                                    {
                                        "children": [],
                                        "depth": 1,
                                        "name": "ownerOf",
                                        "value": 3284
                                    },
                                    {
                                        "children": [],
                                        "depth": 1,
                                        "name": "breedings",
                                        "value": 2856
                                    },
                                    {
                                        "children": [],
                                        "depth": 1,
                                        "name": "ownerOf",
                                        "value": 3284
                                    },
                                    {
                                        "children": [],
                                        "depth": 1,
                                        "name": "breedings",
                                        "value": 2856
                                    },
                                    {
                                        "children": [],
                                        "depth": 1,
                                        "name": "ownerOf",
                                        "value": 5262
                                    },
                                    {
                                        "children": [],
                                        "depth": 1,
                                        "name": "ownerOf",
                                        "value": 3262
                                    },
                                    {
                                        "children": [],
                                        "depth": 1,
                                        "name": "ownerOf",
                                        "value": 3262
                                    },
                                    {
                                        "children": [],
                                        "depth": 1,
                                        "name": "ownerOf",
                                        "value": 3262
                                    },
                                    {
                                        "children": [],
                                        "depth": 1,
                                        "name": "ownerOf",
                                        "value": 3262
                                    },
                                    {
                                        "children": [],
                                        "depth": 1,
                                        "name": "claim",
                                        "value": 29965
                                    },
                                    {
                                        "children": [],
                                        "depth": 1,
                                        "name": "ecrecover",
                                        "value": 3000
                                    },
                                    {
                                        "children": [],
                                        "depth": 1,
                                        "name": "claim",
                                        "value": 5565
                                    }
                                ],
                                "depth": 0,
                                "name": "Executed Gas",
                                "value": 184617
                            }
                        ],
                        "depth": -1,
                        "name": "Actual Gas Used",
                        "value": 209533
                    },
                    {
                        "children": [],
                        "depth": -1,
                        "name": "Refunded Gas",
                        "value": 0
                    }
                ],
                "depth": -2,
                "name": "Total Gas",
                "value": 209533
            }
        ],
        "isConfirmed": true,
        "mainTrace": [
            {
                "children": [
                    {
                        "children": [
                            {
                                "children": [],
                                "depth": 1,
                                "id": 1,
                                "order": 1
                            },
                            {
                                "children": [],
                                "depth": 1,
                                "id": 2,
                                "order": 2
                            },
                            {
                                "children": [],
                                "depth": 1,
                                "id": 3,
                                "order": 3
                            },
                            {
                                "children": [],
                                "depth": 1,
                                "id": 4,
                                "order": 4
                            },
                            {
                                "children": [],
                                "depth": 1,
                                "id": 5,
                                "order": 5
                            },
                            {
                                "children": [],
                                "depth": 1,
                                "id": 6,
                                "order": 6
                            },
                            {
                                "children": [],
                                "depth": 1,
                                "id": 7,
                                "order": 7
                            },
                            {
                                "children": [],
                                "depth": 1,
                                "id": 8,
                                "order": 8
                            },
                            {
                                "children": [],
                                "depth": 1,
                                "id": 9,
                                "order": 9
                            },
                            {
                                "children": [],
                                "depth": 1,
                                "id": 10,
                                "order": 10
                            },
                            {
                                "children": [],
                                "depth": 1,
                                "id": 11,
                                "order": 11
                            },
                            {
                                "children": [
                                    {
                                        "children": [],
                                        "depth": 2,
                                        "id": 13,
                                        "order": 13
                                    }
                                ],
                                "depth": 1,
                                "id": 12,
                                "order": 12
                            },
                            {
                                "children": [],
                                "depth": 1,
                                "id": 14,
                                "order": 14
                            },
                            {
                                "children": [
                                    {
                                        "children": [],
                                        "depth": 2,
                                        "id": 16,
                                        "order": 16
                                    }
                                ],
                                "depth": 1,
                                "id": 15,
                                "order": 15
                            },
                            {
                                "children": [],
                                "depth": 1,
                                "id": 17,
                                "order": 17
                            }
                        ],
                        "depth": 0,
                        "id": 0,
                        "order": 0
                    }
                ],
                "depth": -1,
                "id": -1,
                "order": -1
            }
        ],
        "mainTraceNodeCount": 18,
        "parentIdMap": {
            "0": -1,
            "1": 0,
            "10": 0,
            "11": 0,
            "12": 0,
            "13": 12,
            "14": 0,
            "15": 0,
            "16": 15,
            "17": 0,
            "2": 0,
            "3": 0,
            "4": 0,
            "5": 0,
            "6": 0,
            "7": 0,
            "8": 0,
            "9": 0
        },
        "tidyTrace": [
            {
                "children": [
                    {
                        "children": [
                            {
                                "children": [
                                    {
                                        "children": [],
                                        "depth": 2,
                                        "id": 13,
                                        "order": 13
                                    }
                                ],
                                "depth": 1,
                                "id": 12,
                                "order": 12
                            },
                            {
                                "children": [
                                    {
                                        "children": [],
                                        "depth": 2,
                                        "id": 16,
                                        "order": 16
                                    }
                                ],
                                "depth": 1,
                                "id": 15,
                                "order": 15
                            },
                            {
                                "children": [],
                                "depth": 1,
                                "id": 17,
                                "order": 17
                            }
                        ],
                        "depth": 0,
                        "id": 0,
                        "order": 0
                    }
                ],
                "depth": -1,
                "id": -1,
                "order": -1
            }
        ],
        "tidyTraceNodeCount": 6
    },
    "state_change": {
        "stateChanges": [
            {
                "address": "0x4afd163f281ed126cb07eaf99f52d8a083e135e3",
                "erc": "",
                "slots": [
                    {
                        "current": "0x00000000000000000000000000000000000000000000000000000000000002b2",
                        "key": "0xdd2bdab70de9a09119dc7e795af59d14b7f15e7a1b272ff9775c4b627807b5da",
                        "prev": "0x00000000000000000000000000000000000000000000000000000000000002a3"
                    },
                    {
                        "current": "0x00000000000000000000000000000000000000000000000000000000000002b2",
                        "key": "0x6fffc39e34fa1a7bd3f248511d376b5e2041501ae28ebf9902542bad9d13a780",
                        "prev": "0x00000000000000000000000000000000000000000000000000000000000002a3"
                    },
                    {
                        "current": "0x0000000000000000000000000000000000000000000000000000000000000564",
                        "key": "0x01c530914a1d467e6fe1a100eeaf1f5bba11fe495c4cee1eee89b07223065193",
                        "prev": "0x0000000000000000000000000000000000000000000000000000000000000546"
                    },
                    {
                        "current": "0x0000000000000000000000000000000000000000000000000000000000000564",
                        "key": "0x06806b62643e6e2e30e444d38adc1edfaf2aa2a4476e617c84e7d192caf3a5a1",
                        "prev": "0x0000000000000000000000000000000000000000000000000000000000000546"
                    },
                    {
                        "current": "0x00000000000000000000000000000000000000000000000000000000000002b2",
                        "key": "0x7a7de4ee8e550ce729232302782c3a72f1589829b35137ac82acf2f9d6b6905e",
                        "prev": "0x00000000000000000000000000000000000000000000000000000000000002a3"
                    },
                    {
                        "current": "0x0000000000000000000000000000000000000000000000000000000063f94973",
                        "key": "0xe4f30bdddb773cb8ff88373b4d24159185496044ac707f98dea1e8d86b889b97",
                        "prev": "0x0000000000000000000000000000000000000000000000000000000063f4a0ab"
                    },
                    {
                        "current": "0x0000000000000000000000000000000000000000000000000000000000000564",
                        "key": "0x81d59e8f63389d4228fc097230044c4967bce9312cf2786a42f1c1fceb6693bc",
                        "prev": "0x0000000000000000000000000000000000000000000000000000000000000546"
                    },
                    {
                        "current": "0x00000000000000000000000000000000000000000000000000000000000002b2",
                        "key": "0x609b33e144e9603cac7d0e644de136424b0863ab30c7388ca612b927c717fac1",
                        "prev": "0x00000000000000000000000000000000000000000000000000000000000002a3"
                    },
                    {
                        "current": "0x00000000000000000000000000000000000000000000000000000000000002b2",
                        "key": "0x482489fdec40334462a759dd26fce7e899090ca1857c1cfce1a53a28e9a6336b",
                        "prev": "0x00000000000000000000000000000000000000000000000000000000000002a3"
                    }
                ],
                "storageVariables": [
                    {
                        "name": "claimedTeenMeth",
                        "type": "mapping(uint256 => uint256)",
                        "value": {
                            "pairs": [
                                {
                                    "key": "12703",
                                    "value": {
                                        "current": "690",
                                        "prev": "675",
                                        "typeTag": 1
                                    }
                                },
                                {
                                    "key": "12979",
                                    "value": {
                                        "current": "690",
                                        "prev": "675",
                                        "typeTag": 1
                                    }
                                },
                                {
                                    "key": "13053",
                                    "value": {
                                        "current": "690",
                                        "prev": "675",
                                        "typeTag": 1
                                    }
                                },
                                {
                                    "key": "13068",
                                    "value": {
                                        "current": "690",
                                        "prev": "675",
                                        "typeTag": 1
                                    }
                                },
                                {
                                    "key": "9924",
                                    "value": {
                                        "current": "690",
                                        "prev": "675",
                                        "typeTag": 1
                                    }
                                }
                            ],
                            "typeTag": 4
                        }
                    },
                    {
                        "name": "userLastClaim",
                        "type": "mapping(address => uint256)",
                        "value": {
                            "pairs": [
                                {
                                    "key": "0x4ea10e61b7f52df9bfba87bda6e612aeca055dd8",
                                    "value": {
                                        "current": "1677281651",
                                        "prev": "1676976299",
                                        "typeTag": 1
                                    }
                                }
                            ],
                            "typeTag": 4
                        }
                    },
                    {
                        "name": "claimedMeth",
                        "type": "mapping(uint256 => uint256)",
                        "value": {
                            "pairs": [
                                {
                                    "key": "282",
                                    "value": {
                                        "current": "1380",
                                        "prev": "1350",
                                        "typeTag": 1
                                    }
                                },
                                {
                                    "key": "313",
                                    "value": {
                                        "current": "1380",
                                        "prev": "1350",
                                        "typeTag": 1
                                    }
                                },
                                {
                                    "key": "4328",
                                    "value": {
                                        "current": "1380",
                                        "prev": "1350",
                                        "typeTag": 1
                                    }
                                }
                            ],
                            "typeTag": 4
                        }
                    }
                ]
            },
            {
                "address": "0xed5464bd5c477b7f71739ce1d741b43e932b97b0",
                "erc": "ERC-20",
                "slots": [
                    {
                        "current": "0x0000000000000000000000000000000000000000000000000000000002a8ea53",
                        "key": "0x0000000000000000000000000000000000000000000000000000000000000002",
                        "prev": "0x0000000000000000000000000000000000000000000000000000000002a8e642"
                    },
                    {
                        "current": "0x000000000000000000000000000000000000000000000000000000000000108e",
                        "key": "0x2a545e7d79b1dc65557d3308b62f572da4c14e1882f58b1abf91d8ddce0c54c1",
                        "prev": "0x0000000000000000000000000000000000000000000000000000000000000c7d"
                    },
                    {
                        "current": "0x0000000000000000000000000000000000000000000000000000000000006163",
                        "key": "0xe4f30bdddb773cb8ff88373b4d24159185496044ac707f98dea1e8d86b889b97",
                        "prev": "0x0000000000000000000000000000000000000000000000000000000000005d52"
                    }
                ],
                "storageVariables": [
                    {
                        "name": "_totalSupply",
                        "type": "uint256",
                        "value": {
                            "current": "44624467",
                            "prev": "44623426",
                            "typeTag": 1
                        }
                    },
                    {
                        "name": "_balances",
                        "type": "mapping(address => uint256)",
                        "value": {
                            "pairs": [
                                {
                                    "key": "0x4ea10e61b7f52df9bfba87bda6e612aeca055dd8",
                                    "value": {
                                        "current": "4238",
                                        "prev": "3197",
                                        "typeTag": 1
                                    }
                                }
                            ],
                            "typeTag": 4
                        }
                    },
                    {
                        "name": "claims",
                        "type": "mapping(address => uint256)",
                        "value": {
                            "pairs": [
                                {
                                    "key": "0x4ea10e61b7f52df9bfba87bda6e612aeca055dd8",
                                    "value": {
                                        "current": "24931",
                                        "prev": "23890",
                                        "typeTag": 1
                                    }
                                }
                            ],
                            "typeTag": 4
                        }
                    }
                ]
            }
        ]
    }
}