{
    "balance_change": {
        "balanceChanges": [
            {
                "account": "0x3d7094c38419b9948042fa7c2de489978eaf79d5",
                "assets": [
                    {
                        "address": "0x5b8174e20996ec743f01d3b55a35dd376429c596",
                        "amount": "281.838199999999967232",
                        "iconUrl": "",
                        "isERC1155": false,
                        "isERC721": false,
                        "sign": false,
                        "value": ""
                    }
                ]
            },
            {
                "account": "0x9acfb60bd77dacf290ce3b23770641a48c4a5896",
                "assets": [
                    {
                        "address": "0x5b8174e20996ec743f01d3b55a35dd376429c596",
                        "amount": "281.838199999999967232",
                        "iconUrl": "",
                        "isERC1155": false,
                        "isERC721": false,
                        "sign": true,
                        "value": ""
                    }
                ]
            }
        ]
    },
    "profile": {
        "basic_info": {
            "baseFee": "",
            "blockNumber": 8775692,
            "callData": "0xa9059cbb0000000000000000000000009acfb60bd77dacf290ce3b23770641a48c4a589600000000000000000000000000000000000000000000000f474a6da83f7f0000",
            "debugEnable": true,
            "errorInfo": "",
            "eventCount": 1,
            "feeRecipient": "0x5a0b54d5dc17e0aadc383d2db43b0a0d3e029c4c",
            "formatValue": "0",
            "gasLimit": 38385,
            "gasPrice": "1",
            "gasUsed": 38385,
            "intTxnCount": 0,
            "internalRevert": false,
            "internalRevertMessage": "",
            "isContractCreation": false,
            "isFlashloan": false,
            "maxFee": "",
            "nonce": 10472,
            "overwritedBlockNumber": -1,
            "priorityFee": "",
            "receiver": "0x5b8174e20996ec743f01d3b55a35dd376429c596",
            "revertMessage": "",
            "sender": "0x3d7094c38419b9948042fa7c2de489978eaf79d5",
            "simulationEnable": true,
            "sourceTxnHash": "0xea594a93ed6b0b4813c21f1af4a5c3f54a059e89b8a4964b20b3936e41f2ec36",
            "status": true,
            "timestamp": "2019-10-20T05:11:23Z",
            "transactionFee": "0.000038385",
            "txnHash": "0xea594a93ed6b0b4813c21f1af4a5c3f54a059e89b8a4964b20b3936e41f2ec36",
            "txnIndex": 68,
            "type": 0,
            "value": "0"
        },
        "fund_flow": [
            {
                "amount": "281.838199999999967232",
                "from": "0x3d7094c38419b9948042fa7c2de489978eaf79d5",
                "id": 1,
                "isERC1155": false,
                "isERC721": false,
                "isReverted": false,
                "order": 1,
                "to": "0x9acfb60bd77dacf290ce3b23770641a48c4a5896",
                "token": "0x5b8174e20996ec743f01d3b55a35dd376429c596"
            }
        ],
        "token_infos": [
            {
                "address": "0x5b8174e20996ec743f01d3b55a35dd376429c596",
                "decimals": 18
            },
            {
                "address": "0xc02aaa39b223fe8d0a0e5c4f27ead9083c756cc2",
                "decimals": 18
            },
            {
                "address": "0xeeeeeeeeeeeeeeeeeeeeeeeeeeeeeeeeeeeeeeee",
                "decimals": 18
            }
        ]
    },
    "address_label": {
        "labels": [
            {
                "address": "0x5b8174e20996ec743f01d3b55a35dd376429c596",
                "label": "PCPToken (PCPT)"
            },
            {
                "address": "0x0000000000000000000000000000000000000001",
                "label": "Precompiled"
            },
            {
                "address": "0x0000000000000000000000000000000000000002",
                "label": "Precompiled"
            },
            {
                "address": "0x0000000000000000000000000000000000000003",
                "label": "Precompiled"
            },
            {
                "address": "0x0000000000000000000000000000000000000004",
                "label": "Precompiled"
            },
            {
                "address": "0xeeeeeeeeeeeeeeeeeeeeeeeeeeeeeeeeeeeeeeee",
                "label": "Ether"
            }
        ]
    },
    "trace": {
        "accountLabels": null,
        "dataMap": {
            "-1": {
                "invocation": {
                    "address": "0x3d7094c38419b9948042fa7c2de489978eaf79d5",
                    "callData": "",
                    "decodedMethod": null,
                    "errorInfo": "",
                    "fromAddress": "",
                    "gasUsed": 0,
                    "id": -1,
                    "methodDecoded": false,
                    "operation": "",
                    "output": "",
                    "revert": false,
                    "revertMessage": "",
                    "selector": "",
                    "status": false,
                    "value": ""
                },
                "nodeType": 0
            },
            "0": {
                "invocation": {
                    "address": "0x5b8174e20996ec743f01d3b55a35dd376429c596",
                    "callData": "0x0000000000000000000000009acfb60bd77dacf290ce3b23770641a48c4a589600000000000000000000000000000000000000000000000f474a6da83f7f0000",
                    "decodedMethod": {
                        "callParams": [
                            {
                                "name": "_to",
                                "type": "address",
                                "value": "0x9acfb60bd77dacf290ce3b23770641a48c4a5896"
                            },
                            {
                                "decimalAvailable": true,
                                "name": "_value",
                                "type": "uint256",
                                "value": "281,838,199,999,999,967,232"
                            }
                        ],
                        "constructorArguments": "",
                        "name": "transfer",
                        "returnParams": [
                            {
                                "name": "success",
                                "type": "bool",
                                "value": true
                            }
                        ],
                        "signature": "transfer(address,uint256)"
                    },
                    "errorInfo": "",
                    "fromAddress": "0x3d7094c38419b9948042fa7c2de489978eaf79d5",
                    "gasUsed": 38385,
                    "id": 0,
                    "methodDecoded": true,
                    "operation": "CALL",
                    "output": "0x0000000000000000000000000000000000000000000000000000000000000001",
                    "revert": false,
                    "revertMessage": "",
                    "selector": "0xa9059cbb",
                    "status": true,
                    "value": "0"
                },
                "nodeType": 0
            },
            "1": {
                "event": {
                    "contract": "0x5b8174e20996ec743f01d3b55a35dd376429c596",
                    "decodedLog": {
                        "name": "Transfer",
                        "params": [
                            {
                                "name": "from",
                                "type": "address",
                                "value": "0x3d7094c38419b9948042fa7c2de489978eaf79d5"
                            },
                            {
                                "name": "to",
                                "type": "address",
                                "value": "0x9acfb60bd77dacf290ce3b23770641a48c4a5896"
                            },
                            {
                                "decimalAvailable": true,
                                "name": "value",
                                "type": "uint256",
                                "value": "281,838,199,999,999,967,232"
                            }
                        ],
                        "signature": "Transfer(address,address,uint256)"
                    },
                    "id": 1,
                    "logData": "0x00000000000000000000000000000000000000000000000f474a6da83f7f0000",
                    "logDecoded": true,
                    "operation": "EVENT",
                    "revert": false,
                    "status": true,
                    "topics": [
                        "0xddf252ad1be2c89b69c2b068fc378daa952ba7f163c4a11628f55a4df523b3ef",
                        "0x0000000000000000000000003d7094c38419b9948042fa7c2de489978eaf79d5",
                        "0x0000000000000000000000009acfb60bd77dacf290ce3b23770641a48c4a5896"
                    ]
                },
                "nodeType": 1
            }
        },
        "gasFlame": [
            {
                "children": [
                    {
                        "children": [
                            {
                                "children": [],
                                "depth": 0,
                                "name": "Initial Gas",
                                "value": 23256
                            },
                            {
                                "children": [],
                                "depth": 0,
                                "name": "Executed Gas",
                                "value": 15129
                            }
                        ],
                        "depth": -1,
                        "name": "Actual Gas Used",
                        "value": 38385
                    },
                    {
                        "children": [],
                        "depth": -1,
                        "name": "Refunded Gas",
                        "value": 0
                    }
                ],
                "depth": -2,
                "name": "Total Gas",
                "value": 38385
            }
        ],
        "isConfirmed": true,
        "mainTrace": [
            {
                "children": [
                    {
                        "children": [
                            {
                                "children": [],
                                "depth": 1,
                                "id": 1,
                                "order": 1
                            }
                        ],
                        "depth": 0,
                        "id": 0,
                        "order": 0
                    }
                ],
                "depth": -1,
                "id": -1,
                "order": -1
            }
        ],
        "mainTraceNodeCount": 2,
        "parentIdMap": {
            "0": -1,
            "1": 0
        },
        "tidyTrace": [
            {
                "children": [
                    {
                        "children": [
                            {
                                "children": [],
                                "depth": 1,
                                "id": 1,
                                "order": 1
                            }
                        ],
                        "depth": 0,
                        "id": 0,
                        "order": 0
                    }
                ],
                "depth": -1,
                "id": -1,
                "order": -1
            }
        ],
        "tidyTraceNodeCount": 2
    },
    "state_change": {
        "stateChanges": [
            {
                "address": "0x5b8174e20996ec743f01d3b55a35dd376429c596",
                "erc": "ERC-20",
                "slots": [
                    {
                        "current": "0x00000000000000000000000000000000000000000000259952a6903c3865c900",
                        "key": "0x791bb5fa12d6c0f8e968b7347277a64a57e3328f70e846f9bcc1b7cb1106ae22",
                        "prev": "0x0000000000000000000000000000000000000000000025a899f0fde477e4c900"
                    },
                    {
                        "current": "0x00000000000000000000000000000000000000000000000f4dfa46673f5cee20",
                        "key": "0xa08ef503aabcf87c2cdf1a106b777d0444fb7afd96216fc4918aac3cc7aa1b06",
                        "prev": "0x00000000000000000000000000000000000000000000000006afd8beffddee20"
                    }
                ],
                "storageVariables": [
                    {
                        "name": "balanceOf",
                        "type": "mapping(address => uint256)",
                        "value": {
                            "pairs": [
                                {
                                    "key": "0x3d7094c38419b9948042fa7c2de489978eaf79d5",
                                    "value": {
                                        "current": "177555867315599996995840",
                                        "prev": "177837705515599996963072",
                                        "typeTag": 1
                                    }
                                },
                                {
                                    "key": "0x9acfb60bd77dacf290ce3b23770641a48c4a5896",
                                    "value": {
                                        "current": "282320042000000020000",
                                        "prev": "481842000000052768",
                                        "typeTag": 1
                                    }
                                }
                            ],
                            "typeTag": 4
                        }
                    }
                ]
            }
        ]
    }
}