{
    "balance_change": {
        "balanceChanges": [
            {
                "account": "0x3e57efef507b4db7acfa2ee79ceca6b19e18d106",
                "assets": [
                    {
                        "address": "0x3acfc40a19520d97648eb7c0891e747b7f2b0283",
                        "amount": "1,000,000",
                        "iconUrl": "",
                        "isERC1155": false,
                        "isERC721": false,
                        "sign": true,
                        "value": "8712.681798"
                    },
                    {
                        "address": "0xed5af388653567af2f388e6224dc7c4b3241c544",
                        "amount": "1",
                        "iconUrl": "https://assets.blocksec.com/nft/icon/nft_d9bbdd61-9992-4171-9576-a79ebce6eee8.png",
                        "isERC1155": false,
                        "isERC721": true,
                        "sign": false,
                        "tokenID": "2199",
                        "value": ""
                    }
                ]
            },
            {
                "account": "0x3eb879cc9a0ef4c6f1d870a40ae187768c278da2",
                "assets": [
                    {
                        "address": "0xed5af388653567af2f388e6224dc7c4b3241c544",
                        "amount": "1",
                        "iconUrl": "https://assets.blocksec.com/nft/icon/nft_d9bbdd61-9992-4171-9576-a79ebce6eee8.png",
                        "isERC1155": false,
                        "isERC721": true,
                        "sign": true,
                        "tokenID": "2199",
                        "value": ""
                    }
                ]
            },
            {
                "account": "0x0000000000000000000000000000000000000000",
                "assets": [
                    {
                        "address": "0x3acfc40a19520d97648eb7c0891e747b7f2b0283",
                        "amount": "1,000,000",
                        "iconUrl": "",
                        "isERC1155": false,
                        "isERC721": false,
                        "sign": false,
                        "value": "8712.681798"
                    }
                ]
            }
        ]
    },
    "profile": {
        "basic_info": {
            "baseFee": "63.676022802",
            "blockNumber": 18421051,
            "callData": "0xc80e5af6000000000000000000000000ed5af388653567af2f388e6224dc7c4b3241c54400000000000000000000000000000000000000000000000000000000000000c000000000000000000000000000000000000000000000000000000000654bad22000000000000000000000000000000000000000000000000000000000000000200000000000000000000000000000000ffffffffffffffffffffffffffffffff0000000000000000000000003e57efef507b4db7acfa2ee79ceca6b19e18d10600000000000000000000000000000000000000000000000000000000000000010000000000000000000000000000000000000000000000000000000000000897",
            "debugEnable": true,
            "errorInfo": "",
            "eventCount": 4,
            "feeRecipient": "0x1f9090aae28b8a3dceadf281b0f12828e676c326",
            "formatValue": "0",
            "gasLimit": 223362,
            "gasPrice": "63.776022802",
            "gasUsed": 212931,
            "intTxnCount": 6,
            "internalRevert": false,
            "internalRevertMessage": "",
            "isContractCreation": false,
            "isFlashloan": false,
            "maxFee": "89.720948859",
            "nonce": 7835,
            "overwritedBlockNumber": -1,
            "priorityFee": "0.1",
            "receiver": "0x3eb879cc9a0ef4c6f1d870a40ae187768c278da2",
            "revertMessage": "",
            "sender": "0x3e57efef507b4db7acfa2ee79ceca6b19e18d106",
            "simulationEnable": true,
            "sourceTxnHash": "0xea00f83eab9b1f575446f4d05e2692afa8d2acac700a9fbd773d296bb7e7593d",
            "status": true,
            "timestamp": "2023-10-24T15:36:11Z",
            "transactionFee": "0.013579892311252662",
            "txnHash": "0xea00f83eab9b1f575446f4d05e2692afa8d2acac700a9fbd773d296bb7e7593d",
            "txnIndex": 211,
            "type": 2,
            "value": "0"
        },
        "fund_flow": [
            {
                "amount": "1,000,000",
                "from": "0x0000000000000000000000000000000000000000",
                "id": 1,
                "isERC1155": false,
                "isERC721": false,
                "isReverted": false,
                "order": 1,
                "to": "0x3e57efef507b4db7acfa2ee79ceca6b19e18d106",
                "token": "0x3acfc40a19520d97648eb7c0891e747b7f2b0283"
            },
            {
                "amount": "1",
                "from": "0x3e57efef507b4db7acfa2ee79ceca6b19e18d106",
                "id": 2,
                "isERC1155": false,
                "isERC721": true,
                "isReverted": false,
                "order": 2,
                "to": "0x3eb879cc9a0ef4c6f1d870a40ae187768c278da2",
                "token": "0xed5af388653567af2f388e6224dc7c4b3241c544",
                "tokenID": "2199"
            }
        ],
        "token_infos": [
            {
                "address": "0x3acfc40a19520d97648eb7c0891e747b7f2b0283",
                "decimals": 18
            },
            {
                "address": "0xc02aaa39b223fe8d0a0e5c4f27ead9083c756cc2",
                "decimals": 18
            },
            {
                "address": "0xeeeeeeeeeeeeeeeeeeeeeeeeeeeeeeeeeeeeeeee",
                "decimals": 18
            }
        ]
    },
    "address_label": {
        "labels": [
            {
                "address": "0x3acfc40a19520d97648eb7c0891e747b7f2b0283",
                "label": "\u03bcAzuki (\u03bcAZUKI)"
            },
            {
                "address": "0x0000000000000000000000000000000000000003",
                "label": "Precompiled"
            },
            {
                "address": "0x0000000000000000000000000000000000000004",
                "label": "Precompiled"
            },
            {
                "address": "0xeeeeeeeeeeeeeeeeeeeeeeeeeeeeeeeeeeeeeeee",
                "label": "Ether"
            },
            {
                "address": "0xed5af388653567af2f388e6224dc7c4b3241c544",
                "label": "Azuki: AZUKI Token"
            },
            {
                "address": "0xf4dba92c6072860995cf713e68e2f57eefaeab73",
                "label": "Flooring"
            },
            {
                "address": "0xd83a4695ae2b19aff0276f1016439dac88b51aed",
                "label": "CollectionLib"
            },
            {
                "address": "0x0000000000000000000000000000000000000001",
                "label": "Precompiled"
            },
            {
                "address": "0x0000000000000000000000000000000000000002",
                "label": "Precompiled"
            },
            {
                "address": "0x3eb879cc9a0ef4c6f1d870a40ae187768c278da2",
                "label": "ERC1967Proxy"
            }
        ]
    },
    "trace": {
        "accountLabels": null,
        "dataMap": {
            "-1": {
                "invocation": {
                    "address": "0x3e57efef507b4db7acfa2ee79ceca6b19e18d106",
                    "callData": "",
                    "decodedMethod": null,
                    "errorInfo": "",
                    "fromAddress": "",
                    "gasUsed": 0,
                    "id": -1,
                    "methodDecoded": false,
                    "operation": "",
                    "output": "",
                    "revert": false,
                    "revertMessage": "",
                    "selector": "",
                    "status": false,
                    "value": ""
                },
                "nodeType": 0
            },
            "0": {
                "invocation": {
                    "address": "0x3eb879cc9a0ef4c6f1d870a40ae187768c278da2",
                    "callData": "0x000000000000000000000000ed5af388653567af2f388e6224dc7c4b3241c54400000000000000000000000000000000000000000000000000000000000000c000000000000000000000000000000000000000000000000000000000654bad22000000000000000000000000000000000000000000000000000000000000000200000000000000000000000000000000ffffffffffffffffffffffffffffffff0000000000000000000000003e57efef507b4db7acfa2ee79ceca6b19e18d10600000000000000000000000000000000000000000000000000000000000000010000000000000000000000000000000000000000000000000000000000000897",
                    "decodedMethod": {
                        "callParams": [
                            {
                                "name": "collection",
                                "type": "address",
                                "value": "0xed5af388653567af2f388e6224dc7c4b3241c544"
                            },
                            {
                                "name": "nftIds",
                                "type": "uint256[]",
                                "value": [
                                    "2,199"
                                ]
                            },
                            {
                                "name": "expiryTs",
                                "type": "uint256",
                                "value": "1,699,458,338"
                            },
                            {
                                "name": "vipLevel",
                                "type": "uint256",
                                "value": "2"
                            },
                            {
                                "name": "maxCreditCost",
                                "type": "uint256",
                                "value": "340,282,366,920,938,463,463,374,607,431,768,211,455"
                            },
                            {
                                "name": "onBehalfOf",
                                "type": "address",
                                "value": "0x3e57efef507b4db7acfa2ee79ceca6b19e18d106"
                            }
                        ],
                        "constructorArguments": "",
                        "name": "lockNFTs",
                        "returnParams": [
                            {
                                "name": "",
                                "type": "uint256",
                                "value": "6,000,000,000,000,000,000,000"
                            }
                        ],
                        "signature": "lockNFTs(address,uint256[],uint256,uint256,uint256,address)"
                    },
                    "errorInfo": "",
                    "fromAddress": "0x3e57efef507b4db7acfa2ee79ceca6b19e18d106",
                    "gasUsed": 212931,
                    "id": 0,
                    "methodDecoded": true,
                    "operation": "CALL",
                    "output": "0x00000000000000000000000000000000000000000000014542ba12a337c00000",
                    "revert": false,
                    "revertMessage": "",
                    "selector": "0xc80e5af6",
                    "status": true,
                    "value": "0"
                },
                "nodeType": 0
            },
            "1": {
                "invocation": {
                    "address": "0xf4dba92c6072860995cf713e68e2f57eefaeab73",
                    "callData": "0x000000000000000000000000ed5af388653567af2f388e6224dc7c4b3241c54400000000000000000000000000000000000000000000000000000000000000c000000000000000000000000000000000000000000000000000000000654bad22000000000000000000000000000000000000000000000000000000000000000200000000000000000000000000000000ffffffffffffffffffffffffffffffff0000000000000000000000003e57efef507b4db7acfa2ee79ceca6b19e18d10600000000000000000000000000000000000000000000000000000000000000010000000000000000000000000000000000000000000000000000000000000897",
                    "decodedMethod": {
                        "callParams": [
                            {
                                "name": "collection",
                                "type": "address",
                                "value": "0xed5af388653567af2f388e6224dc7c4b3241c544"
                            },
                            {
                                "name": "nftIds",
                                "type": "uint256[]",
                                "value": [
                                    "2,199"
                                ]
                            },
                            {
                                "name": "expiryTs",
                                "type": "uint256",
                                "value": "1,699,458,338"
                            },
                            {
                                "name": "vipLevel",
                                "type": "uint256",
                                "value": "2"
                            },
                            {
                                "name": "maxCreditCost",
                                "type": "uint256",
                                "value": "340,282,366,920,938,463,463,374,607,431,768,211,455"
                            },
                            {
                                "name": "onBehalfOf",
                                "type": "address",
                                "value": "0x3e57efef507b4db7acfa2ee79ceca6b19e18d106"
                            }
                        ],
                        "constructorArguments": "",
                        "name": "lockNFTs",
                        "returnParams": [
                            {
                                "name": "",
                                "type": "uint256",
                                "value": "6,000,000,000,000,000,000,000"
                            }
                        ],
                        "signature": "lockNFTs(address,uint256[],uint256,uint256,uint256,address)"
                    },
                    "errorInfo": "",
                    "fromAddress": "0x3eb879cc9a0ef4c6f1d870a40ae187768c278da2",
                    "gasUsed": 189938,
                    "id": 1,
                    "methodDecoded": true,
                    "operation": "DELEGATECALL",
                    "output": "0x00000000000000000000000000000000000000000000014542ba12a337c00000",
                    "revert": false,
                    "revertMessage": "",
                    "selector": "0xc80e5af6",
                    "status": true,
                    "value": "0"
                },
                "nodeType": 0
            },
            "10": {
                "event": {
                    "contract": "0x3eb879cc9a0ef4c6f1d870a40ae187768c278da2",
                    "decodedLog": {
                        "name": "LockNft",
                        "params": [
                            {
                                "name": "sender",
                                "type": "address",
                                "value": "0x3e57efef507b4db7acfa2ee79ceca6b19e18d106"
                            },
                            {
                                "name": "onBehalfOf",
                                "type": "address",
                                "value": "0x3e57efef507b4db7acfa2ee79ceca6b19e18d106"
                            },
                            {
                                "name": "collection",
                                "type": "address",
                                "value": "0xed5af388653567af2f388e6224dc7c4b3241c544"
                            },
                            {
                                "name": "tokenIds",
                                "type": "uint256[]",
                                "value": [
                                    "2,199"
                                ]
                            },
                            {
                                "name": "safeBoxKeys",
                                "type": "uint256[]",
                                "value": [
                                    "2,923,003,274,661,805,839,814,180,659,545,932,555,834,254,950,400"
                                ]
                            },
                            {
                                "name": "safeBoxExpiryTs",
                                "type": "uint256",
                                "value": "1,699,458,338"
                            },
                            {
                                "name": "minMaintCredit",
                                "type": "uint256",
                                "value": "6,000,000,000,000,000,000,000"
                            },
                            {
                                "name": "proxyCollection",
                                "type": "address",
                                "value": "0xed5af388653567af2f388e6224dc7c4b3241c544"
                            }
                        ],
                        "signature": "LockNft(address,address,address,uint256[],uint256[],uint256,uint256,address)"
                    },
                    "id": 10,
                    "logData": "0x00000000000000000000000000000000000000000000000000000000000000a000000000000000000000000000000000000000000000000000000000000000e000000000000000000000000000000000000000000000000000000000654bad2200000000000000000000000000000000000000000000014542ba12a337c00000000000000000000000000000ed5af388653567af2f388e6224dc7c4b3241c544000000000000000000000000000000000000000000000000000000000000000100000000000000000000000000000000000000000000000000000000000008970000000000000000000000000000000000000000000000000000000000000001000000000000000000000002000000000000002b0000014542ba12a337c00000",
                    "logDecoded": true,
                    "operation": "EVENT",
                    "revert": false,
                    "status": true,
                    "topics": [
                        "0xaa75244fec84b237a00e565f2d9ef15139490324abdb7807bd587432976b9a20",
                        "0x0000000000000000000000003e57efef507b4db7acfa2ee79ceca6b19e18d106",
                        "0x0000000000000000000000003e57efef507b4db7acfa2ee79ceca6b19e18d106",
                        "0x000000000000000000000000ed5af388653567af2f388e6224dc7c4b3241c544"
                    ]
                },
                "nodeType": 1
            },
            "2": {
                "invocation": {
                    "address": "0xd83a4695ae2b19aff0276f1016439dac88b51aed",
                    "callData": "0x2fe1fbc80da023da9b6ab017bc6951fcc0b4d0a602de6e571f766e1f0eee56cf4984fca93244c29d18642b3e53d0ff9f040181185f332c14c371cbad1db0c0c800000000000000000000000000000000000000000000000000000000000000800000000000000000000000003e57efef507b4db7acfa2ee79ceca6b19e18d106000000000000000000000000ed5af388653567af2f388e6224dc7c4b3241c544000000000000000000000000ed5af388653567af2f388e6224dc7c4b3241c54400000000000000000000000000000000000000000000000000000000000000e000000000000000000000000000000000000000000000000000000000654bad22000000000000000000000000000000000000000000000000000000000000000200000000000000000000000000000000ffffffffffffffffffffffffffffffff000000000000000000000000102c776ddb30c754ded4fdcc77a19230a60d4e4f00000000000000000000000000000000000000000000000000000000000000010000000000000000000000000000000000000000000000000000000000000897",
                    "decodedMethod": null,
                    "errorInfo": "",
                    "fromAddress": "0x3eb879cc9a0ef4c6f1d870a40ae187768c278da2",
                    "gasUsed": 180231,
                    "id": 2,
                    "methodDecoded": false,
                    "operation": "DELEGATECALL",
                    "output": "0x00000000000000000000000000000000000000000000014542ba12a337c00000",
                    "revert": false,
                    "revertMessage": "",
                    "selector": "0xf6815346",
                    "status": true,
                    "value": "0"
                },
                "nodeType": 0
            },
            "3": {
                "invocation": {
                    "address": "0x3acfc40a19520d97648eb7c0891e747b7f2b0283",
                    "callData": "0x0000000000000000000000003e57efef507b4db7acfa2ee79ceca6b19e18d10600000000000000000000000000000000000000000000d3c21bcecceda1000000",
                    "decodedMethod": {
                        "callParams": [
                            {
                                "name": "account",
                                "type": "address",
                                "value": "0x3e57efef507b4db7acfa2ee79ceca6b19e18d106"
                            },
                            {
                                "name": "amount",
                                "type": "uint256",
                                "value": "1,000,000,000,000,000,000,000,000"
                            }
                        ],
                        "constructorArguments": "",
                        "name": "mint",
                        "returnParams": [],
                        "signature": "mint(address,uint256)"
                    },
                    "errorInfo": "",
                    "fromAddress": "0x3eb879cc9a0ef4c6f1d870a40ae187768c278da2",
                    "gasUsed": 29752,
                    "id": 3,
                    "methodDecoded": true,
                    "operation": "CALL",
                    "output": "",
                    "revert": false,
                    "revertMessage": "",
                    "selector": "0x40c10f19",
                    "status": true,
                    "value": "0"
                },
                "nodeType": 0
            },
            "4": {
                "event": {
                    "contract": "0x3acfc40a19520d97648eb7c0891e747b7f2b0283",
                    "decodedLog": {
                        "name": "Transfer",
                        "params": [
                            {
                                "name": "from",
                                "type": "address",
                                "value": "0x0000000000000000000000000000000000000000"
                            },
                            {
                                "name": "to",
                                "type": "address",
                                "value": "0x3e57efef507b4db7acfa2ee79ceca6b19e18d106"
                            },
                            {
                                "decimalAvailable": true,
                                "name": "value",
                                "type": "uint256",
                                "value": "1,000,000,000,000,000,000,000,000"
                            }
                        ],
                        "signature": "Transfer(address,address,uint256)"
                    },
                    "id": 4,
                    "logData": "0x00000000000000000000000000000000000000000000d3c21bcecceda1000000",
                    "logDecoded": true,
                    "operation": "EVENT",
                    "revert": false,
                    "status": true,
                    "topics": [
                        "0xddf252ad1be2c89b69c2b068fc378daa952ba7f163c4a11628f55a4df523b3ef",
                        "0x0000000000000000000000000000000000000000000000000000000000000000",
                        "0x0000000000000000000000003e57efef507b4db7acfa2ee79ceca6b19e18d106"
                    ]
                },
                "nodeType": 1
            },
            "5": {
                "invocation": {
                    "address": "0xed5af388653567af2f388e6224dc7c4b3241c544",
                    "callData": "0x0000000000000000000000003e57efef507b4db7acfa2ee79ceca6b19e18d1060000000000000000000000003eb879cc9a0ef4c6f1d870a40ae187768c278da20000000000000000000000000000000000000000000000000000000000000897",
                    "decodedMethod": {
                        "callParams": [
                            {
                                "name": "from",
                                "type": "address",
                                "value": "0x3e57efef507b4db7acfa2ee79ceca6b19e18d106"
                            },
                            {
                                "name": "to",
                                "type": "address",
                                "value": "0x3eb879cc9a0ef4c6f1d870a40ae187768c278da2"
                            },
                            {
                                "name": "tokenId",
                                "type": "uint256",
                                "value": "2,199"
                            }
                        ],
                        "constructorArguments": "",
                        "name": "safeTransferFrom",
                        "returnParams": [],
                        "signature": "safeTransferFrom(address,address,uint256)"
                    },
                    "errorInfo": "",
                    "fromAddress": "0x3eb879cc9a0ef4c6f1d870a40ae187768c278da2",
                    "gasUsed": 33302,
                    "id": 5,
                    "methodDecoded": true,
                    "operation": "CALL",
                    "output": "",
                    "revert": false,
                    "revertMessage": "",
                    "selector": "0x42842e0e",
                    "status": true,
                    "value": "0"
                },
                "nodeType": 0
            },
            "6": {
                "event": {
                    "contract": "0xed5af388653567af2f388e6224dc7c4b3241c544",
                    "decodedLog": {
                        "name": "Approval",
                        "params": [
                            {
                                "name": "owner",
                                "type": "address",
                                "value": "0x3e57efef507b4db7acfa2ee79ceca6b19e18d106"
                            },
                            {
                                "name": "approved",
                                "type": "address",
                                "value": "0x0000000000000000000000000000000000000000"
                            },
                            {
                                "decimalAvailable": true,
                                "name": "tokenId",
                                "type": "uint256",
                                "value": "2,199"
                            }
                        ],
                        "signature": "Approval(address,address,uint256)"
                    },
                    "id": 6,
                    "logData": "0x",
                    "logDecoded": true,
                    "operation": "EVENT",
                    "revert": false,
                    "status": true,
                    "topics": [
                        "0x8c5be1e5ebec7d5bd14f71427d1e84f3dd0314c0f7b2291e5b200ac8c7c3b925",
                        "0x0000000000000000000000003e57efef507b4db7acfa2ee79ceca6b19e18d106",
                        "0x0000000000000000000000000000000000000000000000000000000000000000",
                        "0x0000000000000000000000000000000000000000000000000000000000000897"
                    ]
                },
                "nodeType": 1
            },
            "7": {
                "event": {
                    "contract": "0xed5af388653567af2f388e6224dc7c4b3241c544",
                    "decodedLog": {
                        "name": "Transfer",
                        "params": [
                            {
                                "name": "from",
                                "type": "address",
                                "value": "0x3e57efef507b4db7acfa2ee79ceca6b19e18d106"
                            },
                            {
                                "name": "to",
                                "type": "address",
                                "value": "0x3eb879cc9a0ef4c6f1d870a40ae187768c278da2"
                            },
                            {
                                "decimalAvailable": true,
                                "name": "tokenId",
                                "type": "uint256",
                                "value": "2,199"
                            }
                        ],
                        "signature": "Transfer(address,address,uint256)"
                    },
                    "id": 7,
                    "logData": "0x",
                    "logDecoded": true,
                    "operation": "EVENT",
                    "revert": false,
                    "status": true,
                    "topics": [
                        "0xddf252ad1be2c89b69c2b068fc378daa952ba7f163c4a11628f55a4df523b3ef",
                        "0x0000000000000000000000003e57efef507b4db7acfa2ee79ceca6b19e18d106",
                        "0x0000000000000000000000003eb879cc9a0ef4c6f1d870a40ae187768c278da2",
                        "0x0000000000000000000000000000000000000000000000000000000000000897"
                    ]
                },
                "nodeType": 1
            },
            "8": {
                "invocation": {
                    "address": "0x3eb879cc9a0ef4c6f1d870a40ae187768c278da2",
                    "callData": "0x0000000000000000000000003eb879cc9a0ef4c6f1d870a40ae187768c278da20000000000000000000000003e57efef507b4db7acfa2ee79ceca6b19e18d106000000000000000000000000000000000000000000000000000000000000089700000000000000000000000000000000000000000000000000000000000000800000000000000000000000000000000000000000000000000000000000000000",
                    "decodedMethod": {
                        "callParams": [
                            {
                                "name": "",
                                "type": "address",
                                "value": "0x3eb879cc9a0ef4c6f1d870a40ae187768c278da2"
                            },
                            {
                                "name": "",
                                "type": "address",
                                "value": "0x3e57efef507b4db7acfa2ee79ceca6b19e18d106"
                            },
                            {
                                "name": "",
                                "type": "uint256",
                                "value": "2,199"
                            },
                            {
                                "name": "",
                                "type": "bytes",
                                "value": "0x"
                            }
                        ],
                        "constructorArguments": "",
                        "name": "onERC721Received",
                        "returnParams": [
                            {
                                "name": "",
                                "type": "bytes4",
                                "value": "0x150b7a02"
                            }
                        ],
                        "signature": "onERC721Received(address,address,uint256,bytes)"
                    },
                    "errorInfo": "",
                    "fromAddress": "0xed5af388653567af2f388e6224dc7c4b3241c544",
                    "gasUsed": 1211,
                    "id": 8,
                    "methodDecoded": true,
                    "operation": "CALL",
                    "output": "0x150b7a0200000000000000000000000000000000000000000000000000000000",
                    "revert": false,
                    "revertMessage": "",
                    "selector": "0x150b7a02",
                    "status": true,
                    "value": "0"
                },
                "nodeType": 0
            },
            "9": {
                "invocation": {
                    "address": "0xf4dba92c6072860995cf713e68e2f57eefaeab73",
                    "callData": "0x0000000000000000000000003eb879cc9a0ef4c6f1d870a40ae187768c278da20000000000000000000000003e57efef507b4db7acfa2ee79ceca6b19e18d106000000000000000000000000000000000000000000000000000000000000089700000000000000000000000000000000000000000000000000000000000000800000000000000000000000000000000000000000000000000000000000000000",
                    "decodedMethod": {
                        "callParams": [
                            {
                                "name": "",
                                "type": "address",
                                "value": "0x3eb879cc9a0ef4c6f1d870a40ae187768c278da2"
                            },
                            {
                                "name": "",
                                "type": "address",
                                "value": "0x3e57efef507b4db7acfa2ee79ceca6b19e18d106"
                            },
                            {
                                "name": "",
                                "type": "uint256",
                                "value": "2,199"
                            },
                            {
                                "name": "",
                                "type": "bytes",
                                "value": "0x"
                            }
                        ],
                        "constructorArguments": "",
                        "name": "onERC721Received",
                        "returnParams": [
                            {
                                "name": "",
                                "type": "bytes4",
                                "value": "0x150b7a02"
                            }
                        ],
                        "signature": "onERC721Received(address,address,uint256,bytes)"
                    },
                    "errorInfo": "",
                    "fromAddress": "0x3eb879cc9a0ef4c6f1d870a40ae187768c278da2",
                    "gasUsed": 804,
                    "id": 9,
                    "methodDecoded": true,
                    "operation": "DELEGATECALL",
                    "output": "0x150b7a0200000000000000000000000000000000000000000000000000000000",
                    "revert": false,
                    "revertMessage": "",
                    "selector": "0x150b7a02",
                    "status": true,
                    "value": "0"
                },
                "nodeType": 0
            }
        },
        "gasFlame": [
            {
                "children": [
                    {
                        "children": [
                            {
                                "children": [],
                                "depth": 0,
                                "name": "Initial Gas",
                                "value": 22868
                            },
                            {
                                "children": [
                                    {
                                        "children": [
                                            {
                                                "children": [
                                                    {
                                                        "children": [],
                                                        "depth": 3,
                                                        "name": "mint",
                                                        "value": 29752
                                                    },
                                                    {
                                                        "children": [
                                                            {
                                                                "children": [
                                                                    {
                                                                        "children": [],
                                                                        "depth": 5,
                                                                        "name": "onERC721Received",
                                                                        "value": 804
                                                                    }
                                                                ],
                                                                "depth": 4,
                                                                "name": "onERC721Received",
                                                                "value": 1211
                                                            }
                                                        ],
                                                        "depth": 3,
                                                        "name": "safeTransferFrom",
                                                        "value": 33302
                                                    }
                                                ],
                                                "depth": 2,
                                                "name": "0xf6815346",
                                                "value": 180231
                                            }
                                        ],
                                        "depth": 1,
                                        "name": "lockNFTs",
                                        "value": 189938
                                    }
                                ],
                                "depth": 0,
                                "name": "Executed Gas",
                                "value": 194863
                            }
                        ],
                        "depth": -1,
                        "name": "Actual Gas Used",
                        "value": 212931
                    },
                    {
                        "children": [],
                        "depth": -1,
                        "name": "Refunded Gas",
                        "value": 4800
                    }
                ],
                "depth": -2,
                "name": "Total Gas",
                "value": 217731
            }
        ],
        "isConfirmed": true,
        "mainTrace": [
            {
                "children": [
                    {
                        "children": [
                            {
                                "children": [
                                    {
                                        "children": [
                                            {
                                                "children": [
                                                    {
                                                        "children": [],
                                                        "depth": 4,
                                                        "id": 4,
                                                        "order": 4
                                                    }
                                                ],
                                                "depth": 3,
                                                "id": 3,
                                                "order": 3
                                            },
                                            {
                                                "children": [
                                                    {
                                                        "children": [],
                                                        "depth": 4,
                                                        "id": 6,
                                                        "order": 6
                                                    },
                                                    {
                                                        "children": [],
                                                        "depth": 4,
                                                        "id": 7,
                                                        "order": 7
                                                    },
                                                    {
                                                        "children": [
                                                            {
                                                                "children": [],
                                                                "depth": 5,
                                                                "id": 9,
                                                                "order": 9
                                                            }
                                                        ],
                                                        "depth": 4,
                                                        "id": 8,
                                                        "order": 8
                                                    }
                                                ],
                                                "depth": 3,
                                                "id": 5,
                                                "order": 5
                                            },
                                            {
                                                "children": [],
                                                "depth": 3,
                                                "id": 10,
                                                "order": 10
                                            }
                                        ],
                                        "depth": 2,
                                        "id": 2,
                                        "order": 2
                                    }
                                ],
                                "depth": 1,
                                "id": 1,
                                "order": 1
                            }
                        ],
                        "depth": 0,
                        "id": 0,
                        "order": 0
                    }
                ],
                "depth": -1,
                "id": -1,
                "order": -1
            }
        ],
        "mainTraceNodeCount": 11,
        "parentIdMap": {
            "0": -1,
            "1": 0,
            "10": 2,
            "2": 1,
            "3": 2,
            "4": 3,
            "5": 2,
            "6": 5,
            "7": 5,
            "8": 5,
            "9": 8
        },
        "tidyTrace": [
            {
                "children": [
                    {
                        "children": [
                            {
                                "children": [
                                    {
                                        "children": [
                                            {
                                                "children": [
                                                    {
                                                        "children": [],
                                                        "depth": 4,
                                                        "id": 4,
                                                        "order": 4
                                                    }
                                                ],
                                                "depth": 3,
                                                "id": 3,
                                                "order": 3
                                            },
                                            {
                                                "children": [
                                                    {
                                                        "children": [],
                                                        "depth": 4,
                                                        "id": 6,
                                                        "order": 6
                                                    },
                                                    {
                                                        "children": [],
                                                        "depth": 4,
                                                        "id": 7,
                                                        "order": 7
                                                    },
                                                    {
                                                        "children": [
                                                            {
                                                                "children": [],
                                                                "depth": 5,
                                                                "id": 9,
                                                                "order": 9
                                                            }
                                                        ],
                                                        "depth": 4,
                                                        "id": 8,
                                                        "order": 8
                                                    }
                                                ],
                                                "depth": 3,
                                                "id": 5,
                                                "order": 5
                                            },
                                            {
                                                "children": [],
                                                "depth": 3,
                                                "id": 10,
                                                "order": 10
                                            }
                                        ],
                                        "depth": 2,
                                        "id": 2,
                                        "order": 2
                                    }
                                ],
                                "depth": 1,
                                "id": 1,
                                "order": 1
                            }
                        ],
                        "depth": 0,
                        "id": 0,
                        "order": 0
                    }
                ],
                "depth": -1,
                "id": -1,
                "order": -1
            }
        ],
        "tidyTraceNodeCount": 11
    },
    "state_change": {
        "stateChanges": [
            {
                "address": "0x3acfc40a19520d97648eb7c0891e747b7f2b0283",
                "erc": "ERC-20",
                "slots": [
                    {
                        "current": "0x000000000000000000000000000000000000000000cc5048d487b94657000000",
                        "key": "0x0000000000000000000000000000000000000000000000000000000000000002",
                        "prev": "0x000000000000000000000000000000000000000000cb7c86b8b8ec58b6000000"
                    },
                    {
                        "current": "0x00000000000000000000000000000000000000000000d3c21bcecceda1000000",
                        "key": "0x700605b0d115e2f25cab0a83b2a72508b310c40517b9fbd6f090d0b257e6d042",
                        "prev": "0x0000000000000000000000000000000000000000000000000000000000000000"
                    }
                ],
                "storageVariables": [
                    {
                        "name": "_totalSupply",
                        "type": "uint256",
                        "value": {
                            "current": "247000000000000000000000000",
                            "prev": "246000000000000000000000000",
                            "typeTag": 1
                        }
                    },
                    {
                        "name": "_balances",
                        "type": "mapping(address => uint256)",
                        "value": {
                            "pairs": [
                                {
                                    "key": "0x3e57efef507b4db7acfa2ee79ceca6b19e18d106",
                                    "value": {
                                        "current": "1000000000000000000000000",
                                        "prev": "0",
                                        "typeTag": 1
                                    }
                                }
                            ],
                            "typeTag": 4
                        }
                    }
                ]
            },
            {
                "address": "0x3eb879cc9a0ef4c6f1d870a40ae187768c278da2",
                "erc": "",
                "slots": [
                    {
                        "current": "0x00000000000000120000000000000017000000000000002c0000000000001a10",
                        "key": "0x2fe1fbc80da023da9b6ab017bc6951fcc0b4d0a602de6e571f766e1f0eee56d6",
                        "prev": "0x00000000000000120000000000000016000000000000002b0000000000001a10"
                    },
                    {
                        "current": "0x000000000000000000000002000000000000002b0000014542ba12a337c00000",
                        "key": "0x52459b1607447dfdb5ef4a4f1f11f917dae3b737db709c92266fd9fc3b03698c",
                        "prev": "0x0000000000000000000000000000000000000000000000000000000000000000"
                    },
                    {
                        "current": "0x3e57efef507b4db7acfa2ee79ceca6b19e18d106654bad22000000000000002b",
                        "key": "0x947ed1139ae8b66e2872dfcaf356e05df76aa0b36d7df986acd6c2af188324a5",
                        "prev": "0x0000000000000000000000000000000000000000000000000000000000000000"
                    },
                    {
                        "current": "0x0000000000000000000000000005000005000005000005000005000000000000",
                        "key": "0x174ce8f74e3bf53a1aaec7b65fcfdd867bd1568f33b3ecca0bca4d75d519c535",
                        "prev": "0x0000000000000000000000000004000004000004000004000004000000000000"
                    },
                    {
                        "current": "0x0002000000000000000000000000000000000000000000000002000000000000",
                        "key": "0x4984fca93244c29d18642b3e53d0ff9f040181185f332c14c371cbad1db0c0c9",
                        "prev": "0x0002000000000000000000000000000000000000000000000001000000000000"
                    },
                    {
                        "current": "0xbc4ca0eda7647a8ab7c2061c2e118a18a936f13d0000014542ba12a337c00000",
                        "key": "0x9aa6bdf0de50f5de6cb2687ace880079c252283b98bd20d4d1e8a1bdf90826de",
                        "prev": "0x0000000000000000000000000000000000000000000000000000000000000000"
                    },
                    {
                        "current": "0xed5af388653567af2f388e6224dc7c4b3241c5440000014542ba12a337c00000",
                        "key": "0x4984fca93244c29d18642b3e53d0ff9f040181185f332c14c371cbad1db0c0c8",
                        "prev": "0xbc4ca0eda7647a8ab7c2061c2e118a18a936f13d0000014542ba12a337c00000"
                    }
                ],
                "storageVariables": [
                    {
                        "name": "collectionStates",
                        "type": "mapping(address => struct CollectionState)",
                        "value": {
                            "pairs": [
                                {
                                    "key": "0xed5af388653567af2f388e6224dc7c4b3241c544",
                                    "value": {
                                        "fields": [
                                            {
                                                "name": "countingBuckets",
                                                "type": "mapping(uint256 => uint256)",
                                                "value": {
                                                    "pairs": [
                                                        {
                                                            "key": "7",
                                                            "value": {
                                                                "current": "111503732638793490773094139037786799760998400",
                                                                "prev": "89202986111034792618475311230229439808798720",
                                                                "typeTag": 1
                                                            }
                                                        }
                                                    ],
                                                    "typeTag": 4
                                                }
                                            },
                                            {
                                                "name": "safeBoxes",
                                                "type": "mapping(uint256 => struct SafeBox)",
                                                "value": {
                                                    "pairs": [
                                                        {
                                                            "key": "2199",
                                                            "value": {
                                                                "fields": [
                                                                    {
                                                                        "name": "keyId",
                                                                        "type": "uint64",
                                                                        "value": {
                                                                            "current": "43",
                                                                            "prev": "0",
                                                                            "typeTag": 1
                                                                        }
                                                                    },
                                                                    {
                                                                        "name": "expiryTs",
                                                                        "type": "uint32",
                                                                        "value": {
                                                                            "current": "1699458338",
                                                                            "prev": "0",
                                                                            "typeTag": 1
                                                                        }
                                                                    },
                                                                    {
                                                                        "name": "owner",
                                                                        "type": "address",
                                                                        "value": {
                                                                            "current": "0x3e57efef507b4db7acfa2ee79ceca6b19e18d106",
                                                                            "prev": "0x0000000000000000000000000000000000000000",
                                                                            "typeTag": 1
                                                                        }
                                                                    }
                                                                ],
                                                                "typeTag": 3
                                                            }
                                                        }
                                                    ],
                                                    "typeTag": 4
                                                }
                                            },
                                            {
                                                "name": "lastUpdatedBucket",
                                                "type": "uint64",
                                                "value": {
                                                    "current": "6672",
                                                    "prev": "6672",
                                                    "typeTag": 1
                                                }
                                            },
                                            {
                                                "name": "nextKeyId",
                                                "type": "uint64",
                                                "value": {
                                                    "current": "44",
                                                    "prev": "43",
                                                    "typeTag": 1
                                                }
                                            },
                                            {
                                                "name": "activeSafeBoxCnt",
                                                "type": "uint64",
                                                "value": {
                                                    "current": "23",
                                                    "prev": "22",
                                                    "typeTag": 1
                                                }
                                            },
                                            {
                                                "name": "infiniteCnt",
                                                "type": "uint64",
                                                "value": {
                                                    "current": "18",
                                                    "prev": "18",
                                                    "typeTag": 1
                                                }
                                            }
                                        ],
                                        "typeTag": 3
                                    }
                                }
                            ],
                            "typeTag": 4
                        }
                    },
                    {
                        "name": "userFloorAccounts",
                        "type": "mapping(address => struct UserFloorAccount)",
                        "value": {
                            "pairs": [
                                {
                                    "key": "0x3e57efef507b4db7acfa2ee79ceca6b19e18d106",
                                    "value": {
                                        "fields": [
                                            {
                                                "name": "minMaintCredit",
                                                "type": "uint96",
                                                "value": {
                                                    "current": "6000000000000000000000",
                                                    "prev": "6000000000000000000000",
                                                    "typeTag": 1
                                                }
                                            },
                                            {
                                                "name": "firstCollection",
                                                "type": "address",
                                                "value": {
                                                    "current": "0xed5af388653567af2f388e6224dc7c4b3241c544",
                                                    "prev": "0xbc4ca0eda7647a8ab7c2061c2e118a18a936f13d",
                                                    "typeTag": 1
                                                }
                                            },
                                            {
                                                "name": "vipInfo",
                                                "type": "uint256",
                                                "value": {
                                                    "current": "3533694129556768659166595001485837031654967793751237916243775352538660864",
                                                    "prev": "3533694129556768659166595001485837031654967793751237916243493877561950208",
                                                    "typeTag": 1
                                                }
                                            },
                                            {
                                                "name": "accounts",
                                                "type": "mapping(address => struct CollectionAccount)",
                                                "value": {
                                                    "pairs": [
                                                        {
                                                            "key": "0xed5af388653567af2f388e6224dc7c4b3241c544",
                                                            "value": {
                                                                "fields": [
                                                                    {
                                                                        "name": "keys",
                                                                        "type": "mapping(uint256 => struct SafeBoxKey)",
                                                                        "value": {
                                                                            "pairs": [
                                                                                {
                                                                                    "key": "2199",
                                                                                    "value": {
                                                                                        "fields": [
                                                                                            {
                                                                                                "name": "lockingCredit",
                                                                                                "type": "uint96",
                                                                                                "value": {
                                                                                                    "current": "6000000000000000000000",
                                                                                                    "prev": "0",
                                                                                                    "typeTag": 1
                                                                                                }
                                                                                            },
                                                                                            {
                                                                                                "name": "keyId",
                                                                                                "type": "uint64",
                                                                                                "value": {
                                                                                                    "current": "43",
                                                                                                    "prev": "0",
                                                                                                    "typeTag": 1
                                                                                                }
                                                                                            },
                                                                                            {
                                                                                                "name": "vipLevel",
                                                                                                "type": "uint8",
                                                                                                "value": {
                                                                                                    "current": "2",
                                                                                                    "prev": "0",
                                                                                                    "typeTag": 1
                                                                                                }
                                                                                            }
                                                                                        ],
                                                                                        "typeTag": 3
                                                                                    }
                                                                                }
                                                                            ],
                                                                            "typeTag": 4
                                                                        }
                                                                    },
                                                                    {
                                                                        "name": "totalLockingCredit",
                                                                        "type": "uint96",
                                                                        "value": {
                                                                            "current": "6000000000000000000000",
                                                                            "prev": "0",
                                                                            "typeTag": 1
                                                                        }
                                                                    },
                                                                    {
                                                                        "name": "next",
                                                                        "type": "address",
                                                                        "value": {
                                                                            "current": "0xbc4ca0eda7647a8ab7c2061c2e118a18a936f13d",
                                                                            "prev": "0x0000000000000000000000000000000000000000",
                                                                            "typeTag": 1
                                                                        }
                                                                    }
                                                                ],
                                                                "typeTag": 3
                                                            }
                                                        }
                                                    ],
                                                    "typeTag": 4
                                                }
                                            }
                                        ],
                                        "typeTag": 3
                                    }
                                }
                            ],
                            "typeTag": 4
                        }
                    }
                ]
            },
            {
                "address": "0xed5af388653567af2f388e6224dc7c4b3241c544",
                "erc": "ERC-721",
                "slots": [
                    {
                        "current": "0x0000000000000000000000000000000000000000000000000000000000000000",
                        "key": "0x385331ac2e4c4561e5454f94ddb9de8535ed114a6e090d7d491c5768a114e3bf",
                        "prev": "0x0000000000000000000000000000000000000000000000000000000000000001"
                    },
                    {
                        "current": "0x00000000000000000000000000000000000000000000000000000000000000f7",
                        "key": "0x5dbfd70bc745bade6889b593d12f82396307381266ae086264a1f207b5968ac5",
                        "prev": "0x00000000000000000000000000000000000000000000000000000000000000f6"
                    },
                    {
                        "current": "0x00000000000000006537e46b3eb879cc9a0ef4c6f1d870a40ae187768c278da2",
                        "key": "0x9fe98881ad9686470f5450be35796686ed5e78cad441678c5efeea557fdcba65",
                        "prev": "0x0000000000000000649b5a773e57efef507b4db7acfa2ee79ceca6b19e18d106"
                    }
                ],
                "storageVariables": [
                    {
                        "name": "_ownerships",
                        "type": "mapping(uint256 => struct ERC721A.TokenOwnership)",
                        "value": {
                            "pairs": [
                                {
                                    "key": "2199",
                                    "value": {
                                        "fields": [
                                            {
                                                "name": "addr",
                                                "type": "address",
                                                "value": {
                                                    "current": "0x3eb879cc9a0ef4c6f1d870a40ae187768c278da2",
                                                    "prev": "0x3e57efef507b4db7acfa2ee79ceca6b19e18d106",
                                                    "typeTag": 1
                                                }
                                            },
                                            {
                                                "name": "startTimestamp",
                                                "type": "uint64",
                                                "value": {
                                                    "current": "1698161771",
                                                    "prev": "1687902839",
                                                    "typeTag": 1
                                                }
                                            }
                                        ],
                                        "typeTag": 3
                                    }
                                }
                            ],
                            "typeTag": 4
                        }
                    },
                    {
                        "name": "_addressData",
                        "type": "mapping(address => struct ERC721A.AddressData)",
                        "value": {
                            "pairs": [
                                {
                                    "key": "0x3e57efef507b4db7acfa2ee79ceca6b19e18d106",
                                    "value": {
                                        "fields": [
                                            {
                                                "name": "balance",
                                                "type": "uint128",
                                                "value": {
                                                    "current": "0",
                                                    "prev": "1",
                                                    "typeTag": 1
                                                }
                                            },
                                            {
                                                "name": "numberMinted",
                                                "type": "uint128",
                                                "value": {
                                                    "current": "0",
                                                    "prev": "0",
                                                    "typeTag": 1
                                                }
                                            }
                                        ],
                                        "typeTag": 3
                                    }
                                },
                                {
                                    "key": "0x3eb879cc9a0ef4c6f1d870a40ae187768c278da2",
                                    "value": {
                                        "fields": [
                                            {
                                                "name": "balance",
                                                "type": "uint128",
                                                "value": {
                                                    "current": "247",
                                                    "prev": "246",
                                                    "typeTag": 1
                                                }
                                            },
                                            {
                                                "name": "numberMinted",
                                                "type": "uint128",
                                                "value": {
                                                    "current": "0",
                                                    "prev": "0",
                                                    "typeTag": 1
                                                }
                                            }
                                        ],
                                        "typeTag": 3
                                    }
                                }
                            ],
                            "typeTag": 4
                        }
                    }
                ]
            }
        ]
    }
}