{
    "balance_change": {
        "balanceChanges": [
            {
                "account": "0xbcd329d0f6eb506f0e83e38041b86c8a260c3766",
                "assets": [
                    {
                        "address": "0xd3b5a4ca369a8e68da6218ee322467ccec4dd800",
                        "amount": "3,340",
                        "iconUrl": "",
                        "isERC1155": false,
                        "isERC721": false,
                        "sign": false,
                        "value": ""
                    }
                ]
            },
            {
                "account": "0x3c22413b6b919efaccfefefb22216c84bae4f956",
                "assets": [
                    {
                        "address": "0xd3b5a4ca369a8e68da6218ee322467ccec4dd800",
                        "amount": "3,340",
                        "iconUrl": "",
                        "isERC1155": false,
                        "isERC721": false,
                        "sign": true,
                        "value": ""
                    }
                ]
            }
        ]
    },
    "profile": {
        "basic_info": {
            "baseFee": "",
            "blockNumber": 7651857,
            "callData": "0xa9059cbb0000000000000000000000003c22413b6b919efaccfefefb22216c84bae4f9560000000000000000000000000000000000000000000000b50fcfafebecb00000",
            "debugEnable": true,
            "errorInfo": "",
            "eventCount": 1,
            "feeRecipient": "0x5a0b54d5dc17e0aadc383d2db43b0a0d3e029c4c",
            "formatValue": "0",
            "gasLimit": 73878,
            "gasPrice": "4.8",
            "gasUsed": 52770,
            "intTxnCount": 0,
            "internalRevert": false,
            "internalRevertMessage": "",
            "isContractCreation": false,
            "isFlashloan": false,
            "maxFee": "",
            "nonce": 73,
            "overwritedBlockNumber": -1,
            "priorityFee": "",
            "receiver": "0xd3b5a4ca369a8e68da6218ee322467ccec4dd800",
            "revertMessage": "",
            "sender": "0xbcd329d0f6eb506f0e83e38041b86c8a260c3766",
            "simulationEnable": true,
            "sourceTxnHash": "0xeb3044c4d51f75824b4e24ed0fc840958ad9eaf7f27d85ccc05a4877fa2f20d4",
            "status": true,
            "timestamp": "2019-04-27T21:09:42Z",
            "transactionFee": "0.000253296",
            "txnHash": "0xeb3044c4d51f75824b4e24ed0fc840958ad9eaf7f27d85ccc05a4877fa2f20d4",
            "txnIndex": 60,
            "type": 0,
            "value": "0"
        },
        "fund_flow": [
            {
                "amount": "3,340",
                "from": "0xbcd329d0f6eb506f0e83e38041b86c8a260c3766",
                "id": 1,
                "isERC1155": false,
                "isERC721": false,
                "isReverted": false,
                "order": 1,
                "to": "0x3c22413b6b919efaccfefefb22216c84bae4f956",
                "token": "0xd3b5a4ca369a8e68da6218ee322467ccec4dd800"
            }
        ],
        "token_infos": [
            {
                "address": "0xc02aaa39b223fe8d0a0e5c4f27ead9083c756cc2",
                "decimals": 18
            },
            {
                "address": "0xd3b5a4ca369a8e68da6218ee322467ccec4dd800",
                "decimals": 18
            },
            {
                "address": "0xeeeeeeeeeeeeeeeeeeeeeeeeeeeeeeeeeeeeeeee",
                "decimals": 18
            }
        ]
    },
    "address_label": {
        "labels": [
            {
                "address": "0xeeeeeeeeeeeeeeeeeeeeeeeeeeeeeeeeeeeeeeee",
                "label": "Ether"
            },
            {
                "address": "0xd3b5a4ca369a8e68da6218ee322467ccec4dd800",
                "label": "CryptoRiyal (CR)"
            },
            {
                "address": "0x0000000000000000000000000000000000000001",
                "label": "Precompiled"
            },
            {
                "address": "0x0000000000000000000000000000000000000002",
                "label": "Precompiled"
            },
            {
                "address": "0x0000000000000000000000000000000000000003",
                "label": "Precompiled"
            },
            {
                "address": "0x0000000000000000000000000000000000000004",
                "label": "Precompiled"
            }
        ]
    },
    "trace": {
        "accountLabels": null,
        "dataMap": {
            "-1": {
                "invocation": {
                    "address": "0xbcd329d0f6eb506f0e83e38041b86c8a260c3766",
                    "callData": "",
                    "decodedMethod": null,
                    "errorInfo": "",
                    "fromAddress": "",
                    "gasUsed": 0,
                    "id": -1,
                    "methodDecoded": false,
                    "operation": "",
                    "output": "",
                    "revert": false,
                    "revertMessage": "",
                    "selector": "",
                    "status": false,
                    "value": ""
                },
                "nodeType": 0
            },
            "0": {
                "invocation": {
                    "address": "0xd3b5a4ca369a8e68da6218ee322467ccec4dd800",
                    "callData": "0x0000000000000000000000003c22413b6b919efaccfefefb22216c84bae4f9560000000000000000000000000000000000000000000000b50fcfafebecb00000",
                    "decodedMethod": {
                        "callParams": [
                            {
                                "name": "_to",
                                "type": "address",
                                "value": "0x3c22413b6b919efaccfefefb22216c84bae4f956"
                            },
                            {
                                "decimalAvailable": true,
                                "name": "_value",
                                "type": "uint256",
                                "value": "3,340,000,000,000,000,000,000"
                            }
                        ],
                        "constructorArguments": "",
                        "name": "transfer",
                        "returnParams": [
                            {
                                "name": "",
                                "type": "bool",
                                "value": true
                            }
                        ],
                        "signature": "transfer(address,uint256)"
                    },
                    "errorInfo": "",
                    "fromAddress": "0xbcd329d0f6eb506f0e83e38041b86c8a260c3766",
                    "gasUsed": 52770,
                    "id": 0,
                    "methodDecoded": true,
                    "operation": "CALL",
                    "output": "0x0000000000000000000000000000000000000000000000000000000000000001",
                    "revert": false,
                    "revertMessage": "",
                    "selector": "0xa9059cbb",
                    "status": true,
                    "value": "0"
                },
                "nodeType": 0
            },
            "1": {
                "event": {
                    "contract": "0xd3b5a4ca369a8e68da6218ee322467ccec4dd800",
                    "decodedLog": {
                        "name": "Transfer",
                        "params": [
                            {
                                "name": "from",
                                "type": "address",
                                "value": "0xbcd329d0f6eb506f0e83e38041b86c8a260c3766"
                            },
                            {
                                "name": "to",
                                "type": "address",
                                "value": "0x3c22413b6b919efaccfefefb22216c84bae4f956"
                            },
                            {
                                "decimalAvailable": true,
                                "name": "value",
                                "type": "uint256",
                                "value": "3,340,000,000,000,000,000,000"
                            }
                        ],
                        "signature": "Transfer(address,address,uint256)"
                    },
                    "id": 1,
                    "logData": "0x0000000000000000000000000000000000000000000000b50fcfafebecb00000",
                    "logDecoded": true,
                    "operation": "EVENT",
                    "revert": false,
                    "status": true,
                    "topics": [
                        "0xddf252ad1be2c89b69c2b068fc378daa952ba7f163c4a11628f55a4df523b3ef",
                        "0x000000000000000000000000bcd329d0f6eb506f0e83e38041b86c8a260c3766",
                        "0x0000000000000000000000003c22413b6b919efaccfefefb22216c84bae4f956"
                    ]
                },
                "nodeType": 1
            }
        },
        "gasFlame": [
            {
                "children": [
                    {
                        "children": [
                            {
                                "children": [],
                                "depth": 0,
                                "name": "Initial Gas",
                                "value": 23256
                            },
                            {
                                "children": [],
                                "depth": 0,
                                "name": "Executed Gas",
                                "value": 29514
                            }
                        ],
                        "depth": -1,
                        "name": "Actual Gas Used",
                        "value": 52770
                    },
                    {
                        "children": [],
                        "depth": -1,
                        "name": "Refunded Gas",
                        "value": 0
                    }
                ],
                "depth": -2,
                "name": "Total Gas",
                "value": 52770
            }
        ],
        "isConfirmed": true,
        "mainTrace": [
            {
                "children": [
                    {
                        "children": [
                            {
                                "children": [],
                                "depth": 1,
                                "id": 1,
                                "order": 1
                            }
                        ],
                        "depth": 0,
                        "id": 0,
                        "order": 0
                    }
                ],
                "depth": -1,
                "id": -1,
                "order": -1
            }
        ],
        "mainTraceNodeCount": 2,
        "parentIdMap": {
            "0": -1,
            "1": 0
        },
        "tidyTrace": [
            {
                "children": [
                    {
                        "children": [
                            {
                                "children": [],
                                "depth": 1,
                                "id": 1,
                                "order": 1
                            }
                        ],
                        "depth": 0,
                        "id": 0,
                        "order": 0
                    }
                ],
                "depth": -1,
                "id": -1,
                "order": -1
            }
        ],
        "tidyTraceNodeCount": 2
    },
    "state_change": {
        "stateChanges": [
            {
                "address": "0xd3b5a4ca369a8e68da6218ee322467ccec4dd800",
                "erc": "ERC-20",
                "slots": [
                    {
                        "current": "0x0000000000000000000000000000000000000000000000b50fcfafebecb00000",
                        "key": "0x8c31085b7daddbe8832456846d73db36f24787521f44bc51e2acea486a5df82f",
                        "prev": "0x0000000000000000000000000000000000000000000000000000000000000000"
                    },
                    {
                        "current": "0x000000000000000000000000000000000000000000024f45d15295ee872a0000",
                        "key": "0x42b0655b769173cf17e063629a8a04c5572ac91352e024d3c0ecb56a1b3da522",
                        "prev": "0x000000000000000000000000000000000000000000024ffae12245da73da0000"
                    }
                ],
                "storageVariables": [
                    {
                        "name": "balanceOf",
                        "type": "mapping(address => uint256)",
                        "value": {
                            "pairs": [
                                {
                                    "key": "0x3c22413b6b919efaccfefefb22216c84bae4f956",
                                    "value": {
                                        "current": "3340000000000000000000",
                                        "prev": "0",
                                        "typeTag": 1
                                    }
                                },
                                {
                                    "key": "0xbcd329d0f6eb506f0e83e38041b86c8a260c3766",
                                    "value": {
                                        "current": "2792206500000000000000000",
                                        "prev": "2795546500000000000000000",
                                        "typeTag": 1
                                    }
                                }
                            ],
                            "typeTag": 4
                        }
                    }
                ]
            }
        ]
    }
}