{
    "balance_change": {
        "balanceChanges": [
            {
                "account": "0x096d071b3a838121237fc9b771353d6cdec3c798",
                "assets": [
                    {
                        "address": "0xeeeeeeeeeeeeeeeeeeeeeeeeeeeeeeeeeeeeeeee",
                        "amount": "0.006",
                        "iconUrl": "https://assets.blocksec.com/image/1663669189317-3.png",
                        "isERC1155": false,
                        "isERC721": false,
                        "sign": false,
                        "value": "15.654603366000001187"
                    }
                ]
            },
            {
                "account": "0xaeb960ed44c8a4ce848c50ef451f472a503456b2",
                "assets": [
                    {
                        "address": "0xeeeeeeeeeeeeeeeeeeeeeeeeeeeeeeeeeeeeeeee",
                        "amount": "0.006",
                        "iconUrl": "https://assets.blocksec.com/image/1663669189317-3.png",
                        "isERC1155": false,
                        "isERC721": false,
                        "sign": true,
                        "value": "15.654603366000001187"
                    }
                ]
            }
        ]
    },
    "profile": {
        "basic_info": {
            "baseFee": "",
            "blockNumber": 12670146,
            "callData": "0x7901451c000000000000000000000000f6c668fbf3c7c07bb098670b6c629e934737beb600000000000000000000000000000000000000000000000000000000000000600000000000000000000000000000000000000000000000000000000000000000000000000000000000000000000000000000000000000000000000000000004142a6b1c7f0af0baabbd2034e6045258b4e6da6a3fcb178eb0ff592214894977079ca567371a4bd19417f5e1da122d87922ba6355d802e4ddf232dfb42633138d1b00000000000000000000000000000000000000000000000000000000000000",
            "debugEnable": true,
            "errorInfo": "",
            "eventCount": 3,
            "feeRecipient": "0xea674fdde714fd979de3edf0f56aa9716b898ec8",
            "formatValue": "0.006",
            "gasLimit": 95394,
            "gasPrice": "10",
            "gasUsed": 95394,
            "intTxnCount": 2,
            "internalRevert": false,
            "internalRevertMessage": "",
            "isContractCreation": false,
            "isFlashloan": false,
            "maxFee": "",
            "nonce": 3,
            "overwritedBlockNumber": -1,
            "priorityFee": "",
            "receiver": "0xaeb960ed44c8a4ce848c50ef451f472a503456b2",
            "revertMessage": "",
            "sender": "0x096d071b3a838121237fc9b771353d6cdec3c798",
            "simulationEnable": true,
            "sourceTxnHash": "0xeb20368e481f5b99f8a6eea5cc4f091943784d96868888391c20c0ee98f8d8ed",
            "status": true,
            "timestamp": "2021-06-20T08:22:51Z",
            "transactionFee": "0.00095394",
            "txnHash": "0xeb20368e481f5b99f8a6eea5cc4f091943784d96868888391c20c0ee98f8d8ed",
            "txnIndex": 30,
            "type": 0,
            "value": "6000000000000000"
        },
        "fund_flow": [
            {
                "amount": "0.006",
                "from": "0x096d071b3a838121237fc9b771353d6cdec3c798",
                "id": 1,
                "isERC1155": false,
                "isERC721": false,
                "isReverted": false,
                "order": 1,
                "to": "0xaeb960ed44c8a4ce848c50ef451f472a503456b2",
                "token": "0xeeeeeeeeeeeeeeeeeeeeeeeeeeeeeeeeeeeeeeee"
            }
        ],
        "token_infos": [
            {
                "address": "0xc02aaa39b223fe8d0a0e5c4f27ead9083c756cc2",
                "decimals": 18
            },
            {
                "address": "0xeeeeeeeeeeeeeeeeeeeeeeeeeeeeeeeeeeeeeeee",
                "decimals": 18
            }
        ]
    },
    "address_label": {
        "labels": [
            {
                "address": "0x0000000000000000000000000000000000000004",
                "label": "Precompiled"
            },
            {
                "address": "0xeeeeeeeeeeeeeeeeeeeeeeeeeeeeeeeeeeeeeeee",
                "label": "Ether"
            },
            {
                "address": "0xaeb960ed44c8a4ce848c50ef451f472a503456b2",
                "label": "Sorare: Exchange"
            },
            {
                "address": "0x0000000000000000000000000000000000000001",
                "label": "Precompiled"
            },
            {
                "address": "0x0000000000000000000000000000000000000002",
                "label": "Precompiled"
            },
            {
                "address": "0x0000000000000000000000000000000000000003",
                "label": "Precompiled"
            }
        ]
    },
    "trace": {
        "accountLabels": null,
        "dataMap": {
            "-1": {
                "invocation": {
                    "address": "0x096d071b3a838121237fc9b771353d6cdec3c798",
                    "callData": "",
                    "decodedMethod": null,
                    "errorInfo": "",
                    "fromAddress": "",
                    "gasUsed": 0,
                    "id": -1,
                    "methodDecoded": false,
                    "operation": "",
                    "output": "",
                    "revert": false,
                    "revertMessage": "",
                    "selector": "",
                    "status": false,
                    "value": ""
                },
                "nodeType": 0
            },
            "0": {
                "invocation": {
                    "address": "0xaeb960ed44c8a4ce848c50ef451f472a503456b2",
                    "callData": "0x000000000000000000000000f6c668fbf3c7c07bb098670b6c629e934737beb600000000000000000000000000000000000000000000000000000000000000600000000000000000000000000000000000000000000000000000000000000000000000000000000000000000000000000000000000000000000000000000004142a6b1c7f0af0baabbd2034e6045258b4e6da6a3fcb178eb0ff592214894977079ca567371a4bd19417f5e1da122d87922ba6355d802e4ddf232dfb42633138d1b00000000000000000000000000000000000000000000000000000000000000",
                    "decodedMethod": null,
                    "errorInfo": "",
                    "fromAddress": "0x096d071b3a838121237fc9b771353d6cdec3c798",
                    "gasUsed": 95394,
                    "id": 0,
                    "methodDecoded": false,
                    "operation": "CALL",
                    "output": "",
                    "revert": false,
                    "revertMessage": "",
                    "selector": "0x7901451c",
                    "status": true,
                    "value": "0.006"
                },
                "nodeType": 0
            },
            "1": {
                "invocation": {
                    "address": "0xdb404188f3428f80fcac37a2ee7a3391f5d28c48",
                    "callData": "0x000000000000000000000000000000000000000000000000000000000000006000000000000000000000000000000000000000000000000000000000000000e0000000000000000000000000f6c668fbf3c7c07bb098670b6c629e934737beb600000000000000000000000000000000000000000000000000000000000000600000000000000000000000000000000000000000000000000000000000000000000000000000000000000000096d071b3a838121237fc9b771353d6cdec3c798000000000000000000000000aeb960ed44c8a4ce848c50ef451f472a503456b2000000000000000000000000000000000000000000000000000000000000004142a6b1c7f0af0baabbd2034e6045258b4e6da6a3fcb178eb0ff592214894977079ca567371a4bd19417f5e1da122d87922ba6355d802e4ddf232dfb42633138d1b00000000000000000000000000000000000000000000000000000000000000",
                    "decodedMethod": null,
                    "errorInfo": "",
                    "fromAddress": "0xaeb960ed44c8a4ce848c50ef451f472a503456b2",
                    "gasUsed": 7584,
                    "id": 1,
                    "methodDecoded": false,
                    "operation": "DELEGATECALL",
                    "output": "",
                    "revert": false,
                    "revertMessage": "",
                    "selector": "0x9a5f14b2",
                    "status": true,
                    "value": "0.006"
                },
                "nodeType": 0
            },
            "2": {
                "invocation": {
                    "address": "0x0000000000000000000000000000000000000001",
                    "callData": "0xd2b80877a8af0f8c8b1dd6ce8b740a48f3a22d75ec9ed64f07cf6825000000000000000000000000000000000000000000000000000000000000001b42a6b1c7f0af0baabbd2034e6045258b4e6da6a3fcb178eb0ff592214894977079ca567371a4bd19417f5e1da122d87922ba6355d802e4ddf232dfb42633138d",
                    "decodedMethod": {
                        "callParams": [
                            {
                                "name": "hash",
                                "type": "bytes32",
                                "value": "0xe479aef4d2b80877a8af0f8c8b1dd6ce8b740a48f3a22d75ec9ed64f07cf6825"
                            },
                            {
                                "name": "v",
                                "type": "uint256",
                                "value": "27"
                            },
                            {
                                "name": "r",
                                "type": "bytes32",
                                "value": "0x42a6b1c7f0af0baabbd2034e6045258b4e6da6a3fcb178eb0ff5922148949770"
                            },
                            {
                                "name": "s",
                                "type": "bytes32",
                                "value": "0x79ca567371a4bd19417f5e1da122d87922ba6355d802e4ddf232dfb42633138d"
                            }
                        ],
                        "constructorArguments": "",
                        "name": "ecrecover",
                        "returnParams": [
                            {
                                "name": "",
                                "type": "address",
                                "value": "0xf6c668fbf3c7c07bb098670b6c629e934737beb6"
                            }
                        ],
                        "signature": "ecrecover(bytes32,uint256,bytes32,bytes32)"
                    },
                    "errorInfo": "",
                    "fromAddress": "0xaeb960ed44c8a4ce848c50ef451f472a503456b2",
                    "gasUsed": 3000,
                    "id": 2,
                    "methodDecoded": true,
                    "operation": "STATICCALL",
                    "output": "0x000000000000000000000000f6c668fbf3c7c07bb098670b6c629e934737beb6",
                    "revert": false,
                    "revertMessage": "",
                    "selector": "0xe479aef4",
                    "status": true,
                    "value": "0"
                },
                "nodeType": 0
            },
            "3": {
                "event": {
                    "contract": "0xaeb960ed44c8a4ce848c50ef451f472a503456b2",
                    "decodedLog": null,
                    "id": 3,
                    "logData": "0x0000000000000000000000000000000000000000000000000000000000000000",
                    "logDecoded": false,
                    "operation": "EVENT",
                    "revert": false,
                    "status": true,
                    "topics": [
                        "0x26a2537c93fc595a8d3ee575e493c0532b9ccfa8b697cdb891247d17f42f57bd",
                        "0x000000000000000000000000f6c668fbf3c7c07bb098670b6c629e934737beb6",
                        "0x000000000000000000000000096d071b3a838121237fc9b771353d6cdec3c798"
                    ]
                },
                "nodeType": 1
            },
            "4": {
                "event": {
                    "contract": "0xaeb960ed44c8a4ce848c50ef451f472a503456b2",
                    "decodedLog": null,
                    "id": 4,
                    "logData": "0x000000000000000000000000000000000000000000000000001550f7dca70000",
                    "logDecoded": false,
                    "operation": "EVENT",
                    "revert": false,
                    "status": true,
                    "topics": [
                        "0x37ee5428d74f1c45c57e5cb3ad1d96821cc0253dee9a72dbb0d292fdacdd5b9c",
                        "0x000000000000000000000000f6c668fbf3c7c07bb098670b6c629e934737beb6",
                        "0x000000000000000000000000096d071b3a838121237fc9b771353d6cdec3c798",
                        "0x000000000000000000000000096d071b3a838121237fc9b771353d6cdec3c798"
                    ]
                },
                "nodeType": 1
            },
            "5": {
                "event": {
                    "contract": "0xaeb960ed44c8a4ce848c50ef451f472a503456b2",
                    "decodedLog": null,
                    "id": 5,
                    "logData": "0x000000000000000000000000000000000000000000000000001550f7dca70000",
                    "logDecoded": false,
                    "operation": "EVENT",
                    "revert": false,
                    "status": true,
                    "topics": [
                        "0xd03c77ba06fdea91615ddd289bcef4a278bcbf729ba06c5d12b6fd9d5a0998d2",
                        "0x000000000000000000000000f6c668fbf3c7c07bb098670b6c629e934737beb6",
                        "0x000000000000000000000000096d071b3a838121237fc9b771353d6cdec3c798"
                    ]
                },
                "nodeType": 1
            }
        },
        "gasFlame": [
            {
                "children": [
                    {
                        "children": [
                            {
                                "children": [],
                                "depth": 0,
                                "name": "Initial Gas",
                                "value": 23004
                            },
                            {
                                "children": [
                                    {
                                        "children": [
                                            {
                                                "children": [],
                                                "depth": 2,
                                                "name": "ecrecover",
                                                "value": 3000
                                            }
                                        ],
                                        "depth": 1,
                                        "name": "0x9a5f14b2",
                                        "value": 7584
                                    }
                                ],
                                "depth": 0,
                                "name": "Executed Gas",
                                "value": 72390
                            }
                        ],
                        "depth": -1,
                        "name": "Actual Gas Used",
                        "value": 95394
                    },
                    {
                        "children": [],
                        "depth": -1,
                        "name": "Refunded Gas",
                        "value": 0
                    }
                ],
                "depth": -2,
                "name": "Total Gas",
                "value": 95394
            }
        ],
        "isConfirmed": true,
        "mainTrace": [
            {
                "children": [
                    {
                        "children": [
                            {
                                "children": [
                                    {
                                        "children": [],
                                        "depth": 2,
                                        "id": 2,
                                        "order": 2
                                    }
                                ],
                                "depth": 1,
                                "id": 1,
                                "order": 1
                            },
                            {
                                "children": [],
                                "depth": 1,
                                "id": 3,
                                "order": 3
                            },
                            {
                                "children": [],
                                "depth": 1,
                                "id": 4,
                                "order": 4
                            },
                            {
                                "children": [],
                                "depth": 1,
                                "id": 5,
                                "order": 5
                            }
                        ],
                        "depth": 0,
                        "id": 0,
                        "order": 0
                    }
                ],
                "depth": -1,
                "id": -1,
                "order": -1
            }
        ],
        "mainTraceNodeCount": 6,
        "parentIdMap": {
            "0": -1,
            "1": 0,
            "2": 1,
            "3": 0,
            "4": 0,
            "5": 0
        },
        "tidyTrace": [
            {
                "children": [
                    {
                        "children": [
                            {
                                "children": [],
                                "depth": 1,
                                "id": 1,
                                "order": 1
                            },
                            {
                                "children": [],
                                "depth": 1,
                                "id": 3,
                                "order": 3
                            },
                            {
                                "children": [],
                                "depth": 1,
                                "id": 4,
                                "order": 4
                            },
                            {
                                "children": [],
                                "depth": 1,
                                "id": 5,
                                "order": 5
                            }
                        ],
                        "depth": 0,
                        "id": 0,
                        "order": 0
                    }
                ],
                "depth": -1,
                "id": -1,
                "order": -1
            }
        ],
        "tidyTraceNodeCount": 5
    },
    "state_change": {
        "stateChanges": [
            {
                "address": "0xaeb960ed44c8a4ce848c50ef451f472a503456b2",
                "erc": "",
                "slots": [
                    {
                        "current": "0x000000000000000000000000096d071b3a838121237fc9b771353d6cdec3c798",
                        "key": "0x51d3c7a4500ddbf0e26937b915dfbbb402a40a2645233500c0f4ba94a2aff2d6",
                        "prev": "0x0000000000000000000000000000000000000000000000000000000000000000"
                    },
                    {
                        "current": "0x000000000000000000000000000000000000000000000000001550f7dca70000",
                        "key": "0x9203387d1b670ad08e0c289c67e07fb4fa7a83a37ad370013aa82981a2f2f44c",
                        "prev": "0x0000000000000000000000000000000000000000000000000000000000000000"
                    }
                ],
                "storageVariables": []
            }
        ]
    }
}