{
    "balance_change": {
        "balanceChanges": [
            {
                "account": "0x4d9ff50ef4da947364bb9650892b2554e7be5e2b",
                "assets": [
                    {
                        "address": "0xeeeeeeeeeeeeeeeeeeeeeeeeeeeeeeeeeeeeeeee",
                        "amount": "0.028",
                        "iconUrl": "https://assets.blocksec.com/image/1663669189317-3.png",
                        "isERC1155": false,
                        "isERC721": false,
                        "sign": false,
                        "value": "33.98682148"
                    }
                ]
            },
            {
                "account": "0xf1555aa5edb6656a4222c301046f403e714d182f",
                "assets": [
                    {
                        "address": "0xeeeeeeeeeeeeeeeeeeeeeeeeeeeeeeeeeeeeeeee",
                        "amount": "0.028",
                        "iconUrl": "https://assets.blocksec.com/image/1663669189317-3.png",
                        "isERC1155": false,
                        "isERC721": false,
                        "sign": true,
                        "value": "33.98682148"
                    }
                ]
            }
        ]
    },
    "profile": {
        "basic_info": {
            "baseFee": "",
            "blockNumber": 11666404,
            "callData": "0x1a695230000000000000000000000000f1555aa5edb6656a4222c301046f403e714d182f",
            "debugEnable": true,
            "errorInfo": "",
            "eventCount": 0,
            "feeRecipient": "0x5a0b54d5dc17e0aadc383d2db43b0a0d3e029c4c",
            "formatValue": "0.028",
            "gasLimit": 112672,
            "gasPrice": "80",
            "gasUsed": 54079,
            "intTxnCount": 1,
            "internalRevert": false,
            "internalRevertMessage": "",
            "isContractCreation": false,
            "isFlashloan": false,
            "maxFee": "",
            "nonce": 295748,
            "overwritedBlockNumber": -1,
            "priorityFee": "",
            "receiver": "0x0b95993a39a363d99280ac950f5e4536ab5c5566",
            "revertMessage": "",
            "sender": "0x4d9ff50ef4da947364bb9650892b2554e7be5e2b",
            "simulationEnable": true,
            "sourceTxnHash": "0xebc2265ef0700d1ae17ef619b24267226e2d1c54cf721ca49242a0916677a548",
            "status": true,
            "timestamp": "2021-01-16T13:02:07Z",
            "transactionFee": "0.00432632",
            "txnHash": "0xebc2265ef0700d1ae17ef619b24267226e2d1c54cf721ca49242a0916677a548",
            "txnIndex": 94,
            "type": 0,
            "value": "28000000000000000"
        },
        "fund_flow": [
            {
                "amount": "0.028",
                "from": "0x4d9ff50ef4da947364bb9650892b2554e7be5e2b",
                "id": 1,
                "isERC1155": false,
                "isERC721": false,
                "isReverted": false,
                "order": 1,
                "to": "0x0b95993a39a363d99280ac950f5e4536ab5c5566",
                "token": "0xeeeeeeeeeeeeeeeeeeeeeeeeeeeeeeeeeeeeeeee"
            },
            {
                "amount": "0.028",
                "from": "0x0b95993a39a363d99280ac950f5e4536ab5c5566",
                "id": 2,
                "isERC1155": false,
                "isERC721": false,
                "isReverted": false,
                "order": 2,
                "to": "0xf1555aa5edb6656a4222c301046f403e714d182f",
                "token": "0xeeeeeeeeeeeeeeeeeeeeeeeeeeeeeeeeeeeeeeee"
            }
        ],
        "token_infos": [
            {
                "address": "0xc02aaa39b223fe8d0a0e5c4f27ead9083c756cc2",
                "decimals": 18
            },
            {
                "address": "0xeeeeeeeeeeeeeeeeeeeeeeeeeeeeeeeeeeeeeeee",
                "decimals": 18
            }
        ]
    },
    "address_label": {
        "labels": [
            {
                "address": "0x0000000000000000000000000000000000000003",
                "label": "Precompiled"
            },
            {
                "address": "0x0000000000000000000000000000000000000004",
                "label": "Precompiled"
            },
            {
                "address": "0xeeeeeeeeeeeeeeeeeeeeeeeeeeeeeeeeeeeeeeee",
                "label": "Ether"
            },
            {
                "address": "0xf1555aa5edb6656a4222c301046f403e714d182f",
                "label": "BINANCE"
            },
            {
                "address": "0x0b95993a39a363d99280ac950f5e4536ab5c5566",
                "label": "Binance: Contract"
            },
            {
                "address": "0x4d9ff50ef4da947364bb9650892b2554e7be5e2b",
                "label": "Binance 19"
            },
            {
                "address": "0x0000000000000000000000000000000000000001",
                "label": "Precompiled"
            },
            {
                "address": "0x0000000000000000000000000000000000000002",
                "label": "Precompiled"
            }
        ]
    },
    "trace": {
        "accountLabels": null,
        "dataMap": {
            "-1": {
                "invocation": {
                    "address": "0x4d9ff50ef4da947364bb9650892b2554e7be5e2b",
                    "callData": "",
                    "decodedMethod": null,
                    "errorInfo": "",
                    "fromAddress": "",
                    "gasUsed": 0,
                    "id": -1,
                    "methodDecoded": false,
                    "operation": "",
                    "output": "",
                    "revert": false,
                    "revertMessage": "",
                    "selector": "",
                    "status": false,
                    "value": ""
                },
                "nodeType": 0
            },
            "0": {
                "invocation": {
                    "address": "0x0b95993a39a363d99280ac950f5e4536ab5c5566",
                    "callData": "0x000000000000000000000000f1555aa5edb6656a4222c301046f403e714d182f",
                    "decodedMethod": {
                        "callParams": [
                            {
                                "name": "wallet",
                                "type": "address",
                                "value": "0xf1555aa5edb6656a4222c301046f403e714d182f"
                            }
                        ],
                        "constructorArguments": "",
                        "name": "transfer",
                        "returnParams": [],
                        "signature": "transfer(address)"
                    },
                    "errorInfo": "",
                    "fromAddress": "0x4d9ff50ef4da947364bb9650892b2554e7be5e2b",
                    "gasUsed": 54079,
                    "id": 0,
                    "methodDecoded": true,
                    "operation": "CALL",
                    "output": "",
                    "revert": false,
                    "revertMessage": "",
                    "selector": "0x1a695230",
                    "status": true,
                    "value": "0.028"
                },
                "nodeType": 0
            },
            "1": {
                "invocation": {
                    "address": "0xf1555aa5edb6656a4222c301046f403e714d182f",
                    "callData": "0x",
                    "decodedMethod": null,
                    "errorInfo": "",
                    "fromAddress": "0x0b95993a39a363d99280ac950f5e4536ab5c5566",
                    "gasUsed": 0,
                    "id": 1,
                    "methodDecoded": false,
                    "operation": "CALL",
                    "output": "",
                    "revert": false,
                    "revertMessage": "",
                    "selector": "fallback",
                    "status": true,
                    "value": "0.028"
                },
                "nodeType": 0
            }
        },
        "gasFlame": [
            {
                "children": [
                    {
                        "children": [
                            {
                                "children": [],
                                "depth": 0,
                                "name": "Initial Gas",
                                "value": 21432
                            },
                            {
                                "children": [
                                    {
                                        "children": [],
                                        "depth": 1,
                                        "name": "fallback",
                                        "value": 0
                                    }
                                ],
                                "depth": 0,
                                "name": "Executed Gas",
                                "value": 32647
                            }
                        ],
                        "depth": -1,
                        "name": "Actual Gas Used",
                        "value": 54079
                    },
                    {
                        "children": [],
                        "depth": -1,
                        "name": "Refunded Gas",
                        "value": 0
                    }
                ],
                "depth": -2,
                "name": "Total Gas",
                "value": 54079
            }
        ],
        "isConfirmed": true,
        "mainTrace": [
            {
                "children": [
                    {
                        "children": [
                            {
                                "children": [],
                                "depth": 1,
                                "id": 1,
                                "order": 1
                            }
                        ],
                        "depth": 0,
                        "id": 0,
                        "order": 0
                    }
                ],
                "depth": -1,
                "id": -1,
                "order": -1
            }
        ],
        "mainTraceNodeCount": 2,
        "parentIdMap": {
            "0": -1,
            "1": 0
        },
        "tidyTrace": [
            {
                "children": [
                    {
                        "children": [
                            {
                                "children": [],
                                "depth": 1,
                                "id": 1,
                                "order": 1
                            }
                        ],
                        "depth": 0,
                        "id": 0,
                        "order": 0
                    }
                ],
                "depth": -1,
                "id": -1,
                "order": -1
            }
        ],
        "tidyTraceNodeCount": 2
    },
    "state_change": {
        "stateChanges": []
    }
}