{
    "balance_change": {
        "balanceChanges": [
            {
                "account": "0xef3f3b0ce1594bab1aabb86f07a32228ef2be49e",
                "assets": [
                    {
                        "address": "0x6c79aa4002398f18f484696c7679ea7856af8ab1",
                        "amount": "993,510,000",
                        "iconUrl": "",
                        "isERC1155": false,
                        "isERC721": false,
                        "sign": false,
                        "value": ""
                    }
                ]
            },
            {
                "account": "0x60175628d3529278d0380990d54e6b4912d1646c",
                "assets": [
                    {
                        "address": "0x6c79aa4002398f18f484696c7679ea7856af8ab1",
                        "amount": "993,510,000",
                        "iconUrl": "",
                        "isERC1155": false,
                        "isERC721": false,
                        "sign": true,
                        "value": ""
                    }
                ]
            }
        ]
    },
    "profile": {
        "basic_info": {
            "baseFee": "",
            "blockNumber": 5668984,
            "callData": "0x72262699000000000000000000000000ef3f3b0ce1594bab1aabb86f07a32228ef2be49e000000000000000000000000000000000000000000000000000000000000000000000000000000000000000000000000000000000000000000000000000000e0000000000000000000000000000000000000000000000000000000238ea3ead6000000000000000000000000000000000000000000000000000000000000001b865a578fb886083d26969d94a7be093ebe66d0e16553256758e9a7f9e502353153b709f43156e803b08b7acd15a0e5b852b0e381bd3615745064a370c59c72a100000000000000000000000000000000000000000000000000000000000000e469a5e9020000000000000000000000006c79aa4002398f18f484696c7679ea7856af8ab1000000000000000000000000000000000000000000000000000000000000000000000000000000000000000000000000000000000000000000000000000000600000000000000000000000000000000000000000000000000000000000000044a9059cbb00000000000000000000000060175628d3529278d0380990d54e6b4912d1646c000000000000000000000000000000000000000000000000000000003b37c2700000000000000000000000000000000000000000000000000000000000000000000000000000000000000000000000000000000000000000",
            "debugEnable": true,
            "errorInfo": "",
            "eventCount": 3,
            "feeRecipient": "0x5a0b54d5dc17e0aadc383d2db43b0a0d3e029c4c",
            "formatValue": "0",
            "gasLimit": 1000000,
            "gasPrice": "10.000000001",
            "gasUsed": 150311,
            "intTxnCount": 17,
            "internalRevert": true,
            "internalRevertMessage": "",
            "isContractCreation": false,
            "isFlashloan": false,
            "maxFee": "",
            "nonce": 630,
            "overwritedBlockNumber": -1,
            "priorityFee": "",
            "receiver": "0xe0638cf008fe88420b2665996c44f3dca6dfb069",
            "revertMessage": "",
            "sender": "0xe1eab7c85686d29061658689d13ea5ecef8ccf4f",
            "simulationEnable": true,
            "sourceTxnHash": "0xeb8b0776433f868c3e15592b3d4051284353c3b192797aa9a3de1b0fc9fbe5cd",
            "status": true,
            "timestamp": "2018-05-24T13:52:06Z",
            "transactionFee": "0.001503110000150311",
            "txnHash": "0xeb8b0776433f868c3e15592b3d4051284353c3b192797aa9a3de1b0fc9fbe5cd",
            "txnIndex": 23,
            "type": 0,
            "value": "0"
        },
        "fund_flow": [
            {
                "amount": "993,510,000",
                "from": "0xef3f3b0ce1594bab1aabb86f07a32228ef2be49e",
                "id": 1,
                "isERC1155": false,
                "isERC721": false,
                "isReverted": false,
                "order": 1,
                "to": "0x60175628d3529278d0380990d54e6b4912d1646c",
                "token": "0x6c79aa4002398f18f484696c7679ea7856af8ab1"
            }
        ],
        "token_infos": [
            {
                "address": "0xc02aaa39b223fe8d0a0e5c4f27ead9083c756cc2",
                "decimals": 18
            },
            {
                "address": "0xeeeeeeeeeeeeeeeeeeeeeeeeeeeeeeeeeeeeeeee",
                "decimals": 18
            }
        ]
    },
    "address_label": {
        "labels": [
            {
                "address": "0x0000000000000000000000000000000000000002",
                "label": "Precompiled"
            },
            {
                "address": "0x0000000000000000000000000000000000000003",
                "label": "Precompiled"
            },
            {
                "address": "0x4e8703a59fec01a97d4d2d76271e4f086dbb52fc",
                "label": "MultiAssetEmitter"
            },
            {
                "address": "0x697ed9a0ef0d1481ecb36fc123e85da40f1bc8d5",
                "label": "EToken2"
            },
            {
                "address": "0x6c79aa4002398f18f484696c7679ea7856af8ab1",
                "label": "TokenForTelevision"
            },
            {
                "address": "0xc41473fa99a7bf06388cfbe22cf8ba28d662a5a4",
                "label": "Asset"
            },
            {
                "address": "0x0000000000000000000000000000000000000001",
                "label": "Precompiled"
            },
            {
                "address": "0xeeeeeeeeeeeeeeeeeeeeeeeeeeeeeeeeeeeeeeee",
                "label": "Ether"
            },
            {
                "address": "0x0000000000000000000000000000000000000004",
                "label": "Precompiled"
            }
        ]
    },
    "trace": {
        "accountLabels": null,
        "dataMap": {
            "-1": {
                "invocation": {
                    "address": "0xe1eab7c85686d29061658689d13ea5ecef8ccf4f",
                    "callData": "",
                    "decodedMethod": null,
                    "errorInfo": "",
                    "fromAddress": "",
                    "gasUsed": 0,
                    "id": -1,
                    "methodDecoded": false,
                    "operation": "",
                    "output": "",
                    "revert": false,
                    "revertMessage": "",
                    "selector": "",
                    "status": false,
                    "value": ""
                },
                "nodeType": 0
            },
            "0": {
                "invocation": {
                    "address": "0xe0638cf008fe88420b2665996c44f3dca6dfb069",
                    "callData": "0x000000000000000000000000ef3f3b0ce1594bab1aabb86f07a32228ef2be49e000000000000000000000000000000000000000000000000000000000000000000000000000000000000000000000000000000000000000000000000000000e0000000000000000000000000000000000000000000000000000000238ea3ead6000000000000000000000000000000000000000000000000000000000000001b865a578fb886083d26969d94a7be093ebe66d0e16553256758e9a7f9e502353153b709f43156e803b08b7acd15a0e5b852b0e381bd3615745064a370c59c72a100000000000000000000000000000000000000000000000000000000000000e469a5e9020000000000000000000000006c79aa4002398f18f484696c7679ea7856af8ab1000000000000000000000000000000000000000000000000000000000000000000000000000000000000000000000000000000000000000000000000000000600000000000000000000000000000000000000000000000000000000000000044a9059cbb00000000000000000000000060175628d3529278d0380990d54e6b4912d1646c000000000000000000000000000000000000000000000000000000003b37c2700000000000000000000000000000000000000000000000000000000000000000000000000000000000000000000000000000000000000000",
                    "decodedMethod": null,
                    "errorInfo": "",
                    "fromAddress": "0xe1eab7c85686d29061658689d13ea5ecef8ccf4f",
                    "gasUsed": 150311,
                    "id": 0,
                    "methodDecoded": false,
                    "operation": "CALL",
                    "output": "0x0000000000000000000000000000000000000000000000000000000000000001",
                    "revert": false,
                    "revertMessage": "",
                    "selector": "0x72262699",
                    "status": true,
                    "value": "0"
                },
                "nodeType": 0
            },
            "1": {
                "invocation": {
                    "address": "0xc3b2ae46792547a96b9f84405e36d0e07edcd05c",
                    "callData": "0x000000000000000000000000ef3f3b0ce1594bab1aabb86f07a32228ef2be49e000000000000000000000000000000000000000000000000000000000000000000000000000000000000000000000000000000000000000000000000000000e0000000000000000000000000000000000000000000000000000000238ea3ead6000000000000000000000000000000000000000000000000000000000000001b865a578fb886083d26969d94a7be093ebe66d0e16553256758e9a7f9e502353153b709f43156e803b08b7acd15a0e5b852b0e381bd3615745064a370c59c72a100000000000000000000000000000000000000000000000000000000000000e469a5e9020000000000000000000000006c79aa4002398f18f484696c7679ea7856af8ab1000000000000000000000000000000000000000000000000000000000000000000000000000000000000000000000000000000000000000000000000000000600000000000000000000000000000000000000000000000000000000000000044a9059cbb00000000000000000000000060175628d3529278d0380990d54e6b4912d1646c000000000000000000000000000000000000000000000000000000003b37c2700000000000000000000000000000000000000000000000000000000000000000000000000000000000000000000000000000000000000000",
                    "decodedMethod": null,
                    "errorInfo": "",
                    "fromAddress": "0xe0638cf008fe88420b2665996c44f3dca6dfb069",
                    "gasUsed": 161702,
                    "id": 1,
                    "methodDecoded": false,
                    "operation": "DELEGATECALL",
                    "output": "0x0000000000000000000000000000000000000000000000000000000000000001",
                    "revert": false,
                    "revertMessage": "",
                    "selector": "0x72262699",
                    "status": true,
                    "value": "0"
                },
                "nodeType": 0
            },
            "10": {
                "invocation": {
                    "address": "0x6c79aa4002398f18f484696c7679ea7856af8ab1",
                    "callData": "0x00000000000000000000000060175628d3529278d0380990d54e6b4912d1646c000000000000000000000000000000000000000000000000000000003b37c27000000000000000000000000000000000000000000000000000000000",
                    "decodedMethod": {
                        "callParams": [
                            {
                                "name": "_to",
                                "type": "address",
                                "value": "0x60175628d3529278d0380990d54e6b4912d1646c"
                            },
                            {
                                "decimalAvailable": true,
                                "name": "_value",
                                "type": "uint256",
                                "value": "993,510,000"
                            }
                        ],
                        "constructorArguments": "",
                        "name": "transfer",
                        "returnParams": [
                            {
                                "name": "",
                                "type": "bool",
                                "value": true
                            }
                        ],
                        "signature": "transfer(address,uint256)"
                    },
                    "errorInfo": "",
                    "fromAddress": "0xef3f3b0ce1594bab1aabb86f07a32228ef2be49e",
                    "gasUsed": 40878,
                    "id": 10,
                    "methodDecoded": true,
                    "operation": "CALL",
                    "output": "0x0000000000000000000000000000000000000000000000000000000000000001",
                    "revert": false,
                    "revertMessage": "",
                    "selector": "0xa9059cbb",
                    "status": true,
                    "value": "0"
                },
                "nodeType": 0
            },
            "11": {
                "invocation": {
                    "address": "0xc41473fa99a7bf06388cfbe22cf8ba28d662a5a4",
                    "callData": "0x00000000000000000000000060175628d3529278d0380990d54e6b4912d1646c000000000000000000000000000000000000000000000000000000003b37c2700000000000000000000000000000000000000000000000000000000000000080000000000000000000000000ef3f3b0ce1594bab1aabb86f07a32228ef2be49e0000000000000000000000000000000000000000000000000000000000000000",
                    "decodedMethod": {
                        "callParams": [
                            {
                                "name": "_to",
                                "type": "address",
                                "value": "0x60175628d3529278d0380990d54e6b4912d1646c"
                            },
                            {
                                "name": "_value",
                                "type": "uint256",
                                "value": "993,510,000"
                            },
                            {
                                "name": "_reference",
                                "type": "string",
                                "value": ""
                            },
                            {
                                "name": "_sender",
                                "type": "address",
                                "value": "0xef3f3b0ce1594bab1aabb86f07a32228ef2be49e"
                            }
                        ],
                        "constructorArguments": "",
                        "name": "_performTransferWithReference",
                        "returnParams": [
                            {
                                "name": "",
                                "type": "bool",
                                "value": true
                            }
                        ],
                        "signature": "_performTransferWithReference(address,uint256,string,address)"
                    },
                    "errorInfo": "",
                    "fromAddress": "0x6c79aa4002398f18f484696c7679ea7856af8ab1",
                    "gasUsed": 37473,
                    "id": 11,
                    "methodDecoded": true,
                    "operation": "CALL",
                    "output": "0x0000000000000000000000000000000000000000000000000000000000000001",
                    "revert": false,
                    "revertMessage": "",
                    "selector": "0x1962df71",
                    "status": true,
                    "value": "0"
                },
                "nodeType": 0
            },
            "12": {
                "invocation": {
                    "address": "0x6c79aa4002398f18f484696c7679ea7856af8ab1",
                    "callData": "0x000000000000000000000000ef3f3b0ce1594bab1aabb86f07a32228ef2be49e00000000000000000000000060175628d3529278d0380990d54e6b4912d1646c000000000000000000000000000000000000000000000000000000003b37c27000000000000000000000000000000000000000000000000000000000000000a0000000000000000000000000ef3f3b0ce1594bab1aabb86f07a32228ef2be49e0000000000000000000000000000000000000000000000000000000000000000",
                    "decodedMethod": {
                        "callParams": [
                            {
                                "name": "_from",
                                "type": "address",
                                "value": "0xef3f3b0ce1594bab1aabb86f07a32228ef2be49e"
                            },
                            {
                                "name": "_to",
                                "type": "address",
                                "value": "0x60175628d3529278d0380990d54e6b4912d1646c"
                            },
                            {
                                "name": "_value",
                                "type": "uint256",
                                "value": "993,510,000"
                            },
                            {
                                "name": "_reference",
                                "type": "string",
                                "value": ""
                            },
                            {
                                "name": "_sender",
                                "type": "address",
                                "value": "0xef3f3b0ce1594bab1aabb86f07a32228ef2be49e"
                            }
                        ],
                        "constructorArguments": "",
                        "name": "_forwardTransferFromWithReference",
                        "returnParams": [
                            {
                                "name": "",
                                "type": "bool",
                                "value": true
                            }
                        ],
                        "signature": "_forwardTransferFromWithReference(address,address,uint256,string,address)"
                    },
                    "errorInfo": "",
                    "fromAddress": "0xc41473fa99a7bf06388cfbe22cf8ba28d662a5a4",
                    "gasUsed": 34525,
                    "id": 12,
                    "methodDecoded": true,
                    "operation": "CALL",
                    "output": "0x0000000000000000000000000000000000000000000000000000000000000001",
                    "revert": false,
                    "revertMessage": "",
                    "selector": "0x14cba002",
                    "status": true,
                    "value": "0"
                },
                "nodeType": 0
            },
            "13": {
                "invocation": {
                    "address": "0x697ed9a0ef0d1481ecb36fc123e85da40f1bc8d5",
                    "callData": "0x000000000000000000000000ef3f3b0ce1594bab1aabb86f07a32228ef2be49e00000000000000000000000060175628d3529278d0380990d54e6b4912d1646c000000000000000000000000000000000000000000000000000000003b37c270554254544553540000000000000000000000000000000000000000000000000000000000000000000000000000000000000000000000000000000000000000c0000000000000000000000000ef3f3b0ce1594bab1aabb86f07a32228ef2be49e0000000000000000000000000000000000000000000000000000000000000000",
                    "decodedMethod": {
                        "callParams": [
                            {
                                "name": "_from",
                                "type": "address",
                                "value": "0xef3f3b0ce1594bab1aabb86f07a32228ef2be49e"
                            },
                            {
                                "name": "_to",
                                "type": "address",
                                "value": "0x60175628d3529278d0380990d54e6b4912d1646c"
                            },
                            {
                                "name": "_value",
                                "type": "uint256",
                                "value": "993,510,000"
                            },
                            {
                                "name": "_symbol",
                                "type": "bytes32",
                                "value": "0x5542545445535400000000000000000000000000000000000000000000000000"
                            },
                            {
                                "name": "_reference",
                                "type": "string",
                                "value": ""
                            },
                            {
                                "name": "_sender",
                                "type": "address",
                                "value": "0xef3f3b0ce1594bab1aabb86f07a32228ef2be49e"
                            }
                        ],
                        "constructorArguments": "",
                        "name": "proxyTransferFromWithReference",
                        "returnParams": [
                            {
                                "name": "",
                                "type": "bool",
                                "value": true
                            }
                        ],
                        "signature": "proxyTransferFromWithReference(address,address,uint256,bytes32,string,address)"
                    },
                    "errorInfo": "",
                    "fromAddress": "0x6c79aa4002398f18f484696c7679ea7856af8ab1",
                    "gasUsed": 31063,
                    "id": 13,
                    "methodDecoded": true,
                    "operation": "CALL",
                    "output": "0x0000000000000000000000000000000000000000000000000000000000000001",
                    "revert": false,
                    "revertMessage": "",
                    "selector": "0x161ff662",
                    "status": true,
                    "value": "0"
                },
                "nodeType": 0
            },
            "14": {
                "invocation": {
                    "address": "0x414fbf684a6426cf6012623f51170a5a86161d52",
                    "callData": "0x000000000000000000000000ef3f3b0ce1594bab1aabb86f07a32228ef2be49e00000000000000000000000060175628d3529278d0380990d54e6b4912d1646c5542545445535400000000000000000000000000000000000000000000000000000000000000000000000000000000000000000000000000000000003b37c27000000000000000000000000000000000000000000000000000000000000000a00000000000000000000000000000000000000000000000000000000000000000",
                    "decodedMethod": {
                        "callParams": [
                            {
                                "name": "_from",
                                "type": "address",
                                "value": "0xef3f3b0ce1594bab1aabb86f07a32228ef2be49e"
                            },
                            {
                                "name": "_to",
                                "type": "address",
                                "value": "0x60175628d3529278d0380990d54e6b4912d1646c"
                            },
                            {
                                "name": "_symbol",
                                "type": "bytes32",
                                "value": "0x5542545445535400000000000000000000000000000000000000000000000000"
                            },
                            {
                                "name": "_value",
                                "type": "uint256",
                                "value": "993,510,000"
                            },
                            {
                                "name": "_reference",
                                "type": "string",
                                "value": ""
                            }
                        ],
                        "constructorArguments": "",
                        "name": "emitTransfer",
                        "returnParams": [],
                        "signature": "emitTransfer(address,address,bytes32,uint256,string)"
                    },
                    "errorInfo": "",
                    "fromAddress": "0x697ed9a0ef0d1481ecb36fc123e85da40f1bc8d5",
                    "gasUsed": 8036,
                    "id": 14,
                    "methodDecoded": true,
                    "operation": "CALL",
                    "output": "",
                    "revert": false,
                    "revertMessage": "",
                    "selector": "0x515c1457",
                    "status": true,
                    "value": "0"
                },
                "nodeType": 0
            },
            "15": {
                "invocation": {
                    "address": "0x4e8703a59fec01a97d4d2d76271e4f086dbb52fc",
                    "callData": "0x000000000000000000000000ef3f3b0ce1594bab1aabb86f07a32228ef2be49e00000000000000000000000060175628d3529278d0380990d54e6b4912d1646c5542545445535400000000000000000000000000000000000000000000000000000000000000000000000000000000000000000000000000000000003b37c27000000000000000000000000000000000000000000000000000000000000000a00000000000000000000000000000000000000000000000000000000000000000",
                    "decodedMethod": {
                        "callParams": [
                            {
                                "name": "_from",
                                "type": "address",
                                "value": "0xef3f3b0ce1594bab1aabb86f07a32228ef2be49e"
                            },
                            {
                                "name": "_to",
                                "type": "address",
                                "value": "0x60175628d3529278d0380990d54e6b4912d1646c"
                            },
                            {
                                "name": "_symbol",
                                "type": "bytes32",
                                "value": "0x5542545445535400000000000000000000000000000000000000000000000000"
                            },
                            {
                                "name": "_value",
                                "type": "uint256",
                                "value": "993,510,000"
                            },
                            {
                                "name": "_reference",
                                "type": "string",
                                "value": ""
                            }
                        ],
                        "constructorArguments": "",
                        "name": "emitTransfer",
                        "returnParams": [],
                        "signature": "emitTransfer(address,address,bytes32,uint256,string)"
                    },
                    "errorInfo": "",
                    "fromAddress": "0x414fbf684a6426cf6012623f51170a5a86161d52",
                    "gasUsed": 5948,
                    "id": 15,
                    "methodDecoded": true,
                    "operation": "DELEGATECALL",
                    "output": "",
                    "revert": false,
                    "revertMessage": "",
                    "selector": "0x515c1457",
                    "status": true,
                    "value": "0"
                },
                "nodeType": 0
            },
            "16": {
                "invocation": {
                    "address": "0x414fbf684a6426cf6012623f51170a5a86161d52",
                    "callData": "0x000000000000000000000000697ed9a0ef0d1481ecb36fc123e85da40f1bc8d5",
                    "decodedMethod": {
                        "callParams": [
                            {
                                "name": "",
                                "type": "address",
                                "value": "0x697ed9a0ef0d1481ecb36fc123e85da40f1bc8d5"
                            }
                        ],
                        "constructorArguments": "",
                        "name": "versions",
                        "returnParams": [
                            {
                                "name": "",
                                "type": "uint8",
                                "value": "2"
                            }
                        ],
                        "signature": "versions(address)"
                    },
                    "errorInfo": "",
                    "fromAddress": "0x414fbf684a6426cf6012623f51170a5a86161d52",
                    "gasUsed": 559,
                    "id": 16,
                    "methodDecoded": true,
                    "operation": "CALL",
                    "output": "0x0000000000000000000000000000000000000000000000000000000000000002",
                    "revert": false,
                    "revertMessage": "",
                    "selector": "0x488725a0",
                    "status": true,
                    "value": "0"
                },
                "nodeType": 0
            },
            "17": {
                "invocation": {
                    "address": "0x0000000000000000000000000000000000000004",
                    "callData": "0x",
                    "decodedMethod": {
                        "callParams": [
                            {
                                "name": "data",
                                "type": "bytes",
                                "value": "0x"
                            }
                        ],
                        "constructorArguments": "",
                        "name": "dataCopy()",
                        "returnParams": [
                            {
                                "name": "data",
                                "type": "bytes",
                                "value": "0x"
                            }
                        ],
                        "signature": "dataCopy(bytes)"
                    },
                    "errorInfo": "out of gas",
                    "fromAddress": "0x414fbf684a6426cf6012623f51170a5a86161d52",
                    "gasUsed": 3,
                    "id": 17,
                    "methodDecoded": true,
                    "operation": "CALL",
                    "output": "",
                    "revert": true,
                    "revertMessage": "",
                    "selector": "0x",
                    "status": false,
                    "value": "0"
                },
                "nodeType": 0
            },
            "18": {
                "event": {
                    "contract": "0x414fbf684a6426cf6012623f51170a5a86161d52",
                    "decodedLog": {
                        "name": "Transfer",
                        "params": [
                            {
                                "name": "from",
                                "type": "address",
                                "value": "0xef3f3b0ce1594bab1aabb86f07a32228ef2be49e"
                            },
                            {
                                "name": "to",
                                "type": "address",
                                "value": "0x60175628d3529278d0380990d54e6b4912d1646c"
                            },
                            {
                                "name": "symbol",
                                "type": "bytes32",
                                "value": "0x5542545445535400000000000000000000000000000000000000000000000000"
                            },
                            {
                                "name": "value",
                                "type": "uint256",
                                "value": "993,510,000"
                            },
                            {
                                "name": "reference",
                                "type": "string",
                                "value": ""
                            },
                            {
                                "name": "version",
                                "type": "uint256",
                                "value": "2"
                            }
                        ],
                        "signature": "Transfer(address,address,bytes32,uint256,string,uint256)"
                    },
                    "id": 18,
                    "logData": "0x000000000000000000000000000000000000000000000000000000003b37c270000000000000000000000000000000000000000000000000000000000000006000000000000000000000000000000000000000000000000000000000000000020000000000000000000000000000000000000000000000000000000000000000",
                    "logDecoded": true,
                    "operation": "EVENT",
                    "revert": false,
                    "status": true,
                    "topics": [
                        "0x940c4b3549ef0aaff95807dc27f62d88ca15532d1bf535d7d63800f40395d16c",
                        "0x000000000000000000000000ef3f3b0ce1594bab1aabb86f07a32228ef2be49e",
                        "0x00000000000000000000000060175628d3529278d0380990d54e6b4912d1646c",
                        "0x5542545445535400000000000000000000000000000000000000000000000000"
                    ]
                },
                "nodeType": 1
            },
            "19": {
                "invocation": {
                    "address": "0x6c79aa4002398f18f484696c7679ea7856af8ab1",
                    "callData": "0x000000000000000000000000ef3f3b0ce1594bab1aabb86f07a32228ef2be49e00000000000000000000000060175628d3529278d0380990d54e6b4912d1646c000000000000000000000000000000000000000000000000000000003b37c270",
                    "decodedMethod": {
                        "callParams": [
                            {
                                "name": "_from",
                                "type": "address",
                                "value": "0xef3f3b0ce1594bab1aabb86f07a32228ef2be49e"
                            },
                            {
                                "name": "_to",
                                "type": "address",
                                "value": "0x60175628d3529278d0380990d54e6b4912d1646c"
                            },
                            {
                                "name": "_value",
                                "type": "uint256",
                                "value": "993,510,000"
                            }
                        ],
                        "constructorArguments": "",
                        "name": "emitTransfer",
                        "returnParams": [],
                        "signature": "emitTransfer(address,address,uint256)"
                    },
                    "errorInfo": "",
                    "fromAddress": "0x697ed9a0ef0d1481ecb36fc123e85da40f1bc8d5",
                    "gasUsed": 2427,
                    "id": 19,
                    "methodDecoded": true,
                    "operation": "CALL",
                    "output": "",
                    "revert": false,
                    "revertMessage": "",
                    "selector": "0x23de6651",
                    "status": true,
                    "value": "0"
                },
                "nodeType": 0
            },
            "2": {
                "invocation": {
                    "address": "0x0000000000000000000000000000000000000001",
                    "callData": "0x5fc87d1d9642ad651072b71c16e9fe568480a4e00ce1c21db40d69bb000000000000000000000000000000000000000000000000000000000000001b865a578fb886083d26969d94a7be093ebe66d0e16553256758e9a7f9e502353153b709f43156e803b08b7acd15a0e5b852b0e381bd3615745064a370c59c72a1",
                    "decodedMethod": {
                        "callParams": [
                            {
                                "name": "hash",
                                "type": "bytes32",
                                "value": "0x7cf193835fc87d1d9642ad651072b71c16e9fe568480a4e00ce1c21db40d69bb"
                            },
                            {
                                "name": "v",
                                "type": "uint256",
                                "value": "27"
                            },
                            {
                                "name": "r",
                                "type": "bytes32",
                                "value": "0x865a578fb886083d26969d94a7be093ebe66d0e16553256758e9a7f9e5023531"
                            },
                            {
                                "name": "s",
                                "type": "bytes32",
                                "value": "0x53b709f43156e803b08b7acd15a0e5b852b0e381bd3615745064a370c59c72a1"
                            }
                        ],
                        "constructorArguments": "",
                        "name": "ecrecover",
                        "returnParams": [
                            {
                                "name": "",
                                "type": "address",
                                "value": "0xa668f12841b037660f3c343c5182708ea472e6f5"
                            }
                        ],
                        "signature": "ecrecover(bytes32,uint256,bytes32,bytes32)"
                    },
                    "errorInfo": "",
                    "fromAddress": "0xe0638cf008fe88420b2665996c44f3dca6dfb069",
                    "gasUsed": 3000,
                    "id": 2,
                    "methodDecoded": true,
                    "operation": "CALL",
                    "output": "0x000000000000000000000000a668f12841b037660f3c343c5182708ea472e6f5",
                    "revert": false,
                    "revertMessage": "",
                    "selector": "0x7cf19383",
                    "status": true,
                    "value": "0"
                },
                "nodeType": 0
            },
            "20": {
                "event": {
                    "contract": "0x6c79aa4002398f18f484696c7679ea7856af8ab1",
                    "decodedLog": {
                        "name": "Transfer",
                        "params": [
                            {
                                "name": "from",
                                "type": "address",
                                "value": "0xef3f3b0ce1594bab1aabb86f07a32228ef2be49e"
                            },
                            {
                                "name": "to",
                                "type": "address",
                                "value": "0x60175628d3529278d0380990d54e6b4912d1646c"
                            },
                            {
                                "decimalAvailable": true,
                                "name": "value",
                                "type": "uint256",
                                "value": "993,510,000"
                            }
                        ],
                        "signature": "Transfer(address,address,uint256)"
                    },
                    "id": 20,
                    "logData": "0x000000000000000000000000000000000000000000000000000000003b37c270",
                    "logDecoded": true,
                    "operation": "EVENT",
                    "revert": false,
                    "status": true,
                    "topics": [
                        "0xddf252ad1be2c89b69c2b068fc378daa952ba7f163c4a11628f55a4df523b3ef",
                        "0x000000000000000000000000ef3f3b0ce1594bab1aabb86f07a32228ef2be49e",
                        "0x00000000000000000000000060175628d3529278d0380990d54e6b4912d1646c"
                    ]
                },
                "nodeType": 1
            },
            "3": {
                "invocation": {
                    "address": "0xe0638cf008fe88420b2665996c44f3dca6dfb069",
                    "callData": "0x000000000000000000000000ef3f3b0ce1594bab1aabb86f07a32228ef2be49e0000000000000000000000000000000000000000000000000000000000000000000000000000000000000000000000000000000000000000000000000000006000000000000000000000000000000000000000000000000000000000000000e469a5e9020000000000000000000000006c79aa4002398f18f484696c7679ea7856af8ab1000000000000000000000000000000000000000000000000000000000000000000000000000000000000000000000000000000000000000000000000000000600000000000000000000000000000000000000000000000000000000000000044a9059cbb00000000000000000000000060175628d3529278d0380990d54e6b4912d1646c000000000000000000000000000000000000000000000000000000003b37c2700000000000000000000000000000000000000000000000000000000000000000000000000000000000000000000000000000000000000000",
                    "decodedMethod": null,
                    "errorInfo": "",
                    "fromAddress": "0xe0638cf008fe88420b2665996c44f3dca6dfb069",
                    "gasUsed": 147819,
                    "id": 3,
                    "methodDecoded": false,
                    "operation": "CALL",
                    "output": "0x0000000000000000000000000000000000000000000000000000000000000001",
                    "revert": false,
                    "revertMessage": "",
                    "selector": "0xd7f31eb9",
                    "status": true,
                    "value": "0"
                },
                "nodeType": 0
            },
            "4": {
                "invocation": {
                    "address": "0xc3b2ae46792547a96b9f84405e36d0e07edcd05c",
                    "callData": "0x000000000000000000000000ef3f3b0ce1594bab1aabb86f07a32228ef2be49e0000000000000000000000000000000000000000000000000000000000000000000000000000000000000000000000000000000000000000000000000000006000000000000000000000000000000000000000000000000000000000000000e469a5e9020000000000000000000000006c79aa4002398f18f484696c7679ea7856af8ab1000000000000000000000000000000000000000000000000000000000000000000000000000000000000000000000000000000000000000000000000000000600000000000000000000000000000000000000000000000000000000000000044a9059cbb00000000000000000000000060175628d3529278d0380990d54e6b4912d1646c000000000000000000000000000000000000000000000000000000003b37c2700000000000000000000000000000000000000000000000000000000000000000000000000000000000000000000000000000000000000000",
                    "decodedMethod": null,
                    "errorInfo": "",
                    "fromAddress": "0xe0638cf008fe88420b2665996c44f3dca6dfb069",
                    "gasUsed": 146898,
                    "id": 4,
                    "methodDecoded": false,
                    "operation": "DELEGATECALL",
                    "output": "0x0000000000000000000000000000000000000000000000000000000000000001",
                    "revert": false,
                    "revertMessage": "",
                    "selector": "0xd7f31eb9",
                    "status": true,
                    "value": "0"
                },
                "nodeType": 0
            },
            "5": {
                "invocation": {
                    "address": "0x7d06de25192c74e630cbf3727615cddcb8e0e260",
                    "callData": "0x000000000000000000000000ef3f3b0ce1594bab1aabb86f07a32228ef2be49e00000000000000000000000000000000000000000000000000000000000000000000000000000000000000000000000000000000000000000000000000000080000000000000000000000000000000000000000000000000000000000000000000000000000000000000000000000000000000000000000000000000000000e469a5e9020000000000000000000000006c79aa4002398f18f484696c7679ea7856af8ab1000000000000000000000000000000000000000000000000000000000000000000000000000000000000000000000000000000000000000000000000000000600000000000000000000000000000000000000000000000000000000000000044a9059cbb00000000000000000000000060175628d3529278d0380990d54e6b4912d1646c000000000000000000000000000000000000000000000000000000003b37c2700000000000000000000000000000000000000000000000000000000000000000000000000000000000000000000000000000000000000000",
                    "decodedMethod": null,
                    "errorInfo": "",
                    "fromAddress": "0xe0638cf008fe88420b2665996c44f3dca6dfb069",
                    "gasUsed": 142597,
                    "id": 5,
                    "methodDecoded": false,
                    "operation": "CALL",
                    "output": "0x0000000000000000000000000000000000000000000000000000000000000001",
                    "revert": false,
                    "revertMessage": "",
                    "selector": "0xe04f31e9",
                    "status": true,
                    "value": "0"
                },
                "nodeType": 0
            },
            "6": {
                "invocation": {
                    "address": "0x072461a5e18f444b1cf2e8dde6dfb1af39197316",
                    "callData": "0x000000000000000000000000ef3f3b0ce1594bab1aabb86f07a32228ef2be49e00000000000000000000000000000000000000000000000000000000000000000000000000000000000000000000000000000000000000000000000000000080000000000000000000000000000000000000000000000000000000000000000000000000000000000000000000000000000000000000000000000000000000e469a5e9020000000000000000000000006c79aa4002398f18f484696c7679ea7856af8ab1000000000000000000000000000000000000000000000000000000000000000000000000000000000000000000000000000000000000000000000000000000600000000000000000000000000000000000000000000000000000000000000044a9059cbb00000000000000000000000060175628d3529278d0380990d54e6b4912d1646c000000000000000000000000000000000000000000000000000000003b37c2700000000000000000000000000000000000000000000000000000000000000000000000000000000000000000000000000000000000000000",
                    "decodedMethod": null,
                    "errorInfo": "",
                    "fromAddress": "0x7d06de25192c74e630cbf3727615cddcb8e0e260",
                    "gasUsed": 141670,
                    "id": 6,
                    "methodDecoded": false,
                    "operation": "DELEGATECALL",
                    "output": "0x0000000000000000000000000000000000000000000000000000000000000001",
                    "revert": false,
                    "revertMessage": "",
                    "selector": "0xe04f31e9",
                    "status": true,
                    "value": "0"
                },
                "nodeType": 0
            },
            "7": {
                "invocation": {
                    "address": "0xef3f3b0ce1594bab1aabb86f07a32228ef2be49e",
                    "callData": "0x0000000000000000000000006c79aa4002398f18f484696c7679ea7856af8ab1000000000000000000000000000000000000000000000000000000000000000000000000000000000000000000000000000000000000000000000000000000600000000000000000000000000000000000000000000000000000000000000044a9059cbb00000000000000000000000060175628d3529278d0380990d54e6b4912d1646c000000000000000000000000000000000000000000000000000000003b37c27000000000000000000000000000000000000000000000000000000000",
                    "decodedMethod": {
                        "callParams": [
                            {
                                "name": "_to",
                                "type": "address",
                                "value": "0x6c79aa4002398f18f484696c7679ea7856af8ab1"
                            },
                            {
                                "name": "_value",
                                "type": "uint256",
                                "value": "0"
                            },
                            {
                                "name": "_data",
                                "type": "bytes",
                                "value": "0xa9059cbb00000000000000000000000060175628d3529278d0380990d54e6b4912d1646c000000000000000000000000000000000000000000000000000000003b37c270"
                            }
                        ],
                        "constructorArguments": "",
                        "name": "multiAccessCall",
                        "returnParams": [
                            {
                                "name": "",
                                "type": "bool",
                                "value": true
                            }
                        ],
                        "signature": "multiAccessCall(address,uint256,bytes)"
                    },
                    "errorInfo": "",
                    "fromAddress": "0x7d06de25192c74e630cbf3727615cddcb8e0e260",
                    "gasUsed": 140052,
                    "id": 7,
                    "methodDecoded": true,
                    "operation": "CALL",
                    "output": "0x0000000000000000000000000000000000000000000000000000000000000001",
                    "revert": false,
                    "revertMessage": "",
                    "selector": "0x69a5e902",
                    "status": true,
                    "value": "0"
                },
                "nodeType": 0
            },
            "8": {
                "event": {
                    "contract": "0xef3f3b0ce1594bab1aabb86f07a32228ef2be49e",
                    "decodedLog": {
                        "name": "Confirmation",
                        "params": [
                            {
                                "name": "owner",
                                "type": "address",
                                "value": "0x7d06de25192c74e630cbf3727615cddcb8e0e260"
                            },
                            {
                                "name": "operation",
                                "type": "bytes32",
                                "value": "0x82df70de1fb04bf748c333b1b9f003177a6c6adc823b2517fe416712b4394fe6"
                            },
                            {
                                "name": "completed",
                                "type": "bool",
                                "value": true
                            }
                        ],
                        "signature": "Confirmation(address,bytes32,bool)"
                    },
                    "id": 8,
                    "logData": "0x0000000000000000000000000000000000000000000000000000000000000001",
                    "logDecoded": true,
                    "operation": "EVENT",
                    "revert": false,
                    "status": true,
                    "topics": [
                        "0xe65b00b698ba37c614af350761c735c5f4a82b4ab365a1f1022d49d9dfc8e930",
                        "0x0000000000000000000000007d06de25192c74e630cbf3727615cddcb8e0e260",
                        "0x82df70de1fb04bf748c333b1b9f003177a6c6adc823b2517fe416712b4394fe6"
                    ]
                },
                "nodeType": 1
            },
            "9": {
                "invocation": {
                    "address": "0x0000000000000000000000000000000000000004",
                    "callData": "0x00000000000000000000000060175628d3529278d0380990d54e6b4912d1646c000000000000000000000000000000000000000000000000000000003b37c270",
                    "decodedMethod": {
                        "callParams": [
                            {
                                "name": "data",
                                "type": "bytes",
                                "value": "0xa9059cbb00000000000000000000000060175628d3529278d0380990d54e6b4912d1646c000000000000000000000000000000000000000000000000000000003b37c270"
                            }
                        ],
                        "constructorArguments": "",
                        "name": "dataCopy()",
                        "returnParams": [
                            {
                                "name": "data",
                                "type": "bytes",
                                "value": "0xa9059cbb00000000000000000000000060175628d3529278d0380990d54e6b4912d1646c000000000000000000000000000000000000000000000000000000003b37c270"
                            }
                        ],
                        "signature": "dataCopy(bytes)"
                    },
                    "errorInfo": "",
                    "fromAddress": "0xef3f3b0ce1594bab1aabb86f07a32228ef2be49e",
                    "gasUsed": 24,
                    "id": 9,
                    "methodDecoded": true,
                    "operation": "CALL",
                    "output": "0xa9059cbb00000000000000000000000060175628d3529278d0380990d54e6b4912d1646c000000000000000000000000000000000000000000000000000000003b37c270",
                    "revert": false,
                    "revertMessage": "",
                    "selector": "0xa9059cbb",
                    "status": true,
                    "value": "0"
                },
                "nodeType": 0
            }
        },
        "gasFlame": [
            {
                "children": [
                    {
                        "children": [
                            {
                                "children": [],
                                "depth": 0,
                                "name": "Initial Gas",
                                "value": 32664
                            },
                            {
                                "children": [
                                    {
                                        "children": [
                                            {
                                                "children": [],
                                                "depth": 2,
                                                "name": "ecrecover",
                                                "value": 3000
                                            },
                                            {
                                                "children": [
                                                    {
                                                        "children": [
                                                            {
                                                                "children": [
                                                                    {
                                                                        "children": [
                                                                            {
                                                                                "children": [
                                                                                    {
                                                                                        "children": [],
                                                                                        "depth": 7,
                                                                                        "name": "dataCopy()",
                                                                                        "value": 24
                                                                                    },
                                                                                    {
                                                                                        "children": [
                                                                                            {
                                                                                                "children": [
                                                                                                    {
                                                                                                        "children": [
                                                                                                            {
                                                                                                                "children": [
                                                                                                                    {
                                                                                                                        "children": [
                                                                                                                            {
                                                                                                                                "children": [
                                                                                                                                    {
                                                                                                                                        "children": [],
                                                                                                                                        "depth": 13,
                                                                                                                                        "name": "versions",
                                                                                                                                        "value": 559
                                                                                                                                    },
                                                                                                                                    {
                                                                                                                                        "children": [],
                                                                                                                                        "depth": 13,
                                                                                                                                        "name": "dataCopy()",
                                                                                                                                        "value": 3
                                                                                                                                    }
                                                                                                                                ],
                                                                                                                                "depth": 12,
                                                                                                                                "name": "emitTransfer",
                                                                                                                                "value": 5948
                                                                                                                            }
                                                                                                                        ],
                                                                                                                        "depth": 11,
                                                                                                                        "name": "emitTransfer",
                                                                                                                        "value": 8036
                                                                                                                    },
                                                                                                                    {
                                                                                                                        "children": [],
                                                                                                                        "depth": 11,
                                                                                                                        "name": "emitTransfer",
                                                                                                                        "value": 2427
                                                                                                                    }
                                                                                                                ],
                                                                                                                "depth": 10,
                                                                                                                "name": "proxyTransferFromWithReference",
                                                                                                                "value": 31063
                                                                                                            }
                                                                                                        ],
                                                                                                        "depth": 9,
                                                                                                        "name": "_forwardTransferFromWithReference",
                                                                                                        "value": 34525
                                                                                                    }
                                                                                                ],
                                                                                                "depth": 8,
                                                                                                "name": "_performTransferWithReference",
                                                                                                "value": 37473
                                                                                            }
                                                                                        ],
                                                                                        "depth": 7,
                                                                                        "name": "transfer",
                                                                                        "value": 40878
                                                                                    }
                                                                                ],
                                                                                "depth": 6,
                                                                                "name": "multiAccessCall",
                                                                                "value": 140052
                                                                            }
                                                                        ],
                                                                        "depth": 5,
                                                                        "name": "0xe04f31e9",
                                                                        "value": 141670
                                                                    }
                                                                ],
                                                                "depth": 4,
                                                                "name": "0xe04f31e9",
                                                                "value": 142597
                                                            }
                                                        ],
                                                        "depth": 3,
                                                        "name": "0xd7f31eb9",
                                                        "value": 146898
                                                    }
                                                ],
                                                "depth": 2,
                                                "name": "0xd7f31eb9",
                                                "value": 147819
                                            }
                                        ],
                                        "depth": 1,
                                        "name": "0x72262699",
                                        "value": 161702
                                    }
                                ],
                                "depth": 0,
                                "name": "Executed Gas",
                                "value": 162647
                            }
                        ],
                        "depth": -1,
                        "name": "Actual Gas Used",
                        "value": 150311
                    },
                    {
                        "children": [],
                        "depth": -1,
                        "name": "Refunded Gas",
                        "value": 45000
                    }
                ],
                "depth": -2,
                "name": "Total Gas",
                "value": 195311
            }
        ],
        "isConfirmed": true,
        "mainTrace": [
            {
                "children": [
                    {
                        "children": [
                            {
                                "children": [
                                    {
                                        "children": [],
                                        "depth": 2,
                                        "id": 2,
                                        "order": 2
                                    },
                                    {
                                        "children": [
                                            {
                                                "children": [
                                                    {
                                                        "children": [
                                                            {
                                                                "children": [
                                                                    {
                                                                        "children": [
                                                                            {
                                                                                "children": [],
                                                                                "depth": 7,
                                                                                "id": 8,
                                                                                "order": 8
                                                                            },
                                                                            {
                                                                                "children": [],
                                                                                "depth": 7,
                                                                                "id": 9,
                                                                                "order": 9
                                                                            },
                                                                            {
                                                                                "children": [
                                                                                    {
                                                                                        "children": [
                                                                                            {
                                                                                                "children": [
                                                                                                    {
                                                                                                        "children": [
                                                                                                            {
                                                                                                                "children": [
                                                                                                                    {
                                                                                                                        "children": [
                                                                                                                            {
                                                                                                                                "children": [],
                                                                                                                                "depth": 13,
                                                                                                                                "id": 16,
                                                                                                                                "order": 16
                                                                                                                            },
                                                                                                                            {
                                                                                                                                "children": [],
                                                                                                                                "depth": 13,
                                                                                                                                "id": 17,
                                                                                                                                "order": 17
                                                                                                                            },
                                                                                                                            {
                                                                                                                                "children": [],
                                                                                                                                "depth": 13,
                                                                                                                                "id": 18,
                                                                                                                                "order": 18
                                                                                                                            }
                                                                                                                        ],
                                                                                                                        "depth": 12,
                                                                                                                        "id": 15,
                                                                                                                        "order": 15
                                                                                                                    }
                                                                                                                ],
                                                                                                                "depth": 11,
                                                                                                                "id": 14,
                                                                                                                "order": 14
                                                                                                            },
                                                                                                            {
                                                                                                                "children": [
                                                                                                                    {
                                                                                                                        "children": [],
                                                                                                                        "depth": 12,
                                                                                                                        "id": 20,
                                                                                                                        "order": 20
                                                                                                                    }
                                                                                                                ],
                                                                                                                "depth": 11,
                                                                                                                "id": 19,
                                                                                                                "order": 19
                                                                                                            }
                                                                                                        ],
                                                                                                        "depth": 10,
                                                                                                        "id": 13,
                                                                                                        "order": 13
                                                                                                    }
                                                                                                ],
                                                                                                "depth": 9,
                                                                                                "id": 12,
                                                                                                "order": 12
                                                                                            }
                                                                                        ],
                                                                                        "depth": 8,
                                                                                        "id": 11,
                                                                                        "order": 11
                                                                                    }
                                                                                ],
                                                                                "depth": 7,
                                                                                "id": 10,
                                                                                "order": 10
                                                                            }
                                                                        ],
                                                                        "depth": 6,
                                                                        "id": 7,
                                                                        "order": 7
                                                                    }
                                                                ],
                                                                "depth": 5,
                                                                "id": 6,
                                                                "order": 6
                                                            }
                                                        ],
                                                        "depth": 4,
                                                        "id": 5,
                                                        "order": 5
                                                    }
                                                ],
                                                "depth": 3,
                                                "id": 4,
                                                "order": 4
                                            }
                                        ],
                                        "depth": 2,
                                        "id": 3,
                                        "order": 3
                                    }
                                ],
                                "depth": 1,
                                "id": 1,
                                "order": 1
                            }
                        ],
                        "depth": 0,
                        "id": 0,
                        "order": 0
                    }
                ],
                "depth": -1,
                "id": -1,
                "order": -1
            }
        ],
        "mainTraceNodeCount": 21,
        "parentIdMap": {
            "0": -1,
            "1": 0,
            "10": 7,
            "11": 10,
            "12": 11,
            "13": 12,
            "14": 13,
            "15": 14,
            "16": 15,
            "17": 15,
            "18": 15,
            "19": 13,
            "2": 1,
            "20": 19,
            "3": 1,
            "4": 3,
            "5": 4,
            "6": 5,
            "7": 6,
            "8": 7,
            "9": 7
        },
        "tidyTrace": [
            {
                "children": [
                    {
                        "children": [
                            {
                                "children": [
                                    {
                                        "children": [],
                                        "depth": 2,
                                        "id": 2,
                                        "order": 2
                                    },
                                    {
                                        "children": [
                                            {
                                                "children": [
                                                    {
                                                        "children": [
                                                            {
                                                                "children": [
                                                                    {
                                                                        "children": [
                                                                            {
                                                                                "children": [],
                                                                                "depth": 7,
                                                                                "id": 8,
                                                                                "order": 8
                                                                            },
                                                                            {
                                                                                "children": [],
                                                                                "depth": 7,
                                                                                "id": 9,
                                                                                "order": 9
                                                                            },
                                                                            {
                                                                                "children": [
                                                                                    {
                                                                                        "children": [
                                                                                            {
                                                                                                "children": [
                                                                                                    {
                                                                                                        "children": [
                                                                                                            {
                                                                                                                "children": [
                                                                                                                    {
                                                                                                                        "children": [
                                                                                                                            {
                                                                                                                                "children": [],
                                                                                                                                "depth": 13,
                                                                                                                                "id": 16,
                                                                                                                                "order": 16
                                                                                                                            },
                                                                                                                            {
                                                                                                                                "children": [],
                                                                                                                                "depth": 13,
                                                                                                                                "id": 17,
                                                                                                                                "order": 17
                                                                                                                            },
                                                                                                                            {
                                                                                                                                "children": [],
                                                                                                                                "depth": 13,
                                                                                                                                "id": 18,
                                                                                                                                "order": 18
                                                                                                                            }
                                                                                                                        ],
                                                                                                                        "depth": 12,
                                                                                                                        "id": 15,
                                                                                                                        "order": 15
                                                                                                                    }
                                                                                                                ],
                                                                                                                "depth": 11,
                                                                                                                "id": 14,
                                                                                                                "order": 14
                                                                                                            },
                                                                                                            {
                                                                                                                "children": [
                                                                                                                    {
                                                                                                                        "children": [],
                                                                                                                        "depth": 12,
                                                                                                                        "id": 20,
                                                                                                                        "order": 20
                                                                                                                    }
                                                                                                                ],
                                                                                                                "depth": 11,
                                                                                                                "id": 19,
                                                                                                                "order": 19
                                                                                                            }
                                                                                                        ],
                                                                                                        "depth": 10,
                                                                                                        "id": 13,
                                                                                                        "order": 13
                                                                                                    }
                                                                                                ],
                                                                                                "depth": 9,
                                                                                                "id": 12,
                                                                                                "order": 12
                                                                                            }
                                                                                        ],
                                                                                        "depth": 8,
                                                                                        "id": 11,
                                                                                        "order": 11
                                                                                    }
                                                                                ],
                                                                                "depth": 7,
                                                                                "id": 10,
                                                                                "order": 10
                                                                            }
                                                                        ],
                                                                        "depth": 6,
                                                                        "id": 7,
                                                                        "order": 7
                                                                    }
                                                                ],
                                                                "depth": 5,
                                                                "id": 6,
                                                                "order": 6
                                                            }
                                                        ],
                                                        "depth": 4,
                                                        "id": 5,
                                                        "order": 5
                                                    }
                                                ],
                                                "depth": 3,
                                                "id": 4,
                                                "order": 4
                                            }
                                        ],
                                        "depth": 2,
                                        "id": 3,
                                        "order": 3
                                    }
                                ],
                                "depth": 1,
                                "id": 1,
                                "order": 1
                            }
                        ],
                        "depth": 0,
                        "id": 0,
                        "order": 0
                    }
                ],
                "depth": -1,
                "id": -1,
                "order": -1
            }
        ],
        "tidyTraceNodeCount": 21
    },
    "state_change": {
        "stateChanges": [
            {
                "address": "0x697ed9a0ef0d1481ecb36fc123e85da40f1bc8d5",
                "erc": "",
                "slots": [
                    {
                        "current": "0x000000000000000000000000000000000000000000000000000000008fd32726",
                        "key": "0xcfb0a9c980265b78ed3ad3b61380a81a2c92f58e5a5c5af558121db80b58654b",
                        "prev": "0x00000000000000000000000000000000000000000000000000000000cb0ae996"
                    },
                    {
                        "current": "0x00000000000000000000000000000000000000000000000000000000766f84e0",
                        "key": "0xa5ab6b5521a954ce7668581c830dcd7831c3b9041444933eafc5e54bdaf863ce",
                        "prev": "0x000000000000000000000000000000000000000000000000000000003b37c270"
                    }
                ],
                "storageVariables": []
            },
            {
                "address": "0xe0638cf008fe88420b2665996c44f3dca6dfb069",
                "erc": "",
                "slots": [
                    {
                        "current": "0x000000000000000000000000000000000000000000000000000000238ea3ead6",
                        "key": "0x0000000000000000000000000000000000000000000000000000000000000003",
                        "prev": "0x000000000000000000000000000000000000000000000000000000238ea2e9a6"
                    }
                ],
                "storageVariables": []
            }
        ]
    }
}