{
    "balance_change": {
        "balanceChanges": [
            {
                "account": "0x147b12c06d9e8e3837280f783fd8070848d4412e",
                "assets": [
                    {
                        "address": "0xc02aaa39b223fe8d0a0e5c4f27ead9083c756cc2",
                        "amount": "0.064426590737067515",
                        "iconUrl": "https://assets.blocksec.com/icon/f1cb2d02c471d545bbc7722daf3277fd852d98e63d118771af7047bd8256c516.png",
                        "isERC1155": false,
                        "isERC721": false,
                        "sign": false,
                        "value": "223.32730331568416095"
                    }
                ]
            },
            {
                "account": "0x365cc7ccbd2fe227ceb263b7af3062ed71219d21",
                "assets": [
                    {
                        "address": "0xeeeeeeeeeeeeeeeeeeeeeeeeeeeeeeeeeeeeeeee",
                        "amount": "0.064426590737067515",
                        "iconUrl": "https://assets.blocksec.com/image/1663669189317-3.png",
                        "isERC1155": false,
                        "isERC721": false,
                        "sign": true,
                        "value": "223.32730331568416095"
                    }
                ]
            },
            {
                "account": "0xc02aaa39b223fe8d0a0e5c4f27ead9083c756cc2",
                "assets": [
                    {
                        "address": "0xeeeeeeeeeeeeeeeeeeeeeeeeeeeeeeeeeeeeeeee",
                        "amount": "0.064426590737067515",
                        "iconUrl": "https://assets.blocksec.com/image/1663669189317-3.png",
                        "isERC1155": false,
                        "isERC721": false,
                        "sign": false,
                        "value": "223.32730331568416095"
                    },
                    {
                        "address": "0xc02aaa39b223fe8d0a0e5c4f27ead9083c756cc2",
                        "amount": "0.064426590737067515",
                        "iconUrl": "https://assets.blocksec.com/icon/f1cb2d02c471d545bbc7722daf3277fd852d98e63d118771af7047bd8256c516.png",
                        "isERC1155": false,
                        "isERC721": false,
                        "sign": true,
                        "value": "223.32730331568416095"
                    }
                ]
            }
        ]
    },
    "profile": {
        "basic_info": {
            "baseFee": "2.530416695",
            "blockNumber": 20366402,
            "callData": "0x2e37811500000000000000000000000000000000000000000000000000000000000000400000000000000000000000000000000000000000000000000000000000000001000000000000000000000000365cc7ccbd2fe227ceb263b7af3062ed71219d21000000000000000000000000365cc7ccbd2fe227ceb263b7af3062ed71219d21000000000000000000000000000000000000000000000000000000000000000000000000000000000000000082af49447d8a07e3bd95bd0d56f35241523fbab1000000000000000000000000c02aaa39b223fe8d0a0e5c4f27ead9083c756cc200000000000000000000000000000000000000000000000000e6ed27d666800000000000000000000000000000000000000000000000000000e4e3a496f8edfb000000000000000000000000000000000000000000000000000000000000a4b1000000000000000000000000000000000000000000000000000000000021f53600000000000000000000000000000000000000000000000000000000ffffffff000000000000000000000000000000000000000000000000000000000000000000000000000000000000000000000000000000000000000000000000000001800000000000000000000000000000000000000000000000000000000000000000",
            "debugEnable": true,
            "errorInfo": "",
            "eventCount": 3,
            "feeRecipient": "0x1f9090aae28b8a3dceadf281b0f12828e676c326",
            "formatValue": "0",
            "gasLimit": 114817,
            "gasPrice": "4.639585631",
            "gasUsed": 105180,
            "intTxnCount": 6,
            "internalRevert": false,
            "internalRevertMessage": "",
            "isContractCreation": false,
            "isFlashloan": false,
            "maxFee": "4.639585631",
            "nonce": 54257,
            "overwritedBlockNumber": -1,
            "priorityFee": "3.359822756",
            "receiver": "0x5c7bcd6e7de5423a257d81b442095a1a6ced35c5",
            "revertMessage": "",
            "sender": "0x147b12c06d9e8e3837280f783fd8070848d4412e",
            "simulationEnable": true,
            "sourceTxnHash": "0xeb14e669ba91819e4990206c14ee01255a0354c87d1eba9b50c0fa2b2c843317",
            "status": true,
            "timestamp": "2024-07-23T02:59:47Z",
            "transactionFee": "0.00048799161666858",
            "txnHash": "0xeb14e669ba91819e4990206c14ee01255a0354c87d1eba9b50c0fa2b2c843317",
            "txnIndex": 34,
            "type": 2,
            "value": "0"
        },
        "fund_flow": [
            {
                "amount": "0.064426590737067515",
                "from": "0x147b12c06d9e8e3837280f783fd8070848d4412e",
                "id": 1,
                "isERC1155": false,
                "isERC721": false,
                "isReverted": false,
                "order": 1,
                "to": "0x5c7bcd6e7de5423a257d81b442095a1a6ced35c5",
                "token": "0xc02aaa39b223fe8d0a0e5c4f27ead9083c756cc2"
            },
            {
                "amount": "0.064426590737067515",
                "from": "0xc02aaa39b223fe8d0a0e5c4f27ead9083c756cc2",
                "id": 2,
                "isERC1155": false,
                "isERC721": false,
                "isReverted": false,
                "order": 2,
                "to": "0x5c7bcd6e7de5423a257d81b442095a1a6ced35c5",
                "token": "0xeeeeeeeeeeeeeeeeeeeeeeeeeeeeeeeeeeeeeeee"
            },
            {
                "amount": "0.064426590737067515",
                "from": "0x5c7bcd6e7de5423a257d81b442095a1a6ced35c5",
                "id": 3,
                "isERC1155": false,
                "isERC721": false,
                "isReverted": false,
                "order": 3,
                "to": "0xc02aaa39b223fe8d0a0e5c4f27ead9083c756cc2",
                "token": "0xc02aaa39b223fe8d0a0e5c4f27ead9083c756cc2"
            },
            {
                "amount": "0.064426590737067515",
                "from": "0x5c7bcd6e7de5423a257d81b442095a1a6ced35c5",
                "id": 4,
                "isERC1155": false,
                "isERC721": false,
                "isReverted": false,
                "order": 4,
                "to": "0x365cc7ccbd2fe227ceb263b7af3062ed71219d21",
                "token": "0xeeeeeeeeeeeeeeeeeeeeeeeeeeeeeeeeeeeeeeee"
            }
        ],
        "token_infos": [
            {
                "address": "0xc02aaa39b223fe8d0a0e5c4f27ead9083c756cc2",
                "decimals": 18
            },
            {
                "address": "0xeeeeeeeeeeeeeeeeeeeeeeeeeeeeeeeeeeeeeeee",
                "decimals": 18
            }
        ]
    },
    "address_label": {
        "labels": [
            {
                "address": "0x0000000000000000000000000000000000000001",
                "label": "Precompiled"
            },
            {
                "address": "0x0000000000000000000000000000000000000002",
                "label": "Precompiled"
            },
            {
                "address": "0xeeeeeeeeeeeeeeeeeeeeeeeeeeeeeeeeeeeeeeee",
                "label": "Ether"
            },
            {
                "address": "0x5c7bcd6e7de5423a257d81b442095a1a6ced35c5",
                "label": "Across Protocol: Ethereum Spoke Pool V2"
            },
            {
                "address": "0x08c21b200ed06d2e32cec91a770c3fca8ad5f877",
                "label": "Ethereum_SpokePool"
            },
            {
                "address": "0x0000000000000000000000000000000000000003",
                "label": "Precompiled"
            },
            {
                "address": "0x0000000000000000000000000000000000000004",
                "label": "Precompiled"
            },
            {
                "address": "0xc02aaa39b223fe8d0a0e5c4f27ead9083c756cc2",
                "label": "Wrapped Ether (WETH)"
            },
            {
                "address": "0x0000000000000000000000000000000000000000",
                "label": "Null Address"
            }
        ]
    },
    "trace": {
        "accountLabels": null,
        "dataMap": {
            "-1": {
                "invocation": {
                    "address": "0x147b12c06d9e8e3837280f783fd8070848d4412e",
                    "callData": "",
                    "decodedMethod": null,
                    "errorInfo": "",
                    "fromAddress": "",
                    "gasUsed": 0,
                    "id": -1,
                    "methodDecoded": false,
                    "operation": "",
                    "output": "",
                    "revert": false,
                    "revertMessage": "",
                    "selector": "",
                    "status": false,
                    "value": ""
                },
                "nodeType": 0
            },
            "0": {
                "invocation": {
                    "address": "0x5c7bcd6e7de5423a257d81b442095a1a6ced35c5",
                    "callData": "0x00000000000000000000000000000000000000000000000000000000000000400000000000000000000000000000000000000000000000000000000000000001000000000000000000000000365cc7ccbd2fe227ceb263b7af3062ed71219d21000000000000000000000000365cc7ccbd2fe227ceb263b7af3062ed71219d21000000000000000000000000000000000000000000000000000000000000000000000000000000000000000082af49447d8a07e3bd95bd0d56f35241523fbab1000000000000000000000000c02aaa39b223fe8d0a0e5c4f27ead9083c756cc200000000000000000000000000000000000000000000000000e6ed27d666800000000000000000000000000000000000000000000000000000e4e3a496f8edfb000000000000000000000000000000000000000000000000000000000000a4b1000000000000000000000000000000000000000000000000000000000021f53600000000000000000000000000000000000000000000000000000000ffffffff000000000000000000000000000000000000000000000000000000000000000000000000000000000000000000000000000000000000000000000000000001800000000000000000000000000000000000000000000000000000000000000000",
                    "decodedMethod": {
                        "callParams": [
                            {
                                "name": "relayData",
                                "type": "(address,address,address,address,address,uint256,uint256,uint256,uint32,uint32,uint32,bytes)",
                                "value": [
                                    {
                                        "name": "depositor",
                                        "type": "address",
                                        "value": "0x365cc7ccbd2fe227ceb263b7af3062ed71219d21"
                                    },
                                    {
                                        "name": "recipient",
                                        "type": "address",
                                        "value": "0x365cc7ccbd2fe227ceb263b7af3062ed71219d21"
                                    },
                                    {
                                        "name": "exclusiveRelayer",
                                        "type": "address",
                                        "value": "0x0000000000000000000000000000000000000000"
                                    },
                                    {
                                        "name": "inputToken",
                                        "type": "address",
                                        "value": "0x82af49447d8a07e3bd95bd0d56f35241523fbab1"
                                    },
                                    {
                                        "name": "outputToken",
                                        "type": "address",
                                        "value": "0xc02aaa39b223fe8d0a0e5c4f27ead9083c756cc2"
                                    },
                                    {
                                        "name": "inputAmount",
                                        "type": "uint256",
                                        "value": "65,000,000,000,000,000"
                                    },
                                    {
                                        "name": "outputAmount",
                                        "type": "uint256",
                                        "value": "64,426,590,737,067,515"
                                    },
                                    {
                                        "name": "originChainId",
                                        "type": "uint256",
                                        "value": "42,161"
                                    },
                                    {
                                        "name": "depositId",
                                        "type": "uint32",
                                        "value": "2,225,462"
                                    },
                                    {
                                        "name": "fillDeadline",
                                        "type": "uint32",
                                        "value": "4,294,967,295"
                                    },
                                    {
                                        "name": "exclusivityDeadline",
                                        "type": "uint32",
                                        "value": "0"
                                    },
                                    {
                                        "name": "message",
                                        "type": "bytes",
                                        "value": "0x"
                                    }
                                ]
                            },
                            {
                                "name": "repaymentChainId",
                                "type": "uint256",
                                "value": "1"
                            }
                        ],
                        "constructorArguments": "",
                        "name": "fillV3Relay",
                        "returnParams": [],
                        "signature": "fillV3Relay((address,address,address,address,address,uint256,uint256,uint256,uint32,uint32,uint32,bytes),uint256)"
                    },
                    "errorInfo": "",
                    "fromAddress": "0x147b12c06d9e8e3837280f783fd8070848d4412e",
                    "gasUsed": 105180,
                    "id": 0,
                    "methodDecoded": true,
                    "operation": "CALL",
                    "output": "",
                    "revert": false,
                    "revertMessage": "",
                    "selector": "0x2e378115",
                    "status": true,
                    "value": "0"
                },
                "nodeType": 0
            },
            "1": {
                "invocation": {
                    "address": "0x08c21b200ed06d2e32cec91a770c3fca8ad5f877",
                    "callData": "0x00000000000000000000000000000000000000000000000000000000000000400000000000000000000000000000000000000000000000000000000000000001000000000000000000000000365cc7ccbd2fe227ceb263b7af3062ed71219d21000000000000000000000000365cc7ccbd2fe227ceb263b7af3062ed71219d21000000000000000000000000000000000000000000000000000000000000000000000000000000000000000082af49447d8a07e3bd95bd0d56f35241523fbab1000000000000000000000000c02aaa39b223fe8d0a0e5c4f27ead9083c756cc200000000000000000000000000000000000000000000000000e6ed27d666800000000000000000000000000000000000000000000000000000e4e3a496f8edfb000000000000000000000000000000000000000000000000000000000000a4b1000000000000000000000000000000000000000000000000000000000021f53600000000000000000000000000000000000000000000000000000000ffffffff000000000000000000000000000000000000000000000000000000000000000000000000000000000000000000000000000000000000000000000000000001800000000000000000000000000000000000000000000000000000000000000000",
                    "decodedMethod": {
                        "callParams": [
                            {
                                "name": "relayData",
                                "type": "(address,address,address,address,address,uint256,uint256,uint256,uint32,uint32,uint32,bytes)",
                                "value": [
                                    {
                                        "name": "depositor",
                                        "type": "address",
                                        "value": "0x365cc7ccbd2fe227ceb263b7af3062ed71219d21"
                                    },
                                    {
                                        "name": "recipient",
                                        "type": "address",
                                        "value": "0x365cc7ccbd2fe227ceb263b7af3062ed71219d21"
                                    },
                                    {
                                        "name": "exclusiveRelayer",
                                        "type": "address",
                                        "value": "0x0000000000000000000000000000000000000000"
                                    },
                                    {
                                        "name": "inputToken",
                                        "type": "address",
                                        "value": "0x82af49447d8a07e3bd95bd0d56f35241523fbab1"
                                    },
                                    {
                                        "name": "outputToken",
                                        "type": "address",
                                        "value": "0xc02aaa39b223fe8d0a0e5c4f27ead9083c756cc2"
                                    },
                                    {
                                        "name": "inputAmount",
                                        "type": "uint256",
                                        "value": "65,000,000,000,000,000"
                                    },
                                    {
                                        "name": "outputAmount",
                                        "type": "uint256",
                                        "value": "64,426,590,737,067,515"
                                    },
                                    {
                                        "name": "originChainId",
                                        "type": "uint256",
                                        "value": "42,161"
                                    },
                                    {
                                        "name": "depositId",
                                        "type": "uint32",
                                        "value": "2,225,462"
                                    },
                                    {
                                        "name": "fillDeadline",
                                        "type": "uint32",
                                        "value": "4,294,967,295"
                                    },
                                    {
                                        "name": "exclusivityDeadline",
                                        "type": "uint32",
                                        "value": "0"
                                    },
                                    {
                                        "name": "message",
                                        "type": "bytes",
                                        "value": "0x"
                                    }
                                ]
                            },
                            {
                                "name": "repaymentChainId",
                                "type": "uint256",
                                "value": "1"
                            }
                        ],
                        "constructorArguments": "",
                        "name": "fillV3Relay",
                        "returnParams": [],
                        "signature": "fillV3Relay((address,address,address,address,address,uint256,uint256,uint256,uint32,uint32,uint32,bytes),uint256)"
                    },
                    "errorInfo": "",
                    "fromAddress": "0x5c7bcd6e7de5423a257d81b442095a1a6ced35c5",
                    "gasUsed": 81548,
                    "id": 1,
                    "methodDecoded": true,
                    "operation": "DELEGATECALL",
                    "output": "",
                    "revert": false,
                    "revertMessage": "",
                    "selector": "0x2e378115",
                    "status": true,
                    "value": "0"
                },
                "nodeType": 0
            },
            "2": {
                "event": {
                    "contract": "0x5c7bcd6e7de5423a257d81b442095a1a6ced35c5",
                    "decodedLog": {
                        "name": "FilledV3Relay",
                        "params": [
                            {
                                "name": "originChainId",
                                "type": "uint256",
                                "value": "42,161"
                            },
                            {
                                "name": "depositId",
                                "type": "uint32",
                                "value": "2,225,462"
                            },
                            {
                                "name": "relayer",
                                "type": "address",
                                "value": "0x147b12c06d9e8e3837280f783fd8070848d4412e"
                            },
                            {
                                "name": "inputToken",
                                "type": "address",
                                "value": "0x82af49447d8a07e3bd95bd0d56f35241523fbab1"
                            },
                            {
                                "name": "outputToken",
                                "type": "address",
                                "value": "0xc02aaa39b223fe8d0a0e5c4f27ead9083c756cc2"
                            },
                            {
                                "name": "inputAmount",
                                "type": "uint256",
                                "value": "65,000,000,000,000,000"
                            },
                            {
                                "name": "outputAmount",
                                "type": "uint256",
                                "value": "64,426,590,737,067,515"
                            },
                            {
                                "name": "repaymentChainId",
                                "type": "uint256",
                                "value": "1"
                            },
                            {
                                "name": "fillDeadline",
                                "type": "uint32",
                                "value": "4,294,967,295"
                            },
                            {
                                "name": "exclusivityDeadline",
                                "type": "uint32",
                                "value": "0"
                            },
                            {
                                "name": "exclusiveRelayer",
                                "type": "address",
                                "value": "0x0000000000000000000000000000000000000000"
                            },
                            {
                                "name": "depositor",
                                "type": "address",
                                "value": "0x365cc7ccbd2fe227ceb263b7af3062ed71219d21"
                            },
                            {
                                "name": "recipient",
                                "type": "address",
                                "value": "0x365cc7ccbd2fe227ceb263b7af3062ed71219d21"
                            },
                            {
                                "name": "message",
                                "type": "bytes",
                                "value": "0x"
                            },
                            {
                                "name": "relayExecutionInfo",
                                "type": "(address,bytes,uint256,uint8)",
                                "value": [
                                    {
                                        "name": "updatedRecipient",
                                        "type": "address",
                                        "value": "0x365cc7ccbd2fe227ceb263b7af3062ed71219d21"
                                    },
                                    {
                                        "name": "updatedMessage",
                                        "type": "bytes",
                                        "value": "0x"
                                    },
                                    {
                                        "name": "updatedOutputAmount",
                                        "type": "uint256",
                                        "value": "64,426,590,737,067,515"
                                    },
                                    {
                                        "name": "fillType",
                                        "type": "uint8",
                                        "value": "0"
                                    }
                                ]
                            }
                        ],
                        "signature": "FilledV3Relay(address,address,uint256,uint256,uint256,uint256,uint32,uint32,uint32,address,address,address,address,bytes,(address,bytes,uint256,uint8))"
                    },
                    "id": 2,
                    "logData": "0x00000000000000000000000082af49447d8a07e3bd95bd0d56f35241523fbab1000000000000000000000000c02aaa39b223fe8d0a0e5c4f27ead9083c756cc200000000000000000000000000000000000000000000000000e6ed27d666800000000000000000000000000000000000000000000000000000e4e3a496f8edfb000000000000000000000000000000000000000000000000000000000000000100000000000000000000000000000000000000000000000000000000ffffffff00000000000000000000000000000000000000000000000000000000000000000000000000000000000000000000000000000000000000000000000000000000000000000000000000000000365cc7ccbd2fe227ceb263b7af3062ed71219d21000000000000000000000000365cc7ccbd2fe227ceb263b7af3062ed71219d21000000000000000000000000000000000000000000000000000000000000018000000000000000000000000000000000000000000000000000000000000001a00000000000000000000000000000000000000000000000000000000000000000000000000000000000000000365cc7ccbd2fe227ceb263b7af3062ed71219d21000000000000000000000000000000000000000000000000000000000000008000000000000000000000000000000000000000000000000000e4e3a496f8edfb00000000000000000000000000000000000000000000000000000000000000000000000000000000000000000000000000000000000000000000000000000000",
                    "logDecoded": true,
                    "operation": "EVENT",
                    "revert": false,
                    "status": true,
                    "topics": [
                        "0x571749edf1d5c9599318cdbc4e28a6475d65e87fd3b2ddbe1e9a8d5e7a0f0ff7",
                        "0x000000000000000000000000000000000000000000000000000000000000a4b1",
                        "0x000000000000000000000000000000000000000000000000000000000021f536",
                        "0x000000000000000000000000147b12c06d9e8e3837280f783fd8070848d4412e"
                    ]
                },
                "nodeType": 1
            },
            "3": {
                "invocation": {
                    "address": "0xc02aaa39b223fe8d0a0e5c4f27ead9083c756cc2",
                    "callData": "0x000000000000000000000000147b12c06d9e8e3837280f783fd8070848d4412e0000000000000000000000005c7bcd6e7de5423a257d81b442095a1a6ced35c500000000000000000000000000000000000000000000000000e4e3a496f8edfb",
                    "decodedMethod": {
                        "callParams": [
                            {
                                "name": "src",
                                "type": "address",
                                "value": "0x147b12c06d9e8e3837280f783fd8070848d4412e"
                            },
                            {
                                "name": "dst",
                                "type": "address",
                                "value": "0x5c7bcd6e7de5423a257d81b442095a1a6ced35c5"
                            },
                            {
                                "decimalAvailable": true,
                                "name": "wad",
                                "type": "uint256",
                                "value": "64,426,590,737,067,515"
                            }
                        ],
                        "constructorArguments": "",
                        "name": "transferFrom",
                        "returnParams": [
                            {
                                "name": "",
                                "type": "bool",
                                "value": true
                            }
                        ],
                        "signature": "transferFrom(address,address,uint256)"
                    },
                    "errorInfo": "",
                    "fromAddress": "0x5c7bcd6e7de5423a257d81b442095a1a6ced35c5",
                    "gasUsed": 15025,
                    "id": 3,
                    "methodDecoded": true,
                    "operation": "CALL",
                    "output": "0x0000000000000000000000000000000000000000000000000000000000000001",
                    "revert": false,
                    "revertMessage": "",
                    "selector": "0x23b872dd",
                    "status": true,
                    "value": "0"
                },
                "nodeType": 0
            },
            "4": {
                "event": {
                    "contract": "0xc02aaa39b223fe8d0a0e5c4f27ead9083c756cc2",
                    "decodedLog": {
                        "name": "Transfer",
                        "params": [
                            {
                                "name": "src",
                                "type": "address",
                                "value": "0x147b12c06d9e8e3837280f783fd8070848d4412e"
                            },
                            {
                                "name": "dst",
                                "type": "address",
                                "value": "0x5c7bcd6e7de5423a257d81b442095a1a6ced35c5"
                            },
                            {
                                "decimalAvailable": true,
                                "name": "wad",
                                "type": "uint256",
                                "value": "64,426,590,737,067,515"
                            }
                        ],
                        "signature": "Transfer(address,address,uint256)"
                    },
                    "id": 4,
                    "logData": "0x00000000000000000000000000000000000000000000000000e4e3a496f8edfb",
                    "logDecoded": true,
                    "operation": "EVENT",
                    "revert": false,
                    "status": true,
                    "topics": [
                        "0xddf252ad1be2c89b69c2b068fc378daa952ba7f163c4a11628f55a4df523b3ef",
                        "0x000000000000000000000000147b12c06d9e8e3837280f783fd8070848d4412e",
                        "0x0000000000000000000000005c7bcd6e7de5423a257d81b442095a1a6ced35c5"
                    ]
                },
                "nodeType": 1
            },
            "5": {
                "invocation": {
                    "address": "0xc02aaa39b223fe8d0a0e5c4f27ead9083c756cc2",
                    "callData": "0x00000000000000000000000000000000000000000000000000e4e3a496f8edfb",
                    "decodedMethod": {
                        "callParams": [
                            {
                                "name": "wad",
                                "type": "uint256",
                                "value": "64,426,590,737,067,515"
                            }
                        ],
                        "constructorArguments": "",
                        "name": "withdraw",
                        "returnParams": [],
                        "signature": "withdraw(uint256)"
                    },
                    "errorInfo": "",
                    "fromAddress": "0x5c7bcd6e7de5423a257d81b442095a1a6ced35c5",
                    "gasUsed": 9601,
                    "id": 5,
                    "methodDecoded": true,
                    "operation": "CALL",
                    "output": "",
                    "revert": false,
                    "revertMessage": "",
                    "selector": "0x2e1a7d4d",
                    "status": true,
                    "value": "0"
                },
                "nodeType": 0
            },
            "6": {
                "invocation": {
                    "address": "0x5c7bcd6e7de5423a257d81b442095a1a6ced35c5",
                    "callData": "0x",
                    "decodedMethod": null,
                    "errorInfo": "",
                    "fromAddress": "0xc02aaa39b223fe8d0a0e5c4f27ead9083c756cc2",
                    "gasUsed": 461,
                    "id": 6,
                    "methodDecoded": false,
                    "operation": "CALL",
                    "output": "",
                    "revert": false,
                    "revertMessage": "",
                    "selector": "fallback",
                    "status": true,
                    "value": "0.064426590737067515"
                },
                "nodeType": 0
            },
            "7": {
                "invocation": {
                    "address": "0x08c21b200ed06d2e32cec91a770c3fca8ad5f877",
                    "callData": "0x",
                    "decodedMethod": null,
                    "errorInfo": "",
                    "fromAddress": "0x5c7bcd6e7de5423a257d81b442095a1a6ced35c5",
                    "gasUsed": 62,
                    "id": 7,
                    "methodDecoded": false,
                    "operation": "DELEGATECALL",
                    "output": "",
                    "revert": false,
                    "revertMessage": "",
                    "selector": "fallback",
                    "status": true,
                    "value": "0.064426590737067515"
                },
                "nodeType": 0
            },
            "8": {
                "event": {
                    "contract": "0xc02aaa39b223fe8d0a0e5c4f27ead9083c756cc2",
                    "decodedLog": {
                        "name": "Withdrawal",
                        "params": [
                            {
                                "name": "src",
                                "type": "address",
                                "value": "0x5c7bcd6e7de5423a257d81b442095a1a6ced35c5"
                            },
                            {
                                "name": "wad",
                                "type": "uint256",
                                "value": "64,426,590,737,067,515"
                            }
                        ],
                        "signature": "Withdrawal(address,uint256)"
                    },
                    "id": 8,
                    "logData": "0x00000000000000000000000000000000000000000000000000e4e3a496f8edfb",
                    "logDecoded": true,
                    "operation": "EVENT",
                    "revert": false,
                    "status": true,
                    "topics": [
                        "0x7fcf532c15f0a6db0bd6d0e038bea71d30d808c7d98cb3bf7268a95bf5081b65",
                        "0x0000000000000000000000005c7bcd6e7de5423a257d81b442095a1a6ced35c5"
                    ]
                },
                "nodeType": 1
            },
            "9": {
                "invocation": {
                    "address": "0x365cc7ccbd2fe227ceb263b7af3062ed71219d21",
                    "callData": "0x",
                    "decodedMethod": null,
                    "errorInfo": "",
                    "fromAddress": "0x5c7bcd6e7de5423a257d81b442095a1a6ced35c5",
                    "gasUsed": 0,
                    "id": 9,
                    "methodDecoded": false,
                    "operation": "CALL",
                    "output": "",
                    "revert": false,
                    "revertMessage": "",
                    "selector": "fallback",
                    "status": true,
                    "value": "0.064426590737067515"
                },
                "nodeType": 0
            }
        },
        "gasFlame": [
            {
                "children": [
                    {
                        "children": [
                            {
                                "children": [],
                                "depth": 0,
                                "name": "Initial Gas",
                                "value": 24256
                            },
                            {
                                "children": [
                                    {
                                        "children": [
                                            {
                                                "children": [],
                                                "depth": 2,
                                                "name": "transferFrom",
                                                "value": 15025
                                            },
                                            {
                                                "children": [
                                                    {
                                                        "children": [
                                                            {
                                                                "children": [],
                                                                "depth": 4,
                                                                "name": "fallback",
                                                                "value": 62
                                                            }
                                                        ],
                                                        "depth": 3,
                                                        "name": "fallback",
                                                        "value": 461
                                                    }
                                                ],
                                                "depth": 2,
                                                "name": "withdraw",
                                                "value": 9601
                                            },
                                            {
                                                "children": [],
                                                "depth": 2,
                                                "name": "fallback",
                                                "value": 0
                                            }
                                        ],
                                        "depth": 1,
                                        "name": "fillV3Relay",
                                        "value": 81548
                                    }
                                ],
                                "depth": 0,
                                "name": "Executed Gas",
                                "value": 86524
                            }
                        ],
                        "depth": -1,
                        "name": "Actual Gas Used",
                        "value": 105180
                    },
                    {
                        "children": [],
                        "depth": -1,
                        "name": "Refunded Gas",
                        "value": 5600
                    }
                ],
                "depth": -2,
                "name": "Total Gas",
                "value": 110780
            }
        ],
        "isConfirmed": true,
        "mainTrace": [
            {
                "children": [
                    {
                        "children": [
                            {
                                "children": [
                                    {
                                        "children": [],
                                        "depth": 2,
                                        "id": 2,
                                        "order": 2
                                    },
                                    {
                                        "children": [
                                            {
                                                "children": [],
                                                "depth": 3,
                                                "id": 4,
                                                "order": 4
                                            }
                                        ],
                                        "depth": 2,
                                        "id": 3,
                                        "order": 3
                                    },
                                    {
                                        "children": [
                                            {
                                                "children": [
                                                    {
                                                        "children": [],
                                                        "depth": 4,
                                                        "id": 7,
                                                        "order": 7
                                                    }
                                                ],
                                                "depth": 3,
                                                "id": 6,
                                                "order": 6
                                            },
                                            {
                                                "children": [],
                                                "depth": 3,
                                                "id": 8,
                                                "order": 8
                                            }
                                        ],
                                        "depth": 2,
                                        "id": 5,
                                        "order": 5
                                    },
                                    {
                                        "children": [],
                                        "depth": 2,
                                        "id": 9,
                                        "order": 9
                                    }
                                ],
                                "depth": 1,
                                "id": 1,
                                "order": 1
                            }
                        ],
                        "depth": 0,
                        "id": 0,
                        "order": 0
                    }
                ],
                "depth": -1,
                "id": -1,
                "order": -1
            }
        ],
        "mainTraceNodeCount": 10,
        "parentIdMap": {
            "0": -1,
            "1": 0,
            "2": 1,
            "3": 1,
            "4": 3,
            "5": 1,
            "6": 5,
            "7": 6,
            "8": 5,
            "9": 1
        },
        "tidyTrace": [
            {
                "children": [
                    {
                        "children": [
                            {
                                "children": [
                                    {
                                        "children": [],
                                        "depth": 2,
                                        "id": 2,
                                        "order": 2
                                    },
                                    {
                                        "children": [
                                            {
                                                "children": [],
                                                "depth": 3,
                                                "id": 4,
                                                "order": 4
                                            }
                                        ],
                                        "depth": 2,
                                        "id": 3,
                                        "order": 3
                                    },
                                    {
                                        "children": [
                                            {
                                                "children": [
                                                    {
                                                        "children": [],
                                                        "depth": 4,
                                                        "id": 7,
                                                        "order": 7
                                                    }
                                                ],
                                                "depth": 3,
                                                "id": 6,
                                                "order": 6
                                            },
                                            {
                                                "children": [],
                                                "depth": 3,
                                                "id": 8,
                                                "order": 8
                                            }
                                        ],
                                        "depth": 2,
                                        "id": 5,
                                        "order": 5
                                    },
                                    {
                                        "children": [],
                                        "depth": 2,
                                        "id": 9,
                                        "order": 9
                                    }
                                ],
                                "depth": 1,
                                "id": 1,
                                "order": 1
                            }
                        ],
                        "depth": 0,
                        "id": 0,
                        "order": 0
                    }
                ],
                "depth": -1,
                "id": -1,
                "order": -1
            }
        ],
        "tidyTraceNodeCount": 10
    },
    "state_change": {
        "stateChanges": [
            {
                "address": "0x5c7bcd6e7de5423a257d81b442095a1a6ced35c5",
                "erc": "",
                "slots": [
                    {
                        "current": "0x0000000000000000000000000000000000000000000000000000000000000002",
                        "key": "0x379f22300b7a6cbe1f42e9adc7c9a3e57d3292fe4ad8bb37a5b41c934f89ccc1",
                        "prev": "0x0000000000000000000000000000000000000000000000000000000000000000"
                    }
                ],
                "storageVariables": [
                    {
                        "name": "fillStatuses",
                        "type": "mapping(bytes32 => uint256)",
                        "value": {
                            "pairs": [
                                {
                                    "key": "0xb76ed9b403e0abf4a7d07672b903e73a8952b37bfb74ac01988f669927b4fc78",
                                    "value": {
                                        "current": "2",
                                        "prev": "0",
                                        "typeTag": 1
                                    }
                                }
                            ],
                            "typeTag": 4
                        }
                    }
                ]
            },
            {
                "address": "0xc02aaa39b223fe8d0a0e5c4f27ead9083c756cc2",
                "erc": "ERC-20",
                "slots": [
                    {
                        "current": "0x000000000000000000000000000000000000000000000000d8813b71bdfa31b6",
                        "key": "0x1c18645bb5b4f83381e6784c890adb9a67c0484b4aab916cf87147176044bf7a",
                        "prev": "0x000000000000000000000000000000000000000000000000d9661f1654f31fb1"
                    }
                ],
                "storageVariables": [
                    {
                        "name": "balanceOf",
                        "type": "mapping(address => uint256)",
                        "value": {
                            "pairs": [
                                {
                                    "key": "0x147b12c06d9e8e3837280f783fd8070848d4412e",
                                    "value": {
                                        "current": "15600815943892742582",
                                        "prev": "15665242534629810097",
                                        "typeTag": 1
                                    }
                                }
                            ],
                            "typeTag": 4
                        }
                    }
                ]
            }
        ]
    }
}