{
    "balance_change": {
        "balanceChanges": [
            {
                "account": "0x83f0f9a4d1a5a5c9c240ede88744b07e98cfa5a4",
                "assets": [
                    {
                        "address": "0xeeeeeeeeeeeeeeeeeeeeeeeeeeeeeeeeeeeeeeee",
                        "amount": "0.003149398188253514",
                        "iconUrl": "https://assets.blocksec.com/image/1663669189317-3.png",
                        "isERC1155": false,
                        "isERC721": false,
                        "sign": false,
                        "value": "5.3505583203030840636"
                    }
                ]
            },
            {
                "account": "0xc71930b83cbabfeb35bedaaf2122e41595179b14",
                "assets": [
                    {
                        "address": "0xeeeeeeeeeeeeeeeeeeeeeeeeeeeeeeeeeeeeeeee",
                        "amount": "0.003149398188253514",
                        "iconUrl": "https://assets.blocksec.com/image/1663669189317-3.png",
                        "isERC1155": false,
                        "isERC721": false,
                        "sign": true,
                        "value": "5.3505583203030840636"
                    }
                ]
            }
        ]
    },
    "profile": {
        "basic_info": {
            "baseFee": "4.810205788",
            "blockNumber": 15438644,
            "callData": "0xd136c19b000000000000000000000000000000000000000000000000000000000000006000000000000000000000000000000000000000000000000000000000000000e0ecc317c766af13464efba22935bf6abc1aebffe5285a66cac4c2cfdbef231a35000000000000000000000000000000000000000000000000000000000000000100000000000000000000000000000000000000000000000000000000000000200000000000000000000000000000000000000000000000000000000000000005777777776200000000000000000000000000000000000000000000000000000000000000000000000000000000000000000000000000000000000000000000010000000000000000000000000000000000000000000000000000000001e13380",
            "debugEnable": true,
            "errorInfo": "",
            "eventCount": 0,
            "feeRecipient": "0xea674fdde714fd979de3edf0f56aa9716b898ec8",
            "formatValue": "0.003149398188253514",
            "gasLimit": 262339,
            "gasPrice": "5",
            "gasUsed": 71861,
            "intTxnCount": 5,
            "internalRevert": false,
            "internalRevertMessage": "",
            "isContractCreation": false,
            "isFlashloan": false,
            "maxFee": "",
            "nonce": 2092,
            "overwritedBlockNumber": -1,
            "priorityFee": "",
            "receiver": "0xc71930b83cbabfeb35bedaaf2122e41595179b14",
            "revertMessage": "",
            "sender": "0x83f0f9a4d1a5a5c9c240ede88744b07e98cfa5a4",
            "simulationEnable": true,
            "sourceTxnHash": "0xeb3b8f8de9b15b65e573822f537bf12c689abf82dce1b94a2637e85489253cf8",
            "status": true,
            "timestamp": "2022-08-30T05:50:27Z",
            "transactionFee": "0.000359305",
            "txnHash": "0xeb3b8f8de9b15b65e573822f537bf12c689abf82dce1b94a2637e85489253cf8",
            "txnIndex": 226,
            "type": 0,
            "value": "3149398188253514"
        },
        "fund_flow": [
            {
                "amount": "0.003149398188253514",
                "from": "0x83f0f9a4d1a5a5c9c240ede88744b07e98cfa5a4",
                "id": 1,
                "isERC1155": false,
                "isERC721": false,
                "isReverted": false,
                "order": 1,
                "to": "0xc71930b83cbabfeb35bedaaf2122e41595179b14",
                "token": "0xeeeeeeeeeeeeeeeeeeeeeeeeeeeeeeeeeeeeeeee"
            }
        ],
        "token_infos": [
            {
                "address": "0xc02aaa39b223fe8d0a0e5c4f27ead9083c756cc2",
                "decimals": 18
            },
            {
                "address": "0xeeeeeeeeeeeeeeeeeeeeeeeeeeeeeeeeeeeeeeee",
                "decimals": 18
            }
        ]
    },
    "address_label": {
        "labels": [
            {
                "address": "0xcf7fe2e614f568989869f4aade060f4eb8a105be",
                "label": "ExponentialPremiumPriceOracle"
            },
            {
                "address": "0x283af0b28c62c092c9727f1ee09c02ca627eb7f5",
                "label": "ENS: Old ETH Registrar Controller"
            },
            {
                "address": "0x0000000000000000000000000000000000000002",
                "label": "Precompiled"
            },
            {
                "address": "0x0000000000000000000000000000000000000003",
                "label": "Precompiled"
            },
            {
                "address": "0x57f1887a8bf19b14fc0df6fd9b2acc9af147ea85",
                "label": "ENS: Base Registrar Implementation"
            },
            {
                "address": "0x37bc7498f4ff12c19678ee8fe19d713b87f6a9e6",
                "label": "AccessControlledOffchainAggregator"
            },
            {
                "address": "0x5f4ec3df9cbd43714fe2740f5e3616155c5b8419",
                "label": "EACAggregatorProxy"
            },
            {
                "address": "0x0000000000000000000000000000000000000001",
                "label": "Precompiled"
            },
            {
                "address": "0x0000000000000000000000000000000000000004",
                "label": "Precompiled"
            },
            {
                "address": "0xeeeeeeeeeeeeeeeeeeeeeeeeeeeeeeeeeeeeeeee",
                "label": "Ether"
            }
        ]
    },
    "trace": {
        "accountLabels": null,
        "dataMap": {
            "-1": {
                "invocation": {
                    "address": "0x83f0f9a4d1a5a5c9c240ede88744b07e98cfa5a4",
                    "callData": "",
                    "decodedMethod": null,
                    "errorInfo": "",
                    "fromAddress": "",
                    "gasUsed": 0,
                    "id": -1,
                    "methodDecoded": false,
                    "operation": "",
                    "output": "",
                    "revert": false,
                    "revertMessage": "",
                    "selector": "",
                    "status": false,
                    "value": ""
                },
                "nodeType": 0
            },
            "0": {
                "invocation": {
                    "address": "0xc71930b83cbabfeb35bedaaf2122e41595179b14",
                    "callData": "0x000000000000000000000000000000000000000000000000000000000000006000000000000000000000000000000000000000000000000000000000000000e0ecc317c766af13464efba22935bf6abc1aebffe5285a66cac4c2cfdbef231a35000000000000000000000000000000000000000000000000000000000000000100000000000000000000000000000000000000000000000000000000000000200000000000000000000000000000000000000000000000000000000000000005777777776200000000000000000000000000000000000000000000000000000000000000000000000000000000000000000000000000000000000000000000010000000000000000000000000000000000000000000000000000000001e13380",
                    "decodedMethod": {
                        "callParams": [
                            {
                                "name": "names",
                                "type": "string[]",
                                "value": [
                                    "wwwwb"
                                ]
                            },
                            {
                                "name": "durations",
                                "type": "uint256[]",
                                "value": [
                                    "31,536,000"
                                ]
                            },
                            {
                                "name": "secret",
                                "type": "bytes32",
                                "value": "0xecc317c766af13464efba22935bf6abc1aebffe5285a66cac4c2cfdbef231a35"
                            }
                        ],
                        "constructorArguments": "",
                        "name": "register",
                        "returnParams": [],
                        "signature": "register(string[],uint256[],bytes32)"
                    },
                    "errorInfo": "",
                    "fromAddress": "0x83f0f9a4d1a5a5c9c240ede88744b07e98cfa5a4",
                    "gasUsed": 71861,
                    "id": 0,
                    "methodDecoded": true,
                    "operation": "CALL",
                    "output": "0x0000000000000000000000000000000000000000000000000000000000000000",
                    "revert": false,
                    "revertMessage": "",
                    "selector": "0xd136c19b",
                    "status": true,
                    "value": "0.003149398188253514"
                },
                "nodeType": 0
            },
            "1": {
                "invocation": {
                    "address": "0x283af0b28c62c092c9727f1ee09c02ca627eb7f5",
                    "callData": "0x00000000000000000000000000000000000000000000000000000000000000400000000000000000000000000000000000000000000000000000000001e1338000000000000000000000000000000000000000000000000000000000000000057777777762000000000000000000000000000000000000000000000000000000",
                    "decodedMethod": {
                        "callParams": [
                            {
                                "name": "name",
                                "type": "string",
                                "value": "wwwwb"
                            },
                            {
                                "name": "duration",
                                "type": "uint256",
                                "value": "31,536,000"
                            }
                        ],
                        "constructorArguments": "",
                        "name": "rentPrice",
                        "returnParams": [
                            {
                                "name": "",
                                "type": "uint256",
                                "value": "3,165,458,516,669,674"
                            }
                        ],
                        "signature": "rentPrice(string,uint256)"
                    },
                    "errorInfo": "",
                    "fromAddress": "0xc71930b83cbabfeb35bedaaf2122e41595179b14",
                    "gasUsed": 41912,
                    "id": 1,
                    "methodDecoded": true,
                    "operation": "STATICCALL",
                    "output": "0x000000000000000000000000000000000000000000000000000b3ef7be6ff4ea",
                    "revert": false,
                    "revertMessage": "",
                    "selector": "0x83e7f6ff",
                    "status": true,
                    "value": "0"
                },
                "nodeType": 0
            },
            "2": {
                "invocation": {
                    "address": "0x57f1887a8bf19b14fc0df6fd9b2acc9af147ea85",
                    "callData": "0x00caedb0d7c80f892d1f951dd541dbdf77af4e545310ea5d44a9d314f08a28da",
                    "decodedMethod": {
                        "callParams": [
                            {
                                "name": "id",
                                "type": "uint256",
                                "value": "358,543,588,644,479,318,451,930,859,326,959,903,230,161,097,194,685,992,429,499,189,664,514,975,962"
                            }
                        ],
                        "constructorArguments": "",
                        "name": "nameExpires",
                        "returnParams": [
                            {
                                "name": "",
                                "type": "uint256",
                                "value": "0"
                            }
                        ],
                        "signature": "nameExpires(uint256)"
                    },
                    "errorInfo": "",
                    "fromAddress": "0x283af0b28c62c092c9727f1ee09c02ca627eb7f5",
                    "gasUsed": 2523,
                    "id": 2,
                    "methodDecoded": true,
                    "operation": "STATICCALL",
                    "output": "0x0000000000000000000000000000000000000000000000000000000000000000",
                    "revert": false,
                    "revertMessage": "",
                    "selector": "0xd6e4fa86",
                    "status": true,
                    "value": "0"
                },
                "nodeType": 0
            },
            "3": {
                "invocation": {
                    "address": "0xcf7fe2e614f568989869f4aade060f4eb8a105be",
                    "callData": "0x000000000000000000000000000000000000000000000000000000000000006000000000000000000000000000000000000000000000000000000000000000000000000000000000000000000000000000000000000000000000000001e1338000000000000000000000000000000000000000000000000000000000000000057777777762000000000000000000000000000000000000000000000000000000",
                    "decodedMethod": {
                        "callParams": [
                            {
                                "name": "name",
                                "type": "string",
                                "value": "wwwwb"
                            },
                            {
                                "name": "expires",
                                "type": "uint256",
                                "value": "0"
                            },
                            {
                                "name": "duration",
                                "type": "uint256",
                                "value": "31,536,000"
                            }
                        ],
                        "constructorArguments": "",
                        "name": "price",
                        "returnParams": [
                            {
                                "name": "",
                                "type": "uint256",
                                "value": "3,165,458,516,669,674"
                            }
                        ],
                        "signature": "price(string,uint256,uint256)"
                    },
                    "errorInfo": "",
                    "fromAddress": "0x283af0b28c62c092c9727f1ee09c02ca627eb7f5",
                    "gasUsed": 28062,
                    "id": 3,
                    "methodDecoded": true,
                    "operation": "STATICCALL",
                    "output": "0x000000000000000000000000000000000000000000000000000b3ef7be6ff4ea",
                    "revert": false,
                    "revertMessage": "",
                    "selector": "0x50e9a715",
                    "status": true,
                    "value": "0"
                },
                "nodeType": 0
            },
            "4": {
                "invocation": {
                    "address": "0x5f4ec3df9cbd43714fe2740f5e3616155c5b8419",
                    "callData": "0x",
                    "decodedMethod": {
                        "callParams": [],
                        "constructorArguments": "",
                        "name": "latestAnswer",
                        "returnParams": [
                            {
                                "name": "",
                                "type": "int256",
                                "value": "157,955,000,000"
                            }
                        ],
                        "signature": "latestAnswer()"
                    },
                    "errorInfo": "",
                    "fromAddress": "0xcf7fe2e614f568989869f4aade060f4eb8a105be",
                    "gasUsed": 14637,
                    "id": 4,
                    "methodDecoded": true,
                    "operation": "STATICCALL",
                    "output": "0x00000000000000000000000000000000000000000000000000000024c6da06c0",
                    "revert": false,
                    "revertMessage": "",
                    "selector": "0x50d25bcd",
                    "status": true,
                    "value": "0"
                },
                "nodeType": 0
            },
            "5": {
                "invocation": {
                    "address": "0x37bc7498f4ff12c19678ee8fe19d713b87f6a9e6",
                    "callData": "0x",
                    "decodedMethod": {
                        "callParams": [],
                        "constructorArguments": "",
                        "name": "latestAnswer",
                        "returnParams": [
                            {
                                "name": "",
                                "type": "int256",
                                "value": "157,955,000,000"
                            }
                        ],
                        "signature": "latestAnswer()"
                    },
                    "errorInfo": "",
                    "fromAddress": "0x5f4ec3df9cbd43714fe2740f5e3616155c5b8419",
                    "gasUsed": 7141,
                    "id": 5,
                    "methodDecoded": true,
                    "operation": "STATICCALL",
                    "output": "0x00000000000000000000000000000000000000000000000000000024c6da06c0",
                    "revert": false,
                    "revertMessage": "",
                    "selector": "0x50d25bcd",
                    "status": true,
                    "value": "0"
                },
                "nodeType": 0
            }
        },
        "gasFlame": [
            {
                "children": [
                    {
                        "children": [
                            {
                                "children": [],
                                "depth": 0,
                                "name": "Initial Gas",
                                "value": 22780
                            },
                            {
                                "children": [
                                    {
                                        "children": [
                                            {
                                                "children": [],
                                                "depth": 2,
                                                "name": "nameExpires",
                                                "value": 2523
                                            },
                                            {
                                                "children": [
                                                    {
                                                        "children": [
                                                            {
                                                                "children": [],
                                                                "depth": 4,
                                                                "name": "latestAnswer",
                                                                "value": 7141
                                                            }
                                                        ],
                                                        "depth": 3,
                                                        "name": "latestAnswer",
                                                        "value": 14637
                                                    }
                                                ],
                                                "depth": 2,
                                                "name": "price",
                                                "value": 28062
                                            }
                                        ],
                                        "depth": 1,
                                        "name": "rentPrice",
                                        "value": 41912
                                    }
                                ],
                                "depth": 0,
                                "name": "Executed Gas",
                                "value": 49081
                            }
                        ],
                        "depth": -1,
                        "name": "Actual Gas Used",
                        "value": 71861
                    },
                    {
                        "children": [],
                        "depth": -1,
                        "name": "Refunded Gas",
                        "value": 0
                    }
                ],
                "depth": -2,
                "name": "Total Gas",
                "value": 71861
            }
        ],
        "isConfirmed": true,
        "mainTrace": [
            {
                "children": [
                    {
                        "children": [
                            {
                                "children": [
                                    {
                                        "children": [],
                                        "depth": 2,
                                        "id": 2,
                                        "order": 2
                                    },
                                    {
                                        "children": [
                                            {
                                                "children": [
                                                    {
                                                        "children": [],
                                                        "depth": 4,
                                                        "id": 5,
                                                        "order": 5
                                                    }
                                                ],
                                                "depth": 3,
                                                "id": 4,
                                                "order": 4
                                            }
                                        ],
                                        "depth": 2,
                                        "id": 3,
                                        "order": 3
                                    }
                                ],
                                "depth": 1,
                                "id": 1,
                                "order": 1
                            }
                        ],
                        "depth": 0,
                        "id": 0,
                        "order": 0
                    }
                ],
                "depth": -1,
                "id": -1,
                "order": -1
            }
        ],
        "mainTraceNodeCount": 6,
        "parentIdMap": {
            "0": -1,
            "1": 0,
            "2": 1,
            "3": 1,
            "4": 3,
            "5": 4
        },
        "tidyTrace": [
            {
                "children": [
                    {
                        "children": [],
                        "depth": 0,
                        "id": 0,
                        "order": 0
                    }
                ],
                "depth": -1,
                "id": -1,
                "order": -1
            }
        ],
        "tidyTraceNodeCount": 1
    },
    "state_change": {
        "stateChanges": []
    }
}