{
    "balance_change": {
        "balanceChanges": [
            {
                "account": "0x073cec56c4129c90b2ded3c7647d6b9c32b004d7",
                "assets": [
                    {
                        "address": "0x389fdd55ca3ecc124ec79d795c401f15c7c16ebb",
                        "amount": "104",
                        "iconUrl": "",
                        "isERC1155": false,
                        "isERC721": false,
                        "sign": false,
                        "value": ""
                    }
                ]
            },
            {
                "account": "0xcb03bfdccb50c9f62ec1c728f264bf453e037132",
                "assets": [
                    {
                        "address": "0x389fdd55ca3ecc124ec79d795c401f15c7c16ebb",
                        "amount": "104",
                        "iconUrl": "",
                        "isERC1155": false,
                        "isERC721": false,
                        "sign": true,
                        "value": ""
                    }
                ]
            }
        ]
    },
    "profile": {
        "basic_info": {
            "baseFee": "",
            "blockNumber": 8782570,
            "callData": "0xa9059cbb000000000000000000000000cb03bfdccb50c9f62ec1c728f264bf453e037132000000000000000000000000000000000000000000000005a34a38fc00a00000",
            "debugEnable": true,
            "errorInfo": "",
            "eventCount": 1,
            "feeRecipient": "0x52bc44d5378309ee2abf1539bf71de1b7d7be3b5",
            "formatValue": "0",
            "gasLimit": 120000,
            "gasPrice": "25",
            "gasUsed": 23292,
            "intTxnCount": 0,
            "internalRevert": false,
            "internalRevertMessage": "",
            "isContractCreation": false,
            "isFlashloan": false,
            "maxFee": "",
            "nonce": 1,
            "overwritedBlockNumber": -1,
            "priorityFee": "",
            "receiver": "0x389fdd55ca3ecc124ec79d795c401f15c7c16ebb",
            "revertMessage": "",
            "sender": "0x073cec56c4129c90b2ded3c7647d6b9c32b004d7",
            "simulationEnable": true,
            "sourceTxnHash": "0xec369fde219645046bd5856b9781e6e795189f0f7a42409ada12f18d67eed2f1",
            "status": true,
            "timestamp": "2019-10-21T07:17:56Z",
            "transactionFee": "0.0005823",
            "txnHash": "0xec369fde219645046bd5856b9781e6e795189f0f7a42409ada12f18d67eed2f1",
            "txnIndex": 15,
            "type": 0,
            "value": "0"
        },
        "fund_flow": [
            {
                "amount": "104",
                "from": "0x073cec56c4129c90b2ded3c7647d6b9c32b004d7",
                "id": 1,
                "isERC1155": false,
                "isERC721": false,
                "isReverted": false,
                "order": 1,
                "to": "0xcb03bfdccb50c9f62ec1c728f264bf453e037132",
                "token": "0x389fdd55ca3ecc124ec79d795c401f15c7c16ebb"
            }
        ],
        "token_infos": [
            {
                "address": "0x389fdd55ca3ecc124ec79d795c401f15c7c16ebb",
                "decimals": 18
            },
            {
                "address": "0xc02aaa39b223fe8d0a0e5c4f27ead9083c756cc2",
                "decimals": 18
            },
            {
                "address": "0xeeeeeeeeeeeeeeeeeeeeeeeeeeeeeeeeeeeeeeee",
                "decimals": 18
            }
        ]
    },
    "address_label": {
        "labels": [
            {
                "address": "0xeeeeeeeeeeeeeeeeeeeeeeeeeeeeeeeeeeeeeeee",
                "label": "Ether"
            },
            {
                "address": "0x389fdd55ca3ecc124ec79d795c401f15c7c16ebb",
                "label": "FTC"
            },
            {
                "address": "0x0000000000000000000000000000000000000001",
                "label": "Precompiled"
            },
            {
                "address": "0x0000000000000000000000000000000000000002",
                "label": "Precompiled"
            },
            {
                "address": "0x0000000000000000000000000000000000000003",
                "label": "Precompiled"
            },
            {
                "address": "0x0000000000000000000000000000000000000004",
                "label": "Precompiled"
            }
        ]
    },
    "trace": {
        "accountLabels": null,
        "dataMap": {
            "-1": {
                "invocation": {
                    "address": "0x073cec56c4129c90b2ded3c7647d6b9c32b004d7",
                    "callData": "",
                    "decodedMethod": null,
                    "errorInfo": "",
                    "fromAddress": "",
                    "gasUsed": 0,
                    "id": -1,
                    "methodDecoded": false,
                    "operation": "",
                    "output": "",
                    "revert": false,
                    "revertMessage": "",
                    "selector": "",
                    "status": false,
                    "value": ""
                },
                "nodeType": 0
            },
            "0": {
                "invocation": {
                    "address": "0x389fdd55ca3ecc124ec79d795c401f15c7c16ebb",
                    "callData": "0x000000000000000000000000cb03bfdccb50c9f62ec1c728f264bf453e037132000000000000000000000000000000000000000000000005a34a38fc00a00000",
                    "decodedMethod": {
                        "callParams": [
                            {
                                "name": "_to",
                                "type": "address",
                                "value": "0xcb03bfdccb50c9f62ec1c728f264bf453e037132"
                            },
                            {
                                "decimalAvailable": true,
                                "name": "_value",
                                "type": "uint256",
                                "value": "104,000,000,000,000,000,000"
                            }
                        ],
                        "constructorArguments": "",
                        "name": "transfer",
                        "returnParams": [
                            {
                                "name": "success",
                                "type": "bool",
                                "value": true
                            }
                        ],
                        "signature": "transfer(address,uint256)"
                    },
                    "errorInfo": "",
                    "fromAddress": "0x073cec56c4129c90b2ded3c7647d6b9c32b004d7",
                    "gasUsed": 23292,
                    "id": 0,
                    "methodDecoded": true,
                    "operation": "CALL",
                    "output": "0x0000000000000000000000000000000000000000000000000000000000000001",
                    "revert": false,
                    "revertMessage": "",
                    "selector": "0xa9059cbb",
                    "status": true,
                    "value": "0"
                },
                "nodeType": 0
            },
            "1": {
                "event": {
                    "contract": "0x389fdd55ca3ecc124ec79d795c401f15c7c16ebb",
                    "decodedLog": {
                        "name": "Transfer",
                        "params": [
                            {
                                "name": "from",
                                "type": "address",
                                "value": "0x073cec56c4129c90b2ded3c7647d6b9c32b004d7"
                            },
                            {
                                "name": "to",
                                "type": "address",
                                "value": "0xcb03bfdccb50c9f62ec1c728f264bf453e037132"
                            },
                            {
                                "decimalAvailable": true,
                                "name": "value",
                                "type": "uint256",
                                "value": "104,000,000,000,000,000,000"
                            }
                        ],
                        "signature": "Transfer(address,address,uint256)"
                    },
                    "id": 1,
                    "logData": "0x000000000000000000000000000000000000000000000005a34a38fc00a00000",
                    "logDecoded": true,
                    "operation": "EVENT",
                    "revert": false,
                    "status": true,
                    "topics": [
                        "0xddf252ad1be2c89b69c2b068fc378daa952ba7f163c4a11628f55a4df523b3ef",
                        "0x000000000000000000000000073cec56c4129c90b2ded3c7647d6b9c32b004d7",
                        "0x000000000000000000000000cb03bfdccb50c9f62ec1c728f264bf453e037132"
                    ]
                },
                "nodeType": 1
            }
        },
        "gasFlame": [
            {
                "children": [
                    {
                        "children": [
                            {
                                "children": [],
                                "depth": 0,
                                "name": "Initial Gas",
                                "value": 23192
                            },
                            {
                                "children": [],
                                "depth": 0,
                                "name": "Executed Gas",
                                "value": 15100
                            }
                        ],
                        "depth": -1,
                        "name": "Actual Gas Used",
                        "value": 23292
                    },
                    {
                        "children": [],
                        "depth": -1,
                        "name": "Refunded Gas",
                        "value": 15000
                    }
                ],
                "depth": -2,
                "name": "Total Gas",
                "value": 38292
            }
        ],
        "isConfirmed": true,
        "mainTrace": [
            {
                "children": [
                    {
                        "children": [
                            {
                                "children": [],
                                "depth": 1,
                                "id": 1,
                                "order": 1
                            }
                        ],
                        "depth": 0,
                        "id": 0,
                        "order": 0
                    }
                ],
                "depth": -1,
                "id": -1,
                "order": -1
            }
        ],
        "mainTraceNodeCount": 2,
        "parentIdMap": {
            "0": -1,
            "1": 0
        },
        "tidyTrace": [
            {
                "children": [
                    {
                        "children": [
                            {
                                "children": [],
                                "depth": 1,
                                "id": 1,
                                "order": 1
                            }
                        ],
                        "depth": 0,
                        "id": 0,
                        "order": 0
                    }
                ],
                "depth": -1,
                "id": -1,
                "order": -1
            }
        ],
        "tidyTraceNodeCount": 2
    },
    "state_change": {
        "stateChanges": [
            {
                "address": "0x389fdd55ca3ecc124ec79d795c401f15c7c16ebb",
                "erc": "ERC-20",
                "slots": [
                    {
                        "current": "0x0000000000000000000000000000000000000000000000000000000000000000",
                        "key": "0xe034b2ae2311237cf6aa94b89124475df07e08d4fbda02e6134a77357ed6a08b",
                        "prev": "0x000000000000000000000000000000000000000000000005a34a38fc00a00000"
                    },
                    {
                        "current": "0x000000000000000000000000000000000000000003378b854df601bf07288000",
                        "key": "0xb71e85ba63bc622a2cbf5ef8ea4260bddd78e346d6cd21b528c51c69bcbc9dff",
                        "prev": "0x000000000000000000000000000000000000000003378b7faaabc8c306888000"
                    }
                ],
                "storageVariables": [
                    {
                        "name": "balanceOf",
                        "type": "mapping(address => uint256)",
                        "value": {
                            "pairs": [
                                {
                                    "key": "0x073cec56c4129c90b2ded3c7647d6b9c32b004d7",
                                    "value": {
                                        "current": "0",
                                        "prev": "104000000000000000000",
                                        "typeTag": 1
                                    }
                                },
                                {
                                    "key": "0xcb03bfdccb50c9f62ec1c728f264bf453e037132",
                                    "value": {
                                        "current": "995604817518600000000000000",
                                        "prev": "995604713518600000000000000",
                                        "typeTag": 1
                                    }
                                }
                            ],
                            "typeTag": 4
                        }
                    }
                ]
            }
        ]
    }
}