{
    "balance_change": {
        "balanceChanges": [
            {
                "account": "0x5b3edcdd6d48c88bbf20ca469af58909a4c42030",
                "assets": [
                    {
                        "address": "0xb23d80f5fefcddaa212212f028021b41ded428cf",
                        "amount": "75.0002",
                        "iconUrl": "",
                        "isERC1155": false,
                        "isERC721": false,
                        "sign": false,
                        "value": "279.75074599999999866"
                    }
                ]
            },
            {
                "account": "0x5ea9fce7f51d4d936d94706e8c5010f033aba983",
                "assets": [
                    {
                        "address": "0xb23d80f5fefcddaa212212f028021b41ded428cf",
                        "amount": "75.0002",
                        "iconUrl": "",
                        "isERC1155": false,
                        "isERC721": false,
                        "sign": true,
                        "value": "279.75074599999999866"
                    }
                ]
            }
        ]
    },
    "profile": {
        "basic_info": {
            "baseFee": "9.206253034",
            "blockNumber": 18250165,
            "callData": "0xa9059cbb0000000000000000000000005ea9fce7f51d4d936d94706e8c5010f033aba98300000000000000000000000000000000000000000000000410d63c882b408000",
            "debugEnable": true,
            "errorInfo": "",
            "eventCount": 1,
            "feeRecipient": "0x690b9a9e9aa1c9db991c7721a92d351db4fac990",
            "formatValue": "0",
            "gasLimit": 55134,
            "gasPrice": "9.217253034",
            "gasUsed": 31956,
            "intTxnCount": 0,
            "internalRevert": false,
            "internalRevertMessage": "",
            "isContractCreation": false,
            "isFlashloan": false,
            "maxFee": "10.675256101",
            "nonce": 356,
            "overwritedBlockNumber": -1,
            "priorityFee": "0.011",
            "receiver": "0xb23d80f5fefcddaa212212f028021b41ded428cf",
            "revertMessage": "",
            "sender": "0x5b3edcdd6d48c88bbf20ca469af58909a4c42030",
            "simulationEnable": true,
            "sourceTxnHash": "0xecfeb5dbbac1eb84563e536ebed88c76e5621810a95c81e1458af71ac999ac03",
            "status": true,
            "timestamp": "2023-09-30T17:59:11Z",
            "transactionFee": "0.000294546537954504",
            "txnHash": "0xecfeb5dbbac1eb84563e536ebed88c76e5621810a95c81e1458af71ac999ac03",
            "txnIndex": 162,
            "type": 2,
            "value": "0"
        },
        "fund_flow": [
            {
                "amount": "75.0002",
                "from": "0x5b3edcdd6d48c88bbf20ca469af58909a4c42030",
                "id": 1,
                "isERC1155": false,
                "isERC721": false,
                "isReverted": false,
                "order": 1,
                "to": "0x5ea9fce7f51d4d936d94706e8c5010f033aba983",
                "token": "0xb23d80f5fefcddaa212212f028021b41ded428cf"
            }
        ],
        "token_infos": [
            {
                "address": "0xb23d80f5fefcddaa212212f028021b41ded428cf",
                "decimals": 18
            },
            {
                "address": "0xc02aaa39b223fe8d0a0e5c4f27ead9083c756cc2",
                "decimals": 18
            },
            {
                "address": "0xeeeeeeeeeeeeeeeeeeeeeeeeeeeeeeeeeeeeeeee",
                "decimals": 18
            }
        ]
    },
    "address_label": {
        "labels": [
            {
                "address": "0xeeeeeeeeeeeeeeeeeeeeeeeeeeeeeeeeeeeeeeee",
                "label": "Ether"
            },
            {
                "address": "0xb23d80f5fefcddaa212212f028021b41ded428cf",
                "label": "Prime Foundation: PRIME Token"
            },
            {
                "address": "0x0000000000000000000000000000000000000001",
                "label": "Precompiled"
            },
            {
                "address": "0x0000000000000000000000000000000000000002",
                "label": "Precompiled"
            },
            {
                "address": "0x0000000000000000000000000000000000000003",
                "label": "Precompiled"
            },
            {
                "address": "0x0000000000000000000000000000000000000004",
                "label": "Precompiled"
            }
        ]
    },
    "trace": {
        "accountLabels": null,
        "dataMap": {
            "-1": {
                "invocation": {
                    "address": "0x5b3edcdd6d48c88bbf20ca469af58909a4c42030",
                    "callData": "",
                    "decodedMethod": null,
                    "errorInfo": "",
                    "fromAddress": "",
                    "gasUsed": 0,
                    "id": -1,
                    "methodDecoded": false,
                    "operation": "",
                    "output": "",
                    "revert": false,
                    "revertMessage": "",
                    "selector": "",
                    "status": false,
                    "value": ""
                },
                "nodeType": 0
            },
            "0": {
                "invocation": {
                    "address": "0xb23d80f5fefcddaa212212f028021b41ded428cf",
                    "callData": "0x0000000000000000000000005ea9fce7f51d4d936d94706e8c5010f033aba98300000000000000000000000000000000000000000000000410d63c882b408000",
                    "decodedMethod": {
                        "callParams": [
                            {
                                "name": "to",
                                "type": "address",
                                "value": "0x5ea9fce7f51d4d936d94706e8c5010f033aba983"
                            },
                            {
                                "decimalAvailable": true,
                                "name": "amount",
                                "type": "uint256",
                                "value": "75,000,200,000,000,000,000"
                            }
                        ],
                        "constructorArguments": "",
                        "name": "transfer",
                        "returnParams": [
                            {
                                "name": "",
                                "type": "bool",
                                "value": true
                            }
                        ],
                        "signature": "transfer(address,uint256)"
                    },
                    "errorInfo": "",
                    "fromAddress": "0x5b3edcdd6d48c88bbf20ca469af58909a4c42030",
                    "gasUsed": 31956,
                    "id": 0,
                    "methodDecoded": true,
                    "operation": "CALL",
                    "output": "0x0000000000000000000000000000000000000000000000000000000000000001",
                    "revert": false,
                    "revertMessage": "",
                    "selector": "0xa9059cbb",
                    "status": true,
                    "value": "0"
                },
                "nodeType": 0
            },
            "1": {
                "event": {
                    "contract": "0xb23d80f5fefcddaa212212f028021b41ded428cf",
                    "decodedLog": {
                        "name": "Transfer",
                        "params": [
                            {
                                "name": "from",
                                "type": "address",
                                "value": "0x5b3edcdd6d48c88bbf20ca469af58909a4c42030"
                            },
                            {
                                "name": "to",
                                "type": "address",
                                "value": "0x5ea9fce7f51d4d936d94706e8c5010f033aba983"
                            },
                            {
                                "decimalAvailable": true,
                                "name": "value",
                                "type": "uint256",
                                "value": "75,000,200,000,000,000,000"
                            }
                        ],
                        "signature": "Transfer(address,address,uint256)"
                    },
                    "id": 1,
                    "logData": "0x00000000000000000000000000000000000000000000000410d63c882b408000",
                    "logDecoded": true,
                    "operation": "EVENT",
                    "revert": false,
                    "status": true,
                    "topics": [
                        "0xddf252ad1be2c89b69c2b068fc378daa952ba7f163c4a11628f55a4df523b3ef",
                        "0x0000000000000000000000005b3edcdd6d48c88bbf20ca469af58909a4c42030",
                        "0x0000000000000000000000005ea9fce7f51d4d936d94706e8c5010f033aba983"
                    ]
                },
                "nodeType": 1
            }
        },
        "gasFlame": [
            {
                "children": [
                    {
                        "children": [
                            {
                                "children": [],
                                "depth": 0,
                                "name": "Initial Gas",
                                "value": 21656
                            },
                            {
                                "children": [],
                                "depth": 0,
                                "name": "Executed Gas",
                                "value": 15100
                            }
                        ],
                        "depth": -1,
                        "name": "Actual Gas Used",
                        "value": 31956
                    },
                    {
                        "children": [],
                        "depth": -1,
                        "name": "Refunded Gas",
                        "value": 4800
                    }
                ],
                "depth": -2,
                "name": "Total Gas",
                "value": 36756
            }
        ],
        "isConfirmed": true,
        "mainTrace": [
            {
                "children": [
                    {
                        "children": [
                            {
                                "children": [],
                                "depth": 1,
                                "id": 1,
                                "order": 1
                            }
                        ],
                        "depth": 0,
                        "id": 0,
                        "order": 0
                    }
                ],
                "depth": -1,
                "id": -1,
                "order": -1
            }
        ],
        "mainTraceNodeCount": 2,
        "parentIdMap": {
            "0": -1,
            "1": 0
        },
        "tidyTrace": [
            {
                "children": [
                    {
                        "children": [
                            {
                                "children": [],
                                "depth": 1,
                                "id": 1,
                                "order": 1
                            }
                        ],
                        "depth": 0,
                        "id": 0,
                        "order": 0
                    }
                ],
                "depth": -1,
                "id": -1,
                "order": -1
            }
        ],
        "tidyTraceNodeCount": 2
    },
    "state_change": {
        "stateChanges": [
            {
                "address": "0xb23d80f5fefcddaa212212f028021b41ded428cf",
                "erc": "ERC-20",
                "slots": [
                    {
                        "current": "0x0000000000000000000000000000000000000000000000000000000000000000",
                        "key": "0xf61915328128fb3a4b16716f3a6d11a7a4a8ce44f90dc12a11e2d0cd4d564829",
                        "prev": "0x00000000000000000000000000000000000000000000000410d63c882b408000"
                    },
                    {
                        "current": "0x0000000000000000000000000000000000000000000000061841343ad8928000",
                        "key": "0xe83ba19d63ccb5a4ec86d7b5dfccb2b70da3129b7f2ccfc39fbd7842e43f7f8b",
                        "prev": "0x000000000000000000000000000000000000000000000002076af7b2ad520000"
                    }
                ],
                "storageVariables": [
                    {
                        "name": "_balances",
                        "type": "mapping(address => uint256)",
                        "value": {
                            "pairs": [
                                {
                                    "key": "0x5b3edcdd6d48c88bbf20ca469af58909a4c42030",
                                    "value": {
                                        "current": "0",
                                        "prev": "75000200000000000000",
                                        "typeTag": 1
                                    }
                                },
                                {
                                    "key": "0x5ea9fce7f51d4d936d94706e8c5010f033aba983",
                                    "value": {
                                        "current": "112428200000000000000",
                                        "prev": "37428000000000000000",
                                        "typeTag": 1
                                    }
                                }
                            ],
                            "typeTag": 4
                        }
                    }
                ]
            }
        ]
    }
}