{
    "balance_change": {
        "balanceChanges": [
            {
                "account": "0xb7ab2c93c74fc6d913c4cc99b99801e6a2c3e9db",
                "assets": [
                    {
                        "address": "0xeeeeeeeeeeeeeeeeeeeeeeeeeeeeeeeeeeeeeeee",
                        "amount": "0.05",
                        "iconUrl": "https://assets.blocksec.com/image/1663669189317-3.png",
                        "isERC1155": false,
                        "isERC721": false,
                        "sign": false,
                        "value": ""
                    }
                ]
            },
            {
                "account": "0x05fbbba582a1768329522f58a138c83193645f15",
                "assets": [
                    {
                        "address": "0xeeeeeeeeeeeeeeeeeeeeeeeeeeeeeeeeeeeeeeee",
                        "amount": "0.05",
                        "iconUrl": "https://assets.blocksec.com/image/1663669189317-3.png",
                        "isERC1155": false,
                        "isERC721": false,
                        "sign": true,
                        "value": ""
                    }
                ]
            }
        ]
    },
    "profile": {
        "basic_info": {
            "baseFee": "",
            "blockNumber": 9929308,
            "callData": "0xf6838a720000000000000000000000000000000000000000000000000000000000000002",
            "debugEnable": true,
            "errorInfo": "",
            "eventCount": 2,
            "feeRecipient": "0x652d38d814bcdf3e0f750a0faf272ee96c1f67ed",
            "formatValue": "0.05",
            "gasLimit": 89773,
            "gasPrice": "20",
            "gasUsed": 64124,
            "intTxnCount": 1,
            "internalRevert": false,
            "internalRevertMessage": "",
            "isContractCreation": false,
            "isFlashloan": false,
            "maxFee": "",
            "nonce": 1,
            "overwritedBlockNumber": -1,
            "priorityFee": "",
            "receiver": "0xbcf935d206ca32929e1b887a07ed240f0d8ccd22",
            "revertMessage": "",
            "sender": "0xb7ab2c93c74fc6d913c4cc99b99801e6a2c3e9db",
            "simulationEnable": true,
            "sourceTxnHash": "0xece36ed8bb5af8d0a34efee490f06e5ffc78f6c3773038e9522cd7c8dbb6cb64",
            "status": true,
            "timestamp": "2020-04-23T14:37:18Z",
            "transactionFee": "0.00128248",
            "txnHash": "0xece36ed8bb5af8d0a34efee490f06e5ffc78f6c3773038e9522cd7c8dbb6cb64",
            "txnIndex": 29,
            "type": 0,
            "value": "50000000000000000"
        },
        "fund_flow": [
            {
                "amount": "0.05",
                "from": "0xb7ab2c93c74fc6d913c4cc99b99801e6a2c3e9db",
                "id": 1,
                "isERC1155": false,
                "isERC721": false,
                "isReverted": false,
                "order": 1,
                "to": "0xbcf935d206ca32929e1b887a07ed240f0d8ccd22",
                "token": "0xeeeeeeeeeeeeeeeeeeeeeeeeeeeeeeeeeeeeeeee"
            },
            {
                "amount": "0.05",
                "from": "0xbcf935d206ca32929e1b887a07ed240f0d8ccd22",
                "id": 2,
                "isERC1155": false,
                "isERC721": false,
                "isReverted": false,
                "order": 2,
                "to": "0x05fbbba582a1768329522f58a138c83193645f15",
                "token": "0xeeeeeeeeeeeeeeeeeeeeeeeeeeeeeeeeeeeeeeee"
            }
        ],
        "token_infos": [
            {
                "address": "0xc02aaa39b223fe8d0a0e5c4f27ead9083c756cc2",
                "decimals": 18
            },
            {
                "address": "0xeeeeeeeeeeeeeeeeeeeeeeeeeeeeeeeeeeeeeeee",
                "decimals": 18
            }
        ]
    },
    "address_label": {
        "labels": [
            {
                "address": "0xeeeeeeeeeeeeeeeeeeeeeeeeeeeeeeeeeeeeeeee",
                "label": "Ether"
            },
            {
                "address": "0xbcf935d206ca32929e1b887a07ed240f0d8ccd22",
                "label": "Million.Money"
            },
            {
                "address": "0x0000000000000000000000000000000000000001",
                "label": "Precompiled"
            },
            {
                "address": "0x0000000000000000000000000000000000000002",
                "label": "Precompiled"
            },
            {
                "address": "0x0000000000000000000000000000000000000003",
                "label": "Precompiled"
            },
            {
                "address": "0x0000000000000000000000000000000000000004",
                "label": "Precompiled"
            }
        ]
    },
    "trace": {
        "accountLabels": null,
        "dataMap": {
            "-1": {
                "invocation": {
                    "address": "0xb7ab2c93c74fc6d913c4cc99b99801e6a2c3e9db",
                    "callData": "",
                    "decodedMethod": null,
                    "errorInfo": "",
                    "fromAddress": "",
                    "gasUsed": 0,
                    "id": -1,
                    "methodDecoded": false,
                    "operation": "",
                    "output": "",
                    "revert": false,
                    "revertMessage": "",
                    "selector": "",
                    "status": false,
                    "value": ""
                },
                "nodeType": 0
            },
            "0": {
                "invocation": {
                    "address": "0xbcf935d206ca32929e1b887a07ed240f0d8ccd22",
                    "callData": "0x0000000000000000000000000000000000000000000000000000000000000002",
                    "decodedMethod": {
                        "callParams": [
                            {
                                "name": "_level",
                                "type": "uint256",
                                "value": "2"
                            }
                        ],
                        "constructorArguments": "",
                        "name": "buyLevel",
                        "returnParams": [],
                        "signature": "buyLevel(uint256)"
                    },
                    "errorInfo": "",
                    "fromAddress": "0xb7ab2c93c74fc6d913c4cc99b99801e6a2c3e9db",
                    "gasUsed": 64124,
                    "id": 0,
                    "methodDecoded": true,
                    "operation": "CALL",
                    "output": "",
                    "revert": false,
                    "revertMessage": "",
                    "selector": "0xf6838a72",
                    "status": true,
                    "value": "0.05"
                },
                "nodeType": 0
            },
            "1": {
                "invocation": {
                    "address": "0x05fbbba582a1768329522f58a138c83193645f15",
                    "callData": "0x",
                    "decodedMethod": null,
                    "errorInfo": "",
                    "fromAddress": "0xbcf935d206ca32929e1b887a07ed240f0d8ccd22",
                    "gasUsed": 0,
                    "id": 1,
                    "methodDecoded": false,
                    "operation": "CALL",
                    "output": "",
                    "revert": false,
                    "revertMessage": "",
                    "selector": "fallback",
                    "status": true,
                    "value": "0.05"
                },
                "nodeType": 0
            },
            "2": {
                "event": {
                    "contract": "0xbcf935d206ca32929e1b887a07ed240f0d8ccd22",
                    "decodedLog": {
                        "name": "getMoneyForLevelEvent",
                        "params": [
                            {
                                "name": "_user",
                                "type": "address",
                                "value": "0x05fbbba582a1768329522f58a138c83193645f15"
                            },
                            {
                                "name": "_referral",
                                "type": "address",
                                "value": "0xb7ab2c93c74fc6d913c4cc99b99801e6a2c3e9db"
                            },
                            {
                                "name": "_level",
                                "type": "uint256",
                                "value": "2"
                            },
                            {
                                "name": "_time",
                                "type": "uint256",
                                "value": "1,587,652,638"
                            }
                        ],
                        "signature": "getMoneyForLevelEvent(address,address,uint256,uint256)"
                    },
                    "id": 2,
                    "logData": "0x0000000000000000000000000000000000000000000000000000000000000002000000000000000000000000000000000000000000000000000000005ea1a81e",
                    "logDecoded": true,
                    "operation": "EVENT",
                    "revert": false,
                    "status": true,
                    "topics": [
                        "0xce7dc747411ac40191c5335943fcc79d8c2d8c01ca5ae83d9fed160409fa6120",
                        "0x00000000000000000000000005fbbba582a1768329522f58a138c83193645f15",
                        "0x000000000000000000000000b7ab2c93c74fc6d913c4cc99b99801e6a2c3e9db"
                    ]
                },
                "nodeType": 1
            },
            "3": {
                "event": {
                    "contract": "0xbcf935d206ca32929e1b887a07ed240f0d8ccd22",
                    "decodedLog": {
                        "name": "buyLevelEvent",
                        "params": [
                            {
                                "name": "_user",
                                "type": "address",
                                "value": "0xb7ab2c93c74fc6d913c4cc99b99801e6a2c3e9db"
                            },
                            {
                                "name": "_level",
                                "type": "uint256",
                                "value": "2"
                            },
                            {
                                "name": "_time",
                                "type": "uint256",
                                "value": "1,587,652,638"
                            }
                        ],
                        "signature": "buyLevelEvent(address,uint256,uint256)"
                    },
                    "id": 3,
                    "logData": "0x0000000000000000000000000000000000000000000000000000000000000002000000000000000000000000000000000000000000000000000000005ea1a81e",
                    "logDecoded": true,
                    "operation": "EVENT",
                    "revert": false,
                    "status": true,
                    "topics": [
                        "0x9ea70f0eb33d898c3336ecf2c0e3cf1c0195c13ad3fbcb34447777dbfd5ff2d0",
                        "0x000000000000000000000000b7ab2c93c74fc6d913c4cc99b99801e6a2c3e9db"
                    ]
                },
                "nodeType": 1
            }
        },
        "gasFlame": [
            {
                "children": [
                    {
                        "children": [
                            {
                                "children": [],
                                "depth": 0,
                                "name": "Initial Gas",
                                "value": 21204
                            },
                            {
                                "children": [
                                    {
                                        "children": [],
                                        "depth": 1,
                                        "name": "fallback",
                                        "value": 0
                                    }
                                ],
                                "depth": 0,
                                "name": "Executed Gas",
                                "value": 42920
                            }
                        ],
                        "depth": -1,
                        "name": "Actual Gas Used",
                        "value": 64124
                    },
                    {
                        "children": [],
                        "depth": -1,
                        "name": "Refunded Gas",
                        "value": 0
                    }
                ],
                "depth": -2,
                "name": "Total Gas",
                "value": 64124
            }
        ],
        "isConfirmed": true,
        "mainTrace": [
            {
                "children": [
                    {
                        "children": [
                            {
                                "children": [],
                                "depth": 1,
                                "id": 1,
                                "order": 1
                            },
                            {
                                "children": [],
                                "depth": 1,
                                "id": 2,
                                "order": 2
                            },
                            {
                                "children": [],
                                "depth": 1,
                                "id": 3,
                                "order": 3
                            }
                        ],
                        "depth": 0,
                        "id": 0,
                        "order": 0
                    }
                ],
                "depth": -1,
                "id": -1,
                "order": -1
            }
        ],
        "mainTraceNodeCount": 4,
        "parentIdMap": {
            "0": -1,
            "1": 0,
            "2": 0,
            "3": 0
        },
        "tidyTrace": [
            {
                "children": [
                    {
                        "children": [
                            {
                                "children": [],
                                "depth": 1,
                                "id": 1,
                                "order": 1
                            },
                            {
                                "children": [],
                                "depth": 1,
                                "id": 2,
                                "order": 2
                            },
                            {
                                "children": [],
                                "depth": 1,
                                "id": 3,
                                "order": 3
                            }
                        ],
                        "depth": 0,
                        "id": 0,
                        "order": 0
                    }
                ],
                "depth": -1,
                "id": -1,
                "order": -1
            }
        ],
        "tidyTraceNodeCount": 4
    },
    "state_change": {
        "stateChanges": [
            {
                "address": "0xbcf935d206ca32929e1b887a07ed240f0d8ccd22",
                "erc": "",
                "slots": [
                    {
                        "current": "0x000000000000000000000000000000000000000000000000000000005f257e1e",
                        "key": "0x57df319fd435756b6b976b6c8d8ffb83619f80ae15ad2e72b695a53925a53b00",
                        "prev": "0x0000000000000000000000000000000000000000000000000000000000000000"
                    }
                ],
                "storageVariables": [
                    {
                        "name": "users",
                        "type": "mapping(address => struct MillionMoney.UserStruct)",
                        "value": {
                            "pairs": [
                                {
                                    "key": "0xb7ab2c93c74fc6d913c4cc99b99801e6a2c3e9db",
                                    "value": {
                                        "fields": [
                                            {
                                                "name": "levelExpired",
                                                "type": "mapping(uint256 => uint256)",
                                                "value": {
                                                    "pairs": [
                                                        {
                                                            "key": "2",
                                                            "value": {
                                                                "current": "1596292638",
                                                                "prev": "0",
                                                                "typeTag": 1
                                                            }
                                                        }
                                                    ],
                                                    "typeTag": 4
                                                }
                                            }
                                        ],
                                        "typeTag": 3
                                    }
                                }
                            ],
                            "typeTag": 4
                        }
                    }
                ]
            }
        ]
    }
}