{
    "balance_change": {
        "balanceChanges": [
            {
                "account": "0xe03c23519e18d64f144d2800e30e81b0065c48b5",
                "assets": [
                    {
                        "address": "0x3b7f247f21bf3a07088c2d3423f64233d4b069f7",
                        "amount": "711.96",
                        "iconUrl": "",
                        "isERC1155": false,
                        "isERC721": false,
                        "sign": false,
                        "value": ""
                    }
                ]
            },
            {
                "account": "0x0000000000000000000000000000000000000000",
                "assets": [
                    {
                        "address": "0x3b7f247f21bf3a07088c2d3423f64233d4b069f7",
                        "amount": "14.24",
                        "iconUrl": "",
                        "isERC1155": false,
                        "isERC721": false,
                        "sign": true,
                        "value": ""
                    }
                ]
            },
            {
                "account": "0x36cfab89782e6c1b5a2828906b3f2b52521d7c34",
                "assets": [
                    {
                        "address": "0x3b7f247f21bf3a07088c2d3423f64233d4b069f7",
                        "amount": "697.72",
                        "iconUrl": "",
                        "isERC1155": false,
                        "isERC721": false,
                        "sign": true,
                        "value": ""
                    }
                ]
            }
        ]
    },
    "profile": {
        "basic_info": {
            "baseFee": "",
            "blockNumber": 9944061,
            "callData": "0xa9059cbb00000000000000000000000036cfab89782e6c1b5a2828906b3f2b52521d7c34000000000000000000000000000000000000000000000000000000000001161c",
            "debugEnable": true,
            "errorInfo": "",
            "eventCount": 2,
            "feeRecipient": "0x829bd824b016326a401d083b33d092293333a830",
            "formatValue": "0",
            "gasLimit": 90000,
            "gasPrice": "15",
            "gasUsed": 62477,
            "intTxnCount": 0,
            "internalRevert": false,
            "internalRevertMessage": "",
            "isContractCreation": false,
            "isFlashloan": false,
            "maxFee": "",
            "nonce": 433133,
            "overwritedBlockNumber": -1,
            "priorityFee": "",
            "receiver": "0x3b7f247f21bf3a07088c2d3423f64233d4b069f7",
            "revertMessage": "",
            "sender": "0xe03c23519e18d64f144d2800e30e81b0065c48b5",
            "simulationEnable": true,
            "sourceTxnHash": "0xec986dc322c5e2c504fcec1cf940a8441ebb1791e4a05d3537f7cdbf272557b5",
            "status": true,
            "timestamp": "2020-04-25T21:31:42Z",
            "transactionFee": "0.000937155",
            "txnHash": "0xec986dc322c5e2c504fcec1cf940a8441ebb1791e4a05d3537f7cdbf272557b5",
            "txnIndex": 7,
            "type": 0,
            "value": "0"
        },
        "fund_flow": [
            {
                "amount": "697.72",
                "from": "0xe03c23519e18d64f144d2800e30e81b0065c48b5",
                "id": 1,
                "isERC1155": false,
                "isERC721": false,
                "isReverted": false,
                "order": 1,
                "to": "0x36cfab89782e6c1b5a2828906b3f2b52521d7c34",
                "token": "0x3b7f247f21bf3a07088c2d3423f64233d4b069f7"
            },
            {
                "amount": "14.24",
                "from": "0xe03c23519e18d64f144d2800e30e81b0065c48b5",
                "id": 2,
                "isERC1155": false,
                "isERC721": false,
                "isReverted": false,
                "order": 2,
                "to": "0x0000000000000000000000000000000000000000",
                "token": "0x3b7f247f21bf3a07088c2d3423f64233d4b069f7"
            }
        ],
        "token_infos": [
            {
                "address": "0x3b7f247f21bf3a07088c2d3423f64233d4b069f7",
                "decimals": 2
            },
            {
                "address": "0xc02aaa39b223fe8d0a0e5c4f27ead9083c756cc2",
                "decimals": 18
            },
            {
                "address": "0xeeeeeeeeeeeeeeeeeeeeeeeeeeeeeeeeeeeeeeee",
                "decimals": 18
            }
        ]
    },
    "address_label": {
        "labels": [
            {
                "address": "0x0000000000000000000000000000000000000004",
                "label": "Precompiled"
            },
            {
                "address": "0xeeeeeeeeeeeeeeeeeeeeeeeeeeeeeeeeeeeeeeee",
                "label": "Ether"
            },
            {
                "address": "0xe03c23519e18d64f144d2800e30e81b0065c48b5",
                "label": "Mercatox"
            },
            {
                "address": "0x3b7f247f21bf3a07088c2d3423f64233d4b069f7",
                "label": "Dynamite: DYNMT Token"
            },
            {
                "address": "0x0000000000000000000000000000000000000001",
                "label": "Precompiled"
            },
            {
                "address": "0x0000000000000000000000000000000000000002",
                "label": "Precompiled"
            },
            {
                "address": "0x0000000000000000000000000000000000000003",
                "label": "Precompiled"
            }
        ]
    },
    "trace": {
        "accountLabels": null,
        "dataMap": {
            "-1": {
                "invocation": {
                    "address": "0xe03c23519e18d64f144d2800e30e81b0065c48b5",
                    "callData": "",
                    "decodedMethod": null,
                    "errorInfo": "",
                    "fromAddress": "",
                    "gasUsed": 0,
                    "id": -1,
                    "methodDecoded": false,
                    "operation": "",
                    "output": "",
                    "revert": false,
                    "revertMessage": "",
                    "selector": "",
                    "status": false,
                    "value": ""
                },
                "nodeType": 0
            },
            "0": {
                "invocation": {
                    "address": "0x3b7f247f21bf3a07088c2d3423f64233d4b069f7",
                    "callData": "0x00000000000000000000000036cfab89782e6c1b5a2828906b3f2b52521d7c34000000000000000000000000000000000000000000000000000000000001161c",
                    "decodedMethod": {
                        "callParams": [
                            {
                                "name": "to",
                                "type": "address",
                                "value": "0x36cfab89782e6c1b5a2828906b3f2b52521d7c34"
                            },
                            {
                                "decimalAvailable": true,
                                "name": "value",
                                "type": "uint256",
                                "value": "71,196"
                            }
                        ],
                        "constructorArguments": "",
                        "name": "transfer",
                        "returnParams": [
                            {
                                "name": "",
                                "type": "bool",
                                "value": true
                            }
                        ],
                        "signature": "transfer(address,uint256)"
                    },
                    "errorInfo": "",
                    "fromAddress": "0xe03c23519e18d64f144d2800e30e81b0065c48b5",
                    "gasUsed": 62477,
                    "id": 0,
                    "methodDecoded": true,
                    "operation": "CALL",
                    "output": "0x0000000000000000000000000000000000000000000000000000000000000001",
                    "revert": false,
                    "revertMessage": "",
                    "selector": "0xa9059cbb",
                    "status": true,
                    "value": "0"
                },
                "nodeType": 0
            },
            "1": {
                "event": {
                    "contract": "0x3b7f247f21bf3a07088c2d3423f64233d4b069f7",
                    "decodedLog": {
                        "name": "Transfer",
                        "params": [
                            {
                                "name": "from",
                                "type": "address",
                                "value": "0xe03c23519e18d64f144d2800e30e81b0065c48b5"
                            },
                            {
                                "name": "to",
                                "type": "address",
                                "value": "0x36cfab89782e6c1b5a2828906b3f2b52521d7c34"
                            },
                            {
                                "decimalAvailable": true,
                                "name": "value",
                                "type": "uint256",
                                "value": "69,772"
                            }
                        ],
                        "signature": "Transfer(address,address,uint256)"
                    },
                    "id": 1,
                    "logData": "0x000000000000000000000000000000000000000000000000000000000001108c",
                    "logDecoded": true,
                    "operation": "EVENT",
                    "revert": false,
                    "status": true,
                    "topics": [
                        "0xddf252ad1be2c89b69c2b068fc378daa952ba7f163c4a11628f55a4df523b3ef",
                        "0x000000000000000000000000e03c23519e18d64f144d2800e30e81b0065c48b5",
                        "0x00000000000000000000000036cfab89782e6c1b5a2828906b3f2b52521d7c34"
                    ]
                },
                "nodeType": 1
            },
            "2": {
                "event": {
                    "contract": "0x3b7f247f21bf3a07088c2d3423f64233d4b069f7",
                    "decodedLog": {
                        "name": "Transfer",
                        "params": [
                            {
                                "name": "from",
                                "type": "address",
                                "value": "0xe03c23519e18d64f144d2800e30e81b0065c48b5"
                            },
                            {
                                "name": "to",
                                "type": "address",
                                "value": "0x0000000000000000000000000000000000000000"
                            },
                            {
                                "decimalAvailable": true,
                                "name": "value",
                                "type": "uint256",
                                "value": "1,424"
                            }
                        ],
                        "signature": "Transfer(address,address,uint256)"
                    },
                    "id": 2,
                    "logData": "0x0000000000000000000000000000000000000000000000000000000000000590",
                    "logDecoded": true,
                    "operation": "EVENT",
                    "revert": false,
                    "status": true,
                    "topics": [
                        "0xddf252ad1be2c89b69c2b068fc378daa952ba7f163c4a11628f55a4df523b3ef",
                        "0x000000000000000000000000e03c23519e18d64f144d2800e30e81b0065c48b5",
                        "0x0000000000000000000000000000000000000000000000000000000000000000"
                    ]
                },
                "nodeType": 1
            }
        },
        "gasFlame": [
            {
                "children": [
                    {
                        "children": [
                            {
                                "children": [],
                                "depth": 0,
                                "name": "Initial Gas",
                                "value": 21596
                            },
                            {
                                "children": [],
                                "depth": 0,
                                "name": "Executed Gas",
                                "value": 40881
                            }
                        ],
                        "depth": -1,
                        "name": "Actual Gas Used",
                        "value": 62477
                    },
                    {
                        "children": [],
                        "depth": -1,
                        "name": "Refunded Gas",
                        "value": 0
                    }
                ],
                "depth": -2,
                "name": "Total Gas",
                "value": 62477
            }
        ],
        "isConfirmed": true,
        "mainTrace": [
            {
                "children": [
                    {
                        "children": [
                            {
                                "children": [],
                                "depth": 1,
                                "id": 1,
                                "order": 1
                            },
                            {
                                "children": [],
                                "depth": 1,
                                "id": 2,
                                "order": 2
                            }
                        ],
                        "depth": 0,
                        "id": 0,
                        "order": 0
                    }
                ],
                "depth": -1,
                "id": -1,
                "order": -1
            }
        ],
        "mainTraceNodeCount": 3,
        "parentIdMap": {
            "0": -1,
            "1": 0,
            "2": 0
        },
        "tidyTrace": [
            {
                "children": [
                    {
                        "children": [
                            {
                                "children": [],
                                "depth": 1,
                                "id": 1,
                                "order": 1
                            },
                            {
                                "children": [],
                                "depth": 1,
                                "id": 2,
                                "order": 2
                            }
                        ],
                        "depth": 0,
                        "id": 0,
                        "order": 0
                    }
                ],
                "depth": -1,
                "id": -1,
                "order": -1
            }
        ],
        "tidyTraceNodeCount": 3
    },
    "state_change": {
        "stateChanges": [
            {
                "address": "0x3b7f247f21bf3a07088c2d3423f64233d4b069f7",
                "erc": "ERC-20",
                "slots": [
                    {
                        "current": "0x00000000000000000000000000000000000000000000000000000000050c99e6",
                        "key": "0x0000000000000000000000000000000000000000000000000000000000000005",
                        "prev": "0x00000000000000000000000000000000000000000000000000000000050c9f76"
                    },
                    {
                        "current": "0x000000000000000000000000000000000000000000000000000000000047a662",
                        "key": "0xb9cf611c311237fd0e35f0f307f1aa2c78dafc2b1f33437808f3b6751a935828",
                        "prev": "0x000000000000000000000000000000000000000000000000000000000048bc7e"
                    },
                    {
                        "current": "0x000000000000000000000000000000000000000000000000000000000001108c",
                        "key": "0x1e9399a453e63155721672361410050c0eb5d0bdbd2744b685e8e06d1464a20a",
                        "prev": "0x0000000000000000000000000000000000000000000000000000000000000000"
                    }
                ],
                "storageVariables": [
                    {
                        "name": "_balances",
                        "type": "mapping(address => uint256)",
                        "value": {
                            "pairs": [
                                {
                                    "key": "0x36cfab89782e6c1b5a2828906b3f2b52521d7c34",
                                    "value": {
                                        "current": "69772",
                                        "prev": "0",
                                        "typeTag": 1
                                    }
                                },
                                {
                                    "key": "0xe03c23519e18d64f144d2800e30e81b0065c48b5",
                                    "value": {
                                        "current": "4695650",
                                        "prev": "4766846",
                                        "typeTag": 1
                                    }
                                }
                            ],
                            "typeTag": 4
                        }
                    },
                    {
                        "name": "_totalSupply",
                        "type": "uint256",
                        "value": {
                            "current": "84711910",
                            "prev": "84713334",
                            "typeTag": 1
                        }
                    }
                ]
            }
        ]
    }
}