{
    "balance_change": {
        "balanceChanges": [
            {
                "account": "0x2643b44923fdbe409f493951ba47a6f9f503111a",
                "assets": [
                    {
                        "address": "0x2312f00149d010806d9ef6f3ea320eb1e1a6bc8e",
                        "amount": "1",
                        "iconUrl": "",
                        "isERC1155": false,
                        "isERC721": true,
                        "sign": true,
                        "tokenID": "733",
                        "value": ""
                    },
                    {
                        "address": "0xeeeeeeeeeeeeeeeeeeeeeeeeeeeeeeeeeeeeeeee",
                        "amount": "0.005",
                        "iconUrl": "https://assets.blocksec.com/image/1663669189317-3.png",
                        "isERC1155": false,
                        "isERC721": false,
                        "sign": false,
                        "value": "6.350599999999999454"
                    },
                    {
                        "address": "0x2312f00149d010806d9ef6f3ea320eb1e1a6bc8e",
                        "amount": "1",
                        "iconUrl": "",
                        "isERC1155": false,
                        "isERC721": true,
                        "sign": true,
                        "tokenID": "729",
                        "value": ""
                    },
                    {
                        "address": "0x2312f00149d010806d9ef6f3ea320eb1e1a6bc8e",
                        "amount": "1",
                        "iconUrl": "",
                        "isERC1155": false,
                        "isERC721": true,
                        "sign": true,
                        "tokenID": "730",
                        "value": ""
                    },
                    {
                        "address": "0x2312f00149d010806d9ef6f3ea320eb1e1a6bc8e",
                        "amount": "1",
                        "iconUrl": "",
                        "isERC1155": false,
                        "isERC721": true,
                        "sign": true,
                        "tokenID": "731",
                        "value": ""
                    },
                    {
                        "address": "0x2312f00149d010806d9ef6f3ea320eb1e1a6bc8e",
                        "amount": "1",
                        "iconUrl": "",
                        "isERC1155": false,
                        "isERC721": true,
                        "sign": true,
                        "tokenID": "732",
                        "value": ""
                    }
                ]
            },
            {
                "account": "0x2312f00149d010806d9ef6f3ea320eb1e1a6bc8e",
                "assets": [
                    {
                        "address": "0xeeeeeeeeeeeeeeeeeeeeeeeeeeeeeeeeeeeeeeee",
                        "amount": "0.005",
                        "iconUrl": "https://assets.blocksec.com/image/1663669189317-3.png",
                        "isERC1155": false,
                        "isERC721": false,
                        "sign": true,
                        "value": "6.350599999999999454"
                    }
                ]
            },
            {
                "account": "0x0000000000000000000000000000000000000000",
                "assets": [
                    {
                        "address": "0x2312f00149d010806d9ef6f3ea320eb1e1a6bc8e",
                        "amount": "1",
                        "iconUrl": "",
                        "isERC1155": false,
                        "isERC721": true,
                        "sign": false,
                        "tokenID": "732",
                        "value": ""
                    },
                    {
                        "address": "0x2312f00149d010806d9ef6f3ea320eb1e1a6bc8e",
                        "amount": "1",
                        "iconUrl": "",
                        "isERC1155": false,
                        "isERC721": true,
                        "sign": false,
                        "tokenID": "733",
                        "value": ""
                    },
                    {
                        "address": "0x2312f00149d010806d9ef6f3ea320eb1e1a6bc8e",
                        "amount": "1",
                        "iconUrl": "",
                        "isERC1155": false,
                        "isERC721": true,
                        "sign": false,
                        "tokenID": "729",
                        "value": ""
                    },
                    {
                        "address": "0x2312f00149d010806d9ef6f3ea320eb1e1a6bc8e",
                        "amount": "1",
                        "iconUrl": "",
                        "isERC1155": false,
                        "isERC721": true,
                        "sign": false,
                        "tokenID": "730",
                        "value": ""
                    },
                    {
                        "address": "0x2312f00149d010806d9ef6f3ea320eb1e1a6bc8e",
                        "amount": "1",
                        "iconUrl": "",
                        "isERC1155": false,
                        "isERC721": true,
                        "sign": false,
                        "tokenID": "731",
                        "value": ""
                    }
                ]
            }
        ]
    },
    "profile": {
        "basic_info": {
            "baseFee": "11.727903296",
            "blockNumber": 16157623,
            "callData": "0x0d1d7ae50000000000000000000000000000000000000000000000000000000000000005",
            "debugEnable": true,
            "errorInfo": "",
            "eventCount": 6,
            "feeRecipient": "0xdafea492d9c6733ae3d56b7ed1adb60692c98bc5",
            "formatValue": "0.005",
            "gasLimit": 78537,
            "gasPrice": "13.227903296",
            "gasUsed": 77716,
            "intTxnCount": 1,
            "internalRevert": false,
            "internalRevertMessage": "",
            "isContractCreation": false,
            "isFlashloan": false,
            "maxFee": "18.547643087",
            "nonce": 86,
            "overwritedBlockNumber": -1,
            "priorityFee": "1.5",
            "receiver": "0x2312f00149d010806d9ef6f3ea320eb1e1a6bc8e",
            "revertMessage": "",
            "sender": "0x2643b44923fdbe409f493951ba47a6f9f503111a",
            "simulationEnable": true,
            "sourceTxnHash": "0xec9423a51d56634297b8c5c7f074e6f0a433ff651597dcdb5d71825e9a4eb5a3",
            "status": true,
            "timestamp": "2022-12-10T23:34:59Z",
            "transactionFee": "0.001028019732551936",
            "txnHash": "0xec9423a51d56634297b8c5c7f074e6f0a433ff651597dcdb5d71825e9a4eb5a3",
            "txnIndex": 39,
            "type": 2,
            "value": "5000000000000000"
        },
        "fund_flow": [
            {
                "amount": "0.005",
                "from": "0x2643b44923fdbe409f493951ba47a6f9f503111a",
                "id": 1,
                "isERC1155": false,
                "isERC721": false,
                "isReverted": false,
                "order": 1,
                "to": "0x2312f00149d010806d9ef6f3ea320eb1e1a6bc8e",
                "token": "0xeeeeeeeeeeeeeeeeeeeeeeeeeeeeeeeeeeeeeeee"
            },
            {
                "amount": "1",
                "from": "0x0000000000000000000000000000000000000000",
                "id": 2,
                "isERC1155": false,
                "isERC721": true,
                "isReverted": false,
                "order": 2,
                "to": "0x2643b44923fdbe409f493951ba47a6f9f503111a",
                "token": "0x2312f00149d010806d9ef6f3ea320eb1e1a6bc8e",
                "tokenID": "729"
            },
            {
                "amount": "1",
                "from": "0x0000000000000000000000000000000000000000",
                "id": 3,
                "isERC1155": false,
                "isERC721": true,
                "isReverted": false,
                "order": 3,
                "to": "0x2643b44923fdbe409f493951ba47a6f9f503111a",
                "token": "0x2312f00149d010806d9ef6f3ea320eb1e1a6bc8e",
                "tokenID": "730"
            },
            {
                "amount": "1",
                "from": "0x0000000000000000000000000000000000000000",
                "id": 4,
                "isERC1155": false,
                "isERC721": true,
                "isReverted": false,
                "order": 4,
                "to": "0x2643b44923fdbe409f493951ba47a6f9f503111a",
                "token": "0x2312f00149d010806d9ef6f3ea320eb1e1a6bc8e",
                "tokenID": "731"
            },
            {
                "amount": "1",
                "from": "0x0000000000000000000000000000000000000000",
                "id": 5,
                "isERC1155": false,
                "isERC721": true,
                "isReverted": false,
                "order": 5,
                "to": "0x2643b44923fdbe409f493951ba47a6f9f503111a",
                "token": "0x2312f00149d010806d9ef6f3ea320eb1e1a6bc8e",
                "tokenID": "732"
            },
            {
                "amount": "1",
                "from": "0x0000000000000000000000000000000000000000",
                "id": 6,
                "isERC1155": false,
                "isERC721": true,
                "isReverted": false,
                "order": 6,
                "to": "0x2643b44923fdbe409f493951ba47a6f9f503111a",
                "token": "0x2312f00149d010806d9ef6f3ea320eb1e1a6bc8e",
                "tokenID": "733"
            }
        ],
        "token_infos": [
            {
                "address": "0xc02aaa39b223fe8d0a0e5c4f27ead9083c756cc2",
                "decimals": 18
            },
            {
                "address": "0xeeeeeeeeeeeeeeeeeeeeeeeeeeeeeeeeeeeeeeee",
                "decimals": 18
            }
        ]
    },
    "address_label": {
        "labels": [
            {
                "address": "0xeeeeeeeeeeeeeeeeeeeeeeeeeeeeeeeeeeeeeeee",
                "label": "Ether"
            },
            {
                "address": "0xa01599e0f84816564547043784f74ec134da596b",
                "label": "Bueno721Drop"
            },
            {
                "address": "0x0000000000000000000000000000000000000001",
                "label": "Precompiled"
            },
            {
                "address": "0x0000000000000000000000000000000000000002",
                "label": "Precompiled"
            },
            {
                "address": "0x0000000000000000000000000000000000000003",
                "label": "Precompiled"
            },
            {
                "address": "0x0000000000000000000000000000000000000004",
                "label": "Precompiled"
            }
        ]
    },
    "trace": {
        "accountLabels": null,
        "dataMap": {
            "-1": {
                "invocation": {
                    "address": "0x2643b44923fdbe409f493951ba47a6f9f503111a",
                    "callData": "",
                    "decodedMethod": null,
                    "errorInfo": "",
                    "fromAddress": "",
                    "gasUsed": 0,
                    "id": -1,
                    "methodDecoded": false,
                    "operation": "",
                    "output": "",
                    "revert": false,
                    "revertMessage": "",
                    "selector": "",
                    "status": false,
                    "value": ""
                },
                "nodeType": 0
            },
            "0": {
                "invocation": {
                    "address": "0x2312f00149d010806d9ef6f3ea320eb1e1a6bc8e",
                    "callData": "0x0000000000000000000000000000000000000000000000000000000000000005",
                    "decodedMethod": {
                        "callParams": [
                            {
                                "name": "quantity",
                                "type": "uint64",
                                "value": "5"
                            }
                        ],
                        "constructorArguments": "",
                        "name": "mintPublic",
                        "returnParams": [],
                        "signature": "mintPublic(uint64)"
                    },
                    "errorInfo": "",
                    "fromAddress": "0x2643b44923fdbe409f493951ba47a6f9f503111a",
                    "gasUsed": 77716,
                    "id": 0,
                    "methodDecoded": true,
                    "operation": "CALL",
                    "output": "",
                    "revert": false,
                    "revertMessage": "",
                    "selector": "0x0d1d7ae5",
                    "status": true,
                    "value": "0.005"
                },
                "nodeType": 0
            },
            "1": {
                "invocation": {
                    "address": "0xa01599e0f84816564547043784f74ec134da596b",
                    "callData": "0x0000000000000000000000000000000000000000000000000000000000000005",
                    "decodedMethod": {
                        "callParams": [
                            {
                                "name": "quantity",
                                "type": "uint64",
                                "value": "5"
                            }
                        ],
                        "constructorArguments": "",
                        "name": "mintPublic",
                        "returnParams": [],
                        "signature": "mintPublic(uint64)"
                    },
                    "errorInfo": "",
                    "fromAddress": "0x2312f00149d010806d9ef6f3ea320eb1e1a6bc8e",
                    "gasUsed": 53843,
                    "id": 1,
                    "methodDecoded": true,
                    "operation": "DELEGATECALL",
                    "output": "",
                    "revert": false,
                    "revertMessage": "",
                    "selector": "0x0d1d7ae5",
                    "status": true,
                    "value": "0.005"
                },
                "nodeType": 0
            },
            "2": {
                "event": {
                    "contract": "0x2312f00149d010806d9ef6f3ea320eb1e1a6bc8e",
                    "decodedLog": {
                        "name": "Transfer",
                        "params": [
                            {
                                "name": "from",
                                "type": "address",
                                "value": "0x0000000000000000000000000000000000000000"
                            },
                            {
                                "name": "to",
                                "type": "address",
                                "value": "0x2643b44923fdbe409f493951ba47a6f9f503111a"
                            },
                            {
                                "decimalAvailable": true,
                                "name": "tokenId",
                                "type": "uint256",
                                "value": "729"
                            }
                        ],
                        "signature": "Transfer(address,address,uint256)"
                    },
                    "id": 2,
                    "logData": "0x",
                    "logDecoded": true,
                    "operation": "EVENT",
                    "revert": false,
                    "status": true,
                    "topics": [
                        "0xddf252ad1be2c89b69c2b068fc378daa952ba7f163c4a11628f55a4df523b3ef",
                        "0x0000000000000000000000000000000000000000000000000000000000000000",
                        "0x0000000000000000000000002643b44923fdbe409f493951ba47a6f9f503111a",
                        "0x00000000000000000000000000000000000000000000000000000000000002d9"
                    ]
                },
                "nodeType": 1
            },
            "3": {
                "event": {
                    "contract": "0x2312f00149d010806d9ef6f3ea320eb1e1a6bc8e",
                    "decodedLog": {
                        "name": "Transfer",
                        "params": [
                            {
                                "name": "from",
                                "type": "address",
                                "value": "0x0000000000000000000000000000000000000000"
                            },
                            {
                                "name": "to",
                                "type": "address",
                                "value": "0x2643b44923fdbe409f493951ba47a6f9f503111a"
                            },
                            {
                                "decimalAvailable": true,
                                "name": "tokenId",
                                "type": "uint256",
                                "value": "730"
                            }
                        ],
                        "signature": "Transfer(address,address,uint256)"
                    },
                    "id": 3,
                    "logData": "0x",
                    "logDecoded": true,
                    "operation": "EVENT",
                    "revert": false,
                    "status": true,
                    "topics": [
                        "0xddf252ad1be2c89b69c2b068fc378daa952ba7f163c4a11628f55a4df523b3ef",
                        "0x0000000000000000000000000000000000000000000000000000000000000000",
                        "0x0000000000000000000000002643b44923fdbe409f493951ba47a6f9f503111a",
                        "0x00000000000000000000000000000000000000000000000000000000000002da"
                    ]
                },
                "nodeType": 1
            },
            "4": {
                "event": {
                    "contract": "0x2312f00149d010806d9ef6f3ea320eb1e1a6bc8e",
                    "decodedLog": {
                        "name": "Transfer",
                        "params": [
                            {
                                "name": "from",
                                "type": "address",
                                "value": "0x0000000000000000000000000000000000000000"
                            },
                            {
                                "name": "to",
                                "type": "address",
                                "value": "0x2643b44923fdbe409f493951ba47a6f9f503111a"
                            },
                            {
                                "decimalAvailable": true,
                                "name": "tokenId",
                                "type": "uint256",
                                "value": "731"
                            }
                        ],
                        "signature": "Transfer(address,address,uint256)"
                    },
                    "id": 4,
                    "logData": "0x",
                    "logDecoded": true,
                    "operation": "EVENT",
                    "revert": false,
                    "status": true,
                    "topics": [
                        "0xddf252ad1be2c89b69c2b068fc378daa952ba7f163c4a11628f55a4df523b3ef",
                        "0x0000000000000000000000000000000000000000000000000000000000000000",
                        "0x0000000000000000000000002643b44923fdbe409f493951ba47a6f9f503111a",
                        "0x00000000000000000000000000000000000000000000000000000000000002db"
                    ]
                },
                "nodeType": 1
            },
            "5": {
                "event": {
                    "contract": "0x2312f00149d010806d9ef6f3ea320eb1e1a6bc8e",
                    "decodedLog": {
                        "name": "Transfer",
                        "params": [
                            {
                                "name": "from",
                                "type": "address",
                                "value": "0x0000000000000000000000000000000000000000"
                            },
                            {
                                "name": "to",
                                "type": "address",
                                "value": "0x2643b44923fdbe409f493951ba47a6f9f503111a"
                            },
                            {
                                "decimalAvailable": true,
                                "name": "tokenId",
                                "type": "uint256",
                                "value": "732"
                            }
                        ],
                        "signature": "Transfer(address,address,uint256)"
                    },
                    "id": 5,
                    "logData": "0x",
                    "logDecoded": true,
                    "operation": "EVENT",
                    "revert": false,
                    "status": true,
                    "topics": [
                        "0xddf252ad1be2c89b69c2b068fc378daa952ba7f163c4a11628f55a4df523b3ef",
                        "0x0000000000000000000000000000000000000000000000000000000000000000",
                        "0x0000000000000000000000002643b44923fdbe409f493951ba47a6f9f503111a",
                        "0x00000000000000000000000000000000000000000000000000000000000002dc"
                    ]
                },
                "nodeType": 1
            },
            "6": {
                "event": {
                    "contract": "0x2312f00149d010806d9ef6f3ea320eb1e1a6bc8e",
                    "decodedLog": {
                        "name": "Transfer",
                        "params": [
                            {
                                "name": "from",
                                "type": "address",
                                "value": "0x0000000000000000000000000000000000000000"
                            },
                            {
                                "name": "to",
                                "type": "address",
                                "value": "0x2643b44923fdbe409f493951ba47a6f9f503111a"
                            },
                            {
                                "decimalAvailable": true,
                                "name": "tokenId",
                                "type": "uint256",
                                "value": "733"
                            }
                        ],
                        "signature": "Transfer(address,address,uint256)"
                    },
                    "id": 6,
                    "logData": "0x",
                    "logDecoded": true,
                    "operation": "EVENT",
                    "revert": false,
                    "status": true,
                    "topics": [
                        "0xddf252ad1be2c89b69c2b068fc378daa952ba7f163c4a11628f55a4df523b3ef",
                        "0x0000000000000000000000000000000000000000000000000000000000000000",
                        "0x0000000000000000000000002643b44923fdbe409f493951ba47a6f9f503111a",
                        "0x00000000000000000000000000000000000000000000000000000000000002dd"
                    ]
                },
                "nodeType": 1
            },
            "7": {
                "event": {
                    "contract": "0x2312f00149d010806d9ef6f3ea320eb1e1a6bc8e",
                    "decodedLog": {
                        "name": "TokensMinted",
                        "params": [
                            {
                                "name": "to",
                                "type": "address",
                                "value": "0x2643b44923fdbe409f493951ba47a6f9f503111a"
                            },
                            {
                                "name": "quantity",
                                "type": "uint256",
                                "value": "5"
                            }
                        ],
                        "signature": "TokensMinted(address,uint256)"
                    },
                    "id": 7,
                    "logData": "0x0000000000000000000000000000000000000000000000000000000000000005",
                    "logDecoded": true,
                    "operation": "EVENT",
                    "revert": false,
                    "status": true,
                    "topics": [
                        "0x3f2c9d57c068687834f0de942a9babb9e5acab57d516d3480a3c16ee165a4273",
                        "0x0000000000000000000000002643b44923fdbe409f493951ba47a6f9f503111a"
                    ]
                },
                "nodeType": 1
            }
        },
        "gasFlame": [
            {
                "children": [
                    {
                        "children": [
                            {
                                "children": [],
                                "depth": 0,
                                "name": "Initial Gas",
                                "value": 21204
                            },
                            {
                                "children": [
                                    {
                                        "children": [],
                                        "depth": 1,
                                        "name": "mintPublic",
                                        "value": 53843
                                    }
                                ],
                                "depth": 0,
                                "name": "Executed Gas",
                                "value": 56512
                            }
                        ],
                        "depth": -1,
                        "name": "Actual Gas Used",
                        "value": 77716
                    },
                    {
                        "children": [],
                        "depth": -1,
                        "name": "Refunded Gas",
                        "value": 0
                    }
                ],
                "depth": -2,
                "name": "Total Gas",
                "value": 77716
            }
        ],
        "isConfirmed": true,
        "mainTrace": [
            {
                "children": [
                    {
                        "children": [
                            {
                                "children": [
                                    {
                                        "children": [],
                                        "depth": 2,
                                        "id": 2,
                                        "order": 2
                                    },
                                    {
                                        "children": [],
                                        "depth": 2,
                                        "id": 3,
                                        "order": 3
                                    },
                                    {
                                        "children": [],
                                        "depth": 2,
                                        "id": 4,
                                        "order": 4
                                    },
                                    {
                                        "children": [],
                                        "depth": 2,
                                        "id": 5,
                                        "order": 5
                                    },
                                    {
                                        "children": [],
                                        "depth": 2,
                                        "id": 6,
                                        "order": 6
                                    },
                                    {
                                        "children": [],
                                        "depth": 2,
                                        "id": 7,
                                        "order": 7
                                    }
                                ],
                                "depth": 1,
                                "id": 1,
                                "order": 1
                            }
                        ],
                        "depth": 0,
                        "id": 0,
                        "order": 0
                    }
                ],
                "depth": -1,
                "id": -1,
                "order": -1
            }
        ],
        "mainTraceNodeCount": 8,
        "parentIdMap": {
            "0": -1,
            "1": 0,
            "2": 1,
            "3": 1,
            "4": 1,
            "5": 1,
            "6": 1,
            "7": 1
        },
        "tidyTrace": [
            {
                "children": [
                    {
                        "children": [
                            {
                                "children": [
                                    {
                                        "children": [],
                                        "depth": 2,
                                        "id": 2,
                                        "order": 2
                                    },
                                    {
                                        "children": [],
                                        "depth": 2,
                                        "id": 3,
                                        "order": 3
                                    },
                                    {
                                        "children": [],
                                        "depth": 2,
                                        "id": 4,
                                        "order": 4
                                    },
                                    {
                                        "children": [],
                                        "depth": 2,
                                        "id": 5,
                                        "order": 5
                                    },
                                    {
                                        "children": [],
                                        "depth": 2,
                                        "id": 6,
                                        "order": 6
                                    },
                                    {
                                        "children": [],
                                        "depth": 2,
                                        "id": 7,
                                        "order": 7
                                    }
                                ],
                                "depth": 1,
                                "id": 1,
                                "order": 1
                            }
                        ],
                        "depth": 0,
                        "id": 0,
                        "order": 0
                    }
                ],
                "depth": -1,
                "id": -1,
                "order": -1
            }
        ],
        "tidyTraceNodeCount": 8
    },
    "state_change": {
        "stateChanges": [
            {
                "address": "0x2312f00149d010806d9ef6f3ea320eb1e1a6bc8e",
                "erc": "ERC-721",
                "slots": [
                    {
                        "current": "0x000000000000000000000000000001900000000000000000000000000000030a",
                        "key": "0x00000000000000000000000000000000000000000000000000000000000000fe",
                        "prev": "0x0000000000000000000000000000018b0000000000000000000000000000030a"
                    },
                    {
                        "current": "0x00000000000000000000000000000000000000000000001a000000000000001a",
                        "key": "0x1eb574dc1a44ec51c129266fc0a37cfa6b5e068e888c22d1f5d92ddcfbde105a",
                        "prev": "0x0000000000000000000000000000000000000000000000150000000000000015"
                    },
                    {
                        "current": "0x0000000000000000639517a32643b44923fdbe409f493951ba47a6f9f503111a",
                        "key": "0xfbb1920b2ce2480f01af0f3eb74444ff01157933f23bedd95f027db055916530",
                        "prev": "0x0000000000000000000000000000000000000000000000000000000000000000"
                    },
                    {
                        "current": "0x00000000000000000000000000000000000000000000000000000000000002de",
                        "key": "0x2569078dfb4b0305704d3008e7403993ae9601b85f7ae5e742de3de8f8011c40",
                        "prev": "0x00000000000000000000000000000000000000000000000000000000000002d9"
                    }
                ],
                "storageVariables": [
                    {
                        "name": "baseSettings",
                        "type": "struct BaseSettings",
                        "value": {
                            "fields": [
                                {
                                    "name": "maxSupply",
                                    "type": "uint64",
                                    "value": {
                                        "current": "778",
                                        "prev": "778",
                                        "typeTag": 1
                                    }
                                },
                                {
                                    "name": "maxPerWallet",
                                    "type": "uint64",
                                    "value": {
                                        "current": "0",
                                        "prev": "0",
                                        "typeTag": 1
                                    }
                                },
                                {
                                    "name": "amountMinted",
                                    "type": "uint64",
                                    "value": {
                                        "current": "400",
                                        "prev": "395",
                                        "typeTag": 1
                                    }
                                }
                            ],
                            "typeTag": 3
                        }
                    }
                ]
            }
        ]
    }
}