{
    "balance_change": {
        "balanceChanges": [
            {
                "account": "0xad216d5357e4b5ddcb8c78de9699df3a070dcf95",
                "assets": [
                    {
                        "address": "0x9973bb0fe5f8df5de730776df09e946c74254fb3",
                        "amount": "56.821013003615571063",
                        "iconUrl": "",
                        "isERC1155": false,
                        "isERC721": false,
                        "sign": false,
                        "value": "282.0733281"
                    }
                ]
            },
            {
                "account": "0x1f2f40fd6770da2bb833825a1dfd230238e4ecdb",
                "assets": [
                    {
                        "address": "0x9973bb0fe5f8df5de730776df09e946c74254fb3",
                        "amount": "56.821013003615571063",
                        "iconUrl": "",
                        "isERC1155": false,
                        "isERC721": false,
                        "sign": true,
                        "value": "282.0733281"
                    }
                ]
            }
        ]
    },
    "profile": {
        "basic_info": {
            "baseFee": "",
            "blockNumber": 11899010,
            "callData": "0xa9059cbb0000000000000000000000001f2f40fd6770da2bb833825a1dfd230238e4ecdb000000000000000000000000000000000000000000000003148cca46b25b8c77",
            "debugEnable": true,
            "errorInfo": "",
            "eventCount": 1,
            "feeRecipient": "0xea674fdde714fd979de3edf0f56aa9716b898ec8",
            "formatValue": "0",
            "gasLimit": 51008,
            "gasPrice": "111",
            "gasUsed": 36008,
            "intTxnCount": 0,
            "internalRevert": false,
            "internalRevertMessage": "",
            "isContractCreation": false,
            "isFlashloan": false,
            "maxFee": "",
            "nonce": 6,
            "overwritedBlockNumber": -1,
            "priorityFee": "",
            "receiver": "0x9973bb0fe5f8df5de730776df09e946c74254fb3",
            "revertMessage": "",
            "sender": "0xad216d5357e4b5ddcb8c78de9699df3a070dcf95",
            "simulationEnable": true,
            "sourceTxnHash": "0xecced5328c2d567b2d732941b4604dd5175b68c6b48a217cca2992e5aaf15031",
            "status": true,
            "timestamp": "2021-02-21T07:45:47Z",
            "transactionFee": "0.003996888",
            "txnHash": "0xecced5328c2d567b2d732941b4604dd5175b68c6b48a217cca2992e5aaf15031",
            "txnIndex": 136,
            "type": 0,
            "value": "0"
        },
        "fund_flow": [
            {
                "amount": "56.821013003615571063",
                "from": "0xad216d5357e4b5ddcb8c78de9699df3a070dcf95",
                "id": 1,
                "isERC1155": false,
                "isERC721": false,
                "isReverted": false,
                "order": 1,
                "to": "0x1f2f40fd6770da2bb833825a1dfd230238e4ecdb",
                "token": "0x9973bb0fe5f8df5de730776df09e946c74254fb3"
            }
        ],
        "token_infos": [
            {
                "address": "0x9973bb0fe5f8df5de730776df09e946c74254fb3",
                "decimals": 18
            },
            {
                "address": "0xc02aaa39b223fe8d0a0e5c4f27ead9083c756cc2",
                "decimals": 18
            },
            {
                "address": "0xeeeeeeeeeeeeeeeeeeeeeeeeeeeeeeeeeeeeeeee",
                "decimals": 18
            }
        ]
    },
    "address_label": {
        "labels": [
            {
                "address": "0x9973bb0fe5f8df5de730776df09e946c74254fb3",
                "label": "Uniswap V2: BAO"
            },
            {
                "address": "0x0000000000000000000000000000000000000001",
                "label": "Precompiled"
            },
            {
                "address": "0x0000000000000000000000000000000000000002",
                "label": "Precompiled"
            },
            {
                "address": "0x0000000000000000000000000000000000000003",
                "label": "Precompiled"
            },
            {
                "address": "0x0000000000000000000000000000000000000004",
                "label": "Precompiled"
            },
            {
                "address": "0xeeeeeeeeeeeeeeeeeeeeeeeeeeeeeeeeeeeeeeee",
                "label": "Ether"
            }
        ]
    },
    "trace": {
        "accountLabels": null,
        "dataMap": {
            "-1": {
                "invocation": {
                    "address": "0xad216d5357e4b5ddcb8c78de9699df3a070dcf95",
                    "callData": "",
                    "decodedMethod": null,
                    "errorInfo": "",
                    "fromAddress": "",
                    "gasUsed": 0,
                    "id": -1,
                    "methodDecoded": false,
                    "operation": "",
                    "output": "",
                    "revert": false,
                    "revertMessage": "",
                    "selector": "",
                    "status": false,
                    "value": ""
                },
                "nodeType": 0
            },
            "0": {
                "invocation": {
                    "address": "0x9973bb0fe5f8df5de730776df09e946c74254fb3",
                    "callData": "0x0000000000000000000000001f2f40fd6770da2bb833825a1dfd230238e4ecdb000000000000000000000000000000000000000000000003148cca46b25b8c77",
                    "decodedMethod": {
                        "callParams": [
                            {
                                "name": "to",
                                "type": "address",
                                "value": "0x1f2f40fd6770da2bb833825a1dfd230238e4ecdb"
                            },
                            {
                                "decimalAvailable": true,
                                "name": "value",
                                "type": "uint256",
                                "value": "56,821,013,003,615,571,063"
                            }
                        ],
                        "constructorArguments": "",
                        "name": "transfer",
                        "returnParams": [
                            {
                                "name": "",
                                "type": "bool",
                                "value": true
                            }
                        ],
                        "signature": "transfer(address,uint256)"
                    },
                    "errorInfo": "",
                    "fromAddress": "0xad216d5357e4b5ddcb8c78de9699df3a070dcf95",
                    "gasUsed": 36008,
                    "id": 0,
                    "methodDecoded": true,
                    "operation": "CALL",
                    "output": "0x0000000000000000000000000000000000000000000000000000000000000001",
                    "revert": false,
                    "revertMessage": "",
                    "selector": "0xa9059cbb",
                    "status": true,
                    "value": "0"
                },
                "nodeType": 0
            },
            "1": {
                "event": {
                    "contract": "0x9973bb0fe5f8df5de730776df09e946c74254fb3",
                    "decodedLog": {
                        "name": "Transfer",
                        "params": [
                            {
                                "name": "from",
                                "type": "address",
                                "value": "0xad216d5357e4b5ddcb8c78de9699df3a070dcf95"
                            },
                            {
                                "name": "to",
                                "type": "address",
                                "value": "0x1f2f40fd6770da2bb833825a1dfd230238e4ecdb"
                            },
                            {
                                "decimalAvailable": true,
                                "name": "value",
                                "type": "uint256",
                                "value": "56,821,013,003,615,571,063"
                            }
                        ],
                        "signature": "Transfer(address,address,uint256)"
                    },
                    "id": 1,
                    "logData": "0x000000000000000000000000000000000000000000000003148cca46b25b8c77",
                    "logDecoded": true,
                    "operation": "EVENT",
                    "revert": false,
                    "status": true,
                    "topics": [
                        "0xddf252ad1be2c89b69c2b068fc378daa952ba7f163c4a11628f55a4df523b3ef",
                        "0x000000000000000000000000ad216d5357e4b5ddcb8c78de9699df3a070dcf95",
                        "0x0000000000000000000000001f2f40fd6770da2bb833825a1dfd230238e4ecdb"
                    ]
                },
                "nodeType": 1
            }
        },
        "gasFlame": [
            {
                "children": [
                    {
                        "children": [
                            {
                                "children": [],
                                "depth": 0,
                                "name": "Initial Gas",
                                "value": 21668
                            },
                            {
                                "children": [],
                                "depth": 0,
                                "name": "Executed Gas",
                                "value": 29340
                            }
                        ],
                        "depth": -1,
                        "name": "Actual Gas Used",
                        "value": 36008
                    },
                    {
                        "children": [],
                        "depth": -1,
                        "name": "Refunded Gas",
                        "value": 15000
                    }
                ],
                "depth": -2,
                "name": "Total Gas",
                "value": 51008
            }
        ],
        "isConfirmed": true,
        "mainTrace": [
            {
                "children": [
                    {
                        "children": [
                            {
                                "children": [],
                                "depth": 1,
                                "id": 1,
                                "order": 1
                            }
                        ],
                        "depth": 0,
                        "id": 0,
                        "order": 0
                    }
                ],
                "depth": -1,
                "id": -1,
                "order": -1
            }
        ],
        "mainTraceNodeCount": 2,
        "parentIdMap": {
            "0": -1,
            "1": 0
        },
        "tidyTrace": [
            {
                "children": [
                    {
                        "children": [
                            {
                                "children": [],
                                "depth": 1,
                                "id": 1,
                                "order": 1
                            }
                        ],
                        "depth": 0,
                        "id": 0,
                        "order": 0
                    }
                ],
                "depth": -1,
                "id": -1,
                "order": -1
            }
        ],
        "tidyTraceNodeCount": 2
    },
    "state_change": {
        "stateChanges": [
            {
                "address": "0x9973bb0fe5f8df5de730776df09e946c74254fb3",
                "erc": "ERC-20",
                "slots": [
                    {
                        "current": "0x0000000000000000000000000000000000000000000000000000000000000000",
                        "key": "0xb23a3378808787230b919be9acfbfc23855f6b88b68b1bf00045c5c4364e8650",
                        "prev": "0x000000000000000000000000000000000000000000000003148cca46b25b8c77"
                    },
                    {
                        "current": "0x000000000000000000000000000000000000000000000003148cca46b25b8c77",
                        "key": "0x10274b93decbda79e9923ef2d239efb63be78eb31c3baeb23045eda19b60b270",
                        "prev": "0x0000000000000000000000000000000000000000000000000000000000000000"
                    }
                ],
                "storageVariables": [
                    {
                        "name": "balanceOf",
                        "type": "mapping(address => uint256)",
                        "value": {
                            "pairs": [
                                {
                                    "key": "0x1f2f40fd6770da2bb833825a1dfd230238e4ecdb",
                                    "value": {
                                        "current": "56821013003615571063",
                                        "prev": "0",
                                        "typeTag": 1
                                    }
                                },
                                {
                                    "key": "0xad216d5357e4b5ddcb8c78de9699df3a070dcf95",
                                    "value": {
                                        "current": "0",
                                        "prev": "56821013003615571063",
                                        "typeTag": 1
                                    }
                                }
                            ],
                            "typeTag": 4
                        }
                    }
                ]
            }
        ]
    }
}