{
    "balance_change": {
        "balanceChanges": [
            {
                "account": "0x2796317b0ff8538f253012862c06787adfb8ceb6",
                "assets": [
                    {
                        "address": "0xc02aaa39b223fe8d0a0e5c4f27ead9083c756cc2",
                        "amount": "3.288758287139794928",
                        "iconUrl": "https://assets.blocksec.com/icon/f1cb2d02c471d545bbc7722daf3277fd852d98e63d118771af7047bd8256c516.png",
                        "isERC1155": false,
                        "isERC721": false,
                        "sign": false,
                        "value": "6018.9867541187902393"
                    }
                ]
            },
            {
                "account": "0xa861968a0657a4ba000127c97f0069fc58d3af46",
                "assets": [
                    {
                        "address": "0xeeeeeeeeeeeeeeeeeeeeeeeeeeeeeeeeeeeeeeee",
                        "amount": "3.288758287139794928",
                        "iconUrl": "https://assets.blocksec.com/image/1663669189317-3.png",
                        "isERC1155": false,
                        "isERC721": false,
                        "sign": true,
                        "value": "6018.9867541187902393"
                    }
                ]
            },
            {
                "account": "0xc02aaa39b223fe8d0a0e5c4f27ead9083c756cc2",
                "assets": [
                    {
                        "address": "0xeeeeeeeeeeeeeeeeeeeeeeeeeeeeeeeeeeeeeeee",
                        "amount": "3.288758287139794928",
                        "iconUrl": "https://assets.blocksec.com/image/1663669189317-3.png",
                        "isERC1155": false,
                        "isERC721": false,
                        "sign": false,
                        "value": "6018.9867541187902393"
                    },
                    {
                        "address": "0xc02aaa39b223fe8d0a0e5c4f27ead9083c756cc2",
                        "amount": "3.288758287139794928",
                        "iconUrl": "https://assets.blocksec.com/icon/f1cb2d02c471d545bbc7722daf3277fd852d98e63d118771af7047bd8256c516.png",
                        "isERC1155": false,
                        "isERC721": false,
                        "sign": true,
                        "value": "6018.9867541187902393"
                    }
                ]
            }
        ]
    },
    "profile": {
        "basic_info": {
            "baseFee": "67.963973773",
            "blockNumber": 17234019,
            "callData": "0x1cf5f07f000000000000000000000000a861968a0657a4ba000127c97f0069fc58d3af46000000000000000000000000c02aaa39b223fe8d0a0e5c4f27ead9083c756cc20000000000000000000000000000000000000000000000002dc78b2f40d7eff0000000000000000000000000000000000000000000000000002386f26fc10000b1033df6eeb97d430da81283b83a7bbd465e089c9747a8f4930e1afaa2411d53",
            "debugEnable": true,
            "errorInfo": "",
            "eventCount": 2,
            "feeRecipient": "0xdafea492d9c6733ae3d56b7ed1adb60692c98bc5",
            "formatValue": "0",
            "gasLimit": 1000000,
            "gasPrice": "68.064553773",
            "gasUsed": 121674,
            "intTxnCount": 5,
            "internalRevert": false,
            "internalRevertMessage": "",
            "isContractCreation": false,
            "isFlashloan": false,
            "maxFee": "900",
            "nonce": 182607,
            "overwritedBlockNumber": -1,
            "priorityFee": "0.10058",
            "receiver": "0x2796317b0ff8538f253012862c06787adfb8ceb6",
            "revertMessage": "",
            "sender": "0x230a1ac45690b9ae1176389434610b9526d2f21b",
            "simulationEnable": true,
            "sourceTxnHash": "0xecd6d39c6a34bad482d172ba59fa98fbc1f3c58174ea95c706aa4f0938d6e88a",
            "status": true,
            "timestamp": "2023-05-11T02:02:47Z",
            "transactionFee": "0.008281686515776002",
            "txnHash": "0xecd6d39c6a34bad482d172ba59fa98fbc1f3c58174ea95c706aa4f0938d6e88a",
            "txnIndex": 72,
            "type": 2,
            "value": "0"
        },
        "fund_flow": [
            {
                "amount": "3.288758287139794928",
                "from": "0xc02aaa39b223fe8d0a0e5c4f27ead9083c756cc2",
                "id": 1,
                "isERC1155": false,
                "isERC721": false,
                "isReverted": false,
                "order": 1,
                "to": "0x2796317b0ff8538f253012862c06787adfb8ceb6",
                "token": "0xeeeeeeeeeeeeeeeeeeeeeeeeeeeeeeeeeeeeeeee"
            },
            {
                "amount": "3.288758287139794928",
                "from": "0x2796317b0ff8538f253012862c06787adfb8ceb6",
                "id": 2,
                "isERC1155": false,
                "isERC721": false,
                "isReverted": false,
                "order": 2,
                "to": "0xc02aaa39b223fe8d0a0e5c4f27ead9083c756cc2",
                "token": "0xc02aaa39b223fe8d0a0e5c4f27ead9083c756cc2"
            },
            {
                "amount": "3.288758287139794928",
                "from": "0x2796317b0ff8538f253012862c06787adfb8ceb6",
                "id": 3,
                "isERC1155": false,
                "isERC721": false,
                "isReverted": false,
                "order": 3,
                "to": "0xa861968a0657a4ba000127c97f0069fc58d3af46",
                "token": "0xeeeeeeeeeeeeeeeeeeeeeeeeeeeeeeeeeeeeeeee"
            }
        ],
        "token_infos": [
            {
                "address": "0xeeeeeeeeeeeeeeeeeeeeeeeeeeeeeeeeeeeeeeee",
                "decimals": 18
            },
            {
                "address": "0xc02aaa39b223fe8d0a0e5c4f27ead9083c756cc2",
                "decimals": 18
            }
        ]
    },
    "address_label": {
        "labels": [
            {
                "address": "0x0000000000000000000000000000000000000002",
                "label": "Precompiled"
            },
            {
                "address": "0x0000000000000000000000000000000000000003",
                "label": "Precompiled"
            },
            {
                "address": "0x0000000000000000000000000000000000000004",
                "label": "Precompiled"
            },
            {
                "address": "0xeeeeeeeeeeeeeeeeeeeeeeeeeeeeeeeeeeeeeeee",
                "label": "Ether"
            },
            {
                "address": "0x0000000000000000000000000000000000000001",
                "label": "Precompiled"
            },
            {
                "address": "0x2796317b0ff8538f253012862c06787adfb8ceb6",
                "label": "Synapse: Bridge"
            },
            {
                "address": "0x230a1ac45690b9ae1176389434610b9526d2f21b",
                "label": "Synapse: Executor"
            },
            {
                "address": "0x31fe393815822edacbd81c2262467402199efd0d",
                "label": "Synapse: Bridge Implementation"
            },
            {
                "address": "0xc02aaa39b223fe8d0a0e5c4f27ead9083c756cc2",
                "label": "Wrapped Ether (WETH)"
            }
        ]
    },
    "trace": {
        "accountLabels": null,
        "dataMap": {
            "-1": {
                "invocation": {
                    "address": "0x230a1ac45690b9ae1176389434610b9526d2f21b",
                    "callData": "",
                    "decodedMethod": null,
                    "errorInfo": "",
                    "fromAddress": "",
                    "gasUsed": 0,
                    "id": -1,
                    "methodDecoded": false,
                    "operation": "",
                    "output": "",
                    "revert": false,
                    "revertMessage": "",
                    "selector": "",
                    "status": false,
                    "value": ""
                },
                "nodeType": 0
            },
            "0": {
                "invocation": {
                    "address": "0x2796317b0ff8538f253012862c06787adfb8ceb6",
                    "callData": "0x000000000000000000000000a861968a0657a4ba000127c97f0069fc58d3af46000000000000000000000000c02aaa39b223fe8d0a0e5c4f27ead9083c756cc20000000000000000000000000000000000000000000000002dc78b2f40d7eff0000000000000000000000000000000000000000000000000002386f26fc10000b1033df6eeb97d430da81283b83a7bbd465e089c9747a8f4930e1afaa2411d53",
                    "decodedMethod": {
                        "callParams": [
                            {
                                "name": "to",
                                "type": "address",
                                "value": "0xa861968a0657a4ba000127c97f0069fc58d3af46"
                            },
                            {
                                "name": "token",
                                "type": "address",
                                "value": "0xc02aaa39b223fe8d0a0e5c4f27ead9083c756cc2"
                            },
                            {
                                "name": "amount",
                                "type": "uint256",
                                "value": "3,298,758,287,139,794,928"
                            },
                            {
                                "name": "fee",
                                "type": "uint256",
                                "value": "10,000,000,000,000,000"
                            },
                            {
                                "name": "kappa",
                                "type": "bytes32",
                                "value": "0xb1033df6eeb97d430da81283b83a7bbd465e089c9747a8f4930e1afaa2411d53"
                            }
                        ],
                        "constructorArguments": "",
                        "name": "withdraw",
                        "returnParams": [],
                        "signature": "withdraw(address,address,uint256,uint256,bytes32)"
                    },
                    "errorInfo": "",
                    "fromAddress": "0x230a1ac45690b9ae1176389434610b9526d2f21b",
                    "gasUsed": 121674,
                    "id": 0,
                    "methodDecoded": true,
                    "operation": "CALL",
                    "output": "",
                    "revert": false,
                    "revertMessage": "",
                    "selector": "0x1cf5f07f",
                    "status": true,
                    "value": "0"
                },
                "nodeType": 0
            },
            "1": {
                "invocation": {
                    "address": "0x31fe393815822edacbd81c2262467402199efd0d",
                    "callData": "0x000000000000000000000000a861968a0657a4ba000127c97f0069fc58d3af46000000000000000000000000c02aaa39b223fe8d0a0e5c4f27ead9083c756cc20000000000000000000000000000000000000000000000002dc78b2f40d7eff0000000000000000000000000000000000000000000000000002386f26fc10000b1033df6eeb97d430da81283b83a7bbd465e089c9747a8f4930e1afaa2411d53",
                    "decodedMethod": {
                        "callParams": [
                            {
                                "name": "to",
                                "type": "address",
                                "value": "0xa861968a0657a4ba000127c97f0069fc58d3af46"
                            },
                            {
                                "name": "token",
                                "type": "address",
                                "value": "0xc02aaa39b223fe8d0a0e5c4f27ead9083c756cc2"
                            },
                            {
                                "name": "amount",
                                "type": "uint256",
                                "value": "3,298,758,287,139,794,928"
                            },
                            {
                                "name": "fee",
                                "type": "uint256",
                                "value": "10,000,000,000,000,000"
                            },
                            {
                                "name": "kappa",
                                "type": "bytes32",
                                "value": "0xb1033df6eeb97d430da81283b83a7bbd465e089c9747a8f4930e1afaa2411d53"
                            }
                        ],
                        "constructorArguments": "",
                        "name": "withdraw",
                        "returnParams": [],
                        "signature": "withdraw(address,address,uint256,uint256,bytes32)"
                    },
                    "errorInfo": "",
                    "fromAddress": "0x2796317b0ff8538f253012862c06787adfb8ceb6",
                    "gasUsed": 94580,
                    "id": 1,
                    "methodDecoded": true,
                    "operation": "DELEGATECALL",
                    "output": "",
                    "revert": false,
                    "revertMessage": "",
                    "selector": "0x1cf5f07f",
                    "status": true,
                    "value": "0"
                },
                "nodeType": 0
            },
            "2": {
                "invocation": {
                    "address": "0xc02aaa39b223fe8d0a0e5c4f27ead9083c756cc2",
                    "callData": "0x0000000000000000000000000000000000000000000000002da4043cd116eff0",
                    "decodedMethod": {
                        "callParams": [
                            {
                                "name": "wad",
                                "type": "uint256",
                                "value": "3,288,758,287,139,794,928"
                            }
                        ],
                        "constructorArguments": "",
                        "name": "withdraw",
                        "returnParams": [],
                        "signature": "withdraw(uint256)"
                    },
                    "errorInfo": "",
                    "fromAddress": "0x2796317b0ff8538f253012862c06787adfb8ceb6",
                    "gasUsed": 14587,
                    "id": 2,
                    "methodDecoded": true,
                    "operation": "CALL",
                    "output": "",
                    "revert": false,
                    "revertMessage": "",
                    "selector": "0x2e1a7d4d",
                    "status": true,
                    "value": "0"
                },
                "nodeType": 0
            },
            "3": {
                "invocation": {
                    "address": "0x2796317b0ff8538f253012862c06787adfb8ceb6",
                    "callData": "0x",
                    "decodedMethod": null,
                    "errorInfo": "",
                    "fromAddress": "0xc02aaa39b223fe8d0a0e5c4f27ead9083c756cc2",
                    "gasUsed": 647,
                    "id": 3,
                    "methodDecoded": false,
                    "operation": "CALL",
                    "output": "",
                    "revert": false,
                    "revertMessage": "",
                    "selector": "fallback",
                    "status": true,
                    "value": "3.288758287139794928"
                },
                "nodeType": 0
            },
            "4": {
                "invocation": {
                    "address": "0x31fe393815822edacbd81c2262467402199efd0d",
                    "callData": "0x",
                    "decodedMethod": null,
                    "errorInfo": "",
                    "fromAddress": "0x2796317b0ff8538f253012862c06787adfb8ceb6",
                    "gasUsed": 55,
                    "id": 4,
                    "methodDecoded": false,
                    "operation": "DELEGATECALL",
                    "output": "",
                    "revert": false,
                    "revertMessage": "",
                    "selector": "fallback",
                    "status": true,
                    "value": "3.288758287139794928"
                },
                "nodeType": 0
            },
            "5": {
                "event": {
                    "contract": "0xc02aaa39b223fe8d0a0e5c4f27ead9083c756cc2",
                    "decodedLog": {
                        "name": "Withdrawal",
                        "params": [
                            {
                                "name": "src",
                                "type": "address",
                                "value": "0x2796317b0ff8538f253012862c06787adfb8ceb6"
                            },
                            {
                                "name": "wad",
                                "type": "uint256",
                                "value": "3,288,758,287,139,794,928"
                            }
                        ],
                        "signature": "Withdrawal(address,uint256)"
                    },
                    "id": 5,
                    "logData": "0x0000000000000000000000000000000000000000000000002da4043cd116eff0",
                    "logDecoded": true,
                    "operation": "EVENT",
                    "revert": false,
                    "status": true,
                    "topics": [
                        "0x7fcf532c15f0a6db0bd6d0e038bea71d30d808c7d98cb3bf7268a95bf5081b65",
                        "0x0000000000000000000000002796317b0ff8538f253012862c06787adfb8ceb6"
                    ]
                },
                "nodeType": 1
            },
            "6": {
                "invocation": {
                    "address": "0xa861968a0657a4ba000127c97f0069fc58d3af46",
                    "callData": "0x",
                    "decodedMethod": null,
                    "errorInfo": "",
                    "fromAddress": "0x2796317b0ff8538f253012862c06787adfb8ceb6",
                    "gasUsed": 0,
                    "id": 6,
                    "methodDecoded": false,
                    "operation": "CALL",
                    "output": "",
                    "revert": false,
                    "revertMessage": "",
                    "selector": "fallback",
                    "status": true,
                    "value": "3.288758287139794928"
                },
                "nodeType": 0
            },
            "7": {
                "event": {
                    "contract": "0x2796317b0ff8538f253012862c06787adfb8ceb6",
                    "decodedLog": {
                        "name": "TokenWithdraw",
                        "params": [
                            {
                                "name": "to",
                                "type": "address",
                                "value": "0xa861968a0657a4ba000127c97f0069fc58d3af46"
                            },
                            {
                                "name": "kappa",
                                "type": "bytes32",
                                "value": "0xb1033df6eeb97d430da81283b83a7bbd465e089c9747a8f4930e1afaa2411d53"
                            },
                            {
                                "name": "token",
                                "type": "address",
                                "value": "0xc02aaa39b223fe8d0a0e5c4f27ead9083c756cc2"
                            },
                            {
                                "name": "amount",
                                "type": "uint256",
                                "value": "3,298,758,287,139,794,928"
                            },
                            {
                                "name": "fee",
                                "type": "uint256",
                                "value": "10,000,000,000,000,000"
                            }
                        ],
                        "signature": "TokenWithdraw(address,address,uint256,uint256,bytes32)"
                    },
                    "id": 7,
                    "logData": "0x000000000000000000000000c02aaa39b223fe8d0a0e5c4f27ead9083c756cc20000000000000000000000000000000000000000000000002dc78b2f40d7eff0000000000000000000000000000000000000000000000000002386f26fc10000",
                    "logDecoded": true,
                    "operation": "EVENT",
                    "revert": false,
                    "status": true,
                    "topics": [
                        "0x8b0afdc777af6946e53045a4a75212769075d30455a212ac51c9b16f9c5c9b26",
                        "0x000000000000000000000000a861968a0657a4ba000127c97f0069fc58d3af46",
                        "0xb1033df6eeb97d430da81283b83a7bbd465e089c9747a8f4930e1afaa2411d53"
                    ]
                },
                "nodeType": 1
            }
        },
        "gasFlame": [
            {
                "children": [
                    {
                        "children": [
                            {
                                "children": [],
                                "depth": 0,
                                "name": "Initial Gas",
                                "value": 22700
                            },
                            {
                                "children": [
                                    {
                                        "children": [
                                            {
                                                "children": [
                                                    {
                                                        "children": [
                                                            {
                                                                "children": [],
                                                                "depth": 4,
                                                                "name": "fallback",
                                                                "value": 55
                                                            }
                                                        ],
                                                        "depth": 3,
                                                        "name": "fallback",
                                                        "value": 647
                                                    }
                                                ],
                                                "depth": 2,
                                                "name": "withdraw",
                                                "value": 14587
                                            },
                                            {
                                                "children": [],
                                                "depth": 2,
                                                "name": "fallback",
                                                "value": 0
                                            }
                                        ],
                                        "depth": 1,
                                        "name": "withdraw",
                                        "value": 94580
                                    }
                                ],
                                "depth": 0,
                                "name": "Executed Gas",
                                "value": 101774
                            }
                        ],
                        "depth": -1,
                        "name": "Actual Gas Used",
                        "value": 121674
                    },
                    {
                        "children": [],
                        "depth": -1,
                        "name": "Refunded Gas",
                        "value": 2800
                    }
                ],
                "depth": -2,
                "name": "Total Gas",
                "value": 124474
            }
        ],
        "isConfirmed": true,
        "mainTrace": [
            {
                "children": [
                    {
                        "children": [
                            {
                                "children": [
                                    {
                                        "children": [
                                            {
                                                "children": [
                                                    {
                                                        "children": [],
                                                        "depth": 4,
                                                        "id": 4,
                                                        "order": 4
                                                    }
                                                ],
                                                "depth": 3,
                                                "id": 3,
                                                "order": 3
                                            },
                                            {
                                                "children": [],
                                                "depth": 3,
                                                "id": 5,
                                                "order": 5
                                            }
                                        ],
                                        "depth": 2,
                                        "id": 2,
                                        "order": 2
                                    },
                                    {
                                        "children": [],
                                        "depth": 2,
                                        "id": 6,
                                        "order": 6
                                    },
                                    {
                                        "children": [],
                                        "depth": 2,
                                        "id": 7,
                                        "order": 7
                                    }
                                ],
                                "depth": 1,
                                "id": 1,
                                "order": 1
                            }
                        ],
                        "depth": 0,
                        "id": 0,
                        "order": 0
                    }
                ],
                "depth": -1,
                "id": -1,
                "order": -1
            }
        ],
        "mainTraceNodeCount": 8,
        "parentIdMap": {
            "0": -1,
            "1": 0,
            "2": 1,
            "3": 2,
            "4": 3,
            "5": 2,
            "6": 1,
            "7": 1
        },
        "tidyTrace": [
            {
                "children": [
                    {
                        "children": [
                            {
                                "children": [
                                    {
                                        "children": [
                                            {
                                                "children": [
                                                    {
                                                        "children": [],
                                                        "depth": 4,
                                                        "id": 4,
                                                        "order": 4
                                                    }
                                                ],
                                                "depth": 3,
                                                "id": 3,
                                                "order": 3
                                            },
                                            {
                                                "children": [],
                                                "depth": 3,
                                                "id": 5,
                                                "order": 5
                                            }
                                        ],
                                        "depth": 2,
                                        "id": 2,
                                        "order": 2
                                    },
                                    {
                                        "children": [],
                                        "depth": 2,
                                        "id": 6,
                                        "order": 6
                                    },
                                    {
                                        "children": [],
                                        "depth": 2,
                                        "id": 7,
                                        "order": 7
                                    }
                                ],
                                "depth": 1,
                                "id": 1,
                                "order": 1
                            }
                        ],
                        "depth": 0,
                        "id": 0,
                        "order": 0
                    }
                ],
                "depth": -1,
                "id": -1,
                "order": -1
            }
        ],
        "tidyTraceNodeCount": 8
    },
    "state_change": {
        "stateChanges": [
            {
                "address": "0x2796317b0ff8538f253012862c06787adfb8ceb6",
                "erc": "",
                "slots": [
                    {
                        "current": "0x000000000000000000000000000000000000000000000007a1638a618d4fcf17",
                        "key": "0xd19c737734396143d84fecab206eb205529a6af96bf19c648108a9e3631dc1fe",
                        "prev": "0x000000000000000000000000000000000000000000000007a140036f1d8ecf17"
                    },
                    {
                        "current": "0x0000000000000000000000000000000000000000000000000000000000000001",
                        "key": "0xbf9851e782df6beb32d06ff615f6272176dbc36bc3da5eba63d2170213630bb9",
                        "prev": "0x0000000000000000000000000000000000000000000000000000000000000000"
                    }
                ],
                "storageVariables": [
                    {
                        "name": "fees",
                        "type": "mapping(address => uint256)",
                        "value": {
                            "pairs": [
                                {
                                    "key": "0xc02aaa39b223fe8d0a0e5c4f27ead9083c756cc2",
                                    "value": {
                                        "current": "140756499330354892567",
                                        "prev": "140746499330354892567",
                                        "typeTag": 1
                                    }
                                }
                            ],
                            "typeTag": 4
                        }
                    },
                    {
                        "name": "kappaMap",
                        "type": "mapping(bytes32 => bool)",
                        "value": {
                            "pairs": [
                                {
                                    "key": "0xb1033df6eeb97d430da81283b83a7bbd465e089c9747a8f4930e1afaa2411d53",
                                    "value": {
                                        "current": "true",
                                        "prev": "false",
                                        "typeTag": 1
                                    }
                                }
                            ],
                            "typeTag": 4
                        }
                    }
                ]
            },
            {
                "address": "0xc02aaa39b223fe8d0a0e5c4f27ead9083c756cc2",
                "erc": "ERC-20",
                "slots": [
                    {
                        "current": "0x00000000000000000000000000000000000000000000012b527d00d1e016094c",
                        "key": "0x65d843a32fa82c8baa8838ae701902516891fa62ff9bb968f1c878392be09941",
                        "prev": "0x00000000000000000000000000000000000000000000012b8021050eb12cf93c"
                    }
                ],
                "storageVariables": [
                    {
                        "name": "balanceOf",
                        "type": "mapping(address => uint256)",
                        "value": {
                            "pairs": [
                                {
                                    "key": "0x2796317b0ff8538f253012862c06787adfb8ceb6",
                                    "value": {
                                        "current": "5521520386023762561356",
                                        "prev": "5524809144310902356284",
                                        "typeTag": 1
                                    }
                                }
                            ],
                            "typeTag": 4
                        }
                    }
                ]
            }
        ]
    }
}