{
    "balance_change": {
        "balanceChanges": [
            {
                "account": "0xc9251264322515cfceba4c9063b3b6c5c0190105",
                "assets": [
                    {
                        "address": "0x514910771af9ca656af840dff83e8264ecf986ca",
                        "amount": "14,000",
                        "iconUrl": "https://assets.blocksec.com/icon/f97453a18956674db69f16b525216d646fc76f3c7f90f0cd6147f8534d5af3e9.png",
                        "isERC1155": false,
                        "isERC721": false,
                        "sign": false,
                        "value": "511634.7407"
                    }
                ]
            },
            {
                "account": "0xd67ad6c867cd657cc145ce01d991a5d15e2fb035",
                "assets": [
                    {
                        "address": "0x514910771af9ca656af840dff83e8264ecf986ca",
                        "amount": "14,000",
                        "iconUrl": "https://assets.blocksec.com/icon/f97453a18956674db69f16b525216d646fc76f3c7f90f0cd6147f8534d5af3e9.png",
                        "isERC1155": false,
                        "isERC721": false,
                        "sign": true,
                        "value": "511634.7407"
                    }
                ]
            }
        ]
    },
    "profile": {
        "basic_info": {
            "baseFee": "143.57227861",
            "blockNumber": 13594076,
            "callData": "0xa9059cbb000000000000000000000000d67ad6c867cd657cc145ce01d991a5d15e2fb0350000000000000000000000000000000000000000000002f6f10780d22cc00000",
            "debugEnable": true,
            "errorInfo": "",
            "eventCount": 1,
            "feeRecipient": "0x829bd824b016326a401d083b33d092293333a830",
            "formatValue": "0",
            "gasLimit": 200000,
            "gasPrice": "206.265056126",
            "gasUsed": 35001,
            "intTxnCount": 0,
            "internalRevert": false,
            "internalRevertMessage": "",
            "isContractCreation": false,
            "isFlashloan": false,
            "maxFee": "",
            "nonce": 5209,
            "overwritedBlockNumber": -1,
            "priorityFee": "",
            "receiver": "0x514910771af9ca656af840dff83e8264ecf986ca",
            "revertMessage": "",
            "sender": "0xc9251264322515cfceba4c9063b3b6c5c0190105",
            "simulationEnable": true,
            "sourceTxnHash": "0xec1bca3c54e7e6ac6ced12358da64c18f9b8a71ebaf539d114967ef0dea52987",
            "status": true,
            "timestamp": "2021-11-11T09:23:35Z",
            "transactionFee": "0.007219483229466126",
            "txnHash": "0xec1bca3c54e7e6ac6ced12358da64c18f9b8a71ebaf539d114967ef0dea52987",
            "txnIndex": 5,
            "type": 0,
            "value": "0"
        },
        "fund_flow": [
            {
                "amount": "14,000",
                "from": "0xc9251264322515cfceba4c9063b3b6c5c0190105",
                "id": 1,
                "isERC1155": false,
                "isERC721": false,
                "isReverted": false,
                "order": 1,
                "to": "0xd67ad6c867cd657cc145ce01d991a5d15e2fb035",
                "token": "0x514910771af9ca656af840dff83e8264ecf986ca"
            }
        ],
        "token_infos": [
            {
                "address": "0xeeeeeeeeeeeeeeeeeeeeeeeeeeeeeeeeeeeeeeee",
                "decimals": 18
            },
            {
                "address": "0x514910771af9ca656af840dff83e8264ecf986ca",
                "decimals": 18
            },
            {
                "address": "0xc02aaa39b223fe8d0a0e5c4f27ead9083c756cc2",
                "decimals": 18
            }
        ]
    },
    "address_label": {
        "labels": [
            {
                "address": "0x0000000000000000000000000000000000000003",
                "label": "Precompiled"
            },
            {
                "address": "0x0000000000000000000000000000000000000004",
                "label": "Precompiled"
            },
            {
                "address": "0xeeeeeeeeeeeeeeeeeeeeeeeeeeeeeeeeeeeeeeee",
                "label": "Ether"
            },
            {
                "address": "0x514910771af9ca656af840dff83e8264ecf986ca",
                "label": "Chainlink: LINK Token"
            },
            {
                "address": "0x0000000000000000000000000000000000000001",
                "label": "Precompiled"
            },
            {
                "address": "0x0000000000000000000000000000000000000002",
                "label": "Precompiled"
            }
        ]
    },
    "trace": {
        "accountLabels": null,
        "dataMap": {
            "-1": {
                "invocation": {
                    "address": "0xc9251264322515cfceba4c9063b3b6c5c0190105",
                    "callData": "",
                    "decodedMethod": null,
                    "errorInfo": "",
                    "fromAddress": "",
                    "gasUsed": 0,
                    "id": -1,
                    "methodDecoded": false,
                    "operation": "",
                    "output": "",
                    "revert": false,
                    "revertMessage": "",
                    "selector": "",
                    "status": false,
                    "value": ""
                },
                "nodeType": 0
            },
            "0": {
                "invocation": {
                    "address": "0x514910771af9ca656af840dff83e8264ecf986ca",
                    "callData": "0x000000000000000000000000d67ad6c867cd657cc145ce01d991a5d15e2fb0350000000000000000000000000000000000000000000002f6f10780d22cc00000",
                    "decodedMethod": {
                        "callParams": [
                            {
                                "name": "_to",
                                "type": "address",
                                "value": "0xd67ad6c867cd657cc145ce01d991a5d15e2fb035"
                            },
                            {
                                "decimalAvailable": true,
                                "name": "_value",
                                "type": "uint256",
                                "value": "14,000,000,000,000,000,000,000"
                            }
                        ],
                        "constructorArguments": "",
                        "name": "transfer",
                        "returnParams": [
                            {
                                "name": "success",
                                "type": "bool",
                                "value": true
                            }
                        ],
                        "signature": "transfer(address,uint256)"
                    },
                    "errorInfo": "",
                    "fromAddress": "0xc9251264322515cfceba4c9063b3b6c5c0190105",
                    "gasUsed": 35001,
                    "id": 0,
                    "methodDecoded": true,
                    "operation": "CALL",
                    "output": "0x0000000000000000000000000000000000000000000000000000000000000001",
                    "revert": false,
                    "revertMessage": "",
                    "selector": "0xa9059cbb",
                    "status": true,
                    "value": "0"
                },
                "nodeType": 0
            },
            "1": {
                "event": {
                    "contract": "0x514910771af9ca656af840dff83e8264ecf986ca",
                    "decodedLog": {
                        "name": "Transfer",
                        "params": [
                            {
                                "name": "from",
                                "type": "address",
                                "value": "0xc9251264322515cfceba4c9063b3b6c5c0190105"
                            },
                            {
                                "name": "to",
                                "type": "address",
                                "value": "0xd67ad6c867cd657cc145ce01d991a5d15e2fb035"
                            },
                            {
                                "decimalAvailable": true,
                                "name": "value",
                                "type": "uint256",
                                "value": "14,000,000,000,000,000,000,000"
                            }
                        ],
                        "signature": "Transfer(address,address,uint256)"
                    },
                    "id": 1,
                    "logData": "0x0000000000000000000000000000000000000000000002f6f10780d22cc00000",
                    "logDecoded": true,
                    "operation": "EVENT",
                    "revert": false,
                    "status": true,
                    "topics": [
                        "0xddf252ad1be2c89b69c2b068fc378daa952ba7f163c4a11628f55a4df523b3ef",
                        "0x000000000000000000000000c9251264322515cfceba4c9063b3b6c5c0190105",
                        "0x000000000000000000000000d67ad6c867cd657cc145ce01d991a5d15e2fb035"
                    ]
                },
                "nodeType": 1
            }
        },
        "gasFlame": [
            {
                "children": [
                    {
                        "children": [
                            {
                                "children": [],
                                "depth": 0,
                                "name": "Initial Gas",
                                "value": 21656
                            },
                            {
                                "children": [],
                                "depth": 0,
                                "name": "Executed Gas",
                                "value": 13345
                            }
                        ],
                        "depth": -1,
                        "name": "Actual Gas Used",
                        "value": 35001
                    },
                    {
                        "children": [],
                        "depth": -1,
                        "name": "Refunded Gas",
                        "value": 0
                    }
                ],
                "depth": -2,
                "name": "Total Gas",
                "value": 35001
            }
        ],
        "isConfirmed": true,
        "mainTrace": [
            {
                "children": [
                    {
                        "children": [
                            {
                                "children": [],
                                "depth": 1,
                                "id": 1,
                                "order": 1
                            }
                        ],
                        "depth": 0,
                        "id": 0,
                        "order": 0
                    }
                ],
                "depth": -1,
                "id": -1,
                "order": -1
            }
        ],
        "mainTraceNodeCount": 2,
        "parentIdMap": {
            "0": -1,
            "1": 0
        },
        "tidyTrace": [
            {
                "children": [
                    {
                        "children": [
                            {
                                "children": [],
                                "depth": 1,
                                "id": 1,
                                "order": 1
                            }
                        ],
                        "depth": 0,
                        "id": 0,
                        "order": 0
                    }
                ],
                "depth": -1,
                "id": -1,
                "order": -1
            }
        ],
        "tidyTraceNodeCount": 2
    },
    "state_change": {
        "stateChanges": [
            {
                "address": "0x514910771af9ca656af840dff83e8264ecf986ca",
                "erc": "",
                "slots": [
                    {
                        "current": "0x00000000000000000000000000000000000000000000078b1144bdf3ee60ffa1",
                        "key": "0xe94da16efd6290041ec058b16f96dcaf4a9323fd458e4c8abe3ae1a1e6c5d09c",
                        "prev": "0x000000000000000000000000000000000000000000000494203d3d21c1a0ffa1"
                    },
                    {
                        "current": "0x000000000000000000000000000000000000000000000a42586e5ed16259dc31",
                        "key": "0x6ff3ba6e88ab770c6d408de77e84d5fdb7d96b15a9889e814d9fa6a93e3bccae",
                        "prev": "0x000000000000000000000000000000000000000000000d394975dfa38f19dc31"
                    }
                ],
                "storageVariables": [
                    {
                        "name": "balances",
                        "type": "mapping(address => uint256)",
                        "value": {
                            "pairs": [
                                {
                                    "key": "0xc9251264322515cfceba4c9063b3b6c5c0190105",
                                    "value": {
                                        "current": "48447522072337449606193",
                                        "prev": "62447522072337449606193",
                                        "typeTag": 1
                                    }
                                },
                                {
                                    "key": "0xd67ad6c867cd657cc145ce01d991a5d15e2fb035",
                                    "value": {
                                        "current": "35621907134585579306913",
                                        "prev": "21621907134585579306913",
                                        "typeTag": 1
                                    }
                                }
                            ],
                            "typeTag": 4
                        }
                    }
                ]
            }
        ]
    }
}