{
    "balance_change": {
        "balanceChanges": [
            {
                "account": "0x9c1866e185184e22743f75198073403b01ce08a4",
                "assets": [
                    {
                        "address": "0xeeeeeeeeeeeeeeeeeeeeeeeeeeeeeeeeeeeeeeee",
                        "amount": "0.01",
                        "iconUrl": "https://assets.blocksec.com/image/1663669189317-3.png",
                        "isERC1155": false,
                        "isERC721": false,
                        "sign": false,
                        "value": ""
                    }
                ]
            },
            {
                "account": "0xdd916c97f4f6b48bd8dd8885118b697b119acebb",
                "assets": [
                    {
                        "address": "0xeeeeeeeeeeeeeeeeeeeeeeeeeeeeeeeeeeeeeeee",
                        "amount": "0.00595439204597282",
                        "iconUrl": "https://assets.blocksec.com/image/1663669189317-3.png",
                        "isERC1155": false,
                        "isERC721": false,
                        "sign": true,
                        "value": ""
                    }
                ]
            },
            {
                "account": "0x3dbdc81a6edc94c720b0b88fb65dbd7e395fdcf6",
                "assets": [
                    {
                        "address": "0xeeeeeeeeeeeeeeeeeeeeeeeeeeeeeeeeeeeeeeee",
                        "amount": "0.00404560795402718",
                        "iconUrl": "https://assets.blocksec.com/image/1663669189317-3.png",
                        "isERC1155": false,
                        "isERC721": false,
                        "sign": true,
                        "value": ""
                    }
                ]
            }
        ]
    },
    "profile": {
        "basic_info": {
            "baseFee": "",
            "blockNumber": 6440732,
            "callData": "0xda29b5b6000000000000000000000000ca368e7b4494b133ecdac8f9e6b93e74274487210000000000000000000000000000000000000000000000000de0b6b3a7640000",
            "debugEnable": true,
            "errorInfo": "",
            "eventCount": 3,
            "feeRecipient": "0xea674fdde714fd979de3edf0f56aa9716b898ec8",
            "formatValue": "0.01",
            "gasLimit": 500000,
            "gasPrice": "50",
            "gasUsed": 236087,
            "intTxnCount": 6,
            "internalRevert": false,
            "internalRevertMessage": "",
            "isContractCreation": false,
            "isFlashloan": false,
            "maxFee": "",
            "nonce": 192,
            "overwritedBlockNumber": -1,
            "priorityFee": "",
            "receiver": "0xdd916c97f4f6b48bd8dd8885118b697b119acebb",
            "revertMessage": "",
            "sender": "0x9c1866e185184e22743f75198073403b01ce08a4",
            "simulationEnable": true,
            "sourceTxnHash": "0xec09a606cda95f923aeb7f3476ce2bec8a943f0b986afab0cc0339ba249dde74",
            "status": true,
            "timestamp": "2018-10-02T17:12:26Z",
            "transactionFee": "0.01180435",
            "txnHash": "0xec09a606cda95f923aeb7f3476ce2bec8a943f0b986afab0cc0339ba249dde74",
            "txnIndex": 18,
            "type": 0,
            "value": "10000000000000000"
        },
        "fund_flow": [
            {
                "amount": "0.01",
                "from": "0x9c1866e185184e22743f75198073403b01ce08a4",
                "id": 1,
                "isERC1155": false,
                "isERC721": false,
                "isReverted": false,
                "order": 1,
                "to": "0xdd916c97f4f6b48bd8dd8885118b697b119acebb",
                "token": "0xeeeeeeeeeeeeeeeeeeeeeeeeeeeeeeeeeeeeeeee"
            },
            {
                "amount": "0.00404560795402718",
                "from": "0xdd916c97f4f6b48bd8dd8885118b697b119acebb",
                "id": 2,
                "isERC1155": false,
                "isERC721": false,
                "isReverted": false,
                "order": 2,
                "to": "0x3dbdc81a6edc94c720b0b88fb65dbd7e395fdcf6",
                "token": "0xeeeeeeeeeeeeeeeeeeeeeeeeeeeeeeeeeeeeeeee"
            }
        ],
        "token_infos": [
            {
                "address": "0xc02aaa39b223fe8d0a0e5c4f27ead9083c756cc2",
                "decimals": 18
            },
            {
                "address": "0xeeeeeeeeeeeeeeeeeeeeeeeeeeeeeeeeeeeeeeee",
                "decimals": 18
            }
        ]
    },
    "address_label": {
        "labels": [
            {
                "address": "0x0000000000000000000000000000000000000001",
                "label": "Precompiled"
            },
            {
                "address": "0x0000000000000000000000000000000000000002",
                "label": "Precompiled"
            },
            {
                "address": "0x0000000000000000000000000000000000000003",
                "label": "Precompiled"
            },
            {
                "address": "0x0000000000000000000000000000000000000004",
                "label": "Precompiled"
            },
            {
                "address": "0xeeeeeeeeeeeeeeeeeeeeeeeeeeeeeeeeeeeeeeee",
                "label": "Ether"
            },
            {
                "address": "0x1d3b2638a7cc9f2cb3d298a3da7a90b67e5506ed",
                "label": "OraclizeAddrResolver"
            },
            {
                "address": "0x666c549f5a01167f1aa19bb68be552441f520895",
                "label": "A5DToken"
            },
            {
                "address": "0x3dbdc81a6edc94c720b0b88fb65dbd7e395fdcf6",
                "label": "Oraclize"
            }
        ]
    },
    "trace": {
        "accountLabels": null,
        "dataMap": {
            "-1": {
                "invocation": {
                    "address": "0x9c1866e185184e22743f75198073403b01ce08a4",
                    "callData": "",
                    "decodedMethod": null,
                    "errorInfo": "",
                    "fromAddress": "",
                    "gasUsed": 0,
                    "id": -1,
                    "methodDecoded": false,
                    "operation": "",
                    "output": "",
                    "revert": false,
                    "revertMessage": "",
                    "selector": "",
                    "status": false,
                    "value": ""
                },
                "nodeType": 0
            },
            "0": {
                "invocation": {
                    "address": "0xdd916c97f4f6b48bd8dd8885118b697b119acebb",
                    "callData": "0x000000000000000000000000ca368e7b4494b133ecdac8f9e6b93e74274487210000000000000000000000000000000000000000000000000de0b6b3a7640000",
                    "decodedMethod": null,
                    "errorInfo": "",
                    "fromAddress": "0x9c1866e185184e22743f75198073403b01ce08a4",
                    "gasUsed": 236087,
                    "id": 0,
                    "methodDecoded": false,
                    "operation": "CALL",
                    "output": "",
                    "revert": false,
                    "revertMessage": "",
                    "selector": "0xda29b5b6",
                    "status": true,
                    "value": "0.01"
                },
                "nodeType": 0
            },
            "1": {
                "invocation": {
                    "address": "0x666c549f5a01167f1aa19bb68be552441f520895",
                    "callData": "0x000000000000000000000000ca368e7b4494b133ecdac8f9e6b93e74274487210000000000000000000000000000000000000000000000000de0b6b3a7640000",
                    "decodedMethod": {
                        "callParams": [
                            {
                                "name": "_from",
                                "type": "address",
                                "value": "0xca368e7b4494b133ecdac8f9e6b93e7427448721"
                            },
                            {
                                "name": "_value",
                                "type": "uint256",
                                "value": "1,000,000,000,000,000,000"
                            }
                        ],
                        "constructorArguments": "",
                        "name": "spendGameLockedToken",
                        "returnParams": [
                            {
                                "name": "",
                                "type": "bool",
                                "value": true
                            }
                        ],
                        "signature": "spendGameLockedToken(address,uint256)"
                    },
                    "errorInfo": "",
                    "fromAddress": "0xdd916c97f4f6b48bd8dd8885118b697b119acebb",
                    "gasUsed": 14740,
                    "id": 1,
                    "methodDecoded": true,
                    "operation": "CALL",
                    "output": "0x0000000000000000000000000000000000000000000000000000000000000001",
                    "revert": false,
                    "revertMessage": "",
                    "selector": "0x7261ffad",
                    "status": true,
                    "value": "0"
                },
                "nodeType": 0
            },
            "2": {
                "event": {
                    "contract": "0x666c549f5a01167f1aa19bb68be552441f520895",
                    "decodedLog": {
                        "name": "SpendLockedBalance",
                        "params": [
                            {
                                "name": "_owner",
                                "type": "address",
                                "value": "0x28f6e90a80de7a4fc398726c2a87961830d80955"
                            },
                            {
                                "name": "spender",
                                "type": "address",
                                "value": "0xca368e7b4494b133ecdac8f9e6b93e7427448721"
                            },
                            {
                                "name": "_amount",
                                "type": "uint256",
                                "value": "1,000,000,000,000,000,000"
                            }
                        ],
                        "signature": "SpendLockedBalance(address,address,uint256)"
                    },
                    "id": 2,
                    "logData": "0x0000000000000000000000000000000000000000000000000de0b6b3a7640000",
                    "logDecoded": true,
                    "operation": "EVENT",
                    "revert": false,
                    "status": true,
                    "topics": [
                        "0xab0bfba05f9bb5237885129403420585599582e2f8204f338a8a0eb2f2b93f7c",
                        "0x00000000000000000000000028f6e90a80de7a4fc398726c2a87961830d80955",
                        "0x000000000000000000000000ca368e7b4494b133ecdac8f9e6b93e7427448721"
                    ]
                },
                "nodeType": 1
            },
            "3": {
                "invocation": {
                    "address": "0x1d3b2638a7cc9f2cb3d298a3da7a90b67e5506ed",
                    "callData": "0x",
                    "decodedMethod": {
                        "callParams": [],
                        "constructorArguments": "",
                        "name": "getAddress",
                        "returnParams": [
                            {
                                "name": "oaddr",
                                "type": "address",
                                "value": "0x3dbdc81a6edc94c720b0b88fb65dbd7e395fdcf6"
                            }
                        ],
                        "signature": "getAddress()"
                    },
                    "errorInfo": "",
                    "fromAddress": "0xdd916c97f4f6b48bd8dd8885118b697b119acebb",
                    "gasUsed": 418,
                    "id": 3,
                    "methodDecoded": true,
                    "operation": "CALL",
                    "output": "0x0000000000000000000000003dbdc81a6edc94c720b0b88fb65dbd7e395fdcf6",
                    "revert": false,
                    "revertMessage": "",
                    "selector": "0x38cc4831",
                    "status": true,
                    "value": "0"
                },
                "nodeType": 0
            },
            "4": {
                "invocation": {
                    "address": "0x3dbdc81a6edc94c720b0b88fb65dbd7e395fdcf6",
                    "callData": "0x0000000000000000000000000000000000000000000000000000000000000020000000000000000000000000000000000000000000000000000000000000000355524c0000000000000000000000000000000000000000000000000000000000",
                    "decodedMethod": {
                        "callParams": [
                            {
                                "name": "_datasource",
                                "type": "string",
                                "value": "URL"
                            }
                        ],
                        "constructorArguments": "",
                        "name": "getPrice",
                        "returnParams": [
                            {
                                "name": "_dsprice",
                                "type": "uint256",
                                "value": "4,045,607,954,027,180"
                            }
                        ],
                        "signature": "getPrice(string)"
                    },
                    "errorInfo": "",
                    "fromAddress": "0xdd916c97f4f6b48bd8dd8885118b697b119acebb",
                    "gasUsed": 2991,
                    "id": 4,
                    "methodDecoded": true,
                    "operation": "CALL",
                    "output": "0x000000000000000000000000000000000000000000000000000e5f75810012ac",
                    "revert": false,
                    "revertMessage": "",
                    "selector": "0x524f3889",
                    "status": true,
                    "value": "0"
                },
                "nodeType": 0
            },
            "5": {
                "invocation": {
                    "address": "0x1d3b2638a7cc9f2cb3d298a3da7a90b67e5506ed",
                    "callData": "0x",
                    "decodedMethod": {
                        "callParams": [],
                        "constructorArguments": "",
                        "name": "getAddress",
                        "returnParams": [
                            {
                                "name": "oaddr",
                                "type": "address",
                                "value": "0x3dbdc81a6edc94c720b0b88fb65dbd7e395fdcf6"
                            }
                        ],
                        "signature": "getAddress()"
                    },
                    "errorInfo": "",
                    "fromAddress": "0xdd916c97f4f6b48bd8dd8885118b697b119acebb",
                    "gasUsed": 418,
                    "id": 5,
                    "methodDecoded": true,
                    "operation": "CALL",
                    "output": "0x0000000000000000000000003dbdc81a6edc94c720b0b88fb65dbd7e395fdcf6",
                    "revert": false,
                    "revertMessage": "",
                    "selector": "0x38cc4831",
                    "status": true,
                    "value": "0"
                },
                "nodeType": 0
            },
            "6": {
                "invocation": {
                    "address": "0x3dbdc81a6edc94c720b0b88fb65dbd7e395fdcf6",
                    "callData": "0x0000000000000000000000000000000000000000000000000000000000000020000000000000000000000000000000000000000000000000000000000000000355524c0000000000000000000000000000000000000000000000000000000000",
                    "decodedMethod": {
                        "callParams": [
                            {
                                "name": "_datasource",
                                "type": "string",
                                "value": "URL"
                            }
                        ],
                        "constructorArguments": "",
                        "name": "getPrice",
                        "returnParams": [
                            {
                                "name": "_dsprice",
                                "type": "uint256",
                                "value": "4,045,607,954,027,180"
                            }
                        ],
                        "signature": "getPrice(string)"
                    },
                    "errorInfo": "",
                    "fromAddress": "0xdd916c97f4f6b48bd8dd8885118b697b119acebb",
                    "gasUsed": 2991,
                    "id": 6,
                    "methodDecoded": true,
                    "operation": "CALL",
                    "output": "0x000000000000000000000000000000000000000000000000000e5f75810012ac",
                    "revert": false,
                    "revertMessage": "",
                    "selector": "0x524f3889",
                    "status": true,
                    "value": "0"
                },
                "nodeType": 0
            },
            "7": {
                "invocation": {
                    "address": "0x3dbdc81a6edc94c720b0b88fb65dbd7e395fdcf6",
                    "callData": "0x0000000000000000000000000000000000000000000000000000000000000000000000000000000000000000000000000000000000000000000000000000006000000000000000000000000000000000000000000000000000000000000000a0000000000000000000000000000000000000000000000000000000000000000355524c0000000000000000000000000000000000000000000000000000000000000000000000000000000000000000000000000000000000000000000000006468747470733a2f2f356462696473636f696e732e636f6d2f6170692f73632f77696e6e6572436865636b2e7068703f726573756c743d7472756526726f756e645f69643d32332662696470726963653d313934323931323730353237323235353931393800000000000000000000000000000000000000000000000000000000",
                    "decodedMethod": {
                        "callParams": [
                            {
                                "name": "_timestamp",
                                "type": "uint256",
                                "value": "0"
                            },
                            {
                                "name": "_datasource",
                                "type": "string",
                                "value": "URL"
                            },
                            {
                                "name": "_arg",
                                "type": "string",
                                "value": "https://5dbidscoins.com/api/sc/winnerCheck.php?result=true&round_id=23&bidprice=19429127052722559198"
                            }
                        ],
                        "constructorArguments": "",
                        "name": "query",
                        "returnParams": [
                            {
                                "name": "_id",
                                "type": "bytes32",
                                "value": "0x484df828acb0ef592d3df6de3fe56038e9b3421b13400b452730b64126473bb2"
                            }
                        ],
                        "signature": "query(uint256,string,string)"
                    },
                    "errorInfo": "",
                    "fromAddress": "0xdd916c97f4f6b48bd8dd8885118b697b119acebb",
                    "gasUsed": 16411,
                    "id": 7,
                    "methodDecoded": true,
                    "operation": "CALL",
                    "output": "0x484df828acb0ef592d3df6de3fe56038e9b3421b13400b452730b64126473bb2",
                    "revert": false,
                    "revertMessage": "",
                    "selector": "0xadf59f99",
                    "status": true,
                    "value": "0.00404560795402718"
                },
                "nodeType": 0
            },
            "8": {
                "event": {
                    "contract": "0x3dbdc81a6edc94c720b0b88fb65dbd7e395fdcf6",
                    "decodedLog": {
                        "name": "Log1",
                        "params": [
                            {
                                "name": "sender",
                                "type": "address",
                                "value": "0xdd916c97f4f6b48bd8dd8885118b697b119acebb"
                            },
                            {
                                "name": "cid",
                                "type": "bytes32",
                                "value": "0x484df828acb0ef592d3df6de3fe56038e9b3421b13400b452730b64126473bb2"
                            },
                            {
                                "name": "timestamp",
                                "type": "uint256",
                                "value": "0"
                            },
                            {
                                "name": "datasource",
                                "type": "string",
                                "value": "URL"
                            },
                            {
                                "name": "arg",
                                "type": "string",
                                "value": "https://5dbidscoins.com/api/sc/winnerCheck.php?result=true&round_id=23&bidprice=19429127052722559198"
                            },
                            {
                                "name": "gaslimit",
                                "type": "uint256",
                                "value": "200,000"
                            },
                            {
                                "name": "proofType",
                                "type": "bytes1",
                                "value": "0x00"
                            },
                            {
                                "name": "gasPrice",
                                "type": "uint256",
                                "value": "0"
                            }
                        ],
                        "signature": "Log1(address,bytes32,uint256,string,string,uint256,bytes1,uint256)"
                    },
                    "id": 8,
                    "logData": "0x000000000000000000000000dd916c97f4f6b48bd8dd8885118b697b119acebb484df828acb0ef592d3df6de3fe56038e9b3421b13400b452730b64126473bb20000000000000000000000000000000000000000000000000000000000000000000000000000000000000000000000000000000000000000000000000000010000000000000000000000000000000000000000000000000000000000000001400000000000000000000000000000000000000000000000000000000000030d4000000000000000000000000000000000000000000000000000000000000000000000000000000000000000000000000000000000000000000000000000000000000000000000000000000000000000000000000000000000000000000000000355524c0000000000000000000000000000000000000000000000000000000000000000000000000000000000000000000000000000000000000000000000006468747470733a2f2f356462696473636f696e732e636f6d2f6170692f73632f77696e6e6572436865636b2e7068703f726573756c743d7472756526726f756e645f69643d32332662696470726963653d313934323931323730353237323235353931393800000000000000000000000000000000000000000000000000000000",
                    "logDecoded": true,
                    "operation": "EVENT",
                    "revert": false,
                    "status": true,
                    "topics": [
                        "0xb76d0edd90c6a07aa3ff7a222d7f5933e29c6acc660c059c97837f05c4ca1a84"
                    ]
                },
                "nodeType": 1
            },
            "9": {
                "event": {
                    "contract": "0xdd916c97f4f6b48bd8dd8885118b697b119acebb",
                    "decodedLog": null,
                    "id": 9,
                    "logData": "0x000000000000000000000000ca368e7b4494b133ecdac8f9e6b93e74274487210000000000000000000000000000000000000000000000010d7e992ae1b4d8de000000000000000000000000000000000000000000000000000000000000006000000000000000000000000000000000000000000000000000000000000000023233000000000000000000000000000000000000000000000000000000000000",
                    "logDecoded": false,
                    "operation": "EVENT",
                    "revert": false,
                    "status": true,
                    "topics": [
                        "0x4d0ec6f950925f13363103d02bc6fa24bb84b45353ba7d6383ad9c47c91f8559"
                    ]
                },
                "nodeType": 1
            }
        },
        "gasFlame": [
            {
                "children": [
                    {
                        "children": [
                            {
                                "children": [],
                                "depth": 0,
                                "name": "Initial Gas",
                                "value": 23192
                            },
                            {
                                "children": [
                                    {
                                        "children": [],
                                        "depth": 1,
                                        "name": "spendGameLockedToken",
                                        "value": 14740
                                    },
                                    {
                                        "children": [],
                                        "depth": 1,
                                        "name": "getAddress",
                                        "value": 418
                                    },
                                    {
                                        "children": [],
                                        "depth": 1,
                                        "name": "getPrice",
                                        "value": 2991
                                    },
                                    {
                                        "children": [],
                                        "depth": 1,
                                        "name": "getAddress",
                                        "value": 418
                                    },
                                    {
                                        "children": [],
                                        "depth": 1,
                                        "name": "getPrice",
                                        "value": 2991
                                    },
                                    {
                                        "children": [],
                                        "depth": 1,
                                        "name": "query",
                                        "value": 16411
                                    }
                                ],
                                "depth": 0,
                                "name": "Executed Gas",
                                "value": 212895
                            }
                        ],
                        "depth": -1,
                        "name": "Actual Gas Used",
                        "value": 236087
                    },
                    {
                        "children": [],
                        "depth": -1,
                        "name": "Refunded Gas",
                        "value": 0
                    }
                ],
                "depth": -2,
                "name": "Total Gas",
                "value": 236087
            }
        ],
        "isConfirmed": true,
        "mainTrace": [
            {
                "children": [
                    {
                        "children": [
                            {
                                "children": [
                                    {
                                        "children": [],
                                        "depth": 2,
                                        "id": 2,
                                        "order": 2
                                    }
                                ],
                                "depth": 1,
                                "id": 1,
                                "order": 1
                            },
                            {
                                "children": [],
                                "depth": 1,
                                "id": 3,
                                "order": 3
                            },
                            {
                                "children": [],
                                "depth": 1,
                                "id": 4,
                                "order": 4
                            },
                            {
                                "children": [],
                                "depth": 1,
                                "id": 5,
                                "order": 5
                            },
                            {
                                "children": [],
                                "depth": 1,
                                "id": 6,
                                "order": 6
                            },
                            {
                                "children": [
                                    {
                                        "children": [],
                                        "depth": 2,
                                        "id": 8,
                                        "order": 8
                                    }
                                ],
                                "depth": 1,
                                "id": 7,
                                "order": 7
                            },
                            {
                                "children": [],
                                "depth": 1,
                                "id": 9,
                                "order": 9
                            }
                        ],
                        "depth": 0,
                        "id": 0,
                        "order": 0
                    }
                ],
                "depth": -1,
                "id": -1,
                "order": -1
            }
        ],
        "mainTraceNodeCount": 10,
        "parentIdMap": {
            "0": -1,
            "1": 0,
            "2": 1,
            "3": 0,
            "4": 0,
            "5": 0,
            "6": 0,
            "7": 0,
            "8": 7,
            "9": 0
        },
        "tidyTrace": [
            {
                "children": [
                    {
                        "children": [
                            {
                                "children": [
                                    {
                                        "children": [],
                                        "depth": 2,
                                        "id": 2,
                                        "order": 2
                                    }
                                ],
                                "depth": 1,
                                "id": 1,
                                "order": 1
                            },
                            {
                                "children": [],
                                "depth": 1,
                                "id": 3,
                                "order": 3
                            },
                            {
                                "children": [],
                                "depth": 1,
                                "id": 4,
                                "order": 4
                            },
                            {
                                "children": [],
                                "depth": 1,
                                "id": 5,
                                "order": 5
                            },
                            {
                                "children": [],
                                "depth": 1,
                                "id": 6,
                                "order": 6
                            },
                            {
                                "children": [
                                    {
                                        "children": [],
                                        "depth": 2,
                                        "id": 8,
                                        "order": 8
                                    }
                                ],
                                "depth": 1,
                                "id": 7,
                                "order": 7
                            },
                            {
                                "children": [],
                                "depth": 1,
                                "id": 9,
                                "order": 9
                            }
                        ],
                        "depth": 0,
                        "id": 0,
                        "order": 0
                    }
                ],
                "depth": -1,
                "id": -1,
                "order": -1
            }
        ],
        "tidyTraceNodeCount": 10
    },
    "state_change": {
        "stateChanges": [
            {
                "address": "0x3dbdc81a6edc94c720b0b88fb65dbd7e395fdcf6",
                "erc": "",
                "slots": [
                    {
                        "current": "0x00000000000000000000000000000000000000000000000000000000000000c0",
                        "key": "0x0945009e0b960a09c98d180ff6ace29a1c4a803247095dc6d9e8941a1d582469",
                        "prev": "0x00000000000000000000000000000000000000000000000000000000000000bf"
                    }
                ],
                "storageVariables": [
                    {
                        "name": "reqc",
                        "type": "mapping(address => uint256)",
                        "value": {
                            "pairs": [
                                {
                                    "key": "0xdd916c97f4f6b48bd8dd8885118b697b119acebb",
                                    "value": {
                                        "current": "192",
                                        "prev": "191",
                                        "typeTag": 1
                                    }
                                }
                            ],
                            "typeTag": 4
                        }
                    }
                ]
            },
            {
                "address": "0x666c549f5a01167f1aa19bb68be552441f520895",
                "erc": "ERC-20",
                "slots": [
                    {
                        "current": "0x000000000000000000000000000000000000000000000036ce71877e0fec0000",
                        "key": "0xa737fce25daeecfd5428b0c7353b4c9b94163267adfc657c93932592005dfbb1",
                        "prev": "0x000000000000000000000000000000000000000000000036dc523e31b7500000"
                    },
                    {
                        "current": "0x00000000000000000000000000000000000000000052b72021b70d14151c0000",
                        "key": "0x63c7e5e82be5bea06aec55505751af02fd7657100c3875bdae6704311161df16",
                        "prev": "0x00000000000000000000000000000000000000000052b72013d656606db80000"
                    }
                ],
                "storageVariables": [
                    {
                        "name": "lockedBalances",
                        "type": "mapping(address => uint256)",
                        "value": {
                            "pairs": [
                                {
                                    "key": "0xca368e7b4494b133ecdac8f9e6b93e7427448721",
                                    "value": {
                                        "current": "1011000000000000000000",
                                        "prev": "1012000000000000000000",
                                        "typeTag": 1
                                    }
                                }
                            ],
                            "typeTag": 4
                        }
                    },
                    {
                        "name": "balances",
                        "type": "mapping(address => uint256)",
                        "value": {
                            "pairs": [
                                {
                                    "key": "0x28f6e90a80de7a4fc398726c2a87961830d80955",
                                    "value": {
                                        "current": "99996703000000000000000000",
                                        "prev": "99996702000000000000000000",
                                        "typeTag": 1
                                    }
                                }
                            ],
                            "typeTag": 4
                        }
                    }
                ]
            },
            {
                "address": "0xdd916c97f4f6b48bd8dd8885118b697b119acebb",
                "erc": "",
                "slots": [
                    {
                        "current": "0x0000000000000000000000000000000000000000000000000000000000000001",
                        "key": "0x893a2405d7a7ceee0ba063e5e4568a499ae8f82e4b9b7a860d7bd198f4f485b0",
                        "prev": "0x0000000000000000000000000000000000000000000000000000000000000000"
                    },
                    {
                        "current": "0x0000000000000000000000000000000000000000000000010d7e992ae1b4d8de",
                        "key": "0x0000000000000000000000000000000000000000000000000000000000000008",
                        "prev": "0x0000000000000000000000000000000000000000000000010da2201d5175d8de"
                    }
                ],
                "storageVariables": []
            }
        ]
    }
}