{
    "balance_change": {
        "balanceChanges": [
            {
                "account": "0xd92e1703d19b01a727e8e84f6ddd20fa5a0140a1",
                "assets": [
                    {
                        "address": "0xba44ffab97960f15c09913d844ced99096debde8",
                        "amount": "98,836",
                        "iconUrl": "",
                        "isERC1155": false,
                        "isERC721": false,
                        "sign": false,
                        "value": ""
                    }
                ]
            },
            {
                "account": "0x002238502f63bd885d6a5b92d20706c42530c247",
                "assets": [
                    {
                        "address": "0xba44ffab97960f15c09913d844ced99096debde8",
                        "amount": "98,836",
                        "iconUrl": "",
                        "isERC1155": false,
                        "isERC721": false,
                        "sign": true,
                        "value": ""
                    }
                ]
            }
        ]
    },
    "profile": {
        "basic_info": {
            "baseFee": "",
            "blockNumber": 7820678,
            "callData": "0xa9059cbb000000000000000000000000002238502f63bd885d6a5b92d20706c42530c2470000000000000000000000000000000000000000000014ede909286ddbd00000",
            "debugEnable": true,
            "errorInfo": "",
            "eventCount": 1,
            "feeRecipient": "0xb2930b35844a230f00e51431acae96fe543a0347",
            "formatValue": "0",
            "gasLimit": 60000,
            "gasPrice": "4",
            "gasUsed": 38495,
            "intTxnCount": 0,
            "internalRevert": false,
            "internalRevertMessage": "",
            "isContractCreation": false,
            "isFlashloan": false,
            "maxFee": "",
            "nonce": 3478,
            "overwritedBlockNumber": -1,
            "priorityFee": "",
            "receiver": "0xba44ffab97960f15c09913d844ced99096debde8",
            "revertMessage": "",
            "sender": "0xd92e1703d19b01a727e8e84f6ddd20fa5a0140a1",
            "simulationEnable": true,
            "sourceTxnHash": "0xecc1729ad2c6bff135542ec5ee977dda1b064337fc51b9aa3306f4976051a4fc",
            "status": true,
            "timestamp": "2019-05-24T06:07:43Z",
            "transactionFee": "0.00015398",
            "txnHash": "0xecc1729ad2c6bff135542ec5ee977dda1b064337fc51b9aa3306f4976051a4fc",
            "txnIndex": 61,
            "type": 0,
            "value": "0"
        },
        "fund_flow": [
            {
                "amount": "98,836",
                "from": "0xd92e1703d19b01a727e8e84f6ddd20fa5a0140a1",
                "id": 1,
                "isERC1155": false,
                "isERC721": false,
                "isReverted": false,
                "order": 1,
                "to": "0x002238502f63bd885d6a5b92d20706c42530c247",
                "token": "0xba44ffab97960f15c09913d844ced99096debde8"
            }
        ],
        "token_infos": [
            {
                "address": "0xba44ffab97960f15c09913d844ced99096debde8",
                "decimals": 18
            },
            {
                "address": "0xc02aaa39b223fe8d0a0e5c4f27ead9083c756cc2",
                "decimals": 18
            },
            {
                "address": "0xeeeeeeeeeeeeeeeeeeeeeeeeeeeeeeeeeeeeeeee",
                "decimals": 18
            }
        ]
    },
    "address_label": {
        "labels": [
            {
                "address": "0xba44ffab97960f15c09913d844ced99096debde8",
                "label": "SDS Token (SDS)"
            },
            {
                "address": "0x0000000000000000000000000000000000000001",
                "label": "Precompiled"
            },
            {
                "address": "0x0000000000000000000000000000000000000002",
                "label": "Precompiled"
            },
            {
                "address": "0x0000000000000000000000000000000000000003",
                "label": "Precompiled"
            },
            {
                "address": "0x0000000000000000000000000000000000000004",
                "label": "Precompiled"
            },
            {
                "address": "0xeeeeeeeeeeeeeeeeeeeeeeeeeeeeeeeeeeeeeeee",
                "label": "Ether"
            }
        ]
    },
    "trace": {
        "accountLabels": null,
        "dataMap": {
            "-1": {
                "invocation": {
                    "address": "0xd92e1703d19b01a727e8e84f6ddd20fa5a0140a1",
                    "callData": "",
                    "decodedMethod": null,
                    "errorInfo": "",
                    "fromAddress": "",
                    "gasUsed": 0,
                    "id": -1,
                    "methodDecoded": false,
                    "operation": "",
                    "output": "",
                    "revert": false,
                    "revertMessage": "",
                    "selector": "",
                    "status": false,
                    "value": ""
                },
                "nodeType": 0
            },
            "0": {
                "invocation": {
                    "address": "0xba44ffab97960f15c09913d844ced99096debde8",
                    "callData": "0x000000000000000000000000002238502f63bd885d6a5b92d20706c42530c2470000000000000000000000000000000000000000000014ede909286ddbd00000",
                    "decodedMethod": {
                        "callParams": [
                            {
                                "name": "_to",
                                "type": "address",
                                "value": "0x002238502f63bd885d6a5b92d20706c42530c247"
                            },
                            {
                                "decimalAvailable": true,
                                "name": "_value",
                                "type": "uint256",
                                "value": "98,836,000,000,000,000,000,000"
                            }
                        ],
                        "constructorArguments": "",
                        "name": "transfer",
                        "returnParams": [
                            {
                                "name": "success",
                                "type": "bool",
                                "value": true
                            }
                        ],
                        "signature": "transfer(address,uint256)"
                    },
                    "errorInfo": "",
                    "fromAddress": "0xd92e1703d19b01a727e8e84f6ddd20fa5a0140a1",
                    "gasUsed": 38495,
                    "id": 0,
                    "methodDecoded": true,
                    "operation": "CALL",
                    "output": "0x0000000000000000000000000000000000000000000000000000000000000001",
                    "revert": false,
                    "revertMessage": "",
                    "selector": "0xa9059cbb",
                    "status": true,
                    "value": "0"
                },
                "nodeType": 0
            },
            "1": {
                "event": {
                    "contract": "0xba44ffab97960f15c09913d844ced99096debde8",
                    "decodedLog": {
                        "name": "Transfer",
                        "params": [
                            {
                                "name": "from",
                                "type": "address",
                                "value": "0xd92e1703d19b01a727e8e84f6ddd20fa5a0140a1"
                            },
                            {
                                "name": "to",
                                "type": "address",
                                "value": "0x002238502f63bd885d6a5b92d20706c42530c247"
                            },
                            {
                                "decimalAvailable": true,
                                "name": "value",
                                "type": "uint256",
                                "value": "98,836,000,000,000,000,000,000"
                            }
                        ],
                        "signature": "Transfer(address,address,uint256)"
                    },
                    "id": 1,
                    "logData": "0x0000000000000000000000000000000000000000000014ede909286ddbd00000",
                    "logDecoded": true,
                    "operation": "EVENT",
                    "revert": false,
                    "status": true,
                    "topics": [
                        "0xddf252ad1be2c89b69c2b068fc378daa952ba7f163c4a11628f55a4df523b3ef",
                        "0x000000000000000000000000d92e1703d19b01a727e8e84f6ddd20fa5a0140a1",
                        "0x000000000000000000000000002238502f63bd885d6a5b92d20706c42530c247"
                    ]
                },
                "nodeType": 1
            }
        },
        "gasFlame": [
            {
                "children": [
                    {
                        "children": [
                            {
                                "children": [],
                                "depth": 0,
                                "name": "Initial Gas",
                                "value": 23256
                            },
                            {
                                "children": [],
                                "depth": 0,
                                "name": "Executed Gas",
                                "value": 15239
                            }
                        ],
                        "depth": -1,
                        "name": "Actual Gas Used",
                        "value": 38495
                    },
                    {
                        "children": [],
                        "depth": -1,
                        "name": "Refunded Gas",
                        "value": 0
                    }
                ],
                "depth": -2,
                "name": "Total Gas",
                "value": 38495
            }
        ],
        "isConfirmed": true,
        "mainTrace": [
            {
                "children": [
                    {
                        "children": [
                            {
                                "children": [],
                                "depth": 1,
                                "id": 1,
                                "order": 1
                            }
                        ],
                        "depth": 0,
                        "id": 0,
                        "order": 0
                    }
                ],
                "depth": -1,
                "id": -1,
                "order": -1
            }
        ],
        "mainTraceNodeCount": 2,
        "parentIdMap": {
            "0": -1,
            "1": 0
        },
        "tidyTrace": [
            {
                "children": [
                    {
                        "children": [
                            {
                                "children": [],
                                "depth": 1,
                                "id": 1,
                                "order": 1
                            }
                        ],
                        "depth": 0,
                        "id": 0,
                        "order": 0
                    }
                ],
                "depth": -1,
                "id": -1,
                "order": -1
            }
        ],
        "tidyTraceNodeCount": 2
    },
    "state_change": {
        "stateChanges": [
            {
                "address": "0xba44ffab97960f15c09913d844ced99096debde8",
                "erc": "ERC-20",
                "slots": [
                    {
                        "current": "0x00000000000000000000000000000000000000000000d3a7386cd0d94f400000",
                        "key": "0x818026c9fb59386a65c63984d740508495cded0851576fc0f3d4350026cab72d",
                        "prev": "0x00000000000000000000000000000000000000000000beb94f63a86b73700000"
                    },
                    {
                        "current": "0x00000000000000000000000000000000000000000050399b1e79ab54288e0000",
                        "key": "0x9ae9a1586f4214fc4eb6eb17a6cf565d2269d04be9cc63ced2ba06bab3c943c3",
                        "prev": "0x000000000000000000000000000000000000000000504e890782d3c2045e0000"
                    }
                ],
                "storageVariables": [
                    {
                        "name": "balanceOf",
                        "type": "mapping(address => uint256)",
                        "value": {
                            "pairs": [
                                {
                                    "key": "0x002238502f63bd885d6a5b92d20706c42530c247",
                                    "value": {
                                        "current": "999504000000000000000000",
                                        "prev": "900668000000000000000000",
                                        "typeTag": 1
                                    }
                                },
                                {
                                    "key": "0xd92e1703d19b01a727e8e84f6ddd20fa5a0140a1",
                                    "value": {
                                        "current": "96986101900000000000000000",
                                        "prev": "97084937900000000000000000",
                                        "typeTag": 1
                                    }
                                }
                            ],
                            "typeTag": 4
                        }
                    }
                ]
            }
        ]
    }
}