{
    "balance_change": {
        "balanceChanges": [
            {
                "account": "0x0000000000000000000000000000000000000000",
                "assets": [
                    {
                        "address": "0xde1ac5fdf1a7203af036f590bcc4c0b91b2d3e3f",
                        "amount": "1",
                        "iconUrl": "",
                        "isERC1155": false,
                        "isERC721": true,
                        "sign": false,
                        "tokenID": "6127",
                        "value": ""
                    },
                    {
                        "address": "0xde1ac5fdf1a7203af036f590bcc4c0b91b2d3e3f",
                        "amount": "1",
                        "iconUrl": "",
                        "isERC1155": false,
                        "isERC721": true,
                        "sign": false,
                        "tokenID": "6128",
                        "value": ""
                    },
                    {
                        "address": "0xde1ac5fdf1a7203af036f590bcc4c0b91b2d3e3f",
                        "amount": "1",
                        "iconUrl": "",
                        "isERC1155": false,
                        "isERC721": true,
                        "sign": false,
                        "tokenID": "6129",
                        "value": ""
                    },
                    {
                        "address": "0xde1ac5fdf1a7203af036f590bcc4c0b91b2d3e3f",
                        "amount": "1",
                        "iconUrl": "",
                        "isERC1155": false,
                        "isERC721": true,
                        "sign": false,
                        "tokenID": "6130",
                        "value": ""
                    },
                    {
                        "address": "0xde1ac5fdf1a7203af036f590bcc4c0b91b2d3e3f",
                        "amount": "1",
                        "iconUrl": "",
                        "isERC1155": false,
                        "isERC721": true,
                        "sign": false,
                        "tokenID": "6131",
                        "value": ""
                    }
                ]
            },
            {
                "account": "0xe9a16f46102b97af77052d073863fd4848cac118",
                "assets": [
                    {
                        "address": "0xde1ac5fdf1a7203af036f590bcc4c0b91b2d3e3f",
                        "amount": "1",
                        "iconUrl": "",
                        "isERC1155": false,
                        "isERC721": true,
                        "sign": true,
                        "tokenID": "6131",
                        "value": ""
                    },
                    {
                        "address": "0xde1ac5fdf1a7203af036f590bcc4c0b91b2d3e3f",
                        "amount": "1",
                        "iconUrl": "",
                        "isERC1155": false,
                        "isERC721": true,
                        "sign": true,
                        "tokenID": "6127",
                        "value": ""
                    },
                    {
                        "address": "0xde1ac5fdf1a7203af036f590bcc4c0b91b2d3e3f",
                        "amount": "1",
                        "iconUrl": "",
                        "isERC1155": false,
                        "isERC721": true,
                        "sign": true,
                        "tokenID": "6128",
                        "value": ""
                    },
                    {
                        "address": "0xde1ac5fdf1a7203af036f590bcc4c0b91b2d3e3f",
                        "amount": "1",
                        "iconUrl": "",
                        "isERC1155": false,
                        "isERC721": true,
                        "sign": true,
                        "tokenID": "6129",
                        "value": ""
                    },
                    {
                        "address": "0xde1ac5fdf1a7203af036f590bcc4c0b91b2d3e3f",
                        "amount": "1",
                        "iconUrl": "",
                        "isERC1155": false,
                        "isERC721": true,
                        "sign": true,
                        "tokenID": "6130",
                        "value": ""
                    }
                ]
            }
        ]
    },
    "profile": {
        "basic_info": {
            "baseFee": "14.836534651",
            "blockNumber": 15376633,
            "callData": "0xa0712d680000000000000000000000000000000000000000000000000000000000000005",
            "debugEnable": true,
            "errorInfo": "",
            "eventCount": 5,
            "feeRecipient": "0xc365c3315cf926351ccaf13fa7d19c8c4058c8e1",
            "formatValue": "0",
            "gasLimit": 266393,
            "gasPrice": "17.836534651",
            "gasUsed": 204918,
            "intTxnCount": 0,
            "internalRevert": false,
            "internalRevertMessage": "",
            "isContractCreation": false,
            "isFlashloan": false,
            "maxFee": "19",
            "nonce": 280,
            "overwritedBlockNumber": -1,
            "priorityFee": "3",
            "receiver": "0xde1ac5fdf1a7203af036f590bcc4c0b91b2d3e3f",
            "revertMessage": "",
            "sender": "0xe9a16f46102b97af77052d073863fd4848cac118",
            "simulationEnable": true,
            "sourceTxnHash": "0xec5bf72ed334e64a696a7f81582cfb90c501974033f0c5f0e3cb6ce3ee5a45f8",
            "status": true,
            "timestamp": "2022-08-20T08:43:50Z",
            "transactionFee": "0.003655027007613618",
            "txnHash": "0xec5bf72ed334e64a696a7f81582cfb90c501974033f0c5f0e3cb6ce3ee5a45f8",
            "txnIndex": 35,
            "type": 2,
            "value": "0"
        },
        "fund_flow": [
            {
                "amount": "1",
                "from": "0x0000000000000000000000000000000000000000",
                "id": 1,
                "isERC1155": false,
                "isERC721": true,
                "isReverted": false,
                "order": 1,
                "to": "0xe9a16f46102b97af77052d073863fd4848cac118",
                "token": "0xde1ac5fdf1a7203af036f590bcc4c0b91b2d3e3f",
                "tokenID": "6127"
            },
            {
                "amount": "1",
                "from": "0x0000000000000000000000000000000000000000",
                "id": 2,
                "isERC1155": false,
                "isERC721": true,
                "isReverted": false,
                "order": 2,
                "to": "0xe9a16f46102b97af77052d073863fd4848cac118",
                "token": "0xde1ac5fdf1a7203af036f590bcc4c0b91b2d3e3f",
                "tokenID": "6128"
            },
            {
                "amount": "1",
                "from": "0x0000000000000000000000000000000000000000",
                "id": 3,
                "isERC1155": false,
                "isERC721": true,
                "isReverted": false,
                "order": 3,
                "to": "0xe9a16f46102b97af77052d073863fd4848cac118",
                "token": "0xde1ac5fdf1a7203af036f590bcc4c0b91b2d3e3f",
                "tokenID": "6129"
            },
            {
                "amount": "1",
                "from": "0x0000000000000000000000000000000000000000",
                "id": 4,
                "isERC1155": false,
                "isERC721": true,
                "isReverted": false,
                "order": 4,
                "to": "0xe9a16f46102b97af77052d073863fd4848cac118",
                "token": "0xde1ac5fdf1a7203af036f590bcc4c0b91b2d3e3f",
                "tokenID": "6130"
            },
            {
                "amount": "1",
                "from": "0x0000000000000000000000000000000000000000",
                "id": 5,
                "isERC1155": false,
                "isERC721": true,
                "isReverted": false,
                "order": 5,
                "to": "0xe9a16f46102b97af77052d073863fd4848cac118",
                "token": "0xde1ac5fdf1a7203af036f590bcc4c0b91b2d3e3f",
                "tokenID": "6131"
            }
        ],
        "token_infos": [
            {
                "address": "0xc02aaa39b223fe8d0a0e5c4f27ead9083c756cc2",
                "decimals": 18
            },
            {
                "address": "0xeeeeeeeeeeeeeeeeeeeeeeeeeeeeeeeeeeeeeeee",
                "decimals": 18
            }
        ]
    },
    "address_label": {
        "labels": [
            {
                "address": "0xde1ac5fdf1a7203af036f590bcc4c0b91b2d3e3f",
                "label": "Five Head Circle (FHC)"
            },
            {
                "address": "0x0000000000000000000000000000000000000001",
                "label": "Precompiled"
            },
            {
                "address": "0x0000000000000000000000000000000000000002",
                "label": "Precompiled"
            },
            {
                "address": "0x0000000000000000000000000000000000000003",
                "label": "Precompiled"
            },
            {
                "address": "0x0000000000000000000000000000000000000004",
                "label": "Precompiled"
            },
            {
                "address": "0xeeeeeeeeeeeeeeeeeeeeeeeeeeeeeeeeeeeeeeee",
                "label": "Ether"
            }
        ]
    },
    "trace": {
        "accountLabels": null,
        "dataMap": {
            "-1": {
                "invocation": {
                    "address": "0xe9a16f46102b97af77052d073863fd4848cac118",
                    "callData": "",
                    "decodedMethod": null,
                    "errorInfo": "",
                    "fromAddress": "",
                    "gasUsed": 0,
                    "id": -1,
                    "methodDecoded": false,
                    "operation": "",
                    "output": "",
                    "revert": false,
                    "revertMessage": "",
                    "selector": "",
                    "status": false,
                    "value": ""
                },
                "nodeType": 0
            },
            "0": {
                "invocation": {
                    "address": "0xde1ac5fdf1a7203af036f590bcc4c0b91b2d3e3f",
                    "callData": "0x0000000000000000000000000000000000000000000000000000000000000005",
                    "decodedMethod": {
                        "callParams": [
                            {
                                "name": "_mintAmount",
                                "type": "uint256",
                                "value": "5"
                            }
                        ],
                        "constructorArguments": "",
                        "name": "mint",
                        "returnParams": [],
                        "signature": "mint(uint256)"
                    },
                    "errorInfo": "",
                    "fromAddress": "0xe9a16f46102b97af77052d073863fd4848cac118",
                    "gasUsed": 204918,
                    "id": 0,
                    "methodDecoded": true,
                    "operation": "CALL",
                    "output": "",
                    "revert": false,
                    "revertMessage": "",
                    "selector": "0xa0712d68",
                    "status": true,
                    "value": "0"
                },
                "nodeType": 0
            },
            "1": {
                "event": {
                    "contract": "0xde1ac5fdf1a7203af036f590bcc4c0b91b2d3e3f",
                    "decodedLog": {
                        "name": "Transfer",
                        "params": [
                            {
                                "name": "from",
                                "type": "address",
                                "value": "0x0000000000000000000000000000000000000000"
                            },
                            {
                                "name": "to",
                                "type": "address",
                                "value": "0xe9a16f46102b97af77052d073863fd4848cac118"
                            },
                            {
                                "decimalAvailable": true,
                                "name": "tokenId",
                                "type": "uint256",
                                "value": "6,127"
                            }
                        ],
                        "signature": "Transfer(address,address,uint256)"
                    },
                    "id": 1,
                    "logData": "0x",
                    "logDecoded": true,
                    "operation": "EVENT",
                    "revert": false,
                    "status": true,
                    "topics": [
                        "0xddf252ad1be2c89b69c2b068fc378daa952ba7f163c4a11628f55a4df523b3ef",
                        "0x0000000000000000000000000000000000000000000000000000000000000000",
                        "0x000000000000000000000000e9a16f46102b97af77052d073863fd4848cac118",
                        "0x00000000000000000000000000000000000000000000000000000000000017ef"
                    ]
                },
                "nodeType": 1
            },
            "2": {
                "event": {
                    "contract": "0xde1ac5fdf1a7203af036f590bcc4c0b91b2d3e3f",
                    "decodedLog": {
                        "name": "Transfer",
                        "params": [
                            {
                                "name": "from",
                                "type": "address",
                                "value": "0x0000000000000000000000000000000000000000"
                            },
                            {
                                "name": "to",
                                "type": "address",
                                "value": "0xe9a16f46102b97af77052d073863fd4848cac118"
                            },
                            {
                                "decimalAvailable": true,
                                "name": "tokenId",
                                "type": "uint256",
                                "value": "6,128"
                            }
                        ],
                        "signature": "Transfer(address,address,uint256)"
                    },
                    "id": 2,
                    "logData": "0x",
                    "logDecoded": true,
                    "operation": "EVENT",
                    "revert": false,
                    "status": true,
                    "topics": [
                        "0xddf252ad1be2c89b69c2b068fc378daa952ba7f163c4a11628f55a4df523b3ef",
                        "0x0000000000000000000000000000000000000000000000000000000000000000",
                        "0x000000000000000000000000e9a16f46102b97af77052d073863fd4848cac118",
                        "0x00000000000000000000000000000000000000000000000000000000000017f0"
                    ]
                },
                "nodeType": 1
            },
            "3": {
                "event": {
                    "contract": "0xde1ac5fdf1a7203af036f590bcc4c0b91b2d3e3f",
                    "decodedLog": {
                        "name": "Transfer",
                        "params": [
                            {
                                "name": "from",
                                "type": "address",
                                "value": "0x0000000000000000000000000000000000000000"
                            },
                            {
                                "name": "to",
                                "type": "address",
                                "value": "0xe9a16f46102b97af77052d073863fd4848cac118"
                            },
                            {
                                "decimalAvailable": true,
                                "name": "tokenId",
                                "type": "uint256",
                                "value": "6,129"
                            }
                        ],
                        "signature": "Transfer(address,address,uint256)"
                    },
                    "id": 3,
                    "logData": "0x",
                    "logDecoded": true,
                    "operation": "EVENT",
                    "revert": false,
                    "status": true,
                    "topics": [
                        "0xddf252ad1be2c89b69c2b068fc378daa952ba7f163c4a11628f55a4df523b3ef",
                        "0x0000000000000000000000000000000000000000000000000000000000000000",
                        "0x000000000000000000000000e9a16f46102b97af77052d073863fd4848cac118",
                        "0x00000000000000000000000000000000000000000000000000000000000017f1"
                    ]
                },
                "nodeType": 1
            },
            "4": {
                "event": {
                    "contract": "0xde1ac5fdf1a7203af036f590bcc4c0b91b2d3e3f",
                    "decodedLog": {
                        "name": "Transfer",
                        "params": [
                            {
                                "name": "from",
                                "type": "address",
                                "value": "0x0000000000000000000000000000000000000000"
                            },
                            {
                                "name": "to",
                                "type": "address",
                                "value": "0xe9a16f46102b97af77052d073863fd4848cac118"
                            },
                            {
                                "decimalAvailable": true,
                                "name": "tokenId",
                                "type": "uint256",
                                "value": "6,130"
                            }
                        ],
                        "signature": "Transfer(address,address,uint256)"
                    },
                    "id": 4,
                    "logData": "0x",
                    "logDecoded": true,
                    "operation": "EVENT",
                    "revert": false,
                    "status": true,
                    "topics": [
                        "0xddf252ad1be2c89b69c2b068fc378daa952ba7f163c4a11628f55a4df523b3ef",
                        "0x0000000000000000000000000000000000000000000000000000000000000000",
                        "0x000000000000000000000000e9a16f46102b97af77052d073863fd4848cac118",
                        "0x00000000000000000000000000000000000000000000000000000000000017f2"
                    ]
                },
                "nodeType": 1
            },
            "5": {
                "event": {
                    "contract": "0xde1ac5fdf1a7203af036f590bcc4c0b91b2d3e3f",
                    "decodedLog": {
                        "name": "Transfer",
                        "params": [
                            {
                                "name": "from",
                                "type": "address",
                                "value": "0x0000000000000000000000000000000000000000"
                            },
                            {
                                "name": "to",
                                "type": "address",
                                "value": "0xe9a16f46102b97af77052d073863fd4848cac118"
                            },
                            {
                                "decimalAvailable": true,
                                "name": "tokenId",
                                "type": "uint256",
                                "value": "6,131"
                            }
                        ],
                        "signature": "Transfer(address,address,uint256)"
                    },
                    "id": 5,
                    "logData": "0x",
                    "logDecoded": true,
                    "operation": "EVENT",
                    "revert": false,
                    "status": true,
                    "topics": [
                        "0xddf252ad1be2c89b69c2b068fc378daa952ba7f163c4a11628f55a4df523b3ef",
                        "0x0000000000000000000000000000000000000000000000000000000000000000",
                        "0x000000000000000000000000e9a16f46102b97af77052d073863fd4848cac118",
                        "0x00000000000000000000000000000000000000000000000000000000000017f3"
                    ]
                },
                "nodeType": 1
            }
        },
        "gasFlame": [
            {
                "children": [
                    {
                        "children": [
                            {
                                "children": [],
                                "depth": 0,
                                "name": "Initial Gas",
                                "value": 21204
                            },
                            {
                                "children": [],
                                "depth": 0,
                                "name": "Executed Gas",
                                "value": 183714
                            }
                        ],
                        "depth": -1,
                        "name": "Actual Gas Used",
                        "value": 204918
                    },
                    {
                        "children": [],
                        "depth": -1,
                        "name": "Refunded Gas",
                        "value": 0
                    }
                ],
                "depth": -2,
                "name": "Total Gas",
                "value": 204918
            }
        ],
        "isConfirmed": true,
        "mainTrace": [
            {
                "children": [
                    {
                        "children": [
                            {
                                "children": [],
                                "depth": 1,
                                "id": 1,
                                "order": 1
                            },
                            {
                                "children": [],
                                "depth": 1,
                                "id": 2,
                                "order": 2
                            },
                            {
                                "children": [],
                                "depth": 1,
                                "id": 3,
                                "order": 3
                            },
                            {
                                "children": [],
                                "depth": 1,
                                "id": 4,
                                "order": 4
                            },
                            {
                                "children": [],
                                "depth": 1,
                                "id": 5,
                                "order": 5
                            }
                        ],
                        "depth": 0,
                        "id": 0,
                        "order": 0
                    }
                ],
                "depth": -1,
                "id": -1,
                "order": -1
            }
        ],
        "mainTraceNodeCount": 6,
        "parentIdMap": {
            "0": -1,
            "1": 0,
            "2": 0,
            "3": 0,
            "4": 0,
            "5": 0
        },
        "tidyTrace": [
            {
                "children": [
                    {
                        "children": [
                            {
                                "children": [],
                                "depth": 1,
                                "id": 1,
                                "order": 1
                            },
                            {
                                "children": [],
                                "depth": 1,
                                "id": 2,
                                "order": 2
                            },
                            {
                                "children": [],
                                "depth": 1,
                                "id": 3,
                                "order": 3
                            },
                            {
                                "children": [],
                                "depth": 1,
                                "id": 4,
                                "order": 4
                            },
                            {
                                "children": [],
                                "depth": 1,
                                "id": 5,
                                "order": 5
                            }
                        ],
                        "depth": 0,
                        "id": 0,
                        "order": 0
                    }
                ],
                "depth": -1,
                "id": -1,
                "order": -1
            }
        ],
        "tidyTraceNodeCount": 6
    },
    "state_change": {
        "stateChanges": [
            {
                "address": "0xde1ac5fdf1a7203af036f590bcc4c0b91b2d3e3f",
                "erc": "ERC-721",
                "slots": [
                    {
                        "current": "0x000000000000000000000000e9a16f46102b97af77052d073863fd4848cac118",
                        "key": "0x74c50e9e3ae295f9cc5bf2d53f3e3fe78421ef83c43d22b54747c034e5084552",
                        "prev": "0x0000000000000000000000000000000000000000000000000000000000000000"
                    },
                    {
                        "current": "0x00000000000000000000000000000000000000000000000000000000000017f3",
                        "key": "0x0000000000000000000000000000000000000000000000000000000000000007",
                        "prev": "0x00000000000000000000000000000000000000000000000000000000000017ee"
                    },
                    {
                        "current": "0x0000000000000000000000000000000000000000000000000000000000000005",
                        "key": "0xdf53215186cf7c0d956a7e3af7d028a2894b26ef8dfbd40e355b823708fc6f05",
                        "prev": "0x0000000000000000000000000000000000000000000000000000000000000000"
                    },
                    {
                        "current": "0x000000000000000000000000e9a16f46102b97af77052d073863fd4848cac118",
                        "key": "0x4e006636c3eeadc5e2042fff8bf181690a2494c15178cae4b00347be0eefa51e",
                        "prev": "0x0000000000000000000000000000000000000000000000000000000000000000"
                    },
                    {
                        "current": "0x000000000000000000000000e9a16f46102b97af77052d073863fd4848cac118",
                        "key": "0xfa565d6a3e73d4ccce7bb7af805cc62c4f61e85a213c7f40a552fc518960eba3",
                        "prev": "0x0000000000000000000000000000000000000000000000000000000000000000"
                    },
                    {
                        "current": "0x000000000000000000000000e9a16f46102b97af77052d073863fd4848cac118",
                        "key": "0x9483a9a0d2fa00d813449df4ecbe76e43836c68a09672d588c97f20f53e97305",
                        "prev": "0x0000000000000000000000000000000000000000000000000000000000000000"
                    },
                    {
                        "current": "0x000000000000000000000000e9a16f46102b97af77052d073863fd4848cac118",
                        "key": "0x01518660257c981969bd1a2f0a3f356f778b7ded509338c0e7e71c5e018f501a",
                        "prev": "0x0000000000000000000000000000000000000000000000000000000000000000"
                    }
                ],
                "storageVariables": [
                    {
                        "name": "_balances",
                        "type": "mapping(address => uint256)",
                        "value": {
                            "pairs": [
                                {
                                    "key": "0xe9a16f46102b97af77052d073863fd4848cac118",
                                    "value": {
                                        "current": "5",
                                        "prev": "0",
                                        "typeTag": 1
                                    }
                                }
                            ],
                            "typeTag": 4
                        }
                    },
                    {
                        "name": "_owners",
                        "type": "mapping(uint256 => address)",
                        "value": {
                            "pairs": [
                                {
                                    "key": "6127",
                                    "value": {
                                        "current": "0xe9a16f46102b97af77052d073863fd4848cac118",
                                        "prev": "0x0000000000000000000000000000000000000000",
                                        "typeTag": 1
                                    }
                                },
                                {
                                    "key": "6128",
                                    "value": {
                                        "current": "0xe9a16f46102b97af77052d073863fd4848cac118",
                                        "prev": "0x0000000000000000000000000000000000000000",
                                        "typeTag": 1
                                    }
                                },
                                {
                                    "key": "6129",
                                    "value": {
                                        "current": "0xe9a16f46102b97af77052d073863fd4848cac118",
                                        "prev": "0x0000000000000000000000000000000000000000",
                                        "typeTag": 1
                                    }
                                },
                                {
                                    "key": "6130",
                                    "value": {
                                        "current": "0xe9a16f46102b97af77052d073863fd4848cac118",
                                        "prev": "0x0000000000000000000000000000000000000000",
                                        "typeTag": 1
                                    }
                                },
                                {
                                    "key": "6131",
                                    "value": {
                                        "current": "0xe9a16f46102b97af77052d073863fd4848cac118",
                                        "prev": "0x0000000000000000000000000000000000000000",
                                        "typeTag": 1
                                    }
                                }
                            ],
                            "typeTag": 4
                        }
                    },
                    {
                        "name": "supply",
                        "type": "struct Counters.Counter",
                        "value": {
                            "fields": [
                                {
                                    "name": "_value",
                                    "type": "uint256",
                                    "value": {
                                        "current": "6131",
                                        "prev": "6126",
                                        "typeTag": 1
                                    }
                                }
                            ],
                            "typeTag": 3
                        }
                    }
                ]
            }
        ]
    }
}