{
    "balance_change": {
        "balanceChanges": [
            {
                "account": "0x263627126a771fa9745763495d3975614e235298",
                "assets": [
                    {
                        "address": "0x5cf04716ba20127f1e2297addcf4b5035000c9eb",
                        "amount": "0.63092",
                        "iconUrl": "https://assets.blocksec.com/icon/a0b5b6773a730e7a00c3a6240a7c761311d89874f09a2c5be6a1545060f54baf.png",
                        "isERC1155": false,
                        "isERC721": false,
                        "sign": false,
                        "value": ""
                    }
                ]
            },
            {
                "account": "0x2c4c69cd154330a7681d5eff7f08dce9a7a6a3db",
                "assets": [
                    {
                        "address": "0x5cf04716ba20127f1e2297addcf4b5035000c9eb",
                        "amount": "0.63092",
                        "iconUrl": "https://assets.blocksec.com/icon/a0b5b6773a730e7a00c3a6240a7c761311d89874f09a2c5be6a1545060f54baf.png",
                        "isERC1155": false,
                        "isERC721": false,
                        "sign": true,
                        "value": ""
                    }
                ]
            }
        ]
    },
    "profile": {
        "basic_info": {
            "baseFee": "",
            "blockNumber": 7033410,
            "callData": "0xa9059cbb0000000000000000000000002c4c69cd154330a7681d5eff7f08dce9a7a6a3db00000000000000000000000000000000000000000000000008c17a65b1b08000",
            "debugEnable": true,
            "errorInfo": "",
            "eventCount": 1,
            "feeRecipient": "0x5a0b54d5dc17e0aadc383d2db43b0a0d3e029c4c",
            "formatValue": "0",
            "gasLimit": 60000,
            "gasPrice": "6",
            "gasUsed": 52257,
            "intTxnCount": 0,
            "internalRevert": false,
            "internalRevertMessage": "",
            "isContractCreation": false,
            "isFlashloan": false,
            "maxFee": "",
            "nonce": 1916,
            "overwritedBlockNumber": -1,
            "priorityFee": "",
            "receiver": "0x5cf04716ba20127f1e2297addcf4b5035000c9eb",
            "revertMessage": "",
            "sender": "0x263627126a771fa9745763495d3975614e235298",
            "simulationEnable": true,
            "sourceTxnHash": "0xed1506feb26e252fb271c4c2787f24a8198191056d6a277a08dd9c519064ff88",
            "status": true,
            "timestamp": "2019-01-08T21:51:43Z",
            "transactionFee": "0.000313542",
            "txnHash": "0xed1506feb26e252fb271c4c2787f24a8198191056d6a277a08dd9c519064ff88",
            "txnIndex": 43,
            "type": 0,
            "value": "0"
        },
        "fund_flow": [
            {
                "amount": "0.63092",
                "from": "0x263627126a771fa9745763495d3975614e235298",
                "id": 1,
                "isERC1155": false,
                "isERC721": false,
                "isReverted": false,
                "order": 1,
                "to": "0x2c4c69cd154330a7681d5eff7f08dce9a7a6a3db",
                "token": "0x5cf04716ba20127f1e2297addcf4b5035000c9eb"
            }
        ],
        "token_infos": [
            {
                "address": "0xc02aaa39b223fe8d0a0e5c4f27ead9083c756cc2",
                "decimals": 18
            },
            {
                "address": "0xeeeeeeeeeeeeeeeeeeeeeeeeeeeeeeeeeeeeeeee",
                "decimals": 18
            },
            {
                "address": "0x5cf04716ba20127f1e2297addcf4b5035000c9eb",
                "decimals": 18
            }
        ]
    },
    "address_label": {
        "labels": [
            {
                "address": "0x0000000000000000000000000000000000000003",
                "label": "Precompiled"
            },
            {
                "address": "0x0000000000000000000000000000000000000004",
                "label": "Precompiled"
            },
            {
                "address": "0xeeeeeeeeeeeeeeeeeeeeeeeeeeeeeeeeeeeeeeee",
                "label": "Ether"
            },
            {
                "address": "0x5cf04716ba20127f1e2297addcf4b5035000c9eb",
                "label": "NKN: NKN Token"
            },
            {
                "address": "0x0000000000000000000000000000000000000001",
                "label": "Precompiled"
            },
            {
                "address": "0x0000000000000000000000000000000000000002",
                "label": "Precompiled"
            }
        ]
    },
    "trace": {
        "accountLabels": null,
        "dataMap": {
            "-1": {
                "invocation": {
                    "address": "0x263627126a771fa9745763495d3975614e235298",
                    "callData": "",
                    "decodedMethod": null,
                    "errorInfo": "",
                    "fromAddress": "",
                    "gasUsed": 0,
                    "id": -1,
                    "methodDecoded": false,
                    "operation": "",
                    "output": "",
                    "revert": false,
                    "revertMessage": "",
                    "selector": "",
                    "status": false,
                    "value": ""
                },
                "nodeType": 0
            },
            "0": {
                "invocation": {
                    "address": "0x5cf04716ba20127f1e2297addcf4b5035000c9eb",
                    "callData": "0x0000000000000000000000002c4c69cd154330a7681d5eff7f08dce9a7a6a3db00000000000000000000000000000000000000000000000008c17a65b1b08000",
                    "decodedMethod": {
                        "callParams": [
                            {
                                "name": "_to",
                                "type": "address",
                                "value": "0x2c4c69cd154330a7681d5eff7f08dce9a7a6a3db"
                            },
                            {
                                "decimalAvailable": true,
                                "name": "_value",
                                "type": "uint256",
                                "value": "630,920,000,000,000,000"
                            }
                        ],
                        "constructorArguments": "",
                        "name": "transfer",
                        "returnParams": [
                            {
                                "name": "",
                                "type": "bool",
                                "value": true
                            }
                        ],
                        "signature": "transfer(address,uint256)"
                    },
                    "errorInfo": "",
                    "fromAddress": "0x263627126a771fa9745763495d3975614e235298",
                    "gasUsed": 52257,
                    "id": 0,
                    "methodDecoded": true,
                    "operation": "CALL",
                    "output": "0x0000000000000000000000000000000000000000000000000000000000000001",
                    "revert": false,
                    "revertMessage": "",
                    "selector": "0xa9059cbb",
                    "status": true,
                    "value": "0"
                },
                "nodeType": 0
            },
            "1": {
                "event": {
                    "contract": "0x5cf04716ba20127f1e2297addcf4b5035000c9eb",
                    "decodedLog": {
                        "name": "Transfer",
                        "params": [
                            {
                                "name": "from",
                                "type": "address",
                                "value": "0x263627126a771fa9745763495d3975614e235298"
                            },
                            {
                                "name": "to",
                                "type": "address",
                                "value": "0x2c4c69cd154330a7681d5eff7f08dce9a7a6a3db"
                            },
                            {
                                "decimalAvailable": true,
                                "name": "value",
                                "type": "uint256",
                                "value": "630,920,000,000,000,000"
                            }
                        ],
                        "signature": "Transfer(address,address,uint256)"
                    },
                    "id": 1,
                    "logData": "0x00000000000000000000000000000000000000000000000008c17a65b1b08000",
                    "logDecoded": true,
                    "operation": "EVENT",
                    "revert": false,
                    "status": true,
                    "topics": [
                        "0xddf252ad1be2c89b69c2b068fc378daa952ba7f163c4a11628f55a4df523b3ef",
                        "0x000000000000000000000000263627126a771fa9745763495d3975614e235298",
                        "0x0000000000000000000000002c4c69cd154330a7681d5eff7f08dce9a7a6a3db"
                    ]
                },
                "nodeType": 1
            }
        },
        "gasFlame": [
            {
                "children": [
                    {
                        "children": [
                            {
                                "children": [],
                                "depth": 0,
                                "name": "Initial Gas",
                                "value": 23256
                            },
                            {
                                "children": [],
                                "depth": 0,
                                "name": "Executed Gas",
                                "value": 29001
                            }
                        ],
                        "depth": -1,
                        "name": "Actual Gas Used",
                        "value": 52257
                    },
                    {
                        "children": [],
                        "depth": -1,
                        "name": "Refunded Gas",
                        "value": 0
                    }
                ],
                "depth": -2,
                "name": "Total Gas",
                "value": 52257
            }
        ],
        "isConfirmed": true,
        "mainTrace": [
            {
                "children": [
                    {
                        "children": [
                            {
                                "children": [],
                                "depth": 1,
                                "id": 1,
                                "order": 1
                            }
                        ],
                        "depth": 0,
                        "id": 0,
                        "order": 0
                    }
                ],
                "depth": -1,
                "id": -1,
                "order": -1
            }
        ],
        "mainTraceNodeCount": 2,
        "parentIdMap": {
            "0": -1,
            "1": 0
        },
        "tidyTrace": [
            {
                "children": [
                    {
                        "children": [
                            {
                                "children": [],
                                "depth": 1,
                                "id": 1,
                                "order": 1
                            }
                        ],
                        "depth": 0,
                        "id": 0,
                        "order": 0
                    }
                ],
                "depth": -1,
                "id": -1,
                "order": -1
            }
        ],
        "tidyTraceNodeCount": 2
    },
    "state_change": {
        "stateChanges": [
            {
                "address": "0x5cf04716ba20127f1e2297addcf4b5035000c9eb",
                "erc": "ERC-20",
                "slots": [
                    {
                        "current": "0x0000000000000000000000000000000000000000000000a018aa71df375fa000",
                        "key": "0x6f5321527fe8e157d46333ded545fb9a313316eb94075e633e0850507e464186",
                        "prev": "0x0000000000000000000000000000000000000000000000a0216bec44e9102000"
                    },
                    {
                        "current": "0x00000000000000000000000000000000000000000000000008c17a65b1b08000",
                        "key": "0xf1f6008f4d0e3a269cb552e6759a58b97495e6558aeb9eb1ef0cf3cdf1aaae1b",
                        "prev": "0x0000000000000000000000000000000000000000000000000000000000000000"
                    }
                ],
                "storageVariables": [
                    {
                        "name": "balances",
                        "type": "mapping(address => uint256)",
                        "value": {
                            "pairs": [
                                {
                                    "key": "0x263627126a771fa9745763495d3975614e235298",
                                    "value": {
                                        "current": "2953256410000000000000",
                                        "prev": "2953887330000000000000",
                                        "typeTag": 1
                                    }
                                },
                                {
                                    "key": "0x2c4c69cd154330a7681d5eff7f08dce9a7a6a3db",
                                    "value": {
                                        "current": "630920000000000000",
                                        "prev": "0",
                                        "typeTag": 1
                                    }
                                }
                            ],
                            "typeTag": 4
                        }
                    }
                ]
            }
        ]
    }
}