{
    "balance_change": {
        "balanceChanges": [
            {
                "account": "0xde918de68a50aef57400c0d62265a741963eab68",
                "assets": [
                    {
                        "address": "0x68e1f815d2450cacc6d6e5861f2fd3c6324d6c5a",
                        "amount": "883,053,288,132.88637778",
                        "iconUrl": "",
                        "isERC1155": false,
                        "isERC721": false,
                        "sign": true,
                        "value": "3320.612792"
                    },
                    {
                        "address": "0xeeeeeeeeeeeeeeeeeeeeeeeeeeeeeeeeeeeeeeee",
                        "amount": "1",
                        "iconUrl": "https://assets.blocksec.com/image/1663669189317-3.png",
                        "isERC1155": false,
                        "isERC721": false,
                        "sign": false,
                        "value": "3669.0945000000001528"
                    }
                ]
            },
            {
                "account": "0x3328f7f4a1d1c57c35df56bbf0c9dcafca309c49",
                "assets": [
                    {
                        "address": "0xeeeeeeeeeeeeeeeeeeeeeeeeeeeeeeeeeeeeeeee",
                        "amount": "0.004975124378109453",
                        "iconUrl": "https://assets.blocksec.com/image/1663669189317-3.png",
                        "isERC1155": false,
                        "isERC721": false,
                        "sign": true,
                        "value": "18.25420149213572176"
                    }
                ]
            },
            {
                "account": "0x3a6ad38ed87631d28e3aeeae449ddc7e9278cfe0",
                "assets": [
                    {
                        "address": "0xc02aaa39b223fe8d0a0e5c4f27ead9083c756cc2",
                        "amount": "0.995024875621890547",
                        "iconUrl": "https://assets.blocksec.com/icon/f1cb2d02c471d545bbc7722daf3277fd852d98e63d118771af7047bd8256c516.png",
                        "isERC1155": false,
                        "isERC721": false,
                        "sign": true,
                        "value": "3650.8402984271443519"
                    },
                    {
                        "address": "0x68e1f815d2450cacc6d6e5861f2fd3c6324d6c5a",
                        "amount": "883,053,288,132.88637778",
                        "iconUrl": "",
                        "isERC1155": false,
                        "isERC721": false,
                        "sign": false,
                        "value": "3320.612792"
                    }
                ]
            },
            {
                "account": "0xc02aaa39b223fe8d0a0e5c4f27ead9083c756cc2",
                "assets": [
                    {
                        "address": "0xc02aaa39b223fe8d0a0e5c4f27ead9083c756cc2",
                        "amount": "0.995024875621890547",
                        "iconUrl": "https://assets.blocksec.com/icon/f1cb2d02c471d545bbc7722daf3277fd852d98e63d118771af7047bd8256c516.png",
                        "isERC1155": false,
                        "isERC721": false,
                        "sign": false,
                        "value": "3650.8402984271443519"
                    },
                    {
                        "address": "0xeeeeeeeeeeeeeeeeeeeeeeeeeeeeeeeeeeeeeeee",
                        "amount": "0.995024875621890547",
                        "iconUrl": "https://assets.blocksec.com/image/1663669189317-3.png",
                        "isERC1155": false,
                        "isERC721": false,
                        "sign": true,
                        "value": "3650.8402984271443519"
                    }
                ]
            }
        ]
    },
    "profile": {
        "basic_info": {
            "baseFee": "9.708947826",
            "blockNumber": 20064545,
            "callData": "0x0162e2d000000000000000000000000000000000000000000000000000000000000000e000000000000000000000000000000000000000000000000000000000000001600000000000000000000000007a250d5630b4cf539739df2c5dacb4c659f2488d00000000000000000000000000000000000000000000000000000000000000010000000000000000000000000000000000000000000000000000000000000000000000000000000000000000000000000000000000000000000000006667845b000000000000000000000000000000000000000000000000000000000000000500000000000000000000000000000000000000000000000000000000000000030000000000000000000000000000000000000000000000000000000000000000000000000000000000000000000000000000000000000000000000000000000000000000000000000000000000000000000000000000000000000000000000000000000000000000000000000000000000000000000000000000000000000002000000000000000000000000c02aaa39b223fe8d0a0e5c4f27ead9083c756cc200000000000000000000000068e1f815d2450cacc6d6e5861f2fd3c6324d6c5a",
            "debugEnable": true,
            "errorInfo": "",
            "eventCount": 7,
            "feeRecipient": "0x95222290dd7278aa3ddd389cc1e1d165cc4bafe5",
            "formatValue": "1",
            "gasLimit": 458112,
            "gasPrice": "229.708947826",
            "gasUsed": 158409,
            "intTxnCount": 11,
            "internalRevert": false,
            "internalRevertMessage": "",
            "isContractCreation": false,
            "isFlashloan": false,
            "maxFee": "234.708947826",
            "nonce": 245,
            "overwritedBlockNumber": -1,
            "priorityFee": "220",
            "receiver": "0x3328f7f4a1d1c57c35df56bbf0c9dcafca309c49",
            "revertMessage": "",
            "sender": "0xde918de68a50aef57400c0d62265a741963eab68",
            "simulationEnable": true,
            "sourceTxnHash": "0xed45106fed7d646d1070861e009eebd29acb4f36ce9664e087302b7c280b4fc1",
            "status": true,
            "timestamp": "2024-06-10T22:55:23Z",
            "transactionFee": "0.036387964716168834",
            "txnHash": "0xed45106fed7d646d1070861e009eebd29acb4f36ce9664e087302b7c280b4fc1",
            "txnIndex": 0,
            "type": 2,
            "value": "1000000000000000000"
        },
        "fund_flow": [
            {
                "amount": "1",
                "from": "0xde918de68a50aef57400c0d62265a741963eab68",
                "id": 1,
                "isERC1155": false,
                "isERC721": false,
                "isReverted": false,
                "order": 1,
                "to": "0x3328f7f4a1d1c57c35df56bbf0c9dcafca309c49",
                "token": "0xeeeeeeeeeeeeeeeeeeeeeeeeeeeeeeeeeeeeeeee"
            },
            {
                "amount": "0.995024875621890547",
                "from": "0x3328f7f4a1d1c57c35df56bbf0c9dcafca309c49",
                "id": 2,
                "isERC1155": false,
                "isERC721": false,
                "isReverted": false,
                "order": 2,
                "to": "0xc02aaa39b223fe8d0a0e5c4f27ead9083c756cc2",
                "token": "0xeeeeeeeeeeeeeeeeeeeeeeeeeeeeeeeeeeeeeeee"
            },
            {
                "amount": "0.995024875621890547",
                "from": "0xc02aaa39b223fe8d0a0e5c4f27ead9083c756cc2",
                "id": 3,
                "isERC1155": false,
                "isERC721": false,
                "isReverted": false,
                "order": 3,
                "to": "0x3328f7f4a1d1c57c35df56bbf0c9dcafca309c49",
                "token": "0xc02aaa39b223fe8d0a0e5c4f27ead9083c756cc2"
            },
            {
                "amount": "0.995024875621890547",
                "from": "0x3328f7f4a1d1c57c35df56bbf0c9dcafca309c49",
                "id": 4,
                "isERC1155": false,
                "isERC721": false,
                "isReverted": false,
                "order": 4,
                "to": "0x3a6ad38ed87631d28e3aeeae449ddc7e9278cfe0",
                "token": "0xc02aaa39b223fe8d0a0e5c4f27ead9083c756cc2"
            },
            {
                "amount": "883,053,288,132.88637778",
                "from": "0x3a6ad38ed87631d28e3aeeae449ddc7e9278cfe0",
                "id": 5,
                "isERC1155": false,
                "isERC721": false,
                "isReverted": false,
                "order": 5,
                "to": "0xde918de68a50aef57400c0d62265a741963eab68",
                "token": "0x68e1f815d2450cacc6d6e5861f2fd3c6324d6c5a"
            }
        ],
        "token_infos": [
            {
                "address": "0xeeeeeeeeeeeeeeeeeeeeeeeeeeeeeeeeeeeeeeee",
                "decimals": 18
            },
            {
                "address": "0x68e1f815d2450cacc6d6e5861f2fd3c6324d6c5a",
                "decimals": 9
            },
            {
                "address": "0xc02aaa39b223fe8d0a0e5c4f27ead9083c756cc2",
                "decimals": 18
            }
        ]
    },
    "address_label": {
        "labels": [
            {
                "address": "0x0000000000000000000000000000000000000004",
                "label": "Precompiled"
            },
            {
                "address": "0xc02aaa39b223fe8d0a0e5c4f27ead9083c756cc2",
                "label": "Wrapped Ether (WETH)"
            },
            {
                "address": "0x3a6ad38ed87631d28e3aeeae449ddc7e9278cfe0",
                "label": "Uniswap V2: ANDYWU"
            },
            {
                "address": "0x0000000000000000000000000000000000000002",
                "label": "Precompiled"
            },
            {
                "address": "0x0000000000000000000000000000000000000003",
                "label": "Precompiled"
            },
            {
                "address": "0xeeeeeeeeeeeeeeeeeeeeeeeeeeeeeeeeeeeeeeee",
                "label": "Ether"
            },
            {
                "address": "0x3328f7f4a1d1c57c35df56bbf0c9dcafca309c49",
                "label": "Banana Gun: Router 2"
            },
            {
                "address": "0x68e1f815d2450cacc6d6e5861f2fd3c6324d6c5a",
                "label": "ANDYWU"
            },
            {
                "address": "0x0000000000000000000000000000000000000001",
                "label": "Precompiled"
            }
        ]
    },
    "trace": {
        "accountLabels": null,
        "dataMap": {
            "-1": {
                "invocation": {
                    "address": "0xde918de68a50aef57400c0d62265a741963eab68",
                    "callData": "",
                    "decodedMethod": null,
                    "errorInfo": "",
                    "fromAddress": "",
                    "gasUsed": 0,
                    "id": -1,
                    "methodDecoded": false,
                    "operation": "",
                    "output": "",
                    "revert": false,
                    "revertMessage": "",
                    "selector": "",
                    "status": false,
                    "value": ""
                },
                "nodeType": 0
            },
            "0": {
                "invocation": {
                    "address": "0x3328f7f4a1d1c57c35df56bbf0c9dcafca309c49",
                    "callData": "0x00000000000000000000000000000000000000000000000000000000000000e000000000000000000000000000000000000000000000000000000000000001600000000000000000000000007a250d5630b4cf539739df2c5dacb4c659f2488d00000000000000000000000000000000000000000000000000000000000000010000000000000000000000000000000000000000000000000000000000000000000000000000000000000000000000000000000000000000000000006667845b000000000000000000000000000000000000000000000000000000000000000500000000000000000000000000000000000000000000000000000000000000030000000000000000000000000000000000000000000000000000000000000000000000000000000000000000000000000000000000000000000000000000000000000000000000000000000000000000000000000000000000000000000000000000000000000000000000000000000000000000000000000000000000000002000000000000000000000000c02aaa39b223fe8d0a0e5c4f27ead9083c756cc200000000000000000000000068e1f815d2450cacc6d6e5861f2fd3c6324d6c5a",
                    "decodedMethod": null,
                    "errorInfo": "",
                    "fromAddress": "0xde918de68a50aef57400c0d62265a741963eab68",
                    "gasUsed": 158409,
                    "id": 0,
                    "methodDecoded": false,
                    "operation": "CALL",
                    "output": "",
                    "revert": false,
                    "revertMessage": "",
                    "selector": "0x0162e2d0",
                    "status": true,
                    "value": "1"
                },
                "nodeType": 0
            },
            "1": {
                "invocation": {
                    "address": "0x241423640f5bfd019f885e9b6b544145f96bd6cc",
                    "callData": "0x00000000000000000000000000000000000000000000000000000000000000e000000000000000000000000000000000000000000000000000000000000001600000000000000000000000007a250d5630b4cf539739df2c5dacb4c659f2488d00000000000000000000000000000000000000000000000000000000000000010000000000000000000000000000000000000000000000000000000000000000000000000000000000000000000000000000000000000000000000006667845b000000000000000000000000000000000000000000000000000000000000000500000000000000000000000000000000000000000000000000000000000000030000000000000000000000000000000000000000000000000000000000000000000000000000000000000000000000000000000000000000000000000000000000000000000000000000000000000000000000000000000000000000000000000000000000000000000000000000000000000000000000000000000000000002000000000000000000000000c02aaa39b223fe8d0a0e5c4f27ead9083c756cc200000000000000000000000068e1f815d2450cacc6d6e5861f2fd3c6324d6c5a",
                    "decodedMethod": null,
                    "errorInfo": "",
                    "fromAddress": "0x3328f7f4a1d1c57c35df56bbf0c9dcafca309c49",
                    "gasUsed": 150169,
                    "id": 1,
                    "methodDecoded": false,
                    "operation": "DELEGATECALL",
                    "output": "",
                    "revert": false,
                    "revertMessage": "",
                    "selector": "0x0162e2d0",
                    "status": true,
                    "value": "1"
                },
                "nodeType": 0
            },
            "10": {
                "invocation": {
                    "address": "0x68e1f815d2450cacc6d6e5861f2fd3c6324d6c5a",
                    "callData": "0x000000000000000000000000de918de68a50aef57400c0d62265a741963eab6800000000000000000000000000000000000000000000002fded37ef0a55bb534",
                    "decodedMethod": {
                        "callParams": [
                            {
                                "name": "recipient",
                                "type": "address",
                                "value": "0xde918de68a50aef57400c0d62265a741963eab68"
                            },
                            {
                                "decimalAvailable": true,
                                "name": "amount",
                                "type": "uint256",
                                "value": "883,053,288,132,886,377,780"
                            }
                        ],
                        "constructorArguments": "",
                        "name": "transfer",
                        "returnParams": [
                            {
                                "name": "",
                                "type": "bool",
                                "value": true
                            }
                        ],
                        "signature": "transfer(address,uint256)"
                    },
                    "errorInfo": "",
                    "fromAddress": "0x3a6ad38ed87631d28e3aeeae449ddc7e9278cfe0",
                    "gasUsed": 44910,
                    "id": 10,
                    "methodDecoded": true,
                    "operation": "CALL",
                    "output": "0x0000000000000000000000000000000000000000000000000000000000000001",
                    "revert": false,
                    "revertMessage": "",
                    "selector": "0xa9059cbb",
                    "status": true,
                    "value": "0"
                },
                "nodeType": 0
            },
            "11": {
                "event": {
                    "contract": "0x68e1f815d2450cacc6d6e5861f2fd3c6324d6c5a",
                    "decodedLog": {
                        "name": "Transfer",
                        "params": [
                            {
                                "name": "from",
                                "type": "address",
                                "value": "0x3a6ad38ed87631d28e3aeeae449ddc7e9278cfe0"
                            },
                            {
                                "name": "to",
                                "type": "address",
                                "value": "0xde918de68a50aef57400c0d62265a741963eab68"
                            },
                            {
                                "decimalAvailable": true,
                                "name": "value",
                                "type": "uint256",
                                "value": "883,053,288,132,886,377,780"
                            }
                        ],
                        "signature": "Transfer(address,address,uint256)"
                    },
                    "id": 11,
                    "logData": "0x00000000000000000000000000000000000000000000002fded37ef0a55bb534",
                    "logDecoded": true,
                    "operation": "EVENT",
                    "revert": false,
                    "status": true,
                    "topics": [
                        "0xddf252ad1be2c89b69c2b068fc378daa952ba7f163c4a11628f55a4df523b3ef",
                        "0x0000000000000000000000003a6ad38ed87631d28e3aeeae449ddc7e9278cfe0",
                        "0x000000000000000000000000de918de68a50aef57400c0d62265a741963eab68"
                    ]
                },
                "nodeType": 1
            },
            "12": {
                "invocation": {
                    "address": "0x68e1f815d2450cacc6d6e5861f2fd3c6324d6c5a",
                    "callData": "0x0000000000000000000000003a6ad38ed87631d28e3aeeae449ddc7e9278cfe0",
                    "decodedMethod": {
                        "callParams": [
                            {
                                "name": "account",
                                "type": "address",
                                "value": "0x3a6ad38ed87631d28e3aeeae449ddc7e9278cfe0"
                            }
                        ],
                        "constructorArguments": "",
                        "name": "balanceOf",
                        "returnParams": [
                            {
                                "decimalAvailable": true,
                                "name": "",
                                "type": "uint256",
                                "value": "18,917,150,456,278,618,448,486"
                            }
                        ],
                        "signature": "balanceOf(address)"
                    },
                    "errorInfo": "",
                    "fromAddress": "0x3a6ad38ed87631d28e3aeeae449ddc7e9278cfe0",
                    "gasUsed": 551,
                    "id": 12,
                    "methodDecoded": true,
                    "operation": "STATICCALL",
                    "output": "0x000000000000000000000000000000000000000000000401803330a071bba266",
                    "revert": false,
                    "revertMessage": "",
                    "selector": "0x70a08231",
                    "status": true,
                    "value": "0"
                },
                "nodeType": 0
            },
            "13": {
                "invocation": {
                    "address": "0xc02aaa39b223fe8d0a0e5c4f27ead9083c756cc2",
                    "callData": "0x0000000000000000000000003a6ad38ed87631d28e3aeeae449ddc7e9278cfe0",
                    "decodedMethod": {
                        "callParams": [
                            {
                                "name": "",
                                "type": "address",
                                "value": "0x3a6ad38ed87631d28e3aeeae449ddc7e9278cfe0"
                            }
                        ],
                        "constructorArguments": "",
                        "name": "balanceOf",
                        "returnParams": [
                            {
                                "decimalAvailable": true,
                                "name": "",
                                "type": "uint256",
                                "value": "22,246,931,670,192,928,654"
                            }
                        ],
                        "signature": "balanceOf(address)"
                    },
                    "errorInfo": "",
                    "fromAddress": "0x3a6ad38ed87631d28e3aeeae449ddc7e9278cfe0",
                    "gasUsed": 534,
                    "id": 13,
                    "methodDecoded": true,
                    "operation": "STATICCALL",
                    "output": "0x00000000000000000000000000000000000000000000000134bcfa7c183cb78e",
                    "revert": false,
                    "revertMessage": "",
                    "selector": "0x70a08231",
                    "status": true,
                    "value": "0"
                },
                "nodeType": 0
            },
            "14": {
                "event": {
                    "contract": "0x3a6ad38ed87631d28e3aeeae449ddc7e9278cfe0",
                    "decodedLog": {
                        "name": "Sync",
                        "params": [
                            {
                                "name": "reserve0",
                                "type": "uint112",
                                "value": "18,917,150,456,278,618,448,486"
                            },
                            {
                                "name": "reserve1",
                                "type": "uint112",
                                "value": "22,246,931,670,192,928,654"
                            }
                        ],
                        "signature": "Sync(uint112,uint112)"
                    },
                    "id": 14,
                    "logData": "0x000000000000000000000000000000000000000000000401803330a071bba26600000000000000000000000000000000000000000000000134bcfa7c183cb78e",
                    "logDecoded": true,
                    "operation": "EVENT",
                    "revert": false,
                    "status": true,
                    "topics": [
                        "0x1c411e9a96e071241c2f21f7726b17ae89e3cab4c78be50e062b03a9fffbbad1"
                    ]
                },
                "nodeType": 1
            },
            "15": {
                "event": {
                    "contract": "0x3a6ad38ed87631d28e3aeeae449ddc7e9278cfe0",
                    "decodedLog": {
                        "name": "Swap",
                        "params": [
                            {
                                "name": "sender",
                                "type": "address",
                                "value": "0x3328f7f4a1d1c57c35df56bbf0c9dcafca309c49"
                            },
                            {
                                "name": "to",
                                "type": "address",
                                "value": "0xde918de68a50aef57400c0d62265a741963eab68"
                            },
                            {
                                "name": "amount0In",
                                "type": "uint256",
                                "value": "0"
                            },
                            {
                                "name": "amount1In",
                                "type": "uint256",
                                "value": "995,024,875,621,890,547"
                            },
                            {
                                "name": "amount0Out",
                                "type": "uint256",
                                "value": "883,053,288,132,886,377,780"
                            },
                            {
                                "name": "amount1Out",
                                "type": "uint256",
                                "value": "0"
                            }
                        ],
                        "signature": "Swap(address,uint256,uint256,uint256,uint256,address)"
                    },
                    "id": 15,
                    "logData": "0x00000000000000000000000000000000000000000000000000000000000000000000000000000000000000000000000000000000000000000dcf09da3e1eb9f300000000000000000000000000000000000000000000002fded37ef0a55bb5340000000000000000000000000000000000000000000000000000000000000000",
                    "logDecoded": true,
                    "operation": "EVENT",
                    "revert": false,
                    "status": true,
                    "topics": [
                        "0xd78ad95fa46c994b6551d0da85fc275fe613ce37657fb8d5e3d130840159d822",
                        "0x0000000000000000000000003328f7f4a1d1c57c35df56bbf0c9dcafca309c49",
                        "0x000000000000000000000000de918de68a50aef57400c0d62265a741963eab68"
                    ]
                },
                "nodeType": 1
            },
            "16": {
                "invocation": {
                    "address": "0x68e1f815d2450cacc6d6e5861f2fd3c6324d6c5a",
                    "callData": "0x000000000000000000000000de918de68a50aef57400c0d62265a741963eab68",
                    "decodedMethod": {
                        "callParams": [
                            {
                                "name": "account",
                                "type": "address",
                                "value": "0xde918de68a50aef57400c0d62265a741963eab68"
                            }
                        ],
                        "constructorArguments": "",
                        "name": "balanceOf",
                        "returnParams": [
                            {
                                "decimalAvailable": true,
                                "name": "",
                                "type": "uint256",
                                "value": "2,270,943,668,373,371,341,569"
                            }
                        ],
                        "signature": "balanceOf(address)"
                    },
                    "errorInfo": "",
                    "fromAddress": "0x3328f7f4a1d1c57c35df56bbf0c9dcafca309c49",
                    "gasUsed": 551,
                    "id": 16,
                    "methodDecoded": true,
                    "operation": "STATICCALL",
                    "output": "0x00000000000000000000000000000000000000000000007b1baca2690d49cb01",
                    "revert": false,
                    "revertMessage": "",
                    "selector": "0x70a08231",
                    "status": true,
                    "value": "0"
                },
                "nodeType": 0
            },
            "17": {
                "event": {
                    "contract": "0x3328f7f4a1d1c57c35df56bbf0c9dcafca309c49",
                    "decodedLog": null,
                    "id": 17,
                    "logData": "0x0000000000000000000000000000000000000000000000000011acd96945460c000000000000000000000000de918de68a50aef57400c0d62265a741963eab680000000000000000000000000000000000000000000000000000000000000000",
                    "logDecoded": false,
                    "operation": "EVENT",
                    "revert": false,
                    "status": true,
                    "topics": [
                        "0x72015ace03712f361249380657b3d40777dd8f8a686664cab48afd9dbbe4499f"
                    ]
                },
                "nodeType": 1
            },
            "18": {
                "event": {
                    "contract": "0x3328f7f4a1d1c57c35df56bbf0c9dcafca309c49",
                    "decodedLog": null,
                    "id": 18,
                    "logData": "0x0000000000000000000000000000000000000000000000000dcf09da3e1eb9f300000000000000000000000000000000000000000000002fded37ef0a55bb53400000000000000000000000000000000000000000000002fded37ef0a55bb534",
                    "logDecoded": false,
                    "operation": "EVENT",
                    "revert": false,
                    "status": true,
                    "topics": [
                        "0x9f849d23f4955d98202378ea318f2b0c7533695d3c9fb2a3931f0f919fa8c420"
                    ]
                },
                "nodeType": 1
            },
            "2": {
                "invocation": {
                    "address": "0x68e1f815d2450cacc6d6e5861f2fd3c6324d6c5a",
                    "callData": "0x000000000000000000000000de918de68a50aef57400c0d62265a741963eab68",
                    "decodedMethod": {
                        "callParams": [
                            {
                                "name": "account",
                                "type": "address",
                                "value": "0xde918de68a50aef57400c0d62265a741963eab68"
                            }
                        ],
                        "constructorArguments": "",
                        "name": "balanceOf",
                        "returnParams": [
                            {
                                "decimalAvailable": true,
                                "name": "",
                                "type": "uint256",
                                "value": "1,387,890,380,240,484,963,789"
                            }
                        ],
                        "signature": "balanceOf(address)"
                    },
                    "errorInfo": "",
                    "fromAddress": "0x3328f7f4a1d1c57c35df56bbf0c9dcafca309c49",
                    "gasUsed": 2551,
                    "id": 2,
                    "methodDecoded": true,
                    "operation": "STATICCALL",
                    "output": "0x00000000000000000000000000000000000000000000004b3cd9237867ee15cd",
                    "revert": false,
                    "revertMessage": "",
                    "selector": "0x70a08231",
                    "status": true,
                    "value": "0"
                },
                "nodeType": 0
            },
            "3": {
                "invocation": {
                    "address": "0xc02aaa39b223fe8d0a0e5c4f27ead9083c756cc2",
                    "callData": "0x",
                    "decodedMethod": {
                        "callParams": [],
                        "constructorArguments": "",
                        "name": "deposit",
                        "returnParams": [],
                        "signature": "deposit()"
                    },
                    "errorInfo": "",
                    "fromAddress": "0x3328f7f4a1d1c57c35df56bbf0c9dcafca309c49",
                    "gasUsed": 23974,
                    "id": 3,
                    "methodDecoded": true,
                    "operation": "CALL",
                    "output": "",
                    "revert": false,
                    "revertMessage": "",
                    "selector": "0xd0e30db0",
                    "status": true,
                    "value": "0.995024875621890547"
                },
                "nodeType": 0
            },
            "4": {
                "event": {
                    "contract": "0xc02aaa39b223fe8d0a0e5c4f27ead9083c756cc2",
                    "decodedLog": {
                        "name": "Deposit",
                        "params": [
                            {
                                "name": "dst",
                                "type": "address",
                                "value": "0x3328f7f4a1d1c57c35df56bbf0c9dcafca309c49"
                            },
                            {
                                "name": "wad",
                                "type": "uint256",
                                "value": "995,024,875,621,890,547"
                            }
                        ],
                        "signature": "Deposit(address,uint256)"
                    },
                    "id": 4,
                    "logData": "0x0000000000000000000000000000000000000000000000000dcf09da3e1eb9f3",
                    "logDecoded": true,
                    "operation": "EVENT",
                    "revert": false,
                    "status": true,
                    "topics": [
                        "0xe1fffcc4923d04b559f4d29a8bfc6cda04eb5b0d3c460751c2402c5c5cc9109c",
                        "0x0000000000000000000000003328f7f4a1d1c57c35df56bbf0c9dcafca309c49"
                    ]
                },
                "nodeType": 1
            },
            "5": {
                "invocation": {
                    "address": "0xc02aaa39b223fe8d0a0e5c4f27ead9083c756cc2",
                    "callData": "0x0000000000000000000000003a6ad38ed87631d28e3aeeae449ddc7e9278cfe00000000000000000000000000000000000000000000000000dcf09da3e1eb9f3",
                    "decodedMethod": {
                        "callParams": [
                            {
                                "name": "dst",
                                "type": "address",
                                "value": "0x3a6ad38ed87631d28e3aeeae449ddc7e9278cfe0"
                            },
                            {
                                "decimalAvailable": true,
                                "name": "wad",
                                "type": "uint256",
                                "value": "995,024,875,621,890,547"
                            }
                        ],
                        "constructorArguments": "",
                        "name": "transfer",
                        "returnParams": [
                            {
                                "name": "",
                                "type": "bool",
                                "value": true
                            }
                        ],
                        "signature": "transfer(address,uint256)"
                    },
                    "errorInfo": "",
                    "fromAddress": "0x3328f7f4a1d1c57c35df56bbf0c9dcafca309c49",
                    "gasUsed": 8062,
                    "id": 5,
                    "methodDecoded": true,
                    "operation": "CALL",
                    "output": "0x0000000000000000000000000000000000000000000000000000000000000001",
                    "revert": false,
                    "revertMessage": "",
                    "selector": "0xa9059cbb",
                    "status": true,
                    "value": "0"
                },
                "nodeType": 0
            },
            "6": {
                "event": {
                    "contract": "0xc02aaa39b223fe8d0a0e5c4f27ead9083c756cc2",
                    "decodedLog": {
                        "name": "Transfer",
                        "params": [
                            {
                                "name": "src",
                                "type": "address",
                                "value": "0x3328f7f4a1d1c57c35df56bbf0c9dcafca309c49"
                            },
                            {
                                "name": "dst",
                                "type": "address",
                                "value": "0x3a6ad38ed87631d28e3aeeae449ddc7e9278cfe0"
                            },
                            {
                                "decimalAvailable": true,
                                "name": "wad",
                                "type": "uint256",
                                "value": "995,024,875,621,890,547"
                            }
                        ],
                        "signature": "Transfer(address,address,uint256)"
                    },
                    "id": 6,
                    "logData": "0x0000000000000000000000000000000000000000000000000dcf09da3e1eb9f3",
                    "logDecoded": true,
                    "operation": "EVENT",
                    "revert": false,
                    "status": true,
                    "topics": [
                        "0xddf252ad1be2c89b69c2b068fc378daa952ba7f163c4a11628f55a4df523b3ef",
                        "0x0000000000000000000000003328f7f4a1d1c57c35df56bbf0c9dcafca309c49",
                        "0x0000000000000000000000003a6ad38ed87631d28e3aeeae449ddc7e9278cfe0"
                    ]
                },
                "nodeType": 1
            },
            "7": {
                "invocation": {
                    "address": "0x3a6ad38ed87631d28e3aeeae449ddc7e9278cfe0",
                    "callData": "0x",
                    "decodedMethod": {
                        "callParams": [],
                        "constructorArguments": "",
                        "name": "getReserves",
                        "returnParams": [
                            {
                                "name": "_reserve0",
                                "type": "uint112",
                                "value": "19,800,203,744,411,504,826,266"
                            },
                            {
                                "name": "_reserve1",
                                "type": "uint112",
                                "value": "21,251,906,794,571,038,107"
                            },
                            {
                                "name": "_blockTimestampLast",
                                "type": "uint32",
                                "value": "1,718,060,111"
                            }
                        ],
                        "signature": "getReserves()"
                    },
                    "errorInfo": "",
                    "fromAddress": "0x3328f7f4a1d1c57c35df56bbf0c9dcafca309c49",
                    "gasUsed": 2504,
                    "id": 7,
                    "methodDecoded": true,
                    "operation": "STATICCALL",
                    "output": "0x0000000000000000000000000000000000000000000004315f06af911717579a00000000000000000000000000000000000000000000000126edf0a1da1dfd9b000000000000000000000000000000000000000000000000000000006667844f",
                    "revert": false,
                    "revertMessage": "",
                    "selector": "0x0902f1ac",
                    "status": true,
                    "value": "0"
                },
                "nodeType": 0
            },
            "8": {
                "invocation": {
                    "address": "0xc02aaa39b223fe8d0a0e5c4f27ead9083c756cc2",
                    "callData": "0x0000000000000000000000003a6ad38ed87631d28e3aeeae449ddc7e9278cfe0",
                    "decodedMethod": {
                        "callParams": [
                            {
                                "name": "",
                                "type": "address",
                                "value": "0x3a6ad38ed87631d28e3aeeae449ddc7e9278cfe0"
                            }
                        ],
                        "constructorArguments": "",
                        "name": "balanceOf",
                        "returnParams": [
                            {
                                "decimalAvailable": true,
                                "name": "",
                                "type": "uint256",
                                "value": "22,246,931,670,192,928,654"
                            }
                        ],
                        "signature": "balanceOf(address)"
                    },
                    "errorInfo": "",
                    "fromAddress": "0x3328f7f4a1d1c57c35df56bbf0c9dcafca309c49",
                    "gasUsed": 534,
                    "id": 8,
                    "methodDecoded": true,
                    "operation": "STATICCALL",
                    "output": "0x00000000000000000000000000000000000000000000000134bcfa7c183cb78e",
                    "revert": false,
                    "revertMessage": "",
                    "selector": "0x70a08231",
                    "status": true,
                    "value": "0"
                },
                "nodeType": 0
            },
            "9": {
                "invocation": {
                    "address": "0x3a6ad38ed87631d28e3aeeae449ddc7e9278cfe0",
                    "callData": "0x00000000000000000000000000000000000000000000002fded37ef0a55bb5340000000000000000000000000000000000000000000000000000000000000000000000000000000000000000de918de68a50aef57400c0d62265a741963eab6800000000000000000000000000000000000000000000000000000000000000800000000000000000000000000000000000000000000000000000000000000000",
                    "decodedMethod": {
                        "callParams": [
                            {
                                "name": "amount0Out",
                                "type": "uint256",
                                "value": "883,053,288,132,886,377,780"
                            },
                            {
                                "name": "amount1Out",
                                "type": "uint256",
                                "value": "0"
                            },
                            {
                                "name": "to",
                                "type": "address",
                                "value": "0xde918de68a50aef57400c0d62265a741963eab68"
                            },
                            {
                                "name": "data",
                                "type": "bytes",
                                "value": "0x"
                            }
                        ],
                        "constructorArguments": "",
                        "name": "swap",
                        "returnParams": [],
                        "signature": "swap(uint256,uint256,address,bytes)"
                    },
                    "errorInfo": "",
                    "fromAddress": "0x3328f7f4a1d1c57c35df56bbf0c9dcafca309c49",
                    "gasUsed": 77318,
                    "id": 9,
                    "methodDecoded": true,
                    "operation": "CALL",
                    "output": "",
                    "revert": false,
                    "revertMessage": "",
                    "selector": "0x022c0d9f",
                    "status": true,
                    "value": "0"
                },
                "nodeType": 0
            }
        },
        "gasFlame": [
            {
                "children": [
                    {
                        "children": [
                            {
                                "children": [],
                                "depth": 0,
                                "name": "Initial Gas",
                                "value": 23708
                            },
                            {
                                "children": [
                                    {
                                        "children": [
                                            {
                                                "children": [],
                                                "depth": 2,
                                                "name": "balanceOf",
                                                "value": 2551
                                            },
                                            {
                                                "children": [],
                                                "depth": 2,
                                                "name": "deposit",
                                                "value": 23974
                                            },
                                            {
                                                "children": [],
                                                "depth": 2,
                                                "name": "transfer",
                                                "value": 8062
                                            },
                                            {
                                                "children": [],
                                                "depth": 2,
                                                "name": "getReserves",
                                                "value": 2504
                                            },
                                            {
                                                "children": [],
                                                "depth": 2,
                                                "name": "balanceOf",
                                                "value": 534
                                            },
                                            {
                                                "children": [
                                                    {
                                                        "children": [],
                                                        "depth": 3,
                                                        "name": "transfer",
                                                        "value": 44910
                                                    },
                                                    {
                                                        "children": [],
                                                        "depth": 3,
                                                        "name": "balanceOf",
                                                        "value": 551
                                                    },
                                                    {
                                                        "children": [],
                                                        "depth": 3,
                                                        "name": "balanceOf",
                                                        "value": 534
                                                    }
                                                ],
                                                "depth": 2,
                                                "name": "swap",
                                                "value": 77318
                                            },
                                            {
                                                "children": [],
                                                "depth": 2,
                                                "name": "balanceOf",
                                                "value": 551
                                            }
                                        ],
                                        "depth": 1,
                                        "name": "0x0162e2d0",
                                        "value": 150169
                                    }
                                ],
                                "depth": 0,
                                "name": "Executed Gas",
                                "value": 157401
                            }
                        ],
                        "depth": -1,
                        "name": "Actual Gas Used",
                        "value": 158409
                    },
                    {
                        "children": [],
                        "depth": -1,
                        "name": "Refunded Gas",
                        "value": 22700
                    }
                ],
                "depth": -2,
                "name": "Total Gas",
                "value": 181109
            }
        ],
        "isConfirmed": true,
        "mainTrace": [
            {
                "children": [
                    {
                        "children": [
                            {
                                "children": [
                                    {
                                        "children": [],
                                        "depth": 2,
                                        "id": 2,
                                        "order": 2
                                    },
                                    {
                                        "children": [
                                            {
                                                "children": [],
                                                "depth": 3,
                                                "id": 4,
                                                "order": 4
                                            }
                                        ],
                                        "depth": 2,
                                        "id": 3,
                                        "order": 3
                                    },
                                    {
                                        "children": [
                                            {
                                                "children": [],
                                                "depth": 3,
                                                "id": 6,
                                                "order": 6
                                            }
                                        ],
                                        "depth": 2,
                                        "id": 5,
                                        "order": 5
                                    },
                                    {
                                        "children": [],
                                        "depth": 2,
                                        "id": 7,
                                        "order": 7
                                    },
                                    {
                                        "children": [],
                                        "depth": 2,
                                        "id": 8,
                                        "order": 8
                                    },
                                    {
                                        "children": [
                                            {
                                                "children": [
                                                    {
                                                        "children": [],
                                                        "depth": 4,
                                                        "id": 11,
                                                        "order": 11
                                                    }
                                                ],
                                                "depth": 3,
                                                "id": 10,
                                                "order": 10
                                            },
                                            {
                                                "children": [],
                                                "depth": 3,
                                                "id": 12,
                                                "order": 12
                                            },
                                            {
                                                "children": [],
                                                "depth": 3,
                                                "id": 13,
                                                "order": 13
                                            },
                                            {
                                                "children": [],
                                                "depth": 3,
                                                "id": 14,
                                                "order": 14
                                            },
                                            {
                                                "children": [],
                                                "depth": 3,
                                                "id": 15,
                                                "order": 15
                                            }
                                        ],
                                        "depth": 2,
                                        "id": 9,
                                        "order": 9
                                    },
                                    {
                                        "children": [],
                                        "depth": 2,
                                        "id": 16,
                                        "order": 16
                                    },
                                    {
                                        "children": [],
                                        "depth": 2,
                                        "id": 17,
                                        "order": 17
                                    },
                                    {
                                        "children": [],
                                        "depth": 2,
                                        "id": 18,
                                        "order": 18
                                    }
                                ],
                                "depth": 1,
                                "id": 1,
                                "order": 1
                            }
                        ],
                        "depth": 0,
                        "id": 0,
                        "order": 0
                    }
                ],
                "depth": -1,
                "id": -1,
                "order": -1
            }
        ],
        "mainTraceNodeCount": 19,
        "parentIdMap": {
            "0": -1,
            "1": 0,
            "10": 9,
            "11": 10,
            "12": 9,
            "13": 9,
            "14": 9,
            "15": 9,
            "16": 1,
            "17": 1,
            "18": 1,
            "2": 1,
            "3": 1,
            "4": 3,
            "5": 1,
            "6": 5,
            "7": 1,
            "8": 1,
            "9": 1
        },
        "tidyTrace": [
            {
                "children": [
                    {
                        "children": [
                            {
                                "children": [
                                    {
                                        "children": [
                                            {
                                                "children": [],
                                                "depth": 3,
                                                "id": 4,
                                                "order": 4
                                            }
                                        ],
                                        "depth": 2,
                                        "id": 3,
                                        "order": 3
                                    },
                                    {
                                        "children": [
                                            {
                                                "children": [],
                                                "depth": 3,
                                                "id": 6,
                                                "order": 6
                                            }
                                        ],
                                        "depth": 2,
                                        "id": 5,
                                        "order": 5
                                    },
                                    {
                                        "children": [
                                            {
                                                "children": [
                                                    {
                                                        "children": [],
                                                        "depth": 4,
                                                        "id": 11,
                                                        "order": 11
                                                    }
                                                ],
                                                "depth": 3,
                                                "id": 10,
                                                "order": 10
                                            },
                                            {
                                                "children": [],
                                                "depth": 3,
                                                "id": 14,
                                                "order": 14
                                            },
                                            {
                                                "children": [],
                                                "depth": 3,
                                                "id": 15,
                                                "order": 15
                                            }
                                        ],
                                        "depth": 2,
                                        "id": 9,
                                        "order": 9
                                    },
                                    {
                                        "children": [],
                                        "depth": 2,
                                        "id": 17,
                                        "order": 17
                                    },
                                    {
                                        "children": [],
                                        "depth": 2,
                                        "id": 18,
                                        "order": 18
                                    }
                                ],
                                "depth": 1,
                                "id": 1,
                                "order": 1
                            }
                        ],
                        "depth": 0,
                        "id": 0,
                        "order": 0
                    }
                ],
                "depth": -1,
                "id": -1,
                "order": -1
            }
        ],
        "tidyTraceNodeCount": 13
    },
    "state_change": {
        "stateChanges": [
            {
                "address": "0x3328f7f4a1d1c57c35df56bbf0c9dcafca309c49",
                "erc": "",
                "slots": [
                    {
                        "current": "0x000000000000000000000000000000000000000000000003121c8275c8fb0fa1",
                        "key": "0x0000000000000000000000000000000000000000000000000000000000000001",
                        "prev": "0x000000000000000000000000000000000000000000000003120ad59c5fb5c995"
                    }
                ],
                "storageVariables": []
            },
            {
                "address": "0x3a6ad38ed87631d28e3aeeae449ddc7e9278cfe0",
                "erc": "ERC-20",
                "slots": [
                    {
                        "current": "0x0000000000000000000000000000000000395c83eb6a9a1343b89578f85ba134",
                        "key": "0x0000000000000000000000000000000000000000000000000000000000000009",
                        "prev": "0x0000000000000000000000000000000000395937d40bad43f3c313841586dc7c"
                    },
                    {
                        "current": "0x00000000000000000000000000000da289ce7648233a066d3a2d08a05e6617a0",
                        "key": "0x000000000000000000000000000000000000000000000000000000000000000a",
                        "prev": "0x00000000000000000000000000000da25e222c79f867622951dbcd11829b2510"
                    },
                    {
                        "current": "0x6667845b00000000000134bcfa7c183cb78e000000000401803330a071bba266",
                        "key": "0x0000000000000000000000000000000000000000000000000000000000000008",
                        "prev": "0x6667844f00000000000126edf0a1da1dfd9b0000000004315f06af911717579a"
                    }
                ],
                "storageVariables": [
                    {
                        "name": "price1CumulativeLast",
                        "type": "uint256",
                        "value": {
                            "current": "1187768636801690292191571191862346836744096",
                            "prev": "1187710585425861717253618435585618602566928",
                            "typeTag": 1
                        }
                    },
                    {
                        "name": "reserve0",
                        "type": "uint112",
                        "value": {
                            "current": "18917150456278618448486",
                            "prev": "19800203744411504826266",
                            "typeTag": 1
                        }
                    },
                    {
                        "name": "reserve1",
                        "type": "uint112",
                        "value": {
                            "current": "22246931670192928654",
                            "prev": "21251906794571038107",
                            "typeTag": 1
                        }
                    },
                    {
                        "name": "blockTimestampLast",
                        "type": "uint32",
                        "value": {
                            "current": "1718060123",
                            "prev": "1718060111",
                            "typeTag": 1
                        }
                    },
                    {
                        "name": "price0CumulativeLast",
                        "type": "uint256",
                        "value": {
                            "current": "297837354367161541835021903879446836",
                            "prev": "297770478565086947071746548477385852",
                            "typeTag": 1
                        }
                    }
                ]
            },
            {
                "address": "0x68e1f815d2450cacc6d6e5861f2fd3c6324d6c5a",
                "erc": "ERC-20",
                "slots": [
                    {
                        "current": "0x000000000000000000000000000000000000000000000000000000000000090f",
                        "key": "0x000000000000000000000000000000000000000000000000000000000000000e",
                        "prev": "0x000000000000000000000000000000000000000000000000000000000000090e"
                    },
                    {
                        "current": "0x000000000000000000000000000000000000000000000401803330a071bba266",
                        "key": "0xd6209b8f94416bd9038e785f9801c098676b8095683685ecbd20fca9412f068e",
                        "prev": "0x0000000000000000000000000000000000000000000004315f06af911717579a"
                    },
                    {
                        "current": "0x00000000000000000000000000000000000000000000007b1baca2690d49cb01",
                        "key": "0xdddfde518565abf7199dd942dc8aa32c161d5b9ee0cfb28bde3cabd566a285f4",
                        "prev": "0x00000000000000000000000000000000000000000000004b3cd9237867ee15cd"
                    }
                ],
                "storageVariables": [
                    {
                        "name": "_buyCount",
                        "type": "uint256",
                        "value": {
                            "current": "2319",
                            "prev": "2318",
                            "typeTag": 1
                        }
                    },
                    {
                        "name": "_balances",
                        "type": "mapping(address => uint256)",
                        "value": {
                            "pairs": [
                                {
                                    "key": "0x3a6ad38ed87631d28e3aeeae449ddc7e9278cfe0",
                                    "value": {
                                        "current": "18917150456278618448486",
                                        "prev": "19800203744411504826266",
                                        "typeTag": 1
                                    }
                                },
                                {
                                    "key": "0xde918de68a50aef57400c0d62265a741963eab68",
                                    "value": {
                                        "current": "2270943668373371341569",
                                        "prev": "1387890380240484963789",
                                        "typeTag": 1
                                    }
                                }
                            ],
                            "typeTag": 4
                        }
                    }
                ]
            },
            {
                "address": "0xc02aaa39b223fe8d0a0e5c4f27ead9083c756cc2",
                "erc": "ERC-20",
                "slots": [
                    {
                        "current": "0x00000000000000000000000000000000000000000000000134bcfa7c183cb78e",
                        "key": "0xa6616b9d6ab3b260e39f9101f6df32d98a41e55b0d3aba4938addec21d2e11ed",
                        "prev": "0x00000000000000000000000000000000000000000000000126edf0a1da1dfd9b"
                    }
                ],
                "storageVariables": [
                    {
                        "name": "balanceOf",
                        "type": "mapping(address => uint256)",
                        "value": {
                            "pairs": [
                                {
                                    "key": "0x3a6ad38ed87631d28e3aeeae449ddc7e9278cfe0",
                                    "value": {
                                        "current": "22246931670192928654",
                                        "prev": "21251906794571038107",
                                        "typeTag": 1
                                    }
                                }
                            ],
                            "typeTag": 4
                        }
                    }
                ]
            }
        ]
    }
}