{
    "balance_change": {
        "balanceChanges": [
            {
                "account": "0xfae26fe50e768ea14193b60809bcb342dcd84443",
                "assets": [
                    {
                        "address": "0x967da4048cd07ab37855c090aaf366e4ce1b9f48",
                        "amount": "14,756.21",
                        "iconUrl": "https://assets.blocksec.com/icon/d04f3c1fedb0e68f6cad4aa54211b27acced2b1974dd8e4a30988d3bae166079.png",
                        "isERC1155": false,
                        "isERC721": false,
                        "sign": false,
                        "value": "6877.869481000000211"
                    }
                ]
            },
            {
                "account": "0x28c6c06298d514db089934071355e5743bf21d60",
                "assets": [
                    {
                        "address": "0x967da4048cd07ab37855c090aaf366e4ce1b9f48",
                        "amount": "14,756.21",
                        "iconUrl": "https://assets.blocksec.com/icon/d04f3c1fedb0e68f6cad4aa54211b27acced2b1974dd8e4a30988d3bae166079.png",
                        "isERC1155": false,
                        "isERC721": false,
                        "sign": true,
                        "value": "6877.869481000000211"
                    }
                ]
            }
        ]
    },
    "profile": {
        "basic_info": {
            "baseFee": "29.550012372",
            "blockNumber": 18624466,
            "callData": "0xa9059cbb00000000000000000000000028c6c06298d514db089934071355e5743bf21d6000000000000000000000000000000000000000000000031fef8d1d3faae50000",
            "debugEnable": true,
            "errorInfo": "",
            "eventCount": 1,
            "feeRecipient": "0x1f9090aae28b8a3dceadf281b0f12828e676c326",
            "formatValue": "0",
            "gasLimit": 50038,
            "gasPrice": "31.550012372",
            "gasUsed": 36898,
            "intTxnCount": 0,
            "internalRevert": false,
            "internalRevertMessage": "",
            "isContractCreation": false,
            "isFlashloan": false,
            "maxFee": "39",
            "nonce": 0,
            "overwritedBlockNumber": -1,
            "priorityFee": "2",
            "receiver": "0x967da4048cd07ab37855c090aaf366e4ce1b9f48",
            "revertMessage": "",
            "sender": "0xfae26fe50e768ea14193b60809bcb342dcd84443",
            "simulationEnable": true,
            "sourceTxnHash": "0xed2cd2be2faba028a140802a0640e1d628b312e423eaf27aeac56d0e43084546",
            "status": true,
            "timestamp": "2023-11-22T03:00:11Z",
            "transactionFee": "0.001164132356502056",
            "txnHash": "0xed2cd2be2faba028a140802a0640e1d628b312e423eaf27aeac56d0e43084546",
            "txnIndex": 178,
            "type": 2,
            "value": "0"
        },
        "fund_flow": [
            {
                "amount": "14,756.21",
                "from": "0xfae26fe50e768ea14193b60809bcb342dcd84443",
                "id": 1,
                "isERC1155": false,
                "isERC721": false,
                "isReverted": false,
                "order": 1,
                "to": "0x28c6c06298d514db089934071355e5743bf21d60",
                "token": "0x967da4048cd07ab37855c090aaf366e4ce1b9f48"
            }
        ],
        "token_infos": [
            {
                "address": "0x967da4048cd07ab37855c090aaf366e4ce1b9f48",
                "decimals": 18
            },
            {
                "address": "0xc02aaa39b223fe8d0a0e5c4f27ead9083c756cc2",
                "decimals": 18
            },
            {
                "address": "0xeeeeeeeeeeeeeeeeeeeeeeeeeeeeeeeeeeeeeeee",
                "decimals": 18
            }
        ]
    },
    "address_label": {
        "labels": [
            {
                "address": "0x0000000000000000000000000000000000000004",
                "label": "Precompiled"
            },
            {
                "address": "0xeeeeeeeeeeeeeeeeeeeeeeeeeeeeeeeeeeeeeeee",
                "label": "Ether"
            },
            {
                "address": "0xfae26fe50e768ea14193b60809bcb342dcd84443",
                "label": "BINANCE"
            },
            {
                "address": "0x28c6c06298d514db089934071355e5743bf21d60",
                "label": "Binance 14"
            },
            {
                "address": "0x967da4048cd07ab37855c090aaf366e4ce1b9f48",
                "label": "Ocean Protocol: OCEAN Token"
            },
            {
                "address": "0x0000000000000000000000000000000000000001",
                "label": "Precompiled"
            },
            {
                "address": "0x0000000000000000000000000000000000000002",
                "label": "Precompiled"
            },
            {
                "address": "0x0000000000000000000000000000000000000003",
                "label": "Precompiled"
            }
        ]
    },
    "trace": {
        "accountLabels": null,
        "dataMap": {
            "-1": {
                "invocation": {
                    "address": "0xfae26fe50e768ea14193b60809bcb342dcd84443",
                    "callData": "",
                    "decodedMethod": null,
                    "errorInfo": "",
                    "fromAddress": "",
                    "gasUsed": 0,
                    "id": -1,
                    "methodDecoded": false,
                    "operation": "",
                    "output": "",
                    "revert": false,
                    "revertMessage": "",
                    "selector": "",
                    "status": false,
                    "value": ""
                },
                "nodeType": 0
            },
            "0": {
                "invocation": {
                    "address": "0x967da4048cd07ab37855c090aaf366e4ce1b9f48",
                    "callData": "0x00000000000000000000000028c6c06298d514db089934071355e5743bf21d6000000000000000000000000000000000000000000000031fef8d1d3faae50000",
                    "decodedMethod": {
                        "callParams": [
                            {
                                "name": "_to",
                                "type": "address",
                                "value": "0x28c6c06298d514db089934071355e5743bf21d60"
                            },
                            {
                                "decimalAvailable": true,
                                "name": "_value",
                                "type": "uint256",
                                "value": "14,756,210,000,000,000,000,000"
                            }
                        ],
                        "constructorArguments": "",
                        "name": "transfer",
                        "returnParams": [
                            {
                                "name": "",
                                "type": "bool",
                                "value": true
                            }
                        ],
                        "signature": "transfer(address,uint256)"
                    },
                    "errorInfo": "",
                    "fromAddress": "0xfae26fe50e768ea14193b60809bcb342dcd84443",
                    "gasUsed": 36898,
                    "id": 0,
                    "methodDecoded": true,
                    "operation": "CALL",
                    "output": "0x0000000000000000000000000000000000000000000000000000000000000001",
                    "revert": false,
                    "revertMessage": "",
                    "selector": "0xa9059cbb",
                    "status": true,
                    "value": "0"
                },
                "nodeType": 0
            },
            "1": {
                "event": {
                    "contract": "0x967da4048cd07ab37855c090aaf366e4ce1b9f48",
                    "decodedLog": {
                        "name": "Transfer",
                        "params": [
                            {
                                "name": "from",
                                "type": "address",
                                "value": "0xfae26fe50e768ea14193b60809bcb342dcd84443"
                            },
                            {
                                "name": "to",
                                "type": "address",
                                "value": "0x28c6c06298d514db089934071355e5743bf21d60"
                            },
                            {
                                "decimalAvailable": true,
                                "name": "value",
                                "type": "uint256",
                                "value": "14,756,210,000,000,000,000,000"
                            }
                        ],
                        "signature": "Transfer(address,address,uint256)"
                    },
                    "id": 1,
                    "logData": "0x00000000000000000000000000000000000000000000031fef8d1d3faae50000",
                    "logDecoded": true,
                    "operation": "EVENT",
                    "revert": false,
                    "status": true,
                    "topics": [
                        "0xddf252ad1be2c89b69c2b068fc378daa952ba7f163c4a11628f55a4df523b3ef",
                        "0x000000000000000000000000fae26fe50e768ea14193b60809bcb342dcd84443",
                        "0x00000000000000000000000028c6c06298d514db089934071355e5743bf21d60"
                    ]
                },
                "nodeType": 1
            }
        },
        "gasFlame": [
            {
                "children": [
                    {
                        "children": [
                            {
                                "children": [],
                                "depth": 0,
                                "name": "Initial Gas",
                                "value": 21656
                            },
                            {
                                "children": [],
                                "depth": 0,
                                "name": "Executed Gas",
                                "value": 20042
                            }
                        ],
                        "depth": -1,
                        "name": "Actual Gas Used",
                        "value": 36898
                    },
                    {
                        "children": [],
                        "depth": -1,
                        "name": "Refunded Gas",
                        "value": 4800
                    }
                ],
                "depth": -2,
                "name": "Total Gas",
                "value": 41698
            }
        ],
        "isConfirmed": true,
        "mainTrace": [
            {
                "children": [
                    {
                        "children": [
                            {
                                "children": [],
                                "depth": 1,
                                "id": 1,
                                "order": 1
                            }
                        ],
                        "depth": 0,
                        "id": 0,
                        "order": 0
                    }
                ],
                "depth": -1,
                "id": -1,
                "order": -1
            }
        ],
        "mainTraceNodeCount": 2,
        "parentIdMap": {
            "0": -1,
            "1": 0
        },
        "tidyTrace": [
            {
                "children": [
                    {
                        "children": [
                            {
                                "children": [],
                                "depth": 1,
                                "id": 1,
                                "order": 1
                            }
                        ],
                        "depth": 0,
                        "id": 0,
                        "order": 0
                    }
                ],
                "depth": -1,
                "id": -1,
                "order": -1
            }
        ],
        "tidyTraceNodeCount": 2
    },
    "state_change": {
        "stateChanges": [
            {
                "address": "0x967da4048cd07ab37855c090aaf366e4ce1b9f48",
                "erc": "ERC-20",
                "slots": [
                    {
                        "current": "0x0000000000000000000000000000000000000000000000000000000000000000",
                        "key": "0x3fa837b223bab007d5df02bc44ca5d62060ee7dc50863e8dd19f67282e64ce8e",
                        "prev": "0x00000000000000000000000000000000000000000000031fef8d1d3faae50000"
                    },
                    {
                        "current": "0x000000000000000000000000000000000000000000065077211f99f514819676",
                        "key": "0x83bdb921ef22306a5d1cd2076713b14c9c19f333dd4229674ec19884e7413404",
                        "prev": "0x000000000000000000000000000000000000000000064d5731927cb5699c9676"
                    }
                ],
                "storageVariables": [
                    {
                        "name": "_balances",
                        "type": "mapping(address => uint256)",
                        "value": {
                            "pairs": [
                                {
                                    "key": "0x28c6c06298d514db089934071355e5743bf21d60",
                                    "value": {
                                        "current": "7633541785657723521701494",
                                        "prev": "7618785575657723521701494",
                                        "typeTag": 1
                                    }
                                },
                                {
                                    "key": "0xfae26fe50e768ea14193b60809bcb342dcd84443",
                                    "value": {
                                        "current": "0",
                                        "prev": "14756210000000000000000",
                                        "typeTag": 1
                                    }
                                }
                            ],
                            "typeTag": 4
                        }
                    }
                ]
            }
        ]
    }
}