{
    "balance_change": {
        "balanceChanges": [
            {
                "account": "0x18d2295f44abdb765c9c11d934a8dbdf54dee586",
                "assets": [
                    {
                        "address": "0x1a77cc30e8d7cb528520cda6b29279e7d859896a",
                        "amount": "19,000",
                        "iconUrl": "",
                        "isERC1155": false,
                        "isERC721": false,
                        "sign": false,
                        "value": ""
                    }
                ]
            },
            {
                "account": "0x204a71f94268edbe491c996bafa11dff58317124",
                "assets": [
                    {
                        "address": "0x1a77cc30e8d7cb528520cda6b29279e7d859896a",
                        "amount": "19,000",
                        "iconUrl": "",
                        "isERC1155": false,
                        "isERC721": false,
                        "sign": true,
                        "value": ""
                    }
                ]
            }
        ]
    },
    "profile": {
        "basic_info": {
            "baseFee": "",
            "blockNumber": 7121684,
            "callData": "0xa9059cbb000000000000000000000000204a71f94268edbe491c996bafa11dff58317124000000000000000000000000000000000000000000000405fdf7e5af85e00000",
            "debugEnable": true,
            "errorInfo": "",
            "eventCount": 1,
            "feeRecipient": "0x5a0b54d5dc17e0aadc383d2db43b0a0d3e029c4c",
            "formatValue": "0",
            "gasLimit": 430000,
            "gasPrice": "5",
            "gasUsed": 36645,
            "intTxnCount": 0,
            "internalRevert": false,
            "internalRevertMessage": "",
            "isContractCreation": false,
            "isFlashloan": false,
            "maxFee": "",
            "nonce": 69577,
            "overwritedBlockNumber": -1,
            "priorityFee": "",
            "receiver": "0x1a77cc30e8d7cb528520cda6b29279e7d859896a",
            "revertMessage": "",
            "sender": "0x18d2295f44abdb765c9c11d934a8dbdf54dee586",
            "simulationEnable": true,
            "sourceTxnHash": "0xed21cb527292a5ea5346df1304791cb8c174ce1789a66ea9f3c59b631eab04fb",
            "status": true,
            "timestamp": "2019-01-25T01:28:37Z",
            "transactionFee": "0.000183225",
            "txnHash": "0xed21cb527292a5ea5346df1304791cb8c174ce1789a66ea9f3c59b631eab04fb",
            "txnIndex": 14,
            "type": 0,
            "value": "0"
        },
        "fund_flow": [
            {
                "amount": "19,000",
                "from": "0x18d2295f44abdb765c9c11d934a8dbdf54dee586",
                "id": 1,
                "isERC1155": false,
                "isERC721": false,
                "isReverted": false,
                "order": 1,
                "to": "0x204a71f94268edbe491c996bafa11dff58317124",
                "token": "0x1a77cc30e8d7cb528520cda6b29279e7d859896a"
            }
        ],
        "token_infos": [
            {
                "address": "0x1a77cc30e8d7cb528520cda6b29279e7d859896a",
                "decimals": 18
            },
            {
                "address": "0xc02aaa39b223fe8d0a0e5c4f27ead9083c756cc2",
                "decimals": 18
            },
            {
                "address": "0xeeeeeeeeeeeeeeeeeeeeeeeeeeeeeeeeeeeeeeee",
                "decimals": 18
            }
        ]
    },
    "address_label": {
        "labels": [
            {
                "address": "0x0000000000000000000000000000000000000002",
                "label": "Precompiled"
            },
            {
                "address": "0x0000000000000000000000000000000000000003",
                "label": "Precompiled"
            },
            {
                "address": "0x0000000000000000000000000000000000000004",
                "label": "Precompiled"
            },
            {
                "address": "0xeeeeeeeeeeeeeeeeeeeeeeeeeeeeeeeeeeeeeeee",
                "label": "Ether"
            },
            {
                "address": "0x1a77cc30e8d7cb528520cda6b29279e7d859896a",
                "label": "American Bank Token (ABT)"
            },
            {
                "address": "0x0000000000000000000000000000000000000001",
                "label": "Precompiled"
            }
        ]
    },
    "trace": {
        "accountLabels": null,
        "dataMap": {
            "-1": {
                "invocation": {
                    "address": "0x18d2295f44abdb765c9c11d934a8dbdf54dee586",
                    "callData": "",
                    "decodedMethod": null,
                    "errorInfo": "",
                    "fromAddress": "",
                    "gasUsed": 0,
                    "id": -1,
                    "methodDecoded": false,
                    "operation": "",
                    "output": "",
                    "revert": false,
                    "revertMessage": "",
                    "selector": "",
                    "status": false,
                    "value": ""
                },
                "nodeType": 0
            },
            "0": {
                "invocation": {
                    "address": "0x1a77cc30e8d7cb528520cda6b29279e7d859896a",
                    "callData": "0x000000000000000000000000204a71f94268edbe491c996bafa11dff58317124000000000000000000000000000000000000000000000405fdf7e5af85e00000",
                    "decodedMethod": {
                        "callParams": [
                            {
                                "name": "_to",
                                "type": "address",
                                "value": "0x204a71f94268edbe491c996bafa11dff58317124"
                            },
                            {
                                "decimalAvailable": true,
                                "name": "_value",
                                "type": "uint256",
                                "value": "19,000,000,000,000,000,000,000"
                            }
                        ],
                        "constructorArguments": "",
                        "name": "transfer",
                        "returnParams": [
                            {
                                "name": "success",
                                "type": "bool",
                                "value": true
                            }
                        ],
                        "signature": "transfer(address,uint256)"
                    },
                    "errorInfo": "",
                    "fromAddress": "0x18d2295f44abdb765c9c11d934a8dbdf54dee586",
                    "gasUsed": 36645,
                    "id": 0,
                    "methodDecoded": true,
                    "operation": "CALL",
                    "output": "0x0000000000000000000000000000000000000000000000000000000000000001",
                    "revert": false,
                    "revertMessage": "",
                    "selector": "0xa9059cbb",
                    "status": true,
                    "value": "0"
                },
                "nodeType": 0
            },
            "1": {
                "event": {
                    "contract": "0x1a77cc30e8d7cb528520cda6b29279e7d859896a",
                    "decodedLog": {
                        "name": "Transfer",
                        "params": [
                            {
                                "name": "_from",
                                "type": "address",
                                "value": "0x18d2295f44abdb765c9c11d934a8dbdf54dee586"
                            },
                            {
                                "name": "_to",
                                "type": "address",
                                "value": "0x204a71f94268edbe491c996bafa11dff58317124"
                            },
                            {
                                "decimalAvailable": true,
                                "name": "_value",
                                "type": "uint256",
                                "value": "19,000,000,000,000,000,000,000"
                            }
                        ],
                        "signature": "Transfer(address,address,uint256)"
                    },
                    "id": 1,
                    "logData": "0x000000000000000000000000000000000000000000000405fdf7e5af85e00000",
                    "logDecoded": true,
                    "operation": "EVENT",
                    "revert": false,
                    "status": true,
                    "topics": [
                        "0xddf252ad1be2c89b69c2b068fc378daa952ba7f163c4a11628f55a4df523b3ef",
                        "0x00000000000000000000000018d2295f44abdb765c9c11d934a8dbdf54dee586",
                        "0x000000000000000000000000204a71f94268edbe491c996bafa11dff58317124"
                    ]
                },
                "nodeType": 1
            }
        },
        "gasFlame": [
            {
                "children": [
                    {
                        "children": [
                            {
                                "children": [],
                                "depth": 0,
                                "name": "Initial Gas",
                                "value": 23320
                            },
                            {
                                "children": [],
                                "depth": 0,
                                "name": "Executed Gas",
                                "value": 13325
                            }
                        ],
                        "depth": -1,
                        "name": "Actual Gas Used",
                        "value": 36645
                    },
                    {
                        "children": [],
                        "depth": -1,
                        "name": "Refunded Gas",
                        "value": 0
                    }
                ],
                "depth": -2,
                "name": "Total Gas",
                "value": 36645
            }
        ],
        "isConfirmed": true,
        "mainTrace": [
            {
                "children": [
                    {
                        "children": [
                            {
                                "children": [],
                                "depth": 1,
                                "id": 1,
                                "order": 1
                            }
                        ],
                        "depth": 0,
                        "id": 0,
                        "order": 0
                    }
                ],
                "depth": -1,
                "id": -1,
                "order": -1
            }
        ],
        "mainTraceNodeCount": 2,
        "parentIdMap": {
            "0": -1,
            "1": 0
        },
        "tidyTrace": [
            {
                "children": [
                    {
                        "children": [
                            {
                                "children": [],
                                "depth": 1,
                                "id": 1,
                                "order": 1
                            }
                        ],
                        "depth": 0,
                        "id": 0,
                        "order": 0
                    }
                ],
                "depth": -1,
                "id": -1,
                "order": -1
            }
        ],
        "tidyTraceNodeCount": 2
    },
    "state_change": {
        "stateChanges": [
            {
                "address": "0x1a77cc30e8d7cb528520cda6b29279e7d859896a",
                "erc": "ERC-20",
                "slots": [
                    {
                        "current": "0x0000000000000000000000000000000000000000001efab3b0a276e436c08800",
                        "key": "0x68be0c3f7aaa7030f99217fa9f6e6c41a9227227054e949fb727c3ad42a916cf",
                        "prev": "0x0000000000000000000000000000000000000000001efeb9ae9a5c93bca08800"
                    },
                    {
                        "current": "0x0000000000000000000000000000000000000000000028b89a986eef21300000",
                        "key": "0xc8909c35c3f9219694ed093cc13d90b04e0c1f4c2761d7ecd204df20eb8d0b60",
                        "prev": "0x0000000000000000000000000000000000000000000024b29ca0893f9b500000"
                    }
                ],
                "storageVariables": [
                    {
                        "name": "balances",
                        "type": "mapping(address => uint256)",
                        "value": {
                            "pairs": [
                                {
                                    "key": "0x18d2295f44abdb765c9c11d934a8dbdf54dee586",
                                    "value": {
                                        "current": "37451680904211700000000000",
                                        "prev": "37470680904211700000000000",
                                        "typeTag": 1
                                    }
                                },
                                {
                                    "key": "0x204a71f94268edbe491c996bafa11dff58317124",
                                    "value": {
                                        "current": "192300000000000000000000",
                                        "prev": "173300000000000000000000",
                                        "typeTag": 1
                                    }
                                }
                            ],
                            "typeTag": 4
                        }
                    }
                ]
            }
        ]
    }
}