{
    "balance_change": {
        "balanceChanges": [
            {
                "account": "0x36a454aef52938c8637cd4689b2980c1cfd43389",
                "assets": [
                    {
                        "address": "0xeeeeeeeeeeeeeeeeeeeeeeeeeeeeeeeeeeeeeeee",
                        "amount": "0.000000000006604032",
                        "iconUrl": "https://assets.blocksec.com/image/1663669189317-3.png",
                        "isERC1155": false,
                        "isERC721": false,
                        "sign": false,
                        "value": "0.000000019297047544320001442"
                    }
                ]
            },
            {
                "account": "0xa69babef1ca67a37ffaf7a485dfff3382056e78c",
                "assets": [
                    {
                        "address": "0xa0b86991c6218b36c1d19d4a2e9eb0ce3606eb48",
                        "amount": "11,491,051.069335",
                        "iconUrl": "https://assets.blocksec.com/icon/0347a86cc07dbd03fdc5db01a4e5ac7e1217f90e0b6e4bb0f75cbcca09160989.png",
                        "isERC1155": false,
                        "isERC721": false,
                        "sign": false,
                        "value": "11502542.121069998734"
                    },
                    {
                        "address": "0xc02aaa39b223fe8d0a0e5c4f27ead9083c756cc2",
                        "amount": "1,805.712071400578446427",
                        "iconUrl": "https://assets.blocksec.com/icon/f1cb2d02c471d545bbc7722daf3277fd852d98e63d118771af7047bd8256c516.png",
                        "isERC1155": false,
                        "isERC721": false,
                        "sign": false,
                        "value": "5276308.728582710394"
                    },
                    {
                        "address": "0xeeeeeeeeeeeeeeeeeeeeeeeeeeeeeeeeeeeeeeee",
                        "amount": "0.000000000006604032",
                        "iconUrl": "https://assets.blocksec.com/image/1663669189317-3.png",
                        "isERC1155": false,
                        "isERC721": false,
                        "sign": true,
                        "value": "0.000000019297047544320001442"
                    }
                ]
            },
            {
                "account": "0x88e6a0c2ddd26feeb64f039a2c41296fcb3f5640",
                "assets": [
                    {
                        "address": "0xc02aaa39b223fe8d0a0e5c4f27ead9083c756cc2",
                        "amount": "1,805.712071400578446427",
                        "iconUrl": "https://assets.blocksec.com/icon/f1cb2d02c471d545bbc7722daf3277fd852d98e63d118771af7047bd8256c516.png",
                        "isERC1155": false,
                        "isERC721": false,
                        "sign": true,
                        "value": "5276308.728582710394"
                    },
                    {
                        "address": "0xa0b86991c6218b36c1d19d4a2e9eb0ce3606eb48",
                        "amount": "11,491,051.069335",
                        "iconUrl": "https://assets.blocksec.com/icon/0347a86cc07dbd03fdc5db01a4e5ac7e1217f90e0b6e4bb0f75cbcca09160989.png",
                        "isERC1155": false,
                        "isERC721": false,
                        "sign": true,
                        "value": "11502542.121069998734"
                    }
                ]
            }
        ]
    },
    "profile": {
        "basic_info": {
            "baseFee": "6.338764258",
            "blockNumber": 19779277,
            "callData": "0x1cff79cd000000000000000000000000fa7fc9aceadd31c094f93f29fc8e01b4bf62157a000000000000000000000000000000000000000000000000000000000000004000000000000000000000000000000000000000000000000000000000000000e43123dd76000000000000000000000000000000000000000000000000000000006632f1bf00000000000000000000000088e6a0c2ddd26feeb64f039a2c41296fcb3f5640000000000000000000000000c02aaa39b223fe8d0a0e5c4f27ead9083c756cc2000000000000000000000000a0b86991c6218b36c1d19d4a2e9eb0ce3606eb4800000000000000000000000000000000000000000000000028650cf06abf4c0000000000000000000000000000000000000000000000000028650cf06abf4c00000000000000000000000000000000000000000000000000000000000000000000000000000000000000000000000000000000000000000000000000",
            "debugEnable": true,
            "errorInfo": "",
            "eventCount": 3,
            "feeRecipient": "0x95222290dd7278aa3ddd389cc1e1d165cc4bafe5",
            "formatValue": "0.000000000006604032",
            "gasLimit": 523430,
            "gasPrice": "6.338764258",
            "gasUsed": 241715,
            "intTxnCount": 21,
            "internalRevert": false,
            "internalRevertMessage": "",
            "isContractCreation": false,
            "isFlashloan": false,
            "maxFee": "9.508146387",
            "nonce": 203955,
            "overwritedBlockNumber": -1,
            "priorityFee": "0",
            "receiver": "0xa69babef1ca67a37ffaf7a485dfff3382056e78c",
            "revertMessage": "",
            "sender": "0x36a454aef52938c8637cd4689b2980c1cfd43389",
            "simulationEnable": true,
            "sourceTxnHash": "0xededcf0f03f1cd266f1862c75ee3e4d5e63361d0b00a073e03420f69e9d93720",
            "status": true,
            "timestamp": "2024-05-02T01:51:59Z",
            "transactionFee": "0.00153217440262247",
            "txnHash": "0xededcf0f03f1cd266f1862c75ee3e4d5e63361d0b00a073e03420f69e9d93720",
            "txnIndex": 0,
            "type": 2,
            "value": "6604032"
        },
        "fund_flow": [
            {
                "amount": "0.000000000006604032",
                "from": "0x36a454aef52938c8637cd4689b2980c1cfd43389",
                "id": 1,
                "isERC1155": false,
                "isERC721": false,
                "isReverted": false,
                "order": 1,
                "to": "0xa69babef1ca67a37ffaf7a485dfff3382056e78c",
                "token": "0xeeeeeeeeeeeeeeeeeeeeeeeeeeeeeeeeeeeeeeee"
            },
            {
                "amount": "11,491,051.069335",
                "from": "0xa69babef1ca67a37ffaf7a485dfff3382056e78c",
                "id": 2,
                "isERC1155": false,
                "isERC721": false,
                "isReverted": false,
                "order": 2,
                "to": "0x88e6a0c2ddd26feeb64f039a2c41296fcb3f5640",
                "token": "0xa0b86991c6218b36c1d19d4a2e9eb0ce3606eb48"
            },
            {
                "amount": "1,805.712071400578446427",
                "from": "0xa69babef1ca67a37ffaf7a485dfff3382056e78c",
                "id": 3,
                "isERC1155": false,
                "isERC721": false,
                "isReverted": false,
                "order": 3,
                "to": "0x88e6a0c2ddd26feeb64f039a2c41296fcb3f5640",
                "token": "0xc02aaa39b223fe8d0a0e5c4f27ead9083c756cc2"
            }
        ],
        "token_infos": [
            {
                "address": "0xa0b86991c6218b36c1d19d4a2e9eb0ce3606eb48",
                "decimals": 6
            },
            {
                "address": "0xc02aaa39b223fe8d0a0e5c4f27ead9083c756cc2",
                "decimals": 18
            },
            {
                "address": "0xeeeeeeeeeeeeeeeeeeeeeeeeeeeeeeeeeeeeeeee",
                "decimals": 18
            }
        ]
    },
    "address_label": {
        "labels": [
            {
                "address": "0xc02aaa39b223fe8d0a0e5c4f27ead9083c756cc2",
                "label": "Wrapped Ether (WETH)"
            },
            {
                "address": "0xa0b86991c6218b36c1d19d4a2e9eb0ce3606eb48",
                "label": "Circle: USDC Token"
            },
            {
                "address": "0x0000000000000000000000000000000000000002",
                "label": "Precompiled"
            },
            {
                "address": "0xeeeeeeeeeeeeeeeeeeeeeeeeeeeeeeeeeeeeeeee",
                "label": "Ether"
            },
            {
                "address": "0x88e6a0c2ddd26feeb64f039a2c41296fcb3f5640",
                "label": "Uniswap V3: USDC 3"
            },
            {
                "address": "0x43506849d7c04f9138d1a2050bbf3a0c054402dd",
                "label": "FiatTokenV2_2"
            },
            {
                "address": "0x0000000000000000000000000000000000000001",
                "label": "Precompiled"
            },
            {
                "address": "0x0000000000000000000000000000000000000003",
                "label": "Precompiled"
            },
            {
                "address": "0x0000000000000000000000000000000000000004",
                "label": "Precompiled"
            },
            {
                "address": "0xa69babef1ca67a37ffaf7a485dfff3382056e78c",
                "label": "MEV Bot: 0xA69...78C"
            }
        ]
    },
    "trace": {
        "accountLabels": null,
        "dataMap": {
            "-1": {
                "invocation": {
                    "address": "0x36a454aef52938c8637cd4689b2980c1cfd43389",
                    "callData": "",
                    "decodedMethod": null,
                    "errorInfo": "",
                    "fromAddress": "",
                    "gasUsed": 0,
                    "id": -1,
                    "methodDecoded": false,
                    "operation": "",
                    "output": "",
                    "revert": false,
                    "revertMessage": "",
                    "selector": "",
                    "status": false,
                    "value": ""
                },
                "nodeType": 0
            },
            "0": {
                "invocation": {
                    "address": "0xa69babef1ca67a37ffaf7a485dfff3382056e78c",
                    "callData": "0x000000000000000000000000fa7fc9aceadd31c094f93f29fc8e01b4bf62157a000000000000000000000000000000000000000000000000000000000000004000000000000000000000000000000000000000000000000000000000000000e43123dd76000000000000000000000000000000000000000000000000000000006632f1bf00000000000000000000000088e6a0c2ddd26feeb64f039a2c41296fcb3f5640000000000000000000000000c02aaa39b223fe8d0a0e5c4f27ead9083c756cc2000000000000000000000000a0b86991c6218b36c1d19d4a2e9eb0ce3606eb4800000000000000000000000000000000000000000000000028650cf06abf4c0000000000000000000000000000000000000000000000000028650cf06abf4c00000000000000000000000000000000000000000000000000000000000000000000000000000000000000000000000000000000000000000000000000",
                    "decodedMethod": {
                        "callParams": [
                            {
                                "name": "_target",
                                "type": "address",
                                "value": "0xfa7fc9aceadd31c094f93f29fc8e01b4bf62157a"
                            },
                            {
                                "name": "_data",
                                "type": "bytes",
                                "value": "0x3123dd76000000000000000000000000000000000000000000000000000000006632f1bf00000000000000000000000088e6a0c2ddd26feeb64f039a2c41296fcb3f5640000000000000000000000000c02aaa39b223fe8d0a0e5c4f27ead9083c756cc2000000000000000000000000a0b86991c6218b36c1d19d4a2e9eb0ce3606eb4800000000000000000000000000000000000000000000000028650cf06abf4c0000000000000000000000000000000000000000000000000028650cf06abf4c000000000000000000000000000000000000000000000000000000000000000000"
                            }
                        ],
                        "constructorArguments": "",
                        "name": "execute",
                        "returnParams": [],
                        "signature": "execute(address,bytes)"
                    },
                    "errorInfo": "",
                    "fromAddress": "0x36a454aef52938c8637cd4689b2980c1cfd43389",
                    "gasUsed": 241715,
                    "id": 0,
                    "methodDecoded": true,
                    "operation": "CALL",
                    "output": "",
                    "revert": false,
                    "revertMessage": "",
                    "selector": "0x1cff79cd",
                    "status": true,
                    "value": "0.000000000006604032"
                },
                "nodeType": 0
            },
            "1": {
                "invocation": {
                    "address": "0xfa7fc9aceadd31c094f93f29fc8e01b4bf62157a",
                    "callData": "0x000000000000000000000000000000000000000000000000000000006632f1bf00000000000000000000000088e6a0c2ddd26feeb64f039a2c41296fcb3f5640000000000000000000000000c02aaa39b223fe8d0a0e5c4f27ead9083c756cc2000000000000000000000000a0b86991c6218b36c1d19d4a2e9eb0ce3606eb4800000000000000000000000000000000000000000000000028650cf06abf4c0000000000000000000000000000000000000000000000000028650cf06abf4c000000000000000000000000000000000000000000000000000000000000000000",
                    "decodedMethod": null,
                    "errorInfo": "",
                    "fromAddress": "0xa69babef1ca67a37ffaf7a485dfff3382056e78c",
                    "gasUsed": 152856,
                    "id": 1,
                    "methodDecoded": false,
                    "operation": "DELEGATECALL",
                    "output": "",
                    "revert": false,
                    "revertMessage": "",
                    "selector": "0x3123dd76",
                    "status": true,
                    "value": "0.000000000006604032"
                },
                "nodeType": 0
            },
            "10": {
                "invocation": {
                    "address": "0x9a5f2e0db22ff289d0cc40ef654a19a5b012d8aa",
                    "callData": "0x00000000000000000000000088e6a0c2ddd26feeb64f039a2c41296fcb3f5640000000000000000000000000a69babef1ca67a37ffaf7a485dfff3382056e78c000000000000000000000000a0b86991c6218b36c1d19d4a2e9eb0ce3606eb48000000000000000000000000c02aaa39b223fe8d0a0e5c4f27ead9083c756cc200000000000000000000000000000000000000000000000000000000000001f4000000000000000000000000000000000000000000000000000000000002ffd0000000000000000000000000000000000000000000000000000000000002ffda000000000000000000000000000000000000000000000021aa054f94562d9113",
                    "decodedMethod": null,
                    "errorInfo": "",
                    "fromAddress": "0xa69babef1ca67a37ffaf7a485dfff3382056e78c",
                    "gasUsed": 97977,
                    "id": 10,
                    "methodDecoded": false,
                    "operation": "CALL",
                    "output": "0x00000000000000000000000000000000000000000000000000000a7378045f97000000000000000000000000000000000000000000000061e349f9ddc245745b",
                    "revert": false,
                    "revertMessage": "",
                    "selector": "0xcc14c7f4",
                    "status": true,
                    "value": "0"
                },
                "nodeType": 0
            },
            "11": {
                "invocation": {
                    "address": "0x88e6a0c2ddd26feeb64f039a2c41296fcb3f5640",
                    "callData": "0x000000000000000000000000a69babef1ca67a37ffaf7a485dfff3382056e78c000000000000000000000000000000000000000000000000000000000002ffd0000000000000000000000000000000000000000000000000000000000002ffda000000000000000000000000000000000000000000000021aa054f94562d911300000000000000000000000000000000000000000000000000000000000000a00000000000000000000000000000000000000000000000000000000000000080000000000000000000000000a0b86991c6218b36c1d19d4a2e9eb0ce3606eb48000000000000000000000000c02aaa39b223fe8d0a0e5c4f27ead9083c756cc200000000000000000000000000000000000000000000000000000000000001f4000000000000000000000000a69babef1ca67a37ffaf7a485dfff3382056e78c",
                    "decodedMethod": {
                        "callParams": [
                            {
                                "name": "recipient",
                                "type": "address",
                                "value": "0xa69babef1ca67a37ffaf7a485dfff3382056e78c"
                            },
                            {
                                "name": "tickLower",
                                "type": "int24",
                                "value": "196,560"
                            },
                            {
                                "name": "tickUpper",
                                "type": "int24",
                                "value": "196,570"
                            },
                            {
                                "name": "amount",
                                "type": "uint128",
                                "value": "620,993,840,292,266,086,675"
                            },
                            {
                                "name": "data",
                                "type": "bytes",
                                "value": "0x000000000000000000000000a0b86991c6218b36c1d19d4a2e9eb0ce3606eb48000000000000000000000000c02aaa39b223fe8d0a0e5c4f27ead9083c756cc200000000000000000000000000000000000000000000000000000000000001f4000000000000000000000000a69babef1ca67a37ffaf7a485dfff3382056e78c"
                            }
                        ],
                        "constructorArguments": "",
                        "name": "mint",
                        "returnParams": [
                            {
                                "name": "amount0",
                                "type": "uint256",
                                "value": "11,491,051,069,335"
                            },
                            {
                                "name": "amount1",
                                "type": "uint256",
                                "value": "1,805,712,071,400,578,446,427"
                            }
                        ],
                        "signature": "mint(address,int24,int24,uint128,bytes)"
                    },
                    "errorInfo": "",
                    "fromAddress": "0x9a5f2e0db22ff289d0cc40ef654a19a5b012d8aa",
                    "gasUsed": 95523,
                    "id": 11,
                    "methodDecoded": true,
                    "operation": "CALL",
                    "output": "0x00000000000000000000000000000000000000000000000000000a7378045f97000000000000000000000000000000000000000000000061e349f9ddc245745b",
                    "revert": false,
                    "revertMessage": "",
                    "selector": "0x3c8a7d8d",
                    "status": true,
                    "value": "0"
                },
                "nodeType": 0
            },
            "12": {
                "invocation": {
                    "address": "0xa0b86991c6218b36c1d19d4a2e9eb0ce3606eb48",
                    "callData": "0x00000000000000000000000088e6a0c2ddd26feeb64f039a2c41296fcb3f5640",
                    "decodedMethod": {
                        "callParams": [
                            {
                                "name": "account",
                                "type": "address",
                                "value": "0x88e6a0c2ddd26feeb64f039a2c41296fcb3f5640"
                            }
                        ],
                        "constructorArguments": "",
                        "name": "balanceOf",
                        "returnParams": [
                            {
                                "decimalAvailable": true,
                                "name": "",
                                "type": "uint256",
                                "value": "63,606,896,919,139"
                            }
                        ],
                        "signature": "balanceOf(address)"
                    },
                    "errorInfo": "",
                    "fromAddress": "0x88e6a0c2ddd26feeb64f039a2c41296fcb3f5640",
                    "gasUsed": 1339,
                    "id": 12,
                    "methodDecoded": true,
                    "operation": "STATICCALL",
                    "output": "0x000000000000000000000000000000000000000000000000000039d9a27f0263",
                    "revert": false,
                    "revertMessage": "",
                    "selector": "0x70a08231",
                    "status": true,
                    "value": "0"
                },
                "nodeType": 0
            },
            "13": {
                "invocation": {
                    "address": "0x43506849d7c04f9138d1a2050bbf3a0c054402dd",
                    "callData": "0x00000000000000000000000088e6a0c2ddd26feeb64f039a2c41296fcb3f5640",
                    "decodedMethod": {
                        "callParams": [
                            {
                                "name": "account",
                                "type": "address",
                                "value": "0x88e6a0c2ddd26feeb64f039a2c41296fcb3f5640"
                            }
                        ],
                        "constructorArguments": "",
                        "name": "balanceOf",
                        "returnParams": [
                            {
                                "decimalAvailable": true,
                                "name": "",
                                "type": "uint256",
                                "value": "63,606,896,919,139"
                            }
                        ],
                        "signature": "balanceOf(address)"
                    },
                    "errorInfo": "",
                    "fromAddress": "0xa0b86991c6218b36c1d19d4a2e9eb0ce3606eb48",
                    "gasUsed": 553,
                    "id": 13,
                    "methodDecoded": true,
                    "operation": "DELEGATECALL",
                    "output": "0x000000000000000000000000000000000000000000000000000039d9a27f0263",
                    "revert": false,
                    "revertMessage": "",
                    "selector": "0x70a08231",
                    "status": true,
                    "value": "0"
                },
                "nodeType": 0
            },
            "14": {
                "invocation": {
                    "address": "0xc02aaa39b223fe8d0a0e5c4f27ead9083c756cc2",
                    "callData": "0x00000000000000000000000088e6a0c2ddd26feeb64f039a2c41296fcb3f5640",
                    "decodedMethod": {
                        "callParams": [
                            {
                                "name": "",
                                "type": "address",
                                "value": "0x88e6a0c2ddd26feeb64f039a2c41296fcb3f5640"
                            }
                        ],
                        "constructorArguments": "",
                        "name": "balanceOf",
                        "returnParams": [
                            {
                                "decimalAvailable": true,
                                "name": "",
                                "type": "uint256",
                                "value": "24,864,344,814,101,754,329,191"
                            }
                        ],
                        "signature": "balanceOf(address)"
                    },
                    "errorInfo": "",
                    "fromAddress": "0x88e6a0c2ddd26feeb64f039a2c41296fcb3f5640",
                    "gasUsed": 534,
                    "id": 14,
                    "methodDecoded": true,
                    "operation": "STATICCALL",
                    "output": "0x000000000000000000000000000000000000000000000543e619ef7b111cb867",
                    "revert": false,
                    "revertMessage": "",
                    "selector": "0x70a08231",
                    "status": true,
                    "value": "0"
                },
                "nodeType": 0
            },
            "15": {
                "invocation": {
                    "address": "0x9a5f2e0db22ff289d0cc40ef654a19a5b012d8aa",
                    "callData": "0x00000000000000000000000000000000000000000000000000000a7378045f97000000000000000000000000000000000000000000000061e349f9ddc245745b00000000000000000000000000000000000000000000000000000000000000600000000000000000000000000000000000000000000000000000000000000080000000000000000000000000a0b86991c6218b36c1d19d4a2e9eb0ce3606eb48000000000000000000000000c02aaa39b223fe8d0a0e5c4f27ead9083c756cc200000000000000000000000000000000000000000000000000000000000001f4000000000000000000000000a69babef1ca67a37ffaf7a485dfff3382056e78c",
                    "decodedMethod": {
                        "callParams": [
                            {
                                "name": "amount0Owed",
                                "type": "uint256",
                                "value": "11,491,051,069,335"
                            },
                            {
                                "name": "amount1Owed",
                                "type": "uint256",
                                "value": "1,805,712,071,400,578,446,427"
                            },
                            {
                                "name": "data",
                                "type": "bytes",
                                "value": "0x000000000000000000000000a0b86991c6218b36c1d19d4a2e9eb0ce3606eb48000000000000000000000000c02aaa39b223fe8d0a0e5c4f27ead9083c756cc200000000000000000000000000000000000000000000000000000000000001f4000000000000000000000000a69babef1ca67a37ffaf7a485dfff3382056e78c"
                            }
                        ],
                        "constructorArguments": "",
                        "name": "uniswapV3MintCallback",
                        "returnParams": [],
                        "signature": "uniswapV3MintCallback(uint256,uint256,bytes)"
                    },
                    "errorInfo": "",
                    "fromAddress": "0x88e6a0c2ddd26feeb64f039a2c41296fcb3f5640",
                    "gasUsed": 28085,
                    "id": 15,
                    "methodDecoded": true,
                    "operation": "CALL",
                    "output": "",
                    "revert": false,
                    "revertMessage": "",
                    "selector": "0xd3487997",
                    "status": true,
                    "value": "0"
                },
                "nodeType": 0
            },
            "16": {
                "invocation": {
                    "address": "0xa0b86991c6218b36c1d19d4a2e9eb0ce3606eb48",
                    "callData": "0x000000000000000000000000a69babef1ca67a37ffaf7a485dfff3382056e78c00000000000000000000000088e6a0c2ddd26feeb64f039a2c41296fcb3f564000000000000000000000000000000000000000000000000000000a7378045f97",
                    "decodedMethod": {
                        "callParams": [
                            {
                                "name": "from",
                                "type": "address",
                                "value": "0xa69babef1ca67a37ffaf7a485dfff3382056e78c"
                            },
                            {
                                "name": "to",
                                "type": "address",
                                "value": "0x88e6a0c2ddd26feeb64f039a2c41296fcb3f5640"
                            },
                            {
                                "decimalAvailable": true,
                                "name": "value",
                                "type": "uint256",
                                "value": "11,491,051,069,335"
                            }
                        ],
                        "constructorArguments": "",
                        "name": "transferFrom",
                        "returnParams": [
                            {
                                "name": "",
                                "type": "bool",
                                "value": true
                            }
                        ],
                        "signature": "transferFrom(address,address,uint256)"
                    },
                    "errorInfo": "",
                    "fromAddress": "0x9a5f2e0db22ff289d0cc40ef654a19a5b012d8aa",
                    "gasUsed": 14949,
                    "id": 16,
                    "methodDecoded": true,
                    "operation": "CALL",
                    "output": "0x0000000000000000000000000000000000000000000000000000000000000001",
                    "revert": false,
                    "revertMessage": "",
                    "selector": "0x23b872dd",
                    "status": true,
                    "value": "0"
                },
                "nodeType": 0
            },
            "17": {
                "invocation": {
                    "address": "0x43506849d7c04f9138d1a2050bbf3a0c054402dd",
                    "callData": "0x000000000000000000000000a69babef1ca67a37ffaf7a485dfff3382056e78c00000000000000000000000088e6a0c2ddd26feeb64f039a2c41296fcb3f564000000000000000000000000000000000000000000000000000000a7378045f97",
                    "decodedMethod": {
                        "callParams": [
                            {
                                "name": "from",
                                "type": "address",
                                "value": "0xa69babef1ca67a37ffaf7a485dfff3382056e78c"
                            },
                            {
                                "name": "to",
                                "type": "address",
                                "value": "0x88e6a0c2ddd26feeb64f039a2c41296fcb3f5640"
                            },
                            {
                                "decimalAvailable": true,
                                "name": "value",
                                "type": "uint256",
                                "value": "11,491,051,069,335"
                            }
                        ],
                        "constructorArguments": "",
                        "name": "transferFrom",
                        "returnParams": [
                            {
                                "name": "",
                                "type": "bool",
                                "value": true
                            }
                        ],
                        "signature": "transferFrom(address,address,uint256)"
                    },
                    "errorInfo": "",
                    "fromAddress": "0xa0b86991c6218b36c1d19d4a2e9eb0ce3606eb48",
                    "gasUsed": 14154,
                    "id": 17,
                    "methodDecoded": true,
                    "operation": "DELEGATECALL",
                    "output": "0x0000000000000000000000000000000000000000000000000000000000000001",
                    "revert": false,
                    "revertMessage": "",
                    "selector": "0x23b872dd",
                    "status": true,
                    "value": "0"
                },
                "nodeType": 0
            },
            "18": {
                "event": {
                    "contract": "0xa0b86991c6218b36c1d19d4a2e9eb0ce3606eb48",
                    "decodedLog": {
                        "name": "Transfer",
                        "params": [
                            {
                                "name": "from",
                                "type": "address",
                                "value": "0xa69babef1ca67a37ffaf7a485dfff3382056e78c"
                            },
                            {
                                "name": "to",
                                "type": "address",
                                "value": "0x88e6a0c2ddd26feeb64f039a2c41296fcb3f5640"
                            },
                            {
                                "decimalAvailable": true,
                                "name": "value",
                                "type": "uint256",
                                "value": "11,491,051,069,335"
                            }
                        ],
                        "signature": "Transfer(address,address,uint256)"
                    },
                    "id": 18,
                    "logData": "0x00000000000000000000000000000000000000000000000000000a7378045f97",
                    "logDecoded": true,
                    "operation": "EVENT",
                    "revert": false,
                    "status": true,
                    "topics": [
                        "0xddf252ad1be2c89b69c2b068fc378daa952ba7f163c4a11628f55a4df523b3ef",
                        "0x000000000000000000000000a69babef1ca67a37ffaf7a485dfff3382056e78c",
                        "0x00000000000000000000000088e6a0c2ddd26feeb64f039a2c41296fcb3f5640"
                    ]
                },
                "nodeType": 1
            },
            "19": {
                "invocation": {
                    "address": "0xc02aaa39b223fe8d0a0e5c4f27ead9083c756cc2",
                    "callData": "0x000000000000000000000000a69babef1ca67a37ffaf7a485dfff3382056e78c00000000000000000000000088e6a0c2ddd26feeb64f039a2c41296fcb3f5640000000000000000000000000000000000000000000000061e349f9ddc245745b",
                    "decodedMethod": {
                        "callParams": [
                            {
                                "name": "src",
                                "type": "address",
                                "value": "0xa69babef1ca67a37ffaf7a485dfff3382056e78c"
                            },
                            {
                                "name": "dst",
                                "type": "address",
                                "value": "0x88e6a0c2ddd26feeb64f039a2c41296fcb3f5640"
                            },
                            {
                                "decimalAvailable": true,
                                "name": "wad",
                                "type": "uint256",
                                "value": "1,805,712,071,400,578,446,427"
                            }
                        ],
                        "constructorArguments": "",
                        "name": "transferFrom",
                        "returnParams": [
                            {
                                "name": "",
                                "type": "bool",
                                "value": true
                            }
                        ],
                        "signature": "transferFrom(address,address,uint256)"
                    },
                    "errorInfo": "",
                    "fromAddress": "0x9a5f2e0db22ff289d0cc40ef654a19a5b012d8aa",
                    "gasUsed": 9025,
                    "id": 19,
                    "methodDecoded": true,
                    "operation": "CALL",
                    "output": "0x0000000000000000000000000000000000000000000000000000000000000001",
                    "revert": false,
                    "revertMessage": "",
                    "selector": "0x23b872dd",
                    "status": true,
                    "value": "0"
                },
                "nodeType": 0
            },
            "2": {
                "invocation": {
                    "address": "0x88e6a0c2ddd26feeb64f039a2c41296fcb3f5640",
                    "callData": "0x",
                    "decodedMethod": {
                        "callParams": [],
                        "constructorArguments": "",
                        "name": "token0",
                        "returnParams": [
                            {
                                "name": "",
                                "type": "address",
                                "value": "0xa0b86991c6218b36c1d19d4a2e9eb0ce3606eb48"
                            }
                        ],
                        "signature": "token0()"
                    },
                    "errorInfo": "",
                    "fromAddress": "0xa69babef1ca67a37ffaf7a485dfff3382056e78c",
                    "gasUsed": 266,
                    "id": 2,
                    "methodDecoded": true,
                    "operation": "STATICCALL",
                    "output": "0x000000000000000000000000a0b86991c6218b36c1d19d4a2e9eb0ce3606eb48",
                    "revert": false,
                    "revertMessage": "",
                    "selector": "0x0dfe1681",
                    "status": true,
                    "value": "0"
                },
                "nodeType": 0
            },
            "20": {
                "event": {
                    "contract": "0xc02aaa39b223fe8d0a0e5c4f27ead9083c756cc2",
                    "decodedLog": {
                        "name": "Transfer",
                        "params": [
                            {
                                "name": "src",
                                "type": "address",
                                "value": "0xa69babef1ca67a37ffaf7a485dfff3382056e78c"
                            },
                            {
                                "name": "dst",
                                "type": "address",
                                "value": "0x88e6a0c2ddd26feeb64f039a2c41296fcb3f5640"
                            },
                            {
                                "decimalAvailable": true,
                                "name": "wad",
                                "type": "uint256",
                                "value": "1,805,712,071,400,578,446,427"
                            }
                        ],
                        "signature": "Transfer(address,address,uint256)"
                    },
                    "id": 20,
                    "logData": "0x000000000000000000000000000000000000000000000061e349f9ddc245745b",
                    "logDecoded": true,
                    "operation": "EVENT",
                    "revert": false,
                    "status": true,
                    "topics": [
                        "0xddf252ad1be2c89b69c2b068fc378daa952ba7f163c4a11628f55a4df523b3ef",
                        "0x000000000000000000000000a69babef1ca67a37ffaf7a485dfff3382056e78c",
                        "0x00000000000000000000000088e6a0c2ddd26feeb64f039a2c41296fcb3f5640"
                    ]
                },
                "nodeType": 1
            },
            "21": {
                "invocation": {
                    "address": "0xa0b86991c6218b36c1d19d4a2e9eb0ce3606eb48",
                    "callData": "0x00000000000000000000000088e6a0c2ddd26feeb64f039a2c41296fcb3f5640",
                    "decodedMethod": {
                        "callParams": [
                            {
                                "name": "account",
                                "type": "address",
                                "value": "0x88e6a0c2ddd26feeb64f039a2c41296fcb3f5640"
                            }
                        ],
                        "constructorArguments": "",
                        "name": "balanceOf",
                        "returnParams": [
                            {
                                "decimalAvailable": true,
                                "name": "",
                                "type": "uint256",
                                "value": "75,097,947,988,474"
                            }
                        ],
                        "signature": "balanceOf(address)"
                    },
                    "errorInfo": "",
                    "fromAddress": "0x88e6a0c2ddd26feeb64f039a2c41296fcb3f5640",
                    "gasUsed": 1339,
                    "id": 21,
                    "methodDecoded": true,
                    "operation": "STATICCALL",
                    "output": "0x0000000000000000000000000000000000000000000000000000444d1a8361fa",
                    "revert": false,
                    "revertMessage": "",
                    "selector": "0x70a08231",
                    "status": true,
                    "value": "0"
                },
                "nodeType": 0
            },
            "22": {
                "invocation": {
                    "address": "0x43506849d7c04f9138d1a2050bbf3a0c054402dd",
                    "callData": "0x00000000000000000000000088e6a0c2ddd26feeb64f039a2c41296fcb3f5640",
                    "decodedMethod": {
                        "callParams": [
                            {
                                "name": "account",
                                "type": "address",
                                "value": "0x88e6a0c2ddd26feeb64f039a2c41296fcb3f5640"
                            }
                        ],
                        "constructorArguments": "",
                        "name": "balanceOf",
                        "returnParams": [
                            {
                                "decimalAvailable": true,
                                "name": "",
                                "type": "uint256",
                                "value": "75,097,947,988,474"
                            }
                        ],
                        "signature": "balanceOf(address)"
                    },
                    "errorInfo": "",
                    "fromAddress": "0xa0b86991c6218b36c1d19d4a2e9eb0ce3606eb48",
                    "gasUsed": 553,
                    "id": 22,
                    "methodDecoded": true,
                    "operation": "DELEGATECALL",
                    "output": "0x0000000000000000000000000000000000000000000000000000444d1a8361fa",
                    "revert": false,
                    "revertMessage": "",
                    "selector": "0x70a08231",
                    "status": true,
                    "value": "0"
                },
                "nodeType": 0
            },
            "23": {
                "invocation": {
                    "address": "0xc02aaa39b223fe8d0a0e5c4f27ead9083c756cc2",
                    "callData": "0x00000000000000000000000088e6a0c2ddd26feeb64f039a2c41296fcb3f5640",
                    "decodedMethod": {
                        "callParams": [
                            {
                                "name": "",
                                "type": "address",
                                "value": "0x88e6a0c2ddd26feeb64f039a2c41296fcb3f5640"
                            }
                        ],
                        "constructorArguments": "",
                        "name": "balanceOf",
                        "returnParams": [
                            {
                                "decimalAvailable": true,
                                "name": "",
                                "type": "uint256",
                                "value": "26,670,056,885,502,332,775,618"
                            }
                        ],
                        "signature": "balanceOf(address)"
                    },
                    "errorInfo": "",
                    "fromAddress": "0x88e6a0c2ddd26feeb64f039a2c41296fcb3f5640",
                    "gasUsed": 534,
                    "id": 23,
                    "methodDecoded": true,
                    "operation": "STATICCALL",
                    "output": "0x0000000000000000000000000000000000000000000005a5c963e958d3622cc2",
                    "revert": false,
                    "revertMessage": "",
                    "selector": "0x70a08231",
                    "status": true,
                    "value": "0"
                },
                "nodeType": 0
            },
            "24": {
                "event": {
                    "contract": "0x88e6a0c2ddd26feeb64f039a2c41296fcb3f5640",
                    "decodedLog": {
                        "name": "Mint",
                        "params": [
                            {
                                "name": "owner",
                                "type": "address",
                                "value": "0xa69babef1ca67a37ffaf7a485dfff3382056e78c"
                            },
                            {
                                "name": "tickLower",
                                "type": "int24",
                                "value": "196,560"
                            },
                            {
                                "name": "tickUpper",
                                "type": "int24",
                                "value": "196,570"
                            },
                            {
                                "name": "sender",
                                "type": "address",
                                "value": "0x9a5f2e0db22ff289d0cc40ef654a19a5b012d8aa"
                            },
                            {
                                "name": "amount",
                                "type": "uint128",
                                "value": "620,993,840,292,266,086,675"
                            },
                            {
                                "name": "amount0",
                                "type": "uint256",
                                "value": "11,491,051,069,335"
                            },
                            {
                                "name": "amount1",
                                "type": "uint256",
                                "value": "1,805,712,071,400,578,446,427"
                            }
                        ],
                        "signature": "Mint(address,address,int24,int24,uint128,uint256,uint256)"
                    },
                    "id": 24,
                    "logData": "0x0000000000000000000000009a5f2e0db22ff289d0cc40ef654a19a5b012d8aa000000000000000000000000000000000000000000000021aa054f94562d911300000000000000000000000000000000000000000000000000000a7378045f97000000000000000000000000000000000000000000000061e349f9ddc245745b",
                    "logDecoded": true,
                    "operation": "EVENT",
                    "revert": false,
                    "status": true,
                    "topics": [
                        "0x7a53080ba414158be7ec69b987b5fb7d07dee101fe85488f0853ae16239d0bde",
                        "0x000000000000000000000000a69babef1ca67a37ffaf7a485dfff3382056e78c",
                        "0x000000000000000000000000000000000000000000000000000000000002ffd0",
                        "0x000000000000000000000000000000000000000000000000000000000002ffda"
                    ]
                },
                "nodeType": 1
            },
            "3": {
                "invocation": {
                    "address": "0x88e6a0c2ddd26feeb64f039a2c41296fcb3f5640",
                    "callData": "0x",
                    "decodedMethod": {
                        "callParams": [],
                        "constructorArguments": "",
                        "name": "token1",
                        "returnParams": [
                            {
                                "name": "",
                                "type": "address",
                                "value": "0xc02aaa39b223fe8d0a0e5c4f27ead9083c756cc2"
                            }
                        ],
                        "signature": "token1()"
                    },
                    "errorInfo": "",
                    "fromAddress": "0xa69babef1ca67a37ffaf7a485dfff3382056e78c",
                    "gasUsed": 308,
                    "id": 3,
                    "methodDecoded": true,
                    "operation": "STATICCALL",
                    "output": "0x000000000000000000000000c02aaa39b223fe8d0a0e5c4f27ead9083c756cc2",
                    "revert": false,
                    "revertMessage": "",
                    "selector": "0xd21220a7",
                    "status": true,
                    "value": "0"
                },
                "nodeType": 0
            },
            "4": {
                "invocation": {
                    "address": "0xa0b86991c6218b36c1d19d4a2e9eb0ce3606eb48",
                    "callData": "0x000000000000000000000000a69babef1ca67a37ffaf7a485dfff3382056e78c",
                    "decodedMethod": {
                        "callParams": [
                            {
                                "name": "account",
                                "type": "address",
                                "value": "0xa69babef1ca67a37ffaf7a485dfff3382056e78c"
                            }
                        ],
                        "constructorArguments": "",
                        "name": "balanceOf",
                        "returnParams": [
                            {
                                "decimalAvailable": true,
                                "name": "",
                                "type": "uint256",
                                "value": "11,491,051,069,336"
                            }
                        ],
                        "signature": "balanceOf(address)"
                    },
                    "errorInfo": "",
                    "fromAddress": "0xa69babef1ca67a37ffaf7a485dfff3382056e78c",
                    "gasUsed": 1339,
                    "id": 4,
                    "methodDecoded": true,
                    "operation": "STATICCALL",
                    "output": "0x00000000000000000000000000000000000000000000000000000a7378045f98",
                    "revert": false,
                    "revertMessage": "",
                    "selector": "0x70a08231",
                    "status": true,
                    "value": "0"
                },
                "nodeType": 0
            },
            "5": {
                "invocation": {
                    "address": "0x43506849d7c04f9138d1a2050bbf3a0c054402dd",
                    "callData": "0x000000000000000000000000a69babef1ca67a37ffaf7a485dfff3382056e78c",
                    "decodedMethod": {
                        "callParams": [
                            {
                                "name": "account",
                                "type": "address",
                                "value": "0xa69babef1ca67a37ffaf7a485dfff3382056e78c"
                            }
                        ],
                        "constructorArguments": "",
                        "name": "balanceOf",
                        "returnParams": [
                            {
                                "decimalAvailable": true,
                                "name": "",
                                "type": "uint256",
                                "value": "11,491,051,069,336"
                            }
                        ],
                        "signature": "balanceOf(address)"
                    },
                    "errorInfo": "",
                    "fromAddress": "0xa0b86991c6218b36c1d19d4a2e9eb0ce3606eb48",
                    "gasUsed": 553,
                    "id": 5,
                    "methodDecoded": true,
                    "operation": "DELEGATECALL",
                    "output": "0x00000000000000000000000000000000000000000000000000000a7378045f98",
                    "revert": false,
                    "revertMessage": "",
                    "selector": "0x70a08231",
                    "status": true,
                    "value": "0"
                },
                "nodeType": 0
            },
            "6": {
                "invocation": {
                    "address": "0xc02aaa39b223fe8d0a0e5c4f27ead9083c756cc2",
                    "callData": "0x000000000000000000000000a69babef1ca67a37ffaf7a485dfff3382056e78c",
                    "decodedMethod": {
                        "callParams": [
                            {
                                "name": "",
                                "type": "address",
                                "value": "0xa69babef1ca67a37ffaf7a485dfff3382056e78c"
                            }
                        ],
                        "constructorArguments": "",
                        "name": "balanceOf",
                        "returnParams": [
                            {
                                "decimalAvailable": true,
                                "name": "",
                                "type": "uint256",
                                "value": "5,845,570,828,563,704,403,524"
                            }
                        ],
                        "signature": "balanceOf(address)"
                    },
                    "errorInfo": "",
                    "fromAddress": "0xa69babef1ca67a37ffaf7a485dfff3382056e78c",
                    "gasUsed": 534,
                    "id": 6,
                    "methodDecoded": true,
                    "operation": "STATICCALL",
                    "output": "0x00000000000000000000000000000000000000000000013ce397716ac5735644",
                    "revert": false,
                    "revertMessage": "",
                    "selector": "0x70a08231",
                    "status": true,
                    "value": "0"
                },
                "nodeType": 0
            },
            "7": {
                "invocation": {
                    "address": "0x88e6a0c2ddd26feeb64f039a2c41296fcb3f5640",
                    "callData": "0x",
                    "decodedMethod": {
                        "callParams": [],
                        "constructorArguments": "",
                        "name": "fee",
                        "returnParams": [
                            {
                                "name": "",
                                "type": "uint24",
                                "value": "500"
                            }
                        ],
                        "signature": "fee()"
                    },
                    "errorInfo": "",
                    "fromAddress": "0xa69babef1ca67a37ffaf7a485dfff3382056e78c",
                    "gasUsed": 251,
                    "id": 7,
                    "methodDecoded": true,
                    "operation": "STATICCALL",
                    "output": "0x00000000000000000000000000000000000000000000000000000000000001f4",
                    "revert": false,
                    "revertMessage": "",
                    "selector": "0xddca3f43",
                    "status": true,
                    "value": "0"
                },
                "nodeType": 0
            },
            "8": {
                "invocation": {
                    "address": "0x88e6a0c2ddd26feeb64f039a2c41296fcb3f5640",
                    "callData": "0x",
                    "decodedMethod": {
                        "callParams": [],
                        "constructorArguments": "",
                        "name": "tickSpacing",
                        "returnParams": [
                            {
                                "name": "",
                                "type": "int24",
                                "value": "10"
                            }
                        ],
                        "signature": "tickSpacing()"
                    },
                    "errorInfo": "",
                    "fromAddress": "0xa69babef1ca67a37ffaf7a485dfff3382056e78c",
                    "gasUsed": 279,
                    "id": 8,
                    "methodDecoded": true,
                    "operation": "STATICCALL",
                    "output": "0x000000000000000000000000000000000000000000000000000000000000000a",
                    "revert": false,
                    "revertMessage": "",
                    "selector": "0xd0c93a7c",
                    "status": true,
                    "value": "0"
                },
                "nodeType": 0
            },
            "9": {
                "invocation": {
                    "address": "0x88e6a0c2ddd26feeb64f039a2c41296fcb3f5640",
                    "callData": "0x",
                    "decodedMethod": {
                        "callParams": [],
                        "constructorArguments": "",
                        "name": "slot0",
                        "returnParams": [
                            {
                                "name": "sqrtPriceX96",
                                "type": "uint160",
                                "value": "1,468,860,237,287,213,589,656,645,313,746,551"
                            },
                            {
                                "name": "tick",
                                "type": "int24",
                                "value": "196,563"
                            },
                            {
                                "name": "observationIndex",
                                "type": "uint16",
                                "value": "609"
                            },
                            {
                                "name": "observationCardinality",
                                "type": "uint16",
                                "value": "723"
                            },
                            {
                                "name": "observationCardinalityNext",
                                "type": "uint16",
                                "value": "723"
                            },
                            {
                                "name": "feeProtocol",
                                "type": "uint8",
                                "value": "0"
                            },
                            {
                                "name": "unlocked",
                                "type": "bool",
                                "value": true
                            }
                        ],
                        "signature": "slot0()"
                    },
                    "errorInfo": "",
                    "fromAddress": "0xa69babef1ca67a37ffaf7a485dfff3382056e78c",
                    "gasUsed": 696,
                    "id": 9,
                    "methodDecoded": true,
                    "operation": "STATICCALL",
                    "output": "0x000000000000000000000000000000000000486b9f66d58286a785c78bf3d677000000000000000000000000000000000000000000000000000000000002ffd3000000000000000000000000000000000000000000000000000000000000026100000000000000000000000000000000000000000000000000000000000002d300000000000000000000000000000000000000000000000000000000000002d300000000000000000000000000000000000000000000000000000000000000000000000000000000000000000000000000000000000000000000000000000001",
                    "revert": false,
                    "revertMessage": "",
                    "selector": "0x3850c7bd",
                    "status": true,
                    "value": "0"
                },
                "nodeType": 0
            }
        },
        "gasFlame": [
            {
                "children": [
                    {
                        "children": [
                            {
                                "children": [],
                                "depth": 0,
                                "name": "Initial Gas",
                                "value": 87520
                            },
                            {
                                "children": [
                                    {
                                        "children": [
                                            {
                                                "children": [],
                                                "depth": 2,
                                                "name": "token0",
                                                "value": 266
                                            },
                                            {
                                                "children": [],
                                                "depth": 2,
                                                "name": "token1",
                                                "value": 308
                                            },
                                            {
                                                "children": [
                                                    {
                                                        "children": [],
                                                        "depth": 3,
                                                        "name": "balanceOf",
                                                        "value": 553
                                                    }
                                                ],
                                                "depth": 2,
                                                "name": "balanceOf",
                                                "value": 1339
                                            },
                                            {
                                                "children": [],
                                                "depth": 2,
                                                "name": "balanceOf",
                                                "value": 534
                                            },
                                            {
                                                "children": [],
                                                "depth": 2,
                                                "name": "fee",
                                                "value": 251
                                            },
                                            {
                                                "children": [],
                                                "depth": 2,
                                                "name": "tickSpacing",
                                                "value": 279
                                            },
                                            {
                                                "children": [],
                                                "depth": 2,
                                                "name": "slot0",
                                                "value": 696
                                            },
                                            {
                                                "children": [
                                                    {
                                                        "children": [
                                                            {
                                                                "children": [
                                                                    {
                                                                        "children": [],
                                                                        "depth": 5,
                                                                        "name": "balanceOf",
                                                                        "value": 553
                                                                    }
                                                                ],
                                                                "depth": 4,
                                                                "name": "balanceOf",
                                                                "value": 1339
                                                            },
                                                            {
                                                                "children": [],
                                                                "depth": 4,
                                                                "name": "balanceOf",
                                                                "value": 534
                                                            },
                                                            {
                                                                "children": [
                                                                    {
                                                                        "children": [
                                                                            {
                                                                                "children": [],
                                                                                "depth": 6,
                                                                                "name": "transferFrom",
                                                                                "value": 14154
                                                                            }
                                                                        ],
                                                                        "depth": 5,
                                                                        "name": "transferFrom",
                                                                        "value": 14949
                                                                    },
                                                                    {
                                                                        "children": [],
                                                                        "depth": 5,
                                                                        "name": "transferFrom",
                                                                        "value": 9025
                                                                    }
                                                                ],
                                                                "depth": 4,
                                                                "name": "uniswapV3MintCallback",
                                                                "value": 28085
                                                            },
                                                            {
                                                                "children": [
                                                                    {
                                                                        "children": [],
                                                                        "depth": 5,
                                                                        "name": "balanceOf",
                                                                        "value": 553
                                                                    }
                                                                ],
                                                                "depth": 4,
                                                                "name": "balanceOf",
                                                                "value": 1339
                                                            },
                                                            {
                                                                "children": [],
                                                                "depth": 4,
                                                                "name": "balanceOf",
                                                                "value": 534
                                                            }
                                                        ],
                                                        "depth": 3,
                                                        "name": "mint",
                                                        "value": 95523
                                                    }
                                                ],
                                                "depth": 2,
                                                "name": "0xcc14c7f4",
                                                "value": 97977
                                            }
                                        ],
                                        "depth": 1,
                                        "name": "0x3123dd76",
                                        "value": 152856
                                    }
                                ],
                                "depth": 0,
                                "name": "Executed Gas",
                                "value": 154195
                            }
                        ],
                        "depth": -1,
                        "name": "Actual Gas Used",
                        "value": 241715
                    },
                    {
                        "children": [],
                        "depth": -1,
                        "name": "Refunded Gas",
                        "value": 0
                    }
                ],
                "depth": -2,
                "name": "Total Gas",
                "value": 241715
            }
        ],
        "isConfirmed": true,
        "mainTrace": [
            {
                "children": [
                    {
                        "children": [
                            {
                                "children": [
                                    {
                                        "children": [],
                                        "depth": 2,
                                        "id": 2,
                                        "order": 2
                                    },
                                    {
                                        "children": [],
                                        "depth": 2,
                                        "id": 3,
                                        "order": 3
                                    },
                                    {
                                        "children": [
                                            {
                                                "children": [],
                                                "depth": 3,
                                                "id": 5,
                                                "order": 5
                                            }
                                        ],
                                        "depth": 2,
                                        "id": 4,
                                        "order": 4
                                    },
                                    {
                                        "children": [],
                                        "depth": 2,
                                        "id": 6,
                                        "order": 6
                                    },
                                    {
                                        "children": [],
                                        "depth": 2,
                                        "id": 7,
                                        "order": 7
                                    },
                                    {
                                        "children": [],
                                        "depth": 2,
                                        "id": 8,
                                        "order": 8
                                    },
                                    {
                                        "children": [],
                                        "depth": 2,
                                        "id": 9,
                                        "order": 9
                                    },
                                    {
                                        "children": [
                                            {
                                                "children": [
                                                    {
                                                        "children": [
                                                            {
                                                                "children": [],
                                                                "depth": 5,
                                                                "id": 13,
                                                                "order": 13
                                                            }
                                                        ],
                                                        "depth": 4,
                                                        "id": 12,
                                                        "order": 12
                                                    },
                                                    {
                                                        "children": [],
                                                        "depth": 4,
                                                        "id": 14,
                                                        "order": 14
                                                    },
                                                    {
                                                        "children": [
                                                            {
                                                                "children": [
                                                                    {
                                                                        "children": [
                                                                            {
                                                                                "children": [],
                                                                                "depth": 7,
                                                                                "id": 18,
                                                                                "order": 18
                                                                            }
                                                                        ],
                                                                        "depth": 6,
                                                                        "id": 17,
                                                                        "order": 17
                                                                    }
                                                                ],
                                                                "depth": 5,
                                                                "id": 16,
                                                                "order": 16
                                                            },
                                                            {
                                                                "children": [
                                                                    {
                                                                        "children": [],
                                                                        "depth": 6,
                                                                        "id": 20,
                                                                        "order": 20
                                                                    }
                                                                ],
                                                                "depth": 5,
                                                                "id": 19,
                                                                "order": 19
                                                            }
                                                        ],
                                                        "depth": 4,
                                                        "id": 15,
                                                        "order": 15
                                                    },
                                                    {
                                                        "children": [
                                                            {
                                                                "children": [],
                                                                "depth": 5,
                                                                "id": 22,
                                                                "order": 22
                                                            }
                                                        ],
                                                        "depth": 4,
                                                        "id": 21,
                                                        "order": 21
                                                    },
                                                    {
                                                        "children": [],
                                                        "depth": 4,
                                                        "id": 23,
                                                        "order": 23
                                                    },
                                                    {
                                                        "children": [],
                                                        "depth": 4,
                                                        "id": 24,
                                                        "order": 24
                                                    }
                                                ],
                                                "depth": 3,
                                                "id": 11,
                                                "order": 11
                                            }
                                        ],
                                        "depth": 2,
                                        "id": 10,
                                        "order": 10
                                    }
                                ],
                                "depth": 1,
                                "id": 1,
                                "order": 1
                            }
                        ],
                        "depth": 0,
                        "id": 0,
                        "order": 0
                    }
                ],
                "depth": -1,
                "id": -1,
                "order": -1
            }
        ],
        "mainTraceNodeCount": 25,
        "parentIdMap": {
            "0": -1,
            "1": 0,
            "10": 1,
            "11": 10,
            "12": 11,
            "13": 12,
            "14": 11,
            "15": 11,
            "16": 15,
            "17": 16,
            "18": 17,
            "19": 15,
            "2": 1,
            "20": 19,
            "21": 11,
            "22": 21,
            "23": 11,
            "24": 11,
            "3": 1,
            "4": 1,
            "5": 4,
            "6": 1,
            "7": 1,
            "8": 1,
            "9": 1
        },
        "tidyTrace": [
            {
                "children": [
                    {
                        "children": [
                            {
                                "children": [
                                    {
                                        "children": [
                                            {
                                                "children": [
                                                    {
                                                        "children": [
                                                            {
                                                                "children": [
                                                                    {
                                                                        "children": [
                                                                            {
                                                                                "children": [],
                                                                                "depth": 7,
                                                                                "id": 18,
                                                                                "order": 18
                                                                            }
                                                                        ],
                                                                        "depth": 6,
                                                                        "id": 17,
                                                                        "order": 17
                                                                    }
                                                                ],
                                                                "depth": 5,
                                                                "id": 16,
                                                                "order": 16
                                                            },
                                                            {
                                                                "children": [
                                                                    {
                                                                        "children": [],
                                                                        "depth": 6,
                                                                        "id": 20,
                                                                        "order": 20
                                                                    }
                                                                ],
                                                                "depth": 5,
                                                                "id": 19,
                                                                "order": 19
                                                            }
                                                        ],
                                                        "depth": 4,
                                                        "id": 15,
                                                        "order": 15
                                                    },
                                                    {
                                                        "children": [],
                                                        "depth": 4,
                                                        "id": 24,
                                                        "order": 24
                                                    }
                                                ],
                                                "depth": 3,
                                                "id": 11,
                                                "order": 11
                                            }
                                        ],
                                        "depth": 2,
                                        "id": 10,
                                        "order": 10
                                    }
                                ],
                                "depth": 1,
                                "id": 1,
                                "order": 1
                            }
                        ],
                        "depth": 0,
                        "id": 0,
                        "order": 0
                    }
                ],
                "depth": -1,
                "id": -1,
                "order": -1
            }
        ],
        "tidyTraceNodeCount": 11
    },
    "state_change": {
        "stateChanges": [
            {
                "address": "0x88e6a0c2ddd26feeb64f039a2c41296fcb3f5640",
                "erc": "",
                "slots": [
                    {
                        "current": "0x000000000000000000000000000000000000000000000021aa054f94562d9113",
                        "key": "0x4b502e70fcfa8eb2017fd08254b849cede5341ae5f60295e79047e226a77a71b",
                        "prev": "0x0000000000000000000000000000000000000000000000000000000000000000"
                    },
                    {
                        "current": "0x0000000000000000000000000000000000004e933df75da576ad2f49faf502d1",
                        "key": "0x4b502e70fcfa8eb2017fd08254b849cede5341ae5f60295e79047e226a77a71c",
                        "prev": "0x0000000000000000000000000000000000004e92e6be13a9f1c3103dd0a427c3"
                    },
                    {
                        "current": "0x00000000000000000000000000000abf66ec6e854af3711d54938eb9bee5a7e3",
                        "key": "0x4b502e70fcfa8eb2017fd08254b849cede5341ae5f60295e79047e226a77a71d",
                        "prev": "0x00000000000000000000000000000abf5ffaf0312c7500b190dc06690fffcfe2"
                    },
                    {
                        "current": "0x010000000000000001ec2fcb31457fbe4f8861ae9400111f5f9ba5076632f1bf",
                        "key": "0x000000000000000000000000000000000000000000000000000000000000026a",
                        "prev": "0x010000000000000001ec2ef9e3f607ab685e18f9c400111e53f87dab66329873"
                    },
                    {
                        "current": "0x000000000000000000000000000000000000000000000022119360a0ee6532c3",
                        "key": "0x0000000000000000000000000000000000000000000000000000000000000004",
                        "prev": "0x000000000000000000000000000000000000000000000000678e110c9837a1b0"
                    },
                    {
                        "current": "0x00010002d302d3026202ffd3000000000000486b9f66d58286a785c78bf3d677",
                        "key": "0x0000000000000000000000000000000000000000000000000000000000000000",
                        "prev": "0x00010002d302d3026102ffd3000000000000486b9f66d58286a785c78bf3d677"
                    },
                    {
                        "current": "0x0000000000000021a8acf2f2ce6f4b920000000000000021ab5dad8e4e31426e",
                        "key": "0x8f46ae44d35ac0762a5035539b607b651e2a27d92d56a9a7846df21ab91fb50e",
                        "prev": "0xfffffffffffffffffea7a35e7841ba7f000000000000000001585df9f803b15b"
                    },
                    {
                        "current": "0xffffffffffffffde55fa9598c620fdcc0000000000000021aa056a6739df0234",
                        "key": "0x9fb8e83ba8c6decbfd4c1dda76fbd20d209f1abe70db309f1b02f4973ef3ec11",
                        "prev": "0xffffffffffffffffffffe52d1c4e8edf000000000000000000001ad2e3b17121"
                    }
                ],
                "storageVariables": []
            },
            {
                "address": "0xa0b86991c6218b36c1d19d4a2e9eb0ce3606eb48",
                "erc": "ERC-20",
                "slots": [
                    {
                        "current": "0xfffffffffffffffffffffffffffffffffffffffffffffffffe704d9b50780fa8",
                        "key": "0x3ea9d1a7bd030d7499622b24a45ccbe05f1255d0fb25f97b2801e5bbb997f6a1",
                        "prev": "0xfffffffffffffffffffffffffffffffffffffffffffffffffe70580ec87c6f3f"
                    },
                    {
                        "current": "0x0000000000000000000000000000000000000000000000000000000000000001",
                        "key": "0xf56408d23e6790fec5453738cf042a4a3ef7ec36e9ceae8978e4ffce8e903bc3",
                        "prev": "0x00000000000000000000000000000000000000000000000000000a7378045f98"
                    },
                    {
                        "current": "0x0000000000000000000000000000000000000000000000000000444d1a8361fa",
                        "key": "0x1f21a62c4538bacf2aabeca410f0fe63151869f172e03c0e00357ba26a341eff",
                        "prev": "0x000000000000000000000000000000000000000000000000000039d9a27f0263"
                    }
                ],
                "storageVariables": [
                    {
                        "name": "allowed",
                        "type": "mapping(address => mapping(address => uint256))",
                        "value": {
                            "pairs": [
                                {
                                    "key": "0xa69babef1ca67a37ffaf7a485dfff3382056e78c",
                                    "value": {
                                        "pairs": [
                                            {
                                                "key": "0x9a5f2e0db22ff289d0cc40ef654a19a5b012d8aa",
                                                "value": {
                                                    "current": "115792089237316195423570985008687907853269984665640564039457471503251910692776",
                                                    "prev": "115792089237316195423570985008687907853269984665640564039457471514742961762111",
                                                    "typeTag": 1
                                                }
                                            }
                                        ],
                                        "typeTag": 4
                                    }
                                }
                            ],
                            "typeTag": 4
                        }
                    },
                    {
                        "name": "balanceAndBlacklistStates",
                        "type": "mapping(address => uint256)",
                        "value": {
                            "pairs": [
                                {
                                    "key": "0x88e6a0c2ddd26feeb64f039a2c41296fcb3f5640",
                                    "value": {
                                        "current": "75097947988474",
                                        "prev": "63606896919139",
                                        "typeTag": 1
                                    }
                                },
                                {
                                    "key": "0xa69babef1ca67a37ffaf7a485dfff3382056e78c",
                                    "value": {
                                        "current": "1",
                                        "prev": "11491051069336",
                                        "typeTag": 1
                                    }
                                }
                            ],
                            "typeTag": 4
                        }
                    }
                ]
            },
            {
                "address": "0xa69babef1ca67a37ffaf7a485dfff3382056e78c",
                "erc": "",
                "slots": [
                    {
                        "current": "0x00000000000000000000000000000000000000000000000000000a7378045f97",
                        "key": "0x9105e1b9656a01e1f22003f0f1c63305cc74b0816679b1eccb5d7b0938396edb",
                        "prev": "0x000000000000000000000000000000000000000000000000000004e9bcd692ff"
                    },
                    {
                        "current": "0x000000000000000000000000000000000000000000000061e349f9ddc245745b",
                        "key": "0x9105e1b9656a01e1f22003f0f1c63305cc74b0816679b1eccb5d7b0938396edc",
                        "prev": "0x000000000000000000000000000000000000000000000133c1b4e65ed43cb1de"
                    },
                    {
                        "current": "0x000000000000000000000000000000000021aa054f94562d911302ffda02ffd0",
                        "key": "0x9105e1b9656a01e1f22003f0f1c63305cc74b0816679b1eccb5d7b0938396edd",
                        "prev": "0x0000000000000000000000000000000000000000000000000000000000000000"
                    }
                ],
                "storageVariables": []
            },
            {
                "address": "0xc02aaa39b223fe8d0a0e5c4f27ead9083c756cc2",
                "erc": "ERC-20",
                "slots": [
                    {
                        "current": "0x0000000000000000000000000000000000000000000005a5c963e958d3622cc2",
                        "key": "0x390f6178407c9b8e95802b8659e6df8e34c1e3d4f8d6a49e6132bbcdd937b63a",
                        "prev": "0x000000000000000000000000000000000000000000000543e619ef7b111cb867"
                    },
                    {
                        "current": "0x0000000000000000000000000000000000000000000000db004d778d032de1e9",
                        "key": "0x75245230289a9f0bf73a6c59aef6651b98b3833a62a3c0bd9ab6b0dec8ed4d8f",
                        "prev": "0x00000000000000000000000000000000000000000000013ce397716ac5735644"
                    }
                ],
                "storageVariables": [
                    {
                        "name": "balanceOf",
                        "type": "mapping(address => uint256)",
                        "value": {
                            "pairs": [
                                {
                                    "key": "0x88e6a0c2ddd26feeb64f039a2c41296fcb3f5640",
                                    "value": {
                                        "current": "26670056885502332775618",
                                        "prev": "24864344814101754329191",
                                        "typeTag": 1
                                    }
                                },
                                {
                                    "key": "0xa69babef1ca67a37ffaf7a485dfff3382056e78c",
                                    "value": {
                                        "current": "4039858757163125957097",
                                        "prev": "5845570828563704403524",
                                        "typeTag": 1
                                    }
                                }
                            ],
                            "typeTag": 4
                        }
                    }
                ]
            }
        ]
    }
}