{
    "balance_change": {
        "balanceChanges": [
            {
                "account": "0x4840f547c39a18e416a240ed64134516a41b97b3",
                "assets": [
                    {
                        "address": "0x04f2694c8fcee23e8fd0dfea1d4f5bb8c352111f",
                        "amount": "0.313632933",
                        "iconUrl": "",
                        "isERC1155": false,
                        "isERC721": false,
                        "sign": false,
                        "value": "143.3169281"
                    },
                    {
                        "address": "0x0ab87046fbb341d058f17cbc4c1133f25a20a52f",
                        "amount": "0.006895701650826697",
                        "iconUrl": "",
                        "isERC1155": false,
                        "isERC721": false,
                        "sign": true,
                        "value": "141.3646968"
                    }
                ]
            },
            {
                "account": "0x184f3fad8618a6f458c16bae63f70c426fe784b3",
                "assets": [
                    {
                        "address": "0x04f2694c8fcee23e8fd0dfea1d4f5bb8c352111f",
                        "amount": "0.313632933",
                        "iconUrl": "",
                        "isERC1155": false,
                        "isERC721": false,
                        "sign": true,
                        "value": "143.3169281"
                    }
                ]
            },
            {
                "account": "0x0ab87046fbb341d058f17cbc4c1133f25a20a52f",
                "assets": [
                    {
                        "address": "0x0ab87046fbb341d058f17cbc4c1133f25a20a52f",
                        "amount": "0.006895701650826697",
                        "iconUrl": "",
                        "isERC1155": false,
                        "isERC721": false,
                        "sign": false,
                        "value": "141.3646968"
                    }
                ]
            }
        ]
    },
    "profile": {
        "basic_info": {
            "baseFee": "67.530914071",
            "blockNumber": 13794342,
            "callData": "0x0465f0720000000000000000000000000000000000000000000000000000000012b1a8a500000000000000000000000000000000000000000000000000000000000000010000000000000000000000000000000000000000000000000000000000000002",
            "debugEnable": true,
            "errorInfo": "",
            "eventCount": 3,
            "feeRecipient": "0xc3348b43d3881151224b490e4aa39e03d2b1cdea",
            "formatValue": "0",
            "gasLimit": 102391,
            "gasPrice": "69.356260071",
            "gasUsed": 101860,
            "intTxnCount": 4,
            "internalRevert": false,
            "internalRevertMessage": "",
            "isContractCreation": false,
            "isFlashloan": false,
            "maxFee": "91.056286495",
            "nonce": 65,
            "overwritedBlockNumber": -1,
            "priorityFee": "1.825346",
            "receiver": "0x184f3fad8618a6f458c16bae63f70c426fe784b3",
            "revertMessage": "",
            "sender": "0x4840f547c39a18e416a240ed64134516a41b97b3",
            "simulationEnable": true,
            "sourceTxnHash": "0xed36cf46874c2323ecb44186d9749fb8891f79e1370630a4dffd2697366b18ba",
            "status": true,
            "timestamp": "2021-12-13T03:10:52Z",
            "transactionFee": "0.00706462865083206",
            "txnHash": "0xed36cf46874c2323ecb44186d9749fb8891f79e1370630a4dffd2697366b18ba",
            "txnIndex": 212,
            "type": 2,
            "value": "0"
        },
        "fund_flow": [
            {
                "amount": "0.313632933",
                "from": "0x4840f547c39a18e416a240ed64134516a41b97b3",
                "id": 1,
                "isERC1155": false,
                "isERC721": false,
                "isReverted": false,
                "order": 1,
                "to": "0x184f3fad8618a6f458c16bae63f70c426fe784b3",
                "token": "0x04f2694c8fcee23e8fd0dfea1d4f5bb8c352111f"
            },
            {
                "amount": "0.006895701650826697",
                "from": "0x0ab87046fbb341d058f17cbc4c1133f25a20a52f",
                "id": 2,
                "isERC1155": false,
                "isERC721": false,
                "isReverted": false,
                "order": 2,
                "to": "0x4840f547c39a18e416a240ed64134516a41b97b3",
                "token": "0x0ab87046fbb341d058f17cbc4c1133f25a20a52f"
            }
        ],
        "token_infos": [
            {
                "address": "0xc02aaa39b223fe8d0a0e5c4f27ead9083c756cc2",
                "decimals": 18
            },
            {
                "address": "0xeeeeeeeeeeeeeeeeeeeeeeeeeeeeeeeeeeeeeeee",
                "decimals": 18
            },
            {
                "address": "0x04f2694c8fcee23e8fd0dfea1d4f5bb8c352111f",
                "decimals": 9
            },
            {
                "address": "0x0ab87046fbb341d058f17cbc4c1133f25a20a52f",
                "decimals": 18
            }
        ]
    },
    "address_label": {
        "labels": [
            {
                "address": "0x0000000000000000000000000000000000000004",
                "label": "Precompiled"
            },
            {
                "address": "0xeeeeeeeeeeeeeeeeeeeeeeeeeeeeeeeeeeeeeeee",
                "label": "Ether"
            },
            {
                "address": "0x04f2694c8fcee23e8fd0dfea1d4f5bb8c352111f",
                "label": "OlympusDAO: sOHM V2"
            },
            {
                "address": "0x0ab87046fbb341d058f17cbc4c1133f25a20a52f",
                "label": "OlympusDAO: gOHM Token"
            },
            {
                "address": "0xca76543cf381ebbb277be79574059e32108e3e65",
                "label": "OlympusDAO: wsOHM"
            },
            {
                "address": "0x0000000000000000000000000000000000000001",
                "label": "Precompiled"
            },
            {
                "address": "0x0000000000000000000000000000000000000003",
                "label": "Precompiled"
            },
            {
                "address": "0x184f3fad8618a6f458c16bae63f70c426fe784b3",
                "label": "OlympusTokenMigrator"
            },
            {
                "address": "0x0000000000000000000000000000000000000002",
                "label": "Precompiled"
            }
        ]
    },
    "trace": {
        "accountLabels": null,
        "dataMap": {
            "-1": {
                "invocation": {
                    "address": "0x4840f547c39a18e416a240ed64134516a41b97b3",
                    "callData": "",
                    "decodedMethod": null,
                    "errorInfo": "",
                    "fromAddress": "",
                    "gasUsed": 0,
                    "id": -1,
                    "methodDecoded": false,
                    "operation": "",
                    "output": "",
                    "revert": false,
                    "revertMessage": "",
                    "selector": "",
                    "status": false,
                    "value": ""
                },
                "nodeType": 0
            },
            "0": {
                "invocation": {
                    "address": "0x184f3fad8618a6f458c16bae63f70c426fe784b3",
                    "callData": "0x0000000000000000000000000000000000000000000000000000000012b1a8a500000000000000000000000000000000000000000000000000000000000000010000000000000000000000000000000000000000000000000000000000000002",
                    "decodedMethod": {
                        "callParams": [
                            {
                                "name": "_amount",
                                "type": "uint256",
                                "value": "313,632,933"
                            },
                            {
                                "name": "_from",
                                "type": "uint8",
                                "value": "1"
                            },
                            {
                                "name": "_to",
                                "type": "uint8",
                                "value": "2"
                            }
                        ],
                        "constructorArguments": "",
                        "name": "migrate",
                        "returnParams": [],
                        "signature": "migrate(uint256,uint8,uint8)"
                    },
                    "errorInfo": "",
                    "fromAddress": "0x4840f547c39a18e416a240ed64134516a41b97b3",
                    "gasUsed": 101860,
                    "id": 0,
                    "methodDecoded": true,
                    "operation": "CALL",
                    "output": "",
                    "revert": false,
                    "revertMessage": "",
                    "selector": "0x0465f072",
                    "status": true,
                    "value": "0"
                },
                "nodeType": 0
            },
            "1": {
                "invocation": {
                    "address": "0xca76543cf381ebbb277be79574059e32108e3e65",
                    "callData": "0x0000000000000000000000000000000000000000000000000000000012b1a8a5",
                    "decodedMethod": {
                        "callParams": [
                            {
                                "name": "_amount",
                                "type": "uint256",
                                "value": "313,632,933"
                            }
                        ],
                        "constructorArguments": "",
                        "name": "sOHMTowOHM",
                        "returnParams": [
                            {
                                "name": "",
                                "type": "uint256",
                                "value": "6,895,701,650,826,697"
                            }
                        ],
                        "signature": "sOHMTowOHM(uint256)"
                    },
                    "errorInfo": "",
                    "fromAddress": "0x184f3fad8618a6f458c16bae63f70c426fe784b3",
                    "gasUsed": 10628,
                    "id": 1,
                    "methodDecoded": true,
                    "operation": "STATICCALL",
                    "output": "0x00000000000000000000000000000000000000000000000000187f9aa75fe5c9",
                    "revert": false,
                    "revertMessage": "",
                    "selector": "0x73f79c04",
                    "status": true,
                    "value": "0"
                },
                "nodeType": 0
            },
            "2": {
                "invocation": {
                    "address": "0x04f2694c8fcee23e8fd0dfea1d4f5bb8c352111f",
                    "callData": "0x",
                    "decodedMethod": {
                        "callParams": [],
                        "constructorArguments": "",
                        "name": "index",
                        "returnParams": [
                            {
                                "name": "",
                                "type": "uint256",
                                "value": "45,482,381,472"
                            }
                        ],
                        "signature": "index()"
                    },
                    "errorInfo": "",
                    "fromAddress": "0xca76543cf381ebbb277be79574059e32108e3e65",
                    "gasUsed": 4740,
                    "id": 2,
                    "methodDecoded": true,
                    "operation": "STATICCALL",
                    "output": "0x0000000000000000000000000000000000000000000000000000000a96f610a0",
                    "revert": false,
                    "revertMessage": "",
                    "selector": "0x2986c0e5",
                    "status": true,
                    "value": "0"
                },
                "nodeType": 0
            },
            "3": {
                "invocation": {
                    "address": "0x04f2694c8fcee23e8fd0dfea1d4f5bb8c352111f",
                    "callData": "0x0000000000000000000000004840f547c39a18e416a240ed64134516a41b97b3000000000000000000000000184f3fad8618a6f458c16bae63f70c426fe784b30000000000000000000000000000000000000000000000000000000012b1a8a5",
                    "decodedMethod": {
                        "callParams": [
                            {
                                "name": "from",
                                "type": "address",
                                "value": "0x4840f547c39a18e416a240ed64134516a41b97b3"
                            },
                            {
                                "name": "to",
                                "type": "address",
                                "value": "0x184f3fad8618a6f458c16bae63f70c426fe784b3"
                            },
                            {
                                "decimalAvailable": true,
                                "name": "value",
                                "type": "uint256",
                                "value": "313,632,933"
                            }
                        ],
                        "constructorArguments": "",
                        "name": "transferFrom",
                        "returnParams": [
                            {
                                "name": "",
                                "type": "bool",
                                "value": true
                            }
                        ],
                        "signature": "transferFrom(address,address,uint256)"
                    },
                    "errorInfo": "",
                    "fromAddress": "0x184f3fad8618a6f458c16bae63f70c426fe784b3",
                    "gasUsed": 21051,
                    "id": 3,
                    "methodDecoded": true,
                    "operation": "CALL",
                    "output": "0x0000000000000000000000000000000000000000000000000000000000000001",
                    "revert": false,
                    "revertMessage": "",
                    "selector": "0x23b872dd",
                    "status": true,
                    "value": "0"
                },
                "nodeType": 0
            },
            "4": {
                "event": {
                    "contract": "0x04f2694c8fcee23e8fd0dfea1d4f5bb8c352111f",
                    "decodedLog": {
                        "name": "Approval",
                        "params": [
                            {
                                "name": "owner",
                                "type": "address",
                                "value": "0x4840f547c39a18e416a240ed64134516a41b97b3"
                            },
                            {
                                "name": "spender",
                                "type": "address",
                                "value": "0x184f3fad8618a6f458c16bae63f70c426fe784b3"
                            },
                            {
                                "decimalAvailable": true,
                                "name": "value",
                                "type": "uint256",
                                "value": "999,999,999,686,367,067"
                            }
                        ],
                        "signature": "Approval(address,address,uint256)"
                    },
                    "id": 4,
                    "logData": "0x0000000000000000000000000000000000000000000000000de0b6b394b2575b",
                    "logDecoded": true,
                    "operation": "EVENT",
                    "revert": false,
                    "status": true,
                    "topics": [
                        "0x8c5be1e5ebec7d5bd14f71427d1e84f3dd0314c0f7b2291e5b200ac8c7c3b925",
                        "0x0000000000000000000000004840f547c39a18e416a240ed64134516a41b97b3",
                        "0x000000000000000000000000184f3fad8618a6f458c16bae63f70c426fe784b3"
                    ]
                },
                "nodeType": 1
            },
            "5": {
                "event": {
                    "contract": "0x04f2694c8fcee23e8fd0dfea1d4f5bb8c352111f",
                    "decodedLog": {
                        "name": "Transfer",
                        "params": [
                            {
                                "name": "from",
                                "type": "address",
                                "value": "0x4840f547c39a18e416a240ed64134516a41b97b3"
                            },
                            {
                                "name": "to",
                                "type": "address",
                                "value": "0x184f3fad8618a6f458c16bae63f70c426fe784b3"
                            },
                            {
                                "decimalAvailable": true,
                                "name": "value",
                                "type": "uint256",
                                "value": "313,632,933"
                            }
                        ],
                        "signature": "Transfer(address,address,uint256)"
                    },
                    "id": 5,
                    "logData": "0x0000000000000000000000000000000000000000000000000000000012b1a8a5",
                    "logDecoded": true,
                    "operation": "EVENT",
                    "revert": false,
                    "status": true,
                    "topics": [
                        "0xddf252ad1be2c89b69c2b068fc378daa952ba7f163c4a11628f55a4df523b3ef",
                        "0x0000000000000000000000004840f547c39a18e416a240ed64134516a41b97b3",
                        "0x000000000000000000000000184f3fad8618a6f458c16bae63f70c426fe784b3"
                    ]
                },
                "nodeType": 1
            },
            "6": {
                "invocation": {
                    "address": "0x0ab87046fbb341d058f17cbc4c1133f25a20a52f",
                    "callData": "0x0000000000000000000000004840f547c39a18e416a240ed64134516a41b97b300000000000000000000000000000000000000000000000000187f9aa75fe5c9",
                    "decodedMethod": {
                        "callParams": [
                            {
                                "name": "_to",
                                "type": "address",
                                "value": "0x4840f547c39a18e416a240ed64134516a41b97b3"
                            },
                            {
                                "name": "_amount",
                                "type": "uint256",
                                "value": "6,895,701,650,826,697"
                            }
                        ],
                        "constructorArguments": "",
                        "name": "mint",
                        "returnParams": [],
                        "signature": "mint(address,uint256)"
                    },
                    "errorInfo": "",
                    "fromAddress": "0x184f3fad8618a6f458c16bae63f70c426fe784b3",
                    "gasUsed": 36564,
                    "id": 6,
                    "methodDecoded": true,
                    "operation": "CALL",
                    "output": "",
                    "revert": false,
                    "revertMessage": "",
                    "selector": "0x40c10f19",
                    "status": true,
                    "value": "0"
                },
                "nodeType": 0
            },
            "7": {
                "event": {
                    "contract": "0x0ab87046fbb341d058f17cbc4c1133f25a20a52f",
                    "decodedLog": {
                        "name": "Transfer",
                        "params": [
                            {
                                "name": "from",
                                "type": "address",
                                "value": "0x0ab87046fbb341d058f17cbc4c1133f25a20a52f"
                            },
                            {
                                "name": "to",
                                "type": "address",
                                "value": "0x4840f547c39a18e416a240ed64134516a41b97b3"
                            },
                            {
                                "decimalAvailable": true,
                                "name": "value",
                                "type": "uint256",
                                "value": "6,895,701,650,826,697"
                            }
                        ],
                        "signature": "Transfer(address,address,uint256)"
                    },
                    "id": 7,
                    "logData": "0x00000000000000000000000000000000000000000000000000187f9aa75fe5c9",
                    "logDecoded": true,
                    "operation": "EVENT",
                    "revert": false,
                    "status": true,
                    "topics": [
                        "0xddf252ad1be2c89b69c2b068fc378daa952ba7f163c4a11628f55a4df523b3ef",
                        "0x0000000000000000000000000ab87046fbb341d058f17cbc4c1133f25a20a52f",
                        "0x0000000000000000000000004840f547c39a18e416a240ed64134516a41b97b3"
                    ]
                },
                "nodeType": 1
            }
        },
        "gasFlame": [
            {
                "children": [
                    {
                        "children": [
                            {
                                "children": [],
                                "depth": 0,
                                "name": "Initial Gas",
                                "value": 21520
                            },
                            {
                                "children": [
                                    {
                                        "children": [
                                            {
                                                "children": [],
                                                "depth": 2,
                                                "name": "index",
                                                "value": 4740
                                            }
                                        ],
                                        "depth": 1,
                                        "name": "sOHMTowOHM",
                                        "value": 10628
                                    },
                                    {
                                        "children": [],
                                        "depth": 1,
                                        "name": "transferFrom",
                                        "value": 21051
                                    },
                                    {
                                        "children": [],
                                        "depth": 1,
                                        "name": "mint",
                                        "value": 36564
                                    }
                                ],
                                "depth": 0,
                                "name": "Executed Gas",
                                "value": 80340
                            }
                        ],
                        "depth": -1,
                        "name": "Actual Gas Used",
                        "value": 101860
                    },
                    {
                        "children": [],
                        "depth": -1,
                        "name": "Refunded Gas",
                        "value": 0
                    }
                ],
                "depth": -2,
                "name": "Total Gas",
                "value": 101860
            }
        ],
        "isConfirmed": true,
        "mainTrace": [
            {
                "children": [
                    {
                        "children": [
                            {
                                "children": [
                                    {
                                        "children": [],
                                        "depth": 2,
                                        "id": 2,
                                        "order": 2
                                    }
                                ],
                                "depth": 1,
                                "id": 1,
                                "order": 1
                            },
                            {
                                "children": [
                                    {
                                        "children": [],
                                        "depth": 2,
                                        "id": 4,
                                        "order": 4
                                    },
                                    {
                                        "children": [],
                                        "depth": 2,
                                        "id": 5,
                                        "order": 5
                                    }
                                ],
                                "depth": 1,
                                "id": 3,
                                "order": 3
                            },
                            {
                                "children": [
                                    {
                                        "children": [],
                                        "depth": 2,
                                        "id": 7,
                                        "order": 7
                                    }
                                ],
                                "depth": 1,
                                "id": 6,
                                "order": 6
                            }
                        ],
                        "depth": 0,
                        "id": 0,
                        "order": 0
                    }
                ],
                "depth": -1,
                "id": -1,
                "order": -1
            }
        ],
        "mainTraceNodeCount": 8,
        "parentIdMap": {
            "0": -1,
            "1": 0,
            "2": 1,
            "3": 0,
            "4": 3,
            "5": 3,
            "6": 0,
            "7": 6
        },
        "tidyTrace": [
            {
                "children": [
                    {
                        "children": [
                            {
                                "children": [
                                    {
                                        "children": [],
                                        "depth": 2,
                                        "id": 4,
                                        "order": 4
                                    },
                                    {
                                        "children": [],
                                        "depth": 2,
                                        "id": 5,
                                        "order": 5
                                    }
                                ],
                                "depth": 1,
                                "id": 3,
                                "order": 3
                            },
                            {
                                "children": [
                                    {
                                        "children": [],
                                        "depth": 2,
                                        "id": 7,
                                        "order": 7
                                    }
                                ],
                                "depth": 1,
                                "id": 6,
                                "order": 6
                            }
                        ],
                        "depth": 0,
                        "id": 0,
                        "order": 0
                    }
                ],
                "depth": -1,
                "id": -1,
                "order": -1
            }
        ],
        "tidyTraceNodeCount": 6
    },
    "state_change": {
        "stateChanges": [
            {
                "address": "0x04f2694c8fcee23e8fd0dfea1d4f5bb8c352111f",
                "erc": "ERC-20",
                "slots": [
                    {
                        "current": "0x0000000000000000000000000000000000000000000000000de0b6b394b2575b",
                        "key": "0x148a7cd83b28d08c51dfe75abdfa210fdeeb984b2a2fa0dcce5203c2b65013ab",
                        "prev": "0x0000000000000000000000000000000000000000000000000de0b6b3a7640000"
                    },
                    {
                        "current": "0x000000000000009565f189530a030845f80ef3bd0406dacc9fa4774f54540b02",
                        "key": "0xfb71b2f08d5589ff2c307c6a1b68a3b20eaf7f6a5fa7efc5b7551e9d7e5dc897",
                        "prev": "0x0000001aef9e91bf42cb5ecdca546aea027c6f9e04e8a0df199453452b2994ce"
                    },
                    {
                        "current": "0x023ad188adadf9ef3684827cfe397e9989d5405bcfcf1e28b9d6392f195633cf",
                        "key": "0xef8d9410c502e593f3cdb3375571179f51a57b80c311ebb6392f74f5bfad4d89",
                        "prev": "0x023ad16dbe0f68c559aaad023de81bf57f67c47aceed58163fe65d394280aa03"
                    }
                ],
                "storageVariables": [
                    {
                        "name": "_gonBalances",
                        "type": "mapping(address => uint256)",
                        "value": {
                            "pairs": [
                                {
                                    "key": "0x184f3fad8618a6f458c16bae63f70c426fe784b3",
                                    "value": {
                                        "current": "1008548976753501188082704277143395783590415409966234497946161984770944676815",
                                        "prev": "1008548250560019434573877005106265006110218548101394916991852273439013382659",
                                        "typeTag": 1
                                    }
                                },
                                {
                                    "key": "0x4840f547c39a18e416a240ed64134516a41b97b3",
                                    "value": {
                                        "current": "937787805959886220556112155843904005764347050569979581958914",
                                        "prev": "726193482691296633231923351333592352705768845345301360281311513253070",
                                        "typeTag": 1
                                    }
                                }
                            ],
                            "typeTag": 4
                        }
                    },
                    {
                        "name": "_allowedValue",
                        "type": "mapping(address => mapping(address => uint256))",
                        "value": {
                            "pairs": [
                                {
                                    "key": "0x4840f547c39a18e416a240ed64134516a41b97b3",
                                    "value": {
                                        "pairs": [
                                            {
                                                "key": "0x184f3fad8618a6f458c16bae63f70c426fe784b3",
                                                "value": {
                                                    "current": "999999999686367067",
                                                    "prev": "1000000000000000000",
                                                    "typeTag": 1
                                                }
                                            }
                                        ],
                                        "typeTag": 4
                                    }
                                }
                            ],
                            "typeTag": 4
                        }
                    }
                ]
            },
            {
                "address": "0x0ab87046fbb341d058f17cbc4c1133f25a20a52f",
                "erc": "ERC-20",
                "slots": [
                    {
                        "current": "0x00000000000000000000000000000000000000000000000000187f9aa75fe5c9",
                        "key": "0x08c94b363dde9eef34e1e4027f4fd1021fe00c74d01f8935f65b08cdb2a617ee",
                        "prev": "0x0000000000000000000000000000000000000000000000000000000000000000"
                    },
                    {
                        "current": "0x000000000000000000000000000000000000000000000293d26d5b2ed8c3655c",
                        "key": "0x0000000000000000000000000000000000000000000000000000000000000002",
                        "prev": "0x000000000000000000000000000000000000000000000293d254db9431637f93"
                    }
                ],
                "storageVariables": [
                    {
                        "name": "_balances",
                        "type": "mapping(address => uint256)",
                        "value": {
                            "pairs": [
                                {
                                    "key": "0x4840f547c39a18e416a240ed64134516a41b97b3",
                                    "value": {
                                        "current": "6895701650826697",
                                        "prev": "0",
                                        "typeTag": 1
                                    }
                                }
                            ],
                            "typeTag": 4
                        }
                    },
                    {
                        "name": "_totalSupply",
                        "type": "uint256",
                        "value": {
                            "current": "12171567220351784150364",
                            "prev": "12171560324650133323667",
                            "typeTag": 1
                        }
                    }
                ]
            }
        ]
    }
}