{
    "balance_change": {
        "balanceChanges": [
            {
                "account": "0x0000000000000000000000000000000000000000",
                "assets": [
                    {
                        "address": "0xe64966e62b7e8de5260983d4ae89ad75cc452a91",
                        "amount": "1",
                        "iconUrl": "",
                        "isERC1155": false,
                        "isERC721": true,
                        "sign": false,
                        "tokenID": "4342",
                        "value": ""
                    }
                ]
            },
            {
                "account": "0xd95602a28c74e97a84ec5a5fd8d042b21d0bb461",
                "assets": [
                    {
                        "address": "0xe64966e62b7e8de5260983d4ae89ad75cc452a91",
                        "amount": "1",
                        "iconUrl": "",
                        "isERC1155": false,
                        "isERC721": true,
                        "sign": true,
                        "tokenID": "4342",
                        "value": ""
                    }
                ]
            }
        ]
    },
    "profile": {
        "basic_info": {
            "baseFee": "291.285495843",
            "blockNumber": 13968817,
            "callData": "0xf3f5b6e20000000000000000000000000000000000000000000000000000000000000001",
            "debugEnable": true,
            "errorInfo": "",
            "eventCount": 1,
            "feeRecipient": "0x829bd824b016326a401d083b33d092293333a830",
            "formatValue": "0",
            "gasLimit": 192816,
            "gasPrice": "293.785495843",
            "gasUsed": 167666,
            "intTxnCount": 0,
            "internalRevert": false,
            "internalRevertMessage": "",
            "isContractCreation": false,
            "isFlashloan": false,
            "maxFee": "525.607773468",
            "nonce": 1,
            "overwritedBlockNumber": -1,
            "priorityFee": "2.5",
            "receiver": "0xe64966e62b7e8de5260983d4ae89ad75cc452a91",
            "revertMessage": "",
            "sender": "0xd95602a28c74e97a84ec5a5fd8d042b21d0bb461",
            "simulationEnable": true,
            "sourceTxnHash": "0xed23bcfd55ddc324bb14a6e099c385d2310302d47c8996d966a02b2ddbb96878",
            "status": true,
            "timestamp": "2022-01-09T03:08:24Z",
            "transactionFee": "0.049257838946012438",
            "txnHash": "0xed23bcfd55ddc324bb14a6e099c385d2310302d47c8996d966a02b2ddbb96878",
            "txnIndex": 14,
            "type": 2,
            "value": "0"
        },
        "fund_flow": [
            {
                "amount": "1",
                "from": "0x0000000000000000000000000000000000000000",
                "id": 1,
                "isERC1155": false,
                "isERC721": true,
                "isReverted": false,
                "order": 1,
                "to": "0xd95602a28c74e97a84ec5a5fd8d042b21d0bb461",
                "token": "0xe64966e62b7e8de5260983d4ae89ad75cc452a91",
                "tokenID": "4342"
            }
        ],
        "token_infos": [
            {
                "address": "0xc02aaa39b223fe8d0a0e5c4f27ead9083c756cc2",
                "decimals": 18
            },
            {
                "address": "0xeeeeeeeeeeeeeeeeeeeeeeeeeeeeeeeeeeeeeeee",
                "decimals": 18
            }
        ]
    },
    "address_label": {
        "labels": [
            {
                "address": "0xeeeeeeeeeeeeeeeeeeeeeeeeeeeeeeeeeeeeeeee",
                "label": "Ether"
            },
            {
                "address": "0xe64966e62b7e8de5260983d4ae89ad75cc452a91",
                "label": "Block Flock: BLOCKFLOCK Token"
            },
            {
                "address": "0x0000000000000000000000000000000000000001",
                "label": "Precompiled"
            },
            {
                "address": "0x0000000000000000000000000000000000000002",
                "label": "Precompiled"
            },
            {
                "address": "0x0000000000000000000000000000000000000003",
                "label": "Precompiled"
            },
            {
                "address": "0x0000000000000000000000000000000000000004",
                "label": "Precompiled"
            }
        ]
    },
    "trace": {
        "accountLabels": null,
        "dataMap": {
            "-1": {
                "invocation": {
                    "address": "0xd95602a28c74e97a84ec5a5fd8d042b21d0bb461",
                    "callData": "",
                    "decodedMethod": null,
                    "errorInfo": "",
                    "fromAddress": "",
                    "gasUsed": 0,
                    "id": -1,
                    "methodDecoded": false,
                    "operation": "",
                    "output": "",
                    "revert": false,
                    "revertMessage": "",
                    "selector": "",
                    "status": false,
                    "value": ""
                },
                "nodeType": 0
            },
            "0": {
                "invocation": {
                    "address": "0xe64966e62b7e8de5260983d4ae89ad75cc452a91",
                    "callData": "0x0000000000000000000000000000000000000000000000000000000000000001",
                    "decodedMethod": {
                        "callParams": [
                            {
                                "name": "numberOfTokens",
                                "type": "uint256",
                                "value": "1"
                            }
                        ],
                        "constructorArguments": "",
                        "name": "mintBirds",
                        "returnParams": [],
                        "signature": "mintBirds(uint256)"
                    },
                    "errorInfo": "",
                    "fromAddress": "0xd95602a28c74e97a84ec5a5fd8d042b21d0bb461",
                    "gasUsed": 167666,
                    "id": 0,
                    "methodDecoded": true,
                    "operation": "CALL",
                    "output": "",
                    "revert": false,
                    "revertMessage": "",
                    "selector": "0xf3f5b6e2",
                    "status": true,
                    "value": "0"
                },
                "nodeType": 0
            },
            "1": {
                "event": {
                    "contract": "0xe64966e62b7e8de5260983d4ae89ad75cc452a91",
                    "decodedLog": {
                        "name": "Transfer",
                        "params": [
                            {
                                "name": "from",
                                "type": "address",
                                "value": "0x0000000000000000000000000000000000000000"
                            },
                            {
                                "name": "to",
                                "type": "address",
                                "value": "0xd95602a28c74e97a84ec5a5fd8d042b21d0bb461"
                            },
                            {
                                "decimalAvailable": true,
                                "name": "tokenId",
                                "type": "uint256",
                                "value": "4,342"
                            }
                        ],
                        "signature": "Transfer(address,address,uint256)"
                    },
                    "id": 1,
                    "logData": "0x",
                    "logDecoded": true,
                    "operation": "EVENT",
                    "revert": false,
                    "status": true,
                    "topics": [
                        "0xddf252ad1be2c89b69c2b068fc378daa952ba7f163c4a11628f55a4df523b3ef",
                        "0x0000000000000000000000000000000000000000000000000000000000000000",
                        "0x000000000000000000000000d95602a28c74e97a84ec5a5fd8d042b21d0bb461",
                        "0x00000000000000000000000000000000000000000000000000000000000010f6"
                    ]
                },
                "nodeType": 1
            }
        },
        "gasFlame": [
            {
                "children": [
                    {
                        "children": [
                            {
                                "children": [],
                                "depth": 0,
                                "name": "Initial Gas",
                                "value": 21204
                            },
                            {
                                "children": [],
                                "depth": 0,
                                "name": "Executed Gas",
                                "value": 146462
                            }
                        ],
                        "depth": -1,
                        "name": "Actual Gas Used",
                        "value": 167666
                    },
                    {
                        "children": [],
                        "depth": -1,
                        "name": "Refunded Gas",
                        "value": 0
                    }
                ],
                "depth": -2,
                "name": "Total Gas",
                "value": 167666
            }
        ],
        "isConfirmed": true,
        "mainTrace": [
            {
                "children": [
                    {
                        "children": [
                            {
                                "children": [],
                                "depth": 1,
                                "id": 1,
                                "order": 1
                            }
                        ],
                        "depth": 0,
                        "id": 0,
                        "order": 0
                    }
                ],
                "depth": -1,
                "id": -1,
                "order": -1
            }
        ],
        "mainTraceNodeCount": 2,
        "parentIdMap": {
            "0": -1,
            "1": 0
        },
        "tidyTrace": [
            {
                "children": [
                    {
                        "children": [
                            {
                                "children": [],
                                "depth": 1,
                                "id": 1,
                                "order": 1
                            }
                        ],
                        "depth": 0,
                        "id": 0,
                        "order": 0
                    }
                ],
                "depth": -1,
                "id": -1,
                "order": -1
            }
        ],
        "tidyTraceNodeCount": 2
    },
    "state_change": {
        "stateChanges": [
            {
                "address": "0xe64966e62b7e8de5260983d4ae89ad75cc452a91",
                "erc": "ERC-721",
                "slots": [
                    {
                        "current": "0x0000000000000000000000000000000000000000000000000000000000000dd4",
                        "key": "0x815786631ea1e8308da5de33170ff4f8ee8b0dfec52e0bba41c15326d099ab17",
                        "prev": "0x0000000000000000000000000000000000000000000000000000000000000000"
                    },
                    {
                        "current": "0x00000000000000000000000000000000000000000000000000000000000010f6",
                        "key": "0xf3f7a9fe364faab93b216da50a3214154f22a0a2b415b23a84c8169e8b637cb7",
                        "prev": "0x0000000000000000000000000000000000000000000000000000000000000000"
                    },
                    {
                        "current": "0x00000000000000000000000000000000000000000000000000000000000010f6",
                        "key": "0x7e585d62b57e750e71d997096cad65297c234fe0a06adaf0eb03146fce634931",
                        "prev": "0x0000000000000000000000000000000000000000000000000000000000000000"
                    },
                    {
                        "current": "0x000000000000000000000000d95602a28c74e97a84ec5a5fd8d042b21d0bb461",
                        "key": "0x8b035ae31ee10dbbc805e254f287caad09e8d3a290533b362195264ae7f7432a",
                        "prev": "0x0000000000000000000000000000000000000000000000000000000000000000"
                    },
                    {
                        "current": "0x000000000000000000000000056b09a110de0387038603850f60038303820381",
                        "key": "0x8d1108e10bcb7c27dddfc02ed9d693a074039d026cf4ea4240b40f7d581ac83a",
                        "prev": "0x000000000000000000000e04056b09a110de0387038603850f60038303820381"
                    },
                    {
                        "current": "0x0f2f0a55022e022d0c2510b3081a0593039905650df60f33087f0e0403b40d53",
                        "key": "0x8d1108e10bcb7c27dddfc02ed9d693a074039d026cf4ea4240b40f7d581ac824",
                        "prev": "0x0f2f0a55022e022d0c2510b3081a0593039905650df60f33087f10f603b40d53"
                    },
                    {
                        "current": "0x000000000000000000000000000000000000000000000000000000000000038a",
                        "key": "0x000000000000000000000000000000000000000000000000000000000000000f",
                        "prev": "0x000000000000000000000000000000000000000000000000000000000000038b"
                    },
                    {
                        "current": "0x0000000000000000000000000000000000000000000000000000000000000dd5",
                        "key": "0x0000000000000000000000000000000000000000000000000000000000000008",
                        "prev": "0x0000000000000000000000000000000000000000000000000000000000000dd4"
                    },
                    {
                        "current": "0x0000000000000000000000000000000000000000000000000000000000000001",
                        "key": "0xc373cac210a036acaa6954eca583e5b47c64aa35a0db2b5b80128062b3c61cd6",
                        "prev": "0x0000000000000000000000000000000000000000000000000000000000000000"
                    }
                ],
                "storageVariables": [
                    {
                        "name": "_allTokens",
                        "type": "uint256[]",
                        "value": {
                            "elemType": "uint256",
                            "elems": [
                                {
                                    "index": 3540,
                                    "value": {
                                        "current": "4342",
                                        "prev": "0",
                                        "typeTag": 1
                                    }
                                }
                            ],
                            "typeTag": 2
                        }
                    },
                    {
                        "name": "_ownedTokens",
                        "type": "mapping(address => mapping(uint256 => uint256))",
                        "value": {
                            "pairs": [
                                {
                                    "key": "0xd95602a28c74e97a84ec5a5fd8d042b21d0bb461",
                                    "value": {
                                        "pairs": [
                                            {
                                                "key": "0",
                                                "value": {
                                                    "current": "4342",
                                                    "prev": "0",
                                                    "typeTag": 1
                                                }
                                            }
                                        ],
                                        "typeTag": 4
                                    }
                                }
                            ],
                            "typeTag": 4
                        }
                    },
                    {
                        "name": "_owners",
                        "type": "mapping(uint256 => address)",
                        "value": {
                            "pairs": [
                                {
                                    "key": "4342",
                                    "value": {
                                        "current": "0xd95602a28c74e97a84ec5a5fd8d042b21d0bb461",
                                        "prev": "0x0000000000000000000000000000000000000000",
                                        "typeTag": 1
                                    }
                                }
                            ],
                            "typeTag": 4
                        }
                    },
                    {
                        "name": "_balances",
                        "type": "mapping(address => uint256)",
                        "value": {
                            "pairs": [
                                {
                                    "key": "0xd95602a28c74e97a84ec5a5fd8d042b21d0bb461",
                                    "value": {
                                        "current": "1",
                                        "prev": "0",
                                        "typeTag": 1
                                    }
                                }
                            ],
                            "typeTag": 4
                        }
                    },
                    {
                        "name": "_allTokensIndex",
                        "type": "mapping(uint256 => uint256)",
                        "value": {
                            "pairs": [
                                {
                                    "key": "4342",
                                    "value": {
                                        "current": "3540",
                                        "prev": "0",
                                        "typeTag": 1
                                    }
                                }
                            ],
                            "typeTag": 4
                        }
                    },
                    {
                        "name": "birds",
                        "type": "uint16[]",
                        "value": {
                            "elemType": "uint16",
                            "elems": [
                                {
                                    "index": 543,
                                    "value": {
                                        "current": "3887",
                                        "prev": "3887",
                                        "typeTag": 1
                                    }
                                },
                                {
                                    "index": 544,
                                    "value": {
                                        "current": "3411",
                                        "prev": "3411",
                                        "typeTag": 1
                                    }
                                },
                                {
                                    "index": 545,
                                    "value": {
                                        "current": "948",
                                        "prev": "948",
                                        "typeTag": 1
                                    }
                                },
                                {
                                    "index": 546,
                                    "value": {
                                        "current": "3588",
                                        "prev": "4342",
                                        "typeTag": 1
                                    }
                                },
                                {
                                    "index": 547,
                                    "value": {
                                        "current": "2175",
                                        "prev": "2175",
                                        "typeTag": 1
                                    }
                                },
                                {
                                    "index": 548,
                                    "value": {
                                        "current": "3891",
                                        "prev": "3891",
                                        "typeTag": 1
                                    }
                                },
                                {
                                    "index": 549,
                                    "value": {
                                        "current": "3574",
                                        "prev": "3574",
                                        "typeTag": 1
                                    }
                                },
                                {
                                    "index": 550,
                                    "value": {
                                        "current": "1381",
                                        "prev": "1381",
                                        "typeTag": 1
                                    }
                                },
                                {
                                    "index": 551,
                                    "value": {
                                        "current": "921",
                                        "prev": "921",
                                        "typeTag": 1
                                    }
                                },
                                {
                                    "index": 552,
                                    "value": {
                                        "current": "1427",
                                        "prev": "1427",
                                        "typeTag": 1
                                    }
                                },
                                {
                                    "index": 553,
                                    "value": {
                                        "current": "2074",
                                        "prev": "2074",
                                        "typeTag": 1
                                    }
                                },
                                {
                                    "index": 554,
                                    "value": {
                                        "current": "4275",
                                        "prev": "4275",
                                        "typeTag": 1
                                    }
                                },
                                {
                                    "index": 555,
                                    "value": {
                                        "current": "3109",
                                        "prev": "3109",
                                        "typeTag": 1
                                    }
                                },
                                {
                                    "index": 556,
                                    "value": {
                                        "current": "557",
                                        "prev": "557",
                                        "typeTag": 1
                                    }
                                },
                                {
                                    "index": 557,
                                    "value": {
                                        "current": "558",
                                        "prev": "558",
                                        "typeTag": 1
                                    }
                                },
                                {
                                    "index": 558,
                                    "value": {
                                        "current": "2645",
                                        "prev": "2645",
                                        "typeTag": 1
                                    }
                                },
                                {
                                    "index": 895,
                                    "value": {
                                        "current": "0",
                                        "prev": "0",
                                        "typeTag": 1
                                    }
                                },
                                {
                                    "index": 896,
                                    "value": {
                                        "current": "897",
                                        "prev": "897",
                                        "typeTag": 1
                                    }
                                },
                                {
                                    "index": 897,
                                    "value": {
                                        "current": "898",
                                        "prev": "898",
                                        "typeTag": 1
                                    }
                                },
                                {
                                    "index": 898,
                                    "value": {
                                        "current": "899",
                                        "prev": "899",
                                        "typeTag": 1
                                    }
                                },
                                {
                                    "index": 899,
                                    "value": {
                                        "current": "3936",
                                        "prev": "3936",
                                        "typeTag": 1
                                    }
                                },
                                {
                                    "index": 900,
                                    "value": {
                                        "current": "901",
                                        "prev": "901",
                                        "typeTag": 1
                                    }
                                },
                                {
                                    "index": 901,
                                    "value": {
                                        "current": "902",
                                        "prev": "902",
                                        "typeTag": 1
                                    }
                                },
                                {
                                    "index": 902,
                                    "value": {
                                        "current": "903",
                                        "prev": "903",
                                        "typeTag": 1
                                    }
                                },
                                {
                                    "index": 903,
                                    "value": {
                                        "current": "4318",
                                        "prev": "4318",
                                        "typeTag": 1
                                    }
                                },
                                {
                                    "index": 904,
                                    "value": {
                                        "current": "2465",
                                        "prev": "2465",
                                        "typeTag": 1
                                    }
                                },
                                {
                                    "index": 905,
                                    "value": {
                                        "current": "1387",
                                        "prev": "1387",
                                        "typeTag": 1
                                    }
                                }
                            ],
                            "typeTag": 2
                        }
                    }
                ]
            }
        ]
    }
}