{
    "balance_change": {
        "balanceChanges": [
            {
                "account": "0x1a2a1c938ce3ec39b6d47113c7955baa9dd454f2",
                "assets": [
                    {
                        "address": "0xc02aaa39b223fe8d0a0e5c4f27ead9083c756cc2",
                        "amount": "0.074225",
                        "iconUrl": "https://assets.blocksec.com/icon/f1cb2d02c471d545bbc7722daf3277fd852d98e63d118771af7047bd8256c516.png",
                        "isERC1155": false,
                        "isERC721": false,
                        "sign": false,
                        "value": "320.6108568"
                    }
                ]
            },
            {
                "account": "0x1167f0d48d7c4ea250a65b3a9abdbb0c383ed591",
                "assets": [
                    {
                        "address": "0xeeeeeeeeeeeeeeeeeeeeeeeeeeeeeeeeeeeeeeee",
                        "amount": "0.074225",
                        "iconUrl": "https://assets.blocksec.com/image/1663669189317-3.png",
                        "isERC1155": false,
                        "isERC721": false,
                        "sign": true,
                        "value": "320.6108568"
                    }
                ]
            },
            {
                "account": "0xc02aaa39b223fe8d0a0e5c4f27ead9083c756cc2",
                "assets": [
                    {
                        "address": "0xeeeeeeeeeeeeeeeeeeeeeeeeeeeeeeeeeeeeeeee",
                        "amount": "0.074225",
                        "iconUrl": "https://assets.blocksec.com/image/1663669189317-3.png",
                        "isERC1155": false,
                        "isERC721": false,
                        "sign": false,
                        "value": "320.6108568"
                    },
                    {
                        "address": "0xc02aaa39b223fe8d0a0e5c4f27ead9083c756cc2",
                        "amount": "0.074225",
                        "iconUrl": "https://assets.blocksec.com/icon/f1cb2d02c471d545bbc7722daf3277fd852d98e63d118771af7047bd8256c516.png",
                        "isERC1155": false,
                        "isERC721": false,
                        "sign": true,
                        "value": "320.6108568"
                    }
                ]
            }
        ]
    },
    "profile": {
        "basic_info": {
            "baseFee": "55.041105249",
            "blockNumber": 13770412,
            "callData": "0x993e1c4200000000000000000000000000000000000000000000000000000000000ec50d0000000000000000000000001167f0d48d7c4ea250a65b3a9abdbb0c383ed591000000000000000000000000c02aaa39b223fe8d0a0e5c4f27ead9083c756cc20000000000000000000000000000000000000000000000000107b33e8674100000000000000000000000000000000000000000000000000000000000000000a000000000000000000000000000000000000000000000000000000000000001ce01afa8b1776368f666219090e545ce9d8ffecc29d922a94ab8f11e5627729ffa6d5b79b057f97a8a40ada1907c74af11479545155957caeabc1b1a5f94a70b643d1c015a9bdeb783fb9d01a6b6be2ccee392f0e7896cc48975f4b49e709e8ac180fc0912e61f3da48feb6f556dca3507d828d86f45d01333cc3f46537aafcb54b3fbc01c01012ec1fdfd7b9b937e27cb7044d2f92652deb8cdaa01ee7759d7dc597cb729c756087805f8aed2353d53878842dee464fffd7ee5f0470ae1fecdad48517927871b01385415db02e40fed1a33edb2d4f31fc489f9a1ab73e15aa559ea171cb665c2320f7fb08d081a8357e3dd22cbb864b21ab1f1bc7c855523f4481351d6f3dafff41b011a8910b0a6fc3ae6b27949775718272a6da4860a12d478da2898cfe45cda40873f414efab4164316181859446279f823a0dd48d1ec0a4e3008444429f54a3ad11b0162c54c8bcec954b1235f21319aa1051e1ab07e3562321dd31ef926fe8d3b2367329fff9bde5b01c3220a0bf03d57b4bc6fc05acafa3d229657891d6e5c77005e1c01847be0a6c8ccd6524d6ebfae40d06585014eae5e30d9fbfad255292c45ed2a3f5f6c2c85681c545366afc777775540c75d0a32cb3098a7991a05477d6811c8251c000000000000000000000000000000000000",
            "debugEnable": true,
            "errorInfo": "",
            "eventCount": 2,
            "feeRecipient": "0x829bd824b016326a401d083b33d092293333a830",
            "formatValue": "0",
            "gasLimit": 270787,
            "gasPrice": "56.541105249",
            "gasUsed": 217927,
            "intTxnCount": 27,
            "internalRevert": false,
            "internalRevertMessage": "",
            "isContractCreation": false,
            "isFlashloan": false,
            "maxFee": "72.74791272",
            "nonce": 4,
            "overwritedBlockNumber": -1,
            "priorityFee": "1.5",
            "receiver": "0x1a2a1c938ce3ec39b6d47113c7955baa9dd454f2",
            "revertMessage": "",
            "sender": "0xd2893d93cdbdc6d555e3b5f5a7eb7b06a9664387",
            "simulationEnable": true,
            "sourceTxnHash": "0xed47586a26f64c840c46f3d3c9e9817309c2dccdff8f2b6708e2f396fb20f8ef",
            "status": true,
            "timestamp": "2021-12-09T09:59:11Z",
            "transactionFee": "0.012321833443598823",
            "txnHash": "0xed47586a26f64c840c46f3d3c9e9817309c2dccdff8f2b6708e2f396fb20f8ef",
            "txnIndex": 125,
            "type": 2,
            "value": "0"
        },
        "fund_flow": [
            {
                "amount": "0.074225",
                "from": "0xc02aaa39b223fe8d0a0e5c4f27ead9083c756cc2",
                "id": 1,
                "isERC1155": false,
                "isERC721": false,
                "isReverted": false,
                "order": 1,
                "to": "0x1a2a1c938ce3ec39b6d47113c7955baa9dd454f2",
                "token": "0xeeeeeeeeeeeeeeeeeeeeeeeeeeeeeeeeeeeeeeee"
            },
            {
                "amount": "0.074225",
                "from": "0x1a2a1c938ce3ec39b6d47113c7955baa9dd454f2",
                "id": 2,
                "isERC1155": false,
                "isERC721": false,
                "isReverted": false,
                "order": 2,
                "to": "0xc02aaa39b223fe8d0a0e5c4f27ead9083c756cc2",
                "token": "0xc02aaa39b223fe8d0a0e5c4f27ead9083c756cc2"
            },
            {
                "amount": "0.074225",
                "from": "0x1a2a1c938ce3ec39b6d47113c7955baa9dd454f2",
                "id": 3,
                "isERC1155": false,
                "isERC721": false,
                "isReverted": false,
                "order": 3,
                "to": "0x1167f0d48d7c4ea250a65b3a9abdbb0c383ed591",
                "token": "0xeeeeeeeeeeeeeeeeeeeeeeeeeeeeeeeeeeeeeeee"
            }
        ],
        "token_infos": [
            {
                "address": "0xc02aaa39b223fe8d0a0e5c4f27ead9083c756cc2",
                "decimals": 18
            },
            {
                "address": "0xeeeeeeeeeeeeeeeeeeeeeeeeeeeeeeeeeeeeeeee",
                "decimals": 18
            }
        ]
    },
    "address_label": {
        "labels": [
            {
                "address": "0x42b19dca30fd612b1757682c074497847f2b57e0",
                "label": "MainchainValidator"
            },
            {
                "address": "0x0000000000000000000000000000000000000001",
                "label": "Precompiled"
            },
            {
                "address": "0x0000000000000000000000000000000000000002",
                "label": "Precompiled"
            },
            {
                "address": "0x0000000000000000000000000000000000000004",
                "label": "Precompiled"
            },
            {
                "address": "0xeeeeeeeeeeeeeeeeeeeeeeeeeeeeeeeeeeeeeeee",
                "label": "Ether"
            },
            {
                "address": "0xc02aaa39b223fe8d0a0e5c4f27ead9083c756cc2",
                "label": "Wrapped Ether (WETH)"
            },
            {
                "address": "0x33e71e649abdc09f650ad44139674828a2075ad2",
                "label": "Registry"
            },
            {
                "address": "0x1a2a1c938ce3ec39b6d47113c7955baa9dd454f2",
                "label": "Axie Infinity: Ronin Bridge"
            },
            {
                "address": "0x8407dc57739bcda7aa53ca6f12f82f9d51c2f21e",
                "label": "MainchainGatewayManager"
            },
            {
                "address": "0x0000000000000000000000000000000000000003",
                "label": "Precompiled"
            }
        ]
    },
    "trace": {
        "accountLabels": null,
        "dataMap": {
            "-1": {
                "invocation": {
                    "address": "0xd2893d93cdbdc6d555e3b5f5a7eb7b06a9664387",
                    "callData": "",
                    "decodedMethod": null,
                    "errorInfo": "",
                    "fromAddress": "",
                    "gasUsed": 0,
                    "id": -1,
                    "methodDecoded": false,
                    "operation": "",
                    "output": "",
                    "revert": false,
                    "revertMessage": "",
                    "selector": "",
                    "status": false,
                    "value": ""
                },
                "nodeType": 0
            },
            "0": {
                "invocation": {
                    "address": "0x1a2a1c938ce3ec39b6d47113c7955baa9dd454f2",
                    "callData": "0x00000000000000000000000000000000000000000000000000000000000ec50d0000000000000000000000001167f0d48d7c4ea250a65b3a9abdbb0c383ed591000000000000000000000000c02aaa39b223fe8d0a0e5c4f27ead9083c756cc20000000000000000000000000000000000000000000000000107b33e8674100000000000000000000000000000000000000000000000000000000000000000a000000000000000000000000000000000000000000000000000000000000001ce01afa8b1776368f666219090e545ce9d8ffecc29d922a94ab8f11e5627729ffa6d5b79b057f97a8a40ada1907c74af11479545155957caeabc1b1a5f94a70b643d1c015a9bdeb783fb9d01a6b6be2ccee392f0e7896cc48975f4b49e709e8ac180fc0912e61f3da48feb6f556dca3507d828d86f45d01333cc3f46537aafcb54b3fbc01c01012ec1fdfd7b9b937e27cb7044d2f92652deb8cdaa01ee7759d7dc597cb729c756087805f8aed2353d53878842dee464fffd7ee5f0470ae1fecdad48517927871b01385415db02e40fed1a33edb2d4f31fc489f9a1ab73e15aa559ea171cb665c2320f7fb08d081a8357e3dd22cbb864b21ab1f1bc7c855523f4481351d6f3dafff41b011a8910b0a6fc3ae6b27949775718272a6da4860a12d478da2898cfe45cda40873f414efab4164316181859446279f823a0dd48d1ec0a4e3008444429f54a3ad11b0162c54c8bcec954b1235f21319aa1051e1ab07e3562321dd31ef926fe8d3b2367329fff9bde5b01c3220a0bf03d57b4bc6fc05acafa3d229657891d6e5c77005e1c01847be0a6c8ccd6524d6ebfae40d06585014eae5e30d9fbfad255292c45ed2a3f5f6c2c85681c545366afc777775540c75d0a32cb3098a7991a05477d6811c8251c000000000000000000000000000000000000",
                    "decodedMethod": {
                        "callParams": [
                            {
                                "name": "_withdrawalId",
                                "type": "uint256",
                                "value": "967,949"
                            },
                            {
                                "name": "_user",
                                "type": "address",
                                "value": "0x1167f0d48d7c4ea250a65b3a9abdbb0c383ed591"
                            },
                            {
                                "name": "_token",
                                "type": "address",
                                "value": "0xc02aaa39b223fe8d0a0e5c4f27ead9083c756cc2"
                            },
                            {
                                "name": "_amount",
                                "type": "uint256",
                                "value": "74,225,000,000,000,000"
                            },
                            {
                                "name": "_signatures",
                                "type": "bytes",
                                "value": "0x01afa8b1776368f666219090e545ce9d8ffecc29d922a94ab8f11e5627729ffa6d5b79b057f97a8a40ada1907c74af11479545155957caeabc1b1a5f94a70b643d1c015a9bdeb783fb9d01a6b6be2ccee392f0e7896cc48975f4b49e709e8ac180fc0912e61f3da48feb6f556dca3507d828d86f45d01333cc3f46537aafcb54b3fbc01c01012ec1fdfd7b9b937e27cb7044d2f92652deb8cdaa01ee7759d7dc597cb729c756087805f8aed2353d53878842dee464fffd7ee5f0470ae1fecdad48517927871b01385415db02e40fed1a33edb2d4f31fc489f9a1ab73e15aa559ea171cb665c2320f7fb08d081a8357e3dd22cbb864b21ab1f1bc7c855523f4481351d6f3dafff41b011a8910b0a6fc3ae6b27949775718272a6da4860a12d478da2898cfe45cda40873f414efab4164316181859446279f823a0dd48d1ec0a4e3008444429f54a3ad11b0162c54c8bcec954b1235f21319aa1051e1ab07e3562321dd31ef926fe8d3b2367329fff9bde5b01c3220a0bf03d57b4bc6fc05acafa3d229657891d6e5c77005e1c01847be0a6c8ccd6524d6ebfae40d06585014eae5e30d9fbfad255292c45ed2a3f5f6c2c85681c545366afc777775540c75d0a32cb3098a7991a05477d6811c8251c"
                            }
                        ],
                        "constructorArguments": "",
                        "name": "withdrawERC20For",
                        "returnParams": [],
                        "signature": "withdrawERC20For(uint256,address,address,uint256,bytes)"
                    },
                    "errorInfo": "",
                    "fromAddress": "0xd2893d93cdbdc6d555e3b5f5a7eb7b06a9664387",
                    "gasUsed": 217927,
                    "id": 0,
                    "methodDecoded": true,
                    "operation": "CALL",
                    "output": "",
                    "revert": false,
                    "revertMessage": "",
                    "selector": "0x993e1c42",
                    "status": true,
                    "value": "0"
                },
                "nodeType": 0
            },
            "1": {
                "invocation": {
                    "address": "0x8407dc57739bcda7aa53ca6f12f82f9d51c2f21e",
                    "callData": "0x00000000000000000000000000000000000000000000000000000000000ec50d0000000000000000000000001167f0d48d7c4ea250a65b3a9abdbb0c383ed591000000000000000000000000c02aaa39b223fe8d0a0e5c4f27ead9083c756cc20000000000000000000000000000000000000000000000000107b33e8674100000000000000000000000000000000000000000000000000000000000000000a000000000000000000000000000000000000000000000000000000000000001ce01afa8b1776368f666219090e545ce9d8ffecc29d922a94ab8f11e5627729ffa6d5b79b057f97a8a40ada1907c74af11479545155957caeabc1b1a5f94a70b643d1c015a9bdeb783fb9d01a6b6be2ccee392f0e7896cc48975f4b49e709e8ac180fc0912e61f3da48feb6f556dca3507d828d86f45d01333cc3f46537aafcb54b3fbc01c01012ec1fdfd7b9b937e27cb7044d2f92652deb8cdaa01ee7759d7dc597cb729c756087805f8aed2353d53878842dee464fffd7ee5f0470ae1fecdad48517927871b01385415db02e40fed1a33edb2d4f31fc489f9a1ab73e15aa559ea171cb665c2320f7fb08d081a8357e3dd22cbb864b21ab1f1bc7c855523f4481351d6f3dafff41b011a8910b0a6fc3ae6b27949775718272a6da4860a12d478da2898cfe45cda40873f414efab4164316181859446279f823a0dd48d1ec0a4e3008444429f54a3ad11b0162c54c8bcec954b1235f21319aa1051e1ab07e3562321dd31ef926fe8d3b2367329fff9bde5b01c3220a0bf03d57b4bc6fc05acafa3d229657891d6e5c77005e1c01847be0a6c8ccd6524d6ebfae40d06585014eae5e30d9fbfad255292c45ed2a3f5f6c2c85681c545366afc777775540c75d0a32cb3098a7991a05477d6811c8251c000000000000000000000000000000000000",
                    "decodedMethod": {
                        "callParams": [
                            {
                                "name": "_withdrawalId",
                                "type": "uint256",
                                "value": "967,949"
                            },
                            {
                                "name": "_user",
                                "type": "address",
                                "value": "0x1167f0d48d7c4ea250a65b3a9abdbb0c383ed591"
                            },
                            {
                                "name": "_token",
                                "type": "address",
                                "value": "0xc02aaa39b223fe8d0a0e5c4f27ead9083c756cc2"
                            },
                            {
                                "name": "_amount",
                                "type": "uint256",
                                "value": "74,225,000,000,000,000"
                            },
                            {
                                "name": "_signatures",
                                "type": "bytes",
                                "value": "0x01afa8b1776368f666219090e545ce9d8ffecc29d922a94ab8f11e5627729ffa6d5b79b057f97a8a40ada1907c74af11479545155957caeabc1b1a5f94a70b643d1c015a9bdeb783fb9d01a6b6be2ccee392f0e7896cc48975f4b49e709e8ac180fc0912e61f3da48feb6f556dca3507d828d86f45d01333cc3f46537aafcb54b3fbc01c01012ec1fdfd7b9b937e27cb7044d2f92652deb8cdaa01ee7759d7dc597cb729c756087805f8aed2353d53878842dee464fffd7ee5f0470ae1fecdad48517927871b01385415db02e40fed1a33edb2d4f31fc489f9a1ab73e15aa559ea171cb665c2320f7fb08d081a8357e3dd22cbb864b21ab1f1bc7c855523f4481351d6f3dafff41b011a8910b0a6fc3ae6b27949775718272a6da4860a12d478da2898cfe45cda40873f414efab4164316181859446279f823a0dd48d1ec0a4e3008444429f54a3ad11b0162c54c8bcec954b1235f21319aa1051e1ab07e3562321dd31ef926fe8d3b2367329fff9bde5b01c3220a0bf03d57b4bc6fc05acafa3d229657891d6e5c77005e1c01847be0a6c8ccd6524d6ebfae40d06585014eae5e30d9fbfad255292c45ed2a3f5f6c2c85681c545366afc777775540c75d0a32cb3098a7991a05477d6811c8251c"
                            }
                        ],
                        "constructorArguments": "",
                        "name": "withdrawERC20For",
                        "returnParams": [],
                        "signature": "withdrawERC20For(uint256,address,address,uint256,bytes)"
                    },
                    "errorInfo": "",
                    "fromAddress": "0x1a2a1c938ce3ec39b6d47113c7955baa9dd454f2",
                    "gasUsed": 182831,
                    "id": 1,
                    "methodDecoded": true,
                    "operation": "DELEGATECALL",
                    "output": "",
                    "revert": false,
                    "revertMessage": "",
                    "selector": "0x993e1c42",
                    "status": true,
                    "value": "0"
                },
                "nodeType": 0
            },
            "10": {
                "invocation": {
                    "address": "0x42b19dca30fd612b1757682c074497847f2b57e0",
                    "callData": "0x00000000000000000000000070bb1fb41c8c42f6ddd53a708e2b82209495e455",
                    "decodedMethod": {
                        "callParams": [
                            {
                                "name": "_addr",
                                "type": "address",
                                "value": "0x70bb1fb41c8c42f6ddd53a708e2b82209495e455"
                            }
                        ],
                        "constructorArguments": "",
                        "name": "isValidator",
                        "returnParams": [
                            {
                                "name": "",
                                "type": "bool",
                                "value": true
                            }
                        ],
                        "signature": "isValidator(address)"
                    },
                    "errorInfo": "",
                    "fromAddress": "0x1a2a1c938ce3ec39b6d47113c7955baa9dd454f2",
                    "gasUsed": 2545,
                    "id": 10,
                    "methodDecoded": true,
                    "operation": "STATICCALL",
                    "output": "0x0000000000000000000000000000000000000000000000000000000000000001",
                    "revert": false,
                    "revertMessage": "",
                    "selector": "0xfacd743b",
                    "status": true,
                    "value": "0"
                },
                "nodeType": 0
            },
            "11": {
                "invocation": {
                    "address": "0x0000000000000000000000000000000000000001",
                    "callData": "0xb3e13476f495cddad2171402d2d79b866ae70e1e5fcf23c2859d1a01000000000000000000000000000000000000000000000000000000000000001b385415db02e40fed1a33edb2d4f31fc489f9a1ab73e15aa559ea171cb665c2320f7fb08d081a8357e3dd22cbb864b21ab1f1bc7c855523f4481351d6f3dafff4",
                    "decodedMethod": {
                        "callParams": [
                            {
                                "name": "hash",
                                "type": "bytes32",
                                "value": "0xc7303639b3e13476f495cddad2171402d2d79b866ae70e1e5fcf23c2859d1a01"
                            },
                            {
                                "name": "v",
                                "type": "uint256",
                                "value": "27"
                            },
                            {
                                "name": "r",
                                "type": "bytes32",
                                "value": "0x385415db02e40fed1a33edb2d4f31fc489f9a1ab73e15aa559ea171cb665c232"
                            },
                            {
                                "name": "s",
                                "type": "bytes32",
                                "value": "0x0f7fb08d081a8357e3dd22cbb864b21ab1f1bc7c855523f4481351d6f3dafff4"
                            }
                        ],
                        "constructorArguments": "",
                        "name": "ecrecover",
                        "returnParams": [
                            {
                                "name": "",
                                "type": "address",
                                "value": "0x9d5d175c7d7dfdc7038420eb2725d4601a41b751"
                            }
                        ],
                        "signature": "ecrecover(bytes32,uint256,bytes32,bytes32)"
                    },
                    "errorInfo": "",
                    "fromAddress": "0x1a2a1c938ce3ec39b6d47113c7955baa9dd454f2",
                    "gasUsed": 3000,
                    "id": 11,
                    "methodDecoded": true,
                    "operation": "STATICCALL",
                    "output": "0x0000000000000000000000009d5d175c7d7dfdc7038420eb2725d4601a41b751",
                    "revert": false,
                    "revertMessage": "",
                    "selector": "0xc7303639",
                    "status": true,
                    "value": "0"
                },
                "nodeType": 0
            },
            "12": {
                "invocation": {
                    "address": "0x42b19dca30fd612b1757682c074497847f2b57e0",
                    "callData": "0x0000000000000000000000009d5d175c7d7dfdc7038420eb2725d4601a41b751",
                    "decodedMethod": {
                        "callParams": [
                            {
                                "name": "_addr",
                                "type": "address",
                                "value": "0x9d5d175c7d7dfdc7038420eb2725d4601a41b751"
                            }
                        ],
                        "constructorArguments": "",
                        "name": "isValidator",
                        "returnParams": [
                            {
                                "name": "",
                                "type": "bool",
                                "value": true
                            }
                        ],
                        "signature": "isValidator(address)"
                    },
                    "errorInfo": "",
                    "fromAddress": "0x1a2a1c938ce3ec39b6d47113c7955baa9dd454f2",
                    "gasUsed": 2545,
                    "id": 12,
                    "methodDecoded": true,
                    "operation": "STATICCALL",
                    "output": "0x0000000000000000000000000000000000000000000000000000000000000001",
                    "revert": false,
                    "revertMessage": "",
                    "selector": "0xfacd743b",
                    "status": true,
                    "value": "0"
                },
                "nodeType": 0
            },
            "13": {
                "invocation": {
                    "address": "0x0000000000000000000000000000000000000001",
                    "callData": "0xb3e13476f495cddad2171402d2d79b866ae70e1e5fcf23c2859d1a01000000000000000000000000000000000000000000000000000000000000001b1a8910b0a6fc3ae6b27949775718272a6da4860a12d478da2898cfe45cda40873f414efab4164316181859446279f823a0dd48d1ec0a4e3008444429f54a3ad1",
                    "decodedMethod": {
                        "callParams": [
                            {
                                "name": "hash",
                                "type": "bytes32",
                                "value": "0xc7303639b3e13476f495cddad2171402d2d79b866ae70e1e5fcf23c2859d1a01"
                            },
                            {
                                "name": "v",
                                "type": "uint256",
                                "value": "27"
                            },
                            {
                                "name": "r",
                                "type": "bytes32",
                                "value": "0x1a8910b0a6fc3ae6b27949775718272a6da4860a12d478da2898cfe45cda4087"
                            },
                            {
                                "name": "s",
                                "type": "bytes32",
                                "value": "0x3f414efab4164316181859446279f823a0dd48d1ec0a4e3008444429f54a3ad1"
                            }
                        ],
                        "constructorArguments": "",
                        "name": "ecrecover",
                        "returnParams": [
                            {
                                "name": "",
                                "type": "address",
                                "value": "0xe70cbf18114822c0e32c6b35d2478f02a8ac78a9"
                            }
                        ],
                        "signature": "ecrecover(bytes32,uint256,bytes32,bytes32)"
                    },
                    "errorInfo": "",
                    "fromAddress": "0x1a2a1c938ce3ec39b6d47113c7955baa9dd454f2",
                    "gasUsed": 3000,
                    "id": 13,
                    "methodDecoded": true,
                    "operation": "STATICCALL",
                    "output": "0x000000000000000000000000e70cbf18114822c0e32c6b35d2478f02a8ac78a9",
                    "revert": false,
                    "revertMessage": "",
                    "selector": "0xc7303639",
                    "status": true,
                    "value": "0"
                },
                "nodeType": 0
            },
            "14": {
                "invocation": {
                    "address": "0x42b19dca30fd612b1757682c074497847f2b57e0",
                    "callData": "0x000000000000000000000000e70cbf18114822c0e32c6b35d2478f02a8ac78a9",
                    "decodedMethod": {
                        "callParams": [
                            {
                                "name": "_addr",
                                "type": "address",
                                "value": "0xe70cbf18114822c0e32c6b35d2478f02a8ac78a9"
                            }
                        ],
                        "constructorArguments": "",
                        "name": "isValidator",
                        "returnParams": [
                            {
                                "name": "",
                                "type": "bool",
                                "value": true
                            }
                        ],
                        "signature": "isValidator(address)"
                    },
                    "errorInfo": "",
                    "fromAddress": "0x1a2a1c938ce3ec39b6d47113c7955baa9dd454f2",
                    "gasUsed": 2545,
                    "id": 14,
                    "methodDecoded": true,
                    "operation": "STATICCALL",
                    "output": "0x0000000000000000000000000000000000000000000000000000000000000001",
                    "revert": false,
                    "revertMessage": "",
                    "selector": "0xfacd743b",
                    "status": true,
                    "value": "0"
                },
                "nodeType": 0
            },
            "15": {
                "invocation": {
                    "address": "0x0000000000000000000000000000000000000001",
                    "callData": "0xb3e13476f495cddad2171402d2d79b866ae70e1e5fcf23c2859d1a01000000000000000000000000000000000000000000000000000000000000001c62c54c8bcec954b1235f21319aa1051e1ab07e3562321dd31ef926fe8d3b2367329fff9bde5b01c3220a0bf03d57b4bc6fc05acafa3d229657891d6e5c77005e",
                    "decodedMethod": {
                        "callParams": [
                            {
                                "name": "hash",
                                "type": "bytes32",
                                "value": "0xc7303639b3e13476f495cddad2171402d2d79b866ae70e1e5fcf23c2859d1a01"
                            },
                            {
                                "name": "v",
                                "type": "uint256",
                                "value": "28"
                            },
                            {
                                "name": "r",
                                "type": "bytes32",
                                "value": "0x62c54c8bcec954b1235f21319aa1051e1ab07e3562321dd31ef926fe8d3b2367"
                            },
                            {
                                "name": "s",
                                "type": "bytes32",
                                "value": "0x329fff9bde5b01c3220a0bf03d57b4bc6fc05acafa3d229657891d6e5c77005e"
                            }
                        ],
                        "constructorArguments": "",
                        "name": "ecrecover",
                        "returnParams": [
                            {
                                "name": "",
                                "type": "address",
                                "value": "0xee11d2016e9f2fae606b2f12986811f4abbe6215"
                            }
                        ],
                        "signature": "ecrecover(bytes32,uint256,bytes32,bytes32)"
                    },
                    "errorInfo": "",
                    "fromAddress": "0x1a2a1c938ce3ec39b6d47113c7955baa9dd454f2",
                    "gasUsed": 3000,
                    "id": 15,
                    "methodDecoded": true,
                    "operation": "STATICCALL",
                    "output": "0x000000000000000000000000ee11d2016e9f2fae606b2f12986811f4abbe6215",
                    "revert": false,
                    "revertMessage": "",
                    "selector": "0xc7303639",
                    "status": true,
                    "value": "0"
                },
                "nodeType": 0
            },
            "16": {
                "invocation": {
                    "address": "0x42b19dca30fd612b1757682c074497847f2b57e0",
                    "callData": "0x000000000000000000000000ee11d2016e9f2fae606b2f12986811f4abbe6215",
                    "decodedMethod": {
                        "callParams": [
                            {
                                "name": "_addr",
                                "type": "address",
                                "value": "0xee11d2016e9f2fae606b2f12986811f4abbe6215"
                            }
                        ],
                        "constructorArguments": "",
                        "name": "isValidator",
                        "returnParams": [
                            {
                                "name": "",
                                "type": "bool",
                                "value": true
                            }
                        ],
                        "signature": "isValidator(address)"
                    },
                    "errorInfo": "",
                    "fromAddress": "0x1a2a1c938ce3ec39b6d47113c7955baa9dd454f2",
                    "gasUsed": 2545,
                    "id": 16,
                    "methodDecoded": true,
                    "operation": "STATICCALL",
                    "output": "0x0000000000000000000000000000000000000000000000000000000000000001",
                    "revert": false,
                    "revertMessage": "",
                    "selector": "0xfacd743b",
                    "status": true,
                    "value": "0"
                },
                "nodeType": 0
            },
            "17": {
                "invocation": {
                    "address": "0x0000000000000000000000000000000000000001",
                    "callData": "0xb3e13476f495cddad2171402d2d79b866ae70e1e5fcf23c2859d1a01000000000000000000000000000000000000000000000000000000000000001c847be0a6c8ccd6524d6ebfae40d06585014eae5e30d9fbfad255292c45ed2a3f5f6c2c85681c545366afc777775540c75d0a32cb3098a7991a05477d6811c825",
                    "decodedMethod": {
                        "callParams": [
                            {
                                "name": "hash",
                                "type": "bytes32",
                                "value": "0xc7303639b3e13476f495cddad2171402d2d79b866ae70e1e5fcf23c2859d1a01"
                            },
                            {
                                "name": "v",
                                "type": "uint256",
                                "value": "28"
                            },
                            {
                                "name": "r",
                                "type": "bytes32",
                                "value": "0x847be0a6c8ccd6524d6ebfae40d06585014eae5e30d9fbfad255292c45ed2a3f"
                            },
                            {
                                "name": "s",
                                "type": "bytes32",
                                "value": "0x5f6c2c85681c545366afc777775540c75d0a32cb3098a7991a05477d6811c825"
                            }
                        ],
                        "constructorArguments": "",
                        "name": "ecrecover",
                        "returnParams": [
                            {
                                "name": "",
                                "type": "address",
                                "value": "0xf224beff587362a88d859e899d0d80c080e1e812"
                            }
                        ],
                        "signature": "ecrecover(bytes32,uint256,bytes32,bytes32)"
                    },
                    "errorInfo": "",
                    "fromAddress": "0x1a2a1c938ce3ec39b6d47113c7955baa9dd454f2",
                    "gasUsed": 3000,
                    "id": 17,
                    "methodDecoded": true,
                    "operation": "STATICCALL",
                    "output": "0x000000000000000000000000f224beff587362a88d859e899d0d80c080e1e812",
                    "revert": false,
                    "revertMessage": "",
                    "selector": "0xc7303639",
                    "status": true,
                    "value": "0"
                },
                "nodeType": 0
            },
            "18": {
                "invocation": {
                    "address": "0x42b19dca30fd612b1757682c074497847f2b57e0",
                    "callData": "0x000000000000000000000000f224beff587362a88d859e899d0d80c080e1e812",
                    "decodedMethod": {
                        "callParams": [
                            {
                                "name": "_addr",
                                "type": "address",
                                "value": "0xf224beff587362a88d859e899d0d80c080e1e812"
                            }
                        ],
                        "constructorArguments": "",
                        "name": "isValidator",
                        "returnParams": [
                            {
                                "name": "",
                                "type": "bool",
                                "value": true
                            }
                        ],
                        "signature": "isValidator(address)"
                    },
                    "errorInfo": "",
                    "fromAddress": "0x1a2a1c938ce3ec39b6d47113c7955baa9dd454f2",
                    "gasUsed": 2545,
                    "id": 18,
                    "methodDecoded": true,
                    "operation": "STATICCALL",
                    "output": "0x0000000000000000000000000000000000000000000000000000000000000001",
                    "revert": false,
                    "revertMessage": "",
                    "selector": "0xfacd743b",
                    "status": true,
                    "value": "0"
                },
                "nodeType": 0
            },
            "19": {
                "invocation": {
                    "address": "0x42b19dca30fd612b1757682c074497847f2b57e0",
                    "callData": "0x0000000000000000000000000000000000000000000000000000000000000007",
                    "decodedMethod": {
                        "callParams": [
                            {
                                "name": "_voteCount",
                                "type": "uint256",
                                "value": "7"
                            }
                        ],
                        "constructorArguments": "",
                        "name": "checkThreshold",
                        "returnParams": [
                            {
                                "name": "",
                                "type": "bool",
                                "value": true
                            }
                        ],
                        "signature": "checkThreshold(uint256)"
                    },
                    "errorInfo": "",
                    "fromAddress": "0x1a2a1c938ce3ec39b6d47113c7955baa9dd454f2",
                    "gasUsed": 6872,
                    "id": 19,
                    "methodDecoded": true,
                    "operation": "STATICCALL",
                    "output": "0x0000000000000000000000000000000000000000000000000000000000000001",
                    "revert": false,
                    "revertMessage": "",
                    "selector": "0xdafae408",
                    "status": true,
                    "value": "0"
                },
                "nodeType": 0
            },
            "2": {
                "invocation": {
                    "address": "0x33e71e649abdc09f650ad44139674828a2075ad2",
                    "callData": "0x000000000000000000000000c02aaa39b223fe8d0a0e5c4f27ead9083c756cc200000000000000000000000000000000000000000000000000000000000000140000000000000000000000000000000000000000000000000000000000000001",
                    "decodedMethod": {
                        "callParams": [
                            {
                                "name": "_token",
                                "type": "address",
                                "value": "0xc02aaa39b223fe8d0a0e5c4f27ead9083c756cc2"
                            },
                            {
                                "name": "_standard",
                                "type": "uint32",
                                "value": "20"
                            },
                            {
                                "name": "_isMainchain",
                                "type": "bool",
                                "value": true
                            }
                        ],
                        "constructorArguments": "",
                        "name": "isTokenMapped",
                        "returnParams": [
                            {
                                "name": "",
                                "type": "bool",
                                "value": true
                            }
                        ],
                        "signature": "isTokenMapped(address,uint32,bool)"
                    },
                    "errorInfo": "",
                    "fromAddress": "0x1a2a1c938ce3ec39b6d47113c7955baa9dd454f2",
                    "gasUsed": 5215,
                    "id": 2,
                    "methodDecoded": true,
                    "operation": "STATICCALL",
                    "output": "0x0000000000000000000000000000000000000000000000000000000000000001",
                    "revert": false,
                    "revertMessage": "",
                    "selector": "0x3579e67a",
                    "status": true,
                    "value": "0"
                },
                "nodeType": 0
            },
            "20": {
                "invocation": {
                    "address": "0x33e71e649abdc09f650ad44139674828a2075ad2",
                    "callData": "0x",
                    "decodedMethod": {
                        "callParams": [],
                        "constructorArguments": "",
                        "name": "WETH_TOKEN",
                        "returnParams": [
                            {
                                "name": "",
                                "type": "string",
                                "value": "WETH_TOKEN"
                            }
                        ],
                        "signature": "WETH_TOKEN()"
                    },
                    "errorInfo": "",
                    "fromAddress": "0x1a2a1c938ce3ec39b6d47113c7955baa9dd454f2",
                    "gasUsed": 668,
                    "id": 20,
                    "methodDecoded": true,
                    "operation": "STATICCALL",
                    "output": "0x0000000000000000000000000000000000000000000000000000000000000020000000000000000000000000000000000000000000000000000000000000000a574554485f544f4b454e00000000000000000000000000000000000000000000",
                    "revert": false,
                    "revertMessage": "",
                    "selector": "0x37d277d4",
                    "status": true,
                    "value": "0"
                },
                "nodeType": 0
            },
            "21": {
                "invocation": {
                    "address": "0x33e71e649abdc09f650ad44139674828a2075ad2",
                    "callData": "0x0000000000000000000000000000000000000000000000000000000000000020000000000000000000000000000000000000000000000000000000000000000a574554485f544f4b454e00000000000000000000000000000000000000000000",
                    "decodedMethod": {
                        "callParams": [
                            {
                                "name": "_name",
                                "type": "string",
                                "value": "WETH_TOKEN"
                            }
                        ],
                        "constructorArguments": "",
                        "name": "getContract",
                        "returnParams": [
                            {
                                "name": "_address",
                                "type": "address",
                                "value": "0xc02aaa39b223fe8d0a0e5c4f27ead9083c756cc2"
                            }
                        ],
                        "signature": "getContract(string)"
                    },
                    "errorInfo": "",
                    "fromAddress": "0x1a2a1c938ce3ec39b6d47113c7955baa9dd454f2",
                    "gasUsed": 3205,
                    "id": 21,
                    "methodDecoded": true,
                    "operation": "STATICCALL",
                    "output": "0x000000000000000000000000c02aaa39b223fe8d0a0e5c4f27ead9083c756cc2",
                    "revert": false,
                    "revertMessage": "",
                    "selector": "0x35817773",
                    "status": true,
                    "value": "0"
                },
                "nodeType": 0
            },
            "22": {
                "invocation": {
                    "address": "0x33e71e649abdc09f650ad44139674828a2075ad2",
                    "callData": "0x",
                    "decodedMethod": {
                        "callParams": [],
                        "constructorArguments": "",
                        "name": "WETH_TOKEN",
                        "returnParams": [
                            {
                                "name": "",
                                "type": "string",
                                "value": "WETH_TOKEN"
                            }
                        ],
                        "signature": "WETH_TOKEN()"
                    },
                    "errorInfo": "",
                    "fromAddress": "0x1a2a1c938ce3ec39b6d47113c7955baa9dd454f2",
                    "gasUsed": 668,
                    "id": 22,
                    "methodDecoded": true,
                    "operation": "STATICCALL",
                    "output": "0x0000000000000000000000000000000000000000000000000000000000000020000000000000000000000000000000000000000000000000000000000000000a574554485f544f4b454e00000000000000000000000000000000000000000000",
                    "revert": false,
                    "revertMessage": "",
                    "selector": "0x37d277d4",
                    "status": true,
                    "value": "0"
                },
                "nodeType": 0
            },
            "23": {
                "invocation": {
                    "address": "0x33e71e649abdc09f650ad44139674828a2075ad2",
                    "callData": "0x0000000000000000000000000000000000000000000000000000000000000020000000000000000000000000000000000000000000000000000000000000000a574554485f544f4b454e00000000000000000000000000000000000000000000",
                    "decodedMethod": {
                        "callParams": [
                            {
                                "name": "_name",
                                "type": "string",
                                "value": "WETH_TOKEN"
                            }
                        ],
                        "constructorArguments": "",
                        "name": "getContract",
                        "returnParams": [
                            {
                                "name": "_address",
                                "type": "address",
                                "value": "0xc02aaa39b223fe8d0a0e5c4f27ead9083c756cc2"
                            }
                        ],
                        "signature": "getContract(string)"
                    },
                    "errorInfo": "",
                    "fromAddress": "0x1a2a1c938ce3ec39b6d47113c7955baa9dd454f2",
                    "gasUsed": 1205,
                    "id": 23,
                    "methodDecoded": true,
                    "operation": "STATICCALL",
                    "output": "0x000000000000000000000000c02aaa39b223fe8d0a0e5c4f27ead9083c756cc2",
                    "revert": false,
                    "revertMessage": "",
                    "selector": "0x35817773",
                    "status": true,
                    "value": "0"
                },
                "nodeType": 0
            },
            "24": {
                "invocation": {
                    "address": "0xc02aaa39b223fe8d0a0e5c4f27ead9083c756cc2",
                    "callData": "0x0000000000000000000000000000000000000000000000000107b33e86741000",
                    "decodedMethod": {
                        "callParams": [
                            {
                                "name": "wad",
                                "type": "uint256",
                                "value": "74,225,000,000,000,000"
                            }
                        ],
                        "constructorArguments": "",
                        "name": "withdraw",
                        "returnParams": [],
                        "signature": "withdraw(uint256)"
                    },
                    "errorInfo": "",
                    "fromAddress": "0x1a2a1c938ce3ec39b6d47113c7955baa9dd454f2",
                    "gasUsed": 14386,
                    "id": 24,
                    "methodDecoded": true,
                    "operation": "CALL",
                    "output": "",
                    "revert": false,
                    "revertMessage": "",
                    "selector": "0x2e1a7d4d",
                    "status": true,
                    "value": "0"
                },
                "nodeType": 0
            },
            "25": {
                "invocation": {
                    "address": "0x1a2a1c938ce3ec39b6d47113c7955baa9dd454f2",
                    "callData": "0x",
                    "decodedMethod": null,
                    "errorInfo": "",
                    "fromAddress": "0xc02aaa39b223fe8d0a0e5c4f27ead9083c756cc2",
                    "gasUsed": 446,
                    "id": 25,
                    "methodDecoded": false,
                    "operation": "CALL",
                    "output": "",
                    "revert": false,
                    "revertMessage": "",
                    "selector": "fallback",
                    "status": true,
                    "value": "0.074225"
                },
                "nodeType": 0
            },
            "26": {
                "invocation": {
                    "address": "0x8407dc57739bcda7aa53ca6f12f82f9d51c2f21e",
                    "callData": "0x",
                    "decodedMethod": null,
                    "errorInfo": "",
                    "fromAddress": "0x1a2a1c938ce3ec39b6d47113c7955baa9dd454f2",
                    "gasUsed": 40,
                    "id": 26,
                    "methodDecoded": false,
                    "operation": "DELEGATECALL",
                    "output": "",
                    "revert": false,
                    "revertMessage": "",
                    "selector": "fallback",
                    "status": true,
                    "value": "0.074225"
                },
                "nodeType": 0
            },
            "27": {
                "event": {
                    "contract": "0xc02aaa39b223fe8d0a0e5c4f27ead9083c756cc2",
                    "decodedLog": {
                        "name": "Withdrawal",
                        "params": [
                            {
                                "name": "src",
                                "type": "address",
                                "value": "0x1a2a1c938ce3ec39b6d47113c7955baa9dd454f2"
                            },
                            {
                                "name": "wad",
                                "type": "uint256",
                                "value": "74,225,000,000,000,000"
                            }
                        ],
                        "signature": "Withdrawal(address,uint256)"
                    },
                    "id": 27,
                    "logData": "0x0000000000000000000000000000000000000000000000000107b33e86741000",
                    "logDecoded": true,
                    "operation": "EVENT",
                    "revert": false,
                    "status": true,
                    "topics": [
                        "0x7fcf532c15f0a6db0bd6d0e038bea71d30d808c7d98cb3bf7268a95bf5081b65",
                        "0x0000000000000000000000001a2a1c938ce3ec39b6d47113c7955baa9dd454f2"
                    ]
                },
                "nodeType": 1
            },
            "28": {
                "invocation": {
                    "address": "0x1167f0d48d7c4ea250a65b3a9abdbb0c383ed591",
                    "callData": "0x",
                    "decodedMethod": null,
                    "errorInfo": "",
                    "fromAddress": "0x1a2a1c938ce3ec39b6d47113c7955baa9dd454f2",
                    "gasUsed": 0,
                    "id": 28,
                    "methodDecoded": false,
                    "operation": "CALL",
                    "output": "",
                    "revert": false,
                    "revertMessage": "",
                    "selector": "fallback",
                    "status": true,
                    "value": "0.074225"
                },
                "nodeType": 0
            },
            "29": {
                "event": {
                    "contract": "0x1a2a1c938ce3ec39b6d47113c7955baa9dd454f2",
                    "decodedLog": {
                        "name": "TokenWithdrew",
                        "params": [
                            {
                                "name": "_withdrawId",
                                "type": "uint256",
                                "value": "967,949"
                            },
                            {
                                "name": "_owner",
                                "type": "address",
                                "value": "0x1167f0d48d7c4ea250a65b3a9abdbb0c383ed591"
                            },
                            {
                                "name": "_tokenAddress",
                                "type": "address",
                                "value": "0xc02aaa39b223fe8d0a0e5c4f27ead9083c756cc2"
                            },
                            {
                                "name": "_tokenNumber",
                                "type": "uint256",
                                "value": "74,225,000,000,000,000"
                            }
                        ],
                        "signature": "TokenWithdrew(uint256,address,address,uint256)"
                    },
                    "id": 29,
                    "logData": "0x0000000000000000000000000000000000000000000000000107b33e86741000",
                    "logDecoded": true,
                    "operation": "EVENT",
                    "revert": false,
                    "status": true,
                    "topics": [
                        "0x86174ea401f083b9bb1bdebca3068f27fb023c7091365ed2a8a02b8d75cf0e52",
                        "0x00000000000000000000000000000000000000000000000000000000000ec50d",
                        "0x0000000000000000000000001167f0d48d7c4ea250a65b3a9abdbb0c383ed591",
                        "0x000000000000000000000000c02aaa39b223fe8d0a0e5c4f27ead9083c756cc2"
                    ]
                },
                "nodeType": 1
            },
            "3": {
                "invocation": {
                    "address": "0x33e71e649abdc09f650ad44139674828a2075ad2",
                    "callData": "0x",
                    "decodedMethod": {
                        "callParams": [],
                        "constructorArguments": "",
                        "name": "VALIDATOR",
                        "returnParams": [
                            {
                                "name": "",
                                "type": "string",
                                "value": "VALIDATOR"
                            }
                        ],
                        "signature": "VALIDATOR()"
                    },
                    "errorInfo": "",
                    "fromAddress": "0x1a2a1c938ce3ec39b6d47113c7955baa9dd454f2",
                    "gasUsed": 690,
                    "id": 3,
                    "methodDecoded": true,
                    "operation": "STATICCALL",
                    "output": "0x0000000000000000000000000000000000000000000000000000000000000020000000000000000000000000000000000000000000000000000000000000000956414c494441544f520000000000000000000000000000000000000000000000",
                    "revert": false,
                    "revertMessage": "",
                    "selector": "0x393df8cb",
                    "status": true,
                    "value": "0"
                },
                "nodeType": 0
            },
            "4": {
                "invocation": {
                    "address": "0x33e71e649abdc09f650ad44139674828a2075ad2",
                    "callData": "0x0000000000000000000000000000000000000000000000000000000000000020000000000000000000000000000000000000000000000000000000000000000956414c494441544f520000000000000000000000000000000000000000000000",
                    "decodedMethod": {
                        "callParams": [
                            {
                                "name": "_name",
                                "type": "string",
                                "value": "VALIDATOR"
                            }
                        ],
                        "constructorArguments": "",
                        "name": "getContract",
                        "returnParams": [
                            {
                                "name": "_address",
                                "type": "address",
                                "value": "0x42b19dca30fd612b1757682c074497847f2b57e0"
                            }
                        ],
                        "signature": "getContract(string)"
                    },
                    "errorInfo": "",
                    "fromAddress": "0x1a2a1c938ce3ec39b6d47113c7955baa9dd454f2",
                    "gasUsed": 3205,
                    "id": 4,
                    "methodDecoded": true,
                    "operation": "STATICCALL",
                    "output": "0x00000000000000000000000042b19dca30fd612b1757682c074497847f2b57e0",
                    "revert": false,
                    "revertMessage": "",
                    "selector": "0x35817773",
                    "status": true,
                    "value": "0"
                },
                "nodeType": 0
            },
            "5": {
                "invocation": {
                    "address": "0x0000000000000000000000000000000000000001",
                    "callData": "0xb3e13476f495cddad2171402d2d79b866ae70e1e5fcf23c2859d1a01000000000000000000000000000000000000000000000000000000000000001cafa8b1776368f666219090e545ce9d8ffecc29d922a94ab8f11e5627729ffa6d5b79b057f97a8a40ada1907c74af11479545155957caeabc1b1a5f94a70b643d",
                    "decodedMethod": {
                        "callParams": [
                            {
                                "name": "hash",
                                "type": "bytes32",
                                "value": "0xc7303639b3e13476f495cddad2171402d2d79b866ae70e1e5fcf23c2859d1a01"
                            },
                            {
                                "name": "v",
                                "type": "uint256",
                                "value": "28"
                            },
                            {
                                "name": "r",
                                "type": "bytes32",
                                "value": "0xafa8b1776368f666219090e545ce9d8ffecc29d922a94ab8f11e5627729ffa6d"
                            },
                            {
                                "name": "s",
                                "type": "bytes32",
                                "value": "0x5b79b057f97a8a40ada1907c74af11479545155957caeabc1b1a5f94a70b643d"
                            }
                        ],
                        "constructorArguments": "",
                        "name": "ecrecover",
                        "returnParams": [
                            {
                                "name": "",
                                "type": "address",
                                "value": "0x11360eacdedd59bc433afad4fc8f0417d1fbebab"
                            }
                        ],
                        "signature": "ecrecover(bytes32,uint256,bytes32,bytes32)"
                    },
                    "errorInfo": "",
                    "fromAddress": "0x1a2a1c938ce3ec39b6d47113c7955baa9dd454f2",
                    "gasUsed": 3000,
                    "id": 5,
                    "methodDecoded": true,
                    "operation": "STATICCALL",
                    "output": "0x00000000000000000000000011360eacdedd59bc433afad4fc8f0417d1fbebab",
                    "revert": false,
                    "revertMessage": "",
                    "selector": "0xc7303639",
                    "status": true,
                    "value": "0"
                },
                "nodeType": 0
            },
            "6": {
                "invocation": {
                    "address": "0x42b19dca30fd612b1757682c074497847f2b57e0",
                    "callData": "0x00000000000000000000000011360eacdedd59bc433afad4fc8f0417d1fbebab",
                    "decodedMethod": {
                        "callParams": [
                            {
                                "name": "_addr",
                                "type": "address",
                                "value": "0x11360eacdedd59bc433afad4fc8f0417d1fbebab"
                            }
                        ],
                        "constructorArguments": "",
                        "name": "isValidator",
                        "returnParams": [
                            {
                                "name": "",
                                "type": "bool",
                                "value": true
                            }
                        ],
                        "signature": "isValidator(address)"
                    },
                    "errorInfo": "",
                    "fromAddress": "0x1a2a1c938ce3ec39b6d47113c7955baa9dd454f2",
                    "gasUsed": 2545,
                    "id": 6,
                    "methodDecoded": true,
                    "operation": "STATICCALL",
                    "output": "0x0000000000000000000000000000000000000000000000000000000000000001",
                    "revert": false,
                    "revertMessage": "",
                    "selector": "0xfacd743b",
                    "status": true,
                    "value": "0"
                },
                "nodeType": 0
            },
            "7": {
                "invocation": {
                    "address": "0x0000000000000000000000000000000000000001",
                    "callData": "0xb3e13476f495cddad2171402d2d79b866ae70e1e5fcf23c2859d1a01000000000000000000000000000000000000000000000000000000000000001c5a9bdeb783fb9d01a6b6be2ccee392f0e7896cc48975f4b49e709e8ac180fc0912e61f3da48feb6f556dca3507d828d86f45d01333cc3f46537aafcb54b3fbc0",
                    "decodedMethod": {
                        "callParams": [
                            {
                                "name": "hash",
                                "type": "bytes32",
                                "value": "0xc7303639b3e13476f495cddad2171402d2d79b866ae70e1e5fcf23c2859d1a01"
                            },
                            {
                                "name": "v",
                                "type": "uint256",
                                "value": "28"
                            },
                            {
                                "name": "r",
                                "type": "bytes32",
                                "value": "0x5a9bdeb783fb9d01a6b6be2ccee392f0e7896cc48975f4b49e709e8ac180fc09"
                            },
                            {
                                "name": "s",
                                "type": "bytes32",
                                "value": "0x12e61f3da48feb6f556dca3507d828d86f45d01333cc3f46537aafcb54b3fbc0"
                            }
                        ],
                        "constructorArguments": "",
                        "name": "ecrecover",
                        "returnParams": [
                            {
                                "name": "",
                                "type": "address",
                                "value": "0x1a15a5e25811fe1349d636a5053a0e59d53961c9"
                            }
                        ],
                        "signature": "ecrecover(bytes32,uint256,bytes32,bytes32)"
                    },
                    "errorInfo": "",
                    "fromAddress": "0x1a2a1c938ce3ec39b6d47113c7955baa9dd454f2",
                    "gasUsed": 3000,
                    "id": 7,
                    "methodDecoded": true,
                    "operation": "STATICCALL",
                    "output": "0x0000000000000000000000001a15a5e25811fe1349d636a5053a0e59d53961c9",
                    "revert": false,
                    "revertMessage": "",
                    "selector": "0xc7303639",
                    "status": true,
                    "value": "0"
                },
                "nodeType": 0
            },
            "8": {
                "invocation": {
                    "address": "0x42b19dca30fd612b1757682c074497847f2b57e0",
                    "callData": "0x0000000000000000000000001a15a5e25811fe1349d636a5053a0e59d53961c9",
                    "decodedMethod": {
                        "callParams": [
                            {
                                "name": "_addr",
                                "type": "address",
                                "value": "0x1a15a5e25811fe1349d636a5053a0e59d53961c9"
                            }
                        ],
                        "constructorArguments": "",
                        "name": "isValidator",
                        "returnParams": [
                            {
                                "name": "",
                                "type": "bool",
                                "value": true
                            }
                        ],
                        "signature": "isValidator(address)"
                    },
                    "errorInfo": "",
                    "fromAddress": "0x1a2a1c938ce3ec39b6d47113c7955baa9dd454f2",
                    "gasUsed": 2545,
                    "id": 8,
                    "methodDecoded": true,
                    "operation": "STATICCALL",
                    "output": "0x0000000000000000000000000000000000000000000000000000000000000001",
                    "revert": false,
                    "revertMessage": "",
                    "selector": "0xfacd743b",
                    "status": true,
                    "value": "0"
                },
                "nodeType": 0
            },
            "9": {
                "invocation": {
                    "address": "0x0000000000000000000000000000000000000001",
                    "callData": "0xb3e13476f495cddad2171402d2d79b866ae70e1e5fcf23c2859d1a01000000000000000000000000000000000000000000000000000000000000001b012ec1fdfd7b9b937e27cb7044d2f92652deb8cdaa01ee7759d7dc597cb729c756087805f8aed2353d53878842dee464fffd7ee5f0470ae1fecdad4851792787",
                    "decodedMethod": {
                        "callParams": [
                            {
                                "name": "hash",
                                "type": "bytes32",
                                "value": "0xc7303639b3e13476f495cddad2171402d2d79b866ae70e1e5fcf23c2859d1a01"
                            },
                            {
                                "name": "v",
                                "type": "uint256",
                                "value": "27"
                            },
                            {
                                "name": "r",
                                "type": "bytes32",
                                "value": "0x012ec1fdfd7b9b937e27cb7044d2f92652deb8cdaa01ee7759d7dc597cb729c7"
                            },
                            {
                                "name": "s",
                                "type": "bytes32",
                                "value": "0x56087805f8aed2353d53878842dee464fffd7ee5f0470ae1fecdad4851792787"
                            }
                        ],
                        "constructorArguments": "",
                        "name": "ecrecover",
                        "returnParams": [
                            {
                                "name": "",
                                "type": "address",
                                "value": "0x70bb1fb41c8c42f6ddd53a708e2b82209495e455"
                            }
                        ],
                        "signature": "ecrecover(bytes32,uint256,bytes32,bytes32)"
                    },
                    "errorInfo": "",
                    "fromAddress": "0x1a2a1c938ce3ec39b6d47113c7955baa9dd454f2",
                    "gasUsed": 3000,
                    "id": 9,
                    "methodDecoded": true,
                    "operation": "STATICCALL",
                    "output": "0x00000000000000000000000070bb1fb41c8c42f6ddd53a708e2b82209495e455",
                    "revert": false,
                    "revertMessage": "",
                    "selector": "0xc7303639",
                    "status": true,
                    "value": "0"
                },
                "nodeType": 0
            }
        },
        "gasFlame": [
            {
                "children": [
                    {
                        "children": [
                            {
                                "children": [],
                                "depth": 0,
                                "name": "Initial Gas",
                                "value": 29920
                            },
                            {
                                "children": [
                                    {
                                        "children": [
                                            {
                                                "children": [],
                                                "depth": 2,
                                                "name": "isTokenMapped",
                                                "value": 5215
                                            },
                                            {
                                                "children": [],
                                                "depth": 2,
                                                "name": "VALIDATOR",
                                                "value": 690
                                            },
                                            {
                                                "children": [],
                                                "depth": 2,
                                                "name": "getContract",
                                                "value": 3205
                                            },
                                            {
                                                "children": [],
                                                "depth": 2,
                                                "name": "ecrecover",
                                                "value": 3000
                                            },
                                            {
                                                "children": [],
                                                "depth": 2,
                                                "name": "isValidator",
                                                "value": 2545
                                            },
                                            {
                                                "children": [],
                                                "depth": 2,
                                                "name": "ecrecover",
                                                "value": 3000
                                            },
                                            {
                                                "children": [],
                                                "depth": 2,
                                                "name": "isValidator",
                                                "value": 2545
                                            },
                                            {
                                                "children": [],
                                                "depth": 2,
                                                "name": "ecrecover",
                                                "value": 3000
                                            },
                                            {
                                                "children": [],
                                                "depth": 2,
                                                "name": "isValidator",
                                                "value": 2545
                                            },
                                            {
                                                "children": [],
                                                "depth": 2,
                                                "name": "ecrecover",
                                                "value": 3000
                                            },
                                            {
                                                "children": [],
                                                "depth": 2,
                                                "name": "isValidator",
                                                "value": 2545
                                            },
                                            {
                                                "children": [],
                                                "depth": 2,
                                                "name": "ecrecover",
                                                "value": 3000
                                            },
                                            {
                                                "children": [],
                                                "depth": 2,
                                                "name": "isValidator",
                                                "value": 2545
                                            },
                                            {
                                                "children": [],
                                                "depth": 2,
                                                "name": "ecrecover",
                                                "value": 3000
                                            },
                                            {
                                                "children": [],
                                                "depth": 2,
                                                "name": "isValidator",
                                                "value": 2545
                                            },
                                            {
                                                "children": [],
                                                "depth": 2,
                                                "name": "ecrecover",
                                                "value": 3000
                                            },
                                            {
                                                "children": [],
                                                "depth": 2,
                                                "name": "isValidator",
                                                "value": 2545
                                            },
                                            {
                                                "children": [],
                                                "depth": 2,
                                                "name": "checkThreshold",
                                                "value": 6872
                                            },
                                            {
                                                "children": [],
                                                "depth": 2,
                                                "name": "WETH_TOKEN",
                                                "value": 668
                                            },
                                            {
                                                "children": [],
                                                "depth": 2,
                                                "name": "getContract",
                                                "value": 3205
                                            },
                                            {
                                                "children": [],
                                                "depth": 2,
                                                "name": "WETH_TOKEN",
                                                "value": 668
                                            },
                                            {
                                                "children": [],
                                                "depth": 2,
                                                "name": "getContract",
                                                "value": 1205
                                            },
                                            {
                                                "children": [
                                                    {
                                                        "children": [
                                                            {
                                                                "children": [],
                                                                "depth": 4,
                                                                "name": "fallback",
                                                                "value": 40
                                                            }
                                                        ],
                                                        "depth": 3,
                                                        "name": "fallback",
                                                        "value": 446
                                                    }
                                                ],
                                                "depth": 2,
                                                "name": "withdraw",
                                                "value": 14386
                                            },
                                            {
                                                "children": [],
                                                "depth": 2,
                                                "name": "fallback",
                                                "value": 0
                                            }
                                        ],
                                        "depth": 1,
                                        "name": "withdrawERC20For",
                                        "value": 182831
                                    }
                                ],
                                "depth": 0,
                                "name": "Executed Gas",
                                "value": 188007
                            }
                        ],
                        "depth": -1,
                        "name": "Actual Gas Used",
                        "value": 217927
                    },
                    {
                        "children": [],
                        "depth": -1,
                        "name": "Refunded Gas",
                        "value": 0
                    }
                ],
                "depth": -2,
                "name": "Total Gas",
                "value": 217927
            }
        ],
        "isConfirmed": true,
        "mainTrace": [
            {
                "children": [
                    {
                        "children": [
                            {
                                "children": [
                                    {
                                        "children": [],
                                        "depth": 2,
                                        "id": 2,
                                        "order": 2
                                    },
                                    {
                                        "children": [],
                                        "depth": 2,
                                        "id": 3,
                                        "order": 3
                                    },
                                    {
                                        "children": [],
                                        "depth": 2,
                                        "id": 4,
                                        "order": 4
                                    },
                                    {
                                        "children": [],
                                        "depth": 2,
                                        "id": 5,
                                        "order": 5
                                    },
                                    {
                                        "children": [],
                                        "depth": 2,
                                        "id": 6,
                                        "order": 6
                                    },
                                    {
                                        "children": [],
                                        "depth": 2,
                                        "id": 7,
                                        "order": 7
                                    },
                                    {
                                        "children": [],
                                        "depth": 2,
                                        "id": 8,
                                        "order": 8
                                    },
                                    {
                                        "children": [],
                                        "depth": 2,
                                        "id": 9,
                                        "order": 9
                                    },
                                    {
                                        "children": [],
                                        "depth": 2,
                                        "id": 10,
                                        "order": 10
                                    },
                                    {
                                        "children": [],
                                        "depth": 2,
                                        "id": 11,
                                        "order": 11
                                    },
                                    {
                                        "children": [],
                                        "depth": 2,
                                        "id": 12,
                                        "order": 12
                                    },
                                    {
                                        "children": [],
                                        "depth": 2,
                                        "id": 13,
                                        "order": 13
                                    },
                                    {
                                        "children": [],
                                        "depth": 2,
                                        "id": 14,
                                        "order": 14
                                    },
                                    {
                                        "children": [],
                                        "depth": 2,
                                        "id": 15,
                                        "order": 15
                                    },
                                    {
                                        "children": [],
                                        "depth": 2,
                                        "id": 16,
                                        "order": 16
                                    },
                                    {
                                        "children": [],
                                        "depth": 2,
                                        "id": 17,
                                        "order": 17
                                    },
                                    {
                                        "children": [],
                                        "depth": 2,
                                        "id": 18,
                                        "order": 18
                                    },
                                    {
                                        "children": [],
                                        "depth": 2,
                                        "id": 19,
                                        "order": 19
                                    },
                                    {
                                        "children": [],
                                        "depth": 2,
                                        "id": 20,
                                        "order": 20
                                    },
                                    {
                                        "children": [],
                                        "depth": 2,
                                        "id": 21,
                                        "order": 21
                                    },
                                    {
                                        "children": [],
                                        "depth": 2,
                                        "id": 22,
                                        "order": 22
                                    },
                                    {
                                        "children": [],
                                        "depth": 2,
                                        "id": 23,
                                        "order": 23
                                    },
                                    {
                                        "children": [
                                            {
                                                "children": [
                                                    {
                                                        "children": [],
                                                        "depth": 4,
                                                        "id": 26,
                                                        "order": 26
                                                    }
                                                ],
                                                "depth": 3,
                                                "id": 25,
                                                "order": 25
                                            },
                                            {
                                                "children": [],
                                                "depth": 3,
                                                "id": 27,
                                                "order": 27
                                            }
                                        ],
                                        "depth": 2,
                                        "id": 24,
                                        "order": 24
                                    },
                                    {
                                        "children": [],
                                        "depth": 2,
                                        "id": 28,
                                        "order": 28
                                    },
                                    {
                                        "children": [],
                                        "depth": 2,
                                        "id": 29,
                                        "order": 29
                                    }
                                ],
                                "depth": 1,
                                "id": 1,
                                "order": 1
                            }
                        ],
                        "depth": 0,
                        "id": 0,
                        "order": 0
                    }
                ],
                "depth": -1,
                "id": -1,
                "order": -1
            }
        ],
        "mainTraceNodeCount": 30,
        "parentIdMap": {
            "0": -1,
            "1": 0,
            "10": 1,
            "11": 1,
            "12": 1,
            "13": 1,
            "14": 1,
            "15": 1,
            "16": 1,
            "17": 1,
            "18": 1,
            "19": 1,
            "2": 1,
            "20": 1,
            "21": 1,
            "22": 1,
            "23": 1,
            "24": 1,
            "25": 24,
            "26": 25,
            "27": 24,
            "28": 1,
            "29": 1,
            "3": 1,
            "4": 1,
            "5": 1,
            "6": 1,
            "7": 1,
            "8": 1,
            "9": 1
        },
        "tidyTrace": [
            {
                "children": [
                    {
                        "children": [
                            {
                                "children": [
                                    {
                                        "children": [
                                            {
                                                "children": [
                                                    {
                                                        "children": [],
                                                        "depth": 4,
                                                        "id": 26,
                                                        "order": 26
                                                    }
                                                ],
                                                "depth": 3,
                                                "id": 25,
                                                "order": 25
                                            },
                                            {
                                                "children": [],
                                                "depth": 3,
                                                "id": 27,
                                                "order": 27
                                            }
                                        ],
                                        "depth": 2,
                                        "id": 24,
                                        "order": 24
                                    },
                                    {
                                        "children": [],
                                        "depth": 2,
                                        "id": 28,
                                        "order": 28
                                    },
                                    {
                                        "children": [],
                                        "depth": 2,
                                        "id": 29,
                                        "order": 29
                                    }
                                ],
                                "depth": 1,
                                "id": 1,
                                "order": 1
                            }
                        ],
                        "depth": 0,
                        "id": 0,
                        "order": 0
                    }
                ],
                "depth": -1,
                "id": -1,
                "order": -1
            }
        ],
        "tidyTraceNodeCount": 8
    },
    "state_change": {
        "stateChanges": [
            {
                "address": "0x1a2a1c938ce3ec39b6d47113c7955baa9dd454f2",
                "erc": "",
                "slots": [
                    {
                        "current": "0x0000000000000000000000001167f0d48d7c4ea250a65b3a9abdbb0c383ed591",
                        "key": "0x36e653bd57e88ec53472966a25c4173def9d22ee7a2101f9006bd838a4766ef4",
                        "prev": "0x0000000000000000000000000000000000000000000000000000000000000000"
                    },
                    {
                        "current": "0x000000000000000000000000c02aaa39b223fe8d0a0e5c4f27ead9083c756cc2",
                        "key": "0x36e653bd57e88ec53472966a25c4173def9d22ee7a2101f9006bd838a4766ef5",
                        "prev": "0x0000000000000000000000000000000000000000000000000000000000000000"
                    },
                    {
                        "current": "0x0000000000000000000000000000000000000000000000000107b33e86741000",
                        "key": "0x36e653bd57e88ec53472966a25c4173def9d22ee7a2101f9006bd838a4766ef6",
                        "prev": "0x0000000000000000000000000000000000000000000000000000000000000000"
                    }
                ],
                "storageVariables": [
                    {
                        "name": "withdrawals",
                        "type": "mapping(uint256 => struct MainchainGatewayStorage.WithdrawalEntry)",
                        "value": {
                            "pairs": [
                                {
                                    "key": "967949",
                                    "value": {
                                        "fields": [
                                            {
                                                "name": "owner",
                                                "type": "address",
                                                "value": {
                                                    "current": "0x1167f0d48d7c4ea250a65b3a9abdbb0c383ed591",
                                                    "prev": "0x0000000000000000000000000000000000000000",
                                                    "typeTag": 1
                                                }
                                            },
                                            {
                                                "name": "tokenAddress",
                                                "type": "address",
                                                "value": {
                                                    "current": "0xc02aaa39b223fe8d0a0e5c4f27ead9083c756cc2",
                                                    "prev": "0x0000000000000000000000000000000000000000",
                                                    "typeTag": 1
                                                }
                                            },
                                            {
                                                "name": "tokenNumber",
                                                "type": "uint256",
                                                "value": {
                                                    "current": "74225000000000000",
                                                    "prev": "0",
                                                    "typeTag": 1
                                                }
                                            }
                                        ],
                                        "typeTag": 3
                                    }
                                }
                            ],
                            "typeTag": 4
                        }
                    }
                ]
            },
            {
                "address": "0xc02aaa39b223fe8d0a0e5c4f27ead9083c756cc2",
                "erc": "ERC-20",
                "slots": [
                    {
                        "current": "0x00000000000000000000000000000000000000000000440274d6fb9490aba04e",
                        "key": "0xfffe533f47dff0c7bddbf8eb07fd3eb369bfaaaa3aabb548e96fc6b3744837b6",
                        "prev": "0x00000000000000000000000000000000000000000000440275deaed3171fb04e"
                    }
                ],
                "storageVariables": [
                    {
                        "name": "balanceOf",
                        "type": "mapping(address => uint256)",
                        "value": {
                            "pairs": [
                                {
                                    "key": "0x1a2a1c938ce3ec39b6d47113c7955baa9dd454f2",
                                    "value": {
                                        "current": "321166233516452210253902",
                                        "prev": "321166307741452210253902",
                                        "typeTag": 1
                                    }
                                }
                            ],
                            "typeTag": 4
                        }
                    }
                ]
            }
        ]
    }
}