{
    "balance_change": {
        "balanceChanges": [
            {
                "account": "0x9978eeedfdb3904d5bb10059d058c05e2516ca79",
                "assets": [
                    {
                        "address": "0x888666ca69e0f178ded6d75b5726cee99a87d698",
                        "amount": "88.105726872247",
                        "iconUrl": "https://assets.blocksec.com/icon/a0a697a80871d0198549343dc1f46e4e3b86cd46ec34f4a83f958a2a7c0bf6d2.png",
                        "isERC1155": false,
                        "isERC721": false,
                        "sign": false,
                        "value": ""
                    }
                ]
            },
            {
                "account": "0x070ecac01836025ea2227f58921610d34e7396e6",
                "assets": [
                    {
                        "address": "0x888666ca69e0f178ded6d75b5726cee99a87d698",
                        "amount": "88.105726872247",
                        "iconUrl": "https://assets.blocksec.com/icon/a0a697a80871d0198549343dc1f46e4e3b86cd46ec34f4a83f958a2a7c0bf6d2.png",
                        "isERC1155": false,
                        "isERC721": false,
                        "sign": true,
                        "value": ""
                    }
                ]
            }
        ]
    },
    "profile": {
        "basic_info": {
            "baseFee": "",
            "blockNumber": 2524679,
            "callData": "0xa9059cbb000000000000000000000000070ecac01836025ea2227f58921610d34e7396e6000000000000000000000000000000000000000000000004c6b66bc941dedbc0",
            "debugEnable": true,
            "errorInfo": "",
            "eventCount": 1,
            "feeRecipient": "0x4bb96091ee9d802ed039c4d1a5f6216f90f81b01",
            "formatValue": "0",
            "gasLimit": 37043,
            "gasPrice": "23",
            "gasUsed": 22043,
            "intTxnCount": 0,
            "internalRevert": false,
            "internalRevertMessage": "",
            "isContractCreation": false,
            "isFlashloan": false,
            "maxFee": "",
            "nonce": 0,
            "overwritedBlockNumber": -1,
            "priorityFee": "",
            "receiver": "0x888666ca69e0f178ded6d75b5726cee99a87d698",
            "revertMessage": "",
            "sender": "0x9978eeedfdb3904d5bb10059d058c05e2516ca79",
            "simulationEnable": true,
            "sourceTxnHash": "0xed104877fe8d09742a1a94266e88d761474010363a0830092fccfc7cb4f858af",
            "status": true,
            "timestamp": "2016-10-28T17:59:25Z",
            "transactionFee": "0.000506989",
            "txnHash": "0xed104877fe8d09742a1a94266e88d761474010363a0830092fccfc7cb4f858af",
            "txnIndex": 0,
            "type": 0,
            "value": "0"
        },
        "fund_flow": [
            {
                "amount": "88.105726872247",
                "from": "0x9978eeedfdb3904d5bb10059d058c05e2516ca79",
                "id": 1,
                "isERC1155": false,
                "isERC721": false,
                "isReverted": false,
                "order": 1,
                "to": "0x070ecac01836025ea2227f58921610d34e7396e6",
                "token": "0x888666ca69e0f178ded6d75b5726cee99a87d698"
            }
        ],
        "token_infos": [
            {
                "address": "0x888666ca69e0f178ded6d75b5726cee99a87d698",
                "decimals": 18
            },
            {
                "address": "0xc02aaa39b223fe8d0a0e5c4f27ead9083c756cc2",
                "decimals": 18
            },
            {
                "address": "0xeeeeeeeeeeeeeeeeeeeeeeeeeeeeeeeeeeeeeeee",
                "decimals": 18
            }
        ]
    },
    "address_label": {
        "labels": [
            {
                "address": "0xeeeeeeeeeeeeeeeeeeeeeeeeeeeeeeeeeeeeeeee",
                "label": "Ether"
            },
            {
                "address": "0x888666ca69e0f178ded6d75b5726cee99a87d698",
                "label": "ICONOMI Token"
            },
            {
                "address": "0x0000000000000000000000000000000000000001",
                "label": "Precompiled"
            },
            {
                "address": "0x0000000000000000000000000000000000000002",
                "label": "Precompiled"
            },
            {
                "address": "0x0000000000000000000000000000000000000003",
                "label": "Precompiled"
            },
            {
                "address": "0x0000000000000000000000000000000000000004",
                "label": "Precompiled"
            }
        ]
    },
    "trace": {
        "accountLabels": null,
        "dataMap": {
            "-1": {
                "invocation": {
                    "address": "0x9978eeedfdb3904d5bb10059d058c05e2516ca79",
                    "callData": "",
                    "decodedMethod": null,
                    "errorInfo": "",
                    "fromAddress": "",
                    "gasUsed": 0,
                    "id": -1,
                    "methodDecoded": false,
                    "operation": "",
                    "output": "",
                    "revert": false,
                    "revertMessage": "",
                    "selector": "",
                    "status": false,
                    "value": ""
                },
                "nodeType": 0
            },
            "0": {
                "invocation": {
                    "address": "0x888666ca69e0f178ded6d75b5726cee99a87d698",
                    "callData": "0x000000000000000000000000070ecac01836025ea2227f58921610d34e7396e6000000000000000000000000000000000000000000000004c6b66bc941dedbc0",
                    "decodedMethod": {
                        "callParams": [
                            {
                                "name": "_to",
                                "type": "address",
                                "value": "0x070ecac01836025ea2227f58921610d34e7396e6"
                            },
                            {
                                "decimalAvailable": true,
                                "name": "_value",
                                "type": "uint256",
                                "value": "88,105,726,872,247,000,000"
                            }
                        ],
                        "constructorArguments": "",
                        "name": "transfer",
                        "returnParams": [
                            {
                                "name": "success",
                                "type": "bool",
                                "value": true
                            }
                        ],
                        "signature": "transfer(address,uint256)"
                    },
                    "errorInfo": "",
                    "fromAddress": "0x9978eeedfdb3904d5bb10059d058c05e2516ca79",
                    "gasUsed": 22043,
                    "id": 0,
                    "methodDecoded": true,
                    "operation": "CALL",
                    "output": "0x0000000000000000000000000000000000000000000000000000000000000001",
                    "revert": false,
                    "revertMessage": "",
                    "selector": "0xa9059cbb",
                    "status": true,
                    "value": "0"
                },
                "nodeType": 0
            },
            "1": {
                "event": {
                    "contract": "0x888666ca69e0f178ded6d75b5726cee99a87d698",
                    "decodedLog": {
                        "name": "Transfer",
                        "params": [
                            {
                                "name": "_from",
                                "type": "address",
                                "value": "0x9978eeedfdb3904d5bb10059d058c05e2516ca79"
                            },
                            {
                                "name": "_to",
                                "type": "address",
                                "value": "0x070ecac01836025ea2227f58921610d34e7396e6"
                            },
                            {
                                "decimalAvailable": true,
                                "name": "_value",
                                "type": "uint256",
                                "value": "88,105,726,872,247,000,000"
                            }
                        ],
                        "signature": "Transfer(address,address,uint256)"
                    },
                    "id": 1,
                    "logData": "0x000000000000000000000000000000000000000000000004c6b66bc941dedbc0",
                    "logDecoded": true,
                    "operation": "EVENT",
                    "revert": false,
                    "status": true,
                    "topics": [
                        "0xddf252ad1be2c89b69c2b068fc378daa952ba7f163c4a11628f55a4df523b3ef",
                        "0x0000000000000000000000009978eeedfdb3904d5bb10059d058c05e2516ca79",
                        "0x000000000000000000000000070ecac01836025ea2227f58921610d34e7396e6"
                    ]
                },
                "nodeType": 1
            }
        },
        "gasFlame": [
            {
                "children": [
                    {
                        "children": [
                            {
                                "children": [],
                                "depth": 0,
                                "name": "Initial Gas",
                                "value": 23384
                            },
                            {
                                "children": [],
                                "depth": 0,
                                "name": "Executed Gas",
                                "value": 13659
                            }
                        ],
                        "depth": -1,
                        "name": "Actual Gas Used",
                        "value": 22043
                    },
                    {
                        "children": [],
                        "depth": -1,
                        "name": "Refunded Gas",
                        "value": 15000
                    }
                ],
                "depth": -2,
                "name": "Total Gas",
                "value": 37043
            }
        ],
        "isConfirmed": true,
        "mainTrace": [
            {
                "children": [
                    {
                        "children": [
                            {
                                "children": [],
                                "depth": 1,
                                "id": 1,
                                "order": 1
                            }
                        ],
                        "depth": 0,
                        "id": 0,
                        "order": 0
                    }
                ],
                "depth": -1,
                "id": -1,
                "order": -1
            }
        ],
        "mainTraceNodeCount": 2,
        "parentIdMap": {
            "0": -1,
            "1": 0
        },
        "tidyTrace": [
            {
                "children": [
                    {
                        "children": [
                            {
                                "children": [],
                                "depth": 1,
                                "id": 1,
                                "order": 1
                            }
                        ],
                        "depth": 0,
                        "id": 0,
                        "order": 0
                    }
                ],
                "depth": -1,
                "id": -1,
                "order": -1
            }
        ],
        "tidyTraceNodeCount": 2
    },
    "state_change": {
        "stateChanges": [
            {
                "address": "0x888666ca69e0f178ded6d75b5726cee99a87d698",
                "erc": "ERC-20",
                "slots": [
                    {
                        "current": "0x0000000000000000000000000000000000000000000000000000000000000000",
                        "key": "0xa75efc5ebe2bec5bebd7d3d2eea57bccf56a89de5c2666ad86ff262ed4f95bd6",
                        "prev": "0x000000000000000000000000000000000000000000000004c6b66bc941dedbc0"
                    },
                    {
                        "current": "0x00000000000000000000000000000000000000000000005abf89ffefe38a4f40",
                        "key": "0xd5aaa6de537b81d8863dd511e43ef3e1fb3f654c8a6555ef2da1fab6b9447073",
                        "prev": "0x000000000000000000000000000000000000000000000055f8d39426a1ab7380"
                    }
                ],
                "storageVariables": []
            }
        ]
    }
}