{
    "balance_change": {
        "balanceChanges": [
            {
                "account": "0x7b29db794320ec81428b01c606d8c6e2a1659eff",
                "assets": [
                    {
                        "address": "0x62b9f8741bf53a6986a5411c0557c30f6f11f3af",
                        "amount": "107.7",
                        "iconUrl": "",
                        "isERC1155": false,
                        "isERC721": false,
                        "sign": false,
                        "value": ""
                    }
                ]
            },
            {
                "account": "0x46a2deac2a94af61c6beeeb05dbce3d82589ff68",
                "assets": [
                    {
                        "address": "0x62b9f8741bf53a6986a5411c0557c30f6f11f3af",
                        "amount": "107.7",
                        "iconUrl": "",
                        "isERC1155": false,
                        "isERC721": false,
                        "sign": true,
                        "value": ""
                    }
                ]
            }
        ]
    },
    "profile": {
        "basic_info": {
            "baseFee": "",
            "blockNumber": 9054521,
            "callData": "0xa9059cbb00000000000000000000000046a2deac2a94af61c6beeeb05dbce3d82589ff68000000000000000000000000000000000000000000000005d6a3436185920000",
            "debugEnable": true,
            "errorInfo": "",
            "eventCount": 1,
            "feeRecipient": "0x002e08000acbbae2155fab7ac01929564949070d",
            "formatValue": "0",
            "gasLimit": 90000,
            "gasPrice": "20",
            "gasUsed": 37966,
            "intTxnCount": 0,
            "internalRevert": false,
            "internalRevertMessage": "",
            "isContractCreation": false,
            "isFlashloan": false,
            "maxFee": "",
            "nonce": 16221,
            "overwritedBlockNumber": -1,
            "priorityFee": "",
            "receiver": "0x62b9f8741bf53a6986a5411c0557c30f6f11f3af",
            "revertMessage": "",
            "sender": "0x7b29db794320ec81428b01c606d8c6e2a1659eff",
            "simulationEnable": true,
            "sourceTxnHash": "0xedf956057f4de7775d6df5745fbbc87d1613d6b1df0e9bf5da28e14327320b42",
            "status": true,
            "timestamp": "2019-12-05T10:48:07Z",
            "transactionFee": "0.00075932",
            "txnHash": "0xedf956057f4de7775d6df5745fbbc87d1613d6b1df0e9bf5da28e14327320b42",
            "txnIndex": 21,
            "type": 0,
            "value": "0"
        },
        "fund_flow": [
            {
                "amount": "107.7",
                "from": "0x7b29db794320ec81428b01c606d8c6e2a1659eff",
                "id": 1,
                "isERC1155": false,
                "isERC721": false,
                "isReverted": false,
                "order": 1,
                "to": "0x46a2deac2a94af61c6beeeb05dbce3d82589ff68",
                "token": "0x62b9f8741bf53a6986a5411c0557c30f6f11f3af"
            }
        ],
        "token_infos": [
            {
                "address": "0x62b9f8741bf53a6986a5411c0557c30f6f11f3af",
                "decimals": 18
            },
            {
                "address": "0xc02aaa39b223fe8d0a0e5c4f27ead9083c756cc2",
                "decimals": 18
            },
            {
                "address": "0xeeeeeeeeeeeeeeeeeeeeeeeeeeeeeeeeeeeeeeee",
                "decimals": 18
            }
        ]
    },
    "address_label": {
        "labels": [
            {
                "address": "0x0000000000000000000000000000000000000004",
                "label": "Precompiled"
            },
            {
                "address": "0xeeeeeeeeeeeeeeeeeeeeeeeeeeeeeeeeeeeeeeee",
                "label": "Ether"
            },
            {
                "address": "0x62b9f8741bf53a6986a5411c0557c30f6f11f3af",
                "label": "5GH (5GH)"
            },
            {
                "address": "0x0000000000000000000000000000000000000001",
                "label": "Precompiled"
            },
            {
                "address": "0x0000000000000000000000000000000000000002",
                "label": "Precompiled"
            },
            {
                "address": "0x0000000000000000000000000000000000000003",
                "label": "Precompiled"
            }
        ]
    },
    "trace": {
        "accountLabels": null,
        "dataMap": {
            "-1": {
                "invocation": {
                    "address": "0x7b29db794320ec81428b01c606d8c6e2a1659eff",
                    "callData": "",
                    "decodedMethod": null,
                    "errorInfo": "",
                    "fromAddress": "",
                    "gasUsed": 0,
                    "id": -1,
                    "methodDecoded": false,
                    "operation": "",
                    "output": "",
                    "revert": false,
                    "revertMessage": "",
                    "selector": "",
                    "status": false,
                    "value": ""
                },
                "nodeType": 0
            },
            "0": {
                "invocation": {
                    "address": "0x62b9f8741bf53a6986a5411c0557c30f6f11f3af",
                    "callData": "0x00000000000000000000000046a2deac2a94af61c6beeeb05dbce3d82589ff68000000000000000000000000000000000000000000000005d6a3436185920000",
                    "decodedMethod": {
                        "callParams": [
                            {
                                "name": "_to",
                                "type": "address",
                                "value": "0x46a2deac2a94af61c6beeeb05dbce3d82589ff68"
                            },
                            {
                                "decimalAvailable": true,
                                "name": "_value",
                                "type": "uint256",
                                "value": "107,700,000,000,000,000,000"
                            }
                        ],
                        "constructorArguments": "",
                        "name": "transfer",
                        "returnParams": [
                            {
                                "name": "success",
                                "type": "bool",
                                "value": true
                            }
                        ],
                        "signature": "transfer(address,uint256)"
                    },
                    "errorInfo": "",
                    "fromAddress": "0x7b29db794320ec81428b01c606d8c6e2a1659eff",
                    "gasUsed": 37966,
                    "id": 0,
                    "methodDecoded": true,
                    "operation": "CALL",
                    "output": "0x0000000000000000000000000000000000000000000000000000000000000001",
                    "revert": false,
                    "revertMessage": "",
                    "selector": "0xa9059cbb",
                    "status": true,
                    "value": "0"
                },
                "nodeType": 0
            },
            "1": {
                "event": {
                    "contract": "0x62b9f8741bf53a6986a5411c0557c30f6f11f3af",
                    "decodedLog": {
                        "name": "Transfer",
                        "params": [
                            {
                                "name": "from",
                                "type": "address",
                                "value": "0x7b29db794320ec81428b01c606d8c6e2a1659eff"
                            },
                            {
                                "name": "to",
                                "type": "address",
                                "value": "0x46a2deac2a94af61c6beeeb05dbce3d82589ff68"
                            },
                            {
                                "decimalAvailable": true,
                                "name": "value",
                                "type": "uint256",
                                "value": "107,700,000,000,000,000,000"
                            }
                        ],
                        "signature": "Transfer(address,address,uint256)"
                    },
                    "id": 1,
                    "logData": "0x000000000000000000000000000000000000000000000005d6a3436185920000",
                    "logDecoded": true,
                    "operation": "EVENT",
                    "revert": false,
                    "status": true,
                    "topics": [
                        "0xddf252ad1be2c89b69c2b068fc378daa952ba7f163c4a11628f55a4df523b3ef",
                        "0x0000000000000000000000007b29db794320ec81428b01c606d8c6e2a1659eff",
                        "0x00000000000000000000000046a2deac2a94af61c6beeeb05dbce3d82589ff68"
                    ]
                },
                "nodeType": 1
            }
        },
        "gasFlame": [
            {
                "children": [
                    {
                        "children": [
                            {
                                "children": [],
                                "depth": 0,
                                "name": "Initial Gas",
                                "value": 23256
                            },
                            {
                                "children": [],
                                "depth": 0,
                                "name": "Executed Gas",
                                "value": 14710
                            }
                        ],
                        "depth": -1,
                        "name": "Actual Gas Used",
                        "value": 37966
                    },
                    {
                        "children": [],
                        "depth": -1,
                        "name": "Refunded Gas",
                        "value": 0
                    }
                ],
                "depth": -2,
                "name": "Total Gas",
                "value": 37966
            }
        ],
        "isConfirmed": true,
        "mainTrace": [
            {
                "children": [
                    {
                        "children": [
                            {
                                "children": [],
                                "depth": 1,
                                "id": 1,
                                "order": 1
                            }
                        ],
                        "depth": 0,
                        "id": 0,
                        "order": 0
                    }
                ],
                "depth": -1,
                "id": -1,
                "order": -1
            }
        ],
        "mainTraceNodeCount": 2,
        "parentIdMap": {
            "0": -1,
            "1": 0
        },
        "tidyTrace": [
            {
                "children": [
                    {
                        "children": [
                            {
                                "children": [],
                                "depth": 1,
                                "id": 1,
                                "order": 1
                            }
                        ],
                        "depth": 0,
                        "id": 0,
                        "order": 0
                    }
                ],
                "depth": -1,
                "id": -1,
                "order": -1
            }
        ],
        "tidyTraceNodeCount": 2
    },
    "state_change": {
        "stateChanges": [
            {
                "address": "0x62b9f8741bf53a6986a5411c0557c30f6f11f3af",
                "erc": "ERC-20",
                "slots": [
                    {
                        "current": "0x000000000000000000000000000000000000000000001af100c049267f580000",
                        "key": "0xd4def977f2ae96979569b934ade1180239f49bc980226a18fb18d7d95080537d",
                        "prev": "0x000000000000000000000000000000000000000000001af6d7638c8804ea0000"
                    },
                    {
                        "current": "0x000000000000000000000000000000000000000000000091cdb2cc031fb10000",
                        "key": "0xfb3184f4b43140570dd6ce20ae3e707d63ccc5b80a00b38cb25a5f930f9ce4d3",
                        "prev": "0x00000000000000000000000000000000000000000000008bf70f88a19a1f0000"
                    }
                ],
                "storageVariables": [
                    {
                        "name": "balanceOf",
                        "type": "mapping(address => uint256)",
                        "value": {
                            "pairs": [
                                {
                                    "key": "0x46a2deac2a94af61c6beeeb05dbce3d82589ff68",
                                    "value": {
                                        "current": "2689600024325303369728",
                                        "prev": "2581900024325303369728",
                                        "typeTag": 1
                                    }
                                },
                                {
                                    "key": "0x7b29db794320ec81428b01c606d8c6e2a1659eff",
                                    "value": {
                                        "current": "127227248000000000000000",
                                        "prev": "127334948000000000000000",
                                        "typeTag": 1
                                    }
                                }
                            ],
                            "typeTag": 4
                        }
                    }
                ]
            }
        ]
    }
}