{
    "balance_change": {
        "balanceChanges": []
    },
    "profile": {
        "basic_info": {
            "baseFee": "37.290755587",
            "blockNumber": 12968243,
            "callData": "0xa8a41c700000000000000000000000007be8076f4ea4a4ad08075c2508e481d6c946d12b00000000000000000000000069bab6810fa99475854bca0a3dd72ae6a0728ece00000000000000000000000000000000000000000000000000000000000000000000000000000000000000005b3256965e7c3cf26e11fcaf296dfc8807c01073000000000000000000000000bc4ca0eda7647a8ab7c2061c2e118a18a936f13d0000000000000000000000000000000000000000000000000000000000000000000000000000000000000000000000000000000000000000000000000000000000000000000000000000000000000000000000000000000000000000000001f4000000000000000000000000000000000000000000000000000000000000000000000000000000000000000000000000000000000000000000000000000000000000000000000000000000000000000000000000000000000000000000000000000000000000000000000000000000000000000000000003bd913e6c1df4000000000000000000000000000000000000000000000000000000000000000000000000000000000000000000000000000000000000000000000000000060c7d87a0000000000000000000000000000000000000000000000000000000000000000ab02c5c1d42803672c15f8aa9214d783528a2a317346834d5d627f706106e6a80000000000000000000000000000000000000000000000000000000000000001000000000000000000000000000000000000000000000000000000000000000100000000000000000000000000000000000000000000000000000000000000000000000000000000000000000000000000000000000000000000000000000000000000000000000000000000000000000000000000000000000000000000034000000000000000000000000000000000000000000000000000000000000003e00000000000000000000000000000000000000000000000000000000000000480000000000000000000000000000000000000000000000000000000000000001b9d4506e35b6fe34419dc7fea87257dbbd6cc5b904d879913b85ca8df78eeee974f96a05e4a1e5acd98bd2e48478607c4c704863899c0450c1a6243bc19b6b357000000000000000000000000000000000000000000000000000000000000006423b872dd00000000000000000000000069bab6810fa99475854bca0a3dd72ae6a0728ece00000000000000000000000000000000000000000000000000000000000000000000000000000000000000000000000000000000000000000000000000001c95000000000000000000000000000000000000000000000000000000000000000000000000000000000000000000000000000000000000000000000064000000000000000000000000000000000000000000000000000000000000000000000000ffffffffffffffffffffffffffffffffffffffffffffffffffffffffffffffff0000000000000000000000000000000000000000000000000000000000000000000000000000000000000000000000000000000000000000000000000000000000000000000000000000000000000000000000000000000000000000",
            "debugEnable": true,
            "errorInfo": "",
            "eventCount": 1,
            "feeRecipient": "0xea674fdde714fd979de3edf0f56aa9716b898ec8",
            "formatValue": "0",
            "gasLimit": 74938,
            "gasPrice": "43.839460906",
            "gasUsed": 74938,
            "intTxnCount": 1,
            "internalRevert": false,
            "internalRevertMessage": "",
            "isContractCreation": false,
            "isFlashloan": false,
            "maxFee": "",
            "nonce": 2407,
            "overwritedBlockNumber": -1,
            "priorityFee": "",
            "receiver": "0x7be8076f4ea4a4ad08075c2508e481d6c946d12b",
            "revertMessage": "",
            "sender": "0x69bab6810fa99475854bca0a3dd72ae6a0728ece",
            "simulationEnable": true,
            "sourceTxnHash": "0xedb81c0c1d4f89569e307f53f98838c5094fc6688a74eaf03623e745baa803c3",
            "status": true,
            "timestamp": "2021-08-06T00:38:46Z",
            "transactionFee": "0.003285241521373828",
            "txnHash": "0xedb81c0c1d4f89569e307f53f98838c5094fc6688a74eaf03623e745baa803c3",
            "txnIndex": 108,
            "type": 0,
            "value": "0"
        },
        "fund_flow": [],
        "token_infos": [
            {
                "address": "0xc02aaa39b223fe8d0a0e5c4f27ead9083c756cc2",
                "decimals": 18
            },
            {
                "address": "0xeeeeeeeeeeeeeeeeeeeeeeeeeeeeeeeeeeeeeeee",
                "decimals": 18
            }
        ]
    },
    "address_label": {
        "labels": [
            {
                "address": "0xbc4ca0eda7647a8ab7c2061c2e118a18a936f13d",
                "label": "Bored Ape Yacht Club: BoredApeYachtClub Token (BAYC)"
            },
            {
                "address": "0x0000000000000000000000000000000000000003",
                "label": "Precompiled"
            },
            {
                "address": "0xeeeeeeeeeeeeeeeeeeeeeeeeeeeeeeeeeeeeeeee",
                "label": "Ether"
            },
            {
                "address": "0x5b3256965e7c3cf26e11fcaf296dfc8807c01073",
                "label": "OpenSea: Wallet"
            },
            {
                "address": "0x7be8076f4ea4a4ad08075c2508e481d6c946d12b",
                "label": "OpenSea: Wyvern Exchange v1"
            },
            {
                "address": "0x0000000000000000000000000000000000000000",
                "label": "Null Address"
            },
            {
                "address": "0x0000000000000000000000000000000000000001",
                "label": "Precompiled"
            },
            {
                "address": "0x0000000000000000000000000000000000000002",
                "label": "Precompiled"
            },
            {
                "address": "0x0000000000000000000000000000000000000004",
                "label": "Precompiled"
            }
        ]
    },
    "trace": {
        "accountLabels": null,
        "dataMap": {
            "-1": {
                "invocation": {
                    "address": "0x69bab6810fa99475854bca0a3dd72ae6a0728ece",
                    "callData": "",
                    "decodedMethod": null,
                    "errorInfo": "",
                    "fromAddress": "",
                    "gasUsed": 0,
                    "id": -1,
                    "methodDecoded": false,
                    "operation": "",
                    "output": "",
                    "revert": false,
                    "revertMessage": "",
                    "selector": "",
                    "status": false,
                    "value": ""
                },
                "nodeType": 0
            },
            "0": {
                "invocation": {
                    "address": "0x7be8076f4ea4a4ad08075c2508e481d6c946d12b",
                    "callData": "0x0000000000000000000000007be8076f4ea4a4ad08075c2508e481d6c946d12b00000000000000000000000069bab6810fa99475854bca0a3dd72ae6a0728ece00000000000000000000000000000000000000000000000000000000000000000000000000000000000000005b3256965e7c3cf26e11fcaf296dfc8807c01073000000000000000000000000bc4ca0eda7647a8ab7c2061c2e118a18a936f13d0000000000000000000000000000000000000000000000000000000000000000000000000000000000000000000000000000000000000000000000000000000000000000000000000000000000000000000000000000000000000000000001f4000000000000000000000000000000000000000000000000000000000000000000000000000000000000000000000000000000000000000000000000000000000000000000000000000000000000000000000000000000000000000000000000000000000000000000000000000000000000000000000003bd913e6c1df4000000000000000000000000000000000000000000000000000000000000000000000000000000000000000000000000000000000000000000000000000060c7d87a0000000000000000000000000000000000000000000000000000000000000000ab02c5c1d42803672c15f8aa9214d783528a2a317346834d5d627f706106e6a80000000000000000000000000000000000000000000000000000000000000001000000000000000000000000000000000000000000000000000000000000000100000000000000000000000000000000000000000000000000000000000000000000000000000000000000000000000000000000000000000000000000000000000000000000000000000000000000000000000000000000000000000000034000000000000000000000000000000000000000000000000000000000000003e00000000000000000000000000000000000000000000000000000000000000480000000000000000000000000000000000000000000000000000000000000001b9d4506e35b6fe34419dc7fea87257dbbd6cc5b904d879913b85ca8df78eeee974f96a05e4a1e5acd98bd2e48478607c4c704863899c0450c1a6243bc19b6b357000000000000000000000000000000000000000000000000000000000000006423b872dd00000000000000000000000069bab6810fa99475854bca0a3dd72ae6a0728ece00000000000000000000000000000000000000000000000000000000000000000000000000000000000000000000000000000000000000000000000000001c95000000000000000000000000000000000000000000000000000000000000000000000000000000000000000000000000000000000000000000000064000000000000000000000000000000000000000000000000000000000000000000000000ffffffffffffffffffffffffffffffffffffffffffffffffffffffffffffffff0000000000000000000000000000000000000000000000000000000000000000000000000000000000000000000000000000000000000000000000000000000000000000000000000000000000000000000000000000000000000000",
                    "decodedMethod": {
                        "callParams": [
                            {
                                "name": "addrs",
                                "type": "address[7]",
                                "value": [
                                    "0x7be8076f4ea4a4ad08075c2508e481d6c946d12b",
                                    "0x69bab6810fa99475854bca0a3dd72ae6a0728ece",
                                    "0x0000000000000000000000000000000000000000",
                                    "0x5b3256965e7c3cf26e11fcaf296dfc8807c01073",
                                    "0xbc4ca0eda7647a8ab7c2061c2e118a18a936f13d",
                                    "0x0000000000000000000000000000000000000000",
                                    "0x0000000000000000000000000000000000000000"
                                ]
                            },
                            {
                                "name": "uints",
                                "type": "uint256[9]",
                                "value": [
                                    "500",
                                    "0",
                                    "0",
                                    "0",
                                    "69,000,000,000,000,000,000",
                                    "0",
                                    "1,623,709,818",
                                    "0",
                                    "77,350,395,671,510,800,029,381,131,465,613,562,903,736,005,002,643,045,076,787,778,675,372,481,504,936"
                                ]
                            },
                            {
                                "name": "feeMethod",
                                "type": "uint8",
                                "value": "1"
                            },
                            {
                                "name": "side",
                                "type": "uint8",
                                "value": "1"
                            },
                            {
                                "name": "saleKind",
                                "type": "uint8",
                                "value": "0"
                            },
                            {
                                "name": "howToCall",
                                "type": "uint8",
                                "value": "0"
                            },
                            {
                                "name": "calldata",
                                "type": "bytes",
                                "value": "0x23b872dd00000000000000000000000069bab6810fa99475854bca0a3dd72ae6a0728ece00000000000000000000000000000000000000000000000000000000000000000000000000000000000000000000000000000000000000000000000000001c95"
                            },
                            {
                                "name": "replacementPattern",
                                "type": "bytes",
                                "value": "0x000000000000000000000000000000000000000000000000000000000000000000000000ffffffffffffffffffffffffffffffffffffffffffffffffffffffffffffffff0000000000000000000000000000000000000000000000000000000000000000"
                            },
                            {
                                "name": "staticExtradata",
                                "type": "bytes",
                                "value": "0x"
                            },
                            {
                                "name": "v",
                                "type": "uint8",
                                "value": "27"
                            },
                            {
                                "name": "r",
                                "type": "bytes32",
                                "value": "0x9d4506e35b6fe34419dc7fea87257dbbd6cc5b904d879913b85ca8df78eeee97"
                            },
                            {
                                "name": "s",
                                "type": "bytes32",
                                "value": "0x4f96a05e4a1e5acd98bd2e48478607c4c704863899c0450c1a6243bc19b6b357"
                            }
                        ],
                        "constructorArguments": "",
                        "name": "cancelOrder_",
                        "returnParams": [],
                        "signature": "cancelOrder_(address[7],uint256[9],uint8,uint8,uint8,uint8,bytes,bytes,bytes,uint8,bytes32,bytes32)"
                    },
                    "errorInfo": "",
                    "fromAddress": "0x69bab6810fa99475854bca0a3dd72ae6a0728ece",
                    "gasUsed": 74938,
                    "id": 0,
                    "methodDecoded": true,
                    "operation": "CALL",
                    "output": "",
                    "revert": false,
                    "revertMessage": "",
                    "selector": "0xa8a41c70",
                    "status": true,
                    "value": "0"
                },
                "nodeType": 0
            },
            "1": {
                "invocation": {
                    "address": "0x0000000000000000000000000000000000000001",
                    "callData": "0x4d0e262e2de4e30d3a48eb2b71b7e357e2a9e82bf2ad09388fcaec95000000000000000000000000000000000000000000000000000000000000001b9d4506e35b6fe34419dc7fea87257dbbd6cc5b904d879913b85ca8df78eeee974f96a05e4a1e5acd98bd2e48478607c4c704863899c0450c1a6243bc19b6b357",
                    "decodedMethod": {
                        "callParams": [
                            {
                                "name": "hash",
                                "type": "bytes32",
                                "value": "0x5622157e4d0e262e2de4e30d3a48eb2b71b7e357e2a9e82bf2ad09388fcaec95"
                            },
                            {
                                "name": "v",
                                "type": "uint256",
                                "value": "27"
                            },
                            {
                                "name": "r",
                                "type": "bytes32",
                                "value": "0x9d4506e35b6fe34419dc7fea87257dbbd6cc5b904d879913b85ca8df78eeee97"
                            },
                            {
                                "name": "s",
                                "type": "bytes32",
                                "value": "0x4f96a05e4a1e5acd98bd2e48478607c4c704863899c0450c1a6243bc19b6b357"
                            }
                        ],
                        "constructorArguments": "",
                        "name": "ecrecover",
                        "returnParams": [
                            {
                                "name": "",
                                "type": "address",
                                "value": "0x69bab6810fa99475854bca0a3dd72ae6a0728ece"
                            }
                        ],
                        "signature": "ecrecover(bytes32,uint256,bytes32,bytes32)"
                    },
                    "errorInfo": "",
                    "fromAddress": "0x7be8076f4ea4a4ad08075c2508e481d6c946d12b",
                    "gasUsed": 3000,
                    "id": 1,
                    "methodDecoded": true,
                    "operation": "CALL",
                    "output": "0x00000000000000000000000069bab6810fa99475854bca0a3dd72ae6a0728ece",
                    "revert": false,
                    "revertMessage": "",
                    "selector": "0x5622157e",
                    "status": true,
                    "value": "0"
                },
                "nodeType": 0
            },
            "2": {
                "event": {
                    "contract": "0x7be8076f4ea4a4ad08075c2508e481d6c946d12b",
                    "decodedLog": {
                        "name": "OrderCancelled",
                        "params": [
                            {
                                "name": "hash",
                                "type": "bytes32",
                                "value": "0x5622157e4d0e262e2de4e30d3a48eb2b71b7e357e2a9e82bf2ad09388fcaec95"
                            }
                        ],
                        "signature": "OrderCancelled(bytes32)"
                    },
                    "id": 2,
                    "logData": "0x",
                    "logDecoded": true,
                    "operation": "EVENT",
                    "revert": false,
                    "status": true,
                    "topics": [
                        "0x5152abf959f6564662358c2e52b702259b78bac5ee7842a0f01937e670efcc7d",
                        "0x5622157e4d0e262e2de4e30d3a48eb2b71b7e357e2a9e82bf2ad09388fcaec95"
                    ]
                },
                "nodeType": 1
            }
        },
        "gasFlame": [
            {
                "children": [
                    {
                        "children": [
                            {
                                "children": [],
                                "depth": 0,
                                "name": "Initial Gas",
                                "value": 28896
                            },
                            {
                                "children": [
                                    {
                                        "children": [],
                                        "depth": 1,
                                        "name": "ecrecover",
                                        "value": 3000
                                    }
                                ],
                                "depth": 0,
                                "name": "Executed Gas",
                                "value": 46042
                            }
                        ],
                        "depth": -1,
                        "name": "Actual Gas Used",
                        "value": 74938
                    },
                    {
                        "children": [],
                        "depth": -1,
                        "name": "Refunded Gas",
                        "value": 0
                    }
                ],
                "depth": -2,
                "name": "Total Gas",
                "value": 74938
            }
        ],
        "isConfirmed": true,
        "mainTrace": [
            {
                "children": [
                    {
                        "children": [
                            {
                                "children": [],
                                "depth": 1,
                                "id": 1,
                                "order": 1
                            },
                            {
                                "children": [],
                                "depth": 1,
                                "id": 2,
                                "order": 2
                            }
                        ],
                        "depth": 0,
                        "id": 0,
                        "order": 0
                    }
                ],
                "depth": -1,
                "id": -1,
                "order": -1
            }
        ],
        "mainTraceNodeCount": 3,
        "parentIdMap": {
            "0": -1,
            "1": 0,
            "2": 0
        },
        "tidyTrace": [
            {
                "children": [
                    {
                        "children": [
                            {
                                "children": [],
                                "depth": 1,
                                "id": 1,
                                "order": 1
                            },
                            {
                                "children": [],
                                "depth": 1,
                                "id": 2,
                                "order": 2
                            }
                        ],
                        "depth": 0,
                        "id": 0,
                        "order": 0
                    }
                ],
                "depth": -1,
                "id": -1,
                "order": -1
            }
        ],
        "tidyTraceNodeCount": 3
    },
    "state_change": {
        "stateChanges": [
            {
                "address": "0x7be8076f4ea4a4ad08075c2508e481d6c946d12b",
                "erc": "",
                "slots": [
                    {
                        "current": "0x0000000000000000000000000000000000000000000000000000000000000001",
                        "key": "0x249f3a62f56f7079e22e75bf173dfaae44fccecfd15623d94664b7619131e907",
                        "prev": "0x0000000000000000000000000000000000000000000000000000000000000000"
                    }
                ],
                "storageVariables": [
                    {
                        "name": "cancelledOrFinalized",
                        "type": "mapping(bytes32 => bool)",
                        "value": {
                            "pairs": [
                                {
                                    "key": "0x5622157e4d0e262e2de4e30d3a48eb2b71b7e357e2a9e82bf2ad09388fcaec95",
                                    "value": {
                                        "current": "true",
                                        "prev": "false",
                                        "typeTag": 1
                                    }
                                }
                            ],
                            "typeTag": 4
                        }
                    }
                ]
            }
        ]
    }
}