{
    "balance_change": {
        "balanceChanges": []
    },
    "profile": {
        "basic_info": {
            "baseFee": "6.051556695",
            "blockNumber": 15185860,
            "callData": "0x1cff79cd0000000000000000000000009abb44a332fe94b6d91582c002115818dc97d7fd00000000000000000000000000000000000000000000000000000000000000400000000000000000000000000000000000000000000000000000000000000164ad6080fe00000000000000000000000096646936b91d6b9d7d0c47c496afbf3d6ec7b6f8000000000000000000000000c02aaa39b223fe8d0a0e5c4f27ead9083c756cc2000000000000000000000000a0b86991c6218b36c1d19d4a2e9eb0ce3606eb4800000000000000000000000056178a0d5f301baf6cf3e1cd53d9863437345bf90000000000000000000000000000000000000000000000000853a0d2313c000000000000000000000000000000000000000000000000001043561a882930000000000000000000000000000000000000000000000089dd0a1aa2c011e97cf80000000000000000000000000000000000000000000000000014cbc6e7d25edff60000000000000000000000000000000000000000000000000de0b6b3a76400000000000000000000000000000000000000000000000000000000000062d944c0000000000000000000000000000000000000000000000000000000000000000000000000000000000000000000000000000000000000000000000000",
            "debugEnable": true,
            "errorInfo": "execution reverted",
            "eventCount": 0,
            "feeRecipient": "0x829bd824b016326a401d083b33d092293333a830",
            "formatValue": "0.000000000000002823",
            "gasLimit": 800000,
            "gasPrice": "10.051556695",
            "gasUsed": 122289,
            "intTxnCount": 18,
            "internalRevert": true,
            "internalRevertMessage": "",
            "isContractCreation": false,
            "isFlashloan": false,
            "maxFee": "12.599948045",
            "nonce": 40709,
            "overwritedBlockNumber": -1,
            "priorityFee": "4",
            "receiver": "0xa57bd00134b2850b2a1c55860c9e9ea100fdd6cf",
            "revertMessage": "",
            "sender": "0x69181a03fd84d1e2679eb520dfde72c97e1ce524",
            "simulationEnable": true,
            "sourceTxnHash": "0xee4279d6c5c99f7ad7415a632f737b320b1c0abaac0fe9e151e1617f40cbff1f",
            "status": false,
            "timestamp": "2022-07-21T12:19:15Z",
            "transactionFee": "0.001229194816674855",
            "txnHash": "0xee4279d6c5c99f7ad7415a632f737b320b1c0abaac0fe9e151e1617f40cbff1f",
            "txnIndex": 148,
            "type": 2,
            "value": "2823"
        },
        "fund_flow": [],
        "token_infos": [
            {
                "address": "0xc02aaa39b223fe8d0a0e5c4f27ead9083c756cc2",
                "decimals": 18
            },
            {
                "address": "0xeeeeeeeeeeeeeeeeeeeeeeeeeeeeeeeeeeeeeeee",
                "decimals": 18
            }
        ]
    },
    "address_label": {
        "labels": [
            {
                "address": "0xeeeeeeeeeeeeeeeeeeeeeeeeeeeeeeeeeeeeeeee",
                "label": "Ether"
            },
            {
                "address": "0x96646936b91d6b9d7d0c47c496afbf3d6ec7b6f8",
                "label": "Balancer 50 USDC 50 WETH (B-50USDC-...)"
            },
            {
                "address": "0xba12222222228d8ba445958a75a0704d566bf2c8",
                "label": "Balancer: Vault"
            },
            {
                "address": "0xc02aaa39b223fe8d0a0e5c4f27ead9083c756cc2",
                "label": "Wrapped Ether (WETH)"
            },
            {
                "address": "0xa0b86991c6218b36c1d19d4a2e9eb0ce3606eb48",
                "label": "Circle: USDC Token"
            },
            {
                "address": "0x0000000000000000000000000000000000000003",
                "label": "Precompiled"
            },
            {
                "address": "0xa2327a938febf5fec13bacfb16ae10ecbc4cbdcf",
                "label": "FiatTokenV2_1"
            },
            {
                "address": "0xa57bd00134b2850b2a1c55860c9e9ea100fdd6cf",
                "label": "MEV Bot: 0xa57...6CF"
            },
            {
                "address": "0x0000000000000000000000000000000000000001",
                "label": "Precompiled"
            },
            {
                "address": "0x0000000000000000000000000000000000000002",
                "label": "Precompiled"
            },
            {
                "address": "0x0000000000000000000000000000000000000004",
                "label": "Precompiled"
            }
        ]
    },
    "trace": {
        "accountLabels": null,
        "dataMap": {
            "-1": {
                "invocation": {
                    "address": "0x69181a03fd84d1e2679eb520dfde72c97e1ce524",
                    "callData": "",
                    "decodedMethod": null,
                    "errorInfo": "",
                    "fromAddress": "",
                    "gasUsed": 0,
                    "id": -1,
                    "methodDecoded": false,
                    "operation": "",
                    "output": "",
                    "revert": false,
                    "revertMessage": "",
                    "selector": "",
                    "status": false,
                    "value": ""
                },
                "nodeType": 0
            },
            "0": {
                "invocation": {
                    "address": "0xa57bd00134b2850b2a1c55860c9e9ea100fdd6cf",
                    "callData": "0x0000000000000000000000009abb44a332fe94b6d91582c002115818dc97d7fd00000000000000000000000000000000000000000000000000000000000000400000000000000000000000000000000000000000000000000000000000000164ad6080fe00000000000000000000000096646936b91d6b9d7d0c47c496afbf3d6ec7b6f8000000000000000000000000c02aaa39b223fe8d0a0e5c4f27ead9083c756cc2000000000000000000000000a0b86991c6218b36c1d19d4a2e9eb0ce3606eb4800000000000000000000000056178a0d5f301baf6cf3e1cd53d9863437345bf90000000000000000000000000000000000000000000000000853a0d2313c000000000000000000000000000000000000000000000000001043561a882930000000000000000000000000000000000000000000000089dd0a1aa2c011e97cf80000000000000000000000000000000000000000000000000014cbc6e7d25edff60000000000000000000000000000000000000000000000000de0b6b3a76400000000000000000000000000000000000000000000000000000000000062d944c0000000000000000000000000000000000000000000000000000000000000000000000000000000000000000000000000000000000000000000000000",
                    "decodedMethod": {
                        "callParams": [
                            {
                                "name": "_target",
                                "type": "address",
                                "value": "0x9abb44a332fe94b6d91582c002115818dc97d7fd"
                            },
                            {
                                "name": "_data",
                                "type": "bytes",
                                "value": "0xad6080fe00000000000000000000000096646936b91d6b9d7d0c47c496afbf3d6ec7b6f8000000000000000000000000c02aaa39b223fe8d0a0e5c4f27ead9083c756cc2000000000000000000000000a0b86991c6218b36c1d19d4a2e9eb0ce3606eb4800000000000000000000000056178a0d5f301baf6cf3e1cd53d9863437345bf90000000000000000000000000000000000000000000000000853a0d2313c000000000000000000000000000000000000000000000000001043561a882930000000000000000000000000000000000000000000000089dd0a1aa2c011e97cf80000000000000000000000000000000000000000000000000014cbc6e7d25edff60000000000000000000000000000000000000000000000000de0b6b3a76400000000000000000000000000000000000000000000000000000000000062d944c00000000000000000000000000000000000000000000000000000000000000000"
                            }
                        ],
                        "constructorArguments": "",
                        "name": "execute",
                        "returnParams": [],
                        "signature": "execute(address,bytes)"
                    },
                    "errorInfo": "execution reverted",
                    "fromAddress": "0x69181a03fd84d1e2679eb520dfde72c97e1ce524",
                    "gasUsed": 122289,
                    "id": 0,
                    "methodDecoded": true,
                    "operation": "CALL",
                    "output": "",
                    "revert": true,
                    "revertMessage": "",
                    "selector": "0x1cff79cd",
                    "status": false,
                    "value": "0.000000000000002823"
                },
                "nodeType": 0
            },
            "1": {
                "invocation": {
                    "address": "0x9abb44a332fe94b6d91582c002115818dc97d7fd",
                    "callData": "0x00000000000000000000000096646936b91d6b9d7d0c47c496afbf3d6ec7b6f8000000000000000000000000c02aaa39b223fe8d0a0e5c4f27ead9083c756cc2000000000000000000000000a0b86991c6218b36c1d19d4a2e9eb0ce3606eb4800000000000000000000000056178a0d5f301baf6cf3e1cd53d9863437345bf90000000000000000000000000000000000000000000000000853a0d2313c000000000000000000000000000000000000000000000000001043561a882930000000000000000000000000000000000000000000000089dd0a1aa2c011e97cf80000000000000000000000000000000000000000000000000014cbc6e7d25edff60000000000000000000000000000000000000000000000000de0b6b3a76400000000000000000000000000000000000000000000000000000000000062d944c00000000000000000000000000000000000000000000000000000000000000000",
                    "decodedMethod": null,
                    "errorInfo": "execution reverted",
                    "fromAddress": "0xa57bd00134b2850b2a1c55860c9e9ea100fdd6cf",
                    "gasUsed": 92032,
                    "id": 1,
                    "methodDecoded": false,
                    "operation": "DELEGATECALL",
                    "output": "0x08c379a0000000000000000000000000000000000000000000000000000000000000002000000000000000000000000000000000000000000000000000000000000000023236000000000000000000000000000000000000000000000000000000000000",
                    "revert": true,
                    "revertMessage": "26",
                    "selector": "0xad6080fe",
                    "status": false,
                    "value": "0.000000000000002823"
                },
                "nodeType": 0
            },
            "10": {
                "invocation": {
                    "address": "0x2a76956326f9053badf251fd4ab150afb7d4f32d",
                    "callData": "0x0000000000000000000000000000000000000000000000000e3b03aa7e2731ca0000000000000000000000000000000000000000000000000de0b6b3a7640000",
                    "decodedMethod": {
                        "callParams": [
                            {
                                "name": "n",
                                "type": "uint256",
                                "value": "1,025,417,370,952,741,322"
                            },
                            {
                                "name": "e",
                                "type": "uint256",
                                "value": "1,000,000,000,000,000,000"
                            }
                        ],
                        "constructorArguments": "",
                        "name": "pow",
                        "returnParams": [
                            {
                                "name": "",
                                "type": "uint256",
                                "value": "1,025,417,370,952,741,321"
                            }
                        ],
                        "signature": "pow(uint256,uint256)"
                    },
                    "errorInfo": "",
                    "fromAddress": "0xa57bd00134b2850b2a1c55860c9e9ea100fdd6cf",
                    "gasUsed": 1917,
                    "id": 10,
                    "methodDecoded": true,
                    "operation": "CALL",
                    "output": "0x0000000000000000000000000000000000000000000000000e3b03aa7e2731c9",
                    "revert": true,
                    "revertMessage": "",
                    "selector": "0x2e4c697f",
                    "status": true,
                    "value": "0"
                },
                "nodeType": 0
            },
            "11": {
                "invocation": {
                    "address": "0x2a76956326f9053badf251fd4ab150afb7d4f32d",
                    "callData": "0x0000000000000000000000000000000000000000000000000e0da80b931d5aa60000000000000000000000000000000000000000000000000de0b6b3a7640000",
                    "decodedMethod": {
                        "callParams": [
                            {
                                "name": "n",
                                "type": "uint256",
                                "value": "1,012,650,258,894,510,758"
                            },
                            {
                                "name": "e",
                                "type": "uint256",
                                "value": "1,000,000,000,000,000,000"
                            }
                        ],
                        "constructorArguments": "",
                        "name": "pow",
                        "returnParams": [
                            {
                                "name": "",
                                "type": "uint256",
                                "value": "1,012,650,258,894,510,757"
                            }
                        ],
                        "signature": "pow(uint256,uint256)"
                    },
                    "errorInfo": "",
                    "fromAddress": "0xa57bd00134b2850b2a1c55860c9e9ea100fdd6cf",
                    "gasUsed": 1917,
                    "id": 11,
                    "methodDecoded": true,
                    "operation": "CALL",
                    "output": "0x0000000000000000000000000000000000000000000000000e0da80b931d5aa5",
                    "revert": true,
                    "revertMessage": "",
                    "selector": "0x2e4c697f",
                    "status": true,
                    "value": "0"
                },
                "nodeType": 0
            },
            "12": {
                "invocation": {
                    "address": "0x2a76956326f9053badf251fd4ab150afb7d4f32d",
                    "callData": "0x0000000000000000000000000000000000000000000000000df765fe3fb208b90000000000000000000000000000000000000000000000000de0b6b3a7640000",
                    "decodedMethod": {
                        "callParams": [
                            {
                                "name": "n",
                                "type": "uint256",
                                "value": "1,006,385,184,405,326,009"
                            },
                            {
                                "name": "e",
                                "type": "uint256",
                                "value": "1,000,000,000,000,000,000"
                            }
                        ],
                        "constructorArguments": "",
                        "name": "pow",
                        "returnParams": [
                            {
                                "name": "",
                                "type": "uint256",
                                "value": "1,006,385,184,405,326,008"
                            }
                        ],
                        "signature": "pow(uint256,uint256)"
                    },
                    "errorInfo": "",
                    "fromAddress": "0xa57bd00134b2850b2a1c55860c9e9ea100fdd6cf",
                    "gasUsed": 1917,
                    "id": 12,
                    "methodDecoded": true,
                    "operation": "CALL",
                    "output": "0x0000000000000000000000000000000000000000000000000df765fe3fb208b8",
                    "revert": true,
                    "revertMessage": "",
                    "selector": "0x2e4c697f",
                    "status": true,
                    "value": "0"
                },
                "nodeType": 0
            },
            "13": {
                "invocation": {
                    "address": "0x2a76956326f9053badf251fd4ab150afb7d4f32d",
                    "callData": "0x0000000000000000000000000000000000000000000000000dec5f533e4ac2b80000000000000000000000000000000000000000000000000de0b6b3a7640000",
                    "decodedMethod": {
                        "callParams": [
                            {
                                "name": "n",
                                "type": "uint256",
                                "value": "1,003,281,628,128,789,176"
                            },
                            {
                                "name": "e",
                                "type": "uint256",
                                "value": "1,000,000,000,000,000,000"
                            }
                        ],
                        "constructorArguments": "",
                        "name": "pow",
                        "returnParams": [
                            {
                                "name": "",
                                "type": "uint256",
                                "value": "1,003,281,628,128,789,175"
                            }
                        ],
                        "signature": "pow(uint256,uint256)"
                    },
                    "errorInfo": "",
                    "fromAddress": "0xa57bd00134b2850b2a1c55860c9e9ea100fdd6cf",
                    "gasUsed": 1917,
                    "id": 13,
                    "methodDecoded": true,
                    "operation": "CALL",
                    "output": "0x0000000000000000000000000000000000000000000000000dec5f533e4ac2b7",
                    "revert": true,
                    "revertMessage": "",
                    "selector": "0x2e4c697f",
                    "status": true,
                    "value": "0"
                },
                "nodeType": 0
            },
            "14": {
                "invocation": {
                    "address": "0x2a76956326f9053badf251fd4ab150afb7d4f32d",
                    "callData": "0x0000000000000000000000000000000000000000000000000de6e28279a832bf0000000000000000000000000000000000000000000000000de0b6b3a7640000",
                    "decodedMethod": {
                        "callParams": [
                            {
                                "name": "n",
                                "type": "uint256",
                                "value": "1,001,737,017,151,206,079"
                            },
                            {
                                "name": "e",
                                "type": "uint256",
                                "value": "1,000,000,000,000,000,000"
                            }
                        ],
                        "constructorArguments": "",
                        "name": "pow",
                        "returnParams": [
                            {
                                "name": "",
                                "type": "uint256",
                                "value": "1,001,737,017,151,206,078"
                            }
                        ],
                        "signature": "pow(uint256,uint256)"
                    },
                    "errorInfo": "",
                    "fromAddress": "0xa57bd00134b2850b2a1c55860c9e9ea100fdd6cf",
                    "gasUsed": 1917,
                    "id": 14,
                    "methodDecoded": true,
                    "operation": "CALL",
                    "output": "0x0000000000000000000000000000000000000000000000000de6e28279a832be",
                    "revert": true,
                    "revertMessage": "",
                    "selector": "0x2e4c697f",
                    "status": true,
                    "value": "0"
                },
                "nodeType": 0
            },
            "15": {
                "invocation": {
                    "address": "0x2a76956326f9053badf251fd4ab150afb7d4f32d",
                    "callData": "0x0000000000000000000000000000000000000000000000000de425b907512d400000000000000000000000000000000000000000000000000de0b6b3a7640000",
                    "decodedMethod": {
                        "callParams": [
                            {
                                "name": "n",
                                "type": "uint256",
                                "value": "1,000,966,493,805,030,720"
                            },
                            {
                                "name": "e",
                                "type": "uint256",
                                "value": "1,000,000,000,000,000,000"
                            }
                        ],
                        "constructorArguments": "",
                        "name": "pow",
                        "returnParams": [
                            {
                                "name": "",
                                "type": "uint256",
                                "value": "1,000,966,493,805,030,719"
                            }
                        ],
                        "signature": "pow(uint256,uint256)"
                    },
                    "errorInfo": "",
                    "fromAddress": "0xa57bd00134b2850b2a1c55860c9e9ea100fdd6cf",
                    "gasUsed": 1917,
                    "id": 15,
                    "methodDecoded": true,
                    "operation": "CALL",
                    "output": "0x0000000000000000000000000000000000000000000000000de425b907512d3f",
                    "revert": true,
                    "revertMessage": "",
                    "selector": "0x2e4c697f",
                    "status": true,
                    "value": "0"
                },
                "nodeType": 0
            },
            "16": {
                "invocation": {
                    "address": "0x2a76956326f9053badf251fd4ab150afb7d4f32d",
                    "callData": "0x0000000000000000000000000000000000000000000000000de2c7bbc2ad18170000000000000000000000000000000000000000000000000de0b6b3a7640000",
                    "decodedMethod": {
                        "callParams": [
                            {
                                "name": "n",
                                "type": "uint256",
                                "value": "1,000,581,676,468,606,999"
                            },
                            {
                                "name": "e",
                                "type": "uint256",
                                "value": "1,000,000,000,000,000,000"
                            }
                        ],
                        "constructorArguments": "",
                        "name": "pow",
                        "returnParams": [
                            {
                                "name": "",
                                "type": "uint256",
                                "value": "1,000,581,676,468,606,998"
                            }
                        ],
                        "signature": "pow(uint256,uint256)"
                    },
                    "errorInfo": "",
                    "fromAddress": "0xa57bd00134b2850b2a1c55860c9e9ea100fdd6cf",
                    "gasUsed": 1917,
                    "id": 16,
                    "methodDecoded": true,
                    "operation": "CALL",
                    "output": "0x0000000000000000000000000000000000000000000000000de2c7bbc2ad1816",
                    "revert": true,
                    "revertMessage": "",
                    "selector": "0x2e4c697f",
                    "status": true,
                    "value": "0"
                },
                "nodeType": 0
            },
            "17": {
                "invocation": {
                    "address": "0x2a76956326f9053badf251fd4ab150afb7d4f32d",
                    "callData": "0x0000000000000000000000000000000000000000000000000de218d6f4949c3d0000000000000000000000000000000000000000000000000de0b6b3a7640000",
                    "decodedMethod": {
                        "callParams": [
                            {
                                "name": "n",
                                "type": "uint256",
                                "value": "1,000,389,378,735,119,421"
                            },
                            {
                                "name": "e",
                                "type": "uint256",
                                "value": "1,000,000,000,000,000,000"
                            }
                        ],
                        "constructorArguments": "",
                        "name": "pow",
                        "returnParams": [
                            {
                                "name": "",
                                "type": "uint256",
                                "value": "1,000,389,378,735,119,420"
                            }
                        ],
                        "signature": "pow(uint256,uint256)"
                    },
                    "errorInfo": "",
                    "fromAddress": "0xa57bd00134b2850b2a1c55860c9e9ea100fdd6cf",
                    "gasUsed": 1917,
                    "id": 17,
                    "methodDecoded": true,
                    "operation": "CALL",
                    "output": "0x0000000000000000000000000000000000000000000000000de218d6f4949c3c",
                    "revert": true,
                    "revertMessage": "",
                    "selector": "0x2e4c697f",
                    "status": true,
                    "value": "0"
                },
                "nodeType": 0
            },
            "18": {
                "invocation": {
                    "address": "0x2a76956326f9053badf251fd4ab150afb7d4f32d",
                    "callData": "0x0000000000000000000000000000000000000000000000000de1c16b017a21950000000000000000000000000000000000000000000000000de0b6b3a7640000",
                    "decodedMethod": {
                        "callParams": [
                            {
                                "name": "n",
                                "type": "uint256",
                                "value": "1,000,293,257,583,403,413"
                            },
                            {
                                "name": "e",
                                "type": "uint256",
                                "value": "1,000,000,000,000,000,000"
                            }
                        ],
                        "constructorArguments": "",
                        "name": "pow",
                        "returnParams": [
                            {
                                "name": "",
                                "type": "uint256",
                                "value": "1,000,293,257,583,403,412"
                            }
                        ],
                        "signature": "pow(uint256,uint256)"
                    },
                    "errorInfo": "",
                    "fromAddress": "0xa57bd00134b2850b2a1c55860c9e9ea100fdd6cf",
                    "gasUsed": 1917,
                    "id": 18,
                    "methodDecoded": true,
                    "operation": "CALL",
                    "output": "0x0000000000000000000000000000000000000000000000000de1c16b017a2194",
                    "revert": true,
                    "revertMessage": "",
                    "selector": "0x2e4c697f",
                    "status": true,
                    "value": "0"
                },
                "nodeType": 0
            },
            "2": {
                "invocation": {
                    "address": "0xa0b86991c6218b36c1d19d4a2e9eb0ce3606eb48",
                    "callData": "0x00000000000000000000000056178a0d5f301baf6cf3e1cd53d9863437345bf9",
                    "decodedMethod": {
                        "callParams": [
                            {
                                "name": "account",
                                "type": "address",
                                "value": "0x56178a0d5f301baf6cf3e1cd53d9863437345bf9"
                            }
                        ],
                        "constructorArguments": "",
                        "name": "balanceOf",
                        "returnParams": [
                            {
                                "decimalAvailable": true,
                                "name": "",
                                "type": "uint256",
                                "value": "17,549,394,127,661"
                            }
                        ],
                        "signature": "balanceOf(address)"
                    },
                    "errorInfo": "",
                    "fromAddress": "0xa57bd00134b2850b2a1c55860c9e9ea100fdd6cf",
                    "gasUsed": 9815,
                    "id": 2,
                    "methodDecoded": true,
                    "operation": "CALL",
                    "output": "0x00000000000000000000000000000000000000000000000000000ff609672b2d",
                    "revert": true,
                    "revertMessage": "",
                    "selector": "0x70a08231",
                    "status": true,
                    "value": "0"
                },
                "nodeType": 0
            },
            "3": {
                "invocation": {
                    "address": "0xa2327a938febf5fec13bacfb16ae10ecbc4cbdcf",
                    "callData": "0x00000000000000000000000056178a0d5f301baf6cf3e1cd53d9863437345bf9",
                    "decodedMethod": {
                        "callParams": [
                            {
                                "name": "account",
                                "type": "address",
                                "value": "0x56178a0d5f301baf6cf3e1cd53d9863437345bf9"
                            }
                        ],
                        "constructorArguments": "",
                        "name": "balanceOf",
                        "returnParams": [
                            {
                                "decimalAvailable": true,
                                "name": "",
                                "type": "uint256",
                                "value": "17,549,394,127,661"
                            }
                        ],
                        "signature": "balanceOf(address)"
                    },
                    "errorInfo": "",
                    "fromAddress": "0xa0b86991c6218b36c1d19d4a2e9eb0ce3606eb48",
                    "gasUsed": 2529,
                    "id": 3,
                    "methodDecoded": true,
                    "operation": "DELEGATECALL",
                    "output": "0x00000000000000000000000000000000000000000000000000000ff609672b2d",
                    "revert": true,
                    "revertMessage": "",
                    "selector": "0x70a08231",
                    "status": true,
                    "value": "0"
                },
                "nodeType": 0
            },
            "4": {
                "invocation": {
                    "address": "0xc02aaa39b223fe8d0a0e5c4f27ead9083c756cc2",
                    "callData": "0x00000000000000000000000056178a0d5f301baf6cf3e1cd53d9863437345bf9",
                    "decodedMethod": {
                        "callParams": [
                            {
                                "name": "",
                                "type": "address",
                                "value": "0x56178a0d5f301baf6cf3e1cd53d9863437345bf9"
                            }
                        ],
                        "constructorArguments": "",
                        "name": "balanceOf",
                        "returnParams": [
                            {
                                "decimalAvailable": true,
                                "name": "",
                                "type": "uint256",
                                "value": "24,871,246,609,027,197,558,570"
                            }
                        ],
                        "signature": "balanceOf(address)"
                    },
                    "errorInfo": "",
                    "fromAddress": "0xa57bd00134b2850b2a1c55860c9e9ea100fdd6cf",
                    "gasUsed": 2534,
                    "id": 4,
                    "methodDecoded": true,
                    "operation": "CALL",
                    "output": "0x00000000000000000000000000000000000000000000054445e20965ecbfdf2a",
                    "revert": true,
                    "revertMessage": "",
                    "selector": "0x70a08231",
                    "status": true,
                    "value": "0"
                },
                "nodeType": 0
            },
            "5": {
                "invocation": {
                    "address": "0x96646936b91d6b9d7d0c47c496afbf3d6ec7b6f8",
                    "callData": "0x",
                    "decodedMethod": {
                        "callParams": [],
                        "constructorArguments": "",
                        "name": "getPoolId",
                        "returnParams": [
                            {
                                "name": "",
                                "type": "bytes32",
                                "value": "0x96646936b91d6b9d7d0c47c496afbf3d6ec7b6f8000200000000000000000019"
                            }
                        ],
                        "signature": "getPoolId()"
                    },
                    "errorInfo": "",
                    "fromAddress": "0xa57bd00134b2850b2a1c55860c9e9ea100fdd6cf",
                    "gasUsed": 296,
                    "id": 5,
                    "methodDecoded": true,
                    "operation": "CALL",
                    "output": "0x96646936b91d6b9d7d0c47c496afbf3d6ec7b6f8000200000000000000000019",
                    "revert": true,
                    "revertMessage": "",
                    "selector": "0x38fff2d0",
                    "status": true,
                    "value": "0"
                },
                "nodeType": 0
            },
            "6": {
                "invocation": {
                    "address": "0xba12222222228d8ba445958a75a0704d566bf2c8",
                    "callData": "0x96646936b91d6b9d7d0c47c496afbf3d6ec7b6f8000200000000000000000019",
                    "decodedMethod": {
                        "callParams": [
                            {
                                "name": "poolId",
                                "type": "bytes32",
                                "value": "0x96646936b91d6b9d7d0c47c496afbf3d6ec7b6f8000200000000000000000019"
                            }
                        ],
                        "constructorArguments": "",
                        "name": "getPoolTokens",
                        "returnParams": [
                            {
                                "name": "tokens",
                                "type": "address[]",
                                "value": [
                                    "0xa0b86991c6218b36c1d19d4a2e9eb0ce3606eb48",
                                    "0xc02aaa39b223fe8d0a0e5c4f27ead9083c756cc2"
                                ]
                            },
                            {
                                "name": "balances",
                                "type": "uint256[]",
                                "value": [
                                    "4,567,424,167,101",
                                    "3,043,892,335,766,537,838,780"
                                ]
                            },
                            {
                                "name": "lastChangeBlock",
                                "type": "uint256",
                                "value": "15,185,860"
                            }
                        ],
                        "signature": "getPoolTokens(bytes32)"
                    },
                    "errorInfo": "",
                    "fromAddress": "0xa57bd00134b2850b2a1c55860c9e9ea100fdd6cf",
                    "gasUsed": 15081,
                    "id": 6,
                    "methodDecoded": true,
                    "operation": "CALL",
                    "output": "0x000000000000000000000000000000000000000000000000000000000000006000000000000000000000000000000000000000000000000000000000000000c00000000000000000000000000000000000000000000000000000000000e7b7c40000000000000000000000000000000000000000000000000000000000000002000000000000000000000000a0b86991c6218b36c1d19d4a2e9eb0ce3606eb48000000000000000000000000c02aaa39b223fe8d0a0e5c4f27ead9083c756cc20000000000000000000000000000000000000000000000000000000000000002000000000000000000000000000000000000000000000000000004276fb1ecbd0000000000000000000000000000000000000000000000a5027df0259a8920bc",
                    "revert": true,
                    "revertMessage": "",
                    "selector": "0xf94d4668",
                    "status": true,
                    "value": "0"
                },
                "nodeType": 0
            },
            "7": {
                "invocation": {
                    "address": "0x96646936b91d6b9d7d0c47c496afbf3d6ec7b6f8",
                    "callData": "0x00000000000000000000000000000000000000000000000000000000",
                    "decodedMethod": {
                        "callParams": [],
                        "constructorArguments": "",
                        "name": "getNormalizedWeights",
                        "returnParams": [
                            {
                                "name": "",
                                "type": "uint256[]",
                                "value": [
                                    "500,000,000,000,000,000",
                                    "500,000,000,000,000,000"
                                ]
                            }
                        ],
                        "signature": "getNormalizedWeights()"
                    },
                    "errorInfo": "",
                    "fromAddress": "0xa57bd00134b2850b2a1c55860c9e9ea100fdd6cf",
                    "gasUsed": 1043,
                    "id": 7,
                    "methodDecoded": true,
                    "operation": "CALL",
                    "output": "0x0000000000000000000000000000000000000000000000000000000000000020000000000000000000000000000000000000000000000000000000000000000200000000000000000000000000000000000000000000000006f05b59d3b2000000000000000000000000000000000000000000000000000006f05b59d3b20000",
                    "revert": true,
                    "revertMessage": "",
                    "selector": "0xf89f27ed",
                    "status": true,
                    "value": "0"
                },
                "nodeType": 0
            },
            "8": {
                "invocation": {
                    "address": "0x96646936b91d6b9d7d0c47c496afbf3d6ec7b6f8",
                    "callData": "0x",
                    "decodedMethod": {
                        "callParams": [],
                        "constructorArguments": "",
                        "name": "getSwapFeePercentage",
                        "returnParams": [
                            {
                                "name": "",
                                "type": "uint256",
                                "value": "750,000,000,000,000"
                            }
                        ],
                        "signature": "getSwapFeePercentage()"
                    },
                    "errorInfo": "",
                    "fromAddress": "0xa57bd00134b2850b2a1c55860c9e9ea100fdd6cf",
                    "gasUsed": 2539,
                    "id": 8,
                    "methodDecoded": true,
                    "operation": "CALL",
                    "output": "0x0000000000000000000000000000000000000000000000000002aa1efb94e000",
                    "revert": true,
                    "revertMessage": "",
                    "selector": "0x55c67628",
                    "status": true,
                    "value": "0"
                },
                "nodeType": 0
            },
            "9": {
                "invocation": {
                    "address": "0x2a76956326f9053badf251fd4ab150afb7d4f32d",
                    "callData": "0x0000000000000000000000000000000000000000000000000e993fff932c12000000000000000000000000000000000000000000000000000de0b6b3a7640000",
                    "decodedMethod": {
                        "callParams": [
                            {
                                "name": "n",
                                "type": "uint256",
                                "value": "1,051,942,354,886,070,784"
                            },
                            {
                                "name": "e",
                                "type": "uint256",
                                "value": "1,000,000,000,000,000,000"
                            }
                        ],
                        "constructorArguments": "",
                        "name": "pow",
                        "returnParams": [
                            {
                                "name": "",
                                "type": "uint256",
                                "value": "1,051,942,354,886,070,783"
                            }
                        ],
                        "signature": "pow(uint256,uint256)"
                    },
                    "errorInfo": "",
                    "fromAddress": "0xa57bd00134b2850b2a1c55860c9e9ea100fdd6cf",
                    "gasUsed": 1917,
                    "id": 9,
                    "methodDecoded": true,
                    "operation": "CALL",
                    "output": "0x0000000000000000000000000000000000000000000000000e993fff932c11ff",
                    "revert": true,
                    "revertMessage": "",
                    "selector": "0x2e4c697f",
                    "status": true,
                    "value": "0"
                },
                "nodeType": 0
            }
        },
        "gasFlame": [
            {
                "children": [
                    {
                        "children": [
                            {
                                "children": [],
                                "depth": 0,
                                "name": "Initial Gas",
                                "value": 24760
                            },
                            {
                                "children": [
                                    {
                                        "children": [
                                            {
                                                "children": [
                                                    {
                                                        "children": [],
                                                        "depth": 3,
                                                        "name": "balanceOf",
                                                        "value": 2529
                                                    }
                                                ],
                                                "depth": 2,
                                                "name": "balanceOf",
                                                "value": 9815
                                            },
                                            {
                                                "children": [],
                                                "depth": 2,
                                                "name": "balanceOf",
                                                "value": 2534
                                            },
                                            {
                                                "children": [],
                                                "depth": 2,
                                                "name": "getPoolId",
                                                "value": 296
                                            },
                                            {
                                                "children": [],
                                                "depth": 2,
                                                "name": "getPoolTokens",
                                                "value": 15081
                                            },
                                            {
                                                "children": [],
                                                "depth": 2,
                                                "name": "getNormalizedWeights",
                                                "value": 1043
                                            },
                                            {
                                                "children": [],
                                                "depth": 2,
                                                "name": "getSwapFeePercentage",
                                                "value": 2539
                                            },
                                            {
                                                "children": [],
                                                "depth": 2,
                                                "name": "pow",
                                                "value": 1917
                                            },
                                            {
                                                "children": [],
                                                "depth": 2,
                                                "name": "pow",
                                                "value": 1917
                                            },
                                            {
                                                "children": [],
                                                "depth": 2,
                                                "name": "pow",
                                                "value": 1917
                                            },
                                            {
                                                "children": [],
                                                "depth": 2,
                                                "name": "pow",
                                                "value": 1917
                                            },
                                            {
                                                "children": [],
                                                "depth": 2,
                                                "name": "pow",
                                                "value": 1917
                                            },
                                            {
                                                "children": [],
                                                "depth": 2,
                                                "name": "pow",
                                                "value": 1917
                                            },
                                            {
                                                "children": [],
                                                "depth": 2,
                                                "name": "pow",
                                                "value": 1917
                                            },
                                            {
                                                "children": [],
                                                "depth": 2,
                                                "name": "pow",
                                                "value": 1917
                                            },
                                            {
                                                "children": [],
                                                "depth": 2,
                                                "name": "pow",
                                                "value": 1917
                                            },
                                            {
                                                "children": [],
                                                "depth": 2,
                                                "name": "pow",
                                                "value": 1917
                                            }
                                        ],
                                        "depth": 1,
                                        "name": "0xad6080fe",
                                        "value": 92032
                                    }
                                ],
                                "depth": 0,
                                "name": "Executed Gas",
                                "value": 97529
                            }
                        ],
                        "depth": -1,
                        "name": "Actual Gas Used",
                        "value": 122289
                    },
                    {
                        "children": [],
                        "depth": -1,
                        "name": "Refunded Gas",
                        "value": 0
                    }
                ],
                "depth": -2,
                "name": "Total Gas",
                "value": 122289
            }
        ],
        "isConfirmed": true,
        "mainTrace": [
            {
                "children": [
                    {
                        "children": [
                            {
                                "children": [
                                    {
                                        "children": [
                                            {
                                                "children": [],
                                                "depth": 3,
                                                "id": 3,
                                                "order": 3
                                            }
                                        ],
                                        "depth": 2,
                                        "id": 2,
                                        "order": 2
                                    },
                                    {
                                        "children": [],
                                        "depth": 2,
                                        "id": 4,
                                        "order": 4
                                    },
                                    {
                                        "children": [],
                                        "depth": 2,
                                        "id": 5,
                                        "order": 5
                                    },
                                    {
                                        "children": [],
                                        "depth": 2,
                                        "id": 6,
                                        "order": 6
                                    },
                                    {
                                        "children": [],
                                        "depth": 2,
                                        "id": 7,
                                        "order": 7
                                    },
                                    {
                                        "children": [],
                                        "depth": 2,
                                        "id": 8,
                                        "order": 8
                                    },
                                    {
                                        "children": [],
                                        "depth": 2,
                                        "id": 9,
                                        "order": 9
                                    },
                                    {
                                        "children": [],
                                        "depth": 2,
                                        "id": 10,
                                        "order": 10
                                    },
                                    {
                                        "children": [],
                                        "depth": 2,
                                        "id": 11,
                                        "order": 11
                                    },
                                    {
                                        "children": [],
                                        "depth": 2,
                                        "id": 12,
                                        "order": 12
                                    },
                                    {
                                        "children": [],
                                        "depth": 2,
                                        "id": 13,
                                        "order": 13
                                    },
                                    {
                                        "children": [],
                                        "depth": 2,
                                        "id": 14,
                                        "order": 14
                                    },
                                    {
                                        "children": [],
                                        "depth": 2,
                                        "id": 15,
                                        "order": 15
                                    },
                                    {
                                        "children": [],
                                        "depth": 2,
                                        "id": 16,
                                        "order": 16
                                    },
                                    {
                                        "children": [],
                                        "depth": 2,
                                        "id": 17,
                                        "order": 17
                                    },
                                    {
                                        "children": [],
                                        "depth": 2,
                                        "id": 18,
                                        "order": 18
                                    }
                                ],
                                "depth": 1,
                                "id": 1,
                                "order": 1
                            }
                        ],
                        "depth": 0,
                        "id": 0,
                        "order": 0
                    }
                ],
                "depth": -1,
                "id": -1,
                "order": -1
            }
        ],
        "mainTraceNodeCount": 19,
        "parentIdMap": {
            "0": -1,
            "1": 0,
            "10": 1,
            "11": 1,
            "12": 1,
            "13": 1,
            "14": 1,
            "15": 1,
            "16": 1,
            "17": 1,
            "18": 1,
            "2": 1,
            "3": 2,
            "4": 1,
            "5": 1,
            "6": 1,
            "7": 1,
            "8": 1,
            "9": 1
        },
        "tidyTrace": [
            {
                "children": [
                    {
                        "children": [
                            {
                                "children": [
                                    {
                                        "children": [
                                            {
                                                "children": [],
                                                "depth": 3,
                                                "id": 3,
                                                "order": 3
                                            }
                                        ],
                                        "depth": 2,
                                        "id": 2,
                                        "order": 2
                                    },
                                    {
                                        "children": [],
                                        "depth": 2,
                                        "id": 4,
                                        "order": 4
                                    },
                                    {
                                        "children": [],
                                        "depth": 2,
                                        "id": 5,
                                        "order": 5
                                    },
                                    {
                                        "children": [],
                                        "depth": 2,
                                        "id": 6,
                                        "order": 6
                                    },
                                    {
                                        "children": [],
                                        "depth": 2,
                                        "id": 7,
                                        "order": 7
                                    },
                                    {
                                        "children": [],
                                        "depth": 2,
                                        "id": 8,
                                        "order": 8
                                    },
                                    {
                                        "children": [],
                                        "depth": 2,
                                        "id": 9,
                                        "order": 9
                                    },
                                    {
                                        "children": [],
                                        "depth": 2,
                                        "id": 10,
                                        "order": 10
                                    },
                                    {
                                        "children": [],
                                        "depth": 2,
                                        "id": 11,
                                        "order": 11
                                    },
                                    {
                                        "children": [],
                                        "depth": 2,
                                        "id": 12,
                                        "order": 12
                                    },
                                    {
                                        "children": [],
                                        "depth": 2,
                                        "id": 13,
                                        "order": 13
                                    },
                                    {
                                        "children": [],
                                        "depth": 2,
                                        "id": 14,
                                        "order": 14
                                    },
                                    {
                                        "children": [],
                                        "depth": 2,
                                        "id": 15,
                                        "order": 15
                                    },
                                    {
                                        "children": [],
                                        "depth": 2,
                                        "id": 16,
                                        "order": 16
                                    },
                                    {
                                        "children": [],
                                        "depth": 2,
                                        "id": 17,
                                        "order": 17
                                    },
                                    {
                                        "children": [],
                                        "depth": 2,
                                        "id": 18,
                                        "order": 18
                                    }
                                ],
                                "depth": 1,
                                "id": 1,
                                "order": 1
                            }
                        ],
                        "depth": 0,
                        "id": 0,
                        "order": 0
                    }
                ],
                "depth": -1,
                "id": -1,
                "order": -1
            }
        ],
        "tidyTraceNodeCount": 19
    },
    "state_change": {
        "stateChanges": []
    }
}