{
    "balance_change": {
        "balanceChanges": [
            {
                "account": "0x7c9932eed5aa0604ff417b2372b0aa76c5971bd3",
                "assets": [
                    {
                        "address": "0x960b236a07cf122663c4303350609a66a7b288c0",
                        "amount": "100",
                        "iconUrl": "",
                        "isERC1155": false,
                        "isERC721": false,
                        "sign": false,
                        "value": "412.8779844"
                    },
                    {
                        "address": "0x1f9840a85d5af5bf1d1762f925bdaddc4201f984",
                        "amount": "30.41024266045319274",
                        "iconUrl": "https://assets.blocksec.com/icon/a11b26a37f84e146d773ae4914e43619075ce4c922ad0a1fa46464f3049bf839.png",
                        "isERC1155": false,
                        "isERC721": false,
                        "sign": true,
                        "value": "411.4505832"
                    }
                ]
            },
            {
                "account": "0xd3d2e2692501a5c9ca623199d38826e513033a17",
                "assets": [
                    {
                        "address": "0xc02aaa39b223fe8d0a0e5c4f27ead9083c756cc2",
                        "amount": "0.331597197198074111",
                        "iconUrl": "https://assets.blocksec.com/icon/f1cb2d02c471d545bbc7722daf3277fd852d98e63d118771af7047bd8256c516.png",
                        "isERC1155": false,
                        "isERC721": false,
                        "sign": true,
                        "value": "244.84477759700528239"
                    },
                    {
                        "address": "0x1f9840a85d5af5bf1d1762f925bdaddc4201f984",
                        "amount": "30.41024266045319274",
                        "iconUrl": "https://assets.blocksec.com/icon/a11b26a37f84e146d773ae4914e43619075ce4c922ad0a1fa46464f3049bf839.png",
                        "isERC1155": false,
                        "isERC721": false,
                        "sign": false,
                        "value": "411.4505832"
                    }
                ]
            },
            {
                "account": "0xfa19de406e8f5b9100e4dd5cad8a503a6d686efe",
                "assets": [
                    {
                        "address": "0x960b236a07cf122663c4303350609a66a7b288c0",
                        "amount": "100",
                        "iconUrl": "",
                        "isERC1155": false,
                        "isERC721": false,
                        "sign": true,
                        "value": "412.8779844"
                    },
                    {
                        "address": "0xc02aaa39b223fe8d0a0e5c4f27ead9083c756cc2",
                        "amount": "0.331597197198074111",
                        "iconUrl": "https://assets.blocksec.com/icon/f1cb2d02c471d545bbc7722daf3277fd852d98e63d118771af7047bd8256c516.png",
                        "isERC1155": false,
                        "isERC721": false,
                        "sign": false,
                        "value": "244.84477759700528239"
                    }
                ]
            }
        ]
    },
    "profile": {
        "basic_info": {
            "baseFee": "",
            "blockNumber": 11738259,
            "callData": "0x38ed17390000000000000000000000000000000000000000000000056bc75e2d63100000000000000000000000000000000000000000000000000001a54e6c983778682800000000000000000000000000000000000000000000000000000000000000a00000000000000000000000007c9932eed5aa0604ff417b2372b0aa76c5971bd300000000000000000000000000000000000000000000000000000000601175c00000000000000000000000000000000000000000000000000000000000000003000000000000000000000000960b236a07cf122663c4303350609a66a7b288c0000000000000000000000000c02aaa39b223fe8d0a0e5c4f27ead9083c756cc20000000000000000000000001f9840a85d5af5bf1d1762f925bdaddc4201f984",
            "debugEnable": true,
            "errorInfo": "",
            "eventCount": 7,
            "feeRecipient": "0xea674fdde714fd979de3edf0f56aa9716b898ec8",
            "formatValue": "0",
            "gasLimit": 301517,
            "gasPrice": "108.9",
            "gasUsed": 263773,
            "intTxnCount": 12,
            "internalRevert": false,
            "internalRevertMessage": "",
            "isContractCreation": false,
            "isFlashloan": false,
            "maxFee": "",
            "nonce": 540,
            "overwritedBlockNumber": -1,
            "priorityFee": "",
            "receiver": "0x7a250d5630b4cf539739df2c5dacb4c659f2488d",
            "revertMessage": "",
            "sender": "0x7c9932eed5aa0604ff417b2372b0aa76c5971bd3",
            "simulationEnable": true,
            "sourceTxnHash": "0xee93b2c5cb88c4b79a8e381e8bf1f5fbda1a2b8a744d5b160b9999910d9d9802",
            "status": true,
            "timestamp": "2021-01-27T14:00:41Z",
            "transactionFee": "0.0287248797",
            "txnHash": "0xee93b2c5cb88c4b79a8e381e8bf1f5fbda1a2b8a744d5b160b9999910d9d9802",
            "txnIndex": 86,
            "type": 0,
            "value": "0"
        },
        "fund_flow": [
            {
                "amount": "100",
                "from": "0x7c9932eed5aa0604ff417b2372b0aa76c5971bd3",
                "id": 1,
                "isERC1155": false,
                "isERC721": false,
                "isReverted": false,
                "order": 1,
                "to": "0xfa19de406e8f5b9100e4dd5cad8a503a6d686efe",
                "token": "0x960b236a07cf122663c4303350609a66a7b288c0"
            },
            {
                "amount": "0.331597197198074111",
                "from": "0xfa19de406e8f5b9100e4dd5cad8a503a6d686efe",
                "id": 2,
                "isERC1155": false,
                "isERC721": false,
                "isReverted": false,
                "order": 2,
                "to": "0xd3d2e2692501a5c9ca623199d38826e513033a17",
                "token": "0xc02aaa39b223fe8d0a0e5c4f27ead9083c756cc2"
            },
            {
                "amount": "30.41024266045319274",
                "from": "0xd3d2e2692501a5c9ca623199d38826e513033a17",
                "id": 3,
                "isERC1155": false,
                "isERC721": false,
                "isReverted": false,
                "order": 3,
                "to": "0x7c9932eed5aa0604ff417b2372b0aa76c5971bd3",
                "token": "0x1f9840a85d5af5bf1d1762f925bdaddc4201f984"
            }
        ],
        "token_infos": [
            {
                "address": "0x1f9840a85d5af5bf1d1762f925bdaddc4201f984",
                "decimals": 18
            },
            {
                "address": "0x960b236a07cf122663c4303350609a66a7b288c0",
                "decimals": 18
            },
            {
                "address": "0xc02aaa39b223fe8d0a0e5c4f27ead9083c756cc2",
                "decimals": 18
            },
            {
                "address": "0xeeeeeeeeeeeeeeeeeeeeeeeeeeeeeeeeeeeeeeee",
                "decimals": 18
            }
        ]
    },
    "address_label": {
        "labels": [
            {
                "address": "0xfa19de406e8f5b9100e4dd5cad8a503a6d686efe",
                "label": "Uniswap V2: ANT"
            },
            {
                "address": "0x7a250d5630b4cf539739df2c5dacb4c659f2488d",
                "label": "Uniswap V2: Router 2"
            },
            {
                "address": "0xc02aaa39b223fe8d0a0e5c4f27ead9083c756cc2",
                "label": "Wrapped Ether (WETH)"
            },
            {
                "address": "0x0000000000000000000000000000000000000001",
                "label": "Precompiled"
            },
            {
                "address": "0x0000000000000000000000000000000000000004",
                "label": "Precompiled"
            },
            {
                "address": "0xeeeeeeeeeeeeeeeeeeeeeeeeeeeeeeeeeeeeeeee",
                "label": "Ether"
            },
            {
                "address": "0x960b236a07cf122663c4303350609a66a7b288c0",
                "label": "Aragon: Old ANT Token"
            },
            {
                "address": "0xd3d2e2692501a5c9ca623199d38826e513033a17",
                "label": "Uniswap V2: UNI 6"
            },
            {
                "address": "0x2443d44325bb07861cd8c9c8ba1569b6c39d9d95",
                "label": "Aragon: ANT Controller"
            },
            {
                "address": "0x1f9840a85d5af5bf1d1762f925bdaddc4201f984",
                "label": "Uniswap Protocol: UNI token"
            },
            {
                "address": "0x0000000000000000000000000000000000000002",
                "label": "Precompiled"
            },
            {
                "address": "0x0000000000000000000000000000000000000003",
                "label": "Precompiled"
            }
        ]
    },
    "trace": {
        "accountLabels": null,
        "dataMap": {
            "-1": {
                "invocation": {
                    "address": "0x7c9932eed5aa0604ff417b2372b0aa76c5971bd3",
                    "callData": "",
                    "decodedMethod": null,
                    "errorInfo": "",
                    "fromAddress": "",
                    "gasUsed": 0,
                    "id": -1,
                    "methodDecoded": false,
                    "operation": "",
                    "output": "",
                    "revert": false,
                    "revertMessage": "",
                    "selector": "",
                    "status": false,
                    "value": ""
                },
                "nodeType": 0
            },
            "0": {
                "invocation": {
                    "address": "0x7a250d5630b4cf539739df2c5dacb4c659f2488d",
                    "callData": "0x0000000000000000000000000000000000000000000000056bc75e2d63100000000000000000000000000000000000000000000000000001a54e6c983778682800000000000000000000000000000000000000000000000000000000000000a00000000000000000000000007c9932eed5aa0604ff417b2372b0aa76c5971bd300000000000000000000000000000000000000000000000000000000601175c00000000000000000000000000000000000000000000000000000000000000003000000000000000000000000960b236a07cf122663c4303350609a66a7b288c0000000000000000000000000c02aaa39b223fe8d0a0e5c4f27ead9083c756cc20000000000000000000000001f9840a85d5af5bf1d1762f925bdaddc4201f984",
                    "decodedMethod": {
                        "callParams": [
                            {
                                "name": "amountIn",
                                "type": "uint256",
                                "value": "100,000,000,000,000,000,000"
                            },
                            {
                                "name": "amountOutMin",
                                "type": "uint256",
                                "value": "30,358,321,539,172,558,888"
                            },
                            {
                                "name": "path",
                                "type": "address[]",
                                "value": [
                                    "0x960b236a07cf122663c4303350609a66a7b288c0",
                                    "0xc02aaa39b223fe8d0a0e5c4f27ead9083c756cc2",
                                    "0x1f9840a85d5af5bf1d1762f925bdaddc4201f984"
                                ]
                            },
                            {
                                "name": "to",
                                "type": "address",
                                "value": "0x7c9932eed5aa0604ff417b2372b0aa76c5971bd3"
                            },
                            {
                                "name": "deadline",
                                "type": "uint256",
                                "value": "1,611,756,992"
                            }
                        ],
                        "constructorArguments": "",
                        "name": "swapExactTokensForTokens",
                        "returnParams": [
                            {
                                "name": "amounts",
                                "type": "uint256[]",
                                "value": [
                                    "100,000,000,000,000,000,000",
                                    "331,597,197,198,074,111",
                                    "30,410,242,660,453,192,740"
                                ]
                            }
                        ],
                        "signature": "swapExactTokensForTokens(uint256,uint256,address[],address,uint256)"
                    },
                    "errorInfo": "",
                    "fromAddress": "0x7c9932eed5aa0604ff417b2372b0aa76c5971bd3",
                    "gasUsed": 263773,
                    "id": 0,
                    "methodDecoded": true,
                    "operation": "CALL",
                    "output": "0x000000000000000000000000000000000000000000000000000000000000002000000000000000000000000000000000000000000000000000000000000000030000000000000000000000000000000000000000000000056bc75e2d63100000000000000000000000000000000000000000000000000000049a11e4db81a0ff000000000000000000000000000000000000000000000001a606e2944dbe1424",
                    "revert": false,
                    "revertMessage": "",
                    "selector": "0x38ed1739",
                    "status": true,
                    "value": "0"
                },
                "nodeType": 0
            },
            "1": {
                "invocation": {
                    "address": "0xfa19de406e8f5b9100e4dd5cad8a503a6d686efe",
                    "callData": "0x",
                    "decodedMethod": {
                        "callParams": [],
                        "constructorArguments": "",
                        "name": "getReserves",
                        "returnParams": [
                            {
                                "name": "_reserve0",
                                "type": "uint112",
                                "value": "25,027,295,237,926,433,617,177"
                            },
                            {
                                "name": "_reserve1",
                                "type": "uint112",
                                "value": "83,571,125,325,032,705,484"
                            },
                            {
                                "name": "_blockTimestampLast",
                                "type": "uint32",
                                "value": "1,611,752,095"
                            }
                        ],
                        "signature": "getReserves()"
                    },
                    "errorInfo": "",
                    "fromAddress": "0x7a250d5630b4cf539739df2c5dacb4c659f2488d",
                    "gasUsed": 1204,
                    "id": 1,
                    "methodDecoded": true,
                    "operation": "STATICCALL",
                    "output": "0x00000000000000000000000000000000000000000000054cbb7e2299d678751900000000000000000000000000000000000000000000000487c847b44e39cdcc000000000000000000000000000000000000000000000000000000006011629f",
                    "revert": false,
                    "revertMessage": "",
                    "selector": "0x0902f1ac",
                    "status": true,
                    "value": "0"
                },
                "nodeType": 0
            },
            "10": {
                "invocation": {
                    "address": "0xc02aaa39b223fe8d0a0e5c4f27ead9083c756cc2",
                    "callData": "0x000000000000000000000000fa19de406e8f5b9100e4dd5cad8a503a6d686efe",
                    "decodedMethod": {
                        "callParams": [
                            {
                                "name": "",
                                "type": "address",
                                "value": "0xfa19de406e8f5b9100e4dd5cad8a503a6d686efe"
                            }
                        ],
                        "constructorArguments": "",
                        "name": "balanceOf",
                        "returnParams": [
                            {
                                "decimalAvailable": true,
                                "name": "",
                                "type": "uint256",
                                "value": "83,239,528,127,834,631,373"
                            }
                        ],
                        "signature": "balanceOf(address)"
                    },
                    "errorInfo": "",
                    "fromAddress": "0xfa19de406e8f5b9100e4dd5cad8a503a6d686efe",
                    "gasUsed": 1234,
                    "id": 10,
                    "methodDecoded": true,
                    "operation": "STATICCALL",
                    "output": "0x000000000000000000000000000000000000000000000004832e35cf72b82ccd",
                    "revert": false,
                    "revertMessage": "",
                    "selector": "0x70a08231",
                    "status": true,
                    "value": "0"
                },
                "nodeType": 0
            },
            "11": {
                "event": {
                    "contract": "0xfa19de406e8f5b9100e4dd5cad8a503a6d686efe",
                    "decodedLog": {
                        "name": "Sync",
                        "params": [
                            {
                                "name": "reserve0",
                                "type": "uint112",
                                "value": "25,127,295,237,926,433,617,177"
                            },
                            {
                                "name": "reserve1",
                                "type": "uint112",
                                "value": "83,239,528,127,834,631,373"
                            }
                        ],
                        "signature": "Sync(uint112,uint112)"
                    },
                    "id": 11,
                    "logData": "0x000000000000000000000000000000000000000000000552274580c739887519000000000000000000000000000000000000000000000004832e35cf72b82ccd",
                    "logDecoded": true,
                    "operation": "EVENT",
                    "revert": false,
                    "status": true,
                    "topics": [
                        "0x1c411e9a96e071241c2f21f7726b17ae89e3cab4c78be50e062b03a9fffbbad1"
                    ]
                },
                "nodeType": 1
            },
            "12": {
                "event": {
                    "contract": "0xfa19de406e8f5b9100e4dd5cad8a503a6d686efe",
                    "decodedLog": {
                        "name": "Swap",
                        "params": [
                            {
                                "name": "sender",
                                "type": "address",
                                "value": "0x7a250d5630b4cf539739df2c5dacb4c659f2488d"
                            },
                            {
                                "name": "to",
                                "type": "address",
                                "value": "0xd3d2e2692501a5c9ca623199d38826e513033a17"
                            },
                            {
                                "name": "amount0In",
                                "type": "uint256",
                                "value": "100,000,000,000,000,000,000"
                            },
                            {
                                "name": "amount1In",
                                "type": "uint256",
                                "value": "0"
                            },
                            {
                                "name": "amount0Out",
                                "type": "uint256",
                                "value": "0"
                            },
                            {
                                "name": "amount1Out",
                                "type": "uint256",
                                "value": "331,597,197,198,074,111"
                            }
                        ],
                        "signature": "Swap(address,uint256,uint256,uint256,uint256,address)"
                    },
                    "id": 12,
                    "logData": "0x0000000000000000000000000000000000000000000000056bc75e2d6310000000000000000000000000000000000000000000000000000000000000000000000000000000000000000000000000000000000000000000000000000000000000000000000000000000000000000000000000000000000000049a11e4db81a0ff",
                    "logDecoded": true,
                    "operation": "EVENT",
                    "revert": false,
                    "status": true,
                    "topics": [
                        "0xd78ad95fa46c994b6551d0da85fc275fe613ce37657fb8d5e3d130840159d822",
                        "0x0000000000000000000000007a250d5630b4cf539739df2c5dacb4c659f2488d",
                        "0x000000000000000000000000d3d2e2692501a5c9ca623199d38826e513033a17"
                    ]
                },
                "nodeType": 1
            },
            "13": {
                "invocation": {
                    "address": "0xd3d2e2692501a5c9ca623199d38826e513033a17",
                    "callData": "0x000000000000000000000000000000000000000000000001a606e2944dbe142400000000000000000000000000000000000000000000000000000000000000000000000000000000000000007c9932eed5aa0604ff417b2372b0aa76c5971bd300000000000000000000000000000000000000000000000000000000000000800000000000000000000000000000000000000000000000000000000000000000",
                    "decodedMethod": {
                        "callParams": [
                            {
                                "name": "amount0Out",
                                "type": "uint256",
                                "value": "30,410,242,660,453,192,740"
                            },
                            {
                                "name": "amount1Out",
                                "type": "uint256",
                                "value": "0"
                            },
                            {
                                "name": "to",
                                "type": "address",
                                "value": "0x7c9932eed5aa0604ff417b2372b0aa76c5971bd3"
                            },
                            {
                                "name": "data",
                                "type": "bytes",
                                "value": "0x"
                            }
                        ],
                        "constructorArguments": "",
                        "name": "swap",
                        "returnParams": [],
                        "signature": "swap(uint256,uint256,address,bytes)"
                    },
                    "errorInfo": "",
                    "fromAddress": "0x7a250d5630b4cf539739df2c5dacb4c659f2488d",
                    "gasUsed": 60616,
                    "id": 13,
                    "methodDecoded": true,
                    "operation": "CALL",
                    "output": "",
                    "revert": false,
                    "revertMessage": "",
                    "selector": "0x022c0d9f",
                    "status": true,
                    "value": "0"
                },
                "nodeType": 0
            },
            "14": {
                "invocation": {
                    "address": "0x1f9840a85d5af5bf1d1762f925bdaddc4201f984",
                    "callData": "0x0000000000000000000000007c9932eed5aa0604ff417b2372b0aa76c5971bd3000000000000000000000000000000000000000000000001a606e2944dbe1424",
                    "decodedMethod": {
                        "callParams": [
                            {
                                "name": "dst",
                                "type": "address",
                                "value": "0x7c9932eed5aa0604ff417b2372b0aa76c5971bd3"
                            },
                            {
                                "decimalAvailable": true,
                                "name": "rawAmount",
                                "type": "uint256",
                                "value": "30,410,242,660,453,192,740"
                            }
                        ],
                        "constructorArguments": "",
                        "name": "transfer",
                        "returnParams": [
                            {
                                "name": "",
                                "type": "bool",
                                "value": true
                            }
                        ],
                        "signature": "transfer(address,uint256)"
                    },
                    "errorInfo": "",
                    "fromAddress": "0xd3d2e2692501a5c9ca623199d38826e513033a17",
                    "gasUsed": 18862,
                    "id": 14,
                    "methodDecoded": true,
                    "operation": "CALL",
                    "output": "0x0000000000000000000000000000000000000000000000000000000000000001",
                    "revert": false,
                    "revertMessage": "",
                    "selector": "0xa9059cbb",
                    "status": true,
                    "value": "0"
                },
                "nodeType": 0
            },
            "15": {
                "event": {
                    "contract": "0x1f9840a85d5af5bf1d1762f925bdaddc4201f984",
                    "decodedLog": {
                        "name": "Transfer",
                        "params": [
                            {
                                "name": "from",
                                "type": "address",
                                "value": "0xd3d2e2692501a5c9ca623199d38826e513033a17"
                            },
                            {
                                "name": "to",
                                "type": "address",
                                "value": "0x7c9932eed5aa0604ff417b2372b0aa76c5971bd3"
                            },
                            {
                                "decimalAvailable": true,
                                "name": "amount",
                                "type": "uint256",
                                "value": "30,410,242,660,453,192,740"
                            }
                        ],
                        "signature": "Transfer(address,address,uint256)"
                    },
                    "id": 15,
                    "logData": "0x000000000000000000000000000000000000000000000001a606e2944dbe1424",
                    "logDecoded": true,
                    "operation": "EVENT",
                    "revert": false,
                    "status": true,
                    "topics": [
                        "0xddf252ad1be2c89b69c2b068fc378daa952ba7f163c4a11628f55a4df523b3ef",
                        "0x000000000000000000000000d3d2e2692501a5c9ca623199d38826e513033a17",
                        "0x0000000000000000000000007c9932eed5aa0604ff417b2372b0aa76c5971bd3"
                    ]
                },
                "nodeType": 1
            },
            "16": {
                "invocation": {
                    "address": "0x1f9840a85d5af5bf1d1762f925bdaddc4201f984",
                    "callData": "0x000000000000000000000000d3d2e2692501a5c9ca623199d38826e513033a17",
                    "decodedMethod": {
                        "callParams": [
                            {
                                "name": "account",
                                "type": "address",
                                "value": "0xd3d2e2692501a5c9ca623199d38826e513033a17"
                            }
                        ],
                        "constructorArguments": "",
                        "name": "balanceOf",
                        "returnParams": [
                            {
                                "decimalAvailable": true,
                                "name": "",
                                "type": "uint256",
                                "value": "6,303,990,815,518,526,264,742,002"
                            }
                        ],
                        "signature": "balanceOf(address)"
                    },
                    "errorInfo": "",
                    "fromAddress": "0xd3d2e2692501a5c9ca623199d38826e513033a17",
                    "gasUsed": 1497,
                    "id": 16,
                    "methodDecoded": true,
                    "operation": "STATICCALL",
                    "output": "0x0000000000000000000000000000000000000000000536ec06e1534cfbda9072",
                    "revert": false,
                    "revertMessage": "",
                    "selector": "0x70a08231",
                    "status": true,
                    "value": "0"
                },
                "nodeType": 0
            },
            "17": {
                "invocation": {
                    "address": "0xc02aaa39b223fe8d0a0e5c4f27ead9083c756cc2",
                    "callData": "0x000000000000000000000000d3d2e2692501a5c9ca623199d38826e513033a17",
                    "decodedMethod": {
                        "callParams": [
                            {
                                "name": "",
                                "type": "address",
                                "value": "0xd3d2e2692501a5c9ca623199d38826e513033a17"
                            }
                        ],
                        "constructorArguments": "",
                        "name": "balanceOf",
                        "returnParams": [
                            {
                                "decimalAvailable": true,
                                "name": "",
                                "type": "uint256",
                                "value": "68,533,639,660,596,944,567,602"
                            }
                        ],
                        "signature": "balanceOf(address)"
                    },
                    "errorInfo": "",
                    "fromAddress": "0xd3d2e2692501a5c9ca623199d38826e513033a17",
                    "gasUsed": 1234,
                    "id": 17,
                    "methodDecoded": true,
                    "operation": "STATICCALL",
                    "output": "0x000000000000000000000000000000000000000000000e83374f14872765fd32",
                    "revert": false,
                    "revertMessage": "",
                    "selector": "0x70a08231",
                    "status": true,
                    "value": "0"
                },
                "nodeType": 0
            },
            "18": {
                "event": {
                    "contract": "0xd3d2e2692501a5c9ca623199d38826e513033a17",
                    "decodedLog": {
                        "name": "Sync",
                        "params": [
                            {
                                "name": "reserve0",
                                "type": "uint112",
                                "value": "6,303,990,815,518,526,264,742,002"
                            },
                            {
                                "name": "reserve1",
                                "type": "uint112",
                                "value": "68,533,639,660,596,944,567,602"
                            }
                        ],
                        "signature": "Sync(uint112,uint112)"
                    },
                    "id": 18,
                    "logData": "0x0000000000000000000000000000000000000000000536ec06e1534cfbda9072000000000000000000000000000000000000000000000e83374f14872765fd32",
                    "logDecoded": true,
                    "operation": "EVENT",
                    "revert": false,
                    "status": true,
                    "topics": [
                        "0x1c411e9a96e071241c2f21f7726b17ae89e3cab4c78be50e062b03a9fffbbad1"
                    ]
                },
                "nodeType": 1
            },
            "19": {
                "event": {
                    "contract": "0xd3d2e2692501a5c9ca623199d38826e513033a17",
                    "decodedLog": {
                        "name": "Swap",
                        "params": [
                            {
                                "name": "sender",
                                "type": "address",
                                "value": "0x7a250d5630b4cf539739df2c5dacb4c659f2488d"
                            },
                            {
                                "name": "to",
                                "type": "address",
                                "value": "0x7c9932eed5aa0604ff417b2372b0aa76c5971bd3"
                            },
                            {
                                "name": "amount0In",
                                "type": "uint256",
                                "value": "0"
                            },
                            {
                                "name": "amount1In",
                                "type": "uint256",
                                "value": "331,597,197,198,074,111"
                            },
                            {
                                "name": "amount0Out",
                                "type": "uint256",
                                "value": "30,410,242,660,453,192,740"
                            },
                            {
                                "name": "amount1Out",
                                "type": "uint256",
                                "value": "0"
                            }
                        ],
                        "signature": "Swap(address,uint256,uint256,uint256,uint256,address)"
                    },
                    "id": 19,
                    "logData": "0x0000000000000000000000000000000000000000000000000000000000000000000000000000000000000000000000000000000000000000049a11e4db81a0ff000000000000000000000000000000000000000000000001a606e2944dbe14240000000000000000000000000000000000000000000000000000000000000000",
                    "logDecoded": true,
                    "operation": "EVENT",
                    "revert": false,
                    "status": true,
                    "topics": [
                        "0xd78ad95fa46c994b6551d0da85fc275fe613ce37657fb8d5e3d130840159d822",
                        "0x0000000000000000000000007a250d5630b4cf539739df2c5dacb4c659f2488d",
                        "0x0000000000000000000000007c9932eed5aa0604ff417b2372b0aa76c5971bd3"
                    ]
                },
                "nodeType": 1
            },
            "2": {
                "invocation": {
                    "address": "0xd3d2e2692501a5c9ca623199d38826e513033a17",
                    "callData": "0x",
                    "decodedMethod": {
                        "callParams": [],
                        "constructorArguments": "",
                        "name": "getReserves",
                        "returnParams": [
                            {
                                "name": "_reserve0",
                                "type": "uint112",
                                "value": "6,304,021,225,761,186,717,934,742"
                            },
                            {
                                "name": "_reserve1",
                                "type": "uint112",
                                "value": "68,533,308,063,399,746,493,491"
                            },
                            {
                                "name": "_blockTimestampLast",
                                "type": "uint32",
                                "value": "1,611,756,004"
                            }
                        ],
                        "signature": "getReserves()"
                    },
                    "errorInfo": "",
                    "fromAddress": "0x7a250d5630b4cf539739df2c5dacb4c659f2488d",
                    "gasUsed": 1204,
                    "id": 2,
                    "methodDecoded": true,
                    "operation": "STATICCALL",
                    "output": "0x0000000000000000000000000000000000000000000536edace835e14998a496000000000000000000000000000000000000000000000e8332b502a24be45c3300000000000000000000000000000000000000000000000000000000601171e4",
                    "revert": false,
                    "revertMessage": "",
                    "selector": "0x0902f1ac",
                    "status": true,
                    "value": "0"
                },
                "nodeType": 0
            },
            "3": {
                "invocation": {
                    "address": "0x960b236a07cf122663c4303350609a66a7b288c0",
                    "callData": "0x0000000000000000000000007c9932eed5aa0604ff417b2372b0aa76c5971bd3000000000000000000000000fa19de406e8f5b9100e4dd5cad8a503a6d686efe0000000000000000000000000000000000000000000000056bc75e2d63100000",
                    "decodedMethod": {
                        "callParams": [
                            {
                                "name": "_from",
                                "type": "address",
                                "value": "0x7c9932eed5aa0604ff417b2372b0aa76c5971bd3"
                            },
                            {
                                "name": "_to",
                                "type": "address",
                                "value": "0xfa19de406e8f5b9100e4dd5cad8a503a6d686efe"
                            },
                            {
                                "decimalAvailable": true,
                                "name": "_value",
                                "type": "uint256",
                                "value": "100,000,000,000,000,000,000"
                            }
                        ],
                        "constructorArguments": "",
                        "name": "transferFrom",
                        "returnParams": [
                            {
                                "name": "success",
                                "type": "bool",
                                "value": true
                            }
                        ],
                        "signature": "transferFrom(address,address,uint256)"
                    },
                    "errorInfo": "",
                    "fromAddress": "0x7a250d5630b4cf539739df2c5dacb4c659f2488d",
                    "gasUsed": 103763,
                    "id": 3,
                    "methodDecoded": true,
                    "operation": "CALL",
                    "output": "0x0000000000000000000000000000000000000000000000000000000000000001",
                    "revert": false,
                    "revertMessage": "",
                    "selector": "0x23b872dd",
                    "status": true,
                    "value": "0"
                },
                "nodeType": 0
            },
            "4": {
                "invocation": {
                    "address": "0x2443d44325bb07861cd8c9c8ba1569b6c39d9d95",
                    "callData": "0x0000000000000000000000007c9932eed5aa0604ff417b2372b0aa76c5971bd3000000000000000000000000fa19de406e8f5b9100e4dd5cad8a503a6d686efe0000000000000000000000000000000000000000000000056bc75e2d63100000",
                    "decodedMethod": {
                        "callParams": [
                            {
                                "name": "",
                                "type": "address",
                                "value": "0x7c9932eed5aa0604ff417b2372b0aa76c5971bd3"
                            },
                            {
                                "name": "",
                                "type": "address",
                                "value": "0xfa19de406e8f5b9100e4dd5cad8a503a6d686efe"
                            },
                            {
                                "name": "",
                                "type": "uint256",
                                "value": "100,000,000,000,000,000,000"
                            }
                        ],
                        "constructorArguments": "",
                        "name": "onTransfer",
                        "returnParams": [
                            {
                                "name": "",
                                "type": "bool",
                                "value": true
                            }
                        ],
                        "signature": "onTransfer(address,address,uint256)"
                    },
                    "errorInfo": "",
                    "fromAddress": "0x960b236a07cf122663c4303350609a66a7b288c0",
                    "gasUsed": 348,
                    "id": 4,
                    "methodDecoded": true,
                    "operation": "CALL",
                    "output": "0x0000000000000000000000000000000000000000000000000000000000000001",
                    "revert": false,
                    "revertMessage": "",
                    "selector": "0x4a393149",
                    "status": true,
                    "value": "0"
                },
                "nodeType": 0
            },
            "5": {
                "event": {
                    "contract": "0x960b236a07cf122663c4303350609a66a7b288c0",
                    "decodedLog": {
                        "name": "Transfer",
                        "params": [
                            {
                                "name": "from",
                                "type": "address",
                                "value": "0x7c9932eed5aa0604ff417b2372b0aa76c5971bd3"
                            },
                            {
                                "name": "to",
                                "type": "address",
                                "value": "0xfa19de406e8f5b9100e4dd5cad8a503a6d686efe"
                            },
                            {
                                "decimalAvailable": true,
                                "name": "value",
                                "type": "uint256",
                                "value": "100,000,000,000,000,000,000"
                            }
                        ],
                        "signature": "Transfer(address,address,uint256)"
                    },
                    "id": 5,
                    "logData": "0x0000000000000000000000000000000000000000000000056bc75e2d63100000",
                    "logDecoded": true,
                    "operation": "EVENT",
                    "revert": false,
                    "status": true,
                    "topics": [
                        "0xddf252ad1be2c89b69c2b068fc378daa952ba7f163c4a11628f55a4df523b3ef",
                        "0x0000000000000000000000007c9932eed5aa0604ff417b2372b0aa76c5971bd3",
                        "0x000000000000000000000000fa19de406e8f5b9100e4dd5cad8a503a6d686efe"
                    ]
                },
                "nodeType": 1
            },
            "6": {
                "invocation": {
                    "address": "0xfa19de406e8f5b9100e4dd5cad8a503a6d686efe",
                    "callData": "0x0000000000000000000000000000000000000000000000000000000000000000000000000000000000000000000000000000000000000000049a11e4db81a0ff000000000000000000000000d3d2e2692501a5c9ca623199d38826e513033a1700000000000000000000000000000000000000000000000000000000000000800000000000000000000000000000000000000000000000000000000000000000",
                    "decodedMethod": {
                        "callParams": [
                            {
                                "name": "amount0Out",
                                "type": "uint256",
                                "value": "0"
                            },
                            {
                                "name": "amount1Out",
                                "type": "uint256",
                                "value": "331,597,197,198,074,111"
                            },
                            {
                                "name": "to",
                                "type": "address",
                                "value": "0xd3d2e2692501a5c9ca623199d38826e513033a17"
                            },
                            {
                                "name": "data",
                                "type": "bytes",
                                "value": "0x"
                            }
                        ],
                        "constructorArguments": "",
                        "name": "swap",
                        "returnParams": [],
                        "signature": "swap(uint256,uint256,address,bytes)"
                    },
                    "errorInfo": "",
                    "fromAddress": "0x7a250d5630b4cf539739df2c5dacb4c659f2488d",
                    "gasUsed": 63798,
                    "id": 6,
                    "methodDecoded": true,
                    "operation": "CALL",
                    "output": "",
                    "revert": false,
                    "revertMessage": "",
                    "selector": "0x022c0d9f",
                    "status": true,
                    "value": "0"
                },
                "nodeType": 0
            },
            "7": {
                "invocation": {
                    "address": "0xc02aaa39b223fe8d0a0e5c4f27ead9083c756cc2",
                    "callData": "0x000000000000000000000000d3d2e2692501a5c9ca623199d38826e513033a17000000000000000000000000000000000000000000000000049a11e4db81a0ff",
                    "decodedMethod": {
                        "callParams": [
                            {
                                "name": "dst",
                                "type": "address",
                                "value": "0xd3d2e2692501a5c9ca623199d38826e513033a17"
                            },
                            {
                                "decimalAvailable": true,
                                "name": "wad",
                                "type": "uint256",
                                "value": "331,597,197,198,074,111"
                            }
                        ],
                        "constructorArguments": "",
                        "name": "transfer",
                        "returnParams": [
                            {
                                "name": "",
                                "type": "bool",
                                "value": true
                            }
                        ],
                        "signature": "transfer(address,uint256)"
                    },
                    "errorInfo": "",
                    "fromAddress": "0xfa19de406e8f5b9100e4dd5cad8a503a6d686efe",
                    "gasUsed": 15162,
                    "id": 7,
                    "methodDecoded": true,
                    "operation": "CALL",
                    "output": "0x0000000000000000000000000000000000000000000000000000000000000001",
                    "revert": false,
                    "revertMessage": "",
                    "selector": "0xa9059cbb",
                    "status": true,
                    "value": "0"
                },
                "nodeType": 0
            },
            "8": {
                "event": {
                    "contract": "0xc02aaa39b223fe8d0a0e5c4f27ead9083c756cc2",
                    "decodedLog": {
                        "name": "Transfer",
                        "params": [
                            {
                                "name": "src",
                                "type": "address",
                                "value": "0xfa19de406e8f5b9100e4dd5cad8a503a6d686efe"
                            },
                            {
                                "name": "dst",
                                "type": "address",
                                "value": "0xd3d2e2692501a5c9ca623199d38826e513033a17"
                            },
                            {
                                "decimalAvailable": true,
                                "name": "wad",
                                "type": "uint256",
                                "value": "331,597,197,198,074,111"
                            }
                        ],
                        "signature": "Transfer(address,address,uint256)"
                    },
                    "id": 8,
                    "logData": "0x000000000000000000000000000000000000000000000000049a11e4db81a0ff",
                    "logDecoded": true,
                    "operation": "EVENT",
                    "revert": false,
                    "status": true,
                    "topics": [
                        "0xddf252ad1be2c89b69c2b068fc378daa952ba7f163c4a11628f55a4df523b3ef",
                        "0x000000000000000000000000fa19de406e8f5b9100e4dd5cad8a503a6d686efe",
                        "0x000000000000000000000000d3d2e2692501a5c9ca623199d38826e513033a17"
                    ]
                },
                "nodeType": 1
            },
            "9": {
                "invocation": {
                    "address": "0x960b236a07cf122663c4303350609a66a7b288c0",
                    "callData": "0x000000000000000000000000fa19de406e8f5b9100e4dd5cad8a503a6d686efe",
                    "decodedMethod": {
                        "callParams": [
                            {
                                "name": "_owner",
                                "type": "address",
                                "value": "0xfa19de406e8f5b9100e4dd5cad8a503a6d686efe"
                            }
                        ],
                        "constructorArguments": "",
                        "name": "balanceOf",
                        "returnParams": [
                            {
                                "decimalAvailable": true,
                                "name": "balance",
                                "type": "uint256",
                                "value": "25,127,295,237,926,433,617,177"
                            }
                        ],
                        "signature": "balanceOf(address)"
                    },
                    "errorInfo": "",
                    "fromAddress": "0xfa19de406e8f5b9100e4dd5cad8a503a6d686efe",
                    "gasUsed": 8379,
                    "id": 9,
                    "methodDecoded": true,
                    "operation": "STATICCALL",
                    "output": "0x000000000000000000000000000000000000000000000552274580c739887519",
                    "revert": false,
                    "revertMessage": "",
                    "selector": "0x70a08231",
                    "status": true,
                    "value": "0"
                },
                "nodeType": 0
            }
        },
        "gasFlame": [
            {
                "children": [
                    {
                        "children": [
                            {
                                "children": [],
                                "depth": 0,
                                "name": "Initial Gas",
                                "value": 23440
                            },
                            {
                                "children": [
                                    {
                                        "children": [],
                                        "depth": 1,
                                        "name": "getReserves",
                                        "value": 1204
                                    },
                                    {
                                        "children": [],
                                        "depth": 1,
                                        "name": "getReserves",
                                        "value": 1204
                                    },
                                    {
                                        "children": [
                                            {
                                                "children": [],
                                                "depth": 2,
                                                "name": "onTransfer",
                                                "value": 348
                                            }
                                        ],
                                        "depth": 1,
                                        "name": "transferFrom",
                                        "value": 103763
                                    },
                                    {
                                        "children": [
                                            {
                                                "children": [],
                                                "depth": 2,
                                                "name": "transfer",
                                                "value": 15162
                                            },
                                            {
                                                "children": [],
                                                "depth": 2,
                                                "name": "balanceOf",
                                                "value": 8379
                                            },
                                            {
                                                "children": [],
                                                "depth": 2,
                                                "name": "balanceOf",
                                                "value": 1234
                                            }
                                        ],
                                        "depth": 1,
                                        "name": "swap",
                                        "value": 63798
                                    },
                                    {
                                        "children": [
                                            {
                                                "children": [],
                                                "depth": 2,
                                                "name": "transfer",
                                                "value": 18862
                                            },
                                            {
                                                "children": [],
                                                "depth": 2,
                                                "name": "balanceOf",
                                                "value": 1497
                                            },
                                            {
                                                "children": [],
                                                "depth": 2,
                                                "name": "balanceOf",
                                                "value": 1234
                                            }
                                        ],
                                        "depth": 1,
                                        "name": "swap",
                                        "value": 60616
                                    }
                                ],
                                "depth": 0,
                                "name": "Executed Gas",
                                "value": 248733
                            }
                        ],
                        "depth": -1,
                        "name": "Actual Gas Used",
                        "value": 263773
                    },
                    {
                        "children": [],
                        "depth": -1,
                        "name": "Refunded Gas",
                        "value": 8400
                    }
                ],
                "depth": -2,
                "name": "Total Gas",
                "value": 272173
            }
        ],
        "isConfirmed": true,
        "mainTrace": [
            {
                "children": [
                    {
                        "children": [
                            {
                                "children": [],
                                "depth": 1,
                                "id": 1,
                                "order": 1
                            },
                            {
                                "children": [],
                                "depth": 1,
                                "id": 2,
                                "order": 2
                            },
                            {
                                "children": [
                                    {
                                        "children": [],
                                        "depth": 2,
                                        "id": 4,
                                        "order": 4
                                    },
                                    {
                                        "children": [],
                                        "depth": 2,
                                        "id": 5,
                                        "order": 5
                                    }
                                ],
                                "depth": 1,
                                "id": 3,
                                "order": 3
                            },
                            {
                                "children": [
                                    {
                                        "children": [
                                            {
                                                "children": [],
                                                "depth": 3,
                                                "id": 8,
                                                "order": 8
                                            }
                                        ],
                                        "depth": 2,
                                        "id": 7,
                                        "order": 7
                                    },
                                    {
                                        "children": [],
                                        "depth": 2,
                                        "id": 9,
                                        "order": 9
                                    },
                                    {
                                        "children": [],
                                        "depth": 2,
                                        "id": 10,
                                        "order": 10
                                    },
                                    {
                                        "children": [],
                                        "depth": 2,
                                        "id": 11,
                                        "order": 11
                                    },
                                    {
                                        "children": [],
                                        "depth": 2,
                                        "id": 12,
                                        "order": 12
                                    }
                                ],
                                "depth": 1,
                                "id": 6,
                                "order": 6
                            },
                            {
                                "children": [
                                    {
                                        "children": [
                                            {
                                                "children": [],
                                                "depth": 3,
                                                "id": 15,
                                                "order": 15
                                            }
                                        ],
                                        "depth": 2,
                                        "id": 14,
                                        "order": 14
                                    },
                                    {
                                        "children": [],
                                        "depth": 2,
                                        "id": 16,
                                        "order": 16
                                    },
                                    {
                                        "children": [],
                                        "depth": 2,
                                        "id": 17,
                                        "order": 17
                                    },
                                    {
                                        "children": [],
                                        "depth": 2,
                                        "id": 18,
                                        "order": 18
                                    },
                                    {
                                        "children": [],
                                        "depth": 2,
                                        "id": 19,
                                        "order": 19
                                    }
                                ],
                                "depth": 1,
                                "id": 13,
                                "order": 13
                            }
                        ],
                        "depth": 0,
                        "id": 0,
                        "order": 0
                    }
                ],
                "depth": -1,
                "id": -1,
                "order": -1
            }
        ],
        "mainTraceNodeCount": 20,
        "parentIdMap": {
            "0": -1,
            "1": 0,
            "10": 6,
            "11": 6,
            "12": 6,
            "13": 0,
            "14": 13,
            "15": 14,
            "16": 13,
            "17": 13,
            "18": 13,
            "19": 13,
            "2": 0,
            "3": 0,
            "4": 3,
            "5": 3,
            "6": 0,
            "7": 6,
            "8": 7,
            "9": 6
        },
        "tidyTrace": [
            {
                "children": [
                    {
                        "children": [
                            {
                                "children": [
                                    {
                                        "children": [],
                                        "depth": 2,
                                        "id": 4,
                                        "order": 4
                                    },
                                    {
                                        "children": [],
                                        "depth": 2,
                                        "id": 5,
                                        "order": 5
                                    }
                                ],
                                "depth": 1,
                                "id": 3,
                                "order": 3
                            },
                            {
                                "children": [
                                    {
                                        "children": [
                                            {
                                                "children": [],
                                                "depth": 3,
                                                "id": 8,
                                                "order": 8
                                            }
                                        ],
                                        "depth": 2,
                                        "id": 7,
                                        "order": 7
                                    },
                                    {
                                        "children": [],
                                        "depth": 2,
                                        "id": 11,
                                        "order": 11
                                    },
                                    {
                                        "children": [],
                                        "depth": 2,
                                        "id": 12,
                                        "order": 12
                                    }
                                ],
                                "depth": 1,
                                "id": 6,
                                "order": 6
                            },
                            {
                                "children": [
                                    {
                                        "children": [
                                            {
                                                "children": [],
                                                "depth": 3,
                                                "id": 15,
                                                "order": 15
                                            }
                                        ],
                                        "depth": 2,
                                        "id": 14,
                                        "order": 14
                                    },
                                    {
                                        "children": [],
                                        "depth": 2,
                                        "id": 18,
                                        "order": 18
                                    },
                                    {
                                        "children": [],
                                        "depth": 2,
                                        "id": 19,
                                        "order": 19
                                    }
                                ],
                                "depth": 1,
                                "id": 13,
                                "order": 13
                            }
                        ],
                        "depth": 0,
                        "id": 0,
                        "order": 0
                    }
                ],
                "depth": -1,
                "id": -1,
                "order": -1
            }
        ],
        "tidyTraceNodeCount": 14
    },
    "state_change": {
        "stateChanges": [
            {
                "address": "0x1f9840a85d5af5bf1d1762f925bdaddc4201f984",
                "erc": "ERC-20",
                "slots": [
                    {
                        "current": "0x0000000000000000000000000000000000000000000536ec06e1534cfbda9072",
                        "key": "0xc7bb1ae398cf3a19dc07921d07a376ed7265652b5da074d79219553015f73a00",
                        "prev": "0x0000000000000000000000000000000000000000000536edace835e14998a496"
                    },
                    {
                        "current": "0x000000000000000000000000000000000000000000000037e33c65be2fe2e55b",
                        "key": "0x32d6da2d6b5d0f464116c9e59172af26f8c975613b95247d1ace72e822abee66",
                        "prev": "0x0000000000000000000000000000000000000000000000363d358329e224d137"
                    }
                ],
                "storageVariables": [
                    {
                        "name": "balances",
                        "type": "mapping(address => uint96)",
                        "value": {
                            "pairs": [
                                {
                                    "key": "0x7c9932eed5aa0604ff417b2372b0aa76c5971bd3",
                                    "value": {
                                        "current": "1030944998266759210331",
                                        "prev": "1000534755606306017591",
                                        "typeTag": 1
                                    }
                                },
                                {
                                    "key": "0xd3d2e2692501a5c9ca623199d38826e513033a17",
                                    "value": {
                                        "current": "6303990815518526264742002",
                                        "prev": "6304021225761186717934742",
                                        "typeTag": 1
                                    }
                                }
                            ],
                            "typeTag": 4
                        }
                    }
                ]
            },
            {
                "address": "0x960b236a07cf122663c4303350609a66a7b288c0",
                "erc": "ERC-20",
                "slots": [
                    {
                        "current": "0x0000000000000552274580c73988751900000000000000000000000000b31c93",
                        "key": "0xc9deb23ef12cb77139e2fb108342970d44614080c69cc7adafa2870d6c2acf31",
                        "prev": "0x0000000000000000000000000000000000000000000000000000000000000000"
                    },
                    {
                        "current": "0xffffffffffffffffffffffffffffffffffffffffffffffeaded79e872df514d3",
                        "key": "0x07e0bb77b8521428557526348d93c961ad3f4b5bfb001d63ddf6aa1a1a0e3358",
                        "prev": "0xfffffffffffffffffffffffffffffffffffffffffffffff04a9efcb4910514d3"
                    },
                    {
                        "current": "0x000000000000000000000000000000000000000000000000000000000000000a",
                        "key": "0xac4cafe337fd400dae5a0cb34b300456fbaa00f403ded37714a0516130343f50",
                        "prev": "0x0000000000000000000000000000000000000000000000000000000000000009"
                    },
                    {
                        "current": "0x000000000000001048b6401834ecdde700000000000000000000000000b31c93",
                        "key": "0x2254e17c3f4527967362689b4cbbb2a14ed1172f24e4fbe0ce877debc302d83c",
                        "prev": "0x0000000000000000000000000000000000000000000000000000000000000000"
                    },
                    {
                        "current": "0x0000000000000000000000000000000000000000000000000000000000004bce",
                        "key": "0x33691f73d32b164e4acf8ecf3772652188663d5e6ebcfe05b270674f55691e8e",
                        "prev": "0x0000000000000000000000000000000000000000000000000000000000004bcd"
                    }
                ],
                "storageVariables": []
            },
            {
                "address": "0xc02aaa39b223fe8d0a0e5c4f27ead9083c756cc2",
                "erc": "ERC-20",
                "slots": [
                    {
                        "current": "0x000000000000000000000000000000000000000000000e83374f14872765fd32",
                        "key": "0xc0e75612d35d156c6027aa01afe2ad7d80853c95e612a023a4992c7cbe19ff21",
                        "prev": "0x000000000000000000000000000000000000000000000e8332b502a24be45c33"
                    },
                    {
                        "current": "0x000000000000000000000000000000000000000000000004832e35cf72b82ccd",
                        "key": "0x4e2796dde1cad8c55e2210f244cae92d3259f48c833b951ff697ead296894441",
                        "prev": "0x00000000000000000000000000000000000000000000000487c847b44e39cdcc"
                    }
                ],
                "storageVariables": [
                    {
                        "name": "balanceOf",
                        "type": "mapping(address => uint256)",
                        "value": {
                            "pairs": [
                                {
                                    "key": "0xd3d2e2692501a5c9ca623199d38826e513033a17",
                                    "value": {
                                        "current": "68533639660596944567602",
                                        "prev": "68533308063399746493491",
                                        "typeTag": 1
                                    }
                                },
                                {
                                    "key": "0xfa19de406e8f5b9100e4dd5cad8a503a6d686efe",
                                    "value": {
                                        "current": "83239528127834631373",
                                        "prev": "83571125325032705484",
                                        "typeTag": 1
                                    }
                                }
                            ],
                            "typeTag": 4
                        }
                    }
                ]
            },
            {
                "address": "0xd3d2e2692501a5c9ca623199d38826e513033a17",
                "erc": "ERC-20",
                "slots": [
                    {
                        "current": "0x00000000000000000000000000000001504474c270408a7ba3cc48e5e8de6432",
                        "key": "0x0000000000000000000000000000000000000000000000000000000000000009",
                        "prev": "0x0000000000000000000000000000000150440dc9352b45def84ae1f468bbb9ff"
                    },
                    {
                        "current": "0x000000000000000000000000000062cd733b888053dbd1710d44e1d0e9e2d0ea",
                        "key": "0x000000000000000000000000000000000000000000000000000000000000000a",
                        "prev": "0x000000000000000000000000000062cd65f018aba7a446c04b9faa75c51cad82"
                    },
                    {
                        "current": "0x60117209000000000e83374f14872765fd320000000536ec06e1534cfbda9072",
                        "key": "0x0000000000000000000000000000000000000000000000000000000000000008",
                        "prev": "0x601171e4000000000e8332b502a24be45c330000000536edace835e14998a496"
                    }
                ],
                "storageVariables": [
                    {
                        "name": "price0CumulativeLast",
                        "type": "uint256",
                        "value": {
                            "current": "446976050934629999255242946950652126258",
                            "prev": "446973962382752633700397194596677564927",
                            "typeTag": 1
                        }
                    },
                    {
                        "name": "price1CumulativeLast",
                        "type": "uint256",
                        "value": {
                            "current": "8606915076864901339157430680133615585775850",
                            "prev": "8606897405210494610113094828857336771947906",
                            "typeTag": 1
                        }
                    },
                    {
                        "name": "reserve0",
                        "type": "uint112",
                        "value": {
                            "current": "6303990815518526264742002",
                            "prev": "6304021225761186717934742",
                            "typeTag": 1
                        }
                    },
                    {
                        "name": "reserve1",
                        "type": "uint112",
                        "value": {
                            "current": "68533639660596944567602",
                            "prev": "68533308063399746493491",
                            "typeTag": 1
                        }
                    },
                    {
                        "name": "blockTimestampLast",
                        "type": "uint32",
                        "value": {
                            "current": "1611756041",
                            "prev": "1611756004",
                            "typeTag": 1
                        }
                    }
                ]
            },
            {
                "address": "0xfa19de406e8f5b9100e4dd5cad8a503a6d686efe",
                "erc": "ERC-20",
                "slots": [
                    {
                        "current": "0x0000000000000000000000000000d0b941f581d5cd0d0b96d320d72afb78a7a9",
                        "key": "0x000000000000000000000000000000000000000000000000000000000000000a",
                        "prev": "0x0000000000000000000000000000d0a739dd11237b1c3247756679b9857868a9"
                    },
                    {
                        "current": "0x60117209000000000004832e35cf72b82ccd000000000552274580c739887519",
                        "key": "0x0000000000000000000000000000000000000000000000000000000000000008",
                        "prev": "0x6011629f00000000000487c847b44e39cdcc00000000054cbb7e2299d6787519"
                    },
                    {
                        "current": "0x00000000000000000000000000000002894f8d41669e6bce6775ac16747dbbc7",
                        "key": "0x0000000000000000000000000000000000000000000000000000000000000009",
                        "prev": "0x000000000000000000000000000000028942601397ef7325bb092ba4006267d7"
                    }
                ],
                "storageVariables": [
                    {
                        "name": "price0CumulativeLast",
                        "type": "uint256",
                        "value": {
                            "current": "863082025717578321591910720101102238663",
                            "prev": "863013609520752451991500321923044370391",
                            "typeTag": 1
                        }
                    },
                    {
                        "name": "price1CumulativeLast",
                        "type": "uint256",
                        "value": {
                            "current": "18182395386252331176487384211976821247879081",
                            "prev": "18176259542922905551991461204441474518247593",
                            "typeTag": 1
                        }
                    },
                    {
                        "name": "reserve0",
                        "type": "uint112",
                        "value": {
                            "current": "25127295237926433617177",
                            "prev": "25027295237926433617177",
                            "typeTag": 1
                        }
                    },
                    {
                        "name": "reserve1",
                        "type": "uint112",
                        "value": {
                            "current": "83239528127834631373",
                            "prev": "83571125325032705484",
                            "typeTag": 1
                        }
                    },
                    {
                        "name": "blockTimestampLast",
                        "type": "uint32",
                        "value": {
                            "current": "1611756041",
                            "prev": "1611752095",
                            "typeTag": 1
                        }
                    }
                ]
            }
        ]
    }
}