{
    "balance_change": {
        "balanceChanges": [
            {
                "account": "0x18a672e11d637fffadccc99b152f4895da069601",
                "assets": [
                    {
                        "address": "0xeeeeeeeeeeeeeeeeeeeeeeeeeeeeeeeeeeeeeeee",
                        "amount": "0.000000000000000001",
                        "iconUrl": "https://assets.blocksec.com/image/1663669189317-3.png",
                        "isERC1155": false,
                        "isERC721": false,
                        "sign": false,
                        "value": ""
                    }
                ]
            },
            {
                "account": "0x8c6d052fc566b50aa6ecf5fccc300e2f42b0105d",
                "assets": [
                    {
                        "address": "0xeeeeeeeeeeeeeeeeeeeeeeeeeeeeeeeeeeeeeeee",
                        "amount": "0.000000000000000001",
                        "iconUrl": "https://assets.blocksec.com/image/1663669189317-3.png",
                        "isERC1155": false,
                        "isERC721": false,
                        "sign": true,
                        "value": ""
                    }
                ]
            }
        ]
    },
    "profile": {
        "basic_info": {
            "baseFee": "",
            "blockNumber": 2802763,
            "callData": "0xe56c85520000000000000000000000008c6d052fc566b50aa6ecf5fccc300e2f42b0105d",
            "debugEnable": true,
            "errorInfo": "",
            "eventCount": 1,
            "feeRecipient": "0x52bc44d5378309ee2abf1539bf71de1b7d7be3b5",
            "formatValue": "0",
            "gasLimit": 150000,
            "gasPrice": "20",
            "gasUsed": 73943,
            "intTxnCount": 1,
            "internalRevert": false,
            "internalRevertMessage": "",
            "isContractCreation": false,
            "isFlashloan": false,
            "maxFee": "",
            "nonce": 6184,
            "overwritedBlockNumber": -1,
            "priorityFee": "",
            "receiver": "0x18a672e11d637fffadccc99b152f4895da069601",
            "revertMessage": "",
            "sender": "0x09820a2fae3bd73b5009e89ccb7bb236ff59b744",
            "simulationEnable": true,
            "sourceTxnHash": "0xeec809995888f656ecd5c709afe4790b68a342b7a7247b17746fb6eade8907b0",
            "status": true,
            "timestamp": "2016-12-13T20:42:49Z",
            "transactionFee": "0.00147886",
            "txnHash": "0xeec809995888f656ecd5c709afe4790b68a342b7a7247b17746fb6eade8907b0",
            "txnIndex": 0,
            "type": 0,
            "value": "0"
        },
        "fund_flow": [
            {
                "amount": "0.000000000000000001",
                "from": "0x18a672e11d637fffadccc99b152f4895da069601",
                "id": 1,
                "isERC1155": false,
                "isERC721": false,
                "isReverted": false,
                "order": 1,
                "to": "0x8c6d052fc566b50aa6ecf5fccc300e2f42b0105d",
                "token": "0xeeeeeeeeeeeeeeeeeeeeeeeeeeeeeeeeeeeeeeee"
            }
        ],
        "token_infos": [
            {
                "address": "0xeeeeeeeeeeeeeeeeeeeeeeeeeeeeeeeeeeeeeeee",
                "decimals": 18
            },
            {
                "address": "0xc02aaa39b223fe8d0a0e5c4f27ead9083c756cc2",
                "decimals": 18
            }
        ]
    },
    "address_label": {
        "labels": [
            {
                "address": "0x0000000000000000000000000000000000000002",
                "label": "Precompiled"
            },
            {
                "address": "0x0000000000000000000000000000000000000003",
                "label": "Precompiled"
            },
            {
                "address": "0x0000000000000000000000000000000000000004",
                "label": "Precompiled"
            },
            {
                "address": "0xeeeeeeeeeeeeeeeeeeeeeeeeeeeeeeeeeeeeeeee",
                "label": "Ether"
            },
            {
                "address": "0x18a672e11d637fffadccc99b152f4895da069601",
                "label": "Rouleth"
            },
            {
                "address": "0x0000000000000000000000000000000000000001",
                "label": "Precompiled"
            }
        ]
    },
    "trace": {
        "accountLabels": null,
        "dataMap": {
            "-1": {
                "invocation": {
                    "address": "0x09820a2fae3bd73b5009e89ccb7bb236ff59b744",
                    "callData": "",
                    "decodedMethod": null,
                    "errorInfo": "",
                    "fromAddress": "",
                    "gasUsed": 0,
                    "id": -1,
                    "methodDecoded": false,
                    "operation": "",
                    "output": "",
                    "revert": false,
                    "revertMessage": "",
                    "selector": "",
                    "status": false,
                    "value": ""
                },
                "nodeType": 0
            },
            "0": {
                "invocation": {
                    "address": "0x18a672e11d637fffadccc99b152f4895da069601",
                    "callData": "0x0000000000000000000000008c6d052fc566b50aa6ecf5fccc300e2f42b0105d",
                    "decodedMethod": {
                        "callParams": [
                            {
                                "name": "spin_for_player",
                                "type": "address",
                                "value": "0x8c6d052fc566b50aa6ecf5fccc300e2f42b0105d"
                            }
                        ],
                        "constructorArguments": "",
                        "name": "spinTheWheel",
                        "returnParams": [],
                        "signature": "spinTheWheel(address)"
                    },
                    "errorInfo": "",
                    "fromAddress": "0x09820a2fae3bd73b5009e89ccb7bb236ff59b744",
                    "gasUsed": 73943,
                    "id": 0,
                    "methodDecoded": true,
                    "operation": "CALL",
                    "output": "",
                    "revert": false,
                    "revertMessage": "",
                    "selector": "0xe56c8552",
                    "status": true,
                    "value": "0"
                },
                "nodeType": 0
            },
            "1": {
                "event": {
                    "contract": "0x18a672e11d637fffadccc99b152f4895da069601",
                    "decodedLog": {
                        "name": "Loss",
                        "params": [
                            {
                                "name": "player",
                                "type": "address",
                                "value": "0x8c6d052fc566b50aa6ecf5fccc300e2f42b0105d"
                            },
                            {
                                "name": "result",
                                "type": "uint8",
                                "value": "33"
                            },
                            {
                                "name": "value_loss",
                                "type": "uint256",
                                "value": "49,999,999,999,999,999"
                            },
                            {
                                "name": "bHash",
                                "type": "bytes32",
                                "value": "0x6ffeaf09caf854b5654aa02e43de9d82a913dccbabc32f24218a34d2b2590048"
                            },
                            {
                                "name": "sha3Player",
                                "type": "bytes32",
                                "value": "0x44713354acd826d21f9ff2509d57eefadbe0a873f89cfe0455a04efc667355d8"
                            },
                            {
                                "name": "gambleId",
                                "type": "uint256",
                                "value": "7,813"
                            }
                        ],
                        "signature": "Loss(address,uint8,uint256,bytes32,bytes32,uint256)"
                    },
                    "id": 1,
                    "logData": "0x0000000000000000000000008c6d052fc566b50aa6ecf5fccc300e2f42b0105d000000000000000000000000000000000000000000000000000000000000002100000000000000000000000000000000000000000000000000b1a2bc2ec4ffff6ffeaf09caf854b5654aa02e43de9d82a913dccbabc32f24218a34d2b259004844713354acd826d21f9ff2509d57eefadbe0a873f89cfe0455a04efc667355d80000000000000000000000000000000000000000000000000000000000001e85",
                    "logDecoded": true,
                    "operation": "EVENT",
                    "revert": false,
                    "status": true,
                    "topics": [
                        "0x48156d9ccd5f1a9d70cfcbc377888e2b2b5d40f87ce4e3d83708a065a50743d9"
                    ]
                },
                "nodeType": 1
            },
            "2": {
                "invocation": {
                    "address": "0x8c6d052fc566b50aa6ecf5fccc300e2f42b0105d",
                    "callData": "0x",
                    "decodedMethod": null,
                    "errorInfo": "",
                    "fromAddress": "0x18a672e11d637fffadccc99b152f4895da069601",
                    "gasUsed": 0,
                    "id": 2,
                    "methodDecoded": false,
                    "operation": "CALL",
                    "output": "",
                    "revert": false,
                    "revertMessage": "",
                    "selector": "fallback",
                    "status": true,
                    "value": "0.000000000000000001"
                },
                "nodeType": 0
            }
        },
        "gasFlame": [
            {
                "children": [
                    {
                        "children": [
                            {
                                "children": [],
                                "depth": 0,
                                "name": "Initial Gas",
                                "value": 22680
                            },
                            {
                                "children": [
                                    {
                                        "children": [],
                                        "depth": 1,
                                        "name": "fallback",
                                        "value": 0
                                    }
                                ],
                                "depth": 0,
                                "name": "Executed Gas",
                                "value": 66263
                            }
                        ],
                        "depth": -1,
                        "name": "Actual Gas Used",
                        "value": 73943
                    },
                    {
                        "children": [],
                        "depth": -1,
                        "name": "Refunded Gas",
                        "value": 15000
                    }
                ],
                "depth": -2,
                "name": "Total Gas",
                "value": 88943
            }
        ],
        "isConfirmed": true,
        "mainTrace": [
            {
                "children": [
                    {
                        "children": [
                            {
                                "children": [],
                                "depth": 1,
                                "id": 1,
                                "order": 1
                            },
                            {
                                "children": [],
                                "depth": 1,
                                "id": 2,
                                "order": 2
                            }
                        ],
                        "depth": 0,
                        "id": 0,
                        "order": 0
                    }
                ],
                "depth": -1,
                "id": -1,
                "order": -1
            }
        ],
        "mainTraceNodeCount": 3,
        "parentIdMap": {
            "0": -1,
            "1": 0,
            "2": 0
        },
        "tidyTrace": [
            {
                "children": [
                    {
                        "children": [
                            {
                                "children": [],
                                "depth": 1,
                                "id": 1,
                                "order": 1
                            },
                            {
                                "children": [],
                                "depth": 1,
                                "id": 2,
                                "order": 2
                            }
                        ],
                        "depth": 0,
                        "id": 0,
                        "order": 0
                    }
                ],
                "depth": -1,
                "id": -1,
                "order": -1
            }
        ],
        "tidyTraceNodeCount": 3
    },
    "state_change": {
        "stateChanges": [
            {
                "address": "0x18a672e11d637fffadccc99b152f4895da069601",
                "erc": "",
                "slots": [
                    {
                        "current": "0x0000000000000000000000000000000000000000000000000000000000000021",
                        "key": "0xa66cc928b5edb82af9bd49922954155ab7b0942694bea4ce44661d9a87375f25",
                        "prev": "0x0000000000000000000000000000000000000000000000000000000000000025"
                    },
                    {
                        "current": "0x0000000000000000220000018c6d052fc566b50aa6ecf5fccc300e2f42b0105d",
                        "key": "0xa66cc928b5edb82af9bd49922954155ab7b0942694bea4ce44661d9a87375f21",
                        "prev": "0x0000000000000000220000008c6d052fc566b50aa6ecf5fccc300e2f42b0105d"
                    },
                    {
                        "current": "0x00000000000000000000000000000000000000000000000000000000002ac44b",
                        "key": "0xa66cc928b5edb82af9bd49922954155ab7b0942694bea4ce44661d9a87375f24",
                        "prev": "0x0000000000000000000000000000000000000000000000000000000000000000"
                    },
                    {
                        "current": "0x000000000000000000000000000000000000000000000000356df29a1140ffde",
                        "key": "0x0000000000000000000000000000000000000000000000000000000000000020",
                        "prev": "0x00000000000000000000000000000000000000000000000034bc4fdde27bffdf"
                    },
                    {
                        "current": "0x0000000000000000000000000000000000000000000000000000000000000000",
                        "key": "0x33169400d6c714a81d3360ddc6b4aec22c169cefaf80e2bfca7ac6d86c466637",
                        "prev": "0x0000000000000000000000000000000000000000000000000000000000000001"
                    }
                ],
                "storageVariables": []
            }
        ]
    }
}