{
    "balance_change": {
        "balanceChanges": [
            {
                "account": "0xfbb1b73c4f0bda4f67dca266ce6ef42f520fbb98",
                "assets": [
                    {
                        "address": "0x8dd5fbce2f6a956c3022ba3663759011dd51e73e",
                        "amount": "120",
                        "iconUrl": "",
                        "isERC1155": false,
                        "isERC721": false,
                        "sign": false,
                        "value": ""
                    }
                ]
            },
            {
                "account": "0x257325ad03560ce1ba23e74d8dcb61cabc270dd2",
                "assets": [
                    {
                        "address": "0x8dd5fbce2f6a956c3022ba3663759011dd51e73e",
                        "amount": "120",
                        "iconUrl": "",
                        "isERC1155": false,
                        "isERC721": false,
                        "sign": true,
                        "value": ""
                    }
                ]
            }
        ]
    },
    "profile": {
        "basic_info": {
            "baseFee": "",
            "blockNumber": 6338113,
            "callData": "0xa9059cbb000000000000000000000000257325ad03560ce1ba23e74d8dcb61cabc270dd20000000000000000000000000000000000000000000000068155a43676e00000",
            "debugEnable": true,
            "errorInfo": "",
            "eventCount": 1,
            "feeRecipient": "0x5a0b54d5dc17e0aadc383d2db43b0a0d3e029c4c",
            "formatValue": "0",
            "gasLimit": 150000,
            "gasPrice": "50",
            "gasUsed": 70847,
            "intTxnCount": 7,
            "internalRevert": false,
            "internalRevertMessage": "",
            "isContractCreation": false,
            "isFlashloan": false,
            "maxFee": "",
            "nonce": 6503893,
            "overwritedBlockNumber": -1,
            "priorityFee": "",
            "receiver": "0x8dd5fbce2f6a956c3022ba3663759011dd51e73e",
            "revertMessage": "",
            "sender": "0xfbb1b73c4f0bda4f67dca266ce6ef42f520fbb98",
            "simulationEnable": true,
            "sourceTxnHash": "0xee6608fd10de3635675728bf5a9fb33033f17d448a205a36fc90f2fccf24244a",
            "status": true,
            "timestamp": "2018-09-15T19:59:08Z",
            "transactionFee": "0.00354235",
            "txnHash": "0xee6608fd10de3635675728bf5a9fb33033f17d448a205a36fc90f2fccf24244a",
            "txnIndex": 4,
            "type": 0,
            "value": "0"
        },
        "fund_flow": [
            {
                "amount": "120",
                "from": "0xfbb1b73c4f0bda4f67dca266ce6ef42f520fbb98",
                "id": 1,
                "isERC1155": false,
                "isERC721": false,
                "isReverted": false,
                "order": 1,
                "to": "0x257325ad03560ce1ba23e74d8dcb61cabc270dd2",
                "token": "0x8dd5fbce2f6a956c3022ba3663759011dd51e73e"
            }
        ],
        "token_infos": [
            {
                "address": "0x8dd5fbce2f6a956c3022ba3663759011dd51e73e",
                "decimals": 18
            },
            {
                "address": "0xc02aaa39b223fe8d0a0e5c4f27ead9083c756cc2",
                "decimals": 18
            },
            {
                "address": "0xeeeeeeeeeeeeeeeeeeeeeeeeeeeeeeeeeeeeeeee",
                "decimals": 18
            }
        ]
    },
    "address_label": {
        "labels": [
            {
                "address": "0x0000000000000000000000000000000000000002",
                "label": "Precompiled"
            },
            {
                "address": "0x0000000000000000000000000000000000000003",
                "label": "Precompiled"
            },
            {
                "address": "0x0000000000000000000000000000000000000004",
                "label": "Precompiled"
            },
            {
                "address": "0xfbb1b73c4f0bda4f67dca266ce6ef42f520fbb98",
                "label": "Bittrex"
            },
            {
                "address": "0x8dd5fbce2f6a956c3022ba3663759011dd51e73e",
                "label": "TrueUSD: Legacy Contract"
            },
            {
                "address": "0x0000000000000000000000000000000000000001",
                "label": "Precompiled"
            },
            {
                "address": "0x9f59b4f7d3bd00caa85e61c57761768291155084",
                "label": "0x9f59_NamableAddressList"
            },
            {
                "address": "0xeeeeeeeeeeeeeeeeeeeeeeeeeeeeeeeeeeeeeeee",
                "label": "Ether"
            },
            {
                "address": "0x6dea55ba04a37fddd05e1fd979c30aa0e634e837",
                "label": "BalanceSheet"
            },
            {
                "address": "0xf5de41317a8fde99108e2fa2d26822bebad1427e",
                "label": "0xf5de_NamableAddressList"
            }
        ]
    },
    "trace": {
        "accountLabels": null,
        "dataMap": {
            "-1": {
                "invocation": {
                    "address": "0xfbb1b73c4f0bda4f67dca266ce6ef42f520fbb98",
                    "callData": "",
                    "decodedMethod": null,
                    "errorInfo": "",
                    "fromAddress": "",
                    "gasUsed": 0,
                    "id": -1,
                    "methodDecoded": false,
                    "operation": "",
                    "output": "",
                    "revert": false,
                    "revertMessage": "",
                    "selector": "",
                    "status": false,
                    "value": ""
                },
                "nodeType": 0
            },
            "0": {
                "invocation": {
                    "address": "0x8dd5fbce2f6a956c3022ba3663759011dd51e73e",
                    "callData": "0x000000000000000000000000257325ad03560ce1ba23e74d8dcb61cabc270dd20000000000000000000000000000000000000000000000068155a43676e00000",
                    "decodedMethod": {
                        "callParams": [
                            {
                                "name": "to",
                                "type": "address",
                                "value": "0x257325ad03560ce1ba23e74d8dcb61cabc270dd2"
                            },
                            {
                                "decimalAvailable": true,
                                "name": "value",
                                "type": "uint256",
                                "value": "120,000,000,000,000,000,000"
                            }
                        ],
                        "constructorArguments": "",
                        "name": "transfer",
                        "returnParams": [
                            {
                                "name": "",
                                "type": "bool",
                                "value": true
                            }
                        ],
                        "signature": "transfer(address,uint256)"
                    },
                    "errorInfo": "",
                    "fromAddress": "0xfbb1b73c4f0bda4f67dca266ce6ef42f520fbb98",
                    "gasUsed": 70847,
                    "id": 0,
                    "methodDecoded": true,
                    "operation": "CALL",
                    "output": "0x0000000000000000000000000000000000000000000000000000000000000001",
                    "revert": false,
                    "revertMessage": "",
                    "selector": "0xa9059cbb",
                    "status": true,
                    "value": "0"
                },
                "nodeType": 0
            },
            "1": {
                "invocation": {
                    "address": "0xf5de41317a8fde99108e2fa2d26822bebad1427e",
                    "callData": "0x000000000000000000000000fbb1b73c4f0bda4f67dca266ce6ef42f520fbb98",
                    "decodedMethod": {
                        "callParams": [
                            {
                                "name": "",
                                "type": "address",
                                "value": "0xfbb1b73c4f0bda4f67dca266ce6ef42f520fbb98"
                            }
                        ],
                        "constructorArguments": "",
                        "name": "onList",
                        "returnParams": [
                            {
                                "name": "",
                                "type": "bool",
                                "value": false
                            }
                        ],
                        "signature": "onList(address)"
                    },
                    "errorInfo": "",
                    "fromAddress": "0x8dd5fbce2f6a956c3022ba3663759011dd51e73e",
                    "gasUsed": 605,
                    "id": 1,
                    "methodDecoded": true,
                    "operation": "CALL",
                    "output": "0x0000000000000000000000000000000000000000000000000000000000000000",
                    "revert": false,
                    "revertMessage": "",
                    "selector": "0x6f626eb3",
                    "status": true,
                    "value": "0"
                },
                "nodeType": 0
            },
            "2": {
                "invocation": {
                    "address": "0xf5de41317a8fde99108e2fa2d26822bebad1427e",
                    "callData": "0x000000000000000000000000257325ad03560ce1ba23e74d8dcb61cabc270dd2",
                    "decodedMethod": {
                        "callParams": [
                            {
                                "name": "",
                                "type": "address",
                                "value": "0x257325ad03560ce1ba23e74d8dcb61cabc270dd2"
                            }
                        ],
                        "constructorArguments": "",
                        "name": "onList",
                        "returnParams": [
                            {
                                "name": "",
                                "type": "bool",
                                "value": false
                            }
                        ],
                        "signature": "onList(address)"
                    },
                    "errorInfo": "",
                    "fromAddress": "0x8dd5fbce2f6a956c3022ba3663759011dd51e73e",
                    "gasUsed": 605,
                    "id": 2,
                    "methodDecoded": true,
                    "operation": "CALL",
                    "output": "0x0000000000000000000000000000000000000000000000000000000000000000",
                    "revert": false,
                    "revertMessage": "",
                    "selector": "0x6f626eb3",
                    "status": true,
                    "value": "0"
                },
                "nodeType": 0
            },
            "3": {
                "invocation": {
                    "address": "0x6dea55ba04a37fddd05e1fd979c30aa0e634e837",
                    "callData": "0x000000000000000000000000fbb1b73c4f0bda4f67dca266ce6ef42f520fbb98",
                    "decodedMethod": {
                        "callParams": [
                            {
                                "name": "",
                                "type": "address",
                                "value": "0xfbb1b73c4f0bda4f67dca266ce6ef42f520fbb98"
                            }
                        ],
                        "constructorArguments": "",
                        "name": "balanceOf",
                        "returnParams": [
                            {
                                "decimalAvailable": true,
                                "name": "",
                                "type": "uint256",
                                "value": "8,663,845,688,439,000,000,000,000"
                            }
                        ],
                        "signature": "balanceOf(address)"
                    },
                    "errorInfo": "",
                    "fromAddress": "0x8dd5fbce2f6a956c3022ba3663759011dd51e73e",
                    "gasUsed": 546,
                    "id": 3,
                    "methodDecoded": true,
                    "operation": "CALL",
                    "output": "0x000000000000000000000000000000000000000000072aa40410557f99fa7000",
                    "revert": false,
                    "revertMessage": "",
                    "selector": "0x70a08231",
                    "status": true,
                    "value": "0"
                },
                "nodeType": 0
            },
            "4": {
                "invocation": {
                    "address": "0x6dea55ba04a37fddd05e1fd979c30aa0e634e837",
                    "callData": "0x000000000000000000000000fbb1b73c4f0bda4f67dca266ce6ef42f520fbb980000000000000000000000000000000000000000000000068155a43676e00000",
                    "decodedMethod": {
                        "callParams": [
                            {
                                "name": "addr",
                                "type": "address",
                                "value": "0xfbb1b73c4f0bda4f67dca266ce6ef42f520fbb98"
                            },
                            {
                                "name": "value",
                                "type": "uint256",
                                "value": "120,000,000,000,000,000,000"
                            }
                        ],
                        "constructorArguments": "",
                        "name": "subBalance",
                        "returnParams": [],
                        "signature": "subBalance(address,uint256)"
                    },
                    "errorInfo": "",
                    "fromAddress": "0x8dd5fbce2f6a956c3022ba3663759011dd51e73e",
                    "gasUsed": 6055,
                    "id": 4,
                    "methodDecoded": true,
                    "operation": "CALL",
                    "output": "",
                    "revert": false,
                    "revertMessage": "",
                    "selector": "0xcf8eeb7e",
                    "status": true,
                    "value": "0"
                },
                "nodeType": 0
            },
            "5": {
                "invocation": {
                    "address": "0x6dea55ba04a37fddd05e1fd979c30aa0e634e837",
                    "callData": "0x000000000000000000000000257325ad03560ce1ba23e74d8dcb61cabc270dd20000000000000000000000000000000000000000000000068155a43676e00000",
                    "decodedMethod": {
                        "callParams": [
                            {
                                "name": "addr",
                                "type": "address",
                                "value": "0x257325ad03560ce1ba23e74d8dcb61cabc270dd2"
                            },
                            {
                                "name": "value",
                                "type": "uint256",
                                "value": "120,000,000,000,000,000,000"
                            }
                        ],
                        "constructorArguments": "",
                        "name": "addBalance",
                        "returnParams": [],
                        "signature": "addBalance(address,uint256)"
                    },
                    "errorInfo": "",
                    "fromAddress": "0x8dd5fbce2f6a956c3022ba3663759011dd51e73e",
                    "gasUsed": 20980,
                    "id": 5,
                    "methodDecoded": true,
                    "operation": "CALL",
                    "output": "",
                    "revert": false,
                    "revertMessage": "",
                    "selector": "0x21e5383a",
                    "status": true,
                    "value": "0"
                },
                "nodeType": 0
            },
            "6": {
                "event": {
                    "contract": "0x8dd5fbce2f6a956c3022ba3663759011dd51e73e",
                    "decodedLog": {
                        "name": "Transfer",
                        "params": [
                            {
                                "name": "from",
                                "type": "address",
                                "value": "0xfbb1b73c4f0bda4f67dca266ce6ef42f520fbb98"
                            },
                            {
                                "name": "to",
                                "type": "address",
                                "value": "0x257325ad03560ce1ba23e74d8dcb61cabc270dd2"
                            },
                            {
                                "decimalAvailable": true,
                                "name": "value",
                                "type": "uint256",
                                "value": "120,000,000,000,000,000,000"
                            }
                        ],
                        "signature": "Transfer(address,address,uint256)"
                    },
                    "id": 6,
                    "logData": "0x0000000000000000000000000000000000000000000000068155a43676e00000",
                    "logDecoded": true,
                    "operation": "EVENT",
                    "revert": false,
                    "status": true,
                    "topics": [
                        "0xddf252ad1be2c89b69c2b068fc378daa952ba7f163c4a11628f55a4df523b3ef",
                        "0x000000000000000000000000fbb1b73c4f0bda4f67dca266ce6ef42f520fbb98",
                        "0x000000000000000000000000257325ad03560ce1ba23e74d8dcb61cabc270dd2"
                    ]
                },
                "nodeType": 1
            },
            "7": {
                "invocation": {
                    "address": "0x9f59b4f7d3bd00caa85e61c57761768291155084",
                    "callData": "0x000000000000000000000000257325ad03560ce1ba23e74d8dcb61cabc270dd2",
                    "decodedMethod": {
                        "callParams": [
                            {
                                "name": "",
                                "type": "address",
                                "value": "0x257325ad03560ce1ba23e74d8dcb61cabc270dd2"
                            }
                        ],
                        "constructorArguments": "",
                        "name": "onList",
                        "returnParams": [
                            {
                                "name": "",
                                "type": "bool",
                                "value": false
                            }
                        ],
                        "signature": "onList(address)"
                    },
                    "errorInfo": "",
                    "fromAddress": "0x8dd5fbce2f6a956c3022ba3663759011dd51e73e",
                    "gasUsed": 605,
                    "id": 7,
                    "methodDecoded": true,
                    "operation": "CALL",
                    "output": "0x0000000000000000000000000000000000000000000000000000000000000000",
                    "revert": false,
                    "revertMessage": "",
                    "selector": "0x6f626eb3",
                    "status": true,
                    "value": "0"
                },
                "nodeType": 0
            },
            "8": {
                "invocation": {
                    "address": "0x9f59b4f7d3bd00caa85e61c57761768291155084",
                    "callData": "0x000000000000000000000000fbb1b73c4f0bda4f67dca266ce6ef42f520fbb98",
                    "decodedMethod": {
                        "callParams": [
                            {
                                "name": "",
                                "type": "address",
                                "value": "0xfbb1b73c4f0bda4f67dca266ce6ef42f520fbb98"
                            }
                        ],
                        "constructorArguments": "",
                        "name": "onList",
                        "returnParams": [
                            {
                                "name": "",
                                "type": "bool",
                                "value": true
                            }
                        ],
                        "signature": "onList(address)"
                    },
                    "errorInfo": "",
                    "fromAddress": "0x8dd5fbce2f6a956c3022ba3663759011dd51e73e",
                    "gasUsed": 605,
                    "id": 8,
                    "methodDecoded": true,
                    "operation": "CALL",
                    "output": "0x0000000000000000000000000000000000000000000000000000000000000001",
                    "revert": false,
                    "revertMessage": "",
                    "selector": "0x6f626eb3",
                    "status": true,
                    "value": "0"
                },
                "nodeType": 0
            }
        },
        "gasFlame": [
            {
                "children": [
                    {
                        "children": [
                            {
                                "children": [],
                                "depth": 0,
                                "name": "Initial Gas",
                                "value": 23256
                            },
                            {
                                "children": [
                                    {
                                        "children": [],
                                        "depth": 1,
                                        "name": "onList",
                                        "value": 605
                                    },
                                    {
                                        "children": [],
                                        "depth": 1,
                                        "name": "onList",
                                        "value": 605
                                    },
                                    {
                                        "children": [],
                                        "depth": 1,
                                        "name": "balanceOf",
                                        "value": 546
                                    },
                                    {
                                        "children": [],
                                        "depth": 1,
                                        "name": "subBalance",
                                        "value": 6055
                                    },
                                    {
                                        "children": [],
                                        "depth": 1,
                                        "name": "addBalance",
                                        "value": 20980
                                    },
                                    {
                                        "children": [],
                                        "depth": 1,
                                        "name": "onList",
                                        "value": 605
                                    },
                                    {
                                        "children": [],
                                        "depth": 1,
                                        "name": "onList",
                                        "value": 605
                                    }
                                ],
                                "depth": 0,
                                "name": "Executed Gas",
                                "value": 47591
                            }
                        ],
                        "depth": -1,
                        "name": "Actual Gas Used",
                        "value": 70847
                    },
                    {
                        "children": [],
                        "depth": -1,
                        "name": "Refunded Gas",
                        "value": 0
                    }
                ],
                "depth": -2,
                "name": "Total Gas",
                "value": 70847
            }
        ],
        "isConfirmed": true,
        "mainTrace": [
            {
                "children": [
                    {
                        "children": [
                            {
                                "children": [],
                                "depth": 1,
                                "id": 1,
                                "order": 1
                            },
                            {
                                "children": [],
                                "depth": 1,
                                "id": 2,
                                "order": 2
                            },
                            {
                                "children": [],
                                "depth": 1,
                                "id": 3,
                                "order": 3
                            },
                            {
                                "children": [],
                                "depth": 1,
                                "id": 4,
                                "order": 4
                            },
                            {
                                "children": [],
                                "depth": 1,
                                "id": 5,
                                "order": 5
                            },
                            {
                                "children": [],
                                "depth": 1,
                                "id": 6,
                                "order": 6
                            },
                            {
                                "children": [],
                                "depth": 1,
                                "id": 7,
                                "order": 7
                            },
                            {
                                "children": [],
                                "depth": 1,
                                "id": 8,
                                "order": 8
                            }
                        ],
                        "depth": 0,
                        "id": 0,
                        "order": 0
                    }
                ],
                "depth": -1,
                "id": -1,
                "order": -1
            }
        ],
        "mainTraceNodeCount": 9,
        "parentIdMap": {
            "0": -1,
            "1": 0,
            "2": 0,
            "3": 0,
            "4": 0,
            "5": 0,
            "6": 0,
            "7": 0,
            "8": 0
        },
        "tidyTrace": [
            {
                "children": [
                    {
                        "children": [
                            {
                                "children": [],
                                "depth": 1,
                                "id": 1,
                                "order": 1
                            },
                            {
                                "children": [],
                                "depth": 1,
                                "id": 2,
                                "order": 2
                            },
                            {
                                "children": [],
                                "depth": 1,
                                "id": 3,
                                "order": 3
                            },
                            {
                                "children": [],
                                "depth": 1,
                                "id": 4,
                                "order": 4
                            },
                            {
                                "children": [],
                                "depth": 1,
                                "id": 5,
                                "order": 5
                            },
                            {
                                "children": [],
                                "depth": 1,
                                "id": 6,
                                "order": 6
                            },
                            {
                                "children": [],
                                "depth": 1,
                                "id": 7,
                                "order": 7
                            },
                            {
                                "children": [],
                                "depth": 1,
                                "id": 8,
                                "order": 8
                            }
                        ],
                        "depth": 0,
                        "id": 0,
                        "order": 0
                    }
                ],
                "depth": -1,
                "id": -1,
                "order": -1
            }
        ],
        "tidyTraceNodeCount": 9
    },
    "state_change": {
        "stateChanges": [
            {
                "address": "0x6dea55ba04a37fddd05e1fd979c30aa0e634e837",
                "erc": "",
                "slots": [
                    {
                        "current": "0x000000000000000000000000000000000000000000072a9d82bab149231a7000",
                        "key": "0x47e042d1d8892c3d1d92e3b03086ad3b215d49c6e00cb5495cd5c645f95021c9",
                        "prev": "0x000000000000000000000000000000000000000000072aa40410557f99fa7000"
                    },
                    {
                        "current": "0x0000000000000000000000000000000000000000000000068155a43676e00000",
                        "key": "0x396e040f14045ed09eabf6f93492872a9a492f7c05ae2168eca7b99dd3676549",
                        "prev": "0x0000000000000000000000000000000000000000000000000000000000000000"
                    }
                ],
                "storageVariables": [
                    {
                        "name": "balanceOf",
                        "type": "mapping(address => uint256)",
                        "value": {
                            "pairs": [
                                {
                                    "key": "0x257325ad03560ce1ba23e74d8dcb61cabc270dd2",
                                    "value": {
                                        "current": "120000000000000000000",
                                        "prev": "0",
                                        "typeTag": 1
                                    }
                                },
                                {
                                    "key": "0xfbb1b73c4f0bda4f67dca266ce6ef42f520fbb98",
                                    "value": {
                                        "current": "8663725688439000000000000",
                                        "prev": "8663845688439000000000000",
                                        "typeTag": 1
                                    }
                                }
                            ],
                            "typeTag": 4
                        }
                    }
                ]
            }
        ]
    }
}