{
    "balance_change": {
        "balanceChanges": [
            {
                "account": "0xdfd5293d8e347dfe59e90efd55b2956a1343963d",
                "assets": [
                    {
                        "address": "0xc7283b66eb1eb5fb86327f08e1b5816b0720212b",
                        "amount": "607",
                        "iconUrl": "https://assets.blocksec.com/icon/453aefac730062d97ac62d0d1af3190fd2c65918242e4fd4b3de7dc5cda77de0.png",
                        "isERC1155": false,
                        "isERC721": false,
                        "sign": false,
                        "value": "312.30149999999997412"
                    }
                ]
            },
            {
                "account": "0xd08c3ccfa50cb1143bfdbc55779739d9f6e73cd9",
                "assets": [
                    {
                        "address": "0xc7283b66eb1eb5fb86327f08e1b5816b0720212b",
                        "amount": "607",
                        "iconUrl": "https://assets.blocksec.com/icon/453aefac730062d97ac62d0d1af3190fd2c65918242e4fd4b3de7dc5cda77de0.png",
                        "isERC1155": false,
                        "isERC721": false,
                        "sign": true,
                        "value": "312.30149999999997412"
                    }
                ]
            }
        ]
    },
    "profile": {
        "basic_info": {
            "baseFee": "7.366990434",
            "blockNumber": 20030548,
            "callData": "0xa9059cbb000000000000000000000000d08c3ccfa50cb1143bfdbc55779739d9f6e73cd9000000000000000000000000000000000000000000000020e7d133f9e61c0000",
            "debugEnable": true,
            "errorInfo": "",
            "eventCount": 1,
            "feeRecipient": "0xb4b2c32002fae1261308823e8c311193eaee626b",
            "formatValue": "0",
            "gasLimit": 207128,
            "gasPrice": "10.366990434",
            "gasUsed": 57030,
            "intTxnCount": 0,
            "internalRevert": false,
            "internalRevertMessage": "",
            "isContractCreation": false,
            "isFlashloan": false,
            "maxFee": "102",
            "nonce": 9126446,
            "overwritedBlockNumber": -1,
            "priorityFee": "3",
            "receiver": "0xc7283b66eb1eb5fb86327f08e1b5816b0720212b",
            "revertMessage": "",
            "sender": "0xdfd5293d8e347dfe59e90efd55b2956a1343963d",
            "simulationEnable": true,
            "sourceTxnHash": "0xee229d50e0100a8efb18124bdca25da8650882bb076a39ec999faa307404b6e7",
            "status": true,
            "timestamp": "2024-06-06T04:57:35Z",
            "transactionFee": "0.00059122946445102",
            "txnHash": "0xee229d50e0100a8efb18124bdca25da8650882bb076a39ec999faa307404b6e7",
            "txnIndex": 8,
            "type": 2,
            "value": "0"
        },
        "fund_flow": [
            {
                "amount": "607",
                "from": "0xdfd5293d8e347dfe59e90efd55b2956a1343963d",
                "id": 1,
                "isERC1155": false,
                "isERC721": false,
                "isReverted": false,
                "order": 1,
                "to": "0xd08c3ccfa50cb1143bfdbc55779739d9f6e73cd9",
                "token": "0xc7283b66eb1eb5fb86327f08e1b5816b0720212b"
            }
        ],
        "token_infos": [
            {
                "address": "0xc02aaa39b223fe8d0a0e5c4f27ead9083c756cc2",
                "decimals": 18
            },
            {
                "address": "0xc7283b66eb1eb5fb86327f08e1b5816b0720212b",
                "decimals": 18
            },
            {
                "address": "0xeeeeeeeeeeeeeeeeeeeeeeeeeeeeeeeeeeeeeeee",
                "decimals": 18
            }
        ]
    },
    "address_label": {
        "labels": [
            {
                "address": "0xeeeeeeeeeeeeeeeeeeeeeeeeeeeeeeeeeeeeeeee",
                "label": "Ether"
            },
            {
                "address": "0xdfd5293d8e347dfe59e90efd55b2956a1343963d",
                "label": "Binance 16"
            },
            {
                "address": "0xc7283b66eb1eb5fb86327f08e1b5816b0720212b",
                "label": "Fei Protocol: Tribe"
            },
            {
                "address": "0x0000000000000000000000000000000000000001",
                "label": "Precompiled"
            },
            {
                "address": "0x0000000000000000000000000000000000000002",
                "label": "Precompiled"
            },
            {
                "address": "0x0000000000000000000000000000000000000003",
                "label": "Precompiled"
            },
            {
                "address": "0x0000000000000000000000000000000000000004",
                "label": "Precompiled"
            }
        ]
    },
    "trace": {
        "accountLabels": null,
        "dataMap": {
            "-1": {
                "invocation": {
                    "address": "0xdfd5293d8e347dfe59e90efd55b2956a1343963d",
                    "callData": "",
                    "decodedMethod": null,
                    "errorInfo": "",
                    "fromAddress": "",
                    "gasUsed": 0,
                    "id": -1,
                    "methodDecoded": false,
                    "operation": "",
                    "output": "",
                    "revert": false,
                    "revertMessage": "",
                    "selector": "",
                    "status": false,
                    "value": ""
                },
                "nodeType": 0
            },
            "0": {
                "invocation": {
                    "address": "0xc7283b66eb1eb5fb86327f08e1b5816b0720212b",
                    "callData": "0x000000000000000000000000d08c3ccfa50cb1143bfdbc55779739d9f6e73cd9000000000000000000000000000000000000000000000020e7d133f9e61c0000",
                    "decodedMethod": {
                        "callParams": [
                            {
                                "name": "dst",
                                "type": "address",
                                "value": "0xd08c3ccfa50cb1143bfdbc55779739d9f6e73cd9"
                            },
                            {
                                "decimalAvailable": true,
                                "name": "rawAmount",
                                "type": "uint256",
                                "value": "607,000,000,000,000,000,000"
                            }
                        ],
                        "constructorArguments": "",
                        "name": "transfer",
                        "returnParams": [
                            {
                                "name": "",
                                "type": "bool",
                                "value": true
                            }
                        ],
                        "signature": "transfer(address,uint256)"
                    },
                    "errorInfo": "",
                    "fromAddress": "0xdfd5293d8e347dfe59e90efd55b2956a1343963d",
                    "gasUsed": 57030,
                    "id": 0,
                    "methodDecoded": true,
                    "operation": "CALL",
                    "output": "0x0000000000000000000000000000000000000000000000000000000000000001",
                    "revert": false,
                    "revertMessage": "",
                    "selector": "0xa9059cbb",
                    "status": true,
                    "value": "0"
                },
                "nodeType": 0
            },
            "1": {
                "event": {
                    "contract": "0xc7283b66eb1eb5fb86327f08e1b5816b0720212b",
                    "decodedLog": {
                        "name": "Transfer",
                        "params": [
                            {
                                "name": "from",
                                "type": "address",
                                "value": "0xdfd5293d8e347dfe59e90efd55b2956a1343963d"
                            },
                            {
                                "name": "to",
                                "type": "address",
                                "value": "0xd08c3ccfa50cb1143bfdbc55779739d9f6e73cd9"
                            },
                            {
                                "decimalAvailable": true,
                                "name": "amount",
                                "type": "uint256",
                                "value": "607,000,000,000,000,000,000"
                            }
                        ],
                        "signature": "Transfer(address,address,uint256)"
                    },
                    "id": 1,
                    "logData": "0x000000000000000000000000000000000000000000000020e7d133f9e61c0000",
                    "logDecoded": true,
                    "operation": "EVENT",
                    "revert": false,
                    "status": true,
                    "topics": [
                        "0xddf252ad1be2c89b69c2b068fc378daa952ba7f163c4a11628f55a4df523b3ef",
                        "0x000000000000000000000000dfd5293d8e347dfe59e90efd55b2956a1343963d",
                        "0x000000000000000000000000d08c3ccfa50cb1143bfdbc55779739d9f6e73cd9"
                    ]
                },
                "nodeType": 1
            }
        },
        "gasFlame": [
            {
                "children": [
                    {
                        "children": [
                            {
                                "children": [],
                                "depth": 0,
                                "name": "Initial Gas",
                                "value": 21644
                            },
                            {
                                "children": [],
                                "depth": 0,
                                "name": "Executed Gas",
                                "value": 35386
                            }
                        ],
                        "depth": -1,
                        "name": "Actual Gas Used",
                        "value": 57030
                    },
                    {
                        "children": [],
                        "depth": -1,
                        "name": "Refunded Gas",
                        "value": 0
                    }
                ],
                "depth": -2,
                "name": "Total Gas",
                "value": 57030
            }
        ],
        "isConfirmed": true,
        "mainTrace": [
            {
                "children": [
                    {
                        "children": [
                            {
                                "children": [],
                                "depth": 1,
                                "id": 1,
                                "order": 1
                            }
                        ],
                        "depth": 0,
                        "id": 0,
                        "order": 0
                    }
                ],
                "depth": -1,
                "id": -1,
                "order": -1
            }
        ],
        "mainTraceNodeCount": 2,
        "parentIdMap": {
            "0": -1,
            "1": 0
        },
        "tidyTrace": [
            {
                "children": [
                    {
                        "children": [
                            {
                                "children": [],
                                "depth": 1,
                                "id": 1,
                                "order": 1
                            }
                        ],
                        "depth": 0,
                        "id": 0,
                        "order": 0
                    }
                ],
                "depth": -1,
                "id": -1,
                "order": -1
            }
        ],
        "tidyTraceNodeCount": 2
    },
    "state_change": {
        "stateChanges": [
            {
                "address": "0xc7283b66eb1eb5fb86327f08e1b5816b0720212b",
                "erc": "ERC-20",
                "slots": [
                    {
                        "current": "0x00000000000000000000000000000000000000000000061dcf8e0395d1f85c00",
                        "key": "0xdd318d7348bf8e43f477eae526d24b167d874d37f32fd7b623774c66bbf0b43a",
                        "prev": "0x00000000000000000000000000000000000000000000063eb75f378fb8145c00"
                    },
                    {
                        "current": "0x000000000000000000000000000000000000000000000020e7d133f9e61c0000",
                        "key": "0x230c92faa1356ba8d3e76e684b136683084406e51d4cebdf878ee8d7f44bd62a",
                        "prev": "0x0000000000000000000000000000000000000000000000000000000000000000"
                    }
                ],
                "storageVariables": [
                    {
                        "name": "balances",
                        "type": "mapping(address => uint96)",
                        "value": {
                            "pairs": [
                                {
                                    "key": "0xd08c3ccfa50cb1143bfdbc55779739d9f6e73cd9",
                                    "value": {
                                        "current": "607000000000000000000",
                                        "prev": "0",
                                        "typeTag": 1
                                    }
                                },
                                {
                                    "key": "0xdfd5293d8e347dfe59e90efd55b2956a1343963d",
                                    "value": {
                                        "current": "28884110370710000000000",
                                        "prev": "29491110370710000000000",
                                        "typeTag": 1
                                    }
                                }
                            ],
                            "typeTag": 4
                        }
                    }
                ]
            }
        ]
    }
}