{
    "balance_change": {
        "balanceChanges": [
            {
                "account": "0x5f46a1e84dd69e245d7e0bb0b8f785b51c72499c",
                "assets": [
                    {
                        "address": "0xeeeeeeeeeeeeeeeeeeeeeeeeeeeeeeeeeeeeeeee",
                        "amount": "0.083527319867582112",
                        "iconUrl": "https://assets.blocksec.com/image/1663669189317-3.png",
                        "isERC1155": false,
                        "isERC721": false,
                        "sign": false,
                        "value": "152.89508847563760151"
                    },
                    {
                        "address": "0xc02aaa39b223fe8d0a0e5c4f27ead9083c756cc2",
                        "amount": "0.083527319867582112",
                        "iconUrl": "https://assets.blocksec.com/icon/f1cb2d02c471d545bbc7722daf3277fd852d98e63d118771af7047bd8256c516.png",
                        "isERC1155": false,
                        "isERC721": false,
                        "sign": true,
                        "value": "152.89508847563760151"
                    }
                ]
            },
            {
                "account": "0xc02aaa39b223fe8d0a0e5c4f27ead9083c756cc2",
                "assets": [
                    {
                        "address": "0xc02aaa39b223fe8d0a0e5c4f27ead9083c756cc2",
                        "amount": "0.083527319867582112",
                        "iconUrl": "https://assets.blocksec.com/icon/f1cb2d02c471d545bbc7722daf3277fd852d98e63d118771af7047bd8256c516.png",
                        "isERC1155": false,
                        "isERC721": false,
                        "sign": false,
                        "value": "152.89508847563760151"
                    },
                    {
                        "address": "0xeeeeeeeeeeeeeeeeeeeeeeeeeeeeeeeeeeeeeeee",
                        "amount": "0.083527319867582112",
                        "iconUrl": "https://assets.blocksec.com/image/1663669189317-3.png",
                        "isERC1155": false,
                        "isERC721": false,
                        "sign": true,
                        "value": "152.89508847563760151"
                    }
                ]
            }
        ]
    },
    "profile": {
        "basic_info": {
            "baseFee": "35.383781755",
            "blockNumber": 17849626,
            "callData": "0x049639fb0000000000000000000000000000000000000000000000000000000000000004000000000000000000000000eeeeeeeeeeeeeeeeeeeeeeeeeeeeeeeeeeeeeeee000000000000000000000000c02aaa39b223fe8d0a0e5c4f27ead9083c756cc20000000000000000000000000000000000000000000000000128bfa7a5bf66a0000000000000000000000000000000000000000000000000011cff55f30cb60300000000000000000000000000000000000000000000000000000000000000c00000000000000000000000000000000000000000000000000000000000000000",
            "debugEnable": true,
            "errorInfo": "",
            "eventCount": 5,
            "feeRecipient": "0x95222290dd7278aa3ddd389cc1e1d165cc4bafe5",
            "formatValue": "0.083527319867582112",
            "gasLimit": 180117,
            "gasPrice": "36.383781755",
            "gasUsed": 95204,
            "intTxnCount": 12,
            "internalRevert": false,
            "internalRevertMessage": "",
            "isContractCreation": false,
            "isFlashloan": false,
            "maxFee": "47.168810684",
            "nonce": 3,
            "overwritedBlockNumber": -1,
            "priorityFee": "1",
            "receiver": "0x3c11f6265ddec22f4d049dde480615735f451646",
            "revertMessage": "",
            "sender": "0x5f46a1e84dd69e245d7e0bb0b8f785b51c72499c",
            "simulationEnable": true,
            "sourceTxnHash": "0xeec38dd2996024e2b65387ec04368617b19314fc8c23977b144839520752e2a2",
            "status": true,
            "timestamp": "2023-08-05T15:21:11Z",
            "transactionFee": "0.00346388155820302",
            "txnHash": "0xeec38dd2996024e2b65387ec04368617b19314fc8c23977b144839520752e2a2",
            "txnIndex": 89,
            "type": 2,
            "value": "83527319867582112"
        },
        "fund_flow": [
            {
                "amount": "0.083527319867582112",
                "from": "0x5f46a1e84dd69e245d7e0bb0b8f785b51c72499c",
                "id": 1,
                "isERC1155": false,
                "isERC721": false,
                "isReverted": false,
                "order": 1,
                "to": "0x3c11f6265ddec22f4d049dde480615735f451646",
                "token": "0xeeeeeeeeeeeeeeeeeeeeeeeeeeeeeeeeeeeeeeee"
            },
            {
                "amount": "0.083527319867582112",
                "from": "0x3c11f6265ddec22f4d049dde480615735f451646",
                "id": 2,
                "isERC1155": false,
                "isERC721": false,
                "isReverted": false,
                "order": 2,
                "to": "0xa7ca2c8673bcfa5a26d8ceec2887f2cc2b0db22a",
                "token": "0xeeeeeeeeeeeeeeeeeeeeeeeeeeeeeeeeeeeeeeee"
            },
            {
                "amount": "0.083527319867582112",
                "from": "0xa7ca2c8673bcfa5a26d8ceec2887f2cc2b0db22a",
                "id": 3,
                "isERC1155": false,
                "isERC721": false,
                "isReverted": false,
                "order": 3,
                "to": "0xc02aaa39b223fe8d0a0e5c4f27ead9083c756cc2",
                "token": "0xeeeeeeeeeeeeeeeeeeeeeeeeeeeeeeeeeeeeeeee"
            },
            {
                "amount": "0.083527319867582112",
                "from": "0xc02aaa39b223fe8d0a0e5c4f27ead9083c756cc2",
                "id": 4,
                "isERC1155": false,
                "isERC721": false,
                "isReverted": false,
                "order": 4,
                "to": "0xa7ca2c8673bcfa5a26d8ceec2887f2cc2b0db22a",
                "token": "0xc02aaa39b223fe8d0a0e5c4f27ead9083c756cc2"
            },
            {
                "amount": "0.083527319867582112",
                "from": "0xa7ca2c8673bcfa5a26d8ceec2887f2cc2b0db22a",
                "id": 5,
                "isERC1155": false,
                "isERC721": false,
                "isReverted": false,
                "order": 5,
                "to": "0x5f46a1e84dd69e245d7e0bb0b8f785b51c72499c",
                "token": "0xc02aaa39b223fe8d0a0e5c4f27ead9083c756cc2"
            }
        ],
        "token_infos": [
            {
                "address": "0xc02aaa39b223fe8d0a0e5c4f27ead9083c756cc2",
                "decimals": 18
            },
            {
                "address": "0xeeeeeeeeeeeeeeeeeeeeeeeeeeeeeeeeeeeeeeee",
                "decimals": 18
            }
        ]
    },
    "address_label": {
        "labels": [
            {
                "address": "0xeeeeeeeeeeeeeeeeeeeeeeeeeeeeeeeeeeeeeeee",
                "label": "Ether"
            },
            {
                "address": "0x3c11f6265ddec22f4d049dde480615735f451646",
                "label": "Swapper"
            },
            {
                "address": "0xa7ca2c8673bcfa5a26d8ceec2887f2cc2b0db22a",
                "label": "0xa7ca_SmartVault"
            },
            {
                "address": "0xc02aaa39b223fe8d0a0e5c4f27ead9083c756cc2",
                "label": "Wrapped Ether (WETH)"
            },
            {
                "address": "0x0000000000000000000000000000000000000001",
                "label": "Precompiled"
            },
            {
                "address": "0x0000000000000000000000000000000000000002",
                "label": "Precompiled"
            },
            {
                "address": "0x3e88c9b0e3be6817973a6e629211e702d12c577f",
                "label": "0x3e88_SmartVault"
            },
            {
                "address": "0x0000000000000000000000000000000000000003",
                "label": "Precompiled"
            },
            {
                "address": "0x0000000000000000000000000000000000000004",
                "label": "Precompiled"
            }
        ]
    },
    "trace": {
        "accountLabels": null,
        "dataMap": {
            "-1": {
                "invocation": {
                    "address": "0x5f46a1e84dd69e245d7e0bb0b8f785b51c72499c",
                    "callData": "",
                    "decodedMethod": null,
                    "errorInfo": "",
                    "fromAddress": "",
                    "gasUsed": 0,
                    "id": -1,
                    "methodDecoded": false,
                    "operation": "",
                    "output": "",
                    "revert": false,
                    "revertMessage": "",
                    "selector": "",
                    "status": false,
                    "value": ""
                },
                "nodeType": 0
            },
            "0": {
                "invocation": {
                    "address": "0x3c11f6265ddec22f4d049dde480615735f451646",
                    "callData": "0x0000000000000000000000000000000000000000000000000000000000000004000000000000000000000000eeeeeeeeeeeeeeeeeeeeeeeeeeeeeeeeeeeeeeee000000000000000000000000c02aaa39b223fe8d0a0e5c4f27ead9083c756cc20000000000000000000000000000000000000000000000000128bfa7a5bf66a0000000000000000000000000000000000000000000000000011cff55f30cb60300000000000000000000000000000000000000000000000000000000000000c00000000000000000000000000000000000000000000000000000000000000000",
                    "decodedMethod": {
                        "callParams": [
                            {
                                "name": "source",
                                "type": "uint8",
                                "value": "4"
                            },
                            {
                                "name": "tokenIn",
                                "type": "address",
                                "value": "0xeeeeeeeeeeeeeeeeeeeeeeeeeeeeeeeeeeeeeeee"
                            },
                            {
                                "name": "tokenOut",
                                "type": "address",
                                "value": "0xc02aaa39b223fe8d0a0e5c4f27ead9083c756cc2"
                            },
                            {
                                "name": "amountIn",
                                "type": "uint256",
                                "value": "83,527,319,867,582,112"
                            },
                            {
                                "name": "minAmountOut",
                                "type": "uint256",
                                "value": "80,219,638,000,825,859"
                            },
                            {
                                "name": "data",
                                "type": "bytes",
                                "value": "0x"
                            }
                        ],
                        "constructorArguments": "",
                        "name": "call",
                        "returnParams": [],
                        "signature": "call(uint8,address,address,uint256,uint256,bytes)"
                    },
                    "errorInfo": "",
                    "fromAddress": "0x5f46a1e84dd69e245d7e0bb0b8f785b51c72499c",
                    "gasUsed": 95204,
                    "id": 0,
                    "methodDecoded": true,
                    "operation": "CALL",
                    "output": "",
                    "revert": false,
                    "revertMessage": "",
                    "selector": "0x049639fb",
                    "status": true,
                    "value": "0.083527319867582112"
                },
                "nodeType": 0
            },
            "1": {
                "invocation": {
                    "address": "0xa7ca2c8673bcfa5a26d8ceec2887f2cc2b0db22a",
                    "callData": "0x",
                    "decodedMethod": null,
                    "errorInfo": "",
                    "fromAddress": "0x3c11f6265ddec22f4d049dde480615735f451646",
                    "gasUsed": 2712,
                    "id": 1,
                    "methodDecoded": false,
                    "operation": "CALL",
                    "output": "",
                    "revert": false,
                    "revertMessage": "",
                    "selector": "fallback",
                    "status": true,
                    "value": "0.083527319867582112"
                },
                "nodeType": 0
            },
            "10": {
                "invocation": {
                    "address": "0xa7ca2c8673bcfa5a26d8ceec2887f2cc2b0db22a",
                    "callData": "0x",
                    "decodedMethod": {
                        "callParams": [],
                        "constructorArguments": "",
                        "name": "wrappedNativeToken",
                        "returnParams": [
                            {
                                "name": "",
                                "type": "address",
                                "value": "0xc02aaa39b223fe8d0a0e5c4f27ead9083c756cc2"
                            }
                        ],
                        "signature": "wrappedNativeToken()"
                    },
                    "errorInfo": "",
                    "fromAddress": "0x3c11f6265ddec22f4d049dde480615735f451646",
                    "gasUsed": 451,
                    "id": 10,
                    "methodDecoded": true,
                    "operation": "STATICCALL",
                    "output": "0x000000000000000000000000c02aaa39b223fe8d0a0e5c4f27ead9083c756cc2",
                    "revert": false,
                    "revertMessage": "",
                    "selector": "0x17fcb39b",
                    "status": true,
                    "value": "0"
                },
                "nodeType": 0
            },
            "11": {
                "invocation": {
                    "address": "0x3e88c9b0e3be6817973a6e629211e702d12c577f",
                    "callData": "0x",
                    "decodedMethod": {
                        "callParams": [],
                        "constructorArguments": "",
                        "name": "wrappedNativeToken",
                        "returnParams": [
                            {
                                "name": "",
                                "type": "address",
                                "value": "0xc02aaa39b223fe8d0a0e5c4f27ead9083c756cc2"
                            }
                        ],
                        "signature": "wrappedNativeToken()"
                    },
                    "errorInfo": "",
                    "fromAddress": "0xa7ca2c8673bcfa5a26d8ceec2887f2cc2b0db22a",
                    "gasUsed": 285,
                    "id": 11,
                    "methodDecoded": true,
                    "operation": "DELEGATECALL",
                    "output": "0x000000000000000000000000c02aaa39b223fe8d0a0e5c4f27ead9083c756cc2",
                    "revert": false,
                    "revertMessage": "",
                    "selector": "0x17fcb39b",
                    "status": true,
                    "value": "0"
                },
                "nodeType": 0
            },
            "12": {
                "invocation": {
                    "address": "0xa7ca2c8673bcfa5a26d8ceec2887f2cc2b0db22a",
                    "callData": "0x000000000000000000000000c02aaa39b223fe8d0a0e5c4f27ead9083c756cc20000000000000000000000000000000000000000000000000128bfa7a5bf66a00000000000000000000000005f46a1e84dd69e245d7e0bb0b8f785b51c72499c00000000000000000000000000000000000000000000000000000000000000800000000000000000000000000000000000000000000000000000000000000000",
                    "decodedMethod": {
                        "callParams": [
                            {
                                "name": "token",
                                "type": "address",
                                "value": "0xc02aaa39b223fe8d0a0e5c4f27ead9083c756cc2"
                            },
                            {
                                "name": "amount",
                                "type": "uint256",
                                "value": "83,527,319,867,582,112"
                            },
                            {
                                "name": "recipient",
                                "type": "address",
                                "value": "0x5f46a1e84dd69e245d7e0bb0b8f785b51c72499c"
                            },
                            {
                                "name": "data",
                                "type": "bytes",
                                "value": "0x"
                            }
                        ],
                        "constructorArguments": "",
                        "name": "withdraw",
                        "returnParams": [
                            {
                                "name": "withdrawn",
                                "type": "uint256",
                                "value": "83,527,319,867,582,112"
                            }
                        ],
                        "signature": "withdraw(address,uint256,address,bytes)"
                    },
                    "errorInfo": "",
                    "fromAddress": "0x3c11f6265ddec22f4d049dde480615735f451646",
                    "gasUsed": 25391,
                    "id": 12,
                    "methodDecoded": true,
                    "operation": "CALL",
                    "output": "0x0000000000000000000000000000000000000000000000000128bfa7a5bf66a0",
                    "revert": false,
                    "revertMessage": "",
                    "selector": "0x9003afee",
                    "status": true,
                    "value": "0"
                },
                "nodeType": 0
            },
            "13": {
                "invocation": {
                    "address": "0x3e88c9b0e3be6817973a6e629211e702d12c577f",
                    "callData": "0x000000000000000000000000c02aaa39b223fe8d0a0e5c4f27ead9083c756cc20000000000000000000000000000000000000000000000000128bfa7a5bf66a00000000000000000000000005f46a1e84dd69e245d7e0bb0b8f785b51c72499c00000000000000000000000000000000000000000000000000000000000000800000000000000000000000000000000000000000000000000000000000000000",
                    "decodedMethod": {
                        "callParams": [
                            {
                                "name": "token",
                                "type": "address",
                                "value": "0xc02aaa39b223fe8d0a0e5c4f27ead9083c756cc2"
                            },
                            {
                                "name": "amount",
                                "type": "uint256",
                                "value": "83,527,319,867,582,112"
                            },
                            {
                                "name": "recipient",
                                "type": "address",
                                "value": "0x5f46a1e84dd69e245d7e0bb0b8f785b51c72499c"
                            },
                            {
                                "name": "data",
                                "type": "bytes",
                                "value": "0x"
                            }
                        ],
                        "constructorArguments": "",
                        "name": "withdraw",
                        "returnParams": [
                            {
                                "name": "withdrawn",
                                "type": "uint256",
                                "value": "83,527,319,867,582,112"
                            }
                        ],
                        "signature": "withdraw(address,uint256,address,bytes)"
                    },
                    "errorInfo": "",
                    "fromAddress": "0xa7ca2c8673bcfa5a26d8ceec2887f2cc2b0db22a",
                    "gasUsed": 25195,
                    "id": 13,
                    "methodDecoded": true,
                    "operation": "DELEGATECALL",
                    "output": "0x0000000000000000000000000000000000000000000000000128bfa7a5bf66a0",
                    "revert": false,
                    "revertMessage": "",
                    "selector": "0x9003afee",
                    "status": true,
                    "value": "0"
                },
                "nodeType": 0
            },
            "14": {
                "invocation": {
                    "address": "0xc02aaa39b223fe8d0a0e5c4f27ead9083c756cc2",
                    "callData": "0x0000000000000000000000005f46a1e84dd69e245d7e0bb0b8f785b51c72499c0000000000000000000000000000000000000000000000000128bfa7a5bf66a0",
                    "decodedMethod": {
                        "callParams": [
                            {
                                "name": "dst",
                                "type": "address",
                                "value": "0x5f46a1e84dd69e245d7e0bb0b8f785b51c72499c"
                            },
                            {
                                "decimalAvailable": true,
                                "name": "wad",
                                "type": "uint256",
                                "value": "83,527,319,867,582,112"
                            }
                        ],
                        "constructorArguments": "",
                        "name": "transfer",
                        "returnParams": [
                            {
                                "name": "",
                                "type": "bool",
                                "value": true
                            }
                        ],
                        "signature": "transfer(address,uint256)"
                    },
                    "errorInfo": "",
                    "fromAddress": "0xa7ca2c8673bcfa5a26d8ceec2887f2cc2b0db22a",
                    "gasUsed": 8062,
                    "id": 14,
                    "methodDecoded": true,
                    "operation": "CALL",
                    "output": "0x0000000000000000000000000000000000000000000000000000000000000001",
                    "revert": false,
                    "revertMessage": "",
                    "selector": "0xa9059cbb",
                    "status": true,
                    "value": "0"
                },
                "nodeType": 0
            },
            "15": {
                "event": {
                    "contract": "0xc02aaa39b223fe8d0a0e5c4f27ead9083c756cc2",
                    "decodedLog": {
                        "name": "Transfer",
                        "params": [
                            {
                                "name": "src",
                                "type": "address",
                                "value": "0xa7ca2c8673bcfa5a26d8ceec2887f2cc2b0db22a"
                            },
                            {
                                "name": "dst",
                                "type": "address",
                                "value": "0x5f46a1e84dd69e245d7e0bb0b8f785b51c72499c"
                            },
                            {
                                "decimalAvailable": true,
                                "name": "wad",
                                "type": "uint256",
                                "value": "83,527,319,867,582,112"
                            }
                        ],
                        "signature": "Transfer(address,address,uint256)"
                    },
                    "id": 15,
                    "logData": "0x0000000000000000000000000000000000000000000000000128bfa7a5bf66a0",
                    "logDecoded": true,
                    "operation": "EVENT",
                    "revert": false,
                    "status": true,
                    "topics": [
                        "0xddf252ad1be2c89b69c2b068fc378daa952ba7f163c4a11628f55a4df523b3ef",
                        "0x000000000000000000000000a7ca2c8673bcfa5a26d8ceec2887f2cc2b0db22a",
                        "0x0000000000000000000000005f46a1e84dd69e245d7e0bb0b8f785b51c72499c"
                    ]
                },
                "nodeType": 1
            },
            "16": {
                "event": {
                    "contract": "0xa7ca2c8673bcfa5a26d8ceec2887f2cc2b0db22a",
                    "decodedLog": {
                        "name": "Withdraw",
                        "params": [
                            {
                                "name": "token",
                                "type": "address",
                                "value": "0xc02aaa39b223fe8d0a0e5c4f27ead9083c756cc2"
                            },
                            {
                                "name": "recipient",
                                "type": "address",
                                "value": "0x5f46a1e84dd69e245d7e0bb0b8f785b51c72499c"
                            },
                            {
                                "name": "withdrawn",
                                "type": "uint256",
                                "value": "83,527,319,867,582,112"
                            },
                            {
                                "name": "fee",
                                "type": "uint256",
                                "value": "0"
                            },
                            {
                                "name": "data",
                                "type": "bytes",
                                "value": "0x"
                            }
                        ],
                        "signature": "Withdraw(address,address,uint256,uint256,bytes)"
                    },
                    "id": 16,
                    "logData": "0x0000000000000000000000000000000000000000000000000128bfa7a5bf66a0000000000000000000000000000000000000000000000000000000000000000000000000000000000000000000000000000000000000000000000000000000600000000000000000000000000000000000000000000000000000000000000000",
                    "logDecoded": true,
                    "operation": "EVENT",
                    "revert": false,
                    "status": true,
                    "topics": [
                        "0x33be7eabd8ed368ca1aa14ce2ad1e90a0c9bf21edbb3820d5591546e4eb84157",
                        "0x000000000000000000000000c02aaa39b223fe8d0a0e5c4f27ead9083c756cc2",
                        "0x0000000000000000000000005f46a1e84dd69e245d7e0bb0b8f785b51c72499c"
                    ]
                },
                "nodeType": 1
            },
            "17": {
                "event": {
                    "contract": "0x3c11f6265ddec22f4d049dde480615735f451646",
                    "decodedLog": {
                        "name": "Executed",
                        "params": [],
                        "signature": "Executed()"
                    },
                    "id": 17,
                    "logData": "0x",
                    "logDecoded": true,
                    "operation": "EVENT",
                    "revert": false,
                    "status": true,
                    "topics": [
                        "0x68f46c45a243a0e9065a97649faf9a5afe1692f2679e650c2f853b9cd734cc0e"
                    ]
                },
                "nodeType": 1
            },
            "2": {
                "invocation": {
                    "address": "0x3e88c9b0e3be6817973a6e629211e702d12c577f",
                    "callData": "0x",
                    "decodedMethod": null,
                    "errorInfo": "",
                    "fromAddress": "0xa7ca2c8673bcfa5a26d8ceec2887f2cc2b0db22a",
                    "gasUsed": 55,
                    "id": 2,
                    "methodDecoded": false,
                    "operation": "DELEGATECALL",
                    "output": "",
                    "revert": false,
                    "revertMessage": "",
                    "selector": "fallback",
                    "status": true,
                    "value": "0.083527319867582112"
                },
                "nodeType": 0
            },
            "3": {
                "invocation": {
                    "address": "0xa7ca2c8673bcfa5a26d8ceec2887f2cc2b0db22a",
                    "callData": "0x0000000000000000000000000000000000000000000000000128bfa7a5bf66a000000000000000000000000000000000000000000000000000000000000000400000000000000000000000000000000000000000000000000000000000000000",
                    "decodedMethod": {
                        "callParams": [
                            {
                                "name": "amount",
                                "type": "uint256",
                                "value": "83,527,319,867,582,112"
                            },
                            {
                                "name": "data",
                                "type": "bytes",
                                "value": "0x"
                            }
                        ],
                        "constructorArguments": "",
                        "name": "wrap",
                        "returnParams": [
                            {
                                "name": "wrapped",
                                "type": "uint256",
                                "value": "83,527,319,867,582,112"
                            }
                        ],
                        "signature": "wrap(uint256,bytes)"
                    },
                    "errorInfo": "",
                    "fromAddress": "0x3c11f6265ddec22f4d049dde480615735f451646",
                    "gasUsed": 43354,
                    "id": 3,
                    "methodDecoded": true,
                    "operation": "CALL",
                    "output": "0x0000000000000000000000000000000000000000000000000128bfa7a5bf66a0",
                    "revert": false,
                    "revertMessage": "",
                    "selector": "0x109b3c83",
                    "status": true,
                    "value": "0"
                },
                "nodeType": 0
            },
            "4": {
                "invocation": {
                    "address": "0x3e88c9b0e3be6817973a6e629211e702d12c577f",
                    "callData": "0x0000000000000000000000000000000000000000000000000128bfa7a5bf66a000000000000000000000000000000000000000000000000000000000000000400000000000000000000000000000000000000000000000000000000000000000",
                    "decodedMethod": {
                        "callParams": [
                            {
                                "name": "amount",
                                "type": "uint256",
                                "value": "83,527,319,867,582,112"
                            },
                            {
                                "name": "data",
                                "type": "bytes",
                                "value": "0x"
                            }
                        ],
                        "constructorArguments": "",
                        "name": "wrap",
                        "returnParams": [
                            {
                                "name": "wrapped",
                                "type": "uint256",
                                "value": "83,527,319,867,582,112"
                            }
                        ],
                        "signature": "wrap(uint256,bytes)"
                    },
                    "errorInfo": "",
                    "fromAddress": "0xa7ca2c8673bcfa5a26d8ceec2887f2cc2b0db22a",
                    "gasUsed": 43170,
                    "id": 4,
                    "methodDecoded": true,
                    "operation": "DELEGATECALL",
                    "output": "0x0000000000000000000000000000000000000000000000000128bfa7a5bf66a0",
                    "revert": false,
                    "revertMessage": "",
                    "selector": "0x109b3c83",
                    "status": true,
                    "value": "0"
                },
                "nodeType": 0
            },
            "5": {
                "invocation": {
                    "address": "0xc02aaa39b223fe8d0a0e5c4f27ead9083c756cc2",
                    "callData": "0x000000000000000000000000a7ca2c8673bcfa5a26d8ceec2887f2cc2b0db22a",
                    "decodedMethod": {
                        "callParams": [
                            {
                                "name": "",
                                "type": "address",
                                "value": "0xa7ca2c8673bcfa5a26d8ceec2887f2cc2b0db22a"
                            }
                        ],
                        "constructorArguments": "",
                        "name": "balanceOf",
                        "returnParams": [
                            {
                                "decimalAvailable": true,
                                "name": "",
                                "type": "uint256",
                                "value": "0"
                            }
                        ],
                        "signature": "balanceOf(address)"
                    },
                    "errorInfo": "",
                    "fromAddress": "0xa7ca2c8673bcfa5a26d8ceec2887f2cc2b0db22a",
                    "gasUsed": 2534,
                    "id": 5,
                    "methodDecoded": true,
                    "operation": "STATICCALL",
                    "output": "0x0000000000000000000000000000000000000000000000000000000000000000",
                    "revert": false,
                    "revertMessage": "",
                    "selector": "0x70a08231",
                    "status": true,
                    "value": "0"
                },
                "nodeType": 0
            },
            "6": {
                "invocation": {
                    "address": "0xc02aaa39b223fe8d0a0e5c4f27ead9083c756cc2",
                    "callData": "0x",
                    "decodedMethod": {
                        "callParams": [],
                        "constructorArguments": "",
                        "name": "deposit",
                        "returnParams": [],
                        "signature": "deposit()"
                    },
                    "errorInfo": "",
                    "fromAddress": "0xa7ca2c8673bcfa5a26d8ceec2887f2cc2b0db22a",
                    "gasUsed": 21974,
                    "id": 6,
                    "methodDecoded": true,
                    "operation": "CALL",
                    "output": "",
                    "revert": false,
                    "revertMessage": "",
                    "selector": "0xd0e30db0",
                    "status": true,
                    "value": "0.083527319867582112"
                },
                "nodeType": 0
            },
            "7": {
                "event": {
                    "contract": "0xc02aaa39b223fe8d0a0e5c4f27ead9083c756cc2",
                    "decodedLog": {
                        "name": "Deposit",
                        "params": [
                            {
                                "name": "dst",
                                "type": "address",
                                "value": "0xa7ca2c8673bcfa5a26d8ceec2887f2cc2b0db22a"
                            },
                            {
                                "name": "wad",
                                "type": "uint256",
                                "value": "83,527,319,867,582,112"
                            }
                        ],
                        "signature": "Deposit(address,uint256)"
                    },
                    "id": 7,
                    "logData": "0x0000000000000000000000000000000000000000000000000128bfa7a5bf66a0",
                    "logDecoded": true,
                    "operation": "EVENT",
                    "revert": false,
                    "status": true,
                    "topics": [
                        "0xe1fffcc4923d04b559f4d29a8bfc6cda04eb5b0d3c460751c2402c5c5cc9109c",
                        "0x000000000000000000000000a7ca2c8673bcfa5a26d8ceec2887f2cc2b0db22a"
                    ]
                },
                "nodeType": 1
            },
            "8": {
                "invocation": {
                    "address": "0xc02aaa39b223fe8d0a0e5c4f27ead9083c756cc2",
                    "callData": "0x000000000000000000000000a7ca2c8673bcfa5a26d8ceec2887f2cc2b0db22a",
                    "decodedMethod": {
                        "callParams": [
                            {
                                "name": "",
                                "type": "address",
                                "value": "0xa7ca2c8673bcfa5a26d8ceec2887f2cc2b0db22a"
                            }
                        ],
                        "constructorArguments": "",
                        "name": "balanceOf",
                        "returnParams": [
                            {
                                "decimalAvailable": true,
                                "name": "",
                                "type": "uint256",
                                "value": "83,527,319,867,582,112"
                            }
                        ],
                        "signature": "balanceOf(address)"
                    },
                    "errorInfo": "",
                    "fromAddress": "0xa7ca2c8673bcfa5a26d8ceec2887f2cc2b0db22a",
                    "gasUsed": 534,
                    "id": 8,
                    "methodDecoded": true,
                    "operation": "STATICCALL",
                    "output": "0x0000000000000000000000000000000000000000000000000128bfa7a5bf66a0",
                    "revert": false,
                    "revertMessage": "",
                    "selector": "0x70a08231",
                    "status": true,
                    "value": "0"
                },
                "nodeType": 0
            },
            "9": {
                "event": {
                    "contract": "0xa7ca2c8673bcfa5a26d8ceec2887f2cc2b0db22a",
                    "decodedLog": {
                        "name": "Wrap",
                        "params": [
                            {
                                "name": "amount",
                                "type": "uint256",
                                "value": "83,527,319,867,582,112"
                            },
                            {
                                "name": "wrapped",
                                "type": "uint256",
                                "value": "83,527,319,867,582,112"
                            },
                            {
                                "name": "data",
                                "type": "bytes",
                                "value": "0x"
                            }
                        ],
                        "signature": "Wrap(uint256,uint256,bytes)"
                    },
                    "id": 9,
                    "logData": "0x0000000000000000000000000000000000000000000000000128bfa7a5bf66a00000000000000000000000000000000000000000000000000128bfa7a5bf66a000000000000000000000000000000000000000000000000000000000000000600000000000000000000000000000000000000000000000000000000000000000",
                    "logDecoded": true,
                    "operation": "EVENT",
                    "revert": false,
                    "status": true,
                    "topics": [
                        "0x26b89b7c87cfae6e0c27cb572c5b1eaa577f2223fe8dca0d76a62034579b7a1e"
                    ]
                },
                "nodeType": 1
            }
        },
        "gasFlame": [
            {
                "children": [
                    {
                        "children": [
                            {
                                "children": [],
                                "depth": 0,
                                "name": "Initial Gas",
                                "value": 22656
                            },
                            {
                                "children": [
                                    {
                                        "children": [
                                            {
                                                "children": [],
                                                "depth": 2,
                                                "name": "fallback",
                                                "value": 55
                                            }
                                        ],
                                        "depth": 1,
                                        "name": "fallback",
                                        "value": 2712
                                    },
                                    {
                                        "children": [
                                            {
                                                "children": [
                                                    {
                                                        "children": [],
                                                        "depth": 3,
                                                        "name": "balanceOf",
                                                        "value": 2534
                                                    },
                                                    {
                                                        "children": [],
                                                        "depth": 3,
                                                        "name": "deposit",
                                                        "value": 21974
                                                    },
                                                    {
                                                        "children": [],
                                                        "depth": 3,
                                                        "name": "balanceOf",
                                                        "value": 534
                                                    }
                                                ],
                                                "depth": 2,
                                                "name": "wrap",
                                                "value": 43170
                                            }
                                        ],
                                        "depth": 1,
                                        "name": "wrap",
                                        "value": 43354
                                    },
                                    {
                                        "children": [
                                            {
                                                "children": [],
                                                "depth": 2,
                                                "name": "wrappedNativeToken",
                                                "value": 285
                                            }
                                        ],
                                        "depth": 1,
                                        "name": "wrappedNativeToken",
                                        "value": 451
                                    },
                                    {
                                        "children": [
                                            {
                                                "children": [
                                                    {
                                                        "children": [],
                                                        "depth": 3,
                                                        "name": "transfer",
                                                        "value": 8062
                                                    }
                                                ],
                                                "depth": 2,
                                                "name": "withdraw",
                                                "value": 25195
                                            }
                                        ],
                                        "depth": 1,
                                        "name": "withdraw",
                                        "value": 25391
                                    }
                                ],
                                "depth": 0,
                                "name": "Executed Gas",
                                "value": 95248
                            }
                        ],
                        "depth": -1,
                        "name": "Actual Gas Used",
                        "value": 95204
                    },
                    {
                        "children": [],
                        "depth": -1,
                        "name": "Refunded Gas",
                        "value": 22700
                    }
                ],
                "depth": -2,
                "name": "Total Gas",
                "value": 117904
            }
        ],
        "isConfirmed": true,
        "mainTrace": [
            {
                "children": [
                    {
                        "children": [
                            {
                                "children": [
                                    {
                                        "children": [],
                                        "depth": 2,
                                        "id": 2,
                                        "order": 2
                                    }
                                ],
                                "depth": 1,
                                "id": 1,
                                "order": 1
                            },
                            {
                                "children": [
                                    {
                                        "children": [
                                            {
                                                "children": [],
                                                "depth": 3,
                                                "id": 5,
                                                "order": 5
                                            },
                                            {
                                                "children": [
                                                    {
                                                        "children": [],
                                                        "depth": 4,
                                                        "id": 7,
                                                        "order": 7
                                                    }
                                                ],
                                                "depth": 3,
                                                "id": 6,
                                                "order": 6
                                            },
                                            {
                                                "children": [],
                                                "depth": 3,
                                                "id": 8,
                                                "order": 8
                                            },
                                            {
                                                "children": [],
                                                "depth": 3,
                                                "id": 9,
                                                "order": 9
                                            }
                                        ],
                                        "depth": 2,
                                        "id": 4,
                                        "order": 4
                                    }
                                ],
                                "depth": 1,
                                "id": 3,
                                "order": 3
                            },
                            {
                                "children": [
                                    {
                                        "children": [],
                                        "depth": 2,
                                        "id": 11,
                                        "order": 11
                                    }
                                ],
                                "depth": 1,
                                "id": 10,
                                "order": 10
                            },
                            {
                                "children": [
                                    {
                                        "children": [
                                            {
                                                "children": [
                                                    {
                                                        "children": [],
                                                        "depth": 4,
                                                        "id": 15,
                                                        "order": 15
                                                    }
                                                ],
                                                "depth": 3,
                                                "id": 14,
                                                "order": 14
                                            },
                                            {
                                                "children": [],
                                                "depth": 3,
                                                "id": 16,
                                                "order": 16
                                            }
                                        ],
                                        "depth": 2,
                                        "id": 13,
                                        "order": 13
                                    }
                                ],
                                "depth": 1,
                                "id": 12,
                                "order": 12
                            },
                            {
                                "children": [],
                                "depth": 1,
                                "id": 17,
                                "order": 17
                            }
                        ],
                        "depth": 0,
                        "id": 0,
                        "order": 0
                    }
                ],
                "depth": -1,
                "id": -1,
                "order": -1
            }
        ],
        "mainTraceNodeCount": 18,
        "parentIdMap": {
            "0": -1,
            "1": 0,
            "10": 0,
            "11": 10,
            "12": 0,
            "13": 12,
            "14": 13,
            "15": 14,
            "16": 13,
            "17": 0,
            "2": 1,
            "3": 0,
            "4": 3,
            "5": 4,
            "6": 4,
            "7": 6,
            "8": 4,
            "9": 4
        },
        "tidyTrace": [
            {
                "children": [
                    {
                        "children": [
                            {
                                "children": [
                                    {
                                        "children": [],
                                        "depth": 2,
                                        "id": 2,
                                        "order": 2
                                    }
                                ],
                                "depth": 1,
                                "id": 1,
                                "order": 1
                            },
                            {
                                "children": [
                                    {
                                        "children": [
                                            {
                                                "children": [
                                                    {
                                                        "children": [],
                                                        "depth": 4,
                                                        "id": 7,
                                                        "order": 7
                                                    }
                                                ],
                                                "depth": 3,
                                                "id": 6,
                                                "order": 6
                                            },
                                            {
                                                "children": [],
                                                "depth": 3,
                                                "id": 9,
                                                "order": 9
                                            }
                                        ],
                                        "depth": 2,
                                        "id": 4,
                                        "order": 4
                                    }
                                ],
                                "depth": 1,
                                "id": 3,
                                "order": 3
                            },
                            {
                                "children": [
                                    {
                                        "children": [
                                            {
                                                "children": [
                                                    {
                                                        "children": [],
                                                        "depth": 4,
                                                        "id": 15,
                                                        "order": 15
                                                    }
                                                ],
                                                "depth": 3,
                                                "id": 14,
                                                "order": 14
                                            },
                                            {
                                                "children": [],
                                                "depth": 3,
                                                "id": 16,
                                                "order": 16
                                            }
                                        ],
                                        "depth": 2,
                                        "id": 13,
                                        "order": 13
                                    }
                                ],
                                "depth": 1,
                                "id": 12,
                                "order": 12
                            },
                            {
                                "children": [],
                                "depth": 1,
                                "id": 17,
                                "order": 17
                            }
                        ],
                        "depth": 0,
                        "id": 0,
                        "order": 0
                    }
                ],
                "depth": -1,
                "id": -1,
                "order": -1
            }
        ],
        "tidyTraceNodeCount": 14
    },
    "state_change": {
        "stateChanges": [
            {
                "address": "0xc02aaa39b223fe8d0a0e5c4f27ead9083c756cc2",
                "erc": "ERC-20",
                "slots": [
                    {
                        "current": "0x00000000000000000000000000000000000000000000000004da658e5fc31ff9",
                        "key": "0x194c2a5a20e0f51c3e10ad5f9a7e13095159c1c32adb02f8e49232392938e926",
                        "prev": "0x00000000000000000000000000000000000000000000000003b1a5e6ba03b959"
                    }
                ],
                "storageVariables": [
                    {
                        "name": "balanceOf",
                        "type": "mapping(address => uint256)",
                        "value": {
                            "pairs": [
                                {
                                    "key": "0x5f46a1e84dd69e245d7e0bb0b8f785b51c72499c",
                                    "value": {
                                        "current": "349703583241019385",
                                        "prev": "266176263373437273",
                                        "typeTag": 1
                                    }
                                }
                            ],
                            "typeTag": 4
                        }
                    }
                ]
            }
        ]
    }
}