{
    "balance_change": {
        "balanceChanges": []
    },
    "profile": {
        "basic_info": {
            "baseFee": "43.32710535",
            "blockNumber": 13069986,
            "callData": "0x627dd56a00000000000000000000000000000000000000000000000000000000000000200000000000000000000000000000000000000000000000000000000000000195000001000000000000087727c4a0fd00000300007e014e9e73c0170f09e709573127c4ab02e57b86817801000000000000000000000000000000000000000000000002b12688021010a00000000000000000000000000000000000000000000002a6e570af66e520000000c02aaa39b223fe8d0a0e5c4f27ead9083c756cc2b8a52f6403fb94dc8325511d8bdfc7c77c0fc3b800007e01b8a52f6403fb94dc8325511d8bdfc7c77c0fc3b800000000000000000000000000000000000000000000046f8c50ae2390400000000000000000000000000000000000000000000000000037ddc33f5056ae000000000000000000000000000000000000000000000025647e01bd0967c1b9599fa3521939871d1d088800007e0125647e01bd0967c1b9599fa3521939871d1d088801000000000000000000000000000000000000000000097ff0e6fcf9d6800000000000000000000000000000000000000000000000000000c6dff3d17d89000000000000000000000000000000000000000000000000000000000000000000000000000000000000000000000000000000000000",
            "debugEnable": true,
            "errorInfo": "",
            "eventCount": 0,
            "feeRecipient": "0x5a0b54d5dc17e0aadc383d2db43b0a0d3e029c4c",
            "formatValue": "0",
            "gasLimit": 387986,
            "gasPrice": "47",
            "gasUsed": 32208,
            "intTxnCount": 1,
            "internalRevert": false,
            "internalRevertMessage": "",
            "isContractCreation": false,
            "isFlashloan": false,
            "maxFee": "47",
            "nonce": 22136,
            "overwritedBlockNumber": -1,
            "priorityFee": "47",
            "receiver": "0x0000000089341e263b85d84a0eea39f47c37a9d2",
            "revertMessage": "",
            "sender": "0x674a326170d7da3a257ed38f0c2c8a3993b5e660",
            "simulationEnable": true,
            "sourceTxnHash": "0xee0ee911158b3d09ec18c55031aa428eb339b0829cb9ec87221f4e1b66196b27",
            "status": true,
            "timestamp": "2021-08-21T17:29:16Z",
            "transactionFee": "0.001513776",
            "txnHash": "0xee0ee911158b3d09ec18c55031aa428eb339b0829cb9ec87221f4e1b66196b27",
            "txnIndex": 130,
            "type": 2,
            "value": "0"
        },
        "fund_flow": [],
        "token_infos": [
            {
                "address": "0xeeeeeeeeeeeeeeeeeeeeeeeeeeeeeeeeeeeeeeee",
                "decimals": 18
            },
            {
                "address": "0xc02aaa39b223fe8d0a0e5c4f27ead9083c756cc2",
                "decimals": 18
            }
        ]
    },
    "address_label": {
        "labels": [
            {
                "address": "0xeeeeeeeeeeeeeeeeeeeeeeeeeeeeeeeeeeeeeeee",
                "label": "Ether"
            },
            {
                "address": "0x4e9e73c0170f09e709573127c4ab02e57b868178",
                "label": "Uniswap V2: TOWER"
            },
            {
                "address": "0x0000000089341e263b85d84a0eea39f47c37a9d2",
                "label": "MEV Bot: 0x000...9d2"
            },
            {
                "address": "0x0000000000000000000000000000000000000001",
                "label": "Precompiled"
            },
            {
                "address": "0x0000000000000000000000000000000000000002",
                "label": "Precompiled"
            },
            {
                "address": "0x0000000000000000000000000000000000000003",
                "label": "Precompiled"
            },
            {
                "address": "0x0000000000000000000000000000000000000004",
                "label": "Precompiled"
            }
        ]
    },
    "trace": {
        "accountLabels": null,
        "dataMap": {
            "-1": {
                "invocation": {
                    "address": "0x674a326170d7da3a257ed38f0c2c8a3993b5e660",
                    "callData": "",
                    "decodedMethod": null,
                    "errorInfo": "",
                    "fromAddress": "",
                    "gasUsed": 0,
                    "id": -1,
                    "methodDecoded": false,
                    "operation": "",
                    "output": "",
                    "revert": false,
                    "revertMessage": "",
                    "selector": "",
                    "status": false,
                    "value": ""
                },
                "nodeType": 0
            },
            "0": {
                "invocation": {
                    "address": "0x0000000089341e263b85d84a0eea39f47c37a9d2",
                    "callData": "0x00000000000000000000000000000000000000000000000000000000000000200000000000000000000000000000000000000000000000000000000000000195000001000000000000087727c4a0fd00000300007e014e9e73c0170f09e709573127c4ab02e57b86817801000000000000000000000000000000000000000000000002b12688021010a00000000000000000000000000000000000000000000002a6e570af66e520000000c02aaa39b223fe8d0a0e5c4f27ead9083c756cc2b8a52f6403fb94dc8325511d8bdfc7c77c0fc3b800007e01b8a52f6403fb94dc8325511d8bdfc7c77c0fc3b800000000000000000000000000000000000000000000046f8c50ae2390400000000000000000000000000000000000000000000000000037ddc33f5056ae000000000000000000000000000000000000000000000025647e01bd0967c1b9599fa3521939871d1d088800007e0125647e01bd0967c1b9599fa3521939871d1d088801000000000000000000000000000000000000000000097ff0e6fcf9d6800000000000000000000000000000000000000000000000000000c6dff3d17d89000000000000000000000000000000000000000000000000000000000000000000000000000000000000000000000000000000000000",
                    "decodedMethod": {
                        "callParams": [
                            {
                                "name": "_data",
                                "type": "bytes",
                                "value": "0x000001000000000000087727c4a0fd00000300007e014e9e73c0170f09e709573127c4ab02e57b86817801000000000000000000000000000000000000000000000002b12688021010a00000000000000000000000000000000000000000000002a6e570af66e520000000c02aaa39b223fe8d0a0e5c4f27ead9083c756cc2b8a52f6403fb94dc8325511d8bdfc7c77c0fc3b800007e01b8a52f6403fb94dc8325511d8bdfc7c77c0fc3b800000000000000000000000000000000000000000000046f8c50ae2390400000000000000000000000000000000000000000000000000037ddc33f5056ae000000000000000000000000000000000000000000000025647e01bd0967c1b9599fa3521939871d1d088800007e0125647e01bd0967c1b9599fa3521939871d1d088801000000000000000000000000000000000000000000097ff0e6fcf9d6800000000000000000000000000000000000000000000000000000c6dff3d17d8900000000000000000000000000000000000000000000000000000000000000000000000000000000000000"
                            }
                        ],
                        "constructorArguments": "",
                        "name": "swap",
                        "returnParams": [],
                        "signature": "swap(bytes)"
                    },
                    "errorInfo": "",
                    "fromAddress": "0x674a326170d7da3a257ed38f0c2c8a3993b5e660",
                    "gasUsed": 32208,
                    "id": 0,
                    "methodDecoded": true,
                    "operation": "CALL",
                    "output": "",
                    "revert": false,
                    "revertMessage": "",
                    "selector": "0x627dd56a",
                    "status": true,
                    "value": "0"
                },
                "nodeType": 0
            },
            "1": {
                "invocation": {
                    "address": "0x4e9e73c0170f09e709573127c4ab02e57b868178",
                    "callData": "0x",
                    "decodedMethod": {
                        "callParams": [],
                        "constructorArguments": "",
                        "name": "getReserves",
                        "returnParams": [
                            {
                                "name": "_reserve0",
                                "type": "uint112",
                                "value": "3,190,403,203,589,513,044,542,794"
                            },
                            {
                                "name": "_reserve1",
                                "type": "uint112",
                                "value": "49,910,302,178,235,968,401"
                            },
                            {
                                "name": "_blockTimestampLast",
                                "type": "uint32",
                                "value": "1,629,566,956"
                            }
                        ],
                        "signature": "getReserves()"
                    },
                    "errorInfo": "",
                    "fromAddress": "0x0000000089341e263b85d84a0eea39f47c37a9d2",
                    "gasUsed": 2504,
                    "id": 1,
                    "methodDecoded": true,
                    "operation": "STATICCALL",
                    "output": "0x00000000000000000000000000000000000000000002a3981aae4809fd2fc54a000000000000000000000000000000000000000000000002b4a503651e28eb9100000000000000000000000000000000000000000000000000000000612137ec",
                    "revert": false,
                    "revertMessage": "",
                    "selector": "0x0902f1ac",
                    "status": true,
                    "value": "0"
                },
                "nodeType": 0
            }
        },
        "gasFlame": [
            {
                "children": [
                    {
                        "children": [
                            {
                                "children": [],
                                "depth": 0,
                                "name": "Initial Gas",
                                "value": 25192
                            },
                            {
                                "children": [
                                    {
                                        "children": [],
                                        "depth": 1,
                                        "name": "getReserves",
                                        "value": 2504
                                    }
                                ],
                                "depth": 0,
                                "name": "Executed Gas",
                                "value": 7016
                            }
                        ],
                        "depth": -1,
                        "name": "Actual Gas Used",
                        "value": 32208
                    },
                    {
                        "children": [],
                        "depth": -1,
                        "name": "Refunded Gas",
                        "value": 0
                    }
                ],
                "depth": -2,
                "name": "Total Gas",
                "value": 32208
            }
        ],
        "isConfirmed": true,
        "mainTrace": [
            {
                "children": [
                    {
                        "children": [
                            {
                                "children": [],
                                "depth": 1,
                                "id": 1,
                                "order": 1
                            }
                        ],
                        "depth": 0,
                        "id": 0,
                        "order": 0
                    }
                ],
                "depth": -1,
                "id": -1,
                "order": -1
            }
        ],
        "mainTraceNodeCount": 2,
        "parentIdMap": {
            "0": -1,
            "1": 0
        },
        "tidyTrace": [
            {
                "children": [
                    {
                        "children": [],
                        "depth": 0,
                        "id": 0,
                        "order": 0
                    }
                ],
                "depth": -1,
                "id": -1,
                "order": -1
            }
        ],
        "tidyTraceNodeCount": 1
    },
    "state_change": {
        "stateChanges": []
    }
}