{
    "balance_change": {
        "balanceChanges": [
            {
                "account": "0x3ab28ecedea6cdb6feed398e93ae8c7b316b1182",
                "assets": [
                    {
                        "address": "0xbc7250c8c3eca1dfc1728620af835fca489bfdf3",
                        "amount": "313,904,756.88",
                        "iconUrl": "",
                        "isERC1155": false,
                        "isERC721": false,
                        "sign": false,
                        "value": "62.39702446"
                    }
                ]
            },
            {
                "account": "0x56990bc031b1ef5d9ca8d13eb83f10310a0837c7",
                "assets": [
                    {
                        "address": "0xbc7250c8c3eca1dfc1728620af835fca489bfdf3",
                        "amount": "313,904,756.88",
                        "iconUrl": "",
                        "isERC1155": false,
                        "isERC721": false,
                        "sign": true,
                        "value": "62.39702446"
                    }
                ]
            }
        ]
    },
    "profile": {
        "basic_info": {
            "baseFee": "66.86708308",
            "blockNumber": 18827482,
            "callData": "0xa9059cbb00000000000000000000000056990bc031b1ef5d9ca8d13eb83f10310a0837c700000000000000000000000000000000000000000000000004667a7f8bbc3000",
            "debugEnable": true,
            "errorInfo": "",
            "eventCount": 1,
            "feeRecipient": "0x388c818ca8b9251b393131c08a736a67ccb19297",
            "formatValue": "0",
            "gasLimit": 119274,
            "gasPrice": "68.86708308",
            "gasUsed": 98934,
            "intTxnCount": 0,
            "internalRevert": false,
            "internalRevertMessage": "",
            "isContractCreation": false,
            "isFlashloan": false,
            "maxFee": "192.343080143",
            "nonce": 459569,
            "overwritedBlockNumber": -1,
            "priorityFee": "2",
            "receiver": "0xbc7250c8c3eca1dfc1728620af835fca489bfdf3",
            "revertMessage": "",
            "sender": "0x3ab28ecedea6cdb6feed398e93ae8c7b316b1182",
            "simulationEnable": true,
            "sourceTxnHash": "0xeebc6a9574a0a8335cee17d385fba83f9107aa0e0a42e2f4abbecd030bce1dd4",
            "status": true,
            "timestamp": "2023-12-20T13:41:23Z",
            "transactionFee": "0.00681329599743672",
            "txnHash": "0xeebc6a9574a0a8335cee17d385fba83f9107aa0e0a42e2f4abbecd030bce1dd4",
            "txnIndex": 15,
            "type": 2,
            "value": "0"
        },
        "fund_flow": [
            {
                "amount": "313,904,756.88",
                "from": "0x3ab28ecedea6cdb6feed398e93ae8c7b316b1182",
                "id": 1,
                "isERC1155": false,
                "isERC721": false,
                "isReverted": false,
                "order": 1,
                "to": "0x56990bc031b1ef5d9ca8d13eb83f10310a0837c7",
                "token": "0xbc7250c8c3eca1dfc1728620af835fca489bfdf3"
            }
        ],
        "token_infos": [
            {
                "address": "0xbc7250c8c3eca1dfc1728620af835fca489bfdf3",
                "decimals": 9
            },
            {
                "address": "0xc02aaa39b223fe8d0a0e5c4f27ead9083c756cc2",
                "decimals": 18
            },
            {
                "address": "0xeeeeeeeeeeeeeeeeeeeeeeeeeeeeeeeeeeeeeeee",
                "decimals": 18
            }
        ]
    },
    "address_label": {
        "labels": [
            {
                "address": "0x0000000000000000000000000000000000000004",
                "label": "Precompiled"
            },
            {
                "address": "0xeeeeeeeeeeeeeeeeeeeeeeeeeeeeeeeeeeeeeeee",
                "label": "Ether"
            },
            {
                "address": "0x3ab28ecedea6cdb6feed398e93ae8c7b316b1182",
                "label": "BITMART"
            },
            {
                "address": "0x56990bc031b1ef5d9ca8d13eb83f10310a0837c7",
                "label": "BYBIT"
            },
            {
                "address": "0x0000000000000000000000000000000000000002",
                "label": "Precompiled"
            },
            {
                "address": "0x0000000000000000000000000000000000000003",
                "label": "Precompiled"
            },
            {
                "address": "0xbc7250c8c3eca1dfc1728620af835fca489bfdf3",
                "label": "gm: Old GM Token"
            },
            {
                "address": "0x388c818ca8b9251b393131c08a736a67ccb19297",
                "label": "LidoExecutionLayerRewardsVault"
            },
            {
                "address": "0x0000000000000000000000000000000000000001",
                "label": "Precompiled"
            }
        ]
    },
    "trace": {
        "accountLabels": null,
        "dataMap": {
            "-1": {
                "invocation": {
                    "address": "0x3ab28ecedea6cdb6feed398e93ae8c7b316b1182",
                    "callData": "",
                    "decodedMethod": null,
                    "errorInfo": "",
                    "fromAddress": "",
                    "gasUsed": 0,
                    "id": -1,
                    "methodDecoded": false,
                    "operation": "",
                    "output": "",
                    "revert": false,
                    "revertMessage": "",
                    "selector": "",
                    "status": false,
                    "value": ""
                },
                "nodeType": 0
            },
            "0": {
                "invocation": {
                    "address": "0xbc7250c8c3eca1dfc1728620af835fca489bfdf3",
                    "callData": "0x00000000000000000000000056990bc031b1ef5d9ca8d13eb83f10310a0837c700000000000000000000000000000000000000000000000004667a7f8bbc3000",
                    "decodedMethod": {
                        "callParams": [
                            {
                                "name": "recipient",
                                "type": "address",
                                "value": "0x56990bc031b1ef5d9ca8d13eb83f10310a0837c7"
                            },
                            {
                                "decimalAvailable": true,
                                "name": "amount",
                                "type": "uint256",
                                "value": "317,075,512,000,000,000"
                            }
                        ],
                        "constructorArguments": "",
                        "name": "transfer",
                        "returnParams": [
                            {
                                "name": "",
                                "type": "bool",
                                "value": true
                            }
                        ],
                        "signature": "transfer(address,uint256)"
                    },
                    "errorInfo": "",
                    "fromAddress": "0x3ab28ecedea6cdb6feed398e93ae8c7b316b1182",
                    "gasUsed": 98934,
                    "id": 0,
                    "methodDecoded": true,
                    "operation": "CALL",
                    "output": "0x0000000000000000000000000000000000000000000000000000000000000001",
                    "revert": false,
                    "revertMessage": "",
                    "selector": "0xa9059cbb",
                    "status": true,
                    "value": "0"
                },
                "nodeType": 0
            },
            "1": {
                "event": {
                    "contract": "0xbc7250c8c3eca1dfc1728620af835fca489bfdf3",
                    "decodedLog": {
                        "name": "Transfer",
                        "params": [
                            {
                                "name": "from",
                                "type": "address",
                                "value": "0x3ab28ecedea6cdb6feed398e93ae8c7b316b1182"
                            },
                            {
                                "name": "to",
                                "type": "address",
                                "value": "0x56990bc031b1ef5d9ca8d13eb83f10310a0837c7"
                            },
                            {
                                "decimalAvailable": true,
                                "name": "value",
                                "type": "uint256",
                                "value": "313,904,756,880,000,000"
                            }
                        ],
                        "signature": "Transfer(address,address,uint256)"
                    },
                    "id": 1,
                    "logData": "0x000000000000000000000000000000000000000000000000045b36b697234400",
                    "logDecoded": true,
                    "operation": "EVENT",
                    "revert": false,
                    "status": true,
                    "topics": [
                        "0xddf252ad1be2c89b69c2b068fc378daa952ba7f163c4a11628f55a4df523b3ef",
                        "0x0000000000000000000000003ab28ecedea6cdb6feed398e93ae8c7b316b1182",
                        "0x00000000000000000000000056990bc031b1ef5d9ca8d13eb83f10310a0837c7"
                    ]
                },
                "nodeType": 1
            }
        },
        "gasFlame": [
            {
                "children": [
                    {
                        "children": [
                            {
                                "children": [],
                                "depth": 0,
                                "name": "Initial Gas",
                                "value": 21644
                            },
                            {
                                "children": [],
                                "depth": 0,
                                "name": "Executed Gas",
                                "value": 77290
                            }
                        ],
                        "depth": -1,
                        "name": "Actual Gas Used",
                        "value": 98934
                    },
                    {
                        "children": [],
                        "depth": -1,
                        "name": "Refunded Gas",
                        "value": 0
                    }
                ],
                "depth": -2,
                "name": "Total Gas",
                "value": 98934
            }
        ],
        "isConfirmed": true,
        "mainTrace": [
            {
                "children": [
                    {
                        "children": [
                            {
                                "children": [],
                                "depth": 1,
                                "id": 1,
                                "order": 1
                            }
                        ],
                        "depth": 0,
                        "id": 0,
                        "order": 0
                    }
                ],
                "depth": -1,
                "id": -1,
                "order": -1
            }
        ],
        "mainTraceNodeCount": 2,
        "parentIdMap": {
            "0": -1,
            "1": 0
        },
        "tidyTrace": [
            {
                "children": [
                    {
                        "children": [
                            {
                                "children": [],
                                "depth": 1,
                                "id": 1,
                                "order": 1
                            }
                        ],
                        "depth": 0,
                        "id": 0,
                        "order": 0
                    }
                ],
                "depth": -1,
                "id": -1,
                "order": -1
            }
        ],
        "tidyTraceNodeCount": 2
    },
    "state_change": {
        "stateChanges": [
            {
                "address": "0xbc7250c8c3eca1dfc1728620af835fca489bfdf3",
                "erc": "ERC-20",
                "slots": [
                    {
                        "current": "0x05c370a817bf087442e311e2e4c621c1a33c940d559654c283e53074a3327f78",
                        "key": "0x82d0e489f8142476206ba728e21b76addb273e8f417969f4a694e743c24ccca0",
                        "prev": "0x05c33dbbf2c83a1f428408ce8203bc9d9b30634d4a23cc87668a81c54f5fe778"
                    },
                    {
                        "current": "0x000013c67d26dd899e17089d9bd1d89f7e56fc04d9b2eec3b36ae9fc253dba6a",
                        "key": "0x4e6d81fd2da6218d24f5d934640beffef3c9072a3dc6b8caaf5275adc54c6323",
                        "prev": "0x0013f804ed8f76bdc33694942fc15ab2a31a0709527025db2ad72678e3811a6a"
                    },
                    {
                        "current": "0x0013b1524b71cadf24c082e2312d1cef1cb6da446d4aaedc5a118dcd6a70c800",
                        "key": "0x71ac5eb4a884dc7110cdfc2c58d95c91e18d4209b33d80acfb9e24150b167ba6",
                        "prev": "0x0000000000000000000000000000000000000000000000000000000000000000"
                    }
                ],
                "storageVariables": [
                    {
                        "name": "_rOwned",
                        "type": "mapping(address => uint256)",
                        "value": {
                            "pairs": [
                                {
                                    "key": "0x3ab28ecedea6cdb6feed398e93ae8c7b316b1182",
                                    "value": {
                                        "current": "136484430053865549914297046400939744633248567762910614914752838778075754",
                                        "prev": "35281860182610753904276412885719170132098032464743608357507758390778075754",
                                        "typeTag": 1
                                    }
                                },
                                {
                                    "key": "0x56990bc031b1ef5d9ca8d13eb83f10310a0837c7",
                                    "value": {
                                        "current": "34793921995031319470818494680925048083590136058010890765167075496480000000",
                                        "prev": "0",
                                        "typeTag": 1
                                    }
                                },
                                {
                                    "key": "0xbc7250c8c3eca1dfc1728620af835fca489bfdf3",
                                    "value": {
                                        "current": "2606876947910766646864164533354079330206000482775879453645494115518867734392",
                                        "prev": "2606525494153241077980620912195686147902125834936909646668068185463347734392",
                                        "typeTag": 1
                                    }
                                }
                            ],
                            "typeTag": 4
                        }
                    }
                ]
            }
        ]
    }
}