{
    "balance_change": {
        "balanceChanges": [
            {
                "account": "0x5920321d6a7b0e7ff9bf419d036417c08050f92b",
                "assets": [
                    {
                        "address": "0xc77849b15ed98e185aae9cf73b8300770d20e6bb",
                        "amount": "500",
                        "iconUrl": "",
                        "isERC1155": false,
                        "isERC721": false,
                        "sign": false,
                        "value": "1554.368827"
                    }
                ]
            },
            {
                "account": "0x4c725ae48672691f5e1a1137bafb4a1508d56847",
                "assets": [
                    {
                        "address": "0xc77849b15ed98e185aae9cf73b8300770d20e6bb",
                        "amount": "500",
                        "iconUrl": "",
                        "isERC1155": false,
                        "isERC721": false,
                        "sign": true,
                        "value": "1554.368827"
                    }
                ]
            }
        ]
    },
    "profile": {
        "basic_info": {
            "baseFee": "10.144258713",
            "blockNumber": 18342359,
            "callData": "0xa9059cbb0000000000000000000000004c725ae48672691f5e1a1137bafb4a1508d5684700000000000000000000000000000000000000000000001b1ae4d6e2ef500000",
            "debugEnable": true,
            "errorInfo": "",
            "eventCount": 1,
            "feeRecipient": "0xdafea492d9c6733ae3d56b7ed1adb60692c98bc5",
            "formatValue": "0",
            "gasLimit": 34487,
            "gasPrice": "10.244258713",
            "gasUsed": 34487,
            "intTxnCount": 0,
            "internalRevert": false,
            "internalRevertMessage": "",
            "isContractCreation": false,
            "isFlashloan": false,
            "maxFee": "20.356914474",
            "nonce": 1685,
            "overwritedBlockNumber": -1,
            "priorityFee": "0.1",
            "receiver": "0xc77849b15ed98e185aae9cf73b8300770d20e6bb",
            "revertMessage": "",
            "sender": "0x5920321d6a7b0e7ff9bf419d036417c08050f92b",
            "simulationEnable": true,
            "sourceTxnHash": "0xee1a48199c6ffe5f1038bb710debcb51632e5d8f38d0dbe4204b54b39dc87e93",
            "status": true,
            "timestamp": "2023-10-13T15:27:11Z",
            "transactionFee": "0.000353293750235231",
            "txnHash": "0xee1a48199c6ffe5f1038bb710debcb51632e5d8f38d0dbe4204b54b39dc87e93",
            "txnIndex": 102,
            "type": 2,
            "value": "0"
        },
        "fund_flow": [
            {
                "amount": "500",
                "from": "0x5920321d6a7b0e7ff9bf419d036417c08050f92b",
                "id": 1,
                "isERC1155": false,
                "isERC721": false,
                "isReverted": false,
                "order": 1,
                "to": "0x4c725ae48672691f5e1a1137bafb4a1508d56847",
                "token": "0xc77849b15ed98e185aae9cf73b8300770d20e6bb"
            }
        ],
        "token_infos": [
            {
                "address": "0xeeeeeeeeeeeeeeeeeeeeeeeeeeeeeeeeeeeeeeee",
                "decimals": 18
            },
            {
                "address": "0xc02aaa39b223fe8d0a0e5c4f27ead9083c756cc2",
                "decimals": 18
            },
            {
                "address": "0xc77849b15ed98e185aae9cf73b8300770d20e6bb",
                "decimals": 18
            }
        ]
    },
    "address_label": {
        "labels": [
            {
                "address": "0x0000000000000000000000000000000000000001",
                "label": "Precompiled"
            },
            {
                "address": "0x0000000000000000000000000000000000000002",
                "label": "Precompiled"
            },
            {
                "address": "0x0000000000000000000000000000000000000003",
                "label": "Precompiled"
            },
            {
                "address": "0x0000000000000000000000000000000000000004",
                "label": "Precompiled"
            },
            {
                "address": "0xeeeeeeeeeeeeeeeeeeeeeeeeeeeeeeeeeeeeeeee",
                "label": "Ether"
            },
            {
                "address": "0xc77849b15ed98e185aae9cf73b8300770d20e6bb",
                "label": "TOKEN (TOK)"
            }
        ]
    },
    "trace": {
        "accountLabels": null,
        "dataMap": {
            "-1": {
                "invocation": {
                    "address": "0x5920321d6a7b0e7ff9bf419d036417c08050f92b",
                    "callData": "",
                    "decodedMethod": null,
                    "errorInfo": "",
                    "fromAddress": "",
                    "gasUsed": 0,
                    "id": -1,
                    "methodDecoded": false,
                    "operation": "",
                    "output": "",
                    "revert": false,
                    "revertMessage": "",
                    "selector": "",
                    "status": false,
                    "value": ""
                },
                "nodeType": 0
            },
            "0": {
                "invocation": {
                    "address": "0xc77849b15ed98e185aae9cf73b8300770d20e6bb",
                    "callData": "0x0000000000000000000000004c725ae48672691f5e1a1137bafb4a1508d5684700000000000000000000000000000000000000000000001b1ae4d6e2ef500000",
                    "decodedMethod": {
                        "callParams": [
                            {
                                "name": "recipient",
                                "type": "address",
                                "value": "0x4c725ae48672691f5e1a1137bafb4a1508d56847"
                            },
                            {
                                "decimalAvailable": true,
                                "name": "amount",
                                "type": "uint256",
                                "value": "500,000,000,000,000,000,000"
                            }
                        ],
                        "constructorArguments": "",
                        "name": "transfer",
                        "returnParams": [
                            {
                                "name": "",
                                "type": "bool",
                                "value": true
                            }
                        ],
                        "signature": "transfer(address,uint256)"
                    },
                    "errorInfo": "",
                    "fromAddress": "0x5920321d6a7b0e7ff9bf419d036417c08050f92b",
                    "gasUsed": 34487,
                    "id": 0,
                    "methodDecoded": true,
                    "operation": "CALL",
                    "output": "0x0000000000000000000000000000000000000000000000000000000000000001",
                    "revert": false,
                    "revertMessage": "",
                    "selector": "0xa9059cbb",
                    "status": true,
                    "value": "0"
                },
                "nodeType": 0
            },
            "1": {
                "event": {
                    "contract": "0xc77849b15ed98e185aae9cf73b8300770d20e6bb",
                    "decodedLog": {
                        "name": "Transfer",
                        "params": [
                            {
                                "name": "from",
                                "type": "address",
                                "value": "0x5920321d6a7b0e7ff9bf419d036417c08050f92b"
                            },
                            {
                                "name": "to",
                                "type": "address",
                                "value": "0x4c725ae48672691f5e1a1137bafb4a1508d56847"
                            },
                            {
                                "decimalAvailable": true,
                                "name": "value",
                                "type": "uint256",
                                "value": "500,000,000,000,000,000,000"
                            }
                        ],
                        "signature": "Transfer(address,address,uint256)"
                    },
                    "id": 1,
                    "logData": "0x00000000000000000000000000000000000000000000001b1ae4d6e2ef500000",
                    "logDecoded": true,
                    "operation": "EVENT",
                    "revert": false,
                    "status": true,
                    "topics": [
                        "0xddf252ad1be2c89b69c2b068fc378daa952ba7f163c4a11628f55a4df523b3ef",
                        "0x0000000000000000000000005920321d6a7b0e7ff9bf419d036417c08050f92b",
                        "0x0000000000000000000000004c725ae48672691f5e1a1137bafb4a1508d56847"
                    ]
                },
                "nodeType": 1
            }
        },
        "gasFlame": [
            {
                "children": [
                    {
                        "children": [
                            {
                                "children": [],
                                "depth": 0,
                                "name": "Initial Gas",
                                "value": 21644
                            },
                            {
                                "children": [],
                                "depth": 0,
                                "name": "Executed Gas",
                                "value": 12843
                            }
                        ],
                        "depth": -1,
                        "name": "Actual Gas Used",
                        "value": 34487
                    },
                    {
                        "children": [],
                        "depth": -1,
                        "name": "Refunded Gas",
                        "value": 0
                    }
                ],
                "depth": -2,
                "name": "Total Gas",
                "value": 34487
            }
        ],
        "isConfirmed": true,
        "mainTrace": [
            {
                "children": [
                    {
                        "children": [
                            {
                                "children": [],
                                "depth": 1,
                                "id": 1,
                                "order": 1
                            }
                        ],
                        "depth": 0,
                        "id": 0,
                        "order": 0
                    }
                ],
                "depth": -1,
                "id": -1,
                "order": -1
            }
        ],
        "mainTraceNodeCount": 2,
        "parentIdMap": {
            "0": -1,
            "1": 0
        },
        "tidyTrace": [
            {
                "children": [
                    {
                        "children": [
                            {
                                "children": [],
                                "depth": 1,
                                "id": 1,
                                "order": 1
                            }
                        ],
                        "depth": 0,
                        "id": 0,
                        "order": 0
                    }
                ],
                "depth": -1,
                "id": -1,
                "order": -1
            }
        ],
        "tidyTraceNodeCount": 2
    },
    "state_change": {
        "stateChanges": [
            {
                "address": "0xc77849b15ed98e185aae9cf73b8300770d20e6bb",
                "erc": "",
                "slots": [
                    {
                        "current": "0x0000000000000000000000000000000000000000000000d8f060cf7274790ca3",
                        "key": "0x4870d74b0a9ec6f768b594caa1ff5213a672fddd844ed0e2be850c27a28dc046",
                        "prev": "0x0000000000000000000000000000000000000000000000f40b45a65563c90ca3"
                    },
                    {
                        "current": "0x00000000000000000000000000000000000000000000001b1dab61d3aa640000",
                        "key": "0x3712ad90dc8baaa3fab32fd1d7c68d3b628e1b1cc6519da22b0f717759b13a46",
                        "prev": "0x00000000000000000000000000000000000000000000000002c68af0bb140000"
                    }
                ],
                "storageVariables": []
            }
        ]
    }
}