{
    "balance_change": {
        "balanceChanges": [
            {
                "account": "0x5b45dadc0b44fbd41fec8c42eed86e1f100bb1bd",
                "assets": [
                    {
                        "address": "0x8e870d67f660d95d5be530380d0ec0bd388289e1",
                        "amount": "50",
                        "iconUrl": "https://assets.blocksec.com/icon/df4a16322c8ca2faeeb21a6d029f24de2efeb58e57edadd9ecbfa6a35afa986d.png",
                        "isERC1155": false,
                        "isERC721": false,
                        "sign": false,
                        "value": ""
                    }
                ]
            },
            {
                "account": "0x9536bcfaad85f0cd0560be3c9a4fdb759899d621",
                "assets": [
                    {
                        "address": "0x8e870d67f660d95d5be530380d0ec0bd388289e1",
                        "amount": "50",
                        "iconUrl": "https://assets.blocksec.com/icon/df4a16322c8ca2faeeb21a6d029f24de2efeb58e57edadd9ecbfa6a35afa986d.png",
                        "isERC1155": false,
                        "isERC721": false,
                        "sign": true,
                        "value": ""
                    }
                ]
            }
        ]
    },
    "profile": {
        "basic_info": {
            "baseFee": "",
            "blockNumber": 9602092,
            "callData": "0xa9059cbb0000000000000000000000009536bcfaad85f0cd0560be3c9a4fdb759899d621000000000000000000000000000000000000000000000002b5e3af16b1880000",
            "debugEnable": true,
            "errorInfo": "",
            "eventCount": 1,
            "feeRecipient": "0xea674fdde714fd979de3edf0f56aa9716b898ec8",
            "formatValue": "0",
            "gasLimit": 60000,
            "gasPrice": "3.000000144",
            "gasUsed": 58145,
            "intTxnCount": 1,
            "internalRevert": false,
            "internalRevertMessage": "",
            "isContractCreation": false,
            "isFlashloan": false,
            "maxFee": "",
            "nonce": 26,
            "overwritedBlockNumber": -1,
            "priorityFee": "",
            "receiver": "0x8e870d67f660d95d5be530380d0ec0bd388289e1",
            "revertMessage": "",
            "sender": "0x5b45dadc0b44fbd41fec8c42eed86e1f100bb1bd",
            "simulationEnable": true,
            "sourceTxnHash": "0xeecca8970d7324cdd7d621e7d18113c5eda44d85170982c72a5f74d031252773",
            "status": true,
            "timestamp": "2020-03-04T02:55:37Z",
            "transactionFee": "0.00017443500837288",
            "txnHash": "0xeecca8970d7324cdd7d621e7d18113c5eda44d85170982c72a5f74d031252773",
            "txnIndex": 74,
            "type": 0,
            "value": "0"
        },
        "fund_flow": [
            {
                "amount": "50",
                "from": "0x5b45dadc0b44fbd41fec8c42eed86e1f100bb1bd",
                "id": 1,
                "isERC1155": false,
                "isERC721": false,
                "isReverted": false,
                "order": 1,
                "to": "0x9536bcfaad85f0cd0560be3c9a4fdb759899d621",
                "token": "0x8e870d67f660d95d5be530380d0ec0bd388289e1"
            }
        ],
        "token_infos": [
            {
                "address": "0x8e870d67f660d95d5be530380d0ec0bd388289e1",
                "decimals": 18
            },
            {
                "address": "0xc02aaa39b223fe8d0a0e5c4f27ead9083c756cc2",
                "decimals": 18
            },
            {
                "address": "0xeeeeeeeeeeeeeeeeeeeeeeeeeeeeeeeeeeeeeeee",
                "decimals": 18
            }
        ]
    },
    "address_label": {
        "labels": [
            {
                "address": "0x0000000000000000000000000000000000000001",
                "label": "Precompiled"
            },
            {
                "address": "0x0000000000000000000000000000000000000002",
                "label": "Precompiled"
            },
            {
                "address": "0x0000000000000000000000000000000000000003",
                "label": "Precompiled"
            },
            {
                "address": "0x0000000000000000000000000000000000000004",
                "label": "Precompiled"
            },
            {
                "address": "0xeeeeeeeeeeeeeeeeeeeeeeeeeeeeeeeeeeeeeeee",
                "label": "Ether"
            },
            {
                "address": "0x9536bcfaad85f0cd0560be3c9a4fdb759899d621",
                "label": "HUOBI"
            },
            {
                "address": "0x8e870d67f660d95d5be530380d0ec0bd388289e1",
                "label": "Paxos: USDP Token"
            },
            {
                "address": "0x86eee0422322710866af89e9cae3f7383d55310a",
                "label": "Paxos Standard (PAX)"
            }
        ]
    },
    "trace": {
        "accountLabels": null,
        "dataMap": {
            "-1": {
                "invocation": {
                    "address": "0x5b45dadc0b44fbd41fec8c42eed86e1f100bb1bd",
                    "callData": "",
                    "decodedMethod": null,
                    "errorInfo": "",
                    "fromAddress": "",
                    "gasUsed": 0,
                    "id": -1,
                    "methodDecoded": false,
                    "operation": "",
                    "output": "",
                    "revert": false,
                    "revertMessage": "",
                    "selector": "",
                    "status": false,
                    "value": ""
                },
                "nodeType": 0
            },
            "0": {
                "invocation": {
                    "address": "0x8e870d67f660d95d5be530380d0ec0bd388289e1",
                    "callData": "0x0000000000000000000000009536bcfaad85f0cd0560be3c9a4fdb759899d621000000000000000000000000000000000000000000000002b5e3af16b1880000",
                    "decodedMethod": {
                        "callParams": [
                            {
                                "name": "_to",
                                "type": "address",
                                "value": "0x9536bcfaad85f0cd0560be3c9a4fdb759899d621"
                            },
                            {
                                "decimalAvailable": true,
                                "name": "_value",
                                "type": "uint256",
                                "value": "50,000,000,000,000,000,000"
                            }
                        ],
                        "constructorArguments": "",
                        "name": "transfer",
                        "returnParams": [
                            {
                                "name": "",
                                "type": "bool",
                                "value": true
                            }
                        ],
                        "signature": "transfer(address,uint256)"
                    },
                    "errorInfo": "",
                    "fromAddress": "0x5b45dadc0b44fbd41fec8c42eed86e1f100bb1bd",
                    "gasUsed": 58145,
                    "id": 0,
                    "methodDecoded": true,
                    "operation": "CALL",
                    "output": "0x0000000000000000000000000000000000000000000000000000000000000001",
                    "revert": false,
                    "revertMessage": "",
                    "selector": "0xa9059cbb",
                    "status": true,
                    "value": "0"
                },
                "nodeType": 0
            },
            "1": {
                "invocation": {
                    "address": "0x86eee0422322710866af89e9cae3f7383d55310a",
                    "callData": "0x0000000000000000000000009536bcfaad85f0cd0560be3c9a4fdb759899d621000000000000000000000000000000000000000000000002b5e3af16b1880000",
                    "decodedMethod": {
                        "callParams": [
                            {
                                "name": "_to",
                                "type": "address",
                                "value": "0x9536bcfaad85f0cd0560be3c9a4fdb759899d621"
                            },
                            {
                                "decimalAvailable": true,
                                "name": "_value",
                                "type": "uint256",
                                "value": "50,000,000,000,000,000,000"
                            }
                        ],
                        "constructorArguments": "",
                        "name": "transfer",
                        "returnParams": [
                            {
                                "name": "",
                                "type": "bool",
                                "value": true
                            }
                        ],
                        "signature": "transfer(address,uint256)"
                    },
                    "errorInfo": "",
                    "fromAddress": "0x8e870d67f660d95d5be530380d0ec0bd388289e1",
                    "gasUsed": 33719,
                    "id": 1,
                    "methodDecoded": true,
                    "operation": "DELEGATECALL",
                    "output": "0x0000000000000000000000000000000000000000000000000000000000000001",
                    "revert": false,
                    "revertMessage": "",
                    "selector": "0xa9059cbb",
                    "status": true,
                    "value": "0"
                },
                "nodeType": 0
            },
            "2": {
                "event": {
                    "contract": "0x8e870d67f660d95d5be530380d0ec0bd388289e1",
                    "decodedLog": {
                        "name": "Transfer",
                        "params": [
                            {
                                "name": "from",
                                "type": "address",
                                "value": "0x5b45dadc0b44fbd41fec8c42eed86e1f100bb1bd"
                            },
                            {
                                "name": "to",
                                "type": "address",
                                "value": "0x9536bcfaad85f0cd0560be3c9a4fdb759899d621"
                            },
                            {
                                "decimalAvailable": true,
                                "name": "value",
                                "type": "uint256",
                                "value": "50,000,000,000,000,000,000"
                            }
                        ],
                        "signature": "Transfer(address,address,uint256)"
                    },
                    "id": 2,
                    "logData": "0x000000000000000000000000000000000000000000000002b5e3af16b1880000",
                    "logDecoded": true,
                    "operation": "EVENT",
                    "revert": false,
                    "status": true,
                    "topics": [
                        "0xddf252ad1be2c89b69c2b068fc378daa952ba7f163c4a11628f55a4df523b3ef",
                        "0x0000000000000000000000005b45dadc0b44fbd41fec8c42eed86e1f100bb1bd",
                        "0x0000000000000000000000009536bcfaad85f0cd0560be3c9a4fdb759899d621"
                    ]
                },
                "nodeType": 1
            }
        },
        "gasFlame": [
            {
                "children": [
                    {
                        "children": [
                            {
                                "children": [],
                                "depth": 0,
                                "name": "Initial Gas",
                                "value": 21644
                            },
                            {
                                "children": [
                                    {
                                        "children": [],
                                        "depth": 1,
                                        "name": "transfer",
                                        "value": 33719
                                    }
                                ],
                                "depth": 0,
                                "name": "Executed Gas",
                                "value": 36501
                            }
                        ],
                        "depth": -1,
                        "name": "Actual Gas Used",
                        "value": 58145
                    },
                    {
                        "children": [],
                        "depth": -1,
                        "name": "Refunded Gas",
                        "value": 0
                    }
                ],
                "depth": -2,
                "name": "Total Gas",
                "value": 58145
            }
        ],
        "isConfirmed": true,
        "mainTrace": [
            {
                "children": [
                    {
                        "children": [
                            {
                                "children": [
                                    {
                                        "children": [],
                                        "depth": 2,
                                        "id": 2,
                                        "order": 2
                                    }
                                ],
                                "depth": 1,
                                "id": 1,
                                "order": 1
                            }
                        ],
                        "depth": 0,
                        "id": 0,
                        "order": 0
                    }
                ],
                "depth": -1,
                "id": -1,
                "order": -1
            }
        ],
        "mainTraceNodeCount": 3,
        "parentIdMap": {
            "0": -1,
            "1": 0,
            "2": 1
        },
        "tidyTrace": [
            {
                "children": [
                    {
                        "children": [
                            {
                                "children": [
                                    {
                                        "children": [],
                                        "depth": 2,
                                        "id": 2,
                                        "order": 2
                                    }
                                ],
                                "depth": 1,
                                "id": 1,
                                "order": 1
                            }
                        ],
                        "depth": 0,
                        "id": 0,
                        "order": 0
                    }
                ],
                "depth": -1,
                "id": -1,
                "order": -1
            }
        ],
        "tidyTraceNodeCount": 3
    },
    "state_change": {
        "stateChanges": [
            {
                "address": "0x8e870d67f660d95d5be530380d0ec0bd388289e1",
                "erc": "ERC-20",
                "slots": [
                    {
                        "current": "0x000000000000000000000000000000000000000000000028aba85b903c498000",
                        "key": "0x47765b0e1dc1659d30d5cc0be32deb021841cb00b024661ca5f16dd9ca33a727",
                        "prev": "0x00000000000000000000000000000000000000000000002b618c0aa6edd18000"
                    },
                    {
                        "current": "0x000000000000000000000000000000000000000000000002b5e3af16b1880000",
                        "key": "0x8c196577c5217413f27a0eab806034f59f6c4330880da1a2bedf3999682ae35e",
                        "prev": "0x0000000000000000000000000000000000000000000000000000000000000000"
                    }
                ],
                "storageVariables": [
                    {
                        "name": "balances",
                        "type": "mapping(address => uint256)",
                        "value": {
                            "pairs": [
                                {
                                    "key": "0x5b45dadc0b44fbd41fec8c42eed86e1f100bb1bd",
                                    "value": {
                                        "current": "750239000000000000000",
                                        "prev": "800239000000000000000",
                                        "typeTag": 1
                                    }
                                },
                                {
                                    "key": "0x9536bcfaad85f0cd0560be3c9a4fdb759899d621",
                                    "value": {
                                        "current": "50000000000000000000",
                                        "prev": "0",
                                        "typeTag": 1
                                    }
                                }
                            ],
                            "typeTag": 4
                        }
                    }
                ]
            }
        ]
    }
}