{
    "balance_change": {
        "balanceChanges": [
            {
                "account": "0x53323e9be41473e747001cde9076e6a2c29c1b3e",
                "assets": [
                    {
                        "address": "0xeeeeeeeeeeeeeeeeeeeeeeeeeeeeeeeeeeeeeeee",
                        "amount": "0.008782301343469896",
                        "iconUrl": "https://assets.blocksec.com/image/1663669189317-3.png",
                        "isERC1155": false,
                        "isERC721": false,
                        "sign": false,
                        "value": "34.254145648484821914"
                    }
                ]
            },
            {
                "account": "0xe31ee1a9d5a89c6c32afb33febcb55b9a6db57ad",
                "assets": [
                    {
                        "address": "0xeeeeeeeeeeeeeeeeeeeeeeeeeeeeeeeeeeeeeeee",
                        "amount": "0.008782301343469896",
                        "iconUrl": "https://assets.blocksec.com/image/1663669189317-3.png",
                        "isERC1155": false,
                        "isERC721": false,
                        "sign": true,
                        "value": "34.254145648484821914"
                    }
                ]
            }
        ]
    },
    "profile": {
        "basic_info": {
            "baseFee": "16.093230293",
            "blockNumber": 19967563,
            "callData": "0xc358547e00000000000000000000000000000000000000000000000000000000000000a0000000000000000000000000000000000000000000000000001f3374dfe351483843865d2fd86b713f11d5afab5a36ec7ca0aa0a8c29cc43ec58dcf5636bdba3000000000000000000000000000000000000000000000000000000000000044000000000000000000000000053323e9be41473e747001cde9076e6a2c29c1b3e0000000000000000000000000000000000000000000000000000018fbe981e7100000000000000000000000000000000000000000000000000000000000001c0000000000000000000000000000000000000000000000000000000000000000a0000000000000000000000000000000000000000000000000000000000000200000000000000000000000000000000000000000000000000002b0fe3e7709d6700000000000000000000000000000000000000000000000000000000000000010000000000000000000000000000000000000000000000000000000000000240000000000000000000000000000000000000000000000000001f3374dfe35148000000000000000000000000000000000000000000000000000000000000028000000000000000000000000000000000000000000000000000000000000002c000000000000000000000000000000000000000000000000000000000000003000000000000000000000000000000000000000000000000000000000000000340000000000000000000000000000000000000000000000000000000000000036000000000000000000000000000000000000000000000000000000000000003800000000000000000000000000000000000000000000000000000000000000014e31ee1a9d5a89c6c32afb33febcb55b9a6db57ad00000000000000000000000000000000000000000000000000000000000000000000000000000000000000140000000000000000000000000000000000000000000000000000000000000000000000000000000000000000000000000000000000000000000000000000001400000000000000000000000000000000000000000000000000000000000000000000000000000000000000000000000000000000000000000000000000000014e31ee1a9d5a89c6c32afb33febcb55b9a6db57ad0000000000000000000000000000000000000000000000000000000000000000000000000000000000000014e31ee1a9d5a89c6c32afb33febcb55b9a6db57ad0000000000000000000000000000000000000000000000000000000000000000000000000000000000000014e31ee1a9d5a89c6c32afb33febcb55b9a6db57ad0000000000000000000000000000000000000000000000000000000000000000000000000000000000000000000000000000000000000000000000000000000000000000000000000000000000000000000000000000000000000000000000000000000000000000000000000000000000000000000000000000000000000000000000000000000000000000",
            "debugEnable": true,
            "errorInfo": "",
            "eventCount": 1,
            "feeRecipient": "0x4838b106fce9647bdf1e7877bf73ce8b0bad5f97",
            "formatValue": "0.008782301343469896",
            "gasLimit": 1394379,
            "gasPrice": "21.347203764",
            "gasUsed": 118689,
            "intTxnCount": 2,
            "internalRevert": false,
            "internalRevertMessage": "",
            "isContractCreation": false,
            "isFlashloan": false,
            "maxFee": "",
            "nonce": 24985,
            "overwritedBlockNumber": -1,
            "priorityFee": "",
            "receiver": "0xe7351fd770a37282b91d153ee690b63579d6dd7f",
            "revertMessage": "",
            "sender": "0x53323e9be41473e747001cde9076e6a2c29c1b3e",
            "simulationEnable": true,
            "sourceTxnHash": "0xef3f64c3b5974e44daefd1b9905dd8d01fb9f79c2b43baf697420f0796cc2db9",
            "status": true,
            "timestamp": "2024-05-28T09:47:11Z",
            "transactionFee": "0.002533678267545396",
            "txnHash": "0xef3f64c3b5974e44daefd1b9905dd8d01fb9f79c2b43baf697420f0796cc2db9",
            "txnIndex": 93,
            "type": 0,
            "value": "8782301343469896"
        },
        "fund_flow": [
            {
                "amount": "0.008782301343469896",
                "from": "0x53323e9be41473e747001cde9076e6a2c29c1b3e",
                "id": 1,
                "isERC1155": false,
                "isERC721": false,
                "isReverted": false,
                "order": 1,
                "to": "0xe7351fd770a37282b91d153ee690b63579d6dd7f",
                "token": "0xeeeeeeeeeeeeeeeeeeeeeeeeeeeeeeeeeeeeeeee"
            },
            {
                "amount": "0.008782301343469896",
                "from": "0xe7351fd770a37282b91d153ee690b63579d6dd7f",
                "id": 2,
                "isERC1155": false,
                "isERC721": false,
                "isReverted": false,
                "order": 2,
                "to": "0xe31ee1a9d5a89c6c32afb33febcb55b9a6db57ad",
                "token": "0xeeeeeeeeeeeeeeeeeeeeeeeeeeeeeeeeeeeeeeee"
            }
        ],
        "token_infos": [
            {
                "address": "0xc02aaa39b223fe8d0a0e5c4f27ead9083c756cc2",
                "decimals": 18
            },
            {
                "address": "0xeeeeeeeeeeeeeeeeeeeeeeeeeeeeeeeeeeeeeeee",
                "decimals": 18
            }
        ]
    },
    "address_label": {
        "labels": [
            {
                "address": "0xeeeeeeeeeeeeeeeeeeeeeeeeeeeeeeeeeeeeeeee",
                "label": "Ether"
            },
            {
                "address": "0x33b72f60f2ceb7bdb64873ac10015a35bed81717",
                "label": "DlnDestination"
            },
            {
                "address": "0xe7351fd770a37282b91d153ee690b63579d6dd7f",
                "label": "Dln: Destination"
            },
            {
                "address": "0x0000000000000000000000000000000000000001",
                "label": "Precompiled"
            },
            {
                "address": "0x0000000000000000000000000000000000000002",
                "label": "Precompiled"
            },
            {
                "address": "0x0000000000000000000000000000000000000003",
                "label": "Precompiled"
            },
            {
                "address": "0x0000000000000000000000000000000000000004",
                "label": "Precompiled"
            }
        ]
    },
    "trace": {
        "accountLabels": null,
        "dataMap": {
            "-1": {
                "invocation": {
                    "address": "0x53323e9be41473e747001cde9076e6a2c29c1b3e",
                    "callData": "",
                    "decodedMethod": null,
                    "errorInfo": "",
                    "fromAddress": "",
                    "gasUsed": 0,
                    "id": -1,
                    "methodDecoded": false,
                    "operation": "",
                    "output": "",
                    "revert": false,
                    "revertMessage": "",
                    "selector": "",
                    "status": false,
                    "value": ""
                },
                "nodeType": 0
            },
            "0": {
                "invocation": {
                    "address": "0xe7351fd770a37282b91d153ee690b63579d6dd7f",
                    "callData": "0x00000000000000000000000000000000000000000000000000000000000000a0000000000000000000000000000000000000000000000000001f3374dfe351483843865d2fd86b713f11d5afab5a36ec7ca0aa0a8c29cc43ec58dcf5636bdba3000000000000000000000000000000000000000000000000000000000000044000000000000000000000000053323e9be41473e747001cde9076e6a2c29c1b3e0000000000000000000000000000000000000000000000000000018fbe981e7100000000000000000000000000000000000000000000000000000000000001c0000000000000000000000000000000000000000000000000000000000000000a0000000000000000000000000000000000000000000000000000000000000200000000000000000000000000000000000000000000000000002b0fe3e7709d6700000000000000000000000000000000000000000000000000000000000000010000000000000000000000000000000000000000000000000000000000000240000000000000000000000000000000000000000000000000001f3374dfe35148000000000000000000000000000000000000000000000000000000000000028000000000000000000000000000000000000000000000000000000000000002c000000000000000000000000000000000000000000000000000000000000003000000000000000000000000000000000000000000000000000000000000000340000000000000000000000000000000000000000000000000000000000000036000000000000000000000000000000000000000000000000000000000000003800000000000000000000000000000000000000000000000000000000000000014e31ee1a9d5a89c6c32afb33febcb55b9a6db57ad00000000000000000000000000000000000000000000000000000000000000000000000000000000000000140000000000000000000000000000000000000000000000000000000000000000000000000000000000000000000000000000000000000000000000000000001400000000000000000000000000000000000000000000000000000000000000000000000000000000000000000000000000000000000000000000000000000014e31ee1a9d5a89c6c32afb33febcb55b9a6db57ad0000000000000000000000000000000000000000000000000000000000000000000000000000000000000014e31ee1a9d5a89c6c32afb33febcb55b9a6db57ad0000000000000000000000000000000000000000000000000000000000000000000000000000000000000014e31ee1a9d5a89c6c32afb33febcb55b9a6db57ad0000000000000000000000000000000000000000000000000000000000000000000000000000000000000000000000000000000000000000000000000000000000000000000000000000000000000000000000000000000000000000000000000000000000000000000000000000000000000000000000000000000000000000000000000000000000000000",
                    "decodedMethod": {
                        "callParams": [
                            {
                                "name": "_order",
                                "type": "(uint64,bytes,uint256,bytes,uint256,uint256,bytes,uint256,bytes,bytes,bytes,bytes,bytes,bytes)",
                                "value": [
                                    {
                                        "name": "makerOrderNonce",
                                        "type": "uint64",
                                        "value": "1,716,889,591,409"
                                    },
                                    {
                                        "name": "makerSrc",
                                        "type": "bytes",
                                        "value": "0xe31ee1a9d5a89c6c32afb33febcb55b9a6db57ad"
                                    },
                                    {
                                        "name": "giveChainId",
                                        "type": "uint256",
                                        "value": "10"
                                    },
                                    {
                                        "name": "giveTokenAddress",
                                        "type": "bytes",
                                        "value": "0x0000000000000000000000000000000000000000"
                                    },
                                    {
                                        "name": "giveAmount",
                                        "type": "uint256",
                                        "value": "12,120,895,513,468,263"
                                    },
                                    {
                                        "name": "takeChainId",
                                        "type": "uint256",
                                        "value": "1"
                                    },
                                    {
                                        "name": "takeTokenAddress",
                                        "type": "bytes",
                                        "value": "0x0000000000000000000000000000000000000000"
                                    },
                                    {
                                        "name": "takeAmount",
                                        "type": "uint256",
                                        "value": "8,782,301,343,469,896"
                                    },
                                    {
                                        "name": "receiverDst",
                                        "type": "bytes",
                                        "value": "0xe31ee1a9d5a89c6c32afb33febcb55b9a6db57ad"
                                    },
                                    {
                                        "name": "givePatchAuthoritySrc",
                                        "type": "bytes",
                                        "value": "0xe31ee1a9d5a89c6c32afb33febcb55b9a6db57ad"
                                    },
                                    {
                                        "name": "orderAuthorityAddressDst",
                                        "type": "bytes",
                                        "value": "0xe31ee1a9d5a89c6c32afb33febcb55b9a6db57ad"
                                    },
                                    {
                                        "name": "allowedTakerDst",
                                        "type": "bytes",
                                        "value": "0x"
                                    },
                                    {
                                        "name": "allowedCancelBeneficiarySrc",
                                        "type": "bytes",
                                        "value": "0x"
                                    },
                                    {
                                        "name": "externalCall",
                                        "type": "bytes",
                                        "value": "0x"
                                    }
                                ]
                            },
                            {
                                "name": "_fulFillAmount",
                                "type": "uint256",
                                "value": "8,782,301,343,469,896"
                            },
                            {
                                "name": "_orderId",
                                "type": "bytes32",
                                "value": "0x3843865d2fd86b713f11d5afab5a36ec7ca0aa0a8c29cc43ec58dcf5636bdba3"
                            },
                            {
                                "name": "_permitEnvelope",
                                "type": "bytes",
                                "value": "0x"
                            },
                            {
                                "name": "_unlockAuthority",
                                "type": "address",
                                "value": "0x53323e9be41473e747001cde9076e6a2c29c1b3e"
                            }
                        ],
                        "constructorArguments": "",
                        "name": "fulfillOrder",
                        "returnParams": [],
                        "signature": "fulfillOrder((uint64,bytes,uint256,bytes,uint256,uint256,bytes,uint256,bytes,bytes,bytes,bytes,bytes,bytes),uint256,bytes32,bytes,address)"
                    },
                    "errorInfo": "",
                    "fromAddress": "0x53323e9be41473e747001cde9076e6a2c29c1b3e",
                    "gasUsed": 118689,
                    "id": 0,
                    "methodDecoded": true,
                    "operation": "CALL",
                    "output": "",
                    "revert": false,
                    "revertMessage": "",
                    "selector": "0xc358547e",
                    "status": true,
                    "value": "0.008782301343469896"
                },
                "nodeType": 0
            },
            "1": {
                "invocation": {
                    "address": "0x33b72f60f2ceb7bdb64873ac10015a35bed81717",
                    "callData": "0x00000000000000000000000000000000000000000000000000000000000000a0000000000000000000000000000000000000000000000000001f3374dfe351483843865d2fd86b713f11d5afab5a36ec7ca0aa0a8c29cc43ec58dcf5636bdba3000000000000000000000000000000000000000000000000000000000000044000000000000000000000000053323e9be41473e747001cde9076e6a2c29c1b3e0000000000000000000000000000000000000000000000000000018fbe981e7100000000000000000000000000000000000000000000000000000000000001c0000000000000000000000000000000000000000000000000000000000000000a0000000000000000000000000000000000000000000000000000000000000200000000000000000000000000000000000000000000000000002b0fe3e7709d6700000000000000000000000000000000000000000000000000000000000000010000000000000000000000000000000000000000000000000000000000000240000000000000000000000000000000000000000000000000001f3374dfe35148000000000000000000000000000000000000000000000000000000000000028000000000000000000000000000000000000000000000000000000000000002c000000000000000000000000000000000000000000000000000000000000003000000000000000000000000000000000000000000000000000000000000000340000000000000000000000000000000000000000000000000000000000000036000000000000000000000000000000000000000000000000000000000000003800000000000000000000000000000000000000000000000000000000000000014e31ee1a9d5a89c6c32afb33febcb55b9a6db57ad00000000000000000000000000000000000000000000000000000000000000000000000000000000000000140000000000000000000000000000000000000000000000000000000000000000000000000000000000000000000000000000000000000000000000000000001400000000000000000000000000000000000000000000000000000000000000000000000000000000000000000000000000000000000000000000000000000014e31ee1a9d5a89c6c32afb33febcb55b9a6db57ad0000000000000000000000000000000000000000000000000000000000000000000000000000000000000014e31ee1a9d5a89c6c32afb33febcb55b9a6db57ad0000000000000000000000000000000000000000000000000000000000000000000000000000000000000014e31ee1a9d5a89c6c32afb33febcb55b9a6db57ad0000000000000000000000000000000000000000000000000000000000000000000000000000000000000000000000000000000000000000000000000000000000000000000000000000000000000000000000000000000000000000000000000000000000000000000000000000000000000000000000000000000000000000000000000000000000000000",
                    "decodedMethod": {
                        "callParams": [
                            {
                                "name": "_order",
                                "type": "(uint64,bytes,uint256,bytes,uint256,uint256,bytes,uint256,bytes,bytes,bytes,bytes,bytes,bytes)",
                                "value": [
                                    {
                                        "name": "makerOrderNonce",
                                        "type": "uint64",
                                        "value": "1,716,889,591,409"
                                    },
                                    {
                                        "name": "makerSrc",
                                        "type": "bytes",
                                        "value": "0xe31ee1a9d5a89c6c32afb33febcb55b9a6db57ad"
                                    },
                                    {
                                        "name": "giveChainId",
                                        "type": "uint256",
                                        "value": "10"
                                    },
                                    {
                                        "name": "giveTokenAddress",
                                        "type": "bytes",
                                        "value": "0x0000000000000000000000000000000000000000"
                                    },
                                    {
                                        "name": "giveAmount",
                                        "type": "uint256",
                                        "value": "12,120,895,513,468,263"
                                    },
                                    {
                                        "name": "takeChainId",
                                        "type": "uint256",
                                        "value": "1"
                                    },
                                    {
                                        "name": "takeTokenAddress",
                                        "type": "bytes",
                                        "value": "0x0000000000000000000000000000000000000000"
                                    },
                                    {
                                        "name": "takeAmount",
                                        "type": "uint256",
                                        "value": "8,782,301,343,469,896"
                                    },
                                    {
                                        "name": "receiverDst",
                                        "type": "bytes",
                                        "value": "0xe31ee1a9d5a89c6c32afb33febcb55b9a6db57ad"
                                    },
                                    {
                                        "name": "givePatchAuthoritySrc",
                                        "type": "bytes",
                                        "value": "0xe31ee1a9d5a89c6c32afb33febcb55b9a6db57ad"
                                    },
                                    {
                                        "name": "orderAuthorityAddressDst",
                                        "type": "bytes",
                                        "value": "0xe31ee1a9d5a89c6c32afb33febcb55b9a6db57ad"
                                    },
                                    {
                                        "name": "allowedTakerDst",
                                        "type": "bytes",
                                        "value": "0x"
                                    },
                                    {
                                        "name": "allowedCancelBeneficiarySrc",
                                        "type": "bytes",
                                        "value": "0x"
                                    },
                                    {
                                        "name": "externalCall",
                                        "type": "bytes",
                                        "value": "0x"
                                    }
                                ]
                            },
                            {
                                "name": "_fulFillAmount",
                                "type": "uint256",
                                "value": "8,782,301,343,469,896"
                            },
                            {
                                "name": "_orderId",
                                "type": "bytes32",
                                "value": "0x3843865d2fd86b713f11d5afab5a36ec7ca0aa0a8c29cc43ec58dcf5636bdba3"
                            },
                            {
                                "name": "_permitEnvelope",
                                "type": "bytes",
                                "value": "0x"
                            },
                            {
                                "name": "_unlockAuthority",
                                "type": "address",
                                "value": "0x53323e9be41473e747001cde9076e6a2c29c1b3e"
                            }
                        ],
                        "constructorArguments": "",
                        "name": "fulfillOrder",
                        "returnParams": [],
                        "signature": "fulfillOrder((uint64,bytes,uint256,bytes,uint256,uint256,bytes,uint256,bytes,bytes,bytes,bytes,bytes,bytes),uint256,bytes32,bytes,address)"
                    },
                    "errorInfo": "",
                    "fromAddress": "0xe7351fd770a37282b91d153ee690b63579d6dd7f",
                    "gasUsed": 86206,
                    "id": 1,
                    "methodDecoded": true,
                    "operation": "DELEGATECALL",
                    "output": "",
                    "revert": false,
                    "revertMessage": "",
                    "selector": "0xc358547e",
                    "status": true,
                    "value": "0.008782301343469896"
                },
                "nodeType": 0
            },
            "2": {
                "invocation": {
                    "address": "0xe31ee1a9d5a89c6c32afb33febcb55b9a6db57ad",
                    "callData": "0x",
                    "decodedMethod": null,
                    "errorInfo": "",
                    "fromAddress": "0xe7351fd770a37282b91d153ee690b63579d6dd7f",
                    "gasUsed": 0,
                    "id": 2,
                    "methodDecoded": false,
                    "operation": "CALL",
                    "output": "",
                    "revert": false,
                    "revertMessage": "",
                    "selector": "fallback",
                    "status": true,
                    "value": "0.008782301343469896"
                },
                "nodeType": 0
            },
            "3": {
                "event": {
                    "contract": "0xe7351fd770a37282b91d153ee690b63579d6dd7f",
                    "decodedLog": {
                        "name": "FulfilledOrder",
                        "params": [
                            {
                                "name": "order",
                                "type": "(uint64,bytes,uint256,bytes,uint256,uint256,bytes,uint256,bytes,bytes,bytes,bytes,bytes,bytes)",
                                "value": [
                                    {
                                        "name": "makerOrderNonce",
                                        "type": "uint64",
                                        "value": "1,716,889,591,409"
                                    },
                                    {
                                        "name": "makerSrc",
                                        "type": "bytes",
                                        "value": "0xe31ee1a9d5a89c6c32afb33febcb55b9a6db57ad"
                                    },
                                    {
                                        "name": "giveChainId",
                                        "type": "uint256",
                                        "value": "10"
                                    },
                                    {
                                        "name": "giveTokenAddress",
                                        "type": "bytes",
                                        "value": "0x0000000000000000000000000000000000000000"
                                    },
                                    {
                                        "name": "giveAmount",
                                        "type": "uint256",
                                        "value": "12,120,895,513,468,263"
                                    },
                                    {
                                        "name": "takeChainId",
                                        "type": "uint256",
                                        "value": "1"
                                    },
                                    {
                                        "name": "takeTokenAddress",
                                        "type": "bytes",
                                        "value": "0x0000000000000000000000000000000000000000"
                                    },
                                    {
                                        "name": "takeAmount",
                                        "type": "uint256",
                                        "value": "8,782,301,343,469,896"
                                    },
                                    {
                                        "name": "receiverDst",
                                        "type": "bytes",
                                        "value": "0xe31ee1a9d5a89c6c32afb33febcb55b9a6db57ad"
                                    },
                                    {
                                        "name": "givePatchAuthoritySrc",
                                        "type": "bytes",
                                        "value": "0xe31ee1a9d5a89c6c32afb33febcb55b9a6db57ad"
                                    },
                                    {
                                        "name": "orderAuthorityAddressDst",
                                        "type": "bytes",
                                        "value": "0xe31ee1a9d5a89c6c32afb33febcb55b9a6db57ad"
                                    },
                                    {
                                        "name": "allowedTakerDst",
                                        "type": "bytes",
                                        "value": "0x"
                                    },
                                    {
                                        "name": "allowedCancelBeneficiarySrc",
                                        "type": "bytes",
                                        "value": "0x"
                                    },
                                    {
                                        "name": "externalCall",
                                        "type": "bytes",
                                        "value": "0x"
                                    }
                                ]
                            },
                            {
                                "name": "orderId",
                                "type": "bytes32",
                                "value": "0x3843865d2fd86b713f11d5afab5a36ec7ca0aa0a8c29cc43ec58dcf5636bdba3"
                            },
                            {
                                "name": "sender",
                                "type": "address",
                                "value": "0x53323e9be41473e747001cde9076e6a2c29c1b3e"
                            },
                            {
                                "name": "unlockAuthority",
                                "type": "address",
                                "value": "0x53323e9be41473e747001cde9076e6a2c29c1b3e"
                            }
                        ],
                        "signature": "FulfilledOrder((uint64,bytes,uint256,bytes,uint256,uint256,bytes,uint256,bytes,bytes,bytes,bytes,bytes,bytes),bytes32,address,address)"
                    },
                    "id": 3,
                    "logData": "0x00000000000000000000000000000000000000000000000000000000000000803843865d2fd86b713f11d5afab5a36ec7ca0aa0a8c29cc43ec58dcf5636bdba300000000000000000000000053323e9be41473e747001cde9076e6a2c29c1b3e00000000000000000000000053323e9be41473e747001cde9076e6a2c29c1b3e0000000000000000000000000000000000000000000000000000018fbe981e7100000000000000000000000000000000000000000000000000000000000001c0000000000000000000000000000000000000000000000000000000000000000a0000000000000000000000000000000000000000000000000000000000000200000000000000000000000000000000000000000000000000002b0fe3e7709d6700000000000000000000000000000000000000000000000000000000000000010000000000000000000000000000000000000000000000000000000000000240000000000000000000000000000000000000000000000000001f3374dfe35148000000000000000000000000000000000000000000000000000000000000028000000000000000000000000000000000000000000000000000000000000002c000000000000000000000000000000000000000000000000000000000000003000000000000000000000000000000000000000000000000000000000000000340000000000000000000000000000000000000000000000000000000000000036000000000000000000000000000000000000000000000000000000000000003800000000000000000000000000000000000000000000000000000000000000014e31ee1a9d5a89c6c32afb33febcb55b9a6db57ad00000000000000000000000000000000000000000000000000000000000000000000000000000000000000140000000000000000000000000000000000000000000000000000000000000000000000000000000000000000000000000000000000000000000000000000001400000000000000000000000000000000000000000000000000000000000000000000000000000000000000000000000000000000000000000000000000000014e31ee1a9d5a89c6c32afb33febcb55b9a6db57ad0000000000000000000000000000000000000000000000000000000000000000000000000000000000000014e31ee1a9d5a89c6c32afb33febcb55b9a6db57ad0000000000000000000000000000000000000000000000000000000000000000000000000000000000000014e31ee1a9d5a89c6c32afb33febcb55b9a6db57ad000000000000000000000000000000000000000000000000000000000000000000000000000000000000000000000000000000000000000000000000000000000000000000000000000000000000000000000000000000000000000000000000000000000000000000000000",
                    "logDecoded": true,
                    "operation": "EVENT",
                    "revert": false,
                    "status": true,
                    "topics": [
                        "0xd281ee92bab1446041582480d2c0a9dc91f855386bb27ea295faac1e992f7fe4"
                    ]
                },
                "nodeType": 1
            }
        },
        "gasFlame": [
            {
                "children": [
                    {
                        "children": [
                            {
                                "children": [],
                                "depth": 0,
                                "name": "Initial Gas",
                                "value": 27764
                            },
                            {
                                "children": [
                                    {
                                        "children": [
                                            {
                                                "children": [],
                                                "depth": 2,
                                                "name": "fallback",
                                                "value": 0
                                            }
                                        ],
                                        "depth": 1,
                                        "name": "fulfillOrder",
                                        "value": 86206
                                    }
                                ],
                                "depth": 0,
                                "name": "Executed Gas",
                                "value": 93725
                            }
                        ],
                        "depth": -1,
                        "name": "Actual Gas Used",
                        "value": 118689
                    },
                    {
                        "children": [],
                        "depth": -1,
                        "name": "Refunded Gas",
                        "value": 2800
                    }
                ],
                "depth": -2,
                "name": "Total Gas",
                "value": 121489
            }
        ],
        "isConfirmed": true,
        "mainTrace": [
            {
                "children": [
                    {
                        "children": [
                            {
                                "children": [
                                    {
                                        "children": [],
                                        "depth": 2,
                                        "id": 2,
                                        "order": 2
                                    },
                                    {
                                        "children": [],
                                        "depth": 2,
                                        "id": 3,
                                        "order": 3
                                    }
                                ],
                                "depth": 1,
                                "id": 1,
                                "order": 1
                            }
                        ],
                        "depth": 0,
                        "id": 0,
                        "order": 0
                    }
                ],
                "depth": -1,
                "id": -1,
                "order": -1
            }
        ],
        "mainTraceNodeCount": 4,
        "parentIdMap": {
            "0": -1,
            "1": 0,
            "2": 1,
            "3": 1
        },
        "tidyTrace": [
            {
                "children": [
                    {
                        "children": [
                            {
                                "children": [
                                    {
                                        "children": [],
                                        "depth": 2,
                                        "id": 2,
                                        "order": 2
                                    },
                                    {
                                        "children": [],
                                        "depth": 2,
                                        "id": 3,
                                        "order": 3
                                    }
                                ],
                                "depth": 1,
                                "id": 1,
                                "order": 1
                            }
                        ],
                        "depth": 0,
                        "id": 0,
                        "order": 0
                    }
                ],
                "depth": -1,
                "id": -1,
                "order": -1
            }
        ],
        "tidyTraceNodeCount": 4
    },
    "state_change": {
        "stateChanges": [
            {
                "address": "0xe7351fd770a37282b91d153ee690b63579d6dd7f",
                "erc": "",
                "slots": [
                    {
                        "current": "0x000000000000000000000053323e9be41473e747001cde9076e6a2c29c1b3e01",
                        "key": "0x10099d3ee98e850c45aa0229bd209fcf93256a4cfd4f2cae1e8734cbe3ead6aa",
                        "prev": "0x0000000000000000000000000000000000000000000000000000000000000000"
                    },
                    {
                        "current": "0x000000000000000000000000000000000000000000000000000000000000000a",
                        "key": "0x10099d3ee98e850c45aa0229bd209fcf93256a4cfd4f2cae1e8734cbe3ead6ab",
                        "prev": "0x0000000000000000000000000000000000000000000000000000000000000000"
                    }
                ],
                "storageVariables": [
                    {
                        "name": "takeOrders",
                        "type": "mapping(bytes32 => struct DlnDestination.OrderTakeState)",
                        "value": {
                            "pairs": [
                                {
                                    "key": "0x3843865d2fd86b713f11d5afab5a36ec7ca0aa0a8c29cc43ec58dcf5636bdba3",
                                    "value": {
                                        "fields": [
                                            {
                                                "name": "status",
                                                "type": "enum DlnDestination.OrderTakeStatus",
                                                "value": {
                                                    "current": "1",
                                                    "prev": "0",
                                                    "typeTag": 1
                                                }
                                            },
                                            {
                                                "name": "takerAddress",
                                                "type": "address",
                                                "value": {
                                                    "current": "0x53323e9be41473e747001cde9076e6a2c29c1b3e",
                                                    "prev": "0x0000000000000000000000000000000000000000",
                                                    "typeTag": 1
                                                }
                                            },
                                            {
                                                "name": "giveChainId",
                                                "type": "uint256",
                                                "value": {
                                                    "current": "10",
                                                    "prev": "0",
                                                    "typeTag": 1
                                                }
                                            }
                                        ],
                                        "typeTag": 3
                                    }
                                }
                            ],
                            "typeTag": 4
                        }
                    }
                ]
            }
        ]
    }
}