{
    "balance_change": {
        "balanceChanges": []
    },
    "profile": {
        "basic_info": {
            "baseFee": "11.073616483",
            "blockNumber": 15446232,
            "callData": "0x2368549600000000000000000000000000000000000000000000000000000000000000be0000000000000000000000000000000000000000000000000000000000000284",
            "debugEnable": true,
            "errorInfo": "",
            "eventCount": 1,
            "feeRecipient": "0x433022c4066558e7a32d850f02d2da5ca782174d",
            "formatValue": "0",
            "gasLimit": 162178,
            "gasPrice": "12.573616483",
            "gasUsed": 103133,
            "intTxnCount": 0,
            "internalRevert": false,
            "internalRevertMessage": "",
            "isContractCreation": false,
            "isFlashloan": false,
            "maxFee": "17.696425499",
            "nonce": 470,
            "overwritedBlockNumber": -1,
            "priorityFee": "1.5",
            "receiver": "0x8652168693827ff341f2ad5ad9a091f2a975710a",
            "revertMessage": "",
            "sender": "0x1a8ebf1cd455e111d88096a4488eaaf7a86fec47",
            "simulationEnable": true,
            "sourceTxnHash": "0xef0dfcc3ac6b045d611ae5509771ccb1641691e2171a9a443de9e64a64bff573",
            "status": true,
            "timestamp": "2022-08-31T10:54:47Z",
            "transactionFee": "0.001296754788741239",
            "txnHash": "0xef0dfcc3ac6b045d611ae5509771ccb1641691e2171a9a443de9e64a64bff573",
            "txnIndex": 55,
            "type": 2,
            "value": "0"
        },
        "fund_flow": [],
        "token_infos": [
            {
                "address": "0xc02aaa39b223fe8d0a0e5c4f27ead9083c756cc2",
                "decimals": 18
            },
            {
                "address": "0xeeeeeeeeeeeeeeeeeeeeeeeeeeeeeeeeeeeeeeee",
                "decimals": 18
            }
        ]
    },
    "address_label": {
        "labels": [
            {
                "address": "0xeeeeeeeeeeeeeeeeeeeeeeeeeeeeeeeeeeeeeeee",
                "label": "Ether"
            },
            {
                "address": "0x8652168693827ff341f2ad5ad9a091f2a975710a",
                "label": "Manager"
            },
            {
                "address": "0x0000000000000000000000000000000000000001",
                "label": "Precompiled"
            },
            {
                "address": "0x0000000000000000000000000000000000000002",
                "label": "Precompiled"
            },
            {
                "address": "0x0000000000000000000000000000000000000003",
                "label": "Precompiled"
            },
            {
                "address": "0x0000000000000000000000000000000000000004",
                "label": "Precompiled"
            }
        ]
    },
    "trace": {
        "accountLabels": null,
        "dataMap": {
            "-1": {
                "invocation": {
                    "address": "0x1a8ebf1cd455e111d88096a4488eaaf7a86fec47",
                    "callData": "",
                    "decodedMethod": null,
                    "errorInfo": "",
                    "fromAddress": "",
                    "gasUsed": 0,
                    "id": -1,
                    "methodDecoded": false,
                    "operation": "",
                    "output": "",
                    "revert": false,
                    "revertMessage": "",
                    "selector": "",
                    "status": false,
                    "value": ""
                },
                "nodeType": 0
            },
            "0": {
                "invocation": {
                    "address": "0x8652168693827ff341f2ad5ad9a091f2a975710a",
                    "callData": "0x00000000000000000000000000000000000000000000000000000000000000be0000000000000000000000000000000000000000000000000000000000000284",
                    "decodedMethod": {
                        "callParams": [
                            {
                                "name": "_raffleId",
                                "type": "uint256",
                                "value": "190"
                            },
                            {
                                "name": "_id",
                                "type": "uint256",
                                "value": "644"
                            }
                        ],
                        "constructorArguments": "",
                        "name": "buyEntry",
                        "returnParams": [],
                        "signature": "buyEntry(uint256,uint256)"
                    },
                    "errorInfo": "",
                    "fromAddress": "0x1a8ebf1cd455e111d88096a4488eaaf7a86fec47",
                    "gasUsed": 103133,
                    "id": 0,
                    "methodDecoded": true,
                    "operation": "CALL",
                    "output": "",
                    "revert": false,
                    "revertMessage": "",
                    "selector": "0x23685496",
                    "status": true,
                    "value": "0"
                },
                "nodeType": 0
            },
            "1": {
                "event": {
                    "contract": "0x8652168693827ff341f2ad5ad9a091f2a975710a",
                    "decodedLog": {
                        "name": "EntrySold",
                        "params": [
                            {
                                "name": "raffleId",
                                "type": "uint256",
                                "value": "190"
                            },
                            {
                                "name": "buyer",
                                "type": "address",
                                "value": "0x1a8ebf1cd455e111d88096a4488eaaf7a86fec47"
                            },
                            {
                                "name": "currentSize",
                                "type": "uint256",
                                "value": "337"
                            },
                            {
                                "name": "priceStructureId",
                                "type": "uint256",
                                "value": "644"
                            }
                        ],
                        "signature": "EntrySold(uint256,address,uint256,uint256)"
                    },
                    "id": 1,
                    "logData": "0x00000000000000000000000000000000000000000000000000000000000001510000000000000000000000000000000000000000000000000000000000000284",
                    "logDecoded": true,
                    "operation": "EVENT",
                    "revert": false,
                    "status": true,
                    "topics": [
                        "0xd746af8dc82f9bed98cea0fe0264eb1c3d2e5f7bcc77fc5efb429c79df407887",
                        "0x00000000000000000000000000000000000000000000000000000000000000be",
                        "0x0000000000000000000000001a8ebf1cd455e111d88096a4488eaaf7a86fec47"
                    ]
                },
                "nodeType": 1
            }
        },
        "gasFlame": [
            {
                "children": [
                    {
                        "children": [
                            {
                                "children": [],
                                "depth": 0,
                                "name": "Initial Gas",
                                "value": 21356
                            },
                            {
                                "children": [],
                                "depth": 0,
                                "name": "Executed Gas",
                                "value": 84577
                            }
                        ],
                        "depth": -1,
                        "name": "Actual Gas Used",
                        "value": 103133
                    },
                    {
                        "children": [],
                        "depth": -1,
                        "name": "Refunded Gas",
                        "value": 2800
                    }
                ],
                "depth": -2,
                "name": "Total Gas",
                "value": 105933
            }
        ],
        "isConfirmed": true,
        "mainTrace": [
            {
                "children": [
                    {
                        "children": [
                            {
                                "children": [],
                                "depth": 1,
                                "id": 1,
                                "order": 1
                            }
                        ],
                        "depth": 0,
                        "id": 0,
                        "order": 0
                    }
                ],
                "depth": -1,
                "id": -1,
                "order": -1
            }
        ],
        "mainTraceNodeCount": 2,
        "parentIdMap": {
            "0": -1,
            "1": 0
        },
        "tidyTrace": [
            {
                "children": [
                    {
                        "children": [
                            {
                                "children": [],
                                "depth": 1,
                                "id": 1,
                                "order": 1
                            }
                        ],
                        "depth": 0,
                        "id": 0,
                        "order": 0
                    }
                ],
                "depth": -1,
                "id": -1,
                "order": -1
            }
        ],
        "tidyTraceNodeCount": 2
    },
    "state_change": {
        "stateChanges": [
            {
                "address": "0x8652168693827ff341f2ad5ad9a091f2a975710a",
                "erc": "",
                "slots": [
                    {
                        "current": "0x0000000000000000000000000000000000000000000000000000000000000151",
                        "key": "0x6e1540171b6c0c960b71a7020d9f60077f6af931a8bbf590da0223dacf75d15c",
                        "prev": "0x0000000000000000000000000000000000000000000000000000000000000150"
                    },
                    {
                        "current": "0x0000000000000000000000001a8ebf1cd455e111d88096a4488eaaf7a86fec47",
                        "key": "0x48c41bbbe6e93356d1680190505ce479badb88c1020641b3e2065d683f4eabbd",
                        "prev": "0x0000000000000000000000000000000000000000000000000000000000000000"
                    },
                    {
                        "current": "0x0000000000000000000000000000000000000000000000000000000000000151",
                        "key": "0x6e1540171b6c0c960b71a7020d9f60077f6af931a8bbf590da0223dacf75d160",
                        "prev": "0x0000000000000000000000000000000000000000000000000000000000000150"
                    },
                    {
                        "current": "0x0000000000000000000000000000000000000000000000000000000000000001",
                        "key": "0x09d4d81028bb2d5ec056a733e449c3af4096f4a17a97eb4959c3cb1c170c05d9",
                        "prev": "0x0000000000000000000000000000000000000000000000000000000000000000"
                    }
                ],
                "storageVariables": [
                    {
                        "name": "raffles",
                        "type": "struct Manager.RaffleStruct[]",
                        "value": {
                            "elemType": "struct Manager.RaffleStruct",
                            "elems": [
                                {
                                    "index": 190,
                                    "value": {
                                        "fields": [
                                            {
                                                "name": "entries",
                                                "type": "address[]",
                                                "value": {
                                                    "elemType": "address",
                                                    "elems": [
                                                        {
                                                            "index": 336,
                                                            "value": {
                                                                "current": "0x1a8ebf1cd455e111d88096a4488eaaf7a86fec47",
                                                                "prev": "0x0000000000000000000000000000000000000000",
                                                                "typeTag": 1
                                                            }
                                                        }
                                                    ],
                                                    "typeTag": 2
                                                }
                                            },
                                            {
                                                "name": "entriesLength",
                                                "type": "uint256",
                                                "value": {
                                                    "current": "337",
                                                    "prev": "336",
                                                    "typeTag": 1
                                                }
                                            }
                                        ],
                                        "typeTag": 3
                                    }
                                }
                            ],
                            "typeTag": 2
                        }
                    },
                    {
                        "name": "claimsData",
                        "type": "mapping(bytes32 => struct Manager.ClaimStruct)",
                        "value": {
                            "pairs": [
                                {
                                    "key": "0x1f498d97cdde05ed144562b51cfc04c55a84d35abf2f4363152ad19a4b690da8",
                                    "value": {
                                        "fields": [
                                            {
                                                "name": "numEntriesPerUser",
                                                "type": "uint256",
                                                "value": {
                                                    "current": "1",
                                                    "prev": "0",
                                                    "typeTag": 1
                                                }
                                            }
                                        ],
                                        "typeTag": 3
                                    }
                                }
                            ],
                            "typeTag": 4
                        }
                    }
                ]
            }
        ]
    }
}