{
    "balance_change": {
        "balanceChanges": []
    },
    "profile": {
        "basic_info": {
            "baseFee": "",
            "blockNumber": 4021482,
            "callData": "0x47872b42d8e8a100a05c0ca6b4866710ff95f737e71fab7584231412bf89500b03f1fd8d0000000000000000000000000000000000000000000000000e4b4b8af6a700008836a4668b3a980ec2067f369b0484298e3dbb298fba33bf4a23a1523dd0f062",
            "debugEnable": true,
            "errorInfo": "",
            "eventCount": 1,
            "feeRecipient": "0xb2930b35844a230f00e51431acae96fe543a0347",
            "formatValue": "0",
            "gasLimit": 150000,
            "gasPrice": "0.88",
            "gasUsed": 81116,
            "intTxnCount": 4,
            "internalRevert": false,
            "internalRevertMessage": "",
            "isContractCreation": false,
            "isFlashloan": false,
            "maxFee": "",
            "nonce": 35020,
            "overwritedBlockNumber": -1,
            "priorityFee": "",
            "receiver": "0x6090a6e47849629b7245dfa1ca21d94cd15878ef",
            "revertMessage": "",
            "sender": "0xa7f3659c53820346176f7e0e350780df304db179",
            "simulationEnable": true,
            "sourceTxnHash": "0xefcf7792cc28abfde0a32b6297cde040605a476ec58fd5a595814e7ddae62692",
            "status": true,
            "timestamp": "2017-07-14T14:42:40Z",
            "transactionFee": "0.00007138208",
            "txnHash": "0xefcf7792cc28abfde0a32b6297cde040605a476ec58fd5a595814e7ddae62692",
            "txnIndex": 80,
            "type": 0,
            "value": "0"
        },
        "fund_flow": [],
        "token_infos": [
            {
                "address": "0xc02aaa39b223fe8d0a0e5c4f27ead9083c756cc2",
                "decimals": 18
            },
            {
                "address": "0xeeeeeeeeeeeeeeeeeeeeeeeeeeeeeeeeeeeeeeee",
                "decimals": 18
            }
        ]
    },
    "address_label": {
        "labels": [
            {
                "address": "0x0000000000000000000000000000000000000001",
                "label": "Precompiled"
            },
            {
                "address": "0x0000000000000000000000000000000000000002",
                "label": "Precompiled"
            },
            {
                "address": "0x0000000000000000000000000000000000000003",
                "label": "Precompiled"
            },
            {
                "address": "0x0000000000000000000000000000000000000004",
                "label": "Precompiled"
            },
            {
                "address": "0xeeeeeeeeeeeeeeeeeeeeeeeeeeeeeeeeeeeeeeee",
                "label": "Ether"
            },
            {
                "address": "0x6090a6e47849629b7245dfa1ca21d94cd15878ef",
                "label": "ENS: Old Registrar"
            },
            {
                "address": "0x1dc5e1c00e6c3e50f3f265e253d543f9c01f2d07",
                "label": "Deed"
            }
        ]
    },
    "trace": {
        "accountLabels": null,
        "dataMap": {
            "-1": {
                "invocation": {
                    "address": "0xa7f3659c53820346176f7e0e350780df304db179",
                    "callData": "",
                    "decodedMethod": null,
                    "errorInfo": "",
                    "fromAddress": "",
                    "gasUsed": 0,
                    "id": -1,
                    "methodDecoded": false,
                    "operation": "",
                    "output": "",
                    "revert": false,
                    "revertMessage": "",
                    "selector": "",
                    "status": false,
                    "value": ""
                },
                "nodeType": 0
            },
            "0": {
                "invocation": {
                    "address": "0x6090a6e47849629b7245dfa1ca21d94cd15878ef",
                    "callData": "0xd8e8a100a05c0ca6b4866710ff95f737e71fab7584231412bf89500b03f1fd8d0000000000000000000000000000000000000000000000000e4b4b8af6a700008836a4668b3a980ec2067f369b0484298e3dbb298fba33bf4a23a1523dd0f062",
                    "decodedMethod": {
                        "callParams": [
                            {
                                "name": "_hash",
                                "type": "bytes32",
                                "value": "0xd8e8a100a05c0ca6b4866710ff95f737e71fab7584231412bf89500b03f1fd8d"
                            },
                            {
                                "name": "_value",
                                "type": "uint256",
                                "value": "1,030,000,000,000,000,000"
                            },
                            {
                                "name": "_salt",
                                "type": "bytes32",
                                "value": "0x8836a4668b3a980ec2067f369b0484298e3dbb298fba33bf4a23a1523dd0f062"
                            }
                        ],
                        "constructorArguments": "",
                        "name": "unsealBid",
                        "returnParams": [],
                        "signature": "unsealBid(bytes32,uint256,bytes32)"
                    },
                    "errorInfo": "",
                    "fromAddress": "0xa7f3659c53820346176f7e0e350780df304db179",
                    "gasUsed": 81116,
                    "id": 0,
                    "methodDecoded": true,
                    "operation": "CALL",
                    "output": "",
                    "revert": false,
                    "revertMessage": "",
                    "selector": "0x47872b42",
                    "status": true,
                    "value": "0"
                },
                "nodeType": 0
            },
            "1": {
                "invocation": {
                    "address": "0x1dc5e1c00e6c3e50f3f265e253d543f9c01f2d07",
                    "callData": "0x",
                    "decodedMethod": {
                        "callParams": [],
                        "constructorArguments": "",
                        "name": "value",
                        "returnParams": [
                            {
                                "name": "",
                                "type": "uint256",
                                "value": "1,030,000,000,000,000,000"
                            }
                        ],
                        "signature": "value()"
                    },
                    "errorInfo": "",
                    "fromAddress": "0x6090a6e47849629b7245dfa1ca21d94cd15878ef",
                    "gasUsed": 524,
                    "id": 1,
                    "methodDecoded": true,
                    "operation": "CALL",
                    "output": "0x0000000000000000000000000000000000000000000000000e4b4b8af6a70000",
                    "revert": false,
                    "revertMessage": "",
                    "selector": "0x3fa4f245",
                    "status": true,
                    "value": "0"
                },
                "nodeType": 0
            },
            "2": {
                "invocation": {
                    "address": "0x1dc5e1c00e6c3e50f3f265e253d543f9c01f2d07",
                    "callData": "0x0000000000000000000000000000000000000000000000000e4b4b8af6a700000000000000000000000000000000000000000000000000000000000000000001",
                    "decodedMethod": {
                        "callParams": [
                            {
                                "name": "newValue",
                                "type": "uint256",
                                "value": "1,030,000,000,000,000,000"
                            },
                            {
                                "name": "throwOnFailure",
                                "type": "bool",
                                "value": true
                            }
                        ],
                        "constructorArguments": "",
                        "name": "setBalance",
                        "returnParams": [],
                        "signature": "setBalance(uint256,bool)"
                    },
                    "errorInfo": "",
                    "fromAddress": "0x6090a6e47849629b7245dfa1ca21d94cd15878ef",
                    "gasUsed": 7633,
                    "id": 2,
                    "methodDecoded": true,
                    "operation": "CALL",
                    "output": "",
                    "revert": false,
                    "revertMessage": "",
                    "selector": "0xb0c80972",
                    "status": true,
                    "value": "0"
                },
                "nodeType": 0
            },
            "3": {
                "invocation": {
                    "address": "0xa7f3659c53820346176f7e0e350780df304db179",
                    "callData": "0x",
                    "decodedMethod": null,
                    "errorInfo": "",
                    "fromAddress": "0x1dc5e1c00e6c3e50f3f265e253d543f9c01f2d07",
                    "gasUsed": 0,
                    "id": 3,
                    "methodDecoded": false,
                    "operation": "CALL",
                    "output": "",
                    "revert": false,
                    "revertMessage": "",
                    "selector": "fallback",
                    "status": true,
                    "value": "0"
                },
                "nodeType": 0
            },
            "4": {
                "invocation": {
                    "address": "0x1dc5e1c00e6c3e50f3f265e253d543f9c01f2d07",
                    "callData": "0x",
                    "decodedMethod": {
                        "callParams": [],
                        "constructorArguments": "",
                        "name": "creationDate",
                        "returnParams": [
                            {
                                "name": "",
                                "type": "uint256",
                                "value": "1,499,784,935"
                            }
                        ],
                        "signature": "creationDate()"
                    },
                    "errorInfo": "",
                    "fromAddress": "0x6090a6e47849629b7245dfa1ca21d94cd15878ef",
                    "gasUsed": 436,
                    "id": 4,
                    "methodDecoded": true,
                    "operation": "CALL",
                    "output": "0x000000000000000000000000000000000000000000000000000000005964e6e7",
                    "revert": false,
                    "revertMessage": "",
                    "selector": "0x05b34410",
                    "status": true,
                    "value": "0"
                },
                "nodeType": 0
            },
            "5": {
                "event": {
                    "contract": "0x6090a6e47849629b7245dfa1ca21d94cd15878ef",
                    "decodedLog": {
                        "name": "BidRevealed",
                        "params": [
                            {
                                "name": "hash",
                                "type": "bytes32",
                                "value": "0xd8e8a100a05c0ca6b4866710ff95f737e71fab7584231412bf89500b03f1fd8d"
                            },
                            {
                                "name": "owner",
                                "type": "address",
                                "value": "0xa7f3659c53820346176f7e0e350780df304db179"
                            },
                            {
                                "name": "value",
                                "type": "uint256",
                                "value": "1,030,000,000,000,000,000"
                            },
                            {
                                "name": "status",
                                "type": "uint8",
                                "value": "2"
                            }
                        ],
                        "signature": "BidRevealed(bytes32,address,uint256,uint8)"
                    },
                    "id": 5,
                    "logData": "0x0000000000000000000000000000000000000000000000000e4b4b8af6a700000000000000000000000000000000000000000000000000000000000000000002",
                    "logDecoded": true,
                    "operation": "EVENT",
                    "revert": false,
                    "status": true,
                    "topics": [
                        "0x7b6c4b278d165a6b33958f8ea5dfb00c8c9d4d0acf1985bef5d10786898bc3e7",
                        "0xd8e8a100a05c0ca6b4866710ff95f737e71fab7584231412bf89500b03f1fd8d",
                        "0x000000000000000000000000a7f3659c53820346176f7e0e350780df304db179"
                    ]
                },
                "nodeType": 1
            }
        },
        "gasFlame": [
            {
                "children": [
                    {
                        "children": [
                            {
                                "children": [],
                                "depth": 0,
                                "name": "Initial Gas",
                                "value": 26072
                            },
                            {
                                "children": [
                                    {
                                        "children": [],
                                        "depth": 1,
                                        "name": "value",
                                        "value": 524
                                    },
                                    {
                                        "children": [
                                            {
                                                "children": [],
                                                "depth": 2,
                                                "name": "fallback",
                                                "value": 0
                                            }
                                        ],
                                        "depth": 1,
                                        "name": "setBalance",
                                        "value": 7633
                                    },
                                    {
                                        "children": [],
                                        "depth": 1,
                                        "name": "creationDate",
                                        "value": 436
                                    }
                                ],
                                "depth": 0,
                                "name": "Executed Gas",
                                "value": 70044
                            }
                        ],
                        "depth": -1,
                        "name": "Actual Gas Used",
                        "value": 81116
                    },
                    {
                        "children": [],
                        "depth": -1,
                        "name": "Refunded Gas",
                        "value": 15000
                    }
                ],
                "depth": -2,
                "name": "Total Gas",
                "value": 96116
            }
        ],
        "isConfirmed": true,
        "mainTrace": [
            {
                "children": [
                    {
                        "children": [
                            {
                                "children": [],
                                "depth": 1,
                                "id": 1,
                                "order": 1
                            },
                            {
                                "children": [
                                    {
                                        "children": [],
                                        "depth": 2,
                                        "id": 3,
                                        "order": 3
                                    }
                                ],
                                "depth": 1,
                                "id": 2,
                                "order": 2
                            },
                            {
                                "children": [],
                                "depth": 1,
                                "id": 4,
                                "order": 4
                            },
                            {
                                "children": [],
                                "depth": 1,
                                "id": 5,
                                "order": 5
                            }
                        ],
                        "depth": 0,
                        "id": 0,
                        "order": 0
                    }
                ],
                "depth": -1,
                "id": -1,
                "order": -1
            }
        ],
        "mainTraceNodeCount": 6,
        "parentIdMap": {
            "0": -1,
            "1": 0,
            "2": 0,
            "3": 2,
            "4": 0,
            "5": 0
        },
        "tidyTrace": [
            {
                "children": [
                    {
                        "children": [
                            {
                                "children": [],
                                "depth": 1,
                                "id": 1,
                                "order": 1
                            },
                            {
                                "children": [
                                    {
                                        "children": [],
                                        "depth": 2,
                                        "id": 3,
                                        "order": 3
                                    }
                                ],
                                "depth": 1,
                                "id": 2,
                                "order": 2
                            },
                            {
                                "children": [],
                                "depth": 1,
                                "id": 4,
                                "order": 4
                            },
                            {
                                "children": [],
                                "depth": 1,
                                "id": 5,
                                "order": 5
                            }
                        ],
                        "depth": 0,
                        "id": 0,
                        "order": 0
                    }
                ],
                "depth": -1,
                "id": -1,
                "order": -1
            }
        ],
        "tidyTraceNodeCount": 6
    },
    "state_change": {
        "stateChanges": [
            {
                "address": "0x6090a6e47849629b7245dfa1ca21d94cd15878ef",
                "erc": "",
                "slots": [
                    {
                        "current": "0x0000000000000000000000000000000000000000000000000000000000000000",
                        "key": "0x828f6ce4242b15b68f3f02c55a6b40816a043e2d9d1f139c402641b0528e85b4",
                        "prev": "0x0000000000000000000000001dc5e1c00e6c3e50f3f265e253d543f9c01f2d07"
                    },
                    {
                        "current": "0x0000000000000000000000000000000000000000000000000e4b4b8af6a70000",
                        "key": "0x7e5866679046d1eb4bb67c2244575a6aca22ddf06d49eb5d7fd49d269c0893b9",
                        "prev": "0x0000000000000000000000000000000000000000000000000000000000000000"
                    },
                    {
                        "current": "0x0000000000000000000000001dc5e1c00e6c3e50f3f265e253d543f9c01f2d07",
                        "key": "0x7e5866679046d1eb4bb67c2244575a6aca22ddf06d49eb5d7fd49d269c0893b6",
                        "prev": "0x0000000000000000000000000000000000000000000000000000000000000000"
                    }
                ],
                "storageVariables": []
            }
        ]
    }
}