{
    "balance_change": {
        "balanceChanges": [
            {
                "account": "0x0000000000000000000000000000000000000000",
                "assets": [
                    {
                        "address": "0x4b396f08cda12a9f6c0cd9cbab6bdfa06585077b",
                        "amount": "1",
                        "iconUrl": "",
                        "isERC1155": false,
                        "isERC721": true,
                        "sign": false,
                        "tokenID": "1689",
                        "value": ""
                    }
                ]
            },
            {
                "account": "0x38802a1c483c03bc5f7f8bfe7d789c8f8cde71c0",
                "assets": [
                    {
                        "address": "0x4b396f08cda12a9f6c0cd9cbab6bdfa06585077b",
                        "amount": "1",
                        "iconUrl": "",
                        "isERC1155": false,
                        "isERC721": true,
                        "sign": true,
                        "tokenID": "1689",
                        "value": ""
                    }
                ]
            }
        ]
    },
    "profile": {
        "basic_info": {
            "baseFee": "3.362135627",
            "blockNumber": 15255091,
            "callData": "0x7a5a8e7e00000000000000000000000038802a1c483c03bc5f7f8bfe7d789c8f8cde71c00000000000000000000000000000000000000000000000000000000000000001000000000000000000000000eeeeeeeeeeeeeeeeeeeeeeeeeeeeeeeeeeeeeeee000000000000000000000000000000000000000000000000000000000000000000000000000000000000000000000000000000000000000000000000000000c0000000000000000000000000000000000000000000000000000000000000000000000000000000000000000000000000000000000000000000000000000000010000000000000000000000000000000000000000000000000000000000000000",
            "debugEnable": true,
            "errorInfo": "",
            "eventCount": 2,
            "feeRecipient": "0x1ad91ee08f21be3de0ba2ba6918e714da6b45836",
            "formatValue": "0",
            "gasLimit": 339016,
            "gasPrice": "4.862135627",
            "gasUsed": 244591,
            "intTxnCount": 1,
            "internalRevert": false,
            "internalRevertMessage": "",
            "isContractCreation": false,
            "isFlashloan": false,
            "maxFee": "17.878121649",
            "nonce": 19,
            "overwritedBlockNumber": -1,
            "priorityFee": "1.5",
            "receiver": "0x4b396f08cda12a9f6c0cd9cbab6bdfa06585077b",
            "revertMessage": "",
            "sender": "0xd536fd5e5682f097ddd47e317f5e7430ade351e0",
            "simulationEnable": true,
            "sourceTxnHash": "0xf09459f940d98dadf16dc80ed26ad26b718d977324e209ae3d85c4e1d7eecceb",
            "status": true,
            "timestamp": "2022-08-01T06:46:08Z",
            "transactionFee": "0.001189234615143557",
            "txnHash": "0xf09459f940d98dadf16dc80ed26ad26b718d977324e209ae3d85c4e1d7eecceb",
            "txnIndex": 170,
            "type": 2,
            "value": "0"
        },
        "fund_flow": [
            {
                "amount": "1",
                "from": "0x0000000000000000000000000000000000000000",
                "id": 1,
                "isERC1155": false,
                "isERC721": true,
                "isReverted": false,
                "order": 1,
                "to": "0x38802a1c483c03bc5f7f8bfe7d789c8f8cde71c0",
                "token": "0x4b396f08cda12a9f6c0cd9cbab6bdfa06585077b",
                "tokenID": "1689"
            }
        ],
        "token_infos": [
            {
                "address": "0xc02aaa39b223fe8d0a0e5c4f27ead9083c756cc2",
                "decimals": 18
            },
            {
                "address": "0xeeeeeeeeeeeeeeeeeeeeeeeeeeeeeeeeeeeeeeee",
                "decimals": 18
            }
        ]
    },
    "address_label": {
        "labels": [
            {
                "address": "0xeeeeeeeeeeeeeeeeeeeeeeeeeeeeeeeeeeeeeeee",
                "label": "Ether"
            },
            {
                "address": "0xf86de7d2d982948e5179c39e5ff1b91434eb9f96",
                "label": "DropERC721"
            },
            {
                "address": "0x0000000000000000000000000000000000000001",
                "label": "Precompiled"
            },
            {
                "address": "0x0000000000000000000000000000000000000002",
                "label": "Precompiled"
            },
            {
                "address": "0x0000000000000000000000000000000000000003",
                "label": "Precompiled"
            },
            {
                "address": "0x0000000000000000000000000000000000000004",
                "label": "Precompiled"
            }
        ]
    },
    "trace": {
        "accountLabels": null,
        "dataMap": {
            "-1": {
                "invocation": {
                    "address": "0xd536fd5e5682f097ddd47e317f5e7430ade351e0",
                    "callData": "",
                    "decodedMethod": null,
                    "errorInfo": "",
                    "fromAddress": "",
                    "gasUsed": 0,
                    "id": -1,
                    "methodDecoded": false,
                    "operation": "",
                    "output": "",
                    "revert": false,
                    "revertMessage": "",
                    "selector": "",
                    "status": false,
                    "value": ""
                },
                "nodeType": 0
            },
            "0": {
                "invocation": {
                    "address": "0x4b396f08cda12a9f6c0cd9cbab6bdfa06585077b",
                    "callData": "0x00000000000000000000000038802a1c483c03bc5f7f8bfe7d789c8f8cde71c00000000000000000000000000000000000000000000000000000000000000001000000000000000000000000eeeeeeeeeeeeeeeeeeeeeeeeeeeeeeeeeeeeeeee000000000000000000000000000000000000000000000000000000000000000000000000000000000000000000000000000000000000000000000000000000c0000000000000000000000000000000000000000000000000000000000000000000000000000000000000000000000000000000000000000000000000000000010000000000000000000000000000000000000000000000000000000000000000",
                    "decodedMethod": {
                        "callParams": [
                            {
                                "name": "_receiver",
                                "type": "address",
                                "value": "0x38802a1c483c03bc5f7f8bfe7d789c8f8cde71c0"
                            },
                            {
                                "name": "_quantity",
                                "type": "uint256",
                                "value": "1"
                            },
                            {
                                "name": "_currency",
                                "type": "address",
                                "value": "0xeeeeeeeeeeeeeeeeeeeeeeeeeeeeeeeeeeeeeeee"
                            },
                            {
                                "name": "_pricePerToken",
                                "type": "uint256",
                                "value": "0"
                            },
                            {
                                "name": "_proofs",
                                "type": "bytes32[]",
                                "value": [
                                    "0x0000000000000000000000000000000000000000000000000000000000000000"
                                ]
                            },
                            {
                                "name": "_proofMaxQuantityPerTransaction",
                                "type": "uint256",
                                "value": "0"
                            }
                        ],
                        "constructorArguments": "",
                        "name": "claim",
                        "returnParams": [],
                        "signature": "claim(address,uint256,address,uint256,bytes32[],uint256)"
                    },
                    "errorInfo": "",
                    "fromAddress": "0xd536fd5e5682f097ddd47e317f5e7430ade351e0",
                    "gasUsed": 244591,
                    "id": 0,
                    "methodDecoded": true,
                    "operation": "CALL",
                    "output": "",
                    "revert": false,
                    "revertMessage": "",
                    "selector": "0x7a5a8e7e",
                    "status": true,
                    "value": "0"
                },
                "nodeType": 0
            },
            "1": {
                "invocation": {
                    "address": "0xf86de7d2d982948e5179c39e5ff1b91434eb9f96",
                    "callData": "0x00000000000000000000000038802a1c483c03bc5f7f8bfe7d789c8f8cde71c00000000000000000000000000000000000000000000000000000000000000001000000000000000000000000eeeeeeeeeeeeeeeeeeeeeeeeeeeeeeeeeeeeeeee000000000000000000000000000000000000000000000000000000000000000000000000000000000000000000000000000000000000000000000000000000c0000000000000000000000000000000000000000000000000000000000000000000000000000000000000000000000000000000000000000000000000000000010000000000000000000000000000000000000000000000000000000000000000",
                    "decodedMethod": {
                        "callParams": [
                            {
                                "name": "_receiver",
                                "type": "address",
                                "value": "0x38802a1c483c03bc5f7f8bfe7d789c8f8cde71c0"
                            },
                            {
                                "name": "_quantity",
                                "type": "uint256",
                                "value": "1"
                            },
                            {
                                "name": "_currency",
                                "type": "address",
                                "value": "0xeeeeeeeeeeeeeeeeeeeeeeeeeeeeeeeeeeeeeeee"
                            },
                            {
                                "name": "_pricePerToken",
                                "type": "uint256",
                                "value": "0"
                            },
                            {
                                "name": "_proofs",
                                "type": "bytes32[]",
                                "value": [
                                    "0x0000000000000000000000000000000000000000000000000000000000000000"
                                ]
                            },
                            {
                                "name": "_proofMaxQuantityPerTransaction",
                                "type": "uint256",
                                "value": "0"
                            }
                        ],
                        "constructorArguments": "",
                        "name": "claim",
                        "returnParams": [],
                        "signature": "claim(address,uint256,address,uint256,bytes32[],uint256)"
                    },
                    "errorInfo": "",
                    "fromAddress": "0x4b396f08cda12a9f6c0cd9cbab6bdfa06585077b",
                    "gasUsed": 222076,
                    "id": 1,
                    "methodDecoded": true,
                    "operation": "DELEGATECALL",
                    "output": "",
                    "revert": false,
                    "revertMessage": "",
                    "selector": "0x7a5a8e7e",
                    "status": true,
                    "value": "0"
                },
                "nodeType": 0
            },
            "2": {
                "event": {
                    "contract": "0x4b396f08cda12a9f6c0cd9cbab6bdfa06585077b",
                    "decodedLog": {
                        "name": "Transfer",
                        "params": [
                            {
                                "name": "from",
                                "type": "address",
                                "value": "0x0000000000000000000000000000000000000000"
                            },
                            {
                                "name": "to",
                                "type": "address",
                                "value": "0x38802a1c483c03bc5f7f8bfe7d789c8f8cde71c0"
                            },
                            {
                                "decimalAvailable": true,
                                "name": "tokenId",
                                "type": "uint256",
                                "value": "1,689"
                            }
                        ],
                        "signature": "Transfer(address,address,uint256)"
                    },
                    "id": 2,
                    "logData": "0x",
                    "logDecoded": true,
                    "operation": "EVENT",
                    "revert": false,
                    "status": true,
                    "topics": [
                        "0xddf252ad1be2c89b69c2b068fc378daa952ba7f163c4a11628f55a4df523b3ef",
                        "0x0000000000000000000000000000000000000000000000000000000000000000",
                        "0x00000000000000000000000038802a1c483c03bc5f7f8bfe7d789c8f8cde71c0",
                        "0x0000000000000000000000000000000000000000000000000000000000000699"
                    ]
                },
                "nodeType": 1
            },
            "3": {
                "event": {
                    "contract": "0x4b396f08cda12a9f6c0cd9cbab6bdfa06585077b",
                    "decodedLog": {
                        "name": "TokensClaimed",
                        "params": [
                            {
                                "name": "claimConditionIndex",
                                "type": "uint256",
                                "value": "5"
                            },
                            {
                                "name": "claimer",
                                "type": "address",
                                "value": "0xd536fd5e5682f097ddd47e317f5e7430ade351e0"
                            },
                            {
                                "name": "receiver",
                                "type": "address",
                                "value": "0x38802a1c483c03bc5f7f8bfe7d789c8f8cde71c0"
                            },
                            {
                                "name": "startTokenId",
                                "type": "uint256",
                                "value": "1,689"
                            },
                            {
                                "name": "quantityClaimed",
                                "type": "uint256",
                                "value": "1"
                            }
                        ],
                        "signature": "TokensClaimed(uint256,address,address,uint256,uint256)"
                    },
                    "id": 3,
                    "logData": "0x00000000000000000000000000000000000000000000000000000000000006990000000000000000000000000000000000000000000000000000000000000001",
                    "logDecoded": true,
                    "operation": "EVENT",
                    "revert": false,
                    "status": true,
                    "topics": [
                        "0xfa76a4010d9533e3e964f2930a65fb6042a12fa6ff5b08281837a10b0be7321e",
                        "0x0000000000000000000000000000000000000000000000000000000000000005",
                        "0x000000000000000000000000d536fd5e5682f097ddd47e317f5e7430ade351e0",
                        "0x00000000000000000000000038802a1c483c03bc5f7f8bfe7d789c8f8cde71c0"
                    ]
                },
                "nodeType": 1
            }
        },
        "gasFlame": [
            {
                "children": [
                    {
                        "children": [
                            {
                                "children": [],
                                "depth": 0,
                                "name": "Initial Gas",
                                "value": 22604
                            },
                            {
                                "children": [
                                    {
                                        "children": [],
                                        "depth": 1,
                                        "name": "claim",
                                        "value": 222076
                                    }
                                ],
                                "depth": 0,
                                "name": "Executed Gas",
                                "value": 224787
                            }
                        ],
                        "depth": -1,
                        "name": "Actual Gas Used",
                        "value": 244591
                    },
                    {
                        "children": [],
                        "depth": -1,
                        "name": "Refunded Gas",
                        "value": 2800
                    }
                ],
                "depth": -2,
                "name": "Total Gas",
                "value": 247391
            }
        ],
        "isConfirmed": true,
        "mainTrace": [
            {
                "children": [
                    {
                        "children": [
                            {
                                "children": [
                                    {
                                        "children": [],
                                        "depth": 2,
                                        "id": 2,
                                        "order": 2
                                    },
                                    {
                                        "children": [],
                                        "depth": 2,
                                        "id": 3,
                                        "order": 3
                                    }
                                ],
                                "depth": 1,
                                "id": 1,
                                "order": 1
                            }
                        ],
                        "depth": 0,
                        "id": 0,
                        "order": 0
                    }
                ],
                "depth": -1,
                "id": -1,
                "order": -1
            }
        ],
        "mainTraceNodeCount": 4,
        "parentIdMap": {
            "0": -1,
            "1": 0,
            "2": 1,
            "3": 1
        },
        "tidyTrace": [
            {
                "children": [
                    {
                        "children": [
                            {
                                "children": [
                                    {
                                        "children": [],
                                        "depth": 2,
                                        "id": 2,
                                        "order": 2
                                    },
                                    {
                                        "children": [],
                                        "depth": 2,
                                        "id": 3,
                                        "order": 3
                                    }
                                ],
                                "depth": 1,
                                "id": 1,
                                "order": 1
                            }
                        ],
                        "depth": 0,
                        "id": 0,
                        "order": 0
                    }
                ],
                "depth": -1,
                "id": -1,
                "order": -1
            }
        ],
        "tidyTraceNodeCount": 4
    },
    "state_change": {
        "stateChanges": [
            {
                "address": "0x4b396f08cda12a9f6c0cd9cbab6bdfa06585077b",
                "erc": "ERC-721",
                "slots": [
                    {
                        "current": "0x000000000000000000000000000000000000000000000000000000000000069a",
                        "key": "0x0000000000000000000000000000000000000000000000000000000000000193",
                        "prev": "0x0000000000000000000000000000000000000000000000000000000000000699"
                    },
                    {
                        "current": "0x000000000000000000000000000000000000000000000000000000000000069a",
                        "key": "0x00000000000000000000000000000000000000000000000000000000000001c5",
                        "prev": "0x0000000000000000000000000000000000000000000000000000000000000699"
                    },
                    {
                        "current": "0x0000000000000000000000000000000000000000000000000000000000000699",
                        "key": "0xfc8af01f449989052b52093a58fc9f42d0b11f0c6dd5dca0463dab62346cd301",
                        "prev": "0x0000000000000000000000000000000000000000000000000000000000000000"
                    },
                    {
                        "current": "0x00000000000000000000000000000000000000000000000000000000000000b8",
                        "key": "0x840a06ed78c229bd88c08be51e7d5c2562d1fb34335fe7b7bfc748603dbee15d",
                        "prev": "0x00000000000000000000000000000000000000000000000000000000000000b7"
                    },
                    {
                        "current": "0x0000000000000000000000000000000000000000000000000000000000000001",
                        "key": "0x3d24c178d0297153c85578d9bfe3be30ca2eaa118e3141bcea39d9c5b6228370",
                        "prev": "0x0000000000000000000000000000000000000000000000000000000000000000"
                    },
                    {
                        "current": "0x0000000000000000000000000000000000000000000000000000000062e776b0",
                        "key": "0x8d6d148fe8b5cb66b173576847dc5edf4bb630b50e71e48ce40b526411ea88b1",
                        "prev": "0x0000000000000000000000000000000000000000000000000000000000000000"
                    },
                    {
                        "current": "0x0000000000000000000000000000000000000000000000000000000000000699",
                        "key": "0xc8a34ad8d2d0a0f3108f2356d00c689d03bad0c22f79ba699618d726023f879a",
                        "prev": "0x0000000000000000000000000000000000000000000000000000000000000000"
                    },
                    {
                        "current": "0x000000000000000000000000000000000000000000000000000000000000000d",
                        "key": "0xe310f8097b6e757c85259d2be6647e94c62512d2675edac580b62674b00a9190",
                        "prev": "0x000000000000000000000000000000000000000000000000000000000000000c"
                    },
                    {
                        "current": "0x0000000000000000000000000000000000000000000000000000000000000699",
                        "key": "0x6eb0c55bdd360b24e0e6ff9a31483ccffe1dc2fb935d011f89f047bbc01d0b21",
                        "prev": "0x0000000000000000000000000000000000000000000000000000000000000000"
                    },
                    {
                        "current": "0x000000000000000000000000000000000000000000000000000000000000000c",
                        "key": "0x77b2f7be564ffc3e2ecc673b5290a01013a9fe6b7d1eb20982392294dd0f9e7e",
                        "prev": "0x0000000000000000000000000000000000000000000000000000000000000000"
                    },
                    {
                        "current": "0x00000000000000000000000038802a1c483c03bc5f7f8bfe7d789c8f8cde71c0",
                        "key": "0x6040973bdb55d38222b2ef1ef89469a68216ea5d03ca58a0d7dd50751ff6a0d3",
                        "prev": "0x0000000000000000000000000000000000000000000000000000000000000000"
                    }
                ],
                "storageVariables": [
                    {
                        "name": "_owners",
                        "type": "mapping(uint256 => address)",
                        "value": {
                            "pairs": [
                                {
                                    "key": "1689",
                                    "value": {
                                        "current": "0x38802a1c483c03bc5f7f8bfe7d789c8f8cde71c0",
                                        "prev": "0x0000000000000000000000000000000000000000",
                                        "typeTag": 1
                                    }
                                }
                            ],
                            "typeTag": 4
                        }
                    },
                    {
                        "name": "_allTokens",
                        "type": "uint256[]",
                        "value": {
                            "elemType": "uint256",
                            "elems": [
                                {
                                    "index": 1689,
                                    "value": {
                                        "current": "1689",
                                        "prev": "0",
                                        "typeTag": 1
                                    }
                                }
                            ],
                            "typeTag": 2
                        }
                    },
                    {
                        "name": "nextTokenIdToClaim",
                        "type": "uint256",
                        "value": {
                            "current": "1690",
                            "prev": "1689",
                            "typeTag": 1
                        }
                    },
                    {
                        "name": "_balances",
                        "type": "mapping(address => uint256)",
                        "value": {
                            "pairs": [
                                {
                                    "key": "0x38802a1c483c03bc5f7f8bfe7d789c8f8cde71c0",
                                    "value": {
                                        "current": "13",
                                        "prev": "12",
                                        "typeTag": 1
                                    }
                                }
                            ],
                            "typeTag": 4
                        }
                    },
                    {
                        "name": "_ownedTokens",
                        "type": "mapping(address => mapping(uint256 => uint256))",
                        "value": {
                            "pairs": [
                                {
                                    "key": "0x38802a1c483c03bc5f7f8bfe7d789c8f8cde71c0",
                                    "value": {
                                        "pairs": [
                                            {
                                                "key": "12",
                                                "value": {
                                                    "current": "1689",
                                                    "prev": "0",
                                                    "typeTag": 1
                                                }
                                            }
                                        ],
                                        "typeTag": 4
                                    }
                                }
                            ],
                            "typeTag": 4
                        }
                    },
                    {
                        "name": "walletClaimCount",
                        "type": "mapping(address => uint256)",
                        "value": {
                            "pairs": [
                                {
                                    "key": "0xd536fd5e5682f097ddd47e317f5e7430ade351e0",
                                    "value": {
                                        "current": "1",
                                        "prev": "0",
                                        "typeTag": 1
                                    }
                                }
                            ],
                            "typeTag": 4
                        }
                    },
                    {
                        "name": "_allTokensIndex",
                        "type": "mapping(uint256 => uint256)",
                        "value": {
                            "pairs": [
                                {
                                    "key": "1689",
                                    "value": {
                                        "current": "1689",
                                        "prev": "0",
                                        "typeTag": 1
                                    }
                                }
                            ],
                            "typeTag": 4
                        }
                    },
                    {
                        "name": "_ownedTokensIndex",
                        "type": "mapping(uint256 => uint256)",
                        "value": {
                            "pairs": [
                                {
                                    "key": "1689",
                                    "value": {
                                        "current": "12",
                                        "prev": "0",
                                        "typeTag": 1
                                    }
                                }
                            ],
                            "typeTag": 4
                        }
                    }
                ]
            }
        ]
    }
}