{
    "balance_change": {
        "balanceChanges": []
    },
    "profile": {
        "basic_info": {
            "baseFee": "18.350167253",
            "blockNumber": 17428392,
            "callData": "0x095ea7b3000000000000000000000000b66f07d7bf1f048ea0600b3e6eb480eda951392a00000000000000000000000000000000000000000000004a5d9856b532a85a36",
            "debugEnable": true,
            "errorInfo": "",
            "eventCount": 1,
            "feeRecipient": "0x690b9a9e9aa1c9db991c7721a92d351db4fac990",
            "formatValue": "0",
            "gasLimit": 46970,
            "gasPrice": "18.489019085",
            "gasUsed": 46970,
            "intTxnCount": 0,
            "internalRevert": false,
            "internalRevertMessage": "",
            "isContractCreation": false,
            "isFlashloan": false,
            "maxFee": "26.755645161",
            "nonce": 137,
            "overwritedBlockNumber": -1,
            "priorityFee": "0.138851832",
            "receiver": "0xb22c05cedbf879a661fcc566b5a759d005cf7b4c",
            "revertMessage": "",
            "sender": "0x1fd5742d0e8b67d54c191ad76958e5c2495c3d4a",
            "simulationEnable": true,
            "sourceTxnHash": "0xf018224254416f7b1e8052e66d37713cd3107a5e4146eae49036d4cb207f6f04",
            "status": true,
            "timestamp": "2023-06-07T12:07:11Z",
            "transactionFee": "0.00086842922642245",
            "txnHash": "0xf018224254416f7b1e8052e66d37713cd3107a5e4146eae49036d4cb207f6f04",
            "txnIndex": 137,
            "type": 2,
            "value": "0"
        },
        "fund_flow": [],
        "token_infos": [
            {
                "address": "0xc02aaa39b223fe8d0a0e5c4f27ead9083c756cc2",
                "decimals": 18
            },
            {
                "address": "0xeeeeeeeeeeeeeeeeeeeeeeeeeeeeeeeeeeeeeeee",
                "decimals": 18
            }
        ]
    },
    "address_label": {
        "labels": [
            {
                "address": "0x0000000000000000000000000000000000000003",
                "label": "Precompiled"
            },
            {
                "address": "0x0000000000000000000000000000000000000004",
                "label": "Precompiled"
            },
            {
                "address": "0xeeeeeeeeeeeeeeeeeeeeeeeeeeeeeeeeeeeeeeee",
                "label": "Ether"
            },
            {
                "address": "0xb66f07d7bf1f048ea0600b3e6eb480eda951392a",
                "label": "Faith (FAITH)"
            },
            {
                "address": "0xb22c05cedbf879a661fcc566b5a759d005cf7b4c",
                "label": "Love (LOVE)"
            },
            {
                "address": "0x0000000000000000000000000000000000000001",
                "label": "Precompiled"
            },
            {
                "address": "0x0000000000000000000000000000000000000002",
                "label": "Precompiled"
            }
        ]
    },
    "trace": {
        "accountLabels": null,
        "dataMap": {
            "-1": {
                "invocation": {
                    "address": "0x1fd5742d0e8b67d54c191ad76958e5c2495c3d4a",
                    "callData": "",
                    "decodedMethod": null,
                    "errorInfo": "",
                    "fromAddress": "",
                    "gasUsed": 0,
                    "id": -1,
                    "methodDecoded": false,
                    "operation": "",
                    "output": "",
                    "revert": false,
                    "revertMessage": "",
                    "selector": "",
                    "status": false,
                    "value": ""
                },
                "nodeType": 0
            },
            "0": {
                "invocation": {
                    "address": "0xb22c05cedbf879a661fcc566b5a759d005cf7b4c",
                    "callData": "0x000000000000000000000000b66f07d7bf1f048ea0600b3e6eb480eda951392a00000000000000000000000000000000000000000000004a5d9856b532a85a36",
                    "decodedMethod": {
                        "callParams": [
                            {
                                "name": "spender",
                                "type": "address",
                                "value": "0xb66f07d7bf1f048ea0600b3e6eb480eda951392a"
                            },
                            {
                                "decimalAvailable": true,
                                "name": "amount",
                                "type": "uint256",
                                "value": "1,371,803,297,232,733,100,598"
                            }
                        ],
                        "constructorArguments": "",
                        "name": "approve",
                        "returnParams": [
                            {
                                "name": "",
                                "type": "bool",
                                "value": true
                            }
                        ],
                        "signature": "approve(address,uint256)"
                    },
                    "errorInfo": "",
                    "fromAddress": "0x1fd5742d0e8b67d54c191ad76958e5c2495c3d4a",
                    "gasUsed": 46970,
                    "id": 0,
                    "methodDecoded": true,
                    "operation": "CALL",
                    "output": "0x0000000000000000000000000000000000000000000000000000000000000001",
                    "revert": false,
                    "revertMessage": "",
                    "selector": "0x095ea7b3",
                    "status": true,
                    "value": "0"
                },
                "nodeType": 0
            },
            "1": {
                "event": {
                    "contract": "0xb22c05cedbf879a661fcc566b5a759d005cf7b4c",
                    "decodedLog": {
                        "name": "Approval",
                        "params": [
                            {
                                "name": "owner",
                                "type": "address",
                                "value": "0x1fd5742d0e8b67d54c191ad76958e5c2495c3d4a"
                            },
                            {
                                "name": "spender",
                                "type": "address",
                                "value": "0xb66f07d7bf1f048ea0600b3e6eb480eda951392a"
                            },
                            {
                                "decimalAvailable": true,
                                "name": "value",
                                "type": "uint256",
                                "value": "1,371,803,297,232,733,100,598"
                            }
                        ],
                        "signature": "Approval(address,address,uint256)"
                    },
                    "id": 1,
                    "logData": "0x00000000000000000000000000000000000000000000004a5d9856b532a85a36",
                    "logDecoded": true,
                    "operation": "EVENT",
                    "revert": false,
                    "status": true,
                    "topics": [
                        "0x8c5be1e5ebec7d5bd14f71427d1e84f3dd0314c0f7b2291e5b200ac8c7c3b925",
                        "0x0000000000000000000000001fd5742d0e8b67d54c191ad76958e5c2495c3d4a",
                        "0x000000000000000000000000b66f07d7bf1f048ea0600b3e6eb480eda951392a"
                    ]
                },
                "nodeType": 1
            }
        },
        "gasFlame": [
            {
                "children": [
                    {
                        "children": [
                            {
                                "children": [],
                                "depth": 0,
                                "name": "Initial Gas",
                                "value": 21668
                            },
                            {
                                "children": [],
                                "depth": 0,
                                "name": "Executed Gas",
                                "value": 25302
                            }
                        ],
                        "depth": -1,
                        "name": "Actual Gas Used",
                        "value": 46970
                    },
                    {
                        "children": [],
                        "depth": -1,
                        "name": "Refunded Gas",
                        "value": 0
                    }
                ],
                "depth": -2,
                "name": "Total Gas",
                "value": 46970
            }
        ],
        "isConfirmed": true,
        "mainTrace": [
            {
                "children": [
                    {
                        "children": [
                            {
                                "children": [],
                                "depth": 1,
                                "id": 1,
                                "order": 1
                            }
                        ],
                        "depth": 0,
                        "id": 0,
                        "order": 0
                    }
                ],
                "depth": -1,
                "id": -1,
                "order": -1
            }
        ],
        "mainTraceNodeCount": 2,
        "parentIdMap": {
            "0": -1,
            "1": 0
        },
        "tidyTrace": [
            {
                "children": [
                    {
                        "children": [
                            {
                                "children": [],
                                "depth": 1,
                                "id": 1,
                                "order": 1
                            }
                        ],
                        "depth": 0,
                        "id": 0,
                        "order": 0
                    }
                ],
                "depth": -1,
                "id": -1,
                "order": -1
            }
        ],
        "tidyTraceNodeCount": 2
    },
    "state_change": {
        "stateChanges": [
            {
                "address": "0xb22c05cedbf879a661fcc566b5a759d005cf7b4c",
                "erc": "ERC-20",
                "slots": [
                    {
                        "current": "0x00000000000000000000000000000000000000000000004a5d9856b532a85a36",
                        "key": "0x73638d3b60060bd07b6e943d76ecb8ac496659cca42fa6e4630520872e7d37ce",
                        "prev": "0x0000000000000000000000000000000000000000000000000000000000000000"
                    }
                ],
                "storageVariables": [
                    {
                        "name": "_allowances",
                        "type": "mapping(address => mapping(address => uint256))",
                        "value": {
                            "pairs": [
                                {
                                    "key": "0x1fd5742d0e8b67d54c191ad76958e5c2495c3d4a",
                                    "value": {
                                        "pairs": [
                                            {
                                                "key": "0xb66f07d7bf1f048ea0600b3e6eb480eda951392a",
                                                "value": {
                                                    "current": "1371803297232733100598",
                                                    "prev": "0",
                                                    "typeTag": 1
                                                }
                                            }
                                        ],
                                        "typeTag": 4
                                    }
                                }
                            ],
                            "typeTag": 4
                        }
                    }
                ]
            }
        ]
    }
}