{
    "balance_change": {
        "balanceChanges": [
            {
                "account": "0x8ae339f9a9fddf930cf10d7fcb4abba417cd50fd",
                "assets": [
                    {
                        "address": "0xeeeeeeeeeeeeeeeeeeeeeeeeeeeeeeeeeeeeeeee",
                        "amount": "0.110154764627732432",
                        "iconUrl": "https://assets.blocksec.com/image/1663669189317-3.png",
                        "isERC1155": false,
                        "isERC721": false,
                        "sign": false,
                        "value": "348.09676696952201802"
                    }
                ]
            },
            {
                "account": "0x32400084c286cf3e17e7b677ea9583e60a000324",
                "assets": [
                    {
                        "address": "0xeeeeeeeeeeeeeeeeeeeeeeeeeeeeeeeeeeeeeeee",
                        "amount": "0.110154764627732432",
                        "iconUrl": "https://assets.blocksec.com/image/1663669189317-3.png",
                        "isERC1155": false,
                        "isERC721": false,
                        "sign": true,
                        "value": "348.09676696952201802"
                    }
                ]
            }
        ]
    },
    "profile": {
        "basic_info": {
            "baseFee": "6.35824555",
            "blockNumber": 19699424,
            "callData": "0xeb6724190000000000000000000000008ae339f9a9fddf930cf10d7fcb4abba417cd50fd0000000000000000000000000000000000000000000000000186cc6acd4b000000000000000000000000000000000000000000000000000000000000000000e00000000000000000000000000000000000000000000000000000000000060f97000000000000000000000000000000000000000000000000000000000000032000000000000000000000000000000000000000000000000000000000000001000000000000000000000000008ae339f9a9fddf930cf10d7fcb4abba417cd50fd00000000000000000000000000000000000000000000000000000000000000000000000000000000000000000000000000000000000000000000000000000000",
            "debugEnable": true,
            "errorInfo": "",
            "eventCount": 1,
            "feeRecipient": "0x95222290dd7278aa3ddd389cc1e1d165cc4bafe5",
            "formatValue": "0.110154764627732432",
            "gasLimit": 134886,
            "gasPrice": "7.85824555",
            "gasUsed": 106314,
            "intTxnCount": 1,
            "internalRevert": false,
            "internalRevertMessage": "",
            "isContractCreation": false,
            "isFlashloan": false,
            "maxFee": "11.17057413",
            "nonce": 137,
            "overwritedBlockNumber": -1,
            "priorityFee": "1.5",
            "receiver": "0x32400084c286cf3e17e7b677ea9583e60a000324",
            "revertMessage": "",
            "sender": "0x8ae339f9a9fddf930cf10d7fcb4abba417cd50fd",
            "simulationEnable": true,
            "sourceTxnHash": "0xf056b901018c80cdd51701240365a19e57770e47fa8b96756a6d75d019425e35",
            "status": true,
            "timestamp": "2024-04-20T21:51:35Z",
            "transactionFee": "0.0008354415174027",
            "txnHash": "0xf056b901018c80cdd51701240365a19e57770e47fa8b96756a6d75d019425e35",
            "txnIndex": 76,
            "type": 2,
            "value": "110154764627732432"
        },
        "fund_flow": [
            {
                "amount": "0.110154764627732432",
                "from": "0x8ae339f9a9fddf930cf10d7fcb4abba417cd50fd",
                "id": 1,
                "isERC1155": false,
                "isERC721": false,
                "isReverted": false,
                "order": 1,
                "to": "0x32400084c286cf3e17e7b677ea9583e60a000324",
                "token": "0xeeeeeeeeeeeeeeeeeeeeeeeeeeeeeeeeeeeeeeee"
            }
        ],
        "token_infos": [
            {
                "address": "0xc02aaa39b223fe8d0a0e5c4f27ead9083c756cc2",
                "decimals": 18
            },
            {
                "address": "0xeeeeeeeeeeeeeeeeeeeeeeeeeeeeeeeeeeeeeeee",
                "decimals": 18
            }
        ]
    },
    "address_label": {
        "labels": [
            {
                "address": "0x32400084c286cf3e17e7b677ea9583e60a000324",
                "label": "zkSync Era: Diamond Proxy"
            },
            {
                "address": "0xa57f9ffd65fc0f5792b5e958df42399a114ec7e7",
                "label": "MailboxFacet"
            },
            {
                "address": "0x0000000000000000000000000000000000000001",
                "label": "Precompiled"
            },
            {
                "address": "0x0000000000000000000000000000000000000002",
                "label": "Precompiled"
            },
            {
                "address": "0x0000000000000000000000000000000000000003",
                "label": "Precompiled"
            },
            {
                "address": "0x0000000000000000000000000000000000000004",
                "label": "Precompiled"
            },
            {
                "address": "0xeeeeeeeeeeeeeeeeeeeeeeeeeeeeeeeeeeeeeeee",
                "label": "Ether"
            }
        ]
    },
    "trace": {
        "accountLabels": null,
        "dataMap": {
            "-1": {
                "invocation": {
                    "address": "0x8ae339f9a9fddf930cf10d7fcb4abba417cd50fd",
                    "callData": "",
                    "decodedMethod": null,
                    "errorInfo": "",
                    "fromAddress": "",
                    "gasUsed": 0,
                    "id": -1,
                    "methodDecoded": false,
                    "operation": "",
                    "output": "",
                    "revert": false,
                    "revertMessage": "",
                    "selector": "",
                    "status": false,
                    "value": ""
                },
                "nodeType": 0
            },
            "0": {
                "invocation": {
                    "address": "0x32400084c286cf3e17e7b677ea9583e60a000324",
                    "callData": "0x0000000000000000000000008ae339f9a9fddf930cf10d7fcb4abba417cd50fd0000000000000000000000000000000000000000000000000186cc6acd4b000000000000000000000000000000000000000000000000000000000000000000e00000000000000000000000000000000000000000000000000000000000060f97000000000000000000000000000000000000000000000000000000000000032000000000000000000000000000000000000000000000000000000000000001000000000000000000000000008ae339f9a9fddf930cf10d7fcb4abba417cd50fd00000000000000000000000000000000000000000000000000000000000000000000000000000000000000000000000000000000000000000000000000000000",
                    "decodedMethod": {
                        "callParams": [
                            {
                                "name": "_contractL2",
                                "type": "address",
                                "value": "0x8ae339f9a9fddf930cf10d7fcb4abba417cd50fd"
                            },
                            {
                                "name": "_l2Value",
                                "type": "uint256",
                                "value": "110,000,000,000,000,000"
                            },
                            {
                                "name": "_calldata",
                                "type": "bytes",
                                "value": "0x"
                            },
                            {
                                "name": "_l2GasLimit",
                                "type": "uint256",
                                "value": "397,207"
                            },
                            {
                                "name": "_l2GasPerPubdataByteLimit",
                                "type": "uint256",
                                "value": "800"
                            },
                            {
                                "name": "_factoryDeps",
                                "type": "bytes[]",
                                "value": []
                            },
                            {
                                "name": "_refundRecipient",
                                "type": "address",
                                "value": "0x8ae339f9a9fddf930cf10d7fcb4abba417cd50fd"
                            }
                        ],
                        "constructorArguments": "",
                        "name": "requestL2Transaction",
                        "returnParams": [
                            {
                                "name": "canonicalTxHash",
                                "type": "bytes32",
                                "value": "0x541369933686a7a79ab6e84d9f44977be084e1bdddcee20e288cc66694c8cf67"
                            }
                        ],
                        "signature": "requestL2Transaction(address,uint256,bytes,uint256,uint256,bytes[],address)"
                    },
                    "errorInfo": "",
                    "fromAddress": "0x8ae339f9a9fddf930cf10d7fcb4abba417cd50fd",
                    "gasUsed": 106314,
                    "id": 0,
                    "methodDecoded": true,
                    "operation": "CALL",
                    "output": "0x541369933686a7a79ab6e84d9f44977be084e1bdddcee20e288cc66694c8cf67",
                    "revert": false,
                    "revertMessage": "",
                    "selector": "0xeb672419",
                    "status": true,
                    "value": "0.110154764627732432"
                },
                "nodeType": 0
            },
            "1": {
                "invocation": {
                    "address": "0xa57f9ffd65fc0f5792b5e958df42399a114ec7e7",
                    "callData": "0x0000000000000000000000008ae339f9a9fddf930cf10d7fcb4abba417cd50fd0000000000000000000000000000000000000000000000000186cc6acd4b000000000000000000000000000000000000000000000000000000000000000000e00000000000000000000000000000000000000000000000000000000000060f97000000000000000000000000000000000000000000000000000000000000032000000000000000000000000000000000000000000000000000000000000001000000000000000000000000008ae339f9a9fddf930cf10d7fcb4abba417cd50fd00000000000000000000000000000000000000000000000000000000000000000000000000000000000000000000000000000000000000000000000000000000",
                    "decodedMethod": {
                        "callParams": [
                            {
                                "name": "_contractL2",
                                "type": "address",
                                "value": "0x8ae339f9a9fddf930cf10d7fcb4abba417cd50fd"
                            },
                            {
                                "name": "_l2Value",
                                "type": "uint256",
                                "value": "110,000,000,000,000,000"
                            },
                            {
                                "name": "_calldata",
                                "type": "bytes",
                                "value": "0x"
                            },
                            {
                                "name": "_l2GasLimit",
                                "type": "uint256",
                                "value": "397,207"
                            },
                            {
                                "name": "_l2GasPerPubdataByteLimit",
                                "type": "uint256",
                                "value": "800"
                            },
                            {
                                "name": "_factoryDeps",
                                "type": "bytes[]",
                                "value": []
                            },
                            {
                                "name": "_refundRecipient",
                                "type": "address",
                                "value": "0x8ae339f9a9fddf930cf10d7fcb4abba417cd50fd"
                            }
                        ],
                        "constructorArguments": "",
                        "name": "requestL2Transaction",
                        "returnParams": [
                            {
                                "name": "canonicalTxHash",
                                "type": "bytes32",
                                "value": "0x541369933686a7a79ab6e84d9f44977be084e1bdddcee20e288cc66694c8cf67"
                            }
                        ],
                        "signature": "requestL2Transaction(address,uint256,bytes,uint256,uint256,bytes[],address)"
                    },
                    "errorInfo": "",
                    "fromAddress": "0x32400084c286cf3e17e7b677ea9583e60a000324",
                    "gasUsed": 78900,
                    "id": 1,
                    "methodDecoded": true,
                    "operation": "DELEGATECALL",
                    "output": "0x541369933686a7a79ab6e84d9f44977be084e1bdddcee20e288cc66694c8cf67",
                    "revert": false,
                    "revertMessage": "",
                    "selector": "0xeb672419",
                    "status": true,
                    "value": "0.110154764627732432"
                },
                "nodeType": 0
            },
            "2": {
                "event": {
                    "contract": "0x32400084c286cf3e17e7b677ea9583e60a000324",
                    "decodedLog": {
                        "name": "NewPriorityRequest",
                        "params": [
                            {
                                "name": "txId",
                                "type": "uint256",
                                "value": "3,143,613"
                            },
                            {
                                "name": "txHash",
                                "type": "bytes32",
                                "value": "0x541369933686a7a79ab6e84d9f44977be084e1bdddcee20e288cc66694c8cf67"
                            },
                            {
                                "name": "expirationTimestamp",
                                "type": "uint64",
                                "value": "1,713,649,895"
                            },
                            {
                                "name": "transaction",
                                "type": "(uint256,uint256,uint256,uint256,uint256,uint256,uint256,uint256,uint256,uint256,uint256[4],bytes,bytes,uint256[],bytes,bytes)",
                                "value": [
                                    {
                                        "name": "txType",
                                        "type": "uint256",
                                        "value": "255"
                                    },
                                    {
                                        "name": "from",
                                        "type": "uint256",
                                        "value": "792,908,045,890,321,496,465,785,555,945,217,931,637,555,024,125"
                                    },
                                    {
                                        "name": "to",
                                        "type": "uint256",
                                        "value": "792,908,045,890,321,496,465,785,555,945,217,931,637,555,024,125"
                                    },
                                    {
                                        "name": "gasLimit",
                                        "type": "uint256",
                                        "value": "397,207"
                                    },
                                    {
                                        "name": "gasPerPubdataByteLimit",
                                        "type": "uint256",
                                        "value": "800"
                                    },
                                    {
                                        "name": "maxFeePerGas",
                                        "type": "uint256",
                                        "value": "348,228,069"
                                    },
                                    {
                                        "name": "maxPriorityFeePerGas",
                                        "type": "uint256",
                                        "value": "0"
                                    },
                                    {
                                        "name": "paymaster",
                                        "type": "uint256",
                                        "value": "0"
                                    },
                                    {
                                        "name": "nonce",
                                        "type": "uint256",
                                        "value": "3,143,613"
                                    },
                                    {
                                        "name": "value",
                                        "type": "uint256",
                                        "value": "110,000,000,000,000,000"
                                    },
                                    {
                                        "name": "reserved",
                                        "type": "uint256[4]",
                                        "value": [
                                            "110,154,764,627,732,432",
                                            "792,908,045,890,321,496,465,785,555,945,217,931,637,555,024,125",
                                            "0",
                                            "0"
                                        ]
                                    },
                                    {
                                        "name": "data",
                                        "type": "bytes",
                                        "value": "0x"
                                    },
                                    {
                                        "name": "signature",
                                        "type": "bytes",
                                        "value": "0x"
                                    },
                                    {
                                        "name": "factoryDeps",
                                        "type": "uint256[]",
                                        "value": []
                                    },
                                    {
                                        "name": "paymasterInput",
                                        "type": "bytes",
                                        "value": "0x"
                                    },
                                    {
                                        "name": "reservedDynamic",
                                        "type": "bytes",
                                        "value": "0x"
                                    }
                                ]
                            },
                            {
                                "name": "factoryDeps",
                                "type": "bytes[]",
                                "value": []
                            }
                        ],
                        "signature": "NewPriorityRequest(uint256,bytes32,uint64,(uint256,uint256,uint256,uint256,uint256,uint256,uint256,uint256,uint256,uint256,uint256[4],bytes,bytes,uint256[],bytes,bytes),bytes[])"
                    },
                    "id": 2,
                    "logData": "0x00000000000000000000000000000000000000000000000000000000002ff7bd541369933686a7a79ab6e84d9f44977be084e1bdddcee20e288cc66694c8cf6700000000000000000000000000000000000000000000000000000000662438e700000000000000000000000000000000000000000000000000000000000000a000000000000000000000000000000000000000000000000000000000000003a000000000000000000000000000000000000000000000000000000000000000ff0000000000000000000000008ae339f9a9fddf930cf10d7fcb4abba417cd50fd0000000000000000000000008ae339f9a9fddf930cf10d7fcb4abba417cd50fd0000000000000000000000000000000000000000000000000000000000060f9700000000000000000000000000000000000000000000000000000000000003200000000000000000000000000000000000000000000000000000000014c189e50000000000000000000000000000000000000000000000000000000000000000000000000000000000000000000000000000000000000000000000000000000000000000000000000000000000000000000000000000000000000000002ff7bd0000000000000000000000000000000000000000000000000186cc6acd4b00000000000000000000000000000000000000000000000000000187592cbff3e7d00000000000000000000000008ae339f9a9fddf930cf10d7fcb4abba417cd50fd000000000000000000000000000000000000000000000000000000000000000000000000000000000000000000000000000000000000000000000000000000000000000000000000000000000000000000000000000000000000000000000260000000000000000000000000000000000000000000000000000000000000028000000000000000000000000000000000000000000000000000000000000002a000000000000000000000000000000000000000000000000000000000000002c000000000000000000000000000000000000000000000000000000000000002e0000000000000000000000000000000000000000000000000000000000000000000000000000000000000000000000000000000000000000000000000000000000000000000000000000000000000000000000000000000000000000000000000000000000000000000000000000000000000000000000000000000000000000000000000000000000000000000000000000000000000000000000000000000000000000000000000000000000000000000000000000000000000000000000000",
                    "logDecoded": true,
                    "operation": "EVENT",
                    "revert": false,
                    "status": true,
                    "topics": [
                        "0x4531cd5795773d7101c17bdeb9f5ab7f47d7056017506f937083be5d6e77a382"
                    ]
                },
                "nodeType": 1
            }
        },
        "gasFlame": [
            {
                "children": [
                    {
                        "children": [
                            {
                                "children": [],
                                "depth": 0,
                                "name": "Initial Gas",
                                "value": 22852
                            },
                            {
                                "children": [
                                    {
                                        "children": [],
                                        "depth": 1,
                                        "name": "requestL2Transaction",
                                        "value": 78900
                                    }
                                ],
                                "depth": 0,
                                "name": "Executed Gas",
                                "value": 86262
                            }
                        ],
                        "depth": -1,
                        "name": "Actual Gas Used",
                        "value": 106314
                    },
                    {
                        "children": [],
                        "depth": -1,
                        "name": "Refunded Gas",
                        "value": 2800
                    }
                ],
                "depth": -2,
                "name": "Total Gas",
                "value": 109114
            }
        ],
        "isConfirmed": true,
        "mainTrace": [
            {
                "children": [
                    {
                        "children": [
                            {
                                "children": [
                                    {
                                        "children": [],
                                        "depth": 2,
                                        "id": 2,
                                        "order": 2
                                    }
                                ],
                                "depth": 1,
                                "id": 1,
                                "order": 1
                            }
                        ],
                        "depth": 0,
                        "id": 0,
                        "order": 0
                    }
                ],
                "depth": -1,
                "id": -1,
                "order": -1
            }
        ],
        "mainTraceNodeCount": 3,
        "parentIdMap": {
            "0": -1,
            "1": 0,
            "2": 1
        },
        "tidyTrace": [
            {
                "children": [
                    {
                        "children": [
                            {
                                "children": [
                                    {
                                        "children": [],
                                        "depth": 2,
                                        "id": 2,
                                        "order": 2
                                    }
                                ],
                                "depth": 1,
                                "id": 1,
                                "order": 1
                            }
                        ],
                        "depth": 0,
                        "id": 0,
                        "order": 0
                    }
                ],
                "depth": -1,
                "id": -1,
                "order": -1
            }
        ],
        "tidyTraceNodeCount": 3
    },
    "state_change": {
        "stateChanges": [
            {
                "address": "0x32400084c286cf3e17e7b677ea9583e60a000324",
                "erc": "",
                "slots": [
                    {
                        "current": "0x541369933686a7a79ab6e84d9f44977be084e1bdddcee20e288cc66694c8cf67",
                        "key": "0x49d9a1a9aa3b969dd91381c24f5dd0ea8ec48f6bdbf79f61bfb90fc4e9e01cfa",
                        "prev": "0x0000000000000000000000000000000000000000000000000000000000000000"
                    },
                    {
                        "current": "0x00000000000000000000000000000000000000000000000000000000662438e7",
                        "key": "0x49d9a1a9aa3b969dd91381c24f5dd0ea8ec48f6bdbf79f61bfb90fc4e9e01cfb",
                        "prev": "0x0000000000000000000000000000000000000000000000000000000000000000"
                    },
                    {
                        "current": "0x00000000000000000000000000000000000000000000000000000000002ff7be",
                        "key": "0x0000000000000000000000000000000000000000000000000000000000000011",
                        "prev": "0x00000000000000000000000000000000000000000000000000000000002ff7bd"
                    }
                ],
                "storageVariables": [
                    {
                        "name": "s",
                        "type": "struct AppStorage",
                        "value": {
                            "fields": [
                                {
                                    "name": "priorityQueue",
                                    "type": "struct PriorityQueue.Queue",
                                    "value": {
                                        "fields": [
                                            {
                                                "name": "data",
                                                "type": "mapping(uint256 => struct PriorityOperation)",
                                                "value": {
                                                    "pairs": [
                                                        {
                                                            "key": "3143613",
                                                            "value": {
                                                                "fields": [
                                                                    {
                                                                        "name": "canonicalTxHash",
                                                                        "type": "bytes32",
                                                                        "value": {
                                                                            "current": "0x541369933686a7a79ab6e84d9f44977be084e1bdddcee20e288cc66694c8cf67",
                                                                            "prev": "0x0000000000000000000000000000000000000000000000000000000000000000",
                                                                            "typeTag": 1
                                                                        }
                                                                    },
                                                                    {
                                                                        "name": "expirationTimestamp",
                                                                        "type": "uint64",
                                                                        "value": {
                                                                            "current": "1713649895",
                                                                            "prev": "0",
                                                                            "typeTag": 1
                                                                        }
                                                                    },
                                                                    {
                                                                        "name": "layer2Tip",
                                                                        "type": "uint192",
                                                                        "value": {
                                                                            "current": "0",
                                                                            "prev": "0",
                                                                            "typeTag": 1
                                                                        }
                                                                    }
                                                                ],
                                                                "typeTag": 3
                                                            }
                                                        }
                                                    ],
                                                    "typeTag": 4
                                                }
                                            },
                                            {
                                                "name": "tail",
                                                "type": "uint256",
                                                "value": {
                                                    "current": "3143614",
                                                    "prev": "3143613",
                                                    "typeTag": 1
                                                }
                                            }
                                        ],
                                        "typeTag": 3
                                    }
                                }
                            ],
                            "typeTag": 3
                        }
                    }
                ]
            }
        ]
    }
}