{
    "balance_change": {
        "balanceChanges": [
            {
                "account": "0x12429f1842c56e2116f93cbd6cf09418e49abcd7",
                "assets": [
                    {
                        "address": "0xeeeeeeeeeeeeeeeeeeeeeeeeeeeeeeeeeeeeeeee",
                        "amount": "0.35",
                        "iconUrl": "https://assets.blocksec.com/image/1663669189317-3.png",
                        "isERC1155": false,
                        "isERC721": false,
                        "sign": false,
                        "value": "1150.4605"
                    }
                ]
            },
            {
                "account": "0x4f4b7e7edf5ec41235624ce207a6ef352aca7050",
                "assets": [
                    {
                        "address": "0xeeeeeeeeeeeeeeeeeeeeeeeeeeeeeeeeeeeeeeee",
                        "amount": "0.35",
                        "iconUrl": "https://assets.blocksec.com/image/1663669189317-3.png",
                        "isERC1155": false,
                        "isERC721": false,
                        "sign": true,
                        "value": "1150.4605"
                    }
                ]
            }
        ]
    },
    "profile": {
        "basic_info": {
            "baseFee": "82.223327612",
            "blockNumber": 13083639,
            "callData": "0x329ce29e00000000000000000000000000000000000000000000000000000000000003ae",
            "debugEnable": true,
            "errorInfo": "",
            "eventCount": 1,
            "feeRecipient": "0x5a0b54d5dc17e0aadc383d2db43b0a0d3e029c4c",
            "formatValue": "0.35",
            "gasLimit": 50000,
            "gasPrice": "99.999999999",
            "gasUsed": 38100,
            "intTxnCount": 1,
            "internalRevert": false,
            "internalRevertMessage": "",
            "isContractCreation": false,
            "isFlashloan": false,
            "maxFee": "",
            "nonce": 8021,
            "overwritedBlockNumber": -1,
            "priorityFee": "",
            "receiver": "0x015a06a433353f8db634df4eddf0c109882a15ab",
            "revertMessage": "",
            "sender": "0x12429f1842c56e2116f93cbd6cf09418e49abcd7",
            "simulationEnable": true,
            "sourceTxnHash": "0xf0b7c46858c5955e46d9fa8fbffa123f7bfd40fa75556c2cc2c4b12c9e508db4",
            "status": true,
            "timestamp": "2021-08-23T20:11:40Z",
            "transactionFee": "0.0038099999999619",
            "txnHash": "0xf0b7c46858c5955e46d9fa8fbffa123f7bfd40fa75556c2cc2c4b12c9e508db4",
            "txnIndex": 21,
            "type": 0,
            "value": "350000000000000000"
        },
        "fund_flow": [
            {
                "amount": "0.35",
                "from": "0x12429f1842c56e2116f93cbd6cf09418e49abcd7",
                "id": 1,
                "isERC1155": false,
                "isERC721": false,
                "isReverted": false,
                "order": 1,
                "to": "0x015a06a433353f8db634df4eddf0c109882a15ab",
                "token": "0xeeeeeeeeeeeeeeeeeeeeeeeeeeeeeeeeeeeeeeee"
            },
            {
                "amount": "0.35",
                "from": "0x015a06a433353f8db634df4eddf0c109882a15ab",
                "id": 2,
                "isERC1155": false,
                "isERC721": false,
                "isReverted": false,
                "order": 2,
                "to": "0x4f4b7e7edf5ec41235624ce207a6ef352aca7050",
                "token": "0xeeeeeeeeeeeeeeeeeeeeeeeeeeeeeeeeeeeeeeee"
            }
        ],
        "token_infos": [
            {
                "address": "0xc02aaa39b223fe8d0a0e5c4f27ead9083c756cc2",
                "decimals": 18
            },
            {
                "address": "0xeeeeeeeeeeeeeeeeeeeeeeeeeeeeeeeeeeeeeeee",
                "decimals": 18
            }
        ]
    },
    "address_label": {
        "labels": [
            {
                "address": "0x0000000000000000000000000000000000000001",
                "label": "Precompiled"
            },
            {
                "address": "0x0000000000000000000000000000000000000002",
                "label": "Precompiled"
            },
            {
                "address": "0x0000000000000000000000000000000000000003",
                "label": "Precompiled"
            },
            {
                "address": "0x0000000000000000000000000000000000000004",
                "label": "Precompiled"
            },
            {
                "address": "0xeeeeeeeeeeeeeeeeeeeeeeeeeeeeeeeeeeeeeeee",
                "label": "Ether"
            },
            {
                "address": "0x015a06a433353f8db634df4eddf0c109882a15ab",
                "label": "PixelMap"
            }
        ]
    },
    "trace": {
        "accountLabels": null,
        "dataMap": {
            "-1": {
                "invocation": {
                    "address": "0x12429f1842c56e2116f93cbd6cf09418e49abcd7",
                    "callData": "",
                    "decodedMethod": null,
                    "errorInfo": "",
                    "fromAddress": "",
                    "gasUsed": 0,
                    "id": -1,
                    "methodDecoded": false,
                    "operation": "",
                    "output": "",
                    "revert": false,
                    "revertMessage": "",
                    "selector": "",
                    "status": false,
                    "value": ""
                },
                "nodeType": 0
            },
            "0": {
                "invocation": {
                    "address": "0x015a06a433353f8db634df4eddf0c109882a15ab",
                    "callData": "0x00000000000000000000000000000000000000000000000000000000000003ae",
                    "decodedMethod": {
                        "callParams": [
                            {
                                "name": "location",
                                "type": "uint256",
                                "value": "942"
                            }
                        ],
                        "constructorArguments": "",
                        "name": "buyTile",
                        "returnParams": [],
                        "signature": "buyTile(uint256)"
                    },
                    "errorInfo": "",
                    "fromAddress": "0x12429f1842c56e2116f93cbd6cf09418e49abcd7",
                    "gasUsed": 38100,
                    "id": 0,
                    "methodDecoded": true,
                    "operation": "CALL",
                    "output": "",
                    "revert": false,
                    "revertMessage": "",
                    "selector": "0x329ce29e",
                    "status": true,
                    "value": "0.35"
                },
                "nodeType": 0
            },
            "1": {
                "invocation": {
                    "address": "0x4f4b7e7edf5ec41235624ce207a6ef352aca7050",
                    "callData": "0x",
                    "decodedMethod": null,
                    "errorInfo": "",
                    "fromAddress": "0x015a06a433353f8db634df4eddf0c109882a15ab",
                    "gasUsed": 0,
                    "id": 1,
                    "methodDecoded": false,
                    "operation": "CALL",
                    "output": "",
                    "revert": false,
                    "revertMessage": "",
                    "selector": "fallback",
                    "status": true,
                    "value": "0.35"
                },
                "nodeType": 0
            },
            "2": {
                "event": {
                    "contract": "0x015a06a433353f8db634df4eddf0c109882a15ab",
                    "decodedLog": {
                        "name": "TileUpdated",
                        "params": [
                            {
                                "name": "location",
                                "type": "uint256",
                                "value": "942"
                            }
                        ],
                        "signature": "TileUpdated(uint256)"
                    },
                    "id": 2,
                    "logData": "0x00000000000000000000000000000000000000000000000000000000000003ae",
                    "logDecoded": true,
                    "operation": "EVENT",
                    "revert": false,
                    "status": true,
                    "topics": [
                        "0xb497d17d9ddaf07c831248da6ed8174689abdc4370285e618e350f29f5aff9a0"
                    ]
                },
                "nodeType": 1
            }
        },
        "gasFlame": [
            {
                "children": [
                    {
                        "children": [
                            {
                                "children": [],
                                "depth": 0,
                                "name": "Initial Gas",
                                "value": 21216
                            },
                            {
                                "children": [
                                    {
                                        "children": [],
                                        "depth": 1,
                                        "name": "fallback",
                                        "value": 0
                                    }
                                ],
                                "depth": 0,
                                "name": "Executed Gas",
                                "value": 21684
                            }
                        ],
                        "depth": -1,
                        "name": "Actual Gas Used",
                        "value": 38100
                    },
                    {
                        "children": [],
                        "depth": -1,
                        "name": "Refunded Gas",
                        "value": 4800
                    }
                ],
                "depth": -2,
                "name": "Total Gas",
                "value": 42900
            }
        ],
        "isConfirmed": true,
        "mainTrace": [
            {
                "children": [
                    {
                        "children": [
                            {
                                "children": [],
                                "depth": 1,
                                "id": 1,
                                "order": 1
                            },
                            {
                                "children": [],
                                "depth": 1,
                                "id": 2,
                                "order": 2
                            }
                        ],
                        "depth": 0,
                        "id": 0,
                        "order": 0
                    }
                ],
                "depth": -1,
                "id": -1,
                "order": -1
            }
        ],
        "mainTraceNodeCount": 3,
        "parentIdMap": {
            "0": -1,
            "1": 0,
            "2": 0
        },
        "tidyTrace": [
            {
                "children": [
                    {
                        "children": [
                            {
                                "children": [],
                                "depth": 1,
                                "id": 1,
                                "order": 1
                            },
                            {
                                "children": [],
                                "depth": 1,
                                "id": 2,
                                "order": 2
                            }
                        ],
                        "depth": 0,
                        "id": 0,
                        "order": 0
                    }
                ],
                "depth": -1,
                "id": -1,
                "order": -1
            }
        ],
        "tidyTraceNodeCount": 3
    },
    "state_change": {
        "stateChanges": [
            {
                "address": "0x015a06a433353f8db634df4eddf0c109882a15ab",
                "erc": "",
                "slots": [
                    {
                        "current": "0x0000000000000000000000000000000000000000000000000000000000000000",
                        "key": "0x0d7b95e6422805932b6c3efb4d6cda9fddf2b2a635e419496d067e32084cc321",
                        "prev": "0x00000000000000000000000000000000000000000000000004db732547630000"
                    },
                    {
                        "current": "0x00000000000000000000000012429f1842c56e2116f93cbd6cf09418e49abcd7",
                        "key": "0x0d7b95e6422805932b6c3efb4d6cda9fddf2b2a635e419496d067e32084cc31e",
                        "prev": "0x0000000000000000000000004f4b7e7edf5ec41235624ce207a6ef352aca7050"
                    }
                ],
                "storageVariables": []
            }
        ]
    }
}