{
    "balance_change": {
        "balanceChanges": []
    },
    "profile": {
        "basic_info": {
            "baseFee": "20.284634528",
            "blockNumber": 16493318,
            "callData": "0x095ea7b30000000000000000000000000e3efd5be54cc0f4c64e0d186b0af4b7f2a0e95f000000000000000000000000000000000000000000084595161401484a000000",
            "debugEnable": true,
            "errorInfo": "",
            "eventCount": 1,
            "feeRecipient": "0xdafea492d9c6733ae3d56b7ed1adb60692c98bc5",
            "formatValue": "0",
            "gasLimit": 46552,
            "gasPrice": "21.284634528",
            "gasUsed": 46552,
            "intTxnCount": 0,
            "internalRevert": false,
            "internalRevertMessage": "",
            "isContractCreation": false,
            "isFlashloan": false,
            "maxFee": "23.438728957",
            "nonce": 520,
            "overwritedBlockNumber": -1,
            "priorityFee": "1",
            "receiver": "0xde30da39c46104798bb5aa3fe8b9e0e1f348163f",
            "revertMessage": "",
            "sender": "0x2400044b4e3629429e6f54c8bb0d7c40a0f3bab1",
            "simulationEnable": true,
            "sourceTxnHash": "0xf006b6761ec48394ec89371112198dc1f296e885c74fa4b7dda144b356ac0300",
            "status": true,
            "timestamp": "2023-01-26T20:15:59Z",
            "transactionFee": "0.000990842306547456",
            "txnHash": "0xf006b6761ec48394ec89371112198dc1f296e885c74fa4b7dda144b356ac0300",
            "txnIndex": 274,
            "type": 2,
            "value": "0"
        },
        "fund_flow": [],
        "token_infos": [
            {
                "address": "0xeeeeeeeeeeeeeeeeeeeeeeeeeeeeeeeeeeeeeeee",
                "decimals": 18
            },
            {
                "address": "0xc02aaa39b223fe8d0a0e5c4f27ead9083c756cc2",
                "decimals": 18
            }
        ]
    },
    "address_label": {
        "labels": [
            {
                "address": "0x0000000000000000000000000000000000000002",
                "label": "Precompiled"
            },
            {
                "address": "0x0000000000000000000000000000000000000003",
                "label": "Precompiled"
            },
            {
                "address": "0x0000000000000000000000000000000000000004",
                "label": "Precompiled"
            },
            {
                "address": "0xeeeeeeeeeeeeeeeeeeeeeeeeeeeeeeeeeeeeeeee",
                "label": "Ether"
            },
            {
                "address": "0xde30da39c46104798bb5aa3fe8b9e0e1f348163f",
                "label": "Gitcoin: GTC Token"
            },
            {
                "address": "0x0e3efd5be54cc0f4c64e0d186b0af4b7f2a0e95f",
                "label": "IDStaking"
            },
            {
                "address": "0x0000000000000000000000000000000000000001",
                "label": "Precompiled"
            }
        ]
    },
    "trace": {
        "accountLabels": null,
        "dataMap": {
            "-1": {
                "invocation": {
                    "address": "0x2400044b4e3629429e6f54c8bb0d7c40a0f3bab1",
                    "callData": "",
                    "decodedMethod": null,
                    "errorInfo": "",
                    "fromAddress": "",
                    "gasUsed": 0,
                    "id": -1,
                    "methodDecoded": false,
                    "operation": "",
                    "output": "",
                    "revert": false,
                    "revertMessage": "",
                    "selector": "",
                    "status": false,
                    "value": ""
                },
                "nodeType": 0
            },
            "0": {
                "invocation": {
                    "address": "0xde30da39c46104798bb5aa3fe8b9e0e1f348163f",
                    "callData": "0x0000000000000000000000000e3efd5be54cc0f4c64e0d186b0af4b7f2a0e95f000000000000000000000000000000000000000000084595161401484a000000",
                    "decodedMethod": {
                        "callParams": [
                            {
                                "name": "spender",
                                "type": "address",
                                "value": "0x0e3efd5be54cc0f4c64e0d186b0af4b7f2a0e95f"
                            },
                            {
                                "decimalAvailable": true,
                                "name": "rawAmount",
                                "type": "uint256",
                                "value": "10,000,000,000,000,000,000,000,000"
                            }
                        ],
                        "constructorArguments": "",
                        "name": "approve",
                        "returnParams": [
                            {
                                "name": "",
                                "type": "bool",
                                "value": true
                            }
                        ],
                        "signature": "approve(address,uint256)"
                    },
                    "errorInfo": "",
                    "fromAddress": "0x2400044b4e3629429e6f54c8bb0d7c40a0f3bab1",
                    "gasUsed": 46552,
                    "id": 0,
                    "methodDecoded": true,
                    "operation": "CALL",
                    "output": "0x0000000000000000000000000000000000000000000000000000000000000001",
                    "revert": false,
                    "revertMessage": "",
                    "selector": "0x095ea7b3",
                    "status": true,
                    "value": "0"
                },
                "nodeType": 0
            },
            "1": {
                "event": {
                    "contract": "0xde30da39c46104798bb5aa3fe8b9e0e1f348163f",
                    "decodedLog": {
                        "name": "Approval",
                        "params": [
                            {
                                "name": "owner",
                                "type": "address",
                                "value": "0x2400044b4e3629429e6f54c8bb0d7c40a0f3bab1"
                            },
                            {
                                "name": "spender",
                                "type": "address",
                                "value": "0x0e3efd5be54cc0f4c64e0d186b0af4b7f2a0e95f"
                            },
                            {
                                "decimalAvailable": true,
                                "name": "amount",
                                "type": "uint256",
                                "value": "10,000,000,000,000,000,000,000,000"
                            }
                        ],
                        "signature": "Approval(address,address,uint256)"
                    },
                    "id": 1,
                    "logData": "0x000000000000000000000000000000000000000000084595161401484a000000",
                    "logDecoded": true,
                    "operation": "EVENT",
                    "revert": false,
                    "status": true,
                    "topics": [
                        "0x8c5be1e5ebec7d5bd14f71427d1e84f3dd0314c0f7b2291e5b200ac8c7c3b925",
                        "0x0000000000000000000000002400044b4e3629429e6f54c8bb0d7c40a0f3bab1",
                        "0x0000000000000000000000000e3efd5be54cc0f4c64e0d186b0af4b7f2a0e95f"
                    ]
                },
                "nodeType": 1
            }
        },
        "gasFlame": [
            {
                "children": [
                    {
                        "children": [
                            {
                                "children": [],
                                "depth": 0,
                                "name": "Initial Gas",
                                "value": 21656
                            },
                            {
                                "children": [],
                                "depth": 0,
                                "name": "Executed Gas",
                                "value": 24896
                            }
                        ],
                        "depth": -1,
                        "name": "Actual Gas Used",
                        "value": 46552
                    },
                    {
                        "children": [],
                        "depth": -1,
                        "name": "Refunded Gas",
                        "value": 0
                    }
                ],
                "depth": -2,
                "name": "Total Gas",
                "value": 46552
            }
        ],
        "isConfirmed": true,
        "mainTrace": [
            {
                "children": [
                    {
                        "children": [
                            {
                                "children": [],
                                "depth": 1,
                                "id": 1,
                                "order": 1
                            }
                        ],
                        "depth": 0,
                        "id": 0,
                        "order": 0
                    }
                ],
                "depth": -1,
                "id": -1,
                "order": -1
            }
        ],
        "mainTraceNodeCount": 2,
        "parentIdMap": {
            "0": -1,
            "1": 0
        },
        "tidyTrace": [
            {
                "children": [
                    {
                        "children": [
                            {
                                "children": [],
                                "depth": 1,
                                "id": 1,
                                "order": 1
                            }
                        ],
                        "depth": 0,
                        "id": 0,
                        "order": 0
                    }
                ],
                "depth": -1,
                "id": -1,
                "order": -1
            }
        ],
        "tidyTraceNodeCount": 2
    },
    "state_change": {
        "stateChanges": [
            {
                "address": "0xde30da39c46104798bb5aa3fe8b9e0e1f348163f",
                "erc": "ERC-20",
                "slots": [
                    {
                        "current": "0x000000000000000000000000000000000000000000084595161401484a000000",
                        "key": "0xe372ed8b3456656a0942b9c488524e2f2fca22e6c3336cf67802db28ebc3550b",
                        "prev": "0x0000000000000000000000000000000000000000000000000000000000000000"
                    }
                ],
                "storageVariables": [
                    {
                        "name": "allowances",
                        "type": "mapping(address => mapping(address => uint96))",
                        "value": {
                            "pairs": [
                                {
                                    "key": "0x2400044b4e3629429e6f54c8bb0d7c40a0f3bab1",
                                    "value": {
                                        "pairs": [
                                            {
                                                "key": "0x0e3efd5be54cc0f4c64e0d186b0af4b7f2a0e95f",
                                                "value": {
                                                    "current": "10000000000000000000000000",
                                                    "prev": "0",
                                                    "typeTag": 1
                                                }
                                            }
                                        ],
                                        "typeTag": 4
                                    }
                                }
                            ],
                            "typeTag": 4
                        }
                    }
                ]
            }
        ]
    }
}