{
    "balance_change": {
        "balanceChanges": [
            {
                "account": "0x179288a02ee8a939668ddbb0ac21b4fc2a9606a7",
                "assets": [
                    {
                        "address": "0x9b9647431632af44be02ddd22477ed94d14aacaa",
                        "amount": "30.1918",
                        "iconUrl": "",
                        "isERC1155": false,
                        "isERC721": false,
                        "sign": false,
                        "value": ""
                    }
                ]
            },
            {
                "account": "0x39e91b03a2c4985c45fb1bca94bc638a3f282450",
                "assets": [
                    {
                        "address": "0x9b9647431632af44be02ddd22477ed94d14aacaa",
                        "amount": "30.1918",
                        "iconUrl": "",
                        "isERC1155": false,
                        "isERC721": false,
                        "sign": true,
                        "value": ""
                    }
                ]
            }
        ]
    },
    "profile": {
        "basic_info": {
            "baseFee": "",
            "blockNumber": 12235048,
            "callData": "0xa9059cbb00000000000000000000000039e91b03a2c4985c45fb1bca94bc638a3f282450000000000000000000000000000000000000000000000001a2fed22311a38000",
            "debugEnable": true,
            "errorInfo": "",
            "eventCount": 1,
            "feeRecipient": "0x99c85bb64564d9ef9a99621301f22c9993cb89e3",
            "formatValue": "0",
            "gasLimit": 80000,
            "gasPrice": "102",
            "gasUsed": 39715,
            "intTxnCount": 0,
            "internalRevert": false,
            "internalRevertMessage": "",
            "isContractCreation": false,
            "isFlashloan": false,
            "maxFee": "",
            "nonce": 14391,
            "overwritedBlockNumber": -1,
            "priorityFee": "",
            "receiver": "0x9b9647431632af44be02ddd22477ed94d14aacaa",
            "revertMessage": "",
            "sender": "0x179288a02ee8a939668ddbb0ac21b4fc2a9606a7",
            "simulationEnable": true,
            "sourceTxnHash": "0xf0b05b68161104e7c5d05938c7f5c94d980795cf4c87e623b1c04057f1775bbe",
            "status": true,
            "timestamp": "2021-04-14T00:43:38Z",
            "transactionFee": "0.00405093",
            "txnHash": "0xf0b05b68161104e7c5d05938c7f5c94d980795cf4c87e623b1c04057f1775bbe",
            "txnIndex": 178,
            "type": 0,
            "value": "0"
        },
        "fund_flow": [
            {
                "amount": "30.1918",
                "from": "0x179288a02ee8a939668ddbb0ac21b4fc2a9606a7",
                "id": 1,
                "isERC1155": false,
                "isERC721": false,
                "isReverted": false,
                "order": 1,
                "to": "0x39e91b03a2c4985c45fb1bca94bc638a3f282450",
                "token": "0x9b9647431632af44be02ddd22477ed94d14aacaa"
            }
        ],
        "token_infos": [
            {
                "address": "0x9b9647431632af44be02ddd22477ed94d14aacaa",
                "decimals": 18
            },
            {
                "address": "0xc02aaa39b223fe8d0a0e5c4f27ead9083c756cc2",
                "decimals": 18
            },
            {
                "address": "0xeeeeeeeeeeeeeeeeeeeeeeeeeeeeeeeeeeeeeeee",
                "decimals": 18
            }
        ]
    },
    "address_label": {
        "labels": [
            {
                "address": "0x0000000000000000000000000000000000000002",
                "label": "Precompiled"
            },
            {
                "address": "0x0000000000000000000000000000000000000003",
                "label": "Precompiled"
            },
            {
                "address": "0x0000000000000000000000000000000000000004",
                "label": "Precompiled"
            },
            {
                "address": "0xeeeeeeeeeeeeeeeeeeeeeeeeeeeeeeeeeeeeeeee",
                "label": "Ether"
            },
            {
                "address": "0x9b9647431632af44be02ddd22477ed94d14aacaa",
                "label": "KOK PLAY: KOK Token"
            },
            {
                "address": "0x0000000000000000000000000000000000000001",
                "label": "Precompiled"
            }
        ]
    },
    "trace": {
        "accountLabels": null,
        "dataMap": {
            "-1": {
                "invocation": {
                    "address": "0x179288a02ee8a939668ddbb0ac21b4fc2a9606a7",
                    "callData": "",
                    "decodedMethod": null,
                    "errorInfo": "",
                    "fromAddress": "",
                    "gasUsed": 0,
                    "id": -1,
                    "methodDecoded": false,
                    "operation": "",
                    "output": "",
                    "revert": false,
                    "revertMessage": "",
                    "selector": "",
                    "status": false,
                    "value": ""
                },
                "nodeType": 0
            },
            "0": {
                "invocation": {
                    "address": "0x9b9647431632af44be02ddd22477ed94d14aacaa",
                    "callData": "0x00000000000000000000000039e91b03a2c4985c45fb1bca94bc638a3f282450000000000000000000000000000000000000000000000001a2fed22311a38000",
                    "decodedMethod": {
                        "callParams": [
                            {
                                "name": "_to",
                                "type": "address",
                                "value": "0x39e91b03a2c4985c45fb1bca94bc638a3f282450"
                            },
                            {
                                "decimalAvailable": true,
                                "name": "_value",
                                "type": "uint256",
                                "value": "30,191,800,000,000,000,000"
                            }
                        ],
                        "constructorArguments": "",
                        "name": "transfer",
                        "returnParams": [
                            {
                                "name": "success",
                                "type": "bool",
                                "value": true
                            }
                        ],
                        "signature": "transfer(address,uint256)"
                    },
                    "errorInfo": "",
                    "fromAddress": "0x179288a02ee8a939668ddbb0ac21b4fc2a9606a7",
                    "gasUsed": 39715,
                    "id": 0,
                    "methodDecoded": true,
                    "operation": "CALL",
                    "output": "0x0000000000000000000000000000000000000000000000000000000000000001",
                    "revert": false,
                    "revertMessage": "",
                    "selector": "0xa9059cbb",
                    "status": true,
                    "value": "0"
                },
                "nodeType": 0
            },
            "1": {
                "event": {
                    "contract": "0x9b9647431632af44be02ddd22477ed94d14aacaa",
                    "decodedLog": {
                        "name": "Transfer",
                        "params": [
                            {
                                "name": "_from",
                                "type": "address",
                                "value": "0x179288a02ee8a939668ddbb0ac21b4fc2a9606a7"
                            },
                            {
                                "name": "_to",
                                "type": "address",
                                "value": "0x39e91b03a2c4985c45fb1bca94bc638a3f282450"
                            },
                            {
                                "decimalAvailable": true,
                                "name": "_value",
                                "type": "uint256",
                                "value": "30,191,800,000,000,000,000"
                            }
                        ],
                        "signature": "Transfer(address,address,uint256)"
                    },
                    "id": 1,
                    "logData": "0x000000000000000000000000000000000000000000000001a2fed22311a38000",
                    "logDecoded": true,
                    "operation": "EVENT",
                    "revert": false,
                    "status": true,
                    "topics": [
                        "0xddf252ad1be2c89b69c2b068fc378daa952ba7f163c4a11628f55a4df523b3ef",
                        "0x000000000000000000000000179288a02ee8a939668ddbb0ac21b4fc2a9606a7",
                        "0x00000000000000000000000039e91b03a2c4985c45fb1bca94bc638a3f282450"
                    ]
                },
                "nodeType": 1
            }
        },
        "gasFlame": [
            {
                "children": [
                    {
                        "children": [
                            {
                                "children": [],
                                "depth": 0,
                                "name": "Initial Gas",
                                "value": 21656
                            },
                            {
                                "children": [],
                                "depth": 0,
                                "name": "Executed Gas",
                                "value": 18059
                            }
                        ],
                        "depth": -1,
                        "name": "Actual Gas Used",
                        "value": 39715
                    },
                    {
                        "children": [],
                        "depth": -1,
                        "name": "Refunded Gas",
                        "value": 0
                    }
                ],
                "depth": -2,
                "name": "Total Gas",
                "value": 39715
            }
        ],
        "isConfirmed": true,
        "mainTrace": [
            {
                "children": [
                    {
                        "children": [
                            {
                                "children": [],
                                "depth": 1,
                                "id": 1,
                                "order": 1
                            }
                        ],
                        "depth": 0,
                        "id": 0,
                        "order": 0
                    }
                ],
                "depth": -1,
                "id": -1,
                "order": -1
            }
        ],
        "mainTraceNodeCount": 2,
        "parentIdMap": {
            "0": -1,
            "1": 0
        },
        "tidyTrace": [
            {
                "children": [
                    {
                        "children": [
                            {
                                "children": [],
                                "depth": 1,
                                "id": 1,
                                "order": 1
                            }
                        ],
                        "depth": 0,
                        "id": 0,
                        "order": 0
                    }
                ],
                "depth": -1,
                "id": -1,
                "order": -1
            }
        ],
        "tidyTraceNodeCount": 2
    },
    "state_change": {
        "stateChanges": [
            {
                "address": "0x9b9647431632af44be02ddd22477ed94d14aacaa",
                "erc": "ERC-20",
                "slots": [
                    {
                        "current": "0x00000000000000000000000000000000000000000000271b612c809f9d235400",
                        "key": "0xfeaa4b0bdee9f4fa77c1a141750937d103cffdb8b8cbc002537a12bf2a9d2415",
                        "prev": "0x00000000000000000000000000000000000000000000271d042b52c2aec6d400"
                    },
                    {
                        "current": "0x00000000000000000000000000000000000000000000007b3a4e2792c613e000",
                        "key": "0xd5e245f88c2638337001835f01117534bd7df67d1d3d4bb5ca56b6fa94716961",
                        "prev": "0x000000000000000000000000000000000000000000000079974f556fb4706000"
                    }
                ],
                "storageVariables": [
                    {
                        "name": "balances",
                        "type": "mapping(address => uint256)",
                        "value": {
                            "pairs": [
                                {
                                    "key": "0x179288a02ee8a939668ddbb0ac21b4fc2a9606a7",
                                    "value": {
                                        "current": "184677357034850000000000",
                                        "prev": "184707548834850000000000",
                                        "typeTag": 1
                                    }
                                },
                                {
                                    "key": "0x39e91b03a2c4985c45fb1bca94bc638a3f282450",
                                    "value": {
                                        "current": "2273150860080000000000",
                                        "prev": "2242959060080000000000",
                                        "typeTag": 1
                                    }
                                }
                            ],
                            "typeTag": 4
                        }
                    }
                ]
            }
        ]
    }
}