{
    "balance_change": {
        "balanceChanges": [
            {
                "account": "0x6c1a5a30a3fb379a1da04e4aeaf8e3deababd6e0",
                "assets": [
                    {
                        "address": "0xefa8fe54d5d82b4e8fd8a52558a4ce80ee586581",
                        "amount": "903,285,464.828322217",
                        "iconUrl": "",
                        "isERC1155": false,
                        "isERC721": false,
                        "sign": false,
                        "value": "100.9232967"
                    },
                    {
                        "address": "0xeeeeeeeeeeeeeeeeeeeeeeeeeeeeeeeeeeeeeeee",
                        "amount": "0.051947921866710374",
                        "iconUrl": "https://assets.blocksec.com/image/1663669189317-3.png",
                        "isERC1155": false,
                        "isERC721": false,
                        "sign": true,
                        "value": "116.29529321115030284"
                    }
                ]
            },
            {
                "account": "0x7111d694cef8ca4189c01645a0b1713e93a78554",
                "assets": [
                    {
                        "address": "0xefa8fe54d5d82b4e8fd8a52558a4ce80ee586581",
                        "amount": "903,285,464.828322217",
                        "iconUrl": "",
                        "isERC1155": false,
                        "isERC721": false,
                        "sign": true,
                        "value": "100.9232967"
                    },
                    {
                        "address": "0xc02aaa39b223fe8d0a0e5c4f27ead9083c756cc2",
                        "amount": "0.051947921866710374",
                        "iconUrl": "https://assets.blocksec.com/icon/f1cb2d02c471d545bbc7722daf3277fd852d98e63d118771af7047bd8256c516.png",
                        "isERC1155": false,
                        "isERC721": false,
                        "sign": false,
                        "value": "116.29529321115030284"
                    }
                ]
            },
            {
                "account": "0xc02aaa39b223fe8d0a0e5c4f27ead9083c756cc2",
                "assets": [
                    {
                        "address": "0xeeeeeeeeeeeeeeeeeeeeeeeeeeeeeeeeeeeeeeee",
                        "amount": "0.051947921866710374",
                        "iconUrl": "https://assets.blocksec.com/image/1663669189317-3.png",
                        "isERC1155": false,
                        "isERC721": false,
                        "sign": false,
                        "value": "116.29529321115030284"
                    },
                    {
                        "address": "0xc02aaa39b223fe8d0a0e5c4f27ead9083c756cc2",
                        "amount": "0.051947921866710374",
                        "iconUrl": "https://assets.blocksec.com/icon/f1cb2d02c471d545bbc7722daf3277fd852d98e63d118771af7047bd8256c516.png",
                        "isERC1155": false,
                        "isERC721": false,
                        "sign": true,
                        "value": "116.29529321115030284"
                    }
                ]
            }
        ]
    },
    "profile": {
        "basic_info": {
            "baseFee": "37.541615634",
            "blockNumber": 18710451,
            "callData": "0x9871efa40000000000000000000186b8efa8fe54d5d82b4e8fd8a52558a4ce80ee5865810000000000000000000000000000000000000000000000000c891d582ddda1a90000000000000000000000000000000000000000000000000051020b00d9acd600000000000000000000000000000000000000000000000000000000000000800000000000000000000000000000000000000000000000000000000000000001c0000000000000003b6d03407111d694cef8ca4189c01645a0b1713e93a785543ca20afc2aaa00000000006494d3af948652ea2b272870ffa10da3250e0a34c4",
            "debugEnable": true,
            "errorInfo": "",
            "eventCount": 8,
            "feeRecipient": "0xf0ef0b3d1ce0a2c303e76200213b3ad5de61a4b7",
            "formatValue": "0",
            "gasLimit": 239416,
            "gasPrice": "43.840615337",
            "gasUsed": 147095,
            "intTxnCount": 11,
            "internalRevert": false,
            "internalRevertMessage": "",
            "isContractCreation": false,
            "isFlashloan": false,
            "maxFee": "44.823928407",
            "nonce": 50,
            "overwritedBlockNumber": -1,
            "priorityFee": "6.298999703",
            "receiver": "0xf73bd29daf60dfe09608d46f5e8eae87284fd3d3",
            "revertMessage": "",
            "sender": "0x6c1a5a30a3fb379a1da04e4aeaf8e3deababd6e0",
            "simulationEnable": true,
            "sourceTxnHash": "0xf0c6ded09497b1744aa6fa2d3a185e3892da30f83b96fce53c86e1b0e6404613",
            "status": true,
            "timestamp": "2023-12-04T03:54:23Z",
            "transactionFee": "0.006448735312996015",
            "txnHash": "0xf0c6ded09497b1744aa6fa2d3a185e3892da30f83b96fce53c86e1b0e6404613",
            "txnIndex": 147,
            "type": 2,
            "value": "0"
        },
        "fund_flow": [
            {
                "amount": "903,285,464.828322217",
                "from": "0x6c1a5a30a3fb379a1da04e4aeaf8e3deababd6e0",
                "id": 1,
                "isERC1155": false,
                "isERC721": false,
                "isReverted": false,
                "order": 1,
                "to": "0x7111d694cef8ca4189c01645a0b1713e93a78554",
                "token": "0xefa8fe54d5d82b4e8fd8a52558a4ce80ee586581"
            },
            {
                "amount": "0.051947921866710374",
                "from": "0x7111d694cef8ca4189c01645a0b1713e93a78554",
                "id": 2,
                "isERC1155": false,
                "isERC721": false,
                "isReverted": false,
                "order": 2,
                "to": "0xf73bd29daf60dfe09608d46f5e8eae87284fd3d3",
                "token": "0xc02aaa39b223fe8d0a0e5c4f27ead9083c756cc2"
            },
            {
                "amount": "0.051947921866710374",
                "from": "0xc02aaa39b223fe8d0a0e5c4f27ead9083c756cc2",
                "id": 3,
                "isERC1155": false,
                "isERC721": false,
                "isReverted": false,
                "order": 3,
                "to": "0xf73bd29daf60dfe09608d46f5e8eae87284fd3d3",
                "token": "0xeeeeeeeeeeeeeeeeeeeeeeeeeeeeeeeeeeeeeeee"
            },
            {
                "amount": "0.051947921866710374",
                "from": "0xf73bd29daf60dfe09608d46f5e8eae87284fd3d3",
                "id": 4,
                "isERC1155": false,
                "isERC721": false,
                "isReverted": false,
                "order": 4,
                "to": "0xc02aaa39b223fe8d0a0e5c4f27ead9083c756cc2",
                "token": "0xc02aaa39b223fe8d0a0e5c4f27ead9083c756cc2"
            },
            {
                "amount": "0.051947921866710374",
                "from": "0xf73bd29daf60dfe09608d46f5e8eae87284fd3d3",
                "id": 5,
                "isERC1155": false,
                "isERC721": false,
                "isReverted": false,
                "order": 5,
                "to": "0x6c1a5a30a3fb379a1da04e4aeaf8e3deababd6e0",
                "token": "0xeeeeeeeeeeeeeeeeeeeeeeeeeeeeeeeeeeeeeeee"
            }
        ],
        "token_infos": [
            {
                "address": "0xeeeeeeeeeeeeeeeeeeeeeeeeeeeeeeeeeeeeeeee",
                "decimals": 18
            },
            {
                "address": "0xc02aaa39b223fe8d0a0e5c4f27ead9083c756cc2",
                "decimals": 18
            },
            {
                "address": "0xefa8fe54d5d82b4e8fd8a52558a4ce80ee586581",
                "decimals": 9
            }
        ]
    },
    "address_label": {
        "labels": [
            {
                "address": "0x7111d694cef8ca4189c01645a0b1713e93a78554",
                "label": "UNI-V2"
            },
            {
                "address": "0x0000000000000000000000000000000000000002",
                "label": "Precompiled"
            },
            {
                "address": "0x0000000000000000000000000000000000000003",
                "label": "Precompiled"
            },
            {
                "address": "0x0000000000000000000000000000000000000004",
                "label": "Precompiled"
            },
            {
                "address": "0xeeeeeeeeeeeeeeeeeeeeeeeeeeeeeeeeeeeeeeee",
                "label": "Ether"
            },
            {
                "address": "0xc02aaa39b223fe8d0a0e5c4f27ead9083c756cc2",
                "label": "Wrapped Ether (WETH)"
            },
            {
                "address": "0x40aa958dd87fc8305b97f2ba922cddca374bcd7f",
                "label": "OKX DEX: TokenApprove"
            },
            {
                "address": "0xefa8fe54d5d82b4e8fd8a52558a4ce80ee586581",
                "label": "GFY?"
            },
            {
                "address": "0x0000000000000000000000000000000000000001",
                "label": "Precompiled"
            }
        ]
    },
    "trace": {
        "accountLabels": null,
        "dataMap": {
            "-1": {
                "invocation": {
                    "address": "0x6c1a5a30a3fb379a1da04e4aeaf8e3deababd6e0",
                    "callData": "",
                    "decodedMethod": null,
                    "errorInfo": "",
                    "fromAddress": "",
                    "gasUsed": 0,
                    "id": -1,
                    "methodDecoded": false,
                    "operation": "",
                    "output": "",
                    "revert": false,
                    "revertMessage": "",
                    "selector": "",
                    "status": false,
                    "value": ""
                },
                "nodeType": 0
            },
            "0": {
                "invocation": {
                    "address": "0xf73bd29daf60dfe09608d46f5e8eae87284fd3d3",
                    "callData": "0x0000000000000000000186b8efa8fe54d5d82b4e8fd8a52558a4ce80ee5865810000000000000000000000000000000000000000000000000c891d582ddda1a90000000000000000000000000000000000000000000000000051020b00d9acd600000000000000000000000000000000000000000000000000000000000000800000000000000000000000000000000000000000000000000000000000000001c0000000000000003b6d03407111d694cef8ca4189c01645a0b1713e93a785543ca20afc2aaa00000000006494d3af948652ea2b272870ffa10da3250e0a34c4",
                    "decodedMethod": null,
                    "errorInfo": "",
                    "fromAddress": "0x6c1a5a30a3fb379a1da04e4aeaf8e3deababd6e0",
                    "gasUsed": 147095,
                    "id": 0,
                    "methodDecoded": false,
                    "operation": "CALL",
                    "output": "0x00000000000000000000000000000000000000000000000000b88e5c15af5d66",
                    "revert": false,
                    "revertMessage": "",
                    "selector": "0x9871efa4",
                    "status": true,
                    "value": "0"
                },
                "nodeType": 0
            },
            "1": {
                "event": {
                    "contract": "0xf73bd29daf60dfe09608d46f5e8eae87284fd3d3",
                    "decodedLog": null,
                    "id": 1,
                    "logData": "0x00000000000000000000000000000000000000000000000000000000000186b8",
                    "logDecoded": false,
                    "operation": "EVENT",
                    "revert": false,
                    "status": true,
                    "topics": [
                        "0x7724394874fdd8ad13292ec739b441f85c6559f10dc4141b8d4c0fa4cbf55bdb"
                    ]
                },
                "nodeType": 1
            },
            "10": {
                "event": {
                    "contract": "0xc02aaa39b223fe8d0a0e5c4f27ead9083c756cc2",
                    "decodedLog": {
                        "name": "Transfer",
                        "params": [
                            {
                                "name": "src",
                                "type": "address",
                                "value": "0x7111d694cef8ca4189c01645a0b1713e93a78554"
                            },
                            {
                                "name": "dst",
                                "type": "address",
                                "value": "0xf73bd29daf60dfe09608d46f5e8eae87284fd3d3"
                            },
                            {
                                "decimalAvailable": true,
                                "name": "wad",
                                "type": "uint256",
                                "value": "51,947,921,866,710,374"
                            }
                        ],
                        "signature": "Transfer(address,address,uint256)"
                    },
                    "id": 10,
                    "logData": "0x00000000000000000000000000000000000000000000000000b88e5c15af5d66",
                    "logDecoded": true,
                    "operation": "EVENT",
                    "revert": false,
                    "status": true,
                    "topics": [
                        "0xddf252ad1be2c89b69c2b068fc378daa952ba7f163c4a11628f55a4df523b3ef",
                        "0x0000000000000000000000007111d694cef8ca4189c01645a0b1713e93a78554",
                        "0x000000000000000000000000f73bd29daf60dfe09608d46f5e8eae87284fd3d3"
                    ]
                },
                "nodeType": 1
            },
            "11": {
                "invocation": {
                    "address": "0xc02aaa39b223fe8d0a0e5c4f27ead9083c756cc2",
                    "callData": "0x0000000000000000000000007111d694cef8ca4189c01645a0b1713e93a78554",
                    "decodedMethod": {
                        "callParams": [
                            {
                                "name": "",
                                "type": "address",
                                "value": "0x7111d694cef8ca4189c01645a0b1713e93a78554"
                            }
                        ],
                        "constructorArguments": "",
                        "name": "balanceOf",
                        "returnParams": [
                            {
                                "decimalAvailable": true,
                                "name": "",
                                "type": "uint256",
                                "value": "5,904,495,017,193,135,127"
                            }
                        ],
                        "signature": "balanceOf(address)"
                    },
                    "errorInfo": "",
                    "fromAddress": "0x7111d694cef8ca4189c01645a0b1713e93a78554",
                    "gasUsed": 534,
                    "id": 11,
                    "methodDecoded": true,
                    "operation": "STATICCALL",
                    "output": "0x00000000000000000000000000000000000000000000000051f0faef4ddc5c17",
                    "revert": false,
                    "revertMessage": "",
                    "selector": "0x70a08231",
                    "status": true,
                    "value": "0"
                },
                "nodeType": 0
            },
            "12": {
                "invocation": {
                    "address": "0xefa8fe54d5d82b4e8fd8a52558a4ce80ee586581",
                    "callData": "0x0000000000000000000000007111d694cef8ca4189c01645a0b1713e93a78554",
                    "decodedMethod": {
                        "callParams": [
                            {
                                "name": "account",
                                "type": "address",
                                "value": "0x7111d694cef8ca4189c01645a0b1713e93a78554"
                            }
                        ],
                        "constructorArguments": "",
                        "name": "balanceOf",
                        "returnParams": [
                            {
                                "decimalAvailable": true,
                                "name": "",
                                "type": "uint256",
                                "value": "103,264,342,491,265,972,415"
                            }
                        ],
                        "signature": "balanceOf(address)"
                    },
                    "errorInfo": "",
                    "fromAddress": "0x7111d694cef8ca4189c01645a0b1713e93a78554",
                    "gasUsed": 617,
                    "id": 12,
                    "methodDecoded": true,
                    "operation": "STATICCALL",
                    "output": "0x0000000000000000000000000000000000000000000000059914a460bc2f38bf",
                    "revert": false,
                    "revertMessage": "",
                    "selector": "0x70a08231",
                    "status": true,
                    "value": "0"
                },
                "nodeType": 0
            },
            "13": {
                "event": {
                    "contract": "0x7111d694cef8ca4189c01645a0b1713e93a78554",
                    "decodedLog": {
                        "name": "Sync",
                        "params": [
                            {
                                "name": "reserve0",
                                "type": "uint112",
                                "value": "5,904,495,017,193,135,127"
                            },
                            {
                                "name": "reserve1",
                                "type": "uint112",
                                "value": "103,264,342,491,265,972,415"
                            }
                        ],
                        "signature": "Sync(uint112,uint112)"
                    },
                    "id": 13,
                    "logData": "0x00000000000000000000000000000000000000000000000051f0faef4ddc5c170000000000000000000000000000000000000000000000059914a460bc2f38bf",
                    "logDecoded": true,
                    "operation": "EVENT",
                    "revert": false,
                    "status": true,
                    "topics": [
                        "0x1c411e9a96e071241c2f21f7726b17ae89e3cab4c78be50e062b03a9fffbbad1"
                    ]
                },
                "nodeType": 1
            },
            "14": {
                "event": {
                    "contract": "0x7111d694cef8ca4189c01645a0b1713e93a78554",
                    "decodedLog": {
                        "name": "Swap",
                        "params": [
                            {
                                "name": "sender",
                                "type": "address",
                                "value": "0xf73bd29daf60dfe09608d46f5e8eae87284fd3d3"
                            },
                            {
                                "name": "to",
                                "type": "address",
                                "value": "0xf73bd29daf60dfe09608d46f5e8eae87284fd3d3"
                            },
                            {
                                "name": "amount0In",
                                "type": "uint256",
                                "value": "0"
                            },
                            {
                                "name": "amount1In",
                                "type": "uint256",
                                "value": "903,285,464,828,322,217"
                            },
                            {
                                "name": "amount0Out",
                                "type": "uint256",
                                "value": "51,947,921,866,710,374"
                            },
                            {
                                "name": "amount1Out",
                                "type": "uint256",
                                "value": "0"
                            }
                        ],
                        "signature": "Swap(address,uint256,uint256,uint256,uint256,address)"
                    },
                    "id": 14,
                    "logData": "0x00000000000000000000000000000000000000000000000000000000000000000000000000000000000000000000000000000000000000000c891d582ddda1a900000000000000000000000000000000000000000000000000b88e5c15af5d660000000000000000000000000000000000000000000000000000000000000000",
                    "logDecoded": true,
                    "operation": "EVENT",
                    "revert": false,
                    "status": true,
                    "topics": [
                        "0xd78ad95fa46c994b6551d0da85fc275fe613ce37657fb8d5e3d130840159d822",
                        "0x000000000000000000000000f73bd29daf60dfe09608d46f5e8eae87284fd3d3",
                        "0x000000000000000000000000f73bd29daf60dfe09608d46f5e8eae87284fd3d3"
                    ]
                },
                "nodeType": 1
            },
            "15": {
                "invocation": {
                    "address": "0xc02aaa39b223fe8d0a0e5c4f27ead9083c756cc2",
                    "callData": "0x00000000000000000000000000000000000000000000000000b88e5c15af5d66",
                    "decodedMethod": {
                        "callParams": [
                            {
                                "name": "wad",
                                "type": "uint256",
                                "value": "51,947,921,866,710,374"
                            }
                        ],
                        "constructorArguments": "",
                        "name": "withdraw",
                        "returnParams": [],
                        "signature": "withdraw(uint256)"
                    },
                    "errorInfo": "",
                    "fromAddress": "0xf73bd29daf60dfe09608d46f5e8eae87284fd3d3",
                    "gasUsed": 9216,
                    "id": 15,
                    "methodDecoded": true,
                    "operation": "CALL",
                    "output": "",
                    "revert": false,
                    "revertMessage": "",
                    "selector": "0x2e1a7d4d",
                    "status": true,
                    "value": "0"
                },
                "nodeType": 0
            },
            "16": {
                "invocation": {
                    "address": "0xf73bd29daf60dfe09608d46f5e8eae87284fd3d3",
                    "callData": "0x",
                    "decodedMethod": null,
                    "errorInfo": "",
                    "fromAddress": "0xc02aaa39b223fe8d0a0e5c4f27ead9083c756cc2",
                    "gasUsed": 76,
                    "id": 16,
                    "methodDecoded": false,
                    "operation": "CALL",
                    "output": "",
                    "revert": false,
                    "revertMessage": "",
                    "selector": "fallback",
                    "status": true,
                    "value": "0.051947921866710374"
                },
                "nodeType": 0
            },
            "17": {
                "event": {
                    "contract": "0xc02aaa39b223fe8d0a0e5c4f27ead9083c756cc2",
                    "decodedLog": {
                        "name": "Withdrawal",
                        "params": [
                            {
                                "name": "src",
                                "type": "address",
                                "value": "0xf73bd29daf60dfe09608d46f5e8eae87284fd3d3"
                            },
                            {
                                "name": "wad",
                                "type": "uint256",
                                "value": "51,947,921,866,710,374"
                            }
                        ],
                        "signature": "Withdrawal(address,uint256)"
                    },
                    "id": 17,
                    "logData": "0x00000000000000000000000000000000000000000000000000b88e5c15af5d66",
                    "logDecoded": true,
                    "operation": "EVENT",
                    "revert": false,
                    "status": true,
                    "topics": [
                        "0x7fcf532c15f0a6db0bd6d0e038bea71d30d808c7d98cb3bf7268a95bf5081b65",
                        "0x000000000000000000000000f73bd29daf60dfe09608d46f5e8eae87284fd3d3"
                    ]
                },
                "nodeType": 1
            },
            "18": {
                "invocation": {
                    "address": "0x6c1a5a30a3fb379a1da04e4aeaf8e3deababd6e0",
                    "callData": "0x",
                    "decodedMethod": null,
                    "errorInfo": "",
                    "fromAddress": "0xf73bd29daf60dfe09608d46f5e8eae87284fd3d3",
                    "gasUsed": 0,
                    "id": 18,
                    "methodDecoded": false,
                    "operation": "CALL",
                    "output": "",
                    "revert": false,
                    "revertMessage": "",
                    "selector": "fallback",
                    "status": true,
                    "value": "0.051947921866710374"
                },
                "nodeType": 0
            },
            "19": {
                "event": {
                    "contract": "0xf73bd29daf60dfe09608d46f5e8eae87284fd3d3",
                    "decodedLog": {
                        "name": "OrderRecord",
                        "params": [
                            {
                                "name": "fromToken",
                                "type": "address",
                                "value": "0xefa8fe54d5d82b4e8fd8a52558a4ce80ee586581"
                            },
                            {
                                "name": "toToken",
                                "type": "address",
                                "value": "0x0000000000000000000000000000000000000000"
                            },
                            {
                                "name": "sender",
                                "type": "address",
                                "value": "0x6c1a5a30a3fb379a1da04e4aeaf8e3deababd6e0"
                            },
                            {
                                "name": "fromAmount",
                                "type": "uint256",
                                "value": "903,285,464,828,322,217"
                            },
                            {
                                "name": "returnAmount",
                                "type": "uint256",
                                "value": "51,947,921,866,710,374"
                            }
                        ],
                        "signature": "OrderRecord(address,address,address,uint256,uint256)"
                    },
                    "id": 19,
                    "logData": "0x000000000000000000000000efa8fe54d5d82b4e8fd8a52558a4ce80ee58658100000000000000000000000000000000000000000000000000000000000000000000000000000000000000006c1a5a30a3fb379a1da04e4aeaf8e3deababd6e00000000000000000000000000000000000000000000000000c891d582ddda1a900000000000000000000000000000000000000000000000000b88e5c15af5d66",
                    "logDecoded": true,
                    "operation": "EVENT",
                    "revert": false,
                    "status": true,
                    "topics": [
                        "0x1bb43f2da90e35f7b0cf38521ca95a49e68eb42fac49924930a5bd73cdf7576c"
                    ]
                },
                "nodeType": 1
            },
            "2": {
                "invocation": {
                    "address": "0x70cbb871e8f30fc8ce23609e9e0ea87b6b222f58",
                    "callData": "0x000000000000000000000000efa8fe54d5d82b4e8fd8a52558a4ce80ee5865810000000000000000000000006c1a5a30a3fb379a1da04e4aeaf8e3deababd6e00000000000000000000000007111d694cef8ca4189c01645a0b1713e93a785540000000000000000000000000000000000000000000000000c891d582ddda1a9",
                    "decodedMethod": {
                        "callParams": [
                            {
                                "name": "token",
                                "type": "address",
                                "value": "0xefa8fe54d5d82b4e8fd8a52558a4ce80ee586581"
                            },
                            {
                                "name": "who",
                                "type": "address",
                                "value": "0x6c1a5a30a3fb379a1da04e4aeaf8e3deababd6e0"
                            },
                            {
                                "name": "dest",
                                "type": "address",
                                "value": "0x7111d694cef8ca4189c01645a0b1713e93a78554"
                            },
                            {
                                "name": "amount",
                                "type": "uint256",
                                "value": "903,285,464,828,322,217"
                            }
                        ],
                        "constructorArguments": "",
                        "name": "claimTokens",
                        "returnParams": [],
                        "signature": "claimTokens(address,address,address,uint256)"
                    },
                    "errorInfo": "",
                    "fromAddress": "0xf73bd29daf60dfe09608d46f5e8eae87284fd3d3",
                    "gasUsed": 63398,
                    "id": 2,
                    "methodDecoded": true,
                    "operation": "CALL",
                    "output": "",
                    "revert": false,
                    "revertMessage": "",
                    "selector": "0x0a5ea466",
                    "status": true,
                    "value": "0"
                },
                "nodeType": 0
            },
            "3": {
                "invocation": {
                    "address": "0x40aa958dd87fc8305b97f2ba922cddca374bcd7f",
                    "callData": "0x000000000000000000000000efa8fe54d5d82b4e8fd8a52558a4ce80ee5865810000000000000000000000006c1a5a30a3fb379a1da04e4aeaf8e3deababd6e00000000000000000000000007111d694cef8ca4189c01645a0b1713e93a785540000000000000000000000000000000000000000000000000c891d582ddda1a9",
                    "decodedMethod": {
                        "callParams": [
                            {
                                "name": "_token",
                                "type": "address",
                                "value": "0xefa8fe54d5d82b4e8fd8a52558a4ce80ee586581"
                            },
                            {
                                "name": "_who",
                                "type": "address",
                                "value": "0x6c1a5a30a3fb379a1da04e4aeaf8e3deababd6e0"
                            },
                            {
                                "name": "_dest",
                                "type": "address",
                                "value": "0x7111d694cef8ca4189c01645a0b1713e93a78554"
                            },
                            {
                                "name": "_amount",
                                "type": "uint256",
                                "value": "903,285,464,828,322,217"
                            }
                        ],
                        "constructorArguments": "",
                        "name": "claimTokens",
                        "returnParams": [],
                        "signature": "claimTokens(address,address,address,uint256)"
                    },
                    "errorInfo": "",
                    "fromAddress": "0x70cbb871e8f30fc8ce23609e9e0ea87b6b222f58",
                    "gasUsed": 55627,
                    "id": 3,
                    "methodDecoded": true,
                    "operation": "CALL",
                    "output": "",
                    "revert": false,
                    "revertMessage": "",
                    "selector": "0x0a5ea466",
                    "status": true,
                    "value": "0"
                },
                "nodeType": 0
            },
            "4": {
                "invocation": {
                    "address": "0xefa8fe54d5d82b4e8fd8a52558a4ce80ee586581",
                    "callData": "0x0000000000000000000000006c1a5a30a3fb379a1da04e4aeaf8e3deababd6e00000000000000000000000007111d694cef8ca4189c01645a0b1713e93a785540000000000000000000000000000000000000000000000000c891d582ddda1a9",
                    "decodedMethod": {
                        "callParams": [
                            {
                                "name": "sender",
                                "type": "address",
                                "value": "0x6c1a5a30a3fb379a1da04e4aeaf8e3deababd6e0"
                            },
                            {
                                "name": "recipient",
                                "type": "address",
                                "value": "0x7111d694cef8ca4189c01645a0b1713e93a78554"
                            },
                            {
                                "decimalAvailable": true,
                                "name": "amount",
                                "type": "uint256",
                                "value": "903,285,464,828,322,217"
                            }
                        ],
                        "constructorArguments": "",
                        "name": "transferFrom",
                        "returnParams": [
                            {
                                "name": "",
                                "type": "bool",
                                "value": true
                            }
                        ],
                        "signature": "transferFrom(address,address,uint256)"
                    },
                    "errorInfo": "",
                    "fromAddress": "0x40aa958dd87fc8305b97f2ba922cddca374bcd7f",
                    "gasUsed": 48985,
                    "id": 4,
                    "methodDecoded": true,
                    "operation": "CALL",
                    "output": "0x0000000000000000000000000000000000000000000000000000000000000001",
                    "revert": false,
                    "revertMessage": "",
                    "selector": "0x23b872dd",
                    "status": true,
                    "value": "0"
                },
                "nodeType": 0
            },
            "5": {
                "event": {
                    "contract": "0xefa8fe54d5d82b4e8fd8a52558a4ce80ee586581",
                    "decodedLog": {
                        "name": "Transfer",
                        "params": [
                            {
                                "name": "from",
                                "type": "address",
                                "value": "0x6c1a5a30a3fb379a1da04e4aeaf8e3deababd6e0"
                            },
                            {
                                "name": "to",
                                "type": "address",
                                "value": "0x7111d694cef8ca4189c01645a0b1713e93a78554"
                            },
                            {
                                "decimalAvailable": true,
                                "name": "value",
                                "type": "uint256",
                                "value": "903,285,464,828,322,217"
                            }
                        ],
                        "signature": "Transfer(address,address,uint256)"
                    },
                    "id": 5,
                    "logData": "0x0000000000000000000000000000000000000000000000000c891d582ddda1a9",
                    "logDecoded": true,
                    "operation": "EVENT",
                    "revert": false,
                    "status": true,
                    "topics": [
                        "0xddf252ad1be2c89b69c2b068fc378daa952ba7f163c4a11628f55a4df523b3ef",
                        "0x0000000000000000000000006c1a5a30a3fb379a1da04e4aeaf8e3deababd6e0",
                        "0x0000000000000000000000007111d694cef8ca4189c01645a0b1713e93a78554"
                    ]
                },
                "nodeType": 1
            },
            "6": {
                "event": {
                    "contract": "0xefa8fe54d5d82b4e8fd8a52558a4ce80ee586581",
                    "decodedLog": {
                        "name": "Approval",
                        "params": [
                            {
                                "name": "owner",
                                "type": "address",
                                "value": "0x6c1a5a30a3fb379a1da04e4aeaf8e3deababd6e0"
                            },
                            {
                                "name": "spender",
                                "type": "address",
                                "value": "0x40aa958dd87fc8305b97f2ba922cddca374bcd7f"
                            },
                            {
                                "decimalAvailable": true,
                                "name": "value",
                                "type": "uint256",
                                "value": "115,792,089,237,316,195,423,570,985,008,687,907,853,269,984,665,640,564,039,456,680,722,448,301,317,718"
                            }
                        ],
                        "signature": "Approval(address,address,uint256)"
                    },
                    "id": 6,
                    "logData": "0xfffffffffffffffffffffffffffffffffffffffffffffffff376e2a7d2225e56",
                    "logDecoded": true,
                    "operation": "EVENT",
                    "revert": false,
                    "status": true,
                    "topics": [
                        "0x8c5be1e5ebec7d5bd14f71427d1e84f3dd0314c0f7b2291e5b200ac8c7c3b925",
                        "0x0000000000000000000000006c1a5a30a3fb379a1da04e4aeaf8e3deababd6e0",
                        "0x00000000000000000000000040aa958dd87fc8305b97f2ba922cddca374bcd7f"
                    ]
                },
                "nodeType": 1
            },
            "7": {
                "invocation": {
                    "address": "0x7111d694cef8ca4189c01645a0b1713e93a78554",
                    "callData": "0x",
                    "decodedMethod": {
                        "callParams": [],
                        "constructorArguments": "",
                        "name": "getReserves",
                        "returnParams": [
                            {
                                "name": "_reserve0",
                                "type": "uint112",
                                "value": "5,956,442,939,059,845,501"
                            },
                            {
                                "name": "_reserve1",
                                "type": "uint112",
                                "value": "102,361,057,026,437,650,198"
                            },
                            {
                                "name": "_blockTimestampLast",
                                "type": "uint32",
                                "value": "1,701,662,063"
                            }
                        ],
                        "signature": "getReserves()"
                    },
                    "errorInfo": "",
                    "fromAddress": "0xf73bd29daf60dfe09608d46f5e8eae87284fd3d3",
                    "gasUsed": 2504,
                    "id": 7,
                    "methodDecoded": true,
                    "operation": "STATICCALL",
                    "output": "0x00000000000000000000000000000000000000000000000052a9894b638bb97d0000000000000000000000000000000000000000000000058c8b87088e51971600000000000000000000000000000000000000000000000000000000656d4d6f",
                    "revert": false,
                    "revertMessage": "",
                    "selector": "0x0902f1ac",
                    "status": true,
                    "value": "0"
                },
                "nodeType": 0
            },
            "8": {
                "invocation": {
                    "address": "0x7111d694cef8ca4189c01645a0b1713e93a78554",
                    "callData": "0x00000000000000000000000000000000000000000000000000b88e5c15af5d660000000000000000000000000000000000000000000000000000000000000000000000000000000000000000f73bd29daf60dfe09608d46f5e8eae87284fd3d300000000000000000000000000000000000000000000000000000000000000800000000000000000000000000000000000000000000000000000000000000000",
                    "decodedMethod": {
                        "callParams": [
                            {
                                "name": "amount0Out",
                                "type": "uint256",
                                "value": "51,947,921,866,710,374"
                            },
                            {
                                "name": "amount1Out",
                                "type": "uint256",
                                "value": "0"
                            },
                            {
                                "name": "to",
                                "type": "address",
                                "value": "0xf73bd29daf60dfe09608d46f5e8eae87284fd3d3"
                            },
                            {
                                "name": "data",
                                "type": "bytes",
                                "value": "0x"
                            }
                        ],
                        "constructorArguments": "",
                        "name": "swap",
                        "returnParams": [],
                        "signature": "swap(uint256,uint256,address,bytes)"
                    },
                    "errorInfo": "",
                    "fromAddress": "0xf73bd29daf60dfe09608d46f5e8eae87284fd3d3",
                    "gasUsed": 54520,
                    "id": 8,
                    "methodDecoded": true,
                    "operation": "CALL",
                    "output": "",
                    "revert": false,
                    "revertMessage": "",
                    "selector": "0x022c0d9f",
                    "status": true,
                    "value": "0"
                },
                "nodeType": 0
            },
            "9": {
                "invocation": {
                    "address": "0xc02aaa39b223fe8d0a0e5c4f27ead9083c756cc2",
                    "callData": "0x000000000000000000000000f73bd29daf60dfe09608d46f5e8eae87284fd3d300000000000000000000000000000000000000000000000000b88e5c15af5d66",
                    "decodedMethod": {
                        "callParams": [
                            {
                                "name": "dst",
                                "type": "address",
                                "value": "0xf73bd29daf60dfe09608d46f5e8eae87284fd3d3"
                            },
                            {
                                "decimalAvailable": true,
                                "name": "wad",
                                "type": "uint256",
                                "value": "51,947,921,866,710,374"
                            }
                        ],
                        "constructorArguments": "",
                        "name": "transfer",
                        "returnParams": [
                            {
                                "name": "",
                                "type": "bool",
                                "value": true
                            }
                        ],
                        "signature": "transfer(address,uint256)"
                    },
                    "errorInfo": "",
                    "fromAddress": "0x7111d694cef8ca4189c01645a0b1713e93a78554",
                    "gasUsed": 29962,
                    "id": 9,
                    "methodDecoded": true,
                    "operation": "CALL",
                    "output": "0x0000000000000000000000000000000000000000000000000000000000000001",
                    "revert": false,
                    "revertMessage": "",
                    "selector": "0xa9059cbb",
                    "status": true,
                    "value": "0"
                },
                "nodeType": 0
            }
        },
        "gasFlame": [
            {
                "children": [
                    {
                        "children": [
                            {
                                "children": [],
                                "depth": 0,
                                "name": "Initial Gas",
                                "value": 23052
                            },
                            {
                                "children": [
                                    {
                                        "children": [
                                            {
                                                "children": [
                                                    {
                                                        "children": [],
                                                        "depth": 3,
                                                        "name": "transferFrom",
                                                        "value": 48985
                                                    }
                                                ],
                                                "depth": 2,
                                                "name": "claimTokens",
                                                "value": 55627
                                            }
                                        ],
                                        "depth": 1,
                                        "name": "claimTokens",
                                        "value": 63398
                                    },
                                    {
                                        "children": [],
                                        "depth": 1,
                                        "name": "getReserves",
                                        "value": 2504
                                    },
                                    {
                                        "children": [
                                            {
                                                "children": [],
                                                "depth": 2,
                                                "name": "transfer",
                                                "value": 29962
                                            },
                                            {
                                                "children": [],
                                                "depth": 2,
                                                "name": "balanceOf",
                                                "value": 534
                                            },
                                            {
                                                "children": [],
                                                "depth": 2,
                                                "name": "balanceOf",
                                                "value": 617
                                            }
                                        ],
                                        "depth": 1,
                                        "name": "swap",
                                        "value": 54520
                                    },
                                    {
                                        "children": [
                                            {
                                                "children": [],
                                                "depth": 2,
                                                "name": "fallback",
                                                "value": 76
                                            }
                                        ],
                                        "depth": 1,
                                        "name": "withdraw",
                                        "value": 9216
                                    },
                                    {
                                        "children": [],
                                        "depth": 1,
                                        "name": "fallback",
                                        "value": 0
                                    }
                                ],
                                "depth": 0,
                                "name": "Executed Gas",
                                "value": 146743
                            }
                        ],
                        "depth": -1,
                        "name": "Actual Gas Used",
                        "value": 147095
                    },
                    {
                        "children": [],
                        "depth": -1,
                        "name": "Refunded Gas",
                        "value": 22700
                    }
                ],
                "depth": -2,
                "name": "Total Gas",
                "value": 169795
            }
        ],
        "isConfirmed": true,
        "mainTrace": [
            {
                "children": [
                    {
                        "children": [
                            {
                                "children": [],
                                "depth": 1,
                                "id": 1,
                                "order": 1
                            },
                            {
                                "children": [
                                    {
                                        "children": [
                                            {
                                                "children": [
                                                    {
                                                        "children": [],
                                                        "depth": 4,
                                                        "id": 5,
                                                        "order": 5
                                                    },
                                                    {
                                                        "children": [],
                                                        "depth": 4,
                                                        "id": 6,
                                                        "order": 6
                                                    }
                                                ],
                                                "depth": 3,
                                                "id": 4,
                                                "order": 4
                                            }
                                        ],
                                        "depth": 2,
                                        "id": 3,
                                        "order": 3
                                    }
                                ],
                                "depth": 1,
                                "id": 2,
                                "order": 2
                            },
                            {
                                "children": [],
                                "depth": 1,
                                "id": 7,
                                "order": 7
                            },
                            {
                                "children": [
                                    {
                                        "children": [
                                            {
                                                "children": [],
                                                "depth": 3,
                                                "id": 10,
                                                "order": 10
                                            }
                                        ],
                                        "depth": 2,
                                        "id": 9,
                                        "order": 9
                                    },
                                    {
                                        "children": [],
                                        "depth": 2,
                                        "id": 11,
                                        "order": 11
                                    },
                                    {
                                        "children": [],
                                        "depth": 2,
                                        "id": 12,
                                        "order": 12
                                    },
                                    {
                                        "children": [],
                                        "depth": 2,
                                        "id": 13,
                                        "order": 13
                                    },
                                    {
                                        "children": [],
                                        "depth": 2,
                                        "id": 14,
                                        "order": 14
                                    }
                                ],
                                "depth": 1,
                                "id": 8,
                                "order": 8
                            },
                            {
                                "children": [
                                    {
                                        "children": [],
                                        "depth": 2,
                                        "id": 16,
                                        "order": 16
                                    },
                                    {
                                        "children": [],
                                        "depth": 2,
                                        "id": 17,
                                        "order": 17
                                    }
                                ],
                                "depth": 1,
                                "id": 15,
                                "order": 15
                            },
                            {
                                "children": [],
                                "depth": 1,
                                "id": 18,
                                "order": 18
                            },
                            {
                                "children": [],
                                "depth": 1,
                                "id": 19,
                                "order": 19
                            }
                        ],
                        "depth": 0,
                        "id": 0,
                        "order": 0
                    }
                ],
                "depth": -1,
                "id": -1,
                "order": -1
            }
        ],
        "mainTraceNodeCount": 20,
        "parentIdMap": {
            "0": -1,
            "1": 0,
            "10": 9,
            "11": 8,
            "12": 8,
            "13": 8,
            "14": 8,
            "15": 0,
            "16": 15,
            "17": 15,
            "18": 0,
            "19": 0,
            "2": 0,
            "3": 2,
            "4": 3,
            "5": 4,
            "6": 4,
            "7": 0,
            "8": 0,
            "9": 8
        },
        "tidyTrace": [
            {
                "children": [
                    {
                        "children": [
                            {
                                "children": [],
                                "depth": 1,
                                "id": 1,
                                "order": 1
                            },
                            {
                                "children": [
                                    {
                                        "children": [
                                            {
                                                "children": [
                                                    {
                                                        "children": [],
                                                        "depth": 4,
                                                        "id": 5,
                                                        "order": 5
                                                    },
                                                    {
                                                        "children": [],
                                                        "depth": 4,
                                                        "id": 6,
                                                        "order": 6
                                                    }
                                                ],
                                                "depth": 3,
                                                "id": 4,
                                                "order": 4
                                            }
                                        ],
                                        "depth": 2,
                                        "id": 3,
                                        "order": 3
                                    }
                                ],
                                "depth": 1,
                                "id": 2,
                                "order": 2
                            },
                            {
                                "children": [
                                    {
                                        "children": [
                                            {
                                                "children": [],
                                                "depth": 3,
                                                "id": 10,
                                                "order": 10
                                            }
                                        ],
                                        "depth": 2,
                                        "id": 9,
                                        "order": 9
                                    },
                                    {
                                        "children": [],
                                        "depth": 2,
                                        "id": 13,
                                        "order": 13
                                    },
                                    {
                                        "children": [],
                                        "depth": 2,
                                        "id": 14,
                                        "order": 14
                                    }
                                ],
                                "depth": 1,
                                "id": 8,
                                "order": 8
                            },
                            {
                                "children": [
                                    {
                                        "children": [],
                                        "depth": 2,
                                        "id": 16,
                                        "order": 16
                                    },
                                    {
                                        "children": [],
                                        "depth": 2,
                                        "id": 17,
                                        "order": 17
                                    }
                                ],
                                "depth": 1,
                                "id": 15,
                                "order": 15
                            },
                            {
                                "children": [],
                                "depth": 1,
                                "id": 18,
                                "order": 18
                            },
                            {
                                "children": [],
                                "depth": 1,
                                "id": 19,
                                "order": 19
                            }
                        ],
                        "depth": 0,
                        "id": 0,
                        "order": 0
                    }
                ],
                "depth": -1,
                "id": -1,
                "order": -1
            }
        ],
        "tidyTraceNodeCount": 17
    },
    "state_change": {
        "stateChanges": [
            {
                "address": "0x7111d694cef8ca4189c01645a0b1713e93a78554",
                "erc": "ERC-20",
                "slots": [
                    {
                        "current": "0x656d4d6f0000000000059914a460bc2f38bf00000000000051f0faef4ddc5c17",
                        "key": "0x0000000000000000000000000000000000000000000000000000000000000008",
                        "prev": "0x656d4d6f0000000000058c8b87088e51971600000000000052a9894b638bb97d"
                    }
                ],
                "storageVariables": [
                    {
                        "name": "reserve0",
                        "type": "uint112",
                        "value": {
                            "current": "5904495017193135127",
                            "prev": "5956442939059845501",
                            "typeTag": 1
                        }
                    },
                    {
                        "name": "reserve1",
                        "type": "uint112",
                        "value": {
                            "current": "103264342491265972415",
                            "prev": "102361057026437650198",
                            "typeTag": 1
                        }
                    },
                    {
                        "name": "blockTimestampLast",
                        "type": "uint32",
                        "value": {
                            "current": "1701662063",
                            "prev": "1701662063",
                            "typeTag": 1
                        }
                    }
                ]
            },
            {
                "address": "0xc02aaa39b223fe8d0a0e5c4f27ead9083c756cc2",
                "erc": "ERC-20",
                "slots": [
                    {
                        "current": "0x00000000000000000000000000000000000000000000000051f0faef4ddc5c17",
                        "key": "0x5b1b0621bcc20800f4788d4067b47f2d2727cba9ef156f0c25297969ba0e6962",
                        "prev": "0x00000000000000000000000000000000000000000000000052a9894b638bb97d"
                    }
                ],
                "storageVariables": [
                    {
                        "name": "balanceOf",
                        "type": "mapping(address => uint256)",
                        "value": {
                            "pairs": [
                                {
                                    "key": "0x7111d694cef8ca4189c01645a0b1713e93a78554",
                                    "value": {
                                        "current": "5904495017193135127",
                                        "prev": "5956442939059845501",
                                        "typeTag": 1
                                    }
                                }
                            ],
                            "typeTag": 4
                        }
                    }
                ]
            },
            {
                "address": "0xefa8fe54d5d82b4e8fd8a52558a4ce80ee586581",
                "erc": "ERC-20",
                "slots": [
                    {
                        "current": "0x00000000000000000000000000000000000000000000000008ed00ff0f857173",
                        "key": "0xe57900381da808674016e246a7f3309f2c2dadde025583ca4286ebbd666b784f",
                        "prev": "0x00000000000000000000000000000000000000000000000015761e573d63131c"
                    },
                    {
                        "current": "0x0000000000000000000000000000000000000000000000059914a460bc2f38bf",
                        "key": "0x0fa87d20e6481a38d6bf64f244ab4924180020389b7ac08b76968887661c172c",
                        "prev": "0x0000000000000000000000000000000000000000000000058c8b87088e519716"
                    },
                    {
                        "current": "0xfffffffffffffffffffffffffffffffffffffffffffffffff376e2a7d2225e56",
                        "key": "0xe9381563518ff5b71c794d31c803f0bdf7568cefd0230d786a0bc9e548fb2622",
                        "prev": "0xffffffffffffffffffffffffffffffffffffffffffffffffffffffffffffffff"
                    }
                ],
                "storageVariables": [
                    {
                        "name": "_balances",
                        "type": "mapping(address => uint256)",
                        "value": {
                            "pairs": [
                                {
                                    "key": "0x6c1a5a30a3fb379a1da04e4aeaf8e3deababd6e0",
                                    "value": {
                                        "current": "643171417260913011",
                                        "prev": "1546456882089235228",
                                        "typeTag": 1
                                    }
                                },
                                {
                                    "key": "0x7111d694cef8ca4189c01645a0b1713e93a78554",
                                    "value": {
                                        "current": "103264342491265972415",
                                        "prev": "102361057026437650198",
                                        "typeTag": 1
                                    }
                                }
                            ],
                            "typeTag": 4
                        }
                    },
                    {
                        "name": "_allowances",
                        "type": "mapping(address => mapping(address => uint256))",
                        "value": {
                            "pairs": [
                                {
                                    "key": "0x6c1a5a30a3fb379a1da04e4aeaf8e3deababd6e0",
                                    "value": {
                                        "pairs": [
                                            {
                                                "key": "0x40aa958dd87fc8305b97f2ba922cddca374bcd7f",
                                                "value": {
                                                    "current": "115792089237316195423570985008687907853269984665640564039456680722448301317718",
                                                    "prev": "115792089237316195423570985008687907853269984665640564039457584007913129639935",
                                                    "typeTag": 1
                                                }
                                            }
                                        ],
                                        "typeTag": 4
                                    }
                                }
                            ],
                            "typeTag": 4
                        }
                    }
                ]
            }
        ]
    }
}