{
    "balance_change": {
        "balanceChanges": [
            {
                "account": "0x3caec6f54993526c9e2744a4fa54a19b90a3bd87",
                "assets": [
                    {
                        "address": "0x5c3a228510d246b78a3765c20221cbf3082b44a4",
                        "amount": "46,000.000000000004194304",
                        "iconUrl": "https://assets.blocksec.com/icon/13605ab40abbc541718ba7fcc96266945b2f3b663ee5e307425ef2757ef1b76d.png",
                        "isERC1155": false,
                        "isERC721": false,
                        "sign": false,
                        "value": ""
                    }
                ]
            },
            {
                "account": "0xc3fce851ab66f1b72ced0a688c39aec30de496f1",
                "assets": [
                    {
                        "address": "0x5c3a228510d246b78a3765c20221cbf3082b44a4",
                        "amount": "46,000.000000000004194304",
                        "iconUrl": "https://assets.blocksec.com/icon/13605ab40abbc541718ba7fcc96266945b2f3b663ee5e307425ef2757ef1b76d.png",
                        "isERC1155": false,
                        "isERC721": false,
                        "sign": true,
                        "value": ""
                    }
                ]
            }
        ]
    },
    "profile": {
        "basic_info": {
            "baseFee": "",
            "blockNumber": 6442341,
            "callData": "0xa9059cbb000000000000000000000000c3fce851ab66f1b72ced0a688c39aec30de496f10000000000000000000000000000000000000000000009bdaa3d398e01000000",
            "debugEnable": true,
            "errorInfo": "",
            "eventCount": 1,
            "feeRecipient": "0xb2930b35844a230f00e51431acae96fe543a0347",
            "formatValue": "0",
            "gasLimit": 80074,
            "gasPrice": "7.09375",
            "gasUsed": 40037,
            "intTxnCount": 0,
            "internalRevert": false,
            "internalRevertMessage": "",
            "isContractCreation": false,
            "isFlashloan": false,
            "maxFee": "",
            "nonce": 5041,
            "overwritedBlockNumber": -1,
            "priorityFee": "",
            "receiver": "0x5c3a228510d246b78a3765c20221cbf3082b44a4",
            "revertMessage": "",
            "sender": "0x3caec6f54993526c9e2744a4fa54a19b90a3bd87",
            "simulationEnable": true,
            "sourceTxnHash": "0xf0b3d0ca5f4a2b13d21fd20d9b99bc75bd63050caca345d1acb6c22d3a4fe7db",
            "status": true,
            "timestamp": "2018-10-02T23:14:08Z",
            "transactionFee": "0.00028401246875",
            "txnHash": "0xf0b3d0ca5f4a2b13d21fd20d9b99bc75bd63050caca345d1acb6c22d3a4fe7db",
            "txnIndex": 39,
            "type": 0,
            "value": "0"
        },
        "fund_flow": [
            {
                "amount": "46,000.000000000004194304",
                "from": "0x3caec6f54993526c9e2744a4fa54a19b90a3bd87",
                "id": 1,
                "isERC1155": false,
                "isERC721": false,
                "isReverted": false,
                "order": 1,
                "to": "0xc3fce851ab66f1b72ced0a688c39aec30de496f1",
                "token": "0x5c3a228510d246b78a3765c20221cbf3082b44a4"
            }
        ],
        "token_infos": [
            {
                "address": "0xc02aaa39b223fe8d0a0e5c4f27ead9083c756cc2",
                "decimals": 18
            },
            {
                "address": "0xeeeeeeeeeeeeeeeeeeeeeeeeeeeeeeeeeeeeeeee",
                "decimals": 18
            },
            {
                "address": "0x5c3a228510d246b78a3765c20221cbf3082b44a4",
                "decimals": 18
            }
        ]
    },
    "address_label": {
        "labels": [
            {
                "address": "0xeeeeeeeeeeeeeeeeeeeeeeeeeeeeeeeeeeeeeeee",
                "label": "Ether"
            },
            {
                "address": "0x5c3a228510d246b78a3765c20221cbf3082b44a4",
                "label": "Storiqa (STQ)"
            },
            {
                "address": "0xc3fce851ab66f1b72ced0a688c39aec30de496f1",
                "label": "HITBTC"
            },
            {
                "address": "0x0000000000000000000000000000000000000001",
                "label": "Precompiled"
            },
            {
                "address": "0x0000000000000000000000000000000000000002",
                "label": "Precompiled"
            },
            {
                "address": "0x0000000000000000000000000000000000000003",
                "label": "Precompiled"
            },
            {
                "address": "0x0000000000000000000000000000000000000004",
                "label": "Precompiled"
            }
        ]
    },
    "trace": {
        "accountLabels": null,
        "dataMap": {
            "-1": {
                "invocation": {
                    "address": "0x3caec6f54993526c9e2744a4fa54a19b90a3bd87",
                    "callData": "",
                    "decodedMethod": null,
                    "errorInfo": "",
                    "fromAddress": "",
                    "gasUsed": 0,
                    "id": -1,
                    "methodDecoded": false,
                    "operation": "",
                    "output": "",
                    "revert": false,
                    "revertMessage": "",
                    "selector": "",
                    "status": false,
                    "value": ""
                },
                "nodeType": 0
            },
            "0": {
                "invocation": {
                    "address": "0x5c3a228510d246b78a3765c20221cbf3082b44a4",
                    "callData": "0x000000000000000000000000c3fce851ab66f1b72ced0a688c39aec30de496f10000000000000000000000000000000000000000000009bdaa3d398e01000000",
                    "decodedMethod": {
                        "callParams": [
                            {
                                "name": "_to",
                                "type": "address",
                                "value": "0xc3fce851ab66f1b72ced0a688c39aec30de496f1"
                            },
                            {
                                "decimalAvailable": true,
                                "name": "_value",
                                "type": "uint256",
                                "value": "46,000,000,000,000,004,194,304"
                            }
                        ],
                        "constructorArguments": "",
                        "name": "transfer",
                        "returnParams": [
                            {
                                "name": "",
                                "type": "bool",
                                "value": true
                            }
                        ],
                        "signature": "transfer(address,uint256)"
                    },
                    "errorInfo": "",
                    "fromAddress": "0x3caec6f54993526c9e2744a4fa54a19b90a3bd87",
                    "gasUsed": 40037,
                    "id": 0,
                    "methodDecoded": true,
                    "operation": "CALL",
                    "output": "0x0000000000000000000000000000000000000000000000000000000000000001",
                    "revert": false,
                    "revertMessage": "",
                    "selector": "0xa9059cbb",
                    "status": true,
                    "value": "0"
                },
                "nodeType": 0
            },
            "1": {
                "event": {
                    "contract": "0x5c3a228510d246b78a3765c20221cbf3082b44a4",
                    "decodedLog": {
                        "name": "Transfer",
                        "params": [
                            {
                                "name": "from",
                                "type": "address",
                                "value": "0x3caec6f54993526c9e2744a4fa54a19b90a3bd87"
                            },
                            {
                                "name": "to",
                                "type": "address",
                                "value": "0xc3fce851ab66f1b72ced0a688c39aec30de496f1"
                            },
                            {
                                "decimalAvailable": true,
                                "name": "value",
                                "type": "uint256",
                                "value": "46,000,000,000,000,004,194,304"
                            }
                        ],
                        "signature": "Transfer(address,address,uint256)"
                    },
                    "id": 1,
                    "logData": "0x0000000000000000000000000000000000000000000009bdaa3d398e01000000",
                    "logDecoded": true,
                    "operation": "EVENT",
                    "revert": false,
                    "status": true,
                    "topics": [
                        "0xddf252ad1be2c89b69c2b068fc378daa952ba7f163c4a11628f55a4df523b3ef",
                        "0x0000000000000000000000003caec6f54993526c9e2744a4fa54a19b90a3bd87",
                        "0x000000000000000000000000c3fce851ab66f1b72ced0a688c39aec30de496f1"
                    ]
                },
                "nodeType": 1
            }
        },
        "gasFlame": [
            {
                "children": [
                    {
                        "children": [
                            {
                                "children": [],
                                "depth": 0,
                                "name": "Initial Gas",
                                "value": 23256
                            },
                            {
                                "children": [],
                                "depth": 0,
                                "name": "Executed Gas",
                                "value": 16781
                            }
                        ],
                        "depth": -1,
                        "name": "Actual Gas Used",
                        "value": 40037
                    },
                    {
                        "children": [],
                        "depth": -1,
                        "name": "Refunded Gas",
                        "value": 0
                    }
                ],
                "depth": -2,
                "name": "Total Gas",
                "value": 40037
            }
        ],
        "isConfirmed": true,
        "mainTrace": [
            {
                "children": [
                    {
                        "children": [
                            {
                                "children": [],
                                "depth": 1,
                                "id": 1,
                                "order": 1
                            }
                        ],
                        "depth": 0,
                        "id": 0,
                        "order": 0
                    }
                ],
                "depth": -1,
                "id": -1,
                "order": -1
            }
        ],
        "mainTraceNodeCount": 2,
        "parentIdMap": {
            "0": -1,
            "1": 0
        },
        "tidyTrace": [
            {
                "children": [
                    {
                        "children": [
                            {
                                "children": [],
                                "depth": 1,
                                "id": 1,
                                "order": 1
                            }
                        ],
                        "depth": 0,
                        "id": 0,
                        "order": 0
                    }
                ],
                "depth": -1,
                "id": -1,
                "order": -1
            }
        ],
        "tidyTraceNodeCount": 2
    },
    "state_change": {
        "stateChanges": [
            {
                "address": "0x5c3a228510d246b78a3765c20221cbf3082b44a4",
                "erc": "ERC-20",
                "slots": [
                    {
                        "current": "0x00000000000000000000000000000000000000000001af903c39d76a969e8000",
                        "key": "0x61647d0ba075a0991be918c35db2e6b503e1eed014adc4132edcfa120c634b6c",
                        "prev": "0x00000000000000000000000000000000000000000001a5d291fc9ddc959e8000"
                    },
                    {
                        "current": "0x0000000000000000000000000000000000000000001bfe7be119f2223d674e7b",
                        "key": "0x7e10c8169b7b60ed209638009e37859f3914071c56f85ee78cecf0896ac5b1c2",
                        "prev": "0x0000000000000000000000000000000000000000001c08398b572bb03e674e7b"
                    }
                ],
                "storageVariables": [
                    {
                        "name": "balances",
                        "type": "mapping(address => uint256)",
                        "value": {
                            "pairs": [
                                {
                                    "key": "0x3caec6f54993526c9e2744a4fa54a19b90a3bd87",
                                    "value": {
                                        "current": "33842763386026705700736635",
                                        "prev": "33888763386026705704930939",
                                        "typeTag": 1
                                    }
                                },
                                {
                                    "key": "0xc3fce851ab66f1b72ced0a688c39aec30de496f1",
                                    "value": {
                                        "current": "2038000625000000004194304",
                                        "prev": "1992000625000000000000000",
                                        "typeTag": 1
                                    }
                                }
                            ],
                            "typeTag": 4
                        }
                    }
                ]
            }
        ]
    }
}