{
    "balance_change": {
        "balanceChanges": [
            {
                "account": "0xe272a25b3b30a6c76ab15224f24eaaeed24abed9",
                "assets": [
                    {
                        "address": "0x57ab1e02fee23774580c119740129eac7081e9d3",
                        "amount": "40.563365",
                        "iconUrl": "",
                        "isERC1155": false,
                        "isERC721": false,
                        "sign": false,
                        "value": ""
                    },
                    {
                        "address": "0x6a22e5e94388464181578aa7a6b869e00fe27846",
                        "amount": "2.255724363560150901",
                        "iconUrl": "",
                        "isERC1155": false,
                        "isERC721": false,
                        "sign": true,
                        "value": ""
                    }
                ]
            },
            {
                "account": "0x0000000000000000000000000000000000000000",
                "assets": [
                    {
                        "address": "0x57ab1e02fee23774580c119740129eac7081e9d3",
                        "amount": "40.563365",
                        "iconUrl": "",
                        "isERC1155": false,
                        "isERC721": false,
                        "sign": true,
                        "value": ""
                    },
                    {
                        "address": "0x6a22e5e94388464181578aa7a6b869e00fe27846",
                        "amount": "2.255724363560150901",
                        "iconUrl": "",
                        "isERC1155": false,
                        "isERC721": false,
                        "sign": false,
                        "value": ""
                    },
                    {
                        "address": "0xb3f67de9a919476a4c0fe821d67bf5c4637d8429",
                        "amount": "39,137,756,562,122,079",
                        "iconUrl": "",
                        "isERC1155": false,
                        "isERC721": false,
                        "sign": false,
                        "value": ""
                    }
                ]
            },
            {
                "account": "0xfeefeefeefeefeefeefeefeefeefeefeefeefeef",
                "assets": [
                    {
                        "address": "0xb3f67de9a919476a4c0fe821d67bf5c4637d8429",
                        "amount": "39,137,756,562,122,079",
                        "iconUrl": "",
                        "isERC1155": false,
                        "isERC721": false,
                        "sign": true,
                        "value": ""
                    }
                ]
            }
        ]
    },
    "profile": {
        "basic_info": {
            "baseFee": "",
            "blockNumber": 9198450,
            "callData": "0xee52a2f3735553440000000000000000000000000000000000000000000000000000000000000000000000000000000000000000000000000000000232ee058db78350007358414700000000000000000000000000000000000000000000000000000000",
            "debugEnable": true,
            "errorInfo": "",
            "eventCount": 7,
            "feeRecipient": "0x5a0b54d5dc17e0aadc383d2db43b0a0d3e029c4c",
            "formatValue": "0",
            "gasLimit": 600000,
            "gasPrice": "1",
            "gasUsed": 347653,
            "intTxnCount": 54,
            "internalRevert": false,
            "internalRevertMessage": "",
            "isContractCreation": false,
            "isFlashloan": false,
            "maxFee": "",
            "nonce": 515,
            "overwritedBlockNumber": -1,
            "priorityFee": "",
            "receiver": "0xc011a72400e58ecd99ee497cf89e3775d4bd732f",
            "revertMessage": "",
            "sender": "0xe272a25b3b30a6c76ab15224f24eaaeed24abed9",
            "simulationEnable": true,
            "sourceTxnHash": "0xf06287ab1bdbc3bc9d3b737b73b9e4d8f591b81534c882e59960e861f71dc149",
            "status": true,
            "timestamp": "2020-01-02T00:56:33Z",
            "transactionFee": "0.000347653",
            "txnHash": "0xf06287ab1bdbc3bc9d3b737b73b9e4d8f591b81534c882e59960e861f71dc149",
            "txnIndex": 11,
            "type": 0,
            "value": "0"
        },
        "fund_flow": [
            {
                "amount": "40.563365",
                "from": "0xe272a25b3b30a6c76ab15224f24eaaeed24abed9",
                "id": 1,
                "isERC1155": false,
                "isERC721": false,
                "isReverted": false,
                "order": 1,
                "to": "0x0000000000000000000000000000000000000000",
                "token": "0x57ab1e02fee23774580c119740129eac7081e9d3"
            },
            {
                "amount": "2.255724363560150901",
                "from": "0x0000000000000000000000000000000000000000",
                "id": 2,
                "isERC1155": false,
                "isERC721": false,
                "isReverted": false,
                "order": 2,
                "to": "0xe272a25b3b30a6c76ab15224f24eaaeed24abed9",
                "token": "0x6a22e5e94388464181578aa7a6b869e00fe27846"
            },
            {
                "amount": "39,137,756,562,122,079",
                "from": "0x0000000000000000000000000000000000000000",
                "id": 3,
                "isERC1155": false,
                "isERC721": false,
                "isReverted": false,
                "order": 3,
                "to": "0xfeefeefeefeefeefeefeefeefeefeefeefeefeef",
                "token": "0xb3f67de9a919476a4c0fe821d67bf5c4637d8429"
            }
        ],
        "token_infos": [
            {
                "address": "0x57ab1e02fee23774580c119740129eac7081e9d3",
                "decimals": 18
            },
            {
                "address": "0x6a22e5e94388464181578aa7a6b869e00fe27846",
                "decimals": 18
            },
            {
                "address": "0xc02aaa39b223fe8d0a0e5c4f27ead9083c756cc2",
                "decimals": 18
            },
            {
                "address": "0xeeeeeeeeeeeeeeeeeeeeeeeeeeeeeeeeeeeeeeee",
                "decimals": 18
            }
        ]
    },
    "address_label": {
        "labels": [
            {
                "address": "0x53d244fb46357568dbef082225ccc87cbd94aae8",
                "label": "Synthetix: Token State sXAG"
            },
            {
                "address": "0xfeefeefeefeefeefeefeefeefeefeefeefeefeef",
                "label": "Synthetix: Fee Address"
            },
            {
                "address": "0xc011a72400e58ecd99ee497cf89e3775d4bd732f",
                "label": "Synthetix: Legacy Proxy SNX"
            },
            {
                "address": "0x151445852b0cfdf6a4cc81440f2af99176e8ad08",
                "label": "Chainlink: GBP / USD Aggregator"
            },
            {
                "address": "0x0000000000000000000000000000000000000002",
                "label": "Precompiled"
            },
            {
                "address": "0x289e9a4674663decee54f781aade5327304a32f8",
                "label": "Synthetix: Old Synth sUSD 4"
            },
            {
                "address": "0x0000000000000000000000000000000000000004",
                "label": "Precompiled"
            },
            {
                "address": "0x05cf62c4ba0ccea3da680f9a8744ac51116d6231",
                "label": "Chainlink: Old AUD/USD Price Feed"
            },
            {
                "address": "0x84d626b2bb4d0f064067e4bf80fce7055d8f3e7b",
                "label": "Synthetix: Safe Decimal Math"
            },
            {
                "address": "0xe95ef4e7a04d2fb05cb625c62ca58da10112c605",
                "label": "Synthetix: Old Exchange Rates 7"
            },
            {
                "address": "0x30a46e656cdca6b401ff043e1abb151490a07ab0",
                "label": "Synthetix: Old Synth XDR Token 3"
            },
            {
                "address": "0x57ab1e02fee23774580c119740129eac7081e9d3",
                "label": "Synthetix: Legacy Proxy sUSD"
            },
            {
                "address": "0x05a9cbe762b36632b3594da4f082340e0e5343e8",
                "label": "Synthetix: Token State sUSD"
            },
            {
                "address": "0x6a22e5e94388464181578aa7a6b869e00fe27846",
                "label": "Synthetix: Proxy sXAG Token"
            },
            {
                "address": "0x3a412043939d9f7e53373b64f858ecb870a92e50",
                "label": "Synthetix: Old Synth sXAG 3"
            },
            {
                "address": "0x25fa978ea1a7dc9bdc33a2959b9053eae57169b5",
                "label": "Chainlink: EUR / USD Aggregator"
            },
            {
                "address": "0xb440dd674e1243644791a4adfe3a2abb0a92d309",
                "label": "Synthetix: Proxy Fee Pool"
            },
            {
                "address": "0xeeeeeeeeeeeeeeeeeeeeeeeeeeeeeeeeeeeeeeee",
                "label": "Ether"
            },
            {
                "address": "0x8946a183bfafa95becf57c5e08fe5b7654d2807b",
                "label": "Chainlink: XAG / USD Aggregator"
            },
            {
                "address": "0x0000000000000000000000000000000000000001",
                "label": "Precompiled"
            },
            {
                "address": "0x02d5c618dbc591544b19d0bf13543c0728a3c4ec",
                "label": "Chainlink: CHF / USD Aggregator"
            },
            {
                "address": "0xbf093390d8046ae2d0f5465dec7001d65dc159d5",
                "label": "Synthetix: Old Token State XDR"
            },
            {
                "address": "0xb3f67de9a919476a4c0fe821d67bf5c4637d8429",
                "label": "Synthetix: Old Proxy XDR Token 2"
            },
            {
                "address": "0x0000000000000000000000000000000000000003",
                "label": "Precompiled"
            },
            {
                "address": "0x7cb89c509001d25da9938999abfea6740212e5f0",
                "label": "Synthetix: Old Synth SNX 12"
            },
            {
                "address": "0x94dba784e87a3f5f12e25ec98bf14233c1e69017",
                "label": "Synthetix: Old Fee Pool 10"
            }
        ]
    },
    "trace": {
        "accountLabels": null,
        "dataMap": {
            "-1": {
                "invocation": {
                    "address": "0xe272a25b3b30a6c76ab15224f24eaaeed24abed9",
                    "callData": "",
                    "decodedMethod": null,
                    "errorInfo": "",
                    "fromAddress": "",
                    "gasUsed": 0,
                    "id": -1,
                    "methodDecoded": false,
                    "operation": "",
                    "output": "",
                    "revert": false,
                    "revertMessage": "",
                    "selector": "",
                    "status": false,
                    "value": ""
                },
                "nodeType": 0
            },
            "0": {
                "invocation": {
                    "address": "0xc011a72400e58ecd99ee497cf89e3775d4bd732f",
                    "callData": "0x735553440000000000000000000000000000000000000000000000000000000000000000000000000000000000000000000000000000000232ee058db78350007358414700000000000000000000000000000000000000000000000000000000",
                    "decodedMethod": {
                        "callParams": [
                            {
                                "name": "sourceCurrencyKey",
                                "type": "bytes32",
                                "value": "0x7355534400000000000000000000000000000000000000000000000000000000"
                            },
                            {
                                "name": "sourceAmount",
                                "type": "uint256",
                                "value": "40,563,365,000,000,000,000"
                            },
                            {
                                "name": "destinationCurrencyKey",
                                "type": "bytes32",
                                "value": "0x7358414700000000000000000000000000000000000000000000000000000000"
                            }
                        ],
                        "constructorArguments": "",
                        "name": "exchange",
                        "returnParams": [
                            {
                                "name": "amountReceived",
                                "type": "uint256",
                                "value": "1"
                            }
                        ],
                        "signature": "exchange(bytes32,uint256,bytes32)"
                    },
                    "errorInfo": "",
                    "fromAddress": "0xe272a25b3b30a6c76ab15224f24eaaeed24abed9",
                    "gasUsed": 347653,
                    "id": 0,
                    "methodDecoded": true,
                    "operation": "CALL",
                    "output": "0x0000000000000000000000000000000000000000000000000000000000000001",
                    "revert": false,
                    "revertMessage": "",
                    "selector": "0xee52a2f3",
                    "status": true,
                    "value": "0"
                },
                "nodeType": 0
            },
            "1": {
                "invocation": {
                    "address": "0x7cb89c509001d25da9938999abfea6740212e5f0",
                    "callData": "0x000000000000000000000000e272a25b3b30a6c76ab15224f24eaaeed24abed9",
                    "decodedMethod": {
                        "callParams": [
                            {
                                "name": "sender",
                                "type": "address",
                                "value": "0xe272a25b3b30a6c76ab15224f24eaaeed24abed9"
                            }
                        ],
                        "constructorArguments": "",
                        "name": "setMessageSender",
                        "returnParams": [],
                        "signature": "setMessageSender(address)"
                    },
                    "errorInfo": "",
                    "fromAddress": "0xc011a72400e58ecd99ee497cf89e3775d4bd732f",
                    "gasUsed": 8321,
                    "id": 1,
                    "methodDecoded": true,
                    "operation": "CALL",
                    "output": "",
                    "revert": false,
                    "revertMessage": "",
                    "selector": "0xbc67f832",
                    "status": true,
                    "value": "0"
                },
                "nodeType": 0
            },
            "10": {
                "invocation": {
                    "address": "0x57ab1e02fee23774580c119740129eac7081e9d3",
                    "callData": "0x00000000000000000000000000000000000000000000000000000000000000c00000000000000000000000000000000000000000000000000000000000000002696de425f79f4a40bc6d2122ca50507f0efbeabbff86a84871b7196ab8ea8df7000000000000000000000000e272a25b3b30a6c76ab15224f24eaaeed24abed900000000000000000000000000000000000000000000000000000000000000000000000000000000000000000000000000000000000000000000000000000000000000000000000000000000000000000000000000000000000000000000002000000000000000000000000000000000000000000000000232ee058db7835000",
                    "decodedMethod": {
                        "callParams": [
                            {
                                "name": "callData",
                                "type": "bytes",
                                "value": "0x00000000000000000000000000000000000000000000000232ee058db7835000"
                            },
                            {
                                "name": "numTopics",
                                "type": "uint256",
                                "value": "2"
                            },
                            {
                                "name": "topic1",
                                "type": "bytes32",
                                "value": "0x696de425f79f4a40bc6d2122ca50507f0efbeabbff86a84871b7196ab8ea8df7"
                            },
                            {
                                "name": "topic2",
                                "type": "bytes32",
                                "value": "0x000000000000000000000000e272a25b3b30a6c76ab15224f24eaaeed24abed9"
                            },
                            {
                                "name": "topic3",
                                "type": "bytes32",
                                "value": "0x0000000000000000000000000000000000000000000000000000000000000000"
                            },
                            {
                                "name": "topic4",
                                "type": "bytes32",
                                "value": "0x0000000000000000000000000000000000000000000000000000000000000000"
                            }
                        ],
                        "constructorArguments": "",
                        "name": "_emit",
                        "returnParams": [],
                        "signature": "_emit(bytes,uint256,bytes32,bytes32,bytes32,bytes32)"
                    },
                    "errorInfo": "",
                    "fromAddress": "0x289e9a4674663decee54f781aade5327304a32f8",
                    "gasUsed": 2874,
                    "id": 10,
                    "methodDecoded": true,
                    "operation": "CALL",
                    "output": "",
                    "revert": false,
                    "revertMessage": "",
                    "selector": "0x907dff97",
                    "status": true,
                    "value": "0"
                },
                "nodeType": 0
            },
            "11": {
                "event": {
                    "contract": "0x57ab1e02fee23774580c119740129eac7081e9d3",
                    "decodedLog": {
                        "name": "Burned",
                        "params": [
                            {
                                "name": "account",
                                "type": "address",
                                "value": "0xe272a25b3b30a6c76ab15224f24eaaeed24abed9"
                            },
                            {
                                "name": "amount",
                                "type": "uint256",
                                "value": "40,563,365,000,000,000,000"
                            }
                        ],
                        "signature": "Burned(address,uint256)"
                    },
                    "id": 11,
                    "logData": "0x00000000000000000000000000000000000000000000000232ee058db7835000",
                    "logDecoded": true,
                    "operation": "EVENT",
                    "revert": false,
                    "status": true,
                    "topics": [
                        "0x696de425f79f4a40bc6d2122ca50507f0efbeabbff86a84871b7196ab8ea8df7",
                        "0x000000000000000000000000e272a25b3b30a6c76ab15224f24eaaeed24abed9"
                    ]
                },
                "nodeType": 1
            },
            "12": {
                "invocation": {
                    "address": "0xe95ef4e7a04d2fb05cb625c62ca58da10112c605",
                    "callData": "0x735553440000000000000000000000000000000000000000000000000000000000000000000000000000000000000000000000000000000232ee058db78350007358414700000000000000000000000000000000000000000000000000000000",
                    "decodedMethod": {
                        "callParams": [
                            {
                                "name": "sourceCurrencyKey",
                                "type": "bytes32",
                                "value": "0x7355534400000000000000000000000000000000000000000000000000000000"
                            },
                            {
                                "name": "sourceAmount",
                                "type": "uint256",
                                "value": "40,563,365,000,000,000,000"
                            },
                            {
                                "name": "destinationCurrencyKey",
                                "type": "bytes32",
                                "value": "0x7358414700000000000000000000000000000000000000000000000000000000"
                            }
                        ],
                        "constructorArguments": "",
                        "name": "effectiveValue",
                        "returnParams": [
                            {
                                "name": "",
                                "type": "uint256",
                                "value": "2,267,059,661,869,498,393"
                            }
                        ],
                        "signature": "effectiveValue(bytes32,uint256,bytes32)"
                    },
                    "errorInfo": "",
                    "fromAddress": "0x7cb89c509001d25da9938999abfea6740212e5f0",
                    "gasUsed": 25223,
                    "id": 12,
                    "methodDecoded": true,
                    "operation": "CALL",
                    "output": "0x0000000000000000000000000000000000000000000000001f7636c046594019",
                    "revert": false,
                    "revertMessage": "",
                    "selector": "0x654a60ac",
                    "status": true,
                    "value": "0"
                },
                "nodeType": 0
            },
            "13": {
                "invocation": {
                    "address": "0x8946a183bfafa95becf57c5e08fe5b7654d2807b",
                    "callData": "0x",
                    "decodedMethod": {
                        "callParams": [],
                        "constructorArguments": "",
                        "name": "latestAnswer",
                        "returnParams": [
                            {
                                "name": "",
                                "type": "int256",
                                "value": "1,789,250,000"
                            }
                        ],
                        "signature": "latestAnswer()"
                    },
                    "errorInfo": "",
                    "fromAddress": "0xe95ef4e7a04d2fb05cb625c62ca58da10112c605",
                    "gasUsed": 1946,
                    "id": 13,
                    "methodDecoded": true,
                    "operation": "CALL",
                    "output": "0x000000000000000000000000000000000000000000000000000000006aa5c9d0",
                    "revert": false,
                    "revertMessage": "",
                    "selector": "0x50d25bcd",
                    "status": true,
                    "value": "0"
                },
                "nodeType": 0
            },
            "14": {
                "invocation": {
                    "address": "0x8946a183bfafa95becf57c5e08fe5b7654d2807b",
                    "callData": "0x",
                    "decodedMethod": {
                        "callParams": [],
                        "constructorArguments": "",
                        "name": "latestTimestamp",
                        "returnParams": [
                            {
                                "name": "",
                                "type": "uint256",
                                "value": "1,577,923,275"
                            }
                        ],
                        "signature": "latestTimestamp()"
                    },
                    "errorInfo": "",
                    "fromAddress": "0xe95ef4e7a04d2fb05cb625c62ca58da10112c605",
                    "gasUsed": 2122,
                    "id": 14,
                    "methodDecoded": true,
                    "operation": "CALL",
                    "output": "0x000000000000000000000000000000000000000000000000000000005e0d32cb",
                    "revert": false,
                    "revertMessage": "",
                    "selector": "0x8205bf6a",
                    "status": true,
                    "value": "0"
                },
                "nodeType": 0
            },
            "15": {
                "invocation": {
                    "address": "0x8946a183bfafa95becf57c5e08fe5b7654d2807b",
                    "callData": "0x",
                    "decodedMethod": {
                        "callParams": [],
                        "constructorArguments": "",
                        "name": "latestAnswer",
                        "returnParams": [
                            {
                                "name": "",
                                "type": "int256",
                                "value": "1,789,250,000"
                            }
                        ],
                        "signature": "latestAnswer()"
                    },
                    "errorInfo": "",
                    "fromAddress": "0xe95ef4e7a04d2fb05cb625c62ca58da10112c605",
                    "gasUsed": 1946,
                    "id": 15,
                    "methodDecoded": true,
                    "operation": "CALL",
                    "output": "0x000000000000000000000000000000000000000000000000000000006aa5c9d0",
                    "revert": false,
                    "revertMessage": "",
                    "selector": "0x50d25bcd",
                    "status": true,
                    "value": "0"
                },
                "nodeType": 0
            },
            "16": {
                "invocation": {
                    "address": "0x8946a183bfafa95becf57c5e08fe5b7654d2807b",
                    "callData": "0x",
                    "decodedMethod": {
                        "callParams": [],
                        "constructorArguments": "",
                        "name": "latestTimestamp",
                        "returnParams": [
                            {
                                "name": "",
                                "type": "uint256",
                                "value": "1,577,923,275"
                            }
                        ],
                        "signature": "latestTimestamp()"
                    },
                    "errorInfo": "",
                    "fromAddress": "0xe95ef4e7a04d2fb05cb625c62ca58da10112c605",
                    "gasUsed": 2122,
                    "id": 16,
                    "methodDecoded": true,
                    "operation": "CALL",
                    "output": "0x000000000000000000000000000000000000000000000000000000005e0d32cb",
                    "revert": false,
                    "revertMessage": "",
                    "selector": "0x8205bf6a",
                    "status": true,
                    "value": "0"
                },
                "nodeType": 0
            },
            "17": {
                "invocation": {
                    "address": "0x94dba784e87a3f5f12e25ec98bf14233c1e69017",
                    "callData": "0x",
                    "decodedMethod": {
                        "callParams": [],
                        "constructorArguments": "",
                        "name": "exchangeFeeRate",
                        "returnParams": [
                            {
                                "name": "",
                                "type": "uint256",
                                "value": "5,000,000,000,000,000"
                            }
                        ],
                        "signature": "exchangeFeeRate()"
                    },
                    "errorInfo": "",
                    "fromAddress": "0x7cb89c509001d25da9938999abfea6740212e5f0",
                    "gasUsed": 1072,
                    "id": 17,
                    "methodDecoded": true,
                    "operation": "CALL",
                    "output": "0x0000000000000000000000000000000000000000000000000011c37937e08000",
                    "revert": false,
                    "revertMessage": "",
                    "selector": "0x0f9b4955",
                    "status": true,
                    "value": "0"
                },
                "nodeType": 0
            },
            "18": {
                "invocation": {
                    "address": "0x84d626b2bb4d0f064067e4bf80fce7055d8f3e7b",
                    "callData": "0x",
                    "decodedMethod": {
                        "callParams": [],
                        "constructorArguments": "",
                        "name": "unit",
                        "returnParams": [
                            {
                                "name": "",
                                "type": "uint256",
                                "value": "1,000,000,000,000,000,000"
                            }
                        ],
                        "signature": "unit()"
                    },
                    "errorInfo": "",
                    "fromAddress": "0x7cb89c509001d25da9938999abfea6740212e5f0",
                    "gasUsed": 212,
                    "id": 18,
                    "methodDecoded": true,
                    "operation": "DELEGATECALL",
                    "output": "0x0000000000000000000000000000000000000000000000000de0b6b3a7640000",
                    "revert": false,
                    "revertMessage": "",
                    "selector": "0x907af6c0",
                    "status": true,
                    "value": "0"
                },
                "nodeType": 0
            },
            "19": {
                "invocation": {
                    "address": "0x3a412043939d9f7e53373b64f858ecb870a92e50",
                    "callData": "0x000000000000000000000000e272a25b3b30a6c76ab15224f24eaaeed24abed90000000000000000000000000000000000000000000000001f4df15b79326775",
                    "decodedMethod": {
                        "callParams": [
                            {
                                "name": "account",
                                "type": "address",
                                "value": "0xe272a25b3b30a6c76ab15224f24eaaeed24abed9"
                            },
                            {
                                "name": "amount",
                                "type": "uint256",
                                "value": "2,255,724,363,560,150,901"
                            }
                        ],
                        "constructorArguments": "",
                        "name": "issue",
                        "returnParams": [],
                        "signature": "issue(address,uint256)"
                    },
                    "errorInfo": "",
                    "fromAddress": "0x7cb89c509001d25da9938999abfea6740212e5f0",
                    "gasUsed": 38964,
                    "id": 19,
                    "methodDecoded": true,
                    "operation": "CALL",
                    "output": "",
                    "revert": false,
                    "revertMessage": "",
                    "selector": "0x867904b4",
                    "status": true,
                    "value": "0"
                },
                "nodeType": 0
            },
            "2": {
                "invocation": {
                    "address": "0x7cb89c509001d25da9938999abfea6740212e5f0",
                    "callData": "0x735553440000000000000000000000000000000000000000000000000000000000000000000000000000000000000000000000000000000232ee058db78350007358414700000000000000000000000000000000000000000000000000000000",
                    "decodedMethod": {
                        "callParams": [
                            {
                                "name": "sourceCurrencyKey",
                                "type": "bytes32",
                                "value": "0x7355534400000000000000000000000000000000000000000000000000000000"
                            },
                            {
                                "name": "sourceAmount",
                                "type": "uint256",
                                "value": "40,563,365,000,000,000,000"
                            },
                            {
                                "name": "destinationCurrencyKey",
                                "type": "bytes32",
                                "value": "0x7358414700000000000000000000000000000000000000000000000000000000"
                            }
                        ],
                        "constructorArguments": "",
                        "name": "exchange",
                        "returnParams": [
                            {
                                "name": "",
                                "type": "bool",
                                "value": true
                            }
                        ],
                        "signature": "exchange(bytes32,uint256,bytes32)"
                    },
                    "errorInfo": "",
                    "fromAddress": "0xc011a72400e58ecd99ee497cf89e3775d4bd732f",
                    "gasUsed": 312550,
                    "id": 2,
                    "methodDecoded": true,
                    "operation": "CALL",
                    "output": "0x0000000000000000000000000000000000000000000000000000000000000001",
                    "revert": false,
                    "revertMessage": "",
                    "selector": "0xee52a2f3",
                    "status": true,
                    "value": "0"
                },
                "nodeType": 0
            },
            "20": {
                "invocation": {
                    "address": "0xc011a72400e58ecd99ee497cf89e3775d4bd732f",
                    "callData": "0x",
                    "decodedMethod": {
                        "callParams": [],
                        "constructorArguments": "",
                        "name": "target",
                        "returnParams": [
                            {
                                "name": "",
                                "type": "address",
                                "value": "0x7cb89c509001d25da9938999abfea6740212e5f0"
                            }
                        ],
                        "signature": "target()"
                    },
                    "errorInfo": "",
                    "fromAddress": "0x3a412043939d9f7e53373b64f858ecb870a92e50",
                    "gasUsed": 1313,
                    "id": 20,
                    "methodDecoded": true,
                    "operation": "CALL",
                    "output": "0x0000000000000000000000007cb89c509001d25da9938999abfea6740212e5f0",
                    "revert": false,
                    "revertMessage": "",
                    "selector": "0xd4b83992",
                    "status": true,
                    "value": "0"
                },
                "nodeType": 0
            },
            "21": {
                "invocation": {
                    "address": "0xb440dd674e1243644791a4adfe3a2abb0a92d309",
                    "callData": "0x",
                    "decodedMethod": {
                        "callParams": [],
                        "constructorArguments": "",
                        "name": "target",
                        "returnParams": [
                            {
                                "name": "",
                                "type": "address",
                                "value": "0x94dba784e87a3f5f12e25ec98bf14233c1e69017"
                            }
                        ],
                        "signature": "target()"
                    },
                    "errorInfo": "",
                    "fromAddress": "0x3a412043939d9f7e53373b64f858ecb870a92e50",
                    "gasUsed": 1313,
                    "id": 21,
                    "methodDecoded": true,
                    "operation": "CALL",
                    "output": "0x00000000000000000000000094dba784e87a3f5f12e25ec98bf14233c1e69017",
                    "revert": false,
                    "revertMessage": "",
                    "selector": "0xd4b83992",
                    "status": true,
                    "value": "0"
                },
                "nodeType": 0
            },
            "22": {
                "invocation": {
                    "address": "0x53d244fb46357568dbef082225ccc87cbd94aae8",
                    "callData": "0x000000000000000000000000e272a25b3b30a6c76ab15224f24eaaeed24abed9",
                    "decodedMethod": {
                        "callParams": [
                            {
                                "name": "",
                                "type": "address",
                                "value": "0xe272a25b3b30a6c76ab15224f24eaaeed24abed9"
                            }
                        ],
                        "constructorArguments": "",
                        "name": "balanceOf",
                        "returnParams": [
                            {
                                "decimalAvailable": true,
                                "name": "",
                                "type": "uint256",
                                "value": "16,573,293,990,500,195,007"
                            }
                        ],
                        "signature": "balanceOf(address)"
                    },
                    "errorInfo": "",
                    "fromAddress": "0x3a412043939d9f7e53373b64f858ecb870a92e50",
                    "gasUsed": 1197,
                    "id": 22,
                    "methodDecoded": true,
                    "operation": "CALL",
                    "output": "0x000000000000000000000000000000000000000000000000e6002b1345e15abf",
                    "revert": false,
                    "revertMessage": "",
                    "selector": "0x70a08231",
                    "status": true,
                    "value": "0"
                },
                "nodeType": 0
            },
            "23": {
                "invocation": {
                    "address": "0x53d244fb46357568dbef082225ccc87cbd94aae8",
                    "callData": "0x000000000000000000000000e272a25b3b30a6c76ab15224f24eaaeed24abed9000000000000000000000000000000000000000000000001054e1c6ebf13c234",
                    "decodedMethod": {
                        "callParams": [
                            {
                                "name": "account",
                                "type": "address",
                                "value": "0xe272a25b3b30a6c76ab15224f24eaaeed24abed9"
                            },
                            {
                                "name": "value",
                                "type": "uint256",
                                "value": "18,829,018,354,060,345,908"
                            }
                        ],
                        "constructorArguments": "",
                        "name": "setBalanceOf",
                        "returnParams": [],
                        "signature": "setBalanceOf(address,uint256)"
                    },
                    "errorInfo": "",
                    "fromAddress": "0x3a412043939d9f7e53373b64f858ecb870a92e50",
                    "gasUsed": 6418,
                    "id": 23,
                    "methodDecoded": true,
                    "operation": "CALL",
                    "output": "",
                    "revert": false,
                    "revertMessage": "",
                    "selector": "0xb46310f6",
                    "status": true,
                    "value": "0"
                },
                "nodeType": 0
            },
            "24": {
                "invocation": {
                    "address": "0x6a22e5e94388464181578aa7a6b869e00fe27846",
                    "callData": "0x00000000000000000000000000000000000000000000000000000000000000c00000000000000000000000000000000000000000000000000000000000000003ddf252ad1be2c89b69c2b068fc378daa952ba7f163c4a11628f55a4df523b3ef0000000000000000000000000000000000000000000000000000000000000000000000000000000000000000e272a25b3b30a6c76ab15224f24eaaeed24abed9000000000000000000000000000000000000000000000000000000000000000000000000000000000000000000000000000000000000000000000000000000200000000000000000000000000000000000000000000000001f4df15b79326775",
                    "decodedMethod": {
                        "callParams": [
                            {
                                "name": "callData",
                                "type": "bytes",
                                "value": "0x0000000000000000000000000000000000000000000000001f4df15b79326775"
                            },
                            {
                                "name": "numTopics",
                                "type": "uint256",
                                "value": "3"
                            },
                            {
                                "name": "topic1",
                                "type": "bytes32",
                                "value": "0xddf252ad1be2c89b69c2b068fc378daa952ba7f163c4a11628f55a4df523b3ef"
                            },
                            {
                                "name": "topic2",
                                "type": "bytes32",
                                "value": "0x0000000000000000000000000000000000000000000000000000000000000000"
                            },
                            {
                                "name": "topic3",
                                "type": "bytes32",
                                "value": "0x000000000000000000000000e272a25b3b30a6c76ab15224f24eaaeed24abed9"
                            },
                            {
                                "name": "topic4",
                                "type": "bytes32",
                                "value": "0x0000000000000000000000000000000000000000000000000000000000000000"
                            }
                        ],
                        "constructorArguments": "",
                        "name": "_emit",
                        "returnParams": [],
                        "signature": "_emit(bytes,uint256,bytes32,bytes32,bytes32,bytes32)"
                    },
                    "errorInfo": "",
                    "fromAddress": "0x3a412043939d9f7e53373b64f858ecb870a92e50",
                    "gasUsed": 3406,
                    "id": 24,
                    "methodDecoded": true,
                    "operation": "CALL",
                    "output": "",
                    "revert": false,
                    "revertMessage": "",
                    "selector": "0x907dff97",
                    "status": true,
                    "value": "0"
                },
                "nodeType": 0
            },
            "25": {
                "event": {
                    "contract": "0x6a22e5e94388464181578aa7a6b869e00fe27846",
                    "decodedLog": {
                        "name": "Transfer",
                        "params": [
                            {
                                "name": "from",
                                "type": "address",
                                "value": "0x0000000000000000000000000000000000000000"
                            },
                            {
                                "name": "to",
                                "type": "address",
                                "value": "0xe272a25b3b30a6c76ab15224f24eaaeed24abed9"
                            },
                            {
                                "decimalAvailable": true,
                                "name": "value",
                                "type": "uint256",
                                "value": "2,255,724,363,560,150,901"
                            }
                        ],
                        "signature": "Transfer(address,address,uint256)"
                    },
                    "id": 25,
                    "logData": "0x0000000000000000000000000000000000000000000000001f4df15b79326775",
                    "logDecoded": true,
                    "operation": "EVENT",
                    "revert": false,
                    "status": true,
                    "topics": [
                        "0xddf252ad1be2c89b69c2b068fc378daa952ba7f163c4a11628f55a4df523b3ef",
                        "0x0000000000000000000000000000000000000000000000000000000000000000",
                        "0x000000000000000000000000e272a25b3b30a6c76ab15224f24eaaeed24abed9"
                    ]
                },
                "nodeType": 1
            },
            "26": {
                "invocation": {
                    "address": "0x6a22e5e94388464181578aa7a6b869e00fe27846",
                    "callData": "0x00000000000000000000000000000000000000000000000000000000000000c00000000000000000000000000000000000000000000000000000000000000002a59f12e354e8cd10bb74c559844c2dd69a5458e31fe56c7594c62ca57480509a000000000000000000000000e272a25b3b30a6c76ab15224f24eaaeed24abed90000000000000000000000000000000000000000000000000000000000000000000000000000000000000000000000000000000000000000000000000000000000000000000000000000000000000000000000000000000000000000000000200000000000000000000000000000000000000000000000001f4df15b79326775",
                    "decodedMethod": {
                        "callParams": [
                            {
                                "name": "callData",
                                "type": "bytes",
                                "value": "0x0000000000000000000000000000000000000000000000001f4df15b79326775"
                            },
                            {
                                "name": "numTopics",
                                "type": "uint256",
                                "value": "2"
                            },
                            {
                                "name": "topic1",
                                "type": "bytes32",
                                "value": "0xa59f12e354e8cd10bb74c559844c2dd69a5458e31fe56c7594c62ca57480509a"
                            },
                            {
                                "name": "topic2",
                                "type": "bytes32",
                                "value": "0x000000000000000000000000e272a25b3b30a6c76ab15224f24eaaeed24abed9"
                            },
                            {
                                "name": "topic3",
                                "type": "bytes32",
                                "value": "0x0000000000000000000000000000000000000000000000000000000000000000"
                            },
                            {
                                "name": "topic4",
                                "type": "bytes32",
                                "value": "0x0000000000000000000000000000000000000000000000000000000000000000"
                            }
                        ],
                        "constructorArguments": "",
                        "name": "_emit",
                        "returnParams": [],
                        "signature": "_emit(bytes,uint256,bytes32,bytes32,bytes32,bytes32)"
                    },
                    "errorInfo": "",
                    "fromAddress": "0x3a412043939d9f7e53373b64f858ecb870a92e50",
                    "gasUsed": 3006,
                    "id": 26,
                    "methodDecoded": true,
                    "operation": "CALL",
                    "output": "",
                    "revert": false,
                    "revertMessage": "",
                    "selector": "0x907dff97",
                    "status": true,
                    "value": "0"
                },
                "nodeType": 0
            },
            "27": {
                "event": {
                    "contract": "0x6a22e5e94388464181578aa7a6b869e00fe27846",
                    "decodedLog": {
                        "name": "Issued",
                        "params": [
                            {
                                "name": "account",
                                "type": "address",
                                "value": "0xe272a25b3b30a6c76ab15224f24eaaeed24abed9"
                            },
                            {
                                "name": "value",
                                "type": "uint256",
                                "value": "2,255,724,363,560,150,901"
                            }
                        ],
                        "signature": "Issued(address,uint256)"
                    },
                    "id": 27,
                    "logData": "0x0000000000000000000000000000000000000000000000001f4df15b79326775",
                    "logDecoded": true,
                    "operation": "EVENT",
                    "revert": false,
                    "status": true,
                    "topics": [
                        "0xa59f12e354e8cd10bb74c559844c2dd69a5458e31fe56c7594c62ca57480509a",
                        "0x000000000000000000000000e272a25b3b30a6c76ab15224f24eaaeed24abed9"
                    ]
                },
                "nodeType": 1
            },
            "28": {
                "invocation": {
                    "address": "0xe95ef4e7a04d2fb05cb625c62ca58da10112c605",
                    "callData": "0x735841470000000000000000000000000000000000000000000000000000000000000000000000000000000000000000000000000000000000284564cd26d8a45844520000000000000000000000000000000000000000000000000000000000",
                    "decodedMethod": {
                        "callParams": [
                            {
                                "name": "sourceCurrencyKey",
                                "type": "bytes32",
                                "value": "0x7358414700000000000000000000000000000000000000000000000000000000"
                            },
                            {
                                "name": "sourceAmount",
                                "type": "uint256",
                                "value": "11,335,298,309,347,492"
                            },
                            {
                                "name": "destinationCurrencyKey",
                                "type": "bytes32",
                                "value": "0x5844520000000000000000000000000000000000000000000000000000000000"
                            }
                        ],
                        "constructorArguments": "",
                        "name": "effectiveValue",
                        "returnParams": [
                            {
                                "name": "",
                                "type": "uint256",
                                "value": "39,137,756,562,122,079"
                            }
                        ],
                        "signature": "effectiveValue(bytes32,uint256,bytes32)"
                    },
                    "errorInfo": "",
                    "fromAddress": "0x7cb89c509001d25da9938999abfea6740212e5f0",
                    "gasUsed": 121476,
                    "id": 28,
                    "methodDecoded": true,
                    "operation": "CALL",
                    "output": "0x000000000000000000000000000000000000000000000000008b0b950d30e55f",
                    "revert": false,
                    "revertMessage": "",
                    "selector": "0x654a60ac",
                    "status": true,
                    "value": "0"
                },
                "nodeType": 0
            },
            "29": {
                "invocation": {
                    "address": "0x8946a183bfafa95becf57c5e08fe5b7654d2807b",
                    "callData": "0x",
                    "decodedMethod": {
                        "callParams": [],
                        "constructorArguments": "",
                        "name": "latestAnswer",
                        "returnParams": [
                            {
                                "name": "",
                                "type": "int256",
                                "value": "1,789,250,000"
                            }
                        ],
                        "signature": "latestAnswer()"
                    },
                    "errorInfo": "",
                    "fromAddress": "0xe95ef4e7a04d2fb05cb625c62ca58da10112c605",
                    "gasUsed": 1946,
                    "id": 29,
                    "methodDecoded": true,
                    "operation": "CALL",
                    "output": "0x000000000000000000000000000000000000000000000000000000006aa5c9d0",
                    "revert": false,
                    "revertMessage": "",
                    "selector": "0x50d25bcd",
                    "status": true,
                    "value": "0"
                },
                "nodeType": 0
            },
            "3": {
                "invocation": {
                    "address": "0x289e9a4674663decee54f781aade5327304a32f8",
                    "callData": "0x000000000000000000000000e272a25b3b30a6c76ab15224f24eaaeed24abed900000000000000000000000000000000000000000000000232ee058db7835000",
                    "decodedMethod": {
                        "callParams": [
                            {
                                "name": "account",
                                "type": "address",
                                "value": "0xe272a25b3b30a6c76ab15224f24eaaeed24abed9"
                            },
                            {
                                "name": "amount",
                                "type": "uint256",
                                "value": "40,563,365,000,000,000,000"
                            }
                        ],
                        "constructorArguments": "",
                        "name": "burn",
                        "returnParams": [],
                        "signature": "burn(address,uint256)"
                    },
                    "errorInfo": "",
                    "fromAddress": "0x7cb89c509001d25da9938999abfea6740212e5f0",
                    "gasUsed": 38843,
                    "id": 3,
                    "methodDecoded": true,
                    "operation": "CALL",
                    "output": "",
                    "revert": false,
                    "revertMessage": "",
                    "selector": "0x9dc29fac",
                    "status": true,
                    "value": "0"
                },
                "nodeType": 0
            },
            "30": {
                "invocation": {
                    "address": "0x8946a183bfafa95becf57c5e08fe5b7654d2807b",
                    "callData": "0x",
                    "decodedMethod": {
                        "callParams": [],
                        "constructorArguments": "",
                        "name": "latestTimestamp",
                        "returnParams": [
                            {
                                "name": "",
                                "type": "uint256",
                                "value": "1,577,923,275"
                            }
                        ],
                        "signature": "latestTimestamp()"
                    },
                    "errorInfo": "",
                    "fromAddress": "0xe95ef4e7a04d2fb05cb625c62ca58da10112c605",
                    "gasUsed": 2122,
                    "id": 30,
                    "methodDecoded": true,
                    "operation": "CALL",
                    "output": "0x000000000000000000000000000000000000000000000000000000005e0d32cb",
                    "revert": false,
                    "revertMessage": "",
                    "selector": "0x8205bf6a",
                    "status": true,
                    "value": "0"
                },
                "nodeType": 0
            },
            "31": {
                "invocation": {
                    "address": "0x05cf62c4ba0ccea3da680f9a8744ac51116d6231",
                    "callData": "0x",
                    "decodedMethod": {
                        "callParams": [],
                        "constructorArguments": "",
                        "name": "latestAnswer",
                        "returnParams": [
                            {
                                "name": "",
                                "type": "int256",
                                "value": "70,182,500"
                            }
                        ],
                        "signature": "latestAnswer()"
                    },
                    "errorInfo": "",
                    "fromAddress": "0xe95ef4e7a04d2fb05cb625c62ca58da10112c605",
                    "gasUsed": 1946,
                    "id": 31,
                    "methodDecoded": true,
                    "operation": "CALL",
                    "output": "0x00000000000000000000000000000000000000000000000000000000042ee664",
                    "revert": false,
                    "revertMessage": "",
                    "selector": "0x50d25bcd",
                    "status": true,
                    "value": "0"
                },
                "nodeType": 0
            },
            "32": {
                "invocation": {
                    "address": "0x05cf62c4ba0ccea3da680f9a8744ac51116d6231",
                    "callData": "0x",
                    "decodedMethod": {
                        "callParams": [],
                        "constructorArguments": "",
                        "name": "latestTimestamp",
                        "returnParams": [
                            {
                                "name": "",
                                "type": "uint256",
                                "value": "1,577,923,275"
                            }
                        ],
                        "signature": "latestTimestamp()"
                    },
                    "errorInfo": "",
                    "fromAddress": "0xe95ef4e7a04d2fb05cb625c62ca58da10112c605",
                    "gasUsed": 2122,
                    "id": 32,
                    "methodDecoded": true,
                    "operation": "CALL",
                    "output": "0x000000000000000000000000000000000000000000000000000000005e0d32cb",
                    "revert": false,
                    "revertMessage": "",
                    "selector": "0x8205bf6a",
                    "status": true,
                    "value": "0"
                },
                "nodeType": 0
            },
            "33": {
                "invocation": {
                    "address": "0x02d5c618dbc591544b19d0bf13543c0728a3c4ec",
                    "callData": "0x",
                    "decodedMethod": {
                        "callParams": [],
                        "constructorArguments": "",
                        "name": "latestAnswer",
                        "returnParams": [
                            {
                                "name": "",
                                "type": "int256",
                                "value": "103,341,900"
                            }
                        ],
                        "signature": "latestAnswer()"
                    },
                    "errorInfo": "",
                    "fromAddress": "0xe95ef4e7a04d2fb05cb625c62ca58da10112c605",
                    "gasUsed": 1946,
                    "id": 33,
                    "methodDecoded": true,
                    "operation": "CALL",
                    "output": "0x000000000000000000000000000000000000000000000000000000000628df4c",
                    "revert": false,
                    "revertMessage": "",
                    "selector": "0x50d25bcd",
                    "status": true,
                    "value": "0"
                },
                "nodeType": 0
            },
            "34": {
                "invocation": {
                    "address": "0x02d5c618dbc591544b19d0bf13543c0728a3c4ec",
                    "callData": "0x",
                    "decodedMethod": {
                        "callParams": [],
                        "constructorArguments": "",
                        "name": "latestTimestamp",
                        "returnParams": [
                            {
                                "name": "",
                                "type": "uint256",
                                "value": "1,577,923,275"
                            }
                        ],
                        "signature": "latestTimestamp()"
                    },
                    "errorInfo": "",
                    "fromAddress": "0xe95ef4e7a04d2fb05cb625c62ca58da10112c605",
                    "gasUsed": 2122,
                    "id": 34,
                    "methodDecoded": true,
                    "operation": "CALL",
                    "output": "0x000000000000000000000000000000000000000000000000000000005e0d32cb",
                    "revert": false,
                    "revertMessage": "",
                    "selector": "0x8205bf6a",
                    "status": true,
                    "value": "0"
                },
                "nodeType": 0
            },
            "35": {
                "invocation": {
                    "address": "0x25fa978ea1a7dc9bdc33a2959b9053eae57169b5",
                    "callData": "0x",
                    "decodedMethod": {
                        "callParams": [],
                        "constructorArguments": "",
                        "name": "latestAnswer",
                        "returnParams": [
                            {
                                "name": "",
                                "type": "int256",
                                "value": "112,188,100"
                            }
                        ],
                        "signature": "latestAnswer()"
                    },
                    "errorInfo": "",
                    "fromAddress": "0xe95ef4e7a04d2fb05cb625c62ca58da10112c605",
                    "gasUsed": 1946,
                    "id": 35,
                    "methodDecoded": true,
                    "operation": "CALL",
                    "output": "0x0000000000000000000000000000000000000000000000000000000006afdac4",
                    "revert": false,
                    "revertMessage": "",
                    "selector": "0x50d25bcd",
                    "status": true,
                    "value": "0"
                },
                "nodeType": 0
            },
            "36": {
                "invocation": {
                    "address": "0x25fa978ea1a7dc9bdc33a2959b9053eae57169b5",
                    "callData": "0x",
                    "decodedMethod": {
                        "callParams": [],
                        "constructorArguments": "",
                        "name": "latestTimestamp",
                        "returnParams": [
                            {
                                "name": "",
                                "type": "uint256",
                                "value": "1,577,923,275"
                            }
                        ],
                        "signature": "latestTimestamp()"
                    },
                    "errorInfo": "",
                    "fromAddress": "0xe95ef4e7a04d2fb05cb625c62ca58da10112c605",
                    "gasUsed": 2122,
                    "id": 36,
                    "methodDecoded": true,
                    "operation": "CALL",
                    "output": "0x000000000000000000000000000000000000000000000000000000005e0d32cb",
                    "revert": false,
                    "revertMessage": "",
                    "selector": "0x8205bf6a",
                    "status": true,
                    "value": "0"
                },
                "nodeType": 0
            },
            "37": {
                "invocation": {
                    "address": "0x151445852b0cfdf6a4cc81440f2af99176e8ad08",
                    "callData": "0x",
                    "decodedMethod": {
                        "callParams": [],
                        "constructorArguments": "",
                        "name": "latestAnswer",
                        "returnParams": [
                            {
                                "name": "",
                                "type": "int256",
                                "value": "132,500,200"
                            }
                        ],
                        "signature": "latestAnswer()"
                    },
                    "errorInfo": "",
                    "fromAddress": "0xe95ef4e7a04d2fb05cb625c62ca58da10112c605",
                    "gasUsed": 1946,
                    "id": 37,
                    "methodDecoded": true,
                    "operation": "CALL",
                    "output": "0x0000000000000000000000000000000000000000000000000000000007e5cae8",
                    "revert": false,
                    "revertMessage": "",
                    "selector": "0x50d25bcd",
                    "status": true,
                    "value": "0"
                },
                "nodeType": 0
            },
            "38": {
                "invocation": {
                    "address": "0x151445852b0cfdf6a4cc81440f2af99176e8ad08",
                    "callData": "0x",
                    "decodedMethod": {
                        "callParams": [],
                        "constructorArguments": "",
                        "name": "latestTimestamp",
                        "returnParams": [
                            {
                                "name": "",
                                "type": "uint256",
                                "value": "1,577,923,275"
                            }
                        ],
                        "signature": "latestTimestamp()"
                    },
                    "errorInfo": "",
                    "fromAddress": "0xe95ef4e7a04d2fb05cb625c62ca58da10112c605",
                    "gasUsed": 2122,
                    "id": 38,
                    "methodDecoded": true,
                    "operation": "CALL",
                    "output": "0x000000000000000000000000000000000000000000000000000000005e0d32cb",
                    "revert": false,
                    "revertMessage": "",
                    "selector": "0x8205bf6a",
                    "status": true,
                    "value": "0"
                },
                "nodeType": 0
            },
            "39": {
                "invocation": {
                    "address": "0x05cf62c4ba0ccea3da680f9a8744ac51116d6231",
                    "callData": "0x",
                    "decodedMethod": {
                        "callParams": [],
                        "constructorArguments": "",
                        "name": "latestAnswer",
                        "returnParams": [
                            {
                                "name": "",
                                "type": "int256",
                                "value": "70,182,500"
                            }
                        ],
                        "signature": "latestAnswer()"
                    },
                    "errorInfo": "",
                    "fromAddress": "0xe95ef4e7a04d2fb05cb625c62ca58da10112c605",
                    "gasUsed": 1946,
                    "id": 39,
                    "methodDecoded": true,
                    "operation": "CALL",
                    "output": "0x00000000000000000000000000000000000000000000000000000000042ee664",
                    "revert": false,
                    "revertMessage": "",
                    "selector": "0x50d25bcd",
                    "status": true,
                    "value": "0"
                },
                "nodeType": 0
            },
            "4": {
                "invocation": {
                    "address": "0xc011a72400e58ecd99ee497cf89e3775d4bd732f",
                    "callData": "0x",
                    "decodedMethod": {
                        "callParams": [],
                        "constructorArguments": "",
                        "name": "target",
                        "returnParams": [
                            {
                                "name": "",
                                "type": "address",
                                "value": "0x7cb89c509001d25da9938999abfea6740212e5f0"
                            }
                        ],
                        "signature": "target()"
                    },
                    "errorInfo": "",
                    "fromAddress": "0x289e9a4674663decee54f781aade5327304a32f8",
                    "gasUsed": 1313,
                    "id": 4,
                    "methodDecoded": true,
                    "operation": "CALL",
                    "output": "0x0000000000000000000000007cb89c509001d25da9938999abfea6740212e5f0",
                    "revert": false,
                    "revertMessage": "",
                    "selector": "0xd4b83992",
                    "status": true,
                    "value": "0"
                },
                "nodeType": 0
            },
            "40": {
                "invocation": {
                    "address": "0x05cf62c4ba0ccea3da680f9a8744ac51116d6231",
                    "callData": "0x",
                    "decodedMethod": {
                        "callParams": [],
                        "constructorArguments": "",
                        "name": "latestTimestamp",
                        "returnParams": [
                            {
                                "name": "",
                                "type": "uint256",
                                "value": "1,577,923,275"
                            }
                        ],
                        "signature": "latestTimestamp()"
                    },
                    "errorInfo": "",
                    "fromAddress": "0xe95ef4e7a04d2fb05cb625c62ca58da10112c605",
                    "gasUsed": 2122,
                    "id": 40,
                    "methodDecoded": true,
                    "operation": "CALL",
                    "output": "0x000000000000000000000000000000000000000000000000000000005e0d32cb",
                    "revert": false,
                    "revertMessage": "",
                    "selector": "0x8205bf6a",
                    "status": true,
                    "value": "0"
                },
                "nodeType": 0
            },
            "41": {
                "invocation": {
                    "address": "0x02d5c618dbc591544b19d0bf13543c0728a3c4ec",
                    "callData": "0x",
                    "decodedMethod": {
                        "callParams": [],
                        "constructorArguments": "",
                        "name": "latestAnswer",
                        "returnParams": [
                            {
                                "name": "",
                                "type": "int256",
                                "value": "103,341,900"
                            }
                        ],
                        "signature": "latestAnswer()"
                    },
                    "errorInfo": "",
                    "fromAddress": "0xe95ef4e7a04d2fb05cb625c62ca58da10112c605",
                    "gasUsed": 1946,
                    "id": 41,
                    "methodDecoded": true,
                    "operation": "CALL",
                    "output": "0x000000000000000000000000000000000000000000000000000000000628df4c",
                    "revert": false,
                    "revertMessage": "",
                    "selector": "0x50d25bcd",
                    "status": true,
                    "value": "0"
                },
                "nodeType": 0
            },
            "42": {
                "invocation": {
                    "address": "0x02d5c618dbc591544b19d0bf13543c0728a3c4ec",
                    "callData": "0x",
                    "decodedMethod": {
                        "callParams": [],
                        "constructorArguments": "",
                        "name": "latestTimestamp",
                        "returnParams": [
                            {
                                "name": "",
                                "type": "uint256",
                                "value": "1,577,923,275"
                            }
                        ],
                        "signature": "latestTimestamp()"
                    },
                    "errorInfo": "",
                    "fromAddress": "0xe95ef4e7a04d2fb05cb625c62ca58da10112c605",
                    "gasUsed": 2122,
                    "id": 42,
                    "methodDecoded": true,
                    "operation": "CALL",
                    "output": "0x000000000000000000000000000000000000000000000000000000005e0d32cb",
                    "revert": false,
                    "revertMessage": "",
                    "selector": "0x8205bf6a",
                    "status": true,
                    "value": "0"
                },
                "nodeType": 0
            },
            "43": {
                "invocation": {
                    "address": "0x25fa978ea1a7dc9bdc33a2959b9053eae57169b5",
                    "callData": "0x",
                    "decodedMethod": {
                        "callParams": [],
                        "constructorArguments": "",
                        "name": "latestAnswer",
                        "returnParams": [
                            {
                                "name": "",
                                "type": "int256",
                                "value": "112,188,100"
                            }
                        ],
                        "signature": "latestAnswer()"
                    },
                    "errorInfo": "",
                    "fromAddress": "0xe95ef4e7a04d2fb05cb625c62ca58da10112c605",
                    "gasUsed": 1946,
                    "id": 43,
                    "methodDecoded": true,
                    "operation": "CALL",
                    "output": "0x0000000000000000000000000000000000000000000000000000000006afdac4",
                    "revert": false,
                    "revertMessage": "",
                    "selector": "0x50d25bcd",
                    "status": true,
                    "value": "0"
                },
                "nodeType": 0
            },
            "44": {
                "invocation": {
                    "address": "0x25fa978ea1a7dc9bdc33a2959b9053eae57169b5",
                    "callData": "0x",
                    "decodedMethod": {
                        "callParams": [],
                        "constructorArguments": "",
                        "name": "latestTimestamp",
                        "returnParams": [
                            {
                                "name": "",
                                "type": "uint256",
                                "value": "1,577,923,275"
                            }
                        ],
                        "signature": "latestTimestamp()"
                    },
                    "errorInfo": "",
                    "fromAddress": "0xe95ef4e7a04d2fb05cb625c62ca58da10112c605",
                    "gasUsed": 2122,
                    "id": 44,
                    "methodDecoded": true,
                    "operation": "CALL",
                    "output": "0x000000000000000000000000000000000000000000000000000000005e0d32cb",
                    "revert": false,
                    "revertMessage": "",
                    "selector": "0x8205bf6a",
                    "status": true,
                    "value": "0"
                },
                "nodeType": 0
            },
            "45": {
                "invocation": {
                    "address": "0x151445852b0cfdf6a4cc81440f2af99176e8ad08",
                    "callData": "0x",
                    "decodedMethod": {
                        "callParams": [],
                        "constructorArguments": "",
                        "name": "latestAnswer",
                        "returnParams": [
                            {
                                "name": "",
                                "type": "int256",
                                "value": "132,500,200"
                            }
                        ],
                        "signature": "latestAnswer()"
                    },
                    "errorInfo": "",
                    "fromAddress": "0xe95ef4e7a04d2fb05cb625c62ca58da10112c605",
                    "gasUsed": 1946,
                    "id": 45,
                    "methodDecoded": true,
                    "operation": "CALL",
                    "output": "0x0000000000000000000000000000000000000000000000000000000007e5cae8",
                    "revert": false,
                    "revertMessage": "",
                    "selector": "0x50d25bcd",
                    "status": true,
                    "value": "0"
                },
                "nodeType": 0
            },
            "46": {
                "invocation": {
                    "address": "0x151445852b0cfdf6a4cc81440f2af99176e8ad08",
                    "callData": "0x",
                    "decodedMethod": {
                        "callParams": [],
                        "constructorArguments": "",
                        "name": "latestTimestamp",
                        "returnParams": [
                            {
                                "name": "",
                                "type": "uint256",
                                "value": "1,577,923,275"
                            }
                        ],
                        "signature": "latestTimestamp()"
                    },
                    "errorInfo": "",
                    "fromAddress": "0xe95ef4e7a04d2fb05cb625c62ca58da10112c605",
                    "gasUsed": 2122,
                    "id": 46,
                    "methodDecoded": true,
                    "operation": "CALL",
                    "output": "0x000000000000000000000000000000000000000000000000000000005e0d32cb",
                    "revert": false,
                    "revertMessage": "",
                    "selector": "0x8205bf6a",
                    "status": true,
                    "value": "0"
                },
                "nodeType": 0
            },
            "47": {
                "invocation": {
                    "address": "0x8946a183bfafa95becf57c5e08fe5b7654d2807b",
                    "callData": "0x",
                    "decodedMethod": {
                        "callParams": [],
                        "constructorArguments": "",
                        "name": "latestAnswer",
                        "returnParams": [
                            {
                                "name": "",
                                "type": "int256",
                                "value": "1,789,250,000"
                            }
                        ],
                        "signature": "latestAnswer()"
                    },
                    "errorInfo": "",
                    "fromAddress": "0xe95ef4e7a04d2fb05cb625c62ca58da10112c605",
                    "gasUsed": 1946,
                    "id": 47,
                    "methodDecoded": true,
                    "operation": "CALL",
                    "output": "0x000000000000000000000000000000000000000000000000000000006aa5c9d0",
                    "revert": false,
                    "revertMessage": "",
                    "selector": "0x50d25bcd",
                    "status": true,
                    "value": "0"
                },
                "nodeType": 0
            },
            "48": {
                "invocation": {
                    "address": "0x8946a183bfafa95becf57c5e08fe5b7654d2807b",
                    "callData": "0x",
                    "decodedMethod": {
                        "callParams": [],
                        "constructorArguments": "",
                        "name": "latestTimestamp",
                        "returnParams": [
                            {
                                "name": "",
                                "type": "uint256",
                                "value": "1,577,923,275"
                            }
                        ],
                        "signature": "latestTimestamp()"
                    },
                    "errorInfo": "",
                    "fromAddress": "0xe95ef4e7a04d2fb05cb625c62ca58da10112c605",
                    "gasUsed": 2122,
                    "id": 48,
                    "methodDecoded": true,
                    "operation": "CALL",
                    "output": "0x000000000000000000000000000000000000000000000000000000005e0d32cb",
                    "revert": false,
                    "revertMessage": "",
                    "selector": "0x8205bf6a",
                    "status": true,
                    "value": "0"
                },
                "nodeType": 0
            },
            "49": {
                "invocation": {
                    "address": "0x94dba784e87a3f5f12e25ec98bf14233c1e69017",
                    "callData": "0x",
                    "decodedMethod": {
                        "callParams": [],
                        "constructorArguments": "",
                        "name": "FEE_ADDRESS",
                        "returnParams": [
                            {
                                "name": "",
                                "type": "address",
                                "value": "0xfeefeefeefeefeefeefeefeefeefeefeefeefeef"
                            }
                        ],
                        "signature": "FEE_ADDRESS()"
                    },
                    "errorInfo": "",
                    "fromAddress": "0x7cb89c509001d25da9938999abfea6740212e5f0",
                    "gasUsed": 1494,
                    "id": 49,
                    "methodDecoded": true,
                    "operation": "CALL",
                    "output": "0x000000000000000000000000feefeefeefeefeefeefeefeefeefeefeefeefeef",
                    "revert": false,
                    "revertMessage": "",
                    "selector": "0xeb1edd61",
                    "status": true,
                    "value": "0"
                },
                "nodeType": 0
            },
            "5": {
                "invocation": {
                    "address": "0xb440dd674e1243644791a4adfe3a2abb0a92d309",
                    "callData": "0x",
                    "decodedMethod": {
                        "callParams": [],
                        "constructorArguments": "",
                        "name": "target",
                        "returnParams": [
                            {
                                "name": "",
                                "type": "address",
                                "value": "0x94dba784e87a3f5f12e25ec98bf14233c1e69017"
                            }
                        ],
                        "signature": "target()"
                    },
                    "errorInfo": "",
                    "fromAddress": "0x289e9a4674663decee54f781aade5327304a32f8",
                    "gasUsed": 1313,
                    "id": 5,
                    "methodDecoded": true,
                    "operation": "CALL",
                    "output": "0x00000000000000000000000094dba784e87a3f5f12e25ec98bf14233c1e69017",
                    "revert": false,
                    "revertMessage": "",
                    "selector": "0xd4b83992",
                    "status": true,
                    "value": "0"
                },
                "nodeType": 0
            },
            "50": {
                "invocation": {
                    "address": "0x30a46e656cdca6b401ff043e1abb151490a07ab0",
                    "callData": "0x000000000000000000000000feefeefeefeefeefeefeefeefeefeefeefeefeef000000000000000000000000000000000000000000000000008b0b950d30e55f",
                    "decodedMethod": {
                        "callParams": [
                            {
                                "name": "account",
                                "type": "address",
                                "value": "0xfeefeefeefeefeefeefeefeefeefeefeefeefeef"
                            },
                            {
                                "name": "amount",
                                "type": "uint256",
                                "value": "39,137,756,562,122,079"
                            }
                        ],
                        "constructorArguments": "",
                        "name": "issue",
                        "returnParams": [],
                        "signature": "issue(address,uint256)"
                    },
                    "errorInfo": "",
                    "fromAddress": "0x7cb89c509001d25da9938999abfea6740212e5f0",
                    "gasUsed": 38964,
                    "id": 50,
                    "methodDecoded": true,
                    "operation": "CALL",
                    "output": "",
                    "revert": false,
                    "revertMessage": "",
                    "selector": "0x867904b4",
                    "status": true,
                    "value": "0"
                },
                "nodeType": 0
            },
            "51": {
                "invocation": {
                    "address": "0xc011a72400e58ecd99ee497cf89e3775d4bd732f",
                    "callData": "0x",
                    "decodedMethod": {
                        "callParams": [],
                        "constructorArguments": "",
                        "name": "target",
                        "returnParams": [
                            {
                                "name": "",
                                "type": "address",
                                "value": "0x7cb89c509001d25da9938999abfea6740212e5f0"
                            }
                        ],
                        "signature": "target()"
                    },
                    "errorInfo": "",
                    "fromAddress": "0x30a46e656cdca6b401ff043e1abb151490a07ab0",
                    "gasUsed": 1313,
                    "id": 51,
                    "methodDecoded": true,
                    "operation": "CALL",
                    "output": "0x0000000000000000000000007cb89c509001d25da9938999abfea6740212e5f0",
                    "revert": false,
                    "revertMessage": "",
                    "selector": "0xd4b83992",
                    "status": true,
                    "value": "0"
                },
                "nodeType": 0
            },
            "52": {
                "invocation": {
                    "address": "0xb440dd674e1243644791a4adfe3a2abb0a92d309",
                    "callData": "0x",
                    "decodedMethod": {
                        "callParams": [],
                        "constructorArguments": "",
                        "name": "target",
                        "returnParams": [
                            {
                                "name": "",
                                "type": "address",
                                "value": "0x94dba784e87a3f5f12e25ec98bf14233c1e69017"
                            }
                        ],
                        "signature": "target()"
                    },
                    "errorInfo": "",
                    "fromAddress": "0x30a46e656cdca6b401ff043e1abb151490a07ab0",
                    "gasUsed": 1313,
                    "id": 52,
                    "methodDecoded": true,
                    "operation": "CALL",
                    "output": "0x00000000000000000000000094dba784e87a3f5f12e25ec98bf14233c1e69017",
                    "revert": false,
                    "revertMessage": "",
                    "selector": "0xd4b83992",
                    "status": true,
                    "value": "0"
                },
                "nodeType": 0
            },
            "53": {
                "invocation": {
                    "address": "0xbf093390d8046ae2d0f5465dec7001d65dc159d5",
                    "callData": "0x000000000000000000000000feefeefeefeefeefeefeefeefeefeefeefeefeef",
                    "decodedMethod": {
                        "callParams": [
                            {
                                "name": "",
                                "type": "address",
                                "value": "0xfeefeefeefeefeefeefeefeefeefeefeefeefeef"
                            }
                        ],
                        "constructorArguments": "",
                        "name": "balanceOf",
                        "returnParams": [
                            {
                                "decimalAvailable": true,
                                "name": "",
                                "type": "uint256",
                                "value": "135,160,663,406,311,232,974,170"
                            }
                        ],
                        "signature": "balanceOf(address)"
                    },
                    "errorInfo": "",
                    "fromAddress": "0x30a46e656cdca6b401ff043e1abb151490a07ab0",
                    "gasUsed": 1197,
                    "id": 53,
                    "methodDecoded": true,
                    "operation": "CALL",
                    "output": "0x000000000000000000000000000000000000000000001c9f1301b82777ab2d5a",
                    "revert": false,
                    "revertMessage": "",
                    "selector": "0x70a08231",
                    "status": true,
                    "value": "0"
                },
                "nodeType": 0
            },
            "54": {
                "invocation": {
                    "address": "0xbf093390d8046ae2d0f5465dec7001d65dc159d5",
                    "callData": "0x000000000000000000000000feefeefeefeefeefeefeefeefeefeefeefeefeef000000000000000000000000000000000000000000001c9f138cc3bc84dc12b9",
                    "decodedMethod": {
                        "callParams": [
                            {
                                "name": "account",
                                "type": "address",
                                "value": "0xfeefeefeefeefeefeefeefeefeefeefeefeefeef"
                            },
                            {
                                "name": "value",
                                "type": "uint256",
                                "value": "135,160,702,544,067,795,096,249"
                            }
                        ],
                        "constructorArguments": "",
                        "name": "setBalanceOf",
                        "returnParams": [],
                        "signature": "setBalanceOf(address,uint256)"
                    },
                    "errorInfo": "",
                    "fromAddress": "0x30a46e656cdca6b401ff043e1abb151490a07ab0",
                    "gasUsed": 6418,
                    "id": 54,
                    "methodDecoded": true,
                    "operation": "CALL",
                    "output": "",
                    "revert": false,
                    "revertMessage": "",
                    "selector": "0xb46310f6",
                    "status": true,
                    "value": "0"
                },
                "nodeType": 0
            },
            "55": {
                "invocation": {
                    "address": "0xb3f67de9a919476a4c0fe821d67bf5c4637d8429",
                    "callData": "0x00000000000000000000000000000000000000000000000000000000000000c00000000000000000000000000000000000000000000000000000000000000003ddf252ad1be2c89b69c2b068fc378daa952ba7f163c4a11628f55a4df523b3ef0000000000000000000000000000000000000000000000000000000000000000000000000000000000000000feefeefeefeefeefeefeefeefeefeefeefeefeef00000000000000000000000000000000000000000000000000000000000000000000000000000000000000000000000000000000000000000000000000000020000000000000000000000000000000000000000000000000008b0b950d30e55f",
                    "decodedMethod": {
                        "callParams": [
                            {
                                "name": "callData",
                                "type": "bytes",
                                "value": "0x000000000000000000000000000000000000000000000000008b0b950d30e55f"
                            },
                            {
                                "name": "numTopics",
                                "type": "uint256",
                                "value": "3"
                            },
                            {
                                "name": "topic1",
                                "type": "bytes32",
                                "value": "0xddf252ad1be2c89b69c2b068fc378daa952ba7f163c4a11628f55a4df523b3ef"
                            },
                            {
                                "name": "topic2",
                                "type": "bytes32",
                                "value": "0x0000000000000000000000000000000000000000000000000000000000000000"
                            },
                            {
                                "name": "topic3",
                                "type": "bytes32",
                                "value": "0x000000000000000000000000feefeefeefeefeefeefeefeefeefeefeefeefeef"
                            },
                            {
                                "name": "topic4",
                                "type": "bytes32",
                                "value": "0x0000000000000000000000000000000000000000000000000000000000000000"
                            }
                        ],
                        "constructorArguments": "",
                        "name": "_emit",
                        "returnParams": [],
                        "signature": "_emit(bytes,uint256,bytes32,bytes32,bytes32,bytes32)"
                    },
                    "errorInfo": "",
                    "fromAddress": "0x30a46e656cdca6b401ff043e1abb151490a07ab0",
                    "gasUsed": 3406,
                    "id": 55,
                    "methodDecoded": true,
                    "operation": "CALL",
                    "output": "",
                    "revert": false,
                    "revertMessage": "",
                    "selector": "0x907dff97",
                    "status": true,
                    "value": "0"
                },
                "nodeType": 0
            },
            "56": {
                "event": {
                    "contract": "0xb3f67de9a919476a4c0fe821d67bf5c4637d8429",
                    "decodedLog": {
                        "name": "Transfer",
                        "params": [
                            {
                                "name": "from",
                                "type": "address",
                                "value": "0x0000000000000000000000000000000000000000"
                            },
                            {
                                "name": "to",
                                "type": "address",
                                "value": "0xfeefeefeefeefeefeefeefeefeefeefeefeefeef"
                            },
                            {
                                "decimalAvailable": true,
                                "name": "value",
                                "type": "uint256",
                                "value": "39,137,756,562,122,079"
                            }
                        ],
                        "signature": "Transfer(address,address,uint256)"
                    },
                    "id": 56,
                    "logData": "0x000000000000000000000000000000000000000000000000008b0b950d30e55f",
                    "logDecoded": true,
                    "operation": "EVENT",
                    "revert": false,
                    "status": true,
                    "topics": [
                        "0xddf252ad1be2c89b69c2b068fc378daa952ba7f163c4a11628f55a4df523b3ef",
                        "0x0000000000000000000000000000000000000000000000000000000000000000",
                        "0x000000000000000000000000feefeefeefeefeefeefeefeefeefeefeefeefeef"
                    ]
                },
                "nodeType": 1
            },
            "57": {
                "invocation": {
                    "address": "0xb3f67de9a919476a4c0fe821d67bf5c4637d8429",
                    "callData": "0x00000000000000000000000000000000000000000000000000000000000000c00000000000000000000000000000000000000000000000000000000000000002a59f12e354e8cd10bb74c559844c2dd69a5458e31fe56c7594c62ca57480509a000000000000000000000000feefeefeefeefeefeefeefeefeefeefeefeefeef000000000000000000000000000000000000000000000000000000000000000000000000000000000000000000000000000000000000000000000000000000000000000000000000000000000000000000000000000000000000000000000020000000000000000000000000000000000000000000000000008b0b950d30e55f",
                    "decodedMethod": {
                        "callParams": [
                            {
                                "name": "callData",
                                "type": "bytes",
                                "value": "0x000000000000000000000000000000000000000000000000008b0b950d30e55f"
                            },
                            {
                                "name": "numTopics",
                                "type": "uint256",
                                "value": "2"
                            },
                            {
                                "name": "topic1",
                                "type": "bytes32",
                                "value": "0xa59f12e354e8cd10bb74c559844c2dd69a5458e31fe56c7594c62ca57480509a"
                            },
                            {
                                "name": "topic2",
                                "type": "bytes32",
                                "value": "0x000000000000000000000000feefeefeefeefeefeefeefeefeefeefeefeefeef"
                            },
                            {
                                "name": "topic3",
                                "type": "bytes32",
                                "value": "0x0000000000000000000000000000000000000000000000000000000000000000"
                            },
                            {
                                "name": "topic4",
                                "type": "bytes32",
                                "value": "0x0000000000000000000000000000000000000000000000000000000000000000"
                            }
                        ],
                        "constructorArguments": "",
                        "name": "_emit",
                        "returnParams": [],
                        "signature": "_emit(bytes,uint256,bytes32,bytes32,bytes32,bytes32)"
                    },
                    "errorInfo": "",
                    "fromAddress": "0x30a46e656cdca6b401ff043e1abb151490a07ab0",
                    "gasUsed": 3006,
                    "id": 57,
                    "methodDecoded": true,
                    "operation": "CALL",
                    "output": "",
                    "revert": false,
                    "revertMessage": "",
                    "selector": "0x907dff97",
                    "status": true,
                    "value": "0"
                },
                "nodeType": 0
            },
            "58": {
                "event": {
                    "contract": "0xb3f67de9a919476a4c0fe821d67bf5c4637d8429",
                    "decodedLog": {
                        "name": "Issued",
                        "params": [
                            {
                                "name": "account",
                                "type": "address",
                                "value": "0xfeefeefeefeefeefeefeefeefeefeefeefeefeef"
                            },
                            {
                                "name": "value",
                                "type": "uint256",
                                "value": "39,137,756,562,122,079"
                            }
                        ],
                        "signature": "Issued(address,uint256)"
                    },
                    "id": 58,
                    "logData": "0x000000000000000000000000000000000000000000000000008b0b950d30e55f",
                    "logDecoded": true,
                    "operation": "EVENT",
                    "revert": false,
                    "status": true,
                    "topics": [
                        "0xa59f12e354e8cd10bb74c559844c2dd69a5458e31fe56c7594c62ca57480509a",
                        "0x000000000000000000000000feefeefeefeefeefeefeefeefeefeefeefeefeef"
                    ]
                },
                "nodeType": 1
            },
            "59": {
                "invocation": {
                    "address": "0x94dba784e87a3f5f12e25ec98bf14233c1e69017",
                    "callData": "0x000000000000000000000000000000000000000000000000008b0b950d30e55f",
                    "decodedMethod": {
                        "callParams": [
                            {
                                "name": "xdrAmount",
                                "type": "uint256",
                                "value": "39,137,756,562,122,079"
                            }
                        ],
                        "constructorArguments": "",
                        "name": "recordFeePaid",
                        "returnParams": [],
                        "signature": "recordFeePaid(uint256)"
                    },
                    "errorInfo": "",
                    "fromAddress": "0x7cb89c509001d25da9938999abfea6740212e5f0",
                    "gasUsed": 8981,
                    "id": 59,
                    "methodDecoded": true,
                    "operation": "CALL",
                    "output": "",
                    "revert": false,
                    "revertMessage": "",
                    "selector": "0x22bf55ef",
                    "status": true,
                    "value": "0"
                },
                "nodeType": 0
            },
            "6": {
                "invocation": {
                    "address": "0x05a9cbe762b36632b3594da4f082340e0e5343e8",
                    "callData": "0x000000000000000000000000e272a25b3b30a6c76ab15224f24eaaeed24abed9",
                    "decodedMethod": {
                        "callParams": [
                            {
                                "name": "",
                                "type": "address",
                                "value": "0xe272a25b3b30a6c76ab15224f24eaaeed24abed9"
                            }
                        ],
                        "constructorArguments": "",
                        "name": "balanceOf",
                        "returnParams": [
                            {
                                "decimalAvailable": true,
                                "name": "",
                                "type": "uint256",
                                "value": "40,563,365,641,809,329,424"
                            }
                        ],
                        "signature": "balanceOf(address)"
                    },
                    "errorInfo": "",
                    "fromAddress": "0x289e9a4674663decee54f781aade5327304a32f8",
                    "gasUsed": 1197,
                    "id": 6,
                    "methodDecoded": true,
                    "operation": "CALL",
                    "output": "0x00000000000000000000000000000000000000000000000232ee062326547d10",
                    "revert": false,
                    "revertMessage": "",
                    "selector": "0x70a08231",
                    "status": true,
                    "value": "0"
                },
                "nodeType": 0
            },
            "60": {
                "invocation": {
                    "address": "0xc011a72400e58ecd99ee497cf89e3775d4bd732f",
                    "callData": "0x00000000000000000000000000000000000000000000000000000000000000c0000000000000000000000000000000000000000000000000000000000000000265b6972c94204d84cffd3a95615743e31270f04fdf251f3dccc705cfbad44776000000000000000000000000e272a25b3b30a6c76ab15224f24eaaeed24abed90000000000000000000000000000000000000000000000000000000000000000000000000000000000000000000000000000000000000000000000000000000000000000000000000000000000000000000000000000000000000000000000a0735553440000000000000000000000000000000000000000000000000000000000000000000000000000000000000000000000000000000232ee058db783500073584147000000000000000000000000000000000000000000000000000000000000000000000000000000000000000000000000000000001f4df15b79326775000000000000000000000000e272a25b3b30a6c76ab15224f24eaaeed24abed9",
                    "decodedMethod": {
                        "callParams": [
                            {
                                "name": "callData",
                                "type": "bytes",
                                "value": "0x735553440000000000000000000000000000000000000000000000000000000000000000000000000000000000000000000000000000000232ee058db783500073584147000000000000000000000000000000000000000000000000000000000000000000000000000000000000000000000000000000001f4df15b79326775000000000000000000000000e272a25b3b30a6c76ab15224f24eaaeed24abed9"
                            },
                            {
                                "name": "numTopics",
                                "type": "uint256",
                                "value": "2"
                            },
                            {
                                "name": "topic1",
                                "type": "bytes32",
                                "value": "0x65b6972c94204d84cffd3a95615743e31270f04fdf251f3dccc705cfbad44776"
                            },
                            {
                                "name": "topic2",
                                "type": "bytes32",
                                "value": "0x000000000000000000000000e272a25b3b30a6c76ab15224f24eaaeed24abed9"
                            },
                            {
                                "name": "topic3",
                                "type": "bytes32",
                                "value": "0x0000000000000000000000000000000000000000000000000000000000000000"
                            },
                            {
                                "name": "topic4",
                                "type": "bytes32",
                                "value": "0x0000000000000000000000000000000000000000000000000000000000000000"
                            }
                        ],
                        "constructorArguments": "",
                        "name": "_emit",
                        "returnParams": [],
                        "signature": "_emit(bytes,uint256,bytes32,bytes32,bytes32,bytes32)"
                    },
                    "errorInfo": "",
                    "fromAddress": "0x7cb89c509001d25da9938999abfea6740212e5f0",
                    "gasUsed": 3922,
                    "id": 60,
                    "methodDecoded": true,
                    "operation": "CALL",
                    "output": "",
                    "revert": false,
                    "revertMessage": "",
                    "selector": "0x907dff97",
                    "status": true,
                    "value": "0"
                },
                "nodeType": 0
            },
            "61": {
                "event": {
                    "contract": "0xc011a72400e58ecd99ee497cf89e3775d4bd732f",
                    "decodedLog": {
                        "name": "SynthExchange",
                        "params": [
                            {
                                "name": "account",
                                "type": "address",
                                "value": "0xe272a25b3b30a6c76ab15224f24eaaeed24abed9"
                            },
                            {
                                "name": "fromCurrencyKey",
                                "type": "bytes32",
                                "value": "0x7355534400000000000000000000000000000000000000000000000000000000"
                            },
                            {
                                "name": "fromAmount",
                                "type": "uint256",
                                "value": "40,563,365,000,000,000,000"
                            },
                            {
                                "name": "toCurrencyKey",
                                "type": "bytes32",
                                "value": "0x7358414700000000000000000000000000000000000000000000000000000000"
                            },
                            {
                                "name": "toAmount",
                                "type": "uint256",
                                "value": "2,255,724,363,560,150,901"
                            },
                            {
                                "name": "toAddress",
                                "type": "address",
                                "value": "0xe272a25b3b30a6c76ab15224f24eaaeed24abed9"
                            }
                        ],
                        "signature": "SynthExchange(address,bytes32,uint256,bytes32,uint256,address)"
                    },
                    "id": 61,
                    "logData": "0x735553440000000000000000000000000000000000000000000000000000000000000000000000000000000000000000000000000000000232ee058db783500073584147000000000000000000000000000000000000000000000000000000000000000000000000000000000000000000000000000000001f4df15b79326775000000000000000000000000e272a25b3b30a6c76ab15224f24eaaeed24abed9",
                    "logDecoded": true,
                    "operation": "EVENT",
                    "revert": false,
                    "status": true,
                    "topics": [
                        "0x65b6972c94204d84cffd3a95615743e31270f04fdf251f3dccc705cfbad44776",
                        "0x000000000000000000000000e272a25b3b30a6c76ab15224f24eaaeed24abed9"
                    ]
                },
                "nodeType": 1
            },
            "7": {
                "invocation": {
                    "address": "0x05a9cbe762b36632b3594da4f082340e0e5343e8",
                    "callData": "0x000000000000000000000000e272a25b3b30a6c76ab15224f24eaaeed24abed9000000000000000000000000000000000000000000000000000000956ed12d10",
                    "decodedMethod": {
                        "callParams": [
                            {
                                "name": "account",
                                "type": "address",
                                "value": "0xe272a25b3b30a6c76ab15224f24eaaeed24abed9"
                            },
                            {
                                "name": "value",
                                "type": "uint256",
                                "value": "641,809,329,424"
                            }
                        ],
                        "constructorArguments": "",
                        "name": "setBalanceOf",
                        "returnParams": [],
                        "signature": "setBalanceOf(address,uint256)"
                    },
                    "errorInfo": "",
                    "fromAddress": "0x289e9a4674663decee54f781aade5327304a32f8",
                    "gasUsed": 6418,
                    "id": 7,
                    "methodDecoded": true,
                    "operation": "CALL",
                    "output": "",
                    "revert": false,
                    "revertMessage": "",
                    "selector": "0xb46310f6",
                    "status": true,
                    "value": "0"
                },
                "nodeType": 0
            },
            "8": {
                "invocation": {
                    "address": "0x57ab1e02fee23774580c119740129eac7081e9d3",
                    "callData": "0x00000000000000000000000000000000000000000000000000000000000000c00000000000000000000000000000000000000000000000000000000000000003ddf252ad1be2c89b69c2b068fc378daa952ba7f163c4a11628f55a4df523b3ef000000000000000000000000e272a25b3b30a6c76ab15224f24eaaeed24abed900000000000000000000000000000000000000000000000000000000000000000000000000000000000000000000000000000000000000000000000000000000000000000000000000000000000000000000000000000000000000000000002000000000000000000000000000000000000000000000000232ee058db7835000",
                    "decodedMethod": {
                        "callParams": [
                            {
                                "name": "callData",
                                "type": "bytes",
                                "value": "0x00000000000000000000000000000000000000000000000232ee058db7835000"
                            },
                            {
                                "name": "numTopics",
                                "type": "uint256",
                                "value": "3"
                            },
                            {
                                "name": "topic1",
                                "type": "bytes32",
                                "value": "0xddf252ad1be2c89b69c2b068fc378daa952ba7f163c4a11628f55a4df523b3ef"
                            },
                            {
                                "name": "topic2",
                                "type": "bytes32",
                                "value": "0x000000000000000000000000e272a25b3b30a6c76ab15224f24eaaeed24abed9"
                            },
                            {
                                "name": "topic3",
                                "type": "bytes32",
                                "value": "0x0000000000000000000000000000000000000000000000000000000000000000"
                            },
                            {
                                "name": "topic4",
                                "type": "bytes32",
                                "value": "0x0000000000000000000000000000000000000000000000000000000000000000"
                            }
                        ],
                        "constructorArguments": "",
                        "name": "_emit",
                        "returnParams": [],
                        "signature": "_emit(bytes,uint256,bytes32,bytes32,bytes32,bytes32)"
                    },
                    "errorInfo": "",
                    "fromAddress": "0x289e9a4674663decee54f781aade5327304a32f8",
                    "gasUsed": 3274,
                    "id": 8,
                    "methodDecoded": true,
                    "operation": "CALL",
                    "output": "",
                    "revert": false,
                    "revertMessage": "",
                    "selector": "0x907dff97",
                    "status": true,
                    "value": "0"
                },
                "nodeType": 0
            },
            "9": {
                "event": {
                    "contract": "0x57ab1e02fee23774580c119740129eac7081e9d3",
                    "decodedLog": {
                        "name": "Transfer",
                        "params": [
                            {
                                "name": "from",
                                "type": "address",
                                "value": "0xe272a25b3b30a6c76ab15224f24eaaeed24abed9"
                            },
                            {
                                "name": "to",
                                "type": "address",
                                "value": "0x0000000000000000000000000000000000000000"
                            },
                            {
                                "decimalAvailable": true,
                                "name": "value",
                                "type": "uint256",
                                "value": "40,563,365,000,000,000,000"
                            }
                        ],
                        "signature": "Transfer(address,address,uint256)"
                    },
                    "id": 9,
                    "logData": "0x00000000000000000000000000000000000000000000000232ee058db7835000",
                    "logDecoded": true,
                    "operation": "EVENT",
                    "revert": false,
                    "status": true,
                    "topics": [
                        "0xddf252ad1be2c89b69c2b068fc378daa952ba7f163c4a11628f55a4df523b3ef",
                        "0x000000000000000000000000e272a25b3b30a6c76ab15224f24eaaeed24abed9",
                        "0x0000000000000000000000000000000000000000000000000000000000000000"
                    ]
                },
                "nodeType": 1
            }
        },
        "gasFlame": [
            {
                "children": [
                    {
                        "children": [
                            {
                                "children": [],
                                "depth": 0,
                                "name": "Initial Gas",
                                "value": 21640
                            },
                            {
                                "children": [
                                    {
                                        "children": [],
                                        "depth": 1,
                                        "name": "setMessageSender",
                                        "value": 8321
                                    },
                                    {
                                        "children": [
                                            {
                                                "children": [
                                                    {
                                                        "children": [],
                                                        "depth": 3,
                                                        "name": "target",
                                                        "value": 1313
                                                    },
                                                    {
                                                        "children": [],
                                                        "depth": 3,
                                                        "name": "target",
                                                        "value": 1313
                                                    },
                                                    {
                                                        "children": [],
                                                        "depth": 3,
                                                        "name": "balanceOf",
                                                        "value": 1197
                                                    },
                                                    {
                                                        "children": [],
                                                        "depth": 3,
                                                        "name": "setBalanceOf",
                                                        "value": 6418
                                                    },
                                                    {
                                                        "children": [],
                                                        "depth": 3,
                                                        "name": "_emit",
                                                        "value": 3274
                                                    },
                                                    {
                                                        "children": [],
                                                        "depth": 3,
                                                        "name": "_emit",
                                                        "value": 2874
                                                    }
                                                ],
                                                "depth": 2,
                                                "name": "burn",
                                                "value": 38843
                                            },
                                            {
                                                "children": [
                                                    {
                                                        "children": [],
                                                        "depth": 3,
                                                        "name": "latestAnswer",
                                                        "value": 1946
                                                    },
                                                    {
                                                        "children": [],
                                                        "depth": 3,
                                                        "name": "latestTimestamp",
                                                        "value": 2122
                                                    },
                                                    {
                                                        "children": [],
                                                        "depth": 3,
                                                        "name": "latestAnswer",
                                                        "value": 1946
                                                    },
                                                    {
                                                        "children": [],
                                                        "depth": 3,
                                                        "name": "latestTimestamp",
                                                        "value": 2122
                                                    }
                                                ],
                                                "depth": 2,
                                                "name": "effectiveValue",
                                                "value": 25223
                                            },
                                            {
                                                "children": [],
                                                "depth": 2,
                                                "name": "exchangeFeeRate",
                                                "value": 1072
                                            },
                                            {
                                                "children": [],
                                                "depth": 2,
                                                "name": "unit",
                                                "value": 212
                                            },
                                            {
                                                "children": [
                                                    {
                                                        "children": [],
                                                        "depth": 3,
                                                        "name": "target",
                                                        "value": 1313
                                                    },
                                                    {
                                                        "children": [],
                                                        "depth": 3,
                                                        "name": "target",
                                                        "value": 1313
                                                    },
                                                    {
                                                        "children": [],
                                                        "depth": 3,
                                                        "name": "balanceOf",
                                                        "value": 1197
                                                    },
                                                    {
                                                        "children": [],
                                                        "depth": 3,
                                                        "name": "setBalanceOf",
                                                        "value": 6418
                                                    },
                                                    {
                                                        "children": [],
                                                        "depth": 3,
                                                        "name": "_emit",
                                                        "value": 3406
                                                    },
                                                    {
                                                        "children": [],
                                                        "depth": 3,
                                                        "name": "_emit",
                                                        "value": 3006
                                                    }
                                                ],
                                                "depth": 2,
                                                "name": "issue",
                                                "value": 38964
                                            },
                                            {
                                                "children": [
                                                    {
                                                        "children": [],
                                                        "depth": 3,
                                                        "name": "latestAnswer",
                                                        "value": 1946
                                                    },
                                                    {
                                                        "children": [],
                                                        "depth": 3,
                                                        "name": "latestTimestamp",
                                                        "value": 2122
                                                    },
                                                    {
                                                        "children": [],
                                                        "depth": 3,
                                                        "name": "latestAnswer",
                                                        "value": 1946
                                                    },
                                                    {
                                                        "children": [],
                                                        "depth": 3,
                                                        "name": "latestTimestamp",
                                                        "value": 2122
                                                    },
                                                    {
                                                        "children": [],
                                                        "depth": 3,
                                                        "name": "latestAnswer",
                                                        "value": 1946
                                                    },
                                                    {
                                                        "children": [],
                                                        "depth": 3,
                                                        "name": "latestTimestamp",
                                                        "value": 2122
                                                    },
                                                    {
                                                        "children": [],
                                                        "depth": 3,
                                                        "name": "latestAnswer",
                                                        "value": 1946
                                                    },
                                                    {
                                                        "children": [],
                                                        "depth": 3,
                                                        "name": "latestTimestamp",
                                                        "value": 2122
                                                    },
                                                    {
                                                        "children": [],
                                                        "depth": 3,
                                                        "name": "latestAnswer",
                                                        "value": 1946
                                                    },
                                                    {
                                                        "children": [],
                                                        "depth": 3,
                                                        "name": "latestTimestamp",
                                                        "value": 2122
                                                    },
                                                    {
                                                        "children": [],
                                                        "depth": 3,
                                                        "name": "latestAnswer",
                                                        "value": 1946
                                                    },
                                                    {
                                                        "children": [],
                                                        "depth": 3,
                                                        "name": "latestTimestamp",
                                                        "value": 2122
                                                    },
                                                    {
                                                        "children": [],
                                                        "depth": 3,
                                                        "name": "latestAnswer",
                                                        "value": 1946
                                                    },
                                                    {
                                                        "children": [],
                                                        "depth": 3,
                                                        "name": "latestTimestamp",
                                                        "value": 2122
                                                    },
                                                    {
                                                        "children": [],
                                                        "depth": 3,
                                                        "name": "latestAnswer",
                                                        "value": 1946
                                                    },
                                                    {
                                                        "children": [],
                                                        "depth": 3,
                                                        "name": "latestTimestamp",
                                                        "value": 2122
                                                    },
                                                    {
                                                        "children": [],
                                                        "depth": 3,
                                                        "name": "latestAnswer",
                                                        "value": 1946
                                                    },
                                                    {
                                                        "children": [],
                                                        "depth": 3,
                                                        "name": "latestTimestamp",
                                                        "value": 2122
                                                    },
                                                    {
                                                        "children": [],
                                                        "depth": 3,
                                                        "name": "latestAnswer",
                                                        "value": 1946
                                                    },
                                                    {
                                                        "children": [],
                                                        "depth": 3,
                                                        "name": "latestTimestamp",
                                                        "value": 2122
                                                    }
                                                ],
                                                "depth": 2,
                                                "name": "effectiveValue",
                                                "value": 121476
                                            },
                                            {
                                                "children": [],
                                                "depth": 2,
                                                "name": "FEE_ADDRESS",
                                                "value": 1494
                                            },
                                            {
                                                "children": [
                                                    {
                                                        "children": [],
                                                        "depth": 3,
                                                        "name": "target",
                                                        "value": 1313
                                                    },
                                                    {
                                                        "children": [],
                                                        "depth": 3,
                                                        "name": "target",
                                                        "value": 1313
                                                    },
                                                    {
                                                        "children": [],
                                                        "depth": 3,
                                                        "name": "balanceOf",
                                                        "value": 1197
                                                    },
                                                    {
                                                        "children": [],
                                                        "depth": 3,
                                                        "name": "setBalanceOf",
                                                        "value": 6418
                                                    },
                                                    {
                                                        "children": [],
                                                        "depth": 3,
                                                        "name": "_emit",
                                                        "value": 3406
                                                    },
                                                    {
                                                        "children": [],
                                                        "depth": 3,
                                                        "name": "_emit",
                                                        "value": 3006
                                                    }
                                                ],
                                                "depth": 2,
                                                "name": "issue",
                                                "value": 38964
                                            },
                                            {
                                                "children": [],
                                                "depth": 2,
                                                "name": "recordFeePaid",
                                                "value": 8981
                                            },
                                            {
                                                "children": [],
                                                "depth": 2,
                                                "name": "_emit",
                                                "value": 3922
                                            }
                                        ],
                                        "depth": 1,
                                        "name": "exchange",
                                        "value": 312550
                                    }
                                ],
                                "depth": 0,
                                "name": "Executed Gas",
                                "value": 326013
                            }
                        ],
                        "depth": -1,
                        "name": "Actual Gas Used",
                        "value": 347653
                    },
                    {
                        "children": [],
                        "depth": -1,
                        "name": "Refunded Gas",
                        "value": 0
                    }
                ],
                "depth": -2,
                "name": "Total Gas",
                "value": 347653
            }
        ],
        "isConfirmed": true,
        "mainTrace": [
            {
                "children": [
                    {
                        "children": [
                            {
                                "children": [],
                                "depth": 1,
                                "id": 1,
                                "order": 1
                            },
                            {
                                "children": [
                                    {
                                        "children": [
                                            {
                                                "children": [],
                                                "depth": 3,
                                                "id": 4,
                                                "order": 4
                                            },
                                            {
                                                "children": [],
                                                "depth": 3,
                                                "id": 5,
                                                "order": 5
                                            },
                                            {
                                                "children": [],
                                                "depth": 3,
                                                "id": 6,
                                                "order": 6
                                            },
                                            {
                                                "children": [],
                                                "depth": 3,
                                                "id": 7,
                                                "order": 7
                                            },
                                            {
                                                "children": [
                                                    {
                                                        "children": [],
                                                        "depth": 4,
                                                        "id": 9,
                                                        "order": 9
                                                    }
                                                ],
                                                "depth": 3,
                                                "id": 8,
                                                "order": 8
                                            },
                                            {
                                                "children": [
                                                    {
                                                        "children": [],
                                                        "depth": 4,
                                                        "id": 11,
                                                        "order": 11
                                                    }
                                                ],
                                                "depth": 3,
                                                "id": 10,
                                                "order": 10
                                            }
                                        ],
                                        "depth": 2,
                                        "id": 3,
                                        "order": 3
                                    },
                                    {
                                        "children": [
                                            {
                                                "children": [],
                                                "depth": 3,
                                                "id": 13,
                                                "order": 13
                                            },
                                            {
                                                "children": [],
                                                "depth": 3,
                                                "id": 14,
                                                "order": 14
                                            },
                                            {
                                                "children": [],
                                                "depth": 3,
                                                "id": 15,
                                                "order": 15
                                            },
                                            {
                                                "children": [],
                                                "depth": 3,
                                                "id": 16,
                                                "order": 16
                                            }
                                        ],
                                        "depth": 2,
                                        "id": 12,
                                        "order": 12
                                    },
                                    {
                                        "children": [],
                                        "depth": 2,
                                        "id": 17,
                                        "order": 17
                                    },
                                    {
                                        "children": [],
                                        "depth": 2,
                                        "id": 18,
                                        "order": 18
                                    },
                                    {
                                        "children": [
                                            {
                                                "children": [],
                                                "depth": 3,
                                                "id": 20,
                                                "order": 20
                                            },
                                            {
                                                "children": [],
                                                "depth": 3,
                                                "id": 21,
                                                "order": 21
                                            },
                                            {
                                                "children": [],
                                                "depth": 3,
                                                "id": 22,
                                                "order": 22
                                            },
                                            {
                                                "children": [],
                                                "depth": 3,
                                                "id": 23,
                                                "order": 23
                                            },
                                            {
                                                "children": [
                                                    {
                                                        "children": [],
                                                        "depth": 4,
                                                        "id": 25,
                                                        "order": 25
                                                    }
                                                ],
                                                "depth": 3,
                                                "id": 24,
                                                "order": 24
                                            },
                                            {
                                                "children": [
                                                    {
                                                        "children": [],
                                                        "depth": 4,
                                                        "id": 27,
                                                        "order": 27
                                                    }
                                                ],
                                                "depth": 3,
                                                "id": 26,
                                                "order": 26
                                            }
                                        ],
                                        "depth": 2,
                                        "id": 19,
                                        "order": 19
                                    },
                                    {
                                        "children": [
                                            {
                                                "children": [],
                                                "depth": 3,
                                                "id": 29,
                                                "order": 29
                                            },
                                            {
                                                "children": [],
                                                "depth": 3,
                                                "id": 30,
                                                "order": 30
                                            },
                                            {
                                                "children": [],
                                                "depth": 3,
                                                "id": 31,
                                                "order": 31
                                            },
                                            {
                                                "children": [],
                                                "depth": 3,
                                                "id": 32,
                                                "order": 32
                                            },
                                            {
                                                "children": [],
                                                "depth": 3,
                                                "id": 33,
                                                "order": 33
                                            },
                                            {
                                                "children": [],
                                                "depth": 3,
                                                "id": 34,
                                                "order": 34
                                            },
                                            {
                                                "children": [],
                                                "depth": 3,
                                                "id": 35,
                                                "order": 35
                                            },
                                            {
                                                "children": [],
                                                "depth": 3,
                                                "id": 36,
                                                "order": 36
                                            },
                                            {
                                                "children": [],
                                                "depth": 3,
                                                "id": 37,
                                                "order": 37
                                            },
                                            {
                                                "children": [],
                                                "depth": 3,
                                                "id": 38,
                                                "order": 38
                                            },
                                            {
                                                "children": [],
                                                "depth": 3,
                                                "id": 39,
                                                "order": 39
                                            },
                                            {
                                                "children": [],
                                                "depth": 3,
                                                "id": 40,
                                                "order": 40
                                            },
                                            {
                                                "children": [],
                                                "depth": 3,
                                                "id": 41,
                                                "order": 41
                                            },
                                            {
                                                "children": [],
                                                "depth": 3,
                                                "id": 42,
                                                "order": 42
                                            },
                                            {
                                                "children": [],
                                                "depth": 3,
                                                "id": 43,
                                                "order": 43
                                            },
                                            {
                                                "children": [],
                                                "depth": 3,
                                                "id": 44,
                                                "order": 44
                                            },
                                            {
                                                "children": [],
                                                "depth": 3,
                                                "id": 45,
                                                "order": 45
                                            },
                                            {
                                                "children": [],
                                                "depth": 3,
                                                "id": 46,
                                                "order": 46
                                            },
                                            {
                                                "children": [],
                                                "depth": 3,
                                                "id": 47,
                                                "order": 47
                                            },
                                            {
                                                "children": [],
                                                "depth": 3,
                                                "id": 48,
                                                "order": 48
                                            }
                                        ],
                                        "depth": 2,
                                        "id": 28,
                                        "order": 28
                                    },
                                    {
                                        "children": [],
                                        "depth": 2,
                                        "id": 49,
                                        "order": 49
                                    },
                                    {
                                        "children": [
                                            {
                                                "children": [],
                                                "depth": 3,
                                                "id": 51,
                                                "order": 51
                                            },
                                            {
                                                "children": [],
                                                "depth": 3,
                                                "id": 52,
                                                "order": 52
                                            },
                                            {
                                                "children": [],
                                                "depth": 3,
                                                "id": 53,
                                                "order": 53
                                            },
                                            {
                                                "children": [],
                                                "depth": 3,
                                                "id": 54,
                                                "order": 54
                                            },
                                            {
                                                "children": [
                                                    {
                                                        "children": [],
                                                        "depth": 4,
                                                        "id": 56,
                                                        "order": 56
                                                    }
                                                ],
                                                "depth": 3,
                                                "id": 55,
                                                "order": 55
                                            },
                                            {
                                                "children": [
                                                    {
                                                        "children": [],
                                                        "depth": 4,
                                                        "id": 58,
                                                        "order": 58
                                                    }
                                                ],
                                                "depth": 3,
                                                "id": 57,
                                                "order": 57
                                            }
                                        ],
                                        "depth": 2,
                                        "id": 50,
                                        "order": 50
                                    },
                                    {
                                        "children": [],
                                        "depth": 2,
                                        "id": 59,
                                        "order": 59
                                    },
                                    {
                                        "children": [
                                            {
                                                "children": [],
                                                "depth": 3,
                                                "id": 61,
                                                "order": 61
                                            }
                                        ],
                                        "depth": 2,
                                        "id": 60,
                                        "order": 60
                                    }
                                ],
                                "depth": 1,
                                "id": 2,
                                "order": 2
                            }
                        ],
                        "depth": 0,
                        "id": 0,
                        "order": 0
                    }
                ],
                "depth": -1,
                "id": -1,
                "order": -1
            }
        ],
        "mainTraceNodeCount": 62,
        "parentIdMap": {
            "0": -1,
            "1": 0,
            "10": 3,
            "11": 10,
            "12": 2,
            "13": 12,
            "14": 12,
            "15": 12,
            "16": 12,
            "17": 2,
            "18": 2,
            "19": 2,
            "2": 0,
            "20": 19,
            "21": 19,
            "22": 19,
            "23": 19,
            "24": 19,
            "25": 24,
            "26": 19,
            "27": 26,
            "28": 2,
            "29": 28,
            "3": 2,
            "30": 28,
            "31": 28,
            "32": 28,
            "33": 28,
            "34": 28,
            "35": 28,
            "36": 28,
            "37": 28,
            "38": 28,
            "39": 28,
            "4": 3,
            "40": 28,
            "41": 28,
            "42": 28,
            "43": 28,
            "44": 28,
            "45": 28,
            "46": 28,
            "47": 28,
            "48": 28,
            "49": 2,
            "5": 3,
            "50": 2,
            "51": 50,
            "52": 50,
            "53": 50,
            "54": 50,
            "55": 50,
            "56": 55,
            "57": 50,
            "58": 57,
            "59": 2,
            "6": 3,
            "60": 2,
            "61": 60,
            "7": 3,
            "8": 3,
            "9": 8
        },
        "tidyTrace": [
            {
                "children": [
                    {
                        "children": [
                            {
                                "children": [],
                                "depth": 1,
                                "id": 1,
                                "order": 1
                            },
                            {
                                "children": [
                                    {
                                        "children": [
                                            {
                                                "children": [],
                                                "depth": 3,
                                                "id": 4,
                                                "order": 4
                                            },
                                            {
                                                "children": [],
                                                "depth": 3,
                                                "id": 5,
                                                "order": 5
                                            },
                                            {
                                                "children": [],
                                                "depth": 3,
                                                "id": 6,
                                                "order": 6
                                            },
                                            {
                                                "children": [],
                                                "depth": 3,
                                                "id": 7,
                                                "order": 7
                                            },
                                            {
                                                "children": [
                                                    {
                                                        "children": [],
                                                        "depth": 4,
                                                        "id": 9,
                                                        "order": 9
                                                    }
                                                ],
                                                "depth": 3,
                                                "id": 8,
                                                "order": 8
                                            },
                                            {
                                                "children": [
                                                    {
                                                        "children": [],
                                                        "depth": 4,
                                                        "id": 11,
                                                        "order": 11
                                                    }
                                                ],
                                                "depth": 3,
                                                "id": 10,
                                                "order": 10
                                            }
                                        ],
                                        "depth": 2,
                                        "id": 3,
                                        "order": 3
                                    },
                                    {
                                        "children": [
                                            {
                                                "children": [],
                                                "depth": 3,
                                                "id": 13,
                                                "order": 13
                                            },
                                            {
                                                "children": [],
                                                "depth": 3,
                                                "id": 14,
                                                "order": 14
                                            },
                                            {
                                                "children": [],
                                                "depth": 3,
                                                "id": 15,
                                                "order": 15
                                            },
                                            {
                                                "children": [],
                                                "depth": 3,
                                                "id": 16,
                                                "order": 16
                                            }
                                        ],
                                        "depth": 2,
                                        "id": 12,
                                        "order": 12
                                    },
                                    {
                                        "children": [],
                                        "depth": 2,
                                        "id": 17,
                                        "order": 17
                                    },
                                    {
                                        "children": [],
                                        "depth": 2,
                                        "id": 18,
                                        "order": 18
                                    },
                                    {
                                        "children": [
                                            {
                                                "children": [],
                                                "depth": 3,
                                                "id": 20,
                                                "order": 20
                                            },
                                            {
                                                "children": [],
                                                "depth": 3,
                                                "id": 21,
                                                "order": 21
                                            },
                                            {
                                                "children": [],
                                                "depth": 3,
                                                "id": 22,
                                                "order": 22
                                            },
                                            {
                                                "children": [],
                                                "depth": 3,
                                                "id": 23,
                                                "order": 23
                                            },
                                            {
                                                "children": [
                                                    {
                                                        "children": [],
                                                        "depth": 4,
                                                        "id": 25,
                                                        "order": 25
                                                    }
                                                ],
                                                "depth": 3,
                                                "id": 24,
                                                "order": 24
                                            },
                                            {
                                                "children": [
                                                    {
                                                        "children": [],
                                                        "depth": 4,
                                                        "id": 27,
                                                        "order": 27
                                                    }
                                                ],
                                                "depth": 3,
                                                "id": 26,
                                                "order": 26
                                            }
                                        ],
                                        "depth": 2,
                                        "id": 19,
                                        "order": 19
                                    },
                                    {
                                        "children": [
                                            {
                                                "children": [],
                                                "depth": 3,
                                                "id": 29,
                                                "order": 29
                                            },
                                            {
                                                "children": [],
                                                "depth": 3,
                                                "id": 30,
                                                "order": 30
                                            },
                                            {
                                                "children": [],
                                                "depth": 3,
                                                "id": 31,
                                                "order": 31
                                            },
                                            {
                                                "children": [],
                                                "depth": 3,
                                                "id": 32,
                                                "order": 32
                                            },
                                            {
                                                "children": [],
                                                "depth": 3,
                                                "id": 33,
                                                "order": 33
                                            },
                                            {
                                                "children": [],
                                                "depth": 3,
                                                "id": 34,
                                                "order": 34
                                            },
                                            {
                                                "children": [],
                                                "depth": 3,
                                                "id": 35,
                                                "order": 35
                                            },
                                            {
                                                "children": [],
                                                "depth": 3,
                                                "id": 36,
                                                "order": 36
                                            },
                                            {
                                                "children": [],
                                                "depth": 3,
                                                "id": 37,
                                                "order": 37
                                            },
                                            {
                                                "children": [],
                                                "depth": 3,
                                                "id": 38,
                                                "order": 38
                                            },
                                            {
                                                "children": [],
                                                "depth": 3,
                                                "id": 39,
                                                "order": 39
                                            },
                                            {
                                                "children": [],
                                                "depth": 3,
                                                "id": 40,
                                                "order": 40
                                            },
                                            {
                                                "children": [],
                                                "depth": 3,
                                                "id": 41,
                                                "order": 41
                                            },
                                            {
                                                "children": [],
                                                "depth": 3,
                                                "id": 42,
                                                "order": 42
                                            },
                                            {
                                                "children": [],
                                                "depth": 3,
                                                "id": 43,
                                                "order": 43
                                            },
                                            {
                                                "children": [],
                                                "depth": 3,
                                                "id": 44,
                                                "order": 44
                                            },
                                            {
                                                "children": [],
                                                "depth": 3,
                                                "id": 45,
                                                "order": 45
                                            },
                                            {
                                                "children": [],
                                                "depth": 3,
                                                "id": 46,
                                                "order": 46
                                            },
                                            {
                                                "children": [],
                                                "depth": 3,
                                                "id": 47,
                                                "order": 47
                                            },
                                            {
                                                "children": [],
                                                "depth": 3,
                                                "id": 48,
                                                "order": 48
                                            }
                                        ],
                                        "depth": 2,
                                        "id": 28,
                                        "order": 28
                                    },
                                    {
                                        "children": [],
                                        "depth": 2,
                                        "id": 49,
                                        "order": 49
                                    },
                                    {
                                        "children": [
                                            {
                                                "children": [],
                                                "depth": 3,
                                                "id": 51,
                                                "order": 51
                                            },
                                            {
                                                "children": [],
                                                "depth": 3,
                                                "id": 52,
                                                "order": 52
                                            },
                                            {
                                                "children": [],
                                                "depth": 3,
                                                "id": 53,
                                                "order": 53
                                            },
                                            {
                                                "children": [],
                                                "depth": 3,
                                                "id": 54,
                                                "order": 54
                                            },
                                            {
                                                "children": [
                                                    {
                                                        "children": [],
                                                        "depth": 4,
                                                        "id": 56,
                                                        "order": 56
                                                    }
                                                ],
                                                "depth": 3,
                                                "id": 55,
                                                "order": 55
                                            },
                                            {
                                                "children": [
                                                    {
                                                        "children": [],
                                                        "depth": 4,
                                                        "id": 58,
                                                        "order": 58
                                                    }
                                                ],
                                                "depth": 3,
                                                "id": 57,
                                                "order": 57
                                            }
                                        ],
                                        "depth": 2,
                                        "id": 50,
                                        "order": 50
                                    },
                                    {
                                        "children": [],
                                        "depth": 2,
                                        "id": 59,
                                        "order": 59
                                    },
                                    {
                                        "children": [
                                            {
                                                "children": [],
                                                "depth": 3,
                                                "id": 61,
                                                "order": 61
                                            }
                                        ],
                                        "depth": 2,
                                        "id": 60,
                                        "order": 60
                                    }
                                ],
                                "depth": 1,
                                "id": 2,
                                "order": 2
                            }
                        ],
                        "depth": 0,
                        "id": 0,
                        "order": 0
                    }
                ],
                "depth": -1,
                "id": -1,
                "order": -1
            }
        ],
        "tidyTraceNodeCount": 62
    },
    "state_change": {
        "stateChanges": [
            {
                "address": "0x05a9cbe762b36632b3594da4f082340e0e5343e8",
                "erc": "",
                "slots": [
                    {
                        "current": "0x000000000000000000000000000000000000000000000000000000956ed12d10",
                        "key": "0x37eb0c76a6becfd3732f0328da3b4a491303c0c6d381df988ea3779539c83b8a",
                        "prev": "0x00000000000000000000000000000000000000000000000232ee062326547d10"
                    }
                ],
                "storageVariables": [
                    {
                        "name": "balanceOf",
                        "type": "mapping(address => uint256)",
                        "value": {
                            "pairs": [
                                {
                                    "key": "0xe272a25b3b30a6c76ab15224f24eaaeed24abed9",
                                    "value": {
                                        "current": "641809329424",
                                        "prev": "40563365641809329424",
                                        "typeTag": 1
                                    }
                                }
                            ],
                            "typeTag": 4
                        }
                    }
                ]
            },
            {
                "address": "0x289e9a4674663decee54f781aade5327304a32f8",
                "erc": "ERC-20",
                "slots": [
                    {
                        "current": "0x000000000000000000000000000000000000000000094dbddba73eecafcfdfe9",
                        "key": "0x000000000000000000000000000000000000000000000000000000000000000a",
                        "prev": "0x000000000000000000000000000000000000000000094dc00e95447a67532fe9"
                    }
                ],
                "storageVariables": [
                    {
                        "name": "totalSupply",
                        "type": "uint256",
                        "value": {
                            "current": "11247456858031158058803177",
                            "prev": "11247497421396158058803177",
                            "typeTag": 1
                        }
                    }
                ]
            },
            {
                "address": "0x30a46e656cdca6b401ff043e1abb151490a07ab0",
                "erc": "ERC-20",
                "slots": [
                    {
                        "current": "0x000000000000000000000000000000000000000000001c9f138cc3bc84dc12b9",
                        "key": "0x000000000000000000000000000000000000000000000000000000000000000a",
                        "prev": "0x000000000000000000000000000000000000000000001c9f1301b82777ab2d5a"
                    }
                ],
                "storageVariables": [
                    {
                        "name": "totalSupply",
                        "type": "uint256",
                        "value": {
                            "current": "135160702544067795096249",
                            "prev": "135160663406311232974170",
                            "typeTag": 1
                        }
                    }
                ]
            },
            {
                "address": "0x3a412043939d9f7e53373b64f858ecb870a92e50",
                "erc": "ERC-20",
                "slots": [
                    {
                        "current": "0x000000000000000000000000000000000000000000000014a53b1b4428b42065",
                        "key": "0x000000000000000000000000000000000000000000000000000000000000000a",
                        "prev": "0x00000000000000000000000000000000000000000000001485ed29e8af81b8f0"
                    }
                ],
                "storageVariables": [
                    {
                        "name": "totalSupply",
                        "type": "uint256",
                        "value": {
                            "current": "380841021493629689957",
                            "prev": "378585297130069539056",
                            "typeTag": 1
                        }
                    }
                ]
            },
            {
                "address": "0x53d244fb46357568dbef082225ccc87cbd94aae8",
                "erc": "",
                "slots": [
                    {
                        "current": "0x000000000000000000000000000000000000000000000001054e1c6ebf13c234",
                        "key": "0x37eb0c76a6becfd3732f0328da3b4a491303c0c6d381df988ea3779539c83b8a",
                        "prev": "0x000000000000000000000000000000000000000000000000e6002b1345e15abf"
                    }
                ],
                "storageVariables": [
                    {
                        "name": "balanceOf",
                        "type": "mapping(address => uint256)",
                        "value": {
                            "pairs": [
                                {
                                    "key": "0xe272a25b3b30a6c76ab15224f24eaaeed24abed9",
                                    "value": {
                                        "current": "18829018354060345908",
                                        "prev": "16573293990500195007",
                                        "typeTag": 1
                                    }
                                }
                            ],
                            "typeTag": 4
                        }
                    }
                ]
            },
            {
                "address": "0x7cb89c509001d25da9938999abfea6740212e5f0",
                "erc": "ERC-20",
                "slots": [
                    {
                        "current": "0x000000000000000000000000e272a25b3b30a6c76ab15224f24eaaeed24abed9",
                        "key": "0x0000000000000000000000000000000000000000000000000000000000000006",
                        "prev": "0x000000000000000000000000a107dfa919c3f084a7893a260b99586981beb528"
                    }
                ],
                "storageVariables": [
                    {
                        "name": "messageSender",
                        "type": "address",
                        "value": {
                            "current": "0xe272a25b3b30a6c76ab15224f24eaaeed24abed9",
                            "prev": "0xa107dfa919c3f084a7893a260b99586981beb528",
                            "typeTag": 1
                        }
                    }
                ]
            },
            {
                "address": "0x94dba784e87a3f5f12e25ec98bf14233c1e69017",
                "erc": "",
                "slots": [
                    {
                        "current": "0x0000000000000000000000000000000000000000000000050ec8a6642ec5641c",
                        "key": "0x0000000000000000000000000000000000000000000000000000000000000011",
                        "prev": "0x0000000000000000000000000000000000000000000000050e3d9acf21947ebd"
                    }
                ],
                "storageVariables": []
            },
            {
                "address": "0xbf093390d8046ae2d0f5465dec7001d65dc159d5",
                "erc": "",
                "slots": [
                    {
                        "current": "0x000000000000000000000000000000000000000000001c9f138cc3bc84dc12b9",
                        "key": "0xd1ae5329791fcfd51055176e51b9eb0ceb6a611fd9a84047feed71565b8557fc",
                        "prev": "0x000000000000000000000000000000000000000000001c9f1301b82777ab2d5a"
                    }
                ],
                "storageVariables": [
                    {
                        "name": "balanceOf",
                        "type": "mapping(address => uint256)",
                        "value": {
                            "pairs": [
                                {
                                    "key": "0xfeefeefeefeefeefeefeefeefeefeefeefeefeef",
                                    "value": {
                                        "current": "135160702544067795096249",
                                        "prev": "135160663406311232974170",
                                        "typeTag": 1
                                    }
                                }
                            ],
                            "typeTag": 4
                        }
                    }
                ]
            }
        ]
    }
}