{
    "balance_change": {
        "balanceChanges": [
            {
                "account": "0x7373c529fb56ccc87ead0af29701ed7f8c95b04f",
                "assets": [
                    {
                        "address": "0x5edc1a266e8b2c5e8086d373725df0690af7e3ea",
                        "amount": "6",
                        "iconUrl": "",
                        "isERC1155": false,
                        "isERC721": false,
                        "sign": false,
                        "value": ""
                    }
                ]
            },
            {
                "account": "0xc583da34cf7375e9c42fa90bd411e0b7bef73333",
                "assets": [
                    {
                        "address": "0x5edc1a266e8b2c5e8086d373725df0690af7e3ea",
                        "amount": "6",
                        "iconUrl": "",
                        "isERC1155": false,
                        "isERC721": false,
                        "sign": true,
                        "value": ""
                    }
                ]
            }
        ]
    },
    "profile": {
        "basic_info": {
            "baseFee": "",
            "blockNumber": 7949834,
            "callData": "0xa9059cbb000000000000000000000000c583da34cf7375e9c42fa90bd411e0b7bef7333300000000000000000000000000000000000000000000000053444835ec580000",
            "debugEnable": true,
            "errorInfo": "",
            "eventCount": 1,
            "feeRecipient": "0xea674fdde714fd979de3edf0f56aa9716b898ec8",
            "formatValue": "0",
            "gasLimit": 250000,
            "gasPrice": "1.1",
            "gasUsed": 190443,
            "intTxnCount": 0,
            "internalRevert": false,
            "internalRevertMessage": "",
            "isContractCreation": false,
            "isFlashloan": false,
            "maxFee": "",
            "nonce": 1,
            "overwritedBlockNumber": -1,
            "priorityFee": "",
            "receiver": "0x5edc1a266e8b2c5e8086d373725df0690af7e3ea",
            "revertMessage": "",
            "sender": "0x7373c529fb56ccc87ead0af29701ed7f8c95b04f",
            "simulationEnable": true,
            "sourceTxnHash": "0xf19325674d36ea6c351e0bdc5f4bc338a3438942ba5bb9b8783c7ce33a9c4e87",
            "status": true,
            "timestamp": "2019-06-13T10:33:08Z",
            "transactionFee": "0.0002094873",
            "txnHash": "0xf19325674d36ea6c351e0bdc5f4bc338a3438942ba5bb9b8783c7ce33a9c4e87",
            "txnIndex": 98,
            "type": 0,
            "value": "0"
        },
        "fund_flow": [
            {
                "amount": "6",
                "from": "0x7373c529fb56ccc87ead0af29701ed7f8c95b04f",
                "id": 1,
                "isERC1155": false,
                "isERC721": false,
                "isReverted": false,
                "order": 1,
                "to": "0xc583da34cf7375e9c42fa90bd411e0b7bef73333",
                "token": "0x5edc1a266e8b2c5e8086d373725df0690af7e3ea"
            }
        ],
        "token_infos": [
            {
                "address": "0xc02aaa39b223fe8d0a0e5c4f27ead9083c756cc2",
                "decimals": 18
            },
            {
                "address": "0xeeeeeeeeeeeeeeeeeeeeeeeeeeeeeeeeeeeeeeee",
                "decimals": 18
            },
            {
                "address": "0x5edc1a266e8b2c5e8086d373725df0690af7e3ea",
                "decimals": 18
            }
        ]
    },
    "address_label": {
        "labels": [
            {
                "address": "0x0000000000000000000000000000000000000003",
                "label": "Precompiled"
            },
            {
                "address": "0x0000000000000000000000000000000000000004",
                "label": "Precompiled"
            },
            {
                "address": "0xeeeeeeeeeeeeeeeeeeeeeeeeeeeeeeeeeeeeeeee",
                "label": "Ether"
            },
            {
                "address": "0x5edc1a266e8b2c5e8086d373725df0690af7e3ea",
                "label": "Yotta Coin"
            },
            {
                "address": "0x0000000000000000000000000000000000000001",
                "label": "Precompiled"
            },
            {
                "address": "0x0000000000000000000000000000000000000002",
                "label": "Precompiled"
            }
        ]
    },
    "trace": {
        "accountLabels": null,
        "dataMap": {
            "-1": {
                "invocation": {
                    "address": "0x7373c529fb56ccc87ead0af29701ed7f8c95b04f",
                    "callData": "",
                    "decodedMethod": null,
                    "errorInfo": "",
                    "fromAddress": "",
                    "gasUsed": 0,
                    "id": -1,
                    "methodDecoded": false,
                    "operation": "",
                    "output": "",
                    "revert": false,
                    "revertMessage": "",
                    "selector": "",
                    "status": false,
                    "value": ""
                },
                "nodeType": 0
            },
            "0": {
                "invocation": {
                    "address": "0x5edc1a266e8b2c5e8086d373725df0690af7e3ea",
                    "callData": "0x000000000000000000000000c583da34cf7375e9c42fa90bd411e0b7bef7333300000000000000000000000000000000000000000000000053444835ec580000",
                    "decodedMethod": {
                        "callParams": [
                            {
                                "name": "_to",
                                "type": "address",
                                "value": "0xc583da34cf7375e9c42fa90bd411e0b7bef73333"
                            },
                            {
                                "decimalAvailable": true,
                                "name": "_value",
                                "type": "uint256",
                                "value": "6,000,000,000,000,000,000"
                            }
                        ],
                        "constructorArguments": "",
                        "name": "transfer",
                        "returnParams": [
                            {
                                "name": "",
                                "type": "bool",
                                "value": true
                            }
                        ],
                        "signature": "transfer(address,uint256)"
                    },
                    "errorInfo": "",
                    "fromAddress": "0x7373c529fb56ccc87ead0af29701ed7f8c95b04f",
                    "gasUsed": 190443,
                    "id": 0,
                    "methodDecoded": true,
                    "operation": "CALL",
                    "output": "0x0000000000000000000000000000000000000000000000000000000000000001",
                    "revert": false,
                    "revertMessage": "",
                    "selector": "0xa9059cbb",
                    "status": true,
                    "value": "0"
                },
                "nodeType": 0
            },
            "1": {
                "event": {
                    "contract": "0x5edc1a266e8b2c5e8086d373725df0690af7e3ea",
                    "decodedLog": {
                        "name": "Transfer",
                        "params": [
                            {
                                "name": "from",
                                "type": "address",
                                "value": "0x7373c529fb56ccc87ead0af29701ed7f8c95b04f"
                            },
                            {
                                "name": "to",
                                "type": "address",
                                "value": "0xc583da34cf7375e9c42fa90bd411e0b7bef73333"
                            },
                            {
                                "decimalAvailable": true,
                                "name": "value",
                                "type": "uint256",
                                "value": "6,000,000,000,000,000,000"
                            }
                        ],
                        "signature": "Transfer(address,address,uint256)"
                    },
                    "id": 1,
                    "logData": "0x00000000000000000000000000000000000000000000000053444835ec580000",
                    "logDecoded": true,
                    "operation": "EVENT",
                    "revert": false,
                    "status": true,
                    "topics": [
                        "0xddf252ad1be2c89b69c2b068fc378daa952ba7f163c4a11628f55a4df523b3ef",
                        "0x0000000000000000000000007373c529fb56ccc87ead0af29701ed7f8c95b04f",
                        "0x000000000000000000000000c583da34cf7375e9c42fa90bd411e0b7bef73333"
                    ]
                },
                "nodeType": 1
            }
        },
        "gasFlame": [
            {
                "children": [
                    {
                        "children": [
                            {
                                "children": [],
                                "depth": 0,
                                "name": "Initial Gas",
                                "value": 23192
                            },
                            {
                                "children": [],
                                "depth": 0,
                                "name": "Executed Gas",
                                "value": 167251
                            }
                        ],
                        "depth": -1,
                        "name": "Actual Gas Used",
                        "value": 190443
                    },
                    {
                        "children": [],
                        "depth": -1,
                        "name": "Refunded Gas",
                        "value": 0
                    }
                ],
                "depth": -2,
                "name": "Total Gas",
                "value": 190443
            }
        ],
        "isConfirmed": true,
        "mainTrace": [
            {
                "children": [
                    {
                        "children": [
                            {
                                "children": [],
                                "depth": 1,
                                "id": 1,
                                "order": 1
                            }
                        ],
                        "depth": 0,
                        "id": 0,
                        "order": 0
                    }
                ],
                "depth": -1,
                "id": -1,
                "order": -1
            }
        ],
        "mainTraceNodeCount": 2,
        "parentIdMap": {
            "0": -1,
            "1": 0
        },
        "tidyTrace": [
            {
                "children": [
                    {
                        "children": [
                            {
                                "children": [],
                                "depth": 1,
                                "id": 1,
                                "order": 1
                            }
                        ],
                        "depth": 0,
                        "id": 0,
                        "order": 0
                    }
                ],
                "depth": -1,
                "id": -1,
                "order": -1
            }
        ],
        "tidyTraceNodeCount": 2
    },
    "state_change": {
        "stateChanges": [
            {
                "address": "0x5edc1a266e8b2c5e8086d373725df0690af7e3ea",
                "erc": "ERC-20",
                "slots": [
                    {
                        "current": "0x000000000000000000000000000000000000000000000000c423afc8f9855555",
                        "key": "0x54957c8170c53d4f96811c23e3cacb77248e654fbf95e8954ee614840dcde90f",
                        "prev": "0x0000000000000000000000000000000000000000000000011767f7fee5dd5555"
                    },
                    {
                        "current": "0x00000000000000000000000000000000000000000000046a027ca274e9940000",
                        "key": "0x255d7792d1927aeeb4f098d203e21dc302f9faf5fb5817f2291cc1a059c4e9af",
                        "prev": "0x000000000000000000000000000000000000000000000469af385a3efd3c0000"
                    }
                ],
                "storageVariables": [
                    {
                        "name": "balances",
                        "type": "mapping(address => uint256)",
                        "value": {
                            "pairs": [
                                {
                                    "key": "0x7373c529fb56ccc87ead0af29701ed7f8c95b04f",
                                    "value": {
                                        "current": "14133333333333333333",
                                        "prev": "20133333333333333333",
                                        "typeTag": 1
                                    }
                                },
                                {
                                    "key": "0xc583da34cf7375e9c42fa90bd411e0b7bef73333",
                                    "value": {
                                        "current": "20845000000000000000000",
                                        "prev": "20839000000000000000000",
                                        "typeTag": 1
                                    }
                                }
                            ],
                            "typeTag": 4
                        }
                    }
                ]
            }
        ]
    }
}