{
    "balance_change": {
        "balanceChanges": [
            {
                "account": "0xfafcd5243ae0f9dc9ba56007dcb1fa06c3e5470a",
                "assets": [
                    {
                        "address": "0xf7ecb2e5ddad17506e62f51a442f725a26053fb2",
                        "amount": "111.933661576657796573",
                        "iconUrl": "",
                        "isERC1155": false,
                        "isERC721": false,
                        "sign": false,
                        "value": "14.04756925"
                    },
                    {
                        "address": "0xc14a5db2f42617e178c4f3e5a1b6aae8c2ac0a4f",
                        "amount": "266,012.580983467",
                        "iconUrl": "",
                        "isERC1155": false,
                        "isERC721": false,
                        "sign": true,
                        "value": "12.69161471"
                    }
                ]
            },
            {
                "account": "0x0000000000000000000000000000000000000000",
                "assets": [
                    {
                        "address": "0xf7ecb2e5ddad17506e62f51a442f725a26053fb2",
                        "amount": "4.477346463066311862",
                        "iconUrl": "",
                        "isERC1155": false,
                        "isERC721": false,
                        "sign": true,
                        "value": "0.5613643"
                    }
                ]
            },
            {
                "account": "0x2c5eae2ac336e27a7c8737cf5fc3263c4f09a2f0",
                "assets": [
                    {
                        "address": "0xf7ecb2e5ddad17506e62f51a442f725a26053fb2",
                        "amount": "104.098305266291750813",
                        "iconUrl": "",
                        "isERC1155": false,
                        "isERC721": false,
                        "sign": true,
                        "value": "13.04072914"
                    },
                    {
                        "address": "0xc02aaa39b223fe8d0a0e5c4f27ead9083c756cc2",
                        "amount": "0.010181603774461493",
                        "iconUrl": "https://assets.blocksec.com/icon/f1cb2d02c471d545bbc7722daf3277fd852d98e63d118771af7047bd8256c516.png",
                        "isERC1155": false,
                        "isERC721": false,
                        "sign": false,
                        "value": "13.0824445001107008335"
                    }
                ]
            },
            {
                "account": "0x57b823d371820f5be00942dd81839716dbaf77d4",
                "assets": [
                    {
                        "address": "0xc02aaa39b223fe8d0a0e5c4f27ead9083c756cc2",
                        "amount": "0.010181603774461493",
                        "iconUrl": "https://assets.blocksec.com/icon/f1cb2d02c471d545bbc7722daf3277fd852d98e63d118771af7047bd8256c516.png",
                        "isERC1155": false,
                        "isERC721": false,
                        "sign": true,
                        "value": "13.0824445001107008335"
                    },
                    {
                        "address": "0xc14a5db2f42617e178c4f3e5a1b6aae8c2ac0a4f",
                        "amount": "266,012.580983467",
                        "iconUrl": "",
                        "isERC1155": false,
                        "isERC721": false,
                        "sign": false,
                        "value": "12.69161471"
                    }
                ]
            },
            {
                "account": "0xf7ecb2e5ddad17506e62f51a442f725a26053fb2",
                "assets": [
                    {
                        "address": "0xf7ecb2e5ddad17506e62f51a442f725a26053fb2",
                        "amount": "3.358009847299733898",
                        "iconUrl": "",
                        "isERC1155": false,
                        "isERC721": false,
                        "sign": true,
                        "value": "0.42104886"
                    }
                ]
            }
        ]
    },
    "profile": {
        "basic_info": {
            "baseFee": "13.132511452",
            "blockNumber": 15758328,
            "callData": "0x5ae401dc00000000000000000000000000000000000000000000000000000000634b91130000000000000000000000000000000000000000000000000000000000000040000000000000000000000000000000000000000000000000000000000000000100000000000000000000000000000000000000000000000000000000000000200000000000000000000000000000000000000000000000000000000000000104472b43f3000000000000000000000000000000000000000000000006116440276d7a7ddd0000000000000000000000000000000000000000000000000000f148a88b95910000000000000000000000000000000000000000000000000000000000000080000000000000000000000000fafcd5243ae0f9dc9ba56007dcb1fa06c3e5470a0000000000000000000000000000000000000000000000000000000000000003000000000000000000000000f7ecb2e5ddad17506e62f51a442f725a26053fb2000000000000000000000000c02aaa39b223fe8d0a0e5c4f27ead9083c756cc2000000000000000000000000c14a5db2f42617e178c4f3e5a1b6aae8c2ac0a4f00000000000000000000000000000000000000000000000000000000",
            "debugEnable": true,
            "errorInfo": "",
            "eventCount": 12,
            "feeRecipient": "0xebec795c9c8bbd61ffc14a6662944748f299cacf",
            "formatValue": "0",
            "gasLimit": 485115,
            "gasPrice": "14.632511452",
            "gasUsed": 347211,
            "intTxnCount": 16,
            "internalRevert": false,
            "internalRevertMessage": "",
            "isContractCreation": false,
            "isFlashloan": false,
            "maxFee": "19.329117533",
            "nonce": 216,
            "overwritedBlockNumber": -1,
            "priorityFee": "1.5",
            "receiver": "0x68b3465833fb72a70ecdf485e0e4c7bd8665fc45",
            "revertMessage": "",
            "sender": "0xfafcd5243ae0f9dc9ba56007dcb1fa06c3e5470a",
            "simulationEnable": true,
            "sourceTxnHash": "0xf1cb714bd8bd9abae29db5a4e2d37e7eb390c1587c9df50784a89905882618ce",
            "status": true,
            "timestamp": "2022-10-16T04:35:47Z",
            "transactionFee": "0.005080568933760372",
            "txnHash": "0xf1cb714bd8bd9abae29db5a4e2d37e7eb390c1587c9df50784a89905882618ce",
            "txnIndex": 22,
            "type": 2,
            "value": "0"
        },
        "fund_flow": [
            {
                "amount": "8.954692926132623725",
                "from": "0xfafcd5243ae0f9dc9ba56007dcb1fa06c3e5470a",
                "id": 1,
                "isERC1155": false,
                "isERC721": false,
                "isReverted": false,
                "order": 1,
                "to": "0xf7ecb2e5ddad17506e62f51a442f725a26053fb2",
                "token": "0xf7ecb2e5ddad17506e62f51a442f725a26053fb2"
            },
            {
                "amount": "4.477346463066311862",
                "from": "0xf7ecb2e5ddad17506e62f51a442f725a26053fb2",
                "id": 2,
                "isERC1155": false,
                "isERC721": false,
                "isReverted": false,
                "order": 2,
                "to": "0x0000000000000000000000000000000000000000",
                "token": "0xf7ecb2e5ddad17506e62f51a442f725a26053fb2"
            },
            {
                "amount": "1.119336615766577965",
                "from": "0xf7ecb2e5ddad17506e62f51a442f725a26053fb2",
                "id": 3,
                "isERC1155": false,
                "isERC721": false,
                "isReverted": false,
                "order": 3,
                "to": "0x2c5eae2ac336e27a7c8737cf5fc3263c4f09a2f0",
                "token": "0xf7ecb2e5ddad17506e62f51a442f725a26053fb2"
            },
            {
                "amount": "102.978968650525172848",
                "from": "0xfafcd5243ae0f9dc9ba56007dcb1fa06c3e5470a",
                "id": 4,
                "isERC1155": false,
                "isERC721": false,
                "isReverted": false,
                "order": 4,
                "to": "0x2c5eae2ac336e27a7c8737cf5fc3263c4f09a2f0",
                "token": "0xf7ecb2e5ddad17506e62f51a442f725a26053fb2"
            },
            {
                "amount": "0.010181603774461493",
                "from": "0x2c5eae2ac336e27a7c8737cf5fc3263c4f09a2f0",
                "id": 5,
                "isERC1155": false,
                "isERC721": false,
                "isReverted": false,
                "order": 5,
                "to": "0x57b823d371820f5be00942dd81839716dbaf77d4",
                "token": "0xc02aaa39b223fe8d0a0e5c4f27ead9083c756cc2"
            },
            {
                "amount": "266,012.580983467",
                "from": "0x57b823d371820f5be00942dd81839716dbaf77d4",
                "id": 6,
                "isERC1155": false,
                "isERC721": false,
                "isReverted": false,
                "order": 6,
                "to": "0xfafcd5243ae0f9dc9ba56007dcb1fa06c3e5470a",
                "token": "0xc14a5db2f42617e178c4f3e5a1b6aae8c2ac0a4f"
            }
        ],
        "token_infos": [
            {
                "address": "0xc02aaa39b223fe8d0a0e5c4f27ead9083c756cc2",
                "decimals": 18
            },
            {
                "address": "0xc14a5db2f42617e178c4f3e5a1b6aae8c2ac0a4f",
                "decimals": 9
            },
            {
                "address": "0xf7ecb2e5ddad17506e62f51a442f725a26053fb2",
                "decimals": 18
            },
            {
                "address": "0xeeeeeeeeeeeeeeeeeeeeeeeeeeeeeeeeeeeeeeee",
                "decimals": 18
            }
        ]
    },
    "address_label": {
        "labels": [
            {
                "address": "0x2c5eae2ac336e27a7c8737cf5fc3263c4f09a2f0",
                "label": "Uniswap V2: $WORM"
            },
            {
                "address": "0x68b3465833fb72a70ecdf485e0e4c7bd8665fc45",
                "label": "Uniswap V3: Router 2"
            },
            {
                "address": "0x0000000000000000000000000000000000000003",
                "label": "Precompiled"
            },
            {
                "address": "0xeeeeeeeeeeeeeeeeeeeeeeeeeeeeeeeeeeeeeeee",
                "label": "Ether"
            },
            {
                "address": "0x57b823d371820f5be00942dd81839716dbaf77d4",
                "label": "Uniswap V2: BWCI 5"
            },
            {
                "address": "0xc02aaa39b223fe8d0a0e5c4f27ead9083c756cc2",
                "label": "Wrapped Ether (WETH)"
            },
            {
                "address": "0x0000000000000000000000000000000000000002",
                "label": "Precompiled"
            },
            {
                "address": "0x0000000000000000000000000000000000000004",
                "label": "Precompiled"
            },
            {
                "address": "0xc14a5db2f42617e178c4f3e5a1b6aae8c2ac0a4f",
                "label": "BWCI"
            },
            {
                "address": "0xf7ecb2e5ddad17506e62f51a442f725a26053fb2",
                "label": "$WORM"
            },
            {
                "address": "0x0000000000000000000000000000000000000001",
                "label": "Precompiled"
            }
        ]
    },
    "trace": {
        "accountLabels": null,
        "dataMap": {
            "-1": {
                "invocation": {
                    "address": "0xfafcd5243ae0f9dc9ba56007dcb1fa06c3e5470a",
                    "callData": "",
                    "decodedMethod": null,
                    "errorInfo": "",
                    "fromAddress": "",
                    "gasUsed": 0,
                    "id": -1,
                    "methodDecoded": false,
                    "operation": "",
                    "output": "",
                    "revert": false,
                    "revertMessage": "",
                    "selector": "",
                    "status": false,
                    "value": ""
                },
                "nodeType": 0
            },
            "0": {
                "invocation": {
                    "address": "0x68b3465833fb72a70ecdf485e0e4c7bd8665fc45",
                    "callData": "0x00000000000000000000000000000000000000000000000000000000634b91130000000000000000000000000000000000000000000000000000000000000040000000000000000000000000000000000000000000000000000000000000000100000000000000000000000000000000000000000000000000000000000000200000000000000000000000000000000000000000000000000000000000000104472b43f3000000000000000000000000000000000000000000000006116440276d7a7ddd0000000000000000000000000000000000000000000000000000f148a88b95910000000000000000000000000000000000000000000000000000000000000080000000000000000000000000fafcd5243ae0f9dc9ba56007dcb1fa06c3e5470a0000000000000000000000000000000000000000000000000000000000000003000000000000000000000000f7ecb2e5ddad17506e62f51a442f725a26053fb2000000000000000000000000c02aaa39b223fe8d0a0e5c4f27ead9083c756cc2000000000000000000000000c14a5db2f42617e178c4f3e5a1b6aae8c2ac0a4f00000000000000000000000000000000000000000000000000000000",
                    "decodedMethod": {
                        "callParams": [
                            {
                                "name": "deadline",
                                "type": "uint256",
                                "value": "1,665,896,723"
                            },
                            {
                                "name": "data",
                                "type": "bytes[]",
                                "value": [
                                    "0x472b43f3000000000000000000000000000000000000000000000006116440276d7a7ddd0000000000000000000000000000000000000000000000000000f148a88b95910000000000000000000000000000000000000000000000000000000000000080000000000000000000000000fafcd5243ae0f9dc9ba56007dcb1fa06c3e5470a0000000000000000000000000000000000000000000000000000000000000003000000000000000000000000f7ecb2e5ddad17506e62f51a442f725a26053fb2000000000000000000000000c02aaa39b223fe8d0a0e5c4f27ead9083c756cc2000000000000000000000000c14a5db2f42617e178c4f3e5a1b6aae8c2ac0a4f"
                                ]
                            }
                        ],
                        "constructorArguments": "",
                        "name": "multicall",
                        "returnParams": [
                            {
                                "name": "",
                                "type": "bytes[]",
                                "value": [
                                    "0x0000000000000000000000000000000000000000000000000000f1efe16532ab"
                                ]
                            }
                        ],
                        "signature": "multicall(uint256,bytes[])"
                    },
                    "errorInfo": "",
                    "fromAddress": "0xfafcd5243ae0f9dc9ba56007dcb1fa06c3e5470a",
                    "gasUsed": 347211,
                    "id": 0,
                    "methodDecoded": true,
                    "operation": "CALL",
                    "output": "0x00000000000000000000000000000000000000000000000000000000000000200000000000000000000000000000000000000000000000000000000000000001000000000000000000000000000000000000000000000000000000000000002000000000000000000000000000000000000000000000000000000000000000200000000000000000000000000000000000000000000000000000f1efe16532ab",
                    "revert": false,
                    "revertMessage": "",
                    "selector": "0x5ae401dc",
                    "status": true,
                    "value": "0"
                },
                "nodeType": 0
            },
            "1": {
                "invocation": {
                    "address": "0x68b3465833fb72a70ecdf485e0e4c7bd8665fc45",
                    "callData": "0x000000000000000000000000000000000000000000000006116440276d7a7ddd0000000000000000000000000000000000000000000000000000f148a88b95910000000000000000000000000000000000000000000000000000000000000080000000000000000000000000fafcd5243ae0f9dc9ba56007dcb1fa06c3e5470a0000000000000000000000000000000000000000000000000000000000000003000000000000000000000000f7ecb2e5ddad17506e62f51a442f725a26053fb2000000000000000000000000c02aaa39b223fe8d0a0e5c4f27ead9083c756cc2000000000000000000000000c14a5db2f42617e178c4f3e5a1b6aae8c2ac0a4f",
                    "decodedMethod": {
                        "callParams": [
                            {
                                "name": "amountIn",
                                "type": "uint256",
                                "value": "111,933,661,576,657,796,573"
                            },
                            {
                                "name": "amountOutMin",
                                "type": "uint256",
                                "value": "265,294,367,659,409"
                            },
                            {
                                "name": "path",
                                "type": "address[]",
                                "value": [
                                    "0xf7ecb2e5ddad17506e62f51a442f725a26053fb2",
                                    "0xc02aaa39b223fe8d0a0e5c4f27ead9083c756cc2",
                                    "0xc14a5db2f42617e178c4f3e5a1b6aae8c2ac0a4f"
                                ]
                            },
                            {
                                "name": "to",
                                "type": "address",
                                "value": "0xfafcd5243ae0f9dc9ba56007dcb1fa06c3e5470a"
                            }
                        ],
                        "constructorArguments": "",
                        "name": "swapExactTokensForTokens",
                        "returnParams": [
                            {
                                "name": "amountOut",
                                "type": "uint256",
                                "value": "266,012,580,983,467"
                            }
                        ],
                        "signature": "swapExactTokensForTokens(uint256,uint256,address[],address)"
                    },
                    "errorInfo": "",
                    "fromAddress": "0x68b3465833fb72a70ecdf485e0e4c7bd8665fc45",
                    "gasUsed": 371051,
                    "id": 1,
                    "methodDecoded": true,
                    "operation": "DELEGATECALL",
                    "output": "0x0000000000000000000000000000000000000000000000000000f1efe16532ab",
                    "revert": false,
                    "revertMessage": "",
                    "selector": "0x472b43f3",
                    "status": true,
                    "value": "0"
                },
                "nodeType": 0
            },
            "10": {
                "invocation": {
                    "address": "0x2c5eae2ac336e27a7c8737cf5fc3263c4f09a2f0",
                    "callData": "0x",
                    "decodedMethod": {
                        "callParams": [],
                        "constructorArguments": "",
                        "name": "getReserves",
                        "returnParams": [
                            {
                                "name": "_reserve0",
                                "type": "uint112",
                                "value": "12,600,474,926,347,751,328"
                            },
                            {
                                "name": "_reserve1",
                                "type": "uint112",
                                "value": "128,338,947,580,136,430,896,096"
                            },
                            {
                                "name": "_blockTimestampLast",
                                "type": "uint32",
                                "value": "1,665,867,851"
                            }
                        ],
                        "signature": "getReserves()"
                    },
                    "errorInfo": "",
                    "fromAddress": "0x68b3465833fb72a70ecdf485e0e4c7bd8665fc45",
                    "gasUsed": 2504,
                    "id": 10,
                    "methodDecoded": true,
                    "operation": "STATICCALL",
                    "output": "0x000000000000000000000000000000000000000000000000aedde12f722c8fa0000000000000000000000000000000000000000000001b2d44ae973f663603e000000000000000000000000000000000000000000000000000000000634b204b",
                    "revert": false,
                    "revertMessage": "",
                    "selector": "0x0902f1ac",
                    "status": true,
                    "value": "0"
                },
                "nodeType": 0
            },
            "11": {
                "invocation": {
                    "address": "0xf7ecb2e5ddad17506e62f51a442f725a26053fb2",
                    "callData": "0x0000000000000000000000002c5eae2ac336e27a7c8737cf5fc3263c4f09a2f0",
                    "decodedMethod": {
                        "callParams": [
                            {
                                "name": "account",
                                "type": "address",
                                "value": "0x2c5eae2ac336e27a7c8737cf5fc3263c4f09a2f0"
                            }
                        ],
                        "constructorArguments": "",
                        "name": "balanceOf",
                        "returnParams": [
                            {
                                "decimalAvailable": true,
                                "name": "",
                                "type": "uint256",
                                "value": "128,443,045,885,402,722,646,909"
                            }
                        ],
                        "signature": "balanceOf(address)"
                    },
                    "errorInfo": "",
                    "fromAddress": "0x68b3465833fb72a70ecdf485e0e4c7bd8665fc45",
                    "gasUsed": 634,
                    "id": 11,
                    "methodDecoded": true,
                    "operation": "STATICCALL",
                    "output": "0x000000000000000000000000000000000000000000001b32e9561059d3b4bb7d",
                    "revert": false,
                    "revertMessage": "",
                    "selector": "0x70a08231",
                    "status": true,
                    "value": "0"
                },
                "nodeType": 0
            },
            "12": {
                "invocation": {
                    "address": "0x2c5eae2ac336e27a7c8737cf5fc3263c4f09a2f0",
                    "callData": "0x00000000000000000000000000000000000000000000000000242c1d5c387635000000000000000000000000000000000000000000000000000000000000000000000000000000000000000057b823d371820f5be00942dd81839716dbaf77d400000000000000000000000000000000000000000000000000000000000000800000000000000000000000000000000000000000000000000000000000000000",
                    "decodedMethod": {
                        "callParams": [
                            {
                                "name": "amount0Out",
                                "type": "uint256",
                                "value": "10,181,603,774,461,493"
                            },
                            {
                                "name": "amount1Out",
                                "type": "uint256",
                                "value": "0"
                            },
                            {
                                "name": "to",
                                "type": "address",
                                "value": "0x57b823d371820f5be00942dd81839716dbaf77d4"
                            },
                            {
                                "name": "data",
                                "type": "bytes",
                                "value": "0x"
                            }
                        ],
                        "constructorArguments": "",
                        "name": "swap",
                        "returnParams": [],
                        "signature": "swap(uint256,uint256,address,bytes)"
                    },
                    "errorInfo": "",
                    "fromAddress": "0x68b3465833fb72a70ecdf485e0e4c7bd8665fc45",
                    "gasUsed": 47853,
                    "id": 12,
                    "methodDecoded": true,
                    "operation": "CALL",
                    "output": "",
                    "revert": false,
                    "revertMessage": "",
                    "selector": "0x022c0d9f",
                    "status": true,
                    "value": "0"
                },
                "nodeType": 0
            },
            "13": {
                "invocation": {
                    "address": "0xc02aaa39b223fe8d0a0e5c4f27ead9083c756cc2",
                    "callData": "0x00000000000000000000000057b823d371820f5be00942dd81839716dbaf77d400000000000000000000000000000000000000000000000000242c1d5c387635",
                    "decodedMethod": {
                        "callParams": [
                            {
                                "name": "dst",
                                "type": "address",
                                "value": "0x57b823d371820f5be00942dd81839716dbaf77d4"
                            },
                            {
                                "decimalAvailable": true,
                                "name": "wad",
                                "type": "uint256",
                                "value": "10,181,603,774,461,493"
                            }
                        ],
                        "constructorArguments": "",
                        "name": "transfer",
                        "returnParams": [
                            {
                                "name": "",
                                "type": "bool",
                                "value": true
                            }
                        ],
                        "signature": "transfer(address,uint256)"
                    },
                    "errorInfo": "",
                    "fromAddress": "0x2c5eae2ac336e27a7c8737cf5fc3263c4f09a2f0",
                    "gasUsed": 12862,
                    "id": 13,
                    "methodDecoded": true,
                    "operation": "CALL",
                    "output": "0x0000000000000000000000000000000000000000000000000000000000000001",
                    "revert": false,
                    "revertMessage": "",
                    "selector": "0xa9059cbb",
                    "status": true,
                    "value": "0"
                },
                "nodeType": 0
            },
            "14": {
                "event": {
                    "contract": "0xc02aaa39b223fe8d0a0e5c4f27ead9083c756cc2",
                    "decodedLog": {
                        "name": "Transfer",
                        "params": [
                            {
                                "name": "src",
                                "type": "address",
                                "value": "0x2c5eae2ac336e27a7c8737cf5fc3263c4f09a2f0"
                            },
                            {
                                "name": "dst",
                                "type": "address",
                                "value": "0x57b823d371820f5be00942dd81839716dbaf77d4"
                            },
                            {
                                "decimalAvailable": true,
                                "name": "wad",
                                "type": "uint256",
                                "value": "10,181,603,774,461,493"
                            }
                        ],
                        "signature": "Transfer(address,address,uint256)"
                    },
                    "id": 14,
                    "logData": "0x00000000000000000000000000000000000000000000000000242c1d5c387635",
                    "logDecoded": true,
                    "operation": "EVENT",
                    "revert": false,
                    "status": true,
                    "topics": [
                        "0xddf252ad1be2c89b69c2b068fc378daa952ba7f163c4a11628f55a4df523b3ef",
                        "0x0000000000000000000000002c5eae2ac336e27a7c8737cf5fc3263c4f09a2f0",
                        "0x00000000000000000000000057b823d371820f5be00942dd81839716dbaf77d4"
                    ]
                },
                "nodeType": 1
            },
            "15": {
                "invocation": {
                    "address": "0xc02aaa39b223fe8d0a0e5c4f27ead9083c756cc2",
                    "callData": "0x0000000000000000000000002c5eae2ac336e27a7c8737cf5fc3263c4f09a2f0",
                    "decodedMethod": {
                        "callParams": [
                            {
                                "name": "",
                                "type": "address",
                                "value": "0x2c5eae2ac336e27a7c8737cf5fc3263c4f09a2f0"
                            }
                        ],
                        "constructorArguments": "",
                        "name": "balanceOf",
                        "returnParams": [
                            {
                                "decimalAvailable": true,
                                "name": "",
                                "type": "uint256",
                                "value": "12,590,293,322,573,289,835"
                            }
                        ],
                        "signature": "balanceOf(address)"
                    },
                    "errorInfo": "",
                    "fromAddress": "0x2c5eae2ac336e27a7c8737cf5fc3263c4f09a2f0",
                    "gasUsed": 534,
                    "id": 15,
                    "methodDecoded": true,
                    "operation": "STATICCALL",
                    "output": "0x000000000000000000000000000000000000000000000000aeb9b51215f4196b",
                    "revert": false,
                    "revertMessage": "",
                    "selector": "0x70a08231",
                    "status": true,
                    "value": "0"
                },
                "nodeType": 0
            },
            "16": {
                "invocation": {
                    "address": "0xf7ecb2e5ddad17506e62f51a442f725a26053fb2",
                    "callData": "0x0000000000000000000000002c5eae2ac336e27a7c8737cf5fc3263c4f09a2f0",
                    "decodedMethod": {
                        "callParams": [
                            {
                                "name": "account",
                                "type": "address",
                                "value": "0x2c5eae2ac336e27a7c8737cf5fc3263c4f09a2f0"
                            }
                        ],
                        "constructorArguments": "",
                        "name": "balanceOf",
                        "returnParams": [
                            {
                                "decimalAvailable": true,
                                "name": "",
                                "type": "uint256",
                                "value": "128,443,045,885,402,722,646,909"
                            }
                        ],
                        "signature": "balanceOf(address)"
                    },
                    "errorInfo": "",
                    "fromAddress": "0x2c5eae2ac336e27a7c8737cf5fc3263c4f09a2f0",
                    "gasUsed": 634,
                    "id": 16,
                    "methodDecoded": true,
                    "operation": "STATICCALL",
                    "output": "0x000000000000000000000000000000000000000000001b32e9561059d3b4bb7d",
                    "revert": false,
                    "revertMessage": "",
                    "selector": "0x70a08231",
                    "status": true,
                    "value": "0"
                },
                "nodeType": 0
            },
            "17": {
                "event": {
                    "contract": "0x2c5eae2ac336e27a7c8737cf5fc3263c4f09a2f0",
                    "decodedLog": {
                        "name": "Sync",
                        "params": [
                            {
                                "name": "reserve0",
                                "type": "uint112",
                                "value": "12,590,293,322,573,289,835"
                            },
                            {
                                "name": "reserve1",
                                "type": "uint112",
                                "value": "128,443,045,885,402,722,646,909"
                            }
                        ],
                        "signature": "Sync(uint112,uint112)"
                    },
                    "id": 17,
                    "logData": "0x000000000000000000000000000000000000000000000000aeb9b51215f4196b000000000000000000000000000000000000000000001b32e9561059d3b4bb7d",
                    "logDecoded": true,
                    "operation": "EVENT",
                    "revert": false,
                    "status": true,
                    "topics": [
                        "0x1c411e9a96e071241c2f21f7726b17ae89e3cab4c78be50e062b03a9fffbbad1"
                    ]
                },
                "nodeType": 1
            },
            "18": {
                "event": {
                    "contract": "0x2c5eae2ac336e27a7c8737cf5fc3263c4f09a2f0",
                    "decodedLog": {
                        "name": "Swap",
                        "params": [
                            {
                                "name": "sender",
                                "type": "address",
                                "value": "0x68b3465833fb72a70ecdf485e0e4c7bd8665fc45"
                            },
                            {
                                "name": "to",
                                "type": "address",
                                "value": "0x57b823d371820f5be00942dd81839716dbaf77d4"
                            },
                            {
                                "name": "amount0In",
                                "type": "uint256",
                                "value": "0"
                            },
                            {
                                "name": "amount1In",
                                "type": "uint256",
                                "value": "104,098,305,266,291,750,813"
                            },
                            {
                                "name": "amount0Out",
                                "type": "uint256",
                                "value": "10,181,603,774,461,493"
                            },
                            {
                                "name": "amount1Out",
                                "type": "uint256",
                                "value": "0"
                            }
                        ],
                        "signature": "Swap(address,uint256,uint256,uint256,uint256,address)"
                    },
                    "id": 18,
                    "logData": "0x0000000000000000000000000000000000000000000000000000000000000000000000000000000000000000000000000000000000000005a4a7791a6d7eb79d00000000000000000000000000000000000000000000000000242c1d5c3876350000000000000000000000000000000000000000000000000000000000000000",
                    "logDecoded": true,
                    "operation": "EVENT",
                    "revert": false,
                    "status": true,
                    "topics": [
                        "0xd78ad95fa46c994b6551d0da85fc275fe613ce37657fb8d5e3d130840159d822",
                        "0x00000000000000000000000068b3465833fb72a70ecdf485e0e4c7bd8665fc45",
                        "0x00000000000000000000000057b823d371820f5be00942dd81839716dbaf77d4"
                    ]
                },
                "nodeType": 1
            },
            "19": {
                "invocation": {
                    "address": "0x57b823d371820f5be00942dd81839716dbaf77d4",
                    "callData": "0x",
                    "decodedMethod": {
                        "callParams": [],
                        "constructorArguments": "",
                        "name": "getReserves",
                        "returnParams": [
                            {
                                "name": "_reserve0",
                                "type": "uint112",
                                "value": "7,192,915,707,032,672,785"
                            },
                            {
                                "name": "_reserve1",
                                "type": "uint112",
                                "value": "192,611,490,129,699,386"
                            },
                            {
                                "name": "_blockTimestampLast",
                                "type": "uint32",
                                "value": "1,665,894,911"
                            }
                        ],
                        "signature": "getReserves()"
                    },
                    "errorInfo": "",
                    "fromAddress": "0x68b3465833fb72a70ecdf485e0e4c7bd8665fc45",
                    "gasUsed": 2504,
                    "id": 19,
                    "methodDecoded": true,
                    "operation": "STATICCALL",
                    "output": "0x00000000000000000000000000000000000000000000000063d25eb9d1029a1100000000000000000000000000000000000000000000000002ac4b2138d6e23a00000000000000000000000000000000000000000000000000000000634b89ff",
                    "revert": false,
                    "revertMessage": "",
                    "selector": "0x0902f1ac",
                    "status": true,
                    "value": "0"
                },
                "nodeType": 0
            },
            "2": {
                "invocation": {
                    "address": "0xf7ecb2e5ddad17506e62f51a442f725a26053fb2",
                    "callData": "0x000000000000000000000000fafcd5243ae0f9dc9ba56007dcb1fa06c3e5470a0000000000000000000000002c5eae2ac336e27a7c8737cf5fc3263c4f09a2f0000000000000000000000000000000000000000000000006116440276d7a7ddd",
                    "decodedMethod": {
                        "callParams": [
                            {
                                "name": "sender",
                                "type": "address",
                                "value": "0xfafcd5243ae0f9dc9ba56007dcb1fa06c3e5470a"
                            },
                            {
                                "name": "recipient",
                                "type": "address",
                                "value": "0x2c5eae2ac336e27a7c8737cf5fc3263c4f09a2f0"
                            },
                            {
                                "decimalAvailable": true,
                                "name": "amount",
                                "type": "uint256",
                                "value": "111,933,661,576,657,796,573"
                            }
                        ],
                        "constructorArguments": "",
                        "name": "transferFrom",
                        "returnParams": [
                            {
                                "name": "",
                                "type": "bool",
                                "value": true
                            }
                        ],
                        "signature": "transferFrom(address,address,uint256)"
                    },
                    "errorInfo": "",
                    "fromAddress": "0x68b3465833fb72a70ecdf485e0e4c7bd8665fc45",
                    "gasUsed": 189359,
                    "id": 2,
                    "methodDecoded": true,
                    "operation": "CALL",
                    "output": "0x0000000000000000000000000000000000000000000000000000000000000001",
                    "revert": false,
                    "revertMessage": "",
                    "selector": "0x23b872dd",
                    "status": true,
                    "value": "0"
                },
                "nodeType": 0
            },
            "20": {
                "invocation": {
                    "address": "0xc02aaa39b223fe8d0a0e5c4f27ead9083c756cc2",
                    "callData": "0x00000000000000000000000057b823d371820f5be00942dd81839716dbaf77d4",
                    "decodedMethod": {
                        "callParams": [
                            {
                                "name": "",
                                "type": "address",
                                "value": "0x57b823d371820f5be00942dd81839716dbaf77d4"
                            }
                        ],
                        "constructorArguments": "",
                        "name": "balanceOf",
                        "returnParams": [
                            {
                                "decimalAvailable": true,
                                "name": "",
                                "type": "uint256",
                                "value": "7,203,097,310,807,134,278"
                            }
                        ],
                        "signature": "balanceOf(address)"
                    },
                    "errorInfo": "",
                    "fromAddress": "0x68b3465833fb72a70ecdf485e0e4c7bd8665fc45",
                    "gasUsed": 534,
                    "id": 20,
                    "methodDecoded": true,
                    "operation": "STATICCALL",
                    "output": "0x00000000000000000000000000000000000000000000000063f68ad72d3b1046",
                    "revert": false,
                    "revertMessage": "",
                    "selector": "0x70a08231",
                    "status": true,
                    "value": "0"
                },
                "nodeType": 0
            },
            "21": {
                "invocation": {
                    "address": "0x57b823d371820f5be00942dd81839716dbaf77d4",
                    "callData": "0x00000000000000000000000000000000000000000000000000000000000000000000000000000000000000000000000000000000000000000000f6dfe0c54dd3000000000000000000000000fafcd5243ae0f9dc9ba56007dcb1fa06c3e5470a00000000000000000000000000000000000000000000000000000000000000800000000000000000000000000000000000000000000000000000000000000000",
                    "decodedMethod": {
                        "callParams": [
                            {
                                "name": "amount0Out",
                                "type": "uint256",
                                "value": "0"
                            },
                            {
                                "name": "amount1Out",
                                "type": "uint256",
                                "value": "271,441,409,166,803"
                            },
                            {
                                "name": "to",
                                "type": "address",
                                "value": "0xfafcd5243ae0f9dc9ba56007dcb1fa06c3e5470a"
                            },
                            {
                                "name": "data",
                                "type": "bytes",
                                "value": "0x"
                            }
                        ],
                        "constructorArguments": "",
                        "name": "swap",
                        "returnParams": [],
                        "signature": "swap(uint256,uint256,address,bytes)"
                    },
                    "errorInfo": "",
                    "fromAddress": "0x68b3465833fb72a70ecdf485e0e4c7bd8665fc45",
                    "gasUsed": 100171,
                    "id": 21,
                    "methodDecoded": true,
                    "operation": "CALL",
                    "output": "",
                    "revert": false,
                    "revertMessage": "",
                    "selector": "0x022c0d9f",
                    "status": true,
                    "value": "0"
                },
                "nodeType": 0
            },
            "22": {
                "invocation": {
                    "address": "0xc14a5db2f42617e178c4f3e5a1b6aae8c2ac0a4f",
                    "callData": "0x000000000000000000000000fafcd5243ae0f9dc9ba56007dcb1fa06c3e5470a0000000000000000000000000000000000000000000000000000f6dfe0c54dd3",
                    "decodedMethod": {
                        "callParams": [
                            {
                                "name": "recipient",
                                "type": "address",
                                "value": "0xfafcd5243ae0f9dc9ba56007dcb1fa06c3e5470a"
                            },
                            {
                                "decimalAvailable": true,
                                "name": "amount",
                                "type": "uint256",
                                "value": "271,441,409,166,803"
                            }
                        ],
                        "constructorArguments": "",
                        "name": "transfer",
                        "returnParams": [
                            {
                                "name": "",
                                "type": "bool",
                                "value": true
                            }
                        ],
                        "signature": "transfer(address,uint256)"
                    },
                    "errorInfo": "",
                    "fromAddress": "0x57b823d371820f5be00942dd81839716dbaf77d4",
                    "gasUsed": 67383,
                    "id": 22,
                    "methodDecoded": true,
                    "operation": "CALL",
                    "output": "0x0000000000000000000000000000000000000000000000000000000000000001",
                    "revert": false,
                    "revertMessage": "",
                    "selector": "0xa9059cbb",
                    "status": true,
                    "value": "0"
                },
                "nodeType": 0
            },
            "23": {
                "event": {
                    "contract": "0xc14a5db2f42617e178c4f3e5a1b6aae8c2ac0a4f",
                    "decodedLog": {
                        "name": "Transfer",
                        "params": [
                            {
                                "name": "from",
                                "type": "address",
                                "value": "0x57b823d371820f5be00942dd81839716dbaf77d4"
                            },
                            {
                                "name": "to",
                                "type": "address",
                                "value": "0xfafcd5243ae0f9dc9ba56007dcb1fa06c3e5470a"
                            },
                            {
                                "decimalAvailable": true,
                                "name": "value",
                                "type": "uint256",
                                "value": "266,012,580,983,467"
                            }
                        ],
                        "signature": "Transfer(address,address,uint256)"
                    },
                    "id": 23,
                    "logData": "0x0000000000000000000000000000000000000000000000000000f1efe16532ab",
                    "logDecoded": true,
                    "operation": "EVENT",
                    "revert": false,
                    "status": true,
                    "topics": [
                        "0xddf252ad1be2c89b69c2b068fc378daa952ba7f163c4a11628f55a4df523b3ef",
                        "0x00000000000000000000000057b823d371820f5be00942dd81839716dbaf77d4",
                        "0x000000000000000000000000fafcd5243ae0f9dc9ba56007dcb1fa06c3e5470a"
                    ]
                },
                "nodeType": 1
            },
            "24": {
                "invocation": {
                    "address": "0xc02aaa39b223fe8d0a0e5c4f27ead9083c756cc2",
                    "callData": "0x00000000000000000000000057b823d371820f5be00942dd81839716dbaf77d4",
                    "decodedMethod": {
                        "callParams": [
                            {
                                "name": "",
                                "type": "address",
                                "value": "0x57b823d371820f5be00942dd81839716dbaf77d4"
                            }
                        ],
                        "constructorArguments": "",
                        "name": "balanceOf",
                        "returnParams": [
                            {
                                "decimalAvailable": true,
                                "name": "",
                                "type": "uint256",
                                "value": "7,203,097,310,807,134,278"
                            }
                        ],
                        "signature": "balanceOf(address)"
                    },
                    "errorInfo": "",
                    "fromAddress": "0x57b823d371820f5be00942dd81839716dbaf77d4",
                    "gasUsed": 534,
                    "id": 24,
                    "methodDecoded": true,
                    "operation": "STATICCALL",
                    "output": "0x00000000000000000000000000000000000000000000000063f68ad72d3b1046",
                    "revert": false,
                    "revertMessage": "",
                    "selector": "0x70a08231",
                    "status": true,
                    "value": "0"
                },
                "nodeType": 0
            },
            "25": {
                "invocation": {
                    "address": "0xc14a5db2f42617e178c4f3e5a1b6aae8c2ac0a4f",
                    "callData": "0x00000000000000000000000057b823d371820f5be00942dd81839716dbaf77d4",
                    "decodedMethod": {
                        "callParams": [
                            {
                                "name": "account",
                                "type": "address",
                                "value": "0x57b823d371820f5be00942dd81839716dbaf77d4"
                            }
                        ],
                        "constructorArguments": "",
                        "name": "balanceOf",
                        "returnParams": [
                            {
                                "decimalAvailable": true,
                                "name": "",
                                "type": "uint256",
                                "value": "192,340,048,720,532,583"
                            }
                        ],
                        "signature": "balanceOf(address)"
                    },
                    "errorInfo": "",
                    "fromAddress": "0x57b823d371820f5be00942dd81839716dbaf77d4",
                    "gasUsed": 931,
                    "id": 25,
                    "methodDecoded": true,
                    "operation": "STATICCALL",
                    "output": "0x00000000000000000000000000000000000000000000000002ab544158119467",
                    "revert": false,
                    "revertMessage": "",
                    "selector": "0x70a08231",
                    "status": true,
                    "value": "0"
                },
                "nodeType": 0
            },
            "26": {
                "event": {
                    "contract": "0x57b823d371820f5be00942dd81839716dbaf77d4",
                    "decodedLog": {
                        "name": "Sync",
                        "params": [
                            {
                                "name": "reserve0",
                                "type": "uint112",
                                "value": "7,203,097,310,807,134,278"
                            },
                            {
                                "name": "reserve1",
                                "type": "uint112",
                                "value": "192,340,048,720,532,583"
                            }
                        ],
                        "signature": "Sync(uint112,uint112)"
                    },
                    "id": 26,
                    "logData": "0x00000000000000000000000000000000000000000000000063f68ad72d3b104600000000000000000000000000000000000000000000000002ab544158119467",
                    "logDecoded": true,
                    "operation": "EVENT",
                    "revert": false,
                    "status": true,
                    "topics": [
                        "0x1c411e9a96e071241c2f21f7726b17ae89e3cab4c78be50e062b03a9fffbbad1"
                    ]
                },
                "nodeType": 1
            },
            "27": {
                "event": {
                    "contract": "0x57b823d371820f5be00942dd81839716dbaf77d4",
                    "decodedLog": {
                        "name": "Swap",
                        "params": [
                            {
                                "name": "sender",
                                "type": "address",
                                "value": "0x68b3465833fb72a70ecdf485e0e4c7bd8665fc45"
                            },
                            {
                                "name": "to",
                                "type": "address",
                                "value": "0xfafcd5243ae0f9dc9ba56007dcb1fa06c3e5470a"
                            },
                            {
                                "name": "amount0In",
                                "type": "uint256",
                                "value": "10,181,603,774,461,493"
                            },
                            {
                                "name": "amount1In",
                                "type": "uint256",
                                "value": "0"
                            },
                            {
                                "name": "amount0Out",
                                "type": "uint256",
                                "value": "0"
                            },
                            {
                                "name": "amount1Out",
                                "type": "uint256",
                                "value": "271,441,409,166,803"
                            }
                        ],
                        "signature": "Swap(address,uint256,uint256,uint256,uint256,address)"
                    },
                    "id": 27,
                    "logData": "0x00000000000000000000000000000000000000000000000000242c1d5c387635000000000000000000000000000000000000000000000000000000000000000000000000000000000000000000000000000000000000000000000000000000000000000000000000000000000000000000000000000000000000f6dfe0c54dd3",
                    "logDecoded": true,
                    "operation": "EVENT",
                    "revert": false,
                    "status": true,
                    "topics": [
                        "0xd78ad95fa46c994b6551d0da85fc275fe613ce37657fb8d5e3d130840159d822",
                        "0x00000000000000000000000068b3465833fb72a70ecdf485e0e4c7bd8665fc45",
                        "0x000000000000000000000000fafcd5243ae0f9dc9ba56007dcb1fa06c3e5470a"
                    ]
                },
                "nodeType": 1
            },
            "28": {
                "invocation": {
                    "address": "0xc14a5db2f42617e178c4f3e5a1b6aae8c2ac0a4f",
                    "callData": "0x000000000000000000000000fafcd5243ae0f9dc9ba56007dcb1fa06c3e5470a",
                    "decodedMethod": {
                        "callParams": [
                            {
                                "name": "account",
                                "type": "address",
                                "value": "0xfafcd5243ae0f9dc9ba56007dcb1fa06c3e5470a"
                            }
                        ],
                        "constructorArguments": "",
                        "name": "balanceOf",
                        "returnParams": [
                            {
                                "decimalAvailable": true,
                                "name": "",
                                "type": "uint256",
                                "value": "827,588,077,731,734"
                            }
                        ],
                        "signature": "balanceOf(address)"
                    },
                    "errorInfo": "",
                    "fromAddress": "0x68b3465833fb72a70ecdf485e0e4c7bd8665fc45",
                    "gasUsed": 931,
                    "id": 28,
                    "methodDecoded": true,
                    "operation": "STATICCALL",
                    "output": "0x0000000000000000000000000000000000000000000000000002f0afdd64bf96",
                    "revert": false,
                    "revertMessage": "",
                    "selector": "0x70a08231",
                    "status": true,
                    "value": "0"
                },
                "nodeType": 0
            },
            "3": {
                "event": {
                    "contract": "0xf7ecb2e5ddad17506e62f51a442f725a26053fb2",
                    "decodedLog": {
                        "name": "updateHolderLastTransferTimestamp",
                        "params": [
                            {
                                "name": "account",
                                "type": "address",
                                "value": "0xfafcd5243ae0f9dc9ba56007dcb1fa06c3e5470a"
                            },
                            {
                                "name": "timestamp",
                                "type": "uint256",
                                "value": "1,665,894,947"
                            }
                        ],
                        "signature": "updateHolderLastTransferTimestamp(address,uint256)"
                    },
                    "id": 3,
                    "logData": "0x00000000000000000000000000000000000000000000000000000000634b8a23",
                    "logDecoded": true,
                    "operation": "EVENT",
                    "revert": false,
                    "status": true,
                    "topics": [
                        "0xff12548a3ebb8257a10ea929ff01f69da0424c5bb36050f8d6df03452cbd4d00",
                        "0x000000000000000000000000fafcd5243ae0f9dc9ba56007dcb1fa06c3e5470a"
                    ]
                },
                "nodeType": 1
            },
            "4": {
                "event": {
                    "contract": "0xf7ecb2e5ddad17506e62f51a442f725a26053fb2",
                    "decodedLog": {
                        "name": "Transfer",
                        "params": [
                            {
                                "name": "from",
                                "type": "address",
                                "value": "0xfafcd5243ae0f9dc9ba56007dcb1fa06c3e5470a"
                            },
                            {
                                "name": "to",
                                "type": "address",
                                "value": "0xf7ecb2e5ddad17506e62f51a442f725a26053fb2"
                            },
                            {
                                "decimalAvailable": true,
                                "name": "value",
                                "type": "uint256",
                                "value": "8,954,692,926,132,623,725"
                            }
                        ],
                        "signature": "Transfer(address,address,uint256)"
                    },
                    "id": 4,
                    "logData": "0x0000000000000000000000000000000000000000000000007c4575c5b6d6996d",
                    "logDecoded": true,
                    "operation": "EVENT",
                    "revert": false,
                    "status": true,
                    "topics": [
                        "0xddf252ad1be2c89b69c2b068fc378daa952ba7f163c4a11628f55a4df523b3ef",
                        "0x000000000000000000000000fafcd5243ae0f9dc9ba56007dcb1fa06c3e5470a",
                        "0x000000000000000000000000f7ecb2e5ddad17506e62f51a442f725a26053fb2"
                    ]
                },
                "nodeType": 1
            },
            "5": {
                "event": {
                    "contract": "0xf7ecb2e5ddad17506e62f51a442f725a26053fb2",
                    "decodedLog": {
                        "name": "Transfer",
                        "params": [
                            {
                                "name": "from",
                                "type": "address",
                                "value": "0xf7ecb2e5ddad17506e62f51a442f725a26053fb2"
                            },
                            {
                                "name": "to",
                                "type": "address",
                                "value": "0x0000000000000000000000000000000000000000"
                            },
                            {
                                "decimalAvailable": true,
                                "name": "value",
                                "type": "uint256",
                                "value": "4,477,346,463,066,311,862"
                            }
                        ],
                        "signature": "Transfer(address,address,uint256)"
                    },
                    "id": 5,
                    "logData": "0x0000000000000000000000000000000000000000000000003e22bae2db6b4cb6",
                    "logDecoded": true,
                    "operation": "EVENT",
                    "revert": false,
                    "status": true,
                    "topics": [
                        "0xddf252ad1be2c89b69c2b068fc378daa952ba7f163c4a11628f55a4df523b3ef",
                        "0x000000000000000000000000f7ecb2e5ddad17506e62f51a442f725a26053fb2",
                        "0x0000000000000000000000000000000000000000000000000000000000000000"
                    ]
                },
                "nodeType": 1
            },
            "6": {
                "event": {
                    "contract": "0xf7ecb2e5ddad17506e62f51a442f725a26053fb2",
                    "decodedLog": {
                        "name": "Transfer",
                        "params": [
                            {
                                "name": "from",
                                "type": "address",
                                "value": "0xf7ecb2e5ddad17506e62f51a442f725a26053fb2"
                            },
                            {
                                "name": "to",
                                "type": "address",
                                "value": "0x2c5eae2ac336e27a7c8737cf5fc3263c4f09a2f0"
                            },
                            {
                                "decimalAvailable": true,
                                "name": "value",
                                "type": "uint256",
                                "value": "1,119,336,615,766,577,965"
                            }
                        ],
                        "signature": "Transfer(address,address,uint256)"
                    },
                    "id": 6,
                    "logData": "0x0000000000000000000000000000000000000000000000000f88aeb8b6dad32d",
                    "logDecoded": true,
                    "operation": "EVENT",
                    "revert": false,
                    "status": true,
                    "topics": [
                        "0xddf252ad1be2c89b69c2b068fc378daa952ba7f163c4a11628f55a4df523b3ef",
                        "0x000000000000000000000000f7ecb2e5ddad17506e62f51a442f725a26053fb2",
                        "0x0000000000000000000000002c5eae2ac336e27a7c8737cf5fc3263c4f09a2f0"
                    ]
                },
                "nodeType": 1
            },
            "7": {
                "event": {
                    "contract": "0xf7ecb2e5ddad17506e62f51a442f725a26053fb2",
                    "decodedLog": {
                        "name": "Transfer",
                        "params": [
                            {
                                "name": "from",
                                "type": "address",
                                "value": "0xfafcd5243ae0f9dc9ba56007dcb1fa06c3e5470a"
                            },
                            {
                                "name": "to",
                                "type": "address",
                                "value": "0x2c5eae2ac336e27a7c8737cf5fc3263c4f09a2f0"
                            },
                            {
                                "decimalAvailable": true,
                                "name": "value",
                                "type": "uint256",
                                "value": "102,978,968,650,525,172,848"
                            }
                        ],
                        "signature": "Transfer(address,address,uint256)"
                    },
                    "id": 7,
                    "logData": "0x000000000000000000000000000000000000000000000005951eca61b6a3e470",
                    "logDecoded": true,
                    "operation": "EVENT",
                    "revert": false,
                    "status": true,
                    "topics": [
                        "0xddf252ad1be2c89b69c2b068fc378daa952ba7f163c4a11628f55a4df523b3ef",
                        "0x000000000000000000000000fafcd5243ae0f9dc9ba56007dcb1fa06c3e5470a",
                        "0x0000000000000000000000002c5eae2ac336e27a7c8737cf5fc3263c4f09a2f0"
                    ]
                },
                "nodeType": 1
            },
            "8": {
                "event": {
                    "contract": "0xf7ecb2e5ddad17506e62f51a442f725a26053fb2",
                    "decodedLog": {
                        "name": "Approval",
                        "params": [
                            {
                                "name": "owner",
                                "type": "address",
                                "value": "0xfafcd5243ae0f9dc9ba56007dcb1fa06c3e5470a"
                            },
                            {
                                "name": "spender",
                                "type": "address",
                                "value": "0x68b3465833fb72a70ecdf485e0e4c7bd8665fc45"
                            },
                            {
                                "decimalAvailable": true,
                                "name": "value",
                                "type": "uint256",
                                "value": "115,792,089,237,316,195,423,570,985,008,687,907,853,269,984,665,640,564,038,715,650,346,336,471,843,362"
                            }
                        ],
                        "signature": "Approval(address,address,uint256)"
                    },
                    "id": 8,
                    "logData": "0xffffffffffffffffffffffffffffffffffffffffffffffd7c79a21baa26d8222",
                    "logDecoded": true,
                    "operation": "EVENT",
                    "revert": false,
                    "status": true,
                    "topics": [
                        "0x8c5be1e5ebec7d5bd14f71427d1e84f3dd0314c0f7b2291e5b200ac8c7c3b925",
                        "0x000000000000000000000000fafcd5243ae0f9dc9ba56007dcb1fa06c3e5470a",
                        "0x00000000000000000000000068b3465833fb72a70ecdf485e0e4c7bd8665fc45"
                    ]
                },
                "nodeType": 1
            },
            "9": {
                "invocation": {
                    "address": "0xc14a5db2f42617e178c4f3e5a1b6aae8c2ac0a4f",
                    "callData": "0x000000000000000000000000fafcd5243ae0f9dc9ba56007dcb1fa06c3e5470a",
                    "decodedMethod": {
                        "callParams": [
                            {
                                "name": "account",
                                "type": "address",
                                "value": "0xfafcd5243ae0f9dc9ba56007dcb1fa06c3e5470a"
                            }
                        ],
                        "constructorArguments": "",
                        "name": "balanceOf",
                        "returnParams": [
                            {
                                "decimalAvailable": true,
                                "name": "",
                                "type": "uint256",
                                "value": "561,575,496,748,267"
                            }
                        ],
                        "signature": "balanceOf(address)"
                    },
                    "errorInfo": "",
                    "fromAddress": "0x68b3465833fb72a70ecdf485e0e4c7bd8665fc45",
                    "gasUsed": 2931,
                    "id": 9,
                    "methodDecoded": true,
                    "operation": "STATICCALL",
                    "output": "0x0000000000000000000000000000000000000000000000000001febffbff8ceb",
                    "revert": false,
                    "revertMessage": "",
                    "selector": "0x70a08231",
                    "status": true,
                    "value": "0"
                },
                "nodeType": 0
            }
        },
        "gasFlame": [
            {
                "children": [
                    {
                        "children": [
                            {
                                "children": [],
                                "depth": 0,
                                "name": "Initial Gas",
                                "value": 24176
                            },
                            {
                                "children": [
                                    {
                                        "children": [
                                            {
                                                "children": [],
                                                "depth": 2,
                                                "name": "transferFrom",
                                                "value": 189359
                                            },
                                            {
                                                "children": [],
                                                "depth": 2,
                                                "name": "balanceOf",
                                                "value": 2931
                                            },
                                            {
                                                "children": [],
                                                "depth": 2,
                                                "name": "getReserves",
                                                "value": 2504
                                            },
                                            {
                                                "children": [],
                                                "depth": 2,
                                                "name": "balanceOf",
                                                "value": 634
                                            },
                                            {
                                                "children": [
                                                    {
                                                        "children": [],
                                                        "depth": 3,
                                                        "name": "transfer",
                                                        "value": 12862
                                                    },
                                                    {
                                                        "children": [],
                                                        "depth": 3,
                                                        "name": "balanceOf",
                                                        "value": 534
                                                    },
                                                    {
                                                        "children": [],
                                                        "depth": 3,
                                                        "name": "balanceOf",
                                                        "value": 634
                                                    }
                                                ],
                                                "depth": 2,
                                                "name": "swap",
                                                "value": 47853
                                            },
                                            {
                                                "children": [],
                                                "depth": 2,
                                                "name": "getReserves",
                                                "value": 2504
                                            },
                                            {
                                                "children": [],
                                                "depth": 2,
                                                "name": "balanceOf",
                                                "value": 534
                                            },
                                            {
                                                "children": [
                                                    {
                                                        "children": [],
                                                        "depth": 3,
                                                        "name": "transfer",
                                                        "value": 67383
                                                    },
                                                    {
                                                        "children": [],
                                                        "depth": 3,
                                                        "name": "balanceOf",
                                                        "value": 534
                                                    },
                                                    {
                                                        "children": [],
                                                        "depth": 3,
                                                        "name": "balanceOf",
                                                        "value": 931
                                                    }
                                                ],
                                                "depth": 2,
                                                "name": "swap",
                                                "value": 100171
                                            },
                                            {
                                                "children": [],
                                                "depth": 2,
                                                "name": "balanceOf",
                                                "value": 931
                                            }
                                        ],
                                        "depth": 1,
                                        "name": "swapExactTokensForTokens",
                                        "value": 371051
                                    }
                                ],
                                "depth": 0,
                                "name": "Executed Gas",
                                "value": 373235
                            }
                        ],
                        "depth": -1,
                        "name": "Actual Gas Used",
                        "value": 347211
                    },
                    {
                        "children": [],
                        "depth": -1,
                        "name": "Refunded Gas",
                        "value": 50200
                    }
                ],
                "depth": -2,
                "name": "Total Gas",
                "value": 397411
            }
        ],
        "isConfirmed": true,
        "mainTrace": [
            {
                "children": [
                    {
                        "children": [
                            {
                                "children": [
                                    {
                                        "children": [
                                            {
                                                "children": [],
                                                "depth": 3,
                                                "id": 3,
                                                "order": 3
                                            },
                                            {
                                                "children": [],
                                                "depth": 3,
                                                "id": 4,
                                                "order": 4
                                            },
                                            {
                                                "children": [],
                                                "depth": 3,
                                                "id": 5,
                                                "order": 5
                                            },
                                            {
                                                "children": [],
                                                "depth": 3,
                                                "id": 6,
                                                "order": 6
                                            },
                                            {
                                                "children": [],
                                                "depth": 3,
                                                "id": 7,
                                                "order": 7
                                            },
                                            {
                                                "children": [],
                                                "depth": 3,
                                                "id": 8,
                                                "order": 8
                                            }
                                        ],
                                        "depth": 2,
                                        "id": 2,
                                        "order": 2
                                    },
                                    {
                                        "children": [],
                                        "depth": 2,
                                        "id": 9,
                                        "order": 9
                                    },
                                    {
                                        "children": [],
                                        "depth": 2,
                                        "id": 10,
                                        "order": 10
                                    },
                                    {
                                        "children": [],
                                        "depth": 2,
                                        "id": 11,
                                        "order": 11
                                    },
                                    {
                                        "children": [
                                            {
                                                "children": [
                                                    {
                                                        "children": [],
                                                        "depth": 4,
                                                        "id": 14,
                                                        "order": 14
                                                    }
                                                ],
                                                "depth": 3,
                                                "id": 13,
                                                "order": 13
                                            },
                                            {
                                                "children": [],
                                                "depth": 3,
                                                "id": 15,
                                                "order": 15
                                            },
                                            {
                                                "children": [],
                                                "depth": 3,
                                                "id": 16,
                                                "order": 16
                                            },
                                            {
                                                "children": [],
                                                "depth": 3,
                                                "id": 17,
                                                "order": 17
                                            },
                                            {
                                                "children": [],
                                                "depth": 3,
                                                "id": 18,
                                                "order": 18
                                            }
                                        ],
                                        "depth": 2,
                                        "id": 12,
                                        "order": 12
                                    },
                                    {
                                        "children": [],
                                        "depth": 2,
                                        "id": 19,
                                        "order": 19
                                    },
                                    {
                                        "children": [],
                                        "depth": 2,
                                        "id": 20,
                                        "order": 20
                                    },
                                    {
                                        "children": [
                                            {
                                                "children": [
                                                    {
                                                        "children": [],
                                                        "depth": 4,
                                                        "id": 23,
                                                        "order": 23
                                                    }
                                                ],
                                                "depth": 3,
                                                "id": 22,
                                                "order": 22
                                            },
                                            {
                                                "children": [],
                                                "depth": 3,
                                                "id": 24,
                                                "order": 24
                                            },
                                            {
                                                "children": [],
                                                "depth": 3,
                                                "id": 25,
                                                "order": 25
                                            },
                                            {
                                                "children": [],
                                                "depth": 3,
                                                "id": 26,
                                                "order": 26
                                            },
                                            {
                                                "children": [],
                                                "depth": 3,
                                                "id": 27,
                                                "order": 27
                                            }
                                        ],
                                        "depth": 2,
                                        "id": 21,
                                        "order": 21
                                    },
                                    {
                                        "children": [],
                                        "depth": 2,
                                        "id": 28,
                                        "order": 28
                                    }
                                ],
                                "depth": 1,
                                "id": 1,
                                "order": 1
                            }
                        ],
                        "depth": 0,
                        "id": 0,
                        "order": 0
                    }
                ],
                "depth": -1,
                "id": -1,
                "order": -1
            }
        ],
        "mainTraceNodeCount": 29,
        "parentIdMap": {
            "0": -1,
            "1": 0,
            "10": 1,
            "11": 1,
            "12": 1,
            "13": 12,
            "14": 13,
            "15": 12,
            "16": 12,
            "17": 12,
            "18": 12,
            "19": 1,
            "2": 1,
            "20": 1,
            "21": 1,
            "22": 21,
            "23": 22,
            "24": 21,
            "25": 21,
            "26": 21,
            "27": 21,
            "28": 1,
            "3": 2,
            "4": 2,
            "5": 2,
            "6": 2,
            "7": 2,
            "8": 2,
            "9": 1
        },
        "tidyTrace": [
            {
                "children": [
                    {
                        "children": [
                            {
                                "children": [
                                    {
                                        "children": [
                                            {
                                                "children": [],
                                                "depth": 3,
                                                "id": 3,
                                                "order": 3
                                            },
                                            {
                                                "children": [],
                                                "depth": 3,
                                                "id": 4,
                                                "order": 4
                                            },
                                            {
                                                "children": [],
                                                "depth": 3,
                                                "id": 5,
                                                "order": 5
                                            },
                                            {
                                                "children": [],
                                                "depth": 3,
                                                "id": 6,
                                                "order": 6
                                            },
                                            {
                                                "children": [],
                                                "depth": 3,
                                                "id": 7,
                                                "order": 7
                                            },
                                            {
                                                "children": [],
                                                "depth": 3,
                                                "id": 8,
                                                "order": 8
                                            }
                                        ],
                                        "depth": 2,
                                        "id": 2,
                                        "order": 2
                                    },
                                    {
                                        "children": [
                                            {
                                                "children": [
                                                    {
                                                        "children": [],
                                                        "depth": 4,
                                                        "id": 14,
                                                        "order": 14
                                                    }
                                                ],
                                                "depth": 3,
                                                "id": 13,
                                                "order": 13
                                            },
                                            {
                                                "children": [],
                                                "depth": 3,
                                                "id": 17,
                                                "order": 17
                                            },
                                            {
                                                "children": [],
                                                "depth": 3,
                                                "id": 18,
                                                "order": 18
                                            }
                                        ],
                                        "depth": 2,
                                        "id": 12,
                                        "order": 12
                                    },
                                    {
                                        "children": [
                                            {
                                                "children": [
                                                    {
                                                        "children": [],
                                                        "depth": 4,
                                                        "id": 23,
                                                        "order": 23
                                                    }
                                                ],
                                                "depth": 3,
                                                "id": 22,
                                                "order": 22
                                            },
                                            {
                                                "children": [],
                                                "depth": 3,
                                                "id": 26,
                                                "order": 26
                                            },
                                            {
                                                "children": [],
                                                "depth": 3,
                                                "id": 27,
                                                "order": 27
                                            }
                                        ],
                                        "depth": 2,
                                        "id": 21,
                                        "order": 21
                                    }
                                ],
                                "depth": 1,
                                "id": 1,
                                "order": 1
                            }
                        ],
                        "depth": 0,
                        "id": 0,
                        "order": 0
                    }
                ],
                "depth": -1,
                "id": -1,
                "order": -1
            }
        ],
        "tidyTraceNodeCount": 19
    },
    "state_change": {
        "stateChanges": [
            {
                "address": "0x2c5eae2ac336e27a7c8737cf5fc3263c4f09a2f0",
                "erc": "ERC-20",
                "slots": [
                    {
                        "current": "0x000000000000000000000000000826284ffc7c2ea491f97d0e97250143929c82",
                        "key": "0x0000000000000000000000000000000000000000000000000000000000000009",
                        "prev": "0x000000000000000000000000000815b53343c6f4a12193efe3d36494c7f9eed2"
                    },
                    {
                        "current": "0x00000000000000000000000000000000020e1c0707cbf1aaf8d135fc53950069",
                        "key": "0x000000000000000000000000000000000000000000000000000000000000000a",
                        "prev": "0x00000000000000000000000000000000020b72fc66ba5640b607b25b3cfb6461"
                    },
                    {
                        "current": "0x634b8a23000000001b32e9561059d3b4bb7d000000000000aeb9b51215f4196b",
                        "key": "0x0000000000000000000000000000000000000000000000000000000000000008",
                        "prev": "0x634b204b000000001b2d44ae973f663603e0000000000000aedde12f722c8fa0"
                    }
                ],
                "storageVariables": [
                    {
                        "name": "price0CumulativeLast",
                        "type": "uint256",
                        "value": {
                            "current": "181729946068317901620869005122427985151040642",
                            "prev": "180296978843771613367150945667932875585613522",
                            "typeTag": 1
                        }
                    },
                    {
                        "name": "price1CumulativeLast",
                        "type": "uint256",
                        "value": {
                            "current": "2731716612068307433558495015061487721",
                            "prev": "2717903448998223256214167227901633633",
                            "typeTag": 1
                        }
                    },
                    {
                        "name": "reserve0",
                        "type": "uint112",
                        "value": {
                            "current": "12590293322573289835",
                            "prev": "12600474926347751328",
                            "typeTag": 1
                        }
                    },
                    {
                        "name": "reserve1",
                        "type": "uint112",
                        "value": {
                            "current": "128443045885402722646909",
                            "prev": "128338947580136430896096",
                            "typeTag": 1
                        }
                    },
                    {
                        "name": "blockTimestampLast",
                        "type": "uint32",
                        "value": {
                            "current": "1665894947",
                            "prev": "1665867851",
                            "typeTag": 1
                        }
                    }
                ]
            },
            {
                "address": "0x57b823d371820f5be00942dd81839716dbaf77d4",
                "erc": "ERC-20",
                "slots": [
                    {
                        "current": "0x0000000000000000000000000000000003cacfee289f85e1f22e6ad3ac997f28",
                        "key": "0x0000000000000000000000000000000000000000000000000000000000000009",
                        "prev": "0x0000000000000000000000000000000003c9d9251054486c3628e038bd1bda08"
                    },
                    {
                        "current": "0x00000000000000000000000000000008417ab6ddbc5dad30329f9caf89b44628",
                        "key": "0x000000000000000000000000000000000000000000000000000000000000000a",
                        "prev": "0x000000000000000000000000000000083c3a530541013a5a6f71fc11172cc938"
                    },
                    {
                        "current": "0x634b8a2300000000000002ab54415811946700000000000063f68ad72d3b1046",
                        "key": "0x0000000000000000000000000000000000000000000000000000000000000008",
                        "prev": "0x634b89ff00000000000002ac4b2138d6e23a00000000000063d25eb9d1029a11"
                    }
                ],
                "storageVariables": [
                    {
                        "name": "price0CumulativeLast",
                        "type": "uint256",
                        "value": {
                            "current": "5040745280441668931247855882525572904",
                            "prev": "5035739875299905344835430594440321544",
                            "typeTag": 1
                        }
                    },
                    {
                        "name": "price1CumulativeLast",
                        "type": "uint256",
                        "value": {
                            "current": "2809295924276536698478990897418603873832",
                            "prev": "2802315452188653605873347421378116897080",
                            "typeTag": 1
                        }
                    },
                    {
                        "name": "reserve0",
                        "type": "uint112",
                        "value": {
                            "current": "7203097310807134278",
                            "prev": "7192915707032672785",
                            "typeTag": 1
                        }
                    },
                    {
                        "name": "reserve1",
                        "type": "uint112",
                        "value": {
                            "current": "192340048720532583",
                            "prev": "192611490129699386",
                            "typeTag": 1
                        }
                    },
                    {
                        "name": "blockTimestampLast",
                        "type": "uint32",
                        "value": {
                            "current": "1665894947",
                            "prev": "1665894911",
                            "typeTag": 1
                        }
                    }
                ]
            },
            {
                "address": "0xc02aaa39b223fe8d0a0e5c4f27ead9083c756cc2",
                "erc": "ERC-20",
                "slots": [
                    {
                        "current": "0x000000000000000000000000000000000000000000000000aeb9b51215f4196b",
                        "key": "0x30a4a17480e7463328539064abafa525a4ef0ec241fa1f7cbb36de63dc541cb9",
                        "prev": "0x000000000000000000000000000000000000000000000000aedde12f722c8fa0"
                    },
                    {
                        "current": "0x00000000000000000000000000000000000000000000000063f68ad72d3b1046",
                        "key": "0x5a743dc4d9f209f723346fc8fff3c6a9630ac9d3c849c6747fe45749f9330c7a",
                        "prev": "0x00000000000000000000000000000000000000000000000063d25eb9d1029a11"
                    }
                ],
                "storageVariables": [
                    {
                        "name": "balanceOf",
                        "type": "mapping(address => uint256)",
                        "value": {
                            "pairs": [
                                {
                                    "key": "0x2c5eae2ac336e27a7c8737cf5fc3263c4f09a2f0",
                                    "value": {
                                        "current": "12590293322573289835",
                                        "prev": "12600474926347751328",
                                        "typeTag": 1
                                    }
                                },
                                {
                                    "key": "0x57b823d371820f5be00942dd81839716dbaf77d4",
                                    "value": {
                                        "current": "7203097310807134278",
                                        "prev": "7192915707032672785",
                                        "typeTag": 1
                                    }
                                }
                            ],
                            "typeTag": 4
                        }
                    }
                ]
            },
            {
                "address": "0xc14a5db2f42617e178c4f3e5a1b6aae8c2ac0a4f",
                "erc": "ERC-20",
                "slots": [
                    {
                        "current": "0x00000000000000000000000000000000000000000000000002ab544158119467",
                        "key": "0x5dfccd2eeec8a389157651efaf3f6b20ce22953f608afe70cea2e44339e3895f",
                        "prev": "0x00000000000000000000000000000000000000000000000002ac4b2138d6e23a"
                    },
                    {
                        "current": "0x0000000000000000000000000000000000000000000000000002176d8ed535c7",
                        "key": "0x6bebe47fda607383dbe8e25bc82e6f1c891fbd0a5c7ffc0c01350660c05da74b",
                        "prev": "0x0000000000000000000000000000000000000000000000000002127d8f751a9f"
                    },
                    {
                        "current": "0x0000000000000000000000000000000000000000000000000002f0afdd64bf96",
                        "key": "0x941601163027f685ea1f94ca9c596ed2936f177bb43c11e558ef324637c13063",
                        "prev": "0x0000000000000000000000000000000000000000000000000001febffbff8ceb"
                    },
                    {
                        "current": "0x0000000000000000000000000000000000000000000000000000000000f073f8",
                        "key": "0xcd14ebd8d78db879f2f177adddd4ecfb12b664ebd27c94d66a7ad6627b1d65b0",
                        "prev": "0x0000000000000000000000000000000000000000000000000000000000f073cb"
                    }
                ],
                "storageVariables": [
                    {
                        "name": "_balances",
                        "type": "mapping(address => uint256)",
                        "value": {
                            "pairs": [
                                {
                                    "key": "0x57b823d371820f5be00942dd81839716dbaf77d4",
                                    "value": {
                                        "current": "192340048720532583",
                                        "prev": "192611490129699386",
                                        "typeTag": 1
                                    }
                                },
                                {
                                    "key": "0xc14a5db2f42617e178c4f3e5a1b6aae8c2ac0a4f",
                                    "value": {
                                        "current": "588709268633031",
                                        "prev": "583280440449695",
                                        "typeTag": 1
                                    }
                                },
                                {
                                    "key": "0xfafcd5243ae0f9dc9ba56007dcb1fa06c3e5470a",
                                    "value": {
                                        "current": "827588077731734",
                                        "prev": "561575496748267",
                                        "typeTag": 1
                                    }
                                }
                            ],
                            "typeTag": 4
                        }
                    },
                    {
                        "name": "lastBuy",
                        "type": "mapping(address => uint256)",
                        "value": {
                            "pairs": [
                                {
                                    "key": "0xfafcd5243ae0f9dc9ba56007dcb1fa06c3e5470a",
                                    "value": {
                                        "current": "15758328",
                                        "prev": "15758283",
                                        "typeTag": 1
                                    }
                                }
                            ],
                            "typeTag": 4
                        }
                    }
                ]
            },
            {
                "address": "0xf7ecb2e5ddad17506e62f51a442f725a26053fb2",
                "erc": "ERC-20",
                "slots": [
                    {
                        "current": "0x0000000000000000000000000000000000000000000000002e9a0c2a2490798a",
                        "key": "0xbab23ecc56fcef1a010c4a87923b7c9136e0ead54612a93c05a7bd9397b40702",
                        "prev": "0x0000000000000000000000000000000000000000000000000000000000000000"
                    },
                    {
                        "current": "0x00000000000000000000000000000000000000000000000000000000634b8a23",
                        "key": "0xebf2a5cd33b9520772e51567f84770d6be749c5754394d7723fb37cbcb42fc26",
                        "prev": "0x000000000000000000000000000000000000000000000000000000006325b7eb"
                    },
                    {
                        "current": "0x0000000000000000000000000000000000000000000001c527b502df8fc42efa",
                        "key": "0x0000000000000000000000000000000000000000000000000000000000000007",
                        "prev": "0x0000000000000000000000000000000000000000000001c52854141a2670c6c9"
                    },
                    {
                        "current": "0x000000000000000000000000000000000000000000000016a862a68b2d969bf2",
                        "key": "0x0000000000000000000000000000000000000000000000000000000000000008",
                        "prev": "0x000000000000000000000000000000000000000000000016a86a9a9ae8527056"
                    },
                    {
                        "current": "0x00000000000000000000000000000000000000000000b10382b51f5428a259f9",
                        "key": "0x0000000000000000000000000000000000000000000000000000000000000002",
                        "prev": "0x00000000000000000000000000000000000000000000b103c0d7da37040da6af"
                    },
                    {
                        "current": "0x00000000000000000000000000000000000000000000038a4f6a05bf1f885df5",
                        "key": "0x000000000000000000000000000000000000000000000000000000000000001b",
                        "prev": "0x00000000000000000000000000000000000000000000038a50a828344ce18d92"
                    },
                    {
                        "current": "0x0000000000000000000000000000000000000000000000000000000000000000",
                        "key": "0x903dac46beb3a55bf74e5f25a4ec7ac24f13efd67de497cbf38b098ce570fd3e",
                        "prev": "0x000000000000000000000000000000000000000000000006116440276d7a7ddd"
                    },
                    {
                        "current": "0x0000000000000000000000000000000000000000000000002e9a0c2a24907988",
                        "key": "0x0000000000000000000000000000000000000000000000000000000000000017",
                        "prev": "0x0000000000000000000000000000000000000000000000000000000000000000"
                    },
                    {
                        "current": "0xffffffffffffffffffffffffffffffffffffffffffffffd7c79a21baa26d8222",
                        "key": "0x54e9202b760185f05ff29bfb4c3449fc394369ea179148329c1b2d3dd5f9e1b9",
                        "prev": "0xffffffffffffffffffffffffffffffffffffffffffffffddd8fe61e20fe7ffff"
                    },
                    {
                        "current": "0x00000000000000000000000000000000000000000000b10382b51f5428a259f9",
                        "key": "0x000000000000000000000000000000000000000000000000000000000000000a",
                        "prev": "0x00000000000000000000000000000000000000000000b103c0d7da37040da6af"
                    },
                    {
                        "current": "0x000000000000000000000000000000000000000000001b32e9561059d3b4bb7d",
                        "key": "0x9804e680377d35cd4388866c77a33c052b870a9df57457876c1533d35f71f7e6",
                        "prev": "0x000000000000000000000000000000000000000000001b2d44ae973f663603e0"
                    }
                ],
                "storageVariables": [
                    {
                        "name": "supply",
                        "type": "uint256",
                        "value": {
                            "current": "835923626168790366181881",
                            "prev": "835928103515253432493743",
                            "typeTag": 1
                        }
                    },
                    {
                        "name": "_holderLastTransferTimestamp",
                        "type": "mapping(address => uint256)",
                        "value": {
                            "pairs": [
                                {
                                    "key": "0xfafcd5243ae0f9dc9ba56007dcb1fa06c3e5470a",
                                    "value": {
                                        "current": "1665894947",
                                        "prev": "1663416299",
                                        "typeTag": 1
                                    }
                                }
                            ],
                            "typeTag": 4
                        }
                    },
                    {
                        "name": "maxSellTransactionAmount",
                        "type": "uint256",
                        "value": {
                            "current": "8359236261687903661818",
                            "prev": "8359281035152534324937",
                            "typeTag": 1
                        }
                    },
                    {
                        "name": "swapTokensAtAmount",
                        "type": "uint256",
                        "value": {
                            "current": "417961813084395183090",
                            "prev": "417964051757626716246",
                            "typeTag": 1
                        }
                    },
                    {
                        "name": "_allowances",
                        "type": "mapping(address => mapping(address => uint256))",
                        "value": {
                            "pairs": [
                                {
                                    "key": "0xfafcd5243ae0f9dc9ba56007dcb1fa06c3e5470a",
                                    "value": {
                                        "pairs": [
                                            {
                                                "key": "0x68b3465833fb72a70ecdf485e0e4c7bd8665fc45",
                                                "value": {
                                                    "current": "115792089237316195423570985008687907853269984665640564038715650346336471843362",
                                                    "prev": "115792089237316195423570985008687907853269984665640564038827584007913129639935",
                                                    "typeTag": 1
                                                }
                                            }
                                        ],
                                        "typeTag": 4
                                    }
                                }
                            ],
                            "typeTag": 4
                        }
                    },
                    {
                        "name": "tokensForMarketing",
                        "type": "uint256",
                        "value": {
                            "current": "3358009847299733896",
                            "prev": "0",
                            "typeTag": 1
                        }
                    },
                    {
                        "name": "_balances",
                        "type": "mapping(address => uint256)",
                        "value": {
                            "pairs": [
                                {
                                    "key": "0x2c5eae2ac336e27a7c8737cf5fc3263c4f09a2f0",
                                    "value": {
                                        "current": "128443045885402722646909",
                                        "prev": "128338947580136430896096",
                                        "typeTag": 1
                                    }
                                },
                                {
                                    "key": "0xf7ecb2e5ddad17506e62f51a442f725a26053fb2",
                                    "value": {
                                        "current": "3358009847299733898",
                                        "prev": "0",
                                        "typeTag": 1
                                    }
                                },
                                {
                                    "key": "0xfafcd5243ae0f9dc9ba56007dcb1fa06c3e5470a",
                                    "value": {
                                        "current": "0",
                                        "prev": "111933661576657796573",
                                        "typeTag": 1
                                    }
                                }
                            ],
                            "typeTag": 4
                        }
                    },
                    {
                        "name": "_totalSupply",
                        "type": "uint256",
                        "value": {
                            "current": "835923626168790366181881",
                            "prev": "835928103515253432493743",
                            "typeTag": 1
                        }
                    },
                    {
                        "name": "maxWalletTotal",
                        "type": "uint256",
                        "value": {
                            "current": "16718472523375807323637",
                            "prev": "16718562070305068649874",
                            "typeTag": 1
                        }
                    }
                ]
            }
        ]
    }
}