{
    "balance_change": {
        "balanceChanges": [
            {
                "account": "0x0453efa34fd9f3c871e871975bfc0d3fe20985ae",
                "assets": [
                    {
                        "address": "0xb6d460ac51b93bca63b694f099c4a8b3b1cf73b4",
                        "amount": "1",
                        "iconUrl": "",
                        "isERC1155": true,
                        "isERC721": false,
                        "sign": false,
                        "tokenID": "6",
                        "value": ""
                    }
                ]
            },
            {
                "account": "0xcac0151b1bbe4d0f0568622ad382a2407793889b",
                "assets": [
                    {
                        "address": "0xb6d460ac51b93bca63b694f099c4a8b3b1cf73b4",
                        "amount": "1",
                        "iconUrl": "",
                        "isERC1155": true,
                        "isERC721": false,
                        "sign": true,
                        "tokenID": "6",
                        "value": ""
                    }
                ]
            }
        ]
    },
    "profile": {
        "basic_info": {
            "baseFee": "13.979069135",
            "blockNumber": 17518408,
            "callData": "0xf242432a0000000000000000000000000453efa34fd9f3c871e871975bfc0d3fe20985ae000000000000000000000000cac0151b1bbe4d0f0568622ad382a2407793889b0000000000000000000000000000000000000000000000000000000000000006000000000000000000000000000000000000000000000000000000000000000100000000000000000000000000000000000000000000000000000000000000a00000000000000000000000000000000000000000000000000000000000000000",
            "debugEnable": true,
            "errorInfo": "",
            "eventCount": 1,
            "feeRecipient": "0x388c818ca8b9251b393131c08a736a67ccb19297",
            "formatValue": "0",
            "gasLimit": 44452,
            "gasPrice": "14.079069135",
            "gasUsed": 39652,
            "intTxnCount": 0,
            "internalRevert": false,
            "internalRevertMessage": "",
            "isContractCreation": false,
            "isFlashloan": false,
            "maxFee": "19.674418141",
            "nonce": 577,
            "overwritedBlockNumber": -1,
            "priorityFee": "0.1",
            "receiver": "0xb6d460ac51b93bca63b694f099c4a8b3b1cf73b4",
            "revertMessage": "",
            "sender": "0x0453efa34fd9f3c871e871975bfc0d3fe20985ae",
            "simulationEnable": true,
            "sourceTxnHash": "0xf1d3d5988e40bb7ed3780bf58beee61c5a92a2521c671c00814ff75e436ddc94",
            "status": true,
            "timestamp": "2023-06-20T04:02:59Z",
            "transactionFee": "0.00055826324934102",
            "txnHash": "0xf1d3d5988e40bb7ed3780bf58beee61c5a92a2521c671c00814ff75e436ddc94",
            "txnIndex": 96,
            "type": 2,
            "value": "0"
        },
        "fund_flow": [
            {
                "amount": "1",
                "from": "0x0453efa34fd9f3c871e871975bfc0d3fe20985ae",
                "id": 1,
                "isERC1155": true,
                "isERC721": false,
                "isReverted": false,
                "order": 1,
                "to": "0xcac0151b1bbe4d0f0568622ad382a2407793889b",
                "token": "0xb6d460ac51b93bca63b694f099c4a8b3b1cf73b4",
                "tokenID": "6"
            }
        ],
        "token_infos": [
            {
                "address": "0xc02aaa39b223fe8d0a0e5c4f27ead9083c756cc2",
                "decimals": 18
            },
            {
                "address": "0xeeeeeeeeeeeeeeeeeeeeeeeeeeeeeeeeeeeeeeee",
                "decimals": 18
            }
        ]
    },
    "address_label": {
        "labels": [
            {
                "address": "0x388c818ca8b9251b393131c08a736a67ccb19297",
                "label": "LidoExecutionLayerRewardsVault"
            },
            {
                "address": "0x0000000000000000000000000000000000000001",
                "label": "Precompiled"
            },
            {
                "address": "0x0000000000000000000000000000000000000002",
                "label": "Precompiled"
            },
            {
                "address": "0x0000000000000000000000000000000000000003",
                "label": "Precompiled"
            },
            {
                "address": "0x0000000000000000000000000000000000000004",
                "label": "Precompiled"
            },
            {
                "address": "0xeeeeeeeeeeeeeeeeeeeeeeeeeeeeeeeeeeeeeeee",
                "label": "Ether"
            },
            {
                "address": "0xb6d460ac51b93bca63b694f099c4a8b3b1cf73b4",
                "label": "Moonrunners Loot (MOONRL)"
            }
        ]
    },
    "trace": {
        "accountLabels": null,
        "dataMap": {
            "-1": {
                "invocation": {
                    "address": "0x0453efa34fd9f3c871e871975bfc0d3fe20985ae",
                    "callData": "",
                    "decodedMethod": null,
                    "errorInfo": "",
                    "fromAddress": "",
                    "gasUsed": 0,
                    "id": -1,
                    "methodDecoded": false,
                    "operation": "",
                    "output": "",
                    "revert": false,
                    "revertMessage": "",
                    "selector": "",
                    "status": false,
                    "value": ""
                },
                "nodeType": 0
            },
            "0": {
                "invocation": {
                    "address": "0xb6d460ac51b93bca63b694f099c4a8b3b1cf73b4",
                    "callData": "0x0000000000000000000000000453efa34fd9f3c871e871975bfc0d3fe20985ae000000000000000000000000cac0151b1bbe4d0f0568622ad382a2407793889b0000000000000000000000000000000000000000000000000000000000000006000000000000000000000000000000000000000000000000000000000000000100000000000000000000000000000000000000000000000000000000000000a00000000000000000000000000000000000000000000000000000000000000000",
                    "decodedMethod": {
                        "callParams": [
                            {
                                "name": "from",
                                "type": "address",
                                "value": "0x0453efa34fd9f3c871e871975bfc0d3fe20985ae"
                            },
                            {
                                "name": "to",
                                "type": "address",
                                "value": "0xcac0151b1bbe4d0f0568622ad382a2407793889b"
                            },
                            {
                                "name": "id",
                                "type": "uint256",
                                "value": "6"
                            },
                            {
                                "name": "amount",
                                "type": "uint256",
                                "value": "1"
                            },
                            {
                                "name": "data",
                                "type": "bytes",
                                "value": "0x"
                            }
                        ],
                        "constructorArguments": "",
                        "name": "safeTransferFrom",
                        "returnParams": [],
                        "signature": "safeTransferFrom(address,address,uint256,uint256,bytes)"
                    },
                    "errorInfo": "",
                    "fromAddress": "0x0453efa34fd9f3c871e871975bfc0d3fe20985ae",
                    "gasUsed": 39652,
                    "id": 0,
                    "methodDecoded": true,
                    "operation": "CALL",
                    "output": "",
                    "revert": false,
                    "revertMessage": "",
                    "selector": "0xf242432a",
                    "status": true,
                    "value": "0"
                },
                "nodeType": 0
            },
            "1": {
                "event": {
                    "contract": "0xb6d460ac51b93bca63b694f099c4a8b3b1cf73b4",
                    "decodedLog": {
                        "name": "TransferSingle",
                        "params": [
                            {
                                "name": "operator",
                                "type": "address",
                                "value": "0x0453efa34fd9f3c871e871975bfc0d3fe20985ae"
                            },
                            {
                                "name": "from",
                                "type": "address",
                                "value": "0x0453efa34fd9f3c871e871975bfc0d3fe20985ae"
                            },
                            {
                                "name": "to",
                                "type": "address",
                                "value": "0xcac0151b1bbe4d0f0568622ad382a2407793889b"
                            },
                            {
                                "name": "id",
                                "type": "uint256",
                                "value": "6"
                            },
                            {
                                "name": "value",
                                "type": "uint256",
                                "value": "1"
                            }
                        ],
                        "signature": "TransferSingle(address,address,address,uint256,uint256)"
                    },
                    "id": 1,
                    "logData": "0x00000000000000000000000000000000000000000000000000000000000000060000000000000000000000000000000000000000000000000000000000000001",
                    "logDecoded": true,
                    "operation": "EVENT",
                    "revert": false,
                    "status": true,
                    "topics": [
                        "0xc3d58168c5ae7397731d063d5bbf3d657854427343f4c083240f7aacaa2d0f62",
                        "0x0000000000000000000000000453efa34fd9f3c871e871975bfc0d3fe20985ae",
                        "0x0000000000000000000000000453efa34fd9f3c871e871975bfc0d3fe20985ae",
                        "0x000000000000000000000000cac0151b1bbe4d0f0568622ad382a2407793889b"
                    ]
                },
                "nodeType": 1
            }
        },
        "gasFlame": [
            {
                "children": [
                    {
                        "children": [
                            {
                                "children": [],
                                "depth": 0,
                                "name": "Initial Gas",
                                "value": 22348
                            },
                            {
                                "children": [],
                                "depth": 0,
                                "name": "Executed Gas",
                                "value": 22104
                            }
                        ],
                        "depth": -1,
                        "name": "Actual Gas Used",
                        "value": 39652
                    },
                    {
                        "children": [],
                        "depth": -1,
                        "name": "Refunded Gas",
                        "value": 4800
                    }
                ],
                "depth": -2,
                "name": "Total Gas",
                "value": 44452
            }
        ],
        "isConfirmed": true,
        "mainTrace": [
            {
                "children": [
                    {
                        "children": [
                            {
                                "children": [],
                                "depth": 1,
                                "id": 1,
                                "order": 1
                            }
                        ],
                        "depth": 0,
                        "id": 0,
                        "order": 0
                    }
                ],
                "depth": -1,
                "id": -1,
                "order": -1
            }
        ],
        "mainTraceNodeCount": 2,
        "parentIdMap": {
            "0": -1,
            "1": 0
        },
        "tidyTrace": [
            {
                "children": [
                    {
                        "children": [
                            {
                                "children": [],
                                "depth": 1,
                                "id": 1,
                                "order": 1
                            }
                        ],
                        "depth": 0,
                        "id": 0,
                        "order": 0
                    }
                ],
                "depth": -1,
                "id": -1,
                "order": -1
            }
        ],
        "tidyTraceNodeCount": 2
    },
    "state_change": {
        "stateChanges": [
            {
                "address": "0xb6d460ac51b93bca63b694f099c4a8b3b1cf73b4",
                "erc": "ERC-1155",
                "slots": [
                    {
                        "current": "0x0000000000000000000000000000000000000000000000000000000000000004",
                        "key": "0x592e33ed28b5ed9ae6c9c6a13f2519635f8fc26b234f31e0acdafce76e005c9a",
                        "prev": "0x0000000000000000000000000000000000000000000000000000000000000003"
                    },
                    {
                        "current": "0x0000000000000000000000000000000000000000000000000000000000000000",
                        "key": "0xc39eb90af7c9e6a4fe2566de35c671bfc3e4bae785ae735aed8e09549c769124",
                        "prev": "0x0000000000000000000000000000000000000000000000000000000000000001"
                    }
                ],
                "storageVariables": [
                    {
                        "name": "_balances",
                        "type": "mapping(uint256 => mapping(address => uint256))",
                        "value": {
                            "pairs": [
                                {
                                    "key": "6",
                                    "value": {
                                        "pairs": [
                                            {
                                                "key": "0x0453efa34fd9f3c871e871975bfc0d3fe20985ae",
                                                "value": {
                                                    "current": "0",
                                                    "prev": "1",
                                                    "typeTag": 1
                                                }
                                            },
                                            {
                                                "key": "0xcac0151b1bbe4d0f0568622ad382a2407793889b",
                                                "value": {
                                                    "current": "4",
                                                    "prev": "3",
                                                    "typeTag": 1
                                                }
                                            }
                                        ],
                                        "typeTag": 4
                                    }
                                }
                            ],
                            "typeTag": 4
                        }
                    }
                ]
            }
        ]
    }
}