{
    "balance_change": {
        "balanceChanges": [
            {
                "account": "0x4ea446688d4baf51187764c879e60a1ab826e7b1",
                "assets": [
                    {
                        "address": "0x875773784af8135ea0ef43b5a374aad105c5d39e",
                        "amount": "25.212661606336205534",
                        "iconUrl": "",
                        "isERC1155": false,
                        "isERC721": false,
                        "sign": false,
                        "value": "268.7523481"
                    },
                    {
                        "address": "0xe8b251822d003a2b2466ee0e38391c2db2048739",
                        "amount": "76.383484456",
                        "iconUrl": "",
                        "isERC1155": false,
                        "isERC721": false,
                        "sign": true,
                        "value": "262.3889943"
                    }
                ]
            },
            {
                "account": "0x29a9777da2bacd8c4a28b6fd8247c4ca4f098f12",
                "assets": [
                    {
                        "address": "0x875773784af8135ea0ef43b5a374aad105c5d39e",
                        "amount": "25.212661606336205534",
                        "iconUrl": "",
                        "isERC1155": false,
                        "isERC721": false,
                        "sign": true,
                        "value": "268.7523481"
                    },
                    {
                        "address": "0xc02aaa39b223fe8d0a0e5c4f27ead9083c756cc2",
                        "amount": "0.474087029758475409",
                        "iconUrl": "https://assets.blocksec.com/icon/f1cb2d02c471d545bbc7722daf3277fd852d98e63d118771af7047bd8256c516.png",
                        "isERC1155": false,
                        "isERC721": false,
                        "sign": false,
                        "value": "268.7523481"
                    }
                ]
            },
            {
                "account": "0x5ad0b52264961893e5d9397ec1f22d456ce9f92d",
                "assets": [
                    {
                        "address": "0xc02aaa39b223fe8d0a0e5c4f27ead9083c756cc2",
                        "amount": "0.474087029758475409",
                        "iconUrl": "https://assets.blocksec.com/icon/f1cb2d02c471d545bbc7722daf3277fd852d98e63d118771af7047bd8256c516.png",
                        "isERC1155": false,
                        "isERC721": false,
                        "sign": true,
                        "value": "268.7523481"
                    },
                    {
                        "address": "0xe8b251822d003a2b2466ee0e38391c2db2048739",
                        "amount": "76.383484456",
                        "iconUrl": "",
                        "isERC1155": false,
                        "isERC721": false,
                        "sign": false,
                        "value": "262.3889943"
                    }
                ]
            }
        ]
    },
    "profile": {
        "basic_info": {
            "baseFee": "",
            "blockNumber": 11427331,
            "callData": "0x38ed17390000000000000000000000000000000000000000000000015de55e2607cc92de000000000000000000000000000000000000000000000000000000116678a38000000000000000000000000000000000000000000000000000000000000000a00000000000000000000000004ea446688d4baf51187764c879e60a1ab826e7b1000000000000000000000000000000000000000000000000000000005fd28b870000000000000000000000000000000000000000000000000000000000000003000000000000000000000000875773784af8135ea0ef43b5a374aad105c5d39e000000000000000000000000c02aaa39b223fe8d0a0e5c4f27ead9083c756cc2000000000000000000000000e8b251822d003a2b2466ee0e38391c2db2048739",
            "debugEnable": true,
            "errorInfo": "",
            "eventCount": 8,
            "feeRecipient": "0x829bd824b016326a401d083b33d092293333a830",
            "formatValue": "0",
            "gasLimit": 305492,
            "gasPrice": "36.000000001",
            "gasUsed": 262806,
            "intTxnCount": 13,
            "internalRevert": false,
            "internalRevertMessage": "",
            "isContractCreation": false,
            "isFlashloan": false,
            "maxFee": "",
            "nonce": 1668,
            "overwritedBlockNumber": -1,
            "priorityFee": "",
            "receiver": "0x7a250d5630b4cf539739df2c5dacb4c659f2488d",
            "revertMessage": "",
            "sender": "0x4ea446688d4baf51187764c879e60a1ab826e7b1",
            "simulationEnable": true,
            "sourceTxnHash": "0xf1182dbafc2a163271d5ec6f3cdb3917e9dffb641c53dbd871cbdc91d4355c84",
            "status": true,
            "timestamp": "2020-12-10T20:28:31Z",
            "transactionFee": "0.009461016000262806",
            "txnHash": "0xf1182dbafc2a163271d5ec6f3cdb3917e9dffb641c53dbd871cbdc91d4355c84",
            "txnIndex": 80,
            "type": 0,
            "value": "0"
        },
        "fund_flow": [
            {
                "amount": "25.212661606336205534",
                "from": "0x4ea446688d4baf51187764c879e60a1ab826e7b1",
                "id": 1,
                "isERC1155": false,
                "isERC721": false,
                "isReverted": false,
                "order": 1,
                "to": "0x29a9777da2bacd8c4a28b6fd8247c4ca4f098f12",
                "token": "0x875773784af8135ea0ef43b5a374aad105c5d39e"
            },
            {
                "amount": "0.474087029758475409",
                "from": "0x29a9777da2bacd8c4a28b6fd8247c4ca4f098f12",
                "id": 2,
                "isERC1155": false,
                "isERC721": false,
                "isReverted": false,
                "order": 2,
                "to": "0x5ad0b52264961893e5d9397ec1f22d456ce9f92d",
                "token": "0xc02aaa39b223fe8d0a0e5c4f27ead9083c756cc2"
            },
            {
                "amount": "76.383484456",
                "from": "0x5ad0b52264961893e5d9397ec1f22d456ce9f92d",
                "id": 3,
                "isERC1155": false,
                "isERC721": false,
                "isReverted": false,
                "order": 3,
                "to": "0x4ea446688d4baf51187764c879e60a1ab826e7b1",
                "token": "0xe8b251822d003a2b2466ee0e38391c2db2048739"
            }
        ],
        "token_infos": [
            {
                "address": "0xe8b251822d003a2b2466ee0e38391c2db2048739",
                "decimals": 9
            },
            {
                "address": "0xeeeeeeeeeeeeeeeeeeeeeeeeeeeeeeeeeeeeeeee",
                "decimals": 18
            },
            {
                "address": "0x875773784af8135ea0ef43b5a374aad105c5d39e",
                "decimals": 18
            },
            {
                "address": "0xc02aaa39b223fe8d0a0e5c4f27ead9083c756cc2",
                "decimals": 18
            }
        ]
    },
    "address_label": {
        "labels": [
            {
                "address": "0x618c0be1b13c0b9a6bdce017fa46aaa24743bb64",
                "label": "RBASE"
            },
            {
                "address": "0x7a250d5630b4cf539739df2c5dacb4c659f2488d",
                "label": "Uniswap V2: Router 2"
            },
            {
                "address": "0xc02aaa39b223fe8d0a0e5c4f27ead9083c756cc2",
                "label": "Wrapped Ether (WETH)"
            },
            {
                "address": "0x29a9777da2bacd8c4a28b6fd8247c4ca4f098f12",
                "label": "Uniswap V2: IDLE 2"
            },
            {
                "address": "0xe8b251822d003a2b2466ee0e38391c2db2048739",
                "label": "Rbase Finance: RBASE Token"
            },
            {
                "address": "0x0000000000000000000000000000000000000001",
                "label": "Precompiled"
            },
            {
                "address": "0x0000000000000000000000000000000000000002",
                "label": "Precompiled"
            },
            {
                "address": "0x0000000000000000000000000000000000000003",
                "label": "Precompiled"
            },
            {
                "address": "0x0000000000000000000000000000000000000004",
                "label": "Precompiled"
            },
            {
                "address": "0xeeeeeeeeeeeeeeeeeeeeeeeeeeeeeeeeeeeeeeee",
                "label": "Ether"
            },
            {
                "address": "0x875773784af8135ea0ef43b5a374aad105c5d39e",
                "label": "Idle.finance: IDLE Token"
            },
            {
                "address": "0x5ad0b52264961893e5d9397ec1f22d456ce9f92d",
                "label": "Uniswap V2: RBASE 7"
            }
        ]
    },
    "trace": {
        "accountLabels": null,
        "dataMap": {
            "-1": {
                "invocation": {
                    "address": "0x4ea446688d4baf51187764c879e60a1ab826e7b1",
                    "callData": "",
                    "decodedMethod": null,
                    "errorInfo": "",
                    "fromAddress": "",
                    "gasUsed": 0,
                    "id": -1,
                    "methodDecoded": false,
                    "operation": "",
                    "output": "",
                    "revert": false,
                    "revertMessage": "",
                    "selector": "",
                    "status": false,
                    "value": ""
                },
                "nodeType": 0
            },
            "0": {
                "invocation": {
                    "address": "0x7a250d5630b4cf539739df2c5dacb4c659f2488d",
                    "callData": "0x0000000000000000000000000000000000000000000000015de55e2607cc92de000000000000000000000000000000000000000000000000000000116678a38000000000000000000000000000000000000000000000000000000000000000a00000000000000000000000004ea446688d4baf51187764c879e60a1ab826e7b1000000000000000000000000000000000000000000000000000000005fd28b870000000000000000000000000000000000000000000000000000000000000003000000000000000000000000875773784af8135ea0ef43b5a374aad105c5d39e000000000000000000000000c02aaa39b223fe8d0a0e5c4f27ead9083c756cc2000000000000000000000000e8b251822d003a2b2466ee0e38391c2db2048739",
                    "decodedMethod": {
                        "callParams": [
                            {
                                "name": "amountIn",
                                "type": "uint256",
                                "value": "25,212,661,606,336,205,534"
                            },
                            {
                                "name": "amountOutMin",
                                "type": "uint256",
                                "value": "74,733,626,240"
                            },
                            {
                                "name": "path",
                                "type": "address[]",
                                "value": [
                                    "0x875773784af8135ea0ef43b5a374aad105c5d39e",
                                    "0xc02aaa39b223fe8d0a0e5c4f27ead9083c756cc2",
                                    "0xe8b251822d003a2b2466ee0e38391c2db2048739"
                                ]
                            },
                            {
                                "name": "to",
                                "type": "address",
                                "value": "0x4ea446688d4baf51187764c879e60a1ab826e7b1"
                            },
                            {
                                "name": "deadline",
                                "type": "uint256",
                                "value": "1,607,633,799"
                            }
                        ],
                        "constructorArguments": "",
                        "name": "swapExactTokensForTokens",
                        "returnParams": [
                            {
                                "name": "amounts",
                                "type": "uint256[]",
                                "value": [
                                    "25,212,661,606,336,205,534",
                                    "474,087,029,758,475,409",
                                    "77,155,034,804"
                                ]
                            }
                        ],
                        "signature": "swapExactTokensForTokens(uint256,uint256,address[],address,uint256)"
                    },
                    "errorInfo": "",
                    "fromAddress": "0x4ea446688d4baf51187764c879e60a1ab826e7b1",
                    "gasUsed": 262806,
                    "id": 0,
                    "methodDecoded": true,
                    "operation": "CALL",
                    "output": "0x000000000000000000000000000000000000000000000000000000000000002000000000000000000000000000000000000000000000000000000000000000030000000000000000000000000000000000000000000000015de55e2607cc92de00000000000000000000000000000000000000000000000006944ba4495fbc9100000000000000000000000000000000000000000000000000000011f6cc66b4",
                    "revert": false,
                    "revertMessage": "",
                    "selector": "0x38ed1739",
                    "status": true,
                    "value": "0"
                },
                "nodeType": 0
            },
            "1": {
                "invocation": {
                    "address": "0x29a9777da2bacd8c4a28b6fd8247c4ca4f098f12",
                    "callData": "0x",
                    "decodedMethod": {
                        "callParams": [],
                        "constructorArguments": "",
                        "name": "getReserves",
                        "returnParams": [
                            {
                                "name": "_reserve0",
                                "type": "uint112",
                                "value": "11,563,283,435,103,649,727,441"
                            },
                            {
                                "name": "_reserve1",
                                "type": "uint112",
                                "value": "218,558,884,201,651,818,492"
                            },
                            {
                                "name": "_blockTimestampLast",
                                "type": "uint32",
                                "value": "1,607,632,088"
                            }
                        ],
                        "signature": "getReserves()"
                    },
                    "errorInfo": "",
                    "fromAddress": "0x7a250d5630b4cf539739df2c5dacb4c659f2488d",
                    "gasUsed": 1204,
                    "id": 1,
                    "methodDecoded": true,
                    "operation": "STATICCALL",
                    "output": "0x000000000000000000000000000000000000000000000272d8cb3b534fb703d100000000000000000000000000000000000000000000000bd91d2334f130cffc000000000000000000000000000000000000000000000000000000005fd284d8",
                    "revert": false,
                    "revertMessage": "",
                    "selector": "0x0902f1ac",
                    "status": true,
                    "value": "0"
                },
                "nodeType": 0
            },
            "10": {
                "invocation": {
                    "address": "0xc02aaa39b223fe8d0a0e5c4f27ead9083c756cc2",
                    "callData": "0x00000000000000000000000029a9777da2bacd8c4a28b6fd8247c4ca4f098f12",
                    "decodedMethod": {
                        "callParams": [
                            {
                                "name": "",
                                "type": "address",
                                "value": "0x29a9777da2bacd8c4a28b6fd8247c4ca4f098f12"
                            }
                        ],
                        "constructorArguments": "",
                        "name": "balanceOf",
                        "returnParams": [
                            {
                                "decimalAvailable": true,
                                "name": "",
                                "type": "uint256",
                                "value": "218,084,797,171,893,343,083"
                            }
                        ],
                        "signature": "balanceOf(address)"
                    },
                    "errorInfo": "",
                    "fromAddress": "0x29a9777da2bacd8c4a28b6fd8247c4ca4f098f12",
                    "gasUsed": 1234,
                    "id": 10,
                    "methodDecoded": true,
                    "operation": "STATICCALL",
                    "output": "0x00000000000000000000000000000000000000000000000bd288d790a7d1136b",
                    "revert": false,
                    "revertMessage": "",
                    "selector": "0x70a08231",
                    "status": true,
                    "value": "0"
                },
                "nodeType": 0
            },
            "11": {
                "event": {
                    "contract": "0x29a9777da2bacd8c4a28b6fd8247c4ca4f098f12",
                    "decodedLog": {
                        "name": "Sync",
                        "params": [
                            {
                                "name": "reserve0",
                                "type": "uint112",
                                "value": "11,588,496,096,709,985,932,975"
                            },
                            {
                                "name": "reserve1",
                                "type": "uint112",
                                "value": "218,084,797,171,893,343,083"
                            }
                        ],
                        "signature": "Sync(uint112,uint112)"
                    },
                    "id": 11,
                    "logData": "0x00000000000000000000000000000000000000000000027436b09979578396af00000000000000000000000000000000000000000000000bd288d790a7d1136b",
                    "logDecoded": true,
                    "operation": "EVENT",
                    "revert": false,
                    "status": true,
                    "topics": [
                        "0x1c411e9a96e071241c2f21f7726b17ae89e3cab4c78be50e062b03a9fffbbad1"
                    ]
                },
                "nodeType": 1
            },
            "12": {
                "event": {
                    "contract": "0x29a9777da2bacd8c4a28b6fd8247c4ca4f098f12",
                    "decodedLog": {
                        "name": "Swap",
                        "params": [
                            {
                                "name": "sender",
                                "type": "address",
                                "value": "0x7a250d5630b4cf539739df2c5dacb4c659f2488d"
                            },
                            {
                                "name": "to",
                                "type": "address",
                                "value": "0x5ad0b52264961893e5d9397ec1f22d456ce9f92d"
                            },
                            {
                                "name": "amount0In",
                                "type": "uint256",
                                "value": "25,212,661,606,336,205,534"
                            },
                            {
                                "name": "amount1In",
                                "type": "uint256",
                                "value": "0"
                            },
                            {
                                "name": "amount0Out",
                                "type": "uint256",
                                "value": "0"
                            },
                            {
                                "name": "amount1Out",
                                "type": "uint256",
                                "value": "474,087,029,758,475,409"
                            }
                        ],
                        "signature": "Swap(address,uint256,uint256,uint256,uint256,address)"
                    },
                    "id": 12,
                    "logData": "0x0000000000000000000000000000000000000000000000015de55e2607cc92de0000000000000000000000000000000000000000000000000000000000000000000000000000000000000000000000000000000000000000000000000000000000000000000000000000000000000000000000000000000006944ba4495fbc91",
                    "logDecoded": true,
                    "operation": "EVENT",
                    "revert": false,
                    "status": true,
                    "topics": [
                        "0xd78ad95fa46c994b6551d0da85fc275fe613ce37657fb8d5e3d130840159d822",
                        "0x0000000000000000000000007a250d5630b4cf539739df2c5dacb4c659f2488d",
                        "0x0000000000000000000000005ad0b52264961893e5d9397ec1f22d456ce9f92d"
                    ]
                },
                "nodeType": 1
            },
            "13": {
                "invocation": {
                    "address": "0x5ad0b52264961893e5d9397ec1f22d456ce9f92d",
                    "callData": "0x000000000000000000000000000000000000000000000000000000000000000000000000000000000000000000000000000000000000000000000011f6cc66b40000000000000000000000004ea446688d4baf51187764c879e60a1ab826e7b100000000000000000000000000000000000000000000000000000000000000800000000000000000000000000000000000000000000000000000000000000000",
                    "decodedMethod": {
                        "callParams": [
                            {
                                "name": "amount0Out",
                                "type": "uint256",
                                "value": "0"
                            },
                            {
                                "name": "amount1Out",
                                "type": "uint256",
                                "value": "77,155,034,804"
                            },
                            {
                                "name": "to",
                                "type": "address",
                                "value": "0x4ea446688d4baf51187764c879e60a1ab826e7b1"
                            },
                            {
                                "name": "data",
                                "type": "bytes",
                                "value": "0x"
                            }
                        ],
                        "constructorArguments": "",
                        "name": "swap",
                        "returnParams": [],
                        "signature": "swap(uint256,uint256,address,bytes)"
                    },
                    "errorInfo": "",
                    "fromAddress": "0x7a250d5630b4cf539739df2c5dacb4c659f2488d",
                    "gasUsed": 161153,
                    "id": 13,
                    "methodDecoded": true,
                    "operation": "CALL",
                    "output": "",
                    "revert": false,
                    "revertMessage": "",
                    "selector": "0x022c0d9f",
                    "status": true,
                    "value": "0"
                },
                "nodeType": 0
            },
            "14": {
                "invocation": {
                    "address": "0xe8b251822d003a2b2466ee0e38391c2db2048739",
                    "callData": "0x0000000000000000000000004ea446688d4baf51187764c879e60a1ab826e7b100000000000000000000000000000000000000000000000000000011f6cc66b4",
                    "decodedMethod": {
                        "callParams": [
                            {
                                "name": "recipient",
                                "type": "address",
                                "value": "0x4ea446688d4baf51187764c879e60a1ab826e7b1"
                            },
                            {
                                "decimalAvailable": true,
                                "name": "amount",
                                "type": "uint256",
                                "value": "77,155,034,804"
                            }
                        ],
                        "constructorArguments": "",
                        "name": "transfer",
                        "returnParams": [
                            {
                                "name": "",
                                "type": "bool",
                                "value": true
                            }
                        ],
                        "signature": "transfer(address,uint256)"
                    },
                    "errorInfo": "",
                    "fromAddress": "0x5ad0b52264961893e5d9397ec1f22d456ce9f92d",
                    "gasUsed": 127953,
                    "id": 14,
                    "methodDecoded": true,
                    "operation": "CALL",
                    "output": "0x0000000000000000000000000000000000000000000000000000000000000001",
                    "revert": false,
                    "revertMessage": "",
                    "selector": "0xa9059cbb",
                    "status": true,
                    "value": "0"
                },
                "nodeType": 0
            },
            "15": {
                "invocation": {
                    "address": "0x618c0be1b13c0b9a6bdce017fa46aaa24743bb64",
                    "callData": "0x0000000000000000000000004ea446688d4baf51187764c879e60a1ab826e7b100000000000000000000000000000000000000000000000000000011f6cc66b4",
                    "decodedMethod": {
                        "callParams": [
                            {
                                "name": "recipient",
                                "type": "address",
                                "value": "0x4ea446688d4baf51187764c879e60a1ab826e7b1"
                            },
                            {
                                "decimalAvailable": true,
                                "name": "amount",
                                "type": "uint256",
                                "value": "77,155,034,804"
                            }
                        ],
                        "constructorArguments": "",
                        "name": "transfer",
                        "returnParams": [
                            {
                                "name": "",
                                "type": "bool",
                                "value": true
                            }
                        ],
                        "signature": "transfer(address,uint256)"
                    },
                    "errorInfo": "",
                    "fromAddress": "0xe8b251822d003a2b2466ee0e38391c2db2048739",
                    "gasUsed": 125179,
                    "id": 15,
                    "methodDecoded": true,
                    "operation": "DELEGATECALL",
                    "output": "0x0000000000000000000000000000000000000000000000000000000000000001",
                    "revert": false,
                    "revertMessage": "",
                    "selector": "0xa9059cbb",
                    "status": true,
                    "value": "0"
                },
                "nodeType": 0
            },
            "16": {
                "event": {
                    "contract": "0xe8b251822d003a2b2466ee0e38391c2db2048739",
                    "decodedLog": {
                        "name": "Transfer",
                        "params": [
                            {
                                "name": "from",
                                "type": "address",
                                "value": "0x5ad0b52264961893e5d9397ec1f22d456ce9f92d"
                            },
                            {
                                "name": "to",
                                "type": "address",
                                "value": "0x4ea446688d4baf51187764c879e60a1ab826e7b1"
                            },
                            {
                                "decimalAvailable": true,
                                "name": "value",
                                "type": "uint256",
                                "value": "76,383,484,456"
                            }
                        ],
                        "signature": "Transfer(address,address,uint256)"
                    },
                    "id": 16,
                    "logData": "0x00000000000000000000000000000000000000000000000000000011c8cf7a28",
                    "logDecoded": true,
                    "operation": "EVENT",
                    "revert": false,
                    "status": true,
                    "topics": [
                        "0xddf252ad1be2c89b69c2b068fc378daa952ba7f163c4a11628f55a4df523b3ef",
                        "0x0000000000000000000000005ad0b52264961893e5d9397ec1f22d456ce9f92d",
                        "0x0000000000000000000000004ea446688d4baf51187764c879e60a1ab826e7b1"
                    ]
                },
                "nodeType": 1
            },
            "17": {
                "invocation": {
                    "address": "0xc02aaa39b223fe8d0a0e5c4f27ead9083c756cc2",
                    "callData": "0x0000000000000000000000005ad0b52264961893e5d9397ec1f22d456ce9f92d",
                    "decodedMethod": {
                        "callParams": [
                            {
                                "name": "",
                                "type": "address",
                                "value": "0x5ad0b52264961893e5d9397ec1f22d456ce9f92d"
                            }
                        ],
                        "constructorArguments": "",
                        "name": "balanceOf",
                        "returnParams": [
                            {
                                "decimalAvailable": true,
                                "name": "",
                                "type": "uint256",
                                "value": "1,125,523,009,019,806,468,593"
                            }
                        ],
                        "signature": "balanceOf(address)"
                    },
                    "errorInfo": "",
                    "fromAddress": "0x5ad0b52264961893e5d9397ec1f22d456ce9f92d",
                    "gasUsed": 1234,
                    "id": 17,
                    "methodDecoded": true,
                    "operation": "STATICCALL",
                    "output": "0x00000000000000000000000000000000000000000000003d03c4fd6d5257c9f1",
                    "revert": false,
                    "revertMessage": "",
                    "selector": "0x70a08231",
                    "status": true,
                    "value": "0"
                },
                "nodeType": 0
            },
            "18": {
                "invocation": {
                    "address": "0xe8b251822d003a2b2466ee0e38391c2db2048739",
                    "callData": "0x0000000000000000000000005ad0b52264961893e5d9397ec1f22d456ce9f92d",
                    "decodedMethod": {
                        "callParams": [
                            {
                                "name": "account",
                                "type": "address",
                                "value": "0x5ad0b52264961893e5d9397ec1f22d456ce9f92d"
                            }
                        ],
                        "constructorArguments": "",
                        "name": "balanceOf",
                        "returnParams": [
                            {
                                "decimalAvailable": true,
                                "name": "",
                                "type": "uint256",
                                "value": "183,646,411,762,875"
                            }
                        ],
                        "signature": "balanceOf(address)"
                    },
                    "errorInfo": "",
                    "fromAddress": "0x5ad0b52264961893e5d9397ec1f22d456ce9f92d",
                    "gasUsed": 4959,
                    "id": 18,
                    "methodDecoded": true,
                    "operation": "STATICCALL",
                    "output": "0x0000000000000000000000000000000000000000000000000000a70683232cbb",
                    "revert": false,
                    "revertMessage": "",
                    "selector": "0x70a08231",
                    "status": true,
                    "value": "0"
                },
                "nodeType": 0
            },
            "19": {
                "invocation": {
                    "address": "0x618c0be1b13c0b9a6bdce017fa46aaa24743bb64",
                    "callData": "0x0000000000000000000000005ad0b52264961893e5d9397ec1f22d456ce9f92d",
                    "decodedMethod": {
                        "callParams": [
                            {
                                "name": "account",
                                "type": "address",
                                "value": "0x5ad0b52264961893e5d9397ec1f22d456ce9f92d"
                            }
                        ],
                        "constructorArguments": "",
                        "name": "balanceOf",
                        "returnParams": [
                            {
                                "decimalAvailable": true,
                                "name": "",
                                "type": "uint256",
                                "value": "183,646,411,762,875"
                            }
                        ],
                        "signature": "balanceOf(address)"
                    },
                    "errorInfo": "",
                    "fromAddress": "0xe8b251822d003a2b2466ee0e38391c2db2048739",
                    "gasUsed": 2188,
                    "id": 19,
                    "methodDecoded": true,
                    "operation": "DELEGATECALL",
                    "output": "0x0000000000000000000000000000000000000000000000000000a70683232cbb",
                    "revert": false,
                    "revertMessage": "",
                    "selector": "0x70a08231",
                    "status": true,
                    "value": "0"
                },
                "nodeType": 0
            },
            "2": {
                "invocation": {
                    "address": "0x5ad0b52264961893e5d9397ec1f22d456ce9f92d",
                    "callData": "0x",
                    "decodedMethod": {
                        "callParams": [],
                        "constructorArguments": "",
                        "name": "getReserves",
                        "returnParams": [
                            {
                                "name": "_reserve0",
                                "type": "uint112",
                                "value": "1,125,048,921,990,047,993,184"
                            },
                            {
                                "name": "_reserve1",
                                "type": "uint112",
                                "value": "183,723,566,797,679"
                            },
                            {
                                "name": "_blockTimestampLast",
                                "type": "uint32",
                                "value": "1,607,632,111"
                            }
                        ],
                        "signature": "getReserves()"
                    },
                    "errorInfo": "",
                    "fromAddress": "0x7a250d5630b4cf539739df2c5dacb4c659f2488d",
                    "gasUsed": 1204,
                    "id": 2,
                    "methodDecoded": true,
                    "operation": "STATICCALL",
                    "output": "0x00000000000000000000000000000000000000000000003cfd30b1c908f80d600000000000000000000000000000000000000000000000000000a71879ef936f000000000000000000000000000000000000000000000000000000005fd284ef",
                    "revert": false,
                    "revertMessage": "",
                    "selector": "0x0902f1ac",
                    "status": true,
                    "value": "0"
                },
                "nodeType": 0
            },
            "20": {
                "event": {
                    "contract": "0x5ad0b52264961893e5d9397ec1f22d456ce9f92d",
                    "decodedLog": {
                        "name": "Sync",
                        "params": [
                            {
                                "name": "reserve0",
                                "type": "uint112",
                                "value": "1,125,523,009,019,806,468,593"
                            },
                            {
                                "name": "reserve1",
                                "type": "uint112",
                                "value": "183,646,411,762,875"
                            }
                        ],
                        "signature": "Sync(uint112,uint112)"
                    },
                    "id": 20,
                    "logData": "0x00000000000000000000000000000000000000000000003d03c4fd6d5257c9f10000000000000000000000000000000000000000000000000000a70683232cbb",
                    "logDecoded": true,
                    "operation": "EVENT",
                    "revert": false,
                    "status": true,
                    "topics": [
                        "0x1c411e9a96e071241c2f21f7726b17ae89e3cab4c78be50e062b03a9fffbbad1"
                    ]
                },
                "nodeType": 1
            },
            "21": {
                "event": {
                    "contract": "0x5ad0b52264961893e5d9397ec1f22d456ce9f92d",
                    "decodedLog": {
                        "name": "Swap",
                        "params": [
                            {
                                "name": "sender",
                                "type": "address",
                                "value": "0x7a250d5630b4cf539739df2c5dacb4c659f2488d"
                            },
                            {
                                "name": "to",
                                "type": "address",
                                "value": "0x4ea446688d4baf51187764c879e60a1ab826e7b1"
                            },
                            {
                                "name": "amount0In",
                                "type": "uint256",
                                "value": "474,087,029,758,475,409"
                            },
                            {
                                "name": "amount1In",
                                "type": "uint256",
                                "value": "0"
                            },
                            {
                                "name": "amount0Out",
                                "type": "uint256",
                                "value": "0"
                            },
                            {
                                "name": "amount1Out",
                                "type": "uint256",
                                "value": "77,155,034,804"
                            }
                        ],
                        "signature": "Swap(address,uint256,uint256,uint256,uint256,address)"
                    },
                    "id": 21,
                    "logData": "0x00000000000000000000000000000000000000000000000006944ba4495fbc910000000000000000000000000000000000000000000000000000000000000000000000000000000000000000000000000000000000000000000000000000000000000000000000000000000000000000000000000000000000000011f6cc66b4",
                    "logDecoded": true,
                    "operation": "EVENT",
                    "revert": false,
                    "status": true,
                    "topics": [
                        "0xd78ad95fa46c994b6551d0da85fc275fe613ce37657fb8d5e3d130840159d822",
                        "0x0000000000000000000000007a250d5630b4cf539739df2c5dacb4c659f2488d",
                        "0x0000000000000000000000004ea446688d4baf51187764c879e60a1ab826e7b1"
                    ]
                },
                "nodeType": 1
            },
            "3": {
                "invocation": {
                    "address": "0x875773784af8135ea0ef43b5a374aad105c5d39e",
                    "callData": "0x0000000000000000000000004ea446688d4baf51187764c879e60a1ab826e7b100000000000000000000000029a9777da2bacd8c4a28b6fd8247c4ca4f098f120000000000000000000000000000000000000000000000015de55e2607cc92de",
                    "decodedMethod": {
                        "callParams": [
                            {
                                "name": "sender",
                                "type": "address",
                                "value": "0x4ea446688d4baf51187764c879e60a1ab826e7b1"
                            },
                            {
                                "name": "recipient",
                                "type": "address",
                                "value": "0x29a9777da2bacd8c4a28b6fd8247c4ca4f098f12"
                            },
                            {
                                "decimalAvailable": true,
                                "name": "amount",
                                "type": "uint256",
                                "value": "25,212,661,606,336,205,534"
                            }
                        ],
                        "constructorArguments": "",
                        "name": "transferFrom",
                        "returnParams": [
                            {
                                "name": "",
                                "type": "bool",
                                "value": true
                            }
                        ],
                        "signature": "transferFrom(address,address,uint256)"
                    },
                    "errorInfo": "",
                    "fromAddress": "0x7a250d5630b4cf539739df2c5dacb4c659f2488d",
                    "gasUsed": 24555,
                    "id": 3,
                    "methodDecoded": true,
                    "operation": "CALL",
                    "output": "0x0000000000000000000000000000000000000000000000000000000000000001",
                    "revert": false,
                    "revertMessage": "",
                    "selector": "0x23b872dd",
                    "status": true,
                    "value": "0"
                },
                "nodeType": 0
            },
            "4": {
                "event": {
                    "contract": "0x875773784af8135ea0ef43b5a374aad105c5d39e",
                    "decodedLog": {
                        "name": "Transfer",
                        "params": [
                            {
                                "name": "from",
                                "type": "address",
                                "value": "0x4ea446688d4baf51187764c879e60a1ab826e7b1"
                            },
                            {
                                "name": "to",
                                "type": "address",
                                "value": "0x29a9777da2bacd8c4a28b6fd8247c4ca4f098f12"
                            },
                            {
                                "decimalAvailable": true,
                                "name": "value",
                                "type": "uint256",
                                "value": "25,212,661,606,336,205,534"
                            }
                        ],
                        "signature": "Transfer(address,address,uint256)"
                    },
                    "id": 4,
                    "logData": "0x0000000000000000000000000000000000000000000000015de55e2607cc92de",
                    "logDecoded": true,
                    "operation": "EVENT",
                    "revert": false,
                    "status": true,
                    "topics": [
                        "0xddf252ad1be2c89b69c2b068fc378daa952ba7f163c4a11628f55a4df523b3ef",
                        "0x0000000000000000000000004ea446688d4baf51187764c879e60a1ab826e7b1",
                        "0x00000000000000000000000029a9777da2bacd8c4a28b6fd8247c4ca4f098f12"
                    ]
                },
                "nodeType": 1
            },
            "5": {
                "event": {
                    "contract": "0x875773784af8135ea0ef43b5a374aad105c5d39e",
                    "decodedLog": {
                        "name": "Approval",
                        "params": [
                            {
                                "name": "owner",
                                "type": "address",
                                "value": "0x4ea446688d4baf51187764c879e60a1ab826e7b1"
                            },
                            {
                                "name": "spender",
                                "type": "address",
                                "value": "0x7a250d5630b4cf539739df2c5dacb4c659f2488d"
                            },
                            {
                                "decimalAvailable": true,
                                "name": "value",
                                "type": "uint256",
                                "value": "115,792,089,237,316,195,423,570,985,008,687,907,853,269,984,665,640,564,038,967,560,021,532,771,499,178"
                            }
                        ],
                        "signature": "Approval(address,address,uint256)"
                    },
                    "id": 5,
                    "logData": "0xffffffffffffffffffffffffffffffffffffffffffffffe56f8d14a539e63caa",
                    "logDecoded": true,
                    "operation": "EVENT",
                    "revert": false,
                    "status": true,
                    "topics": [
                        "0x8c5be1e5ebec7d5bd14f71427d1e84f3dd0314c0f7b2291e5b200ac8c7c3b925",
                        "0x0000000000000000000000004ea446688d4baf51187764c879e60a1ab826e7b1",
                        "0x0000000000000000000000007a250d5630b4cf539739df2c5dacb4c659f2488d"
                    ]
                },
                "nodeType": 1
            },
            "6": {
                "invocation": {
                    "address": "0x29a9777da2bacd8c4a28b6fd8247c4ca4f098f12",
                    "callData": "0x000000000000000000000000000000000000000000000000000000000000000000000000000000000000000000000000000000000000000006944ba4495fbc910000000000000000000000005ad0b52264961893e5d9397ec1f22d456ce9f92d00000000000000000000000000000000000000000000000000000000000000800000000000000000000000000000000000000000000000000000000000000000",
                    "decodedMethod": {
                        "callParams": [
                            {
                                "name": "amount0Out",
                                "type": "uint256",
                                "value": "0"
                            },
                            {
                                "name": "amount1Out",
                                "type": "uint256",
                                "value": "474,087,029,758,475,409"
                            },
                            {
                                "name": "to",
                                "type": "address",
                                "value": "0x5ad0b52264961893e5d9397ec1f22d456ce9f92d"
                            },
                            {
                                "name": "data",
                                "type": "bytes",
                                "value": "0x"
                            }
                        ],
                        "constructorArguments": "",
                        "name": "swap",
                        "returnParams": [],
                        "signature": "swap(uint256,uint256,address,bytes)"
                    },
                    "errorInfo": "",
                    "fromAddress": "0x7a250d5630b4cf539739df2c5dacb4c659f2488d",
                    "gasUsed": 56608,
                    "id": 6,
                    "methodDecoded": true,
                    "operation": "CALL",
                    "output": "",
                    "revert": false,
                    "revertMessage": "",
                    "selector": "0x022c0d9f",
                    "status": true,
                    "value": "0"
                },
                "nodeType": 0
            },
            "7": {
                "invocation": {
                    "address": "0xc02aaa39b223fe8d0a0e5c4f27ead9083c756cc2",
                    "callData": "0x0000000000000000000000005ad0b52264961893e5d9397ec1f22d456ce9f92d00000000000000000000000000000000000000000000000006944ba4495fbc91",
                    "decodedMethod": {
                        "callParams": [
                            {
                                "name": "dst",
                                "type": "address",
                                "value": "0x5ad0b52264961893e5d9397ec1f22d456ce9f92d"
                            },
                            {
                                "decimalAvailable": true,
                                "name": "wad",
                                "type": "uint256",
                                "value": "474,087,029,758,475,409"
                            }
                        ],
                        "constructorArguments": "",
                        "name": "transfer",
                        "returnParams": [
                            {
                                "name": "",
                                "type": "bool",
                                "value": true
                            }
                        ],
                        "signature": "transfer(address,uint256)"
                    },
                    "errorInfo": "",
                    "fromAddress": "0x29a9777da2bacd8c4a28b6fd8247c4ca4f098f12",
                    "gasUsed": 15162,
                    "id": 7,
                    "methodDecoded": true,
                    "operation": "CALL",
                    "output": "0x0000000000000000000000000000000000000000000000000000000000000001",
                    "revert": false,
                    "revertMessage": "",
                    "selector": "0xa9059cbb",
                    "status": true,
                    "value": "0"
                },
                "nodeType": 0
            },
            "8": {
                "event": {
                    "contract": "0xc02aaa39b223fe8d0a0e5c4f27ead9083c756cc2",
                    "decodedLog": {
                        "name": "Transfer",
                        "params": [
                            {
                                "name": "src",
                                "type": "address",
                                "value": "0x29a9777da2bacd8c4a28b6fd8247c4ca4f098f12"
                            },
                            {
                                "name": "dst",
                                "type": "address",
                                "value": "0x5ad0b52264961893e5d9397ec1f22d456ce9f92d"
                            },
                            {
                                "decimalAvailable": true,
                                "name": "wad",
                                "type": "uint256",
                                "value": "474,087,029,758,475,409"
                            }
                        ],
                        "signature": "Transfer(address,address,uint256)"
                    },
                    "id": 8,
                    "logData": "0x00000000000000000000000000000000000000000000000006944ba4495fbc91",
                    "logDecoded": true,
                    "operation": "EVENT",
                    "revert": false,
                    "status": true,
                    "topics": [
                        "0xddf252ad1be2c89b69c2b068fc378daa952ba7f163c4a11628f55a4df523b3ef",
                        "0x00000000000000000000000029a9777da2bacd8c4a28b6fd8247c4ca4f098f12",
                        "0x0000000000000000000000005ad0b52264961893e5d9397ec1f22d456ce9f92d"
                    ]
                },
                "nodeType": 1
            },
            "9": {
                "invocation": {
                    "address": "0x875773784af8135ea0ef43b5a374aad105c5d39e",
                    "callData": "0x00000000000000000000000029a9777da2bacd8c4a28b6fd8247c4ca4f098f12",
                    "decodedMethod": {
                        "callParams": [
                            {
                                "name": "account",
                                "type": "address",
                                "value": "0x29a9777da2bacd8c4a28b6fd8247c4ca4f098f12"
                            }
                        ],
                        "constructorArguments": "",
                        "name": "balanceOf",
                        "returnParams": [
                            {
                                "decimalAvailable": true,
                                "name": "",
                                "type": "uint256",
                                "value": "11,588,496,096,709,985,932,975"
                            }
                        ],
                        "signature": "balanceOf(address)"
                    },
                    "errorInfo": "",
                    "fromAddress": "0x29a9777da2bacd8c4a28b6fd8247c4ca4f098f12",
                    "gasUsed": 1189,
                    "id": 9,
                    "methodDecoded": true,
                    "operation": "STATICCALL",
                    "output": "0x00000000000000000000000000000000000000000000027436b09979578396af",
                    "revert": false,
                    "revertMessage": "",
                    "selector": "0x70a08231",
                    "status": true,
                    "value": "0"
                },
                "nodeType": 0
            }
        },
        "gasFlame": [
            {
                "children": [
                    {
                        "children": [
                            {
                                "children": [],
                                "depth": 0,
                                "name": "Initial Gas",
                                "value": 23404
                            },
                            {
                                "children": [
                                    {
                                        "children": [],
                                        "depth": 1,
                                        "name": "getReserves",
                                        "value": 1204
                                    },
                                    {
                                        "children": [],
                                        "depth": 1,
                                        "name": "getReserves",
                                        "value": 1204
                                    },
                                    {
                                        "children": [],
                                        "depth": 1,
                                        "name": "transferFrom",
                                        "value": 24555
                                    },
                                    {
                                        "children": [
                                            {
                                                "children": [],
                                                "depth": 2,
                                                "name": "transfer",
                                                "value": 15162
                                            },
                                            {
                                                "children": [],
                                                "depth": 2,
                                                "name": "balanceOf",
                                                "value": 1189
                                            },
                                            {
                                                "children": [],
                                                "depth": 2,
                                                "name": "balanceOf",
                                                "value": 1234
                                            }
                                        ],
                                        "depth": 1,
                                        "name": "swap",
                                        "value": 56608
                                    },
                                    {
                                        "children": [
                                            {
                                                "children": [
                                                    {
                                                        "children": [],
                                                        "depth": 3,
                                                        "name": "transfer",
                                                        "value": 125179
                                                    }
                                                ],
                                                "depth": 2,
                                                "name": "transfer",
                                                "value": 127953
                                            },
                                            {
                                                "children": [],
                                                "depth": 2,
                                                "name": "balanceOf",
                                                "value": 1234
                                            },
                                            {
                                                "children": [
                                                    {
                                                        "children": [],
                                                        "depth": 3,
                                                        "name": "balanceOf",
                                                        "value": 2188
                                                    }
                                                ],
                                                "depth": 2,
                                                "name": "balanceOf",
                                                "value": 4959
                                            }
                                        ],
                                        "depth": 1,
                                        "name": "swap",
                                        "value": 161153
                                    }
                                ],
                                "depth": 0,
                                "name": "Executed Gas",
                                "value": 262802
                            }
                        ],
                        "depth": -1,
                        "name": "Actual Gas Used",
                        "value": 262806
                    },
                    {
                        "children": [],
                        "depth": -1,
                        "name": "Refunded Gas",
                        "value": 23400
                    }
                ],
                "depth": -2,
                "name": "Total Gas",
                "value": 286206
            }
        ],
        "isConfirmed": true,
        "mainTrace": [
            {
                "children": [
                    {
                        "children": [
                            {
                                "children": [],
                                "depth": 1,
                                "id": 1,
                                "order": 1
                            },
                            {
                                "children": [],
                                "depth": 1,
                                "id": 2,
                                "order": 2
                            },
                            {
                                "children": [
                                    {
                                        "children": [],
                                        "depth": 2,
                                        "id": 4,
                                        "order": 4
                                    },
                                    {
                                        "children": [],
                                        "depth": 2,
                                        "id": 5,
                                        "order": 5
                                    }
                                ],
                                "depth": 1,
                                "id": 3,
                                "order": 3
                            },
                            {
                                "children": [
                                    {
                                        "children": [
                                            {
                                                "children": [],
                                                "depth": 3,
                                                "id": 8,
                                                "order": 8
                                            }
                                        ],
                                        "depth": 2,
                                        "id": 7,
                                        "order": 7
                                    },
                                    {
                                        "children": [],
                                        "depth": 2,
                                        "id": 9,
                                        "order": 9
                                    },
                                    {
                                        "children": [],
                                        "depth": 2,
                                        "id": 10,
                                        "order": 10
                                    },
                                    {
                                        "children": [],
                                        "depth": 2,
                                        "id": 11,
                                        "order": 11
                                    },
                                    {
                                        "children": [],
                                        "depth": 2,
                                        "id": 12,
                                        "order": 12
                                    }
                                ],
                                "depth": 1,
                                "id": 6,
                                "order": 6
                            },
                            {
                                "children": [
                                    {
                                        "children": [
                                            {
                                                "children": [
                                                    {
                                                        "children": [],
                                                        "depth": 4,
                                                        "id": 16,
                                                        "order": 16
                                                    }
                                                ],
                                                "depth": 3,
                                                "id": 15,
                                                "order": 15
                                            }
                                        ],
                                        "depth": 2,
                                        "id": 14,
                                        "order": 14
                                    },
                                    {
                                        "children": [],
                                        "depth": 2,
                                        "id": 17,
                                        "order": 17
                                    },
                                    {
                                        "children": [
                                            {
                                                "children": [],
                                                "depth": 3,
                                                "id": 19,
                                                "order": 19
                                            }
                                        ],
                                        "depth": 2,
                                        "id": 18,
                                        "order": 18
                                    },
                                    {
                                        "children": [],
                                        "depth": 2,
                                        "id": 20,
                                        "order": 20
                                    },
                                    {
                                        "children": [],
                                        "depth": 2,
                                        "id": 21,
                                        "order": 21
                                    }
                                ],
                                "depth": 1,
                                "id": 13,
                                "order": 13
                            }
                        ],
                        "depth": 0,
                        "id": 0,
                        "order": 0
                    }
                ],
                "depth": -1,
                "id": -1,
                "order": -1
            }
        ],
        "mainTraceNodeCount": 22,
        "parentIdMap": {
            "0": -1,
            "1": 0,
            "10": 6,
            "11": 6,
            "12": 6,
            "13": 0,
            "14": 13,
            "15": 14,
            "16": 15,
            "17": 13,
            "18": 13,
            "19": 18,
            "2": 0,
            "20": 13,
            "21": 13,
            "3": 0,
            "4": 3,
            "5": 3,
            "6": 0,
            "7": 6,
            "8": 7,
            "9": 6
        },
        "tidyTrace": [
            {
                "children": [
                    {
                        "children": [
                            {
                                "children": [
                                    {
                                        "children": [],
                                        "depth": 2,
                                        "id": 4,
                                        "order": 4
                                    },
                                    {
                                        "children": [],
                                        "depth": 2,
                                        "id": 5,
                                        "order": 5
                                    }
                                ],
                                "depth": 1,
                                "id": 3,
                                "order": 3
                            },
                            {
                                "children": [
                                    {
                                        "children": [
                                            {
                                                "children": [],
                                                "depth": 3,
                                                "id": 8,
                                                "order": 8
                                            }
                                        ],
                                        "depth": 2,
                                        "id": 7,
                                        "order": 7
                                    },
                                    {
                                        "children": [],
                                        "depth": 2,
                                        "id": 11,
                                        "order": 11
                                    },
                                    {
                                        "children": [],
                                        "depth": 2,
                                        "id": 12,
                                        "order": 12
                                    }
                                ],
                                "depth": 1,
                                "id": 6,
                                "order": 6
                            },
                            {
                                "children": [
                                    {
                                        "children": [
                                            {
                                                "children": [
                                                    {
                                                        "children": [],
                                                        "depth": 4,
                                                        "id": 16,
                                                        "order": 16
                                                    }
                                                ],
                                                "depth": 3,
                                                "id": 15,
                                                "order": 15
                                            }
                                        ],
                                        "depth": 2,
                                        "id": 14,
                                        "order": 14
                                    },
                                    {
                                        "children": [],
                                        "depth": 2,
                                        "id": 20,
                                        "order": 20
                                    },
                                    {
                                        "children": [],
                                        "depth": 2,
                                        "id": 21,
                                        "order": 21
                                    }
                                ],
                                "depth": 1,
                                "id": 13,
                                "order": 13
                            }
                        ],
                        "depth": 0,
                        "id": 0,
                        "order": 0
                    }
                ],
                "depth": -1,
                "id": -1,
                "order": -1
            }
        ],
        "tidyTraceNodeCount": 15
    },
    "state_change": {
        "stateChanges": [
            {
                "address": "0x29a9777da2bacd8c4a28b6fd8247c4ca4f098f12",
                "erc": "ERC-20",
                "slots": [
                    {
                        "current": "0x00000000000000000000000000002091d3c6dfd46c48da9bdb41616d39143004",
                        "key": "0x000000000000000000000000000000000000000000000000000000000000000a",
                        "prev": "0x00000000000000000000000000002091cf0603b8e735c40cee0c05d9443df8e6"
                    },
                    {
                        "current": "0x5fd284ef00000000000bd288d790a7d1136b00000000027436b09979578396af",
                        "key": "0x0000000000000000000000000000000000000000000000000000000000000008",
                        "prev": "0x5fd284d800000000000bd91d2334f130cffc000000000272d8cb3b534fb703d1"
                    },
                    {
                        "current": "0x00000000000000000000000000000000186aa2d5f5775d1071ed91e460e43bfe",
                        "key": "0x0000000000000000000000000000000000000000000000000000000000000009",
                        "prev": "0x00000000000000000000000000000000186a338bc99d5572e4ecb83229d13416"
                    }
                ],
                "storageVariables": [
                    {
                        "name": "price1CumulativeLast",
                        "type": "uint256",
                        "value": {
                            "current": "2837215592741559801562624453730532293095428",
                            "prev": "2837209274444269365438550125741229544962278",
                            "typeTag": 1
                        }
                    },
                    {
                        "name": "reserve0",
                        "type": "uint112",
                        "value": {
                            "current": "11588496096709985932975",
                            "prev": "11563283435103649727441",
                            "typeTag": 1
                        }
                    },
                    {
                        "name": "reserve1",
                        "type": "uint112",
                        "value": {
                            "current": "218084797171893343083",
                            "prev": "218558884201651818492",
                            "typeTag": 1
                        }
                    },
                    {
                        "name": "blockTimestampLast",
                        "type": "uint32",
                        "value": {
                            "current": "1607632111",
                            "prev": "1607632088",
                            "typeTag": 1
                        }
                    },
                    {
                        "name": "price0CumulativeLast",
                        "type": "uint256",
                        "value": {
                            "current": "32455158067765208849432061808744872958",
                            "prev": "32452900843843740244595634847632929814",
                            "typeTag": 1
                        }
                    }
                ]
            },
            {
                "address": "0x5ad0b52264961893e5d9397ec1f22d456ce9f92d",
                "erc": "ERC-20",
                "slots": [
                    {
                        "current": "0x5fd284ef0000000000000000a70683232cbb00000000003d03c4fd6d5257c9f1",
                        "key": "0x0000000000000000000000000000000000000000000000000000000000000008",
                        "prev": "0x5fd284ef0000000000000000a71879ef936f00000000003cfd30b1c908f80d60"
                    }
                ],
                "storageVariables": [
                    {
                        "name": "reserve0",
                        "type": "uint112",
                        "value": {
                            "current": "1125523009019806468593",
                            "prev": "1125048921990047993184",
                            "typeTag": 1
                        }
                    },
                    {
                        "name": "reserve1",
                        "type": "uint112",
                        "value": {
                            "current": "183646411762875",
                            "prev": "183723566797679",
                            "typeTag": 1
                        }
                    },
                    {
                        "name": "blockTimestampLast",
                        "type": "uint32",
                        "value": {
                            "current": "1607632111",
                            "prev": "1607632111",
                            "typeTag": 1
                        }
                    }
                ]
            },
            {
                "address": "0x875773784af8135ea0ef43b5a374aad105c5d39e",
                "erc": "ERC-20",
                "slots": [
                    {
                        "current": "0x0000000000000000000000000000000000000000000000000000000000000000",
                        "key": "0x01e75c2991315a4ebd434a335ab7f4ba81059e7a124f0a8f707dd9f621f64a7e",
                        "prev": "0x0000000000000000000000000000000000000000000000015de55e2607cc92de"
                    },
                    {
                        "current": "0x00000000000000000000000000000000000000000000027436b09979578396af",
                        "key": "0x517e0545fcbe8782f35d38b75823129d8fe913b688b9cc99c6ee1ddcbf6b4f4b",
                        "prev": "0x000000000000000000000000000000000000000000000272d8cb3b534fb703d1"
                    },
                    {
                        "current": "0xffffffffffffffffffffffffffffffffffffffffffffffe56f8d14a539e63caa",
                        "key": "0x1ad1e8f974408bf75a2b8c96e0793aeb1bccde14e879b9de1644cb4f5ac76ad8",
                        "prev": "0xffffffffffffffffffffffffffffffffffffffffffffffe6cd7272cb41b2cf88"
                    }
                ],
                "storageVariables": [
                    {
                        "name": "_balances",
                        "type": "mapping(address => uint256)",
                        "value": {
                            "pairs": [
                                {
                                    "key": "0x29a9777da2bacd8c4a28b6fd8247c4ca4f098f12",
                                    "value": {
                                        "current": "11588496096709985932975",
                                        "prev": "11563283435103649727441",
                                        "typeTag": 1
                                    }
                                },
                                {
                                    "key": "0x4ea446688d4baf51187764c879e60a1ab826e7b1",
                                    "value": {
                                        "current": "0",
                                        "prev": "25212661606336205534",
                                        "typeTag": 1
                                    }
                                }
                            ],
                            "typeTag": 4
                        }
                    },
                    {
                        "name": "_allowances",
                        "type": "mapping(address => mapping(address => uint256))",
                        "value": {
                            "pairs": [
                                {
                                    "key": "0x4ea446688d4baf51187764c879e60a1ab826e7b1",
                                    "value": {
                                        "pairs": [
                                            {
                                                "key": "0x7a250d5630b4cf539739df2c5dacb4c659f2488d",
                                                "value": {
                                                    "current": "115792089237316195423570985008687907853269984665640564038967560021532771499178",
                                                    "prev": "115792089237316195423570985008687907853269984665640564038992772683139107704712",
                                                    "typeTag": 1
                                                }
                                            }
                                        ],
                                        "typeTag": 4
                                    }
                                }
                            ],
                            "typeTag": 4
                        }
                    }
                ]
            },
            {
                "address": "0xc02aaa39b223fe8d0a0e5c4f27ead9083c756cc2",
                "erc": "ERC-20",
                "slots": [
                    {
                        "current": "0x00000000000000000000000000000000000000000000000bd288d790a7d1136b",
                        "key": "0xfd78abc40b2b754df47fcba70c5dd256a69d23b7fd47ffbca08dd44672c7b77d",
                        "prev": "0x00000000000000000000000000000000000000000000000bd91d2334f130cffc"
                    },
                    {
                        "current": "0x00000000000000000000000000000000000000000000003d03c4fd6d5257c9f1",
                        "key": "0x6a2e9aee9d88bf9e19dfb7053697ca6e44444b7911763a0d73ae1c51105af693",
                        "prev": "0x00000000000000000000000000000000000000000000003cfd30b1c908f80d60"
                    }
                ],
                "storageVariables": [
                    {
                        "name": "balanceOf",
                        "type": "mapping(address => uint256)",
                        "value": {
                            "pairs": [
                                {
                                    "key": "0x29a9777da2bacd8c4a28b6fd8247c4ca4f098f12",
                                    "value": {
                                        "current": "218084797171893343083",
                                        "prev": "218558884201651818492",
                                        "typeTag": 1
                                    }
                                },
                                {
                                    "key": "0x5ad0b52264961893e5d9397ec1f22d456ce9f92d",
                                    "value": {
                                        "current": "1125523009019806468593",
                                        "prev": "1125048921990047993184",
                                        "typeTag": 1
                                    }
                                }
                            ],
                            "typeTag": 4
                        }
                    }
                ]
            },
            {
                "address": "0xe8b251822d003a2b2466ee0e38391c2db2048739",
                "erc": "ERC-20",
                "slots": [
                    {
                        "current": "0x0000000000000000000000000000000000000000000000000000a70683232cbb",
                        "key": "0x918b26a3b399f26fb2a8ba6c742076b4da7ffc4e52ebdfe9ee4a7d90a249d9b4",
                        "prev": "0x0000000000000000000000000000000000000000000000000000a71879ef936f"
                    },
                    {
                        "current": "0x1c9165d09c9d2f6cba2a1d0d86b025835a5bb64c11443b60d8e3a0bf852b9367",
                        "key": "0xe5342a0b1e527b26725ecb00fbb4b24f29f8b8c70aaf8e4ce7363f2923a44bcd",
                        "prev": "0x1c93d079576b20049d8e83c93d1bdc71558488d10384482245e54bfcdcebf12f"
                    },
                    {
                        "current": "0x0003d7d1bfa6c83935eaa6df4b5687b9b1cbc41ee31bab8d46ca8940b22ebfde",
                        "key": "0x59d5c6a3480757a5b0b7c36050a6f4a5d1ed7addd9ed5d8e04c2eca9e045b2c2",
                        "prev": "0x00017358c9466a941bd7678eb045fcf4977ee21538690c726fdbd7d4c56e70ce"
                    },
                    {
                        "current": "0xfa25e305903a7643f4c1107757533ae56302656ea6b74e37c14c4cac574fe738",
                        "key": "0x00000000000000000000000000000000000000000000000000000000000000d1",
                        "prev": "0xfa25e93554a80936be1237e272ae670e43de55e9ee44bbde575f467dc24ff5f0"
                    },
                    {
                        "current": "0x00000000000000000000000000000000000000000000000000002935cb615508",
                        "key": "0x00000000000000000000000000000000000000000000000000000000000000d2",
                        "prev": "0x000000000000000000000000000000000000000000000000000029359d64687c"
                    }
                ],
                "storageVariables": [
                    {
                        "name": "_tOwned",
                        "type": "mapping(address => uint256)",
                        "value": {
                            "pairs": [
                                {
                                    "key": "0x5ad0b52264961893e5d9397ec1f22d456ce9f92d",
                                    "value": {
                                        "current": "183646411762875",
                                        "prev": "183723566797679",
                                        "typeTag": 1
                                    }
                                }
                            ],
                            "typeTag": 4
                        }
                    },
                    {
                        "name": "_rOwned",
                        "type": "mapping(address => uint256)",
                        "value": {
                            "pairs": [
                                {
                                    "key": "0x4ea446688d4baf51187764c879e60a1ab826e7b1",
                                    "value": {
                                        "current": "6790071471006453235700275824444453367381687244166302320761265754261602270",
                                        "prev": "2562941566704228680973875238626628152868696820631543494787113297074090190",
                                        "typeTag": 1
                                    }
                                },
                                {
                                    "key": "0x5ad0b52264961893e5d9397ec1f22d456ce9f92d",
                                    "value": {
                                        "current": "12921655285267636979267849280716727004401474844824037140004264283533178803047",
                                        "prev": "12925925113453798606458942539054588295085264418892560870116849367773377982767",
                                        "typeTag": 1
                                    }
                                }
                            ],
                            "typeTag": 4
                        }
                    },
                    {
                        "name": "_rTotal",
                        "type": "uint256",
                        "value": {
                            "current": "113145152333622871968868354401591718012663596266816416794906859334040764278584",
                            "prev": "113145195031904731371504721259343761478132872850461405766193470265823775946224",
                            "typeTag": 1
                        }
                    },
                    {
                        "name": "_tFeeTotal",
                        "type": "uint256",
                        "value": {
                            "current": "45311022159112",
                            "prev": "45310250608764",
                            "typeTag": 1
                        }
                    }
                ]
            }
        ]
    }
}