{
    "balance_change": {
        "balanceChanges": [
            {
                "account": "0x602abc1c0acd75855fb7615df9eaf09bcb4a008f",
                "assets": [
                    {
                        "address": "0x57b9d10157f66d8c00a815b5e289a152dedbe7ed",
                        "amount": "2.1",
                        "iconUrl": "",
                        "isERC1155": false,
                        "isERC721": false,
                        "sign": false,
                        "value": ""
                    }
                ]
            },
            {
                "account": "0x84c1351d8dd341e1eb1e629d57c3455b5bec3e10",
                "assets": [
                    {
                        "address": "0x57b9d10157f66d8c00a815b5e289a152dedbe7ed",
                        "amount": "2.1",
                        "iconUrl": "",
                        "isERC1155": false,
                        "isERC721": false,
                        "sign": true,
                        "value": ""
                    }
                ]
            }
        ]
    },
    "profile": {
        "basic_info": {
            "baseFee": "8.918744362",
            "blockNumber": 18149133,
            "callData": "0xa9059cbb00000000000000000000000084c1351d8dd341e1eb1e629d57c3455b5bec3e100000000000000000000000000000000000000000000000000000000000200b20",
            "debugEnable": true,
            "errorInfo": "",
            "eventCount": 1,
            "feeRecipient": "0x95222290dd7278aa3ddd389cc1e1d165cc4bafe5",
            "formatValue": "0",
            "gasLimit": 60000,
            "gasPrice": "18.961919632",
            "gasUsed": 51779,
            "intTxnCount": 0,
            "internalRevert": false,
            "internalRevertMessage": "",
            "isContractCreation": false,
            "isFlashloan": false,
            "maxFee": "",
            "nonce": 523,
            "overwritedBlockNumber": -1,
            "priorityFee": "",
            "receiver": "0x57b9d10157f66d8c00a815b5e289a152dedbe7ed",
            "revertMessage": "",
            "sender": "0x602abc1c0acd75855fb7615df9eaf09bcb4a008f",
            "simulationEnable": true,
            "sourceTxnHash": "0xf126423ff1f897d21931411f8c98f1dd47fffce4a96e20b55278bfde78073f9b",
            "status": true,
            "timestamp": "2023-09-16T13:55:59Z",
            "transactionFee": "0.000981829236625328",
            "txnHash": "0xf126423ff1f897d21931411f8c98f1dd47fffce4a96e20b55278bfde78073f9b",
            "txnIndex": 9,
            "type": 0,
            "value": "0"
        },
        "fund_flow": [
            {
                "amount": "2.1",
                "from": "0x602abc1c0acd75855fb7615df9eaf09bcb4a008f",
                "id": 1,
                "isERC1155": false,
                "isERC721": false,
                "isReverted": false,
                "order": 1,
                "to": "0x84c1351d8dd341e1eb1e629d57c3455b5bec3e10",
                "token": "0x57b9d10157f66d8c00a815b5e289a152dedbe7ed"
            }
        ],
        "token_infos": [
            {
                "address": "0xeeeeeeeeeeeeeeeeeeeeeeeeeeeeeeeeeeeeeeee",
                "decimals": 18
            },
            {
                "address": "0x57b9d10157f66d8c00a815b5e289a152dedbe7ed",
                "decimals": 6
            },
            {
                "address": "0xc02aaa39b223fe8d0a0e5c4f27ead9083c756cc2",
                "decimals": 18
            }
        ]
    },
    "address_label": {
        "labels": [
            {
                "address": "0xeeeeeeeeeeeeeeeeeeeeeeeeeeeeeeeeeeeeeeee",
                "label": "Ether"
            },
            {
                "address": "0x57b9d10157f66d8c00a815b5e289a152dedbe7ed",
                "label": "\u73af\u7403\u80a1 (HQG)"
            },
            {
                "address": "0x0000000000000000000000000000000000000001",
                "label": "Precompiled"
            },
            {
                "address": "0x0000000000000000000000000000000000000002",
                "label": "Precompiled"
            },
            {
                "address": "0x0000000000000000000000000000000000000003",
                "label": "Precompiled"
            },
            {
                "address": "0x0000000000000000000000000000000000000004",
                "label": "Precompiled"
            }
        ]
    },
    "trace": {
        "accountLabels": null,
        "dataMap": {
            "-1": {
                "invocation": {
                    "address": "0x602abc1c0acd75855fb7615df9eaf09bcb4a008f",
                    "callData": "",
                    "decodedMethod": null,
                    "errorInfo": "",
                    "fromAddress": "",
                    "gasUsed": 0,
                    "id": -1,
                    "methodDecoded": false,
                    "operation": "",
                    "output": "",
                    "revert": false,
                    "revertMessage": "",
                    "selector": "",
                    "status": false,
                    "value": ""
                },
                "nodeType": 0
            },
            "0": {
                "invocation": {
                    "address": "0x57b9d10157f66d8c00a815b5e289a152dedbe7ed",
                    "callData": "0x00000000000000000000000084c1351d8dd341e1eb1e629d57c3455b5bec3e100000000000000000000000000000000000000000000000000000000000200b20",
                    "decodedMethod": {
                        "callParams": [
                            {
                                "name": "_to",
                                "type": "address",
                                "value": "0x84c1351d8dd341e1eb1e629d57c3455b5bec3e10"
                            },
                            {
                                "decimalAvailable": true,
                                "name": "_value",
                                "type": "uint256",
                                "value": "2,100,000"
                            }
                        ],
                        "constructorArguments": "",
                        "name": "transfer",
                        "returnParams": [
                            {
                                "name": "",
                                "type": "bool",
                                "value": true
                            }
                        ],
                        "signature": "transfer(address,uint256)"
                    },
                    "errorInfo": "",
                    "fromAddress": "0x602abc1c0acd75855fb7615df9eaf09bcb4a008f",
                    "gasUsed": 51779,
                    "id": 0,
                    "methodDecoded": true,
                    "operation": "CALL",
                    "output": "0x0000000000000000000000000000000000000000000000000000000000000001",
                    "revert": false,
                    "revertMessage": "",
                    "selector": "0xa9059cbb",
                    "status": true,
                    "value": "0"
                },
                "nodeType": 0
            },
            "1": {
                "event": {
                    "contract": "0x57b9d10157f66d8c00a815b5e289a152dedbe7ed",
                    "decodedLog": {
                        "name": "Transfer",
                        "params": [
                            {
                                "name": "from",
                                "type": "address",
                                "value": "0x602abc1c0acd75855fb7615df9eaf09bcb4a008f"
                            },
                            {
                                "name": "to",
                                "type": "address",
                                "value": "0x84c1351d8dd341e1eb1e629d57c3455b5bec3e10"
                            },
                            {
                                "decimalAvailable": true,
                                "name": "value",
                                "type": "uint256",
                                "value": "2,100,000"
                            }
                        ],
                        "signature": "Transfer(address,address,uint256)"
                    },
                    "id": 1,
                    "logData": "0x0000000000000000000000000000000000000000000000000000000000200b20",
                    "logDecoded": true,
                    "operation": "EVENT",
                    "revert": false,
                    "status": true,
                    "topics": [
                        "0xddf252ad1be2c89b69c2b068fc378daa952ba7f163c4a11628f55a4df523b3ef",
                        "0x000000000000000000000000602abc1c0acd75855fb7615df9eaf09bcb4a008f",
                        "0x00000000000000000000000084c1351d8dd341e1eb1e629d57c3455b5bec3e10"
                    ]
                },
                "nodeType": 1
            }
        },
        "gasFlame": [
            {
                "children": [
                    {
                        "children": [
                            {
                                "children": [],
                                "depth": 0,
                                "name": "Initial Gas",
                                "value": 21596
                            },
                            {
                                "children": [],
                                "depth": 0,
                                "name": "Executed Gas",
                                "value": 30183
                            }
                        ],
                        "depth": -1,
                        "name": "Actual Gas Used",
                        "value": 51779
                    },
                    {
                        "children": [],
                        "depth": -1,
                        "name": "Refunded Gas",
                        "value": 0
                    }
                ],
                "depth": -2,
                "name": "Total Gas",
                "value": 51779
            }
        ],
        "isConfirmed": true,
        "mainTrace": [
            {
                "children": [
                    {
                        "children": [
                            {
                                "children": [],
                                "depth": 1,
                                "id": 1,
                                "order": 1
                            }
                        ],
                        "depth": 0,
                        "id": 0,
                        "order": 0
                    }
                ],
                "depth": -1,
                "id": -1,
                "order": -1
            }
        ],
        "mainTraceNodeCount": 2,
        "parentIdMap": {
            "0": -1,
            "1": 0
        },
        "tidyTrace": [
            {
                "children": [
                    {
                        "children": [
                            {
                                "children": [],
                                "depth": 1,
                                "id": 1,
                                "order": 1
                            }
                        ],
                        "depth": 0,
                        "id": 0,
                        "order": 0
                    }
                ],
                "depth": -1,
                "id": -1,
                "order": -1
            }
        ],
        "tidyTraceNodeCount": 2
    },
    "state_change": {
        "stateChanges": [
            {
                "address": "0x57b9d10157f66d8c00a815b5e289a152dedbe7ed",
                "erc": "ERC-20",
                "slots": [
                    {
                        "current": "0x0000000000000000000000000000000000000000000000000000000000200b20",
                        "key": "0xe03741ae37cb5b1c693d925d54a5e2ea975e4f84d76b7434c8922bfa5eaab4db",
                        "prev": "0x0000000000000000000000000000000000000000000000000000000000000000"
                    },
                    {
                        "current": "0x000000000000000000000000000000000000000000000000000000636c7d0e03",
                        "key": "0xa1305d29bd8b5564425bb078e92cafa500358e4f29472a5373d4ac1dc5a5dac2",
                        "prev": "0x000000000000000000000000000000000000000000000000000000636c9d1923"
                    }
                ],
                "storageVariables": [
                    {
                        "name": "balances",
                        "type": "mapping(address => uint256)",
                        "value": {
                            "pairs": [
                                {
                                    "key": "0x602abc1c0acd75855fb7615df9eaf09bcb4a008f",
                                    "value": {
                                        "current": "427021897219",
                                        "prev": "427023997219",
                                        "typeTag": 1
                                    }
                                },
                                {
                                    "key": "0x84c1351d8dd341e1eb1e629d57c3455b5bec3e10",
                                    "value": {
                                        "current": "2100000",
                                        "prev": "0",
                                        "typeTag": 1
                                    }
                                }
                            ],
                            "typeTag": 4
                        }
                    }
                ]
            }
        ]
    }
}