{
    "balance_change": {
        "balanceChanges": [
            {
                "account": "0xeed87d35c12be4b85447f9dec9edd2271236fe56",
                "assets": [
                    {
                        "address": "0xa2b4c0af19cc16a6cfacce81f192b024d625817d",
                        "amount": "3,179,926,945,496.87255367",
                        "iconUrl": "",
                        "isERC1155": false,
                        "isERC721": false,
                        "sign": false,
                        "value": "37950.808"
                    }
                ]
            },
            {
                "account": "0x6cc8dcbca746a6e4fdefb98e1d0df903b107fd21",
                "assets": [
                    {
                        "address": "0xa2b4c0af19cc16a6cfacce81f192b024d625817d",
                        "amount": "3,179,926,945,496.87255367",
                        "iconUrl": "",
                        "isERC1155": false,
                        "isERC721": false,
                        "sign": true,
                        "value": "37950.808"
                    }
                ]
            }
        ]
    },
    "profile": {
        "basic_info": {
            "baseFee": "",
            "blockNumber": 12431887,
            "callData": "0xa9059cbb0000000000000000000000006cc8dcbca746a6e4fdefb98e1d0df903b107fd210000000000000000000000000000000000000000000000afe6f88703c16bfd5c",
            "debugEnable": true,
            "errorInfo": "",
            "eventCount": 1,
            "feeRecipient": "0xf20b338752976878754518183873602902360704",
            "formatValue": "0",
            "gasLimit": 153900,
            "gasPrice": "105",
            "gasUsed": 111900,
            "intTxnCount": 0,
            "internalRevert": false,
            "internalRevertMessage": "",
            "isContractCreation": false,
            "isFlashloan": false,
            "maxFee": "",
            "nonce": 21,
            "overwritedBlockNumber": -1,
            "priorityFee": "",
            "receiver": "0xa2b4c0af19cc16a6cfacce81f192b024d625817d",
            "revertMessage": "",
            "sender": "0xeed87d35c12be4b85447f9dec9edd2271236fe56",
            "simulationEnable": true,
            "sourceTxnHash": "0xf1da069461c7a933a124ca8e2b15fa7d91246960732b0ff8d212305dfc6fd2eb",
            "status": true,
            "timestamp": "2021-05-14T10:15:09Z",
            "transactionFee": "0.0117495",
            "txnHash": "0xf1da069461c7a933a124ca8e2b15fa7d91246960732b0ff8d212305dfc6fd2eb",
            "txnIndex": 161,
            "type": 0,
            "value": "0"
        },
        "fund_flow": [
            {
                "amount": "3,179,926,945,496.87255367",
                "from": "0xeed87d35c12be4b85447f9dec9edd2271236fe56",
                "id": 1,
                "isERC1155": false,
                "isERC721": false,
                "isReverted": false,
                "order": 1,
                "to": "0x6cc8dcbca746a6e4fdefb98e1d0df903b107fd21",
                "token": "0xa2b4c0af19cc16a6cfacce81f192b024d625817d"
            }
        ],
        "token_infos": [
            {
                "address": "0xc02aaa39b223fe8d0a0e5c4f27ead9083c756cc2",
                "decimals": 18
            },
            {
                "address": "0xeeeeeeeeeeeeeeeeeeeeeeeeeeeeeeeeeeeeeeee",
                "decimals": 18
            },
            {
                "address": "0xa2b4c0af19cc16a6cfacce81f192b024d625817d",
                "decimals": 9
            }
        ]
    },
    "address_label": {
        "labels": [
            {
                "address": "0x0000000000000000000000000000000000000003",
                "label": "Precompiled"
            },
            {
                "address": "0x0000000000000000000000000000000000000004",
                "label": "Precompiled"
            },
            {
                "address": "0xeeeeeeeeeeeeeeeeeeeeeeeeeeeeeeeeeeeeeeee",
                "label": "Ether"
            },
            {
                "address": "0x6cc8dcbca746a6e4fdefb98e1d0df903b107fd21",
                "label": "Bitrue"
            },
            {
                "address": "0xa2b4c0af19cc16a6cfacce81f192b024d625817d",
                "label": "Kishu Inu: KISHU Token"
            },
            {
                "address": "0xf20b338752976878754518183873602902360704",
                "label": "Proxy"
            },
            {
                "address": "0x0000000000000000000000000000000000000001",
                "label": "Precompiled"
            },
            {
                "address": "0x0000000000000000000000000000000000000002",
                "label": "Precompiled"
            }
        ]
    },
    "trace": {
        "accountLabels": null,
        "dataMap": {
            "-1": {
                "invocation": {
                    "address": "0xeed87d35c12be4b85447f9dec9edd2271236fe56",
                    "callData": "",
                    "decodedMethod": null,
                    "errorInfo": "",
                    "fromAddress": "",
                    "gasUsed": 0,
                    "id": -1,
                    "methodDecoded": false,
                    "operation": "",
                    "output": "",
                    "revert": false,
                    "revertMessage": "",
                    "selector": "",
                    "status": false,
                    "value": ""
                },
                "nodeType": 0
            },
            "0": {
                "invocation": {
                    "address": "0xa2b4c0af19cc16a6cfacce81f192b024d625817d",
                    "callData": "0x0000000000000000000000006cc8dcbca746a6e4fdefb98e1d0df903b107fd210000000000000000000000000000000000000000000000afe6f88703c16bfd5c",
                    "decodedMethod": {
                        "callParams": [
                            {
                                "name": "recipient",
                                "type": "address",
                                "value": "0x6cc8dcbca746a6e4fdefb98e1d0df903b107fd21"
                            },
                            {
                                "decimalAvailable": true,
                                "name": "amount",
                                "type": "uint256",
                                "value": "3,244,823,413,772,318,932,316"
                            }
                        ],
                        "constructorArguments": "",
                        "name": "transfer",
                        "returnParams": [
                            {
                                "name": "",
                                "type": "bool",
                                "value": true
                            }
                        ],
                        "signature": "transfer(address,uint256)"
                    },
                    "errorInfo": "",
                    "fromAddress": "0xeed87d35c12be4b85447f9dec9edd2271236fe56",
                    "gasUsed": 111900,
                    "id": 0,
                    "methodDecoded": true,
                    "operation": "CALL",
                    "output": "0x0000000000000000000000000000000000000000000000000000000000000001",
                    "revert": false,
                    "revertMessage": "",
                    "selector": "0xa9059cbb",
                    "status": true,
                    "value": "0"
                },
                "nodeType": 0
            },
            "1": {
                "event": {
                    "contract": "0xa2b4c0af19cc16a6cfacce81f192b024d625817d",
                    "decodedLog": {
                        "name": "Transfer",
                        "params": [
                            {
                                "name": "from",
                                "type": "address",
                                "value": "0xeed87d35c12be4b85447f9dec9edd2271236fe56"
                            },
                            {
                                "name": "to",
                                "type": "address",
                                "value": "0x6cc8dcbca746a6e4fdefb98e1d0df903b107fd21"
                            },
                            {
                                "decimalAvailable": true,
                                "name": "value",
                                "type": "uint256",
                                "value": "3,179,926,945,496,872,553,670"
                            }
                        ],
                        "signature": "Transfer(address,address,uint256)"
                    },
                    "id": 1,
                    "logData": "0x0000000000000000000000000000000000000000000000ac6259f4f452088cc6",
                    "logDecoded": true,
                    "operation": "EVENT",
                    "revert": false,
                    "status": true,
                    "topics": [
                        "0xddf252ad1be2c89b69c2b068fc378daa952ba7f163c4a11628f55a4df523b3ef",
                        "0x000000000000000000000000eed87d35c12be4b85447f9dec9edd2271236fe56",
                        "0x0000000000000000000000006cc8dcbca746a6e4fdefb98e1d0df903b107fd21"
                    ]
                },
                "nodeType": 1
            }
        },
        "gasFlame": [
            {
                "children": [
                    {
                        "children": [
                            {
                                "children": [],
                                "depth": 0,
                                "name": "Initial Gas",
                                "value": 21668
                            },
                            {
                                "children": [],
                                "depth": 0,
                                "name": "Executed Gas",
                                "value": 90232
                            }
                        ],
                        "depth": -1,
                        "name": "Actual Gas Used",
                        "value": 111900
                    },
                    {
                        "children": [],
                        "depth": -1,
                        "name": "Refunded Gas",
                        "value": 0
                    }
                ],
                "depth": -2,
                "name": "Total Gas",
                "value": 111900
            }
        ],
        "isConfirmed": true,
        "mainTrace": [
            {
                "children": [
                    {
                        "children": [
                            {
                                "children": [],
                                "depth": 1,
                                "id": 1,
                                "order": 1
                            }
                        ],
                        "depth": 0,
                        "id": 0,
                        "order": 0
                    }
                ],
                "depth": -1,
                "id": -1,
                "order": -1
            }
        ],
        "mainTraceNodeCount": 2,
        "parentIdMap": {
            "0": -1,
            "1": 0
        },
        "tidyTrace": [
            {
                "children": [
                    {
                        "children": [
                            {
                                "children": [],
                                "depth": 1,
                                "id": 1,
                                "order": 1
                            }
                        ],
                        "depth": 0,
                        "id": 0,
                        "order": 0
                    }
                ],
                "depth": -1,
                "id": -1,
                "order": -1
            }
        ],
        "tidyTraceNodeCount": 2
    },
    "state_change": {
        "stateChanges": [
            {
                "address": "0xa2b4c0af19cc16a6cfacce81f192b024d625817d",
                "erc": "ERC-20",
                "slots": [
                    {
                        "current": "0x0000000c50e757c544424aafeee9618933ca0f0a6708e14970c17445e0e50c13",
                        "key": "0x35102e5416ef62c02f1600330048629324a2650bbd73cd4ae8d0b22ac8fc749e",
                        "prev": "0x0001b18147bba1b5194ce0e713e7a6cbcef408ebe1d68076550baf047033389f"
                    },
                    {
                        "current": "0x00d50bc339c985a17bf54d7bd0ab7c4c75ce01e497d2f854ceee4a3e80c4ba67",
                        "key": "0xbc244d56219e6a2bf2726bbe3fc38fb8d52bd7704e40b2ec2cc5f5d50ffe7139",
                        "prev": "0x00d362f98f93143672db9086259a1017b1b9c35232f88e202ee08e08f4409429"
                    },
                    {
                        "current": "0xcc05a0222cee02da51c3f32c20503047fae2c50f0f96d1f5dfff74782657e04a",
                        "key": "0x0000000000000000000000000000000000000000000000000000000000000006",
                        "prev": "0xcc05a8cd798bdb5f1db4cc6d9a3d0955d1f8805e258a06ee243bf3012921e698"
                    },
                    {
                        "current": "0x00000000000000000000000000000000000000000012c2c0d9c15a9de94e8d1a",
                        "key": "0x0000000000000000000000000000000000000000000000000000000000000007",
                        "prev": "0x00000000000000000000000000000000000000000012c2bd5522c88e79eb1c84"
                    }
                ],
                "storageVariables": [
                    {
                        "name": "_rOwned",
                        "type": "mapping(address => uint256)",
                        "value": {
                            "pairs": [
                                {
                                    "key": "0x6cc8dcbca746a6e4fdefb98e1d0df903b107fd21",
                                    "value": {
                                        "current": "376419607282912618303526750872382488446346224875614189638205308459861457511",
                                        "prev": "373487829957107170928466133462990261101242745543934910343989536089222190121",
                                        "typeTag": 1
                                    }
                                },
                                {
                                    "key": "0xeed87d35c12be4b85447f9dec9edd2271236fe56",
                                    "value": {
                                        "current": "332039512269350149160484062728208533464836373620566415621251106409491",
                                        "prev": "2991941555640276875720918015692131487620874856573170579956536476051912863",
                                        "typeTag": 1
                                    }
                                }
                            ],
                            "typeTag": 4
                        }
                    },
                    {
                        "name": "_rTotal",
                        "type": "uint256",
                        "value": {
                            "current": "92281760547095561262000065044362838004891058512427352484797881981252763377738",
                            "prev": "92281820379285883822150576184485075180825042443115872755517207124107069613720",
                            "typeTag": 1
                        }
                    },
                    {
                        "name": "_tFeeTotal",
                        "type": "uint256",
                        "value": {
                            "current": "22680361316524399556201754",
                            "prev": "22680296420056124109823108",
                            "typeTag": 1
                        }
                    }
                ]
            }
        ]
    }
}