{
    "balance_change": {
        "balanceChanges": [
            {
                "account": "0x391cc46df0a0637f690ded0204464c6c390dd599",
                "assets": [
                    {
                        "address": "0xeeeeeeeeeeeeeeeeeeeeeeeeeeeeeeeeeeeeeeee",
                        "amount": "0.088",
                        "iconUrl": "https://assets.blocksec.com/image/1663669189317-3.png",
                        "isERC1155": false,
                        "isERC721": false,
                        "sign": false,
                        "value": "149.50447802399999274"
                    },
                    {
                        "address": "0x24a2ddfbf5cf3f2e6204c979577fc14c64da3fac",
                        "amount": "1",
                        "iconUrl": "",
                        "isERC1155": false,
                        "isERC721": true,
                        "sign": true,
                        "tokenID": "59",
                        "value": ""
                    }
                ]
            },
            {
                "account": "0x24a2ddfbf5cf3f2e6204c979577fc14c64da3fac",
                "assets": [
                    {
                        "address": "0xeeeeeeeeeeeeeeeeeeeeeeeeeeeeeeeeeeeeeeee",
                        "amount": "0.088",
                        "iconUrl": "https://assets.blocksec.com/image/1663669189317-3.png",
                        "isERC1155": false,
                        "isERC721": false,
                        "sign": true,
                        "value": "149.50447802399999274"
                    }
                ]
            },
            {
                "account": "0x0000000000000000000000000000000000000000",
                "assets": [
                    {
                        "address": "0x24a2ddfbf5cf3f2e6204c979577fc14c64da3fac",
                        "amount": "1",
                        "iconUrl": "",
                        "isERC1155": false,
                        "isERC721": true,
                        "sign": false,
                        "tokenID": "59",
                        "value": ""
                    }
                ]
            }
        ]
    },
    "profile": {
        "basic_info": {
            "baseFee": "10.06891873",
            "blockNumber": 15334045,
            "callData": "0xb77a147b0000000000000000000000000000000000000000000000000000000000000020000000000000000000000000000000000000000000000000000000000000000b3a4f6ee2f88f42251af7f20d75d9b12f84a71d9270b864dfc106d0d12eed71ca5a2f4ea10c7019c44783cd39c2ecda157c3b543b21a1137809636216247fd8a659cb044f91489d4786969c6dfd81c1509a1db015b6799b58a3ec3c691692360901a258543096297e18ab969426e46333f302abf1b0889ee64fe5606e3ea2a0bc71894b2c8fd385a42d99b8070ed455a3c06977edac3495d17bc52c87c48d631de151c0e8f9183b9aaf6964bc7c6060d5c4c507c6f41204c9c2ad22032db3584bb59c16522e56cfbad039799e05c0e09b984c4d840eedc5ebd8e819c2afd84e770260902dcdd17592867b77cb7bed8abd9631c00d1261991352713b82a785db93ff98a1e787ba87c42375b1c74c2039c6f4ca6eddae59866acaa0219b29b49c363fca8ed0df25f3907a74ddd46481b4ef8a45ba6a05ea65a83e2133e17909f36a4cd3481905a462f8be639b73375bec28d4a72bd7684ec643c5abd0d9f8519be1",
            "debugEnable": true,
            "errorInfo": "",
            "eventCount": 1,
            "feeRecipient": "0x2a20380dca5bc24d052acfbf79ba23e988ad0050",
            "formatValue": "0.088",
            "gasLimit": 195000,
            "gasPrice": "11.56891873",
            "gasUsed": 115037,
            "intTxnCount": 0,
            "internalRevert": false,
            "internalRevertMessage": "",
            "isContractCreation": false,
            "isFlashloan": false,
            "maxFee": "14.09412821",
            "nonce": 37,
            "overwritedBlockNumber": -1,
            "priorityFee": "1.5",
            "receiver": "0x24a2ddfbf5cf3f2e6204c979577fc14c64da3fac",
            "revertMessage": "",
            "sender": "0x391cc46df0a0637f690ded0204464c6c390dd599",
            "simulationEnable": true,
            "sourceTxnHash": "0xf1c7d9c10f4b56a0a9f0c8b32702fa4eb9c87c315f6f80ab166476a64836fe7a",
            "status": true,
            "timestamp": "2022-08-13T14:50:39Z",
            "transactionFee": "0.00133085370394301",
            "txnHash": "0xf1c7d9c10f4b56a0a9f0c8b32702fa4eb9c87c315f6f80ab166476a64836fe7a",
            "txnIndex": 137,
            "type": 2,
            "value": "88000000000000000"
        },
        "fund_flow": [
            {
                "amount": "0.088",
                "from": "0x391cc46df0a0637f690ded0204464c6c390dd599",
                "id": 1,
                "isERC1155": false,
                "isERC721": false,
                "isReverted": false,
                "order": 1,
                "to": "0x24a2ddfbf5cf3f2e6204c979577fc14c64da3fac",
                "token": "0xeeeeeeeeeeeeeeeeeeeeeeeeeeeeeeeeeeeeeeee"
            },
            {
                "amount": "1",
                "from": "0x0000000000000000000000000000000000000000",
                "id": 2,
                "isERC1155": false,
                "isERC721": true,
                "isReverted": false,
                "order": 2,
                "to": "0x391cc46df0a0637f690ded0204464c6c390dd599",
                "token": "0x24a2ddfbf5cf3f2e6204c979577fc14c64da3fac",
                "tokenID": "59"
            }
        ],
        "token_infos": [
            {
                "address": "0xc02aaa39b223fe8d0a0e5c4f27ead9083c756cc2",
                "decimals": 18
            },
            {
                "address": "0xeeeeeeeeeeeeeeeeeeeeeeeeeeeeeeeeeeeeeeee",
                "decimals": 18
            }
        ]
    },
    "address_label": {
        "labels": [
            {
                "address": "0x0000000000000000000000000000000000000004",
                "label": "Precompiled"
            },
            {
                "address": "0xeeeeeeeeeeeeeeeeeeeeeeeeeeeeeeeeeeeeeeee",
                "label": "Ether"
            },
            {
                "address": "0x24a2ddfbf5cf3f2e6204c979577fc14c64da3fac",
                "label": "DinomonksClaimPass"
            },
            {
                "address": "0x0000000000000000000000000000000000000001",
                "label": "Precompiled"
            },
            {
                "address": "0x0000000000000000000000000000000000000002",
                "label": "Precompiled"
            },
            {
                "address": "0x0000000000000000000000000000000000000003",
                "label": "Precompiled"
            }
        ]
    },
    "trace": {
        "accountLabels": null,
        "dataMap": {
            "-1": {
                "invocation": {
                    "address": "0x391cc46df0a0637f690ded0204464c6c390dd599",
                    "callData": "",
                    "decodedMethod": null,
                    "errorInfo": "",
                    "fromAddress": "",
                    "gasUsed": 0,
                    "id": -1,
                    "methodDecoded": false,
                    "operation": "",
                    "output": "",
                    "revert": false,
                    "revertMessage": "",
                    "selector": "",
                    "status": false,
                    "value": ""
                },
                "nodeType": 0
            },
            "0": {
                "invocation": {
                    "address": "0x24a2ddfbf5cf3f2e6204c979577fc14c64da3fac",
                    "callData": "0x0000000000000000000000000000000000000000000000000000000000000020000000000000000000000000000000000000000000000000000000000000000b3a4f6ee2f88f42251af7f20d75d9b12f84a71d9270b864dfc106d0d12eed71ca5a2f4ea10c7019c44783cd39c2ecda157c3b543b21a1137809636216247fd8a659cb044f91489d4786969c6dfd81c1509a1db015b6799b58a3ec3c691692360901a258543096297e18ab969426e46333f302abf1b0889ee64fe5606e3ea2a0bc71894b2c8fd385a42d99b8070ed455a3c06977edac3495d17bc52c87c48d631de151c0e8f9183b9aaf6964bc7c6060d5c4c507c6f41204c9c2ad22032db3584bb59c16522e56cfbad039799e05c0e09b984c4d840eedc5ebd8e819c2afd84e770260902dcdd17592867b77cb7bed8abd9631c00d1261991352713b82a785db93ff98a1e787ba87c42375b1c74c2039c6f4ca6eddae59866acaa0219b29b49c363fca8ed0df25f3907a74ddd46481b4ef8a45ba6a05ea65a83e2133e17909f36a4cd3481905a462f8be639b73375bec28d4a72bd7684ec643c5abd0d9f8519be1",
                    "decodedMethod": {
                        "callParams": [
                            {
                                "name": "_merkleProof",
                                "type": "bytes32[]",
                                "value": [
                                    "0x3a4f6ee2f88f42251af7f20d75d9b12f84a71d9270b864dfc106d0d12eed71ca",
                                    "0x5a2f4ea10c7019c44783cd39c2ecda157c3b543b21a1137809636216247fd8a6",
                                    "0x59cb044f91489d4786969c6dfd81c1509a1db015b6799b58a3ec3c6916923609",
                                    "0x01a258543096297e18ab969426e46333f302abf1b0889ee64fe5606e3ea2a0bc",
                                    "0x71894b2c8fd385a42d99b8070ed455a3c06977edac3495d17bc52c87c48d631d",
                                    "0xe151c0e8f9183b9aaf6964bc7c6060d5c4c507c6f41204c9c2ad22032db3584b",
                                    "0xb59c16522e56cfbad039799e05c0e09b984c4d840eedc5ebd8e819c2afd84e77",
                                    "0x0260902dcdd17592867b77cb7bed8abd9631c00d1261991352713b82a785db93",
                                    "0xff98a1e787ba87c42375b1c74c2039c6f4ca6eddae59866acaa0219b29b49c36",
                                    "0x3fca8ed0df25f3907a74ddd46481b4ef8a45ba6a05ea65a83e2133e17909f36a",
                                    "0x4cd3481905a462f8be639b73375bec28d4a72bd7684ec643c5abd0d9f8519be1"
                                ]
                            }
                        ],
                        "constructorArguments": "",
                        "name": "mint",
                        "returnParams": [],
                        "signature": "mint(bytes32[])"
                    },
                    "errorInfo": "",
                    "fromAddress": "0x391cc46df0a0637f690ded0204464c6c390dd599",
                    "gasUsed": 115037,
                    "id": 0,
                    "methodDecoded": true,
                    "operation": "CALL",
                    "output": "",
                    "revert": false,
                    "revertMessage": "",
                    "selector": "0xb77a147b",
                    "status": true,
                    "value": "0.088"
                },
                "nodeType": 0
            },
            "1": {
                "event": {
                    "contract": "0x24a2ddfbf5cf3f2e6204c979577fc14c64da3fac",
                    "decodedLog": {
                        "name": "Transfer",
                        "params": [
                            {
                                "name": "from",
                                "type": "address",
                                "value": "0x0000000000000000000000000000000000000000"
                            },
                            {
                                "name": "to",
                                "type": "address",
                                "value": "0x391cc46df0a0637f690ded0204464c6c390dd599"
                            },
                            {
                                "decimalAvailable": true,
                                "name": "tokenId",
                                "type": "uint256",
                                "value": "59"
                            }
                        ],
                        "signature": "Transfer(address,address,uint256)"
                    },
                    "id": 1,
                    "logData": "0x",
                    "logDecoded": true,
                    "operation": "EVENT",
                    "revert": false,
                    "status": true,
                    "topics": [
                        "0xddf252ad1be2c89b69c2b068fc378daa952ba7f163c4a11628f55a4df523b3ef",
                        "0x0000000000000000000000000000000000000000000000000000000000000000",
                        "0x000000000000000000000000391cc46df0a0637f690ded0204464c6c390dd599",
                        "0x000000000000000000000000000000000000000000000000000000000000003b"
                    ]
                },
                "nodeType": 1
            }
        },
        "gasFlame": [
            {
                "children": [
                    {
                        "children": [
                            {
                                "children": [],
                                "depth": 0,
                                "name": "Initial Gas",
                                "value": 26976
                            },
                            {
                                "children": [],
                                "depth": 0,
                                "name": "Executed Gas",
                                "value": 90861
                            }
                        ],
                        "depth": -1,
                        "name": "Actual Gas Used",
                        "value": 115037
                    },
                    {
                        "children": [],
                        "depth": -1,
                        "name": "Refunded Gas",
                        "value": 2800
                    }
                ],
                "depth": -2,
                "name": "Total Gas",
                "value": 117837
            }
        ],
        "isConfirmed": true,
        "mainTrace": [
            {
                "children": [
                    {
                        "children": [
                            {
                                "children": [],
                                "depth": 1,
                                "id": 1,
                                "order": 1
                            }
                        ],
                        "depth": 0,
                        "id": 0,
                        "order": 0
                    }
                ],
                "depth": -1,
                "id": -1,
                "order": -1
            }
        ],
        "mainTraceNodeCount": 2,
        "parentIdMap": {
            "0": -1,
            "1": 0
        },
        "tidyTrace": [
            {
                "children": [
                    {
                        "children": [
                            {
                                "children": [],
                                "depth": 1,
                                "id": 1,
                                "order": 1
                            }
                        ],
                        "depth": 0,
                        "id": 0,
                        "order": 0
                    }
                ],
                "depth": -1,
                "id": -1,
                "order": -1
            }
        ],
        "tidyTraceNodeCount": 2
    },
    "state_change": {
        "stateChanges": [
            {
                "address": "0x24a2ddfbf5cf3f2e6204c979577fc14c64da3fac",
                "erc": "ERC-721",
                "slots": [
                    {
                        "current": "0x0000000000000000000000000000000000000000000000000000000000000001",
                        "key": "0xb92281c7697853ef9165493445eb59f7f8bfb50d058d1ba551c91a9ac60ccecf",
                        "prev": "0x0000000000000000000000000000000000000000000000000000000000000000"
                    },
                    {
                        "current": "0x000000000000000000000000391cc46df0a0637f690ded0204464c6c390dd599",
                        "key": "0xa325aa408b8d79ac3cad595647b5c792e1aaac5507b7d2a601e7daa894133a4f",
                        "prev": "0x0000000000000000000000000000000000000000000000000000000000000000"
                    },
                    {
                        "current": "0x000000000000000000000000000000000000000000000000000000000000003b",
                        "key": "0x000000000000000000000000000000000000000000000000000000000000000e",
                        "prev": "0x000000000000000000000000000000000000000000000000000000000000003a"
                    },
                    {
                        "current": "0x0000000000000000000000000000000000000000000000000000000000000001",
                        "key": "0x51beaa110dbb7ddd2573a442ef4f10a0cda9deda755e9d1d56d560c8c25dc02b",
                        "prev": "0x0000000000000000000000000000000000000000000000000000000000000000"
                    }
                ],
                "storageVariables": [
                    {
                        "name": "hasMinted",
                        "type": "mapping(address => bool)",
                        "value": {
                            "pairs": [
                                {
                                    "key": "0x391cc46df0a0637f690ded0204464c6c390dd599",
                                    "value": {
                                        "current": "true",
                                        "prev": "false",
                                        "typeTag": 1
                                    }
                                }
                            ],
                            "typeTag": 4
                        }
                    },
                    {
                        "name": "_balances",
                        "type": "mapping(address => uint256)",
                        "value": {
                            "pairs": [
                                {
                                    "key": "0x391cc46df0a0637f690ded0204464c6c390dd599",
                                    "value": {
                                        "current": "1",
                                        "prev": "0",
                                        "typeTag": 1
                                    }
                                }
                            ],
                            "typeTag": 4
                        }
                    },
                    {
                        "name": "_owners",
                        "type": "mapping(uint256 => address)",
                        "value": {
                            "pairs": [
                                {
                                    "key": "59",
                                    "value": {
                                        "current": "0x391cc46df0a0637f690ded0204464c6c390dd599",
                                        "prev": "0x0000000000000000000000000000000000000000",
                                        "typeTag": 1
                                    }
                                }
                            ],
                            "typeTag": 4
                        }
                    },
                    {
                        "name": "totalMinted",
                        "type": "struct Counters.Counter",
                        "value": {
                            "fields": [
                                {
                                    "name": "_value",
                                    "type": "uint256",
                                    "value": {
                                        "current": "59",
                                        "prev": "58",
                                        "typeTag": 1
                                    }
                                }
                            ],
                            "typeTag": 3
                        }
                    }
                ]
            }
        ]
    }
}