{
    "balance_change": {
        "balanceChanges": []
    },
    "profile": {
        "basic_info": {
            "baseFee": "",
            "blockNumber": 12489078,
            "callData": "0x095ea7b3000000000000000000000000e33b15629739770a27c4726a22be61128aa1c78100000000000000000000000000000000000000000000029e2e17e67407ea4000",
            "debugEnable": true,
            "errorInfo": "",
            "eventCount": 1,
            "feeRecipient": "0x5a0b54d5dc17e0aadc383d2db43b0a0d3e029c4c",
            "formatValue": "0",
            "gasLimit": 46405,
            "gasPrice": "30.01",
            "gasUsed": 46405,
            "intTxnCount": 0,
            "internalRevert": false,
            "internalRevertMessage": "",
            "isContractCreation": false,
            "isFlashloan": false,
            "maxFee": "",
            "nonce": 406,
            "overwritedBlockNumber": -1,
            "priorityFee": "",
            "receiver": "0x0f51bb10119727a7e5ea3538074fb341f56b09ad",
            "revertMessage": "",
            "sender": "0xeffe60ec0bd219760eb40e8b810c54dd2eddc351",
            "simulationEnable": true,
            "sourceTxnHash": "0xf1ce69456649786c0bb78572c1cba926d374d96e87ce1b7ef5c039e13f17c4c6",
            "status": true,
            "timestamp": "2021-05-23T06:49:25Z",
            "transactionFee": "0.00139261405",
            "txnHash": "0xf1ce69456649786c0bb78572c1cba926d374d96e87ce1b7ef5c039e13f17c4c6",
            "txnIndex": 57,
            "type": 0,
            "value": "0"
        },
        "fund_flow": [],
        "token_infos": [
            {
                "address": "0xeeeeeeeeeeeeeeeeeeeeeeeeeeeeeeeeeeeeeeee",
                "decimals": 18
            },
            {
                "address": "0xc02aaa39b223fe8d0a0e5c4f27ead9083c756cc2",
                "decimals": 18
            }
        ]
    },
    "address_label": {
        "labels": [
            {
                "address": "0xeffe60ec0bd219760eb40e8b810c54dd2eddc351",
                "label": "Sybil Delegate"
            },
            {
                "address": "0x0f51bb10119727a7e5ea3538074fb341f56b09ad",
                "label": "DAO Maker: DAO Token"
            },
            {
                "address": "0x0000000000000000000000000000000000000001",
                "label": "Precompiled"
            },
            {
                "address": "0x0000000000000000000000000000000000000002",
                "label": "Precompiled"
            },
            {
                "address": "0x0000000000000000000000000000000000000003",
                "label": "Precompiled"
            },
            {
                "address": "0x0000000000000000000000000000000000000004",
                "label": "Precompiled"
            },
            {
                "address": "0xeeeeeeeeeeeeeeeeeeeeeeeeeeeeeeeeeeeeeeee",
                "label": "Ether"
            }
        ]
    },
    "trace": {
        "accountLabels": null,
        "dataMap": {
            "-1": {
                "invocation": {
                    "address": "0xeffe60ec0bd219760eb40e8b810c54dd2eddc351",
                    "callData": "",
                    "decodedMethod": null,
                    "errorInfo": "",
                    "fromAddress": "",
                    "gasUsed": 0,
                    "id": -1,
                    "methodDecoded": false,
                    "operation": "",
                    "output": "",
                    "revert": false,
                    "revertMessage": "",
                    "selector": "",
                    "status": false,
                    "value": ""
                },
                "nodeType": 0
            },
            "0": {
                "invocation": {
                    "address": "0x0f51bb10119727a7e5ea3538074fb341f56b09ad",
                    "callData": "0x000000000000000000000000e33b15629739770a27c4726a22be61128aa1c78100000000000000000000000000000000000000000000029e2e17e67407ea4000",
                    "decodedMethod": {
                        "callParams": [
                            {
                                "name": "spender",
                                "type": "address",
                                "value": "0xe33b15629739770a27c4726a22be61128aa1c781"
                            },
                            {
                                "decimalAvailable": true,
                                "name": "value",
                                "type": "uint256",
                                "value": "12,362,639,906,021,632,000,000"
                            }
                        ],
                        "constructorArguments": "",
                        "name": "approve",
                        "returnParams": [
                            {
                                "name": "",
                                "type": "bool",
                                "value": true
                            }
                        ],
                        "signature": "approve(address,uint256)"
                    },
                    "errorInfo": "",
                    "fromAddress": "0xeffe60ec0bd219760eb40e8b810c54dd2eddc351",
                    "gasUsed": 46405,
                    "id": 0,
                    "methodDecoded": true,
                    "operation": "CALL",
                    "output": "0x0000000000000000000000000000000000000000000000000000000000000001",
                    "revert": false,
                    "revertMessage": "",
                    "selector": "0x095ea7b3",
                    "status": true,
                    "value": "0"
                },
                "nodeType": 0
            },
            "1": {
                "event": {
                    "contract": "0x0f51bb10119727a7e5ea3538074fb341f56b09ad",
                    "decodedLog": {
                        "name": "Approval",
                        "params": [
                            {
                                "name": "owner",
                                "type": "address",
                                "value": "0xeffe60ec0bd219760eb40e8b810c54dd2eddc351"
                            },
                            {
                                "name": "spender",
                                "type": "address",
                                "value": "0xe33b15629739770a27c4726a22be61128aa1c781"
                            },
                            {
                                "decimalAvailable": true,
                                "name": "value",
                                "type": "uint256",
                                "value": "12,362,639,906,021,632,000,000"
                            }
                        ],
                        "signature": "Approval(address,address,uint256)"
                    },
                    "id": 1,
                    "logData": "0x00000000000000000000000000000000000000000000029e2e17e67407ea4000",
                    "logDecoded": true,
                    "operation": "EVENT",
                    "revert": false,
                    "status": true,
                    "topics": [
                        "0x8c5be1e5ebec7d5bd14f71427d1e84f3dd0314c0f7b2291e5b200ac8c7c3b925",
                        "0x000000000000000000000000effe60ec0bd219760eb40e8b810c54dd2eddc351",
                        "0x000000000000000000000000e33b15629739770a27c4726a22be61128aa1c781"
                    ]
                },
                "nodeType": 1
            }
        },
        "gasFlame": [
            {
                "children": [
                    {
                        "children": [
                            {
                                "children": [],
                                "depth": 0,
                                "name": "Initial Gas",
                                "value": 21668
                            },
                            {
                                "children": [],
                                "depth": 0,
                                "name": "Executed Gas",
                                "value": 24737
                            }
                        ],
                        "depth": -1,
                        "name": "Actual Gas Used",
                        "value": 46405
                    },
                    {
                        "children": [],
                        "depth": -1,
                        "name": "Refunded Gas",
                        "value": 0
                    }
                ],
                "depth": -2,
                "name": "Total Gas",
                "value": 46405
            }
        ],
        "isConfirmed": true,
        "mainTrace": [
            {
                "children": [
                    {
                        "children": [
                            {
                                "children": [],
                                "depth": 1,
                                "id": 1,
                                "order": 1
                            }
                        ],
                        "depth": 0,
                        "id": 0,
                        "order": 0
                    }
                ],
                "depth": -1,
                "id": -1,
                "order": -1
            }
        ],
        "mainTraceNodeCount": 2,
        "parentIdMap": {
            "0": -1,
            "1": 0
        },
        "tidyTrace": [
            {
                "children": [
                    {
                        "children": [
                            {
                                "children": [],
                                "depth": 1,
                                "id": 1,
                                "order": 1
                            }
                        ],
                        "depth": 0,
                        "id": 0,
                        "order": 0
                    }
                ],
                "depth": -1,
                "id": -1,
                "order": -1
            }
        ],
        "tidyTraceNodeCount": 2
    },
    "state_change": {
        "stateChanges": [
            {
                "address": "0x0f51bb10119727a7e5ea3538074fb341f56b09ad",
                "erc": "ERC-20",
                "slots": [
                    {
                        "current": "0x00000000000000000000000000000000000000000000029e2e17e67407ea4000",
                        "key": "0xa52a35e28115d083cebcc3ba40b94d9b8d5bbd50538a0ae19ba9872514f700ed",
                        "prev": "0x0000000000000000000000000000000000000000000000000000000000000000"
                    }
                ],
                "storageVariables": [
                    {
                        "name": "_allowances",
                        "type": "mapping(address => mapping(address => uint256))",
                        "value": {
                            "pairs": [
                                {
                                    "key": "0xeffe60ec0bd219760eb40e8b810c54dd2eddc351",
                                    "value": {
                                        "pairs": [
                                            {
                                                "key": "0xe33b15629739770a27c4726a22be61128aa1c781",
                                                "value": {
                                                    "current": "12362639906021632000000",
                                                    "prev": "0",
                                                    "typeTag": 1
                                                }
                                            }
                                        ],
                                        "typeTag": 4
                                    }
                                }
                            ],
                            "typeTag": 4
                        }
                    }
                ]
            }
        ]
    }
}