{
    "balance_change": {
        "balanceChanges": [
            {
                "account": "0x06e765a9d77260e1721fb7323161770ac1b0a5f4",
                "assets": [
                    {
                        "address": "0xeeeeeeeeeeeeeeeeeeeeeeeeeeeeeeeeeeeeeeee",
                        "amount": "0.025",
                        "iconUrl": "https://assets.blocksec.com/image/1663669189317-3.png",
                        "isERC1155": false,
                        "isERC721": false,
                        "sign": false,
                        "value": ""
                    }
                ]
            },
            {
                "account": "0xb3775fb83f7d12a36e0475abdd1fca35c091efbe",
                "assets": [
                    {
                        "address": "0xeeeeeeeeeeeeeeeeeeeeeeeeeeeeeeeeeeeeeeee",
                        "amount": "0.025",
                        "iconUrl": "https://assets.blocksec.com/image/1663669189317-3.png",
                        "isERC1155": false,
                        "isERC721": false,
                        "sign": true,
                        "value": ""
                    }
                ]
            }
        ]
    },
    "profile": {
        "basic_info": {
            "baseFee": "",
            "blockNumber": 5473649,
            "callData": "0xf088d5470000000000000000000000000e7d35eaf8a2745b08992537bb5d095842cc59c8",
            "debugEnable": true,
            "errorInfo": "",
            "eventCount": 1,
            "feeRecipient": "0x829bd824b016326a401d083b33d092293333a830",
            "formatValue": "0.025",
            "gasLimit": 105870,
            "gasPrice": "1.1",
            "gasUsed": 70580,
            "intTxnCount": 0,
            "internalRevert": false,
            "internalRevertMessage": "",
            "isContractCreation": false,
            "isFlashloan": false,
            "maxFee": "",
            "nonce": 30,
            "overwritedBlockNumber": -1,
            "priorityFee": "",
            "receiver": "0xb3775fb83f7d12a36e0475abdd1fca35c091efbe",
            "revertMessage": "",
            "sender": "0x06e765a9d77260e1721fb7323161770ac1b0a5f4",
            "simulationEnable": true,
            "sourceTxnHash": "0xf2bae160a747608186aca01558ab44dc6cc393210eb938e5187567745fd9a282",
            "status": true,
            "timestamp": "2018-04-20T10:26:58Z",
            "transactionFee": "0.000077638",
            "txnHash": "0xf2bae160a747608186aca01558ab44dc6cc393210eb938e5187567745fd9a282",
            "txnIndex": 108,
            "type": 0,
            "value": "25000000000000000"
        },
        "fund_flow": [
            {
                "amount": "0.025",
                "from": "0x06e765a9d77260e1721fb7323161770ac1b0a5f4",
                "id": 1,
                "isERC1155": false,
                "isERC721": false,
                "isReverted": false,
                "order": 1,
                "to": "0xb3775fb83f7d12a36e0475abdd1fca35c091efbe",
                "token": "0xeeeeeeeeeeeeeeeeeeeeeeeeeeeeeeeeeeeeeeee"
            }
        ],
        "token_infos": [
            {
                "address": "0xc02aaa39b223fe8d0a0e5c4f27ead9083c756cc2",
                "decimals": 18
            },
            {
                "address": "0xeeeeeeeeeeeeeeeeeeeeeeeeeeeeeeeeeeeeeeee",
                "decimals": 18
            }
        ]
    },
    "address_label": {
        "labels": [
            {
                "address": "0x0000000000000000000000000000000000000002",
                "label": "Precompiled"
            },
            {
                "address": "0x0000000000000000000000000000000000000003",
                "label": "Precompiled"
            },
            {
                "address": "0x0000000000000000000000000000000000000004",
                "label": "Precompiled"
            },
            {
                "address": "0xeeeeeeeeeeeeeeeeeeeeeeeeeeeeeeeeeeeeeeee",
                "label": "Ether"
            },
            {
                "address": "0xb3775fb83f7d12a36e0475abdd1fca35c091efbe",
                "label": "PowH3D"
            },
            {
                "address": "0x0000000000000000000000000000000000000001",
                "label": "Precompiled"
            }
        ]
    },
    "trace": {
        "accountLabels": null,
        "dataMap": {
            "-1": {
                "invocation": {
                    "address": "0x06e765a9d77260e1721fb7323161770ac1b0a5f4",
                    "callData": "",
                    "decodedMethod": null,
                    "errorInfo": "",
                    "fromAddress": "",
                    "gasUsed": 0,
                    "id": -1,
                    "methodDecoded": false,
                    "operation": "",
                    "output": "",
                    "revert": false,
                    "revertMessage": "",
                    "selector": "",
                    "status": false,
                    "value": ""
                },
                "nodeType": 0
            },
            "0": {
                "invocation": {
                    "address": "0xb3775fb83f7d12a36e0475abdd1fca35c091efbe",
                    "callData": "0x0000000000000000000000000e7d35eaf8a2745b08992537bb5d095842cc59c8",
                    "decodedMethod": {
                        "callParams": [
                            {
                                "name": "_referredBy",
                                "type": "address",
                                "value": "0x0e7d35eaf8a2745b08992537bb5d095842cc59c8"
                            }
                        ],
                        "constructorArguments": "",
                        "name": "buy",
                        "returnParams": [
                            {
                                "name": "",
                                "type": "uint256",
                                "value": "0"
                            }
                        ],
                        "signature": "buy(address)"
                    },
                    "errorInfo": "",
                    "fromAddress": "0x06e765a9d77260e1721fb7323161770ac1b0a5f4",
                    "gasUsed": 70580,
                    "id": 0,
                    "methodDecoded": true,
                    "operation": "CALL",
                    "output": "0x0000000000000000000000000000000000000000000000000000000000000000",
                    "revert": false,
                    "revertMessage": "",
                    "selector": "0xf088d547",
                    "status": true,
                    "value": "0.025"
                },
                "nodeType": 0
            },
            "1": {
                "event": {
                    "contract": "0xb3775fb83f7d12a36e0475abdd1fca35c091efbe",
                    "decodedLog": {
                        "name": "onTokenPurchase",
                        "params": [
                            {
                                "name": "customerAddress",
                                "type": "address",
                                "value": "0x06e765a9d77260e1721fb7323161770ac1b0a5f4"
                            },
                            {
                                "name": "referredBy",
                                "type": "address",
                                "value": "0x0e7d35eaf8a2745b08992537bb5d095842cc59c8"
                            },
                            {
                                "name": "incomingEthereum",
                                "type": "uint256",
                                "value": "25,000,000,000,000,000"
                            },
                            {
                                "name": "tokensMinted",
                                "type": "uint256",
                                "value": "1,725,559,608,052,782,187"
                            }
                        ],
                        "signature": "onTokenPurchase(address,uint256,uint256,address)"
                    },
                    "id": 1,
                    "logData": "0x0000000000000000000000000000000000000000000000000058d15e1762800000000000000000000000000000000000000000000000000017f26b5234bf946b",
                    "logDecoded": true,
                    "operation": "EVENT",
                    "revert": false,
                    "status": true,
                    "topics": [
                        "0x022c0d992e4d873a3748436d960d5140c1f9721cf73f7ca5ec679d3d9f4fe2d5",
                        "0x00000000000000000000000006e765a9d77260e1721fb7323161770ac1b0a5f4",
                        "0x0000000000000000000000000e7d35eaf8a2745b08992537bb5d095842cc59c8"
                    ]
                },
                "nodeType": 1
            }
        },
        "gasFlame": [
            {
                "children": [
                    {
                        "children": [
                            {
                                "children": [],
                                "depth": 0,
                                "name": "Initial Gas",
                                "value": 22680
                            },
                            {
                                "children": [],
                                "depth": 0,
                                "name": "Executed Gas",
                                "value": 47900
                            }
                        ],
                        "depth": -1,
                        "name": "Actual Gas Used",
                        "value": 70580
                    },
                    {
                        "children": [],
                        "depth": -1,
                        "name": "Refunded Gas",
                        "value": 0
                    }
                ],
                "depth": -2,
                "name": "Total Gas",
                "value": 70580
            }
        ],
        "isConfirmed": true,
        "mainTrace": [
            {
                "children": [
                    {
                        "children": [
                            {
                                "children": [],
                                "depth": 1,
                                "id": 1,
                                "order": 1
                            }
                        ],
                        "depth": 0,
                        "id": 0,
                        "order": 0
                    }
                ],
                "depth": -1,
                "id": -1,
                "order": -1
            }
        ],
        "mainTraceNodeCount": 2,
        "parentIdMap": {
            "0": -1,
            "1": 0
        },
        "tidyTrace": [
            {
                "children": [
                    {
                        "children": [
                            {
                                "children": [],
                                "depth": 1,
                                "id": 1,
                                "order": 1
                            }
                        ],
                        "depth": 0,
                        "id": 0,
                        "order": 0
                    }
                ],
                "depth": -1,
                "id": -1,
                "order": -1
            }
        ],
        "tidyTraceNodeCount": 2
    },
    "state_change": {
        "stateChanges": [
            {
                "address": "0xb3775fb83f7d12a36e0475abdd1fca35c091efbe",
                "erc": "",
                "slots": [
                    {
                        "current": "0x0000000000000000000000000000000000000000000000000146bb352995921a",
                        "key": "0x0000000000000000000000000000000000000000000000000000000000000009",
                        "prev": "0x0000000000000000000000000000000000000000000000000146bb2ced7d10f3"
                    },
                    {
                        "current": "0x00000000000000000000000000000000000000000000000226ec760ac77a022f",
                        "key": "0x49d884621ba8224434ac629afe04075cf606500a59d35808291d39cc524da75d",
                        "prev": "0x0000000000000000000000000000000000000000000000020efa0ab892ba6dc4"
                    },
                    {
                        "current": "0x0000000000000000000000000000000002bf199ac6c74f8c87784bca9f13c7b8",
                        "key": "0xd19de055b6aef7905964850839dd3c933874df4fc25c57bc5b5738b9b5a81113",
                        "prev": "0x0000000000000000000000000000000002a08963d3d1849d211480200cb43627"
                    },
                    {
                        "current": "0x00000000000000000000000000000000000000000001141d69277a1f474ebdf2",
                        "key": "0x0000000000000000000000000000000000000000000000000000000000000008",
                        "prev": "0x00000000000000000000000000000000000000000001141d51350ecd128f2987"
                    }
                ],
                "storageVariables": [
                    {
                        "name": "payoutsTo_",
                        "type": "mapping(address => int256)",
                        "value": {
                            "pairs": [
                                {
                                    "key": "0x06e765a9d77260e1721fb7323161770ac1b0a5f4",
                                    "value": {
                                        "current": "3650704014446086153313114367024416696",
                                        "prev": "3492010088193822176891492409449657895",
                                        "typeTag": 1
                                    }
                                }
                            ],
                            "typeTag": 4
                        }
                    },
                    {
                        "name": "tokenSupply_",
                        "type": "uint256",
                        "value": {
                            "current": "1303915682009332489043442",
                            "prev": "1303913956449724436261255",
                            "typeTag": 1
                        }
                    },
                    {
                        "name": "profitPerShare_",
                        "type": "uint256",
                        "value": {
                            "current": "91966679413002778",
                            "prev": "91966644045025523",
                            "typeTag": 1
                        }
                    },
                    {
                        "name": "tokenBalanceLedger_",
                        "type": "mapping(address => uint256)",
                        "value": {
                            "pairs": [
                                {
                                    "key": "0x06e765a9d77260e1721fb7323161770ac1b0a5f4",
                                    "value": {
                                        "current": "39698234604032492079",
                                        "prev": "37972674995979709892",
                                        "typeTag": 1
                                    }
                                }
                            ],
                            "typeTag": 4
                        }
                    }
                ]
            }
        ]
    }
}