{
    "balance_change": {
        "balanceChanges": [
            {
                "account": "0x28c6c06298d514db089934071355e5743bf21d60",
                "assets": [
                    {
                        "address": "0x09a3ecafa817268f77be1283176b946c4ff2e608",
                        "amount": "550,787.9959",
                        "iconUrl": "",
                        "isERC1155": false,
                        "isERC721": false,
                        "sign": false,
                        "value": "51268.34313"
                    }
                ]
            },
            {
                "account": "0x21a31ee1afc51d94c2efccaa2092ad1028285549",
                "assets": [
                    {
                        "address": "0x09a3ecafa817268f77be1283176b946c4ff2e608",
                        "amount": "550,787.9959",
                        "iconUrl": "",
                        "isERC1155": false,
                        "isERC721": false,
                        "sign": true,
                        "value": "51268.34313"
                    }
                ]
            }
        ]
    },
    "profile": {
        "basic_info": {
            "baseFee": "133.875906861",
            "blockNumber": 14335085,
            "callData": "0xa9059cbb00000000000000000000000021a31ee1afc51d94c2efccaa2092ad10282855490000000000000000000000000000000000000000000074a246ef272de7fbc000",
            "debugEnable": true,
            "errorInfo": "",
            "eventCount": 1,
            "feeRecipient": "0x52bc44d5378309ee2abf1539bf71de1b7d7be3b5",
            "formatValue": "0",
            "gasLimit": 207128,
            "gasPrice": "135.875906861",
            "gasUsed": 34737,
            "intTxnCount": 0,
            "internalRevert": false,
            "internalRevertMessage": "",
            "isContractCreation": false,
            "isFlashloan": false,
            "maxFee": "210",
            "nonce": 3506971,
            "overwritedBlockNumber": -1,
            "priorityFee": "2",
            "receiver": "0x09a3ecafa817268f77be1283176b946c4ff2e608",
            "revertMessage": "",
            "sender": "0x28c6c06298d514db089934071355e5743bf21d60",
            "simulationEnable": true,
            "sourceTxnHash": "0xf2769d19e968caa5ab3bc4548f537b753ada0a32c79788d6fd8209cd1cce671e",
            "status": true,
            "timestamp": "2022-03-06T19:06:47Z",
            "transactionFee": "0.004719921376630557",
            "txnHash": "0xf2769d19e968caa5ab3bc4548f537b753ada0a32c79788d6fd8209cd1cce671e",
            "txnIndex": 31,
            "type": 2,
            "value": "0"
        },
        "fund_flow": [
            {
                "amount": "550,787.9959",
                "from": "0x28c6c06298d514db089934071355e5743bf21d60",
                "id": 1,
                "isERC1155": false,
                "isERC721": false,
                "isReverted": false,
                "order": 1,
                "to": "0x21a31ee1afc51d94c2efccaa2092ad1028285549",
                "token": "0x09a3ecafa817268f77be1283176b946c4ff2e608"
            }
        ],
        "token_infos": [
            {
                "address": "0x09a3ecafa817268f77be1283176b946c4ff2e608",
                "decimals": 18
            },
            {
                "address": "0xc02aaa39b223fe8d0a0e5c4f27ead9083c756cc2",
                "decimals": 18
            },
            {
                "address": "0xeeeeeeeeeeeeeeeeeeeeeeeeeeeeeeeeeeeeeeee",
                "decimals": 18
            }
        ]
    },
    "address_label": {
        "labels": [
            {
                "address": "0x0000000000000000000000000000000000000002",
                "label": "Precompiled"
            },
            {
                "address": "0x0000000000000000000000000000000000000003",
                "label": "Precompiled"
            },
            {
                "address": "0x0000000000000000000000000000000000000004",
                "label": "Precompiled"
            },
            {
                "address": "0xeeeeeeeeeeeeeeeeeeeeeeeeeeeeeeeeeeeeeeee",
                "label": "Ether"
            },
            {
                "address": "0x09a3ecafa817268f77be1283176b946c4ff2e608",
                "label": "Mirror Protocol: MIR Token"
            },
            {
                "address": "0x21a31ee1afc51d94c2efccaa2092ad1028285549",
                "label": "Binance 15"
            },
            {
                "address": "0x28c6c06298d514db089934071355e5743bf21d60",
                "label": "Binance 14"
            },
            {
                "address": "0x0000000000000000000000000000000000000001",
                "label": "Precompiled"
            }
        ]
    },
    "trace": {
        "accountLabels": null,
        "dataMap": {
            "-1": {
                "invocation": {
                    "address": "0x28c6c06298d514db089934071355e5743bf21d60",
                    "callData": "",
                    "decodedMethod": null,
                    "errorInfo": "",
                    "fromAddress": "",
                    "gasUsed": 0,
                    "id": -1,
                    "methodDecoded": false,
                    "operation": "",
                    "output": "",
                    "revert": false,
                    "revertMessage": "",
                    "selector": "",
                    "status": false,
                    "value": ""
                },
                "nodeType": 0
            },
            "0": {
                "invocation": {
                    "address": "0x09a3ecafa817268f77be1283176b946c4ff2e608",
                    "callData": "0x00000000000000000000000021a31ee1afc51d94c2efccaa2092ad10282855490000000000000000000000000000000000000000000074a246ef272de7fbc000",
                    "decodedMethod": {
                        "callParams": [
                            {
                                "name": "recipient",
                                "type": "address",
                                "value": "0x21a31ee1afc51d94c2efccaa2092ad1028285549"
                            },
                            {
                                "decimalAvailable": true,
                                "name": "amount",
                                "type": "uint256",
                                "value": "550,787,995,900,000,000,000,000"
                            }
                        ],
                        "constructorArguments": "",
                        "name": "transfer",
                        "returnParams": [
                            {
                                "name": "",
                                "type": "bool",
                                "value": true
                            }
                        ],
                        "signature": "transfer(address,uint256)"
                    },
                    "errorInfo": "",
                    "fromAddress": "0x28c6c06298d514db089934071355e5743bf21d60",
                    "gasUsed": 34737,
                    "id": 0,
                    "methodDecoded": true,
                    "operation": "CALL",
                    "output": "0x0000000000000000000000000000000000000000000000000000000000000001",
                    "revert": false,
                    "revertMessage": "",
                    "selector": "0xa9059cbb",
                    "status": true,
                    "value": "0"
                },
                "nodeType": 0
            },
            "1": {
                "event": {
                    "contract": "0x09a3ecafa817268f77be1283176b946c4ff2e608",
                    "decodedLog": {
                        "name": "Transfer",
                        "params": [
                            {
                                "name": "from",
                                "type": "address",
                                "value": "0x28c6c06298d514db089934071355e5743bf21d60"
                            },
                            {
                                "name": "to",
                                "type": "address",
                                "value": "0x21a31ee1afc51d94c2efccaa2092ad1028285549"
                            },
                            {
                                "decimalAvailable": true,
                                "name": "value",
                                "type": "uint256",
                                "value": "550,787,995,900,000,000,000,000"
                            }
                        ],
                        "signature": "Transfer(address,address,uint256)"
                    },
                    "id": 1,
                    "logData": "0x0000000000000000000000000000000000000000000074a246ef272de7fbc000",
                    "logDecoded": true,
                    "operation": "EVENT",
                    "revert": false,
                    "status": true,
                    "topics": [
                        "0xddf252ad1be2c89b69c2b068fc378daa952ba7f163c4a11628f55a4df523b3ef",
                        "0x00000000000000000000000028c6c06298d514db089934071355e5743bf21d60",
                        "0x00000000000000000000000021a31ee1afc51d94c2efccaa2092ad1028285549"
                    ]
                },
                "nodeType": 1
            }
        },
        "gasFlame": [
            {
                "children": [
                    {
                        "children": [
                            {
                                "children": [],
                                "depth": 0,
                                "name": "Initial Gas",
                                "value": 21668
                            },
                            {
                                "children": [],
                                "depth": 0,
                                "name": "Executed Gas",
                                "value": 13069
                            }
                        ],
                        "depth": -1,
                        "name": "Actual Gas Used",
                        "value": 34737
                    },
                    {
                        "children": [],
                        "depth": -1,
                        "name": "Refunded Gas",
                        "value": 0
                    }
                ],
                "depth": -2,
                "name": "Total Gas",
                "value": 34737
            }
        ],
        "isConfirmed": true,
        "mainTrace": [
            {
                "children": [
                    {
                        "children": [
                            {
                                "children": [],
                                "depth": 1,
                                "id": 1,
                                "order": 1
                            }
                        ],
                        "depth": 0,
                        "id": 0,
                        "order": 0
                    }
                ],
                "depth": -1,
                "id": -1,
                "order": -1
            }
        ],
        "mainTraceNodeCount": 2,
        "parentIdMap": {
            "0": -1,
            "1": 0
        },
        "tidyTrace": [
            {
                "children": [
                    {
                        "children": [
                            {
                                "children": [],
                                "depth": 1,
                                "id": 1,
                                "order": 1
                            }
                        ],
                        "depth": 0,
                        "id": 0,
                        "order": 0
                    }
                ],
                "depth": -1,
                "id": -1,
                "order": -1
            }
        ],
        "tidyTraceNodeCount": 2
    },
    "state_change": {
        "stateChanges": [
            {
                "address": "0x09a3ecafa817268f77be1283176b946c4ff2e608",
                "erc": "ERC-20",
                "slots": [
                    {
                        "current": "0x00000000000000000000000000000000000000000001dd3a407418162c1e6530",
                        "key": "0xc0ec8fbf02d70b2873f5a76f503e97bd1b0ca8048ab517fad231214a74ebe459",
                        "prev": "0x0000000000000000000000000000000000000000000251dc87633f44141a2530"
                    },
                    {
                        "current": "0x00000000000000000000000000000000000000000001fcb869a88f3bf0b34000",
                        "key": "0x9319194a372d6da00e43ed5f7027e57f755d1a31b34a5351314b4fa3f025c34c",
                        "prev": "0x00000000000000000000000000000000000000000001881622b9680e08b78000"
                    }
                ],
                "storageVariables": [
                    {
                        "name": "_balances",
                        "type": "mapping(address => uint256)",
                        "value": {
                            "pairs": [
                                {
                                    "key": "0x21a31ee1afc51d94c2efccaa2092ad1028285549",
                                    "value": {
                                        "current": "2402363987700000000000000",
                                        "prev": "1851575991800000000000000",
                                        "typeTag": 1
                                    }
                                },
                                {
                                    "key": "0x28c6c06298d514db089934071355e5743bf21d60",
                                    "value": {
                                        "current": "2253643367848695155287344",
                                        "prev": "2804431363748695155287344",
                                        "typeTag": 1
                                    }
                                }
                            ],
                            "typeTag": 4
                        }
                    }
                ]
            }
        ]
    }
}