{
    "balance_change": {
        "balanceChanges": [
            {
                "account": "0xfbb1b73c4f0bda4f67dca266ce6ef42f520fbb98",
                "assets": [
                    {
                        "address": "0xf0ee6b27b759c9893ce4f094b49ad28fd15a23e4",
                        "amount": "1,251.46776053",
                        "iconUrl": "https://assets.blocksec.com/icon/714937b694b19a53c641cf977e1d86f5da1e2da3977e58a2c7ef64b429bc7c4b.png",
                        "isERC1155": false,
                        "isERC721": false,
                        "sign": false,
                        "value": ""
                    }
                ]
            },
            {
                "account": "0xe31aaba37b70d06cf5164045a8627b6087fe5bb8",
                "assets": [
                    {
                        "address": "0xf0ee6b27b759c9893ce4f094b49ad28fd15a23e4",
                        "amount": "1,251.46776053",
                        "iconUrl": "https://assets.blocksec.com/icon/714937b694b19a53c641cf977e1d86f5da1e2da3977e58a2c7ef64b429bc7c4b.png",
                        "isERC1155": false,
                        "isERC721": false,
                        "sign": true,
                        "value": ""
                    }
                ]
            }
        ]
    },
    "profile": {
        "basic_info": {
            "baseFee": "",
            "blockNumber": 5609422,
            "callData": "0xa9059cbb000000000000000000000000e31aaba37b70d06cf5164045a8627b6087fe5bb80000000000000000000000000000000000000000000000000000001d235441f5",
            "debugEnable": true,
            "errorInfo": "",
            "eventCount": 1,
            "feeRecipient": "0xb2930b35844a230f00e51431acae96fe543a0347",
            "formatValue": "0",
            "gasLimit": 150000,
            "gasPrice": "50",
            "gasUsed": 52540,
            "intTxnCount": 0,
            "internalRevert": false,
            "internalRevertMessage": "",
            "isContractCreation": false,
            "isFlashloan": false,
            "maxFee": "",
            "nonce": 5685598,
            "overwritedBlockNumber": -1,
            "priorityFee": "",
            "receiver": "0xf0ee6b27b759c9893ce4f094b49ad28fd15a23e4",
            "revertMessage": "",
            "sender": "0xfbb1b73c4f0bda4f67dca266ce6ef42f520fbb98",
            "simulationEnable": true,
            "sourceTxnHash": "0xf2d1ce6a8b0eb530ff44e7716041c31c180615a7fd13d9bfdc2c0543f4f18b86",
            "status": true,
            "timestamp": "2018-05-14T00:39:58Z",
            "transactionFee": "0.002627",
            "txnHash": "0xf2d1ce6a8b0eb530ff44e7716041c31c180615a7fd13d9bfdc2c0543f4f18b86",
            "txnIndex": 2,
            "type": 0,
            "value": "0"
        },
        "fund_flow": [
            {
                "amount": "1,251.46776053",
                "from": "0xfbb1b73c4f0bda4f67dca266ce6ef42f520fbb98",
                "id": 1,
                "isERC1155": false,
                "isERC721": false,
                "isReverted": false,
                "order": 1,
                "to": "0xe31aaba37b70d06cf5164045a8627b6087fe5bb8",
                "token": "0xf0ee6b27b759c9893ce4f094b49ad28fd15a23e4"
            }
        ],
        "token_infos": [
            {
                "address": "0xc02aaa39b223fe8d0a0e5c4f27ead9083c756cc2",
                "decimals": 18
            },
            {
                "address": "0xf0ee6b27b759c9893ce4f094b49ad28fd15a23e4",
                "decimals": 8
            },
            {
                "address": "0xeeeeeeeeeeeeeeeeeeeeeeeeeeeeeeeeeeeeeeee",
                "decimals": 18
            }
        ]
    },
    "address_label": {
        "labels": [
            {
                "address": "0x0000000000000000000000000000000000000002",
                "label": "Precompiled"
            },
            {
                "address": "0x0000000000000000000000000000000000000003",
                "label": "Precompiled"
            },
            {
                "address": "0x0000000000000000000000000000000000000004",
                "label": "Precompiled"
            },
            {
                "address": "0xeeeeeeeeeeeeeeeeeeeeeeeeeeeeeeeeeeeeeeee",
                "label": "Ether"
            },
            {
                "address": "0xfbb1b73c4f0bda4f67dca266ce6ef42f520fbb98",
                "label": "Bittrex"
            },
            {
                "address": "0xf0ee6b27b759c9893ce4f094b49ad28fd15a23e4",
                "label": "Enigma Token"
            },
            {
                "address": "0xe31aaba37b70d06cf5164045a8627b6087fe5bb8",
                "label": "BINANCE"
            },
            {
                "address": "0x0000000000000000000000000000000000000001",
                "label": "Precompiled"
            }
        ]
    },
    "trace": {
        "accountLabels": null,
        "dataMap": {
            "-1": {
                "invocation": {
                    "address": "0xfbb1b73c4f0bda4f67dca266ce6ef42f520fbb98",
                    "callData": "",
                    "decodedMethod": null,
                    "errorInfo": "",
                    "fromAddress": "",
                    "gasUsed": 0,
                    "id": -1,
                    "methodDecoded": false,
                    "operation": "",
                    "output": "",
                    "revert": false,
                    "revertMessage": "",
                    "selector": "",
                    "status": false,
                    "value": ""
                },
                "nodeType": 0
            },
            "0": {
                "invocation": {
                    "address": "0xf0ee6b27b759c9893ce4f094b49ad28fd15a23e4",
                    "callData": "0x000000000000000000000000e31aaba37b70d06cf5164045a8627b6087fe5bb80000000000000000000000000000000000000000000000000000001d235441f5",
                    "decodedMethod": {
                        "callParams": [
                            {
                                "name": "_to",
                                "type": "address",
                                "value": "0xe31aaba37b70d06cf5164045a8627b6087fe5bb8"
                            },
                            {
                                "decimalAvailable": true,
                                "name": "_value",
                                "type": "uint256",
                                "value": "125,146,776,053"
                            }
                        ],
                        "constructorArguments": "",
                        "name": "transfer",
                        "returnParams": [
                            {
                                "name": "",
                                "type": "bool",
                                "value": true
                            }
                        ],
                        "signature": "transfer(address,uint256)"
                    },
                    "errorInfo": "",
                    "fromAddress": "0xfbb1b73c4f0bda4f67dca266ce6ef42f520fbb98",
                    "gasUsed": 52540,
                    "id": 0,
                    "methodDecoded": true,
                    "operation": "CALL",
                    "output": "0x0000000000000000000000000000000000000000000000000000000000000001",
                    "revert": false,
                    "revertMessage": "",
                    "selector": "0xa9059cbb",
                    "status": true,
                    "value": "0"
                },
                "nodeType": 0
            },
            "1": {
                "event": {
                    "contract": "0xf0ee6b27b759c9893ce4f094b49ad28fd15a23e4",
                    "decodedLog": {
                        "name": "Transfer",
                        "params": [
                            {
                                "name": "from",
                                "type": "address",
                                "value": "0xfbb1b73c4f0bda4f67dca266ce6ef42f520fbb98"
                            },
                            {
                                "name": "to",
                                "type": "address",
                                "value": "0xe31aaba37b70d06cf5164045a8627b6087fe5bb8"
                            },
                            {
                                "decimalAvailable": true,
                                "name": "value",
                                "type": "uint256",
                                "value": "125,146,776,053"
                            }
                        ],
                        "signature": "Transfer(address,address,uint256)"
                    },
                    "id": 1,
                    "logData": "0x0000000000000000000000000000000000000000000000000000001d235441f5",
                    "logDecoded": true,
                    "operation": "EVENT",
                    "revert": false,
                    "status": true,
                    "topics": [
                        "0xddf252ad1be2c89b69c2b068fc378daa952ba7f163c4a11628f55a4df523b3ef",
                        "0x000000000000000000000000fbb1b73c4f0bda4f67dca266ce6ef42f520fbb98",
                        "0x000000000000000000000000e31aaba37b70d06cf5164045a8627b6087fe5bb8"
                    ]
                },
                "nodeType": 1
            }
        },
        "gasFlame": [
            {
                "children": [
                    {
                        "children": [
                            {
                                "children": [],
                                "depth": 0,
                                "name": "Initial Gas",
                                "value": 23128
                            },
                            {
                                "children": [],
                                "depth": 0,
                                "name": "Executed Gas",
                                "value": 29412
                            }
                        ],
                        "depth": -1,
                        "name": "Actual Gas Used",
                        "value": 52540
                    },
                    {
                        "children": [],
                        "depth": -1,
                        "name": "Refunded Gas",
                        "value": 0
                    }
                ],
                "depth": -2,
                "name": "Total Gas",
                "value": 52540
            }
        ],
        "isConfirmed": true,
        "mainTrace": [
            {
                "children": [
                    {
                        "children": [
                            {
                                "children": [],
                                "depth": 1,
                                "id": 1,
                                "order": 1
                            }
                        ],
                        "depth": 0,
                        "id": 0,
                        "order": 0
                    }
                ],
                "depth": -1,
                "id": -1,
                "order": -1
            }
        ],
        "mainTraceNodeCount": 2,
        "parentIdMap": {
            "0": -1,
            "1": 0
        },
        "tidyTrace": [
            {
                "children": [
                    {
                        "children": [
                            {
                                "children": [],
                                "depth": 1,
                                "id": 1,
                                "order": 1
                            }
                        ],
                        "depth": 0,
                        "id": 0,
                        "order": 0
                    }
                ],
                "depth": -1,
                "id": -1,
                "order": -1
            }
        ],
        "tidyTraceNodeCount": 2
    },
    "state_change": {
        "stateChanges": [
            {
                "address": "0xf0ee6b27b759c9893ce4f094b49ad28fd15a23e4",
                "erc": "ERC-20",
                "slots": [
                    {
                        "current": "0x0000000000000000000000000000000000000000000000000003b3957db92517",
                        "key": "0xc39fa2f9f6840acacbf351eafb282414a00c711119269d645c4d10c2b8bca396",
                        "prev": "0x0000000000000000000000000000000000000000000000000003b3b2a10d670c"
                    },
                    {
                        "current": "0x0000000000000000000000000000000000000000000000000000001d235441f5",
                        "key": "0x450c598f4dd16c6d49f0fe7d5b0902dc4343bf8d48e357a084faf1d64b2848a0",
                        "prev": "0x0000000000000000000000000000000000000000000000000000000000000000"
                    }
                ],
                "storageVariables": [
                    {
                        "name": "balances",
                        "type": "mapping(address => uint256)",
                        "value": {
                            "pairs": [
                                {
                                    "key": "0xe31aaba37b70d06cf5164045a8627b6087fe5bb8",
                                    "value": {
                                        "current": "125146776053",
                                        "prev": "0",
                                        "typeTag": 1
                                    }
                                },
                                {
                                    "key": "0xfbb1b73c4f0bda4f67dca266ce6ef42f520fbb98",
                                    "value": {
                                        "current": "1041879570916631",
                                        "prev": "1042004717692684",
                                        "typeTag": 1
                                    }
                                }
                            ],
                            "typeTag": 4
                        }
                    }
                ]
            }
        ]
    }
}