{
    "balance_change": {
        "balanceChanges": [
            {
                "account": "0x2b2de81db10c02723eb40da2fb67f44801fa5215",
                "assets": [
                    {
                        "address": "0x32b053f2cba79f80ada5078cb6b305da92bde6e1",
                        "amount": "40",
                        "iconUrl": "",
                        "isERC1155": false,
                        "isERC721": false,
                        "sign": false,
                        "value": "165.4997094"
                    },
                    {
                        "address": "0x8a0a9b663693a22235b896f70a229c4a22597623",
                        "amount": "23,442.3745187756013918",
                        "iconUrl": "",
                        "isERC1155": false,
                        "isERC721": false,
                        "sign": true,
                        "value": "1200.898995"
                    }
                ]
            },
            {
                "account": "0x000000fee13a103a10d593b9ae06b3e05f2e7e1c",
                "assets": [
                    {
                        "address": "0x8a0a9b663693a22235b896f70a229c4a22597623",
                        "amount": "58.752818342795993463",
                        "iconUrl": "",
                        "isERC1155": false,
                        "isERC721": false,
                        "sign": true,
                        "value": "13.57702464"
                    }
                ]
            },
            {
                "account": "0x1112956589a2bea1b038732db4ea6b0c416ef130",
                "assets": [
                    {
                        "address": "0x32b053f2cba79f80ada5078cb6b305da92bde6e1",
                        "amount": "38.4",
                        "iconUrl": "",
                        "isERC1155": false,
                        "isERC721": false,
                        "sign": true,
                        "value": "158.8319044"
                    },
                    {
                        "address": "0xc02aaa39b223fe8d0a0e5c4f27ead9083c756cc2",
                        "amount": "0.046038752985688741",
                        "iconUrl": "https://assets.blocksec.com/icon/f1cb2d02c471d545bbc7722daf3277fd852d98e63d118771af7047bd8256c516.png",
                        "isERC1155": false,
                        "isERC721": false,
                        "sign": false,
                        "value": "159.16487758513355848"
                    }
                ]
            },
            {
                "account": "0x32b053f2cba79f80ada5078cb6b305da92bde6e1",
                "assets": [
                    {
                        "address": "0x32b053f2cba79f80ada5078cb6b305da92bde6e1",
                        "amount": "1.6",
                        "iconUrl": "",
                        "isERC1155": false,
                        "isERC721": false,
                        "sign": true,
                        "value": "6.61897113"
                    }
                ]
            },
            {
                "account": "0xcfb2e3fd46ba5e52af6bacbd63f0848696d674f3",
                "assets": [
                    {
                        "address": "0xc02aaa39b223fe8d0a0e5c4f27ead9083c756cc2",
                        "amount": "0.046038752985688741",
                        "iconUrl": "https://assets.blocksec.com/icon/f1cb2d02c471d545bbc7722daf3277fd852d98e63d118771af7047bd8256c516.png",
                        "isERC1155": false,
                        "isERC721": false,
                        "sign": true,
                        "value": "159.16487758513355848"
                    },
                    {
                        "address": "0x8a0a9b663693a22235b896f70a229c4a22597623",
                        "amount": "23,501.127337118397385263",
                        "iconUrl": "",
                        "isERC1155": false,
                        "isERC721": false,
                        "sign": false,
                        "value": "1201.559028"
                    }
                ]
            }
        ]
    },
    "profile": {
        "basic_info": {
            "baseFee": "11.194363589",
            "blockNumber": 20362759,
            "callData": "0x3593564c000000000000000000000000000000000000000000000000000000000000006000000000000000000000000000000000000000000000000000000000000000a000000000000000000000000000000000000000000000000000000000669e7323000000000000000000000000000000000000000000000000000000000000000308060400000000000000000000000000000000000000000000000000000000000000000000000000000000000000000000000000000000000000000000000003000000000000000000000000000000000000000000000000000000000000006000000000000000000000000000000000000000000000000000000000000001a00000000000000000000000000000000000000000000000000000000000000220000000000000000000000000000000000000000000000000000000000000012000000000000000000000000000000000000000000000000000000000000000020000000000000000000000000000000000000000000000022b1c8c1227a000000000000000000000000000000000000000000000000004bd55020e18684352d700000000000000000000000000000000000000000000000000000000000000a00000000000000000000000000000000000000000000000000000000000000001000000000000000000000000000000000000000000000000000000000000000300000000000000000000000032b053f2cba79f80ada5078cb6b305da92bde6e1000000000000000000000000c02aaa39b223fe8d0a0e5c4f27ead9083c756cc20000000000000000000000008a0a9b663693a22235b896f70a229c4a2259762300000000000000000000000000000000000000000000000000000000000000600000000000000000000000008a0a9b663693a22235b896f70a229c4a22597623000000000000000000000000000000fee13a103a10d593b9ae06b3e05f2e7e1c000000000000000000000000000000000000000000000000000000000000001900000000000000000000000000000000000000000000000000000000000000600000000000000000000000008a0a9b663693a22235b896f70a229c4a2259762300000000000000000000000000000000000000000000000000000000000000010000000000000000000000000000000000000000000004ba4c79badc2faeacdf",
            "debugEnable": true,
            "errorInfo": "",
            "eventCount": 11,
            "feeRecipient": "0x95222290dd7278aa3ddd389cc1e1d165cc4bafe5",
            "formatValue": "0",
            "gasLimit": 377076,
            "gasPrice": "11.195363589",
            "gasUsed": 293515,
            "intTxnCount": 26,
            "internalRevert": false,
            "internalRevertMessage": "",
            "isContractCreation": false,
            "isFlashloan": false,
            "maxFee": "11.843756322",
            "nonce": 97,
            "overwritedBlockNumber": -1,
            "priorityFee": "0.001",
            "receiver": "0x3fc91a3afd70395cd496c647d5a6cc9d4b2b7fad",
            "revertMessage": "",
            "sender": "0x2b2de81db10c02723eb40da2fb67f44801fa5215",
            "simulationEnable": true,
            "sourceTxnHash": "0xf2897edac80229578425faf055edfc65b50925e4909d5b6e94a3b126f9e48ce6",
            "status": true,
            "timestamp": "2024-07-22T14:46:59Z",
            "transactionFee": "0.003286007143825335",
            "txnHash": "0xf2897edac80229578425faf055edfc65b50925e4909d5b6e94a3b126f9e48ce6",
            "txnIndex": 199,
            "type": 2,
            "value": "0"
        },
        "fund_flow": [
            {
                "amount": "1.6",
                "from": "0x2b2de81db10c02723eb40da2fb67f44801fa5215",
                "id": 1,
                "isERC1155": false,
                "isERC721": false,
                "isReverted": false,
                "order": 1,
                "to": "0x32b053f2cba79f80ada5078cb6b305da92bde6e1",
                "token": "0x32b053f2cba79f80ada5078cb6b305da92bde6e1"
            },
            {
                "amount": "38.4",
                "from": "0x2b2de81db10c02723eb40da2fb67f44801fa5215",
                "id": 2,
                "isERC1155": false,
                "isERC721": false,
                "isReverted": false,
                "order": 2,
                "to": "0x1112956589a2bea1b038732db4ea6b0c416ef130",
                "token": "0x32b053f2cba79f80ada5078cb6b305da92bde6e1"
            },
            {
                "amount": "0.046038752985688741",
                "from": "0x1112956589a2bea1b038732db4ea6b0c416ef130",
                "id": 3,
                "isERC1155": false,
                "isERC721": false,
                "isReverted": false,
                "order": 3,
                "to": "0xcfb2e3fd46ba5e52af6bacbd63f0848696d674f3",
                "token": "0xc02aaa39b223fe8d0a0e5c4f27ead9083c756cc2"
            },
            {
                "amount": "23,501.127337118397385263",
                "from": "0xcfb2e3fd46ba5e52af6bacbd63f0848696d674f3",
                "id": 4,
                "isERC1155": false,
                "isERC721": false,
                "isReverted": false,
                "order": 4,
                "to": "0x3fc91a3afd70395cd496c647d5a6cc9d4b2b7fad",
                "token": "0x8a0a9b663693a22235b896f70a229c4a22597623"
            },
            {
                "amount": "58.752818342795993463",
                "from": "0x3fc91a3afd70395cd496c647d5a6cc9d4b2b7fad",
                "id": 5,
                "isERC1155": false,
                "isERC721": false,
                "isReverted": false,
                "order": 5,
                "to": "0x000000fee13a103a10d593b9ae06b3e05f2e7e1c",
                "token": "0x8a0a9b663693a22235b896f70a229c4a22597623"
            },
            {
                "amount": "23,442.3745187756013918",
                "from": "0x3fc91a3afd70395cd496c647d5a6cc9d4b2b7fad",
                "id": 6,
                "isERC1155": false,
                "isERC721": false,
                "isReverted": false,
                "order": 6,
                "to": "0x2b2de81db10c02723eb40da2fb67f44801fa5215",
                "token": "0x8a0a9b663693a22235b896f70a229c4a22597623"
            }
        ],
        "token_infos": [
            {
                "address": "0xeeeeeeeeeeeeeeeeeeeeeeeeeeeeeeeeeeeeeeee",
                "decimals": 18
            },
            {
                "address": "0x32b053f2cba79f80ada5078cb6b305da92bde6e1",
                "decimals": 18
            },
            {
                "address": "0x8a0a9b663693a22235b896f70a229c4a22597623",
                "decimals": 18
            },
            {
                "address": "0xc02aaa39b223fe8d0a0e5c4f27ead9083c756cc2",
                "decimals": 18
            }
        ]
    },
    "address_label": {
        "labels": [
            {
                "address": "0xc02aaa39b223fe8d0a0e5c4f27ead9083c756cc2",
                "label": "Wrapped Ether (WETH)"
            },
            {
                "address": "0x0000000000000000000000000000000000000001",
                "label": "Precompiled"
            },
            {
                "address": "0xeeeeeeeeeeeeeeeeeeeeeeeeeeeeeeeeeeeeeeee",
                "label": "Ether"
            },
            {
                "address": "0xcfb2e3fd46ba5e52af6bacbd63f0848696d674f3",
                "label": "Uniswap V2. LP(SCALE/WETH)"
            },
            {
                "address": "0x8a0a9b663693a22235b896f70a229c4a22597623",
                "label": "Scalialnfra: SCALE Token"
            },
            {
                "address": "0x32b053f2cba79f80ada5078cb6b305da92bde6e1",
                "label": "Neural AI: NEURAL Token"
            },
            {
                "address": "0x1112956589a2bea1b038732db4ea6b0c416ef130",
                "label": "Uniswap V2: NEURAL 17"
            },
            {
                "address": "0x0000000000000000000000000000000000000002",
                "label": "Precompiled"
            },
            {
                "address": "0x0000000000000000000000000000000000000003",
                "label": "Precompiled"
            },
            {
                "address": "0x0000000000000000000000000000000000000004",
                "label": "Precompiled"
            },
            {
                "address": "0x000000000022d473030f116ddee9f6b43ac78ba3",
                "label": "Permit2"
            },
            {
                "address": "0x3fc91a3afd70395cd496c647d5a6cc9d4b2b7fad",
                "label": "Uniswap: Universal Router"
            }
        ]
    },
    "trace": {
        "accountLabels": null,
        "dataMap": {
            "-1": {
                "invocation": {
                    "address": "0x2b2de81db10c02723eb40da2fb67f44801fa5215",
                    "callData": "",
                    "decodedMethod": null,
                    "errorInfo": "",
                    "fromAddress": "",
                    "gasUsed": 0,
                    "id": -1,
                    "methodDecoded": false,
                    "operation": "",
                    "output": "",
                    "revert": false,
                    "revertMessage": "",
                    "selector": "",
                    "status": false,
                    "value": ""
                },
                "nodeType": 0
            },
            "0": {
                "invocation": {
                    "address": "0x3fc91a3afd70395cd496c647d5a6cc9d4b2b7fad",
                    "callData": "0x000000000000000000000000000000000000000000000000000000000000006000000000000000000000000000000000000000000000000000000000000000a000000000000000000000000000000000000000000000000000000000669e7323000000000000000000000000000000000000000000000000000000000000000308060400000000000000000000000000000000000000000000000000000000000000000000000000000000000000000000000000000000000000000000000003000000000000000000000000000000000000000000000000000000000000006000000000000000000000000000000000000000000000000000000000000001a00000000000000000000000000000000000000000000000000000000000000220000000000000000000000000000000000000000000000000000000000000012000000000000000000000000000000000000000000000000000000000000000020000000000000000000000000000000000000000000000022b1c8c1227a000000000000000000000000000000000000000000000000004bd55020e18684352d700000000000000000000000000000000000000000000000000000000000000a00000000000000000000000000000000000000000000000000000000000000001000000000000000000000000000000000000000000000000000000000000000300000000000000000000000032b053f2cba79f80ada5078cb6b305da92bde6e1000000000000000000000000c02aaa39b223fe8d0a0e5c4f27ead9083c756cc20000000000000000000000008a0a9b663693a22235b896f70a229c4a2259762300000000000000000000000000000000000000000000000000000000000000600000000000000000000000008a0a9b663693a22235b896f70a229c4a22597623000000000000000000000000000000fee13a103a10d593b9ae06b3e05f2e7e1c000000000000000000000000000000000000000000000000000000000000001900000000000000000000000000000000000000000000000000000000000000600000000000000000000000008a0a9b663693a22235b896f70a229c4a2259762300000000000000000000000000000000000000000000000000000000000000010000000000000000000000000000000000000000000004ba4c79badc2faeacdf",
                    "decodedMethod": {
                        "callParams": [
                            {
                                "name": "commands",
                                "type": "bytes",
                                "value": "0x080604"
                            },
                            {
                                "name": "inputs",
                                "type": "bytes[]",
                                "value": [
                                    "0x00000000000000000000000000000000000000000000000000000000000000020000000000000000000000000000000000000000000000022b1c8c1227a000000000000000000000000000000000000000000000000004bd55020e18684352d700000000000000000000000000000000000000000000000000000000000000a00000000000000000000000000000000000000000000000000000000000000001000000000000000000000000000000000000000000000000000000000000000300000000000000000000000032b053f2cba79f80ada5078cb6b305da92bde6e1000000000000000000000000c02aaa39b223fe8d0a0e5c4f27ead9083c756cc20000000000000000000000008a0a9b663693a22235b896f70a229c4a22597623",
                                    "0x0000000000000000000000008a0a9b663693a22235b896f70a229c4a22597623000000000000000000000000000000fee13a103a10d593b9ae06b3e05f2e7e1c0000000000000000000000000000000000000000000000000000000000000019",
                                    "0x0000000000000000000000008a0a9b663693a22235b896f70a229c4a2259762300000000000000000000000000000000000000000000000000000000000000010000000000000000000000000000000000000000000004ba4c79badc2faeacdf"
                                ]
                            },
                            {
                                "name": "deadline",
                                "type": "uint256",
                                "value": "1,721,660,195"
                            }
                        ],
                        "constructorArguments": "",
                        "name": "execute",
                        "returnParams": [],
                        "signature": "execute(bytes,bytes[],uint256)"
                    },
                    "errorInfo": "",
                    "fromAddress": "0x2b2de81db10c02723eb40da2fb67f44801fa5215",
                    "gasUsed": 293515,
                    "id": 0,
                    "methodDecoded": true,
                    "operation": "CALL",
                    "output": "",
                    "revert": false,
                    "revertMessage": "",
                    "selector": "0x3593564c",
                    "status": true,
                    "value": "0"
                },
                "nodeType": 0
            },
            "1": {
                "invocation": {
                    "address": "0x000000000022d473030f116ddee9f6b43ac78ba3",
                    "callData": "0x0000000000000000000000002b2de81db10c02723eb40da2fb67f44801fa52150000000000000000000000001112956589a2bea1b038732db4ea6b0c416ef1300000000000000000000000000000000000000000000000022b1c8c1227a0000000000000000000000000000032b053f2cba79f80ada5078cb6b305da92bde6e1",
                    "decodedMethod": {
                        "callParams": [
                            {
                                "name": "from",
                                "type": "address",
                                "value": "0x2b2de81db10c02723eb40da2fb67f44801fa5215"
                            },
                            {
                                "name": "to",
                                "type": "address",
                                "value": "0x1112956589a2bea1b038732db4ea6b0c416ef130"
                            },
                            {
                                "name": "amount",
                                "type": "uint160",
                                "value": "40,000,000,000,000,000,000"
                            },
                            {
                                "name": "token",
                                "type": "address",
                                "value": "0x32b053f2cba79f80ada5078cb6b305da92bde6e1"
                            }
                        ],
                        "constructorArguments": "",
                        "name": "transferFrom",
                        "returnParams": [],
                        "signature": "transferFrom(address,address,uint160,address)"
                    },
                    "errorInfo": "",
                    "fromAddress": "0x3fc91a3afd70395cd496c647d5a6cc9d4b2b7fad",
                    "gasUsed": 56917,
                    "id": 1,
                    "methodDecoded": true,
                    "operation": "CALL",
                    "output": "",
                    "revert": false,
                    "revertMessage": "",
                    "selector": "0x36c78516",
                    "status": true,
                    "value": "0"
                },
                "nodeType": 0
            },
            "10": {
                "invocation": {
                    "address": "0xc02aaa39b223fe8d0a0e5c4f27ead9083c756cc2",
                    "callData": "0x000000000000000000000000cfb2e3fd46ba5e52af6bacbd63f0848696d674f300000000000000000000000000000000000000000000000000a390007d9d2aa5",
                    "decodedMethod": {
                        "callParams": [
                            {
                                "name": "dst",
                                "type": "address",
                                "value": "0xcfb2e3fd46ba5e52af6bacbd63f0848696d674f3"
                            },
                            {
                                "decimalAvailable": true,
                                "name": "wad",
                                "type": "uint256",
                                "value": "46,038,752,985,688,741"
                            }
                        ],
                        "constructorArguments": "",
                        "name": "transfer",
                        "returnParams": [
                            {
                                "name": "",
                                "type": "bool",
                                "value": true
                            }
                        ],
                        "signature": "transfer(address,uint256)"
                    },
                    "errorInfo": "",
                    "fromAddress": "0x1112956589a2bea1b038732db4ea6b0c416ef130",
                    "gasUsed": 12862,
                    "id": 10,
                    "methodDecoded": true,
                    "operation": "CALL",
                    "output": "0x0000000000000000000000000000000000000000000000000000000000000001",
                    "revert": false,
                    "revertMessage": "",
                    "selector": "0xa9059cbb",
                    "status": true,
                    "value": "0"
                },
                "nodeType": 0
            },
            "11": {
                "event": {
                    "contract": "0xc02aaa39b223fe8d0a0e5c4f27ead9083c756cc2",
                    "decodedLog": {
                        "name": "Transfer",
                        "params": [
                            {
                                "name": "src",
                                "type": "address",
                                "value": "0x1112956589a2bea1b038732db4ea6b0c416ef130"
                            },
                            {
                                "name": "dst",
                                "type": "address",
                                "value": "0xcfb2e3fd46ba5e52af6bacbd63f0848696d674f3"
                            },
                            {
                                "decimalAvailable": true,
                                "name": "wad",
                                "type": "uint256",
                                "value": "46,038,752,985,688,741"
                            }
                        ],
                        "signature": "Transfer(address,address,uint256)"
                    },
                    "id": 11,
                    "logData": "0x00000000000000000000000000000000000000000000000000a390007d9d2aa5",
                    "logDecoded": true,
                    "operation": "EVENT",
                    "revert": false,
                    "status": true,
                    "topics": [
                        "0xddf252ad1be2c89b69c2b068fc378daa952ba7f163c4a11628f55a4df523b3ef",
                        "0x0000000000000000000000001112956589a2bea1b038732db4ea6b0c416ef130",
                        "0x000000000000000000000000cfb2e3fd46ba5e52af6bacbd63f0848696d674f3"
                    ]
                },
                "nodeType": 1
            },
            "12": {
                "invocation": {
                    "address": "0x32b053f2cba79f80ada5078cb6b305da92bde6e1",
                    "callData": "0x0000000000000000000000001112956589a2bea1b038732db4ea6b0c416ef130",
                    "decodedMethod": {
                        "callParams": [
                            {
                                "name": "account",
                                "type": "address",
                                "value": "0x1112956589a2bea1b038732db4ea6b0c416ef130"
                            }
                        ],
                        "constructorArguments": "",
                        "name": "balanceOf",
                        "returnParams": [
                            {
                                "decimalAvailable": true,
                                "name": "",
                                "type": "uint256",
                                "value": "270,690,126,819,475,990,123,589"
                            }
                        ],
                        "signature": "balanceOf(address)"
                    },
                    "errorInfo": "",
                    "fromAddress": "0x1112956589a2bea1b038732db4ea6b0c416ef130",
                    "gasUsed": 974,
                    "id": 12,
                    "methodDecoded": true,
                    "operation": "STATICCALL",
                    "output": "0x0000000000000000000000000000000000000000000039522424448e31461445",
                    "revert": false,
                    "revertMessage": "",
                    "selector": "0x70a08231",
                    "status": true,
                    "value": "0"
                },
                "nodeType": 0
            },
            "13": {
                "invocation": {
                    "address": "0xc02aaa39b223fe8d0a0e5c4f27ead9083c756cc2",
                    "callData": "0x0000000000000000000000001112956589a2bea1b038732db4ea6b0c416ef130",
                    "decodedMethod": {
                        "callParams": [
                            {
                                "name": "",
                                "type": "address",
                                "value": "0x1112956589a2bea1b038732db4ea6b0c416ef130"
                            }
                        ],
                        "constructorArguments": "",
                        "name": "balanceOf",
                        "returnParams": [
                            {
                                "decimalAvailable": true,
                                "name": "",
                                "type": "uint256",
                                "value": "325,467,757,339,517,611,558"
                            }
                        ],
                        "signature": "balanceOf(address)"
                    },
                    "errorInfo": "",
                    "fromAddress": "0x1112956589a2bea1b038732db4ea6b0c416ef130",
                    "gasUsed": 534,
                    "id": 13,
                    "methodDecoded": true,
                    "operation": "STATICCALL",
                    "output": "0x000000000000000000000000000000000000000000000011a4c5c0e5f0fb6e26",
                    "revert": false,
                    "revertMessage": "",
                    "selector": "0x70a08231",
                    "status": true,
                    "value": "0"
                },
                "nodeType": 0
            },
            "14": {
                "event": {
                    "contract": "0x1112956589a2bea1b038732db4ea6b0c416ef130",
                    "decodedLog": {
                        "name": "Sync",
                        "params": [
                            {
                                "name": "reserve0",
                                "type": "uint112",
                                "value": "270,690,126,819,475,990,123,589"
                            },
                            {
                                "name": "reserve1",
                                "type": "uint112",
                                "value": "325,467,757,339,517,611,558"
                            }
                        ],
                        "signature": "Sync(uint112,uint112)"
                    },
                    "id": 14,
                    "logData": "0x0000000000000000000000000000000000000000000039522424448e31461445000000000000000000000000000000000000000000000011a4c5c0e5f0fb6e26",
                    "logDecoded": true,
                    "operation": "EVENT",
                    "revert": false,
                    "status": true,
                    "topics": [
                        "0x1c411e9a96e071241c2f21f7726b17ae89e3cab4c78be50e062b03a9fffbbad1"
                    ]
                },
                "nodeType": 1
            },
            "15": {
                "event": {
                    "contract": "0x1112956589a2bea1b038732db4ea6b0c416ef130",
                    "decodedLog": {
                        "name": "Swap",
                        "params": [
                            {
                                "name": "sender",
                                "type": "address",
                                "value": "0x3fc91a3afd70395cd496c647d5a6cc9d4b2b7fad"
                            },
                            {
                                "name": "to",
                                "type": "address",
                                "value": "0xcfb2e3fd46ba5e52af6bacbd63f0848696d674f3"
                            },
                            {
                                "name": "amount0In",
                                "type": "uint256",
                                "value": "38,400,000,000,000,000,000"
                            },
                            {
                                "name": "amount1In",
                                "type": "uint256",
                                "value": "0"
                            },
                            {
                                "name": "amount0Out",
                                "type": "uint256",
                                "value": "0"
                            },
                            {
                                "name": "amount1Out",
                                "type": "uint256",
                                "value": "46,038,752,985,688,741"
                            }
                        ],
                        "signature": "Swap(address,uint256,uint256,uint256,uint256,address)"
                    },
                    "id": 15,
                    "logData": "0x00000000000000000000000000000000000000000000000214e8348c4f0000000000000000000000000000000000000000000000000000000000000000000000000000000000000000000000000000000000000000000000000000000000000000000000000000000000000000000000000000000000000000a390007d9d2aa5",
                    "logDecoded": true,
                    "operation": "EVENT",
                    "revert": false,
                    "status": true,
                    "topics": [
                        "0xd78ad95fa46c994b6551d0da85fc275fe613ce37657fb8d5e3d130840159d822",
                        "0x0000000000000000000000003fc91a3afd70395cd496c647d5a6cc9d4b2b7fad",
                        "0x000000000000000000000000cfb2e3fd46ba5e52af6bacbd63f0848696d674f3"
                    ]
                },
                "nodeType": 1
            },
            "16": {
                "invocation": {
                    "address": "0xcfb2e3fd46ba5e52af6bacbd63f0848696d674f3",
                    "callData": "0x",
                    "decodedMethod": {
                        "callParams": [],
                        "constructorArguments": "",
                        "name": "getReserves",
                        "returnParams": [
                            {
                                "name": "_reserve0",
                                "type": "uint112",
                                "value": "19,586,650,880,123,084,119,908,019"
                            },
                            {
                                "name": "_reserve1",
                                "type": "uint112",
                                "value": "38,209,274,693,602,129,478"
                            },
                            {
                                "name": "_blockTimestampLast",
                                "type": "uint32",
                                "value": "1,721,658,359"
                            }
                        ],
                        "signature": "getReserves()"
                    },
                    "errorInfo": "",
                    "fromAddress": "0x3fc91a3afd70395cd496c647d5a6cc9d4b2b7fad",
                    "gasUsed": 2504,
                    "id": 16,
                    "methodDecoded": true,
                    "operation": "STATICCALL",
                    "output": "0x0000000000000000000000000000000000000000001033a278c7b401bcbe9eb300000000000000000000000000000000000000000000000212429ce4757a364600000000000000000000000000000000000000000000000000000000669e6bf7",
                    "revert": false,
                    "revertMessage": "",
                    "selector": "0x0902f1ac",
                    "status": true,
                    "value": "0"
                },
                "nodeType": 0
            },
            "17": {
                "invocation": {
                    "address": "0xc02aaa39b223fe8d0a0e5c4f27ead9083c756cc2",
                    "callData": "0x000000000000000000000000cfb2e3fd46ba5e52af6bacbd63f0848696d674f3",
                    "decodedMethod": {
                        "callParams": [
                            {
                                "name": "",
                                "type": "address",
                                "value": "0xcfb2e3fd46ba5e52af6bacbd63f0848696d674f3"
                            }
                        ],
                        "constructorArguments": "",
                        "name": "balanceOf",
                        "returnParams": [
                            {
                                "decimalAvailable": true,
                                "name": "",
                                "type": "uint256",
                                "value": "38,255,313,446,587,818,219"
                            }
                        ],
                        "signature": "balanceOf(address)"
                    },
                    "errorInfo": "",
                    "fromAddress": "0x3fc91a3afd70395cd496c647d5a6cc9d4b2b7fad",
                    "gasUsed": 534,
                    "id": 17,
                    "methodDecoded": true,
                    "operation": "STATICCALL",
                    "output": "0x00000000000000000000000000000000000000000000000212e62ce4f31760eb",
                    "revert": false,
                    "revertMessage": "",
                    "selector": "0x70a08231",
                    "status": true,
                    "value": "0"
                },
                "nodeType": 0
            },
            "18": {
                "invocation": {
                    "address": "0xcfb2e3fd46ba5e52af6bacbd63f0848696d674f3",
                    "callData": "0x0000000000000000000000000000000000000000000004f9ffa88eccd3e04a2f00000000000000000000000000000000000000000000000000000000000000000000000000000000000000003fc91a3afd70395cd496c647d5a6cc9d4b2b7fad00000000000000000000000000000000000000000000000000000000000000800000000000000000000000000000000000000000000000000000000000000000",
                    "decodedMethod": {
                        "callParams": [
                            {
                                "name": "amount0Out",
                                "type": "uint256",
                                "value": "23,501,127,337,118,397,385,263"
                            },
                            {
                                "name": "amount1Out",
                                "type": "uint256",
                                "value": "0"
                            },
                            {
                                "name": "to",
                                "type": "address",
                                "value": "0x3fc91a3afd70395cd496c647d5a6cc9d4b2b7fad"
                            },
                            {
                                "name": "data",
                                "type": "bytes",
                                "value": "0x"
                            }
                        ],
                        "constructorArguments": "",
                        "name": "swap",
                        "returnParams": [],
                        "signature": "swap(uint256,uint256,address,bytes)"
                    },
                    "errorInfo": "",
                    "fromAddress": "0x3fc91a3afd70395cd496c647d5a6cc9d4b2b7fad",
                    "gasUsed": 103741,
                    "id": 18,
                    "methodDecoded": true,
                    "operation": "CALL",
                    "output": "",
                    "revert": false,
                    "revertMessage": "",
                    "selector": "0x022c0d9f",
                    "status": true,
                    "value": "0"
                },
                "nodeType": 0
            },
            "19": {
                "invocation": {
                    "address": "0x8a0a9b663693a22235b896f70a229c4a22597623",
                    "callData": "0x0000000000000000000000003fc91a3afd70395cd496c647d5a6cc9d4b2b7fad0000000000000000000000000000000000000000000004f9ffa88eccd3e04a2f",
                    "decodedMethod": {
                        "callParams": [
                            {
                                "name": "to",
                                "type": "address",
                                "value": "0x3fc91a3afd70395cd496c647d5a6cc9d4b2b7fad"
                            },
                            {
                                "decimalAvailable": true,
                                "name": "amount",
                                "type": "uint256",
                                "value": "23,501,127,337,118,397,385,263"
                            }
                        ],
                        "constructorArguments": "",
                        "name": "transfer",
                        "returnParams": [
                            {
                                "name": "",
                                "type": "bool",
                                "value": true
                            }
                        ],
                        "signature": "transfer(address,uint256)"
                    },
                    "errorInfo": "",
                    "fromAddress": "0xcfb2e3fd46ba5e52af6bacbd63f0848696d674f3",
                    "gasUsed": 70888,
                    "id": 19,
                    "methodDecoded": true,
                    "operation": "CALL",
                    "output": "0x0000000000000000000000000000000000000000000000000000000000000001",
                    "revert": false,
                    "revertMessage": "",
                    "selector": "0xa9059cbb",
                    "status": true,
                    "value": "0"
                },
                "nodeType": 0
            },
            "2": {
                "invocation": {
                    "address": "0x32b053f2cba79f80ada5078cb6b305da92bde6e1",
                    "callData": "0x0000000000000000000000002b2de81db10c02723eb40da2fb67f44801fa52150000000000000000000000001112956589a2bea1b038732db4ea6b0c416ef1300000000000000000000000000000000000000000000000022b1c8c1227a00000",
                    "decodedMethod": {
                        "callParams": [
                            {
                                "name": "sender",
                                "type": "address",
                                "value": "0x2b2de81db10c02723eb40da2fb67f44801fa5215"
                            },
                            {
                                "name": "recipient",
                                "type": "address",
                                "value": "0x1112956589a2bea1b038732db4ea6b0c416ef130"
                            },
                            {
                                "decimalAvailable": true,
                                "name": "amount",
                                "type": "uint256",
                                "value": "40,000,000,000,000,000,000"
                            }
                        ],
                        "constructorArguments": "",
                        "name": "transferFrom",
                        "returnParams": [
                            {
                                "name": "",
                                "type": "bool",
                                "value": true
                            }
                        ],
                        "signature": "transferFrom(address,address,uint256)"
                    },
                    "errorInfo": "",
                    "fromAddress": "0x000000000022d473030f116ddee9f6b43ac78ba3",
                    "gasUsed": 51210,
                    "id": 2,
                    "methodDecoded": true,
                    "operation": "CALL",
                    "output": "0x0000000000000000000000000000000000000000000000000000000000000001",
                    "revert": false,
                    "revertMessage": "",
                    "selector": "0x23b872dd",
                    "status": true,
                    "value": "0"
                },
                "nodeType": 0
            },
            "20": {
                "invocation": {
                    "address": "0x9d0993980619fdaeac696ca5fce8d16a14b876a1",
                    "callData": "0x0000000000000000000000008a0a9b663693a22235b896f70a229c4a22597623",
                    "decodedMethod": {
                        "callParams": [
                            {
                                "name": "",
                                "type": "address",
                                "value": "0x8a0a9b663693a22235b896f70a229c4a22597623"
                            }
                        ],
                        "constructorArguments": "",
                        "name": "isEnabled",
                        "returnParams": [
                            {
                                "name": "",
                                "type": "bool",
                                "value": true
                            }
                        ],
                        "signature": "isEnabled(address)"
                    },
                    "errorInfo": "",
                    "fromAddress": "0x8a0a9b663693a22235b896f70a229c4a22597623",
                    "gasUsed": 2549,
                    "id": 20,
                    "methodDecoded": true,
                    "operation": "STATICCALL",
                    "output": "0x0000000000000000000000000000000000000000000000000000000000000001",
                    "revert": false,
                    "revertMessage": "",
                    "selector": "0x9015d371",
                    "status": true,
                    "value": "0"
                },
                "nodeType": 0
            },
            "21": {
                "invocation": {
                    "address": "0x9d0993980619fdaeac696ca5fce8d16a14b876a1",
                    "callData": "0x000000000000000000000000cfb2e3fd46ba5e52af6bacbd63f0848696d674f30000000000000000000000003fc91a3afd70395cd496c647d5a6cc9d4b2b7fad000000000000000000000000cfb2e3fd46ba5e52af6bacbd63f0848696d674f300000000000000000000000000000000000000000000d3c21bcecceda100000000000000000000000000000000000000000000000000d3c21bcecceda10000000000000000000000000000000000000000000000000002a5a058fc295ed00000",
                    "decodedMethod": null,
                    "errorInfo": "",
                    "fromAddress": "0x8a0a9b663693a22235b896f70a229c4a22597623",
                    "gasUsed": 956,
                    "id": 21,
                    "methodDecoded": false,
                    "operation": "CALL",
                    "output": "0x0000000000000000000000000000000000000000000000000000000000000001",
                    "revert": false,
                    "revertMessage": "",
                    "selector": "0xa20527fc",
                    "status": true,
                    "value": "0"
                },
                "nodeType": 0
            },
            "22": {
                "event": {
                    "contract": "0x8a0a9b663693a22235b896f70a229c4a22597623",
                    "decodedLog": {
                        "name": "Transfer",
                        "params": [
                            {
                                "name": "from",
                                "type": "address",
                                "value": "0xcfb2e3fd46ba5e52af6bacbd63f0848696d674f3"
                            },
                            {
                                "name": "to",
                                "type": "address",
                                "value": "0x3fc91a3afd70395cd496c647d5a6cc9d4b2b7fad"
                            },
                            {
                                "decimalAvailable": true,
                                "name": "value",
                                "type": "uint256",
                                "value": "23,501,127,337,118,397,385,263"
                            }
                        ],
                        "signature": "Transfer(address,address,uint256)"
                    },
                    "id": 22,
                    "logData": "0x0000000000000000000000000000000000000000000004f9ffa88eccd3e04a2f",
                    "logDecoded": true,
                    "operation": "EVENT",
                    "revert": false,
                    "status": true,
                    "topics": [
                        "0xddf252ad1be2c89b69c2b068fc378daa952ba7f163c4a11628f55a4df523b3ef",
                        "0x000000000000000000000000cfb2e3fd46ba5e52af6bacbd63f0848696d674f3",
                        "0x0000000000000000000000003fc91a3afd70395cd496c647d5a6cc9d4b2b7fad"
                    ]
                },
                "nodeType": 1
            },
            "23": {
                "invocation": {
                    "address": "0x8a0a9b663693a22235b896f70a229c4a22597623",
                    "callData": "0x000000000000000000000000cfb2e3fd46ba5e52af6bacbd63f0848696d674f3",
                    "decodedMethod": {
                        "callParams": [
                            {
                                "name": "account",
                                "type": "address",
                                "value": "0xcfb2e3fd46ba5e52af6bacbd63f0848696d674f3"
                            }
                        ],
                        "constructorArguments": "",
                        "name": "balanceOf",
                        "returnParams": [
                            {
                                "decimalAvailable": true,
                                "name": "",
                                "type": "uint256",
                                "value": "19,563,149,752,785,965,722,522,756"
                            }
                        ],
                        "signature": "balanceOf(address)"
                    },
                    "errorInfo": "",
                    "fromAddress": "0xcfb2e3fd46ba5e52af6bacbd63f0848696d674f3",
                    "gasUsed": 996,
                    "id": 23,
                    "methodDecoded": true,
                    "operation": "STATICCALL",
                    "output": "0x000000000000000000000000000000000000000000102ea8791f2534e8de5484",
                    "revert": false,
                    "revertMessage": "",
                    "selector": "0x70a08231",
                    "status": true,
                    "value": "0"
                },
                "nodeType": 0
            },
            "24": {
                "invocation": {
                    "address": "0xc02aaa39b223fe8d0a0e5c4f27ead9083c756cc2",
                    "callData": "0x000000000000000000000000cfb2e3fd46ba5e52af6bacbd63f0848696d674f3",
                    "decodedMethod": {
                        "callParams": [
                            {
                                "name": "",
                                "type": "address",
                                "value": "0xcfb2e3fd46ba5e52af6bacbd63f0848696d674f3"
                            }
                        ],
                        "constructorArguments": "",
                        "name": "balanceOf",
                        "returnParams": [
                            {
                                "decimalAvailable": true,
                                "name": "",
                                "type": "uint256",
                                "value": "38,255,313,446,587,818,219"
                            }
                        ],
                        "signature": "balanceOf(address)"
                    },
                    "errorInfo": "",
                    "fromAddress": "0xcfb2e3fd46ba5e52af6bacbd63f0848696d674f3",
                    "gasUsed": 534,
                    "id": 24,
                    "methodDecoded": true,
                    "operation": "STATICCALL",
                    "output": "0x00000000000000000000000000000000000000000000000212e62ce4f31760eb",
                    "revert": false,
                    "revertMessage": "",
                    "selector": "0x70a08231",
                    "status": true,
                    "value": "0"
                },
                "nodeType": 0
            },
            "25": {
                "event": {
                    "contract": "0xcfb2e3fd46ba5e52af6bacbd63f0848696d674f3",
                    "decodedLog": {
                        "name": "Sync",
                        "params": [
                            {
                                "name": "reserve0",
                                "type": "uint112",
                                "value": "19,563,149,752,785,965,722,522,756"
                            },
                            {
                                "name": "reserve1",
                                "type": "uint112",
                                "value": "38,255,313,446,587,818,219"
                            }
                        ],
                        "signature": "Sync(uint112,uint112)"
                    },
                    "id": 25,
                    "logData": "0x000000000000000000000000000000000000000000102ea8791f2534e8de548400000000000000000000000000000000000000000000000212e62ce4f31760eb",
                    "logDecoded": true,
                    "operation": "EVENT",
                    "revert": false,
                    "status": true,
                    "topics": [
                        "0x1c411e9a96e071241c2f21f7726b17ae89e3cab4c78be50e062b03a9fffbbad1"
                    ]
                },
                "nodeType": 1
            },
            "26": {
                "event": {
                    "contract": "0xcfb2e3fd46ba5e52af6bacbd63f0848696d674f3",
                    "decodedLog": {
                        "name": "Swap",
                        "params": [
                            {
                                "name": "sender",
                                "type": "address",
                                "value": "0x3fc91a3afd70395cd496c647d5a6cc9d4b2b7fad"
                            },
                            {
                                "name": "to",
                                "type": "address",
                                "value": "0x3fc91a3afd70395cd496c647d5a6cc9d4b2b7fad"
                            },
                            {
                                "name": "amount0In",
                                "type": "uint256",
                                "value": "0"
                            },
                            {
                                "name": "amount1In",
                                "type": "uint256",
                                "value": "46,038,752,985,688,741"
                            },
                            {
                                "name": "amount0Out",
                                "type": "uint256",
                                "value": "23,501,127,337,118,397,385,263"
                            },
                            {
                                "name": "amount1Out",
                                "type": "uint256",
                                "value": "0"
                            }
                        ],
                        "signature": "Swap(address,uint256,uint256,uint256,uint256,address)"
                    },
                    "id": 26,
                    "logData": "0x000000000000000000000000000000000000000000000000000000000000000000000000000000000000000000000000000000000000000000a390007d9d2aa50000000000000000000000000000000000000000000004f9ffa88eccd3e04a2f0000000000000000000000000000000000000000000000000000000000000000",
                    "logDecoded": true,
                    "operation": "EVENT",
                    "revert": false,
                    "status": true,
                    "topics": [
                        "0xd78ad95fa46c994b6551d0da85fc275fe613ce37657fb8d5e3d130840159d822",
                        "0x0000000000000000000000003fc91a3afd70395cd496c647d5a6cc9d4b2b7fad",
                        "0x0000000000000000000000003fc91a3afd70395cd496c647d5a6cc9d4b2b7fad"
                    ]
                },
                "nodeType": 1
            },
            "27": {
                "invocation": {
                    "address": "0x8a0a9b663693a22235b896f70a229c4a22597623",
                    "callData": "0x0000000000000000000000003fc91a3afd70395cd496c647d5a6cc9d4b2b7fad",
                    "decodedMethod": {
                        "callParams": [
                            {
                                "name": "account",
                                "type": "address",
                                "value": "0x3fc91a3afd70395cd496c647d5a6cc9d4b2b7fad"
                            }
                        ],
                        "constructorArguments": "",
                        "name": "balanceOf",
                        "returnParams": [
                            {
                                "decimalAvailable": true,
                                "name": "",
                                "type": "uint256",
                                "value": "23,501,127,337,118,397,385,263"
                            }
                        ],
                        "signature": "balanceOf(address)"
                    },
                    "errorInfo": "",
                    "fromAddress": "0x3fc91a3afd70395cd496c647d5a6cc9d4b2b7fad",
                    "gasUsed": 996,
                    "id": 27,
                    "methodDecoded": true,
                    "operation": "STATICCALL",
                    "output": "0x0000000000000000000000000000000000000000000004f9ffa88eccd3e04a2f",
                    "revert": false,
                    "revertMessage": "",
                    "selector": "0x70a08231",
                    "status": true,
                    "value": "0"
                },
                "nodeType": 0
            },
            "28": {
                "invocation": {
                    "address": "0x8a0a9b663693a22235b896f70a229c4a22597623",
                    "callData": "0x0000000000000000000000003fc91a3afd70395cd496c647d5a6cc9d4b2b7fad",
                    "decodedMethod": {
                        "callParams": [
                            {
                                "name": "account",
                                "type": "address",
                                "value": "0x3fc91a3afd70395cd496c647d5a6cc9d4b2b7fad"
                            }
                        ],
                        "constructorArguments": "",
                        "name": "balanceOf",
                        "returnParams": [
                            {
                                "decimalAvailable": true,
                                "name": "",
                                "type": "uint256",
                                "value": "23,501,127,337,118,397,385,263"
                            }
                        ],
                        "signature": "balanceOf(address)"
                    },
                    "errorInfo": "",
                    "fromAddress": "0x3fc91a3afd70395cd496c647d5a6cc9d4b2b7fad",
                    "gasUsed": 996,
                    "id": 28,
                    "methodDecoded": true,
                    "operation": "STATICCALL",
                    "output": "0x0000000000000000000000000000000000000000000004f9ffa88eccd3e04a2f",
                    "revert": false,
                    "revertMessage": "",
                    "selector": "0x70a08231",
                    "status": true,
                    "value": "0"
                },
                "nodeType": 0
            },
            "29": {
                "invocation": {
                    "address": "0x8a0a9b663693a22235b896f70a229c4a22597623",
                    "callData": "0x000000000000000000000000000000fee13a103a10d593b9ae06b3e05f2e7e1c0000000000000000000000000000000000000000000000032f5bf0ff3b68e177",
                    "decodedMethod": {
                        "callParams": [
                            {
                                "name": "to",
                                "type": "address",
                                "value": "0x000000fee13a103a10d593b9ae06b3e05f2e7e1c"
                            },
                            {
                                "decimalAvailable": true,
                                "name": "amount",
                                "type": "uint256",
                                "value": "58,752,818,342,795,993,463"
                            }
                        ],
                        "constructorArguments": "",
                        "name": "transfer",
                        "returnParams": [
                            {
                                "name": "",
                                "type": "bool",
                                "value": true
                            }
                        ],
                        "signature": "transfer(address,uint256)"
                    },
                    "errorInfo": "",
                    "fromAddress": "0x3fc91a3afd70395cd496c647d5a6cc9d4b2b7fad",
                    "gasUsed": 22377,
                    "id": 29,
                    "methodDecoded": true,
                    "operation": "CALL",
                    "output": "0x0000000000000000000000000000000000000000000000000000000000000001",
                    "revert": false,
                    "revertMessage": "",
                    "selector": "0xa9059cbb",
                    "status": true,
                    "value": "0"
                },
                "nodeType": 0
            },
            "3": {
                "event": {
                    "contract": "0x32b053f2cba79f80ada5078cb6b305da92bde6e1",
                    "decodedLog": {
                        "name": "Transfer",
                        "params": [
                            {
                                "name": "from",
                                "type": "address",
                                "value": "0x2b2de81db10c02723eb40da2fb67f44801fa5215"
                            },
                            {
                                "name": "to",
                                "type": "address",
                                "value": "0x32b053f2cba79f80ada5078cb6b305da92bde6e1"
                            },
                            {
                                "decimalAvailable": true,
                                "name": "value",
                                "type": "uint256",
                                "value": "1,600,000,000,000,000,000"
                            }
                        ],
                        "signature": "Transfer(address,address,uint256)"
                    },
                    "id": 3,
                    "logData": "0x00000000000000000000000000000000000000000000000016345785d8a00000",
                    "logDecoded": true,
                    "operation": "EVENT",
                    "revert": false,
                    "status": true,
                    "topics": [
                        "0xddf252ad1be2c89b69c2b068fc378daa952ba7f163c4a11628f55a4df523b3ef",
                        "0x0000000000000000000000002b2de81db10c02723eb40da2fb67f44801fa5215",
                        "0x00000000000000000000000032b053f2cba79f80ada5078cb6b305da92bde6e1"
                    ]
                },
                "nodeType": 1
            },
            "30": {
                "invocation": {
                    "address": "0x9d0993980619fdaeac696ca5fce8d16a14b876a1",
                    "callData": "0x0000000000000000000000008a0a9b663693a22235b896f70a229c4a22597623",
                    "decodedMethod": {
                        "callParams": [
                            {
                                "name": "",
                                "type": "address",
                                "value": "0x8a0a9b663693a22235b896f70a229c4a22597623"
                            }
                        ],
                        "constructorArguments": "",
                        "name": "isEnabled",
                        "returnParams": [
                            {
                                "name": "",
                                "type": "bool",
                                "value": true
                            }
                        ],
                        "signature": "isEnabled(address)"
                    },
                    "errorInfo": "",
                    "fromAddress": "0x8a0a9b663693a22235b896f70a229c4a22597623",
                    "gasUsed": 549,
                    "id": 30,
                    "methodDecoded": true,
                    "operation": "STATICCALL",
                    "output": "0x0000000000000000000000000000000000000000000000000000000000000001",
                    "revert": false,
                    "revertMessage": "",
                    "selector": "0x9015d371",
                    "status": true,
                    "value": "0"
                },
                "nodeType": 0
            },
            "31": {
                "invocation": {
                    "address": "0x9d0993980619fdaeac696ca5fce8d16a14b876a1",
                    "callData": "0x0000000000000000000000003fc91a3afd70395cd496c647d5a6cc9d4b2b7fad000000000000000000000000000000fee13a103a10d593b9ae06b3e05f2e7e1c000000000000000000000000cfb2e3fd46ba5e52af6bacbd63f0848696d674f300000000000000000000000000000000000000000000d3c21bcecceda100000000000000000000000000000000000000000000000000d3c21bcecceda10000000000000000000000000000000000000000000000000002a5a058fc295ed00000",
                    "decodedMethod": null,
                    "errorInfo": "",
                    "fromAddress": "0x8a0a9b663693a22235b896f70a229c4a22597623",
                    "gasUsed": 956,
                    "id": 31,
                    "methodDecoded": false,
                    "operation": "CALL",
                    "output": "0x0000000000000000000000000000000000000000000000000000000000000001",
                    "revert": false,
                    "revertMessage": "",
                    "selector": "0xa20527fc",
                    "status": true,
                    "value": "0"
                },
                "nodeType": 0
            },
            "32": {
                "event": {
                    "contract": "0x8a0a9b663693a22235b896f70a229c4a22597623",
                    "decodedLog": {
                        "name": "Transfer",
                        "params": [
                            {
                                "name": "from",
                                "type": "address",
                                "value": "0x3fc91a3afd70395cd496c647d5a6cc9d4b2b7fad"
                            },
                            {
                                "name": "to",
                                "type": "address",
                                "value": "0x000000fee13a103a10d593b9ae06b3e05f2e7e1c"
                            },
                            {
                                "decimalAvailable": true,
                                "name": "value",
                                "type": "uint256",
                                "value": "58,752,818,342,795,993,463"
                            }
                        ],
                        "signature": "Transfer(address,address,uint256)"
                    },
                    "id": 32,
                    "logData": "0x0000000000000000000000000000000000000000000000032f5bf0ff3b68e177",
                    "logDecoded": true,
                    "operation": "EVENT",
                    "revert": false,
                    "status": true,
                    "topics": [
                        "0xddf252ad1be2c89b69c2b068fc378daa952ba7f163c4a11628f55a4df523b3ef",
                        "0x0000000000000000000000003fc91a3afd70395cd496c647d5a6cc9d4b2b7fad",
                        "0x000000000000000000000000000000fee13a103a10d593b9ae06b3e05f2e7e1c"
                    ]
                },
                "nodeType": 1
            },
            "33": {
                "invocation": {
                    "address": "0x8a0a9b663693a22235b896f70a229c4a22597623",
                    "callData": "0x0000000000000000000000003fc91a3afd70395cd496c647d5a6cc9d4b2b7fad",
                    "decodedMethod": {
                        "callParams": [
                            {
                                "name": "account",
                                "type": "address",
                                "value": "0x3fc91a3afd70395cd496c647d5a6cc9d4b2b7fad"
                            }
                        ],
                        "constructorArguments": "",
                        "name": "balanceOf",
                        "returnParams": [
                            {
                                "decimalAvailable": true,
                                "name": "",
                                "type": "uint256",
                                "value": "23,442,374,518,775,601,391,800"
                            }
                        ],
                        "signature": "balanceOf(address)"
                    },
                    "errorInfo": "",
                    "fromAddress": "0x3fc91a3afd70395cd496c647d5a6cc9d4b2b7fad",
                    "gasUsed": 996,
                    "id": 33,
                    "methodDecoded": true,
                    "operation": "STATICCALL",
                    "output": "0x0000000000000000000000000000000000000000000004f6d04c9dcd987768b8",
                    "revert": false,
                    "revertMessage": "",
                    "selector": "0x70a08231",
                    "status": true,
                    "value": "0"
                },
                "nodeType": 0
            },
            "34": {
                "invocation": {
                    "address": "0x8a0a9b663693a22235b896f70a229c4a22597623",
                    "callData": "0x0000000000000000000000002b2de81db10c02723eb40da2fb67f44801fa52150000000000000000000000000000000000000000000004f6d04c9dcd987768b8",
                    "decodedMethod": {
                        "callParams": [
                            {
                                "name": "to",
                                "type": "address",
                                "value": "0x2b2de81db10c02723eb40da2fb67f44801fa5215"
                            },
                            {
                                "decimalAvailable": true,
                                "name": "amount",
                                "type": "uint256",
                                "value": "23,442,374,518,775,601,391,800"
                            }
                        ],
                        "constructorArguments": "",
                        "name": "transfer",
                        "returnParams": [
                            {
                                "name": "",
                                "type": "bool",
                                "value": true
                            }
                        ],
                        "signature": "transfer(address,uint256)"
                    },
                    "errorInfo": "",
                    "fromAddress": "0x3fc91a3afd70395cd496c647d5a6cc9d4b2b7fad",
                    "gasUsed": 22377,
                    "id": 34,
                    "methodDecoded": true,
                    "operation": "CALL",
                    "output": "0x0000000000000000000000000000000000000000000000000000000000000001",
                    "revert": false,
                    "revertMessage": "",
                    "selector": "0xa9059cbb",
                    "status": true,
                    "value": "0"
                },
                "nodeType": 0
            },
            "35": {
                "invocation": {
                    "address": "0x9d0993980619fdaeac696ca5fce8d16a14b876a1",
                    "callData": "0x0000000000000000000000008a0a9b663693a22235b896f70a229c4a22597623",
                    "decodedMethod": {
                        "callParams": [
                            {
                                "name": "",
                                "type": "address",
                                "value": "0x8a0a9b663693a22235b896f70a229c4a22597623"
                            }
                        ],
                        "constructorArguments": "",
                        "name": "isEnabled",
                        "returnParams": [
                            {
                                "name": "",
                                "type": "bool",
                                "value": true
                            }
                        ],
                        "signature": "isEnabled(address)"
                    },
                    "errorInfo": "",
                    "fromAddress": "0x8a0a9b663693a22235b896f70a229c4a22597623",
                    "gasUsed": 549,
                    "id": 35,
                    "methodDecoded": true,
                    "operation": "STATICCALL",
                    "output": "0x0000000000000000000000000000000000000000000000000000000000000001",
                    "revert": false,
                    "revertMessage": "",
                    "selector": "0x9015d371",
                    "status": true,
                    "value": "0"
                },
                "nodeType": 0
            },
            "36": {
                "invocation": {
                    "address": "0x9d0993980619fdaeac696ca5fce8d16a14b876a1",
                    "callData": "0x0000000000000000000000003fc91a3afd70395cd496c647d5a6cc9d4b2b7fad0000000000000000000000002b2de81db10c02723eb40da2fb67f44801fa5215000000000000000000000000cfb2e3fd46ba5e52af6bacbd63f0848696d674f300000000000000000000000000000000000000000000d3c21bcecceda100000000000000000000000000000000000000000000000000d3c21bcecceda10000000000000000000000000000000000000000000000000002a5a058fc295ed00000",
                    "decodedMethod": null,
                    "errorInfo": "",
                    "fromAddress": "0x8a0a9b663693a22235b896f70a229c4a22597623",
                    "gasUsed": 956,
                    "id": 36,
                    "methodDecoded": false,
                    "operation": "CALL",
                    "output": "0x0000000000000000000000000000000000000000000000000000000000000001",
                    "revert": false,
                    "revertMessage": "",
                    "selector": "0xa20527fc",
                    "status": true,
                    "value": "0"
                },
                "nodeType": 0
            },
            "37": {
                "event": {
                    "contract": "0x8a0a9b663693a22235b896f70a229c4a22597623",
                    "decodedLog": {
                        "name": "Transfer",
                        "params": [
                            {
                                "name": "from",
                                "type": "address",
                                "value": "0x3fc91a3afd70395cd496c647d5a6cc9d4b2b7fad"
                            },
                            {
                                "name": "to",
                                "type": "address",
                                "value": "0x2b2de81db10c02723eb40da2fb67f44801fa5215"
                            },
                            {
                                "decimalAvailable": true,
                                "name": "value",
                                "type": "uint256",
                                "value": "23,442,374,518,775,601,391,800"
                            }
                        ],
                        "signature": "Transfer(address,address,uint256)"
                    },
                    "id": 37,
                    "logData": "0x0000000000000000000000000000000000000000000004f6d04c9dcd987768b8",
                    "logDecoded": true,
                    "operation": "EVENT",
                    "revert": false,
                    "status": true,
                    "topics": [
                        "0xddf252ad1be2c89b69c2b068fc378daa952ba7f163c4a11628f55a4df523b3ef",
                        "0x0000000000000000000000003fc91a3afd70395cd496c647d5a6cc9d4b2b7fad",
                        "0x0000000000000000000000002b2de81db10c02723eb40da2fb67f44801fa5215"
                    ]
                },
                "nodeType": 1
            },
            "4": {
                "event": {
                    "contract": "0x32b053f2cba79f80ada5078cb6b305da92bde6e1",
                    "decodedLog": {
                        "name": "Transfer",
                        "params": [
                            {
                                "name": "from",
                                "type": "address",
                                "value": "0x2b2de81db10c02723eb40da2fb67f44801fa5215"
                            },
                            {
                                "name": "to",
                                "type": "address",
                                "value": "0x1112956589a2bea1b038732db4ea6b0c416ef130"
                            },
                            {
                                "decimalAvailable": true,
                                "name": "value",
                                "type": "uint256",
                                "value": "38,400,000,000,000,000,000"
                            }
                        ],
                        "signature": "Transfer(address,address,uint256)"
                    },
                    "id": 4,
                    "logData": "0x00000000000000000000000000000000000000000000000214e8348c4f000000",
                    "logDecoded": true,
                    "operation": "EVENT",
                    "revert": false,
                    "status": true,
                    "topics": [
                        "0xddf252ad1be2c89b69c2b068fc378daa952ba7f163c4a11628f55a4df523b3ef",
                        "0x0000000000000000000000002b2de81db10c02723eb40da2fb67f44801fa5215",
                        "0x0000000000000000000000001112956589a2bea1b038732db4ea6b0c416ef130"
                    ]
                },
                "nodeType": 1
            },
            "5": {
                "event": {
                    "contract": "0x32b053f2cba79f80ada5078cb6b305da92bde6e1",
                    "decodedLog": {
                        "name": "Approval",
                        "params": [
                            {
                                "name": "owner",
                                "type": "address",
                                "value": "0x2b2de81db10c02723eb40da2fb67f44801fa5215"
                            },
                            {
                                "name": "spender",
                                "type": "address",
                                "value": "0x000000000022d473030f116ddee9f6b43ac78ba3"
                            },
                            {
                                "decimalAvailable": true,
                                "name": "value",
                                "type": "uint256",
                                "value": "115,792,089,237,316,195,423,570,985,008,687,907,853,269,984,665,640,564,039,220,709,322,862,614,794,694"
                            }
                        ],
                        "signature": "Approval(address,address,uint256)"
                    },
                    "id": 5,
                    "logData": "0xfffffffffffffffffffffffffffffffffffffffffffffff328b410f66187d1c6",
                    "logDecoded": true,
                    "operation": "EVENT",
                    "revert": false,
                    "status": true,
                    "topics": [
                        "0x8c5be1e5ebec7d5bd14f71427d1e84f3dd0314c0f7b2291e5b200ac8c7c3b925",
                        "0x0000000000000000000000002b2de81db10c02723eb40da2fb67f44801fa5215",
                        "0x000000000000000000000000000000000022d473030f116ddee9f6b43ac78ba3"
                    ]
                },
                "nodeType": 1
            },
            "6": {
                "invocation": {
                    "address": "0x8a0a9b663693a22235b896f70a229c4a22597623",
                    "callData": "0x0000000000000000000000003fc91a3afd70395cd496c647d5a6cc9d4b2b7fad",
                    "decodedMethod": {
                        "callParams": [
                            {
                                "name": "account",
                                "type": "address",
                                "value": "0x3fc91a3afd70395cd496c647d5a6cc9d4b2b7fad"
                            }
                        ],
                        "constructorArguments": "",
                        "name": "balanceOf",
                        "returnParams": [
                            {
                                "decimalAvailable": true,
                                "name": "",
                                "type": "uint256",
                                "value": "0"
                            }
                        ],
                        "signature": "balanceOf(address)"
                    },
                    "errorInfo": "",
                    "fromAddress": "0x3fc91a3afd70395cd496c647d5a6cc9d4b2b7fad",
                    "gasUsed": 2996,
                    "id": 6,
                    "methodDecoded": true,
                    "operation": "STATICCALL",
                    "output": "0x0000000000000000000000000000000000000000000000000000000000000000",
                    "revert": false,
                    "revertMessage": "",
                    "selector": "0x70a08231",
                    "status": true,
                    "value": "0"
                },
                "nodeType": 0
            },
            "7": {
                "invocation": {
                    "address": "0x1112956589a2bea1b038732db4ea6b0c416ef130",
                    "callData": "0x",
                    "decodedMethod": {
                        "callParams": [],
                        "constructorArguments": "",
                        "name": "getReserves",
                        "returnParams": [
                            {
                                "name": "_reserve0",
                                "type": "uint112",
                                "value": "270,651,726,819,475,990,123,589"
                            },
                            {
                                "name": "_reserve1",
                                "type": "uint112",
                                "value": "325,513,796,092,503,300,299"
                            },
                            {
                                "name": "_blockTimestampLast",
                                "type": "uint32",
                                "value": "1,721,659,595"
                            }
                        ],
                        "signature": "getReserves()"
                    },
                    "errorInfo": "",
                    "fromAddress": "0x3fc91a3afd70395cd496c647d5a6cc9d4b2b7fad",
                    "gasUsed": 2504,
                    "id": 7,
                    "methodDecoded": true,
                    "operation": "STATICCALL",
                    "output": "0x0000000000000000000000000000000000000000000039500f3c1001e2461445000000000000000000000000000000000000000000000011a56950e66e9898cb00000000000000000000000000000000000000000000000000000000669e70cb",
                    "revert": false,
                    "revertMessage": "",
                    "selector": "0x0902f1ac",
                    "status": true,
                    "value": "0"
                },
                "nodeType": 0
            },
            "8": {
                "invocation": {
                    "address": "0x32b053f2cba79f80ada5078cb6b305da92bde6e1",
                    "callData": "0x0000000000000000000000001112956589a2bea1b038732db4ea6b0c416ef130",
                    "decodedMethod": {
                        "callParams": [
                            {
                                "name": "account",
                                "type": "address",
                                "value": "0x1112956589a2bea1b038732db4ea6b0c416ef130"
                            }
                        ],
                        "constructorArguments": "",
                        "name": "balanceOf",
                        "returnParams": [
                            {
                                "decimalAvailable": true,
                                "name": "",
                                "type": "uint256",
                                "value": "270,690,126,819,475,990,123,589"
                            }
                        ],
                        "signature": "balanceOf(address)"
                    },
                    "errorInfo": "",
                    "fromAddress": "0x3fc91a3afd70395cd496c647d5a6cc9d4b2b7fad",
                    "gasUsed": 974,
                    "id": 8,
                    "methodDecoded": true,
                    "operation": "STATICCALL",
                    "output": "0x0000000000000000000000000000000000000000000039522424448e31461445",
                    "revert": false,
                    "revertMessage": "",
                    "selector": "0x70a08231",
                    "status": true,
                    "value": "0"
                },
                "nodeType": 0
            },
            "9": {
                "invocation": {
                    "address": "0x1112956589a2bea1b038732db4ea6b0c416ef130",
                    "callData": "0x000000000000000000000000000000000000000000000000000000000000000000000000000000000000000000000000000000000000000000a390007d9d2aa5000000000000000000000000cfb2e3fd46ba5e52af6bacbd63f0848696d674f300000000000000000000000000000000000000000000000000000000000000800000000000000000000000000000000000000000000000000000000000000000",
                    "decodedMethod": {
                        "callParams": [
                            {
                                "name": "amount0Out",
                                "type": "uint256",
                                "value": "0"
                            },
                            {
                                "name": "amount1Out",
                                "type": "uint256",
                                "value": "46,038,752,985,688,741"
                            },
                            {
                                "name": "to",
                                "type": "address",
                                "value": "0xcfb2e3fd46ba5e52af6bacbd63f0848696d674f3"
                            },
                            {
                                "name": "data",
                                "type": "bytes",
                                "value": "0x"
                            }
                        ],
                        "constructorArguments": "",
                        "name": "swap",
                        "returnParams": [],
                        "signature": "swap(uint256,uint256,address,bytes)"
                    },
                    "errorInfo": "",
                    "fromAddress": "0x3fc91a3afd70395cd496c647d5a6cc9d4b2b7fad",
                    "gasUsed": 48193,
                    "id": 9,
                    "methodDecoded": true,
                    "operation": "CALL",
                    "output": "",
                    "revert": false,
                    "revertMessage": "",
                    "selector": "0x022c0d9f",
                    "status": true,
                    "value": "0"
                },
                "nodeType": 0
            }
        },
        "gasFlame": [
            {
                "children": [
                    {
                        "children": [
                            {
                                "children": [],
                                "depth": 0,
                                "name": "Initial Gas",
                                "value": 26560
                            },
                            {
                                "children": [
                                    {
                                        "children": [
                                            {
                                                "children": [],
                                                "depth": 2,
                                                "name": "transferFrom",
                                                "value": 51210
                                            }
                                        ],
                                        "depth": 1,
                                        "name": "transferFrom",
                                        "value": 56917
                                    },
                                    {
                                        "children": [],
                                        "depth": 1,
                                        "name": "balanceOf",
                                        "value": 2996
                                    },
                                    {
                                        "children": [],
                                        "depth": 1,
                                        "name": "getReserves",
                                        "value": 2504
                                    },
                                    {
                                        "children": [],
                                        "depth": 1,
                                        "name": "balanceOf",
                                        "value": 974
                                    },
                                    {
                                        "children": [
                                            {
                                                "children": [],
                                                "depth": 2,
                                                "name": "transfer",
                                                "value": 12862
                                            },
                                            {
                                                "children": [],
                                                "depth": 2,
                                                "name": "balanceOf",
                                                "value": 974
                                            },
                                            {
                                                "children": [],
                                                "depth": 2,
                                                "name": "balanceOf",
                                                "value": 534
                                            }
                                        ],
                                        "depth": 1,
                                        "name": "swap",
                                        "value": 48193
                                    },
                                    {
                                        "children": [],
                                        "depth": 1,
                                        "name": "getReserves",
                                        "value": 2504
                                    },
                                    {
                                        "children": [],
                                        "depth": 1,
                                        "name": "balanceOf",
                                        "value": 534
                                    },
                                    {
                                        "children": [
                                            {
                                                "children": [
                                                    {
                                                        "children": [],
                                                        "depth": 3,
                                                        "name": "isEnabled",
                                                        "value": 2549
                                                    },
                                                    {
                                                        "children": [],
                                                        "depth": 3,
                                                        "name": "0xa20527fc",
                                                        "value": 956
                                                    }
                                                ],
                                                "depth": 2,
                                                "name": "transfer",
                                                "value": 70888
                                            },
                                            {
                                                "children": [],
                                                "depth": 2,
                                                "name": "balanceOf",
                                                "value": 996
                                            },
                                            {
                                                "children": [],
                                                "depth": 2,
                                                "name": "balanceOf",
                                                "value": 534
                                            }
                                        ],
                                        "depth": 1,
                                        "name": "swap",
                                        "value": 103741
                                    },
                                    {
                                        "children": [],
                                        "depth": 1,
                                        "name": "balanceOf",
                                        "value": 996
                                    },
                                    {
                                        "children": [],
                                        "depth": 1,
                                        "name": "balanceOf",
                                        "value": 996
                                    },
                                    {
                                        "children": [
                                            {
                                                "children": [],
                                                "depth": 2,
                                                "name": "isEnabled",
                                                "value": 549
                                            },
                                            {
                                                "children": [],
                                                "depth": 2,
                                                "name": "0xa20527fc",
                                                "value": 956
                                            }
                                        ],
                                        "depth": 1,
                                        "name": "transfer",
                                        "value": 22377
                                    },
                                    {
                                        "children": [],
                                        "depth": 1,
                                        "name": "balanceOf",
                                        "value": 996
                                    },
                                    {
                                        "children": [
                                            {
                                                "children": [],
                                                "depth": 2,
                                                "name": "isEnabled",
                                                "value": 549
                                            },
                                            {
                                                "children": [],
                                                "depth": 2,
                                                "name": "0xa20527fc",
                                                "value": 956
                                            }
                                        ],
                                        "depth": 1,
                                        "name": "transfer",
                                        "value": 22377
                                    }
                                ],
                                "depth": 0,
                                "name": "Executed Gas",
                                "value": 295255
                            }
                        ],
                        "depth": -1,
                        "name": "Actual Gas Used",
                        "value": 293515
                    },
                    {
                        "children": [],
                        "depth": -1,
                        "name": "Refunded Gas",
                        "value": 28300
                    }
                ],
                "depth": -2,
                "name": "Total Gas",
                "value": 321815
            }
        ],
        "isConfirmed": true,
        "mainTrace": [
            {
                "children": [
                    {
                        "children": [
                            {
                                "children": [
                                    {
                                        "children": [
                                            {
                                                "children": [],
                                                "depth": 3,
                                                "id": 3,
                                                "order": 3
                                            },
                                            {
                                                "children": [],
                                                "depth": 3,
                                                "id": 4,
                                                "order": 4
                                            },
                                            {
                                                "children": [],
                                                "depth": 3,
                                                "id": 5,
                                                "order": 5
                                            }
                                        ],
                                        "depth": 2,
                                        "id": 2,
                                        "order": 2
                                    }
                                ],
                                "depth": 1,
                                "id": 1,
                                "order": 1
                            },
                            {
                                "children": [],
                                "depth": 1,
                                "id": 6,
                                "order": 6
                            },
                            {
                                "children": [],
                                "depth": 1,
                                "id": 7,
                                "order": 7
                            },
                            {
                                "children": [],
                                "depth": 1,
                                "id": 8,
                                "order": 8
                            },
                            {
                                "children": [
                                    {
                                        "children": [
                                            {
                                                "children": [],
                                                "depth": 3,
                                                "id": 11,
                                                "order": 11
                                            }
                                        ],
                                        "depth": 2,
                                        "id": 10,
                                        "order": 10
                                    },
                                    {
                                        "children": [],
                                        "depth": 2,
                                        "id": 12,
                                        "order": 12
                                    },
                                    {
                                        "children": [],
                                        "depth": 2,
                                        "id": 13,
                                        "order": 13
                                    },
                                    {
                                        "children": [],
                                        "depth": 2,
                                        "id": 14,
                                        "order": 14
                                    },
                                    {
                                        "children": [],
                                        "depth": 2,
                                        "id": 15,
                                        "order": 15
                                    }
                                ],
                                "depth": 1,
                                "id": 9,
                                "order": 9
                            },
                            {
                                "children": [],
                                "depth": 1,
                                "id": 16,
                                "order": 16
                            },
                            {
                                "children": [],
                                "depth": 1,
                                "id": 17,
                                "order": 17
                            },
                            {
                                "children": [
                                    {
                                        "children": [
                                            {
                                                "children": [],
                                                "depth": 3,
                                                "id": 20,
                                                "order": 20
                                            },
                                            {
                                                "children": [],
                                                "depth": 3,
                                                "id": 21,
                                                "order": 21
                                            },
                                            {
                                                "children": [],
                                                "depth": 3,
                                                "id": 22,
                                                "order": 22
                                            }
                                        ],
                                        "depth": 2,
                                        "id": 19,
                                        "order": 19
                                    },
                                    {
                                        "children": [],
                                        "depth": 2,
                                        "id": 23,
                                        "order": 23
                                    },
                                    {
                                        "children": [],
                                        "depth": 2,
                                        "id": 24,
                                        "order": 24
                                    },
                                    {
                                        "children": [],
                                        "depth": 2,
                                        "id": 25,
                                        "order": 25
                                    },
                                    {
                                        "children": [],
                                        "depth": 2,
                                        "id": 26,
                                        "order": 26
                                    }
                                ],
                                "depth": 1,
                                "id": 18,
                                "order": 18
                            },
                            {
                                "children": [],
                                "depth": 1,
                                "id": 27,
                                "order": 27
                            },
                            {
                                "children": [],
                                "depth": 1,
                                "id": 28,
                                "order": 28
                            },
                            {
                                "children": [
                                    {
                                        "children": [],
                                        "depth": 2,
                                        "id": 30,
                                        "order": 30
                                    },
                                    {
                                        "children": [],
                                        "depth": 2,
                                        "id": 31,
                                        "order": 31
                                    },
                                    {
                                        "children": [],
                                        "depth": 2,
                                        "id": 32,
                                        "order": 32
                                    }
                                ],
                                "depth": 1,
                                "id": 29,
                                "order": 29
                            },
                            {
                                "children": [],
                                "depth": 1,
                                "id": 33,
                                "order": 33
                            },
                            {
                                "children": [
                                    {
                                        "children": [],
                                        "depth": 2,
                                        "id": 35,
                                        "order": 35
                                    },
                                    {
                                        "children": [],
                                        "depth": 2,
                                        "id": 36,
                                        "order": 36
                                    },
                                    {
                                        "children": [],
                                        "depth": 2,
                                        "id": 37,
                                        "order": 37
                                    }
                                ],
                                "depth": 1,
                                "id": 34,
                                "order": 34
                            }
                        ],
                        "depth": 0,
                        "id": 0,
                        "order": 0
                    }
                ],
                "depth": -1,
                "id": -1,
                "order": -1
            }
        ],
        "mainTraceNodeCount": 38,
        "parentIdMap": {
            "0": -1,
            "1": 0,
            "10": 9,
            "11": 10,
            "12": 9,
            "13": 9,
            "14": 9,
            "15": 9,
            "16": 0,
            "17": 0,
            "18": 0,
            "19": 18,
            "2": 1,
            "20": 19,
            "21": 19,
            "22": 19,
            "23": 18,
            "24": 18,
            "25": 18,
            "26": 18,
            "27": 0,
            "28": 0,
            "29": 0,
            "3": 2,
            "30": 29,
            "31": 29,
            "32": 29,
            "33": 0,
            "34": 0,
            "35": 34,
            "36": 34,
            "37": 34,
            "4": 2,
            "5": 2,
            "6": 0,
            "7": 0,
            "8": 0,
            "9": 0
        },
        "tidyTrace": [
            {
                "children": [
                    {
                        "children": [
                            {
                                "children": [
                                    {
                                        "children": [
                                            {
                                                "children": [],
                                                "depth": 3,
                                                "id": 3,
                                                "order": 3
                                            },
                                            {
                                                "children": [],
                                                "depth": 3,
                                                "id": 4,
                                                "order": 4
                                            },
                                            {
                                                "children": [],
                                                "depth": 3,
                                                "id": 5,
                                                "order": 5
                                            }
                                        ],
                                        "depth": 2,
                                        "id": 2,
                                        "order": 2
                                    }
                                ],
                                "depth": 1,
                                "id": 1,
                                "order": 1
                            },
                            {
                                "children": [
                                    {
                                        "children": [
                                            {
                                                "children": [],
                                                "depth": 3,
                                                "id": 11,
                                                "order": 11
                                            }
                                        ],
                                        "depth": 2,
                                        "id": 10,
                                        "order": 10
                                    },
                                    {
                                        "children": [],
                                        "depth": 2,
                                        "id": 14,
                                        "order": 14
                                    },
                                    {
                                        "children": [],
                                        "depth": 2,
                                        "id": 15,
                                        "order": 15
                                    }
                                ],
                                "depth": 1,
                                "id": 9,
                                "order": 9
                            },
                            {
                                "children": [
                                    {
                                        "children": [
                                            {
                                                "children": [],
                                                "depth": 3,
                                                "id": 21,
                                                "order": 21
                                            },
                                            {
                                                "children": [],
                                                "depth": 3,
                                                "id": 22,
                                                "order": 22
                                            }
                                        ],
                                        "depth": 2,
                                        "id": 19,
                                        "order": 19
                                    },
                                    {
                                        "children": [],
                                        "depth": 2,
                                        "id": 25,
                                        "order": 25
                                    },
                                    {
                                        "children": [],
                                        "depth": 2,
                                        "id": 26,
                                        "order": 26
                                    }
                                ],
                                "depth": 1,
                                "id": 18,
                                "order": 18
                            },
                            {
                                "children": [
                                    {
                                        "children": [],
                                        "depth": 2,
                                        "id": 31,
                                        "order": 31
                                    },
                                    {
                                        "children": [],
                                        "depth": 2,
                                        "id": 32,
                                        "order": 32
                                    }
                                ],
                                "depth": 1,
                                "id": 29,
                                "order": 29
                            },
                            {
                                "children": [
                                    {
                                        "children": [],
                                        "depth": 2,
                                        "id": 36,
                                        "order": 36
                                    },
                                    {
                                        "children": [],
                                        "depth": 2,
                                        "id": 37,
                                        "order": 37
                                    }
                                ],
                                "depth": 1,
                                "id": 34,
                                "order": 34
                            }
                        ],
                        "depth": 0,
                        "id": 0,
                        "order": 0
                    }
                ],
                "depth": -1,
                "id": -1,
                "order": -1
            }
        ],
        "tidyTraceNodeCount": 23
    },
    "state_change": {
        "stateChanges": [
            {
                "address": "0x1112956589a2bea1b038732db4ea6b0c416ef130",
                "erc": "ERC-20",
                "slots": [
                    {
                        "current": "0x000000000000000000000000000000001526ea3a179daee756c026f2b4493a58",
                        "key": "0x0000000000000000000000000000000000000000000000000000000000000009",
                        "prev": "0x000000000000000000000000000000001526e2d66732705c875786773bf11a20"
                    },
                    {
                        "current": "0x0000000000000000000000000008ce3a5a252c5bc34263182ef67b9147c02df8",
                        "key": "0x000000000000000000000000000000000000000000000000000000000000000a",
                        "prev": "0x0000000000000000000000000008ce3a0c3221a113ab1aa302f507d48c103ee0"
                    },
                    {
                        "current": "0x669e70e3000000000011a4c5c0e5f0fb6e260000000039522424448e31461445",
                        "key": "0x0000000000000000000000000000000000000000000000000000000000000008",
                        "prev": "0x669e70cb000000000011a56950e66e9898cb0000000039500f3c1001e2461445"
                    }
                ],
                "storageVariables": [
                    {
                        "name": "price0CumulativeLast",
                        "type": "uint256",
                        "value": {
                            "current": "28115845878497019637862264021658974808",
                            "prev": "28115696003442693025426385307283036704",
                            "typeTag": 1
                        }
                    },
                    {
                        "name": "price1CumulativeLast",
                        "type": "uint256",
                        "value": {
                            "current": "196370948691003310995771780002121968659738104",
                            "prev": "196370845078501884056255593481073709609402080",
                            "typeTag": 1
                        }
                    },
                    {
                        "name": "reserve0",
                        "type": "uint112",
                        "value": {
                            "current": "270690126819475990123589",
                            "prev": "270651726819475990123589",
                            "typeTag": 1
                        }
                    },
                    {
                        "name": "reserve1",
                        "type": "uint112",
                        "value": {
                            "current": "325467757339517611558",
                            "prev": "325513796092503300299",
                            "typeTag": 1
                        }
                    },
                    {
                        "name": "blockTimestampLast",
                        "type": "uint32",
                        "value": {
                            "current": "1721659619",
                            "prev": "1721659595",
                            "typeTag": 1
                        }
                    }
                ]
            },
            {
                "address": "0x32b053f2cba79f80ada5078cb6b305da92bde6e1",
                "erc": "ERC-20",
                "slots": [
                    {
                        "current": "0x000000000000000000000000000000000000000000000002b5e3af16b1880000",
                        "key": "0x2ed6dd9b25b9516d646944dc61a3db00cd0b32169357f8f91573ecc15ace77d4",
                        "prev": "0x000000000000000000000000000000000000000000000004e1003b28d9280000"
                    },
                    {
                        "current": "0x000000000000000000000000000000000000000000000005ef9a0bb3e249a9fc",
                        "key": "0x3fb8d0651b205a93215b6430e5ae8542dc5facb0fb14350671c7716cc98aed12",
                        "prev": "0x000000000000000000000000000000000000000000000005d965b42e09a9a9fc"
                    },
                    {
                        "current": "0x0000000000000000000000000000000000000000000039522424448e31461445",
                        "key": "0x1eb8404f3e9fc88fff19dbd04148bfe1f3449e4e76a4739d1f92d4307c19ee12",
                        "prev": "0x0000000000000000000000000000000000000000000039500f3c1001e2461445"
                    },
                    {
                        "current": "0xfffffffffffffffffffffffffffffffffffffffffffffff328b410f66187d1c6",
                        "key": "0x38e437a70af4a1ce0f9c7e0dc92c106db0748d34863418ee2b2ced8236403f8b",
                        "prev": "0xfffffffffffffffffffffffffffffffffffffffffffffff553d09d088927d1c6"
                    },
                    {
                        "current": "0x000000000000000000000000000000000000000000000005ef9a0bb3e249a9fc",
                        "key": "0x0000000000000000000000000000000000000000000000000000000000000011",
                        "prev": "0x000000000000000000000000000000000000000000000005d965b42e09a9a9fc"
                    }
                ],
                "storageVariables": [
                    {
                        "name": "_balances",
                        "type": "mapping(address => uint256)",
                        "value": {
                            "pairs": [
                                {
                                    "key": "0x1112956589a2bea1b038732db4ea6b0c416ef130",
                                    "value": {
                                        "current": "270690126819475990123589",
                                        "prev": "270651726819475990123589",
                                        "typeTag": 1
                                    }
                                },
                                {
                                    "key": "0x2b2de81db10c02723eb40da2fb67f44801fa5215",
                                    "value": {
                                        "current": "50000000000000000000",
                                        "prev": "90000000000000000000",
                                        "typeTag": 1
                                    }
                                },
                                {
                                    "key": "0x32b053f2cba79f80ada5078cb6b305da92bde6e1",
                                    "value": {
                                        "current": "109498845357249505788",
                                        "prev": "107898845357249505788",
                                        "typeTag": 1
                                    }
                                }
                            ],
                            "typeTag": 4
                        }
                    },
                    {
                        "name": "_allowances",
                        "type": "mapping(address => mapping(address => uint256))",
                        "value": {
                            "pairs": [
                                {
                                    "key": "0x2b2de81db10c02723eb40da2fb67f44801fa5215",
                                    "value": {
                                        "pairs": [
                                            {
                                                "key": "0x000000000022d473030f116ddee9f6b43ac78ba3",
                                                "value": {
                                                    "current": "115792089237316195423570985008687907853269984665640564039220709322862614794694",
                                                    "prev": "115792089237316195423570985008687907853269984665640564039260709322862614794694",
                                                    "typeTag": 1
                                                }
                                            }
                                        ],
                                        "typeTag": 4
                                    }
                                }
                            ],
                            "typeTag": 4
                        }
                    },
                    {
                        "name": "tokensForTreasury",
                        "type": "uint256",
                        "value": {
                            "current": "109498845357249505788",
                            "prev": "107898845357249505788",
                            "typeTag": 1
                        }
                    }
                ]
            },
            {
                "address": "0x8a0a9b663693a22235b896f70a229c4a22597623",
                "erc": "ERC-20",
                "slots": [
                    {
                        "current": "0x000000000000000000000000000000000000000000102ea8791f2534e8de5484",
                        "key": "0x4157845653f9a759833ea46ce3da112ac8459115f1ce4dab283ae442f6a5b472",
                        "prev": "0x0000000000000000000000000000000000000000001033a278c7b401bcbe9eb3"
                    },
                    {
                        "current": "0x00000000000000000000000000000000000000000000064f6664d71006966b6b",
                        "key": "0x69d4b4ad61a248c9c09011fa9f24ebdc295eaab0719dc261fc601f40cffadeaa",
                        "prev": "0x00000000000000000000000000000000000000000000064c3708e610cb2d89f4"
                    },
                    {
                        "current": "0x000000000000000000000000000000000000000000000ada5ed2e3cb0278803d",
                        "key": "0xb3c2758047461df68f2ddd14540d94de02fa0ac5636a3481ec9aaba607715616",
                        "prev": "0x0000000000000000000000000000000000000000000005e38e8645fd6a011785"
                    }
                ],
                "storageVariables": [
                    {
                        "name": "_balances",
                        "type": "mapping(address => uint256)",
                        "value": {
                            "pairs": [
                                {
                                    "key": "0x000000fee13a103a10d593b9ae06b3e05f2e7e1c",
                                    "value": {
                                        "current": "29798869937594295544683",
                                        "prev": "29740117119251499551220",
                                        "typeTag": 1
                                    }
                                },
                                {
                                    "key": "0x2b2de81db10c02723eb40da2fb67f44801fa5215",
                                    "value": {
                                        "current": "51251887810810868170813",
                                        "prev": "27809513292035266779013",
                                        "typeTag": 1
                                    }
                                },
                                {
                                    "key": "0xcfb2e3fd46ba5e52af6bacbd63f0848696d674f3",
                                    "value": {
                                        "current": "19563149752785965722522756",
                                        "prev": "19586650880123084119908019",
                                        "typeTag": 1
                                    }
                                }
                            ],
                            "typeTag": 4
                        }
                    }
                ]
            },
            {
                "address": "0xc02aaa39b223fe8d0a0e5c4f27ead9083c756cc2",
                "erc": "ERC-20",
                "slots": [
                    {
                        "current": "0x000000000000000000000000000000000000000000000011a4c5c0e5f0fb6e26",
                        "key": "0x2dc3eba3e61184a174af8be10daca6128a264d7ffdda01d3587d6ff0bbf873e9",
                        "prev": "0x000000000000000000000000000000000000000000000011a56950e66e9898cb"
                    },
                    {
                        "current": "0x00000000000000000000000000000000000000000000000212e62ce4f31760eb",
                        "key": "0x4157845653f9a759833ea46ce3da112ac8459115f1ce4dab283ae442f6a5b472",
                        "prev": "0x00000000000000000000000000000000000000000000000212429ce4757a3646"
                    }
                ],
                "storageVariables": [
                    {
                        "name": "balanceOf",
                        "type": "mapping(address => uint256)",
                        "value": {
                            "pairs": [
                                {
                                    "key": "0x1112956589a2bea1b038732db4ea6b0c416ef130",
                                    "value": {
                                        "current": "325467757339517611558",
                                        "prev": "325513796092503300299",
                                        "typeTag": 1
                                    }
                                },
                                {
                                    "key": "0xcfb2e3fd46ba5e52af6bacbd63f0848696d674f3",
                                    "value": {
                                        "current": "38255313446587818219",
                                        "prev": "38209274693602129478",
                                        "typeTag": 1
                                    }
                                }
                            ],
                            "typeTag": 4
                        }
                    }
                ]
            },
            {
                "address": "0xcfb2e3fd46ba5e52af6bacbd63f0848696d674f3",
                "erc": "ERC-20",
                "slots": [
                    {
                        "current": "0x0000000000000000000000000000000001ffc4bfbfd19e42a2033add219f2f24",
                        "key": "0x0000000000000000000000000000000000000000000000000000000000000009",
                        "prev": "0x0000000000000000000000000000000001ffc41ea9ae2c1ed5eb7b789f5bfa10"
                    },
                    {
                        "current": "0x000000000000000000000000016d37ea1aeb3bcd7adb642e3f86ccef4a92fd68",
                        "key": "0x000000000000000000000000000000000000000000000000000000000000000a",
                        "prev": "0x000000000000000000000000016d116a8782b9f0d1be058be823b0bf947f466c"
                    },
                    {
                        "current": "0x669e70e300000000000212e62ce4f31760eb000000102ea8791f2534e8de5484",
                        "key": "0x0000000000000000000000000000000000000000000000000000000000000008",
                        "prev": "0x669e6bf700000000000212429ce4757a36460000001033a278c7b401bcbe9eb3"
                    }
                ],
                "storageVariables": [
                    {
                        "name": "price0CumulativeLast",
                        "type": "uint256",
                        "value": {
                            "current": "2657254238937702605310664925599706916",
                            "prev": "2657241476352016178874685565970414096",
                            "typeTag": 1
                        }
                    },
                    {
                        "name": "price1CumulativeLast",
                        "type": "uint256",
                        "value": {
                            "current": "8144642835045114353952379017071087977086778728",
                            "prev": "8141289156379960338351595460754100403438569068",
                            "typeTag": 1
                        }
                    },
                    {
                        "name": "reserve0",
                        "type": "uint112",
                        "value": {
                            "current": "19563149752785965722522756",
                            "prev": "19586650880123084119908019",
                            "typeTag": 1
                        }
                    },
                    {
                        "name": "reserve1",
                        "type": "uint112",
                        "value": {
                            "current": "38255313446587818219",
                            "prev": "38209274693602129478",
                            "typeTag": 1
                        }
                    },
                    {
                        "name": "blockTimestampLast",
                        "type": "uint32",
                        "value": {
                            "current": "1721659619",
                            "prev": "1721658359",
                            "typeTag": 1
                        }
                    }
                ]
            }
        ]
    }
}