{
    "balance_change": {
        "balanceChanges": [
            {
                "account": "0xb5254bcf2bbe296b3d7167d3e976621a3d3b48b6",
                "assets": [
                    {
                        "address": "0x9d9e399e5385e2b9a58d4f775a1e16441b571afb",
                        "amount": "960,658.013546028447731611",
                        "iconUrl": "",
                        "isERC1155": false,
                        "isERC721": false,
                        "sign": false,
                        "value": "587.9107376"
                    }
                ]
            },
            {
                "account": "0x6b4da3b9cdf15d757469faee395bee16f8a18e55",
                "assets": [
                    {
                        "address": "0x9d9e399e5385e2b9a58d4f775a1e16441b571afb",
                        "amount": "960,658.013546028447731611",
                        "iconUrl": "",
                        "isERC1155": false,
                        "isERC721": false,
                        "sign": true,
                        "value": "587.9107376"
                    }
                ]
            }
        ]
    },
    "profile": {
        "basic_info": {
            "baseFee": "17.283360541",
            "blockNumber": 16596856,
            "callData": "0xa9059cbb0000000000000000000000006b4da3b9cdf15d757469faee395bee16f8a18e5500000000000000000000000000000000000000000000cb6d60115fd19cc68f9b",
            "debugEnable": true,
            "errorInfo": "",
            "eventCount": 1,
            "feeRecipient": "0x8b3f5a1b5e7d989d2ab739bd0f8dca1a3640603f",
            "formatValue": "0",
            "gasLimit": 45571,
            "gasPrice": "19.95",
            "gasUsed": 40771,
            "intTxnCount": 0,
            "internalRevert": false,
            "internalRevertMessage": "",
            "isContractCreation": false,
            "isFlashloan": false,
            "maxFee": "",
            "nonce": 13,
            "overwritedBlockNumber": -1,
            "priorityFee": "",
            "receiver": "0x9d9e399e5385e2b9a58d4f775a1e16441b571afb",
            "revertMessage": "",
            "sender": "0xb5254bcf2bbe296b3d7167d3e976621a3d3b48b6",
            "simulationEnable": true,
            "sourceTxnHash": "0xf260e56e56b69a38cf54c1654b1e14a7d9bd7eba4736ab1a5cd6630bcd93d032",
            "status": true,
            "timestamp": "2023-02-10T07:26:35Z",
            "transactionFee": "0.00081338145",
            "txnHash": "0xf260e56e56b69a38cf54c1654b1e14a7d9bd7eba4736ab1a5cd6630bcd93d032",
            "txnIndex": 27,
            "type": 0,
            "value": "0"
        },
        "fund_flow": [
            {
                "amount": "960,658.013546028447731611",
                "from": "0xb5254bcf2bbe296b3d7167d3e976621a3d3b48b6",
                "id": 1,
                "isERC1155": false,
                "isERC721": false,
                "isReverted": false,
                "order": 1,
                "to": "0x6b4da3b9cdf15d757469faee395bee16f8a18e55",
                "token": "0x9d9e399e5385e2b9a58d4f775a1e16441b571afb"
            }
        ],
        "token_infos": [
            {
                "address": "0x9d9e399e5385e2b9a58d4f775a1e16441b571afb",
                "decimals": 18
            },
            {
                "address": "0xc02aaa39b223fe8d0a0e5c4f27ead9083c756cc2",
                "decimals": 18
            },
            {
                "address": "0xeeeeeeeeeeeeeeeeeeeeeeeeeeeeeeeeeeeeeeee",
                "decimals": 18
            }
        ]
    },
    "address_label": {
        "labels": [
            {
                "address": "0xeeeeeeeeeeeeeeeeeeeeeeeeeeeeeeeeeeeeeeee",
                "label": "Ether"
            },
            {
                "address": "0x9d9e399e5385e2b9a58d4f775a1e16441b571afb",
                "label": "Metano: METANO Token"
            },
            {
                "address": "0x8b3f5a1b5e7d989d2ab739bd0f8dca1a3640603f",
                "label": "PaymentSplitter"
            },
            {
                "address": "0x0000000000000000000000000000000000000001",
                "label": "Precompiled"
            },
            {
                "address": "0x0000000000000000000000000000000000000002",
                "label": "Precompiled"
            },
            {
                "address": "0x0000000000000000000000000000000000000003",
                "label": "Precompiled"
            },
            {
                "address": "0x0000000000000000000000000000000000000004",
                "label": "Precompiled"
            }
        ]
    },
    "trace": {
        "accountLabels": null,
        "dataMap": {
            "-1": {
                "invocation": {
                    "address": "0xb5254bcf2bbe296b3d7167d3e976621a3d3b48b6",
                    "callData": "",
                    "decodedMethod": null,
                    "errorInfo": "",
                    "fromAddress": "",
                    "gasUsed": 0,
                    "id": -1,
                    "methodDecoded": false,
                    "operation": "",
                    "output": "",
                    "revert": false,
                    "revertMessage": "",
                    "selector": "",
                    "status": false,
                    "value": ""
                },
                "nodeType": 0
            },
            "0": {
                "invocation": {
                    "address": "0x9d9e399e5385e2b9a58d4f775a1e16441b571afb",
                    "callData": "0x0000000000000000000000006b4da3b9cdf15d757469faee395bee16f8a18e5500000000000000000000000000000000000000000000cb6d60115fd19cc68f9b",
                    "decodedMethod": {
                        "callParams": [
                            {
                                "name": "recipient",
                                "type": "address",
                                "value": "0x6b4da3b9cdf15d757469faee395bee16f8a18e55"
                            },
                            {
                                "decimalAvailable": true,
                                "name": "amount",
                                "type": "uint256",
                                "value": "960,658,013,546,028,447,731,611"
                            }
                        ],
                        "constructorArguments": "",
                        "name": "transfer",
                        "returnParams": [
                            {
                                "name": "",
                                "type": "bool",
                                "value": true
                            }
                        ],
                        "signature": "transfer(address,uint256)"
                    },
                    "errorInfo": "",
                    "fromAddress": "0xb5254bcf2bbe296b3d7167d3e976621a3d3b48b6",
                    "gasUsed": 40771,
                    "id": 0,
                    "methodDecoded": true,
                    "operation": "CALL",
                    "output": "0x0000000000000000000000000000000000000000000000000000000000000001",
                    "revert": false,
                    "revertMessage": "",
                    "selector": "0xa9059cbb",
                    "status": true,
                    "value": "0"
                },
                "nodeType": 0
            },
            "1": {
                "event": {
                    "contract": "0x9d9e399e5385e2b9a58d4f775a1e16441b571afb",
                    "decodedLog": {
                        "name": "Transfer",
                        "params": [
                            {
                                "name": "from",
                                "type": "address",
                                "value": "0xb5254bcf2bbe296b3d7167d3e976621a3d3b48b6"
                            },
                            {
                                "name": "to",
                                "type": "address",
                                "value": "0x6b4da3b9cdf15d757469faee395bee16f8a18e55"
                            },
                            {
                                "decimalAvailable": true,
                                "name": "value",
                                "type": "uint256",
                                "value": "960,658,013,546,028,447,731,611"
                            }
                        ],
                        "signature": "Transfer(address,address,uint256)"
                    },
                    "id": 1,
                    "logData": "0x00000000000000000000000000000000000000000000cb6d60115fd19cc68f9b",
                    "logDecoded": true,
                    "operation": "EVENT",
                    "revert": false,
                    "status": true,
                    "topics": [
                        "0xddf252ad1be2c89b69c2b068fc378daa952ba7f163c4a11628f55a4df523b3ef",
                        "0x000000000000000000000000b5254bcf2bbe296b3d7167d3e976621a3d3b48b6",
                        "0x0000000000000000000000006b4da3b9cdf15d757469faee395bee16f8a18e55"
                    ]
                },
                "nodeType": 1
            }
        },
        "gasFlame": [
            {
                "children": [
                    {
                        "children": [
                            {
                                "children": [],
                                "depth": 0,
                                "name": "Initial Gas",
                                "value": 21680
                            },
                            {
                                "children": [],
                                "depth": 0,
                                "name": "Executed Gas",
                                "value": 23891
                            }
                        ],
                        "depth": -1,
                        "name": "Actual Gas Used",
                        "value": 40771
                    },
                    {
                        "children": [],
                        "depth": -1,
                        "name": "Refunded Gas",
                        "value": 4800
                    }
                ],
                "depth": -2,
                "name": "Total Gas",
                "value": 45571
            }
        ],
        "isConfirmed": true,
        "mainTrace": [
            {
                "children": [
                    {
                        "children": [
                            {
                                "children": [],
                                "depth": 1,
                                "id": 1,
                                "order": 1
                            }
                        ],
                        "depth": 0,
                        "id": 0,
                        "order": 0
                    }
                ],
                "depth": -1,
                "id": -1,
                "order": -1
            }
        ],
        "mainTraceNodeCount": 2,
        "parentIdMap": {
            "0": -1,
            "1": 0
        },
        "tidyTrace": [
            {
                "children": [
                    {
                        "children": [
                            {
                                "children": [],
                                "depth": 1,
                                "id": 1,
                                "order": 1
                            }
                        ],
                        "depth": 0,
                        "id": 0,
                        "order": 0
                    }
                ],
                "depth": -1,
                "id": -1,
                "order": -1
            }
        ],
        "tidyTraceNodeCount": 2
    },
    "state_change": {
        "stateChanges": [
            {
                "address": "0x9d9e399e5385e2b9a58d4f775a1e16441b571afb",
                "erc": "ERC-20",
                "slots": [
                    {
                        "current": "0x0000000000000000000000000000000000000000000000000000000000000000",
                        "key": "0xe08b9c1d1c5067982b3d6330b8ef6ea53a09c0e6c40490a12485578c6979869c",
                        "prev": "0x00000000000000000000000000000000000000000000cb6d60115fd19cc68f9b"
                    },
                    {
                        "current": "0x00000000000000000000000000000000000000000019c8f1c16177c700172910",
                        "key": "0x31cd30cc31547b2c294fd201aa8408e7fd7fce9435f230295fa157a9a47b55e0",
                        "prev": "0x00000000000000000000000000000000000000000018fd84615017f563509975"
                    }
                ],
                "storageVariables": [
                    {
                        "name": "_balances",
                        "type": "mapping(address => uint256)",
                        "value": {
                            "pairs": [
                                {
                                    "key": "0x6b4da3b9cdf15d757469faee395bee16f8a18e55",
                                    "value": {
                                        "current": "31172078386811841057073424",
                                        "prev": "30211420373265812609341813",
                                        "typeTag": 1
                                    }
                                },
                                {
                                    "key": "0xb5254bcf2bbe296b3d7167d3e976621a3d3b48b6",
                                    "value": {
                                        "current": "0",
                                        "prev": "960658013546028447731611",
                                        "typeTag": 1
                                    }
                                }
                            ],
                            "typeTag": 4
                        }
                    }
                ]
            }
        ]
    }
}