{
    "balance_change": {
        "balanceChanges": [
            {
                "account": "0xacc776ee1822e470099d930ce09aa3d727369cf3",
                "assets": [
                    {
                        "address": "0xeeeeeeeeeeeeeeeeeeeeeeeeeeeeeeeeeeeeeeee",
                        "amount": "0.005",
                        "iconUrl": "https://assets.blocksec.com/image/1663669189317-3.png",
                        "isERC1155": false,
                        "isERC721": false,
                        "sign": false,
                        "value": "10.3124"
                    },
                    {
                        "address": "0x37236cd05b34cc79d3715af2383e96dd7443dcf1",
                        "amount": "200",
                        "iconUrl": "",
                        "isERC1155": false,
                        "isERC721": false,
                        "sign": false,
                        "value": "17.41090459"
                    },
                    {
                        "address": "0xf5b0a3efb8e8e4c201e2a935f110eaaf3ffecb8d",
                        "amount": "269,535",
                        "iconUrl": "",
                        "isERC1155": false,
                        "isERC721": false,
                        "sign": true,
                        "value": ""
                    }
                ]
            },
            {
                "account": "0x0000000000000000000000000000000000000000",
                "assets": [
                    {
                        "address": "0x37236cd05b34cc79d3715af2383e96dd7443dcf1",
                        "amount": "200",
                        "iconUrl": "",
                        "isERC1155": false,
                        "isERC721": false,
                        "sign": true,
                        "value": "17.41090459"
                    },
                    {
                        "address": "0xf5b0a3efb8e8e4c201e2a935f110eaaf3ffecb8d",
                        "amount": "269,535",
                        "iconUrl": "",
                        "isERC1155": false,
                        "isERC721": false,
                        "sign": false,
                        "value": ""
                    }
                ]
            },
            {
                "account": "0x01aac5236ad205ebbe4f6819bc64ef5bef40b71c",
                "assets": [
                    {
                        "address": "0xeeeeeeeeeeeeeeeeeeeeeeeeeeeeeeeeeeeeeeee",
                        "amount": "0.005",
                        "iconUrl": "https://assets.blocksec.com/image/1663669189317-3.png",
                        "isERC1155": false,
                        "isERC721": false,
                        "sign": true,
                        "value": "10.3124"
                    }
                ]
            }
        ]
    },
    "profile": {
        "basic_info": {
            "baseFee": "",
            "blockNumber": 12201423,
            "callData": "0xf5e5406300000000000000000000000001aac5236ad205ebbe4f6819bc64ef5bef40b71c000000000000000000000000000000000000000000000000000000003b9aca0000000000000000000000000000000000000000000000000000000000000000600000000000000000000000000000000000000000000000000000000000000060000000000000000000000000000000000000000000000000000000000003a649000000000000000000000000000000000000000000000000000000000003a4f90000000000000000000000000000000000000000000000000000000000000000",
            "debugEnable": true,
            "errorInfo": "",
            "eventCount": 4,
            "feeRecipient": "0x5a0b54d5dc17e0aadc383d2db43b0a0d3e029c4c",
            "formatValue": "0.005",
            "gasLimit": 531011,
            "gasPrice": "95",
            "gasUsed": 472858,
            "intTxnCount": 25,
            "internalRevert": false,
            "internalRevertMessage": "",
            "isContractCreation": false,
            "isFlashloan": false,
            "maxFee": "",
            "nonce": 2448,
            "overwritedBlockNumber": -1,
            "priorityFee": "",
            "receiver": "0x37236cd05b34cc79d3715af2383e96dd7443dcf1",
            "revertMessage": "",
            "sender": "0xacc776ee1822e470099d930ce09aa3d727369cf3",
            "simulationEnable": true,
            "sourceTxnHash": "0xf3a5e72d678e0e7e9c3290f5bdb8b6917469b4e776f7657c2e2bbc21a0b732f6",
            "status": true,
            "timestamp": "2021-04-08T20:44:59Z",
            "transactionFee": "0.04492151",
            "txnHash": "0xf3a5e72d678e0e7e9c3290f5bdb8b6917469b4e776f7657c2e2bbc21a0b732f6",
            "txnIndex": 52,
            "type": 0,
            "value": "5000000000000000"
        },
        "fund_flow": [
            {
                "amount": "0.005",
                "from": "0xacc776ee1822e470099d930ce09aa3d727369cf3",
                "id": 1,
                "isERC1155": false,
                "isERC721": false,
                "isReverted": false,
                "order": 1,
                "to": "0x37236cd05b34cc79d3715af2383e96dd7443dcf1",
                "token": "0xeeeeeeeeeeeeeeeeeeeeeeeeeeeeeeeeeeeeeeee"
            },
            {
                "amount": "0.005",
                "from": "0x37236cd05b34cc79d3715af2383e96dd7443dcf1",
                "id": 2,
                "isERC1155": false,
                "isERC721": false,
                "isReverted": false,
                "order": 2,
                "to": "0x01aac5236ad205ebbe4f6819bc64ef5bef40b71c",
                "token": "0xeeeeeeeeeeeeeeeeeeeeeeeeeeeeeeeeeeeeeeee"
            },
            {
                "amount": "200",
                "from": "0xacc776ee1822e470099d930ce09aa3d727369cf3",
                "id": 3,
                "isERC1155": false,
                "isERC721": false,
                "isReverted": false,
                "order": 3,
                "to": "0x0000000000000000000000000000000000000000",
                "token": "0x37236cd05b34cc79d3715af2383e96dd7443dcf1"
            },
            {
                "amount": "269,535",
                "from": "0x0000000000000000000000000000000000000000",
                "id": 4,
                "isERC1155": false,
                "isERC721": false,
                "isReverted": false,
                "order": 4,
                "to": "0xacc776ee1822e470099d930ce09aa3d727369cf3",
                "token": "0xf5b0a3efb8e8e4c201e2a935f110eaaf3ffecb8d"
            }
        ],
        "token_infos": [
            {
                "address": "0x37236cd05b34cc79d3715af2383e96dd7443dcf1",
                "decimals": 0
            },
            {
                "address": "0xc02aaa39b223fe8d0a0e5c4f27ead9083c756cc2",
                "decimals": 18
            },
            {
                "address": "0xf5b0a3efb8e8e4c201e2a935f110eaaf3ffecb8d",
                "decimals": -1
            },
            {
                "address": "0xeeeeeeeeeeeeeeeeeeeeeeeeeeeeeeeeeeeeeeee",
                "decimals": 18
            }
        ]
    },
    "address_label": {
        "labels": [
            {
                "address": "0x0000000000000000000000000000000000000004",
                "label": "Precompiled"
            },
            {
                "address": "0xeeeeeeeeeeeeeeeeeeeeeeeeeeeeeeeeeeeeeeee",
                "label": "Ether"
            },
            {
                "address": "0xf5b0a3efb8e8e4c201e2a935f110eaaf3ffecb8d",
                "label": "Axie Infinity: AXIE Token"
            },
            {
                "address": "0x37236cd05b34cc79d3715af2383e96dd7443dcf1",
                "label": "Small Love Potion: Old SLP Token"
            },
            {
                "address": "0x01aac5236ad205ebbe4f6819bc64ef5bef40b71c",
                "label": "Axie Infinity: Breeding Contract #1"
            },
            {
                "address": "0x0000000000000000000000000000000000000001",
                "label": "Precompiled"
            },
            {
                "address": "0x0000000000000000000000000000000000000002",
                "label": "Precompiled"
            },
            {
                "address": "0x0000000000000000000000000000000000000003",
                "label": "Precompiled"
            }
        ]
    },
    "trace": {
        "accountLabels": null,
        "dataMap": {
            "-1": {
                "invocation": {
                    "address": "0xacc776ee1822e470099d930ce09aa3d727369cf3",
                    "callData": "",
                    "decodedMethod": null,
                    "errorInfo": "",
                    "fromAddress": "",
                    "gasUsed": 0,
                    "id": -1,
                    "methodDecoded": false,
                    "operation": "",
                    "output": "",
                    "revert": false,
                    "revertMessage": "",
                    "selector": "",
                    "status": false,
                    "value": ""
                },
                "nodeType": 0
            },
            "0": {
                "invocation": {
                    "address": "0x37236cd05b34cc79d3715af2383e96dd7443dcf1",
                    "callData": "0x00000000000000000000000001aac5236ad205ebbe4f6819bc64ef5bef40b71c000000000000000000000000000000000000000000000000000000003b9aca0000000000000000000000000000000000000000000000000000000000000000600000000000000000000000000000000000000000000000000000000000000060000000000000000000000000000000000000000000000000000000000003a649000000000000000000000000000000000000000000000000000000000003a4f90000000000000000000000000000000000000000000000000000000000000000",
                    "decodedMethod": null,
                    "errorInfo": "",
                    "fromAddress": "0xacc776ee1822e470099d930ce09aa3d727369cf3",
                    "gasUsed": 472858,
                    "id": 0,
                    "methodDecoded": false,
                    "operation": "CALL",
                    "output": "0x0000000000000000000000000000000000000000000000000000000000000001",
                    "revert": false,
                    "revertMessage": "",
                    "selector": "0xf5e54063",
                    "status": true,
                    "value": "0.005"
                },
                "nodeType": 0
            },
            "1": {
                "event": {
                    "contract": "0x37236cd05b34cc79d3715af2383e96dd7443dcf1",
                    "decodedLog": {
                        "name": "Approval",
                        "params": [
                            {
                                "name": "owner",
                                "type": "address",
                                "value": "0xacc776ee1822e470099d930ce09aa3d727369cf3"
                            },
                            {
                                "name": "spender",
                                "type": "address",
                                "value": "0x01aac5236ad205ebbe4f6819bc64ef5bef40b71c"
                            },
                            {
                                "decimalAvailable": true,
                                "name": "value",
                                "type": "uint256",
                                "value": "1,000,000,000"
                            }
                        ],
                        "signature": "Approval(address,address,uint256)"
                    },
                    "id": 1,
                    "logData": "0x000000000000000000000000000000000000000000000000000000003b9aca00",
                    "logDecoded": true,
                    "operation": "EVENT",
                    "revert": false,
                    "status": true,
                    "topics": [
                        "0x8c5be1e5ebec7d5bd14f71427d1e84f3dd0314c0f7b2291e5b200ac8c7c3b925",
                        "0x000000000000000000000000acc776ee1822e470099d930ce09aa3d727369cf3",
                        "0x00000000000000000000000001aac5236ad205ebbe4f6819bc64ef5bef40b71c"
                    ]
                },
                "nodeType": 1
            },
            "10": {
                "invocation": {
                    "address": "0x10e304a53351b272dc415ad049ad06565ebdfe34",
                    "callData": "0x000000000000000000000000000000000000000000000000000000000003a649000000000000000000000000000000000000000000000000000000000003a4f9",
                    "decodedMethod": null,
                    "errorInfo": "",
                    "fromAddress": "0x01aac5236ad205ebbe4f6819bc64ef5bef40b71c",
                    "gasUsed": 12319,
                    "id": 10,
                    "methodDecoded": false,
                    "operation": "CALL",
                    "output": "0x0000000000000000000000000000000000000000000000000000000000000001",
                    "revert": false,
                    "revertMessage": "",
                    "selector": "0x7d831dd4",
                    "status": true,
                    "value": "0"
                },
                "nodeType": 0
            },
            "11": {
                "invocation": {
                    "address": "0x10e304a53351b272dc415ad049ad06565ebdfe34",
                    "callData": "0x000000000000000000000000000000000000000000000000000000000003a649",
                    "decodedMethod": {
                        "callParams": [
                            {
                                "name": "balance",
                                "type": "uint256",
                                "value": "239,177"
                            }
                        ],
                        "constructorArguments": "",
                        "name": "getExtra",
                        "returnParams": [
                            {
                                "name": "",
                                "type": "uint8",
                                "value": "82"
                            }
                        ],
                        "signature": "getExtra(uint256)"
                    },
                    "errorInfo": "",
                    "fromAddress": "0x01aac5236ad205ebbe4f6819bc64ef5bef40b71c",
                    "gasUsed": 4026,
                    "id": 11,
                    "methodDecoded": true,
                    "operation": "CALL",
                    "output": "0x0000000000000000000000000000000000000000000000000000000000038d520000000000000000000000000000000000000000000000000000000000038f7800000000000000000000000000000000000000000000000000000000000000000000000000000000000000000000000000000000000000000000000000000000",
                    "revert": false,
                    "revertMessage": "",
                    "selector": "0x893bb0bf",
                    "status": true,
                    "value": "0"
                },
                "nodeType": 0
            },
            "12": {
                "invocation": {
                    "address": "0x10e304a53351b272dc415ad049ad06565ebdfe34",
                    "callData": "0x000000000000000000000000000000000000000000000000000000000003a6490000000000000000000000000000000000000000000000000000000000000001",
                    "decodedMethod": null,
                    "errorInfo": "",
                    "fromAddress": "0x01aac5236ad205ebbe4f6819bc64ef5bef40b71c",
                    "gasUsed": 29619,
                    "id": 12,
                    "methodDecoded": false,
                    "operation": "CALL",
                    "output": "",
                    "revert": false,
                    "revertMessage": "",
                    "selector": "0xcace40be",
                    "status": true,
                    "value": "0"
                },
                "nodeType": 0
            },
            "13": {
                "invocation": {
                    "address": "0x26c89cf33b8473ea8e0513e17bd674d8fd0bc2cd",
                    "callData": "0x000000000000000000000000000000000000000000000000000000000003a64900000000000000000000000000000000000000000000000000000000000000010000000000000000000000000000000000000000000000000000000000000000",
                    "decodedMethod": null,
                    "errorInfo": "",
                    "fromAddress": "0x10e304a53351b272dc415ad049ad06565ebdfe34",
                    "gasUsed": 4333,
                    "id": 13,
                    "methodDecoded": false,
                    "operation": "CALL",
                    "output": "0x0000000000000000000000000000000000000000000000000000000000000001",
                    "revert": false,
                    "revertMessage": "",
                    "selector": "0x771c0ad9",
                    "status": true,
                    "value": "0"
                },
                "nodeType": 0
            },
            "14": {
                "invocation": {
                    "address": "0x10e304a53351b272dc415ad049ad06565ebdfe34",
                    "callData": "0x",
                    "decodedMethod": {
                        "callParams": [],
                        "constructorArguments": "",
                        "name": "paused",
                        "returnParams": [
                            {
                                "name": "",
                                "type": "bool",
                                "value": false
                            }
                        ],
                        "signature": "paused()"
                    },
                    "errorInfo": "",
                    "fromAddress": "0x26c89cf33b8473ea8e0513e17bd674d8fd0bc2cd",
                    "gasUsed": 1419,
                    "id": 14,
                    "methodDecoded": true,
                    "operation": "CALL",
                    "output": "0x0000000000000000000000000000000000000000000000000000000000000000",
                    "revert": false,
                    "revertMessage": "",
                    "selector": "0x5c975abb",
                    "status": true,
                    "value": "0"
                },
                "nodeType": 0
            },
            "15": {
                "invocation": {
                    "address": "0x10e304a53351b272dc415ad049ad06565ebdfe34",
                    "callData": "0x000000000000000000000000000000000000000000000000000000000003a4f9",
                    "decodedMethod": {
                        "callParams": [
                            {
                                "name": "balance",
                                "type": "uint256",
                                "value": "238,841"
                            }
                        ],
                        "constructorArguments": "",
                        "name": "getExtra",
                        "returnParams": [
                            {
                                "name": "",
                                "type": "uint8",
                                "value": "248"
                            }
                        ],
                        "signature": "getExtra(uint256)"
                    },
                    "errorInfo": "",
                    "fromAddress": "0x01aac5236ad205ebbe4f6819bc64ef5bef40b71c",
                    "gasUsed": 4026,
                    "id": 15,
                    "methodDecoded": true,
                    "operation": "CALL",
                    "output": "0x00000000000000000000000000000000000000000000000000000000000389f80000000000000000000000000000000000000000000000000000000000038d4d00000000000000000000000000000000000000000000000000000000000000000000000000000000000000000000000000000000000000000000000000000000",
                    "revert": false,
                    "revertMessage": "",
                    "selector": "0x893bb0bf",
                    "status": true,
                    "value": "0"
                },
                "nodeType": 0
            },
            "16": {
                "invocation": {
                    "address": "0x10e304a53351b272dc415ad049ad06565ebdfe34",
                    "callData": "0x000000000000000000000000000000000000000000000000000000000003a4f90000000000000000000000000000000000000000000000000000000000000001",
                    "decodedMethod": null,
                    "errorInfo": "",
                    "fromAddress": "0x01aac5236ad205ebbe4f6819bc64ef5bef40b71c",
                    "gasUsed": 29619,
                    "id": 16,
                    "methodDecoded": false,
                    "operation": "CALL",
                    "output": "",
                    "revert": false,
                    "revertMessage": "",
                    "selector": "0xcace40be",
                    "status": true,
                    "value": "0"
                },
                "nodeType": 0
            },
            "17": {
                "invocation": {
                    "address": "0x26c89cf33b8473ea8e0513e17bd674d8fd0bc2cd",
                    "callData": "0x000000000000000000000000000000000000000000000000000000000003a4f900000000000000000000000000000000000000000000000000000000000000010000000000000000000000000000000000000000000000000000000000000000",
                    "decodedMethod": null,
                    "errorInfo": "",
                    "fromAddress": "0x10e304a53351b272dc415ad049ad06565ebdfe34",
                    "gasUsed": 4333,
                    "id": 17,
                    "methodDecoded": false,
                    "operation": "CALL",
                    "output": "0x0000000000000000000000000000000000000000000000000000000000000001",
                    "revert": false,
                    "revertMessage": "",
                    "selector": "0x771c0ad9",
                    "status": true,
                    "value": "0"
                },
                "nodeType": 0
            },
            "18": {
                "invocation": {
                    "address": "0x10e304a53351b272dc415ad049ad06565ebdfe34",
                    "callData": "0x",
                    "decodedMethod": {
                        "callParams": [],
                        "constructorArguments": "",
                        "name": "paused",
                        "returnParams": [
                            {
                                "name": "",
                                "type": "bool",
                                "value": false
                            }
                        ],
                        "signature": "paused()"
                    },
                    "errorInfo": "",
                    "fromAddress": "0x26c89cf33b8473ea8e0513e17bd674d8fd0bc2cd",
                    "gasUsed": 1419,
                    "id": 18,
                    "methodDecoded": true,
                    "operation": "CALL",
                    "output": "0x0000000000000000000000000000000000000000000000000000000000000000",
                    "revert": false,
                    "revertMessage": "",
                    "selector": "0x5c975abb",
                    "status": true,
                    "value": "0"
                },
                "nodeType": 0
            },
            "19": {
                "invocation": {
                    "address": "0x37236cd05b34cc79d3715af2383e96dd7443dcf1",
                    "callData": "0x000000000000000000000000acc776ee1822e470099d930ce09aa3d727369cf300000000000000000000000000000000000000000000000000000000000000c8",
                    "decodedMethod": {
                        "callParams": [
                            {
                                "name": "account",
                                "type": "address",
                                "value": "0xacc776ee1822e470099d930ce09aa3d727369cf3"
                            },
                            {
                                "name": "amount",
                                "type": "uint256",
                                "value": "200"
                            }
                        ],
                        "constructorArguments": "",
                        "name": "burnFrom",
                        "returnParams": [],
                        "signature": "burnFrom(address,uint256)"
                    },
                    "errorInfo": "",
                    "fromAddress": "0x01aac5236ad205ebbe4f6819bc64ef5bef40b71c",
                    "gasUsed": 23261,
                    "id": 19,
                    "methodDecoded": true,
                    "operation": "CALL",
                    "output": "0x0000000000000000000000000000000000000000000000000000000000000001",
                    "revert": false,
                    "revertMessage": "",
                    "selector": "0x79cc6790",
                    "status": true,
                    "value": "0"
                },
                "nodeType": 0
            },
            "2": {
                "invocation": {
                    "address": "0x01aac5236ad205ebbe4f6819bc64ef5bef40b71c",
                    "callData": "0x000000000000000000000000acc776ee1822e470099d930ce09aa3d727369cf3000000000000000000000000000000000000000000000000000000003b9aca0000000000000000000000000037236cd05b34cc79d3715af2383e96dd7443dcf100000000000000000000000000000000000000000000000000000000000000800000000000000000000000000000000000000000000000000000000000000060000000000000000000000000000000000000000000000000000000000003a649000000000000000000000000000000000000000000000000000000000003a4f90000000000000000000000000000000000000000000000000000000000000000",
                    "decodedMethod": {
                        "callParams": [
                            {
                                "name": "_from",
                                "type": "address",
                                "value": "0xacc776ee1822e470099d930ce09aa3d727369cf3"
                            },
                            {
                                "name": "_value",
                                "type": "uint256",
                                "value": "1,000,000,000"
                            },
                            {
                                "name": "_token",
                                "type": "address",
                                "value": "0x37236cd05b34cc79d3715af2383e96dd7443dcf1"
                            },
                            {
                                "name": "_extraData",
                                "type": "bytes",
                                "value": "0x000000000000000000000000000000000000000000000000000000000003a649000000000000000000000000000000000000000000000000000000000003a4f90000000000000000000000000000000000000000000000000000000000000000"
                            }
                        ],
                        "constructorArguments": "",
                        "name": "receiveApproval",
                        "returnParams": [],
                        "signature": "receiveApproval(address,uint256,address,bytes)"
                    },
                    "errorInfo": "",
                    "fromAddress": "0x37236cd05b34cc79d3715af2383e96dd7443dcf1",
                    "gasUsed": 432925,
                    "id": 2,
                    "methodDecoded": true,
                    "operation": "CALL",
                    "output": "",
                    "revert": false,
                    "revertMessage": "",
                    "selector": "0x8f4ffcb1",
                    "status": true,
                    "value": "0.005"
                },
                "nodeType": 0
            },
            "20": {
                "event": {
                    "contract": "0x37236cd05b34cc79d3715af2383e96dd7443dcf1",
                    "decodedLog": {
                        "name": "Transfer",
                        "params": [
                            {
                                "name": "from",
                                "type": "address",
                                "value": "0xacc776ee1822e470099d930ce09aa3d727369cf3"
                            },
                            {
                                "name": "to",
                                "type": "address",
                                "value": "0x0000000000000000000000000000000000000000"
                            },
                            {
                                "decimalAvailable": true,
                                "name": "value",
                                "type": "uint256",
                                "value": "200"
                            }
                        ],
                        "signature": "Transfer(address,address,uint256)"
                    },
                    "id": 20,
                    "logData": "0x00000000000000000000000000000000000000000000000000000000000000c8",
                    "logDecoded": true,
                    "operation": "EVENT",
                    "revert": false,
                    "status": true,
                    "topics": [
                        "0xddf252ad1be2c89b69c2b068fc378daa952ba7f163c4a11628f55a4df523b3ef",
                        "0x000000000000000000000000acc776ee1822e470099d930ce09aa3d727369cf3",
                        "0x0000000000000000000000000000000000000000000000000000000000000000"
                    ]
                },
                "nodeType": 1
            },
            "21": {
                "invocation": {
                    "address": "0xf5b0a3efb8e8e4c201e2a935f110eaaf3ffecb8d",
                    "callData": "0x000000000000000000000000000000000000000000000000000000000003a4f9",
                    "decodedMethod": {
                        "callParams": [
                            {
                                "name": "_tokenId",
                                "type": "uint256",
                                "value": "238,841"
                            }
                        ],
                        "constructorArguments": "",
                        "name": "ownerOf",
                        "returnParams": [
                            {
                                "name": "",
                                "type": "address",
                                "value": "0xacc776ee1822e470099d930ce09aa3d727369cf3"
                            }
                        ],
                        "signature": "ownerOf(uint256)"
                    },
                    "errorInfo": "",
                    "fromAddress": "0x01aac5236ad205ebbe4f6819bc64ef5bef40b71c",
                    "gasUsed": 2807,
                    "id": 21,
                    "methodDecoded": true,
                    "operation": "CALL",
                    "output": "0x000000000000000000000000acc776ee1822e470099d930ce09aa3d727369cf3",
                    "revert": false,
                    "revertMessage": "",
                    "selector": "0x6352211e",
                    "status": true,
                    "value": "0"
                },
                "nodeType": 0
            },
            "22": {
                "invocation": {
                    "address": "0x10e304a53351b272dc415ad049ad06565ebdfe34",
                    "callData": "0x0000000000000000000000000000000000000000000000000000000000000000000000000000000000000000000000000000000000000000000000000003a649000000000000000000000000000000000000000000000000000000000003a4f90000000000000000000000000000000000000000000000000000000000000000000000000000000000000000acc776ee1822e470099d930ce09aa3d727369cf3",
                    "decodedMethod": null,
                    "errorInfo": "",
                    "fromAddress": "0x01aac5236ad205ebbe4f6819bc64ef5bef40b71c",
                    "gasUsed": 209859,
                    "id": 22,
                    "methodDecoded": false,
                    "operation": "CALL",
                    "output": "0x0000000000000000000000000000000000000000000000000000000000041cdf",
                    "revert": false,
                    "revertMessage": "",
                    "selector": "0x88de9aab",
                    "status": true,
                    "value": "0"
                },
                "nodeType": 0
            },
            "23": {
                "invocation": {
                    "address": "0x26c89cf33b8473ea8e0513e17bd674d8fd0bc2cd",
                    "callData": "0x0000000000000000000000000000000000000000000000000000000000000000000000000000000000000000acc776ee1822e470099d930ce09aa3d727369cf3",
                    "decodedMethod": null,
                    "errorInfo": "",
                    "fromAddress": "0x10e304a53351b272dc415ad049ad06565ebdfe34",
                    "gasUsed": 4488,
                    "id": 23,
                    "methodDecoded": false,
                    "operation": "CALL",
                    "output": "0x0000000000000000000000000000000000000000000000000000000000000001",
                    "revert": false,
                    "revertMessage": "",
                    "selector": "0xcbe44458",
                    "status": true,
                    "value": "0"
                },
                "nodeType": 0
            },
            "24": {
                "invocation": {
                    "address": "0x10e304a53351b272dc415ad049ad06565ebdfe34",
                    "callData": "0x",
                    "decodedMethod": {
                        "callParams": [],
                        "constructorArguments": "",
                        "name": "paused",
                        "returnParams": [
                            {
                                "name": "",
                                "type": "bool",
                                "value": false
                            }
                        ],
                        "signature": "paused()"
                    },
                    "errorInfo": "",
                    "fromAddress": "0x26c89cf33b8473ea8e0513e17bd674d8fd0bc2cd",
                    "gasUsed": 1419,
                    "id": 24,
                    "methodDecoded": true,
                    "operation": "CALL",
                    "output": "0x0000000000000000000000000000000000000000000000000000000000000000",
                    "revert": false,
                    "revertMessage": "",
                    "selector": "0x5c975abb",
                    "status": true,
                    "value": "0"
                },
                "nodeType": 0
            },
            "25": {
                "invocation": {
                    "address": "0xf5b0a3efb8e8e4c201e2a935f110eaaf3ffecb8d",
                    "callData": "0x0000000000000000000000000000000000000000000000000000000000000000000000000000000000000000acc776ee1822e470099d930ce09aa3d727369cf3",
                    "decodedMethod": {
                        "callParams": [
                            {
                                "name": "_genes",
                                "type": "uint256",
                                "value": "0"
                            },
                            {
                                "name": "_owner",
                                "type": "address",
                                "value": "0xacc776ee1822e470099d930ce09aa3d727369cf3"
                            }
                        ],
                        "constructorArguments": "",
                        "name": "spawnAxie",
                        "returnParams": [
                            {
                                "name": "",
                                "type": "uint256",
                                "value": "269,535"
                            }
                        ],
                        "signature": "spawnAxie(uint256,address)"
                    },
                    "errorInfo": "",
                    "fromAddress": "0x10e304a53351b272dc415ad049ad06565ebdfe34",
                    "gasUsed": 157690,
                    "id": 25,
                    "methodDecoded": true,
                    "operation": "CALL",
                    "output": "0x0000000000000000000000000000000000000000000000000000000000041cdf",
                    "revert": false,
                    "revertMessage": "",
                    "selector": "0x5dcc6dbc",
                    "status": true,
                    "value": "0"
                },
                "nodeType": 0
            },
            "26": {
                "invocation": {
                    "address": "0xe8bd438d0383cf4d19641eaa4793eddc6cebeaf1",
                    "callData": "0x0000000000000000000000000000000000000000000000000000000000000000000000000000000000000000acc776ee1822e470099d930ce09aa3d727369cf3",
                    "decodedMethod": {
                        "callParams": [
                            {
                                "name": "",
                                "type": "uint256",
                                "value": "0"
                            },
                            {
                                "name": "",
                                "type": "address",
                                "value": "0xacc776ee1822e470099d930ce09aa3d727369cf3"
                            }
                        ],
                        "constructorArguments": "",
                        "name": "isSpawningAllowed",
                        "returnParams": [
                            {
                                "name": "",
                                "type": "bool",
                                "value": true
                            }
                        ],
                        "signature": "isSpawningAllowed(uint256,address)"
                    },
                    "errorInfo": "",
                    "fromAddress": "0xf5b0a3efb8e8e4c201e2a935f110eaaf3ffecb8d",
                    "gasUsed": 4499,
                    "id": 26,
                    "methodDecoded": true,
                    "operation": "CALL",
                    "output": "0x0000000000000000000000000000000000000000000000000000000000000001",
                    "revert": false,
                    "revertMessage": "",
                    "selector": "0x0e972421",
                    "status": true,
                    "value": "0"
                },
                "nodeType": 0
            },
            "27": {
                "invocation": {
                    "address": "0xf5b0a3efb8e8e4c201e2a935f110eaaf3ffecb8d",
                    "callData": "0x",
                    "decodedMethod": {
                        "callParams": [],
                        "constructorArguments": "",
                        "name": "paused",
                        "returnParams": [
                            {
                                "name": "",
                                "type": "bool",
                                "value": false
                            }
                        ],
                        "signature": "paused()"
                    },
                    "errorInfo": "",
                    "fromAddress": "0xe8bd438d0383cf4d19641eaa4793eddc6cebeaf1",
                    "gasUsed": 1628,
                    "id": 27,
                    "methodDecoded": true,
                    "operation": "CALL",
                    "output": "0x0000000000000000000000000000000000000000000000000000000000000000",
                    "revert": false,
                    "revertMessage": "",
                    "selector": "0x5c975abb",
                    "status": true,
                    "value": "0"
                },
                "nodeType": 0
            },
            "28": {
                "event": {
                    "contract": "0xf5b0a3efb8e8e4c201e2a935f110eaaf3ffecb8d",
                    "decodedLog": {
                        "name": "Transfer",
                        "params": [
                            {
                                "name": "_from",
                                "type": "address",
                                "value": "0x0000000000000000000000000000000000000000"
                            },
                            {
                                "name": "_to",
                                "type": "address",
                                "value": "0xacc776ee1822e470099d930ce09aa3d727369cf3"
                            },
                            {
                                "decimalAvailable": true,
                                "name": "_tokenId",
                                "type": "uint256",
                                "value": "269,535"
                            }
                        ],
                        "signature": "Transfer(address,address,uint256)"
                    },
                    "id": 28,
                    "logData": "0x0000000000000000000000000000000000000000000000000000000000041cdf",
                    "logDecoded": true,
                    "operation": "EVENT",
                    "revert": false,
                    "status": true,
                    "topics": [
                        "0xddf252ad1be2c89b69c2b068fc378daa952ba7f163c4a11628f55a4df523b3ef",
                        "0x0000000000000000000000000000000000000000000000000000000000000000",
                        "0x000000000000000000000000acc776ee1822e470099d930ce09aa3d727369cf3"
                    ]
                },
                "nodeType": 1
            },
            "29": {
                "event": {
                    "contract": "0xf5b0a3efb8e8e4c201e2a935f110eaaf3ffecb8d",
                    "decodedLog": {
                        "name": "AxieSpawned",
                        "params": [
                            {
                                "name": "_axieId",
                                "type": "uint256",
                                "value": "269,535"
                            },
                            {
                                "name": "_owner",
                                "type": "address",
                                "value": "0xacc776ee1822e470099d930ce09aa3d727369cf3"
                            },
                            {
                                "name": "_genes",
                                "type": "uint256",
                                "value": "0"
                            }
                        ],
                        "signature": "AxieSpawned(uint256,address,uint256)"
                    },
                    "id": 29,
                    "logData": "0x0000000000000000000000000000000000000000000000000000000000000000",
                    "logDecoded": true,
                    "operation": "EVENT",
                    "revert": false,
                    "status": true,
                    "topics": [
                        "0x0aa75ef3ef0b2c4f092828edf4e4ded5a223d08350535710b957679883ff3a3c",
                        "0x0000000000000000000000000000000000000000000000000000000000041cdf",
                        "0x000000000000000000000000acc776ee1822e470099d930ce09aa3d727369cf3"
                    ]
                },
                "nodeType": 1
            },
            "3": {
                "invocation": {
                    "address": "0xa4787fdb16efd4d0f9967001c207f7a6e281b686",
                    "callData": "0x000000000000000000000000000000000000000000000000000000000003a649000000000000000000000000000000000000000000000000000000000003a4f90000000000000000000000000000000000000000000000000000000000000000",
                    "decodedMethod": null,
                    "errorInfo": "",
                    "fromAddress": "0x01aac5236ad205ebbe4f6819bc64ef5bef40b71c",
                    "gasUsed": 14562,
                    "id": 3,
                    "methodDecoded": false,
                    "operation": "CALL",
                    "output": "0x0000000000000000000000000000000000000000000000000000000000000001",
                    "revert": false,
                    "revertMessage": "",
                    "selector": "0x6ae17ab7",
                    "status": true,
                    "value": "0"
                },
                "nodeType": 0
            },
            "4": {
                "invocation": {
                    "address": "0xf5b0a3efb8e8e4c201e2a935f110eaaf3ffecb8d",
                    "callData": "0x000000000000000000000000000000000000000000000000000000000003a649",
                    "decodedMethod": {
                        "callParams": [
                            {
                                "name": "_axieId",
                                "type": "uint256",
                                "value": "239,177"
                            }
                        ],
                        "constructorArguments": "",
                        "name": "getAxie",
                        "returnParams": [
                            {
                                "name": "",
                                "type": "uint256",
                                "value": "645,198,706,265,341,077,274,679,089,470,354,272,244,987,819,689,834,654,276,400,449,538"
                            },
                            {
                                "name": "",
                                "type": "uint256",
                                "value": "1,608,958,746"
                            }
                        ],
                        "signature": "getAxie(uint256)"
                    },
                    "errorInfo": "",
                    "fromAddress": "0xa4787fdb16efd4d0f9967001c207f7a6e281b686",
                    "gasUsed": 4683,
                    "id": 4,
                    "methodDecoded": true,
                    "operation": "CALL",
                    "output": "0x000000000620642400a0280a004008020020080c004010040020080200200802000000000000000000000000000000000000000000000000000000005fe6c31a",
                    "revert": false,
                    "revertMessage": "",
                    "selector": "0xa6472906",
                    "status": true,
                    "value": "0"
                },
                "nodeType": 0
            },
            "5": {
                "invocation": {
                    "address": "0xf5b0a3efb8e8e4c201e2a935f110eaaf3ffecb8d",
                    "callData": "0x000000000000000000000000000000000000000000000000000000000003a4f9",
                    "decodedMethod": {
                        "callParams": [
                            {
                                "name": "_axieId",
                                "type": "uint256",
                                "value": "238,841"
                            }
                        ],
                        "constructorArguments": "",
                        "name": "getAxie",
                        "returnParams": [
                            {
                                "name": "",
                                "type": "uint256",
                                "value": "5,880,067,032,216,014,869,041,021,530,603,768,909,223,045,826,540,137,404,283,641,883,324,483,373,058"
                            },
                            {
                                "name": "",
                                "type": "uint256",
                                "value": "1,608,928,237"
                            }
                        ],
                        "signature": "getAxie(uint256)"
                    },
                    "errorInfo": "",
                    "fromAddress": "0xa4787fdb16efd4d0f9967001c207f7a6e281b686",
                    "gasUsed": 4683,
                    "id": 5,
                    "methodDecoded": true,
                    "operation": "CALL",
                    "output": "0x0d0000000604144400a0280a0040100400201002004010040020080200200802000000000000000000000000000000000000000000000000000000005fe64bed",
                    "revert": false,
                    "revertMessage": "",
                    "selector": "0xa6472906",
                    "status": true,
                    "value": "0"
                },
                "nodeType": 0
            },
            "6": {
                "invocation": {
                    "address": "0xf5b0a3efb8e8e4c201e2a935f110eaaf3ffecb8d",
                    "callData": "0x000000000000000000000000000000000000000000000000000000000003a649",
                    "decodedMethod": {
                        "callParams": [
                            {
                                "name": "_tokenId",
                                "type": "uint256",
                                "value": "239,177"
                            }
                        ],
                        "constructorArguments": "",
                        "name": "ownerOf",
                        "returnParams": [
                            {
                                "name": "",
                                "type": "address",
                                "value": "0xacc776ee1822e470099d930ce09aa3d727369cf3"
                            }
                        ],
                        "signature": "ownerOf(uint256)"
                    },
                    "errorInfo": "",
                    "fromAddress": "0x01aac5236ad205ebbe4f6819bc64ef5bef40b71c",
                    "gasUsed": 2807,
                    "id": 6,
                    "methodDecoded": true,
                    "operation": "CALL",
                    "output": "0x000000000000000000000000acc776ee1822e470099d930ce09aa3d727369cf3",
                    "revert": false,
                    "revertMessage": "",
                    "selector": "0x6352211e",
                    "status": true,
                    "value": "0"
                },
                "nodeType": 0
            },
            "7": {
                "invocation": {
                    "address": "0xf5b0a3efb8e8e4c201e2a935f110eaaf3ffecb8d",
                    "callData": "0x000000000000000000000000000000000000000000000000000000000003a4f9",
                    "decodedMethod": {
                        "callParams": [
                            {
                                "name": "_tokenId",
                                "type": "uint256",
                                "value": "238,841"
                            }
                        ],
                        "constructorArguments": "",
                        "name": "ownerOf",
                        "returnParams": [
                            {
                                "name": "",
                                "type": "address",
                                "value": "0xacc776ee1822e470099d930ce09aa3d727369cf3"
                            }
                        ],
                        "signature": "ownerOf(uint256)"
                    },
                    "errorInfo": "",
                    "fromAddress": "0x01aac5236ad205ebbe4f6819bc64ef5bef40b71c",
                    "gasUsed": 2807,
                    "id": 7,
                    "methodDecoded": true,
                    "operation": "CALL",
                    "output": "0x000000000000000000000000acc776ee1822e470099d930ce09aa3d727369cf3",
                    "revert": false,
                    "revertMessage": "",
                    "selector": "0x6352211e",
                    "status": true,
                    "value": "0"
                },
                "nodeType": 0
            },
            "8": {
                "invocation": {
                    "address": "0xf5b0a3efb8e8e4c201e2a935f110eaaf3ffecb8d",
                    "callData": "0x000000000000000000000000000000000000000000000000000000000003a649",
                    "decodedMethod": {
                        "callParams": [
                            {
                                "name": "_axieId",
                                "type": "uint256",
                                "value": "239,177"
                            }
                        ],
                        "constructorArguments": "",
                        "name": "getAxie",
                        "returnParams": [
                            {
                                "name": "",
                                "type": "uint256",
                                "value": "645,198,706,265,341,077,274,679,089,470,354,272,244,987,819,689,834,654,276,400,449,538"
                            },
                            {
                                "name": "",
                                "type": "uint256",
                                "value": "1,608,958,746"
                            }
                        ],
                        "signature": "getAxie(uint256)"
                    },
                    "errorInfo": "",
                    "fromAddress": "0x01aac5236ad205ebbe4f6819bc64ef5bef40b71c",
                    "gasUsed": 4683,
                    "id": 8,
                    "methodDecoded": true,
                    "operation": "CALL",
                    "output": "0x000000000620642400a0280a004008020020080c004010040020080200200802000000000000000000000000000000000000000000000000000000005fe6c31a",
                    "revert": false,
                    "revertMessage": "",
                    "selector": "0xa6472906",
                    "status": true,
                    "value": "0"
                },
                "nodeType": 0
            },
            "9": {
                "invocation": {
                    "address": "0xf5b0a3efb8e8e4c201e2a935f110eaaf3ffecb8d",
                    "callData": "0x000000000000000000000000000000000000000000000000000000000003a4f9",
                    "decodedMethod": {
                        "callParams": [
                            {
                                "name": "_axieId",
                                "type": "uint256",
                                "value": "238,841"
                            }
                        ],
                        "constructorArguments": "",
                        "name": "getAxie",
                        "returnParams": [
                            {
                                "name": "",
                                "type": "uint256",
                                "value": "5,880,067,032,216,014,869,041,021,530,603,768,909,223,045,826,540,137,404,283,641,883,324,483,373,058"
                            },
                            {
                                "name": "",
                                "type": "uint256",
                                "value": "1,608,928,237"
                            }
                        ],
                        "signature": "getAxie(uint256)"
                    },
                    "errorInfo": "",
                    "fromAddress": "0x01aac5236ad205ebbe4f6819bc64ef5bef40b71c",
                    "gasUsed": 4683,
                    "id": 9,
                    "methodDecoded": true,
                    "operation": "CALL",
                    "output": "0x0d0000000604144400a0280a0040100400201002004010040020080200200802000000000000000000000000000000000000000000000000000000005fe64bed",
                    "revert": false,
                    "revertMessage": "",
                    "selector": "0xa6472906",
                    "status": true,
                    "value": "0"
                },
                "nodeType": 0
            }
        },
        "gasFlame": [
            {
                "children": [
                    {
                        "children": [
                            {
                                "children": [],
                                "depth": 0,
                                "name": "Initial Gas",
                                "value": 22332
                            },
                            {
                                "children": [
                                    {
                                        "children": [
                                            {
                                                "children": [
                                                    {
                                                        "children": [],
                                                        "depth": 3,
                                                        "name": "getAxie",
                                                        "value": 4683
                                                    },
                                                    {
                                                        "children": [],
                                                        "depth": 3,
                                                        "name": "getAxie",
                                                        "value": 4683
                                                    }
                                                ],
                                                "depth": 2,
                                                "name": "0x6ae17ab7",
                                                "value": 14562
                                            },
                                            {
                                                "children": [],
                                                "depth": 2,
                                                "name": "ownerOf",
                                                "value": 2807
                                            },
                                            {
                                                "children": [],
                                                "depth": 2,
                                                "name": "ownerOf",
                                                "value": 2807
                                            },
                                            {
                                                "children": [],
                                                "depth": 2,
                                                "name": "getAxie",
                                                "value": 4683
                                            },
                                            {
                                                "children": [],
                                                "depth": 2,
                                                "name": "getAxie",
                                                "value": 4683
                                            },
                                            {
                                                "children": [],
                                                "depth": 2,
                                                "name": "0x7d831dd4",
                                                "value": 12319
                                            },
                                            {
                                                "children": [],
                                                "depth": 2,
                                                "name": "getExtra",
                                                "value": 4026
                                            },
                                            {
                                                "children": [
                                                    {
                                                        "children": [
                                                            {
                                                                "children": [],
                                                                "depth": 4,
                                                                "name": "paused",
                                                                "value": 1419
                                                            }
                                                        ],
                                                        "depth": 3,
                                                        "name": "0x771c0ad9",
                                                        "value": 4333
                                                    }
                                                ],
                                                "depth": 2,
                                                "name": "0xcace40be",
                                                "value": 29619
                                            },
                                            {
                                                "children": [],
                                                "depth": 2,
                                                "name": "getExtra",
                                                "value": 4026
                                            },
                                            {
                                                "children": [
                                                    {
                                                        "children": [
                                                            {
                                                                "children": [],
                                                                "depth": 4,
                                                                "name": "paused",
                                                                "value": 1419
                                                            }
                                                        ],
                                                        "depth": 3,
                                                        "name": "0x771c0ad9",
                                                        "value": 4333
                                                    }
                                                ],
                                                "depth": 2,
                                                "name": "0xcace40be",
                                                "value": 29619
                                            },
                                            {
                                                "children": [],
                                                "depth": 2,
                                                "name": "burnFrom",
                                                "value": 23261
                                            },
                                            {
                                                "children": [],
                                                "depth": 2,
                                                "name": "ownerOf",
                                                "value": 2807
                                            },
                                            {
                                                "children": [
                                                    {
                                                        "children": [
                                                            {
                                                                "children": [],
                                                                "depth": 4,
                                                                "name": "paused",
                                                                "value": 1419
                                                            }
                                                        ],
                                                        "depth": 3,
                                                        "name": "0xcbe44458",
                                                        "value": 4488
                                                    },
                                                    {
                                                        "children": [
                                                            {
                                                                "children": [
                                                                    {
                                                                        "children": [],
                                                                        "depth": 5,
                                                                        "name": "paused",
                                                                        "value": 1628
                                                                    }
                                                                ],
                                                                "depth": 4,
                                                                "name": "isSpawningAllowed",
                                                                "value": 4499
                                                            }
                                                        ],
                                                        "depth": 3,
                                                        "name": "spawnAxie",
                                                        "value": 157690
                                                    }
                                                ],
                                                "depth": 2,
                                                "name": "0x88de9aab",
                                                "value": 209859
                                            }
                                        ],
                                        "depth": 1,
                                        "name": "receiveApproval",
                                        "value": 432925
                                    }
                                ],
                                "depth": 0,
                                "name": "Executed Gas",
                                "value": 450526
                            }
                        ],
                        "depth": -1,
                        "name": "Actual Gas Used",
                        "value": 472858
                    },
                    {
                        "children": [],
                        "depth": -1,
                        "name": "Refunded Gas",
                        "value": 0
                    }
                ],
                "depth": -2,
                "name": "Total Gas",
                "value": 472858
            }
        ],
        "isConfirmed": true,
        "mainTrace": [
            {
                "children": [
                    {
                        "children": [
                            {
                                "children": [],
                                "depth": 1,
                                "id": 1,
                                "order": 1
                            },
                            {
                                "children": [
                                    {
                                        "children": [
                                            {
                                                "children": [],
                                                "depth": 3,
                                                "id": 4,
                                                "order": 4
                                            },
                                            {
                                                "children": [],
                                                "depth": 3,
                                                "id": 5,
                                                "order": 5
                                            }
                                        ],
                                        "depth": 2,
                                        "id": 3,
                                        "order": 3
                                    },
                                    {
                                        "children": [],
                                        "depth": 2,
                                        "id": 6,
                                        "order": 6
                                    },
                                    {
                                        "children": [],
                                        "depth": 2,
                                        "id": 7,
                                        "order": 7
                                    },
                                    {
                                        "children": [],
                                        "depth": 2,
                                        "id": 8,
                                        "order": 8
                                    },
                                    {
                                        "children": [],
                                        "depth": 2,
                                        "id": 9,
                                        "order": 9
                                    },
                                    {
                                        "children": [],
                                        "depth": 2,
                                        "id": 10,
                                        "order": 10
                                    },
                                    {
                                        "children": [],
                                        "depth": 2,
                                        "id": 11,
                                        "order": 11
                                    },
                                    {
                                        "children": [
                                            {
                                                "children": [
                                                    {
                                                        "children": [],
                                                        "depth": 4,
                                                        "id": 14,
                                                        "order": 14
                                                    }
                                                ],
                                                "depth": 3,
                                                "id": 13,
                                                "order": 13
                                            }
                                        ],
                                        "depth": 2,
                                        "id": 12,
                                        "order": 12
                                    },
                                    {
                                        "children": [],
                                        "depth": 2,
                                        "id": 15,
                                        "order": 15
                                    },
                                    {
                                        "children": [
                                            {
                                                "children": [
                                                    {
                                                        "children": [],
                                                        "depth": 4,
                                                        "id": 18,
                                                        "order": 18
                                                    }
                                                ],
                                                "depth": 3,
                                                "id": 17,
                                                "order": 17
                                            }
                                        ],
                                        "depth": 2,
                                        "id": 16,
                                        "order": 16
                                    },
                                    {
                                        "children": [
                                            {
                                                "children": [],
                                                "depth": 3,
                                                "id": 20,
                                                "order": 20
                                            }
                                        ],
                                        "depth": 2,
                                        "id": 19,
                                        "order": 19
                                    },
                                    {
                                        "children": [],
                                        "depth": 2,
                                        "id": 21,
                                        "order": 21
                                    },
                                    {
                                        "children": [
                                            {
                                                "children": [
                                                    {
                                                        "children": [],
                                                        "depth": 4,
                                                        "id": 24,
                                                        "order": 24
                                                    }
                                                ],
                                                "depth": 3,
                                                "id": 23,
                                                "order": 23
                                            },
                                            {
                                                "children": [
                                                    {
                                                        "children": [
                                                            {
                                                                "children": [],
                                                                "depth": 5,
                                                                "id": 27,
                                                                "order": 27
                                                            }
                                                        ],
                                                        "depth": 4,
                                                        "id": 26,
                                                        "order": 26
                                                    },
                                                    {
                                                        "children": [],
                                                        "depth": 4,
                                                        "id": 28,
                                                        "order": 28
                                                    },
                                                    {
                                                        "children": [],
                                                        "depth": 4,
                                                        "id": 29,
                                                        "order": 29
                                                    }
                                                ],
                                                "depth": 3,
                                                "id": 25,
                                                "order": 25
                                            }
                                        ],
                                        "depth": 2,
                                        "id": 22,
                                        "order": 22
                                    }
                                ],
                                "depth": 1,
                                "id": 2,
                                "order": 2
                            }
                        ],
                        "depth": 0,
                        "id": 0,
                        "order": 0
                    }
                ],
                "depth": -1,
                "id": -1,
                "order": -1
            }
        ],
        "mainTraceNodeCount": 30,
        "parentIdMap": {
            "0": -1,
            "1": 0,
            "10": 2,
            "11": 2,
            "12": 2,
            "13": 12,
            "14": 13,
            "15": 2,
            "16": 2,
            "17": 16,
            "18": 17,
            "19": 2,
            "2": 0,
            "20": 19,
            "21": 2,
            "22": 2,
            "23": 22,
            "24": 23,
            "25": 22,
            "26": 25,
            "27": 26,
            "28": 25,
            "29": 25,
            "3": 2,
            "4": 3,
            "5": 3,
            "6": 2,
            "7": 2,
            "8": 2,
            "9": 2
        },
        "tidyTrace": [
            {
                "children": [
                    {
                        "children": [
                            {
                                "children": [],
                                "depth": 1,
                                "id": 1,
                                "order": 1
                            },
                            {
                                "children": [
                                    {
                                        "children": [
                                            {
                                                "children": [],
                                                "depth": 3,
                                                "id": 4,
                                                "order": 4
                                            },
                                            {
                                                "children": [],
                                                "depth": 3,
                                                "id": 5,
                                                "order": 5
                                            }
                                        ],
                                        "depth": 2,
                                        "id": 3,
                                        "order": 3
                                    },
                                    {
                                        "children": [],
                                        "depth": 2,
                                        "id": 6,
                                        "order": 6
                                    },
                                    {
                                        "children": [],
                                        "depth": 2,
                                        "id": 7,
                                        "order": 7
                                    },
                                    {
                                        "children": [],
                                        "depth": 2,
                                        "id": 8,
                                        "order": 8
                                    },
                                    {
                                        "children": [],
                                        "depth": 2,
                                        "id": 9,
                                        "order": 9
                                    },
                                    {
                                        "children": [],
                                        "depth": 2,
                                        "id": 10,
                                        "order": 10
                                    },
                                    {
                                        "children": [],
                                        "depth": 2,
                                        "id": 11,
                                        "order": 11
                                    },
                                    {
                                        "children": [
                                            {
                                                "children": [
                                                    {
                                                        "children": [],
                                                        "depth": 4,
                                                        "id": 14,
                                                        "order": 14
                                                    }
                                                ],
                                                "depth": 3,
                                                "id": 13,
                                                "order": 13
                                            }
                                        ],
                                        "depth": 2,
                                        "id": 12,
                                        "order": 12
                                    },
                                    {
                                        "children": [],
                                        "depth": 2,
                                        "id": 15,
                                        "order": 15
                                    },
                                    {
                                        "children": [
                                            {
                                                "children": [
                                                    {
                                                        "children": [],
                                                        "depth": 4,
                                                        "id": 18,
                                                        "order": 18
                                                    }
                                                ],
                                                "depth": 3,
                                                "id": 17,
                                                "order": 17
                                            }
                                        ],
                                        "depth": 2,
                                        "id": 16,
                                        "order": 16
                                    },
                                    {
                                        "children": [
                                            {
                                                "children": [],
                                                "depth": 3,
                                                "id": 20,
                                                "order": 20
                                            }
                                        ],
                                        "depth": 2,
                                        "id": 19,
                                        "order": 19
                                    },
                                    {
                                        "children": [],
                                        "depth": 2,
                                        "id": 21,
                                        "order": 21
                                    },
                                    {
                                        "children": [
                                            {
                                                "children": [
                                                    {
                                                        "children": [],
                                                        "depth": 4,
                                                        "id": 24,
                                                        "order": 24
                                                    }
                                                ],
                                                "depth": 3,
                                                "id": 23,
                                                "order": 23
                                            },
                                            {
                                                "children": [
                                                    {
                                                        "children": [
                                                            {
                                                                "children": [],
                                                                "depth": 5,
                                                                "id": 27,
                                                                "order": 27
                                                            }
                                                        ],
                                                        "depth": 4,
                                                        "id": 26,
                                                        "order": 26
                                                    },
                                                    {
                                                        "children": [],
                                                        "depth": 4,
                                                        "id": 28,
                                                        "order": 28
                                                    },
                                                    {
                                                        "children": [],
                                                        "depth": 4,
                                                        "id": 29,
                                                        "order": 29
                                                    }
                                                ],
                                                "depth": 3,
                                                "id": 25,
                                                "order": 25
                                            }
                                        ],
                                        "depth": 2,
                                        "id": 22,
                                        "order": 22
                                    }
                                ],
                                "depth": 1,
                                "id": 2,
                                "order": 2
                            }
                        ],
                        "depth": 0,
                        "id": 0,
                        "order": 0
                    }
                ],
                "depth": -1,
                "id": -1,
                "order": -1
            }
        ],
        "tidyTraceNodeCount": 30
    },
    "state_change": {
        "stateChanges": [
            {
                "address": "0x01aac5236ad205ebbe4f6819bc64ef5bef40b71c",
                "erc": "",
                "slots": [
                    {
                        "current": "0x000000000620642400a0280a004008020020080c004010040020080200200802",
                        "key": "0xda110cc1fb5320a7d119d1f2c6dd5291832f1da0ef803466fb3c91a34c9fe3d8",
                        "prev": "0x0000000000000000000000000000000000000000000000000000000000000000"
                    },
                    {
                        "current": "0x0d0000000604144400a0280a0040100400201002004010040020080200200802",
                        "key": "0xda110cc1fb5320a7d119d1f2c6dd5291832f1da0ef803466fb3c91a34c9fe3d9",
                        "prev": "0x0000000000000000000000000000000000000000000000000000000000000000"
                    }
                ],
                "storageVariables": []
            },
            {
                "address": "0x10e304a53351b272dc415ad049ad06565ebdfe34",
                "erc": "",
                "slots": [
                    {
                        "current": "0x0000000000000000000000000000000000000000000000000000000000000001",
                        "key": "0x8346ffa382cab165f04844596b76b00ce618324fb9b0d14c980aeb0b68bfb1af",
                        "prev": "0x0000000000000000000000000000000000000000000000000000000000000000"
                    },
                    {
                        "current": "0x0000000000000000000000000000000000000000000000000000000000000001",
                        "key": "0x19d028ce2c5dabc4f53783ece28b18cae0b6a510a488f26a406227ac9f5a2407",
                        "prev": "0x0000000000000000000000000000000000000000000000000000000000000000"
                    },
                    {
                        "current": "0x000000000000000000000000000000000000000000000000000000000003a649",
                        "key": "0xb925ce91c4e29498eede4ab7966d5a0bd5e8e37f960e207093799951626dfa76",
                        "prev": "0x0000000000000000000000000000000000000000000000000000000000000000"
                    },
                    {
                        "current": "0x000000000000000000000000000000000000000000000000000000000003a4f9",
                        "key": "0xb925ce91c4e29498eede4ab7966d5a0bd5e8e37f960e207093799951626dfa77",
                        "prev": "0x0000000000000000000000000000000000000000000000000000000000000000"
                    }
                ],
                "storageVariables": []
            },
            {
                "address": "0x37236cd05b34cc79d3715af2383e96dd7443dcf1",
                "erc": "",
                "slots": [
                    {
                        "current": "0x000000000000000000000000000000000000000000000000000000003b9ac938",
                        "key": "0x6dc92e8a8e6d9232940a5963c23890da0d41f4ea606bee78e010f5c40622ce47",
                        "prev": "0x000000000000000000000000000000000000000000000000000000003b9ac870"
                    },
                    {
                        "current": "0xfffffffffffffffffffffffffffffffffffffffffffffffffffffffffc03775b",
                        "key": "0x0000000000000000000000000000000000000000000000000000000000000009",
                        "prev": "0xfffffffffffffffffffffffffffffffffffffffffffffffffffffffffc037823"
                    },
                    {
                        "current": "0x0000000000000000000000000000000000000000000000000000000014236900",
                        "key": "0x0000000000000000000000000000000000000000000000000000000000000003",
                        "prev": "0x00000000000000000000000000000000000000000000000000000000142369c8"
                    },
                    {
                        "current": "0x000000000000000000000000000000000000000000000000000000000000279e",
                        "key": "0x10aff262c103725c00fe855057e40660de1b6a6e6a8b63556bf059b64a955d8f",
                        "prev": "0x0000000000000000000000000000000000000000000000000000000000002866"
                    }
                ],
                "storageVariables": []
            },
            {
                "address": "0xf5b0a3efb8e8e4c201e2a935f110eaaf3ffecb8d",
                "erc": "ERC-721",
                "slots": [
                    {
                        "current": "0x0000000000000000000000000000000000000000000000000000000000041cdf",
                        "key": "0xeec5cb944ab9d9ac9d49eb96b26a9575563609ffc0bc6cd9bfd1d777ea81e9d6",
                        "prev": "0x0000000000000000000000000000000000000000000000000000000000000000"
                    },
                    {
                        "current": "0x000000000000000000000000acc776ee1822e470099d930ce09aa3d727369cf3",
                        "key": "0x1cecdd3050da215daaa3b01d7b435ed0223a5df213ff813d93038b087429f554",
                        "prev": "0x0000000000000000000000000000000000000000000000000000000000000000"
                    },
                    {
                        "current": "0x0000000000000000000000000000000000000000000000000000000000041cdf",
                        "key": "0x000000000000000000000000000000000000000000000000000000000000000d",
                        "prev": "0x0000000000000000000000000000000000000000000000000000000000041cde"
                    },
                    {
                        "current": "0x0000000000000000000000000000000000000000000000000000000000041ce0",
                        "key": "0x0000000000000000000000000000000000000000000000000000000000000017",
                        "prev": "0x0000000000000000000000000000000000000000000000000000000000041cdf"
                    },
                    {
                        "current": "0x00000000000000000000000000000000000000000000000000000000606f6b4b",
                        "key": "0xc624b66cc0138b8fabc209247f72d758e1cf3343756d543badbf24212bf5c5d4",
                        "prev": "0x0000000000000000000000000000000000000000000000000000000000000000"
                    },
                    {
                        "current": "0x00000000000000000000000000000000000000000000000000000000000000a5",
                        "key": "0xd3d35229bd5bcc460be6e43920abeb675ea4031364c2d6a94c983fba97286f91",
                        "prev": "0x00000000000000000000000000000000000000000000000000000000000000a4"
                    },
                    {
                        "current": "0x0000000000000000000000000000000000000000000000000000000000041cdf",
                        "key": "0xb2346c0c1f3a579a1f880aeb7404babb45090ec1c14947270b7df9838880f2c3",
                        "prev": "0x0000000000000000000000000000000000000000000000000000000000000000"
                    },
                    {
                        "current": "0x00000000000000000000000000000000000000000000000000000000000000a4",
                        "key": "0x036292d763cd9bb2b6efc45577f996f905d115ca6365c78e80666bb512a5a4df",
                        "prev": "0x0000000000000000000000000000000000000000000000000000000000000000"
                    },
                    {
                        "current": "0x0000000000000000000000000000000000000000000000000000000000041cde",
                        "key": "0x8f6cc63fd8b6ee76f88fed12433159e1df7db2af7b73d4123f7662d82dc6f0a1",
                        "prev": "0x0000000000000000000000000000000000000000000000000000000000000000"
                    }
                ],
                "storageVariables": [
                    {
                        "name": "_totalTokens",
                        "type": "uint256",
                        "value": {
                            "current": "269535",
                            "prev": "269534",
                            "typeTag": 1
                        }
                    },
                    {
                        "name": "axies",
                        "type": "struct AxieCore.Axie[]",
                        "value": {
                            "elemType": "struct AxieCore.Axie",
                            "elems": [
                                {
                                    "index": 269535,
                                    "value": {
                                        "fields": [
                                            {
                                                "name": "bornAt",
                                                "type": "uint256",
                                                "value": {
                                                    "current": "1617914699",
                                                    "prev": "0",
                                                    "typeTag": 1
                                                }
                                            }
                                        ],
                                        "typeTag": 3
                                    }
                                }
                            ],
                            "typeTag": 2
                        }
                    },
                    {
                        "name": "_ownedTokens",
                        "type": "mapping(address => uint256[])",
                        "value": {
                            "pairs": [
                                {
                                    "key": "0xacc776ee1822e470099d930ce09aa3d727369cf3",
                                    "value": {
                                        "elemType": "uint256",
                                        "elems": [
                                            {
                                                "index": 164,
                                                "value": {
                                                    "current": "269535",
                                                    "prev": "0",
                                                    "typeTag": 1
                                                }
                                            }
                                        ],
                                        "typeTag": 2
                                    }
                                }
                            ],
                            "typeTag": 4
                        }
                    },
                    {
                        "name": "_ownedTokenIndex",
                        "type": "mapping(uint256 => uint256)",
                        "value": {
                            "pairs": [
                                {
                                    "key": "269535",
                                    "value": {
                                        "current": "164",
                                        "prev": "0",
                                        "typeTag": 1
                                    }
                                }
                            ],
                            "typeTag": 4
                        }
                    },
                    {
                        "name": "_overallTokenId",
                        "type": "mapping(uint256 => uint256)",
                        "value": {
                            "pairs": [
                                {
                                    "key": "269534",
                                    "value": {
                                        "current": "269535",
                                        "prev": "0",
                                        "typeTag": 1
                                    }
                                }
                            ],
                            "typeTag": 4
                        }
                    },
                    {
                        "name": "_overallTokenIndex",
                        "type": "mapping(uint256 => uint256)",
                        "value": {
                            "pairs": [
                                {
                                    "key": "269535",
                                    "value": {
                                        "current": "269534",
                                        "prev": "0",
                                        "typeTag": 1
                                    }
                                }
                            ],
                            "typeTag": 4
                        }
                    },
                    {
                        "name": "_tokenOwner",
                        "type": "mapping(uint256 => address)",
                        "value": {
                            "pairs": [
                                {
                                    "key": "269535",
                                    "value": {
                                        "current": "0xacc776ee1822e470099d930ce09aa3d727369cf3",
                                        "prev": "0x0000000000000000000000000000000000000000",
                                        "typeTag": 1
                                    }
                                }
                            ],
                            "typeTag": 4
                        }
                    }
                ]
            }
        ]
    }
}