{
    "balance_change": {
        "balanceChanges": []
    },
    "profile": {
        "basic_info": {
            "baseFee": "",
            "blockNumber": 6856450,
            "callData": "0x7fbb1b560000000000000000000000000000000000000000000000000000000000000004",
            "debugEnable": true,
            "errorInfo": "execution reverted",
            "eventCount": 0,
            "feeRecipient": "0xb2930b35844a230f00e51431acae96fe543a0347",
            "formatValue": "0",
            "gasLimit": 6340045,
            "gasPrice": "3.7",
            "gasUsed": 28863,
            "intTxnCount": 2,
            "internalRevert": true,
            "internalRevertMessage": "",
            "isContractCreation": false,
            "isFlashloan": false,
            "maxFee": "",
            "nonce": 475,
            "overwritedBlockNumber": -1,
            "priorityFee": "",
            "receiver": "0xad3cdf38ccace151cdf5f03fa64c1518a75cf7af",
            "revertMessage": "not a current type of dragon",
            "sender": "0x4f835aa9c21c13a31a93a8b3a94027c2f3a21d99",
            "simulationEnable": true,
            "sourceTxnHash": "0xf385c1d03e727c8480437a1d0243c5a86dadeaa58a105b6bf0314e1d67f0fad9",
            "status": false,
            "timestamp": "2018-12-09T19:27:46Z",
            "transactionFee": "0.0001067931",
            "txnHash": "0xf385c1d03e727c8480437a1d0243c5a86dadeaa58a105b6bf0314e1d67f0fad9",
            "txnIndex": 10,
            "type": 0,
            "value": "0"
        },
        "fund_flow": [],
        "token_infos": [
            {
                "address": "0xc02aaa39b223fe8d0a0e5c4f27ead9083c756cc2",
                "decimals": 18
            },
            {
                "address": "0xeeeeeeeeeeeeeeeeeeeeeeeeeeeeeeeeeeeeeeee",
                "decimals": 18
            }
        ]
    },
    "address_label": {
        "labels": [
            {
                "address": "0xad3cdf38ccace151cdf5f03fa64c1518a75cf7af",
                "label": "Dragonereum: Main Base"
            },
            {
                "address": "0x69980dfd271daf09b606b7fa1d872d98c98015a8",
                "label": "Dragonereum: Core Controller"
            },
            {
                "address": "0xb5b67b0bd9f0f188e900d6a50cd1d66a6d9932f7",
                "label": "Dragonereum: Distribution"
            },
            {
                "address": "0x0000000000000000000000000000000000000001",
                "label": "Precompiled"
            },
            {
                "address": "0x0000000000000000000000000000000000000002",
                "label": "Precompiled"
            },
            {
                "address": "0x0000000000000000000000000000000000000003",
                "label": "Precompiled"
            },
            {
                "address": "0x0000000000000000000000000000000000000004",
                "label": "Precompiled"
            },
            {
                "address": "0xeeeeeeeeeeeeeeeeeeeeeeeeeeeeeeeeeeeeeeee",
                "label": "Ether"
            }
        ]
    },
    "trace": {
        "accountLabels": null,
        "dataMap": {
            "-1": {
                "invocation": {
                    "address": "0x4f835aa9c21c13a31a93a8b3a94027c2f3a21d99",
                    "callData": "",
                    "decodedMethod": null,
                    "errorInfo": "",
                    "fromAddress": "",
                    "gasUsed": 0,
                    "id": -1,
                    "methodDecoded": false,
                    "operation": "",
                    "output": "",
                    "revert": false,
                    "revertMessage": "",
                    "selector": "",
                    "status": false,
                    "value": ""
                },
                "nodeType": 0
            },
            "0": {
                "invocation": {
                    "address": "0xad3cdf38ccace151cdf5f03fa64c1518a75cf7af",
                    "callData": "0x0000000000000000000000000000000000000000000000000000000000000004",
                    "decodedMethod": {
                        "callParams": [
                            {
                                "name": "_dragonType",
                                "type": "uint8",
                                "value": "4"
                            }
                        ],
                        "constructorArguments": "",
                        "name": "claimEgg",
                        "returnParams": [],
                        "signature": "claimEgg(uint8)"
                    },
                    "errorInfo": "execution reverted",
                    "fromAddress": "0x4f835aa9c21c13a31a93a8b3a94027c2f3a21d99",
                    "gasUsed": 28863,
                    "id": 0,
                    "methodDecoded": true,
                    "operation": "CALL",
                    "output": "0x08c379a00000000000000000000000000000000000000000000000000000000000000020000000000000000000000000000000000000000000000000000000000000001c6e6f7420612063757272656e742074797065206f6620647261676f6e00000000",
                    "revert": true,
                    "revertMessage": "not a current type of dragon",
                    "selector": "0x7fbb1b56",
                    "status": false,
                    "value": "0"
                },
                "nodeType": 0
            },
            "1": {
                "invocation": {
                    "address": "0x69980dfd271daf09b606b7fa1d872d98c98015a8",
                    "callData": "0x0000000000000000000000004f835aa9c21c13a31a93a8b3a94027c2f3a21d990000000000000000000000000000000000000000000000000000000000000004",
                    "decodedMethod": {
                        "callParams": [
                            {
                                "name": "_sender",
                                "type": "address",
                                "value": "0x4f835aa9c21c13a31a93a8b3a94027c2f3a21d99"
                            },
                            {
                                "name": "_dragonType",
                                "type": "uint8",
                                "value": "4"
                            }
                        ],
                        "constructorArguments": "",
                        "name": "claimEgg",
                        "returnParams": [],
                        "signature": "claimEgg(address,uint8)"
                    },
                    "errorInfo": "execution reverted",
                    "fromAddress": "0xad3cdf38ccace151cdf5f03fa64c1518a75cf7af",
                    "gasUsed": 4776,
                    "id": 1,
                    "methodDecoded": true,
                    "operation": "CALL",
                    "output": "0x08c379a00000000000000000000000000000000000000000000000000000000000000020000000000000000000000000000000000000000000000000000000000000001c6e6f7420612063757272656e742074797065206f6620647261676f6e00000000",
                    "revert": true,
                    "revertMessage": "not a current type of dragon",
                    "selector": "0x4039eee3",
                    "status": false,
                    "value": "0"
                },
                "nodeType": 0
            },
            "2": {
                "invocation": {
                    "address": "0xb5b67b0bd9f0f188e900d6a50cd1d66a6d9932f7",
                    "callData": "0x0000000000000000000000000000000000000000000000000000000000000004",
                    "decodedMethod": {
                        "callParams": [
                            {
                                "name": "_requestedType",
                                "type": "uint8",
                                "value": "4"
                            }
                        ],
                        "constructorArguments": "",
                        "name": "claim",
                        "returnParams": [],
                        "signature": "claim(uint8)"
                    },
                    "errorInfo": "execution reverted",
                    "fromAddress": "0x69980dfd271daf09b606b7fa1d872d98c98015a8",
                    "gasUsed": 2240,
                    "id": 2,
                    "methodDecoded": true,
                    "operation": "CALL",
                    "output": "0x08c379a00000000000000000000000000000000000000000000000000000000000000020000000000000000000000000000000000000000000000000000000000000001c6e6f7420612063757272656e742074797065206f6620647261676f6e00000000",
                    "revert": true,
                    "revertMessage": "not a current type of dragon",
                    "selector": "0x95d4063f",
                    "status": false,
                    "value": "0"
                },
                "nodeType": 0
            }
        },
        "gasFlame": [
            {
                "children": [
                    {
                        "children": [
                            {
                                "children": [],
                                "depth": 0,
                                "name": "Initial Gas",
                                "value": 21464
                            },
                            {
                                "children": [
                                    {
                                        "children": [
                                            {
                                                "children": [],
                                                "depth": 2,
                                                "name": "claim",
                                                "value": 2240
                                            }
                                        ],
                                        "depth": 1,
                                        "name": "claimEgg",
                                        "value": 4776
                                    }
                                ],
                                "depth": 0,
                                "name": "Executed Gas",
                                "value": 7399
                            }
                        ],
                        "depth": -1,
                        "name": "Actual Gas Used",
                        "value": 28863
                    },
                    {
                        "children": [],
                        "depth": -1,
                        "name": "Refunded Gas",
                        "value": 0
                    }
                ],
                "depth": -2,
                "name": "Total Gas",
                "value": 28863
            }
        ],
        "isConfirmed": true,
        "mainTrace": [
            {
                "children": [
                    {
                        "children": [
                            {
                                "children": [
                                    {
                                        "children": [],
                                        "depth": 2,
                                        "id": 2,
                                        "order": 2
                                    }
                                ],
                                "depth": 1,
                                "id": 1,
                                "order": 1
                            }
                        ],
                        "depth": 0,
                        "id": 0,
                        "order": 0
                    }
                ],
                "depth": -1,
                "id": -1,
                "order": -1
            }
        ],
        "mainTraceNodeCount": 3,
        "parentIdMap": {
            "0": -1,
            "1": 0,
            "2": 1
        },
        "tidyTrace": [
            {
                "children": [
                    {
                        "children": [
                            {
                                "children": [
                                    {
                                        "children": [],
                                        "depth": 2,
                                        "id": 2,
                                        "order": 2
                                    }
                                ],
                                "depth": 1,
                                "id": 1,
                                "order": 1
                            }
                        ],
                        "depth": 0,
                        "id": 0,
                        "order": 0
                    }
                ],
                "depth": -1,
                "id": -1,
                "order": -1
            }
        ],
        "tidyTraceNodeCount": 3
    },
    "state_change": {
        "stateChanges": []
    }
}