{
    "balance_change": {
        "balanceChanges": [
            {
                "account": "0xab5c66752a9e8167967685f1450532fb96d5d24f",
                "assets": [
                    {
                        "address": "0x3883f5e181fccaf8410fa61e12b59bad963fb645",
                        "amount": "50,314.161",
                        "iconUrl": "https://assets.blocksec.com/icon/3ca19861e658dbc1479db72a7fa4e2ba38d296390994f80b226b8304362ac126.png",
                        "isERC1155": false,
                        "isERC721": false,
                        "sign": false,
                        "value": ""
                    }
                ]
            },
            {
                "account": "0x1535e5a609a5c96857d58a55effaad1f173d6164",
                "assets": [
                    {
                        "address": "0x3883f5e181fccaf8410fa61e12b59bad963fb645",
                        "amount": "50,314.161",
                        "iconUrl": "https://assets.blocksec.com/icon/3ca19861e658dbc1479db72a7fa4e2ba38d296390994f80b226b8304362ac126.png",
                        "isERC1155": false,
                        "isERC721": false,
                        "sign": true,
                        "value": ""
                    }
                ]
            }
        ]
    },
    "profile": {
        "basic_info": {
            "baseFee": "",
            "blockNumber": 5570014,
            "callData": "0xa9059cbb0000000000000000000000001535e5a609a5c96857d58a55effaad1f173d6164000000000000000000000000000000000000000000000aa7894005a66cbe8000",
            "debugEnable": true,
            "errorInfo": "",
            "eventCount": 1,
            "feeRecipient": "0xea674fdde714fd979de3edf0f56aa9716b898ec8",
            "formatValue": "0",
            "gasLimit": 90000,
            "gasPrice": "28",
            "gasUsed": 37455,
            "intTxnCount": 0,
            "internalRevert": false,
            "internalRevertMessage": "",
            "isContractCreation": false,
            "isFlashloan": false,
            "maxFee": "",
            "nonce": 47236,
            "overwritedBlockNumber": -1,
            "priorityFee": "",
            "receiver": "0x3883f5e181fccaf8410fa61e12b59bad963fb645",
            "revertMessage": "",
            "sender": "0xab5c66752a9e8167967685f1450532fb96d5d24f",
            "simulationEnable": true,
            "sourceTxnHash": "0xf354376256aa9d3672a3781ee1ccd6a5fa57f3bf6bebefdc3af3c79794c4387c",
            "status": true,
            "timestamp": "2018-05-07T04:06:39Z",
            "transactionFee": "0.00104874",
            "txnHash": "0xf354376256aa9d3672a3781ee1ccd6a5fa57f3bf6bebefdc3af3c79794c4387c",
            "txnIndex": 7,
            "type": 0,
            "value": "0"
        },
        "fund_flow": [
            {
                "amount": "50,314.161",
                "from": "0xab5c66752a9e8167967685f1450532fb96d5d24f",
                "id": 1,
                "isERC1155": false,
                "isERC721": false,
                "isReverted": false,
                "order": 1,
                "to": "0x1535e5a609a5c96857d58a55effaad1f173d6164",
                "token": "0x3883f5e181fccaf8410fa61e12b59bad963fb645"
            }
        ],
        "token_infos": [
            {
                "address": "0x3883f5e181fccaf8410fa61e12b59bad963fb645",
                "decimals": 18
            },
            {
                "address": "0xc02aaa39b223fe8d0a0e5c4f27ead9083c756cc2",
                "decimals": 18
            },
            {
                "address": "0xeeeeeeeeeeeeeeeeeeeeeeeeeeeeeeeeeeeeeeee",
                "decimals": 18
            }
        ]
    },
    "address_label": {
        "labels": [
            {
                "address": "0xeeeeeeeeeeeeeeeeeeeeeeeeeeeeeeeeeeeeeeee",
                "label": "Ether"
            },
            {
                "address": "0x3883f5e181fccaf8410fa61e12b59bad963fb645",
                "label": "Theta: Old Token"
            },
            {
                "address": "0xab5c66752a9e8167967685f1450532fb96d5d24f",
                "label": "HTX 1"
            },
            {
                "address": "0x0000000000000000000000000000000000000001",
                "label": "Precompiled"
            },
            {
                "address": "0x0000000000000000000000000000000000000002",
                "label": "Precompiled"
            },
            {
                "address": "0x0000000000000000000000000000000000000003",
                "label": "Precompiled"
            },
            {
                "address": "0x0000000000000000000000000000000000000004",
                "label": "Precompiled"
            }
        ]
    },
    "trace": {
        "accountLabels": null,
        "dataMap": {
            "-1": {
                "invocation": {
                    "address": "0xab5c66752a9e8167967685f1450532fb96d5d24f",
                    "callData": "",
                    "decodedMethod": null,
                    "errorInfo": "",
                    "fromAddress": "",
                    "gasUsed": 0,
                    "id": -1,
                    "methodDecoded": false,
                    "operation": "",
                    "output": "",
                    "revert": false,
                    "revertMessage": "",
                    "selector": "",
                    "status": false,
                    "value": ""
                },
                "nodeType": 0
            },
            "0": {
                "invocation": {
                    "address": "0x3883f5e181fccaf8410fa61e12b59bad963fb645",
                    "callData": "0x0000000000000000000000001535e5a609a5c96857d58a55effaad1f173d6164000000000000000000000000000000000000000000000aa7894005a66cbe8000",
                    "decodedMethod": {
                        "callParams": [
                            {
                                "name": "_to",
                                "type": "address",
                                "value": "0x1535e5a609a5c96857d58a55effaad1f173d6164"
                            },
                            {
                                "decimalAvailable": true,
                                "name": "_amount",
                                "type": "uint256",
                                "value": "50,314,161,000,000,000,000,000"
                            }
                        ],
                        "constructorArguments": "",
                        "name": "transfer",
                        "returnParams": [
                            {
                                "name": "success",
                                "type": "bool",
                                "value": true
                            }
                        ],
                        "signature": "transfer(address,uint256)"
                    },
                    "errorInfo": "",
                    "fromAddress": "0xab5c66752a9e8167967685f1450532fb96d5d24f",
                    "gasUsed": 37455,
                    "id": 0,
                    "methodDecoded": true,
                    "operation": "CALL",
                    "output": "0x0000000000000000000000000000000000000000000000000000000000000001",
                    "revert": false,
                    "revertMessage": "",
                    "selector": "0xa9059cbb",
                    "status": true,
                    "value": "0"
                },
                "nodeType": 0
            },
            "1": {
                "event": {
                    "contract": "0x3883f5e181fccaf8410fa61e12b59bad963fb645",
                    "decodedLog": {
                        "name": "Transfer",
                        "params": [
                            {
                                "name": "_from",
                                "type": "address",
                                "value": "0xab5c66752a9e8167967685f1450532fb96d5d24f"
                            },
                            {
                                "name": "_to",
                                "type": "address",
                                "value": "0x1535e5a609a5c96857d58a55effaad1f173d6164"
                            },
                            {
                                "decimalAvailable": true,
                                "name": "_value",
                                "type": "uint256",
                                "value": "50,314,161,000,000,000,000,000"
                            }
                        ],
                        "signature": "Transfer(address,address,uint256)"
                    },
                    "id": 1,
                    "logData": "0x000000000000000000000000000000000000000000000aa7894005a66cbe8000",
                    "logDecoded": true,
                    "operation": "EVENT",
                    "revert": false,
                    "status": true,
                    "topics": [
                        "0xddf252ad1be2c89b69c2b068fc378daa952ba7f163c4a11628f55a4df523b3ef",
                        "0x000000000000000000000000ab5c66752a9e8167967685f1450532fb96d5d24f",
                        "0x0000000000000000000000001535e5a609a5c96857d58a55effaad1f173d6164"
                    ]
                },
                "nodeType": 1
            }
        },
        "gasFlame": [
            {
                "children": [
                    {
                        "children": [
                            {
                                "children": [],
                                "depth": 0,
                                "name": "Initial Gas",
                                "value": 23384
                            },
                            {
                                "children": [],
                                "depth": 0,
                                "name": "Executed Gas",
                                "value": 14071
                            }
                        ],
                        "depth": -1,
                        "name": "Actual Gas Used",
                        "value": 37455
                    },
                    {
                        "children": [],
                        "depth": -1,
                        "name": "Refunded Gas",
                        "value": 0
                    }
                ],
                "depth": -2,
                "name": "Total Gas",
                "value": 37455
            }
        ],
        "isConfirmed": true,
        "mainTrace": [
            {
                "children": [
                    {
                        "children": [
                            {
                                "children": [],
                                "depth": 1,
                                "id": 1,
                                "order": 1
                            }
                        ],
                        "depth": 0,
                        "id": 0,
                        "order": 0
                    }
                ],
                "depth": -1,
                "id": -1,
                "order": -1
            }
        ],
        "mainTraceNodeCount": 2,
        "parentIdMap": {
            "0": -1,
            "1": 0
        },
        "tidyTrace": [
            {
                "children": [
                    {
                        "children": [
                            {
                                "children": [],
                                "depth": 1,
                                "id": 1,
                                "order": 1
                            }
                        ],
                        "depth": 0,
                        "id": 0,
                        "order": 0
                    }
                ],
                "depth": -1,
                "id": -1,
                "order": -1
            }
        ],
        "tidyTraceNodeCount": 2
    },
    "state_change": {
        "stateChanges": [
            {
                "address": "0x3883f5e181fccaf8410fa61e12b59bad963fb645",
                "erc": "ERC-20",
                "slots": [
                    {
                        "current": "0x0000000000000000000000000000000000000000000016a7778462617e568083",
                        "key": "0x05ac39e897adc561597826ca5fa6ee8e3d999f07a72806c8efd25abc7f6869d3",
                        "prev": "0x000000000000000000000000000000000000000000000bffee445cbb11980083"
                    },
                    {
                        "current": "0x0000000000000000000000000000000000000000001df838b73049e557670e00",
                        "key": "0x71c3b2a15ca68a21b5cfc1e0d0687fc958162a4b7cdb61fffc8323578d2be458",
                        "prev": "0x0000000000000000000000000000000000000000001e02e040704f8bc4258e00"
                    }
                ],
                "storageVariables": [
                    {
                        "name": "balances",
                        "type": "mapping(address => uint256)",
                        "value": {
                            "pairs": [
                                {
                                    "key": "0x1535e5a609a5c96857d58a55effaad1f173d6164",
                                    "value": {
                                        "current": "106981281000000000000131",
                                        "prev": "56667120000000000000131",
                                        "typeTag": 1
                                    }
                                },
                                {
                                    "key": "0xab5c66752a9e8167967685f1450532fb96d5d24f",
                                    "value": {
                                        "current": "36231041874375803000000000",
                                        "prev": "36281356035375803000000000",
                                        "typeTag": 1
                                    }
                                }
                            ],
                            "typeTag": 4
                        }
                    }
                ]
            }
        ]
    }
}