{
    "balance_change": {
        "balanceChanges": [
            {
                "account": "0x7f592ce01820377cd862bf589ade5e0ff94edaad",
                "assets": [
                    {
                        "address": "0x002f2264aeec71041ae5739ecf0a2c80c5ea30fa",
                        "amount": "2,000,000",
                        "iconUrl": "",
                        "isERC1155": false,
                        "isERC721": false,
                        "sign": false,
                        "value": ""
                    }
                ]
            },
            {
                "account": "0xcd16690bf7910b4d462492b2f98485122924d775",
                "assets": [
                    {
                        "address": "0x002f2264aeec71041ae5739ecf0a2c80c5ea30fa",
                        "amount": "2,000,000",
                        "iconUrl": "",
                        "isERC1155": false,
                        "isERC721": false,
                        "sign": true,
                        "value": ""
                    }
                ]
            }
        ]
    },
    "profile": {
        "basic_info": {
            "baseFee": "",
            "blockNumber": 11605458,
            "callData": "0xa9059cbb000000000000000000000000cd16690bf7910b4d462492b2f98485122924d77500000000000000000000000000000000000000000001a784379d99db42000000",
            "debugEnable": true,
            "errorInfo": "",
            "eventCount": 1,
            "feeRecipient": "0x5a0b54d5dc17e0aadc383d2db43b0a0d3e029c4c",
            "formatValue": "0",
            "gasLimit": 60879,
            "gasPrice": "102.300001604",
            "gasUsed": 40586,
            "intTxnCount": 0,
            "internalRevert": false,
            "internalRevertMessage": "",
            "isContractCreation": false,
            "isFlashloan": false,
            "maxFee": "",
            "nonce": 30,
            "overwritedBlockNumber": -1,
            "priorityFee": "",
            "receiver": "0x002f2264aeec71041ae5739ecf0a2c80c5ea30fa",
            "revertMessage": "",
            "sender": "0x7f592ce01820377cd862bf589ade5e0ff94edaad",
            "simulationEnable": true,
            "sourceTxnHash": "0xf3c4e4efeeb3c80334767fafe4b362594f0ef1112a28824b127c1b56170db974",
            "status": true,
            "timestamp": "2021-01-07T04:40:01Z",
            "transactionFee": "0.004151947865099944",
            "txnHash": "0xf3c4e4efeeb3c80334767fafe4b362594f0ef1112a28824b127c1b56170db974",
            "txnIndex": 229,
            "type": 0,
            "value": "0"
        },
        "fund_flow": [
            {
                "amount": "2,000,000",
                "from": "0x7f592ce01820377cd862bf589ade5e0ff94edaad",
                "id": 1,
                "isERC1155": false,
                "isERC721": false,
                "isReverted": false,
                "order": 1,
                "to": "0xcd16690bf7910b4d462492b2f98485122924d775",
                "token": "0x002f2264aeec71041ae5739ecf0a2c80c5ea30fa"
            }
        ],
        "token_infos": [
            {
                "address": "0x002f2264aeec71041ae5739ecf0a2c80c5ea30fa",
                "decimals": 18
            },
            {
                "address": "0xc02aaa39b223fe8d0a0e5c4f27ead9083c756cc2",
                "decimals": 18
            },
            {
                "address": "0xeeeeeeeeeeeeeeeeeeeeeeeeeeeeeeeeeeeeeeee",
                "decimals": 18
            }
        ]
    },
    "address_label": {
        "labels": [
            {
                "address": "0x002f2264aeec71041ae5739ecf0a2c80c5ea30fa",
                "label": "ForesterX (FEX)"
            },
            {
                "address": "0x0000000000000000000000000000000000000001",
                "label": "Precompiled"
            },
            {
                "address": "0x0000000000000000000000000000000000000002",
                "label": "Precompiled"
            },
            {
                "address": "0x0000000000000000000000000000000000000003",
                "label": "Precompiled"
            },
            {
                "address": "0x0000000000000000000000000000000000000004",
                "label": "Precompiled"
            },
            {
                "address": "0xeeeeeeeeeeeeeeeeeeeeeeeeeeeeeeeeeeeeeeee",
                "label": "Ether"
            }
        ]
    },
    "trace": {
        "accountLabels": null,
        "dataMap": {
            "-1": {
                "invocation": {
                    "address": "0x7f592ce01820377cd862bf589ade5e0ff94edaad",
                    "callData": "",
                    "decodedMethod": null,
                    "errorInfo": "",
                    "fromAddress": "",
                    "gasUsed": 0,
                    "id": -1,
                    "methodDecoded": false,
                    "operation": "",
                    "output": "",
                    "revert": false,
                    "revertMessage": "",
                    "selector": "",
                    "status": false,
                    "value": ""
                },
                "nodeType": 0
            },
            "0": {
                "invocation": {
                    "address": "0x002f2264aeec71041ae5739ecf0a2c80c5ea30fa",
                    "callData": "0x000000000000000000000000cd16690bf7910b4d462492b2f98485122924d77500000000000000000000000000000000000000000001a784379d99db42000000",
                    "decodedMethod": {
                        "callParams": [
                            {
                                "name": "recipient",
                                "type": "address",
                                "value": "0xcd16690bf7910b4d462492b2f98485122924d775"
                            },
                            {
                                "decimalAvailable": true,
                                "name": "amount",
                                "type": "uint256",
                                "value": "2,000,000,000,000,000,000,000,000"
                            }
                        ],
                        "constructorArguments": "",
                        "name": "transfer",
                        "returnParams": [
                            {
                                "name": "",
                                "type": "bool",
                                "value": true
                            }
                        ],
                        "signature": "transfer(address,uint256)"
                    },
                    "errorInfo": "",
                    "fromAddress": "0x7f592ce01820377cd862bf589ade5e0ff94edaad",
                    "gasUsed": 40586,
                    "id": 0,
                    "methodDecoded": true,
                    "operation": "CALL",
                    "output": "0x0000000000000000000000000000000000000000000000000000000000000001",
                    "revert": false,
                    "revertMessage": "",
                    "selector": "0xa9059cbb",
                    "status": true,
                    "value": "0"
                },
                "nodeType": 0
            },
            "1": {
                "event": {
                    "contract": "0x002f2264aeec71041ae5739ecf0a2c80c5ea30fa",
                    "decodedLog": {
                        "name": "Transfer",
                        "params": [
                            {
                                "name": "from",
                                "type": "address",
                                "value": "0x7f592ce01820377cd862bf589ade5e0ff94edaad"
                            },
                            {
                                "name": "to",
                                "type": "address",
                                "value": "0xcd16690bf7910b4d462492b2f98485122924d775"
                            },
                            {
                                "decimalAvailable": true,
                                "name": "value",
                                "type": "uint256",
                                "value": "2,000,000,000,000,000,000,000,000"
                            }
                        ],
                        "signature": "Transfer(address,address,uint256)"
                    },
                    "id": 1,
                    "logData": "0x00000000000000000000000000000000000000000001a784379d99db42000000",
                    "logDecoded": true,
                    "operation": "EVENT",
                    "revert": false,
                    "status": true,
                    "topics": [
                        "0xddf252ad1be2c89b69c2b068fc378daa952ba7f163c4a11628f55a4df523b3ef",
                        "0x0000000000000000000000007f592ce01820377cd862bf589ade5e0ff94edaad",
                        "0x000000000000000000000000cd16690bf7910b4d462492b2f98485122924d775"
                    ]
                },
                "nodeType": 1
            }
        },
        "gasFlame": [
            {
                "children": [
                    {
                        "children": [
                            {
                                "children": [],
                                "depth": 0,
                                "name": "Initial Gas",
                                "value": 21656
                            },
                            {
                                "children": [],
                                "depth": 0,
                                "name": "Executed Gas",
                                "value": 18930
                            }
                        ],
                        "depth": -1,
                        "name": "Actual Gas Used",
                        "value": 40586
                    },
                    {
                        "children": [],
                        "depth": -1,
                        "name": "Refunded Gas",
                        "value": 0
                    }
                ],
                "depth": -2,
                "name": "Total Gas",
                "value": 40586
            }
        ],
        "isConfirmed": true,
        "mainTrace": [
            {
                "children": [
                    {
                        "children": [
                            {
                                "children": [],
                                "depth": 1,
                                "id": 1,
                                "order": 1
                            }
                        ],
                        "depth": 0,
                        "id": 0,
                        "order": 0
                    }
                ],
                "depth": -1,
                "id": -1,
                "order": -1
            }
        ],
        "mainTraceNodeCount": 2,
        "parentIdMap": {
            "0": -1,
            "1": 0
        },
        "tidyTrace": [
            {
                "children": [
                    {
                        "children": [
                            {
                                "children": [],
                                "depth": 1,
                                "id": 1,
                                "order": 1
                            }
                        ],
                        "depth": 0,
                        "id": 0,
                        "order": 0
                    }
                ],
                "depth": -1,
                "id": -1,
                "order": -1
            }
        ],
        "tidyTraceNodeCount": 2
    },
    "state_change": {
        "stateChanges": [
            {
                "address": "0x002f2264aeec71041ae5739ecf0a2c80c5ea30fa",
                "erc": "",
                "slots": [
                    {
                        "current": "0x000000000000000000000000000000000000000000022d2715ff53a538afcc00",
                        "key": "0x5e78384d278e80105f645897bcd73617d27d40bfebc216f595b2a5772d9a1541",
                        "prev": "0x00000000000000000000000000000000000000000003d4ab4d9ced807aafcc00"
                    },
                    {
                        "current": "0x00000000000000000000000000000000000000000001a789a364f808a5100000",
                        "key": "0x58a019de449ff335f7b53c863f9be7d5e56d989b37c3949a35d17f5d9e44a573",
                        "prev": "0x0000000000000000000000000000000000000000000000056bc75e2d63100000"
                    }
                ],
                "storageVariables": []
            }
        ]
    }
}