{
    "balance_change": {
        "balanceChanges": [
            {
                "account": "0x3d446104024913db089c14bf4f42611ae8a04b65",
                "assets": [
                    {
                        "address": "0x3845badade8e6dff049820680d1f14bd3903a5d0",
                        "amount": "18,564",
                        "iconUrl": "https://assets.blocksec.com/icon/7cbe910ee62b95d006cdf0f6bff21064470697470c1007c6bbb0744d19bfd504.png",
                        "isERC1155": false,
                        "isERC721": false,
                        "sign": false,
                        "value": "11756.5811999999995185"
                    }
                ]
            },
            {
                "account": "0x209a6f33aae5aa23a817829aa91715db09144c21",
                "assets": [
                    {
                        "address": "0x3845badade8e6dff049820680d1f14bd3903a5d0",
                        "amount": "18,564",
                        "iconUrl": "https://assets.blocksec.com/icon/7cbe910ee62b95d006cdf0f6bff21064470697470c1007c6bbb0744d19bfd504.png",
                        "isERC1155": false,
                        "isERC721": false,
                        "sign": true,
                        "value": "11756.5811999999995185"
                    }
                ]
            }
        ]
    },
    "profile": {
        "basic_info": {
            "baseFee": "18.671959373",
            "blockNumber": 18867831,
            "callData": "0xa9059cbb000000000000000000000000209a6f33aae5aa23a817829aa91715db09144c210000000000000000000000000000000000000000000003ee5b40bbb66f900000",
            "debugEnable": true,
            "errorInfo": "",
            "eventCount": 1,
            "feeRecipient": "0x95222290dd7278aa3ddd389cc1e1d165cc4bafe5",
            "formatValue": "0",
            "gasLimit": 200000,
            "gasPrice": "20.671959373",
            "gasUsed": 34236,
            "intTxnCount": 0,
            "internalRevert": false,
            "internalRevertMessage": "",
            "isContractCreation": false,
            "isFlashloan": false,
            "maxFee": "39.176448284",
            "nonce": 293,
            "overwritedBlockNumber": -1,
            "priorityFee": "2",
            "receiver": "0x3845badade8e6dff049820680d1f14bd3903a5d0",
            "revertMessage": "",
            "sender": "0x3d446104024913db089c14bf4f42611ae8a04b65",
            "simulationEnable": true,
            "sourceTxnHash": "0xf3e8011fd9ca9b79c1e3991f1e4b13bdd98a7f2a77b995c4f40b65ede6e8ceb0",
            "status": true,
            "timestamp": "2023-12-26T05:37:59Z",
            "transactionFee": "0.000707725201094028",
            "txnHash": "0xf3e8011fd9ca9b79c1e3991f1e4b13bdd98a7f2a77b995c4f40b65ede6e8ceb0",
            "txnIndex": 35,
            "type": 2,
            "value": "0"
        },
        "fund_flow": [
            {
                "amount": "18,564",
                "from": "0x3d446104024913db089c14bf4f42611ae8a04b65",
                "id": 1,
                "isERC1155": false,
                "isERC721": false,
                "isReverted": false,
                "order": 1,
                "to": "0x209a6f33aae5aa23a817829aa91715db09144c21",
                "token": "0x3845badade8e6dff049820680d1f14bd3903a5d0"
            }
        ],
        "token_infos": [
            {
                "address": "0xc02aaa39b223fe8d0a0e5c4f27ead9083c756cc2",
                "decimals": 18
            },
            {
                "address": "0xeeeeeeeeeeeeeeeeeeeeeeeeeeeeeeeeeeeeeeee",
                "decimals": 18
            },
            {
                "address": "0x3845badade8e6dff049820680d1f14bd3903a5d0",
                "decimals": 18
            }
        ]
    },
    "address_label": {
        "labels": [
            {
                "address": "0x0000000000000000000000000000000000000001",
                "label": "Precompiled"
            },
            {
                "address": "0x0000000000000000000000000000000000000002",
                "label": "Precompiled"
            },
            {
                "address": "0x0000000000000000000000000000000000000003",
                "label": "Precompiled"
            },
            {
                "address": "0x0000000000000000000000000000000000000004",
                "label": "Precompiled"
            },
            {
                "address": "0xeeeeeeeeeeeeeeeeeeeeeeeeeeeeeeeeeeeeeeee",
                "label": "Ether"
            },
            {
                "address": "0x3845badade8e6dff049820680d1f14bd3903a5d0",
                "label": "The Sandbox: SAND Token"
            }
        ]
    },
    "trace": {
        "accountLabels": null,
        "dataMap": {
            "-1": {
                "invocation": {
                    "address": "0x3d446104024913db089c14bf4f42611ae8a04b65",
                    "callData": "",
                    "decodedMethod": null,
                    "errorInfo": "",
                    "fromAddress": "",
                    "gasUsed": 0,
                    "id": -1,
                    "methodDecoded": false,
                    "operation": "",
                    "output": "",
                    "revert": false,
                    "revertMessage": "",
                    "selector": "",
                    "status": false,
                    "value": ""
                },
                "nodeType": 0
            },
            "0": {
                "invocation": {
                    "address": "0x3845badade8e6dff049820680d1f14bd3903a5d0",
                    "callData": "0x000000000000000000000000209a6f33aae5aa23a817829aa91715db09144c210000000000000000000000000000000000000000000003ee5b40bbb66f900000",
                    "decodedMethod": {
                        "callParams": [
                            {
                                "name": "to",
                                "type": "address",
                                "value": "0x209a6f33aae5aa23a817829aa91715db09144c21"
                            },
                            {
                                "decimalAvailable": true,
                                "name": "amount",
                                "type": "uint256",
                                "value": "18,564,000,000,000,000,000,000"
                            }
                        ],
                        "constructorArguments": "",
                        "name": "transfer",
                        "returnParams": [
                            {
                                "name": "success",
                                "type": "bool",
                                "value": true
                            }
                        ],
                        "signature": "transfer(address,uint256)"
                    },
                    "errorInfo": "",
                    "fromAddress": "0x3d446104024913db089c14bf4f42611ae8a04b65",
                    "gasUsed": 34236,
                    "id": 0,
                    "methodDecoded": true,
                    "operation": "CALL",
                    "output": "0x0000000000000000000000000000000000000000000000000000000000000001",
                    "revert": false,
                    "revertMessage": "",
                    "selector": "0xa9059cbb",
                    "status": true,
                    "value": "0"
                },
                "nodeType": 0
            },
            "1": {
                "event": {
                    "contract": "0x3845badade8e6dff049820680d1f14bd3903a5d0",
                    "decodedLog": {
                        "name": "Transfer",
                        "params": [
                            {
                                "name": "from",
                                "type": "address",
                                "value": "0x3d446104024913db089c14bf4f42611ae8a04b65"
                            },
                            {
                                "name": "to",
                                "type": "address",
                                "value": "0x209a6f33aae5aa23a817829aa91715db09144c21"
                            },
                            {
                                "decimalAvailable": true,
                                "name": "value",
                                "type": "uint256",
                                "value": "18,564,000,000,000,000,000,000"
                            }
                        ],
                        "signature": "Transfer(address,address,uint256)"
                    },
                    "id": 1,
                    "logData": "0x0000000000000000000000000000000000000000000003ee5b40bbb66f900000",
                    "logDecoded": true,
                    "operation": "EVENT",
                    "revert": false,
                    "status": true,
                    "topics": [
                        "0xddf252ad1be2c89b69c2b068fc378daa952ba7f163c4a11628f55a4df523b3ef",
                        "0x0000000000000000000000003d446104024913db089c14bf4f42611ae8a04b65",
                        "0x000000000000000000000000209a6f33aae5aa23a817829aa91715db09144c21"
                    ]
                },
                "nodeType": 1
            }
        },
        "gasFlame": [
            {
                "children": [
                    {
                        "children": [
                            {
                                "children": [],
                                "depth": 0,
                                "name": "Initial Gas",
                                "value": 21656
                            },
                            {
                                "children": [],
                                "depth": 0,
                                "name": "Executed Gas",
                                "value": 12580
                            }
                        ],
                        "depth": -1,
                        "name": "Actual Gas Used",
                        "value": 34236
                    },
                    {
                        "children": [],
                        "depth": -1,
                        "name": "Refunded Gas",
                        "value": 0
                    }
                ],
                "depth": -2,
                "name": "Total Gas",
                "value": 34236
            }
        ],
        "isConfirmed": true,
        "mainTrace": [
            {
                "children": [
                    {
                        "children": [
                            {
                                "children": [],
                                "depth": 1,
                                "id": 1,
                                "order": 1
                            }
                        ],
                        "depth": 0,
                        "id": 0,
                        "order": 0
                    }
                ],
                "depth": -1,
                "id": -1,
                "order": -1
            }
        ],
        "mainTraceNodeCount": 2,
        "parentIdMap": {
            "0": -1,
            "1": 0
        },
        "tidyTrace": [
            {
                "children": [
                    {
                        "children": [
                            {
                                "children": [],
                                "depth": 1,
                                "id": 1,
                                "order": 1
                            }
                        ],
                        "depth": 0,
                        "id": 0,
                        "order": 0
                    }
                ],
                "depth": -1,
                "id": -1,
                "order": -1
            }
        ],
        "tidyTraceNodeCount": 2
    },
    "state_change": {
        "stateChanges": [
            {
                "address": "0x3845badade8e6dff049820680d1f14bd3903a5d0",
                "erc": "ERC-20",
                "slots": [
                    {
                        "current": "0x00000000000000000000000000000000000000000003923bec9d2fff494f4a11",
                        "key": "0xce094400e90430724e63b326b19c480993f3df08f6211400b519ab5950986bd1",
                        "prev": "0x00000000000000000000000000000000000000000003962a47ddebb5b8df4a11"
                    },
                    {
                        "current": "0x0000000000000000000000000000000000000000000007d1b55096f722d40000",
                        "key": "0x36276e935dd503aac5aec48ec7fe4d14db9de8a910bef0c9f82fd1d6a22a67b8",
                        "prev": "0x0000000000000000000000000000000000000000000003e35a0fdb40b3440000"
                    }
                ],
                "storageVariables": [
                    {
                        "name": "_balances",
                        "type": "mapping(address => uint256)",
                        "value": {
                            "pairs": [
                                {
                                    "key": "0x209a6f33aae5aa23a817829aa91715db09144c21",
                                    "value": {
                                        "current": "36925000000000000000000",
                                        "prev": "18361000000000000000000",
                                        "typeTag": 1
                                    }
                                },
                                {
                                    "key": "0x3d446104024913db089c14bf4f42611ae8a04b65",
                                    "value": {
                                        "current": "4317348373079742376528401",
                                        "prev": "4335912373079742376528401",
                                        "typeTag": 1
                                    }
                                }
                            ],
                            "typeTag": 4
                        }
                    }
                ]
            }
        ]
    }
}