{
    "balance_change": {
        "balanceChanges": [
            {
                "account": "0x2a5c2568b10a0e826bfa892cf21ba7218310180b",
                "assets": [
                    {
                        "address": "0xeeeeeeeeeeeeeeeeeeeeeeeeeeeeeeeeeeeeeeee",
                        "amount": "0.469308117394490886",
                        "iconUrl": "https://assets.blocksec.com/image/1663669189317-3.png",
                        "isERC1155": false,
                        "isERC721": false,
                        "sign": false,
                        "value": "982.2243450688080342"
                    }
                ]
            },
            {
                "account": "0xd96ae67955de94caac04efc8edb857557dd67c2b",
                "assets": [
                    {
                        "address": "0xeeeeeeeeeeeeeeeeeeeeeeeeeeeeeeeeeeeeeeee",
                        "amount": "0.469308117394490886",
                        "iconUrl": "https://assets.blocksec.com/image/1663669189317-3.png",
                        "isERC1155": false,
                        "isERC721": false,
                        "sign": true,
                        "value": "982.2243450688080342"
                    }
                ]
            }
        ]
    },
    "profile": {
        "basic_info": {
            "baseFee": "34.459162048",
            "blockNumber": 18689376,
            "callData": "0x316182a3000000000000000000000000eeeeeeeeeeeeeeeeeeeeeeeeeeeeeeeeeeeeeeee000000000000000000000000000000000000000000000000069f4bea34a7ba08000000000000000000000000d96ae67955de94caac04efc8edb857557dd67c2b00000000000000000000000000000000000000000000000000000000000000e00000000000000000000000000000000000000000204fce5e3e2502611000000000000000000000000000000000000000000000000000000000000000000000380000000000000000000000000000000000000000000000000000000000000000000000000000000000000000000000000000000000000000000000000000002050ef90af2bc3ac0d0d32e5f0810fb11b3095a8b90d26f163cc1b9d72560603c4",
            "debugEnable": true,
            "errorInfo": "",
            "eventCount": 4,
            "feeRecipient": "0x1f9090aae28b8a3dceadf281b0f12828e676c326",
            "formatValue": "0",
            "gasLimit": 298878,
            "gasPrice": "40.346467419",
            "gasUsed": 191310,
            "intTxnCount": 21,
            "internalRevert": false,
            "internalRevertMessage": "",
            "isContractCreation": false,
            "isFlashloan": false,
            "maxFee": "58.5",
            "nonce": 11485,
            "overwritedBlockNumber": -1,
            "priorityFee": "5.887305371",
            "receiver": "0x2a5c2568b10a0e826bfa892cf21ba7218310180b",
            "revertMessage": "",
            "sender": "0x1439eda7f9a911b9120e9a0dafb60eae317f7685",
            "simulationEnable": true,
            "sourceTxnHash": "0xf36bdb919e12ed85771516b0ddb80335f3cb6923578507f54440840dc255d9fb",
            "status": true,
            "timestamp": "2023-12-01T05:07:47Z",
            "transactionFee": "0.00771868268192889",
            "txnHash": "0xf36bdb919e12ed85771516b0ddb80335f3cb6923578507f54440840dc255d9fb",
            "txnIndex": 12,
            "type": 2,
            "value": "0"
        },
        "fund_flow": [
            {
                "amount": "0.469308117394490886",
                "from": "0x2a5c2568b10a0e826bfa892cf21ba7218310180b",
                "id": 1,
                "isERC1155": false,
                "isERC721": false,
                "isReverted": false,
                "order": 1,
                "to": "0xd96ae67955de94caac04efc8edb857557dd67c2b",
                "token": "0xeeeeeeeeeeeeeeeeeeeeeeeeeeeeeeeeeeeeeeee"
            }
        ],
        "token_infos": [
            {
                "address": "0xeeeeeeeeeeeeeeeeeeeeeeeeeeeeeeeeeeeeeeee",
                "decimals": 18
            },
            {
                "address": "0xc02aaa39b223fe8d0a0e5c4f27ead9083c756cc2",
                "decimals": 18
            }
        ]
    },
    "address_label": {
        "labels": [
            {
                "address": "0xeeeeeeeeeeeeeeeeeeeeeeeeeeeeeeeeeeeeeeee",
                "label": "Ether"
            },
            {
                "address": "0x52a592ffe0377b351c8fd99189e5333ec362d66a",
                "label": "LiquidityProviders"
            },
            {
                "address": "0xe6dbf5861ed9828594af4c6ea6356411c3a0b168",
                "label": "TransparentUpgradeableProxy_e6db_b168"
            },
            {
                "address": "0x0000000000000000000000000000000000000004",
                "label": "Precompiled"
            },
            {
                "address": "0xbd761d917fb77381b4398bda89c7f0d9a2bd1399",
                "label": "ExecutorManager"
            },
            {
                "address": "0xebab24f13de55789ec1f3ffe99a285754e15f7b9",
                "label": "Biconomy: Liquidity Providers"
            },
            {
                "address": "0x1439eda7f9a911b9120e9a0dafb60eae317f7685",
                "label": "Hyphen: Executor 2"
            },
            {
                "address": "0x0000000000000000000000000000000000000001",
                "label": "Precompiled"
            },
            {
                "address": "0x0000000000000000000000000000000000000003",
                "label": "Precompiled"
            },
            {
                "address": "0x256415a1f9468e5405abdafd9b76c4f24451d7e7",
                "label": "LiquidityPool"
            },
            {
                "address": "0x79e559ac5b499a5676e28f0074e29763f6c2a27e",
                "label": "TokenManager"
            },
            {
                "address": "0x0000000000000000000000000000000000000002",
                "label": "Precompiled"
            },
            {
                "address": "0x2a5c2568b10a0e826bfa892cf21ba7218310180b",
                "label": "Biconomy: Liquidity Pool"
            }
        ]
    },
    "trace": {
        "accountLabels": null,
        "dataMap": {
            "-1": {
                "invocation": {
                    "address": "0x1439eda7f9a911b9120e9a0dafb60eae317f7685",
                    "callData": "",
                    "decodedMethod": null,
                    "errorInfo": "",
                    "fromAddress": "",
                    "gasUsed": 0,
                    "id": -1,
                    "methodDecoded": false,
                    "operation": "",
                    "output": "",
                    "revert": false,
                    "revertMessage": "",
                    "selector": "",
                    "status": false,
                    "value": ""
                },
                "nodeType": 0
            },
            "0": {
                "invocation": {
                    "address": "0x2a5c2568b10a0e826bfa892cf21ba7218310180b",
                    "callData": "0x000000000000000000000000eeeeeeeeeeeeeeeeeeeeeeeeeeeeeeeeeeeeeeee000000000000000000000000000000000000000000000000069f4bea34a7ba08000000000000000000000000d96ae67955de94caac04efc8edb857557dd67c2b00000000000000000000000000000000000000000000000000000000000000e00000000000000000000000000000000000000000204fce5e3e2502611000000000000000000000000000000000000000000000000000000000000000000000380000000000000000000000000000000000000000000000000000000000000000000000000000000000000000000000000000000000000000000000000000002050ef90af2bc3ac0d0d32e5f0810fb11b3095a8b90d26f163cc1b9d72560603c4",
                    "decodedMethod": {
                        "callParams": [
                            {
                                "name": "tokenAddress",
                                "type": "address",
                                "value": "0xeeeeeeeeeeeeeeeeeeeeeeeeeeeeeeeeeeeeeeee"
                            },
                            {
                                "name": "amount",
                                "type": "uint256",
                                "value": "477,183,554,802,399,752"
                            },
                            {
                                "name": "receiver",
                                "type": "address",
                                "value": "0xd96ae67955de94caac04efc8edb857557dd67c2b"
                            },
                            {
                                "name": "depositHash",
                                "type": "bytes",
                                "value": "0x50ef90af2bc3ac0d0d32e5f0810fb11b3095a8b90d26f163cc1b9d72560603c4"
                            },
                            {
                                "name": "nativeTokenPriceInTransferredToken",
                                "type": "uint256",
                                "value": "10,000,000,000,000,000,000,000,000,000"
                            },
                            {
                                "name": "fromChainId",
                                "type": "uint256",
                                "value": "56"
                            },
                            {
                                "name": "tokenGasBaseFee",
                                "type": "uint256",
                                "value": "0"
                            }
                        ],
                        "constructorArguments": "",
                        "name": "sendFundsToUserV2",
                        "returnParams": [],
                        "signature": "sendFundsToUserV2(address,uint256,address,bytes,uint256,uint256,uint256)"
                    },
                    "errorInfo": "",
                    "fromAddress": "0x1439eda7f9a911b9120e9a0dafb60eae317f7685",
                    "gasUsed": 191310,
                    "id": 0,
                    "methodDecoded": true,
                    "operation": "CALL",
                    "output": "",
                    "revert": false,
                    "revertMessage": "",
                    "selector": "0x316182a3",
                    "status": true,
                    "value": "0"
                },
                "nodeType": 0
            },
            "1": {
                "invocation": {
                    "address": "0x256415a1f9468e5405abdafd9b76c4f24451d7e7",
                    "callData": "0x000000000000000000000000eeeeeeeeeeeeeeeeeeeeeeeeeeeeeeeeeeeeeeee000000000000000000000000000000000000000000000000069f4bea34a7ba08000000000000000000000000d96ae67955de94caac04efc8edb857557dd67c2b00000000000000000000000000000000000000000000000000000000000000e00000000000000000000000000000000000000000204fce5e3e2502611000000000000000000000000000000000000000000000000000000000000000000000380000000000000000000000000000000000000000000000000000000000000000000000000000000000000000000000000000000000000000000000000000002050ef90af2bc3ac0d0d32e5f0810fb11b3095a8b90d26f163cc1b9d72560603c4",
                    "decodedMethod": {
                        "callParams": [
                            {
                                "name": "tokenAddress",
                                "type": "address",
                                "value": "0xeeeeeeeeeeeeeeeeeeeeeeeeeeeeeeeeeeeeeeee"
                            },
                            {
                                "name": "amount",
                                "type": "uint256",
                                "value": "477,183,554,802,399,752"
                            },
                            {
                                "name": "receiver",
                                "type": "address",
                                "value": "0xd96ae67955de94caac04efc8edb857557dd67c2b"
                            },
                            {
                                "name": "depositHash",
                                "type": "bytes",
                                "value": "0x50ef90af2bc3ac0d0d32e5f0810fb11b3095a8b90d26f163cc1b9d72560603c4"
                            },
                            {
                                "name": "nativeTokenPriceInTransferredToken",
                                "type": "uint256",
                                "value": "10,000,000,000,000,000,000,000,000,000"
                            },
                            {
                                "name": "fromChainId",
                                "type": "uint256",
                                "value": "56"
                            },
                            {
                                "name": "tokenGasBaseFee",
                                "type": "uint256",
                                "value": "0"
                            }
                        ],
                        "constructorArguments": "",
                        "name": "sendFundsToUserV2",
                        "returnParams": [],
                        "signature": "sendFundsToUserV2(address,uint256,address,bytes,uint256,uint256,uint256)"
                    },
                    "errorInfo": "",
                    "fromAddress": "0x2a5c2568b10a0e826bfa892cf21ba7218310180b",
                    "gasUsed": 163417,
                    "id": 1,
                    "methodDecoded": true,
                    "operation": "DELEGATECALL",
                    "output": "",
                    "revert": false,
                    "revertMessage": "",
                    "selector": "0x316182a3",
                    "status": true,
                    "value": "0"
                },
                "nodeType": 0
            },
            "10": {
                "invocation": {
                    "address": "0x52a592ffe0377b351c8fd99189e5333ec362d66a",
                    "callData": "0x000000000000000000000000eeeeeeeeeeeeeeeeeeeeeeeeeeeeeeeeeeeeeeee",
                    "decodedMethod": {
                        "callParams": [
                            {
                                "name": "",
                                "type": "address",
                                "value": "0xeeeeeeeeeeeeeeeeeeeeeeeeeeeeeeeeeeeeeeee"
                            }
                        ],
                        "constructorArguments": "",
                        "name": "totalLPFees",
                        "returnParams": [
                            {
                                "name": "",
                                "type": "uint256",
                                "value": "1,796,962,790,809,151,076"
                            }
                        ],
                        "signature": "totalLPFees(address)"
                    },
                    "errorInfo": "",
                    "fromAddress": "0xebab24f13de55789ec1f3ffe99a285754e15f7b9",
                    "gasUsed": 2591,
                    "id": 10,
                    "methodDecoded": true,
                    "operation": "DELEGATECALL",
                    "output": "0x00000000000000000000000000000000000000000000000018f0182334c62664",
                    "revert": false,
                    "revertMessage": "",
                    "selector": "0xd1b4f192",
                    "status": true,
                    "value": "0"
                },
                "nodeType": 0
            },
            "11": {
                "invocation": {
                    "address": "0xebab24f13de55789ec1f3ffe99a285754e15f7b9",
                    "callData": "0x000000000000000000000000eeeeeeeeeeeeeeeeeeeeeeeeeeeeeeeeeeeeeeee",
                    "decodedMethod": {
                        "callParams": [
                            {
                                "name": "tokenAddress",
                                "type": "address",
                                "value": "0xeeeeeeeeeeeeeeeeeeeeeeeeeeeeeeeeeeeeeeee"
                            }
                        ],
                        "constructorArguments": "",
                        "name": "getSuppliedLiquidityByToken",
                        "returnParams": [
                            {
                                "name": "",
                                "type": "uint256",
                                "value": "70,690,000,000,000,000,000"
                            }
                        ],
                        "signature": "getSuppliedLiquidityByToken(address)"
                    },
                    "errorInfo": "",
                    "fromAddress": "0x2a5c2568b10a0e826bfa892cf21ba7218310180b",
                    "gasUsed": 3462,
                    "id": 11,
                    "methodDecoded": true,
                    "operation": "STATICCALL",
                    "output": "0x000000000000000000000000000000000000000000000003d5055477e45d0000",
                    "revert": false,
                    "revertMessage": "",
                    "selector": "0xb3524e30",
                    "status": true,
                    "value": "0"
                },
                "nodeType": 0
            },
            "12": {
                "invocation": {
                    "address": "0x52a592ffe0377b351c8fd99189e5333ec362d66a",
                    "callData": "0x000000000000000000000000eeeeeeeeeeeeeeeeeeeeeeeeeeeeeeeeeeeeeeee",
                    "decodedMethod": {
                        "callParams": [
                            {
                                "name": "tokenAddress",
                                "type": "address",
                                "value": "0xeeeeeeeeeeeeeeeeeeeeeeeeeeeeeeeeeeeeeeee"
                            }
                        ],
                        "constructorArguments": "",
                        "name": "getSuppliedLiquidityByToken",
                        "returnParams": [
                            {
                                "name": "",
                                "type": "uint256",
                                "value": "70,690,000,000,000,000,000"
                            }
                        ],
                        "signature": "getSuppliedLiquidityByToken(address)"
                    },
                    "errorInfo": "",
                    "fromAddress": "0xebab24f13de55789ec1f3ffe99a285754e15f7b9",
                    "gasUsed": 2631,
                    "id": 12,
                    "methodDecoded": true,
                    "operation": "DELEGATECALL",
                    "output": "0x000000000000000000000000000000000000000000000003d5055477e45d0000",
                    "revert": false,
                    "revertMessage": "",
                    "selector": "0xb3524e30",
                    "status": true,
                    "value": "0"
                },
                "nodeType": 0
            },
            "13": {
                "invocation": {
                    "address": "0xe6dbf5861ed9828594af4c6ea6356411c3a0b168",
                    "callData": "0x000000000000000000000000eeeeeeeeeeeeeeeeeeeeeeeeeeeeeeeeeeeeeeee",
                    "decodedMethod": {
                        "callParams": [
                            {
                                "name": "",
                                "type": "address",
                                "value": "0xeeeeeeeeeeeeeeeeeeeeeeeeeeeeeeeeeeeeeeee"
                            }
                        ],
                        "constructorArguments": "",
                        "name": "excessStateTransferFeePerc",
                        "returnParams": [
                            {
                                "name": "",
                                "type": "uint256",
                                "value": "4,500,000"
                            }
                        ],
                        "signature": "excessStateTransferFeePerc(address)"
                    },
                    "errorInfo": "",
                    "fromAddress": "0x2a5c2568b10a0e826bfa892cf21ba7218310180b",
                    "gasUsed": 3428,
                    "id": 13,
                    "methodDecoded": true,
                    "operation": "STATICCALL",
                    "output": "0x000000000000000000000000000000000000000000000000000000000044aa20",
                    "revert": false,
                    "revertMessage": "",
                    "selector": "0x57be3468",
                    "status": true,
                    "value": "0"
                },
                "nodeType": 0
            },
            "14": {
                "invocation": {
                    "address": "0x79e559ac5b499a5676e28f0074e29763f6c2a27e",
                    "callData": "0x000000000000000000000000eeeeeeeeeeeeeeeeeeeeeeeeeeeeeeeeeeeeeeee",
                    "decodedMethod": {
                        "callParams": [
                            {
                                "name": "",
                                "type": "address",
                                "value": "0xeeeeeeeeeeeeeeeeeeeeeeeeeeeeeeeeeeeeeeee"
                            }
                        ],
                        "constructorArguments": "",
                        "name": "excessStateTransferFeePerc",
                        "returnParams": [
                            {
                                "name": "",
                                "type": "uint256",
                                "value": "4,500,000"
                            }
                        ],
                        "signature": "excessStateTransferFeePerc(address)"
                    },
                    "errorInfo": "",
                    "fromAddress": "0xe6dbf5861ed9828594af4c6ea6356411c3a0b168",
                    "gasUsed": 2597,
                    "id": 14,
                    "methodDecoded": true,
                    "operation": "DELEGATECALL",
                    "output": "0x000000000000000000000000000000000000000000000000000000000044aa20",
                    "revert": false,
                    "revertMessage": "",
                    "selector": "0x57be3468",
                    "status": true,
                    "value": "0"
                },
                "nodeType": 0
            },
            "15": {
                "invocation": {
                    "address": "0xebab24f13de55789ec1f3ffe99a285754e15f7b9",
                    "callData": "0x000000000000000000000000eeeeeeeeeeeeeeeeeeeeeeeeeeeeeeeeeeeeeeee0000000000000000000000000000000000000000000000000000c34c54531217",
                    "decodedMethod": {
                        "callParams": [
                            {
                                "name": "_token",
                                "type": "address",
                                "value": "0xeeeeeeeeeeeeeeeeeeeeeeeeeeeeeeeeeeeeeeee"
                            },
                            {
                                "name": "_amount",
                                "type": "uint256",
                                "value": "214,732,599,661,079"
                            }
                        ],
                        "constructorArguments": "",
                        "name": "addLPFee",
                        "returnParams": [],
                        "signature": "addLPFee(address,uint256)"
                    },
                    "errorInfo": "",
                    "fromAddress": "0x2a5c2568b10a0e826bfa892cf21ba7218310180b",
                    "gasUsed": 23703,
                    "id": 15,
                    "methodDecoded": true,
                    "operation": "CALL",
                    "output": "",
                    "revert": false,
                    "revertMessage": "",
                    "selector": "0x9326b08a",
                    "status": true,
                    "value": "0"
                },
                "nodeType": 0
            },
            "16": {
                "invocation": {
                    "address": "0x52a592ffe0377b351c8fd99189e5333ec362d66a",
                    "callData": "0x000000000000000000000000eeeeeeeeeeeeeeeeeeeeeeeeeeeeeeeeeeeeeeee0000000000000000000000000000000000000000000000000000c34c54531217",
                    "decodedMethod": {
                        "callParams": [
                            {
                                "name": "_token",
                                "type": "address",
                                "value": "0xeeeeeeeeeeeeeeeeeeeeeeeeeeeeeeeeeeeeeeee"
                            },
                            {
                                "name": "_amount",
                                "type": "uint256",
                                "value": "214,732,599,661,079"
                            }
                        ],
                        "constructorArguments": "",
                        "name": "addLPFee",
                        "returnParams": [],
                        "signature": "addLPFee(address,uint256)"
                    },
                    "errorInfo": "",
                    "fromAddress": "0xebab24f13de55789ec1f3ffe99a285754e15f7b9",
                    "gasUsed": 22872,
                    "id": 16,
                    "methodDecoded": true,
                    "operation": "DELEGATECALL",
                    "output": "",
                    "revert": false,
                    "revertMessage": "",
                    "selector": "0x9326b08a",
                    "status": true,
                    "value": "0"
                },
                "nodeType": 0
            },
            "17": {
                "invocation": {
                    "address": "0xe6dbf5861ed9828594af4c6ea6356411c3a0b168",
                    "callData": "0x000000000000000000000000eeeeeeeeeeeeeeeeeeeeeeeeeeeeeeeeeeeeeeee",
                    "decodedMethod": {
                        "callParams": [
                            {
                                "name": "tokenAddress",
                                "type": "address",
                                "value": "0xeeeeeeeeeeeeeeeeeeeeeeeeeeeeeeeeeeeeeeee"
                            }
                        ],
                        "constructorArguments": "",
                        "name": "getTokensInfo",
                        "returnParams": [
                            {
                                "name": "",
                                "type": "(uint256,bool,uint256,uint256,(uint256,uint256))",
                                "value": [
                                    {
                                        "name": "transferOverhead",
                                        "type": "uint256",
                                        "value": "59,271"
                                    },
                                    {
                                        "name": "supportedToken",
                                        "type": "bool",
                                        "value": true
                                    },
                                    {
                                        "name": "equilibriumFee",
                                        "type": "uint256",
                                        "value": "7,500,000"
                                    },
                                    {
                                        "name": "maxFee",
                                        "type": "uint256",
                                        "value": "50,000,000"
                                    },
                                    {
                                        "name": "tokenConfig",
                                        "type": "(uint256,uint256)",
                                        "value": [
                                            {
                                                "name": "min",
                                                "type": "uint256",
                                                "value": "20,000,000,000,000,000"
                                            },
                                            {
                                                "name": "max",
                                                "type": "uint256",
                                                "value": "143,000,000,000,000,000,000"
                                            }
                                        ]
                                    }
                                ]
                            }
                        ],
                        "signature": "getTokensInfo(address)"
                    },
                    "errorInfo": "",
                    "fromAddress": "0xebab24f13de55789ec1f3ffe99a285754e15f7b9",
                    "gasUsed": 2744,
                    "id": 17,
                    "methodDecoded": true,
                    "operation": "STATICCALL",
                    "output": "0x000000000000000000000000000000000000000000000000000000000000e787000000000000000000000000000000000000000000000000000000000000000100000000000000000000000000000000000000000000000000000000007270e00000000000000000000000000000000000000000000000000000000002faf08000000000000000000000000000000000000000000000000000470de4df820000000000000000000000000000000000000000000000000007c0860e5a80dc0000",
                    "revert": false,
                    "revertMessage": "",
                    "selector": "0xfa5e2abc",
                    "status": true,
                    "value": "0"
                },
                "nodeType": 0
            },
            "18": {
                "invocation": {
                    "address": "0x79e559ac5b499a5676e28f0074e29763f6c2a27e",
                    "callData": "0x000000000000000000000000eeeeeeeeeeeeeeeeeeeeeeeeeeeeeeeeeeeeeeee",
                    "decodedMethod": {
                        "callParams": [
                            {
                                "name": "tokenAddress",
                                "type": "address",
                                "value": "0xeeeeeeeeeeeeeeeeeeeeeeeeeeeeeeeeeeeeeeee"
                            }
                        ],
                        "constructorArguments": "",
                        "name": "getTokensInfo",
                        "returnParams": [
                            {
                                "name": "",
                                "type": "(uint256,bool,uint256,uint256,(uint256,uint256))",
                                "value": [
                                    {
                                        "name": "transferOverhead",
                                        "type": "uint256",
                                        "value": "59,271"
                                    },
                                    {
                                        "name": "supportedToken",
                                        "type": "bool",
                                        "value": true
                                    },
                                    {
                                        "name": "equilibriumFee",
                                        "type": "uint256",
                                        "value": "7,500,000"
                                    },
                                    {
                                        "name": "maxFee",
                                        "type": "uint256",
                                        "value": "50,000,000"
                                    },
                                    {
                                        "name": "tokenConfig",
                                        "type": "(uint256,uint256)",
                                        "value": [
                                            {
                                                "name": "min",
                                                "type": "uint256",
                                                "value": "20,000,000,000,000,000"
                                            },
                                            {
                                                "name": "max",
                                                "type": "uint256",
                                                "value": "143,000,000,000,000,000,000"
                                            }
                                        ]
                                    }
                                ]
                            }
                        ],
                        "signature": "getTokensInfo(address)"
                    },
                    "errorInfo": "",
                    "fromAddress": "0xe6dbf5861ed9828594af4c6ea6356411c3a0b168",
                    "gasUsed": 1889,
                    "id": 18,
                    "methodDecoded": true,
                    "operation": "DELEGATECALL",
                    "output": "0x000000000000000000000000000000000000000000000000000000000000e787000000000000000000000000000000000000000000000000000000000000000100000000000000000000000000000000000000000000000000000000007270e00000000000000000000000000000000000000000000000000000000002faf08000000000000000000000000000000000000000000000000000470de4df820000000000000000000000000000000000000000000000000007c0860e5a80dc0000",
                    "revert": false,
                    "revertMessage": "",
                    "selector": "0xfa5e2abc",
                    "status": true,
                    "value": "0"
                },
                "nodeType": 0
            },
            "19": {
                "event": {
                    "contract": "0xebab24f13de55789ec1f3ffe99a285754e15f7b9",
                    "decodedLog": {
                        "name": "FeeAdded",
                        "params": [
                            {
                                "name": "tokenAddress",
                                "type": "address",
                                "value": "0xeeeeeeeeeeeeeeeeeeeeeeeeeeeeeeeeeeeeeeee"
                            },
                            {
                                "name": "fee",
                                "type": "uint256",
                                "value": "214,732,599,661,079"
                            }
                        ],
                        "signature": "FeeAdded(address,uint256)"
                    },
                    "id": 19,
                    "logData": "0x",
                    "logDecoded": true,
                    "operation": "EVENT",
                    "revert": false,
                    "status": true,
                    "topics": [
                        "0xbf2b46285c2ba2766660d9f8cfafdb8abd51bbba1f29c584b7dd34ecf853dd4c",
                        "0x000000000000000000000000eeeeeeeeeeeeeeeeeeeeeeeeeeeeeeeeeeeeeeee",
                        "0x0000000000000000000000000000000000000000000000000000c34c54531217"
                    ]
                },
                "nodeType": 1
            },
            "2": {
                "invocation": {
                    "address": "0xbd761d917fb77381b4398bda89c7f0d9a2bd1399",
                    "callData": "0x0000000000000000000000001439eda7f9a911b9120e9a0dafb60eae317f7685",
                    "decodedMethod": {
                        "callParams": [
                            {
                                "name": "executor",
                                "type": "address",
                                "value": "0x1439eda7f9a911b9120e9a0dafb60eae317f7685"
                            }
                        ],
                        "constructorArguments": "",
                        "name": "getExecutorStatus",
                        "returnParams": [
                            {
                                "name": "status",
                                "type": "bool",
                                "value": true
                            }
                        ],
                        "signature": "getExecutorStatus(address)"
                    },
                    "errorInfo": "",
                    "fromAddress": "0x2a5c2568b10a0e826bfa892cf21ba7218310180b",
                    "gasUsed": 2648,
                    "id": 2,
                    "methodDecoded": true,
                    "operation": "STATICCALL",
                    "output": "0x0000000000000000000000000000000000000000000000000000000000000001",
                    "revert": false,
                    "revertMessage": "",
                    "selector": "0x0768d65c",
                    "status": true,
                    "value": "0"
                },
                "nodeType": 0
            },
            "20": {
                "event": {
                    "contract": "0x2a5c2568b10a0e826bfa892cf21ba7218310180b",
                    "decodedLog": {
                        "name": "GasFeeCalculated",
                        "params": [
                            {
                                "name": "gasUsed",
                                "type": "uint256",
                                "value": "189,873"
                            },
                            {
                                "name": "gasPrice",
                                "type": "uint256",
                                "value": "40,346,467,419"
                            },
                            {
                                "name": "nativeTokenPriceInTransferredToken",
                                "type": "uint256",
                                "value": "10,000,000,000,000,000,000,000,000,000"
                            },
                            {
                                "name": "tokenGasBaseFee",
                                "type": "uint256",
                                "value": "0"
                            },
                            {
                                "name": "gasFeeInTransferredToken",
                                "type": "uint256",
                                "value": "7,660,704,808,247,787"
                            }
                        ],
                        "signature": "GasFeeCalculated(uint256,uint256,uint256,uint256,uint256)"
                    },
                    "id": 20,
                    "logData": "0x0000000000000000000000000000000000000000000000000000000000000000000000000000000000000000000000000000000000000000001b375ed4d321eb",
                    "logDecoded": true,
                    "operation": "EVENT",
                    "revert": false,
                    "status": true,
                    "topics": [
                        "0x9b36696d0f99bcef3d9db526d18d2e13abee9741727d7d21128c6079d985c2e1",
                        "0x000000000000000000000000000000000000000000000000000000000002e5b1",
                        "0x0000000000000000000000000000000000000000000000000000000964d63c5b",
                        "0x0000000000000000000000000000000000000000204fce5e3e25026110000000"
                    ]
                },
                "nodeType": 1
            },
            "21": {
                "invocation": {
                    "address": "0xebab24f13de55789ec1f3ffe99a285754e15f7b9",
                    "callData": "0x000000000000000000000000eeeeeeeeeeeeeeeeeeeeeeeeeeeeeeeeeeeeeeee0000000000000000000000000000000000000000000000000683513f0b818606",
                    "decodedMethod": {
                        "callParams": [
                            {
                                "name": "tokenAddress",
                                "type": "address",
                                "value": "0xeeeeeeeeeeeeeeeeeeeeeeeeeeeeeeeeeeeeeeee"
                            },
                            {
                                "name": "amount",
                                "type": "uint256",
                                "value": "469,308,117,394,490,886"
                            }
                        ],
                        "constructorArguments": "",
                        "name": "decreaseCurrentLiquidity",
                        "returnParams": [],
                        "signature": "decreaseCurrentLiquidity(address,uint256)"
                    },
                    "errorInfo": "",
                    "fromAddress": "0x2a5c2568b10a0e826bfa892cf21ba7218310180b",
                    "gasUsed": 6643,
                    "id": 21,
                    "methodDecoded": true,
                    "operation": "CALL",
                    "output": "",
                    "revert": false,
                    "revertMessage": "",
                    "selector": "0xdd8b9923",
                    "status": true,
                    "value": "0"
                },
                "nodeType": 0
            },
            "22": {
                "invocation": {
                    "address": "0x52a592ffe0377b351c8fd99189e5333ec362d66a",
                    "callData": "0x000000000000000000000000eeeeeeeeeeeeeeeeeeeeeeeeeeeeeeeeeeeeeeee0000000000000000000000000000000000000000000000000683513f0b818606",
                    "decodedMethod": {
                        "callParams": [
                            {
                                "name": "tokenAddress",
                                "type": "address",
                                "value": "0xeeeeeeeeeeeeeeeeeeeeeeeeeeeeeeeeeeeeeeee"
                            },
                            {
                                "name": "amount",
                                "type": "uint256",
                                "value": "469,308,117,394,490,886"
                            }
                        ],
                        "constructorArguments": "",
                        "name": "decreaseCurrentLiquidity",
                        "returnParams": [],
                        "signature": "decreaseCurrentLiquidity(address,uint256)"
                    },
                    "errorInfo": "",
                    "fromAddress": "0xebab24f13de55789ec1f3ffe99a285754e15f7b9",
                    "gasUsed": 5812,
                    "id": 22,
                    "methodDecoded": true,
                    "operation": "DELEGATECALL",
                    "output": "",
                    "revert": false,
                    "revertMessage": "",
                    "selector": "0xdd8b9923",
                    "status": true,
                    "value": "0"
                },
                "nodeType": 0
            },
            "23": {
                "event": {
                    "contract": "0xebab24f13de55789ec1f3ffe99a285754e15f7b9",
                    "decodedLog": {
                        "name": "CurrentLiquidityChanged",
                        "params": [
                            {
                                "name": "token",
                                "type": "address",
                                "value": "0xeeeeeeeeeeeeeeeeeeeeeeeeeeeeeeeeeeeeeeee"
                            },
                            {
                                "name": "newValue",
                                "type": "uint256",
                                "value": "164,887,189,761,174,272,431"
                            }
                        ],
                        "signature": "CurrentLiquidityChanged(address,uint256)"
                    },
                    "id": 23,
                    "logData": "0x",
                    "logDecoded": true,
                    "operation": "EVENT",
                    "revert": false,
                    "status": true,
                    "topics": [
                        "0xf28044030a28cf7d3fb8e8f7bbaa42aee92214081fd522b3a38afb279577db89",
                        "0x000000000000000000000000eeeeeeeeeeeeeeeeeeeeeeeeeeeeeeeeeeeeeeee",
                        "0x000000000000000000000000000000000000000000000008f044f97a5f37f9af"
                    ]
                },
                "nodeType": 1
            },
            "24": {
                "invocation": {
                    "address": "0xd96ae67955de94caac04efc8edb857557dd67c2b",
                    "callData": "0x",
                    "decodedMethod": null,
                    "errorInfo": "",
                    "fromAddress": "0x2a5c2568b10a0e826bfa892cf21ba7218310180b",
                    "gasUsed": 0,
                    "id": 24,
                    "methodDecoded": false,
                    "operation": "CALL",
                    "output": "",
                    "revert": false,
                    "revertMessage": "",
                    "selector": "fallback",
                    "status": true,
                    "value": "0.469308117394490886"
                },
                "nodeType": 0
            },
            "25": {
                "event": {
                    "contract": "0x2a5c2568b10a0e826bfa892cf21ba7218310180b",
                    "decodedLog": {
                        "name": "AssetSent",
                        "params": [
                            {
                                "name": "asset",
                                "type": "address",
                                "value": "0xeeeeeeeeeeeeeeeeeeeeeeeeeeeeeeeeeeeeeeee"
                            },
                            {
                                "name": "amount",
                                "type": "uint256",
                                "value": "477,183,554,802,399,752"
                            },
                            {
                                "name": "transferredAmount",
                                "type": "uint256",
                                "value": "469,308,117,394,490,886"
                            },
                            {
                                "name": "target",
                                "type": "address",
                                "value": "0xd96ae67955de94caac04efc8edb857557dd67c2b"
                            },
                            {
                                "name": "depositHash",
                                "type": "bytes",
                                "value": "0x50ef90af2bc3ac0d0d32e5f0810fb11b3095a8b90d26f163cc1b9d72560603c4"
                            },
                            {
                                "name": "fromChainId",
                                "type": "uint256",
                                "value": "56"
                            },
                            {
                                "name": "lpFee",
                                "type": "uint256",
                                "value": "214,732,599,661,079"
                            },
                            {
                                "name": "transferFee",
                                "type": "uint256",
                                "value": "214,732,599,661,079"
                            },
                            {
                                "name": "gasFee",
                                "type": "uint256",
                                "value": "7,660,704,808,247,787"
                            }
                        ],
                        "signature": "AssetSent(address,uint256,uint256,address,bytes,uint256,uint256,uint256,uint256)"
                    },
                    "id": 25,
                    "logData": "0x000000000000000000000000d96ae67955de94caac04efc8edb857557dd67c2b00000000000000000000000000000000000000000000000000000000000000c000000000000000000000000000000000000000000000000000000000000000380000000000000000000000000000000000000000000000000000c34c545312170000000000000000000000000000000000000000000000000000c34c54531217000000000000000000000000000000000000000000000000001b375ed4d321eb000000000000000000000000000000000000000000000000000000000000002050ef90af2bc3ac0d0d32e5f0810fb11b3095a8b90d26f163cc1b9d72560603c4",
                    "logDecoded": true,
                    "operation": "EVENT",
                    "revert": false,
                    "status": true,
                    "topics": [
                        "0x6bfd5ee5792d66b151a3fab9f56ee828a0f1c3216d4b752e267cd5590326b15c",
                        "0x000000000000000000000000eeeeeeeeeeeeeeeeeeeeeeeeeeeeeeeeeeeeeeee",
                        "0x000000000000000000000000000000000000000000000000069f4bea34a7ba08",
                        "0x0000000000000000000000000000000000000000000000000683513f0b818606"
                    ]
                },
                "nodeType": 1
            },
            "3": {
                "invocation": {
                    "address": "0xe6dbf5861ed9828594af4c6ea6356411c3a0b168",
                    "callData": "0x000000000000000000000000eeeeeeeeeeeeeeeeeeeeeeeeeeeeeeeeeeeeeeee",
                    "decodedMethod": {
                        "callParams": [
                            {
                                "name": "tokenAddress",
                                "type": "address",
                                "value": "0xeeeeeeeeeeeeeeeeeeeeeeeeeeeeeeeeeeeeeeee"
                            }
                        ],
                        "constructorArguments": "",
                        "name": "getTransferConfig",
                        "returnParams": [
                            {
                                "name": "",
                                "type": "(uint256,uint256)",
                                "value": [
                                    {
                                        "name": "min",
                                        "type": "uint256",
                                        "value": "20,000,000,000,000,000"
                                    },
                                    {
                                        "name": "max",
                                        "type": "uint256",
                                        "value": "143,000,000,000,000,000,000"
                                    }
                                ]
                            }
                        ],
                        "signature": "getTransferConfig(address)"
                    },
                    "errorInfo": "",
                    "fromAddress": "0x2a5c2568b10a0e826bfa892cf21ba7218310180b",
                    "gasUsed": 12284,
                    "id": 3,
                    "methodDecoded": true,
                    "operation": "STATICCALL",
                    "output": "0x00000000000000000000000000000000000000000000000000470de4df820000000000000000000000000000000000000000000000000007c0860e5a80dc0000",
                    "revert": false,
                    "revertMessage": "",
                    "selector": "0x128161a8",
                    "status": true,
                    "value": "0"
                },
                "nodeType": 0
            },
            "4": {
                "invocation": {
                    "address": "0x79e559ac5b499a5676e28f0074e29763f6c2a27e",
                    "callData": "0x000000000000000000000000eeeeeeeeeeeeeeeeeeeeeeeeeeeeeeeeeeeeeeee",
                    "decodedMethod": {
                        "callParams": [
                            {
                                "name": "tokenAddress",
                                "type": "address",
                                "value": "0xeeeeeeeeeeeeeeeeeeeeeeeeeeeeeeeeeeeeeeee"
                            }
                        ],
                        "constructorArguments": "",
                        "name": "getTransferConfig",
                        "returnParams": [
                            {
                                "name": "",
                                "type": "(uint256,uint256)",
                                "value": [
                                    {
                                        "name": "min",
                                        "type": "uint256",
                                        "value": "20,000,000,000,000,000"
                                    },
                                    {
                                        "name": "max",
                                        "type": "uint256",
                                        "value": "143,000,000,000,000,000,000"
                                    }
                                ]
                            }
                        ],
                        "signature": "getTransferConfig(address)"
                    },
                    "errorInfo": "",
                    "fromAddress": "0xe6dbf5861ed9828594af4c6ea6356411c3a0b168",
                    "gasUsed": 4950,
                    "id": 4,
                    "methodDecoded": true,
                    "operation": "DELEGATECALL",
                    "output": "0x00000000000000000000000000000000000000000000000000470de4df820000000000000000000000000000000000000000000000000007c0860e5a80dc0000",
                    "revert": false,
                    "revertMessage": "",
                    "selector": "0x128161a8",
                    "status": true,
                    "value": "0"
                },
                "nodeType": 0
            },
            "5": {
                "invocation": {
                    "address": "0xe6dbf5861ed9828594af4c6ea6356411c3a0b168",
                    "callData": "0x000000000000000000000000eeeeeeeeeeeeeeeeeeeeeeeeeeeeeeeeeeeeeeee",
                    "decodedMethod": {
                        "callParams": [
                            {
                                "name": "tokenAddress",
                                "type": "address",
                                "value": "0xeeeeeeeeeeeeeeeeeeeeeeeeeeeeeeeeeeeeeeee"
                            }
                        ],
                        "constructorArguments": "",
                        "name": "getTokensInfo",
                        "returnParams": [
                            {
                                "name": "",
                                "type": "(uint256,bool,uint256,uint256,(uint256,uint256))",
                                "value": [
                                    {
                                        "name": "transferOverhead",
                                        "type": "uint256",
                                        "value": "59,271"
                                    },
                                    {
                                        "name": "supportedToken",
                                        "type": "bool",
                                        "value": true
                                    },
                                    {
                                        "name": "equilibriumFee",
                                        "type": "uint256",
                                        "value": "7,500,000"
                                    },
                                    {
                                        "name": "maxFee",
                                        "type": "uint256",
                                        "value": "50,000,000"
                                    },
                                    {
                                        "name": "tokenConfig",
                                        "type": "(uint256,uint256)",
                                        "value": [
                                            {
                                                "name": "min",
                                                "type": "uint256",
                                                "value": "20,000,000,000,000,000"
                                            },
                                            {
                                                "name": "max",
                                                "type": "uint256",
                                                "value": "143,000,000,000,000,000,000"
                                            }
                                        ]
                                    }
                                ]
                            }
                        ],
                        "signature": "getTokensInfo(address)"
                    },
                    "errorInfo": "",
                    "fromAddress": "0x2a5c2568b10a0e826bfa892cf21ba7218310180b",
                    "gasUsed": 10744,
                    "id": 5,
                    "methodDecoded": true,
                    "operation": "STATICCALL",
                    "output": "0x000000000000000000000000000000000000000000000000000000000000e787000000000000000000000000000000000000000000000000000000000000000100000000000000000000000000000000000000000000000000000000007270e00000000000000000000000000000000000000000000000000000000002faf08000000000000000000000000000000000000000000000000000470de4df820000000000000000000000000000000000000000000000000007c0860e5a80dc0000",
                    "revert": false,
                    "revertMessage": "",
                    "selector": "0xfa5e2abc",
                    "status": true,
                    "value": "0"
                },
                "nodeType": 0
            },
            "6": {
                "invocation": {
                    "address": "0x79e559ac5b499a5676e28f0074e29763f6c2a27e",
                    "callData": "0x000000000000000000000000eeeeeeeeeeeeeeeeeeeeeeeeeeeeeeeeeeeeeeee",
                    "decodedMethod": {
                        "callParams": [
                            {
                                "name": "tokenAddress",
                                "type": "address",
                                "value": "0xeeeeeeeeeeeeeeeeeeeeeeeeeeeeeeeeeeeeeeee"
                            }
                        ],
                        "constructorArguments": "",
                        "name": "getTokensInfo",
                        "returnParams": [
                            {
                                "name": "",
                                "type": "(uint256,bool,uint256,uint256,(uint256,uint256))",
                                "value": [
                                    {
                                        "name": "transferOverhead",
                                        "type": "uint256",
                                        "value": "59,271"
                                    },
                                    {
                                        "name": "supportedToken",
                                        "type": "bool",
                                        "value": true
                                    },
                                    {
                                        "name": "equilibriumFee",
                                        "type": "uint256",
                                        "value": "7,500,000"
                                    },
                                    {
                                        "name": "maxFee",
                                        "type": "uint256",
                                        "value": "50,000,000"
                                    },
                                    {
                                        "name": "tokenConfig",
                                        "type": "(uint256,uint256)",
                                        "value": [
                                            {
                                                "name": "min",
                                                "type": "uint256",
                                                "value": "20,000,000,000,000,000"
                                            },
                                            {
                                                "name": "max",
                                                "type": "uint256",
                                                "value": "143,000,000,000,000,000,000"
                                            }
                                        ]
                                    }
                                ]
                            }
                        ],
                        "signature": "getTokensInfo(address)"
                    },
                    "errorInfo": "",
                    "fromAddress": "0xe6dbf5861ed9828594af4c6ea6356411c3a0b168",
                    "gasUsed": 9889,
                    "id": 6,
                    "methodDecoded": true,
                    "operation": "DELEGATECALL",
                    "output": "0x000000000000000000000000000000000000000000000000000000000000e787000000000000000000000000000000000000000000000000000000000000000100000000000000000000000000000000000000000000000000000000007270e00000000000000000000000000000000000000000000000000000000002faf08000000000000000000000000000000000000000000000000000470de4df820000000000000000000000000000000000000000000000000007c0860e5a80dc0000",
                    "revert": false,
                    "revertMessage": "",
                    "selector": "0xfa5e2abc",
                    "status": true,
                    "value": "0"
                },
                "nodeType": 0
            },
            "7": {
                "invocation": {
                    "address": "0xebab24f13de55789ec1f3ffe99a285754e15f7b9",
                    "callData": "0x000000000000000000000000eeeeeeeeeeeeeeeeeeeeeeeeeeeeeeeeeeeeeeee",
                    "decodedMethod": {
                        "callParams": [
                            {
                                "name": "tokenAddress",
                                "type": "address",
                                "value": "0xeeeeeeeeeeeeeeeeeeeeeeeeeeeeeeeeeeeeeeee"
                            }
                        ],
                        "constructorArguments": "",
                        "name": "getCurrentLiquidity",
                        "returnParams": [
                            {
                                "name": "",
                                "type": "uint256",
                                "value": "165,356,497,878,568,763,317"
                            }
                        ],
                        "signature": "getCurrentLiquidity(address)"
                    },
                    "errorInfo": "",
                    "fromAddress": "0x2a5c2568b10a0e826bfa892cf21ba7218310180b",
                    "gasUsed": 10028,
                    "id": 7,
                    "methodDecoded": true,
                    "operation": "STATICCALL",
                    "output": "0x000000000000000000000000000000000000000000000008f6c84ab96ab97fb5",
                    "revert": false,
                    "revertMessage": "",
                    "selector": "0xca2ba943",
                    "status": true,
                    "value": "0"
                },
                "nodeType": 0
            },
            "8": {
                "invocation": {
                    "address": "0x52a592ffe0377b351c8fd99189e5333ec362d66a",
                    "callData": "0x000000000000000000000000eeeeeeeeeeeeeeeeeeeeeeeeeeeeeeeeeeeeeeee",
                    "decodedMethod": {
                        "callParams": [
                            {
                                "name": "tokenAddress",
                                "type": "address",
                                "value": "0xeeeeeeeeeeeeeeeeeeeeeeeeeeeeeeeeeeeeeeee"
                            }
                        ],
                        "constructorArguments": "",
                        "name": "getCurrentLiquidity",
                        "returnParams": [
                            {
                                "name": "",
                                "type": "uint256",
                                "value": "165,356,497,878,568,763,317"
                            }
                        ],
                        "signature": "getCurrentLiquidity(address)"
                    },
                    "errorInfo": "",
                    "fromAddress": "0xebab24f13de55789ec1f3ffe99a285754e15f7b9",
                    "gasUsed": 2697,
                    "id": 8,
                    "methodDecoded": true,
                    "operation": "DELEGATECALL",
                    "output": "0x000000000000000000000000000000000000000000000008f6c84ab96ab97fb5",
                    "revert": false,
                    "revertMessage": "",
                    "selector": "0xca2ba943",
                    "status": true,
                    "value": "0"
                },
                "nodeType": 0
            },
            "9": {
                "invocation": {
                    "address": "0xebab24f13de55789ec1f3ffe99a285754e15f7b9",
                    "callData": "0x000000000000000000000000eeeeeeeeeeeeeeeeeeeeeeeeeeeeeeeeeeeeeeee",
                    "decodedMethod": {
                        "callParams": [
                            {
                                "name": "",
                                "type": "address",
                                "value": "0xeeeeeeeeeeeeeeeeeeeeeeeeeeeeeeeeeeeeeeee"
                            }
                        ],
                        "constructorArguments": "",
                        "name": "totalLPFees",
                        "returnParams": [
                            {
                                "name": "",
                                "type": "uint256",
                                "value": "1,796,962,790,809,151,076"
                            }
                        ],
                        "signature": "totalLPFees(address)"
                    },
                    "errorInfo": "",
                    "fromAddress": "0x2a5c2568b10a0e826bfa892cf21ba7218310180b",
                    "gasUsed": 3422,
                    "id": 9,
                    "methodDecoded": true,
                    "operation": "STATICCALL",
                    "output": "0x00000000000000000000000000000000000000000000000018f0182334c62664",
                    "revert": false,
                    "revertMessage": "",
                    "selector": "0xd1b4f192",
                    "status": true,
                    "value": "0"
                },
                "nodeType": 0
            }
        },
        "gasFlame": [
            {
                "children": [
                    {
                        "children": [
                            {
                                "children": [],
                                "depth": 0,
                                "name": "Initial Gas",
                                "value": 23320
                            },
                            {
                                "children": [
                                    {
                                        "children": [
                                            {
                                                "children": [],
                                                "depth": 2,
                                                "name": "getExecutorStatus",
                                                "value": 2648
                                            },
                                            {
                                                "children": [
                                                    {
                                                        "children": [],
                                                        "depth": 3,
                                                        "name": "getTransferConfig",
                                                        "value": 4950
                                                    }
                                                ],
                                                "depth": 2,
                                                "name": "getTransferConfig",
                                                "value": 12284
                                            },
                                            {
                                                "children": [
                                                    {
                                                        "children": [],
                                                        "depth": 3,
                                                        "name": "getTokensInfo",
                                                        "value": 9889
                                                    }
                                                ],
                                                "depth": 2,
                                                "name": "getTokensInfo",
                                                "value": 10744
                                            },
                                            {
                                                "children": [
                                                    {
                                                        "children": [],
                                                        "depth": 3,
                                                        "name": "getCurrentLiquidity",
                                                        "value": 2697
                                                    }
                                                ],
                                                "depth": 2,
                                                "name": "getCurrentLiquidity",
                                                "value": 10028
                                            },
                                            {
                                                "children": [
                                                    {
                                                        "children": [],
                                                        "depth": 3,
                                                        "name": "totalLPFees",
                                                        "value": 2591
                                                    }
                                                ],
                                                "depth": 2,
                                                "name": "totalLPFees",
                                                "value": 3422
                                            },
                                            {
                                                "children": [
                                                    {
                                                        "children": [],
                                                        "depth": 3,
                                                        "name": "getSuppliedLiquidityByToken",
                                                        "value": 2631
                                                    }
                                                ],
                                                "depth": 2,
                                                "name": "getSuppliedLiquidityByToken",
                                                "value": 3462
                                            },
                                            {
                                                "children": [
                                                    {
                                                        "children": [],
                                                        "depth": 3,
                                                        "name": "excessStateTransferFeePerc",
                                                        "value": 2597
                                                    }
                                                ],
                                                "depth": 2,
                                                "name": "excessStateTransferFeePerc",
                                                "value": 3428
                                            },
                                            {
                                                "children": [
                                                    {
                                                        "children": [
                                                            {
                                                                "children": [
                                                                    {
                                                                        "children": [],
                                                                        "depth": 5,
                                                                        "name": "getTokensInfo",
                                                                        "value": 1889
                                                                    }
                                                                ],
                                                                "depth": 4,
                                                                "name": "getTokensInfo",
                                                                "value": 2744
                                                            }
                                                        ],
                                                        "depth": 3,
                                                        "name": "addLPFee",
                                                        "value": 22872
                                                    }
                                                ],
                                                "depth": 2,
                                                "name": "addLPFee",
                                                "value": 23703
                                            },
                                            {
                                                "children": [
                                                    {
                                                        "children": [],
                                                        "depth": 3,
                                                        "name": "decreaseCurrentLiquidity",
                                                        "value": 5812
                                                    }
                                                ],
                                                "depth": 2,
                                                "name": "decreaseCurrentLiquidity",
                                                "value": 6643
                                            },
                                            {
                                                "children": [],
                                                "depth": 2,
                                                "name": "fallback",
                                                "value": 0
                                            }
                                        ],
                                        "depth": 1,
                                        "name": "sendFundsToUserV2",
                                        "value": 163417
                                    }
                                ],
                                "depth": 0,
                                "name": "Executed Gas",
                                "value": 170790
                            }
                        ],
                        "depth": -1,
                        "name": "Actual Gas Used",
                        "value": 191310
                    },
                    {
                        "children": [],
                        "depth": -1,
                        "name": "Refunded Gas",
                        "value": 2800
                    }
                ],
                "depth": -2,
                "name": "Total Gas",
                "value": 194110
            }
        ],
        "isConfirmed": true,
        "mainTrace": [
            {
                "children": [
                    {
                        "children": [
                            {
                                "children": [
                                    {
                                        "children": [],
                                        "depth": 2,
                                        "id": 2,
                                        "order": 2
                                    },
                                    {
                                        "children": [
                                            {
                                                "children": [],
                                                "depth": 3,
                                                "id": 4,
                                                "order": 4
                                            }
                                        ],
                                        "depth": 2,
                                        "id": 3,
                                        "order": 3
                                    },
                                    {
                                        "children": [
                                            {
                                                "children": [],
                                                "depth": 3,
                                                "id": 6,
                                                "order": 6
                                            }
                                        ],
                                        "depth": 2,
                                        "id": 5,
                                        "order": 5
                                    },
                                    {
                                        "children": [
                                            {
                                                "children": [],
                                                "depth": 3,
                                                "id": 8,
                                                "order": 8
                                            }
                                        ],
                                        "depth": 2,
                                        "id": 7,
                                        "order": 7
                                    },
                                    {
                                        "children": [
                                            {
                                                "children": [],
                                                "depth": 3,
                                                "id": 10,
                                                "order": 10
                                            }
                                        ],
                                        "depth": 2,
                                        "id": 9,
                                        "order": 9
                                    },
                                    {
                                        "children": [
                                            {
                                                "children": [],
                                                "depth": 3,
                                                "id": 12,
                                                "order": 12
                                            }
                                        ],
                                        "depth": 2,
                                        "id": 11,
                                        "order": 11
                                    },
                                    {
                                        "children": [
                                            {
                                                "children": [],
                                                "depth": 3,
                                                "id": 14,
                                                "order": 14
                                            }
                                        ],
                                        "depth": 2,
                                        "id": 13,
                                        "order": 13
                                    },
                                    {
                                        "children": [
                                            {
                                                "children": [
                                                    {
                                                        "children": [
                                                            {
                                                                "children": [],
                                                                "depth": 5,
                                                                "id": 18,
                                                                "order": 18
                                                            }
                                                        ],
                                                        "depth": 4,
                                                        "id": 17,
                                                        "order": 17
                                                    },
                                                    {
                                                        "children": [],
                                                        "depth": 4,
                                                        "id": 19,
                                                        "order": 19
                                                    }
                                                ],
                                                "depth": 3,
                                                "id": 16,
                                                "order": 16
                                            }
                                        ],
                                        "depth": 2,
                                        "id": 15,
                                        "order": 15
                                    },
                                    {
                                        "children": [],
                                        "depth": 2,
                                        "id": 20,
                                        "order": 20
                                    },
                                    {
                                        "children": [
                                            {
                                                "children": [
                                                    {
                                                        "children": [],
                                                        "depth": 4,
                                                        "id": 23,
                                                        "order": 23
                                                    }
                                                ],
                                                "depth": 3,
                                                "id": 22,
                                                "order": 22
                                            }
                                        ],
                                        "depth": 2,
                                        "id": 21,
                                        "order": 21
                                    },
                                    {
                                        "children": [],
                                        "depth": 2,
                                        "id": 24,
                                        "order": 24
                                    },
                                    {
                                        "children": [],
                                        "depth": 2,
                                        "id": 25,
                                        "order": 25
                                    }
                                ],
                                "depth": 1,
                                "id": 1,
                                "order": 1
                            }
                        ],
                        "depth": 0,
                        "id": 0,
                        "order": 0
                    }
                ],
                "depth": -1,
                "id": -1,
                "order": -1
            }
        ],
        "mainTraceNodeCount": 26,
        "parentIdMap": {
            "0": -1,
            "1": 0,
            "10": 9,
            "11": 1,
            "12": 11,
            "13": 1,
            "14": 13,
            "15": 1,
            "16": 15,
            "17": 16,
            "18": 17,
            "19": 16,
            "2": 1,
            "20": 1,
            "21": 1,
            "22": 21,
            "23": 22,
            "24": 1,
            "25": 1,
            "3": 1,
            "4": 3,
            "5": 1,
            "6": 5,
            "7": 1,
            "8": 7,
            "9": 1
        },
        "tidyTrace": [
            {
                "children": [
                    {
                        "children": [
                            {
                                "children": [
                                    {
                                        "children": [
                                            {
                                                "children": [
                                                    {
                                                        "children": [],
                                                        "depth": 4,
                                                        "id": 19,
                                                        "order": 19
                                                    }
                                                ],
                                                "depth": 3,
                                                "id": 16,
                                                "order": 16
                                            }
                                        ],
                                        "depth": 2,
                                        "id": 15,
                                        "order": 15
                                    },
                                    {
                                        "children": [],
                                        "depth": 2,
                                        "id": 20,
                                        "order": 20
                                    },
                                    {
                                        "children": [
                                            {
                                                "children": [
                                                    {
                                                        "children": [],
                                                        "depth": 4,
                                                        "id": 23,
                                                        "order": 23
                                                    }
                                                ],
                                                "depth": 3,
                                                "id": 22,
                                                "order": 22
                                            }
                                        ],
                                        "depth": 2,
                                        "id": 21,
                                        "order": 21
                                    },
                                    {
                                        "children": [],
                                        "depth": 2,
                                        "id": 24,
                                        "order": 24
                                    },
                                    {
                                        "children": [],
                                        "depth": 2,
                                        "id": 25,
                                        "order": 25
                                    }
                                ],
                                "depth": 1,
                                "id": 1,
                                "order": 1
                            }
                        ],
                        "depth": 0,
                        "id": 0,
                        "order": 0
                    }
                ],
                "depth": -1,
                "id": -1,
                "order": -1
            }
        ],
        "tidyTraceNodeCount": 11
    },
    "state_change": {
        "stateChanges": [
            {
                "address": "0x2a5c2568b10a0e826bfa892cf21ba7218310180b",
                "erc": "",
                "slots": [
                    {
                        "current": "0x0000000000000000000000000000000000000000000000000000000000000001",
                        "key": "0x8b146fb6c02693a6242344a69a06e32c6815eef2ee6915678e106c1dea7b44d3",
                        "prev": "0x0000000000000000000000000000000000000000000000000000000000000000"
                    },
                    {
                        "current": "0x00000000000000000000000000000000000000000000000003aa241d2e5d3d15",
                        "key": "0xfc69fe689a10849a4c810115708945edcdce02b4ce0b8911d1cf85d0b30251d5",
                        "prev": "0x000000000000000000000000000000000000000000000000038eecbe598a1b2a"
                    },
                    {
                        "current": "0x0000000000000000000000000000000000000000000000000058265706c260cd",
                        "key": "0xfef1363b7a5666f3523d570f40fbe75b6093abdd5403adc7a440b2cc82d63e2a",
                        "prev": "0x000000000000000000000000000000000000000000000000003ceef831ef3ee2"
                    }
                ],
                "storageVariables": [
                    {
                        "name": "gasFeeAccumulatedByToken",
                        "type": "mapping(address => uint256)",
                        "value": {
                            "pairs": [
                                {
                                    "key": "0xeeeeeeeeeeeeeeeeeeeeeeeeeeeeeeeeeeeeeeee",
                                    "value": {
                                        "current": "264063235905109269",
                                        "prev": "256402531096861482",
                                        "typeTag": 1
                                    }
                                }
                            ],
                            "typeTag": 4
                        }
                    },
                    {
                        "name": "gasFeeAccumulated",
                        "type": "mapping(address => mapping(address => uint256))",
                        "value": {
                            "pairs": [
                                {
                                    "key": "0xeeeeeeeeeeeeeeeeeeeeeeeeeeeeeeeeeeeeeeee",
                                    "value": {
                                        "pairs": [
                                            {
                                                "key": "0x1439eda7f9a911b9120e9a0dafb60eae317f7685",
                                                "value": {
                                                    "current": "24811953167950029",
                                                    "prev": "17151248359702242",
                                                    "typeTag": 1
                                                }
                                            }
                                        ],
                                        "typeTag": 4
                                    }
                                }
                            ],
                            "typeTag": 4
                        }
                    },
                    {
                        "name": "processedHash",
                        "type": "mapping(bytes32 => bool)",
                        "value": {
                            "pairs": [
                                {
                                    "key": "0xa194c8a4bbb3ef610f8935c1bd35ad8d031a67bd09359b4f0ca34f22502aa2f5",
                                    "value": {
                                        "current": "true",
                                        "prev": "false",
                                        "typeTag": 1
                                    }
                                }
                            ],
                            "typeTag": 4
                        }
                    }
                ]
            },
            {
                "address": "0xebab24f13de55789ec1f3ffe99a285754e15f7b9",
                "erc": "",
                "slots": [
                    {
                        "current": "0x000000000000000000000000000000000000000000000003edf62fe76d76387b",
                        "key": "0x2b059b74fd1a791c364ba3774b7b32962c8588e0963decac3c595ae8acf46c9b",
                        "prev": "0x000000000000000000000000000000000000000000000003edf56c9b19232664"
                    },
                    {
                        "current": "0x00000000000000000000000000000000000000000000000018f0db6f8919387b",
                        "key": "0x56826d040b5c8f3e11711a6f0a85f75994bf6271dc9e6c62c9d3cf2fa418e860",
                        "prev": "0x00000000000000000000000000000000000000000000000018f0182334c62664"
                    },
                    {
                        "current": "0x000000000000000000000000000000000000000000000008f044f97a5f37f9af",
                        "key": "0x8c843e863d6980427013005c2fd6c559f82753ab35a5ed8f9caaa5df7d58739d",
                        "prev": "0x000000000000000000000000000000000000000000000008f6c84ab96ab97fb5"
                    }
                ],
                "storageVariables": [
                    {
                        "name": "currentLiquidity",
                        "type": "mapping(address => uint256)",
                        "value": {
                            "pairs": [
                                {
                                    "key": "0xeeeeeeeeeeeeeeeeeeeeeeeeeeeeeeeeeeeeeeee",
                                    "value": {
                                        "current": "164887189761174272431",
                                        "prev": "165356497878568763317",
                                        "typeTag": 1
                                    }
                                }
                            ],
                            "typeTag": 4
                        }
                    },
                    {
                        "name": "totalReserve",
                        "type": "mapping(address => uint256)",
                        "value": {
                            "pairs": [
                                {
                                    "key": "0xeeeeeeeeeeeeeeeeeeeeeeeeeeeeeeeeeeeeeeee",
                                    "value": {
                                        "current": "72487177523408812155",
                                        "prev": "72486962790809151076",
                                        "typeTag": 1
                                    }
                                }
                            ],
                            "typeTag": 4
                        }
                    },
                    {
                        "name": "totalLPFees",
                        "type": "mapping(address => uint256)",
                        "value": {
                            "pairs": [
                                {
                                    "key": "0xeeeeeeeeeeeeeeeeeeeeeeeeeeeeeeeeeeeeeeee",
                                    "value": {
                                        "current": "1797177523408812155",
                                        "prev": "1796962790809151076",
                                        "typeTag": 1
                                    }
                                }
                            ],
                            "typeTag": 4
                        }
                    }
                ]
            }
        ]
    }
}