{
    "balance_change": {
        "balanceChanges": [
            {
                "account": "0x3229149012a035ef51d724e0343eb31ce3e4bb7d",
                "assets": [
                    {
                        "address": "0x5a98fcbea516cf06857215779fd812ca3bef1b32",
                        "amount": "29,510.15",
                        "iconUrl": "https://assets.blocksec.com/icon/3878691d1a2d54915a451767a8b7abce85c16fd7fc528d5b81becb8ae316240e.png",
                        "isERC1155": false,
                        "isERC721": false,
                        "sign": true,
                        "value": "64922.330000000005242"
                    }
                ]
            },
            {
                "account": "0x56178a0d5f301baf6cf3e1cd53d9863437345bf9",
                "assets": [
                    {
                        "address": "0x5a98fcbea516cf06857215779fd812ca3bef1b32",
                        "amount": "29,510.15",
                        "iconUrl": "https://assets.blocksec.com/icon/3878691d1a2d54915a451767a8b7abce85c16fd7fc528d5b81becb8ae316240e.png",
                        "isERC1155": false,
                        "isERC721": false,
                        "sign": false,
                        "value": "64922.330000000005242"
                    }
                ]
            }
        ]
    },
    "profile": {
        "basic_info": {
            "baseFee": "15.874130154",
            "blockNumber": 16465073,
            "callData": "0x1cff79cd000000000000000000000000813ffae25b9b8c909ecc9e2f9747006e0b43d16d0000000000000000000000000000000000000000000000000000000000000040000000000000000000000000000000000000000000000000000000000000008452de3cbd0000000000000000000000005a98fcbea516cf06857215779fd812ca3bef1b3200000000000000000000000056178a0d5f301baf6cf3e1cd53d9863437345bf90000000000000000000000003229149012a035ef51d724e0343eb31ce3e4bb7d00000000000000000000000000000000000000000000063fbf9991863da7000000000000000000000000000000000000000000000000000000000000",
            "debugEnable": true,
            "errorInfo": "",
            "eventCount": 2,
            "feeRecipient": "0x690b9a9e9aa1c9db991c7721a92d351db4fac990",
            "formatValue": "0",
            "gasLimit": 205558,
            "gasPrice": "16.874130154",
            "gasUsed": 150860,
            "intTxnCount": 8,
            "internalRevert": false,
            "internalRevertMessage": "",
            "isContractCreation": false,
            "isFlashloan": false,
            "maxFee": "16.874130154",
            "nonce": 30097,
            "overwritedBlockNumber": -1,
            "priorityFee": "1",
            "receiver": "0xfa103c21ea2df71dfb92b0652f8b1d795e51cdef",
            "revertMessage": "",
            "sender": "0xb1af124c860f819bf8de7d4c459e5b31fecdb95e",
            "simulationEnable": true,
            "sourceTxnHash": "0xf3a59d3db38c02b32ed0defdae3b73cc52c133d86dc4068cd0c5a72c7215b457",
            "status": true,
            "timestamp": "2023-01-22T21:37:23Z",
            "transactionFee": "0.00254563127503244",
            "txnHash": "0xf3a59d3db38c02b32ed0defdae3b73cc52c133d86dc4068cd0c5a72c7215b457",
            "txnIndex": 5,
            "type": 2,
            "value": "0"
        },
        "fund_flow": [
            {
                "amount": "29,510.15",
                "from": "0x56178a0d5f301baf6cf3e1cd53d9863437345bf9",
                "id": 1,
                "isERC1155": false,
                "isERC721": false,
                "isReverted": false,
                "order": 1,
                "to": "0x3229149012a035ef51d724e0343eb31ce3e4bb7d",
                "token": "0x5a98fcbea516cf06857215779fd812ca3bef1b32"
            }
        ],
        "token_infos": [
            {
                "address": "0x5a98fcbea516cf06857215779fd812ca3bef1b32",
                "decimals": 18
            },
            {
                "address": "0xc02aaa39b223fe8d0a0e5c4f27ead9083c756cc2",
                "decimals": 18
            },
            {
                "address": "0xeeeeeeeeeeeeeeeeeeeeeeeeeeeeeeeeeeeeeeee",
                "decimals": 18
            }
        ]
    },
    "address_label": {
        "labels": [
            {
                "address": "0x0000000000000000000000000000000000000003",
                "label": "Precompiled"
            },
            {
                "address": "0xeeeeeeeeeeeeeeeeeeeeeeeeeeeeeeeeeeeeeeee",
                "label": "Ether"
            },
            {
                "address": "0x2b33cf282f867a7ff693a66e11b0fcc5552e4425",
                "label": "Lido: DAO Impl 1.0.0"
            },
            {
                "address": "0x3229149012a035ef51d724e0343eb31ce3e4bb7d",
                "label": "BINANCE"
            },
            {
                "address": "0x5a98fcbea516cf06857215779fd812ca3bef1b32",
                "label": "Lido: LDO Token"
            },
            {
                "address": "0x0000000000000000000000000000000000000002",
                "label": "Precompiled"
            },
            {
                "address": "0xb8ffc3cd6e7cf5a098a1c92f48009765b24088dc",
                "label": "Lido: DAO"
            },
            {
                "address": "0xf73a1260d222f447210581ddf212d915c09a3249",
                "label": "Lido: Aragon Token Manager"
            },
            {
                "address": "0xde3a93028f2283cc28756b3674bd657eafb992f4",
                "label": "Lido: Aragon Token Manager Impl"
            },
            {
                "address": "0x0000000000000000000000000000000000000001",
                "label": "Precompiled"
            },
            {
                "address": "0x0000000000000000000000000000000000000004",
                "label": "Precompiled"
            }
        ]
    },
    "trace": {
        "accountLabels": null,
        "dataMap": {
            "-1": {
                "invocation": {
                    "address": "0xb1af124c860f819bf8de7d4c459e5b31fecdb95e",
                    "callData": "",
                    "decodedMethod": null,
                    "errorInfo": "",
                    "fromAddress": "",
                    "gasUsed": 0,
                    "id": -1,
                    "methodDecoded": false,
                    "operation": "",
                    "output": "",
                    "revert": false,
                    "revertMessage": "",
                    "selector": "",
                    "status": false,
                    "value": ""
                },
                "nodeType": 0
            },
            "0": {
                "invocation": {
                    "address": "0xfa103c21ea2df71dfb92b0652f8b1d795e51cdef",
                    "callData": "0x000000000000000000000000813ffae25b9b8c909ecc9e2f9747006e0b43d16d0000000000000000000000000000000000000000000000000000000000000040000000000000000000000000000000000000000000000000000000000000008452de3cbd0000000000000000000000005a98fcbea516cf06857215779fd812ca3bef1b3200000000000000000000000056178a0d5f301baf6cf3e1cd53d9863437345bf90000000000000000000000003229149012a035ef51d724e0343eb31ce3e4bb7d00000000000000000000000000000000000000000000063fbf9991863da7000000000000000000000000000000000000000000000000000000000000",
                    "decodedMethod": {
                        "callParams": [
                            {
                                "name": "_target",
                                "type": "address",
                                "value": "0x813ffae25b9b8c909ecc9e2f9747006e0b43d16d"
                            },
                            {
                                "name": "_data",
                                "type": "bytes",
                                "value": "0x52de3cbd0000000000000000000000005a98fcbea516cf06857215779fd812ca3bef1b3200000000000000000000000056178a0d5f301baf6cf3e1cd53d9863437345bf90000000000000000000000003229149012a035ef51d724e0343eb31ce3e4bb7d00000000000000000000000000000000000000000000063fbf9991863da70000"
                            }
                        ],
                        "constructorArguments": "",
                        "name": "execute",
                        "returnParams": [],
                        "signature": "execute(address,bytes)"
                    },
                    "errorInfo": "",
                    "fromAddress": "0xb1af124c860f819bf8de7d4c459e5b31fecdb95e",
                    "gasUsed": 150860,
                    "id": 0,
                    "methodDecoded": true,
                    "operation": "CALL",
                    "output": "",
                    "revert": false,
                    "revertMessage": "",
                    "selector": "0x1cff79cd",
                    "status": true,
                    "value": "0"
                },
                "nodeType": 0
            },
            "1": {
                "invocation": {
                    "address": "0x813ffae25b9b8c909ecc9e2f9747006e0b43d16d",
                    "callData": "0x0000000000000000000000005a98fcbea516cf06857215779fd812ca3bef1b3200000000000000000000000056178a0d5f301baf6cf3e1cd53d9863437345bf90000000000000000000000003229149012a035ef51d724e0343eb31ce3e4bb7d00000000000000000000000000000000000000000000063fbf9991863da70000",
                    "decodedMethod": null,
                    "errorInfo": "",
                    "fromAddress": "0xfa103c21ea2df71dfb92b0652f8b1d795e51cdef",
                    "gasUsed": 122179,
                    "id": 1,
                    "methodDecoded": false,
                    "operation": "DELEGATECALL",
                    "output": "",
                    "revert": false,
                    "revertMessage": "",
                    "selector": "0x52de3cbd",
                    "status": true,
                    "value": "0"
                },
                "nodeType": 0
            },
            "10": {
                "event": {
                    "contract": "0x5a98fcbea516cf06857215779fd812ca3bef1b32",
                    "decodedLog": {
                        "name": "Transfer",
                        "params": [
                            {
                                "name": "_from",
                                "type": "address",
                                "value": "0x56178a0d5f301baf6cf3e1cd53d9863437345bf9"
                            },
                            {
                                "name": "_to",
                                "type": "address",
                                "value": "0x3229149012a035ef51d724e0343eb31ce3e4bb7d"
                            },
                            {
                                "decimalAvailable": true,
                                "name": "_amount",
                                "type": "uint256",
                                "value": "29,510,150,000,000,000,000,000"
                            }
                        ],
                        "signature": "Transfer(address,address,uint256)"
                    },
                    "id": 10,
                    "logData": "0x00000000000000000000000000000000000000000000063fbf9991863da70000",
                    "logDecoded": true,
                    "operation": "EVENT",
                    "revert": false,
                    "status": true,
                    "topics": [
                        "0xddf252ad1be2c89b69c2b068fc378daa952ba7f163c4a11628f55a4df523b3ef",
                        "0x00000000000000000000000056178a0d5f301baf6cf3e1cd53d9863437345bf9",
                        "0x0000000000000000000000003229149012a035ef51d724e0343eb31ce3e4bb7d"
                    ]
                },
                "nodeType": 1
            },
            "2": {
                "event": {
                    "contract": "0xfa103c21ea2df71dfb92b0652f8b1d795e51cdef",
                    "decodedLog": null,
                    "id": 2,
                    "logData": "0x0000000000000000000000005a98fcbea516cf06857215779fd812ca3bef1b3200000000000000000000000056178a0d5f301baf6cf3e1cd53d9863437345bf90000000000000000000000003229149012a035ef51d724e0343eb31ce3e4bb7d00000000000000000000000000000000000000000000063fbf9991863da70000",
                    "logDecoded": false,
                    "operation": "EVENT",
                    "revert": false,
                    "status": true,
                    "topics": [
                        "0xef4b96e5b208365900f38219a7dec7af4565f8ff4ce6526970a9d024397f978d"
                    ]
                },
                "nodeType": 1
            },
            "3": {
                "invocation": {
                    "address": "0x5a98fcbea516cf06857215779fd812ca3bef1b32",
                    "callData": "0x00000000000000000000000056178a0d5f301baf6cf3e1cd53d9863437345bf90000000000000000000000003229149012a035ef51d724e0343eb31ce3e4bb7d00000000000000000000000000000000000000000000063fbf9991863da70000",
                    "decodedMethod": {
                        "callParams": [
                            {
                                "name": "_from",
                                "type": "address",
                                "value": "0x56178a0d5f301baf6cf3e1cd53d9863437345bf9"
                            },
                            {
                                "name": "_to",
                                "type": "address",
                                "value": "0x3229149012a035ef51d724e0343eb31ce3e4bb7d"
                            },
                            {
                                "decimalAvailable": true,
                                "name": "_amount",
                                "type": "uint256",
                                "value": "29,510,150,000,000,000,000,000"
                            }
                        ],
                        "constructorArguments": "",
                        "name": "transferFrom",
                        "returnParams": [
                            {
                                "name": "success",
                                "type": "bool",
                                "value": true
                            }
                        ],
                        "signature": "transferFrom(address,address,uint256)"
                    },
                    "errorInfo": "",
                    "fromAddress": "0xfa103c21ea2df71dfb92b0652f8b1d795e51cdef",
                    "gasUsed": 116406,
                    "id": 3,
                    "methodDecoded": true,
                    "operation": "CALL",
                    "output": "0x0000000000000000000000000000000000000000000000000000000000000001",
                    "revert": false,
                    "revertMessage": "",
                    "selector": "0x23b872dd",
                    "status": true,
                    "value": "0"
                },
                "nodeType": 0
            },
            "4": {
                "invocation": {
                    "address": "0xf73a1260d222f447210581ddf212d915c09a3249",
                    "callData": "0x00000000000000000000000056178a0d5f301baf6cf3e1cd53d9863437345bf90000000000000000000000003229149012a035ef51d724e0343eb31ce3e4bb7d00000000000000000000000000000000000000000000063fbf9991863da70000",
                    "decodedMethod": {
                        "callParams": [
                            {
                                "name": "_from",
                                "type": "address",
                                "value": "0x56178a0d5f301baf6cf3e1cd53d9863437345bf9"
                            },
                            {
                                "name": "_to",
                                "type": "address",
                                "value": "0x3229149012a035ef51d724e0343eb31ce3e4bb7d"
                            },
                            {
                                "name": "_amount",
                                "type": "uint256",
                                "value": "29,510,150,000,000,000,000,000"
                            }
                        ],
                        "constructorArguments": "",
                        "name": "onTransfer",
                        "returnParams": [
                            {
                                "name": "",
                                "type": "bool",
                                "value": true
                            }
                        ],
                        "signature": "onTransfer(address,address,uint256)"
                    },
                    "errorInfo": "",
                    "fromAddress": "0x5a98fcbea516cf06857215779fd812ca3bef1b32",
                    "gasUsed": 37314,
                    "id": 4,
                    "methodDecoded": true,
                    "operation": "CALL",
                    "output": "0x0000000000000000000000000000000000000000000000000000000000000001",
                    "revert": false,
                    "revertMessage": "",
                    "selector": "0x4a393149",
                    "status": true,
                    "value": "0"
                },
                "nodeType": 0
            },
            "5": {
                "invocation": {
                    "address": "0xb8ffc3cd6e7cf5a098a1c92f48009765b24088dc",
                    "callData": "0xf1f3eb40f5bc1ad1344716ced8b8a0431d840b5783aea1fd01786bc26f35ac0fcd567bdf93dd0f6acc3bc7f2155f83244d56a65abbfbefb763e015420102c67b",
                    "decodedMethod": {
                        "callParams": [
                            {
                                "name": "_namespace",
                                "type": "bytes32",
                                "value": "0xf1f3eb40f5bc1ad1344716ced8b8a0431d840b5783aea1fd01786bc26f35ac0f"
                            },
                            {
                                "name": "_appId",
                                "type": "bytes32",
                                "value": "0xcd567bdf93dd0f6acc3bc7f2155f83244d56a65abbfbefb763e015420102c67b"
                            }
                        ],
                        "constructorArguments": "",
                        "name": "getApp",
                        "returnParams": [
                            {
                                "name": "",
                                "type": "address",
                                "value": "0xde3a93028f2283cc28756b3674bd657eafb992f4"
                            }
                        ],
                        "signature": "getApp(bytes32,bytes32)"
                    },
                    "errorInfo": "",
                    "fromAddress": "0xf73a1260d222f447210581ddf212d915c09a3249",
                    "gasUsed": 8263,
                    "id": 5,
                    "methodDecoded": true,
                    "operation": "CALL",
                    "output": "0x000000000000000000000000de3a93028f2283cc28756b3674bd657eafb992f4",
                    "revert": false,
                    "revertMessage": "",
                    "selector": "0xbe00bbd8",
                    "status": true,
                    "value": "0"
                },
                "nodeType": 0
            },
            "6": {
                "invocation": {
                    "address": "0x2b33cf282f867a7ff693a66e11b0fcc5552e4425",
                    "callData": "0xf1f3eb40f5bc1ad1344716ced8b8a0431d840b5783aea1fd01786bc26f35ac0fcd567bdf93dd0f6acc3bc7f2155f83244d56a65abbfbefb763e015420102c67b",
                    "decodedMethod": {
                        "callParams": [
                            {
                                "name": "_namespace",
                                "type": "bytes32",
                                "value": "0xf1f3eb40f5bc1ad1344716ced8b8a0431d840b5783aea1fd01786bc26f35ac0f"
                            },
                            {
                                "name": "_appId",
                                "type": "bytes32",
                                "value": "0xcd567bdf93dd0f6acc3bc7f2155f83244d56a65abbfbefb763e015420102c67b"
                            }
                        ],
                        "constructorArguments": "",
                        "name": "getApp",
                        "returnParams": [
                            {
                                "name": "",
                                "type": "address",
                                "value": "0xde3a93028f2283cc28756b3674bd657eafb992f4"
                            }
                        ],
                        "signature": "getApp(bytes32,bytes32)"
                    },
                    "errorInfo": "",
                    "fromAddress": "0xb8ffc3cd6e7cf5a098a1c92f48009765b24088dc",
                    "gasUsed": 2820,
                    "id": 6,
                    "methodDecoded": true,
                    "operation": "DELEGATECALL",
                    "output": "0x000000000000000000000000de3a93028f2283cc28756b3674bd657eafb992f4",
                    "revert": false,
                    "revertMessage": "",
                    "selector": "0xbe00bbd8",
                    "status": true,
                    "value": "0"
                },
                "nodeType": 0
            },
            "7": {
                "invocation": {
                    "address": "0xde3a93028f2283cc28756b3674bd657eafb992f4",
                    "callData": "0x00000000000000000000000056178a0d5f301baf6cf3e1cd53d9863437345bf90000000000000000000000003229149012a035ef51d724e0343eb31ce3e4bb7d00000000000000000000000000000000000000000000063fbf9991863da70000",
                    "decodedMethod": {
                        "callParams": [
                            {
                                "name": "_from",
                                "type": "address",
                                "value": "0x56178a0d5f301baf6cf3e1cd53d9863437345bf9"
                            },
                            {
                                "name": "_to",
                                "type": "address",
                                "value": "0x3229149012a035ef51d724e0343eb31ce3e4bb7d"
                            },
                            {
                                "name": "_amount",
                                "type": "uint256",
                                "value": "29,510,150,000,000,000,000,000"
                            }
                        ],
                        "constructorArguments": "",
                        "name": "onTransfer",
                        "returnParams": [
                            {
                                "name": "",
                                "type": "bool",
                                "value": true
                            }
                        ],
                        "signature": "onTransfer(address,address,uint256)"
                    },
                    "errorInfo": "",
                    "fromAddress": "0xf73a1260d222f447210581ddf212d915c09a3249",
                    "gasUsed": 18422,
                    "id": 7,
                    "methodDecoded": true,
                    "operation": "DELEGATECALL",
                    "output": "0x0000000000000000000000000000000000000000000000000000000000000001",
                    "revert": false,
                    "revertMessage": "",
                    "selector": "0x4a393149",
                    "status": true,
                    "value": "0"
                },
                "nodeType": 0
            },
            "8": {
                "invocation": {
                    "address": "0x5a98fcbea516cf06857215779fd812ca3bef1b32",
                    "callData": "0x0000000000000000000000003229149012a035ef51d724e0343eb31ce3e4bb7d",
                    "decodedMethod": {
                        "callParams": [
                            {
                                "name": "_owner",
                                "type": "address",
                                "value": "0x3229149012a035ef51d724e0343eb31ce3e4bb7d"
                            }
                        ],
                        "constructorArguments": "",
                        "name": "balanceOf",
                        "returnParams": [
                            {
                                "decimalAvailable": true,
                                "name": "balance",
                                "type": "uint256",
                                "value": "66,053,260,000,000,000,000,000"
                            }
                        ],
                        "signature": "balanceOf(address)"
                    },
                    "errorInfo": "",
                    "fromAddress": "0xf73a1260d222f447210581ddf212d915c09a3249",
                    "gasUsed": 8016,
                    "id": 8,
                    "methodDecoded": true,
                    "operation": "CALL",
                    "output": "0x000000000000000000000000000000000000000000000dfcc12054d4668e0000",
                    "revert": false,
                    "revertMessage": "",
                    "selector": "0x70a08231",
                    "status": true,
                    "value": "0"
                },
                "nodeType": 0
            },
            "9": {
                "invocation": {
                    "address": "0x5a98fcbea516cf06857215779fd812ca3bef1b32",
                    "callData": "0x00000000000000000000000056178a0d5f301baf6cf3e1cd53d9863437345bf9",
                    "decodedMethod": {
                        "callParams": [
                            {
                                "name": "_owner",
                                "type": "address",
                                "value": "0x56178a0d5f301baf6cf3e1cd53d9863437345bf9"
                            }
                        ],
                        "constructorArguments": "",
                        "name": "balanceOf",
                        "returnParams": [
                            {
                                "decimalAvailable": true,
                                "name": "balance",
                                "type": "uint256",
                                "value": "79,510,136,813,456,104,801,662"
                            }
                        ],
                        "signature": "balanceOf(address)"
                    },
                    "errorInfo": "",
                    "fromAddress": "0xf73a1260d222f447210581ddf212d915c09a3249",
                    "gasUsed": 2016,
                    "id": 9,
                    "methodDecoded": true,
                    "operation": "CALL",
                    "output": "0x0000000000000000000000000000000000000000000010d640cea9143836c57e",
                    "revert": false,
                    "revertMessage": "",
                    "selector": "0x70a08231",
                    "status": true,
                    "value": "0"
                },
                "nodeType": 0
            }
        },
        "gasFlame": [
            {
                "children": [
                    {
                        "children": [
                            {
                                "children": [],
                                "depth": 0,
                                "name": "Initial Gas",
                                "value": 23204
                            },
                            {
                                "children": [
                                    {
                                        "children": [
                                            {
                                                "children": [
                                                    {
                                                        "children": [
                                                            {
                                                                "children": [
                                                                    {
                                                                        "children": [],
                                                                        "depth": 5,
                                                                        "name": "getApp",
                                                                        "value": 2820
                                                                    }
                                                                ],
                                                                "depth": 4,
                                                                "name": "getApp",
                                                                "value": 8263
                                                            },
                                                            {
                                                                "children": [
                                                                    {
                                                                        "children": [],
                                                                        "depth": 5,
                                                                        "name": "balanceOf",
                                                                        "value": 8016
                                                                    },
                                                                    {
                                                                        "children": [],
                                                                        "depth": 5,
                                                                        "name": "balanceOf",
                                                                        "value": 2016
                                                                    }
                                                                ],
                                                                "depth": 4,
                                                                "name": "onTransfer",
                                                                "value": 18422
                                                            }
                                                        ],
                                                        "depth": 3,
                                                        "name": "onTransfer",
                                                        "value": 37314
                                                    }
                                                ],
                                                "depth": 2,
                                                "name": "transferFrom",
                                                "value": 116406
                                            }
                                        ],
                                        "depth": 1,
                                        "name": "0x52de3cbd",
                                        "value": 122179
                                    }
                                ],
                                "depth": 0,
                                "name": "Executed Gas",
                                "value": 127656
                            }
                        ],
                        "depth": -1,
                        "name": "Actual Gas Used",
                        "value": 150860
                    },
                    {
                        "children": [],
                        "depth": -1,
                        "name": "Refunded Gas",
                        "value": 0
                    }
                ],
                "depth": -2,
                "name": "Total Gas",
                "value": 150860
            }
        ],
        "isConfirmed": true,
        "mainTrace": [
            {
                "children": [
                    {
                        "children": [
                            {
                                "children": [
                                    {
                                        "children": [],
                                        "depth": 2,
                                        "id": 2,
                                        "order": 2
                                    },
                                    {
                                        "children": [
                                            {
                                                "children": [
                                                    {
                                                        "children": [
                                                            {
                                                                "children": [],
                                                                "depth": 5,
                                                                "id": 6,
                                                                "order": 6
                                                            }
                                                        ],
                                                        "depth": 4,
                                                        "id": 5,
                                                        "order": 5
                                                    },
                                                    {
                                                        "children": [
                                                            {
                                                                "children": [],
                                                                "depth": 5,
                                                                "id": 8,
                                                                "order": 8
                                                            },
                                                            {
                                                                "children": [],
                                                                "depth": 5,
                                                                "id": 9,
                                                                "order": 9
                                                            }
                                                        ],
                                                        "depth": 4,
                                                        "id": 7,
                                                        "order": 7
                                                    }
                                                ],
                                                "depth": 3,
                                                "id": 4,
                                                "order": 4
                                            },
                                            {
                                                "children": [],
                                                "depth": 3,
                                                "id": 10,
                                                "order": 10
                                            }
                                        ],
                                        "depth": 2,
                                        "id": 3,
                                        "order": 3
                                    }
                                ],
                                "depth": 1,
                                "id": 1,
                                "order": 1
                            }
                        ],
                        "depth": 0,
                        "id": 0,
                        "order": 0
                    }
                ],
                "depth": -1,
                "id": -1,
                "order": -1
            }
        ],
        "mainTraceNodeCount": 11,
        "parentIdMap": {
            "0": -1,
            "1": 0,
            "10": 3,
            "2": 1,
            "3": 1,
            "4": 3,
            "5": 4,
            "6": 5,
            "7": 4,
            "8": 7,
            "9": 7
        },
        "tidyTrace": [
            {
                "children": [
                    {
                        "children": [
                            {
                                "children": [
                                    {
                                        "children": [],
                                        "depth": 2,
                                        "id": 2,
                                        "order": 2
                                    },
                                    {
                                        "children": [
                                            {
                                                "children": [
                                                    {
                                                        "children": [
                                                            {
                                                                "children": [],
                                                                "depth": 5,
                                                                "id": 6,
                                                                "order": 6
                                                            }
                                                        ],
                                                        "depth": 4,
                                                        "id": 5,
                                                        "order": 5
                                                    },
                                                    {
                                                        "children": [
                                                            {
                                                                "children": [],
                                                                "depth": 5,
                                                                "id": 8,
                                                                "order": 8
                                                            },
                                                            {
                                                                "children": [],
                                                                "depth": 5,
                                                                "id": 9,
                                                                "order": 9
                                                            }
                                                        ],
                                                        "depth": 4,
                                                        "id": 7,
                                                        "order": 7
                                                    }
                                                ],
                                                "depth": 3,
                                                "id": 4,
                                                "order": 4
                                            },
                                            {
                                                "children": [],
                                                "depth": 3,
                                                "id": 10,
                                                "order": 10
                                            }
                                        ],
                                        "depth": 2,
                                        "id": 3,
                                        "order": 3
                                    }
                                ],
                                "depth": 1,
                                "id": 1,
                                "order": 1
                            }
                        ],
                        "depth": 0,
                        "id": 0,
                        "order": 0
                    }
                ],
                "depth": -1,
                "id": -1,
                "order": -1
            }
        ],
        "tidyTraceNodeCount": 11
    },
    "state_change": {
        "stateChanges": [
            {
                "address": "0x5a98fcbea516cf06857215779fd812ca3bef1b32",
                "erc": "ERC-20",
                "slots": [
                    {
                        "current": "0x0000000000000a968135178dfa8fc57e00000000000000000000000000fb3cb1",
                        "key": "0x17113ccbdc48b23be4793ab48ffe5a0dbb0772a92351bc7869c6a1f03555f837",
                        "prev": "0x0000000000000000000000000000000000000000000000000000000000000000"
                    },
                    {
                        "current": "0x0000000000000000000000000000000000000000000000000000000000000cae",
                        "key": "0xe9fa9d525823f359099fce8d46be4d9e7827bffe17c39746ff344c9a47aebfae",
                        "prev": "0x0000000000000000000000000000000000000000000000000000000000000cad"
                    },
                    {
                        "current": "0x000000000000143c80b9e65aa435000000000000000000000000000000fb3cb1",
                        "key": "0xe53dc520c596e7d7fb0bb8a7385ff39e392e55691ff71801c95acebcf743a2d7",
                        "prev": "0x0000000000000000000000000000000000000000000000000000000000000000"
                    },
                    {
                        "current": "0xffffffffffffffffffffffffffffffffffffffffffb9141b8f17a4ff4f4affff",
                        "key": "0x0223bd1fd2224156f8be2d3ff9136dd6466e240a0d2ebdec88abd373e5a433db",
                        "prev": "0xffffffffffffffffffffffffffffffffffffffffffb91a5b4eb136858cf1ffff"
                    },
                    {
                        "current": "0x0000000000000000000000000000000000000000000000000000000000008b6d",
                        "key": "0x0b3a2a646a6a5c2e222d82217b1825f02a45a0bb2b6345ce398da0e6851c5b12",
                        "prev": "0x0000000000000000000000000000000000000000000000000000000000008b6c"
                    }
                ],
                "storageVariables": [
                    {
                        "name": "balances",
                        "type": "mapping(address => struct MiniMeToken.Checkpoint[])",
                        "value": {
                            "pairs": [
                                {
                                    "key": "0x3229149012a035ef51d724e0343eb31ce3e4bb7d",
                                    "value": {
                                        "elemType": "struct MiniMeToken.Checkpoint",
                                        "elems": [
                                            {
                                                "index": 3245,
                                                "value": {
                                                    "fields": [
                                                        {
                                                            "name": "fromBlock",
                                                            "type": "uint128",
                                                            "value": {
                                                                "current": "16465073",
                                                                "prev": "0",
                                                                "typeTag": 1
                                                            }
                                                        },
                                                        {
                                                            "name": "value",
                                                            "type": "uint128",
                                                            "value": {
                                                                "current": "95563410000000000000000",
                                                                "prev": "0",
                                                                "typeTag": 1
                                                            }
                                                        }
                                                    ],
                                                    "typeTag": 3
                                                }
                                            }
                                        ],
                                        "typeTag": 2
                                    }
                                },
                                {
                                    "key": "0x56178a0d5f301baf6cf3e1cd53d9863437345bf9",
                                    "value": {
                                        "elemType": "struct MiniMeToken.Checkpoint",
                                        "elems": [
                                            {
                                                "index": 35692,
                                                "value": {
                                                    "fields": [
                                                        {
                                                            "name": "fromBlock",
                                                            "type": "uint128",
                                                            "value": {
                                                                "current": "16465073",
                                                                "prev": "0",
                                                                "typeTag": 1
                                                            }
                                                        },
                                                        {
                                                            "name": "value",
                                                            "type": "uint128",
                                                            "value": {
                                                                "current": "49999986813456104801662",
                                                                "prev": "0",
                                                                "typeTag": 1
                                                            }
                                                        }
                                                    ],
                                                    "typeTag": 3
                                                }
                                            }
                                        ],
                                        "typeTag": 2
                                    }
                                }
                            ],
                            "typeTag": 4
                        }
                    },
                    {
                        "name": "allowed",
                        "type": "mapping(address => mapping(address => uint256))",
                        "value": {
                            "pairs": [
                                {
                                    "key": "0x56178a0d5f301baf6cf3e1cd53d9863437345bf9",
                                    "value": {
                                        "pairs": [
                                            {
                                                "key": "0xfa103c21ea2df71dfb92b0652f8b1d795e51cdef",
                                                "value": {
                                                    "current": "115792089237316195423570985008687907853269984665640478300680094007913129639935",
                                                    "prev": "115792089237316195423570985008687907853269984665640478330190244007913129639935",
                                                    "typeTag": 1
                                                }
                                            }
                                        ],
                                        "typeTag": 4
                                    }
                                }
                            ],
                            "typeTag": 4
                        }
                    }
                ]
            }
        ]
    }
}