{
    "balance_change": {
        "balanceChanges": [
            {
                "account": "0x38a4c0e39f068e93bb75b8e6f2be9e3a100d207a",
                "assets": [
                    {
                        "address": "0x9e15f8ad98e95033c1d4798458cec34a4b5972b0",
                        "amount": "67.101564",
                        "iconUrl": "",
                        "isERC1155": false,
                        "isERC721": false,
                        "sign": false,
                        "value": ""
                    }
                ]
            },
            {
                "account": "0x5c9f74c6ae643347ad38c8e2bbf7bd7a3be2c397",
                "assets": [
                    {
                        "address": "0x9e15f8ad98e95033c1d4798458cec34a4b5972b0",
                        "amount": "201.304692",
                        "iconUrl": "",
                        "isERC1155": false,
                        "isERC721": false,
                        "sign": true,
                        "value": ""
                    }
                ]
            },
            {
                "account": "0x73f2ccb63c7c76ff339e29af90062bce33d412be",
                "assets": [
                    {
                        "address": "0x9e15f8ad98e95033c1d4798458cec34a4b5972b0",
                        "amount": "211.369926",
                        "iconUrl": "",
                        "isERC1155": false,
                        "isERC721": false,
                        "sign": false,
                        "value": ""
                    }
                ]
            },
            {
                "account": "0x76a2c3f6ca88aa1a6d1b70c843b1282c4ea6ae9f",
                "assets": [
                    {
                        "address": "0x9e15f8ad98e95033c1d4798458cec34a4b5972b0",
                        "amount": "67.101564",
                        "iconUrl": "",
                        "isERC1155": false,
                        "isERC721": false,
                        "sign": true,
                        "value": ""
                    }
                ]
            },
            {
                "account": "0xac6b95decf6351525d86994d3f1c9464795207f9",
                "assets": [
                    {
                        "address": "0x9e15f8ad98e95033c1d4798458cec34a4b5972b0",
                        "amount": "10.065234",
                        "iconUrl": "",
                        "isERC1155": false,
                        "isERC721": false,
                        "sign": true,
                        "value": ""
                    }
                ]
            }
        ]
    },
    "profile": {
        "basic_info": {
            "baseFee": "",
            "blockNumber": 8602053,
            "callData": "0xa9059cbb00000000000000000000000076a2c3f6ca88aa1a6d1b70c843b1282c4ea6ae9f0000000000000000000000000000000000000000000000000000000003ffe37c",
            "debugEnable": true,
            "errorInfo": "",
            "eventCount": 4,
            "feeRecipient": "0x5a0b54d5dc17e0aadc383d2db43b0a0d3e029c4c",
            "formatValue": "0",
            "gasLimit": 60000,
            "gasPrice": "20",
            "gasUsed": 44541,
            "intTxnCount": 0,
            "internalRevert": false,
            "internalRevertMessage": "",
            "isContractCreation": false,
            "isFlashloan": false,
            "maxFee": "",
            "nonce": 10,
            "overwritedBlockNumber": -1,
            "priorityFee": "",
            "receiver": "0x9e15f8ad98e95033c1d4798458cec34a4b5972b0",
            "revertMessage": "",
            "sender": "0x38a4c0e39f068e93bb75b8e6f2be9e3a100d207a",
            "simulationEnable": true,
            "sourceTxnHash": "0xf374c7f73430805147df9a7975fa22dc3701b006f51c5110a53f07902abf649c",
            "status": true,
            "timestamp": "2019-09-22T23:54:45Z",
            "transactionFee": "0.00089082",
            "txnHash": "0xf374c7f73430805147df9a7975fa22dc3701b006f51c5110a53f07902abf649c",
            "txnIndex": 24,
            "type": 0,
            "value": "0"
        },
        "fund_flow": [
            {
                "amount": "67.101564",
                "from": "0x38a4c0e39f068e93bb75b8e6f2be9e3a100d207a",
                "id": 1,
                "isERC1155": false,
                "isERC721": false,
                "isReverted": false,
                "order": 1,
                "to": "0x76a2c3f6ca88aa1a6d1b70c843b1282c4ea6ae9f",
                "token": "0x9e15f8ad98e95033c1d4798458cec34a4b5972b0"
            },
            {
                "amount": "201.304692",
                "from": "0x73f2ccb63c7c76ff339e29af90062bce33d412be",
                "id": 2,
                "isERC1155": false,
                "isERC721": false,
                "isReverted": false,
                "order": 2,
                "to": "0x5c9f74c6ae643347ad38c8e2bbf7bd7a3be2c397",
                "token": "0x9e15f8ad98e95033c1d4798458cec34a4b5972b0"
            },
            {
                "amount": "10.065234",
                "from": "0x73f2ccb63c7c76ff339e29af90062bce33d412be",
                "id": 3,
                "isERC1155": false,
                "isERC721": false,
                "isReverted": false,
                "order": 3,
                "to": "0xac6b95decf6351525d86994d3f1c9464795207f9",
                "token": "0x9e15f8ad98e95033c1d4798458cec34a4b5972b0"
            }
        ],
        "token_infos": [
            {
                "address": "0xc02aaa39b223fe8d0a0e5c4f27ead9083c756cc2",
                "decimals": 18
            },
            {
                "address": "0xeeeeeeeeeeeeeeeeeeeeeeeeeeeeeeeeeeeeeeee",
                "decimals": 18
            },
            {
                "address": "0x9e15f8ad98e95033c1d4798458cec34a4b5972b0",
                "decimals": 6
            }
        ]
    },
    "address_label": {
        "labels": [
            {
                "address": "0xeeeeeeeeeeeeeeeeeeeeeeeeeeeeeeeeeeeeeeee",
                "label": "Ether"
            },
            {
                "address": "0x9e15f8ad98e95033c1d4798458cec34a4b5972b0",
                "label": "Alchemy Coin (ALC)"
            },
            {
                "address": "0x0000000000000000000000000000000000000001",
                "label": "Precompiled"
            },
            {
                "address": "0x0000000000000000000000000000000000000002",
                "label": "Precompiled"
            },
            {
                "address": "0x0000000000000000000000000000000000000003",
                "label": "Precompiled"
            },
            {
                "address": "0x0000000000000000000000000000000000000004",
                "label": "Precompiled"
            }
        ]
    },
    "trace": {
        "accountLabels": null,
        "dataMap": {
            "-1": {
                "invocation": {
                    "address": "0x38a4c0e39f068e93bb75b8e6f2be9e3a100d207a",
                    "callData": "",
                    "decodedMethod": null,
                    "errorInfo": "",
                    "fromAddress": "",
                    "gasUsed": 0,
                    "id": -1,
                    "methodDecoded": false,
                    "operation": "",
                    "output": "",
                    "revert": false,
                    "revertMessage": "",
                    "selector": "",
                    "status": false,
                    "value": ""
                },
                "nodeType": 0
            },
            "0": {
                "invocation": {
                    "address": "0x9e15f8ad98e95033c1d4798458cec34a4b5972b0",
                    "callData": "0x00000000000000000000000076a2c3f6ca88aa1a6d1b70c843b1282c4ea6ae9f0000000000000000000000000000000000000000000000000000000003ffe37c",
                    "decodedMethod": {
                        "callParams": [
                            {
                                "name": "_to",
                                "type": "address",
                                "value": "0x76a2c3f6ca88aa1a6d1b70c843b1282c4ea6ae9f"
                            },
                            {
                                "decimalAvailable": true,
                                "name": "_value",
                                "type": "uint256",
                                "value": "67,101,564"
                            }
                        ],
                        "constructorArguments": "",
                        "name": "transfer",
                        "returnParams": [],
                        "signature": "transfer(address,uint256)"
                    },
                    "errorInfo": "",
                    "fromAddress": "0x38a4c0e39f068e93bb75b8e6f2be9e3a100d207a",
                    "gasUsed": 44541,
                    "id": 0,
                    "methodDecoded": true,
                    "operation": "CALL",
                    "output": "",
                    "revert": false,
                    "revertMessage": "",
                    "selector": "0xa9059cbb",
                    "status": true,
                    "value": "0"
                },
                "nodeType": 0
            },
            "1": {
                "event": {
                    "contract": "0x9e15f8ad98e95033c1d4798458cec34a4b5972b0",
                    "decodedLog": {
                        "name": "Transfer",
                        "params": [
                            {
                                "name": "from",
                                "type": "address",
                                "value": "0x38a4c0e39f068e93bb75b8e6f2be9e3a100d207a"
                            },
                            {
                                "name": "to",
                                "type": "address",
                                "value": "0x76a2c3f6ca88aa1a6d1b70c843b1282c4ea6ae9f"
                            },
                            {
                                "decimalAvailable": true,
                                "name": "value",
                                "type": "uint256",
                                "value": "67,101,564"
                            }
                        ],
                        "signature": "Transfer(address,address,uint256)"
                    },
                    "id": 1,
                    "logData": "0x0000000000000000000000000000000000000000000000000000000003ffe37c",
                    "logDecoded": true,
                    "operation": "EVENT",
                    "revert": false,
                    "status": true,
                    "topics": [
                        "0xddf252ad1be2c89b69c2b068fc378daa952ba7f163c4a11628f55a4df523b3ef",
                        "0x00000000000000000000000038a4c0e39f068e93bb75b8e6f2be9e3a100d207a",
                        "0x00000000000000000000000076a2c3f6ca88aa1a6d1b70c843b1282c4ea6ae9f"
                    ]
                },
                "nodeType": 1
            },
            "2": {
                "event": {
                    "contract": "0x9e15f8ad98e95033c1d4798458cec34a4b5972b0",
                    "decodedLog": {
                        "name": "Transfer",
                        "params": [
                            {
                                "name": "from",
                                "type": "address",
                                "value": "0x73f2ccb63c7c76ff339e29af90062bce33d412be"
                            },
                            {
                                "name": "to",
                                "type": "address",
                                "value": "0x5c9f74c6ae643347ad38c8e2bbf7bd7a3be2c397"
                            },
                            {
                                "decimalAvailable": true,
                                "name": "value",
                                "type": "uint256",
                                "value": "201,304,692"
                            }
                        ],
                        "signature": "Transfer(address,address,uint256)"
                    },
                    "id": 2,
                    "logData": "0x000000000000000000000000000000000000000000000000000000000bffaa74",
                    "logDecoded": true,
                    "operation": "EVENT",
                    "revert": false,
                    "status": true,
                    "topics": [
                        "0xddf252ad1be2c89b69c2b068fc378daa952ba7f163c4a11628f55a4df523b3ef",
                        "0x00000000000000000000000073f2ccb63c7c76ff339e29af90062bce33d412be",
                        "0x0000000000000000000000005c9f74c6ae643347ad38c8e2bbf7bd7a3be2c397"
                    ]
                },
                "nodeType": 1
            },
            "3": {
                "event": {
                    "contract": "0x9e15f8ad98e95033c1d4798458cec34a4b5972b0",
                    "decodedLog": {
                        "name": "Transfer",
                        "params": [
                            {
                                "name": "from",
                                "type": "address",
                                "value": "0x73f2ccb63c7c76ff339e29af90062bce33d412be"
                            },
                            {
                                "name": "to",
                                "type": "address",
                                "value": "0xac6b95decf6351525d86994d3f1c9464795207f9"
                            },
                            {
                                "decimalAvailable": true,
                                "name": "value",
                                "type": "uint256",
                                "value": "10,065,234"
                            }
                        ],
                        "signature": "Transfer(address,address,uint256)"
                    },
                    "id": 3,
                    "logData": "0x0000000000000000000000000000000000000000000000000000000000999552",
                    "logDecoded": true,
                    "operation": "EVENT",
                    "revert": false,
                    "status": true,
                    "topics": [
                        "0xddf252ad1be2c89b69c2b068fc378daa952ba7f163c4a11628f55a4df523b3ef",
                        "0x00000000000000000000000073f2ccb63c7c76ff339e29af90062bce33d412be",
                        "0x000000000000000000000000ac6b95decf6351525d86994d3f1c9464795207f9"
                    ]
                },
                "nodeType": 1
            },
            "4": {
                "event": {
                    "contract": "0x9e15f8ad98e95033c1d4798458cec34a4b5972b0",
                    "decodedLog": {
                        "name": "Burn",
                        "params": [
                            {
                                "name": "from",
                                "type": "address",
                                "value": "0x38a4c0e39f068e93bb75b8e6f2be9e3a100d207a"
                            },
                            {
                                "name": "value",
                                "type": "uint256",
                                "value": "67,101,564"
                            }
                        ],
                        "signature": "Burn(address,uint256)"
                    },
                    "id": 4,
                    "logData": "0x0000000000000000000000000000000000000000000000000000000003ffe37c",
                    "logDecoded": true,
                    "operation": "EVENT",
                    "revert": false,
                    "status": true,
                    "topics": [
                        "0xcc16f5dbb4873280815c1ee09dbd06736cffcc184412cf7a71a0fdb75d397ca5",
                        "0x00000000000000000000000038a4c0e39f068e93bb75b8e6f2be9e3a100d207a"
                    ]
                },
                "nodeType": 1
            }
        },
        "gasFlame": [
            {
                "children": [
                    {
                        "children": [
                            {
                                "children": [],
                                "depth": 0,
                                "name": "Initial Gas",
                                "value": 23064
                            },
                            {
                                "children": [],
                                "depth": 0,
                                "name": "Executed Gas",
                                "value": 36477
                            }
                        ],
                        "depth": -1,
                        "name": "Actual Gas Used",
                        "value": 44541
                    },
                    {
                        "children": [],
                        "depth": -1,
                        "name": "Refunded Gas",
                        "value": 15000
                    }
                ],
                "depth": -2,
                "name": "Total Gas",
                "value": 59541
            }
        ],
        "isConfirmed": true,
        "mainTrace": [
            {
                "children": [
                    {
                        "children": [
                            {
                                "children": [],
                                "depth": 1,
                                "id": 1,
                                "order": 1
                            },
                            {
                                "children": [],
                                "depth": 1,
                                "id": 2,
                                "order": 2
                            },
                            {
                                "children": [],
                                "depth": 1,
                                "id": 3,
                                "order": 3
                            },
                            {
                                "children": [],
                                "depth": 1,
                                "id": 4,
                                "order": 4
                            }
                        ],
                        "depth": 0,
                        "id": 0,
                        "order": 0
                    }
                ],
                "depth": -1,
                "id": -1,
                "order": -1
            }
        ],
        "mainTraceNodeCount": 5,
        "parentIdMap": {
            "0": -1,
            "1": 0,
            "2": 0,
            "3": 0,
            "4": 0
        },
        "tidyTrace": [
            {
                "children": [
                    {
                        "children": [
                            {
                                "children": [],
                                "depth": 1,
                                "id": 1,
                                "order": 1
                            },
                            {
                                "children": [],
                                "depth": 1,
                                "id": 2,
                                "order": 2
                            },
                            {
                                "children": [],
                                "depth": 1,
                                "id": 3,
                                "order": 3
                            },
                            {
                                "children": [],
                                "depth": 1,
                                "id": 4,
                                "order": 4
                            }
                        ],
                        "depth": 0,
                        "id": 0,
                        "order": 0
                    }
                ],
                "depth": -1,
                "id": -1,
                "order": -1
            }
        ],
        "tidyTraceNodeCount": 5
    },
    "state_change": {
        "stateChanges": [
            {
                "address": "0x9e15f8ad98e95033c1d4798458cec34a4b5972b0",
                "erc": "",
                "slots": [
                    {
                        "current": "0x0000000000000000000000000000000000000000000000000000a5050c4d7b52",
                        "key": "0xebaf7f54d0fc7628be984161674f4e133ea1fee70caec76de164683840a04494",
                        "prev": "0x0000000000000000000000000000000000000000000000000000a505004dd0de"
                    },
                    {
                        "current": "0x000000000000000000000000000000000000000000000000000001da85370d66",
                        "key": "0x17775b5d505ad6b482327558fcbf281b68e68520b5d3e505288e3dd50dae792c",
                        "prev": "0x000000000000000000000000000000000000000000000000000001da849d7814"
                    },
                    {
                        "current": "0x0000000000000000000000000000000000000000000000000002776891dd55c9",
                        "key": "0x6360374099ed29508efc8db2940f352e204a4021b31c4d910bfb9ada1750aaf5",
                        "prev": "0x000000000000000000000000000000000000000000000000000277689e76958f"
                    },
                    {
                        "current": "0x0000000000000000000000000000000000000000000000000000000000000000",
                        "key": "0x1dea94a4738904be0dd616891748171c48dd4d1575e601cfdda92df285843b61",
                        "prev": "0x0000000000000000000000000000000000000000000000000000000003ffe37c"
                    }
                ],
                "storageVariables": [
                    {
                        "name": "balanceOf",
                        "type": "mapping(address => uint256)",
                        "value": {
                            "pairs": [
                                {
                                    "key": "0x38a4c0e39f068e93bb75b8e6f2be9e3a100d207a",
                                    "value": {
                                        "current": "0",
                                        "prev": "67101564",
                                        "typeTag": 1
                                    }
                                },
                                {
                                    "key": "0x5c9f74c6ae643347ad38c8e2bbf7bd7a3be2c397",
                                    "value": {
                                        "current": "181441099823954",
                                        "prev": "181440898519262",
                                        "typeTag": 1
                                    }
                                },
                                {
                                    "key": "0x73f2ccb63c7c76ff339e29af90062bce33d412be",
                                    "value": {
                                        "current": "694240960927177",
                                        "prev": "694241172297103",
                                        "typeTag": 1
                                    }
                                },
                                {
                                    "key": "0xac6b95decf6351525d86994d3f1c9464795207f9",
                                    "value": {
                                        "current": "2038049475942",
                                        "prev": "2038039410708",
                                        "typeTag": 1
                                    }
                                }
                            ],
                            "typeTag": 4
                        }
                    }
                ]
            }
        ]
    }
}