{
    "balance_change": {
        "balanceChanges": [
            {
                "account": "0xb9bc2764f123e4284a16b49c2f02b3f2ec7d4d96",
                "assets": [
                    {
                        "address": "0x7448c7456a97769f6cd04f1e83a4a23ccdc46abd",
                        "amount": "11,525.249392520952769534",
                        "iconUrl": "",
                        "isERC1155": false,
                        "isERC721": false,
                        "sign": false,
                        "value": "6000.631406"
                    },
                    {
                        "address": "0xeeeeeeeeeeeeeeeeeeeeeeeeeeeeeeeeeeeeeeee",
                        "amount": "2.78647558466667514",
                        "iconUrl": "https://assets.blocksec.com/image/1663669189317-3.png",
                        "isERC1155": false,
                        "isERC721": false,
                        "sign": true,
                        "value": "6324.8537418564004056"
                    }
                ]
            },
            {
                "account": "0xb442a660450aeb6bd852438ed32ee7a519c0da4f",
                "assets": [
                    {
                        "address": "0x7448c7456a97769f6cd04f1e83a4a23ccdc46abd",
                        "amount": "11,525.249392520952769534",
                        "iconUrl": "",
                        "isERC1155": false,
                        "isERC721": false,
                        "sign": true,
                        "value": "6000.631406"
                    },
                    {
                        "address": "0xc02aaa39b223fe8d0a0e5c4f27ead9083c756cc2",
                        "amount": "2.78647558466667514",
                        "iconUrl": "https://assets.blocksec.com/icon/f1cb2d02c471d545bbc7722daf3277fd852d98e63d118771af7047bd8256c516.png",
                        "isERC1155": false,
                        "isERC721": false,
                        "sign": false,
                        "value": "6324.8537418564004056"
                    }
                ]
            },
            {
                "account": "0xc02aaa39b223fe8d0a0e5c4f27ead9083c756cc2",
                "assets": [
                    {
                        "address": "0xeeeeeeeeeeeeeeeeeeeeeeeeeeeeeeeeeeeeeeee",
                        "amount": "2.78647558466667514",
                        "iconUrl": "https://assets.blocksec.com/image/1663669189317-3.png",
                        "isERC1155": false,
                        "isERC721": false,
                        "sign": false,
                        "value": "6324.8537418564004056"
                    },
                    {
                        "address": "0xc02aaa39b223fe8d0a0e5c4f27ead9083c756cc2",
                        "amount": "2.78647558466667514",
                        "iconUrl": "https://assets.blocksec.com/icon/f1cb2d02c471d545bbc7722daf3277fd852d98e63d118771af7047bd8256c516.png",
                        "isERC1155": false,
                        "isERC721": false,
                        "sign": true,
                        "value": "6324.8537418564004056"
                    }
                ]
            }
        ]
    },
    "profile": {
        "basic_info": {
            "baseFee": "20.121672782",
            "blockNumber": 18934360,
            "callData": "0x24856bc3000000000000000000000000000000000000000000000000000000000000004000000000000000000000000000000000000000000000000000000000000000800000000000000000000000000000000000000000000000000000000000000002000c00000000000000000000000000000000000000000000000000000000000000000000000000000000000000000000000000000000000000000000000000020000000000000000000000000000000000000000000000000000000000000040000000000000000000000000000000000000000000000000000000000000016000000000000000000000000000000000000000000000000000000000000001000000000000000000000000000000000000000000000000000000000000000002000000000000000000000000000000000000000000000270c8f72b1c05fb6bfe000000000000000000000000000000000000000000000000267a4c661cf8a1d600000000000000000000000000000000000000000000000000000000000000a00000000000000000000000000000000000000000000000000000000000000001000000000000000000000000000000000000000000000000000000000000002b7448c7456a97769f6cd04f1e83a4a23ccdc46abd002710c02aaa39b223fe8d0a0e5c4f27ead9083c756cc20000000000000000000000000000000000000000000000000000000000000000000000000000000000000000000000000000000040000000000000000000000000b9bc2764f123e4284a16b49c2f02b3f2ec7d4d96000000000000000000000000000000000000000000000000267a4c661cf8a1d6",
            "debugEnable": true,
            "errorInfo": "",
            "eventCount": 4,
            "feeRecipient": "0x95222290dd7278aa3ddd389cc1e1d165cc4bafe5",
            "formatValue": "0",
            "gasLimit": 186866,
            "gasPrice": "22.121672782",
            "gasUsed": 126024,
            "intTxnCount": 11,
            "internalRevert": false,
            "internalRevertMessage": "",
            "isContractCreation": false,
            "isFlashloan": false,
            "maxFee": "25.768725974",
            "nonce": 567,
            "overwritedBlockNumber": -1,
            "priorityFee": "2",
            "receiver": "0x3fc91a3afd70395cd496c647d5a6cc9d4b2b7fad",
            "revertMessage": "",
            "sender": "0xb9bc2764f123e4284a16b49c2f02b3f2ec7d4d96",
            "simulationEnable": true,
            "sourceTxnHash": "0xf3524a6a1b5a6d24d82a3c6b6c224b4ee0d6841cd29a3e41b56ea904abb9e9bf",
            "status": true,
            "timestamp": "2024-01-04T13:46:47Z",
            "transactionFee": "0.002787861690678768",
            "txnHash": "0xf3524a6a1b5a6d24d82a3c6b6c224b4ee0d6841cd29a3e41b56ea904abb9e9bf",
            "txnIndex": 73,
            "type": 2,
            "value": "0"
        },
        "fund_flow": [
            {
                "amount": "2.78647558466667514",
                "from": "0xb442a660450aeb6bd852438ed32ee7a519c0da4f",
                "id": 1,
                "isERC1155": false,
                "isERC721": false,
                "isReverted": false,
                "order": 1,
                "to": "0x3fc91a3afd70395cd496c647d5a6cc9d4b2b7fad",
                "token": "0xc02aaa39b223fe8d0a0e5c4f27ead9083c756cc2"
            },
            {
                "amount": "11,525.249392520952769534",
                "from": "0xb9bc2764f123e4284a16b49c2f02b3f2ec7d4d96",
                "id": 2,
                "isERC1155": false,
                "isERC721": false,
                "isReverted": false,
                "order": 2,
                "to": "0xb442a660450aeb6bd852438ed32ee7a519c0da4f",
                "token": "0x7448c7456a97769f6cd04f1e83a4a23ccdc46abd"
            },
            {
                "amount": "2.78647558466667514",
                "from": "0xc02aaa39b223fe8d0a0e5c4f27ead9083c756cc2",
                "id": 3,
                "isERC1155": false,
                "isERC721": false,
                "isReverted": false,
                "order": 3,
                "to": "0x3fc91a3afd70395cd496c647d5a6cc9d4b2b7fad",
                "token": "0xeeeeeeeeeeeeeeeeeeeeeeeeeeeeeeeeeeeeeeee"
            },
            {
                "amount": "2.78647558466667514",
                "from": "0x3fc91a3afd70395cd496c647d5a6cc9d4b2b7fad",
                "id": 4,
                "isERC1155": false,
                "isERC721": false,
                "isReverted": false,
                "order": 4,
                "to": "0xc02aaa39b223fe8d0a0e5c4f27ead9083c756cc2",
                "token": "0xc02aaa39b223fe8d0a0e5c4f27ead9083c756cc2"
            },
            {
                "amount": "2.78647558466667514",
                "from": "0x3fc91a3afd70395cd496c647d5a6cc9d4b2b7fad",
                "id": 5,
                "isERC1155": false,
                "isERC721": false,
                "isReverted": false,
                "order": 5,
                "to": "0xb9bc2764f123e4284a16b49c2f02b3f2ec7d4d96",
                "token": "0xeeeeeeeeeeeeeeeeeeeeeeeeeeeeeeeeeeeeeeee"
            }
        ],
        "token_infos": [
            {
                "address": "0xc02aaa39b223fe8d0a0e5c4f27ead9083c756cc2",
                "decimals": 18
            },
            {
                "address": "0xeeeeeeeeeeeeeeeeeeeeeeeeeeeeeeeeeeeeeeee",
                "decimals": 18
            },
            {
                "address": "0x7448c7456a97769f6cd04f1e83a4a23ccdc46abd",
                "decimals": 18
            }
        ]
    },
    "address_label": {
        "labels": [
            {
                "address": "0x000000000022d473030f116ddee9f6b43ac78ba3",
                "label": "Permit2"
            },
            {
                "address": "0x7448c7456a97769f6cd04f1e83a4a23ccdc46abd",
                "label": "Maverick Protocol: MAV Token"
            },
            {
                "address": "0xb442a660450aeb6bd852438ed32ee7a519c0da4f",
                "label": "Uniswap V3: MAV 2"
            },
            {
                "address": "0xc02aaa39b223fe8d0a0e5c4f27ead9083c756cc2",
                "label": "Wrapped Ether (WETH)"
            },
            {
                "address": "0x0000000000000000000000000000000000000001",
                "label": "Precompiled"
            },
            {
                "address": "0x0000000000000000000000000000000000000002",
                "label": "Precompiled"
            },
            {
                "address": "0x0000000000000000000000000000000000000003",
                "label": "Precompiled"
            },
            {
                "address": "0xeeeeeeeeeeeeeeeeeeeeeeeeeeeeeeeeeeeeeeee",
                "label": "Ether"
            },
            {
                "address": "0x3fc91a3afd70395cd496c647d5a6cc9d4b2b7fad",
                "label": "Uniswap: Universal Router"
            },
            {
                "address": "0x0000000000000000000000000000000000000004",
                "label": "Precompiled"
            }
        ]
    },
    "trace": {
        "accountLabels": null,
        "dataMap": {
            "-1": {
                "invocation": {
                    "address": "0xb9bc2764f123e4284a16b49c2f02b3f2ec7d4d96",
                    "callData": "",
                    "decodedMethod": null,
                    "errorInfo": "",
                    "fromAddress": "",
                    "gasUsed": 0,
                    "id": -1,
                    "methodDecoded": false,
                    "operation": "",
                    "output": "",
                    "revert": false,
                    "revertMessage": "",
                    "selector": "",
                    "status": false,
                    "value": ""
                },
                "nodeType": 0
            },
            "0": {
                "invocation": {
                    "address": "0x3fc91a3afd70395cd496c647d5a6cc9d4b2b7fad",
                    "callData": "0x000000000000000000000000000000000000000000000000000000000000004000000000000000000000000000000000000000000000000000000000000000800000000000000000000000000000000000000000000000000000000000000002000c00000000000000000000000000000000000000000000000000000000000000000000000000000000000000000000000000000000000000000000000000020000000000000000000000000000000000000000000000000000000000000040000000000000000000000000000000000000000000000000000000000000016000000000000000000000000000000000000000000000000000000000000001000000000000000000000000000000000000000000000000000000000000000002000000000000000000000000000000000000000000000270c8f72b1c05fb6bfe000000000000000000000000000000000000000000000000267a4c661cf8a1d600000000000000000000000000000000000000000000000000000000000000a00000000000000000000000000000000000000000000000000000000000000001000000000000000000000000000000000000000000000000000000000000002b7448c7456a97769f6cd04f1e83a4a23ccdc46abd002710c02aaa39b223fe8d0a0e5c4f27ead9083c756cc20000000000000000000000000000000000000000000000000000000000000000000000000000000000000000000000000000000040000000000000000000000000b9bc2764f123e4284a16b49c2f02b3f2ec7d4d96000000000000000000000000000000000000000000000000267a4c661cf8a1d6",
                    "decodedMethod": {
                        "callParams": [
                            {
                                "name": "commands",
                                "type": "bytes",
                                "value": "0x000c"
                            },
                            {
                                "name": "inputs",
                                "type": "bytes[]",
                                "value": [
                                    "0x0000000000000000000000000000000000000000000000000000000000000002000000000000000000000000000000000000000000000270c8f72b1c05fb6bfe000000000000000000000000000000000000000000000000267a4c661cf8a1d600000000000000000000000000000000000000000000000000000000000000a00000000000000000000000000000000000000000000000000000000000000001000000000000000000000000000000000000000000000000000000000000002b7448c7456a97769f6cd04f1e83a4a23ccdc46abd002710c02aaa39b223fe8d0a0e5c4f27ead9083c756cc2000000000000000000000000000000000000000000",
                                    "0x000000000000000000000000b9bc2764f123e4284a16b49c2f02b3f2ec7d4d96000000000000000000000000000000000000000000000000267a4c661cf8a1d6"
                                ]
                            }
                        ],
                        "constructorArguments": "",
                        "name": "execute",
                        "returnParams": [],
                        "signature": "execute(bytes,bytes[])"
                    },
                    "errorInfo": "",
                    "fromAddress": "0xb9bc2764f123e4284a16b49c2f02b3f2ec7d4d96",
                    "gasUsed": 126024,
                    "id": 0,
                    "methodDecoded": true,
                    "operation": "CALL",
                    "output": "",
                    "revert": false,
                    "revertMessage": "",
                    "selector": "0x24856bc3",
                    "status": true,
                    "value": "0"
                },
                "nodeType": 0
            },
            "1": {
                "invocation": {
                    "address": "0xb442a660450aeb6bd852438ed32ee7a519c0da4f",
                    "callData": "0x0000000000000000000000003fc91a3afd70395cd496c647d5a6cc9d4b2b7fad0000000000000000000000000000000000000000000000000000000000000001000000000000000000000000000000000000000000000270c8f72b1c05fb6bfe00000000000000000000000000000000000000000000000000000001000276a400000000000000000000000000000000000000000000000000000000000000a000000000000000000000000000000000000000000000000000000000000000a00000000000000000000000000000000000000000000000000000000000000040000000000000000000000000b9bc2764f123e4284a16b49c2f02b3f2ec7d4d96000000000000000000000000000000000000000000000000000000000000002b7448c7456a97769f6cd04f1e83a4a23ccdc46abd002710c02aaa39b223fe8d0a0e5c4f27ead9083c756cc2000000000000000000000000000000000000000000",
                    "decodedMethod": {
                        "callParams": [
                            {
                                "name": "recipient",
                                "type": "address",
                                "value": "0x3fc91a3afd70395cd496c647d5a6cc9d4b2b7fad"
                            },
                            {
                                "name": "zeroForOne",
                                "type": "bool",
                                "value": true
                            },
                            {
                                "name": "amountSpecified",
                                "type": "int256",
                                "value": "11,525,249,392,520,952,769,534"
                            },
                            {
                                "name": "sqrtPriceLimitX96",
                                "type": "uint160",
                                "value": "4,295,128,740"
                            },
                            {
                                "name": "data",
                                "type": "bytes",
                                "value": "0x0000000000000000000000000000000000000000000000000000000000000040000000000000000000000000b9bc2764f123e4284a16b49c2f02b3f2ec7d4d96000000000000000000000000000000000000000000000000000000000000002b7448c7456a97769f6cd04f1e83a4a23ccdc46abd002710c02aaa39b223fe8d0a0e5c4f27ead9083c756cc2000000000000000000000000000000000000000000"
                            }
                        ],
                        "constructorArguments": "",
                        "name": "swap",
                        "returnParams": [
                            {
                                "name": "amount0",
                                "type": "int256",
                                "value": "11,525,249,392,520,952,769,534"
                            },
                            {
                                "name": "amount1",
                                "type": "int256",
                                "value": "-2,786,475,584,666,675,140"
                            }
                        ],
                        "signature": "swap(address,bool,int256,uint160,bytes)"
                    },
                    "errorInfo": "",
                    "fromAddress": "0x3fc91a3afd70395cd496c647d5a6cc9d4b2b7fad",
                    "gasUsed": 98941,
                    "id": 1,
                    "methodDecoded": true,
                    "operation": "CALL",
                    "output": "0x000000000000000000000000000000000000000000000270c8f72b1c05fb6bfeffffffffffffffffffffffffffffffffffffffffffffffffd954733818a4d83c",
                    "revert": false,
                    "revertMessage": "",
                    "selector": "0x128acb08",
                    "status": true,
                    "value": "0"
                },
                "nodeType": 0
            },
            "10": {
                "event": {
                    "contract": "0xb442a660450aeb6bd852438ed32ee7a519c0da4f",
                    "decodedLog": {
                        "name": "Swap",
                        "params": [
                            {
                                "name": "sender",
                                "type": "address",
                                "value": "0x3fc91a3afd70395cd496c647d5a6cc9d4b2b7fad"
                            },
                            {
                                "name": "recipient",
                                "type": "address",
                                "value": "0x3fc91a3afd70395cd496c647d5a6cc9d4b2b7fad"
                            },
                            {
                                "name": "amount0",
                                "type": "int256",
                                "value": "11,525,249,392,520,952,769,534"
                            },
                            {
                                "name": "amount1",
                                "type": "int256",
                                "value": "-2,786,475,584,666,675,140"
                            },
                            {
                                "name": "sqrtPriceX96",
                                "type": "uint160",
                                "value": "1,234,852,998,710,973,171,075,897,056"
                            },
                            {
                                "name": "liquidity",
                                "type": "uint128",
                                "value": "33,692,698,810,986,906,169,942"
                            },
                            {
                                "name": "tick",
                                "type": "int24",
                                "value": "-83,232"
                            }
                        ],
                        "signature": "Swap(address,address,int256,int256,uint160,uint128,int24)"
                    },
                    "id": 10,
                    "logData": "0x000000000000000000000000000000000000000000000270c8f72b1c05fb6bfeffffffffffffffffffffffffffffffffffffffffffffffffd954733818a4d83c000000000000000000000000000000000000000003fd724b31f44aae9927d6e00000000000000000000000000000000000000000000007227c1ff1060c9eb256fffffffffffffffffffffffffffffffffffffffffffffffffffffffffffebae0",
                    "logDecoded": true,
                    "operation": "EVENT",
                    "revert": false,
                    "status": true,
                    "topics": [
                        "0xc42079f94a6350d7e6235f29174924f928cc2ac818eb64fed8004e115fbcca67",
                        "0x0000000000000000000000003fc91a3afd70395cd496c647d5a6cc9d4b2b7fad",
                        "0x0000000000000000000000003fc91a3afd70395cd496c647d5a6cc9d4b2b7fad"
                    ]
                },
                "nodeType": 1
            },
            "11": {
                "invocation": {
                    "address": "0xc02aaa39b223fe8d0a0e5c4f27ead9083c756cc2",
                    "callData": "0x0000000000000000000000003fc91a3afd70395cd496c647d5a6cc9d4b2b7fad",
                    "decodedMethod": {
                        "callParams": [
                            {
                                "name": "",
                                "type": "address",
                                "value": "0x3fc91a3afd70395cd496c647d5a6cc9d4b2b7fad"
                            }
                        ],
                        "constructorArguments": "",
                        "name": "balanceOf",
                        "returnParams": [
                            {
                                "decimalAvailable": true,
                                "name": "",
                                "type": "uint256",
                                "value": "2,786,475,584,666,675,140"
                            }
                        ],
                        "signature": "balanceOf(address)"
                    },
                    "errorInfo": "",
                    "fromAddress": "0x3fc91a3afd70395cd496c647d5a6cc9d4b2b7fad",
                    "gasUsed": 534,
                    "id": 11,
                    "methodDecoded": true,
                    "operation": "STATICCALL",
                    "output": "0x00000000000000000000000000000000000000000000000026ab8cc7e75b27c4",
                    "revert": false,
                    "revertMessage": "",
                    "selector": "0x70a08231",
                    "status": true,
                    "value": "0"
                },
                "nodeType": 0
            },
            "12": {
                "invocation": {
                    "address": "0xc02aaa39b223fe8d0a0e5c4f27ead9083c756cc2",
                    "callData": "0x00000000000000000000000000000000000000000000000026ab8cc7e75b27c4",
                    "decodedMethod": {
                        "callParams": [
                            {
                                "name": "wad",
                                "type": "uint256",
                                "value": "2,786,475,584,666,675,140"
                            }
                        ],
                        "constructorArguments": "",
                        "name": "withdraw",
                        "returnParams": [],
                        "signature": "withdraw(uint256)"
                    },
                    "errorInfo": "",
                    "fromAddress": "0x3fc91a3afd70395cd496c647d5a6cc9d4b2b7fad",
                    "gasUsed": 9220,
                    "id": 12,
                    "methodDecoded": true,
                    "operation": "CALL",
                    "output": "",
                    "revert": false,
                    "revertMessage": "",
                    "selector": "0x2e1a7d4d",
                    "status": true,
                    "value": "0"
                },
                "nodeType": 0
            },
            "13": {
                "invocation": {
                    "address": "0x3fc91a3afd70395cd496c647d5a6cc9d4b2b7fad",
                    "callData": "0x",
                    "decodedMethod": null,
                    "errorInfo": "",
                    "fromAddress": "0xc02aaa39b223fe8d0a0e5c4f27ead9083c756cc2",
                    "gasUsed": 80,
                    "id": 13,
                    "methodDecoded": false,
                    "operation": "CALL",
                    "output": "",
                    "revert": false,
                    "revertMessage": "",
                    "selector": "fallback",
                    "status": true,
                    "value": "2.78647558466667514"
                },
                "nodeType": 0
            },
            "14": {
                "event": {
                    "contract": "0xc02aaa39b223fe8d0a0e5c4f27ead9083c756cc2",
                    "decodedLog": {
                        "name": "Withdrawal",
                        "params": [
                            {
                                "name": "src",
                                "type": "address",
                                "value": "0x3fc91a3afd70395cd496c647d5a6cc9d4b2b7fad"
                            },
                            {
                                "name": "wad",
                                "type": "uint256",
                                "value": "2,786,475,584,666,675,140"
                            }
                        ],
                        "signature": "Withdrawal(address,uint256)"
                    },
                    "id": 14,
                    "logData": "0x00000000000000000000000000000000000000000000000026ab8cc7e75b27c4",
                    "logDecoded": true,
                    "operation": "EVENT",
                    "revert": false,
                    "status": true,
                    "topics": [
                        "0x7fcf532c15f0a6db0bd6d0e038bea71d30d808c7d98cb3bf7268a95bf5081b65",
                        "0x0000000000000000000000003fc91a3afd70395cd496c647d5a6cc9d4b2b7fad"
                    ]
                },
                "nodeType": 1
            },
            "15": {
                "invocation": {
                    "address": "0xb9bc2764f123e4284a16b49c2f02b3f2ec7d4d96",
                    "callData": "0x",
                    "decodedMethod": null,
                    "errorInfo": "",
                    "fromAddress": "0x3fc91a3afd70395cd496c647d5a6cc9d4b2b7fad",
                    "gasUsed": 0,
                    "id": 15,
                    "methodDecoded": false,
                    "operation": "CALL",
                    "output": "",
                    "revert": false,
                    "revertMessage": "",
                    "selector": "fallback",
                    "status": true,
                    "value": "2.78647558466667514"
                },
                "nodeType": 0
            },
            "2": {
                "invocation": {
                    "address": "0xc02aaa39b223fe8d0a0e5c4f27ead9083c756cc2",
                    "callData": "0x0000000000000000000000003fc91a3afd70395cd496c647d5a6cc9d4b2b7fad00000000000000000000000000000000000000000000000026ab8cc7e75b27c4",
                    "decodedMethod": {
                        "callParams": [
                            {
                                "name": "dst",
                                "type": "address",
                                "value": "0x3fc91a3afd70395cd496c647d5a6cc9d4b2b7fad"
                            },
                            {
                                "decimalAvailable": true,
                                "name": "wad",
                                "type": "uint256",
                                "value": "2,786,475,584,666,675,140"
                            }
                        ],
                        "constructorArguments": "",
                        "name": "transfer",
                        "returnParams": [
                            {
                                "name": "",
                                "type": "bool",
                                "value": true
                            }
                        ],
                        "signature": "transfer(address,uint256)"
                    },
                    "errorInfo": "",
                    "fromAddress": "0xb442a660450aeb6bd852438ed32ee7a519c0da4f",
                    "gasUsed": 29962,
                    "id": 2,
                    "methodDecoded": true,
                    "operation": "CALL",
                    "output": "0x0000000000000000000000000000000000000000000000000000000000000001",
                    "revert": false,
                    "revertMessage": "",
                    "selector": "0xa9059cbb",
                    "status": true,
                    "value": "0"
                },
                "nodeType": 0
            },
            "3": {
                "event": {
                    "contract": "0xc02aaa39b223fe8d0a0e5c4f27ead9083c756cc2",
                    "decodedLog": {
                        "name": "Transfer",
                        "params": [
                            {
                                "name": "src",
                                "type": "address",
                                "value": "0xb442a660450aeb6bd852438ed32ee7a519c0da4f"
                            },
                            {
                                "name": "dst",
                                "type": "address",
                                "value": "0x3fc91a3afd70395cd496c647d5a6cc9d4b2b7fad"
                            },
                            {
                                "decimalAvailable": true,
                                "name": "wad",
                                "type": "uint256",
                                "value": "2,786,475,584,666,675,140"
                            }
                        ],
                        "signature": "Transfer(address,address,uint256)"
                    },
                    "id": 3,
                    "logData": "0x00000000000000000000000000000000000000000000000026ab8cc7e75b27c4",
                    "logDecoded": true,
                    "operation": "EVENT",
                    "revert": false,
                    "status": true,
                    "topics": [
                        "0xddf252ad1be2c89b69c2b068fc378daa952ba7f163c4a11628f55a4df523b3ef",
                        "0x000000000000000000000000b442a660450aeb6bd852438ed32ee7a519c0da4f",
                        "0x0000000000000000000000003fc91a3afd70395cd496c647d5a6cc9d4b2b7fad"
                    ]
                },
                "nodeType": 1
            },
            "4": {
                "invocation": {
                    "address": "0x7448c7456a97769f6cd04f1e83a4a23ccdc46abd",
                    "callData": "0x000000000000000000000000b442a660450aeb6bd852438ed32ee7a519c0da4f",
                    "decodedMethod": {
                        "callParams": [
                            {
                                "name": "account",
                                "type": "address",
                                "value": "0xb442a660450aeb6bd852438ed32ee7a519c0da4f"
                            }
                        ],
                        "constructorArguments": "",
                        "name": "balanceOf",
                        "returnParams": [
                            {
                                "decimalAvailable": true,
                                "name": "",
                                "type": "uint256",
                                "value": "216,096,517,547,624,033,165,942"
                            }
                        ],
                        "signature": "balanceOf(address)"
                    },
                    "errorInfo": "",
                    "fromAddress": "0xb442a660450aeb6bd852438ed32ee7a519c0da4f",
                    "gasUsed": 2596,
                    "id": 4,
                    "methodDecoded": true,
                    "operation": "STATICCALL",
                    "output": "0x000000000000000000000000000000000000000000002dc29d9dd52509582276",
                    "revert": false,
                    "revertMessage": "",
                    "selector": "0x70a08231",
                    "status": true,
                    "value": "0"
                },
                "nodeType": 0
            },
            "5": {
                "invocation": {
                    "address": "0x3fc91a3afd70395cd496c647d5a6cc9d4b2b7fad",
                    "callData": "0x000000000000000000000000000000000000000000000270c8f72b1c05fb6bfeffffffffffffffffffffffffffffffffffffffffffffffffd954733818a4d83c000000000000000000000000000000000000000000000000000000000000006000000000000000000000000000000000000000000000000000000000000000a00000000000000000000000000000000000000000000000000000000000000040000000000000000000000000b9bc2764f123e4284a16b49c2f02b3f2ec7d4d96000000000000000000000000000000000000000000000000000000000000002b7448c7456a97769f6cd04f1e83a4a23ccdc46abd002710c02aaa39b223fe8d0a0e5c4f27ead9083c756cc2000000000000000000000000000000000000000000",
                    "decodedMethod": {
                        "callParams": [
                            {
                                "name": "amount0Delta",
                                "type": "int256",
                                "value": "11,525,249,392,520,952,769,534"
                            },
                            {
                                "name": "amount1Delta",
                                "type": "int256",
                                "value": "-2,786,475,584,666,675,140"
                            },
                            {
                                "name": "data",
                                "type": "bytes",
                                "value": "0x0000000000000000000000000000000000000000000000000000000000000040000000000000000000000000b9bc2764f123e4284a16b49c2f02b3f2ec7d4d96000000000000000000000000000000000000000000000000000000000000002b7448c7456a97769f6cd04f1e83a4a23ccdc46abd002710c02aaa39b223fe8d0a0e5c4f27ead9083c756cc2000000000000000000000000000000000000000000"
                            }
                        ],
                        "constructorArguments": "",
                        "name": "uniswapV3SwapCallback",
                        "returnParams": [],
                        "signature": "uniswapV3SwapCallback(int256,int256,bytes)"
                    },
                    "errorInfo": "",
                    "fromAddress": "0xb442a660450aeb6bd852438ed32ee7a519c0da4f",
                    "gasUsed": 21283,
                    "id": 5,
                    "methodDecoded": true,
                    "operation": "CALL",
                    "output": "",
                    "revert": false,
                    "revertMessage": "",
                    "selector": "0xfa461e33",
                    "status": true,
                    "value": "0"
                },
                "nodeType": 0
            },
            "6": {
                "invocation": {
                    "address": "0x000000000022d473030f116ddee9f6b43ac78ba3",
                    "callData": "0x000000000000000000000000b9bc2764f123e4284a16b49c2f02b3f2ec7d4d96000000000000000000000000b442a660450aeb6bd852438ed32ee7a519c0da4f000000000000000000000000000000000000000000000270c8f72b1c05fb6bfe0000000000000000000000007448c7456a97769f6cd04f1e83a4a23ccdc46abd",
                    "decodedMethod": {
                        "callParams": [
                            {
                                "name": "from",
                                "type": "address",
                                "value": "0xb9bc2764f123e4284a16b49c2f02b3f2ec7d4d96"
                            },
                            {
                                "name": "to",
                                "type": "address",
                                "value": "0xb442a660450aeb6bd852438ed32ee7a519c0da4f"
                            },
                            {
                                "name": "amount",
                                "type": "uint160",
                                "value": "11,525,249,392,520,952,769,534"
                            },
                            {
                                "name": "token",
                                "type": "address",
                                "value": "0x7448c7456a97769f6cd04f1e83a4a23ccdc46abd"
                            }
                        ],
                        "constructorArguments": "",
                        "name": "transferFrom",
                        "returnParams": [],
                        "signature": "transferFrom(address,address,uint160,address)"
                    },
                    "errorInfo": "",
                    "fromAddress": "0x3fc91a3afd70395cd496c647d5a6cc9d4b2b7fad",
                    "gasUsed": 16262,
                    "id": 6,
                    "methodDecoded": true,
                    "operation": "CALL",
                    "output": "",
                    "revert": false,
                    "revertMessage": "",
                    "selector": "0x36c78516",
                    "status": true,
                    "value": "0"
                },
                "nodeType": 0
            },
            "7": {
                "invocation": {
                    "address": "0x7448c7456a97769f6cd04f1e83a4a23ccdc46abd",
                    "callData": "0x000000000000000000000000b9bc2764f123e4284a16b49c2f02b3f2ec7d4d96000000000000000000000000b442a660450aeb6bd852438ed32ee7a519c0da4f000000000000000000000000000000000000000000000270c8f72b1c05fb6bfe",
                    "decodedMethod": {
                        "callParams": [
                            {
                                "name": "from",
                                "type": "address",
                                "value": "0xb9bc2764f123e4284a16b49c2f02b3f2ec7d4d96"
                            },
                            {
                                "name": "to",
                                "type": "address",
                                "value": "0xb442a660450aeb6bd852438ed32ee7a519c0da4f"
                            },
                            {
                                "decimalAvailable": true,
                                "name": "amount",
                                "type": "uint256",
                                "value": "11,525,249,392,520,952,769,534"
                            }
                        ],
                        "constructorArguments": "",
                        "name": "transferFrom",
                        "returnParams": [
                            {
                                "name": "",
                                "type": "bool",
                                "value": true
                            }
                        ],
                        "signature": "transferFrom(address,address,uint256)"
                    },
                    "errorInfo": "",
                    "fromAddress": "0x000000000022d473030f116ddee9f6b43ac78ba3",
                    "gasUsed": 13055,
                    "id": 7,
                    "methodDecoded": true,
                    "operation": "CALL",
                    "output": "0x0000000000000000000000000000000000000000000000000000000000000001",
                    "revert": false,
                    "revertMessage": "",
                    "selector": "0x23b872dd",
                    "status": true,
                    "value": "0"
                },
                "nodeType": 0
            },
            "8": {
                "event": {
                    "contract": "0x7448c7456a97769f6cd04f1e83a4a23ccdc46abd",
                    "decodedLog": {
                        "name": "Transfer",
                        "params": [
                            {
                                "name": "from",
                                "type": "address",
                                "value": "0xb9bc2764f123e4284a16b49c2f02b3f2ec7d4d96"
                            },
                            {
                                "name": "to",
                                "type": "address",
                                "value": "0xb442a660450aeb6bd852438ed32ee7a519c0da4f"
                            },
                            {
                                "decimalAvailable": true,
                                "name": "value",
                                "type": "uint256",
                                "value": "11,525,249,392,520,952,769,534"
                            }
                        ],
                        "signature": "Transfer(address,address,uint256)"
                    },
                    "id": 8,
                    "logData": "0x000000000000000000000000000000000000000000000270c8f72b1c05fb6bfe",
                    "logDecoded": true,
                    "operation": "EVENT",
                    "revert": false,
                    "status": true,
                    "topics": [
                        "0xddf252ad1be2c89b69c2b068fc378daa952ba7f163c4a11628f55a4df523b3ef",
                        "0x000000000000000000000000b9bc2764f123e4284a16b49c2f02b3f2ec7d4d96",
                        "0x000000000000000000000000b442a660450aeb6bd852438ed32ee7a519c0da4f"
                    ]
                },
                "nodeType": 1
            },
            "9": {
                "invocation": {
                    "address": "0x7448c7456a97769f6cd04f1e83a4a23ccdc46abd",
                    "callData": "0x000000000000000000000000b442a660450aeb6bd852438ed32ee7a519c0da4f",
                    "decodedMethod": {
                        "callParams": [
                            {
                                "name": "account",
                                "type": "address",
                                "value": "0xb442a660450aeb6bd852438ed32ee7a519c0da4f"
                            }
                        ],
                        "constructorArguments": "",
                        "name": "balanceOf",
                        "returnParams": [
                            {
                                "decimalAvailable": true,
                                "name": "",
                                "type": "uint256",
                                "value": "227,621,766,940,144,985,935,476"
                            }
                        ],
                        "signature": "balanceOf(address)"
                    },
                    "errorInfo": "",
                    "fromAddress": "0xb442a660450aeb6bd852438ed32ee7a519c0da4f",
                    "gasUsed": 596,
                    "id": 9,
                    "methodDecoded": true,
                    "operation": "STATICCALL",
                    "output": "0x000000000000000000000000000000000000000000003033669500410f538e74",
                    "revert": false,
                    "revertMessage": "",
                    "selector": "0x70a08231",
                    "status": true,
                    "value": "0"
                },
                "nodeType": 0
            }
        },
        "gasFlame": [
            {
                "children": [
                    {
                        "children": [
                            {
                                "children": [],
                                "depth": 0,
                                "name": "Initial Gas",
                                "value": 24720
                            },
                            {
                                "children": [
                                    {
                                        "children": [
                                            {
                                                "children": [],
                                                "depth": 2,
                                                "name": "transfer",
                                                "value": 29962
                                            },
                                            {
                                                "children": [],
                                                "depth": 2,
                                                "name": "balanceOf",
                                                "value": 2596
                                            },
                                            {
                                                "children": [
                                                    {
                                                        "children": [
                                                            {
                                                                "children": [],
                                                                "depth": 4,
                                                                "name": "transferFrom",
                                                                "value": 13055
                                                            }
                                                        ],
                                                        "depth": 3,
                                                        "name": "transferFrom",
                                                        "value": 16262
                                                    }
                                                ],
                                                "depth": 2,
                                                "name": "uniswapV3SwapCallback",
                                                "value": 21283
                                            },
                                            {
                                                "children": [],
                                                "depth": 2,
                                                "name": "balanceOf",
                                                "value": 596
                                            }
                                        ],
                                        "depth": 1,
                                        "name": "swap",
                                        "value": 98941
                                    },
                                    {
                                        "children": [],
                                        "depth": 1,
                                        "name": "balanceOf",
                                        "value": 534
                                    },
                                    {
                                        "children": [
                                            {
                                                "children": [],
                                                "depth": 2,
                                                "name": "fallback",
                                                "value": 80
                                            }
                                        ],
                                        "depth": 1,
                                        "name": "withdraw",
                                        "value": 9220
                                    },
                                    {
                                        "children": [],
                                        "depth": 1,
                                        "name": "fallback",
                                        "value": 0
                                    }
                                ],
                                "depth": 0,
                                "name": "Executed Gas",
                                "value": 128804
                            }
                        ],
                        "depth": -1,
                        "name": "Actual Gas Used",
                        "value": 126024
                    },
                    {
                        "children": [],
                        "depth": -1,
                        "name": "Refunded Gas",
                        "value": 27500
                    }
                ],
                "depth": -2,
                "name": "Total Gas",
                "value": 153524
            }
        ],
        "isConfirmed": true,
        "mainTrace": [
            {
                "children": [
                    {
                        "children": [
                            {
                                "children": [
                                    {
                                        "children": [
                                            {
                                                "children": [],
                                                "depth": 3,
                                                "id": 3,
                                                "order": 3
                                            }
                                        ],
                                        "depth": 2,
                                        "id": 2,
                                        "order": 2
                                    },
                                    {
                                        "children": [],
                                        "depth": 2,
                                        "id": 4,
                                        "order": 4
                                    },
                                    {
                                        "children": [
                                            {
                                                "children": [
                                                    {
                                                        "children": [
                                                            {
                                                                "children": [],
                                                                "depth": 5,
                                                                "id": 8,
                                                                "order": 8
                                                            }
                                                        ],
                                                        "depth": 4,
                                                        "id": 7,
                                                        "order": 7
                                                    }
                                                ],
                                                "depth": 3,
                                                "id": 6,
                                                "order": 6
                                            }
                                        ],
                                        "depth": 2,
                                        "id": 5,
                                        "order": 5
                                    },
                                    {
                                        "children": [],
                                        "depth": 2,
                                        "id": 9,
                                        "order": 9
                                    },
                                    {
                                        "children": [],
                                        "depth": 2,
                                        "id": 10,
                                        "order": 10
                                    }
                                ],
                                "depth": 1,
                                "id": 1,
                                "order": 1
                            },
                            {
                                "children": [],
                                "depth": 1,
                                "id": 11,
                                "order": 11
                            },
                            {
                                "children": [
                                    {
                                        "children": [],
                                        "depth": 2,
                                        "id": 13,
                                        "order": 13
                                    },
                                    {
                                        "children": [],
                                        "depth": 2,
                                        "id": 14,
                                        "order": 14
                                    }
                                ],
                                "depth": 1,
                                "id": 12,
                                "order": 12
                            },
                            {
                                "children": [],
                                "depth": 1,
                                "id": 15,
                                "order": 15
                            }
                        ],
                        "depth": 0,
                        "id": 0,
                        "order": 0
                    }
                ],
                "depth": -1,
                "id": -1,
                "order": -1
            }
        ],
        "mainTraceNodeCount": 16,
        "parentIdMap": {
            "0": -1,
            "1": 0,
            "10": 1,
            "11": 0,
            "12": 0,
            "13": 12,
            "14": 12,
            "15": 0,
            "2": 1,
            "3": 2,
            "4": 1,
            "5": 1,
            "6": 5,
            "7": 6,
            "8": 7,
            "9": 1
        },
        "tidyTrace": [
            {
                "children": [
                    {
                        "children": [
                            {
                                "children": [
                                    {
                                        "children": [
                                            {
                                                "children": [],
                                                "depth": 3,
                                                "id": 3,
                                                "order": 3
                                            }
                                        ],
                                        "depth": 2,
                                        "id": 2,
                                        "order": 2
                                    },
                                    {
                                        "children": [
                                            {
                                                "children": [
                                                    {
                                                        "children": [
                                                            {
                                                                "children": [],
                                                                "depth": 5,
                                                                "id": 8,
                                                                "order": 8
                                                            }
                                                        ],
                                                        "depth": 4,
                                                        "id": 7,
                                                        "order": 7
                                                    }
                                                ],
                                                "depth": 3,
                                                "id": 6,
                                                "order": 6
                                            }
                                        ],
                                        "depth": 2,
                                        "id": 5,
                                        "order": 5
                                    },
                                    {
                                        "children": [],
                                        "depth": 2,
                                        "id": 10,
                                        "order": 10
                                    }
                                ],
                                "depth": 1,
                                "id": 1,
                                "order": 1
                            },
                            {
                                "children": [
                                    {
                                        "children": [],
                                        "depth": 2,
                                        "id": 13,
                                        "order": 13
                                    },
                                    {
                                        "children": [],
                                        "depth": 2,
                                        "id": 14,
                                        "order": 14
                                    }
                                ],
                                "depth": 1,
                                "id": 12,
                                "order": 12
                            },
                            {
                                "children": [],
                                "depth": 1,
                                "id": 15,
                                "order": 15
                            }
                        ],
                        "depth": 0,
                        "id": 0,
                        "order": 0
                    }
                ],
                "depth": -1,
                "id": -1,
                "order": -1
            }
        ],
        "tidyTraceNodeCount": 13
    },
    "state_change": {
        "stateChanges": [
            {
                "address": "0x7448c7456a97769f6cd04f1e83a4a23ccdc46abd",
                "erc": "ERC-20",
                "slots": [
                    {
                        "current": "0x000000000000000000000000000000000000000000003033669500410f538e74",
                        "key": "0x153cf1178bc34c3590b3f0f29ca6e60c32618efd3060233778528d04489bc746",
                        "prev": "0x000000000000000000000000000000000000000000002dc29d9dd52509582276"
                    },
                    {
                        "current": "0x0000000000000000000000000000000000000000000000000000000000000000",
                        "key": "0x7ddc835eb2ff365662c0f86a4e3ab0ca3948965f554d28012b2ab51fabbb4a71",
                        "prev": "0x000000000000000000000000000000000000000000000270c8f72b1c05fb6bfe"
                    }
                ],
                "storageVariables": [
                    {
                        "name": "_balances",
                        "type": "mapping(address => uint256)",
                        "value": {
                            "pairs": [
                                {
                                    "key": "0xb442a660450aeb6bd852438ed32ee7a519c0da4f",
                                    "value": {
                                        "current": "227621766940144985935476",
                                        "prev": "216096517547624033165942",
                                        "typeTag": 1
                                    }
                                },
                                {
                                    "key": "0xb9bc2764f123e4284a16b49c2f02b3f2ec7d4d96",
                                    "value": {
                                        "current": "0",
                                        "prev": "11525249392520952769534",
                                        "typeTag": 1
                                    }
                                }
                            ],
                            "typeTag": 4
                        }
                    }
                ]
            },
            {
                "address": "0xb442a660450aeb6bd852438ed32ee7a519c0da4f",
                "erc": "",
                "slots": [
                    {
                        "current": "0x0000000000000000000000000000000d32b564d1620eeba71d8584427fc734b3",
                        "key": "0x0000000000000000000000000000000000000000000000000000000000000001",
                        "prev": "0x0000000000000000000000000000000d31d5370e2a3cea77d30616b937766ce9"
                    },
                    {
                        "current": "0x000100000100010000febae0000000000000000003fd724b31f44aae9927d6e0",
                        "key": "0x0000000000000000000000000000000000000000000000000000000000000000",
                        "prev": "0x000100000100010000febb4a00000000000000000402ddd062c7bdbc0ccb7ada"
                    },
                    {
                        "current": "0x01002a6d38000000000169fb45d25242a738dbdbf6fffd84db28d3586596b6c7",
                        "key": "0x0000000000000000000000000000000000000000000000000000000000000008",
                        "prev": "0x01002a6d38000000000169fb45cef51e2308f1055dfffd84db4744686596b6af"
                    }
                ],
                "storageVariables": []
            },
            {
                "address": "0xc02aaa39b223fe8d0a0e5c4f27ead9083c756cc2",
                "erc": "ERC-20",
                "slots": [
                    {
                        "current": "0x000000000000000000000000000000000000000000000003ee3ee8b5f5f90f24",
                        "key": "0x5a4fb1ffb2716983d8c0157e62a73773597178d33378524c1f130d28ce8907b0",
                        "prev": "0x00000000000000000000000000000000000000000000000414ea757ddd5436e8"
                    }
                ],
                "storageVariables": [
                    {
                        "name": "balanceOf",
                        "type": "mapping(address => uint256)",
                        "value": {
                            "pairs": [
                                {
                                    "key": "0xb442a660450aeb6bd852438ed32ee7a519c0da4f",
                                    "value": {
                                        "current": "72507646918925029156",
                                        "prev": "75294122503591704296",
                                        "typeTag": 1
                                    }
                                }
                            ],
                            "typeTag": 4
                        }
                    }
                ]
            }
        ]
    }
}