{
    "balance_change": {
        "balanceChanges": [
            {
                "account": "0x4166cd1cee15ee763cf34fdad83afc87b3a8ed4a",
                "assets": [
                    {
                        "address": "0xd515cfbe2c848bc9daa5460dae52425bff54e4c0",
                        "amount": "95",
                        "iconUrl": "",
                        "isERC1155": false,
                        "isERC721": false,
                        "sign": false,
                        "value": ""
                    }
                ]
            },
            {
                "account": "0xd9f09472589932669d0d9685b62091d43b6d5e60",
                "assets": [
                    {
                        "address": "0xd515cfbe2c848bc9daa5460dae52425bff54e4c0",
                        "amount": "95",
                        "iconUrl": "",
                        "isERC1155": false,
                        "isERC721": false,
                        "sign": true,
                        "value": ""
                    }
                ]
            }
        ]
    },
    "profile": {
        "basic_info": {
            "baseFee": "",
            "blockNumber": 6276420,
            "callData": "0xa9059cbb000000000000000000000000d9f09472589932669d0d9685b62091d43b6d5e6000000000000000000000000000000000000000000000000000000002363e7f00",
            "debugEnable": true,
            "errorInfo": "",
            "eventCount": 1,
            "feeRecipient": "0x5a0b54d5dc17e0aadc383d2db43b0a0d3e029c4c",
            "formatValue": "0",
            "gasLimit": 60000,
            "gasPrice": "10",
            "gasUsed": 22306,
            "intTxnCount": 0,
            "internalRevert": false,
            "internalRevertMessage": "",
            "isContractCreation": false,
            "isFlashloan": false,
            "maxFee": "",
            "nonce": 0,
            "overwritedBlockNumber": -1,
            "priorityFee": "",
            "receiver": "0xd515cfbe2c848bc9daa5460dae52425bff54e4c0",
            "revertMessage": "",
            "sender": "0x4166cd1cee15ee763cf34fdad83afc87b3a8ed4a",
            "simulationEnable": true,
            "sourceTxnHash": "0xf3fe39d99ca8f6e65996628ceb08a182ead76442fb97d18cf78ab01feb149953",
            "status": true,
            "timestamp": "2018-09-05T13:07:07Z",
            "transactionFee": "0.00022306",
            "txnHash": "0xf3fe39d99ca8f6e65996628ceb08a182ead76442fb97d18cf78ab01feb149953",
            "txnIndex": 16,
            "type": 0,
            "value": "0"
        },
        "fund_flow": [
            {
                "amount": "95",
                "from": "0x4166cd1cee15ee763cf34fdad83afc87b3a8ed4a",
                "id": 1,
                "isERC1155": false,
                "isERC721": false,
                "isReverted": false,
                "order": 1,
                "to": "0xd9f09472589932669d0d9685b62091d43b6d5e60",
                "token": "0xd515cfbe2c848bc9daa5460dae52425bff54e4c0"
            }
        ],
        "token_infos": [
            {
                "address": "0xc02aaa39b223fe8d0a0e5c4f27ead9083c756cc2",
                "decimals": 18
            },
            {
                "address": "0xd515cfbe2c848bc9daa5460dae52425bff54e4c0",
                "decimals": 8
            },
            {
                "address": "0xeeeeeeeeeeeeeeeeeeeeeeeeeeeeeeeeeeeeeeee",
                "decimals": 18
            }
        ]
    },
    "address_label": {
        "labels": [
            {
                "address": "0x0000000000000000000000000000000000000003",
                "label": "Precompiled"
            },
            {
                "address": "0x0000000000000000000000000000000000000004",
                "label": "Precompiled"
            },
            {
                "address": "0xeeeeeeeeeeeeeeeeeeeeeeeeeeeeeeeeeeeeeeee",
                "label": "Ether"
            },
            {
                "address": "0xd515cfbe2c848bc9daa5460dae52425bff54e4c0",
                "label": "C&C Gambling Kingdom (CGK)"
            },
            {
                "address": "0x0000000000000000000000000000000000000001",
                "label": "Precompiled"
            },
            {
                "address": "0x0000000000000000000000000000000000000002",
                "label": "Precompiled"
            }
        ]
    },
    "trace": {
        "accountLabels": null,
        "dataMap": {
            "-1": {
                "invocation": {
                    "address": "0x4166cd1cee15ee763cf34fdad83afc87b3a8ed4a",
                    "callData": "",
                    "decodedMethod": null,
                    "errorInfo": "",
                    "fromAddress": "",
                    "gasUsed": 0,
                    "id": -1,
                    "methodDecoded": false,
                    "operation": "",
                    "output": "",
                    "revert": false,
                    "revertMessage": "",
                    "selector": "",
                    "status": false,
                    "value": ""
                },
                "nodeType": 0
            },
            "0": {
                "invocation": {
                    "address": "0xd515cfbe2c848bc9daa5460dae52425bff54e4c0",
                    "callData": "0x000000000000000000000000d9f09472589932669d0d9685b62091d43b6d5e6000000000000000000000000000000000000000000000000000000002363e7f00",
                    "decodedMethod": {
                        "callParams": [
                            {
                                "name": "_to",
                                "type": "address",
                                "value": "0xd9f09472589932669d0d9685b62091d43b6d5e60"
                            },
                            {
                                "decimalAvailable": true,
                                "name": "_value",
                                "type": "uint256",
                                "value": "9,500,000,000"
                            }
                        ],
                        "constructorArguments": "",
                        "name": "transfer",
                        "returnParams": [],
                        "signature": "transfer(address,uint256)"
                    },
                    "errorInfo": "",
                    "fromAddress": "0x4166cd1cee15ee763cf34fdad83afc87b3a8ed4a",
                    "gasUsed": 22306,
                    "id": 0,
                    "methodDecoded": true,
                    "operation": "CALL",
                    "output": "",
                    "revert": false,
                    "revertMessage": "",
                    "selector": "0xa9059cbb",
                    "status": true,
                    "value": "0"
                },
                "nodeType": 0
            },
            "1": {
                "event": {
                    "contract": "0xd515cfbe2c848bc9daa5460dae52425bff54e4c0",
                    "decodedLog": {
                        "name": "Transfer",
                        "params": [
                            {
                                "name": "from",
                                "type": "address",
                                "value": "0x4166cd1cee15ee763cf34fdad83afc87b3a8ed4a"
                            },
                            {
                                "name": "to",
                                "type": "address",
                                "value": "0xd9f09472589932669d0d9685b62091d43b6d5e60"
                            },
                            {
                                "decimalAvailable": true,
                                "name": "value",
                                "type": "uint256",
                                "value": "9,500,000,000"
                            }
                        ],
                        "signature": "Transfer(address,address,uint256)"
                    },
                    "id": 1,
                    "logData": "0x00000000000000000000000000000000000000000000000000000002363e7f00",
                    "logDecoded": true,
                    "operation": "EVENT",
                    "revert": false,
                    "status": true,
                    "topics": [
                        "0xddf252ad1be2c89b69c2b068fc378daa952ba7f163c4a11628f55a4df523b3ef",
                        "0x0000000000000000000000004166cd1cee15ee763cf34fdad83afc87b3a8ed4a",
                        "0x000000000000000000000000d9f09472589932669d0d9685b62091d43b6d5e60"
                    ]
                },
                "nodeType": 1
            }
        },
        "gasFlame": [
            {
                "children": [
                    {
                        "children": [
                            {
                                "children": [],
                                "depth": 0,
                                "name": "Initial Gas",
                                "value": 23064
                            },
                            {
                                "children": [],
                                "depth": 0,
                                "name": "Executed Gas",
                                "value": 14242
                            }
                        ],
                        "depth": -1,
                        "name": "Actual Gas Used",
                        "value": 22306
                    },
                    {
                        "children": [],
                        "depth": -1,
                        "name": "Refunded Gas",
                        "value": 15000
                    }
                ],
                "depth": -2,
                "name": "Total Gas",
                "value": 37306
            }
        ],
        "isConfirmed": true,
        "mainTrace": [
            {
                "children": [
                    {
                        "children": [
                            {
                                "children": [],
                                "depth": 1,
                                "id": 1,
                                "order": 1
                            }
                        ],
                        "depth": 0,
                        "id": 0,
                        "order": 0
                    }
                ],
                "depth": -1,
                "id": -1,
                "order": -1
            }
        ],
        "mainTraceNodeCount": 2,
        "parentIdMap": {
            "0": -1,
            "1": 0
        },
        "tidyTrace": [
            {
                "children": [
                    {
                        "children": [
                            {
                                "children": [],
                                "depth": 1,
                                "id": 1,
                                "order": 1
                            }
                        ],
                        "depth": 0,
                        "id": 0,
                        "order": 0
                    }
                ],
                "depth": -1,
                "id": -1,
                "order": -1
            }
        ],
        "tidyTraceNodeCount": 2
    },
    "state_change": {
        "stateChanges": [
            {
                "address": "0xd515cfbe2c848bc9daa5460dae52425bff54e4c0",
                "erc": "",
                "slots": [
                    {
                        "current": "0x00000000000000000000000000000000000000000000000000008955e0e2b910",
                        "key": "0x7b7e64bdf0f646f9c20e9d3627bcb8029da93f1ce9988dd11c6c70a0da639ce1",
                        "prev": "0x00000000000000000000000000000000000000000000000000008953aaa43a10"
                    },
                    {
                        "current": "0x0000000000000000000000000000000000000000000000000000000000000000",
                        "key": "0x393653bee9c2e32eb83166ddffb6ba5e05586978312476215a0da6c1df4c2c51",
                        "prev": "0x00000000000000000000000000000000000000000000000000000002363e7f00"
                    }
                ],
                "storageVariables": []
            }
        ]
    }
}