{
    "balance_change": {
        "balanceChanges": []
    },
    "profile": {
        "basic_info": {
            "baseFee": "",
            "blockNumber": 6392622,
            "callData": "0x51958a5600000000000000000000000082e67f413e839f285bdb704868282990f4ed6a9c0000000000000000000000000000000000000000000000000000000000037c0c",
            "debugEnable": true,
            "errorInfo": "",
            "eventCount": 0,
            "feeRecipient": "0x829bd824b016326a401d083b33d092293333a830",
            "formatValue": "0",
            "gasLimit": 43908,
            "gasPrice": "14",
            "gasUsed": 43908,
            "intTxnCount": 0,
            "internalRevert": false,
            "internalRevertMessage": "",
            "isContractCreation": false,
            "isFlashloan": false,
            "maxFee": "",
            "nonce": 29502,
            "overwritedBlockNumber": -1,
            "priorityFee": "",
            "receiver": "0xd32c3cf3db216687d76a124e95a5838a6ddc8f46",
            "revertMessage": "",
            "sender": "0x6058233f589dbe86f38bc64e1a77cf16cf3c6c7e",
            "simulationEnable": true,
            "sourceTxnHash": "0xf3746af3570f4c7448ec5b44b997d885b3147a595a95b3a9e330f20bf5f1b634",
            "status": true,
            "timestamp": "2018-09-24T19:49:11Z",
            "transactionFee": "0.000614712",
            "txnHash": "0xf3746af3570f4c7448ec5b44b997d885b3147a595a95b3a9e330f20bf5f1b634",
            "txnIndex": 78,
            "type": 0,
            "value": "0"
        },
        "fund_flow": [],
        "token_infos": [
            {
                "address": "0xc02aaa39b223fe8d0a0e5c4f27ead9083c756cc2",
                "decimals": 18
            },
            {
                "address": "0xeeeeeeeeeeeeeeeeeeeeeeeeeeeeeeeeeeeeeeee",
                "decimals": 18
            }
        ]
    },
    "address_label": {
        "labels": [
            {
                "address": "0xeeeeeeeeeeeeeeeeeeeeeeeeeeeeeeeeeeeeeeee",
                "label": "Ether"
            },
            {
                "address": "0xd32c3cf3db216687d76a124e95a5838a6ddc8f46",
                "label": "GETEventContract"
            },
            {
                "address": "0x0000000000000000000000000000000000000001",
                "label": "Precompiled"
            },
            {
                "address": "0x0000000000000000000000000000000000000002",
                "label": "Precompiled"
            },
            {
                "address": "0x0000000000000000000000000000000000000003",
                "label": "Precompiled"
            },
            {
                "address": "0x0000000000000000000000000000000000000004",
                "label": "Precompiled"
            }
        ]
    },
    "trace": {
        "accountLabels": null,
        "dataMap": {
            "-1": {
                "invocation": {
                    "address": "0x6058233f589dbe86f38bc64e1a77cf16cf3c6c7e",
                    "callData": "",
                    "decodedMethod": null,
                    "errorInfo": "",
                    "fromAddress": "",
                    "gasUsed": 0,
                    "id": -1,
                    "methodDecoded": false,
                    "operation": "",
                    "output": "",
                    "revert": false,
                    "revertMessage": "",
                    "selector": "",
                    "status": false,
                    "value": ""
                },
                "nodeType": 0
            },
            "0": {
                "invocation": {
                    "address": "0xd32c3cf3db216687d76a124e95a5838a6ddc8f46",
                    "callData": "0x00000000000000000000000082e67f413e839f285bdb704868282990f4ed6a9c0000000000000000000000000000000000000000000000000000000000037c0c",
                    "decodedMethod": {
                        "callParams": [
                            {
                                "name": "_receiver",
                                "type": "address",
                                "value": "0x82e67f413e839f285bdb704868282990f4ed6a9c"
                            },
                            {
                                "name": "_ticketid",
                                "type": "uint256",
                                "value": "228,364"
                            }
                        ],
                        "constructorArguments": "",
                        "name": "transferTicket",
                        "returnParams": [],
                        "signature": "transferTicket(address,uint256)"
                    },
                    "errorInfo": "",
                    "fromAddress": "0x6058233f589dbe86f38bc64e1a77cf16cf3c6c7e",
                    "gasUsed": 43908,
                    "id": 0,
                    "methodDecoded": true,
                    "operation": "CALL",
                    "output": "",
                    "revert": false,
                    "revertMessage": "",
                    "selector": "0x51958a56",
                    "status": true,
                    "value": "0"
                },
                "nodeType": 0
            }
        },
        "gasFlame": [
            {
                "children": [
                    {
                        "children": [
                            {
                                "children": [],
                                "depth": 0,
                                "name": "Initial Gas",
                                "value": 23000
                            },
                            {
                                "children": [],
                                "depth": 0,
                                "name": "Executed Gas",
                                "value": 20908
                            }
                        ],
                        "depth": -1,
                        "name": "Actual Gas Used",
                        "value": 43908
                    },
                    {
                        "children": [],
                        "depth": -1,
                        "name": "Refunded Gas",
                        "value": 0
                    }
                ],
                "depth": -2,
                "name": "Total Gas",
                "value": 43908
            }
        ],
        "isConfirmed": true,
        "mainTrace": [
            {
                "children": [
                    {
                        "children": [],
                        "depth": 0,
                        "id": 0,
                        "order": 0
                    }
                ],
                "depth": -1,
                "id": -1,
                "order": -1
            }
        ],
        "mainTraceNodeCount": 1,
        "parentIdMap": {
            "0": -1
        },
        "tidyTrace": [
            {
                "children": [
                    {
                        "children": [],
                        "depth": 0,
                        "id": 0,
                        "order": 0
                    }
                ],
                "depth": -1,
                "id": -1,
                "order": -1
            }
        ],
        "tidyTraceNodeCount": 1
    },
    "state_change": {
        "stateChanges": [
            {
                "address": "0xd32c3cf3db216687d76a124e95a5838a6ddc8f46",
                "erc": "",
                "slots": [
                    {
                        "current": "0x00000000000000000000000082e67f413e839f285bdb704868282990f4ed6a9c",
                        "key": "0xaead883b7a028f78bac8e4bd324276f4a8740108a98c9a2df38d58283c83956b",
                        "prev": "0x0000000000000000000000000000000000000000000000000000000000000000"
                    }
                ],
                "storageVariables": [
                    {
                        "name": "ticketOwner",
                        "type": "mapping(uint256 => address)",
                        "value": {
                            "pairs": [
                                {
                                    "key": "228364",
                                    "value": {
                                        "current": "0x82e67f413e839f285bdb704868282990f4ed6a9c",
                                        "prev": "0x0000000000000000000000000000000000000000",
                                        "typeTag": 1
                                    }
                                }
                            ],
                            "typeTag": 4
                        }
                    }
                ]
            }
        ]
    }
}