{
    "balance_change": {
        "balanceChanges": [
            {
                "account": "0xaa4df9729acf178a462f42f3a70bf39980caa4a0",
                "assets": [
                    {
                        "address": "0x8b70c94f3471ca83dddb048f20ed64470e4c107e",
                        "amount": "1,000",
                        "iconUrl": "",
                        "isERC1155": false,
                        "isERC721": false,
                        "sign": false,
                        "value": ""
                    }
                ]
            },
            {
                "account": "0x49e5e7f54199c15f662e7e7d42a11a5c94badd9d",
                "assets": [
                    {
                        "address": "0x8b70c94f3471ca83dddb048f20ed64470e4c107e",
                        "amount": "1,000",
                        "iconUrl": "",
                        "isERC1155": false,
                        "isERC721": false,
                        "sign": true,
                        "value": ""
                    }
                ]
            }
        ]
    },
    "profile": {
        "basic_info": {
            "baseFee": "",
            "blockNumber": 11573063,
            "callData": "0xa9059cbb00000000000000000000000049e5e7f54199c15f662e7e7d42a11a5c94badd9d00000000000000000000000000000000000000000000003635c9adc5dea00000",
            "debugEnable": true,
            "errorInfo": "",
            "eventCount": 1,
            "feeRecipient": "0x5a0b54d5dc17e0aadc383d2db43b0a0d3e029c4c",
            "formatValue": "0",
            "gasLimit": 72000,
            "gasPrice": "70.6",
            "gasUsed": 53497,
            "intTxnCount": 0,
            "internalRevert": false,
            "internalRevertMessage": "",
            "isContractCreation": false,
            "isFlashloan": false,
            "maxFee": "",
            "nonce": 4980,
            "overwritedBlockNumber": -1,
            "priorityFee": "",
            "receiver": "0x8b70c94f3471ca83dddb048f20ed64470e4c107e",
            "revertMessage": "",
            "sender": "0xaa4df9729acf178a462f42f3a70bf39980caa4a0",
            "simulationEnable": true,
            "sourceTxnHash": "0xf4f1976317f1dfb0ca1c591181e8f4d37550df76d1b08a80c7447a68e09760ca",
            "status": true,
            "timestamp": "2021-01-02T05:21:24Z",
            "transactionFee": "0.0037768882",
            "txnHash": "0xf4f1976317f1dfb0ca1c591181e8f4d37550df76d1b08a80c7447a68e09760ca",
            "txnIndex": 3,
            "type": 0,
            "value": "0"
        },
        "fund_flow": [
            {
                "amount": "1,000",
                "from": "0xaa4df9729acf178a462f42f3a70bf39980caa4a0",
                "id": 1,
                "isERC1155": false,
                "isERC721": false,
                "isReverted": false,
                "order": 1,
                "to": "0x49e5e7f54199c15f662e7e7d42a11a5c94badd9d",
                "token": "0x8b70c94f3471ca83dddb048f20ed64470e4c107e"
            }
        ],
        "token_infos": [
            {
                "address": "0xc02aaa39b223fe8d0a0e5c4f27ead9083c756cc2",
                "decimals": 18
            },
            {
                "address": "0xeeeeeeeeeeeeeeeeeeeeeeeeeeeeeeeeeeeeeeee",
                "decimals": 18
            },
            {
                "address": "0x8b70c94f3471ca83dddb048f20ed64470e4c107e",
                "decimals": 18
            }
        ]
    },
    "address_label": {
        "labels": [
            {
                "address": "0x0000000000000000000000000000000000000002",
                "label": "Precompiled"
            },
            {
                "address": "0x0000000000000000000000000000000000000003",
                "label": "Precompiled"
            },
            {
                "address": "0x0000000000000000000000000000000000000004",
                "label": "Precompiled"
            },
            {
                "address": "0xeeeeeeeeeeeeeeeeeeeeeeeeeeeeeeeeeeeeeeee",
                "label": "Ether"
            },
            {
                "address": "0x8b70c94f3471ca83dddb048f20ed64470e4c107e",
                "label": "FT (FT)"
            },
            {
                "address": "0x0000000000000000000000000000000000000001",
                "label": "Precompiled"
            }
        ]
    },
    "trace": {
        "accountLabels": null,
        "dataMap": {
            "-1": {
                "invocation": {
                    "address": "0xaa4df9729acf178a462f42f3a70bf39980caa4a0",
                    "callData": "",
                    "decodedMethod": null,
                    "errorInfo": "",
                    "fromAddress": "",
                    "gasUsed": 0,
                    "id": -1,
                    "methodDecoded": false,
                    "operation": "",
                    "output": "",
                    "revert": false,
                    "revertMessage": "",
                    "selector": "",
                    "status": false,
                    "value": ""
                },
                "nodeType": 0
            },
            "0": {
                "invocation": {
                    "address": "0x8b70c94f3471ca83dddb048f20ed64470e4c107e",
                    "callData": "0x00000000000000000000000049e5e7f54199c15f662e7e7d42a11a5c94badd9d00000000000000000000000000000000000000000000003635c9adc5dea00000",
                    "decodedMethod": {
                        "callParams": [
                            {
                                "name": "recipient",
                                "type": "address",
                                "value": "0x49e5e7f54199c15f662e7e7d42a11a5c94badd9d"
                            },
                            {
                                "decimalAvailable": true,
                                "name": "amount",
                                "type": "uint256",
                                "value": "1,000,000,000,000,000,000,000"
                            }
                        ],
                        "constructorArguments": "",
                        "name": "transfer",
                        "returnParams": [
                            {
                                "name": "",
                                "type": "bool",
                                "value": true
                            }
                        ],
                        "signature": "transfer(address,uint256)"
                    },
                    "errorInfo": "",
                    "fromAddress": "0xaa4df9729acf178a462f42f3a70bf39980caa4a0",
                    "gasUsed": 53497,
                    "id": 0,
                    "methodDecoded": true,
                    "operation": "CALL",
                    "output": "0x0000000000000000000000000000000000000000000000000000000000000001",
                    "revert": false,
                    "revertMessage": "",
                    "selector": "0xa9059cbb",
                    "status": true,
                    "value": "0"
                },
                "nodeType": 0
            },
            "1": {
                "event": {
                    "contract": "0x8b70c94f3471ca83dddb048f20ed64470e4c107e",
                    "decodedLog": {
                        "name": "Transfer",
                        "params": [
                            {
                                "name": "from",
                                "type": "address",
                                "value": "0xaa4df9729acf178a462f42f3a70bf39980caa4a0"
                            },
                            {
                                "name": "to",
                                "type": "address",
                                "value": "0x49e5e7f54199c15f662e7e7d42a11a5c94badd9d"
                            },
                            {
                                "decimalAvailable": true,
                                "name": "value",
                                "type": "uint256",
                                "value": "1,000,000,000,000,000,000,000"
                            }
                        ],
                        "signature": "Transfer(address,address,uint256)"
                    },
                    "id": 1,
                    "logData": "0x00000000000000000000000000000000000000000000003635c9adc5dea00000",
                    "logDecoded": true,
                    "operation": "EVENT",
                    "revert": false,
                    "status": true,
                    "topics": [
                        "0xddf252ad1be2c89b69c2b068fc378daa952ba7f163c4a11628f55a4df523b3ef",
                        "0x000000000000000000000000aa4df9729acf178a462f42f3a70bf39980caa4a0",
                        "0x00000000000000000000000049e5e7f54199c15f662e7e7d42a11a5c94badd9d"
                    ]
                },
                "nodeType": 1
            }
        },
        "gasFlame": [
            {
                "children": [
                    {
                        "children": [
                            {
                                "children": [],
                                "depth": 0,
                                "name": "Initial Gas",
                                "value": 21644
                            },
                            {
                                "children": [],
                                "depth": 0,
                                "name": "Executed Gas",
                                "value": 31853
                            }
                        ],
                        "depth": -1,
                        "name": "Actual Gas Used",
                        "value": 53497
                    },
                    {
                        "children": [],
                        "depth": -1,
                        "name": "Refunded Gas",
                        "value": 0
                    }
                ],
                "depth": -2,
                "name": "Total Gas",
                "value": 53497
            }
        ],
        "isConfirmed": true,
        "mainTrace": [
            {
                "children": [
                    {
                        "children": [
                            {
                                "children": [],
                                "depth": 1,
                                "id": 1,
                                "order": 1
                            }
                        ],
                        "depth": 0,
                        "id": 0,
                        "order": 0
                    }
                ],
                "depth": -1,
                "id": -1,
                "order": -1
            }
        ],
        "mainTraceNodeCount": 2,
        "parentIdMap": {
            "0": -1,
            "1": 0
        },
        "tidyTrace": [
            {
                "children": [
                    {
                        "children": [
                            {
                                "children": [],
                                "depth": 1,
                                "id": 1,
                                "order": 1
                            }
                        ],
                        "depth": 0,
                        "id": 0,
                        "order": 0
                    }
                ],
                "depth": -1,
                "id": -1,
                "order": -1
            }
        ],
        "tidyTraceNodeCount": 2
    },
    "state_change": {
        "stateChanges": [
            {
                "address": "0x8b70c94f3471ca83dddb048f20ed64470e4c107e",
                "erc": "",
                "slots": [
                    {
                        "current": "0x00000000000000000000000000000000000000000c372bf9b009cd98f397c800",
                        "key": "0xb8d155e1721a61e0b1639e203c34149a1baaf05c3371d82c8a9edc97f8963508",
                        "prev": "0x00000000000000000000000000000000000000000c372c2fe5d37b5ed237c800"
                    },
                    {
                        "current": "0x00000000000000000000000000000000000000000000003635c9adc5dea00000",
                        "key": "0xddb33ca9c08aec5b3fc1518354e48118a9094c415d361e3a6be5b131036b7a76",
                        "prev": "0x0000000000000000000000000000000000000000000000000000000000000000"
                    }
                ],
                "storageVariables": []
            }
        ]
    }
}