{
    "balance_change": {
        "balanceChanges": [
            {
                "account": "0xccfc21362b1f443ebe3fa2b2066bdcf3df7ee285",
                "assets": [
                    {
                        "address": "0xdfeb7df5ecf1e909459d111f611490c9b925a5a7",
                        "amount": "100",
                        "iconUrl": "",
                        "isERC1155": false,
                        "isERC721": false,
                        "sign": false,
                        "value": ""
                    }
                ]
            },
            {
                "account": "0x2083d9409f8ae09948a29ae1c3a98387180dc196",
                "assets": [
                    {
                        "address": "0xdfeb7df5ecf1e909459d111f611490c9b925a5a7",
                        "amount": "100",
                        "iconUrl": "",
                        "isERC1155": false,
                        "isERC721": false,
                        "sign": true,
                        "value": ""
                    }
                ]
            }
        ]
    },
    "profile": {
        "basic_info": {
            "baseFee": "",
            "blockNumber": 9518422,
            "callData": "0xa9059cbb0000000000000000000000002083d9409f8ae09948a29ae1c3a98387180dc1960000000000000000000000000000000000000000000000056bc75e2d63100000",
            "debugEnable": true,
            "errorInfo": "",
            "eventCount": 1,
            "feeRecipient": "0x5a0b54d5dc17e0aadc383d2db43b0a0d3e029c4c",
            "formatValue": "0",
            "gasLimit": 450000,
            "gasPrice": "2",
            "gasUsed": 36340,
            "intTxnCount": 0,
            "internalRevert": false,
            "internalRevertMessage": "",
            "isContractCreation": false,
            "isFlashloan": false,
            "maxFee": "",
            "nonce": 4386,
            "overwritedBlockNumber": -1,
            "priorityFee": "",
            "receiver": "0xdfeb7df5ecf1e909459d111f611490c9b925a5a7",
            "revertMessage": "",
            "sender": "0xccfc21362b1f443ebe3fa2b2066bdcf3df7ee285",
            "simulationEnable": true,
            "sourceTxnHash": "0xf462afa7f0a5cdc05d9e516b75251f6901363d265fc7af9046c76adfc33a352c",
            "status": true,
            "timestamp": "2020-02-20T06:05:33Z",
            "transactionFee": "0.00007268",
            "txnHash": "0xf462afa7f0a5cdc05d9e516b75251f6901363d265fc7af9046c76adfc33a352c",
            "txnIndex": 117,
            "type": 0,
            "value": "0"
        },
        "fund_flow": [
            {
                "amount": "100",
                "from": "0xccfc21362b1f443ebe3fa2b2066bdcf3df7ee285",
                "id": 1,
                "isERC1155": false,
                "isERC721": false,
                "isReverted": false,
                "order": 1,
                "to": "0x2083d9409f8ae09948a29ae1c3a98387180dc196",
                "token": "0xdfeb7df5ecf1e909459d111f611490c9b925a5a7"
            }
        ],
        "token_infos": [
            {
                "address": "0xc02aaa39b223fe8d0a0e5c4f27ead9083c756cc2",
                "decimals": 18
            },
            {
                "address": "0xdfeb7df5ecf1e909459d111f611490c9b925a5a7",
                "decimals": 18
            },
            {
                "address": "0xeeeeeeeeeeeeeeeeeeeeeeeeeeeeeeeeeeeeeeee",
                "decimals": 18
            }
        ]
    },
    "address_label": {
        "labels": [
            {
                "address": "0xdfeb7df5ecf1e909459d111f611490c9b925a5a7",
                "label": "Simbcoin Token"
            },
            {
                "address": "0x0000000000000000000000000000000000000001",
                "label": "Precompiled"
            },
            {
                "address": "0x0000000000000000000000000000000000000002",
                "label": "Precompiled"
            },
            {
                "address": "0x0000000000000000000000000000000000000003",
                "label": "Precompiled"
            },
            {
                "address": "0x0000000000000000000000000000000000000004",
                "label": "Precompiled"
            },
            {
                "address": "0xeeeeeeeeeeeeeeeeeeeeeeeeeeeeeeeeeeeeeeee",
                "label": "Ether"
            }
        ]
    },
    "trace": {
        "accountLabels": null,
        "dataMap": {
            "-1": {
                "invocation": {
                    "address": "0xccfc21362b1f443ebe3fa2b2066bdcf3df7ee285",
                    "callData": "",
                    "decodedMethod": null,
                    "errorInfo": "",
                    "fromAddress": "",
                    "gasUsed": 0,
                    "id": -1,
                    "methodDecoded": false,
                    "operation": "",
                    "output": "",
                    "revert": false,
                    "revertMessage": "",
                    "selector": "",
                    "status": false,
                    "value": ""
                },
                "nodeType": 0
            },
            "0": {
                "invocation": {
                    "address": "0xdfeb7df5ecf1e909459d111f611490c9b925a5a7",
                    "callData": "0x0000000000000000000000002083d9409f8ae09948a29ae1c3a98387180dc1960000000000000000000000000000000000000000000000056bc75e2d63100000",
                    "decodedMethod": {
                        "callParams": [
                            {
                                "name": "recipient",
                                "type": "address",
                                "value": "0x2083d9409f8ae09948a29ae1c3a98387180dc196"
                            },
                            {
                                "decimalAvailable": true,
                                "name": "amount",
                                "type": "uint256",
                                "value": "100,000,000,000,000,000,000"
                            }
                        ],
                        "constructorArguments": "",
                        "name": "transfer",
                        "returnParams": [
                            {
                                "name": "",
                                "type": "bool",
                                "value": true
                            }
                        ],
                        "signature": "transfer(address,uint256)"
                    },
                    "errorInfo": "",
                    "fromAddress": "0xccfc21362b1f443ebe3fa2b2066bdcf3df7ee285",
                    "gasUsed": 36340,
                    "id": 0,
                    "methodDecoded": true,
                    "operation": "CALL",
                    "output": "0x0000000000000000000000000000000000000000000000000000000000000001",
                    "revert": false,
                    "revertMessage": "",
                    "selector": "0xa9059cbb",
                    "status": true,
                    "value": "0"
                },
                "nodeType": 0
            },
            "1": {
                "event": {
                    "contract": "0xdfeb7df5ecf1e909459d111f611490c9b925a5a7",
                    "decodedLog": {
                        "name": "Transfer",
                        "params": [
                            {
                                "name": "from",
                                "type": "address",
                                "value": "0xccfc21362b1f443ebe3fa2b2066bdcf3df7ee285"
                            },
                            {
                                "name": "to",
                                "type": "address",
                                "value": "0x2083d9409f8ae09948a29ae1c3a98387180dc196"
                            },
                            {
                                "decimalAvailable": true,
                                "name": "value",
                                "type": "uint256",
                                "value": "100,000,000,000,000,000,000"
                            }
                        ],
                        "signature": "Transfer(address,address,uint256)"
                    },
                    "id": 1,
                    "logData": "0x0000000000000000000000000000000000000000000000056bc75e2d63100000",
                    "logDecoded": true,
                    "operation": "EVENT",
                    "revert": false,
                    "status": true,
                    "topics": [
                        "0xddf252ad1be2c89b69c2b068fc378daa952ba7f163c4a11628f55a4df523b3ef",
                        "0x000000000000000000000000ccfc21362b1f443ebe3fa2b2066bdcf3df7ee285",
                        "0x0000000000000000000000002083d9409f8ae09948a29ae1c3a98387180dc196"
                    ]
                },
                "nodeType": 1
            }
        },
        "gasFlame": [
            {
                "children": [
                    {
                        "children": [
                            {
                                "children": [],
                                "depth": 0,
                                "name": "Initial Gas",
                                "value": 21644
                            },
                            {
                                "children": [],
                                "depth": 0,
                                "name": "Executed Gas",
                                "value": 14696
                            }
                        ],
                        "depth": -1,
                        "name": "Actual Gas Used",
                        "value": 36340
                    },
                    {
                        "children": [],
                        "depth": -1,
                        "name": "Refunded Gas",
                        "value": 0
                    }
                ],
                "depth": -2,
                "name": "Total Gas",
                "value": 36340
            }
        ],
        "isConfirmed": true,
        "mainTrace": [
            {
                "children": [
                    {
                        "children": [
                            {
                                "children": [],
                                "depth": 1,
                                "id": 1,
                                "order": 1
                            }
                        ],
                        "depth": 0,
                        "id": 0,
                        "order": 0
                    }
                ],
                "depth": -1,
                "id": -1,
                "order": -1
            }
        ],
        "mainTraceNodeCount": 2,
        "parentIdMap": {
            "0": -1,
            "1": 0
        },
        "tidyTrace": [
            {
                "children": [
                    {
                        "children": [
                            {
                                "children": [],
                                "depth": 1,
                                "id": 1,
                                "order": 1
                            }
                        ],
                        "depth": 0,
                        "id": 0,
                        "order": 0
                    }
                ],
                "depth": -1,
                "id": -1,
                "order": -1
            }
        ],
        "tidyTraceNodeCount": 2
    },
    "state_change": {
        "stateChanges": [
            {
                "address": "0xdfeb7df5ecf1e909459d111f611490c9b925a5a7",
                "erc": "ERC-20",
                "slots": [
                    {
                        "current": "0x000000000000000000000000000000000000000000798d99d12126efae706a40",
                        "key": "0x5754f97a1025cd2d2bd7604d651adef0588169c6370255dac135de4c86fdfa75",
                        "prev": "0x000000000000000000000000000000000000000000798d9f3ce8851d11806a40"
                    },
                    {
                        "current": "0x000000000000000000000000000000000000000000000031a80dbad2f1d00000",
                        "key": "0xe93bffced8b7d38b84fba57ebdc82c20b989f8825e685a6bf5c6d3790fb9741e",
                        "prev": "0x00000000000000000000000000000000000000000000002c3c465ca58ec00000"
                    }
                ],
                "storageVariables": [
                    {
                        "name": "_balances",
                        "type": "mapping(address => uint256)",
                        "value": {
                            "pairs": [
                                {
                                    "key": "0x2083d9409f8ae09948a29ae1c3a98387180dc196",
                                    "value": {
                                        "current": "916000000000000000000",
                                        "prev": "816000000000000000000",
                                        "typeTag": 1
                                    }
                                },
                                {
                                    "key": "0xccfc21362b1f443ebe3fa2b2066bdcf3df7ee285",
                                    "value": {
                                        "current": "146948715268666666700008000",
                                        "prev": "146948815268666666700008000",
                                        "typeTag": 1
                                    }
                                }
                            ],
                            "typeTag": 4
                        }
                    }
                ]
            }
        ]
    }
}