{
    "balance_change": {
        "balanceChanges": [
            {
                "account": "0xe86efd9765c381530df2fe5d85f5ad4999e77c19",
                "assets": [
                    {
                        "address": "0x50f5474724e0ee42d9a4e711ccfb275809fd6d4a",
                        "amount": "1",
                        "iconUrl": "https://assets.blocksec.com/nft/icon/nft_13c4f3dd-b659-4d38-9461-b9372f0d013c.png",
                        "isERC1155": false,
                        "isERC721": true,
                        "sign": true,
                        "tokenID": "165816",
                        "value": ""
                    },
                    {
                        "address": "0x3845badade8e6dff049820680d1f14bd3903a5d0",
                        "amount": "1,011",
                        "iconUrl": "https://assets.blocksec.com/icon/7cbe910ee62b95d006cdf0f6bff21064470697470c1007c6bbb0744d19bfd504.png",
                        "isERC1155": false,
                        "isERC721": false,
                        "sign": false,
                        "value": "251.6505274"
                    }
                ]
            },
            {
                "account": "0x0000000000000000000000000000000000000000",
                "assets": [
                    {
                        "address": "0x50f5474724e0ee42d9a4e711ccfb275809fd6d4a",
                        "amount": "1",
                        "iconUrl": "https://assets.blocksec.com/nft/icon/nft_13c4f3dd-b659-4d38-9461-b9372f0d013c.png",
                        "isERC1155": false,
                        "isERC721": true,
                        "sign": false,
                        "tokenID": "165816",
                        "value": ""
                    }
                ]
            },
            {
                "account": "0x0eb04462d69b1d267d269377e34f60b9de1c8510",
                "assets": [
                    {
                        "address": "0x3845badade8e6dff049820680d1f14bd3903a5d0",
                        "amount": "50.55",
                        "iconUrl": "https://assets.blocksec.com/icon/7cbe910ee62b95d006cdf0f6bff21064470697470c1007c6bbb0744d19bfd504.png",
                        "isERC1155": false,
                        "isERC721": false,
                        "sign": true,
                        "value": "12.58252636"
                    }
                ]
            },
            {
                "account": "0x4489590a116618b506f0efe885432f6a8ed998e9",
                "assets": [
                    {
                        "address": "0x3845badade8e6dff049820680d1f14bd3903a5d0",
                        "amount": "960.45",
                        "iconUrl": "https://assets.blocksec.com/icon/7cbe910ee62b95d006cdf0f6bff21064470697470c1007c6bbb0744d19bfd504.png",
                        "isERC1155": false,
                        "isERC721": false,
                        "sign": true,
                        "value": "239.068001"
                    }
                ]
            }
        ]
    },
    "profile": {
        "basic_info": {
            "baseFee": "",
            "blockNumber": 12741932,
            "callData": "0xcae9ca510000000000000000000000003f1ec7a85d0ff1acabd5c7fd4a9f938c4158afe1000000000000000000000000000000000000000000000036ce71877e0fec0000000000000000000000000000000000000000000000000000000000000000006000000000000000000000000000000000000000000000000000000000000003448a12b82f000000000000000000000000e86efd9765c381530df2fe5d85f5ad4999e77c19000000000000000000000000e86efd9765c381530df2fe5d85f5ad4999e77c19000000000000000000000000000000000000000000000000000000000000000000000000000000000000000000000000000000000000000000000000000000a800000000000000000000000000000000000000000000000000000000000001960000000000000000000000000000000000000000000000000000000000000001000000000000000000000000000000000000000000000036ce71877e0fec0000000000000000000000000000000000000000000000000036ce71877e0fec0000e5af8fc1bf9a3f329d53d825bf0b5e3ca39e61875630505da24c7d132e130903000000000000000000000000000000000000000000000000000000000000018000000000000000000000000000000000000000000000000000000000000001a000000000000000000000000000000000000000000000000000000000000003200000000000000000000000000000000000000000000000000000000000000000000000000000000000000000000000000000000000000000000000000000000be7c724a434cc1e53fb577bdcc458307350b2b46e69b24234cf918ba6579df90afca182039ebc7619172bbc58e5ddca70d67dec4c946d3371cbaa450ebe22be0880f70e38c036893f6b83d0ab8894e0405fa5f341bc967b8c79688f1f60fae58aac69964144af98455049551bd79acae84f84c9f634d09b4c8369d6e19fbb08a7e459edad31aecf2d5d8fb60de627ffc65eba6b9c600bdd7608c3a171a9bdcaa48087490d76d2f1368b593b5d6c1644573ac83656c8a4d05867c33a88a02043aa5e268990c2e8801a9e32d80bfc73413e5f12019dfaddf42606a3287c9775a2319b1aad4b9d34b9b361229221f876a67bcb1804fbe1f1a24782e72aa748c73a703b7be60bc772226960445964f7d05b6e83f3f1566dc83e82613ec0ac8ead386a94db0cfbcc7a583156f9913060d15bfac69a902185470faa0f8f7a68607694e83109f19ea96873e1dd5b7450536fd4d15cf1fb561622f8ca59add89d4acf1691000000000000000000000000000000000000000000000000000000000000000000000000000000000000000000000000000000000000000000000000",
            "debugEnable": true,
            "errorInfo": "",
            "eventCount": 6,
            "feeRecipient": "0xea674fdde714fd979de3edf0f56aa9716b898ec8",
            "formatValue": "0",
            "gasLimit": 200000,
            "gasPrice": "33",
            "gasUsed": 144360,
            "intTxnCount": 6,
            "internalRevert": false,
            "internalRevertMessage": "",
            "isContractCreation": false,
            "isFlashloan": false,
            "maxFee": "",
            "nonce": 21,
            "overwritedBlockNumber": -1,
            "priorityFee": "",
            "receiver": "0x3845badade8e6dff049820680d1f14bd3903a5d0",
            "revertMessage": "",
            "sender": "0xe86efd9765c381530df2fe5d85f5ad4999e77c19",
            "simulationEnable": true,
            "sourceTxnHash": "0xf412644ff13f6f345f1bbcd87f43721eb381b891a976ce79c620c62db3f88773",
            "status": true,
            "timestamp": "2021-07-01T13:00:00Z",
            "transactionFee": "0.00476388",
            "txnHash": "0xf412644ff13f6f345f1bbcd87f43721eb381b891a976ce79c620c62db3f88773",
            "txnIndex": 141,
            "type": 0,
            "value": "0"
        },
        "fund_flow": [
            {
                "amount": "50.55",
                "from": "0xe86efd9765c381530df2fe5d85f5ad4999e77c19",
                "id": 1,
                "isERC1155": false,
                "isERC721": false,
                "isReverted": false,
                "order": 1,
                "to": "0x0eb04462d69b1d267d269377e34f60b9de1c8510",
                "token": "0x3845badade8e6dff049820680d1f14bd3903a5d0"
            },
            {
                "amount": "960.45",
                "from": "0xe86efd9765c381530df2fe5d85f5ad4999e77c19",
                "id": 2,
                "isERC1155": false,
                "isERC721": false,
                "isReverted": false,
                "order": 2,
                "to": "0x4489590a116618b506f0efe885432f6a8ed998e9",
                "token": "0x3845badade8e6dff049820680d1f14bd3903a5d0"
            },
            {
                "amount": "1",
                "from": "0x0000000000000000000000000000000000000000",
                "id": 3,
                "isERC1155": false,
                "isERC721": true,
                "isReverted": false,
                "order": 3,
                "to": "0xe86efd9765c381530df2fe5d85f5ad4999e77c19",
                "token": "0x50f5474724e0ee42d9a4e711ccfb275809fd6d4a",
                "tokenID": "165816"
            }
        ],
        "token_infos": [
            {
                "address": "0x3845badade8e6dff049820680d1f14bd3903a5d0",
                "decimals": 18
            },
            {
                "address": "0xc02aaa39b223fe8d0a0e5c4f27ead9083c756cc2",
                "decimals": 18
            },
            {
                "address": "0xeeeeeeeeeeeeeeeeeeeeeeeeeeeeeeeeeeeeeeee",
                "decimals": 18
            }
        ]
    },
    "address_label": {
        "labels": [
            {
                "address": "0xeeeeeeeeeeeeeeeeeeeeeeeeeeeeeeeeeeeeeeee",
                "label": "Ether"
            },
            {
                "address": "0x4489590a116618b506f0efe885432f6a8ed998e9",
                "label": "The Sandbox: Treasury Vault"
            },
            {
                "address": "0x0000000000000000000000000000000000000000",
                "label": "Null Address"
            },
            {
                "address": "0x0eb04462d69b1d267d269377e34f60b9de1c8510",
                "label": "The Sandbox: Land Sale Fee Recipient Vault"
            },
            {
                "address": "0x3845badade8e6dff049820680d1f14bd3903a5d0",
                "label": "The Sandbox: SAND Token"
            },
            {
                "address": "0x3f1ec7a85d0ff1acabd5c7fd4a9f938c4158afe1",
                "label": "EstateSaleWithFee"
            },
            {
                "address": "0x0000000000000000000000000000000000000001",
                "label": "Precompiled"
            },
            {
                "address": "0x0000000000000000000000000000000000000003",
                "label": "Precompiled"
            },
            {
                "address": "0x50f5474724e0ee42d9a4e711ccfb275809fd6d4a",
                "label": "The Sandbox: Old LAND Token"
            },
            {
                "address": "0xa342f5d851e866e18ff98f351f2c6637f4478db5",
                "label": "The Sandbox: ASSET Token"
            },
            {
                "address": "0x0000000000000000000000000000000000000004",
                "label": "Precompiled"
            },
            {
                "address": "0x7fbf5c9af42a6d146dcc18762f515692cd5f853b",
                "label": "Sandbox&#39;s ASSETs (ASSET)"
            },
            {
                "address": "0x0000000000000000000000000000000000000002",
                "label": "Precompiled"
            }
        ]
    },
    "trace": {
        "accountLabels": null,
        "dataMap": {
            "-1": {
                "invocation": {
                    "address": "0xe86efd9765c381530df2fe5d85f5ad4999e77c19",
                    "callData": "",
                    "decodedMethod": null,
                    "errorInfo": "",
                    "fromAddress": "",
                    "gasUsed": 0,
                    "id": -1,
                    "methodDecoded": false,
                    "operation": "",
                    "output": "",
                    "revert": false,
                    "revertMessage": "",
                    "selector": "",
                    "status": false,
                    "value": ""
                },
                "nodeType": 0
            },
            "0": {
                "invocation": {
                    "address": "0x3845badade8e6dff049820680d1f14bd3903a5d0",
                    "callData": "0x0000000000000000000000003f1ec7a85d0ff1acabd5c7fd4a9f938c4158afe1000000000000000000000000000000000000000000000036ce71877e0fec0000000000000000000000000000000000000000000000000000000000000000006000000000000000000000000000000000000000000000000000000000000003448a12b82f000000000000000000000000e86efd9765c381530df2fe5d85f5ad4999e77c19000000000000000000000000e86efd9765c381530df2fe5d85f5ad4999e77c19000000000000000000000000000000000000000000000000000000000000000000000000000000000000000000000000000000000000000000000000000000a800000000000000000000000000000000000000000000000000000000000001960000000000000000000000000000000000000000000000000000000000000001000000000000000000000000000000000000000000000036ce71877e0fec0000000000000000000000000000000000000000000000000036ce71877e0fec0000e5af8fc1bf9a3f329d53d825bf0b5e3ca39e61875630505da24c7d132e130903000000000000000000000000000000000000000000000000000000000000018000000000000000000000000000000000000000000000000000000000000001a000000000000000000000000000000000000000000000000000000000000003200000000000000000000000000000000000000000000000000000000000000000000000000000000000000000000000000000000000000000000000000000000be7c724a434cc1e53fb577bdcc458307350b2b46e69b24234cf918ba6579df90afca182039ebc7619172bbc58e5ddca70d67dec4c946d3371cbaa450ebe22be0880f70e38c036893f6b83d0ab8894e0405fa5f341bc967b8c79688f1f60fae58aac69964144af98455049551bd79acae84f84c9f634d09b4c8369d6e19fbb08a7e459edad31aecf2d5d8fb60de627ffc65eba6b9c600bdd7608c3a171a9bdcaa48087490d76d2f1368b593b5d6c1644573ac83656c8a4d05867c33a88a02043aa5e268990c2e8801a9e32d80bfc73413e5f12019dfaddf42606a3287c9775a2319b1aad4b9d34b9b361229221f876a67bcb1804fbe1f1a24782e72aa748c73a703b7be60bc772226960445964f7d05b6e83f3f1566dc83e82613ec0ac8ead386a94db0cfbcc7a583156f9913060d15bfac69a902185470faa0f8f7a68607694e83109f19ea96873e1dd5b7450536fd4d15cf1fb561622f8ca59add89d4acf1691000000000000000000000000000000000000000000000000000000000000000000000000000000000000000000000000000000000000000000000000",
                    "decodedMethod": {
                        "callParams": [
                            {
                                "name": "target",
                                "type": "address",
                                "value": "0x3f1ec7a85d0ff1acabd5c7fd4a9f938c4158afe1"
                            },
                            {
                                "name": "amount",
                                "type": "uint256",
                                "value": "1,011,000,000,000,000,000,000"
                            },
                            {
                                "name": "data",
                                "type": "bytes",
                                "value": "0x8a12b82f000000000000000000000000e86efd9765c381530df2fe5d85f5ad4999e77c19000000000000000000000000e86efd9765c381530df2fe5d85f5ad4999e77c19000000000000000000000000000000000000000000000000000000000000000000000000000000000000000000000000000000000000000000000000000000a800000000000000000000000000000000000000000000000000000000000001960000000000000000000000000000000000000000000000000000000000000001000000000000000000000000000000000000000000000036ce71877e0fec0000000000000000000000000000000000000000000000000036ce71877e0fec0000e5af8fc1bf9a3f329d53d825bf0b5e3ca39e61875630505da24c7d132e130903000000000000000000000000000000000000000000000000000000000000018000000000000000000000000000000000000000000000000000000000000001a000000000000000000000000000000000000000000000000000000000000003200000000000000000000000000000000000000000000000000000000000000000000000000000000000000000000000000000000000000000000000000000000be7c724a434cc1e53fb577bdcc458307350b2b46e69b24234cf918ba6579df90afca182039ebc7619172bbc58e5ddca70d67dec4c946d3371cbaa450ebe22be0880f70e38c036893f6b83d0ab8894e0405fa5f341bc967b8c79688f1f60fae58aac69964144af98455049551bd79acae84f84c9f634d09b4c8369d6e19fbb08a7e459edad31aecf2d5d8fb60de627ffc65eba6b9c600bdd7608c3a171a9bdcaa48087490d76d2f1368b593b5d6c1644573ac83656c8a4d05867c33a88a02043aa5e268990c2e8801a9e32d80bfc73413e5f12019dfaddf42606a3287c9775a2319b1aad4b9d34b9b361229221f876a67bcb1804fbe1f1a24782e72aa748c73a703b7be60bc772226960445964f7d05b6e83f3f1566dc83e82613ec0ac8ead386a94db0cfbcc7a583156f9913060d15bfac69a902185470faa0f8f7a68607694e83109f19ea96873e1dd5b7450536fd4d15cf1fb561622f8ca59add89d4acf16910000000000000000000000000000000000000000000000000000000000000000"
                            }
                        ],
                        "constructorArguments": "",
                        "name": "approveAndCall",
                        "returnParams": [
                            {
                                "name": "",
                                "type": "bytes",
                                "value": "0x"
                            }
                        ],
                        "signature": "approveAndCall(address,uint256,bytes)"
                    },
                    "errorInfo": "",
                    "fromAddress": "0xe86efd9765c381530df2fe5d85f5ad4999e77c19",
                    "gasUsed": 144360,
                    "id": 0,
                    "methodDecoded": true,
                    "operation": "CALL",
                    "output": "0x00000000000000000000000000000000000000000000000000000000000000200000000000000000000000000000000000000000000000000000000000000000",
                    "revert": false,
                    "revertMessage": "",
                    "selector": "0xcae9ca51",
                    "status": true,
                    "value": "0"
                },
                "nodeType": 0
            },
            "1": {
                "event": {
                    "contract": "0x3845badade8e6dff049820680d1f14bd3903a5d0",
                    "decodedLog": {
                        "name": "Approval",
                        "params": [
                            {
                                "name": "owner",
                                "type": "address",
                                "value": "0xe86efd9765c381530df2fe5d85f5ad4999e77c19"
                            },
                            {
                                "name": "spender",
                                "type": "address",
                                "value": "0x3f1ec7a85d0ff1acabd5c7fd4a9f938c4158afe1"
                            },
                            {
                                "decimalAvailable": true,
                                "name": "value",
                                "type": "uint256",
                                "value": "1,011,000,000,000,000,000,000"
                            }
                        ],
                        "signature": "Approval(address,address,uint256)"
                    },
                    "id": 1,
                    "logData": "0x000000000000000000000000000000000000000000000036ce71877e0fec0000",
                    "logDecoded": true,
                    "operation": "EVENT",
                    "revert": false,
                    "status": true,
                    "topics": [
                        "0x8c5be1e5ebec7d5bd14f71427d1e84f3dd0314c0f7b2291e5b200ac8c7c3b925",
                        "0x000000000000000000000000e86efd9765c381530df2fe5d85f5ad4999e77c19",
                        "0x0000000000000000000000003f1ec7a85d0ff1acabd5c7fd4a9f938c4158afe1"
                    ]
                },
                "nodeType": 1
            },
            "10": {
                "invocation": {
                    "address": "0xa342f5d851e866e18ff98f351f2c6637f4478db5",
                    "callData": "0x0000000000000000000000003f1ec7a85d0ff1acabd5c7fd4a9f938c4158afe1000000000000000000000000e86efd9765c381530df2fe5d85f5ad4999e77c1900000000000000000000000000000000000000000000000000000000000000a000000000000000000000000000000000000000000000000000000000000000c000000000000000000000000000000000000000000000000000000000000000e00000000000000000000000000000000000000000000000000000000000000000000000000000000000000000000000000000000000000000000000000000000000000000000000000000000000000000000000000000000000000000000000000000000000000000000000000000000000000000000000000000000000000000",
                    "decodedMethod": {
                        "callParams": [
                            {
                                "name": "from",
                                "type": "address",
                                "value": "0x3f1ec7a85d0ff1acabd5c7fd4a9f938c4158afe1"
                            },
                            {
                                "name": "to",
                                "type": "address",
                                "value": "0xe86efd9765c381530df2fe5d85f5ad4999e77c19"
                            },
                            {
                                "name": "ids",
                                "type": "uint256[]",
                                "value": []
                            },
                            {
                                "name": "values",
                                "type": "uint256[]",
                                "value": []
                            },
                            {
                                "name": "data",
                                "type": "bytes",
                                "value": "0x"
                            }
                        ],
                        "constructorArguments": "",
                        "name": "safeBatchTransferFrom",
                        "returnParams": [],
                        "signature": "safeBatchTransferFrom(address,address,uint256[],uint256[],bytes)"
                    },
                    "errorInfo": "",
                    "fromAddress": "0x3f1ec7a85d0ff1acabd5c7fd4a9f938c4158afe1",
                    "gasUsed": 15059,
                    "id": 10,
                    "methodDecoded": true,
                    "operation": "CALL",
                    "output": "",
                    "revert": false,
                    "revertMessage": "",
                    "selector": "0x2eb2c2d6",
                    "status": true,
                    "value": "0"
                },
                "nodeType": 0
            },
            "11": {
                "invocation": {
                    "address": "0x7fbf5c9af42a6d146dcc18762f515692cd5f853b",
                    "callData": "0x0000000000000000000000003f1ec7a85d0ff1acabd5c7fd4a9f938c4158afe1000000000000000000000000e86efd9765c381530df2fe5d85f5ad4999e77c1900000000000000000000000000000000000000000000000000000000000000a000000000000000000000000000000000000000000000000000000000000000c000000000000000000000000000000000000000000000000000000000000000e00000000000000000000000000000000000000000000000000000000000000000000000000000000000000000000000000000000000000000000000000000000000000000000000000000000000000000000000000000000000000000000000000000000000000000000000000000000000000000000000000000000000000000",
                    "decodedMethod": {
                        "callParams": [
                            {
                                "name": "from",
                                "type": "address",
                                "value": "0x3f1ec7a85d0ff1acabd5c7fd4a9f938c4158afe1"
                            },
                            {
                                "name": "to",
                                "type": "address",
                                "value": "0xe86efd9765c381530df2fe5d85f5ad4999e77c19"
                            },
                            {
                                "name": "ids",
                                "type": "uint256[]",
                                "value": []
                            },
                            {
                                "name": "values",
                                "type": "uint256[]",
                                "value": []
                            },
                            {
                                "name": "data",
                                "type": "bytes",
                                "value": "0x"
                            }
                        ],
                        "constructorArguments": "",
                        "name": "safeBatchTransferFrom",
                        "returnParams": [],
                        "signature": "safeBatchTransferFrom(address,address,uint256[],uint256[],bytes)"
                    },
                    "errorInfo": "",
                    "fromAddress": "0xa342f5d851e866e18ff98f351f2c6637f4478db5",
                    "gasUsed": 7741,
                    "id": 11,
                    "methodDecoded": true,
                    "operation": "DELEGATECALL",
                    "output": "",
                    "revert": false,
                    "revertMessage": "",
                    "selector": "0x2eb2c2d6",
                    "status": true,
                    "value": "0"
                },
                "nodeType": 0
            },
            "12": {
                "event": {
                    "contract": "0xa342f5d851e866e18ff98f351f2c6637f4478db5",
                    "decodedLog": {
                        "name": "TransferBatch",
                        "params": [
                            {
                                "name": "operator",
                                "type": "address",
                                "value": "0x3f1ec7a85d0ff1acabd5c7fd4a9f938c4158afe1"
                            },
                            {
                                "name": "from",
                                "type": "address",
                                "value": "0x3f1ec7a85d0ff1acabd5c7fd4a9f938c4158afe1"
                            },
                            {
                                "name": "to",
                                "type": "address",
                                "value": "0xe86efd9765c381530df2fe5d85f5ad4999e77c19"
                            },
                            {
                                "name": "ids",
                                "type": "uint256[]",
                                "value": []
                            },
                            {
                                "name": "values",
                                "type": "uint256[]",
                                "value": []
                            }
                        ],
                        "signature": "TransferBatch(address,address,address,uint256[],uint256[])"
                    },
                    "id": 12,
                    "logData": "0x0000000000000000000000000000000000000000000000000000000000000040000000000000000000000000000000000000000000000000000000000000006000000000000000000000000000000000000000000000000000000000000000000000000000000000000000000000000000000000000000000000000000000000",
                    "logDecoded": true,
                    "operation": "EVENT",
                    "revert": false,
                    "status": true,
                    "topics": [
                        "0x4a39dc06d4c0dbc64b70af90fd698a233a518aa5d07e595d983b8c0526c8f7fb",
                        "0x0000000000000000000000003f1ec7a85d0ff1acabd5c7fd4a9f938c4158afe1",
                        "0x0000000000000000000000003f1ec7a85d0ff1acabd5c7fd4a9f938c4158afe1",
                        "0x000000000000000000000000e86efd9765c381530df2fe5d85f5ad4999e77c19"
                    ]
                },
                "nodeType": 1
            },
            "2": {
                "invocation": {
                    "address": "0x3f1ec7a85d0ff1acabd5c7fd4a9f938c4158afe1",
                    "callData": "0x000000000000000000000000e86efd9765c381530df2fe5d85f5ad4999e77c19000000000000000000000000e86efd9765c381530df2fe5d85f5ad4999e77c19000000000000000000000000000000000000000000000000000000000000000000000000000000000000000000000000000000000000000000000000000000a800000000000000000000000000000000000000000000000000000000000001960000000000000000000000000000000000000000000000000000000000000001000000000000000000000000000000000000000000000036ce71877e0fec0000000000000000000000000000000000000000000000000036ce71877e0fec0000e5af8fc1bf9a3f329d53d825bf0b5e3ca39e61875630505da24c7d132e130903000000000000000000000000000000000000000000000000000000000000018000000000000000000000000000000000000000000000000000000000000001a000000000000000000000000000000000000000000000000000000000000003200000000000000000000000000000000000000000000000000000000000000000000000000000000000000000000000000000000000000000000000000000000be7c724a434cc1e53fb577bdcc458307350b2b46e69b24234cf918ba6579df90afca182039ebc7619172bbc58e5ddca70d67dec4c946d3371cbaa450ebe22be0880f70e38c036893f6b83d0ab8894e0405fa5f341bc967b8c79688f1f60fae58aac69964144af98455049551bd79acae84f84c9f634d09b4c8369d6e19fbb08a7e459edad31aecf2d5d8fb60de627ffc65eba6b9c600bdd7608c3a171a9bdcaa48087490d76d2f1368b593b5d6c1644573ac83656c8a4d05867c33a88a02043aa5e268990c2e8801a9e32d80bfc73413e5f12019dfaddf42606a3287c9775a2319b1aad4b9d34b9b361229221f876a67bcb1804fbe1f1a24782e72aa748c73a703b7be60bc772226960445964f7d05b6e83f3f1566dc83e82613ec0ac8ead386a94db0cfbcc7a583156f9913060d15bfac69a902185470faa0f8f7a68607694e83109f19ea96873e1dd5b7450536fd4d15cf1fb561622f8ca59add89d4acf16910000000000000000000000000000000000000000000000000000000000000000",
                    "decodedMethod": {
                        "callParams": [
                            {
                                "name": "buyer",
                                "type": "address",
                                "value": "0xe86efd9765c381530df2fe5d85f5ad4999e77c19"
                            },
                            {
                                "name": "to",
                                "type": "address",
                                "value": "0xe86efd9765c381530df2fe5d85f5ad4999e77c19"
                            },
                            {
                                "name": "reserved",
                                "type": "address",
                                "value": "0x0000000000000000000000000000000000000000"
                            },
                            {
                                "name": "x",
                                "type": "uint256",
                                "value": "168"
                            },
                            {
                                "name": "y",
                                "type": "uint256",
                                "value": "406"
                            },
                            {
                                "name": "size",
                                "type": "uint256",
                                "value": "1"
                            },
                            {
                                "name": "priceInSand",
                                "type": "uint256",
                                "value": "1,011,000,000,000,000,000,000"
                            },
                            {
                                "name": "adjustedPriceInSand",
                                "type": "uint256",
                                "value": "1,011,000,000,000,000,000,000"
                            },
                            {
                                "name": "salt",
                                "type": "bytes32",
                                "value": "0xe5af8fc1bf9a3f329d53d825bf0b5e3ca39e61875630505da24c7d132e130903"
                            },
                            {
                                "name": "assetIds",
                                "type": "uint256[]",
                                "value": []
                            },
                            {
                                "name": "proof",
                                "type": "bytes32[]",
                                "value": [
                                    "0xe7c724a434cc1e53fb577bdcc458307350b2b46e69b24234cf918ba6579df90a",
                                    "0xfca182039ebc7619172bbc58e5ddca70d67dec4c946d3371cbaa450ebe22be08",
                                    "0x80f70e38c036893f6b83d0ab8894e0405fa5f341bc967b8c79688f1f60fae58a",
                                    "0xac69964144af98455049551bd79acae84f84c9f634d09b4c8369d6e19fbb08a7",
                                    "0xe459edad31aecf2d5d8fb60de627ffc65eba6b9c600bdd7608c3a171a9bdcaa4",
                                    "0x8087490d76d2f1368b593b5d6c1644573ac83656c8a4d05867c33a88a02043aa",
                                    "0x5e268990c2e8801a9e32d80bfc73413e5f12019dfaddf42606a3287c9775a231",
                                    "0x9b1aad4b9d34b9b361229221f876a67bcb1804fbe1f1a24782e72aa748c73a70",
                                    "0x3b7be60bc772226960445964f7d05b6e83f3f1566dc83e82613ec0ac8ead386a",
                                    "0x94db0cfbcc7a583156f9913060d15bfac69a902185470faa0f8f7a68607694e8",
                                    "0x3109f19ea96873e1dd5b7450536fd4d15cf1fb561622f8ca59add89d4acf1691"
                                ]
                            },
                            {
                                "name": "referral",
                                "type": "bytes",
                                "value": "0x"
                            }
                        ],
                        "constructorArguments": "",
                        "name": "buyLandWithSand",
                        "returnParams": [],
                        "signature": "buyLandWithSand(address,address,address,uint256,uint256,uint256,uint256,uint256,bytes32,uint256[],bytes32[],bytes)"
                    },
                    "errorInfo": "",
                    "fromAddress": "0x3845badade8e6dff049820680d1f14bd3903a5d0",
                    "gasUsed": 105126,
                    "id": 2,
                    "methodDecoded": true,
                    "operation": "CALL",
                    "output": "",
                    "revert": false,
                    "revertMessage": "",
                    "selector": "0x8a12b82f",
                    "status": true,
                    "value": "0"
                },
                "nodeType": 0
            },
            "3": {
                "invocation": {
                    "address": "0x3845badade8e6dff049820680d1f14bd3903a5d0",
                    "callData": "0x000000000000000000000000e86efd9765c381530df2fe5d85f5ad4999e77c190000000000000000000000000eb04462d69b1d267d269377e34f60b9de1c8510000000000000000000000000000000000000000000000002bd85ad2cb3ff0000",
                    "decodedMethod": {
                        "callParams": [
                            {
                                "name": "from",
                                "type": "address",
                                "value": "0xe86efd9765c381530df2fe5d85f5ad4999e77c19"
                            },
                            {
                                "name": "to",
                                "type": "address",
                                "value": "0x0eb04462d69b1d267d269377e34f60b9de1c8510"
                            },
                            {
                                "decimalAvailable": true,
                                "name": "amount",
                                "type": "uint256",
                                "value": "50,550,000,000,000,000,000"
                            }
                        ],
                        "constructorArguments": "",
                        "name": "transferFrom",
                        "returnParams": [
                            {
                                "name": "success",
                                "type": "bool",
                                "value": true
                            }
                        ],
                        "signature": "transferFrom(address,address,uint256)"
                    },
                    "errorInfo": "",
                    "fromAddress": "0x3f1ec7a85d0ff1acabd5c7fd4a9f938c4158afe1",
                    "gasUsed": 15446,
                    "id": 3,
                    "methodDecoded": true,
                    "operation": "CALL",
                    "output": "0x0000000000000000000000000000000000000000000000000000000000000001",
                    "revert": false,
                    "revertMessage": "",
                    "selector": "0x23b872dd",
                    "status": true,
                    "value": "0"
                },
                "nodeType": 0
            },
            "4": {
                "event": {
                    "contract": "0x3845badade8e6dff049820680d1f14bd3903a5d0",
                    "decodedLog": {
                        "name": "Transfer",
                        "params": [
                            {
                                "name": "from",
                                "type": "address",
                                "value": "0xe86efd9765c381530df2fe5d85f5ad4999e77c19"
                            },
                            {
                                "name": "to",
                                "type": "address",
                                "value": "0x0eb04462d69b1d267d269377e34f60b9de1c8510"
                            },
                            {
                                "decimalAvailable": true,
                                "name": "value",
                                "type": "uint256",
                                "value": "50,550,000,000,000,000,000"
                            }
                        ],
                        "signature": "Transfer(address,address,uint256)"
                    },
                    "id": 4,
                    "logData": "0x000000000000000000000000000000000000000000000002bd85ad2cb3ff0000",
                    "logDecoded": true,
                    "operation": "EVENT",
                    "revert": false,
                    "status": true,
                    "topics": [
                        "0xddf252ad1be2c89b69c2b068fc378daa952ba7f163c4a11628f55a4df523b3ef",
                        "0x000000000000000000000000e86efd9765c381530df2fe5d85f5ad4999e77c19",
                        "0x0000000000000000000000000eb04462d69b1d267d269377e34f60b9de1c8510"
                    ]
                },
                "nodeType": 1
            },
            "5": {
                "invocation": {
                    "address": "0x3845badade8e6dff049820680d1f14bd3903a5d0",
                    "callData": "0x000000000000000000000000e86efd9765c381530df2fe5d85f5ad4999e77c190000000000000000000000004489590a116618b506f0efe885432f6a8ed998e900000000000000000000000000000000000000000000003410ebda515bed0000",
                    "decodedMethod": {
                        "callParams": [
                            {
                                "name": "from",
                                "type": "address",
                                "value": "0xe86efd9765c381530df2fe5d85f5ad4999e77c19"
                            },
                            {
                                "name": "to",
                                "type": "address",
                                "value": "0x4489590a116618b506f0efe885432f6a8ed998e9"
                            },
                            {
                                "decimalAvailable": true,
                                "name": "amount",
                                "type": "uint256",
                                "value": "960,450,000,000,000,000,000"
                            }
                        ],
                        "constructorArguments": "",
                        "name": "transferFrom",
                        "returnParams": [
                            {
                                "name": "success",
                                "type": "bool",
                                "value": true
                            }
                        ],
                        "signature": "transferFrom(address,address,uint256)"
                    },
                    "errorInfo": "",
                    "fromAddress": "0x3f1ec7a85d0ff1acabd5c7fd4a9f938c4158afe1",
                    "gasUsed": 8646,
                    "id": 5,
                    "methodDecoded": true,
                    "operation": "CALL",
                    "output": "0x0000000000000000000000000000000000000000000000000000000000000001",
                    "revert": false,
                    "revertMessage": "",
                    "selector": "0x23b872dd",
                    "status": true,
                    "value": "0"
                },
                "nodeType": 0
            },
            "6": {
                "event": {
                    "contract": "0x3845badade8e6dff049820680d1f14bd3903a5d0",
                    "decodedLog": {
                        "name": "Transfer",
                        "params": [
                            {
                                "name": "from",
                                "type": "address",
                                "value": "0xe86efd9765c381530df2fe5d85f5ad4999e77c19"
                            },
                            {
                                "name": "to",
                                "type": "address",
                                "value": "0x4489590a116618b506f0efe885432f6a8ed998e9"
                            },
                            {
                                "decimalAvailable": true,
                                "name": "value",
                                "type": "uint256",
                                "value": "960,450,000,000,000,000,000"
                            }
                        ],
                        "signature": "Transfer(address,address,uint256)"
                    },
                    "id": 6,
                    "logData": "0x00000000000000000000000000000000000000000000003410ebda515bed0000",
                    "logDecoded": true,
                    "operation": "EVENT",
                    "revert": false,
                    "status": true,
                    "topics": [
                        "0xddf252ad1be2c89b69c2b068fc378daa952ba7f163c4a11628f55a4df523b3ef",
                        "0x000000000000000000000000e86efd9765c381530df2fe5d85f5ad4999e77c19",
                        "0x0000000000000000000000004489590a116618b506f0efe885432f6a8ed998e9"
                    ]
                },
                "nodeType": 1
            },
            "7": {
                "invocation": {
                    "address": "0x50f5474724e0ee42d9a4e711ccfb275809fd6d4a",
                    "callData": "0x000000000000000000000000e86efd9765c381530df2fe5d85f5ad4999e77c19000000000000000000000000000000000000000000000000000000000000000100000000000000000000000000000000000000000000000000000000000000a8000000000000000000000000000000000000000000000000000000000000019600000000000000000000000000000000000000000000000000000000000000a000000000000000000000000000000000000000000000000000000000000000000000000000000000000000000000000000000000000000000000000000000000",
                    "decodedMethod": {
                        "callParams": [
                            {
                                "name": "to",
                                "type": "address",
                                "value": "0xe86efd9765c381530df2fe5d85f5ad4999e77c19"
                            },
                            {
                                "name": "size",
                                "type": "uint256",
                                "value": "1"
                            },
                            {
                                "name": "x",
                                "type": "uint256",
                                "value": "168"
                            },
                            {
                                "name": "y",
                                "type": "uint256",
                                "value": "406"
                            },
                            {
                                "name": "data",
                                "type": "bytes",
                                "value": "0x"
                            }
                        ],
                        "constructorArguments": "",
                        "name": "mintQuad",
                        "returnParams": [],
                        "signature": "mintQuad(address,uint256,uint256,uint256,bytes)"
                    },
                    "errorInfo": "",
                    "fromAddress": "0x3f1ec7a85d0ff1acabd5c7fd4a9f938c4158afe1",
                    "gasUsed": 42319,
                    "id": 7,
                    "methodDecoded": true,
                    "operation": "CALL",
                    "output": "",
                    "revert": false,
                    "revertMessage": "",
                    "selector": "0x6e1e3bbf",
                    "status": true,
                    "value": "0"
                },
                "nodeType": 0
            },
            "8": {
                "event": {
                    "contract": "0x50f5474724e0ee42d9a4e711ccfb275809fd6d4a",
                    "decodedLog": {
                        "name": "Transfer",
                        "params": [
                            {
                                "name": "_from",
                                "type": "address",
                                "value": "0x0000000000000000000000000000000000000000"
                            },
                            {
                                "name": "_to",
                                "type": "address",
                                "value": "0xe86efd9765c381530df2fe5d85f5ad4999e77c19"
                            },
                            {
                                "decimalAvailable": true,
                                "name": "_tokenId",
                                "type": "uint256",
                                "value": "165,816"
                            }
                        ],
                        "signature": "Transfer(address,address,uint256)"
                    },
                    "id": 8,
                    "logData": "0x",
                    "logDecoded": true,
                    "operation": "EVENT",
                    "revert": false,
                    "status": true,
                    "topics": [
                        "0xddf252ad1be2c89b69c2b068fc378daa952ba7f163c4a11628f55a4df523b3ef",
                        "0x0000000000000000000000000000000000000000000000000000000000000000",
                        "0x000000000000000000000000e86efd9765c381530df2fe5d85f5ad4999e77c19",
                        "0x00000000000000000000000000000000000000000000000000000000000287b8"
                    ]
                },
                "nodeType": 1
            },
            "9": {
                "event": {
                    "contract": "0x3f1ec7a85d0ff1acabd5c7fd4a9f938c4158afe1",
                    "decodedLog": {
                        "name": "LandQuadPurchased",
                        "params": [
                            {
                                "name": "buyer",
                                "type": "address",
                                "value": "0xe86efd9765c381530df2fe5d85f5ad4999e77c19"
                            },
                            {
                                "name": "to",
                                "type": "address",
                                "value": "0xe86efd9765c381530df2fe5d85f5ad4999e77c19"
                            },
                            {
                                "name": "topCornerId",
                                "type": "uint256",
                                "value": "165,816"
                            },
                            {
                                "name": "size",
                                "type": "uint256",
                                "value": "1"
                            },
                            {
                                "name": "price",
                                "type": "uint256",
                                "value": "1,011,000,000,000,000,000,000"
                            },
                            {
                                "name": "token",
                                "type": "address",
                                "value": "0x3845badade8e6dff049820680d1f14bd3903a5d0"
                            },
                            {
                                "name": "amountPaid",
                                "type": "uint256",
                                "value": "1,011,000,000,000,000,000,000"
                            }
                        ],
                        "signature": "LandQuadPurchased(address,address,uint256,uint256,uint256,address,uint256)"
                    },
                    "id": 9,
                    "logData": "0x0000000000000000000000000000000000000000000000000000000000000001000000000000000000000000000000000000000000000036ce71877e0fec00000000000000000000000000003845badade8e6dff049820680d1f14bd3903a5d0000000000000000000000000000000000000000000000036ce71877e0fec0000",
                    "logDecoded": true,
                    "operation": "EVENT",
                    "revert": false,
                    "status": true,
                    "topics": [
                        "0xe4dfa6ac11314892f3029b34a25b1a887da3b1cab2bbf8506d87128ba6e3ac02",
                        "0x000000000000000000000000e86efd9765c381530df2fe5d85f5ad4999e77c19",
                        "0x000000000000000000000000e86efd9765c381530df2fe5d85f5ad4999e77c19",
                        "0x00000000000000000000000000000000000000000000000000000000000287b8"
                    ]
                },
                "nodeType": 1
            }
        },
        "gasFlame": [
            {
                "children": [
                    {
                        "children": [
                            {
                                "children": [],
                                "depth": 0,
                                "name": "Initial Gas",
                                "value": 30828
                            },
                            {
                                "children": [
                                    {
                                        "children": [
                                            {
                                                "children": [],
                                                "depth": 2,
                                                "name": "transferFrom",
                                                "value": 15446
                                            },
                                            {
                                                "children": [],
                                                "depth": 2,
                                                "name": "transferFrom",
                                                "value": 8646
                                            },
                                            {
                                                "children": [],
                                                "depth": 2,
                                                "name": "mintQuad",
                                                "value": 42319
                                            },
                                            {
                                                "children": [
                                                    {
                                                        "children": [],
                                                        "depth": 3,
                                                        "name": "safeBatchTransferFrom",
                                                        "value": 7741
                                                    }
                                                ],
                                                "depth": 2,
                                                "name": "safeBatchTransferFrom",
                                                "value": 15059
                                            }
                                        ],
                                        "depth": 1,
                                        "name": "buyLandWithSand",
                                        "value": 105126
                                    }
                                ],
                                "depth": 0,
                                "name": "Executed Gas",
                                "value": 133432
                            }
                        ],
                        "depth": -1,
                        "name": "Actual Gas Used",
                        "value": 144360
                    },
                    {
                        "children": [],
                        "depth": -1,
                        "name": "Refunded Gas",
                        "value": 19900
                    }
                ],
                "depth": -2,
                "name": "Total Gas",
                "value": 164260
            }
        ],
        "isConfirmed": true,
        "mainTrace": [
            {
                "children": [
                    {
                        "children": [
                            {
                                "children": [],
                                "depth": 1,
                                "id": 1,
                                "order": 1
                            },
                            {
                                "children": [
                                    {
                                        "children": [
                                            {
                                                "children": [],
                                                "depth": 3,
                                                "id": 4,
                                                "order": 4
                                            }
                                        ],
                                        "depth": 2,
                                        "id": 3,
                                        "order": 3
                                    },
                                    {
                                        "children": [
                                            {
                                                "children": [],
                                                "depth": 3,
                                                "id": 6,
                                                "order": 6
                                            }
                                        ],
                                        "depth": 2,
                                        "id": 5,
                                        "order": 5
                                    },
                                    {
                                        "children": [
                                            {
                                                "children": [],
                                                "depth": 3,
                                                "id": 8,
                                                "order": 8
                                            }
                                        ],
                                        "depth": 2,
                                        "id": 7,
                                        "order": 7
                                    },
                                    {
                                        "children": [],
                                        "depth": 2,
                                        "id": 9,
                                        "order": 9
                                    },
                                    {
                                        "children": [
                                            {
                                                "children": [
                                                    {
                                                        "children": [],
                                                        "depth": 4,
                                                        "id": 12,
                                                        "order": 12
                                                    }
                                                ],
                                                "depth": 3,
                                                "id": 11,
                                                "order": 11
                                            }
                                        ],
                                        "depth": 2,
                                        "id": 10,
                                        "order": 10
                                    }
                                ],
                                "depth": 1,
                                "id": 2,
                                "order": 2
                            }
                        ],
                        "depth": 0,
                        "id": 0,
                        "order": 0
                    }
                ],
                "depth": -1,
                "id": -1,
                "order": -1
            }
        ],
        "mainTraceNodeCount": 13,
        "parentIdMap": {
            "0": -1,
            "1": 0,
            "10": 2,
            "11": 10,
            "12": 11,
            "2": 0,
            "3": 2,
            "4": 3,
            "5": 2,
            "6": 5,
            "7": 2,
            "8": 7,
            "9": 2
        },
        "tidyTrace": [
            {
                "children": [
                    {
                        "children": [
                            {
                                "children": [],
                                "depth": 1,
                                "id": 1,
                                "order": 1
                            },
                            {
                                "children": [
                                    {
                                        "children": [
                                            {
                                                "children": [],
                                                "depth": 3,
                                                "id": 4,
                                                "order": 4
                                            }
                                        ],
                                        "depth": 2,
                                        "id": 3,
                                        "order": 3
                                    },
                                    {
                                        "children": [
                                            {
                                                "children": [],
                                                "depth": 3,
                                                "id": 6,
                                                "order": 6
                                            }
                                        ],
                                        "depth": 2,
                                        "id": 5,
                                        "order": 5
                                    },
                                    {
                                        "children": [
                                            {
                                                "children": [],
                                                "depth": 3,
                                                "id": 8,
                                                "order": 8
                                            }
                                        ],
                                        "depth": 2,
                                        "id": 7,
                                        "order": 7
                                    },
                                    {
                                        "children": [],
                                        "depth": 2,
                                        "id": 9,
                                        "order": 9
                                    },
                                    {
                                        "children": [
                                            {
                                                "children": [
                                                    {
                                                        "children": [],
                                                        "depth": 4,
                                                        "id": 12,
                                                        "order": 12
                                                    }
                                                ],
                                                "depth": 3,
                                                "id": 11,
                                                "order": 11
                                            }
                                        ],
                                        "depth": 2,
                                        "id": 10,
                                        "order": 10
                                    }
                                ],
                                "depth": 1,
                                "id": 2,
                                "order": 2
                            }
                        ],
                        "depth": 0,
                        "id": 0,
                        "order": 0
                    }
                ],
                "depth": -1,
                "id": -1,
                "order": -1
            }
        ],
        "tidyTraceNodeCount": 13
    },
    "state_change": {
        "stateChanges": [
            {
                "address": "0x3845badade8e6dff049820680d1f14bd3903a5d0",
                "erc": "ERC-20",
                "slots": [
                    {
                        "current": "0x0000000000000000000000000000000000000000000000a4a64bf179cbb80046",
                        "key": "0xba384b3748479af83221fb4c6fde27c9704e5bc6e5726beccf94accf70467d31",
                        "prev": "0x0000000000000000000000000000000000000000000000db74bd78f7dba40046"
                    },
                    {
                        "current": "0x0000000000000000000000000000000000000000000140ff3e41fb3706f10000",
                        "key": "0x7653784039356768a8f81da57f26ce052245cfb18150c4689dca96bedc401134",
                        "prev": "0x0000000000000000000000000000000000000000000140fc80bc4e0a52f20000"
                    },
                    {
                        "current": "0x0000000000000000000000000000000000000000000932889aa04488622ca000",
                        "key": "0x1cae73788da1b4f58bd0b89e18200a685c4c9362c2ba03da5c55b4e64f1a53ed",
                        "prev": "0x00000000000000000000000000000000000000000009325489b46a37063fa000"
                    }
                ],
                "storageVariables": [
                    {
                        "name": "_balances",
                        "type": "mapping(address => uint256)",
                        "value": {
                            "pairs": [
                                {
                                    "key": "0x0eb04462d69b1d267d269377e34f60b9de1c8510",
                                    "value": {
                                        "current": "1515865680400000000000000",
                                        "prev": "1515815130400000000000000",
                                        "typeTag": 1
                                    }
                                },
                                {
                                    "key": "0x4489590a116618b506f0efe885432f6a8ed998e9",
                                    "value": {
                                        "current": "11118970599850000000000000",
                                        "prev": "11118010149850000000000000",
                                        "typeTag": 1
                                    }
                                },
                                {
                                    "key": "0xe86efd9765c381530df2fe5d85f5ad4999e77c19",
                                    "value": {
                                        "current": "3037248964827326971974",
                                        "prev": "4048248964827326971974",
                                        "typeTag": 1
                                    }
                                }
                            ],
                            "typeTag": 4
                        }
                    }
                ]
            },
            {
                "address": "0x50f5474724e0ee42d9a4e711ccfb275809fd6d4a",
                "erc": "ERC-721",
                "slots": [
                    {
                        "current": "0x000000000000000000000000e86efd9765c381530df2fe5d85f5ad4999e77c19",
                        "key": "0xef2e481a0707c9115521dea680b54f1f83eea5427cf31c5d7133240b6cb6249c",
                        "prev": "0x0000000000000000000000000000000000000000000000000000000000000000"
                    },
                    {
                        "current": "0x0000000000000000000000000000000000000000000000000000000000000002",
                        "key": "0x81aaca2d115c3109a18d9007a26743379f7d1d2eacdad0362e269be8fe50d856",
                        "prev": "0x0000000000000000000000000000000000000000000000000000000000000001"
                    }
                ],
                "storageVariables": [
                    {
                        "name": "_owners",
                        "type": "mapping(uint256 => uint256)",
                        "value": {
                            "pairs": [
                                {
                                    "key": "165816",
                                    "value": {
                                        "current": "1326961031729214427044552108157846224427981175833",
                                        "prev": "0",
                                        "typeTag": 1
                                    }
                                }
                            ],
                            "typeTag": 4
                        }
                    },
                    {
                        "name": "_numNFTPerAddress",
                        "type": "mapping(address => uint256)",
                        "value": {
                            "pairs": [
                                {
                                    "key": "0xe86efd9765c381530df2fe5d85f5ad4999e77c19",
                                    "value": {
                                        "current": "2",
                                        "prev": "1",
                                        "typeTag": 1
                                    }
                                }
                            ],
                            "typeTag": 4
                        }
                    }
                ]
            }
        ]
    }
}