{
    "balance_change": {
        "balanceChanges": [
            {
                "account": "0x32a68c493793566d4a6d5a03ca417c78deb6c482",
                "assets": [
                    {
                        "address": "0x66d592cc979d441a3e4dbb6e043c3bdad241dab7",
                        "amount": "1",
                        "iconUrl": "",
                        "isERC1155": false,
                        "isERC721": false,
                        "sign": true,
                        "value": "6.18432812"
                    }
                ]
            },
            {
                "account": "0x0000000000000000000000000000000000000000",
                "assets": [
                    {
                        "address": "0x66d592cc979d441a3e4dbb6e043c3bdad241dab7",
                        "amount": "1",
                        "iconUrl": "",
                        "isERC1155": false,
                        "isERC721": false,
                        "sign": false,
                        "value": "6.18432812"
                    }
                ]
            }
        ]
    },
    "profile": {
        "basic_info": {
            "baseFee": "15.4063994",
            "blockNumber": 14853996,
            "callData": "0x09c8d17399ee9c4ab0051190e849b7d39ca9859757698a87e4abb6d36f9a78fdd844abf9000000000000000000000000000000000000000000000000000000000000001b89e47595184beecb3fd7d530b6f5ea9002ec72c94b6845faca50f0ee666db4713975e5bf24f1743304f9681e1f2a602fae7e39e272882bc1c21475b796279930",
            "debugEnable": true,
            "errorInfo": "",
            "eventCount": 2,
            "feeRecipient": "0x7f101fe45e6649a6fb8f3f8b43ed03d353f2b90c",
            "formatValue": "0",
            "gasLimit": 107245,
            "gasPrice": "16.9063994",
            "gasUsed": 107245,
            "intTxnCount": 1,
            "internalRevert": false,
            "internalRevertMessage": "",
            "isContractCreation": false,
            "isFlashloan": false,
            "maxFee": "29.706351312",
            "nonce": 5,
            "overwritedBlockNumber": -1,
            "priorityFee": "1.5",
            "receiver": "0x66d592cc979d441a3e4dbb6e043c3bdad241dab7",
            "revertMessage": "",
            "sender": "0x32a68c493793566d4a6d5a03ca417c78deb6c482",
            "simulationEnable": true,
            "sourceTxnHash": "0xf4e8197df927a36f9c56109c7973ef1e875740b38b104da5e6906db20c0c4f74",
            "status": true,
            "timestamp": "2022-05-27T11:47:58Z",
            "transactionFee": "0.001813126803653",
            "txnHash": "0xf4e8197df927a36f9c56109c7973ef1e875740b38b104da5e6906db20c0c4f74",
            "txnIndex": 137,
            "type": 2,
            "value": "0"
        },
        "fund_flow": [
            {
                "amount": "1",
                "from": "0x0000000000000000000000000000000000000000",
                "id": 1,
                "isERC1155": false,
                "isERC721": false,
                "isReverted": false,
                "order": 1,
                "to": "0x32a68c493793566d4a6d5a03ca417c78deb6c482",
                "token": "0x66d592cc979d441a3e4dbb6e043c3bdad241dab7"
            }
        ],
        "token_infos": [
            {
                "address": "0x66d592cc979d441a3e4dbb6e043c3bdad241dab7",
                "decimals": 18
            },
            {
                "address": "0xc02aaa39b223fe8d0a0e5c4f27ead9083c756cc2",
                "decimals": 18
            },
            {
                "address": "0xeeeeeeeeeeeeeeeeeeeeeeeeeeeeeeeeeeeeeeee",
                "decimals": 18
            }
        ]
    },
    "address_label": {
        "labels": [
            {
                "address": "0x66d592cc979d441a3e4dbb6e043c3bdad241dab7",
                "label": "Zero Money (ZERO)"
            },
            {
                "address": "0x0000000000000000000000000000000000000001",
                "label": "Precompiled"
            },
            {
                "address": "0x0000000000000000000000000000000000000002",
                "label": "Precompiled"
            },
            {
                "address": "0x0000000000000000000000000000000000000003",
                "label": "Precompiled"
            },
            {
                "address": "0x0000000000000000000000000000000000000004",
                "label": "Precompiled"
            },
            {
                "address": "0xeeeeeeeeeeeeeeeeeeeeeeeeeeeeeeeeeeeeeeee",
                "label": "Ether"
            }
        ]
    },
    "trace": {
        "accountLabels": null,
        "dataMap": {
            "-1": {
                "invocation": {
                    "address": "0x32a68c493793566d4a6d5a03ca417c78deb6c482",
                    "callData": "",
                    "decodedMethod": null,
                    "errorInfo": "",
                    "fromAddress": "",
                    "gasUsed": 0,
                    "id": -1,
                    "methodDecoded": false,
                    "operation": "",
                    "output": "",
                    "revert": false,
                    "revertMessage": "",
                    "selector": "",
                    "status": false,
                    "value": ""
                },
                "nodeType": 0
            },
            "0": {
                "invocation": {
                    "address": "0x66d592cc979d441a3e4dbb6e043c3bdad241dab7",
                    "callData": "0x99ee9c4ab0051190e849b7d39ca9859757698a87e4abb6d36f9a78fdd844abf9000000000000000000000000000000000000000000000000000000000000001b89e47595184beecb3fd7d530b6f5ea9002ec72c94b6845faca50f0ee666db4713975e5bf24f1743304f9681e1f2a602fae7e39e272882bc1c21475b796279930",
                    "decodedMethod": {
                        "callParams": [
                            {
                                "name": "id",
                                "type": "bytes32",
                                "value": "0x99ee9c4ab0051190e849b7d39ca9859757698a87e4abb6d36f9a78fdd844abf9"
                            },
                            {
                                "name": "v",
                                "type": "uint8",
                                "value": "27"
                            },
                            {
                                "name": "r",
                                "type": "bytes32",
                                "value": "0x89e47595184beecb3fd7d530b6f5ea9002ec72c94b6845faca50f0ee666db471"
                            },
                            {
                                "name": "s",
                                "type": "bytes32",
                                "value": "0x3975e5bf24f1743304f9681e1f2a602fae7e39e272882bc1c21475b796279930"
                            }
                        ],
                        "constructorArguments": "",
                        "name": "claim",
                        "returnParams": [],
                        "signature": "claim(bytes32,uint8,bytes32,bytes32)"
                    },
                    "errorInfo": "",
                    "fromAddress": "0x32a68c493793566d4a6d5a03ca417c78deb6c482",
                    "gasUsed": 107245,
                    "id": 0,
                    "methodDecoded": true,
                    "operation": "CALL",
                    "output": "",
                    "revert": false,
                    "revertMessage": "",
                    "selector": "0x09c8d173",
                    "status": true,
                    "value": "0"
                },
                "nodeType": 0
            },
            "1": {
                "invocation": {
                    "address": "0x0000000000000000000000000000000000000001",
                    "callData": "0xb0e84400ba778c22d661a2e77d1e043c4ec726fccd70a5d02c38b0aa000000000000000000000000000000000000000000000000000000000000001b89e47595184beecb3fd7d530b6f5ea9002ec72c94b6845faca50f0ee666db4713975e5bf24f1743304f9681e1f2a602fae7e39e272882bc1c21475b796279930",
                    "decodedMethod": {
                        "callParams": [
                            {
                                "name": "hash",
                                "type": "bytes32",
                                "value": "0x754499bab0e84400ba778c22d661a2e77d1e043c4ec726fccd70a5d02c38b0aa"
                            },
                            {
                                "name": "v",
                                "type": "uint256",
                                "value": "27"
                            },
                            {
                                "name": "r",
                                "type": "bytes32",
                                "value": "0x89e47595184beecb3fd7d530b6f5ea9002ec72c94b6845faca50f0ee666db471"
                            },
                            {
                                "name": "s",
                                "type": "bytes32",
                                "value": "0x3975e5bf24f1743304f9681e1f2a602fae7e39e272882bc1c21475b796279930"
                            }
                        ],
                        "constructorArguments": "",
                        "name": "ecrecover",
                        "returnParams": [
                            {
                                "name": "",
                                "type": "address",
                                "value": "0xe9d4afb6f8c9196972c6d9a74d5e54bbb7721f5b"
                            }
                        ],
                        "signature": "ecrecover(bytes32,uint256,bytes32,bytes32)"
                    },
                    "errorInfo": "",
                    "fromAddress": "0x66d592cc979d441a3e4dbb6e043c3bdad241dab7",
                    "gasUsed": 3000,
                    "id": 1,
                    "methodDecoded": true,
                    "operation": "STATICCALL",
                    "output": "0x000000000000000000000000e9d4afb6f8c9196972c6d9a74d5e54bbb7721f5b",
                    "revert": false,
                    "revertMessage": "",
                    "selector": "0x754499ba",
                    "status": true,
                    "value": "0"
                },
                "nodeType": 0
            },
            "2": {
                "event": {
                    "contract": "0x66d592cc979d441a3e4dbb6e043c3bdad241dab7",
                    "decodedLog": {
                        "name": "Transfer",
                        "params": [
                            {
                                "name": "from",
                                "type": "address",
                                "value": "0x0000000000000000000000000000000000000000"
                            },
                            {
                                "name": "to",
                                "type": "address",
                                "value": "0x32a68c493793566d4a6d5a03ca417c78deb6c482"
                            },
                            {
                                "decimalAvailable": true,
                                "name": "value",
                                "type": "uint256",
                                "value": "1,000,000,000,000,000,000"
                            }
                        ],
                        "signature": "Transfer(address,address,uint256)"
                    },
                    "id": 2,
                    "logData": "0x0000000000000000000000000000000000000000000000000de0b6b3a7640000",
                    "logDecoded": true,
                    "operation": "EVENT",
                    "revert": false,
                    "status": true,
                    "topics": [
                        "0xddf252ad1be2c89b69c2b068fc378daa952ba7f163c4a11628f55a4df523b3ef",
                        "0x0000000000000000000000000000000000000000000000000000000000000000",
                        "0x00000000000000000000000032a68c493793566d4a6d5a03ca417c78deb6c482"
                    ]
                },
                "nodeType": 1
            },
            "3": {
                "event": {
                    "contract": "0x66d592cc979d441a3e4dbb6e043c3bdad241dab7",
                    "decodedLog": {
                        "name": "Claim",
                        "params": [
                            {
                                "name": "id",
                                "type": "bytes32",
                                "value": "0x99ee9c4ab0051190e849b7d39ca9859757698a87e4abb6d36f9a78fdd844abf9"
                            },
                            {
                                "name": "to",
                                "type": "address",
                                "value": "0x32a68c493793566d4a6d5a03ca417c78deb6c482"
                            }
                        ],
                        "signature": "Claim(bytes32,address)"
                    },
                    "id": 3,
                    "logData": "0x",
                    "logDecoded": true,
                    "operation": "EVENT",
                    "revert": false,
                    "status": true,
                    "topics": [
                        "0x15d625b4b35864ffb5bdbb3fc4b62ceb07b3c588af6945a1934ccb822a239755",
                        "0x99ee9c4ab0051190e849b7d39ca9859757698a87e4abb6d36f9a78fdd844abf9",
                        "0x00000000000000000000000032a68c493793566d4a6d5a03ca417c78deb6c482"
                    ]
                },
                "nodeType": 1
            }
        },
        "gasFlame": [
            {
                "children": [
                    {
                        "children": [
                            {
                                "children": [],
                                "depth": 0,
                                "name": "Initial Gas",
                                "value": 22740
                            },
                            {
                                "children": [
                                    {
                                        "children": [],
                                        "depth": 1,
                                        "name": "ecrecover",
                                        "value": 3000
                                    }
                                ],
                                "depth": 0,
                                "name": "Executed Gas",
                                "value": 84505
                            }
                        ],
                        "depth": -1,
                        "name": "Actual Gas Used",
                        "value": 107245
                    },
                    {
                        "children": [],
                        "depth": -1,
                        "name": "Refunded Gas",
                        "value": 0
                    }
                ],
                "depth": -2,
                "name": "Total Gas",
                "value": 107245
            }
        ],
        "isConfirmed": true,
        "mainTrace": [
            {
                "children": [
                    {
                        "children": [
                            {
                                "children": [],
                                "depth": 1,
                                "id": 1,
                                "order": 1
                            },
                            {
                                "children": [],
                                "depth": 1,
                                "id": 2,
                                "order": 2
                            },
                            {
                                "children": [],
                                "depth": 1,
                                "id": 3,
                                "order": 3
                            }
                        ],
                        "depth": 0,
                        "id": 0,
                        "order": 0
                    }
                ],
                "depth": -1,
                "id": -1,
                "order": -1
            }
        ],
        "mainTraceNodeCount": 4,
        "parentIdMap": {
            "0": -1,
            "1": 0,
            "2": 0,
            "3": 0
        },
        "tidyTrace": [
            {
                "children": [
                    {
                        "children": [
                            {
                                "children": [],
                                "depth": 1,
                                "id": 2,
                                "order": 2
                            },
                            {
                                "children": [],
                                "depth": 1,
                                "id": 3,
                                "order": 3
                            }
                        ],
                        "depth": 0,
                        "id": 0,
                        "order": 0
                    }
                ],
                "depth": -1,
                "id": -1,
                "order": -1
            }
        ],
        "tidyTraceNodeCount": 3
    },
    "state_change": {
        "stateChanges": [
            {
                "address": "0x66d592cc979d441a3e4dbb6e043c3bdad241dab7",
                "erc": "ERC-20",
                "slots": [
                    {
                        "current": "0x0000000000000000000000000000000000000000000000000000000000000001",
                        "key": "0x114928212db9ea59608187eee0c9ac3c4f8e7a5d6bcfdcbe523baf5c769fb646",
                        "prev": "0x0000000000000000000000000000000000000000000000000000000000000000"
                    },
                    {
                        "current": "0x000000000000000000000000000000000000000000000052b3e640c07aa6270d",
                        "key": "0x0000000000000000000000000000000000000000000000000000000000000002",
                        "prev": "0x000000000000000000000000000000000000000000000052a6058a0cd342270d"
                    },
                    {
                        "current": "0x0000000000000000000000000000000000000000000000000de0b6b3a7640000",
                        "key": "0x9173c4907ad800793d4f41a29438db7d78d65d6df7036bcedf0f8608520ede3d",
                        "prev": "0x0000000000000000000000000000000000000000000000000000000000000000"
                    },
                    {
                        "current": "0xffffffffffffffffff262be318bbe8dbf64e11bf4d43f74b348cf122ce8c0000",
                        "key": "0xc1ebccd90aa35769b269bc981a69dd0ba702d44cb1d86b4eb8fc3102fe83155f",
                        "prev": "0x0000000000000000000000000000000000000000000000000000000000000000"
                    }
                ],
                "storageVariables": [
                    {
                        "name": "_claimed",
                        "type": "mapping(bytes32 => bool)",
                        "value": {
                            "pairs": [
                                {
                                    "key": "0x99ee9c4ab0051190e849b7d39ca9859757698a87e4abb6d36f9a78fdd844abf9",
                                    "value": {
                                        "current": "true",
                                        "prev": "false",
                                        "typeTag": 1
                                    }
                                }
                            ],
                            "typeTag": 4
                        }
                    },
                    {
                        "name": "_totalSupply",
                        "type": "uint256",
                        "value": {
                            "current": "1525596133817051391757",
                            "prev": "1524596133817051391757",
                            "typeTag": 1
                        }
                    },
                    {
                        "name": "_balances",
                        "type": "mapping(address => uint256)",
                        "value": {
                            "pairs": [
                                {
                                    "key": "0x32a68c493793566d4a6d5a03ca417c78deb6c482",
                                    "value": {
                                        "current": "1000000000000000000",
                                        "prev": "0",
                                        "typeTag": 1
                                    }
                                }
                            ],
                            "typeTag": 4
                        }
                    },
                    {
                        "name": "magnifiedDividendCorrections",
                        "type": "mapping(address => int256)",
                        "value": {
                            "pairs": [
                                {
                                    "key": "0x32a68c493793566d4a6d5a03ca417c78deb6c482",
                                    "value": {
                                        "current": "-20863831632196020249379114598509412389000000000000000000",
                                        "prev": "0",
                                        "typeTag": 1
                                    }
                                }
                            ],
                            "typeTag": 4
                        }
                    }
                ]
            }
        ]
    }
}