{
    "balance_change": {
        "balanceChanges": [
            {
                "account": "0x33d4492c3918fb87860872674fe6a7e7764cfcff",
                "assets": [
                    {
                        "address": "0x6c3be406174349cfa4501654313d97e6a31072e1",
                        "amount": "133",
                        "iconUrl": "",
                        "isERC1155": false,
                        "isERC721": false,
                        "sign": false,
                        "value": ""
                    }
                ]
            },
            {
                "account": "0x99fe5d6383289cdd56e54fc0baf7f67c957a8888",
                "assets": [
                    {
                        "address": "0x6c3be406174349cfa4501654313d97e6a31072e1",
                        "amount": "133",
                        "iconUrl": "",
                        "isERC1155": false,
                        "isERC721": false,
                        "sign": true,
                        "value": ""
                    }
                ]
            }
        ]
    },
    "profile": {
        "basic_info": {
            "baseFee": "",
            "blockNumber": 7641353,
            "callData": "0xa9059cbb00000000000000000000000099fe5d6383289cdd56e54fc0baf7f67c957a888800000000000000000000000000000000000000000000000735beeb55f6f40000",
            "debugEnable": true,
            "errorInfo": "",
            "eventCount": 1,
            "feeRecipient": "0x52bc44d5378309ee2abf1539bf71de1b7d7be3b5",
            "formatValue": "0",
            "gasLimit": 66666,
            "gasPrice": "66",
            "gasUsed": 22855,
            "intTxnCount": 0,
            "internalRevert": false,
            "internalRevertMessage": "",
            "isContractCreation": false,
            "isFlashloan": false,
            "maxFee": "",
            "nonce": 0,
            "overwritedBlockNumber": -1,
            "priorityFee": "",
            "receiver": "0x6c3be406174349cfa4501654313d97e6a31072e1",
            "revertMessage": "",
            "sender": "0x33d4492c3918fb87860872674fe6a7e7764cfcff",
            "simulationEnable": true,
            "sourceTxnHash": "0xf496475cde2aba4ad19bfbb0a8ec98e6118f631103617725cb68de267560a4ef",
            "status": true,
            "timestamp": "2019-04-26T06:21:18Z",
            "transactionFee": "0.00150843",
            "txnHash": "0xf496475cde2aba4ad19bfbb0a8ec98e6118f631103617725cb68de267560a4ef",
            "txnIndex": 1,
            "type": 0,
            "value": "0"
        },
        "fund_flow": [
            {
                "amount": "133",
                "from": "0x33d4492c3918fb87860872674fe6a7e7764cfcff",
                "id": 1,
                "isERC1155": false,
                "isERC721": false,
                "isReverted": false,
                "order": 1,
                "to": "0x99fe5d6383289cdd56e54fc0baf7f67c957a8888",
                "token": "0x6c3be406174349cfa4501654313d97e6a31072e1"
            }
        ],
        "token_infos": [
            {
                "address": "0x6c3be406174349cfa4501654313d97e6a31072e1",
                "decimals": 18
            },
            {
                "address": "0xc02aaa39b223fe8d0a0e5c4f27ead9083c756cc2",
                "decimals": 18
            },
            {
                "address": "0xeeeeeeeeeeeeeeeeeeeeeeeeeeeeeeeeeeeeeeee",
                "decimals": 18
            }
        ]
    },
    "address_label": {
        "labels": [
            {
                "address": "0x0000000000000000000000000000000000000001",
                "label": "Precompiled"
            },
            {
                "address": "0x0000000000000000000000000000000000000002",
                "label": "Precompiled"
            },
            {
                "address": "0x0000000000000000000000000000000000000003",
                "label": "Precompiled"
            },
            {
                "address": "0x0000000000000000000000000000000000000004",
                "label": "Precompiled"
            },
            {
                "address": "0xeeeeeeeeeeeeeeeeeeeeeeeeeeeeeeeeeeeeeeee",
                "label": "Ether"
            },
            {
                "address": "0x99fe5d6383289cdd56e54fc0baf7f67c957a8888",
                "label": "HTX 42"
            },
            {
                "address": "0x6c3be406174349cfa4501654313d97e6a31072e1",
                "label": "Crypto Neo-value Neural System: CNNS Token"
            }
        ]
    },
    "trace": {
        "accountLabels": null,
        "dataMap": {
            "-1": {
                "invocation": {
                    "address": "0x33d4492c3918fb87860872674fe6a7e7764cfcff",
                    "callData": "",
                    "decodedMethod": null,
                    "errorInfo": "",
                    "fromAddress": "",
                    "gasUsed": 0,
                    "id": -1,
                    "methodDecoded": false,
                    "operation": "",
                    "output": "",
                    "revert": false,
                    "revertMessage": "",
                    "selector": "",
                    "status": false,
                    "value": ""
                },
                "nodeType": 0
            },
            "0": {
                "invocation": {
                    "address": "0x6c3be406174349cfa4501654313d97e6a31072e1",
                    "callData": "0x00000000000000000000000099fe5d6383289cdd56e54fc0baf7f67c957a888800000000000000000000000000000000000000000000000735beeb55f6f40000",
                    "decodedMethod": {
                        "callParams": [
                            {
                                "name": "_to",
                                "type": "address",
                                "value": "0x99fe5d6383289cdd56e54fc0baf7f67c957a8888"
                            },
                            {
                                "decimalAvailable": true,
                                "name": "_value",
                                "type": "uint256",
                                "value": "133,000,000,000,000,000,000"
                            }
                        ],
                        "constructorArguments": "",
                        "name": "transfer",
                        "returnParams": [
                            {
                                "name": "success",
                                "type": "bool",
                                "value": true
                            }
                        ],
                        "signature": "transfer(address,uint256)"
                    },
                    "errorInfo": "",
                    "fromAddress": "0x33d4492c3918fb87860872674fe6a7e7764cfcff",
                    "gasUsed": 22855,
                    "id": 0,
                    "methodDecoded": true,
                    "operation": "CALL",
                    "output": "0x0000000000000000000000000000000000000000000000000000000000000001",
                    "revert": false,
                    "revertMessage": "",
                    "selector": "0xa9059cbb",
                    "status": true,
                    "value": "0"
                },
                "nodeType": 0
            },
            "1": {
                "event": {
                    "contract": "0x6c3be406174349cfa4501654313d97e6a31072e1",
                    "decodedLog": {
                        "name": "Transfer",
                        "params": [
                            {
                                "name": "from",
                                "type": "address",
                                "value": "0x33d4492c3918fb87860872674fe6a7e7764cfcff"
                            },
                            {
                                "name": "to",
                                "type": "address",
                                "value": "0x99fe5d6383289cdd56e54fc0baf7f67c957a8888"
                            },
                            {
                                "decimalAvailable": true,
                                "name": "value",
                                "type": "uint256",
                                "value": "133,000,000,000,000,000,000"
                            }
                        ],
                        "signature": "Transfer(address,address,uint256)"
                    },
                    "id": 1,
                    "logData": "0x00000000000000000000000000000000000000000000000735beeb55f6f40000",
                    "logDecoded": true,
                    "operation": "EVENT",
                    "revert": false,
                    "status": true,
                    "topics": [
                        "0xddf252ad1be2c89b69c2b068fc378daa952ba7f163c4a11628f55a4df523b3ef",
                        "0x00000000000000000000000033d4492c3918fb87860872674fe6a7e7764cfcff",
                        "0x00000000000000000000000099fe5d6383289cdd56e54fc0baf7f67c957a8888"
                    ]
                },
                "nodeType": 1
            }
        },
        "gasFlame": [
            {
                "children": [
                    {
                        "children": [
                            {
                                "children": [],
                                "depth": 0,
                                "name": "Initial Gas",
                                "value": 23256
                            },
                            {
                                "children": [],
                                "depth": 0,
                                "name": "Executed Gas",
                                "value": 14599
                            }
                        ],
                        "depth": -1,
                        "name": "Actual Gas Used",
                        "value": 22855
                    },
                    {
                        "children": [],
                        "depth": -1,
                        "name": "Refunded Gas",
                        "value": 15000
                    }
                ],
                "depth": -2,
                "name": "Total Gas",
                "value": 37855
            }
        ],
        "isConfirmed": true,
        "mainTrace": [
            {
                "children": [
                    {
                        "children": [
                            {
                                "children": [],
                                "depth": 1,
                                "id": 1,
                                "order": 1
                            }
                        ],
                        "depth": 0,
                        "id": 0,
                        "order": 0
                    }
                ],
                "depth": -1,
                "id": -1,
                "order": -1
            }
        ],
        "mainTraceNodeCount": 2,
        "parentIdMap": {
            "0": -1,
            "1": 0
        },
        "tidyTrace": [
            {
                "children": [
                    {
                        "children": [
                            {
                                "children": [],
                                "depth": 1,
                                "id": 1,
                                "order": 1
                            }
                        ],
                        "depth": 0,
                        "id": 0,
                        "order": 0
                    }
                ],
                "depth": -1,
                "id": -1,
                "order": -1
            }
        ],
        "tidyTraceNodeCount": 2
    },
    "state_change": {
        "stateChanges": [
            {
                "address": "0x6c3be406174349cfa4501654313d97e6a31072e1",
                "erc": "ERC-20",
                "slots": [
                    {
                        "current": "0x0000000000000000000000000000000000000000000000000000000000000000",
                        "key": "0x49ab3142ab85ebc4a3a43fb2f156bb4ac9cf97e3ea4a3b3240e250afcc80cffc",
                        "prev": "0x00000000000000000000000000000000000000000000000735beeb55f6f40000"
                    },
                    {
                        "current": "0x00000000000000000000000000000000000000000002671f03e8ae2c941fdc40",
                        "key": "0xc8b885988f751db545d00d449fe0aa331f983ef96434f2448cb9c92fed7022f3",
                        "prev": "0x000000000000000000000000000000000000000000026717ce29c2d69d2bdc40"
                    }
                ],
                "storageVariables": [
                    {
                        "name": "balanceOf",
                        "type": "mapping(address => uint256)",
                        "value": {
                            "pairs": [
                                {
                                    "key": "0x33d4492c3918fb87860872674fe6a7e7764cfcff",
                                    "value": {
                                        "current": "0",
                                        "prev": "133000000000000000000",
                                        "typeTag": 1
                                    }
                                },
                                {
                                    "key": "0x99fe5d6383289cdd56e54fc0baf7f67c957a8888",
                                    "value": {
                                        "current": "2904827517697600000089152",
                                        "prev": "2904694517697600000089152",
                                        "typeTag": 1
                                    }
                                }
                            ],
                            "typeTag": 4
                        }
                    }
                ]
            }
        ]
    }
}