{
    "balance_change": {
        "balanceChanges": [
            {
                "account": "0xed422188686b2017b52fc3b2299e9bcae5c286f6",
                "assets": [
                    {
                        "address": "0xeeeeeeeeeeeeeeeeeeeeeeeeeeeeeeeeeeeeeeee",
                        "amount": "2",
                        "iconUrl": "https://assets.blocksec.com/image/1663669189317-3.png",
                        "isERC1155": false,
                        "isERC721": false,
                        "sign": true,
                        "value": ""
                    },
                    {
                        "address": "0xa821f14fb6394e82839f5161f214cacc90372453",
                        "amount": "20",
                        "iconUrl": "",
                        "isERC1155": false,
                        "isERC721": false,
                        "sign": false,
                        "value": ""
                    }
                ]
            },
            {
                "account": "0x34848f3c3934733d3ebc6f82489346592566c777",
                "assets": [
                    {
                        "address": "0xeeeeeeeeeeeeeeeeeeeeeeeeeeeeeeeeeeeeeeee",
                        "amount": "2",
                        "iconUrl": "https://assets.blocksec.com/image/1663669189317-3.png",
                        "isERC1155": false,
                        "isERC721": false,
                        "sign": false,
                        "value": ""
                    },
                    {
                        "address": "0xa821f14fb6394e82839f5161f214cacc90372453",
                        "amount": "20",
                        "iconUrl": "",
                        "isERC1155": false,
                        "isERC721": false,
                        "sign": true,
                        "value": ""
                    }
                ]
            }
        ]
    },
    "profile": {
        "basic_info": {
            "baseFee": "",
            "blockNumber": 9236301,
            "callData": "0x715d0e330000000000000000000000000000000000000000000000000000000000000002000000000000000000000000ed422188686b2017b52fc3b2299e9bcae5c286f6",
            "debugEnable": true,
            "errorInfo": "",
            "eventCount": 1,
            "feeRecipient": "0x97c7e57edefef758896cd9b309d57cdaca544215",
            "formatValue": "0",
            "gasLimit": 83181,
            "gasPrice": "1",
            "gasUsed": 73181,
            "intTxnCount": 2,
            "internalRevert": false,
            "internalRevertMessage": "",
            "isContractCreation": false,
            "isFlashloan": false,
            "maxFee": "",
            "nonce": 13,
            "overwritedBlockNumber": -1,
            "priorityFee": "",
            "receiver": "0x34848f3c3934733d3ebc6f82489346592566c777",
            "revertMessage": "",
            "sender": "0xed422188686b2017b52fc3b2299e9bcae5c286f6",
            "simulationEnable": true,
            "sourceTxnHash": "0xf48444d240d50930c38504caa2e4fa7bb0e048d568cda759ce2060154fd65d4e",
            "status": true,
            "timestamp": "2020-01-07T22:46:41Z",
            "transactionFee": "0.000073181",
            "txnHash": "0xf48444d240d50930c38504caa2e4fa7bb0e048d568cda759ce2060154fd65d4e",
            "txnIndex": 90,
            "type": 0,
            "value": "0"
        },
        "fund_flow": [
            {
                "amount": "2",
                "from": "0x34848f3c3934733d3ebc6f82489346592566c777",
                "id": 1,
                "isERC1155": false,
                "isERC721": false,
                "isReverted": false,
                "order": 1,
                "to": "0xed422188686b2017b52fc3b2299e9bcae5c286f6",
                "token": "0xeeeeeeeeeeeeeeeeeeeeeeeeeeeeeeeeeeeeeeee"
            },
            {
                "amount": "20",
                "from": "0xed422188686b2017b52fc3b2299e9bcae5c286f6",
                "id": 2,
                "isERC1155": false,
                "isERC721": false,
                "isReverted": false,
                "order": 2,
                "to": "0x34848f3c3934733d3ebc6f82489346592566c777",
                "token": "0xa821f14fb6394e82839f5161f214cacc90372453"
            }
        ],
        "token_infos": [
            {
                "address": "0xa821f14fb6394e82839f5161f214cacc90372453",
                "decimals": 18
            },
            {
                "address": "0xc02aaa39b223fe8d0a0e5c4f27ead9083c756cc2",
                "decimals": 18
            },
            {
                "address": "0xeeeeeeeeeeeeeeeeeeeeeeeeeeeeeeeeeeeeeeee",
                "decimals": 18
            }
        ]
    },
    "address_label": {
        "labels": [
            {
                "address": "0xeeeeeeeeeeeeeeeeeeeeeeeeeeeeeeeeeeeeeeee",
                "label": "Ether"
            },
            {
                "address": "0xa821f14fb6394e82839f5161f214cacc90372453",
                "label": "Esch$Token (ESCH$)"
            },
            {
                "address": "0x0000000000000000000000000000000000000001",
                "label": "Precompiled"
            },
            {
                "address": "0x0000000000000000000000000000000000000002",
                "label": "Precompiled"
            },
            {
                "address": "0x0000000000000000000000000000000000000003",
                "label": "Precompiled"
            },
            {
                "address": "0x0000000000000000000000000000000000000004",
                "label": "Precompiled"
            }
        ]
    },
    "trace": {
        "accountLabels": null,
        "dataMap": {
            "-1": {
                "invocation": {
                    "address": "0xed422188686b2017b52fc3b2299e9bcae5c286f6",
                    "callData": "",
                    "decodedMethod": null,
                    "errorInfo": "",
                    "fromAddress": "",
                    "gasUsed": 0,
                    "id": -1,
                    "methodDecoded": false,
                    "operation": "",
                    "output": "",
                    "revert": false,
                    "revertMessage": "",
                    "selector": "",
                    "status": false,
                    "value": ""
                },
                "nodeType": 0
            },
            "0": {
                "invocation": {
                    "address": "0x34848f3c3934733d3ebc6f82489346592566c777",
                    "callData": "0x0000000000000000000000000000000000000000000000000000000000000002000000000000000000000000ed422188686b2017b52fc3b2299e9bcae5c286f6",
                    "decodedMethod": null,
                    "errorInfo": "",
                    "fromAddress": "0xed422188686b2017b52fc3b2299e9bcae5c286f6",
                    "gasUsed": 73181,
                    "id": 0,
                    "methodDecoded": false,
                    "operation": "CALL",
                    "output": "0x0000000000000000000000000000000000000000000000000000000000000001",
                    "revert": false,
                    "revertMessage": "",
                    "selector": "0x715d0e33",
                    "status": true,
                    "value": "0"
                },
                "nodeType": 0
            },
            "1": {
                "invocation": {
                    "address": "0xed422188686b2017b52fc3b2299e9bcae5c286f6",
                    "callData": "0x",
                    "decodedMethod": null,
                    "errorInfo": "",
                    "fromAddress": "0x34848f3c3934733d3ebc6f82489346592566c777",
                    "gasUsed": 0,
                    "id": 1,
                    "methodDecoded": false,
                    "operation": "CALL",
                    "output": "",
                    "revert": false,
                    "revertMessage": "",
                    "selector": "fallback",
                    "status": true,
                    "value": "2"
                },
                "nodeType": 0
            },
            "2": {
                "invocation": {
                    "address": "0xa821f14fb6394e82839f5161f214cacc90372453",
                    "callData": "0x000000000000000000000000ed422188686b2017b52fc3b2299e9bcae5c286f600000000000000000000000034848f3c3934733d3ebc6f82489346592566c777000000000000000000000000000000000000000000000001158e460913d00000",
                    "decodedMethod": {
                        "callParams": [
                            {
                                "name": "_from",
                                "type": "address",
                                "value": "0xed422188686b2017b52fc3b2299e9bcae5c286f6"
                            },
                            {
                                "name": "_to",
                                "type": "address",
                                "value": "0x34848f3c3934733d3ebc6f82489346592566c777"
                            },
                            {
                                "name": "_value",
                                "type": "uint256",
                                "value": "20,000,000,000,000,000,000"
                            }
                        ],
                        "constructorArguments": "",
                        "name": "tr1",
                        "returnParams": [],
                        "signature": "tr1(address,address,uint256)"
                    },
                    "errorInfo": "",
                    "fromAddress": "0x34848f3c3934733d3ebc6f82489346592566c777",
                    "gasUsed": 21459,
                    "id": 2,
                    "methodDecoded": true,
                    "operation": "CALL",
                    "output": "",
                    "revert": false,
                    "revertMessage": "",
                    "selector": "0x7350ac76",
                    "status": true,
                    "value": "0"
                },
                "nodeType": 0
            },
            "3": {
                "event": {
                    "contract": "0xa821f14fb6394e82839f5161f214cacc90372453",
                    "decodedLog": {
                        "name": "Transfer",
                        "params": [
                            {
                                "name": "from",
                                "type": "address",
                                "value": "0xed422188686b2017b52fc3b2299e9bcae5c286f6"
                            },
                            {
                                "name": "to",
                                "type": "address",
                                "value": "0x34848f3c3934733d3ebc6f82489346592566c777"
                            },
                            {
                                "decimalAvailable": true,
                                "name": "value",
                                "type": "uint256",
                                "value": "20,000,000,000,000,000,000"
                            }
                        ],
                        "signature": "Transfer(address,address,uint256)"
                    },
                    "id": 3,
                    "logData": "0x000000000000000000000000000000000000000000000001158e460913d00000",
                    "logDecoded": true,
                    "operation": "EVENT",
                    "revert": false,
                    "status": true,
                    "topics": [
                        "0xddf252ad1be2c89b69c2b068fc378daa952ba7f163c4a11628f55a4df523b3ef",
                        "0x000000000000000000000000ed422188686b2017b52fc3b2299e9bcae5c286f6",
                        "0x00000000000000000000000034848f3c3934733d3ebc6f82489346592566c777"
                    ]
                },
                "nodeType": 1
            }
        },
        "gasFlame": [
            {
                "children": [
                    {
                        "children": [
                            {
                                "children": [],
                                "depth": 0,
                                "name": "Initial Gas",
                                "value": 21572
                            },
                            {
                                "children": [
                                    {
                                        "children": [],
                                        "depth": 1,
                                        "name": "fallback",
                                        "value": 0
                                    },
                                    {
                                        "children": [],
                                        "depth": 1,
                                        "name": "tr1",
                                        "value": 21459
                                    }
                                ],
                                "depth": 0,
                                "name": "Executed Gas",
                                "value": 51609
                            }
                        ],
                        "depth": -1,
                        "name": "Actual Gas Used",
                        "value": 73181
                    },
                    {
                        "children": [],
                        "depth": -1,
                        "name": "Refunded Gas",
                        "value": 0
                    }
                ],
                "depth": -2,
                "name": "Total Gas",
                "value": 73181
            }
        ],
        "isConfirmed": true,
        "mainTrace": [
            {
                "children": [
                    {
                        "children": [
                            {
                                "children": [],
                                "depth": 1,
                                "id": 1,
                                "order": 1
                            },
                            {
                                "children": [
                                    {
                                        "children": [],
                                        "depth": 2,
                                        "id": 3,
                                        "order": 3
                                    }
                                ],
                                "depth": 1,
                                "id": 2,
                                "order": 2
                            }
                        ],
                        "depth": 0,
                        "id": 0,
                        "order": 0
                    }
                ],
                "depth": -1,
                "id": -1,
                "order": -1
            }
        ],
        "mainTraceNodeCount": 4,
        "parentIdMap": {
            "0": -1,
            "1": 0,
            "2": 0,
            "3": 2
        },
        "tidyTrace": [
            {
                "children": [
                    {
                        "children": [
                            {
                                "children": [],
                                "depth": 1,
                                "id": 1,
                                "order": 1
                            },
                            {
                                "children": [
                                    {
                                        "children": [],
                                        "depth": 2,
                                        "id": 3,
                                        "order": 3
                                    }
                                ],
                                "depth": 1,
                                "id": 2,
                                "order": 2
                            }
                        ],
                        "depth": 0,
                        "id": 0,
                        "order": 0
                    }
                ],
                "depth": -1,
                "id": -1,
                "order": -1
            }
        ],
        "tidyTraceNodeCount": 4
    },
    "state_change": {
        "stateChanges": [
            {
                "address": "0x34848f3c3934733d3ebc6f82489346592566c777",
                "erc": "",
                "slots": [
                    {
                        "current": "0x0000000000000000000000000000000000000000000000000000000000000002",
                        "key": "0x0fbb9827edaaa7b3df5bd0c818816837b7a78cebf03c906375c2137886b349f0",
                        "prev": "0x0000000000000000000000000000000000000000000000000000000000000001"
                    }
                ],
                "storageVariables": []
            },
            {
                "address": "0xa821f14fb6394e82839f5161f214cacc90372453",
                "erc": "",
                "slots": [
                    {
                        "current": "0x00000000000000000000000000000000000000000000001cbb3a3ff08d080000",
                        "key": "0xc28cd1e3def73bc3e062cf0559b77f864ab670d59e9a4d8bc09695f3f6824137",
                        "prev": "0x00000000000000000000000000000000000000000000001dd0c885f9a0d80000"
                    },
                    {
                        "current": "0x000000000000000000000000000000000000000000015b02e8f73f9e6bbd0000",
                        "key": "0x2009bc00fbb7c4a55a86d12bfdd62586dec995075569c57dd4a8a27fa7b6fa65",
                        "prev": "0x000000000000000000000000000000000000000000015b01d368f99557ed0000"
                    }
                ],
                "storageVariables": [
                    {
                        "name": "balanceOf",
                        "type": "mapping(address => uint256)",
                        "value": {
                            "pairs": [
                                {
                                    "key": "0x34848f3c3934733d3ebc6f82489346592566c777",
                                    "value": {
                                        "current": "1638714850000000000000000",
                                        "prev": "1638694850000000000000000",
                                        "typeTag": 1
                                    }
                                },
                                {
                                    "key": "0xed422188686b2017b52fc3b2299e9bcae5c286f6",
                                    "value": {
                                        "current": "530000000000000000000",
                                        "prev": "550000000000000000000",
                                        "typeTag": 1
                                    }
                                }
                            ],
                            "typeTag": 4
                        }
                    }
                ]
            }
        ]
    }
}