{
    "balance_change": {
        "balanceChanges": [
            {
                "account": "0xaba76e9b597b960007126ae2c7402bbb77806c43",
                "assets": [
                    {
                        "address": "0x1e41a55030e0d0794abfb6dced22e6c7d18d8247",
                        "amount": "0.92",
                        "iconUrl": "",
                        "isERC1155": false,
                        "isERC721": false,
                        "sign": false,
                        "value": ""
                    }
                ]
            },
            {
                "account": "0xf073d9ec67430ee54c1adcf397cd32f650176ba7",
                "assets": [
                    {
                        "address": "0x1e41a55030e0d0794abfb6dced22e6c7d18d8247",
                        "amount": "0.92",
                        "iconUrl": "",
                        "isERC1155": false,
                        "isERC721": false,
                        "sign": true,
                        "value": ""
                    }
                ]
            }
        ]
    },
    "profile": {
        "basic_info": {
            "baseFee": "",
            "blockNumber": 7599815,
            "callData": "0xa9059cbb000000000000000000000000f073d9ec67430ee54c1adcf397cd32f650176ba70000000000000000000000000000000000000000000000000cc47f20295c0000",
            "debugEnable": true,
            "errorInfo": "",
            "eventCount": 1,
            "feeRecipient": "0x5a0b54d5dc17e0aadc383d2db43b0a0d3e029c4c",
            "formatValue": "0",
            "gasLimit": 90000,
            "gasPrice": "3",
            "gasUsed": 51933,
            "intTxnCount": 0,
            "internalRevert": false,
            "internalRevertMessage": "",
            "isContractCreation": false,
            "isFlashloan": false,
            "maxFee": "",
            "nonce": 3777,
            "overwritedBlockNumber": -1,
            "priorityFee": "",
            "receiver": "0x1e41a55030e0d0794abfb6dced22e6c7d18d8247",
            "revertMessage": "",
            "sender": "0xaba76e9b597b960007126ae2c7402bbb77806c43",
            "simulationEnable": true,
            "sourceTxnHash": "0xf425ad5dd1f36f01b2252dd82347a18b9269cc876da341f56ebf72dd389daddd",
            "status": true,
            "timestamp": "2019-04-19T18:36:15Z",
            "transactionFee": "0.000155799",
            "txnHash": "0xf425ad5dd1f36f01b2252dd82347a18b9269cc876da341f56ebf72dd389daddd",
            "txnIndex": 108,
            "type": 0,
            "value": "0"
        },
        "fund_flow": [
            {
                "amount": "0.92",
                "from": "0xaba76e9b597b960007126ae2c7402bbb77806c43",
                "id": 1,
                "isERC1155": false,
                "isERC721": false,
                "isReverted": false,
                "order": 1,
                "to": "0xf073d9ec67430ee54c1adcf397cd32f650176ba7",
                "token": "0x1e41a55030e0d0794abfb6dced22e6c7d18d8247"
            }
        ],
        "token_infos": [
            {
                "address": "0x1e41a55030e0d0794abfb6dced22e6c7d18d8247",
                "decimals": 18
            },
            {
                "address": "0xc02aaa39b223fe8d0a0e5c4f27ead9083c756cc2",
                "decimals": 18
            },
            {
                "address": "0xeeeeeeeeeeeeeeeeeeeeeeeeeeeeeeeeeeeeeeee",
                "decimals": 18
            }
        ]
    },
    "address_label": {
        "labels": [
            {
                "address": "0x0000000000000000000000000000000000000004",
                "label": "Precompiled"
            },
            {
                "address": "0xeeeeeeeeeeeeeeeeeeeeeeeeeeeeeeeeeeeeeeee",
                "label": "Ether"
            },
            {
                "address": "0x1e41a55030e0d0794abfb6dced22e6c7d18d8247",
                "label": "Android chain (ADC)"
            },
            {
                "address": "0x0000000000000000000000000000000000000001",
                "label": "Precompiled"
            },
            {
                "address": "0x0000000000000000000000000000000000000002",
                "label": "Precompiled"
            },
            {
                "address": "0x0000000000000000000000000000000000000003",
                "label": "Precompiled"
            }
        ]
    },
    "trace": {
        "accountLabels": null,
        "dataMap": {
            "-1": {
                "invocation": {
                    "address": "0xaba76e9b597b960007126ae2c7402bbb77806c43",
                    "callData": "",
                    "decodedMethod": null,
                    "errorInfo": "",
                    "fromAddress": "",
                    "gasUsed": 0,
                    "id": -1,
                    "methodDecoded": false,
                    "operation": "",
                    "output": "",
                    "revert": false,
                    "revertMessage": "",
                    "selector": "",
                    "status": false,
                    "value": ""
                },
                "nodeType": 0
            },
            "0": {
                "invocation": {
                    "address": "0x1e41a55030e0d0794abfb6dced22e6c7d18d8247",
                    "callData": "0x000000000000000000000000f073d9ec67430ee54c1adcf397cd32f650176ba70000000000000000000000000000000000000000000000000cc47f20295c0000",
                    "decodedMethod": {
                        "callParams": [
                            {
                                "name": "_to",
                                "type": "address",
                                "value": "0xf073d9ec67430ee54c1adcf397cd32f650176ba7"
                            },
                            {
                                "decimalAvailable": true,
                                "name": "_value",
                                "type": "uint256",
                                "value": "920,000,000,000,000,000"
                            }
                        ],
                        "constructorArguments": "",
                        "name": "transfer",
                        "returnParams": [
                            {
                                "name": "success",
                                "type": "bool",
                                "value": true
                            }
                        ],
                        "signature": "transfer(address,uint256)"
                    },
                    "errorInfo": "",
                    "fromAddress": "0xaba76e9b597b960007126ae2c7402bbb77806c43",
                    "gasUsed": 51933,
                    "id": 0,
                    "methodDecoded": true,
                    "operation": "CALL",
                    "output": "0x0000000000000000000000000000000000000000000000000000000000000001",
                    "revert": false,
                    "revertMessage": "",
                    "selector": "0xa9059cbb",
                    "status": true,
                    "value": "0"
                },
                "nodeType": 0
            },
            "1": {
                "event": {
                    "contract": "0x1e41a55030e0d0794abfb6dced22e6c7d18d8247",
                    "decodedLog": {
                        "name": "Transfer",
                        "params": [
                            {
                                "name": "_from",
                                "type": "address",
                                "value": "0xaba76e9b597b960007126ae2c7402bbb77806c43"
                            },
                            {
                                "name": "_to",
                                "type": "address",
                                "value": "0xf073d9ec67430ee54c1adcf397cd32f650176ba7"
                            },
                            {
                                "decimalAvailable": true,
                                "name": "_value",
                                "type": "uint256",
                                "value": "920,000,000,000,000,000"
                            }
                        ],
                        "signature": "Transfer(address,address,uint256)"
                    },
                    "id": 1,
                    "logData": "0x0000000000000000000000000000000000000000000000000cc47f20295c0000",
                    "logDecoded": true,
                    "operation": "EVENT",
                    "revert": false,
                    "status": true,
                    "topics": [
                        "0xddf252ad1be2c89b69c2b068fc378daa952ba7f163c4a11628f55a4df523b3ef",
                        "0x000000000000000000000000aba76e9b597b960007126ae2c7402bbb77806c43",
                        "0x000000000000000000000000f073d9ec67430ee54c1adcf397cd32f650176ba7"
                    ]
                },
                "nodeType": 1
            }
        },
        "gasFlame": [
            {
                "children": [
                    {
                        "children": [
                            {
                                "children": [],
                                "depth": 0,
                                "name": "Initial Gas",
                                "value": 23192
                            },
                            {
                                "children": [],
                                "depth": 0,
                                "name": "Executed Gas",
                                "value": 28741
                            }
                        ],
                        "depth": -1,
                        "name": "Actual Gas Used",
                        "value": 51933
                    },
                    {
                        "children": [],
                        "depth": -1,
                        "name": "Refunded Gas",
                        "value": 0
                    }
                ],
                "depth": -2,
                "name": "Total Gas",
                "value": 51933
            }
        ],
        "isConfirmed": true,
        "mainTrace": [
            {
                "children": [
                    {
                        "children": [
                            {
                                "children": [],
                                "depth": 1,
                                "id": 1,
                                "order": 1
                            }
                        ],
                        "depth": 0,
                        "id": 0,
                        "order": 0
                    }
                ],
                "depth": -1,
                "id": -1,
                "order": -1
            }
        ],
        "mainTraceNodeCount": 2,
        "parentIdMap": {
            "0": -1,
            "1": 0
        },
        "tidyTrace": [
            {
                "children": [
                    {
                        "children": [
                            {
                                "children": [],
                                "depth": 1,
                                "id": 1,
                                "order": 1
                            }
                        ],
                        "depth": 0,
                        "id": 0,
                        "order": 0
                    }
                ],
                "depth": -1,
                "id": -1,
                "order": -1
            }
        ],
        "tidyTraceNodeCount": 2
    },
    "state_change": {
        "stateChanges": [
            {
                "address": "0x1e41a55030e0d0794abfb6dced22e6c7d18d8247",
                "erc": "ERC-20",
                "slots": [
                    {
                        "current": "0x0000000000000000000000000000000000000000000001b46a4c4ef0dbb3d358",
                        "key": "0x845304e7659085cecc06a5e122a0e2ff6e9f47894a91e204ce407264079c09ab",
                        "prev": "0x0000000000000000000000000000000000000000000001b47710ce11050fd358"
                    },
                    {
                        "current": "0x0000000000000000000000000000000000000000000000000cc47f20295c0000",
                        "key": "0x8001c456718056c4eaa22da69403d374e84a964e7d156a19c9855c6b4ded51ec",
                        "prev": "0x0000000000000000000000000000000000000000000000000000000000000000"
                    }
                ],
                "storageVariables": [
                    {
                        "name": "balances",
                        "type": "mapping(address => uint256)",
                        "value": {
                            "pairs": [
                                {
                                    "key": "0xaba76e9b597b960007126ae2c7402bbb77806c43",
                                    "value": {
                                        "current": "8050439999999999988568",
                                        "prev": "8051359999999999988568",
                                        "typeTag": 1
                                    }
                                },
                                {
                                    "key": "0xf073d9ec67430ee54c1adcf397cd32f650176ba7",
                                    "value": {
                                        "current": "920000000000000000",
                                        "prev": "0",
                                        "typeTag": 1
                                    }
                                }
                            ],
                            "typeTag": 4
                        }
                    }
                ]
            }
        ]
    }
}