{
    "balance_change": {
        "balanceChanges": []
    },
    "profile": {
        "basic_info": {
            "baseFee": "",
            "blockNumber": 2252955,
            "callData": "0x095ea7b3000000000000000000000000755cdba6ae4f479f7164792b318b2a06c759833b0000000000000000000000000000000000000000000000001280f39a34855556",
            "debugEnable": true,
            "errorInfo": "",
            "eventCount": 0,
            "feeRecipient": "0x61c808d82a3ac53231750dadc13c777b59310bd9",
            "formatValue": "0",
            "gasLimit": 143676,
            "gasPrice": "20",
            "gasUsed": 43676,
            "intTxnCount": 0,
            "internalRevert": false,
            "internalRevertMessage": "",
            "isContractCreation": false,
            "isFlashloan": false,
            "maxFee": "",
            "nonce": 0,
            "overwritedBlockNumber": -1,
            "priorityFee": "",
            "receiver": "0x5c40ef6f527f4fba68368774e6130ce6515123f2",
            "revertMessage": "",
            "sender": "0x6b5d5098041decf17a614e2c5c693dad2194b2ec",
            "simulationEnable": true,
            "sourceTxnHash": "0xf55a6f79ffab771da718616c2ec2379cab7afaacaf04011b6cebff5ab375535f",
            "status": true,
            "timestamp": "2016-09-13T17:06:46Z",
            "transactionFee": "0.00087352",
            "txnHash": "0xf55a6f79ffab771da718616c2ec2379cab7afaacaf04011b6cebff5ab375535f",
            "txnIndex": 2,
            "type": 0,
            "value": "0"
        },
        "fund_flow": [],
        "token_infos": [
            {
                "address": "0xc02aaa39b223fe8d0a0e5c4f27ead9083c756cc2",
                "decimals": 18
            },
            {
                "address": "0xeeeeeeeeeeeeeeeeeeeeeeeeeeeeeeeeeeeeeeee",
                "decimals": 18
            }
        ]
    },
    "address_label": {
        "labels": [
            {
                "address": "0x755cdba6ae4f479f7164792b318b2a06c759833b",
                "label": "ExtraBalDaoWithdraw"
            },
            {
                "address": "0x5c40ef6f527f4fba68368774e6130ce6515123f2",
                "label": "ExtraBalToken"
            },
            {
                "address": "0x0000000000000000000000000000000000000001",
                "label": "Precompiled"
            },
            {
                "address": "0x0000000000000000000000000000000000000002",
                "label": "Precompiled"
            },
            {
                "address": "0x0000000000000000000000000000000000000003",
                "label": "Precompiled"
            },
            {
                "address": "0x0000000000000000000000000000000000000004",
                "label": "Precompiled"
            },
            {
                "address": "0xeeeeeeeeeeeeeeeeeeeeeeeeeeeeeeeeeeeeeeee",
                "label": "Ether"
            }
        ]
    },
    "trace": {
        "accountLabels": null,
        "dataMap": {
            "-1": {
                "invocation": {
                    "address": "0x6b5d5098041decf17a614e2c5c693dad2194b2ec",
                    "callData": "",
                    "decodedMethod": null,
                    "errorInfo": "",
                    "fromAddress": "",
                    "gasUsed": 0,
                    "id": -1,
                    "methodDecoded": false,
                    "operation": "",
                    "output": "",
                    "revert": false,
                    "revertMessage": "",
                    "selector": "",
                    "status": false,
                    "value": ""
                },
                "nodeType": 0
            },
            "0": {
                "invocation": {
                    "address": "0x5c40ef6f527f4fba68368774e6130ce6515123f2",
                    "callData": "0x000000000000000000000000755cdba6ae4f479f7164792b318b2a06c759833b0000000000000000000000000000000000000000000000001280f39a34855556",
                    "decodedMethod": {
                        "callParams": [
                            {
                                "name": "_spender",
                                "type": "address",
                                "value": "0x755cdba6ae4f479f7164792b318b2a06c759833b"
                            },
                            {
                                "decimalAvailable": true,
                                "name": "_value",
                                "type": "uint256",
                                "value": "1,333,333,333,333,333,334"
                            }
                        ],
                        "constructorArguments": "",
                        "name": "approve",
                        "returnParams": [
                            {
                                "name": "success",
                                "type": "bool",
                                "value": true
                            }
                        ],
                        "signature": "approve(address,uint256)"
                    },
                    "errorInfo": "",
                    "fromAddress": "0x6b5d5098041decf17a614e2c5c693dad2194b2ec",
                    "gasUsed": 43676,
                    "id": 0,
                    "methodDecoded": true,
                    "operation": "CALL",
                    "output": "0x0000000000000000000000000000000000000000000000000000000000000001",
                    "revert": false,
                    "revertMessage": "",
                    "selector": "0x095ea7b3",
                    "status": true,
                    "value": "0"
                },
                "nodeType": 0
            }
        },
        "gasFlame": [
            {
                "children": [
                    {
                        "children": [
                            {
                                "children": [],
                                "depth": 0,
                                "name": "Initial Gas",
                                "value": 23320
                            },
                            {
                                "children": [],
                                "depth": 0,
                                "name": "Executed Gas",
                                "value": 20356
                            }
                        ],
                        "depth": -1,
                        "name": "Actual Gas Used",
                        "value": 43676
                    },
                    {
                        "children": [],
                        "depth": -1,
                        "name": "Refunded Gas",
                        "value": 0
                    }
                ],
                "depth": -2,
                "name": "Total Gas",
                "value": 43676
            }
        ],
        "isConfirmed": true,
        "mainTrace": [
            {
                "children": [
                    {
                        "children": [],
                        "depth": 0,
                        "id": 0,
                        "order": 0
                    }
                ],
                "depth": -1,
                "id": -1,
                "order": -1
            }
        ],
        "mainTraceNodeCount": 1,
        "parentIdMap": {
            "0": -1
        },
        "tidyTrace": [
            {
                "children": [
                    {
                        "children": [],
                        "depth": 0,
                        "id": 0,
                        "order": 0
                    }
                ],
                "depth": -1,
                "id": -1,
                "order": -1
            }
        ],
        "tidyTraceNodeCount": 1
    },
    "state_change": {
        "stateChanges": [
            {
                "address": "0x5c40ef6f527f4fba68368774e6130ce6515123f2",
                "erc": "",
                "slots": [
                    {
                        "current": "0x0000000000000000000000000000000000000000000000001280f39a34855556",
                        "key": "0xe5cd1c5011eedd403b1548744c3f69237b61f7489ae1aa9817d920b1595a0546",
                        "prev": "0x0000000000000000000000000000000000000000000000000000000000000000"
                    }
                ],
                "storageVariables": []
            }
        ]
    }
}