{
    "balance_change": {
        "balanceChanges": []
    },
    "profile": {
        "basic_info": {
            "baseFee": "28.514639015",
            "blockNumber": 14577134,
            "callData": "0xc98075390000000000000000000000000000000000000000000000000000000000000080000000000000000000000000000000000000000000000000000000000000032000000000000000000000000000000000000000000000000000000000000004000100010001010000000000000000000000000000000000000000000000000000000000000000000000000000000000000000000000000000000000000000028000000000000000000000001c0e29dcd78cd89afdca83fd726daed00002de0d0602070c0304080b0006090a0f0d050e0100000000000000000000000000000000000000000000000000000000000000000000000000000000000000000000006000000000000000000000000000000000000000000000000000000000000000100000000000000000000000000000000000000000000000000034130b716d441e00000000000000000000000000000000000000000000000000346830e514840000000000000000000000000000000000000000000000000000346830e514840000000000000000000000000000000000000000000000000000346c360774c06f0000000000000000000000000000000000000000000000000034787c826a8c9e0000000000000000000000000000000000000000000000000034787c826a8c9e0000000000000000000000000000000000000000000000000034809870836e000000000000000000000000000000000000000000000000000034809870836e00000000000000000000000000000000000000000000000000003486f881d00943000000000000000000000000000000000000000000000000003486f881d0094300000000000000000000000000000000000000000000000000349c28f448f1000000000000000000000000000000000000000000000000000034b9813f2d62b20000000000000000000000000000000000000000000000000034c2de69e767e40000000000000000000000000000000000000000000000000034c4d57d6800000000000000000000000000000000000000000000000000000034caa8df5766ca0000000000000000000000000000000000000000000000000034d07c4146cd940000000000000000000000000000000000000000000000000000000000000006f891d1d76a6e67e7053de4593fb41151caf322b5cf0f27859c204034853939d6b0549d789ff35b694d898d8e9d23f5bc457b038d82f44ac7cfabf3e98f8335ef31f4569c9841d9061db48b9cf5376bf447e3bbadfde974635eba2a2803b00c8368c95d6623242c63c6bb2015bc59298d7b730b340975b07d1b77ca47aeaf5827ca83f0171a820c4b9276fec139e08f2650104939a17c7d21de94d0b681535d1632660b4a1ba9c8a601488a1f7f15d93f3becc056cf4910e5d83227b4534ac47800000000000000000000000000000000000000000000000000000000000000062d0c7e8705c4c1a886f9438372833bff9c4e87707966e83b7b1b1a1091b14f4e4d19d9ac977367876743455708c1c87309a13bac3178fc81de938db111c1449346e6ca7322634e0311e5060f2034324b4c0f1b853b13d25dc9fb6ae86f7d7c7040be45e436ca6d1bd57b568553360881b1822ed27d5094bfdc8ff3939b678b0f1f37dc39b0d9c2cacd8c1f6346c0fc7dc43cae8d43b6556dbc1b023a6af08e993cb76952db38fe97bd03a6ba1f5c6f9165ac6ff872ab3d25e25bd88fa0f44778",
            "debugEnable": true,
            "errorInfo": "",
            "eventCount": 3,
            "feeRecipient": "0x829bd824b016326a401d083b33d092293333a830",
            "formatValue": "0",
            "gasLimit": 500000,
            "gasPrice": "29.86589592",
            "gasUsed": 176939,
            "intTxnCount": 6,
            "internalRevert": false,
            "internalRevertMessage": "",
            "isContractCreation": false,
            "isFlashloan": false,
            "maxFee": "",
            "nonce": 17239,
            "overwritedBlockNumber": -1,
            "priorityFee": "",
            "receiver": "0x57560ea88060739107399670d8905ffca3b57d08",
            "revertMessage": "",
            "sender": "0xc61a7e5a04a5d32ffe8e01f77cb39253bf21d2ac",
            "simulationEnable": true,
            "sourceTxnHash": "0xf520d62515e6f8539e00bc5a8b8d137350ff55bcee5884e09e4fe55cdcbcdc29",
            "status": true,
            "timestamp": "2022-04-13T12:33:59Z",
            "transactionFee": "0.00528444175818888",
            "txnHash": "0xf520d62515e6f8539e00bc5a8b8d137350ff55bcee5884e09e4fe55cdcbcdc29",
            "txnIndex": 140,
            "type": 0,
            "value": "0"
        },
        "fund_flow": [],
        "token_infos": [
            {
                "address": "0xc02aaa39b223fe8d0a0e5c4f27ead9083c756cc2",
                "decimals": 18
            },
            {
                "address": "0xeeeeeeeeeeeeeeeeeeeeeeeeeeeeeeeeeeeeeeee",
                "decimals": 18
            }
        ]
    },
    "address_label": {
        "labels": [
            {
                "address": "0x0000000000000000000000000000000000000004",
                "label": "Precompiled"
            },
            {
                "address": "0xeeeeeeeeeeeeeeeeeeeeeeeeeeeeeeeeeeeeeeee",
                "label": "Ether"
            },
            {
                "address": "0x57560ea88060739107399670d8905ffca3b57d08",
                "label": "AccessControlledOffchainAggregator"
            },
            {
                "address": "0x0000000000000000000000000000000000000001",
                "label": "Precompiled"
            },
            {
                "address": "0x0000000000000000000000000000000000000002",
                "label": "Precompiled"
            },
            {
                "address": "0x0000000000000000000000000000000000000003",
                "label": "Precompiled"
            }
        ]
    },
    "trace": {
        "accountLabels": null,
        "dataMap": {
            "-1": {
                "invocation": {
                    "address": "0xc61a7e5a04a5d32ffe8e01f77cb39253bf21d2ac",
                    "callData": "",
                    "decodedMethod": null,
                    "errorInfo": "",
                    "fromAddress": "",
                    "gasUsed": 0,
                    "id": -1,
                    "methodDecoded": false,
                    "operation": "",
                    "output": "",
                    "revert": false,
                    "revertMessage": "",
                    "selector": "",
                    "status": false,
                    "value": ""
                },
                "nodeType": 0
            },
            "0": {
                "invocation": {
                    "address": "0x57560ea88060739107399670d8905ffca3b57d08",
                    "callData": "0x0000000000000000000000000000000000000000000000000000000000000080000000000000000000000000000000000000000000000000000000000000032000000000000000000000000000000000000000000000000000000000000004000100010001010000000000000000000000000000000000000000000000000000000000000000000000000000000000000000000000000000000000000000028000000000000000000000001c0e29dcd78cd89afdca83fd726daed00002de0d0602070c0304080b0006090a0f0d050e0100000000000000000000000000000000000000000000000000000000000000000000000000000000000000000000006000000000000000000000000000000000000000000000000000000000000000100000000000000000000000000000000000000000000000000034130b716d441e00000000000000000000000000000000000000000000000000346830e514840000000000000000000000000000000000000000000000000000346830e514840000000000000000000000000000000000000000000000000000346c360774c06f0000000000000000000000000000000000000000000000000034787c826a8c9e0000000000000000000000000000000000000000000000000034787c826a8c9e0000000000000000000000000000000000000000000000000034809870836e000000000000000000000000000000000000000000000000000034809870836e00000000000000000000000000000000000000000000000000003486f881d00943000000000000000000000000000000000000000000000000003486f881d0094300000000000000000000000000000000000000000000000000349c28f448f1000000000000000000000000000000000000000000000000000034b9813f2d62b20000000000000000000000000000000000000000000000000034c2de69e767e40000000000000000000000000000000000000000000000000034c4d57d6800000000000000000000000000000000000000000000000000000034caa8df5766ca0000000000000000000000000000000000000000000000000034d07c4146cd940000000000000000000000000000000000000000000000000000000000000006f891d1d76a6e67e7053de4593fb41151caf322b5cf0f27859c204034853939d6b0549d789ff35b694d898d8e9d23f5bc457b038d82f44ac7cfabf3e98f8335ef31f4569c9841d9061db48b9cf5376bf447e3bbadfde974635eba2a2803b00c8368c95d6623242c63c6bb2015bc59298d7b730b340975b07d1b77ca47aeaf5827ca83f0171a820c4b9276fec139e08f2650104939a17c7d21de94d0b681535d1632660b4a1ba9c8a601488a1f7f15d93f3becc056cf4910e5d83227b4534ac47800000000000000000000000000000000000000000000000000000000000000062d0c7e8705c4c1a886f9438372833bff9c4e87707966e83b7b1b1a1091b14f4e4d19d9ac977367876743455708c1c87309a13bac3178fc81de938db111c1449346e6ca7322634e0311e5060f2034324b4c0f1b853b13d25dc9fb6ae86f7d7c7040be45e436ca6d1bd57b568553360881b1822ed27d5094bfdc8ff3939b678b0f1f37dc39b0d9c2cacd8c1f6346c0fc7dc43cae8d43b6556dbc1b023a6af08e993cb76952db38fe97bd03a6ba1f5c6f9165ac6ff872ab3d25e25bd88fa0f44778",
                    "decodedMethod": {
                        "callParams": [
                            {
                                "name": "_report",
                                "type": "bytes",
                                "value": "0x00000000000000000000001c0e29dcd78cd89afdca83fd726daed00002de0d0602070c0304080b0006090a0f0d050e0100000000000000000000000000000000000000000000000000000000000000000000000000000000000000000000006000000000000000000000000000000000000000000000000000000000000000100000000000000000000000000000000000000000000000000034130b716d441e00000000000000000000000000000000000000000000000000346830e514840000000000000000000000000000000000000000000000000000346830e514840000000000000000000000000000000000000000000000000000346c360774c06f0000000000000000000000000000000000000000000000000034787c826a8c9e0000000000000000000000000000000000000000000000000034787c826a8c9e0000000000000000000000000000000000000000000000000034809870836e000000000000000000000000000000000000000000000000000034809870836e00000000000000000000000000000000000000000000000000003486f881d00943000000000000000000000000000000000000000000000000003486f881d0094300000000000000000000000000000000000000000000000000349c28f448f1000000000000000000000000000000000000000000000000000034b9813f2d62b20000000000000000000000000000000000000000000000000034c2de69e767e40000000000000000000000000000000000000000000000000034c4d57d6800000000000000000000000000000000000000000000000000000034caa8df5766ca0000000000000000000000000000000000000000000000000034d07c4146cd94"
                            },
                            {
                                "name": "_rs",
                                "type": "bytes32[]",
                                "value": [
                                    "0xf891d1d76a6e67e7053de4593fb41151caf322b5cf0f27859c204034853939d6",
                                    "0xb0549d789ff35b694d898d8e9d23f5bc457b038d82f44ac7cfabf3e98f8335ef",
                                    "0x31f4569c9841d9061db48b9cf5376bf447e3bbadfde974635eba2a2803b00c83",
                                    "0x68c95d6623242c63c6bb2015bc59298d7b730b340975b07d1b77ca47aeaf5827",
                                    "0xca83f0171a820c4b9276fec139e08f2650104939a17c7d21de94d0b681535d16",
                                    "0x32660b4a1ba9c8a601488a1f7f15d93f3becc056cf4910e5d83227b4534ac478"
                                ]
                            },
                            {
                                "name": "_ss",
                                "type": "bytes32[]",
                                "value": [
                                    "0x2d0c7e8705c4c1a886f9438372833bff9c4e87707966e83b7b1b1a1091b14f4e",
                                    "0x4d19d9ac977367876743455708c1c87309a13bac3178fc81de938db111c14493",
                                    "0x46e6ca7322634e0311e5060f2034324b4c0f1b853b13d25dc9fb6ae86f7d7c70",
                                    "0x40be45e436ca6d1bd57b568553360881b1822ed27d5094bfdc8ff3939b678b0f",
                                    "0x1f37dc39b0d9c2cacd8c1f6346c0fc7dc43cae8d43b6556dbc1b023a6af08e99",
                                    "0x3cb76952db38fe97bd03a6ba1f5c6f9165ac6ff872ab3d25e25bd88fa0f44778"
                                ]
                            },
                            {
                                "name": "_rawVs",
                                "type": "bytes32",
                                "value": "0x0100010001010000000000000000000000000000000000000000000000000000"
                            }
                        ],
                        "constructorArguments": "",
                        "name": "transmit",
                        "returnParams": [],
                        "signature": "transmit(bytes,bytes32[],bytes32[],bytes32)"
                    },
                    "errorInfo": "",
                    "fromAddress": "0xc61a7e5a04a5d32ffe8e01f77cb39253bf21d2ac",
                    "gasUsed": 176939,
                    "id": 0,
                    "methodDecoded": true,
                    "operation": "CALL",
                    "output": "",
                    "revert": false,
                    "revertMessage": "",
                    "selector": "0xc9807539",
                    "status": true,
                    "value": "0"
                },
                "nodeType": 0
            },
            "1": {
                "invocation": {
                    "address": "0x0000000000000000000000000000000000000001",
                    "callData": "0x74513a1576122b22e36d66e8e86e73033fa5a81c1e143e694792a586000000000000000000000000000000000000000000000000000000000000001cf891d1d76a6e67e7053de4593fb41151caf322b5cf0f27859c204034853939d62d0c7e8705c4c1a886f9438372833bff9c4e87707966e83b7b1b1a1091b14f4e",
                    "decodedMethod": {
                        "callParams": [
                            {
                                "name": "hash",
                                "type": "bytes32",
                                "value": "0x0e5ad4b474513a1576122b22e36d66e8e86e73033fa5a81c1e143e694792a586"
                            },
                            {
                                "name": "v",
                                "type": "uint256",
                                "value": "28"
                            },
                            {
                                "name": "r",
                                "type": "bytes32",
                                "value": "0xf891d1d76a6e67e7053de4593fb41151caf322b5cf0f27859c204034853939d6"
                            },
                            {
                                "name": "s",
                                "type": "bytes32",
                                "value": "0x2d0c7e8705c4c1a886f9438372833bff9c4e87707966e83b7b1b1a1091b14f4e"
                            }
                        ],
                        "constructorArguments": "",
                        "name": "ecrecover",
                        "returnParams": [
                            {
                                "name": "",
                                "type": "address",
                                "value": "0xc01465eba4fa3a72309374bb67149a8fd14cb687"
                            }
                        ],
                        "signature": "ecrecover(bytes32,uint256,bytes32,bytes32)"
                    },
                    "errorInfo": "",
                    "fromAddress": "0x57560ea88060739107399670d8905ffca3b57d08",
                    "gasUsed": 3000,
                    "id": 1,
                    "methodDecoded": true,
                    "operation": "STATICCALL",
                    "output": "0x000000000000000000000000c01465eba4fa3a72309374bb67149a8fd14cb687",
                    "revert": false,
                    "revertMessage": "",
                    "selector": "0x0e5ad4b4",
                    "status": true,
                    "value": "0"
                },
                "nodeType": 0
            },
            "2": {
                "invocation": {
                    "address": "0x0000000000000000000000000000000000000001",
                    "callData": "0x74513a1576122b22e36d66e8e86e73033fa5a81c1e143e694792a586000000000000000000000000000000000000000000000000000000000000001bb0549d789ff35b694d898d8e9d23f5bc457b038d82f44ac7cfabf3e98f8335ef4d19d9ac977367876743455708c1c87309a13bac3178fc81de938db111c14493",
                    "decodedMethod": {
                        "callParams": [
                            {
                                "name": "hash",
                                "type": "bytes32",
                                "value": "0x0e5ad4b474513a1576122b22e36d66e8e86e73033fa5a81c1e143e694792a586"
                            },
                            {
                                "name": "v",
                                "type": "uint256",
                                "value": "27"
                            },
                            {
                                "name": "r",
                                "type": "bytes32",
                                "value": "0xb0549d789ff35b694d898d8e9d23f5bc457b038d82f44ac7cfabf3e98f8335ef"
                            },
                            {
                                "name": "s",
                                "type": "bytes32",
                                "value": "0x4d19d9ac977367876743455708c1c87309a13bac3178fc81de938db111c14493"
                            }
                        ],
                        "constructorArguments": "",
                        "name": "ecrecover",
                        "returnParams": [
                            {
                                "name": "",
                                "type": "address",
                                "value": "0xbdc4be0237c152cf42cbabdb6fac436f040b6d87"
                            }
                        ],
                        "signature": "ecrecover(bytes32,uint256,bytes32,bytes32)"
                    },
                    "errorInfo": "",
                    "fromAddress": "0x57560ea88060739107399670d8905ffca3b57d08",
                    "gasUsed": 3000,
                    "id": 2,
                    "methodDecoded": true,
                    "operation": "STATICCALL",
                    "output": "0x000000000000000000000000bdc4be0237c152cf42cbabdb6fac436f040b6d87",
                    "revert": false,
                    "revertMessage": "",
                    "selector": "0x0e5ad4b4",
                    "status": true,
                    "value": "0"
                },
                "nodeType": 0
            },
            "3": {
                "invocation": {
                    "address": "0x0000000000000000000000000000000000000001",
                    "callData": "0x74513a1576122b22e36d66e8e86e73033fa5a81c1e143e694792a586000000000000000000000000000000000000000000000000000000000000001c31f4569c9841d9061db48b9cf5376bf447e3bbadfde974635eba2a2803b00c8346e6ca7322634e0311e5060f2034324b4c0f1b853b13d25dc9fb6ae86f7d7c70",
                    "decodedMethod": {
                        "callParams": [
                            {
                                "name": "hash",
                                "type": "bytes32",
                                "value": "0x0e5ad4b474513a1576122b22e36d66e8e86e73033fa5a81c1e143e694792a586"
                            },
                            {
                                "name": "v",
                                "type": "uint256",
                                "value": "28"
                            },
                            {
                                "name": "r",
                                "type": "bytes32",
                                "value": "0x31f4569c9841d9061db48b9cf5376bf447e3bbadfde974635eba2a2803b00c83"
                            },
                            {
                                "name": "s",
                                "type": "bytes32",
                                "value": "0x46e6ca7322634e0311e5060f2034324b4c0f1b853b13d25dc9fb6ae86f7d7c70"
                            }
                        ],
                        "constructorArguments": "",
                        "name": "ecrecover",
                        "returnParams": [
                            {
                                "name": "",
                                "type": "address",
                                "value": "0x8eb664cd767f12507e7e3864ba5b7e925090a0e5"
                            }
                        ],
                        "signature": "ecrecover(bytes32,uint256,bytes32,bytes32)"
                    },
                    "errorInfo": "",
                    "fromAddress": "0x57560ea88060739107399670d8905ffca3b57d08",
                    "gasUsed": 3000,
                    "id": 3,
                    "methodDecoded": true,
                    "operation": "STATICCALL",
                    "output": "0x0000000000000000000000008eb664cd767f12507e7e3864ba5b7e925090a0e5",
                    "revert": false,
                    "revertMessage": "",
                    "selector": "0x0e5ad4b4",
                    "status": true,
                    "value": "0"
                },
                "nodeType": 0
            },
            "4": {
                "invocation": {
                    "address": "0x0000000000000000000000000000000000000001",
                    "callData": "0x74513a1576122b22e36d66e8e86e73033fa5a81c1e143e694792a586000000000000000000000000000000000000000000000000000000000000001b68c95d6623242c63c6bb2015bc59298d7b730b340975b07d1b77ca47aeaf582740be45e436ca6d1bd57b568553360881b1822ed27d5094bfdc8ff3939b678b0f",
                    "decodedMethod": {
                        "callParams": [
                            {
                                "name": "hash",
                                "type": "bytes32",
                                "value": "0x0e5ad4b474513a1576122b22e36d66e8e86e73033fa5a81c1e143e694792a586"
                            },
                            {
                                "name": "v",
                                "type": "uint256",
                                "value": "27"
                            },
                            {
                                "name": "r",
                                "type": "bytes32",
                                "value": "0x68c95d6623242c63c6bb2015bc59298d7b730b340975b07d1b77ca47aeaf5827"
                            },
                            {
                                "name": "s",
                                "type": "bytes32",
                                "value": "0x40be45e436ca6d1bd57b568553360881b1822ed27d5094bfdc8ff3939b678b0f"
                            }
                        ],
                        "constructorArguments": "",
                        "name": "ecrecover",
                        "returnParams": [
                            {
                                "name": "",
                                "type": "address",
                                "value": "0x21389cbcdb25c8859c704bd8cd7252902384fcef"
                            }
                        ],
                        "signature": "ecrecover(bytes32,uint256,bytes32,bytes32)"
                    },
                    "errorInfo": "",
                    "fromAddress": "0x57560ea88060739107399670d8905ffca3b57d08",
                    "gasUsed": 3000,
                    "id": 4,
                    "methodDecoded": true,
                    "operation": "STATICCALL",
                    "output": "0x00000000000000000000000021389cbcdb25c8859c704bd8cd7252902384fcef",
                    "revert": false,
                    "revertMessage": "",
                    "selector": "0x0e5ad4b4",
                    "status": true,
                    "value": "0"
                },
                "nodeType": 0
            },
            "5": {
                "invocation": {
                    "address": "0x0000000000000000000000000000000000000001",
                    "callData": "0x74513a1576122b22e36d66e8e86e73033fa5a81c1e143e694792a586000000000000000000000000000000000000000000000000000000000000001cca83f0171a820c4b9276fec139e08f2650104939a17c7d21de94d0b681535d161f37dc39b0d9c2cacd8c1f6346c0fc7dc43cae8d43b6556dbc1b023a6af08e99",
                    "decodedMethod": {
                        "callParams": [
                            {
                                "name": "hash",
                                "type": "bytes32",
                                "value": "0x0e5ad4b474513a1576122b22e36d66e8e86e73033fa5a81c1e143e694792a586"
                            },
                            {
                                "name": "v",
                                "type": "uint256",
                                "value": "28"
                            },
                            {
                                "name": "r",
                                "type": "bytes32",
                                "value": "0xca83f0171a820c4b9276fec139e08f2650104939a17c7d21de94d0b681535d16"
                            },
                            {
                                "name": "s",
                                "type": "bytes32",
                                "value": "0x1f37dc39b0d9c2cacd8c1f6346c0fc7dc43cae8d43b6556dbc1b023a6af08e99"
                            }
                        ],
                        "constructorArguments": "",
                        "name": "ecrecover",
                        "returnParams": [
                            {
                                "name": "",
                                "type": "address",
                                "value": "0x22b4a3a7224db951d2804e427fbc3c5fc02b6c5e"
                            }
                        ],
                        "signature": "ecrecover(bytes32,uint256,bytes32,bytes32)"
                    },
                    "errorInfo": "",
                    "fromAddress": "0x57560ea88060739107399670d8905ffca3b57d08",
                    "gasUsed": 3000,
                    "id": 5,
                    "methodDecoded": true,
                    "operation": "STATICCALL",
                    "output": "0x00000000000000000000000022b4a3a7224db951d2804e427fbc3c5fc02b6c5e",
                    "revert": false,
                    "revertMessage": "",
                    "selector": "0x0e5ad4b4",
                    "status": true,
                    "value": "0"
                },
                "nodeType": 0
            },
            "6": {
                "invocation": {
                    "address": "0x0000000000000000000000000000000000000001",
                    "callData": "0x74513a1576122b22e36d66e8e86e73033fa5a81c1e143e694792a586000000000000000000000000000000000000000000000000000000000000001c32660b4a1ba9c8a601488a1f7f15d93f3becc056cf4910e5d83227b4534ac4783cb76952db38fe97bd03a6ba1f5c6f9165ac6ff872ab3d25e25bd88fa0f44778",
                    "decodedMethod": {
                        "callParams": [
                            {
                                "name": "hash",
                                "type": "bytes32",
                                "value": "0x0e5ad4b474513a1576122b22e36d66e8e86e73033fa5a81c1e143e694792a586"
                            },
                            {
                                "name": "v",
                                "type": "uint256",
                                "value": "28"
                            },
                            {
                                "name": "r",
                                "type": "bytes32",
                                "value": "0x32660b4a1ba9c8a601488a1f7f15d93f3becc056cf4910e5d83227b4534ac478"
                            },
                            {
                                "name": "s",
                                "type": "bytes32",
                                "value": "0x3cb76952db38fe97bd03a6ba1f5c6f9165ac6ff872ab3d25e25bd88fa0f44778"
                            }
                        ],
                        "constructorArguments": "",
                        "name": "ecrecover",
                        "returnParams": [
                            {
                                "name": "",
                                "type": "address",
                                "value": "0xbeb19b5ec84ddc9426d84e5ce7403afb7bb56700"
                            }
                        ],
                        "signature": "ecrecover(bytes32,uint256,bytes32,bytes32)"
                    },
                    "errorInfo": "",
                    "fromAddress": "0x57560ea88060739107399670d8905ffca3b57d08",
                    "gasUsed": 3000,
                    "id": 6,
                    "methodDecoded": true,
                    "operation": "STATICCALL",
                    "output": "0x000000000000000000000000beb19b5ec84ddc9426d84e5ce7403afb7bb56700",
                    "revert": false,
                    "revertMessage": "",
                    "selector": "0x0e5ad4b4",
                    "status": true,
                    "value": "0"
                },
                "nodeType": 0
            },
            "7": {
                "event": {
                    "contract": "0x57560ea88060739107399670d8905ffca3b57d08",
                    "decodedLog": {
                        "name": "NewTransmission",
                        "params": [
                            {
                                "name": "aggregatorRoundId",
                                "type": "uint32",
                                "value": "4,258"
                            },
                            {
                                "name": "answer",
                                "type": "int192",
                                "value": "14,785,100,676,860,227"
                            },
                            {
                                "name": "transmitter",
                                "type": "address",
                                "value": "0xc61a7e5a04a5d32ffe8e01f77cb39253bf21d2ac"
                            },
                            {
                                "name": "observations",
                                "type": "int192[]",
                                "value": [
                                    "14,657,638,657,508,382",
                                    "14,751,258,000,000,000",
                                    "14,751,258,000,000,000",
                                    "14,755,678,098,079,855",
                                    "14,769,174,948,252,830",
                                    "14,769,174,948,252,830",
                                    "14,778,091,000,000,000",
                                    "14,778,091,000,000,000",
                                    "14,785,100,676,860,227",
                                    "14,785,100,676,860,227",
                                    "14,808,398,500,000,000",
                                    "14,840,663,550,812,850",
                                    "14,850,959,304,255,460",
                                    "14,853,120,000,000,000",
                                    "14,859,525,439,317,706",
                                    "14,865,930,878,635,412"
                                ]
                            },
                            {
                                "name": "observers",
                                "type": "bytes",
                                "value": "0x02070c0304080b0006090a0f0d050e01"
                            },
                            {
                                "name": "rawReportContext",
                                "type": "bytes32",
                                "value": "0x00000000000000000000001c0e29dcd78cd89afdca83fd726daed00002de0d06"
                            }
                        ],
                        "signature": "NewTransmission(uint32,int192,address,int192[],bytes,bytes32)"
                    },
                    "id": 7,
                    "logData": "0x000000000000000000000000000000000000000000000000003486f881d00943000000000000000000000000c61a7e5a04a5d32ffe8e01f77cb39253bf21d2ac00000000000000000000000000000000000000000000000000000000000000a000000000000000000000000000000000000000000000000000000000000002c000000000000000000000001c0e29dcd78cd89afdca83fd726daed00002de0d0600000000000000000000000000000000000000000000000000000000000000100000000000000000000000000000000000000000000000000034130b716d441e00000000000000000000000000000000000000000000000000346830e514840000000000000000000000000000000000000000000000000000346830e514840000000000000000000000000000000000000000000000000000346c360774c06f0000000000000000000000000000000000000000000000000034787c826a8c9e0000000000000000000000000000000000000000000000000034787c826a8c9e0000000000000000000000000000000000000000000000000034809870836e000000000000000000000000000000000000000000000000000034809870836e00000000000000000000000000000000000000000000000000003486f881d00943000000000000000000000000000000000000000000000000003486f881d0094300000000000000000000000000000000000000000000000000349c28f448f1000000000000000000000000000000000000000000000000000034b9813f2d62b20000000000000000000000000000000000000000000000000034c2de69e767e40000000000000000000000000000000000000000000000000034c4d57d6800000000000000000000000000000000000000000000000000000034caa8df5766ca0000000000000000000000000000000000000000000000000034d07c4146cd94000000000000000000000000000000000000000000000000000000000000001002070c0304080b0006090a0f0d050e0100000000000000000000000000000000",
                    "logDecoded": true,
                    "operation": "EVENT",
                    "revert": false,
                    "status": true,
                    "topics": [
                        "0xf6a97944f31ea060dfde0566e4167c1a1082551e64b60ecb14d599a9d023d451",
                        "0x00000000000000000000000000000000000000000000000000000000000010a2"
                    ]
                },
                "nodeType": 1
            },
            "8": {
                "event": {
                    "contract": "0x57560ea88060739107399670d8905ffca3b57d08",
                    "decodedLog": {
                        "name": "NewRound",
                        "params": [
                            {
                                "name": "roundId",
                                "type": "uint256",
                                "value": "4,258"
                            },
                            {
                                "name": "startedBy",
                                "type": "address",
                                "value": "0x0000000000000000000000000000000000000000"
                            },
                            {
                                "name": "startedAt",
                                "type": "uint256",
                                "value": "1,649,853,239"
                            }
                        ],
                        "signature": "NewRound(uint256,address,uint256)"
                    },
                    "id": 8,
                    "logData": "0x000000000000000000000000000000000000000000000000000000006256c337",
                    "logDecoded": true,
                    "operation": "EVENT",
                    "revert": false,
                    "status": true,
                    "topics": [
                        "0x0109fc6f55cf40689f02fbaad7af7fe7bbac8a3d2186600afc7d3e10cac60271",
                        "0x00000000000000000000000000000000000000000000000000000000000010a2",
                        "0x0000000000000000000000000000000000000000000000000000000000000000"
                    ]
                },
                "nodeType": 1
            },
            "9": {
                "event": {
                    "contract": "0x57560ea88060739107399670d8905ffca3b57d08",
                    "decodedLog": {
                        "name": "AnswerUpdated",
                        "params": [
                            {
                                "name": "current",
                                "type": "int256",
                                "value": "14,785,100,676,860,227"
                            },
                            {
                                "name": "roundId",
                                "type": "uint256",
                                "value": "4,258"
                            },
                            {
                                "name": "updatedAt",
                                "type": "uint256",
                                "value": "1,649,853,239"
                            }
                        ],
                        "signature": "AnswerUpdated(int256,uint256,uint256)"
                    },
                    "id": 9,
                    "logData": "0x000000000000000000000000000000000000000000000000000000006256c337",
                    "logDecoded": true,
                    "operation": "EVENT",
                    "revert": false,
                    "status": true,
                    "topics": [
                        "0x0559884fd3a460db3073b7fc896cc77986f16e378210ded43186175bf646fc5f",
                        "0x000000000000000000000000000000000000000000000000003486f881d00943",
                        "0x00000000000000000000000000000000000000000000000000000000000010a2"
                    ]
                },
                "nodeType": 1
            }
        },
        "gasFlame": [
            {
                "children": [
                    {
                        "children": [
                            {
                                "children": [],
                                "depth": 0,
                                "name": "Initial Gas",
                                "value": 32512
                            },
                            {
                                "children": [
                                    {
                                        "children": [],
                                        "depth": 1,
                                        "name": "ecrecover",
                                        "value": 3000
                                    },
                                    {
                                        "children": [],
                                        "depth": 1,
                                        "name": "ecrecover",
                                        "value": 3000
                                    },
                                    {
                                        "children": [],
                                        "depth": 1,
                                        "name": "ecrecover",
                                        "value": 3000
                                    },
                                    {
                                        "children": [],
                                        "depth": 1,
                                        "name": "ecrecover",
                                        "value": 3000
                                    },
                                    {
                                        "children": [],
                                        "depth": 1,
                                        "name": "ecrecover",
                                        "value": 3000
                                    },
                                    {
                                        "children": [],
                                        "depth": 1,
                                        "name": "ecrecover",
                                        "value": 3000
                                    }
                                ],
                                "depth": 0,
                                "name": "Executed Gas",
                                "value": 144427
                            }
                        ],
                        "depth": -1,
                        "name": "Actual Gas Used",
                        "value": 176939
                    },
                    {
                        "children": [],
                        "depth": -1,
                        "name": "Refunded Gas",
                        "value": 0
                    }
                ],
                "depth": -2,
                "name": "Total Gas",
                "value": 176939
            }
        ],
        "isConfirmed": true,
        "mainTrace": [
            {
                "children": [
                    {
                        "children": [
                            {
                                "children": [],
                                "depth": 1,
                                "id": 1,
                                "order": 1
                            },
                            {
                                "children": [],
                                "depth": 1,
                                "id": 2,
                                "order": 2
                            },
                            {
                                "children": [],
                                "depth": 1,
                                "id": 3,
                                "order": 3
                            },
                            {
                                "children": [],
                                "depth": 1,
                                "id": 4,
                                "order": 4
                            },
                            {
                                "children": [],
                                "depth": 1,
                                "id": 5,
                                "order": 5
                            },
                            {
                                "children": [],
                                "depth": 1,
                                "id": 6,
                                "order": 6
                            },
                            {
                                "children": [],
                                "depth": 1,
                                "id": 7,
                                "order": 7
                            },
                            {
                                "children": [],
                                "depth": 1,
                                "id": 8,
                                "order": 8
                            },
                            {
                                "children": [],
                                "depth": 1,
                                "id": 9,
                                "order": 9
                            }
                        ],
                        "depth": 0,
                        "id": 0,
                        "order": 0
                    }
                ],
                "depth": -1,
                "id": -1,
                "order": -1
            }
        ],
        "mainTraceNodeCount": 10,
        "parentIdMap": {
            "0": -1,
            "1": 0,
            "2": 0,
            "3": 0,
            "4": 0,
            "5": 0,
            "6": 0,
            "7": 0,
            "8": 0,
            "9": 0
        },
        "tidyTrace": [
            {
                "children": [
                    {
                        "children": [
                            {
                                "children": [],
                                "depth": 1,
                                "id": 7,
                                "order": 7
                            },
                            {
                                "children": [],
                                "depth": 1,
                                "id": 8,
                                "order": 8
                            },
                            {
                                "children": [],
                                "depth": 1,
                                "id": 9,
                                "order": 9
                            }
                        ],
                        "depth": 0,
                        "id": 0,
                        "order": 0
                    }
                ],
                "depth": -1,
                "id": -1,
                "order": -1
            }
        ],
        "tidyTraceNodeCount": 4
    },
    "state_change": {
        "stateChanges": [
            {
                "address": "0x57560ea88060739107399670d8905ffca3b57d08",
                "erc": "",
                "slots": [
                    {
                        "current": "0x000000000000000010a2050002de0d061c0e29dcd78cd89afdca83fd726daed0",
                        "key": "0x000000000000000000000000000000000000000000000000000000000000002a",
                        "prev": "0x000000000000000010a1050002de08021c0e29dcd78cd89afdca83fd726daed0"
                    },
                    {
                        "current": "0x0014001400140014001400130014001400140014001400140014001300140014",
                        "key": "0x0000000000000000000000000000000000000000000000000000000000000004",
                        "prev": "0x0013001300130013001300120013001300130013001300130013001200130013"
                    },
                    {
                        "current": "0x0000000000000000000000000000000000000000000000004bee2040cd887801",
                        "key": "0x0000000000000000000000000000000000000000000000000000000000000012",
                        "prev": "0x00000000000000000000000000000000000000000000000028b7247d92593801"
                    },
                    {
                        "current": "0x000000006256c33700000000000000000000000000000000003486f881d00943",
                        "key": "0x6702d7129f8274b0253e122645e5d08fdbb184dc283633e4dfe17bea7b35f238",
                        "prev": "0x0000000000000000000000000000000000000000000000000000000000000000"
                    }
                ],
                "storageVariables": [
                    {
                        "name": "s_transmissions",
                        "type": "mapping(uint32 => struct OffchainAggregator.Transmission)",
                        "value": {
                            "pairs": [
                                {
                                    "key": "4258",
                                    "value": {
                                        "fields": [
                                            {
                                                "name": "answer",
                                                "type": "int192",
                                                "value": {
                                                    "current": "14785100676860227",
                                                    "prev": "0",
                                                    "typeTag": 1
                                                }
                                            },
                                            {
                                                "name": "timestamp",
                                                "type": "uint64",
                                                "value": {
                                                    "current": "1649853239",
                                                    "prev": "0",
                                                    "typeTag": 1
                                                }
                                            }
                                        ],
                                        "typeTag": 3
                                    }
                                }
                            ],
                            "typeTag": 4
                        }
                    },
                    {
                        "name": "s_hotVars",
                        "type": "struct OffchainAggregator.HotVars",
                        "value": {
                            "fields": [
                                {
                                    "name": "latestConfigDigest",
                                    "type": "bytes16",
                                    "value": {
                                        "current": "0x1c0e29dcd78cd89afdca83fd726daed0",
                                        "prev": "0x1c0e29dcd78cd89afdca83fd726daed0",
                                        "typeTag": 1
                                    }
                                },
                                {
                                    "name": "latestEpochAndRound",
                                    "type": "uint40",
                                    "value": {
                                        "current": "48106758",
                                        "prev": "48105474",
                                        "typeTag": 1
                                    }
                                },
                                {
                                    "name": "threshold",
                                    "type": "uint8",
                                    "value": {
                                        "current": "5",
                                        "prev": "5",
                                        "typeTag": 1
                                    }
                                },
                                {
                                    "name": "latestAggregatorRoundId",
                                    "type": "uint32",
                                    "value": {
                                        "current": "4258",
                                        "prev": "4257",
                                        "typeTag": 1
                                    }
                                }
                            ],
                            "typeTag": 3
                        }
                    },
                    {
                        "name": "s_oracleObservationsCounts",
                        "type": "uint16[31]",
                        "value": {
                            "elemType": "uint16",
                            "elems": [
                                {
                                    "index": 0,
                                    "value": {
                                        "current": "20",
                                        "prev": "19",
                                        "typeTag": 1
                                    }
                                },
                                {
                                    "index": 1,
                                    "value": {
                                        "current": "20",
                                        "prev": "19",
                                        "typeTag": 1
                                    }
                                },
                                {
                                    "index": 2,
                                    "value": {
                                        "current": "19",
                                        "prev": "18",
                                        "typeTag": 1
                                    }
                                },
                                {
                                    "index": 3,
                                    "value": {
                                        "current": "20",
                                        "prev": "19",
                                        "typeTag": 1
                                    }
                                },
                                {
                                    "index": 4,
                                    "value": {
                                        "current": "20",
                                        "prev": "19",
                                        "typeTag": 1
                                    }
                                },
                                {
                                    "index": 5,
                                    "value": {
                                        "current": "20",
                                        "prev": "19",
                                        "typeTag": 1
                                    }
                                },
                                {
                                    "index": 6,
                                    "value": {
                                        "current": "20",
                                        "prev": "19",
                                        "typeTag": 1
                                    }
                                },
                                {
                                    "index": 7,
                                    "value": {
                                        "current": "20",
                                        "prev": "19",
                                        "typeTag": 1
                                    }
                                },
                                {
                                    "index": 8,
                                    "value": {
                                        "current": "20",
                                        "prev": "19",
                                        "typeTag": 1
                                    }
                                },
                                {
                                    "index": 9,
                                    "value": {
                                        "current": "20",
                                        "prev": "19",
                                        "typeTag": 1
                                    }
                                },
                                {
                                    "index": 10,
                                    "value": {
                                        "current": "19",
                                        "prev": "18",
                                        "typeTag": 1
                                    }
                                },
                                {
                                    "index": 11,
                                    "value": {
                                        "current": "20",
                                        "prev": "19",
                                        "typeTag": 1
                                    }
                                },
                                {
                                    "index": 12,
                                    "value": {
                                        "current": "20",
                                        "prev": "19",
                                        "typeTag": 1
                                    }
                                },
                                {
                                    "index": 13,
                                    "value": {
                                        "current": "20",
                                        "prev": "19",
                                        "typeTag": 1
                                    }
                                },
                                {
                                    "index": 14,
                                    "value": {
                                        "current": "20",
                                        "prev": "19",
                                        "typeTag": 1
                                    }
                                }
                            ],
                            "typeTag": 2
                        }
                    }
                ]
            }
        ]
    }
}