{
    "balance_change": {
        "balanceChanges": [
            {
                "account": "0x6cc5f688a315f3dc28a7781717a9a798a59fda7b",
                "assets": [
                    {
                        "address": "0xfb5c6815ca3ac72ce9f5006869ae67f18bf77006",
                        "amount": "80,018.33120243",
                        "iconUrl": "https://assets.blocksec.com/icon/294b425d625b6b316a888278e84120a86d4043bcbe759819544824135b220ba1.png",
                        "isERC1155": false,
                        "isERC721": false,
                        "sign": false,
                        "value": "11410.614029120000363"
                    }
                ]
            },
            {
                "account": "0xd95adc73c60c42091d0bf89ffe9e500f778f1b6b",
                "assets": [
                    {
                        "address": "0xfb5c6815ca3ac72ce9f5006869ae67f18bf77006",
                        "amount": "80,018.33120243",
                        "iconUrl": "https://assets.blocksec.com/icon/294b425d625b6b316a888278e84120a86d4043bcbe759819544824135b220ba1.png",
                        "isERC1155": false,
                        "isERC721": false,
                        "sign": true,
                        "value": "11410.614029120000363"
                    }
                ]
            }
        ]
    },
    "profile": {
        "basic_info": {
            "baseFee": "50.84238907",
            "blockNumber": 16570814,
            "callData": "0xa9059cbb000000000000000000000000d95adc73c60c42091d0bf89ffe9e500f778f1b6b0000000000000000000000000000000000000000000010f1cd6bd1524bed6c00",
            "debugEnable": true,
            "errorInfo": "",
            "eventCount": 1,
            "feeRecipient": "0xdafea492d9c6733ae3d56b7ed1adb60692c98bc5",
            "formatValue": "0",
            "gasLimit": 420000,
            "gasPrice": "59.442917227",
            "gasUsed": 58031,
            "intTxnCount": 0,
            "internalRevert": false,
            "internalRevertMessage": "",
            "isContractCreation": false,
            "isFlashloan": false,
            "maxFee": "116.477444911",
            "nonce": 2342979,
            "overwritedBlockNumber": -1,
            "priorityFee": "8.600528157",
            "receiver": "0xfb5c6815ca3ac72ce9f5006869ae67f18bf77006",
            "revertMessage": "",
            "sender": "0x6cc5f688a315f3dc28a7781717a9a798a59fda7b",
            "simulationEnable": true,
            "sourceTxnHash": "0xf51e1b5372109edebd258d0e1a11bb8de030658289d8d58c3dd677d1735b71ef",
            "status": true,
            "timestamp": "2023-02-06T16:02:59Z",
            "transactionFee": "0.003449531929600037",
            "txnHash": "0xf51e1b5372109edebd258d0e1a11bb8de030658289d8d58c3dd677d1735b71ef",
            "txnIndex": 18,
            "type": 2,
            "value": "0"
        },
        "fund_flow": [
            {
                "amount": "80,018.33120243",
                "from": "0x6cc5f688a315f3dc28a7781717a9a798a59fda7b",
                "id": 1,
                "isERC1155": false,
                "isERC721": false,
                "isReverted": false,
                "order": 1,
                "to": "0xd95adc73c60c42091d0bf89ffe9e500f778f1b6b",
                "token": "0xfb5c6815ca3ac72ce9f5006869ae67f18bf77006"
            }
        ],
        "token_infos": [
            {
                "address": "0xc02aaa39b223fe8d0a0e5c4f27ead9083c756cc2",
                "decimals": 18
            },
            {
                "address": "0xfb5c6815ca3ac72ce9f5006869ae67f18bf77006",
                "decimals": 18
            },
            {
                "address": "0xeeeeeeeeeeeeeeeeeeeeeeeeeeeeeeeeeeeeeeee",
                "decimals": 18
            }
        ]
    },
    "address_label": {
        "labels": [
            {
                "address": "0xeeeeeeeeeeeeeeeeeeeeeeeeeeeeeeeeeeeeeeee",
                "label": "Ether"
            },
            {
                "address": "0x6cc5f688a315f3dc28a7781717a9a798a59fda7b",
                "label": "OKX"
            },
            {
                "address": "0xd95adc73c60c42091d0bf89ffe9e500f778f1b6b",
                "label": "KUCOIN"
            },
            {
                "address": "0xfb5c6815ca3ac72ce9f5006869ae67f18bf77006",
                "label": "pSTAKE Finance: PSTAKE Token"
            },
            {
                "address": "0x0000000000000000000000000000000000000001",
                "label": "Precompiled"
            },
            {
                "address": "0x0000000000000000000000000000000000000002",
                "label": "Precompiled"
            },
            {
                "address": "0x0000000000000000000000000000000000000003",
                "label": "Precompiled"
            },
            {
                "address": "0x0000000000000000000000000000000000000004",
                "label": "Precompiled"
            }
        ]
    },
    "trace": {
        "accountLabels": null,
        "dataMap": {
            "-1": {
                "invocation": {
                    "address": "0x6cc5f688a315f3dc28a7781717a9a798a59fda7b",
                    "callData": "",
                    "decodedMethod": null,
                    "errorInfo": "",
                    "fromAddress": "",
                    "gasUsed": 0,
                    "id": -1,
                    "methodDecoded": false,
                    "operation": "",
                    "output": "",
                    "revert": false,
                    "revertMessage": "",
                    "selector": "",
                    "status": false,
                    "value": ""
                },
                "nodeType": 0
            },
            "0": {
                "invocation": {
                    "address": "0xfb5c6815ca3ac72ce9f5006869ae67f18bf77006",
                    "callData": "0x000000000000000000000000d95adc73c60c42091d0bf89ffe9e500f778f1b6b0000000000000000000000000000000000000000000010f1cd6bd1524bed6c00",
                    "decodedMethod": {
                        "callParams": [
                            {
                                "name": "dst",
                                "type": "address",
                                "value": "0xd95adc73c60c42091d0bf89ffe9e500f778f1b6b"
                            },
                            {
                                "decimalAvailable": true,
                                "name": "rawAmount",
                                "type": "uint256",
                                "value": "80,018,331,202,430,000,000,000"
                            }
                        ],
                        "constructorArguments": "",
                        "name": "transfer",
                        "returnParams": [
                            {
                                "name": "",
                                "type": "bool",
                                "value": true
                            }
                        ],
                        "signature": "transfer(address,uint256)"
                    },
                    "errorInfo": "",
                    "fromAddress": "0x6cc5f688a315f3dc28a7781717a9a798a59fda7b",
                    "gasUsed": 58031,
                    "id": 0,
                    "methodDecoded": true,
                    "operation": "CALL",
                    "output": "0x0000000000000000000000000000000000000000000000000000000000000001",
                    "revert": false,
                    "revertMessage": "",
                    "selector": "0xa9059cbb",
                    "status": true,
                    "value": "0"
                },
                "nodeType": 0
            },
            "1": {
                "event": {
                    "contract": "0xfb5c6815ca3ac72ce9f5006869ae67f18bf77006",
                    "decodedLog": {
                        "name": "Transfer",
                        "params": [
                            {
                                "name": "from",
                                "type": "address",
                                "value": "0x6cc5f688a315f3dc28a7781717a9a798a59fda7b"
                            },
                            {
                                "name": "to",
                                "type": "address",
                                "value": "0xd95adc73c60c42091d0bf89ffe9e500f778f1b6b"
                            },
                            {
                                "decimalAvailable": true,
                                "name": "value",
                                "type": "uint256",
                                "value": "80,018,331,202,430,000,000,000"
                            }
                        ],
                        "signature": "Transfer(address,address,uint256)"
                    },
                    "id": 1,
                    "logData": "0x0000000000000000000000000000000000000000000010f1cd6bd1524bed6c00",
                    "logDecoded": true,
                    "operation": "EVENT",
                    "revert": false,
                    "status": true,
                    "topics": [
                        "0xddf252ad1be2c89b69c2b068fc378daa952ba7f163c4a11628f55a4df523b3ef",
                        "0x0000000000000000000000006cc5f688a315f3dc28a7781717a9a798a59fda7b",
                        "0x000000000000000000000000d95adc73c60c42091d0bf89ffe9e500f778f1b6b"
                    ]
                },
                "nodeType": 1
            }
        },
        "gasFlame": [
            {
                "children": [
                    {
                        "children": [
                            {
                                "children": [],
                                "depth": 0,
                                "name": "Initial Gas",
                                "value": 21668
                            },
                            {
                                "children": [],
                                "depth": 0,
                                "name": "Executed Gas",
                                "value": 36363
                            }
                        ],
                        "depth": -1,
                        "name": "Actual Gas Used",
                        "value": 58031
                    },
                    {
                        "children": [],
                        "depth": -1,
                        "name": "Refunded Gas",
                        "value": 0
                    }
                ],
                "depth": -2,
                "name": "Total Gas",
                "value": 58031
            }
        ],
        "isConfirmed": true,
        "mainTrace": [
            {
                "children": [
                    {
                        "children": [
                            {
                                "children": [],
                                "depth": 1,
                                "id": 1,
                                "order": 1
                            }
                        ],
                        "depth": 0,
                        "id": 0,
                        "order": 0
                    }
                ],
                "depth": -1,
                "id": -1,
                "order": -1
            }
        ],
        "mainTraceNodeCount": 2,
        "parentIdMap": {
            "0": -1,
            "1": 0
        },
        "tidyTrace": [
            {
                "children": [
                    {
                        "children": [
                            {
                                "children": [],
                                "depth": 1,
                                "id": 1,
                                "order": 1
                            }
                        ],
                        "depth": 0,
                        "id": 0,
                        "order": 0
                    }
                ],
                "depth": -1,
                "id": -1,
                "order": -1
            }
        ],
        "tidyTraceNodeCount": 2
    },
    "state_change": {
        "stateChanges": [
            {
                "address": "0xfb5c6815ca3ac72ce9f5006869ae67f18bf77006",
                "erc": "ERC-20",
                "slots": [
                    {
                        "current": "0x0000000000000000000000000000000000000000000c2eb83cd71a63d7bc915b",
                        "key": "0x8a218ec5a587db7304f129476013c33a17714948651ee146dc8afbd43ab5133e",
                        "prev": "0x0000000000000000000000000000000000000000000c3faa0a42ebb623a9fd5b"
                    },
                    {
                        "current": "0x0000000000000000000000000000000000000000000010f1cd6bd1524bed6c00",
                        "key": "0x6ed123e7888e28c13f132d441e2e2e467bb95b0754b1b87490006e4606138d67",
                        "prev": "0x0000000000000000000000000000000000000000000000000000000000000000"
                    }
                ],
                "storageVariables": [
                    {
                        "name": "balances",
                        "type": "mapping(address => uint96)",
                        "value": {
                            "pairs": [
                                {
                                    "key": "0x6cc5f688a315f3dc28a7781717a9a798a59fda7b",
                                    "value": {
                                        "current": "14727737278498894725812571",
                                        "prev": "14807755609701324725812571",
                                        "typeTag": 1
                                    }
                                },
                                {
                                    "key": "0xd95adc73c60c42091d0bf89ffe9e500f778f1b6b",
                                    "value": {
                                        "current": "80018331202430000000000",
                                        "prev": "0",
                                        "typeTag": 1
                                    }
                                }
                            ],
                            "typeTag": 4
                        }
                    }
                ]
            }
        ]
    }
}