{
    "balance_change": {
        "balanceChanges": [
            {
                "account": "0xf925df4b2fa4a3a887b008cfc0b23cd12cf3cff9",
                "assets": [
                    {
                        "address": "0xe5a3229ccb22b6484594973a03a3851dcd948756",
                        "amount": "21.975362956445226573",
                        "iconUrl": "https://assets.blocksec.com/icon/32ed8ee1b8be3507021df57378a57f5b7e167f4c28d9420a60baee7ccbb5603b.png",
                        "isERC1155": false,
                        "isERC721": false,
                        "sign": false,
                        "value": ""
                    }
                ]
            },
            {
                "account": "0x0000000000000000000000000000000000000000",
                "assets": [
                    {
                        "address": "0xe5a3229ccb22b6484594973a03a3851dcd948756",
                        "amount": "21.975362956445226573",
                        "iconUrl": "https://assets.blocksec.com/icon/32ed8ee1b8be3507021df57378a57f5b7e167f4c28d9420a60baee7ccbb5603b.png",
                        "isERC1155": false,
                        "isERC721": false,
                        "sign": true,
                        "value": ""
                    }
                ]
            }
        ]
    },
    "profile": {
        "basic_info": {
            "baseFee": "",
            "blockNumber": 9561838,
            "callData": "0x42966c6800000000000000000000000000000000000000000000000130f82c2dad32164d",
            "debugEnable": true,
            "errorInfo": "",
            "eventCount": 1,
            "feeRecipient": "0x829bd824b016326a401d083b33d092293333a830",
            "formatValue": "0",
            "gasLimit": 40000,
            "gasPrice": "19",
            "gasUsed": 36407,
            "intTxnCount": 0,
            "internalRevert": false,
            "internalRevertMessage": "",
            "isContractCreation": false,
            "isFlashloan": false,
            "maxFee": "",
            "nonce": 15218,
            "overwritedBlockNumber": -1,
            "priorityFee": "",
            "receiver": "0xe5a3229ccb22b6484594973a03a3851dcd948756",
            "revertMessage": "",
            "sender": "0xf925df4b2fa4a3a887b008cfc0b23cd12cf3cff9",
            "simulationEnable": true,
            "sourceTxnHash": "0xf50174417ee00a1fa05733f79101314be273519b84dcc06d048a34868b6711ed",
            "status": true,
            "timestamp": "2020-02-26T22:23:16Z",
            "transactionFee": "0.000691733",
            "txnHash": "0xf50174417ee00a1fa05733f79101314be273519b84dcc06d048a34868b6711ed",
            "txnIndex": 1,
            "type": 0,
            "value": "0"
        },
        "fund_flow": [
            {
                "amount": "21.975362956445226573",
                "from": "0xf925df4b2fa4a3a887b008cfc0b23cd12cf3cff9",
                "id": 1,
                "isERC1155": false,
                "isERC721": false,
                "isReverted": false,
                "order": 1,
                "to": "0x0000000000000000000000000000000000000000",
                "token": "0xe5a3229ccb22b6484594973a03a3851dcd948756"
            }
        ],
        "token_infos": [
            {
                "address": "0xc02aaa39b223fe8d0a0e5c4f27ead9083c756cc2",
                "decimals": 18
            },
            {
                "address": "0xe5a3229ccb22b6484594973a03a3851dcd948756",
                "decimals": 18
            },
            {
                "address": "0xeeeeeeeeeeeeeeeeeeeeeeeeeeeeeeeeeeeeeeee",
                "decimals": 18
            }
        ]
    },
    "address_label": {
        "labels": [
            {
                "address": "0x0000000000000000000000000000000000000003",
                "label": "Precompiled"
            },
            {
                "address": "0x0000000000000000000000000000000000000004",
                "label": "Precompiled"
            },
            {
                "address": "0xeeeeeeeeeeeeeeeeeeeeeeeeeeeeeeeeeeeeeeee",
                "label": "Ether"
            },
            {
                "address": "0xe5a3229ccb22b6484594973a03a3851dcd948756",
                "label": "RAE: RAE Token"
            },
            {
                "address": "0xf925df4b2fa4a3a887b008cfc0b23cd12cf3cff9",
                "label": "RAE: Deployer"
            },
            {
                "address": "0x0000000000000000000000000000000000000001",
                "label": "Precompiled"
            },
            {
                "address": "0x0000000000000000000000000000000000000002",
                "label": "Precompiled"
            }
        ]
    },
    "trace": {
        "accountLabels": null,
        "dataMap": {
            "-1": {
                "invocation": {
                    "address": "0xf925df4b2fa4a3a887b008cfc0b23cd12cf3cff9",
                    "callData": "",
                    "decodedMethod": null,
                    "errorInfo": "",
                    "fromAddress": "",
                    "gasUsed": 0,
                    "id": -1,
                    "methodDecoded": false,
                    "operation": "",
                    "output": "",
                    "revert": false,
                    "revertMessage": "",
                    "selector": "",
                    "status": false,
                    "value": ""
                },
                "nodeType": 0
            },
            "0": {
                "invocation": {
                    "address": "0xe5a3229ccb22b6484594973a03a3851dcd948756",
                    "callData": "0x00000000000000000000000000000000000000000000000130f82c2dad32164d",
                    "decodedMethod": {
                        "callParams": [
                            {
                                "name": "value",
                                "type": "uint256",
                                "value": "21,975,362,956,445,226,573"
                            }
                        ],
                        "constructorArguments": "",
                        "name": "burn",
                        "returnParams": [],
                        "signature": "burn(uint256)"
                    },
                    "errorInfo": "",
                    "fromAddress": "0xf925df4b2fa4a3a887b008cfc0b23cd12cf3cff9",
                    "gasUsed": 36407,
                    "id": 0,
                    "methodDecoded": true,
                    "operation": "CALL",
                    "output": "",
                    "revert": false,
                    "revertMessage": "",
                    "selector": "0x42966c68",
                    "status": true,
                    "value": "0"
                },
                "nodeType": 0
            },
            "1": {
                "event": {
                    "contract": "0xe5a3229ccb22b6484594973a03a3851dcd948756",
                    "decodedLog": {
                        "name": "Transfer",
                        "params": [
                            {
                                "name": "from",
                                "type": "address",
                                "value": "0xf925df4b2fa4a3a887b008cfc0b23cd12cf3cff9"
                            },
                            {
                                "name": "to",
                                "type": "address",
                                "value": "0x0000000000000000000000000000000000000000"
                            },
                            {
                                "decimalAvailable": true,
                                "name": "value",
                                "type": "uint256",
                                "value": "21,975,362,956,445,226,573"
                            }
                        ],
                        "signature": "Transfer(address,address,uint256)"
                    },
                    "id": 1,
                    "logData": "0x00000000000000000000000000000000000000000000000130f82c2dad32164d",
                    "logDecoded": true,
                    "operation": "EVENT",
                    "revert": false,
                    "status": true,
                    "topics": [
                        "0xddf252ad1be2c89b69c2b068fc378daa952ba7f163c4a11628f55a4df523b3ef",
                        "0x000000000000000000000000f925df4b2fa4a3a887b008cfc0b23cd12cf3cff9",
                        "0x0000000000000000000000000000000000000000000000000000000000000000"
                    ]
                },
                "nodeType": 1
            }
        },
        "gasFlame": [
            {
                "children": [
                    {
                        "children": [
                            {
                                "children": [],
                                "depth": 0,
                                "name": "Initial Gas",
                                "value": 21300
                            },
                            {
                                "children": [],
                                "depth": 0,
                                "name": "Executed Gas",
                                "value": 15107
                            }
                        ],
                        "depth": -1,
                        "name": "Actual Gas Used",
                        "value": 36407
                    },
                    {
                        "children": [],
                        "depth": -1,
                        "name": "Refunded Gas",
                        "value": 0
                    }
                ],
                "depth": -2,
                "name": "Total Gas",
                "value": 36407
            }
        ],
        "isConfirmed": true,
        "mainTrace": [
            {
                "children": [
                    {
                        "children": [
                            {
                                "children": [],
                                "depth": 1,
                                "id": 1,
                                "order": 1
                            }
                        ],
                        "depth": 0,
                        "id": 0,
                        "order": 0
                    }
                ],
                "depth": -1,
                "id": -1,
                "order": -1
            }
        ],
        "mainTraceNodeCount": 2,
        "parentIdMap": {
            "0": -1,
            "1": 0
        },
        "tidyTrace": [
            {
                "children": [
                    {
                        "children": [
                            {
                                "children": [],
                                "depth": 1,
                                "id": 1,
                                "order": 1
                            }
                        ],
                        "depth": 0,
                        "id": 0,
                        "order": 0
                    }
                ],
                "depth": -1,
                "id": -1,
                "order": -1
            }
        ],
        "tidyTraceNodeCount": 2
    },
    "state_change": {
        "stateChanges": [
            {
                "address": "0xe5a3229ccb22b6484594973a03a3851dcd948756",
                "erc": "ERC-20",
                "slots": [
                    {
                        "current": "0x000000000000000000000000000000000000000000021f5b014ebb54d59cf4aa",
                        "key": "0x0000000000000000000000000000000000000000000000000000000000000005",
                        "prev": "0x000000000000000000000000000000000000000000021f5c3246e78282cf0af7"
                    },
                    {
                        "current": "0x00000000000000000000000000000000000000000000089fdf211e1a4054a32c",
                        "key": "0xf1071fa51acabcd3a2a37f89e6f1879a4c4fec826eff0eca7a507089b7228a1e",
                        "prev": "0x0000000000000000000000000000000000000000000008a110194a47ed86b979"
                    }
                ],
                "storageVariables": [
                    {
                        "name": "_totalSupply",
                        "type": "uint256",
                        "value": {
                            "current": "2565923748127540177073322",
                            "prev": "2565945723490496622299895",
                            "typeTag": 1
                        }
                    },
                    {
                        "name": "_balances",
                        "type": "mapping(address => uint256)",
                        "value": {
                            "pairs": [
                                {
                                    "key": "0xf925df4b2fa4a3a887b008cfc0b23cd12cf3cff9",
                                    "value": {
                                        "current": "40728042335919767069484",
                                        "prev": "40750017698876212296057",
                                        "typeTag": 1
                                    }
                                }
                            ],
                            "typeTag": 4
                        }
                    }
                ]
            }
        ]
    }
}