{
    "balance_change": {
        "balanceChanges": [
            {
                "account": "0xd51264990019b10c29bd6214ef5f9608adb5d5ed",
                "assets": [
                    {
                        "address": "0x9457725777a69922af16f3f3d58a92dae1995856",
                        "amount": "66",
                        "iconUrl": "",
                        "isERC1155": false,
                        "isERC721": false,
                        "sign": false,
                        "value": ""
                    }
                ]
            },
            {
                "account": "0x2c6b2d7b8c0af8ef4ad541035d1c74ebed411f44",
                "assets": [
                    {
                        "address": "0x9457725777a69922af16f3f3d58a92dae1995856",
                        "amount": "66",
                        "iconUrl": "",
                        "isERC1155": false,
                        "isERC721": false,
                        "sign": true,
                        "value": ""
                    }
                ]
            }
        ]
    },
    "profile": {
        "basic_info": {
            "baseFee": "",
            "blockNumber": 5719056,
            "callData": "0xa9059cbb0000000000000000000000002c6b2d7b8c0af8ef4ad541035d1c74ebed411f4400000000000000000000000000000000000000000000000393ef1a5127c80000",
            "debugEnable": true,
            "errorInfo": "",
            "eventCount": 1,
            "feeRecipient": "0x5a0b54d5dc17e0aadc383d2db43b0a0d3e029c4c",
            "formatValue": "0",
            "gasLimit": 80000,
            "gasPrice": "6.1",
            "gasUsed": 52965,
            "intTxnCount": 0,
            "internalRevert": false,
            "internalRevertMessage": "",
            "isContractCreation": false,
            "isFlashloan": false,
            "maxFee": "",
            "nonce": 25,
            "overwritedBlockNumber": -1,
            "priorityFee": "",
            "receiver": "0x9457725777a69922af16f3f3d58a92dae1995856",
            "revertMessage": "",
            "sender": "0xd51264990019b10c29bd6214ef5f9608adb5d5ed",
            "simulationEnable": true,
            "sourceTxnHash": "0xf5e8db99964bc4cddacbcbd7ac6fd9a98fec6a7057f35e397a1e8550b49d6bff",
            "status": true,
            "timestamp": "2018-06-02T10:30:03Z",
            "transactionFee": "0.0003230865",
            "txnHash": "0xf5e8db99964bc4cddacbcbd7ac6fd9a98fec6a7057f35e397a1e8550b49d6bff",
            "txnIndex": 104,
            "type": 0,
            "value": "0"
        },
        "fund_flow": [
            {
                "amount": "66",
                "from": "0xd51264990019b10c29bd6214ef5f9608adb5d5ed",
                "id": 1,
                "isERC1155": false,
                "isERC721": false,
                "isReverted": false,
                "order": 1,
                "to": "0x2c6b2d7b8c0af8ef4ad541035d1c74ebed411f44",
                "token": "0x9457725777a69922af16f3f3d58a92dae1995856"
            }
        ],
        "token_infos": [
            {
                "address": "0x9457725777a69922af16f3f3d58a92dae1995856",
                "decimals": 18
            },
            {
                "address": "0xc02aaa39b223fe8d0a0e5c4f27ead9083c756cc2",
                "decimals": 18
            },
            {
                "address": "0xeeeeeeeeeeeeeeeeeeeeeeeeeeeeeeeeeeeeeeee",
                "decimals": 18
            }
        ]
    },
    "address_label": {
        "labels": [
            {
                "address": "0x9457725777a69922af16f3f3d58a92dae1995856",
                "label": "TTB"
            },
            {
                "address": "0x0000000000000000000000000000000000000001",
                "label": "Precompiled"
            },
            {
                "address": "0x0000000000000000000000000000000000000002",
                "label": "Precompiled"
            },
            {
                "address": "0x0000000000000000000000000000000000000003",
                "label": "Precompiled"
            },
            {
                "address": "0x0000000000000000000000000000000000000004",
                "label": "Precompiled"
            },
            {
                "address": "0xeeeeeeeeeeeeeeeeeeeeeeeeeeeeeeeeeeeeeeee",
                "label": "Ether"
            }
        ]
    },
    "trace": {
        "accountLabels": null,
        "dataMap": {
            "-1": {
                "invocation": {
                    "address": "0xd51264990019b10c29bd6214ef5f9608adb5d5ed",
                    "callData": "",
                    "decodedMethod": null,
                    "errorInfo": "",
                    "fromAddress": "",
                    "gasUsed": 0,
                    "id": -1,
                    "methodDecoded": false,
                    "operation": "",
                    "output": "",
                    "revert": false,
                    "revertMessage": "",
                    "selector": "",
                    "status": false,
                    "value": ""
                },
                "nodeType": 0
            },
            "0": {
                "invocation": {
                    "address": "0x9457725777a69922af16f3f3d58a92dae1995856",
                    "callData": "0x0000000000000000000000002c6b2d7b8c0af8ef4ad541035d1c74ebed411f4400000000000000000000000000000000000000000000000393ef1a5127c80000",
                    "decodedMethod": {
                        "callParams": [
                            {
                                "name": "_to",
                                "type": "address",
                                "value": "0x2c6b2d7b8c0af8ef4ad541035d1c74ebed411f44"
                            },
                            {
                                "decimalAvailable": true,
                                "name": "_value",
                                "type": "uint256",
                                "value": "66,000,000,000,000,000,000"
                            }
                        ],
                        "constructorArguments": "",
                        "name": "transfer",
                        "returnParams": [
                            {
                                "name": "success",
                                "type": "bool",
                                "value": true
                            }
                        ],
                        "signature": "transfer(address,uint256)"
                    },
                    "errorInfo": "",
                    "fromAddress": "0xd51264990019b10c29bd6214ef5f9608adb5d5ed",
                    "gasUsed": 52965,
                    "id": 0,
                    "methodDecoded": true,
                    "operation": "CALL",
                    "output": "0x0000000000000000000000000000000000000000000000000000000000000001",
                    "revert": false,
                    "revertMessage": "",
                    "selector": "0xa9059cbb",
                    "status": true,
                    "value": "0"
                },
                "nodeType": 0
            },
            "1": {
                "event": {
                    "contract": "0x9457725777a69922af16f3f3d58a92dae1995856",
                    "decodedLog": {
                        "name": "Transfer",
                        "params": [
                            {
                                "name": "from",
                                "type": "address",
                                "value": "0xd51264990019b10c29bd6214ef5f9608adb5d5ed"
                            },
                            {
                                "name": "to",
                                "type": "address",
                                "value": "0x2c6b2d7b8c0af8ef4ad541035d1c74ebed411f44"
                            },
                            {
                                "decimalAvailable": true,
                                "name": "value",
                                "type": "uint256",
                                "value": "66,000,000,000,000,000,000"
                            }
                        ],
                        "signature": "Transfer(address,address,uint256)"
                    },
                    "id": 1,
                    "logData": "0x00000000000000000000000000000000000000000000000393ef1a5127c80000",
                    "logDecoded": true,
                    "operation": "EVENT",
                    "revert": false,
                    "status": true,
                    "topics": [
                        "0xddf252ad1be2c89b69c2b068fc378daa952ba7f163c4a11628f55a4df523b3ef",
                        "0x000000000000000000000000d51264990019b10c29bd6214ef5f9608adb5d5ed",
                        "0x0000000000000000000000002c6b2d7b8c0af8ef4ad541035d1c74ebed411f44"
                    ]
                },
                "nodeType": 1
            }
        },
        "gasFlame": [
            {
                "children": [
                    {
                        "children": [
                            {
                                "children": [],
                                "depth": 0,
                                "name": "Initial Gas",
                                "value": 23256
                            },
                            {
                                "children": [],
                                "depth": 0,
                                "name": "Executed Gas",
                                "value": 29709
                            }
                        ],
                        "depth": -1,
                        "name": "Actual Gas Used",
                        "value": 52965
                    },
                    {
                        "children": [],
                        "depth": -1,
                        "name": "Refunded Gas",
                        "value": 0
                    }
                ],
                "depth": -2,
                "name": "Total Gas",
                "value": 52965
            }
        ],
        "isConfirmed": true,
        "mainTrace": [
            {
                "children": [
                    {
                        "children": [
                            {
                                "children": [],
                                "depth": 1,
                                "id": 1,
                                "order": 1
                            }
                        ],
                        "depth": 0,
                        "id": 0,
                        "order": 0
                    }
                ],
                "depth": -1,
                "id": -1,
                "order": -1
            }
        ],
        "mainTraceNodeCount": 2,
        "parentIdMap": {
            "0": -1,
            "1": 0
        },
        "tidyTrace": [
            {
                "children": [
                    {
                        "children": [
                            {
                                "children": [],
                                "depth": 1,
                                "id": 1,
                                "order": 1
                            }
                        ],
                        "depth": 0,
                        "id": 0,
                        "order": 0
                    }
                ],
                "depth": -1,
                "id": -1,
                "order": -1
            }
        ],
        "tidyTraceNodeCount": 2
    },
    "state_change": {
        "stateChanges": [
            {
                "address": "0x9457725777a69922af16f3f3d58a92dae1995856",
                "erc": "ERC-20",
                "slots": [
                    {
                        "current": "0x00000000000000000000000000000000000000000000000393ef1a5127c80000",
                        "key": "0x1f82e93123738e2b447faaa04cb87b61f67357f3c2630ade0a4951e2f8541b37",
                        "prev": "0x0000000000000000000000000000000000000000000000000000000000000000"
                    },
                    {
                        "current": "0x0000000000000000000000000000000000000000000421870466c475d9c00000",
                        "key": "0x57118513ea93a1341aa1a3a2c53e241b10bc7c9f7791d5b195fb726466fd2796",
                        "prev": "0x00000000000000000000000000000000000000000004218a9855dec701880000"
                    }
                ],
                "storageVariables": [
                    {
                        "name": "balanceOf",
                        "type": "mapping(address => uint256)",
                        "value": {
                            "pairs": [
                                {
                                    "key": "0x2c6b2d7b8c0af8ef4ad541035d1c74ebed411f44",
                                    "value": {
                                        "current": "66000000000000000000",
                                        "prev": "0",
                                        "typeTag": 1
                                    }
                                },
                                {
                                    "key": "0xd51264990019b10c29bd6214ef5f9608adb5d5ed",
                                    "value": {
                                        "current": "4994032000000000000000000",
                                        "prev": "4994098000000000000000000",
                                        "typeTag": 1
                                    }
                                }
                            ],
                            "typeTag": 4
                        }
                    }
                ]
            }
        ]
    }
}