{
    "balance_change": {
        "balanceChanges": [
            {
                "account": "0x75b354eab0b9d240d0bd6fa9e2365edded6451cc",
                "assets": [
                    {
                        "address": "0x06b179e292f080871825bed5d722162fd96b4c95",
                        "amount": "32,647.792530740469813137",
                        "iconUrl": "",
                        "isERC1155": false,
                        "isERC721": false,
                        "sign": false,
                        "value": "297.5410634"
                    },
                    {
                        "address": "0xdac17f958d2ee523a2206206994597c13d831ec7",
                        "amount": "297.598747",
                        "iconUrl": "https://assets.blocksec.com/icon/fcea71f3193ce895be44bfdf941f7e4c9381dd587f273c2d1a27f1263d84e4ea.png",
                        "isERC1155": false,
                        "isERC721": false,
                        "sign": true,
                        "value": "297.5410634"
                    }
                ]
            },
            {
                "account": "0x123b5a3a816aeb1c901e58bc81937fcf159269fe",
                "assets": [
                    {
                        "address": "0x06b179e292f080871825bed5d722162fd96b4c95",
                        "amount": "32,647.792530740469813137",
                        "iconUrl": "",
                        "isERC1155": false,
                        "isERC721": false,
                        "sign": true,
                        "value": "297.5410634"
                    },
                    {
                        "address": "0xdac17f958d2ee523a2206206994597c13d831ec7",
                        "amount": "297.598747",
                        "iconUrl": "https://assets.blocksec.com/icon/fcea71f3193ce895be44bfdf941f7e4c9381dd587f273c2d1a27f1263d84e4ea.png",
                        "isERC1155": false,
                        "isERC721": false,
                        "sign": false,
                        "value": "297.5410634"
                    }
                ]
            }
        ]
    },
    "profile": {
        "basic_info": {
            "baseFee": "",
            "blockNumber": 12200348,
            "callData": "0x38ed17390000000000000000000000000000000000000000000006e9d7231b4a4d03cf910000000000000000000000000000000000000000000000000000000011a6678c00000000000000000000000000000000000000000000000000000000000000a000000000000000000000000075b354eab0b9d240d0bd6fa9e2365edded6451cc00000000000000000000000000000000000000000000000000000000606f38a9000000000000000000000000000000000000000000000000000000000000000200000000000000000000000006b179e292f080871825bed5d722162fd96b4c95000000000000000000000000dac17f958d2ee523a2206206994597c13d831ec7",
            "debugEnable": true,
            "errorInfo": "",
            "eventCount": 4,
            "feeRecipient": "0xb3b7874f13387d44a3398d298b075b7a3505d8d4",
            "formatValue": "0",
            "gasLimit": 150510,
            "gasPrice": "137",
            "gasUsed": 115359,
            "intTxnCount": 6,
            "internalRevert": false,
            "internalRevertMessage": "",
            "isContractCreation": false,
            "isFlashloan": false,
            "maxFee": "",
            "nonce": 118,
            "overwritedBlockNumber": -1,
            "priorityFee": "",
            "receiver": "0x7a250d5630b4cf539739df2c5dacb4c659f2488d",
            "revertMessage": "",
            "sender": "0x75b354eab0b9d240d0bd6fa9e2365edded6451cc",
            "simulationEnable": true,
            "sourceTxnHash": "0xf52ca73be87590ee309c3d9c925136e0f3482609200ef9f38b245493ac481ed4",
            "status": true,
            "timestamp": "2021-04-08T16:49:47Z",
            "transactionFee": "0.015804183",
            "txnHash": "0xf52ca73be87590ee309c3d9c925136e0f3482609200ef9f38b245493ac481ed4",
            "txnIndex": 96,
            "type": 0,
            "value": "0"
        },
        "fund_flow": [
            {
                "amount": "32,647.792530740469813137",
                "from": "0x75b354eab0b9d240d0bd6fa9e2365edded6451cc",
                "id": 1,
                "isERC1155": false,
                "isERC721": false,
                "isReverted": false,
                "order": 1,
                "to": "0x123b5a3a816aeb1c901e58bc81937fcf159269fe",
                "token": "0x06b179e292f080871825bed5d722162fd96b4c95"
            },
            {
                "amount": "297.598747",
                "from": "0x123b5a3a816aeb1c901e58bc81937fcf159269fe",
                "id": 2,
                "isERC1155": false,
                "isERC721": false,
                "isReverted": false,
                "order": 2,
                "to": "0x75b354eab0b9d240d0bd6fa9e2365edded6451cc",
                "token": "0xdac17f958d2ee523a2206206994597c13d831ec7"
            }
        ],
        "token_infos": [
            {
                "address": "0xdac17f958d2ee523a2206206994597c13d831ec7",
                "decimals": 6
            },
            {
                "address": "0xeeeeeeeeeeeeeeeeeeeeeeeeeeeeeeeeeeeeeeee",
                "decimals": 18
            },
            {
                "address": "0x06b179e292f080871825bed5d722162fd96b4c95",
                "decimals": 18
            },
            {
                "address": "0xc02aaa39b223fe8d0a0e5c4f27ead9083c756cc2",
                "decimals": 18
            }
        ]
    },
    "address_label": {
        "labels": [
            {
                "address": "0x123b5a3a816aeb1c901e58bc81937fcf159269fe",
                "label": "Uniswap V2: XGG-USDT"
            },
            {
                "address": "0x06b179e292f080871825bed5d722162fd96b4c95",
                "label": "10x.gg: XGG Token"
            },
            {
                "address": "0x7a250d5630b4cf539739df2c5dacb4c659f2488d",
                "label": "Uniswap V2: Router 2"
            },
            {
                "address": "0x0000000000000000000000000000000000000001",
                "label": "Precompiled"
            },
            {
                "address": "0x0000000000000000000000000000000000000002",
                "label": "Precompiled"
            },
            {
                "address": "0x0000000000000000000000000000000000000003",
                "label": "Precompiled"
            },
            {
                "address": "0xeeeeeeeeeeeeeeeeeeeeeeeeeeeeeeeeeeeeeeee",
                "label": "Ether"
            },
            {
                "address": "0xdac17f958d2ee523a2206206994597c13d831ec7",
                "label": "Tether: USDT Stablecoin"
            },
            {
                "address": "0x0000000000000000000000000000000000000004",
                "label": "Precompiled"
            }
        ]
    },
    "trace": {
        "accountLabels": null,
        "dataMap": {
            "-1": {
                "invocation": {
                    "address": "0x75b354eab0b9d240d0bd6fa9e2365edded6451cc",
                    "callData": "",
                    "decodedMethod": null,
                    "errorInfo": "",
                    "fromAddress": "",
                    "gasUsed": 0,
                    "id": -1,
                    "methodDecoded": false,
                    "operation": "",
                    "output": "",
                    "revert": false,
                    "revertMessage": "",
                    "selector": "",
                    "status": false,
                    "value": ""
                },
                "nodeType": 0
            },
            "0": {
                "invocation": {
                    "address": "0x7a250d5630b4cf539739df2c5dacb4c659f2488d",
                    "callData": "0x0000000000000000000000000000000000000000000006e9d7231b4a4d03cf910000000000000000000000000000000000000000000000000000000011a6678c00000000000000000000000000000000000000000000000000000000000000a000000000000000000000000075b354eab0b9d240d0bd6fa9e2365edded6451cc00000000000000000000000000000000000000000000000000000000606f38a9000000000000000000000000000000000000000000000000000000000000000200000000000000000000000006b179e292f080871825bed5d722162fd96b4c95000000000000000000000000dac17f958d2ee523a2206206994597c13d831ec7",
                    "decodedMethod": {
                        "callParams": [
                            {
                                "name": "amountIn",
                                "type": "uint256",
                                "value": "32,647,792,530,740,469,813,137"
                            },
                            {
                                "name": "amountOutMin",
                                "type": "uint256",
                                "value": "296,118,156"
                            },
                            {
                                "name": "path",
                                "type": "address[]",
                                "value": [
                                    "0x06b179e292f080871825bed5d722162fd96b4c95",
                                    "0xdac17f958d2ee523a2206206994597c13d831ec7"
                                ]
                            },
                            {
                                "name": "to",
                                "type": "address",
                                "value": "0x75b354eab0b9d240d0bd6fa9e2365edded6451cc"
                            },
                            {
                                "name": "deadline",
                                "type": "uint256",
                                "value": "1,617,901,737"
                            }
                        ],
                        "constructorArguments": "",
                        "name": "swapExactTokensForTokens",
                        "returnParams": [
                            {
                                "name": "amounts",
                                "type": "uint256[]",
                                "value": [
                                    "32,647,792,530,740,469,813,137",
                                    "297,598,747"
                                ]
                            }
                        ],
                        "signature": "swapExactTokensForTokens(uint256,uint256,address[],address,uint256)"
                    },
                    "errorInfo": "",
                    "fromAddress": "0x75b354eab0b9d240d0bd6fa9e2365edded6451cc",
                    "gasUsed": 115359,
                    "id": 0,
                    "methodDecoded": true,
                    "operation": "CALL",
                    "output": "0x000000000000000000000000000000000000000000000000000000000000002000000000000000000000000000000000000000000000000000000000000000020000000000000000000000000000000000000000000006e9d7231b4a4d03cf910000000000000000000000000000000000000000000000000000000011bcff1b",
                    "revert": false,
                    "revertMessage": "",
                    "selector": "0x38ed1739",
                    "status": true,
                    "value": "0"
                },
                "nodeType": 0
            },
            "1": {
                "invocation": {
                    "address": "0x123b5a3a816aeb1c901e58bc81937fcf159269fe",
                    "callData": "0x",
                    "decodedMethod": {
                        "callParams": [],
                        "constructorArguments": "",
                        "name": "getReserves",
                        "returnParams": [
                            {
                                "name": "_reserve0",
                                "type": "uint112",
                                "value": "106,112,893,091,766,419,671,196,884"
                            },
                            {
                                "name": "_reserve1",
                                "type": "uint112",
                                "value": "970,473,033,119"
                            },
                            {
                                "name": "_blockTimestampLast",
                                "type": "uint32",
                                "value": "1,617,899,348"
                            }
                        ],
                        "signature": "getReserves()"
                    },
                    "errorInfo": "",
                    "fromAddress": "0x7a250d5630b4cf539739df2c5dacb4c659f2488d",
                    "gasUsed": 1204,
                    "id": 1,
                    "methodDecoded": true,
                    "operation": "STATICCALL",
                    "output": "0x00000000000000000000000000000000000000000057c647760036b786a3a4d4000000000000000000000000000000000000000000000000000000e1f4b34d9f00000000000000000000000000000000000000000000000000000000606f2f54",
                    "revert": false,
                    "revertMessage": "",
                    "selector": "0x0902f1ac",
                    "status": true,
                    "value": "0"
                },
                "nodeType": 0
            },
            "10": {
                "event": {
                    "contract": "0x123b5a3a816aeb1c901e58bc81937fcf159269fe",
                    "decodedLog": {
                        "name": "Swap",
                        "params": [
                            {
                                "name": "sender",
                                "type": "address",
                                "value": "0x7a250d5630b4cf539739df2c5dacb4c659f2488d"
                            },
                            {
                                "name": "to",
                                "type": "address",
                                "value": "0x75b354eab0b9d240d0bd6fa9e2365edded6451cc"
                            },
                            {
                                "name": "amount0In",
                                "type": "uint256",
                                "value": "32,647,792,530,740,469,813,137"
                            },
                            {
                                "name": "amount1In",
                                "type": "uint256",
                                "value": "0"
                            },
                            {
                                "name": "amount0Out",
                                "type": "uint256",
                                "value": "0"
                            },
                            {
                                "name": "amount1Out",
                                "type": "uint256",
                                "value": "297,598,747"
                            }
                        ],
                        "signature": "Swap(address,uint256,uint256,uint256,uint256,address)"
                    },
                    "id": 10,
                    "logData": "0x0000000000000000000000000000000000000000000006e9d7231b4a4d03cf91000000000000000000000000000000000000000000000000000000000000000000000000000000000000000000000000000000000000000000000000000000000000000000000000000000000000000000000000000000000000000011bcff1b",
                    "logDecoded": true,
                    "operation": "EVENT",
                    "revert": false,
                    "status": true,
                    "topics": [
                        "0xd78ad95fa46c994b6551d0da85fc275fe613ce37657fb8d5e3d130840159d822",
                        "0x0000000000000000000000007a250d5630b4cf539739df2c5dacb4c659f2488d",
                        "0x00000000000000000000000075b354eab0b9d240d0bd6fa9e2365edded6451cc"
                    ]
                },
                "nodeType": 1
            },
            "2": {
                "invocation": {
                    "address": "0x06b179e292f080871825bed5d722162fd96b4c95",
                    "callData": "0x00000000000000000000000075b354eab0b9d240d0bd6fa9e2365edded6451cc000000000000000000000000123b5a3a816aeb1c901e58bc81937fcf159269fe0000000000000000000000000000000000000000000006e9d7231b4a4d03cf91",
                    "decodedMethod": {
                        "callParams": [
                            {
                                "name": "from",
                                "type": "address",
                                "value": "0x75b354eab0b9d240d0bd6fa9e2365edded6451cc"
                            },
                            {
                                "name": "to",
                                "type": "address",
                                "value": "0x123b5a3a816aeb1c901e58bc81937fcf159269fe"
                            },
                            {
                                "decimalAvailable": true,
                                "name": "tokens",
                                "type": "uint256",
                                "value": "32,647,792,530,740,469,813,137"
                            }
                        ],
                        "constructorArguments": "",
                        "name": "transferFrom",
                        "returnParams": [
                            {
                                "name": "success",
                                "type": "bool",
                                "value": true
                            }
                        ],
                        "signature": "transferFrom(address,address,uint256)"
                    },
                    "errorInfo": "",
                    "fromAddress": "0x7a250d5630b4cf539739df2c5dacb4c659f2488d",
                    "gasUsed": 22044,
                    "id": 2,
                    "methodDecoded": true,
                    "operation": "CALL",
                    "output": "0x0000000000000000000000000000000000000000000000000000000000000001",
                    "revert": false,
                    "revertMessage": "",
                    "selector": "0x23b872dd",
                    "status": true,
                    "value": "0"
                },
                "nodeType": 0
            },
            "3": {
                "event": {
                    "contract": "0x06b179e292f080871825bed5d722162fd96b4c95",
                    "decodedLog": {
                        "name": "Transfer",
                        "params": [
                            {
                                "name": "from",
                                "type": "address",
                                "value": "0x75b354eab0b9d240d0bd6fa9e2365edded6451cc"
                            },
                            {
                                "name": "to",
                                "type": "address",
                                "value": "0x123b5a3a816aeb1c901e58bc81937fcf159269fe"
                            },
                            {
                                "decimalAvailable": true,
                                "name": "value",
                                "type": "uint256",
                                "value": "32,647,792,530,740,469,813,137"
                            }
                        ],
                        "signature": "Transfer(address,address,uint256)"
                    },
                    "id": 3,
                    "logData": "0x0000000000000000000000000000000000000000000006e9d7231b4a4d03cf91",
                    "logDecoded": true,
                    "operation": "EVENT",
                    "revert": false,
                    "status": true,
                    "topics": [
                        "0xddf252ad1be2c89b69c2b068fc378daa952ba7f163c4a11628f55a4df523b3ef",
                        "0x00000000000000000000000075b354eab0b9d240d0bd6fa9e2365edded6451cc",
                        "0x000000000000000000000000123b5a3a816aeb1c901e58bc81937fcf159269fe"
                    ]
                },
                "nodeType": 1
            },
            "4": {
                "invocation": {
                    "address": "0x123b5a3a816aeb1c901e58bc81937fcf159269fe",
                    "callData": "0x00000000000000000000000000000000000000000000000000000000000000000000000000000000000000000000000000000000000000000000000011bcff1b00000000000000000000000075b354eab0b9d240d0bd6fa9e2365edded6451cc00000000000000000000000000000000000000000000000000000000000000800000000000000000000000000000000000000000000000000000000000000000",
                    "decodedMethod": {
                        "callParams": [
                            {
                                "name": "amount0Out",
                                "type": "uint256",
                                "value": "0"
                            },
                            {
                                "name": "amount1Out",
                                "type": "uint256",
                                "value": "297,598,747"
                            },
                            {
                                "name": "to",
                                "type": "address",
                                "value": "0x75b354eab0b9d240d0bd6fa9e2365edded6451cc"
                            },
                            {
                                "name": "data",
                                "type": "bytes",
                                "value": "0x"
                            }
                        ],
                        "constructorArguments": "",
                        "name": "swap",
                        "returnParams": [],
                        "signature": "swap(uint256,uint256,address,bytes)"
                    },
                    "errorInfo": "",
                    "fromAddress": "0x7a250d5630b4cf539739df2c5dacb4c659f2488d",
                    "gasUsed": 77514,
                    "id": 4,
                    "methodDecoded": true,
                    "operation": "CALL",
                    "output": "",
                    "revert": false,
                    "revertMessage": "",
                    "selector": "0x022c0d9f",
                    "status": true,
                    "value": "0"
                },
                "nodeType": 0
            },
            "5": {
                "invocation": {
                    "address": "0xdac17f958d2ee523a2206206994597c13d831ec7",
                    "callData": "0x00000000000000000000000075b354eab0b9d240d0bd6fa9e2365edded6451cc0000000000000000000000000000000000000000000000000000000011bcff1b",
                    "decodedMethod": {
                        "callParams": [
                            {
                                "name": "_to",
                                "type": "address",
                                "value": "0x75b354eab0b9d240d0bd6fa9e2365edded6451cc"
                            },
                            {
                                "decimalAvailable": true,
                                "name": "_value",
                                "type": "uint256",
                                "value": "297,598,747"
                            }
                        ],
                        "constructorArguments": "",
                        "name": "transfer",
                        "returnParams": [],
                        "signature": "transfer(address,uint256)"
                    },
                    "errorInfo": "",
                    "fromAddress": "0x123b5a3a816aeb1c901e58bc81937fcf159269fe",
                    "gasUsed": 34601,
                    "id": 5,
                    "methodDecoded": true,
                    "operation": "CALL",
                    "output": "",
                    "revert": false,
                    "revertMessage": "",
                    "selector": "0xa9059cbb",
                    "status": true,
                    "value": "0"
                },
                "nodeType": 0
            },
            "6": {
                "event": {
                    "contract": "0xdac17f958d2ee523a2206206994597c13d831ec7",
                    "decodedLog": {
                        "name": "Transfer",
                        "params": [
                            {
                                "name": "from",
                                "type": "address",
                                "value": "0x123b5a3a816aeb1c901e58bc81937fcf159269fe"
                            },
                            {
                                "name": "to",
                                "type": "address",
                                "value": "0x75b354eab0b9d240d0bd6fa9e2365edded6451cc"
                            },
                            {
                                "decimalAvailable": true,
                                "name": "value",
                                "type": "uint256",
                                "value": "297,598,747"
                            }
                        ],
                        "signature": "Transfer(address,address,uint256)"
                    },
                    "id": 6,
                    "logData": "0x0000000000000000000000000000000000000000000000000000000011bcff1b",
                    "logDecoded": true,
                    "operation": "EVENT",
                    "revert": false,
                    "status": true,
                    "topics": [
                        "0xddf252ad1be2c89b69c2b068fc378daa952ba7f163c4a11628f55a4df523b3ef",
                        "0x000000000000000000000000123b5a3a816aeb1c901e58bc81937fcf159269fe",
                        "0x00000000000000000000000075b354eab0b9d240d0bd6fa9e2365edded6451cc"
                    ]
                },
                "nodeType": 1
            },
            "7": {
                "invocation": {
                    "address": "0x06b179e292f080871825bed5d722162fd96b4c95",
                    "callData": "0x000000000000000000000000123b5a3a816aeb1c901e58bc81937fcf159269fe",
                    "decodedMethod": {
                        "callParams": [
                            {
                                "name": "tokenOwner",
                                "type": "address",
                                "value": "0x123b5a3a816aeb1c901e58bc81937fcf159269fe"
                            }
                        ],
                        "constructorArguments": "",
                        "name": "balanceOf",
                        "returnParams": [
                            {
                                "decimalAvailable": true,
                                "name": "balance",
                                "type": "uint256",
                                "value": "106,145,540,884,297,160,141,010,021"
                            }
                        ],
                        "signature": "balanceOf(address)"
                    },
                    "errorInfo": "",
                    "fromAddress": "0x123b5a3a816aeb1c901e58bc81937fcf159269fe",
                    "gasUsed": 1586,
                    "id": 7,
                    "methodDecoded": true,
                    "operation": "STATICCALL",
                    "output": "0x00000000000000000000000000000000000000000057cd314d235201d3a77465",
                    "revert": false,
                    "revertMessage": "",
                    "selector": "0x70a08231",
                    "status": true,
                    "value": "0"
                },
                "nodeType": 0
            },
            "8": {
                "invocation": {
                    "address": "0xdac17f958d2ee523a2206206994597c13d831ec7",
                    "callData": "0x000000000000000000000000123b5a3a816aeb1c901e58bc81937fcf159269fe",
                    "decodedMethod": {
                        "callParams": [
                            {
                                "name": "who",
                                "type": "address",
                                "value": "0x123b5a3a816aeb1c901e58bc81937fcf159269fe"
                            }
                        ],
                        "constructorArguments": "",
                        "name": "balanceOf",
                        "returnParams": [
                            {
                                "decimalAvailable": true,
                                "name": "",
                                "type": "uint256",
                                "value": "970,175,434,372"
                            }
                        ],
                        "signature": "balanceOf(address)"
                    },
                    "errorInfo": "",
                    "fromAddress": "0x123b5a3a816aeb1c901e58bc81937fcf159269fe",
                    "gasUsed": 2431,
                    "id": 8,
                    "methodDecoded": true,
                    "operation": "STATICCALL",
                    "output": "0x000000000000000000000000000000000000000000000000000000e1e2f64e84",
                    "revert": false,
                    "revertMessage": "",
                    "selector": "0x70a08231",
                    "status": true,
                    "value": "0"
                },
                "nodeType": 0
            },
            "9": {
                "event": {
                    "contract": "0x123b5a3a816aeb1c901e58bc81937fcf159269fe",
                    "decodedLog": {
                        "name": "Sync",
                        "params": [
                            {
                                "name": "reserve0",
                                "type": "uint112",
                                "value": "106,145,540,884,297,160,141,010,021"
                            },
                            {
                                "name": "reserve1",
                                "type": "uint112",
                                "value": "970,175,434,372"
                            }
                        ],
                        "signature": "Sync(uint112,uint112)"
                    },
                    "id": 9,
                    "logData": "0x00000000000000000000000000000000000000000057cd314d235201d3a77465000000000000000000000000000000000000000000000000000000e1e2f64e84",
                    "logDecoded": true,
                    "operation": "EVENT",
                    "revert": false,
                    "status": true,
                    "topics": [
                        "0x1c411e9a96e071241c2f21f7726b17ae89e3cab4c78be50e062b03a9fffbbad1"
                    ]
                },
                "nodeType": 1
            }
        },
        "gasFlame": [
            {
                "children": [
                    {
                        "children": [
                            {
                                "children": [],
                                "depth": 0,
                                "name": "Initial Gas",
                                "value": 23048
                            },
                            {
                                "children": [
                                    {
                                        "children": [],
                                        "depth": 1,
                                        "name": "getReserves",
                                        "value": 1204
                                    },
                                    {
                                        "children": [],
                                        "depth": 1,
                                        "name": "transferFrom",
                                        "value": 22044
                                    },
                                    {
                                        "children": [
                                            {
                                                "children": [],
                                                "depth": 2,
                                                "name": "transfer",
                                                "value": 34601
                                            },
                                            {
                                                "children": [],
                                                "depth": 2,
                                                "name": "balanceOf",
                                                "value": 1586
                                            },
                                            {
                                                "children": [],
                                                "depth": 2,
                                                "name": "balanceOf",
                                                "value": 2431
                                            }
                                        ],
                                        "depth": 1,
                                        "name": "swap",
                                        "value": 77514
                                    }
                                ],
                                "depth": 0,
                                "name": "Executed Gas",
                                "value": 111511
                            }
                        ],
                        "depth": -1,
                        "name": "Actual Gas Used",
                        "value": 115359
                    },
                    {
                        "children": [],
                        "depth": -1,
                        "name": "Refunded Gas",
                        "value": 19200
                    }
                ],
                "depth": -2,
                "name": "Total Gas",
                "value": 134559
            }
        ],
        "isConfirmed": true,
        "mainTrace": [
            {
                "children": [
                    {
                        "children": [
                            {
                                "children": [],
                                "depth": 1,
                                "id": 1,
                                "order": 1
                            },
                            {
                                "children": [
                                    {
                                        "children": [],
                                        "depth": 2,
                                        "id": 3,
                                        "order": 3
                                    }
                                ],
                                "depth": 1,
                                "id": 2,
                                "order": 2
                            },
                            {
                                "children": [
                                    {
                                        "children": [
                                            {
                                                "children": [],
                                                "depth": 3,
                                                "id": 6,
                                                "order": 6
                                            }
                                        ],
                                        "depth": 2,
                                        "id": 5,
                                        "order": 5
                                    },
                                    {
                                        "children": [],
                                        "depth": 2,
                                        "id": 7,
                                        "order": 7
                                    },
                                    {
                                        "children": [],
                                        "depth": 2,
                                        "id": 8,
                                        "order": 8
                                    },
                                    {
                                        "children": [],
                                        "depth": 2,
                                        "id": 9,
                                        "order": 9
                                    },
                                    {
                                        "children": [],
                                        "depth": 2,
                                        "id": 10,
                                        "order": 10
                                    }
                                ],
                                "depth": 1,
                                "id": 4,
                                "order": 4
                            }
                        ],
                        "depth": 0,
                        "id": 0,
                        "order": 0
                    }
                ],
                "depth": -1,
                "id": -1,
                "order": -1
            }
        ],
        "mainTraceNodeCount": 11,
        "parentIdMap": {
            "0": -1,
            "1": 0,
            "10": 4,
            "2": 0,
            "3": 2,
            "4": 0,
            "5": 4,
            "6": 5,
            "7": 4,
            "8": 4,
            "9": 4
        },
        "tidyTrace": [
            {
                "children": [
                    {
                        "children": [
                            {
                                "children": [
                                    {
                                        "children": [],
                                        "depth": 2,
                                        "id": 3,
                                        "order": 3
                                    }
                                ],
                                "depth": 1,
                                "id": 2,
                                "order": 2
                            },
                            {
                                "children": [
                                    {
                                        "children": [
                                            {
                                                "children": [],
                                                "depth": 3,
                                                "id": 6,
                                                "order": 6
                                            }
                                        ],
                                        "depth": 2,
                                        "id": 5,
                                        "order": 5
                                    },
                                    {
                                        "children": [],
                                        "depth": 2,
                                        "id": 9,
                                        "order": 9
                                    },
                                    {
                                        "children": [],
                                        "depth": 2,
                                        "id": 10,
                                        "order": 10
                                    }
                                ],
                                "depth": 1,
                                "id": 4,
                                "order": 4
                            }
                        ],
                        "depth": 0,
                        "id": 0,
                        "order": 0
                    }
                ],
                "depth": -1,
                "id": -1,
                "order": -1
            }
        ],
        "tidyTraceNodeCount": 8
    },
    "state_change": {
        "stateChanges": [
            {
                "address": "0x06b179e292f080871825bed5d722162fd96b4c95",
                "erc": "ERC-20",
                "slots": [
                    {
                        "current": "0x0000000000000000000000000000000000000000000000000000000000000000",
                        "key": "0x451be699290aba21bf328ca05a4152e5aeaa1ce418a248b27bf7f836b97b9d1f",
                        "prev": "0x0000000000000000000000000000000000000000000006e9d7231b4a4d03cf91"
                    },
                    {
                        "current": "0xfffffffffffffffffffffffffffffffffffffffffffff91628dce4b5b2fc306e",
                        "key": "0xeef8ea381e3fbce4aefdf15b130740b324c7242f40489fdb234efe9d75ad86de",
                        "prev": "0xffffffffffffffffffffffffffffffffffffffffffffffffffffffffffffffff"
                    },
                    {
                        "current": "0x00000000000000000000000000000000000000000057cd314d235201d3a77465",
                        "key": "0x08a09b01adec66e5735a997fe46484721d1dfc39e3d932b3a1d8aa08e500f0bb",
                        "prev": "0x00000000000000000000000000000000000000000057c647760036b786a3a4d4"
                    }
                ],
                "storageVariables": [
                    {
                        "name": "allowed",
                        "type": "mapping(address => mapping(address => uint256))",
                        "value": {
                            "pairs": [
                                {
                                    "key": "0x75b354eab0b9d240d0bd6fa9e2365edded6451cc",
                                    "value": {
                                        "pairs": [
                                            {
                                                "key": "0x7a250d5630b4cf539739df2c5dacb4c659f2488d",
                                                "value": {
                                                    "current": "115792089237316195423570985008687907853269984665640564006809791477172659826798",
                                                    "prev": "115792089237316195423570985008687907853269984665640564039457584007913129639935",
                                                    "typeTag": 1
                                                }
                                            }
                                        ],
                                        "typeTag": 4
                                    }
                                }
                            ],
                            "typeTag": 4
                        }
                    },
                    {
                        "name": "balances",
                        "type": "mapping(address => uint256)",
                        "value": {
                            "pairs": [
                                {
                                    "key": "0x123b5a3a816aeb1c901e58bc81937fcf159269fe",
                                    "value": {
                                        "current": "106145540884297160141010021",
                                        "prev": "106112893091766419671196884",
                                        "typeTag": 1
                                    }
                                },
                                {
                                    "key": "0x75b354eab0b9d240d0bd6fa9e2365edded6451cc",
                                    "value": {
                                        "current": "0",
                                        "prev": "32647792530740469813137",
                                        "typeTag": 1
                                    }
                                }
                            ],
                            "typeTag": 4
                        }
                    }
                ]
            },
            {
                "address": "0x123b5a3a816aeb1c901e58bc81937fcf159269fe",
                "erc": "ERC-20",
                "slots": [
                    {
                        "current": "0x000000000000000000000000000000000000000000abf48e3c92f28bb3a8a68b",
                        "key": "0x0000000000000000000000000000000000000000000000000000000000000009",
                        "prev": "0x000000000000000000000000000000000000000000abe818b569fa704b89f6b0"
                    },
                    {
                        "current": "0x00000000000000000014fd576df484a66dce42a5ae96742eeadcb6aa598fe93a",
                        "key": "0x000000000000000000000000000000000000000000000000000000000000000a",
                        "prev": "0x00000000000000000014fb76210f4bd7dcb9b4376064a3bc9ca2d2ca6dc409fc"
                    },
                    {
                        "current": "0x606f342b000000000000000000e1e2f64e8400000057cd314d235201d3a77465",
                        "key": "0x0000000000000000000000000000000000000000000000000000000000000008",
                        "prev": "0x606f2f54000000000000000000e1f4b34d9f00000057c647760036b786a3a4d4"
                    }
                ],
                "storageVariables": [
                    {
                        "name": "price0CumulativeLast",
                        "type": "uint256",
                        "value": {
                            "current": "207881196378397919767209611",
                            "prev": "207822359972239869223761584",
                            "typeTag": 1
                        }
                    },
                    {
                        "name": "price1CumulativeLast",
                        "type": "uint256",
                        "value": {
                            "current": "2010405742504388084520731639180327971886471277095938362",
                            "prev": "2009702321221714108117200671064347127209697849544804860",
                            "typeTag": 1
                        }
                    },
                    {
                        "name": "reserve0",
                        "type": "uint112",
                        "value": {
                            "current": "106145540884297160141010021",
                            "prev": "106112893091766419671196884",
                            "typeTag": 1
                        }
                    },
                    {
                        "name": "reserve1",
                        "type": "uint112",
                        "value": {
                            "current": "970175434372",
                            "prev": "970473033119",
                            "typeTag": 1
                        }
                    },
                    {
                        "name": "blockTimestampLast",
                        "type": "uint32",
                        "value": {
                            "current": "1617900587",
                            "prev": "1617899348",
                            "typeTag": 1
                        }
                    }
                ]
            },
            {
                "address": "0xdac17f958d2ee523a2206206994597c13d831ec7",
                "erc": "ERC-20",
                "slots": [
                    {
                        "current": "0x0000000000000000000000000000000000000000000000000000000011bcff1b",
                        "key": "0x1bda25dfff08cb011533373f9a6e2a5d6e51a141dcee5b0eeb8e34f427c94073",
                        "prev": "0x0000000000000000000000000000000000000000000000000000000000000000"
                    },
                    {
                        "current": "0x000000000000000000000000000000000000000000000000000000e1e2f64e84",
                        "key": "0x7bf472446611a39834ca2f112b6fe70184a27b1c6b3bc2943037251135a72eaa",
                        "prev": "0x000000000000000000000000000000000000000000000000000000e1f4b34d9f"
                    }
                ],
                "storageVariables": [
                    {
                        "name": "balances",
                        "type": "mapping(address => uint256)",
                        "value": {
                            "pairs": [
                                {
                                    "key": "0x123b5a3a816aeb1c901e58bc81937fcf159269fe",
                                    "value": {
                                        "current": "970175434372",
                                        "prev": "970473033119",
                                        "typeTag": 1
                                    }
                                },
                                {
                                    "key": "0x75b354eab0b9d240d0bd6fa9e2365edded6451cc",
                                    "value": {
                                        "current": "297598747",
                                        "prev": "0",
                                        "typeTag": 1
                                    }
                                }
                            ],
                            "typeTag": 4
                        }
                    }
                ]
            }
        ]
    }
}