{
    "balance_change": {
        "balanceChanges": [
            {
                "account": "0xcf0fff496ac56a7f15e1bc86ce703802a062a120",
                "assets": [
                    {
                        "address": "0x4d224452801aced8b2f0aebe155379bb5d594381",
                        "amount": "123.170478284061929938",
                        "iconUrl": "https://assets.blocksec.com/icon/2edd169b33ddc44d0c2362c907ae50b3b0aed7e6e08bf6f72599647136aeddd0.png",
                        "isERC1155": false,
                        "isERC721": false,
                        "sign": true,
                        "value": "155.1948026580000011"
                    }
                ]
            },
            {
                "account": "0x5954ab967bc958940b7eb73ee84797dc8a2afbb9",
                "assets": [
                    {
                        "address": "0x4d224452801aced8b2f0aebe155379bb5d594381",
                        "amount": "123.170478284061929938",
                        "iconUrl": "https://assets.blocksec.com/icon/2edd169b33ddc44d0c2362c907ae50b3b0aed7e6e08bf6f72599647136aeddd0.png",
                        "isERC1155": false,
                        "isERC721": false,
                        "sign": false,
                        "value": "155.1948026580000011"
                    }
                ]
            }
        ]
    },
    "profile": {
        "basic_info": {
            "baseFee": "6.054071398",
            "blockNumber": 19796122,
            "callData": "0x20a325d000000000000000000000000000000000000000000000000000000000000000200000000000000000000000000000000000000000000000000000000000000001000000000000000000000000000000000000000000000000000000000000099c",
            "debugEnable": true,
            "errorInfo": "",
            "eventCount": 3,
            "feeRecipient": "0x7e2a2fa2a064f693f0a55c5639476d913ff12d05",
            "formatValue": "0",
            "gasLimit": 128763,
            "gasPrice": "9.054071398",
            "gasUsed": 127673,
            "intTxnCount": 2,
            "internalRevert": false,
            "internalRevertMessage": "",
            "isContractCreation": false,
            "isFlashloan": false,
            "maxFee": "50",
            "nonce": 226,
            "overwritedBlockNumber": -1,
            "priorityFee": "3",
            "receiver": "0x5954ab967bc958940b7eb73ee84797dc8a2afbb9",
            "revertMessage": "",
            "sender": "0xcf0fff496ac56a7f15e1bc86ce703802a062a120",
            "simulationEnable": true,
            "sourceTxnHash": "0xf504a7d525ea36a364d8894455cdb33617fca53724c81b51b63391068be0e4e5",
            "status": true,
            "timestamp": "2024-05-04T10:23:23Z",
            "transactionFee": "0.001155960457596854",
            "txnHash": "0xf504a7d525ea36a364d8894455cdb33617fca53724c81b51b63391068be0e4e5",
            "txnIndex": 3,
            "type": 2,
            "value": "0"
        },
        "fund_flow": [
            {
                "amount": "123.170478284061929938",
                "from": "0x5954ab967bc958940b7eb73ee84797dc8a2afbb9",
                "id": 1,
                "isERC1155": false,
                "isERC721": false,
                "isReverted": false,
                "order": 1,
                "to": "0xcf0fff496ac56a7f15e1bc86ce703802a062a120",
                "token": "0x4d224452801aced8b2f0aebe155379bb5d594381"
            }
        ],
        "token_infos": [
            {
                "address": "0x4d224452801aced8b2f0aebe155379bb5d594381",
                "decimals": 18
            },
            {
                "address": "0xc02aaa39b223fe8d0a0e5c4f27ead9083c756cc2",
                "decimals": 18
            },
            {
                "address": "0xeeeeeeeeeeeeeeeeeeeeeeeeeeeeeeeeeeeeeeee",
                "decimals": 18
            }
        ]
    },
    "address_label": {
        "labels": [
            {
                "address": "0x4d224452801aced8b2f0aebe155379bb5d594381",
                "label": "Apecoin: APE Token"
            },
            {
                "address": "0x5954ab967bc958940b7eb73ee84797dc8a2afbb9",
                "label": "ApeCoinStaking"
            },
            {
                "address": "0xbc4ca0eda7647a8ab7c2061c2e118a18a936f13d",
                "label": "Bored Ape Yacht Club: BoredApeYachtClub Token (BAYC)"
            },
            {
                "address": "0x0000000000000000000000000000000000000001",
                "label": "Precompiled"
            },
            {
                "address": "0x0000000000000000000000000000000000000002",
                "label": "Precompiled"
            },
            {
                "address": "0x0000000000000000000000000000000000000003",
                "label": "Precompiled"
            },
            {
                "address": "0x0000000000000000000000000000000000000004",
                "label": "Precompiled"
            },
            {
                "address": "0xeeeeeeeeeeeeeeeeeeeeeeeeeeeeeeeeeeeeeeee",
                "label": "Ether"
            }
        ]
    },
    "trace": {
        "accountLabels": null,
        "dataMap": {
            "-1": {
                "invocation": {
                    "address": "0xcf0fff496ac56a7f15e1bc86ce703802a062a120",
                    "callData": "",
                    "decodedMethod": null,
                    "errorInfo": "",
                    "fromAddress": "",
                    "gasUsed": 0,
                    "id": -1,
                    "methodDecoded": false,
                    "operation": "",
                    "output": "",
                    "revert": false,
                    "revertMessage": "",
                    "selector": "",
                    "status": false,
                    "value": ""
                },
                "nodeType": 0
            },
            "0": {
                "invocation": {
                    "address": "0x5954ab967bc958940b7eb73ee84797dc8a2afbb9",
                    "callData": "0x00000000000000000000000000000000000000000000000000000000000000200000000000000000000000000000000000000000000000000000000000000001000000000000000000000000000000000000000000000000000000000000099c",
                    "decodedMethod": {
                        "callParams": [
                            {
                                "name": "_nfts",
                                "type": "uint256[]",
                                "value": [
                                    "2,460"
                                ]
                            }
                        ],
                        "constructorArguments": "",
                        "name": "claimSelfBAYC",
                        "returnParams": [],
                        "signature": "claimSelfBAYC(uint256[])"
                    },
                    "errorInfo": "",
                    "fromAddress": "0xcf0fff496ac56a7f15e1bc86ce703802a062a120",
                    "gasUsed": 127673,
                    "id": 0,
                    "methodDecoded": true,
                    "operation": "CALL",
                    "output": "",
                    "revert": false,
                    "revertMessage": "",
                    "selector": "0x20a325d0",
                    "status": true,
                    "value": "0"
                },
                "nodeType": 0
            },
            "1": {
                "event": {
                    "contract": "0x5954ab967bc958940b7eb73ee84797dc8a2afbb9",
                    "decodedLog": {
                        "name": "UpdatePool",
                        "params": [
                            {
                                "name": "poolId",
                                "type": "uint256",
                                "value": "1"
                            },
                            {
                                "name": "lastRewardedBlock",
                                "type": "uint256",
                                "value": "1,714,816,800"
                            },
                            {
                                "name": "stakedAmount",
                                "type": "uint256",
                                "value": "37,897,754,818,624,522,555,314,196"
                            },
                            {
                                "name": "accumulatedRewardsPerShare",
                                "type": "uint256",
                                "value": "1,370,373,714,628,770,331"
                            }
                        ],
                        "signature": "UpdatePool(uint256,uint256,uint256,uint256)"
                    },
                    "id": 1,
                    "logData": "0x00000000000000000000000000000000000000000000000000000000663607200000000000000000000000000000000000000000001f592967c3f476d77d501400000000000000000000000000000000000000000000000013048ba205fafa1b",
                    "logDecoded": true,
                    "operation": "EVENT",
                    "revert": false,
                    "status": true,
                    "topics": [
                        "0x3be3541fc42237d611b30329040bfa4569541d156560acdbbae57640d20b8f46",
                        "0x0000000000000000000000000000000000000000000000000000000000000001"
                    ]
                },
                "nodeType": 1
            },
            "2": {
                "invocation": {
                    "address": "0xbc4ca0eda7647a8ab7c2061c2e118a18a936f13d",
                    "callData": "0x000000000000000000000000000000000000000000000000000000000000099c",
                    "decodedMethod": {
                        "callParams": [
                            {
                                "name": "tokenId",
                                "type": "uint256",
                                "value": "2,460"
                            }
                        ],
                        "constructorArguments": "",
                        "name": "ownerOf",
                        "returnParams": [
                            {
                                "name": "",
                                "type": "address",
                                "value": "0xcf0fff496ac56a7f15e1bc86ce703802a062a120"
                            }
                        ],
                        "signature": "ownerOf(uint256)"
                    },
                    "errorInfo": "",
                    "fromAddress": "0x5954ab967bc958940b7eb73ee84797dc8a2afbb9",
                    "gasUsed": 7184,
                    "id": 2,
                    "methodDecoded": true,
                    "operation": "STATICCALL",
                    "output": "0x000000000000000000000000cf0fff496ac56a7f15e1bc86ce703802a062a120",
                    "revert": false,
                    "revertMessage": "",
                    "selector": "0x6352211e",
                    "status": true,
                    "value": "0"
                },
                "nodeType": 0
            },
            "3": {
                "invocation": {
                    "address": "0x4d224452801aced8b2f0aebe155379bb5d594381",
                    "callData": "0x000000000000000000000000cf0fff496ac56a7f15e1bc86ce703802a062a120000000000000000000000000000000000000000000000006ad55716a0879f1d2",
                    "decodedMethod": {
                        "callParams": [
                            {
                                "name": "recipient",
                                "type": "address",
                                "value": "0xcf0fff496ac56a7f15e1bc86ce703802a062a120"
                            },
                            {
                                "decimalAvailable": true,
                                "name": "amount",
                                "type": "uint256",
                                "value": "123,170,478,284,061,929,938"
                            }
                        ],
                        "constructorArguments": "",
                        "name": "transfer",
                        "returnParams": [
                            {
                                "name": "",
                                "type": "bool",
                                "value": true
                            }
                        ],
                        "signature": "transfer(address,uint256)"
                    },
                    "errorInfo": "",
                    "fromAddress": "0x5954ab967bc958940b7eb73ee84797dc8a2afbb9",
                    "gasUsed": 29953,
                    "id": 3,
                    "methodDecoded": true,
                    "operation": "CALL",
                    "output": "0x0000000000000000000000000000000000000000000000000000000000000001",
                    "revert": false,
                    "revertMessage": "",
                    "selector": "0xa9059cbb",
                    "status": true,
                    "value": "0"
                },
                "nodeType": 0
            },
            "4": {
                "event": {
                    "contract": "0x4d224452801aced8b2f0aebe155379bb5d594381",
                    "decodedLog": {
                        "name": "Transfer",
                        "params": [
                            {
                                "name": "from",
                                "type": "address",
                                "value": "0x5954ab967bc958940b7eb73ee84797dc8a2afbb9"
                            },
                            {
                                "name": "to",
                                "type": "address",
                                "value": "0xcf0fff496ac56a7f15e1bc86ce703802a062a120"
                            },
                            {
                                "decimalAvailable": true,
                                "name": "value",
                                "type": "uint256",
                                "value": "123,170,478,284,061,929,938"
                            }
                        ],
                        "signature": "Transfer(address,address,uint256)"
                    },
                    "id": 4,
                    "logData": "0x000000000000000000000000000000000000000000000006ad55716a0879f1d2",
                    "logDecoded": true,
                    "operation": "EVENT",
                    "revert": false,
                    "status": true,
                    "topics": [
                        "0xddf252ad1be2c89b69c2b068fc378daa952ba7f163c4a11628f55a4df523b3ef",
                        "0x0000000000000000000000005954ab967bc958940b7eb73ee84797dc8a2afbb9",
                        "0x000000000000000000000000cf0fff496ac56a7f15e1bc86ce703802a062a120"
                    ]
                },
                "nodeType": 1
            },
            "5": {
                "event": {
                    "contract": "0x5954ab967bc958940b7eb73ee84797dc8a2afbb9",
                    "decodedLog": {
                        "name": "ClaimRewardsNft",
                        "params": [
                            {
                                "name": "user",
                                "type": "address",
                                "value": "0xcf0fff496ac56a7f15e1bc86ce703802a062a120"
                            },
                            {
                                "name": "poolId",
                                "type": "uint256",
                                "value": "1"
                            },
                            {
                                "name": "amount",
                                "type": "uint256",
                                "value": "123,170,478,284,061,929,938"
                            },
                            {
                                "name": "tokenId",
                                "type": "uint256",
                                "value": "2,460"
                            }
                        ],
                        "signature": "ClaimRewardsNft(address,uint256,uint256,uint256)"
                    },
                    "id": 5,
                    "logData": "0x000000000000000000000000000000000000000000000006ad55716a0879f1d2000000000000000000000000000000000000000000000000000000000000099c",
                    "logDecoded": true,
                    "operation": "EVENT",
                    "revert": false,
                    "status": true,
                    "topics": [
                        "0xd334b3114fc25cbd72389ff9c361d5f8b0924e35fa237c65ac209a2cdcf4ba13",
                        "0x000000000000000000000000cf0fff496ac56a7f15e1bc86ce703802a062a120",
                        "0x0000000000000000000000000000000000000000000000000000000000000001"
                    ]
                },
                "nodeType": 1
            }
        },
        "gasFlame": [
            {
                "children": [
                    {
                        "children": [
                            {
                                "children": [],
                                "depth": 0,
                                "name": "Initial Gas",
                                "value": 21496
                            },
                            {
                                "children": [
                                    {
                                        "children": [],
                                        "depth": 1,
                                        "name": "ownerOf",
                                        "value": 7184
                                    },
                                    {
                                        "children": [],
                                        "depth": 1,
                                        "name": "transfer",
                                        "value": 29953
                                    }
                                ],
                                "depth": 0,
                                "name": "Executed Gas",
                                "value": 106177
                            }
                        ],
                        "depth": -1,
                        "name": "Actual Gas Used",
                        "value": 127673
                    },
                    {
                        "children": [],
                        "depth": -1,
                        "name": "Refunded Gas",
                        "value": 0
                    }
                ],
                "depth": -2,
                "name": "Total Gas",
                "value": 127673
            }
        ],
        "isConfirmed": true,
        "mainTrace": [
            {
                "children": [
                    {
                        "children": [
                            {
                                "children": [],
                                "depth": 1,
                                "id": 1,
                                "order": 1
                            },
                            {
                                "children": [],
                                "depth": 1,
                                "id": 2,
                                "order": 2
                            },
                            {
                                "children": [
                                    {
                                        "children": [],
                                        "depth": 2,
                                        "id": 4,
                                        "order": 4
                                    }
                                ],
                                "depth": 1,
                                "id": 3,
                                "order": 3
                            },
                            {
                                "children": [],
                                "depth": 1,
                                "id": 5,
                                "order": 5
                            }
                        ],
                        "depth": 0,
                        "id": 0,
                        "order": 0
                    }
                ],
                "depth": -1,
                "id": -1,
                "order": -1
            }
        ],
        "mainTraceNodeCount": 6,
        "parentIdMap": {
            "0": -1,
            "1": 0,
            "2": 0,
            "3": 0,
            "4": 3,
            "5": 0
        },
        "tidyTrace": [
            {
                "children": [
                    {
                        "children": [
                            {
                                "children": [],
                                "depth": 1,
                                "id": 1,
                                "order": 1
                            },
                            {
                                "children": [
                                    {
                                        "children": [],
                                        "depth": 2,
                                        "id": 4,
                                        "order": 4
                                    }
                                ],
                                "depth": 1,
                                "id": 3,
                                "order": 3
                            },
                            {
                                "children": [],
                                "depth": 1,
                                "id": 5,
                                "order": 5
                            }
                        ],
                        "depth": 0,
                        "id": 0,
                        "order": 0
                    }
                ],
                "depth": -1,
                "id": -1,
                "order": -1
            }
        ],
        "tidyTraceNodeCount": 5
    },
    "state_change": {
        "stateChanges": [
            {
                "address": "0x4d224452801aced8b2f0aebe155379bb5d594381",
                "erc": "ERC-20",
                "slots": [
                    {
                        "current": "0x000000000000000000000000000000000000000000000006ad55716a0879f1d2",
                        "key": "0xb00dc670cf869d6c7a09edc7c7a0fc80bf1cd19127179908f1d10616505c68db",
                        "prev": "0x0000000000000000000000000000000000000000000000000000000000000000"
                    },
                    {
                        "current": "0x00000000000000000000000000000000000000000083fb806688f43563449b7f",
                        "key": "0x5a487aff099fdb9bdbbe24c0a1f715ba19809799b929663b46f0f8b34e914ca4",
                        "prev": "0x00000000000000000000000000000000000000000083fb8713de659f6bbe8d51"
                    }
                ],
                "storageVariables": [
                    {
                        "name": "_balances",
                        "type": "mapping(address => uint256)",
                        "value": {
                            "pairs": [
                                {
                                    "key": "0x5954ab967bc958940b7eb73ee84797dc8a2afbb9",
                                    "value": {
                                        "current": "159556964928381836494936959",
                                        "prev": "159557088098860120556866897",
                                        "typeTag": 1
                                    }
                                },
                                {
                                    "key": "0xcf0fff496ac56a7f15e1bc86ce703802a062a120",
                                    "value": {
                                        "current": "123170478284061929938",
                                        "prev": "0",
                                        "typeTag": 1
                                    }
                                }
                            ],
                            "typeTag": 4
                        }
                    }
                ]
            },
            {
                "address": "0x5954ab967bc958940b7eb73ee84797dc8a2afbb9",
                "erc": "",
                "slots": [
                    {
                        "current": "0x0000000013048ba205fafa1b001f592967c3f476d77d50140005000066360720",
                        "key": "0x0000000000000000000000000000000000000000000000000000000000000006",
                        "prev": "0x00000000130449ac057af438001f592967c3f476d77d5014000500006635f910"
                    },
                    {
                        "current": "0x00000000000000000000000000000028a674a9d89dee18af5cb56dfc82280000",
                        "key": "0xba712bb8b7bb1f299af9090a6cf15293832ac17d70b7b7a20534dd387a278ac5",
                        "prev": "0x0000000000000000000000000000002849cae468afaa5b2d02d32fc40e200000"
                    }
                ],
                "storageVariables": [
                    {
                        "name": "nftPosition",
                        "type": "mapping(uint256 => mapping(uint256 => struct ApeCoinStaking.Position))",
                        "value": {
                            "pairs": [
                                {
                                    "key": "1",
                                    "value": {
                                        "pairs": [
                                            {
                                                "key": "2460",
                                                "value": {
                                                    "fields": [
                                                        {
                                                            "name": "rewardsDebt",
                                                            "type": "int256",
                                                            "value": {
                                                                "current": "13832552275462807721114000000000000000000",
                                                                "prev": "13709381797178745791176000000000000000000",
                                                                "typeTag": 1
                                                            }
                                                        }
                                                    ],
                                                    "typeTag": 3
                                                }
                                            }
                                        ],
                                        "typeTag": 4
                                    }
                                }
                            ],
                            "typeTag": 4
                        }
                    }
                ]
            }
        ]
    }
}