{
    "balance_change": {
        "balanceChanges": [
            {
                "account": "0xf457195a59f3554f4f6189bc204d6ac39aeab523",
                "assets": [
                    {
                        "address": "0x7528e3040376edd5db8263db2f5bd1bed91467fb",
                        "amount": "11.85",
                        "iconUrl": "",
                        "isERC1155": false,
                        "isERC721": false,
                        "sign": false,
                        "value": ""
                    }
                ]
            },
            {
                "account": "0xcb803397a1bf56b8b5af7ae6b5493fcd062c3726",
                "assets": [
                    {
                        "address": "0x7528e3040376edd5db8263db2f5bd1bed91467fb",
                        "amount": "11.85",
                        "iconUrl": "",
                        "isERC1155": false,
                        "isERC721": false,
                        "sign": true,
                        "value": ""
                    }
                ]
            }
        ]
    },
    "profile": {
        "basic_info": {
            "baseFee": "",
            "blockNumber": 5776441,
            "callData": "0xa9059cbb000000000000000000000000cb803397a1bf56b8b5af7ae6b5493fcd062c3726000000000000000000000000000000000000000000000000a473a8374c610000",
            "debugEnable": true,
            "errorInfo": "",
            "eventCount": 1,
            "feeRecipient": "0xea674fdde714fd979de3edf0f56aa9716b898ec8",
            "formatValue": "0",
            "gasLimit": 400000,
            "gasPrice": "5",
            "gasUsed": 51345,
            "intTxnCount": 0,
            "internalRevert": false,
            "internalRevertMessage": "",
            "isContractCreation": false,
            "isFlashloan": false,
            "maxFee": "",
            "nonce": 9831,
            "overwritedBlockNumber": -1,
            "priorityFee": "",
            "receiver": "0x7528e3040376edd5db8263db2f5bd1bed91467fb",
            "revertMessage": "",
            "sender": "0xf457195a59f3554f4f6189bc204d6ac39aeab523",
            "simulationEnable": true,
            "sourceTxnHash": "0xf67c9559ea622e1faf9ad102e4565bcacc30fcd1a26abaf81471677305c4fa1a",
            "status": true,
            "timestamp": "2018-06-12T14:43:29Z",
            "transactionFee": "0.000256725",
            "txnHash": "0xf67c9559ea622e1faf9ad102e4565bcacc30fcd1a26abaf81471677305c4fa1a",
            "txnIndex": 84,
            "type": 0,
            "value": "0"
        },
        "fund_flow": [
            {
                "amount": "11.85",
                "from": "0xf457195a59f3554f4f6189bc204d6ac39aeab523",
                "id": 1,
                "isERC1155": false,
                "isERC721": false,
                "isReverted": false,
                "order": 1,
                "to": "0xcb803397a1bf56b8b5af7ae6b5493fcd062c3726",
                "token": "0x7528e3040376edd5db8263db2f5bd1bed91467fb"
            }
        ],
        "token_infos": [
            {
                "address": "0xc02aaa39b223fe8d0a0e5c4f27ead9083c756cc2",
                "decimals": 18
            },
            {
                "address": "0xeeeeeeeeeeeeeeeeeeeeeeeeeeeeeeeeeeeeeeee",
                "decimals": 18
            },
            {
                "address": "0x7528e3040376edd5db8263db2f5bd1bed91467fb",
                "decimals": 18
            }
        ]
    },
    "address_label": {
        "labels": [
            {
                "address": "0x0000000000000000000000000000000000000003",
                "label": "Precompiled"
            },
            {
                "address": "0x0000000000000000000000000000000000000004",
                "label": "Precompiled"
            },
            {
                "address": "0xeeeeeeeeeeeeeeeeeeeeeeeeeeeeeeeeeeeeeeee",
                "label": "Ether"
            },
            {
                "address": "0x7528e3040376edd5db8263db2f5bd1bed91467fb",
                "label": "Simmitri Token"
            },
            {
                "address": "0x0000000000000000000000000000000000000001",
                "label": "Precompiled"
            },
            {
                "address": "0x0000000000000000000000000000000000000002",
                "label": "Precompiled"
            }
        ]
    },
    "trace": {
        "accountLabels": null,
        "dataMap": {
            "-1": {
                "invocation": {
                    "address": "0xf457195a59f3554f4f6189bc204d6ac39aeab523",
                    "callData": "",
                    "decodedMethod": null,
                    "errorInfo": "",
                    "fromAddress": "",
                    "gasUsed": 0,
                    "id": -1,
                    "methodDecoded": false,
                    "operation": "",
                    "output": "",
                    "revert": false,
                    "revertMessage": "",
                    "selector": "",
                    "status": false,
                    "value": ""
                },
                "nodeType": 0
            },
            "0": {
                "invocation": {
                    "address": "0x7528e3040376edd5db8263db2f5bd1bed91467fb",
                    "callData": "0x000000000000000000000000cb803397a1bf56b8b5af7ae6b5493fcd062c3726000000000000000000000000000000000000000000000000a473a8374c610000",
                    "decodedMethod": {
                        "callParams": [
                            {
                                "name": "recipient",
                                "type": "address",
                                "value": "0xcb803397a1bf56b8b5af7ae6b5493fcd062c3726"
                            },
                            {
                                "decimalAvailable": true,
                                "name": "amount",
                                "type": "uint256",
                                "value": "11,850,000,000,000,000,000"
                            }
                        ],
                        "constructorArguments": "",
                        "name": "transfer",
                        "returnParams": [
                            {
                                "name": "",
                                "type": "bool",
                                "value": true
                            }
                        ],
                        "signature": "transfer(address,uint256)"
                    },
                    "errorInfo": "",
                    "fromAddress": "0xf457195a59f3554f4f6189bc204d6ac39aeab523",
                    "gasUsed": 51345,
                    "id": 0,
                    "methodDecoded": true,
                    "operation": "CALL",
                    "output": "0x0000000000000000000000000000000000000000000000000000000000000001",
                    "revert": false,
                    "revertMessage": "",
                    "selector": "0xa9059cbb",
                    "status": true,
                    "value": "0"
                },
                "nodeType": 0
            },
            "1": {
                "event": {
                    "contract": "0x7528e3040376edd5db8263db2f5bd1bed91467fb",
                    "decodedLog": {
                        "name": "Transfer",
                        "params": [
                            {
                                "name": "from",
                                "type": "address",
                                "value": "0xf457195a59f3554f4f6189bc204d6ac39aeab523"
                            },
                            {
                                "name": "to",
                                "type": "address",
                                "value": "0xcb803397a1bf56b8b5af7ae6b5493fcd062c3726"
                            },
                            {
                                "decimalAvailable": true,
                                "name": "value",
                                "type": "uint256",
                                "value": "11,850,000,000,000,000,000"
                            }
                        ],
                        "signature": "Transfer(address,address,uint256)"
                    },
                    "id": 1,
                    "logData": "0x000000000000000000000000000000000000000000000000a473a8374c610000",
                    "logDecoded": true,
                    "operation": "EVENT",
                    "revert": false,
                    "status": true,
                    "topics": [
                        "0xddf252ad1be2c89b69c2b068fc378daa952ba7f163c4a11628f55a4df523b3ef",
                        "0x000000000000000000000000f457195a59f3554f4f6189bc204d6ac39aeab523",
                        "0x000000000000000000000000cb803397a1bf56b8b5af7ae6b5493fcd062c3726"
                    ]
                },
                "nodeType": 1
            }
        },
        "gasFlame": [
            {
                "children": [
                    {
                        "children": [
                            {
                                "children": [],
                                "depth": 0,
                                "name": "Initial Gas",
                                "value": 23192
                            },
                            {
                                "children": [],
                                "depth": 0,
                                "name": "Executed Gas",
                                "value": 28153
                            }
                        ],
                        "depth": -1,
                        "name": "Actual Gas Used",
                        "value": 51345
                    },
                    {
                        "children": [],
                        "depth": -1,
                        "name": "Refunded Gas",
                        "value": 0
                    }
                ],
                "depth": -2,
                "name": "Total Gas",
                "value": 51345
            }
        ],
        "isConfirmed": true,
        "mainTrace": [
            {
                "children": [
                    {
                        "children": [
                            {
                                "children": [],
                                "depth": 1,
                                "id": 1,
                                "order": 1
                            }
                        ],
                        "depth": 0,
                        "id": 0,
                        "order": 0
                    }
                ],
                "depth": -1,
                "id": -1,
                "order": -1
            }
        ],
        "mainTraceNodeCount": 2,
        "parentIdMap": {
            "0": -1,
            "1": 0
        },
        "tidyTrace": [
            {
                "children": [
                    {
                        "children": [
                            {
                                "children": [],
                                "depth": 1,
                                "id": 1,
                                "order": 1
                            }
                        ],
                        "depth": 0,
                        "id": 0,
                        "order": 0
                    }
                ],
                "depth": -1,
                "id": -1,
                "order": -1
            }
        ],
        "tidyTraceNodeCount": 2
    },
    "state_change": {
        "stateChanges": [
            {
                "address": "0x7528e3040376edd5db8263db2f5bd1bed91467fb",
                "erc": "",
                "slots": [
                    {
                        "current": "0x00000000000000000000000000000000000000000000530cec36b6e4ab12a286",
                        "key": "0xf0f08806156575609583147d9c353db48ec00c053d9960bad565a379ddec21a5",
                        "prev": "0x00000000000000000000000000000000000000000000530d90aa5f1bf773a286"
                    },
                    {
                        "current": "0x000000000000000000000000000000000000000000000000a473a8374c610000",
                        "key": "0xaff847ac1fae7bc05a354306b2d439b7cb48342461697c9483f10e694d82887d",
                        "prev": "0x0000000000000000000000000000000000000000000000000000000000000000"
                    }
                ],
                "storageVariables": []
            }
        ]
    }
}