{
    "balance_change": {
        "balanceChanges": [
            {
                "account": "0x9c29d8b1ff9060d1398d160f04b3810f77b9f961",
                "assets": [
                    {
                        "address": "0xd8682bfa6918b0174f287b888e765b9a1b4dc9c3",
                        "amount": "1",
                        "iconUrl": "",
                        "isERC1155": false,
                        "isERC721": true,
                        "sign": false,
                        "tokenID": "5974",
                        "value": ""
                    }
                ]
            },
            {
                "account": "0x097a5344eb462d5ddef7b8dc9c02506f317e2629",
                "assets": [
                    {
                        "address": "0xd8682bfa6918b0174f287b888e765b9a1b4dc9c3",
                        "amount": "1",
                        "iconUrl": "",
                        "isERC1155": false,
                        "isERC721": true,
                        "sign": true,
                        "tokenID": "5974",
                        "value": ""
                    }
                ]
            }
        ]
    },
    "profile": {
        "basic_info": {
            "baseFee": "71.929155408",
            "blockNumber": 13240631,
            "callData": "0x23b872dd0000000000000000000000009c29d8b1ff9060d1398d160f04b3810f77b9f961000000000000000000000000097a5344eb462d5ddef7b8dc9c02506f317e26290000000000000000000000000000000000000000000000000000000000001756",
            "debugEnable": true,
            "errorInfo": "",
            "eventCount": 2,
            "feeRecipient": "0x5a0b54d5dc17e0aadc383d2db43b0a0d3e029c4c",
            "formatValue": "0",
            "gasLimit": 46431,
            "gasPrice": "73.429155408",
            "gasUsed": 41631,
            "intTxnCount": 0,
            "internalRevert": false,
            "internalRevertMessage": "",
            "isContractCreation": false,
            "isFlashloan": false,
            "maxFee": "75.488760817",
            "nonce": 13,
            "overwritedBlockNumber": -1,
            "priorityFee": "1.5",
            "receiver": "0xd8682bfa6918b0174f287b888e765b9a1b4dc9c3",
            "revertMessage": "",
            "sender": "0x9c29d8b1ff9060d1398d160f04b3810f77b9f961",
            "simulationEnable": true,
            "sourceTxnHash": "0xf6cb0c3b346a7c6334bc0b35863a66ad05849f313cd669ae09bab2438e3df728",
            "status": true,
            "timestamp": "2021-09-17T02:41:53Z",
            "transactionFee": "0.003056929168790448",
            "txnHash": "0xf6cb0c3b346a7c6334bc0b35863a66ad05849f313cd669ae09bab2438e3df728",
            "txnIndex": 53,
            "type": 2,
            "value": "0"
        },
        "fund_flow": [
            {
                "amount": "1",
                "from": "0x9c29d8b1ff9060d1398d160f04b3810f77b9f961",
                "id": 1,
                "isERC1155": false,
                "isERC721": true,
                "isReverted": false,
                "order": 1,
                "to": "0x097a5344eb462d5ddef7b8dc9c02506f317e2629",
                "token": "0xd8682bfa6918b0174f287b888e765b9a1b4dc9c3",
                "tokenID": "5974"
            }
        ],
        "token_infos": [
            {
                "address": "0xeeeeeeeeeeeeeeeeeeeeeeeeeeeeeeeeeeeeeeee",
                "decimals": 18
            },
            {
                "address": "0xc02aaa39b223fe8d0a0e5c4f27ead9083c756cc2",
                "decimals": 18
            }
        ]
    },
    "address_label": {
        "labels": [
            {
                "address": "0xeeeeeeeeeeeeeeeeeeeeeeeeeeeeeeeeeeeeeeee",
                "label": "Ether"
            },
            {
                "address": "0xd8682bfa6918b0174f287b888e765b9a1b4dc9c3",
                "label": "The Moon Boyz (MOONBOYZ)"
            },
            {
                "address": "0x0000000000000000000000000000000000000001",
                "label": "Precompiled"
            },
            {
                "address": "0x0000000000000000000000000000000000000002",
                "label": "Precompiled"
            },
            {
                "address": "0x0000000000000000000000000000000000000003",
                "label": "Precompiled"
            },
            {
                "address": "0x0000000000000000000000000000000000000004",
                "label": "Precompiled"
            }
        ]
    },
    "trace": {
        "accountLabels": null,
        "dataMap": {
            "-1": {
                "invocation": {
                    "address": "0x9c29d8b1ff9060d1398d160f04b3810f77b9f961",
                    "callData": "",
                    "decodedMethod": null,
                    "errorInfo": "",
                    "fromAddress": "",
                    "gasUsed": 0,
                    "id": -1,
                    "methodDecoded": false,
                    "operation": "",
                    "output": "",
                    "revert": false,
                    "revertMessage": "",
                    "selector": "",
                    "status": false,
                    "value": ""
                },
                "nodeType": 0
            },
            "0": {
                "invocation": {
                    "address": "0xd8682bfa6918b0174f287b888e765b9a1b4dc9c3",
                    "callData": "0x0000000000000000000000009c29d8b1ff9060d1398d160f04b3810f77b9f961000000000000000000000000097a5344eb462d5ddef7b8dc9c02506f317e26290000000000000000000000000000000000000000000000000000000000001756",
                    "decodedMethod": {
                        "callParams": [
                            {
                                "name": "from",
                                "type": "address",
                                "value": "0x9c29d8b1ff9060d1398d160f04b3810f77b9f961"
                            },
                            {
                                "name": "to",
                                "type": "address",
                                "value": "0x097a5344eb462d5ddef7b8dc9c02506f317e2629"
                            },
                            {
                                "decimalAvailable": true,
                                "name": "tokenId",
                                "type": "uint256",
                                "value": "5,974"
                            }
                        ],
                        "constructorArguments": "",
                        "name": "transferFrom",
                        "returnParams": [],
                        "signature": "transferFrom(address,address,uint256)"
                    },
                    "errorInfo": "",
                    "fromAddress": "0x9c29d8b1ff9060d1398d160f04b3810f77b9f961",
                    "gasUsed": 41631,
                    "id": 0,
                    "methodDecoded": true,
                    "operation": "CALL",
                    "output": "",
                    "revert": false,
                    "revertMessage": "",
                    "selector": "0x23b872dd",
                    "status": true,
                    "value": "0"
                },
                "nodeType": 0
            },
            "1": {
                "event": {
                    "contract": "0xd8682bfa6918b0174f287b888e765b9a1b4dc9c3",
                    "decodedLog": {
                        "name": "Approval",
                        "params": [
                            {
                                "name": "owner",
                                "type": "address",
                                "value": "0x9c29d8b1ff9060d1398d160f04b3810f77b9f961"
                            },
                            {
                                "name": "approved",
                                "type": "address",
                                "value": "0x0000000000000000000000000000000000000000"
                            },
                            {
                                "decimalAvailable": true,
                                "name": "tokenId",
                                "type": "uint256",
                                "value": "5,974"
                            }
                        ],
                        "signature": "Approval(address,address,uint256)"
                    },
                    "id": 1,
                    "logData": "0x",
                    "logDecoded": true,
                    "operation": "EVENT",
                    "revert": false,
                    "status": true,
                    "topics": [
                        "0x8c5be1e5ebec7d5bd14f71427d1e84f3dd0314c0f7b2291e5b200ac8c7c3b925",
                        "0x0000000000000000000000009c29d8b1ff9060d1398d160f04b3810f77b9f961",
                        "0x0000000000000000000000000000000000000000000000000000000000000000",
                        "0x0000000000000000000000000000000000000000000000000000000000001756"
                    ]
                },
                "nodeType": 1
            },
            "2": {
                "event": {
                    "contract": "0xd8682bfa6918b0174f287b888e765b9a1b4dc9c3",
                    "decodedLog": {
                        "name": "Transfer",
                        "params": [
                            {
                                "name": "from",
                                "type": "address",
                                "value": "0x9c29d8b1ff9060d1398d160f04b3810f77b9f961"
                            },
                            {
                                "name": "to",
                                "type": "address",
                                "value": "0x097a5344eb462d5ddef7b8dc9c02506f317e2629"
                            },
                            {
                                "decimalAvailable": true,
                                "name": "tokenId",
                                "type": "uint256",
                                "value": "5,974"
                            }
                        ],
                        "signature": "Transfer(address,address,uint256)"
                    },
                    "id": 2,
                    "logData": "0x",
                    "logDecoded": true,
                    "operation": "EVENT",
                    "revert": false,
                    "status": true,
                    "topics": [
                        "0xddf252ad1be2c89b69c2b068fc378daa952ba7f163c4a11628f55a4df523b3ef",
                        "0x0000000000000000000000009c29d8b1ff9060d1398d160f04b3810f77b9f961",
                        "0x000000000000000000000000097a5344eb462d5ddef7b8dc9c02506f317e2629",
                        "0x0000000000000000000000000000000000000000000000000000000000001756"
                    ]
                },
                "nodeType": 1
            }
        },
        "gasFlame": [
            {
                "children": [
                    {
                        "children": [
                            {
                                "children": [],
                                "depth": 0,
                                "name": "Initial Gas",
                                "value": 21952
                            },
                            {
                                "children": [],
                                "depth": 0,
                                "name": "Executed Gas",
                                "value": 24479
                            }
                        ],
                        "depth": -1,
                        "name": "Actual Gas Used",
                        "value": 41631
                    },
                    {
                        "children": [],
                        "depth": -1,
                        "name": "Refunded Gas",
                        "value": 4800
                    }
                ],
                "depth": -2,
                "name": "Total Gas",
                "value": 46431
            }
        ],
        "isConfirmed": true,
        "mainTrace": [
            {
                "children": [
                    {
                        "children": [
                            {
                                "children": [],
                                "depth": 1,
                                "id": 1,
                                "order": 1
                            },
                            {
                                "children": [],
                                "depth": 1,
                                "id": 2,
                                "order": 2
                            }
                        ],
                        "depth": 0,
                        "id": 0,
                        "order": 0
                    }
                ],
                "depth": -1,
                "id": -1,
                "order": -1
            }
        ],
        "mainTraceNodeCount": 3,
        "parentIdMap": {
            "0": -1,
            "1": 0,
            "2": 0
        },
        "tidyTrace": [
            {
                "children": [
                    {
                        "children": [
                            {
                                "children": [],
                                "depth": 1,
                                "id": 1,
                                "order": 1
                            },
                            {
                                "children": [],
                                "depth": 1,
                                "id": 2,
                                "order": 2
                            }
                        ],
                        "depth": 0,
                        "id": 0,
                        "order": 0
                    }
                ],
                "depth": -1,
                "id": -1,
                "order": -1
            }
        ],
        "tidyTraceNodeCount": 3
    },
    "state_change": {
        "stateChanges": [
            {
                "address": "0xd8682bfa6918b0174f287b888e765b9a1b4dc9c3",
                "erc": "ERC-721",
                "slots": [
                    {
                        "current": "0x0000000000000000000000000000000000000000000000000000000000000000",
                        "key": "0x1eefe8c59a0f77407060be5a794f26d920dbbb2db79dfe9ca7613e08d350b9cb",
                        "prev": "0x0000000000000000000000000000000000000000000000000000000000000001"
                    },
                    {
                        "current": "0x0000000000000000000000000000000000000000000000000000000000000005",
                        "key": "0x61e08f2058e6302c354620297039a57b447b52d4fdc2a59203d38b441974065c",
                        "prev": "0x0000000000000000000000000000000000000000000000000000000000000004"
                    },
                    {
                        "current": "0x000000000000000000000000097a5344eb462d5ddef7b8dc9c02506f317e2629",
                        "key": "0x1c461d4f55b12605c1bf1ea4dc6947024c8330dcc76a6bc948122ada3b7767e3",
                        "prev": "0x0000000000000000000000009c29d8b1ff9060d1398d160f04b3810f77b9f961"
                    }
                ],
                "storageVariables": [
                    {
                        "name": "_balances",
                        "type": "mapping(address => uint256)",
                        "value": {
                            "pairs": [
                                {
                                    "key": "0x097a5344eb462d5ddef7b8dc9c02506f317e2629",
                                    "value": {
                                        "current": "5",
                                        "prev": "4",
                                        "typeTag": 1
                                    }
                                },
                                {
                                    "key": "0x9c29d8b1ff9060d1398d160f04b3810f77b9f961",
                                    "value": {
                                        "current": "0",
                                        "prev": "1",
                                        "typeTag": 1
                                    }
                                }
                            ],
                            "typeTag": 4
                        }
                    },
                    {
                        "name": "_owners",
                        "type": "mapping(uint256 => address)",
                        "value": {
                            "pairs": [
                                {
                                    "key": "5974",
                                    "value": {
                                        "current": "0x097a5344eb462d5ddef7b8dc9c02506f317e2629",
                                        "prev": "0x9c29d8b1ff9060d1398d160f04b3810f77b9f961",
                                        "typeTag": 1
                                    }
                                }
                            ],
                            "typeTag": 4
                        }
                    }
                ]
            }
        ]
    }
}