{
    "balance_change": {
        "balanceChanges": [
            {
                "account": "0xa8fdc778fda2df87b3fa5842dca3b5ff3f3b0e76",
                "assets": [
                    {
                        "address": "0x6810e776880c02933d47db1b9fc05908e5386b96",
                        "amount": "1.51630023",
                        "iconUrl": "https://assets.blocksec.com/icon/d33574ee39c5c96cdbdfd09b51ce9cff03242b8fd03ce2392e3591da44ce617d.png",
                        "isERC1155": false,
                        "isERC721": false,
                        "sign": false,
                        "value": ""
                    }
                ]
            },
            {
                "account": "0x70e00d45ef2a40a688b7aae73b4d5d2d270f8b15",
                "assets": [
                    {
                        "address": "0x6810e776880c02933d47db1b9fc05908e5386b96",
                        "amount": "1.51630023",
                        "iconUrl": "https://assets.blocksec.com/icon/d33574ee39c5c96cdbdfd09b51ce9cff03242b8fd03ce2392e3591da44ce617d.png",
                        "isERC1155": false,
                        "isERC721": false,
                        "sign": true,
                        "value": ""
                    }
                ]
            }
        ]
    },
    "profile": {
        "basic_info": {
            "baseFee": "",
            "blockNumber": 4568724,
            "callData": "0xa9059cbb00000000000000000000000070e00d45ef2a40a688b7aae73b4d5d2d270f8b15000000000000000000000000000000000000000000000000150afb0685fe3c00",
            "debugEnable": true,
            "errorInfo": "",
            "eventCount": 1,
            "feeRecipient": "0x829bd824b016326a401d083b33d092293333a830",
            "formatValue": "0",
            "gasLimit": 300000,
            "gasPrice": "35",
            "gasUsed": 51473,
            "intTxnCount": 0,
            "internalRevert": false,
            "internalRevertMessage": "",
            "isContractCreation": false,
            "isFlashloan": false,
            "maxFee": "",
            "nonce": 8664,
            "overwritedBlockNumber": -1,
            "priorityFee": "",
            "receiver": "0x6810e776880c02933d47db1b9fc05908e5386b96",
            "revertMessage": "",
            "sender": "0xa8fdc778fda2df87b3fa5842dca3b5ff3f3b0e76",
            "simulationEnable": true,
            "sourceTxnHash": "0xf6bf8860597e275f58d8c16db42ab4137dcef5f70e4222cb8cbd6cf9fa6f03e6",
            "status": true,
            "timestamp": "2017-11-17T08:54:59Z",
            "transactionFee": "0.001801555",
            "txnHash": "0xf6bf8860597e275f58d8c16db42ab4137dcef5f70e4222cb8cbd6cf9fa6f03e6",
            "txnIndex": 0,
            "type": 0,
            "value": "0"
        },
        "fund_flow": [
            {
                "amount": "1.51630023",
                "from": "0xa8fdc778fda2df87b3fa5842dca3b5ff3f3b0e76",
                "id": 1,
                "isERC1155": false,
                "isERC721": false,
                "isReverted": false,
                "order": 1,
                "to": "0x70e00d45ef2a40a688b7aae73b4d5d2d270f8b15",
                "token": "0x6810e776880c02933d47db1b9fc05908e5386b96"
            }
        ],
        "token_infos": [
            {
                "address": "0x6810e776880c02933d47db1b9fc05908e5386b96",
                "decimals": 18
            },
            {
                "address": "0xc02aaa39b223fe8d0a0e5c4f27ead9083c756cc2",
                "decimals": 18
            },
            {
                "address": "0xeeeeeeeeeeeeeeeeeeeeeeeeeeeeeeeeeeeeeeee",
                "decimals": 18
            }
        ]
    },
    "address_label": {
        "labels": [
            {
                "address": "0xeeeeeeeeeeeeeeeeeeeeeeeeeeeeeeeeeeeeeeee",
                "label": "Ether"
            },
            {
                "address": "0x6810e776880c02933d47db1b9fc05908e5386b96",
                "label": "Gnosis: GNO Token"
            },
            {
                "address": "0x0000000000000000000000000000000000000001",
                "label": "Precompiled"
            },
            {
                "address": "0x0000000000000000000000000000000000000002",
                "label": "Precompiled"
            },
            {
                "address": "0x0000000000000000000000000000000000000003",
                "label": "Precompiled"
            },
            {
                "address": "0x0000000000000000000000000000000000000004",
                "label": "Precompiled"
            }
        ]
    },
    "trace": {
        "accountLabels": null,
        "dataMap": {
            "-1": {
                "invocation": {
                    "address": "0xa8fdc778fda2df87b3fa5842dca3b5ff3f3b0e76",
                    "callData": "",
                    "decodedMethod": null,
                    "errorInfo": "",
                    "fromAddress": "",
                    "gasUsed": 0,
                    "id": -1,
                    "methodDecoded": false,
                    "operation": "",
                    "output": "",
                    "revert": false,
                    "revertMessage": "",
                    "selector": "",
                    "status": false,
                    "value": ""
                },
                "nodeType": 0
            },
            "0": {
                "invocation": {
                    "address": "0x6810e776880c02933d47db1b9fc05908e5386b96",
                    "callData": "0x00000000000000000000000070e00d45ef2a40a688b7aae73b4d5d2d270f8b15000000000000000000000000000000000000000000000000150afb0685fe3c00",
                    "decodedMethod": {
                        "callParams": [
                            {
                                "name": "_to",
                                "type": "address",
                                "value": "0x70e00d45ef2a40a688b7aae73b4d5d2d270f8b15"
                            },
                            {
                                "decimalAvailable": true,
                                "name": "_value",
                                "type": "uint256",
                                "value": "1,516,300,230,000,000,000"
                            }
                        ],
                        "constructorArguments": "",
                        "name": "transfer",
                        "returnParams": [
                            {
                                "name": "",
                                "type": "bool",
                                "value": true
                            }
                        ],
                        "signature": "transfer(address,uint256)"
                    },
                    "errorInfo": "",
                    "fromAddress": "0xa8fdc778fda2df87b3fa5842dca3b5ff3f3b0e76",
                    "gasUsed": 51473,
                    "id": 0,
                    "methodDecoded": true,
                    "operation": "CALL",
                    "output": "0x0000000000000000000000000000000000000000000000000000000000000001",
                    "revert": false,
                    "revertMessage": "",
                    "selector": "0xa9059cbb",
                    "status": true,
                    "value": "0"
                },
                "nodeType": 0
            },
            "1": {
                "event": {
                    "contract": "0x6810e776880c02933d47db1b9fc05908e5386b96",
                    "decodedLog": {
                        "name": "Transfer",
                        "params": [
                            {
                                "name": "from",
                                "type": "address",
                                "value": "0xa8fdc778fda2df87b3fa5842dca3b5ff3f3b0e76"
                            },
                            {
                                "name": "to",
                                "type": "address",
                                "value": "0x70e00d45ef2a40a688b7aae73b4d5d2d270f8b15"
                            },
                            {
                                "decimalAvailable": true,
                                "name": "value",
                                "type": "uint256",
                                "value": "1,516,300,230,000,000,000"
                            }
                        ],
                        "signature": "Transfer(address,address,uint256)"
                    },
                    "id": 1,
                    "logData": "0x000000000000000000000000000000000000000000000000150afb0685fe3c00",
                    "logDecoded": true,
                    "operation": "EVENT",
                    "revert": false,
                    "status": true,
                    "topics": [
                        "0xddf252ad1be2c89b69c2b068fc378daa952ba7f163c4a11628f55a4df523b3ef",
                        "0x000000000000000000000000a8fdc778fda2df87b3fa5842dca3b5ff3f3b0e76",
                        "0x00000000000000000000000070e00d45ef2a40a688b7aae73b4d5d2d270f8b15"
                    ]
                },
                "nodeType": 1
            }
        },
        "gasFlame": [
            {
                "children": [
                    {
                        "children": [
                            {
                                "children": [],
                                "depth": 0,
                                "name": "Initial Gas",
                                "value": 23256
                            },
                            {
                                "children": [],
                                "depth": 0,
                                "name": "Executed Gas",
                                "value": 28217
                            }
                        ],
                        "depth": -1,
                        "name": "Actual Gas Used",
                        "value": 51473
                    },
                    {
                        "children": [],
                        "depth": -1,
                        "name": "Refunded Gas",
                        "value": 0
                    }
                ],
                "depth": -2,
                "name": "Total Gas",
                "value": 51473
            }
        ],
        "isConfirmed": true,
        "mainTrace": [
            {
                "children": [
                    {
                        "children": [
                            {
                                "children": [],
                                "depth": 1,
                                "id": 1,
                                "order": 1
                            }
                        ],
                        "depth": 0,
                        "id": 0,
                        "order": 0
                    }
                ],
                "depth": -1,
                "id": -1,
                "order": -1
            }
        ],
        "mainTraceNodeCount": 2,
        "parentIdMap": {
            "0": -1,
            "1": 0
        },
        "tidyTrace": [
            {
                "children": [
                    {
                        "children": [
                            {
                                "children": [],
                                "depth": 1,
                                "id": 1,
                                "order": 1
                            }
                        ],
                        "depth": 0,
                        "id": 0,
                        "order": 0
                    }
                ],
                "depth": -1,
                "id": -1,
                "order": -1
            }
        ],
        "tidyTraceNodeCount": 2
    },
    "state_change": {
        "stateChanges": [
            {
                "address": "0x6810e776880c02933d47db1b9fc05908e5386b96",
                "erc": "ERC-20",
                "slots": [
                    {
                        "current": "0x00000000000000000000000000000000000000000000001198b05c59343b7f96",
                        "key": "0x219b934aa979c6ee3f4116e14cb57e5df924dc67726b1b83f003512cb85a6e21",
                        "prev": "0x000000000000000000000000000000000000000000000011adbb575fba39bb96"
                    },
                    {
                        "current": "0x000000000000000000000000000000000000000000000000150afb0685fe3c00",
                        "key": "0x722680b354cb87306e416b7e4589cb1cb558a778e8c04aa4533dc925a16641a4",
                        "prev": "0x0000000000000000000000000000000000000000000000000000000000000000"
                    }
                ],
                "storageVariables": []
            }
        ]
    }
}