{
    "balance_change": {
        "balanceChanges": [
            {
                "account": "0xab93735c0ad13ce73149f691d9fa7fa449c4ba22",
                "assets": [
                    {
                        "address": "0x888666ca69e0f178ded6d75b5726cee99a87d698",
                        "amount": "1",
                        "iconUrl": "https://assets.blocksec.com/icon/a0a697a80871d0198549343dc1f46e4e3b86cd46ec34f4a83f958a2a7c0bf6d2.png",
                        "isERC1155": false,
                        "isERC721": false,
                        "sign": false,
                        "value": ""
                    }
                ]
            },
            {
                "account": "0xf9c10dc0acac201388c96374e3386f568962d0e8",
                "assets": [
                    {
                        "address": "0x888666ca69e0f178ded6d75b5726cee99a87d698",
                        "amount": "1",
                        "iconUrl": "https://assets.blocksec.com/icon/a0a697a80871d0198549343dc1f46e4e3b86cd46ec34f4a83f958a2a7c0bf6d2.png",
                        "isERC1155": false,
                        "isERC721": false,
                        "sign": true,
                        "value": ""
                    }
                ]
            }
        ]
    },
    "profile": {
        "basic_info": {
            "baseFee": "",
            "blockNumber": 4596967,
            "callData": "0xa9059cbb000000000000000000000000f9c10dc0acac201388c96374e3386f568962d0e80000000000000000000000000000000000000000000000000de0b6b3a7640000",
            "debugEnable": true,
            "errorInfo": "",
            "eventCount": 1,
            "feeRecipient": "0xf3b9d2c81f2b24b0fa0acaaa865b7d9ced5fc2fb",
            "formatValue": "0",
            "gasLimit": 1000000,
            "gasPrice": "25",
            "gasUsed": 52051,
            "intTxnCount": 0,
            "internalRevert": false,
            "internalRevertMessage": "",
            "isContractCreation": false,
            "isFlashloan": false,
            "maxFee": "",
            "nonce": 1179,
            "overwritedBlockNumber": -1,
            "priorityFee": "",
            "receiver": "0x888666ca69e0f178ded6d75b5726cee99a87d698",
            "revertMessage": "",
            "sender": "0xab93735c0ad13ce73149f691d9fa7fa449c4ba22",
            "simulationEnable": true,
            "sourceTxnHash": "0xf7e66e6d40667ddc2e5c6b708005cf412d4b135886144476f5089d234092b8e4",
            "status": true,
            "timestamp": "2017-11-21T22:02:38Z",
            "transactionFee": "0.001301275",
            "txnHash": "0xf7e66e6d40667ddc2e5c6b708005cf412d4b135886144476f5089d234092b8e4",
            "txnIndex": 6,
            "type": 0,
            "value": "0"
        },
        "fund_flow": [
            {
                "amount": "1",
                "from": "0xab93735c0ad13ce73149f691d9fa7fa449c4ba22",
                "id": 1,
                "isERC1155": false,
                "isERC721": false,
                "isReverted": false,
                "order": 1,
                "to": "0xf9c10dc0acac201388c96374e3386f568962d0e8",
                "token": "0x888666ca69e0f178ded6d75b5726cee99a87d698"
            }
        ],
        "token_infos": [
            {
                "address": "0x888666ca69e0f178ded6d75b5726cee99a87d698",
                "decimals": 18
            },
            {
                "address": "0xc02aaa39b223fe8d0a0e5c4f27ead9083c756cc2",
                "decimals": 18
            },
            {
                "address": "0xeeeeeeeeeeeeeeeeeeeeeeeeeeeeeeeeeeeeeeee",
                "decimals": 18
            }
        ]
    },
    "address_label": {
        "labels": [
            {
                "address": "0xeeeeeeeeeeeeeeeeeeeeeeeeeeeeeeeeeeeeeeee",
                "label": "Ether"
            },
            {
                "address": "0x888666ca69e0f178ded6d75b5726cee99a87d698",
                "label": "ICONOMI Token"
            },
            {
                "address": "0x0000000000000000000000000000000000000001",
                "label": "Precompiled"
            },
            {
                "address": "0x0000000000000000000000000000000000000002",
                "label": "Precompiled"
            },
            {
                "address": "0x0000000000000000000000000000000000000003",
                "label": "Precompiled"
            },
            {
                "address": "0x0000000000000000000000000000000000000004",
                "label": "Precompiled"
            }
        ]
    },
    "trace": {
        "accountLabels": null,
        "dataMap": {
            "-1": {
                "invocation": {
                    "address": "0xab93735c0ad13ce73149f691d9fa7fa449c4ba22",
                    "callData": "",
                    "decodedMethod": null,
                    "errorInfo": "",
                    "fromAddress": "",
                    "gasUsed": 0,
                    "id": -1,
                    "methodDecoded": false,
                    "operation": "",
                    "output": "",
                    "revert": false,
                    "revertMessage": "",
                    "selector": "",
                    "status": false,
                    "value": ""
                },
                "nodeType": 0
            },
            "0": {
                "invocation": {
                    "address": "0x888666ca69e0f178ded6d75b5726cee99a87d698",
                    "callData": "0x000000000000000000000000f9c10dc0acac201388c96374e3386f568962d0e80000000000000000000000000000000000000000000000000de0b6b3a7640000",
                    "decodedMethod": {
                        "callParams": [
                            {
                                "name": "_to",
                                "type": "address",
                                "value": "0xf9c10dc0acac201388c96374e3386f568962d0e8"
                            },
                            {
                                "decimalAvailable": true,
                                "name": "_value",
                                "type": "uint256",
                                "value": "1,000,000,000,000,000,000"
                            }
                        ],
                        "constructorArguments": "",
                        "name": "transfer",
                        "returnParams": [
                            {
                                "name": "success",
                                "type": "bool",
                                "value": true
                            }
                        ],
                        "signature": "transfer(address,uint256)"
                    },
                    "errorInfo": "",
                    "fromAddress": "0xab93735c0ad13ce73149f691d9fa7fa449c4ba22",
                    "gasUsed": 52051,
                    "id": 0,
                    "methodDecoded": true,
                    "operation": "CALL",
                    "output": "0x0000000000000000000000000000000000000000000000000000000000000001",
                    "revert": false,
                    "revertMessage": "",
                    "selector": "0xa9059cbb",
                    "status": true,
                    "value": "0"
                },
                "nodeType": 0
            },
            "1": {
                "event": {
                    "contract": "0x888666ca69e0f178ded6d75b5726cee99a87d698",
                    "decodedLog": {
                        "name": "Transfer",
                        "params": [
                            {
                                "name": "_from",
                                "type": "address",
                                "value": "0xab93735c0ad13ce73149f691d9fa7fa449c4ba22"
                            },
                            {
                                "name": "_to",
                                "type": "address",
                                "value": "0xf9c10dc0acac201388c96374e3386f568962d0e8"
                            },
                            {
                                "decimalAvailable": true,
                                "name": "_value",
                                "type": "uint256",
                                "value": "1,000,000,000,000,000,000"
                            }
                        ],
                        "signature": "Transfer(address,address,uint256)"
                    },
                    "id": 1,
                    "logData": "0x0000000000000000000000000000000000000000000000000de0b6b3a7640000",
                    "logDecoded": true,
                    "operation": "EVENT",
                    "revert": false,
                    "status": true,
                    "topics": [
                        "0xddf252ad1be2c89b69c2b068fc378daa952ba7f163c4a11628f55a4df523b3ef",
                        "0x000000000000000000000000ab93735c0ad13ce73149f691d9fa7fa449c4ba22",
                        "0x000000000000000000000000f9c10dc0acac201388c96374e3386f568962d0e8"
                    ]
                },
                "nodeType": 1
            }
        },
        "gasFlame": [
            {
                "children": [
                    {
                        "children": [
                            {
                                "children": [],
                                "depth": 0,
                                "name": "Initial Gas",
                                "value": 23192
                            },
                            {
                                "children": [],
                                "depth": 0,
                                "name": "Executed Gas",
                                "value": 28859
                            }
                        ],
                        "depth": -1,
                        "name": "Actual Gas Used",
                        "value": 52051
                    },
                    {
                        "children": [],
                        "depth": -1,
                        "name": "Refunded Gas",
                        "value": 0
                    }
                ],
                "depth": -2,
                "name": "Total Gas",
                "value": 52051
            }
        ],
        "isConfirmed": true,
        "mainTrace": [
            {
                "children": [
                    {
                        "children": [
                            {
                                "children": [],
                                "depth": 1,
                                "id": 1,
                                "order": 1
                            }
                        ],
                        "depth": 0,
                        "id": 0,
                        "order": 0
                    }
                ],
                "depth": -1,
                "id": -1,
                "order": -1
            }
        ],
        "mainTraceNodeCount": 2,
        "parentIdMap": {
            "0": -1,
            "1": 0
        },
        "tidyTrace": [
            {
                "children": [
                    {
                        "children": [
                            {
                                "children": [],
                                "depth": 1,
                                "id": 1,
                                "order": 1
                            }
                        ],
                        "depth": 0,
                        "id": 0,
                        "order": 0
                    }
                ],
                "depth": -1,
                "id": -1,
                "order": -1
            }
        ],
        "tidyTraceNodeCount": 2
    },
    "state_change": {
        "stateChanges": [
            {
                "address": "0x888666ca69e0f178ded6d75b5726cee99a87d698",
                "erc": "ERC-20",
                "slots": [
                    {
                        "current": "0x000000000000000000000000000000000000000000000ec4577a0e9a1c1e329f",
                        "key": "0x447851c93389b4162fe98e8a0c9dd26205d07a5d22c0ec1f97b942c2cff6963c",
                        "prev": "0x000000000000000000000000000000000000000000000ec4655ac54dc382329f"
                    },
                    {
                        "current": "0x0000000000000000000000000000000000000000000000000de0b6b3a7640000",
                        "key": "0xf616cf0131df9a53c2b231ce34c96071c8f39478949164b3920d989251f1e4fe",
                        "prev": "0x0000000000000000000000000000000000000000000000000000000000000000"
                    }
                ],
                "storageVariables": []
            }
        ]
    }
}