{
    "balance_change": {
        "balanceChanges": [
            {
                "account": "0x0000000000000000000000000000000000000000",
                "assets": [
                    {
                        "address": "0x06450dee7fd2fb8e39061434babcfc05599a6fb8",
                        "amount": "12,638,565",
                        "iconUrl": "https://assets.blocksec.com/icon/bfebae0534bdef52bef16dcfadd09b51dc489ab1144c9f2d6568357f9adb9ecd.png",
                        "isERC1155": false,
                        "isERC721": false,
                        "sign": false,
                        "value": ""
                    }
                ]
            },
            {
                "account": "0xce44345e00cfd16735d27ee980858572a2705863",
                "assets": [
                    {
                        "address": "0x06450dee7fd2fb8e39061434babcfc05599a6fb8",
                        "amount": "12,638,565",
                        "iconUrl": "https://assets.blocksec.com/icon/bfebae0534bdef52bef16dcfadd09b51dc489ab1144c9f2d6568357f9adb9ecd.png",
                        "isERC1155": false,
                        "isERC721": false,
                        "sign": true,
                        "value": ""
                    }
                ]
            }
        ]
    },
    "profile": {
        "basic_info": {
            "baseFee": "13.974009183",
            "blockNumber": 17469512,
            "callData": "0x1c560305000000000000000000000000ce44345e00cfd16735d27ee980858572a27058630000000000000000000000000000000000000000000000000000000000000064",
            "debugEnable": true,
            "errorInfo": "",
            "eventCount": 3,
            "feeRecipient": "0x388c818ca8b9251b393131c08a736a67ccb19297",
            "formatValue": "0",
            "gasLimit": 92034,
            "gasPrice": "14.074009183",
            "gasUsed": 73628,
            "intTxnCount": 2,
            "internalRevert": false,
            "internalRevertMessage": "",
            "isContractCreation": false,
            "isFlashloan": false,
            "maxFee": "20.009616059",
            "nonce": 1,
            "overwritedBlockNumber": -1,
            "priorityFee": "0.1",
            "receiver": "0x06450dee7fd2fb8e39061434babcfc05599a6fb8",
            "revertMessage": "",
            "sender": "0x4d01568c8c84455a2c8bd93b49cb3127bd2e1b72",
            "simulationEnable": true,
            "sourceTxnHash": "0xf7b0ac012d6d3636b208c3bc3e582e1ee538b26275dca9045bc31564426e5954",
            "status": true,
            "timestamp": "2023-06-13T07:12:23Z",
            "transactionFee": "0.001036241148125924",
            "txnHash": "0xf7b0ac012d6d3636b208c3bc3e582e1ee538b26275dca9045bc31564426e5954",
            "txnIndex": 79,
            "type": 2,
            "value": "0"
        },
        "fund_flow": [
            {
                "amount": "0",
                "from": "0x0000000000000000000000000000000000000000",
                "id": 1,
                "isERC1155": false,
                "isERC721": false,
                "isReverted": false,
                "order": 1,
                "to": "0x4d01568c8c84455a2c8bd93b49cb3127bd2e1b72",
                "token": "0x06450dee7fd2fb8e39061434babcfc05599a6fb8"
            },
            {
                "amount": "12,638,565",
                "from": "0x0000000000000000000000000000000000000000",
                "id": 2,
                "isERC1155": false,
                "isERC721": false,
                "isReverted": false,
                "order": 2,
                "to": "0xce44345e00cfd16735d27ee980858572a2705863",
                "token": "0x06450dee7fd2fb8e39061434babcfc05599a6fb8"
            }
        ],
        "token_infos": [
            {
                "address": "0xc02aaa39b223fe8d0a0e5c4f27ead9083c756cc2",
                "decimals": 18
            },
            {
                "address": "0xeeeeeeeeeeeeeeeeeeeeeeeeeeeeeeeeeeeeeeee",
                "decimals": 18
            },
            {
                "address": "0x06450dee7fd2fb8e39061434babcfc05599a6fb8",
                "decimals": 18
            }
        ]
    },
    "address_label": {
        "labels": [
            {
                "address": "0x0000000000000000000000000000000000000001",
                "label": "Precompiled"
            },
            {
                "address": "0x0000000000000000000000000000000000000002",
                "label": "Precompiled"
            },
            {
                "address": "0x0000000000000000000000000000000000000003",
                "label": "Precompiled"
            },
            {
                "address": "0x0000000000000000000000000000000000000004",
                "label": "Precompiled"
            },
            {
                "address": "0xeeeeeeeeeeeeeeeeeeeeeeeeeeeeeeeeeeeeeeee",
                "label": "Ether"
            },
            {
                "address": "0x06450dee7fd2fb8e39061434babcfc05599a6fb8",
                "label": "XEN Crypto: XEN Token"
            },
            {
                "address": "0x4bba9b6b49f3dfa6615f079e9d66b0aa68b04a4d",
                "label": "Math"
            },
            {
                "address": "0x388c818ca8b9251b393131c08a736a67ccb19297",
                "label": "LidoExecutionLayerRewardsVault"
            }
        ]
    },
    "trace": {
        "accountLabels": null,
        "dataMap": {
            "-1": {
                "invocation": {
                    "address": "0x4d01568c8c84455a2c8bd93b49cb3127bd2e1b72",
                    "callData": "",
                    "decodedMethod": null,
                    "errorInfo": "",
                    "fromAddress": "",
                    "gasUsed": 0,
                    "id": -1,
                    "methodDecoded": false,
                    "operation": "",
                    "output": "",
                    "revert": false,
                    "revertMessage": "",
                    "selector": "",
                    "status": false,
                    "value": ""
                },
                "nodeType": 0
            },
            "0": {
                "invocation": {
                    "address": "0x06450dee7fd2fb8e39061434babcfc05599a6fb8",
                    "callData": "0x000000000000000000000000ce44345e00cfd16735d27ee980858572a27058630000000000000000000000000000000000000000000000000000000000000064",
                    "decodedMethod": {
                        "callParams": [
                            {
                                "name": "other",
                                "type": "address",
                                "value": "0xce44345e00cfd16735d27ee980858572a2705863"
                            },
                            {
                                "name": "pct",
                                "type": "uint256",
                                "value": "100"
                            }
                        ],
                        "constructorArguments": "",
                        "name": "claimMintRewardAndShare",
                        "returnParams": [],
                        "signature": "claimMintRewardAndShare(address,uint256)"
                    },
                    "errorInfo": "",
                    "fromAddress": "0x4d01568c8c84455a2c8bd93b49cb3127bd2e1b72",
                    "gasUsed": 73628,
                    "id": 0,
                    "methodDecoded": true,
                    "operation": "CALL",
                    "output": "",
                    "revert": false,
                    "revertMessage": "",
                    "selector": "0x1c560305",
                    "status": true,
                    "value": "0"
                },
                "nodeType": 0
            },
            "1": {
                "invocation": {
                    "address": "0x4bba9b6b49f3dfa6615f079e9d66b0aa68b04a4d",
                    "callData": "0x00000000000000000000000000000000000000000000000000000000000000000000000000000000000000000000000000000000000000000000000000000063",
                    "decodedMethod": {
                        "callParams": [
                            {
                                "name": "a",
                                "type": "uint256",
                                "value": "0"
                            },
                            {
                                "name": "b",
                                "type": "uint256",
                                "value": "99"
                            }
                        ],
                        "constructorArguments": "",
                        "name": "min",
                        "returnParams": [
                            {
                                "name": "",
                                "type": "uint256",
                                "value": "0"
                            }
                        ],
                        "signature": "min(uint256,uint256)"
                    },
                    "errorInfo": "",
                    "fromAddress": "0x06450dee7fd2fb8e39061434babcfc05599a6fb8",
                    "gasUsed": 349,
                    "id": 1,
                    "methodDecoded": true,
                    "operation": "DELEGATECALL",
                    "output": "0x0000000000000000000000000000000000000000000000000000000000000000",
                    "revert": false,
                    "revertMessage": "",
                    "selector": "0x7ae2b5c7",
                    "status": true,
                    "value": "0"
                },
                "nodeType": 0
            },
            "2": {
                "invocation": {
                    "address": "0x4bba9b6b49f3dfa6615f079e9d66b0aa68b04a4d",
                    "callData": "0x000000000000000000000000000000000000000000000000000000000078229c0000000000000000000000000000000000000000000000000000000000000002",
                    "decodedMethod": {
                        "callParams": [
                            {
                                "name": "a",
                                "type": "uint256",
                                "value": "7,873,180"
                            },
                            {
                                "name": "b",
                                "type": "uint256",
                                "value": "2"
                            }
                        ],
                        "constructorArguments": "",
                        "name": "max",
                        "returnParams": [
                            {
                                "name": "",
                                "type": "uint256",
                                "value": "7,873,180"
                            }
                        ],
                        "signature": "max(uint256,uint256)"
                    },
                    "errorInfo": "",
                    "fromAddress": "0x06450dee7fd2fb8e39061434babcfc05599a6fb8",
                    "gasUsed": 340,
                    "id": 2,
                    "methodDecoded": true,
                    "operation": "DELEGATECALL",
                    "output": "0x000000000000000000000000000000000000000000000000000000000078229c",
                    "revert": false,
                    "revertMessage": "",
                    "selector": "0x6d5433e6",
                    "status": true,
                    "value": "0"
                },
                "nodeType": 0
            },
            "3": {
                "event": {
                    "contract": "0x06450dee7fd2fb8e39061434babcfc05599a6fb8",
                    "decodedLog": {
                        "name": "Transfer",
                        "params": [
                            {
                                "name": "from",
                                "type": "address",
                                "value": "0x0000000000000000000000000000000000000000"
                            },
                            {
                                "name": "to",
                                "type": "address",
                                "value": "0x4d01568c8c84455a2c8bd93b49cb3127bd2e1b72"
                            },
                            {
                                "decimalAvailable": true,
                                "name": "value",
                                "type": "uint256",
                                "value": "0"
                            }
                        ],
                        "signature": "Transfer(address,address,uint256)"
                    },
                    "id": 3,
                    "logData": "0x0000000000000000000000000000000000000000000000000000000000000000",
                    "logDecoded": true,
                    "operation": "EVENT",
                    "revert": false,
                    "status": true,
                    "topics": [
                        "0xddf252ad1be2c89b69c2b068fc378daa952ba7f163c4a11628f55a4df523b3ef",
                        "0x0000000000000000000000000000000000000000000000000000000000000000",
                        "0x0000000000000000000000004d01568c8c84455a2c8bd93b49cb3127bd2e1b72"
                    ]
                },
                "nodeType": 1
            },
            "4": {
                "event": {
                    "contract": "0x06450dee7fd2fb8e39061434babcfc05599a6fb8",
                    "decodedLog": {
                        "name": "Transfer",
                        "params": [
                            {
                                "name": "from",
                                "type": "address",
                                "value": "0x0000000000000000000000000000000000000000"
                            },
                            {
                                "name": "to",
                                "type": "address",
                                "value": "0xce44345e00cfd16735d27ee980858572a2705863"
                            },
                            {
                                "decimalAvailable": true,
                                "name": "value",
                                "type": "uint256",
                                "value": "12,638,565,000,000,000,000,000,000"
                            }
                        ],
                        "signature": "Transfer(address,address,uint256)"
                    },
                    "id": 4,
                    "logData": "0x0000000000000000000000000000000000000000000a7451fb43e8c4ce740000",
                    "logDecoded": true,
                    "operation": "EVENT",
                    "revert": false,
                    "status": true,
                    "topics": [
                        "0xddf252ad1be2c89b69c2b068fc378daa952ba7f163c4a11628f55a4df523b3ef",
                        "0x0000000000000000000000000000000000000000000000000000000000000000",
                        "0x000000000000000000000000ce44345e00cfd16735d27ee980858572a2705863"
                    ]
                },
                "nodeType": 1
            },
            "5": {
                "event": {
                    "contract": "0x06450dee7fd2fb8e39061434babcfc05599a6fb8",
                    "decodedLog": {
                        "name": "MintClaimed",
                        "params": [
                            {
                                "name": "user",
                                "type": "address",
                                "value": "0x4d01568c8c84455a2c8bd93b49cb3127bd2e1b72"
                            },
                            {
                                "name": "rewardAmount",
                                "type": "uint256",
                                "value": "12,638,565,000,000,000,000,000,000"
                            }
                        ],
                        "signature": "MintClaimed(address,uint256)"
                    },
                    "id": 5,
                    "logData": "0x0000000000000000000000000000000000000000000a7451fb43e8c4ce740000",
                    "logDecoded": true,
                    "operation": "EVENT",
                    "revert": false,
                    "status": true,
                    "topics": [
                        "0xd74752b13281df13701575f3a507e9b1242e0b5fb040143211c481c1fce573a6",
                        "0x0000000000000000000000004d01568c8c84455a2c8bd93b49cb3127bd2e1b72"
                    ]
                },
                "nodeType": 1
            }
        },
        "gasFlame": [
            {
                "children": [
                    {
                        "children": [
                            {
                                "children": [],
                                "depth": 0,
                                "name": "Initial Gas",
                                "value": 21560
                            },
                            {
                                "children": [
                                    {
                                        "children": [],
                                        "depth": 1,
                                        "name": "min",
                                        "value": 349
                                    },
                                    {
                                        "children": [],
                                        "depth": 1,
                                        "name": "max",
                                        "value": 340
                                    }
                                ],
                                "depth": 0,
                                "name": "Executed Gas",
                                "value": 70474
                            }
                        ],
                        "depth": -1,
                        "name": "Actual Gas Used",
                        "value": 73628
                    },
                    {
                        "children": [],
                        "depth": -1,
                        "name": "Refunded Gas",
                        "value": 18406
                    }
                ],
                "depth": -2,
                "name": "Total Gas",
                "value": 92034
            }
        ],
        "isConfirmed": true,
        "mainTrace": [
            {
                "children": [
                    {
                        "children": [
                            {
                                "children": [],
                                "depth": 1,
                                "id": 1,
                                "order": 1
                            },
                            {
                                "children": [],
                                "depth": 1,
                                "id": 2,
                                "order": 2
                            },
                            {
                                "children": [],
                                "depth": 1,
                                "id": 3,
                                "order": 3
                            },
                            {
                                "children": [],
                                "depth": 1,
                                "id": 4,
                                "order": 4
                            },
                            {
                                "children": [],
                                "depth": 1,
                                "id": 5,
                                "order": 5
                            }
                        ],
                        "depth": 0,
                        "id": 0,
                        "order": 0
                    }
                ],
                "depth": -1,
                "id": -1,
                "order": -1
            }
        ],
        "mainTraceNodeCount": 6,
        "parentIdMap": {
            "0": -1,
            "1": 0,
            "2": 0,
            "3": 0,
            "4": 0,
            "5": 0
        },
        "tidyTrace": [
            {
                "children": [
                    {
                        "children": [
                            {
                                "children": [],
                                "depth": 1,
                                "id": 1,
                                "order": 1
                            },
                            {
                                "children": [],
                                "depth": 1,
                                "id": 2,
                                "order": 2
                            },
                            {
                                "children": [],
                                "depth": 1,
                                "id": 3,
                                "order": 3
                            },
                            {
                                "children": [],
                                "depth": 1,
                                "id": 4,
                                "order": 4
                            },
                            {
                                "children": [],
                                "depth": 1,
                                "id": 5,
                                "order": 5
                            }
                        ],
                        "depth": 0,
                        "id": 0,
                        "order": 0
                    }
                ],
                "depth": -1,
                "id": -1,
                "order": -1
            }
        ],
        "tidyTraceNodeCount": 6
    },
    "state_change": {
        "stateChanges": [
            {
                "address": "0x06450dee7fd2fb8e39061434babcfc05599a6fb8",
                "erc": "ERC-20",
                "slots": [
                    {
                        "current": "0x0000000000000000000000000000000000000000000000000000000000000000",
                        "key": "0x76481f1d26cf425a356dfce588f5996e047ceebd47b2541c1974427031b243b4",
                        "prev": "0x0000000000000000000000000000000000000000000000000000000000000b75"
                    },
                    {
                        "current": "0x00000000000000000000000000000000000000000000000000000000006ba6ad",
                        "key": "0x0000000000000000000000000000000000000000000000000000000000000006",
                        "prev": "0x00000000000000000000000000000000000000000000000000000000006ba6ae"
                    },
                    {
                        "current": "0x000000000000000000000000000000000000008fe28a61de726891113ad1397a",
                        "key": "0x0000000000000000000000000000000000000000000000000000000000000002",
                        "prev": "0x000000000000000000000000000000000000008fe27fed8c7724a84c6c5d397a"
                    },
                    {
                        "current": "0x000000000000000000000000000000000000000003c1c00463e6c1c2b4200000",
                        "key": "0xf052410d55f4fb38f30945b74a3d0a39faa9455c0a168f32951c28f7ca8fbee6",
                        "prev": "0x000000000000000000000000000000000000000003b74bb268a2d8fde5ac0000"
                    },
                    {
                        "current": "0x0000000000000000000000000000000000000000000000000000000000000000",
                        "key": "0x76481f1d26cf425a356dfce588f5996e047ceebd47b2541c1974427031b243b1",
                        "prev": "0x00000000000000000000000000000000000000000000000000000000000000b4"
                    },
                    {
                        "current": "0x0000000000000000000000000000000000000000000000000000000000000000",
                        "key": "0x76481f1d26cf425a356dfce588f5996e047ceebd47b2541c1974427031b243b3",
                        "prev": "0x0000000000000000000000000000000000000000000000000000000000541d16"
                    },
                    {
                        "current": "0x0000000000000000000000000000000000000000000000000000000000000000",
                        "key": "0x76481f1d26cf425a356dfce588f5996e047ceebd47b2541c1974427031b243b0",
                        "prev": "0x0000000000000000000000004d01568c8c84455a2c8bd93b49cb3127bd2e1b72"
                    },
                    {
                        "current": "0x0000000000000000000000000000000000000000000000000000000000000000",
                        "key": "0x76481f1d26cf425a356dfce588f5996e047ceebd47b2541c1974427031b243b2",
                        "prev": "0x000000000000000000000000000000000000000000000000000000006487a5d3"
                    },
                    {
                        "current": "0x0000000000000000000000000000000000000000000000000000000000000000",
                        "key": "0x76481f1d26cf425a356dfce588f5996e047ceebd47b2541c1974427031b243b5",
                        "prev": "0x000000000000000000000000000000000000000000000000000000000000002d"
                    }
                ],
                "storageVariables": [
                    {
                        "name": "_balances",
                        "type": "mapping(address => uint256)",
                        "value": {
                            "pairs": [
                                {
                                    "key": "0xce44345e00cfd16735d27ee980858572a2705863",
                                    "value": {
                                        "current": "1162684488000000000000000000",
                                        "prev": "1150045923000000000000000000",
                                        "typeTag": 1
                                    }
                                }
                            ],
                            "typeTag": 4
                        }
                    },
                    {
                        "name": "userMints",
                        "type": "mapping(address => struct XENCrypto.MintInfo)",
                        "value": {
                            "pairs": [
                                {
                                    "key": "0x4d01568c8c84455a2c8bd93b49cb3127bd2e1b72",
                                    "value": {
                                        "fields": [
                                            {
                                                "name": "user",
                                                "type": "address",
                                                "value": {
                                                    "current": "0x0000000000000000000000000000000000000000",
                                                    "prev": "0x4d01568c8c84455a2c8bd93b49cb3127bd2e1b72",
                                                    "typeTag": 1
                                                }
                                            },
                                            {
                                                "name": "term",
                                                "type": "uint256",
                                                "value": {
                                                    "current": "0",
                                                    "prev": "180",
                                                    "typeTag": 1
                                                }
                                            },
                                            {
                                                "name": "maturityTs",
                                                "type": "uint256",
                                                "value": {
                                                    "current": "0",
                                                    "prev": "1686611411",
                                                    "typeTag": 1
                                                }
                                            },
                                            {
                                                "name": "rank",
                                                "type": "uint256",
                                                "value": {
                                                    "current": "0",
                                                    "prev": "5512470",
                                                    "typeTag": 1
                                                }
                                            },
                                            {
                                                "name": "amplifier",
                                                "type": "uint256",
                                                "value": {
                                                    "current": "0",
                                                    "prev": "2933",
                                                    "typeTag": 1
                                                }
                                            },
                                            {
                                                "name": "eaaRate",
                                                "type": "uint256",
                                                "value": {
                                                    "current": "0",
                                                    "prev": "45",
                                                    "typeTag": 1
                                                }
                                            }
                                        ],
                                        "typeTag": 3
                                    }
                                }
                            ],
                            "typeTag": 4
                        }
                    },
                    {
                        "name": "_totalSupply",
                        "type": "uint256",
                        "value": {
                            "current": "11399738145695501101574890011002",
                            "prev": "11399725507130501101574890011002",
                            "typeTag": 1
                        }
                    },
                    {
                        "name": "activeMinters",
                        "type": "uint256",
                        "value": {
                            "current": "7055021",
                            "prev": "7055022",
                            "typeTag": 1
                        }
                    }
                ]
            }
        ]
    }
}