{
    "balance_change": {
        "balanceChanges": []
    },
    "profile": {
        "basic_info": {
            "baseFee": "21.218410445",
            "blockNumber": 14374541,
            "callData": "0xa8a41c700000000000000000000000007f268357a8c2552623316e2562d90e642bb538e50000000000000000000000006fa03b6c8775100331aef2ebf0cc468cdfa28b7300000000000000000000000000000000000000000000000000000000000000000000000000000000000000005b3256965e7c3cf26e11fcaf296dfc8807c01073000000000000000000000000baf2127b49fc93cbca6269fade0f7f31df4c88a70000000000000000000000000000000000000000000000000000000000000000000000000000000000000000c02aaa39b223fe8d0a0e5c4f27ead9083c756cc2000000000000000000000000000000000000000000000000000000000000000000000000000000000000000000000000000000000000000000000000000002ee00000000000000000000000000000000000000000000000000000000000000000000000000000000000000000000000000000000000000000000000000000000000000000000000000000000000000000000000000000000058d15e176280000000000000000000000000000000000000000000000000000000000000000000000000000000000000000000000000000000000000000000000000000622d0ff2000000000000000000000000000000000000000000000000000000006230f6b62b4a8e01a79c58cbac8757e19f75744369f717d963d732e9a01900a12e387d440000000000000000000000000000000000000000000000000000000000000001000000000000000000000000000000000000000000000000000000000000000000000000000000000000000000000000000000000000000000000000000000000000000000000000000000000000000000000000000000000000000000000001000000000000000000000000000000000000000000000000000000000000034000000000000000000000000000000000000000000000000000000000000004600000000000000000000000000000000000000000000000000000000000000580000000000000000000000000000000000000000000000000000000000000001b9045fe73e79d8115d9a2825fc6240d93d01e73307ac718cb3c9e55d254ff98113aafd03670347e00ea3cadcd1c0444188d79877b1056c02538cb7efe4fa5866400000000000000000000000000000000000000000000000000000000000000e4fb16a59500000000000000000000000000000000000000000000000000000000000000000000000000000000000000006fa03b6c8775100331aef2ebf0cc468cdfa28b7300000000000000000000000082f5ef9ddc3d231962ba57a9c2ebb307dc8d26c20000000000000000000000000000000000000000000000000000000000000a16000000000000000000000000000000000000000000000000000000000000000000000000000000000000000000000000000000000000000000000000000000c000000000000000000000000000000000000000000000000000000000000000000000000000000000000000000000000000000000000000000000000000000000000000000000000000000000000000000000000000000000000000e400000000ffffffffffffffffffffffffffffffffffffffffffffffffffffffffffffffff000000000000000000000000000000000000000000000000000000000000000000000000000000000000000000000000000000000000000000000000000000000000000000000000000000000000000000000000000000000000000000000000000000000000000000000000000000000000000000000000000000000000000000000000000000000000000000000000000000000000000000000000000000000000000000000000000000000000000000000000000000000000000000000000000000000000000000000000000000000000000000000000000000000000000000000000000000000000000000000000000000000000000000000000",
            "debugEnable": true,
            "errorInfo": "",
            "eventCount": 1,
            "feeRecipient": "0x829bd824b016326a401d083b33d092293333a830",
            "formatValue": "0",
            "gasLimit": 82161,
            "gasPrice": "22.718410445",
            "gasUsed": 82161,
            "intTxnCount": 1,
            "internalRevert": false,
            "internalRevertMessage": "",
            "isContractCreation": false,
            "isFlashloan": false,
            "maxFee": "24.688050895",
            "nonce": 12,
            "overwritedBlockNumber": -1,
            "priorityFee": "1.5",
            "receiver": "0x7f268357a8c2552623316e2562d90e642bb538e5",
            "revertMessage": "",
            "sender": "0x6fa03b6c8775100331aef2ebf0cc468cdfa28b73",
            "simulationEnable": true,
            "sourceTxnHash": "0xf7b00449aa79607df17c6ad680f536a08484359d4ffeaed63d5dca4f21fa654f",
            "status": true,
            "timestamp": "2022-03-12T22:05:33Z",
            "transactionFee": "0.001866567320571645",
            "txnHash": "0xf7b00449aa79607df17c6ad680f536a08484359d4ffeaed63d5dca4f21fa654f",
            "txnIndex": 87,
            "type": 2,
            "value": "0"
        },
        "fund_flow": [],
        "token_infos": [
            {
                "address": "0xc02aaa39b223fe8d0a0e5c4f27ead9083c756cc2",
                "decimals": 18
            },
            {
                "address": "0xeeeeeeeeeeeeeeeeeeeeeeeeeeeeeeeeeeeeeeee",
                "decimals": 18
            }
        ]
    },
    "address_label": {
        "labels": [
            {
                "address": "0x0000000000000000000000000000000000000003",
                "label": "Precompiled"
            },
            {
                "address": "0xeeeeeeeeeeeeeeeeeeeeeeeeeeeeeeeeeeeeeeee",
                "label": "Ether"
            },
            {
                "address": "0x5b3256965e7c3cf26e11fcaf296dfc8807c01073",
                "label": "OpenSea: Wallet"
            },
            {
                "address": "0x7f268357a8c2552623316e2562d90e642bb538e5",
                "label": "OpenSea: Wyvern Exchange v2"
            },
            {
                "address": "0xc02aaa39b223fe8d0a0e5c4f27ead9083c756cc2",
                "label": "Wrapped Ether (WETH)"
            },
            {
                "address": "0x0000000000000000000000000000000000000001",
                "label": "Precompiled"
            },
            {
                "address": "0x0000000000000000000000000000000000000000",
                "label": "Null Address"
            },
            {
                "address": "0xbaf2127b49fc93cbca6269fade0f7f31df4c88a7",
                "label": "MerkleValidator"
            },
            {
                "address": "0x0000000000000000000000000000000000000002",
                "label": "Precompiled"
            },
            {
                "address": "0x0000000000000000000000000000000000000004",
                "label": "Precompiled"
            }
        ]
    },
    "trace": {
        "accountLabels": null,
        "dataMap": {
            "-1": {
                "invocation": {
                    "address": "0x6fa03b6c8775100331aef2ebf0cc468cdfa28b73",
                    "callData": "",
                    "decodedMethod": null,
                    "errorInfo": "",
                    "fromAddress": "",
                    "gasUsed": 0,
                    "id": -1,
                    "methodDecoded": false,
                    "operation": "",
                    "output": "",
                    "revert": false,
                    "revertMessage": "",
                    "selector": "",
                    "status": false,
                    "value": ""
                },
                "nodeType": 0
            },
            "0": {
                "invocation": {
                    "address": "0x7f268357a8c2552623316e2562d90e642bb538e5",
                    "callData": "0x0000000000000000000000007f268357a8c2552623316e2562d90e642bb538e50000000000000000000000006fa03b6c8775100331aef2ebf0cc468cdfa28b7300000000000000000000000000000000000000000000000000000000000000000000000000000000000000005b3256965e7c3cf26e11fcaf296dfc8807c01073000000000000000000000000baf2127b49fc93cbca6269fade0f7f31df4c88a70000000000000000000000000000000000000000000000000000000000000000000000000000000000000000c02aaa39b223fe8d0a0e5c4f27ead9083c756cc2000000000000000000000000000000000000000000000000000000000000000000000000000000000000000000000000000000000000000000000000000002ee00000000000000000000000000000000000000000000000000000000000000000000000000000000000000000000000000000000000000000000000000000000000000000000000000000000000000000000000000000000058d15e176280000000000000000000000000000000000000000000000000000000000000000000000000000000000000000000000000000000000000000000000000000622d0ff2000000000000000000000000000000000000000000000000000000006230f6b62b4a8e01a79c58cbac8757e19f75744369f717d963d732e9a01900a12e387d440000000000000000000000000000000000000000000000000000000000000001000000000000000000000000000000000000000000000000000000000000000000000000000000000000000000000000000000000000000000000000000000000000000000000000000000000000000000000000000000000000000000000001000000000000000000000000000000000000000000000000000000000000034000000000000000000000000000000000000000000000000000000000000004600000000000000000000000000000000000000000000000000000000000000580000000000000000000000000000000000000000000000000000000000000001b9045fe73e79d8115d9a2825fc6240d93d01e73307ac718cb3c9e55d254ff98113aafd03670347e00ea3cadcd1c0444188d79877b1056c02538cb7efe4fa5866400000000000000000000000000000000000000000000000000000000000000e4fb16a59500000000000000000000000000000000000000000000000000000000000000000000000000000000000000006fa03b6c8775100331aef2ebf0cc468cdfa28b7300000000000000000000000082f5ef9ddc3d231962ba57a9c2ebb307dc8d26c20000000000000000000000000000000000000000000000000000000000000a16000000000000000000000000000000000000000000000000000000000000000000000000000000000000000000000000000000000000000000000000000000c000000000000000000000000000000000000000000000000000000000000000000000000000000000000000000000000000000000000000000000000000000000000000000000000000000000000000000000000000000000000000e400000000ffffffffffffffffffffffffffffffffffffffffffffffffffffffffffffffff000000000000000000000000000000000000000000000000000000000000000000000000000000000000000000000000000000000000000000000000000000000000000000000000000000000000000000000000000000000000000000000000000000000000000000000000000000000000000000000000000000000000000000000000000000000000000000000000000000000000000000000000000000000000000000000000000000000000000000000000000000000000000000000000000000000000000000000000000000000000000000000000000000000000000000000000000000000000000000000000000000000000000000000000",
                    "decodedMethod": {
                        "callParams": [
                            {
                                "name": "addrs",
                                "type": "address[7]",
                                "value": [
                                    "0x7f268357a8c2552623316e2562d90e642bb538e5",
                                    "0x6fa03b6c8775100331aef2ebf0cc468cdfa28b73",
                                    "0x0000000000000000000000000000000000000000",
                                    "0x5b3256965e7c3cf26e11fcaf296dfc8807c01073",
                                    "0xbaf2127b49fc93cbca6269fade0f7f31df4c88a7",
                                    "0x0000000000000000000000000000000000000000",
                                    "0xc02aaa39b223fe8d0a0e5c4f27ead9083c756cc2"
                                ]
                            },
                            {
                                "name": "uints",
                                "type": "uint256[9]",
                                "value": [
                                    "0",
                                    "750",
                                    "0",
                                    "0",
                                    "400,000,000,000,000,000",
                                    "0",
                                    "1,647,120,370",
                                    "1,647,376,054",
                                    "19,581,179,264,466,716,143,065,073,761,970,944,546,137,810,632,511,250,400,043,340,775,091,487,669,572"
                                ]
                            },
                            {
                                "name": "feeMethod",
                                "type": "uint8",
                                "value": "1"
                            },
                            {
                                "name": "side",
                                "type": "uint8",
                                "value": "0"
                            },
                            {
                                "name": "saleKind",
                                "type": "uint8",
                                "value": "0"
                            },
                            {
                                "name": "howToCall",
                                "type": "uint8",
                                "value": "1"
                            },
                            {
                                "name": "calldata",
                                "type": "bytes",
                                "value": "0xfb16a59500000000000000000000000000000000000000000000000000000000000000000000000000000000000000006fa03b6c8775100331aef2ebf0cc468cdfa28b7300000000000000000000000082f5ef9ddc3d231962ba57a9c2ebb307dc8d26c20000000000000000000000000000000000000000000000000000000000000a16000000000000000000000000000000000000000000000000000000000000000000000000000000000000000000000000000000000000000000000000000000c00000000000000000000000000000000000000000000000000000000000000000"
                            },
                            {
                                "name": "replacementPattern",
                                "type": "bytes",
                                "value": "0x00000000ffffffffffffffffffffffffffffffffffffffffffffffffffffffffffffffff000000000000000000000000000000000000000000000000000000000000000000000000000000000000000000000000000000000000000000000000000000000000000000000000000000000000000000000000000000000000000000000000000000000000000000000000000000000000000000000000000000000000000000000000000000000000000000000000000000000000000000000000000000000000000000000000000000000000000000000000000000000000000000000000"
                            },
                            {
                                "name": "staticExtradata",
                                "type": "bytes",
                                "value": "0x"
                            },
                            {
                                "name": "v",
                                "type": "uint8",
                                "value": "27"
                            },
                            {
                                "name": "r",
                                "type": "bytes32",
                                "value": "0x9045fe73e79d8115d9a2825fc6240d93d01e73307ac718cb3c9e55d254ff9811"
                            },
                            {
                                "name": "s",
                                "type": "bytes32",
                                "value": "0x3aafd03670347e00ea3cadcd1c0444188d79877b1056c02538cb7efe4fa58664"
                            }
                        ],
                        "constructorArguments": "",
                        "name": "cancelOrder_",
                        "returnParams": [],
                        "signature": "cancelOrder_(address[7],uint256[9],uint8,uint8,uint8,uint8,bytes,bytes,bytes,uint8,bytes32,bytes32)"
                    },
                    "errorInfo": "",
                    "fromAddress": "0x6fa03b6c8775100331aef2ebf0cc468cdfa28b73",
                    "gasUsed": 82161,
                    "id": 0,
                    "methodDecoded": true,
                    "operation": "CALL",
                    "output": "",
                    "revert": false,
                    "revertMessage": "",
                    "selector": "0xa8a41c70",
                    "status": true,
                    "value": "0"
                },
                "nodeType": 0
            },
            "1": {
                "invocation": {
                    "address": "0x0000000000000000000000000000000000000001",
                    "callData": "0x72ffca40dcdb4efd3624daefe1a5cacc3b2df0deab706b51e7e36adf000000000000000000000000000000000000000000000000000000000000001b9045fe73e79d8115d9a2825fc6240d93d01e73307ac718cb3c9e55d254ff98113aafd03670347e00ea3cadcd1c0444188d79877b1056c02538cb7efe4fa58664",
                    "decodedMethod": {
                        "callParams": [
                            {
                                "name": "hash",
                                "type": "bytes32",
                                "value": "0x3cc1666b72ffca40dcdb4efd3624daefe1a5cacc3b2df0deab706b51e7e36adf"
                            },
                            {
                                "name": "v",
                                "type": "uint256",
                                "value": "27"
                            },
                            {
                                "name": "r",
                                "type": "bytes32",
                                "value": "0x9045fe73e79d8115d9a2825fc6240d93d01e73307ac718cb3c9e55d254ff9811"
                            },
                            {
                                "name": "s",
                                "type": "bytes32",
                                "value": "0x3aafd03670347e00ea3cadcd1c0444188d79877b1056c02538cb7efe4fa58664"
                            }
                        ],
                        "constructorArguments": "",
                        "name": "ecrecover",
                        "returnParams": [
                            {
                                "name": "",
                                "type": "address",
                                "value": "0x6fa03b6c8775100331aef2ebf0cc468cdfa28b73"
                            }
                        ],
                        "signature": "ecrecover(bytes32,uint256,bytes32,bytes32)"
                    },
                    "errorInfo": "",
                    "fromAddress": "0x7f268357a8c2552623316e2562d90e642bb538e5",
                    "gasUsed": 3000,
                    "id": 1,
                    "methodDecoded": true,
                    "operation": "CALL",
                    "output": "0x0000000000000000000000006fa03b6c8775100331aef2ebf0cc468cdfa28b73",
                    "revert": false,
                    "revertMessage": "",
                    "selector": "0x3cc1666b",
                    "status": true,
                    "value": "0"
                },
                "nodeType": 0
            },
            "2": {
                "event": {
                    "contract": "0x7f268357a8c2552623316e2562d90e642bb538e5",
                    "decodedLog": {
                        "name": "OrderCancelled",
                        "params": [
                            {
                                "name": "hash",
                                "type": "bytes32",
                                "value": "0x3cc1666b72ffca40dcdb4efd3624daefe1a5cacc3b2df0deab706b51e7e36adf"
                            }
                        ],
                        "signature": "OrderCancelled(bytes32)"
                    },
                    "id": 2,
                    "logData": "0x",
                    "logDecoded": true,
                    "operation": "EVENT",
                    "revert": false,
                    "status": true,
                    "topics": [
                        "0x5152abf959f6564662358c2e52b702259b78bac5ee7842a0f01937e670efcc7d",
                        "0x3cc1666b72ffca40dcdb4efd3624daefe1a5cacc3b2df0deab706b51e7e36adf"
                    ]
                },
                "nodeType": 1
            }
        },
        "gasFlame": [
            {
                "children": [
                    {
                        "children": [
                            {
                                "children": [],
                                "depth": 0,
                                "name": "Initial Gas",
                                "value": 30424
                            },
                            {
                                "children": [
                                    {
                                        "children": [],
                                        "depth": 1,
                                        "name": "ecrecover",
                                        "value": 3000
                                    }
                                ],
                                "depth": 0,
                                "name": "Executed Gas",
                                "value": 51737
                            }
                        ],
                        "depth": -1,
                        "name": "Actual Gas Used",
                        "value": 82161
                    },
                    {
                        "children": [],
                        "depth": -1,
                        "name": "Refunded Gas",
                        "value": 0
                    }
                ],
                "depth": -2,
                "name": "Total Gas",
                "value": 82161
            }
        ],
        "isConfirmed": true,
        "mainTrace": [
            {
                "children": [
                    {
                        "children": [
                            {
                                "children": [],
                                "depth": 1,
                                "id": 1,
                                "order": 1
                            },
                            {
                                "children": [],
                                "depth": 1,
                                "id": 2,
                                "order": 2
                            }
                        ],
                        "depth": 0,
                        "id": 0,
                        "order": 0
                    }
                ],
                "depth": -1,
                "id": -1,
                "order": -1
            }
        ],
        "mainTraceNodeCount": 3,
        "parentIdMap": {
            "0": -1,
            "1": 0,
            "2": 0
        },
        "tidyTrace": [
            {
                "children": [
                    {
                        "children": [
                            {
                                "children": [],
                                "depth": 1,
                                "id": 1,
                                "order": 1
                            },
                            {
                                "children": [],
                                "depth": 1,
                                "id": 2,
                                "order": 2
                            }
                        ],
                        "depth": 0,
                        "id": 0,
                        "order": 0
                    }
                ],
                "depth": -1,
                "id": -1,
                "order": -1
            }
        ],
        "tidyTraceNodeCount": 3
    },
    "state_change": {
        "stateChanges": [
            {
                "address": "0x7f268357a8c2552623316e2562d90e642bb538e5",
                "erc": "",
                "slots": [
                    {
                        "current": "0x0000000000000000000000000000000000000000000000000000000000000001",
                        "key": "0xc326c09bd6ceea2c4d3733173daaf8d3bcdc541d0ea2364ea3df2aa15a2d8fa1",
                        "prev": "0x0000000000000000000000000000000000000000000000000000000000000000"
                    }
                ],
                "storageVariables": [
                    {
                        "name": "cancelledOrFinalized",
                        "type": "mapping(bytes32 => bool)",
                        "value": {
                            "pairs": [
                                {
                                    "key": "0x3cc1666b72ffca40dcdb4efd3624daefe1a5cacc3b2df0deab706b51e7e36adf",
                                    "value": {
                                        "current": "true",
                                        "prev": "false",
                                        "typeTag": 1
                                    }
                                }
                            ],
                            "typeTag": 4
                        }
                    }
                ]
            }
        ]
    }
}