{
    "balance_change": {
        "balanceChanges": [
            {
                "account": "0xf6855006900929cbdf45eafa89b9dc45b9cc9bf6",
                "assets": [
                    {
                        "address": "0x03cb0021808442ad5efb61197966aef72a1def96",
                        "amount": "0.002",
                        "iconUrl": "",
                        "isERC1155": false,
                        "isERC721": false,
                        "sign": false,
                        "value": ""
                    },
                    {
                        "address": "0x573aaaa81154cd24e96f0cb97fd86110b8f6767f",
                        "amount": "13",
                        "iconUrl": "",
                        "isERC1155": false,
                        "isERC721": false,
                        "sign": true,
                        "value": ""
                    }
                ]
            },
            {
                "account": "0x105631c6cddba84d12fa916f0045b1f97ec9c268",
                "assets": [
                    {
                        "address": "0x03cb0021808442ad5efb61197966aef72a1def96",
                        "amount": "0.00182",
                        "iconUrl": "",
                        "isERC1155": false,
                        "isERC721": false,
                        "sign": true,
                        "value": ""
                    },
                    {
                        "address": "0x573aaaa81154cd24e96f0cb97fd86110b8f6767f",
                        "amount": "13",
                        "iconUrl": "",
                        "isERC1155": false,
                        "isERC721": false,
                        "sign": false,
                        "value": ""
                    }
                ]
            },
            {
                "account": "0x62a364f7cba3be8fc9dcfdde12cabec8244af381",
                "assets": [
                    {
                        "address": "0x03cb0021808442ad5efb61197966aef72a1def96",
                        "amount": "0.00018",
                        "iconUrl": "",
                        "isERC1155": false,
                        "isERC721": false,
                        "sign": true,
                        "value": ""
                    }
                ]
            }
        ]
    },
    "profile": {
        "basic_info": {
            "baseFee": "",
            "blockNumber": 7431132,
            "callData": "0xd96a094a00000000000000000000000000000000000000000000000000071afd498d0000",
            "debugEnable": true,
            "errorInfo": "",
            "eventCount": 3,
            "feeRecipient": "0x5a0b54d5dc17e0aadc383d2db43b0a0d3e029c4c",
            "formatValue": "0",
            "gasLimit": 1000000,
            "gasPrice": "15",
            "gasUsed": 244132,
            "intTxnCount": 4,
            "internalRevert": false,
            "internalRevertMessage": "",
            "isContractCreation": false,
            "isFlashloan": false,
            "maxFee": "",
            "nonce": 217,
            "overwritedBlockNumber": -1,
            "priorityFee": "",
            "receiver": "0x105631c6cddba84d12fa916f0045b1f97ec9c268",
            "revertMessage": "",
            "sender": "0xf6855006900929cbdf45eafa89b9dc45b9cc9bf6",
            "simulationEnable": true,
            "sourceTxnHash": "0xf73a7dac6dd2932b639c9ff80990c836dab24da620b84d43f6e73832e5a82099",
            "status": true,
            "timestamp": "2019-03-24T11:30:20Z",
            "transactionFee": "0.00366198",
            "txnHash": "0xf73a7dac6dd2932b639c9ff80990c836dab24da620b84d43f6e73832e5a82099",
            "txnIndex": 83,
            "type": 0,
            "value": "0"
        },
        "fund_flow": [
            {
                "amount": "0.002",
                "from": "0xf6855006900929cbdf45eafa89b9dc45b9cc9bf6",
                "id": 1,
                "isERC1155": false,
                "isERC721": false,
                "isReverted": false,
                "order": 1,
                "to": "0x105631c6cddba84d12fa916f0045b1f97ec9c268",
                "token": "0x03cb0021808442ad5efb61197966aef72a1def96"
            },
            {
                "amount": "0.00018",
                "from": "0x105631c6cddba84d12fa916f0045b1f97ec9c268",
                "id": 2,
                "isERC1155": false,
                "isERC721": false,
                "isReverted": false,
                "order": 2,
                "to": "0x62a364f7cba3be8fc9dcfdde12cabec8244af381",
                "token": "0x03cb0021808442ad5efb61197966aef72a1def96"
            },
            {
                "amount": "13",
                "from": "0x105631c6cddba84d12fa916f0045b1f97ec9c268",
                "id": 3,
                "isERC1155": false,
                "isERC721": false,
                "isReverted": false,
                "order": 3,
                "to": "0xf6855006900929cbdf45eafa89b9dc45b9cc9bf6",
                "token": "0x573aaaa81154cd24e96f0cb97fd86110b8f6767f"
            }
        ],
        "token_infos": [
            {
                "address": "0x03cb0021808442ad5efb61197966aef72a1def96",
                "decimals": 18
            },
            {
                "address": "0x573aaaa81154cd24e96f0cb97fd86110b8f6767f",
                "decimals": 18
            },
            {
                "address": "0xc02aaa39b223fe8d0a0e5c4f27ead9083c756cc2",
                "decimals": 18
            },
            {
                "address": "0xeeeeeeeeeeeeeeeeeeeeeeeeeeeeeeeeeeeeeeee",
                "decimals": 18
            }
        ]
    },
    "address_label": {
        "labels": [
            {
                "address": "0xeeeeeeeeeeeeeeeeeeeeeeeeeeeeeeeeeeeeeeee",
                "label": "Ether"
            },
            {
                "address": "0x03cb0021808442ad5efb61197966aef72a1def96",
                "label": "coToken (coToken)"
            },
            {
                "address": "0x573aaaa81154cd24e96f0cb97fd86110b8f6767f",
                "label": "Fus"
            },
            {
                "address": "0x0000000000000000000000000000000000000001",
                "label": "Precompiled"
            },
            {
                "address": "0x0000000000000000000000000000000000000002",
                "label": "Precompiled"
            },
            {
                "address": "0x0000000000000000000000000000000000000003",
                "label": "Precompiled"
            },
            {
                "address": "0x0000000000000000000000000000000000000004",
                "label": "Precompiled"
            }
        ]
    },
    "trace": {
        "accountLabels": null,
        "dataMap": {
            "-1": {
                "invocation": {
                    "address": "0xf6855006900929cbdf45eafa89b9dc45b9cc9bf6",
                    "callData": "",
                    "decodedMethod": null,
                    "errorInfo": "",
                    "fromAddress": "",
                    "gasUsed": 0,
                    "id": -1,
                    "methodDecoded": false,
                    "operation": "",
                    "output": "",
                    "revert": false,
                    "revertMessage": "",
                    "selector": "",
                    "status": false,
                    "value": ""
                },
                "nodeType": 0
            },
            "0": {
                "invocation": {
                    "address": "0x105631c6cddba84d12fa916f0045b1f97ec9c268",
                    "callData": "0x00000000000000000000000000000000000000000000000000071afd498d0000",
                    "decodedMethod": {
                        "callParams": [
                            {
                                "name": "amount",
                                "type": "uint256",
                                "value": "2,000,000,000,000,000"
                            }
                        ],
                        "constructorArguments": "",
                        "name": "buy",
                        "returnParams": [],
                        "signature": "buy(uint256)"
                    },
                    "errorInfo": "",
                    "fromAddress": "0xf6855006900929cbdf45eafa89b9dc45b9cc9bf6",
                    "gasUsed": 244132,
                    "id": 0,
                    "methodDecoded": true,
                    "operation": "CALL",
                    "output": "",
                    "revert": false,
                    "revertMessage": "",
                    "selector": "0xd96a094a",
                    "status": true,
                    "value": "0"
                },
                "nodeType": 0
            },
            "1": {
                "invocation": {
                    "address": "0x03cb0021808442ad5efb61197966aef72a1def96",
                    "callData": "0x000000000000000000000000f6855006900929cbdf45eafa89b9dc45b9cc9bf600000000000000000000000000000000000000000000000000071afd498d0000",
                    "decodedMethod": {
                        "callParams": [
                            {
                                "name": "_to",
                                "type": "address",
                                "value": "0xf6855006900929cbdf45eafa89b9dc45b9cc9bf6"
                            },
                            {
                                "name": "_value",
                                "type": "uint256",
                                "value": "2,000,000,000,000,000"
                            }
                        ],
                        "constructorArguments": "",
                        "name": "deduct",
                        "returnParams": [
                            {
                                "name": "success",
                                "type": "bool",
                                "value": true
                            }
                        ],
                        "signature": "deduct(address,uint256)"
                    },
                    "errorInfo": "",
                    "fromAddress": "0x105631c6cddba84d12fa916f0045b1f97ec9c268",
                    "gasUsed": 14038,
                    "id": 1,
                    "methodDecoded": true,
                    "operation": "CALL",
                    "output": "0x0000000000000000000000000000000000000000000000000000000000000001",
                    "revert": false,
                    "revertMessage": "",
                    "selector": "0x47055321",
                    "status": true,
                    "value": "0"
                },
                "nodeType": 0
            },
            "2": {
                "event": {
                    "contract": "0x03cb0021808442ad5efb61197966aef72a1def96",
                    "decodedLog": {
                        "name": "Transfer",
                        "params": [
                            {
                                "name": "from",
                                "type": "address",
                                "value": "0xf6855006900929cbdf45eafa89b9dc45b9cc9bf6"
                            },
                            {
                                "name": "to",
                                "type": "address",
                                "value": "0x105631c6cddba84d12fa916f0045b1f97ec9c268"
                            },
                            {
                                "decimalAvailable": true,
                                "name": "value",
                                "type": "uint256",
                                "value": "2,000,000,000,000,000"
                            }
                        ],
                        "signature": "Transfer(address,address,uint256)"
                    },
                    "id": 2,
                    "logData": "0x00000000000000000000000000000000000000000000000000071afd498d0000",
                    "logDecoded": true,
                    "operation": "EVENT",
                    "revert": false,
                    "status": true,
                    "topics": [
                        "0xddf252ad1be2c89b69c2b068fc378daa952ba7f163c4a11628f55a4df523b3ef",
                        "0x000000000000000000000000f6855006900929cbdf45eafa89b9dc45b9cc9bf6",
                        "0x000000000000000000000000105631c6cddba84d12fa916f0045b1f97ec9c268"
                    ]
                },
                "nodeType": 1
            },
            "3": {
                "invocation": {
                    "address": "0x62a364f7cba3be8fc9dcfdde12cabec8244af381",
                    "callData": "0x8f3eb1a98aa3212a95bcd4692e06142f8298cb8ceb65d6ecf69c7efce31320f400000000000000000000000000000000000000000000000000006d23ad5f800000000000000000000000000000000000000000000000000000003691d6afc000",
                    "decodedMethod": null,
                    "errorInfo": "",
                    "fromAddress": "0x105631c6cddba84d12fa916f0045b1f97ec9c268",
                    "gasUsed": 63340,
                    "id": 3,
                    "methodDecoded": false,
                    "operation": "CALL",
                    "output": "",
                    "revert": false,
                    "revertMessage": "",
                    "selector": "0x7f2dc9b5",
                    "status": true,
                    "value": "0"
                },
                "nodeType": 0
            },
            "4": {
                "invocation": {
                    "address": "0x03cb0021808442ad5efb61197966aef72a1def96",
                    "callData": "0x000000000000000000000000105631c6cddba84d12fa916f0045b1f97ec9c2680000000000000000000000000000000000000000000000000000a3b5840f4000",
                    "decodedMethod": {
                        "callParams": [
                            {
                                "name": "_to",
                                "type": "address",
                                "value": "0x105631c6cddba84d12fa916f0045b1f97ec9c268"
                            },
                            {
                                "name": "_value",
                                "type": "uint256",
                                "value": "180,000,000,000,000"
                            }
                        ],
                        "constructorArguments": "",
                        "name": "deduct",
                        "returnParams": [
                            {
                                "name": "success",
                                "type": "bool",
                                "value": true
                            }
                        ],
                        "signature": "deduct(address,uint256)"
                    },
                    "errorInfo": "",
                    "fromAddress": "0x62a364f7cba3be8fc9dcfdde12cabec8244af381",
                    "gasUsed": 14038,
                    "id": 4,
                    "methodDecoded": true,
                    "operation": "CALL",
                    "output": "0x0000000000000000000000000000000000000000000000000000000000000001",
                    "revert": false,
                    "revertMessage": "",
                    "selector": "0x47055321",
                    "status": true,
                    "value": "0"
                },
                "nodeType": 0
            },
            "5": {
                "event": {
                    "contract": "0x03cb0021808442ad5efb61197966aef72a1def96",
                    "decodedLog": {
                        "name": "Transfer",
                        "params": [
                            {
                                "name": "from",
                                "type": "address",
                                "value": "0x105631c6cddba84d12fa916f0045b1f97ec9c268"
                            },
                            {
                                "name": "to",
                                "type": "address",
                                "value": "0x62a364f7cba3be8fc9dcfdde12cabec8244af381"
                            },
                            {
                                "decimalAvailable": true,
                                "name": "value",
                                "type": "uint256",
                                "value": "180,000,000,000,000"
                            }
                        ],
                        "signature": "Transfer(address,address,uint256)"
                    },
                    "id": 5,
                    "logData": "0x0000000000000000000000000000000000000000000000000000a3b5840f4000",
                    "logDecoded": true,
                    "operation": "EVENT",
                    "revert": false,
                    "status": true,
                    "topics": [
                        "0xddf252ad1be2c89b69c2b068fc378daa952ba7f163c4a11628f55a4df523b3ef",
                        "0x000000000000000000000000105631c6cddba84d12fa916f0045b1f97ec9c268",
                        "0x00000000000000000000000062a364f7cba3be8fc9dcfdde12cabec8244af381"
                    ]
                },
                "nodeType": 1
            },
            "6": {
                "invocation": {
                    "address": "0x573aaaa81154cd24e96f0cb97fd86110b8f6767f",
                    "callData": "0x000000000000000000000000f6855006900929cbdf45eafa89b9dc45b9cc9bf6000000000000000000000000000000000000000000000000b469471f80140000",
                    "decodedMethod": {
                        "callParams": [
                            {
                                "name": "origin",
                                "type": "address",
                                "value": "0xf6855006900929cbdf45eafa89b9dc45b9cc9bf6"
                            },
                            {
                                "name": "amount",
                                "type": "uint256",
                                "value": "13,000,000,000,000,000,000"
                            }
                        ],
                        "constructorArguments": "",
                        "name": "distribute",
                        "returnParams": [],
                        "signature": "distribute(address,uint256)"
                    },
                    "errorInfo": "",
                    "fromAddress": "0x105631c6cddba84d12fa916f0045b1f97ec9c268",
                    "gasUsed": 47253,
                    "id": 6,
                    "methodDecoded": true,
                    "operation": "CALL",
                    "output": "",
                    "revert": false,
                    "revertMessage": "",
                    "selector": "0xfb932108",
                    "status": true,
                    "value": "0"
                },
                "nodeType": 0
            },
            "7": {
                "event": {
                    "contract": "0x573aaaa81154cd24e96f0cb97fd86110b8f6767f",
                    "decodedLog": {
                        "name": "Transfer",
                        "params": [
                            {
                                "name": "from",
                                "type": "address",
                                "value": "0x105631c6cddba84d12fa916f0045b1f97ec9c268"
                            },
                            {
                                "name": "to",
                                "type": "address",
                                "value": "0xf6855006900929cbdf45eafa89b9dc45b9cc9bf6"
                            },
                            {
                                "decimalAvailable": true,
                                "name": "value",
                                "type": "uint256",
                                "value": "13,000,000,000,000,000,000"
                            }
                        ],
                        "signature": "Transfer(address,address,uint256)"
                    },
                    "id": 7,
                    "logData": "0x000000000000000000000000000000000000000000000000b469471f80140000",
                    "logDecoded": true,
                    "operation": "EVENT",
                    "revert": false,
                    "status": true,
                    "topics": [
                        "0xddf252ad1be2c89b69c2b068fc378daa952ba7f163c4a11628f55a4df523b3ef",
                        "0x000000000000000000000000105631c6cddba84d12fa916f0045b1f97ec9c268",
                        "0x000000000000000000000000f6855006900929cbdf45eafa89b9dc45b9cc9bf6"
                    ]
                },
                "nodeType": 1
            }
        },
        "gasFlame": [
            {
                "children": [
                    {
                        "children": [
                            {
                                "children": [],
                                "depth": 0,
                                "name": "Initial Gas",
                                "value": 21720
                            },
                            {
                                "children": [
                                    {
                                        "children": [],
                                        "depth": 1,
                                        "name": "deduct",
                                        "value": 14038
                                    },
                                    {
                                        "children": [
                                            {
                                                "children": [],
                                                "depth": 2,
                                                "name": "deduct",
                                                "value": 14038
                                            }
                                        ],
                                        "depth": 1,
                                        "name": "0x7f2dc9b5",
                                        "value": 63340
                                    },
                                    {
                                        "children": [],
                                        "depth": 1,
                                        "name": "distribute",
                                        "value": 47253
                                    }
                                ],
                                "depth": 0,
                                "name": "Executed Gas",
                                "value": 222412
                            }
                        ],
                        "depth": -1,
                        "name": "Actual Gas Used",
                        "value": 244132
                    },
                    {
                        "children": [],
                        "depth": -1,
                        "name": "Refunded Gas",
                        "value": 0
                    }
                ],
                "depth": -2,
                "name": "Total Gas",
                "value": 244132
            }
        ],
        "isConfirmed": true,
        "mainTrace": [
            {
                "children": [
                    {
                        "children": [
                            {
                                "children": [
                                    {
                                        "children": [],
                                        "depth": 2,
                                        "id": 2,
                                        "order": 2
                                    }
                                ],
                                "depth": 1,
                                "id": 1,
                                "order": 1
                            },
                            {
                                "children": [
                                    {
                                        "children": [
                                            {
                                                "children": [],
                                                "depth": 3,
                                                "id": 5,
                                                "order": 5
                                            }
                                        ],
                                        "depth": 2,
                                        "id": 4,
                                        "order": 4
                                    }
                                ],
                                "depth": 1,
                                "id": 3,
                                "order": 3
                            },
                            {
                                "children": [
                                    {
                                        "children": [],
                                        "depth": 2,
                                        "id": 7,
                                        "order": 7
                                    }
                                ],
                                "depth": 1,
                                "id": 6,
                                "order": 6
                            }
                        ],
                        "depth": 0,
                        "id": 0,
                        "order": 0
                    }
                ],
                "depth": -1,
                "id": -1,
                "order": -1
            }
        ],
        "mainTraceNodeCount": 8,
        "parentIdMap": {
            "0": -1,
            "1": 0,
            "2": 1,
            "3": 0,
            "4": 3,
            "5": 4,
            "6": 0,
            "7": 6
        },
        "tidyTrace": [
            {
                "children": [
                    {
                        "children": [
                            {
                                "children": [
                                    {
                                        "children": [],
                                        "depth": 2,
                                        "id": 2,
                                        "order": 2
                                    }
                                ],
                                "depth": 1,
                                "id": 1,
                                "order": 1
                            },
                            {
                                "children": [
                                    {
                                        "children": [
                                            {
                                                "children": [],
                                                "depth": 3,
                                                "id": 5,
                                                "order": 5
                                            }
                                        ],
                                        "depth": 2,
                                        "id": 4,
                                        "order": 4
                                    }
                                ],
                                "depth": 1,
                                "id": 3,
                                "order": 3
                            },
                            {
                                "children": [
                                    {
                                        "children": [],
                                        "depth": 2,
                                        "id": 7,
                                        "order": 7
                                    }
                                ],
                                "depth": 1,
                                "id": 6,
                                "order": 6
                            }
                        ],
                        "depth": 0,
                        "id": 0,
                        "order": 0
                    }
                ],
                "depth": -1,
                "id": -1,
                "order": -1
            }
        ],
        "tidyTraceNodeCount": 8
    },
    "state_change": {
        "stateChanges": [
            {
                "address": "0x03cb0021808442ad5efb61197966aef72a1def96",
                "erc": "",
                "slots": [
                    {
                        "current": "0x000000000000000000000000000000000000000000000000014678e3baebbd09",
                        "key": "0x8c84e1cfc66652a24ba9027ad0538c3e6a46d78783c006c677bbc4c28363ec4c",
                        "prev": "0x000000000000000000000000000000000000000000000000014d93e10478bd09"
                    },
                    {
                        "current": "0x00000000000000000000000000000000000000000000001bad5191cce13ce222",
                        "key": "0x2a71b876ef1f9c4b8447a29f9cde472c80227b8618a02ea4659c6713f31d06d7",
                        "prev": "0x00000000000000000000000000000000000000000000001bad4b1a851bbf2222"
                    },
                    {
                        "current": "0x0000000000000000000000000000000000000000000000263193bb99e25c8000",
                        "key": "0x2ae1781e2b15e18335d21665ed35f55f4489bb9a28dc7e5c8dd1f7abd6dbaf1c",
                        "prev": "0x000000000000000000000000000000000000000000000026319317e45e4d4000"
                    }
                ],
                "storageVariables": []
            },
            {
                "address": "0x105631c6cddba84d12fa916f0045b1f97ec9c268",
                "erc": "",
                "slots": [
                    {
                        "current": "0x0000000000000000000000000000990a4da2fd500000000d304f11efcc91e0f5",
                        "key": "0x0000000000000000000000000000000000000000000000000000000000000007",
                        "prev": "0x0000000000000000000000000000990595d3e50d0000000d304e37a871d2e0f5"
                    },
                    {
                        "current": "0x000000000000000000000000000000000000000000000000176080e944688000",
                        "key": "0xb37d8be5c69aaaee282818b86615f009fc46acf8f924e10205243db06ffea194",
                        "prev": "0x0000000000000000000000000000000000000000000000001760519e12e14000"
                    },
                    {
                        "current": "0x00000000000000005c976a4cf6855006900929cbdf45eafa89b9dc45b9cc9bf6",
                        "key": "0x0000000000000000000000000000000000000000000000000000000000000003",
                        "prev": "0x00000000000000005c976a4c802bdafc264c1f697883657374dd3efd901f35e4"
                    },
                    {
                        "current": "0x000000000000000000000000000000000000000000000519ac49e2bfeddaa055",
                        "key": "0x000000000000000000000000000000000000000000000000000000000000000e",
                        "prev": "0x000000000000000000000000000000000000000000000519ac42c7c2a44da055"
                    },
                    {
                        "current": "0x0000000000000000000000000000000000000000000000099ace3c090d040000",
                        "key": "0x127044a6432f2f1d14813694921b666bcb3871fb180b70d98066120dfccda6d0",
                        "prev": "0x0000000000000000000000000000000000000000000000099acd8622ec0f8000"
                    },
                    {
                        "current": "0x0000000000000000000000df0000000067791a8e319500000000000000000000",
                        "key": "0x04386bfcfefcc3d0052e28d46c6b861bbfcae94edc30f1a19dc36f908802ae11",
                        "prev": "0x00000000000000000000008c0000000000000000000000000000000000000000"
                    },
                    {
                        "current": "0x003c0001158e460913d00000000000005c976ae7000000005c971dc500000027",
                        "key": "0x0000000000000000000000000000000000000000000000000000000000000006",
                        "prev": "0x003c0001158e460913d00000000000005c976ae2000000005c971dc500000027"
                    },
                    {
                        "current": "0x0000000000000000000000000000000000000000000000005a34a38fc00a0000",
                        "key": "0x4803aeb09726f758b31f26dabf1cfda9e9f6ffe76850979bba0535c7dd1e284b",
                        "prev": "0x0000000000000000000000000000000000000000000000005a2d8892767d0000"
                    },
                    {
                        "current": "0x0000b76751d96bebbbc60000b84c09a3b93000000000e67b7801cdb000000101",
                        "key": "0x0000000000000000000000000000000000000000000000000000000000000008",
                        "prev": "0x0000b766ea60515d8a310000b84c09a3b93000000000e6745d04842300000101"
                    }
                ],
                "storageVariables": []
            },
            {
                "address": "0x573aaaa81154cd24e96f0cb97fd86110b8f6767f",
                "erc": "",
                "slots": [
                    {
                        "current": "0x0000000000000000000000000000000000000000000dff22ff63189ab3160000",
                        "key": "0x06f8c95004082a5edc664ebef019ecff95ff1fc5a6fe116c7c449d6a0bc7041c",
                        "prev": "0x0000000000000000000000000000000000000000000dff224af9d17b33020000"
                    },
                    {
                        "current": "0x0000000000000000000000000000000000000000000d43a4a9a69bbb07a20000",
                        "key": "0x8f9c7e241539d1f10aeabb946285fadf5c5f29fe9251e834bbb04d5956aa65a1",
                        "prev": "0x0000000000000000000000000000000000000000000d43a3f53d549b878e0000"
                    },
                    {
                        "current": "0x0000000000000000000000000000000000000000000bf539be902c2817740000",
                        "key": "0x185c37e5b2de164df48393b8be662c4afcda9217c4141b42059d0d9f98854c90",
                        "prev": "0x0000000000000000000000000000000000000000000bf5390a26e50897600000"
                    },
                    {
                        "current": "0x000000000000000000000000000000000000000000028cca5e850ea25df00001",
                        "key": "0x74b4c49b8755f5abe40aac4097d6bc191a7414253c2780c705a55404d4c309b1",
                        "prev": "0x000000000000000000000000000000000000000000028cc9aa1bc782dddc0001"
                    },
                    {
                        "current": "0x0000000000000000000000000000000000000000000834110afb596ecf100000",
                        "key": "0x2a71b876ef1f9c4b8447a29f9cde472c80227b8618a02ea4659c6713f31d06d7",
                        "prev": "0x000000000000000000000000000000000000000000083411bf64a08e4f240000"
                    },
                    {
                        "current": "0x000000000000000000000000000000000000000000000032afbb4a285e3c0000",
                        "key": "0x8c84e1cfc66652a24ba9027ad0538c3e6a46d78783c006c677bbc4c28363ec4c",
                        "prev": "0x000000000000000000000000000000000000000000000031fb520308de280000"
                    }
                ],
                "storageVariables": []
            },
            {
                "address": "0x62a364f7cba3be8fc9dcfdde12cabec8244af381",
                "erc": "",
                "slots": [
                    {
                        "current": "0x00000000000000000000000000000000000000000000000007e3140766c00000",
                        "key": "0xe44aeb249ca673cd2823ec7231a717e693a4dfd9b8c4c98c7857ac78b0cf90f0",
                        "prev": "0x00000000000000000000000000000000000000000000000007e2a6e3b9608000"
                    },
                    {
                        "current": "0x00000000000000000000000000000000000000000000000000006d23ad5f8000",
                        "key": "0xf3f880e39606226c77f6ae5be3768672e3b14d06a225437310d949ae39e38109",
                        "prev": "0x0000000000000000000000000000000000000000000000000000000000000000"
                    },
                    {
                        "current": "0x00000000000000000000000000000000000000000000000000003691d6afc000",
                        "key": "0x84ac82ac2485a597dc92f40a849554f4cd857154b99422024818b64a06c05555",
                        "prev": "0x0000000000000000000000000000000000000000000000000000000000000000"
                    }
                ],
                "storageVariables": []
            }
        ]
    }
}