{
    "balance_change": {
        "balanceChanges": []
    },
    "profile": {
        "basic_info": {
            "baseFee": "34.161705948",
            "blockNumber": 14633612,
            "callData": "0xa22cb465000000000000000000000000882ea36f2031f3edd6cc243472f6bea7195ecaf30000000000000000000000000000000000000000000000000000000000000001",
            "debugEnable": true,
            "errorInfo": "",
            "eventCount": 1,
            "feeRecipient": "0x52bc44d5378309ee2abf1539bf71de1b7d7be3b5",
            "formatValue": "0",
            "gasLimit": 46703,
            "gasPrice": "35.661705948",
            "gasUsed": 46703,
            "intTxnCount": 0,
            "internalRevert": false,
            "internalRevertMessage": "",
            "isContractCreation": false,
            "isFlashloan": false,
            "maxFee": "35.781893085",
            "nonce": 63,
            "overwritedBlockNumber": -1,
            "priorityFee": "1.5",
            "receiver": "0xdfe3ac769b2d8e382cb86143e0b0b497e1ed5447",
            "revertMessage": "",
            "sender": "0x9a464782490e8c5a3ea81bbc01061c96c7ddcdf7",
            "simulationEnable": true,
            "sourceTxnHash": "0xf7e85e5b621d8c2a619425553b58e7cf340726615a0607c2111295a434d799d9",
            "status": true,
            "timestamp": "2022-04-22T08:32:28Z",
            "transactionFee": "0.001665508652889444",
            "txnHash": "0xf7e85e5b621d8c2a619425553b58e7cf340726615a0607c2111295a434d799d9",
            "txnIndex": 55,
            "type": 2,
            "value": "0"
        },
        "fund_flow": [],
        "token_infos": [
            {
                "address": "0xc02aaa39b223fe8d0a0e5c4f27ead9083c756cc2",
                "decimals": 18
            },
            {
                "address": "0xeeeeeeeeeeeeeeeeeeeeeeeeeeeeeeeeeeeeeeee",
                "decimals": 18
            }
        ]
    },
    "address_label": {
        "labels": [
            {
                "address": "0x0000000000000000000000000000000000000002",
                "label": "Precompiled"
            },
            {
                "address": "0x0000000000000000000000000000000000000003",
                "label": "Precompiled"
            },
            {
                "address": "0x0000000000000000000000000000000000000004",
                "label": "Precompiled"
            },
            {
                "address": "0xeeeeeeeeeeeeeeeeeeeeeeeeeeeeeeeeeeeeeeee",
                "label": "Ether"
            },
            {
                "address": "0xdfe3ac769b2d8e382cb86143e0b0b497e1ed5447",
                "label": "THE PLUTO ALLIANCE: PLUTO Token"
            },
            {
                "address": "0x882ea36f2031f3edd6cc243472f6bea7195ecaf3",
                "label": "StakeNFT"
            },
            {
                "address": "0x0000000000000000000000000000000000000001",
                "label": "Precompiled"
            }
        ]
    },
    "trace": {
        "accountLabels": null,
        "dataMap": {
            "-1": {
                "invocation": {
                    "address": "0x9a464782490e8c5a3ea81bbc01061c96c7ddcdf7",
                    "callData": "",
                    "decodedMethod": null,
                    "errorInfo": "",
                    "fromAddress": "",
                    "gasUsed": 0,
                    "id": -1,
                    "methodDecoded": false,
                    "operation": "",
                    "output": "",
                    "revert": false,
                    "revertMessage": "",
                    "selector": "",
                    "status": false,
                    "value": ""
                },
                "nodeType": 0
            },
            "0": {
                "invocation": {
                    "address": "0xdfe3ac769b2d8e382cb86143e0b0b497e1ed5447",
                    "callData": "0x000000000000000000000000882ea36f2031f3edd6cc243472f6bea7195ecaf30000000000000000000000000000000000000000000000000000000000000001",
                    "decodedMethod": {
                        "callParams": [
                            {
                                "name": "operator",
                                "type": "address",
                                "value": "0x882ea36f2031f3edd6cc243472f6bea7195ecaf3"
                            },
                            {
                                "name": "approved",
                                "type": "bool",
                                "value": true
                            }
                        ],
                        "constructorArguments": "",
                        "name": "setApprovalForAll",
                        "returnParams": [],
                        "signature": "setApprovalForAll(address,bool)"
                    },
                    "errorInfo": "",
                    "fromAddress": "0x9a464782490e8c5a3ea81bbc01061c96c7ddcdf7",
                    "gasUsed": 46703,
                    "id": 0,
                    "methodDecoded": true,
                    "operation": "CALL",
                    "output": "",
                    "revert": false,
                    "revertMessage": "",
                    "selector": "0xa22cb465",
                    "status": true,
                    "value": "0"
                },
                "nodeType": 0
            },
            "1": {
                "event": {
                    "contract": "0xdfe3ac769b2d8e382cb86143e0b0b497e1ed5447",
                    "decodedLog": {
                        "name": "ApprovalForAll",
                        "params": [
                            {
                                "name": "owner",
                                "type": "address",
                                "value": "0x9a464782490e8c5a3ea81bbc01061c96c7ddcdf7"
                            },
                            {
                                "name": "operator",
                                "type": "address",
                                "value": "0x882ea36f2031f3edd6cc243472f6bea7195ecaf3"
                            },
                            {
                                "name": "approved",
                                "type": "bool",
                                "value": true
                            }
                        ],
                        "signature": "ApprovalForAll(address,address,bool)"
                    },
                    "id": 1,
                    "logData": "0x0000000000000000000000000000000000000000000000000000000000000001",
                    "logDecoded": true,
                    "operation": "EVENT",
                    "revert": false,
                    "status": true,
                    "topics": [
                        "0x17307eab39ab6107e8899845ad3d59bd9653f200f220920489ca2b5937696c31",
                        "0x0000000000000000000000009a464782490e8c5a3ea81bbc01061c96c7ddcdf7",
                        "0x000000000000000000000000882ea36f2031f3edd6cc243472f6bea7195ecaf3"
                    ]
                },
                "nodeType": 1
            }
        },
        "gasFlame": [
            {
                "children": [
                    {
                        "children": [
                            {
                                "children": [],
                                "depth": 0,
                                "name": "Initial Gas",
                                "value": 21572
                            },
                            {
                                "children": [],
                                "depth": 0,
                                "name": "Executed Gas",
                                "value": 25131
                            }
                        ],
                        "depth": -1,
                        "name": "Actual Gas Used",
                        "value": 46703
                    },
                    {
                        "children": [],
                        "depth": -1,
                        "name": "Refunded Gas",
                        "value": 0
                    }
                ],
                "depth": -2,
                "name": "Total Gas",
                "value": 46703
            }
        ],
        "isConfirmed": true,
        "mainTrace": [
            {
                "children": [
                    {
                        "children": [
                            {
                                "children": [],
                                "depth": 1,
                                "id": 1,
                                "order": 1
                            }
                        ],
                        "depth": 0,
                        "id": 0,
                        "order": 0
                    }
                ],
                "depth": -1,
                "id": -1,
                "order": -1
            }
        ],
        "mainTraceNodeCount": 2,
        "parentIdMap": {
            "0": -1,
            "1": 0
        },
        "tidyTrace": [
            {
                "children": [
                    {
                        "children": [
                            {
                                "children": [],
                                "depth": 1,
                                "id": 1,
                                "order": 1
                            }
                        ],
                        "depth": 0,
                        "id": 0,
                        "order": 0
                    }
                ],
                "depth": -1,
                "id": -1,
                "order": -1
            }
        ],
        "tidyTraceNodeCount": 2
    },
    "state_change": {
        "stateChanges": [
            {
                "address": "0xdfe3ac769b2d8e382cb86143e0b0b497e1ed5447",
                "erc": "ERC-721",
                "slots": [
                    {
                        "current": "0x0000000000000000000000000000000000000000000000000000000000000001",
                        "key": "0x6b0e6f8695b489d49c8d5caf744187884bf976baae121e3d9b55ccaa632726bd",
                        "prev": "0x0000000000000000000000000000000000000000000000000000000000000000"
                    }
                ],
                "storageVariables": [
                    {
                        "name": "_operatorApprovals",
                        "type": "mapping(address => mapping(address => bool))",
                        "value": {
                            "pairs": [
                                {
                                    "key": "0x9a464782490e8c5a3ea81bbc01061c96c7ddcdf7",
                                    "value": {
                                        "pairs": [
                                            {
                                                "key": "0x882ea36f2031f3edd6cc243472f6bea7195ecaf3",
                                                "value": {
                                                    "current": "true",
                                                    "prev": "false",
                                                    "typeTag": 1
                                                }
                                            }
                                        ],
                                        "typeTag": 4
                                    }
                                }
                            ],
                            "typeTag": 4
                        }
                    }
                ]
            }
        ]
    }
}