{
    "balance_change": {
        "balanceChanges": []
    },
    "profile": {
        "basic_info": {
            "baseFee": "80.595860719",
            "blockNumber": 14240244,
            "callData": "0xa22cb465000000000000000000000000f42aa99f011a1fa7cda90e5e98b277e306bca83e0000000000000000000000000000000000000000000000000000000000000000",
            "debugEnable": true,
            "errorInfo": "",
            "eventCount": 1,
            "feeRecipient": "0xea674fdde714fd979de3edf0f56aa9716b898ec8",
            "formatValue": "0",
            "gasLimit": 40533,
            "gasPrice": "81.595860719",
            "gasUsed": 26835,
            "intTxnCount": 0,
            "internalRevert": false,
            "internalRevertMessage": "",
            "isContractCreation": false,
            "isFlashloan": false,
            "maxFee": "153.69133371",
            "nonce": 84,
            "overwritedBlockNumber": -1,
            "priorityFee": "1",
            "receiver": "0xe7df058ee3f091b46ab14b79b8efc5a5e46b275f",
            "revertMessage": "",
            "sender": "0xe0110c6ee2138ecf9962a6f9f6ad329cdfe1fa17",
            "simulationEnable": true,
            "sourceTxnHash": "0xf7d534aa80fcd48d37bddd4910a47b73fbd324575cc96ac8c1ac7026882515fc",
            "status": true,
            "timestamp": "2022-02-20T02:28:45Z",
            "transactionFee": "0.002189624922394365",
            "txnHash": "0xf7d534aa80fcd48d37bddd4910a47b73fbd324575cc96ac8c1ac7026882515fc",
            "txnIndex": 286,
            "type": 2,
            "value": "0"
        },
        "fund_flow": [],
        "token_infos": [
            {
                "address": "0xc02aaa39b223fe8d0a0e5c4f27ead9083c756cc2",
                "decimals": 18
            },
            {
                "address": "0xeeeeeeeeeeeeeeeeeeeeeeeeeeeeeeeeeeeeeeee",
                "decimals": 18
            }
        ]
    },
    "address_label": {
        "labels": [
            {
                "address": "0x0000000000000000000000000000000000000002",
                "label": "Precompiled"
            },
            {
                "address": "0x0000000000000000000000000000000000000003",
                "label": "Precompiled"
            },
            {
                "address": "0x0000000000000000000000000000000000000004",
                "label": "Precompiled"
            },
            {
                "address": "0xeeeeeeeeeeeeeeeeeeeeeeeeeeeeeeeeeeeeeeee",
                "label": "Ether"
            },
            {
                "address": "0xe7df058ee3f091b46ab14b79b8efc5a5e46b275f",
                "label": "The Jims (JIM)"
            },
            {
                "address": "0xf42aa99f011a1fa7cda90e5e98b277e306bca83e",
                "label": "LooksRare: Transfer Manager ERC 721"
            },
            {
                "address": "0x0000000000000000000000000000000000000001",
                "label": "Precompiled"
            }
        ]
    },
    "trace": {
        "accountLabels": null,
        "dataMap": {
            "-1": {
                "invocation": {
                    "address": "0xe0110c6ee2138ecf9962a6f9f6ad329cdfe1fa17",
                    "callData": "",
                    "decodedMethod": null,
                    "errorInfo": "",
                    "fromAddress": "",
                    "gasUsed": 0,
                    "id": -1,
                    "methodDecoded": false,
                    "operation": "",
                    "output": "",
                    "revert": false,
                    "revertMessage": "",
                    "selector": "",
                    "status": false,
                    "value": ""
                },
                "nodeType": 0
            },
            "0": {
                "invocation": {
                    "address": "0xe7df058ee3f091b46ab14b79b8efc5a5e46b275f",
                    "callData": "0x000000000000000000000000f42aa99f011a1fa7cda90e5e98b277e306bca83e0000000000000000000000000000000000000000000000000000000000000000",
                    "decodedMethod": {
                        "callParams": [
                            {
                                "name": "operator",
                                "type": "address",
                                "value": "0xf42aa99f011a1fa7cda90e5e98b277e306bca83e"
                            },
                            {
                                "name": "approved",
                                "type": "bool",
                                "value": false
                            }
                        ],
                        "constructorArguments": "",
                        "name": "setApprovalForAll",
                        "returnParams": [],
                        "signature": "setApprovalForAll(address,bool)"
                    },
                    "errorInfo": "",
                    "fromAddress": "0xe0110c6ee2138ecf9962a6f9f6ad329cdfe1fa17",
                    "gasUsed": 26835,
                    "id": 0,
                    "methodDecoded": true,
                    "operation": "CALL",
                    "output": "",
                    "revert": false,
                    "revertMessage": "",
                    "selector": "0xa22cb465",
                    "status": true,
                    "value": "0"
                },
                "nodeType": 0
            },
            "1": {
                "event": {
                    "contract": "0xe7df058ee3f091b46ab14b79b8efc5a5e46b275f",
                    "decodedLog": {
                        "name": "ApprovalForAll",
                        "params": [
                            {
                                "name": "owner",
                                "type": "address",
                                "value": "0xe0110c6ee2138ecf9962a6f9f6ad329cdfe1fa17"
                            },
                            {
                                "name": "operator",
                                "type": "address",
                                "value": "0xf42aa99f011a1fa7cda90e5e98b277e306bca83e"
                            },
                            {
                                "name": "approved",
                                "type": "bool",
                                "value": false
                            }
                        ],
                        "signature": "ApprovalForAll(address,address,bool)"
                    },
                    "id": 1,
                    "logData": "0x0000000000000000000000000000000000000000000000000000000000000000",
                    "logDecoded": true,
                    "operation": "EVENT",
                    "revert": false,
                    "status": true,
                    "topics": [
                        "0x17307eab39ab6107e8899845ad3d59bd9653f200f220920489ca2b5937696c31",
                        "0x000000000000000000000000e0110c6ee2138ecf9962a6f9f6ad329cdfe1fa17",
                        "0x000000000000000000000000f42aa99f011a1fa7cda90e5e98b277e306bca83e"
                    ]
                },
                "nodeType": 1
            }
        },
        "gasFlame": [
            {
                "children": [
                    {
                        "children": [
                            {
                                "children": [],
                                "depth": 0,
                                "name": "Initial Gas",
                                "value": 21560
                            },
                            {
                                "children": [],
                                "depth": 0,
                                "name": "Executed Gas",
                                "value": 5275
                            }
                        ],
                        "depth": -1,
                        "name": "Actual Gas Used",
                        "value": 26835
                    },
                    {
                        "children": [],
                        "depth": -1,
                        "name": "Refunded Gas",
                        "value": 0
                    }
                ],
                "depth": -2,
                "name": "Total Gas",
                "value": 26835
            }
        ],
        "isConfirmed": true,
        "mainTrace": [
            {
                "children": [
                    {
                        "children": [
                            {
                                "children": [],
                                "depth": 1,
                                "id": 1,
                                "order": 1
                            }
                        ],
                        "depth": 0,
                        "id": 0,
                        "order": 0
                    }
                ],
                "depth": -1,
                "id": -1,
                "order": -1
            }
        ],
        "mainTraceNodeCount": 2,
        "parentIdMap": {
            "0": -1,
            "1": 0
        },
        "tidyTrace": [
            {
                "children": [
                    {
                        "children": [
                            {
                                "children": [],
                                "depth": 1,
                                "id": 1,
                                "order": 1
                            }
                        ],
                        "depth": 0,
                        "id": 0,
                        "order": 0
                    }
                ],
                "depth": -1,
                "id": -1,
                "order": -1
            }
        ],
        "tidyTraceNodeCount": 2
    },
    "state_change": {
        "stateChanges": []
    }
}