{
    "balance_change": {
        "balanceChanges": [
            {
                "account": "0x82b7afd1844e67c0dbbd8d8f6c11da489fd97f9e",
                "assets": [
                    {
                        "address": "0x5ca9a71b1d01849c0a95490cc00559717fcf0d1d",
                        "amount": "107.254959999999999999",
                        "iconUrl": "",
                        "isERC1155": false,
                        "isERC721": false,
                        "sign": false,
                        "value": ""
                    }
                ]
            },
            {
                "account": "0xfe5854255eb1eb921525fa856a3947ed2412a1d7",
                "assets": [
                    {
                        "address": "0x5ca9a71b1d01849c0a95490cc00559717fcf0d1d",
                        "amount": "107.254959999999999999",
                        "iconUrl": "",
                        "isERC1155": false,
                        "isERC721": false,
                        "sign": true,
                        "value": ""
                    }
                ]
            }
        ]
    },
    "profile": {
        "basic_info": {
            "baseFee": "",
            "blockNumber": 5576246,
            "callData": "0xa9059cbb000000000000000000000000fe5854255eb1eb921525fa856a3947ed2412a1d7000000000000000000000000000000000000000000000005d07629dbdebaffff",
            "debugEnable": true,
            "errorInfo": "",
            "eventCount": 1,
            "feeRecipient": "0xea674fdde714fd979de3edf0f56aa9716b898ec8",
            "formatValue": "0",
            "gasLimit": 120000,
            "gasPrice": "1",
            "gasUsed": 37420,
            "intTxnCount": 0,
            "internalRevert": false,
            "internalRevertMessage": "",
            "isContractCreation": false,
            "isFlashloan": false,
            "maxFee": "",
            "nonce": 0,
            "overwritedBlockNumber": -1,
            "priorityFee": "",
            "receiver": "0x5ca9a71b1d01849c0a95490cc00559717fcf0d1d",
            "revertMessage": "",
            "sender": "0x82b7afd1844e67c0dbbd8d8f6c11da489fd97f9e",
            "simulationEnable": true,
            "sourceTxnHash": "0xf800bd0b92ea6755c46a319351fac3f862a694ffb822296e4ac79f41d9b62b73",
            "status": true,
            "timestamp": "2018-05-08T05:47:55Z",
            "transactionFee": "0.00003742",
            "txnHash": "0xf800bd0b92ea6755c46a319351fac3f862a694ffb822296e4ac79f41d9b62b73",
            "txnIndex": 109,
            "type": 0,
            "value": "0"
        },
        "fund_flow": [
            {
                "amount": "107.254959999999999999",
                "from": "0x82b7afd1844e67c0dbbd8d8f6c11da489fd97f9e",
                "id": 1,
                "isERC1155": false,
                "isERC721": false,
                "isReverted": false,
                "order": 1,
                "to": "0xfe5854255eb1eb921525fa856a3947ed2412a1d7",
                "token": "0x5ca9a71b1d01849c0a95490cc00559717fcf0d1d"
            }
        ],
        "token_infos": [
            {
                "address": "0x5ca9a71b1d01849c0a95490cc00559717fcf0d1d",
                "decimals": 18
            },
            {
                "address": "0xc02aaa39b223fe8d0a0e5c4f27ead9083c756cc2",
                "decimals": 18
            },
            {
                "address": "0xeeeeeeeeeeeeeeeeeeeeeeeeeeeeeeeeeeeeeeee",
                "decimals": 18
            }
        ]
    },
    "address_label": {
        "labels": [
            {
                "address": "0x0000000000000000000000000000000000000002",
                "label": "Precompiled"
            },
            {
                "address": "0x0000000000000000000000000000000000000003",
                "label": "Precompiled"
            },
            {
                "address": "0x0000000000000000000000000000000000000004",
                "label": "Precompiled"
            },
            {
                "address": "0xeeeeeeeeeeeeeeeeeeeeeeeeeeeeeeeeeeeeeeee",
                "label": "Ether"
            },
            {
                "address": "0x5ca9a71b1d01849c0a95490cc00559717fcf0d1d",
                "label": "Aeternity: Old Token"
            },
            {
                "address": "0x0000000000000000000000000000000000000001",
                "label": "Precompiled"
            }
        ]
    },
    "trace": {
        "accountLabels": null,
        "dataMap": {
            "-1": {
                "invocation": {
                    "address": "0x82b7afd1844e67c0dbbd8d8f6c11da489fd97f9e",
                    "callData": "",
                    "decodedMethod": null,
                    "errorInfo": "",
                    "fromAddress": "",
                    "gasUsed": 0,
                    "id": -1,
                    "methodDecoded": false,
                    "operation": "",
                    "output": "",
                    "revert": false,
                    "revertMessage": "",
                    "selector": "",
                    "status": false,
                    "value": ""
                },
                "nodeType": 0
            },
            "0": {
                "invocation": {
                    "address": "0x5ca9a71b1d01849c0a95490cc00559717fcf0d1d",
                    "callData": "0x000000000000000000000000fe5854255eb1eb921525fa856a3947ed2412a1d7000000000000000000000000000000000000000000000005d07629dbdebaffff",
                    "decodedMethod": {
                        "callParams": [
                            {
                                "name": "_to",
                                "type": "address",
                                "value": "0xfe5854255eb1eb921525fa856a3947ed2412a1d7"
                            },
                            {
                                "decimalAvailable": true,
                                "name": "_value",
                                "type": "uint256",
                                "value": "107,254,959,999,999,999,999"
                            }
                        ],
                        "constructorArguments": "",
                        "name": "transfer",
                        "returnParams": [
                            {
                                "name": "success",
                                "type": "bool",
                                "value": true
                            }
                        ],
                        "signature": "transfer(address,uint256)"
                    },
                    "errorInfo": "",
                    "fromAddress": "0x82b7afd1844e67c0dbbd8d8f6c11da489fd97f9e",
                    "gasUsed": 37420,
                    "id": 0,
                    "methodDecoded": true,
                    "operation": "CALL",
                    "output": "0x0000000000000000000000000000000000000000000000000000000000000001",
                    "revert": false,
                    "revertMessage": "",
                    "selector": "0xa9059cbb",
                    "status": true,
                    "value": "0"
                },
                "nodeType": 0
            },
            "1": {
                "event": {
                    "contract": "0x5ca9a71b1d01849c0a95490cc00559717fcf0d1d",
                    "decodedLog": {
                        "name": "Transfer",
                        "params": [
                            {
                                "name": "_from",
                                "type": "address",
                                "value": "0x82b7afd1844e67c0dbbd8d8f6c11da489fd97f9e"
                            },
                            {
                                "name": "_to",
                                "type": "address",
                                "value": "0xfe5854255eb1eb921525fa856a3947ed2412a1d7"
                            },
                            {
                                "decimalAvailable": true,
                                "name": "_value",
                                "type": "uint256",
                                "value": "107,254,959,999,999,999,999"
                            }
                        ],
                        "signature": "Transfer(address,address,uint256)"
                    },
                    "id": 1,
                    "logData": "0x000000000000000000000000000000000000000000000005d07629dbdebaffff",
                    "logDecoded": true,
                    "operation": "EVENT",
                    "revert": false,
                    "status": true,
                    "topics": [
                        "0xddf252ad1be2c89b69c2b068fc378daa952ba7f163c4a11628f55a4df523b3ef",
                        "0x00000000000000000000000082b7afd1844e67c0dbbd8d8f6c11da489fd97f9e",
                        "0x000000000000000000000000fe5854255eb1eb921525fa856a3947ed2412a1d7"
                    ]
                },
                "nodeType": 1
            }
        },
        "gasFlame": [
            {
                "children": [
                    {
                        "children": [
                            {
                                "children": [],
                                "depth": 0,
                                "name": "Initial Gas",
                                "value": 23384
                            },
                            {
                                "children": [],
                                "depth": 0,
                                "name": "Executed Gas",
                                "value": 14036
                            }
                        ],
                        "depth": -1,
                        "name": "Actual Gas Used",
                        "value": 37420
                    },
                    {
                        "children": [],
                        "depth": -1,
                        "name": "Refunded Gas",
                        "value": 0
                    }
                ],
                "depth": -2,
                "name": "Total Gas",
                "value": 37420
            }
        ],
        "isConfirmed": true,
        "mainTrace": [
            {
                "children": [
                    {
                        "children": [
                            {
                                "children": [],
                                "depth": 1,
                                "id": 1,
                                "order": 1
                            }
                        ],
                        "depth": 0,
                        "id": 0,
                        "order": 0
                    }
                ],
                "depth": -1,
                "id": -1,
                "order": -1
            }
        ],
        "mainTraceNodeCount": 2,
        "parentIdMap": {
            "0": -1,
            "1": 0
        },
        "tidyTrace": [
            {
                "children": [
                    {
                        "children": [
                            {
                                "children": [],
                                "depth": 1,
                                "id": 1,
                                "order": 1
                            }
                        ],
                        "depth": 0,
                        "id": 0,
                        "order": 0
                    }
                ],
                "depth": -1,
                "id": -1,
                "order": -1
            }
        ],
        "tidyTraceNodeCount": 2
    },
    "state_change": {
        "stateChanges": [
            {
                "address": "0x5ca9a71b1d01849c0a95490cc00559717fcf0d1d",
                "erc": "ERC-20",
                "slots": [
                    {
                        "current": "0x00000000000000000000000000000000000000000003df18ff42a8adcd04bef0",
                        "key": "0x5024127366a905989dda14edf4af73221df32ab3be32f1735aea8426eb90b3b5",
                        "prev": "0x00000000000000000000000000000000000000000003df132ecc7ed1ee49bef1"
                    },
                    {
                        "current": "0x0000000000000000000000000000000000000000000000000000000000000001",
                        "key": "0x3d24f9cb58bddf4fe2b183cd264b1be302081f1c45c9084a4336522073f16c03",
                        "prev": "0x000000000000000000000000000000000000000000000005d07629dbdebb0000"
                    }
                ],
                "storageVariables": [
                    {
                        "name": "balances",
                        "type": "mapping(address => uint256)",
                        "value": {
                            "pairs": [
                                {
                                    "key": "0x82b7afd1844e67c0dbbd8d8f6c11da489fd97f9e",
                                    "value": {
                                        "current": "1",
                                        "prev": "107254960000000000000",
                                        "typeTag": 1
                                    }
                                },
                                {
                                    "key": "0xfe5854255eb1eb921525fa856a3947ed2412a1d7",
                                    "value": {
                                        "current": "4680326299830879992987376",
                                        "prev": "4680219044870879992987377",
                                        "typeTag": 1
                                    }
                                }
                            ],
                            "typeTag": 4
                        }
                    }
                ]
            }
        ]
    }
}