{
    "balance_change": {
        "balanceChanges": [
            {
                "account": "0x0000006daea1723962647b7e189d311d757fb793",
                "assets": [
                    {
                        "address": "0xc02aaa39b223fe8d0a0e5c4f27ead9083c756cc2",
                        "amount": "12.20220954",
                        "iconUrl": "https://assets.blocksec.com/icon/f1cb2d02c471d545bbc7722daf3277fd852d98e63d118771af7047bd8256c516.png",
                        "isERC1155": false,
                        "isERC721": false,
                        "sign": true,
                        "value": "29893.70506"
                    },
                    {
                        "address": "0xb62132e35a6c13ee1ee0f84dc5d40bad8d815206",
                        "amount": "16,581.317272777144942562",
                        "iconUrl": "https://assets.blocksec.com/icon/fea86f969d2759a2ee2f170e71fc014cd439e415f97fa60c37db575eb46dfac5.png",
                        "isERC1155": false,
                        "isERC721": false,
                        "sign": false,
                        "value": "29636.38395"
                    }
                ]
            },
            {
                "account": "0x4c54ff7f1c424ff5487a32aad0b48b19cbaf087f",
                "assets": [
                    {
                        "address": "0xb62132e35a6c13ee1ee0f84dc5d40bad8d815206",
                        "amount": "16,581.317272777144942562",
                        "iconUrl": "https://assets.blocksec.com/icon/fea86f969d2759a2ee2f170e71fc014cd439e415f97fa60c37db575eb46dfac5.png",
                        "isERC1155": false,
                        "isERC721": false,
                        "sign": true,
                        "value": "29636.38395"
                    },
                    {
                        "address": "0xc02aaa39b223fe8d0a0e5c4f27ead9083c756cc2",
                        "amount": "12.20220954",
                        "iconUrl": "https://assets.blocksec.com/icon/f1cb2d02c471d545bbc7722daf3277fd852d98e63d118771af7047bd8256c516.png",
                        "isERC1155": false,
                        "isERC721": false,
                        "sign": false,
                        "value": "29893.70506"
                    }
                ]
            }
        ]
    },
    "profile": {
        "basic_info": {
            "baseFee": "148.083361902",
            "blockNumber": 14078767,
            "callData": "0x729df14c000000000000000000000000000000000000000000000000000000000000006000000000000000000000000000000000000000000000000000000000000000a000000000000000000000000000000000000000000000000000000000000000e000000000000000000000000000000000000000000000000000000000000000010000000000000000000000000000008cf69d25162321fed9f6789f2a5cade6bc00000000000000000000000000000000000000000000000000000000000000010000000000000000000000000000000000000000000000000000000000000000000000000000000000000000000000000000000000000000000000000000000100000000000000000000000000000000000000000000000000000000000000200000000000000000000000000000000000000000000000000000000000000104db3e2198000000000000000000000000b62132e35a6c13ee1ee0f84dc5d40bad8d815206000000000000000000000000c02aaa39b223fe8d0a0e5c4f27ead9083c756cc20000000000000000000000000000000000000000000000000000000000000bb80000000000000000000000000000006daea1723962647b7e189d311d757fb7930000000000000000000000000000000000000000000000000000000061f0bbb0000000000000000000000000000000000000000000000000a956f4ed3295280000000000000000000000000000000000000000000000038638cdb49738e00000000000000000000000000000000000000000000000000000000000000000000000000000000000000000000000000000000000000000000000000000",
            "debugEnable": true,
            "errorInfo": "",
            "eventCount": 3,
            "feeRecipient": "0x7f101fe45e6649a6fb8f3f8b43ed03d353f2b90c",
            "formatValue": "0",
            "gasLimit": 700000,
            "gasPrice": "173.50893376",
            "gasUsed": 135288,
            "intTxnCount": 7,
            "internalRevert": false,
            "internalRevertMessage": "",
            "isContractCreation": false,
            "isFlashloan": false,
            "maxFee": "298.18",
            "nonce": 150627,
            "overwritedBlockNumber": -1,
            "priorityFee": "25.425571858",
            "receiver": "0x0000006daea1723962647b7e189d311d757fb793",
            "revertMessage": "",
            "sender": "0x0000495194ec698fcf89ccf8abb445daf01db497",
            "simulationEnable": true,
            "sourceTxnHash": "0xf8463c844a11b9ff9439c923c20afe127032c0c30fe20baadbc23681a183c868",
            "status": true,
            "timestamp": "2022-01-26T03:08:37Z",
            "transactionFee": "0.02347367663052288",
            "txnHash": "0xf8463c844a11b9ff9439c923c20afe127032c0c30fe20baadbc23681a183c868",
            "txnIndex": 1,
            "type": 2,
            "value": "0"
        },
        "fund_flow": [
            {
                "amount": "12.20220954",
                "from": "0x4c54ff7f1c424ff5487a32aad0b48b19cbaf087f",
                "id": 1,
                "isERC1155": false,
                "isERC721": false,
                "isReverted": false,
                "order": 1,
                "to": "0x0000006daea1723962647b7e189d311d757fb793",
                "token": "0xc02aaa39b223fe8d0a0e5c4f27ead9083c756cc2"
            },
            {
                "amount": "16,581.317272777144942562",
                "from": "0x0000006daea1723962647b7e189d311d757fb793",
                "id": 2,
                "isERC1155": false,
                "isERC721": false,
                "isReverted": false,
                "order": 2,
                "to": "0x4c54ff7f1c424ff5487a32aad0b48b19cbaf087f",
                "token": "0xb62132e35a6c13ee1ee0f84dc5d40bad8d815206"
            }
        ],
        "token_infos": [
            {
                "address": "0xc02aaa39b223fe8d0a0e5c4f27ead9083c756cc2",
                "decimals": 18
            },
            {
                "address": "0xeeeeeeeeeeeeeeeeeeeeeeeeeeeeeeeeeeeeeeee",
                "decimals": 18
            },
            {
                "address": "0xb62132e35a6c13ee1ee0f84dc5d40bad8d815206",
                "decimals": 18
            }
        ]
    },
    "address_label": {
        "labels": [
            {
                "address": "0x0000000000000000000000000000000000000001",
                "label": "Precompiled"
            },
            {
                "address": "0x0000000000000000000000000000000000000002",
                "label": "Precompiled"
            },
            {
                "address": "0x0000000000000000000000000000000000000003",
                "label": "Precompiled"
            },
            {
                "address": "0x0000000000000000000000000000000000000004",
                "label": "Precompiled"
            },
            {
                "address": "0xeeeeeeeeeeeeeeeeeeeeeeeeeeeeeeeeeeeeeeee",
                "label": "Ether"
            },
            {
                "address": "0x0000006daea1723962647b7e189d311d757fb793",
                "label": "Wintermute 1"
            },
            {
                "address": "0x4c54ff7f1c424ff5487a32aad0b48b19cbaf087f",
                "label": "Uniswap V3: NEXO"
            },
            {
                "address": "0xc02aaa39b223fe8d0a0e5c4f27ead9083c756cc2",
                "label": "Wrapped Ether (WETH)"
            },
            {
                "address": "0xb62132e35a6c13ee1ee0f84dc5d40bad8d815206",
                "label": "Nexo Token"
            }
        ]
    },
    "trace": {
        "accountLabels": null,
        "dataMap": {
            "-1": {
                "invocation": {
                    "address": "0x0000495194ec698fcf89ccf8abb445daf01db497",
                    "callData": "",
                    "decodedMethod": null,
                    "errorInfo": "",
                    "fromAddress": "",
                    "gasUsed": 0,
                    "id": -1,
                    "methodDecoded": false,
                    "operation": "",
                    "output": "",
                    "revert": false,
                    "revertMessage": "",
                    "selector": "",
                    "status": false,
                    "value": ""
                },
                "nodeType": 0
            },
            "0": {
                "invocation": {
                    "address": "0x0000006daea1723962647b7e189d311d757fb793",
                    "callData": "0x000000000000000000000000000000000000000000000000000000000000006000000000000000000000000000000000000000000000000000000000000000a000000000000000000000000000000000000000000000000000000000000000e000000000000000000000000000000000000000000000000000000000000000010000000000000000000000000000008cf69d25162321fed9f6789f2a5cade6bc00000000000000000000000000000000000000000000000000000000000000010000000000000000000000000000000000000000000000000000000000000000000000000000000000000000000000000000000000000000000000000000000100000000000000000000000000000000000000000000000000000000000000200000000000000000000000000000000000000000000000000000000000000104db3e2198000000000000000000000000b62132e35a6c13ee1ee0f84dc5d40bad8d815206000000000000000000000000c02aaa39b223fe8d0a0e5c4f27ead9083c756cc20000000000000000000000000000000000000000000000000000000000000bb80000000000000000000000000000006daea1723962647b7e189d311d757fb7930000000000000000000000000000000000000000000000000000000061f0bbb0000000000000000000000000000000000000000000000000a956f4ed3295280000000000000000000000000000000000000000000000038638cdb49738e00000000000000000000000000000000000000000000000000000000000000000000000000000000000000000000000000000000000000000000000000000",
                    "decodedMethod": null,
                    "errorInfo": "",
                    "fromAddress": "0x0000495194ec698fcf89ccf8abb445daf01db497",
                    "gasUsed": 135288,
                    "id": 0,
                    "methodDecoded": false,
                    "operation": "CALL",
                    "output": "",
                    "revert": false,
                    "revertMessage": "",
                    "selector": "0x729df14c",
                    "status": true,
                    "value": "0"
                },
                "nodeType": 0
            },
            "1": {
                "invocation": {
                    "address": "0x0000008cf69d25162321fed9f6789f2a5cade6bc",
                    "callData": "0x000000000000000000000000b62132e35a6c13ee1ee0f84dc5d40bad8d815206000000000000000000000000c02aaa39b223fe8d0a0e5c4f27ead9083c756cc20000000000000000000000000000000000000000000000000000000000000bb80000000000000000000000000000006daea1723962647b7e189d311d757fb7930000000000000000000000000000000000000000000000000000000061f0bbb0000000000000000000000000000000000000000000000000a956f4ed3295280000000000000000000000000000000000000000000000038638cdb49738e000000000000000000000000000000000000000000000000000000000000000000000",
                    "decodedMethod": {
                        "callParams": [
                            {
                                "name": "params",
                                "type": "(address,address,uint24,address,uint256,uint256,uint256,uint160)",
                                "value": [
                                    {
                                        "name": "tokenIn",
                                        "type": "address",
                                        "value": "0xb62132e35a6c13ee1ee0f84dc5d40bad8d815206"
                                    },
                                    {
                                        "name": "tokenOut",
                                        "type": "address",
                                        "value": "0xc02aaa39b223fe8d0a0e5c4f27ead9083c756cc2"
                                    },
                                    {
                                        "name": "fee",
                                        "type": "uint24",
                                        "value": "3,000"
                                    },
                                    {
                                        "name": "recipient",
                                        "type": "address",
                                        "value": "0x0000006daea1723962647b7e189d311d757fb793"
                                    },
                                    {
                                        "name": "deadline",
                                        "type": "uint256",
                                        "value": "1,643,166,640"
                                    },
                                    {
                                        "name": "amountOut",
                                        "type": "uint256",
                                        "value": "12,202,209,540,000,000,000"
                                    },
                                    {
                                        "name": "amountInMaximum",
                                        "type": "uint256",
                                        "value": "16,643,056,280,683,952,472,064"
                                    },
                                    {
                                        "name": "sqrtPriceLimitX96",
                                        "type": "uint160",
                                        "value": "0"
                                    }
                                ]
                            }
                        ],
                        "constructorArguments": "",
                        "name": "exactOutputSingle",
                        "returnParams": [
                            {
                                "name": "amountIn",
                                "type": "uint256",
                                "value": "16,581,317,272,777,144,942,562"
                            }
                        ],
                        "signature": "exactOutputSingle((address,address,uint24,address,uint256,uint256,uint256,uint160))"
                    },
                    "errorInfo": "",
                    "fromAddress": "0x0000006daea1723962647b7e189d311d757fb793",
                    "gasUsed": 100237,
                    "id": 1,
                    "methodDecoded": true,
                    "operation": "CALL",
                    "output": "0x000000000000000000000000000000000000000000000382e000b001ba943fe2",
                    "revert": false,
                    "revertMessage": "",
                    "selector": "0xdb3e2198",
                    "status": true,
                    "value": "0"
                },
                "nodeType": 0
            },
            "10": {
                "event": {
                    "contract": "0x4c54ff7f1c424ff5487a32aad0b48b19cbaf087f",
                    "decodedLog": {
                        "name": "Swap",
                        "params": [
                            {
                                "name": "sender",
                                "type": "address",
                                "value": "0x0000008cf69d25162321fed9f6789f2a5cade6bc"
                            },
                            {
                                "name": "recipient",
                                "type": "address",
                                "value": "0x0000006daea1723962647b7e189d311d757fb793"
                            },
                            {
                                "name": "amount0",
                                "type": "int256",
                                "value": "16,581,317,272,777,144,942,562"
                            },
                            {
                                "name": "amount1",
                                "type": "int256",
                                "value": "-12,202,209,540,000,000,000"
                            },
                            {
                                "name": "sqrtPriceX96",
                                "type": "uint160",
                                "value": "2,150,060,397,095,903,937,086,956,370"
                            },
                            {
                                "name": "liquidity",
                                "type": "uint128",
                                "value": "198,603,859,629,178,889,085,548"
                            },
                            {
                                "name": "tick",
                                "type": "int24",
                                "value": "-72,141"
                            }
                        ],
                        "signature": "Swap(address,address,int256,int256,uint160,uint128,int24)"
                    },
                    "id": 10,
                    "logData": "0x000000000000000000000000000000000000000000000382e000b001ba943fe2ffffffffffffffffffffffffffffffffffffffffffffffff56a90b12cd6ad800000000000000000000000000000000000000000006f27cfface1dad050352352000000000000000000000000000000000000000000002a0e5638c4647e8aa26cfffffffffffffffffffffffffffffffffffffffffffffffffffffffffffee633",
                    "logDecoded": true,
                    "operation": "EVENT",
                    "revert": false,
                    "status": true,
                    "topics": [
                        "0xc42079f94a6350d7e6235f29174924f928cc2ac818eb64fed8004e115fbcca67",
                        "0x0000000000000000000000000000008cf69d25162321fed9f6789f2a5cade6bc",
                        "0x0000000000000000000000000000006daea1723962647b7e189d311d757fb793"
                    ]
                },
                "nodeType": 1
            },
            "2": {
                "invocation": {
                    "address": "0x4c54ff7f1c424ff5487a32aad0b48b19cbaf087f",
                    "callData": "0x0000000000000000000000000000006daea1723962647b7e189d311d757fb7930000000000000000000000000000000000000000000000000000000000000001ffffffffffffffffffffffffffffffffffffffffffffffff56a90b12cd6ad80000000000000000000000000000000000000000000000000000000001000276a400000000000000000000000000000000000000000000000000000000000000a000000000000000000000000000000000000000000000000000000000000000c0000000000000000000000000000000000000000000000000000000000000002000000000000000000000000000000000000000000000000000000000000000400000000000000000000000000000006daea1723962647b7e189d311d757fb793000000000000000000000000000000000000000000000000000000000000002bc02aaa39b223fe8d0a0e5c4f27ead9083c756cc2000bb8b62132e35a6c13ee1ee0f84dc5d40bad8d815206000000000000000000000000000000000000000000",
                    "decodedMethod": {
                        "callParams": [
                            {
                                "name": "recipient",
                                "type": "address",
                                "value": "0x0000006daea1723962647b7e189d311d757fb793"
                            },
                            {
                                "name": "zeroForOne",
                                "type": "bool",
                                "value": true
                            },
                            {
                                "name": "amountSpecified",
                                "type": "int256",
                                "value": "-12,202,209,540,000,000,000"
                            },
                            {
                                "name": "sqrtPriceLimitX96",
                                "type": "uint160",
                                "value": "4,295,128,740"
                            },
                            {
                                "name": "data",
                                "type": "bytes",
                                "value": "0x000000000000000000000000000000000000000000000000000000000000002000000000000000000000000000000000000000000000000000000000000000400000000000000000000000000000006daea1723962647b7e189d311d757fb793000000000000000000000000000000000000000000000000000000000000002bc02aaa39b223fe8d0a0e5c4f27ead9083c756cc2000bb8b62132e35a6c13ee1ee0f84dc5d40bad8d815206000000000000000000000000000000000000000000"
                            }
                        ],
                        "constructorArguments": "",
                        "name": "swap",
                        "returnParams": [
                            {
                                "name": "amount0",
                                "type": "int256",
                                "value": "16,581,317,272,777,144,942,562"
                            },
                            {
                                "name": "amount1",
                                "type": "int256",
                                "value": "-12,202,209,540,000,000,000"
                            }
                        ],
                        "signature": "swap(address,bool,int256,uint160,bytes)"
                    },
                    "errorInfo": "",
                    "fromAddress": "0x0000008cf69d25162321fed9f6789f2a5cade6bc",
                    "gasUsed": 88200,
                    "id": 2,
                    "methodDecoded": true,
                    "operation": "CALL",
                    "output": "0x000000000000000000000000000000000000000000000382e000b001ba943fe2ffffffffffffffffffffffffffffffffffffffffffffffff56a90b12cd6ad800",
                    "revert": false,
                    "revertMessage": "",
                    "selector": "0x128acb08",
                    "status": true,
                    "value": "0"
                },
                "nodeType": 0
            },
            "3": {
                "invocation": {
                    "address": "0xc02aaa39b223fe8d0a0e5c4f27ead9083c756cc2",
                    "callData": "0x0000000000000000000000000000006daea1723962647b7e189d311d757fb793000000000000000000000000000000000000000000000000a956f4ed32952800",
                    "decodedMethod": {
                        "callParams": [
                            {
                                "name": "dst",
                                "type": "address",
                                "value": "0x0000006daea1723962647b7e189d311d757fb793"
                            },
                            {
                                "decimalAvailable": true,
                                "name": "wad",
                                "type": "uint256",
                                "value": "12,202,209,540,000,000,000"
                            }
                        ],
                        "constructorArguments": "",
                        "name": "transfer",
                        "returnParams": [
                            {
                                "name": "",
                                "type": "bool",
                                "value": true
                            }
                        ],
                        "signature": "transfer(address,uint256)"
                    },
                    "errorInfo": "",
                    "fromAddress": "0x4c54ff7f1c424ff5487a32aad0b48b19cbaf087f",
                    "gasUsed": 12862,
                    "id": 3,
                    "methodDecoded": true,
                    "operation": "CALL",
                    "output": "0x0000000000000000000000000000000000000000000000000000000000000001",
                    "revert": false,
                    "revertMessage": "",
                    "selector": "0xa9059cbb",
                    "status": true,
                    "value": "0"
                },
                "nodeType": 0
            },
            "4": {
                "event": {
                    "contract": "0xc02aaa39b223fe8d0a0e5c4f27ead9083c756cc2",
                    "decodedLog": {
                        "name": "Transfer",
                        "params": [
                            {
                                "name": "src",
                                "type": "address",
                                "value": "0x4c54ff7f1c424ff5487a32aad0b48b19cbaf087f"
                            },
                            {
                                "name": "dst",
                                "type": "address",
                                "value": "0x0000006daea1723962647b7e189d311d757fb793"
                            },
                            {
                                "decimalAvailable": true,
                                "name": "wad",
                                "type": "uint256",
                                "value": "12,202,209,540,000,000,000"
                            }
                        ],
                        "signature": "Transfer(address,address,uint256)"
                    },
                    "id": 4,
                    "logData": "0x000000000000000000000000000000000000000000000000a956f4ed32952800",
                    "logDecoded": true,
                    "operation": "EVENT",
                    "revert": false,
                    "status": true,
                    "topics": [
                        "0xddf252ad1be2c89b69c2b068fc378daa952ba7f163c4a11628f55a4df523b3ef",
                        "0x0000000000000000000000004c54ff7f1c424ff5487a32aad0b48b19cbaf087f",
                        "0x0000000000000000000000000000006daea1723962647b7e189d311d757fb793"
                    ]
                },
                "nodeType": 1
            },
            "5": {
                "invocation": {
                    "address": "0xb62132e35a6c13ee1ee0f84dc5d40bad8d815206",
                    "callData": "0x0000000000000000000000004c54ff7f1c424ff5487a32aad0b48b19cbaf087f",
                    "decodedMethod": {
                        "callParams": [
                            {
                                "name": "_owner",
                                "type": "address",
                                "value": "0x4c54ff7f1c424ff5487a32aad0b48b19cbaf087f"
                            }
                        ],
                        "constructorArguments": "",
                        "name": "balanceOf",
                        "returnParams": [
                            {
                                "decimalAvailable": true,
                                "name": "balance",
                                "type": "uint256",
                                "value": "1,529,630,213,544,689,162,639,957"
                            }
                        ],
                        "signature": "balanceOf(address)"
                    },
                    "errorInfo": "",
                    "fromAddress": "0x4c54ff7f1c424ff5487a32aad0b48b19cbaf087f",
                    "gasUsed": 3053,
                    "id": 5,
                    "methodDecoded": true,
                    "operation": "STATICCALL",
                    "output": "0x0000000000000000000000000000000000000000000143e96b872ab006edda55",
                    "revert": false,
                    "revertMessage": "",
                    "selector": "0x70a08231",
                    "status": true,
                    "value": "0"
                },
                "nodeType": 0
            },
            "6": {
                "invocation": {
                    "address": "0x0000008cf69d25162321fed9f6789f2a5cade6bc",
                    "callData": "0x000000000000000000000000000000000000000000000382e000b001ba943fe2ffffffffffffffffffffffffffffffffffffffffffffffff56a90b12cd6ad800000000000000000000000000000000000000000000000000000000000000006000000000000000000000000000000000000000000000000000000000000000c0000000000000000000000000000000000000000000000000000000000000002000000000000000000000000000000000000000000000000000000000000000400000000000000000000000000000006daea1723962647b7e189d311d757fb793000000000000000000000000000000000000000000000000000000000000002bc02aaa39b223fe8d0a0e5c4f27ead9083c756cc2000bb8b62132e35a6c13ee1ee0f84dc5d40bad8d815206000000000000000000000000000000000000000000",
                    "decodedMethod": {
                        "callParams": [
                            {
                                "name": "amount0Delta",
                                "type": "int256",
                                "value": "16,581,317,272,777,144,942,562"
                            },
                            {
                                "name": "amount1Delta",
                                "type": "int256",
                                "value": "-12,202,209,540,000,000,000"
                            },
                            {
                                "name": "data",
                                "type": "bytes",
                                "value": "0x000000000000000000000000000000000000000000000000000000000000002000000000000000000000000000000000000000000000000000000000000000400000000000000000000000000000006daea1723962647b7e189d311d757fb793000000000000000000000000000000000000000000000000000000000000002bc02aaa39b223fe8d0a0e5c4f27ead9083c756cc2000bb8b62132e35a6c13ee1ee0f84dc5d40bad8d815206000000000000000000000000000000000000000000"
                            }
                        ],
                        "constructorArguments": "",
                        "name": "uniswapV3SwapCallback",
                        "returnParams": [],
                        "signature": "uniswapV3SwapCallback(int256,int256,bytes)"
                    },
                    "errorInfo": "",
                    "fromAddress": "0x4c54ff7f1c424ff5487a32aad0b48b19cbaf087f",
                    "gasUsed": 25793,
                    "id": 6,
                    "methodDecoded": true,
                    "operation": "CALL",
                    "output": "",
                    "revert": false,
                    "revertMessage": "",
                    "selector": "0xfa461e33",
                    "status": true,
                    "value": "0"
                },
                "nodeType": 0
            },
            "7": {
                "invocation": {
                    "address": "0xb62132e35a6c13ee1ee0f84dc5d40bad8d815206",
                    "callData": "0x0000000000000000000000000000006daea1723962647b7e189d311d757fb7930000000000000000000000004c54ff7f1c424ff5487a32aad0b48b19cbaf087f000000000000000000000000000000000000000000000382e000b001ba943fe2",
                    "decodedMethod": {
                        "callParams": [
                            {
                                "name": "_from",
                                "type": "address",
                                "value": "0x0000006daea1723962647b7e189d311d757fb793"
                            },
                            {
                                "name": "_to",
                                "type": "address",
                                "value": "0x4c54ff7f1c424ff5487a32aad0b48b19cbaf087f"
                            },
                            {
                                "decimalAvailable": true,
                                "name": "_value",
                                "type": "uint256",
                                "value": "16,581,317,272,777,144,942,562"
                            }
                        ],
                        "constructorArguments": "",
                        "name": "transferFrom",
                        "returnParams": [
                            {
                                "name": "success",
                                "type": "bool",
                                "value": true
                            }
                        ],
                        "signature": "transferFrom(address,address,uint256)"
                    },
                    "errorInfo": "",
                    "fromAddress": "0x0000008cf69d25162321fed9f6789f2a5cade6bc",
                    "gasUsed": 16630,
                    "id": 7,
                    "methodDecoded": true,
                    "operation": "CALL",
                    "output": "0x0000000000000000000000000000000000000000000000000000000000000001",
                    "revert": false,
                    "revertMessage": "",
                    "selector": "0x23b872dd",
                    "status": true,
                    "value": "0"
                },
                "nodeType": 0
            },
            "8": {
                "event": {
                    "contract": "0xb62132e35a6c13ee1ee0f84dc5d40bad8d815206",
                    "decodedLog": {
                        "name": "Transfer",
                        "params": [
                            {
                                "name": "from",
                                "type": "address",
                                "value": "0x0000006daea1723962647b7e189d311d757fb793"
                            },
                            {
                                "name": "to",
                                "type": "address",
                                "value": "0x4c54ff7f1c424ff5487a32aad0b48b19cbaf087f"
                            },
                            {
                                "decimalAvailable": true,
                                "name": "value",
                                "type": "uint256",
                                "value": "16,581,317,272,777,144,942,562"
                            }
                        ],
                        "signature": "Transfer(address,address,uint256)"
                    },
                    "id": 8,
                    "logData": "0x000000000000000000000000000000000000000000000382e000b001ba943fe2",
                    "logDecoded": true,
                    "operation": "EVENT",
                    "revert": false,
                    "status": true,
                    "topics": [
                        "0xddf252ad1be2c89b69c2b068fc378daa952ba7f163c4a11628f55a4df523b3ef",
                        "0x0000000000000000000000000000006daea1723962647b7e189d311d757fb793",
                        "0x0000000000000000000000004c54ff7f1c424ff5487a32aad0b48b19cbaf087f"
                    ]
                },
                "nodeType": 1
            },
            "9": {
                "invocation": {
                    "address": "0xb62132e35a6c13ee1ee0f84dc5d40bad8d815206",
                    "callData": "0x0000000000000000000000004c54ff7f1c424ff5487a32aad0b48b19cbaf087f",
                    "decodedMethod": {
                        "callParams": [
                            {
                                "name": "_owner",
                                "type": "address",
                                "value": "0x4c54ff7f1c424ff5487a32aad0b48b19cbaf087f"
                            }
                        ],
                        "constructorArguments": "",
                        "name": "balanceOf",
                        "returnParams": [
                            {
                                "decimalAvailable": true,
                                "name": "balance",
                                "type": "uint256",
                                "value": "1,546,211,530,817,466,307,582,519"
                            }
                        ],
                        "signature": "balanceOf(address)"
                    },
                    "errorInfo": "",
                    "fromAddress": "0x4c54ff7f1c424ff5487a32aad0b48b19cbaf087f",
                    "gasUsed": 1053,
                    "id": 9,
                    "methodDecoded": true,
                    "operation": "STATICCALL",
                    "output": "0x00000000000000000000000000000000000000000001476c4b87dab1c1821a37",
                    "revert": false,
                    "revertMessage": "",
                    "selector": "0x70a08231",
                    "status": true,
                    "value": "0"
                },
                "nodeType": 0
            }
        },
        "gasFlame": [
            {
                "children": [
                    {
                        "children": [
                            {
                                "children": [],
                                "depth": 0,
                                "name": "Initial Gas",
                                "value": 24792
                            },
                            {
                                "children": [
                                    {
                                        "children": [
                                            {
                                                "children": [
                                                    {
                                                        "children": [],
                                                        "depth": 3,
                                                        "name": "transfer",
                                                        "value": 12862
                                                    },
                                                    {
                                                        "children": [],
                                                        "depth": 3,
                                                        "name": "balanceOf",
                                                        "value": 3053
                                                    },
                                                    {
                                                        "children": [
                                                            {
                                                                "children": [],
                                                                "depth": 4,
                                                                "name": "transferFrom",
                                                                "value": 16630
                                                            }
                                                        ],
                                                        "depth": 3,
                                                        "name": "uniswapV3SwapCallback",
                                                        "value": 25793
                                                    },
                                                    {
                                                        "children": [],
                                                        "depth": 3,
                                                        "name": "balanceOf",
                                                        "value": 1053
                                                    }
                                                ],
                                                "depth": 2,
                                                "name": "swap",
                                                "value": 88200
                                            }
                                        ],
                                        "depth": 1,
                                        "name": "exactOutputSingle",
                                        "value": 100237
                                    }
                                ],
                                "depth": 0,
                                "name": "Executed Gas",
                                "value": 116096
                            }
                        ],
                        "depth": -1,
                        "name": "Actual Gas Used",
                        "value": 135288
                    },
                    {
                        "children": [],
                        "depth": -1,
                        "name": "Refunded Gas",
                        "value": 5600
                    }
                ],
                "depth": -2,
                "name": "Total Gas",
                "value": 140888
            }
        ],
        "isConfirmed": true,
        "mainTrace": [
            {
                "children": [
                    {
                        "children": [
                            {
                                "children": [
                                    {
                                        "children": [
                                            {
                                                "children": [
                                                    {
                                                        "children": [],
                                                        "depth": 4,
                                                        "id": 4,
                                                        "order": 4
                                                    }
                                                ],
                                                "depth": 3,
                                                "id": 3,
                                                "order": 3
                                            },
                                            {
                                                "children": [],
                                                "depth": 3,
                                                "id": 5,
                                                "order": 5
                                            },
                                            {
                                                "children": [
                                                    {
                                                        "children": [
                                                            {
                                                                "children": [],
                                                                "depth": 5,
                                                                "id": 8,
                                                                "order": 8
                                                            }
                                                        ],
                                                        "depth": 4,
                                                        "id": 7,
                                                        "order": 7
                                                    }
                                                ],
                                                "depth": 3,
                                                "id": 6,
                                                "order": 6
                                            },
                                            {
                                                "children": [],
                                                "depth": 3,
                                                "id": 9,
                                                "order": 9
                                            },
                                            {
                                                "children": [],
                                                "depth": 3,
                                                "id": 10,
                                                "order": 10
                                            }
                                        ],
                                        "depth": 2,
                                        "id": 2,
                                        "order": 2
                                    }
                                ],
                                "depth": 1,
                                "id": 1,
                                "order": 1
                            }
                        ],
                        "depth": 0,
                        "id": 0,
                        "order": 0
                    }
                ],
                "depth": -1,
                "id": -1,
                "order": -1
            }
        ],
        "mainTraceNodeCount": 11,
        "parentIdMap": {
            "0": -1,
            "1": 0,
            "10": 2,
            "2": 1,
            "3": 2,
            "4": 3,
            "5": 2,
            "6": 2,
            "7": 6,
            "8": 7,
            "9": 2
        },
        "tidyTrace": [
            {
                "children": [
                    {
                        "children": [
                            {
                                "children": [
                                    {
                                        "children": [
                                            {
                                                "children": [
                                                    {
                                                        "children": [],
                                                        "depth": 4,
                                                        "id": 4,
                                                        "order": 4
                                                    }
                                                ],
                                                "depth": 3,
                                                "id": 3,
                                                "order": 3
                                            },
                                            {
                                                "children": [
                                                    {
                                                        "children": [
                                                            {
                                                                "children": [],
                                                                "depth": 5,
                                                                "id": 8,
                                                                "order": 8
                                                            }
                                                        ],
                                                        "depth": 4,
                                                        "id": 7,
                                                        "order": 7
                                                    }
                                                ],
                                                "depth": 3,
                                                "id": 6,
                                                "order": 6
                                            },
                                            {
                                                "children": [],
                                                "depth": 3,
                                                "id": 10,
                                                "order": 10
                                            }
                                        ],
                                        "depth": 2,
                                        "id": 2,
                                        "order": 2
                                    }
                                ],
                                "depth": 1,
                                "id": 1,
                                "order": 1
                            }
                        ],
                        "depth": 0,
                        "id": 0,
                        "order": 0
                    }
                ],
                "depth": -1,
                "id": -1,
                "order": -1
            }
        ],
        "tidyTraceNodeCount": 9
    },
    "state_change": {
        "stateChanges": [
            {
                "address": "0x4c54ff7f1c424ff5487a32aad0b48b19cbaf087f",
                "erc": "",
                "slots": [
                    {
                        "current": "0x000000000000000000000000000000034543d46a7af5518d9f2de42751ed996a",
                        "key": "0x0000000000000000000000000000000000000000000000000000000000000001",
                        "prev": "0x0000000000000000000000000000000345336a41bd6feed54578bbef0bf73eb2"
                    },
                    {
                        "current": "0x000100004000400010fee633000000000000000006f27cfface1dad050352352",
                        "key": "0x0000000000000000000000000000000000000000000000000000000000000000",
                        "prev": "0x00010000400040000ffee660000000000000000006f683ca3718db29fdd56e7b"
                    },
                    {
                        "current": "0x0100000000000000000000cfe8289aca5f42d2fa67fffe782ec6675261f0bb35",
                        "key": "0x0000000000000000000000000000000000000000000000000000000000000018",
                        "prev": "0x0100000000000000000000cfe0a026d543eb84cb86fffe796bce015061ef9af0"
                    }
                ],
                "storageVariables": []
            },
            {
                "address": "0xb62132e35a6c13ee1ee0f84dc5d40bad8d815206",
                "erc": "ERC-20",
                "slots": [
                    {
                        "current": "0x00000000000000000000000000000000000000000001476c4b87dab1c1821a37",
                        "key": "0x305d300697a2dd406f1f9b913de732225f7d627baac297e4a0ceaca8cdbcdb2b",
                        "prev": "0x0000000000000000000000000000000000000000000143e96b872ab006edda55"
                    },
                    {
                        "current": "0xfffffffffffffffffffffffffffffffffffffffffff8405aea93d429ceb67d1a",
                        "key": "0x132b29d4b9d5a87a203bea33cfd0c119268dce23ba1d02a04be6449d629817d2",
                        "prev": "0xfffffffffffffffffffffffffffffffffffffffffff843ddca94842b894abcfc"
                    },
                    {
                        "current": "0x000000000000000000000000000000000000000000005209ced4edf4b02837a8",
                        "key": "0xd67badf8df5da60a5278d12d930fbfd4ee6947417ee8497dce65e064086c4cde",
                        "prev": "0x00000000000000000000000000000000000000000000558caed59df66abc778a"
                    }
                ],
                "storageVariables": [
                    {
                        "name": "allowed",
                        "type": "mapping(address => mapping(address => uint256))",
                        "value": {
                            "pairs": [
                                {
                                    "key": "0x0000006daea1723962647b7e189d311d757fb793",
                                    "value": {
                                        "pairs": [
                                            {
                                                "key": "0x0000008cf69d25162321fed9f6789f2a5cade6bc",
                                                "value": {
                                                    "current": "115792089237316195423570985008687907853269984665640554671959592048273363729690",
                                                    "prev": "115792089237316195423570985008687907853269984665640554688540909321050508672252",
                                                    "typeTag": 1
                                                }
                                            }
                                        ],
                                        "typeTag": 4
                                    }
                                }
                            ],
                            "typeTag": 4
                        }
                    },
                    {
                        "name": "balances",
                        "type": "mapping(address => uint256)",
                        "value": {
                            "pairs": [
                                {
                                    "key": "0x0000006daea1723962647b7e189d311d757fb793",
                                    "value": {
                                        "current": "387414976090676352530344",
                                        "prev": "403996293363453497472906",
                                        "typeTag": 1
                                    }
                                },
                                {
                                    "key": "0x4c54ff7f1c424ff5487a32aad0b48b19cbaf087f",
                                    "value": {
                                        "current": "1546211530817466307582519",
                                        "prev": "1529630213544689162639957",
                                        "typeTag": 1
                                    }
                                }
                            ],
                            "typeTag": 4
                        }
                    }
                ]
            },
            {
                "address": "0xc02aaa39b223fe8d0a0e5c4f27ead9083c756cc2",
                "erc": "ERC-20",
                "slots": [
                    {
                        "current": "0x00000000000000000000000000000000000000000000003bcb78048e3838e444",
                        "key": "0x4bfedfecee26188d9f5e542f75f728f5a1cc87a88aa9f0b612d218189139c96d",
                        "prev": "0x00000000000000000000000000000000000000000000003c74cef97b6ace0c44"
                    },
                    {
                        "current": "0x00000000000000000000000000000000000000000000013db5828e181251ae29",
                        "key": "0xec54f6f317d22d3ca625286705096c283a0789c369269c0118af570fcb3322ff",
                        "prev": "0x00000000000000000000000000000000000000000000013d0c2b992adfbc8629"
                    }
                ],
                "storageVariables": [
                    {
                        "name": "balanceOf",
                        "type": "mapping(address => uint256)",
                        "value": {
                            "pairs": [
                                {
                                    "key": "0x0000006daea1723962647b7e189d311d757fb793",
                                    "value": {
                                        "current": "5860697043867802906153",
                                        "prev": "5848494834327802906153",
                                        "typeTag": 1
                                    }
                                },
                                {
                                    "key": "0x4c54ff7f1c424ff5487a32aad0b48b19cbaf087f",
                                    "value": {
                                        "current": "1103019373944643314756",
                                        "prev": "1115221583484643314756",
                                        "typeTag": 1
                                    }
                                }
                            ],
                            "typeTag": 4
                        }
                    }
                ]
            }
        ]
    }
}