{
    "balance_change": {
        "balanceChanges": [
            {
                "account": "0x3b380ab629b662be92e0d232315c7ad8b2b039f8",
                "assets": [
                    {
                        "address": "0x68d57c9a1c35f63e2c83ee8e49a64e9d70528d25",
                        "amount": "1,011",
                        "iconUrl": "https://assets.blocksec.com/icon/677a6bf41033cc6a5fbbc2e80c49b7147d87b17efcf04e01199522b316136007.png",
                        "isERC1155": false,
                        "isERC721": false,
                        "sign": false,
                        "value": ""
                    }
                ]
            },
            {
                "account": "0xfa4b5be3f2f84f56703c42eb22142744e95a2c58",
                "assets": [
                    {
                        "address": "0x68d57c9a1c35f63e2c83ee8e49a64e9d70528d25",
                        "amount": "1,011",
                        "iconUrl": "https://assets.blocksec.com/icon/677a6bf41033cc6a5fbbc2e80c49b7147d87b17efcf04e01199522b316136007.png",
                        "isERC1155": false,
                        "isERC721": false,
                        "sign": true,
                        "value": ""
                    }
                ]
            }
        ]
    },
    "profile": {
        "basic_info": {
            "baseFee": "",
            "blockNumber": 5061098,
            "callData": "0xa9059cbb000000000000000000000000fa4b5be3f2f84f56703c42eb22142744e95a2c58000000000000000000000000000000000000000000000036ce71877e0fec0000",
            "debugEnable": true,
            "errorInfo": "",
            "eventCount": 1,
            "feeRecipient": "0x829bd824b016326a401d083b33d092293333a830",
            "formatValue": "0",
            "gasLimit": 90000,
            "gasPrice": "4.7",
            "gasUsed": 23103,
            "intTxnCount": 0,
            "internalRevert": false,
            "internalRevertMessage": "",
            "isContractCreation": false,
            "isFlashloan": false,
            "maxFee": "",
            "nonce": 29,
            "overwritedBlockNumber": -1,
            "priorityFee": "",
            "receiver": "0x68d57c9a1c35f63e2c83ee8e49a64e9d70528d25",
            "revertMessage": "",
            "sender": "0x3b380ab629b662be92e0d232315c7ad8b2b039f8",
            "simulationEnable": true,
            "sourceTxnHash": "0xf843e1da7e6b51b8798b29a4c2b991247f3149d4296921ccfccf82ccc367889a",
            "status": true,
            "timestamp": "2018-02-09T21:05:17Z",
            "transactionFee": "0.0001085841",
            "txnHash": "0xf843e1da7e6b51b8798b29a4c2b991247f3149d4296921ccfccf82ccc367889a",
            "txnIndex": 218,
            "type": 0,
            "value": "0"
        },
        "fund_flow": [
            {
                "amount": "1,011",
                "from": "0x3b380ab629b662be92e0d232315c7ad8b2b039f8",
                "id": 1,
                "isERC1155": false,
                "isERC721": false,
                "isReverted": false,
                "order": 1,
                "to": "0xfa4b5be3f2f84f56703c42eb22142744e95a2c58",
                "token": "0x68d57c9a1c35f63e2c83ee8e49a64e9d70528d25"
            }
        ],
        "token_infos": [
            {
                "address": "0x68d57c9a1c35f63e2c83ee8e49a64e9d70528d25",
                "decimals": 18
            },
            {
                "address": "0xc02aaa39b223fe8d0a0e5c4f27ead9083c756cc2",
                "decimals": 18
            },
            {
                "address": "0xeeeeeeeeeeeeeeeeeeeeeeeeeeeeeeeeeeeeeeee",
                "decimals": 18
            }
        ]
    },
    "address_label": {
        "labels": [
            {
                "address": "0x0000000000000000000000000000000000000004",
                "label": "Precompiled"
            },
            {
                "address": "0xeeeeeeeeeeeeeeeeeeeeeeeeeeeeeeeeeeeeeeee",
                "label": "Ether"
            },
            {
                "address": "0x3b380ab629b662be92e0d232315c7ad8b2b039f8",
                "label": "HUOBI"
            },
            {
                "address": "0x68d57c9a1c35f63e2c83ee8e49a64e9d70528d25",
                "label": "Sirin Labs Token"
            },
            {
                "address": "0xfa4b5be3f2f84f56703c42eb22142744e95a2c58",
                "label": "HTX 11"
            },
            {
                "address": "0x0000000000000000000000000000000000000001",
                "label": "Precompiled"
            },
            {
                "address": "0x0000000000000000000000000000000000000002",
                "label": "Precompiled"
            },
            {
                "address": "0x0000000000000000000000000000000000000003",
                "label": "Precompiled"
            }
        ]
    },
    "trace": {
        "accountLabels": null,
        "dataMap": {
            "-1": {
                "invocation": {
                    "address": "0x3b380ab629b662be92e0d232315c7ad8b2b039f8",
                    "callData": "",
                    "decodedMethod": null,
                    "errorInfo": "",
                    "fromAddress": "",
                    "gasUsed": 0,
                    "id": -1,
                    "methodDecoded": false,
                    "operation": "",
                    "output": "",
                    "revert": false,
                    "revertMessage": "",
                    "selector": "",
                    "status": false,
                    "value": ""
                },
                "nodeType": 0
            },
            "0": {
                "invocation": {
                    "address": "0x68d57c9a1c35f63e2c83ee8e49a64e9d70528d25",
                    "callData": "0x000000000000000000000000fa4b5be3f2f84f56703c42eb22142744e95a2c58000000000000000000000000000000000000000000000036ce71877e0fec0000",
                    "decodedMethod": {
                        "callParams": [
                            {
                                "name": "_to",
                                "type": "address",
                                "value": "0xfa4b5be3f2f84f56703c42eb22142744e95a2c58"
                            },
                            {
                                "decimalAvailable": true,
                                "name": "_value",
                                "type": "uint256",
                                "value": "1,011,000,000,000,000,000,000"
                            }
                        ],
                        "constructorArguments": "",
                        "name": "transfer",
                        "returnParams": [
                            {
                                "name": "",
                                "type": "bool",
                                "value": true
                            }
                        ],
                        "signature": "transfer(address,uint256)"
                    },
                    "errorInfo": "",
                    "fromAddress": "0x3b380ab629b662be92e0d232315c7ad8b2b039f8",
                    "gasUsed": 23103,
                    "id": 0,
                    "methodDecoded": true,
                    "operation": "CALL",
                    "output": "0x0000000000000000000000000000000000000000000000000000000000000001",
                    "revert": false,
                    "revertMessage": "",
                    "selector": "0xa9059cbb",
                    "status": true,
                    "value": "0"
                },
                "nodeType": 0
            },
            "1": {
                "event": {
                    "contract": "0x68d57c9a1c35f63e2c83ee8e49a64e9d70528d25",
                    "decodedLog": {
                        "name": "Transfer",
                        "params": [
                            {
                                "name": "from",
                                "type": "address",
                                "value": "0x3b380ab629b662be92e0d232315c7ad8b2b039f8"
                            },
                            {
                                "name": "to",
                                "type": "address",
                                "value": "0xfa4b5be3f2f84f56703c42eb22142744e95a2c58"
                            },
                            {
                                "decimalAvailable": true,
                                "name": "value",
                                "type": "uint256",
                                "value": "1,011,000,000,000,000,000,000"
                            }
                        ],
                        "signature": "Transfer(address,address,uint256)"
                    },
                    "id": 1,
                    "logData": "0x000000000000000000000000000000000000000000000036ce71877e0fec0000",
                    "logDecoded": true,
                    "operation": "EVENT",
                    "revert": false,
                    "status": true,
                    "topics": [
                        "0xddf252ad1be2c89b69c2b068fc378daa952ba7f163c4a11628f55a4df523b3ef",
                        "0x0000000000000000000000003b380ab629b662be92e0d232315c7ad8b2b039f8",
                        "0x000000000000000000000000fa4b5be3f2f84f56703c42eb22142744e95a2c58"
                    ]
                },
                "nodeType": 1
            }
        },
        "gasFlame": [
            {
                "children": [
                    {
                        "children": [
                            {
                                "children": [],
                                "depth": 0,
                                "name": "Initial Gas",
                                "value": 23256
                            },
                            {
                                "children": [],
                                "depth": 0,
                                "name": "Executed Gas",
                                "value": 14847
                            }
                        ],
                        "depth": -1,
                        "name": "Actual Gas Used",
                        "value": 23103
                    },
                    {
                        "children": [],
                        "depth": -1,
                        "name": "Refunded Gas",
                        "value": 15000
                    }
                ],
                "depth": -2,
                "name": "Total Gas",
                "value": 38103
            }
        ],
        "isConfirmed": true,
        "mainTrace": [
            {
                "children": [
                    {
                        "children": [
                            {
                                "children": [],
                                "depth": 1,
                                "id": 1,
                                "order": 1
                            }
                        ],
                        "depth": 0,
                        "id": 0,
                        "order": 0
                    }
                ],
                "depth": -1,
                "id": -1,
                "order": -1
            }
        ],
        "mainTraceNodeCount": 2,
        "parentIdMap": {
            "0": -1,
            "1": 0
        },
        "tidyTrace": [
            {
                "children": [
                    {
                        "children": [
                            {
                                "children": [],
                                "depth": 1,
                                "id": 1,
                                "order": 1
                            }
                        ],
                        "depth": 0,
                        "id": 0,
                        "order": 0
                    }
                ],
                "depth": -1,
                "id": -1,
                "order": -1
            }
        ],
        "tidyTraceNodeCount": 2
    },
    "state_change": {
        "stateChanges": [
            {
                "address": "0x68d57c9a1c35f63e2c83ee8e49a64e9d70528d25",
                "erc": "ERC-20",
                "slots": [
                    {
                        "current": "0x0000000000000000000000000000000000000000000000000000000000000000",
                        "key": "0xb328b93442c2304197905acba4e9959070401f21e3cfc02564ce1fe18ff841f0",
                        "prev": "0x000000000000000000000000000000000000000000000036ce71877e0fec0000"
                    },
                    {
                        "current": "0x000000000000000000000000000000000000000000004a02aef0fbe2df272400",
                        "key": "0x6244baa0e1383d3743ebaa05a023d1426a36da8d9eac776c3734e321fc2d5c3e",
                        "prev": "0x0000000000000000000000000000000000000000000049cbe07f7464cf3b2400"
                    }
                ],
                "storageVariables": [
                    {
                        "name": "balances",
                        "type": "mapping(address => uint256)",
                        "value": {
                            "pairs": [
                                {
                                    "key": "0x3b380ab629b662be92e0d232315c7ad8b2b039f8",
                                    "value": {
                                        "current": "0",
                                        "prev": "1011000000000000000000",
                                        "typeTag": 1
                                    }
                                },
                                {
                                    "key": "0xfa4b5be3f2f84f56703c42eb22142744e95a2c58",
                                    "value": {
                                        "current": "349504619072810000000000",
                                        "prev": "348493619072810000000000",
                                        "typeTag": 1
                                    }
                                }
                            ],
                            "typeTag": 4
                        }
                    }
                ]
            }
        ]
    }
}