{
    "balance_change": {
        "balanceChanges": [
            {
                "account": "0x4781bc9a1c4b2075bc512c02915c99816e4e6d6d",
                "assets": [
                    {
                        "address": "0xa2cd3d43c775978a96bdbf12d733d5a1ed94fb18",
                        "amount": "2,013,439.419277",
                        "iconUrl": "https://assets.blocksec.com/icon/38e6e2b45d8563e0ee449460c667d6b99435cce3480cac97cd4a62378b39153a.png",
                        "isERC1155": false,
                        "isERC721": false,
                        "sign": false,
                        "value": "13288.7001653999999276"
                    }
                ]
            },
            {
                "account": "0x8c54ebdd960056d2cff5998df5695daca1fc0190",
                "assets": [
                    {
                        "address": "0xa2cd3d43c775978a96bdbf12d733d5a1ed94fb18",
                        "amount": "2,013,439.419277",
                        "iconUrl": "https://assets.blocksec.com/icon/38e6e2b45d8563e0ee449460c667d6b99435cce3480cac97cd4a62378b39153a.png",
                        "isERC1155": false,
                        "isERC721": false,
                        "sign": true,
                        "value": "13288.7001653999999276"
                    }
                ]
            }
        ]
    },
    "profile": {
        "basic_info": {
            "baseFee": "18.108766709",
            "blockNumber": 16823942,
            "callData": "0xa9059cbb0000000000000000000000008c54ebdd960056d2cff5998df5695daca1fc019000000000000000000000000000000000000000000001aa5cc5064d316419d000",
            "debugEnable": true,
            "errorInfo": "",
            "eventCount": 1,
            "feeRecipient": "0x388c818ca8b9251b393131c08a736a67ccb19297",
            "formatValue": "0",
            "gasLimit": 80000,
            "gasPrice": "20.108766709",
            "gasUsed": 34138,
            "intTxnCount": 0,
            "internalRevert": false,
            "internalRevertMessage": "",
            "isContractCreation": false,
            "isFlashloan": false,
            "maxFee": "34.46294166",
            "nonce": 60,
            "overwritedBlockNumber": -1,
            "priorityFee": "2",
            "receiver": "0xa2cd3d43c775978a96bdbf12d733d5a1ed94fb18",
            "revertMessage": "",
            "sender": "0x4781bc9a1c4b2075bc512c02915c99816e4e6d6d",
            "simulationEnable": true,
            "sourceTxnHash": "0xf8c709dd3edd756f48df16fae0b6298353e69ca2bc11b5547ebbb82fe93351cb",
            "status": true,
            "timestamp": "2023-03-14T04:54:23Z",
            "transactionFee": "0.000686473077911842",
            "txnHash": "0xf8c709dd3edd756f48df16fae0b6298353e69ca2bc11b5547ebbb82fe93351cb",
            "txnIndex": 24,
            "type": 2,
            "value": "0"
        },
        "fund_flow": [
            {
                "amount": "2,013,439.419277",
                "from": "0x4781bc9a1c4b2075bc512c02915c99816e4e6d6d",
                "id": 1,
                "isERC1155": false,
                "isERC721": false,
                "isReverted": false,
                "order": 1,
                "to": "0x8c54ebdd960056d2cff5998df5695daca1fc0190",
                "token": "0xa2cd3d43c775978a96bdbf12d733d5a1ed94fb18"
            }
        ],
        "token_infos": [
            {
                "address": "0xa2cd3d43c775978a96bdbf12d733d5a1ed94fb18",
                "decimals": 18
            },
            {
                "address": "0xc02aaa39b223fe8d0a0e5c4f27ead9083c756cc2",
                "decimals": 18
            },
            {
                "address": "0xeeeeeeeeeeeeeeeeeeeeeeeeeeeeeeeeeeeeeeee",
                "decimals": 18
            }
        ]
    },
    "address_label": {
        "labels": [
            {
                "address": "0x0000000000000000000000000000000000000003",
                "label": "Precompiled"
            },
            {
                "address": "0x0000000000000000000000000000000000000004",
                "label": "Precompiled"
            },
            {
                "address": "0xeeeeeeeeeeeeeeeeeeeeeeeeeeeeeeeeeeeeeeee",
                "label": "Ether"
            },
            {
                "address": "0x8c54ebdd960056d2cff5998df5695daca1fc0190",
                "label": "BtcTurk 7"
            },
            {
                "address": "0xa2cd3d43c775978a96bdbf12d733d5a1ed94fb18",
                "label": "Onyx Protocol: XCN Token"
            },
            {
                "address": "0x388c818ca8b9251b393131c08a736a67ccb19297",
                "label": "LidoExecutionLayerRewardsVault"
            },
            {
                "address": "0x0000000000000000000000000000000000000001",
                "label": "Precompiled"
            },
            {
                "address": "0x0000000000000000000000000000000000000002",
                "label": "Precompiled"
            }
        ]
    },
    "trace": {
        "accountLabels": null,
        "dataMap": {
            "-1": {
                "invocation": {
                    "address": "0x4781bc9a1c4b2075bc512c02915c99816e4e6d6d",
                    "callData": "",
                    "decodedMethod": null,
                    "errorInfo": "",
                    "fromAddress": "",
                    "gasUsed": 0,
                    "id": -1,
                    "methodDecoded": false,
                    "operation": "",
                    "output": "",
                    "revert": false,
                    "revertMessage": "",
                    "selector": "",
                    "status": false,
                    "value": ""
                },
                "nodeType": 0
            },
            "0": {
                "invocation": {
                    "address": "0xa2cd3d43c775978a96bdbf12d733d5a1ed94fb18",
                    "callData": "0x0000000000000000000000008c54ebdd960056d2cff5998df5695daca1fc019000000000000000000000000000000000000000000001aa5cc5064d316419d000",
                    "decodedMethod": {
                        "callParams": [
                            {
                                "name": "to",
                                "type": "address",
                                "value": "0x8c54ebdd960056d2cff5998df5695daca1fc0190"
                            },
                            {
                                "decimalAvailable": true,
                                "name": "value",
                                "type": "uint256",
                                "value": "2,013,439,419,277,000,000,000,000"
                            }
                        ],
                        "constructorArguments": "",
                        "name": "transfer",
                        "returnParams": [
                            {
                                "name": "",
                                "type": "bool",
                                "value": true
                            }
                        ],
                        "signature": "transfer(address,uint256)"
                    },
                    "errorInfo": "",
                    "fromAddress": "0x4781bc9a1c4b2075bc512c02915c99816e4e6d6d",
                    "gasUsed": 34138,
                    "id": 0,
                    "methodDecoded": true,
                    "operation": "CALL",
                    "output": "0x0000000000000000000000000000000000000000000000000000000000000001",
                    "revert": false,
                    "revertMessage": "",
                    "selector": "0xa9059cbb",
                    "status": true,
                    "value": "0"
                },
                "nodeType": 0
            },
            "1": {
                "event": {
                    "contract": "0xa2cd3d43c775978a96bdbf12d733d5a1ed94fb18",
                    "decodedLog": {
                        "name": "Transfer",
                        "params": [
                            {
                                "name": "from",
                                "type": "address",
                                "value": "0x4781bc9a1c4b2075bc512c02915c99816e4e6d6d"
                            },
                            {
                                "name": "to",
                                "type": "address",
                                "value": "0x8c54ebdd960056d2cff5998df5695daca1fc0190"
                            },
                            {
                                "decimalAvailable": true,
                                "name": "value",
                                "type": "uint256",
                                "value": "2,013,439,419,277,000,000,000,000"
                            }
                        ],
                        "signature": "Transfer(address,address,uint256)"
                    },
                    "id": 1,
                    "logData": "0x00000000000000000000000000000000000000000001aa5cc5064d316419d000",
                    "logDecoded": true,
                    "operation": "EVENT",
                    "revert": false,
                    "status": true,
                    "topics": [
                        "0xddf252ad1be2c89b69c2b068fc378daa952ba7f163c4a11628f55a4df523b3ef",
                        "0x0000000000000000000000004781bc9a1c4b2075bc512c02915c99816e4e6d6d",
                        "0x0000000000000000000000008c54ebdd960056d2cff5998df5695daca1fc0190"
                    ]
                },
                "nodeType": 1
            }
        },
        "gasFlame": [
            {
                "children": [
                    {
                        "children": [
                            {
                                "children": [],
                                "depth": 0,
                                "name": "Initial Gas",
                                "value": 21668
                            },
                            {
                                "children": [],
                                "depth": 0,
                                "name": "Executed Gas",
                                "value": 17270
                            }
                        ],
                        "depth": -1,
                        "name": "Actual Gas Used",
                        "value": 34138
                    },
                    {
                        "children": [],
                        "depth": -1,
                        "name": "Refunded Gas",
                        "value": 4800
                    }
                ],
                "depth": -2,
                "name": "Total Gas",
                "value": 38938
            }
        ],
        "isConfirmed": true,
        "mainTrace": [
            {
                "children": [
                    {
                        "children": [
                            {
                                "children": [],
                                "depth": 1,
                                "id": 1,
                                "order": 1
                            }
                        ],
                        "depth": 0,
                        "id": 0,
                        "order": 0
                    }
                ],
                "depth": -1,
                "id": -1,
                "order": -1
            }
        ],
        "mainTraceNodeCount": 2,
        "parentIdMap": {
            "0": -1,
            "1": 0
        },
        "tidyTrace": [
            {
                "children": [
                    {
                        "children": [
                            {
                                "children": [],
                                "depth": 1,
                                "id": 1,
                                "order": 1
                            }
                        ],
                        "depth": 0,
                        "id": 0,
                        "order": 0
                    }
                ],
                "depth": -1,
                "id": -1,
                "order": -1
            }
        ],
        "tidyTraceNodeCount": 2
    },
    "state_change": {
        "stateChanges": [
            {
                "address": "0xa2cd3d43c775978a96bdbf12d733d5a1ed94fb18",
                "erc": "ERC-20",
                "slots": [
                    {
                        "current": "0x0000000000000000000000000000000000000000000000000000000000000000",
                        "key": "0xfaeae3a3dbfcd70cc4f4b1e7ac0631b16223215d487ce5f744b7685c324731a5",
                        "prev": "0x00000000000000000000000000000000000000000001aa5cc5064d316419d000"
                    },
                    {
                        "current": "0x00000000000000000000000000000000000000000185324052434905b3863942",
                        "key": "0x41ab06cb95126f499f1707d9fa2084c10ce729ffbacea1c4102c38b6ce766de7",
                        "prev": "0x0000000000000000000000000000000000000000018387e38d3cfbd44f6c6942"
                    }
                ],
                "storageVariables": [
                    {
                        "name": "_balances",
                        "type": "mapping(address => uint256)",
                        "value": {
                            "pairs": [
                                {
                                    "key": "0x4781bc9a1c4b2075bc512c02915c99816e4e6d6d",
                                    "value": {
                                        "current": "0",
                                        "prev": "2013439419277000000000000",
                                        "typeTag": 1
                                    }
                                },
                                {
                                    "key": "0x8c54ebdd960056d2cff5998df5695daca1fc0190",
                                    "value": {
                                        "current": "470509448673516772017977666",
                                        "prev": "468496009254239772017977666",
                                        "typeTag": 1
                                    }
                                }
                            ],
                            "typeTag": 4
                        }
                    }
                ]
            }
        ]
    }
}