{
    "balance_change": {
        "balanceChanges": [
            {
                "account": "0x80d989478f7f89f01af8e331b6b93e838d78ac87",
                "assets": [
                    {
                        "address": "0xeeeeeeeeeeeeeeeeeeeeeeeeeeeeeeeeeeeeeeee",
                        "amount": "0.05",
                        "iconUrl": "https://assets.blocksec.com/image/1663669189317-3.png",
                        "isERC1155": false,
                        "isERC721": false,
                        "sign": false,
                        "value": "11.953402199999999311"
                    }
                ]
            },
            {
                "account": "0x3d1a59535620311c9239514618842fc197256afa",
                "assets": [
                    {
                        "address": "0xeeeeeeeeeeeeeeeeeeeeeeeeeeeeeeeeeeeeeeee",
                        "amount": "0.025",
                        "iconUrl": "https://assets.blocksec.com/image/1663669189317-3.png",
                        "isERC1155": false,
                        "isERC721": false,
                        "sign": true,
                        "value": "5.9767010999999996557"
                    }
                ]
            },
            {
                "account": "0xd52b9a2957fdb0814b35c7fa806b821f6cd2b0af",
                "assets": [
                    {
                        "address": "0xeeeeeeeeeeeeeeeeeeeeeeeeeeeeeeeeeeeeeeee",
                        "amount": "0.025",
                        "iconUrl": "https://assets.blocksec.com/image/1663669189317-3.png",
                        "isERC1155": false,
                        "isERC721": false,
                        "sign": true,
                        "value": "5.9767010999999996557"
                    }
                ]
            }
        ]
    },
    "profile": {
        "basic_info": {
            "baseFee": "",
            "blockNumber": 10279141,
            "callData": "0x797eee240000000000000000000000003d1a59535620311c9239514618842fc197256afa",
            "debugEnable": true,
            "errorInfo": "",
            "eventCount": 6,
            "feeRecipient": "0x5a0b54d5dc17e0aadc383d2db43b0a0d3e029c4c",
            "formatValue": "0.05",
            "gasLimit": 640036,
            "gasPrice": "26",
            "gasUsed": 428136,
            "intTxnCount": 2,
            "internalRevert": false,
            "internalRevertMessage": "",
            "isContractCreation": false,
            "isFlashloan": false,
            "maxFee": "",
            "nonce": 0,
            "overwritedBlockNumber": -1,
            "priorityFee": "",
            "receiver": "0x5acc84a3e955bdd76467d3348077d003f00ffb97",
            "revertMessage": "",
            "sender": "0x80d989478f7f89f01af8e331b6b93e838d78ac87",
            "simulationEnable": true,
            "sourceTxnHash": "0xf806a2b783adc93db94731a6619212b5e37bb490e282c09fd18316b2f8a74112",
            "status": true,
            "timestamp": "2020-06-16T21:06:12Z",
            "transactionFee": "0.011131536",
            "txnHash": "0xf806a2b783adc93db94731a6619212b5e37bb490e282c09fd18316b2f8a74112",
            "txnIndex": 108,
            "type": 0,
            "value": "50000000000000000"
        },
        "fund_flow": [
            {
                "amount": "0.05",
                "from": "0x80d989478f7f89f01af8e331b6b93e838d78ac87",
                "id": 1,
                "isERC1155": false,
                "isERC721": false,
                "isReverted": false,
                "order": 1,
                "to": "0x5acc84a3e955bdd76467d3348077d003f00ffb97",
                "token": "0xeeeeeeeeeeeeeeeeeeeeeeeeeeeeeeeeeeeeeeee"
            },
            {
                "amount": "0.025",
                "from": "0x5acc84a3e955bdd76467d3348077d003f00ffb97",
                "id": 2,
                "isERC1155": false,
                "isERC721": false,
                "isReverted": false,
                "order": 2,
                "to": "0xd52b9a2957fdb0814b35c7fa806b821f6cd2b0af",
                "token": "0xeeeeeeeeeeeeeeeeeeeeeeeeeeeeeeeeeeeeeeee"
            },
            {
                "amount": "0.025",
                "from": "0x5acc84a3e955bdd76467d3348077d003f00ffb97",
                "id": 3,
                "isERC1155": false,
                "isERC721": false,
                "isReverted": false,
                "order": 3,
                "to": "0x3d1a59535620311c9239514618842fc197256afa",
                "token": "0xeeeeeeeeeeeeeeeeeeeeeeeeeeeeeeeeeeeeeeee"
            }
        ],
        "token_infos": [
            {
                "address": "0xc02aaa39b223fe8d0a0e5c4f27ead9083c756cc2",
                "decimals": 18
            },
            {
                "address": "0xeeeeeeeeeeeeeeeeeeeeeeeeeeeeeeeeeeeeeeee",
                "decimals": 18
            }
        ]
    },
    "address_label": {
        "labels": [
            {
                "address": "0x0000000000000000000000000000000000000001",
                "label": "Precompiled"
            },
            {
                "address": "0x0000000000000000000000000000000000000002",
                "label": "Precompiled"
            },
            {
                "address": "0x0000000000000000000000000000000000000003",
                "label": "Precompiled"
            },
            {
                "address": "0x0000000000000000000000000000000000000004",
                "label": "Precompiled"
            },
            {
                "address": "0xeeeeeeeeeeeeeeeeeeeeeeeeeeeeeeeeeeeeeeee",
                "label": "Ether"
            },
            {
                "address": "0x5acc84a3e955bdd76467d3348077d003f00ffb97",
                "label": "Forsage.io"
            }
        ]
    },
    "trace": {
        "accountLabels": null,
        "dataMap": {
            "-1": {
                "invocation": {
                    "address": "0x80d989478f7f89f01af8e331b6b93e838d78ac87",
                    "callData": "",
                    "decodedMethod": null,
                    "errorInfo": "",
                    "fromAddress": "",
                    "gasUsed": 0,
                    "id": -1,
                    "methodDecoded": false,
                    "operation": "",
                    "output": "",
                    "revert": false,
                    "revertMessage": "",
                    "selector": "",
                    "status": false,
                    "value": ""
                },
                "nodeType": 0
            },
            "0": {
                "invocation": {
                    "address": "0x5acc84a3e955bdd76467d3348077d003f00ffb97",
                    "callData": "0x0000000000000000000000003d1a59535620311c9239514618842fc197256afa",
                    "decodedMethod": {
                        "callParams": [
                            {
                                "name": "referrerAddress",
                                "type": "address",
                                "value": "0x3d1a59535620311c9239514618842fc197256afa"
                            }
                        ],
                        "constructorArguments": "",
                        "name": "registrationExt",
                        "returnParams": [],
                        "signature": "registrationExt(address)"
                    },
                    "errorInfo": "",
                    "fromAddress": "0x80d989478f7f89f01af8e331b6b93e838d78ac87",
                    "gasUsed": 428136,
                    "id": 0,
                    "methodDecoded": true,
                    "operation": "CALL",
                    "output": "",
                    "revert": false,
                    "revertMessage": "",
                    "selector": "0x797eee24",
                    "status": true,
                    "value": "0.05"
                },
                "nodeType": 0
            },
            "1": {
                "event": {
                    "contract": "0x5acc84a3e955bdd76467d3348077d003f00ffb97",
                    "decodedLog": {
                        "name": "NewUserPlace",
                        "params": [
                            {
                                "name": "user",
                                "type": "address",
                                "value": "0x80d989478f7f89f01af8e331b6b93e838d78ac87"
                            },
                            {
                                "name": "referrer",
                                "type": "address",
                                "value": "0x3d1a59535620311c9239514618842fc197256afa"
                            },
                            {
                                "name": "matrix",
                                "type": "uint8",
                                "value": "1"
                            },
                            {
                                "name": "level",
                                "type": "uint8",
                                "value": "1"
                            },
                            {
                                "name": "place",
                                "type": "uint8",
                                "value": "3"
                            }
                        ],
                        "signature": "NewUserPlace(address,address,uint8,uint8,uint8)"
                    },
                    "id": 1,
                    "logData": "0x000000000000000000000000000000000000000000000000000000000000000100000000000000000000000000000000000000000000000000000000000000010000000000000000000000000000000000000000000000000000000000000003",
                    "logDecoded": true,
                    "operation": "EVENT",
                    "revert": false,
                    "status": true,
                    "topics": [
                        "0x68062c5925c4317adf3a7095478d28b33fd8b41458bc7620b61bc46bf1b24d82",
                        "0x00000000000000000000000080d989478f7f89f01af8e331b6b93e838d78ac87",
                        "0x0000000000000000000000003d1a59535620311c9239514618842fc197256afa"
                    ]
                },
                "nodeType": 1
            },
            "2": {
                "event": {
                    "contract": "0x5acc84a3e955bdd76467d3348077d003f00ffb97",
                    "decodedLog": {
                        "name": "Reinvest",
                        "params": [
                            {
                                "name": "user",
                                "type": "address",
                                "value": "0x3d1a59535620311c9239514618842fc197256afa"
                            },
                            {
                                "name": "currentReferrer",
                                "type": "address",
                                "value": "0xd52b9a2957fdb0814b35c7fa806b821f6cd2b0af"
                            },
                            {
                                "name": "caller",
                                "type": "address",
                                "value": "0x80d989478f7f89f01af8e331b6b93e838d78ac87"
                            },
                            {
                                "name": "matrix",
                                "type": "uint8",
                                "value": "1"
                            },
                            {
                                "name": "level",
                                "type": "uint8",
                                "value": "1"
                            }
                        ],
                        "signature": "Reinvest(address,address,address,uint8,uint8)"
                    },
                    "id": 2,
                    "logData": "0x00000000000000000000000000000000000000000000000000000000000000010000000000000000000000000000000000000000000000000000000000000001",
                    "logDecoded": true,
                    "operation": "EVENT",
                    "revert": false,
                    "status": true,
                    "topics": [
                        "0xa00c953eff38ec1b71e7fe060b2ab8df0bbe5354319fbdde4fbdafd6324386a6",
                        "0x0000000000000000000000003d1a59535620311c9239514618842fc197256afa",
                        "0x000000000000000000000000d52b9a2957fdb0814b35c7fa806b821f6cd2b0af",
                        "0x00000000000000000000000080d989478f7f89f01af8e331b6b93e838d78ac87"
                    ]
                },
                "nodeType": 1
            },
            "3": {
                "event": {
                    "contract": "0x5acc84a3e955bdd76467d3348077d003f00ffb97",
                    "decodedLog": {
                        "name": "NewUserPlace",
                        "params": [
                            {
                                "name": "user",
                                "type": "address",
                                "value": "0x3d1a59535620311c9239514618842fc197256afa"
                            },
                            {
                                "name": "referrer",
                                "type": "address",
                                "value": "0xd52b9a2957fdb0814b35c7fa806b821f6cd2b0af"
                            },
                            {
                                "name": "matrix",
                                "type": "uint8",
                                "value": "1"
                            },
                            {
                                "name": "level",
                                "type": "uint8",
                                "value": "1"
                            },
                            {
                                "name": "place",
                                "type": "uint8",
                                "value": "1"
                            }
                        ],
                        "signature": "NewUserPlace(address,address,uint8,uint8,uint8)"
                    },
                    "id": 3,
                    "logData": "0x000000000000000000000000000000000000000000000000000000000000000100000000000000000000000000000000000000000000000000000000000000010000000000000000000000000000000000000000000000000000000000000001",
                    "logDecoded": true,
                    "operation": "EVENT",
                    "revert": false,
                    "status": true,
                    "topics": [
                        "0x68062c5925c4317adf3a7095478d28b33fd8b41458bc7620b61bc46bf1b24d82",
                        "0x0000000000000000000000003d1a59535620311c9239514618842fc197256afa",
                        "0x000000000000000000000000d52b9a2957fdb0814b35c7fa806b821f6cd2b0af"
                    ]
                },
                "nodeType": 1
            },
            "4": {
                "invocation": {
                    "address": "0xd52b9a2957fdb0814b35c7fa806b821f6cd2b0af",
                    "callData": "0x",
                    "decodedMethod": null,
                    "errorInfo": "",
                    "fromAddress": "0x5acc84a3e955bdd76467d3348077d003f00ffb97",
                    "gasUsed": 0,
                    "id": 4,
                    "methodDecoded": false,
                    "operation": "CALL",
                    "output": "",
                    "revert": false,
                    "revertMessage": "",
                    "selector": "fallback",
                    "status": true,
                    "value": "0.025"
                },
                "nodeType": 0
            },
            "5": {
                "event": {
                    "contract": "0x5acc84a3e955bdd76467d3348077d003f00ffb97",
                    "decodedLog": {
                        "name": "NewUserPlace",
                        "params": [
                            {
                                "name": "user",
                                "type": "address",
                                "value": "0x80d989478f7f89f01af8e331b6b93e838d78ac87"
                            },
                            {
                                "name": "referrer",
                                "type": "address",
                                "value": "0x3ddde38cb5feab3fd41f8581606d9e76947cb844"
                            },
                            {
                                "name": "matrix",
                                "type": "uint8",
                                "value": "2"
                            },
                            {
                                "name": "level",
                                "type": "uint8",
                                "value": "1"
                            },
                            {
                                "name": "place",
                                "type": "uint8",
                                "value": "1"
                            }
                        ],
                        "signature": "NewUserPlace(address,address,uint8,uint8,uint8)"
                    },
                    "id": 5,
                    "logData": "0x000000000000000000000000000000000000000000000000000000000000000200000000000000000000000000000000000000000000000000000000000000010000000000000000000000000000000000000000000000000000000000000001",
                    "logDecoded": true,
                    "operation": "EVENT",
                    "revert": false,
                    "status": true,
                    "topics": [
                        "0x68062c5925c4317adf3a7095478d28b33fd8b41458bc7620b61bc46bf1b24d82",
                        "0x00000000000000000000000080d989478f7f89f01af8e331b6b93e838d78ac87",
                        "0x0000000000000000000000003ddde38cb5feab3fd41f8581606d9e76947cb844"
                    ]
                },
                "nodeType": 1
            },
            "6": {
                "event": {
                    "contract": "0x5acc84a3e955bdd76467d3348077d003f00ffb97",
                    "decodedLog": {
                        "name": "NewUserPlace",
                        "params": [
                            {
                                "name": "user",
                                "type": "address",
                                "value": "0x80d989478f7f89f01af8e331b6b93e838d78ac87"
                            },
                            {
                                "name": "referrer",
                                "type": "address",
                                "value": "0x3d1a59535620311c9239514618842fc197256afa"
                            },
                            {
                                "name": "matrix",
                                "type": "uint8",
                                "value": "2"
                            },
                            {
                                "name": "level",
                                "type": "uint8",
                                "value": "1"
                            },
                            {
                                "name": "place",
                                "type": "uint8",
                                "value": "3"
                            }
                        ],
                        "signature": "NewUserPlace(address,address,uint8,uint8,uint8)"
                    },
                    "id": 6,
                    "logData": "0x000000000000000000000000000000000000000000000000000000000000000200000000000000000000000000000000000000000000000000000000000000010000000000000000000000000000000000000000000000000000000000000003",
                    "logDecoded": true,
                    "operation": "EVENT",
                    "revert": false,
                    "status": true,
                    "topics": [
                        "0x68062c5925c4317adf3a7095478d28b33fd8b41458bc7620b61bc46bf1b24d82",
                        "0x00000000000000000000000080d989478f7f89f01af8e331b6b93e838d78ac87",
                        "0x0000000000000000000000003d1a59535620311c9239514618842fc197256afa"
                    ]
                },
                "nodeType": 1
            },
            "7": {
                "invocation": {
                    "address": "0x3d1a59535620311c9239514618842fc197256afa",
                    "callData": "0x",
                    "decodedMethod": null,
                    "errorInfo": "",
                    "fromAddress": "0x5acc84a3e955bdd76467d3348077d003f00ffb97",
                    "gasUsed": 0,
                    "id": 7,
                    "methodDecoded": false,
                    "operation": "CALL",
                    "output": "",
                    "revert": false,
                    "revertMessage": "",
                    "selector": "fallback",
                    "status": true,
                    "value": "0.025"
                },
                "nodeType": 0
            },
            "8": {
                "event": {
                    "contract": "0x5acc84a3e955bdd76467d3348077d003f00ffb97",
                    "decodedLog": {
                        "name": "Registration",
                        "params": [
                            {
                                "name": "user",
                                "type": "address",
                                "value": "0x80d989478f7f89f01af8e331b6b93e838d78ac87"
                            },
                            {
                                "name": "referrer",
                                "type": "address",
                                "value": "0x3d1a59535620311c9239514618842fc197256afa"
                            },
                            {
                                "name": "userId",
                                "type": "uint256",
                                "value": "266,740"
                            },
                            {
                                "name": "referrerId",
                                "type": "uint256",
                                "value": "202,126"
                            }
                        ],
                        "signature": "Registration(address,address,uint256,uint256)"
                    },
                    "id": 8,
                    "logData": "0x000000000000000000000000000000000000000000000000000000000003158e",
                    "logDecoded": true,
                    "operation": "EVENT",
                    "revert": false,
                    "status": true,
                    "topics": [
                        "0x309bb360e8b69c23937ccc5fb01f9aeeead1c95a99604e175113ff82f2b1723a",
                        "0x00000000000000000000000080d989478f7f89f01af8e331b6b93e838d78ac87",
                        "0x0000000000000000000000003d1a59535620311c9239514618842fc197256afa",
                        "0x00000000000000000000000000000000000000000000000000000000000411f4"
                    ]
                },
                "nodeType": 1
            }
        },
        "gasFlame": [
            {
                "children": [
                    {
                        "children": [
                            {
                                "children": [],
                                "depth": 0,
                                "name": "Initial Gas",
                                "value": 21432
                            },
                            {
                                "children": [
                                    {
                                        "children": [],
                                        "depth": 1,
                                        "name": "fallback",
                                        "value": 0
                                    },
                                    {
                                        "children": [],
                                        "depth": 1,
                                        "name": "fallback",
                                        "value": 0
                                    }
                                ],
                                "depth": 0,
                                "name": "Executed Gas",
                                "value": 470904
                            }
                        ],
                        "depth": -1,
                        "name": "Actual Gas Used",
                        "value": 428136
                    },
                    {
                        "children": [],
                        "depth": -1,
                        "name": "Refunded Gas",
                        "value": 64200
                    }
                ],
                "depth": -2,
                "name": "Total Gas",
                "value": 492336
            }
        ],
        "isConfirmed": true,
        "mainTrace": [
            {
                "children": [
                    {
                        "children": [
                            {
                                "children": [],
                                "depth": 1,
                                "id": 1,
                                "order": 1
                            },
                            {
                                "children": [],
                                "depth": 1,
                                "id": 2,
                                "order": 2
                            },
                            {
                                "children": [],
                                "depth": 1,
                                "id": 3,
                                "order": 3
                            },
                            {
                                "children": [],
                                "depth": 1,
                                "id": 4,
                                "order": 4
                            },
                            {
                                "children": [],
                                "depth": 1,
                                "id": 5,
                                "order": 5
                            },
                            {
                                "children": [],
                                "depth": 1,
                                "id": 6,
                                "order": 6
                            },
                            {
                                "children": [],
                                "depth": 1,
                                "id": 7,
                                "order": 7
                            },
                            {
                                "children": [],
                                "depth": 1,
                                "id": 8,
                                "order": 8
                            }
                        ],
                        "depth": 0,
                        "id": 0,
                        "order": 0
                    }
                ],
                "depth": -1,
                "id": -1,
                "order": -1
            }
        ],
        "mainTraceNodeCount": 9,
        "parentIdMap": {
            "0": -1,
            "1": 0,
            "2": 0,
            "3": 0,
            "4": 0,
            "5": 0,
            "6": 0,
            "7": 0,
            "8": 0
        },
        "tidyTrace": [
            {
                "children": [
                    {
                        "children": [
                            {
                                "children": [],
                                "depth": 1,
                                "id": 1,
                                "order": 1
                            },
                            {
                                "children": [],
                                "depth": 1,
                                "id": 2,
                                "order": 2
                            },
                            {
                                "children": [],
                                "depth": 1,
                                "id": 3,
                                "order": 3
                            },
                            {
                                "children": [],
                                "depth": 1,
                                "id": 4,
                                "order": 4
                            },
                            {
                                "children": [],
                                "depth": 1,
                                "id": 5,
                                "order": 5
                            },
                            {
                                "children": [],
                                "depth": 1,
                                "id": 6,
                                "order": 6
                            },
                            {
                                "children": [],
                                "depth": 1,
                                "id": 7,
                                "order": 7
                            },
                            {
                                "children": [],
                                "depth": 1,
                                "id": 8,
                                "order": 8
                            }
                        ],
                        "depth": 0,
                        "id": 0,
                        "order": 0
                    }
                ],
                "depth": -1,
                "id": -1,
                "order": -1
            }
        ],
        "tidyTraceNodeCount": 9
    },
    "state_change": {
        "stateChanges": [
            {
                "address": "0x5acc84a3e955bdd76467d3348077d003f00ffb97",
                "erc": "",
                "slots": [
                    {
                        "current": "0x00000000000000000000000000000000000000000000000000000000000411f4",
                        "key": "0x523d887a9f78a662bd34aebe0fc5bcdf92769e9172b7cca7235e4e476c1a907f",
                        "prev": "0x0000000000000000000000000000000000000000000000000000000000000000"
                    },
                    {
                        "current": "0x0000000000000000000000003d1a59535620311c9239514618842fc197256afa",
                        "key": "0x17d6b28d58438e02cca48497e2ebeb181b1cf7b5557e3e6e1a3efec14cf887ed",
                        "prev": "0x0000000000000000000000000000000000000000000000000000000000000000"
                    },
                    {
                        "current": "0x00000000000000000000000000000000000000000000000000000000000411f5",
                        "key": "0x0000000000000000000000000000000000000000000000000000000000000004",
                        "prev": "0x00000000000000000000000000000000000000000000000000000000000411f4"
                    },
                    {
                        "current": "0x0000000000000000000000000000000000000000000000000000000000000003",
                        "key": "0xe476916158d4d0a67f922cc6196285a64ea7542f5caa109a1e6517d2f9edfb8d",
                        "prev": "0x0000000000000000000000000000000000000000000000000000000000000002"
                    },
                    {
                        "current": "0x0000000000000000000000000000000000000000000000000000000000000000",
                        "key": "0x253ccde206642e403ef9929dd5ffa6d0f3bd34cc72335f5b92ab5305bbc57392",
                        "prev": "0x0000000000000000000000000000000000000000000000000000000000000002"
                    },
                    {
                        "current": "0x0000000000000000000000000000000000000000000000000000000000000000",
                        "key": "0xbb0b76b9ce9176df53eba5cee9497986f6ab1b3704adf886932e2e82a3b44eef",
                        "prev": "0x00000000000000000000000091a0aecb92ac9e2d6483de96ff805567edfd48f2"
                    },
                    {
                        "current": "0x00000000000000000000000080d989478f7f89f01af8e331b6b93e838d78ac87",
                        "key": "0x88e3feab155b4876efe94dedc7ed32d543a2e6640d75d3d5c6ee9d716c3ec7bd",
                        "prev": "0x0000000000000000000000000000000000000000000000000000000000000000"
                    },
                    {
                        "current": "0x0000000000000000000000003d1a59535620311c9239514618842fc197256afa",
                        "key": "0x704698edcaf1d4cb8ead2cbb36c7976b6999e0ba693f04f3331c86d22829e220",
                        "prev": "0x0000000000000000000000000000000000000000000000000000000000000000"
                    },
                    {
                        "current": "0x0000000000000000000000000000000000000000000000000000000000000001",
                        "key": "0x4d49defc601f5d36190e4dd9d7116e21d8a2489efd2833cfa411a98ca58b6398",
                        "prev": "0x0000000000000000000000000000000000000000000000000000000000000000"
                    },
                    {
                        "current": "0x00000000000000000000000080d989478f7f89f01af8e331b6b93e838d78ac87",
                        "key": "0x1b7fe3aec152747df6a723cfb2a01df8252aac742dad956fff68f4b4ec4fae7c",
                        "prev": "0x0000000000000000000000000000000000000000000000000000000000000000"
                    },
                    {
                        "current": "0x00000000000000000000000080d989478f7f89f01af8e331b6b93e838d78ac87",
                        "key": "0xa94cc9dd69c176b4c46d875d30351555177a25cadb4a01a9e8c44f6db74cd94f",
                        "prev": "0x0000000000000000000000000000000000000000000000000000000000000000"
                    },
                    {
                        "current": "0x0000000000000000000000000000000000000000000000000000000000000000",
                        "key": "0xbb0b76b9ce9176df53eba5cee9497986f6ab1b3704adf886932e2e82a3b44eee",
                        "prev": "0x0000000000000000000000003ddde38cb5feab3fd41f8581606d9e76947cb844"
                    },
                    {
                        "current": "0x0000000000000000000000000000000000000000000000000000000000000001",
                        "key": "0x253ccde206642e403ef9929dd5ffa6d0f3bd34cc72335f5b92ab5305bbc57394",
                        "prev": "0x0000000000000000000000000000000000000000000000000000000000000000"
                    },
                    {
                        "current": "0x0000000000000000000000000000000000000000000000000000000000000001",
                        "key": "0xb2812e7157e2b34ca988176af278848bc9f543ab3c58ce31891d4d0242c3eeaa",
                        "prev": "0x0000000000000000000000000000000000000000000000000000000000000000"
                    },
                    {
                        "current": "0x0000000000000000000000003d1a59535620311c9239514618842fc197256afa",
                        "key": "0x523d887a9f78a662bd34aebe0fc5bcdf92769e9172b7cca7235e4e476c1a9080",
                        "prev": "0x0000000000000000000000000000000000000000000000000000000000000000"
                    },
                    {
                        "current": "0x0000000000000000000000000000000000000000000000000000000000000001",
                        "key": "0x9eb6d4896f5f02cdf4f481bb24d744f3fc75cd97b49ed56df33ee3d903f711d8",
                        "prev": "0x0000000000000000000000000000000000000000000000000000000000000000"
                    },
                    {
                        "current": "0x0000000000000000000000000000000000000000000000000000000000000001",
                        "key": "0x253ccde206642e403ef9929dd5ffa6d0f3bd34cc72335f5b92ab5305bbc57393",
                        "prev": "0x0000000000000000000000000000000000000000000000000000000000000000"
                    },
                    {
                        "current": "0x0000000000000000000000000000000000000000000000000000000000000001",
                        "key": "0x896ab2063b501f0c6c58041d6c00f7458d11f7accb17193b885f8c527ac6a28e",
                        "prev": "0x0000000000000000000000000000000000000000000000000000000000000000"
                    },
                    {
                        "current": "0x00000000000000000000000080d989478f7f89f01af8e331b6b93e838d78ac87",
                        "key": "0xa5816269d058cfa47b577ad03c20344eb75a316b2f05be3633dc34857980ee4e",
                        "prev": "0x0000000000000000000000000000000000000000000000000000000000000000"
                    },
                    {
                        "current": "0x0000000000000000000000000000000000000000000000000000000000000001",
                        "key": "0xeb8291b717028dfaa1d7072f471764b815ed3ed6d76231e0d087d7ee7a28d3de",
                        "prev": "0x0000000000000000000000000000000000000000000000000000000000000000"
                    },
                    {
                        "current": "0x0000000000000000000000003ddde38cb5feab3fd41f8581606d9e76947cb844",
                        "key": "0x04ad821c712f6051beeab9e964ad80ba995854d36abe830d7e532ff3e9c23141",
                        "prev": "0x0000000000000000000000000000000000000000000000000000000000000000"
                    }
                ],
                "storageVariables": [
                    {
                        "name": "userIds",
                        "type": "mapping(uint256 => address)",
                        "value": {
                            "pairs": [
                                {
                                    "key": "266740",
                                    "value": {
                                        "current": "0x80d989478f7f89f01af8e331b6b93e838d78ac87",
                                        "prev": "0x0000000000000000000000000000000000000000",
                                        "typeTag": 1
                                    }
                                }
                            ],
                            "typeTag": 4
                        }
                    },
                    {
                        "name": "users",
                        "type": "mapping(address => struct SmartMatrixForsage.User)",
                        "value": {
                            "pairs": [
                                {
                                    "key": "0x3d1a59535620311c9239514618842fc197256afa",
                                    "value": {
                                        "fields": [
                                            {
                                                "name": "partnersCount",
                                                "type": "uint256",
                                                "value": {
                                                    "current": "3",
                                                    "prev": "2",
                                                    "typeTag": 1
                                                }
                                            },
                                            {
                                                "name": "x3Matrix",
                                                "type": "mapping(uint8 => struct SmartMatrixForsage.X3)",
                                                "value": {
                                                    "pairs": [
                                                        {
                                                            "key": "1",
                                                            "value": {
                                                                "fields": [
                                                                    {
                                                                        "name": "blocked",
                                                                        "type": "bool",
                                                                        "value": {
                                                                            "current": "true",
                                                                            "prev": "false",
                                                                            "typeTag": 1
                                                                        }
                                                                    },
                                                                    {
                                                                        "name": "reinvestCount",
                                                                        "type": "uint256",
                                                                        "value": {
                                                                            "current": "1",
                                                                            "prev": "0",
                                                                            "typeTag": 1
                                                                        }
                                                                    }
                                                                ],
                                                                "typeTag": 3
                                                            }
                                                        }
                                                    ],
                                                    "typeTag": 4
                                                }
                                            },
                                            {
                                                "name": "x6Matrix",
                                                "type": "mapping(uint8 => struct SmartMatrixForsage.X6)",
                                                "value": {
                                                    "pairs": [
                                                        {
                                                            "key": "1",
                                                            "value": {
                                                                "fields": [
                                                                    {
                                                                        "name": "secondLevelReferrals",
                                                                        "type": "address[]",
                                                                        "value": {
                                                                            "elemType": "address",
                                                                            "elems": [
                                                                                {
                                                                                    "index": 0,
                                                                                    "value": {
                                                                                        "current": "0x80d989478f7f89f01af8e331b6b93e838d78ac87",
                                                                                        "prev": "0x0000000000000000000000000000000000000000",
                                                                                        "typeTag": 1
                                                                                    }
                                                                                }
                                                                            ],
                                                                            "typeTag": 2
                                                                        }
                                                                    }
                                                                ],
                                                                "typeTag": 3
                                                            }
                                                        }
                                                    ],
                                                    "typeTag": 4
                                                }
                                            }
                                        ],
                                        "typeTag": 3
                                    }
                                },
                                {
                                    "key": "0x3ddde38cb5feab3fd41f8581606d9e76947cb844",
                                    "value": {
                                        "fields": [
                                            {
                                                "name": "x6Matrix",
                                                "type": "mapping(uint8 => struct SmartMatrixForsage.X6)",
                                                "value": {
                                                    "pairs": [
                                                        {
                                                            "key": "1",
                                                            "value": {
                                                                "fields": [
                                                                    {
                                                                        "name": "firstLevelReferrals",
                                                                        "type": "address[]",
                                                                        "value": {
                                                                            "elemType": "address",
                                                                            "elems": [
                                                                                {
                                                                                    "index": 0,
                                                                                    "value": {
                                                                                        "current": "0x80d989478f7f89f01af8e331b6b93e838d78ac87",
                                                                                        "prev": "0x0000000000000000000000000000000000000000",
                                                                                        "typeTag": 1
                                                                                    }
                                                                                }
                                                                            ],
                                                                            "typeTag": 2
                                                                        }
                                                                    }
                                                                ],
                                                                "typeTag": 3
                                                            }
                                                        }
                                                    ],
                                                    "typeTag": 4
                                                }
                                            }
                                        ],
                                        "typeTag": 3
                                    }
                                },
                                {
                                    "key": "0x80d989478f7f89f01af8e331b6b93e838d78ac87",
                                    "value": {
                                        "fields": [
                                            {
                                                "name": "id",
                                                "type": "uint256",
                                                "value": {
                                                    "current": "266740",
                                                    "prev": "0",
                                                    "typeTag": 1
                                                }
                                            },
                                            {
                                                "name": "referrer",
                                                "type": "address",
                                                "value": {
                                                    "current": "0x3d1a59535620311c9239514618842fc197256afa",
                                                    "prev": "0x0000000000000000000000000000000000000000",
                                                    "typeTag": 1
                                                }
                                            },
                                            {
                                                "name": "activeX3Levels",
                                                "type": "mapping(uint8 => bool)",
                                                "value": {
                                                    "pairs": [
                                                        {
                                                            "key": "1",
                                                            "value": {
                                                                "current": "true",
                                                                "prev": "false",
                                                                "typeTag": 1
                                                            }
                                                        }
                                                    ],
                                                    "typeTag": 4
                                                }
                                            },
                                            {
                                                "name": "activeX6Levels",
                                                "type": "mapping(uint8 => bool)",
                                                "value": {
                                                    "pairs": [
                                                        {
                                                            "key": "1",
                                                            "value": {
                                                                "current": "true",
                                                                "prev": "false",
                                                                "typeTag": 1
                                                            }
                                                        }
                                                    ],
                                                    "typeTag": 4
                                                }
                                            },
                                            {
                                                "name": "x3Matrix",
                                                "type": "mapping(uint8 => struct SmartMatrixForsage.X3)",
                                                "value": {
                                                    "pairs": [
                                                        {
                                                            "key": "1",
                                                            "value": {
                                                                "fields": [
                                                                    {
                                                                        "name": "currentReferrer",
                                                                        "type": "address",
                                                                        "value": {
                                                                            "current": "0x3d1a59535620311c9239514618842fc197256afa",
                                                                            "prev": "0x0000000000000000000000000000000000000000",
                                                                            "typeTag": 1
                                                                        }
                                                                    }
                                                                ],
                                                                "typeTag": 3
                                                            }
                                                        }
                                                    ],
                                                    "typeTag": 4
                                                }
                                            },
                                            {
                                                "name": "x6Matrix",
                                                "type": "mapping(uint8 => struct SmartMatrixForsage.X6)",
                                                "value": {
                                                    "pairs": [
                                                        {
                                                            "key": "1",
                                                            "value": {
                                                                "fields": [
                                                                    {
                                                                        "name": "currentReferrer",
                                                                        "type": "address",
                                                                        "value": {
                                                                            "current": "0x3ddde38cb5feab3fd41f8581606d9e76947cb844",
                                                                            "prev": "0x0000000000000000000000000000000000000000",
                                                                            "typeTag": 1
                                                                        }
                                                                    }
                                                                ],
                                                                "typeTag": 3
                                                            }
                                                        }
                                                    ],
                                                    "typeTag": 4
                                                }
                                            }
                                        ],
                                        "typeTag": 3
                                    }
                                },
                                {
                                    "key": "0xd52b9a2957fdb0814b35c7fa806b821f6cd2b0af",
                                    "value": {
                                        "fields": [
                                            {
                                                "name": "x3Matrix",
                                                "type": "mapping(uint8 => struct SmartMatrixForsage.X3)",
                                                "value": {
                                                    "pairs": [
                                                        {
                                                            "key": "1",
                                                            "value": {
                                                                "fields": [
                                                                    {
                                                                        "name": "referrals",
                                                                        "type": "address[]",
                                                                        "value": {
                                                                            "elemType": "address",
                                                                            "elems": [
                                                                                {
                                                                                    "index": 0,
                                                                                    "value": {
                                                                                        "current": "0x3d1a59535620311c9239514618842fc197256afa",
                                                                                        "prev": "0x0000000000000000000000000000000000000000",
                                                                                        "typeTag": 1
                                                                                    }
                                                                                }
                                                                            ],
                                                                            "typeTag": 2
                                                                        }
                                                                    }
                                                                ],
                                                                "typeTag": 3
                                                            }
                                                        }
                                                    ],
                                                    "typeTag": 4
                                                }
                                            }
                                        ],
                                        "typeTag": 3
                                    }
                                }
                            ],
                            "typeTag": 4
                        }
                    },
                    {
                        "name": "idToAddress",
                        "type": "mapping(uint256 => address)",
                        "value": {
                            "pairs": [
                                {
                                    "key": "266740",
                                    "value": {
                                        "current": "0x80d989478f7f89f01af8e331b6b93e838d78ac87",
                                        "prev": "0x0000000000000000000000000000000000000000",
                                        "typeTag": 1
                                    }
                                }
                            ],
                            "typeTag": 4
                        }
                    },
                    {
                        "name": "lastUserId",
                        "type": "uint256",
                        "value": {
                            "current": "266741",
                            "prev": "266740",
                            "typeTag": 1
                        }
                    }
                ]
            }
        ]
    }
}