{
    "balance_change": {
        "balanceChanges": [
            {
                "account": "0x6f6c09ea0ef90fca1861d107f873e0ef057a6c5e",
                "assets": [
                    {
                        "address": "0x00e150d741eda1d49d341189cae4c08a73a49c95",
                        "amount": "100",
                        "iconUrl": "",
                        "isERC1155": false,
                        "isERC721": false,
                        "sign": false,
                        "value": ""
                    }
                ]
            },
            {
                "account": "0x80b4f19e0f4dcc0d5c004fe5176900c97d37bfe3",
                "assets": [
                    {
                        "address": "0x00e150d741eda1d49d341189cae4c08a73a49c95",
                        "amount": "100",
                        "iconUrl": "",
                        "isERC1155": false,
                        "isERC721": false,
                        "sign": true,
                        "value": ""
                    }
                ]
            }
        ]
    },
    "profile": {
        "basic_info": {
            "baseFee": "",
            "blockNumber": 9407274,
            "callData": "0xa9059cbb00000000000000000000000080b4f19e0f4dcc0d5c004fe5176900c97d37bfe30000000000000000000000000000000000000000000000056bc75e2d63100000",
            "debugEnable": true,
            "errorInfo": "",
            "eventCount": 1,
            "feeRecipient": "0x5a0b54d5dc17e0aadc383d2db43b0a0d3e029c4c",
            "formatValue": "0",
            "gasLimit": 36709,
            "gasPrice": "2",
            "gasUsed": 36709,
            "intTxnCount": 0,
            "internalRevert": false,
            "internalRevertMessage": "",
            "isContractCreation": false,
            "isFlashloan": false,
            "maxFee": "",
            "nonce": 45881,
            "overwritedBlockNumber": -1,
            "priorityFee": "",
            "receiver": "0x00e150d741eda1d49d341189cae4c08a73a49c95",
            "revertMessage": "",
            "sender": "0x6f6c09ea0ef90fca1861d107f873e0ef057a6c5e",
            "simulationEnable": true,
            "sourceTxnHash": "0xf9c60a034cc26328176a5f9ee69ec251c02f3b7e80d726a80571e7e688e52d90",
            "status": true,
            "timestamp": "2020-02-03T04:07:04Z",
            "transactionFee": "0.000073418",
            "txnHash": "0xf9c60a034cc26328176a5f9ee69ec251c02f3b7e80d726a80571e7e688e52d90",
            "txnIndex": 112,
            "type": 0,
            "value": "0"
        },
        "fund_flow": [
            {
                "amount": "100",
                "from": "0x6f6c09ea0ef90fca1861d107f873e0ef057a6c5e",
                "id": 1,
                "isERC1155": false,
                "isERC721": false,
                "isReverted": false,
                "order": 1,
                "to": "0x80b4f19e0f4dcc0d5c004fe5176900c97d37bfe3",
                "token": "0x00e150d741eda1d49d341189cae4c08a73a49c95"
            }
        ],
        "token_infos": [
            {
                "address": "0xeeeeeeeeeeeeeeeeeeeeeeeeeeeeeeeeeeeeeeee",
                "decimals": 18
            },
            {
                "address": "0x00e150d741eda1d49d341189cae4c08a73a49c95",
                "decimals": 18
            },
            {
                "address": "0xc02aaa39b223fe8d0a0e5c4f27ead9083c756cc2",
                "decimals": 18
            }
        ]
    },
    "address_label": {
        "labels": [
            {
                "address": "0xeeeeeeeeeeeeeeeeeeeeeeeeeeeeeeeeeeeeeeee",
                "label": "Ether"
            },
            {
                "address": "0x00e150d741eda1d49d341189cae4c08a73a49c95",
                "label": "Infinitus Token"
            },
            {
                "address": "0x0000000000000000000000000000000000000001",
                "label": "Precompiled"
            },
            {
                "address": "0x0000000000000000000000000000000000000002",
                "label": "Precompiled"
            },
            {
                "address": "0x0000000000000000000000000000000000000003",
                "label": "Precompiled"
            },
            {
                "address": "0x0000000000000000000000000000000000000004",
                "label": "Precompiled"
            }
        ]
    },
    "trace": {
        "accountLabels": null,
        "dataMap": {
            "-1": {
                "invocation": {
                    "address": "0x6f6c09ea0ef90fca1861d107f873e0ef057a6c5e",
                    "callData": "",
                    "decodedMethod": null,
                    "errorInfo": "",
                    "fromAddress": "",
                    "gasUsed": 0,
                    "id": -1,
                    "methodDecoded": false,
                    "operation": "",
                    "output": "",
                    "revert": false,
                    "revertMessage": "",
                    "selector": "",
                    "status": false,
                    "value": ""
                },
                "nodeType": 0
            },
            "0": {
                "invocation": {
                    "address": "0x00e150d741eda1d49d341189cae4c08a73a49c95",
                    "callData": "0x00000000000000000000000080b4f19e0f4dcc0d5c004fe5176900c97d37bfe30000000000000000000000000000000000000000000000056bc75e2d63100000",
                    "decodedMethod": {
                        "callParams": [
                            {
                                "name": "_to",
                                "type": "address",
                                "value": "0x80b4f19e0f4dcc0d5c004fe5176900c97d37bfe3"
                            },
                            {
                                "decimalAvailable": true,
                                "name": "_value",
                                "type": "uint256",
                                "value": "100,000,000,000,000,000,000"
                            }
                        ],
                        "constructorArguments": "",
                        "name": "transfer",
                        "returnParams": [
                            {
                                "name": "success",
                                "type": "bool",
                                "value": true
                            }
                        ],
                        "signature": "transfer(address,uint256)"
                    },
                    "errorInfo": "",
                    "fromAddress": "0x6f6c09ea0ef90fca1861d107f873e0ef057a6c5e",
                    "gasUsed": 36709,
                    "id": 0,
                    "methodDecoded": true,
                    "operation": "CALL",
                    "output": "0x0000000000000000000000000000000000000000000000000000000000000001",
                    "revert": false,
                    "revertMessage": "",
                    "selector": "0xa9059cbb",
                    "status": true,
                    "value": "0"
                },
                "nodeType": 0
            },
            "1": {
                "event": {
                    "contract": "0x00e150d741eda1d49d341189cae4c08a73a49c95",
                    "decodedLog": {
                        "name": "Transfer",
                        "params": [
                            {
                                "name": "_from",
                                "type": "address",
                                "value": "0x6f6c09ea0ef90fca1861d107f873e0ef057a6c5e"
                            },
                            {
                                "name": "_to",
                                "type": "address",
                                "value": "0x80b4f19e0f4dcc0d5c004fe5176900c97d37bfe3"
                            },
                            {
                                "decimalAvailable": true,
                                "name": "_value",
                                "type": "uint256",
                                "value": "100,000,000,000,000,000,000"
                            }
                        ],
                        "signature": "Transfer(address,address,uint256)"
                    },
                    "id": 1,
                    "logData": "0x0000000000000000000000000000000000000000000000056bc75e2d63100000",
                    "logDecoded": true,
                    "operation": "EVENT",
                    "revert": false,
                    "status": true,
                    "topics": [
                        "0xddf252ad1be2c89b69c2b068fc378daa952ba7f163c4a11628f55a4df523b3ef",
                        "0x0000000000000000000000006f6c09ea0ef90fca1861d107f873e0ef057a6c5e",
                        "0x00000000000000000000000080b4f19e0f4dcc0d5c004fe5176900c97d37bfe3"
                    ]
                },
                "nodeType": 1
            }
        },
        "gasFlame": [
            {
                "children": [
                    {
                        "children": [
                            {
                                "children": [],
                                "depth": 0,
                                "name": "Initial Gas",
                                "value": 21620
                            },
                            {
                                "children": [],
                                "depth": 0,
                                "name": "Executed Gas",
                                "value": 15089
                            }
                        ],
                        "depth": -1,
                        "name": "Actual Gas Used",
                        "value": 36709
                    },
                    {
                        "children": [],
                        "depth": -1,
                        "name": "Refunded Gas",
                        "value": 0
                    }
                ],
                "depth": -2,
                "name": "Total Gas",
                "value": 36709
            }
        ],
        "isConfirmed": true,
        "mainTrace": [
            {
                "children": [
                    {
                        "children": [
                            {
                                "children": [],
                                "depth": 1,
                                "id": 1,
                                "order": 1
                            }
                        ],
                        "depth": 0,
                        "id": 0,
                        "order": 0
                    }
                ],
                "depth": -1,
                "id": -1,
                "order": -1
            }
        ],
        "mainTraceNodeCount": 2,
        "parentIdMap": {
            "0": -1,
            "1": 0
        },
        "tidyTrace": [
            {
                "children": [
                    {
                        "children": [
                            {
                                "children": [],
                                "depth": 1,
                                "id": 1,
                                "order": 1
                            }
                        ],
                        "depth": 0,
                        "id": 0,
                        "order": 0
                    }
                ],
                "depth": -1,
                "id": -1,
                "order": -1
            }
        ],
        "tidyTraceNodeCount": 2
    },
    "state_change": {
        "stateChanges": [
            {
                "address": "0x00e150d741eda1d49d341189cae4c08a73a49c95",
                "erc": "ERC-20",
                "slots": [
                    {
                        "current": "0x0000000000000000000000000000000000000000000209f45cf3b9997d481400",
                        "key": "0x7701675f66636f6af02ce2d46202b15e1d9a1edc13f83ad744ba756a5ebc1f9e",
                        "prev": "0x0000000000000000000000000000000000000000000209f9c8bb17c6e0581400"
                    },
                    {
                        "current": "0x0000000000000000000000000000000000000000000000056c0e6c1242920000",
                        "key": "0x2afc6895a755dd36a4f920e760289040d2a79ff6bba40bb5284b97b071442699",
                        "prev": "0x00000000000000000000000000000000000000000000000000470de4df820000"
                    }
                ],
                "storageVariables": []
            }
        ]
    }
}