{
    "balance_change": {
        "balanceChanges": [
            {
                "account": "0x7beb23a1b2ab2103f2344429b543233586833fe6",
                "assets": [
                    {
                        "address": "0x6c30e971c30e904bd994124e5427505be77dae4c",
                        "amount": "1",
                        "iconUrl": "",
                        "isERC1155": false,
                        "isERC721": true,
                        "sign": false,
                        "tokenID": "952",
                        "value": ""
                    },
                    {
                        "address": "0x6c30e971c30e904bd994124e5427505be77dae4c",
                        "amount": "1",
                        "iconUrl": "",
                        "isERC1155": false,
                        "isERC721": true,
                        "sign": false,
                        "tokenID": "951",
                        "value": ""
                    },
                    {
                        "address": "0x6c30e971c30e904bd994124e5427505be77dae4c",
                        "amount": "1",
                        "iconUrl": "",
                        "isERC1155": false,
                        "isERC721": true,
                        "sign": false,
                        "tokenID": "953",
                        "value": ""
                    }
                ]
            },
            {
                "account": "0x89338593b2586a08b22483c94c27e10fa306a881",
                "assets": [
                    {
                        "address": "0x6c30e971c30e904bd994124e5427505be77dae4c",
                        "amount": "1",
                        "iconUrl": "",
                        "isERC1155": false,
                        "isERC721": true,
                        "sign": true,
                        "tokenID": "951",
                        "value": ""
                    },
                    {
                        "address": "0x6c30e971c30e904bd994124e5427505be77dae4c",
                        "amount": "1",
                        "iconUrl": "",
                        "isERC1155": false,
                        "isERC721": true,
                        "sign": true,
                        "tokenID": "953",
                        "value": ""
                    },
                    {
                        "address": "0x6c30e971c30e904bd994124e5427505be77dae4c",
                        "amount": "1",
                        "iconUrl": "",
                        "isERC1155": false,
                        "isERC721": true,
                        "sign": true,
                        "tokenID": "952",
                        "value": ""
                    }
                ]
            }
        ]
    },
    "profile": {
        "basic_info": {
            "baseFee": "20.472804262",
            "blockNumber": 16365406,
            "callData": "0x3593cebc0000000000000000000000006c30e971c30e904bd994124e5427505be77dae4c00000000000000000000000089338593b2586a08b22483c94c27e10fa306a8810000000000000000000000000000000000000000000000000000000000000060000000000000000000000000000000000000000000000000000000000000000300000000000000000000000000000000000000000000000000000000000003b800000000000000000000000000000000000000000000000000000000000003b700000000000000000000000000000000000000000000000000000000000003b9",
            "debugEnable": true,
            "errorInfo": "",
            "eventCount": 3,
            "feeRecipient": "0x95222290dd7278aa3ddd389cc1e1d165cc4bafe5",
            "formatValue": "0",
            "gasLimit": 126737,
            "gasPrice": "21.472804262",
            "gasUsed": 115216,
            "intTxnCount": 3,
            "internalRevert": false,
            "internalRevertMessage": "",
            "isContractCreation": false,
            "isFlashloan": false,
            "maxFee": "30",
            "nonce": 621,
            "overwritedBlockNumber": -1,
            "priorityFee": "1",
            "receiver": "0x2e2234b3a848f895a60b2071f90303cd02f7491d",
            "revertMessage": "",
            "sender": "0x7beb23a1b2ab2103f2344429b543233586833fe6",
            "simulationEnable": true,
            "sourceTxnHash": "0xf93f9eacf5ccd8ba863e02534a53b86e9881199c5626aac9b95e01d2a822d205",
            "status": true,
            "timestamp": "2023-01-08T23:38:59Z",
            "transactionFee": "0.002474010615850592",
            "txnHash": "0xf93f9eacf5ccd8ba863e02534a53b86e9881199c5626aac9b95e01d2a822d205",
            "txnIndex": 83,
            "type": 2,
            "value": "0"
        },
        "fund_flow": [
            {
                "amount": "1",
                "from": "0x7beb23a1b2ab2103f2344429b543233586833fe6",
                "id": 1,
                "isERC1155": false,
                "isERC721": true,
                "isReverted": false,
                "order": 1,
                "to": "0x89338593b2586a08b22483c94c27e10fa306a881",
                "token": "0x6c30e971c30e904bd994124e5427505be77dae4c",
                "tokenID": "952"
            },
            {
                "amount": "1",
                "from": "0x7beb23a1b2ab2103f2344429b543233586833fe6",
                "id": 2,
                "isERC1155": false,
                "isERC721": true,
                "isReverted": false,
                "order": 2,
                "to": "0x89338593b2586a08b22483c94c27e10fa306a881",
                "token": "0x6c30e971c30e904bd994124e5427505be77dae4c",
                "tokenID": "951"
            },
            {
                "amount": "1",
                "from": "0x7beb23a1b2ab2103f2344429b543233586833fe6",
                "id": 3,
                "isERC1155": false,
                "isERC721": true,
                "isReverted": false,
                "order": 3,
                "to": "0x89338593b2586a08b22483c94c27e10fa306a881",
                "token": "0x6c30e971c30e904bd994124e5427505be77dae4c",
                "tokenID": "953"
            }
        ],
        "token_infos": [
            {
                "address": "0xc02aaa39b223fe8d0a0e5c4f27ead9083c756cc2",
                "decimals": 18
            },
            {
                "address": "0xeeeeeeeeeeeeeeeeeeeeeeeeeeeeeeeeeeeeeeee",
                "decimals": 18
            }
        ]
    },
    "address_label": {
        "labels": [
            {
                "address": "0xeeeeeeeeeeeeeeeeeeeeeeeeeeeeeeeeeeeeeeee",
                "label": "Ether"
            },
            {
                "address": "0x6c30e971c30e904bd994124e5427505be77dae4c",
                "label": "The Ethnics by Jada (ETHNIC)"
            },
            {
                "address": "0x2e2234b3a848f895a60b2071f90303cd02f7491d",
                "label": "BatchTransfer"
            },
            {
                "address": "0x0000000000000000000000000000000000000001",
                "label": "Precompiled"
            },
            {
                "address": "0x0000000000000000000000000000000000000002",
                "label": "Precompiled"
            },
            {
                "address": "0x0000000000000000000000000000000000000003",
                "label": "Precompiled"
            },
            {
                "address": "0x0000000000000000000000000000000000000004",
                "label": "Precompiled"
            }
        ]
    },
    "trace": {
        "accountLabels": null,
        "dataMap": {
            "-1": {
                "invocation": {
                    "address": "0x7beb23a1b2ab2103f2344429b543233586833fe6",
                    "callData": "",
                    "decodedMethod": null,
                    "errorInfo": "",
                    "fromAddress": "",
                    "gasUsed": 0,
                    "id": -1,
                    "methodDecoded": false,
                    "operation": "",
                    "output": "",
                    "revert": false,
                    "revertMessage": "",
                    "selector": "",
                    "status": false,
                    "value": ""
                },
                "nodeType": 0
            },
            "0": {
                "invocation": {
                    "address": "0x2e2234b3a848f895a60b2071f90303cd02f7491d",
                    "callData": "0x0000000000000000000000006c30e971c30e904bd994124e5427505be77dae4c00000000000000000000000089338593b2586a08b22483c94c27e10fa306a8810000000000000000000000000000000000000000000000000000000000000060000000000000000000000000000000000000000000000000000000000000000300000000000000000000000000000000000000000000000000000000000003b800000000000000000000000000000000000000000000000000000000000003b700000000000000000000000000000000000000000000000000000000000003b9",
                    "decodedMethod": {
                        "callParams": [
                            {
                                "name": "tokenContract",
                                "type": "address",
                                "value": "0x6c30e971c30e904bd994124e5427505be77dae4c"
                            },
                            {
                                "name": "recipient",
                                "type": "address",
                                "value": "0x89338593b2586a08b22483c94c27e10fa306a881"
                            },
                            {
                                "name": "tokenIds",
                                "type": "uint256[]",
                                "value": [
                                    "952",
                                    "951",
                                    "953"
                                ]
                            }
                        ],
                        "constructorArguments": "",
                        "name": "batchTransfer",
                        "returnParams": [],
                        "signature": "batchTransfer(address,address,uint256[])"
                    },
                    "errorInfo": "",
                    "fromAddress": "0x7beb23a1b2ab2103f2344429b543233586833fe6",
                    "gasUsed": 115216,
                    "id": 0,
                    "methodDecoded": true,
                    "operation": "CALL",
                    "output": "",
                    "revert": false,
                    "revertMessage": "",
                    "selector": "0x3593cebc",
                    "status": true,
                    "value": "0"
                },
                "nodeType": 0
            },
            "1": {
                "invocation": {
                    "address": "0x6c30e971c30e904bd994124e5427505be77dae4c",
                    "callData": "0x0000000000000000000000007beb23a1b2ab2103f2344429b543233586833fe600000000000000000000000089338593b2586a08b22483c94c27e10fa306a88100000000000000000000000000000000000000000000000000000000000003b8",
                    "decodedMethod": {
                        "callParams": [
                            {
                                "name": "from",
                                "type": "address",
                                "value": "0x7beb23a1b2ab2103f2344429b543233586833fe6"
                            },
                            {
                                "name": "to",
                                "type": "address",
                                "value": "0x89338593b2586a08b22483c94c27e10fa306a881"
                            },
                            {
                                "decimalAvailable": true,
                                "name": "tokenId",
                                "type": "uint256",
                                "value": "952"
                            }
                        ],
                        "constructorArguments": "",
                        "name": "transferFrom",
                        "returnParams": [],
                        "signature": "transferFrom(address,address,uint256)"
                    },
                    "errorInfo": "",
                    "fromAddress": "0x2e2234b3a848f895a60b2071f90303cd02f7491d",
                    "gasUsed": 67611,
                    "id": 1,
                    "methodDecoded": true,
                    "operation": "CALL",
                    "output": "",
                    "revert": false,
                    "revertMessage": "",
                    "selector": "0x23b872dd",
                    "status": true,
                    "value": "0"
                },
                "nodeType": 0
            },
            "2": {
                "event": {
                    "contract": "0x6c30e971c30e904bd994124e5427505be77dae4c",
                    "decodedLog": {
                        "name": "Transfer",
                        "params": [
                            {
                                "name": "from",
                                "type": "address",
                                "value": "0x7beb23a1b2ab2103f2344429b543233586833fe6"
                            },
                            {
                                "name": "to",
                                "type": "address",
                                "value": "0x89338593b2586a08b22483c94c27e10fa306a881"
                            },
                            {
                                "decimalAvailable": true,
                                "name": "tokenId",
                                "type": "uint256",
                                "value": "952"
                            }
                        ],
                        "signature": "Transfer(address,address,uint256)"
                    },
                    "id": 2,
                    "logData": "0x",
                    "logDecoded": true,
                    "operation": "EVENT",
                    "revert": false,
                    "status": true,
                    "topics": [
                        "0xddf252ad1be2c89b69c2b068fc378daa952ba7f163c4a11628f55a4df523b3ef",
                        "0x0000000000000000000000007beb23a1b2ab2103f2344429b543233586833fe6",
                        "0x00000000000000000000000089338593b2586a08b22483c94c27e10fa306a881",
                        "0x00000000000000000000000000000000000000000000000000000000000003b8"
                    ]
                },
                "nodeType": 1
            },
            "3": {
                "invocation": {
                    "address": "0x6c30e971c30e904bd994124e5427505be77dae4c",
                    "callData": "0x0000000000000000000000007beb23a1b2ab2103f2344429b543233586833fe600000000000000000000000089338593b2586a08b22483c94c27e10fa306a88100000000000000000000000000000000000000000000000000000000000003b7",
                    "decodedMethod": {
                        "callParams": [
                            {
                                "name": "from",
                                "type": "address",
                                "value": "0x7beb23a1b2ab2103f2344429b543233586833fe6"
                            },
                            {
                                "name": "to",
                                "type": "address",
                                "value": "0x89338593b2586a08b22483c94c27e10fa306a881"
                            },
                            {
                                "decimalAvailable": true,
                                "name": "tokenId",
                                "type": "uint256",
                                "value": "951"
                            }
                        ],
                        "constructorArguments": "",
                        "name": "transferFrom",
                        "returnParams": [],
                        "signature": "transferFrom(address,address,uint256)"
                    },
                    "errorInfo": "",
                    "fromAddress": "0x2e2234b3a848f895a60b2071f90303cd02f7491d",
                    "gasUsed": 10459,
                    "id": 3,
                    "methodDecoded": true,
                    "operation": "CALL",
                    "output": "",
                    "revert": false,
                    "revertMessage": "",
                    "selector": "0x23b872dd",
                    "status": true,
                    "value": "0"
                },
                "nodeType": 0
            },
            "4": {
                "event": {
                    "contract": "0x6c30e971c30e904bd994124e5427505be77dae4c",
                    "decodedLog": {
                        "name": "Transfer",
                        "params": [
                            {
                                "name": "from",
                                "type": "address",
                                "value": "0x7beb23a1b2ab2103f2344429b543233586833fe6"
                            },
                            {
                                "name": "to",
                                "type": "address",
                                "value": "0x89338593b2586a08b22483c94c27e10fa306a881"
                            },
                            {
                                "decimalAvailable": true,
                                "name": "tokenId",
                                "type": "uint256",
                                "value": "951"
                            }
                        ],
                        "signature": "Transfer(address,address,uint256)"
                    },
                    "id": 4,
                    "logData": "0x",
                    "logDecoded": true,
                    "operation": "EVENT",
                    "revert": false,
                    "status": true,
                    "topics": [
                        "0xddf252ad1be2c89b69c2b068fc378daa952ba7f163c4a11628f55a4df523b3ef",
                        "0x0000000000000000000000007beb23a1b2ab2103f2344429b543233586833fe6",
                        "0x00000000000000000000000089338593b2586a08b22483c94c27e10fa306a881",
                        "0x00000000000000000000000000000000000000000000000000000000000003b7"
                    ]
                },
                "nodeType": 1
            },
            "5": {
                "invocation": {
                    "address": "0x6c30e971c30e904bd994124e5427505be77dae4c",
                    "callData": "0x0000000000000000000000007beb23a1b2ab2103f2344429b543233586833fe600000000000000000000000089338593b2586a08b22483c94c27e10fa306a88100000000000000000000000000000000000000000000000000000000000003b9",
                    "decodedMethod": {
                        "callParams": [
                            {
                                "name": "from",
                                "type": "address",
                                "value": "0x7beb23a1b2ab2103f2344429b543233586833fe6"
                            },
                            {
                                "name": "to",
                                "type": "address",
                                "value": "0x89338593b2586a08b22483c94c27e10fa306a881"
                            },
                            {
                                "decimalAvailable": true,
                                "name": "tokenId",
                                "type": "uint256",
                                "value": "953"
                            }
                        ],
                        "constructorArguments": "",
                        "name": "transferFrom",
                        "returnParams": [],
                        "signature": "transferFrom(address,address,uint256)"
                    },
                    "errorInfo": "",
                    "fromAddress": "0x2e2234b3a848f895a60b2071f90303cd02f7491d",
                    "gasUsed": 9659,
                    "id": 5,
                    "methodDecoded": true,
                    "operation": "CALL",
                    "output": "",
                    "revert": false,
                    "revertMessage": "",
                    "selector": "0x23b872dd",
                    "status": true,
                    "value": "0"
                },
                "nodeType": 0
            },
            "6": {
                "event": {
                    "contract": "0x6c30e971c30e904bd994124e5427505be77dae4c",
                    "decodedLog": {
                        "name": "Transfer",
                        "params": [
                            {
                                "name": "from",
                                "type": "address",
                                "value": "0x7beb23a1b2ab2103f2344429b543233586833fe6"
                            },
                            {
                                "name": "to",
                                "type": "address",
                                "value": "0x89338593b2586a08b22483c94c27e10fa306a881"
                            },
                            {
                                "decimalAvailable": true,
                                "name": "tokenId",
                                "type": "uint256",
                                "value": "953"
                            }
                        ],
                        "signature": "Transfer(address,address,uint256)"
                    },
                    "id": 6,
                    "logData": "0x",
                    "logDecoded": true,
                    "operation": "EVENT",
                    "revert": false,
                    "status": true,
                    "topics": [
                        "0xddf252ad1be2c89b69c2b068fc378daa952ba7f163c4a11628f55a4df523b3ef",
                        "0x0000000000000000000000007beb23a1b2ab2103f2344429b543233586833fe6",
                        "0x00000000000000000000000089338593b2586a08b22483c94c27e10fa306a881",
                        "0x00000000000000000000000000000000000000000000000000000000000003b9"
                    ]
                },
                "nodeType": 1
            }
        },
        "gasFlame": [
            {
                "children": [
                    {
                        "children": [
                            {
                                "children": [],
                                "depth": 0,
                                "name": "Initial Gas",
                                "value": 22536
                            },
                            {
                                "children": [
                                    {
                                        "children": [],
                                        "depth": 1,
                                        "name": "transferFrom",
                                        "value": 67611
                                    },
                                    {
                                        "children": [],
                                        "depth": 1,
                                        "name": "transferFrom",
                                        "value": 10459
                                    },
                                    {
                                        "children": [],
                                        "depth": 1,
                                        "name": "transferFrom",
                                        "value": 9659
                                    }
                                ],
                                "depth": 0,
                                "name": "Executed Gas",
                                "value": 92680
                            }
                        ],
                        "depth": -1,
                        "name": "Actual Gas Used",
                        "value": 115216
                    },
                    {
                        "children": [],
                        "depth": -1,
                        "name": "Refunded Gas",
                        "value": 0
                    }
                ],
                "depth": -2,
                "name": "Total Gas",
                "value": 115216
            }
        ],
        "isConfirmed": true,
        "mainTrace": [
            {
                "children": [
                    {
                        "children": [
                            {
                                "children": [
                                    {
                                        "children": [],
                                        "depth": 2,
                                        "id": 2,
                                        "order": 2
                                    }
                                ],
                                "depth": 1,
                                "id": 1,
                                "order": 1
                            },
                            {
                                "children": [
                                    {
                                        "children": [],
                                        "depth": 2,
                                        "id": 4,
                                        "order": 4
                                    }
                                ],
                                "depth": 1,
                                "id": 3,
                                "order": 3
                            },
                            {
                                "children": [
                                    {
                                        "children": [],
                                        "depth": 2,
                                        "id": 6,
                                        "order": 6
                                    }
                                ],
                                "depth": 1,
                                "id": 5,
                                "order": 5
                            }
                        ],
                        "depth": 0,
                        "id": 0,
                        "order": 0
                    }
                ],
                "depth": -1,
                "id": -1,
                "order": -1
            }
        ],
        "mainTraceNodeCount": 7,
        "parentIdMap": {
            "0": -1,
            "1": 0,
            "2": 1,
            "3": 0,
            "4": 3,
            "5": 0,
            "6": 5
        },
        "tidyTrace": [
            {
                "children": [
                    {
                        "children": [
                            {
                                "children": [
                                    {
                                        "children": [],
                                        "depth": 2,
                                        "id": 2,
                                        "order": 2
                                    }
                                ],
                                "depth": 1,
                                "id": 1,
                                "order": 1
                            },
                            {
                                "children": [
                                    {
                                        "children": [],
                                        "depth": 2,
                                        "id": 4,
                                        "order": 4
                                    }
                                ],
                                "depth": 1,
                                "id": 3,
                                "order": 3
                            },
                            {
                                "children": [
                                    {
                                        "children": [],
                                        "depth": 2,
                                        "id": 6,
                                        "order": 6
                                    }
                                ],
                                "depth": 1,
                                "id": 5,
                                "order": 5
                            }
                        ],
                        "depth": 0,
                        "id": 0,
                        "order": 0
                    }
                ],
                "depth": -1,
                "id": -1,
                "order": -1
            }
        ],
        "tidyTraceNodeCount": 7
    },
    "state_change": {
        "stateChanges": [
            {
                "address": "0x6c30e971c30e904bd994124e5427505be77dae4c",
                "erc": "ERC-721",
                "slots": [
                    {
                        "current": "0x000000020000000063bb541389338593b2586a08b22483c94c27e10fa306a881",
                        "key": "0x5b4f71d8091e32c5aed728a652d84fbf57ac399f7f98eedd718cd9e73a87e341",
                        "prev": "0x0000000000000000000000000000000000000000000000000000000000000000"
                    },
                    {
                        "current": "0x000000020000000063bb541389338593b2586a08b22483c94c27e10fa306a881",
                        "key": "0x7f4a930b61b73711be5a2872ef15dddb9add413d2e3312d20dfde685d1964c64",
                        "prev": "0x000000000000000063bb4a6b7beb23a1b2ab2103f2344429b543233586833fe6"
                    },
                    {
                        "current": "0x0000000000000000000000000000000000000000000000030000000000000000",
                        "key": "0x5d154969b89e31fe77ce4551eb6e3114a9fd434632405c3618374b069a75047d",
                        "prev": "0x0000000000000000000000000000000000000000000000030000000000000003"
                    },
                    {
                        "current": "0x0000000000000000000000000000000000000000000000030000000000000015",
                        "key": "0xdd27c2118286862687e1dfddf6bf2bafc53332d0a0c43863ff8b60fa5f8e0922",
                        "prev": "0x0000000000000000000000000000000000000000000000030000000000000012"
                    },
                    {
                        "current": "0x000000020000000063bb541389338593b2586a08b22483c94c27e10fa306a881",
                        "key": "0x1ccc7c1df2d0fa4491078d502d71ac2d9130f23838329bd81e4f5001154bb354",
                        "prev": "0x0000000000000000000000000000000000000000000000000000000000000000"
                    }
                ],
                "storageVariables": [
                    {
                        "name": "_packedOwnerships",
                        "type": "mapping(uint256 => uint256)",
                        "value": {
                            "pairs": [
                                {
                                    "key": "951",
                                    "value": {
                                        "current": "53919893336746695024382489184535044311157411398881499275675784620161",
                                        "prev": "2445411822140580462589126349729004350905410111617968062438",
                                        "typeTag": 1
                                    }
                                },
                                {
                                    "key": "952",
                                    "value": {
                                        "current": "53919893336746695024382489184535044311157411398881499275675784620161",
                                        "prev": "0",
                                        "typeTag": 1
                                    }
                                },
                                {
                                    "key": "953",
                                    "value": {
                                        "current": "53919893336746695024382489184535044311157411398881499275675784620161",
                                        "prev": "0",
                                        "typeTag": 1
                                    }
                                }
                            ],
                            "typeTag": 4
                        }
                    },
                    {
                        "name": "_packedAddressData",
                        "type": "mapping(address => uint256)",
                        "value": {
                            "pairs": [
                                {
                                    "key": "0x7beb23a1b2ab2103f2344429b543233586833fe6",
                                    "value": {
                                        "current": "55340232221128654848",
                                        "prev": "55340232221128654851",
                                        "typeTag": 1
                                    }
                                },
                                {
                                    "key": "0x89338593b2586a08b22483c94c27e10fa306a881",
                                    "value": {
                                        "current": "55340232221128654869",
                                        "prev": "55340232221128654866",
                                        "typeTag": 1
                                    }
                                }
                            ],
                            "typeTag": 4
                        }
                    }
                ]
            }
        ]
    }
}