{
    "balance_change": {
        "balanceChanges": [
            {
                "account": "0x81fe7325460824cd9db9b405f7872ed163d37bc6",
                "assets": [
                    {
                        "address": "0xb17e7e102e219450c2413a668e8f7ccad52deb3a",
                        "amount": "122.1198",
                        "iconUrl": "",
                        "isERC1155": false,
                        "isERC721": false,
                        "sign": false,
                        "value": ""
                    }
                ]
            },
            {
                "account": "0x79a1f629626c9809053532803d076f21904ee85d",
                "assets": [
                    {
                        "address": "0xb17e7e102e219450c2413a668e8f7ccad52deb3a",
                        "amount": "122.1198",
                        "iconUrl": "",
                        "isERC1155": false,
                        "isERC721": false,
                        "sign": true,
                        "value": ""
                    }
                ]
            }
        ]
    },
    "profile": {
        "basic_info": {
            "baseFee": "",
            "blockNumber": 8478248,
            "callData": "0xa9059cbb00000000000000000000000079a1f629626c9809053532803d076f21904ee85d00000000000000000000000000000000000000000000000000000002d7e406e0",
            "debugEnable": true,
            "errorInfo": "",
            "eventCount": 2,
            "feeRecipient": "0x52bc44d5378309ee2abf1539bf71de1b7d7be3b5",
            "formatValue": "0",
            "gasLimit": 38097,
            "gasPrice": "2.640000105",
            "gasUsed": 38096,
            "intTxnCount": 0,
            "internalRevert": false,
            "internalRevertMessage": "",
            "isContractCreation": false,
            "isFlashloan": false,
            "maxFee": "",
            "nonce": 20022,
            "overwritedBlockNumber": -1,
            "priorityFee": "",
            "receiver": "0xb17e7e102e219450c2413a668e8f7ccad52deb3a",
            "revertMessage": "",
            "sender": "0x81fe7325460824cd9db9b405f7872ed163d37bc6",
            "simulationEnable": true,
            "sourceTxnHash": "0xf97e0bdcb3d92e444a670792e2a8a2f6b737fb022cee76fb164566b1d89ba2f1",
            "status": true,
            "timestamp": "2019-09-03T16:29:00Z",
            "transactionFee": "0.00010057344400008",
            "txnHash": "0xf97e0bdcb3d92e444a670792e2a8a2f6b737fb022cee76fb164566b1d89ba2f1",
            "txnIndex": 43,
            "type": 0,
            "value": "0"
        },
        "fund_flow": [
            {
                "amount": "122.1198",
                "from": "0x81fe7325460824cd9db9b405f7872ed163d37bc6",
                "id": 1,
                "isERC1155": false,
                "isERC721": false,
                "isReverted": false,
                "order": 1,
                "to": "0x79a1f629626c9809053532803d076f21904ee85d",
                "token": "0xb17e7e102e219450c2413a668e8f7ccad52deb3a"
            }
        ],
        "token_infos": [
            {
                "address": "0xb17e7e102e219450c2413a668e8f7ccad52deb3a",
                "decimals": 8
            },
            {
                "address": "0xc02aaa39b223fe8d0a0e5c4f27ead9083c756cc2",
                "decimals": 18
            },
            {
                "address": "0xeeeeeeeeeeeeeeeeeeeeeeeeeeeeeeeeeeeeeeee",
                "decimals": 18
            }
        ]
    },
    "address_label": {
        "labels": [
            {
                "address": "0x0000000000000000000000000000000000000004",
                "label": "Precompiled"
            },
            {
                "address": "0xeeeeeeeeeeeeeeeeeeeeeeeeeeeeeeeeeeeeeeee",
                "label": "Ether"
            },
            {
                "address": "0x79a1f629626c9809053532803d076f21904ee85d",
                "label": "ZB.COM"
            },
            {
                "address": "0xb17e7e102e219450c2413a668e8f7ccad52deb3a",
                "label": "Yun Planet (YUN3)"
            },
            {
                "address": "0x0000000000000000000000000000000000000001",
                "label": "Precompiled"
            },
            {
                "address": "0x0000000000000000000000000000000000000002",
                "label": "Precompiled"
            },
            {
                "address": "0x0000000000000000000000000000000000000003",
                "label": "Precompiled"
            }
        ]
    },
    "trace": {
        "accountLabels": null,
        "dataMap": {
            "-1": {
                "invocation": {
                    "address": "0x81fe7325460824cd9db9b405f7872ed163d37bc6",
                    "callData": "",
                    "decodedMethod": null,
                    "errorInfo": "",
                    "fromAddress": "",
                    "gasUsed": 0,
                    "id": -1,
                    "methodDecoded": false,
                    "operation": "",
                    "output": "",
                    "revert": false,
                    "revertMessage": "",
                    "selector": "",
                    "status": false,
                    "value": ""
                },
                "nodeType": 0
            },
            "0": {
                "invocation": {
                    "address": "0xb17e7e102e219450c2413a668e8f7ccad52deb3a",
                    "callData": "0x00000000000000000000000079a1f629626c9809053532803d076f21904ee85d00000000000000000000000000000000000000000000000000000002d7e406e0",
                    "decodedMethod": {
                        "callParams": [
                            {
                                "name": "_to",
                                "type": "address",
                                "value": "0x79a1f629626c9809053532803d076f21904ee85d"
                            },
                            {
                                "decimalAvailable": true,
                                "name": "_value",
                                "type": "uint256",
                                "value": "12,211,980,000"
                            }
                        ],
                        "constructorArguments": "",
                        "name": "transfer",
                        "returnParams": [],
                        "signature": "transfer(address,uint256)"
                    },
                    "errorInfo": "",
                    "fromAddress": "0x81fe7325460824cd9db9b405f7872ed163d37bc6",
                    "gasUsed": 38096,
                    "id": 0,
                    "methodDecoded": true,
                    "operation": "CALL",
                    "output": "",
                    "revert": false,
                    "revertMessage": "",
                    "selector": "0xa9059cbb",
                    "status": true,
                    "value": "0"
                },
                "nodeType": 0
            },
            "1": {
                "event": {
                    "contract": "0xb17e7e102e219450c2413a668e8f7ccad52deb3a",
                    "decodedLog": {
                        "name": "Transfer",
                        "params": [
                            {
                                "name": "from",
                                "type": "address",
                                "value": "0x81fe7325460824cd9db9b405f7872ed163d37bc6"
                            },
                            {
                                "name": "to",
                                "type": "address",
                                "value": "0x79a1f629626c9809053532803d076f21904ee85d"
                            },
                            {
                                "decimalAvailable": true,
                                "name": "value",
                                "type": "uint256",
                                "value": "12,211,980,000"
                            }
                        ],
                        "signature": "Transfer(address,address,uint256)"
                    },
                    "id": 1,
                    "logData": "0x00000000000000000000000000000000000000000000000000000002d7e406e0",
                    "logDecoded": true,
                    "operation": "EVENT",
                    "revert": false,
                    "status": true,
                    "topics": [
                        "0xddf252ad1be2c89b69c2b068fc378daa952ba7f163c4a11628f55a4df523b3ef",
                        "0x00000000000000000000000081fe7325460824cd9db9b405f7872ed163d37bc6",
                        "0x00000000000000000000000079a1f629626c9809053532803d076f21904ee85d"
                    ]
                },
                "nodeType": 1
            },
            "2": {
                "event": {
                    "contract": "0xb17e7e102e219450c2413a668e8f7ccad52deb3a",
                    "decodedLog": {
                        "name": "mylog",
                        "params": [
                            {
                                "name": "code",
                                "type": "uint256",
                                "value": "0"
                            }
                        ],
                        "signature": "mylog(uint256)"
                    },
                    "id": 2,
                    "logData": "0x0000000000000000000000000000000000000000000000000000000000000000",
                    "logDecoded": true,
                    "operation": "EVENT",
                    "revert": false,
                    "status": true,
                    "topics": [
                        "0x67631d1bdda6fede513a18dab2d7282eb1233c8a01cd01f9580aa9543dd82b32"
                    ]
                },
                "nodeType": 1
            }
        },
        "gasFlame": [
            {
                "children": [
                    {
                        "children": [
                            {
                                "children": [],
                                "depth": 0,
                                "name": "Initial Gas",
                                "value": 23128
                            },
                            {
                                "children": [],
                                "depth": 0,
                                "name": "Executed Gas",
                                "value": 14968
                            }
                        ],
                        "depth": -1,
                        "name": "Actual Gas Used",
                        "value": 38096
                    },
                    {
                        "children": [],
                        "depth": -1,
                        "name": "Refunded Gas",
                        "value": 0
                    }
                ],
                "depth": -2,
                "name": "Total Gas",
                "value": 38096
            }
        ],
        "isConfirmed": true,
        "mainTrace": [
            {
                "children": [
                    {
                        "children": [
                            {
                                "children": [],
                                "depth": 1,
                                "id": 1,
                                "order": 1
                            },
                            {
                                "children": [],
                                "depth": 1,
                                "id": 2,
                                "order": 2
                            }
                        ],
                        "depth": 0,
                        "id": 0,
                        "order": 0
                    }
                ],
                "depth": -1,
                "id": -1,
                "order": -1
            }
        ],
        "mainTraceNodeCount": 3,
        "parentIdMap": {
            "0": -1,
            "1": 0,
            "2": 0
        },
        "tidyTrace": [
            {
                "children": [
                    {
                        "children": [
                            {
                                "children": [],
                                "depth": 1,
                                "id": 1,
                                "order": 1
                            },
                            {
                                "children": [],
                                "depth": 1,
                                "id": 2,
                                "order": 2
                            }
                        ],
                        "depth": 0,
                        "id": 0,
                        "order": 0
                    }
                ],
                "depth": -1,
                "id": -1,
                "order": -1
            }
        ],
        "tidyTraceNodeCount": 3
    },
    "state_change": {
        "stateChanges": [
            {
                "address": "0xb17e7e102e219450c2413a668e8f7ccad52deb3a",
                "erc": "",
                "slots": [
                    {
                        "current": "0x0000000000000000000000000000000000000000000000000001fbc27d268900",
                        "key": "0x23262aa2bbaf7e45025b4d2bfd4003433626c0119a25132bdb79d26442da2823",
                        "prev": "0x0000000000000000000000000000000000000000000000000001fbc5550a8fe0"
                    },
                    {
                        "current": "0x0000000000000000000000000000000000000000000000000000000e7c1f7ae0",
                        "key": "0xf7e1f89889070ef8787a6054122e6d6189218d8ea130d096e02df82e602afda3",
                        "prev": "0x0000000000000000000000000000000000000000000000000000000ba43b7400"
                    }
                ],
                "storageVariables": [
                    {
                        "name": "balanceOf",
                        "type": "mapping(address => uint256)",
                        "value": {
                            "pairs": [
                                {
                                    "key": "0x79a1f629626c9809053532803d076f21904ee85d",
                                    "value": {
                                        "current": "62211980000",
                                        "prev": "50000000000",
                                        "typeTag": 1
                                    }
                                },
                                {
                                    "key": "0x81fe7325460824cd9db9b405f7872ed163d37bc6",
                                    "value": {
                                        "current": "558287718615296",
                                        "prev": "558299930595296",
                                        "typeTag": 1
                                    }
                                }
                            ],
                            "typeTag": 4
                        }
                    }
                ]
            }
        ]
    }
}