{
    "balance_change": {
        "balanceChanges": [
            {
                "account": "0x000000000000006f6502b7f2bbac8c30a3f67e9a",
                "assets": [
                    {
                        "address": "0xeeeeeeeeeeeeeeeeeeeeeeeeeeeeeeeeeeeeeeee",
                        "amount": "0.312349160655634428",
                        "iconUrl": "https://assets.blocksec.com/image/1663669189317-3.png",
                        "isERC1155": false,
                        "isERC721": false,
                        "sign": true,
                        "value": "433.3961465"
                    }
                ]
            },
            {
                "account": "0x896b94f4f27f12369698c302e2049cae86936bbb",
                "assets": [
                    {
                        "address": "0xc02aaa39b223fe8d0a0e5c4f27ead9083c756cc2",
                        "amount": "6.499820162202468352",
                        "iconUrl": "https://assets.blocksec.com/icon/f1cb2d02c471d545bbc7722daf3277fd852d98e63d118771af7047bd8256c516.png",
                        "isERC1155": false,
                        "isERC721": false,
                        "sign": true,
                        "value": "9018.743655"
                    },
                    {
                        "address": "0x31c8eacbffdd875c74b94b077895bd78cf1e64a3",
                        "amount": "759.815043620113173037",
                        "iconUrl": "",
                        "isERC1155": false,
                        "isERC721": false,
                        "sign": false,
                        "value": "8791.789567"
                    }
                ]
            },
            {
                "account": "0xa26e80e7dea86279c6d778d702cc413e6cffa777",
                "assets": [
                    {
                        "address": "0xeeeeeeeeeeeeeeeeeeeeeeeeeeeeeeeeeeeeeeee",
                        "amount": "0.00924",
                        "iconUrl": "https://assets.blocksec.com/image/1663669189317-3.png",
                        "isERC1155": false,
                        "isERC721": false,
                        "sign": true,
                        "value": "12.82084569"
                    }
                ]
            },
            {
                "account": "0xc02aaa39b223fe8d0a0e5c4f27ead9083c756cc2",
                "assets": [
                    {
                        "address": "0xeeeeeeeeeeeeeeeeeeeeeeeeeeeeeeeeeeeeeeee",
                        "amount": "0.321589160655634428",
                        "iconUrl": "https://assets.blocksec.com/image/1663669189317-3.png",
                        "isERC1155": false,
                        "isERC721": false,
                        "sign": false,
                        "value": "446.2169922"
                    },
                    {
                        "address": "0xc02aaa39b223fe8d0a0e5c4f27ead9083c756cc2",
                        "amount": "0.321589160655634428",
                        "iconUrl": "https://assets.blocksec.com/icon/f1cb2d02c471d545bbc7722daf3277fd852d98e63d118771af7047bd8256c516.png",
                        "isERC1155": false,
                        "isERC721": false,
                        "sign": true,
                        "value": "446.2169922"
                    }
                ]
            },
            {
                "account": "0xf2f98cbd5d84640a2c5cfda5c996cd830067bc95",
                "assets": [
                    {
                        "address": "0xc02aaa39b223fe8d0a0e5c4f27ead9083c756cc2",
                        "amount": "6.82140932285810278",
                        "iconUrl": "https://assets.blocksec.com/icon/f1cb2d02c471d545bbc7722daf3277fd852d98e63d118771af7047bd8256c516.png",
                        "isERC1155": false,
                        "isERC721": false,
                        "sign": false,
                        "value": "9464.960647"
                    },
                    {
                        "address": "0x31c8eacbffdd875c74b94b077895bd78cf1e64a3",
                        "amount": "759.815043620113173037",
                        "iconUrl": "",
                        "isERC1155": false,
                        "isERC721": false,
                        "sign": true,
                        "value": "8791.789567"
                    }
                ]
            }
        ]
    },
    "profile": {
        "basic_info": {
            "baseFee": "",
            "blockNumber": 11943665,
            "callData": "0x0004678b0d00ca000000005a3400000000000031c8eacbffdd875c74b94b077895bd78cf1e64a3000000896b94f4f27f12369698c302e2049cae86936bbb910bf2d50fa5e014fd06666f456182d4ab7c8bd2000000ddcbed76f4253745aa00000001e5b8fa8fe2ac000060444cd100000000000000000000000000000000000000000000000000000000603b22512b01ec5c7803224d7b3eb163c20258f04c617719b2cbd07f74947c9cba694f0cd1ade63e3b624b29f493f5b5209d7db08b671e8c3f6ce989a53310a19809b1f6aec1551802ec004000b9019d70160fd1c632ea0660870b2a7ae9a4c1e51d244b34e000f2f98cbd5d84640a2c5cfda5c996cd830067bc95",
            "debugEnable": true,
            "errorInfo": "",
            "eventCount": 9,
            "feeRecipient": "0x1ad91ee08f21be3de0ba2ba6918e714da6b45836",
            "formatValue": "0",
            "gasLimit": 450000,
            "gasPrice": "132",
            "gasUsed": 212420,
            "intTxnCount": 22,
            "internalRevert": false,
            "internalRevertMessage": "",
            "isContractCreation": false,
            "isFlashloan": false,
            "maxFee": "",
            "nonce": 2036,
            "overwritedBlockNumber": -1,
            "priorityFee": "",
            "receiver": "0x000000000000006f6502b7f2bbac8c30a3f67e9a",
            "revertMessage": "",
            "sender": "0x000000182626cb0fdf05798c06aa8ab3dc7e72be",
            "simulationEnable": true,
            "sourceTxnHash": "0xf9b223f95ee4708f1f68cdda6ccde73cc8fe5fdb75792356638be3d601d7bba5",
            "status": true,
            "timestamp": "2021-02-28T04:18:03Z",
            "transactionFee": "0.02803944",
            "txnHash": "0xf9b223f95ee4708f1f68cdda6ccde73cc8fe5fdb75792356638be3d601d7bba5",
            "txnIndex": 99,
            "type": 0,
            "value": "0"
        },
        "fund_flow": [
            {
                "amount": "6.499820162202468352",
                "from": "0x000000000000006f6502b7f2bbac8c30a3f67e9a",
                "id": 1,
                "isERC1155": false,
                "isERC721": false,
                "isReverted": false,
                "order": 1,
                "to": "0xc02aaa39b223fe8d0a0e5c4f27ead9083c756cc2",
                "token": "0xeeeeeeeeeeeeeeeeeeeeeeeeeeeeeeeeeeeeeeee"
            },
            {
                "amount": "6.499820162202468352",
                "from": "0xc02aaa39b223fe8d0a0e5c4f27ead9083c756cc2",
                "id": 2,
                "isERC1155": false,
                "isERC721": false,
                "isReverted": false,
                "order": 2,
                "to": "0x000000000000006f6502b7f2bbac8c30a3f67e9a",
                "token": "0xc02aaa39b223fe8d0a0e5c4f27ead9083c756cc2"
            },
            {
                "amount": "0.00924",
                "from": "0x000000000000006f6502b7f2bbac8c30a3f67e9a",
                "id": 3,
                "isERC1155": false,
                "isERC721": false,
                "isReverted": false,
                "order": 3,
                "to": "0x61935cbdd02287b511119ddb11aeb42f1593b7ef",
                "token": "0xeeeeeeeeeeeeeeeeeeeeeeeeeeeeeeeeeeeeeeee"
            },
            {
                "amount": "6.499820162202468352",
                "from": "0x000000000000006f6502b7f2bbac8c30a3f67e9a",
                "id": 4,
                "isERC1155": false,
                "isERC721": false,
                "isReverted": false,
                "order": 4,
                "to": "0x896b94f4f27f12369698c302e2049cae86936bbb",
                "token": "0xc02aaa39b223fe8d0a0e5c4f27ead9083c756cc2"
            },
            {
                "amount": "759.815043620113173037",
                "from": "0x896b94f4f27f12369698c302e2049cae86936bbb",
                "id": 5,
                "isERC1155": false,
                "isERC721": false,
                "isReverted": false,
                "order": 5,
                "to": "0x000000000000006f6502b7f2bbac8c30a3f67e9a",
                "token": "0x31c8eacbffdd875c74b94b077895bd78cf1e64a3"
            },
            {
                "amount": "0.00924",
                "from": "0x61935cbdd02287b511119ddb11aeb42f1593b7ef",
                "id": 6,
                "isERC1155": false,
                "isERC721": false,
                "isReverted": false,
                "order": 6,
                "to": "0xa26e80e7dea86279c6d778d702cc413e6cffa777",
                "token": "0xeeeeeeeeeeeeeeeeeeeeeeeeeeeeeeeeeeeeeeee"
            },
            {
                "amount": "759.815043620113173037",
                "from": "0x000000000000006f6502b7f2bbac8c30a3f67e9a",
                "id": 7,
                "isERC1155": false,
                "isERC721": false,
                "isReverted": false,
                "order": 7,
                "to": "0xf2f98cbd5d84640a2c5cfda5c996cd830067bc95",
                "token": "0x31c8eacbffdd875c74b94b077895bd78cf1e64a3"
            },
            {
                "amount": "6.82140932285810278",
                "from": "0xf2f98cbd5d84640a2c5cfda5c996cd830067bc95",
                "id": 8,
                "isERC1155": false,
                "isERC721": false,
                "isReverted": false,
                "order": 8,
                "to": "0x000000000000006f6502b7f2bbac8c30a3f67e9a",
                "token": "0xc02aaa39b223fe8d0a0e5c4f27ead9083c756cc2"
            },
            {
                "amount": "6.82140932285810278",
                "from": "0xc02aaa39b223fe8d0a0e5c4f27ead9083c756cc2",
                "id": 9,
                "isERC1155": false,
                "isERC721": false,
                "isReverted": false,
                "order": 9,
                "to": "0x000000000000006f6502b7f2bbac8c30a3f67e9a",
                "token": "0xeeeeeeeeeeeeeeeeeeeeeeeeeeeeeeeeeeeeeeee"
            },
            {
                "amount": "6.82140932285810278",
                "from": "0x000000000000006f6502b7f2bbac8c30a3f67e9a",
                "id": 10,
                "isERC1155": false,
                "isERC721": false,
                "isReverted": false,
                "order": 10,
                "to": "0xc02aaa39b223fe8d0a0e5c4f27ead9083c756cc2",
                "token": "0xc02aaa39b223fe8d0a0e5c4f27ead9083c756cc2"
            }
        ],
        "token_infos": [
            {
                "address": "0x31c8eacbffdd875c74b94b077895bd78cf1e64a3",
                "decimals": 18
            },
            {
                "address": "0xc02aaa39b223fe8d0a0e5c4f27ead9083c756cc2",
                "decimals": 18
            },
            {
                "address": "0xeeeeeeeeeeeeeeeeeeeeeeeeeeeeeeeeeeeeeeee",
                "decimals": 18
            }
        ]
    },
    "address_label": {
        "labels": [
            {
                "address": "0xc02aaa39b223fe8d0a0e5c4f27ead9083c756cc2",
                "label": "Wrapped Ether (WETH)"
            },
            {
                "address": "0x95e6f48254609a6ee006f7d493c8e5fb97094cef",
                "label": "0x: ERC20 Proxy V3"
            },
            {
                "address": "0x000000000000006f6502b7f2bbac8c30a3f67e9a",
                "label": "MEV Bot: 0x000...E9a"
            },
            {
                "address": "0x31c8eacbffdd875c74b94b077895bd78cf1e64a3",
                "label": "Radicle (RAD)"
            },
            {
                "address": "0xeeeeeeeeeeeeeeeeeeeeeeeeeeeeeeeeeeeeeeee",
                "label": "Ether"
            },
            {
                "address": "0xa26e80e7dea86279c6d778d702cc413e6cffa777",
                "label": "0x: Staking Proxy V3"
            },
            {
                "address": "0x0000000000000000000000000000000000000002",
                "label": "Precompiled"
            },
            {
                "address": "0x61935cbdd02287b511119ddb11aeb42f1593b7ef",
                "label": "0x: Exchange v3"
            },
            {
                "address": "0xf2f98cbd5d84640a2c5cfda5c996cd830067bc95",
                "label": "Uniswap V2: RAD 2"
            },
            {
                "address": "0x0000000000000000000000000000000000000000",
                "label": "Null Address"
            },
            {
                "address": "0x0000000000000000000000000000000000000001",
                "label": "Precompiled"
            },
            {
                "address": "0x0000000000000000000000000000000000000003",
                "label": "Precompiled"
            },
            {
                "address": "0x2a17c35ff147b32f13f19f2e311446eeb02503f3",
                "label": "0x: Staking"
            },
            {
                "address": "0x0000000000000000000000000000000000000004",
                "label": "Precompiled"
            }
        ]
    },
    "trace": {
        "accountLabels": null,
        "dataMap": {
            "-1": {
                "invocation": {
                    "address": "0x000000182626cb0fdf05798c06aa8ab3dc7e72be",
                    "callData": "",
                    "decodedMethod": null,
                    "errorInfo": "",
                    "fromAddress": "",
                    "gasUsed": 0,
                    "id": -1,
                    "methodDecoded": false,
                    "operation": "",
                    "output": "",
                    "revert": false,
                    "revertMessage": "",
                    "selector": "",
                    "status": false,
                    "value": ""
                },
                "nodeType": 0
            },
            "0": {
                "invocation": {
                    "address": "0x000000000000006f6502b7f2bbac8c30a3f67e9a",
                    "callData": "0x0d00ca000000005a3400000000000031c8eacbffdd875c74b94b077895bd78cf1e64a3000000896b94f4f27f12369698c302e2049cae86936bbb910bf2d50fa5e014fd06666f456182d4ab7c8bd2000000ddcbed76f4253745aa00000001e5b8fa8fe2ac000060444cd100000000000000000000000000000000000000000000000000000000603b22512b01ec5c7803224d7b3eb163c20258f04c617719b2cbd07f74947c9cba694f0cd1ade63e3b624b29f493f5b5209d7db08b671e8c3f6ce989a53310a19809b1f6aec1551802ec004000b9019d70160fd1c632ea0660870b2a7ae9a4c1e51d244b34e000f2f98cbd5d84640a2c5cfda5c996cd830067bc95",
                    "decodedMethod": null,
                    "errorInfo": "",
                    "fromAddress": "0x000000182626cb0fdf05798c06aa8ab3dc7e72be",
                    "gasUsed": 212420,
                    "id": 0,
                    "methodDecoded": false,
                    "operation": "CALL",
                    "output": "0x0000000000000000000000000000000000000000000000000000000000000000",
                    "revert": false,
                    "revertMessage": "",
                    "selector": "0x0004678b",
                    "status": true,
                    "value": "0"
                },
                "nodeType": 0
            },
            "1": {
                "invocation": {
                    "address": "0x61935cbdd02287b511119ddb11aeb42f1593b7ef",
                    "callData": "0xec5c7803224d7b3eb163c20258f04c617719b2cbd07f74947c9cba694f0cd1ad",
                    "decodedMethod": {
                        "callParams": [
                            {
                                "name": "",
                                "type": "bytes32",
                                "value": "0xec5c7803224d7b3eb163c20258f04c617719b2cbd07f74947c9cba694f0cd1ad"
                            }
                        ],
                        "constructorArguments": "",
                        "name": "filled",
                        "returnParams": [
                            {
                                "name": "",
                                "type": "uint256",
                                "value": "7,319,113,128,153,326,942"
                            }
                        ],
                        "signature": "filled(bytes32)"
                    },
                    "errorInfo": "",
                    "fromAddress": "0x000000000000006f6502b7f2bbac8c30a3f67e9a",
                    "gasUsed": 1284,
                    "id": 1,
                    "methodDecoded": true,
                    "operation": "STATICCALL",
                    "output": "0x0000000000000000000000000000000000000000000000006592b69c9a7a255e",
                    "revert": false,
                    "revertMessage": "",
                    "selector": "0x288cdc91",
                    "status": true,
                    "value": "0"
                },
                "nodeType": 0
            },
            "10": {
                "invocation": {
                    "address": "0x0000000000000000000000000000000000000001",
                    "callData": "0x224d7b3eb163c20258f04c617719b2cbd07f74947c9cba694f0cd1ad000000000000000000000000000000000000000000000000000000000000001ccd1510496002dfb8de9e0bb6569ba04c35a71447c2a28e183b8ab3229add85ea7e3329c72b6b2b922ab65b3d24faed19c12d4bac200151c28feace360f601fcb",
                    "decodedMethod": {
                        "callParams": [
                            {
                                "name": "hash",
                                "type": "bytes32",
                                "value": "0xec5c7803224d7b3eb163c20258f04c617719b2cbd07f74947c9cba694f0cd1ad"
                            },
                            {
                                "name": "v",
                                "type": "uint256",
                                "value": "28"
                            },
                            {
                                "name": "r",
                                "type": "bytes32",
                                "value": "0xcd1510496002dfb8de9e0bb6569ba04c35a71447c2a28e183b8ab3229add85ea"
                            },
                            {
                                "name": "s",
                                "type": "bytes32",
                                "value": "0x7e3329c72b6b2b922ab65b3d24faed19c12d4bac200151c28feace360f601fcb"
                            }
                        ],
                        "constructorArguments": "",
                        "name": "ecrecover",
                        "returnParams": [
                            {
                                "name": "",
                                "type": "address",
                                "value": "0x896b94f4f27f12369698c302e2049cae86936bbb"
                            }
                        ],
                        "signature": "ecrecover(bytes32,uint256,bytes32,bytes32)"
                    },
                    "errorInfo": "",
                    "fromAddress": "0x61935cbdd02287b511119ddb11aeb42f1593b7ef",
                    "gasUsed": 3000,
                    "id": 10,
                    "methodDecoded": true,
                    "operation": "STATICCALL",
                    "output": "0x000000000000000000000000896b94f4f27f12369698c302e2049cae86936bbb",
                    "revert": false,
                    "revertMessage": "",
                    "selector": "0xec5c7803",
                    "status": true,
                    "value": "0"
                },
                "nodeType": 0
            },
            "11": {
                "event": {
                    "contract": "0x61935cbdd02287b511119ddb11aeb42f1593b7ef",
                    "decodedLog": {
                        "name": "Fill",
                        "params": [
                            {
                                "name": "makerAddress",
                                "type": "address",
                                "value": "0x896b94f4f27f12369698c302e2049cae86936bbb"
                            },
                            {
                                "name": "feeRecipientAddress",
                                "type": "address",
                                "value": "0x910bf2d50fa5e014fd06666f456182d4ab7c8bd2"
                            },
                            {
                                "name": "orderHash",
                                "type": "bytes32",
                                "value": "0xec5c7803224d7b3eb163c20258f04c617719b2cbd07f74947c9cba694f0cd1ad"
                            },
                            {
                                "name": "makerAssetData",
                                "type": "bytes",
                                "value": "0xf47261b000000000000000000000000031c8eacbffdd875c74b94b077895bd78cf1e64a3"
                            },
                            {
                                "name": "takerAssetData",
                                "type": "bytes",
                                "value": "0xf47261b0000000000000000000000000c02aaa39b223fe8d0a0e5c4f27ead9083c756cc2"
                            },
                            {
                                "name": "makerFeeAssetData",
                                "type": "bytes",
                                "value": "0x"
                            },
                            {
                                "name": "takerFeeAssetData",
                                "type": "bytes",
                                "value": "0x"
                            },
                            {
                                "name": "takerAddress",
                                "type": "address",
                                "value": "0x000000000000006f6502b7f2bbac8c30a3f67e9a"
                            },
                            {
                                "name": "senderAddress",
                                "type": "address",
                                "value": "0x000000000000006f6502b7f2bbac8c30a3f67e9a"
                            },
                            {
                                "name": "makerAssetFilledAmount",
                                "type": "uint256",
                                "value": "759,815,043,620,113,173,037"
                            },
                            {
                                "name": "takerAssetFilledAmount",
                                "type": "uint256",
                                "value": "6,499,820,162,202,468,352"
                            },
                            {
                                "name": "makerFeePaid",
                                "type": "uint256",
                                "value": "0"
                            },
                            {
                                "name": "takerFeePaid",
                                "type": "uint256",
                                "value": "0"
                            },
                            {
                                "name": "protocolFeePaid",
                                "type": "uint256",
                                "value": "9,240,000,000,000,000"
                            }
                        ],
                        "signature": "Fill(address,address,bytes,bytes,bytes,bytes,bytes32,address,address,uint256,uint256,uint256,uint256,uint256)"
                    },
                    "id": 11,
                    "logData": "0x000000000000000000000000000000000000000000000000000000000000016000000000000000000000000000000000000000000000000000000000000001c000000000000000000000000000000000000000000000000000000000000002200000000000000000000000000000000000000000000000000000000000000240000000000000000000000000000000000000006f6502b7f2bbac8c30a3f67e9a000000000000000000000000000000000000006f6502b7f2bbac8c30a3f67e9a000000000000000000000000000000000000000000000029308d4c7ff6c74a2d0000000000000000000000000000000000000000000000005a34000000000000000000000000000000000000000000000000000000000000000000000000000000000000000000000000000000000000000000000000000000000000000000000000000000000000000000000000000000000000000000000020d3bb25b980000000000000000000000000000000000000000000000000000000000000000024f47261b000000000000000000000000031c8eacbffdd875c74b94b077895bd78cf1e64a3000000000000000000000000000000000000000000000000000000000000000000000000000000000000000000000000000000000000000000000024f47261b0000000000000000000000000c02aaa39b223fe8d0a0e5c4f27ead9083c756cc20000000000000000000000000000000000000000000000000000000000000000000000000000000000000000000000000000000000000000000000000000000000000000000000000000000000000000000000000000000000000000",
                    "logDecoded": true,
                    "operation": "EVENT",
                    "revert": false,
                    "status": true,
                    "topics": [
                        "0x6869791f0a34781b29882982cc39e882768cf2c96995c2a110c577c53bc932d5",
                        "0x000000000000000000000000896b94f4f27f12369698c302e2049cae86936bbb",
                        "0x000000000000000000000000910bf2d50fa5e014fd06666f456182d4ab7c8bd2",
                        "0xec5c7803224d7b3eb163c20258f04c617719b2cbd07f74947c9cba694f0cd1ad"
                    ]
                },
                "nodeType": 1
            },
            "12": {
                "invocation": {
                    "address": "0x95e6f48254609a6ee006f7d493c8e5fb97094cef",
                    "callData": "0x0000000000000000000000000000000000000000000000000000000000000080000000000000000000000000000000000000006f6502b7f2bbac8c30a3f67e9a000000000000000000000000896b94f4f27f12369698c302e2049cae86936bbb0000000000000000000000000000000000000000000000005a340000000000000000000000000000000000000000000000000000000000000000000000000024f47261b0000000000000000000000000c02aaa39b223fe8d0a0e5c4f27ead9083c756cc200000000000000000000000000000000000000000000000000000000",
                    "decodedMethod": {
                        "callParams": [
                            {
                                "name": "assetData",
                                "type": "bytes",
                                "value": "0xf47261b0000000000000000000000000c02aaa39b223fe8d0a0e5c4f27ead9083c756cc2"
                            },
                            {
                                "name": "from",
                                "type": "address",
                                "value": "0x000000000000006f6502b7f2bbac8c30a3f67e9a"
                            },
                            {
                                "name": "to",
                                "type": "address",
                                "value": "0x896b94f4f27f12369698c302e2049cae86936bbb"
                            },
                            {
                                "name": "amount",
                                "type": "uint256",
                                "value": "6,499,820,162,202,468,352"
                            }
                        ],
                        "constructorArguments": "",
                        "name": "transferFrom",
                        "returnParams": [],
                        "signature": "transferFrom(bytes,address,address,uint256)"
                    },
                    "errorInfo": "",
                    "fromAddress": "0x61935cbdd02287b511119ddb11aeb42f1593b7ef",
                    "gasUsed": 13879,
                    "id": 12,
                    "methodDecoded": true,
                    "operation": "CALL",
                    "output": "",
                    "revert": false,
                    "revertMessage": "",
                    "selector": "0xa85e59e4",
                    "status": true,
                    "value": "0"
                },
                "nodeType": 0
            },
            "13": {
                "invocation": {
                    "address": "0xc02aaa39b223fe8d0a0e5c4f27ead9083c756cc2",
                    "callData": "0x000000000000000000000000000000000000006f6502b7f2bbac8c30a3f67e9a000000000000000000000000896b94f4f27f12369698c302e2049cae86936bbb0000000000000000000000000000000000000000000000005a34000000000000",
                    "decodedMethod": {
                        "callParams": [
                            {
                                "name": "src",
                                "type": "address",
                                "value": "0x000000000000006f6502b7f2bbac8c30a3f67e9a"
                            },
                            {
                                "name": "dst",
                                "type": "address",
                                "value": "0x896b94f4f27f12369698c302e2049cae86936bbb"
                            },
                            {
                                "decimalAvailable": true,
                                "name": "wad",
                                "type": "uint256",
                                "value": "6,499,820,162,202,468,352"
                            }
                        ],
                        "constructorArguments": "",
                        "name": "transferFrom",
                        "returnParams": [
                            {
                                "name": "",
                                "type": "bool",
                                "value": true
                            }
                        ],
                        "signature": "transferFrom(address,address,uint256)"
                    },
                    "errorInfo": "",
                    "fromAddress": "0x95e6f48254609a6ee006f7d493c8e5fb97094cef",
                    "gasUsed": 11825,
                    "id": 13,
                    "methodDecoded": true,
                    "operation": "CALL",
                    "output": "0x0000000000000000000000000000000000000000000000000000000000000001",
                    "revert": false,
                    "revertMessage": "",
                    "selector": "0x23b872dd",
                    "status": true,
                    "value": "0"
                },
                "nodeType": 0
            },
            "14": {
                "event": {
                    "contract": "0xc02aaa39b223fe8d0a0e5c4f27ead9083c756cc2",
                    "decodedLog": {
                        "name": "Transfer",
                        "params": [
                            {
                                "name": "src",
                                "type": "address",
                                "value": "0x000000000000006f6502b7f2bbac8c30a3f67e9a"
                            },
                            {
                                "name": "dst",
                                "type": "address",
                                "value": "0x896b94f4f27f12369698c302e2049cae86936bbb"
                            },
                            {
                                "decimalAvailable": true,
                                "name": "wad",
                                "type": "uint256",
                                "value": "6,499,820,162,202,468,352"
                            }
                        ],
                        "signature": "Transfer(address,address,uint256)"
                    },
                    "id": 14,
                    "logData": "0x0000000000000000000000000000000000000000000000005a34000000000000",
                    "logDecoded": true,
                    "operation": "EVENT",
                    "revert": false,
                    "status": true,
                    "topics": [
                        "0xddf252ad1be2c89b69c2b068fc378daa952ba7f163c4a11628f55a4df523b3ef",
                        "0x000000000000000000000000000000000000006f6502b7f2bbac8c30a3f67e9a",
                        "0x000000000000000000000000896b94f4f27f12369698c302e2049cae86936bbb"
                    ]
                },
                "nodeType": 1
            },
            "15": {
                "invocation": {
                    "address": "0x95e6f48254609a6ee006f7d493c8e5fb97094cef",
                    "callData": "0x0000000000000000000000000000000000000000000000000000000000000080000000000000000000000000896b94f4f27f12369698c302e2049cae86936bbb000000000000000000000000000000000000006f6502b7f2bbac8c30a3f67e9a000000000000000000000000000000000000000000000029308d4c7ff6c74a2d0000000000000000000000000000000000000000000000000000000000000024f47261b000000000000000000000000031c8eacbffdd875c74b94b077895bd78cf1e64a300000000000000000000000000000000000000000000000000000000",
                    "decodedMethod": {
                        "callParams": [
                            {
                                "name": "assetData",
                                "type": "bytes",
                                "value": "0xf47261b000000000000000000000000031c8eacbffdd875c74b94b077895bd78cf1e64a3"
                            },
                            {
                                "name": "from",
                                "type": "address",
                                "value": "0x896b94f4f27f12369698c302e2049cae86936bbb"
                            },
                            {
                                "name": "to",
                                "type": "address",
                                "value": "0x000000000000006f6502b7f2bbac8c30a3f67e9a"
                            },
                            {
                                "name": "amount",
                                "type": "uint256",
                                "value": "759,815,043,620,113,173,037"
                            }
                        ],
                        "constructorArguments": "",
                        "name": "transferFrom",
                        "returnParams": [],
                        "signature": "transferFrom(bytes,address,address,uint256)"
                    },
                    "errorInfo": "",
                    "fromAddress": "0x61935cbdd02287b511119ddb11aeb42f1593b7ef",
                    "gasUsed": 36971,
                    "id": 15,
                    "methodDecoded": true,
                    "operation": "CALL",
                    "output": "",
                    "revert": false,
                    "revertMessage": "",
                    "selector": "0xa85e59e4",
                    "status": true,
                    "value": "0"
                },
                "nodeType": 0
            },
            "16": {
                "invocation": {
                    "address": "0x31c8eacbffdd875c74b94b077895bd78cf1e64a3",
                    "callData": "0x000000000000000000000000896b94f4f27f12369698c302e2049cae86936bbb000000000000000000000000000000000000006f6502b7f2bbac8c30a3f67e9a000000000000000000000000000000000000000000000029308d4c7ff6c74a2d",
                    "decodedMethod": {
                        "callParams": [
                            {
                                "name": "src",
                                "type": "address",
                                "value": "0x896b94f4f27f12369698c302e2049cae86936bbb"
                            },
                            {
                                "name": "dst",
                                "type": "address",
                                "value": "0x000000000000006f6502b7f2bbac8c30a3f67e9a"
                            },
                            {
                                "decimalAvailable": true,
                                "name": "rawAmount",
                                "type": "uint256",
                                "value": "759,815,043,620,113,173,037"
                            }
                        ],
                        "constructorArguments": "",
                        "name": "transferFrom",
                        "returnParams": [
                            {
                                "name": "",
                                "type": "bool",
                                "value": true
                            }
                        ],
                        "signature": "transferFrom(address,address,uint256)"
                    },
                    "errorInfo": "",
                    "fromAddress": "0x95e6f48254609a6ee006f7d493c8e5fb97094cef",
                    "gasUsed": 34917,
                    "id": 16,
                    "methodDecoded": true,
                    "operation": "CALL",
                    "output": "0x0000000000000000000000000000000000000000000000000000000000000001",
                    "revert": false,
                    "revertMessage": "",
                    "selector": "0x23b872dd",
                    "status": true,
                    "value": "0"
                },
                "nodeType": 0
            },
            "17": {
                "event": {
                    "contract": "0x31c8eacbffdd875c74b94b077895bd78cf1e64a3",
                    "decodedLog": {
                        "name": "Transfer",
                        "params": [
                            {
                                "name": "from",
                                "type": "address",
                                "value": "0x896b94f4f27f12369698c302e2049cae86936bbb"
                            },
                            {
                                "name": "to",
                                "type": "address",
                                "value": "0x000000000000006f6502b7f2bbac8c30a3f67e9a"
                            },
                            {
                                "decimalAvailable": true,
                                "name": "amount",
                                "type": "uint256",
                                "value": "759,815,043,620,113,173,037"
                            }
                        ],
                        "signature": "Transfer(address,address,uint256)"
                    },
                    "id": 17,
                    "logData": "0x000000000000000000000000000000000000000000000029308d4c7ff6c74a2d",
                    "logDecoded": true,
                    "operation": "EVENT",
                    "revert": false,
                    "status": true,
                    "topics": [
                        "0xddf252ad1be2c89b69c2b068fc378daa952ba7f163c4a11628f55a4df523b3ef",
                        "0x000000000000000000000000896b94f4f27f12369698c302e2049cae86936bbb",
                        "0x000000000000000000000000000000000000006f6502b7f2bbac8c30a3f67e9a"
                    ]
                },
                "nodeType": 1
            },
            "18": {
                "invocation": {
                    "address": "0xa26e80e7dea86279c6d778d702cc413e6cffa777",
                    "callData": "0x000000000000000000000000896b94f4f27f12369698c302e2049cae86936bbb000000000000000000000000000000000000006f6502b7f2bbac8c30a3f67e9a0000000000000000000000000000000000000000000000000020d3bb25b98000",
                    "decodedMethod": {
                        "callParams": [
                            {
                                "name": "makerAddress",
                                "type": "address",
                                "value": "0x896b94f4f27f12369698c302e2049cae86936bbb"
                            },
                            {
                                "name": "payerAddress",
                                "type": "address",
                                "value": "0x000000000000006f6502b7f2bbac8c30a3f67e9a"
                            },
                            {
                                "name": "protocolFee",
                                "type": "uint256",
                                "value": "9,240,000,000,000,000"
                            }
                        ],
                        "constructorArguments": "",
                        "name": "payProtocolFee",
                        "returnParams": [],
                        "signature": "payProtocolFee(address,address,uint256)"
                    },
                    "errorInfo": "",
                    "fromAddress": "0x61935cbdd02287b511119ddb11aeb42f1593b7ef",
                    "gasUsed": 4328,
                    "id": 18,
                    "methodDecoded": true,
                    "operation": "CALL",
                    "output": "",
                    "revert": false,
                    "revertMessage": "",
                    "selector": "0xa3b4a327",
                    "status": true,
                    "value": "0.00924"
                },
                "nodeType": 0
            },
            "19": {
                "invocation": {
                    "address": "0x2a17c35ff147b32f13f19f2e311446eeb02503f3",
                    "callData": "0x000000000000000000000000896b94f4f27f12369698c302e2049cae86936bbb000000000000000000000000000000000000006f6502b7f2bbac8c30a3f67e9a0000000000000000000000000000000000000000000000000020d3bb25b98000",
                    "decodedMethod": {
                        "callParams": [
                            {
                                "name": "makerAddress",
                                "type": "address",
                                "value": "0x896b94f4f27f12369698c302e2049cae86936bbb"
                            },
                            {
                                "name": "payerAddress",
                                "type": "address",
                                "value": "0x000000000000006f6502b7f2bbac8c30a3f67e9a"
                            },
                            {
                                "name": "protocolFee",
                                "type": "uint256",
                                "value": "9,240,000,000,000,000"
                            }
                        ],
                        "constructorArguments": "",
                        "name": "payProtocolFee",
                        "returnParams": [],
                        "signature": "payProtocolFee(address,address,uint256)"
                    },
                    "errorInfo": "",
                    "fromAddress": "0xa26e80e7dea86279c6d778d702cc413e6cffa777",
                    "gasUsed": 2356,
                    "id": 19,
                    "methodDecoded": true,
                    "operation": "DELEGATECALL",
                    "output": "",
                    "revert": false,
                    "revertMessage": "",
                    "selector": "0xa3b4a327",
                    "status": true,
                    "value": "0.00924"
                },
                "nodeType": 0
            },
            "2": {
                "invocation": {
                    "address": "0x61935cbdd02287b511119ddb11aeb42f1593b7ef",
                    "callData": "0x000000000000000000000000896b94f4f27f12369698c302e2049cae86936bbb0000000000000000000000000000000000000000000000000000000000000000",
                    "decodedMethod": {
                        "callParams": [
                            {
                                "name": "",
                                "type": "address",
                                "value": "0x896b94f4f27f12369698c302e2049cae86936bbb"
                            },
                            {
                                "name": "",
                                "type": "address",
                                "value": "0x0000000000000000000000000000000000000000"
                            }
                        ],
                        "constructorArguments": "",
                        "name": "orderEpoch",
                        "returnParams": [
                            {
                                "name": "",
                                "type": "uint256",
                                "value": "1,614,416,272"
                            }
                        ],
                        "signature": "orderEpoch(address,address)"
                    },
                    "errorInfo": "",
                    "fromAddress": "0x000000000000006f6502b7f2bbac8c30a3f67e9a",
                    "gasUsed": 1523,
                    "id": 2,
                    "methodDecoded": true,
                    "operation": "STATICCALL",
                    "output": "0x00000000000000000000000000000000000000000000000000000000603a0990",
                    "revert": false,
                    "revertMessage": "",
                    "selector": "0xd9bfa73e",
                    "status": true,
                    "value": "0"
                },
                "nodeType": 0
            },
            "20": {
                "invocation": {
                    "address": "0x31c8eacbffdd875c74b94b077895bd78cf1e64a3",
                    "callData": "0x000000000000000000000000f2f98cbd5d84640a2c5cfda5c996cd830067bc95000000000000000000000000000000000000000000000029308d4c7ff6c74a2d",
                    "decodedMethod": {
                        "callParams": [
                            {
                                "name": "dst",
                                "type": "address",
                                "value": "0xf2f98cbd5d84640a2c5cfda5c996cd830067bc95"
                            },
                            {
                                "decimalAvailable": true,
                                "name": "rawAmount",
                                "type": "uint256",
                                "value": "759,815,043,620,113,173,037"
                            }
                        ],
                        "constructorArguments": "",
                        "name": "transfer",
                        "returnParams": [
                            {
                                "name": "",
                                "type": "bool",
                                "value": true
                            }
                        ],
                        "signature": "transfer(address,uint256)"
                    },
                    "errorInfo": "",
                    "fromAddress": "0x000000000000006f6502b7f2bbac8c30a3f67e9a",
                    "gasUsed": 14501,
                    "id": 20,
                    "methodDecoded": true,
                    "operation": "CALL",
                    "output": "0x0000000000000000000000000000000000000000000000000000000000000001",
                    "revert": false,
                    "revertMessage": "",
                    "selector": "0xa9059cbb",
                    "status": true,
                    "value": "0"
                },
                "nodeType": 0
            },
            "21": {
                "event": {
                    "contract": "0x31c8eacbffdd875c74b94b077895bd78cf1e64a3",
                    "decodedLog": {
                        "name": "Transfer",
                        "params": [
                            {
                                "name": "from",
                                "type": "address",
                                "value": "0x000000000000006f6502b7f2bbac8c30a3f67e9a"
                            },
                            {
                                "name": "to",
                                "type": "address",
                                "value": "0xf2f98cbd5d84640a2c5cfda5c996cd830067bc95"
                            },
                            {
                                "decimalAvailable": true,
                                "name": "amount",
                                "type": "uint256",
                                "value": "759,815,043,620,113,173,037"
                            }
                        ],
                        "signature": "Transfer(address,address,uint256)"
                    },
                    "id": 21,
                    "logData": "0x000000000000000000000000000000000000000000000029308d4c7ff6c74a2d",
                    "logDecoded": true,
                    "operation": "EVENT",
                    "revert": false,
                    "status": true,
                    "topics": [
                        "0xddf252ad1be2c89b69c2b068fc378daa952ba7f163c4a11628f55a4df523b3ef",
                        "0x000000000000000000000000000000000000006f6502b7f2bbac8c30a3f67e9a",
                        "0x000000000000000000000000f2f98cbd5d84640a2c5cfda5c996cd830067bc95"
                    ]
                },
                "nodeType": 1
            },
            "22": {
                "invocation": {
                    "address": "0xf2f98cbd5d84640a2c5cfda5c996cd830067bc95",
                    "callData": "0x00000000000000000000000000000000000000000000000000000000000000000000000000000000000000000000000000000000000000005eaa83a3447ebffc000000000000000000000000000000000000006f6502b7f2bbac8c30a3f67e9a0000000000000000000000000000000000000000000000000000000000000000",
                    "decodedMethod": {
                        "callParams": [
                            {
                                "name": "amount0Out",
                                "type": "uint256",
                                "value": "0"
                            },
                            {
                                "name": "amount1Out",
                                "type": "uint256",
                                "value": "6,821,409,322,858,102,780"
                            },
                            {
                                "name": "to",
                                "type": "address",
                                "value": "0x000000000000006f6502b7f2bbac8c30a3f67e9a"
                            },
                            {
                                "name": "data",
                                "type": "bytes",
                                "value": "0x"
                            }
                        ],
                        "constructorArguments": "",
                        "name": "swap",
                        "returnParams": [],
                        "signature": "swap(uint256,uint256,address,bytes)"
                    },
                    "errorInfo": "",
                    "fromAddress": "0x000000000000006f6502b7f2bbac8c30a3f67e9a",
                    "gasUsed": 44811,
                    "id": 22,
                    "methodDecoded": true,
                    "operation": "CALL",
                    "output": "",
                    "revert": false,
                    "revertMessage": "",
                    "selector": "0x022c0d9f",
                    "status": true,
                    "value": "0"
                },
                "nodeType": 0
            },
            "23": {
                "invocation": {
                    "address": "0xc02aaa39b223fe8d0a0e5c4f27ead9083c756cc2",
                    "callData": "0x000000000000000000000000000000000000006f6502b7f2bbac8c30a3f67e9a0000000000000000000000000000000000000000000000005eaa83a3447ebffc",
                    "decodedMethod": {
                        "callParams": [
                            {
                                "name": "dst",
                                "type": "address",
                                "value": "0x000000000000006f6502b7f2bbac8c30a3f67e9a"
                            },
                            {
                                "decimalAvailable": true,
                                "name": "wad",
                                "type": "uint256",
                                "value": "6,821,409,322,858,102,780"
                            }
                        ],
                        "constructorArguments": "",
                        "name": "transfer",
                        "returnParams": [
                            {
                                "name": "",
                                "type": "bool",
                                "value": true
                            }
                        ],
                        "signature": "transfer(address,uint256)"
                    },
                    "errorInfo": "",
                    "fromAddress": "0xf2f98cbd5d84640a2c5cfda5c996cd830067bc95",
                    "gasUsed": 15162,
                    "id": 23,
                    "methodDecoded": true,
                    "operation": "CALL",
                    "output": "0x0000000000000000000000000000000000000000000000000000000000000001",
                    "revert": false,
                    "revertMessage": "",
                    "selector": "0xa9059cbb",
                    "status": true,
                    "value": "0"
                },
                "nodeType": 0
            },
            "24": {
                "event": {
                    "contract": "0xc02aaa39b223fe8d0a0e5c4f27ead9083c756cc2",
                    "decodedLog": {
                        "name": "Transfer",
                        "params": [
                            {
                                "name": "src",
                                "type": "address",
                                "value": "0xf2f98cbd5d84640a2c5cfda5c996cd830067bc95"
                            },
                            {
                                "name": "dst",
                                "type": "address",
                                "value": "0x000000000000006f6502b7f2bbac8c30a3f67e9a"
                            },
                            {
                                "decimalAvailable": true,
                                "name": "wad",
                                "type": "uint256",
                                "value": "6,821,409,322,858,102,780"
                            }
                        ],
                        "signature": "Transfer(address,address,uint256)"
                    },
                    "id": 24,
                    "logData": "0x0000000000000000000000000000000000000000000000005eaa83a3447ebffc",
                    "logDecoded": true,
                    "operation": "EVENT",
                    "revert": false,
                    "status": true,
                    "topics": [
                        "0xddf252ad1be2c89b69c2b068fc378daa952ba7f163c4a11628f55a4df523b3ef",
                        "0x000000000000000000000000f2f98cbd5d84640a2c5cfda5c996cd830067bc95",
                        "0x000000000000000000000000000000000000006f6502b7f2bbac8c30a3f67e9a"
                    ]
                },
                "nodeType": 1
            },
            "25": {
                "invocation": {
                    "address": "0x31c8eacbffdd875c74b94b077895bd78cf1e64a3",
                    "callData": "0x000000000000000000000000f2f98cbd5d84640a2c5cfda5c996cd830067bc95",
                    "decodedMethod": {
                        "callParams": [
                            {
                                "name": "account",
                                "type": "address",
                                "value": "0xf2f98cbd5d84640a2c5cfda5c996cd830067bc95"
                            }
                        ],
                        "constructorArguments": "",
                        "name": "balanceOf",
                        "returnParams": [
                            {
                                "decimalAvailable": true,
                                "name": "",
                                "type": "uint256",
                                "value": "14,937,854,197,865,081,397,529"
                            }
                        ],
                        "signature": "balanceOf(address)"
                    },
                    "errorInfo": "",
                    "fromAddress": "0xf2f98cbd5d84640a2c5cfda5c996cd830067bc95",
                    "gasUsed": 1408,
                    "id": 25,
                    "methodDecoded": true,
                    "operation": "STATICCALL",
                    "output": "0x000000000000000000000000000000000000000000000329c85ef0d095d6e119",
                    "revert": false,
                    "revertMessage": "",
                    "selector": "0x70a08231",
                    "status": true,
                    "value": "0"
                },
                "nodeType": 0
            },
            "26": {
                "invocation": {
                    "address": "0xc02aaa39b223fe8d0a0e5c4f27ead9083c756cc2",
                    "callData": "0x000000000000000000000000f2f98cbd5d84640a2c5cfda5c996cd830067bc95",
                    "decodedMethod": {
                        "callParams": [
                            {
                                "name": "",
                                "type": "address",
                                "value": "0xf2f98cbd5d84640a2c5cfda5c996cd830067bc95"
                            }
                        ],
                        "constructorArguments": "",
                        "name": "balanceOf",
                        "returnParams": [
                            {
                                "decimalAvailable": true,
                                "name": "",
                                "type": "uint256",
                                "value": "127,669,522,936,598,896,431"
                            }
                        ],
                        "signature": "balanceOf(address)"
                    },
                    "errorInfo": "",
                    "fromAddress": "0xf2f98cbd5d84640a2c5cfda5c996cd830067bc95",
                    "gasUsed": 1234,
                    "id": 26,
                    "methodDecoded": true,
                    "operation": "STATICCALL",
                    "output": "0x000000000000000000000000000000000000000000000006ebc542b04f901f2f",
                    "revert": false,
                    "revertMessage": "",
                    "selector": "0x70a08231",
                    "status": true,
                    "value": "0"
                },
                "nodeType": 0
            },
            "27": {
                "event": {
                    "contract": "0xf2f98cbd5d84640a2c5cfda5c996cd830067bc95",
                    "decodedLog": {
                        "name": "Sync",
                        "params": [
                            {
                                "name": "reserve0",
                                "type": "uint112",
                                "value": "14,937,854,197,865,081,397,529"
                            },
                            {
                                "name": "reserve1",
                                "type": "uint112",
                                "value": "127,669,522,936,598,896,431"
                            }
                        ],
                        "signature": "Sync(uint112,uint112)"
                    },
                    "id": 27,
                    "logData": "0x000000000000000000000000000000000000000000000329c85ef0d095d6e119000000000000000000000000000000000000000000000006ebc542b04f901f2f",
                    "logDecoded": true,
                    "operation": "EVENT",
                    "revert": false,
                    "status": true,
                    "topics": [
                        "0x1c411e9a96e071241c2f21f7726b17ae89e3cab4c78be50e062b03a9fffbbad1"
                    ]
                },
                "nodeType": 1
            },
            "28": {
                "event": {
                    "contract": "0xf2f98cbd5d84640a2c5cfda5c996cd830067bc95",
                    "decodedLog": {
                        "name": "Swap",
                        "params": [
                            {
                                "name": "sender",
                                "type": "address",
                                "value": "0x000000000000006f6502b7f2bbac8c30a3f67e9a"
                            },
                            {
                                "name": "to",
                                "type": "address",
                                "value": "0x000000000000006f6502b7f2bbac8c30a3f67e9a"
                            },
                            {
                                "name": "amount0In",
                                "type": "uint256",
                                "value": "759,815,043,620,113,173,037"
                            },
                            {
                                "name": "amount1In",
                                "type": "uint256",
                                "value": "0"
                            },
                            {
                                "name": "amount0Out",
                                "type": "uint256",
                                "value": "0"
                            },
                            {
                                "name": "amount1Out",
                                "type": "uint256",
                                "value": "6,821,409,322,858,102,780"
                            }
                        ],
                        "signature": "Swap(address,uint256,uint256,uint256,uint256,address)"
                    },
                    "id": 28,
                    "logData": "0x000000000000000000000000000000000000000000000029308d4c7ff6c74a2d000000000000000000000000000000000000000000000000000000000000000000000000000000000000000000000000000000000000000000000000000000000000000000000000000000000000000000000000000000005eaa83a3447ebffc",
                    "logDecoded": true,
                    "operation": "EVENT",
                    "revert": false,
                    "status": true,
                    "topics": [
                        "0xd78ad95fa46c994b6551d0da85fc275fe613ce37657fb8d5e3d130840159d822",
                        "0x000000000000000000000000000000000000006f6502b7f2bbac8c30a3f67e9a",
                        "0x000000000000000000000000000000000000006f6502b7f2bbac8c30a3f67e9a"
                    ]
                },
                "nodeType": 1
            },
            "29": {
                "invocation": {
                    "address": "0xc02aaa39b223fe8d0a0e5c4f27ead9083c756cc2",
                    "callData": "0x0000000000000000000000000000000000000000000000005eaa83a3447ebffc",
                    "decodedMethod": {
                        "callParams": [
                            {
                                "name": "wad",
                                "type": "uint256",
                                "value": "6,821,409,322,858,102,780"
                            }
                        ],
                        "constructorArguments": "",
                        "name": "withdraw",
                        "returnParams": [],
                        "signature": "withdraw(uint256)"
                    },
                    "errorInfo": "",
                    "fromAddress": "0x000000000000006f6502b7f2bbac8c30a3f67e9a",
                    "gasUsed": 12084,
                    "id": 29,
                    "methodDecoded": true,
                    "operation": "CALL",
                    "output": "",
                    "revert": false,
                    "revertMessage": "",
                    "selector": "0x2e1a7d4d",
                    "status": true,
                    "value": "0"
                },
                "nodeType": 0
            },
            "3": {
                "invocation": {
                    "address": "0x61935cbdd02287b511119ddb11aeb42f1593b7ef",
                    "callData": "0xec5c7803224d7b3eb163c20258f04c617719b2cbd07f74947c9cba694f0cd1ad",
                    "decodedMethod": {
                        "callParams": [
                            {
                                "name": "",
                                "type": "bytes32",
                                "value": "0xec5c7803224d7b3eb163c20258f04c617719b2cbd07f74947c9cba694f0cd1ad"
                            }
                        ],
                        "constructorArguments": "",
                        "name": "cancelled",
                        "returnParams": [
                            {
                                "name": "",
                                "type": "bool",
                                "value": false
                            }
                        ],
                        "signature": "cancelled(bytes32)"
                    },
                    "errorInfo": "",
                    "fromAddress": "0x000000000000006f6502b7f2bbac8c30a3f67e9a",
                    "gasUsed": 1252,
                    "id": 3,
                    "methodDecoded": true,
                    "operation": "STATICCALL",
                    "output": "0x0000000000000000000000000000000000000000000000000000000000000000",
                    "revert": false,
                    "revertMessage": "",
                    "selector": "0x2ac12622",
                    "status": true,
                    "value": "0"
                },
                "nodeType": 0
            },
            "30": {
                "invocation": {
                    "address": "0x000000000000006f6502b7f2bbac8c30a3f67e9a",
                    "callData": "0x",
                    "decodedMethod": null,
                    "errorInfo": "",
                    "fromAddress": "0xc02aaa39b223fe8d0a0e5c4f27ead9083c756cc2",
                    "gasUsed": 244,
                    "id": 30,
                    "methodDecoded": false,
                    "operation": "CALL",
                    "output": "",
                    "revert": false,
                    "revertMessage": "",
                    "selector": "fallback",
                    "status": true,
                    "value": "6.82140932285810278"
                },
                "nodeType": 0
            },
            "31": {
                "event": {
                    "contract": "0xc02aaa39b223fe8d0a0e5c4f27ead9083c756cc2",
                    "decodedLog": {
                        "name": "Withdrawal",
                        "params": [
                            {
                                "name": "src",
                                "type": "address",
                                "value": "0x000000000000006f6502b7f2bbac8c30a3f67e9a"
                            },
                            {
                                "name": "wad",
                                "type": "uint256",
                                "value": "6,821,409,322,858,102,780"
                            }
                        ],
                        "signature": "Withdrawal(address,uint256)"
                    },
                    "id": 31,
                    "logData": "0x0000000000000000000000000000000000000000000000005eaa83a3447ebffc",
                    "logDecoded": true,
                    "operation": "EVENT",
                    "revert": false,
                    "status": true,
                    "topics": [
                        "0x7fcf532c15f0a6db0bd6d0e038bea71d30d808c7d98cb3bf7268a95bf5081b65",
                        "0x000000000000000000000000000000000000006f6502b7f2bbac8c30a3f67e9a"
                    ]
                },
                "nodeType": 1
            },
            "4": {
                "invocation": {
                    "address": "0x31c8eacbffdd875c74b94b077895bd78cf1e64a3",
                    "callData": "0x000000000000000000000000896b94f4f27f12369698c302e2049cae86936bbb",
                    "decodedMethod": {
                        "callParams": [
                            {
                                "name": "account",
                                "type": "address",
                                "value": "0x896b94f4f27f12369698c302e2049cae86936bbb"
                            }
                        ],
                        "constructorArguments": "",
                        "name": "balanceOf",
                        "returnParams": [
                            {
                                "decimalAvailable": true,
                                "name": "",
                                "type": "uint256",
                                "value": "3,235,836,337,177,792,138,282"
                            }
                        ],
                        "signature": "balanceOf(address)"
                    },
                    "errorInfo": "",
                    "fromAddress": "0x000000000000006f6502b7f2bbac8c30a3f67e9a",
                    "gasUsed": 1408,
                    "id": 4,
                    "methodDecoded": true,
                    "operation": "STATICCALL",
                    "output": "0x0000000000000000000000000000000000000000000000af6a400477af6ccc2a",
                    "revert": false,
                    "revertMessage": "",
                    "selector": "0x70a08231",
                    "status": true,
                    "value": "0"
                },
                "nodeType": 0
            },
            "5": {
                "invocation": {
                    "address": "0x31c8eacbffdd875c74b94b077895bd78cf1e64a3",
                    "callData": "0x000000000000000000000000896b94f4f27f12369698c302e2049cae86936bbb00000000000000000000000095e6f48254609a6ee006f7d493c8e5fb97094cef",
                    "decodedMethod": {
                        "callParams": [
                            {
                                "name": "account",
                                "type": "address",
                                "value": "0x896b94f4f27f12369698c302e2049cae86936bbb"
                            },
                            {
                                "name": "spender",
                                "type": "address",
                                "value": "0x95e6f48254609a6ee006f7d493c8e5fb97094cef"
                            }
                        ],
                        "constructorArguments": "",
                        "name": "allowance",
                        "returnParams": [
                            {
                                "decimalAvailable": true,
                                "name": "",
                                "type": "uint256",
                                "value": "79,228,162,514,264,337,593,543,950,335"
                            }
                        ],
                        "signature": "allowance(address,address)"
                    },
                    "errorInfo": "",
                    "fromAddress": "0x000000000000006f6502b7f2bbac8c30a3f67e9a",
                    "gasUsed": 1521,
                    "id": 5,
                    "methodDecoded": true,
                    "operation": "STATICCALL",
                    "output": "0x0000000000000000000000000000000000000000ffffffffffffffffffffffff",
                    "revert": false,
                    "revertMessage": "",
                    "selector": "0xdd62ed3e",
                    "status": true,
                    "value": "0"
                },
                "nodeType": 0
            },
            "6": {
                "invocation": {
                    "address": "0xf2f98cbd5d84640a2c5cfda5c996cd830067bc95",
                    "callData": "0x",
                    "decodedMethod": {
                        "callParams": [],
                        "constructorArguments": "",
                        "name": "getReserves",
                        "returnParams": [
                            {
                                "name": "_reserve0",
                                "type": "uint112",
                                "value": "14,178,039,154,244,968,224,492"
                            },
                            {
                                "name": "_reserve1",
                                "type": "uint112",
                                "value": "134,490,932,259,456,999,211"
                            },
                            {
                                "name": "_blockTimestampLast",
                                "type": "uint32",
                                "value": "1,614,485,883"
                            }
                        ],
                        "signature": "getReserves()"
                    },
                    "errorInfo": "",
                    "fromAddress": "0x000000000000006f6502b7f2bbac8c30a3f67e9a",
                    "gasUsed": 1204,
                    "id": 6,
                    "methodDecoded": true,
                    "operation": "STATICCALL",
                    "output": "0x00000000000000000000000000000000000000000000030097d1a4509f0f96ec0000000000000000000000000000000000000000000000074a6fc653940edf2b00000000000000000000000000000000000000000000000000000000603b197b",
                    "revert": false,
                    "revertMessage": "",
                    "selector": "0x0902f1ac",
                    "status": true,
                    "value": "0"
                },
                "nodeType": 0
            },
            "7": {
                "invocation": {
                    "address": "0xc02aaa39b223fe8d0a0e5c4f27ead9083c756cc2",
                    "callData": "0x",
                    "decodedMethod": {
                        "callParams": [],
                        "constructorArguments": "",
                        "name": "deposit",
                        "returnParams": [],
                        "signature": "deposit()"
                    },
                    "errorInfo": "",
                    "fromAddress": "0x000000000000006f6502b7f2bbac8c30a3f67e9a",
                    "gasUsed": 7674,
                    "id": 7,
                    "methodDecoded": true,
                    "operation": "CALL",
                    "output": "",
                    "revert": false,
                    "revertMessage": "",
                    "selector": "0xd0e30db0",
                    "status": true,
                    "value": "6.499820162202468352"
                },
                "nodeType": 0
            },
            "8": {
                "event": {
                    "contract": "0xc02aaa39b223fe8d0a0e5c4f27ead9083c756cc2",
                    "decodedLog": {
                        "name": "Deposit",
                        "params": [
                            {
                                "name": "dst",
                                "type": "address",
                                "value": "0x000000000000006f6502b7f2bbac8c30a3f67e9a"
                            },
                            {
                                "name": "wad",
                                "type": "uint256",
                                "value": "6,499,820,162,202,468,352"
                            }
                        ],
                        "signature": "Deposit(address,uint256)"
                    },
                    "id": 8,
                    "logData": "0x0000000000000000000000000000000000000000000000005a34000000000000",
                    "logDecoded": true,
                    "operation": "EVENT",
                    "revert": false,
                    "status": true,
                    "topics": [
                        "0xe1fffcc4923d04b559f4d29a8bfc6cda04eb5b0d3c460751c2402c5c5cc9109c",
                        "0x000000000000000000000000000000000000006f6502b7f2bbac8c30a3f67e9a"
                    ]
                },
                "nodeType": 1
            },
            "9": {
                "invocation": {
                    "address": "0x61935cbdd02287b511119ddb11aeb42f1593b7ef",
                    "callData": "0x00000000000000000000000000000000000000000000000000000000000000600000000000000000000000000000000000000000000000005a3400000000000000000000000000000000000000000000000000000000000000000000000002e0000000000000000000000000896b94f4f27f12369698c302e2049cae86936bbb0000000000000000000000000000000000000000000000000000000000000000000000000000000000000000910bf2d50fa5e014fd06666f456182d4ab7c8bd200000000000000000000000000000000000000000000000000000000000000000000000000000000000000000000000000000000000000ddcbed76f4253745aa000000000000000000000000000000000000000000000001e5b8fa8fe2ac0000000000000000000000000000000000000000000000000000000000000000000000000000000000000000000000000000000000000000000000000000000000000000000000000000000000000000000000000000000000000000000060444cd100000000000000000000000000000000000000000000000000000000603b125100000000000000000000000000000000000000000000000000000000000001c00000000000000000000000000000000000000000000000000000000000000220000000000000000000000000000000000000000000000000000000000000002000000000000000000000000000000000000000000000000000000000000000200000000000000000000000000000000000000000000000000000000000000024f47261b000000000000000000000000031c8eacbffdd875c74b94b077895bd78cf1e64a3000000000000000000000000000000000000000000000000000000000000000000000000000000000000000000000000000000000000000000000024f47261b0000000000000000000000000c02aaa39b223fe8d0a0e5c4f27ead9083c756cc20000000000000000000000000000000000000000000000000000000000000000000000000000000000000000000000000000000000000000000000421ccd1510496002dfb8de9e0bb6569ba04c35a71447c2a28e183b8ab3229add85ea7e3329c72b6b2b922ab65b3d24faed19c12d4bac200151c28feace360f601fcb020000000000000000000000000000000000000000000000000000000000000000",
                    "decodedMethod": {
                        "callParams": [
                            {
                                "name": "order",
                                "type": "(address,address,address,address,uint256,uint256,uint256,uint256,uint256,uint256,bytes,bytes,bytes,bytes)",
                                "value": [
                                    {
                                        "name": "makerAddress",
                                        "type": "address",
                                        "value": "0x896b94f4f27f12369698c302e2049cae86936bbb"
                                    },
                                    {
                                        "name": "takerAddress",
                                        "type": "address",
                                        "value": "0x0000000000000000000000000000000000000000"
                                    },
                                    {
                                        "name": "feeRecipientAddress",
                                        "type": "address",
                                        "value": "0x910bf2d50fa5e014fd06666f456182d4ab7c8bd2"
                                    },
                                    {
                                        "name": "senderAddress",
                                        "type": "address",
                                        "value": "0x0000000000000000000000000000000000000000"
                                    },
                                    {
                                        "name": "makerAssetAmount",
                                        "type": "uint256",
                                        "value": "4,091,424,972,239,959,180,714"
                                    },
                                    {
                                        "name": "takerAssetAmount",
                                        "type": "uint256",
                                        "value": "35,000,000,000,000,000,000"
                                    },
                                    {
                                        "name": "makerFee",
                                        "type": "uint256",
                                        "value": "0"
                                    },
                                    {
                                        "name": "takerFee",
                                        "type": "uint256",
                                        "value": "0"
                                    },
                                    {
                                        "name": "expirationTimeSeconds",
                                        "type": "uint256",
                                        "value": "1,615,088,849"
                                    },
                                    {
                                        "name": "salt",
                                        "type": "uint256",
                                        "value": "1,614,484,049"
                                    },
                                    {
                                        "name": "makerAssetData",
                                        "type": "bytes",
                                        "value": "0xf47261b000000000000000000000000031c8eacbffdd875c74b94b077895bd78cf1e64a3"
                                    },
                                    {
                                        "name": "takerAssetData",
                                        "type": "bytes",
                                        "value": "0xf47261b0000000000000000000000000c02aaa39b223fe8d0a0e5c4f27ead9083c756cc2"
                                    },
                                    {
                                        "name": "makerFeeAssetData",
                                        "type": "bytes",
                                        "value": "0x"
                                    },
                                    {
                                        "name": "takerFeeAssetData",
                                        "type": "bytes",
                                        "value": "0x"
                                    }
                                ]
                            },
                            {
                                "name": "takerAssetFillAmount",
                                "type": "uint256",
                                "value": "6,499,820,162,202,468,352"
                            },
                            {
                                "name": "signature",
                                "type": "bytes",
                                "value": "0x1ccd1510496002dfb8de9e0bb6569ba04c35a71447c2a28e183b8ab3229add85ea7e3329c72b6b2b922ab65b3d24faed19c12d4bac200151c28feace360f601fcb02"
                            }
                        ],
                        "constructorArguments": "",
                        "name": "fillOrder",
                        "returnParams": [
                            {
                                "name": "fillResults",
                                "type": "(uint256,uint256,uint256,uint256,uint256)",
                                "value": [
                                    {
                                        "name": "makerAssetFilledAmount",
                                        "type": "uint256",
                                        "value": "759,815,043,620,113,173,037"
                                    },
                                    {
                                        "name": "takerAssetFilledAmount",
                                        "type": "uint256",
                                        "value": "6,499,820,162,202,468,352"
                                    },
                                    {
                                        "name": "makerFeePaid",
                                        "type": "uint256",
                                        "value": "0"
                                    },
                                    {
                                        "name": "takerFeePaid",
                                        "type": "uint256",
                                        "value": "0"
                                    },
                                    {
                                        "name": "protocolFeePaid",
                                        "type": "uint256",
                                        "value": "9,240,000,000,000,000"
                                    }
                                ]
                            }
                        ],
                        "signature": "fillOrder((address,address,address,address,uint256,uint256,uint256,uint256,uint256,uint256,bytes,bytes,bytes,bytes),uint256,bytes)"
                    },
                    "errorInfo": "",
                    "fromAddress": "0x000000000000006f6502b7f2bbac8c30a3f67e9a",
                    "gasUsed": 113071,
                    "id": 9,
                    "methodDecoded": true,
                    "operation": "CALL",
                    "output": "0x000000000000000000000000000000000000000000000029308d4c7ff6c74a2d0000000000000000000000000000000000000000000000005a34000000000000000000000000000000000000000000000000000000000000000000000000000000000000000000000000000000000000000000000000000000000000000000000000000000000000000000000000000000000000000000000020d3bb25b98000",
                    "revert": false,
                    "revertMessage": "",
                    "selector": "0x9b44d556",
                    "status": true,
                    "value": "0.00924"
                },
                "nodeType": 0
            }
        },
        "gasFlame": [
            {
                "children": [
                    {
                        "children": [
                            {
                                "children": [],
                                "depth": 0,
                                "name": "Initial Gas",
                                "value": 24516
                            },
                            {
                                "children": [
                                    {
                                        "children": [],
                                        "depth": 1,
                                        "name": "filled",
                                        "value": 1284
                                    },
                                    {
                                        "children": [],
                                        "depth": 1,
                                        "name": "orderEpoch",
                                        "value": 1523
                                    },
                                    {
                                        "children": [],
                                        "depth": 1,
                                        "name": "cancelled",
                                        "value": 1252
                                    },
                                    {
                                        "children": [],
                                        "depth": 1,
                                        "name": "balanceOf",
                                        "value": 1408
                                    },
                                    {
                                        "children": [],
                                        "depth": 1,
                                        "name": "allowance",
                                        "value": 1521
                                    },
                                    {
                                        "children": [],
                                        "depth": 1,
                                        "name": "getReserves",
                                        "value": 1204
                                    },
                                    {
                                        "children": [],
                                        "depth": 1,
                                        "name": "deposit",
                                        "value": 7674
                                    },
                                    {
                                        "children": [
                                            {
                                                "children": [],
                                                "depth": 2,
                                                "name": "ecrecover",
                                                "value": 3000
                                            },
                                            {
                                                "children": [
                                                    {
                                                        "children": [],
                                                        "depth": 3,
                                                        "name": "transferFrom",
                                                        "value": 11825
                                                    }
                                                ],
                                                "depth": 2,
                                                "name": "transferFrom",
                                                "value": 13879
                                            },
                                            {
                                                "children": [
                                                    {
                                                        "children": [],
                                                        "depth": 3,
                                                        "name": "transferFrom",
                                                        "value": 34917
                                                    }
                                                ],
                                                "depth": 2,
                                                "name": "transferFrom",
                                                "value": 36971
                                            },
                                            {
                                                "children": [
                                                    {
                                                        "children": [],
                                                        "depth": 3,
                                                        "name": "payProtocolFee",
                                                        "value": 2356
                                                    }
                                                ],
                                                "depth": 2,
                                                "name": "payProtocolFee",
                                                "value": 4328
                                            }
                                        ],
                                        "depth": 1,
                                        "name": "fillOrder",
                                        "value": 113071
                                    },
                                    {
                                        "children": [],
                                        "depth": 1,
                                        "name": "transfer",
                                        "value": 14501
                                    },
                                    {
                                        "children": [
                                            {
                                                "children": [],
                                                "depth": 2,
                                                "name": "transfer",
                                                "value": 15162
                                            },
                                            {
                                                "children": [],
                                                "depth": 2,
                                                "name": "balanceOf",
                                                "value": 1408
                                            },
                                            {
                                                "children": [],
                                                "depth": 2,
                                                "name": "balanceOf",
                                                "value": 1234
                                            }
                                        ],
                                        "depth": 1,
                                        "name": "swap",
                                        "value": 44811
                                    },
                                    {
                                        "children": [
                                            {
                                                "children": [],
                                                "depth": 2,
                                                "name": "fallback",
                                                "value": 244
                                            }
                                        ],
                                        "depth": 1,
                                        "name": "withdraw",
                                        "value": 12084
                                    }
                                ],
                                "depth": 0,
                                "name": "Executed Gas",
                                "value": 223904
                            }
                        ],
                        "depth": -1,
                        "name": "Actual Gas Used",
                        "value": 212420
                    },
                    {
                        "children": [],
                        "depth": -1,
                        "name": "Refunded Gas",
                        "value": 36000
                    }
                ],
                "depth": -2,
                "name": "Total Gas",
                "value": 248420
            }
        ],
        "isConfirmed": true,
        "mainTrace": [
            {
                "children": [
                    {
                        "children": [
                            {
                                "children": [],
                                "depth": 1,
                                "id": 1,
                                "order": 1
                            },
                            {
                                "children": [],
                                "depth": 1,
                                "id": 2,
                                "order": 2
                            },
                            {
                                "children": [],
                                "depth": 1,
                                "id": 3,
                                "order": 3
                            },
                            {
                                "children": [],
                                "depth": 1,
                                "id": 4,
                                "order": 4
                            },
                            {
                                "children": [],
                                "depth": 1,
                                "id": 5,
                                "order": 5
                            },
                            {
                                "children": [],
                                "depth": 1,
                                "id": 6,
                                "order": 6
                            },
                            {
                                "children": [
                                    {
                                        "children": [],
                                        "depth": 2,
                                        "id": 8,
                                        "order": 8
                                    }
                                ],
                                "depth": 1,
                                "id": 7,
                                "order": 7
                            },
                            {
                                "children": [
                                    {
                                        "children": [],
                                        "depth": 2,
                                        "id": 10,
                                        "order": 10
                                    },
                                    {
                                        "children": [],
                                        "depth": 2,
                                        "id": 11,
                                        "order": 11
                                    },
                                    {
                                        "children": [
                                            {
                                                "children": [
                                                    {
                                                        "children": [],
                                                        "depth": 4,
                                                        "id": 14,
                                                        "order": 14
                                                    }
                                                ],
                                                "depth": 3,
                                                "id": 13,
                                                "order": 13
                                            }
                                        ],
                                        "depth": 2,
                                        "id": 12,
                                        "order": 12
                                    },
                                    {
                                        "children": [
                                            {
                                                "children": [
                                                    {
                                                        "children": [],
                                                        "depth": 4,
                                                        "id": 17,
                                                        "order": 17
                                                    }
                                                ],
                                                "depth": 3,
                                                "id": 16,
                                                "order": 16
                                            }
                                        ],
                                        "depth": 2,
                                        "id": 15,
                                        "order": 15
                                    },
                                    {
                                        "children": [
                                            {
                                                "children": [],
                                                "depth": 3,
                                                "id": 19,
                                                "order": 19
                                            }
                                        ],
                                        "depth": 2,
                                        "id": 18,
                                        "order": 18
                                    }
                                ],
                                "depth": 1,
                                "id": 9,
                                "order": 9
                            },
                            {
                                "children": [
                                    {
                                        "children": [],
                                        "depth": 2,
                                        "id": 21,
                                        "order": 21
                                    }
                                ],
                                "depth": 1,
                                "id": 20,
                                "order": 20
                            },
                            {
                                "children": [
                                    {
                                        "children": [
                                            {
                                                "children": [],
                                                "depth": 3,
                                                "id": 24,
                                                "order": 24
                                            }
                                        ],
                                        "depth": 2,
                                        "id": 23,
                                        "order": 23
                                    },
                                    {
                                        "children": [],
                                        "depth": 2,
                                        "id": 25,
                                        "order": 25
                                    },
                                    {
                                        "children": [],
                                        "depth": 2,
                                        "id": 26,
                                        "order": 26
                                    },
                                    {
                                        "children": [],
                                        "depth": 2,
                                        "id": 27,
                                        "order": 27
                                    },
                                    {
                                        "children": [],
                                        "depth": 2,
                                        "id": 28,
                                        "order": 28
                                    }
                                ],
                                "depth": 1,
                                "id": 22,
                                "order": 22
                            },
                            {
                                "children": [
                                    {
                                        "children": [],
                                        "depth": 2,
                                        "id": 30,
                                        "order": 30
                                    },
                                    {
                                        "children": [],
                                        "depth": 2,
                                        "id": 31,
                                        "order": 31
                                    }
                                ],
                                "depth": 1,
                                "id": 29,
                                "order": 29
                            }
                        ],
                        "depth": 0,
                        "id": 0,
                        "order": 0
                    }
                ],
                "depth": -1,
                "id": -1,
                "order": -1
            }
        ],
        "mainTraceNodeCount": 32,
        "parentIdMap": {
            "0": -1,
            "1": 0,
            "10": 9,
            "11": 9,
            "12": 9,
            "13": 12,
            "14": 13,
            "15": 9,
            "16": 15,
            "17": 16,
            "18": 9,
            "19": 18,
            "2": 0,
            "20": 0,
            "21": 20,
            "22": 0,
            "23": 22,
            "24": 23,
            "25": 22,
            "26": 22,
            "27": 22,
            "28": 22,
            "29": 0,
            "3": 0,
            "30": 29,
            "31": 29,
            "4": 0,
            "5": 0,
            "6": 0,
            "7": 0,
            "8": 7,
            "9": 0
        },
        "tidyTrace": [
            {
                "children": [
                    {
                        "children": [
                            {
                                "children": [
                                    {
                                        "children": [],
                                        "depth": 2,
                                        "id": 8,
                                        "order": 8
                                    }
                                ],
                                "depth": 1,
                                "id": 7,
                                "order": 7
                            },
                            {
                                "children": [
                                    {
                                        "children": [],
                                        "depth": 2,
                                        "id": 11,
                                        "order": 11
                                    },
                                    {
                                        "children": [
                                            {
                                                "children": [
                                                    {
                                                        "children": [],
                                                        "depth": 4,
                                                        "id": 14,
                                                        "order": 14
                                                    }
                                                ],
                                                "depth": 3,
                                                "id": 13,
                                                "order": 13
                                            }
                                        ],
                                        "depth": 2,
                                        "id": 12,
                                        "order": 12
                                    },
                                    {
                                        "children": [
                                            {
                                                "children": [
                                                    {
                                                        "children": [],
                                                        "depth": 4,
                                                        "id": 17,
                                                        "order": 17
                                                    }
                                                ],
                                                "depth": 3,
                                                "id": 16,
                                                "order": 16
                                            }
                                        ],
                                        "depth": 2,
                                        "id": 15,
                                        "order": 15
                                    },
                                    {
                                        "children": [
                                            {
                                                "children": [],
                                                "depth": 3,
                                                "id": 19,
                                                "order": 19
                                            }
                                        ],
                                        "depth": 2,
                                        "id": 18,
                                        "order": 18
                                    }
                                ],
                                "depth": 1,
                                "id": 9,
                                "order": 9
                            },
                            {
                                "children": [
                                    {
                                        "children": [],
                                        "depth": 2,
                                        "id": 21,
                                        "order": 21
                                    }
                                ],
                                "depth": 1,
                                "id": 20,
                                "order": 20
                            },
                            {
                                "children": [
                                    {
                                        "children": [
                                            {
                                                "children": [],
                                                "depth": 3,
                                                "id": 24,
                                                "order": 24
                                            }
                                        ],
                                        "depth": 2,
                                        "id": 23,
                                        "order": 23
                                    },
                                    {
                                        "children": [],
                                        "depth": 2,
                                        "id": 27,
                                        "order": 27
                                    },
                                    {
                                        "children": [],
                                        "depth": 2,
                                        "id": 28,
                                        "order": 28
                                    }
                                ],
                                "depth": 1,
                                "id": 22,
                                "order": 22
                            },
                            {
                                "children": [
                                    {
                                        "children": [],
                                        "depth": 2,
                                        "id": 30,
                                        "order": 30
                                    },
                                    {
                                        "children": [],
                                        "depth": 2,
                                        "id": 31,
                                        "order": 31
                                    }
                                ],
                                "depth": 1,
                                "id": 29,
                                "order": 29
                            }
                        ],
                        "depth": 0,
                        "id": 0,
                        "order": 0
                    }
                ],
                "depth": -1,
                "id": -1,
                "order": -1
            }
        ],
        "tidyTraceNodeCount": 23
    },
    "state_change": {
        "stateChanges": [
            {
                "address": "0x31c8eacbffdd875c74b94b077895bd78cf1e64a3",
                "erc": "ERC-20",
                "slots": [
                    {
                        "current": "0x000000000000000000000000000000000000000000000329c85ef0d095d6e119",
                        "key": "0x7562485a43a402a527a15ff83fe541d91370b8d91e6872c16833e04d2292d1f3",
                        "prev": "0x00000000000000000000000000000000000000000000030097d1a4509f0f96ec"
                    },
                    {
                        "current": "0x00000000000000000000000000000000000000000000008639b2b7f7b8a581fd",
                        "key": "0x405ca442e260a153308f20d21d7427fd61ee8535fba2cd4c1af550a6591b77cd",
                        "prev": "0x0000000000000000000000000000000000000000000000af6a400477af6ccc2a"
                    }
                ],
                "storageVariables": [
                    {
                        "name": "balances",
                        "type": "mapping(address => uint96)",
                        "value": {
                            "pairs": [
                                {
                                    "key": "0x896b94f4f27f12369698c302e2049cae86936bbb",
                                    "value": {
                                        "current": "2476021293557678965245",
                                        "prev": "3235836337177792138282",
                                        "typeTag": 1
                                    }
                                },
                                {
                                    "key": "0xf2f98cbd5d84640a2c5cfda5c996cd830067bc95",
                                    "value": {
                                        "current": "14937854197865081397529",
                                        "prev": "14178039154244968224492",
                                        "typeTag": 1
                                    }
                                }
                            ],
                            "typeTag": 4
                        }
                    }
                ]
            },
            {
                "address": "0x61935cbdd02287b511119ddb11aeb42f1593b7ef",
                "erc": "",
                "slots": [
                    {
                        "current": "0x000000000000000000000000000000000000000000000000bfc6b69c9a7a255e",
                        "key": "0x7530b0139acd077d62ac98709781d3b1362a31e06d0a6b29f42923203c4408b5",
                        "prev": "0x0000000000000000000000000000000000000000000000006592b69c9a7a255e"
                    }
                ],
                "storageVariables": [
                    {
                        "name": "filled",
                        "type": "mapping(bytes32 => uint256)",
                        "value": {
                            "pairs": [
                                {
                                    "key": "0xec5c7803224d7b3eb163c20258f04c617719b2cbd07f74947c9cba694f0cd1ad",
                                    "value": {
                                        "current": "13818933290355795294",
                                        "prev": "7319113128153326942",
                                        "typeTag": 1
                                    }
                                }
                            ],
                            "typeTag": 4
                        }
                    }
                ]
            },
            {
                "address": "0xc02aaa39b223fe8d0a0e5c4f27ead9083c756cc2",
                "erc": "ERC-20",
                "slots": [
                    {
                        "current": "0x00000000000000000000000000000000000000000000000aa14fcab0983cf38a",
                        "key": "0x6e90099d643866d4d617595d4503a987c3d704675e59b547b5067e953c85cf77",
                        "prev": "0x00000000000000000000000000000000000000000000000a471bcab0983cf38a"
                    },
                    {
                        "current": "0x000000000000000000000000000000000000000000000006ebc542b04f901f2f",
                        "key": "0xbc4ee99a63ef0dbcd0aa1eafaac2a23b654f23271d1cdf588e1f6ff7659dde88",
                        "prev": "0x0000000000000000000000000000000000000000000000074a6fc653940edf2b"
                    }
                ],
                "storageVariables": [
                    {
                        "name": "balanceOf",
                        "type": "mapping(address => uint256)",
                        "value": {
                            "pairs": [
                                {
                                    "key": "0x896b94f4f27f12369698c302e2049cae86936bbb",
                                    "value": {
                                        "current": "196091172760179241866",
                                        "prev": "189591352597976773514",
                                        "typeTag": 1
                                    }
                                },
                                {
                                    "key": "0xf2f98cbd5d84640a2c5cfda5c996cd830067bc95",
                                    "value": {
                                        "current": "127669522936598896431",
                                        "prev": "134490932259456999211",
                                        "typeTag": 1
                                    }
                                }
                            ],
                            "typeTag": 4
                        }
                    }
                ]
            },
            {
                "address": "0xf2f98cbd5d84640a2c5cfda5c996cd830067bc95",
                "erc": "ERC-20",
                "slots": [
                    {
                        "current": "0x603b197b000000000006ebc542b04f901f2f000000000329c85ef0d095d6e119",
                        "key": "0x0000000000000000000000000000000000000000000000000000000000000008",
                        "prev": "0x603b197b0000000000074a6fc653940edf2b00000000030097d1a4509f0f96ec"
                    }
                ],
                "storageVariables": [
                    {
                        "name": "reserve0",
                        "type": "uint112",
                        "value": {
                            "current": "14937854197865081397529",
                            "prev": "14178039154244968224492",
                            "typeTag": 1
                        }
                    },
                    {
                        "name": "reserve1",
                        "type": "uint112",
                        "value": {
                            "current": "127669522936598896431",
                            "prev": "134490932259456999211",
                            "typeTag": 1
                        }
                    },
                    {
                        "name": "blockTimestampLast",
                        "type": "uint32",
                        "value": {
                            "current": "1614485883",
                            "prev": "1614485883",
                            "typeTag": 1
                        }
                    }
                ]
            }
        ]
    }
}