{
    "balance_change": {
        "balanceChanges": [
            {
                "account": "0x963462d3465efb5ac81d7bb60e7e143eb7e7a646",
                "assets": [
                    {
                        "address": "0xcbc67ea382f8a006d46eeeb7255876beb7d7f14d",
                        "amount": "1",
                        "iconUrl": "https://assets.blocksec.com/nft/icon/nft_53320194-6ae7-434a-a16f-347571faee57.png",
                        "isERC1155": false,
                        "isERC721": true,
                        "sign": false,
                        "tokenID": "6833",
                        "value": ""
                    }
                ]
            },
            {
                "account": "0xbe5deffeb557d9f0f224d7a9266d1cd5d2ce072a",
                "assets": [
                    {
                        "address": "0xcbc67ea382f8a006d46eeeb7255876beb7d7f14d",
                        "amount": "1",
                        "iconUrl": "https://assets.blocksec.com/nft/icon/nft_53320194-6ae7-434a-a16f-347571faee57.png",
                        "isERC1155": false,
                        "isERC721": true,
                        "sign": true,
                        "tokenID": "6833",
                        "value": ""
                    }
                ]
            }
        ]
    },
    "profile": {
        "basic_info": {
            "baseFee": "116.227133878",
            "blockNumber": 14027755,
            "callData": "0x23b872dd000000000000000000000000963462d3465efb5ac81d7bb60e7e143eb7e7a646000000000000000000000000be5deffeb557d9f0f224d7a9266d1cd5d2ce072a0000000000000000000000000000000000000000000000000000000000001ab1",
            "debugEnable": true,
            "errorInfo": "",
            "eventCount": 2,
            "feeRecipient": "0xea674fdde714fd979de3edf0f56aa9716b898ec8",
            "formatValue": "0",
            "gasLimit": 65148,
            "gasPrice": "117.727133878",
            "gasUsed": 65148,
            "intTxnCount": 0,
            "internalRevert": false,
            "internalRevertMessage": "",
            "isContractCreation": false,
            "isFlashloan": false,
            "maxFee": "136.12545549",
            "nonce": 1,
            "overwritedBlockNumber": -1,
            "priorityFee": "1.5",
            "receiver": "0xcbc67ea382f8a006d46eeeb7255876beb7d7f14d",
            "revertMessage": "",
            "sender": "0x963462d3465efb5ac81d7bb60e7e143eb7e7a646",
            "simulationEnable": true,
            "sourceTxnHash": "0xf9d61efdd82f02bde7ada822fcc6d35aca18d0fc938838907756afd5994f7fd7",
            "status": true,
            "timestamp": "2022-01-18T05:51:09Z",
            "transactionFee": "0.007669687317883944",
            "txnHash": "0xf9d61efdd82f02bde7ada822fcc6d35aca18d0fc938838907756afd5994f7fd7",
            "txnIndex": 74,
            "type": 2,
            "value": "0"
        },
        "fund_flow": [
            {
                "amount": "1",
                "from": "0x963462d3465efb5ac81d7bb60e7e143eb7e7a646",
                "id": 1,
                "isERC1155": false,
                "isERC721": true,
                "isReverted": false,
                "order": 1,
                "to": "0xbe5deffeb557d9f0f224d7a9266d1cd5d2ce072a",
                "token": "0xcbc67ea382f8a006d46eeeb7255876beb7d7f14d",
                "tokenID": "6833"
            }
        ],
        "token_infos": [
            {
                "address": "0xeeeeeeeeeeeeeeeeeeeeeeeeeeeeeeeeeeeeeeee",
                "decimals": 18
            },
            {
                "address": "0xc02aaa39b223fe8d0a0e5c4f27ead9083c756cc2",
                "decimals": 18
            }
        ]
    },
    "address_label": {
        "labels": [
            {
                "address": "0xeeeeeeeeeeeeeeeeeeeeeeeeeeeeeeeeeeeeeeee",
                "label": "Ether"
            },
            {
                "address": "0xcbc67ea382f8a006d46eeeb7255876beb7d7f14d",
                "label": "WVRPS by WarpSound: WVRPS Token"
            },
            {
                "address": "0x0000000000000000000000000000000000000001",
                "label": "Precompiled"
            },
            {
                "address": "0x0000000000000000000000000000000000000002",
                "label": "Precompiled"
            },
            {
                "address": "0x0000000000000000000000000000000000000003",
                "label": "Precompiled"
            },
            {
                "address": "0x0000000000000000000000000000000000000004",
                "label": "Precompiled"
            }
        ]
    },
    "trace": {
        "accountLabels": null,
        "dataMap": {
            "-1": {
                "invocation": {
                    "address": "0x963462d3465efb5ac81d7bb60e7e143eb7e7a646",
                    "callData": "",
                    "decodedMethod": null,
                    "errorInfo": "",
                    "fromAddress": "",
                    "gasUsed": 0,
                    "id": -1,
                    "methodDecoded": false,
                    "operation": "",
                    "output": "",
                    "revert": false,
                    "revertMessage": "",
                    "selector": "",
                    "status": false,
                    "value": ""
                },
                "nodeType": 0
            },
            "0": {
                "invocation": {
                    "address": "0xcbc67ea382f8a006d46eeeb7255876beb7d7f14d",
                    "callData": "0x000000000000000000000000963462d3465efb5ac81d7bb60e7e143eb7e7a646000000000000000000000000be5deffeb557d9f0f224d7a9266d1cd5d2ce072a0000000000000000000000000000000000000000000000000000000000001ab1",
                    "decodedMethod": {
                        "callParams": [
                            {
                                "name": "from",
                                "type": "address",
                                "value": "0x963462d3465efb5ac81d7bb60e7e143eb7e7a646"
                            },
                            {
                                "name": "to",
                                "type": "address",
                                "value": "0xbe5deffeb557d9f0f224d7a9266d1cd5d2ce072a"
                            },
                            {
                                "decimalAvailable": true,
                                "name": "tokenId",
                                "type": "uint256",
                                "value": "6,833"
                            }
                        ],
                        "constructorArguments": "",
                        "name": "transferFrom",
                        "returnParams": [],
                        "signature": "transferFrom(address,address,uint256)"
                    },
                    "errorInfo": "",
                    "fromAddress": "0x963462d3465efb5ac81d7bb60e7e143eb7e7a646",
                    "gasUsed": 65148,
                    "id": 0,
                    "methodDecoded": true,
                    "operation": "CALL",
                    "output": "",
                    "revert": false,
                    "revertMessage": "",
                    "selector": "0x23b872dd",
                    "status": true,
                    "value": "0"
                },
                "nodeType": 0
            },
            "1": {
                "event": {
                    "contract": "0xcbc67ea382f8a006d46eeeb7255876beb7d7f14d",
                    "decodedLog": {
                        "name": "Approval",
                        "params": [
                            {
                                "name": "owner",
                                "type": "address",
                                "value": "0x963462d3465efb5ac81d7bb60e7e143eb7e7a646"
                            },
                            {
                                "name": "approved",
                                "type": "address",
                                "value": "0x0000000000000000000000000000000000000000"
                            },
                            {
                                "decimalAvailable": true,
                                "name": "tokenId",
                                "type": "uint256",
                                "value": "6,833"
                            }
                        ],
                        "signature": "Approval(address,address,uint256)"
                    },
                    "id": 1,
                    "logData": "0x",
                    "logDecoded": true,
                    "operation": "EVENT",
                    "revert": false,
                    "status": true,
                    "topics": [
                        "0x8c5be1e5ebec7d5bd14f71427d1e84f3dd0314c0f7b2291e5b200ac8c7c3b925",
                        "0x000000000000000000000000963462d3465efb5ac81d7bb60e7e143eb7e7a646",
                        "0x0000000000000000000000000000000000000000000000000000000000000000",
                        "0x0000000000000000000000000000000000000000000000000000000000001ab1"
                    ]
                },
                "nodeType": 1
            },
            "2": {
                "event": {
                    "contract": "0xcbc67ea382f8a006d46eeeb7255876beb7d7f14d",
                    "decodedLog": {
                        "name": "Transfer",
                        "params": [
                            {
                                "name": "from",
                                "type": "address",
                                "value": "0x963462d3465efb5ac81d7bb60e7e143eb7e7a646"
                            },
                            {
                                "name": "to",
                                "type": "address",
                                "value": "0xbe5deffeb557d9f0f224d7a9266d1cd5d2ce072a"
                            },
                            {
                                "decimalAvailable": true,
                                "name": "tokenId",
                                "type": "uint256",
                                "value": "6,833"
                            }
                        ],
                        "signature": "Transfer(address,address,uint256)"
                    },
                    "id": 2,
                    "logData": "0x",
                    "logDecoded": true,
                    "operation": "EVENT",
                    "revert": false,
                    "status": true,
                    "topics": [
                        "0xddf252ad1be2c89b69c2b068fc378daa952ba7f163c4a11628f55a4df523b3ef",
                        "0x000000000000000000000000963462d3465efb5ac81d7bb60e7e143eb7e7a646",
                        "0x000000000000000000000000be5deffeb557d9f0f224d7a9266d1cd5d2ce072a",
                        "0x0000000000000000000000000000000000000000000000000000000000001ab1"
                    ]
                },
                "nodeType": 1
            }
        },
        "gasFlame": [
            {
                "children": [
                    {
                        "children": [
                            {
                                "children": [],
                                "depth": 0,
                                "name": "Initial Gas",
                                "value": 21952
                            },
                            {
                                "children": [],
                                "depth": 0,
                                "name": "Executed Gas",
                                "value": 43196
                            }
                        ],
                        "depth": -1,
                        "name": "Actual Gas Used",
                        "value": 65148
                    },
                    {
                        "children": [],
                        "depth": -1,
                        "name": "Refunded Gas",
                        "value": 0
                    }
                ],
                "depth": -2,
                "name": "Total Gas",
                "value": 65148
            }
        ],
        "isConfirmed": true,
        "mainTrace": [
            {
                "children": [
                    {
                        "children": [
                            {
                                "children": [],
                                "depth": 1,
                                "id": 1,
                                "order": 1
                            },
                            {
                                "children": [],
                                "depth": 1,
                                "id": 2,
                                "order": 2
                            }
                        ],
                        "depth": 0,
                        "id": 0,
                        "order": 0
                    }
                ],
                "depth": -1,
                "id": -1,
                "order": -1
            }
        ],
        "mainTraceNodeCount": 3,
        "parentIdMap": {
            "0": -1,
            "1": 0,
            "2": 0
        },
        "tidyTrace": [
            {
                "children": [
                    {
                        "children": [
                            {
                                "children": [],
                                "depth": 1,
                                "id": 1,
                                "order": 1
                            },
                            {
                                "children": [],
                                "depth": 1,
                                "id": 2,
                                "order": 2
                            }
                        ],
                        "depth": 0,
                        "id": 0,
                        "order": 0
                    }
                ],
                "depth": -1,
                "id": -1,
                "order": -1
            }
        ],
        "tidyTraceNodeCount": 3
    },
    "state_change": {
        "stateChanges": [
            {
                "address": "0xcbc67ea382f8a006d46eeeb7255876beb7d7f14d",
                "erc": "ERC-721",
                "slots": [
                    {
                        "current": "0x0000000000000000000000000000000000000000000000000000000000000001",
                        "key": "0x6066362431275909e86a3a01df72a6b49143906880adf8cf0baa6bd64624e336",
                        "prev": "0x0000000000000000000000000000000000000000000000000000000000000000"
                    },
                    {
                        "current": "0x000000000000000000000000be5deffeb557d9f0f224d7a9266d1cd5d2ce072a",
                        "key": "0xc2575a0e9e593c00f959f8c92f12db2869c3395a3b0502d05e2516446f72130c",
                        "prev": "0x000000000000000000000000963462d3465efb5ac81d7bb60e7e143eb7e7a646"
                    },
                    {
                        "current": "0x0000000000000000000000000000000000000000000000000000000000000002",
                        "key": "0xb633585a4f3c7758c1f7298cdb7ea1698e3fa489718ffdf9a7a3eb451c079681",
                        "prev": "0x0000000000000000000000000000000000000000000000000000000000000003"
                    }
                ],
                "storageVariables": [
                    {
                        "name": "_tokens",
                        "type": "address[]",
                        "value": {
                            "elemType": "address",
                            "elems": [
                                {
                                    "index": 6833,
                                    "value": {
                                        "current": "0xbe5deffeb557d9f0f224d7a9266d1cd5d2ce072a",
                                        "prev": "0x963462d3465efb5ac81d7bb60e7e143eb7e7a646",
                                        "typeTag": 1
                                    }
                                }
                            ],
                            "typeTag": 2
                        }
                    },
                    {
                        "name": "_balances",
                        "type": "mapping(address => uint256)",
                        "value": {
                            "pairs": [
                                {
                                    "key": "0x963462d3465efb5ac81d7bb60e7e143eb7e7a646",
                                    "value": {
                                        "current": "2",
                                        "prev": "3",
                                        "typeTag": 1
                                    }
                                },
                                {
                                    "key": "0xbe5deffeb557d9f0f224d7a9266d1cd5d2ce072a",
                                    "value": {
                                        "current": "1",
                                        "prev": "0",
                                        "typeTag": 1
                                    }
                                }
                            ],
                            "typeTag": 4
                        }
                    }
                ]
            }
        ]
    }
}