{
    "balance_change": {
        "balanceChanges": []
    },
    "profile": {
        "basic_info": {
            "baseFee": "",
            "blockNumber": 11050432,
            "callData": "0xc47f00270000000000000000000000000000000000000000000000000000000000000020000000000000000000000000000000000000000000000000000000000000000c706f6c61726974792e6574680000000000000000000000000000000000000000",
            "debugEnable": true,
            "errorInfo": "",
            "eventCount": 2,
            "feeRecipient": "0x3ecef08d0e2dad803847e052249bb4f8bff2d5bb",
            "formatValue": "0",
            "gasLimit": 123966,
            "gasPrice": "21.000001347",
            "gasUsed": 123650,
            "intTxnCount": 8,
            "internalRevert": false,
            "internalRevertMessage": "",
            "isContractCreation": false,
            "isFlashloan": false,
            "maxFee": "",
            "nonce": 50,
            "overwritedBlockNumber": -1,
            "priorityFee": "",
            "receiver": "0x084b1c3c81545d370f3634392de611caabff8148",
            "revertMessage": "",
            "sender": "0x21af0a9117ee420cb26c32a49c59220f38f5991b",
            "simulationEnable": true,
            "sourceTxnHash": "0xf93939e545d33edeb41b7031ff57de45119befb606fa1b464a1f7e54a74d43db",
            "status": true,
            "timestamp": "2020-10-13T23:56:16Z",
            "transactionFee": "0.00259665016655655",
            "txnHash": "0xf93939e545d33edeb41b7031ff57de45119befb606fa1b464a1f7e54a74d43db",
            "txnIndex": 169,
            "type": 0,
            "value": "0"
        },
        "fund_flow": [],
        "token_infos": [
            {
                "address": "0xc02aaa39b223fe8d0a0e5c4f27ead9083c756cc2",
                "decimals": 18
            },
            {
                "address": "0xeeeeeeeeeeeeeeeeeeeeeeeeeeeeeeeeeeeeeeee",
                "decimals": 18
            }
        ]
    },
    "address_label": {
        "labels": [
            {
                "address": "0x0000000000000000000000000000000000000001",
                "label": "Precompiled"
            },
            {
                "address": "0x0000000000000000000000000000000000000004",
                "label": "Precompiled"
            },
            {
                "address": "0x314159265dd8dbb310642f98f50c066173c1259b",
                "label": "ENS: Eth Name Service"
            },
            {
                "address": "0x084b1c3c81545d370f3634392de611caabff8148",
                "label": "ENS: Old Reverse Registrar 2"
            },
            {
                "address": "0x00000000000c2e074ec69a0dfb2997ba6c7d2e1e",
                "label": "ENS: Registry with Fallback"
            },
            {
                "address": "0x0000000000000000000000000000000000000000",
                "label": "Null Address"
            },
            {
                "address": "0x0000000000000000000000000000000000000002",
                "label": "Precompiled"
            },
            {
                "address": "0x0000000000000000000000000000000000000003",
                "label": "Precompiled"
            },
            {
                "address": "0xeeeeeeeeeeeeeeeeeeeeeeeeeeeeeeeeeeeeeeee",
                "label": "Ether"
            },
            {
                "address": "0xa2c122be93b0074270ebee7f6b7292c7deb45047",
                "label": "ENS: Default Reverse Resolver"
            }
        ]
    },
    "trace": {
        "accountLabels": null,
        "dataMap": {
            "-1": {
                "invocation": {
                    "address": "0x21af0a9117ee420cb26c32a49c59220f38f5991b",
                    "callData": "",
                    "decodedMethod": null,
                    "errorInfo": "",
                    "fromAddress": "",
                    "gasUsed": 0,
                    "id": -1,
                    "methodDecoded": false,
                    "operation": "",
                    "output": "",
                    "revert": false,
                    "revertMessage": "",
                    "selector": "",
                    "status": false,
                    "value": ""
                },
                "nodeType": 0
            },
            "0": {
                "invocation": {
                    "address": "0x084b1c3c81545d370f3634392de611caabff8148",
                    "callData": "0x0000000000000000000000000000000000000000000000000000000000000020000000000000000000000000000000000000000000000000000000000000000c706f6c61726974792e6574680000000000000000000000000000000000000000",
                    "decodedMethod": {
                        "callParams": [
                            {
                                "name": "name",
                                "type": "string",
                                "value": "polarity.eth"
                            }
                        ],
                        "constructorArguments": "",
                        "name": "setName",
                        "returnParams": [
                            {
                                "name": "",
                                "type": "bytes32",
                                "value": "0xf132b415246ddac5f6d13b039a1e406887ecb0471c73ee0273d72c0f56c18332"
                            }
                        ],
                        "signature": "setName(string)"
                    },
                    "errorInfo": "",
                    "fromAddress": "0x21af0a9117ee420cb26c32a49c59220f38f5991b",
                    "gasUsed": 123650,
                    "id": 0,
                    "methodDecoded": true,
                    "operation": "CALL",
                    "output": "0xf132b415246ddac5f6d13b039a1e406887ecb0471c73ee0273d72c0f56c18332",
                    "revert": false,
                    "revertMessage": "",
                    "selector": "0xc47f0027",
                    "status": true,
                    "value": "0"
                },
                "nodeType": 0
            },
            "1": {
                "invocation": {
                    "address": "0x00000000000c2e074ec69a0dfb2997ba6c7d2e1e",
                    "callData": "0xf132b415246ddac5f6d13b039a1e406887ecb0471c73ee0273d72c0f56c18332",
                    "decodedMethod": {
                        "callParams": [
                            {
                                "name": "node",
                                "type": "bytes32",
                                "value": "0xf132b415246ddac5f6d13b039a1e406887ecb0471c73ee0273d72c0f56c18332"
                            }
                        ],
                        "constructorArguments": "",
                        "name": "owner",
                        "returnParams": [
                            {
                                "name": "",
                                "type": "address",
                                "value": "0x0000000000000000000000000000000000000000"
                            }
                        ],
                        "signature": "owner(bytes32)"
                    },
                    "errorInfo": "",
                    "fromAddress": "0x084b1c3c81545d370f3634392de611caabff8148",
                    "gasUsed": 4852,
                    "id": 1,
                    "methodDecoded": true,
                    "operation": "STATICCALL",
                    "output": "0x0000000000000000000000000000000000000000000000000000000000000000",
                    "revert": false,
                    "revertMessage": "",
                    "selector": "0x02571be3",
                    "status": true,
                    "value": "0"
                },
                "nodeType": 0
            },
            "10": {
                "invocation": {
                    "address": "0x00000000000c2e074ec69a0dfb2997ba6c7d2e1e",
                    "callData": "0xf132b415246ddac5f6d13b039a1e406887ecb0471c73ee0273d72c0f56c18332",
                    "decodedMethod": {
                        "callParams": [
                            {
                                "name": "node",
                                "type": "bytes32",
                                "value": "0xf132b415246ddac5f6d13b039a1e406887ecb0471c73ee0273d72c0f56c18332"
                            }
                        ],
                        "constructorArguments": "",
                        "name": "owner",
                        "returnParams": [
                            {
                                "name": "",
                                "type": "address",
                                "value": "0x084b1c3c81545d370f3634392de611caabff8148"
                            }
                        ],
                        "signature": "owner(bytes32)"
                    },
                    "errorInfo": "",
                    "fromAddress": "0xa2c122be93b0074270ebee7f6b7292c7deb45047",
                    "gasUsed": 2351,
                    "id": 10,
                    "methodDecoded": true,
                    "operation": "STATICCALL",
                    "output": "0x000000000000000000000000084b1c3c81545d370f3634392de611caabff8148",
                    "revert": false,
                    "revertMessage": "",
                    "selector": "0x02571be3",
                    "status": true,
                    "value": "0"
                },
                "nodeType": 0
            },
            "2": {
                "invocation": {
                    "address": "0x314159265dd8dbb310642f98f50c066173c1259b",
                    "callData": "0xf132b415246ddac5f6d13b039a1e406887ecb0471c73ee0273d72c0f56c18332",
                    "decodedMethod": {
                        "callParams": [
                            {
                                "name": "node",
                                "type": "bytes32",
                                "value": "0xf132b415246ddac5f6d13b039a1e406887ecb0471c73ee0273d72c0f56c18332"
                            }
                        ],
                        "constructorArguments": "",
                        "name": "owner",
                        "returnParams": [
                            {
                                "name": "",
                                "type": "address",
                                "value": "0x0000000000000000000000000000000000000000"
                            }
                        ],
                        "signature": "owner(bytes32)"
                    },
                    "errorInfo": "",
                    "fromAddress": "0x00000000000c2e074ec69a0dfb2997ba6c7d2e1e",
                    "gasUsed": 1032,
                    "id": 2,
                    "methodDecoded": true,
                    "operation": "STATICCALL",
                    "output": "0x0000000000000000000000000000000000000000000000000000000000000000",
                    "revert": false,
                    "revertMessage": "",
                    "selector": "0x02571be3",
                    "status": true,
                    "value": "0"
                },
                "nodeType": 0
            },
            "3": {
                "invocation": {
                    "address": "0x00000000000c2e074ec69a0dfb2997ba6c7d2e1e",
                    "callData": "0xf132b415246ddac5f6d13b039a1e406887ecb0471c73ee0273d72c0f56c18332",
                    "decodedMethod": {
                        "callParams": [
                            {
                                "name": "node",
                                "type": "bytes32",
                                "value": "0xf132b415246ddac5f6d13b039a1e406887ecb0471c73ee0273d72c0f56c18332"
                            }
                        ],
                        "constructorArguments": "",
                        "name": "resolver",
                        "returnParams": [
                            {
                                "name": "",
                                "type": "address",
                                "value": "0x0000000000000000000000000000000000000000"
                            }
                        ],
                        "signature": "resolver(bytes32)"
                    },
                    "errorInfo": "",
                    "fromAddress": "0x084b1c3c81545d370f3634392de611caabff8148",
                    "gasUsed": 4724,
                    "id": 3,
                    "methodDecoded": true,
                    "operation": "STATICCALL",
                    "output": "0x0000000000000000000000000000000000000000000000000000000000000000",
                    "revert": false,
                    "revertMessage": "",
                    "selector": "0x0178b8bf",
                    "status": true,
                    "value": "0"
                },
                "nodeType": 0
            },
            "4": {
                "invocation": {
                    "address": "0x314159265dd8dbb310642f98f50c066173c1259b",
                    "callData": "0xf132b415246ddac5f6d13b039a1e406887ecb0471c73ee0273d72c0f56c18332",
                    "decodedMethod": {
                        "callParams": [
                            {
                                "name": "node",
                                "type": "bytes32",
                                "value": "0xf132b415246ddac5f6d13b039a1e406887ecb0471c73ee0273d72c0f56c18332"
                            }
                        ],
                        "constructorArguments": "",
                        "name": "resolver",
                        "returnParams": [
                            {
                                "name": "",
                                "type": "address",
                                "value": "0x0000000000000000000000000000000000000000"
                            }
                        ],
                        "signature": "resolver(bytes32)"
                    },
                    "errorInfo": "",
                    "fromAddress": "0x00000000000c2e074ec69a0dfb2997ba6c7d2e1e",
                    "gasUsed": 926,
                    "id": 4,
                    "methodDecoded": true,
                    "operation": "STATICCALL",
                    "output": "0x0000000000000000000000000000000000000000000000000000000000000000",
                    "revert": false,
                    "revertMessage": "",
                    "selector": "0x0178b8bf",
                    "status": true,
                    "value": "0"
                },
                "nodeType": 0
            },
            "5": {
                "invocation": {
                    "address": "0x00000000000c2e074ec69a0dfb2997ba6c7d2e1e",
                    "callData": "0x91d1777781884d03a6757a803996e38de2a42967fb37eeaca72729271025a9e237414aeef9212b8ebf833555533a433c8fbd93a7bcd7f2c106fa698f612a89ac000000000000000000000000084b1c3c81545d370f3634392de611caabff8148",
                    "decodedMethod": {
                        "callParams": [
                            {
                                "name": "node",
                                "type": "bytes32",
                                "value": "0x91d1777781884d03a6757a803996e38de2a42967fb37eeaca72729271025a9e2"
                            },
                            {
                                "name": "label",
                                "type": "bytes32",
                                "value": "0x37414aeef9212b8ebf833555533a433c8fbd93a7bcd7f2c106fa698f612a89ac"
                            },
                            {
                                "name": "owner",
                                "type": "address",
                                "value": "0x084b1c3c81545d370f3634392de611caabff8148"
                            }
                        ],
                        "constructorArguments": "",
                        "name": "setSubnodeOwner",
                        "returnParams": [
                            {
                                "name": "",
                                "type": "bytes32",
                                "value": "0xf132b415246ddac5f6d13b039a1e406887ecb0471c73ee0273d72c0f56c18332"
                            }
                        ],
                        "signature": "setSubnodeOwner(bytes32,bytes32,address)"
                    },
                    "errorInfo": "",
                    "fromAddress": "0x084b1c3c81545d370f3634392de611caabff8148",
                    "gasUsed": 24469,
                    "id": 5,
                    "methodDecoded": true,
                    "operation": "CALL",
                    "output": "0xf132b415246ddac5f6d13b039a1e406887ecb0471c73ee0273d72c0f56c18332",
                    "revert": false,
                    "revertMessage": "",
                    "selector": "0x06ab5923",
                    "status": true,
                    "value": "0"
                },
                "nodeType": 0
            },
            "6": {
                "event": {
                    "contract": "0x00000000000c2e074ec69a0dfb2997ba6c7d2e1e",
                    "decodedLog": {
                        "name": "NewOwner",
                        "params": [
                            {
                                "name": "node",
                                "type": "bytes32",
                                "value": "0x91d1777781884d03a6757a803996e38de2a42967fb37eeaca72729271025a9e2"
                            },
                            {
                                "name": "label",
                                "type": "bytes32",
                                "value": "0x37414aeef9212b8ebf833555533a433c8fbd93a7bcd7f2c106fa698f612a89ac"
                            },
                            {
                                "name": "owner",
                                "type": "address",
                                "value": "0x084b1c3c81545d370f3634392de611caabff8148"
                            }
                        ],
                        "signature": "NewOwner(bytes32,bytes32,address)"
                    },
                    "id": 6,
                    "logData": "0x000000000000000000000000084b1c3c81545d370f3634392de611caabff8148",
                    "logDecoded": true,
                    "operation": "EVENT",
                    "revert": false,
                    "status": true,
                    "topics": [
                        "0xce0457fe73731f824cc272376169235128c118b49d344817417c6d108d155e82",
                        "0x91d1777781884d03a6757a803996e38de2a42967fb37eeaca72729271025a9e2",
                        "0x37414aeef9212b8ebf833555533a433c8fbd93a7bcd7f2c106fa698f612a89ac"
                    ]
                },
                "nodeType": 1
            },
            "7": {
                "invocation": {
                    "address": "0x00000000000c2e074ec69a0dfb2997ba6c7d2e1e",
                    "callData": "0xf132b415246ddac5f6d13b039a1e406887ecb0471c73ee0273d72c0f56c18332000000000000000000000000a2c122be93b0074270ebee7f6b7292c7deb45047",
                    "decodedMethod": {
                        "callParams": [
                            {
                                "name": "node",
                                "type": "bytes32",
                                "value": "0xf132b415246ddac5f6d13b039a1e406887ecb0471c73ee0273d72c0f56c18332"
                            },
                            {
                                "name": "resolver",
                                "type": "address",
                                "value": "0xa2c122be93b0074270ebee7f6b7292c7deb45047"
                            }
                        ],
                        "constructorArguments": "",
                        "name": "setResolver",
                        "returnParams": [],
                        "signature": "setResolver(bytes32,address)"
                    },
                    "errorInfo": "",
                    "fromAddress": "0x084b1c3c81545d370f3634392de611caabff8148",
                    "gasUsed": 23771,
                    "id": 7,
                    "methodDecoded": true,
                    "operation": "CALL",
                    "output": "",
                    "revert": false,
                    "revertMessage": "",
                    "selector": "0x1896f70a",
                    "status": true,
                    "value": "0"
                },
                "nodeType": 0
            },
            "8": {
                "event": {
                    "contract": "0x00000000000c2e074ec69a0dfb2997ba6c7d2e1e",
                    "decodedLog": {
                        "name": "NewResolver",
                        "params": [
                            {
                                "name": "node",
                                "type": "bytes32",
                                "value": "0xf132b415246ddac5f6d13b039a1e406887ecb0471c73ee0273d72c0f56c18332"
                            },
                            {
                                "name": "resolver",
                                "type": "address",
                                "value": "0xa2c122be93b0074270ebee7f6b7292c7deb45047"
                            }
                        ],
                        "signature": "NewResolver(bytes32,address)"
                    },
                    "id": 8,
                    "logData": "0x000000000000000000000000a2c122be93b0074270ebee7f6b7292c7deb45047",
                    "logDecoded": true,
                    "operation": "EVENT",
                    "revert": false,
                    "status": true,
                    "topics": [
                        "0x335721b01866dc23fbee8b6b2c7b1e14d6f05c28cd35a2c934239f94095602a0",
                        "0xf132b415246ddac5f6d13b039a1e406887ecb0471c73ee0273d72c0f56c18332"
                    ]
                },
                "nodeType": 1
            },
            "9": {
                "invocation": {
                    "address": "0xa2c122be93b0074270ebee7f6b7292c7deb45047",
                    "callData": "0xf132b415246ddac5f6d13b039a1e406887ecb0471c73ee0273d72c0f56c183320000000000000000000000000000000000000000000000000000000000000040000000000000000000000000000000000000000000000000000000000000000c706f6c61726974792e6574680000000000000000000000000000000000000000",
                    "decodedMethod": {
                        "callParams": [
                            {
                                "name": "node",
                                "type": "bytes32",
                                "value": "0xf132b415246ddac5f6d13b039a1e406887ecb0471c73ee0273d72c0f56c18332"
                            },
                            {
                                "name": "_name",
                                "type": "string",
                                "value": "polarity.eth"
                            }
                        ],
                        "constructorArguments": "",
                        "name": "setName",
                        "returnParams": [],
                        "signature": "setName(bytes32,string)"
                    },
                    "errorInfo": "",
                    "fromAddress": "0x084b1c3c81545d370f3634392de611caabff8148",
                    "gasUsed": 26698,
                    "id": 9,
                    "methodDecoded": true,
                    "operation": "CALL",
                    "output": "",
                    "revert": false,
                    "revertMessage": "",
                    "selector": "0x77372213",
                    "status": true,
                    "value": "0"
                },
                "nodeType": 0
            }
        },
        "gasFlame": [
            {
                "children": [
                    {
                        "children": [
                            {
                                "children": [],
                                "depth": 0,
                                "name": "Initial Gas",
                                "value": 21604
                            },
                            {
                                "children": [
                                    {
                                        "children": [
                                            {
                                                "children": [],
                                                "depth": 2,
                                                "name": "owner",
                                                "value": 1032
                                            }
                                        ],
                                        "depth": 1,
                                        "name": "owner",
                                        "value": 4852
                                    },
                                    {
                                        "children": [
                                            {
                                                "children": [],
                                                "depth": 2,
                                                "name": "resolver",
                                                "value": 926
                                            }
                                        ],
                                        "depth": 1,
                                        "name": "resolver",
                                        "value": 4724
                                    },
                                    {
                                        "children": [],
                                        "depth": 1,
                                        "name": "setSubnodeOwner",
                                        "value": 24469
                                    },
                                    {
                                        "children": [],
                                        "depth": 1,
                                        "name": "setResolver",
                                        "value": 23771
                                    },
                                    {
                                        "children": [
                                            {
                                                "children": [],
                                                "depth": 2,
                                                "name": "owner",
                                                "value": 2351
                                            }
                                        ],
                                        "depth": 1,
                                        "name": "setName",
                                        "value": 26698
                                    }
                                ],
                                "depth": 0,
                                "name": "Executed Gas",
                                "value": 102046
                            }
                        ],
                        "depth": -1,
                        "name": "Actual Gas Used",
                        "value": 123650
                    },
                    {
                        "children": [],
                        "depth": -1,
                        "name": "Refunded Gas",
                        "value": 0
                    }
                ],
                "depth": -2,
                "name": "Total Gas",
                "value": 123650
            }
        ],
        "isConfirmed": true,
        "mainTrace": [
            {
                "children": [
                    {
                        "children": [
                            {
                                "children": [
                                    {
                                        "children": [],
                                        "depth": 2,
                                        "id": 2,
                                        "order": 2
                                    }
                                ],
                                "depth": 1,
                                "id": 1,
                                "order": 1
                            },
                            {
                                "children": [
                                    {
                                        "children": [],
                                        "depth": 2,
                                        "id": 4,
                                        "order": 4
                                    }
                                ],
                                "depth": 1,
                                "id": 3,
                                "order": 3
                            },
                            {
                                "children": [
                                    {
                                        "children": [],
                                        "depth": 2,
                                        "id": 6,
                                        "order": 6
                                    }
                                ],
                                "depth": 1,
                                "id": 5,
                                "order": 5
                            },
                            {
                                "children": [
                                    {
                                        "children": [],
                                        "depth": 2,
                                        "id": 8,
                                        "order": 8
                                    }
                                ],
                                "depth": 1,
                                "id": 7,
                                "order": 7
                            },
                            {
                                "children": [
                                    {
                                        "children": [],
                                        "depth": 2,
                                        "id": 10,
                                        "order": 10
                                    }
                                ],
                                "depth": 1,
                                "id": 9,
                                "order": 9
                            }
                        ],
                        "depth": 0,
                        "id": 0,
                        "order": 0
                    }
                ],
                "depth": -1,
                "id": -1,
                "order": -1
            }
        ],
        "mainTraceNodeCount": 11,
        "parentIdMap": {
            "0": -1,
            "1": 0,
            "10": 9,
            "2": 1,
            "3": 0,
            "4": 3,
            "5": 0,
            "6": 5,
            "7": 0,
            "8": 7,
            "9": 0
        },
        "tidyTrace": [
            {
                "children": [
                    {
                        "children": [
                            {
                                "children": [
                                    {
                                        "children": [],
                                        "depth": 2,
                                        "id": 6,
                                        "order": 6
                                    }
                                ],
                                "depth": 1,
                                "id": 5,
                                "order": 5
                            },
                            {
                                "children": [
                                    {
                                        "children": [],
                                        "depth": 2,
                                        "id": 8,
                                        "order": 8
                                    }
                                ],
                                "depth": 1,
                                "id": 7,
                                "order": 7
                            },
                            {
                                "children": [],
                                "depth": 1,
                                "id": 9,
                                "order": 9
                            }
                        ],
                        "depth": 0,
                        "id": 0,
                        "order": 0
                    }
                ],
                "depth": -1,
                "id": -1,
                "order": -1
            }
        ],
        "tidyTraceNodeCount": 6
    },
    "state_change": {
        "stateChanges": [
            {
                "address": "0x00000000000c2e074ec69a0dfb2997ba6c7d2e1e",
                "erc": "",
                "slots": [
                    {
                        "current": "0x000000000000000000000000a2c122be93b0074270ebee7f6b7292c7deb45047",
                        "key": "0x00e0c7f6e2cf1850ac5808035c8a144a5f827e254ee02d268c255b58d7e70af4",
                        "prev": "0x0000000000000000000000000000000000000000000000000000000000000000"
                    },
                    {
                        "current": "0x000000000000000000000000084b1c3c81545d370f3634392de611caabff8148",
                        "key": "0x00e0c7f6e2cf1850ac5808035c8a144a5f827e254ee02d268c255b58d7e70af3",
                        "prev": "0x0000000000000000000000000000000000000000000000000000000000000000"
                    }
                ],
                "storageVariables": [
                    {
                        "name": "records",
                        "type": "mapping(bytes32 => struct ENSRegistry.Record)",
                        "value": {
                            "pairs": [
                                {
                                    "key": "0xf132b415246ddac5f6d13b039a1e406887ecb0471c73ee0273d72c0f56c18332",
                                    "value": {
                                        "fields": [
                                            {
                                                "name": "owner",
                                                "type": "address",
                                                "value": {
                                                    "current": "0x084b1c3c81545d370f3634392de611caabff8148",
                                                    "prev": "0x0000000000000000000000000000000000000000",
                                                    "typeTag": 1
                                                }
                                            },
                                            {
                                                "name": "resolver",
                                                "type": "address",
                                                "value": {
                                                    "current": "0xa2c122be93b0074270ebee7f6b7292c7deb45047",
                                                    "prev": "0x0000000000000000000000000000000000000000",
                                                    "typeTag": 1
                                                }
                                            },
                                            {
                                                "name": "ttl",
                                                "type": "uint64",
                                                "value": {
                                                    "current": "0",
                                                    "prev": "0",
                                                    "typeTag": 1
                                                }
                                            }
                                        ],
                                        "typeTag": 3
                                    }
                                }
                            ],
                            "typeTag": 4
                        }
                    }
                ]
            },
            {
                "address": "0xa2c122be93b0074270ebee7f6b7292c7deb45047",
                "erc": "",
                "slots": [
                    {
                        "current": "0x706f6c61726974792e6574680000000000000000000000000000000000000018",
                        "key": "0x5aacded3f0a0e374a3a7777cdc05faffd73e68d303a74735fb59d53ff5558891",
                        "prev": "0x0000000000000000000000000000000000000000000000000000000000000000"
                    }
                ],
                "storageVariables": [
                    {
                        "name": "name",
                        "type": "mapping(bytes32 => string)",
                        "value": {
                            "pairs": [
                                {
                                    "key": "0xf132b415246ddac5f6d13b039a1e406887ecb0471c73ee0273d72c0f56c18332",
                                    "value": {
                                        "current": "polarity.eth",
                                        "prev": "",
                                        "typeTag": 1
                                    }
                                }
                            ],
                            "typeTag": 4
                        }
                    }
                ]
            }
        ]
    }
}