{
    "balance_change": {
        "balanceChanges": [
            {
                "account": "0xa910a4bee6a47767493cf2e5328df1c6cf58461e",
                "assets": [
                    {
                        "address": "0xeeeeeeeeeeeeeeeeeeeeeeeeeeeeeeeeeeeeeeee",
                        "amount": "0.00245",
                        "iconUrl": "https://assets.blocksec.com/image/1663669189317-3.png",
                        "isERC1155": false,
                        "isERC721": false,
                        "sign": false,
                        "value": "6.7639761699999997294"
                    },
                    {
                        "address": "0x7a56e1c57c7475ccf742a1832b028f0456652f97",
                        "amount": "0.00010573",
                        "iconUrl": "",
                        "isERC1155": false,
                        "isERC721": false,
                        "sign": true,
                        "value": "6.76774032"
                    }
                ]
            },
            {
                "account": "0xc02aaa39b223fe8d0a0e5c4f27ead9083c756cc2",
                "assets": [
                    {
                        "address": "0xeeeeeeeeeeeeeeeeeeeeeeeeeeeeeeeeeeeeeeee",
                        "amount": "0.00245",
                        "iconUrl": "https://assets.blocksec.com/image/1663669189317-3.png",
                        "isERC1155": false,
                        "isERC721": false,
                        "sign": true,
                        "value": "6.7639761699999997294"
                    },
                    {
                        "address": "0xc02aaa39b223fe8d0a0e5c4f27ead9083c756cc2",
                        "amount": "0.00245",
                        "iconUrl": "https://assets.blocksec.com/icon/f1cb2d02c471d545bbc7722daf3277fd852d98e63d118771af7047bd8256c516.png",
                        "isERC1155": false,
                        "isERC721": false,
                        "sign": false,
                        "value": "6.7639761699999997294"
                    }
                ]
            },
            {
                "account": "0xc5c28b489bd1f84768ac197a63d56162832baa25",
                "assets": [
                    {
                        "address": "0x2260fac5e5542a773aa44fbcfedf7c193bc2c599",
                        "amount": "0.00010573",
                        "iconUrl": "https://assets.blocksec.com/icon/878f2983cb21c5816eb5879d9b6f7a3fe2eb6fce7560c367a0315527852a8a84.png",
                        "isERC1155": false,
                        "isERC721": false,
                        "sign": true,
                        "value": "6.7677773"
                    },
                    {
                        "address": "0x7a56e1c57c7475ccf742a1832b028f0456652f97",
                        "amount": "0.00010573",
                        "iconUrl": "",
                        "isERC1155": false,
                        "isERC721": false,
                        "sign": false,
                        "value": "6.76774032"
                    }
                ]
            },
            {
                "account": "0xe6ff8b9a37b0fab776134636d9981aa778c4e718",
                "assets": [
                    {
                        "address": "0x2260fac5e5542a773aa44fbcfedf7c193bc2c599",
                        "amount": "0.00010573",
                        "iconUrl": "https://assets.blocksec.com/icon/878f2983cb21c5816eb5879d9b6f7a3fe2eb6fce7560c367a0315527852a8a84.png",
                        "isERC1155": false,
                        "isERC721": false,
                        "sign": false,
                        "value": "6.7677773"
                    },
                    {
                        "address": "0xc02aaa39b223fe8d0a0e5c4f27ead9083c756cc2",
                        "amount": "0.00245",
                        "iconUrl": "https://assets.blocksec.com/icon/f1cb2d02c471d545bbc7722daf3277fd852d98e63d118771af7047bd8256c516.png",
                        "isERC1155": false,
                        "isERC721": false,
                        "sign": true,
                        "value": "6.7639761699999997294"
                    }
                ]
            }
        ]
    },
    "profile": {
        "basic_info": {
            "baseFee": "0.821559282",
            "blockNumber": 20596631,
            "callData": "0xa8676443000000000000000000000000eeeeeeeeeeeeeeeeeeeeeeeeeeeeeeeeeeeeeeee0000000000000000000000007a56e1c57c7475ccf742a1832b028f0456652f9700000000000000000000000040aa958dd87fc8305b97f2ba922cddca374bcd7f0000000000000000000000007d0ccaa3fac1e5a943c5168b6ced828691b46b360000000000000000000000000000000000000000000000000008b44313b3200000000000000000000000000000000000000000000000000000005ff7f341959f000000000000000000000000000000000000000000000000000000000000012000000000000000000000000000000000000000000000000000000000000001800000000000000000000000000000000000000000000000000000000066c9805c0000000000000000000000000000000000000000000000000000000000000040000000000000000000000000000000000000000000000000000000000000000000000000000000000000000000000000000000000000000000000000000000000000000000000000000000000000000000000000000000000000000000000684b80c2f0900000000000000000000000000000000000000000000000000000000000186ca000000000000000000000000eeeeeeeeeeeeeeeeeeeeeeeeeeeeeeeeeeeeeeee0000000000000000000000007a56e1c57c7475ccf742a1832b028f0456652f970000000000000000000000000000000000000000000000000008b44313b3200000000000000000000000000000000000000000000000000000005ff7f3180b000000000000000000000000000000000000000000000000000000000066c989be00000000000000000000000000000000000000000000000000000000000001200000000000000000000000000000000000000000000000000000000000000160000000000000000000000000000000000000000000000000000000000000066000000000000000000000000000000000000000000000000000000000000000010000000000000000000000000000000000000000000000000008b44313b32000000000000000000000000000000000000000000000000000000000000000000100000000000000000000000000000000000000000000000000000000000000200000000000000000000000000000000000000000000000000000000000000002000000000000000000000000000000000000000000000000000000000000004000000000000000000000000000000000000000000000000000000000000002c000000000000000000000000000000000000000000000000000000000000000a000000000000000000000000000000000000000000000000000000000000000e000000000000000000000000000000000000000000000000000000000000001200000000000000000000000000000000000000000000000000000000000000160000000000000000000000000c02aaa39b223fe8d0a0e5c4f27ead9083c756cc2000000000000000000000000000000000000000000000000000000000000000100000000000000000000000003f911aedc25c770e701b8f563e8102cfacd62c0000000000000000000000000000000000000000000000000000000000000000100000000000000000000000003f911aedc25c770e701b8f563e8102cfacd62c00000000000000000000000000000000000000000000000000000000000000001800000000000000000002710e6ff8b9a37b0fab776134636d9981aa778c4e7180000000000000000000000000000000000000000000000000000000000000001000000000000000000000000000000000000000000000000000000000000002000000000000000000000000000000000000000000000000000000000000000c0000000000000000000000000000000000000000000000000000000000000000000000000000000000000000000000000000000000000000000000000000000400000000000000000000000000000000000000000000000000000000000000060000000000000000000000000c02aaa39b223fe8d0a0e5c4f27ead9083c756cc20000000000000000000000002260fac5e5542a773aa44fbcfedf7c193bc2c599000000000000000000000000000000000000000000000000000000000000006400000000000000000000000000000000000000000000000000000000000000a000000000000000000000000000000000000000000000000000000000000000e0000000000000000000000000000000000000000000000000000000000000012000000000000000000000000000000000000000000000000000000000000001600000000000000000000000002260fac5e5542a773aa44fbcfedf7c193bc2c599000000000000000000000000000000000000000000000000000000000000000100000000000000000000000056bd269db96a089295d742351ba459fb0c279fe20000000000000000000000000000000000000000000000000000000000000001000000000000000000000000c5c28b489bd1f84768ac197a63d56162832baa250000000000000000000000000000000000000000000000000000000000000001800000000000000000002710c5c28b489bd1f84768ac197a63d56162832baa250000000000000000000000000000000000000000000000000000000000000001000000000000000000000000000000000000000000000000000000000000002000000000000000000000000000000000000000000000000000000000000000010000000000000000000000000000000000000000000000000000000000000000000000000000000000000000000000000000000000000000000000000000000000000000000000000000000000000000000000000000000000000000",
            "debugEnable": true,
            "errorInfo": "",
            "eventCount": 11,
            "feeRecipient": "0x4838b106fce9647bdf1e7877bf73ce8b0bad5f97",
            "formatValue": "0.00245",
            "gasLimit": 366344,
            "gasPrice": "0.921559282",
            "gasUsed": 297537,
            "intTxnCount": 46,
            "internalRevert": false,
            "internalRevertMessage": "",
            "isContractCreation": false,
            "isFlashloan": false,
            "maxFee": "1.07279961",
            "nonce": 0,
            "overwritedBlockNumber": -1,
            "priorityFee": "0.1",
            "receiver": "0x50f9bde1c76bba997a5d6e7fefff695ec8536194",
            "revertMessage": "",
            "sender": "0xa910a4bee6a47767493cf2e5328df1c6cf58461e",
            "simulationEnable": true,
            "sourceTxnHash": "0xf96e486b7aa2902306a27693456529d08df2614bc411c0434d8cdbac4f1cdc15",
            "status": true,
            "timestamp": "2024-08-24T06:20:35Z",
            "transactionFee": "0.000274197984088434",
            "txnHash": "0xf96e486b7aa2902306a27693456529d08df2614bc411c0434d8cdbac4f1cdc15",
            "txnIndex": 44,
            "type": 2,
            "value": "2450000000000000"
        },
        "fund_flow": [
            {
                "amount": "0.00245",
                "from": "0xa910a4bee6a47767493cf2e5328df1c6cf58461e",
                "id": 1,
                "isERC1155": false,
                "isERC721": false,
                "isReverted": false,
                "order": 1,
                "to": "0x50f9bde1c76bba997a5d6e7fefff695ec8536194",
                "token": "0xeeeeeeeeeeeeeeeeeeeeeeeeeeeeeeeeeeeeeeee"
            },
            {
                "amount": "0.00245",
                "from": "0x50f9bde1c76bba997a5d6e7fefff695ec8536194",
                "id": 2,
                "isERC1155": false,
                "isERC721": false,
                "isReverted": false,
                "order": 2,
                "to": "0x7d0ccaa3fac1e5a943c5168b6ced828691b46b36",
                "token": "0xeeeeeeeeeeeeeeeeeeeeeeeeeeeeeeeeeeeeeeee"
            },
            {
                "amount": "0.00245",
                "from": "0x7d0ccaa3fac1e5a943c5168b6ced828691b46b36",
                "id": 3,
                "isERC1155": false,
                "isERC721": false,
                "isReverted": false,
                "order": 3,
                "to": "0xc02aaa39b223fe8d0a0e5c4f27ead9083c756cc2",
                "token": "0xeeeeeeeeeeeeeeeeeeeeeeeeeeeeeeeeeeeeeeee"
            },
            {
                "amount": "0.00245",
                "from": "0xc02aaa39b223fe8d0a0e5c4f27ead9083c756cc2",
                "id": 4,
                "isERC1155": false,
                "isERC721": false,
                "isReverted": false,
                "order": 4,
                "to": "0x7d0ccaa3fac1e5a943c5168b6ced828691b46b36",
                "token": "0xc02aaa39b223fe8d0a0e5c4f27ead9083c756cc2"
            },
            {
                "amount": "0.00245",
                "from": "0x7d0ccaa3fac1e5a943c5168b6ced828691b46b36",
                "id": 5,
                "isERC1155": false,
                "isERC721": false,
                "isReverted": false,
                "order": 5,
                "to": "0x03f911aedc25c770e701b8f563e8102cfacd62c0",
                "token": "0xc02aaa39b223fe8d0a0e5c4f27ead9083c756cc2"
            },
            {
                "amount": "0.00010573",
                "from": "0xe6ff8b9a37b0fab776134636d9981aa778c4e718",
                "id": 6,
                "isERC1155": false,
                "isERC721": false,
                "isReverted": false,
                "order": 6,
                "to": "0xc5c28b489bd1f84768ac197a63d56162832baa25",
                "token": "0x2260fac5e5542a773aa44fbcfedf7c193bc2c599"
            },
            {
                "amount": "0.00245",
                "from": "0x03f911aedc25c770e701b8f563e8102cfacd62c0",
                "id": 7,
                "isERC1155": false,
                "isERC721": false,
                "isReverted": false,
                "order": 7,
                "to": "0xe6ff8b9a37b0fab776134636d9981aa778c4e718",
                "token": "0xc02aaa39b223fe8d0a0e5c4f27ead9083c756cc2"
            },
            {
                "amount": "0.00010573",
                "from": "0xc5c28b489bd1f84768ac197a63d56162832baa25",
                "id": 8,
                "isERC1155": false,
                "isERC721": false,
                "isReverted": false,
                "order": 8,
                "to": "0x50f9bde1c76bba997a5d6e7fefff695ec8536194",
                "token": "0x7a56e1c57c7475ccf742a1832b028f0456652f97"
            },
            {
                "amount": "0.00010573",
                "from": "0x50f9bde1c76bba997a5d6e7fefff695ec8536194",
                "id": 9,
                "isERC1155": false,
                "isERC721": false,
                "isReverted": false,
                "order": 9,
                "to": "0xa910a4bee6a47767493cf2e5328df1c6cf58461e",
                "token": "0x7a56e1c57c7475ccf742a1832b028f0456652f97"
            }
        ],
        "token_infos": [
            {
                "address": "0x7a56e1c57c7475ccf742a1832b028f0456652f97",
                "decimals": 18
            },
            {
                "address": "0xc02aaa39b223fe8d0a0e5c4f27ead9083c756cc2",
                "decimals": 18
            },
            {
                "address": "0xeeeeeeeeeeeeeeeeeeeeeeeeeeeeeeeeeeeeeeee",
                "decimals": 18
            },
            {
                "address": "0x2260fac5e5542a773aa44fbcfedf7c193bc2c599",
                "decimals": 8
            }
        ]
    },
    "address_label": {
        "labels": [
            {
                "address": "0x2c32dfc4df92df02ae9d9ad0750a3f209ddca61a",
                "label": "FeeRateDIP3Impl"
            },
            {
                "address": "0x3a64ec3606ff7310e8fad6fcc008e39705fb496d",
                "label": "DVM"
            },
            {
                "address": "0x0000000000000000000000000000000000000001",
                "label": "Precompiled"
            },
            {
                "address": "0xe6ff8b9a37b0fab776134636d9981aa778c4e718",
                "label": "Uniswap V3: WBTC 4"
            },
            {
                "address": "0x5e84190a270333ace5b9202a3f4cebf11b81bb01",
                "label": "FeeRateModel"
            },
            {
                "address": "0x0000000000000000000000000000000000000002",
                "label": "Precompiled"
            },
            {
                "address": "0x0000000000000000000000000000000000000003",
                "label": "Precompiled"
            },
            {
                "address": "0x0000000000000000000000000000000000000004",
                "label": "Precompiled"
            },
            {
                "address": "0x40aa958dd87fc8305b97f2ba922cddca374bcd7f",
                "label": "OKX DEX: TokenApprove"
            },
            {
                "address": "0xfc335fda7e6a33329a83f4d5f578ec7d8a43dc4a",
                "label": "UpgradeableBeacon"
            },
            {
                "address": "0x50f9bde1c76bba997a5d6e7fefff695ec8536194",
                "label": "DODO: Fee Route"
            },
            {
                "address": "0x7a56e1c57c7475ccf742a1832b028f0456652f97",
                "label": "Solv Protocol: SolvBTC Token"
            },
            {
                "address": "0xc02aaa39b223fe8d0a0e5c4f27ead9083c756cc2",
                "label": "Wrapped Ether (WETH)"
            },
            {
                "address": "0xc5c28b489bd1f84768ac197a63d56162832baa25",
                "label": "DLP"
            },
            {
                "address": "0x9f2a9f488d82683e8a4a51a581fd34155d50d541",
                "label": "SolvBTC"
            },
            {
                "address": "0xeeeeeeeeeeeeeeeeeeeeeeeeeeeeeeeeeeeeeeee",
                "label": "Ether"
            },
            {
                "address": "0x2260fac5e5542a773aa44fbcfedf7c193bc2c599",
                "label": "Wrapped BTC: WBTC Token"
            }
        ]
    },
    "trace": {
        "accountLabels": null,
        "dataMap": {
            "-1": {
                "invocation": {
                    "address": "0xa910a4bee6a47767493cf2e5328df1c6cf58461e",
                    "callData": "",
                    "decodedMethod": null,
                    "errorInfo": "",
                    "fromAddress": "",
                    "gasUsed": 0,
                    "id": -1,
                    "methodDecoded": false,
                    "operation": "",
                    "output": "",
                    "revert": false,
                    "revertMessage": "",
                    "selector": "",
                    "status": false,
                    "value": ""
                },
                "nodeType": 0
            },
            "0": {
                "invocation": {
                    "address": "0x50f9bde1c76bba997a5d6e7fefff695ec8536194",
                    "callData": "0x000000000000000000000000eeeeeeeeeeeeeeeeeeeeeeeeeeeeeeeeeeeeeeee0000000000000000000000007a56e1c57c7475ccf742a1832b028f0456652f9700000000000000000000000040aa958dd87fc8305b97f2ba922cddca374bcd7f0000000000000000000000007d0ccaa3fac1e5a943c5168b6ced828691b46b360000000000000000000000000000000000000000000000000008b44313b3200000000000000000000000000000000000000000000000000000005ff7f341959f000000000000000000000000000000000000000000000000000000000000012000000000000000000000000000000000000000000000000000000000000001800000000000000000000000000000000000000000000000000000000066c9805c0000000000000000000000000000000000000000000000000000000000000040000000000000000000000000000000000000000000000000000000000000000000000000000000000000000000000000000000000000000000000000000000000000000000000000000000000000000000000000000000000000000000000684b80c2f0900000000000000000000000000000000000000000000000000000000000186ca000000000000000000000000eeeeeeeeeeeeeeeeeeeeeeeeeeeeeeeeeeeeeeee0000000000000000000000007a56e1c57c7475ccf742a1832b028f0456652f970000000000000000000000000000000000000000000000000008b44313b3200000000000000000000000000000000000000000000000000000005ff7f3180b000000000000000000000000000000000000000000000000000000000066c989be00000000000000000000000000000000000000000000000000000000000001200000000000000000000000000000000000000000000000000000000000000160000000000000000000000000000000000000000000000000000000000000066000000000000000000000000000000000000000000000000000000000000000010000000000000000000000000000000000000000000000000008b44313b32000000000000000000000000000000000000000000000000000000000000000000100000000000000000000000000000000000000000000000000000000000000200000000000000000000000000000000000000000000000000000000000000002000000000000000000000000000000000000000000000000000000000000004000000000000000000000000000000000000000000000000000000000000002c000000000000000000000000000000000000000000000000000000000000000a000000000000000000000000000000000000000000000000000000000000000e000000000000000000000000000000000000000000000000000000000000001200000000000000000000000000000000000000000000000000000000000000160000000000000000000000000c02aaa39b223fe8d0a0e5c4f27ead9083c756cc2000000000000000000000000000000000000000000000000000000000000000100000000000000000000000003f911aedc25c770e701b8f563e8102cfacd62c0000000000000000000000000000000000000000000000000000000000000000100000000000000000000000003f911aedc25c770e701b8f563e8102cfacd62c00000000000000000000000000000000000000000000000000000000000000001800000000000000000002710e6ff8b9a37b0fab776134636d9981aa778c4e7180000000000000000000000000000000000000000000000000000000000000001000000000000000000000000000000000000000000000000000000000000002000000000000000000000000000000000000000000000000000000000000000c0000000000000000000000000000000000000000000000000000000000000000000000000000000000000000000000000000000000000000000000000000000400000000000000000000000000000000000000000000000000000000000000060000000000000000000000000c02aaa39b223fe8d0a0e5c4f27ead9083c756cc20000000000000000000000002260fac5e5542a773aa44fbcfedf7c193bc2c599000000000000000000000000000000000000000000000000000000000000006400000000000000000000000000000000000000000000000000000000000000a000000000000000000000000000000000000000000000000000000000000000e0000000000000000000000000000000000000000000000000000000000000012000000000000000000000000000000000000000000000000000000000000001600000000000000000000000002260fac5e5542a773aa44fbcfedf7c193bc2c599000000000000000000000000000000000000000000000000000000000000000100000000000000000000000056bd269db96a089295d742351ba459fb0c279fe20000000000000000000000000000000000000000000000000000000000000001000000000000000000000000c5c28b489bd1f84768ac197a63d56162832baa250000000000000000000000000000000000000000000000000000000000000001800000000000000000002710c5c28b489bd1f84768ac197a63d56162832baa250000000000000000000000000000000000000000000000000000000000000001000000000000000000000000000000000000000000000000000000000000002000000000000000000000000000000000000000000000000000000000000000010000000000000000000000000000000000000000000000000000000000000000000000000000000000000000000000000000000000000000000000000000000000000000000000000000000000000000000000000000000000000000",
                    "decodedMethod": {
                        "callParams": [
                            {
                                "name": "fromToken",
                                "type": "address",
                                "value": "0xeeeeeeeeeeeeeeeeeeeeeeeeeeeeeeeeeeeeeeee"
                            },
                            {
                                "name": "toToken",
                                "type": "address",
                                "value": "0x7a56e1c57c7475ccf742a1832b028f0456652f97"
                            },
                            {
                                "name": "approveTarget",
                                "type": "address",
                                "value": "0x40aa958dd87fc8305b97f2ba922cddca374bcd7f"
                            },
                            {
                                "name": "swapTarget",
                                "type": "address",
                                "value": "0x7d0ccaa3fac1e5a943c5168b6ced828691b46b36"
                            },
                            {
                                "name": "fromTokenAmount",
                                "type": "uint256",
                                "value": "2,450,000,000,000,000"
                            },
                            {
                                "name": "minReturnAmount",
                                "type": "uint256",
                                "value": "105,518,542,722,463"
                            },
                            {
                                "name": "feeData",
                                "type": "bytes",
                                "value": "0x00000000000000000000000000000000000000000000000000000000000000000000000000000000000000000000000000000000000000000000000000000000"
                            },
                            {
                                "name": "callDataConcat",
                                "type": "bytes",
                                "value": "0xb80c2f0900000000000000000000000000000000000000000000000000000000000186ca000000000000000000000000eeeeeeeeeeeeeeeeeeeeeeeeeeeeeeeeeeeeeeee0000000000000000000000007a56e1c57c7475ccf742a1832b028f0456652f970000000000000000000000000000000000000000000000000008b44313b3200000000000000000000000000000000000000000000000000000005ff7f3180b000000000000000000000000000000000000000000000000000000000066c989be00000000000000000000000000000000000000000000000000000000000001200000000000000000000000000000000000000000000000000000000000000160000000000000000000000000000000000000000000000000000000000000066000000000000000000000000000000000000000000000000000000000000000010000000000000000000000000000000000000000000000000008b44313b32000000000000000000000000000000000000000000000000000000000000000000100000000000000000000000000000000000000000000000000000000000000200000000000000000000000000000000000000000000000000000000000000002000000000000000000000000000000000000000000000000000000000000004000000000000000000000000000000000000000000000000000000000000002c000000000000000000000000000000000000000000000000000000000000000a000000000000000000000000000000000000000000000000000000000000000e000000000000000000000000000000000000000000000000000000000000001200000000000000000000000000000000000000000000000000000000000000160000000000000000000000000c02aaa39b223fe8d0a0e5c4f27ead9083c756cc2000000000000000000000000000000000000000000000000000000000000000100000000000000000000000003f911aedc25c770e701b8f563e8102cfacd62c0000000000000000000000000000000000000000000000000000000000000000100000000000000000000000003f911aedc25c770e701b8f563e8102cfacd62c00000000000000000000000000000000000000000000000000000000000000001800000000000000000002710e6ff8b9a37b0fab776134636d9981aa778c4e7180000000000000000000000000000000000000000000000000000000000000001000000000000000000000000000000000000000000000000000000000000002000000000000000000000000000000000000000000000000000000000000000c0000000000000000000000000000000000000000000000000000000000000000000000000000000000000000000000000000000000000000000000000000000400000000000000000000000000000000000000000000000000000000000000060000000000000000000000000c02aaa39b223fe8d0a0e5c4f27ead9083c756cc20000000000000000000000002260fac5e5542a773aa44fbcfedf7c193bc2c599000000000000000000000000000000000000000000000000000000000000006400000000000000000000000000000000000000000000000000000000000000a000000000000000000000000000000000000000000000000000000000000000e0000000000000000000000000000000000000000000000000000000000000012000000000000000000000000000000000000000000000000000000000000001600000000000000000000000002260fac5e5542a773aa44fbcfedf7c193bc2c599000000000000000000000000000000000000000000000000000000000000000100000000000000000000000056bd269db96a089295d742351ba459fb0c279fe20000000000000000000000000000000000000000000000000000000000000001000000000000000000000000c5c28b489bd1f84768ac197a63d56162832baa250000000000000000000000000000000000000000000000000000000000000001800000000000000000002710c5c28b489bd1f84768ac197a63d56162832baa2500000000000000000000000000000000000000000000000000000000000000010000000000000000000000000000000000000000000000000000000000000020000000000000000000000000000000000000000000000000000000000000000100000000000000000000000000000000000000000000000000000000000000000000000000000000000000000000000000000000000000000000000000000000"
                            },
                            {
                                "name": "deadLine",
                                "type": "uint256",
                                "value": "1,724,481,628"
                            }
                        ],
                        "constructorArguments": "",
                        "name": "externalSwap",
                        "returnParams": [
                            {
                                "name": "receiveAmount",
                                "type": "uint256",
                                "value": "105,730,000,000,000"
                            }
                        ],
                        "signature": "externalSwap(address,address,address,address,uint256,uint256,bytes,bytes,uint256)"
                    },
                    "errorInfo": "",
                    "fromAddress": "0xa910a4bee6a47767493cf2e5328df1c6cf58461e",
                    "gasUsed": 297537,
                    "id": 0,
                    "methodDecoded": true,
                    "operation": "CALL",
                    "output": "0x000000000000000000000000000000000000000000000000000060292f179400",
                    "revert": false,
                    "revertMessage": "",
                    "selector": "0xa8676443",
                    "status": true,
                    "value": "0.00245"
                },
                "nodeType": 0
            },
            "1": {
                "invocation": {
                    "address": "0x7a56e1c57c7475ccf742a1832b028f0456652f97",
                    "callData": "0x00000000000000000000000050f9bde1c76bba997a5d6e7fefff695ec8536194",
                    "decodedMethod": {
                        "callParams": [
                            {
                                "name": "account",
                                "type": "address",
                                "value": "0x50f9bde1c76bba997a5d6e7fefff695ec8536194"
                            }
                        ],
                        "constructorArguments": "",
                        "name": "balanceOf",
                        "returnParams": [
                            {
                                "decimalAvailable": true,
                                "name": "",
                                "type": "uint256",
                                "value": "0"
                            }
                        ],
                        "signature": "balanceOf(address)"
                    },
                    "errorInfo": "",
                    "fromAddress": "0x50f9bde1c76bba997a5d6e7fefff695ec8536194",
                    "gasUsed": 10972,
                    "id": 1,
                    "methodDecoded": true,
                    "operation": "STATICCALL",
                    "output": "0x0000000000000000000000000000000000000000000000000000000000000000",
                    "revert": false,
                    "revertMessage": "",
                    "selector": "0x70a08231",
                    "status": true,
                    "value": "0"
                },
                "nodeType": 0
            },
            "10": {
                "event": {
                    "contract": "0xc02aaa39b223fe8d0a0e5c4f27ead9083c756cc2",
                    "decodedLog": {
                        "name": "Deposit",
                        "params": [
                            {
                                "name": "dst",
                                "type": "address",
                                "value": "0x7d0ccaa3fac1e5a943c5168b6ced828691b46b36"
                            },
                            {
                                "name": "wad",
                                "type": "uint256",
                                "value": "2,450,000,000,000,000"
                            }
                        ],
                        "signature": "Deposit(address,uint256)"
                    },
                    "id": 10,
                    "logData": "0x0000000000000000000000000000000000000000000000000008b44313b32000",
                    "logDecoded": true,
                    "operation": "EVENT",
                    "revert": false,
                    "status": true,
                    "topics": [
                        "0xe1fffcc4923d04b559f4d29a8bfc6cda04eb5b0d3c460751c2402c5c5cc9109c",
                        "0x0000000000000000000000007d0ccaa3fac1e5a943c5168b6ced828691b46b36"
                    ]
                },
                "nodeType": 1
            },
            "11": {
                "invocation": {
                    "address": "0xc02aaa39b223fe8d0a0e5c4f27ead9083c756cc2",
                    "callData": "0x00000000000000000000000003f911aedc25c770e701b8f563e8102cfacd62c00000000000000000000000000000000000000000000000000008b44313b32000",
                    "decodedMethod": {
                        "callParams": [
                            {
                                "name": "dst",
                                "type": "address",
                                "value": "0x03f911aedc25c770e701b8f563e8102cfacd62c0"
                            },
                            {
                                "decimalAvailable": true,
                                "name": "wad",
                                "type": "uint256",
                                "value": "2,450,000,000,000,000"
                            }
                        ],
                        "constructorArguments": "",
                        "name": "transfer",
                        "returnParams": [
                            {
                                "name": "",
                                "type": "bool",
                                "value": true
                            }
                        ],
                        "signature": "transfer(address,uint256)"
                    },
                    "errorInfo": "",
                    "fromAddress": "0x7d0ccaa3fac1e5a943c5168b6ced828691b46b36",
                    "gasUsed": 25162,
                    "id": 11,
                    "methodDecoded": true,
                    "operation": "CALL",
                    "output": "0x0000000000000000000000000000000000000000000000000000000000000001",
                    "revert": false,
                    "revertMessage": "",
                    "selector": "0xa9059cbb",
                    "status": true,
                    "value": "0"
                },
                "nodeType": 0
            },
            "12": {
                "event": {
                    "contract": "0xc02aaa39b223fe8d0a0e5c4f27ead9083c756cc2",
                    "decodedLog": {
                        "name": "Transfer",
                        "params": [
                            {
                                "name": "src",
                                "type": "address",
                                "value": "0x7d0ccaa3fac1e5a943c5168b6ced828691b46b36"
                            },
                            {
                                "name": "dst",
                                "type": "address",
                                "value": "0x03f911aedc25c770e701b8f563e8102cfacd62c0"
                            },
                            {
                                "decimalAvailable": true,
                                "name": "wad",
                                "type": "uint256",
                                "value": "2,450,000,000,000,000"
                            }
                        ],
                        "signature": "Transfer(address,address,uint256)"
                    },
                    "id": 12,
                    "logData": "0x0000000000000000000000000000000000000000000000000008b44313b32000",
                    "logDecoded": true,
                    "operation": "EVENT",
                    "revert": false,
                    "status": true,
                    "topics": [
                        "0xddf252ad1be2c89b69c2b068fc378daa952ba7f163c4a11628f55a4df523b3ef",
                        "0x0000000000000000000000007d0ccaa3fac1e5a943c5168b6ced828691b46b36",
                        "0x00000000000000000000000003f911aedc25c770e701b8f563e8102cfacd62c0"
                    ]
                },
                "nodeType": 1
            },
            "13": {
                "invocation": {
                    "address": "0x03f911aedc25c770e701b8f563e8102cfacd62c0",
                    "callData": "0x000000000000000000000000c5c28b489bd1f84768ac197a63d56162832baa25000000000000000000000000e6ff8b9a37b0fab776134636d9981aa778c4e718000000000000000000000000000000000000000000000000000000000000006000000000000000000000000000000000000000000000000000000000000000c0000000000000000000000000000000000000000000000000000000000000000000000000000000000000000000000000000000000000000000000000000000400000000000000000000000000000000000000000000000000000000000000060000000000000000000000000c02aaa39b223fe8d0a0e5c4f27ead9083c756cc20000000000000000000000002260fac5e5542a773aa44fbcfedf7c193bc2c5990000000000000000000000000000000000000000000000000000000000000064",
                    "decodedMethod": {
                        "callParams": [
                            {
                                "name": "to",
                                "type": "address",
                                "value": "0xc5c28b489bd1f84768ac197a63d56162832baa25"
                            },
                            {
                                "name": "pool",
                                "type": "address",
                                "value": "0xe6ff8b9a37b0fab776134636d9981aa778c4e718"
                            },
                            {
                                "name": "moreInfo",
                                "type": "bytes",
                                "value": "0x000000000000000000000000000000000000000000000000000000000000000000000000000000000000000000000000000000000000000000000000000000400000000000000000000000000000000000000000000000000000000000000060000000000000000000000000c02aaa39b223fe8d0a0e5c4f27ead9083c756cc20000000000000000000000002260fac5e5542a773aa44fbcfedf7c193bc2c5990000000000000000000000000000000000000000000000000000000000000064"
                            }
                        ],
                        "constructorArguments": "",
                        "name": "sellQuote",
                        "returnParams": [],
                        "signature": "sellQuote(address,address,bytes)"
                    },
                    "errorInfo": "",
                    "fromAddress": "0x7d0ccaa3fac1e5a943c5168b6ced828691b46b36",
                    "gasUsed": 69046,
                    "id": 13,
                    "methodDecoded": true,
                    "operation": "CALL",
                    "output": "",
                    "revert": false,
                    "revertMessage": "",
                    "selector": "0x6f7929f2",
                    "status": true,
                    "value": "0"
                },
                "nodeType": 0
            },
            "14": {
                "invocation": {
                    "address": "0xc02aaa39b223fe8d0a0e5c4f27ead9083c756cc2",
                    "callData": "0x00000000000000000000000003f911aedc25c770e701b8f563e8102cfacd62c0",
                    "decodedMethod": {
                        "callParams": [
                            {
                                "name": "",
                                "type": "address",
                                "value": "0x03f911aedc25c770e701b8f563e8102cfacd62c0"
                            }
                        ],
                        "constructorArguments": "",
                        "name": "balanceOf",
                        "returnParams": [
                            {
                                "decimalAvailable": true,
                                "name": "",
                                "type": "uint256",
                                "value": "2,450,000,000,000,000"
                            }
                        ],
                        "signature": "balanceOf(address)"
                    },
                    "errorInfo": "",
                    "fromAddress": "0x03f911aedc25c770e701b8f563e8102cfacd62c0",
                    "gasUsed": 534,
                    "id": 14,
                    "methodDecoded": true,
                    "operation": "STATICCALL",
                    "output": "0x0000000000000000000000000000000000000000000000000008b44313b32000",
                    "revert": false,
                    "revertMessage": "",
                    "selector": "0x70a08231",
                    "status": true,
                    "value": "0"
                },
                "nodeType": 0
            },
            "15": {
                "invocation": {
                    "address": "0xe6ff8b9a37b0fab776134636d9981aa778c4e718",
                    "callData": "0x000000000000000000000000c5c28b489bd1f84768ac197a63d56162832baa2500000000000000000000000000000000000000000000000000000000000000000000000000000000000000000000000000000000000000000008b44313b32000000000000000000000000000fffd8963efd1fc6a506488495d951d5263988d2500000000000000000000000000000000000000000000000000000000000000a00000000000000000000000000000000000000000000000000000000000000060000000000000000000000000c02aaa39b223fe8d0a0e5c4f27ead9083c756cc20000000000000000000000002260fac5e5542a773aa44fbcfedf7c193bc2c5990000000000000000000000000000000000000000000000000000000000000064",
                    "decodedMethod": {
                        "callParams": [
                            {
                                "name": "recipient",
                                "type": "address",
                                "value": "0xc5c28b489bd1f84768ac197a63d56162832baa25"
                            },
                            {
                                "name": "zeroForOne",
                                "type": "bool",
                                "value": false
                            },
                            {
                                "name": "amountSpecified",
                                "type": "int256",
                                "value": "2,450,000,000,000,000"
                            },
                            {
                                "name": "sqrtPriceLimitX96",
                                "type": "uint160",
                                "value": "1,461,446,703,485,210,103,287,273,052,203,988,822,378,723,970,341"
                            },
                            {
                                "name": "data",
                                "type": "bytes",
                                "value": "0x000000000000000000000000c02aaa39b223fe8d0a0e5c4f27ead9083c756cc20000000000000000000000002260fac5e5542a773aa44fbcfedf7c193bc2c5990000000000000000000000000000000000000000000000000000000000000064"
                            }
                        ],
                        "constructorArguments": "",
                        "name": "swap",
                        "returnParams": [
                            {
                                "name": "amount0",
                                "type": "int256",
                                "value": "-10,573"
                            },
                            {
                                "name": "amount1",
                                "type": "int256",
                                "value": "2,450,000,000,000,000"
                            }
                        ],
                        "signature": "swap(address,bool,int256,uint160,bytes)"
                    },
                    "errorInfo": "",
                    "fromAddress": "0x03f911aedc25c770e701b8f563e8102cfacd62c0",
                    "gasUsed": 62085,
                    "id": 15,
                    "methodDecoded": true,
                    "operation": "CALL",
                    "output": "0xffffffffffffffffffffffffffffffffffffffffffffffffffffffffffffd6b30000000000000000000000000000000000000000000000000008b44313b32000",
                    "revert": false,
                    "revertMessage": "",
                    "selector": "0x128acb08",
                    "status": true,
                    "value": "0"
                },
                "nodeType": 0
            },
            "16": {
                "invocation": {
                    "address": "0x2260fac5e5542a773aa44fbcfedf7c193bc2c599",
                    "callData": "0x000000000000000000000000c5c28b489bd1f84768ac197a63d56162832baa25000000000000000000000000000000000000000000000000000000000000294d",
                    "decodedMethod": {
                        "callParams": [
                            {
                                "name": "_to",
                                "type": "address",
                                "value": "0xc5c28b489bd1f84768ac197a63d56162832baa25"
                            },
                            {
                                "decimalAvailable": true,
                                "name": "_value",
                                "type": "uint256",
                                "value": "10,573"
                            }
                        ],
                        "constructorArguments": "",
                        "name": "transfer",
                        "returnParams": [
                            {
                                "name": "",
                                "type": "bool",
                                "value": true
                            }
                        ],
                        "signature": "transfer(address,uint256)"
                    },
                    "errorInfo": "",
                    "fromAddress": "0xe6ff8b9a37b0fab776134636d9981aa778c4e718",
                    "gasUsed": 15703,
                    "id": 16,
                    "methodDecoded": true,
                    "operation": "CALL",
                    "output": "0x0000000000000000000000000000000000000000000000000000000000000001",
                    "revert": false,
                    "revertMessage": "",
                    "selector": "0xa9059cbb",
                    "status": true,
                    "value": "0"
                },
                "nodeType": 0
            },
            "17": {
                "event": {
                    "contract": "0x2260fac5e5542a773aa44fbcfedf7c193bc2c599",
                    "decodedLog": {
                        "name": "Transfer",
                        "params": [
                            {
                                "name": "from",
                                "type": "address",
                                "value": "0xe6ff8b9a37b0fab776134636d9981aa778c4e718"
                            },
                            {
                                "name": "to",
                                "type": "address",
                                "value": "0xc5c28b489bd1f84768ac197a63d56162832baa25"
                            },
                            {
                                "decimalAvailable": true,
                                "name": "value",
                                "type": "uint256",
                                "value": "10,573"
                            }
                        ],
                        "signature": "Transfer(address,address,uint256)"
                    },
                    "id": 17,
                    "logData": "0x000000000000000000000000000000000000000000000000000000000000294d",
                    "logDecoded": true,
                    "operation": "EVENT",
                    "revert": false,
                    "status": true,
                    "topics": [
                        "0xddf252ad1be2c89b69c2b068fc378daa952ba7f163c4a11628f55a4df523b3ef",
                        "0x000000000000000000000000e6ff8b9a37b0fab776134636d9981aa778c4e718",
                        "0x000000000000000000000000c5c28b489bd1f84768ac197a63d56162832baa25"
                    ]
                },
                "nodeType": 1
            },
            "18": {
                "invocation": {
                    "address": "0xc02aaa39b223fe8d0a0e5c4f27ead9083c756cc2",
                    "callData": "0x000000000000000000000000e6ff8b9a37b0fab776134636d9981aa778c4e718",
                    "decodedMethod": {
                        "callParams": [
                            {
                                "name": "",
                                "type": "address",
                                "value": "0xe6ff8b9a37b0fab776134636d9981aa778c4e718"
                            }
                        ],
                        "constructorArguments": "",
                        "name": "balanceOf",
                        "returnParams": [
                            {
                                "decimalAvailable": true,
                                "name": "",
                                "type": "uint256",
                                "value": "1,189,911,973,237,329,587,285"
                            }
                        ],
                        "signature": "balanceOf(address)"
                    },
                    "errorInfo": "",
                    "fromAddress": "0xe6ff8b9a37b0fab776134636d9981aa778c4e718",
                    "gasUsed": 2534,
                    "id": 18,
                    "methodDecoded": true,
                    "operation": "STATICCALL",
                    "output": "0x00000000000000000000000000000000000000000000004081588b3c4b256c55",
                    "revert": false,
                    "revertMessage": "",
                    "selector": "0x70a08231",
                    "status": true,
                    "value": "0"
                },
                "nodeType": 0
            },
            "19": {
                "invocation": {
                    "address": "0x03f911aedc25c770e701b8f563e8102cfacd62c0",
                    "callData": "0xffffffffffffffffffffffffffffffffffffffffffffffffffffffffffffd6b30000000000000000000000000000000000000000000000000008b44313b3200000000000000000000000000000000000000000000000000000000000000000600000000000000000000000000000000000000000000000000000000000000060000000000000000000000000c02aaa39b223fe8d0a0e5c4f27ead9083c756cc20000000000000000000000002260fac5e5542a773aa44fbcfedf7c193bc2c5990000000000000000000000000000000000000000000000000000000000000064",
                    "decodedMethod": {
                        "callParams": [
                            {
                                "name": "amount0Delta",
                                "type": "int256",
                                "value": "-10,573"
                            },
                            {
                                "name": "amount1Delta",
                                "type": "int256",
                                "value": "2,450,000,000,000,000"
                            },
                            {
                                "name": "data",
                                "type": "bytes",
                                "value": "0x000000000000000000000000c02aaa39b223fe8d0a0e5c4f27ead9083c756cc20000000000000000000000002260fac5e5542a773aa44fbcfedf7c193bc2c5990000000000000000000000000000000000000000000000000000000000000064"
                            }
                        ],
                        "constructorArguments": "",
                        "name": "uniswapV3SwapCallback",
                        "returnParams": [],
                        "signature": "uniswapV3SwapCallback(int256,int256,bytes)"
                    },
                    "errorInfo": "",
                    "fromAddress": "0xe6ff8b9a37b0fab776134636d9981aa778c4e718",
                    "gasUsed": 8665,
                    "id": 19,
                    "methodDecoded": true,
                    "operation": "CALL",
                    "output": "",
                    "revert": false,
                    "revertMessage": "",
                    "selector": "0xfa461e33",
                    "status": true,
                    "value": "0"
                },
                "nodeType": 0
            },
            "2": {
                "invocation": {
                    "address": "0xfc335fda7e6a33329a83f4d5f578ec7d8a43dc4a",
                    "callData": "0x",
                    "decodedMethod": {
                        "callParams": [],
                        "constructorArguments": "",
                        "name": "implementation",
                        "returnParams": [
                            {
                                "name": "",
                                "type": "address",
                                "value": "0x9f2a9f488d82683e8a4a51a581fd34155d50d541"
                            }
                        ],
                        "signature": "implementation()"
                    },
                    "errorInfo": "",
                    "fromAddress": "0x7a56e1c57c7475ccf742a1832b028f0456652f97",
                    "gasUsed": 2344,
                    "id": 2,
                    "methodDecoded": true,
                    "operation": "STATICCALL",
                    "output": "0x0000000000000000000000009f2a9f488d82683e8a4a51a581fd34155d50d541",
                    "revert": false,
                    "revertMessage": "",
                    "selector": "0x5c60da1b",
                    "status": true,
                    "value": "0"
                },
                "nodeType": 0
            },
            "20": {
                "invocation": {
                    "address": "0xc02aaa39b223fe8d0a0e5c4f27ead9083c756cc2",
                    "callData": "0x000000000000000000000000e6ff8b9a37b0fab776134636d9981aa778c4e7180000000000000000000000000000000000000000000000000008b44313b32000",
                    "decodedMethod": {
                        "callParams": [
                            {
                                "name": "dst",
                                "type": "address",
                                "value": "0xe6ff8b9a37b0fab776134636d9981aa778c4e718"
                            },
                            {
                                "decimalAvailable": true,
                                "name": "wad",
                                "type": "uint256",
                                "value": "2,450,000,000,000,000"
                            }
                        ],
                        "constructorArguments": "",
                        "name": "transfer",
                        "returnParams": [
                            {
                                "name": "",
                                "type": "bool",
                                "value": true
                            }
                        ],
                        "signature": "transfer(address,uint256)"
                    },
                    "errorInfo": "",
                    "fromAddress": "0x03f911aedc25c770e701b8f563e8102cfacd62c0",
                    "gasUsed": 6062,
                    "id": 20,
                    "methodDecoded": true,
                    "operation": "CALL",
                    "output": "0x0000000000000000000000000000000000000000000000000000000000000001",
                    "revert": false,
                    "revertMessage": "",
                    "selector": "0xa9059cbb",
                    "status": true,
                    "value": "0"
                },
                "nodeType": 0
            },
            "21": {
                "event": {
                    "contract": "0xc02aaa39b223fe8d0a0e5c4f27ead9083c756cc2",
                    "decodedLog": {
                        "name": "Transfer",
                        "params": [
                            {
                                "name": "src",
                                "type": "address",
                                "value": "0x03f911aedc25c770e701b8f563e8102cfacd62c0"
                            },
                            {
                                "name": "dst",
                                "type": "address",
                                "value": "0xe6ff8b9a37b0fab776134636d9981aa778c4e718"
                            },
                            {
                                "decimalAvailable": true,
                                "name": "wad",
                                "type": "uint256",
                                "value": "2,450,000,000,000,000"
                            }
                        ],
                        "signature": "Transfer(address,address,uint256)"
                    },
                    "id": 21,
                    "logData": "0x0000000000000000000000000000000000000000000000000008b44313b32000",
                    "logDecoded": true,
                    "operation": "EVENT",
                    "revert": false,
                    "status": true,
                    "topics": [
                        "0xddf252ad1be2c89b69c2b068fc378daa952ba7f163c4a11628f55a4df523b3ef",
                        "0x00000000000000000000000003f911aedc25c770e701b8f563e8102cfacd62c0",
                        "0x000000000000000000000000e6ff8b9a37b0fab776134636d9981aa778c4e718"
                    ]
                },
                "nodeType": 1
            },
            "22": {
                "invocation": {
                    "address": "0xc02aaa39b223fe8d0a0e5c4f27ead9083c756cc2",
                    "callData": "0x000000000000000000000000e6ff8b9a37b0fab776134636d9981aa778c4e718",
                    "decodedMethod": {
                        "callParams": [
                            {
                                "name": "",
                                "type": "address",
                                "value": "0xe6ff8b9a37b0fab776134636d9981aa778c4e718"
                            }
                        ],
                        "constructorArguments": "",
                        "name": "balanceOf",
                        "returnParams": [
                            {
                                "decimalAvailable": true,
                                "name": "",
                                "type": "uint256",
                                "value": "1,189,914,423,237,329,587,285"
                            }
                        ],
                        "signature": "balanceOf(address)"
                    },
                    "errorInfo": "",
                    "fromAddress": "0xe6ff8b9a37b0fab776134636d9981aa778c4e718",
                    "gasUsed": 534,
                    "id": 22,
                    "methodDecoded": true,
                    "operation": "STATICCALL",
                    "output": "0x00000000000000000000000000000000000000000000004081613f7f5ed88c55",
                    "revert": false,
                    "revertMessage": "",
                    "selector": "0x70a08231",
                    "status": true,
                    "value": "0"
                },
                "nodeType": 0
            },
            "23": {
                "event": {
                    "contract": "0xe6ff8b9a37b0fab776134636d9981aa778c4e718",
                    "decodedLog": {
                        "name": "Swap",
                        "params": [
                            {
                                "name": "sender",
                                "type": "address",
                                "value": "0x03f911aedc25c770e701b8f563e8102cfacd62c0"
                            },
                            {
                                "name": "recipient",
                                "type": "address",
                                "value": "0xc5c28b489bd1f84768ac197a63d56162832baa25"
                            },
                            {
                                "name": "amount0",
                                "type": "int256",
                                "value": "-10,573"
                            },
                            {
                                "name": "amount1",
                                "type": "int256",
                                "value": "2,450,000,000,000,000"
                            },
                            {
                                "name": "sqrtPriceX96",
                                "type": "uint160",
                                "value": "38,134,857,371,994,854,622,725,896,087,318,903"
                            },
                            {
                                "name": "liquidity",
                                "type": "uint128",
                                "value": "172,991,277,200,832,869"
                            },
                            {
                                "name": "tick",
                                "type": "int24",
                                "value": "261,699"
                            }
                        ],
                        "signature": "Swap(address,address,int256,int256,uint160,uint128,int24)"
                    },
                    "id": 23,
                    "logData": "0xffffffffffffffffffffffffffffffffffffffffffffffffffffffffffffd6b30000000000000000000000000000000000000000000000000008b44313b32000000000000000000000000000000000000007583191d896cbc8f2e7e08090b177000000000000000000000000000000000000000000000000026696a66acbf965000000000000000000000000000000000000000000000000000000000003fe43",
                    "logDecoded": true,
                    "operation": "EVENT",
                    "revert": false,
                    "status": true,
                    "topics": [
                        "0xc42079f94a6350d7e6235f29174924f928cc2ac818eb64fed8004e115fbcca67",
                        "0x00000000000000000000000003f911aedc25c770e701b8f563e8102cfacd62c0",
                        "0x000000000000000000000000c5c28b489bd1f84768ac197a63d56162832baa25"
                    ]
                },
                "nodeType": 1
            },
            "24": {
                "invocation": {
                    "address": "0x2260fac5e5542a773aa44fbcfedf7c193bc2c599",
                    "callData": "0x0000000000000000000000007d0ccaa3fac1e5a943c5168b6ced828691b46b36",
                    "decodedMethod": {
                        "callParams": [
                            {
                                "name": "_owner",
                                "type": "address",
                                "value": "0x7d0ccaa3fac1e5a943c5168b6ced828691b46b36"
                            }
                        ],
                        "constructorArguments": "",
                        "name": "balanceOf",
                        "returnParams": [
                            {
                                "decimalAvailable": true,
                                "name": "",
                                "type": "uint256",
                                "value": "0"
                            }
                        ],
                        "signature": "balanceOf(address)"
                    },
                    "errorInfo": "",
                    "fromAddress": "0x7d0ccaa3fac1e5a943c5168b6ced828691b46b36",
                    "gasUsed": 2795,
                    "id": 24,
                    "methodDecoded": true,
                    "operation": "STATICCALL",
                    "output": "0x0000000000000000000000000000000000000000000000000000000000000000",
                    "revert": false,
                    "revertMessage": "",
                    "selector": "0x70a08231",
                    "status": true,
                    "value": "0"
                },
                "nodeType": 0
            },
            "25": {
                "invocation": {
                    "address": "0x56bd269db96a089295d742351ba459fb0c279fe2",
                    "callData": "0x00000000000000000000000050f9bde1c76bba997a5d6e7fefff695ec8536194000000000000000000000000c5c28b489bd1f84768ac197a63d56162832baa25000000000000000000000000000000000000000000000000000000000000006000000000000000000000000000000000000000000000000000000000000000010000000000000000000000000000000000000000000000000000000000000000",
                    "decodedMethod": {
                        "callParams": [
                            {
                                "name": "to",
                                "type": "address",
                                "value": "0x50f9bde1c76bba997a5d6e7fefff695ec8536194"
                            },
                            {
                                "name": "pool",
                                "type": "address",
                                "value": "0xc5c28b489bd1f84768ac197a63d56162832baa25"
                            },
                            {
                                "name": "moreInfo",
                                "type": "bytes",
                                "value": "0x00"
                            }
                        ],
                        "constructorArguments": "",
                        "name": "sellQuote",
                        "returnParams": [],
                        "signature": "sellQuote(address,address,bytes)"
                    },
                    "errorInfo": "",
                    "fromAddress": "0x7d0ccaa3fac1e5a943c5168b6ced828691b46b36",
                    "gasUsed": 89658,
                    "id": 25,
                    "methodDecoded": true,
                    "operation": "CALL",
                    "output": "",
                    "revert": false,
                    "revertMessage": "",
                    "selector": "0x6f7929f2",
                    "status": true,
                    "value": "0"
                },
                "nodeType": 0
            },
            "26": {
                "invocation": {
                    "address": "0xc5c28b489bd1f84768ac197a63d56162832baa25",
                    "callData": "0x00000000000000000000000050f9bde1c76bba997a5d6e7fefff695ec8536194",
                    "decodedMethod": {
                        "callParams": [
                            {
                                "name": "to",
                                "type": "address",
                                "value": "0x50f9bde1c76bba997a5d6e7fefff695ec8536194"
                            }
                        ],
                        "constructorArguments": "",
                        "name": "sellQuote",
                        "returnParams": [
                            {
                                "name": "receiveBaseAmount",
                                "type": "uint256",
                                "value": "105,730,000,000,000"
                            }
                        ],
                        "signature": "sellQuote(address)"
                    },
                    "errorInfo": "",
                    "fromAddress": "0x56bd269db96a089295d742351ba459fb0c279fe2",
                    "gasUsed": 85896,
                    "id": 26,
                    "methodDecoded": true,
                    "operation": "CALL",
                    "output": "0x000000000000000000000000000000000000000000000000000060292f179400",
                    "revert": false,
                    "revertMessage": "",
                    "selector": "0xdd93f59a",
                    "status": true,
                    "value": "0"
                },
                "nodeType": 0
            },
            "27": {
                "invocation": {
                    "address": "0x3a64ec3606ff7310e8fad6fcc008e39705fb496d",
                    "callData": "0x00000000000000000000000050f9bde1c76bba997a5d6e7fefff695ec8536194",
                    "decodedMethod": {
                        "callParams": [
                            {
                                "name": "to",
                                "type": "address",
                                "value": "0x50f9bde1c76bba997a5d6e7fefff695ec8536194"
                            }
                        ],
                        "constructorArguments": "",
                        "name": "sellQuote",
                        "returnParams": [
                            {
                                "name": "receiveBaseAmount",
                                "type": "uint256",
                                "value": "105,730,000,000,000"
                            }
                        ],
                        "signature": "sellQuote(address)"
                    },
                    "errorInfo": "",
                    "fromAddress": "0xc5c28b489bd1f84768ac197a63d56162832baa25",
                    "gasUsed": 83224,
                    "id": 27,
                    "methodDecoded": true,
                    "operation": "DELEGATECALL",
                    "output": "0x000000000000000000000000000000000000000000000000000060292f179400",
                    "revert": false,
                    "revertMessage": "",
                    "selector": "0xdd93f59a",
                    "status": true,
                    "value": "0"
                },
                "nodeType": 0
            },
            "28": {
                "invocation": {
                    "address": "0x2260fac5e5542a773aa44fbcfedf7c193bc2c599",
                    "callData": "0x000000000000000000000000c5c28b489bd1f84768ac197a63d56162832baa25",
                    "decodedMethod": {
                        "callParams": [
                            {
                                "name": "_owner",
                                "type": "address",
                                "value": "0xc5c28b489bd1f84768ac197a63d56162832baa25"
                            }
                        ],
                        "constructorArguments": "",
                        "name": "balanceOf",
                        "returnParams": [
                            {
                                "decimalAvailable": true,
                                "name": "",
                                "type": "uint256",
                                "value": "930,590,212"
                            }
                        ],
                        "signature": "balanceOf(address)"
                    },
                    "errorInfo": "",
                    "fromAddress": "0xc5c28b489bd1f84768ac197a63d56162832baa25",
                    "gasUsed": 795,
                    "id": 28,
                    "methodDecoded": true,
                    "operation": "STATICCALL",
                    "output": "0x000000000000000000000000000000000000000000000000000000003777ae04",
                    "revert": false,
                    "revertMessage": "",
                    "selector": "0x70a08231",
                    "status": true,
                    "value": "0"
                },
                "nodeType": 0
            },
            "29": {
                "invocation": {
                    "address": "0x5e84190a270333ace5b9202a3f4cebf11b81bb01",
                    "callData": "0x000000000000000000000000a910a4bee6a47767493cf2e5328df1c6cf58461e",
                    "decodedMethod": {
                        "callParams": [
                            {
                                "name": "trader",
                                "type": "address",
                                "value": "0xa910a4bee6a47767493cf2e5328df1c6cf58461e"
                            }
                        ],
                        "constructorArguments": "",
                        "name": "getFeeRate",
                        "returnParams": [
                            {
                                "name": "",
                                "type": "uint256",
                                "value": "0"
                            }
                        ],
                        "signature": "getFeeRate(address)"
                    },
                    "errorInfo": "",
                    "fromAddress": "0xc5c28b489bd1f84768ac197a63d56162832baa25",
                    "gasUsed": 15393,
                    "id": 29,
                    "methodDecoded": true,
                    "operation": "STATICCALL",
                    "output": "0x0000000000000000000000000000000000000000000000000000000000000000",
                    "revert": false,
                    "revertMessage": "",
                    "selector": "0x8198edbf",
                    "status": true,
                    "value": "0"
                },
                "nodeType": 0
            },
            "3": {
                "invocation": {
                    "address": "0x9f2a9f488d82683e8a4a51a581fd34155d50d541",
                    "callData": "0x00000000000000000000000050f9bde1c76bba997a5d6e7fefff695ec8536194",
                    "decodedMethod": {
                        "callParams": [
                            {
                                "name": "account",
                                "type": "address",
                                "value": "0x50f9bde1c76bba997a5d6e7fefff695ec8536194"
                            }
                        ],
                        "constructorArguments": "",
                        "name": "balanceOf",
                        "returnParams": [
                            {
                                "decimalAvailable": true,
                                "name": "",
                                "type": "uint256",
                                "value": "0"
                            }
                        ],
                        "signature": "balanceOf(address)"
                    },
                    "errorInfo": "",
                    "fromAddress": "0x7a56e1c57c7475ccf742a1832b028f0456652f97",
                    "gasUsed": 2975,
                    "id": 3,
                    "methodDecoded": true,
                    "operation": "DELEGATECALL",
                    "output": "0x0000000000000000000000000000000000000000000000000000000000000000",
                    "revert": false,
                    "revertMessage": "",
                    "selector": "0x70a08231",
                    "status": true,
                    "value": "0"
                },
                "nodeType": 0
            },
            "30": {
                "invocation": {
                    "address": "0x2c32dfc4df92df02ae9d9ad0750a3f209ddca61a",
                    "callData": "0x000000000000000000000000c5c28b489bd1f84768ac197a63d56162832baa25000000000000000000000000a910a4bee6a47767493cf2e5328df1c6cf58461e",
                    "decodedMethod": {
                        "callParams": [
                            {
                                "name": "pool",
                                "type": "address",
                                "value": "0xc5c28b489bd1f84768ac197a63d56162832baa25"
                            },
                            {
                                "name": "user",
                                "type": "address",
                                "value": "0xa910a4bee6a47767493cf2e5328df1c6cf58461e"
                            }
                        ],
                        "constructorArguments": "",
                        "name": "getFeeRate",
                        "returnParams": [
                            {
                                "name": "",
                                "type": "uint256",
                                "value": "0"
                            }
                        ],
                        "signature": "getFeeRate(address,address)"
                    },
                    "errorInfo": "",
                    "fromAddress": "0x5e84190a270333ace5b9202a3f4cebf11b81bb01",
                    "gasUsed": 9692,
                    "id": 30,
                    "methodDecoded": true,
                    "operation": "STATICCALL",
                    "output": "0x0000000000000000000000000000000000000000000000000000000000000000",
                    "revert": false,
                    "revertMessage": "",
                    "selector": "0x848cc303",
                    "status": true,
                    "value": "0"
                },
                "nodeType": 0
            },
            "31": {
                "invocation": {
                    "address": "0xc5c28b489bd1f84768ac197a63d56162832baa25",
                    "callData": "0x",
                    "decodedMethod": {
                        "callParams": [],
                        "constructorArguments": "",
                        "name": "version",
                        "returnParams": [
                            {
                                "name": "",
                                "type": "string",
                                "value": "DVM 1.0.3"
                            }
                        ],
                        "signature": "version()"
                    },
                    "errorInfo": "",
                    "fromAddress": "0x2c32dfc4df92df02ae9d9ad0750a3f209ddca61a",
                    "gasUsed": 762,
                    "id": 31,
                    "methodDecoded": true,
                    "operation": "STATICCALL",
                    "output": "0x0000000000000000000000000000000000000000000000000000000000000020000000000000000000000000000000000000000000000000000000000000000944564d20312e302e330000000000000000000000000000000000000000000000",
                    "revert": false,
                    "revertMessage": "",
                    "selector": "0x54fd4d50",
                    "status": true,
                    "value": "0"
                },
                "nodeType": 0
            },
            "32": {
                "invocation": {
                    "address": "0x3a64ec3606ff7310e8fad6fcc008e39705fb496d",
                    "callData": "0x",
                    "decodedMethod": {
                        "callParams": [],
                        "constructorArguments": "",
                        "name": "version",
                        "returnParams": [
                            {
                                "name": "",
                                "type": "string",
                                "value": "DVM 1.0.3"
                            }
                        ],
                        "signature": "version()"
                    },
                    "errorInfo": "",
                    "fromAddress": "0xc5c28b489bd1f84768ac197a63d56162832baa25",
                    "gasUsed": 584,
                    "id": 32,
                    "methodDecoded": true,
                    "operation": "DELEGATECALL",
                    "output": "0x0000000000000000000000000000000000000000000000000000000000000020000000000000000000000000000000000000000000000000000000000000000944564d20312e302e330000000000000000000000000000000000000000000000",
                    "revert": false,
                    "revertMessage": "",
                    "selector": "0x54fd4d50",
                    "status": true,
                    "value": "0"
                },
                "nodeType": 0
            },
            "33": {
                "invocation": {
                    "address": "0xc5c28b489bd1f84768ac197a63d56162832baa25",
                    "callData": "0x",
                    "decodedMethod": {
                        "callParams": [],
                        "constructorArguments": "",
                        "name": "_LP_FEE_RATE_",
                        "returnParams": [
                            {
                                "name": "",
                                "type": "uint256",
                                "value": "0"
                            }
                        ],
                        "signature": "_LP_FEE_RATE_()"
                    },
                    "errorInfo": "",
                    "fromAddress": "0x2c32dfc4df92df02ae9d9ad0750a3f209ddca61a",
                    "gasUsed": 561,
                    "id": 33,
                    "methodDecoded": true,
                    "operation": "STATICCALL",
                    "output": "0x0000000000000000000000000000000000000000000000000000000000000000",
                    "revert": false,
                    "revertMessage": "",
                    "selector": "0xab44a7a3",
                    "status": true,
                    "value": "0"
                },
                "nodeType": 0
            },
            "34": {
                "invocation": {
                    "address": "0x3a64ec3606ff7310e8fad6fcc008e39705fb496d",
                    "callData": "0x",
                    "decodedMethod": {
                        "callParams": [],
                        "constructorArguments": "",
                        "name": "_LP_FEE_RATE_",
                        "returnParams": [
                            {
                                "name": "",
                                "type": "uint256",
                                "value": "0"
                            }
                        ],
                        "signature": "_LP_FEE_RATE_()"
                    },
                    "errorInfo": "",
                    "fromAddress": "0xc5c28b489bd1f84768ac197a63d56162832baa25",
                    "gasUsed": 395,
                    "id": 34,
                    "methodDecoded": true,
                    "operation": "DELEGATECALL",
                    "output": "0x0000000000000000000000000000000000000000000000000000000000000000",
                    "revert": false,
                    "revertMessage": "",
                    "selector": "0xab44a7a3",
                    "status": true,
                    "value": "0"
                },
                "nodeType": 0
            },
            "35": {
                "invocation": {
                    "address": "0x7a56e1c57c7475ccf742a1832b028f0456652f97",
                    "callData": "0x00000000000000000000000050f9bde1c76bba997a5d6e7fefff695ec8536194000000000000000000000000000000000000000000000000000060292f179400",
                    "decodedMethod": {
                        "callParams": [
                            {
                                "name": "recipient",
                                "type": "address",
                                "value": "0x50f9bde1c76bba997a5d6e7fefff695ec8536194"
                            },
                            {
                                "decimalAvailable": true,
                                "name": "amount",
                                "type": "uint256",
                                "value": "105,730,000,000,000"
                            }
                        ],
                        "constructorArguments": "",
                        "name": "transfer",
                        "returnParams": [
                            {
                                "name": "",
                                "type": "bool",
                                "value": true
                            }
                        ],
                        "signature": "transfer(address,uint256)"
                    },
                    "errorInfo": "",
                    "fromAddress": "0xc5c28b489bd1f84768ac197a63d56162832baa25",
                    "gasUsed": 29552,
                    "id": 35,
                    "methodDecoded": true,
                    "operation": "CALL",
                    "output": "0x0000000000000000000000000000000000000000000000000000000000000001",
                    "revert": false,
                    "revertMessage": "",
                    "selector": "0xa9059cbb",
                    "status": true,
                    "value": "0"
                },
                "nodeType": 0
            },
            "36": {
                "invocation": {
                    "address": "0xfc335fda7e6a33329a83f4d5f578ec7d8a43dc4a",
                    "callData": "0x",
                    "decodedMethod": {
                        "callParams": [],
                        "constructorArguments": "",
                        "name": "implementation",
                        "returnParams": [
                            {
                                "name": "",
                                "type": "address",
                                "value": "0x9f2a9f488d82683e8a4a51a581fd34155d50d541"
                            }
                        ],
                        "signature": "implementation()"
                    },
                    "errorInfo": "",
                    "fromAddress": "0x7a56e1c57c7475ccf742a1832b028f0456652f97",
                    "gasUsed": 344,
                    "id": 36,
                    "methodDecoded": true,
                    "operation": "STATICCALL",
                    "output": "0x0000000000000000000000009f2a9f488d82683e8a4a51a581fd34155d50d541",
                    "revert": false,
                    "revertMessage": "",
                    "selector": "0x5c60da1b",
                    "status": true,
                    "value": "0"
                },
                "nodeType": 0
            },
            "37": {
                "invocation": {
                    "address": "0x9f2a9f488d82683e8a4a51a581fd34155d50d541",
                    "callData": "0x00000000000000000000000050f9bde1c76bba997a5d6e7fefff695ec8536194000000000000000000000000000000000000000000000000000060292f179400",
                    "decodedMethod": {
                        "callParams": [
                            {
                                "name": "to",
                                "type": "address",
                                "value": "0x50f9bde1c76bba997a5d6e7fefff695ec8536194"
                            },
                            {
                                "decimalAvailable": true,
                                "name": "value",
                                "type": "uint256",
                                "value": "105,730,000,000,000"
                            }
                        ],
                        "constructorArguments": "",
                        "name": "transfer",
                        "returnParams": [
                            {
                                "name": "",
                                "type": "bool",
                                "value": true
                            }
                        ],
                        "signature": "transfer(address,uint256)"
                    },
                    "errorInfo": "",
                    "fromAddress": "0x7a56e1c57c7475ccf742a1832b028f0456652f97",
                    "gasUsed": 28552,
                    "id": 37,
                    "methodDecoded": true,
                    "operation": "DELEGATECALL",
                    "output": "0x0000000000000000000000000000000000000000000000000000000000000001",
                    "revert": false,
                    "revertMessage": "",
                    "selector": "0xa9059cbb",
                    "status": true,
                    "value": "0"
                },
                "nodeType": 0
            },
            "38": {
                "event": {
                    "contract": "0x7a56e1c57c7475ccf742a1832b028f0456652f97",
                    "decodedLog": {
                        "name": "Transfer",
                        "params": [
                            {
                                "name": "from",
                                "type": "address",
                                "value": "0xc5c28b489bd1f84768ac197a63d56162832baa25"
                            },
                            {
                                "name": "to",
                                "type": "address",
                                "value": "0x50f9bde1c76bba997a5d6e7fefff695ec8536194"
                            },
                            {
                                "decimalAvailable": true,
                                "name": "value",
                                "type": "uint256",
                                "value": "105,730,000,000,000"
                            }
                        ],
                        "signature": "Transfer(address,address,uint256)"
                    },
                    "id": 38,
                    "logData": "0x000000000000000000000000000000000000000000000000000060292f179400",
                    "logDecoded": true,
                    "operation": "EVENT",
                    "revert": false,
                    "status": true,
                    "topics": [
                        "0xddf252ad1be2c89b69c2b068fc378daa952ba7f163c4a11628f55a4df523b3ef",
                        "0x000000000000000000000000c5c28b489bd1f84768ac197a63d56162832baa25",
                        "0x00000000000000000000000050f9bde1c76bba997a5d6e7fefff695ec8536194"
                    ]
                },
                "nodeType": 1
            },
            "39": {
                "invocation": {
                    "address": "0x7a56e1c57c7475ccf742a1832b028f0456652f97",
                    "callData": "0x000000000000000000000000c5c28b489bd1f84768ac197a63d56162832baa25",
                    "decodedMethod": {
                        "callParams": [
                            {
                                "name": "account",
                                "type": "address",
                                "value": "0xc5c28b489bd1f84768ac197a63d56162832baa25"
                            }
                        ],
                        "constructorArguments": "",
                        "name": "balanceOf",
                        "returnParams": [
                            {
                                "decimalAvailable": true,
                                "name": "",
                                "type": "uint256",
                                "value": "4,449,221,668,401,170,000"
                            }
                        ],
                        "signature": "balanceOf(address)"
                    },
                    "errorInfo": "",
                    "fromAddress": "0xc5c28b489bd1f84768ac197a63d56162832baa25",
                    "gasUsed": 1972,
                    "id": 39,
                    "methodDecoded": true,
                    "operation": "STATICCALL",
                    "output": "0x0000000000000000000000000000000000000000000000003dbecf88d005c650",
                    "revert": false,
                    "revertMessage": "",
                    "selector": "0x70a08231",
                    "status": true,
                    "value": "0"
                },
                "nodeType": 0
            },
            "4": {
                "invocation": {
                    "address": "0x7d0ccaa3fac1e5a943c5168b6ced828691b46b36",
                    "callData": "0x00000000000000000000000000000000000000000000000000000000000186ca000000000000000000000000eeeeeeeeeeeeeeeeeeeeeeeeeeeeeeeeeeeeeeee0000000000000000000000007a56e1c57c7475ccf742a1832b028f0456652f970000000000000000000000000000000000000000000000000008b44313b3200000000000000000000000000000000000000000000000000000005ff7f3180b000000000000000000000000000000000000000000000000000000000066c989be00000000000000000000000000000000000000000000000000000000000001200000000000000000000000000000000000000000000000000000000000000160000000000000000000000000000000000000000000000000000000000000066000000000000000000000000000000000000000000000000000000000000000010000000000000000000000000000000000000000000000000008b44313b32000000000000000000000000000000000000000000000000000000000000000000100000000000000000000000000000000000000000000000000000000000000200000000000000000000000000000000000000000000000000000000000000002000000000000000000000000000000000000000000000000000000000000004000000000000000000000000000000000000000000000000000000000000002c000000000000000000000000000000000000000000000000000000000000000a000000000000000000000000000000000000000000000000000000000000000e000000000000000000000000000000000000000000000000000000000000001200000000000000000000000000000000000000000000000000000000000000160000000000000000000000000c02aaa39b223fe8d0a0e5c4f27ead9083c756cc2000000000000000000000000000000000000000000000000000000000000000100000000000000000000000003f911aedc25c770e701b8f563e8102cfacd62c0000000000000000000000000000000000000000000000000000000000000000100000000000000000000000003f911aedc25c770e701b8f563e8102cfacd62c00000000000000000000000000000000000000000000000000000000000000001800000000000000000002710e6ff8b9a37b0fab776134636d9981aa778c4e7180000000000000000000000000000000000000000000000000000000000000001000000000000000000000000000000000000000000000000000000000000002000000000000000000000000000000000000000000000000000000000000000c0000000000000000000000000000000000000000000000000000000000000000000000000000000000000000000000000000000000000000000000000000000400000000000000000000000000000000000000000000000000000000000000060000000000000000000000000c02aaa39b223fe8d0a0e5c4f27ead9083c756cc20000000000000000000000002260fac5e5542a773aa44fbcfedf7c193bc2c599000000000000000000000000000000000000000000000000000000000000006400000000000000000000000000000000000000000000000000000000000000a000000000000000000000000000000000000000000000000000000000000000e0000000000000000000000000000000000000000000000000000000000000012000000000000000000000000000000000000000000000000000000000000001600000000000000000000000002260fac5e5542a773aa44fbcfedf7c193bc2c599000000000000000000000000000000000000000000000000000000000000000100000000000000000000000056bd269db96a089295d742351ba459fb0c279fe20000000000000000000000000000000000000000000000000000000000000001000000000000000000000000c5c28b489bd1f84768ac197a63d56162832baa250000000000000000000000000000000000000000000000000000000000000001800000000000000000002710c5c28b489bd1f84768ac197a63d56162832baa2500000000000000000000000000000000000000000000000000000000000000010000000000000000000000000000000000000000000000000000000000000020000000000000000000000000000000000000000000000000000000000000000100000000000000000000000000000000000000000000000000000000000000000000000000000000000000000000000000000000000000000000000000000000",
                    "decodedMethod": null,
                    "errorInfo": "",
                    "fromAddress": "0x50f9bde1c76bba997a5d6e7fefff695ec8536194",
                    "gasUsed": 255600,
                    "id": 4,
                    "methodDecoded": false,
                    "operation": "CALL",
                    "output": "0x000000000000000000000000000000000000000000000000000060292f179400",
                    "revert": false,
                    "revertMessage": "",
                    "selector": "0xb80c2f09",
                    "status": true,
                    "value": "0.00245"
                },
                "nodeType": 0
            },
            "40": {
                "invocation": {
                    "address": "0xfc335fda7e6a33329a83f4d5f578ec7d8a43dc4a",
                    "callData": "0x",
                    "decodedMethod": {
                        "callParams": [],
                        "constructorArguments": "",
                        "name": "implementation",
                        "returnParams": [
                            {
                                "name": "",
                                "type": "address",
                                "value": "0x9f2a9f488d82683e8a4a51a581fd34155d50d541"
                            }
                        ],
                        "signature": "implementation()"
                    },
                    "errorInfo": "",
                    "fromAddress": "0x7a56e1c57c7475ccf742a1832b028f0456652f97",
                    "gasUsed": 344,
                    "id": 40,
                    "methodDecoded": true,
                    "operation": "STATICCALL",
                    "output": "0x0000000000000000000000009f2a9f488d82683e8a4a51a581fd34155d50d541",
                    "revert": false,
                    "revertMessage": "",
                    "selector": "0x5c60da1b",
                    "status": true,
                    "value": "0"
                },
                "nodeType": 0
            },
            "41": {
                "invocation": {
                    "address": "0x9f2a9f488d82683e8a4a51a581fd34155d50d541",
                    "callData": "0x000000000000000000000000c5c28b489bd1f84768ac197a63d56162832baa25",
                    "decodedMethod": {
                        "callParams": [
                            {
                                "name": "account",
                                "type": "address",
                                "value": "0xc5c28b489bd1f84768ac197a63d56162832baa25"
                            }
                        ],
                        "constructorArguments": "",
                        "name": "balanceOf",
                        "returnParams": [
                            {
                                "decimalAvailable": true,
                                "name": "",
                                "type": "uint256",
                                "value": "4,449,221,668,401,170,000"
                            }
                        ],
                        "signature": "balanceOf(address)"
                    },
                    "errorInfo": "",
                    "fromAddress": "0x7a56e1c57c7475ccf742a1832b028f0456652f97",
                    "gasUsed": 975,
                    "id": 41,
                    "methodDecoded": true,
                    "operation": "DELEGATECALL",
                    "output": "0x0000000000000000000000000000000000000000000000003dbecf88d005c650",
                    "revert": false,
                    "revertMessage": "",
                    "selector": "0x70a08231",
                    "status": true,
                    "value": "0"
                },
                "nodeType": 0
            },
            "42": {
                "event": {
                    "contract": "0xc5c28b489bd1f84768ac197a63d56162832baa25",
                    "decodedLog": {
                        "name": "DODOSwap",
                        "params": [
                            {
                                "name": "fromToken",
                                "type": "address",
                                "value": "0x2260fac5e5542a773aa44fbcfedf7c193bc2c599"
                            },
                            {
                                "name": "toToken",
                                "type": "address",
                                "value": "0x7a56e1c57c7475ccf742a1832b028f0456652f97"
                            },
                            {
                                "name": "fromAmount",
                                "type": "uint256",
                                "value": "10,573"
                            },
                            {
                                "name": "toAmount",
                                "type": "uint256",
                                "value": "105,730,000,000,000"
                            },
                            {
                                "name": "trader",
                                "type": "address",
                                "value": "0x56bd269db96a089295d742351ba459fb0c279fe2"
                            },
                            {
                                "name": "receiver",
                                "type": "address",
                                "value": "0x50f9bde1c76bba997a5d6e7fefff695ec8536194"
                            }
                        ],
                        "signature": "DODOSwap(address,address,uint256,uint256,address,address)"
                    },
                    "id": 42,
                    "logData": "0x0000000000000000000000002260fac5e5542a773aa44fbcfedf7c193bc2c5990000000000000000000000007a56e1c57c7475ccf742a1832b028f0456652f97000000000000000000000000000000000000000000000000000000000000294d000000000000000000000000000000000000000000000000000060292f17940000000000000000000000000056bd269db96a089295d742351ba459fb0c279fe200000000000000000000000050f9bde1c76bba997a5d6e7fefff695ec8536194",
                    "logDecoded": true,
                    "operation": "EVENT",
                    "revert": false,
                    "status": true,
                    "topics": [
                        "0xc2c0245e056d5fb095f04cd6373bc770802ebd1e6c918eb78fdef843cdb37b0f"
                    ]
                },
                "nodeType": 1
            },
            "43": {
                "invocation": {
                    "address": "0x7a56e1c57c7475ccf742a1832b028f0456652f97",
                    "callData": "0x0000000000000000000000007d0ccaa3fac1e5a943c5168b6ced828691b46b36",
                    "decodedMethod": {
                        "callParams": [
                            {
                                "name": "account",
                                "type": "address",
                                "value": "0x7d0ccaa3fac1e5a943c5168b6ced828691b46b36"
                            }
                        ],
                        "constructorArguments": "",
                        "name": "balanceOf",
                        "returnParams": [
                            {
                                "decimalAvailable": true,
                                "name": "",
                                "type": "uint256",
                                "value": "0"
                            }
                        ],
                        "signature": "balanceOf(address)"
                    },
                    "errorInfo": "",
                    "fromAddress": "0x7d0ccaa3fac1e5a943c5168b6ced828691b46b36",
                    "gasUsed": 3972,
                    "id": 43,
                    "methodDecoded": true,
                    "operation": "STATICCALL",
                    "output": "0x0000000000000000000000000000000000000000000000000000000000000000",
                    "revert": false,
                    "revertMessage": "",
                    "selector": "0x70a08231",
                    "status": true,
                    "value": "0"
                },
                "nodeType": 0
            },
            "44": {
                "invocation": {
                    "address": "0xfc335fda7e6a33329a83f4d5f578ec7d8a43dc4a",
                    "callData": "0x",
                    "decodedMethod": {
                        "callParams": [],
                        "constructorArguments": "",
                        "name": "implementation",
                        "returnParams": [
                            {
                                "name": "",
                                "type": "address",
                                "value": "0x9f2a9f488d82683e8a4a51a581fd34155d50d541"
                            }
                        ],
                        "signature": "implementation()"
                    },
                    "errorInfo": "",
                    "fromAddress": "0x7a56e1c57c7475ccf742a1832b028f0456652f97",
                    "gasUsed": 344,
                    "id": 44,
                    "methodDecoded": true,
                    "operation": "STATICCALL",
                    "output": "0x0000000000000000000000009f2a9f488d82683e8a4a51a581fd34155d50d541",
                    "revert": false,
                    "revertMessage": "",
                    "selector": "0x5c60da1b",
                    "status": true,
                    "value": "0"
                },
                "nodeType": 0
            },
            "45": {
                "invocation": {
                    "address": "0x9f2a9f488d82683e8a4a51a581fd34155d50d541",
                    "callData": "0x0000000000000000000000007d0ccaa3fac1e5a943c5168b6ced828691b46b36",
                    "decodedMethod": {
                        "callParams": [
                            {
                                "name": "account",
                                "type": "address",
                                "value": "0x7d0ccaa3fac1e5a943c5168b6ced828691b46b36"
                            }
                        ],
                        "constructorArguments": "",
                        "name": "balanceOf",
                        "returnParams": [
                            {
                                "decimalAvailable": true,
                                "name": "",
                                "type": "uint256",
                                "value": "0"
                            }
                        ],
                        "signature": "balanceOf(address)"
                    },
                    "errorInfo": "",
                    "fromAddress": "0x7a56e1c57c7475ccf742a1832b028f0456652f97",
                    "gasUsed": 2975,
                    "id": 45,
                    "methodDecoded": true,
                    "operation": "DELEGATECALL",
                    "output": "0x0000000000000000000000000000000000000000000000000000000000000000",
                    "revert": false,
                    "revertMessage": "",
                    "selector": "0x70a08231",
                    "status": true,
                    "value": "0"
                },
                "nodeType": 0
            },
            "46": {
                "invocation": {
                    "address": "0x7a56e1c57c7475ccf742a1832b028f0456652f97",
                    "callData": "0x00000000000000000000000050f9bde1c76bba997a5d6e7fefff695ec8536194",
                    "decodedMethod": {
                        "callParams": [
                            {
                                "name": "account",
                                "type": "address",
                                "value": "0x50f9bde1c76bba997a5d6e7fefff695ec8536194"
                            }
                        ],
                        "constructorArguments": "",
                        "name": "balanceOf",
                        "returnParams": [
                            {
                                "decimalAvailable": true,
                                "name": "",
                                "type": "uint256",
                                "value": "105,730,000,000,000"
                            }
                        ],
                        "signature": "balanceOf(address)"
                    },
                    "errorInfo": "",
                    "fromAddress": "0x7d0ccaa3fac1e5a943c5168b6ced828691b46b36",
                    "gasUsed": 1972,
                    "id": 46,
                    "methodDecoded": true,
                    "operation": "STATICCALL",
                    "output": "0x000000000000000000000000000000000000000000000000000060292f179400",
                    "revert": false,
                    "revertMessage": "",
                    "selector": "0x70a08231",
                    "status": true,
                    "value": "0"
                },
                "nodeType": 0
            },
            "47": {
                "invocation": {
                    "address": "0xfc335fda7e6a33329a83f4d5f578ec7d8a43dc4a",
                    "callData": "0x",
                    "decodedMethod": {
                        "callParams": [],
                        "constructorArguments": "",
                        "name": "implementation",
                        "returnParams": [
                            {
                                "name": "",
                                "type": "address",
                                "value": "0x9f2a9f488d82683e8a4a51a581fd34155d50d541"
                            }
                        ],
                        "signature": "implementation()"
                    },
                    "errorInfo": "",
                    "fromAddress": "0x7a56e1c57c7475ccf742a1832b028f0456652f97",
                    "gasUsed": 344,
                    "id": 47,
                    "methodDecoded": true,
                    "operation": "STATICCALL",
                    "output": "0x0000000000000000000000009f2a9f488d82683e8a4a51a581fd34155d50d541",
                    "revert": false,
                    "revertMessage": "",
                    "selector": "0x5c60da1b",
                    "status": true,
                    "value": "0"
                },
                "nodeType": 0
            },
            "48": {
                "invocation": {
                    "address": "0x9f2a9f488d82683e8a4a51a581fd34155d50d541",
                    "callData": "0x00000000000000000000000050f9bde1c76bba997a5d6e7fefff695ec8536194",
                    "decodedMethod": {
                        "callParams": [
                            {
                                "name": "account",
                                "type": "address",
                                "value": "0x50f9bde1c76bba997a5d6e7fefff695ec8536194"
                            }
                        ],
                        "constructorArguments": "",
                        "name": "balanceOf",
                        "returnParams": [
                            {
                                "decimalAvailable": true,
                                "name": "",
                                "type": "uint256",
                                "value": "105,730,000,000,000"
                            }
                        ],
                        "signature": "balanceOf(address)"
                    },
                    "errorInfo": "",
                    "fromAddress": "0x7a56e1c57c7475ccf742a1832b028f0456652f97",
                    "gasUsed": 975,
                    "id": 48,
                    "methodDecoded": true,
                    "operation": "DELEGATECALL",
                    "output": "0x000000000000000000000000000000000000000000000000000060292f179400",
                    "revert": false,
                    "revertMessage": "",
                    "selector": "0x70a08231",
                    "status": true,
                    "value": "0"
                },
                "nodeType": 0
            },
            "49": {
                "event": {
                    "contract": "0x7d0ccaa3fac1e5a943c5168b6ced828691b46b36",
                    "decodedLog": {
                        "name": "OrderRecord",
                        "params": [
                            {
                                "name": "fromToken",
                                "type": "address",
                                "value": "0xeeeeeeeeeeeeeeeeeeeeeeeeeeeeeeeeeeeeeeee"
                            },
                            {
                                "name": "toToken",
                                "type": "address",
                                "value": "0x7a56e1c57c7475ccf742a1832b028f0456652f97"
                            },
                            {
                                "name": "sender",
                                "type": "address",
                                "value": "0xa910a4bee6a47767493cf2e5328df1c6cf58461e"
                            },
                            {
                                "name": "fromAmount",
                                "type": "uint256",
                                "value": "2,450,000,000,000,000"
                            },
                            {
                                "name": "returnAmount",
                                "type": "uint256",
                                "value": "105,730,000,000,000"
                            }
                        ],
                        "signature": "OrderRecord(address,address,address,uint256,uint256)"
                    },
                    "id": 49,
                    "logData": "0x000000000000000000000000eeeeeeeeeeeeeeeeeeeeeeeeeeeeeeeeeeeeeeee0000000000000000000000007a56e1c57c7475ccf742a1832b028f0456652f97000000000000000000000000a910a4bee6a47767493cf2e5328df1c6cf58461e0000000000000000000000000000000000000000000000000008b44313b32000000000000000000000000000000000000000000000000000000060292f179400",
                    "logDecoded": true,
                    "operation": "EVENT",
                    "revert": false,
                    "status": true,
                    "topics": [
                        "0x1bb43f2da90e35f7b0cf38521ca95a49e68eb42fac49924930a5bd73cdf7576c"
                    ]
                },
                "nodeType": 1
            },
            "5": {
                "event": {
                    "contract": "0x7d0ccaa3fac1e5a943c5168b6ced828691b46b36",
                    "decodedLog": null,
                    "id": 5,
                    "logData": "0x00000000000000000000000000000000000000000000000000000000000186ca",
                    "logDecoded": false,
                    "operation": "EVENT",
                    "revert": false,
                    "status": true,
                    "topics": [
                        "0x7724394874fdd8ad13292ec739b441f85c6559f10dc4141b8d4c0fa4cbf55bdb"
                    ]
                },
                "nodeType": 1
            },
            "50": {
                "invocation": {
                    "address": "0x7a56e1c57c7475ccf742a1832b028f0456652f97",
                    "callData": "0x00000000000000000000000050f9bde1c76bba997a5d6e7fefff695ec8536194",
                    "decodedMethod": {
                        "callParams": [
                            {
                                "name": "account",
                                "type": "address",
                                "value": "0x50f9bde1c76bba997a5d6e7fefff695ec8536194"
                            }
                        ],
                        "constructorArguments": "",
                        "name": "balanceOf",
                        "returnParams": [
                            {
                                "decimalAvailable": true,
                                "name": "",
                                "type": "uint256",
                                "value": "105,730,000,000,000"
                            }
                        ],
                        "signature": "balanceOf(address)"
                    },
                    "errorInfo": "",
                    "fromAddress": "0x50f9bde1c76bba997a5d6e7fefff695ec8536194",
                    "gasUsed": 1972,
                    "id": 50,
                    "methodDecoded": true,
                    "operation": "STATICCALL",
                    "output": "0x000000000000000000000000000000000000000000000000000060292f179400",
                    "revert": false,
                    "revertMessage": "",
                    "selector": "0x70a08231",
                    "status": true,
                    "value": "0"
                },
                "nodeType": 0
            },
            "51": {
                "invocation": {
                    "address": "0xfc335fda7e6a33329a83f4d5f578ec7d8a43dc4a",
                    "callData": "0x",
                    "decodedMethod": {
                        "callParams": [],
                        "constructorArguments": "",
                        "name": "implementation",
                        "returnParams": [
                            {
                                "name": "",
                                "type": "address",
                                "value": "0x9f2a9f488d82683e8a4a51a581fd34155d50d541"
                            }
                        ],
                        "signature": "implementation()"
                    },
                    "errorInfo": "",
                    "fromAddress": "0x7a56e1c57c7475ccf742a1832b028f0456652f97",
                    "gasUsed": 344,
                    "id": 51,
                    "methodDecoded": true,
                    "operation": "STATICCALL",
                    "output": "0x0000000000000000000000009f2a9f488d82683e8a4a51a581fd34155d50d541",
                    "revert": false,
                    "revertMessage": "",
                    "selector": "0x5c60da1b",
                    "status": true,
                    "value": "0"
                },
                "nodeType": 0
            },
            "52": {
                "invocation": {
                    "address": "0x9f2a9f488d82683e8a4a51a581fd34155d50d541",
                    "callData": "0x00000000000000000000000050f9bde1c76bba997a5d6e7fefff695ec8536194",
                    "decodedMethod": {
                        "callParams": [
                            {
                                "name": "account",
                                "type": "address",
                                "value": "0x50f9bde1c76bba997a5d6e7fefff695ec8536194"
                            }
                        ],
                        "constructorArguments": "",
                        "name": "balanceOf",
                        "returnParams": [
                            {
                                "decimalAvailable": true,
                                "name": "",
                                "type": "uint256",
                                "value": "105,730,000,000,000"
                            }
                        ],
                        "signature": "balanceOf(address)"
                    },
                    "errorInfo": "",
                    "fromAddress": "0x7a56e1c57c7475ccf742a1832b028f0456652f97",
                    "gasUsed": 975,
                    "id": 52,
                    "methodDecoded": true,
                    "operation": "DELEGATECALL",
                    "output": "0x000000000000000000000000000000000000000000000000000060292f179400",
                    "revert": false,
                    "revertMessage": "",
                    "selector": "0x70a08231",
                    "status": true,
                    "value": "0"
                },
                "nodeType": 0
            },
            "53": {
                "invocation": {
                    "address": "0x7a56e1c57c7475ccf742a1832b028f0456652f97",
                    "callData": "0x000000000000000000000000a910a4bee6a47767493cf2e5328df1c6cf58461e000000000000000000000000000000000000000000000000000060292f179400",
                    "decodedMethod": {
                        "callParams": [
                            {
                                "name": "recipient",
                                "type": "address",
                                "value": "0xa910a4bee6a47767493cf2e5328df1c6cf58461e"
                            },
                            {
                                "decimalAvailable": true,
                                "name": "amount",
                                "type": "uint256",
                                "value": "105,730,000,000,000"
                            }
                        ],
                        "constructorArguments": "",
                        "name": "transfer",
                        "returnParams": [
                            {
                                "name": "",
                                "type": "bool",
                                "value": true
                            }
                        ],
                        "signature": "transfer(address,uint256)"
                    },
                    "errorInfo": "",
                    "fromAddress": "0x50f9bde1c76bba997a5d6e7fefff695ec8536194",
                    "gasUsed": 26752,
                    "id": 53,
                    "methodDecoded": true,
                    "operation": "CALL",
                    "output": "0x0000000000000000000000000000000000000000000000000000000000000001",
                    "revert": false,
                    "revertMessage": "",
                    "selector": "0xa9059cbb",
                    "status": true,
                    "value": "0"
                },
                "nodeType": 0
            },
            "54": {
                "invocation": {
                    "address": "0xfc335fda7e6a33329a83f4d5f578ec7d8a43dc4a",
                    "callData": "0x",
                    "decodedMethod": {
                        "callParams": [],
                        "constructorArguments": "",
                        "name": "implementation",
                        "returnParams": [
                            {
                                "name": "",
                                "type": "address",
                                "value": "0x9f2a9f488d82683e8a4a51a581fd34155d50d541"
                            }
                        ],
                        "signature": "implementation()"
                    },
                    "errorInfo": "",
                    "fromAddress": "0x7a56e1c57c7475ccf742a1832b028f0456652f97",
                    "gasUsed": 344,
                    "id": 54,
                    "methodDecoded": true,
                    "operation": "STATICCALL",
                    "output": "0x0000000000000000000000009f2a9f488d82683e8a4a51a581fd34155d50d541",
                    "revert": false,
                    "revertMessage": "",
                    "selector": "0x5c60da1b",
                    "status": true,
                    "value": "0"
                },
                "nodeType": 0
            },
            "55": {
                "invocation": {
                    "address": "0x9f2a9f488d82683e8a4a51a581fd34155d50d541",
                    "callData": "0x000000000000000000000000a910a4bee6a47767493cf2e5328df1c6cf58461e000000000000000000000000000000000000000000000000000060292f179400",
                    "decodedMethod": {
                        "callParams": [
                            {
                                "name": "to",
                                "type": "address",
                                "value": "0xa910a4bee6a47767493cf2e5328df1c6cf58461e"
                            },
                            {
                                "decimalAvailable": true,
                                "name": "value",
                                "type": "uint256",
                                "value": "105,730,000,000,000"
                            }
                        ],
                        "constructorArguments": "",
                        "name": "transfer",
                        "returnParams": [
                            {
                                "name": "",
                                "type": "bool",
                                "value": true
                            }
                        ],
                        "signature": "transfer(address,uint256)"
                    },
                    "errorInfo": "",
                    "fromAddress": "0x7a56e1c57c7475ccf742a1832b028f0456652f97",
                    "gasUsed": 25752,
                    "id": 55,
                    "methodDecoded": true,
                    "operation": "DELEGATECALL",
                    "output": "0x0000000000000000000000000000000000000000000000000000000000000001",
                    "revert": false,
                    "revertMessage": "",
                    "selector": "0xa9059cbb",
                    "status": true,
                    "value": "0"
                },
                "nodeType": 0
            },
            "56": {
                "event": {
                    "contract": "0x7a56e1c57c7475ccf742a1832b028f0456652f97",
                    "decodedLog": {
                        "name": "Transfer",
                        "params": [
                            {
                                "name": "from",
                                "type": "address",
                                "value": "0x50f9bde1c76bba997a5d6e7fefff695ec8536194"
                            },
                            {
                                "name": "to",
                                "type": "address",
                                "value": "0xa910a4bee6a47767493cf2e5328df1c6cf58461e"
                            },
                            {
                                "decimalAvailable": true,
                                "name": "value",
                                "type": "uint256",
                                "value": "105,730,000,000,000"
                            }
                        ],
                        "signature": "Transfer(address,address,uint256)"
                    },
                    "id": 56,
                    "logData": "0x000000000000000000000000000000000000000000000000000060292f179400",
                    "logDecoded": true,
                    "operation": "EVENT",
                    "revert": false,
                    "status": true,
                    "topics": [
                        "0xddf252ad1be2c89b69c2b068fc378daa952ba7f163c4a11628f55a4df523b3ef",
                        "0x00000000000000000000000050f9bde1c76bba997a5d6e7fefff695ec8536194",
                        "0x000000000000000000000000a910a4bee6a47767493cf2e5328df1c6cf58461e"
                    ]
                },
                "nodeType": 1
            },
            "57": {
                "event": {
                    "contract": "0x50f9bde1c76bba997a5d6e7fefff695ec8536194",
                    "decodedLog": {
                        "name": "OrderHistory",
                        "params": [
                            {
                                "name": "fromToken",
                                "type": "address",
                                "value": "0xeeeeeeeeeeeeeeeeeeeeeeeeeeeeeeeeeeeeeeee"
                            },
                            {
                                "name": "toToken",
                                "type": "address",
                                "value": "0x7a56e1c57c7475ccf742a1832b028f0456652f97"
                            },
                            {
                                "name": "sender",
                                "type": "address",
                                "value": "0xa910a4bee6a47767493cf2e5328df1c6cf58461e"
                            },
                            {
                                "name": "fromAmount",
                                "type": "uint256",
                                "value": "2,450,000,000,000,000"
                            },
                            {
                                "name": "returnAmount",
                                "type": "uint256",
                                "value": "105,730,000,000,000"
                            }
                        ],
                        "signature": "OrderHistory(address,address,address,uint256,uint256)"
                    },
                    "id": 57,
                    "logData": "0x000000000000000000000000eeeeeeeeeeeeeeeeeeeeeeeeeeeeeeeeeeeeeeee0000000000000000000000007a56e1c57c7475ccf742a1832b028f0456652f97000000000000000000000000a910a4bee6a47767493cf2e5328df1c6cf58461e0000000000000000000000000000000000000000000000000008b44313b32000000000000000000000000000000000000000000000000000000060292f179400",
                    "logDecoded": true,
                    "operation": "EVENT",
                    "revert": false,
                    "status": true,
                    "topics": [
                        "0x92ceb067a9883c85aba061e46b9edf505a0d6e81927c4b966ebed543a5221787"
                    ]
                },
                "nodeType": 1
            },
            "6": {
                "invocation": {
                    "address": "0x7a56e1c57c7475ccf742a1832b028f0456652f97",
                    "callData": "0x00000000000000000000000050f9bde1c76bba997a5d6e7fefff695ec8536194",
                    "decodedMethod": {
                        "callParams": [
                            {
                                "name": "account",
                                "type": "address",
                                "value": "0x50f9bde1c76bba997a5d6e7fefff695ec8536194"
                            }
                        ],
                        "constructorArguments": "",
                        "name": "balanceOf",
                        "returnParams": [
                            {
                                "decimalAvailable": true,
                                "name": "",
                                "type": "uint256",
                                "value": "0"
                            }
                        ],
                        "signature": "balanceOf(address)"
                    },
                    "errorInfo": "",
                    "fromAddress": "0x7d0ccaa3fac1e5a943c5168b6ced828691b46b36",
                    "gasUsed": 1972,
                    "id": 6,
                    "methodDecoded": true,
                    "operation": "STATICCALL",
                    "output": "0x0000000000000000000000000000000000000000000000000000000000000000",
                    "revert": false,
                    "revertMessage": "",
                    "selector": "0x70a08231",
                    "status": true,
                    "value": "0"
                },
                "nodeType": 0
            },
            "7": {
                "invocation": {
                    "address": "0xfc335fda7e6a33329a83f4d5f578ec7d8a43dc4a",
                    "callData": "0x",
                    "decodedMethod": {
                        "callParams": [],
                        "constructorArguments": "",
                        "name": "implementation",
                        "returnParams": [
                            {
                                "name": "",
                                "type": "address",
                                "value": "0x9f2a9f488d82683e8a4a51a581fd34155d50d541"
                            }
                        ],
                        "signature": "implementation()"
                    },
                    "errorInfo": "",
                    "fromAddress": "0x7a56e1c57c7475ccf742a1832b028f0456652f97",
                    "gasUsed": 344,
                    "id": 7,
                    "methodDecoded": true,
                    "operation": "STATICCALL",
                    "output": "0x0000000000000000000000009f2a9f488d82683e8a4a51a581fd34155d50d541",
                    "revert": false,
                    "revertMessage": "",
                    "selector": "0x5c60da1b",
                    "status": true,
                    "value": "0"
                },
                "nodeType": 0
            },
            "8": {
                "invocation": {
                    "address": "0x9f2a9f488d82683e8a4a51a581fd34155d50d541",
                    "callData": "0x00000000000000000000000050f9bde1c76bba997a5d6e7fefff695ec8536194",
                    "decodedMethod": {
                        "callParams": [
                            {
                                "name": "account",
                                "type": "address",
                                "value": "0x50f9bde1c76bba997a5d6e7fefff695ec8536194"
                            }
                        ],
                        "constructorArguments": "",
                        "name": "balanceOf",
                        "returnParams": [
                            {
                                "decimalAvailable": true,
                                "name": "",
                                "type": "uint256",
                                "value": "0"
                            }
                        ],
                        "signature": "balanceOf(address)"
                    },
                    "errorInfo": "",
                    "fromAddress": "0x7a56e1c57c7475ccf742a1832b028f0456652f97",
                    "gasUsed": 975,
                    "id": 8,
                    "methodDecoded": true,
                    "operation": "DELEGATECALL",
                    "output": "0x0000000000000000000000000000000000000000000000000000000000000000",
                    "revert": false,
                    "revertMessage": "",
                    "selector": "0x70a08231",
                    "status": true,
                    "value": "0"
                },
                "nodeType": 0
            },
            "9": {
                "invocation": {
                    "address": "0xc02aaa39b223fe8d0a0e5c4f27ead9083c756cc2",
                    "callData": "0x",
                    "decodedMethod": {
                        "callParams": [],
                        "constructorArguments": "",
                        "name": "deposit",
                        "returnParams": [],
                        "signature": "deposit()"
                    },
                    "errorInfo": "",
                    "fromAddress": "0x7d0ccaa3fac1e5a943c5168b6ced828691b46b36",
                    "gasUsed": 23974,
                    "id": 9,
                    "methodDecoded": true,
                    "operation": "CALL",
                    "output": "",
                    "revert": false,
                    "revertMessage": "",
                    "selector": "0xd0e30db0",
                    "status": true,
                    "value": "0.00245"
                },
                "nodeType": 0
            }
        },
        "gasFlame": [
            {
                "children": [
                    {
                        "children": [
                            {
                                "children": [],
                                "depth": 0,
                                "name": "Initial Gas",
                                "value": 34516
                            },
                            {
                                "children": [
                                    {
                                        "children": [
                                            {
                                                "children": [],
                                                "depth": 2,
                                                "name": "implementation",
                                                "value": 2344
                                            },
                                            {
                                                "children": [],
                                                "depth": 2,
                                                "name": "balanceOf",
                                                "value": 2975
                                            }
                                        ],
                                        "depth": 1,
                                        "name": "balanceOf",
                                        "value": 10972
                                    },
                                    {
                                        "children": [
                                            {
                                                "children": [
                                                    {
                                                        "children": [],
                                                        "depth": 3,
                                                        "name": "implementation",
                                                        "value": 344
                                                    },
                                                    {
                                                        "children": [],
                                                        "depth": 3,
                                                        "name": "balanceOf",
                                                        "value": 975
                                                    }
                                                ],
                                                "depth": 2,
                                                "name": "balanceOf",
                                                "value": 1972
                                            },
                                            {
                                                "children": [],
                                                "depth": 2,
                                                "name": "deposit",
                                                "value": 23974
                                            },
                                            {
                                                "children": [],
                                                "depth": 2,
                                                "name": "transfer",
                                                "value": 25162
                                            },
                                            {
                                                "children": [
                                                    {
                                                        "children": [],
                                                        "depth": 3,
                                                        "name": "balanceOf",
                                                        "value": 534
                                                    },
                                                    {
                                                        "children": [
                                                            {
                                                                "children": [],
                                                                "depth": 4,
                                                                "name": "transfer",
                                                                "value": 15703
                                                            },
                                                            {
                                                                "children": [],
                                                                "depth": 4,
                                                                "name": "balanceOf",
                                                                "value": 2534
                                                            },
                                                            {
                                                                "children": [
                                                                    {
                                                                        "children": [],
                                                                        "depth": 5,
                                                                        "name": "transfer",
                                                                        "value": 6062
                                                                    }
                                                                ],
                                                                "depth": 4,
                                                                "name": "uniswapV3SwapCallback",
                                                                "value": 8665
                                                            },
                                                            {
                                                                "children": [],
                                                                "depth": 4,
                                                                "name": "balanceOf",
                                                                "value": 534
                                                            }
                                                        ],
                                                        "depth": 3,
                                                        "name": "swap",
                                                        "value": 62085
                                                    }
                                                ],
                                                "depth": 2,
                                                "name": "sellQuote",
                                                "value": 69046
                                            },
                                            {
                                                "children": [],
                                                "depth": 2,
                                                "name": "balanceOf",
                                                "value": 2795
                                            },
                                            {
                                                "children": [
                                                    {
                                                        "children": [
                                                            {
                                                                "children": [
                                                                    {
                                                                        "children": [],
                                                                        "depth": 5,
                                                                        "name": "balanceOf",
                                                                        "value": 795
                                                                    },
                                                                    {
                                                                        "children": [
                                                                            {
                                                                                "children": [
                                                                                    {
                                                                                        "children": [
                                                                                            {
                                                                                                "children": [],
                                                                                                "depth": 8,
                                                                                                "name": "version",
                                                                                                "value": 584
                                                                                            }
                                                                                        ],
                                                                                        "depth": 7,
                                                                                        "name": "version",
                                                                                        "value": 762
                                                                                    },
                                                                                    {
                                                                                        "children": [
                                                                                            {
                                                                                                "children": [],
                                                                                                "depth": 8,
                                                                                                "name": "_LP_FEE_RATE_",
                                                                                                "value": 395
                                                                                            }
                                                                                        ],
                                                                                        "depth": 7,
                                                                                        "name": "_LP_FEE_RATE_",
                                                                                        "value": 561
                                                                                    }
                                                                                ],
                                                                                "depth": 6,
                                                                                "name": "getFeeRate",
                                                                                "value": 9692
                                                                            }
                                                                        ],
                                                                        "depth": 5,
                                                                        "name": "getFeeRate",
                                                                        "value": 15393
                                                                    },
                                                                    {
                                                                        "children": [
                                                                            {
                                                                                "children": [],
                                                                                "depth": 6,
                                                                                "name": "implementation",
                                                                                "value": 344
                                                                            },
                                                                            {
                                                                                "children": [],
                                                                                "depth": 6,
                                                                                "name": "transfer",
                                                                                "value": 28552
                                                                            }
                                                                        ],
                                                                        "depth": 5,
                                                                        "name": "transfer",
                                                                        "value": 29552
                                                                    },
                                                                    {
                                                                        "children": [
                                                                            {
                                                                                "children": [],
                                                                                "depth": 6,
                                                                                "name": "implementation",
                                                                                "value": 344
                                                                            },
                                                                            {
                                                                                "children": [],
                                                                                "depth": 6,
                                                                                "name": "balanceOf",
                                                                                "value": 975
                                                                            }
                                                                        ],
                                                                        "depth": 5,
                                                                        "name": "balanceOf",
                                                                        "value": 1972
                                                                    }
                                                                ],
                                                                "depth": 4,
                                                                "name": "sellQuote",
                                                                "value": 83224
                                                            }
                                                        ],
                                                        "depth": 3,
                                                        "name": "sellQuote",
                                                        "value": 85896
                                                    }
                                                ],
                                                "depth": 2,
                                                "name": "sellQuote",
                                                "value": 89658
                                            },
                                            {
                                                "children": [
                                                    {
                                                        "children": [],
                                                        "depth": 3,
                                                        "name": "implementation",
                                                        "value": 344
                                                    },
                                                    {
                                                        "children": [],
                                                        "depth": 3,
                                                        "name": "balanceOf",
                                                        "value": 2975
                                                    }
                                                ],
                                                "depth": 2,
                                                "name": "balanceOf",
                                                "value": 3972
                                            },
                                            {
                                                "children": [
                                                    {
                                                        "children": [],
                                                        "depth": 3,
                                                        "name": "implementation",
                                                        "value": 344
                                                    },
                                                    {
                                                        "children": [],
                                                        "depth": 3,
                                                        "name": "balanceOf",
                                                        "value": 975
                                                    }
                                                ],
                                                "depth": 2,
                                                "name": "balanceOf",
                                                "value": 1972
                                            }
                                        ],
                                        "depth": 1,
                                        "name": "0xb80c2f09",
                                        "value": 255600
                                    },
                                    {
                                        "children": [
                                            {
                                                "children": [],
                                                "depth": 2,
                                                "name": "implementation",
                                                "value": 344
                                            },
                                            {
                                                "children": [],
                                                "depth": 2,
                                                "name": "balanceOf",
                                                "value": 975
                                            }
                                        ],
                                        "depth": 1,
                                        "name": "balanceOf",
                                        "value": 1972
                                    },
                                    {
                                        "children": [
                                            {
                                                "children": [],
                                                "depth": 2,
                                                "name": "implementation",
                                                "value": 344
                                            },
                                            {
                                                "children": [],
                                                "depth": 2,
                                                "name": "transfer",
                                                "value": 25752
                                            }
                                        ],
                                        "depth": 1,
                                        "name": "transfer",
                                        "value": 26752
                                    }
                                ],
                                "depth": 0,
                                "name": "Executed Gas",
                                "value": 328321
                            }
                        ],
                        "depth": -1,
                        "name": "Actual Gas Used",
                        "value": 297537
                    },
                    {
                        "children": [],
                        "depth": -1,
                        "name": "Refunded Gas",
                        "value": 65300
                    }
                ],
                "depth": -2,
                "name": "Total Gas",
                "value": 362837
            }
        ],
        "isConfirmed": true,
        "mainTrace": [
            {
                "children": [
                    {
                        "children": [
                            {
                                "children": [
                                    {
                                        "children": [],
                                        "depth": 2,
                                        "id": 2,
                                        "order": 2
                                    },
                                    {
                                        "children": [],
                                        "depth": 2,
                                        "id": 3,
                                        "order": 3
                                    }
                                ],
                                "depth": 1,
                                "id": 1,
                                "order": 1
                            },
                            {
                                "children": [
                                    {
                                        "children": [],
                                        "depth": 2,
                                        "id": 5,
                                        "order": 5
                                    },
                                    {
                                        "children": [
                                            {
                                                "children": [],
                                                "depth": 3,
                                                "id": 7,
                                                "order": 7
                                            },
                                            {
                                                "children": [],
                                                "depth": 3,
                                                "id": 8,
                                                "order": 8
                                            }
                                        ],
                                        "depth": 2,
                                        "id": 6,
                                        "order": 6
                                    },
                                    {
                                        "children": [
                                            {
                                                "children": [],
                                                "depth": 3,
                                                "id": 10,
                                                "order": 10
                                            }
                                        ],
                                        "depth": 2,
                                        "id": 9,
                                        "order": 9
                                    },
                                    {
                                        "children": [
                                            {
                                                "children": [],
                                                "depth": 3,
                                                "id": 12,
                                                "order": 12
                                            }
                                        ],
                                        "depth": 2,
                                        "id": 11,
                                        "order": 11
                                    },
                                    {
                                        "children": [
                                            {
                                                "children": [],
                                                "depth": 3,
                                                "id": 14,
                                                "order": 14
                                            },
                                            {
                                                "children": [
                                                    {
                                                        "children": [
                                                            {
                                                                "children": [],
                                                                "depth": 5,
                                                                "id": 17,
                                                                "order": 17
                                                            }
                                                        ],
                                                        "depth": 4,
                                                        "id": 16,
                                                        "order": 16
                                                    },
                                                    {
                                                        "children": [],
                                                        "depth": 4,
                                                        "id": 18,
                                                        "order": 18
                                                    },
                                                    {
                                                        "children": [
                                                            {
                                                                "children": [
                                                                    {
                                                                        "children": [],
                                                                        "depth": 6,
                                                                        "id": 21,
                                                                        "order": 21
                                                                    }
                                                                ],
                                                                "depth": 5,
                                                                "id": 20,
                                                                "order": 20
                                                            }
                                                        ],
                                                        "depth": 4,
                                                        "id": 19,
                                                        "order": 19
                                                    },
                                                    {
                                                        "children": [],
                                                        "depth": 4,
                                                        "id": 22,
                                                        "order": 22
                                                    },
                                                    {
                                                        "children": [],
                                                        "depth": 4,
                                                        "id": 23,
                                                        "order": 23
                                                    }
                                                ],
                                                "depth": 3,
                                                "id": 15,
                                                "order": 15
                                            }
                                        ],
                                        "depth": 2,
                                        "id": 13,
                                        "order": 13
                                    },
                                    {
                                        "children": [],
                                        "depth": 2,
                                        "id": 24,
                                        "order": 24
                                    },
                                    {
                                        "children": [
                                            {
                                                "children": [
                                                    {
                                                        "children": [
                                                            {
                                                                "children": [],
                                                                "depth": 5,
                                                                "id": 28,
                                                                "order": 28
                                                            },
                                                            {
                                                                "children": [
                                                                    {
                                                                        "children": [
                                                                            {
                                                                                "children": [
                                                                                    {
                                                                                        "children": [],
                                                                                        "depth": 8,
                                                                                        "id": 32,
                                                                                        "order": 32
                                                                                    }
                                                                                ],
                                                                                "depth": 7,
                                                                                "id": 31,
                                                                                "order": 31
                                                                            },
                                                                            {
                                                                                "children": [
                                                                                    {
                                                                                        "children": [],
                                                                                        "depth": 8,
                                                                                        "id": 34,
                                                                                        "order": 34
                                                                                    }
                                                                                ],
                                                                                "depth": 7,
                                                                                "id": 33,
                                                                                "order": 33
                                                                            }
                                                                        ],
                                                                        "depth": 6,
                                                                        "id": 30,
                                                                        "order": 30
                                                                    }
                                                                ],
                                                                "depth": 5,
                                                                "id": 29,
                                                                "order": 29
                                                            },
                                                            {
                                                                "children": [
                                                                    {
                                                                        "children": [],
                                                                        "depth": 6,
                                                                        "id": 36,
                                                                        "order": 36
                                                                    },
                                                                    {
                                                                        "children": [
                                                                            {
                                                                                "children": [],
                                                                                "depth": 7,
                                                                                "id": 38,
                                                                                "order": 38
                                                                            }
                                                                        ],
                                                                        "depth": 6,
                                                                        "id": 37,
                                                                        "order": 37
                                                                    }
                                                                ],
                                                                "depth": 5,
                                                                "id": 35,
                                                                "order": 35
                                                            },
                                                            {
                                                                "children": [
                                                                    {
                                                                        "children": [],
                                                                        "depth": 6,
                                                                        "id": 40,
                                                                        "order": 40
                                                                    },
                                                                    {
                                                                        "children": [],
                                                                        "depth": 6,
                                                                        "id": 41,
                                                                        "order": 41
                                                                    }
                                                                ],
                                                                "depth": 5,
                                                                "id": 39,
                                                                "order": 39
                                                            },
                                                            {
                                                                "children": [],
                                                                "depth": 5,
                                                                "id": 42,
                                                                "order": 42
                                                            }
                                                        ],
                                                        "depth": 4,
                                                        "id": 27,
                                                        "order": 27
                                                    }
                                                ],
                                                "depth": 3,
                                                "id": 26,
                                                "order": 26
                                            }
                                        ],
                                        "depth": 2,
                                        "id": 25,
                                        "order": 25
                                    },
                                    {
                                        "children": [
                                            {
                                                "children": [],
                                                "depth": 3,
                                                "id": 44,
                                                "order": 44
                                            },
                                            {
                                                "children": [],
                                                "depth": 3,
                                                "id": 45,
                                                "order": 45
                                            }
                                        ],
                                        "depth": 2,
                                        "id": 43,
                                        "order": 43
                                    },
                                    {
                                        "children": [
                                            {
                                                "children": [],
                                                "depth": 3,
                                                "id": 47,
                                                "order": 47
                                            },
                                            {
                                                "children": [],
                                                "depth": 3,
                                                "id": 48,
                                                "order": 48
                                            }
                                        ],
                                        "depth": 2,
                                        "id": 46,
                                        "order": 46
                                    },
                                    {
                                        "children": [],
                                        "depth": 2,
                                        "id": 49,
                                        "order": 49
                                    }
                                ],
                                "depth": 1,
                                "id": 4,
                                "order": 4
                            },
                            {
                                "children": [
                                    {
                                        "children": [],
                                        "depth": 2,
                                        "id": 51,
                                        "order": 51
                                    },
                                    {
                                        "children": [],
                                        "depth": 2,
                                        "id": 52,
                                        "order": 52
                                    }
                                ],
                                "depth": 1,
                                "id": 50,
                                "order": 50
                            },
                            {
                                "children": [
                                    {
                                        "children": [],
                                        "depth": 2,
                                        "id": 54,
                                        "order": 54
                                    },
                                    {
                                        "children": [
                                            {
                                                "children": [],
                                                "depth": 3,
                                                "id": 56,
                                                "order": 56
                                            }
                                        ],
                                        "depth": 2,
                                        "id": 55,
                                        "order": 55
                                    }
                                ],
                                "depth": 1,
                                "id": 53,
                                "order": 53
                            },
                            {
                                "children": [],
                                "depth": 1,
                                "id": 57,
                                "order": 57
                            }
                        ],
                        "depth": 0,
                        "id": 0,
                        "order": 0
                    }
                ],
                "depth": -1,
                "id": -1,
                "order": -1
            }
        ],
        "mainTraceNodeCount": 58,
        "parentIdMap": {
            "0": -1,
            "1": 0,
            "10": 9,
            "11": 4,
            "12": 11,
            "13": 4,
            "14": 13,
            "15": 13,
            "16": 15,
            "17": 16,
            "18": 15,
            "19": 15,
            "2": 1,
            "20": 19,
            "21": 20,
            "22": 15,
            "23": 15,
            "24": 4,
            "25": 4,
            "26": 25,
            "27": 26,
            "28": 27,
            "29": 27,
            "3": 1,
            "30": 29,
            "31": 30,
            "32": 31,
            "33": 30,
            "34": 33,
            "35": 27,
            "36": 35,
            "37": 35,
            "38": 37,
            "39": 27,
            "4": 0,
            "40": 39,
            "41": 39,
            "42": 27,
            "43": 4,
            "44": 43,
            "45": 43,
            "46": 4,
            "47": 46,
            "48": 46,
            "49": 4,
            "5": 4,
            "50": 0,
            "51": 50,
            "52": 50,
            "53": 0,
            "54": 53,
            "55": 53,
            "56": 55,
            "57": 0,
            "6": 4,
            "7": 6,
            "8": 6,
            "9": 4
        },
        "tidyTrace": [
            {
                "children": [
                    {
                        "children": [
                            {
                                "children": [
                                    {
                                        "children": [],
                                        "depth": 2,
                                        "id": 5,
                                        "order": 5
                                    },
                                    {
                                        "children": [
                                            {
                                                "children": [],
                                                "depth": 3,
                                                "id": 10,
                                                "order": 10
                                            }
                                        ],
                                        "depth": 2,
                                        "id": 9,
                                        "order": 9
                                    },
                                    {
                                        "children": [
                                            {
                                                "children": [],
                                                "depth": 3,
                                                "id": 12,
                                                "order": 12
                                            }
                                        ],
                                        "depth": 2,
                                        "id": 11,
                                        "order": 11
                                    },
                                    {
                                        "children": [
                                            {
                                                "children": [
                                                    {
                                                        "children": [
                                                            {
                                                                "children": [],
                                                                "depth": 5,
                                                                "id": 17,
                                                                "order": 17
                                                            }
                                                        ],
                                                        "depth": 4,
                                                        "id": 16,
                                                        "order": 16
                                                    },
                                                    {
                                                        "children": [
                                                            {
                                                                "children": [
                                                                    {
                                                                        "children": [],
                                                                        "depth": 6,
                                                                        "id": 21,
                                                                        "order": 21
                                                                    }
                                                                ],
                                                                "depth": 5,
                                                                "id": 20,
                                                                "order": 20
                                                            }
                                                        ],
                                                        "depth": 4,
                                                        "id": 19,
                                                        "order": 19
                                                    },
                                                    {
                                                        "children": [],
                                                        "depth": 4,
                                                        "id": 23,
                                                        "order": 23
                                                    }
                                                ],
                                                "depth": 3,
                                                "id": 15,
                                                "order": 15
                                            }
                                        ],
                                        "depth": 2,
                                        "id": 13,
                                        "order": 13
                                    },
                                    {
                                        "children": [
                                            {
                                                "children": [
                                                    {
                                                        "children": [
                                                            {
                                                                "children": [
                                                                    {
                                                                        "children": [
                                                                            {
                                                                                "children": [],
                                                                                "depth": 7,
                                                                                "id": 38,
                                                                                "order": 38
                                                                            }
                                                                        ],
                                                                        "depth": 6,
                                                                        "id": 37,
                                                                        "order": 37
                                                                    }
                                                                ],
                                                                "depth": 5,
                                                                "id": 35,
                                                                "order": 35
                                                            },
                                                            {
                                                                "children": [],
                                                                "depth": 5,
                                                                "id": 42,
                                                                "order": 42
                                                            }
                                                        ],
                                                        "depth": 4,
                                                        "id": 27,
                                                        "order": 27
                                                    }
                                                ],
                                                "depth": 3,
                                                "id": 26,
                                                "order": 26
                                            }
                                        ],
                                        "depth": 2,
                                        "id": 25,
                                        "order": 25
                                    },
                                    {
                                        "children": [],
                                        "depth": 2,
                                        "id": 49,
                                        "order": 49
                                    }
                                ],
                                "depth": 1,
                                "id": 4,
                                "order": 4
                            },
                            {
                                "children": [
                                    {
                                        "children": [
                                            {
                                                "children": [],
                                                "depth": 3,
                                                "id": 56,
                                                "order": 56
                                            }
                                        ],
                                        "depth": 2,
                                        "id": 55,
                                        "order": 55
                                    }
                                ],
                                "depth": 1,
                                "id": 53,
                                "order": 53
                            },
                            {
                                "children": [],
                                "depth": 1,
                                "id": 57,
                                "order": 57
                            }
                        ],
                        "depth": 0,
                        "id": 0,
                        "order": 0
                    }
                ],
                "depth": -1,
                "id": -1,
                "order": -1
            }
        ],
        "tidyTraceNodeCount": 27
    },
    "state_change": {
        "stateChanges": [
            {
                "address": "0x2260fac5e5542a773aa44fbcfedf7c193bc2c599",
                "erc": "ERC-20",
                "slots": [
                    {
                        "current": "0x0000000000000000000000000000000000000000000000000000000163e850de",
                        "key": "0x72ed84c161946f627622700d5a9a9b5c7bd5bb3de6480b5eb052f957a91a5856",
                        "prev": "0x0000000000000000000000000000000000000000000000000000000163e87a2b"
                    },
                    {
                        "current": "0x000000000000000000000000000000000000000000000000000000003777ae04",
                        "key": "0xf5c6c9bf088c5f4563f7917199bf6ecc5b27a38e3b7df104393ef86e2a2aff56",
                        "prev": "0x00000000000000000000000000000000000000000000000000000000377784b7"
                    }
                ],
                "storageVariables": [
                    {
                        "name": "balances",
                        "type": "mapping(address => uint256)",
                        "value": {
                            "pairs": [
                                {
                                    "key": "0xc5c28b489bd1f84768ac197a63d56162832baa25",
                                    "value": {
                                        "current": "930590212",
                                        "prev": "930579639",
                                        "typeTag": 1
                                    }
                                },
                                {
                                    "key": "0xe6ff8b9a37b0fab776134636d9981aa778c4e718",
                                    "value": {
                                        "current": "5971136734",
                                        "prev": "5971147307",
                                        "typeTag": 1
                                    }
                                }
                            ],
                            "typeTag": 4
                        }
                    }
                ]
            },
            {
                "address": "0x7a56e1c57c7475ccf742a1832b028f0456652f97",
                "erc": "",
                "slots": [
                    {
                        "current": "0x0000000000000000000000000000000000000000000000003dbecf88d005c650",
                        "key": "0xb53d58d0340c02b40680afbb8b1bda3f45487ff6789c286436eb9d4ef89e8f48",
                        "prev": "0x0000000000000000000000000000000000000000000000003dbf2fb1ff1d5a50"
                    },
                    {
                        "current": "0x000000000000000000000000000000000000000000000000000060292f179400",
                        "key": "0x3618268d472f261c83904a3b45b5918c850b2f08b438def11901fe6cb330d7cf",
                        "prev": "0x0000000000000000000000000000000000000000000000000000000000000000"
                    }
                ],
                "storageVariables": []
            },
            {
                "address": "0xc02aaa39b223fe8d0a0e5c4f27ead9083c756cc2",
                "erc": "ERC-20",
                "slots": [
                    {
                        "current": "0x00000000000000000000000000000000000000000000004081613f7f5ed88c55",
                        "key": "0xec660e1e080fb1f28dab280c0cb6555838471a4a0a0e01e95c0406ebfaaf3f49",
                        "prev": "0x00000000000000000000000000000000000000000000004081588b3c4b256c55"
                    }
                ],
                "storageVariables": [
                    {
                        "name": "balanceOf",
                        "type": "mapping(address => uint256)",
                        "value": {
                            "pairs": [
                                {
                                    "key": "0xe6ff8b9a37b0fab776134636d9981aa778c4e718",
                                    "value": {
                                        "current": "1189914423237329587285",
                                        "prev": "1189911973237329587285",
                                        "typeTag": 1
                                    }
                                }
                            ],
                            "typeTag": 4
                        }
                    }
                ]
            },
            {
                "address": "0xc5c28b489bd1f84768ac197a63d56162832baa25",
                "erc": "ERC-20",
                "slots": [
                    {
                        "current": "0x00000000000000000000000000003777ae040000000000003dbecf88d005c650",
                        "key": "0x0000000000000000000000000000000000000000000000000000000000000003",
                        "prev": "0x0000000000000000000000000000377784b70000000000003dbf2fb1ff1d5a50"
                    }
                ],
                "storageVariables": [
                    {
                        "name": "_BASE_RESERVE_",
                        "type": "uint112",
                        "value": {
                            "current": "4449221668401170000",
                            "prev": "4449327398401170000",
                            "typeTag": 1
                        }
                    },
                    {
                        "name": "_QUOTE_RESERVE_",
                        "type": "uint112",
                        "value": {
                            "current": "930590212",
                            "prev": "930579639",
                            "typeTag": 1
                        }
                    },
                    {
                        "name": "_BLOCK_TIMESTAMP_LAST_",
                        "type": "uint32",
                        "value": {
                            "current": "0",
                            "prev": "0",
                            "typeTag": 1
                        }
                    }
                ]
            },
            {
                "address": "0xe6ff8b9a37b0fab776134636d9981aa778c4e718",
                "erc": "",
                "slots": [
                    {
                        "current": "0x00010000500050002303fe43000000000007583191d896cbc8f2e7e08090b177",
                        "key": "0x0000000000000000000000000000000000000000000000000000000000000000",
                        "prev": "0x00010000500050002303fe4300000000000758318e38862a375c25fa64b0af26"
                    },
                    {
                        "current": "0x000000000000000000000000000007963ca1a8975cf44357462f88a99a534b8e",
                        "key": "0x0000000000000000000000000000000000000000000000000000000000000002",
                        "prev": "0x000000000000000000000000000007963ca190d49698b8049b2864d823e0819a"
                    }
                ],
                "storageVariables": []
            }
        ]
    }
}