{
    "balance_change": {
        "balanceChanges": [
            {
                "account": "0x12d5ec7e8bf4c182fdc29acfbda211b606770ee9",
                "assets": [
                    {
                        "address": "0xdbe29649c763d18b37c65c8fdd12ccbb241faafd",
                        "amount": "58",
                        "iconUrl": "",
                        "isERC1155": false,
                        "isERC721": false,
                        "sign": false,
                        "value": ""
                    }
                ]
            },
            {
                "account": "0x03e7b31f3133bcea19a55cfd5ee7f7f791bbf937",
                "assets": [
                    {
                        "address": "0xdbe29649c763d18b37c65c8fdd12ccbb241faafd",
                        "amount": "58",
                        "iconUrl": "",
                        "isERC1155": false,
                        "isERC721": false,
                        "sign": true,
                        "value": ""
                    }
                ]
            }
        ]
    },
    "profile": {
        "basic_info": {
            "baseFee": "",
            "blockNumber": 7956235,
            "callData": "0xa9059cbb00000000000000000000000003e7b31f3133bcea19a55cfd5ee7f7f791bbf93700000000000000000000000000000000000000000000000324e964b3eca80000",
            "debugEnable": true,
            "errorInfo": "",
            "eventCount": 1,
            "feeRecipient": "0x5a0b54d5dc17e0aadc383d2db43b0a0d3e029c4c",
            "formatValue": "0",
            "gasLimit": 90000,
            "gasPrice": "20",
            "gasUsed": 53495,
            "intTxnCount": 0,
            "internalRevert": false,
            "internalRevertMessage": "",
            "isContractCreation": false,
            "isFlashloan": false,
            "maxFee": "",
            "nonce": 7603,
            "overwritedBlockNumber": -1,
            "priorityFee": "",
            "receiver": "0xdbe29649c763d18b37c65c8fdd12ccbb241faafd",
            "revertMessage": "",
            "sender": "0x12d5ec7e8bf4c182fdc29acfbda211b606770ee9",
            "simulationEnable": true,
            "sourceTxnHash": "0xf94eba093521f8c72eb50a7a3e0cfbef47fff13efed61739a726dff5922637de",
            "status": true,
            "timestamp": "2019-06-14T10:27:38Z",
            "transactionFee": "0.0010699",
            "txnHash": "0xf94eba093521f8c72eb50a7a3e0cfbef47fff13efed61739a726dff5922637de",
            "txnIndex": 43,
            "type": 0,
            "value": "0"
        },
        "fund_flow": [
            {
                "amount": "58",
                "from": "0x12d5ec7e8bf4c182fdc29acfbda211b606770ee9",
                "id": 1,
                "isERC1155": false,
                "isERC721": false,
                "isReverted": false,
                "order": 1,
                "to": "0x03e7b31f3133bcea19a55cfd5ee7f7f791bbf937",
                "token": "0xdbe29649c763d18b37c65c8fdd12ccbb241faafd"
            }
        ],
        "token_infos": [
            {
                "address": "0xc02aaa39b223fe8d0a0e5c4f27ead9083c756cc2",
                "decimals": 18
            },
            {
                "address": "0xdbe29649c763d18b37c65c8fdd12ccbb241faafd",
                "decimals": 18
            },
            {
                "address": "0xeeeeeeeeeeeeeeeeeeeeeeeeeeeeeeeeeeeeeeee",
                "decimals": 18
            }
        ]
    },
    "address_label": {
        "labels": [
            {
                "address": "0xeeeeeeeeeeeeeeeeeeeeeeeeeeeeeeeeeeeeeeee",
                "label": "Ether"
            },
            {
                "address": "0x03e7b31f3133bcea19a55cfd5ee7f7f791bbf937",
                "label": "HOTBIT"
            },
            {
                "address": "0xdbe29649c763d18b37c65c8fdd12ccbb241faafd",
                "label": "Yuntoo Nuclear Body (YTNB)"
            },
            {
                "address": "0x0000000000000000000000000000000000000001",
                "label": "Precompiled"
            },
            {
                "address": "0x0000000000000000000000000000000000000002",
                "label": "Precompiled"
            },
            {
                "address": "0x0000000000000000000000000000000000000003",
                "label": "Precompiled"
            },
            {
                "address": "0x0000000000000000000000000000000000000004",
                "label": "Precompiled"
            }
        ]
    },
    "trace": {
        "accountLabels": null,
        "dataMap": {
            "-1": {
                "invocation": {
                    "address": "0x12d5ec7e8bf4c182fdc29acfbda211b606770ee9",
                    "callData": "",
                    "decodedMethod": null,
                    "errorInfo": "",
                    "fromAddress": "",
                    "gasUsed": 0,
                    "id": -1,
                    "methodDecoded": false,
                    "operation": "",
                    "output": "",
                    "revert": false,
                    "revertMessage": "",
                    "selector": "",
                    "status": false,
                    "value": ""
                },
                "nodeType": 0
            },
            "0": {
                "invocation": {
                    "address": "0xdbe29649c763d18b37c65c8fdd12ccbb241faafd",
                    "callData": "0x00000000000000000000000003e7b31f3133bcea19a55cfd5ee7f7f791bbf93700000000000000000000000000000000000000000000000324e964b3eca80000",
                    "decodedMethod": {
                        "callParams": [
                            {
                                "name": "_to",
                                "type": "address",
                                "value": "0x03e7b31f3133bcea19a55cfd5ee7f7f791bbf937"
                            },
                            {
                                "decimalAvailable": true,
                                "name": "_value",
                                "type": "uint256",
                                "value": "58,000,000,000,000,000,000"
                            }
                        ],
                        "constructorArguments": "",
                        "name": "transfer",
                        "returnParams": [
                            {
                                "name": "success",
                                "type": "bool",
                                "value": true
                            }
                        ],
                        "signature": "transfer(address,uint256)"
                    },
                    "errorInfo": "",
                    "fromAddress": "0x12d5ec7e8bf4c182fdc29acfbda211b606770ee9",
                    "gasUsed": 53495,
                    "id": 0,
                    "methodDecoded": true,
                    "operation": "CALL",
                    "output": "0x0000000000000000000000000000000000000000000000000000000000000001",
                    "revert": false,
                    "revertMessage": "",
                    "selector": "0xa9059cbb",
                    "status": true,
                    "value": "0"
                },
                "nodeType": 0
            },
            "1": {
                "event": {
                    "contract": "0xdbe29649c763d18b37c65c8fdd12ccbb241faafd",
                    "decodedLog": {
                        "name": "Transfer",
                        "params": [
                            {
                                "name": "from",
                                "type": "address",
                                "value": "0x12d5ec7e8bf4c182fdc29acfbda211b606770ee9"
                            },
                            {
                                "name": "to",
                                "type": "address",
                                "value": "0x03e7b31f3133bcea19a55cfd5ee7f7f791bbf937"
                            },
                            {
                                "decimalAvailable": true,
                                "name": "value",
                                "type": "uint256",
                                "value": "58,000,000,000,000,000,000"
                            }
                        ],
                        "signature": "Transfer(address,address,uint256)"
                    },
                    "id": 1,
                    "logData": "0x00000000000000000000000000000000000000000000000324e964b3eca80000",
                    "logDecoded": true,
                    "operation": "EVENT",
                    "revert": false,
                    "status": true,
                    "topics": [
                        "0xddf252ad1be2c89b69c2b068fc378daa952ba7f163c4a11628f55a4df523b3ef",
                        "0x00000000000000000000000012d5ec7e8bf4c182fdc29acfbda211b606770ee9",
                        "0x00000000000000000000000003e7b31f3133bcea19a55cfd5ee7f7f791bbf937"
                    ]
                },
                "nodeType": 1
            }
        },
        "gasFlame": [
            {
                "children": [
                    {
                        "children": [
                            {
                                "children": [],
                                "depth": 0,
                                "name": "Initial Gas",
                                "value": 23256
                            },
                            {
                                "children": [],
                                "depth": 0,
                                "name": "Executed Gas",
                                "value": 30239
                            }
                        ],
                        "depth": -1,
                        "name": "Actual Gas Used",
                        "value": 53495
                    },
                    {
                        "children": [],
                        "depth": -1,
                        "name": "Refunded Gas",
                        "value": 0
                    }
                ],
                "depth": -2,
                "name": "Total Gas",
                "value": 53495
            }
        ],
        "isConfirmed": true,
        "mainTrace": [
            {
                "children": [
                    {
                        "children": [
                            {
                                "children": [],
                                "depth": 1,
                                "id": 1,
                                "order": 1
                            }
                        ],
                        "depth": 0,
                        "id": 0,
                        "order": 0
                    }
                ],
                "depth": -1,
                "id": -1,
                "order": -1
            }
        ],
        "mainTraceNodeCount": 2,
        "parentIdMap": {
            "0": -1,
            "1": 0
        },
        "tidyTrace": [
            {
                "children": [
                    {
                        "children": [
                            {
                                "children": [],
                                "depth": 1,
                                "id": 1,
                                "order": 1
                            }
                        ],
                        "depth": 0,
                        "id": 0,
                        "order": 0
                    }
                ],
                "depth": -1,
                "id": -1,
                "order": -1
            }
        ],
        "tidyTraceNodeCount": 2
    },
    "state_change": {
        "stateChanges": [
            {
                "address": "0xdbe29649c763d18b37c65c8fdd12ccbb241faafd",
                "erc": "ERC-20",
                "slots": [
                    {
                        "current": "0x000000000000000000000000000000000000000000003f81dfe5fffd5f8a5000",
                        "key": "0x59111ae628a7595ce1232a834ab457a4abc367b360224dc00398ab2de82cb005",
                        "prev": "0x000000000000000000000000000000000000000000003f8504cf64b14c325000"
                    },
                    {
                        "current": "0x00000000000000000000000000000000000000000000000324e964b3eca80000",
                        "key": "0x4b51083887b47c1a3f1cde7c0b3c96bb992c45ef56457a2278c0a57b9baeedfc",
                        "prev": "0x0000000000000000000000000000000000000000000000000000000000000000"
                    }
                ],
                "storageVariables": [
                    {
                        "name": "balanceOf",
                        "type": "mapping(address => uint256)",
                        "value": {
                            "pairs": [
                                {
                                    "key": "0x03e7b31f3133bcea19a55cfd5ee7f7f791bbf937",
                                    "value": {
                                        "current": "58000000000000000000",
                                        "prev": "0",
                                        "typeTag": 1
                                    }
                                },
                                {
                                    "key": "0x12d5ec7e8bf4c182fdc29acfbda211b606770ee9",
                                    "value": {
                                        "current": "299904851989000000000000",
                                        "prev": "299962851989000000000000",
                                        "typeTag": 1
                                    }
                                }
                            ],
                            "typeTag": 4
                        }
                    }
                ]
            }
        ]
    }
}