{
    "balance_change": {
        "balanceChanges": [
            {
                "account": "0x8645fb015e160c3f9c085c2f2a57065d7321afc3",
                "assets": [
                    {
                        "address": "0xeeeeeeeeeeeeeeeeeeeeeeeeeeeeeeeeeeeeeeee",
                        "amount": "0.008",
                        "iconUrl": "https://assets.blocksec.com/image/1663669189317-3.png",
                        "isERC1155": false,
                        "isERC721": false,
                        "sign": false,
                        "value": ""
                    }
                ]
            },
            {
                "account": "0x06012c8cf97bead5deae237070f9587f8e7a266d",
                "assets": [
                    {
                        "address": "0xeeeeeeeeeeeeeeeeeeeeeeeeeeeeeeeeeeeeeeee",
                        "amount": "0.008",
                        "iconUrl": "https://assets.blocksec.com/image/1663669189317-3.png",
                        "isERC1155": false,
                        "isERC721": false,
                        "sign": true,
                        "value": ""
                    }
                ]
            }
        ]
    },
    "profile": {
        "basic_info": {
            "baseFee": "",
            "blockNumber": 4803231,
            "callData": "0xf7d8c883000000000000000000000000000000000000000000000000000000000006376c00000000000000000000000000000000000000000000000000000000000635f8",
            "debugEnable": true,
            "errorInfo": "",
            "eventCount": 1,
            "feeRecipient": "0x84990f5d2e09f56cabdabf6409ad31bdd8363b50",
            "formatValue": "0.008",
            "gasLimit": 116074,
            "gasPrice": "25",
            "gasUsed": 77383,
            "intTxnCount": 0,
            "internalRevert": false,
            "internalRevertMessage": "",
            "isContractCreation": false,
            "isFlashloan": false,
            "maxFee": "",
            "nonce": 81,
            "overwritedBlockNumber": -1,
            "priorityFee": "",
            "receiver": "0x06012c8cf97bead5deae237070f9587f8e7a266d",
            "revertMessage": "",
            "sender": "0x8645fb015e160c3f9c085c2f2a57065d7321afc3",
            "simulationEnable": true,
            "sourceTxnHash": "0xf925a1733af1361e13bea0455fef6fff437570763e62c920c919e51fe7e6690d",
            "status": true,
            "timestamp": "2017-12-26T23:28:31Z",
            "transactionFee": "0.001934575",
            "txnHash": "0xf925a1733af1361e13bea0455fef6fff437570763e62c920c919e51fe7e6690d",
            "txnIndex": 33,
            "type": 0,
            "value": "8000000000000000"
        },
        "fund_flow": [
            {
                "amount": "0.008",
                "from": "0x8645fb015e160c3f9c085c2f2a57065d7321afc3",
                "id": 1,
                "isERC1155": false,
                "isERC721": false,
                "isReverted": false,
                "order": 1,
                "to": "0x06012c8cf97bead5deae237070f9587f8e7a266d",
                "token": "0xeeeeeeeeeeeeeeeeeeeeeeeeeeeeeeeeeeeeeeee"
            }
        ],
        "token_infos": [
            {
                "address": "0xc02aaa39b223fe8d0a0e5c4f27ead9083c756cc2",
                "decimals": 18
            },
            {
                "address": "0xeeeeeeeeeeeeeeeeeeeeeeeeeeeeeeeeeeeeeeee",
                "decimals": 18
            }
        ]
    },
    "address_label": {
        "labels": [
            {
                "address": "0x06012c8cf97bead5deae237070f9587f8e7a266d",
                "label": "CryptoKitties: Core"
            },
            {
                "address": "0x0000000000000000000000000000000000000001",
                "label": "Precompiled"
            },
            {
                "address": "0x0000000000000000000000000000000000000002",
                "label": "Precompiled"
            },
            {
                "address": "0x0000000000000000000000000000000000000003",
                "label": "Precompiled"
            },
            {
                "address": "0x0000000000000000000000000000000000000004",
                "label": "Precompiled"
            },
            {
                "address": "0xeeeeeeeeeeeeeeeeeeeeeeeeeeeeeeeeeeeeeeee",
                "label": "Ether"
            }
        ]
    },
    "trace": {
        "accountLabels": null,
        "dataMap": {
            "-1": {
                "invocation": {
                    "address": "0x8645fb015e160c3f9c085c2f2a57065d7321afc3",
                    "callData": "",
                    "decodedMethod": null,
                    "errorInfo": "",
                    "fromAddress": "",
                    "gasUsed": 0,
                    "id": -1,
                    "methodDecoded": false,
                    "operation": "",
                    "output": "",
                    "revert": false,
                    "revertMessage": "",
                    "selector": "",
                    "status": false,
                    "value": ""
                },
                "nodeType": 0
            },
            "0": {
                "invocation": {
                    "address": "0x06012c8cf97bead5deae237070f9587f8e7a266d",
                    "callData": "0x000000000000000000000000000000000000000000000000000000000006376c00000000000000000000000000000000000000000000000000000000000635f8",
                    "decodedMethod": {
                        "callParams": [
                            {
                                "name": "_matronId",
                                "type": "uint256",
                                "value": "407,404"
                            },
                            {
                                "name": "_sireId",
                                "type": "uint256",
                                "value": "407,032"
                            }
                        ],
                        "constructorArguments": "",
                        "name": "breedWithAuto",
                        "returnParams": [],
                        "signature": "breedWithAuto(uint256,uint256)"
                    },
                    "errorInfo": "",
                    "fromAddress": "0x8645fb015e160c3f9c085c2f2a57065d7321afc3",
                    "gasUsed": 77383,
                    "id": 0,
                    "methodDecoded": true,
                    "operation": "CALL",
                    "output": "",
                    "revert": false,
                    "revertMessage": "",
                    "selector": "0xf7d8c883",
                    "status": true,
                    "value": "0.008"
                },
                "nodeType": 0
            },
            "1": {
                "event": {
                    "contract": "0x06012c8cf97bead5deae237070f9587f8e7a266d",
                    "decodedLog": {
                        "name": "Pregnant",
                        "params": [
                            {
                                "name": "owner",
                                "type": "address",
                                "value": "0x8645fb015e160c3f9c085c2f2a57065d7321afc3"
                            },
                            {
                                "name": "matronId",
                                "type": "uint256",
                                "value": "407,404"
                            },
                            {
                                "name": "sireId",
                                "type": "uint256",
                                "value": "407,032"
                            },
                            {
                                "name": "cooldownEndBlock",
                                "type": "uint256",
                                "value": "4,803,351"
                            }
                        ],
                        "signature": "Pregnant(address,uint256,uint256,uint256)"
                    },
                    "id": 1,
                    "logData": "0x0000000000000000000000008645fb015e160c3f9c085c2f2a57065d7321afc3000000000000000000000000000000000000000000000000000000000006376c00000000000000000000000000000000000000000000000000000000000635f80000000000000000000000000000000000000000000000000000000000494b17",
                    "logDecoded": true,
                    "operation": "EVENT",
                    "revert": false,
                    "status": true,
                    "topics": [
                        "0x241ea03ca20251805084d27d4440371c34a0b85ff108f6bb5611248f73818b80"
                    ]
                },
                "nodeType": 1
            }
        },
        "gasFlame": [
            {
                "children": [
                    {
                        "children": [
                            {
                                "children": [],
                                "depth": 0,
                                "name": "Initial Gas",
                                "value": 21912
                            },
                            {
                                "children": [],
                                "depth": 0,
                                "name": "Executed Gas",
                                "value": 55471
                            }
                        ],
                        "depth": -1,
                        "name": "Actual Gas Used",
                        "value": 77383
                    },
                    {
                        "children": [],
                        "depth": -1,
                        "name": "Refunded Gas",
                        "value": 0
                    }
                ],
                "depth": -2,
                "name": "Total Gas",
                "value": 77383
            }
        ],
        "isConfirmed": true,
        "mainTrace": [
            {
                "children": [
                    {
                        "children": [
                            {
                                "children": [],
                                "depth": 1,
                                "id": 1,
                                "order": 1
                            }
                        ],
                        "depth": 0,
                        "id": 0,
                        "order": 0
                    }
                ],
                "depth": -1,
                "id": -1,
                "order": -1
            }
        ],
        "mainTraceNodeCount": 2,
        "parentIdMap": {
            "0": -1,
            "1": 0
        },
        "tidyTrace": [
            {
                "children": [
                    {
                        "children": [
                            {
                                "children": [],
                                "depth": 1,
                                "id": 1,
                                "order": 1
                            }
                        ],
                        "depth": 0,
                        "id": 0,
                        "order": 0
                    }
                ],
                "depth": -1,
                "id": -1,
                "order": -1
            }
        ],
        "tidyTraceNodeCount": 2
    },
    "state_change": {
        "stateChanges": [
            {
                "address": "0x06012c8cf97bead5deae237070f9587f8e7a266d",
                "erc": "",
                "slots": [
                    {
                        "current": "0x00000005000635f800000000000000000000000000494b17000000005a40eff0",
                        "key": "0xf652222313e28459528d920b65115c16c04f3efc82aaedc97be59f3f37887c18",
                        "prev": "0x0000000400000000000000000000000000000000004938bb000000005a40eff0"
                    },
                    {
                        "current": "0x000000070000000000000000000000000000000000494c7f000000005a40d042",
                        "key": "0xf652222313e28459528d920b65115c16c04f3efc82aaedc97be59f3f37887930",
                        "prev": "0x000000060000000000000000000000000000000000493dae000000005a40d042"
                    },
                    {
                        "current": "0x00000000000000000000000000000000000000000000000000000000000005d9",
                        "key": "0x000000000000000000000000000000000000000000000000000000000000000f",
                        "prev": "0x00000000000000000000000000000000000000000000000000000000000005d8"
                    }
                ],
                "storageVariables": [
                    {
                        "name": "pregnantKitties",
                        "type": "uint256",
                        "value": {
                            "current": "1497",
                            "prev": "1496",
                            "typeTag": 1
                        }
                    },
                    {
                        "name": "kitties",
                        "type": "struct KittyBase.Kitty[]",
                        "value": {
                            "elemType": "struct KittyBase.Kitty",
                            "elems": [
                                {
                                    "index": 407032,
                                    "value": {
                                        "fields": [
                                            {
                                                "name": "birthTime",
                                                "type": "uint64",
                                                "value": {
                                                    "current": "1514197058",
                                                    "prev": "1514197058",
                                                    "typeTag": 1
                                                }
                                            },
                                            {
                                                "name": "cooldownEndBlock",
                                                "type": "uint64",
                                                "value": {
                                                    "current": "4803711",
                                                    "prev": "4799918",
                                                    "typeTag": 1
                                                }
                                            },
                                            {
                                                "name": "matronId",
                                                "type": "uint32",
                                                "value": {
                                                    "current": "0",
                                                    "prev": "0",
                                                    "typeTag": 1
                                                }
                                            },
                                            {
                                                "name": "sireId",
                                                "type": "uint32",
                                                "value": {
                                                    "current": "0",
                                                    "prev": "0",
                                                    "typeTag": 1
                                                }
                                            },
                                            {
                                                "name": "siringWithId",
                                                "type": "uint32",
                                                "value": {
                                                    "current": "0",
                                                    "prev": "0",
                                                    "typeTag": 1
                                                }
                                            },
                                            {
                                                "name": "cooldownIndex",
                                                "type": "uint16",
                                                "value": {
                                                    "current": "7",
                                                    "prev": "6",
                                                    "typeTag": 1
                                                }
                                            },
                                            {
                                                "name": "generation",
                                                "type": "uint16",
                                                "value": {
                                                    "current": "0",
                                                    "prev": "0",
                                                    "typeTag": 1
                                                }
                                            }
                                        ],
                                        "typeTag": 3
                                    }
                                },
                                {
                                    "index": 407404,
                                    "value": {
                                        "fields": [
                                            {
                                                "name": "birthTime",
                                                "type": "uint64",
                                                "value": {
                                                    "current": "1514205168",
                                                    "prev": "1514205168",
                                                    "typeTag": 1
                                                }
                                            },
                                            {
                                                "name": "cooldownEndBlock",
                                                "type": "uint64",
                                                "value": {
                                                    "current": "4803351",
                                                    "prev": "4798651",
                                                    "typeTag": 1
                                                }
                                            },
                                            {
                                                "name": "matronId",
                                                "type": "uint32",
                                                "value": {
                                                    "current": "0",
                                                    "prev": "0",
                                                    "typeTag": 1
                                                }
                                            },
                                            {
                                                "name": "sireId",
                                                "type": "uint32",
                                                "value": {
                                                    "current": "0",
                                                    "prev": "0",
                                                    "typeTag": 1
                                                }
                                            },
                                            {
                                                "name": "siringWithId",
                                                "type": "uint32",
                                                "value": {
                                                    "current": "407032",
                                                    "prev": "0",
                                                    "typeTag": 1
                                                }
                                            },
                                            {
                                                "name": "cooldownIndex",
                                                "type": "uint16",
                                                "value": {
                                                    "current": "5",
                                                    "prev": "4",
                                                    "typeTag": 1
                                                }
                                            },
                                            {
                                                "name": "generation",
                                                "type": "uint16",
                                                "value": {
                                                    "current": "0",
                                                    "prev": "0",
                                                    "typeTag": 1
                                                }
                                            }
                                        ],
                                        "typeTag": 3
                                    }
                                }
                            ],
                            "typeTag": 2
                        }
                    }
                ]
            }
        ]
    }
}