{
    "balance_change": {
        "balanceChanges": [
            {
                "account": "0x88aaf4a728e14748cea5e9a3ca1306ac567ba472",
                "assets": [
                    {
                        "address": "0xba100000625a3754423978a60c9317c58a424e3d",
                        "amount": "14.421913896910772109",
                        "iconUrl": "https://assets.blocksec.com/icon/c54e5d3686cfdcd5b83c30277395a4080808ff7cc373adffe8bd60843e2b8a99.png",
                        "isERC1155": false,
                        "isERC721": false,
                        "sign": true,
                        "value": "77.01302022599999795"
                    },
                    {
                        "address": "0xc0c293ce456ff0ed870add98a0828dd4d2903dbf",
                        "amount": "51.918890028878779591",
                        "iconUrl": "",
                        "isERC1155": false,
                        "isERC721": false,
                        "sign": true,
                        "value": "75.51805221"
                    }
                ]
            },
            {
                "account": "0x0000000000000000000000000000000000000000",
                "assets": [
                    {
                        "address": "0xc0c293ce456ff0ed870add98a0828dd4d2903dbf",
                        "amount": "51.918890028878779591",
                        "iconUrl": "",
                        "isERC1155": false,
                        "isERC721": false,
                        "sign": false,
                        "value": "75.51805221"
                    }
                ]
            },
            {
                "account": "0x001b78cec62dcfdc660e06a91eb1bc966541d758",
                "assets": [
                    {
                        "address": "0xba100000625a3754423978a60c9317c58a424e3d",
                        "amount": "8.667139431412752843",
                        "iconUrl": "https://assets.blocksec.com/icon/c54e5d3686cfdcd5b83c30277395a4080808ff7cc373adffe8bd60843e2b8a99.png",
                        "isERC1155": false,
                        "isERC721": false,
                        "sign": false,
                        "value": "46.28252456153999877"
                    }
                ]
            },
            {
                "account": "0x21e2df86658c8ad41a05453fa5815a0d91273ee9",
                "assets": [
                    {
                        "address": "0xba100000625a3754423978a60c9317c58a424e3d",
                        "amount": "5.754774465498019266",
                        "iconUrl": "https://assets.blocksec.com/icon/c54e5d3686cfdcd5b83c30277395a4080808ff7cc373adffe8bd60843e2b8a99.png",
                        "isERC1155": false,
                        "isERC721": false,
                        "sign": false,
                        "value": "30.73049564309999918"
                    }
                ]
            }
        ]
    },
    "profile": {
        "basic_info": {
            "baseFee": "15.38715729",
            "blockNumber": 16357668,
            "callData": "0x479f6add0000000000000000000000000000000000000000000000000000000000000120000000000000000000000000000000000000000000000000000000000000018000000000000000000000000000000000000000000000000000000000000001a000000000000000000000000000000000000000000000000000000000000001c0000000000000000000000000000000000000000000000000000000000000000000000000000000000000000000000000000000000000000000000000000000000000000000000000000000000000000000000000000000000000000000000000000000000000000000000000000000000000000000000000000000000000000000000000000000000000000000000000000000000000000000000000000000000000000000000000000000000000000000000000000000000000000000000002000000000000000000000000001b78cec62dcfdc660e06a91eb1bc966541d75800000000000000000000000021e2df86658c8ad41a05453fa5815a0d91273ee9000000000000000000000000000000000000000000000000000000000000000000000000000000000000000000000000000000000000000000000000000000000000000000000000000000000000000000000000000000000000000000000000",
            "debugEnable": true,
            "errorInfo": "",
            "eventCount": 6,
            "feeRecipient": "0x690b9a9e9aa1c9db991c7721a92d351db4fac990",
            "formatValue": "0",
            "gasLimit": 317992,
            "gasPrice": "16.13715729",
            "gasUsed": 224429,
            "intTxnCount": 11,
            "internalRevert": false,
            "internalRevertMessage": "",
            "isContractCreation": false,
            "isFlashloan": false,
            "maxFee": "21.90170571",
            "nonce": 1632,
            "overwritedBlockNumber": -1,
            "priorityFee": "0.75",
            "receiver": "0x2e307704efae244c4aae6b63b601ee8da69e92a9",
            "revertMessage": "",
            "sender": "0x88aaf4a728e14748cea5e9a3ca1306ac567ba472",
            "simulationEnable": true,
            "sourceTxnHash": "0xfa61cc4501191df9a6727bd15981ac3d02096b2aaf0b2254066a9d0a7221a2f5",
            "status": true,
            "timestamp": "2023-01-07T21:43:35Z",
            "transactionFee": "0.00362164607343741",
            "txnHash": "0xfa61cc4501191df9a6727bd15981ac3d02096b2aaf0b2254066a9d0a7221a2f5",
            "txnIndex": 113,
            "type": 2,
            "value": "0"
        },
        "fund_flow": [
            {
                "amount": "8.667139431412752843",
                "from": "0x001b78cec62dcfdc660e06a91eb1bc966541d758",
                "id": 1,
                "isERC1155": false,
                "isERC721": false,
                "isReverted": false,
                "order": 1,
                "to": "0x88aaf4a728e14748cea5e9a3ca1306ac567ba472",
                "token": "0xba100000625a3754423978a60c9317c58a424e3d"
            },
            {
                "amount": "51.918890028878779591",
                "from": "0x0000000000000000000000000000000000000000",
                "id": 2,
                "isERC1155": false,
                "isERC721": false,
                "isReverted": false,
                "order": 2,
                "to": "0x88aaf4a728e14748cea5e9a3ca1306ac567ba472",
                "token": "0xc0c293ce456ff0ed870add98a0828dd4d2903dbf"
            },
            {
                "amount": "5.754774465498019266",
                "from": "0x21e2df86658c8ad41a05453fa5815a0d91273ee9",
                "id": 3,
                "isERC1155": false,
                "isERC721": false,
                "isReverted": false,
                "order": 3,
                "to": "0x88aaf4a728e14748cea5e9a3ca1306ac567ba472",
                "token": "0xba100000625a3754423978a60c9317c58a424e3d"
            }
        ],
        "token_infos": [
            {
                "address": "0xeeeeeeeeeeeeeeeeeeeeeeeeeeeeeeeeeeeeeeee",
                "decimals": 18
            },
            {
                "address": "0xba100000625a3754423978a60c9317c58a424e3d",
                "decimals": 18
            },
            {
                "address": "0xc02aaa39b223fe8d0a0e5c4f27ead9083c756cc2",
                "decimals": 18
            },
            {
                "address": "0xc0c293ce456ff0ed870add98a0828dd4d2903dbf",
                "decimals": 18
            }
        ]
    },
    "address_label": {
        "labels": [
            {
                "address": "0x616e8bfa43f920657b3497dbf40d6b1a02d4608d",
                "label": "Aura: auraBAL Token"
            },
            {
                "address": "0x0000000000000000000000000000000000000001",
                "label": "Precompiled"
            },
            {
                "address": "0x0000000000000000000000000000000000000002",
                "label": "Precompiled"
            },
            {
                "address": "0x0000000000000000000000000000000000000004",
                "label": "Precompiled"
            },
            {
                "address": "0xeeeeeeeeeeeeeeeeeeeeeeeeeeeeeeeeeeeeeeee",
                "label": "Ether"
            },
            {
                "address": "0x2e307704efae244c4aae6b63b601ee8da69e92a9",
                "label": "Aura: Claim Zap"
            },
            {
                "address": "0xa57b8d98dae62b26ec3bcc4a365338157060b234",
                "label": "Aura: Booster"
            },
            {
                "address": "0xba100000625a3754423978a60c9317c58a424e3d",
                "label": "Balancer: BAL Token"
            },
            {
                "address": "0x21e2df86658c8ad41a05453fa5815a0d91273ee9",
                "label": "aura50rETH-50RPL-vault"
            },
            {
                "address": "0x0000000000000000000000000000000000000003",
                "label": "Precompiled"
            },
            {
                "address": "0x001b78cec62dcfdc660e06a91eb1bc966541d758",
                "label": "Aura: Base Reward rETH Stable Pool Vault"
            },
            {
                "address": "0xc0c293ce456ff0ed870add98a0828dd4d2903dbf",
                "label": "Aura (AURA)"
            }
        ]
    },
    "trace": {
        "accountLabels": null,
        "dataMap": {
            "-1": {
                "invocation": {
                    "address": "0x88aaf4a728e14748cea5e9a3ca1306ac567ba472",
                    "callData": "",
                    "decodedMethod": null,
                    "errorInfo": "",
                    "fromAddress": "",
                    "gasUsed": 0,
                    "id": -1,
                    "methodDecoded": false,
                    "operation": "",
                    "output": "",
                    "revert": false,
                    "revertMessage": "",
                    "selector": "",
                    "status": false,
                    "value": ""
                },
                "nodeType": 0
            },
            "0": {
                "invocation": {
                    "address": "0x2e307704efae244c4aae6b63b601ee8da69e92a9",
                    "callData": "0x0000000000000000000000000000000000000000000000000000000000000120000000000000000000000000000000000000000000000000000000000000018000000000000000000000000000000000000000000000000000000000000001a000000000000000000000000000000000000000000000000000000000000001c0000000000000000000000000000000000000000000000000000000000000000000000000000000000000000000000000000000000000000000000000000000000000000000000000000000000000000000000000000000000000000000000000000000000000000000000000000000000000000000000000000000000000000000000000000000000000000000000000000000000000000000000000000000000000000000000000000000000000000000000000000000000000000000000002000000000000000000000000001b78cec62dcfdc660e06a91eb1bc966541d75800000000000000000000000021e2df86658c8ad41a05453fa5815a0d91273ee9000000000000000000000000000000000000000000000000000000000000000000000000000000000000000000000000000000000000000000000000000000000000000000000000000000000000000000000000000000000000000000000000",
                    "decodedMethod": {
                        "callParams": [
                            {
                                "name": "rewardContracts",
                                "type": "address[]",
                                "value": [
                                    "0x001b78cec62dcfdc660e06a91eb1bc966541d758",
                                    "0x21e2df86658c8ad41a05453fa5815a0d91273ee9"
                                ]
                            },
                            {
                                "name": "extraRewardContracts",
                                "type": "address[]",
                                "value": []
                            },
                            {
                                "name": "tokenRewardContracts",
                                "type": "address[]",
                                "value": []
                            },
                            {
                                "name": "tokenRewardTokens",
                                "type": "address[]",
                                "value": []
                            },
                            {
                                "name": "amounts",
                                "type": "(uint256,uint256,uint256,uint256)",
                                "value": [
                                    {
                                        "name": "depositCrvMaxAmount",
                                        "type": "uint256",
                                        "value": "0"
                                    },
                                    {
                                        "name": "minAmountOut",
                                        "type": "uint256",
                                        "value": "0"
                                    },
                                    {
                                        "name": "depositCvxMaxAmount",
                                        "type": "uint256",
                                        "value": "0"
                                    },
                                    {
                                        "name": "depositCvxCrvMaxAmount",
                                        "type": "uint256",
                                        "value": "0"
                                    }
                                ]
                            },
                            {
                                "name": "options",
                                "type": "uint256",
                                "value": "0"
                            }
                        ],
                        "constructorArguments": "",
                        "name": "claimRewards",
                        "returnParams": [],
                        "signature": "claimRewards(address[],address[],address[],address[],(uint256,uint256,uint256,uint256),uint256)"
                    },
                    "errorInfo": "",
                    "fromAddress": "0x88aaf4a728e14748cea5e9a3ca1306ac567ba472",
                    "gasUsed": 224429,
                    "id": 0,
                    "methodDecoded": true,
                    "operation": "CALL",
                    "output": "",
                    "revert": false,
                    "revertMessage": "",
                    "selector": "0x479f6add",
                    "status": true,
                    "value": "0"
                },
                "nodeType": 0
            },
            "1": {
                "invocation": {
                    "address": "0xba100000625a3754423978a60c9317c58a424e3d",
                    "callData": "0x00000000000000000000000088aaf4a728e14748cea5e9a3ca1306ac567ba472",
                    "decodedMethod": {
                        "callParams": [
                            {
                                "name": "account",
                                "type": "address",
                                "value": "0x88aaf4a728e14748cea5e9a3ca1306ac567ba472"
                            }
                        ],
                        "constructorArguments": "",
                        "name": "balanceOf",
                        "returnParams": [
                            {
                                "decimalAvailable": true,
                                "name": "",
                                "type": "uint256",
                                "value": "0"
                            }
                        ],
                        "signature": "balanceOf(address)"
                    },
                    "errorInfo": "",
                    "fromAddress": "0x2e307704efae244c4aae6b63b601ee8da69e92a9",
                    "gasUsed": 2542,
                    "id": 1,
                    "methodDecoded": true,
                    "operation": "STATICCALL",
                    "output": "0x0000000000000000000000000000000000000000000000000000000000000000",
                    "revert": false,
                    "revertMessage": "",
                    "selector": "0x70a08231",
                    "status": true,
                    "value": "0"
                },
                "nodeType": 0
            },
            "10": {
                "event": {
                    "contract": "0x001b78cec62dcfdc660e06a91eb1bc966541d758",
                    "decodedLog": {
                        "name": "RewardPaid",
                        "params": [
                            {
                                "name": "user",
                                "type": "address",
                                "value": "0x88aaf4a728e14748cea5e9a3ca1306ac567ba472"
                            },
                            {
                                "name": "reward",
                                "type": "uint256",
                                "value": "8,667,139,431,412,752,843"
                            }
                        ],
                        "signature": "RewardPaid(address,uint256)"
                    },
                    "id": 10,
                    "logData": "0x0000000000000000000000000000000000000000000000007847dd64742361cb",
                    "logDecoded": true,
                    "operation": "EVENT",
                    "revert": false,
                    "status": true,
                    "topics": [
                        "0xe2403640ba68fed3a2f88b7557551d1993f84b99bb10ff833f0cf8db0c5e0486",
                        "0x00000000000000000000000088aaf4a728e14748cea5e9a3ca1306ac567ba472"
                    ]
                },
                "nodeType": 1
            },
            "11": {
                "invocation": {
                    "address": "0x21e2df86658c8ad41a05453fa5815a0d91273ee9",
                    "callData": "0x00000000000000000000000088aaf4a728e14748cea5e9a3ca1306ac567ba4720000000000000000000000000000000000000000000000000000000000000001",
                    "decodedMethod": {
                        "callParams": [
                            {
                                "name": "_account",
                                "type": "address",
                                "value": "0x88aaf4a728e14748cea5e9a3ca1306ac567ba472"
                            },
                            {
                                "name": "_claimExtras",
                                "type": "bool",
                                "value": true
                            }
                        ],
                        "constructorArguments": "",
                        "name": "getReward",
                        "returnParams": [
                            {
                                "name": "",
                                "type": "bool",
                                "value": true
                            }
                        ],
                        "signature": "getReward(address,bool)"
                    },
                    "errorInfo": "",
                    "fromAddress": "0x2e307704efae244c4aae6b63b601ee8da69e92a9",
                    "gasUsed": 79513,
                    "id": 11,
                    "methodDecoded": true,
                    "operation": "CALL",
                    "output": "0x0000000000000000000000000000000000000000000000000000000000000001",
                    "revert": false,
                    "revertMessage": "",
                    "selector": "0x7050ccd9",
                    "status": true,
                    "value": "0"
                },
                "nodeType": 0
            },
            "12": {
                "invocation": {
                    "address": "0xba100000625a3754423978a60c9317c58a424e3d",
                    "callData": "0x00000000000000000000000088aaf4a728e14748cea5e9a3ca1306ac567ba4720000000000000000000000000000000000000000000000004fdd10e2e27f75c2",
                    "decodedMethod": {
                        "callParams": [
                            {
                                "name": "recipient",
                                "type": "address",
                                "value": "0x88aaf4a728e14748cea5e9a3ca1306ac567ba472"
                            },
                            {
                                "decimalAvailable": true,
                                "name": "amount",
                                "type": "uint256",
                                "value": "5,754,774,465,498,019,266"
                            }
                        ],
                        "constructorArguments": "",
                        "name": "transfer",
                        "returnParams": [
                            {
                                "name": "",
                                "type": "bool",
                                "value": true
                            }
                        ],
                        "signature": "transfer(address,uint256)"
                    },
                    "errorInfo": "",
                    "fromAddress": "0x21e2df86658c8ad41a05453fa5815a0d91273ee9",
                    "gasUsed": 11911,
                    "id": 12,
                    "methodDecoded": true,
                    "operation": "CALL",
                    "output": "0x0000000000000000000000000000000000000000000000000000000000000001",
                    "revert": false,
                    "revertMessage": "",
                    "selector": "0xa9059cbb",
                    "status": true,
                    "value": "0"
                },
                "nodeType": 0
            },
            "13": {
                "event": {
                    "contract": "0xba100000625a3754423978a60c9317c58a424e3d",
                    "decodedLog": {
                        "name": "Transfer",
                        "params": [
                            {
                                "name": "from",
                                "type": "address",
                                "value": "0x21e2df86658c8ad41a05453fa5815a0d91273ee9"
                            },
                            {
                                "name": "to",
                                "type": "address",
                                "value": "0x88aaf4a728e14748cea5e9a3ca1306ac567ba472"
                            },
                            {
                                "decimalAvailable": true,
                                "name": "value",
                                "type": "uint256",
                                "value": "5,754,774,465,498,019,266"
                            }
                        ],
                        "signature": "Transfer(address,address,uint256)"
                    },
                    "id": 13,
                    "logData": "0x0000000000000000000000000000000000000000000000004fdd10e2e27f75c2",
                    "logDecoded": true,
                    "operation": "EVENT",
                    "revert": false,
                    "status": true,
                    "topics": [
                        "0xddf252ad1be2c89b69c2b068fc378daa952ba7f163c4a11628f55a4df523b3ef",
                        "0x00000000000000000000000021e2df86658c8ad41a05453fa5815a0d91273ee9",
                        "0x00000000000000000000000088aaf4a728e14748cea5e9a3ca1306ac567ba472"
                    ]
                },
                "nodeType": 1
            },
            "14": {
                "invocation": {
                    "address": "0xa57b8d98dae62b26ec3bcc4a365338157060b234",
                    "callData": "0x000000000000000000000000000000000000000000000000000000000000001500000000000000000000000088aaf4a728e14748cea5e9a3ca1306ac567ba4720000000000000000000000000000000000000000000000004fdd10e2e27f75c2",
                    "decodedMethod": {
                        "callParams": [
                            {
                                "name": "_pid",
                                "type": "uint256",
                                "value": "21"
                            },
                            {
                                "name": "_address",
                                "type": "address",
                                "value": "0x88aaf4a728e14748cea5e9a3ca1306ac567ba472"
                            },
                            {
                                "name": "_amount",
                                "type": "uint256",
                                "value": "5,754,774,465,498,019,266"
                            }
                        ],
                        "constructorArguments": "",
                        "name": "rewardClaimed",
                        "returnParams": [
                            {
                                "name": "",
                                "type": "bool",
                                "value": true
                            }
                        ],
                        "signature": "rewardClaimed(uint256,address,uint256)"
                    },
                    "errorInfo": "",
                    "fromAddress": "0x21e2df86658c8ad41a05453fa5815a0d91273ee9",
                    "gasUsed": 10235,
                    "id": 14,
                    "methodDecoded": true,
                    "operation": "CALL",
                    "output": "0x0000000000000000000000000000000000000000000000000000000000000001",
                    "revert": false,
                    "revertMessage": "",
                    "selector": "0x71192b17",
                    "status": true,
                    "value": "0"
                },
                "nodeType": 0
            },
            "15": {
                "invocation": {
                    "address": "0xc0c293ce456ff0ed870add98a0828dd4d2903dbf",
                    "callData": "0x00000000000000000000000088aaf4a728e14748cea5e9a3ca1306ac567ba4720000000000000000000000000000000000000000000000004fdd10e2e27f75c2",
                    "decodedMethod": {
                        "callParams": [
                            {
                                "name": "_to",
                                "type": "address",
                                "value": "0x88aaf4a728e14748cea5e9a3ca1306ac567ba472"
                            },
                            {
                                "name": "_amount",
                                "type": "uint256",
                                "value": "5,754,774,465,498,019,266"
                            }
                        ],
                        "constructorArguments": "",
                        "name": "mint",
                        "returnParams": [],
                        "signature": "mint(address,uint256)"
                    },
                    "errorInfo": "",
                    "fromAddress": "0xa57b8d98dae62b26ec3bcc4a365338157060b234",
                    "gasUsed": 4622,
                    "id": 15,
                    "methodDecoded": true,
                    "operation": "CALL",
                    "output": "",
                    "revert": false,
                    "revertMessage": "",
                    "selector": "0x40c10f19",
                    "status": true,
                    "value": "0"
                },
                "nodeType": 0
            },
            "16": {
                "event": {
                    "contract": "0xc0c293ce456ff0ed870add98a0828dd4d2903dbf",
                    "decodedLog": {
                        "name": "Transfer",
                        "params": [
                            {
                                "name": "from",
                                "type": "address",
                                "value": "0x0000000000000000000000000000000000000000"
                            },
                            {
                                "name": "to",
                                "type": "address",
                                "value": "0x88aaf4a728e14748cea5e9a3ca1306ac567ba472"
                            },
                            {
                                "decimalAvailable": true,
                                "name": "value",
                                "type": "uint256",
                                "value": "20,717,188,075,792,869,357"
                            }
                        ],
                        "signature": "Transfer(address,address,uint256)"
                    },
                    "id": 16,
                    "logData": "0x0000000000000000000000000000000000000000000000011f823cca6297a7ed",
                    "logDecoded": true,
                    "operation": "EVENT",
                    "revert": false,
                    "status": true,
                    "topics": [
                        "0xddf252ad1be2c89b69c2b068fc378daa952ba7f163c4a11628f55a4df523b3ef",
                        "0x0000000000000000000000000000000000000000000000000000000000000000",
                        "0x00000000000000000000000088aaf4a728e14748cea5e9a3ca1306ac567ba472"
                    ]
                },
                "nodeType": 1
            },
            "17": {
                "event": {
                    "contract": "0x21e2df86658c8ad41a05453fa5815a0d91273ee9",
                    "decodedLog": {
                        "name": "RewardPaid",
                        "params": [
                            {
                                "name": "user",
                                "type": "address",
                                "value": "0x88aaf4a728e14748cea5e9a3ca1306ac567ba472"
                            },
                            {
                                "name": "reward",
                                "type": "uint256",
                                "value": "5,754,774,465,498,019,266"
                            }
                        ],
                        "signature": "RewardPaid(address,uint256)"
                    },
                    "id": 17,
                    "logData": "0x0000000000000000000000000000000000000000000000004fdd10e2e27f75c2",
                    "logDecoded": true,
                    "operation": "EVENT",
                    "revert": false,
                    "status": true,
                    "topics": [
                        "0xe2403640ba68fed3a2f88b7557551d1993f84b99bb10ff833f0cf8db0c5e0486",
                        "0x00000000000000000000000088aaf4a728e14748cea5e9a3ca1306ac567ba472"
                    ]
                },
                "nodeType": 1
            },
            "2": {
                "invocation": {
                    "address": "0xc0c293ce456ff0ed870add98a0828dd4d2903dbf",
                    "callData": "0x00000000000000000000000088aaf4a728e14748cea5e9a3ca1306ac567ba472",
                    "decodedMethod": {
                        "callParams": [
                            {
                                "name": "account",
                                "type": "address",
                                "value": "0x88aaf4a728e14748cea5e9a3ca1306ac567ba472"
                            }
                        ],
                        "constructorArguments": "",
                        "name": "balanceOf",
                        "returnParams": [
                            {
                                "decimalAvailable": true,
                                "name": "",
                                "type": "uint256",
                                "value": "0"
                            }
                        ],
                        "signature": "balanceOf(address)"
                    },
                    "errorInfo": "",
                    "fromAddress": "0x2e307704efae244c4aae6b63b601ee8da69e92a9",
                    "gasUsed": 2602,
                    "id": 2,
                    "methodDecoded": true,
                    "operation": "STATICCALL",
                    "output": "0x0000000000000000000000000000000000000000000000000000000000000000",
                    "revert": false,
                    "revertMessage": "",
                    "selector": "0x70a08231",
                    "status": true,
                    "value": "0"
                },
                "nodeType": 0
            },
            "3": {
                "invocation": {
                    "address": "0x616e8bfa43f920657b3497dbf40d6b1a02d4608d",
                    "callData": "0x00000000000000000000000088aaf4a728e14748cea5e9a3ca1306ac567ba472",
                    "decodedMethod": {
                        "callParams": [
                            {
                                "name": "account",
                                "type": "address",
                                "value": "0x88aaf4a728e14748cea5e9a3ca1306ac567ba472"
                            }
                        ],
                        "constructorArguments": "",
                        "name": "balanceOf",
                        "returnParams": [
                            {
                                "decimalAvailable": true,
                                "name": "",
                                "type": "uint256",
                                "value": "0"
                            }
                        ],
                        "signature": "balanceOf(address)"
                    },
                    "errorInfo": "",
                    "fromAddress": "0x2e307704efae244c4aae6b63b601ee8da69e92a9",
                    "gasUsed": 2490,
                    "id": 3,
                    "methodDecoded": true,
                    "operation": "STATICCALL",
                    "output": "0x0000000000000000000000000000000000000000000000000000000000000000",
                    "revert": false,
                    "revertMessage": "",
                    "selector": "0x70a08231",
                    "status": true,
                    "value": "0"
                },
                "nodeType": 0
            },
            "4": {
                "invocation": {
                    "address": "0x001b78cec62dcfdc660e06a91eb1bc966541d758",
                    "callData": "0x00000000000000000000000088aaf4a728e14748cea5e9a3ca1306ac567ba4720000000000000000000000000000000000000000000000000000000000000001",
                    "decodedMethod": {
                        "callParams": [
                            {
                                "name": "_account",
                                "type": "address",
                                "value": "0x88aaf4a728e14748cea5e9a3ca1306ac567ba472"
                            },
                            {
                                "name": "_claimExtras",
                                "type": "bool",
                                "value": true
                            }
                        ],
                        "constructorArguments": "",
                        "name": "getReward",
                        "returnParams": [
                            {
                                "name": "",
                                "type": "bool",
                                "value": true
                            }
                        ],
                        "signature": "getReward(address,bool)"
                    },
                    "errorInfo": "",
                    "fromAddress": "0x2e307704efae244c4aae6b63b601ee8da69e92a9",
                    "gasUsed": 136613,
                    "id": 4,
                    "methodDecoded": true,
                    "operation": "CALL",
                    "output": "0x0000000000000000000000000000000000000000000000000000000000000001",
                    "revert": false,
                    "revertMessage": "",
                    "selector": "0x7050ccd9",
                    "status": true,
                    "value": "0"
                },
                "nodeType": 0
            },
            "5": {
                "invocation": {
                    "address": "0xba100000625a3754423978a60c9317c58a424e3d",
                    "callData": "0x00000000000000000000000088aaf4a728e14748cea5e9a3ca1306ac567ba4720000000000000000000000000000000000000000000000007847dd64742361cb",
                    "decodedMethod": {
                        "callParams": [
                            {
                                "name": "recipient",
                                "type": "address",
                                "value": "0x88aaf4a728e14748cea5e9a3ca1306ac567ba472"
                            },
                            {
                                "decimalAvailable": true,
                                "name": "amount",
                                "type": "uint256",
                                "value": "8,667,139,431,412,752,843"
                            }
                        ],
                        "constructorArguments": "",
                        "name": "transfer",
                        "returnParams": [
                            {
                                "name": "",
                                "type": "bool",
                                "value": true
                            }
                        ],
                        "signature": "transfer(address,uint256)"
                    },
                    "errorInfo": "",
                    "fromAddress": "0x001b78cec62dcfdc660e06a91eb1bc966541d758",
                    "gasUsed": 35811,
                    "id": 5,
                    "methodDecoded": true,
                    "operation": "CALL",
                    "output": "0x0000000000000000000000000000000000000000000000000000000000000001",
                    "revert": false,
                    "revertMessage": "",
                    "selector": "0xa9059cbb",
                    "status": true,
                    "value": "0"
                },
                "nodeType": 0
            },
            "6": {
                "event": {
                    "contract": "0xba100000625a3754423978a60c9317c58a424e3d",
                    "decodedLog": {
                        "name": "Transfer",
                        "params": [
                            {
                                "name": "from",
                                "type": "address",
                                "value": "0x001b78cec62dcfdc660e06a91eb1bc966541d758"
                            },
                            {
                                "name": "to",
                                "type": "address",
                                "value": "0x88aaf4a728e14748cea5e9a3ca1306ac567ba472"
                            },
                            {
                                "decimalAvailable": true,
                                "name": "value",
                                "type": "uint256",
                                "value": "8,667,139,431,412,752,843"
                            }
                        ],
                        "signature": "Transfer(address,address,uint256)"
                    },
                    "id": 6,
                    "logData": "0x0000000000000000000000000000000000000000000000007847dd64742361cb",
                    "logDecoded": true,
                    "operation": "EVENT",
                    "revert": false,
                    "status": true,
                    "topics": [
                        "0xddf252ad1be2c89b69c2b068fc378daa952ba7f163c4a11628f55a4df523b3ef",
                        "0x000000000000000000000000001b78cec62dcfdc660e06a91eb1bc966541d758",
                        "0x00000000000000000000000088aaf4a728e14748cea5e9a3ca1306ac567ba472"
                    ]
                },
                "nodeType": 1
            },
            "7": {
                "invocation": {
                    "address": "0xa57b8d98dae62b26ec3bcc4a365338157060b234",
                    "callData": "0x000000000000000000000000000000000000000000000000000000000000000f00000000000000000000000088aaf4a728e14748cea5e9a3ca1306ac567ba4720000000000000000000000000000000000000000000000007847dd64742361cb",
                    "decodedMethod": {
                        "callParams": [
                            {
                                "name": "_pid",
                                "type": "uint256",
                                "value": "15"
                            },
                            {
                                "name": "_address",
                                "type": "address",
                                "value": "0x88aaf4a728e14748cea5e9a3ca1306ac567ba472"
                            },
                            {
                                "name": "_amount",
                                "type": "uint256",
                                "value": "8,667,139,431,412,752,843"
                            }
                        ],
                        "constructorArguments": "",
                        "name": "rewardClaimed",
                        "returnParams": [
                            {
                                "name": "",
                                "type": "bool",
                                "value": true
                            }
                        ],
                        "signature": "rewardClaimed(uint256,address,uint256)"
                    },
                    "errorInfo": "",
                    "fromAddress": "0x001b78cec62dcfdc660e06a91eb1bc966541d758",
                    "gasUsed": 40935,
                    "id": 7,
                    "methodDecoded": true,
                    "operation": "CALL",
                    "output": "0x0000000000000000000000000000000000000000000000000000000000000001",
                    "revert": false,
                    "revertMessage": "",
                    "selector": "0x71192b17",
                    "status": true,
                    "value": "0"
                },
                "nodeType": 0
            },
            "8": {
                "invocation": {
                    "address": "0xc0c293ce456ff0ed870add98a0828dd4d2903dbf",
                    "callData": "0x00000000000000000000000088aaf4a728e14748cea5e9a3ca1306ac567ba4720000000000000000000000000000000000000000000000007847dd64742361cb",
                    "decodedMethod": {
                        "callParams": [
                            {
                                "name": "_to",
                                "type": "address",
                                "value": "0x88aaf4a728e14748cea5e9a3ca1306ac567ba472"
                            },
                            {
                                "name": "_amount",
                                "type": "uint256",
                                "value": "8,667,139,431,412,752,843"
                            }
                        ],
                        "constructorArguments": "",
                        "name": "mint",
                        "returnParams": [],
                        "signature": "mint(address,uint256)"
                    },
                    "errorInfo": "",
                    "fromAddress": "0xa57b8d98dae62b26ec3bcc4a365338157060b234",
                    "gasUsed": 33322,
                    "id": 8,
                    "methodDecoded": true,
                    "operation": "CALL",
                    "output": "",
                    "revert": false,
                    "revertMessage": "",
                    "selector": "0x40c10f19",
                    "status": true,
                    "value": "0"
                },
                "nodeType": 0
            },
            "9": {
                "event": {
                    "contract": "0xc0c293ce456ff0ed870add98a0828dd4d2903dbf",
                    "decodedLog": {
                        "name": "Transfer",
                        "params": [
                            {
                                "name": "from",
                                "type": "address",
                                "value": "0x0000000000000000000000000000000000000000"
                            },
                            {
                                "name": "to",
                                "type": "address",
                                "value": "0x88aaf4a728e14748cea5e9a3ca1306ac567ba472"
                            },
                            {
                                "decimalAvailable": true,
                                "name": "value",
                                "type": "uint256",
                                "value": "31,201,701,953,085,910,234"
                            }
                        ],
                        "signature": "Transfer(address,address,uint256)"
                    },
                    "id": 9,
                    "logData": "0x000000000000000000000000000000000000000000000001b102b69cd54c2cda",
                    "logDecoded": true,
                    "operation": "EVENT",
                    "revert": false,
                    "status": true,
                    "topics": [
                        "0xddf252ad1be2c89b69c2b068fc378daa952ba7f163c4a11628f55a4df523b3ef",
                        "0x0000000000000000000000000000000000000000000000000000000000000000",
                        "0x00000000000000000000000088aaf4a728e14748cea5e9a3ca1306ac567ba472"
                    ]
                },
                "nodeType": 1
            }
        },
        "gasFlame": [
            {
                "children": [
                    {
                        "children": [
                            {
                                "children": [],
                                "depth": 0,
                                "name": "Initial Gas",
                                "value": 23560
                            },
                            {
                                "children": [
                                    {
                                        "children": [],
                                        "depth": 1,
                                        "name": "balanceOf",
                                        "value": 2542
                                    },
                                    {
                                        "children": [],
                                        "depth": 1,
                                        "name": "balanceOf",
                                        "value": 2602
                                    },
                                    {
                                        "children": [],
                                        "depth": 1,
                                        "name": "balanceOf",
                                        "value": 2490
                                    },
                                    {
                                        "children": [
                                            {
                                                "children": [],
                                                "depth": 2,
                                                "name": "transfer",
                                                "value": 35811
                                            },
                                            {
                                                "children": [
                                                    {
                                                        "children": [],
                                                        "depth": 3,
                                                        "name": "mint",
                                                        "value": 33322
                                                    }
                                                ],
                                                "depth": 2,
                                                "name": "rewardClaimed",
                                                "value": 40935
                                            }
                                        ],
                                        "depth": 1,
                                        "name": "getReward",
                                        "value": 136613
                                    },
                                    {
                                        "children": [
                                            {
                                                "children": [],
                                                "depth": 2,
                                                "name": "transfer",
                                                "value": 11911
                                            },
                                            {
                                                "children": [
                                                    {
                                                        "children": [],
                                                        "depth": 3,
                                                        "name": "mint",
                                                        "value": 4622
                                                    }
                                                ],
                                                "depth": 2,
                                                "name": "rewardClaimed",
                                                "value": 10235
                                            }
                                        ],
                                        "depth": 1,
                                        "name": "getReward",
                                        "value": 79513
                                    }
                                ],
                                "depth": 0,
                                "name": "Executed Gas",
                                "value": 240669
                            }
                        ],
                        "depth": -1,
                        "name": "Actual Gas Used",
                        "value": 224429
                    },
                    {
                        "children": [],
                        "depth": -1,
                        "name": "Refunded Gas",
                        "value": 39800
                    }
                ],
                "depth": -2,
                "name": "Total Gas",
                "value": 264229
            }
        ],
        "isConfirmed": true,
        "mainTrace": [
            {
                "children": [
                    {
                        "children": [
                            {
                                "children": [],
                                "depth": 1,
                                "id": 1,
                                "order": 1
                            },
                            {
                                "children": [],
                                "depth": 1,
                                "id": 2,
                                "order": 2
                            },
                            {
                                "children": [],
                                "depth": 1,
                                "id": 3,
                                "order": 3
                            },
                            {
                                "children": [
                                    {
                                        "children": [
                                            {
                                                "children": [],
                                                "depth": 3,
                                                "id": 6,
                                                "order": 6
                                            }
                                        ],
                                        "depth": 2,
                                        "id": 5,
                                        "order": 5
                                    },
                                    {
                                        "children": [
                                            {
                                                "children": [
                                                    {
                                                        "children": [],
                                                        "depth": 4,
                                                        "id": 9,
                                                        "order": 9
                                                    }
                                                ],
                                                "depth": 3,
                                                "id": 8,
                                                "order": 8
                                            }
                                        ],
                                        "depth": 2,
                                        "id": 7,
                                        "order": 7
                                    },
                                    {
                                        "children": [],
                                        "depth": 2,
                                        "id": 10,
                                        "order": 10
                                    }
                                ],
                                "depth": 1,
                                "id": 4,
                                "order": 4
                            },
                            {
                                "children": [
                                    {
                                        "children": [
                                            {
                                                "children": [],
                                                "depth": 3,
                                                "id": 13,
                                                "order": 13
                                            }
                                        ],
                                        "depth": 2,
                                        "id": 12,
                                        "order": 12
                                    },
                                    {
                                        "children": [
                                            {
                                                "children": [
                                                    {
                                                        "children": [],
                                                        "depth": 4,
                                                        "id": 16,
                                                        "order": 16
                                                    }
                                                ],
                                                "depth": 3,
                                                "id": 15,
                                                "order": 15
                                            }
                                        ],
                                        "depth": 2,
                                        "id": 14,
                                        "order": 14
                                    },
                                    {
                                        "children": [],
                                        "depth": 2,
                                        "id": 17,
                                        "order": 17
                                    }
                                ],
                                "depth": 1,
                                "id": 11,
                                "order": 11
                            }
                        ],
                        "depth": 0,
                        "id": 0,
                        "order": 0
                    }
                ],
                "depth": -1,
                "id": -1,
                "order": -1
            }
        ],
        "mainTraceNodeCount": 18,
        "parentIdMap": {
            "0": -1,
            "1": 0,
            "10": 4,
            "11": 0,
            "12": 11,
            "13": 12,
            "14": 11,
            "15": 14,
            "16": 15,
            "17": 11,
            "2": 0,
            "3": 0,
            "4": 0,
            "5": 4,
            "6": 5,
            "7": 4,
            "8": 7,
            "9": 8
        },
        "tidyTrace": [
            {
                "children": [
                    {
                        "children": [
                            {
                                "children": [
                                    {
                                        "children": [
                                            {
                                                "children": [],
                                                "depth": 3,
                                                "id": 6,
                                                "order": 6
                                            }
                                        ],
                                        "depth": 2,
                                        "id": 5,
                                        "order": 5
                                    },
                                    {
                                        "children": [
                                            {
                                                "children": [
                                                    {
                                                        "children": [],
                                                        "depth": 4,
                                                        "id": 9,
                                                        "order": 9
                                                    }
                                                ],
                                                "depth": 3,
                                                "id": 8,
                                                "order": 8
                                            }
                                        ],
                                        "depth": 2,
                                        "id": 7,
                                        "order": 7
                                    },
                                    {
                                        "children": [],
                                        "depth": 2,
                                        "id": 10,
                                        "order": 10
                                    }
                                ],
                                "depth": 1,
                                "id": 4,
                                "order": 4
                            },
                            {
                                "children": [
                                    {
                                        "children": [
                                            {
                                                "children": [],
                                                "depth": 3,
                                                "id": 13,
                                                "order": 13
                                            }
                                        ],
                                        "depth": 2,
                                        "id": 12,
                                        "order": 12
                                    },
                                    {
                                        "children": [
                                            {
                                                "children": [
                                                    {
                                                        "children": [],
                                                        "depth": 4,
                                                        "id": 16,
                                                        "order": 16
                                                    }
                                                ],
                                                "depth": 3,
                                                "id": 15,
                                                "order": 15
                                            }
                                        ],
                                        "depth": 2,
                                        "id": 14,
                                        "order": 14
                                    },
                                    {
                                        "children": [],
                                        "depth": 2,
                                        "id": 17,
                                        "order": 17
                                    }
                                ],
                                "depth": 1,
                                "id": 11,
                                "order": 11
                            }
                        ],
                        "depth": 0,
                        "id": 0,
                        "order": 0
                    }
                ],
                "depth": -1,
                "id": -1,
                "order": -1
            }
        ],
        "tidyTraceNodeCount": 15
    },
    "state_change": {
        "stateChanges": [
            {
                "address": "0x001b78cec62dcfdc660e06a91eb1bc966541d758",
                "erc": "ERC-20",
                "slots": [
                    {
                        "current": "0x000000000000000000000000000000000000000000000000094fa9b06bfabf37",
                        "key": "0x0000000000000000000000000000000000000000000000000000000000000003",
                        "prev": "0x000000000000000000000000000000000000000000000000093ac3348932c4ed"
                    },
                    {
                        "current": "0x0000000000000000000000000000000000000000000000000000000063b9e787",
                        "key": "0x0000000000000000000000000000000000000000000000000000000000000002",
                        "prev": "0x0000000000000000000000000000000000000000000000000000000063b98a9f"
                    },
                    {
                        "current": "0x000000000000000000000000000000000000000000000000094fa9b06bfabf37",
                        "key": "0x6840cfe4bc355e48d5730038f87f5bb5483b9bf0ca813842a3b30b2a0f5d0859",
                        "prev": "0x000000000000000000000000000000000000000000000000047d49e08e5636dd"
                    }
                ],
                "storageVariables": [
                    {
                        "name": "rewardPerTokenStored",
                        "type": "uint256",
                        "value": {
                            "current": "670941444692426551",
                            "prev": "665058525398090989",
                            "typeTag": 1
                        }
                    },
                    {
                        "name": "lastUpdateTime",
                        "type": "uint256",
                        "value": {
                            "current": "1673127815",
                            "prev": "1673104031",
                            "typeTag": 1
                        }
                    },
                    {
                        "name": "userRewardPerTokenPaid",
                        "type": "mapping(address => uint256)",
                        "value": {
                            "pairs": [
                                {
                                    "key": "0x88aaf4a728e14748cea5e9a3ca1306ac567ba472",
                                    "value": {
                                        "current": "670941444692426551",
                                        "prev": "323495977050060509",
                                        "typeTag": 1
                                    }
                                }
                            ],
                            "typeTag": 4
                        }
                    }
                ]
            },
            {
                "address": "0x21e2df86658c8ad41a05453fa5815a0d91273ee9",
                "erc": "",
                "slots": [
                    {
                        "current": "0x00000000000000000000000000000000000000000000000001325b1f0a051ad3",
                        "key": "0x0000000000000000000000000000000000000000000000000000000000000003",
                        "prev": "0x000000000000000000000000000000000000000000000000012bf541b02c0874"
                    },
                    {
                        "current": "0x0000000000000000000000000000000000000000000000000000000063b9e787",
                        "key": "0x0000000000000000000000000000000000000000000000000000000000000002",
                        "prev": "0x0000000000000000000000000000000000000000000000000000000063b8f73f"
                    },
                    {
                        "current": "0x00000000000000000000000000000000000000000000000001325b1f0a051ad3",
                        "key": "0x6840cfe4bc355e48d5730038f87f5bb5483b9bf0ca813842a3b30b2a0f5d0859",
                        "prev": "0x00000000000000000000000000000000000000000000000000aafd5d3fe51a91"
                    }
                ],
                "storageVariables": []
            },
            {
                "address": "0xba100000625a3754423978a60c9317c58a424e3d",
                "erc": "ERC-20",
                "slots": [
                    {
                        "current": "0x000000000000000000000000000000000000000000000000c824ee4756a2d78d",
                        "key": "0x1af4b31d5b4a71feb880b794afe3a7d2387ef498e9302b08e2c7a932d8b46c4f",
                        "prev": "0x0000000000000000000000000000000000000000000000000000000000000000"
                    },
                    {
                        "current": "0x0000000000000000000000000000000000000000000000637db95218e7d3453f",
                        "key": "0xbc42f1b3929ac070294c9876186ca72c8fa2060e5df4da55aea149a470d797b6",
                        "prev": "0x000000000000000000000000000000000000000000000063cd9662fbca52bb01"
                    },
                    {
                        "current": "0x0000000000000000000000000000000000000000000002719bc8e1f8967bc32c",
                        "key": "0x8ec8df1fe0686e00ae8176e120b9dbddaf21f208d45f22762a139bea70320231",
                        "prev": "0x0000000000000000000000000000000000000000000002721410bf5d0a9f24f7"
                    }
                ],
                "storageVariables": [
                    {
                        "name": "_balances",
                        "type": "mapping(address => uint256)",
                        "value": {
                            "pairs": [
                                {
                                    "key": "0x001b78cec62dcfdc660e06a91eb1bc966541d758",
                                    "value": {
                                        "current": "11540440516597483553580",
                                        "prev": "11549107656028896306423",
                                        "typeTag": 1
                                    }
                                },
                                {
                                    "key": "0x21e2df86658c8ad41a05453fa5815a0d91273ee9",
                                    "value": {
                                        "current": "1835287025689600148799",
                                        "prev": "1841041800155098168065",
                                        "typeTag": 1
                                    }
                                },
                                {
                                    "key": "0x88aaf4a728e14748cea5e9a3ca1306ac567ba472",
                                    "value": {
                                        "current": "14421913896910772109",
                                        "prev": "0",
                                        "typeTag": 1
                                    }
                                }
                            ],
                            "typeTag": 4
                        }
                    }
                ]
            },
            {
                "address": "0xc0c293ce456ff0ed870add98a0828dd4d2903dbf",
                "erc": "ERC-20",
                "slots": [
                    {
                        "current": "0x0000000000000000000000000000000000000000002e5f6ed7689cc0ade8e83b",
                        "key": "0x0000000000000000000000000000000000000000000000000000000000000002",
                        "prev": "0x0000000000000000000000000000000000000000002e5f6c06e3a95976051374"
                    },
                    {
                        "current": "0x000000000000000000000000000000000000000000000002d084f36737e3d4c7",
                        "key": "0xb851d7c29f16437fdc2d030b371c0ea059663d743a46ea0baccb96ee58e5c971",
                        "prev": "0x0000000000000000000000000000000000000000000000000000000000000000"
                    }
                ],
                "storageVariables": [
                    {
                        "name": "_totalSupply",
                        "type": "uint256",
                        "value": {
                            "current": "56061257181822133480253499",
                            "prev": "56061205262932104601473908",
                            "typeTag": 1
                        }
                    },
                    {
                        "name": "_balances",
                        "type": "mapping(address => uint256)",
                        "value": {
                            "pairs": [
                                {
                                    "key": "0x88aaf4a728e14748cea5e9a3ca1306ac567ba472",
                                    "value": {
                                        "current": "51918890028878779591",
                                        "prev": "0",
                                        "typeTag": 1
                                    }
                                }
                            ],
                            "typeTag": 4
                        }
                    }
                ]
            }
        ]
    }
}