{
    "balance_change": {
        "balanceChanges": [
            {
                "account": "0xf91967b8f084de85c6785e4ea6b3540a7b3ad64d",
                "assets": [
                    {
                        "address": "0x7a271d1df2c3f2fef734611c6c7ee6b9b8439204",
                        "amount": "212",
                        "iconUrl": "",
                        "isERC1155": false,
                        "isERC721": false,
                        "sign": false,
                        "value": ""
                    }
                ]
            },
            {
                "account": "0x01ab033593bd587b051978124b9efafd4563d6ff",
                "assets": [
                    {
                        "address": "0x7a271d1df2c3f2fef734611c6c7ee6b9b8439204",
                        "amount": "212",
                        "iconUrl": "",
                        "isERC1155": false,
                        "isERC721": false,
                        "sign": true,
                        "value": ""
                    }
                ]
            }
        ]
    },
    "profile": {
        "basic_info": {
            "baseFee": "",
            "blockNumber": 8606744,
            "callData": "0xa9059cbb00000000000000000000000001ab033593bd587b051978124b9efafd4563d6ff00000000000000000000000000000000000000000000000000000004ef9e5400",
            "debugEnable": true,
            "errorInfo": "",
            "eventCount": 1,
            "feeRecipient": "0xea674fdde714fd979de3edf0f56aa9716b898ec8",
            "formatValue": "0",
            "gasLimit": 200000,
            "gasPrice": "22.5",
            "gasUsed": 36452,
            "intTxnCount": 0,
            "internalRevert": false,
            "internalRevertMessage": "",
            "isContractCreation": false,
            "isFlashloan": false,
            "maxFee": "",
            "nonce": 77804,
            "overwritedBlockNumber": -1,
            "priorityFee": "",
            "receiver": "0x7a271d1df2c3f2fef734611c6c7ee6b9b8439204",
            "revertMessage": "",
            "sender": "0xf91967b8f084de85c6785e4ea6b3540a7b3ad64d",
            "simulationEnable": true,
            "sourceTxnHash": "0xfafd292e05234a4561d759ba561a996e8681700acde94556c6227c88006681cd",
            "status": true,
            "timestamp": "2019-09-23T17:23:37Z",
            "transactionFee": "0.00082017",
            "txnHash": "0xfafd292e05234a4561d759ba561a996e8681700acde94556c6227c88006681cd",
            "txnIndex": 96,
            "type": 0,
            "value": "0"
        },
        "fund_flow": [
            {
                "amount": "212",
                "from": "0xf91967b8f084de85c6785e4ea6b3540a7b3ad64d",
                "id": 1,
                "isERC1155": false,
                "isERC721": false,
                "isReverted": false,
                "order": 1,
                "to": "0x01ab033593bd587b051978124b9efafd4563d6ff",
                "token": "0x7a271d1df2c3f2fef734611c6c7ee6b9b8439204"
            }
        ],
        "token_infos": [
            {
                "address": "0x7a271d1df2c3f2fef734611c6c7ee6b9b8439204",
                "decimals": 8
            },
            {
                "address": "0xc02aaa39b223fe8d0a0e5c4f27ead9083c756cc2",
                "decimals": 18
            },
            {
                "address": "0xeeeeeeeeeeeeeeeeeeeeeeeeeeeeeeeeeeeeeeee",
                "decimals": 18
            }
        ]
    },
    "address_label": {
        "labels": [
            {
                "address": "0x0000000000000000000000000000000000000004",
                "label": "Precompiled"
            },
            {
                "address": "0xeeeeeeeeeeeeeeeeeeeeeeeeeeeeeeeeeeeeeeee",
                "label": "Ether"
            },
            {
                "address": "0x7a271d1df2c3f2fef734611c6c7ee6b9b8439204",
                "label": "EXX Token (ET)"
            },
            {
                "address": "0x01ab033593bd587b051978124b9efafd4563d6ff",
                "label": "ZB.COM"
            },
            {
                "address": "0x0000000000000000000000000000000000000001",
                "label": "Precompiled"
            },
            {
                "address": "0x0000000000000000000000000000000000000002",
                "label": "Precompiled"
            },
            {
                "address": "0x0000000000000000000000000000000000000003",
                "label": "Precompiled"
            }
        ]
    },
    "trace": {
        "accountLabels": null,
        "dataMap": {
            "-1": {
                "invocation": {
                    "address": "0xf91967b8f084de85c6785e4ea6b3540a7b3ad64d",
                    "callData": "",
                    "decodedMethod": null,
                    "errorInfo": "",
                    "fromAddress": "",
                    "gasUsed": 0,
                    "id": -1,
                    "methodDecoded": false,
                    "operation": "",
                    "output": "",
                    "revert": false,
                    "revertMessage": "",
                    "selector": "",
                    "status": false,
                    "value": ""
                },
                "nodeType": 0
            },
            "0": {
                "invocation": {
                    "address": "0x7a271d1df2c3f2fef734611c6c7ee6b9b8439204",
                    "callData": "0x00000000000000000000000001ab033593bd587b051978124b9efafd4563d6ff00000000000000000000000000000000000000000000000000000004ef9e5400",
                    "decodedMethod": {
                        "callParams": [
                            {
                                "name": "_to",
                                "type": "address",
                                "value": "0x01ab033593bd587b051978124b9efafd4563d6ff"
                            },
                            {
                                "decimalAvailable": true,
                                "name": "_value",
                                "type": "uint256",
                                "value": "21,200,000,000"
                            }
                        ],
                        "constructorArguments": "",
                        "name": "transfer",
                        "returnParams": [
                            {
                                "name": "",
                                "type": "bool",
                                "value": true
                            }
                        ],
                        "signature": "transfer(address,uint256)"
                    },
                    "errorInfo": "",
                    "fromAddress": "0xf91967b8f084de85c6785e4ea6b3540a7b3ad64d",
                    "gasUsed": 36452,
                    "id": 0,
                    "methodDecoded": true,
                    "operation": "CALL",
                    "output": "0x0000000000000000000000000000000000000000000000000000000000000001",
                    "revert": false,
                    "revertMessage": "",
                    "selector": "0xa9059cbb",
                    "status": true,
                    "value": "0"
                },
                "nodeType": 0
            },
            "1": {
                "event": {
                    "contract": "0x7a271d1df2c3f2fef734611c6c7ee6b9b8439204",
                    "decodedLog": {
                        "name": "Transfer",
                        "params": [
                            {
                                "name": "from",
                                "type": "address",
                                "value": "0xf91967b8f084de85c6785e4ea6b3540a7b3ad64d"
                            },
                            {
                                "name": "to",
                                "type": "address",
                                "value": "0x01ab033593bd587b051978124b9efafd4563d6ff"
                            },
                            {
                                "decimalAvailable": true,
                                "name": "value",
                                "type": "uint256",
                                "value": "21,200,000,000"
                            }
                        ],
                        "signature": "Transfer(address,address,uint256)"
                    },
                    "id": 1,
                    "logData": "0x00000000000000000000000000000000000000000000000000000004ef9e5400",
                    "logDecoded": true,
                    "operation": "EVENT",
                    "revert": false,
                    "status": true,
                    "topics": [
                        "0xddf252ad1be2c89b69c2b068fc378daa952ba7f163c4a11628f55a4df523b3ef",
                        "0x000000000000000000000000f91967b8f084de85c6785e4ea6b3540a7b3ad64d",
                        "0x00000000000000000000000001ab033593bd587b051978124b9efafd4563d6ff"
                    ]
                },
                "nodeType": 1
            }
        },
        "gasFlame": [
            {
                "children": [
                    {
                        "children": [
                            {
                                "children": [],
                                "depth": 0,
                                "name": "Initial Gas",
                                "value": 23064
                            },
                            {
                                "children": [],
                                "depth": 0,
                                "name": "Executed Gas",
                                "value": 13388
                            }
                        ],
                        "depth": -1,
                        "name": "Actual Gas Used",
                        "value": 36452
                    },
                    {
                        "children": [],
                        "depth": -1,
                        "name": "Refunded Gas",
                        "value": 0
                    }
                ],
                "depth": -2,
                "name": "Total Gas",
                "value": 36452
            }
        ],
        "isConfirmed": true,
        "mainTrace": [
            {
                "children": [
                    {
                        "children": [
                            {
                                "children": [],
                                "depth": 1,
                                "id": 1,
                                "order": 1
                            }
                        ],
                        "depth": 0,
                        "id": 0,
                        "order": 0
                    }
                ],
                "depth": -1,
                "id": -1,
                "order": -1
            }
        ],
        "mainTraceNodeCount": 2,
        "parentIdMap": {
            "0": -1,
            "1": 0
        },
        "tidyTrace": [
            {
                "children": [
                    {
                        "children": [
                            {
                                "children": [],
                                "depth": 1,
                                "id": 1,
                                "order": 1
                            }
                        ],
                        "depth": 0,
                        "id": 0,
                        "order": 0
                    }
                ],
                "depth": -1,
                "id": -1,
                "order": -1
            }
        ],
        "tidyTraceNodeCount": 2
    },
    "state_change": {
        "stateChanges": [
            {
                "address": "0x7a271d1df2c3f2fef734611c6c7ee6b9b8439204",
                "erc": "ERC-20",
                "slots": [
                    {
                        "current": "0x00000000000000000000000000000000000000000000000000680be7c39c3988",
                        "key": "0x490ff0539b417fa717e5b1bc78e7cd8d6f9e1361c8afaf27dc1cf87e2ad3f0ac",
                        "prev": "0x00000000000000000000000000000000000000000000000000680becb33a8d88"
                    },
                    {
                        "current": "0x00000000000000000000000000000000000000000000000000000009af8da000",
                        "key": "0x6c905084b22d1ded42f77c313ca89302c64f89329491bd01c0735d7932e564d7",
                        "prev": "0x00000000000000000000000000000000000000000000000000000004bfef4c00"
                    }
                ],
                "storageVariables": [
                    {
                        "name": "balances",
                        "type": "mapping(address => uint256)",
                        "value": {
                            "pairs": [
                                {
                                    "key": "0x01ab033593bd587b051978124b9efafd4563d6ff",
                                    "value": {
                                        "current": "41600000000",
                                        "prev": "20400000000",
                                        "typeTag": 1
                                    }
                                },
                                {
                                    "key": "0xf91967b8f084de85c6785e4ea6b3540a7b3ad64d",
                                    "value": {
                                        "current": "29286487625054600",
                                        "prev": "29286508825054600",
                                        "typeTag": 1
                                    }
                                }
                            ],
                            "typeTag": 4
                        }
                    }
                ]
            }
        ]
    }
}