{
    "balance_change": {
        "balanceChanges": [
            {
                "account": "0x281145ab180a8b440397886c92138dfbedacb4d7",
                "assets": [
                    {
                        "address": "0xeeeeeeeeeeeeeeeeeeeeeeeeeeeeeeeeeeeeeeee",
                        "amount": "0.01244094488188976",
                        "iconUrl": "https://assets.blocksec.com/image/1663669189317-3.png",
                        "isERC1155": false,
                        "isERC721": false,
                        "sign": false,
                        "value": "13.987851966379198982"
                    }
                ]
            },
            {
                "account": "0x4b5057b2c87ec9e7c047fb00c0e406dff2fdacad",
                "assets": [
                    {
                        "address": "0xeeeeeeeeeeeeeeeeeeeeeeeeeeeeeeeeeeeeeeee",
                        "amount": "0.01244094488188976",
                        "iconUrl": "https://assets.blocksec.com/image/1663669189317-3.png",
                        "isERC1155": false,
                        "isERC721": false,
                        "sign": true,
                        "value": "13.987851966379198982"
                    }
                ]
            }
        ]
    },
    "profile": {
        "basic_info": {
            "baseFee": "36.040299551",
            "blockNumber": 16025913,
            "callData": "0xc290d6910000000000000000000000000000000000000000000000000000000000000001",
            "debugEnable": true,
            "errorInfo": "",
            "eventCount": 2,
            "feeRecipient": "0x473780deaf4a2ac070bbba936b0cdefe7f267dfc",
            "formatValue": "0.0155511811023622",
            "gasLimit": 142362,
            "gasPrice": "37.540299551",
            "gasUsed": 138481,
            "intTxnCount": 3,
            "internalRevert": false,
            "internalRevertMessage": "",
            "isContractCreation": false,
            "isFlashloan": false,
            "maxFee": "53.596786873",
            "nonce": 48,
            "overwritedBlockNumber": -1,
            "priorityFee": "1.5",
            "receiver": "0xc549d87e9cea28961927436a2b7d6944f7ca86eb",
            "revertMessage": "",
            "sender": "0x281145ab180a8b440397886c92138dfbedacb4d7",
            "simulationEnable": true,
            "sourceTxnHash": "0xfb9ad96207a81474d035a4dd69ac88ee29631508ab94a03f3dd6a6b94c2c163a",
            "status": true,
            "timestamp": "2022-11-22T13:42:11Z",
            "transactionFee": "0.005198618222122031",
            "txnHash": "0xfb9ad96207a81474d035a4dd69ac88ee29631508ab94a03f3dd6a6b94c2c163a",
            "txnIndex": 87,
            "type": 2,
            "value": "15551181102362200"
        },
        "fund_flow": [
            {
                "amount": "0.0155511811023622",
                "from": "0x281145ab180a8b440397886c92138dfbedacb4d7",
                "id": 1,
                "isERC1155": false,
                "isERC721": false,
                "isReverted": false,
                "order": 1,
                "to": "0xc549d87e9cea28961927436a2b7d6944f7ca86eb",
                "token": "0xeeeeeeeeeeeeeeeeeeeeeeeeeeeeeeeeeeeeeeee"
            },
            {
                "amount": "0.01244094488188976",
                "from": "0xc549d87e9cea28961927436a2b7d6944f7ca86eb",
                "id": 2,
                "isERC1155": false,
                "isERC721": false,
                "isReverted": false,
                "order": 2,
                "to": "0x4b5057b2c87ec9e7c047fb00c0e406dff2fdacad",
                "token": "0xeeeeeeeeeeeeeeeeeeeeeeeeeeeeeeeeeeeeeeee"
            },
            {
                "amount": "0.00311023622047244",
                "from": "0xc549d87e9cea28961927436a2b7d6944f7ca86eb",
                "id": 3,
                "isERC1155": false,
                "isERC721": false,
                "isReverted": false,
                "order": 3,
                "to": "0x281145ab180a8b440397886c92138dfbedacb4d7",
                "token": "0xeeeeeeeeeeeeeeeeeeeeeeeeeeeeeeeeeeeeeeee"
            }
        ],
        "token_infos": [
            {
                "address": "0xc02aaa39b223fe8d0a0e5c4f27ead9083c756cc2",
                "decimals": 18
            },
            {
                "address": "0xeeeeeeeeeeeeeeeeeeeeeeeeeeeeeeeeeeeeeeee",
                "decimals": 18
            }
        ]
    },
    "address_label": {
        "labels": [
            {
                "address": "0x0000000000000000000000000000000000000004",
                "label": "Precompiled"
            },
            {
                "address": "0xeeeeeeeeeeeeeeeeeeeeeeeeeeeeeeeeeeeeeeee",
                "label": "Ether"
            },
            {
                "address": "0xc549d87e9cea28961927436a2b7d6944f7ca86eb",
                "label": "StrongBlock: NodePack Proxy"
            },
            {
                "address": "0x0f58e918cbe61bb6661217c2dace06148ea35369",
                "label": "NodePackV6"
            },
            {
                "address": "0x0000000000000000000000000000000000000001",
                "label": "Precompiled"
            },
            {
                "address": "0x0000000000000000000000000000000000000002",
                "label": "Precompiled"
            },
            {
                "address": "0x0000000000000000000000000000000000000003",
                "label": "Precompiled"
            }
        ]
    },
    "trace": {
        "accountLabels": null,
        "dataMap": {
            "-1": {
                "invocation": {
                    "address": "0x281145ab180a8b440397886c92138dfbedacb4d7",
                    "callData": "",
                    "decodedMethod": null,
                    "errorInfo": "",
                    "fromAddress": "",
                    "gasUsed": 0,
                    "id": -1,
                    "methodDecoded": false,
                    "operation": "",
                    "output": "",
                    "revert": false,
                    "revertMessage": "",
                    "selector": "",
                    "status": false,
                    "value": ""
                },
                "nodeType": 0
            },
            "0": {
                "invocation": {
                    "address": "0xc549d87e9cea28961927436a2b7d6944f7ca86eb",
                    "callData": "0x0000000000000000000000000000000000000000000000000000000000000001",
                    "decodedMethod": {
                        "callParams": [
                            {
                                "name": "_packType",
                                "type": "uint256",
                                "value": "1"
                            }
                        ],
                        "constructorArguments": "",
                        "name": "pay",
                        "returnParams": [
                            {
                                "name": "",
                                "type": "uint256",
                                "value": "12,440,944,881,889,760"
                            }
                        ],
                        "signature": "pay(uint256)"
                    },
                    "errorInfo": "",
                    "fromAddress": "0x281145ab180a8b440397886c92138dfbedacb4d7",
                    "gasUsed": 138481,
                    "id": 0,
                    "methodDecoded": true,
                    "operation": "CALL",
                    "output": "0x000000000000000000000000000000000000000000000000002c32f9345af1e0",
                    "revert": false,
                    "revertMessage": "",
                    "selector": "0xc290d691",
                    "status": true,
                    "value": "0.0155511811023622"
                },
                "nodeType": 0
            },
            "1": {
                "invocation": {
                    "address": "0x0f58e918cbe61bb6661217c2dace06148ea35369",
                    "callData": "0x0000000000000000000000000000000000000000000000000000000000000001",
                    "decodedMethod": {
                        "callParams": [
                            {
                                "name": "_packType",
                                "type": "uint256",
                                "value": "1"
                            }
                        ],
                        "constructorArguments": "",
                        "name": "pay",
                        "returnParams": [
                            {
                                "name": "",
                                "type": "uint256",
                                "value": "12,440,944,881,889,760"
                            }
                        ],
                        "signature": "pay(uint256)"
                    },
                    "errorInfo": "",
                    "fromAddress": "0xc549d87e9cea28961927436a2b7d6944f7ca86eb",
                    "gasUsed": 110080,
                    "id": 1,
                    "methodDecoded": true,
                    "operation": "DELEGATECALL",
                    "output": "0x000000000000000000000000000000000000000000000000002c32f9345af1e0",
                    "revert": false,
                    "revertMessage": "",
                    "selector": "0xc290d691",
                    "status": true,
                    "value": "0.0155511811023622"
                },
                "nodeType": 0
            },
            "2": {
                "event": {
                    "contract": "0xc549d87e9cea28961927436a2b7d6944f7ca86eb",
                    "decodedLog": {
                        "name": "MaturedNodes",
                        "params": [
                            {
                                "name": "entity",
                                "type": "address",
                                "value": "0x281145ab180a8b440397886c92138dfbedacb4d7"
                            },
                            {
                                "name": "packType",
                                "type": "uint256",
                                "value": "1"
                            },
                            {
                                "name": "maturedCount",
                                "type": "uint256",
                                "value": "1"
                            }
                        ],
                        "signature": "MaturedNodes(address,uint256,uint256)"
                    },
                    "id": 2,
                    "logData": "0x00000000000000000000000000000000000000000000000000000000000000010000000000000000000000000000000000000000000000000000000000000001",
                    "logDecoded": true,
                    "operation": "EVENT",
                    "revert": false,
                    "status": true,
                    "topics": [
                        "0xd1ad6f13ecf90412417f16481b7455bda8aa6ec0133a68cdab069f9b7bd623f9",
                        "0x000000000000000000000000281145ab180a8b440397886c92138dfbedacb4d7"
                    ]
                },
                "nodeType": 1
            },
            "3": {
                "event": {
                    "contract": "0xc549d87e9cea28961927436a2b7d6944f7ca86eb",
                    "decodedLog": {
                        "name": "Paid",
                        "params": [
                            {
                                "name": "customer",
                                "type": "address",
                                "value": "0x281145ab180a8b440397886c92138dfbedacb4d7"
                            },
                            {
                                "name": "date",
                                "type": "uint256",
                                "value": "1"
                            },
                            {
                                "name": "amount",
                                "type": "uint256",
                                "value": "1,667,789,865"
                            }
                        ],
                        "signature": "Paid(address,uint256,uint256)"
                    },
                    "id": 3,
                    "logData": "0x00000000000000000000000000000000000000000000000000000000000000010000000000000000000000000000000000000000000000000000000063687429",
                    "logDecoded": true,
                    "operation": "EVENT",
                    "revert": false,
                    "status": true,
                    "topics": [
                        "0xdf9a51129930649214df58f542322c245372c6f2fa6fc3c9b40d927c597cd230",
                        "0x000000000000000000000000281145ab180a8b440397886c92138dfbedacb4d7"
                    ]
                },
                "nodeType": 1
            },
            "4": {
                "invocation": {
                    "address": "0x4b5057b2c87ec9e7c047fb00c0e406dff2fdacad",
                    "callData": "0x",
                    "decodedMethod": null,
                    "errorInfo": "",
                    "fromAddress": "0xc549d87e9cea28961927436a2b7d6944f7ca86eb",
                    "gasUsed": 0,
                    "id": 4,
                    "methodDecoded": false,
                    "operation": "CALL",
                    "output": "",
                    "revert": false,
                    "revertMessage": "",
                    "selector": "fallback",
                    "status": true,
                    "value": "0.01244094488188976"
                },
                "nodeType": 0
            },
            "5": {
                "invocation": {
                    "address": "0x281145ab180a8b440397886c92138dfbedacb4d7",
                    "callData": "0x",
                    "decodedMethod": null,
                    "errorInfo": "",
                    "fromAddress": "0xc549d87e9cea28961927436a2b7d6944f7ca86eb",
                    "gasUsed": 0,
                    "id": 5,
                    "methodDecoded": false,
                    "operation": "CALL",
                    "output": "",
                    "revert": false,
                    "revertMessage": "",
                    "selector": "fallback",
                    "status": true,
                    "value": "0.00311023622047244"
                },
                "nodeType": 0
            }
        },
        "gasFlame": [
            {
                "children": [
                    {
                        "children": [
                            {
                                "children": [],
                                "depth": 0,
                                "name": "Initial Gas",
                                "value": 21204
                            },
                            {
                                "children": [
                                    {
                                        "children": [
                                            {
                                                "children": [],
                                                "depth": 2,
                                                "name": "fallback",
                                                "value": 0
                                            },
                                            {
                                                "children": [],
                                                "depth": 2,
                                                "name": "fallback",
                                                "value": 0
                                            }
                                        ],
                                        "depth": 1,
                                        "name": "pay",
                                        "value": 110080
                                    }
                                ],
                                "depth": 0,
                                "name": "Executed Gas",
                                "value": 117277
                            }
                        ],
                        "depth": -1,
                        "name": "Actual Gas Used",
                        "value": 138481
                    },
                    {
                        "children": [],
                        "depth": -1,
                        "name": "Refunded Gas",
                        "value": 0
                    }
                ],
                "depth": -2,
                "name": "Total Gas",
                "value": 138481
            }
        ],
        "isConfirmed": true,
        "mainTrace": [
            {
                "children": [
                    {
                        "children": [
                            {
                                "children": [
                                    {
                                        "children": [],
                                        "depth": 2,
                                        "id": 2,
                                        "order": 2
                                    },
                                    {
                                        "children": [],
                                        "depth": 2,
                                        "id": 3,
                                        "order": 3
                                    },
                                    {
                                        "children": [],
                                        "depth": 2,
                                        "id": 4,
                                        "order": 4
                                    },
                                    {
                                        "children": [],
                                        "depth": 2,
                                        "id": 5,
                                        "order": 5
                                    }
                                ],
                                "depth": 1,
                                "id": 1,
                                "order": 1
                            }
                        ],
                        "depth": 0,
                        "id": 0,
                        "order": 0
                    }
                ],
                "depth": -1,
                "id": -1,
                "order": -1
            }
        ],
        "mainTraceNodeCount": 6,
        "parentIdMap": {
            "0": -1,
            "1": 0,
            "2": 1,
            "3": 1,
            "4": 1,
            "5": 1
        },
        "tidyTrace": [
            {
                "children": [
                    {
                        "children": [
                            {
                                "children": [
                                    {
                                        "children": [],
                                        "depth": 2,
                                        "id": 2,
                                        "order": 2
                                    },
                                    {
                                        "children": [],
                                        "depth": 2,
                                        "id": 3,
                                        "order": 3
                                    },
                                    {
                                        "children": [],
                                        "depth": 2,
                                        "id": 4,
                                        "order": 4
                                    },
                                    {
                                        "children": [],
                                        "depth": 2,
                                        "id": 5,
                                        "order": 5
                                    }
                                ],
                                "depth": 1,
                                "id": 1,
                                "order": 1
                            }
                        ],
                        "depth": 0,
                        "id": 0,
                        "order": 0
                    }
                ],
                "depth": -1,
                "id": -1,
                "order": -1
            }
        ],
        "tidyTraceNodeCount": 6
    },
    "state_change": {
        "stateChanges": [
            {
                "address": "0xc549d87e9cea28961927436a2b7d6944f7ca86eb",
                "erc": "",
                "slots": [
                    {
                        "current": "0x0000000000000000000000000000000000000000000000000000000000011cce",
                        "key": "0x0000000000000000000000000000000000000000000000000000000000000005",
                        "prev": "0x0000000000000000000000000000000000000000000000000000000000011ccd"
                    },
                    {
                        "current": "0x0000000000000000000000000000000000000000000000000000000063687429",
                        "key": "0x5c44903089bb1889bb731c548cb5417a3f23994850244bd6eb227d2f8fa917f0",
                        "prev": "0x0000000000000000000000000000000000000000000000000000000063405a89"
                    },
                    {
                        "current": "0x00000000000000000000000000000000000000000000000607c577ac17ab0a38",
                        "key": "0x7bbcb49cdc079d4c32ac60858e7e8a3dcd3a60eb3a3cced4fa461db7fddd4f30",
                        "prev": "0x000000000000000000000000000000000000000000000004ca18268ef0357b28"
                    },
                    {
                        "current": "0x00000000000000000000000000000000000000000000000000000000637cd1b3",
                        "key": "0x7620fb343671725bda645b5962ab98ae9bc1d9dc9e136e0c90cc668f3a483f5c",
                        "prev": "0x00000000000000000000000000000000000000000000000000000000632c57c3"
                    },
                    {
                        "current": "0x0000000000000000000000000000000000000000000000000000000000000005",
                        "key": "0x53d721ff7d9ebfa5eba5ac3b8553b5c3c2aa370a82321776c4e3a09ee0d8f16a",
                        "prev": "0x0000000000000000000000000000000000000000000000000000000000000004"
                    },
                    {
                        "current": "0x0000000000000000000000000000000000000000000000056bc75e2d63100000",
                        "key": "0xf6647292a8e3248a4d675ad8ebce70a669ee1d58926f1d482811ce895cdacadb",
                        "prev": "0x000000000000000000000000000000000000000000000004563918244f400000"
                    }
                ],
                "storageVariables": [
                    {
                        "name": "totalMaturedNodes",
                        "type": "uint256",
                        "value": {
                            "current": "72910",
                            "prev": "72909",
                            "typeTag": 1
                        }
                    },
                    {
                        "name": "entityPackLastPaidAt",
                        "type": "mapping(bytes => uint256)",
                        "value": {
                            "pairs": [
                                {
                                    "key": "0x281145ab180a8b440397886c92138dfbedacb4d7000000010000000000000001",
                                    "value": {
                                        "current": "1667789865",
                                        "prev": "1665161865",
                                        "typeTag": 1
                                    }
                                }
                            ],
                            "typeTag": 4
                        }
                    },
                    {
                        "name": "entityPackRewardDue",
                        "type": "mapping(bytes => uint256)",
                        "value": {
                            "pairs": [
                                {
                                    "key": "0x281145ab180a8b440397886c92138dfbedacb4d7000000010000000000000001",
                                    "value": {
                                        "current": "111240449751949969976",
                                        "prev": "88349408085297953576",
                                        "typeTag": 1
                                    }
                                }
                            ],
                            "typeTag": 4
                        }
                    },
                    {
                        "name": "entityPackLastClaimedAt",
                        "type": "mapping(bytes => uint256)",
                        "value": {
                            "pairs": [
                                {
                                    "key": "0x281145ab180a8b440397886c92138dfbedacb4d7000000010000000000000001",
                                    "value": {
                                        "current": "1669124531",
                                        "prev": "1663850435",
                                        "typeTag": 1
                                    }
                                }
                            ],
                            "typeTag": 4
                        }
                    },
                    {
                        "name": "entityPackMaturedNodeCount",
                        "type": "mapping(bytes => uint256)",
                        "value": {
                            "pairs": [
                                {
                                    "key": "0x281145ab180a8b440397886c92138dfbedacb4d7000000010000000000000001",
                                    "value": {
                                        "current": "5",
                                        "prev": "4",
                                        "typeTag": 1
                                    }
                                }
                            ],
                            "typeTag": 4
                        }
                    },
                    {
                        "name": "entityPackClaimedMatured",
                        "type": "mapping(bytes => uint256)",
                        "value": {
                            "pairs": [
                                {
                                    "key": "0x281145ab180a8b440397886c92138dfbedacb4d7000000010000000000000001",
                                    "value": {
                                        "current": "100000000000000000000",
                                        "prev": "80000000000000000000",
                                        "typeTag": 1
                                    }
                                }
                            ],
                            "typeTag": 4
                        }
                    }
                ]
            }
        ]
    }
}