{
    "balance_change": {
        "balanceChanges": [
            {
                "account": "0x6763e7e58c2048d8fdf555e12c3afddfe97bcf73",
                "assets": [
                    {
                        "address": "0xeeeeeeeeeeeeeeeeeeeeeeeeeeeeeeeeeeeeeeee",
                        "amount": "0.001220632058992799",
                        "iconUrl": "https://assets.blocksec.com/image/1663669189317-3.png",
                        "isERC1155": false,
                        "isERC721": false,
                        "sign": false,
                        "value": "3.8333949812895000001"
                    },
                    {
                        "address": "0x990f341946a3fdb507ae7e52d17851b87168017c",
                        "amount": "2.314628571428571428",
                        "iconUrl": "",
                        "isERC1155": false,
                        "isERC721": false,
                        "sign": true,
                        "value": "1116.557569"
                    }
                ]
            },
            {
                "account": "0xfbddadd80fe7bda00b901fbaf73803f2238ae655",
                "assets": [
                    {
                        "address": "0x990f341946a3fdb507ae7e52d17851b87168017c",
                        "amount": "2.314628571428571428",
                        "iconUrl": "",
                        "isERC1155": false,
                        "isERC721": false,
                        "sign": false,
                        "value": "1116.557569"
                    }
                ]
            },
            {
                "account": "0x4b5057b2c87ec9e7c047fb00c0e406dff2fdacad",
                "assets": [
                    {
                        "address": "0xeeeeeeeeeeeeeeeeeeeeeeeeeeeeeeeeeeeeeeee",
                        "amount": "0.001220632058992799",
                        "iconUrl": "https://assets.blocksec.com/image/1663669189317-3.png",
                        "isERC1155": false,
                        "isERC721": false,
                        "sign": true,
                        "value": "3.8333949812895000001"
                    }
                ]
            }
        ]
    },
    "profile": {
        "basic_info": {
            "baseFee": "105.622893693",
            "blockNumber": 14162807,
            "callData": "0x39941fa400000000000000000000000000000000000000000000000000000000000000010000000000000000000000000000000000000000000000000000000000d81b750000000000000000000000000000000000000000000000000000000000000000",
            "debugEnable": true,
            "errorInfo": "",
            "eventCount": 2,
            "feeRecipient": "0xea674fdde714fd979de3edf0f56aa9716b898ec8",
            "formatValue": "0.001220632058992799",
            "gasLimit": 192980,
            "gasPrice": "107.122893693",
            "gasUsed": 190458,
            "intTxnCount": 7,
            "internalRevert": false,
            "internalRevertMessage": "",
            "isContractCreation": false,
            "isFlashloan": false,
            "maxFee": "129.080847717",
            "nonce": 53,
            "overwritedBlockNumber": -1,
            "priorityFee": "1.5",
            "receiver": "0xfbddadd80fe7bda00b901fbaf73803f2238ae655",
            "revertMessage": "",
            "sender": "0x6763e7e58c2048d8fdf555e12c3afddfe97bcf73",
            "simulationEnable": true,
            "sourceTxnHash": "0xfb223620b673b79e02faa759682902c6997e587fcf860d8c05aef6cd429ec209",
            "status": true,
            "timestamp": "2022-02-08T02:36:26Z",
            "transactionFee": "0.020402412086981394",
            "txnHash": "0xfb223620b673b79e02faa759682902c6997e587fcf860d8c05aef6cd429ec209",
            "txnIndex": 102,
            "type": 2,
            "value": "1220632058992799"
        },
        "fund_flow": [
            {
                "amount": "0.001220632058992799",
                "from": "0x6763e7e58c2048d8fdf555e12c3afddfe97bcf73",
                "id": 1,
                "isERC1155": false,
                "isERC721": false,
                "isReverted": false,
                "order": 1,
                "to": "0xfbddadd80fe7bda00b901fbaf73803f2238ae655",
                "token": "0xeeeeeeeeeeeeeeeeeeeeeeeeeeeeeeeeeeeeeeee"
            },
            {
                "amount": "0.001220632058992799",
                "from": "0xfbddadd80fe7bda00b901fbaf73803f2238ae655",
                "id": 2,
                "isERC1155": false,
                "isERC721": false,
                "isReverted": false,
                "order": 2,
                "to": "0x4b5057b2c87ec9e7c047fb00c0e406dff2fdacad",
                "token": "0xeeeeeeeeeeeeeeeeeeeeeeeeeeeeeeeeeeeeeeee"
            },
            {
                "amount": "2.314628571428571428",
                "from": "0xfbddadd80fe7bda00b901fbaf73803f2238ae655",
                "id": 3,
                "isERC1155": false,
                "isERC721": false,
                "isReverted": false,
                "order": 3,
                "to": "0x6763e7e58c2048d8fdf555e12c3afddfe97bcf73",
                "token": "0x990f341946a3fdb507ae7e52d17851b87168017c"
            }
        ],
        "token_infos": [
            {
                "address": "0x990f341946a3fdb507ae7e52d17851b87168017c",
                "decimals": 18
            },
            {
                "address": "0xc02aaa39b223fe8d0a0e5c4f27ead9083c756cc2",
                "decimals": 18
            },
            {
                "address": "0xeeeeeeeeeeeeeeeeeeeeeeeeeeeeeeeeeeeeeeee",
                "decimals": 18
            }
        ]
    },
    "address_label": {
        "labels": [
            {
                "address": "0x1a50be5dc5dd721f3e337816b23002c9c5e4b812",
                "label": "AdminUpgradeabilityProxy"
            },
            {
                "address": "0x0000000000000000000000000000000000000001",
                "label": "Precompiled"
            },
            {
                "address": "0x0000000000000000000000000000000000000003",
                "label": "Precompiled"
            },
            {
                "address": "0x990f341946a3fdb507ae7e52d17851b87168017c",
                "label": "StrongBlock: STRONG Token"
            },
            {
                "address": "0xcca06cd29c61123d9d65b904b18174382380ca64",
                "label": "StrongNFTBonusDeprecated"
            },
            {
                "address": "0xfbddadd80fe7bda00b901fbaf73803f2238ae655",
                "label": "StrongBlock: Service"
            },
            {
                "address": "0x545496300d62c95e9d712b6dd2f010d1c256647f",
                "label": "StrongNFTBonusV8"
            },
            {
                "address": "0x0000000000000000000000000000000000000002",
                "label": "Precompiled"
            },
            {
                "address": "0x0000000000000000000000000000000000000004",
                "label": "Precompiled"
            },
            {
                "address": "0xeeeeeeeeeeeeeeeeeeeeeeeeeeeeeeeeeeeeeeee",
                "label": "Ether"
            },
            {
                "address": "0x3d66d374cff558b9d988996786afb1eb6c31ef8b",
                "label": "AdminUpgradeabilityProxy_3d66_ef8b"
            },
            {
                "address": "0x4161d3e2024d9773c18ef63e2d93d1d752c0486b",
                "label": "ServiceV18"
            }
        ]
    },
    "trace": {
        "accountLabels": null,
        "dataMap": {
            "-1": {
                "invocation": {
                    "address": "0x6763e7e58c2048d8fdf555e12c3afddfe97bcf73",
                    "callData": "",
                    "decodedMethod": null,
                    "errorInfo": "",
                    "fromAddress": "",
                    "gasUsed": 0,
                    "id": -1,
                    "methodDecoded": false,
                    "operation": "",
                    "output": "",
                    "revert": false,
                    "revertMessage": "",
                    "selector": "",
                    "status": false,
                    "value": ""
                },
                "nodeType": 0
            },
            "0": {
                "invocation": {
                    "address": "0xfbddadd80fe7bda00b901fbaf73803f2238ae655",
                    "callData": "0x00000000000000000000000000000000000000000000000000000000000000010000000000000000000000000000000000000000000000000000000000d81b750000000000000000000000000000000000000000000000000000000000000000",
                    "decodedMethod": {
                        "callParams": [
                            {
                                "name": "nodeId",
                                "type": "uint128",
                                "value": "1"
                            },
                            {
                                "name": "blockNumber",
                                "type": "uint256",
                                "value": "14,162,805"
                            },
                            {
                                "name": "toStrongPool",
                                "type": "bool",
                                "value": false
                            }
                        ],
                        "constructorArguments": "",
                        "name": "claim",
                        "returnParams": [
                            {
                                "name": "",
                                "type": "bool",
                                "value": true
                            }
                        ],
                        "signature": "claim(uint128,uint256,bool)"
                    },
                    "errorInfo": "",
                    "fromAddress": "0x6763e7e58c2048d8fdf555e12c3afddfe97bcf73",
                    "gasUsed": 190458,
                    "id": 0,
                    "methodDecoded": true,
                    "operation": "CALL",
                    "output": "0x0000000000000000000000000000000000000000000000000000000000000001",
                    "revert": false,
                    "revertMessage": "",
                    "selector": "0x39941fa4",
                    "status": true,
                    "value": "0.001220632058992799"
                },
                "nodeType": 0
            },
            "1": {
                "invocation": {
                    "address": "0x4161d3e2024d9773c18ef63e2d93d1d752c0486b",
                    "callData": "0x00000000000000000000000000000000000000000000000000000000000000010000000000000000000000000000000000000000000000000000000000d81b750000000000000000000000000000000000000000000000000000000000000000",
                    "decodedMethod": {
                        "callParams": [
                            {
                                "name": "nodeId",
                                "type": "uint128",
                                "value": "1"
                            },
                            {
                                "name": "blockNumber",
                                "type": "uint256",
                                "value": "14,162,805"
                            },
                            {
                                "name": "toStrongPool",
                                "type": "bool",
                                "value": false
                            }
                        ],
                        "constructorArguments": "",
                        "name": "claim",
                        "returnParams": [
                            {
                                "name": "",
                                "type": "bool",
                                "value": true
                            }
                        ],
                        "signature": "claim(uint128,uint256,bool)"
                    },
                    "errorInfo": "",
                    "fromAddress": "0xfbddadd80fe7bda00b901fbaf73803f2238ae655",
                    "gasUsed": 161677,
                    "id": 1,
                    "methodDecoded": true,
                    "operation": "DELEGATECALL",
                    "output": "0x0000000000000000000000000000000000000000000000000000000000000001",
                    "revert": false,
                    "revertMessage": "",
                    "selector": "0x39941fa4",
                    "status": true,
                    "value": "0.001220632058992799"
                },
                "nodeType": 0
            },
            "2": {
                "invocation": {
                    "address": "0x1a50be5dc5dd721f3e337816b23002c9c5e4b812",
                    "callData": "0x0000000000000000000000006763e7e58c2048d8fdf555e12c3afddfe97bcf7300000000000000000000000000000000000000000000000000000000000000010000000000000000000000000000000000000000000000000000000000d5a28d0000000000000000000000000000000000000000000000000000000000d81b75",
                    "decodedMethod": {
                        "callParams": [
                            {
                                "name": "_entity",
                                "type": "address",
                                "value": "0x6763e7e58c2048d8fdf555e12c3afddfe97bcf73"
                            },
                            {
                                "name": "_nodeId",
                                "type": "uint128",
                                "value": "1"
                            },
                            {
                                "name": "_from",
                                "type": "uint256",
                                "value": "14,000,781"
                            },
                            {
                                "name": "_to",
                                "type": "uint256",
                                "value": "14,162,805"
                            }
                        ],
                        "constructorArguments": "",
                        "name": "getBonus",
                        "returnParams": [
                            {
                                "name": "",
                                "type": "uint256",
                                "value": "0"
                            }
                        ],
                        "signature": "getBonus(address,uint128,uint256,uint256)"
                    },
                    "errorInfo": "",
                    "fromAddress": "0xfbddadd80fe7bda00b901fbaf73803f2238ae655",
                    "gasUsed": 54400,
                    "id": 2,
                    "methodDecoded": true,
                    "operation": "STATICCALL",
                    "output": "0x0000000000000000000000000000000000000000000000000000000000000000",
                    "revert": false,
                    "revertMessage": "",
                    "selector": "0xb07d9cbb",
                    "status": true,
                    "value": "0"
                },
                "nodeType": 0
            },
            "3": {
                "invocation": {
                    "address": "0x545496300d62c95e9d712b6dd2f010d1c256647f",
                    "callData": "0x0000000000000000000000006763e7e58c2048d8fdf555e12c3afddfe97bcf7300000000000000000000000000000000000000000000000000000000000000010000000000000000000000000000000000000000000000000000000000d5a28d0000000000000000000000000000000000000000000000000000000000d81b75",
                    "decodedMethod": {
                        "callParams": [
                            {
                                "name": "_entity",
                                "type": "address",
                                "value": "0x6763e7e58c2048d8fdf555e12c3afddfe97bcf73"
                            },
                            {
                                "name": "_nodeId",
                                "type": "uint128",
                                "value": "1"
                            },
                            {
                                "name": "_from",
                                "type": "uint256",
                                "value": "14,000,781"
                            },
                            {
                                "name": "_to",
                                "type": "uint256",
                                "value": "14,162,805"
                            }
                        ],
                        "constructorArguments": "",
                        "name": "getBonus",
                        "returnParams": [
                            {
                                "name": "",
                                "type": "uint256",
                                "value": "0"
                            }
                        ],
                        "signature": "getBonus(address,uint128,uint256,uint256)"
                    },
                    "errorInfo": "",
                    "fromAddress": "0x1a50be5dc5dd721f3e337816b23002c9c5e4b812",
                    "gasUsed": 47142,
                    "id": 3,
                    "methodDecoded": true,
                    "operation": "DELEGATECALL",
                    "output": "0x0000000000000000000000000000000000000000000000000000000000000000",
                    "revert": false,
                    "revertMessage": "",
                    "selector": "0xb07d9cbb",
                    "status": true,
                    "value": "0"
                },
                "nodeType": 0
            },
            "4": {
                "invocation": {
                    "address": "0x3d66d374cff558b9d988996786afb1eb6c31ef8b",
                    "callData": "0x0000000000000000000000006763e7e58c2048d8fdf555e12c3afddfe97bcf730000000000000000000000000000000000000000000000000000000000000001",
                    "decodedMethod": {
                        "callParams": [
                            {
                                "name": "_entity",
                                "type": "address",
                                "value": "0x6763e7e58c2048d8fdf555e12c3afddfe97bcf73"
                            },
                            {
                                "name": "_nodeId",
                                "type": "uint128",
                                "value": "1"
                            }
                        ],
                        "constructorArguments": "",
                        "name": "getStakedNftId",
                        "returnParams": [
                            {
                                "name": "",
                                "type": "uint256",
                                "value": "0"
                            }
                        ],
                        "signature": "getStakedNftId(address,uint128)"
                    },
                    "errorInfo": "",
                    "fromAddress": "0x1a50be5dc5dd721f3e337816b23002c9c5e4b812",
                    "gasUsed": 9944,
                    "id": 4,
                    "methodDecoded": true,
                    "operation": "STATICCALL",
                    "output": "0x0000000000000000000000000000000000000000000000000000000000000000",
                    "revert": false,
                    "revertMessage": "",
                    "selector": "0x3418c894",
                    "status": true,
                    "value": "0"
                },
                "nodeType": 0
            },
            "5": {
                "invocation": {
                    "address": "0xcca06cd29c61123d9d65b904b18174382380ca64",
                    "callData": "0x0000000000000000000000006763e7e58c2048d8fdf555e12c3afddfe97bcf730000000000000000000000000000000000000000000000000000000000000001",
                    "decodedMethod": {
                        "callParams": [
                            {
                                "name": "_entity",
                                "type": "address",
                                "value": "0x6763e7e58c2048d8fdf555e12c3afddfe97bcf73"
                            },
                            {
                                "name": "_nodeId",
                                "type": "uint128",
                                "value": "1"
                            }
                        ],
                        "constructorArguments": "",
                        "name": "getStakedNftId",
                        "returnParams": [
                            {
                                "name": "",
                                "type": "uint256",
                                "value": "0"
                            }
                        ],
                        "signature": "getStakedNftId(address,uint128)"
                    },
                    "errorInfo": "",
                    "fromAddress": "0x3d66d374cff558b9d988996786afb1eb6c31ef8b",
                    "gasUsed": 2665,
                    "id": 5,
                    "methodDecoded": true,
                    "operation": "DELEGATECALL",
                    "output": "0x0000000000000000000000000000000000000000000000000000000000000000",
                    "revert": false,
                    "revertMessage": "",
                    "selector": "0x3418c894",
                    "status": true,
                    "value": "0"
                },
                "nodeType": 0
            },
            "6": {
                "invocation": {
                    "address": "0x4b5057b2c87ec9e7c047fb00c0e406dff2fdacad",
                    "callData": "0x",
                    "decodedMethod": null,
                    "errorInfo": "",
                    "fromAddress": "0xfbddadd80fe7bda00b901fbaf73803f2238ae655",
                    "gasUsed": 0,
                    "id": 6,
                    "methodDecoded": false,
                    "operation": "CALL",
                    "output": "",
                    "revert": false,
                    "revertMessage": "",
                    "selector": "fallback",
                    "status": true,
                    "value": "0.001220632058992799"
                },
                "nodeType": 0
            },
            "7": {
                "invocation": {
                    "address": "0x990f341946a3fdb507ae7e52d17851b87168017c",
                    "callData": "0x0000000000000000000000006763e7e58c2048d8fdf555e12c3afddfe97bcf73000000000000000000000000000000000000000000000000201f366c1af84924",
                    "decodedMethod": {
                        "callParams": [
                            {
                                "name": "recipient",
                                "type": "address",
                                "value": "0x6763e7e58c2048d8fdf555e12c3afddfe97bcf73"
                            },
                            {
                                "decimalAvailable": true,
                                "name": "amount",
                                "type": "uint256",
                                "value": "2,314,628,571,428,571,428"
                            }
                        ],
                        "constructorArguments": "",
                        "name": "transfer",
                        "returnParams": [
                            {
                                "name": "",
                                "type": "bool",
                                "value": true
                            }
                        ],
                        "signature": "transfer(address,uint256)"
                    },
                    "errorInfo": "",
                    "fromAddress": "0xfbddadd80fe7bda00b901fbaf73803f2238ae655",
                    "gasUsed": 30229,
                    "id": 7,
                    "methodDecoded": true,
                    "operation": "CALL",
                    "output": "0x0000000000000000000000000000000000000000000000000000000000000001",
                    "revert": false,
                    "revertMessage": "",
                    "selector": "0xa9059cbb",
                    "status": true,
                    "value": "0"
                },
                "nodeType": 0
            },
            "8": {
                "event": {
                    "contract": "0x990f341946a3fdb507ae7e52d17851b87168017c",
                    "decodedLog": {
                        "name": "Transfer",
                        "params": [
                            {
                                "name": "from",
                                "type": "address",
                                "value": "0xfbddadd80fe7bda00b901fbaf73803f2238ae655"
                            },
                            {
                                "name": "to",
                                "type": "address",
                                "value": "0x6763e7e58c2048d8fdf555e12c3afddfe97bcf73"
                            },
                            {
                                "decimalAvailable": true,
                                "name": "value",
                                "type": "uint256",
                                "value": "2,314,628,571,428,571,428"
                            }
                        ],
                        "signature": "Transfer(address,address,uint256)"
                    },
                    "id": 8,
                    "logData": "0x000000000000000000000000000000000000000000000000201f366c1af84924",
                    "logDecoded": true,
                    "operation": "EVENT",
                    "revert": false,
                    "status": true,
                    "topics": [
                        "0xddf252ad1be2c89b69c2b068fc378daa952ba7f163c4a11628f55a4df523b3ef",
                        "0x000000000000000000000000fbddadd80fe7bda00b901fbaf73803f2238ae655",
                        "0x0000000000000000000000006763e7e58c2048d8fdf555e12c3afddfe97bcf73"
                    ]
                },
                "nodeType": 1
            },
            "9": {
                "event": {
                    "contract": "0xfbddadd80fe7bda00b901fbaf73803f2238ae655",
                    "decodedLog": {
                        "name": "Claimed",
                        "params": [
                            {
                                "name": "user",
                                "type": "address",
                                "value": "0x6763e7e58c2048d8fdf555e12c3afddfe97bcf73"
                            },
                            {
                                "name": "amount",
                                "type": "uint256",
                                "value": "2,314,628,571,428,571,428"
                            }
                        ],
                        "signature": "Claimed(address,uint256)"
                    },
                    "id": 9,
                    "logData": "0x000000000000000000000000000000000000000000000000201f366c1af84924",
                    "logDecoded": true,
                    "operation": "EVENT",
                    "revert": false,
                    "status": true,
                    "topics": [
                        "0xd8138f8a3f377c5259ca548e70e4c2de94f129f5a11036a15b69513cba2b426a",
                        "0x0000000000000000000000006763e7e58c2048d8fdf555e12c3afddfe97bcf73"
                    ]
                },
                "nodeType": 1
            }
        },
        "gasFlame": [
            {
                "children": [
                    {
                        "children": [
                            {
                                "children": [],
                                "depth": 0,
                                "name": "Initial Gas",
                                "value": 21496
                            },
                            {
                                "children": [
                                    {
                                        "children": [
                                            {
                                                "children": [
                                                    {
                                                        "children": [
                                                            {
                                                                "children": [
                                                                    {
                                                                        "children": [],
                                                                        "depth": 5,
                                                                        "name": "getStakedNftId",
                                                                        "value": 2665
                                                                    }
                                                                ],
                                                                "depth": 4,
                                                                "name": "getStakedNftId",
                                                                "value": 9944
                                                            }
                                                        ],
                                                        "depth": 3,
                                                        "name": "getBonus",
                                                        "value": 47142
                                                    }
                                                ],
                                                "depth": 2,
                                                "name": "getBonus",
                                                "value": 54400
                                            },
                                            {
                                                "children": [],
                                                "depth": 2,
                                                "name": "fallback",
                                                "value": 0
                                            },
                                            {
                                                "children": [],
                                                "depth": 2,
                                                "name": "transfer",
                                                "value": 30229
                                            }
                                        ],
                                        "depth": 1,
                                        "name": "claim",
                                        "value": 161677
                                    }
                                ],
                                "depth": 0,
                                "name": "Executed Gas",
                                "value": 168962
                            }
                        ],
                        "depth": -1,
                        "name": "Actual Gas Used",
                        "value": 190458
                    },
                    {
                        "children": [],
                        "depth": -1,
                        "name": "Refunded Gas",
                        "value": 0
                    }
                ],
                "depth": -2,
                "name": "Total Gas",
                "value": 190458
            }
        ],
        "isConfirmed": true,
        "mainTrace": [
            {
                "children": [
                    {
                        "children": [
                            {
                                "children": [
                                    {
                                        "children": [
                                            {
                                                "children": [
                                                    {
                                                        "children": [
                                                            {
                                                                "children": [],
                                                                "depth": 5,
                                                                "id": 5,
                                                                "order": 5
                                                            }
                                                        ],
                                                        "depth": 4,
                                                        "id": 4,
                                                        "order": 4
                                                    }
                                                ],
                                                "depth": 3,
                                                "id": 3,
                                                "order": 3
                                            }
                                        ],
                                        "depth": 2,
                                        "id": 2,
                                        "order": 2
                                    },
                                    {
                                        "children": [],
                                        "depth": 2,
                                        "id": 6,
                                        "order": 6
                                    },
                                    {
                                        "children": [
                                            {
                                                "children": [],
                                                "depth": 3,
                                                "id": 8,
                                                "order": 8
                                            }
                                        ],
                                        "depth": 2,
                                        "id": 7,
                                        "order": 7
                                    },
                                    {
                                        "children": [],
                                        "depth": 2,
                                        "id": 9,
                                        "order": 9
                                    }
                                ],
                                "depth": 1,
                                "id": 1,
                                "order": 1
                            }
                        ],
                        "depth": 0,
                        "id": 0,
                        "order": 0
                    }
                ],
                "depth": -1,
                "id": -1,
                "order": -1
            }
        ],
        "mainTraceNodeCount": 10,
        "parentIdMap": {
            "0": -1,
            "1": 0,
            "2": 1,
            "3": 2,
            "4": 3,
            "5": 4,
            "6": 1,
            "7": 1,
            "8": 7,
            "9": 1
        },
        "tidyTrace": [
            {
                "children": [
                    {
                        "children": [
                            {
                                "children": [
                                    {
                                        "children": [],
                                        "depth": 2,
                                        "id": 6,
                                        "order": 6
                                    },
                                    {
                                        "children": [
                                            {
                                                "children": [],
                                                "depth": 3,
                                                "id": 8,
                                                "order": 8
                                            }
                                        ],
                                        "depth": 2,
                                        "id": 7,
                                        "order": 7
                                    },
                                    {
                                        "children": [],
                                        "depth": 2,
                                        "id": 9,
                                        "order": 9
                                    }
                                ],
                                "depth": 1,
                                "id": 1,
                                "order": 1
                            }
                        ],
                        "depth": 0,
                        "id": 0,
                        "order": 0
                    }
                ],
                "depth": -1,
                "id": -1,
                "order": -1
            }
        ],
        "tidyTraceNodeCount": 6
    },
    "state_change": {
        "stateChanges": [
            {
                "address": "0x990f341946a3fdb507ae7e52d17851b87168017c",
                "erc": "ERC-20",
                "slots": [
                    {
                        "current": "0x00000000000000000000000000000000000000000000002c569f956565fdb22e",
                        "key": "0xb73d57ea57b9d8939177a255f0818cf6fd76cb78df58bf3c8b47a1faae3e8a16",
                        "prev": "0x00000000000000000000000000000000000000000000002c76becbd180f5fb52"
                    },
                    {
                        "current": "0x000000000000000000000000000000000000000000000000201f366c1af84924",
                        "key": "0x9eee3828add8b4e6a455d7e4bd5a58333e74bbf36c7fad61d6188c026405ed43",
                        "prev": "0x0000000000000000000000000000000000000000000000000000000000000000"
                    }
                ],
                "storageVariables": [
                    {
                        "name": "_balances",
                        "type": "mapping(address => uint256)",
                        "value": {
                            "pairs": [
                                {
                                    "key": "0x6763e7e58c2048d8fdf555e12c3afddfe97bcf73",
                                    "value": {
                                        "current": "2314628571428571428",
                                        "prev": "0",
                                        "typeTag": 1
                                    }
                                },
                                {
                                    "key": "0xfbddadd80fe7bda00b901fbaf73803f2238ae655",
                                    "value": {
                                        "current": "817898611114514428462",
                                        "prev": "820213239685942999890",
                                        "typeTag": 1
                                    }
                                }
                            ],
                            "typeTag": 4
                        }
                    }
                ]
            },
            {
                "address": "0xfbddadd80fe7bda00b901fbaf73803f2238ae655",
                "erc": "",
                "slots": [
                    {
                        "current": "0x00000000000000000000000000000000000000000000001ed3f2633cd735b2de",
                        "key": "0x0000000000000000000000000000000000000000000000000000000000000014",
                        "prev": "0x00000000000000000000000000000000000000000000001ef41199a8f22dfc02"
                    },
                    {
                        "current": "0x0000000000000000000000000000000000000000000000000000000000d81b75",
                        "key": "0xf8f2f4b45ff7b0305d22587c9c4d6229f614bde12bbd796dd30c306bc86e0f70",
                        "prev": "0x0000000000000000000000000000000000000000000000000000000000d5a28d"
                    }
                ],
                "storageVariables": [
                    {
                        "name": "rewardBalance",
                        "type": "uint256",
                        "value": {
                            "current": "568674700610613129950",
                            "prev": "570989329182041701378",
                            "typeTag": 1
                        }
                    },
                    {
                        "name": "entityNodeClaimedOnBlock",
                        "type": "mapping(bytes => uint256)",
                        "value": {
                            "pairs": [
                                {
                                    "key": "0x6763e7e58c2048d8fdf555e12c3afddfe97bcf7300000000000000000000000000000001",
                                    "value": {
                                        "current": "14162805",
                                        "prev": "14000781",
                                        "typeTag": 1
                                    }
                                }
                            ],
                            "typeTag": 4
                        }
                    }
                ]
            }
        ]
    }
}