{
    "balance_change": {
        "balanceChanges": [
            {
                "account": "0xb6a3f4411f0441a4be2f458d52cb8ee13cfc901b",
                "assets": [
                    {
                        "address": "0x62b9f8741bf53a6986a5411c0557c30f6f11f3af",
                        "amount": "266",
                        "iconUrl": "",
                        "isERC1155": false,
                        "isERC721": false,
                        "sign": false,
                        "value": ""
                    }
                ]
            },
            {
                "account": "0x0bc0e0fcc6b9da4988cf1d13ad1e601a94256fc1",
                "assets": [
                    {
                        "address": "0x62b9f8741bf53a6986a5411c0557c30f6f11f3af",
                        "amount": "266",
                        "iconUrl": "",
                        "isERC1155": false,
                        "isERC721": false,
                        "sign": true,
                        "value": ""
                    }
                ]
            }
        ]
    },
    "profile": {
        "basic_info": {
            "baseFee": "",
            "blockNumber": 8917080,
            "callData": "0xa9059cbb0000000000000000000000000bc0e0fcc6b9da4988cf1d13ad1e601a94256fc100000000000000000000000000000000000000000000000e6b7dd6abede80000",
            "debugEnable": true,
            "errorInfo": "",
            "eventCount": 1,
            "feeRecipient": "0x5a0b54d5dc17e0aadc383d2db43b0a0d3e029c4c",
            "formatValue": "0",
            "gasLimit": 90000,
            "gasPrice": "20",
            "gasUsed": 37966,
            "intTxnCount": 0,
            "internalRevert": false,
            "internalRevertMessage": "",
            "isContractCreation": false,
            "isFlashloan": false,
            "maxFee": "",
            "nonce": 13551,
            "overwritedBlockNumber": -1,
            "priorityFee": "",
            "receiver": "0x62b9f8741bf53a6986a5411c0557c30f6f11f3af",
            "revertMessage": "",
            "sender": "0xb6a3f4411f0441a4be2f458d52cb8ee13cfc901b",
            "simulationEnable": true,
            "sourceTxnHash": "0xfb7e03c78b18f09e9138028a4ef2627d8c3ac57238b2f4de46dbae2f32d6a99a",
            "status": true,
            "timestamp": "2019-11-11T23:08:16Z",
            "transactionFee": "0.00075932",
            "txnHash": "0xfb7e03c78b18f09e9138028a4ef2627d8c3ac57238b2f4de46dbae2f32d6a99a",
            "txnIndex": 9,
            "type": 0,
            "value": "0"
        },
        "fund_flow": [
            {
                "amount": "266",
                "from": "0xb6a3f4411f0441a4be2f458d52cb8ee13cfc901b",
                "id": 1,
                "isERC1155": false,
                "isERC721": false,
                "isReverted": false,
                "order": 1,
                "to": "0x0bc0e0fcc6b9da4988cf1d13ad1e601a94256fc1",
                "token": "0x62b9f8741bf53a6986a5411c0557c30f6f11f3af"
            }
        ],
        "token_infos": [
            {
                "address": "0x62b9f8741bf53a6986a5411c0557c30f6f11f3af",
                "decimals": 18
            },
            {
                "address": "0xc02aaa39b223fe8d0a0e5c4f27ead9083c756cc2",
                "decimals": 18
            },
            {
                "address": "0xeeeeeeeeeeeeeeeeeeeeeeeeeeeeeeeeeeeeeeee",
                "decimals": 18
            }
        ]
    },
    "address_label": {
        "labels": [
            {
                "address": "0x0000000000000000000000000000000000000002",
                "label": "Precompiled"
            },
            {
                "address": "0x0000000000000000000000000000000000000003",
                "label": "Precompiled"
            },
            {
                "address": "0x0000000000000000000000000000000000000004",
                "label": "Precompiled"
            },
            {
                "address": "0xeeeeeeeeeeeeeeeeeeeeeeeeeeeeeeeeeeeeeeee",
                "label": "Ether"
            },
            {
                "address": "0x62b9f8741bf53a6986a5411c0557c30f6f11f3af",
                "label": "5GH (5GH)"
            },
            {
                "address": "0x0000000000000000000000000000000000000001",
                "label": "Precompiled"
            }
        ]
    },
    "trace": {
        "accountLabels": null,
        "dataMap": {
            "-1": {
                "invocation": {
                    "address": "0xb6a3f4411f0441a4be2f458d52cb8ee13cfc901b",
                    "callData": "",
                    "decodedMethod": null,
                    "errorInfo": "",
                    "fromAddress": "",
                    "gasUsed": 0,
                    "id": -1,
                    "methodDecoded": false,
                    "operation": "",
                    "output": "",
                    "revert": false,
                    "revertMessage": "",
                    "selector": "",
                    "status": false,
                    "value": ""
                },
                "nodeType": 0
            },
            "0": {
                "invocation": {
                    "address": "0x62b9f8741bf53a6986a5411c0557c30f6f11f3af",
                    "callData": "0x0000000000000000000000000bc0e0fcc6b9da4988cf1d13ad1e601a94256fc100000000000000000000000000000000000000000000000e6b7dd6abede80000",
                    "decodedMethod": {
                        "callParams": [
                            {
                                "name": "_to",
                                "type": "address",
                                "value": "0x0bc0e0fcc6b9da4988cf1d13ad1e601a94256fc1"
                            },
                            {
                                "decimalAvailable": true,
                                "name": "_value",
                                "type": "uint256",
                                "value": "266,000,000,000,000,000,000"
                            }
                        ],
                        "constructorArguments": "",
                        "name": "transfer",
                        "returnParams": [
                            {
                                "name": "success",
                                "type": "bool",
                                "value": true
                            }
                        ],
                        "signature": "transfer(address,uint256)"
                    },
                    "errorInfo": "",
                    "fromAddress": "0xb6a3f4411f0441a4be2f458d52cb8ee13cfc901b",
                    "gasUsed": 37966,
                    "id": 0,
                    "methodDecoded": true,
                    "operation": "CALL",
                    "output": "0x0000000000000000000000000000000000000000000000000000000000000001",
                    "revert": false,
                    "revertMessage": "",
                    "selector": "0xa9059cbb",
                    "status": true,
                    "value": "0"
                },
                "nodeType": 0
            },
            "1": {
                "event": {
                    "contract": "0x62b9f8741bf53a6986a5411c0557c30f6f11f3af",
                    "decodedLog": {
                        "name": "Transfer",
                        "params": [
                            {
                                "name": "from",
                                "type": "address",
                                "value": "0xb6a3f4411f0441a4be2f458d52cb8ee13cfc901b"
                            },
                            {
                                "name": "to",
                                "type": "address",
                                "value": "0x0bc0e0fcc6b9da4988cf1d13ad1e601a94256fc1"
                            },
                            {
                                "decimalAvailable": true,
                                "name": "value",
                                "type": "uint256",
                                "value": "266,000,000,000,000,000,000"
                            }
                        ],
                        "signature": "Transfer(address,address,uint256)"
                    },
                    "id": 1,
                    "logData": "0x00000000000000000000000000000000000000000000000e6b7dd6abede80000",
                    "logDecoded": true,
                    "operation": "EVENT",
                    "revert": false,
                    "status": true,
                    "topics": [
                        "0xddf252ad1be2c89b69c2b068fc378daa952ba7f163c4a11628f55a4df523b3ef",
                        "0x000000000000000000000000b6a3f4411f0441a4be2f458d52cb8ee13cfc901b",
                        "0x0000000000000000000000000bc0e0fcc6b9da4988cf1d13ad1e601a94256fc1"
                    ]
                },
                "nodeType": 1
            }
        },
        "gasFlame": [
            {
                "children": [
                    {
                        "children": [
                            {
                                "children": [],
                                "depth": 0,
                                "name": "Initial Gas",
                                "value": 23256
                            },
                            {
                                "children": [],
                                "depth": 0,
                                "name": "Executed Gas",
                                "value": 14710
                            }
                        ],
                        "depth": -1,
                        "name": "Actual Gas Used",
                        "value": 37966
                    },
                    {
                        "children": [],
                        "depth": -1,
                        "name": "Refunded Gas",
                        "value": 0
                    }
                ],
                "depth": -2,
                "name": "Total Gas",
                "value": 37966
            }
        ],
        "isConfirmed": true,
        "mainTrace": [
            {
                "children": [
                    {
                        "children": [
                            {
                                "children": [],
                                "depth": 1,
                                "id": 1,
                                "order": 1
                            }
                        ],
                        "depth": 0,
                        "id": 0,
                        "order": 0
                    }
                ],
                "depth": -1,
                "id": -1,
                "order": -1
            }
        ],
        "mainTraceNodeCount": 2,
        "parentIdMap": {
            "0": -1,
            "1": 0
        },
        "tidyTrace": [
            {
                "children": [
                    {
                        "children": [
                            {
                                "children": [],
                                "depth": 1,
                                "id": 1,
                                "order": 1
                            }
                        ],
                        "depth": 0,
                        "id": 0,
                        "order": 0
                    }
                ],
                "depth": -1,
                "id": -1,
                "order": -1
            }
        ],
        "tidyTraceNodeCount": 2
    },
    "state_change": {
        "stateChanges": [
            {
                "address": "0x62b9f8741bf53a6986a5411c0557c30f6f11f3af",
                "erc": "ERC-20",
                "slots": [
                    {
                        "current": "0x000000000000000000000000000000000000000000001215ac09dd5324ed8000",
                        "key": "0xd17b9186f9c5d03ad4b3fff326a0a7c0f6b65fc0c3d118811a81866a6e7c62cc",
                        "prev": "0x0000000000000000000000000000000000000000000012241787b3ff12d58000"
                    },
                    {
                        "current": "0x000000000000000000000000000000000000000000000063bf214137a6f00000",
                        "key": "0x27b1b5969e4f6c7c7f1d7d6ae00d8488d11fa6dcf1b91971f2e022de317f0e5d",
                        "prev": "0x00000000000000000000000000000000000000000000005553a36a8bb9080000"
                    }
                ],
                "storageVariables": [
                    {
                        "name": "balanceOf",
                        "type": "mapping(address => uint256)",
                        "value": {
                            "pairs": [
                                {
                                    "key": "0x0bc0e0fcc6b9da4988cf1d13ad1e601a94256fc1",
                                    "value": {
                                        "current": "1840000024140001050624",
                                        "prev": "1574000024140001050624",
                                        "typeTag": 1
                                    }
                                },
                                {
                                    "key": "0xb6a3f4411f0441a4be2f458d52cb8ee13cfc901b",
                                    "value": {
                                        "current": "85402375000000000000000",
                                        "prev": "85668375000000000000000",
                                        "typeTag": 1
                                    }
                                }
                            ],
                            "typeTag": 4
                        }
                    }
                ]
            }
        ]
    }
}