{
    "balance_change": {
        "balanceChanges": [
            {
                "account": "0x3d6afb554e536808087797cf5a2a1a216261aa86",
                "assets": [
                    {
                        "address": "0xeeeeeeeeeeeeeeeeeeeeeeeeeeeeeeeeeeeeeeee",
                        "amount": "0.4",
                        "iconUrl": "https://assets.blocksec.com/image/1663669189317-3.png",
                        "isERC1155": false,
                        "isERC721": false,
                        "sign": false,
                        "value": "1323.896"
                    },
                    {
                        "address": "0x23d29535dd1a10d8783f76a5bd32c860262b8191",
                        "amount": "1",
                        "iconUrl": "",
                        "isERC1155": false,
                        "isERC721": true,
                        "sign": true,
                        "tokenID": "3156",
                        "value": ""
                    },
                    {
                        "address": "0x23d29535dd1a10d8783f76a5bd32c860262b8191",
                        "amount": "1",
                        "iconUrl": "",
                        "isERC1155": false,
                        "isERC721": true,
                        "sign": true,
                        "tokenID": "3158",
                        "value": ""
                    },
                    {
                        "address": "0x23d29535dd1a10d8783f76a5bd32c860262b8191",
                        "amount": "1",
                        "iconUrl": "",
                        "isERC1155": false,
                        "isERC721": true,
                        "sign": true,
                        "tokenID": "3160",
                        "value": ""
                    },
                    {
                        "address": "0x23d29535dd1a10d8783f76a5bd32c860262b8191",
                        "amount": "1",
                        "iconUrl": "",
                        "isERC1155": false,
                        "isERC721": true,
                        "sign": true,
                        "tokenID": "3163",
                        "value": ""
                    },
                    {
                        "address": "0x23d29535dd1a10d8783f76a5bd32c860262b8191",
                        "amount": "1",
                        "iconUrl": "",
                        "isERC1155": false,
                        "isERC721": true,
                        "sign": true,
                        "tokenID": "3157",
                        "value": ""
                    },
                    {
                        "address": "0x23d29535dd1a10d8783f76a5bd32c860262b8191",
                        "amount": "1",
                        "iconUrl": "",
                        "isERC1155": false,
                        "isERC721": true,
                        "sign": true,
                        "tokenID": "3159",
                        "value": ""
                    },
                    {
                        "address": "0x23d29535dd1a10d8783f76a5bd32c860262b8191",
                        "amount": "1",
                        "iconUrl": "",
                        "isERC1155": false,
                        "isERC721": true,
                        "sign": true,
                        "tokenID": "3161",
                        "value": ""
                    },
                    {
                        "address": "0x23d29535dd1a10d8783f76a5bd32c860262b8191",
                        "amount": "1",
                        "iconUrl": "",
                        "isERC1155": false,
                        "isERC721": true,
                        "sign": true,
                        "tokenID": "3162",
                        "value": ""
                    },
                    {
                        "address": "0x23d29535dd1a10d8783f76a5bd32c860262b8191",
                        "amount": "1",
                        "iconUrl": "",
                        "isERC1155": false,
                        "isERC721": true,
                        "sign": true,
                        "tokenID": "3164",
                        "value": ""
                    },
                    {
                        "address": "0x23d29535dd1a10d8783f76a5bd32c860262b8191",
                        "amount": "1",
                        "iconUrl": "",
                        "isERC1155": false,
                        "isERC721": true,
                        "sign": true,
                        "tokenID": "3165",
                        "value": ""
                    }
                ]
            },
            {
                "account": "0x23d29535dd1a10d8783f76a5bd32c860262b8191",
                "assets": [
                    {
                        "address": "0xeeeeeeeeeeeeeeeeeeeeeeeeeeeeeeeeeeeeeeee",
                        "amount": "0.4",
                        "iconUrl": "https://assets.blocksec.com/image/1663669189317-3.png",
                        "isERC1155": false,
                        "isERC721": false,
                        "sign": true,
                        "value": "1323.896"
                    }
                ]
            },
            {
                "account": "0x0000000000000000000000000000000000000000",
                "assets": [
                    {
                        "address": "0x23d29535dd1a10d8783f76a5bd32c860262b8191",
                        "amount": "1",
                        "iconUrl": "",
                        "isERC1155": false,
                        "isERC721": true,
                        "sign": false,
                        "tokenID": "3163",
                        "value": ""
                    },
                    {
                        "address": "0x23d29535dd1a10d8783f76a5bd32c860262b8191",
                        "amount": "1",
                        "iconUrl": "",
                        "isERC1155": false,
                        "isERC721": true,
                        "sign": false,
                        "tokenID": "3156",
                        "value": ""
                    },
                    {
                        "address": "0x23d29535dd1a10d8783f76a5bd32c860262b8191",
                        "amount": "1",
                        "iconUrl": "",
                        "isERC1155": false,
                        "isERC721": true,
                        "sign": false,
                        "tokenID": "3157",
                        "value": ""
                    },
                    {
                        "address": "0x23d29535dd1a10d8783f76a5bd32c860262b8191",
                        "amount": "1",
                        "iconUrl": "",
                        "isERC1155": false,
                        "isERC721": true,
                        "sign": false,
                        "tokenID": "3158",
                        "value": ""
                    },
                    {
                        "address": "0x23d29535dd1a10d8783f76a5bd32c860262b8191",
                        "amount": "1",
                        "iconUrl": "",
                        "isERC1155": false,
                        "isERC721": true,
                        "sign": false,
                        "tokenID": "3159",
                        "value": ""
                    },
                    {
                        "address": "0x23d29535dd1a10d8783f76a5bd32c860262b8191",
                        "amount": "1",
                        "iconUrl": "",
                        "isERC1155": false,
                        "isERC721": true,
                        "sign": false,
                        "tokenID": "3160",
                        "value": ""
                    },
                    {
                        "address": "0x23d29535dd1a10d8783f76a5bd32c860262b8191",
                        "amount": "1",
                        "iconUrl": "",
                        "isERC1155": false,
                        "isERC721": true,
                        "sign": false,
                        "tokenID": "3161",
                        "value": ""
                    },
                    {
                        "address": "0x23d29535dd1a10d8783f76a5bd32c860262b8191",
                        "amount": "1",
                        "iconUrl": "",
                        "isERC1155": false,
                        "isERC721": true,
                        "sign": false,
                        "tokenID": "3162",
                        "value": ""
                    },
                    {
                        "address": "0x23d29535dd1a10d8783f76a5bd32c860262b8191",
                        "amount": "1",
                        "iconUrl": "",
                        "isERC1155": false,
                        "isERC721": true,
                        "sign": false,
                        "tokenID": "3164",
                        "value": ""
                    },
                    {
                        "address": "0x23d29535dd1a10d8783f76a5bd32c860262b8191",
                        "amount": "1",
                        "iconUrl": "",
                        "isERC1155": false,
                        "isERC721": true,
                        "sign": false,
                        "tokenID": "3165",
                        "value": ""
                    }
                ]
            }
        ]
    },
    "profile": {
        "basic_info": {
            "baseFee": "144.445313146",
            "blockNumber": 14007564,
            "callData": "0x379607f5000000000000000000000000000000000000000000000000000000000000000a",
            "debugEnable": true,
            "errorInfo": "",
            "eventCount": 10,
            "feeRecipient": "0xea674fdde714fd979de3edf0f56aa9716b898ec8",
            "formatValue": "0.4",
            "gasLimit": 466291,
            "gasPrice": "145.445313146",
            "gasUsed": 310861,
            "intTxnCount": 0,
            "internalRevert": false,
            "internalRevertMessage": "",
            "isContractCreation": false,
            "isFlashloan": false,
            "maxFee": "280.117666236",
            "nonce": 518,
            "overwritedBlockNumber": -1,
            "priorityFee": "1",
            "receiver": "0x23d29535dd1a10d8783f76a5bd32c860262b8191",
            "revertMessage": "",
            "sender": "0x3d6afb554e536808087797cf5a2a1a216261aa86",
            "simulationEnable": true,
            "sourceTxnHash": "0xfb7ec511c4b04378b1f5db6bbe6fd5517ce8c2c38f163c4e4e385fb3b1d76189",
            "status": true,
            "timestamp": "2022-01-15T03:05:37Z",
            "transactionFee": "0.045213275489878706",
            "txnHash": "0xfb7ec511c4b04378b1f5db6bbe6fd5517ce8c2c38f163c4e4e385fb3b1d76189",
            "txnIndex": 182,
            "type": 2,
            "value": "400000000000000000"
        },
        "fund_flow": [
            {
                "amount": "0.4",
                "from": "0x3d6afb554e536808087797cf5a2a1a216261aa86",
                "id": 1,
                "isERC1155": false,
                "isERC721": false,
                "isReverted": false,
                "order": 1,
                "to": "0x23d29535dd1a10d8783f76a5bd32c860262b8191",
                "token": "0xeeeeeeeeeeeeeeeeeeeeeeeeeeeeeeeeeeeeeeee"
            },
            {
                "amount": "1",
                "from": "0x0000000000000000000000000000000000000000",
                "id": 2,
                "isERC1155": false,
                "isERC721": true,
                "isReverted": false,
                "order": 2,
                "to": "0x3d6afb554e536808087797cf5a2a1a216261aa86",
                "token": "0x23d29535dd1a10d8783f76a5bd32c860262b8191",
                "tokenID": "3156"
            },
            {
                "amount": "1",
                "from": "0x0000000000000000000000000000000000000000",
                "id": 3,
                "isERC1155": false,
                "isERC721": true,
                "isReverted": false,
                "order": 3,
                "to": "0x3d6afb554e536808087797cf5a2a1a216261aa86",
                "token": "0x23d29535dd1a10d8783f76a5bd32c860262b8191",
                "tokenID": "3157"
            },
            {
                "amount": "1",
                "from": "0x0000000000000000000000000000000000000000",
                "id": 4,
                "isERC1155": false,
                "isERC721": true,
                "isReverted": false,
                "order": 4,
                "to": "0x3d6afb554e536808087797cf5a2a1a216261aa86",
                "token": "0x23d29535dd1a10d8783f76a5bd32c860262b8191",
                "tokenID": "3158"
            },
            {
                "amount": "1",
                "from": "0x0000000000000000000000000000000000000000",
                "id": 5,
                "isERC1155": false,
                "isERC721": true,
                "isReverted": false,
                "order": 5,
                "to": "0x3d6afb554e536808087797cf5a2a1a216261aa86",
                "token": "0x23d29535dd1a10d8783f76a5bd32c860262b8191",
                "tokenID": "3159"
            },
            {
                "amount": "1",
                "from": "0x0000000000000000000000000000000000000000",
                "id": 6,
                "isERC1155": false,
                "isERC721": true,
                "isReverted": false,
                "order": 6,
                "to": "0x3d6afb554e536808087797cf5a2a1a216261aa86",
                "token": "0x23d29535dd1a10d8783f76a5bd32c860262b8191",
                "tokenID": "3160"
            },
            {
                "amount": "1",
                "from": "0x0000000000000000000000000000000000000000",
                "id": 7,
                "isERC1155": false,
                "isERC721": true,
                "isReverted": false,
                "order": 7,
                "to": "0x3d6afb554e536808087797cf5a2a1a216261aa86",
                "token": "0x23d29535dd1a10d8783f76a5bd32c860262b8191",
                "tokenID": "3161"
            },
            {
                "amount": "1",
                "from": "0x0000000000000000000000000000000000000000",
                "id": 8,
                "isERC1155": false,
                "isERC721": true,
                "isReverted": false,
                "order": 8,
                "to": "0x3d6afb554e536808087797cf5a2a1a216261aa86",
                "token": "0x23d29535dd1a10d8783f76a5bd32c860262b8191",
                "tokenID": "3162"
            },
            {
                "amount": "1",
                "from": "0x0000000000000000000000000000000000000000",
                "id": 9,
                "isERC1155": false,
                "isERC721": true,
                "isReverted": false,
                "order": 9,
                "to": "0x3d6afb554e536808087797cf5a2a1a216261aa86",
                "token": "0x23d29535dd1a10d8783f76a5bd32c860262b8191",
                "tokenID": "3163"
            },
            {
                "amount": "1",
                "from": "0x0000000000000000000000000000000000000000",
                "id": 10,
                "isERC1155": false,
                "isERC721": true,
                "isReverted": false,
                "order": 10,
                "to": "0x3d6afb554e536808087797cf5a2a1a216261aa86",
                "token": "0x23d29535dd1a10d8783f76a5bd32c860262b8191",
                "tokenID": "3164"
            },
            {
                "amount": "1",
                "from": "0x0000000000000000000000000000000000000000",
                "id": 11,
                "isERC1155": false,
                "isERC721": true,
                "isReverted": false,
                "order": 11,
                "to": "0x3d6afb554e536808087797cf5a2a1a216261aa86",
                "token": "0x23d29535dd1a10d8783f76a5bd32c860262b8191",
                "tokenID": "3165"
            }
        ],
        "token_infos": [
            {
                "address": "0xc02aaa39b223fe8d0a0e5c4f27ead9083c756cc2",
                "decimals": 18
            },
            {
                "address": "0xeeeeeeeeeeeeeeeeeeeeeeeeeeeeeeeeeeeeeeee",
                "decimals": 18
            }
        ]
    },
    "address_label": {
        "labels": [
            {
                "address": "0x0000000000000000000000000000000000000004",
                "label": "Precompiled"
            },
            {
                "address": "0xeeeeeeeeeeeeeeeeeeeeeeeeeeeeeeeeeeeeeeee",
                "label": "Ether"
            },
            {
                "address": "0x23d29535dd1a10d8783f76a5bd32c860262b8191",
                "label": "Ape Runners (AR)"
            },
            {
                "address": "0x0000000000000000000000000000000000000001",
                "label": "Precompiled"
            },
            {
                "address": "0x0000000000000000000000000000000000000002",
                "label": "Precompiled"
            },
            {
                "address": "0x0000000000000000000000000000000000000003",
                "label": "Precompiled"
            }
        ]
    },
    "trace": {
        "accountLabels": null,
        "dataMap": {
            "-1": {
                "invocation": {
                    "address": "0x3d6afb554e536808087797cf5a2a1a216261aa86",
                    "callData": "",
                    "decodedMethod": null,
                    "errorInfo": "",
                    "fromAddress": "",
                    "gasUsed": 0,
                    "id": -1,
                    "methodDecoded": false,
                    "operation": "",
                    "output": "",
                    "revert": false,
                    "revertMessage": "",
                    "selector": "",
                    "status": false,
                    "value": ""
                },
                "nodeType": 0
            },
            "0": {
                "invocation": {
                    "address": "0x23d29535dd1a10d8783f76a5bd32c860262b8191",
                    "callData": "0x000000000000000000000000000000000000000000000000000000000000000a",
                    "decodedMethod": {
                        "callParams": [
                            {
                                "name": "amount_",
                                "type": "uint256",
                                "value": "10"
                            }
                        ],
                        "constructorArguments": "",
                        "name": "claim",
                        "returnParams": [],
                        "signature": "claim(uint256)"
                    },
                    "errorInfo": "",
                    "fromAddress": "0x3d6afb554e536808087797cf5a2a1a216261aa86",
                    "gasUsed": 310861,
                    "id": 0,
                    "methodDecoded": true,
                    "operation": "CALL",
                    "output": "",
                    "revert": false,
                    "revertMessage": "",
                    "selector": "0x379607f5",
                    "status": true,
                    "value": "0.4"
                },
                "nodeType": 0
            },
            "1": {
                "event": {
                    "contract": "0x23d29535dd1a10d8783f76a5bd32c860262b8191",
                    "decodedLog": {
                        "name": "Transfer",
                        "params": [
                            {
                                "name": "_from",
                                "type": "address",
                                "value": "0x0000000000000000000000000000000000000000"
                            },
                            {
                                "name": "_to",
                                "type": "address",
                                "value": "0x3d6afb554e536808087797cf5a2a1a216261aa86"
                            },
                            {
                                "decimalAvailable": true,
                                "name": "_tokenId",
                                "type": "uint256",
                                "value": "3,156"
                            }
                        ],
                        "signature": "Transfer(address,address,uint256)"
                    },
                    "id": 1,
                    "logData": "0x",
                    "logDecoded": true,
                    "operation": "EVENT",
                    "revert": false,
                    "status": true,
                    "topics": [
                        "0xddf252ad1be2c89b69c2b068fc378daa952ba7f163c4a11628f55a4df523b3ef",
                        "0x0000000000000000000000000000000000000000000000000000000000000000",
                        "0x0000000000000000000000003d6afb554e536808087797cf5a2a1a216261aa86",
                        "0x0000000000000000000000000000000000000000000000000000000000000c54"
                    ]
                },
                "nodeType": 1
            },
            "10": {
                "event": {
                    "contract": "0x23d29535dd1a10d8783f76a5bd32c860262b8191",
                    "decodedLog": {
                        "name": "Transfer",
                        "params": [
                            {
                                "name": "_from",
                                "type": "address",
                                "value": "0x0000000000000000000000000000000000000000"
                            },
                            {
                                "name": "_to",
                                "type": "address",
                                "value": "0x3d6afb554e536808087797cf5a2a1a216261aa86"
                            },
                            {
                                "decimalAvailable": true,
                                "name": "_tokenId",
                                "type": "uint256",
                                "value": "3,165"
                            }
                        ],
                        "signature": "Transfer(address,address,uint256)"
                    },
                    "id": 10,
                    "logData": "0x",
                    "logDecoded": true,
                    "operation": "EVENT",
                    "revert": false,
                    "status": true,
                    "topics": [
                        "0xddf252ad1be2c89b69c2b068fc378daa952ba7f163c4a11628f55a4df523b3ef",
                        "0x0000000000000000000000000000000000000000000000000000000000000000",
                        "0x0000000000000000000000003d6afb554e536808087797cf5a2a1a216261aa86",
                        "0x0000000000000000000000000000000000000000000000000000000000000c5d"
                    ]
                },
                "nodeType": 1
            },
            "2": {
                "event": {
                    "contract": "0x23d29535dd1a10d8783f76a5bd32c860262b8191",
                    "decodedLog": {
                        "name": "Transfer",
                        "params": [
                            {
                                "name": "_from",
                                "type": "address",
                                "value": "0x0000000000000000000000000000000000000000"
                            },
                            {
                                "name": "_to",
                                "type": "address",
                                "value": "0x3d6afb554e536808087797cf5a2a1a216261aa86"
                            },
                            {
                                "decimalAvailable": true,
                                "name": "_tokenId",
                                "type": "uint256",
                                "value": "3,157"
                            }
                        ],
                        "signature": "Transfer(address,address,uint256)"
                    },
                    "id": 2,
                    "logData": "0x",
                    "logDecoded": true,
                    "operation": "EVENT",
                    "revert": false,
                    "status": true,
                    "topics": [
                        "0xddf252ad1be2c89b69c2b068fc378daa952ba7f163c4a11628f55a4df523b3ef",
                        "0x0000000000000000000000000000000000000000000000000000000000000000",
                        "0x0000000000000000000000003d6afb554e536808087797cf5a2a1a216261aa86",
                        "0x0000000000000000000000000000000000000000000000000000000000000c55"
                    ]
                },
                "nodeType": 1
            },
            "3": {
                "event": {
                    "contract": "0x23d29535dd1a10d8783f76a5bd32c860262b8191",
                    "decodedLog": {
                        "name": "Transfer",
                        "params": [
                            {
                                "name": "_from",
                                "type": "address",
                                "value": "0x0000000000000000000000000000000000000000"
                            },
                            {
                                "name": "_to",
                                "type": "address",
                                "value": "0x3d6afb554e536808087797cf5a2a1a216261aa86"
                            },
                            {
                                "decimalAvailable": true,
                                "name": "_tokenId",
                                "type": "uint256",
                                "value": "3,158"
                            }
                        ],
                        "signature": "Transfer(address,address,uint256)"
                    },
                    "id": 3,
                    "logData": "0x",
                    "logDecoded": true,
                    "operation": "EVENT",
                    "revert": false,
                    "status": true,
                    "topics": [
                        "0xddf252ad1be2c89b69c2b068fc378daa952ba7f163c4a11628f55a4df523b3ef",
                        "0x0000000000000000000000000000000000000000000000000000000000000000",
                        "0x0000000000000000000000003d6afb554e536808087797cf5a2a1a216261aa86",
                        "0x0000000000000000000000000000000000000000000000000000000000000c56"
                    ]
                },
                "nodeType": 1
            },
            "4": {
                "event": {
                    "contract": "0x23d29535dd1a10d8783f76a5bd32c860262b8191",
                    "decodedLog": {
                        "name": "Transfer",
                        "params": [
                            {
                                "name": "_from",
                                "type": "address",
                                "value": "0x0000000000000000000000000000000000000000"
                            },
                            {
                                "name": "_to",
                                "type": "address",
                                "value": "0x3d6afb554e536808087797cf5a2a1a216261aa86"
                            },
                            {
                                "decimalAvailable": true,
                                "name": "_tokenId",
                                "type": "uint256",
                                "value": "3,159"
                            }
                        ],
                        "signature": "Transfer(address,address,uint256)"
                    },
                    "id": 4,
                    "logData": "0x",
                    "logDecoded": true,
                    "operation": "EVENT",
                    "revert": false,
                    "status": true,
                    "topics": [
                        "0xddf252ad1be2c89b69c2b068fc378daa952ba7f163c4a11628f55a4df523b3ef",
                        "0x0000000000000000000000000000000000000000000000000000000000000000",
                        "0x0000000000000000000000003d6afb554e536808087797cf5a2a1a216261aa86",
                        "0x0000000000000000000000000000000000000000000000000000000000000c57"
                    ]
                },
                "nodeType": 1
            },
            "5": {
                "event": {
                    "contract": "0x23d29535dd1a10d8783f76a5bd32c860262b8191",
                    "decodedLog": {
                        "name": "Transfer",
                        "params": [
                            {
                                "name": "_from",
                                "type": "address",
                                "value": "0x0000000000000000000000000000000000000000"
                            },
                            {
                                "name": "_to",
                                "type": "address",
                                "value": "0x3d6afb554e536808087797cf5a2a1a216261aa86"
                            },
                            {
                                "decimalAvailable": true,
                                "name": "_tokenId",
                                "type": "uint256",
                                "value": "3,160"
                            }
                        ],
                        "signature": "Transfer(address,address,uint256)"
                    },
                    "id": 5,
                    "logData": "0x",
                    "logDecoded": true,
                    "operation": "EVENT",
                    "revert": false,
                    "status": true,
                    "topics": [
                        "0xddf252ad1be2c89b69c2b068fc378daa952ba7f163c4a11628f55a4df523b3ef",
                        "0x0000000000000000000000000000000000000000000000000000000000000000",
                        "0x0000000000000000000000003d6afb554e536808087797cf5a2a1a216261aa86",
                        "0x0000000000000000000000000000000000000000000000000000000000000c58"
                    ]
                },
                "nodeType": 1
            },
            "6": {
                "event": {
                    "contract": "0x23d29535dd1a10d8783f76a5bd32c860262b8191",
                    "decodedLog": {
                        "name": "Transfer",
                        "params": [
                            {
                                "name": "_from",
                                "type": "address",
                                "value": "0x0000000000000000000000000000000000000000"
                            },
                            {
                                "name": "_to",
                                "type": "address",
                                "value": "0x3d6afb554e536808087797cf5a2a1a216261aa86"
                            },
                            {
                                "decimalAvailable": true,
                                "name": "_tokenId",
                                "type": "uint256",
                                "value": "3,161"
                            }
                        ],
                        "signature": "Transfer(address,address,uint256)"
                    },
                    "id": 6,
                    "logData": "0x",
                    "logDecoded": true,
                    "operation": "EVENT",
                    "revert": false,
                    "status": true,
                    "topics": [
                        "0xddf252ad1be2c89b69c2b068fc378daa952ba7f163c4a11628f55a4df523b3ef",
                        "0x0000000000000000000000000000000000000000000000000000000000000000",
                        "0x0000000000000000000000003d6afb554e536808087797cf5a2a1a216261aa86",
                        "0x0000000000000000000000000000000000000000000000000000000000000c59"
                    ]
                },
                "nodeType": 1
            },
            "7": {
                "event": {
                    "contract": "0x23d29535dd1a10d8783f76a5bd32c860262b8191",
                    "decodedLog": {
                        "name": "Transfer",
                        "params": [
                            {
                                "name": "_from",
                                "type": "address",
                                "value": "0x0000000000000000000000000000000000000000"
                            },
                            {
                                "name": "_to",
                                "type": "address",
                                "value": "0x3d6afb554e536808087797cf5a2a1a216261aa86"
                            },
                            {
                                "decimalAvailable": true,
                                "name": "_tokenId",
                                "type": "uint256",
                                "value": "3,162"
                            }
                        ],
                        "signature": "Transfer(address,address,uint256)"
                    },
                    "id": 7,
                    "logData": "0x",
                    "logDecoded": true,
                    "operation": "EVENT",
                    "revert": false,
                    "status": true,
                    "topics": [
                        "0xddf252ad1be2c89b69c2b068fc378daa952ba7f163c4a11628f55a4df523b3ef",
                        "0x0000000000000000000000000000000000000000000000000000000000000000",
                        "0x0000000000000000000000003d6afb554e536808087797cf5a2a1a216261aa86",
                        "0x0000000000000000000000000000000000000000000000000000000000000c5a"
                    ]
                },
                "nodeType": 1
            },
            "8": {
                "event": {
                    "contract": "0x23d29535dd1a10d8783f76a5bd32c860262b8191",
                    "decodedLog": {
                        "name": "Transfer",
                        "params": [
                            {
                                "name": "_from",
                                "type": "address",
                                "value": "0x0000000000000000000000000000000000000000"
                            },
                            {
                                "name": "_to",
                                "type": "address",
                                "value": "0x3d6afb554e536808087797cf5a2a1a216261aa86"
                            },
                            {
                                "decimalAvailable": true,
                                "name": "_tokenId",
                                "type": "uint256",
                                "value": "3,163"
                            }
                        ],
                        "signature": "Transfer(address,address,uint256)"
                    },
                    "id": 8,
                    "logData": "0x",
                    "logDecoded": true,
                    "operation": "EVENT",
                    "revert": false,
                    "status": true,
                    "topics": [
                        "0xddf252ad1be2c89b69c2b068fc378daa952ba7f163c4a11628f55a4df523b3ef",
                        "0x0000000000000000000000000000000000000000000000000000000000000000",
                        "0x0000000000000000000000003d6afb554e536808087797cf5a2a1a216261aa86",
                        "0x0000000000000000000000000000000000000000000000000000000000000c5b"
                    ]
                },
                "nodeType": 1
            },
            "9": {
                "event": {
                    "contract": "0x23d29535dd1a10d8783f76a5bd32c860262b8191",
                    "decodedLog": {
                        "name": "Transfer",
                        "params": [
                            {
                                "name": "_from",
                                "type": "address",
                                "value": "0x0000000000000000000000000000000000000000"
                            },
                            {
                                "name": "_to",
                                "type": "address",
                                "value": "0x3d6afb554e536808087797cf5a2a1a216261aa86"
                            },
                            {
                                "decimalAvailable": true,
                                "name": "_tokenId",
                                "type": "uint256",
                                "value": "3,164"
                            }
                        ],
                        "signature": "Transfer(address,address,uint256)"
                    },
                    "id": 9,
                    "logData": "0x",
                    "logDecoded": true,
                    "operation": "EVENT",
                    "revert": false,
                    "status": true,
                    "topics": [
                        "0xddf252ad1be2c89b69c2b068fc378daa952ba7f163c4a11628f55a4df523b3ef",
                        "0x0000000000000000000000000000000000000000000000000000000000000000",
                        "0x0000000000000000000000003d6afb554e536808087797cf5a2a1a216261aa86",
                        "0x0000000000000000000000000000000000000000000000000000000000000c5c"
                    ]
                },
                "nodeType": 1
            }
        },
        "gasFlame": [
            {
                "children": [
                    {
                        "children": [
                            {
                                "children": [],
                                "depth": 0,
                                "name": "Initial Gas",
                                "value": 21204
                            },
                            {
                                "children": [],
                                "depth": 0,
                                "name": "Executed Gas",
                                "value": 289657
                            }
                        ],
                        "depth": -1,
                        "name": "Actual Gas Used",
                        "value": 310861
                    },
                    {
                        "children": [],
                        "depth": -1,
                        "name": "Refunded Gas",
                        "value": 0
                    }
                ],
                "depth": -2,
                "name": "Total Gas",
                "value": 310861
            }
        ],
        "isConfirmed": true,
        "mainTrace": [
            {
                "children": [
                    {
                        "children": [
                            {
                                "children": [],
                                "depth": 1,
                                "id": 1,
                                "order": 1
                            },
                            {
                                "children": [],
                                "depth": 1,
                                "id": 2,
                                "order": 2
                            },
                            {
                                "children": [],
                                "depth": 1,
                                "id": 3,
                                "order": 3
                            },
                            {
                                "children": [],
                                "depth": 1,
                                "id": 4,
                                "order": 4
                            },
                            {
                                "children": [],
                                "depth": 1,
                                "id": 5,
                                "order": 5
                            },
                            {
                                "children": [],
                                "depth": 1,
                                "id": 6,
                                "order": 6
                            },
                            {
                                "children": [],
                                "depth": 1,
                                "id": 7,
                                "order": 7
                            },
                            {
                                "children": [],
                                "depth": 1,
                                "id": 8,
                                "order": 8
                            },
                            {
                                "children": [],
                                "depth": 1,
                                "id": 9,
                                "order": 9
                            },
                            {
                                "children": [],
                                "depth": 1,
                                "id": 10,
                                "order": 10
                            }
                        ],
                        "depth": 0,
                        "id": 0,
                        "order": 0
                    }
                ],
                "depth": -1,
                "id": -1,
                "order": -1
            }
        ],
        "mainTraceNodeCount": 11,
        "parentIdMap": {
            "0": -1,
            "1": 0,
            "10": 0,
            "2": 0,
            "3": 0,
            "4": 0,
            "5": 0,
            "6": 0,
            "7": 0,
            "8": 0,
            "9": 0
        },
        "tidyTrace": [
            {
                "children": [
                    {
                        "children": [
                            {
                                "children": [],
                                "depth": 1,
                                "id": 1,
                                "order": 1
                            },
                            {
                                "children": [],
                                "depth": 1,
                                "id": 2,
                                "order": 2
                            },
                            {
                                "children": [],
                                "depth": 1,
                                "id": 3,
                                "order": 3
                            },
                            {
                                "children": [],
                                "depth": 1,
                                "id": 4,
                                "order": 4
                            },
                            {
                                "children": [],
                                "depth": 1,
                                "id": 5,
                                "order": 5
                            },
                            {
                                "children": [],
                                "depth": 1,
                                "id": 6,
                                "order": 6
                            },
                            {
                                "children": [],
                                "depth": 1,
                                "id": 7,
                                "order": 7
                            },
                            {
                                "children": [],
                                "depth": 1,
                                "id": 8,
                                "order": 8
                            },
                            {
                                "children": [],
                                "depth": 1,
                                "id": 9,
                                "order": 9
                            },
                            {
                                "children": [],
                                "depth": 1,
                                "id": 10,
                                "order": 10
                            }
                        ],
                        "depth": 0,
                        "id": 0,
                        "order": 0
                    }
                ],
                "depth": -1,
                "id": -1,
                "order": -1
            }
        ],
        "tidyTraceNodeCount": 11
    },
    "state_change": {
        "stateChanges": [
            {
                "address": "0x23d29535dd1a10d8783f76a5bd32c860262b8191",
                "erc": "ERC-721",
                "slots": [
                    {
                        "current": "0x0000000000000000000000003d6afb554e536808087797cf5a2a1a216261aa86",
                        "key": "0x036b6384b5eca791c62761152d0c79bb0604c104a5fb6f4eb0703f3154bb4a04",
                        "prev": "0x0000000000000000000000000000000000000000000000000000000000000000"
                    },
                    {
                        "current": "0x0000000000000000000000003d6afb554e536808087797cf5a2a1a216261aa86",
                        "key": "0x036b6384b5eca791c62761152d0c79bb0604c104a5fb6f4eb0703f3154bb4a08",
                        "prev": "0x0000000000000000000000000000000000000000000000000000000000000000"
                    },
                    {
                        "current": "0x0000000000000000000000003d6afb554e536808087797cf5a2a1a216261aa86",
                        "key": "0x036b6384b5eca791c62761152d0c79bb0604c104a5fb6f4eb0703f3154bb4a0a",
                        "prev": "0x0000000000000000000000000000000000000000000000000000000000000000"
                    },
                    {
                        "current": "0x0000000000000000000000003d6afb554e536808087797cf5a2a1a216261aa86",
                        "key": "0x036b6384b5eca791c62761152d0c79bb0604c104a5fb6f4eb0703f3154bb4a0d",
                        "prev": "0x0000000000000000000000000000000000000000000000000000000000000000"
                    },
                    {
                        "current": "0x0000000000000000000000003d6afb554e536808087797cf5a2a1a216261aa86",
                        "key": "0x036b6384b5eca791c62761152d0c79bb0604c104a5fb6f4eb0703f3154bb4a0c",
                        "prev": "0x0000000000000000000000000000000000000000000000000000000000000000"
                    },
                    {
                        "current": "0x0000000000000000000000003d6afb554e536808087797cf5a2a1a216261aa86",
                        "key": "0x036b6384b5eca791c62761152d0c79bb0604c104a5fb6f4eb0703f3154bb4a06",
                        "prev": "0x0000000000000000000000000000000000000000000000000000000000000000"
                    },
                    {
                        "current": "0x0000000000000000000000003d6afb554e536808087797cf5a2a1a216261aa86",
                        "key": "0x036b6384b5eca791c62761152d0c79bb0604c104a5fb6f4eb0703f3154bb4a09",
                        "prev": "0x0000000000000000000000000000000000000000000000000000000000000000"
                    },
                    {
                        "current": "0x0000000000000000000000003d6afb554e536808087797cf5a2a1a216261aa86",
                        "key": "0x036b6384b5eca791c62761152d0c79bb0604c104a5fb6f4eb0703f3154bb4a0b",
                        "prev": "0x0000000000000000000000000000000000000000000000000000000000000000"
                    },
                    {
                        "current": "0x0000000000000000000000000000000000000000000000000000000000000c5e",
                        "key": "0x0000000000000000000000000000000000000000000000000000000000000005",
                        "prev": "0x0000000000000000000000000000000000000000000000000000000000000c54"
                    },
                    {
                        "current": "0x000000000000000000000000000000000000000000000000000000000000000a",
                        "key": "0x305d9a0b02fcec7fde0d0f41200bd063ca8c416697e5ef9355ae29280d3a2463",
                        "prev": "0x0000000000000000000000000000000000000000000000000000000000000000"
                    },
                    {
                        "current": "0x0000000000000000000000003d6afb554e536808087797cf5a2a1a216261aa86",
                        "key": "0x036b6384b5eca791c62761152d0c79bb0604c104a5fb6f4eb0703f3154bb4a05",
                        "prev": "0x0000000000000000000000000000000000000000000000000000000000000000"
                    },
                    {
                        "current": "0x0000000000000000000000003d6afb554e536808087797cf5a2a1a216261aa86",
                        "key": "0x036b6384b5eca791c62761152d0c79bb0604c104a5fb6f4eb0703f3154bb4a07",
                        "prev": "0x0000000000000000000000000000000000000000000000000000000000000000"
                    }
                ],
                "storageVariables": [
                    {
                        "name": "_balanceOf",
                        "type": "mapping(address => uint256)",
                        "value": {
                            "pairs": [
                                {
                                    "key": "0x3d6afb554e536808087797cf5a2a1a216261aa86",
                                    "value": {
                                        "current": "10",
                                        "prev": "0",
                                        "typeTag": 1
                                    }
                                }
                            ],
                            "typeTag": 4
                        }
                    },
                    {
                        "name": "_owners",
                        "type": "address[]",
                        "value": {
                            "elemType": "address",
                            "elems": [
                                {
                                    "index": 3156,
                                    "value": {
                                        "current": "0x3d6afb554e536808087797cf5a2a1a216261aa86",
                                        "prev": "0x0000000000000000000000000000000000000000",
                                        "typeTag": 1
                                    }
                                },
                                {
                                    "index": 3157,
                                    "value": {
                                        "current": "0x3d6afb554e536808087797cf5a2a1a216261aa86",
                                        "prev": "0x0000000000000000000000000000000000000000",
                                        "typeTag": 1
                                    }
                                },
                                {
                                    "index": 3158,
                                    "value": {
                                        "current": "0x3d6afb554e536808087797cf5a2a1a216261aa86",
                                        "prev": "0x0000000000000000000000000000000000000000",
                                        "typeTag": 1
                                    }
                                },
                                {
                                    "index": 3159,
                                    "value": {
                                        "current": "0x3d6afb554e536808087797cf5a2a1a216261aa86",
                                        "prev": "0x0000000000000000000000000000000000000000",
                                        "typeTag": 1
                                    }
                                },
                                {
                                    "index": 3160,
                                    "value": {
                                        "current": "0x3d6afb554e536808087797cf5a2a1a216261aa86",
                                        "prev": "0x0000000000000000000000000000000000000000",
                                        "typeTag": 1
                                    }
                                },
                                {
                                    "index": 3161,
                                    "value": {
                                        "current": "0x3d6afb554e536808087797cf5a2a1a216261aa86",
                                        "prev": "0x0000000000000000000000000000000000000000",
                                        "typeTag": 1
                                    }
                                },
                                {
                                    "index": 3162,
                                    "value": {
                                        "current": "0x3d6afb554e536808087797cf5a2a1a216261aa86",
                                        "prev": "0x0000000000000000000000000000000000000000",
                                        "typeTag": 1
                                    }
                                },
                                {
                                    "index": 3163,
                                    "value": {
                                        "current": "0x3d6afb554e536808087797cf5a2a1a216261aa86",
                                        "prev": "0x0000000000000000000000000000000000000000",
                                        "typeTag": 1
                                    }
                                },
                                {
                                    "index": 3164,
                                    "value": {
                                        "current": "0x3d6afb554e536808087797cf5a2a1a216261aa86",
                                        "prev": "0x0000000000000000000000000000000000000000",
                                        "typeTag": 1
                                    }
                                },
                                {
                                    "index": 3165,
                                    "value": {
                                        "current": "0x3d6afb554e536808087797cf5a2a1a216261aa86",
                                        "prev": "0x0000000000000000000000000000000000000000",
                                        "typeTag": 1
                                    }
                                }
                            ],
                            "typeTag": 2
                        }
                    }
                ]
            }
        ]
    }
}