{
    "balance_change": {
        "balanceChanges": [
            {
                "account": "0x887b2104beb71880cb2b9094ee283d8db442826c",
                "assets": [
                    {
                        "address": "0x9e9801bace260f58407c15e6e515c45918756e0f",
                        "amount": "270",
                        "iconUrl": "",
                        "isERC1155": false,
                        "isERC721": false,
                        "sign": false,
                        "value": ""
                    }
                ]
            },
            {
                "account": "0x283a1bb2d5efce91edb6c86ec7d39971e2ac2cb9",
                "assets": [
                    {
                        "address": "0x9e9801bace260f58407c15e6e515c45918756e0f",
                        "amount": "270",
                        "iconUrl": "",
                        "isERC1155": false,
                        "isERC721": false,
                        "sign": true,
                        "value": ""
                    }
                ]
            }
        ]
    },
    "profile": {
        "basic_info": {
            "baseFee": "",
            "blockNumber": 9811006,
            "callData": "0xa9059cbb000000000000000000000000283a1bb2d5efce91edb6c86ec7d39971e2ac2cb90000000000000000000000000000000000000000000000000000000649534e00",
            "debugEnable": true,
            "errorInfo": "",
            "eventCount": 1,
            "feeRecipient": "0xea674fdde714fd979de3edf0f56aa9716b898ec8",
            "formatValue": "0",
            "gasLimit": 86432,
            "gasPrice": "8.800000932",
            "gasUsed": 37152,
            "intTxnCount": 0,
            "internalRevert": false,
            "internalRevertMessage": "",
            "isContractCreation": false,
            "isFlashloan": false,
            "maxFee": "",
            "nonce": 114510,
            "overwritedBlockNumber": -1,
            "priorityFee": "",
            "receiver": "0x9e9801bace260f58407c15e6e515c45918756e0f",
            "revertMessage": "",
            "sender": "0x887b2104beb71880cb2b9094ee283d8db442826c",
            "simulationEnable": true,
            "sourceTxnHash": "0xfc8dd0adda55188207bb98dbb5e2d5df5250ab7d07af0aa2509f77f04acc8318",
            "status": true,
            "timestamp": "2020-04-05T08:37:04Z",
            "transactionFee": "0.000326937634625664",
            "txnHash": "0xfc8dd0adda55188207bb98dbb5e2d5df5250ab7d07af0aa2509f77f04acc8318",
            "txnIndex": 229,
            "type": 0,
            "value": "0"
        },
        "fund_flow": [
            {
                "amount": "270",
                "from": "0x887b2104beb71880cb2b9094ee283d8db442826c",
                "id": 1,
                "isERC1155": false,
                "isERC721": false,
                "isReverted": false,
                "order": 1,
                "to": "0x283a1bb2d5efce91edb6c86ec7d39971e2ac2cb9",
                "token": "0x9e9801bace260f58407c15e6e515c45918756e0f"
            }
        ],
        "token_infos": [
            {
                "address": "0x9e9801bace260f58407c15e6e515c45918756e0f",
                "decimals": 8
            },
            {
                "address": "0xc02aaa39b223fe8d0a0e5c4f27ead9083c756cc2",
                "decimals": 18
            },
            {
                "address": "0xeeeeeeeeeeeeeeeeeeeeeeeeeeeeeeeeeeeeeeee",
                "decimals": 18
            }
        ]
    },
    "address_label": {
        "labels": [
            {
                "address": "0x0000000000000000000000000000000000000004",
                "label": "Precompiled"
            },
            {
                "address": "0xeeeeeeeeeeeeeeeeeeeeeeeeeeeeeeeeeeeeeeee",
                "label": "Ether"
            },
            {
                "address": "0x9e9801bace260f58407c15e6e515c45918756e0f",
                "label": "WorldUnitedCoins (WUC)"
            },
            {
                "address": "0x0000000000000000000000000000000000000001",
                "label": "Precompiled"
            },
            {
                "address": "0x0000000000000000000000000000000000000002",
                "label": "Precompiled"
            },
            {
                "address": "0x0000000000000000000000000000000000000003",
                "label": "Precompiled"
            }
        ]
    },
    "trace": {
        "accountLabels": null,
        "dataMap": {
            "-1": {
                "invocation": {
                    "address": "0x887b2104beb71880cb2b9094ee283d8db442826c",
                    "callData": "",
                    "decodedMethod": null,
                    "errorInfo": "",
                    "fromAddress": "",
                    "gasUsed": 0,
                    "id": -1,
                    "methodDecoded": false,
                    "operation": "",
                    "output": "",
                    "revert": false,
                    "revertMessage": "",
                    "selector": "",
                    "status": false,
                    "value": ""
                },
                "nodeType": 0
            },
            "0": {
                "invocation": {
                    "address": "0x9e9801bace260f58407c15e6e515c45918756e0f",
                    "callData": "0x000000000000000000000000283a1bb2d5efce91edb6c86ec7d39971e2ac2cb90000000000000000000000000000000000000000000000000000000649534e00",
                    "decodedMethod": {
                        "callParams": [
                            {
                                "name": "to",
                                "type": "address",
                                "value": "0x283a1bb2d5efce91edb6c86ec7d39971e2ac2cb9"
                            },
                            {
                                "decimalAvailable": true,
                                "name": "tokens",
                                "type": "uint256",
                                "value": "27,000,000,000"
                            }
                        ],
                        "constructorArguments": "",
                        "name": "transfer",
                        "returnParams": [
                            {
                                "name": "success",
                                "type": "bool",
                                "value": true
                            }
                        ],
                        "signature": "transfer(address,uint256)"
                    },
                    "errorInfo": "",
                    "fromAddress": "0x887b2104beb71880cb2b9094ee283d8db442826c",
                    "gasUsed": 37152,
                    "id": 0,
                    "methodDecoded": true,
                    "operation": "CALL",
                    "output": "0x0000000000000000000000000000000000000000000000000000000000000001",
                    "revert": false,
                    "revertMessage": "",
                    "selector": "0xa9059cbb",
                    "status": true,
                    "value": "0"
                },
                "nodeType": 0
            },
            "1": {
                "event": {
                    "contract": "0x9e9801bace260f58407c15e6e515c45918756e0f",
                    "decodedLog": {
                        "name": "Transfer",
                        "params": [
                            {
                                "name": "from",
                                "type": "address",
                                "value": "0x887b2104beb71880cb2b9094ee283d8db442826c"
                            },
                            {
                                "name": "to",
                                "type": "address",
                                "value": "0x283a1bb2d5efce91edb6c86ec7d39971e2ac2cb9"
                            },
                            {
                                "decimalAvailable": true,
                                "name": "tokens",
                                "type": "uint256",
                                "value": "27,000,000,000"
                            }
                        ],
                        "signature": "Transfer(address,address,uint256)"
                    },
                    "id": 1,
                    "logData": "0x0000000000000000000000000000000000000000000000000000000649534e00",
                    "logDecoded": true,
                    "operation": "EVENT",
                    "revert": false,
                    "status": true,
                    "topics": [
                        "0xddf252ad1be2c89b69c2b068fc378daa952ba7f163c4a11628f55a4df523b3ef",
                        "0x000000000000000000000000887b2104beb71880cb2b9094ee283d8db442826c",
                        "0x000000000000000000000000283a1bb2d5efce91edb6c86ec7d39971e2ac2cb9"
                    ]
                },
                "nodeType": 1
            }
        },
        "gasFlame": [
            {
                "children": [
                    {
                        "children": [
                            {
                                "children": [],
                                "depth": 0,
                                "name": "Initial Gas",
                                "value": 21608
                            },
                            {
                                "children": [],
                                "depth": 0,
                                "name": "Executed Gas",
                                "value": 15544
                            }
                        ],
                        "depth": -1,
                        "name": "Actual Gas Used",
                        "value": 37152
                    },
                    {
                        "children": [],
                        "depth": -1,
                        "name": "Refunded Gas",
                        "value": 0
                    }
                ],
                "depth": -2,
                "name": "Total Gas",
                "value": 37152
            }
        ],
        "isConfirmed": true,
        "mainTrace": [
            {
                "children": [
                    {
                        "children": [
                            {
                                "children": [],
                                "depth": 1,
                                "id": 1,
                                "order": 1
                            }
                        ],
                        "depth": 0,
                        "id": 0,
                        "order": 0
                    }
                ],
                "depth": -1,
                "id": -1,
                "order": -1
            }
        ],
        "mainTraceNodeCount": 2,
        "parentIdMap": {
            "0": -1,
            "1": 0
        },
        "tidyTrace": [
            {
                "children": [
                    {
                        "children": [
                            {
                                "children": [],
                                "depth": 1,
                                "id": 1,
                                "order": 1
                            }
                        ],
                        "depth": 0,
                        "id": 0,
                        "order": 0
                    }
                ],
                "depth": -1,
                "id": -1,
                "order": -1
            }
        ],
        "tidyTraceNodeCount": 2
    },
    "state_change": {
        "stateChanges": [
            {
                "address": "0x9e9801bace260f58407c15e6e515c45918756e0f",
                "erc": "ERC-20",
                "slots": [
                    {
                        "current": "0x000000000000000000000000000000000000000000000000000096798e250501",
                        "key": "0x9006e548de44686d178512afc5107dd0f0f855416f6ba4ea2ceb75368350cbbf",
                        "prev": "0x0000000000000000000000000000000000000000000000000000967fd7785301"
                    },
                    {
                        "current": "0x0000000000000000000000000000000000000000000000000000008a4d28b400",
                        "key": "0xb943e975e6aa9bbd7abbe7ecd54881649215474a0b5a66a66bd16a3b1d7abfdc",
                        "prev": "0x0000000000000000000000000000000000000000000000000000008403d56600"
                    }
                ],
                "storageVariables": [
                    {
                        "name": "balances",
                        "type": "mapping(address => uint256)",
                        "value": {
                            "pairs": [
                                {
                                    "key": "0x283a1bb2d5efce91edb6c86ec7d39971e2ac2cb9",
                                    "value": {
                                        "current": "594000000000",
                                        "prev": "567000000000",
                                        "typeTag": 1
                                    }
                                },
                                {
                                    "key": "0x887b2104beb71880cb2b9094ee283d8db442826c",
                                    "value": {
                                        "current": "165448820000001",
                                        "prev": "165475820000001",
                                        "typeTag": 1
                                    }
                                }
                            ],
                            "typeTag": 4
                        }
                    }
                ]
            }
        ]
    }
}