{
    "balance_change": {
        "balanceChanges": [
            {
                "account": "0xa5f3d98a05970a2110120712513a8a139a216dd1",
                "assets": [
                    {
                        "address": "0x7ba8a5d59b21390a70b2ba968a183712e12a049c",
                        "amount": "368",
                        "iconUrl": "",
                        "isERC1155": false,
                        "isERC721": false,
                        "sign": false,
                        "value": ""
                    }
                ]
            },
            {
                "account": "0x7a0359d42b83cec2002d54e3e7cd35dc1c87b0d0",
                "assets": [
                    {
                        "address": "0x7ba8a5d59b21390a70b2ba968a183712e12a049c",
                        "amount": "368",
                        "iconUrl": "",
                        "isERC1155": false,
                        "isERC721": false,
                        "sign": true,
                        "value": ""
                    }
                ]
            }
        ]
    },
    "profile": {
        "basic_info": {
            "baseFee": "",
            "blockNumber": 6159385,
            "callData": "0xa9059cbb0000000000000000000000007a0359d42b83cec2002d54e3e7cd35dc1c87b0d0000000000000000000000000000000000000000000000013f306a2409fc00000",
            "debugEnable": true,
            "errorInfo": "",
            "eventCount": 1,
            "feeRecipient": "0x5a0b54d5dc17e0aadc383d2db43b0a0d3e029c4c",
            "formatValue": "0",
            "gasLimit": 70000,
            "gasPrice": "6",
            "gasUsed": 51897,
            "intTxnCount": 0,
            "internalRevert": false,
            "internalRevertMessage": "",
            "isContractCreation": false,
            "isFlashloan": false,
            "maxFee": "",
            "nonce": 311,
            "overwritedBlockNumber": -1,
            "priorityFee": "",
            "receiver": "0x7ba8a5d59b21390a70b2ba968a183712e12a049c",
            "revertMessage": "",
            "sender": "0xa5f3d98a05970a2110120712513a8a139a216dd1",
            "simulationEnable": true,
            "sourceTxnHash": "0xfce4aed96bb3465b010bfe31020117304758fa7bef9d623c8057406a96bfd3d6",
            "status": true,
            "timestamp": "2018-08-16T19:00:08Z",
            "transactionFee": "0.000311382",
            "txnHash": "0xfce4aed96bb3465b010bfe31020117304758fa7bef9d623c8057406a96bfd3d6",
            "txnIndex": 54,
            "type": 0,
            "value": "0"
        },
        "fund_flow": [
            {
                "amount": "368",
                "from": "0xa5f3d98a05970a2110120712513a8a139a216dd1",
                "id": 1,
                "isERC1155": false,
                "isERC721": false,
                "isReverted": false,
                "order": 1,
                "to": "0x7a0359d42b83cec2002d54e3e7cd35dc1c87b0d0",
                "token": "0x7ba8a5d59b21390a70b2ba968a183712e12a049c"
            }
        ],
        "token_infos": [
            {
                "address": "0x7ba8a5d59b21390a70b2ba968a183712e12a049c",
                "decimals": 18
            },
            {
                "address": "0xc02aaa39b223fe8d0a0e5c4f27ead9083c756cc2",
                "decimals": 18
            },
            {
                "address": "0xeeeeeeeeeeeeeeeeeeeeeeeeeeeeeeeeeeeeeeee",
                "decimals": 18
            }
        ]
    },
    "address_label": {
        "labels": [
            {
                "address": "0x0000000000000000000000000000000000000004",
                "label": "Precompiled"
            },
            {
                "address": "0xeeeeeeeeeeeeeeeeeeeeeeeeeeeeeeeeeeeeeeee",
                "label": "Ether"
            },
            {
                "address": "0x7ba8a5d59b21390a70b2ba968a183712e12a049c",
                "label": "VerityToken (VTY)"
            },
            {
                "address": "0x0000000000000000000000000000000000000001",
                "label": "Precompiled"
            },
            {
                "address": "0x0000000000000000000000000000000000000002",
                "label": "Precompiled"
            },
            {
                "address": "0x0000000000000000000000000000000000000003",
                "label": "Precompiled"
            }
        ]
    },
    "trace": {
        "accountLabels": null,
        "dataMap": {
            "-1": {
                "invocation": {
                    "address": "0xa5f3d98a05970a2110120712513a8a139a216dd1",
                    "callData": "",
                    "decodedMethod": null,
                    "errorInfo": "",
                    "fromAddress": "",
                    "gasUsed": 0,
                    "id": -1,
                    "methodDecoded": false,
                    "operation": "",
                    "output": "",
                    "revert": false,
                    "revertMessage": "",
                    "selector": "",
                    "status": false,
                    "value": ""
                },
                "nodeType": 0
            },
            "0": {
                "invocation": {
                    "address": "0x7ba8a5d59b21390a70b2ba968a183712e12a049c",
                    "callData": "0x0000000000000000000000007a0359d42b83cec2002d54e3e7cd35dc1c87b0d0000000000000000000000000000000000000000000000013f306a2409fc00000",
                    "decodedMethod": {
                        "callParams": [
                            {
                                "name": "_to",
                                "type": "address",
                                "value": "0x7a0359d42b83cec2002d54e3e7cd35dc1c87b0d0"
                            },
                            {
                                "decimalAvailable": true,
                                "name": "_value",
                                "type": "uint256",
                                "value": "368,000,000,000,000,000,000"
                            }
                        ],
                        "constructorArguments": "",
                        "name": "transfer",
                        "returnParams": [
                            {
                                "name": "",
                                "type": "bool",
                                "value": true
                            }
                        ],
                        "signature": "transfer(address,uint256)"
                    },
                    "errorInfo": "",
                    "fromAddress": "0xa5f3d98a05970a2110120712513a8a139a216dd1",
                    "gasUsed": 51897,
                    "id": 0,
                    "methodDecoded": true,
                    "operation": "CALL",
                    "output": "0x0000000000000000000000000000000000000000000000000000000000000001",
                    "revert": false,
                    "revertMessage": "",
                    "selector": "0xa9059cbb",
                    "status": true,
                    "value": "0"
                },
                "nodeType": 0
            },
            "1": {
                "event": {
                    "contract": "0x7ba8a5d59b21390a70b2ba968a183712e12a049c",
                    "decodedLog": {
                        "name": "Transfer",
                        "params": [
                            {
                                "name": "from",
                                "type": "address",
                                "value": "0xa5f3d98a05970a2110120712513a8a139a216dd1"
                            },
                            {
                                "name": "to",
                                "type": "address",
                                "value": "0x7a0359d42b83cec2002d54e3e7cd35dc1c87b0d0"
                            },
                            {
                                "decimalAvailable": true,
                                "name": "value",
                                "type": "uint256",
                                "value": "368,000,000,000,000,000,000"
                            }
                        ],
                        "signature": "Transfer(address,address,uint256)"
                    },
                    "id": 1,
                    "logData": "0x000000000000000000000000000000000000000000000013f306a2409fc00000",
                    "logDecoded": true,
                    "operation": "EVENT",
                    "revert": false,
                    "status": true,
                    "topics": [
                        "0xddf252ad1be2c89b69c2b068fc378daa952ba7f163c4a11628f55a4df523b3ef",
                        "0x000000000000000000000000a5f3d98a05970a2110120712513a8a139a216dd1",
                        "0x0000000000000000000000007a0359d42b83cec2002d54e3e7cd35dc1c87b0d0"
                    ]
                },
                "nodeType": 1
            }
        },
        "gasFlame": [
            {
                "children": [
                    {
                        "children": [
                            {
                                "children": [],
                                "depth": 0,
                                "name": "Initial Gas",
                                "value": 23192
                            },
                            {
                                "children": [],
                                "depth": 0,
                                "name": "Executed Gas",
                                "value": 28705
                            }
                        ],
                        "depth": -1,
                        "name": "Actual Gas Used",
                        "value": 51897
                    },
                    {
                        "children": [],
                        "depth": -1,
                        "name": "Refunded Gas",
                        "value": 0
                    }
                ],
                "depth": -2,
                "name": "Total Gas",
                "value": 51897
            }
        ],
        "isConfirmed": true,
        "mainTrace": [
            {
                "children": [
                    {
                        "children": [
                            {
                                "children": [],
                                "depth": 1,
                                "id": 1,
                                "order": 1
                            }
                        ],
                        "depth": 0,
                        "id": 0,
                        "order": 0
                    }
                ],
                "depth": -1,
                "id": -1,
                "order": -1
            }
        ],
        "mainTraceNodeCount": 2,
        "parentIdMap": {
            "0": -1,
            "1": 0
        },
        "tidyTrace": [
            {
                "children": [
                    {
                        "children": [
                            {
                                "children": [],
                                "depth": 1,
                                "id": 1,
                                "order": 1
                            }
                        ],
                        "depth": 0,
                        "id": 0,
                        "order": 0
                    }
                ],
                "depth": -1,
                "id": -1,
                "order": -1
            }
        ],
        "tidyTraceNodeCount": 2
    },
    "state_change": {
        "stateChanges": [
            {
                "address": "0x7ba8a5d59b21390a70b2ba968a183712e12a049c",
                "erc": "ERC-20",
                "slots": [
                    {
                        "current": "0x00000000000000000000000000000000000000000002ecb41437e0db76100000",
                        "key": "0x7c8b2c9348faf8951351e1e27a07816dff60f95102b53ad1980d0398d8f4804a",
                        "prev": "0x00000000000000000000000000000000000000000002ecc8073e831c15d00000"
                    },
                    {
                        "current": "0x000000000000000000000000000000000000000000000013f306a2409fc00000",
                        "key": "0xb8e019c87862ca5722bb30376f67b6c9f7b9195b4713500d0a7d9df6a6bc7f45",
                        "prev": "0x0000000000000000000000000000000000000000000000000000000000000000"
                    }
                ],
                "storageVariables": [
                    {
                        "name": "balances",
                        "type": "mapping(address => uint256)",
                        "value": {
                            "pairs": [
                                {
                                    "key": "0x7a0359d42b83cec2002d54e3e7cd35dc1c87b0d0",
                                    "value": {
                                        "current": "368000000000000000000",
                                        "prev": "0",
                                        "typeTag": 1
                                    }
                                },
                                {
                                    "key": "0xa5f3d98a05970a2110120712513a8a139a216dd1",
                                    "value": {
                                        "current": "3535652000000000000000000",
                                        "prev": "3536020000000000000000000",
                                        "typeTag": 1
                                    }
                                }
                            ],
                            "typeTag": 4
                        }
                    }
                ]
            }
        ]
    }
}