{
    "balance_change": {
        "balanceChanges": [
            {
                "account": "0xa0d993512d68d78ff721eaf0e56c69486039f472",
                "assets": [
                    {
                        "address": "0xeeeeeeeeeeeeeeeeeeeeeeeeeeeeeeeeeeeeeeee",
                        "amount": "0.03",
                        "iconUrl": "https://assets.blocksec.com/image/1663669189317-3.png",
                        "isERC1155": false,
                        "isERC721": false,
                        "sign": false,
                        "value": "50.022300000000002453"
                    },
                    {
                        "address": "0xa73a7de24f6f738e4ed3d53bf1d0a2e7645564b8",
                        "amount": "1",
                        "iconUrl": "",
                        "isERC1155": false,
                        "isERC721": true,
                        "sign": true,
                        "tokenID": "1588",
                        "value": ""
                    },
                    {
                        "address": "0xa73a7de24f6f738e4ed3d53bf1d0a2e7645564b8",
                        "amount": "1",
                        "iconUrl": "",
                        "isERC1155": false,
                        "isERC721": true,
                        "sign": true,
                        "tokenID": "1589",
                        "value": ""
                    },
                    {
                        "address": "0xa73a7de24f6f738e4ed3d53bf1d0a2e7645564b8",
                        "amount": "1",
                        "iconUrl": "",
                        "isERC1155": false,
                        "isERC721": true,
                        "sign": true,
                        "tokenID": "1590",
                        "value": ""
                    }
                ]
            },
            {
                "account": "0xa73a7de24f6f738e4ed3d53bf1d0a2e7645564b8",
                "assets": [
                    {
                        "address": "0xeeeeeeeeeeeeeeeeeeeeeeeeeeeeeeeeeeeeeeee",
                        "amount": "0.03",
                        "iconUrl": "https://assets.blocksec.com/image/1663669189317-3.png",
                        "isERC1155": false,
                        "isERC721": false,
                        "sign": true,
                        "value": "50.022300000000002453"
                    }
                ]
            },
            {
                "account": "0x0000000000000000000000000000000000000000",
                "assets": [
                    {
                        "address": "0xa73a7de24f6f738e4ed3d53bf1d0a2e7645564b8",
                        "amount": "1",
                        "iconUrl": "",
                        "isERC1155": false,
                        "isERC721": true,
                        "sign": false,
                        "tokenID": "1588",
                        "value": ""
                    },
                    {
                        "address": "0xa73a7de24f6f738e4ed3d53bf1d0a2e7645564b8",
                        "amount": "1",
                        "iconUrl": "",
                        "isERC1155": false,
                        "isERC721": true,
                        "sign": false,
                        "tokenID": "1589",
                        "value": ""
                    },
                    {
                        "address": "0xa73a7de24f6f738e4ed3d53bf1d0a2e7645564b8",
                        "amount": "1",
                        "iconUrl": "",
                        "isERC1155": false,
                        "isERC721": true,
                        "sign": false,
                        "tokenID": "1590",
                        "value": ""
                    }
                ]
            }
        ]
    },
    "profile": {
        "basic_info": {
            "baseFee": "19.304754703",
            "blockNumber": 16558919,
            "callData": "0xd2cab05600000000000000000000000000000000000000000000000000000000000000030000000000000000000000000000000000000000000000000000000000000040000000000000000000000000000000000000000000000000000000000000000a024d3a6426ba9724d01a8c829f9b8a7e0d60749b3c7aff96c285789dfb99ecba3f5234e7c1e4f1818f28c0aba00f2a82d9de73ac7e55ffcafc3100c262bc8592520c038b276dfd2de2a82a4ac7c323c2a03aaaf2a790ce3a66491b1e8ee9bd7e4e58e0cafa0adf50c02c5d6d09fe33ed66a2ccfde504d8c027acce554fa3697c3e43f7a15f983dd3bae403113b84e0e7a648e706d18876963543944b6bf66f9a178a75c0ceb37aa895e24e7c8ff03bccc81c3c1bb5faed72ea9d3855500b55573904c34c002cb4932e786e9c43e22ffa1c0a256938800159b133129a7c1a24df14f8aeb3014e484a166412dfaa0cc6ecb5f379d75f1a63c8fa197a3aeb5c0f4806ed396c97c157a10a426f09d7c0753f4a10f08b70eb28044d4464ee04ca9f96953857933b8fb067f8dc39e103d0afb4155ebbe757b9f6366568df7579f7eb11",
            "debugEnable": true,
            "errorInfo": "",
            "eventCount": 3,
            "feeRecipient": "0x6d2e03b7effeae98bd302a9f836d0d6ab0002766",
            "formatValue": "0.03",
            "gasLimit": 121787,
            "gasPrice": "20.304754703",
            "gasUsed": 121787,
            "intTxnCount": 0,
            "internalRevert": false,
            "internalRevertMessage": "",
            "isContractCreation": false,
            "isFlashloan": false,
            "maxFee": "24.614242176",
            "nonce": 0,
            "overwritedBlockNumber": -1,
            "priorityFee": "1",
            "receiver": "0xa73a7de24f6f738e4ed3d53bf1d0a2e7645564b8",
            "revertMessage": "",
            "sender": "0xa0d993512d68d78ff721eaf0e56c69486039f472",
            "simulationEnable": true,
            "sourceTxnHash": "0xfc14b6a46624aa3e46f671bc865ad3dd5a99623cf03b823dc7c431813c82134d",
            "status": true,
            "timestamp": "2023-02-05T00:12:35Z",
            "transactionFee": "0.002472855161014261",
            "txnHash": "0xfc14b6a46624aa3e46f671bc865ad3dd5a99623cf03b823dc7c431813c82134d",
            "txnIndex": 119,
            "type": 2,
            "value": "30000000000000000"
        },
        "fund_flow": [
            {
                "amount": "0.03",
                "from": "0xa0d993512d68d78ff721eaf0e56c69486039f472",
                "id": 1,
                "isERC1155": false,
                "isERC721": false,
                "isReverted": false,
                "order": 1,
                "to": "0xa73a7de24f6f738e4ed3d53bf1d0a2e7645564b8",
                "token": "0xeeeeeeeeeeeeeeeeeeeeeeeeeeeeeeeeeeeeeeee"
            },
            {
                "amount": "1",
                "from": "0x0000000000000000000000000000000000000000",
                "id": 2,
                "isERC1155": false,
                "isERC721": true,
                "isReverted": false,
                "order": 2,
                "to": "0xa0d993512d68d78ff721eaf0e56c69486039f472",
                "token": "0xa73a7de24f6f738e4ed3d53bf1d0a2e7645564b8",
                "tokenID": "1588"
            },
            {
                "amount": "1",
                "from": "0x0000000000000000000000000000000000000000",
                "id": 3,
                "isERC1155": false,
                "isERC721": true,
                "isReverted": false,
                "order": 3,
                "to": "0xa0d993512d68d78ff721eaf0e56c69486039f472",
                "token": "0xa73a7de24f6f738e4ed3d53bf1d0a2e7645564b8",
                "tokenID": "1589"
            },
            {
                "amount": "1",
                "from": "0x0000000000000000000000000000000000000000",
                "id": 4,
                "isERC1155": false,
                "isERC721": true,
                "isReverted": false,
                "order": 4,
                "to": "0xa0d993512d68d78ff721eaf0e56c69486039f472",
                "token": "0xa73a7de24f6f738e4ed3d53bf1d0a2e7645564b8",
                "tokenID": "1590"
            }
        ],
        "token_infos": [
            {
                "address": "0xc02aaa39b223fe8d0a0e5c4f27ead9083c756cc2",
                "decimals": 18
            },
            {
                "address": "0xeeeeeeeeeeeeeeeeeeeeeeeeeeeeeeeeeeeeeeee",
                "decimals": 18
            }
        ]
    },
    "address_label": {
        "labels": [
            {
                "address": "0xeeeeeeeeeeeeeeeeeeeeeeeeeeeeeeeeeeeeeeee",
                "label": "Ether"
            },
            {
                "address": "0xa73a7de24f6f738e4ed3d53bf1d0a2e7645564b8",
                "label": "HUG"
            },
            {
                "address": "0x0000000000000000000000000000000000000001",
                "label": "Precompiled"
            },
            {
                "address": "0x0000000000000000000000000000000000000002",
                "label": "Precompiled"
            },
            {
                "address": "0x0000000000000000000000000000000000000003",
                "label": "Precompiled"
            },
            {
                "address": "0x0000000000000000000000000000000000000004",
                "label": "Precompiled"
            }
        ]
    },
    "trace": {
        "accountLabels": null,
        "dataMap": {
            "-1": {
                "invocation": {
                    "address": "0xa0d993512d68d78ff721eaf0e56c69486039f472",
                    "callData": "",
                    "decodedMethod": null,
                    "errorInfo": "",
                    "fromAddress": "",
                    "gasUsed": 0,
                    "id": -1,
                    "methodDecoded": false,
                    "operation": "",
                    "output": "",
                    "revert": false,
                    "revertMessage": "",
                    "selector": "",
                    "status": false,
                    "value": ""
                },
                "nodeType": 0
            },
            "0": {
                "invocation": {
                    "address": "0xa73a7de24f6f738e4ed3d53bf1d0a2e7645564b8",
                    "callData": "0x00000000000000000000000000000000000000000000000000000000000000030000000000000000000000000000000000000000000000000000000000000040000000000000000000000000000000000000000000000000000000000000000a024d3a6426ba9724d01a8c829f9b8a7e0d60749b3c7aff96c285789dfb99ecba3f5234e7c1e4f1818f28c0aba00f2a82d9de73ac7e55ffcafc3100c262bc8592520c038b276dfd2de2a82a4ac7c323c2a03aaaf2a790ce3a66491b1e8ee9bd7e4e58e0cafa0adf50c02c5d6d09fe33ed66a2ccfde504d8c027acce554fa3697c3e43f7a15f983dd3bae403113b84e0e7a648e706d18876963543944b6bf66f9a178a75c0ceb37aa895e24e7c8ff03bccc81c3c1bb5faed72ea9d3855500b55573904c34c002cb4932e786e9c43e22ffa1c0a256938800159b133129a7c1a24df14f8aeb3014e484a166412dfaa0cc6ecb5f379d75f1a63c8fa197a3aeb5c0f4806ed396c97c157a10a426f09d7c0753f4a10f08b70eb28044d4464ee04ca9f96953857933b8fb067f8dc39e103d0afb4155ebbe757b9f6366568df7579f7eb11",
                    "decodedMethod": {
                        "callParams": [
                            {
                                "name": "_mintAmount",
                                "type": "uint256",
                                "value": "3"
                            },
                            {
                                "name": "_merkleProof",
                                "type": "bytes32[]",
                                "value": [
                                    "0x024d3a6426ba9724d01a8c829f9b8a7e0d60749b3c7aff96c285789dfb99ecba",
                                    "0x3f5234e7c1e4f1818f28c0aba00f2a82d9de73ac7e55ffcafc3100c262bc8592",
                                    "0x520c038b276dfd2de2a82a4ac7c323c2a03aaaf2a790ce3a66491b1e8ee9bd7e",
                                    "0x4e58e0cafa0adf50c02c5d6d09fe33ed66a2ccfde504d8c027acce554fa3697c",
                                    "0x3e43f7a15f983dd3bae403113b84e0e7a648e706d18876963543944b6bf66f9a",
                                    "0x178a75c0ceb37aa895e24e7c8ff03bccc81c3c1bb5faed72ea9d3855500b5557",
                                    "0x3904c34c002cb4932e786e9c43e22ffa1c0a256938800159b133129a7c1a24df",
                                    "0x14f8aeb3014e484a166412dfaa0cc6ecb5f379d75f1a63c8fa197a3aeb5c0f48",
                                    "0x06ed396c97c157a10a426f09d7c0753f4a10f08b70eb28044d4464ee04ca9f96",
                                    "0x953857933b8fb067f8dc39e103d0afb4155ebbe757b9f6366568df7579f7eb11"
                                ]
                            }
                        ],
                        "constructorArguments": "",
                        "name": "whitelistMint",
                        "returnParams": [],
                        "signature": "whitelistMint(uint256,bytes32[])"
                    },
                    "errorInfo": "",
                    "fromAddress": "0xa0d993512d68d78ff721eaf0e56c69486039f472",
                    "gasUsed": 121787,
                    "id": 0,
                    "methodDecoded": true,
                    "operation": "CALL",
                    "output": "",
                    "revert": false,
                    "revertMessage": "",
                    "selector": "0xd2cab056",
                    "status": true,
                    "value": "0.03"
                },
                "nodeType": 0
            },
            "1": {
                "event": {
                    "contract": "0xa73a7de24f6f738e4ed3d53bf1d0a2e7645564b8",
                    "decodedLog": {
                        "name": "Transfer",
                        "params": [
                            {
                                "name": "from",
                                "type": "address",
                                "value": "0x0000000000000000000000000000000000000000"
                            },
                            {
                                "name": "to",
                                "type": "address",
                                "value": "0xa0d993512d68d78ff721eaf0e56c69486039f472"
                            },
                            {
                                "decimalAvailable": true,
                                "name": "tokenId",
                                "type": "uint256",
                                "value": "1,588"
                            }
                        ],
                        "signature": "Transfer(address,address,uint256)"
                    },
                    "id": 1,
                    "logData": "0x",
                    "logDecoded": true,
                    "operation": "EVENT",
                    "revert": false,
                    "status": true,
                    "topics": [
                        "0xddf252ad1be2c89b69c2b068fc378daa952ba7f163c4a11628f55a4df523b3ef",
                        "0x0000000000000000000000000000000000000000000000000000000000000000",
                        "0x000000000000000000000000a0d993512d68d78ff721eaf0e56c69486039f472",
                        "0x0000000000000000000000000000000000000000000000000000000000000634"
                    ]
                },
                "nodeType": 1
            },
            "2": {
                "event": {
                    "contract": "0xa73a7de24f6f738e4ed3d53bf1d0a2e7645564b8",
                    "decodedLog": {
                        "name": "Transfer",
                        "params": [
                            {
                                "name": "from",
                                "type": "address",
                                "value": "0x0000000000000000000000000000000000000000"
                            },
                            {
                                "name": "to",
                                "type": "address",
                                "value": "0xa0d993512d68d78ff721eaf0e56c69486039f472"
                            },
                            {
                                "decimalAvailable": true,
                                "name": "tokenId",
                                "type": "uint256",
                                "value": "1,589"
                            }
                        ],
                        "signature": "Transfer(address,address,uint256)"
                    },
                    "id": 2,
                    "logData": "0x",
                    "logDecoded": true,
                    "operation": "EVENT",
                    "revert": false,
                    "status": true,
                    "topics": [
                        "0xddf252ad1be2c89b69c2b068fc378daa952ba7f163c4a11628f55a4df523b3ef",
                        "0x0000000000000000000000000000000000000000000000000000000000000000",
                        "0x000000000000000000000000a0d993512d68d78ff721eaf0e56c69486039f472",
                        "0x0000000000000000000000000000000000000000000000000000000000000635"
                    ]
                },
                "nodeType": 1
            },
            "3": {
                "event": {
                    "contract": "0xa73a7de24f6f738e4ed3d53bf1d0a2e7645564b8",
                    "decodedLog": {
                        "name": "Transfer",
                        "params": [
                            {
                                "name": "from",
                                "type": "address",
                                "value": "0x0000000000000000000000000000000000000000"
                            },
                            {
                                "name": "to",
                                "type": "address",
                                "value": "0xa0d993512d68d78ff721eaf0e56c69486039f472"
                            },
                            {
                                "decimalAvailable": true,
                                "name": "tokenId",
                                "type": "uint256",
                                "value": "1,590"
                            }
                        ],
                        "signature": "Transfer(address,address,uint256)"
                    },
                    "id": 3,
                    "logData": "0x",
                    "logDecoded": true,
                    "operation": "EVENT",
                    "revert": false,
                    "status": true,
                    "topics": [
                        "0xddf252ad1be2c89b69c2b068fc378daa952ba7f163c4a11628f55a4df523b3ef",
                        "0x0000000000000000000000000000000000000000000000000000000000000000",
                        "0x000000000000000000000000a0d993512d68d78ff721eaf0e56c69486039f472",
                        "0x0000000000000000000000000000000000000000000000000000000000000636"
                    ]
                },
                "nodeType": 1
            }
        },
        "gasFlame": [
            {
                "children": [
                    {
                        "children": [
                            {
                                "children": [],
                                "depth": 0,
                                "name": "Initial Gas",
                                "value": 26580
                            },
                            {
                                "children": [],
                                "depth": 0,
                                "name": "Executed Gas",
                                "value": 95207
                            }
                        ],
                        "depth": -1,
                        "name": "Actual Gas Used",
                        "value": 121787
                    },
                    {
                        "children": [],
                        "depth": -1,
                        "name": "Refunded Gas",
                        "value": 0
                    }
                ],
                "depth": -2,
                "name": "Total Gas",
                "value": 121787
            }
        ],
        "isConfirmed": true,
        "mainTrace": [
            {
                "children": [
                    {
                        "children": [
                            {
                                "children": [],
                                "depth": 1,
                                "id": 1,
                                "order": 1
                            },
                            {
                                "children": [],
                                "depth": 1,
                                "id": 2,
                                "order": 2
                            },
                            {
                                "children": [],
                                "depth": 1,
                                "id": 3,
                                "order": 3
                            }
                        ],
                        "depth": 0,
                        "id": 0,
                        "order": 0
                    }
                ],
                "depth": -1,
                "id": -1,
                "order": -1
            }
        ],
        "mainTraceNodeCount": 4,
        "parentIdMap": {
            "0": -1,
            "1": 0,
            "2": 0,
            "3": 0
        },
        "tidyTrace": [
            {
                "children": [
                    {
                        "children": [
                            {
                                "children": [],
                                "depth": 1,
                                "id": 1,
                                "order": 1
                            },
                            {
                                "children": [],
                                "depth": 1,
                                "id": 2,
                                "order": 2
                            },
                            {
                                "children": [],
                                "depth": 1,
                                "id": 3,
                                "order": 3
                            }
                        ],
                        "depth": 0,
                        "id": 0,
                        "order": 0
                    }
                ],
                "depth": -1,
                "id": -1,
                "order": -1
            }
        ],
        "tidyTraceNodeCount": 4
    },
    "state_change": {
        "stateChanges": [
            {
                "address": "0xa73a7de24f6f738e4ed3d53bf1d0a2e7645564b8",
                "erc": "ERC-721",
                "slots": [
                    {
                        "current": "0x0000000000000000000000000000000000000000000000030000000000000003",
                        "key": "0x50fcbaa1f92c4a2d49c1af7de5b2497279d06897fd9343eb8fad4311a38dbed0",
                        "prev": "0x0000000000000000000000000000000000000000000000000000000000000000"
                    },
                    {
                        "current": "0x000000000000000063def473a0d993512d68d78ff721eaf0e56c69486039f472",
                        "key": "0x1674370efa336ea2be40df29d0985bb8b40132acaba20ea569c9e5f2472e71be",
                        "prev": "0x0000000000000000000000000000000000000000000000000000000000000000"
                    },
                    {
                        "current": "0x0000000000000000000000000000000000000000000000000000000000000637",
                        "key": "0x0000000000000000000000000000000000000000000000000000000000000000",
                        "prev": "0x0000000000000000000000000000000000000000000000000000000000000634"
                    },
                    {
                        "current": "0x0000000000000000000000000000000000000000000000000000000000000001",
                        "key": "0xc2a73c9d17f6808d0b3c28df262ff88e7563036fe783ad190f28ac54444881e3",
                        "prev": "0x0000000000000000000000000000000000000000000000000000000000000000"
                    }
                ],
                "storageVariables": [
                    {
                        "name": "_addressData",
                        "type": "mapping(address => struct ERC721A.AddressData)",
                        "value": {
                            "pairs": [
                                {
                                    "key": "0xa0d993512d68d78ff721eaf0e56c69486039f472",
                                    "value": {
                                        "fields": [
                                            {
                                                "name": "balance",
                                                "type": "uint64",
                                                "value": {
                                                    "current": "3",
                                                    "prev": "0",
                                                    "typeTag": 1
                                                }
                                            },
                                            {
                                                "name": "numberMinted",
                                                "type": "uint64",
                                                "value": {
                                                    "current": "3",
                                                    "prev": "0",
                                                    "typeTag": 1
                                                }
                                            },
                                            {
                                                "name": "numberBurned",
                                                "type": "uint64",
                                                "value": {
                                                    "current": "0",
                                                    "prev": "0",
                                                    "typeTag": 1
                                                }
                                            },
                                            {
                                                "name": "aux",
                                                "type": "uint64",
                                                "value": {
                                                    "current": "0",
                                                    "prev": "0",
                                                    "typeTag": 1
                                                }
                                            }
                                        ],
                                        "typeTag": 3
                                    }
                                }
                            ],
                            "typeTag": 4
                        }
                    },
                    {
                        "name": "_ownerships",
                        "type": "mapping(uint256 => struct ERC721A.TokenOwnership)",
                        "value": {
                            "pairs": [
                                {
                                    "key": "1588",
                                    "value": {
                                        "fields": [
                                            {
                                                "name": "addr",
                                                "type": "address",
                                                "value": {
                                                    "current": "0xa0d993512d68d78ff721eaf0e56c69486039f472",
                                                    "prev": "0x0000000000000000000000000000000000000000",
                                                    "typeTag": 1
                                                }
                                            },
                                            {
                                                "name": "startTimestamp",
                                                "type": "uint64",
                                                "value": {
                                                    "current": "1675555955",
                                                    "prev": "0",
                                                    "typeTag": 1
                                                }
                                            },
                                            {
                                                "name": "burned",
                                                "type": "bool",
                                                "value": {
                                                    "current": "false",
                                                    "prev": "false",
                                                    "typeTag": 1
                                                }
                                            }
                                        ],
                                        "typeTag": 3
                                    }
                                }
                            ],
                            "typeTag": 4
                        }
                    },
                    {
                        "name": "_currentIndex",
                        "type": "uint256",
                        "value": {
                            "current": "1591",
                            "prev": "1588",
                            "typeTag": 1
                        }
                    },
                    {
                        "name": "whitelistClaimed",
                        "type": "mapping(address => bool)",
                        "value": {
                            "pairs": [
                                {
                                    "key": "0xa0d993512d68d78ff721eaf0e56c69486039f472",
                                    "value": {
                                        "current": "true",
                                        "prev": "false",
                                        "typeTag": 1
                                    }
                                }
                            ],
                            "typeTag": 4
                        }
                    }
                ]
            }
        ]
    }
}