{
    "balance_change": {
        "balanceChanges": [
            {
                "account": "0x789843e848353192eb1d08d2c20ee10aaa001f45",
                "assets": [
                    {
                        "address": "0xeeeeeeeeeeeeeeeeeeeeeeeeeeeeeeeeeeeeeeee",
                        "amount": "0.0002",
                        "iconUrl": "https://assets.blocksec.com/image/1663669189317-3.png",
                        "isERC1155": false,
                        "isERC721": false,
                        "sign": false,
                        "value": "0.28992922"
                    },
                    {
                        "address": "0x85a3bc76df0a5c835347b866c20cef9265f815be",
                        "amount": "1",
                        "iconUrl": "",
                        "isERC1155": false,
                        "isERC721": true,
                        "sign": true,
                        "tokenID": "7",
                        "value": ""
                    }
                ]
            },
            {
                "account": "0x85a3bc76df0a5c835347b866c20cef9265f815be",
                "assets": [
                    {
                        "address": "0xeeeeeeeeeeeeeeeeeeeeeeeeeeeeeeeeeeeeeeee",
                        "amount": "0.0002",
                        "iconUrl": "https://assets.blocksec.com/image/1663669189317-3.png",
                        "isERC1155": false,
                        "isERC721": false,
                        "sign": true,
                        "value": "0.28992922"
                    }
                ]
            },
            {
                "account": "0x0000000000000000000000000000000000000000",
                "assets": [
                    {
                        "address": "0x85a3bc76df0a5c835347b866c20cef9265f815be",
                        "amount": "1",
                        "iconUrl": "",
                        "isERC1155": false,
                        "isERC721": true,
                        "sign": false,
                        "tokenID": "7",
                        "value": ""
                    }
                ]
            }
        ]
    },
    "profile": {
        "basic_info": {
            "baseFee": "3.547084359",
            "blockNumber": 15557908,
            "callData": "0xfb9d09c80000000000000000000000000000000000000000000000000000000000000001",
            "debugEnable": true,
            "errorInfo": "",
            "eventCount": 1,
            "feeRecipient": "0x388c818ca8b9251b393131c08a736a67ccb19297",
            "formatValue": "0.0002",
            "gasLimit": 144246,
            "gasPrice": "4.247839439",
            "gasUsed": 118733,
            "intTxnCount": 3,
            "internalRevert": false,
            "internalRevertMessage": "",
            "isContractCreation": false,
            "isFlashloan": false,
            "maxFee": "4.247839439",
            "nonce": 5,
            "overwritedBlockNumber": -1,
            "priorityFee": "1",
            "receiver": "0x85a3bc76df0a5c835347b866c20cef9265f815be",
            "revertMessage": "",
            "sender": "0x789843e848353192eb1d08d2c20ee10aaa001f45",
            "simulationEnable": true,
            "sourceTxnHash": "0xfc58c34cdae65b7b6900e2f7d03ada34ad836516c09cdd37796a8c3fe15cb7fe",
            "status": true,
            "timestamp": "2022-09-18T03:58:47Z",
            "transactionFee": "0.000504358720110787",
            "txnHash": "0xfc58c34cdae65b7b6900e2f7d03ada34ad836516c09cdd37796a8c3fe15cb7fe",
            "txnIndex": 58,
            "type": 2,
            "value": "200000000000000"
        },
        "fund_flow": [
            {
                "amount": "0.0002",
                "from": "0x789843e848353192eb1d08d2c20ee10aaa001f45",
                "id": 1,
                "isERC1155": false,
                "isERC721": false,
                "isReverted": false,
                "order": 1,
                "to": "0x85a3bc76df0a5c835347b866c20cef9265f815be",
                "token": "0xeeeeeeeeeeeeeeeeeeeeeeeeeeeeeeeeeeeeeeee"
            },
            {
                "amount": "1",
                "from": "0x0000000000000000000000000000000000000000",
                "id": 2,
                "isERC1155": false,
                "isERC721": true,
                "isReverted": false,
                "order": 2,
                "to": "0x789843e848353192eb1d08d2c20ee10aaa001f45",
                "token": "0x85a3bc76df0a5c835347b866c20cef9265f815be",
                "tokenID": "7"
            }
        ],
        "token_infos": [
            {
                "address": "0xc02aaa39b223fe8d0a0e5c4f27ead9083c756cc2",
                "decimals": 18
            },
            {
                "address": "0xeeeeeeeeeeeeeeeeeeeeeeeeeeeeeeeeeeeeeeee",
                "decimals": 18
            }
        ]
    },
    "address_label": {
        "labels": [
            {
                "address": "0x0000000000000000000000000000000000000002",
                "label": "Precompiled"
            },
            {
                "address": "0x0000000000000000000000000000000000000003",
                "label": "Precompiled"
            },
            {
                "address": "0x388c818ca8b9251b393131c08a736a67ccb19297",
                "label": "LidoExecutionLayerRewardsVault"
            },
            {
                "address": "0x775ecef1c70ed299e37006f6820d6252b0e90bd6",
                "label": "TransparentUpgradeableProxy_775e_0bd6"
            },
            {
                "address": "0xa50bd94106582626ad0ee3a8d8129439cea00485",
                "label": "DropCollection"
            },
            {
                "address": "0x2cae038f76d9dc48e3e4825289bfa5a456371ae1",
                "label": "NiftyKitV2"
            },
            {
                "address": "0x0000000000000000000000000000000000000001",
                "label": "Precompiled"
            },
            {
                "address": "0x0000000000000000000000000000000000000004",
                "label": "Precompiled"
            },
            {
                "address": "0xeeeeeeeeeeeeeeeeeeeeeeeeeeeeeeeeeeeeeeee",
                "label": "Ether"
            }
        ]
    },
    "trace": {
        "accountLabels": null,
        "dataMap": {
            "-1": {
                "invocation": {
                    "address": "0x789843e848353192eb1d08d2c20ee10aaa001f45",
                    "callData": "",
                    "decodedMethod": null,
                    "errorInfo": "",
                    "fromAddress": "",
                    "gasUsed": 0,
                    "id": -1,
                    "methodDecoded": false,
                    "operation": "",
                    "output": "",
                    "revert": false,
                    "revertMessage": "",
                    "selector": "",
                    "status": false,
                    "value": ""
                },
                "nodeType": 0
            },
            "0": {
                "invocation": {
                    "address": "0x85a3bc76df0a5c835347b866c20cef9265f815be",
                    "callData": "0x0000000000000000000000000000000000000000000000000000000000000001",
                    "decodedMethod": {
                        "callParams": [
                            {
                                "name": "quantity",
                                "type": "uint64",
                                "value": "1"
                            }
                        ],
                        "constructorArguments": "",
                        "name": "mint",
                        "returnParams": [],
                        "signature": "mint(uint64)"
                    },
                    "errorInfo": "",
                    "fromAddress": "0x789843e848353192eb1d08d2c20ee10aaa001f45",
                    "gasUsed": 118733,
                    "id": 0,
                    "methodDecoded": true,
                    "operation": "CALL",
                    "output": "",
                    "revert": false,
                    "revertMessage": "",
                    "selector": "0xfb9d09c8",
                    "status": true,
                    "value": "0.0002"
                },
                "nodeType": 0
            },
            "1": {
                "invocation": {
                    "address": "0xa50bd94106582626ad0ee3a8d8129439cea00485",
                    "callData": "0x0000000000000000000000000000000000000000000000000000000000000001",
                    "decodedMethod": {
                        "callParams": [
                            {
                                "name": "quantity",
                                "type": "uint64",
                                "value": "1"
                            }
                        ],
                        "constructorArguments": "",
                        "name": "mint",
                        "returnParams": [],
                        "signature": "mint(uint64)"
                    },
                    "errorInfo": "",
                    "fromAddress": "0x85a3bc76df0a5c835347b866c20cef9265f815be",
                    "gasUsed": 94860,
                    "id": 1,
                    "methodDecoded": true,
                    "operation": "DELEGATECALL",
                    "output": "",
                    "revert": false,
                    "revertMessage": "",
                    "selector": "0xfb9d09c8",
                    "status": true,
                    "value": "0.0002"
                },
                "nodeType": 0
            },
            "2": {
                "invocation": {
                    "address": "0x775ecef1c70ed299e37006f6820d6252b0e90bd6",
                    "callData": "0x0000000000000000000000000000000000000000000000000000b5e620f48000",
                    "decodedMethod": {
                        "callParams": [
                            {
                                "name": "amount",
                                "type": "uint256",
                                "value": "200,000,000,000,000"
                            }
                        ],
                        "constructorArguments": "",
                        "name": "addFees",
                        "returnParams": [],
                        "signature": "addFees(uint256)"
                    },
                    "errorInfo": "",
                    "fromAddress": "0x85a3bc76df0a5c835347b866c20cef9265f815be",
                    "gasUsed": 17685,
                    "id": 2,
                    "methodDecoded": true,
                    "operation": "CALL",
                    "output": "",
                    "revert": false,
                    "revertMessage": "",
                    "selector": "0x107e9cf1",
                    "status": true,
                    "value": "0"
                },
                "nodeType": 0
            },
            "3": {
                "invocation": {
                    "address": "0x2cae038f76d9dc48e3e4825289bfa5a456371ae1",
                    "callData": "0x0000000000000000000000000000000000000000000000000000b5e620f48000",
                    "decodedMethod": {
                        "callParams": [
                            {
                                "name": "amount",
                                "type": "uint256",
                                "value": "200,000,000,000,000"
                            }
                        ],
                        "constructorArguments": "",
                        "name": "addFees",
                        "returnParams": [],
                        "signature": "addFees(uint256)"
                    },
                    "errorInfo": "",
                    "fromAddress": "0x775ecef1c70ed299e37006f6820d6252b0e90bd6",
                    "gasUsed": 10357,
                    "id": 3,
                    "methodDecoded": true,
                    "operation": "DELEGATECALL",
                    "output": "",
                    "revert": false,
                    "revertMessage": "",
                    "selector": "0x107e9cf1",
                    "status": true,
                    "value": "0"
                },
                "nodeType": 0
            },
            "4": {
                "event": {
                    "contract": "0x85a3bc76df0a5c835347b866c20cef9265f815be",
                    "decodedLog": {
                        "name": "Transfer",
                        "params": [
                            {
                                "name": "from",
                                "type": "address",
                                "value": "0x0000000000000000000000000000000000000000"
                            },
                            {
                                "name": "to",
                                "type": "address",
                                "value": "0x789843e848353192eb1d08d2c20ee10aaa001f45"
                            },
                            {
                                "decimalAvailable": true,
                                "name": "tokenId",
                                "type": "uint256",
                                "value": "7"
                            }
                        ],
                        "signature": "Transfer(address,address,uint256)"
                    },
                    "id": 4,
                    "logData": "0x",
                    "logDecoded": true,
                    "operation": "EVENT",
                    "revert": false,
                    "status": true,
                    "topics": [
                        "0xddf252ad1be2c89b69c2b068fc378daa952ba7f163c4a11628f55a4df523b3ef",
                        "0x0000000000000000000000000000000000000000000000000000000000000000",
                        "0x000000000000000000000000789843e848353192eb1d08d2c20ee10aaa001f45",
                        "0x0000000000000000000000000000000000000000000000000000000000000007"
                    ]
                },
                "nodeType": 1
            }
        },
        "gasFlame": [
            {
                "children": [
                    {
                        "children": [
                            {
                                "children": [],
                                "depth": 0,
                                "name": "Initial Gas",
                                "value": 21204
                            },
                            {
                                "children": [
                                    {
                                        "children": [
                                            {
                                                "children": [
                                                    {
                                                        "children": [],
                                                        "depth": 3,
                                                        "name": "addFees",
                                                        "value": 10357
                                                    }
                                                ],
                                                "depth": 2,
                                                "name": "addFees",
                                                "value": 17685
                                            }
                                        ],
                                        "depth": 1,
                                        "name": "mint",
                                        "value": 94860
                                    }
                                ],
                                "depth": 0,
                                "name": "Executed Gas",
                                "value": 97529
                            }
                        ],
                        "depth": -1,
                        "name": "Actual Gas Used",
                        "value": 118733
                    },
                    {
                        "children": [],
                        "depth": -1,
                        "name": "Refunded Gas",
                        "value": 0
                    }
                ],
                "depth": -2,
                "name": "Total Gas",
                "value": 118733
            }
        ],
        "isConfirmed": true,
        "mainTrace": [
            {
                "children": [
                    {
                        "children": [
                            {
                                "children": [
                                    {
                                        "children": [
                                            {
                                                "children": [],
                                                "depth": 3,
                                                "id": 3,
                                                "order": 3
                                            }
                                        ],
                                        "depth": 2,
                                        "id": 2,
                                        "order": 2
                                    },
                                    {
                                        "children": [],
                                        "depth": 2,
                                        "id": 4,
                                        "order": 4
                                    }
                                ],
                                "depth": 1,
                                "id": 1,
                                "order": 1
                            }
                        ],
                        "depth": 0,
                        "id": 0,
                        "order": 0
                    }
                ],
                "depth": -1,
                "id": -1,
                "order": -1
            }
        ],
        "mainTraceNodeCount": 5,
        "parentIdMap": {
            "0": -1,
            "1": 0,
            "2": 1,
            "3": 2,
            "4": 1
        },
        "tidyTrace": [
            {
                "children": [
                    {
                        "children": [
                            {
                                "children": [
                                    {
                                        "children": [
                                            {
                                                "children": [],
                                                "depth": 3,
                                                "id": 3,
                                                "order": 3
                                            }
                                        ],
                                        "depth": 2,
                                        "id": 2,
                                        "order": 2
                                    },
                                    {
                                        "children": [],
                                        "depth": 2,
                                        "id": 4,
                                        "order": 4
                                    }
                                ],
                                "depth": 1,
                                "id": 1,
                                "order": 1
                            }
                        ],
                        "depth": 0,
                        "id": 0,
                        "order": 0
                    }
                ],
                "depth": -1,
                "id": -1,
                "order": -1
            }
        ],
        "tidyTraceNodeCount": 5
    },
    "state_change": {
        "stateChanges": [
            {
                "address": "0x775ecef1c70ed299e37006f6820d6252b0e90bd6",
                "erc": "",
                "slots": [
                    {
                        "current": "0x0000000000000000000000000000000000000000000000000001fd5129130000",
                        "key": "0xf22766d04e7c70ad904ed764ded7dc487fabc3cdd76ace3d5bf8edf0deba4ca9",
                        "prev": "0x0000000000000000000000000000000000000000000000000001f438daa06000"
                    }
                ],
                "storageVariables": [
                    {
                        "name": "_fees",
                        "type": "mapping(address => uint256)",
                        "value": {
                            "pairs": [
                                {
                                    "key": "0x85a3bc76df0a5c835347b866c20cef9265f815be",
                                    "value": {
                                        "current": "560000000000000",
                                        "prev": "550000000000000",
                                        "typeTag": 1
                                    }
                                }
                            ],
                            "typeTag": 4
                        }
                    }
                ]
            },
            {
                "address": "0x85a3bc76df0a5c835347b866c20cef9265f815be",
                "erc": "ERC-721",
                "slots": [
                    {
                        "current": "0x000000020000000063269777789843e848353192eb1d08d2c20ee10aaa001f45",
                        "key": "0xba5350cb7146dbbf0090fd478185105c5f4c5ca9d79b6855d3024c338dde732e",
                        "prev": "0x0000000000000000000000000000000000000000000000000000000000000000"
                    },
                    {
                        "current": "0x0000000000000000000000000000000000000000000000000000000000000008",
                        "key": "0x2569078dfb4b0305704d3008e7403993ae9601b85f7ae5e742de3de8f8011c40",
                        "prev": "0x0000000000000000000000000000000000000000000000000000000000000007"
                    },
                    {
                        "current": "0x0000000000000000000000000000000000000000000000000027ca57357c0000",
                        "key": "0x00000000000000000000000000000000000000000000000000000000000000cb",
                        "prev": "0x0000000000000000000000000000000000000000000000000027147114878000"
                    },
                    {
                        "current": "0x0000000000000001000000000000000000000000000000010000000000000001",
                        "key": "0xf1a518424831c0ad10e18ce086b34cb0f3c5b860a306ba7dc766e58b26b750da",
                        "prev": "0x0000000000000000000000000000000000000000000000000000000000000000"
                    }
                ],
                "storageVariables": [
                    {
                        "name": "_totalRevenue",
                        "type": "uint256",
                        "value": {
                            "current": "11200000000000000",
                            "prev": "11000000000000000",
                            "typeTag": 1
                        }
                    }
                ]
            }
        ]
    }
}