{
    "balance_change": {
        "balanceChanges": [
            {
                "account": "0x1671a3e4a2519a653e66e827ef6eae690ee86729",
                "assets": [
                    {
                        "address": "0xdefa4e8a7bcba345f687a2f1456f5edd9ce97202",
                        "amount": "282,136.24949516",
                        "iconUrl": "https://assets.blocksec.com/icon/afa0a6545166f560e1c076cbb19045cd1f2a5ee4c283af4ff8f37a015b0391d7.png",
                        "isERC1155": false,
                        "isERC721": false,
                        "sign": false,
                        "value": "669963.4974"
                    }
                ]
            },
            {
                "account": "0x3f5ce5fbfe3e9af3971dd833d26ba9b5c936f0be",
                "assets": [
                    {
                        "address": "0xdefa4e8a7bcba345f687a2f1456f5edd9ce97202",
                        "amount": "282,136.24949516",
                        "iconUrl": "https://assets.blocksec.com/icon/afa0a6545166f560e1c076cbb19045cd1f2a5ee4c283af4ff8f37a015b0391d7.png",
                        "isERC1155": false,
                        "isERC721": false,
                        "sign": true,
                        "value": "669963.4974"
                    }
                ]
            }
        ]
    },
    "profile": {
        "basic_info": {
            "baseFee": "",
            "blockNumber": 12585591,
            "callData": "0xa9059cbb0000000000000000000000003f5ce5fbfe3e9af3971dd833d26ba9b5c936f0be000000000000000000000000000000000000000000003bbea300ddeeda5ab000",
            "debugEnable": true,
            "errorInfo": "",
            "eventCount": 1,
            "feeRecipient": "0xd224ca0c819e8e97ba0136b3b95ceff503b79f53",
            "formatValue": "0",
            "gasLimit": 83852,
            "gasPrice": "62",
            "gasUsed": 41763,
            "intTxnCount": 1,
            "internalRevert": false,
            "internalRevertMessage": "",
            "isContractCreation": false,
            "isFlashloan": false,
            "maxFee": "",
            "nonce": 97342,
            "overwritedBlockNumber": -1,
            "priorityFee": "",
            "receiver": "0xdefa4e8a7bcba345f687a2f1456f5edd9ce97202",
            "revertMessage": "",
            "sender": "0x1671a3e4a2519a653e66e827ef6eae690ee86729",
            "simulationEnable": true,
            "sourceTxnHash": "0xfc29dda079ca321513e7aa4a7267054252d409ee1031f7adb63cebb531a58bc7",
            "status": true,
            "timestamp": "2021-06-07T05:38:09Z",
            "transactionFee": "0.002589306",
            "txnHash": "0xfc29dda079ca321513e7aa4a7267054252d409ee1031f7adb63cebb531a58bc7",
            "txnIndex": 16,
            "type": 0,
            "value": "0"
        },
        "fund_flow": [
            {
                "amount": "282,136.24949516",
                "from": "0x1671a3e4a2519a653e66e827ef6eae690ee86729",
                "id": 1,
                "isERC1155": false,
                "isERC721": false,
                "isReverted": false,
                "order": 1,
                "to": "0x3f5ce5fbfe3e9af3971dd833d26ba9b5c936f0be",
                "token": "0xdefa4e8a7bcba345f687a2f1456f5edd9ce97202"
            }
        ],
        "token_infos": [
            {
                "address": "0xc02aaa39b223fe8d0a0e5c4f27ead9083c756cc2",
                "decimals": 18
            },
            {
                "address": "0xdefa4e8a7bcba345f687a2f1456f5edd9ce97202",
                "decimals": 18
            },
            {
                "address": "0xeeeeeeeeeeeeeeeeeeeeeeeeeeeeeeeeeeeeeeee",
                "decimals": 18
            }
        ]
    },
    "address_label": {
        "labels": [
            {
                "address": "0x0000000000000000000000000000000000000004",
                "label": "Precompiled"
            },
            {
                "address": "0xeeeeeeeeeeeeeeeeeeeeeeeeeeeeeeeeeeeeeeee",
                "label": "Ether"
            },
            {
                "address": "0xdefa4e8a7bcba345f687a2f1456f5edd9ce97202",
                "label": "Kyber Network: KNC Token"
            },
            {
                "address": "0x3f5ce5fbfe3e9af3971dd833d26ba9b5c936f0be",
                "label": "Binance"
            },
            {
                "address": "0xe5e8e834086f1a964f9a089eb6ae11796862e4ce",
                "label": "Kyber Network Crystal v2 (KNC)"
            },
            {
                "address": "0x0000000000000000000000000000000000000001",
                "label": "Precompiled"
            },
            {
                "address": "0x0000000000000000000000000000000000000002",
                "label": "Precompiled"
            },
            {
                "address": "0x0000000000000000000000000000000000000003",
                "label": "Precompiled"
            }
        ]
    },
    "trace": {
        "accountLabels": null,
        "dataMap": {
            "-1": {
                "invocation": {
                    "address": "0x1671a3e4a2519a653e66e827ef6eae690ee86729",
                    "callData": "",
                    "decodedMethod": null,
                    "errorInfo": "",
                    "fromAddress": "",
                    "gasUsed": 0,
                    "id": -1,
                    "methodDecoded": false,
                    "operation": "",
                    "output": "",
                    "revert": false,
                    "revertMessage": "",
                    "selector": "",
                    "status": false,
                    "value": ""
                },
                "nodeType": 0
            },
            "0": {
                "invocation": {
                    "address": "0xdefa4e8a7bcba345f687a2f1456f5edd9ce97202",
                    "callData": "0x0000000000000000000000003f5ce5fbfe3e9af3971dd833d26ba9b5c936f0be000000000000000000000000000000000000000000003bbea300ddeeda5ab000",
                    "decodedMethod": {
                        "callParams": [
                            {
                                "name": "recipient",
                                "type": "address",
                                "value": "0x3f5ce5fbfe3e9af3971dd833d26ba9b5c936f0be"
                            },
                            {
                                "decimalAvailable": true,
                                "name": "amount",
                                "type": "uint256",
                                "value": "282,136,249,495,160,000,000,000"
                            }
                        ],
                        "constructorArguments": "",
                        "name": "transfer",
                        "returnParams": [
                            {
                                "name": "",
                                "type": "bool",
                                "value": true
                            }
                        ],
                        "signature": "transfer(address,uint256)"
                    },
                    "errorInfo": "",
                    "fromAddress": "0x1671a3e4a2519a653e66e827ef6eae690ee86729",
                    "gasUsed": 41763,
                    "id": 0,
                    "methodDecoded": true,
                    "operation": "CALL",
                    "output": "0x0000000000000000000000000000000000000000000000000000000000000001",
                    "revert": false,
                    "revertMessage": "",
                    "selector": "0xa9059cbb",
                    "status": true,
                    "value": "0"
                },
                "nodeType": 0
            },
            "1": {
                "invocation": {
                    "address": "0xe5e8e834086f1a964f9a089eb6ae11796862e4ce",
                    "callData": "0x0000000000000000000000003f5ce5fbfe3e9af3971dd833d26ba9b5c936f0be000000000000000000000000000000000000000000003bbea300ddeeda5ab000",
                    "decodedMethod": {
                        "callParams": [
                            {
                                "name": "recipient",
                                "type": "address",
                                "value": "0x3f5ce5fbfe3e9af3971dd833d26ba9b5c936f0be"
                            },
                            {
                                "decimalAvailable": true,
                                "name": "amount",
                                "type": "uint256",
                                "value": "282,136,249,495,160,000,000,000"
                            }
                        ],
                        "constructorArguments": "",
                        "name": "transfer",
                        "returnParams": [
                            {
                                "name": "",
                                "type": "bool",
                                "value": true
                            }
                        ],
                        "signature": "transfer(address,uint256)"
                    },
                    "errorInfo": "",
                    "fromAddress": "0xdefa4e8a7bcba345f687a2f1456f5edd9ce97202",
                    "gasUsed": 12861,
                    "id": 1,
                    "methodDecoded": true,
                    "operation": "DELEGATECALL",
                    "output": "0x0000000000000000000000000000000000000000000000000000000000000001",
                    "revert": false,
                    "revertMessage": "",
                    "selector": "0xa9059cbb",
                    "status": true,
                    "value": "0"
                },
                "nodeType": 0
            },
            "2": {
                "event": {
                    "contract": "0xdefa4e8a7bcba345f687a2f1456f5edd9ce97202",
                    "decodedLog": {
                        "name": "Transfer",
                        "params": [
                            {
                                "name": "from",
                                "type": "address",
                                "value": "0x1671a3e4a2519a653e66e827ef6eae690ee86729"
                            },
                            {
                                "name": "to",
                                "type": "address",
                                "value": "0x3f5ce5fbfe3e9af3971dd833d26ba9b5c936f0be"
                            },
                            {
                                "decimalAvailable": true,
                                "name": "value",
                                "type": "uint256",
                                "value": "282,136,249,495,160,000,000,000"
                            }
                        ],
                        "signature": "Transfer(address,address,uint256)"
                    },
                    "id": 2,
                    "logData": "0x000000000000000000000000000000000000000000003bbea300ddeeda5ab000",
                    "logDecoded": true,
                    "operation": "EVENT",
                    "revert": false,
                    "status": true,
                    "topics": [
                        "0xddf252ad1be2c89b69c2b068fc378daa952ba7f163c4a11628f55a4df523b3ef",
                        "0x0000000000000000000000001671a3e4a2519a653e66e827ef6eae690ee86729",
                        "0x0000000000000000000000003f5ce5fbfe3e9af3971dd833d26ba9b5c936f0be"
                    ]
                },
                "nodeType": 1
            }
        },
        "gasFlame": [
            {
                "children": [
                    {
                        "children": [
                            {
                                "children": [],
                                "depth": 0,
                                "name": "Initial Gas",
                                "value": 21656
                            },
                            {
                                "children": [
                                    {
                                        "children": [],
                                        "depth": 1,
                                        "name": "transfer",
                                        "value": 12861
                                    }
                                ],
                                "depth": 0,
                                "name": "Executed Gas",
                                "value": 20107
                            }
                        ],
                        "depth": -1,
                        "name": "Actual Gas Used",
                        "value": 41763
                    },
                    {
                        "children": [],
                        "depth": -1,
                        "name": "Refunded Gas",
                        "value": 0
                    }
                ],
                "depth": -2,
                "name": "Total Gas",
                "value": 41763
            }
        ],
        "isConfirmed": true,
        "mainTrace": [
            {
                "children": [
                    {
                        "children": [
                            {
                                "children": [
                                    {
                                        "children": [],
                                        "depth": 2,
                                        "id": 2,
                                        "order": 2
                                    }
                                ],
                                "depth": 1,
                                "id": 1,
                                "order": 1
                            }
                        ],
                        "depth": 0,
                        "id": 0,
                        "order": 0
                    }
                ],
                "depth": -1,
                "id": -1,
                "order": -1
            }
        ],
        "mainTraceNodeCount": 3,
        "parentIdMap": {
            "0": -1,
            "1": 0,
            "2": 1
        },
        "tidyTrace": [
            {
                "children": [
                    {
                        "children": [
                            {
                                "children": [
                                    {
                                        "children": [],
                                        "depth": 2,
                                        "id": 2,
                                        "order": 2
                                    }
                                ],
                                "depth": 1,
                                "id": 1,
                                "order": 1
                            }
                        ],
                        "depth": 0,
                        "id": 0,
                        "order": 0
                    }
                ],
                "depth": -1,
                "id": -1,
                "order": -1
            }
        ],
        "tidyTraceNodeCount": 3
    },
    "state_change": {
        "stateChanges": [
            {
                "address": "0xdefa4e8a7bcba345f687a2f1456f5edd9ce97202",
                "erc": "ERC-20",
                "slots": [
                    {
                        "current": "0x000000000000000000000000000000000000000000027df0284ff386f9082800",
                        "key": "0xddf1d4920f43026efde08f1356c683a7d89fe0f0980b85f2aa8085ddcd59c1ea",
                        "prev": "0x00000000000000000000000000000000000000000002b9aecb50d175d362d800"
                    },
                    {
                        "current": "0x00000000000000000000000000000000000000000000d1cdf2738daaad54c400",
                        "key": "0x4bf775d18c56bebb2715ff55ef3d32095e27de624c2a89625ff10c0dc50cd876",
                        "prev": "0x00000000000000000000000000000000000000000000960f4f72afbbd2fa1400"
                    }
                ],
                "storageVariables": [
                    {
                        "name": "_balances",
                        "type": "mapping(address => uint256)",
                        "value": {
                            "pairs": [
                                {
                                    "key": "0x1671a3e4a2519a653e66e827ef6eae690ee86729",
                                    "value": {
                                        "current": "3012577572973700000000000",
                                        "prev": "3294713822468860000000000",
                                        "typeTag": 1
                                    }
                                },
                                {
                                    "key": "0x3f5ce5fbfe3e9af3971dd833d26ba9b5c936f0be",
                                    "value": {
                                        "current": "990773647918010000000000",
                                        "prev": "708637398422850000000000",
                                        "typeTag": 1
                                    }
                                }
                            ],
                            "typeTag": 4
                        }
                    }
                ]
            }
        ]
    }
}