{
    "balance_change": {
        "balanceChanges": []
    },
    "profile": {
        "basic_info": {
            "baseFee": "",
            "blockNumber": 9808990,
            "callData": "0xa0712d68000000000000000000000000000000000000000000000000000000000000001e",
            "debugEnable": true,
            "errorInfo": "",
            "eventCount": 0,
            "feeRecipient": "0xea674fdde714fd979de3edf0f56aa9716b898ec8",
            "formatValue": "0",
            "gasLimit": 1259207,
            "gasPrice": "1.000001101",
            "gasUsed": 1129734,
            "intTxnCount": 30,
            "internalRevert": false,
            "internalRevertMessage": "",
            "isContractCreation": false,
            "isFlashloan": false,
            "maxFee": "",
            "nonce": 5706,
            "overwritedBlockNumber": -1,
            "priorityFee": "",
            "receiver": "0x0000000000b3f879cb30fe243b4dfee438691c04",
            "revertMessage": "",
            "sender": "0x086cd0254e08f69d0cc6d5bb4a8cb3cc1c0c1f3c",
            "simulationEnable": true,
            "sourceTxnHash": "0xfc60cb9f4c97aa8b147aa3f7d5750fa4856692a1e494865190fe20e59b4e4795",
            "status": true,
            "timestamp": "2020-04-05T01:10:35Z",
            "transactionFee": "0.001129735243837134",
            "txnHash": "0xfc60cb9f4c97aa8b147aa3f7d5750fa4856692a1e494865190fe20e59b4e4795",
            "txnIndex": 6,
            "type": 0,
            "value": "0"
        },
        "fund_flow": [],
        "token_infos": [
            {
                "address": "0xc02aaa39b223fe8d0a0e5c4f27ead9083c756cc2",
                "decimals": 18
            },
            {
                "address": "0xeeeeeeeeeeeeeeeeeeeeeeeeeeeeeeeeeeeeeeee",
                "decimals": 18
            }
        ]
    },
    "address_label": {
        "labels": [
            {
                "address": "0x0000000000000000000000000000000000000003",
                "label": "Precompiled"
            },
            {
                "address": "0x0000000000000000000000000000000000000004",
                "label": "Precompiled"
            },
            {
                "address": "0xeeeeeeeeeeeeeeeeeeeeeeeeeeeeeeeeeeeeeeee",
                "label": "Ether"
            },
            {
                "address": "0x0000000000b3f879cb30fe243b4dfee438691c04",
                "label": "GasToken.io: GST2 Token"
            },
            {
                "address": "0x0000000000000000000000000000000000000001",
                "label": "Precompiled"
            },
            {
                "address": "0x0000000000000000000000000000000000000002",
                "label": "Precompiled"
            }
        ]
    },
    "trace": {
        "accountLabels": null,
        "dataMap": {
            "-1": {
                "invocation": {
                    "address": "0x086cd0254e08f69d0cc6d5bb4a8cb3cc1c0c1f3c",
                    "callData": "",
                    "decodedMethod": null,
                    "errorInfo": "",
                    "fromAddress": "",
                    "gasUsed": 0,
                    "id": -1,
                    "methodDecoded": false,
                    "operation": "",
                    "output": "",
                    "revert": false,
                    "revertMessage": "",
                    "selector": "",
                    "status": false,
                    "value": ""
                },
                "nodeType": 0
            },
            "0": {
                "invocation": {
                    "address": "0x0000000000b3f879cb30fe243b4dfee438691c04",
                    "callData": "0x000000000000000000000000000000000000000000000000000000000000001e",
                    "decodedMethod": {
                        "callParams": [
                            {
                                "name": "value",
                                "type": "uint256",
                                "value": "30"
                            }
                        ],
                        "constructorArguments": "",
                        "name": "mint",
                        "returnParams": [],
                        "signature": "mint(uint256)"
                    },
                    "errorInfo": "",
                    "fromAddress": "0x086cd0254e08f69d0cc6d5bb4a8cb3cc1c0c1f3c",
                    "gasUsed": 1129734,
                    "id": 0,
                    "methodDecoded": true,
                    "operation": "CALL",
                    "output": "",
                    "revert": false,
                    "revertMessage": "",
                    "selector": "0xa0712d68",
                    "status": true,
                    "value": "0"
                },
                "nodeType": 0
            },
            "1": {
                "invocation": {
                    "address": "0xd4d574cc047300dc198b65b0f39adcd5d2b2484a",
                    "callData": "0x756eb3f879cb30fe243b4dfee438691c043318585733ff6000526016600af3",
                    "decodedMethod": null,
                    "errorInfo": "",
                    "fromAddress": "0x0000000000b3f879cb30fe243b4dfee438691c04",
                    "gasUsed": 4418,
                    "id": 1,
                    "methodDecoded": false,
                    "operation": "CREATE",
                    "output": "0x6eb3f879cb30fe243b4dfee438691c043318585733ff",
                    "revert": false,
                    "revertMessage": "",
                    "selector": "",
                    "status": true,
                    "value": "0"
                },
                "nodeType": 0
            },
            "10": {
                "invocation": {
                    "address": "0x1b0ec1f6f4afdae359f0ec4c9720473d152524b7",
                    "callData": "0x756eb3f879cb30fe243b4dfee438691c043318585733ff6000526016600af3",
                    "decodedMethod": null,
                    "errorInfo": "",
                    "fromAddress": "0x0000000000b3f879cb30fe243b4dfee438691c04",
                    "gasUsed": 4418,
                    "id": 10,
                    "methodDecoded": false,
                    "operation": "CREATE",
                    "output": "0x6eb3f879cb30fe243b4dfee438691c043318585733ff",
                    "revert": false,
                    "revertMessage": "",
                    "selector": "",
                    "status": true,
                    "value": "0"
                },
                "nodeType": 0
            },
            "11": {
                "invocation": {
                    "address": "0xdcf516afcc9096438ddb1bf454ed958124e74056",
                    "callData": "0x756eb3f879cb30fe243b4dfee438691c043318585733ff6000526016600af3",
                    "decodedMethod": null,
                    "errorInfo": "",
                    "fromAddress": "0x0000000000b3f879cb30fe243b4dfee438691c04",
                    "gasUsed": 4418,
                    "id": 11,
                    "methodDecoded": false,
                    "operation": "CREATE",
                    "output": "0x6eb3f879cb30fe243b4dfee438691c043318585733ff",
                    "revert": false,
                    "revertMessage": "",
                    "selector": "",
                    "status": true,
                    "value": "0"
                },
                "nodeType": 0
            },
            "12": {
                "invocation": {
                    "address": "0x1f3d8730f273c93ed5436d15e404868d0bc86af9",
                    "callData": "0x756eb3f879cb30fe243b4dfee438691c043318585733ff6000526016600af3",
                    "decodedMethod": null,
                    "errorInfo": "",
                    "fromAddress": "0x0000000000b3f879cb30fe243b4dfee438691c04",
                    "gasUsed": 4418,
                    "id": 12,
                    "methodDecoded": false,
                    "operation": "CREATE",
                    "output": "0x6eb3f879cb30fe243b4dfee438691c043318585733ff",
                    "revert": false,
                    "revertMessage": "",
                    "selector": "",
                    "status": true,
                    "value": "0"
                },
                "nodeType": 0
            },
            "13": {
                "invocation": {
                    "address": "0xd9f5428a949c637e556c2600d90eff72ad1a94ff",
                    "callData": "0x756eb3f879cb30fe243b4dfee438691c043318585733ff6000526016600af3",
                    "decodedMethod": null,
                    "errorInfo": "",
                    "fromAddress": "0x0000000000b3f879cb30fe243b4dfee438691c04",
                    "gasUsed": 4418,
                    "id": 13,
                    "methodDecoded": false,
                    "operation": "CREATE",
                    "output": "0x6eb3f879cb30fe243b4dfee438691c043318585733ff",
                    "revert": false,
                    "revertMessage": "",
                    "selector": "",
                    "status": true,
                    "value": "0"
                },
                "nodeType": 0
            },
            "14": {
                "invocation": {
                    "address": "0x348d61606c0223a502dbbc9e1de2571c0b4ecf16",
                    "callData": "0x756eb3f879cb30fe243b4dfee438691c043318585733ff6000526016600af3",
                    "decodedMethod": null,
                    "errorInfo": "",
                    "fromAddress": "0x0000000000b3f879cb30fe243b4dfee438691c04",
                    "gasUsed": 4418,
                    "id": 14,
                    "methodDecoded": false,
                    "operation": "CREATE",
                    "output": "0x6eb3f879cb30fe243b4dfee438691c043318585733ff",
                    "revert": false,
                    "revertMessage": "",
                    "selector": "",
                    "status": true,
                    "value": "0"
                },
                "nodeType": 0
            },
            "15": {
                "invocation": {
                    "address": "0x1e4b5a2a2e447cd14c661d15a97a89791d9bea6e",
                    "callData": "0x756eb3f879cb30fe243b4dfee438691c043318585733ff6000526016600af3",
                    "decodedMethod": null,
                    "errorInfo": "",
                    "fromAddress": "0x0000000000b3f879cb30fe243b4dfee438691c04",
                    "gasUsed": 4418,
                    "id": 15,
                    "methodDecoded": false,
                    "operation": "CREATE",
                    "output": "0x6eb3f879cb30fe243b4dfee438691c043318585733ff",
                    "revert": false,
                    "revertMessage": "",
                    "selector": "",
                    "status": true,
                    "value": "0"
                },
                "nodeType": 0
            },
            "16": {
                "invocation": {
                    "address": "0x0c52788f0a302dca59c5e025de253e9287ddc402",
                    "callData": "0x756eb3f879cb30fe243b4dfee438691c043318585733ff6000526016600af3",
                    "decodedMethod": null,
                    "errorInfo": "",
                    "fromAddress": "0x0000000000b3f879cb30fe243b4dfee438691c04",
                    "gasUsed": 4418,
                    "id": 16,
                    "methodDecoded": false,
                    "operation": "CREATE",
                    "output": "0x6eb3f879cb30fe243b4dfee438691c043318585733ff",
                    "revert": false,
                    "revertMessage": "",
                    "selector": "",
                    "status": true,
                    "value": "0"
                },
                "nodeType": 0
            },
            "17": {
                "invocation": {
                    "address": "0xcd25a9a30db29288cdf755c55ed1bc45eaafcd08",
                    "callData": "0x756eb3f879cb30fe243b4dfee438691c043318585733ff6000526016600af3",
                    "decodedMethod": null,
                    "errorInfo": "",
                    "fromAddress": "0x0000000000b3f879cb30fe243b4dfee438691c04",
                    "gasUsed": 4418,
                    "id": 17,
                    "methodDecoded": false,
                    "operation": "CREATE",
                    "output": "0x6eb3f879cb30fe243b4dfee438691c043318585733ff",
                    "revert": false,
                    "revertMessage": "",
                    "selector": "",
                    "status": true,
                    "value": "0"
                },
                "nodeType": 0
            },
            "18": {
                "invocation": {
                    "address": "0xfb8521da542e9cece5714c69a15d730d4ff6a3e1",
                    "callData": "0x756eb3f879cb30fe243b4dfee438691c043318585733ff6000526016600af3",
                    "decodedMethod": null,
                    "errorInfo": "",
                    "fromAddress": "0x0000000000b3f879cb30fe243b4dfee438691c04",
                    "gasUsed": 4418,
                    "id": 18,
                    "methodDecoded": false,
                    "operation": "CREATE",
                    "output": "0x6eb3f879cb30fe243b4dfee438691c043318585733ff",
                    "revert": false,
                    "revertMessage": "",
                    "selector": "",
                    "status": true,
                    "value": "0"
                },
                "nodeType": 0
            },
            "19": {
                "invocation": {
                    "address": "0x3b2c8aad0aaee26af3e7fef97e832241319a2932",
                    "callData": "0x756eb3f879cb30fe243b4dfee438691c043318585733ff6000526016600af3",
                    "decodedMethod": null,
                    "errorInfo": "",
                    "fromAddress": "0x0000000000b3f879cb30fe243b4dfee438691c04",
                    "gasUsed": 4418,
                    "id": 19,
                    "methodDecoded": false,
                    "operation": "CREATE",
                    "output": "0x6eb3f879cb30fe243b4dfee438691c043318585733ff",
                    "revert": false,
                    "revertMessage": "",
                    "selector": "",
                    "status": true,
                    "value": "0"
                },
                "nodeType": 0
            },
            "2": {
                "invocation": {
                    "address": "0x52547f51087f0da6379cee4c370a8ab6b84405d2",
                    "callData": "0x756eb3f879cb30fe243b4dfee438691c043318585733ff6000526016600af3",
                    "decodedMethod": null,
                    "errorInfo": "",
                    "fromAddress": "0x0000000000b3f879cb30fe243b4dfee438691c04",
                    "gasUsed": 4418,
                    "id": 2,
                    "methodDecoded": false,
                    "operation": "CREATE",
                    "output": "0x6eb3f879cb30fe243b4dfee438691c043318585733ff",
                    "revert": false,
                    "revertMessage": "",
                    "selector": "",
                    "status": true,
                    "value": "0"
                },
                "nodeType": 0
            },
            "20": {
                "invocation": {
                    "address": "0x04d1700b623bf2fc50d1cf889d6efbc394dbd1fe",
                    "callData": "0x756eb3f879cb30fe243b4dfee438691c043318585733ff6000526016600af3",
                    "decodedMethod": null,
                    "errorInfo": "",
                    "fromAddress": "0x0000000000b3f879cb30fe243b4dfee438691c04",
                    "gasUsed": 4418,
                    "id": 20,
                    "methodDecoded": false,
                    "operation": "CREATE",
                    "output": "0x6eb3f879cb30fe243b4dfee438691c043318585733ff",
                    "revert": false,
                    "revertMessage": "",
                    "selector": "",
                    "status": true,
                    "value": "0"
                },
                "nodeType": 0
            },
            "21": {
                "invocation": {
                    "address": "0x4fe20cd6813cbd80b1a04d35f9ecba6c001c0931",
                    "callData": "0x756eb3f879cb30fe243b4dfee438691c043318585733ff6000526016600af3",
                    "decodedMethod": null,
                    "errorInfo": "",
                    "fromAddress": "0x0000000000b3f879cb30fe243b4dfee438691c04",
                    "gasUsed": 4418,
                    "id": 21,
                    "methodDecoded": false,
                    "operation": "CREATE",
                    "output": "0x6eb3f879cb30fe243b4dfee438691c043318585733ff",
                    "revert": false,
                    "revertMessage": "",
                    "selector": "",
                    "status": true,
                    "value": "0"
                },
                "nodeType": 0
            },
            "22": {
                "invocation": {
                    "address": "0x111d5b79315fd0b8e1ccfa80b4b8bc49241e495c",
                    "callData": "0x756eb3f879cb30fe243b4dfee438691c043318585733ff6000526016600af3",
                    "decodedMethod": null,
                    "errorInfo": "",
                    "fromAddress": "0x0000000000b3f879cb30fe243b4dfee438691c04",
                    "gasUsed": 4418,
                    "id": 22,
                    "methodDecoded": false,
                    "operation": "CREATE",
                    "output": "0x6eb3f879cb30fe243b4dfee438691c043318585733ff",
                    "revert": false,
                    "revertMessage": "",
                    "selector": "",
                    "status": true,
                    "value": "0"
                },
                "nodeType": 0
            },
            "23": {
                "invocation": {
                    "address": "0x865c9e1f191cd3093ea19560e9e565974cbcf77f",
                    "callData": "0x756eb3f879cb30fe243b4dfee438691c043318585733ff6000526016600af3",
                    "decodedMethod": null,
                    "errorInfo": "",
                    "fromAddress": "0x0000000000b3f879cb30fe243b4dfee438691c04",
                    "gasUsed": 4418,
                    "id": 23,
                    "methodDecoded": false,
                    "operation": "CREATE",
                    "output": "0x6eb3f879cb30fe243b4dfee438691c043318585733ff",
                    "revert": false,
                    "revertMessage": "",
                    "selector": "",
                    "status": true,
                    "value": "0"
                },
                "nodeType": 0
            },
            "24": {
                "invocation": {
                    "address": "0x26cbe79bdce21732c613b8a92370f63a2c070c44",
                    "callData": "0x756eb3f879cb30fe243b4dfee438691c043318585733ff6000526016600af3",
                    "decodedMethod": null,
                    "errorInfo": "",
                    "fromAddress": "0x0000000000b3f879cb30fe243b4dfee438691c04",
                    "gasUsed": 4418,
                    "id": 24,
                    "methodDecoded": false,
                    "operation": "CREATE",
                    "output": "0x6eb3f879cb30fe243b4dfee438691c043318585733ff",
                    "revert": false,
                    "revertMessage": "",
                    "selector": "",
                    "status": true,
                    "value": "0"
                },
                "nodeType": 0
            },
            "25": {
                "invocation": {
                    "address": "0x3a34032f8758deb6ed2a9fafdc37a48a6af5d3bd",
                    "callData": "0x756eb3f879cb30fe243b4dfee438691c043318585733ff6000526016600af3",
                    "decodedMethod": null,
                    "errorInfo": "",
                    "fromAddress": "0x0000000000b3f879cb30fe243b4dfee438691c04",
                    "gasUsed": 4418,
                    "id": 25,
                    "methodDecoded": false,
                    "operation": "CREATE",
                    "output": "0x6eb3f879cb30fe243b4dfee438691c043318585733ff",
                    "revert": false,
                    "revertMessage": "",
                    "selector": "",
                    "status": true,
                    "value": "0"
                },
                "nodeType": 0
            },
            "26": {
                "invocation": {
                    "address": "0xc2f490f734832b58429cf113a70906189dfe57cd",
                    "callData": "0x756eb3f879cb30fe243b4dfee438691c043318585733ff6000526016600af3",
                    "decodedMethod": null,
                    "errorInfo": "",
                    "fromAddress": "0x0000000000b3f879cb30fe243b4dfee438691c04",
                    "gasUsed": 4418,
                    "id": 26,
                    "methodDecoded": false,
                    "operation": "CREATE",
                    "output": "0x6eb3f879cb30fe243b4dfee438691c043318585733ff",
                    "revert": false,
                    "revertMessage": "",
                    "selector": "",
                    "status": true,
                    "value": "0"
                },
                "nodeType": 0
            },
            "27": {
                "invocation": {
                    "address": "0xb4fc86a764f9d4b75755d230fd7ac1ec1ecc61f6",
                    "callData": "0x756eb3f879cb30fe243b4dfee438691c043318585733ff6000526016600af3",
                    "decodedMethod": null,
                    "errorInfo": "",
                    "fromAddress": "0x0000000000b3f879cb30fe243b4dfee438691c04",
                    "gasUsed": 4418,
                    "id": 27,
                    "methodDecoded": false,
                    "operation": "CREATE",
                    "output": "0x6eb3f879cb30fe243b4dfee438691c043318585733ff",
                    "revert": false,
                    "revertMessage": "",
                    "selector": "",
                    "status": true,
                    "value": "0"
                },
                "nodeType": 0
            },
            "28": {
                "invocation": {
                    "address": "0x6b951b71295c15c298ae9a51cbdb6a9edbc24824",
                    "callData": "0x756eb3f879cb30fe243b4dfee438691c043318585733ff6000526016600af3",
                    "decodedMethod": null,
                    "errorInfo": "",
                    "fromAddress": "0x0000000000b3f879cb30fe243b4dfee438691c04",
                    "gasUsed": 4418,
                    "id": 28,
                    "methodDecoded": false,
                    "operation": "CREATE",
                    "output": "0x6eb3f879cb30fe243b4dfee438691c043318585733ff",
                    "revert": false,
                    "revertMessage": "",
                    "selector": "",
                    "status": true,
                    "value": "0"
                },
                "nodeType": 0
            },
            "29": {
                "invocation": {
                    "address": "0x6ba5d457462477de35baf7a33b90e104b9ca960a",
                    "callData": "0x756eb3f879cb30fe243b4dfee438691c043318585733ff6000526016600af3",
                    "decodedMethod": null,
                    "errorInfo": "",
                    "fromAddress": "0x0000000000b3f879cb30fe243b4dfee438691c04",
                    "gasUsed": 4418,
                    "id": 29,
                    "methodDecoded": false,
                    "operation": "CREATE",
                    "output": "0x6eb3f879cb30fe243b4dfee438691c043318585733ff",
                    "revert": false,
                    "revertMessage": "",
                    "selector": "",
                    "status": true,
                    "value": "0"
                },
                "nodeType": 0
            },
            "3": {
                "invocation": {
                    "address": "0xe892fee2e6cbac2e49df02dd0f6a06d91c9eba26",
                    "callData": "0x756eb3f879cb30fe243b4dfee438691c043318585733ff6000526016600af3",
                    "decodedMethod": null,
                    "errorInfo": "",
                    "fromAddress": "0x0000000000b3f879cb30fe243b4dfee438691c04",
                    "gasUsed": 4418,
                    "id": 3,
                    "methodDecoded": false,
                    "operation": "CREATE",
                    "output": "0x6eb3f879cb30fe243b4dfee438691c043318585733ff",
                    "revert": false,
                    "revertMessage": "",
                    "selector": "",
                    "status": true,
                    "value": "0"
                },
                "nodeType": 0
            },
            "30": {
                "invocation": {
                    "address": "0x06a851f23f89c94f9617eef3e82760bf6e48fef8",
                    "callData": "0x756eb3f879cb30fe243b4dfee438691c043318585733ff6000526016600af3",
                    "decodedMethod": null,
                    "errorInfo": "",
                    "fromAddress": "0x0000000000b3f879cb30fe243b4dfee438691c04",
                    "gasUsed": 4418,
                    "id": 30,
                    "methodDecoded": false,
                    "operation": "CREATE",
                    "output": "0x6eb3f879cb30fe243b4dfee438691c043318585733ff",
                    "revert": false,
                    "revertMessage": "",
                    "selector": "",
                    "status": true,
                    "value": "0"
                },
                "nodeType": 0
            },
            "4": {
                "invocation": {
                    "address": "0xdc2e41034da8293ef87712ae8cee9699392f5cca",
                    "callData": "0x756eb3f879cb30fe243b4dfee438691c043318585733ff6000526016600af3",
                    "decodedMethod": null,
                    "errorInfo": "",
                    "fromAddress": "0x0000000000b3f879cb30fe243b4dfee438691c04",
                    "gasUsed": 4418,
                    "id": 4,
                    "methodDecoded": false,
                    "operation": "CREATE",
                    "output": "0x6eb3f879cb30fe243b4dfee438691c043318585733ff",
                    "revert": false,
                    "revertMessage": "",
                    "selector": "",
                    "status": true,
                    "value": "0"
                },
                "nodeType": 0
            },
            "5": {
                "invocation": {
                    "address": "0x4e07351b230e49c4b9806cb66f9fcbe1b678c6df",
                    "callData": "0x756eb3f879cb30fe243b4dfee438691c043318585733ff6000526016600af3",
                    "decodedMethod": null,
                    "errorInfo": "",
                    "fromAddress": "0x0000000000b3f879cb30fe243b4dfee438691c04",
                    "gasUsed": 4418,
                    "id": 5,
                    "methodDecoded": false,
                    "operation": "CREATE",
                    "output": "0x6eb3f879cb30fe243b4dfee438691c043318585733ff",
                    "revert": false,
                    "revertMessage": "",
                    "selector": "",
                    "status": true,
                    "value": "0"
                },
                "nodeType": 0
            },
            "6": {
                "invocation": {
                    "address": "0x0efe1db949bb27bd8af8e97c7aad5cc4f7245ba1",
                    "callData": "0x756eb3f879cb30fe243b4dfee438691c043318585733ff6000526016600af3",
                    "decodedMethod": null,
                    "errorInfo": "",
                    "fromAddress": "0x0000000000b3f879cb30fe243b4dfee438691c04",
                    "gasUsed": 4418,
                    "id": 6,
                    "methodDecoded": false,
                    "operation": "CREATE",
                    "output": "0x6eb3f879cb30fe243b4dfee438691c043318585733ff",
                    "revert": false,
                    "revertMessage": "",
                    "selector": "",
                    "status": true,
                    "value": "0"
                },
                "nodeType": 0
            },
            "7": {
                "invocation": {
                    "address": "0x847897dc1111cb2b523637bf25255058e7b10e22",
                    "callData": "0x756eb3f879cb30fe243b4dfee438691c043318585733ff6000526016600af3",
                    "decodedMethod": null,
                    "errorInfo": "",
                    "fromAddress": "0x0000000000b3f879cb30fe243b4dfee438691c04",
                    "gasUsed": 4418,
                    "id": 7,
                    "methodDecoded": false,
                    "operation": "CREATE",
                    "output": "0x6eb3f879cb30fe243b4dfee438691c043318585733ff",
                    "revert": false,
                    "revertMessage": "",
                    "selector": "",
                    "status": true,
                    "value": "0"
                },
                "nodeType": 0
            },
            "8": {
                "invocation": {
                    "address": "0x880fb622612ea4b65d70cf0d8ba08cb4b8ac5072",
                    "callData": "0x756eb3f879cb30fe243b4dfee438691c043318585733ff6000526016600af3",
                    "decodedMethod": null,
                    "errorInfo": "",
                    "fromAddress": "0x0000000000b3f879cb30fe243b4dfee438691c04",
                    "gasUsed": 4418,
                    "id": 8,
                    "methodDecoded": false,
                    "operation": "CREATE",
                    "output": "0x6eb3f879cb30fe243b4dfee438691c043318585733ff",
                    "revert": false,
                    "revertMessage": "",
                    "selector": "",
                    "status": true,
                    "value": "0"
                },
                "nodeType": 0
            },
            "9": {
                "invocation": {
                    "address": "0xb506fdc6e4b84732478d1dc8c10d92e16bfcd7b6",
                    "callData": "0x756eb3f879cb30fe243b4dfee438691c043318585733ff6000526016600af3",
                    "decodedMethod": null,
                    "errorInfo": "",
                    "fromAddress": "0x0000000000b3f879cb30fe243b4dfee438691c04",
                    "gasUsed": 4418,
                    "id": 9,
                    "methodDecoded": false,
                    "operation": "CREATE",
                    "output": "0x6eb3f879cb30fe243b4dfee438691c043318585733ff",
                    "revert": false,
                    "revertMessage": "",
                    "selector": "",
                    "status": true,
                    "value": "0"
                },
                "nodeType": 0
            }
        },
        "gasFlame": [
            {
                "children": [
                    {
                        "children": [
                            {
                                "children": [],
                                "depth": 0,
                                "name": "Initial Gas",
                                "value": 21204
                            },
                            {
                                "children": [
                                    {
                                        "children": [],
                                        "depth": 1,
                                        "name": "contract creation",
                                        "value": 4418
                                    },
                                    {
                                        "children": [],
                                        "depth": 1,
                                        "name": "contract creation",
                                        "value": 4418
                                    },
                                    {
                                        "children": [],
                                        "depth": 1,
                                        "name": "contract creation",
                                        "value": 4418
                                    },
                                    {
                                        "children": [],
                                        "depth": 1,
                                        "name": "contract creation",
                                        "value": 4418
                                    },
                                    {
                                        "children": [],
                                        "depth": 1,
                                        "name": "contract creation",
                                        "value": 4418
                                    },
                                    {
                                        "children": [],
                                        "depth": 1,
                                        "name": "contract creation",
                                        "value": 4418
                                    },
                                    {
                                        "children": [],
                                        "depth": 1,
                                        "name": "contract creation",
                                        "value": 4418
                                    },
                                    {
                                        "children": [],
                                        "depth": 1,
                                        "name": "contract creation",
                                        "value": 4418
                                    },
                                    {
                                        "children": [],
                                        "depth": 1,
                                        "name": "contract creation",
                                        "value": 4418
                                    },
                                    {
                                        "children": [],
                                        "depth": 1,
                                        "name": "contract creation",
                                        "value": 4418
                                    },
                                    {
                                        "children": [],
                                        "depth": 1,
                                        "name": "contract creation",
                                        "value": 4418
                                    },
                                    {
                                        "children": [],
                                        "depth": 1,
                                        "name": "contract creation",
                                        "value": 4418
                                    },
                                    {
                                        "children": [],
                                        "depth": 1,
                                        "name": "contract creation",
                                        "value": 4418
                                    },
                                    {
                                        "children": [],
                                        "depth": 1,
                                        "name": "contract creation",
                                        "value": 4418
                                    },
                                    {
                                        "children": [],
                                        "depth": 1,
                                        "name": "contract creation",
                                        "value": 4418
                                    },
                                    {
                                        "children": [],
                                        "depth": 1,
                                        "name": "contract creation",
                                        "value": 4418
                                    },
                                    {
                                        "children": [],
                                        "depth": 1,
                                        "name": "contract creation",
                                        "value": 4418
                                    },
                                    {
                                        "children": [],
                                        "depth": 1,
                                        "name": "contract creation",
                                        "value": 4418
                                    },
                                    {
                                        "children": [],
                                        "depth": 1,
                                        "name": "contract creation",
                                        "value": 4418
                                    },
                                    {
                                        "children": [],
                                        "depth": 1,
                                        "name": "contract creation",
                                        "value": 4418
                                    },
                                    {
                                        "children": [],
                                        "depth": 1,
                                        "name": "contract creation",
                                        "value": 4418
                                    },
                                    {
                                        "children": [],
                                        "depth": 1,
                                        "name": "contract creation",
                                        "value": 4418
                                    },
                                    {
                                        "children": [],
                                        "depth": 1,
                                        "name": "contract creation",
                                        "value": 4418
                                    },
                                    {
                                        "children": [],
                                        "depth": 1,
                                        "name": "contract creation",
                                        "value": 4418
                                    },
                                    {
                                        "children": [],
                                        "depth": 1,
                                        "name": "contract creation",
                                        "value": 4418
                                    },
                                    {
                                        "children": [],
                                        "depth": 1,
                                        "name": "contract creation",
                                        "value": 4418
                                    },
                                    {
                                        "children": [],
                                        "depth": 1,
                                        "name": "contract creation",
                                        "value": 4418
                                    },
                                    {
                                        "children": [],
                                        "depth": 1,
                                        "name": "contract creation",
                                        "value": 4418
                                    },
                                    {
                                        "children": [],
                                        "depth": 1,
                                        "name": "contract creation",
                                        "value": 4418
                                    },
                                    {
                                        "children": [],
                                        "depth": 1,
                                        "name": "contract creation",
                                        "value": 4418
                                    }
                                ],
                                "depth": 0,
                                "name": "Executed Gas",
                                "value": 1108530
                            }
                        ],
                        "depth": -1,
                        "name": "Actual Gas Used",
                        "value": 1129734
                    },
                    {
                        "children": [],
                        "depth": -1,
                        "name": "Refunded Gas",
                        "value": 0
                    }
                ],
                "depth": -2,
                "name": "Total Gas",
                "value": 1129734
            }
        ],
        "isConfirmed": true,
        "mainTrace": [
            {
                "children": [
                    {
                        "children": [
                            {
                                "children": [],
                                "depth": 1,
                                "id": 1,
                                "order": 1
                            },
                            {
                                "children": [],
                                "depth": 1,
                                "id": 2,
                                "order": 2
                            },
                            {
                                "children": [],
                                "depth": 1,
                                "id": 3,
                                "order": 3
                            },
                            {
                                "children": [],
                                "depth": 1,
                                "id": 4,
                                "order": 4
                            },
                            {
                                "children": [],
                                "depth": 1,
                                "id": 5,
                                "order": 5
                            },
                            {
                                "children": [],
                                "depth": 1,
                                "id": 6,
                                "order": 6
                            },
                            {
                                "children": [],
                                "depth": 1,
                                "id": 7,
                                "order": 7
                            },
                            {
                                "children": [],
                                "depth": 1,
                                "id": 8,
                                "order": 8
                            },
                            {
                                "children": [],
                                "depth": 1,
                                "id": 9,
                                "order": 9
                            },
                            {
                                "children": [],
                                "depth": 1,
                                "id": 10,
                                "order": 10
                            },
                            {
                                "children": [],
                                "depth": 1,
                                "id": 11,
                                "order": 11
                            },
                            {
                                "children": [],
                                "depth": 1,
                                "id": 12,
                                "order": 12
                            },
                            {
                                "children": [],
                                "depth": 1,
                                "id": 13,
                                "order": 13
                            },
                            {
                                "children": [],
                                "depth": 1,
                                "id": 14,
                                "order": 14
                            },
                            {
                                "children": [],
                                "depth": 1,
                                "id": 15,
                                "order": 15
                            },
                            {
                                "children": [],
                                "depth": 1,
                                "id": 16,
                                "order": 16
                            },
                            {
                                "children": [],
                                "depth": 1,
                                "id": 17,
                                "order": 17
                            },
                            {
                                "children": [],
                                "depth": 1,
                                "id": 18,
                                "order": 18
                            },
                            {
                                "children": [],
                                "depth": 1,
                                "id": 19,
                                "order": 19
                            },
                            {
                                "children": [],
                                "depth": 1,
                                "id": 20,
                                "order": 20
                            },
                            {
                                "children": [],
                                "depth": 1,
                                "id": 21,
                                "order": 21
                            },
                            {
                                "children": [],
                                "depth": 1,
                                "id": 22,
                                "order": 22
                            },
                            {
                                "children": [],
                                "depth": 1,
                                "id": 23,
                                "order": 23
                            },
                            {
                                "children": [],
                                "depth": 1,
                                "id": 24,
                                "order": 24
                            },
                            {
                                "children": [],
                                "depth": 1,
                                "id": 25,
                                "order": 25
                            },
                            {
                                "children": [],
                                "depth": 1,
                                "id": 26,
                                "order": 26
                            },
                            {
                                "children": [],
                                "depth": 1,
                                "id": 27,
                                "order": 27
                            },
                            {
                                "children": [],
                                "depth": 1,
                                "id": 28,
                                "order": 28
                            },
                            {
                                "children": [],
                                "depth": 1,
                                "id": 29,
                                "order": 29
                            },
                            {
                                "children": [],
                                "depth": 1,
                                "id": 30,
                                "order": 30
                            }
                        ],
                        "depth": 0,
                        "id": 0,
                        "order": 0
                    }
                ],
                "depth": -1,
                "id": -1,
                "order": -1
            }
        ],
        "mainTraceNodeCount": 31,
        "parentIdMap": {
            "0": -1,
            "1": 0,
            "10": 0,
            "11": 0,
            "12": 0,
            "13": 0,
            "14": 0,
            "15": 0,
            "16": 0,
            "17": 0,
            "18": 0,
            "19": 0,
            "2": 0,
            "20": 0,
            "21": 0,
            "22": 0,
            "23": 0,
            "24": 0,
            "25": 0,
            "26": 0,
            "27": 0,
            "28": 0,
            "29": 0,
            "3": 0,
            "30": 0,
            "4": 0,
            "5": 0,
            "6": 0,
            "7": 0,
            "8": 0,
            "9": 0
        },
        "tidyTrace": [
            {
                "children": [
                    {
                        "children": [
                            {
                                "children": [],
                                "depth": 1,
                                "id": 1,
                                "order": 1
                            },
                            {
                                "children": [],
                                "depth": 1,
                                "id": 2,
                                "order": 2
                            },
                            {
                                "children": [],
                                "depth": 1,
                                "id": 3,
                                "order": 3
                            },
                            {
                                "children": [],
                                "depth": 1,
                                "id": 4,
                                "order": 4
                            },
                            {
                                "children": [],
                                "depth": 1,
                                "id": 5,
                                "order": 5
                            },
                            {
                                "children": [],
                                "depth": 1,
                                "id": 6,
                                "order": 6
                            },
                            {
                                "children": [],
                                "depth": 1,
                                "id": 7,
                                "order": 7
                            },
                            {
                                "children": [],
                                "depth": 1,
                                "id": 8,
                                "order": 8
                            },
                            {
                                "children": [],
                                "depth": 1,
                                "id": 9,
                                "order": 9
                            },
                            {
                                "children": [],
                                "depth": 1,
                                "id": 10,
                                "order": 10
                            },
                            {
                                "children": [],
                                "depth": 1,
                                "id": 11,
                                "order": 11
                            },
                            {
                                "children": [],
                                "depth": 1,
                                "id": 12,
                                "order": 12
                            },
                            {
                                "children": [],
                                "depth": 1,
                                "id": 13,
                                "order": 13
                            },
                            {
                                "children": [],
                                "depth": 1,
                                "id": 14,
                                "order": 14
                            },
                            {
                                "children": [],
                                "depth": 1,
                                "id": 15,
                                "order": 15
                            },
                            {
                                "children": [],
                                "depth": 1,
                                "id": 16,
                                "order": 16
                            },
                            {
                                "children": [],
                                "depth": 1,
                                "id": 17,
                                "order": 17
                            },
                            {
                                "children": [],
                                "depth": 1,
                                "id": 18,
                                "order": 18
                            },
                            {
                                "children": [],
                                "depth": 1,
                                "id": 19,
                                "order": 19
                            },
                            {
                                "children": [],
                                "depth": 1,
                                "id": 20,
                                "order": 20
                            },
                            {
                                "children": [],
                                "depth": 1,
                                "id": 21,
                                "order": 21
                            },
                            {
                                "children": [],
                                "depth": 1,
                                "id": 22,
                                "order": 22
                            },
                            {
                                "children": [],
                                "depth": 1,
                                "id": 23,
                                "order": 23
                            },
                            {
                                "children": [],
                                "depth": 1,
                                "id": 24,
                                "order": 24
                            },
                            {
                                "children": [],
                                "depth": 1,
                                "id": 25,
                                "order": 25
                            },
                            {
                                "children": [],
                                "depth": 1,
                                "id": 26,
                                "order": 26
                            },
                            {
                                "children": [],
                                "depth": 1,
                                "id": 27,
                                "order": 27
                            },
                            {
                                "children": [],
                                "depth": 1,
                                "id": 28,
                                "order": 28
                            },
                            {
                                "children": [],
                                "depth": 1,
                                "id": 29,
                                "order": 29
                            },
                            {
                                "children": [],
                                "depth": 1,
                                "id": 30,
                                "order": 30
                            }
                        ],
                        "depth": 0,
                        "id": 0,
                        "order": 0
                    }
                ],
                "depth": -1,
                "id": -1,
                "order": -1
            }
        ],
        "tidyTraceNodeCount": 31
    },
    "state_change": {
        "stateChanges": [
            {
                "address": "0x0000000000b3f879cb30fe243b4dfee438691c04",
                "erc": "ERC-20",
                "slots": [
                    {
                        "current": "0x00000000000000000000000000000000000000000000000000000000004f1a98",
                        "key": "0x0000000000000000000000000000000000000000000000000000000000000002",
                        "prev": "0x00000000000000000000000000000000000000000000000000000000004f1a7a"
                    },
                    {
                        "current": "0x0000000000000000000000000000000000000000000000000000000000005352",
                        "key": "0x0b4b88cd2cafebb371ffbf9690e7adc0e5fc7dc32cab0e17240a18189311ee50",
                        "prev": "0x0000000000000000000000000000000000000000000000000000000000005334"
                    }
                ],
                "storageVariables": [
                    {
                        "name": "s_head",
                        "type": "uint256",
                        "value": {
                            "current": "5184152",
                            "prev": "5184122",
                            "typeTag": 1
                        }
                    },
                    {
                        "name": "s_balances",
                        "type": "mapping(address => uint256)",
                        "value": {
                            "pairs": [
                                {
                                    "key": "0x086cd0254e08f69d0cc6d5bb4a8cb3cc1c0c1f3c",
                                    "value": {
                                        "current": "21330",
                                        "prev": "21300",
                                        "typeTag": 1
                                    }
                                }
                            ],
                            "typeTag": 4
                        }
                    }
                ]
            }
        ]
    }
}