{
    "balance_change": {
        "balanceChanges": [
            {
                "account": "0x1c8ddc8c98fa6e487fe89045ece0332091548bf2",
                "assets": [
                    {
                        "address": "0x66a0f676479cee1d7373f3dc2e2952778bff5bd6",
                        "amount": "1,905.954",
                        "iconUrl": "https://assets.blocksec.com/icon/08b806add3b154ad107bf86553d5489d0cb78224c34e3fae113ae9618f5f8d89.png",
                        "isERC1155": false,
                        "isERC721": false,
                        "sign": false,
                        "value": "386.4120713"
                    }
                ]
            },
            {
                "account": "0xa96bda2c03461d1aad84f5886a3267256911c138",
                "assets": [
                    {
                        "address": "0x66a0f676479cee1d7373f3dc2e2952778bff5bd6",
                        "amount": "1,905.954",
                        "iconUrl": "https://assets.blocksec.com/icon/08b806add3b154ad107bf86553d5489d0cb78224c34e3fae113ae9618f5f8d89.png",
                        "isERC1155": false,
                        "isERC721": false,
                        "sign": true,
                        "value": "386.4120713"
                    }
                ]
            }
        ]
    },
    "profile": {
        "basic_info": {
            "baseFee": "",
            "blockNumber": 11578476,
            "callData": "0xa9059cbb000000000000000000000000a96bda2c03461d1aad84f5886a3267256911c138000000000000000000000000000000000000000000000067526cd8d2aadd0000",
            "debugEnable": true,
            "errorInfo": "",
            "eventCount": 1,
            "feeRecipient": "0x829bd824b016326a401d083b33d092293333a830",
            "formatValue": "0",
            "gasLimit": 76681,
            "gasPrice": "61",
            "gasUsed": 51121,
            "intTxnCount": 0,
            "internalRevert": false,
            "internalRevertMessage": "",
            "isContractCreation": false,
            "isFlashloan": false,
            "maxFee": "",
            "nonce": 19,
            "overwritedBlockNumber": -1,
            "priorityFee": "",
            "receiver": "0x66a0f676479cee1d7373f3dc2e2952778bff5bd6",
            "revertMessage": "",
            "sender": "0x1c8ddc8c98fa6e487fe89045ece0332091548bf2",
            "simulationEnable": true,
            "sourceTxnHash": "0xfd960e30255bb853f32dde536d1e6995c321cb74b35cd4b3df1459ee0234f7ba",
            "status": true,
            "timestamp": "2021-01-03T01:13:37Z",
            "transactionFee": "0.003118381",
            "txnHash": "0xfd960e30255bb853f32dde536d1e6995c321cb74b35cd4b3df1459ee0234f7ba",
            "txnIndex": 84,
            "type": 0,
            "value": "0"
        },
        "fund_flow": [
            {
                "amount": "1,905.954",
                "from": "0x1c8ddc8c98fa6e487fe89045ece0332091548bf2",
                "id": 1,
                "isERC1155": false,
                "isERC721": false,
                "isReverted": false,
                "order": 1,
                "to": "0xa96bda2c03461d1aad84f5886a3267256911c138",
                "token": "0x66a0f676479cee1d7373f3dc2e2952778bff5bd6"
            }
        ],
        "token_infos": [
            {
                "address": "0x66a0f676479cee1d7373f3dc2e2952778bff5bd6",
                "decimals": 18
            },
            {
                "address": "0xc02aaa39b223fe8d0a0e5c4f27ead9083c756cc2",
                "decimals": 18
            },
            {
                "address": "0xeeeeeeeeeeeeeeeeeeeeeeeeeeeeeeeeeeeeeeee",
                "decimals": 18
            }
        ]
    },
    "address_label": {
        "labels": [
            {
                "address": "0x66a0f676479cee1d7373f3dc2e2952778bff5bd6",
                "label": "Wise: WISE Token"
            },
            {
                "address": "0x0000000000000000000000000000000000000001",
                "label": "Precompiled"
            },
            {
                "address": "0x0000000000000000000000000000000000000002",
                "label": "Precompiled"
            },
            {
                "address": "0x0000000000000000000000000000000000000003",
                "label": "Precompiled"
            },
            {
                "address": "0x0000000000000000000000000000000000000004",
                "label": "Precompiled"
            },
            {
                "address": "0xeeeeeeeeeeeeeeeeeeeeeeeeeeeeeeeeeeeeeeee",
                "label": "Ether"
            }
        ]
    },
    "trace": {
        "accountLabels": null,
        "dataMap": {
            "-1": {
                "invocation": {
                    "address": "0x1c8ddc8c98fa6e487fe89045ece0332091548bf2",
                    "callData": "",
                    "decodedMethod": null,
                    "errorInfo": "",
                    "fromAddress": "",
                    "gasUsed": 0,
                    "id": -1,
                    "methodDecoded": false,
                    "operation": "",
                    "output": "",
                    "revert": false,
                    "revertMessage": "",
                    "selector": "",
                    "status": false,
                    "value": ""
                },
                "nodeType": 0
            },
            "0": {
                "invocation": {
                    "address": "0x66a0f676479cee1d7373f3dc2e2952778bff5bd6",
                    "callData": "0x000000000000000000000000a96bda2c03461d1aad84f5886a3267256911c138000000000000000000000000000000000000000000000067526cd8d2aadd0000",
                    "decodedMethod": {
                        "callParams": [
                            {
                                "name": "recipient",
                                "type": "address",
                                "value": "0xa96bda2c03461d1aad84f5886a3267256911c138"
                            },
                            {
                                "decimalAvailable": true,
                                "name": "amount",
                                "type": "uint256",
                                "value": "1,905,954,000,000,000,000,000"
                            }
                        ],
                        "constructorArguments": "",
                        "name": "transfer",
                        "returnParams": [
                            {
                                "name": "",
                                "type": "bool",
                                "value": true
                            }
                        ],
                        "signature": "transfer(address,uint256)"
                    },
                    "errorInfo": "",
                    "fromAddress": "0x1c8ddc8c98fa6e487fe89045ece0332091548bf2",
                    "gasUsed": 51121,
                    "id": 0,
                    "methodDecoded": true,
                    "operation": "CALL",
                    "output": "0x0000000000000000000000000000000000000000000000000000000000000001",
                    "revert": false,
                    "revertMessage": "",
                    "selector": "0xa9059cbb",
                    "status": true,
                    "value": "0"
                },
                "nodeType": 0
            },
            "1": {
                "event": {
                    "contract": "0x66a0f676479cee1d7373f3dc2e2952778bff5bd6",
                    "decodedLog": {
                        "name": "Transfer",
                        "params": [
                            {
                                "name": "from",
                                "type": "address",
                                "value": "0x1c8ddc8c98fa6e487fe89045ece0332091548bf2"
                            },
                            {
                                "name": "to",
                                "type": "address",
                                "value": "0xa96bda2c03461d1aad84f5886a3267256911c138"
                            },
                            {
                                "decimalAvailable": true,
                                "name": "value",
                                "type": "uint256",
                                "value": "1,905,954,000,000,000,000,000"
                            }
                        ],
                        "signature": "Transfer(address,address,uint256)"
                    },
                    "id": 1,
                    "logData": "0x000000000000000000000000000000000000000000000067526cd8d2aadd0000",
                    "logDecoded": true,
                    "operation": "EVENT",
                    "revert": false,
                    "status": true,
                    "topics": [
                        "0xddf252ad1be2c89b69c2b068fc378daa952ba7f163c4a11628f55a4df523b3ef",
                        "0x0000000000000000000000001c8ddc8c98fa6e487fe89045ece0332091548bf2",
                        "0x000000000000000000000000a96bda2c03461d1aad84f5886a3267256911c138"
                    ]
                },
                "nodeType": 1
            }
        },
        "gasFlame": [
            {
                "children": [
                    {
                        "children": [
                            {
                                "children": [],
                                "depth": 0,
                                "name": "Initial Gas",
                                "value": 21644
                            },
                            {
                                "children": [],
                                "depth": 0,
                                "name": "Executed Gas",
                                "value": 29477
                            }
                        ],
                        "depth": -1,
                        "name": "Actual Gas Used",
                        "value": 51121
                    },
                    {
                        "children": [],
                        "depth": -1,
                        "name": "Refunded Gas",
                        "value": 0
                    }
                ],
                "depth": -2,
                "name": "Total Gas",
                "value": 51121
            }
        ],
        "isConfirmed": true,
        "mainTrace": [
            {
                "children": [
                    {
                        "children": [
                            {
                                "children": [],
                                "depth": 1,
                                "id": 1,
                                "order": 1
                            }
                        ],
                        "depth": 0,
                        "id": 0,
                        "order": 0
                    }
                ],
                "depth": -1,
                "id": -1,
                "order": -1
            }
        ],
        "mainTraceNodeCount": 2,
        "parentIdMap": {
            "0": -1,
            "1": 0
        },
        "tidyTrace": [
            {
                "children": [
                    {
                        "children": [
                            {
                                "children": [],
                                "depth": 1,
                                "id": 1,
                                "order": 1
                            }
                        ],
                        "depth": 0,
                        "id": 0,
                        "order": 0
                    }
                ],
                "depth": -1,
                "id": -1,
                "order": -1
            }
        ],
        "tidyTraceNodeCount": 2
    },
    "state_change": {
        "stateChanges": [
            {
                "address": "0x66a0f676479cee1d7373f3dc2e2952778bff5bd6",
                "erc": "ERC-20",
                "slots": [
                    {
                        "current": "0x000000000000000000000000000000000000000000000067526cd8d2aadd0000",
                        "key": "0xb7d61bb6fa7bedbd429371f5f0a75ae55420ee3cd0bca016bdeedd14e0b19cc0",
                        "prev": "0x0000000000000000000000000000000000000000000000000000000000000000"
                    },
                    {
                        "current": "0x000000000000000000000000000000000000000000000000000085e2e548ecf7",
                        "key": "0x111387ec25db4494514358c501802d4e728eaba7f6a43ce65938b290309913f4",
                        "prev": "0x000000000000000000000000000000000000000000000067526d5eb59025ecf7"
                    }
                ],
                "storageVariables": [
                    {
                        "name": "_balances",
                        "type": "mapping(address => uint256)",
                        "value": {
                            "pairs": [
                                {
                                    "key": "0x1c8ddc8c98fa6e487fe89045ece0332091548bf2",
                                    "value": {
                                        "current": "147209555864823",
                                        "prev": "1905954147209555864823",
                                        "typeTag": 1
                                    }
                                },
                                {
                                    "key": "0xa96bda2c03461d1aad84f5886a3267256911c138",
                                    "value": {
                                        "current": "1905954000000000000000",
                                        "prev": "0",
                                        "typeTag": 1
                                    }
                                }
                            ],
                            "typeTag": 4
                        }
                    }
                ]
            }
        ]
    }
}