{
    "balance_change": {
        "balanceChanges": [
            {
                "account": "0xbd6d79f3f02584cfcb754437ac6776c4c6e0a0ec",
                "assets": [
                    {
                        "address": "0x4bbbc57af270138ef2ff2c50dbfad684e9e0e604",
                        "amount": "8,432,680.82527997",
                        "iconUrl": "https://assets.blocksec.com/icon/a910af1f4da0b51003515fd52d091627fed311a31d4d80fa83bbdd3480105569.png",
                        "isERC1155": false,
                        "isERC721": false,
                        "sign": false,
                        "value": ""
                    }
                ]
            },
            {
                "account": "0xdefe519c97051b5829e0a96835e2755fcad138a2",
                "assets": [
                    {
                        "address": "0x4bbbc57af270138ef2ff2c50dbfad684e9e0e604",
                        "amount": "8,432,680.82527997",
                        "iconUrl": "https://assets.blocksec.com/icon/a910af1f4da0b51003515fd52d091627fed311a31d4d80fa83bbdd3480105569.png",
                        "isERC1155": false,
                        "isERC721": false,
                        "sign": true,
                        "value": ""
                    }
                ]
            }
        ]
    },
    "profile": {
        "basic_info": {
            "baseFee": "",
            "blockNumber": 6037599,
            "callData": "0xa9059cbb000000000000000000000000defe519c97051b5829e0a96835e2755fcad138a200000000000000000000000000000000000000000006f9b08b24ee4bf3b85400",
            "debugEnable": true,
            "errorInfo": "",
            "eventCount": 1,
            "feeRecipient": "0x5a0b54d5dc17e0aadc383d2db43b0a0d3e029c4c",
            "formatValue": "0",
            "gasLimit": 38070,
            "gasPrice": "20",
            "gasUsed": 38070,
            "intTxnCount": 0,
            "internalRevert": false,
            "internalRevertMessage": "",
            "isContractCreation": false,
            "isFlashloan": false,
            "maxFee": "",
            "nonce": 18100,
            "overwritedBlockNumber": -1,
            "priorityFee": "",
            "receiver": "0x4bbbc57af270138ef2ff2c50dbfad684e9e0e604",
            "revertMessage": "",
            "sender": "0xbd6d79f3f02584cfcb754437ac6776c4c6e0a0ec",
            "simulationEnable": true,
            "sourceTxnHash": "0xfdc6bdb2fcc2c11b43727f129dc7108c2d8663f145c22935831adda1c7001b5c",
            "status": true,
            "timestamp": "2018-07-27T05:43:37Z",
            "transactionFee": "0.0007614",
            "txnHash": "0xfdc6bdb2fcc2c11b43727f129dc7108c2d8663f145c22935831adda1c7001b5c",
            "txnIndex": 9,
            "type": 0,
            "value": "0"
        },
        "fund_flow": [
            {
                "amount": "8,432,680.82527997",
                "from": "0xbd6d79f3f02584cfcb754437ac6776c4c6e0a0ec",
                "id": 1,
                "isERC1155": false,
                "isERC721": false,
                "isReverted": false,
                "order": 1,
                "to": "0xdefe519c97051b5829e0a96835e2755fcad138a2",
                "token": "0x4bbbc57af270138ef2ff2c50dbfad684e9e0e604"
            }
        ],
        "token_infos": [
            {
                "address": "0x4bbbc57af270138ef2ff2c50dbfad684e9e0e604",
                "decimals": 18
            },
            {
                "address": "0xc02aaa39b223fe8d0a0e5c4f27ead9083c756cc2",
                "decimals": 18
            },
            {
                "address": "0xeeeeeeeeeeeeeeeeeeeeeeeeeeeeeeeeeeeeeeee",
                "decimals": 18
            }
        ]
    },
    "address_label": {
        "labels": [
            {
                "address": "0x0000000000000000000000000000000000000001",
                "label": "Precompiled"
            },
            {
                "address": "0x0000000000000000000000000000000000000002",
                "label": "Precompiled"
            },
            {
                "address": "0x0000000000000000000000000000000000000003",
                "label": "Precompiled"
            },
            {
                "address": "0x0000000000000000000000000000000000000004",
                "label": "Precompiled"
            },
            {
                "address": "0xeeeeeeeeeeeeeeeeeeeeeeeeeeeeeeeeeeeeeeee",
                "label": "Ether"
            },
            {
                "address": "0x4bbbc57af270138ef2ff2c50dbfad684e9e0e604",
                "label": "WABnetwork Token"
            }
        ]
    },
    "trace": {
        "accountLabels": null,
        "dataMap": {
            "-1": {
                "invocation": {
                    "address": "0xbd6d79f3f02584cfcb754437ac6776c4c6e0a0ec",
                    "callData": "",
                    "decodedMethod": null,
                    "errorInfo": "",
                    "fromAddress": "",
                    "gasUsed": 0,
                    "id": -1,
                    "methodDecoded": false,
                    "operation": "",
                    "output": "",
                    "revert": false,
                    "revertMessage": "",
                    "selector": "",
                    "status": false,
                    "value": ""
                },
                "nodeType": 0
            },
            "0": {
                "invocation": {
                    "address": "0x4bbbc57af270138ef2ff2c50dbfad684e9e0e604",
                    "callData": "0x000000000000000000000000defe519c97051b5829e0a96835e2755fcad138a200000000000000000000000000000000000000000006f9b08b24ee4bf3b85400",
                    "decodedMethod": {
                        "callParams": [
                            {
                                "name": "_to",
                                "type": "address",
                                "value": "0xdefe519c97051b5829e0a96835e2755fcad138a2"
                            },
                            {
                                "decimalAvailable": true,
                                "name": "_value",
                                "type": "uint256",
                                "value": "8,432,680,825,279,970,000,000,000"
                            }
                        ],
                        "constructorArguments": "",
                        "name": "transfer",
                        "returnParams": [],
                        "signature": "transfer(address,uint256)"
                    },
                    "errorInfo": "",
                    "fromAddress": "0xbd6d79f3f02584cfcb754437ac6776c4c6e0a0ec",
                    "gasUsed": 38070,
                    "id": 0,
                    "methodDecoded": true,
                    "operation": "CALL",
                    "output": "",
                    "revert": false,
                    "revertMessage": "",
                    "selector": "0xa9059cbb",
                    "status": true,
                    "value": "0"
                },
                "nodeType": 0
            },
            "1": {
                "event": {
                    "contract": "0x4bbbc57af270138ef2ff2c50dbfad684e9e0e604",
                    "decodedLog": {
                        "name": "Transfer",
                        "params": [
                            {
                                "name": "from",
                                "type": "address",
                                "value": "0xbd6d79f3f02584cfcb754437ac6776c4c6e0a0ec"
                            },
                            {
                                "name": "to",
                                "type": "address",
                                "value": "0xdefe519c97051b5829e0a96835e2755fcad138a2"
                            },
                            {
                                "decimalAvailable": true,
                                "name": "value",
                                "type": "uint256",
                                "value": "8,432,680,825,279,970,000,000,000"
                            }
                        ],
                        "signature": "Transfer(address,address,uint256)"
                    },
                    "id": 1,
                    "logData": "0x00000000000000000000000000000000000000000006f9b08b24ee4bf3b85400",
                    "logDecoded": true,
                    "operation": "EVENT",
                    "revert": false,
                    "status": true,
                    "topics": [
                        "0xddf252ad1be2c89b69c2b068fc378daa952ba7f163c4a11628f55a4df523b3ef",
                        "0x000000000000000000000000bd6d79f3f02584cfcb754437ac6776c4c6e0a0ec",
                        "0x000000000000000000000000defe519c97051b5829e0a96835e2755fcad138a2"
                    ]
                },
                "nodeType": 1
            }
        },
        "gasFlame": [
            {
                "children": [
                    {
                        "children": [
                            {
                                "children": [],
                                "depth": 0,
                                "name": "Initial Gas",
                                "value": 23448
                            },
                            {
                                "children": [],
                                "depth": 0,
                                "name": "Executed Gas",
                                "value": 14622
                            }
                        ],
                        "depth": -1,
                        "name": "Actual Gas Used",
                        "value": 38070
                    },
                    {
                        "children": [],
                        "depth": -1,
                        "name": "Refunded Gas",
                        "value": 0
                    }
                ],
                "depth": -2,
                "name": "Total Gas",
                "value": 38070
            }
        ],
        "isConfirmed": true,
        "mainTrace": [
            {
                "children": [
                    {
                        "children": [
                            {
                                "children": [],
                                "depth": 1,
                                "id": 1,
                                "order": 1
                            }
                        ],
                        "depth": 0,
                        "id": 0,
                        "order": 0
                    }
                ],
                "depth": -1,
                "id": -1,
                "order": -1
            }
        ],
        "mainTraceNodeCount": 2,
        "parentIdMap": {
            "0": -1,
            "1": 0
        },
        "tidyTrace": [
            {
                "children": [
                    {
                        "children": [
                            {
                                "children": [],
                                "depth": 1,
                                "id": 1,
                                "order": 1
                            }
                        ],
                        "depth": 0,
                        "id": 0,
                        "order": 0
                    }
                ],
                "depth": -1,
                "id": -1,
                "order": -1
            }
        ],
        "tidyTraceNodeCount": 2
    },
    "state_change": {
        "stateChanges": [
            {
                "address": "0x4bbbc57af270138ef2ff2c50dbfad684e9e0e604",
                "erc": "",
                "slots": [
                    {
                        "current": "0x000000000000000000000000000000000000000005b4aa6e3c60c04d0c578800",
                        "key": "0x1d69b27d5d7b3e890154e3b55e8f6306b15094c643bbc7a50bba887d9929c1c7",
                        "prev": "0x000000000000000000000000000000000000000005bba41ec785ae99000fdc00"
                    },
                    {
                        "current": "0x000000000000000000000000000000000000000000115a325b317bae72585400",
                        "key": "0x088c42b39e813997b7428bcc95117842f1df541d3089a117e5cc5f0d706c7249",
                        "prev": "0x0000000000000000000000000000000000000000000a6081d00c8d627ea00000"
                    }
                ],
                "storageVariables": [
                    {
                        "name": "balanceOf",
                        "type": "mapping(address => uint256)",
                        "value": {
                            "pairs": [
                                {
                                    "key": "0xbd6d79f3f02584cfcb754437ac6776c4c6e0a0ec",
                                    "value": {
                                        "current": "1765836532431983220000000000",
                                        "prev": "1774269213257263190000000000",
                                        "typeTag": 1
                                    }
                                },
                                {
                                    "key": "0xdefe519c97051b5829e0a96835e2755fcad138a2",
                                    "value": {
                                        "current": "20977680825279970000000000",
                                        "prev": "12545000000000000000000000",
                                        "typeTag": 1
                                    }
                                }
                            ],
                            "typeTag": 4
                        }
                    }
                ]
            }
        ]
    }
}