{
    "balance_change": {
        "balanceChanges": [
            {
                "account": "0x86d0b90816f8f8290129dd9e62c7a75117547a98",
                "assets": [
                    {
                        "address": "0x3b3ee1931dc30c1957379fac9aba94d1c48a5405",
                        "amount": "1",
                        "iconUrl": "https://assets.blocksec.com/nft/icon/nft_659aee40-12e1-463d-bffb-79e555bf3a37.png",
                        "isERC1155": false,
                        "isERC721": true,
                        "sign": false,
                        "tokenID": "26208",
                        "value": ""
                    }
                ]
            },
            {
                "account": "0x0000000000000000000000000000000000000000",
                "assets": [
                    {
                        "address": "0x3b3ee1931dc30c1957379fac9aba94d1c48a5405",
                        "amount": "1",
                        "iconUrl": "https://assets.blocksec.com/nft/icon/nft_659aee40-12e1-463d-bffb-79e555bf3a37.png",
                        "isERC1155": false,
                        "isERC721": true,
                        "sign": true,
                        "tokenID": "26208",
                        "value": ""
                    }
                ]
            }
        ]
    },
    "profile": {
        "basic_info": {
            "baseFee": "",
            "blockNumber": 12348715,
            "callData": "0x42966c680000000000000000000000000000000000000000000000000000000000006660",
            "debugEnable": true,
            "errorInfo": "",
            "eventCount": 2,
            "feeRecipient": "0xeea5b82b61424df8020f5fedd81767f2d0d25bfb",
            "formatValue": "0",
            "gasLimit": 125825,
            "gasPrice": "29",
            "gasUsed": 56543,
            "intTxnCount": 1,
            "internalRevert": false,
            "internalRevertMessage": "",
            "isContractCreation": false,
            "isFlashloan": false,
            "maxFee": "",
            "nonce": 82,
            "overwritedBlockNumber": -1,
            "priorityFee": "",
            "receiver": "0x3b3ee1931dc30c1957379fac9aba94d1c48a5405",
            "revertMessage": "",
            "sender": "0x86d0b90816f8f8290129dd9e62c7a75117547a98",
            "simulationEnable": true,
            "sourceTxnHash": "0xfda07ef40d9aa29f6d038fc8474ff1006e0ba18d51bf1450a09cf63ba80dff6c",
            "status": true,
            "timestamp": "2021-05-01T13:59:24Z",
            "transactionFee": "0.001639747",
            "txnHash": "0xfda07ef40d9aa29f6d038fc8474ff1006e0ba18d51bf1450a09cf63ba80dff6c",
            "txnIndex": 31,
            "type": 0,
            "value": "0"
        },
        "fund_flow": [
            {
                "amount": "1",
                "from": "0x86d0b90816f8f8290129dd9e62c7a75117547a98",
                "id": 1,
                "isERC1155": false,
                "isERC721": true,
                "isReverted": false,
                "order": 1,
                "to": "0x0000000000000000000000000000000000000000",
                "token": "0x3b3ee1931dc30c1957379fac9aba94d1c48a5405",
                "tokenID": "26208"
            }
        ],
        "token_infos": [
            {
                "address": "0xc02aaa39b223fe8d0a0e5c4f27ead9083c756cc2",
                "decimals": 18
            },
            {
                "address": "0xeeeeeeeeeeeeeeeeeeeeeeeeeeeeeeeeeeeeeeee",
                "decimals": 18
            }
        ]
    },
    "address_label": {
        "labels": [
            {
                "address": "0x0000000000000000000000000000000000000002",
                "label": "Precompiled"
            },
            {
                "address": "0x0000000000000000000000000000000000000003",
                "label": "Precompiled"
            },
            {
                "address": "0x0000000000000000000000000000000000000004",
                "label": "Precompiled"
            },
            {
                "address": "0xeeeeeeeeeeeeeeeeeeeeeeeeeeeeeeeeeeeeeeee",
                "label": "Ether"
            },
            {
                "address": "0x3b3ee1931dc30c1957379fac9aba94d1c48a5405",
                "label": "Foundation: FND Token"
            },
            {
                "address": "0x0000000000000000000000000000000000000001",
                "label": "Precompiled"
            }
        ]
    },
    "trace": {
        "accountLabels": null,
        "dataMap": {
            "-1": {
                "invocation": {
                    "address": "0x86d0b90816f8f8290129dd9e62c7a75117547a98",
                    "callData": "",
                    "decodedMethod": null,
                    "errorInfo": "",
                    "fromAddress": "",
                    "gasUsed": 0,
                    "id": -1,
                    "methodDecoded": false,
                    "operation": "",
                    "output": "",
                    "revert": false,
                    "revertMessage": "",
                    "selector": "",
                    "status": false,
                    "value": ""
                },
                "nodeType": 0
            },
            "0": {
                "invocation": {
                    "address": "0x3b3ee1931dc30c1957379fac9aba94d1c48a5405",
                    "callData": "0x0000000000000000000000000000000000000000000000000000000000006660",
                    "decodedMethod": {
                        "callParams": [
                            {
                                "name": "amount",
                                "type": "uint256",
                                "value": "26,208"
                            }
                        ],
                        "constructorArguments": "",
                        "name": "burn",
                        "returnParams": [],
                        "signature": "burn(uint256)"
                    },
                    "errorInfo": "",
                    "fromAddress": "0x86d0b90816f8f8290129dd9e62c7a75117547a98",
                    "gasUsed": 56543,
                    "id": 0,
                    "methodDecoded": true,
                    "operation": "CALL",
                    "output": "",
                    "revert": false,
                    "revertMessage": "",
                    "selector": "0x42966c68",
                    "status": true,
                    "value": "0"
                },
                "nodeType": 0
            },
            "1": {
                "invocation": {
                    "address": "0x039aa981d804f6a52096c64b542d46339fe18a9d",
                    "callData": "0x0000000000000000000000000000000000000000000000000000000000006660",
                    "decodedMethod": {
                        "callParams": [
                            {
                                "name": "amount",
                                "type": "uint256",
                                "value": "26,208"
                            }
                        ],
                        "constructorArguments": "",
                        "name": "burn",
                        "returnParams": [],
                        "signature": "burn(uint256)"
                    },
                    "errorInfo": "",
                    "fromAddress": "0x3b3ee1931dc30c1957379fac9aba94d1c48a5405",
                    "gasUsed": 84596,
                    "id": 1,
                    "methodDecoded": true,
                    "operation": "DELEGATECALL",
                    "output": "",
                    "revert": false,
                    "revertMessage": "",
                    "selector": "0x42966c68",
                    "status": true,
                    "value": "0"
                },
                "nodeType": 0
            },
            "2": {
                "event": {
                    "contract": "0x3b3ee1931dc30c1957379fac9aba94d1c48a5405",
                    "decodedLog": {
                        "name": "Approval",
                        "params": [
                            {
                                "name": "owner",
                                "type": "address",
                                "value": "0x86d0b90816f8f8290129dd9e62c7a75117547a98"
                            },
                            {
                                "name": "approved",
                                "type": "address",
                                "value": "0x0000000000000000000000000000000000000000"
                            },
                            {
                                "decimalAvailable": true,
                                "name": "tokenId",
                                "type": "uint256",
                                "value": "26,208"
                            }
                        ],
                        "signature": "Approval(address,address,uint256)"
                    },
                    "id": 2,
                    "logData": "0x",
                    "logDecoded": true,
                    "operation": "EVENT",
                    "revert": false,
                    "status": true,
                    "topics": [
                        "0x8c5be1e5ebec7d5bd14f71427d1e84f3dd0314c0f7b2291e5b200ac8c7c3b925",
                        "0x00000000000000000000000086d0b90816f8f8290129dd9e62c7a75117547a98",
                        "0x0000000000000000000000000000000000000000000000000000000000000000",
                        "0x0000000000000000000000000000000000000000000000000000000000006660"
                    ]
                },
                "nodeType": 1
            },
            "3": {
                "event": {
                    "contract": "0x3b3ee1931dc30c1957379fac9aba94d1c48a5405",
                    "decodedLog": {
                        "name": "Transfer",
                        "params": [
                            {
                                "name": "from",
                                "type": "address",
                                "value": "0x86d0b90816f8f8290129dd9e62c7a75117547a98"
                            },
                            {
                                "name": "to",
                                "type": "address",
                                "value": "0x0000000000000000000000000000000000000000"
                            },
                            {
                                "decimalAvailable": true,
                                "name": "tokenId",
                                "type": "uint256",
                                "value": "26,208"
                            }
                        ],
                        "signature": "Transfer(address,address,uint256)"
                    },
                    "id": 3,
                    "logData": "0x",
                    "logDecoded": true,
                    "operation": "EVENT",
                    "revert": false,
                    "status": true,
                    "topics": [
                        "0xddf252ad1be2c89b69c2b068fc378daa952ba7f163c4a11628f55a4df523b3ef",
                        "0x00000000000000000000000086d0b90816f8f8290129dd9e62c7a75117547a98",
                        "0x0000000000000000000000000000000000000000000000000000000000000000",
                        "0x0000000000000000000000000000000000000000000000000000000000006660"
                    ]
                },
                "nodeType": 1
            }
        },
        "gasFlame": [
            {
                "children": [
                    {
                        "children": [
                            {
                                "children": [],
                                "depth": 0,
                                "name": "Initial Gas",
                                "value": 21216
                            },
                            {
                                "children": [
                                    {
                                        "children": [],
                                        "depth": 1,
                                        "name": "burn",
                                        "value": 84596
                                    }
                                ],
                                "depth": 0,
                                "name": "Executed Gas",
                                "value": 91869
                            }
                        ],
                        "depth": -1,
                        "name": "Actual Gas Used",
                        "value": 56543
                    },
                    {
                        "children": [],
                        "depth": -1,
                        "name": "Refunded Gas",
                        "value": 56542
                    }
                ],
                "depth": -2,
                "name": "Total Gas",
                "value": 113085
            }
        ],
        "isConfirmed": true,
        "mainTrace": [
            {
                "children": [
                    {
                        "children": [
                            {
                                "children": [
                                    {
                                        "children": [],
                                        "depth": 2,
                                        "id": 2,
                                        "order": 2
                                    },
                                    {
                                        "children": [],
                                        "depth": 2,
                                        "id": 3,
                                        "order": 3
                                    }
                                ],
                                "depth": 1,
                                "id": 1,
                                "order": 1
                            }
                        ],
                        "depth": 0,
                        "id": 0,
                        "order": 0
                    }
                ],
                "depth": -1,
                "id": -1,
                "order": -1
            }
        ],
        "mainTraceNodeCount": 4,
        "parentIdMap": {
            "0": -1,
            "1": 0,
            "2": 1,
            "3": 1
        },
        "tidyTrace": [
            {
                "children": [
                    {
                        "children": [
                            {
                                "children": [
                                    {
                                        "children": [],
                                        "depth": 2,
                                        "id": 2,
                                        "order": 2
                                    },
                                    {
                                        "children": [],
                                        "depth": 2,
                                        "id": 3,
                                        "order": 3
                                    }
                                ],
                                "depth": 1,
                                "id": 1,
                                "order": 1
                            }
                        ],
                        "depth": 0,
                        "id": 0,
                        "order": 0
                    }
                ],
                "depth": -1,
                "id": -1,
                "order": -1
            }
        ],
        "tidyTraceNodeCount": 4
    },
    "state_change": {
        "stateChanges": [
            {
                "address": "0x3b3ee1931dc30c1957379fac9aba94d1c48a5405",
                "erc": "",
                "slots": [
                    {
                        "current": "0x0000000000000000000000000000000000000000000000000000000000000001",
                        "key": "0x99339754e412d62d4ae3ff44eea167ee0b74115a1276c7593c6af9e3bf53c4f0",
                        "prev": "0x0000000000000000000000000000000000000000000000000000000000000002"
                    },
                    {
                        "current": "0x000000000000000000000000f1365dd9a7396aa60ad9979a4a00acf2d05b9002",
                        "key": "0xea794845eee53d47130de890b31f849a14d3d25342a0536b2a9fb4da5995b53b",
                        "prev": "0x00000000000000000000000086d0b90816f8f8290129dd9e62c7a75117547a98"
                    },
                    {
                        "current": "0x0000000000000000000000000000000000000000000000000000000000000000",
                        "key": "0x78c314587b5782598979efc7e31139def23b53845ece3ccf97efb754d9296c9e",
                        "prev": "0x000000000000000000000000000000000000000000000000000000000000617c"
                    },
                    {
                        "current": "0x0000000000000000000000000000000000000000000000000000000000000000",
                        "key": "0x973b66dfc1da4ab69dd2577bac2ad7ec793c658c5246e3fa1bfa7fbb18ebab6b",
                        "prev": "0x0000000000000000000000000000000000000000000000000000000000000002"
                    },
                    {
                        "current": "0x000000000000000000000000000000000000000000000000000000000000617c",
                        "key": "0xb101eaf13428de29bf87c373115f1fb1f4abcb6a1400393248a89115664e38ef",
                        "prev": "0x000000000000000000000000000000000000000000000000000000000000773e"
                    },
                    {
                        "current": "0x0000000000000000000000000000000000000000000000000000000000000000",
                        "key": "0x5491994cf7c9b9e507e0de4ee10c294c251c2dfc8f94111651ccf5adf59c4872",
                        "prev": "0x0000000000000000000000000000000000000000000000000000000000006660"
                    },
                    {
                        "current": "0x0000000000000000000000000000000000000000000000000000000000000000",
                        "key": "0xea794845eee53d47130de890b31f849a14d3d25342a0536b2a9fb4da5995e0bf",
                        "prev": "0x000000000000000000000000f1365dd9a7396aa60ad9979a4a00acf2d05b9002"
                    },
                    {
                        "current": "0x0000000000000000000000000000000000000000000000000000000000000000",
                        "key": "0x45036f5950decf37c8365d50b3c508c85f28ad987e2769a6de6181f533aca6cb",
                        "prev": "0x0000000000000000000000000000000000000000000000000000000000000079"
                    },
                    {
                        "current": "0x0000000000000000000000000000000000000000000000000000000000007e67",
                        "key": "0xea794845eee53d47130de890b31f849a14d3d25342a0536b2a9fb4da5995b53a",
                        "prev": "0x0000000000000000000000000000000000000000000000000000000000006660"
                    },
                    {
                        "current": "0x0000000000000000000000000000000000000000000000000000000000000000",
                        "key": "0xea794845eee53d47130de890b31f849a14d3d25342a0536b2a9fb4da5995e0be",
                        "prev": "0x0000000000000000000000000000000000000000000000000000000000007e67"
                    },
                    {
                        "current": "0x0000000000000000000000000000000000000000000000000000000000000000",
                        "key": "0x8d6a0c03802f7b60daf9863a3fdf46976ced7618d79f81d898f7d296c99e0938",
                        "prev": "0x4754397a414768345a5a705367752f6d657461646174612e6a736f6e00000000"
                    },
                    {
                        "current": "0x0000000000000000000000000000000000000000000000000000000000000000",
                        "key": "0x1bc3067902428b871d0e9cbac2e5ff64546ce6981a9caae5bb6d3854def0582e",
                        "prev": "0x0000000000000000000000000000000000000000000000000000000000000001"
                    },
                    {
                        "current": "0x0000000000000000000000000000000000000000000000000000000000000000",
                        "key": "0x8d6a0c03802f7b60daf9863a3fdf46976ced7618d79f81d898f7d296c99e0937",
                        "prev": "0x516d633548344e6651785954726e4e6358796172567652744c35664a54537237"
                    },
                    {
                        "current": "0x000000000000000000000000000000000000000000000000000000000000773d",
                        "key": "0x0000000000000000000000000000000000000000000000000000000000000836",
                        "prev": "0x000000000000000000000000000000000000000000000000000000000000773e"
                    }
                ],
                "storageVariables": []
            }
        ]
    }
}