{
    "balance_change": {
        "balanceChanges": [
            {
                "account": "0x7b2bc39e32a239477c9244f183fc5faa9fae1f99",
                "assets": [
                    {
                        "address": "0xeeeeeeeeeeeeeeeeeeeeeeeeeeeeeeeeeeeeeeee",
                        "amount": "0.6",
                        "iconUrl": "https://assets.blocksec.com/image/1663669189317-3.png",
                        "isERC1155": false,
                        "isERC721": false,
                        "sign": true,
                        "value": "1357.719"
                    }
                ]
            },
            {
                "account": "0xa2ab69a98a30050afce7e9ecd39231223d74fd09",
                "assets": [
                    {
                        "address": "0xeeeeeeeeeeeeeeeeeeeeeeeeeeeeeeeeeeeeeeee",
                        "amount": "0.6",
                        "iconUrl": "https://assets.blocksec.com/image/1663669189317-3.png",
                        "isERC1155": false,
                        "isERC721": false,
                        "sign": false,
                        "value": "1357.719"
                    }
                ]
            }
        ]
    },
    "profile": {
        "basic_info": {
            "baseFee": "16.338757552",
            "blockNumber": 19131609,
            "callData": "0xdfb9d4b100000000000000000000000000000000000000000000000000000000000000200000000000000000000000000000000000000000000000000000000000000041e70c8330b609fc4ca4ec3694dcb06c8c0fb33f45db66fc6f71b6a5359c3bb8ac377e43480e7db59de03b5102b92546a26c6e71e850ab4e10be742c150d90899e1c00000000000000000000000000000000000000000000000000000000000000",
            "debugEnable": true,
            "errorInfo": "",
            "eventCount": 1,
            "feeRecipient": "0x95222290dd7278aa3ddd389cc1e1d165cc4bafe5",
            "formatValue": "0",
            "gasLimit": 50925,
            "gasPrice": "16.435757552",
            "gasUsed": 45492,
            "intTxnCount": 3,
            "internalRevert": false,
            "internalRevertMessage": "",
            "isContractCreation": false,
            "isFlashloan": false,
            "maxFee": "20.613647103",
            "nonce": 72,
            "overwritedBlockNumber": -1,
            "priorityFee": "0.097",
            "receiver": "0xa2ab69a98a30050afce7e9ecd39231223d74fd09",
            "revertMessage": "",
            "sender": "0x7b2bc39e32a239477c9244f183fc5faa9fae1f99",
            "simulationEnable": true,
            "sourceTxnHash": "0xfda0c726f864158a661f48afeb5bb657ce90d6cb4237484e0ae3e453934d7223",
            "status": true,
            "timestamp": "2024-02-01T05:49:23Z",
            "transactionFee": "0.000747695482555584",
            "txnHash": "0xfda0c726f864158a661f48afeb5bb657ce90d6cb4237484e0ae3e453934d7223",
            "txnIndex": 84,
            "type": 2,
            "value": "0"
        },
        "fund_flow": [
            {
                "amount": "0.6",
                "from": "0xa2ab69a98a30050afce7e9ecd39231223d74fd09",
                "id": 1,
                "isERC1155": false,
                "isERC721": false,
                "isReverted": false,
                "order": 1,
                "to": "0x7b2bc39e32a239477c9244f183fc5faa9fae1f99",
                "token": "0xeeeeeeeeeeeeeeeeeeeeeeeeeeeeeeeeeeeeeeee"
            }
        ],
        "token_infos": [
            {
                "address": "0xc02aaa39b223fe8d0a0e5c4f27ead9083c756cc2",
                "decimals": 18
            },
            {
                "address": "0xeeeeeeeeeeeeeeeeeeeeeeeeeeeeeeeeeeeeeeee",
                "decimals": 18
            }
        ]
    },
    "address_label": {
        "labels": [
            {
                "address": "0xeeeeeeeeeeeeeeeeeeeeeeeeeeeeeeeeeeeeeeee",
                "label": "Ether"
            },
            {
                "address": "0xa2ab69a98a30050afce7e9ecd39231223d74fd09",
                "label": "ERC1967Proxy"
            },
            {
                "address": "0x0000000000000000000000000000000000000001",
                "label": "Precompiled"
            },
            {
                "address": "0x0000000000000000000000000000000000000002",
                "label": "Precompiled"
            },
            {
                "address": "0x0000000000000000000000000000000000000003",
                "label": "Precompiled"
            },
            {
                "address": "0x0000000000000000000000000000000000000004",
                "label": "Precompiled"
            }
        ]
    },
    "trace": {
        "accountLabels": null,
        "dataMap": {
            "-1": {
                "invocation": {
                    "address": "0x7b2bc39e32a239477c9244f183fc5faa9fae1f99",
                    "callData": "",
                    "decodedMethod": null,
                    "errorInfo": "",
                    "fromAddress": "",
                    "gasUsed": 0,
                    "id": -1,
                    "methodDecoded": false,
                    "operation": "",
                    "output": "",
                    "revert": false,
                    "revertMessage": "",
                    "selector": "",
                    "status": false,
                    "value": ""
                },
                "nodeType": 0
            },
            "0": {
                "invocation": {
                    "address": "0xa2ab69a98a30050afce7e9ecd39231223d74fd09",
                    "callData": "0x00000000000000000000000000000000000000000000000000000000000000200000000000000000000000000000000000000000000000000000000000000041e70c8330b609fc4ca4ec3694dcb06c8c0fb33f45db66fc6f71b6a5359c3bb8ac377e43480e7db59de03b5102b92546a26c6e71e850ab4e10be742c150d90899e1c00000000000000000000000000000000000000000000000000000000000000",
                    "decodedMethod": null,
                    "errorInfo": "",
                    "fromAddress": "0x7b2bc39e32a239477c9244f183fc5faa9fae1f99",
                    "gasUsed": 45492,
                    "id": 0,
                    "methodDecoded": false,
                    "operation": "CALL",
                    "output": "",
                    "revert": false,
                    "revertMessage": "",
                    "selector": "0xdfb9d4b1",
                    "status": true,
                    "value": "0"
                },
                "nodeType": 0
            },
            "1": {
                "invocation": {
                    "address": "0xfd3042fa646443cae702d6d9c5bfc30a25f4d3ec",
                    "callData": "0x00000000000000000000000000000000000000000000000000000000000000200000000000000000000000000000000000000000000000000000000000000041e70c8330b609fc4ca4ec3694dcb06c8c0fb33f45db66fc6f71b6a5359c3bb8ac377e43480e7db59de03b5102b92546a26c6e71e850ab4e10be742c150d90899e1c00000000000000000000000000000000000000000000000000000000000000",
                    "decodedMethod": null,
                    "errorInfo": "",
                    "fromAddress": "0xa2ab69a98a30050afce7e9ecd39231223d74fd09",
                    "gasUsed": 22873,
                    "id": 1,
                    "methodDecoded": false,
                    "operation": "DELEGATECALL",
                    "output": "",
                    "revert": false,
                    "revertMessage": "",
                    "selector": "0xdfb9d4b1",
                    "status": true,
                    "value": "0"
                },
                "nodeType": 0
            },
            "2": {
                "invocation": {
                    "address": "0x0000000000000000000000000000000000000001",
                    "callData": "0xb750091f594fd6bde51b6a3a2c4a533384d2f089b5d0cd5b3d65d2c1000000000000000000000000000000000000000000000000000000000000001ce70c8330b609fc4ca4ec3694dcb06c8c0fb33f45db66fc6f71b6a5359c3bb8ac377e43480e7db59de03b5102b92546a26c6e71e850ab4e10be742c150d90899e",
                    "decodedMethod": {
                        "callParams": [
                            {
                                "name": "hash",
                                "type": "bytes32",
                                "value": "0x68792a39b750091f594fd6bde51b6a3a2c4a533384d2f089b5d0cd5b3d65d2c1"
                            },
                            {
                                "name": "v",
                                "type": "uint256",
                                "value": "28"
                            },
                            {
                                "name": "r",
                                "type": "bytes32",
                                "value": "0xe70c8330b609fc4ca4ec3694dcb06c8c0fb33f45db66fc6f71b6a5359c3bb8ac"
                            },
                            {
                                "name": "s",
                                "type": "bytes32",
                                "value": "0x377e43480e7db59de03b5102b92546a26c6e71e850ab4e10be742c150d90899e"
                            }
                        ],
                        "constructorArguments": "",
                        "name": "ecrecover",
                        "returnParams": [
                            {
                                "name": "",
                                "type": "address",
                                "value": "0x2eddcc62d8df5aaf2afcfa2a19ef75a611ed1b88"
                            }
                        ],
                        "signature": "ecrecover(bytes32,uint256,bytes32,bytes32)"
                    },
                    "errorInfo": "",
                    "fromAddress": "0xa2ab69a98a30050afce7e9ecd39231223d74fd09",
                    "gasUsed": 3000,
                    "id": 2,
                    "methodDecoded": true,
                    "operation": "STATICCALL",
                    "output": "0x0000000000000000000000002eddcc62d8df5aaf2afcfa2a19ef75a611ed1b88",
                    "revert": false,
                    "revertMessage": "",
                    "selector": "0x68792a39",
                    "status": true,
                    "value": "0"
                },
                "nodeType": 0
            },
            "3": {
                "invocation": {
                    "address": "0x7b2bc39e32a239477c9244f183fc5faa9fae1f99",
                    "callData": "0x",
                    "decodedMethod": null,
                    "errorInfo": "",
                    "fromAddress": "0xa2ab69a98a30050afce7e9ecd39231223d74fd09",
                    "gasUsed": 0,
                    "id": 3,
                    "methodDecoded": false,
                    "operation": "CALL",
                    "output": "",
                    "revert": false,
                    "revertMessage": "",
                    "selector": "fallback",
                    "status": true,
                    "value": "0.6"
                },
                "nodeType": 0
            },
            "4": {
                "event": {
                    "contract": "0xa2ab69a98a30050afce7e9ecd39231223d74fd09",
                    "decodedLog": null,
                    "id": 4,
                    "logData": "0x0000000000000000000000000000000000000000000000000853a0d2313c0000",
                    "logDecoded": false,
                    "operation": "EVENT",
                    "revert": false,
                    "status": true,
                    "topics": [
                        "0x53d42c479f016c54b66547ad0cdd7ec794742b547da6bccab4ad38e4b0c10b81",
                        "0x0000000000000000000000007b2bc39e32a239477c9244f183fc5faa9fae1f99",
                        "0x0000000000000000000000000000000000000000000000000000000065bb30e3"
                    ]
                },
                "nodeType": 1
            }
        },
        "gasFlame": [
            {
                "children": [
                    {
                        "children": [
                            {
                                "children": [],
                                "depth": 0,
                                "name": "Initial Gas",
                                "value": 22508
                            },
                            {
                                "children": [
                                    {
                                        "children": [
                                            {
                                                "children": [],
                                                "depth": 2,
                                                "name": "ecrecover",
                                                "value": 3000
                                            },
                                            {
                                                "children": [],
                                                "depth": 2,
                                                "name": "fallback",
                                                "value": 0
                                            }
                                        ],
                                        "depth": 1,
                                        "name": "0xdfb9d4b1",
                                        "value": 22873
                                    }
                                ],
                                "depth": 0,
                                "name": "Executed Gas",
                                "value": 27784
                            }
                        ],
                        "depth": -1,
                        "name": "Actual Gas Used",
                        "value": 45492
                    },
                    {
                        "children": [],
                        "depth": -1,
                        "name": "Refunded Gas",
                        "value": 4800
                    }
                ],
                "depth": -2,
                "name": "Total Gas",
                "value": 50292
            }
        ],
        "isConfirmed": true,
        "mainTrace": [
            {
                "children": [
                    {
                        "children": [
                            {
                                "children": [
                                    {
                                        "children": [],
                                        "depth": 2,
                                        "id": 2,
                                        "order": 2
                                    },
                                    {
                                        "children": [],
                                        "depth": 2,
                                        "id": 3,
                                        "order": 3
                                    },
                                    {
                                        "children": [],
                                        "depth": 2,
                                        "id": 4,
                                        "order": 4
                                    }
                                ],
                                "depth": 1,
                                "id": 1,
                                "order": 1
                            }
                        ],
                        "depth": 0,
                        "id": 0,
                        "order": 0
                    }
                ],
                "depth": -1,
                "id": -1,
                "order": -1
            }
        ],
        "mainTraceNodeCount": 5,
        "parentIdMap": {
            "0": -1,
            "1": 0,
            "2": 1,
            "3": 1,
            "4": 1
        },
        "tidyTrace": [
            {
                "children": [
                    {
                        "children": [
                            {
                                "children": [
                                    {
                                        "children": [],
                                        "depth": 2,
                                        "id": 3,
                                        "order": 3
                                    },
                                    {
                                        "children": [],
                                        "depth": 2,
                                        "id": 4,
                                        "order": 4
                                    }
                                ],
                                "depth": 1,
                                "id": 1,
                                "order": 1
                            }
                        ],
                        "depth": 0,
                        "id": 0,
                        "order": 0
                    }
                ],
                "depth": -1,
                "id": -1,
                "order": -1
            }
        ],
        "tidyTraceNodeCount": 4
    },
    "state_change": {
        "stateChanges": [
            {
                "address": "0xa2ab69a98a30050afce7e9ecd39231223d74fd09",
                "erc": "",
                "slots": [
                    {
                        "current": "0x0000000000000000000000000000000000000000000000000000000000000000",
                        "key": "0x443fba9e1736af7815623dc2edcbaccfac3b3fa893a5785e4653c01383957e8b",
                        "prev": "0x0000000000000000000000000000000000000000000000000853a0d2313c0000"
                    }
                ],
                "storageVariables": []
            }
        ]
    }
}