{
    "balance_change": {
        "balanceChanges": [
            {
                "account": "0xe4fe44ae12c497303c915f4438013b535c29cb52",
                "assets": [
                    {
                        "address": "0xe41d2489571d322189246dafa5ebde1f4699f498",
                        "amount": "43,922.8",
                        "iconUrl": "https://assets.blocksec.com/icon/6c4cfed2c799afeb85b9e6ad087e66bdd588f8169e94dcf9e90f3048ceb6c6f3.png",
                        "isERC1155": false,
                        "isERC721": false,
                        "sign": false,
                        "value": "31512.14537"
                    }
                ]
            },
            {
                "account": "0x1c5e269331837415c69b5067f3f0a383676cc1e7",
                "assets": [
                    {
                        "address": "0xe41d2489571d322189246dafa5ebde1f4699f498",
                        "amount": "43,922.8",
                        "iconUrl": "https://assets.blocksec.com/icon/6c4cfed2c799afeb85b9e6ad087e66bdd588f8169e94dcf9e90f3048ceb6c6f3.png",
                        "isERC1155": false,
                        "isERC721": false,
                        "sign": true,
                        "value": "31512.14537"
                    }
                ]
            }
        ]
    },
    "profile": {
        "basic_info": {
            "baseFee": "31.990048648",
            "blockNumber": 14480161,
            "callData": "0xa9059cbb0000000000000000000000001c5e269331837415c69b5067f3f0a383676cc1e700000000000000000000000000000000000000000000094d0f4c5f082f580000",
            "debugEnable": true,
            "errorInfo": "",
            "eventCount": 1,
            "feeRecipient": "0x829bd824b016326a401d083b33d092293333a830",
            "formatValue": "0",
            "gasLimit": 61852,
            "gasPrice": "36",
            "gasUsed": 34806,
            "intTxnCount": 0,
            "internalRevert": false,
            "internalRevertMessage": "",
            "isContractCreation": false,
            "isFlashloan": false,
            "maxFee": "",
            "nonce": 1257,
            "overwritedBlockNumber": -1,
            "priorityFee": "",
            "receiver": "0xe41d2489571d322189246dafa5ebde1f4699f498",
            "revertMessage": "",
            "sender": "0xe4fe44ae12c497303c915f4438013b535c29cb52",
            "simulationEnable": true,
            "sourceTxnHash": "0xfd241ef24adbfad9546831dd2fdf191288a1de844c90c085d3c79896ef96dc05",
            "status": true,
            "timestamp": "2022-03-29T08:50:29Z",
            "transactionFee": "0.001253016",
            "txnHash": "0xfd241ef24adbfad9546831dd2fdf191288a1de844c90c085d3c79896ef96dc05",
            "txnIndex": 88,
            "type": 0,
            "value": "0"
        },
        "fund_flow": [
            {
                "amount": "43,922.8",
                "from": "0xe4fe44ae12c497303c915f4438013b535c29cb52",
                "id": 1,
                "isERC1155": false,
                "isERC721": false,
                "isReverted": false,
                "order": 1,
                "to": "0x1c5e269331837415c69b5067f3f0a383676cc1e7",
                "token": "0xe41d2489571d322189246dafa5ebde1f4699f498"
            }
        ],
        "token_infos": [
            {
                "address": "0xc02aaa39b223fe8d0a0e5c4f27ead9083c756cc2",
                "decimals": 18
            },
            {
                "address": "0xe41d2489571d322189246dafa5ebde1f4699f498",
                "decimals": 18
            },
            {
                "address": "0xeeeeeeeeeeeeeeeeeeeeeeeeeeeeeeeeeeeeeeee",
                "decimals": 18
            }
        ]
    },
    "address_label": {
        "labels": [
            {
                "address": "0xeeeeeeeeeeeeeeeeeeeeeeeeeeeeeeeeeeeeeeee",
                "label": "Ether"
            },
            {
                "address": "0xe41d2489571d322189246dafa5ebde1f4699f498",
                "label": "0x: ZRX Token"
            },
            {
                "address": "0x0000000000000000000000000000000000000001",
                "label": "Precompiled"
            },
            {
                "address": "0x0000000000000000000000000000000000000002",
                "label": "Precompiled"
            },
            {
                "address": "0x0000000000000000000000000000000000000003",
                "label": "Precompiled"
            },
            {
                "address": "0x0000000000000000000000000000000000000004",
                "label": "Precompiled"
            }
        ]
    },
    "trace": {
        "accountLabels": null,
        "dataMap": {
            "-1": {
                "invocation": {
                    "address": "0xe4fe44ae12c497303c915f4438013b535c29cb52",
                    "callData": "",
                    "decodedMethod": null,
                    "errorInfo": "",
                    "fromAddress": "",
                    "gasUsed": 0,
                    "id": -1,
                    "methodDecoded": false,
                    "operation": "",
                    "output": "",
                    "revert": false,
                    "revertMessage": "",
                    "selector": "",
                    "status": false,
                    "value": ""
                },
                "nodeType": 0
            },
            "0": {
                "invocation": {
                    "address": "0xe41d2489571d322189246dafa5ebde1f4699f498",
                    "callData": "0x0000000000000000000000001c5e269331837415c69b5067f3f0a383676cc1e700000000000000000000000000000000000000000000094d0f4c5f082f580000",
                    "decodedMethod": {
                        "callParams": [
                            {
                                "name": "_to",
                                "type": "address",
                                "value": "0x1c5e269331837415c69b5067f3f0a383676cc1e7"
                            },
                            {
                                "decimalAvailable": true,
                                "name": "_value",
                                "type": "uint256",
                                "value": "43,922,800,000,000,000,000,000"
                            }
                        ],
                        "constructorArguments": "",
                        "name": "transfer",
                        "returnParams": [
                            {
                                "name": "",
                                "type": "bool",
                                "value": true
                            }
                        ],
                        "signature": "transfer(address,uint256)"
                    },
                    "errorInfo": "",
                    "fromAddress": "0xe4fe44ae12c497303c915f4438013b535c29cb52",
                    "gasUsed": 34806,
                    "id": 0,
                    "methodDecoded": true,
                    "operation": "CALL",
                    "output": "0x0000000000000000000000000000000000000000000000000000000000000001",
                    "revert": false,
                    "revertMessage": "",
                    "selector": "0xa9059cbb",
                    "status": true,
                    "value": "0"
                },
                "nodeType": 0
            },
            "1": {
                "event": {
                    "contract": "0xe41d2489571d322189246dafa5ebde1f4699f498",
                    "decodedLog": {
                        "name": "Transfer",
                        "params": [
                            {
                                "name": "_from",
                                "type": "address",
                                "value": "0xe4fe44ae12c497303c915f4438013b535c29cb52"
                            },
                            {
                                "name": "_to",
                                "type": "address",
                                "value": "0x1c5e269331837415c69b5067f3f0a383676cc1e7"
                            },
                            {
                                "decimalAvailable": true,
                                "name": "_value",
                                "type": "uint256",
                                "value": "43,922,800,000,000,000,000,000"
                            }
                        ],
                        "signature": "Transfer(address,address,uint256)"
                    },
                    "id": 1,
                    "logData": "0x00000000000000000000000000000000000000000000094d0f4c5f082f580000",
                    "logDecoded": true,
                    "operation": "EVENT",
                    "revert": false,
                    "status": true,
                    "topics": [
                        "0xddf252ad1be2c89b69c2b068fc378daa952ba7f163c4a11628f55a4df523b3ef",
                        "0x000000000000000000000000e4fe44ae12c497303c915f4438013b535c29cb52",
                        "0x0000000000000000000000001c5e269331837415c69b5067f3f0a383676cc1e7"
                    ]
                },
                "nodeType": 1
            }
        },
        "gasFlame": [
            {
                "children": [
                    {
                        "children": [
                            {
                                "children": [],
                                "depth": 0,
                                "name": "Initial Gas",
                                "value": 21656
                            },
                            {
                                "children": [],
                                "depth": 0,
                                "name": "Executed Gas",
                                "value": 13150
                            }
                        ],
                        "depth": -1,
                        "name": "Actual Gas Used",
                        "value": 34806
                    },
                    {
                        "children": [],
                        "depth": -1,
                        "name": "Refunded Gas",
                        "value": 0
                    }
                ],
                "depth": -2,
                "name": "Total Gas",
                "value": 34806
            }
        ],
        "isConfirmed": true,
        "mainTrace": [
            {
                "children": [
                    {
                        "children": [
                            {
                                "children": [],
                                "depth": 1,
                                "id": 1,
                                "order": 1
                            }
                        ],
                        "depth": 0,
                        "id": 0,
                        "order": 0
                    }
                ],
                "depth": -1,
                "id": -1,
                "order": -1
            }
        ],
        "mainTraceNodeCount": 2,
        "parentIdMap": {
            "0": -1,
            "1": 0
        },
        "tidyTrace": [
            {
                "children": [
                    {
                        "children": [
                            {
                                "children": [],
                                "depth": 1,
                                "id": 1,
                                "order": 1
                            }
                        ],
                        "depth": 0,
                        "id": 0,
                        "order": 0
                    }
                ],
                "depth": -1,
                "id": -1,
                "order": -1
            }
        ],
        "tidyTraceNodeCount": 2
    },
    "state_change": {
        "stateChanges": [
            {
                "address": "0xe41d2489571d322189246dafa5ebde1f4699f498",
                "erc": "ERC-20",
                "slots": [
                    {
                        "current": "0x0000000000000000000000000000000000000000000000000000005d21dba000",
                        "key": "0x9b6952a3cf649ae957fa940ae801129cc5fe7928c7b5f6a4af6525b8d285bf96",
                        "prev": "0x00000000000000000000000000000000000000000000094d0f4c5f655133a000"
                    },
                    {
                        "current": "0x000000000000000000000000000000000000000000012ff4bb357ea67c15b000",
                        "key": "0x4ed6b947bb9f9ee9a522060cbe29b0f076bcfa3c13a85d721892365d7ff0a088",
                        "prev": "0x0000000000000000000000000000000000000000000126a7abe91f9e4cbdb000"
                    }
                ],
                "storageVariables": []
            }
        ]
    }
}