{
    "balance_change": {
        "balanceChanges": [
            {
                "account": "0xdb51b68c60d28df99fae568228cad2c299a189e1",
                "assets": [
                    {
                        "address": "0xeeeeeeeeeeeeeeeeeeeeeeeeeeeeeeeeeeeeeeee",
                        "amount": "0.001668246480737919",
                        "iconUrl": "https://assets.blocksec.com/image/1663669189317-3.png",
                        "isERC1155": false,
                        "isERC721": false,
                        "sign": false,
                        "value": "5.0115458886424798786"
                    },
                    {
                        "address": "0xd4416b13d2b3a9abae7acd5d6c2bbdbe25686401",
                        "amount": "1",
                        "iconUrl": "",
                        "isERC1155": true,
                        "isERC721": false,
                        "sign": true,
                        "tokenID": "111334444789025715857081096427420267550446068091853488814889408245015398120528",
                        "value": ""
                    }
                ]
            },
            {
                "account": "0x253553366da8546fc250f225fe3d25d0c782303b",
                "assets": [
                    {
                        "address": "0xeeeeeeeeeeeeeeeeeeeeeeeeeeeeeeeeeeeeeeee",
                        "amount": "0.001668246480737919",
                        "iconUrl": "https://assets.blocksec.com/image/1663669189317-3.png",
                        "isERC1155": false,
                        "isERC721": false,
                        "sign": true,
                        "value": "5.0115458886424798786"
                    }
                ]
            },
            {
                "account": "0x0000000000000000000000000000000000000000",
                "assets": [
                    {
                        "address": "0x57f1887a8bf19b14fc0df6fd9b2acc9af147ea85",
                        "amount": "1",
                        "iconUrl": "https://assets.blocksec.com/nft/icon/nft_be0542b7-4f14-457c-a46f-8a69d57f084c.png",
                        "isERC1155": false,
                        "isERC721": true,
                        "sign": false,
                        "tokenID": "5322948177003759226953159198056268965224889473773443430917154565411866812831",
                        "value": ""
                    },
                    {
                        "address": "0xd4416b13d2b3a9abae7acd5d6c2bbdbe25686401",
                        "amount": "1",
                        "iconUrl": "",
                        "isERC1155": true,
                        "isERC721": false,
                        "sign": false,
                        "tokenID": "111334444789025715857081096427420267550446068091853488814889408245015398120528",
                        "value": ""
                    }
                ]
            },
            {
                "account": "0xd4416b13d2b3a9abae7acd5d6c2bbdbe25686401",
                "assets": [
                    {
                        "address": "0x57f1887a8bf19b14fc0df6fd9b2acc9af147ea85",
                        "amount": "1",
                        "iconUrl": "https://assets.blocksec.com/nft/icon/nft_be0542b7-4f14-457c-a46f-8a69d57f084c.png",
                        "isERC1155": false,
                        "isERC721": true,
                        "sign": true,
                        "tokenID": "5322948177003759226953159198056268965224889473773443430917154565411866812831",
                        "value": ""
                    }
                ]
            }
        ]
    },
    "profile": {
        "basic_info": {
            "baseFee": "3.917176913",
            "blockNumber": 19830223,
            "callData": "0x74694a2b0000000000000000000000000000000000000000000000000000000000000100000000000000000000000000db51b68c60d28df99fae568228cad2c299a189e10000000000000000000000000000000000000000000000000000000001e133809923eb94000000034c91dd3cb40d370e1cbf5797b171c68b68fe02c907122a2c000000000000000000000000231b0ee14048e9dccd1d247744d114a4eb5e8e63000000000000000000000000000000000000000000000000000000000000014000000000000000000000000000000000000000000000000000000000000000010000000000000000000000000000000000000000000000000000000000000000000000000000000000000000000000000000000000000000000000000000000633363638383900000000000000000000000000000000000000000000000000000000000000000000000000000000000000000000000000000000000000000001000000000000000000000000000000000000000000000000000000000000002000000000000000000000000000000000000000000000000000000000000000a48b95dd71f6251009f2bf688eb1fedb442bcdb14902b97eabd057d02f045b53708f24fc50000000000000000000000000000000000000000000000000000000000000003c00000000000000000000000000000000000000000000000000000000000000600000000000000000000000000000000000000000000000000000000000000014db51b68c60d28df99fae568228cad2c299a189e100000000000000000000000000000000000000000000000000000000000000000000000000000000",
            "debugEnable": true,
            "errorInfo": "",
            "eventCount": 13,
            "feeRecipient": "0x4838b106fce9647bdf1e7877bf73ce8b0bad5f97",
            "formatValue": "0.001701611410352677",
            "gasLimit": 396340,
            "gasPrice": "3.918176913",
            "gasUsed": 381709,
            "intTxnCount": 18,
            "internalRevert": false,
            "internalRevertMessage": "",
            "isContractCreation": false,
            "isFlashloan": false,
            "maxFee": "4.853322461",
            "nonce": 15,
            "overwritedBlockNumber": -1,
            "priorityFee": "0.001",
            "receiver": "0x253553366da8546fc250f225fe3d25d0c782303b",
            "revertMessage": "",
            "sender": "0xdb51b68c60d28df99fae568228cad2c299a189e1",
            "simulationEnable": true,
            "sourceTxnHash": "0xfd93f7ecc1e4df5bb12dacb14eed550e0799f2e2e0199cfc0cdcb2d08fd8dd94",
            "status": true,
            "timestamp": "2024-05-09T04:53:11Z",
            "transactionFee": "0.001495603391284317",
            "txnHash": "0xfd93f7ecc1e4df5bb12dacb14eed550e0799f2e2e0199cfc0cdcb2d08fd8dd94",
            "txnIndex": 120,
            "type": 2,
            "value": "1701611410352677"
        },
        "fund_flow": [
            {
                "amount": "0.001701611410352677",
                "from": "0xdb51b68c60d28df99fae568228cad2c299a189e1",
                "id": 1,
                "isERC1155": false,
                "isERC721": false,
                "isReverted": false,
                "order": 1,
                "to": "0x253553366da8546fc250f225fe3d25d0c782303b",
                "token": "0xeeeeeeeeeeeeeeeeeeeeeeeeeeeeeeeeeeeeeeee"
            },
            {
                "amount": "1",
                "from": "0x0000000000000000000000000000000000000000",
                "id": 2,
                "isERC1155": false,
                "isERC721": true,
                "isReverted": false,
                "order": 2,
                "to": "0xd4416b13d2b3a9abae7acd5d6c2bbdbe25686401",
                "token": "0x57f1887a8bf19b14fc0df6fd9b2acc9af147ea85",
                "tokenID": "5322948177003759226953159198056268965224889473773443430917154565411866812831"
            },
            {
                "amount": "1",
                "from": "0x0000000000000000000000000000000000000000",
                "id": 3,
                "isERC1155": true,
                "isERC721": false,
                "isReverted": false,
                "order": 3,
                "to": "0xdb51b68c60d28df99fae568228cad2c299a189e1",
                "token": "0xd4416b13d2b3a9abae7acd5d6c2bbdbe25686401",
                "tokenID": "111334444789025715857081096427420267550446068091853488814889408245015398120528"
            },
            {
                "amount": "0.000033364929614758",
                "from": "0x253553366da8546fc250f225fe3d25d0c782303b",
                "id": 4,
                "isERC1155": false,
                "isERC721": false,
                "isReverted": false,
                "order": 4,
                "to": "0xdb51b68c60d28df99fae568228cad2c299a189e1",
                "token": "0xeeeeeeeeeeeeeeeeeeeeeeeeeeeeeeeeeeeeeeee"
            }
        ],
        "token_infos": [
            {
                "address": "0xc02aaa39b223fe8d0a0e5c4f27ead9083c756cc2",
                "decimals": 18
            },
            {
                "address": "0xeeeeeeeeeeeeeeeeeeeeeeeeeeeeeeeeeeeeeeee",
                "decimals": 18
            }
        ]
    },
    "address_label": {
        "labels": [
            {
                "address": "0x231b0ee14048e9dccd1d247744d114a4eb5e8e63",
                "label": "ENS: Public Resolver"
            },
            {
                "address": "0xe62b71cf983019bff55bc83b48601ce8419650cc",
                "label": "AccessControlledOffchainAggregator"
            },
            {
                "address": "0x57f1887a8bf19b14fc0df6fd9b2acc9af147ea85",
                "label": "ENS: Base Registrar Implementation"
            },
            {
                "address": "0x253553366da8546fc250f225fe3d25d0c782303b",
                "label": "ENS: ETH Registrar Controller"
            },
            {
                "address": "0xd4416b13d2b3a9abae7acd5d6c2bbdbe25686401",
                "label": "ENS: Name Wrapper"
            },
            {
                "address": "0x0000000000000000000000000000000000000001",
                "label": "Precompiled"
            },
            {
                "address": "0x0000000000000000000000000000000000000002",
                "label": "Precompiled"
            },
            {
                "address": "0x0000000000000000000000000000000000000003",
                "label": "Precompiled"
            },
            {
                "address": "0x0000000000000000000000000000000000000004",
                "label": "Precompiled"
            },
            {
                "address": "0xeeeeeeeeeeeeeeeeeeeeeeeeeeeeeeeeeeeeeeee",
                "label": "Ether"
            },
            {
                "address": "0x00000000000c2e074ec69a0dfb2997ba6c7d2e1e",
                "label": "ENS: Registry with Fallback"
            },
            {
                "address": "0x7542565191d074ce84fbfa92cae13acb84788ca9",
                "label": "ExponentialPremiumPriceOracle"
            },
            {
                "address": "0xa58e81fe9b61b5c3fe2afd33cf304c454abfc7cb",
                "label": "ENS: Reverse Registrar"
            },
            {
                "address": "0x5f4ec3df9cbd43714fe2740f5e3616155c5b8419",
                "label": "EACAggregatorProxy"
            }
        ]
    },
    "trace": {
        "accountLabels": null,
        "dataMap": {
            "-1": {
                "invocation": {
                    "address": "0xdb51b68c60d28df99fae568228cad2c299a189e1",
                    "callData": "",
                    "decodedMethod": null,
                    "errorInfo": "",
                    "fromAddress": "",
                    "gasUsed": 0,
                    "id": -1,
                    "methodDecoded": false,
                    "operation": "",
                    "output": "",
                    "revert": false,
                    "revertMessage": "",
                    "selector": "",
                    "status": false,
                    "value": ""
                },
                "nodeType": 0
            },
            "0": {
                "invocation": {
                    "address": "0x253553366da8546fc250f225fe3d25d0c782303b",
                    "callData": "0x0000000000000000000000000000000000000000000000000000000000000100000000000000000000000000db51b68c60d28df99fae568228cad2c299a189e10000000000000000000000000000000000000000000000000000000001e133809923eb94000000034c91dd3cb40d370e1cbf5797b171c68b68fe02c907122a2c000000000000000000000000231b0ee14048e9dccd1d247744d114a4eb5e8e63000000000000000000000000000000000000000000000000000000000000014000000000000000000000000000000000000000000000000000000000000000010000000000000000000000000000000000000000000000000000000000000000000000000000000000000000000000000000000000000000000000000000000633363638383900000000000000000000000000000000000000000000000000000000000000000000000000000000000000000000000000000000000000000001000000000000000000000000000000000000000000000000000000000000002000000000000000000000000000000000000000000000000000000000000000a48b95dd71f6251009f2bf688eb1fedb442bcdb14902b97eabd057d02f045b53708f24fc50000000000000000000000000000000000000000000000000000000000000003c00000000000000000000000000000000000000000000000000000000000000600000000000000000000000000000000000000000000000000000000000000014db51b68c60d28df99fae568228cad2c299a189e100000000000000000000000000000000000000000000000000000000000000000000000000000000",
                    "decodedMethod": {
                        "callParams": [
                            {
                                "name": "name",
                                "type": "string",
                                "value": "366889"
                            },
                            {
                                "name": "owner",
                                "type": "address",
                                "value": "0xdb51b68c60d28df99fae568228cad2c299a189e1"
                            },
                            {
                                "name": "duration",
                                "type": "uint256",
                                "value": "31,536,000"
                            },
                            {
                                "name": "secret",
                                "type": "bytes32",
                                "value": "0x9923eb94000000034c91dd3cb40d370e1cbf5797b171c68b68fe02c907122a2c"
                            },
                            {
                                "name": "resolver",
                                "type": "address",
                                "value": "0x231b0ee14048e9dccd1d247744d114a4eb5e8e63"
                            },
                            {
                                "name": "data",
                                "type": "bytes[]",
                                "value": [
                                    "0x8b95dd71f6251009f2bf688eb1fedb442bcdb14902b97eabd057d02f045b53708f24fc50000000000000000000000000000000000000000000000000000000000000003c00000000000000000000000000000000000000000000000000000000000000600000000000000000000000000000000000000000000000000000000000000014db51b68c60d28df99fae568228cad2c299a189e1000000000000000000000000"
                                ]
                            },
                            {
                                "name": "reverseRecord",
                                "type": "bool",
                                "value": true
                            },
                            {
                                "name": "ownerControlledFuses",
                                "type": "uint16",
                                "value": "0"
                            }
                        ],
                        "constructorArguments": "",
                        "name": "register",
                        "returnParams": [],
                        "signature": "register(string,address,uint256,bytes32,address,bytes[],bool,uint16)"
                    },
                    "errorInfo": "",
                    "fromAddress": "0xdb51b68c60d28df99fae568228cad2c299a189e1",
                    "gasUsed": 381709,
                    "id": 0,
                    "methodDecoded": true,
                    "operation": "CALL",
                    "output": "",
                    "revert": false,
                    "revertMessage": "",
                    "selector": "0x74694a2b",
                    "status": true,
                    "value": "0.001701611410352677"
                },
                "nodeType": 0
            },
            "1": {
                "invocation": {
                    "address": "0x57f1887a8bf19b14fc0df6fd9b2acc9af147ea85",
                    "callData": "0x0bc4ae912de866a4c299a0fc4db39d195879df25532469c9343bf57741d6219f",
                    "decodedMethod": {
                        "callParams": [
                            {
                                "name": "id",
                                "type": "uint256",
                                "value": "5,322,948,177,003,759,226,953,159,198,056,268,965,224,889,473,773,443,430,917,154,565,411,866,812,831"
                            }
                        ],
                        "constructorArguments": "",
                        "name": "nameExpires",
                        "returnParams": [
                            {
                                "name": "",
                                "type": "uint256",
                                "value": "0"
                            }
                        ],
                        "signature": "nameExpires(uint256)"
                    },
                    "errorInfo": "",
                    "fromAddress": "0x253553366da8546fc250f225fe3d25d0c782303b",
                    "gasUsed": 2523,
                    "id": 1,
                    "methodDecoded": true,
                    "operation": "STATICCALL",
                    "output": "0x0000000000000000000000000000000000000000000000000000000000000000",
                    "revert": false,
                    "revertMessage": "",
                    "selector": "0xd6e4fa86",
                    "status": true,
                    "value": "0"
                },
                "nodeType": 0
            },
            "10": {
                "invocation": {
                    "address": "0x00000000000c2e074ec69a0dfb2997ba6c7d2e1e",
                    "callData": "0x93cdeb708b7545dc668eb9280176169d1c33cfd8ed6f04690a0bcc88a93fc4ae",
                    "decodedMethod": {
                        "callParams": [
                            {
                                "name": "node",
                                "type": "bytes32",
                                "value": "0x93cdeb708b7545dc668eb9280176169d1c33cfd8ed6f04690a0bcc88a93fc4ae"
                            }
                        ],
                        "constructorArguments": "",
                        "name": "owner",
                        "returnParams": [
                            {
                                "name": "",
                                "type": "address",
                                "value": "0x57f1887a8bf19b14fc0df6fd9b2acc9af147ea85"
                            }
                        ],
                        "signature": "owner(bytes32)"
                    },
                    "errorInfo": "",
                    "fromAddress": "0x57f1887a8bf19b14fc0df6fd9b2acc9af147ea85",
                    "gasUsed": 2951,
                    "id": 10,
                    "methodDecoded": true,
                    "operation": "STATICCALL",
                    "output": "0x00000000000000000000000057f1887a8bf19b14fc0df6fd9b2acc9af147ea85",
                    "revert": false,
                    "revertMessage": "",
                    "selector": "0x02571be3",
                    "status": true,
                    "value": "0"
                },
                "nodeType": 0
            },
            "11": {
                "event": {
                    "contract": "0x57f1887a8bf19b14fc0df6fd9b2acc9af147ea85",
                    "decodedLog": {
                        "name": "Transfer",
                        "params": [
                            {
                                "name": "from",
                                "type": "address",
                                "value": "0x0000000000000000000000000000000000000000"
                            },
                            {
                                "name": "to",
                                "type": "address",
                                "value": "0xd4416b13d2b3a9abae7acd5d6c2bbdbe25686401"
                            },
                            {
                                "decimalAvailable": true,
                                "name": "tokenId",
                                "type": "uint256",
                                "value": "5,322,948,177,003,759,226,953,159,198,056,268,965,224,889,473,773,443,430,917,154,565,411,866,812,831"
                            }
                        ],
                        "signature": "Transfer(address,address,uint256)"
                    },
                    "id": 11,
                    "logData": "0x",
                    "logDecoded": true,
                    "operation": "EVENT",
                    "revert": false,
                    "status": true,
                    "topics": [
                        "0xddf252ad1be2c89b69c2b068fc378daa952ba7f163c4a11628f55a4df523b3ef",
                        "0x0000000000000000000000000000000000000000000000000000000000000000",
                        "0x000000000000000000000000d4416b13d2b3a9abae7acd5d6c2bbdbe25686401",
                        "0x0bc4ae912de866a4c299a0fc4db39d195879df25532469c9343bf57741d6219f"
                    ]
                },
                "nodeType": 1
            },
            "12": {
                "invocation": {
                    "address": "0x00000000000c2e074ec69a0dfb2997ba6c7d2e1e",
                    "callData": "0x93cdeb708b7545dc668eb9280176169d1c33cfd8ed6f04690a0bcc88a93fc4ae0bc4ae912de866a4c299a0fc4db39d195879df25532469c9343bf57741d6219f000000000000000000000000d4416b13d2b3a9abae7acd5d6c2bbdbe25686401",
                    "decodedMethod": {
                        "callParams": [
                            {
                                "name": "node",
                                "type": "bytes32",
                                "value": "0x93cdeb708b7545dc668eb9280176169d1c33cfd8ed6f04690a0bcc88a93fc4ae"
                            },
                            {
                                "name": "label",
                                "type": "bytes32",
                                "value": "0x0bc4ae912de866a4c299a0fc4db39d195879df25532469c9343bf57741d6219f"
                            },
                            {
                                "name": "owner",
                                "type": "address",
                                "value": "0xd4416b13d2b3a9abae7acd5d6c2bbdbe25686401"
                            }
                        ],
                        "constructorArguments": "",
                        "name": "setSubnodeOwner",
                        "returnParams": [
                            {
                                "name": "",
                                "type": "bytes32",
                                "value": "0xf6251009f2bf688eb1fedb442bcdb14902b97eabd057d02f045b53708f24fc50"
                            }
                        ],
                        "signature": "setSubnodeOwner(bytes32,bytes32,address)"
                    },
                    "errorInfo": "",
                    "fromAddress": "0x57f1887a8bf19b14fc0df6fd9b2acc9af147ea85",
                    "gasUsed": 25069,
                    "id": 12,
                    "methodDecoded": true,
                    "operation": "CALL",
                    "output": "0xf6251009f2bf688eb1fedb442bcdb14902b97eabd057d02f045b53708f24fc50",
                    "revert": false,
                    "revertMessage": "",
                    "selector": "0x06ab5923",
                    "status": true,
                    "value": "0"
                },
                "nodeType": 0
            },
            "13": {
                "event": {
                    "contract": "0x00000000000c2e074ec69a0dfb2997ba6c7d2e1e",
                    "decodedLog": {
                        "name": "NewOwner",
                        "params": [
                            {
                                "name": "node",
                                "type": "bytes32",
                                "value": "0x93cdeb708b7545dc668eb9280176169d1c33cfd8ed6f04690a0bcc88a93fc4ae"
                            },
                            {
                                "name": "label",
                                "type": "bytes32",
                                "value": "0x0bc4ae912de866a4c299a0fc4db39d195879df25532469c9343bf57741d6219f"
                            },
                            {
                                "name": "owner",
                                "type": "address",
                                "value": "0xd4416b13d2b3a9abae7acd5d6c2bbdbe25686401"
                            }
                        ],
                        "signature": "NewOwner(bytes32,bytes32,address)"
                    },
                    "id": 13,
                    "logData": "0x000000000000000000000000d4416b13d2b3a9abae7acd5d6c2bbdbe25686401",
                    "logDecoded": true,
                    "operation": "EVENT",
                    "revert": false,
                    "status": true,
                    "topics": [
                        "0xce0457fe73731f824cc272376169235128c118b49d344817417c6d108d155e82",
                        "0x93cdeb708b7545dc668eb9280176169d1c33cfd8ed6f04690a0bcc88a93fc4ae",
                        "0x0bc4ae912de866a4c299a0fc4db39d195879df25532469c9343bf57741d6219f"
                    ]
                },
                "nodeType": 1
            },
            "14": {
                "event": {
                    "contract": "0x57f1887a8bf19b14fc0df6fd9b2acc9af147ea85",
                    "decodedLog": {
                        "name": "NameRegistered",
                        "params": [
                            {
                                "name": "id",
                                "type": "uint256",
                                "value": "5,322,948,177,003,759,226,953,159,198,056,268,965,224,889,473,773,443,430,917,154,565,411,866,812,831"
                            },
                            {
                                "name": "owner",
                                "type": "address",
                                "value": "0xd4416b13d2b3a9abae7acd5d6c2bbdbe25686401"
                            },
                            {
                                "name": "expires",
                                "type": "uint256",
                                "value": "1,746,766,391"
                            }
                        ],
                        "signature": "NameRegistered(uint256,address,uint256)"
                    },
                    "id": 14,
                    "logData": "0x00000000000000000000000000000000000000000000000000000000681d8a37",
                    "logDecoded": true,
                    "operation": "EVENT",
                    "revert": false,
                    "status": true,
                    "topics": [
                        "0xb3d987963d01b2f68493b4bdb130988f157ea43070d4ad840fee0466ed9370d9",
                        "0x0bc4ae912de866a4c299a0fc4db39d195879df25532469c9343bf57741d6219f",
                        "0x000000000000000000000000d4416b13d2b3a9abae7acd5d6c2bbdbe25686401"
                    ]
                },
                "nodeType": 1
            },
            "15": {
                "event": {
                    "contract": "0xd4416b13d2b3a9abae7acd5d6c2bbdbe25686401",
                    "decodedLog": {
                        "name": "TransferSingle",
                        "params": [
                            {
                                "name": "operator",
                                "type": "address",
                                "value": "0x253553366da8546fc250f225fe3d25d0c782303b"
                            },
                            {
                                "name": "from",
                                "type": "address",
                                "value": "0x0000000000000000000000000000000000000000"
                            },
                            {
                                "name": "to",
                                "type": "address",
                                "value": "0xdb51b68c60d28df99fae568228cad2c299a189e1"
                            },
                            {
                                "name": "id",
                                "type": "uint256",
                                "value": "111,334,444,789,025,715,857,081,096,427,420,267,550,446,068,091,853,488,814,889,408,245,015,398,120,528"
                            },
                            {
                                "name": "value",
                                "type": "uint256",
                                "value": "1"
                            }
                        ],
                        "signature": "TransferSingle(address,address,address,uint256,uint256)"
                    },
                    "id": 15,
                    "logData": "0xf6251009f2bf688eb1fedb442bcdb14902b97eabd057d02f045b53708f24fc500000000000000000000000000000000000000000000000000000000000000001",
                    "logDecoded": true,
                    "operation": "EVENT",
                    "revert": false,
                    "status": true,
                    "topics": [
                        "0xc3d58168c5ae7397731d063d5bbf3d657854427343f4c083240f7aacaa2d0f62",
                        "0x000000000000000000000000253553366da8546fc250f225fe3d25d0c782303b",
                        "0x0000000000000000000000000000000000000000000000000000000000000000",
                        "0x000000000000000000000000db51b68c60d28df99fae568228cad2c299a189e1"
                    ]
                },
                "nodeType": 1
            },
            "16": {
                "event": {
                    "contract": "0xd4416b13d2b3a9abae7acd5d6c2bbdbe25686401",
                    "decodedLog": {
                        "name": "NameWrapped",
                        "params": [
                            {
                                "name": "node",
                                "type": "bytes32",
                                "value": "0xf6251009f2bf688eb1fedb442bcdb14902b97eabd057d02f045b53708f24fc50"
                            },
                            {
                                "name": "name",
                                "type": "bytes",
                                "value": "0x063336363838390365746800"
                            },
                            {
                                "name": "owner",
                                "type": "address",
                                "value": "0xdb51b68c60d28df99fae568228cad2c299a189e1"
                            },
                            {
                                "name": "fuses",
                                "type": "uint32",
                                "value": "196,608"
                            },
                            {
                                "name": "expiry",
                                "type": "uint64",
                                "value": "1,754,542,391"
                            }
                        ],
                        "signature": "NameWrapped(bytes32,bytes,address,uint32,uint64)"
                    },
                    "id": 16,
                    "logData": "0x0000000000000000000000000000000000000000000000000000000000000080000000000000000000000000db51b68c60d28df99fae568228cad2c299a189e100000000000000000000000000000000000000000000000000000000000300000000000000000000000000000000000000000000000000000000000068943137000000000000000000000000000000000000000000000000000000000000000c0633363638383903657468000000000000000000000000000000000000000000",
                    "logDecoded": true,
                    "operation": "EVENT",
                    "revert": false,
                    "status": true,
                    "topics": [
                        "0x8ce7013e8abebc55c3890a68f5a27c67c3f7efa64e584de5fb22363c606fd340",
                        "0xf6251009f2bf688eb1fedb442bcdb14902b97eabd057d02f045b53708f24fc50"
                    ]
                },
                "nodeType": 1
            },
            "17": {
                "invocation": {
                    "address": "0x00000000000c2e074ec69a0dfb2997ba6c7d2e1e",
                    "callData": "0xf6251009f2bf688eb1fedb442bcdb14902b97eabd057d02f045b53708f24fc50000000000000000000000000231b0ee14048e9dccd1d247744d114a4eb5e8e63",
                    "decodedMethod": {
                        "callParams": [
                            {
                                "name": "node",
                                "type": "bytes32",
                                "value": "0xf6251009f2bf688eb1fedb442bcdb14902b97eabd057d02f045b53708f24fc50"
                            },
                            {
                                "name": "resolver",
                                "type": "address",
                                "value": "0x231b0ee14048e9dccd1d247744d114a4eb5e8e63"
                            }
                        ],
                        "constructorArguments": "",
                        "name": "setResolver",
                        "returnParams": [],
                        "signature": "setResolver(bytes32,address)"
                    },
                    "errorInfo": "",
                    "fromAddress": "0xd4416b13d2b3a9abae7acd5d6c2bbdbe25686401",
                    "gasUsed": 24371,
                    "id": 17,
                    "methodDecoded": true,
                    "operation": "CALL",
                    "output": "",
                    "revert": false,
                    "revertMessage": "",
                    "selector": "0x1896f70a",
                    "status": true,
                    "value": "0"
                },
                "nodeType": 0
            },
            "18": {
                "event": {
                    "contract": "0x00000000000c2e074ec69a0dfb2997ba6c7d2e1e",
                    "decodedLog": {
                        "name": "NewResolver",
                        "params": [
                            {
                                "name": "node",
                                "type": "bytes32",
                                "value": "0xf6251009f2bf688eb1fedb442bcdb14902b97eabd057d02f045b53708f24fc50"
                            },
                            {
                                "name": "resolver",
                                "type": "address",
                                "value": "0x231b0ee14048e9dccd1d247744d114a4eb5e8e63"
                            }
                        ],
                        "signature": "NewResolver(bytes32,address)"
                    },
                    "id": 18,
                    "logData": "0x000000000000000000000000231b0ee14048e9dccd1d247744d114a4eb5e8e63",
                    "logDecoded": true,
                    "operation": "EVENT",
                    "revert": false,
                    "status": true,
                    "topics": [
                        "0x335721b01866dc23fbee8b6b2c7b1e14d6f05c28cd35a2c934239f94095602a0",
                        "0xf6251009f2bf688eb1fedb442bcdb14902b97eabd057d02f045b53708f24fc50"
                    ]
                },
                "nodeType": 1
            },
            "19": {
                "invocation": {
                    "address": "0x231b0ee14048e9dccd1d247744d114a4eb5e8e63",
                    "callData": "0xf6251009f2bf688eb1fedb442bcdb14902b97eabd057d02f045b53708f24fc5000000000000000000000000000000000000000000000000000000000000000400000000000000000000000000000000000000000000000000000000000000001000000000000000000000000000000000000000000000000000000000000002000000000000000000000000000000000000000000000000000000000000000a48b95dd71f6251009f2bf688eb1fedb442bcdb14902b97eabd057d02f045b53708f24fc50000000000000000000000000000000000000000000000000000000000000003c00000000000000000000000000000000000000000000000000000000000000600000000000000000000000000000000000000000000000000000000000000014db51b68c60d28df99fae568228cad2c299a189e100000000000000000000000000000000000000000000000000000000000000000000000000000000",
                    "decodedMethod": {
                        "callParams": [
                            {
                                "name": "nodehash",
                                "type": "bytes32",
                                "value": "0xf6251009f2bf688eb1fedb442bcdb14902b97eabd057d02f045b53708f24fc50"
                            },
                            {
                                "name": "data",
                                "type": "bytes[]",
                                "value": [
                                    "0x8b95dd71f6251009f2bf688eb1fedb442bcdb14902b97eabd057d02f045b53708f24fc50000000000000000000000000000000000000000000000000000000000000003c00000000000000000000000000000000000000000000000000000000000000600000000000000000000000000000000000000000000000000000000000000014db51b68c60d28df99fae568228cad2c299a189e1000000000000000000000000"
                                ]
                            }
                        ],
                        "constructorArguments": "",
                        "name": "multicallWithNodeCheck",
                        "returnParams": [
                            {
                                "name": "results",
                                "type": "bytes[]",
                                "value": [
                                    "0x"
                                ]
                            }
                        ],
                        "signature": "multicallWithNodeCheck(bytes32,bytes[])"
                    },
                    "errorInfo": "",
                    "fromAddress": "0x253553366da8546fc250f225fe3d25d0c782303b",
                    "gasUsed": 32181,
                    "id": 19,
                    "methodDecoded": true,
                    "operation": "CALL",
                    "output": "0x0000000000000000000000000000000000000000000000000000000000000020000000000000000000000000000000000000000000000000000000000000000100000000000000000000000000000000000000000000000000000000000000200000000000000000000000000000000000000000000000000000000000000000",
                    "revert": false,
                    "revertMessage": "",
                    "selector": "0xe32954eb",
                    "status": true,
                    "value": "0"
                },
                "nodeType": 0
            },
            "2": {
                "invocation": {
                    "address": "0x7542565191d074ce84fbfa92cae13acb84788ca9",
                    "callData": "0x000000000000000000000000000000000000000000000000000000000000006000000000000000000000000000000000000000000000000000000000000000000000000000000000000000000000000000000000000000000000000001e1338000000000000000000000000000000000000000000000000000000000000000063336363838390000000000000000000000000000000000000000000000000000",
                    "decodedMethod": {
                        "callParams": [
                            {
                                "name": "name",
                                "type": "string",
                                "value": "366889"
                            },
                            {
                                "name": "expires",
                                "type": "uint256",
                                "value": "0"
                            },
                            {
                                "name": "duration",
                                "type": "uint256",
                                "value": "31,536,000"
                            }
                        ],
                        "constructorArguments": "",
                        "name": "price",
                        "returnParams": [
                            {
                                "name": "",
                                "type": "(uint256,uint256)",
                                "value": [
                                    {
                                        "name": "base",
                                        "type": "uint256",
                                        "value": "1,668,246,480,737,919"
                                    },
                                    {
                                        "name": "premium",
                                        "type": "uint256",
                                        "value": "0"
                                    }
                                ]
                            }
                        ],
                        "signature": "price(string,uint256,uint256)"
                    },
                    "errorInfo": "",
                    "fromAddress": "0x253553366da8546fc250f225fe3d25d0c782303b",
                    "gasUsed": 25994,
                    "id": 2,
                    "methodDecoded": true,
                    "operation": "STATICCALL",
                    "output": "0x0000000000000000000000000000000000000000000000000005ed42e6e1d67f0000000000000000000000000000000000000000000000000000000000000000",
                    "revert": false,
                    "revertMessage": "",
                    "selector": "0x50e9a715",
                    "status": true,
                    "value": "0"
                },
                "nodeType": 0
            },
            "20": {
                "invocation": {
                    "address": "0x231b0ee14048e9dccd1d247744d114a4eb5e8e63",
                    "callData": "0xf6251009f2bf688eb1fedb442bcdb14902b97eabd057d02f045b53708f24fc50000000000000000000000000000000000000000000000000000000000000003c00000000000000000000000000000000000000000000000000000000000000600000000000000000000000000000000000000000000000000000000000000014db51b68c60d28df99fae568228cad2c299a189e1000000000000000000000000",
                    "decodedMethod": {
                        "callParams": [
                            {
                                "name": "node",
                                "type": "bytes32",
                                "value": "0xf6251009f2bf688eb1fedb442bcdb14902b97eabd057d02f045b53708f24fc50"
                            },
                            {
                                "name": "coinType",
                                "type": "uint256",
                                "value": "60"
                            },
                            {
                                "name": "a",
                                "type": "bytes",
                                "value": "0xdb51b68c60d28df99fae568228cad2c299a189e1"
                            }
                        ],
                        "constructorArguments": "",
                        "name": "setAddr",
                        "returnParams": [],
                        "signature": "setAddr(bytes32,uint256,bytes)"
                    },
                    "errorInfo": "",
                    "fromAddress": "0x231b0ee14048e9dccd1d247744d114a4eb5e8e63",
                    "gasUsed": 29698,
                    "id": 20,
                    "methodDecoded": true,
                    "operation": "DELEGATECALL",
                    "output": "",
                    "revert": false,
                    "revertMessage": "",
                    "selector": "0x8b95dd71",
                    "status": true,
                    "value": "0"
                },
                "nodeType": 0
            },
            "21": {
                "event": {
                    "contract": "0x231b0ee14048e9dccd1d247744d114a4eb5e8e63",
                    "decodedLog": {
                        "name": "AddressChanged",
                        "params": [
                            {
                                "name": "node",
                                "type": "bytes32",
                                "value": "0xf6251009f2bf688eb1fedb442bcdb14902b97eabd057d02f045b53708f24fc50"
                            },
                            {
                                "name": "coinType",
                                "type": "uint256",
                                "value": "60"
                            },
                            {
                                "name": "newAddress",
                                "type": "bytes",
                                "value": "0xdb51b68c60d28df99fae568228cad2c299a189e1"
                            }
                        ],
                        "signature": "AddressChanged(bytes32,uint256,bytes)"
                    },
                    "id": 21,
                    "logData": "0x000000000000000000000000000000000000000000000000000000000000003c00000000000000000000000000000000000000000000000000000000000000400000000000000000000000000000000000000000000000000000000000000014db51b68c60d28df99fae568228cad2c299a189e1000000000000000000000000",
                    "logDecoded": true,
                    "operation": "EVENT",
                    "revert": false,
                    "status": true,
                    "topics": [
                        "0x65412581168e88a1e60c6459d7f44ae83ad0832e670826c05a4e2476b57af752",
                        "0xf6251009f2bf688eb1fedb442bcdb14902b97eabd057d02f045b53708f24fc50"
                    ]
                },
                "nodeType": 1
            },
            "22": {
                "event": {
                    "contract": "0x231b0ee14048e9dccd1d247744d114a4eb5e8e63",
                    "decodedLog": {
                        "name": "AddrChanged",
                        "params": [
                            {
                                "name": "node",
                                "type": "bytes32",
                                "value": "0xf6251009f2bf688eb1fedb442bcdb14902b97eabd057d02f045b53708f24fc50"
                            },
                            {
                                "name": "a",
                                "type": "address",
                                "value": "0xdb51b68c60d28df99fae568228cad2c299a189e1"
                            }
                        ],
                        "signature": "AddrChanged(bytes32,address)"
                    },
                    "id": 22,
                    "logData": "0x000000000000000000000000db51b68c60d28df99fae568228cad2c299a189e1",
                    "logDecoded": true,
                    "operation": "EVENT",
                    "revert": false,
                    "status": true,
                    "topics": [
                        "0x52d7d861f09ab3d26239d492e8968629f95e9e318cf0b73bfddc441522a15fd2",
                        "0xf6251009f2bf688eb1fedb442bcdb14902b97eabd057d02f045b53708f24fc50"
                    ]
                },
                "nodeType": 1
            },
            "23": {
                "invocation": {
                    "address": "0xa58e81fe9b61b5c3fe2afd33cf304c454abfc7cb",
                    "callData": "0x000000000000000000000000db51b68c60d28df99fae568228cad2c299a189e1000000000000000000000000db51b68c60d28df99fae568228cad2c299a189e1000000000000000000000000231b0ee14048e9dccd1d247744d114a4eb5e8e630000000000000000000000000000000000000000000000000000000000000080000000000000000000000000000000000000000000000000000000000000000a3336363838392e65746800000000000000000000000000000000000000000000",
                    "decodedMethod": {
                        "callParams": [
                            {
                                "name": "addr",
                                "type": "address",
                                "value": "0xdb51b68c60d28df99fae568228cad2c299a189e1"
                            },
                            {
                                "name": "owner",
                                "type": "address",
                                "value": "0xdb51b68c60d28df99fae568228cad2c299a189e1"
                            },
                            {
                                "name": "resolver",
                                "type": "address",
                                "value": "0x231b0ee14048e9dccd1d247744d114a4eb5e8e63"
                            },
                            {
                                "name": "name",
                                "type": "string",
                                "value": "366889.eth"
                            }
                        ],
                        "constructorArguments": "",
                        "name": "setNameForAddr",
                        "returnParams": [
                            {
                                "name": "",
                                "type": "bytes32",
                                "value": "0x5b966809c4d9313777742e810d1364a519c325c9da2d3de0f1e47571fc84b797"
                            }
                        ],
                        "signature": "setNameForAddr(address,address,address,string)"
                    },
                    "errorInfo": "",
                    "fromAddress": "0x253553366da8546fc250f225fe3d25d0c782303b",
                    "gasUsed": 87807,
                    "id": 23,
                    "methodDecoded": true,
                    "operation": "CALL",
                    "output": "0x5b966809c4d9313777742e810d1364a519c325c9da2d3de0f1e47571fc84b797",
                    "revert": false,
                    "revertMessage": "",
                    "selector": "0x7a806d6b",
                    "status": true,
                    "value": "0"
                },
                "nodeType": 0
            },
            "24": {
                "event": {
                    "contract": "0xa58e81fe9b61b5c3fe2afd33cf304c454abfc7cb",
                    "decodedLog": {
                        "name": "ReverseClaimed",
                        "params": [
                            {
                                "name": "addr",
                                "type": "address",
                                "value": "0xdb51b68c60d28df99fae568228cad2c299a189e1"
                            },
                            {
                                "name": "node",
                                "type": "bytes32",
                                "value": "0x5b966809c4d9313777742e810d1364a519c325c9da2d3de0f1e47571fc84b797"
                            }
                        ],
                        "signature": "ReverseClaimed(address,bytes32)"
                    },
                    "id": 24,
                    "logData": "0x",
                    "logDecoded": true,
                    "operation": "EVENT",
                    "revert": false,
                    "status": true,
                    "topics": [
                        "0x6ada868dd3058cf77a48a74489fd7963688e5464b2b0fa957ace976243270e92",
                        "0x000000000000000000000000db51b68c60d28df99fae568228cad2c299a189e1",
                        "0x5b966809c4d9313777742e810d1364a519c325c9da2d3de0f1e47571fc84b797"
                    ]
                },
                "nodeType": 1
            },
            "25": {
                "invocation": {
                    "address": "0x00000000000c2e074ec69a0dfb2997ba6c7d2e1e",
                    "callData": "0x91d1777781884d03a6757a803996e38de2a42967fb37eeaca72729271025a9e2dc6e9f9faec07dd33682590edfc5847ff65cc95e30bb25e5814db34cf2a37046000000000000000000000000db51b68c60d28df99fae568228cad2c299a189e1000000000000000000000000231b0ee14048e9dccd1d247744d114a4eb5e8e630000000000000000000000000000000000000000000000000000000000000000",
                    "decodedMethod": {
                        "callParams": [
                            {
                                "name": "node",
                                "type": "bytes32",
                                "value": "0x91d1777781884d03a6757a803996e38de2a42967fb37eeaca72729271025a9e2"
                            },
                            {
                                "name": "label",
                                "type": "bytes32",
                                "value": "0xdc6e9f9faec07dd33682590edfc5847ff65cc95e30bb25e5814db34cf2a37046"
                            },
                            {
                                "name": "owner",
                                "type": "address",
                                "value": "0xdb51b68c60d28df99fae568228cad2c299a189e1"
                            },
                            {
                                "name": "resolver",
                                "type": "address",
                                "value": "0x231b0ee14048e9dccd1d247744d114a4eb5e8e63"
                            },
                            {
                                "name": "ttl",
                                "type": "uint64",
                                "value": "0"
                            }
                        ],
                        "constructorArguments": "",
                        "name": "setSubnodeRecord",
                        "returnParams": [],
                        "signature": "setSubnodeRecord(bytes32,bytes32,address,address,uint64)"
                    },
                    "errorInfo": "",
                    "fromAddress": "0xa58e81fe9b61b5c3fe2afd33cf304c454abfc7cb",
                    "gasUsed": 51440,
                    "id": 25,
                    "methodDecoded": true,
                    "operation": "CALL",
                    "output": "",
                    "revert": false,
                    "revertMessage": "",
                    "selector": "0x5ef2c7f0",
                    "status": true,
                    "value": "0"
                },
                "nodeType": 0
            },
            "26": {
                "event": {
                    "contract": "0x00000000000c2e074ec69a0dfb2997ba6c7d2e1e",
                    "decodedLog": {
                        "name": "NewOwner",
                        "params": [
                            {
                                "name": "node",
                                "type": "bytes32",
                                "value": "0x91d1777781884d03a6757a803996e38de2a42967fb37eeaca72729271025a9e2"
                            },
                            {
                                "name": "label",
                                "type": "bytes32",
                                "value": "0xdc6e9f9faec07dd33682590edfc5847ff65cc95e30bb25e5814db34cf2a37046"
                            },
                            {
                                "name": "owner",
                                "type": "address",
                                "value": "0xdb51b68c60d28df99fae568228cad2c299a189e1"
                            }
                        ],
                        "signature": "NewOwner(bytes32,bytes32,address)"
                    },
                    "id": 26,
                    "logData": "0x000000000000000000000000db51b68c60d28df99fae568228cad2c299a189e1",
                    "logDecoded": true,
                    "operation": "EVENT",
                    "revert": false,
                    "status": true,
                    "topics": [
                        "0xce0457fe73731f824cc272376169235128c118b49d344817417c6d108d155e82",
                        "0x91d1777781884d03a6757a803996e38de2a42967fb37eeaca72729271025a9e2",
                        "0xdc6e9f9faec07dd33682590edfc5847ff65cc95e30bb25e5814db34cf2a37046"
                    ]
                },
                "nodeType": 1
            },
            "27": {
                "event": {
                    "contract": "0x00000000000c2e074ec69a0dfb2997ba6c7d2e1e",
                    "decodedLog": {
                        "name": "NewResolver",
                        "params": [
                            {
                                "name": "node",
                                "type": "bytes32",
                                "value": "0x5b966809c4d9313777742e810d1364a519c325c9da2d3de0f1e47571fc84b797"
                            },
                            {
                                "name": "resolver",
                                "type": "address",
                                "value": "0x231b0ee14048e9dccd1d247744d114a4eb5e8e63"
                            }
                        ],
                        "signature": "NewResolver(bytes32,address)"
                    },
                    "id": 27,
                    "logData": "0x000000000000000000000000231b0ee14048e9dccd1d247744d114a4eb5e8e63",
                    "logDecoded": true,
                    "operation": "EVENT",
                    "revert": false,
                    "status": true,
                    "topics": [
                        "0x335721b01866dc23fbee8b6b2c7b1e14d6f05c28cd35a2c934239f94095602a0",
                        "0x5b966809c4d9313777742e810d1364a519c325c9da2d3de0f1e47571fc84b797"
                    ]
                },
                "nodeType": 1
            },
            "28": {
                "invocation": {
                    "address": "0x231b0ee14048e9dccd1d247744d114a4eb5e8e63",
                    "callData": "0x5b966809c4d9313777742e810d1364a519c325c9da2d3de0f1e47571fc84b7970000000000000000000000000000000000000000000000000000000000000040000000000000000000000000000000000000000000000000000000000000000a3336363838392e65746800000000000000000000000000000000000000000000",
                    "decodedMethod": {
                        "callParams": [
                            {
                                "name": "node",
                                "type": "bytes32",
                                "value": "0x5b966809c4d9313777742e810d1364a519c325c9da2d3de0f1e47571fc84b797"
                            },
                            {
                                "name": "newName",
                                "type": "string",
                                "value": "366889.eth"
                            }
                        ],
                        "constructorArguments": "",
                        "name": "setName",
                        "returnParams": [],
                        "signature": "setName(bytes32,string)"
                    },
                    "errorInfo": "",
                    "fromAddress": "0xa58e81fe9b61b5c3fe2afd33cf304c454abfc7cb",
                    "gasUsed": 27659,
                    "id": 28,
                    "methodDecoded": true,
                    "operation": "CALL",
                    "output": "",
                    "revert": false,
                    "revertMessage": "",
                    "selector": "0x77372213",
                    "status": true,
                    "value": "0"
                },
                "nodeType": 0
            },
            "29": {
                "event": {
                    "contract": "0x231b0ee14048e9dccd1d247744d114a4eb5e8e63",
                    "decodedLog": {
                        "name": "NameChanged",
                        "params": [
                            {
                                "name": "node",
                                "type": "bytes32",
                                "value": "0x5b966809c4d9313777742e810d1364a519c325c9da2d3de0f1e47571fc84b797"
                            },
                            {
                                "name": "name",
                                "type": "string",
                                "value": "366889.eth"
                            }
                        ],
                        "signature": "NameChanged(bytes32,string)"
                    },
                    "id": 29,
                    "logData": "0x0000000000000000000000000000000000000000000000000000000000000020000000000000000000000000000000000000000000000000000000000000000a3336363838392e65746800000000000000000000000000000000000000000000",
                    "logDecoded": true,
                    "operation": "EVENT",
                    "revert": false,
                    "status": true,
                    "topics": [
                        "0xb7d29e911041e8d9b843369e890bcb72c9388692ba48b65ac54e7214c4c348f7",
                        "0x5b966809c4d9313777742e810d1364a519c325c9da2d3de0f1e47571fc84b797"
                    ]
                },
                "nodeType": 1
            },
            "3": {
                "invocation": {
                    "address": "0x5f4ec3df9cbd43714fe2740f5e3616155c5b8419",
                    "callData": "0x",
                    "decodedMethod": {
                        "callParams": [],
                        "constructorArguments": "",
                        "name": "latestAnswer",
                        "returnParams": [
                            {
                                "name": "",
                                "type": "int256",
                                "value": "299,715,902,760"
                            }
                        ],
                        "signature": "latestAnswer()"
                    },
                    "errorInfo": "",
                    "fromAddress": "0x7542565191d074ce84fbfa92cae13acb84788ca9",
                    "gasUsed": 14620,
                    "id": 3,
                    "methodDecoded": true,
                    "operation": "STATICCALL",
                    "output": "0x00000000000000000000000000000000000000000000000000000045c875bd28",
                    "revert": false,
                    "revertMessage": "",
                    "selector": "0x50d25bcd",
                    "status": true,
                    "value": "0"
                },
                "nodeType": 0
            },
            "30": {
                "event": {
                    "contract": "0x253553366da8546fc250f225fe3d25d0c782303b",
                    "decodedLog": {
                        "name": "NameRegistered",
                        "params": [
                            {
                                "name": "label",
                                "type": "bytes32",
                                "value": "0x0bc4ae912de866a4c299a0fc4db39d195879df25532469c9343bf57741d6219f"
                            },
                            {
                                "name": "owner",
                                "type": "address",
                                "value": "0xdb51b68c60d28df99fae568228cad2c299a189e1"
                            },
                            {
                                "name": "name",
                                "type": "string",
                                "value": "366889"
                            },
                            {
                                "name": "baseCost",
                                "type": "uint256",
                                "value": "1,668,246,480,737,919"
                            },
                            {
                                "name": "premium",
                                "type": "uint256",
                                "value": "0"
                            },
                            {
                                "name": "expires",
                                "type": "uint256",
                                "value": "1,746,766,391"
                            }
                        ],
                        "signature": "NameRegistered(string,bytes32,address,uint256,uint256,uint256)"
                    },
                    "id": 30,
                    "logData": "0x00000000000000000000000000000000000000000000000000000000000000800000000000000000000000000000000000000000000000000005ed42e6e1d67f000000000000000000000000000000000000000000000000000000000000000000000000000000000000000000000000000000000000000000000000681d8a3700000000000000000000000000000000000000000000000000000000000000063336363838390000000000000000000000000000000000000000000000000000",
                    "logDecoded": true,
                    "operation": "EVENT",
                    "revert": false,
                    "status": true,
                    "topics": [
                        "0x69e37f151eb98a09618ddaa80c8cfaf1ce5996867c489f45b555b412271ebf27",
                        "0x0bc4ae912de866a4c299a0fc4db39d195879df25532469c9343bf57741d6219f",
                        "0x000000000000000000000000db51b68c60d28df99fae568228cad2c299a189e1"
                    ]
                },
                "nodeType": 1
            },
            "31": {
                "invocation": {
                    "address": "0xdb51b68c60d28df99fae568228cad2c299a189e1",
                    "callData": "0x",
                    "decodedMethod": null,
                    "errorInfo": "",
                    "fromAddress": "0x253553366da8546fc250f225fe3d25d0c782303b",
                    "gasUsed": 0,
                    "id": 31,
                    "methodDecoded": false,
                    "operation": "CALL",
                    "output": "",
                    "revert": false,
                    "revertMessage": "",
                    "selector": "fallback",
                    "status": true,
                    "value": "0.000033364929614758"
                },
                "nodeType": 0
            },
            "4": {
                "invocation": {
                    "address": "0xe62b71cf983019bff55bc83b48601ce8419650cc",
                    "callData": "0x",
                    "decodedMethod": {
                        "callParams": [],
                        "constructorArguments": "",
                        "name": "latestAnswer",
                        "returnParams": [
                            {
                                "name": "",
                                "type": "int256",
                                "value": "299,715,902,760"
                            }
                        ],
                        "signature": "latestAnswer()"
                    },
                    "errorInfo": "",
                    "fromAddress": "0x5f4ec3df9cbd43714fe2740f5e3616155c5b8419",
                    "gasUsed": 7124,
                    "id": 4,
                    "methodDecoded": true,
                    "operation": "STATICCALL",
                    "output": "0x00000000000000000000000000000000000000000000000000000045c875bd28",
                    "revert": false,
                    "revertMessage": "",
                    "selector": "0x50d25bcd",
                    "status": true,
                    "value": "0"
                },
                "nodeType": 0
            },
            "5": {
                "invocation": {
                    "address": "0x5f4ec3df9cbd43714fe2740f5e3616155c5b8419",
                    "callData": "0x",
                    "decodedMethod": {
                        "callParams": [],
                        "constructorArguments": "",
                        "name": "latestAnswer",
                        "returnParams": [
                            {
                                "name": "",
                                "type": "int256",
                                "value": "299,715,902,760"
                            }
                        ],
                        "signature": "latestAnswer()"
                    },
                    "errorInfo": "",
                    "fromAddress": "0x7542565191d074ce84fbfa92cae13acb84788ca9",
                    "gasUsed": 2120,
                    "id": 5,
                    "methodDecoded": true,
                    "operation": "STATICCALL",
                    "output": "0x00000000000000000000000000000000000000000000000000000045c875bd28",
                    "revert": false,
                    "revertMessage": "",
                    "selector": "0x50d25bcd",
                    "status": true,
                    "value": "0"
                },
                "nodeType": 0
            },
            "6": {
                "invocation": {
                    "address": "0xe62b71cf983019bff55bc83b48601ce8419650cc",
                    "callData": "0x",
                    "decodedMethod": {
                        "callParams": [],
                        "constructorArguments": "",
                        "name": "latestAnswer",
                        "returnParams": [
                            {
                                "name": "",
                                "type": "int256",
                                "value": "299,715,902,760"
                            }
                        ],
                        "signature": "latestAnswer()"
                    },
                    "errorInfo": "",
                    "fromAddress": "0x5f4ec3df9cbd43714fe2740f5e3616155c5b8419",
                    "gasUsed": 1124,
                    "id": 6,
                    "methodDecoded": true,
                    "operation": "STATICCALL",
                    "output": "0x00000000000000000000000000000000000000000000000000000045c875bd28",
                    "revert": false,
                    "revertMessage": "",
                    "selector": "0x50d25bcd",
                    "status": true,
                    "value": "0"
                },
                "nodeType": 0
            },
            "7": {
                "invocation": {
                    "address": "0x57f1887a8bf19b14fc0df6fd9b2acc9af147ea85",
                    "callData": "0x0bc4ae912de866a4c299a0fc4db39d195879df25532469c9343bf57741d6219f",
                    "decodedMethod": {
                        "callParams": [
                            {
                                "name": "id",
                                "type": "uint256",
                                "value": "5,322,948,177,003,759,226,953,159,198,056,268,965,224,889,473,773,443,430,917,154,565,411,866,812,831"
                            }
                        ],
                        "constructorArguments": "",
                        "name": "available",
                        "returnParams": [
                            {
                                "name": "",
                                "type": "bool",
                                "value": true
                            }
                        ],
                        "signature": "available(uint256)"
                    },
                    "errorInfo": "",
                    "fromAddress": "0x253553366da8546fc250f225fe3d25d0c782303b",
                    "gasUsed": 569,
                    "id": 7,
                    "methodDecoded": true,
                    "operation": "STATICCALL",
                    "output": "0x0000000000000000000000000000000000000000000000000000000000000001",
                    "revert": false,
                    "revertMessage": "",
                    "selector": "0x96e494e8",
                    "status": true,
                    "value": "0"
                },
                "nodeType": 0
            },
            "8": {
                "invocation": {
                    "address": "0xd4416b13d2b3a9abae7acd5d6c2bbdbe25686401",
                    "callData": "0x00000000000000000000000000000000000000000000000000000000000000a0000000000000000000000000db51b68c60d28df99fae568228cad2c299a189e10000000000000000000000000000000000000000000000000000000001e13380000000000000000000000000231b0ee14048e9dccd1d247744d114a4eb5e8e63000000000000000000000000000000000000000000000000000000000000000000000000000000000000000000000000000000000000000000000000000000063336363838390000000000000000000000000000000000000000000000000000",
                    "decodedMethod": {
                        "callParams": [
                            {
                                "name": "label",
                                "type": "string",
                                "value": "366889"
                            },
                            {
                                "name": "wrappedOwner",
                                "type": "address",
                                "value": "0xdb51b68c60d28df99fae568228cad2c299a189e1"
                            },
                            {
                                "name": "duration",
                                "type": "uint256",
                                "value": "31,536,000"
                            },
                            {
                                "name": "resolver",
                                "type": "address",
                                "value": "0x231b0ee14048e9dccd1d247744d114a4eb5e8e63"
                            },
                            {
                                "name": "ownerControlledFuses",
                                "type": "uint16",
                                "value": "0"
                            }
                        ],
                        "constructorArguments": "",
                        "name": "registerAndWrapETH2LD",
                        "returnParams": [
                            {
                                "name": "registrarExpiry",
                                "type": "uint256",
                                "value": "1,746,766,391"
                            }
                        ],
                        "signature": "registerAndWrapETH2LD(string,address,uint256,address,uint16)"
                    },
                    "errorInfo": "",
                    "fromAddress": "0x253553366da8546fc250f225fe3d25d0c782303b",
                    "gasUsed": 172353,
                    "id": 8,
                    "methodDecoded": true,
                    "operation": "CALL",
                    "output": "0x00000000000000000000000000000000000000000000000000000000681d8a37",
                    "revert": false,
                    "revertMessage": "",
                    "selector": "0xa4014982",
                    "status": true,
                    "value": "0"
                },
                "nodeType": 0
            },
            "9": {
                "invocation": {
                    "address": "0x57f1887a8bf19b14fc0df6fd9b2acc9af147ea85",
                    "callData": "0x0bc4ae912de866a4c299a0fc4db39d195879df25532469c9343bf57741d6219f000000000000000000000000d4416b13d2b3a9abae7acd5d6c2bbdbe256864010000000000000000000000000000000000000000000000000000000001e13380",
                    "decodedMethod": {
                        "callParams": [
                            {
                                "name": "id",
                                "type": "uint256",
                                "value": "5,322,948,177,003,759,226,953,159,198,056,268,965,224,889,473,773,443,430,917,154,565,411,866,812,831"
                            },
                            {
                                "name": "owner",
                                "type": "address",
                                "value": "0xd4416b13d2b3a9abae7acd5d6c2bbdbe25686401"
                            },
                            {
                                "name": "duration",
                                "type": "uint256",
                                "value": "31,536,000"
                            }
                        ],
                        "constructorArguments": "",
                        "name": "register",
                        "returnParams": [
                            {
                                "name": "",
                                "type": "uint256",
                                "value": "1,746,766,391"
                            }
                        ],
                        "signature": "register(uint256,address,uint256)"
                    },
                    "errorInfo": "",
                    "fromAddress": "0xd4416b13d2b3a9abae7acd5d6c2bbdbe25686401",
                    "gasUsed": 91145,
                    "id": 9,
                    "methodDecoded": true,
                    "operation": "CALL",
                    "output": "0x00000000000000000000000000000000000000000000000000000000681d8a37",
                    "revert": false,
                    "revertMessage": "",
                    "selector": "0xfca247ac",
                    "status": true,
                    "value": "0"
                },
                "nodeType": 0
            }
        },
        "gasFlame": [
            {
                "children": [
                    {
                        "children": [
                            {
                                "children": [],
                                "depth": 0,
                                "name": "Initial Gas",
                                "value": 25248
                            },
                            {
                                "children": [
                                    {
                                        "children": [],
                                        "depth": 1,
                                        "name": "nameExpires",
                                        "value": 2523
                                    },
                                    {
                                        "children": [
                                            {
                                                "children": [
                                                    {
                                                        "children": [],
                                                        "depth": 3,
                                                        "name": "latestAnswer",
                                                        "value": 7124
                                                    }
                                                ],
                                                "depth": 2,
                                                "name": "latestAnswer",
                                                "value": 14620
                                            },
                                            {
                                                "children": [
                                                    {
                                                        "children": [],
                                                        "depth": 3,
                                                        "name": "latestAnswer",
                                                        "value": 1124
                                                    }
                                                ],
                                                "depth": 2,
                                                "name": "latestAnswer",
                                                "value": 2120
                                            }
                                        ],
                                        "depth": 1,
                                        "name": "price",
                                        "value": 25994
                                    },
                                    {
                                        "children": [],
                                        "depth": 1,
                                        "name": "available",
                                        "value": 569
                                    },
                                    {
                                        "children": [
                                            {
                                                "children": [
                                                    {
                                                        "children": [],
                                                        "depth": 3,
                                                        "name": "owner",
                                                        "value": 2951
                                                    },
                                                    {
                                                        "children": [],
                                                        "depth": 3,
                                                        "name": "setSubnodeOwner",
                                                        "value": 25069
                                                    }
                                                ],
                                                "depth": 2,
                                                "name": "register",
                                                "value": 91145
                                            },
                                            {
                                                "children": [],
                                                "depth": 2,
                                                "name": "setResolver",
                                                "value": 24371
                                            }
                                        ],
                                        "depth": 1,
                                        "name": "registerAndWrapETH2LD",
                                        "value": 172353
                                    },
                                    {
                                        "children": [
                                            {
                                                "children": [],
                                                "depth": 2,
                                                "name": "setAddr",
                                                "value": 29698
                                            }
                                        ],
                                        "depth": 1,
                                        "name": "multicallWithNodeCheck",
                                        "value": 32181
                                    },
                                    {
                                        "children": [
                                            {
                                                "children": [],
                                                "depth": 2,
                                                "name": "setSubnodeRecord",
                                                "value": 51440
                                            },
                                            {
                                                "children": [],
                                                "depth": 2,
                                                "name": "setName",
                                                "value": 27659
                                            }
                                        ],
                                        "depth": 1,
                                        "name": "setNameForAddr",
                                        "value": 87807
                                    },
                                    {
                                        "children": [],
                                        "depth": 1,
                                        "name": "fallback",
                                        "value": 0
                                    }
                                ],
                                "depth": 0,
                                "name": "Executed Gas",
                                "value": 361261
                            }
                        ],
                        "depth": -1,
                        "name": "Actual Gas Used",
                        "value": 381709
                    },
                    {
                        "children": [],
                        "depth": -1,
                        "name": "Refunded Gas",
                        "value": 4800
                    }
                ],
                "depth": -2,
                "name": "Total Gas",
                "value": 386509
            }
        ],
        "isConfirmed": true,
        "mainTrace": [
            {
                "children": [
                    {
                        "children": [
                            {
                                "children": [],
                                "depth": 1,
                                "id": 1,
                                "order": 1
                            },
                            {
                                "children": [
                                    {
                                        "children": [
                                            {
                                                "children": [],
                                                "depth": 3,
                                                "id": 4,
                                                "order": 4
                                            }
                                        ],
                                        "depth": 2,
                                        "id": 3,
                                        "order": 3
                                    },
                                    {
                                        "children": [
                                            {
                                                "children": [],
                                                "depth": 3,
                                                "id": 6,
                                                "order": 6
                                            }
                                        ],
                                        "depth": 2,
                                        "id": 5,
                                        "order": 5
                                    }
                                ],
                                "depth": 1,
                                "id": 2,
                                "order": 2
                            },
                            {
                                "children": [],
                                "depth": 1,
                                "id": 7,
                                "order": 7
                            },
                            {
                                "children": [
                                    {
                                        "children": [
                                            {
                                                "children": [],
                                                "depth": 3,
                                                "id": 10,
                                                "order": 10
                                            },
                                            {
                                                "children": [],
                                                "depth": 3,
                                                "id": 11,
                                                "order": 11
                                            },
                                            {
                                                "children": [
                                                    {
                                                        "children": [],
                                                        "depth": 4,
                                                        "id": 13,
                                                        "order": 13
                                                    }
                                                ],
                                                "depth": 3,
                                                "id": 12,
                                                "order": 12
                                            },
                                            {
                                                "children": [],
                                                "depth": 3,
                                                "id": 14,
                                                "order": 14
                                            }
                                        ],
                                        "depth": 2,
                                        "id": 9,
                                        "order": 9
                                    },
                                    {
                                        "children": [],
                                        "depth": 2,
                                        "id": 15,
                                        "order": 15
                                    },
                                    {
                                        "children": [],
                                        "depth": 2,
                                        "id": 16,
                                        "order": 16
                                    },
                                    {
                                        "children": [
                                            {
                                                "children": [],
                                                "depth": 3,
                                                "id": 18,
                                                "order": 18
                                            }
                                        ],
                                        "depth": 2,
                                        "id": 17,
                                        "order": 17
                                    }
                                ],
                                "depth": 1,
                                "id": 8,
                                "order": 8
                            },
                            {
                                "children": [
                                    {
                                        "children": [
                                            {
                                                "children": [],
                                                "depth": 3,
                                                "id": 21,
                                                "order": 21
                                            },
                                            {
                                                "children": [],
                                                "depth": 3,
                                                "id": 22,
                                                "order": 22
                                            }
                                        ],
                                        "depth": 2,
                                        "id": 20,
                                        "order": 20
                                    }
                                ],
                                "depth": 1,
                                "id": 19,
                                "order": 19
                            },
                            {
                                "children": [
                                    {
                                        "children": [],
                                        "depth": 2,
                                        "id": 24,
                                        "order": 24
                                    },
                                    {
                                        "children": [
                                            {
                                                "children": [],
                                                "depth": 3,
                                                "id": 26,
                                                "order": 26
                                            },
                                            {
                                                "children": [],
                                                "depth": 3,
                                                "id": 27,
                                                "order": 27
                                            }
                                        ],
                                        "depth": 2,
                                        "id": 25,
                                        "order": 25
                                    },
                                    {
                                        "children": [
                                            {
                                                "children": [],
                                                "depth": 3,
                                                "id": 29,
                                                "order": 29
                                            }
                                        ],
                                        "depth": 2,
                                        "id": 28,
                                        "order": 28
                                    }
                                ],
                                "depth": 1,
                                "id": 23,
                                "order": 23
                            },
                            {
                                "children": [],
                                "depth": 1,
                                "id": 30,
                                "order": 30
                            },
                            {
                                "children": [],
                                "depth": 1,
                                "id": 31,
                                "order": 31
                            }
                        ],
                        "depth": 0,
                        "id": 0,
                        "order": 0
                    }
                ],
                "depth": -1,
                "id": -1,
                "order": -1
            }
        ],
        "mainTraceNodeCount": 32,
        "parentIdMap": {
            "0": -1,
            "1": 0,
            "10": 9,
            "11": 9,
            "12": 9,
            "13": 12,
            "14": 9,
            "15": 8,
            "16": 8,
            "17": 8,
            "18": 17,
            "19": 0,
            "2": 0,
            "20": 19,
            "21": 20,
            "22": 20,
            "23": 0,
            "24": 23,
            "25": 23,
            "26": 25,
            "27": 25,
            "28": 23,
            "29": 28,
            "3": 2,
            "30": 0,
            "31": 0,
            "4": 3,
            "5": 2,
            "6": 5,
            "7": 0,
            "8": 0,
            "9": 8
        },
        "tidyTrace": [
            {
                "children": [
                    {
                        "children": [
                            {
                                "children": [
                                    {
                                        "children": [
                                            {
                                                "children": [],
                                                "depth": 3,
                                                "id": 11,
                                                "order": 11
                                            },
                                            {
                                                "children": [
                                                    {
                                                        "children": [],
                                                        "depth": 4,
                                                        "id": 13,
                                                        "order": 13
                                                    }
                                                ],
                                                "depth": 3,
                                                "id": 12,
                                                "order": 12
                                            },
                                            {
                                                "children": [],
                                                "depth": 3,
                                                "id": 14,
                                                "order": 14
                                            }
                                        ],
                                        "depth": 2,
                                        "id": 9,
                                        "order": 9
                                    },
                                    {
                                        "children": [],
                                        "depth": 2,
                                        "id": 15,
                                        "order": 15
                                    },
                                    {
                                        "children": [],
                                        "depth": 2,
                                        "id": 16,
                                        "order": 16
                                    },
                                    {
                                        "children": [
                                            {
                                                "children": [],
                                                "depth": 3,
                                                "id": 18,
                                                "order": 18
                                            }
                                        ],
                                        "depth": 2,
                                        "id": 17,
                                        "order": 17
                                    }
                                ],
                                "depth": 1,
                                "id": 8,
                                "order": 8
                            },
                            {
                                "children": [
                                    {
                                        "children": [
                                            {
                                                "children": [],
                                                "depth": 3,
                                                "id": 21,
                                                "order": 21
                                            },
                                            {
                                                "children": [],
                                                "depth": 3,
                                                "id": 22,
                                                "order": 22
                                            }
                                        ],
                                        "depth": 2,
                                        "id": 20,
                                        "order": 20
                                    }
                                ],
                                "depth": 1,
                                "id": 19,
                                "order": 19
                            },
                            {
                                "children": [
                                    {
                                        "children": [],
                                        "depth": 2,
                                        "id": 24,
                                        "order": 24
                                    },
                                    {
                                        "children": [
                                            {
                                                "children": [],
                                                "depth": 3,
                                                "id": 26,
                                                "order": 26
                                            },
                                            {
                                                "children": [],
                                                "depth": 3,
                                                "id": 27,
                                                "order": 27
                                            }
                                        ],
                                        "depth": 2,
                                        "id": 25,
                                        "order": 25
                                    },
                                    {
                                        "children": [
                                            {
                                                "children": [],
                                                "depth": 3,
                                                "id": 29,
                                                "order": 29
                                            }
                                        ],
                                        "depth": 2,
                                        "id": 28,
                                        "order": 28
                                    }
                                ],
                                "depth": 1,
                                "id": 23,
                                "order": 23
                            },
                            {
                                "children": [],
                                "depth": 1,
                                "id": 30,
                                "order": 30
                            },
                            {
                                "children": [],
                                "depth": 1,
                                "id": 31,
                                "order": 31
                            }
                        ],
                        "depth": 0,
                        "id": 0,
                        "order": 0
                    }
                ],
                "depth": -1,
                "id": -1,
                "order": -1
            }
        ],
        "tidyTraceNodeCount": 24
    },
    "state_change": {
        "stateChanges": [
            {
                "address": "0x00000000000c2e074ec69a0dfb2997ba6c7d2e1e",
                "erc": "",
                "slots": [
                    {
                        "current": "0x000000000000000000000000d4416b13d2b3a9abae7acd5d6c2bbdbe25686401",
                        "key": "0xb5c1f5c6346b968ae3ef0fa835264a361addf35da8ad50dee5b1de49d3303e60",
                        "prev": "0x0000000000000000000000000000000000000000000000000000000000000000"
                    },
                    {
                        "current": "0x000000000000000000000000231b0ee14048e9dccd1d247744d114a4eb5e8e63",
                        "key": "0xb5c1f5c6346b968ae3ef0fa835264a361addf35da8ad50dee5b1de49d3303e61",
                        "prev": "0x0000000000000000000000000000000000000000000000000000000000000000"
                    },
                    {
                        "current": "0x000000000000000000000000db51b68c60d28df99fae568228cad2c299a189e1",
                        "key": "0xb6af270521f2ac27d134ff85c3e8dba559b391dcdcfa538319989c1e87bbd6c8",
                        "prev": "0x0000000000000000000000000000000000000000000000000000000000000000"
                    },
                    {
                        "current": "0x000000000000000000000000231b0ee14048e9dccd1d247744d114a4eb5e8e63",
                        "key": "0xb6af270521f2ac27d134ff85c3e8dba559b391dcdcfa538319989c1e87bbd6c9",
                        "prev": "0x0000000000000000000000000000000000000000000000000000000000000000"
                    }
                ],
                "storageVariables": [
                    {
                        "name": "records",
                        "type": "mapping(bytes32 => struct ENSRegistry.Record)",
                        "value": {
                            "pairs": [
                                {
                                    "key": "0x5b966809c4d9313777742e810d1364a519c325c9da2d3de0f1e47571fc84b797",
                                    "value": {
                                        "fields": [
                                            {
                                                "name": "owner",
                                                "type": "address",
                                                "value": {
                                                    "current": "0xdb51b68c60d28df99fae568228cad2c299a189e1",
                                                    "prev": "0x0000000000000000000000000000000000000000",
                                                    "typeTag": 1
                                                }
                                            },
                                            {
                                                "name": "resolver",
                                                "type": "address",
                                                "value": {
                                                    "current": "0x231b0ee14048e9dccd1d247744d114a4eb5e8e63",
                                                    "prev": "0x0000000000000000000000000000000000000000",
                                                    "typeTag": 1
                                                }
                                            },
                                            {
                                                "name": "ttl",
                                                "type": "uint64",
                                                "value": {
                                                    "current": "0",
                                                    "prev": "0",
                                                    "typeTag": 1
                                                }
                                            }
                                        ],
                                        "typeTag": 3
                                    }
                                },
                                {
                                    "key": "0xf6251009f2bf688eb1fedb442bcdb14902b97eabd057d02f045b53708f24fc50",
                                    "value": {
                                        "fields": [
                                            {
                                                "name": "owner",
                                                "type": "address",
                                                "value": {
                                                    "current": "0xd4416b13d2b3a9abae7acd5d6c2bbdbe25686401",
                                                    "prev": "0x0000000000000000000000000000000000000000",
                                                    "typeTag": 1
                                                }
                                            },
                                            {
                                                "name": "resolver",
                                                "type": "address",
                                                "value": {
                                                    "current": "0x231b0ee14048e9dccd1d247744d114a4eb5e8e63",
                                                    "prev": "0x0000000000000000000000000000000000000000",
                                                    "typeTag": 1
                                                }
                                            },
                                            {
                                                "name": "ttl",
                                                "type": "uint64",
                                                "value": {
                                                    "current": "0",
                                                    "prev": "0",
                                                    "typeTag": 1
                                                }
                                            }
                                        ],
                                        "typeTag": 3
                                    }
                                }
                            ],
                            "typeTag": 4
                        }
                    }
                ]
            },
            {
                "address": "0x231b0ee14048e9dccd1d247744d114a4eb5e8e63",
                "erc": "",
                "slots": [
                    {
                        "current": "0xdb51b68c60d28df99fae568228cad2c299a189e1000000000000000000000028",
                        "key": "0x81c89fe0441ae53a0ec44abe868794e30775f6acac6d00f52bf3127cf9c76aca",
                        "prev": "0x0000000000000000000000000000000000000000000000000000000000000000"
                    },
                    {
                        "current": "0x3336363838392e65746800000000000000000000000000000000000000000014",
                        "key": "0x55986ef15d2f6770f8891658c7cd39861966bbde533f3bfb5fc1fccb0ea7861c",
                        "prev": "0x0000000000000000000000000000000000000000000000000000000000000000"
                    }
                ],
                "storageVariables": [
                    {
                        "name": "versionable_addresses",
                        "type": "mapping(uint64 => mapping(bytes32 => mapping(uint256 => bytes)))",
                        "value": {
                            "pairs": [
                                {
                                    "key": "0",
                                    "value": {
                                        "pairs": [
                                            {
                                                "key": "0xf6251009f2bf688eb1fedb442bcdb14902b97eabd057d02f045b53708f24fc50",
                                                "value": {
                                                    "pairs": [
                                                        {
                                                            "key": "60",
                                                            "value": {
                                                                "current": "0xdb51b68c60d28df99fae568228cad2c299a189e1",
                                                                "prev": "0x",
                                                                "typeTag": 1
                                                            }
                                                        }
                                                    ],
                                                    "typeTag": 4
                                                }
                                            }
                                        ],
                                        "typeTag": 4
                                    }
                                }
                            ],
                            "typeTag": 4
                        }
                    },
                    {
                        "name": "versionable_names",
                        "type": "mapping(uint64 => mapping(bytes32 => string))",
                        "value": {
                            "pairs": [
                                {
                                    "key": "0",
                                    "value": {
                                        "pairs": [
                                            {
                                                "key": "0x5b966809c4d9313777742e810d1364a519c325c9da2d3de0f1e47571fc84b797",
                                                "value": {
                                                    "current": "366889.eth",
                                                    "prev": "",
                                                    "typeTag": 1
                                                }
                                            }
                                        ],
                                        "typeTag": 4
                                    }
                                }
                            ],
                            "typeTag": 4
                        }
                    }
                ]
            },
            {
                "address": "0x253553366da8546fc250f225fe3d25d0c782303b",
                "erc": "",
                "slots": [
                    {
                        "current": "0x0000000000000000000000000000000000000000000000000000000000000000",
                        "key": "0xb4e153ce1d21fc7c479e79a8ca6d2fc9acceefbeca261ab22519f366ef47f030",
                        "prev": "0x00000000000000000000000000000000000000000000000000000000663c566f"
                    }
                ],
                "storageVariables": [
                    {
                        "name": "commitments",
                        "type": "mapping(bytes32 => uint256)",
                        "value": {
                            "pairs": [
                                {
                                    "key": "0x23458137b2855c9c81f68c8371aad336f31865d1e17e2dd46dacb13c16a3a5d5",
                                    "value": {
                                        "current": "0",
                                        "prev": "1715230319",
                                        "typeTag": 1
                                    }
                                }
                            ],
                            "typeTag": 4
                        }
                    }
                ]
            },
            {
                "address": "0x57f1887a8bf19b14fc0df6fd9b2acc9af147ea85",
                "erc": "ERC-721",
                "slots": [
                    {
                        "current": "0x00000000000000000000000000000000000000000000000000000000681d8a37",
                        "key": "0x912f3ff8400149eb62b7f339f368bcbfe2b153c0eed19ec92f5c762c0b2fef4e",
                        "prev": "0x0000000000000000000000000000000000000000000000000000000000000000"
                    },
                    {
                        "current": "0x000000000000000000000000d4416b13d2b3a9abae7acd5d6c2bbdbe25686401",
                        "key": "0x443e6f1f06e58d9a54856be3a8244937d2bcafcff0233b710151d47349f85f66",
                        "prev": "0x0000000000000000000000000000000000000000000000000000000000000000"
                    },
                    {
                        "current": "0x0000000000000000000000000000000000000000000000000000000000058c3d",
                        "key": "0x19ff96020c88e66cad0e3ed5f9fdc0bb2652ec609a9261ce85288f989a15a27c",
                        "prev": "0x0000000000000000000000000000000000000000000000000000000000058c3c"
                    }
                ],
                "storageVariables": [
                    {
                        "name": "expiries",
                        "type": "mapping(uint256 => uint256)",
                        "value": {
                            "pairs": [
                                {
                                    "key": "5322948177003759226953159198056268965224889473773443430917154565411866812831",
                                    "value": {
                                        "current": "1746766391",
                                        "prev": "0",
                                        "typeTag": 1
                                    }
                                }
                            ],
                            "typeTag": 4
                        }
                    },
                    {
                        "name": "_tokenOwner",
                        "type": "mapping(uint256 => address)",
                        "value": {
                            "pairs": [
                                {
                                    "key": "5322948177003759226953159198056268965224889473773443430917154565411866812831",
                                    "value": {
                                        "current": "0xd4416b13d2b3a9abae7acd5d6c2bbdbe25686401",
                                        "prev": "0x0000000000000000000000000000000000000000",
                                        "typeTag": 1
                                    }
                                }
                            ],
                            "typeTag": 4
                        }
                    },
                    {
                        "name": "_ownedTokensCount",
                        "type": "mapping(address => uint256)",
                        "value": {
                            "pairs": [
                                {
                                    "key": "0xd4416b13d2b3a9abae7acd5d6c2bbdbe25686401",
                                    "value": {
                                        "current": "363581",
                                        "prev": "363580",
                                        "typeTag": 1
                                    }
                                }
                            ],
                            "typeTag": 4
                        }
                    }
                ]
            },
            {
                "address": "0xd4416b13d2b3a9abae7acd5d6c2bbdbe25686401",
                "erc": "ERC-1155",
                "slots": [
                    {
                        "current": "0x000000006894313700030000db51b68c60d28df99fae568228cad2c299a189e1",
                        "key": "0x8524c85416fecc17983585fec48890bdfd684fb70179f4ac382a260dd6dc25b7",
                        "prev": "0x0000000000000000000000000000000000000000000000000000000000000000"
                    },
                    {
                        "current": "0x0633363638383903657468000000000000000000000000000000000000000018",
                        "key": "0x1d9d51351d4633bada5282789f0536c42b6655c60364ed8b8867aae7e97112a6",
                        "prev": "0x0000000000000000000000000000000000000000000000000000000000000000"
                    }
                ],
                "storageVariables": [
                    {
                        "name": "_tokens",
                        "type": "mapping(uint256 => uint256)",
                        "value": {
                            "pairs": [
                                {
                                    "key": "111334444789025715857081096427420267550446068091853488814889408245015398120528",
                                    "value": {
                                        "current": "11013441087355883521100155901504004048416645474790567280080154888673",
                                        "prev": "0",
                                        "typeTag": 1
                                    }
                                }
                            ],
                            "typeTag": 4
                        }
                    },
                    {
                        "name": "names",
                        "type": "mapping(bytes32 => bytes)",
                        "value": {
                            "pairs": [
                                {
                                    "key": "0xf6251009f2bf688eb1fedb442bcdb14902b97eabd057d02f045b53708f24fc50",
                                    "value": {
                                        "current": "0x063336363838390365746800",
                                        "prev": "0x",
                                        "typeTag": 1
                                    }
                                }
                            ],
                            "typeTag": 4
                        }
                    }
                ]
            }
        ]
    }
}