{
    "balance_change": {
        "balanceChanges": [
            {
                "account": "0xb1755c09d5e1d0e8f4b6d9ac18f66fde667f5235",
                "assets": [
                    {
                        "address": "0xb4357054c3da8d46ed642383f03139ac7f090343",
                        "amount": "645.457686847174657533",
                        "iconUrl": "",
                        "isERC1155": false,
                        "isERC721": false,
                        "sign": false,
                        "value": "75.92712114"
                    }
                ]
            },
            {
                "account": "0x3fec3503084e13a9b2ce6c301cd3f23e3ef89eca",
                "assets": [
                    {
                        "address": "0xb4357054c3da8d46ed642383f03139ac7f090343",
                        "amount": "645.457686847174657533",
                        "iconUrl": "",
                        "isERC1155": false,
                        "isERC721": false,
                        "sign": true,
                        "value": "75.92712114"
                    }
                ]
            }
        ]
    },
    "profile": {
        "basic_info": {
            "baseFee": "3.588269175",
            "blockNumber": 20101601,
            "callData": "0xa9059cbb0000000000000000000000003fec3503084e13a9b2ce6c301cd3f23e3ef89eca000000000000000000000000000000000000000000000022fd865a67f72ac5fd",
            "debugEnable": true,
            "errorInfo": "",
            "eventCount": 1,
            "feeRecipient": "0x95222290dd7278aa3ddd389cc1e1d165cc4bafe5",
            "formatValue": "0",
            "gasLimit": 51601,
            "gasPrice": "3.688269175",
            "gasUsed": 29601,
            "intTxnCount": 0,
            "internalRevert": false,
            "internalRevertMessage": "",
            "isContractCreation": false,
            "isFlashloan": false,
            "maxFee": "5.15292659",
            "nonce": 23,
            "overwritedBlockNumber": -1,
            "priorityFee": "0.1",
            "receiver": "0xb4357054c3da8d46ed642383f03139ac7f090343",
            "revertMessage": "",
            "sender": "0xb1755c09d5e1d0e8f4b6d9ac18f66fde667f5235",
            "simulationEnable": true,
            "sourceTxnHash": "0xfd858428dcc2aa7695673d705eb954f1a9b6ea77968df02294012a4f23150a6c",
            "status": true,
            "timestamp": "2024-06-16T03:15:59Z",
            "transactionFee": "0.000109176455849175",
            "txnHash": "0xfd858428dcc2aa7695673d705eb954f1a9b6ea77968df02294012a4f23150a6c",
            "txnIndex": 128,
            "type": 2,
            "value": "0"
        },
        "fund_flow": [
            {
                "amount": "645.457686847174657533",
                "from": "0xb1755c09d5e1d0e8f4b6d9ac18f66fde667f5235",
                "id": 1,
                "isERC1155": false,
                "isERC721": false,
                "isReverted": false,
                "order": 1,
                "to": "0x3fec3503084e13a9b2ce6c301cd3f23e3ef89eca",
                "token": "0xb4357054c3da8d46ed642383f03139ac7f090343"
            }
        ],
        "token_infos": [
            {
                "address": "0xb4357054c3da8d46ed642383f03139ac7f090343",
                "decimals": 18
            },
            {
                "address": "0xc02aaa39b223fe8d0a0e5c4f27ead9083c756cc2",
                "decimals": 18
            },
            {
                "address": "0xeeeeeeeeeeeeeeeeeeeeeeeeeeeeeeeeeeeeeeee",
                "decimals": 18
            }
        ]
    },
    "address_label": {
        "labels": [
            {
                "address": "0x0000000000000000000000000000000000000003",
                "label": "Precompiled"
            },
            {
                "address": "0x0000000000000000000000000000000000000004",
                "label": "Precompiled"
            },
            {
                "address": "0xeeeeeeeeeeeeeeeeeeeeeeeeeeeeeeeeeeeeeeee",
                "label": "Ether"
            },
            {
                "address": "0xb4357054c3da8d46ed642383f03139ac7f090343",
                "label": "Port3 Network: PORT3 Token"
            },
            {
                "address": "0x3fec3503084e13a9b2ce6c301cd3f23e3ef89eca",
                "label": "GATE.IO"
            },
            {
                "address": "0x0000000000000000000000000000000000000001",
                "label": "Precompiled"
            },
            {
                "address": "0x0000000000000000000000000000000000000002",
                "label": "Precompiled"
            }
        ]
    },
    "trace": {
        "accountLabels": null,
        "dataMap": {
            "-1": {
                "invocation": {
                    "address": "0xb1755c09d5e1d0e8f4b6d9ac18f66fde667f5235",
                    "callData": "",
                    "decodedMethod": null,
                    "errorInfo": "",
                    "fromAddress": "",
                    "gasUsed": 0,
                    "id": -1,
                    "methodDecoded": false,
                    "operation": "",
                    "output": "",
                    "revert": false,
                    "revertMessage": "",
                    "selector": "",
                    "status": false,
                    "value": ""
                },
                "nodeType": 0
            },
            "0": {
                "invocation": {
                    "address": "0xb4357054c3da8d46ed642383f03139ac7f090343",
                    "callData": "0x0000000000000000000000003fec3503084e13a9b2ce6c301cd3f23e3ef89eca000000000000000000000000000000000000000000000022fd865a67f72ac5fd",
                    "decodedMethod": {
                        "callParams": [
                            {
                                "name": "to",
                                "type": "address",
                                "value": "0x3fec3503084e13a9b2ce6c301cd3f23e3ef89eca"
                            },
                            {
                                "decimalAvailable": true,
                                "name": "amount",
                                "type": "uint256",
                                "value": "645,457,686,847,174,657,533"
                            }
                        ],
                        "constructorArguments": "",
                        "name": "transfer",
                        "returnParams": [
                            {
                                "name": "",
                                "type": "bool",
                                "value": true
                            }
                        ],
                        "signature": "transfer(address,uint256)"
                    },
                    "errorInfo": "",
                    "fromAddress": "0xb1755c09d5e1d0e8f4b6d9ac18f66fde667f5235",
                    "gasUsed": 29601,
                    "id": 0,
                    "methodDecoded": true,
                    "operation": "CALL",
                    "output": "0x0000000000000000000000000000000000000000000000000000000000000001",
                    "revert": false,
                    "revertMessage": "",
                    "selector": "0xa9059cbb",
                    "status": true,
                    "value": "0"
                },
                "nodeType": 0
            },
            "1": {
                "event": {
                    "contract": "0xb4357054c3da8d46ed642383f03139ac7f090343",
                    "decodedLog": {
                        "name": "Transfer",
                        "params": [
                            {
                                "name": "from",
                                "type": "address",
                                "value": "0xb1755c09d5e1d0e8f4b6d9ac18f66fde667f5235"
                            },
                            {
                                "name": "to",
                                "type": "address",
                                "value": "0x3fec3503084e13a9b2ce6c301cd3f23e3ef89eca"
                            },
                            {
                                "decimalAvailable": true,
                                "name": "value",
                                "type": "uint256",
                                "value": "645,457,686,847,174,657,533"
                            }
                        ],
                        "signature": "Transfer(address,address,uint256)"
                    },
                    "id": 1,
                    "logData": "0x000000000000000000000000000000000000000000000022fd865a67f72ac5fd",
                    "logDecoded": true,
                    "operation": "EVENT",
                    "revert": false,
                    "status": true,
                    "topics": [
                        "0xddf252ad1be2c89b69c2b068fc378daa952ba7f163c4a11628f55a4df523b3ef",
                        "0x000000000000000000000000b1755c09d5e1d0e8f4b6d9ac18f66fde667f5235",
                        "0x0000000000000000000000003fec3503084e13a9b2ce6c301cd3f23e3ef89eca"
                    ]
                },
                "nodeType": 1
            }
        },
        "gasFlame": [
            {
                "children": [
                    {
                        "children": [
                            {
                                "children": [],
                                "depth": 0,
                                "name": "Initial Gas",
                                "value": 21668
                            },
                            {
                                "children": [],
                                "depth": 0,
                                "name": "Executed Gas",
                                "value": 12733
                            }
                        ],
                        "depth": -1,
                        "name": "Actual Gas Used",
                        "value": 29601
                    },
                    {
                        "children": [],
                        "depth": -1,
                        "name": "Refunded Gas",
                        "value": 4800
                    }
                ],
                "depth": -2,
                "name": "Total Gas",
                "value": 34401
            }
        ],
        "isConfirmed": true,
        "mainTrace": [
            {
                "children": [
                    {
                        "children": [
                            {
                                "children": [],
                                "depth": 1,
                                "id": 1,
                                "order": 1
                            }
                        ],
                        "depth": 0,
                        "id": 0,
                        "order": 0
                    }
                ],
                "depth": -1,
                "id": -1,
                "order": -1
            }
        ],
        "mainTraceNodeCount": 2,
        "parentIdMap": {
            "0": -1,
            "1": 0
        },
        "tidyTrace": [
            {
                "children": [
                    {
                        "children": [
                            {
                                "children": [],
                                "depth": 1,
                                "id": 1,
                                "order": 1
                            }
                        ],
                        "depth": 0,
                        "id": 0,
                        "order": 0
                    }
                ],
                "depth": -1,
                "id": -1,
                "order": -1
            }
        ],
        "tidyTraceNodeCount": 2
    },
    "state_change": {
        "stateChanges": [
            {
                "address": "0xb4357054c3da8d46ed642383f03139ac7f090343",
                "erc": "ERC-20",
                "slots": [
                    {
                        "current": "0x0000000000000000000000000000000000000000000000000000000000000000",
                        "key": "0x080441ce1cd0c58ceea426dabeee7f2a44d18dfc35de1f4af8867aac0fb68df0",
                        "prev": "0x000000000000000000000000000000000000000000000022fd865a67f72ac5fd"
                    },
                    {
                        "current": "0x0000000000000000000000000000000000000000000001ac6425d61397a11e89",
                        "key": "0xc4536e5f708ba12b278f1e9f34a98a888723bd8de92d4e4e9baac324de33dd87",
                        "prev": "0x000000000000000000000000000000000000000000000189669f7baba076588c"
                    }
                ],
                "storageVariables": [
                    {
                        "name": "_balances",
                        "type": "mapping(address => uint256)",
                        "value": {
                            "pairs": [
                                {
                                    "key": "0x3fec3503084e13a9b2ce6c301cd3f23e3ef89eca",
                                    "value": {
                                        "current": "7902422872905255820937",
                                        "prev": "7256965186058081163404",
                                        "typeTag": 1
                                    }
                                },
                                {
                                    "key": "0xb1755c09d5e1d0e8f4b6d9ac18f66fde667f5235",
                                    "value": {
                                        "current": "0",
                                        "prev": "645457686847174657533",
                                        "typeTag": 1
                                    }
                                }
                            ],
                            "typeTag": 4
                        }
                    }
                ]
            }
        ]
    }
}