{
    "balance_change": {
        "balanceChanges": [
            {
                "account": "0xc013442d0a21db112cda16b3770572f0d379ff14",
                "assets": [
                    {
                        "address": "0x9a005c9a89bd72a4bd27721e7a09a3c11d2b03c4",
                        "amount": "387.076425288",
                        "iconUrl": "https://assets.blocksec.com/icon/663701ec4c3df38f1e87a212973dc3e9a59230cce0c1b1b98da9e0c0c5545e57.png",
                        "isERC1155": false,
                        "isERC721": false,
                        "sign": false,
                        "value": ""
                    }
                ]
            },
            {
                "account": "0x2ea626b4f51e68abbebdea2621cbbc4aef2c925d",
                "assets": [
                    {
                        "address": "0x9a005c9a89bd72a4bd27721e7a09a3c11d2b03c4",
                        "amount": "387.076425288",
                        "iconUrl": "https://assets.blocksec.com/icon/663701ec4c3df38f1e87a212973dc3e9a59230cce0c1b1b98da9e0c0c5545e57.png",
                        "isERC1155": false,
                        "isERC721": false,
                        "sign": true,
                        "value": ""
                    }
                ]
            }
        ]
    },
    "profile": {
        "basic_info": {
            "baseFee": "",
            "blockNumber": 4900178,
            "callData": "0xa9059cbb0000000000000000000000002ea626b4f51e68abbebdea2621cbbc4aef2c925d000000000000000000000000000000000000000000000014fbc3b5fb0b44d000",
            "debugEnable": true,
            "errorInfo": "",
            "eventCount": 1,
            "feeRecipient": "0xea674fdde714fd979de3edf0f56aa9716b898ec8",
            "formatValue": "0",
            "gasLimit": 400000,
            "gasPrice": "40",
            "gasUsed": 52930,
            "intTxnCount": 0,
            "internalRevert": false,
            "internalRevertMessage": "",
            "isContractCreation": false,
            "isFlashloan": false,
            "maxFee": "",
            "nonce": 153,
            "overwritedBlockNumber": -1,
            "priorityFee": "",
            "receiver": "0x9a005c9a89bd72a4bd27721e7a09a3c11d2b03c4",
            "revertMessage": "",
            "sender": "0xc013442d0a21db112cda16b3770572f0d379ff14",
            "simulationEnable": true,
            "sourceTxnHash": "0xfd11d7244239628ce49db1c18f6cfb896d20af66b333a74a99d2d13737b7080f",
            "status": true,
            "timestamp": "2018-01-13T06:33:43Z",
            "transactionFee": "0.0021172",
            "txnHash": "0xfd11d7244239628ce49db1c18f6cfb896d20af66b333a74a99d2d13737b7080f",
            "txnIndex": 228,
            "type": 0,
            "value": "0"
        },
        "fund_flow": [
            {
                "amount": "387.076425288",
                "from": "0xc013442d0a21db112cda16b3770572f0d379ff14",
                "id": 1,
                "isERC1155": false,
                "isERC721": false,
                "isReverted": false,
                "order": 1,
                "to": "0x2ea626b4f51e68abbebdea2621cbbc4aef2c925d",
                "token": "0x9a005c9a89bd72a4bd27721e7a09a3c11d2b03c4"
            }
        ],
        "token_infos": [
            {
                "address": "0x9a005c9a89bd72a4bd27721e7a09a3c11d2b03c4",
                "decimals": 18
            },
            {
                "address": "0xc02aaa39b223fe8d0a0e5c4f27ead9083c756cc2",
                "decimals": 18
            },
            {
                "address": "0xeeeeeeeeeeeeeeeeeeeeeeeeeeeeeeeeeeeeeeee",
                "decimals": 18
            }
        ]
    },
    "address_label": {
        "labels": [
            {
                "address": "0x0000000000000000000000000000000000000002",
                "label": "Precompiled"
            },
            {
                "address": "0x0000000000000000000000000000000000000003",
                "label": "Precompiled"
            },
            {
                "address": "0x0000000000000000000000000000000000000004",
                "label": "Precompiled"
            },
            {
                "address": "0xeeeeeeeeeeeeeeeeeeeeeeeeeeeeeeeeeeeeeeee",
                "label": "Ether"
            },
            {
                "address": "0x9a005c9a89bd72a4bd27721e7a09a3c11d2b03c4",
                "label": "StarterCoin: STAC Token"
            },
            {
                "address": "0x0000000000000000000000000000000000000001",
                "label": "Precompiled"
            }
        ]
    },
    "trace": {
        "accountLabels": null,
        "dataMap": {
            "-1": {
                "invocation": {
                    "address": "0xc013442d0a21db112cda16b3770572f0d379ff14",
                    "callData": "",
                    "decodedMethod": null,
                    "errorInfo": "",
                    "fromAddress": "",
                    "gasUsed": 0,
                    "id": -1,
                    "methodDecoded": false,
                    "operation": "",
                    "output": "",
                    "revert": false,
                    "revertMessage": "",
                    "selector": "",
                    "status": false,
                    "value": ""
                },
                "nodeType": 0
            },
            "0": {
                "invocation": {
                    "address": "0x9a005c9a89bd72a4bd27721e7a09a3c11d2b03c4",
                    "callData": "0x0000000000000000000000002ea626b4f51e68abbebdea2621cbbc4aef2c925d000000000000000000000000000000000000000000000014fbc3b5fb0b44d000",
                    "decodedMethod": {
                        "callParams": [
                            {
                                "name": "_to",
                                "type": "address",
                                "value": "0x2ea626b4f51e68abbebdea2621cbbc4aef2c925d"
                            },
                            {
                                "decimalAvailable": true,
                                "name": "_value",
                                "type": "uint256",
                                "value": "387,076,425,288,000,000,000"
                            }
                        ],
                        "constructorArguments": "",
                        "name": "transfer",
                        "returnParams": [
                            {
                                "name": "",
                                "type": "bool",
                                "value": true
                            }
                        ],
                        "signature": "transfer(address,uint256)"
                    },
                    "errorInfo": "",
                    "fromAddress": "0xc013442d0a21db112cda16b3770572f0d379ff14",
                    "gasUsed": 52930,
                    "id": 0,
                    "methodDecoded": true,
                    "operation": "CALL",
                    "output": "0x0000000000000000000000000000000000000000000000000000000000000001",
                    "revert": false,
                    "revertMessage": "",
                    "selector": "0xa9059cbb",
                    "status": true,
                    "value": "0"
                },
                "nodeType": 0
            },
            "1": {
                "event": {
                    "contract": "0x9a005c9a89bd72a4bd27721e7a09a3c11d2b03c4",
                    "decodedLog": {
                        "name": "Transfer",
                        "params": [
                            {
                                "name": "from",
                                "type": "address",
                                "value": "0xc013442d0a21db112cda16b3770572f0d379ff14"
                            },
                            {
                                "name": "to",
                                "type": "address",
                                "value": "0x2ea626b4f51e68abbebdea2621cbbc4aef2c925d"
                            },
                            {
                                "decimalAvailable": true,
                                "name": "value",
                                "type": "uint256",
                                "value": "387,076,425,288,000,000,000"
                            }
                        ],
                        "signature": "Transfer(address,address,uint256)"
                    },
                    "id": 1,
                    "logData": "0x000000000000000000000000000000000000000000000014fbc3b5fb0b44d000",
                    "logDecoded": true,
                    "operation": "EVENT",
                    "revert": false,
                    "status": true,
                    "topics": [
                        "0xddf252ad1be2c89b69c2b068fc378daa952ba7f163c4a11628f55a4df523b3ef",
                        "0x000000000000000000000000c013442d0a21db112cda16b3770572f0d379ff14",
                        "0x0000000000000000000000002ea626b4f51e68abbebdea2621cbbc4aef2c925d"
                    ]
                },
                "nodeType": 1
            }
        },
        "gasFlame": [
            {
                "children": [
                    {
                        "children": [
                            {
                                "children": [],
                                "depth": 0,
                                "name": "Initial Gas",
                                "value": 23320
                            },
                            {
                                "children": [],
                                "depth": 0,
                                "name": "Executed Gas",
                                "value": 29610
                            }
                        ],
                        "depth": -1,
                        "name": "Actual Gas Used",
                        "value": 52930
                    },
                    {
                        "children": [],
                        "depth": -1,
                        "name": "Refunded Gas",
                        "value": 0
                    }
                ],
                "depth": -2,
                "name": "Total Gas",
                "value": 52930
            }
        ],
        "isConfirmed": true,
        "mainTrace": [
            {
                "children": [
                    {
                        "children": [
                            {
                                "children": [],
                                "depth": 1,
                                "id": 1,
                                "order": 1
                            }
                        ],
                        "depth": 0,
                        "id": 0,
                        "order": 0
                    }
                ],
                "depth": -1,
                "id": -1,
                "order": -1
            }
        ],
        "mainTraceNodeCount": 2,
        "parentIdMap": {
            "0": -1,
            "1": 0
        },
        "tidyTrace": [
            {
                "children": [
                    {
                        "children": [
                            {
                                "children": [],
                                "depth": 1,
                                "id": 1,
                                "order": 1
                            }
                        ],
                        "depth": 0,
                        "id": 0,
                        "order": 0
                    }
                ],
                "depth": -1,
                "id": -1,
                "order": -1
            }
        ],
        "tidyTraceNodeCount": 2
    },
    "state_change": {
        "stateChanges": [
            {
                "address": "0x9a005c9a89bd72a4bd27721e7a09a3c11d2b03c4",
                "erc": "ERC-20",
                "slots": [
                    {
                        "current": "0x000000000000000000000000000000000000000000000014fbc3b5fb0b44d000",
                        "key": "0xc19c762916549a9d9fa16ce70d7765e03decaa99024c358e74fddd4c79c9366b",
                        "prev": "0x0000000000000000000000000000000000000000000000000000000000000000"
                    },
                    {
                        "current": "0x0000000000000000000000000000000000000000003f25cdc111a1ce002e0200",
                        "key": "0xa90344c0d0f3396ff9eb442f94415a8a6b7986eae2d9605841aadb78a17e0516",
                        "prev": "0x0000000000000000000000000000000000000000003f25e2bcd557c90b72d200"
                    }
                ],
                "storageVariables": [
                    {
                        "name": "balances",
                        "type": "mapping(address => uint256)",
                        "value": {
                            "pairs": [
                                {
                                    "key": "0x2ea626b4f51e68abbebdea2621cbbc4aef2c925d",
                                    "value": {
                                        "current": "387076425288000000000",
                                        "prev": "0",
                                        "typeTag": 1
                                    }
                                },
                                {
                                    "key": "0xc013442d0a21db112cda16b3770572f0d379ff14",
                                    "value": {
                                        "current": "76340849690201555400000000",
                                        "prev": "76341236766626843400000000",
                                        "typeTag": 1
                                    }
                                }
                            ],
                            "typeTag": 4
                        }
                    }
                ]
            }
        ]
    }
}