{
    "balance_change": {
        "balanceChanges": []
    },
    "profile": {
        "basic_info": {
            "baseFee": "10.438595911",
            "blockNumber": 20177066,
            "callData": "0x095ea7b3000000000000000000000000888888888889758f76e7103c6cbf23abbf58f94600000000000000000000000000000000000000000000000024719fdcbfac9f7d",
            "debugEnable": true,
            "errorInfo": "",
            "eventCount": 1,
            "feeRecipient": "0x4838b106fce9647bdf1e7877bf73ce8b0bad5f97",
            "formatValue": "0",
            "gasLimit": 46431,
            "gasPrice": "11.610959279",
            "gasUsed": 46049,
            "intTxnCount": 0,
            "internalRevert": false,
            "internalRevertMessage": "",
            "isContractCreation": false,
            "isFlashloan": false,
            "maxFee": "16.162390054",
            "nonce": 80,
            "overwritedBlockNumber": -1,
            "priorityFee": "1.172363368",
            "receiver": "0x4f43c77872db6ba177c270986cd30c3381af37ee",
            "revertMessage": "",
            "sender": "0x8a6343f3534287369e4927847f6b1d6192edeafd",
            "simulationEnable": true,
            "sourceTxnHash": "0xfd74acee87d9f2a0cb8ee0e75f5a472deab8c0236fb7cfe16f650e4641d59437",
            "status": true,
            "timestamp": "2024-06-26T16:30:11Z",
            "transactionFee": "0.000534673063838671",
            "txnHash": "0xfd74acee87d9f2a0cb8ee0e75f5a472deab8c0236fb7cfe16f650e4641d59437",
            "txnIndex": 80,
            "type": 2,
            "value": "0"
        },
        "fund_flow": [],
        "token_infos": [
            {
                "address": "0xeeeeeeeeeeeeeeeeeeeeeeeeeeeeeeeeeeeeeeee",
                "decimals": 18
            },
            {
                "address": "0xc02aaa39b223fe8d0a0e5c4f27ead9083c756cc2",
                "decimals": 18
            }
        ]
    },
    "address_label": {
        "labels": [
            {
                "address": "0x0000000000000000000000000000000000000004",
                "label": "Precompiled"
            },
            {
                "address": "0xeeeeeeeeeeeeeeeeeeeeeeeeeeeeeeeeeeeeeeee",
                "label": "Ether"
            },
            {
                "address": "0x888888888889758f76e7103c6cbf23abbf58f946",
                "label": "Pendle: RouterV4"
            },
            {
                "address": "0x4f43c77872db6ba177c270986cd30c3381af37ee",
                "label": "Pendle: PT-rsETH-27JUN24 /SY-rsETH Market Token"
            },
            {
                "address": "0x0000000000000000000000000000000000000001",
                "label": "Precompiled"
            },
            {
                "address": "0x0000000000000000000000000000000000000002",
                "label": "Precompiled"
            },
            {
                "address": "0x0000000000000000000000000000000000000003",
                "label": "Precompiled"
            }
        ]
    },
    "trace": {
        "accountLabels": null,
        "dataMap": {
            "-1": {
                "invocation": {
                    "address": "0x8a6343f3534287369e4927847f6b1d6192edeafd",
                    "callData": "",
                    "decodedMethod": null,
                    "errorInfo": "",
                    "fromAddress": "",
                    "gasUsed": 0,
                    "id": -1,
                    "methodDecoded": false,
                    "operation": "",
                    "output": "",
                    "revert": false,
                    "revertMessage": "",
                    "selector": "",
                    "status": false,
                    "value": ""
                },
                "nodeType": 0
            },
            "0": {
                "invocation": {
                    "address": "0x4f43c77872db6ba177c270986cd30c3381af37ee",
                    "callData": "0x000000000000000000000000888888888889758f76e7103c6cbf23abbf58f94600000000000000000000000000000000000000000000000024719fdcbfac9f7d",
                    "decodedMethod": {
                        "callParams": [
                            {
                                "name": "spender",
                                "type": "address",
                                "value": "0x888888888889758f76e7103c6cbf23abbf58f946"
                            },
                            {
                                "decimalAvailable": true,
                                "name": "amount",
                                "type": "uint256",
                                "value": "2,626,055,828,191,092,605"
                            }
                        ],
                        "constructorArguments": "",
                        "name": "approve",
                        "returnParams": [
                            {
                                "name": "",
                                "type": "bool",
                                "value": true
                            }
                        ],
                        "signature": "approve(address,uint256)"
                    },
                    "errorInfo": "",
                    "fromAddress": "0x8a6343f3534287369e4927847f6b1d6192edeafd",
                    "gasUsed": 46049,
                    "id": 0,
                    "methodDecoded": true,
                    "operation": "CALL",
                    "output": "0x0000000000000000000000000000000000000000000000000000000000000001",
                    "revert": false,
                    "revertMessage": "",
                    "selector": "0x095ea7b3",
                    "status": true,
                    "value": "0"
                },
                "nodeType": 0
            },
            "1": {
                "event": {
                    "contract": "0x4f43c77872db6ba177c270986cd30c3381af37ee",
                    "decodedLog": {
                        "name": "Approval",
                        "params": [
                            {
                                "name": "owner",
                                "type": "address",
                                "value": "0x8a6343f3534287369e4927847f6b1d6192edeafd"
                            },
                            {
                                "name": "spender",
                                "type": "address",
                                "value": "0x888888888889758f76e7103c6cbf23abbf58f946"
                            },
                            {
                                "decimalAvailable": true,
                                "name": "value",
                                "type": "uint256",
                                "value": "2,626,055,828,191,092,605"
                            }
                        ],
                        "signature": "Approval(address,address,uint256)"
                    },
                    "id": 1,
                    "logData": "0x00000000000000000000000000000000000000000000000024719fdcbfac9f7d",
                    "logDecoded": true,
                    "operation": "EVENT",
                    "revert": false,
                    "status": true,
                    "topics": [
                        "0x8c5be1e5ebec7d5bd14f71427d1e84f3dd0314c0f7b2291e5b200ac8c7c3b925",
                        "0x0000000000000000000000008a6343f3534287369e4927847f6b1d6192edeafd",
                        "0x000000000000000000000000888888888889758f76e7103c6cbf23abbf58f946"
                    ]
                },
                "nodeType": 1
            }
        },
        "gasFlame": [
            {
                "children": [
                    {
                        "children": [
                            {
                                "children": [],
                                "depth": 0,
                                "name": "Initial Gas",
                                "value": 21656
                            },
                            {
                                "children": [],
                                "depth": 0,
                                "name": "Executed Gas",
                                "value": 24393
                            }
                        ],
                        "depth": -1,
                        "name": "Actual Gas Used",
                        "value": 46049
                    },
                    {
                        "children": [],
                        "depth": -1,
                        "name": "Refunded Gas",
                        "value": 0
                    }
                ],
                "depth": -2,
                "name": "Total Gas",
                "value": 46049
            }
        ],
        "isConfirmed": true,
        "mainTrace": [
            {
                "children": [
                    {
                        "children": [
                            {
                                "children": [],
                                "depth": 1,
                                "id": 1,
                                "order": 1
                            }
                        ],
                        "depth": 0,
                        "id": 0,
                        "order": 0
                    }
                ],
                "depth": -1,
                "id": -1,
                "order": -1
            }
        ],
        "mainTraceNodeCount": 2,
        "parentIdMap": {
            "0": -1,
            "1": 0
        },
        "tidyTrace": [
            {
                "children": [
                    {
                        "children": [
                            {
                                "children": [],
                                "depth": 1,
                                "id": 1,
                                "order": 1
                            }
                        ],
                        "depth": 0,
                        "id": 0,
                        "order": 0
                    }
                ],
                "depth": -1,
                "id": -1,
                "order": -1
            }
        ],
        "tidyTraceNodeCount": 2
    },
    "state_change": {
        "stateChanges": [
            {
                "address": "0x4f43c77872db6ba177c270986cd30c3381af37ee",
                "erc": "",
                "slots": [
                    {
                        "current": "0x00000000000000000000000000000000000000000000000024719fdcbfac9f7d",
                        "key": "0x5335d501c04d0eabb4930ca947894e89aef2b07da2359e2a05dcce5c2eae77e8",
                        "prev": "0x0000000000000000000000000000000000000000000000000000000000000000"
                    }
                ],
                "storageVariables": []
            }
        ]
    }
}