{
    "balance_change": {
        "balanceChanges": [
            {
                "account": "0x00db854ed1366f73d28dd89a85c9e481ddd85328",
                "assets": [
                    {
                        "address": "0xc02aaa39b223fe8d0a0e5c4f27ead9083c756cc2",
                        "amount": "0.015750933542681755",
                        "iconUrl": "https://assets.blocksec.com/icon/f1cb2d02c471d545bbc7722daf3277fd852d98e63d118771af7047bd8256c516.png",
                        "isERC1155": false,
                        "isERC721": false,
                        "sign": true,
                        "value": "40.40815119"
                    },
                    {
                        "address": "0xf4d2888d29d722226fafa5d9b24f9164c092421e",
                        "amount": "2,314.021673253856511872",
                        "iconUrl": "",
                        "isERC1155": false,
                        "isERC721": false,
                        "sign": true,
                        "value": "2206.369341"
                    }
                ]
            },
            {
                "account": "0xbcd7254a1d759efa08ec7c3291b2e85c5dcc12ce",
                "assets": [
                    {
                        "address": "0xc02aaa39b223fe8d0a0e5c4f27ead9083c756cc2",
                        "amount": "0.015750933542681755",
                        "iconUrl": "https://assets.blocksec.com/icon/f1cb2d02c471d545bbc7722daf3277fd852d98e63d118771af7047bd8256c516.png",
                        "isERC1155": false,
                        "isERC721": false,
                        "sign": false,
                        "value": "40.40815119"
                    }
                ]
            },
            {
                "account": "0x0000000000000000000000000000000000000000",
                "assets": [
                    {
                        "address": "0xf4d2888d29d722226fafa5d9b24f9164c092421e",
                        "amount": "1,520",
                        "iconUrl": "",
                        "isERC1155": false,
                        "isERC721": false,
                        "sign": false,
                        "value": "1449.990206"
                    }
                ]
            },
            {
                "account": "0x465a790b428268196865a3ae2648481ad7e0d3b1",
                "assets": [
                    {
                        "address": "0xf4d2888d29d722226fafa5d9b24f9164c092421e",
                        "amount": "1,954.921673253856511871",
                        "iconUrl": "",
                        "isERC1155": false,
                        "isERC721": false,
                        "sign": false,
                        "value": "1864.384251"
                    }
                ]
            },
            {
                "account": "0xfec3069df398faaf689c559151e41fa8036c8203",
                "assets": [
                    {
                        "address": "0xf4d2888d29d722226fafa5d9b24f9164c092421e",
                        "amount": "1,160.9",
                        "iconUrl": "",
                        "isERC1155": false,
                        "isERC721": false,
                        "sign": true,
                        "value": "1107.673104"
                    }
                ]
            }
        ]
    },
    "profile": {
        "basic_info": {
            "baseFee": "34.055626465",
            "blockNumber": 14368476,
            "callData": "0x1c1c6fe50000000000000000000000000000000000000000000000000000000000000001",
            "debugEnable": true,
            "errorInfo": "",
            "eventCount": 8,
            "feeRecipient": "0x829bd824b016326a401d083b33d092293333a830",
            "formatValue": "0",
            "gasLimit": 300000,
            "gasPrice": "35.555626465",
            "gasUsed": 197223,
            "intTxnCount": 8,
            "internalRevert": false,
            "internalRevertMessage": "",
            "isContractCreation": false,
            "isFlashloan": false,
            "maxFee": "42.667695537",
            "nonce": 353,
            "overwritedBlockNumber": -1,
            "priorityFee": "1.5",
            "receiver": "0xbcd7254a1d759efa08ec7c3291b2e85c5dcc12ce",
            "revertMessage": "",
            "sender": "0x00db854ed1366f73d28dd89a85c9e481ddd85328",
            "simulationEnable": true,
            "sourceTxnHash": "0xfd39de8875fe26f61ac5175c8f7208cc78f89fa7802366c608db5514640cc932",
            "status": true,
            "timestamp": "2022-03-11T23:39:46Z",
            "transactionFee": "0.007012387318306695",
            "txnHash": "0xfd39de8875fe26f61ac5175c8f7208cc78f89fa7802366c608db5514640cc932",
            "txnIndex": 18,
            "type": 2,
            "value": "0"
        },
        "fund_flow": [
            {
                "amount": "359.1",
                "from": "0x0000000000000000000000000000000000000000",
                "id": 1,
                "isERC1155": false,
                "isERC721": false,
                "isReverted": false,
                "order": 1,
                "to": "0x465a790b428268196865a3ae2648481ad7e0d3b1",
                "token": "0xf4d2888d29d722226fafa5d9b24f9164c092421e"
            },
            {
                "amount": "1,160.9",
                "from": "0x0000000000000000000000000000000000000000",
                "id": 2,
                "isERC1155": false,
                "isERC721": false,
                "isReverted": false,
                "order": 2,
                "to": "0xfec3069df398faaf689c559151e41fa8036c8203",
                "token": "0xf4d2888d29d722226fafa5d9b24f9164c092421e"
            },
            {
                "amount": "2,314.021673253856511872",
                "from": "0x465a790b428268196865a3ae2648481ad7e0d3b1",
                "id": 3,
                "isERC1155": false,
                "isERC721": false,
                "isReverted": false,
                "order": 3,
                "to": "0xbcd7254a1d759efa08ec7c3291b2e85c5dcc12ce",
                "token": "0xf4d2888d29d722226fafa5d9b24f9164c092421e"
            },
            {
                "amount": "0.015750933542681755",
                "from": "0xbcd7254a1d759efa08ec7c3291b2e85c5dcc12ce",
                "id": 4,
                "isERC1155": false,
                "isERC721": false,
                "isReverted": false,
                "order": 4,
                "to": "0x00db854ed1366f73d28dd89a85c9e481ddd85328",
                "token": "0xc02aaa39b223fe8d0a0e5c4f27ead9083c756cc2"
            },
            {
                "amount": "2,314.021673253856511872",
                "from": "0xbcd7254a1d759efa08ec7c3291b2e85c5dcc12ce",
                "id": 5,
                "isERC1155": false,
                "isERC721": false,
                "isReverted": false,
                "order": 5,
                "to": "0x00db854ed1366f73d28dd89a85c9e481ddd85328",
                "token": "0xf4d2888d29d722226fafa5d9b24f9164c092421e"
            }
        ],
        "token_infos": [
            {
                "address": "0xc02aaa39b223fe8d0a0e5c4f27ead9083c756cc2",
                "decimals": 18
            },
            {
                "address": "0xf4d2888d29d722226fafa5d9b24f9164c092421e",
                "decimals": 18
            },
            {
                "address": "0xeeeeeeeeeeeeeeeeeeeeeeeeeeeeeeeeeeeeeeee",
                "decimals": 18
            }
        ]
    },
    "address_label": {
        "labels": [
            {
                "address": "0xeeeeeeeeeeeeeeeeeeeeeeeeeeeeeeeeeeeeeeee",
                "label": "Ether"
            },
            {
                "address": "0x0000000000000000000000000000000000000001",
                "label": "Precompiled"
            },
            {
                "address": "0x0000000000000000000000000000000000000003",
                "label": "Precompiled"
            },
            {
                "address": "0xc02aaa39b223fe8d0a0e5c4f27ead9083c756cc2",
                "label": "Wrapped Ether (WETH)"
            },
            {
                "address": "0x465a790b428268196865a3ae2648481ad7e0d3b1",
                "label": "LooksRare: Token Distributor"
            },
            {
                "address": "0xbcd7254a1d759efa08ec7c3291b2e85c5dcc12ce",
                "label": "LooksRare: Fee Sharing"
            },
            {
                "address": "0xfec3069df398faaf689c559151e41fa8036c8203",
                "label": "LooksRare: Token Splitter"
            },
            {
                "address": "0xf4d2888d29d722226fafa5d9b24f9164c092421e",
                "label": "LooksRare: LOOKS Token"
            },
            {
                "address": "0x0000000000000000000000000000000000000002",
                "label": "Precompiled"
            },
            {
                "address": "0x0000000000000000000000000000000000000004",
                "label": "Precompiled"
            }
        ]
    },
    "trace": {
        "accountLabels": null,
        "dataMap": {
            "-1": {
                "invocation": {
                    "address": "0x00db854ed1366f73d28dd89a85c9e481ddd85328",
                    "callData": "",
                    "decodedMethod": null,
                    "errorInfo": "",
                    "fromAddress": "",
                    "gasUsed": 0,
                    "id": -1,
                    "methodDecoded": false,
                    "operation": "",
                    "output": "",
                    "revert": false,
                    "revertMessage": "",
                    "selector": "",
                    "status": false,
                    "value": ""
                },
                "nodeType": 0
            },
            "0": {
                "invocation": {
                    "address": "0xbcd7254a1d759efa08ec7c3291b2e85c5dcc12ce",
                    "callData": "0x0000000000000000000000000000000000000000000000000000000000000001",
                    "decodedMethod": {
                        "callParams": [
                            {
                                "name": "claimRewardToken",
                                "type": "bool",
                                "value": true
                            }
                        ],
                        "constructorArguments": "",
                        "name": "withdrawAll",
                        "returnParams": [],
                        "signature": "withdrawAll(bool)"
                    },
                    "errorInfo": "",
                    "fromAddress": "0x00db854ed1366f73d28dd89a85c9e481ddd85328",
                    "gasUsed": 197223,
                    "id": 0,
                    "methodDecoded": true,
                    "operation": "CALL",
                    "output": "",
                    "revert": false,
                    "revertMessage": "",
                    "selector": "0x1c1c6fe5",
                    "status": true,
                    "value": "0"
                },
                "nodeType": 0
            },
            "1": {
                "invocation": {
                    "address": "0x465a790b428268196865a3ae2648481ad7e0d3b1",
                    "callData": "0x",
                    "decodedMethod": {
                        "callParams": [],
                        "constructorArguments": "",
                        "name": "harvestAndCompound",
                        "returnParams": [],
                        "signature": "harvestAndCompound()"
                    },
                    "errorInfo": "",
                    "fromAddress": "0xbcd7254a1d759efa08ec7c3291b2e85c5dcc12ce",
                    "gasUsed": 67560,
                    "id": 1,
                    "methodDecoded": true,
                    "operation": "CALL",
                    "output": "",
                    "revert": false,
                    "revertMessage": "",
                    "selector": "0x2a4e051b",
                    "status": true,
                    "value": "0"
                },
                "nodeType": 0
            },
            "10": {
                "event": {
                    "contract": "0xf4d2888d29d722226fafa5d9b24f9164c092421e",
                    "decodedLog": {
                        "name": "Transfer",
                        "params": [
                            {
                                "name": "from",
                                "type": "address",
                                "value": "0x465a790b428268196865a3ae2648481ad7e0d3b1"
                            },
                            {
                                "name": "to",
                                "type": "address",
                                "value": "0xbcd7254a1d759efa08ec7c3291b2e85c5dcc12ce"
                            },
                            {
                                "decimalAvailable": true,
                                "name": "value",
                                "type": "uint256",
                                "value": "2,314,021,673,253,856,511,871"
                            }
                        ],
                        "signature": "Transfer(address,address,uint256)"
                    },
                    "id": 10,
                    "logData": "0x00000000000000000000000000000000000000000000007d7180739cb326877f",
                    "logDecoded": true,
                    "operation": "EVENT",
                    "revert": false,
                    "status": true,
                    "topics": [
                        "0xddf252ad1be2c89b69c2b068fc378daa952ba7f163c4a11628f55a4df523b3ef",
                        "0x000000000000000000000000465a790b428268196865a3ae2648481ad7e0d3b1",
                        "0x000000000000000000000000bcd7254a1d759efa08ec7c3291b2e85c5dcc12ce"
                    ]
                },
                "nodeType": 1
            },
            "11": {
                "event": {
                    "contract": "0x465a790b428268196865a3ae2648481ad7e0d3b1",
                    "decodedLog": {
                        "name": "Withdraw",
                        "params": [
                            {
                                "name": "user",
                                "type": "address",
                                "value": "0xbcd7254a1d759efa08ec7c3291b2e85c5dcc12ce"
                            },
                            {
                                "name": "amount",
                                "type": "uint256",
                                "value": "2,314,021,673,253,856,511,871"
                            },
                            {
                                "name": "harvestedAmount",
                                "type": "uint256",
                                "value": "0"
                            }
                        ],
                        "signature": "Withdraw(address,uint256,uint256)"
                    },
                    "id": 11,
                    "logData": "0x00000000000000000000000000000000000000000000007d7180739cb326877f0000000000000000000000000000000000000000000000000000000000000000",
                    "logDecoded": true,
                    "operation": "EVENT",
                    "revert": false,
                    "status": true,
                    "topics": [
                        "0xf279e6a1f5e320cca91135676d9cb6e44ca8a08c0b88342bcdb1144f6511b568",
                        "0x000000000000000000000000bcd7254a1d759efa08ec7c3291b2e85c5dcc12ce"
                    ]
                },
                "nodeType": 1
            },
            "12": {
                "invocation": {
                    "address": "0xc02aaa39b223fe8d0a0e5c4f27ead9083c756cc2",
                    "callData": "0x00000000000000000000000000db854ed1366f73d28dd89a85c9e481ddd853280000000000000000000000000000000000000000000000000037f563feb13c9b",
                    "decodedMethod": {
                        "callParams": [
                            {
                                "name": "dst",
                                "type": "address",
                                "value": "0x00db854ed1366f73d28dd89a85c9e481ddd85328"
                            },
                            {
                                "decimalAvailable": true,
                                "name": "wad",
                                "type": "uint256",
                                "value": "15,750,933,542,681,755"
                            }
                        ],
                        "constructorArguments": "",
                        "name": "transfer",
                        "returnParams": [
                            {
                                "name": "",
                                "type": "bool",
                                "value": true
                            }
                        ],
                        "signature": "transfer(address,uint256)"
                    },
                    "errorInfo": "",
                    "fromAddress": "0xbcd7254a1d759efa08ec7c3291b2e85c5dcc12ce",
                    "gasUsed": 29962,
                    "id": 12,
                    "methodDecoded": true,
                    "operation": "CALL",
                    "output": "0x0000000000000000000000000000000000000000000000000000000000000001",
                    "revert": false,
                    "revertMessage": "",
                    "selector": "0xa9059cbb",
                    "status": true,
                    "value": "0"
                },
                "nodeType": 0
            },
            "13": {
                "event": {
                    "contract": "0xc02aaa39b223fe8d0a0e5c4f27ead9083c756cc2",
                    "decodedLog": {
                        "name": "Transfer",
                        "params": [
                            {
                                "name": "src",
                                "type": "address",
                                "value": "0xbcd7254a1d759efa08ec7c3291b2e85c5dcc12ce"
                            },
                            {
                                "name": "dst",
                                "type": "address",
                                "value": "0x00db854ed1366f73d28dd89a85c9e481ddd85328"
                            },
                            {
                                "decimalAvailable": true,
                                "name": "wad",
                                "type": "uint256",
                                "value": "15,750,933,542,681,755"
                            }
                        ],
                        "signature": "Transfer(address,address,uint256)"
                    },
                    "id": 13,
                    "logData": "0x0000000000000000000000000000000000000000000000000037f563feb13c9b",
                    "logDecoded": true,
                    "operation": "EVENT",
                    "revert": false,
                    "status": true,
                    "topics": [
                        "0xddf252ad1be2c89b69c2b068fc378daa952ba7f163c4a11628f55a4df523b3ef",
                        "0x000000000000000000000000bcd7254a1d759efa08ec7c3291b2e85c5dcc12ce",
                        "0x00000000000000000000000000db854ed1366f73d28dd89a85c9e481ddd85328"
                    ]
                },
                "nodeType": 1
            },
            "14": {
                "invocation": {
                    "address": "0xf4d2888d29d722226fafa5d9b24f9164c092421e",
                    "callData": "0x00000000000000000000000000db854ed1366f73d28dd89a85c9e481ddd8532800000000000000000000000000000000000000000000007d7180739cb326877f",
                    "decodedMethod": {
                        "callParams": [
                            {
                                "name": "recipient",
                                "type": "address",
                                "value": "0x00db854ed1366f73d28dd89a85c9e481ddd85328"
                            },
                            {
                                "decimalAvailable": true,
                                "name": "amount",
                                "type": "uint256",
                                "value": "2,314,021,673,253,856,511,871"
                            }
                        ],
                        "constructorArguments": "",
                        "name": "transfer",
                        "returnParams": [
                            {
                                "name": "",
                                "type": "bool",
                                "value": true
                            }
                        ],
                        "signature": "transfer(address,uint256)"
                    },
                    "errorInfo": "",
                    "fromAddress": "0xbcd7254a1d759efa08ec7c3291b2e85c5dcc12ce",
                    "gasUsed": 25026,
                    "id": 14,
                    "methodDecoded": true,
                    "operation": "CALL",
                    "output": "0x0000000000000000000000000000000000000000000000000000000000000001",
                    "revert": false,
                    "revertMessage": "",
                    "selector": "0xa9059cbb",
                    "status": true,
                    "value": "0"
                },
                "nodeType": 0
            },
            "15": {
                "event": {
                    "contract": "0xf4d2888d29d722226fafa5d9b24f9164c092421e",
                    "decodedLog": {
                        "name": "Transfer",
                        "params": [
                            {
                                "name": "from",
                                "type": "address",
                                "value": "0xbcd7254a1d759efa08ec7c3291b2e85c5dcc12ce"
                            },
                            {
                                "name": "to",
                                "type": "address",
                                "value": "0x00db854ed1366f73d28dd89a85c9e481ddd85328"
                            },
                            {
                                "decimalAvailable": true,
                                "name": "value",
                                "type": "uint256",
                                "value": "2,314,021,673,253,856,511,871"
                            }
                        ],
                        "signature": "Transfer(address,address,uint256)"
                    },
                    "id": 15,
                    "logData": "0x00000000000000000000000000000000000000000000007d7180739cb326877f",
                    "logDecoded": true,
                    "operation": "EVENT",
                    "revert": false,
                    "status": true,
                    "topics": [
                        "0xddf252ad1be2c89b69c2b068fc378daa952ba7f163c4a11628f55a4df523b3ef",
                        "0x000000000000000000000000bcd7254a1d759efa08ec7c3291b2e85c5dcc12ce",
                        "0x00000000000000000000000000db854ed1366f73d28dd89a85c9e481ddd85328"
                    ]
                },
                "nodeType": 1
            },
            "16": {
                "event": {
                    "contract": "0xbcd7254a1d759efa08ec7c3291b2e85c5dcc12ce",
                    "decodedLog": {
                        "name": "Withdraw",
                        "params": [
                            {
                                "name": "user",
                                "type": "address",
                                "value": "0x00db854ed1366f73d28dd89a85c9e481ddd85328"
                            },
                            {
                                "name": "amount",
                                "type": "uint256",
                                "value": "2,314,021,673,253,856,511,871"
                            },
                            {
                                "name": "harvestedAmount",
                                "type": "uint256",
                                "value": "15,750,933,542,681,755"
                            }
                        ],
                        "signature": "Withdraw(address,uint256,uint256)"
                    },
                    "id": 16,
                    "logData": "0x00000000000000000000000000000000000000000000007d7180739cb326877f0000000000000000000000000000000000000000000000000037f563feb13c9b",
                    "logDecoded": true,
                    "operation": "EVENT",
                    "revert": false,
                    "status": true,
                    "topics": [
                        "0xf279e6a1f5e320cca91135676d9cb6e44ca8a08c0b88342bcdb1144f6511b568",
                        "0x00000000000000000000000000db854ed1366f73d28dd89a85c9e481ddd85328"
                    ]
                },
                "nodeType": 1
            },
            "2": {
                "invocation": {
                    "address": "0xf4d2888d29d722226fafa5d9b24f9164c092421e",
                    "callData": "0x000000000000000000000000465a790b428268196865a3ae2648481ad7e0d3b100000000000000000000000000000000000000000000001377837b681ac60000",
                    "decodedMethod": {
                        "callParams": [
                            {
                                "name": "account",
                                "type": "address",
                                "value": "0x465a790b428268196865a3ae2648481ad7e0d3b1"
                            },
                            {
                                "name": "amount",
                                "type": "uint256",
                                "value": "359,100,000,000,000,000,000"
                            }
                        ],
                        "constructorArguments": "",
                        "name": "mint",
                        "returnParams": [
                            {
                                "name": "status",
                                "type": "bool",
                                "value": true
                            }
                        ],
                        "signature": "mint(address,uint256)"
                    },
                    "errorInfo": "",
                    "fromAddress": "0x465a790b428268196865a3ae2648481ad7e0d3b1",
                    "gasUsed": 14981,
                    "id": 2,
                    "methodDecoded": true,
                    "operation": "CALL",
                    "output": "0x0000000000000000000000000000000000000000000000000000000000000001",
                    "revert": false,
                    "revertMessage": "",
                    "selector": "0x40c10f19",
                    "status": true,
                    "value": "0"
                },
                "nodeType": 0
            },
            "3": {
                "event": {
                    "contract": "0xf4d2888d29d722226fafa5d9b24f9164c092421e",
                    "decodedLog": {
                        "name": "Transfer",
                        "params": [
                            {
                                "name": "from",
                                "type": "address",
                                "value": "0x0000000000000000000000000000000000000000"
                            },
                            {
                                "name": "to",
                                "type": "address",
                                "value": "0x465a790b428268196865a3ae2648481ad7e0d3b1"
                            },
                            {
                                "decimalAvailable": true,
                                "name": "value",
                                "type": "uint256",
                                "value": "359,100,000,000,000,000,000"
                            }
                        ],
                        "signature": "Transfer(address,address,uint256)"
                    },
                    "id": 3,
                    "logData": "0x00000000000000000000000000000000000000000000001377837b681ac60000",
                    "logDecoded": true,
                    "operation": "EVENT",
                    "revert": false,
                    "status": true,
                    "topics": [
                        "0xddf252ad1be2c89b69c2b068fc378daa952ba7f163c4a11628f55a4df523b3ef",
                        "0x0000000000000000000000000000000000000000000000000000000000000000",
                        "0x000000000000000000000000465a790b428268196865a3ae2648481ad7e0d3b1"
                    ]
                },
                "nodeType": 1
            },
            "4": {
                "invocation": {
                    "address": "0xf4d2888d29d722226fafa5d9b24f9164c092421e",
                    "callData": "0x000000000000000000000000fec3069df398faaf689c559151e41fa8036c820300000000000000000000000000000000000000000000003eeeb94f49c6fa0000",
                    "decodedMethod": {
                        "callParams": [
                            {
                                "name": "account",
                                "type": "address",
                                "value": "0xfec3069df398faaf689c559151e41fa8036c8203"
                            },
                            {
                                "name": "amount",
                                "type": "uint256",
                                "value": "1,160,900,000,000,000,000,000"
                            }
                        ],
                        "constructorArguments": "",
                        "name": "mint",
                        "returnParams": [
                            {
                                "name": "status",
                                "type": "bool",
                                "value": true
                            }
                        ],
                        "signature": "mint(address,uint256)"
                    },
                    "errorInfo": "",
                    "fromAddress": "0x465a790b428268196865a3ae2648481ad7e0d3b1",
                    "gasUsed": 8181,
                    "id": 4,
                    "methodDecoded": true,
                    "operation": "CALL",
                    "output": "0x0000000000000000000000000000000000000000000000000000000000000001",
                    "revert": false,
                    "revertMessage": "",
                    "selector": "0x40c10f19",
                    "status": true,
                    "value": "0"
                },
                "nodeType": 0
            },
            "5": {
                "event": {
                    "contract": "0xf4d2888d29d722226fafa5d9b24f9164c092421e",
                    "decodedLog": {
                        "name": "Transfer",
                        "params": [
                            {
                                "name": "from",
                                "type": "address",
                                "value": "0x0000000000000000000000000000000000000000"
                            },
                            {
                                "name": "to",
                                "type": "address",
                                "value": "0xfec3069df398faaf689c559151e41fa8036c8203"
                            },
                            {
                                "decimalAvailable": true,
                                "name": "value",
                                "type": "uint256",
                                "value": "1,160,900,000,000,000,000,000"
                            }
                        ],
                        "signature": "Transfer(address,address,uint256)"
                    },
                    "id": 5,
                    "logData": "0x00000000000000000000000000000000000000000000003eeeb94f49c6fa0000",
                    "logDecoded": true,
                    "operation": "EVENT",
                    "revert": false,
                    "status": true,
                    "topics": [
                        "0xddf252ad1be2c89b69c2b068fc378daa952ba7f163c4a11628f55a4df523b3ef",
                        "0x0000000000000000000000000000000000000000000000000000000000000000",
                        "0x000000000000000000000000fec3069df398faaf689c559151e41fa8036c8203"
                    ]
                },
                "nodeType": 1
            },
            "6": {
                "event": {
                    "contract": "0x465a790b428268196865a3ae2648481ad7e0d3b1",
                    "decodedLog": {
                        "name": "Compound",
                        "params": [
                            {
                                "name": "user",
                                "type": "address",
                                "value": "0xbcd7254a1d759efa08ec7c3291b2e85c5dcc12ce"
                            },
                            {
                                "name": "harvestedAmount",
                                "type": "uint256",
                                "value": "359,099,755,768,944,358,843"
                            }
                        ],
                        "signature": "Compound(address,uint256)"
                    },
                    "id": 6,
                    "logData": "0x00000000000000000000000000000000000000000000001377829d47a17575bb",
                    "logDecoded": true,
                    "operation": "EVENT",
                    "revert": false,
                    "status": true,
                    "topics": [
                        "0x169f1815ebdea059aac3bb00ec9a9594c7a5ffcb64a17e8392b5d84909a14556",
                        "0x000000000000000000000000bcd7254a1d759efa08ec7c3291b2e85c5dcc12ce"
                    ]
                },
                "nodeType": 1
            },
            "7": {
                "invocation": {
                    "address": "0x465a790b428268196865a3ae2648481ad7e0d3b1",
                    "callData": "0x000000000000000000000000bcd7254a1d759efa08ec7c3291b2e85c5dcc12ce",
                    "decodedMethod": {
                        "callParams": [
                            {
                                "name": "",
                                "type": "address",
                                "value": "0xbcd7254a1d759efa08ec7c3291b2e85c5dcc12ce"
                            }
                        ],
                        "constructorArguments": "",
                        "name": "userInfo",
                        "returnParams": [
                            {
                                "name": "amount",
                                "type": "uint256",
                                "value": "258,711,425,088,733,242,726,591,224"
                            },
                            {
                                "name": "rewardDebt",
                                "type": "uint256",
                                "value": "103,399,951,939,474,597,570,839,109"
                            }
                        ],
                        "signature": "userInfo(address)"
                    },
                    "errorInfo": "",
                    "fromAddress": "0xbcd7254a1d759efa08ec7c3291b2e85c5dcc12ce",
                    "gasUsed": 679,
                    "id": 7,
                    "methodDecoded": true,
                    "operation": "STATICCALL",
                    "output": "0x000000000000000000000000000000000000000000d6004674d6b6b479e0aaf80000000000000000000000000000000000000000005587caa05aaf8fd6928245",
                    "revert": false,
                    "revertMessage": "",
                    "selector": "0x1959a002",
                    "status": true,
                    "value": "0"
                },
                "nodeType": 0
            },
            "8": {
                "invocation": {
                    "address": "0x465a790b428268196865a3ae2648481ad7e0d3b1",
                    "callData": "0x00000000000000000000000000000000000000000000007d7180739cb326877f",
                    "decodedMethod": {
                        "callParams": [
                            {
                                "name": "amount",
                                "type": "uint256",
                                "value": "2,314,021,673,253,856,511,871"
                            }
                        ],
                        "constructorArguments": "",
                        "name": "withdraw",
                        "returnParams": [],
                        "signature": "withdraw(uint256)"
                    },
                    "errorInfo": "",
                    "fromAddress": "0xbcd7254a1d759efa08ec7c3291b2e85c5dcc12ce",
                    "gasUsed": 16827,
                    "id": 8,
                    "methodDecoded": true,
                    "operation": "CALL",
                    "output": "",
                    "revert": false,
                    "revertMessage": "",
                    "selector": "0x2e1a7d4d",
                    "status": true,
                    "value": "0"
                },
                "nodeType": 0
            },
            "9": {
                "invocation": {
                    "address": "0xf4d2888d29d722226fafa5d9b24f9164c092421e",
                    "callData": "0x000000000000000000000000bcd7254a1d759efa08ec7c3291b2e85c5dcc12ce00000000000000000000000000000000000000000000007d7180739cb326877f",
                    "decodedMethod": {
                        "callParams": [
                            {
                                "name": "recipient",
                                "type": "address",
                                "value": "0xbcd7254a1d759efa08ec7c3291b2e85c5dcc12ce"
                            },
                            {
                                "decimalAvailable": true,
                                "name": "amount",
                                "type": "uint256",
                                "value": "2,314,021,673,253,856,511,871"
                            }
                        ],
                        "constructorArguments": "",
                        "name": "transfer",
                        "returnParams": [
                            {
                                "name": "",
                                "type": "bool",
                                "value": true
                            }
                        ],
                        "signature": "transfer(address,uint256)"
                    },
                    "errorInfo": "",
                    "fromAddress": "0x465a790b428268196865a3ae2648481ad7e0d3b1",
                    "gasUsed": 7926,
                    "id": 9,
                    "methodDecoded": true,
                    "operation": "CALL",
                    "output": "0x0000000000000000000000000000000000000000000000000000000000000001",
                    "revert": false,
                    "revertMessage": "",
                    "selector": "0xa9059cbb",
                    "status": true,
                    "value": "0"
                },
                "nodeType": 0
            }
        },
        "gasFlame": [
            {
                "children": [
                    {
                        "children": [
                            {
                                "children": [],
                                "depth": 0,
                                "name": "Initial Gas",
                                "value": 21204
                            },
                            {
                                "children": [
                                    {
                                        "children": [
                                            {
                                                "children": [],
                                                "depth": 2,
                                                "name": "mint",
                                                "value": 14981
                                            },
                                            {
                                                "children": [],
                                                "depth": 2,
                                                "name": "mint",
                                                "value": 8181
                                            }
                                        ],
                                        "depth": 1,
                                        "name": "harvestAndCompound",
                                        "value": 67560
                                    },
                                    {
                                        "children": [],
                                        "depth": 1,
                                        "name": "userInfo",
                                        "value": 679
                                    },
                                    {
                                        "children": [
                                            {
                                                "children": [],
                                                "depth": 2,
                                                "name": "transfer",
                                                "value": 7926
                                            }
                                        ],
                                        "depth": 1,
                                        "name": "withdraw",
                                        "value": 16827
                                    },
                                    {
                                        "children": [],
                                        "depth": 1,
                                        "name": "transfer",
                                        "value": 29962
                                    },
                                    {
                                        "children": [],
                                        "depth": 1,
                                        "name": "transfer",
                                        "value": 25026
                                    }
                                ],
                                "depth": 0,
                                "name": "Executed Gas",
                                "value": 211919
                            }
                        ],
                        "depth": -1,
                        "name": "Actual Gas Used",
                        "value": 197223
                    },
                    {
                        "children": [],
                        "depth": -1,
                        "name": "Refunded Gas",
                        "value": 35900
                    }
                ],
                "depth": -2,
                "name": "Total Gas",
                "value": 233123
            }
        ],
        "isConfirmed": true,
        "mainTrace": [
            {
                "children": [
                    {
                        "children": [
                            {
                                "children": [
                                    {
                                        "children": [
                                            {
                                                "children": [],
                                                "depth": 3,
                                                "id": 3,
                                                "order": 3
                                            }
                                        ],
                                        "depth": 2,
                                        "id": 2,
                                        "order": 2
                                    },
                                    {
                                        "children": [
                                            {
                                                "children": [],
                                                "depth": 3,
                                                "id": 5,
                                                "order": 5
                                            }
                                        ],
                                        "depth": 2,
                                        "id": 4,
                                        "order": 4
                                    },
                                    {
                                        "children": [],
                                        "depth": 2,
                                        "id": 6,
                                        "order": 6
                                    }
                                ],
                                "depth": 1,
                                "id": 1,
                                "order": 1
                            },
                            {
                                "children": [],
                                "depth": 1,
                                "id": 7,
                                "order": 7
                            },
                            {
                                "children": [
                                    {
                                        "children": [
                                            {
                                                "children": [],
                                                "depth": 3,
                                                "id": 10,
                                                "order": 10
                                            }
                                        ],
                                        "depth": 2,
                                        "id": 9,
                                        "order": 9
                                    },
                                    {
                                        "children": [],
                                        "depth": 2,
                                        "id": 11,
                                        "order": 11
                                    }
                                ],
                                "depth": 1,
                                "id": 8,
                                "order": 8
                            },
                            {
                                "children": [
                                    {
                                        "children": [],
                                        "depth": 2,
                                        "id": 13,
                                        "order": 13
                                    }
                                ],
                                "depth": 1,
                                "id": 12,
                                "order": 12
                            },
                            {
                                "children": [
                                    {
                                        "children": [],
                                        "depth": 2,
                                        "id": 15,
                                        "order": 15
                                    }
                                ],
                                "depth": 1,
                                "id": 14,
                                "order": 14
                            },
                            {
                                "children": [],
                                "depth": 1,
                                "id": 16,
                                "order": 16
                            }
                        ],
                        "depth": 0,
                        "id": 0,
                        "order": 0
                    }
                ],
                "depth": -1,
                "id": -1,
                "order": -1
            }
        ],
        "mainTraceNodeCount": 17,
        "parentIdMap": {
            "0": -1,
            "1": 0,
            "10": 9,
            "11": 8,
            "12": 0,
            "13": 12,
            "14": 0,
            "15": 14,
            "16": 0,
            "2": 1,
            "3": 2,
            "4": 1,
            "5": 4,
            "6": 1,
            "7": 0,
            "8": 0,
            "9": 8
        },
        "tidyTrace": [
            {
                "children": [
                    {
                        "children": [
                            {
                                "children": [
                                    {
                                        "children": [
                                            {
                                                "children": [],
                                                "depth": 3,
                                                "id": 3,
                                                "order": 3
                                            }
                                        ],
                                        "depth": 2,
                                        "id": 2,
                                        "order": 2
                                    },
                                    {
                                        "children": [
                                            {
                                                "children": [],
                                                "depth": 3,
                                                "id": 5,
                                                "order": 5
                                            }
                                        ],
                                        "depth": 2,
                                        "id": 4,
                                        "order": 4
                                    },
                                    {
                                        "children": [],
                                        "depth": 2,
                                        "id": 6,
                                        "order": 6
                                    }
                                ],
                                "depth": 1,
                                "id": 1,
                                "order": 1
                            },
                            {
                                "children": [
                                    {
                                        "children": [
                                            {
                                                "children": [],
                                                "depth": 3,
                                                "id": 10,
                                                "order": 10
                                            }
                                        ],
                                        "depth": 2,
                                        "id": 9,
                                        "order": 9
                                    },
                                    {
                                        "children": [],
                                        "depth": 2,
                                        "id": 11,
                                        "order": 11
                                    }
                                ],
                                "depth": 1,
                                "id": 8,
                                "order": 8
                            },
                            {
                                "children": [
                                    {
                                        "children": [],
                                        "depth": 2,
                                        "id": 13,
                                        "order": 13
                                    }
                                ],
                                "depth": 1,
                                "id": 12,
                                "order": 12
                            },
                            {
                                "children": [
                                    {
                                        "children": [],
                                        "depth": 2,
                                        "id": 15,
                                        "order": 15
                                    }
                                ],
                                "depth": 1,
                                "id": 14,
                                "order": 14
                            },
                            {
                                "children": [],
                                "depth": 1,
                                "id": 16,
                                "order": 16
                            }
                        ],
                        "depth": 0,
                        "id": 0,
                        "order": 0
                    }
                ],
                "depth": -1,
                "id": -1,
                "order": -1
            }
        ],
        "tidyTraceNodeCount": 16
    },
    "state_change": {
        "stateChanges": [
            {
                "address": "0x465a790b428268196865a3ae2648481ad7e0d3b1",
                "erc": "",
                "slots": [
                    {
                        "current": "0x0000000000000000000000000000000000000000000000000000005d0e5cda6d",
                        "key": "0x0000000000000000000000000000000000000000000000000000000000000001",
                        "prev": "0x0000000000000000000000000000000000000000000000000000005d0e47ac6b"
                    },
                    {
                        "current": "0x0000000000000000000000000000000000000000000000000000000000db3edc",
                        "key": "0x0000000000000000000000000000000000000000000000000000000000000004",
                        "prev": "0x0000000000000000000000000000000000000000000000000000000000db3ed8"
                    },
                    {
                        "current": "0x000000000000000000000000000000000000000000d5ffc903564317c6ba2379",
                        "key": "0x14d86d882020e7696234d76dd350cf0e83b51cfee9349fc784bcfe552a0ff997",
                        "prev": "0x000000000000000000000000000000000000000000d60032fd54196cd86b353d"
                    },
                    {
                        "current": "0x000000000000000000000000000000000000000000d5ffc903564317c6ba2379",
                        "key": "0x0000000000000000000000000000000000000000000000000000000000000007",
                        "prev": "0x000000000000000000000000000000000000000000d60032fd54196cd86b353d"
                    },
                    {
                        "current": "0x0000000000000000000000000000000000000000005587987d75024cc5a3f8a2",
                        "key": "0x14d86d882020e7696234d76dd350cf0e83b51cfee9349fc784bcfe552a0ff998",
                        "prev": "0x0000000000000000000000000000000000000000005587af6111e6b74a600f7e"
                    }
                ],
                "storageVariables": [
                    {
                        "name": "lastRewardBlock",
                        "type": "uint256",
                        "value": {
                            "current": "14368476",
                            "prev": "14368472",
                            "typeTag": 1
                        }
                    },
                    {
                        "name": "userInfo",
                        "type": "mapping(address => struct TokenDistributor.UserInfo)",
                        "value": {
                            "pairs": [
                                {
                                    "key": "0xbcd7254a1d759efa08ec7c3291b2e85c5dcc12ce",
                                    "value": {
                                        "fields": [
                                            {
                                                "name": "amount",
                                                "type": "uint256",
                                                "value": {
                                                    "current": "258709111067059988870079353",
                                                    "prev": "258711065988977473782232381",
                                                    "typeTag": 1
                                                }
                                            },
                                            {
                                                "name": "rewardDebt",
                                                "type": "uint256",
                                                "value": {
                                                    "current": "103399027087664441578485922",
                                                    "prev": "103399449317269152309710718",
                                                    "typeTag": 1
                                                }
                                            }
                                        ],
                                        "typeTag": 3
                                    }
                                }
                            ],
                            "typeTag": 4
                        }
                    },
                    {
                        "name": "totalAmountStaked",
                        "type": "uint256",
                        "value": {
                            "current": "258709111067059988870079353",
                            "prev": "258711065988977473782232381",
                            "typeTag": 1
                        }
                    },
                    {
                        "name": "accTokenPerShare",
                        "type": "uint256",
                        "value": {
                            "current": "399672924781",
                            "prev": "399671536747",
                            "typeTag": 1
                        }
                    }
                ]
            },
            {
                "address": "0xbcd7254a1d759efa08ec7c3291b2e85c5dcc12ce",
                "erc": "",
                "slots": [
                    {
                        "current": "0x00000000000000000000000000000000000000000000000000029bed00532183",
                        "key": "0xe301482c1290fd9d2e13dc8f0bccf30486a177582bbd9f1252e83c16ad453a8e",
                        "prev": "0x000000000000000000000000000000000000000000000000000292b182a4863d"
                    },
                    {
                        "current": "0x0000000000000000000000000000000000000000000000000000000000000000",
                        "key": "0xe301482c1290fd9d2e13dc8f0bccf30486a177582bbd9f1252e83c16ad453a8d",
                        "prev": "0x0000000000000000000000000000000000000000000000541d680cb564f4b179"
                    },
                    {
                        "current": "0x0000000000000000000000000000000000000000008f7ec06f2ad157f49d0262",
                        "key": "0x0000000000000000000000000000000000000000000000000000000000000007",
                        "prev": "0x0000000000000000000000000000000000000000008f7f148c92de0d5991b3db"
                    },
                    {
                        "current": "0x00000000000000000000000000000000000000000000000000029bed00532183",
                        "key": "0x0000000000000000000000000000000000000000000000000000000000000006",
                        "prev": "0x00000000000000000000000000000000000000000000000000029becb41b44dc"
                    },
                    {
                        "current": "0x0000000000000000000000000000000000000000000000000000000000db3edc",
                        "key": "0x0000000000000000000000000000000000000000000000000000000000000004",
                        "prev": "0x0000000000000000000000000000000000000000000000000000000000db3ed8"
                    }
                ],
                "storageVariables": [
                    {
                        "name": "totalShares",
                        "type": "uint256",
                        "value": {
                            "current": "173474960167040762441957986",
                            "prev": "173476511812500551944483803",
                            "typeTag": 1
                        }
                    },
                    {
                        "name": "rewardPerTokenStored",
                        "type": "uint256",
                        "value": {
                            "current": "734392168423811",
                            "prev": "734390889694428",
                            "typeTag": 1
                        }
                    },
                    {
                        "name": "lastUpdateBlock",
                        "type": "uint256",
                        "value": {
                            "current": "14368476",
                            "prev": "14368472",
                            "typeTag": 1
                        }
                    },
                    {
                        "name": "userInfo",
                        "type": "mapping(address => struct FeeSharingSystem.UserInfo)",
                        "value": {
                            "pairs": [
                                {
                                    "key": "0x00db854ed1366f73d28dd89a85c9e481ddd85328",
                                    "value": {
                                        "fields": [
                                            {
                                                "name": "shares",
                                                "type": "uint256",
                                                "value": {
                                                    "current": "0",
                                                    "prev": "1551645459789502525817",
                                                    "typeTag": 1
                                                }
                                            },
                                            {
                                                "name": "userRewardPerTokenPaid",
                                                "type": "uint256",
                                                "value": {
                                                    "current": "734392168423811",
                                                    "prev": "724241052108349",
                                                    "typeTag": 1
                                                }
                                            }
                                        ],
                                        "typeTag": 3
                                    }
                                }
                            ],
                            "typeTag": 4
                        }
                    }
                ]
            },
            {
                "address": "0xc02aaa39b223fe8d0a0e5c4f27ead9083c756cc2",
                "erc": "ERC-20",
                "slots": [
                    {
                        "current": "0x0000000000000000000000000000000000000000000002ef396a1dcfb685ed9e",
                        "key": "0xf7362064b6db789c967bf07b3e9393df17240956020e5e348a63d22774f5c36f",
                        "prev": "0x0000000000000000000000000000000000000000000002ef39a21333b5372a39"
                    },
                    {
                        "current": "0x0000000000000000000000000000000000000000000000000037f563feb13c9b",
                        "key": "0x4323a56d89cf967363da5bc56bf86a4a836e6f48f070c94f465718b2e04544b4",
                        "prev": "0x0000000000000000000000000000000000000000000000000000000000000000"
                    }
                ],
                "storageVariables": [
                    {
                        "name": "balanceOf",
                        "type": "mapping(address => uint256)",
                        "value": {
                            "pairs": [
                                {
                                    "key": "0x00db854ed1366f73d28dd89a85c9e481ddd85328",
                                    "value": {
                                        "current": "15750933542681755",
                                        "prev": "0",
                                        "typeTag": 1
                                    }
                                },
                                {
                                    "key": "0xbcd7254a1d759efa08ec7c3291b2e85c5dcc12ce",
                                    "value": {
                                        "current": "13857641951341524151710",
                                        "prev": "13857657702275066833465",
                                        "typeTag": 1
                                    }
                                }
                            ],
                            "typeTag": 4
                        }
                    }
                ]
            },
            {
                "address": "0xf4d2888d29d722226fafa5d9b24f9164c092421e",
                "erc": "ERC-20",
                "slots": [
                    {
                        "current": "0x000000000000000000000000000000000000000000d5ffc9bfe06695b1c4354c",
                        "key": "0xf9db3ec2cc649b37899e1cf8e82e082e6efc86880c0e0b9ef0761d4d2c4c2550",
                        "prev": "0x000000000000000000000000000000000000000000d60033b9dd5eca4a24bccb"
                    },
                    {
                        "current": "0x000000000000000000000000000000000000000001643b05e30de2c025000000",
                        "key": "0x0000000000000000000000000000000000000000000000000000000000000002",
                        "prev": "0x000000000000000000000000000000000000000001643ab37cd1180e43400000"
                    },
                    {
                        "current": "0x000000000000000000000000000000000000000000001eba907bb70628120000",
                        "key": "0x12bb8a29ddc78a92a9e173ed7ebcebf61f67802276dc0e4e233c9e6b55872ab2",
                        "prev": "0x000000000000000000000000000000000000000000001e7ba1c267bc61180000"
                    },
                    {
                        "current": "0x00000000000000000000000000000000000000000000007d7180739cb326877f",
                        "key": "0x8f9b0c8d51e55b31075675db8094b154cb18bbc902d14c30377afd2ae592f943",
                        "prev": "0x0000000000000000000000000000000000000000000000000000000000000000"
                    }
                ],
                "storageVariables": [
                    {
                        "name": "_balances",
                        "type": "mapping(address => uint256)",
                        "value": {
                            "pairs": [
                                {
                                    "key": "0x00db854ed1366f73d28dd89a85c9e481ddd85328",
                                    "value": {
                                        "current": "2314021673253856511871",
                                        "prev": "0",
                                        "typeTag": 1
                                    }
                                },
                                {
                                    "key": "0x465a790b428268196865a3ae2648481ad7e0d3b1",
                                    "value": {
                                        "current": "258709124652770238507791692",
                                        "prev": "258711079574443492364303563",
                                        "typeTag": 1
                                    }
                                },
                                {
                                    "key": "0xfec3069df398faaf689c559151e41fa8036c8203",
                                    "value": {
                                        "current": "145112500000000000000000",
                                        "prev": "143951600000000000000000",
                                        "typeTag": 1
                                    }
                                }
                            ],
                            "typeTag": 4
                        }
                    },
                    {
                        "name": "_totalSupply",
                        "type": "uint256",
                        "value": {
                            "current": "430656320000000000000000000",
                            "prev": "430654800000000000000000000",
                            "typeTag": 1
                        }
                    }
                ]
            }
        ]
    }
}