{
    "balance_change": {
        "balanceChanges": [
            {
                "account": "0x0000006daea1723962647b7e189d311d757fb793",
                "assets": [
                    {
                        "address": "0x1f573d6fb3f13d689ff844b4ce37794d79a7ff1c",
                        "amount": "5,572.39263110174343168",
                        "iconUrl": "https://assets.blocksec.com/icon/2134050168d6c4780030be02f0a6ca44fe9e3462a2cefed4fac3abde8839c5b0.png",
                        "isERC1155": false,
                        "isERC721": false,
                        "sign": false,
                        "value": "13862.68231"
                    },
                    {
                        "address": "0xf629cbd94d3791c9250152bd8dfbdf380e2a3b9c",
                        "amount": "7,392.929063633316698904",
                        "iconUrl": "https://assets.blocksec.com/icon/4e91198d1517bc4aa7bfb253e3110967513d2a17a9e3cad8d288a4806c405653.png",
                        "isERC1155": false,
                        "isERC721": false,
                        "sign": true,
                        "value": "14597.74644"
                    }
                ]
            },
            {
                "account": "0xfe42619e3f6547188e2ed10280176b9e4fae0c6c",
                "assets": [
                    {
                        "address": "0x1f573d6fb3f13d689ff844b4ce37794d79a7ff1c",
                        "amount": "5,572.39263110174343168",
                        "iconUrl": "https://assets.blocksec.com/icon/2134050168d6c4780030be02f0a6ca44fe9e3462a2cefed4fac3abde8839c5b0.png",
                        "isERC1155": false,
                        "isERC721": false,
                        "sign": true,
                        "value": "13862.68231"
                    },
                    {
                        "address": "0xf629cbd94d3791c9250152bd8dfbdf380e2a3b9c",
                        "amount": "7,392.929063633316698904",
                        "iconUrl": "https://assets.blocksec.com/icon/4e91198d1517bc4aa7bfb253e3110967513d2a17a9e3cad8d288a4806c405653.png",
                        "isERC1155": false,
                        "isERC721": false,
                        "sign": false,
                        "value": "14597.74644"
                    }
                ]
            }
        ]
    },
    "profile": {
        "basic_info": {
            "baseFee": "64.8323145",
            "blockNumber": 14149537,
            "callData": "0x178979ae000000000000000000000000000000370531eee8149ed162d387aad537899ac7000000000000000000000000000000000000000000000000000000000000000000000000000000000000000000000000000000000000000000000000000000600000000000000000000000000000000000000000000000000000000000000104b9d25b91000000000000000000000000000000000000000000000000000000000000008000000000000000000000000000000000000000000000012e147b862f7fc0000000000000000000000000000000000000000000000000018f67baf5c37e9000000000000000000000000000000000000000000000000000000000000061ff282700000000000000000000000000000000000000000000000000000000000000030000000000000000000000001f573d6fb3f13d689ff844b4ce37794d79a7ff1c000000000000000000000000f3ad2cbc4276eb4b0fb627af0059cfce094e20a1000000000000000000000000f629cbd94d3791c9250152bd8dfbdf380e2a3b9c00000000000000000000000000000000000000000000000000000000",
            "debugEnable": true,
            "errorInfo": "",
            "eventCount": 8,
            "feeRecipient": "0xea674fdde714fd979de3edf0f56aa9716b898ec8",
            "formatValue": "0",
            "gasLimit": 700000,
            "gasPrice": "81.563214707",
            "gasUsed": 176761,
            "intTxnCount": 14,
            "internalRevert": false,
            "internalRevertMessage": "",
            "isContractCreation": false,
            "isFlashloan": false,
            "maxFee": "115.24",
            "nonce": 153069,
            "overwritedBlockNumber": -1,
            "priorityFee": "16.730900207",
            "receiver": "0x0000006daea1723962647b7e189d311d757fb793",
            "revertMessage": "",
            "sender": "0x0000495194ec698fcf89ccf8abb445daf01db497",
            "simulationEnable": true,
            "sourceTxnHash": "0xfea44d7de93d5dc1775cd72466055e54947f0508841b27841f370f6a6b593739",
            "status": true,
            "timestamp": "2022-02-06T01:44:01Z",
            "transactionFee": "0.014417195394824027",
            "txnHash": "0xfea44d7de93d5dc1775cd72466055e54947f0508841b27841f370f6a6b593739",
            "txnIndex": 3,
            "type": 2,
            "value": "0"
        },
        "fund_flow": [
            {
                "amount": "5,572.39263110174343168",
                "from": "0x0000006daea1723962647b7e189d311d757fb793",
                "id": 1,
                "isERC1155": false,
                "isERC721": false,
                "isReverted": false,
                "order": 1,
                "to": "0x000000370531eee8149ed162d387aad537899ac7",
                "token": "0x1f573d6fb3f13d689ff844b4ce37794d79a7ff1c"
            },
            {
                "amount": "5,572.39263110174343168",
                "from": "0x000000370531eee8149ed162d387aad537899ac7",
                "id": 2,
                "isERC1155": false,
                "isERC721": false,
                "isReverted": false,
                "order": 2,
                "to": "0xfe42619e3f6547188e2ed10280176b9e4fae0c6c",
                "token": "0x1f573d6fb3f13d689ff844b4ce37794d79a7ff1c"
            },
            {
                "amount": "7,392.929063633316698904",
                "from": "0xfe42619e3f6547188e2ed10280176b9e4fae0c6c",
                "id": 3,
                "isERC1155": false,
                "isERC721": false,
                "isReverted": false,
                "order": 3,
                "to": "0x0000006daea1723962647b7e189d311d757fb793",
                "token": "0xf629cbd94d3791c9250152bd8dfbdf380e2a3b9c"
            }
        ],
        "token_infos": [
            {
                "address": "0x1f573d6fb3f13d689ff844b4ce37794d79a7ff1c",
                "decimals": 18
            },
            {
                "address": "0xc02aaa39b223fe8d0a0e5c4f27ead9083c756cc2",
                "decimals": 18
            },
            {
                "address": "0xf629cbd94d3791c9250152bd8dfbdf380e2a3b9c",
                "decimals": 18
            },
            {
                "address": "0xeeeeeeeeeeeeeeeeeeeeeeeeeeeeeeeeeeeeeeee",
                "decimals": 18
            }
        ]
    },
    "address_label": {
        "labels": [
            {
                "address": "0x2f9ec37d6ccfff1cab21733bdadede11c823ccb0",
                "label": "Bancor: Swaps"
            },
            {
                "address": "0x0000000000000000000000000000000000000000",
                "label": "Null Address"
            },
            {
                "address": "0x0000000000000000000000000000000000000001",
                "label": "Precompiled"
            },
            {
                "address": "0x0000000000000000000000000000000000000003",
                "label": "Precompiled"
            },
            {
                "address": "0xf3ad2cbc4276eb4b0fb627af0059cfce094e20a1",
                "label": "ENJ Smart Token Relay (ENJBNT)"
            },
            {
                "address": "0xfe42619e3f6547188e2ed10280176b9e4fae0c6c",
                "label": "Bancor: Converter 589"
            },
            {
                "address": "0xf629cbd94d3791c9250152bd8dfbdf380e2a3b9c",
                "label": "Enjin: ENJ Token"
            },
            {
                "address": "0x0000000000000000000000000000000000000002",
                "label": "Precompiled"
            },
            {
                "address": "0x0000006daea1723962647b7e189d311d757fb793",
                "label": "Wintermute 1"
            },
            {
                "address": "0x0000000000000000000000000000000000000004",
                "label": "Precompiled"
            },
            {
                "address": "0xeeeeeeeeeeeeeeeeeeeeeeeeeeeeeeeeeeeeeeee",
                "label": "Ether"
            },
            {
                "address": "0x1f573d6fb3f13d689ff844b4ce37794d79a7ff1c",
                "label": "Bancor: BNT Token"
            },
            {
                "address": "0x52ae12abe5d8bd778bd5397f99ca900624cfadd4",
                "label": "Bancor: Contract Registry"
            }
        ]
    },
    "trace": {
        "accountLabels": null,
        "dataMap": {
            "-1": {
                "invocation": {
                    "address": "0x0000495194ec698fcf89ccf8abb445daf01db497",
                    "callData": "",
                    "decodedMethod": null,
                    "errorInfo": "",
                    "fromAddress": "",
                    "gasUsed": 0,
                    "id": -1,
                    "methodDecoded": false,
                    "operation": "",
                    "output": "",
                    "revert": false,
                    "revertMessage": "",
                    "selector": "",
                    "status": false,
                    "value": ""
                },
                "nodeType": 0
            },
            "0": {
                "invocation": {
                    "address": "0x0000006daea1723962647b7e189d311d757fb793",
                    "callData": "0x000000000000000000000000000000370531eee8149ed162d387aad537899ac7000000000000000000000000000000000000000000000000000000000000000000000000000000000000000000000000000000000000000000000000000000600000000000000000000000000000000000000000000000000000000000000104b9d25b91000000000000000000000000000000000000000000000000000000000000008000000000000000000000000000000000000000000000012e147b862f7fc0000000000000000000000000000000000000000000000000018f67baf5c37e9000000000000000000000000000000000000000000000000000000000000061ff282700000000000000000000000000000000000000000000000000000000000000030000000000000000000000001f573d6fb3f13d689ff844b4ce37794d79a7ff1c000000000000000000000000f3ad2cbc4276eb4b0fb627af0059cfce094e20a1000000000000000000000000f629cbd94d3791c9250152bd8dfbdf380e2a3b9c00000000000000000000000000000000000000000000000000000000",
                    "decodedMethod": null,
                    "errorInfo": "",
                    "fromAddress": "0x0000495194ec698fcf89ccf8abb445daf01db497",
                    "gasUsed": 176761,
                    "id": 0,
                    "methodDecoded": false,
                    "operation": "CALL",
                    "output": "",
                    "revert": false,
                    "revertMessage": "",
                    "selector": "0x178979ae",
                    "status": true,
                    "value": "0"
                },
                "nodeType": 0
            },
            "1": {
                "invocation": {
                    "address": "0x000000370531eee8149ed162d387aad537899ac7",
                    "callData": "0x000000000000000000000000000000000000000000000000000000000000008000000000000000000000000000000000000000000000012e147b862f7fc0000000000000000000000000000000000000000000000000018f67baf5c37e9000000000000000000000000000000000000000000000000000000000000061ff282700000000000000000000000000000000000000000000000000000000000000030000000000000000000000001f573d6fb3f13d689ff844b4ce37794d79a7ff1c000000000000000000000000f3ad2cbc4276eb4b0fb627af0059cfce094e20a1000000000000000000000000f629cbd94d3791c9250152bd8dfbdf380e2a3b9c",
                    "decodedMethod": null,
                    "errorInfo": "",
                    "fromAddress": "0x0000006daea1723962647b7e189d311d757fb793",
                    "gasUsed": 167072,
                    "id": 1,
                    "methodDecoded": false,
                    "operation": "CALL",
                    "output": "0x000000000000000000000000000000000000000000000190c58035f525135b18",
                    "revert": false,
                    "revertMessage": "",
                    "selector": "0xb9d25b91",
                    "status": true,
                    "value": "0"
                },
                "nodeType": 0
            },
            "10": {
                "invocation": {
                    "address": "0xf3ad2cbc4276eb4b0fb627af0059cfce094e20a1",
                    "callData": "0x",
                    "decodedMethod": {
                        "callParams": [],
                        "constructorArguments": "",
                        "name": "owner",
                        "returnParams": [
                            {
                                "name": "",
                                "type": "address",
                                "value": "0xfe42619e3f6547188e2ed10280176b9e4fae0c6c"
                            }
                        ],
                        "signature": "owner()"
                    },
                    "errorInfo": "",
                    "fromAddress": "0x2f9ec37d6ccfff1cab21733bdadede11c823ccb0",
                    "gasUsed": 687,
                    "id": 10,
                    "methodDecoded": true,
                    "operation": "CALL",
                    "output": "0x000000000000000000000000fe42619e3f6547188e2ed10280176b9e4fae0c6c",
                    "revert": false,
                    "revertMessage": "",
                    "selector": "0x8da5cb5b",
                    "status": true,
                    "value": "0"
                },
                "nodeType": 0
            },
            "11": {
                "invocation": {
                    "address": "0xfe42619e3f6547188e2ed10280176b9e4fae0c6c",
                    "callData": "0x",
                    "decodedMethod": {
                        "callParams": [],
                        "constructorArguments": "",
                        "name": "isV28OrHigher",
                        "returnParams": [
                            {
                                "name": "",
                                "type": "bool",
                                "value": true
                            }
                        ],
                        "signature": "isV28OrHigher()"
                    },
                    "errorInfo": "",
                    "fromAddress": "0x2f9ec37d6ccfff1cab21733bdadede11c823ccb0",
                    "gasUsed": 293,
                    "id": 11,
                    "methodDecoded": true,
                    "operation": "STATICCALL",
                    "output": "0x0000000000000000000000000000000000000000000000000000000000000001",
                    "revert": false,
                    "revertMessage": "",
                    "selector": "0xd260529c",
                    "status": true,
                    "value": "0"
                },
                "nodeType": 0
            },
            "12": {
                "invocation": {
                    "address": "0xfe42619e3f6547188e2ed10280176b9e4fae0c6c",
                    "callData": "0x0000000000000000000000001f573d6fb3f13d689ff844b4ce37794d79a7ff1c000000000000000000000000f629cbd94d3791c9250152bd8dfbdf380e2a3b9c00000000000000000000000000000000000000000000012e147b862f7fc00000000000000000000000000000000000370531eee8149ed162d387aad537899ac70000000000000000000000000000006daea1723962647b7e189d311d757fb793",
                    "decodedMethod": {
                        "callParams": [
                            {
                                "name": "_sourceToken",
                                "type": "address",
                                "value": "0x1f573d6fb3f13d689ff844b4ce37794d79a7ff1c"
                            },
                            {
                                "name": "_targetToken",
                                "type": "address",
                                "value": "0xf629cbd94d3791c9250152bd8dfbdf380e2a3b9c"
                            },
                            {
                                "name": "_amount",
                                "type": "uint256",
                                "value": "5,572,392,631,101,743,431,680"
                            },
                            {
                                "name": "_trader",
                                "type": "address",
                                "value": "0x000000370531eee8149ed162d387aad537899ac7"
                            },
                            {
                                "name": "_beneficiary",
                                "type": "address",
                                "value": "0x0000006daea1723962647b7e189d311d757fb793"
                            }
                        ],
                        "constructorArguments": "",
                        "name": "convert",
                        "returnParams": [
                            {
                                "name": "",
                                "type": "uint256",
                                "value": "7,392,929,063,633,316,698,904"
                            }
                        ],
                        "signature": "convert(address,address,uint256,address,address)"
                    },
                    "errorInfo": "",
                    "fromAddress": "0x2f9ec37d6ccfff1cab21733bdadede11c823ccb0",
                    "gasUsed": 63287,
                    "id": 12,
                    "methodDecoded": true,
                    "operation": "CALL",
                    "output": "0x000000000000000000000000000000000000000000000190c58035f525135b18",
                    "revert": false,
                    "revertMessage": "",
                    "selector": "0xe8dc12ff",
                    "status": true,
                    "value": "0"
                },
                "nodeType": 0
            },
            "13": {
                "invocation": {
                    "address": "0x52ae12abe5d8bd778bd5397f99ca900624cfadd4",
                    "callData": "0x42616e636f724e6574776f726b00000000000000000000000000000000000000",
                    "decodedMethod": {
                        "callParams": [
                            {
                                "name": "_contractName",
                                "type": "bytes32",
                                "value": "0x42616e636f724e6574776f726b00000000000000000000000000000000000000"
                            }
                        ],
                        "constructorArguments": "",
                        "name": "addressOf",
                        "returnParams": [
                            {
                                "name": "",
                                "type": "address",
                                "value": "0x2f9ec37d6ccfff1cab21733bdadede11c823ccb0"
                            }
                        ],
                        "signature": "addressOf(bytes32)"
                    },
                    "errorInfo": "",
                    "fromAddress": "0xfe42619e3f6547188e2ed10280176b9e4fae0c6c",
                    "gasUsed": 2861,
                    "id": 13,
                    "methodDecoded": true,
                    "operation": "STATICCALL",
                    "output": "0x0000000000000000000000002f9ec37d6ccfff1cab21733bdadede11c823ccb0",
                    "revert": false,
                    "revertMessage": "",
                    "selector": "0xbb34534c",
                    "status": true,
                    "value": "0"
                },
                "nodeType": 0
            },
            "14": {
                "invocation": {
                    "address": "0x1f573d6fb3f13d689ff844b4ce37794d79a7ff1c",
                    "callData": "0x000000000000000000000000fe42619e3f6547188e2ed10280176b9e4fae0c6c",
                    "decodedMethod": {
                        "callParams": [
                            {
                                "name": "",
                                "type": "address",
                                "value": "0xfe42619e3f6547188e2ed10280176b9e4fae0c6c"
                            }
                        ],
                        "constructorArguments": "",
                        "name": "balanceOf",
                        "returnParams": [
                            {
                                "decimalAvailable": true,
                                "name": "",
                                "type": "uint256",
                                "value": "3,587,755,854,784,365,641,987,736"
                            }
                        ],
                        "signature": "balanceOf(address)"
                    },
                    "errorInfo": "",
                    "fromAddress": "0xfe42619e3f6547188e2ed10280176b9e4fae0c6c",
                    "gasUsed": 618,
                    "id": 14,
                    "methodDecoded": true,
                    "operation": "STATICCALL",
                    "output": "0x00000000000000000000000000000000000000000002f7bca2757d2f1171f698",
                    "revert": false,
                    "revertMessage": "",
                    "selector": "0x70a08231",
                    "status": true,
                    "value": "0"
                },
                "nodeType": 0
            },
            "15": {
                "invocation": {
                    "address": "0xf629cbd94d3791c9250152bd8dfbdf380e2a3b9c",
                    "callData": "0x0000000000000000000000000000006daea1723962647b7e189d311d757fb793000000000000000000000000000000000000000000000190c58035f525135b18",
                    "decodedMethod": {
                        "callParams": [
                            {
                                "name": "_to",
                                "type": "address",
                                "value": "0x0000006daea1723962647b7e189d311d757fb793"
                            },
                            {
                                "decimalAvailable": true,
                                "name": "_value",
                                "type": "uint256",
                                "value": "7,392,929,063,633,316,698,904"
                            }
                        ],
                        "constructorArguments": "",
                        "name": "transfer",
                        "returnParams": [
                            {
                                "name": "success",
                                "type": "bool",
                                "value": true
                            }
                        ],
                        "signature": "transfer(address,uint256)"
                    },
                    "errorInfo": "",
                    "fromAddress": "0xfe42619e3f6547188e2ed10280176b9e4fae0c6c",
                    "gasUsed": 13468,
                    "id": 15,
                    "methodDecoded": true,
                    "operation": "CALL",
                    "output": "0x0000000000000000000000000000000000000000000000000000000000000001",
                    "revert": false,
                    "revertMessage": "",
                    "selector": "0xa9059cbb",
                    "status": true,
                    "value": "0"
                },
                "nodeType": 0
            },
            "16": {
                "event": {
                    "contract": "0xf629cbd94d3791c9250152bd8dfbdf380e2a3b9c",
                    "decodedLog": {
                        "name": "Transfer",
                        "params": [
                            {
                                "name": "_from",
                                "type": "address",
                                "value": "0xfe42619e3f6547188e2ed10280176b9e4fae0c6c"
                            },
                            {
                                "name": "_to",
                                "type": "address",
                                "value": "0x0000006daea1723962647b7e189d311d757fb793"
                            },
                            {
                                "decimalAvailable": true,
                                "name": "_value",
                                "type": "uint256",
                                "value": "7,392,929,063,633,316,698,904"
                            }
                        ],
                        "signature": "Transfer(address,address,uint256)"
                    },
                    "id": 16,
                    "logData": "0x000000000000000000000000000000000000000000000190c58035f525135b18",
                    "logDecoded": true,
                    "operation": "EVENT",
                    "revert": false,
                    "status": true,
                    "topics": [
                        "0xddf252ad1be2c89b69c2b068fc378daa952ba7f163c4a11628f55a4df523b3ef",
                        "0x000000000000000000000000fe42619e3f6547188e2ed10280176b9e4fae0c6c",
                        "0x0000000000000000000000000000006daea1723962647b7e189d311d757fb793"
                    ]
                },
                "nodeType": 1
            },
            "17": {
                "event": {
                    "contract": "0xfe42619e3f6547188e2ed10280176b9e4fae0c6c",
                    "decodedLog": {
                        "name": "Conversion",
                        "params": [
                            {
                                "name": "_fromToken",
                                "type": "address",
                                "value": "0x1f573d6fb3f13d689ff844b4ce37794d79a7ff1c"
                            },
                            {
                                "name": "_toToken",
                                "type": "address",
                                "value": "0xf629cbd94d3791c9250152bd8dfbdf380e2a3b9c"
                            },
                            {
                                "name": "_trader",
                                "type": "address",
                                "value": "0x000000370531eee8149ed162d387aad537899ac7"
                            },
                            {
                                "name": "_amount",
                                "type": "uint256",
                                "value": "5,572,392,631,101,743,431,680"
                            },
                            {
                                "name": "_return",
                                "type": "uint256",
                                "value": "7,392,929,063,633,316,698,904"
                            },
                            {
                                "name": "_conversionFee",
                                "type": "int256",
                                "value": "37,150,397,304,690,033,662"
                            }
                        ],
                        "signature": "Conversion(address,address,address,uint256,uint256,int256)"
                    },
                    "id": 17,
                    "logData": "0x00000000000000000000000000000000000000000000012e147b862f7fc00000000000000000000000000000000000000000000000000190c58035f525135b180000000000000000000000000000000000000000000000020390b98472adc3fe",
                    "logDecoded": true,
                    "operation": "EVENT",
                    "revert": false,
                    "status": true,
                    "topics": [
                        "0x276856b36cbc45526a0ba64f44611557a2a8b68662c5388e9fe6d72e86e1c8cb",
                        "0x0000000000000000000000001f573d6fb3f13d689ff844b4ce37794d79a7ff1c",
                        "0x000000000000000000000000f629cbd94d3791c9250152bd8dfbdf380e2a3b9c",
                        "0x000000000000000000000000000000370531eee8149ed162d387aad537899ac7"
                    ]
                },
                "nodeType": 1
            },
            "18": {
                "invocation": {
                    "address": "0xf3ad2cbc4276eb4b0fb627af0059cfce094e20a1",
                    "callData": "0x",
                    "decodedMethod": {
                        "callParams": [],
                        "constructorArguments": "",
                        "name": "totalSupply",
                        "returnParams": [
                            {
                                "name": "",
                                "type": "uint256",
                                "value": "49,241,730,709,959,947,015,633,047"
                            }
                        ],
                        "signature": "totalSupply()"
                    },
                    "errorInfo": "",
                    "fromAddress": "0xfe42619e3f6547188e2ed10280176b9e4fae0c6c",
                    "gasUsed": 2336,
                    "id": 18,
                    "methodDecoded": true,
                    "operation": "STATICCALL",
                    "output": "0x00000000000000000000000000000000000000000028bb57921515dd27673897",
                    "revert": false,
                    "revertMessage": "",
                    "selector": "0x18160ddd",
                    "status": true,
                    "value": "0"
                },
                "nodeType": 0
            },
            "19": {
                "event": {
                    "contract": "0xfe42619e3f6547188e2ed10280176b9e4fae0c6c",
                    "decodedLog": {
                        "name": "TokenRateUpdate",
                        "params": [
                            {
                                "name": "_token1",
                                "type": "address",
                                "value": "0x1f573d6fb3f13d689ff844b4ce37794d79a7ff1c"
                            },
                            {
                                "name": "_token2",
                                "type": "address",
                                "value": "0xf629cbd94d3791c9250152bd8dfbdf380e2a3b9c"
                            },
                            {
                                "name": "_rateN",
                                "type": "uint256",
                                "value": "4,776,424,876,363,127,716,608,584"
                            },
                            {
                                "name": "_rateD",
                                "type": "uint256",
                                "value": "3,587,755,854,784,365,641,987,736"
                            }
                        ],
                        "signature": "TokenRateUpdate(address,address,uint256,uint256)"
                    },
                    "id": 19,
                    "logData": "0x00000000000000000000000000000000000000000003f37282ea04adb06c7a4800000000000000000000000000000000000000000002f7bca2757d2f1171f698",
                    "logDecoded": true,
                    "operation": "EVENT",
                    "revert": false,
                    "status": true,
                    "topics": [
                        "0x77f29993cf2c084e726f7e802da0719d6a0ade3e204badc7a3ffd57ecb768c24",
                        "0x0000000000000000000000001f573d6fb3f13d689ff844b4ce37794d79a7ff1c",
                        "0x000000000000000000000000f629cbd94d3791c9250152bd8dfbdf380e2a3b9c"
                    ]
                },
                "nodeType": 1
            },
            "2": {
                "invocation": {
                    "address": "0x1f573d6fb3f13d689ff844b4ce37794d79a7ff1c",
                    "callData": "0x0000000000000000000000000000006daea1723962647b7e189d311d757fb793000000000000000000000000000000370531eee8149ed162d387aad537899ac700000000000000000000000000000000000000000000012e147b862f7fc00000",
                    "decodedMethod": {
                        "callParams": [
                            {
                                "name": "_from",
                                "type": "address",
                                "value": "0x0000006daea1723962647b7e189d311d757fb793"
                            },
                            {
                                "name": "_to",
                                "type": "address",
                                "value": "0x000000370531eee8149ed162d387aad537899ac7"
                            },
                            {
                                "decimalAvailable": true,
                                "name": "_value",
                                "type": "uint256",
                                "value": "5,572,392,631,101,743,431,680"
                            }
                        ],
                        "constructorArguments": "",
                        "name": "transferFrom",
                        "returnParams": [
                            {
                                "name": "success",
                                "type": "bool",
                                "value": true
                            }
                        ],
                        "signature": "transferFrom(address,address,uint256)"
                    },
                    "errorInfo": "",
                    "fromAddress": "0x000000370531eee8149ed162d387aad537899ac7",
                    "gasUsed": 38105,
                    "id": 2,
                    "methodDecoded": true,
                    "operation": "CALL",
                    "output": "0x0000000000000000000000000000000000000000000000000000000000000001",
                    "revert": false,
                    "revertMessage": "",
                    "selector": "0x23b872dd",
                    "status": true,
                    "value": "0"
                },
                "nodeType": 0
            },
            "20": {
                "event": {
                    "contract": "0xfe42619e3f6547188e2ed10280176b9e4fae0c6c",
                    "decodedLog": {
                        "name": "TokenRateUpdate",
                        "params": [
                            {
                                "name": "_token1",
                                "type": "address",
                                "value": "0xf3ad2cbc4276eb4b0fb627af0059cfce094e20a1"
                            },
                            {
                                "name": "_token2",
                                "type": "address",
                                "value": "0x1f573d6fb3f13d689ff844b4ce37794d79a7ff1c"
                            },
                            {
                                "name": "_rateN",
                                "type": "uint256",
                                "value": "3,587,755,854,784,365,641,987,736"
                            },
                            {
                                "name": "_rateD",
                                "type": "uint256",
                                "value": "49,241,730,709,959,947,015,633,047"
                            }
                        ],
                        "signature": "TokenRateUpdate(address,address,uint256,uint256)"
                    },
                    "id": 20,
                    "logData": "0x00000000000000000000000000000000000000000002f7bca2757d2f1171f69800000000000000000000000000000000000000000028bb57921515dd27673897",
                    "logDecoded": true,
                    "operation": "EVENT",
                    "revert": false,
                    "status": true,
                    "topics": [
                        "0x77f29993cf2c084e726f7e802da0719d6a0ade3e204badc7a3ffd57ecb768c24",
                        "0x000000000000000000000000f3ad2cbc4276eb4b0fb627af0059cfce094e20a1",
                        "0x0000000000000000000000001f573d6fb3f13d689ff844b4ce37794d79a7ff1c"
                    ]
                },
                "nodeType": 1
            },
            "21": {
                "event": {
                    "contract": "0xfe42619e3f6547188e2ed10280176b9e4fae0c6c",
                    "decodedLog": {
                        "name": "TokenRateUpdate",
                        "params": [
                            {
                                "name": "_token1",
                                "type": "address",
                                "value": "0xf3ad2cbc4276eb4b0fb627af0059cfce094e20a1"
                            },
                            {
                                "name": "_token2",
                                "type": "address",
                                "value": "0xf629cbd94d3791c9250152bd8dfbdf380e2a3b9c"
                            },
                            {
                                "name": "_rateN",
                                "type": "uint256",
                                "value": "4,776,424,876,363,127,716,608,584"
                            },
                            {
                                "name": "_rateD",
                                "type": "uint256",
                                "value": "49,241,730,709,959,947,015,633,047"
                            }
                        ],
                        "signature": "TokenRateUpdate(address,address,uint256,uint256)"
                    },
                    "id": 21,
                    "logData": "0x00000000000000000000000000000000000000000003f37282ea04adb06c7a4800000000000000000000000000000000000000000028bb57921515dd27673897",
                    "logDecoded": true,
                    "operation": "EVENT",
                    "revert": false,
                    "status": true,
                    "topics": [
                        "0x77f29993cf2c084e726f7e802da0719d6a0ade3e204badc7a3ffd57ecb768c24",
                        "0x000000000000000000000000f3ad2cbc4276eb4b0fb627af0059cfce094e20a1",
                        "0x000000000000000000000000f629cbd94d3791c9250152bd8dfbdf380e2a3b9c"
                    ]
                },
                "nodeType": 1
            },
            "22": {
                "event": {
                    "contract": "0x2f9ec37d6ccfff1cab21733bdadede11c823ccb0",
                    "decodedLog": {
                        "name": "Conversion",
                        "params": [
                            {
                                "name": "_smartToken",
                                "type": "address",
                                "value": "0xf3ad2cbc4276eb4b0fb627af0059cfce094e20a1"
                            },
                            {
                                "name": "_fromToken",
                                "type": "address",
                                "value": "0x1f573d6fb3f13d689ff844b4ce37794d79a7ff1c"
                            },
                            {
                                "name": "_toToken",
                                "type": "address",
                                "value": "0xf629cbd94d3791c9250152bd8dfbdf380e2a3b9c"
                            },
                            {
                                "name": "_fromAmount",
                                "type": "uint256",
                                "value": "5,572,392,631,101,743,431,680"
                            },
                            {
                                "name": "_toAmount",
                                "type": "uint256",
                                "value": "7,392,929,063,633,316,698,904"
                            },
                            {
                                "name": "_trader",
                                "type": "address",
                                "value": "0x000000370531eee8149ed162d387aad537899ac7"
                            }
                        ],
                        "signature": "Conversion(address,address,address,uint256,uint256,address)"
                    },
                    "id": 22,
                    "logData": "0x00000000000000000000000000000000000000000000012e147b862f7fc00000000000000000000000000000000000000000000000000190c58035f525135b18000000000000000000000000000000370531eee8149ed162d387aad537899ac7",
                    "logDecoded": true,
                    "operation": "EVENT",
                    "revert": false,
                    "status": true,
                    "topics": [
                        "0x7154b38b5dd31bb3122436a96d4e09aba5b323ae1fd580025fab55074334c095",
                        "0x000000000000000000000000f3ad2cbc4276eb4b0fb627af0059cfce094e20a1",
                        "0x0000000000000000000000001f573d6fb3f13d689ff844b4ce37794d79a7ff1c",
                        "0x000000000000000000000000f629cbd94d3791c9250152bd8dfbdf380e2a3b9c"
                    ]
                },
                "nodeType": 1
            },
            "3": {
                "event": {
                    "contract": "0x1f573d6fb3f13d689ff844b4ce37794d79a7ff1c",
                    "decodedLog": {
                        "name": "Transfer",
                        "params": [
                            {
                                "name": "_from",
                                "type": "address",
                                "value": "0x0000006daea1723962647b7e189d311d757fb793"
                            },
                            {
                                "name": "_to",
                                "type": "address",
                                "value": "0x000000370531eee8149ed162d387aad537899ac7"
                            },
                            {
                                "decimalAvailable": true,
                                "name": "_value",
                                "type": "uint256",
                                "value": "5,572,392,631,101,743,431,680"
                            }
                        ],
                        "signature": "Transfer(address,address,uint256)"
                    },
                    "id": 3,
                    "logData": "0x00000000000000000000000000000000000000000000012e147b862f7fc00000",
                    "logDecoded": true,
                    "operation": "EVENT",
                    "revert": false,
                    "status": true,
                    "topics": [
                        "0xddf252ad1be2c89b69c2b068fc378daa952ba7f163c4a11628f55a4df523b3ef",
                        "0x0000000000000000000000000000006daea1723962647b7e189d311d757fb793",
                        "0x000000000000000000000000000000370531eee8149ed162d387aad537899ac7"
                    ]
                },
                "nodeType": 1
            },
            "4": {
                "invocation": {
                    "address": "0x2f9ec37d6ccfff1cab21733bdadede11c823ccb0",
                    "callData": "0x00000000000000000000000000000000000000000000000000000000000000c000000000000000000000000000000000000000000000012e147b862f7fc0000000000000000000000000000000000000000000000000018f67baf5c37e9000000000000000000000000000000000006daea1723962647b7e189d311d757fb7930000000000000000000000000000000000000000000000000000000000000000000000000000000000000000000000000000000000000000000000000000000000000000000000000000000000000000000000000000000000000000000000030000000000000000000000001f573d6fb3f13d689ff844b4ce37794d79a7ff1c000000000000000000000000f3ad2cbc4276eb4b0fb627af0059cfce094e20a1000000000000000000000000f629cbd94d3791c9250152bd8dfbdf380e2a3b9c",
                    "decodedMethod": {
                        "callParams": [
                            {
                                "name": "_path",
                                "type": "address[]",
                                "value": [
                                    "0x1f573d6fb3f13d689ff844b4ce37794d79a7ff1c",
                                    "0xf3ad2cbc4276eb4b0fb627af0059cfce094e20a1",
                                    "0xf629cbd94d3791c9250152bd8dfbdf380e2a3b9c"
                                ]
                            },
                            {
                                "name": "_amount",
                                "type": "uint256",
                                "value": "5,572,392,631,101,743,431,680"
                            },
                            {
                                "name": "_minReturn",
                                "type": "uint256",
                                "value": "7,367,725,442,161,676,648,448"
                            },
                            {
                                "name": "_beneficiary",
                                "type": "address",
                                "value": "0x0000006daea1723962647b7e189d311d757fb793"
                            },
                            {
                                "name": "_affiliateAccount",
                                "type": "address",
                                "value": "0x0000000000000000000000000000000000000000"
                            },
                            {
                                "name": "_affiliateFee",
                                "type": "uint256",
                                "value": "0"
                            }
                        ],
                        "constructorArguments": "",
                        "name": "convertByPath",
                        "returnParams": [
                            {
                                "name": "",
                                "type": "uint256",
                                "value": "7,392,929,063,633,316,698,904"
                            }
                        ],
                        "signature": "convertByPath(address[],uint256,uint256,address,address,uint256)"
                    },
                    "errorInfo": "",
                    "fromAddress": "0x000000370531eee8149ed162d387aad537899ac7",
                    "gasUsed": 116808,
                    "id": 4,
                    "methodDecoded": true,
                    "operation": "CALL",
                    "output": "0x000000000000000000000000000000000000000000000190c58035f525135b18",
                    "revert": false,
                    "revertMessage": "",
                    "selector": "0xb77d239b",
                    "status": true,
                    "value": "0"
                },
                "nodeType": 0
            },
            "5": {
                "invocation": {
                    "address": "0xf3ad2cbc4276eb4b0fb627af0059cfce094e20a1",
                    "callData": "0x",
                    "decodedMethod": {
                        "callParams": [],
                        "constructorArguments": "",
                        "name": "owner",
                        "returnParams": [
                            {
                                "name": "",
                                "type": "address",
                                "value": "0xfe42619e3f6547188e2ed10280176b9e4fae0c6c"
                            }
                        ],
                        "signature": "owner()"
                    },
                    "errorInfo": "",
                    "fromAddress": "0x2f9ec37d6ccfff1cab21733bdadede11c823ccb0",
                    "gasUsed": 2687,
                    "id": 5,
                    "methodDecoded": true,
                    "operation": "CALL",
                    "output": "0x000000000000000000000000fe42619e3f6547188e2ed10280176b9e4fae0c6c",
                    "revert": false,
                    "revertMessage": "",
                    "selector": "0x8da5cb5b",
                    "status": true,
                    "value": "0"
                },
                "nodeType": 0
            },
            "6": {
                "invocation": {
                    "address": "0xfe42619e3f6547188e2ed10280176b9e4fae0c6c",
                    "callData": "0x",
                    "decodedMethod": {
                        "callParams": [],
                        "constructorArguments": "",
                        "name": "isV28OrHigher",
                        "returnParams": [
                            {
                                "name": "",
                                "type": "bool",
                                "value": true
                            }
                        ],
                        "signature": "isV28OrHigher()"
                    },
                    "errorInfo": "",
                    "fromAddress": "0x2f9ec37d6ccfff1cab21733bdadede11c823ccb0",
                    "gasUsed": 293,
                    "id": 6,
                    "methodDecoded": true,
                    "operation": "STATICCALL",
                    "output": "0x0000000000000000000000000000000000000000000000000000000000000001",
                    "revert": false,
                    "revertMessage": "",
                    "selector": "0xd260529c",
                    "status": true,
                    "value": "0"
                },
                "nodeType": 0
            },
            "7": {
                "invocation": {
                    "address": "0x1f573d6fb3f13d689ff844b4ce37794d79a7ff1c",
                    "callData": "0x000000000000000000000000000000370531eee8149ed162d387aad537899ac7000000000000000000000000fe42619e3f6547188e2ed10280176b9e4fae0c6c00000000000000000000000000000000000000000000012e147b862f7fc00000",
                    "decodedMethod": {
                        "callParams": [
                            {
                                "name": "_from",
                                "type": "address",
                                "value": "0x000000370531eee8149ed162d387aad537899ac7"
                            },
                            {
                                "name": "_to",
                                "type": "address",
                                "value": "0xfe42619e3f6547188e2ed10280176b9e4fae0c6c"
                            },
                            {
                                "decimalAvailable": true,
                                "name": "_value",
                                "type": "uint256",
                                "value": "5,572,392,631,101,743,431,680"
                            }
                        ],
                        "constructorArguments": "",
                        "name": "transferFrom",
                        "returnParams": [
                            {
                                "name": "success",
                                "type": "bool",
                                "value": true
                            }
                        ],
                        "signature": "transferFrom(address,address,uint256)"
                    },
                    "errorInfo": "",
                    "fromAddress": "0x2f9ec37d6ccfff1cab21733bdadede11c823ccb0",
                    "gasUsed": 14205,
                    "id": 7,
                    "methodDecoded": true,
                    "operation": "CALL",
                    "output": "0x0000000000000000000000000000000000000000000000000000000000000001",
                    "revert": false,
                    "revertMessage": "",
                    "selector": "0x23b872dd",
                    "status": true,
                    "value": "0"
                },
                "nodeType": 0
            },
            "8": {
                "event": {
                    "contract": "0x1f573d6fb3f13d689ff844b4ce37794d79a7ff1c",
                    "decodedLog": {
                        "name": "Transfer",
                        "params": [
                            {
                                "name": "_from",
                                "type": "address",
                                "value": "0x000000370531eee8149ed162d387aad537899ac7"
                            },
                            {
                                "name": "_to",
                                "type": "address",
                                "value": "0xfe42619e3f6547188e2ed10280176b9e4fae0c6c"
                            },
                            {
                                "decimalAvailable": true,
                                "name": "_value",
                                "type": "uint256",
                                "value": "5,572,392,631,101,743,431,680"
                            }
                        ],
                        "signature": "Transfer(address,address,uint256)"
                    },
                    "id": 8,
                    "logData": "0x00000000000000000000000000000000000000000000012e147b862f7fc00000",
                    "logDecoded": true,
                    "operation": "EVENT",
                    "revert": false,
                    "status": true,
                    "topics": [
                        "0xddf252ad1be2c89b69c2b068fc378daa952ba7f163c4a11628f55a4df523b3ef",
                        "0x000000000000000000000000000000370531eee8149ed162d387aad537899ac7",
                        "0x000000000000000000000000fe42619e3f6547188e2ed10280176b9e4fae0c6c"
                    ]
                },
                "nodeType": 1
            },
            "9": {
                "invocation": {
                    "address": "0x52ae12abe5d8bd778bd5397f99ca900624cfadd4",
                    "callData": "0x424e54546f6b656e000000000000000000000000000000000000000000000000",
                    "decodedMethod": {
                        "callParams": [
                            {
                                "name": "_contractName",
                                "type": "bytes32",
                                "value": "0x424e54546f6b656e000000000000000000000000000000000000000000000000"
                            }
                        ],
                        "constructorArguments": "",
                        "name": "addressOf",
                        "returnParams": [
                            {
                                "name": "",
                                "type": "address",
                                "value": "0x1f573d6fb3f13d689ff844b4ce37794d79a7ff1c"
                            }
                        ],
                        "signature": "addressOf(bytes32)"
                    },
                    "errorInfo": "",
                    "fromAddress": "0x2f9ec37d6ccfff1cab21733bdadede11c823ccb0",
                    "gasUsed": 2861,
                    "id": 9,
                    "methodDecoded": true,
                    "operation": "CALL",
                    "output": "0x0000000000000000000000001f573d6fb3f13d689ff844b4ce37794d79a7ff1c",
                    "revert": false,
                    "revertMessage": "",
                    "selector": "0xbb34534c",
                    "status": true,
                    "value": "0"
                },
                "nodeType": 0
            }
        },
        "gasFlame": [
            {
                "children": [
                    {
                        "children": [
                            {
                                "children": [],
                                "depth": 0,
                                "name": "Initial Gas",
                                "value": 23988
                            },
                            {
                                "children": [
                                    {
                                        "children": [
                                            {
                                                "children": [],
                                                "depth": 2,
                                                "name": "transferFrom",
                                                "value": 38105
                                            },
                                            {
                                                "children": [
                                                    {
                                                        "children": [],
                                                        "depth": 3,
                                                        "name": "owner",
                                                        "value": 2687
                                                    },
                                                    {
                                                        "children": [],
                                                        "depth": 3,
                                                        "name": "isV28OrHigher",
                                                        "value": 293
                                                    },
                                                    {
                                                        "children": [],
                                                        "depth": 3,
                                                        "name": "transferFrom",
                                                        "value": 14205
                                                    },
                                                    {
                                                        "children": [],
                                                        "depth": 3,
                                                        "name": "addressOf",
                                                        "value": 2861
                                                    },
                                                    {
                                                        "children": [],
                                                        "depth": 3,
                                                        "name": "owner",
                                                        "value": 687
                                                    },
                                                    {
                                                        "children": [],
                                                        "depth": 3,
                                                        "name": "isV28OrHigher",
                                                        "value": 293
                                                    },
                                                    {
                                                        "children": [
                                                            {
                                                                "children": [],
                                                                "depth": 4,
                                                                "name": "addressOf",
                                                                "value": 2861
                                                            },
                                                            {
                                                                "children": [],
                                                                "depth": 4,
                                                                "name": "balanceOf",
                                                                "value": 618
                                                            },
                                                            {
                                                                "children": [],
                                                                "depth": 4,
                                                                "name": "transfer",
                                                                "value": 13468
                                                            },
                                                            {
                                                                "children": [],
                                                                "depth": 4,
                                                                "name": "totalSupply",
                                                                "value": 2336
                                                            }
                                                        ],
                                                        "depth": 3,
                                                        "name": "convert",
                                                        "value": 63287
                                                    }
                                                ],
                                                "depth": 2,
                                                "name": "convertByPath",
                                                "value": 116808
                                            }
                                        ],
                                        "depth": 1,
                                        "name": "0xb9d25b91",
                                        "value": 167072
                                    }
                                ],
                                "depth": 0,
                                "name": "Executed Gas",
                                "value": 181073
                            }
                        ],
                        "depth": -1,
                        "name": "Actual Gas Used",
                        "value": 176761
                    },
                    {
                        "children": [],
                        "depth": -1,
                        "name": "Refunded Gas",
                        "value": 28300
                    }
                ],
                "depth": -2,
                "name": "Total Gas",
                "value": 205061
            }
        ],
        "isConfirmed": true,
        "mainTrace": [
            {
                "children": [
                    {
                        "children": [
                            {
                                "children": [
                                    {
                                        "children": [
                                            {
                                                "children": [],
                                                "depth": 3,
                                                "id": 3,
                                                "order": 3
                                            }
                                        ],
                                        "depth": 2,
                                        "id": 2,
                                        "order": 2
                                    },
                                    {
                                        "children": [
                                            {
                                                "children": [],
                                                "depth": 3,
                                                "id": 5,
                                                "order": 5
                                            },
                                            {
                                                "children": [],
                                                "depth": 3,
                                                "id": 6,
                                                "order": 6
                                            },
                                            {
                                                "children": [
                                                    {
                                                        "children": [],
                                                        "depth": 4,
                                                        "id": 8,
                                                        "order": 8
                                                    }
                                                ],
                                                "depth": 3,
                                                "id": 7,
                                                "order": 7
                                            },
                                            {
                                                "children": [],
                                                "depth": 3,
                                                "id": 9,
                                                "order": 9
                                            },
                                            {
                                                "children": [],
                                                "depth": 3,
                                                "id": 10,
                                                "order": 10
                                            },
                                            {
                                                "children": [],
                                                "depth": 3,
                                                "id": 11,
                                                "order": 11
                                            },
                                            {
                                                "children": [
                                                    {
                                                        "children": [],
                                                        "depth": 4,
                                                        "id": 13,
                                                        "order": 13
                                                    },
                                                    {
                                                        "children": [],
                                                        "depth": 4,
                                                        "id": 14,
                                                        "order": 14
                                                    },
                                                    {
                                                        "children": [
                                                            {
                                                                "children": [],
                                                                "depth": 5,
                                                                "id": 16,
                                                                "order": 16
                                                            }
                                                        ],
                                                        "depth": 4,
                                                        "id": 15,
                                                        "order": 15
                                                    },
                                                    {
                                                        "children": [],
                                                        "depth": 4,
                                                        "id": 17,
                                                        "order": 17
                                                    },
                                                    {
                                                        "children": [],
                                                        "depth": 4,
                                                        "id": 18,
                                                        "order": 18
                                                    },
                                                    {
                                                        "children": [],
                                                        "depth": 4,
                                                        "id": 19,
                                                        "order": 19
                                                    },
                                                    {
                                                        "children": [],
                                                        "depth": 4,
                                                        "id": 20,
                                                        "order": 20
                                                    },
                                                    {
                                                        "children": [],
                                                        "depth": 4,
                                                        "id": 21,
                                                        "order": 21
                                                    }
                                                ],
                                                "depth": 3,
                                                "id": 12,
                                                "order": 12
                                            },
                                            {
                                                "children": [],
                                                "depth": 3,
                                                "id": 22,
                                                "order": 22
                                            }
                                        ],
                                        "depth": 2,
                                        "id": 4,
                                        "order": 4
                                    }
                                ],
                                "depth": 1,
                                "id": 1,
                                "order": 1
                            }
                        ],
                        "depth": 0,
                        "id": 0,
                        "order": 0
                    }
                ],
                "depth": -1,
                "id": -1,
                "order": -1
            }
        ],
        "mainTraceNodeCount": 23,
        "parentIdMap": {
            "0": -1,
            "1": 0,
            "10": 4,
            "11": 4,
            "12": 4,
            "13": 12,
            "14": 12,
            "15": 12,
            "16": 15,
            "17": 12,
            "18": 12,
            "19": 12,
            "2": 1,
            "20": 12,
            "21": 12,
            "22": 4,
            "3": 2,
            "4": 1,
            "5": 4,
            "6": 4,
            "7": 4,
            "8": 7,
            "9": 4
        },
        "tidyTrace": [
            {
                "children": [
                    {
                        "children": [
                            {
                                "children": [
                                    {
                                        "children": [
                                            {
                                                "children": [],
                                                "depth": 3,
                                                "id": 3,
                                                "order": 3
                                            }
                                        ],
                                        "depth": 2,
                                        "id": 2,
                                        "order": 2
                                    },
                                    {
                                        "children": [
                                            {
                                                "children": [],
                                                "depth": 3,
                                                "id": 5,
                                                "order": 5
                                            },
                                            {
                                                "children": [
                                                    {
                                                        "children": [],
                                                        "depth": 4,
                                                        "id": 8,
                                                        "order": 8
                                                    }
                                                ],
                                                "depth": 3,
                                                "id": 7,
                                                "order": 7
                                            },
                                            {
                                                "children": [],
                                                "depth": 3,
                                                "id": 9,
                                                "order": 9
                                            },
                                            {
                                                "children": [],
                                                "depth": 3,
                                                "id": 10,
                                                "order": 10
                                            },
                                            {
                                                "children": [
                                                    {
                                                        "children": [
                                                            {
                                                                "children": [],
                                                                "depth": 5,
                                                                "id": 16,
                                                                "order": 16
                                                            }
                                                        ],
                                                        "depth": 4,
                                                        "id": 15,
                                                        "order": 15
                                                    },
                                                    {
                                                        "children": [],
                                                        "depth": 4,
                                                        "id": 17,
                                                        "order": 17
                                                    },
                                                    {
                                                        "children": [],
                                                        "depth": 4,
                                                        "id": 19,
                                                        "order": 19
                                                    },
                                                    {
                                                        "children": [],
                                                        "depth": 4,
                                                        "id": 20,
                                                        "order": 20
                                                    },
                                                    {
                                                        "children": [],
                                                        "depth": 4,
                                                        "id": 21,
                                                        "order": 21
                                                    }
                                                ],
                                                "depth": 3,
                                                "id": 12,
                                                "order": 12
                                            },
                                            {
                                                "children": [],
                                                "depth": 3,
                                                "id": 22,
                                                "order": 22
                                            }
                                        ],
                                        "depth": 2,
                                        "id": 4,
                                        "order": 4
                                    }
                                ],
                                "depth": 1,
                                "id": 1,
                                "order": 1
                            }
                        ],
                        "depth": 0,
                        "id": 0,
                        "order": 0
                    }
                ],
                "depth": -1,
                "id": -1,
                "order": -1
            }
        ],
        "tidyTraceNodeCount": 18
    },
    "state_change": {
        "stateChanges": [
            {
                "address": "0x1f573d6fb3f13d689ff844b4ce37794d79a7ff1c",
                "erc": "ERC-20",
                "slots": [
                    {
                        "current": "0x00000000000000000000000000000000000000000000030b1c622741adac38bb",
                        "key": "0x2b597f00b5b2aa581481e1e4638466adf86c9138ef6e61613886ed9beb4062b1",
                        "prev": "0x00000000000000000000000000000000000000000000043930ddad712d6c38bb"
                    },
                    {
                        "current": "0xfffffffffffffffffffffffffffffffffffffffffedb10359bba848d1e8fefff",
                        "key": "0x3a28132d30e96956e343ea2aaeb91f0b437fd9ce0fe5cbf8a04e716f41b73f13",
                        "prev": "0xfffffffffffffffffffffffffffffffffffffffffedb1163b0360abc9e4fefff"
                    },
                    {
                        "current": "0xfffffffffffffffffffffffffffffffffffffffffea251a34d5b053af6bfefff",
                        "key": "0xc3528755ff31abbf14744706aa7ac42df4219ff44691da3a6a0a4fbe22bb45aa",
                        "prev": "0xfffffffffffffffffffffffffffffffffffffffffea252d161d68b6a767fefff"
                    },
                    {
                        "current": "0x00000000000000000000000000000000000000000002f7bca2757d2f1171f698",
                        "key": "0x5014086029f925a029527a90ce971386d7a05dca91982f0ceb3f23213198925b",
                        "prev": "0x00000000000000000000000000000000000000000002f68e8df9f6ff91b1f698"
                    }
                ],
                "storageVariables": []
            },
            {
                "address": "0xf629cbd94d3791c9250152bd8dfbdf380e2a3b9c",
                "erc": "ERC-20",
                "slots": [
                    {
                        "current": "0x00000000000000000000000000000000000000000003f37282ea04adb06c7a48",
                        "key": "0xbd830ecafdf72fa452c586140bef2a9c8b341ae089774df981de00f62f78cf1d",
                        "prev": "0x00000000000000000000000000000000000000000003f503486a3aa2d57fd560"
                    },
                    {
                        "current": "0x0000000000000000000000000000000000000000000011704efac63907923bba",
                        "key": "0xa5e2816168c4f5e18c917829a79c5d93360bf19e1a6f9528f9375ada1c685ceb",
                        "prev": "0x000000000000000000000000000000000000000000000fdf897a9043e27ee0a2"
                    }
                ],
                "storageVariables": [
                    {
                        "name": "balanceOf",
                        "type": "mapping(address => uint256)",
                        "value": {
                            "pairs": [
                                {
                                    "key": "0x0000006daea1723962647b7e189d311d757fb793",
                                    "value": {
                                        "current": "82351956624066816916410",
                                        "prev": "74959027560433500217506",
                                        "typeTag": 1
                                    }
                                },
                                {
                                    "key": "0xfe42619e3f6547188e2ed10280176b9e4fae0c6c",
                                    "value": {
                                        "current": "4776424876363127716608584",
                                        "prev": "4783817805426761033307488",
                                        "typeTag": 1
                                    }
                                }
                            ],
                            "typeTag": 4
                        }
                    }
                ]
            },
            {
                "address": "0xfe42619e3f6547188e2ed10280176b9e4fae0c6c",
                "erc": "",
                "slots": [
                    {
                        "current": "0x61ff27e1929d99c2ac1f6b5bb47538a41c256d62663d53e094a44b8ac75be3da",
                        "key": "0x000000000000000000000000000000000000000000000000000000000000000a",
                        "prev": "0x61ff273400000003f7a07307b10b5139c76c00000002f498409c27c6c451f698"
                    },
                    {
                        "current": "0x000000000003f37282ea04adb06c7a48000000000002f7bca2757d2f1171f698",
                        "key": "0x0000000000000000000000000000000000000000000000000000000000000005",
                        "prev": "0x000000000003f503486a3aa2d57fd560000000000002f68e8df9f6ff91b1f698"
                    }
                ],
                "storageVariables": [
                    {
                        "name": "__reserveBalances",
                        "type": "uint256",
                        "value": {
                            "current": "1625333162348895961053844330648049242565543323867461905338726040",
                            "prev": "1627848845749147703348930884853826123986776967769657801750738584",
                            "typeTag": 1
                        }
                    },
                    {
                        "name": "averageRateInfo",
                        "type": "uint256",
                        "value": {
                            "current": "44325167563631280338121000148326545899686564684845439155233609026524766004186",
                            "prev": "44325162884120079224980259256221162317388236637339088396001560375785935730328",
                            "typeTag": 1
                        }
                    }
                ]
            }
        ]
    }
}