{
    "balance_change": {
        "balanceChanges": [
            {
                "account": "0x525ebfa2c02cad538ed4bd0377ecbf51dfa7317c",
                "assets": [
                    {
                        "address": "0x4b3406a41399c7fd2ba65cbc93697ad9e7ea61e5",
                        "amount": "1",
                        "iconUrl": "",
                        "isERC1155": false,
                        "isERC721": true,
                        "sign": false,
                        "tokenID": "5062",
                        "value": ""
                    },
                    {
                        "address": "0xc02aaa39b223fe8d0a0e5c4f27ead9083c756cc2",
                        "amount": "2.625",
                        "iconUrl": "https://assets.blocksec.com/icon/f1cb2d02c471d545bbc7722daf3277fd852d98e63d118771af7047bd8256c516.png",
                        "isERC1155": false,
                        "isERC721": false,
                        "sign": true,
                        "value": "9204.951629999999966"
                    }
                ]
            },
            {
                "account": "0x5b3256965e7c3cf26e11fcaf296dfc8807c01073",
                "assets": [
                    {
                        "address": "0xc02aaa39b223fe8d0a0e5c4f27ead9083c756cc2",
                        "amount": "0.375",
                        "iconUrl": "https://assets.blocksec.com/icon/f1cb2d02c471d545bbc7722daf3277fd852d98e63d118771af7047bd8256c516.png",
                        "isERC1155": false,
                        "isERC721": false,
                        "sign": true,
                        "value": "1314.9930899999999951"
                    }
                ]
            },
            {
                "account": "0xae805b9eaa5a04f307b439484ed881e75d36ac73",
                "assets": [
                    {
                        "address": "0x4b3406a41399c7fd2ba65cbc93697ad9e7ea61e5",
                        "amount": "1",
                        "iconUrl": "",
                        "isERC1155": false,
                        "isERC721": true,
                        "sign": true,
                        "tokenID": "5062",
                        "value": ""
                    },
                    {
                        "address": "0xc02aaa39b223fe8d0a0e5c4f27ead9083c756cc2",
                        "amount": "3",
                        "iconUrl": "https://assets.blocksec.com/icon/f1cb2d02c471d545bbc7722daf3277fd852d98e63d118771af7047bd8256c516.png",
                        "isERC1155": false,
                        "isERC721": false,
                        "sign": false,
                        "value": "10519.944719999999961"
                    }
                ]
            }
        ]
    },
    "profile": {
        "basic_info": {
            "baseFee": "58.273745647",
            "blockNumber": 13298246,
            "callData": "0xab834bab0000000000000000000000007be8076f4ea4a4ad08075c2508e481d6c946d12b000000000000000000000000ae805b9eaa5a04f307b439484ed881e75d36ac7300000000000000000000000000000000000000000000000000000000000000000000000000000000000000005b3256965e7c3cf26e11fcaf296dfc8807c010730000000000000000000000004b3406a41399c7fd2ba65cbc93697ad9e7ea61e50000000000000000000000000000000000000000000000000000000000000000000000000000000000000000c02aaa39b223fe8d0a0e5c4f27ead9083c756cc20000000000000000000000007be8076f4ea4a4ad08075c2508e481d6c946d12b000000000000000000000000525ebfa2c02cad538ed4bd0377ecbf51dfa7317c000000000000000000000000ae805b9eaa5a04f307b439484ed881e75d36ac7300000000000000000000000000000000000000000000000000000000000000000000000000000000000000004b3406a41399c7fd2ba65cbc93697ad9e7ea61e50000000000000000000000000000000000000000000000000000000000000000000000000000000000000000c02aaa39b223fe8d0a0e5c4f27ead9083c756cc2000000000000000000000000000000000000000000000000000000000000000000000000000000000000000000000000000000000000000000000000000004e20000000000000000000000000000000000000000000000000000000000000000000000000000000000000000000000000000000000000000000000000000000000000000000000000000000000000000000000000000000029a2241af62c0000000000000000000000000000000000000000000000000000000000000000000000000000000000000000000000000000000000000000000000000000614fb5f200000000000000000000000000000000000000000000000000000000615107ce80b9c57ad5cadbee21b7a87ac7ae87c1335e20e9e9dd53891efe1090cdce06cf000000000000000000000000000000000000000000000000000000000000000000000000000000000000000000000000000000000000000000000000000004e20000000000000000000000000000000000000000000000000000000000000000000000000000000000000000000000000000000000000000000000000000000000000000000000000000000000000000000000000000000029a2241af62c0000000000000000000000000000000000000000000000000000000000000000000000000000000000000000000000000000000000000000000000000000614fbe5600000000000000000000000000000000000000000000000000000000000000009f3f5a6792a245011c8a1e3c20b2fd6825d3c042f32e2364245ae471c948bd4e0000000000000000000000000000000000000000000000000000000000000001000000000000000000000000000000000000000000000000000000000000000000000000000000000000000000000000000000000000000000000000000000000000000000000000000000000000000000000000000000000000000000000000000000000000000000000000000000000000000000000000000000000000000100000000000000000000000000000000000000000000000000000000000000010000000000000000000000000000000000000000000000000000000000000000000000000000000000000000000000000000000000000000000000000000000000000000000000000000000000000000000000000000000000000000000006a0000000000000000000000000000000000000000000000000000000000000074000000000000000000000000000000000000000000000000000000000000007e0000000000000000000000000000000000000000000000000000000000000088000000000000000000000000000000000000000000000000000000000000009200000000000000000000000000000000000000000000000000000000000000940000000000000000000000000000000000000000000000000000000000000001b000000000000000000000000000000000000000000000000000000000000001b8be5285e9acc5ec9a2265b9894df33f47b22ae64429eba17b3414d23149e91ec14697d000625f49068c076f373f8f1f568f54e93785229a5feebb7104b86b2be8be5285e9acc5ec9a2265b9894df33f47b22ae64429eba17b3414d23149e91ec14697d000625f49068c076f373f8f1f568f54e93785229a5feebb7104b86b2bef8724f48c67538cf9ef7da6ed8a33798576613fd000000000000000000000000000000000000000000000000000000000000000000000000000000000000006423b872dd0000000000000000000000000000000000000000000000000000000000000000000000000000000000000000ae805b9eaa5a04f307b439484ed881e75d36ac7300000000000000000000000000000000000000000000000000000000000013c600000000000000000000000000000000000000000000000000000000000000000000000000000000000000000000000000000000000000000000006423b872dd000000000000000000000000525ebfa2c02cad538ed4bd0377ecbf51dfa7317c000000000000000000000000000000000000000000000000000000000000000000000000000000000000000000000000000000000000000000000000000013c600000000000000000000000000000000000000000000000000000000000000000000000000000000000000000000000000000000000000000000006400000000ffffffffffffffffffffffffffffffffffffffffffffffffffffffffffffffff00000000000000000000000000000000000000000000000000000000000000000000000000000000000000000000000000000000000000000000000000000000000000000000000000000000000000000000000000000000000000000000000000000000000000000000000000000000000000000000000000000064000000000000000000000000000000000000000000000000000000000000000000000000ffffffffffffffffffffffffffffffffffffffffffffffffffffffffffffffff00000000000000000000000000000000000000000000000000000000000000000000000000000000000000000000000000000000000000000000000000000000000000000000000000000000000000000000000000000000000000000000000000000000000000000000000000000000000000000000000000000000",
            "debugEnable": true,
            "errorInfo": "",
            "eventCount": 5,
            "feeRecipient": "0x52bc44d5378309ee2abf1539bf71de1b7d7be3b5",
            "formatValue": "0",
            "gasLimit": 284650,
            "gasPrice": "59.773745647",
            "gasUsed": 214020,
            "intTxnCount": 14,
            "internalRevert": false,
            "internalRevertMessage": "",
            "isContractCreation": false,
            "isFlashloan": false,
            "maxFee": "66.059108825",
            "nonce": 326,
            "overwritedBlockNumber": -1,
            "priorityFee": "1.5",
            "receiver": "0x7be8076f4ea4a4ad08075c2508e481d6c946d12b",
            "revertMessage": "",
            "sender": "0x525ebfa2c02cad538ed4bd0377ecbf51dfa7317c",
            "simulationEnable": true,
            "sourceTxnHash": "0xfee1f7ace58126590adfa407811edbddce2ed7c9c1b06dc10151721a1d58c43d",
            "status": true,
            "timestamp": "2021-09-26T00:28:57Z",
            "transactionFee": "0.01279277704337094",
            "txnHash": "0xfee1f7ace58126590adfa407811edbddce2ed7c9c1b06dc10151721a1d58c43d",
            "txnIndex": 11,
            "type": 2,
            "value": "0"
        },
        "fund_flow": [
            {
                "amount": "3",
                "from": "0xae805b9eaa5a04f307b439484ed881e75d36ac73",
                "id": 1,
                "isERC1155": false,
                "isERC721": false,
                "isReverted": false,
                "order": 1,
                "to": "0x525ebfa2c02cad538ed4bd0377ecbf51dfa7317c",
                "token": "0xc02aaa39b223fe8d0a0e5c4f27ead9083c756cc2"
            },
            {
                "amount": "0.375",
                "from": "0x525ebfa2c02cad538ed4bd0377ecbf51dfa7317c",
                "id": 2,
                "isERC1155": false,
                "isERC721": false,
                "isReverted": false,
                "order": 2,
                "to": "0x5b3256965e7c3cf26e11fcaf296dfc8807c01073",
                "token": "0xc02aaa39b223fe8d0a0e5c4f27ead9083c756cc2"
            },
            {
                "amount": "1",
                "from": "0x525ebfa2c02cad538ed4bd0377ecbf51dfa7317c",
                "id": 3,
                "isERC1155": false,
                "isERC721": true,
                "isReverted": false,
                "order": 3,
                "to": "0xae805b9eaa5a04f307b439484ed881e75d36ac73",
                "token": "0x4b3406a41399c7fd2ba65cbc93697ad9e7ea61e5",
                "tokenID": "5062"
            }
        ],
        "token_infos": [
            {
                "address": "0xc02aaa39b223fe8d0a0e5c4f27ead9083c756cc2",
                "decimals": 18
            },
            {
                "address": "0xeeeeeeeeeeeeeeeeeeeeeeeeeeeeeeeeeeeeeeee",
                "decimals": 18
            }
        ]
    },
    "address_label": {
        "labels": [
            {
                "address": "0xa5409ec958c83c3f309868babaca7c86dcb077c1",
                "label": "OpenSea: Registry"
            },
            {
                "address": "0xc02aaa39b223fe8d0a0e5c4f27ead9083c756cc2",
                "label": "Wrapped Ether (WETH)"
            },
            {
                "address": "0x0000000000000000000000000000000000000001",
                "label": "Precompiled"
            },
            {
                "address": "0x0000000000000000000000000000000000000002",
                "label": "Precompiled"
            },
            {
                "address": "0x7be8076f4ea4a4ad08075c2508e481d6c946d12b",
                "label": "OpenSea: Wyvern Exchange v1"
            },
            {
                "address": "0x0000000000000000000000000000000000000000",
                "label": "Null Address"
            },
            {
                "address": "0x0000000000000000000000000000000000000003",
                "label": "Precompiled"
            },
            {
                "address": "0x0000000000000000000000000000000000000004",
                "label": "Precompiled"
            },
            {
                "address": "0x5b3256965e7c3cf26e11fcaf296dfc8807c01073",
                "label": "OpenSea: Wallet"
            },
            {
                "address": "0xe5c783ee536cf5e63e792988335c4255169be4e1",
                "label": "OpenSea: Wyvern Token Transfer Proxy"
            },
            {
                "address": "0xf9e266af4bca5890e2781812cc6a6e89495a79f2",
                "label": "AuthenticatedProxy"
            },
            {
                "address": "0x4b3406a41399c7fd2ba65cbc93697ad9e7ea61e5",
                "label": "Lost Poets: POETS Token"
            },
            {
                "address": "0xe4f85357b346cff4bcb1258504396f6c0062218e",
                "label": "OwnableDelegateProxy"
            },
            {
                "address": "0xeeeeeeeeeeeeeeeeeeeeeeeeeeeeeeeeeeeeeeee",
                "label": "Ether"
            }
        ]
    },
    "trace": {
        "accountLabels": null,
        "dataMap": {
            "-1": {
                "invocation": {
                    "address": "0x525ebfa2c02cad538ed4bd0377ecbf51dfa7317c",
                    "callData": "",
                    "decodedMethod": null,
                    "errorInfo": "",
                    "fromAddress": "",
                    "gasUsed": 0,
                    "id": -1,
                    "methodDecoded": false,
                    "operation": "",
                    "output": "",
                    "revert": false,
                    "revertMessage": "",
                    "selector": "",
                    "status": false,
                    "value": ""
                },
                "nodeType": 0
            },
            "0": {
                "invocation": {
                    "address": "0x7be8076f4ea4a4ad08075c2508e481d6c946d12b",
                    "callData": "0x0000000000000000000000007be8076f4ea4a4ad08075c2508e481d6c946d12b000000000000000000000000ae805b9eaa5a04f307b439484ed881e75d36ac7300000000000000000000000000000000000000000000000000000000000000000000000000000000000000005b3256965e7c3cf26e11fcaf296dfc8807c010730000000000000000000000004b3406a41399c7fd2ba65cbc93697ad9e7ea61e50000000000000000000000000000000000000000000000000000000000000000000000000000000000000000c02aaa39b223fe8d0a0e5c4f27ead9083c756cc20000000000000000000000007be8076f4ea4a4ad08075c2508e481d6c946d12b000000000000000000000000525ebfa2c02cad538ed4bd0377ecbf51dfa7317c000000000000000000000000ae805b9eaa5a04f307b439484ed881e75d36ac7300000000000000000000000000000000000000000000000000000000000000000000000000000000000000004b3406a41399c7fd2ba65cbc93697ad9e7ea61e50000000000000000000000000000000000000000000000000000000000000000000000000000000000000000c02aaa39b223fe8d0a0e5c4f27ead9083c756cc2000000000000000000000000000000000000000000000000000000000000000000000000000000000000000000000000000000000000000000000000000004e20000000000000000000000000000000000000000000000000000000000000000000000000000000000000000000000000000000000000000000000000000000000000000000000000000000000000000000000000000000029a2241af62c0000000000000000000000000000000000000000000000000000000000000000000000000000000000000000000000000000000000000000000000000000614fb5f200000000000000000000000000000000000000000000000000000000615107ce80b9c57ad5cadbee21b7a87ac7ae87c1335e20e9e9dd53891efe1090cdce06cf000000000000000000000000000000000000000000000000000000000000000000000000000000000000000000000000000000000000000000000000000004e20000000000000000000000000000000000000000000000000000000000000000000000000000000000000000000000000000000000000000000000000000000000000000000000000000000000000000000000000000000029a2241af62c0000000000000000000000000000000000000000000000000000000000000000000000000000000000000000000000000000000000000000000000000000614fbe5600000000000000000000000000000000000000000000000000000000000000009f3f5a6792a245011c8a1e3c20b2fd6825d3c042f32e2364245ae471c948bd4e0000000000000000000000000000000000000000000000000000000000000001000000000000000000000000000000000000000000000000000000000000000000000000000000000000000000000000000000000000000000000000000000000000000000000000000000000000000000000000000000000000000000000000000000000000000000000000000000000000000000000000000000000000000100000000000000000000000000000000000000000000000000000000000000010000000000000000000000000000000000000000000000000000000000000000000000000000000000000000000000000000000000000000000000000000000000000000000000000000000000000000000000000000000000000000000006a0000000000000000000000000000000000000000000000000000000000000074000000000000000000000000000000000000000000000000000000000000007e0000000000000000000000000000000000000000000000000000000000000088000000000000000000000000000000000000000000000000000000000000009200000000000000000000000000000000000000000000000000000000000000940000000000000000000000000000000000000000000000000000000000000001b000000000000000000000000000000000000000000000000000000000000001b8be5285e9acc5ec9a2265b9894df33f47b22ae64429eba17b3414d23149e91ec14697d000625f49068c076f373f8f1f568f54e93785229a5feebb7104b86b2be8be5285e9acc5ec9a2265b9894df33f47b22ae64429eba17b3414d23149e91ec14697d000625f49068c076f373f8f1f568f54e93785229a5feebb7104b86b2bef8724f48c67538cf9ef7da6ed8a33798576613fd000000000000000000000000000000000000000000000000000000000000000000000000000000000000006423b872dd0000000000000000000000000000000000000000000000000000000000000000000000000000000000000000ae805b9eaa5a04f307b439484ed881e75d36ac7300000000000000000000000000000000000000000000000000000000000013c600000000000000000000000000000000000000000000000000000000000000000000000000000000000000000000000000000000000000000000006423b872dd000000000000000000000000525ebfa2c02cad538ed4bd0377ecbf51dfa7317c000000000000000000000000000000000000000000000000000000000000000000000000000000000000000000000000000000000000000000000000000013c600000000000000000000000000000000000000000000000000000000000000000000000000000000000000000000000000000000000000000000006400000000ffffffffffffffffffffffffffffffffffffffffffffffffffffffffffffffff00000000000000000000000000000000000000000000000000000000000000000000000000000000000000000000000000000000000000000000000000000000000000000000000000000000000000000000000000000000000000000000000000000000000000000000000000000000000000000000000000000064000000000000000000000000000000000000000000000000000000000000000000000000ffffffffffffffffffffffffffffffffffffffffffffffffffffffffffffffff00000000000000000000000000000000000000000000000000000000000000000000000000000000000000000000000000000000000000000000000000000000000000000000000000000000000000000000000000000000000000000000000000000000000000000000000000000000000000000000000000000000",
                    "decodedMethod": {
                        "callParams": [
                            {
                                "name": "addrs",
                                "type": "address[14]",
                                "value": [
                                    "0x7be8076f4ea4a4ad08075c2508e481d6c946d12b",
                                    "0xae805b9eaa5a04f307b439484ed881e75d36ac73",
                                    "0x0000000000000000000000000000000000000000",
                                    "0x5b3256965e7c3cf26e11fcaf296dfc8807c01073",
                                    "0x4b3406a41399c7fd2ba65cbc93697ad9e7ea61e5",
                                    "0x0000000000000000000000000000000000000000",
                                    "0xc02aaa39b223fe8d0a0e5c4f27ead9083c756cc2",
                                    "0x7be8076f4ea4a4ad08075c2508e481d6c946d12b",
                                    "0x525ebfa2c02cad538ed4bd0377ecbf51dfa7317c",
                                    "0xae805b9eaa5a04f307b439484ed881e75d36ac73",
                                    "0x0000000000000000000000000000000000000000",
                                    "0x4b3406a41399c7fd2ba65cbc93697ad9e7ea61e5",
                                    "0x0000000000000000000000000000000000000000",
                                    "0xc02aaa39b223fe8d0a0e5c4f27ead9083c756cc2"
                                ]
                            },
                            {
                                "name": "uints",
                                "type": "uint256[18]",
                                "value": [
                                    "0",
                                    "1,250",
                                    "0",
                                    "0",
                                    "3,000,000,000,000,000,000",
                                    "0",
                                    "1,632,613,874",
                                    "1,632,700,366",
                                    "58,224,274,281,300,879,465,958,638,149,979,276,687,262,613,946,170,304,812,646,715,666,099,189,188,303",
                                    "0",
                                    "1,250",
                                    "0",
                                    "0",
                                    "3,000,000,000,000,000,000",
                                    "0",
                                    "1,632,616,022",
                                    "0",
                                    "72,029,678,239,308,460,235,261,857,988,392,958,236,277,489,014,415,381,012,433,424,426,533,669,879,118"
                                ]
                            },
                            {
                                "name": "feeMethodsSidesKindsHowToCalls",
                                "type": "uint8[8]",
                                "value": [
                                    "1",
                                    "0",
                                    "0",
                                    "0",
                                    "1",
                                    "1",
                                    "0",
                                    "0"
                                ]
                            },
                            {
                                "name": "calldataBuy",
                                "type": "bytes",
                                "value": "0x23b872dd0000000000000000000000000000000000000000000000000000000000000000000000000000000000000000ae805b9eaa5a04f307b439484ed881e75d36ac7300000000000000000000000000000000000000000000000000000000000013c6"
                            },
                            {
                                "name": "calldataSell",
                                "type": "bytes",
                                "value": "0x23b872dd000000000000000000000000525ebfa2c02cad538ed4bd0377ecbf51dfa7317c000000000000000000000000000000000000000000000000000000000000000000000000000000000000000000000000000000000000000000000000000013c6"
                            },
                            {
                                "name": "replacementPatternBuy",
                                "type": "bytes",
                                "value": "0x00000000ffffffffffffffffffffffffffffffffffffffffffffffffffffffffffffffff00000000000000000000000000000000000000000000000000000000000000000000000000000000000000000000000000000000000000000000000000000000"
                            },
                            {
                                "name": "replacementPatternSell",
                                "type": "bytes",
                                "value": "0x000000000000000000000000000000000000000000000000000000000000000000000000ffffffffffffffffffffffffffffffffffffffffffffffffffffffffffffffff0000000000000000000000000000000000000000000000000000000000000000"
                            },
                            {
                                "name": "staticExtradataBuy",
                                "type": "bytes",
                                "value": "0x"
                            },
                            {
                                "name": "staticExtradataSell",
                                "type": "bytes",
                                "value": "0x"
                            },
                            {
                                "name": "vs",
                                "type": "uint8[2]",
                                "value": [
                                    "27",
                                    "27"
                                ]
                            },
                            {
                                "name": "rssMetadata",
                                "type": "bytes32[5]",
                                "value": [
                                    "0x8be5285e9acc5ec9a2265b9894df33f47b22ae64429eba17b3414d23149e91ec",
                                    "0x14697d000625f49068c076f373f8f1f568f54e93785229a5feebb7104b86b2be",
                                    "0x8be5285e9acc5ec9a2265b9894df33f47b22ae64429eba17b3414d23149e91ec",
                                    "0x14697d000625f49068c076f373f8f1f568f54e93785229a5feebb7104b86b2be",
                                    "0xf8724f48c67538cf9ef7da6ed8a33798576613fd000000000000000000000000"
                                ]
                            }
                        ],
                        "constructorArguments": "",
                        "name": "atomicMatch_",
                        "returnParams": [],
                        "signature": "atomicMatch_(address[14],uint256[18],uint8[8],bytes,bytes,bytes,bytes,bytes,bytes,uint8[2],bytes32[5])"
                    },
                    "errorInfo": "",
                    "fromAddress": "0x525ebfa2c02cad538ed4bd0377ecbf51dfa7317c",
                    "gasUsed": 214020,
                    "id": 0,
                    "methodDecoded": true,
                    "operation": "CALL",
                    "output": "",
                    "revert": false,
                    "revertMessage": "",
                    "selector": "0xab834bab",
                    "status": true,
                    "value": "0"
                },
                "nodeType": 0
            },
            "1": {
                "invocation": {
                    "address": "0x0000000000000000000000000000000000000001",
                    "callData": "0x532da646058ddcf97d40904c9e23414a9ad5a2b1b686ecdec21a23d0000000000000000000000000000000000000000000000000000000000000001b8be5285e9acc5ec9a2265b9894df33f47b22ae64429eba17b3414d23149e91ec14697d000625f49068c076f373f8f1f568f54e93785229a5feebb7104b86b2be",
                    "decodedMethod": {
                        "callParams": [
                            {
                                "name": "hash",
                                "type": "bytes32",
                                "value": "0xba1b60bf532da646058ddcf97d40904c9e23414a9ad5a2b1b686ecdec21a23d0"
                            },
                            {
                                "name": "v",
                                "type": "uint256",
                                "value": "27"
                            },
                            {
                                "name": "r",
                                "type": "bytes32",
                                "value": "0x8be5285e9acc5ec9a2265b9894df33f47b22ae64429eba17b3414d23149e91ec"
                            },
                            {
                                "name": "s",
                                "type": "bytes32",
                                "value": "0x14697d000625f49068c076f373f8f1f568f54e93785229a5feebb7104b86b2be"
                            }
                        ],
                        "constructorArguments": "",
                        "name": "ecrecover",
                        "returnParams": [
                            {
                                "name": "",
                                "type": "address",
                                "value": "0xae805b9eaa5a04f307b439484ed881e75d36ac73"
                            }
                        ],
                        "signature": "ecrecover(bytes32,uint256,bytes32,bytes32)"
                    },
                    "errorInfo": "",
                    "fromAddress": "0x7be8076f4ea4a4ad08075c2508e481d6c946d12b",
                    "gasUsed": 3000,
                    "id": 1,
                    "methodDecoded": true,
                    "operation": "CALL",
                    "output": "0x000000000000000000000000ae805b9eaa5a04f307b439484ed881e75d36ac73",
                    "revert": false,
                    "revertMessage": "",
                    "selector": "0xba1b60bf",
                    "status": true,
                    "value": "0"
                },
                "nodeType": 0
            },
            "10": {
                "invocation": {
                    "address": "0xa5409ec958c83c3f309868babaca7c86dcb077c1",
                    "callData": "0x0000000000000000000000007be8076f4ea4a4ad08075c2508e481d6c946d12b",
                    "decodedMethod": {
                        "callParams": [
                            {
                                "name": "",
                                "type": "address",
                                "value": "0x7be8076f4ea4a4ad08075c2508e481d6c946d12b"
                            }
                        ],
                        "constructorArguments": "",
                        "name": "contracts",
                        "returnParams": [
                            {
                                "name": "",
                                "type": "bool",
                                "value": true
                            }
                        ],
                        "signature": "contracts(address)"
                    },
                    "errorInfo": "",
                    "fromAddress": "0xe5c783ee536cf5e63e792988335c4255169be4e1",
                    "gasUsed": 553,
                    "id": 10,
                    "methodDecoded": true,
                    "operation": "CALL",
                    "output": "0x0000000000000000000000000000000000000000000000000000000000000001",
                    "revert": false,
                    "revertMessage": "",
                    "selector": "0x69dc9ff3",
                    "status": true,
                    "value": "0"
                },
                "nodeType": 0
            },
            "11": {
                "invocation": {
                    "address": "0xc02aaa39b223fe8d0a0e5c4f27ead9083c756cc2",
                    "callData": "0x000000000000000000000000525ebfa2c02cad538ed4bd0377ecbf51dfa7317c0000000000000000000000005b3256965e7c3cf26e11fcaf296dfc8807c01073000000000000000000000000000000000000000000000000053444835ec58000",
                    "decodedMethod": {
                        "callParams": [
                            {
                                "name": "src",
                                "type": "address",
                                "value": "0x525ebfa2c02cad538ed4bd0377ecbf51dfa7317c"
                            },
                            {
                                "name": "dst",
                                "type": "address",
                                "value": "0x5b3256965e7c3cf26e11fcaf296dfc8807c01073"
                            },
                            {
                                "decimalAvailable": true,
                                "name": "wad",
                                "type": "uint256",
                                "value": "375,000,000,000,000,000"
                            }
                        ],
                        "constructorArguments": "",
                        "name": "transferFrom",
                        "returnParams": [
                            {
                                "name": "",
                                "type": "bool",
                                "value": true
                            }
                        ],
                        "signature": "transferFrom(address,address,uint256)"
                    },
                    "errorInfo": "",
                    "fromAddress": "0xe5c783ee536cf5e63e792988335c4255169be4e1",
                    "gasUsed": 10225,
                    "id": 11,
                    "methodDecoded": true,
                    "operation": "CALL",
                    "output": "0x0000000000000000000000000000000000000000000000000000000000000001",
                    "revert": false,
                    "revertMessage": "",
                    "selector": "0x23b872dd",
                    "status": true,
                    "value": "0"
                },
                "nodeType": 0
            },
            "12": {
                "event": {
                    "contract": "0xc02aaa39b223fe8d0a0e5c4f27ead9083c756cc2",
                    "decodedLog": {
                        "name": "Transfer",
                        "params": [
                            {
                                "name": "src",
                                "type": "address",
                                "value": "0x525ebfa2c02cad538ed4bd0377ecbf51dfa7317c"
                            },
                            {
                                "name": "dst",
                                "type": "address",
                                "value": "0x5b3256965e7c3cf26e11fcaf296dfc8807c01073"
                            },
                            {
                                "decimalAvailable": true,
                                "name": "wad",
                                "type": "uint256",
                                "value": "375,000,000,000,000,000"
                            }
                        ],
                        "signature": "Transfer(address,address,uint256)"
                    },
                    "id": 12,
                    "logData": "0x000000000000000000000000000000000000000000000000053444835ec58000",
                    "logDecoded": true,
                    "operation": "EVENT",
                    "revert": false,
                    "status": true,
                    "topics": [
                        "0xddf252ad1be2c89b69c2b068fc378daa952ba7f163c4a11628f55a4df523b3ef",
                        "0x000000000000000000000000525ebfa2c02cad538ed4bd0377ecbf51dfa7317c",
                        "0x0000000000000000000000005b3256965e7c3cf26e11fcaf296dfc8807c01073"
                    ]
                },
                "nodeType": 1
            },
            "13": {
                "invocation": {
                    "address": "0xe4f85357b346cff4bcb1258504396f6c0062218e",
                    "callData": "0x0000000000000000000000004b3406a41399c7fd2ba65cbc93697ad9e7ea61e500000000000000000000000000000000000000000000000000000000000000000000000000000000000000000000000000000000000000000000000000000060000000000000000000000000000000000000000000000000000000000000006423b872dd000000000000000000000000525ebfa2c02cad538ed4bd0377ecbf51dfa7317c000000000000000000000000ae805b9eaa5a04f307b439484ed881e75d36ac7300000000000000000000000000000000000000000000000000000000000013c600000000000000000000000000000000000000000000000000000000",
                    "decodedMethod": {
                        "callParams": [
                            {
                                "name": "dest",
                                "type": "address",
                                "value": "0x4b3406a41399c7fd2ba65cbc93697ad9e7ea61e5"
                            },
                            {
                                "name": "howToCall",
                                "type": "uint8",
                                "value": "0"
                            },
                            {
                                "name": "calldata",
                                "type": "bytes",
                                "value": "0x23b872dd000000000000000000000000525ebfa2c02cad538ed4bd0377ecbf51dfa7317c000000000000000000000000ae805b9eaa5a04f307b439484ed881e75d36ac7300000000000000000000000000000000000000000000000000000000000013c6"
                            }
                        ],
                        "constructorArguments": "",
                        "name": "proxy",
                        "returnParams": [
                            {
                                "name": "result",
                                "type": "bool",
                                "value": true
                            }
                        ],
                        "signature": "proxy(address,uint8,bytes)"
                    },
                    "errorInfo": "",
                    "fromAddress": "0x7be8076f4ea4a4ad08075c2508e481d6c946d12b",
                    "gasUsed": 36281,
                    "id": 13,
                    "methodDecoded": true,
                    "operation": "CALL",
                    "output": "0x0000000000000000000000000000000000000000000000000000000000000001",
                    "revert": false,
                    "revertMessage": "",
                    "selector": "0x1b0f7ba9",
                    "status": true,
                    "value": "0"
                },
                "nodeType": 0
            },
            "14": {
                "invocation": {
                    "address": "0xf9e266af4bca5890e2781812cc6a6e89495a79f2",
                    "callData": "0x0000000000000000000000004b3406a41399c7fd2ba65cbc93697ad9e7ea61e500000000000000000000000000000000000000000000000000000000000000000000000000000000000000000000000000000000000000000000000000000060000000000000000000000000000000000000000000000000000000000000006423b872dd000000000000000000000000525ebfa2c02cad538ed4bd0377ecbf51dfa7317c000000000000000000000000ae805b9eaa5a04f307b439484ed881e75d36ac7300000000000000000000000000000000000000000000000000000000000013c600000000000000000000000000000000000000000000000000000000",
                    "decodedMethod": {
                        "callParams": [
                            {
                                "name": "dest",
                                "type": "address",
                                "value": "0x4b3406a41399c7fd2ba65cbc93697ad9e7ea61e5"
                            },
                            {
                                "name": "howToCall",
                                "type": "uint8",
                                "value": "0"
                            },
                            {
                                "name": "calldata",
                                "type": "bytes",
                                "value": "0x23b872dd000000000000000000000000525ebfa2c02cad538ed4bd0377ecbf51dfa7317c000000000000000000000000ae805b9eaa5a04f307b439484ed881e75d36ac7300000000000000000000000000000000000000000000000000000000000013c6"
                            }
                        ],
                        "constructorArguments": "",
                        "name": "proxy",
                        "returnParams": [
                            {
                                "name": "result",
                                "type": "bool",
                                "value": true
                            }
                        ],
                        "signature": "proxy(address,uint8,bytes)"
                    },
                    "errorInfo": "",
                    "fromAddress": "0xe4f85357b346cff4bcb1258504396f6c0062218e",
                    "gasUsed": 33021,
                    "id": 14,
                    "methodDecoded": true,
                    "operation": "DELEGATECALL",
                    "output": "0x0000000000000000000000000000000000000000000000000000000000000001",
                    "revert": false,
                    "revertMessage": "",
                    "selector": "0x1b0f7ba9",
                    "status": true,
                    "value": "0"
                },
                "nodeType": 0
            },
            "15": {
                "invocation": {
                    "address": "0xa5409ec958c83c3f309868babaca7c86dcb077c1",
                    "callData": "0x0000000000000000000000007be8076f4ea4a4ad08075c2508e481d6c946d12b",
                    "decodedMethod": {
                        "callParams": [
                            {
                                "name": "",
                                "type": "address",
                                "value": "0x7be8076f4ea4a4ad08075c2508e481d6c946d12b"
                            }
                        ],
                        "constructorArguments": "",
                        "name": "contracts",
                        "returnParams": [
                            {
                                "name": "",
                                "type": "bool",
                                "value": true
                            }
                        ],
                        "signature": "contracts(address)"
                    },
                    "errorInfo": "",
                    "fromAddress": "0xe4f85357b346cff4bcb1258504396f6c0062218e",
                    "gasUsed": 553,
                    "id": 15,
                    "methodDecoded": true,
                    "operation": "CALL",
                    "output": "0x0000000000000000000000000000000000000000000000000000000000000001",
                    "revert": false,
                    "revertMessage": "",
                    "selector": "0x69dc9ff3",
                    "status": true,
                    "value": "0"
                },
                "nodeType": 0
            },
            "16": {
                "invocation": {
                    "address": "0x4b3406a41399c7fd2ba65cbc93697ad9e7ea61e5",
                    "callData": "0x000000000000000000000000525ebfa2c02cad538ed4bd0377ecbf51dfa7317c000000000000000000000000ae805b9eaa5a04f307b439484ed881e75d36ac7300000000000000000000000000000000000000000000000000000000000013c600000000000000000000000000000000000000000000000000000000",
                    "decodedMethod": {
                        "callParams": [
                            {
                                "name": "from",
                                "type": "address",
                                "value": "0x525ebfa2c02cad538ed4bd0377ecbf51dfa7317c"
                            },
                            {
                                "name": "to",
                                "type": "address",
                                "value": "0xae805b9eaa5a04f307b439484ed881e75d36ac73"
                            },
                            {
                                "decimalAvailable": true,
                                "name": "tokenId",
                                "type": "uint256",
                                "value": "5,062"
                            }
                        ],
                        "constructorArguments": "",
                        "name": "transferFrom",
                        "returnParams": [],
                        "signature": "transferFrom(address,address,uint256)"
                    },
                    "errorInfo": "",
                    "fromAddress": "0xe4f85357b346cff4bcb1258504396f6c0062218e",
                    "gasUsed": 26124,
                    "id": 16,
                    "methodDecoded": true,
                    "operation": "CALL",
                    "output": "",
                    "revert": false,
                    "revertMessage": "",
                    "selector": "0x23b872dd",
                    "status": true,
                    "value": "0"
                },
                "nodeType": 0
            },
            "17": {
                "event": {
                    "contract": "0x4b3406a41399c7fd2ba65cbc93697ad9e7ea61e5",
                    "decodedLog": {
                        "name": "Approval",
                        "params": [
                            {
                                "name": "owner",
                                "type": "address",
                                "value": "0x525ebfa2c02cad538ed4bd0377ecbf51dfa7317c"
                            },
                            {
                                "name": "approved",
                                "type": "address",
                                "value": "0x0000000000000000000000000000000000000000"
                            },
                            {
                                "decimalAvailable": true,
                                "name": "tokenId",
                                "type": "uint256",
                                "value": "5,062"
                            }
                        ],
                        "signature": "Approval(address,address,uint256)"
                    },
                    "id": 17,
                    "logData": "0x",
                    "logDecoded": true,
                    "operation": "EVENT",
                    "revert": false,
                    "status": true,
                    "topics": [
                        "0x8c5be1e5ebec7d5bd14f71427d1e84f3dd0314c0f7b2291e5b200ac8c7c3b925",
                        "0x000000000000000000000000525ebfa2c02cad538ed4bd0377ecbf51dfa7317c",
                        "0x0000000000000000000000000000000000000000000000000000000000000000",
                        "0x00000000000000000000000000000000000000000000000000000000000013c6"
                    ]
                },
                "nodeType": 1
            },
            "18": {
                "event": {
                    "contract": "0x4b3406a41399c7fd2ba65cbc93697ad9e7ea61e5",
                    "decodedLog": {
                        "name": "Transfer",
                        "params": [
                            {
                                "name": "from",
                                "type": "address",
                                "value": "0x525ebfa2c02cad538ed4bd0377ecbf51dfa7317c"
                            },
                            {
                                "name": "to",
                                "type": "address",
                                "value": "0xae805b9eaa5a04f307b439484ed881e75d36ac73"
                            },
                            {
                                "decimalAvailable": true,
                                "name": "tokenId",
                                "type": "uint256",
                                "value": "5,062"
                            }
                        ],
                        "signature": "Transfer(address,address,uint256)"
                    },
                    "id": 18,
                    "logData": "0x",
                    "logDecoded": true,
                    "operation": "EVENT",
                    "revert": false,
                    "status": true,
                    "topics": [
                        "0xddf252ad1be2c89b69c2b068fc378daa952ba7f163c4a11628f55a4df523b3ef",
                        "0x000000000000000000000000525ebfa2c02cad538ed4bd0377ecbf51dfa7317c",
                        "0x000000000000000000000000ae805b9eaa5a04f307b439484ed881e75d36ac73",
                        "0x00000000000000000000000000000000000000000000000000000000000013c6"
                    ]
                },
                "nodeType": 1
            },
            "19": {
                "event": {
                    "contract": "0x7be8076f4ea4a4ad08075c2508e481d6c946d12b",
                    "decodedLog": {
                        "name": "OrdersMatched",
                        "params": [
                            {
                                "name": "maker",
                                "type": "address",
                                "value": "0xae805b9eaa5a04f307b439484ed881e75d36ac73"
                            },
                            {
                                "name": "taker",
                                "type": "address",
                                "value": "0x525ebfa2c02cad538ed4bd0377ecbf51dfa7317c"
                            },
                            {
                                "name": "metadata",
                                "type": "bytes32",
                                "value": "0xf8724f48c67538cf9ef7da6ed8a33798576613fd000000000000000000000000"
                            },
                            {
                                "name": "buyHash",
                                "type": "bytes32",
                                "value": "0xba1b60bf532da646058ddcf97d40904c9e23414a9ad5a2b1b686ecdec21a23d0"
                            },
                            {
                                "name": "sellHash",
                                "type": "bytes32",
                                "value": "0x0000000000000000000000000000000000000000000000000000000000000000"
                            },
                            {
                                "name": "price",
                                "type": "uint256",
                                "value": "3,000,000,000,000,000,000"
                            }
                        ],
                        "signature": "OrdersMatched(bytes32,bytes32,address,address,uint256,bytes32)"
                    },
                    "id": 19,
                    "logData": "0xba1b60bf532da646058ddcf97d40904c9e23414a9ad5a2b1b686ecdec21a23d0000000000000000000000000000000000000000000000000000000000000000000000000000000000000000000000000000000000000000029a2241af62c0000",
                    "logDecoded": true,
                    "operation": "EVENT",
                    "revert": false,
                    "status": true,
                    "topics": [
                        "0xc4109843e0b7d514e4c093114b863f8e7d8d9a458c372cd51bfe526b588006c9",
                        "0x000000000000000000000000ae805b9eaa5a04f307b439484ed881e75d36ac73",
                        "0x000000000000000000000000525ebfa2c02cad538ed4bd0377ecbf51dfa7317c",
                        "0xf8724f48c67538cf9ef7da6ed8a33798576613fd000000000000000000000000"
                    ]
                },
                "nodeType": 1
            },
            "2": {
                "invocation": {
                    "address": "0xa5409ec958c83c3f309868babaca7c86dcb077c1",
                    "callData": "0x000000000000000000000000525ebfa2c02cad538ed4bd0377ecbf51dfa7317c",
                    "decodedMethod": {
                        "callParams": [
                            {
                                "name": "",
                                "type": "address",
                                "value": "0x525ebfa2c02cad538ed4bd0377ecbf51dfa7317c"
                            }
                        ],
                        "constructorArguments": "",
                        "name": "proxies",
                        "returnParams": [
                            {
                                "name": "",
                                "type": "address",
                                "value": "0xe4f85357b346cff4bcb1258504396f6c0062218e"
                            }
                        ],
                        "signature": "proxies(address)"
                    },
                    "errorInfo": "",
                    "fromAddress": "0x7be8076f4ea4a4ad08075c2508e481d6c946d12b",
                    "gasUsed": 2782,
                    "id": 2,
                    "methodDecoded": true,
                    "operation": "CALL",
                    "output": "0x000000000000000000000000e4f85357b346cff4bcb1258504396f6c0062218e",
                    "revert": false,
                    "revertMessage": "",
                    "selector": "0xc4552791",
                    "status": true,
                    "value": "0"
                },
                "nodeType": 0
            },
            "3": {
                "invocation": {
                    "address": "0xa5409ec958c83c3f309868babaca7c86dcb077c1",
                    "callData": "0x",
                    "decodedMethod": {
                        "callParams": [],
                        "constructorArguments": "",
                        "name": "delegateProxyImplementation",
                        "returnParams": [
                            {
                                "name": "",
                                "type": "address",
                                "value": "0xf9e266af4bca5890e2781812cc6a6e89495a79f2"
                            }
                        ],
                        "signature": "delegateProxyImplementation()"
                    },
                    "errorInfo": "",
                    "fromAddress": "0x7be8076f4ea4a4ad08075c2508e481d6c946d12b",
                    "gasUsed": 2613,
                    "id": 3,
                    "methodDecoded": true,
                    "operation": "CALL",
                    "output": "0x000000000000000000000000f9e266af4bca5890e2781812cc6a6e89495a79f2",
                    "revert": false,
                    "revertMessage": "",
                    "selector": "0x97204d8e",
                    "status": true,
                    "value": "0"
                },
                "nodeType": 0
            },
            "4": {
                "invocation": {
                    "address": "0xe4f85357b346cff4bcb1258504396f6c0062218e",
                    "callData": "0x",
                    "decodedMethod": {
                        "callParams": [],
                        "constructorArguments": "",
                        "name": "implementation",
                        "returnParams": [
                            {
                                "name": "",
                                "type": "address",
                                "value": "0xf9e266af4bca5890e2781812cc6a6e89495a79f2"
                            }
                        ],
                        "signature": "implementation()"
                    },
                    "errorInfo": "",
                    "fromAddress": "0x7be8076f4ea4a4ad08075c2508e481d6c946d12b",
                    "gasUsed": 2525,
                    "id": 4,
                    "methodDecoded": true,
                    "operation": "CALL",
                    "output": "0x000000000000000000000000f9e266af4bca5890e2781812cc6a6e89495a79f2",
                    "revert": false,
                    "revertMessage": "",
                    "selector": "0x5c60da1b",
                    "status": true,
                    "value": "0"
                },
                "nodeType": 0
            },
            "5": {
                "invocation": {
                    "address": "0xe5c783ee536cf5e63e792988335c4255169be4e1",
                    "callData": "0x000000000000000000000000c02aaa39b223fe8d0a0e5c4f27ead9083c756cc2000000000000000000000000ae805b9eaa5a04f307b439484ed881e75d36ac73000000000000000000000000525ebfa2c02cad538ed4bd0377ecbf51dfa7317c00000000000000000000000000000000000000000000000029a2241af62c0000",
                    "decodedMethod": {
                        "callParams": [
                            {
                                "name": "token",
                                "type": "address",
                                "value": "0xc02aaa39b223fe8d0a0e5c4f27ead9083c756cc2"
                            },
                            {
                                "name": "from",
                                "type": "address",
                                "value": "0xae805b9eaa5a04f307b439484ed881e75d36ac73"
                            },
                            {
                                "name": "to",
                                "type": "address",
                                "value": "0x525ebfa2c02cad538ed4bd0377ecbf51dfa7317c"
                            },
                            {
                                "name": "amount",
                                "type": "uint256",
                                "value": "3,000,000,000,000,000,000"
                            }
                        ],
                        "constructorArguments": "",
                        "name": "transferFrom",
                        "returnParams": [
                            {
                                "name": "",
                                "type": "bool",
                                "value": true
                            }
                        ],
                        "signature": "transferFrom(address,address,address,uint256)"
                    },
                    "errorInfo": "",
                    "fromAddress": "0x7be8076f4ea4a4ad08075c2508e481d6c946d12b",
                    "gasUsed": 40433,
                    "id": 5,
                    "methodDecoded": true,
                    "operation": "CALL",
                    "output": "0x0000000000000000000000000000000000000000000000000000000000000001",
                    "revert": false,
                    "revertMessage": "",
                    "selector": "0x15dacbea",
                    "status": true,
                    "value": "0"
                },
                "nodeType": 0
            },
            "6": {
                "invocation": {
                    "address": "0xa5409ec958c83c3f309868babaca7c86dcb077c1",
                    "callData": "0x0000000000000000000000007be8076f4ea4a4ad08075c2508e481d6c946d12b",
                    "decodedMethod": {
                        "callParams": [
                            {
                                "name": "",
                                "type": "address",
                                "value": "0x7be8076f4ea4a4ad08075c2508e481d6c946d12b"
                            }
                        ],
                        "constructorArguments": "",
                        "name": "contracts",
                        "returnParams": [
                            {
                                "name": "",
                                "type": "bool",
                                "value": true
                            }
                        ],
                        "signature": "contracts(address)"
                    },
                    "errorInfo": "",
                    "fromAddress": "0xe5c783ee536cf5e63e792988335c4255169be4e1",
                    "gasUsed": 2553,
                    "id": 6,
                    "methodDecoded": true,
                    "operation": "CALL",
                    "output": "0x0000000000000000000000000000000000000000000000000000000000000001",
                    "revert": false,
                    "revertMessage": "",
                    "selector": "0x69dc9ff3",
                    "status": true,
                    "value": "0"
                },
                "nodeType": 0
            },
            "7": {
                "invocation": {
                    "address": "0xc02aaa39b223fe8d0a0e5c4f27ead9083c756cc2",
                    "callData": "0x000000000000000000000000ae805b9eaa5a04f307b439484ed881e75d36ac73000000000000000000000000525ebfa2c02cad538ed4bd0377ecbf51dfa7317c00000000000000000000000000000000000000000000000029a2241af62c0000",
                    "decodedMethod": {
                        "callParams": [
                            {
                                "name": "src",
                                "type": "address",
                                "value": "0xae805b9eaa5a04f307b439484ed881e75d36ac73"
                            },
                            {
                                "name": "dst",
                                "type": "address",
                                "value": "0x525ebfa2c02cad538ed4bd0377ecbf51dfa7317c"
                            },
                            {
                                "decimalAvailable": true,
                                "name": "wad",
                                "type": "uint256",
                                "value": "3,000,000,000,000,000,000"
                            }
                        ],
                        "constructorArguments": "",
                        "name": "transferFrom",
                        "returnParams": [
                            {
                                "name": "",
                                "type": "bool",
                                "value": true
                            }
                        ],
                        "signature": "transferFrom(address,address,uint256)"
                    },
                    "errorInfo": "",
                    "fromAddress": "0xe5c783ee536cf5e63e792988335c4255169be4e1",
                    "gasUsed": 32125,
                    "id": 7,
                    "methodDecoded": true,
                    "operation": "CALL",
                    "output": "0x0000000000000000000000000000000000000000000000000000000000000001",
                    "revert": false,
                    "revertMessage": "",
                    "selector": "0x23b872dd",
                    "status": true,
                    "value": "0"
                },
                "nodeType": 0
            },
            "8": {
                "event": {
                    "contract": "0xc02aaa39b223fe8d0a0e5c4f27ead9083c756cc2",
                    "decodedLog": {
                        "name": "Transfer",
                        "params": [
                            {
                                "name": "src",
                                "type": "address",
                                "value": "0xae805b9eaa5a04f307b439484ed881e75d36ac73"
                            },
                            {
                                "name": "dst",
                                "type": "address",
                                "value": "0x525ebfa2c02cad538ed4bd0377ecbf51dfa7317c"
                            },
                            {
                                "decimalAvailable": true,
                                "name": "wad",
                                "type": "uint256",
                                "value": "3,000,000,000,000,000,000"
                            }
                        ],
                        "signature": "Transfer(address,address,uint256)"
                    },
                    "id": 8,
                    "logData": "0x00000000000000000000000000000000000000000000000029a2241af62c0000",
                    "logDecoded": true,
                    "operation": "EVENT",
                    "revert": false,
                    "status": true,
                    "topics": [
                        "0xddf252ad1be2c89b69c2b068fc378daa952ba7f163c4a11628f55a4df523b3ef",
                        "0x000000000000000000000000ae805b9eaa5a04f307b439484ed881e75d36ac73",
                        "0x000000000000000000000000525ebfa2c02cad538ed4bd0377ecbf51dfa7317c"
                    ]
                },
                "nodeType": 1
            },
            "9": {
                "invocation": {
                    "address": "0xe5c783ee536cf5e63e792988335c4255169be4e1",
                    "callData": "0x000000000000000000000000c02aaa39b223fe8d0a0e5c4f27ead9083c756cc2000000000000000000000000525ebfa2c02cad538ed4bd0377ecbf51dfa7317c0000000000000000000000005b3256965e7c3cf26e11fcaf296dfc8807c01073000000000000000000000000000000000000000000000000053444835ec58000",
                    "decodedMethod": {
                        "callParams": [
                            {
                                "name": "token",
                                "type": "address",
                                "value": "0xc02aaa39b223fe8d0a0e5c4f27ead9083c756cc2"
                            },
                            {
                                "name": "from",
                                "type": "address",
                                "value": "0x525ebfa2c02cad538ed4bd0377ecbf51dfa7317c"
                            },
                            {
                                "name": "to",
                                "type": "address",
                                "value": "0x5b3256965e7c3cf26e11fcaf296dfc8807c01073"
                            },
                            {
                                "name": "amount",
                                "type": "uint256",
                                "value": "375,000,000,000,000,000"
                            }
                        ],
                        "constructorArguments": "",
                        "name": "transferFrom",
                        "returnParams": [
                            {
                                "name": "",
                                "type": "bool",
                                "value": true
                            }
                        ],
                        "signature": "transferFrom(address,address,address,uint256)"
                    },
                    "errorInfo": "",
                    "fromAddress": "0x7be8076f4ea4a4ad08075c2508e481d6c946d12b",
                    "gasUsed": 12033,
                    "id": 9,
                    "methodDecoded": true,
                    "operation": "CALL",
                    "output": "0x0000000000000000000000000000000000000000000000000000000000000001",
                    "revert": false,
                    "revertMessage": "",
                    "selector": "0x15dacbea",
                    "status": true,
                    "value": "0"
                },
                "nodeType": 0
            }
        },
        "gasFlame": [
            {
                "children": [
                    {
                        "children": [
                            {
                                "children": [],
                                "depth": 0,
                                "name": "Initial Gas",
                                "value": 37564
                            },
                            {
                                "children": [
                                    {
                                        "children": [],
                                        "depth": 1,
                                        "name": "ecrecover",
                                        "value": 3000
                                    },
                                    {
                                        "children": [],
                                        "depth": 1,
                                        "name": "proxies",
                                        "value": 2782
                                    },
                                    {
                                        "children": [],
                                        "depth": 1,
                                        "name": "delegateProxyImplementation",
                                        "value": 2613
                                    },
                                    {
                                        "children": [],
                                        "depth": 1,
                                        "name": "implementation",
                                        "value": 2525
                                    },
                                    {
                                        "children": [
                                            {
                                                "children": [],
                                                "depth": 2,
                                                "name": "contracts",
                                                "value": 2553
                                            },
                                            {
                                                "children": [],
                                                "depth": 2,
                                                "name": "transferFrom",
                                                "value": 32125
                                            }
                                        ],
                                        "depth": 1,
                                        "name": "transferFrom",
                                        "value": 40433
                                    },
                                    {
                                        "children": [
                                            {
                                                "children": [],
                                                "depth": 2,
                                                "name": "contracts",
                                                "value": 553
                                            },
                                            {
                                                "children": [],
                                                "depth": 2,
                                                "name": "transferFrom",
                                                "value": 10225
                                            }
                                        ],
                                        "depth": 1,
                                        "name": "transferFrom",
                                        "value": 12033
                                    },
                                    {
                                        "children": [
                                            {
                                                "children": [
                                                    {
                                                        "children": [],
                                                        "depth": 3,
                                                        "name": "contracts",
                                                        "value": 553
                                                    },
                                                    {
                                                        "children": [],
                                                        "depth": 3,
                                                        "name": "transferFrom",
                                                        "value": 26124
                                                    }
                                                ],
                                                "depth": 2,
                                                "name": "proxy",
                                                "value": 33021
                                            }
                                        ],
                                        "depth": 1,
                                        "name": "proxy",
                                        "value": 36281
                                    }
                                ],
                                "depth": 0,
                                "name": "Executed Gas",
                                "value": 179256
                            }
                        ],
                        "depth": -1,
                        "name": "Actual Gas Used",
                        "value": 214020
                    },
                    {
                        "children": [],
                        "depth": -1,
                        "name": "Refunded Gas",
                        "value": 2800
                    }
                ],
                "depth": -2,
                "name": "Total Gas",
                "value": 216820
            }
        ],
        "isConfirmed": true,
        "mainTrace": [
            {
                "children": [
                    {
                        "children": [
                            {
                                "children": [],
                                "depth": 1,
                                "id": 1,
                                "order": 1
                            },
                            {
                                "children": [],
                                "depth": 1,
                                "id": 2,
                                "order": 2
                            },
                            {
                                "children": [],
                                "depth": 1,
                                "id": 3,
                                "order": 3
                            },
                            {
                                "children": [],
                                "depth": 1,
                                "id": 4,
                                "order": 4
                            },
                            {
                                "children": [
                                    {
                                        "children": [],
                                        "depth": 2,
                                        "id": 6,
                                        "order": 6
                                    },
                                    {
                                        "children": [
                                            {
                                                "children": [],
                                                "depth": 3,
                                                "id": 8,
                                                "order": 8
                                            }
                                        ],
                                        "depth": 2,
                                        "id": 7,
                                        "order": 7
                                    }
                                ],
                                "depth": 1,
                                "id": 5,
                                "order": 5
                            },
                            {
                                "children": [
                                    {
                                        "children": [],
                                        "depth": 2,
                                        "id": 10,
                                        "order": 10
                                    },
                                    {
                                        "children": [
                                            {
                                                "children": [],
                                                "depth": 3,
                                                "id": 12,
                                                "order": 12
                                            }
                                        ],
                                        "depth": 2,
                                        "id": 11,
                                        "order": 11
                                    }
                                ],
                                "depth": 1,
                                "id": 9,
                                "order": 9
                            },
                            {
                                "children": [
                                    {
                                        "children": [
                                            {
                                                "children": [],
                                                "depth": 3,
                                                "id": 15,
                                                "order": 15
                                            },
                                            {
                                                "children": [
                                                    {
                                                        "children": [],
                                                        "depth": 4,
                                                        "id": 17,
                                                        "order": 17
                                                    },
                                                    {
                                                        "children": [],
                                                        "depth": 4,
                                                        "id": 18,
                                                        "order": 18
                                                    }
                                                ],
                                                "depth": 3,
                                                "id": 16,
                                                "order": 16
                                            }
                                        ],
                                        "depth": 2,
                                        "id": 14,
                                        "order": 14
                                    }
                                ],
                                "depth": 1,
                                "id": 13,
                                "order": 13
                            },
                            {
                                "children": [],
                                "depth": 1,
                                "id": 19,
                                "order": 19
                            }
                        ],
                        "depth": 0,
                        "id": 0,
                        "order": 0
                    }
                ],
                "depth": -1,
                "id": -1,
                "order": -1
            }
        ],
        "mainTraceNodeCount": 20,
        "parentIdMap": {
            "0": -1,
            "1": 0,
            "10": 9,
            "11": 9,
            "12": 11,
            "13": 0,
            "14": 13,
            "15": 14,
            "16": 14,
            "17": 16,
            "18": 16,
            "19": 0,
            "2": 0,
            "3": 0,
            "4": 0,
            "5": 0,
            "6": 5,
            "7": 5,
            "8": 7,
            "9": 0
        },
        "tidyTrace": [
            {
                "children": [
                    {
                        "children": [
                            {
                                "children": [],
                                "depth": 1,
                                "id": 1,
                                "order": 1
                            },
                            {
                                "children": [],
                                "depth": 1,
                                "id": 2,
                                "order": 2
                            },
                            {
                                "children": [],
                                "depth": 1,
                                "id": 3,
                                "order": 3
                            },
                            {
                                "children": [],
                                "depth": 1,
                                "id": 4,
                                "order": 4
                            },
                            {
                                "children": [
                                    {
                                        "children": [],
                                        "depth": 2,
                                        "id": 6,
                                        "order": 6
                                    },
                                    {
                                        "children": [
                                            {
                                                "children": [],
                                                "depth": 3,
                                                "id": 8,
                                                "order": 8
                                            }
                                        ],
                                        "depth": 2,
                                        "id": 7,
                                        "order": 7
                                    }
                                ],
                                "depth": 1,
                                "id": 5,
                                "order": 5
                            },
                            {
                                "children": [
                                    {
                                        "children": [],
                                        "depth": 2,
                                        "id": 10,
                                        "order": 10
                                    },
                                    {
                                        "children": [
                                            {
                                                "children": [],
                                                "depth": 3,
                                                "id": 12,
                                                "order": 12
                                            }
                                        ],
                                        "depth": 2,
                                        "id": 11,
                                        "order": 11
                                    }
                                ],
                                "depth": 1,
                                "id": 9,
                                "order": 9
                            },
                            {
                                "children": [
                                    {
                                        "children": [
                                            {
                                                "children": [],
                                                "depth": 3,
                                                "id": 15,
                                                "order": 15
                                            },
                                            {
                                                "children": [
                                                    {
                                                        "children": [],
                                                        "depth": 4,
                                                        "id": 17,
                                                        "order": 17
                                                    },
                                                    {
                                                        "children": [],
                                                        "depth": 4,
                                                        "id": 18,
                                                        "order": 18
                                                    }
                                                ],
                                                "depth": 3,
                                                "id": 16,
                                                "order": 16
                                            }
                                        ],
                                        "depth": 2,
                                        "id": 14,
                                        "order": 14
                                    }
                                ],
                                "depth": 1,
                                "id": 13,
                                "order": 13
                            },
                            {
                                "children": [],
                                "depth": 1,
                                "id": 19,
                                "order": 19
                            }
                        ],
                        "depth": 0,
                        "id": 0,
                        "order": 0
                    }
                ],
                "depth": -1,
                "id": -1,
                "order": -1
            }
        ],
        "tidyTraceNodeCount": 20
    },
    "state_change": {
        "stateChanges": [
            {
                "address": "0x4b3406a41399c7fd2ba65cbc93697ad9e7ea61e5",
                "erc": "ERC-721",
                "slots": [
                    {
                        "current": "0x0000000000000000000000000000000000000000000000000000000000000003",
                        "key": "0x77179f83bc02e853122d6d0d35eb294162bc75236ef58a1aece2d88c15051121",
                        "prev": "0x0000000000000000000000000000000000000000000000000000000000000004"
                    },
                    {
                        "current": "0x0000000000000000000000000000000000000000000000000000000000000019",
                        "key": "0xfacc6eb00a676dea079e7a9ef6404967890ac2323692dba1d8ec089d9703dced",
                        "prev": "0x0000000000000000000000000000000000000000000000000000000000000018"
                    },
                    {
                        "current": "0x000000000000000000000000ae805b9eaa5a04f307b439484ed881e75d36ac73",
                        "key": "0xb080ae7e2cc866751453d95e1e40eb3c356c5dcd162a56c3063ef842c524e957",
                        "prev": "0x000000000000000000000000525ebfa2c02cad538ed4bd0377ecbf51dfa7317c"
                    }
                ],
                "storageVariables": [
                    {
                        "name": "_balances",
                        "type": "mapping(address => uint256)",
                        "value": {
                            "pairs": [
                                {
                                    "key": "0x525ebfa2c02cad538ed4bd0377ecbf51dfa7317c",
                                    "value": {
                                        "current": "3",
                                        "prev": "4",
                                        "typeTag": 1
                                    }
                                },
                                {
                                    "key": "0xae805b9eaa5a04f307b439484ed881e75d36ac73",
                                    "value": {
                                        "current": "25",
                                        "prev": "24",
                                        "typeTag": 1
                                    }
                                }
                            ],
                            "typeTag": 4
                        }
                    },
                    {
                        "name": "_owners",
                        "type": "mapping(uint256 => address)",
                        "value": {
                            "pairs": [
                                {
                                    "key": "5062",
                                    "value": {
                                        "current": "0xae805b9eaa5a04f307b439484ed881e75d36ac73",
                                        "prev": "0x525ebfa2c02cad538ed4bd0377ecbf51dfa7317c",
                                        "typeTag": 1
                                    }
                                }
                            ],
                            "typeTag": 4
                        }
                    }
                ]
            },
            {
                "address": "0x7be8076f4ea4a4ad08075c2508e481d6c946d12b",
                "erc": "",
                "slots": [
                    {
                        "current": "0x0000000000000000000000000000000000000000000000000000000000000001",
                        "key": "0x5c96535c93d69c12be899a420f38c6749ca935b2125c72204dd3706997b2d6a7",
                        "prev": "0x0000000000000000000000000000000000000000000000000000000000000000"
                    }
                ],
                "storageVariables": [
                    {
                        "name": "cancelledOrFinalized",
                        "type": "mapping(bytes32 => bool)",
                        "value": {
                            "pairs": [
                                {
                                    "key": "0xba1b60bf532da646058ddcf97d40904c9e23414a9ad5a2b1b686ecdec21a23d0",
                                    "value": {
                                        "current": "true",
                                        "prev": "false",
                                        "typeTag": 1
                                    }
                                }
                            ],
                            "typeTag": 4
                        }
                    }
                ]
            },
            {
                "address": "0xc02aaa39b223fe8d0a0e5c4f27ead9083c756cc2",
                "erc": "ERC-20",
                "slots": [
                    {
                        "current": "0x0000000000000000000000000000000000000000000000007d0cb41f11f87000",
                        "key": "0xb4863218b85c5ebd850992f098ff77bb15a957b8ee88cab0203561a12db439cf",
                        "prev": "0x000000000000000000000000000000000000000000000000a6aed83a08247000"
                    },
                    {
                        "current": "0x000000000000000000000000000000000000000000000000246ddf9797668000",
                        "key": "0x4a298a485f151f9654fea84dfd01a788c9d4c57e41d1f4f82296dc58abe65d75",
                        "prev": "0x0000000000000000000000000000000000000000000000000000000000000000"
                    },
                    {
                        "current": "0x0000000000000000000000000000000000000000000000539dfa83bb3ae8170b",
                        "key": "0xf916da991df3618c050885260c1828ed5b0fef53cffdc400ab5b066988bdca47",
                        "prev": "0x00000000000000000000000000000000000000000000005398c63f37dc22970b"
                    }
                ],
                "storageVariables": [
                    {
                        "name": "balanceOf",
                        "type": "mapping(address => uint256)",
                        "value": {
                            "pairs": [
                                {
                                    "key": "0x525ebfa2c02cad538ed4bd0377ecbf51dfa7317c",
                                    "value": {
                                        "current": "2625000000000000000",
                                        "prev": "0",
                                        "typeTag": 1
                                    }
                                },
                                {
                                    "key": "0x5b3256965e7c3cf26e11fcaf296dfc8807c01073",
                                    "value": {
                                        "current": "1542463313966195545867",
                                        "prev": "1542088313966195545867",
                                        "typeTag": 1
                                    }
                                },
                                {
                                    "key": "0xae805b9eaa5a04f307b439484ed881e75d36ac73",
                                    "value": {
                                        "current": "9010775000000000000",
                                        "prev": "12010775000000000000",
                                        "typeTag": 1
                                    }
                                }
                            ],
                            "typeTag": 4
                        }
                    }
                ]
            }
        ]
    }
}