{
    "balance_change": {
        "balanceChanges": [
            {
                "account": "0x2764a47704b2b84bc2cba83f02dc244ed284c1ad",
                "assets": [
                    {
                        "address": "0xeeeeeeeeeeeeeeeeeeeeeeeeeeeeeeeeeeeeeeee",
                        "amount": "0.007808411513218937",
                        "iconUrl": "https://assets.blocksec.com/image/1663669189317-3.png",
                        "isERC1155": false,
                        "isERC721": false,
                        "sign": false,
                        "value": "14.952639542704220426"
                    },
                    {
                        "address": "0xd4416b13d2b3a9abae7acd5d6c2bbdbe25686401",
                        "amount": "1",
                        "iconUrl": "",
                        "isERC1155": true,
                        "isERC721": false,
                        "sign": true,
                        "tokenID": "93102414883963158571534156397782963038000745588032720445811139955707146176179",
                        "value": ""
                    }
                ]
            },
            {
                "account": "0x253553366da8546fc250f225fe3d25d0c782303b",
                "assets": [
                    {
                        "address": "0xeeeeeeeeeeeeeeeeeeeeeeeeeeeeeeeeeeeeeeee",
                        "amount": "0.007808411513218937",
                        "iconUrl": "https://assets.blocksec.com/image/1663669189317-3.png",
                        "isERC1155": false,
                        "isERC721": false,
                        "sign": true,
                        "value": "14.952639542704220426"
                    }
                ]
            },
            {
                "account": "0x0000000000000000000000000000000000000000",
                "assets": [
                    {
                        "address": "0xd4416b13d2b3a9abae7acd5d6c2bbdbe25686401",
                        "amount": "1",
                        "iconUrl": "",
                        "isERC1155": true,
                        "isERC721": false,
                        "sign": false,
                        "tokenID": "93102414883963158571534156397782963038000745588032720445811139955707146176179",
                        "value": ""
                    }
                ]
            },
            {
                "account": "0x325c2a2e71c5263092d1c2aec1b9bdc59c747124",
                "assets": [
                    {
                        "address": "0x57f1887a8bf19b14fc0df6fd9b2acc9af147ea85",
                        "amount": "1",
                        "iconUrl": "https://assets.blocksec.com/nft/icon/nft_be0542b7-4f14-457c-a46f-8a69d57f084c.png",
                        "isERC1155": false,
                        "isERC721": true,
                        "sign": false,
                        "tokenID": "37492372025078899002497530944512136564458277170737903241124446936309431430848",
                        "value": ""
                    }
                ]
            },
            {
                "account": "0xd4416b13d2b3a9abae7acd5d6c2bbdbe25686401",
                "assets": [
                    {
                        "address": "0x57f1887a8bf19b14fc0df6fd9b2acc9af147ea85",
                        "amount": "1",
                        "iconUrl": "https://assets.blocksec.com/nft/icon/nft_be0542b7-4f14-457c-a46f-8a69d57f084c.png",
                        "isERC1155": false,
                        "isERC721": true,
                        "sign": true,
                        "tokenID": "37492372025078899002497530944512136564458277170737903241124446936309431430848",
                        "value": ""
                    }
                ]
            }
        ]
    },
    "profile": {
        "basic_info": {
            "baseFee": "26.165232472",
            "blockNumber": 18532608,
            "callData": "0x74694a2b00000000000000000000000000000000000000000000000000000000000001000000000000000000000000002764a47704b2b84bc2cba83f02dc244ed284c1ad0000000000000000000000000000000000000000000000000000000005a39a809923eb940000000350f800d14b211b5cfcd36263e1ee5f8a980f2f1d786cc230000000000000000000000000231b0ee14048e9dccd1d247744d114a4eb5e8e63000000000000000000000000000000000000000000000000000000000000014000000000000000000000000000000000000000000000000000000000000000000000000000000000000000000000000000000000000000000000000000000000000000000000000000000000000000000000000000000000000000000000000a73756e64617962657374000000000000000000000000000000000000000000000000000000000000000000000000000000000000000000000000000000000001000000000000000000000000000000000000000000000000000000000000002000000000000000000000000000000000000000000000000000000000000000a48b95dd71cdd619735081f10f0f197ab2048a55e94d358381e7becf62617d222776a886b3000000000000000000000000000000000000000000000000000000000000003c000000000000000000000000000000000000000000000000000000000000006000000000000000000000000000000000000000000000000000000000000000142764a47704b2b84bc2cba83f02dc244ed284c1ad00000000000000000000000000000000000000000000000000000000000000000000000000000000",
            "debugEnable": true,
            "errorInfo": "",
            "eventCount": 10,
            "feeRecipient": "0x1f9090aae28b8a3dceadf281b0f12828e676c326",
            "formatValue": "0.007964579743483315",
            "gasLimit": 247291,
            "gasPrice": "26.265232472",
            "gasUsed": 234943,
            "intTxnCount": 15,
            "internalRevert": false,
            "internalRevertMessage": "",
            "isContractCreation": false,
            "isFlashloan": false,
            "maxFee": "36.314825724",
            "nonce": 43,
            "overwritedBlockNumber": -1,
            "priorityFee": "0.1",
            "receiver": "0x253553366da8546fc250f225fe3d25d0c782303b",
            "revertMessage": "",
            "sender": "0x2764a47704b2b84bc2cba83f02dc244ed284c1ad",
            "simulationEnable": true,
            "sourceTxnHash": "0xfe92d9e529aed522552a61caeee1539e0322c3fab1ea2b60547c7b97e235cdee",
            "status": true,
            "timestamp": "2023-11-09T06:29:59Z",
            "transactionFee": "0.006170832512669096",
            "txnHash": "0xfe92d9e529aed522552a61caeee1539e0322c3fab1ea2b60547c7b97e235cdee",
            "txnIndex": 87,
            "type": 2,
            "value": "7964579743483315"
        },
        "fund_flow": [
            {
                "amount": "0.007964579743483315",
                "from": "0x2764a47704b2b84bc2cba83f02dc244ed284c1ad",
                "id": 1,
                "isERC1155": false,
                "isERC721": false,
                "isReverted": false,
                "order": 1,
                "to": "0x253553366da8546fc250f225fe3d25d0c782303b",
                "token": "0xeeeeeeeeeeeeeeeeeeeeeeeeeeeeeeeeeeeeeeee"
            },
            {
                "amount": "1",
                "from": "0x325c2a2e71c5263092d1c2aec1b9bdc59c747124",
                "id": 2,
                "isERC1155": false,
                "isERC721": true,
                "isReverted": false,
                "order": 2,
                "to": "0x0000000000000000000000000000000000000000",
                "token": "0x57f1887a8bf19b14fc0df6fd9b2acc9af147ea85",
                "tokenID": "37492372025078899002497530944512136564458277170737903241124446936309431430848"
            },
            {
                "amount": "1",
                "from": "0x0000000000000000000000000000000000000000",
                "id": 3,
                "isERC1155": false,
                "isERC721": true,
                "isReverted": false,
                "order": 3,
                "to": "0xd4416b13d2b3a9abae7acd5d6c2bbdbe25686401",
                "token": "0x57f1887a8bf19b14fc0df6fd9b2acc9af147ea85",
                "tokenID": "37492372025078899002497530944512136564458277170737903241124446936309431430848"
            },
            {
                "amount": "1",
                "from": "0x0000000000000000000000000000000000000000",
                "id": 4,
                "isERC1155": true,
                "isERC721": false,
                "isReverted": false,
                "order": 4,
                "to": "0x2764a47704b2b84bc2cba83f02dc244ed284c1ad",
                "token": "0xd4416b13d2b3a9abae7acd5d6c2bbdbe25686401",
                "tokenID": "93102414883963158571534156397782963038000745588032720445811139955707146176179"
            },
            {
                "amount": "0.000156168230264378",
                "from": "0x253553366da8546fc250f225fe3d25d0c782303b",
                "id": 5,
                "isERC1155": false,
                "isERC721": false,
                "isReverted": false,
                "order": 5,
                "to": "0x2764a47704b2b84bc2cba83f02dc244ed284c1ad",
                "token": "0xeeeeeeeeeeeeeeeeeeeeeeeeeeeeeeeeeeeeeeee"
            }
        ],
        "token_infos": [
            {
                "address": "0xeeeeeeeeeeeeeeeeeeeeeeeeeeeeeeeeeeeeeeee",
                "decimals": 18
            },
            {
                "address": "0xc02aaa39b223fe8d0a0e5c4f27ead9083c756cc2",
                "decimals": 18
            }
        ]
    },
    "address_label": {
        "labels": [
            {
                "address": "0x00000000000c2e074ec69a0dfb2997ba6c7d2e1e",
                "label": "ENS: Registry with Fallback"
            },
            {
                "address": "0x253553366da8546fc250f225fe3d25d0c782303b",
                "label": "ENS: ETH Registrar Controller"
            },
            {
                "address": "0x0000000000000000000000000000000000000002",
                "label": "Precompiled"
            },
            {
                "address": "0xeeeeeeeeeeeeeeeeeeeeeeeeeeeeeeeeeeeeeeee",
                "label": "Ether"
            },
            {
                "address": "0x57f1887a8bf19b14fc0df6fd9b2acc9af147ea85",
                "label": "ENS: Base Registrar Implementation"
            },
            {
                "address": "0x0000000000000000000000000000000000000001",
                "label": "Precompiled"
            },
            {
                "address": "0x0000000000000000000000000000000000000003",
                "label": "Precompiled"
            },
            {
                "address": "0x7542565191d074ce84fbfa92cae13acb84788ca9",
                "label": "ExponentialPremiumPriceOracle"
            },
            {
                "address": "0x5f4ec3df9cbd43714fe2740f5e3616155c5b8419",
                "label": "EACAggregatorProxy"
            },
            {
                "address": "0x0000000000000000000000000000000000000004",
                "label": "Precompiled"
            },
            {
                "address": "0xe62b71cf983019bff55bc83b48601ce8419650cc",
                "label": "AccessControlledOffchainAggregator"
            },
            {
                "address": "0xd4416b13d2b3a9abae7acd5d6c2bbdbe25686401",
                "label": "ENS: Name Wrapper"
            },
            {
                "address": "0x231b0ee14048e9dccd1d247744d114a4eb5e8e63",
                "label": "ENS: Public Resolver"
            }
        ]
    },
    "trace": {
        "accountLabels": null,
        "dataMap": {
            "-1": {
                "invocation": {
                    "address": "0x2764a47704b2b84bc2cba83f02dc244ed284c1ad",
                    "callData": "",
                    "decodedMethod": null,
                    "errorInfo": "",
                    "fromAddress": "",
                    "gasUsed": 0,
                    "id": -1,
                    "methodDecoded": false,
                    "operation": "",
                    "output": "",
                    "revert": false,
                    "revertMessage": "",
                    "selector": "",
                    "status": false,
                    "value": ""
                },
                "nodeType": 0
            },
            "0": {
                "invocation": {
                    "address": "0x253553366da8546fc250f225fe3d25d0c782303b",
                    "callData": "0x00000000000000000000000000000000000000000000000000000000000001000000000000000000000000002764a47704b2b84bc2cba83f02dc244ed284c1ad0000000000000000000000000000000000000000000000000000000005a39a809923eb940000000350f800d14b211b5cfcd36263e1ee5f8a980f2f1d786cc230000000000000000000000000231b0ee14048e9dccd1d247744d114a4eb5e8e63000000000000000000000000000000000000000000000000000000000000014000000000000000000000000000000000000000000000000000000000000000000000000000000000000000000000000000000000000000000000000000000000000000000000000000000000000000000000000000000000000000000000000a73756e64617962657374000000000000000000000000000000000000000000000000000000000000000000000000000000000000000000000000000000000001000000000000000000000000000000000000000000000000000000000000002000000000000000000000000000000000000000000000000000000000000000a48b95dd71cdd619735081f10f0f197ab2048a55e94d358381e7becf62617d222776a886b3000000000000000000000000000000000000000000000000000000000000003c000000000000000000000000000000000000000000000000000000000000006000000000000000000000000000000000000000000000000000000000000000142764a47704b2b84bc2cba83f02dc244ed284c1ad00000000000000000000000000000000000000000000000000000000000000000000000000000000",
                    "decodedMethod": {
                        "callParams": [
                            {
                                "name": "name",
                                "type": "string",
                                "value": "sundaybest"
                            },
                            {
                                "name": "owner",
                                "type": "address",
                                "value": "0x2764a47704b2b84bc2cba83f02dc244ed284c1ad"
                            },
                            {
                                "name": "duration",
                                "type": "uint256",
                                "value": "94,608,000"
                            },
                            {
                                "name": "secret",
                                "type": "bytes32",
                                "value": "0x9923eb940000000350f800d14b211b5cfcd36263e1ee5f8a980f2f1d786cc230"
                            },
                            {
                                "name": "resolver",
                                "type": "address",
                                "value": "0x231b0ee14048e9dccd1d247744d114a4eb5e8e63"
                            },
                            {
                                "name": "data",
                                "type": "bytes[]",
                                "value": [
                                    "0x8b95dd71cdd619735081f10f0f197ab2048a55e94d358381e7becf62617d222776a886b3000000000000000000000000000000000000000000000000000000000000003c000000000000000000000000000000000000000000000000000000000000006000000000000000000000000000000000000000000000000000000000000000142764a47704b2b84bc2cba83f02dc244ed284c1ad000000000000000000000000"
                                ]
                            },
                            {
                                "name": "reverseRecord",
                                "type": "bool",
                                "value": false
                            },
                            {
                                "name": "ownerControlledFuses",
                                "type": "uint16",
                                "value": "0"
                            }
                        ],
                        "constructorArguments": "",
                        "name": "register",
                        "returnParams": [],
                        "signature": "register(string,address,uint256,bytes32,address,bytes[],bool,uint16)"
                    },
                    "errorInfo": "",
                    "fromAddress": "0x2764a47704b2b84bc2cba83f02dc244ed284c1ad",
                    "gasUsed": 234943,
                    "id": 0,
                    "methodDecoded": true,
                    "operation": "CALL",
                    "output": "",
                    "revert": false,
                    "revertMessage": "",
                    "selector": "0x74694a2b",
                    "status": true,
                    "value": "0.007964579743483315"
                },
                "nodeType": 0
            },
            "1": {
                "invocation": {
                    "address": "0x57f1887a8bf19b14fc0df6fd9b2acc9af147ea85",
                    "callData": "0x52e3ee39315dbe165c2b755fe9e46456e83198d2a99a24eb504aba0b90f26ec0",
                    "decodedMethod": {
                        "callParams": [
                            {
                                "name": "id",
                                "type": "uint256",
                                "value": "37,492,372,025,078,899,002,497,530,944,512,136,564,458,277,170,737,903,241,124,446,936,309,431,430,848"
                            }
                        ],
                        "constructorArguments": "",
                        "name": "nameExpires",
                        "returnParams": [
                            {
                                "name": "",
                                "type": "uint256",
                                "value": "1,687,732,982"
                            }
                        ],
                        "signature": "nameExpires(uint256)"
                    },
                    "errorInfo": "",
                    "fromAddress": "0x253553366da8546fc250f225fe3d25d0c782303b",
                    "gasUsed": 2523,
                    "id": 1,
                    "methodDecoded": true,
                    "operation": "STATICCALL",
                    "output": "0x000000000000000000000000000000000000000000000000000000006498c2f6",
                    "revert": false,
                    "revertMessage": "",
                    "selector": "0xd6e4fa86",
                    "status": true,
                    "value": "0"
                },
                "nodeType": 0
            },
            "10": {
                "invocation": {
                    "address": "0x00000000000c2e074ec69a0dfb2997ba6c7d2e1e",
                    "callData": "0x93cdeb708b7545dc668eb9280176169d1c33cfd8ed6f04690a0bcc88a93fc4ae",
                    "decodedMethod": {
                        "callParams": [
                            {
                                "name": "node",
                                "type": "bytes32",
                                "value": "0x93cdeb708b7545dc668eb9280176169d1c33cfd8ed6f04690a0bcc88a93fc4ae"
                            }
                        ],
                        "constructorArguments": "",
                        "name": "owner",
                        "returnParams": [
                            {
                                "name": "",
                                "type": "address",
                                "value": "0x57f1887a8bf19b14fc0df6fd9b2acc9af147ea85"
                            }
                        ],
                        "signature": "owner(bytes32)"
                    },
                    "errorInfo": "",
                    "fromAddress": "0x57f1887a8bf19b14fc0df6fd9b2acc9af147ea85",
                    "gasUsed": 2951,
                    "id": 10,
                    "methodDecoded": true,
                    "operation": "STATICCALL",
                    "output": "0x00000000000000000000000057f1887a8bf19b14fc0df6fd9b2acc9af147ea85",
                    "revert": false,
                    "revertMessage": "",
                    "selector": "0x02571be3",
                    "status": true,
                    "value": "0"
                },
                "nodeType": 0
            },
            "11": {
                "event": {
                    "contract": "0x57f1887a8bf19b14fc0df6fd9b2acc9af147ea85",
                    "decodedLog": {
                        "name": "Transfer",
                        "params": [
                            {
                                "name": "from",
                                "type": "address",
                                "value": "0x325c2a2e71c5263092d1c2aec1b9bdc59c747124"
                            },
                            {
                                "name": "to",
                                "type": "address",
                                "value": "0x0000000000000000000000000000000000000000"
                            },
                            {
                                "decimalAvailable": true,
                                "name": "tokenId",
                                "type": "uint256",
                                "value": "37,492,372,025,078,899,002,497,530,944,512,136,564,458,277,170,737,903,241,124,446,936,309,431,430,848"
                            }
                        ],
                        "signature": "Transfer(address,address,uint256)"
                    },
                    "id": 11,
                    "logData": "0x",
                    "logDecoded": true,
                    "operation": "EVENT",
                    "revert": false,
                    "status": true,
                    "topics": [
                        "0xddf252ad1be2c89b69c2b068fc378daa952ba7f163c4a11628f55a4df523b3ef",
                        "0x000000000000000000000000325c2a2e71c5263092d1c2aec1b9bdc59c747124",
                        "0x0000000000000000000000000000000000000000000000000000000000000000",
                        "0x52e3ee39315dbe165c2b755fe9e46456e83198d2a99a24eb504aba0b90f26ec0"
                    ]
                },
                "nodeType": 1
            },
            "12": {
                "event": {
                    "contract": "0x57f1887a8bf19b14fc0df6fd9b2acc9af147ea85",
                    "decodedLog": {
                        "name": "Transfer",
                        "params": [
                            {
                                "name": "from",
                                "type": "address",
                                "value": "0x0000000000000000000000000000000000000000"
                            },
                            {
                                "name": "to",
                                "type": "address",
                                "value": "0xd4416b13d2b3a9abae7acd5d6c2bbdbe25686401"
                            },
                            {
                                "decimalAvailable": true,
                                "name": "tokenId",
                                "type": "uint256",
                                "value": "37,492,372,025,078,899,002,497,530,944,512,136,564,458,277,170,737,903,241,124,446,936,309,431,430,848"
                            }
                        ],
                        "signature": "Transfer(address,address,uint256)"
                    },
                    "id": 12,
                    "logData": "0x",
                    "logDecoded": true,
                    "operation": "EVENT",
                    "revert": false,
                    "status": true,
                    "topics": [
                        "0xddf252ad1be2c89b69c2b068fc378daa952ba7f163c4a11628f55a4df523b3ef",
                        "0x0000000000000000000000000000000000000000000000000000000000000000",
                        "0x000000000000000000000000d4416b13d2b3a9abae7acd5d6c2bbdbe25686401",
                        "0x52e3ee39315dbe165c2b755fe9e46456e83198d2a99a24eb504aba0b90f26ec0"
                    ]
                },
                "nodeType": 1
            },
            "13": {
                "invocation": {
                    "address": "0x00000000000c2e074ec69a0dfb2997ba6c7d2e1e",
                    "callData": "0x93cdeb708b7545dc668eb9280176169d1c33cfd8ed6f04690a0bcc88a93fc4ae52e3ee39315dbe165c2b755fe9e46456e83198d2a99a24eb504aba0b90f26ec0000000000000000000000000d4416b13d2b3a9abae7acd5d6c2bbdbe25686401",
                    "decodedMethod": {
                        "callParams": [
                            {
                                "name": "node",
                                "type": "bytes32",
                                "value": "0x93cdeb708b7545dc668eb9280176169d1c33cfd8ed6f04690a0bcc88a93fc4ae"
                            },
                            {
                                "name": "label",
                                "type": "bytes32",
                                "value": "0x52e3ee39315dbe165c2b755fe9e46456e83198d2a99a24eb504aba0b90f26ec0"
                            },
                            {
                                "name": "owner",
                                "type": "address",
                                "value": "0xd4416b13d2b3a9abae7acd5d6c2bbdbe25686401"
                            }
                        ],
                        "constructorArguments": "",
                        "name": "setSubnodeOwner",
                        "returnParams": [
                            {
                                "name": "",
                                "type": "bytes32",
                                "value": "0xcdd619735081f10f0f197ab2048a55e94d358381e7becf62617d222776a886b3"
                            }
                        ],
                        "signature": "setSubnodeOwner(bytes32,bytes32,address)"
                    },
                    "errorInfo": "",
                    "fromAddress": "0x57f1887a8bf19b14fc0df6fd9b2acc9af147ea85",
                    "gasUsed": 7969,
                    "id": 13,
                    "methodDecoded": true,
                    "operation": "CALL",
                    "output": "0xcdd619735081f10f0f197ab2048a55e94d358381e7becf62617d222776a886b3",
                    "revert": false,
                    "revertMessage": "",
                    "selector": "0x06ab5923",
                    "status": true,
                    "value": "0"
                },
                "nodeType": 0
            },
            "14": {
                "event": {
                    "contract": "0x00000000000c2e074ec69a0dfb2997ba6c7d2e1e",
                    "decodedLog": {
                        "name": "NewOwner",
                        "params": [
                            {
                                "name": "node",
                                "type": "bytes32",
                                "value": "0x93cdeb708b7545dc668eb9280176169d1c33cfd8ed6f04690a0bcc88a93fc4ae"
                            },
                            {
                                "name": "label",
                                "type": "bytes32",
                                "value": "0x52e3ee39315dbe165c2b755fe9e46456e83198d2a99a24eb504aba0b90f26ec0"
                            },
                            {
                                "name": "owner",
                                "type": "address",
                                "value": "0xd4416b13d2b3a9abae7acd5d6c2bbdbe25686401"
                            }
                        ],
                        "signature": "NewOwner(bytes32,bytes32,address)"
                    },
                    "id": 14,
                    "logData": "0x000000000000000000000000d4416b13d2b3a9abae7acd5d6c2bbdbe25686401",
                    "logDecoded": true,
                    "operation": "EVENT",
                    "revert": false,
                    "status": true,
                    "topics": [
                        "0xce0457fe73731f824cc272376169235128c118b49d344817417c6d108d155e82",
                        "0x93cdeb708b7545dc668eb9280176169d1c33cfd8ed6f04690a0bcc88a93fc4ae",
                        "0x52e3ee39315dbe165c2b755fe9e46456e83198d2a99a24eb504aba0b90f26ec0"
                    ]
                },
                "nodeType": 1
            },
            "15": {
                "event": {
                    "contract": "0x57f1887a8bf19b14fc0df6fd9b2acc9af147ea85",
                    "decodedLog": {
                        "name": "NameRegistered",
                        "params": [
                            {
                                "name": "id",
                                "type": "uint256",
                                "value": "37,492,372,025,078,899,002,497,530,944,512,136,564,458,277,170,737,903,241,124,446,936,309,431,430,848"
                            },
                            {
                                "name": "owner",
                                "type": "address",
                                "value": "0xd4416b13d2b3a9abae7acd5d6c2bbdbe25686401"
                            },
                            {
                                "name": "expires",
                                "type": "uint256",
                                "value": "1,794,119,399"
                            }
                        ],
                        "signature": "NameRegistered(uint256,address,uint256)"
                    },
                    "id": 15,
                    "logData": "0x000000000000000000000000000000000000000000000000000000006af016e7",
                    "logDecoded": true,
                    "operation": "EVENT",
                    "revert": false,
                    "status": true,
                    "topics": [
                        "0xb3d987963d01b2f68493b4bdb130988f157ea43070d4ad840fee0466ed9370d9",
                        "0x52e3ee39315dbe165c2b755fe9e46456e83198d2a99a24eb504aba0b90f26ec0",
                        "0x000000000000000000000000d4416b13d2b3a9abae7acd5d6c2bbdbe25686401"
                    ]
                },
                "nodeType": 1
            },
            "16": {
                "event": {
                    "contract": "0xd4416b13d2b3a9abae7acd5d6c2bbdbe25686401",
                    "decodedLog": {
                        "name": "TransferSingle",
                        "params": [
                            {
                                "name": "operator",
                                "type": "address",
                                "value": "0x253553366da8546fc250f225fe3d25d0c782303b"
                            },
                            {
                                "name": "from",
                                "type": "address",
                                "value": "0x0000000000000000000000000000000000000000"
                            },
                            {
                                "name": "to",
                                "type": "address",
                                "value": "0x2764a47704b2b84bc2cba83f02dc244ed284c1ad"
                            },
                            {
                                "name": "id",
                                "type": "uint256",
                                "value": "93,102,414,883,963,158,571,534,156,397,782,963,038,000,745,588,032,720,445,811,139,955,707,146,176,179"
                            },
                            {
                                "name": "value",
                                "type": "uint256",
                                "value": "1"
                            }
                        ],
                        "signature": "TransferSingle(address,address,address,uint256,uint256)"
                    },
                    "id": 16,
                    "logData": "0xcdd619735081f10f0f197ab2048a55e94d358381e7becf62617d222776a886b30000000000000000000000000000000000000000000000000000000000000001",
                    "logDecoded": true,
                    "operation": "EVENT",
                    "revert": false,
                    "status": true,
                    "topics": [
                        "0xc3d58168c5ae7397731d063d5bbf3d657854427343f4c083240f7aacaa2d0f62",
                        "0x000000000000000000000000253553366da8546fc250f225fe3d25d0c782303b",
                        "0x0000000000000000000000000000000000000000000000000000000000000000",
                        "0x0000000000000000000000002764a47704b2b84bc2cba83f02dc244ed284c1ad"
                    ]
                },
                "nodeType": 1
            },
            "17": {
                "event": {
                    "contract": "0xd4416b13d2b3a9abae7acd5d6c2bbdbe25686401",
                    "decodedLog": {
                        "name": "NameWrapped",
                        "params": [
                            {
                                "name": "node",
                                "type": "bytes32",
                                "value": "0xcdd619735081f10f0f197ab2048a55e94d358381e7becf62617d222776a886b3"
                            },
                            {
                                "name": "name",
                                "type": "bytes",
                                "value": "0x0a73756e646179626573740365746800"
                            },
                            {
                                "name": "owner",
                                "type": "address",
                                "value": "0x2764a47704b2b84bc2cba83f02dc244ed284c1ad"
                            },
                            {
                                "name": "fuses",
                                "type": "uint32",
                                "value": "196,608"
                            },
                            {
                                "name": "expiry",
                                "type": "uint64",
                                "value": "1,801,895,399"
                            }
                        ],
                        "signature": "NameWrapped(bytes32,bytes,address,uint32,uint64)"
                    },
                    "id": 17,
                    "logData": "0x00000000000000000000000000000000000000000000000000000000000000800000000000000000000000002764a47704b2b84bc2cba83f02dc244ed284c1ad0000000000000000000000000000000000000000000000000000000000030000000000000000000000000000000000000000000000000000000000006b66bde700000000000000000000000000000000000000000000000000000000000000100a73756e64617962657374036574680000000000000000000000000000000000",
                    "logDecoded": true,
                    "operation": "EVENT",
                    "revert": false,
                    "status": true,
                    "topics": [
                        "0x8ce7013e8abebc55c3890a68f5a27c67c3f7efa64e584de5fb22363c606fd340",
                        "0xcdd619735081f10f0f197ab2048a55e94d358381e7becf62617d222776a886b3"
                    ]
                },
                "nodeType": 1
            },
            "18": {
                "invocation": {
                    "address": "0x00000000000c2e074ec69a0dfb2997ba6c7d2e1e",
                    "callData": "0xcdd619735081f10f0f197ab2048a55e94d358381e7becf62617d222776a886b3000000000000000000000000231b0ee14048e9dccd1d247744d114a4eb5e8e63",
                    "decodedMethod": {
                        "callParams": [
                            {
                                "name": "node",
                                "type": "bytes32",
                                "value": "0xcdd619735081f10f0f197ab2048a55e94d358381e7becf62617d222776a886b3"
                            },
                            {
                                "name": "resolver",
                                "type": "address",
                                "value": "0x231b0ee14048e9dccd1d247744d114a4eb5e8e63"
                            }
                        ],
                        "constructorArguments": "",
                        "name": "setResolver",
                        "returnParams": [],
                        "signature": "setResolver(bytes32,address)"
                    },
                    "errorInfo": "",
                    "fromAddress": "0xd4416b13d2b3a9abae7acd5d6c2bbdbe25686401",
                    "gasUsed": 7271,
                    "id": 18,
                    "methodDecoded": true,
                    "operation": "CALL",
                    "output": "",
                    "revert": false,
                    "revertMessage": "",
                    "selector": "0x1896f70a",
                    "status": true,
                    "value": "0"
                },
                "nodeType": 0
            },
            "19": {
                "event": {
                    "contract": "0x00000000000c2e074ec69a0dfb2997ba6c7d2e1e",
                    "decodedLog": {
                        "name": "NewResolver",
                        "params": [
                            {
                                "name": "node",
                                "type": "bytes32",
                                "value": "0xcdd619735081f10f0f197ab2048a55e94d358381e7becf62617d222776a886b3"
                            },
                            {
                                "name": "resolver",
                                "type": "address",
                                "value": "0x231b0ee14048e9dccd1d247744d114a4eb5e8e63"
                            }
                        ],
                        "signature": "NewResolver(bytes32,address)"
                    },
                    "id": 19,
                    "logData": "0x000000000000000000000000231b0ee14048e9dccd1d247744d114a4eb5e8e63",
                    "logDecoded": true,
                    "operation": "EVENT",
                    "revert": false,
                    "status": true,
                    "topics": [
                        "0x335721b01866dc23fbee8b6b2c7b1e14d6f05c28cd35a2c934239f94095602a0",
                        "0xcdd619735081f10f0f197ab2048a55e94d358381e7becf62617d222776a886b3"
                    ]
                },
                "nodeType": 1
            },
            "2": {
                "invocation": {
                    "address": "0x7542565191d074ce84fbfa92cae13acb84788ca9",
                    "callData": "0x0000000000000000000000000000000000000000000000000000000000000060000000000000000000000000000000000000000000000000000000006498c2f60000000000000000000000000000000000000000000000000000000005a39a80000000000000000000000000000000000000000000000000000000000000000a73756e6461796265737400000000000000000000000000000000000000000000",
                    "decodedMethod": {
                        "callParams": [
                            {
                                "name": "name",
                                "type": "string",
                                "value": "sundaybest"
                            },
                            {
                                "name": "expires",
                                "type": "uint256",
                                "value": "1,687,732,982"
                            },
                            {
                                "name": "duration",
                                "type": "uint256",
                                "value": "94,608,000"
                            }
                        ],
                        "constructorArguments": "",
                        "name": "price",
                        "returnParams": [
                            {
                                "name": "",
                                "type": "(uint256,uint256)",
                                "value": [
                                    {
                                        "name": "base",
                                        "type": "uint256",
                                        "value": "7,808,411,513,218,937"
                                    },
                                    {
                                        "name": "premium",
                                        "type": "uint256",
                                        "value": "0"
                                    }
                                ]
                            }
                        ],
                        "signature": "price(string,uint256,uint256)"
                    },
                    "errorInfo": "",
                    "fromAddress": "0x253553366da8546fc250f225fe3d25d0c782303b",
                    "gasUsed": 26888,
                    "id": 2,
                    "methodDecoded": true,
                    "operation": "STATICCALL",
                    "output": "0x000000000000000000000000000000000000000000000000001bbdb57a8167790000000000000000000000000000000000000000000000000000000000000000",
                    "revert": false,
                    "revertMessage": "",
                    "selector": "0x50e9a715",
                    "status": true,
                    "value": "0"
                },
                "nodeType": 0
            },
            "20": {
                "invocation": {
                    "address": "0x231b0ee14048e9dccd1d247744d114a4eb5e8e63",
                    "callData": "0xcdd619735081f10f0f197ab2048a55e94d358381e7becf62617d222776a886b300000000000000000000000000000000000000000000000000000000000000400000000000000000000000000000000000000000000000000000000000000001000000000000000000000000000000000000000000000000000000000000002000000000000000000000000000000000000000000000000000000000000000a48b95dd71cdd619735081f10f0f197ab2048a55e94d358381e7becf62617d222776a886b3000000000000000000000000000000000000000000000000000000000000003c000000000000000000000000000000000000000000000000000000000000006000000000000000000000000000000000000000000000000000000000000000142764a47704b2b84bc2cba83f02dc244ed284c1ad00000000000000000000000000000000000000000000000000000000000000000000000000000000",
                    "decodedMethod": {
                        "callParams": [
                            {
                                "name": "nodehash",
                                "type": "bytes32",
                                "value": "0xcdd619735081f10f0f197ab2048a55e94d358381e7becf62617d222776a886b3"
                            },
                            {
                                "name": "data",
                                "type": "bytes[]",
                                "value": [
                                    "0x8b95dd71cdd619735081f10f0f197ab2048a55e94d358381e7becf62617d222776a886b3000000000000000000000000000000000000000000000000000000000000003c000000000000000000000000000000000000000000000000000000000000006000000000000000000000000000000000000000000000000000000000000000142764a47704b2b84bc2cba83f02dc244ed284c1ad000000000000000000000000"
                                ]
                            }
                        ],
                        "constructorArguments": "",
                        "name": "multicallWithNodeCheck",
                        "returnParams": [
                            {
                                "name": "results",
                                "type": "bytes[]",
                                "value": [
                                    "0x"
                                ]
                            }
                        ],
                        "signature": "multicallWithNodeCheck(bytes32,bytes[])"
                    },
                    "errorInfo": "",
                    "fromAddress": "0x253553366da8546fc250f225fe3d25d0c782303b",
                    "gasUsed": 32181,
                    "id": 20,
                    "methodDecoded": true,
                    "operation": "CALL",
                    "output": "0x0000000000000000000000000000000000000000000000000000000000000020000000000000000000000000000000000000000000000000000000000000000100000000000000000000000000000000000000000000000000000000000000200000000000000000000000000000000000000000000000000000000000000000",
                    "revert": false,
                    "revertMessage": "",
                    "selector": "0xe32954eb",
                    "status": true,
                    "value": "0"
                },
                "nodeType": 0
            },
            "21": {
                "invocation": {
                    "address": "0x231b0ee14048e9dccd1d247744d114a4eb5e8e63",
                    "callData": "0xcdd619735081f10f0f197ab2048a55e94d358381e7becf62617d222776a886b3000000000000000000000000000000000000000000000000000000000000003c000000000000000000000000000000000000000000000000000000000000006000000000000000000000000000000000000000000000000000000000000000142764a47704b2b84bc2cba83f02dc244ed284c1ad000000000000000000000000",
                    "decodedMethod": {
                        "callParams": [
                            {
                                "name": "node",
                                "type": "bytes32",
                                "value": "0xcdd619735081f10f0f197ab2048a55e94d358381e7becf62617d222776a886b3"
                            },
                            {
                                "name": "coinType",
                                "type": "uint256",
                                "value": "60"
                            },
                            {
                                "name": "a",
                                "type": "bytes",
                                "value": "0x2764a47704b2b84bc2cba83f02dc244ed284c1ad"
                            }
                        ],
                        "constructorArguments": "",
                        "name": "setAddr",
                        "returnParams": [],
                        "signature": "setAddr(bytes32,uint256,bytes)"
                    },
                    "errorInfo": "",
                    "fromAddress": "0x231b0ee14048e9dccd1d247744d114a4eb5e8e63",
                    "gasUsed": 29698,
                    "id": 21,
                    "methodDecoded": true,
                    "operation": "DELEGATECALL",
                    "output": "",
                    "revert": false,
                    "revertMessage": "",
                    "selector": "0x8b95dd71",
                    "status": true,
                    "value": "0"
                },
                "nodeType": 0
            },
            "22": {
                "event": {
                    "contract": "0x231b0ee14048e9dccd1d247744d114a4eb5e8e63",
                    "decodedLog": {
                        "name": "AddressChanged",
                        "params": [
                            {
                                "name": "node",
                                "type": "bytes32",
                                "value": "0xcdd619735081f10f0f197ab2048a55e94d358381e7becf62617d222776a886b3"
                            },
                            {
                                "name": "coinType",
                                "type": "uint256",
                                "value": "60"
                            },
                            {
                                "name": "newAddress",
                                "type": "bytes",
                                "value": "0x2764a47704b2b84bc2cba83f02dc244ed284c1ad"
                            }
                        ],
                        "signature": "AddressChanged(bytes32,uint256,bytes)"
                    },
                    "id": 22,
                    "logData": "0x000000000000000000000000000000000000000000000000000000000000003c000000000000000000000000000000000000000000000000000000000000004000000000000000000000000000000000000000000000000000000000000000142764a47704b2b84bc2cba83f02dc244ed284c1ad000000000000000000000000",
                    "logDecoded": true,
                    "operation": "EVENT",
                    "revert": false,
                    "status": true,
                    "topics": [
                        "0x65412581168e88a1e60c6459d7f44ae83ad0832e670826c05a4e2476b57af752",
                        "0xcdd619735081f10f0f197ab2048a55e94d358381e7becf62617d222776a886b3"
                    ]
                },
                "nodeType": 1
            },
            "23": {
                "event": {
                    "contract": "0x231b0ee14048e9dccd1d247744d114a4eb5e8e63",
                    "decodedLog": {
                        "name": "AddrChanged",
                        "params": [
                            {
                                "name": "node",
                                "type": "bytes32",
                                "value": "0xcdd619735081f10f0f197ab2048a55e94d358381e7becf62617d222776a886b3"
                            },
                            {
                                "name": "a",
                                "type": "address",
                                "value": "0x2764a47704b2b84bc2cba83f02dc244ed284c1ad"
                            }
                        ],
                        "signature": "AddrChanged(bytes32,address)"
                    },
                    "id": 23,
                    "logData": "0x0000000000000000000000002764a47704b2b84bc2cba83f02dc244ed284c1ad",
                    "logDecoded": true,
                    "operation": "EVENT",
                    "revert": false,
                    "status": true,
                    "topics": [
                        "0x52d7d861f09ab3d26239d492e8968629f95e9e318cf0b73bfddc441522a15fd2",
                        "0xcdd619735081f10f0f197ab2048a55e94d358381e7becf62617d222776a886b3"
                    ]
                },
                "nodeType": 1
            },
            "24": {
                "event": {
                    "contract": "0x253553366da8546fc250f225fe3d25d0c782303b",
                    "decodedLog": {
                        "name": "NameRegistered",
                        "params": [
                            {
                                "name": "label",
                                "type": "bytes32",
                                "value": "0x52e3ee39315dbe165c2b755fe9e46456e83198d2a99a24eb504aba0b90f26ec0"
                            },
                            {
                                "name": "owner",
                                "type": "address",
                                "value": "0x2764a47704b2b84bc2cba83f02dc244ed284c1ad"
                            },
                            {
                                "name": "name",
                                "type": "string",
                                "value": "sundaybest"
                            },
                            {
                                "name": "baseCost",
                                "type": "uint256",
                                "value": "7,808,411,513,218,937"
                            },
                            {
                                "name": "premium",
                                "type": "uint256",
                                "value": "0"
                            },
                            {
                                "name": "expires",
                                "type": "uint256",
                                "value": "1,794,119,399"
                            }
                        ],
                        "signature": "NameRegistered(string,bytes32,address,uint256,uint256,uint256)"
                    },
                    "id": 24,
                    "logData": "0x0000000000000000000000000000000000000000000000000000000000000080000000000000000000000000000000000000000000000000001bbdb57a8167790000000000000000000000000000000000000000000000000000000000000000000000000000000000000000000000000000000000000000000000006af016e7000000000000000000000000000000000000000000000000000000000000000a73756e6461796265737400000000000000000000000000000000000000000000",
                    "logDecoded": true,
                    "operation": "EVENT",
                    "revert": false,
                    "status": true,
                    "topics": [
                        "0x69e37f151eb98a09618ddaa80c8cfaf1ce5996867c489f45b555b412271ebf27",
                        "0x52e3ee39315dbe165c2b755fe9e46456e83198d2a99a24eb504aba0b90f26ec0",
                        "0x0000000000000000000000002764a47704b2b84bc2cba83f02dc244ed284c1ad"
                    ]
                },
                "nodeType": 1
            },
            "25": {
                "invocation": {
                    "address": "0x2764a47704b2b84bc2cba83f02dc244ed284c1ad",
                    "callData": "0x",
                    "decodedMethod": null,
                    "errorInfo": "",
                    "fromAddress": "0x253553366da8546fc250f225fe3d25d0c782303b",
                    "gasUsed": 0,
                    "id": 25,
                    "methodDecoded": false,
                    "operation": "CALL",
                    "output": "",
                    "revert": false,
                    "revertMessage": "",
                    "selector": "fallback",
                    "status": true,
                    "value": "0.000156168230264378"
                },
                "nodeType": 0
            },
            "3": {
                "invocation": {
                    "address": "0x5f4ec3df9cbd43714fe2740f5e3616155c5b8419",
                    "callData": "0x",
                    "decodedMethod": {
                        "callParams": [],
                        "constructorArguments": "",
                        "name": "latestAnswer",
                        "returnParams": [
                            {
                                "name": "",
                                "type": "int256",
                                "value": "192,100,531,262"
                            }
                        ],
                        "signature": "latestAnswer()"
                    },
                    "errorInfo": "",
                    "fromAddress": "0x7542565191d074ce84fbfa92cae13acb84788ca9",
                    "gasUsed": 14620,
                    "id": 3,
                    "methodDecoded": true,
                    "operation": "STATICCALL",
                    "output": "0x0000000000000000000000000000000000000000000000000000002cba157c3e",
                    "revert": false,
                    "revertMessage": "",
                    "selector": "0x50d25bcd",
                    "status": true,
                    "value": "0"
                },
                "nodeType": 0
            },
            "4": {
                "invocation": {
                    "address": "0xe62b71cf983019bff55bc83b48601ce8419650cc",
                    "callData": "0x",
                    "decodedMethod": {
                        "callParams": [],
                        "constructorArguments": "",
                        "name": "latestAnswer",
                        "returnParams": [
                            {
                                "name": "",
                                "type": "int256",
                                "value": "192,100,531,262"
                            }
                        ],
                        "signature": "latestAnswer()"
                    },
                    "errorInfo": "",
                    "fromAddress": "0x5f4ec3df9cbd43714fe2740f5e3616155c5b8419",
                    "gasUsed": 7124,
                    "id": 4,
                    "methodDecoded": true,
                    "operation": "STATICCALL",
                    "output": "0x0000000000000000000000000000000000000000000000000000002cba157c3e",
                    "revert": false,
                    "revertMessage": "",
                    "selector": "0x50d25bcd",
                    "status": true,
                    "value": "0"
                },
                "nodeType": 0
            },
            "5": {
                "invocation": {
                    "address": "0x5f4ec3df9cbd43714fe2740f5e3616155c5b8419",
                    "callData": "0x",
                    "decodedMethod": {
                        "callParams": [],
                        "constructorArguments": "",
                        "name": "latestAnswer",
                        "returnParams": [
                            {
                                "name": "",
                                "type": "int256",
                                "value": "192,100,531,262"
                            }
                        ],
                        "signature": "latestAnswer()"
                    },
                    "errorInfo": "",
                    "fromAddress": "0x7542565191d074ce84fbfa92cae13acb84788ca9",
                    "gasUsed": 2120,
                    "id": 5,
                    "methodDecoded": true,
                    "operation": "STATICCALL",
                    "output": "0x0000000000000000000000000000000000000000000000000000002cba157c3e",
                    "revert": false,
                    "revertMessage": "",
                    "selector": "0x50d25bcd",
                    "status": true,
                    "value": "0"
                },
                "nodeType": 0
            },
            "6": {
                "invocation": {
                    "address": "0xe62b71cf983019bff55bc83b48601ce8419650cc",
                    "callData": "0x",
                    "decodedMethod": {
                        "callParams": [],
                        "constructorArguments": "",
                        "name": "latestAnswer",
                        "returnParams": [
                            {
                                "name": "",
                                "type": "int256",
                                "value": "192,100,531,262"
                            }
                        ],
                        "signature": "latestAnswer()"
                    },
                    "errorInfo": "",
                    "fromAddress": "0x5f4ec3df9cbd43714fe2740f5e3616155c5b8419",
                    "gasUsed": 1124,
                    "id": 6,
                    "methodDecoded": true,
                    "operation": "STATICCALL",
                    "output": "0x0000000000000000000000000000000000000000000000000000002cba157c3e",
                    "revert": false,
                    "revertMessage": "",
                    "selector": "0x50d25bcd",
                    "status": true,
                    "value": "0"
                },
                "nodeType": 0
            },
            "7": {
                "invocation": {
                    "address": "0x57f1887a8bf19b14fc0df6fd9b2acc9af147ea85",
                    "callData": "0x52e3ee39315dbe165c2b755fe9e46456e83198d2a99a24eb504aba0b90f26ec0",
                    "decodedMethod": {
                        "callParams": [
                            {
                                "name": "id",
                                "type": "uint256",
                                "value": "37,492,372,025,078,899,002,497,530,944,512,136,564,458,277,170,737,903,241,124,446,936,309,431,430,848"
                            }
                        ],
                        "constructorArguments": "",
                        "name": "available",
                        "returnParams": [
                            {
                                "name": "",
                                "type": "bool",
                                "value": true
                            }
                        ],
                        "signature": "available(uint256)"
                    },
                    "errorInfo": "",
                    "fromAddress": "0x253553366da8546fc250f225fe3d25d0c782303b",
                    "gasUsed": 569,
                    "id": 7,
                    "methodDecoded": true,
                    "operation": "STATICCALL",
                    "output": "0x0000000000000000000000000000000000000000000000000000000000000001",
                    "revert": false,
                    "revertMessage": "",
                    "selector": "0x96e494e8",
                    "status": true,
                    "value": "0"
                },
                "nodeType": 0
            },
            "8": {
                "invocation": {
                    "address": "0xd4416b13d2b3a9abae7acd5d6c2bbdbe25686401",
                    "callData": "0x00000000000000000000000000000000000000000000000000000000000000a00000000000000000000000002764a47704b2b84bc2cba83f02dc244ed284c1ad0000000000000000000000000000000000000000000000000000000005a39a80000000000000000000000000231b0ee14048e9dccd1d247744d114a4eb5e8e630000000000000000000000000000000000000000000000000000000000000000000000000000000000000000000000000000000000000000000000000000000a73756e6461796265737400000000000000000000000000000000000000000000",
                    "decodedMethod": {
                        "callParams": [
                            {
                                "name": "label",
                                "type": "string",
                                "value": "sundaybest"
                            },
                            {
                                "name": "wrappedOwner",
                                "type": "address",
                                "value": "0x2764a47704b2b84bc2cba83f02dc244ed284c1ad"
                            },
                            {
                                "name": "duration",
                                "type": "uint256",
                                "value": "94,608,000"
                            },
                            {
                                "name": "resolver",
                                "type": "address",
                                "value": "0x231b0ee14048e9dccd1d247744d114a4eb5e8e63"
                            },
                            {
                                "name": "ownerControlledFuses",
                                "type": "uint16",
                                "value": "0"
                            }
                        ],
                        "constructorArguments": "",
                        "name": "registerAndWrapETH2LD",
                        "returnParams": [
                            {
                                "name": "registrarExpiry",
                                "type": "uint256",
                                "value": "1,794,119,399"
                            }
                        ],
                        "signature": "registerAndWrapETH2LD(string,address,uint256,address,uint16)"
                    },
                    "errorInfo": "",
                    "fromAddress": "0x253553366da8546fc250f225fe3d25d0c782303b",
                    "gasUsed": 115001,
                    "id": 8,
                    "methodDecoded": true,
                    "operation": "CALL",
                    "output": "0x000000000000000000000000000000000000000000000000000000006af016e7",
                    "revert": false,
                    "revertMessage": "",
                    "selector": "0xa4014982",
                    "status": true,
                    "value": "0"
                },
                "nodeType": 0
            },
            "9": {
                "invocation": {
                    "address": "0x57f1887a8bf19b14fc0df6fd9b2acc9af147ea85",
                    "callData": "0x52e3ee39315dbe165c2b755fe9e46456e83198d2a99a24eb504aba0b90f26ec0000000000000000000000000d4416b13d2b3a9abae7acd5d6c2bbdbe256864010000000000000000000000000000000000000000000000000000000005a39a80",
                    "decodedMethod": {
                        "callParams": [
                            {
                                "name": "id",
                                "type": "uint256",
                                "value": "37,492,372,025,078,899,002,497,530,944,512,136,564,458,277,170,737,903,241,124,446,936,309,431,430,848"
                            },
                            {
                                "name": "owner",
                                "type": "address",
                                "value": "0xd4416b13d2b3a9abae7acd5d6c2bbdbe25686401"
                            },
                            {
                                "name": "duration",
                                "type": "uint256",
                                "value": "94,608,000"
                            }
                        ],
                        "constructorArguments": "",
                        "name": "register",
                        "returnParams": [
                            {
                                "name": "",
                                "type": "uint256",
                                "value": "1,794,119,399"
                            }
                        ],
                        "signature": "register(uint256,address,uint256)"
                    },
                    "errorInfo": "",
                    "fromAddress": "0xd4416b13d2b3a9abae7acd5d6c2bbdbe25686401",
                    "gasUsed": 50893,
                    "id": 9,
                    "methodDecoded": true,
                    "operation": "CALL",
                    "output": "0x000000000000000000000000000000000000000000000000000000006af016e7",
                    "revert": false,
                    "revertMessage": "",
                    "selector": "0xfca247ac",
                    "status": true,
                    "value": "0"
                },
                "nodeType": 0
            }
        },
        "gasFlame": [
            {
                "children": [
                    {
                        "children": [
                            {
                                "children": [],
                                "depth": 0,
                                "name": "Initial Gas",
                                "value": 25272
                            },
                            {
                                "children": [
                                    {
                                        "children": [],
                                        "depth": 1,
                                        "name": "nameExpires",
                                        "value": 2523
                                    },
                                    {
                                        "children": [
                                            {
                                                "children": [
                                                    {
                                                        "children": [],
                                                        "depth": 3,
                                                        "name": "latestAnswer",
                                                        "value": 7124
                                                    }
                                                ],
                                                "depth": 2,
                                                "name": "latestAnswer",
                                                "value": 14620
                                            },
                                            {
                                                "children": [
                                                    {
                                                        "children": [],
                                                        "depth": 3,
                                                        "name": "latestAnswer",
                                                        "value": 1124
                                                    }
                                                ],
                                                "depth": 2,
                                                "name": "latestAnswer",
                                                "value": 2120
                                            }
                                        ],
                                        "depth": 1,
                                        "name": "price",
                                        "value": 26888
                                    },
                                    {
                                        "children": [],
                                        "depth": 1,
                                        "name": "available",
                                        "value": 569
                                    },
                                    {
                                        "children": [
                                            {
                                                "children": [
                                                    {
                                                        "children": [],
                                                        "depth": 3,
                                                        "name": "owner",
                                                        "value": 2951
                                                    },
                                                    {
                                                        "children": [],
                                                        "depth": 3,
                                                        "name": "setSubnodeOwner",
                                                        "value": 7969
                                                    }
                                                ],
                                                "depth": 2,
                                                "name": "register",
                                                "value": 50893
                                            },
                                            {
                                                "children": [],
                                                "depth": 2,
                                                "name": "setResolver",
                                                "value": 7271
                                            }
                                        ],
                                        "depth": 1,
                                        "name": "registerAndWrapETH2LD",
                                        "value": 115001
                                    },
                                    {
                                        "children": [
                                            {
                                                "children": [],
                                                "depth": 2,
                                                "name": "setAddr",
                                                "value": 29698
                                            }
                                        ],
                                        "depth": 1,
                                        "name": "multicallWithNodeCheck",
                                        "value": 32181
                                    },
                                    {
                                        "children": [],
                                        "depth": 1,
                                        "name": "fallback",
                                        "value": 0
                                    }
                                ],
                                "depth": 0,
                                "name": "Executed Gas",
                                "value": 214471
                            }
                        ],
                        "depth": -1,
                        "name": "Actual Gas Used",
                        "value": 234943
                    },
                    {
                        "children": [],
                        "depth": -1,
                        "name": "Refunded Gas",
                        "value": 4800
                    }
                ],
                "depth": -2,
                "name": "Total Gas",
                "value": 239743
            }
        ],
        "isConfirmed": true,
        "mainTrace": [
            {
                "children": [
                    {
                        "children": [
                            {
                                "children": [],
                                "depth": 1,
                                "id": 1,
                                "order": 1
                            },
                            {
                                "children": [
                                    {
                                        "children": [
                                            {
                                                "children": [],
                                                "depth": 3,
                                                "id": 4,
                                                "order": 4
                                            }
                                        ],
                                        "depth": 2,
                                        "id": 3,
                                        "order": 3
                                    },
                                    {
                                        "children": [
                                            {
                                                "children": [],
                                                "depth": 3,
                                                "id": 6,
                                                "order": 6
                                            }
                                        ],
                                        "depth": 2,
                                        "id": 5,
                                        "order": 5
                                    }
                                ],
                                "depth": 1,
                                "id": 2,
                                "order": 2
                            },
                            {
                                "children": [],
                                "depth": 1,
                                "id": 7,
                                "order": 7
                            },
                            {
                                "children": [
                                    {
                                        "children": [
                                            {
                                                "children": [],
                                                "depth": 3,
                                                "id": 10,
                                                "order": 10
                                            },
                                            {
                                                "children": [],
                                                "depth": 3,
                                                "id": 11,
                                                "order": 11
                                            },
                                            {
                                                "children": [],
                                                "depth": 3,
                                                "id": 12,
                                                "order": 12
                                            },
                                            {
                                                "children": [
                                                    {
                                                        "children": [],
                                                        "depth": 4,
                                                        "id": 14,
                                                        "order": 14
                                                    }
                                                ],
                                                "depth": 3,
                                                "id": 13,
                                                "order": 13
                                            },
                                            {
                                                "children": [],
                                                "depth": 3,
                                                "id": 15,
                                                "order": 15
                                            }
                                        ],
                                        "depth": 2,
                                        "id": 9,
                                        "order": 9
                                    },
                                    {
                                        "children": [],
                                        "depth": 2,
                                        "id": 16,
                                        "order": 16
                                    },
                                    {
                                        "children": [],
                                        "depth": 2,
                                        "id": 17,
                                        "order": 17
                                    },
                                    {
                                        "children": [
                                            {
                                                "children": [],
                                                "depth": 3,
                                                "id": 19,
                                                "order": 19
                                            }
                                        ],
                                        "depth": 2,
                                        "id": 18,
                                        "order": 18
                                    }
                                ],
                                "depth": 1,
                                "id": 8,
                                "order": 8
                            },
                            {
                                "children": [
                                    {
                                        "children": [
                                            {
                                                "children": [],
                                                "depth": 3,
                                                "id": 22,
                                                "order": 22
                                            },
                                            {
                                                "children": [],
                                                "depth": 3,
                                                "id": 23,
                                                "order": 23
                                            }
                                        ],
                                        "depth": 2,
                                        "id": 21,
                                        "order": 21
                                    }
                                ],
                                "depth": 1,
                                "id": 20,
                                "order": 20
                            },
                            {
                                "children": [],
                                "depth": 1,
                                "id": 24,
                                "order": 24
                            },
                            {
                                "children": [],
                                "depth": 1,
                                "id": 25,
                                "order": 25
                            }
                        ],
                        "depth": 0,
                        "id": 0,
                        "order": 0
                    }
                ],
                "depth": -1,
                "id": -1,
                "order": -1
            }
        ],
        "mainTraceNodeCount": 26,
        "parentIdMap": {
            "0": -1,
            "1": 0,
            "10": 9,
            "11": 9,
            "12": 9,
            "13": 9,
            "14": 13,
            "15": 9,
            "16": 8,
            "17": 8,
            "18": 8,
            "19": 18,
            "2": 0,
            "20": 0,
            "21": 20,
            "22": 21,
            "23": 21,
            "24": 0,
            "25": 0,
            "3": 2,
            "4": 3,
            "5": 2,
            "6": 5,
            "7": 0,
            "8": 0,
            "9": 8
        },
        "tidyTrace": [
            {
                "children": [
                    {
                        "children": [
                            {
                                "children": [
                                    {
                                        "children": [
                                            {
                                                "children": [],
                                                "depth": 3,
                                                "id": 11,
                                                "order": 11
                                            },
                                            {
                                                "children": [],
                                                "depth": 3,
                                                "id": 12,
                                                "order": 12
                                            },
                                            {
                                                "children": [
                                                    {
                                                        "children": [],
                                                        "depth": 4,
                                                        "id": 14,
                                                        "order": 14
                                                    }
                                                ],
                                                "depth": 3,
                                                "id": 13,
                                                "order": 13
                                            },
                                            {
                                                "children": [],
                                                "depth": 3,
                                                "id": 15,
                                                "order": 15
                                            }
                                        ],
                                        "depth": 2,
                                        "id": 9,
                                        "order": 9
                                    },
                                    {
                                        "children": [],
                                        "depth": 2,
                                        "id": 16,
                                        "order": 16
                                    },
                                    {
                                        "children": [],
                                        "depth": 2,
                                        "id": 17,
                                        "order": 17
                                    },
                                    {
                                        "children": [
                                            {
                                                "children": [],
                                                "depth": 3,
                                                "id": 19,
                                                "order": 19
                                            }
                                        ],
                                        "depth": 2,
                                        "id": 18,
                                        "order": 18
                                    }
                                ],
                                "depth": 1,
                                "id": 8,
                                "order": 8
                            },
                            {
                                "children": [
                                    {
                                        "children": [
                                            {
                                                "children": [],
                                                "depth": 3,
                                                "id": 22,
                                                "order": 22
                                            },
                                            {
                                                "children": [],
                                                "depth": 3,
                                                "id": 23,
                                                "order": 23
                                            }
                                        ],
                                        "depth": 2,
                                        "id": 21,
                                        "order": 21
                                    }
                                ],
                                "depth": 1,
                                "id": 20,
                                "order": 20
                            },
                            {
                                "children": [],
                                "depth": 1,
                                "id": 24,
                                "order": 24
                            },
                            {
                                "children": [],
                                "depth": 1,
                                "id": 25,
                                "order": 25
                            }
                        ],
                        "depth": 0,
                        "id": 0,
                        "order": 0
                    }
                ],
                "depth": -1,
                "id": -1,
                "order": -1
            }
        ],
        "tidyTraceNodeCount": 18
    },
    "state_change": {
        "stateChanges": [
            {
                "address": "0x00000000000c2e074ec69a0dfb2997ba6c7d2e1e",
                "erc": "",
                "slots": [
                    {
                        "current": "0x000000000000000000000000d4416b13d2b3a9abae7acd5d6c2bbdbe25686401",
                        "key": "0x4974c5f128566850ea020ce22313132efa2e00dcfde21b5bae40c1805bebed5e",
                        "prev": "0x000000000000000000000000325c2a2e71c5263092d1c2aec1b9bdc59c747124"
                    },
                    {
                        "current": "0x000000000000000000000000231b0ee14048e9dccd1d247744d114a4eb5e8e63",
                        "key": "0x4974c5f128566850ea020ce22313132efa2e00dcfde21b5bae40c1805bebed5f",
                        "prev": "0x0000000000000000000000004976fb03c32e5b8cfe2b6ccb31c09ba78ebaba41"
                    }
                ],
                "storageVariables": [
                    {
                        "name": "records",
                        "type": "mapping(bytes32 => struct ENSRegistry.Record)",
                        "value": {
                            "pairs": [
                                {
                                    "key": "0xcdd619735081f10f0f197ab2048a55e94d358381e7becf62617d222776a886b3",
                                    "value": {
                                        "fields": [
                                            {
                                                "name": "owner",
                                                "type": "address",
                                                "value": {
                                                    "current": "0xd4416b13d2b3a9abae7acd5d6c2bbdbe25686401",
                                                    "prev": "0x325c2a2e71c5263092d1c2aec1b9bdc59c747124",
                                                    "typeTag": 1
                                                }
                                            },
                                            {
                                                "name": "resolver",
                                                "type": "address",
                                                "value": {
                                                    "current": "0x231b0ee14048e9dccd1d247744d114a4eb5e8e63",
                                                    "prev": "0x4976fb03c32e5b8cfe2b6ccb31c09ba78ebaba41",
                                                    "typeTag": 1
                                                }
                                            },
                                            {
                                                "name": "ttl",
                                                "type": "uint64",
                                                "value": {
                                                    "current": "0",
                                                    "prev": "0",
                                                    "typeTag": 1
                                                }
                                            }
                                        ],
                                        "typeTag": 3
                                    }
                                }
                            ],
                            "typeTag": 4
                        }
                    }
                ]
            },
            {
                "address": "0x231b0ee14048e9dccd1d247744d114a4eb5e8e63",
                "erc": "",
                "slots": [
                    {
                        "current": "0x2764a47704b2b84bc2cba83f02dc244ed284c1ad000000000000000000000028",
                        "key": "0x896e39e8a2cd8bd0ddeefb285bf4545e6e8ad4c4c2aecb151e9c299e4ac904b6",
                        "prev": "0x0000000000000000000000000000000000000000000000000000000000000000"
                    }
                ],
                "storageVariables": [
                    {
                        "name": "versionable_addresses",
                        "type": "mapping(uint64 => mapping(bytes32 => mapping(uint256 => bytes)))",
                        "value": {
                            "pairs": [
                                {
                                    "key": "0",
                                    "value": {
                                        "pairs": [
                                            {
                                                "key": "0xcdd619735081f10f0f197ab2048a55e94d358381e7becf62617d222776a886b3",
                                                "value": {
                                                    "pairs": [
                                                        {
                                                            "key": "60",
                                                            "value": {
                                                                "current": "0x2764a47704b2b84bc2cba83f02dc244ed284c1ad",
                                                                "prev": "0x",
                                                                "typeTag": 1
                                                            }
                                                        }
                                                    ],
                                                    "typeTag": 4
                                                }
                                            }
                                        ],
                                        "typeTag": 4
                                    }
                                }
                            ],
                            "typeTag": 4
                        }
                    }
                ]
            },
            {
                "address": "0x253553366da8546fc250f225fe3d25d0c782303b",
                "erc": "",
                "slots": [
                    {
                        "current": "0x0000000000000000000000000000000000000000000000000000000000000000",
                        "key": "0xac28e0174471e6c607e3e3243d56578a231514dd70a7491903ab2a943be2f43e",
                        "prev": "0x00000000000000000000000000000000000000000000000000000000654c7c13"
                    }
                ],
                "storageVariables": [
                    {
                        "name": "commitments",
                        "type": "mapping(bytes32 => uint256)",
                        "value": {
                            "pairs": [
                                {
                                    "key": "0xcad0edeed8feaf80b6f890f95077e6af2e9a6328c81ff798e1e6403054e785c2",
                                    "value": {
                                        "current": "0",
                                        "prev": "1699511315",
                                        "typeTag": 1
                                    }
                                }
                            ],
                            "typeTag": 4
                        }
                    }
                ]
            },
            {
                "address": "0x57f1887a8bf19b14fc0df6fd9b2acc9af147ea85",
                "erc": "ERC-721",
                "slots": [
                    {
                        "current": "0x00000000000000000000000000000000000000000000000000000000000002b1",
                        "key": "0xa3bf611d579c38caa2f4bb7311347515a705af6916e82e42125b065559e21157",
                        "prev": "0x00000000000000000000000000000000000000000000000000000000000002b2"
                    },
                    {
                        "current": "0x000000000000000000000000d4416b13d2b3a9abae7acd5d6c2bbdbe25686401",
                        "key": "0xb9fd4ebc50148957a35c0c48c747b278f3afb2afa8bbd801fec257964650c9af",
                        "prev": "0x000000000000000000000000325c2a2e71c5263092d1c2aec1b9bdc59c747124"
                    },
                    {
                        "current": "0x000000000000000000000000000000000000000000000000000000000002e275",
                        "key": "0x19ff96020c88e66cad0e3ed5f9fdc0bb2652ec609a9261ce85288f989a15a27c",
                        "prev": "0x000000000000000000000000000000000000000000000000000000000002e274"
                    },
                    {
                        "current": "0x000000000000000000000000000000000000000000000000000000006af016e7",
                        "key": "0x437ebf2701c2a62e9717b758dab4948579e9a0e17ccbaa461195e295b1987377",
                        "prev": "0x000000000000000000000000000000000000000000000000000000006498c2f6"
                    }
                ],
                "storageVariables": [
                    {
                        "name": "_ownedTokensCount",
                        "type": "mapping(address => uint256)",
                        "value": {
                            "pairs": [
                                {
                                    "key": "0x325c2a2e71c5263092d1c2aec1b9bdc59c747124",
                                    "value": {
                                        "current": "689",
                                        "prev": "690",
                                        "typeTag": 1
                                    }
                                },
                                {
                                    "key": "0xd4416b13d2b3a9abae7acd5d6c2bbdbe25686401",
                                    "value": {
                                        "current": "189045",
                                        "prev": "189044",
                                        "typeTag": 1
                                    }
                                }
                            ],
                            "typeTag": 4
                        }
                    },
                    {
                        "name": "_tokenOwner",
                        "type": "mapping(uint256 => address)",
                        "value": {
                            "pairs": [
                                {
                                    "key": "37492372025078899002497530944512136564458277170737903241124446936309431430848",
                                    "value": {
                                        "current": "0xd4416b13d2b3a9abae7acd5d6c2bbdbe25686401",
                                        "prev": "0x325c2a2e71c5263092d1c2aec1b9bdc59c747124",
                                        "typeTag": 1
                                    }
                                }
                            ],
                            "typeTag": 4
                        }
                    },
                    {
                        "name": "expiries",
                        "type": "mapping(uint256 => uint256)",
                        "value": {
                            "pairs": [
                                {
                                    "key": "37492372025078899002497530944512136564458277170737903241124446936309431430848",
                                    "value": {
                                        "current": "1794119399",
                                        "prev": "1687732982",
                                        "typeTag": 1
                                    }
                                }
                            ],
                            "typeTag": 4
                        }
                    }
                ]
            },
            {
                "address": "0xd4416b13d2b3a9abae7acd5d6c2bbdbe25686401",
                "erc": "ERC-1155",
                "slots": [
                    {
                        "current": "0x0a73756e64617962657374036574680000000000000000000000000000000020",
                        "key": "0x8b4059568ec4577e2c8fd592090cb412f74ffb4ada89e350cc98c08690044b06",
                        "prev": "0x0000000000000000000000000000000000000000000000000000000000000000"
                    },
                    {
                        "current": "0x000000006b66bde7000300002764a47704b2b84bc2cba83f02dc244ed284c1ad",
                        "key": "0x169a843d41b72a293d5922a2791df5a26e8540173cbf79d8bfe1240639b0e19e",
                        "prev": "0x0000000000000000000000000000000000000000000000000000000000000000"
                    }
                ],
                "storageVariables": [
                    {
                        "name": "names",
                        "type": "mapping(bytes32 => bytes)",
                        "value": {
                            "pairs": [
                                {
                                    "key": "0xcdd619735081f10f0f197ab2048a55e94d358381e7becf62617d222776a886b3",
                                    "value": {
                                        "current": "0x0a73756e646179626573740365746800",
                                        "prev": "0x",
                                        "typeTag": 1
                                    }
                                }
                            ],
                            "typeTag": 4
                        }
                    },
                    {
                        "name": "_tokens",
                        "type": "mapping(uint256 => uint256)",
                        "value": {
                            "pairs": [
                                {
                                    "key": "93102414883963158571534156397782963038000745588032720445811139955707146176179",
                                    "value": {
                                        "current": "11310680736048462897376321948868422281590342274590074874314067591597",
                                        "prev": "0",
                                        "typeTag": 1
                                    }
                                }
                            ],
                            "typeTag": 4
                        }
                    }
                ]
            }
        ]
    }
}