{
    "balance_change": {
        "balanceChanges": [
            {
                "account": "0x4f1ba1e2dbe09f1bd173c319530591e986dff697",
                "assets": [
                    {
                        "address": "0x5ca381bbfb58f0092df149bd3d243b08b9a8386e",
                        "amount": "0.1",
                        "iconUrl": "https://assets.blocksec.com/icon/c4bc97f54629f0ed46961e98203ae0c7c39250e81a0b75fca074c462ed66d76c.png",
                        "isERC1155": false,
                        "isERC721": false,
                        "sign": false,
                        "value": ""
                    }
                ]
            },
            {
                "account": "0x899b7d3079315f999601f4039f36768aac8f5140",
                "assets": [
                    {
                        "address": "0x5ca381bbfb58f0092df149bd3d243b08b9a8386e",
                        "amount": "0.1",
                        "iconUrl": "https://assets.blocksec.com/icon/c4bc97f54629f0ed46961e98203ae0c7c39250e81a0b75fca074c462ed66d76c.png",
                        "isERC1155": false,
                        "isERC721": false,
                        "sign": true,
                        "value": ""
                    }
                ]
            }
        ]
    },
    "profile": {
        "basic_info": {
            "baseFee": "",
            "blockNumber": 9967954,
            "callData": "0xa9059cbb000000000000000000000000899b7d3079315f999601f4039f36768aac8f5140000000000000000000000000000000000000000000000000016345785d8a0000",
            "debugEnable": true,
            "errorInfo": "",
            "eventCount": 1,
            "feeRecipient": "0x4c549990a7ef3fea8784406c1eecc98bf4211fa5",
            "formatValue": "0",
            "gasLimit": 73053,
            "gasPrice": "14.3",
            "gasUsed": 52181,
            "intTxnCount": 0,
            "internalRevert": false,
            "internalRevertMessage": "",
            "isContractCreation": false,
            "isFlashloan": false,
            "maxFee": "",
            "nonce": 1285,
            "overwritedBlockNumber": -1,
            "priorityFee": "",
            "receiver": "0x5ca381bbfb58f0092df149bd3d243b08b9a8386e",
            "revertMessage": "",
            "sender": "0x4f1ba1e2dbe09f1bd173c319530591e986dff697",
            "simulationEnable": true,
            "sourceTxnHash": "0xfe185de8097a5c278b6d86db37e92462dd5b176641fd98b84f8ae47c2e5bcc79",
            "status": true,
            "timestamp": "2020-04-29T14:13:49Z",
            "transactionFee": "0.0007461883",
            "txnHash": "0xfe185de8097a5c278b6d86db37e92462dd5b176641fd98b84f8ae47c2e5bcc79",
            "txnIndex": 146,
            "type": 0,
            "value": "0"
        },
        "fund_flow": [
            {
                "amount": "0.1",
                "from": "0x4f1ba1e2dbe09f1bd173c319530591e986dff697",
                "id": 1,
                "isERC1155": false,
                "isERC721": false,
                "isReverted": false,
                "order": 1,
                "to": "0x899b7d3079315f999601f4039f36768aac8f5140",
                "token": "0x5ca381bbfb58f0092df149bd3d243b08b9a8386e"
            }
        ],
        "token_infos": [
            {
                "address": "0xc02aaa39b223fe8d0a0e5c4f27ead9083c756cc2",
                "decimals": 18
            },
            {
                "address": "0xeeeeeeeeeeeeeeeeeeeeeeeeeeeeeeeeeeeeeeee",
                "decimals": 18
            },
            {
                "address": "0x5ca381bbfb58f0092df149bd3d243b08b9a8386e",
                "decimals": 18
            }
        ]
    },
    "address_label": {
        "labels": [
            {
                "address": "0x5ca381bbfb58f0092df149bd3d243b08b9a8386e",
                "label": "MXC: MXC Token"
            },
            {
                "address": "0x0000000000000000000000000000000000000001",
                "label": "Precompiled"
            },
            {
                "address": "0x0000000000000000000000000000000000000002",
                "label": "Precompiled"
            },
            {
                "address": "0x0000000000000000000000000000000000000003",
                "label": "Precompiled"
            },
            {
                "address": "0x0000000000000000000000000000000000000004",
                "label": "Precompiled"
            },
            {
                "address": "0xeeeeeeeeeeeeeeeeeeeeeeeeeeeeeeeeeeeeeeee",
                "label": "Ether"
            }
        ]
    },
    "trace": {
        "accountLabels": null,
        "dataMap": {
            "-1": {
                "invocation": {
                    "address": "0x4f1ba1e2dbe09f1bd173c319530591e986dff697",
                    "callData": "",
                    "decodedMethod": null,
                    "errorInfo": "",
                    "fromAddress": "",
                    "gasUsed": 0,
                    "id": -1,
                    "methodDecoded": false,
                    "operation": "",
                    "output": "",
                    "revert": false,
                    "revertMessage": "",
                    "selector": "",
                    "status": false,
                    "value": ""
                },
                "nodeType": 0
            },
            "0": {
                "invocation": {
                    "address": "0x5ca381bbfb58f0092df149bd3d243b08b9a8386e",
                    "callData": "0x000000000000000000000000899b7d3079315f999601f4039f36768aac8f5140000000000000000000000000000000000000000000000000016345785d8a0000",
                    "decodedMethod": {
                        "callParams": [
                            {
                                "name": "_to",
                                "type": "address",
                                "value": "0x899b7d3079315f999601f4039f36768aac8f5140"
                            },
                            {
                                "decimalAvailable": true,
                                "name": "_value",
                                "type": "uint256",
                                "value": "100,000,000,000,000,000"
                            }
                        ],
                        "constructorArguments": "",
                        "name": "transfer",
                        "returnParams": [
                            {
                                "name": "",
                                "type": "bool",
                                "value": true
                            }
                        ],
                        "signature": "transfer(address,uint256)"
                    },
                    "errorInfo": "",
                    "fromAddress": "0x4f1ba1e2dbe09f1bd173c319530591e986dff697",
                    "gasUsed": 52181,
                    "id": 0,
                    "methodDecoded": true,
                    "operation": "CALL",
                    "output": "0x0000000000000000000000000000000000000000000000000000000000000001",
                    "revert": false,
                    "revertMessage": "",
                    "selector": "0xa9059cbb",
                    "status": true,
                    "value": "0"
                },
                "nodeType": 0
            },
            "1": {
                "event": {
                    "contract": "0x5ca381bbfb58f0092df149bd3d243b08b9a8386e",
                    "decodedLog": {
                        "name": "Transfer",
                        "params": [
                            {
                                "name": "from",
                                "type": "address",
                                "value": "0x4f1ba1e2dbe09f1bd173c319530591e986dff697"
                            },
                            {
                                "name": "to",
                                "type": "address",
                                "value": "0x899b7d3079315f999601f4039f36768aac8f5140"
                            },
                            {
                                "decimalAvailable": true,
                                "name": "value",
                                "type": "uint256",
                                "value": "100,000,000,000,000,000"
                            }
                        ],
                        "signature": "Transfer(address,address,uint256)"
                    },
                    "id": 1,
                    "logData": "0x000000000000000000000000000000000000000000000000016345785d8a0000",
                    "logDecoded": true,
                    "operation": "EVENT",
                    "revert": false,
                    "status": true,
                    "topics": [
                        "0xddf252ad1be2c89b69c2b068fc378daa952ba7f163c4a11628f55a4df523b3ef",
                        "0x0000000000000000000000004f1ba1e2dbe09f1bd173c319530591e986dff697",
                        "0x000000000000000000000000899b7d3079315f999601f4039f36768aac8f5140"
                    ]
                },
                "nodeType": 1
            }
        },
        "gasFlame": [
            {
                "children": [
                    {
                        "children": [
                            {
                                "children": [],
                                "depth": 0,
                                "name": "Initial Gas",
                                "value": 21632
                            },
                            {
                                "children": [],
                                "depth": 0,
                                "name": "Executed Gas",
                                "value": 30549
                            }
                        ],
                        "depth": -1,
                        "name": "Actual Gas Used",
                        "value": 52181
                    },
                    {
                        "children": [],
                        "depth": -1,
                        "name": "Refunded Gas",
                        "value": 0
                    }
                ],
                "depth": -2,
                "name": "Total Gas",
                "value": 52181
            }
        ],
        "isConfirmed": true,
        "mainTrace": [
            {
                "children": [
                    {
                        "children": [
                            {
                                "children": [],
                                "depth": 1,
                                "id": 1,
                                "order": 1
                            }
                        ],
                        "depth": 0,
                        "id": 0,
                        "order": 0
                    }
                ],
                "depth": -1,
                "id": -1,
                "order": -1
            }
        ],
        "mainTraceNodeCount": 2,
        "parentIdMap": {
            "0": -1,
            "1": 0
        },
        "tidyTrace": [
            {
                "children": [
                    {
                        "children": [
                            {
                                "children": [],
                                "depth": 1,
                                "id": 1,
                                "order": 1
                            }
                        ],
                        "depth": 0,
                        "id": 0,
                        "order": 0
                    }
                ],
                "depth": -1,
                "id": -1,
                "order": -1
            }
        ],
        "tidyTraceNodeCount": 2
    },
    "state_change": {
        "stateChanges": [
            {
                "address": "0x5ca381bbfb58f0092df149bd3d243b08b9a8386e",
                "erc": "ERC-20",
                "slots": [
                    {
                        "current": "0x000000000000000000000000000000000000000000000000016345785d8a0000",
                        "key": "0x95c5c96ec77709d0c649c0255e9c098c47d6a50c51929abeca54cc895ab116d8",
                        "prev": "0x0000000000000000000000000000000000000000000000000000000000000000"
                    },
                    {
                        "current": "0x000000000000000000000000000000000000000000000069d9c4baae8bbc0000",
                        "key": "0x70bfa5aecb478bc3e1cd78c964888cb5f48010e956a60e51d60dc63cbfc1760e",
                        "prev": "0x000000000000000000000000000000000000000000000069db280026e9460000"
                    }
                ],
                "storageVariables": [
                    {
                        "name": "balances",
                        "type": "mapping(address => uint256)",
                        "value": {
                            "pairs": [
                                {
                                    "key": "0x4f1ba1e2dbe09f1bd173c319530591e986dff697",
                                    "value": {
                                        "current": "1952600000000000000000",
                                        "prev": "1952700000000000000000",
                                        "typeTag": 1
                                    }
                                },
                                {
                                    "key": "0x899b7d3079315f999601f4039f36768aac8f5140",
                                    "value": {
                                        "current": "100000000000000000",
                                        "prev": "0",
                                        "typeTag": 1
                                    }
                                }
                            ],
                            "typeTag": 4
                        }
                    }
                ]
            }
        ]
    }
}