{
    "balance_change": {
        "balanceChanges": [
            {
                "account": "0x0ad93988b24d72c51e6de092013611111e103918",
                "assets": [
                    {
                        "address": "0xdac17f958d2ee523a2206206994597c13d831ec7",
                        "amount": "1,310",
                        "iconUrl": "https://assets.blocksec.com/icon/fcea71f3193ce895be44bfdf941f7e4c9381dd587f273c2d1a27f1263d84e4ea.png",
                        "isERC1155": false,
                        "isERC721": false,
                        "sign": true,
                        "value": ""
                    }
                ]
            },
            {
                "account": "0x64a97cbf6d715e54e570c9b499ad3d0017f6b3dd",
                "assets": [
                    {
                        "address": "0xdac17f958d2ee523a2206206994597c13d831ec7",
                        "amount": "1,310",
                        "iconUrl": "https://assets.blocksec.com/icon/fcea71f3193ce895be44bfdf941f7e4c9381dd587f273c2d1a27f1263d84e4ea.png",
                        "isERC1155": false,
                        "isERC721": false,
                        "sign": false,
                        "value": ""
                    }
                ]
            }
        ]
    },
    "profile": {
        "basic_info": {
            "baseFee": "",
            "blockNumber": 8532847,
            "callData": "0x23b872dd00000000000000000000000064a97cbf6d715e54e570c9b499ad3d0017f6b3dd0000000000000000000000000ad93988b24d72c51e6de092013611111e103918000000000000000000000000000000000000000000000000000000004e150380",
            "debugEnable": true,
            "errorInfo": "",
            "eventCount": 1,
            "feeRecipient": "0x5a0b54d5dc17e0aadc383d2db43b0a0d3e029c4c",
            "formatValue": "0",
            "gasLimit": 1600000,
            "gasPrice": "19.247327232",
            "gasUsed": 30232,
            "intTxnCount": 0,
            "internalRevert": false,
            "internalRevertMessage": "",
            "isContractCreation": false,
            "isFlashloan": false,
            "maxFee": "",
            "nonce": 257,
            "overwritedBlockNumber": -1,
            "priorityFee": "",
            "receiver": "0xdac17f958d2ee523a2206206994597c13d831ec7",
            "revertMessage": "",
            "sender": "0xa9eef86df31ed6c486ffe4c7c746804ce749b6e2",
            "simulationEnable": true,
            "sourceTxnHash": "0xfe3db743f2cd3bbf6003c52f66ede2ac57535fdd8d060d81caffdd6af817c749",
            "status": true,
            "timestamp": "2019-09-12T04:47:45Z",
            "transactionFee": "0.000581885196877824",
            "txnHash": "0xfe3db743f2cd3bbf6003c52f66ede2ac57535fdd8d060d81caffdd6af817c749",
            "txnIndex": 45,
            "type": 0,
            "value": "0"
        },
        "fund_flow": [
            {
                "amount": "1,310",
                "from": "0x64a97cbf6d715e54e570c9b499ad3d0017f6b3dd",
                "id": 1,
                "isERC1155": false,
                "isERC721": false,
                "isReverted": false,
                "order": 1,
                "to": "0x0ad93988b24d72c51e6de092013611111e103918",
                "token": "0xdac17f958d2ee523a2206206994597c13d831ec7"
            }
        ],
        "token_infos": [
            {
                "address": "0xeeeeeeeeeeeeeeeeeeeeeeeeeeeeeeeeeeeeeeee",
                "decimals": 18
            },
            {
                "address": "0xc02aaa39b223fe8d0a0e5c4f27ead9083c756cc2",
                "decimals": 18
            },
            {
                "address": "0xdac17f958d2ee523a2206206994597c13d831ec7",
                "decimals": 6
            }
        ]
    },
    "address_label": {
        "labels": [
            {
                "address": "0xeeeeeeeeeeeeeeeeeeeeeeeeeeeeeeeeeeeeeeee",
                "label": "Ether"
            },
            {
                "address": "0xdac17f958d2ee523a2206206994597c13d831ec7",
                "label": "Tether: USDT Stablecoin"
            },
            {
                "address": "0x0000000000000000000000000000000000000001",
                "label": "Precompiled"
            },
            {
                "address": "0x0000000000000000000000000000000000000002",
                "label": "Precompiled"
            },
            {
                "address": "0x0000000000000000000000000000000000000003",
                "label": "Precompiled"
            },
            {
                "address": "0x0000000000000000000000000000000000000004",
                "label": "Precompiled"
            }
        ]
    },
    "trace": {
        "accountLabels": null,
        "dataMap": {
            "-1": {
                "invocation": {
                    "address": "0xa9eef86df31ed6c486ffe4c7c746804ce749b6e2",
                    "callData": "",
                    "decodedMethod": null,
                    "errorInfo": "",
                    "fromAddress": "",
                    "gasUsed": 0,
                    "id": -1,
                    "methodDecoded": false,
                    "operation": "",
                    "output": "",
                    "revert": false,
                    "revertMessage": "",
                    "selector": "",
                    "status": false,
                    "value": ""
                },
                "nodeType": 0
            },
            "0": {
                "invocation": {
                    "address": "0xdac17f958d2ee523a2206206994597c13d831ec7",
                    "callData": "0x00000000000000000000000064a97cbf6d715e54e570c9b499ad3d0017f6b3dd0000000000000000000000000ad93988b24d72c51e6de092013611111e103918000000000000000000000000000000000000000000000000000000004e150380",
                    "decodedMethod": {
                        "callParams": [
                            {
                                "name": "_from",
                                "type": "address",
                                "value": "0x64a97cbf6d715e54e570c9b499ad3d0017f6b3dd"
                            },
                            {
                                "name": "_to",
                                "type": "address",
                                "value": "0x0ad93988b24d72c51e6de092013611111e103918"
                            },
                            {
                                "decimalAvailable": true,
                                "name": "_value",
                                "type": "uint256",
                                "value": "1,310,000,000"
                            }
                        ],
                        "constructorArguments": "",
                        "name": "transferFrom",
                        "returnParams": [],
                        "signature": "transferFrom(address,address,uint256)"
                    },
                    "errorInfo": "",
                    "fromAddress": "0xa9eef86df31ed6c486ffe4c7c746804ce749b6e2",
                    "gasUsed": 30232,
                    "id": 0,
                    "methodDecoded": true,
                    "operation": "CALL",
                    "output": "",
                    "revert": false,
                    "revertMessage": "",
                    "selector": "0x23b872dd",
                    "status": true,
                    "value": "0"
                },
                "nodeType": 0
            },
            "1": {
                "event": {
                    "contract": "0xdac17f958d2ee523a2206206994597c13d831ec7",
                    "decodedLog": {
                        "name": "Transfer",
                        "params": [
                            {
                                "name": "from",
                                "type": "address",
                                "value": "0x64a97cbf6d715e54e570c9b499ad3d0017f6b3dd"
                            },
                            {
                                "name": "to",
                                "type": "address",
                                "value": "0x0ad93988b24d72c51e6de092013611111e103918"
                            },
                            {
                                "decimalAvailable": true,
                                "name": "value",
                                "type": "uint256",
                                "value": "1,310,000,000"
                            }
                        ],
                        "signature": "Transfer(address,address,uint256)"
                    },
                    "id": 1,
                    "logData": "0x000000000000000000000000000000000000000000000000000000004e150380",
                    "logDecoded": true,
                    "operation": "EVENT",
                    "revert": false,
                    "status": true,
                    "topics": [
                        "0xddf252ad1be2c89b69c2b068fc378daa952ba7f163c4a11628f55a4df523b3ef",
                        "0x00000000000000000000000064a97cbf6d715e54e570c9b499ad3d0017f6b3dd",
                        "0x0000000000000000000000000ad93988b24d72c51e6de092013611111e103918"
                    ]
                },
                "nodeType": 1
            }
        },
        "gasFlame": [
            {
                "children": [
                    {
                        "children": [
                            {
                                "children": [],
                                "depth": 0,
                                "name": "Initial Gas",
                                "value": 24408
                            },
                            {
                                "children": [],
                                "depth": 0,
                                "name": "Executed Gas",
                                "value": 20824
                            }
                        ],
                        "depth": -1,
                        "name": "Actual Gas Used",
                        "value": 30232
                    },
                    {
                        "children": [],
                        "depth": -1,
                        "name": "Refunded Gas",
                        "value": 15000
                    }
                ],
                "depth": -2,
                "name": "Total Gas",
                "value": 45232
            }
        ],
        "isConfirmed": true,
        "mainTrace": [
            {
                "children": [
                    {
                        "children": [
                            {
                                "children": [],
                                "depth": 1,
                                "id": 1,
                                "order": 1
                            }
                        ],
                        "depth": 0,
                        "id": 0,
                        "order": 0
                    }
                ],
                "depth": -1,
                "id": -1,
                "order": -1
            }
        ],
        "mainTraceNodeCount": 2,
        "parentIdMap": {
            "0": -1,
            "1": 0
        },
        "tidyTrace": [
            {
                "children": [
                    {
                        "children": [
                            {
                                "children": [],
                                "depth": 1,
                                "id": 1,
                                "order": 1
                            }
                        ],
                        "depth": 0,
                        "id": 0,
                        "order": 0
                    }
                ],
                "depth": -1,
                "id": -1,
                "order": -1
            }
        ],
        "tidyTraceNodeCount": 2
    },
    "state_change": {
        "stateChanges": [
            {
                "address": "0xdac17f958d2ee523a2206206994597c13d831ec7",
                "erc": "ERC-20",
                "slots": [
                    {
                        "current": "0x00000000000000000000000000000000000000000000000000005af2c2653c80",
                        "key": "0x7289c1141e0141b47822bf12dd725fd0496b794f8ad8a034ad377ef098c7796b",
                        "prev": "0x00000000000000000000000000000000000000000000000000005af3107a4000"
                    },
                    {
                        "current": "0x0000000000000000000000000000000000000000000000000000000000000000",
                        "key": "0xca937200c8ba7143e521aaca6d75f23a5d0ec6d3ea7262e2e48434030d29b47a",
                        "prev": "0x000000000000000000000000000000000000000000000000000000004e150380"
                    },
                    {
                        "current": "0x0000000000000000000000000000000000000000000000000000002b90c86af2",
                        "key": "0xf7a2f790b0a893c0a8d4c20222ec30eaf101dd18797f9efe2b03bb27f8b996fc",
                        "prev": "0x0000000000000000000000000000000000000000000000000000002b42b36772"
                    }
                ],
                "storageVariables": [
                    {
                        "name": "allowed",
                        "type": "mapping(address => mapping(address => uint256))",
                        "value": {
                            "pairs": [
                                {
                                    "key": "0x64a97cbf6d715e54e570c9b499ad3d0017f6b3dd",
                                    "value": {
                                        "pairs": [
                                            {
                                                "key": "0xa9eef86df31ed6c486ffe4c7c746804ce749b6e2",
                                                "value": {
                                                    "current": "99998690000000",
                                                    "prev": "100000000000000",
                                                    "typeTag": 1
                                                }
                                            }
                                        ],
                                        "typeTag": 4
                                    }
                                }
                            ],
                            "typeTag": 4
                        }
                    },
                    {
                        "name": "balances",
                        "type": "mapping(address => uint256)",
                        "value": {
                            "pairs": [
                                {
                                    "key": "0x0ad93988b24d72c51e6de092013611111e103918",
                                    "value": {
                                        "current": "187112647410",
                                        "prev": "185802647410",
                                        "typeTag": 1
                                    }
                                },
                                {
                                    "key": "0x64a97cbf6d715e54e570c9b499ad3d0017f6b3dd",
                                    "value": {
                                        "current": "0",
                                        "prev": "1310000000",
                                        "typeTag": 1
                                    }
                                }
                            ],
                            "typeTag": 4
                        }
                    }
                ]
            }
        ]
    }
}