{
    "balance_change": {
        "balanceChanges": [
            {
                "account": "0x9e891c6697fab2f7a8e36a41dce16f7f1d899050",
                "assets": [
                    {
                        "address": "0x86fa049857e0209aa7d9e616f7eb3b3b78ecfdb0",
                        "amount": "99.140630173891816852",
                        "iconUrl": "",
                        "isERC1155": false,
                        "isERC721": false,
                        "sign": true,
                        "value": ""
                    }
                ]
            },
            {
                "account": "0xd0a6e6c54dbc68db5db3a091b171a77407ff7ccf",
                "assets": [
                    {
                        "address": "0x86fa049857e0209aa7d9e616f7eb3b3b78ecfdb0",
                        "amount": "99.140630173891816852",
                        "iconUrl": "",
                        "isERC1155": false,
                        "isERC721": false,
                        "sign": false,
                        "value": ""
                    }
                ]
            }
        ]
    },
    "profile": {
        "basic_info": {
            "baseFee": "",
            "blockNumber": 4921694,
            "callData": "0x379607f500000000000000000000000000000000000000000000000000000000000000d0",
            "debugEnable": true,
            "errorInfo": "",
            "eventCount": 3,
            "feeRecipient": "0xea674fdde714fd979de3edf0f56aa9716b898ec8",
            "formatValue": "0",
            "gasLimit": 90000,
            "gasPrice": "10",
            "gasUsed": 66253,
            "intTxnCount": 1,
            "internalRevert": false,
            "internalRevertMessage": "",
            "isContractCreation": false,
            "isFlashloan": false,
            "maxFee": "",
            "nonce": 35,
            "overwritedBlockNumber": -1,
            "priorityFee": "",
            "receiver": "0xd0a6e6c54dbc68db5db3a091b171a77407ff7ccf",
            "revertMessage": "",
            "sender": "0x9e891c6697fab2f7a8e36a41dce16f7f1d899050",
            "simulationEnable": true,
            "sourceTxnHash": "0xfe6f0461ab196c3ffeb88cf2d85932906fa2cd8fad6fbbe0c4bcb90746a45fad",
            "status": true,
            "timestamp": "2018-01-17T04:33:07Z",
            "transactionFee": "0.00066253",
            "txnHash": "0xfe6f0461ab196c3ffeb88cf2d85932906fa2cd8fad6fbbe0c4bcb90746a45fad",
            "txnIndex": 79,
            "type": 0,
            "value": "0"
        },
        "fund_flow": [
            {
                "amount": "99.140630173891816852",
                "from": "0xd0a6e6c54dbc68db5db3a091b171a77407ff7ccf",
                "id": 1,
                "isERC1155": false,
                "isERC721": false,
                "isReverted": false,
                "order": 1,
                "to": "0x9e891c6697fab2f7a8e36a41dce16f7f1d899050",
                "token": "0x86fa049857e0209aa7d9e616f7eb3b3b78ecfdb0"
            }
        ],
        "token_infos": [
            {
                "address": "0x86fa049857e0209aa7d9e616f7eb3b3b78ecfdb0",
                "decimals": 18
            },
            {
                "address": "0xc02aaa39b223fe8d0a0e5c4f27ead9083c756cc2",
                "decimals": 18
            },
            {
                "address": "0xeeeeeeeeeeeeeeeeeeeeeeeeeeeeeeeeeeeeeeee",
                "decimals": 18
            }
        ]
    },
    "address_label": {
        "labels": [
            {
                "address": "0x0000000000000000000000000000000000000002",
                "label": "Precompiled"
            },
            {
                "address": "0x0000000000000000000000000000000000000003",
                "label": "Precompiled"
            },
            {
                "address": "0x0000000000000000000000000000000000000004",
                "label": "Precompiled"
            },
            {
                "address": "0xeeeeeeeeeeeeeeeeeeeeeeeeeeeeeeeeeeeeeeee",
                "label": "Ether"
            },
            {
                "address": "0x86fa049857e0209aa7d9e616f7eb3b3b78ecfdb0",
                "label": "EOS: Old Token"
            },
            {
                "address": "0xd0a6e6c54dbc68db5db3a091b171a77407ff7ccf",
                "label": "EOS: Token Sale"
            },
            {
                "address": "0x0000000000000000000000000000000000000001",
                "label": "Precompiled"
            }
        ]
    },
    "trace": {
        "accountLabels": null,
        "dataMap": {
            "-1": {
                "invocation": {
                    "address": "0x9e891c6697fab2f7a8e36a41dce16f7f1d899050",
                    "callData": "",
                    "decodedMethod": null,
                    "errorInfo": "",
                    "fromAddress": "",
                    "gasUsed": 0,
                    "id": -1,
                    "methodDecoded": false,
                    "operation": "",
                    "output": "",
                    "revert": false,
                    "revertMessage": "",
                    "selector": "",
                    "status": false,
                    "value": ""
                },
                "nodeType": 0
            },
            "0": {
                "invocation": {
                    "address": "0xd0a6e6c54dbc68db5db3a091b171a77407ff7ccf",
                    "callData": "0x00000000000000000000000000000000000000000000000000000000000000d0",
                    "decodedMethod": {
                        "callParams": [
                            {
                                "name": "day",
                                "type": "uint256",
                                "value": "208"
                            }
                        ],
                        "constructorArguments": "",
                        "name": "claim",
                        "returnParams": [],
                        "signature": "claim(uint256)"
                    },
                    "errorInfo": "",
                    "fromAddress": "0x9e891c6697fab2f7a8e36a41dce16f7f1d899050",
                    "gasUsed": 66253,
                    "id": 0,
                    "methodDecoded": true,
                    "operation": "CALL",
                    "output": "",
                    "revert": false,
                    "revertMessage": "",
                    "selector": "0x379607f5",
                    "status": true,
                    "value": "0"
                },
                "nodeType": 0
            },
            "1": {
                "invocation": {
                    "address": "0x86fa049857e0209aa7d9e616f7eb3b3b78ecfdb0",
                    "callData": "0x0000000000000000000000009e891c6697fab2f7a8e36a41dce16f7f1d8990500000000000000000000000000000000000000000000000055fda45dfa331ed94",
                    "decodedMethod": {
                        "callParams": [
                            {
                                "name": "dst",
                                "type": "address",
                                "value": "0x9e891c6697fab2f7a8e36a41dce16f7f1d899050"
                            },
                            {
                                "name": "wad",
                                "type": "uint128",
                                "value": "99,140,630,173,891,816,852"
                            }
                        ],
                        "constructorArguments": "",
                        "name": "push",
                        "returnParams": [
                            {
                                "name": "",
                                "type": "bool",
                                "value": true
                            }
                        ],
                        "signature": "push(address,uint128)"
                    },
                    "errorInfo": "",
                    "fromAddress": "0xd0a6e6c54dbc68db5db3a091b171a77407ff7ccf",
                    "gasUsed": 17428,
                    "id": 1,
                    "methodDecoded": true,
                    "operation": "CALL",
                    "output": "0x0000000000000000000000000000000000000000000000000000000000000001",
                    "revert": false,
                    "revertMessage": "",
                    "selector": "0x3452f51d",
                    "status": true,
                    "value": "0"
                },
                "nodeType": 0
            },
            "2": {
                "event": {
                    "contract": "0x86fa049857e0209aa7d9e616f7eb3b3b78ecfdb0",
                    "decodedLog": null,
                    "id": 2,
                    "logData": "0x0000000000000000000000000000000000000000000000000000000000000000000000000000000000000000000000000000000000000000000000000000004000000000000000000000000000000000000000000000000000000000000000443452f51d0000000000000000000000009e891c6697fab2f7a8e36a41dce16f7f1d8990500000000000000000000000000000000000000000000000055fda45dfa331ed94",
                    "logDecoded": false,
                    "operation": "EVENT",
                    "revert": false,
                    "status": true,
                    "topics": [
                        "0x3452f51d00000000000000000000000000000000000000000000000000000000",
                        "0x000000000000000000000000d0a6e6c54dbc68db5db3a091b171a77407ff7ccf",
                        "0x0000000000000000000000009e891c6697fab2f7a8e36a41dce16f7f1d899050",
                        "0x0000000000000000000000000000000000000000000000055fda45dfa331ed94"
                    ]
                },
                "nodeType": 1
            },
            "3": {
                "event": {
                    "contract": "0x86fa049857e0209aa7d9e616f7eb3b3b78ecfdb0",
                    "decodedLog": {
                        "name": "Transfer",
                        "params": [
                            {
                                "name": "from",
                                "type": "address",
                                "value": "0xd0a6e6c54dbc68db5db3a091b171a77407ff7ccf"
                            },
                            {
                                "name": "to",
                                "type": "address",
                                "value": "0x9e891c6697fab2f7a8e36a41dce16f7f1d899050"
                            },
                            {
                                "decimalAvailable": true,
                                "name": "value",
                                "type": "uint256",
                                "value": "99,140,630,173,891,816,852"
                            }
                        ],
                        "signature": "Transfer(address,address,uint256)"
                    },
                    "id": 3,
                    "logData": "0x0000000000000000000000000000000000000000000000055fda45dfa331ed94",
                    "logDecoded": true,
                    "operation": "EVENT",
                    "revert": false,
                    "status": true,
                    "topics": [
                        "0xddf252ad1be2c89b69c2b068fc378daa952ba7f163c4a11628f55a4df523b3ef",
                        "0x000000000000000000000000d0a6e6c54dbc68db5db3a091b171a77407ff7ccf",
                        "0x0000000000000000000000009e891c6697fab2f7a8e36a41dce16f7f1d899050"
                    ]
                },
                "nodeType": 1
            },
            "4": {
                "event": {
                    "contract": "0xd0a6e6c54dbc68db5db3a091b171a77407ff7ccf",
                    "decodedLog": {
                        "name": "LogClaim",
                        "params": [
                            {
                                "name": "window",
                                "type": "uint256",
                                "value": "208"
                            },
                            {
                                "name": "user",
                                "type": "address",
                                "value": "0x9e891c6697fab2f7a8e36a41dce16f7f1d899050"
                            },
                            {
                                "name": "amount",
                                "type": "uint256",
                                "value": "99,140,630,173,891,816,852"
                            }
                        ],
                        "signature": "LogClaim(uint256,address,uint256)"
                    },
                    "id": 4,
                    "logData": "0x00000000000000000000000000000000000000000000000000000000000000d00000000000000000000000009e891c6697fab2f7a8e36a41dce16f7f1d8990500000000000000000000000000000000000000000000000055fda45dfa331ed94",
                    "logDecoded": true,
                    "operation": "EVENT",
                    "revert": false,
                    "status": true,
                    "topics": [
                        "0x51223fdc0a25891366fb358b4af9fe3c381b1566e287c61a29d01c8a173fe4f4"
                    ]
                },
                "nodeType": 1
            }
        },
        "gasFlame": [
            {
                "children": [
                    {
                        "children": [
                            {
                                "children": [],
                                "depth": 0,
                                "name": "Initial Gas",
                                "value": 21464
                            },
                            {
                                "children": [
                                    {
                                        "children": [],
                                        "depth": 1,
                                        "name": "push",
                                        "value": 17428
                                    }
                                ],
                                "depth": 0,
                                "name": "Executed Gas",
                                "value": 44789
                            }
                        ],
                        "depth": -1,
                        "name": "Actual Gas Used",
                        "value": 66253
                    },
                    {
                        "children": [],
                        "depth": -1,
                        "name": "Refunded Gas",
                        "value": 0
                    }
                ],
                "depth": -2,
                "name": "Total Gas",
                "value": 66253
            }
        ],
        "isConfirmed": true,
        "mainTrace": [
            {
                "children": [
                    {
                        "children": [
                            {
                                "children": [
                                    {
                                        "children": [],
                                        "depth": 2,
                                        "id": 2,
                                        "order": 2
                                    },
                                    {
                                        "children": [],
                                        "depth": 2,
                                        "id": 3,
                                        "order": 3
                                    }
                                ],
                                "depth": 1,
                                "id": 1,
                                "order": 1
                            },
                            {
                                "children": [],
                                "depth": 1,
                                "id": 4,
                                "order": 4
                            }
                        ],
                        "depth": 0,
                        "id": 0,
                        "order": 0
                    }
                ],
                "depth": -1,
                "id": -1,
                "order": -1
            }
        ],
        "mainTraceNodeCount": 5,
        "parentIdMap": {
            "0": -1,
            "1": 0,
            "2": 1,
            "3": 1,
            "4": 0
        },
        "tidyTrace": [
            {
                "children": [
                    {
                        "children": [
                            {
                                "children": [
                                    {
                                        "children": [],
                                        "depth": 2,
                                        "id": 2,
                                        "order": 2
                                    },
                                    {
                                        "children": [],
                                        "depth": 2,
                                        "id": 3,
                                        "order": 3
                                    }
                                ],
                                "depth": 1,
                                "id": 1,
                                "order": 1
                            },
                            {
                                "children": [],
                                "depth": 1,
                                "id": 4,
                                "order": 4
                            }
                        ],
                        "depth": 0,
                        "id": 0,
                        "order": 0
                    }
                ],
                "depth": -1,
                "id": -1,
                "order": -1
            }
        ],
        "tidyTraceNodeCount": 5
    },
    "state_change": {
        "stateChanges": [
            {
                "address": "0x86fa049857e0209aa7d9e616f7eb3b3b78ecfdb0",
                "erc": "ERC-20",
                "slots": [
                    {
                        "current": "0x000000000000000000000000000000000000000000f087fdc5cb9df651d72b6f",
                        "key": "0xf6171320dc45ccedff032faee141f062167c9a85a595cfc745f7afe4945c2b28",
                        "prev": "0x000000000000000000000000000000000000000000f0880325a5e3d5f5091903"
                    },
                    {
                        "current": "0x0000000000000000000000000000000000000000000001797a7784e5249ede1b",
                        "key": "0x57a36e5ea201e74e84ad43ec00f9cd25a78e7d5c00b6c15a78304928bef14331",
                        "prev": "0x0000000000000000000000000000000000000000000001741a9d3f05816cf087"
                    }
                ],
                "storageVariables": []
            },
            {
                "address": "0xd0a6e6c54dbc68db5db3a091b171a77407ff7ccf",
                "erc": "",
                "slots": [
                    {
                        "current": "0x0000000000000000000000000000000000000000000000000000000000000001",
                        "key": "0x3d8c7c6d144c184d53b1b371c2dba8b05ea5e69687926b59e67982edb24b48af",
                        "prev": "0x0000000000000000000000000000000000000000000000000000000000000000"
                    }
                ],
                "storageVariables": []
            }
        ]
    }
}