{
    "balance_change": {
        "balanceChanges": [
            {
                "account": "0x0f901bb0199efc9ec59f3c885a44f3998f81a74b",
                "assets": [
                    {
                        "address": "0x6267873a5a0a1647a8fbb25541605a0815e04d74",
                        "amount": "0.47",
                        "iconUrl": "",
                        "isERC1155": false,
                        "isERC721": false,
                        "sign": false,
                        "value": ""
                    }
                ]
            },
            {
                "account": "0x40c35502a8bf8e0a25034e6cee45a25df0baf552",
                "assets": [
                    {
                        "address": "0x6267873a5a0a1647a8fbb25541605a0815e04d74",
                        "amount": "0.47",
                        "iconUrl": "",
                        "isERC1155": false,
                        "isERC721": false,
                        "sign": true,
                        "value": ""
                    }
                ]
            }
        ]
    },
    "profile": {
        "basic_info": {
            "baseFee": "",
            "blockNumber": 12911365,
            "callData": "0xcb3e394d0000000000000000000000000f901bb0199efc9ec59f3c885a44f3998f81a74b00000000000000000000000040c35502a8bf8e0a25034e6cee45a25df0baf552000000000000000000000000000000000000000000000000000000000000125c00000000000000000000000000000000000000000000000000000000000017c7",
            "debugEnable": true,
            "errorInfo": "",
            "eventCount": 1,
            "feeRecipient": "0x5a0b54d5dc17e0aadc383d2db43b0a0d3e029c4c",
            "formatValue": "0",
            "gasLimit": 60000,
            "gasPrice": "37",
            "gasUsed": 55172,
            "intTxnCount": 0,
            "internalRevert": false,
            "internalRevertMessage": "",
            "isContractCreation": false,
            "isFlashloan": false,
            "maxFee": "",
            "nonce": 217575,
            "overwritedBlockNumber": -1,
            "priorityFee": "",
            "receiver": "0x6267873a5a0a1647a8fbb25541605a0815e04d74",
            "revertMessage": "",
            "sender": "0x0f901bb0199efc9ec59f3c885a44f3998f81a74b",
            "simulationEnable": true,
            "sourceTxnHash": "0xfea7726bb18cf76430e05a791ea5a8369a3792183886c4d0430da3c5d9fd434b",
            "status": true,
            "timestamp": "2021-07-28T00:54:31Z",
            "transactionFee": "0.002041364",
            "txnHash": "0xfea7726bb18cf76430e05a791ea5a8369a3792183886c4d0430da3c5d9fd434b",
            "txnIndex": 94,
            "type": 0,
            "value": "0"
        },
        "fund_flow": [
            {
                "amount": "0.47",
                "from": "0x0f901bb0199efc9ec59f3c885a44f3998f81a74b",
                "id": 1,
                "isERC1155": false,
                "isERC721": false,
                "isReverted": false,
                "order": 1,
                "to": "0x40c35502a8bf8e0a25034e6cee45a25df0baf552",
                "token": "0x6267873a5a0a1647a8fbb25541605a0815e04d74"
            }
        ],
        "token_infos": [
            {
                "address": "0x6267873a5a0a1647a8fbb25541605a0815e04d74",
                "decimals": 4
            },
            {
                "address": "0xc02aaa39b223fe8d0a0e5c4f27ead9083c756cc2",
                "decimals": 18
            },
            {
                "address": "0xeeeeeeeeeeeeeeeeeeeeeeeeeeeeeeeeeeeeeeee",
                "decimals": 18
            }
        ]
    },
    "address_label": {
        "labels": [
            {
                "address": "0x6267873a5a0a1647a8fbb25541605a0815e04d74",
                "label": "Global Digital Cash: GDC Token"
            },
            {
                "address": "0x0000000000000000000000000000000000000001",
                "label": "Precompiled"
            },
            {
                "address": "0x0000000000000000000000000000000000000002",
                "label": "Precompiled"
            },
            {
                "address": "0x0000000000000000000000000000000000000003",
                "label": "Precompiled"
            },
            {
                "address": "0x0000000000000000000000000000000000000004",
                "label": "Precompiled"
            },
            {
                "address": "0xeeeeeeeeeeeeeeeeeeeeeeeeeeeeeeeeeeeeeeee",
                "label": "Ether"
            },
            {
                "address": "0x0f901bb0199efc9ec59f3c885a44f3998f81a74b",
                "label": "Global Digital Cash: Deployer"
            }
        ]
    },
    "trace": {
        "accountLabels": null,
        "dataMap": {
            "-1": {
                "invocation": {
                    "address": "0x0f901bb0199efc9ec59f3c885a44f3998f81a74b",
                    "callData": "",
                    "decodedMethod": null,
                    "errorInfo": "",
                    "fromAddress": "",
                    "gasUsed": 0,
                    "id": -1,
                    "methodDecoded": false,
                    "operation": "",
                    "output": "",
                    "revert": false,
                    "revertMessage": "",
                    "selector": "",
                    "status": false,
                    "value": ""
                },
                "nodeType": 0
            },
            "0": {
                "invocation": {
                    "address": "0x6267873a5a0a1647a8fbb25541605a0815e04d74",
                    "callData": "0x0000000000000000000000000f901bb0199efc9ec59f3c885a44f3998f81a74b00000000000000000000000040c35502a8bf8e0a25034e6cee45a25df0baf552000000000000000000000000000000000000000000000000000000000000125c00000000000000000000000000000000000000000000000000000000000017c7",
                    "decodedMethod": {
                        "callParams": [
                            {
                                "name": "_from",
                                "type": "address",
                                "value": "0x0f901bb0199efc9ec59f3c885a44f3998f81a74b"
                            },
                            {
                                "name": "_to",
                                "type": "address",
                                "value": "0x40c35502a8bf8e0a25034e6cee45a25df0baf552"
                            },
                            {
                                "name": "_value",
                                "type": "uint256",
                                "value": "4,700"
                            },
                            {
                                "name": "_fee",
                                "type": "uint256",
                                "value": "6,087"
                            }
                        ],
                        "constructorArguments": "",
                        "name": "transferFromWithFee",
                        "returnParams": [
                            {
                                "name": "success",
                                "type": "bool",
                                "value": true
                            }
                        ],
                        "signature": "transferFromWithFee(address,address,uint256,uint256)"
                    },
                    "errorInfo": "",
                    "fromAddress": "0x0f901bb0199efc9ec59f3c885a44f3998f81a74b",
                    "gasUsed": 55172,
                    "id": 0,
                    "methodDecoded": true,
                    "operation": "CALL",
                    "output": "0x0000000000000000000000000000000000000000000000000000000000000001",
                    "revert": false,
                    "revertMessage": "",
                    "selector": "0xcb3e394d",
                    "status": true,
                    "value": "0"
                },
                "nodeType": 0
            },
            "1": {
                "event": {
                    "contract": "0x6267873a5a0a1647a8fbb25541605a0815e04d74",
                    "decodedLog": {
                        "name": "Transfer",
                        "params": [
                            {
                                "name": "from",
                                "type": "address",
                                "value": "0x0f901bb0199efc9ec59f3c885a44f3998f81a74b"
                            },
                            {
                                "name": "to",
                                "type": "address",
                                "value": "0x40c35502a8bf8e0a25034e6cee45a25df0baf552"
                            },
                            {
                                "decimalAvailable": true,
                                "name": "value",
                                "type": "uint256",
                                "value": "4,700"
                            }
                        ],
                        "signature": "Transfer(address,address,uint256)"
                    },
                    "id": 1,
                    "logData": "0x000000000000000000000000000000000000000000000000000000000000125c",
                    "logDecoded": true,
                    "operation": "EVENT",
                    "revert": false,
                    "status": true,
                    "topics": [
                        "0xddf252ad1be2c89b69c2b068fc378daa952ba7f163c4a11628f55a4df523b3ef",
                        "0x0000000000000000000000000f901bb0199efc9ec59f3c885a44f3998f81a74b",
                        "0x00000000000000000000000040c35502a8bf8e0a25034e6cee45a25df0baf552"
                    ]
                },
                "nodeType": 1
            }
        },
        "gasFlame": [
            {
                "children": [
                    {
                        "children": [
                            {
                                "children": [],
                                "depth": 0,
                                "name": "Initial Gas",
                                "value": 22104
                            },
                            {
                                "children": [],
                                "depth": 0,
                                "name": "Executed Gas",
                                "value": 33068
                            }
                        ],
                        "depth": -1,
                        "name": "Actual Gas Used",
                        "value": 55172
                    },
                    {
                        "children": [],
                        "depth": -1,
                        "name": "Refunded Gas",
                        "value": 0
                    }
                ],
                "depth": -2,
                "name": "Total Gas",
                "value": 55172
            }
        ],
        "isConfirmed": true,
        "mainTrace": [
            {
                "children": [
                    {
                        "children": [
                            {
                                "children": [],
                                "depth": 1,
                                "id": 1,
                                "order": 1
                            }
                        ],
                        "depth": 0,
                        "id": 0,
                        "order": 0
                    }
                ],
                "depth": -1,
                "id": -1,
                "order": -1
            }
        ],
        "mainTraceNodeCount": 2,
        "parentIdMap": {
            "0": -1,
            "1": 0
        },
        "tidyTrace": [
            {
                "children": [
                    {
                        "children": [
                            {
                                "children": [],
                                "depth": 1,
                                "id": 1,
                                "order": 1
                            }
                        ],
                        "depth": 0,
                        "id": 0,
                        "order": 0
                    }
                ],
                "depth": -1,
                "id": -1,
                "order": -1
            }
        ],
        "tidyTraceNodeCount": 2
    },
    "state_change": {
        "stateChanges": [
            {
                "address": "0x6267873a5a0a1647a8fbb25541605a0815e04d74",
                "erc": "",
                "slots": [
                    {
                        "current": "0x00000000000000000000000000000000000000000000000000000007ea7d5581",
                        "key": "0xbf2b7b91386d3b026564cc0a6a08d63aeafcd005fe5f8a7aa9ab84fed33766a5",
                        "prev": "0x00000000000000000000000000000000000000000000000000000007ea7d67dd"
                    },
                    {
                        "current": "0x000000000000000000000000000000000000000000000000000000000000125c",
                        "key": "0xc32d3e5fc9f12887eeaff75fdab1c0c31229b79c9152f044756c0a372fa10f8f",
                        "prev": "0x0000000000000000000000000000000000000000000000000000000000000000"
                    }
                ],
                "storageVariables": [
                    {
                        "name": "balanceOf",
                        "type": "mapping(address => uint256)",
                        "value": {
                            "pairs": [
                                {
                                    "key": "0x0f901bb0199efc9ec59f3c885a44f3998f81a74b",
                                    "value": {
                                        "current": "33998853505",
                                        "prev": "33998858205",
                                        "typeTag": 1
                                    }
                                },
                                {
                                    "key": "0x40c35502a8bf8e0a25034e6cee45a25df0baf552",
                                    "value": {
                                        "current": "4700",
                                        "prev": "0",
                                        "typeTag": 1
                                    }
                                }
                            ],
                            "typeTag": 4
                        }
                    }
                ]
            }
        ]
    }
}