{
    "balance_change": {
        "balanceChanges": [
            {
                "account": "0xc512a0d35dada1e420b3c341976340dca776b1df",
                "assets": [
                    {
                        "address": "0x1a3496c18d558bd9c6c8f609e1b129f67ab08163",
                        "amount": "156,427.704",
                        "iconUrl": "",
                        "isERC1155": false,
                        "isERC721": false,
                        "sign": false,
                        "value": ""
                    }
                ]
            },
            {
                "account": "0x3c02290922a3618a4646e3bbca65853ea45fe7c6",
                "assets": [
                    {
                        "address": "0x1a3496c18d558bd9c6c8f609e1b129f67ab08163",
                        "amount": "156,427.704",
                        "iconUrl": "",
                        "isERC1155": false,
                        "isERC721": false,
                        "sign": true,
                        "value": ""
                    }
                ]
            }
        ]
    },
    "profile": {
        "basic_info": {
            "baseFee": "",
            "blockNumber": 10637647,
            "callData": "0xa9059cbb0000000000000000000000003c02290922a3618a4646e3bbca65853ea45fe7c600000000000000000000000000000000000000000000211ff67bbe80ff2c0000",
            "debugEnable": true,
            "errorInfo": "",
            "eventCount": 1,
            "feeRecipient": "0x04668ec2f57cc15c381b461b9fedab5d451c8f7f",
            "formatValue": "0",
            "gasLimit": 80000,
            "gasPrice": "137",
            "gasUsed": 26931,
            "intTxnCount": 1,
            "internalRevert": false,
            "internalRevertMessage": "",
            "isContractCreation": false,
            "isFlashloan": false,
            "maxFee": "",
            "nonce": 437,
            "overwritedBlockNumber": -1,
            "priorityFee": "",
            "receiver": "0x1a3496c18d558bd9c6c8f609e1b129f67ab08163",
            "revertMessage": "",
            "sender": "0xc512a0d35dada1e420b3c341976340dca776b1df",
            "simulationEnable": true,
            "sourceTxnHash": "0xfeb1fa2f01c5621e49398e7d7d00ea54f7b4ac50cc4843324e20dd0b225c8a5e",
            "status": true,
            "timestamp": "2020-08-11T08:51:05Z",
            "transactionFee": "0.003689547",
            "txnHash": "0xfeb1fa2f01c5621e49398e7d7d00ea54f7b4ac50cc4843324e20dd0b225c8a5e",
            "txnIndex": 136,
            "type": 0,
            "value": "0"
        },
        "fund_flow": [
            {
                "amount": "156,427.704",
                "from": "0xc512a0d35dada1e420b3c341976340dca776b1df",
                "id": 1,
                "isERC1155": false,
                "isERC721": false,
                "isReverted": false,
                "order": 1,
                "to": "0x3c02290922a3618a4646e3bbca65853ea45fe7c6",
                "token": "0x1a3496c18d558bd9c6c8f609e1b129f67ab08163"
            }
        ],
        "token_infos": [
            {
                "address": "0xc02aaa39b223fe8d0a0e5c4f27ead9083c756cc2",
                "decimals": 18
            },
            {
                "address": "0xeeeeeeeeeeeeeeeeeeeeeeeeeeeeeeeeeeeeeeee",
                "decimals": 18
            },
            {
                "address": "0x1a3496c18d558bd9c6c8f609e1b129f67ab08163",
                "decimals": 18
            }
        ]
    },
    "address_label": {
        "labels": [
            {
                "address": "0x0000000000000000000000000000000000000002",
                "label": "Precompiled"
            },
            {
                "address": "0x0000000000000000000000000000000000000003",
                "label": "Precompiled"
            },
            {
                "address": "0x0000000000000000000000000000000000000004",
                "label": "Precompiled"
            },
            {
                "address": "0xeeeeeeeeeeeeeeeeeeeeeeeeeeeeeeeeeeeeeeee",
                "label": "Ether"
            },
            {
                "address": "0x1a3496c18d558bd9c6c8f609e1b129f67ab08163",
                "label": "DEA: DEP Token"
            },
            {
                "address": "0x3c02290922a3618a4646e3bbca65853ea45fe7c6",
                "label": "Indodax 5"
            },
            {
                "address": "0x5d10d86de4071eb92fdee172e7933d631d196e34",
                "label": "GroupLockup"
            },
            {
                "address": "0x0000000000000000000000000000000000000001",
                "label": "Precompiled"
            }
        ]
    },
    "trace": {
        "accountLabels": null,
        "dataMap": {
            "-1": {
                "invocation": {
                    "address": "0xc512a0d35dada1e420b3c341976340dca776b1df",
                    "callData": "",
                    "decodedMethod": null,
                    "errorInfo": "",
                    "fromAddress": "",
                    "gasUsed": 0,
                    "id": -1,
                    "methodDecoded": false,
                    "operation": "",
                    "output": "",
                    "revert": false,
                    "revertMessage": "",
                    "selector": "",
                    "status": false,
                    "value": ""
                },
                "nodeType": 0
            },
            "0": {
                "invocation": {
                    "address": "0x1a3496c18d558bd9c6c8f609e1b129f67ab08163",
                    "callData": "0x0000000000000000000000003c02290922a3618a4646e3bbca65853ea45fe7c600000000000000000000000000000000000000000000211ff67bbe80ff2c0000",
                    "decodedMethod": {
                        "callParams": [
                            {
                                "name": "_to",
                                "type": "address",
                                "value": "0x3c02290922a3618a4646e3bbca65853ea45fe7c6"
                            },
                            {
                                "decimalAvailable": true,
                                "name": "_value",
                                "type": "uint256",
                                "value": "156,427,704,000,000,000,000,000"
                            }
                        ],
                        "constructorArguments": "",
                        "name": "transfer",
                        "returnParams": [
                            {
                                "name": "",
                                "type": "bool",
                                "value": true
                            }
                        ],
                        "signature": "transfer(address,uint256)"
                    },
                    "errorInfo": "",
                    "fromAddress": "0xc512a0d35dada1e420b3c341976340dca776b1df",
                    "gasUsed": 26931,
                    "id": 0,
                    "methodDecoded": true,
                    "operation": "CALL",
                    "output": "0x0000000000000000000000000000000000000000000000000000000000000001",
                    "revert": false,
                    "revertMessage": "",
                    "selector": "0xa9059cbb",
                    "status": true,
                    "value": "0"
                },
                "nodeType": 0
            },
            "1": {
                "invocation": {
                    "address": "0x5d10d86de4071eb92fdee172e7933d631d196e34",
                    "callData": "0x000000000000000000000000c512a0d35dada1e420b3c341976340dca776b1df",
                    "decodedMethod": {
                        "callParams": [
                            {
                                "name": "user_address",
                                "type": "address",
                                "value": "0xc512a0d35dada1e420b3c341976340dca776b1df"
                            }
                        ],
                        "constructorArguments": "",
                        "name": "inLockupList",
                        "returnParams": [
                            {
                                "name": "",
                                "type": "bool",
                                "value": false
                            }
                        ],
                        "signature": "inLockupList(address)"
                    },
                    "errorInfo": "",
                    "fromAddress": "0x1a3496c18d558bd9c6c8f609e1b129f67ab08163",
                    "gasUsed": 1252,
                    "id": 1,
                    "methodDecoded": true,
                    "operation": "CALL",
                    "output": "0x0000000000000000000000000000000000000000000000000000000000000000",
                    "revert": false,
                    "revertMessage": "",
                    "selector": "0x26511869",
                    "status": true,
                    "value": "0"
                },
                "nodeType": 0
            },
            "2": {
                "event": {
                    "contract": "0x1a3496c18d558bd9c6c8f609e1b129f67ab08163",
                    "decodedLog": {
                        "name": "Transfer",
                        "params": [
                            {
                                "name": "from",
                                "type": "address",
                                "value": "0xc512a0d35dada1e420b3c341976340dca776b1df"
                            },
                            {
                                "name": "to",
                                "type": "address",
                                "value": "0x3c02290922a3618a4646e3bbca65853ea45fe7c6"
                            },
                            {
                                "decimalAvailable": true,
                                "name": "value",
                                "type": "uint256",
                                "value": "156,427,704,000,000,000,000,000"
                            }
                        ],
                        "signature": "Transfer(address,address,uint256)"
                    },
                    "id": 2,
                    "logData": "0x00000000000000000000000000000000000000000000211ff67bbe80ff2c0000",
                    "logDecoded": true,
                    "operation": "EVENT",
                    "revert": false,
                    "status": true,
                    "topics": [
                        "0xddf252ad1be2c89b69c2b068fc378daa952ba7f163c4a11628f55a4df523b3ef",
                        "0x000000000000000000000000c512a0d35dada1e420b3c341976340dca776b1df",
                        "0x0000000000000000000000003c02290922a3618a4646e3bbca65853ea45fe7c6"
                    ]
                },
                "nodeType": 1
            }
        },
        "gasFlame": [
            {
                "children": [
                    {
                        "children": [
                            {
                                "children": [],
                                "depth": 0,
                                "name": "Initial Gas",
                                "value": 21656
                            },
                            {
                                "children": [
                                    {
                                        "children": [],
                                        "depth": 1,
                                        "name": "inLockupList",
                                        "value": 1252
                                    }
                                ],
                                "depth": 0,
                                "name": "Executed Gas",
                                "value": 20275
                            }
                        ],
                        "depth": -1,
                        "name": "Actual Gas Used",
                        "value": 26931
                    },
                    {
                        "children": [],
                        "depth": -1,
                        "name": "Refunded Gas",
                        "value": 15000
                    }
                ],
                "depth": -2,
                "name": "Total Gas",
                "value": 41931
            }
        ],
        "isConfirmed": true,
        "mainTrace": [
            {
                "children": [
                    {
                        "children": [
                            {
                                "children": [],
                                "depth": 1,
                                "id": 1,
                                "order": 1
                            },
                            {
                                "children": [],
                                "depth": 1,
                                "id": 2,
                                "order": 2
                            }
                        ],
                        "depth": 0,
                        "id": 0,
                        "order": 0
                    }
                ],
                "depth": -1,
                "id": -1,
                "order": -1
            }
        ],
        "mainTraceNodeCount": 3,
        "parentIdMap": {
            "0": -1,
            "1": 0,
            "2": 0
        },
        "tidyTrace": [
            {
                "children": [
                    {
                        "children": [
                            {
                                "children": [],
                                "depth": 1,
                                "id": 1,
                                "order": 1
                            },
                            {
                                "children": [],
                                "depth": 1,
                                "id": 2,
                                "order": 2
                            }
                        ],
                        "depth": 0,
                        "id": 0,
                        "order": 0
                    }
                ],
                "depth": -1,
                "id": -1,
                "order": -1
            }
        ],
        "tidyTraceNodeCount": 3
    },
    "state_change": {
        "stateChanges": [
            {
                "address": "0x1a3496c18d558bd9c6c8f609e1b129f67ab08163",
                "erc": "ERC-20",
                "slots": [
                    {
                        "current": "0x0000000000000000000000000000000000000000000000000000000000000000",
                        "key": "0x1aacffce1a9d80f0025c4dc0597aa78b3d4a16cf0f9ea38806e8f63b780ebd2f",
                        "prev": "0x00000000000000000000000000000000000000000000211ff67bbe80ff2c0000"
                    },
                    {
                        "current": "0x000000000000000000000000000000000000000000056a53f435d85d344bf800",
                        "key": "0x86ac309caa81c3a53a920eb4bae70e9dcb92a3234031794c8e9e1738d5659893",
                        "prev": "0x000000000000000000000000000000000000000000054933fdba19dc351ff800"
                    }
                ],
                "storageVariables": [
                    {
                        "name": "balances",
                        "type": "mapping(address => uint256)",
                        "value": {
                            "pairs": [
                                {
                                    "key": "0x3c02290922a3618a4646e3bbca65853ea45fe7c6",
                                    "value": {
                                        "current": "6546748622224460000000000",
                                        "prev": "6390320918224460000000000",
                                        "typeTag": 1
                                    }
                                },
                                {
                                    "key": "0xc512a0d35dada1e420b3c341976340dca776b1df",
                                    "value": {
                                        "current": "0",
                                        "prev": "156427704000000000000000",
                                        "typeTag": 1
                                    }
                                }
                            ],
                            "typeTag": 4
                        }
                    }
                ]
            }
        ]
    }
}