{
    "balance_change": {
        "balanceChanges": [
            {
                "account": "0x41b227e3962b2d3a750217067f66399fc9a994d6",
                "assets": [
                    {
                        "address": "0x4ccc3759eb48faf1c6cfadad2619e7038db6b212",
                        "amount": "12,710.43589437",
                        "iconUrl": "",
                        "isERC1155": false,
                        "isERC721": false,
                        "sign": false,
                        "value": ""
                    }
                ]
            },
            {
                "account": "0x870f446574620a1303340789dcea8865540451e1",
                "assets": [
                    {
                        "address": "0x4ccc3759eb48faf1c6cfadad2619e7038db6b212",
                        "amount": "12,710.43589437",
                        "iconUrl": "",
                        "isERC1155": false,
                        "isERC721": false,
                        "sign": true,
                        "value": ""
                    }
                ]
            }
        ]
    },
    "profile": {
        "basic_info": {
            "baseFee": "",
            "blockNumber": 5684225,
            "callData": "0xa9059cbb000000000000000000000000870f446574620a1303340789dcea8865540451e100000000000000000000000000000000000000000000000000000127f01a053d",
            "debugEnable": true,
            "errorInfo": "",
            "eventCount": 1,
            "feeRecipient": "0xea674fdde714fd979de3edf0f56aa9716b898ec8",
            "formatValue": "0",
            "gasLimit": 60000,
            "gasPrice": "4",
            "gasUsed": 21988,
            "intTxnCount": 0,
            "internalRevert": false,
            "internalRevertMessage": "",
            "isContractCreation": false,
            "isFlashloan": false,
            "maxFee": "",
            "nonce": 12,
            "overwritedBlockNumber": -1,
            "priorityFee": "",
            "receiver": "0x4ccc3759eb48faf1c6cfadad2619e7038db6b212",
            "revertMessage": "",
            "sender": "0x41b227e3962b2d3a750217067f66399fc9a994d6",
            "simulationEnable": true,
            "sourceTxnHash": "0xfe1a83018cb405bbb1041ae72205d55e66809a38729825068f13735bc91dcce5",
            "status": true,
            "timestamp": "2018-05-27T06:27:24Z",
            "transactionFee": "0.000087952",
            "txnHash": "0xfe1a83018cb405bbb1041ae72205d55e66809a38729825068f13735bc91dcce5",
            "txnIndex": 40,
            "type": 0,
            "value": "0"
        },
        "fund_flow": [
            {
                "amount": "12,710.43589437",
                "from": "0x41b227e3962b2d3a750217067f66399fc9a994d6",
                "id": 1,
                "isERC1155": false,
                "isERC721": false,
                "isReverted": false,
                "order": 1,
                "to": "0x870f446574620a1303340789dcea8865540451e1",
                "token": "0x4ccc3759eb48faf1c6cfadad2619e7038db6b212"
            }
        ],
        "token_infos": [
            {
                "address": "0xc02aaa39b223fe8d0a0e5c4f27ead9083c756cc2",
                "decimals": 18
            },
            {
                "address": "0xeeeeeeeeeeeeeeeeeeeeeeeeeeeeeeeeeeeeeeee",
                "decimals": 18
            },
            {
                "address": "0x4ccc3759eb48faf1c6cfadad2619e7038db6b212",
                "decimals": 8
            }
        ]
    },
    "address_label": {
        "labels": [
            {
                "address": "0xeeeeeeeeeeeeeeeeeeeeeeeeeeeeeeeeeeeeeeee",
                "label": "Ether"
            },
            {
                "address": "0x4ccc3759eb48faf1c6cfadad2619e7038db6b212",
                "label": "SuperEdge Token"
            },
            {
                "address": "0x0000000000000000000000000000000000000001",
                "label": "Precompiled"
            },
            {
                "address": "0x0000000000000000000000000000000000000002",
                "label": "Precompiled"
            },
            {
                "address": "0x0000000000000000000000000000000000000003",
                "label": "Precompiled"
            },
            {
                "address": "0x0000000000000000000000000000000000000004",
                "label": "Precompiled"
            }
        ]
    },
    "trace": {
        "accountLabels": null,
        "dataMap": {
            "-1": {
                "invocation": {
                    "address": "0x41b227e3962b2d3a750217067f66399fc9a994d6",
                    "callData": "",
                    "decodedMethod": null,
                    "errorInfo": "",
                    "fromAddress": "",
                    "gasUsed": 0,
                    "id": -1,
                    "methodDecoded": false,
                    "operation": "",
                    "output": "",
                    "revert": false,
                    "revertMessage": "",
                    "selector": "",
                    "status": false,
                    "value": ""
                },
                "nodeType": 0
            },
            "0": {
                "invocation": {
                    "address": "0x4ccc3759eb48faf1c6cfadad2619e7038db6b212",
                    "callData": "0x000000000000000000000000870f446574620a1303340789dcea8865540451e100000000000000000000000000000000000000000000000000000127f01a053d",
                    "decodedMethod": {
                        "callParams": [
                            {
                                "name": "_to",
                                "type": "address",
                                "value": "0x870f446574620a1303340789dcea8865540451e1"
                            },
                            {
                                "decimalAvailable": true,
                                "name": "_amount",
                                "type": "uint256",
                                "value": "1,271,043,589,437"
                            }
                        ],
                        "constructorArguments": "",
                        "name": "transfer",
                        "returnParams": [
                            {
                                "name": "success",
                                "type": "bool",
                                "value": true
                            }
                        ],
                        "signature": "transfer(address,uint256)"
                    },
                    "errorInfo": "",
                    "fromAddress": "0x41b227e3962b2d3a750217067f66399fc9a994d6",
                    "gasUsed": 21988,
                    "id": 0,
                    "methodDecoded": true,
                    "operation": "CALL",
                    "output": "0x0000000000000000000000000000000000000000000000000000000000000001",
                    "revert": false,
                    "revertMessage": "",
                    "selector": "0xa9059cbb",
                    "status": true,
                    "value": "0"
                },
                "nodeType": 0
            },
            "1": {
                "event": {
                    "contract": "0x4ccc3759eb48faf1c6cfadad2619e7038db6b212",
                    "decodedLog": {
                        "name": "Transfer",
                        "params": [
                            {
                                "name": "_from",
                                "type": "address",
                                "value": "0x41b227e3962b2d3a750217067f66399fc9a994d6"
                            },
                            {
                                "name": "_to",
                                "type": "address",
                                "value": "0x870f446574620a1303340789dcea8865540451e1"
                            },
                            {
                                "decimalAvailable": true,
                                "name": "_value",
                                "type": "uint256",
                                "value": "1,271,043,589,437"
                            }
                        ],
                        "signature": "Transfer(address,address,uint256)"
                    },
                    "id": 1,
                    "logData": "0x00000000000000000000000000000000000000000000000000000127f01a053d",
                    "logDecoded": true,
                    "operation": "EVENT",
                    "revert": false,
                    "status": true,
                    "topics": [
                        "0xddf252ad1be2c89b69c2b068fc378daa952ba7f163c4a11628f55a4df523b3ef",
                        "0x00000000000000000000000041b227e3962b2d3a750217067f66399fc9a994d6",
                        "0x000000000000000000000000870f446574620a1303340789dcea8865540451e1"
                    ]
                },
                "nodeType": 1
            }
        },
        "gasFlame": [
            {
                "children": [
                    {
                        "children": [
                            {
                                "children": [],
                                "depth": 0,
                                "name": "Initial Gas",
                                "value": 23192
                            },
                            {
                                "children": [],
                                "depth": 0,
                                "name": "Executed Gas",
                                "value": 13796
                            }
                        ],
                        "depth": -1,
                        "name": "Actual Gas Used",
                        "value": 21988
                    },
                    {
                        "children": [],
                        "depth": -1,
                        "name": "Refunded Gas",
                        "value": 15000
                    }
                ],
                "depth": -2,
                "name": "Total Gas",
                "value": 36988
            }
        ],
        "isConfirmed": true,
        "mainTrace": [
            {
                "children": [
                    {
                        "children": [
                            {
                                "children": [],
                                "depth": 1,
                                "id": 1,
                                "order": 1
                            }
                        ],
                        "depth": 0,
                        "id": 0,
                        "order": 0
                    }
                ],
                "depth": -1,
                "id": -1,
                "order": -1
            }
        ],
        "mainTraceNodeCount": 2,
        "parentIdMap": {
            "0": -1,
            "1": 0
        },
        "tidyTrace": [
            {
                "children": [
                    {
                        "children": [
                            {
                                "children": [],
                                "depth": 1,
                                "id": 1,
                                "order": 1
                            }
                        ],
                        "depth": 0,
                        "id": 0,
                        "order": 0
                    }
                ],
                "depth": -1,
                "id": -1,
                "order": -1
            }
        ],
        "tidyTraceNodeCount": 2
    },
    "state_change": {
        "stateChanges": [
            {
                "address": "0x4ccc3759eb48faf1c6cfadad2619e7038db6b212",
                "erc": "ERC-20",
                "slots": [
                    {
                        "current": "0x000000000000000000000000000000000000000000000000000810471aaf3ab7",
                        "key": "0xe6d1ecc2338e3112930e1dc8d261525c0dab6b8645d63037ce00573382fca060",
                        "prev": "0x00000000000000000000000000000000000000000000000000080f1f2a95357a"
                    },
                    {
                        "current": "0x0000000000000000000000000000000000000000000000000000000000000000",
                        "key": "0x76eec5abcf56f9ce41186c094f4098930eac28092472079a5435671c80a3ba69",
                        "prev": "0x00000000000000000000000000000000000000000000000000000127f01a053d"
                    }
                ],
                "storageVariables": [
                    {
                        "name": "balances",
                        "type": "mapping(address => uint256)",
                        "value": {
                            "pairs": [
                                {
                                    "key": "0x41b227e3962b2d3a750217067f66399fc9a994d6",
                                    "value": {
                                        "current": "0",
                                        "prev": "1271043589437",
                                        "typeTag": 1
                                    }
                                },
                                {
                                    "key": "0x870f446574620a1303340789dcea8865540451e1",
                                    "value": {
                                        "current": "2269697390099127",
                                        "prev": "2268426346509690",
                                        "typeTag": 1
                                    }
                                }
                            ],
                            "typeTag": 4
                        }
                    }
                ]
            }
        ]
    }
}