{
    "balance_change": {
        "balanceChanges": [
            {
                "account": "0x4bf35fd0ec0b21fe81a8c03609e8378311a29f0d",
                "assets": [
                    {
                        "address": "0xcafe27178308351a12fffffdeb161d9d730da082",
                        "amount": "500",
                        "iconUrl": "",
                        "isERC1155": false,
                        "isERC721": false,
                        "sign": false,
                        "value": ""
                    }
                ]
            },
            {
                "account": "0x21354b86ae8c17a04e2de598aac41235584e35b4",
                "assets": [
                    {
                        "address": "0xcafe27178308351a12fffffdeb161d9d730da082",
                        "amount": "500",
                        "iconUrl": "",
                        "isERC1155": false,
                        "isERC721": false,
                        "sign": true,
                        "value": ""
                    }
                ]
            }
        ]
    },
    "profile": {
        "basic_info": {
            "baseFee": "",
            "blockNumber": 7824954,
            "callData": "0xa9059cbb00000000000000000000000021354b86ae8c17a04e2de598aac41235584e35b400000000000000000000000000000000000000000000001b1ae4d6e2ef500000",
            "debugEnable": true,
            "errorInfo": "",
            "eventCount": 1,
            "feeRecipient": "0xea674fdde714fd979de3edf0f56aa9716b898ec8",
            "formatValue": "0",
            "gasLimit": 100000,
            "gasPrice": "8",
            "gasUsed": 36479,
            "intTxnCount": 0,
            "internalRevert": false,
            "internalRevertMessage": "",
            "isContractCreation": false,
            "isFlashloan": false,
            "maxFee": "",
            "nonce": 14357,
            "overwritedBlockNumber": -1,
            "priorityFee": "",
            "receiver": "0xcafe27178308351a12fffffdeb161d9d730da082",
            "revertMessage": "",
            "sender": "0x4bf35fd0ec0b21fe81a8c03609e8378311a29f0d",
            "simulationEnable": true,
            "sourceTxnHash": "0xfea25993dac9e4d3987ad3d136b8455b71f7611f787d37d8219418b9e483e226",
            "status": true,
            "timestamp": "2019-05-24T22:14:55Z",
            "transactionFee": "0.000291832",
            "txnHash": "0xfea25993dac9e4d3987ad3d136b8455b71f7611f787d37d8219418b9e483e226",
            "txnIndex": 46,
            "type": 0,
            "value": "0"
        },
        "fund_flow": [
            {
                "amount": "500",
                "from": "0x4bf35fd0ec0b21fe81a8c03609e8378311a29f0d",
                "id": 1,
                "isERC1155": false,
                "isERC721": false,
                "isReverted": false,
                "order": 1,
                "to": "0x21354b86ae8c17a04e2de598aac41235584e35b4",
                "token": "0xcafe27178308351a12fffffdeb161d9d730da082"
            }
        ],
        "token_infos": [
            {
                "address": "0xc02aaa39b223fe8d0a0e5c4f27ead9083c756cc2",
                "decimals": 18
            },
            {
                "address": "0xcafe27178308351a12fffffdeb161d9d730da082",
                "decimals": 18
            },
            {
                "address": "0xeeeeeeeeeeeeeeeeeeeeeeeeeeeeeeeeeeeeeeee",
                "decimals": 18
            }
        ]
    },
    "address_label": {
        "labels": [
            {
                "address": "0xcafe27178308351a12fffffdeb161d9d730da082",
                "label": "HotDollars Token (HDS)"
            },
            {
                "address": "0x0000000000000000000000000000000000000001",
                "label": "Precompiled"
            },
            {
                "address": "0x0000000000000000000000000000000000000002",
                "label": "Precompiled"
            },
            {
                "address": "0x0000000000000000000000000000000000000003",
                "label": "Precompiled"
            },
            {
                "address": "0x0000000000000000000000000000000000000004",
                "label": "Precompiled"
            },
            {
                "address": "0xeeeeeeeeeeeeeeeeeeeeeeeeeeeeeeeeeeeeeeee",
                "label": "Ether"
            }
        ]
    },
    "trace": {
        "accountLabels": null,
        "dataMap": {
            "-1": {
                "invocation": {
                    "address": "0x4bf35fd0ec0b21fe81a8c03609e8378311a29f0d",
                    "callData": "",
                    "decodedMethod": null,
                    "errorInfo": "",
                    "fromAddress": "",
                    "gasUsed": 0,
                    "id": -1,
                    "methodDecoded": false,
                    "operation": "",
                    "output": "",
                    "revert": false,
                    "revertMessage": "",
                    "selector": "",
                    "status": false,
                    "value": ""
                },
                "nodeType": 0
            },
            "0": {
                "invocation": {
                    "address": "0xcafe27178308351a12fffffdeb161d9d730da082",
                    "callData": "0x00000000000000000000000021354b86ae8c17a04e2de598aac41235584e35b400000000000000000000000000000000000000000000001b1ae4d6e2ef500000",
                    "decodedMethod": {
                        "callParams": [
                            {
                                "name": "_to",
                                "type": "address",
                                "value": "0x21354b86ae8c17a04e2de598aac41235584e35b4"
                            },
                            {
                                "decimalAvailable": true,
                                "name": "_value",
                                "type": "uint256",
                                "value": "500,000,000,000,000,000,000"
                            }
                        ],
                        "constructorArguments": "",
                        "name": "transfer",
                        "returnParams": [
                            {
                                "name": "success",
                                "type": "bool",
                                "value": true
                            }
                        ],
                        "signature": "transfer(address,uint256)"
                    },
                    "errorInfo": "",
                    "fromAddress": "0x4bf35fd0ec0b21fe81a8c03609e8378311a29f0d",
                    "gasUsed": 36479,
                    "id": 0,
                    "methodDecoded": true,
                    "operation": "CALL",
                    "output": "0x0000000000000000000000000000000000000000000000000000000000000001",
                    "revert": false,
                    "revertMessage": "",
                    "selector": "0xa9059cbb",
                    "status": true,
                    "value": "0"
                },
                "nodeType": 0
            },
            "1": {
                "event": {
                    "contract": "0xcafe27178308351a12fffffdeb161d9d730da082",
                    "decodedLog": {
                        "name": "Transfer",
                        "params": [
                            {
                                "name": "_from",
                                "type": "address",
                                "value": "0x4bf35fd0ec0b21fe81a8c03609e8378311a29f0d"
                            },
                            {
                                "name": "_to",
                                "type": "address",
                                "value": "0x21354b86ae8c17a04e2de598aac41235584e35b4"
                            },
                            {
                                "decimalAvailable": true,
                                "name": "_value",
                                "type": "uint256",
                                "value": "500,000,000,000,000,000,000"
                            }
                        ],
                        "signature": "Transfer(address,address,uint256)"
                    },
                    "id": 1,
                    "logData": "0x00000000000000000000000000000000000000000000001b1ae4d6e2ef500000",
                    "logDecoded": true,
                    "operation": "EVENT",
                    "revert": false,
                    "status": true,
                    "topics": [
                        "0xddf252ad1be2c89b69c2b068fc378daa952ba7f163c4a11628f55a4df523b3ef",
                        "0x0000000000000000000000004bf35fd0ec0b21fe81a8c03609e8378311a29f0d",
                        "0x00000000000000000000000021354b86ae8c17a04e2de598aac41235584e35b4"
                    ]
                },
                "nodeType": 1
            }
        },
        "gasFlame": [
            {
                "children": [
                    {
                        "children": [
                            {
                                "children": [],
                                "depth": 0,
                                "name": "Initial Gas",
                                "value": 23256
                            },
                            {
                                "children": [],
                                "depth": 0,
                                "name": "Executed Gas",
                                "value": 13223
                            }
                        ],
                        "depth": -1,
                        "name": "Actual Gas Used",
                        "value": 36479
                    },
                    {
                        "children": [],
                        "depth": -1,
                        "name": "Refunded Gas",
                        "value": 0
                    }
                ],
                "depth": -2,
                "name": "Total Gas",
                "value": 36479
            }
        ],
        "isConfirmed": true,
        "mainTrace": [
            {
                "children": [
                    {
                        "children": [
                            {
                                "children": [],
                                "depth": 1,
                                "id": 1,
                                "order": 1
                            }
                        ],
                        "depth": 0,
                        "id": 0,
                        "order": 0
                    }
                ],
                "depth": -1,
                "id": -1,
                "order": -1
            }
        ],
        "mainTraceNodeCount": 2,
        "parentIdMap": {
            "0": -1,
            "1": 0
        },
        "tidyTrace": [
            {
                "children": [
                    {
                        "children": [
                            {
                                "children": [],
                                "depth": 1,
                                "id": 1,
                                "order": 1
                            }
                        ],
                        "depth": 0,
                        "id": 0,
                        "order": 0
                    }
                ],
                "depth": -1,
                "id": -1,
                "order": -1
            }
        ],
        "tidyTraceNodeCount": 2
    },
    "state_change": {
        "stateChanges": [
            {
                "address": "0xcafe27178308351a12fffffdeb161d9d730da082",
                "erc": "ERC-20",
                "slots": [
                    {
                        "current": "0x00000000000000000000000000000000000000000000782c3c2a234bb46cffff",
                        "key": "0x5c7bea66b97e9fd2c5be67e0e58d73bd2ec32d8e65275aa9498109b63f39c1e2",
                        "prev": "0x000000000000000000000000000000000000000000007847570efa2ea3bcffff"
                    },
                    {
                        "current": "0x00000000000000000000000000000000000000000000003635c9adc5dea00000",
                        "key": "0x9976ad4f40ba33f35df0c96a854546da9bc8b019e2af85aa71876ce43fd52102",
                        "prev": "0x00000000000000000000000000000000000000000000001b1ae4d6e2ef500000"
                    }
                ],
                "storageVariables": [
                    {
                        "name": "balances",
                        "type": "mapping(address => uint256)",
                        "value": {
                            "pairs": [
                                {
                                    "key": "0x21354b86ae8c17a04e2de598aac41235584e35b4",
                                    "value": {
                                        "current": "1000000000000000000000",
                                        "prev": "500000000000000000000",
                                        "typeTag": 1
                                    }
                                },
                                {
                                    "key": "0x4bf35fd0ec0b21fe81a8c03609e8378311a29f0d",
                                    "value": {
                                        "current": "567499969999999999999999",
                                        "prev": "567999969999999999999999",
                                        "typeTag": 1
                                    }
                                }
                            ],
                            "typeTag": 4
                        }
                    }
                ]
            }
        ]
    }
}