{
    "balance_change": {
        "balanceChanges": []
    },
    "profile": {
        "basic_info": {
            "baseFee": "9.514912381",
            "blockNumber": 15480285,
            "callData": "0x89eaa45c0000000000000000000000000000000000000000005135106fe588b3b71d777f0000000000000000000000000000000000000000004d0b315604f43ac3a336ec0205006e000000000000000015deed6c0ee957010000efb47fcfcad4f96c83d4ca676842fb03ef20a4770100f7d31825946e7fd99ef07212d34b9dad84c396b7",
            "debugEnable": true,
            "errorInfo": "",
            "eventCount": 0,
            "feeRecipient": "0xea674fdde714fd979de3edf0f56aa9716b898ec8",
            "formatValue": "0",
            "gasLimit": 296281,
            "gasPrice": "10.514912381",
            "gasUsed": 29197,
            "intTxnCount": 1,
            "internalRevert": false,
            "internalRevertMessage": "",
            "isContractCreation": false,
            "isFlashloan": false,
            "maxFee": "12.094009163",
            "nonce": 11851,
            "overwritedBlockNumber": -1,
            "priorityFee": "1",
            "receiver": "0xf71530c1f043703085b42608ff9dcccc43210a8e",
            "revertMessage": "",
            "sender": "0xf90029931c7a9a27e350cd35c91cbedbb58350c4",
            "simulationEnable": true,
            "sourceTxnHash": "0xfe89d16d778a255a6eebf6204a192ec23af8d07832a726d6d2cf9943fbe9d94a",
            "status": true,
            "timestamp": "2022-09-05T21:59:03Z",
            "transactionFee": "0.000307003896788057",
            "txnHash": "0xfe89d16d778a255a6eebf6204a192ec23af8d07832a726d6d2cf9943fbe9d94a",
            "txnIndex": 229,
            "type": 2,
            "value": "0"
        },
        "fund_flow": [],
        "token_infos": [
            {
                "address": "0xc02aaa39b223fe8d0a0e5c4f27ead9083c756cc2",
                "decimals": 18
            },
            {
                "address": "0xeeeeeeeeeeeeeeeeeeeeeeeeeeeeeeeeeeeeeeee",
                "decimals": 18
            }
        ]
    },
    "address_label": {
        "labels": [
            {
                "address": "0x0000000000000000000000000000000000000003",
                "label": "Precompiled"
            },
            {
                "address": "0x0000000000000000000000000000000000000004",
                "label": "Precompiled"
            },
            {
                "address": "0xeeeeeeeeeeeeeeeeeeeeeeeeeeeeeeeeeeeeeeee",
                "label": "Ether"
            },
            {
                "address": "0xf71530c1f043703085b42608ff9dcccc43210a8e",
                "label": "MEV Bot: 0xF71...a8E"
            },
            {
                "address": "0xf7d31825946e7fd99ef07212d34b9dad84c396b7",
                "label": "Uniswap V2: BONE 70"
            },
            {
                "address": "0x0000000000000000000000000000000000000001",
                "label": "Precompiled"
            },
            {
                "address": "0x0000000000000000000000000000000000000002",
                "label": "Precompiled"
            }
        ]
    },
    "trace": {
        "accountLabels": null,
        "dataMap": {
            "-1": {
                "invocation": {
                    "address": "0xf90029931c7a9a27e350cd35c91cbedbb58350c4",
                    "callData": "",
                    "decodedMethod": null,
                    "errorInfo": "",
                    "fromAddress": "",
                    "gasUsed": 0,
                    "id": -1,
                    "methodDecoded": false,
                    "operation": "",
                    "output": "",
                    "revert": false,
                    "revertMessage": "",
                    "selector": "",
                    "status": false,
                    "value": ""
                },
                "nodeType": 0
            },
            "0": {
                "invocation": {
                    "address": "0xf71530c1f043703085b42608ff9dcccc43210a8e",
                    "callData": "0x0000000000000000000000000000000000000000005135106fe588b3b71d777f0000000000000000000000000000000000000000004d0b315604f43ac3a336ec0205006e000000000000000015deed6c0ee957010000efb47fcfcad4f96c83d4ca676842fb03ef20a4770100f7d31825946e7fd99ef07212d34b9dad84c396b7",
                    "decodedMethod": {
                        "callParams": [],
                        "constructorArguments": "",
                        "name": "AmIYoinkZ5534023222657174543",
                        "returnParams": [],
                        "signature": "AmIYoinkZ5534023222657174543()"
                    },
                    "errorInfo": "",
                    "fromAddress": "0xf90029931c7a9a27e350cd35c91cbedbb58350c4",
                    "gasUsed": 29197,
                    "id": 0,
                    "methodDecoded": true,
                    "operation": "CALL",
                    "output": "",
                    "revert": false,
                    "revertMessage": "",
                    "selector": "0x89eaa45c",
                    "status": true,
                    "value": "0"
                },
                "nodeType": 0
            },
            "1": {
                "invocation": {
                    "address": "0xf7d31825946e7fd99ef07212d34b9dad84c396b7",
                    "callData": "0x",
                    "decodedMethod": {
                        "callParams": [],
                        "constructorArguments": "",
                        "name": "getReserves",
                        "returnParams": [
                            {
                                "name": "_reserve0",
                                "type": "uint112",
                                "value": "51,703,429,348,354,012,173,553"
                            },
                            {
                                "name": "_reserve1",
                                "type": "uint112",
                                "value": "60,781,206,762,436,613,744"
                            },
                            {
                                "name": "_blockTimestampLast",
                                "type": "uint32",
                                "value": "1,662,415,064"
                            }
                        ],
                        "signature": "getReserves()"
                    },
                    "errorInfo": "",
                    "fromAddress": "0xf71530c1f043703085b42608ff9dcccc43210a8e",
                    "gasUsed": 2504,
                    "id": 1,
                    "methodDecoded": true,
                    "operation": "STATICCALL",
                    "output": "0x000000000000000000000000000000000000000000000af2d938afd1a34754f10000000000000000000000000000000000000000000000034b8239848e9ad67000000000000000000000000000000000000000000000000000000000631670d8",
                    "revert": false,
                    "revertMessage": "",
                    "selector": "0x0902f1ac",
                    "status": true,
                    "value": "0"
                },
                "nodeType": 0
            }
        },
        "gasFlame": [
            {
                "children": [
                    {
                        "children": [
                            {
                                "children": [],
                                "depth": 0,
                                "name": "Initial Gas",
                                "value": 22464
                            },
                            {
                                "children": [
                                    {
                                        "children": [],
                                        "depth": 1,
                                        "name": "getReserves",
                                        "value": 2504
                                    }
                                ],
                                "depth": 0,
                                "name": "Executed Gas",
                                "value": 6733
                            }
                        ],
                        "depth": -1,
                        "name": "Actual Gas Used",
                        "value": 29197
                    },
                    {
                        "children": [],
                        "depth": -1,
                        "name": "Refunded Gas",
                        "value": 0
                    }
                ],
                "depth": -2,
                "name": "Total Gas",
                "value": 29197
            }
        ],
        "isConfirmed": true,
        "mainTrace": [
            {
                "children": [
                    {
                        "children": [
                            {
                                "children": [],
                                "depth": 1,
                                "id": 1,
                                "order": 1
                            }
                        ],
                        "depth": 0,
                        "id": 0,
                        "order": 0
                    }
                ],
                "depth": -1,
                "id": -1,
                "order": -1
            }
        ],
        "mainTraceNodeCount": 2,
        "parentIdMap": {
            "0": -1,
            "1": 0
        },
        "tidyTrace": [
            {
                "children": [
                    {
                        "children": [],
                        "depth": 0,
                        "id": 0,
                        "order": 0
                    }
                ],
                "depth": -1,
                "id": -1,
                "order": -1
            }
        ],
        "tidyTraceNodeCount": 1
    },
    "state_change": {
        "stateChanges": []
    }
}