{
    "balance_change": {
        "balanceChanges": [
            {
                "account": "0xbd8c20714d9d9fae3b6b5ab3b3b63d1fba1c5f07",
                "assets": [
                    {
                        "address": "0x573aaaa81154cd24e96f0cb97fd86110b8f6767f",
                        "amount": "50",
                        "iconUrl": "",
                        "isERC1155": false,
                        "isERC721": false,
                        "sign": true,
                        "value": ""
                    },
                    {
                        "address": "0xeeeeeeeeeeeeeeeeeeeeeeeeeeeeeeeeeeeeeeee",
                        "amount": "1",
                        "iconUrl": "https://assets.blocksec.com/image/1663669189317-3.png",
                        "isERC1155": false,
                        "isERC721": false,
                        "sign": false,
                        "value": ""
                    }
                ]
            },
            {
                "account": "0xae9b8e05c22bae74d1e8db82c4af122b18050bd4",
                "assets": [
                    {
                        "address": "0x03cb0021808442ad5efb61197966aef72a1def96",
                        "amount": "0.91",
                        "iconUrl": "",
                        "isERC1155": false,
                        "isERC721": false,
                        "sign": true,
                        "value": ""
                    },
                    {
                        "address": "0x573aaaa81154cd24e96f0cb97fd86110b8f6767f",
                        "amount": "50",
                        "iconUrl": "",
                        "isERC1155": false,
                        "isERC721": false,
                        "sign": false,
                        "value": ""
                    }
                ]
            },
            {
                "account": "0x0000000000000000000000000000000000000000",
                "assets": [
                    {
                        "address": "0x03cb0021808442ad5efb61197966aef72a1def96",
                        "amount": "1",
                        "iconUrl": "",
                        "isERC1155": false,
                        "isERC721": false,
                        "sign": false,
                        "value": ""
                    }
                ]
            },
            {
                "account": "0x03cb0021808442ad5efb61197966aef72a1def96",
                "assets": [
                    {
                        "address": "0xeeeeeeeeeeeeeeeeeeeeeeeeeeeeeeeeeeeeeeee",
                        "amount": "1",
                        "iconUrl": "https://assets.blocksec.com/image/1663669189317-3.png",
                        "isERC1155": false,
                        "isERC721": false,
                        "sign": true,
                        "value": ""
                    }
                ]
            },
            {
                "account": "0x62a364f7cba3be8fc9dcfdde12cabec8244af381",
                "assets": [
                    {
                        "address": "0x03cb0021808442ad5efb61197966aef72a1def96",
                        "amount": "0.09",
                        "iconUrl": "",
                        "isERC1155": false,
                        "isERC721": false,
                        "sign": true,
                        "value": ""
                    }
                ]
            }
        ]
    },
    "profile": {
        "basic_info": {
            "baseFee": "",
            "blockNumber": 7297388,
            "callData": "0x29675f29000000000000000000000000000000000000000000000000000000000000000000000000000000000000000000000000000000000000000000000000000000080000000000000000000000000000000000000000000000000000000000000000000000000000000000000000000000000000000000000000000000000000000c",
            "debugEnable": true,
            "errorInfo": "",
            "eventCount": 5,
            "feeRecipient": "0x829bd824b016326a401d083b33d092293333a830",
            "formatValue": "1",
            "gasLimit": 1000000,
            "gasPrice": "30",
            "gasUsed": 505546,
            "intTxnCount": 5,
            "internalRevert": false,
            "internalRevertMessage": "",
            "isContractCreation": false,
            "isFlashloan": false,
            "maxFee": "",
            "nonce": 286,
            "overwritedBlockNumber": -1,
            "priorityFee": "",
            "receiver": "0xae9b8e05c22bae74d1e8db82c4af122b18050bd4",
            "revertMessage": "",
            "sender": "0xbd8c20714d9d9fae3b6b5ab3b3b63d1fba1c5f07",
            "simulationEnable": true,
            "sourceTxnHash": "0xffe1786687503c427b9d1456897706bcf4bd6f4dfbe233a09925a560471036f0",
            "status": true,
            "timestamp": "2019-03-03T15:33:48Z",
            "transactionFee": "0.01516638",
            "txnHash": "0xffe1786687503c427b9d1456897706bcf4bd6f4dfbe233a09925a560471036f0",
            "txnIndex": 14,
            "type": 0,
            "value": "1000000000000000000"
        },
        "fund_flow": [
            {
                "amount": "1",
                "from": "0xbd8c20714d9d9fae3b6b5ab3b3b63d1fba1c5f07",
                "id": 1,
                "isERC1155": false,
                "isERC721": false,
                "isReverted": false,
                "order": 1,
                "to": "0xae9b8e05c22bae74d1e8db82c4af122b18050bd4",
                "token": "0xeeeeeeeeeeeeeeeeeeeeeeeeeeeeeeeeeeeeeeee"
            },
            {
                "amount": "1",
                "from": "0xae9b8e05c22bae74d1e8db82c4af122b18050bd4",
                "id": 2,
                "isERC1155": false,
                "isERC721": false,
                "isReverted": false,
                "order": 2,
                "to": "0x03cb0021808442ad5efb61197966aef72a1def96",
                "token": "0xeeeeeeeeeeeeeeeeeeeeeeeeeeeeeeeeeeeeeeee"
            },
            {
                "amount": "1",
                "from": "0x0000000000000000000000000000000000000000",
                "id": 3,
                "isERC1155": false,
                "isERC721": false,
                "isReverted": false,
                "order": 3,
                "to": "0x03cb0021808442ad5efb61197966aef72a1def96",
                "token": "0x03cb0021808442ad5efb61197966aef72a1def96"
            },
            {
                "amount": "1",
                "from": "0x03cb0021808442ad5efb61197966aef72a1def96",
                "id": 4,
                "isERC1155": false,
                "isERC721": false,
                "isReverted": false,
                "order": 4,
                "to": "0xbd8c20714d9d9fae3b6b5ab3b3b63d1fba1c5f07",
                "token": "0x03cb0021808442ad5efb61197966aef72a1def96"
            },
            {
                "amount": "1",
                "from": "0xbd8c20714d9d9fae3b6b5ab3b3b63d1fba1c5f07",
                "id": 5,
                "isERC1155": false,
                "isERC721": false,
                "isReverted": false,
                "order": 5,
                "to": "0xae9b8e05c22bae74d1e8db82c4af122b18050bd4",
                "token": "0x03cb0021808442ad5efb61197966aef72a1def96"
            },
            {
                "amount": "50",
                "from": "0xae9b8e05c22bae74d1e8db82c4af122b18050bd4",
                "id": 6,
                "isERC1155": false,
                "isERC721": false,
                "isReverted": false,
                "order": 6,
                "to": "0xbd8c20714d9d9fae3b6b5ab3b3b63d1fba1c5f07",
                "token": "0x573aaaa81154cd24e96f0cb97fd86110b8f6767f"
            },
            {
                "amount": "0.09",
                "from": "0xae9b8e05c22bae74d1e8db82c4af122b18050bd4",
                "id": 7,
                "isERC1155": false,
                "isERC721": false,
                "isReverted": false,
                "order": 7,
                "to": "0x62a364f7cba3be8fc9dcfdde12cabec8244af381",
                "token": "0x03cb0021808442ad5efb61197966aef72a1def96"
            }
        ],
        "token_infos": [
            {
                "address": "0xeeeeeeeeeeeeeeeeeeeeeeeeeeeeeeeeeeeeeeee",
                "decimals": 18
            },
            {
                "address": "0x03cb0021808442ad5efb61197966aef72a1def96",
                "decimals": 18
            },
            {
                "address": "0x573aaaa81154cd24e96f0cb97fd86110b8f6767f",
                "decimals": 18
            },
            {
                "address": "0xc02aaa39b223fe8d0a0e5c4f27ead9083c756cc2",
                "decimals": 18
            }
        ]
    },
    "address_label": {
        "labels": [
            {
                "address": "0x573aaaa81154cd24e96f0cb97fd86110b8f6767f",
                "label": "Fus"
            },
            {
                "address": "0x0000000000000000000000000000000000000001",
                "label": "Precompiled"
            },
            {
                "address": "0x0000000000000000000000000000000000000002",
                "label": "Precompiled"
            },
            {
                "address": "0x0000000000000000000000000000000000000003",
                "label": "Precompiled"
            },
            {
                "address": "0x0000000000000000000000000000000000000004",
                "label": "Precompiled"
            },
            {
                "address": "0xeeeeeeeeeeeeeeeeeeeeeeeeeeeeeeeeeeeeeeee",
                "label": "Ether"
            },
            {
                "address": "0xae9b8e05c22bae74d1e8db82c4af122b18050bd4",
                "label": "Biigo2"
            },
            {
                "address": "0x03cb0021808442ad5efb61197966aef72a1def96",
                "label": "coToken (coToken)"
            }
        ]
    },
    "trace": {
        "accountLabels": null,
        "dataMap": {
            "-1": {
                "invocation": {
                    "address": "0xbd8c20714d9d9fae3b6b5ab3b3b63d1fba1c5f07",
                    "callData": "",
                    "decodedMethod": null,
                    "errorInfo": "",
                    "fromAddress": "",
                    "gasUsed": 0,
                    "id": -1,
                    "methodDecoded": false,
                    "operation": "",
                    "output": "",
                    "revert": false,
                    "revertMessage": "",
                    "selector": "",
                    "status": false,
                    "value": ""
                },
                "nodeType": 0
            },
            "0": {
                "invocation": {
                    "address": "0xae9b8e05c22bae74d1e8db82c4af122b18050bd4",
                    "callData": "0x000000000000000000000000000000000000000000000000000000000000000000000000000000000000000000000000000000000000000000000000000000080000000000000000000000000000000000000000000000000000000000000000000000000000000000000000000000000000000000000000000000000000000c",
                    "decodedMethod": {
                        "callParams": [
                            {
                                "name": "tokenId",
                                "type": "uint256",
                                "value": "0"
                            },
                            {
                                "name": "price",
                                "type": "uint256",
                                "value": "8"
                            },
                            {
                                "name": "safe",
                                "type": "bool",
                                "value": false
                            },
                            {
                                "name": "hookCount",
                                "type": "uint256",
                                "value": "12"
                            }
                        ],
                        "constructorArguments": "",
                        "name": "buy",
                        "returnParams": [],
                        "signature": "buy(uint256,uint256,bool,uint256)"
                    },
                    "errorInfo": "",
                    "fromAddress": "0xbd8c20714d9d9fae3b6b5ab3b3b63d1fba1c5f07",
                    "gasUsed": 505546,
                    "id": 0,
                    "methodDecoded": true,
                    "operation": "CALL",
                    "output": "",
                    "revert": false,
                    "revertMessage": "",
                    "selector": "0x29675f29",
                    "status": true,
                    "value": "1"
                },
                "nodeType": 0
            },
            "1": {
                "invocation": {
                    "address": "0x03cb0021808442ad5efb61197966aef72a1def96",
                    "callData": "0x000000000000000000000000bd8c20714d9d9fae3b6b5ab3b3b63d1fba1c5f07",
                    "decodedMethod": {
                        "callParams": [
                            {
                                "name": "_referer",
                                "type": "address",
                                "value": "0xbd8c20714d9d9fae3b6b5ab3b3b63d1fba1c5f07"
                            }
                        ],
                        "constructorArguments": "",
                        "name": "deposit",
                        "returnParams": [],
                        "signature": "deposit(address)"
                    },
                    "errorInfo": "",
                    "fromAddress": "0xae9b8e05c22bae74d1e8db82c4af122b18050bd4",
                    "gasUsed": 14925,
                    "id": 1,
                    "methodDecoded": true,
                    "operation": "CALL",
                    "output": "",
                    "revert": false,
                    "revertMessage": "",
                    "selector": "0xf340fa01",
                    "status": true,
                    "value": "1"
                },
                "nodeType": 0
            },
            "10": {
                "event": {
                    "contract": "0x03cb0021808442ad5efb61197966aef72a1def96",
                    "decodedLog": {
                        "name": "Transfer",
                        "params": [
                            {
                                "name": "from",
                                "type": "address",
                                "value": "0xae9b8e05c22bae74d1e8db82c4af122b18050bd4"
                            },
                            {
                                "name": "to",
                                "type": "address",
                                "value": "0x62a364f7cba3be8fc9dcfdde12cabec8244af381"
                            },
                            {
                                "decimalAvailable": true,
                                "name": "value",
                                "type": "uint256",
                                "value": "90,000,000,000,000,000"
                            }
                        ],
                        "signature": "Transfer(address,address,uint256)"
                    },
                    "id": 10,
                    "logData": "0x000000000000000000000000000000000000000000000000013fbe85edc90000",
                    "logDecoded": true,
                    "operation": "EVENT",
                    "revert": false,
                    "status": true,
                    "topics": [
                        "0xddf252ad1be2c89b69c2b068fc378daa952ba7f163c4a11628f55a4df523b3ef",
                        "0x000000000000000000000000ae9b8e05c22bae74d1e8db82c4af122b18050bd4",
                        "0x00000000000000000000000062a364f7cba3be8fc9dcfdde12cabec8244af381"
                    ]
                },
                "nodeType": 1
            },
            "2": {
                "event": {
                    "contract": "0x03cb0021808442ad5efb61197966aef72a1def96",
                    "decodedLog": {
                        "name": "Transfer",
                        "params": [
                            {
                                "name": "from",
                                "type": "address",
                                "value": "0x0000000000000000000000000000000000000000"
                            },
                            {
                                "name": "to",
                                "type": "address",
                                "value": "0x03cb0021808442ad5efb61197966aef72a1def96"
                            },
                            {
                                "decimalAvailable": true,
                                "name": "value",
                                "type": "uint256",
                                "value": "1,000,000,000,000,000,000"
                            }
                        ],
                        "signature": "Transfer(address,address,uint256)"
                    },
                    "id": 2,
                    "logData": "0x0000000000000000000000000000000000000000000000000de0b6b3a7640000",
                    "logDecoded": true,
                    "operation": "EVENT",
                    "revert": false,
                    "status": true,
                    "topics": [
                        "0xddf252ad1be2c89b69c2b068fc378daa952ba7f163c4a11628f55a4df523b3ef",
                        "0x0000000000000000000000000000000000000000000000000000000000000000",
                        "0x00000000000000000000000003cb0021808442ad5efb61197966aef72a1def96"
                    ]
                },
                "nodeType": 1
            },
            "3": {
                "event": {
                    "contract": "0x03cb0021808442ad5efb61197966aef72a1def96",
                    "decodedLog": {
                        "name": "Transfer",
                        "params": [
                            {
                                "name": "from",
                                "type": "address",
                                "value": "0x03cb0021808442ad5efb61197966aef72a1def96"
                            },
                            {
                                "name": "to",
                                "type": "address",
                                "value": "0xbd8c20714d9d9fae3b6b5ab3b3b63d1fba1c5f07"
                            },
                            {
                                "decimalAvailable": true,
                                "name": "value",
                                "type": "uint256",
                                "value": "1,000,000,000,000,000,000"
                            }
                        ],
                        "signature": "Transfer(address,address,uint256)"
                    },
                    "id": 3,
                    "logData": "0x0000000000000000000000000000000000000000000000000de0b6b3a7640000",
                    "logDecoded": true,
                    "operation": "EVENT",
                    "revert": false,
                    "status": true,
                    "topics": [
                        "0xddf252ad1be2c89b69c2b068fc378daa952ba7f163c4a11628f55a4df523b3ef",
                        "0x00000000000000000000000003cb0021808442ad5efb61197966aef72a1def96",
                        "0x000000000000000000000000bd8c20714d9d9fae3b6b5ab3b3b63d1fba1c5f07"
                    ]
                },
                "nodeType": 1
            },
            "4": {
                "invocation": {
                    "address": "0x03cb0021808442ad5efb61197966aef72a1def96",
                    "callData": "0x000000000000000000000000bd8c20714d9d9fae3b6b5ab3b3b63d1fba1c5f070000000000000000000000000000000000000000000000000de0b6b3a7640000",
                    "decodedMethod": {
                        "callParams": [
                            {
                                "name": "_to",
                                "type": "address",
                                "value": "0xbd8c20714d9d9fae3b6b5ab3b3b63d1fba1c5f07"
                            },
                            {
                                "name": "_value",
                                "type": "uint256",
                                "value": "1,000,000,000,000,000,000"
                            }
                        ],
                        "constructorArguments": "",
                        "name": "deduct",
                        "returnParams": [
                            {
                                "name": "success",
                                "type": "bool",
                                "value": true
                            }
                        ],
                        "signature": "deduct(address,uint256)"
                    },
                    "errorInfo": "",
                    "fromAddress": "0xae9b8e05c22bae74d1e8db82c4af122b18050bd4",
                    "gasUsed": 14038,
                    "id": 4,
                    "methodDecoded": true,
                    "operation": "CALL",
                    "output": "0x0000000000000000000000000000000000000000000000000000000000000001",
                    "revert": false,
                    "revertMessage": "",
                    "selector": "0x47055321",
                    "status": true,
                    "value": "0"
                },
                "nodeType": 0
            },
            "5": {
                "event": {
                    "contract": "0x03cb0021808442ad5efb61197966aef72a1def96",
                    "decodedLog": {
                        "name": "Transfer",
                        "params": [
                            {
                                "name": "from",
                                "type": "address",
                                "value": "0xbd8c20714d9d9fae3b6b5ab3b3b63d1fba1c5f07"
                            },
                            {
                                "name": "to",
                                "type": "address",
                                "value": "0xae9b8e05c22bae74d1e8db82c4af122b18050bd4"
                            },
                            {
                                "decimalAvailable": true,
                                "name": "value",
                                "type": "uint256",
                                "value": "1,000,000,000,000,000,000"
                            }
                        ],
                        "signature": "Transfer(address,address,uint256)"
                    },
                    "id": 5,
                    "logData": "0x0000000000000000000000000000000000000000000000000de0b6b3a7640000",
                    "logDecoded": true,
                    "operation": "EVENT",
                    "revert": false,
                    "status": true,
                    "topics": [
                        "0xddf252ad1be2c89b69c2b068fc378daa952ba7f163c4a11628f55a4df523b3ef",
                        "0x000000000000000000000000bd8c20714d9d9fae3b6b5ab3b3b63d1fba1c5f07",
                        "0x000000000000000000000000ae9b8e05c22bae74d1e8db82c4af122b18050bd4"
                    ]
                },
                "nodeType": 1
            },
            "6": {
                "invocation": {
                    "address": "0x573aaaa81154cd24e96f0cb97fd86110b8f6767f",
                    "callData": "0x000000000000000000000000bd8c20714d9d9fae3b6b5ab3b3b63d1fba1c5f07000000000000000000000000000000000000000000000002b5e3af16b1880000",
                    "decodedMethod": {
                        "callParams": [
                            {
                                "name": "origin",
                                "type": "address",
                                "value": "0xbd8c20714d9d9fae3b6b5ab3b3b63d1fba1c5f07"
                            },
                            {
                                "name": "amount",
                                "type": "uint256",
                                "value": "50,000,000,000,000,000,000"
                            }
                        ],
                        "constructorArguments": "",
                        "name": "distribute",
                        "returnParams": [],
                        "signature": "distribute(address,uint256)"
                    },
                    "errorInfo": "",
                    "fromAddress": "0xae9b8e05c22bae74d1e8db82c4af122b18050bd4",
                    "gasUsed": 39154,
                    "id": 6,
                    "methodDecoded": true,
                    "operation": "CALL",
                    "output": "",
                    "revert": false,
                    "revertMessage": "",
                    "selector": "0xfb932108",
                    "status": true,
                    "value": "0"
                },
                "nodeType": 0
            },
            "7": {
                "event": {
                    "contract": "0x573aaaa81154cd24e96f0cb97fd86110b8f6767f",
                    "decodedLog": {
                        "name": "Transfer",
                        "params": [
                            {
                                "name": "from",
                                "type": "address",
                                "value": "0xae9b8e05c22bae74d1e8db82c4af122b18050bd4"
                            },
                            {
                                "name": "to",
                                "type": "address",
                                "value": "0xbd8c20714d9d9fae3b6b5ab3b3b63d1fba1c5f07"
                            },
                            {
                                "decimalAvailable": true,
                                "name": "value",
                                "type": "uint256",
                                "value": "50,000,000,000,000,000,000"
                            }
                        ],
                        "signature": "Transfer(address,address,uint256)"
                    },
                    "id": 7,
                    "logData": "0x000000000000000000000000000000000000000000000002b5e3af16b1880000",
                    "logDecoded": true,
                    "operation": "EVENT",
                    "revert": false,
                    "status": true,
                    "topics": [
                        "0xddf252ad1be2c89b69c2b068fc378daa952ba7f163c4a11628f55a4df523b3ef",
                        "0x000000000000000000000000ae9b8e05c22bae74d1e8db82c4af122b18050bd4",
                        "0x000000000000000000000000bd8c20714d9d9fae3b6b5ab3b3b63d1fba1c5f07"
                    ]
                },
                "nodeType": 1
            },
            "8": {
                "invocation": {
                    "address": "0x62a364f7cba3be8fc9dcfdde12cabec8244af381",
                    "callData": "0xeaa75947124c123944e8a57f219daa982f15d8237f0256ea9588b6ee540cec3300000000000000000000000000000000000000000000000000d529ae9e860000000000000000000000000000000000000000000000000000006a94d74f430000",
                    "decodedMethod": null,
                    "errorInfo": "",
                    "fromAddress": "0xae9b8e05c22bae74d1e8db82c4af122b18050bd4",
                    "gasUsed": 33340,
                    "id": 8,
                    "methodDecoded": false,
                    "operation": "CALL",
                    "output": "",
                    "revert": false,
                    "revertMessage": "",
                    "selector": "0x7f2dc9b5",
                    "status": true,
                    "value": "0"
                },
                "nodeType": 0
            },
            "9": {
                "invocation": {
                    "address": "0x03cb0021808442ad5efb61197966aef72a1def96",
                    "callData": "0x000000000000000000000000ae9b8e05c22bae74d1e8db82c4af122b18050bd4000000000000000000000000000000000000000000000000013fbe85edc90000",
                    "decodedMethod": {
                        "callParams": [
                            {
                                "name": "_to",
                                "type": "address",
                                "value": "0xae9b8e05c22bae74d1e8db82c4af122b18050bd4"
                            },
                            {
                                "name": "_value",
                                "type": "uint256",
                                "value": "90,000,000,000,000,000"
                            }
                        ],
                        "constructorArguments": "",
                        "name": "deduct",
                        "returnParams": [
                            {
                                "name": "success",
                                "type": "bool",
                                "value": true
                            }
                        ],
                        "signature": "deduct(address,uint256)"
                    },
                    "errorInfo": "",
                    "fromAddress": "0x62a364f7cba3be8fc9dcfdde12cabec8244af381",
                    "gasUsed": 14038,
                    "id": 9,
                    "methodDecoded": true,
                    "operation": "CALL",
                    "output": "0x0000000000000000000000000000000000000000000000000000000000000001",
                    "revert": false,
                    "revertMessage": "",
                    "selector": "0x47055321",
                    "status": true,
                    "value": "0"
                },
                "nodeType": 0
            }
        },
        "gasFlame": [
            {
                "children": [
                    {
                        "children": [
                            {
                                "children": [],
                                "depth": 0,
                                "name": "Initial Gas",
                                "value": 21912
                            },
                            {
                                "children": [
                                    {
                                        "children": [],
                                        "depth": 1,
                                        "name": "deposit",
                                        "value": 14925
                                    },
                                    {
                                        "children": [],
                                        "depth": 1,
                                        "name": "deduct",
                                        "value": 14038
                                    },
                                    {
                                        "children": [],
                                        "depth": 1,
                                        "name": "distribute",
                                        "value": 39154
                                    },
                                    {
                                        "children": [
                                            {
                                                "children": [],
                                                "depth": 2,
                                                "name": "deduct",
                                                "value": 14038
                                            }
                                        ],
                                        "depth": 1,
                                        "name": "0x7f2dc9b5",
                                        "value": 33340
                                    }
                                ],
                                "depth": 0,
                                "name": "Executed Gas",
                                "value": 483634
                            }
                        ],
                        "depth": -1,
                        "name": "Actual Gas Used",
                        "value": 505546
                    },
                    {
                        "children": [],
                        "depth": -1,
                        "name": "Refunded Gas",
                        "value": 0
                    }
                ],
                "depth": -2,
                "name": "Total Gas",
                "value": 505546
            }
        ],
        "isConfirmed": true,
        "mainTrace": [
            {
                "children": [
                    {
                        "children": [
                            {
                                "children": [
                                    {
                                        "children": [],
                                        "depth": 2,
                                        "id": 2,
                                        "order": 2
                                    },
                                    {
                                        "children": [],
                                        "depth": 2,
                                        "id": 3,
                                        "order": 3
                                    }
                                ],
                                "depth": 1,
                                "id": 1,
                                "order": 1
                            },
                            {
                                "children": [
                                    {
                                        "children": [],
                                        "depth": 2,
                                        "id": 5,
                                        "order": 5
                                    }
                                ],
                                "depth": 1,
                                "id": 4,
                                "order": 4
                            },
                            {
                                "children": [
                                    {
                                        "children": [],
                                        "depth": 2,
                                        "id": 7,
                                        "order": 7
                                    }
                                ],
                                "depth": 1,
                                "id": 6,
                                "order": 6
                            },
                            {
                                "children": [
                                    {
                                        "children": [
                                            {
                                                "children": [],
                                                "depth": 3,
                                                "id": 10,
                                                "order": 10
                                            }
                                        ],
                                        "depth": 2,
                                        "id": 9,
                                        "order": 9
                                    }
                                ],
                                "depth": 1,
                                "id": 8,
                                "order": 8
                            }
                        ],
                        "depth": 0,
                        "id": 0,
                        "order": 0
                    }
                ],
                "depth": -1,
                "id": -1,
                "order": -1
            }
        ],
        "mainTraceNodeCount": 11,
        "parentIdMap": {
            "0": -1,
            "1": 0,
            "10": 9,
            "2": 1,
            "3": 1,
            "4": 0,
            "5": 4,
            "6": 0,
            "7": 6,
            "8": 0,
            "9": 8
        },
        "tidyTrace": [
            {
                "children": [
                    {
                        "children": [
                            {
                                "children": [
                                    {
                                        "children": [],
                                        "depth": 2,
                                        "id": 2,
                                        "order": 2
                                    },
                                    {
                                        "children": [],
                                        "depth": 2,
                                        "id": 3,
                                        "order": 3
                                    }
                                ],
                                "depth": 1,
                                "id": 1,
                                "order": 1
                            },
                            {
                                "children": [
                                    {
                                        "children": [],
                                        "depth": 2,
                                        "id": 5,
                                        "order": 5
                                    }
                                ],
                                "depth": 1,
                                "id": 4,
                                "order": 4
                            },
                            {
                                "children": [
                                    {
                                        "children": [],
                                        "depth": 2,
                                        "id": 7,
                                        "order": 7
                                    }
                                ],
                                "depth": 1,
                                "id": 6,
                                "order": 6
                            },
                            {
                                "children": [
                                    {
                                        "children": [
                                            {
                                                "children": [],
                                                "depth": 3,
                                                "id": 10,
                                                "order": 10
                                            }
                                        ],
                                        "depth": 2,
                                        "id": 9,
                                        "order": 9
                                    }
                                ],
                                "depth": 1,
                                "id": 8,
                                "order": 8
                            }
                        ],
                        "depth": 0,
                        "id": 0,
                        "order": 0
                    }
                ],
                "depth": -1,
                "id": -1,
                "order": -1
            }
        ],
        "tidyTraceNodeCount": 11
    },
    "state_change": {
        "stateChanges": [
            {
                "address": "0x03cb0021808442ad5efb61197966aef72a1def96",
                "erc": "",
                "slots": [
                    {
                        "current": "0x00000000000000000000000000000000000000000000014a9aed95d458a86d07",
                        "key": "0x0000000000000000000000000000000000000000000000000000000000000005",
                        "prev": "0x00000000000000000000000000000000000000000000014a8d0cdf20b1446d07"
                    },
                    {
                        "current": "0x000000000000000000000000000000000000000000000024a4d975c969becf2c",
                        "key": "0x185346adec82a13a5fc08c7d533e8c80399779c28b22f298647f4f0c87c5c363",
                        "prev": "0x00000000000000000000000000000000000000000000002498387d9bb023cf2c"
                    },
                    {
                        "current": "0x00000000000000000000000000000000000000000000001ffcdf2e7918a80000",
                        "key": "0x2ae1781e2b15e18335d21665ed35f55f4489bb9a28dc7e5c8dd1f7abd6dbaf1c",
                        "prev": "0x00000000000000000000000000000000000000000000001ffb9f6ff32adf0000"
                    }
                ],
                "storageVariables": []
            },
            {
                "address": "0x573aaaa81154cd24e96f0cb97fd86110b8f6767f",
                "erc": "",
                "slots": [
                    {
                        "current": "0x00000000000000000000000000000000000000000009cc4d023e5d5481d20000",
                        "key": "0x06f8c95004082a5edc664ebef019ecff95ff1fc5a6fe116c7c449d6a0bc7041c",
                        "prev": "0x00000000000000000000000000000000000000000009cc4a4c5aae3dd04a0000"
                    },
                    {
                        "current": "0x0000000000000000000000000000000000000000000903c39a2ad4c0bcd20000",
                        "key": "0x8f9c7e241539d1f10aeabb946285fadf5c5f29fe9251e834bbb04d5956aa65a1",
                        "prev": "0x0000000000000000000000000000000000000000000903c0e44725aa0b4a0000"
                    },
                    {
                        "current": "0x000000000000000000000000000000000000000000058a906ef802cf91100001",
                        "key": "0xb168e0b9e09601c4f19c3c4777eb2b5ea2adc80e119631df9f581c5a8776bd3a",
                        "prev": "0x000000000000000000000000000000000000000000058a8db91453b8df880001"
                    },
                    {
                        "current": "0x0000000000000000000000000000000000000000001b8bc3e958025196f00000",
                        "key": "0x185346adec82a13a5fc08c7d533e8c80399779c28b22f298647f4f0c87c5c363",
                        "prev": "0x0000000000000000000000000000000000000000001b8bc69f3bb16848780000"
                    },
                    {
                        "current": "0x00000000000000000000000000000000000000000000019af7826623fc540000",
                        "key": "0xb25a9c9cd16c45447050e6c850a9c4ad18ca79ea7a633a340dfece7fa8bfd650",
                        "prev": "0x000000000000000000000000000000000000000000000198419eb70d4acc0000"
                    }
                ],
                "storageVariables": []
            },
            {
                "address": "0x62a364f7cba3be8fc9dcfdde12cabec8244af381",
                "erc": "",
                "slots": [
                    {
                        "current": "0x00000000000000000000000000000000000000000000000001aa535d3d0c0000",
                        "key": "0x2a0b0d9aac3fc9345865e9848b2d4f4734d2ce4874c092b65b1427000343a170",
                        "prev": "0x00000000000000000000000000000000000000000000000000d529ae9e860000"
                    },
                    {
                        "current": "0x000000000000000000000000000000000000000000000000013fbe85edc90000",
                        "key": "0x06808b13834d72270cc3ff976f39cb59fd7ce69a89084ba30ee609b82cde2260",
                        "prev": "0x00000000000000000000000000000000000000000000000000d529ae9e860000"
                    },
                    {
                        "current": "0x0000000000000000000000000000000000000000000000007dfb88e716ff0000",
                        "key": "0x7b84e72d9a5692dc21ad56f42dfaad92361436cb0cb832b5167c58fa4cef29c0",
                        "prev": "0x0000000000000000000000000000000000000000000000007d265f3878790000"
                    }
                ],
                "storageVariables": []
            },
            {
                "address": "0xae9b8e05c22bae74d1e8db82c4af122b18050bd4",
                "erc": "",
                "slots": [
                    {
                        "current": "0x00000000000000000000000000000000000000000000000830ef097019860000",
                        "key": "0x6a7ab6c8d890241dbeb60971a72a5b6cc197178b0f1d5f5d10386506380e1769",
                        "prev": "0x000000000000000000000000000000000000000000000008230e52bc72220000"
                    },
                    {
                        "current": "0x0000000000000000000000000000000000000013000000000000076c00000b96",
                        "key": "0x0000000000000000000000000000000000000000000000000000000000000018",
                        "prev": "0x0000000000000000000000000000000000000012000000000000070800000b96"
                    },
                    {
                        "current": "0x000000000000000000000000000000000000000000000000000a0c0800000b96",
                        "key": "0xbe8681039d441b787ccf479891099e3cf51147275775b55b76e20c859b2d89c9",
                        "prev": "0x00000000000000000000000000000000000000000000000000090c0900000b92"
                    },
                    {
                        "current": "0x000000000000000000000000000000640708080e000000005c7bf3dc00000b96",
                        "key": "0x2bbbd440851e83645e9303b6d757efae595e73835d4b75ffbdb78ed9d400d550",
                        "prev": "0x00006402c10601000000005c76582b6404b00901000000005c76550300000ac9"
                    },
                    {
                        "current": "0x00000064076c070800000b96bd8c20714d9d9fae3b6b5ab3b3b63d1fba1c5f07",
                        "key": "0xe3553b663a9c1175864e2dca010548ccdc52e22ab7276faed17fab56a43b11ac",
                        "prev": "0x0000006403af034b00000b95bfff87a41b4a547c44f9f4dbb5066ed1b0156eec"
                    }
                ],
                "storageVariables": []
            }
        ]
    }
}