{
    "balance_change": {
        "balanceChanges": [
            {
                "account": "0x5efdb6d8c798c2c2bea5b1961982a5944f92a5c1",
                "assets": [
                    {
                        "address": "0x92594d0f692fc2b25a8030573f3ff10abf034bdb",
                        "amount": "1",
                        "iconUrl": "",
                        "isERC1155": true,
                        "isERC721": false,
                        "sign": true,
                        "tokenID": "8",
                        "value": ""
                    }
                ]
            },
            {
                "account": "0x0000000000000000000000000000000000000000",
                "assets": [
                    {
                        "address": "0x92594d0f692fc2b25a8030573f3ff10abf034bdb",
                        "amount": "1",
                        "iconUrl": "",
                        "isERC1155": true,
                        "isERC721": false,
                        "sign": false,
                        "tokenID": "8",
                        "value": ""
                    }
                ]
            }
        ]
    },
    "profile": {
        "basic_info": {
            "baseFee": "158.600028246",
            "blockNumber": 13594155,
            "callData": "0xe1bc29670000000000000000000000005efdb6d8c798c2c2bea5b1961982a5944f92a5c100000000000000000000000000000000000000000000000000000000000000080000000000000000000000000000000000000000000000000000000000000001",
            "debugEnable": true,
            "errorInfo": "",
            "eventCount": 1,
            "feeRecipient": "0x829bd824b016326a401d083b33d092293333a830",
            "formatValue": "0",
            "gasLimit": 119656,
            "gasPrice": "159.600028246",
            "gasUsed": 79771,
            "intTxnCount": 0,
            "internalRevert": false,
            "internalRevertMessage": "",
            "isContractCreation": false,
            "isFlashloan": false,
            "maxFee": "251.423429588",
            "nonce": 23,
            "overwritedBlockNumber": -1,
            "priorityFee": "1",
            "receiver": "0x92594d0f692fc2b25a8030573f3ff10abf034bdb",
            "revertMessage": "",
            "sender": "0x5b1e4a8cbb5509dc45ee7591d58dcf059ce8c828",
            "simulationEnable": true,
            "sourceTxnHash": "0xff3e3458c56f897905f4aede7a3cd26a09604ec565d2c884683456c5032a7534",
            "status": true,
            "timestamp": "2021-11-11T09:40:56Z",
            "transactionFee": "0.012731453853211666",
            "txnHash": "0xff3e3458c56f897905f4aede7a3cd26a09604ec565d2c884683456c5032a7534",
            "txnIndex": 399,
            "type": 2,
            "value": "0"
        },
        "fund_flow": [
            {
                "amount": "1",
                "from": "0x0000000000000000000000000000000000000000",
                "id": 1,
                "isERC1155": true,
                "isERC721": false,
                "isReverted": false,
                "order": 1,
                "to": "0x5efdb6d8c798c2c2bea5b1961982a5944f92a5c1",
                "token": "0x92594d0f692fc2b25a8030573f3ff10abf034bdb",
                "tokenID": "8"
            }
        ],
        "token_infos": [
            {
                "address": "0xeeeeeeeeeeeeeeeeeeeeeeeeeeeeeeeeeeeeeeee",
                "decimals": 18
            },
            {
                "address": "0xc02aaa39b223fe8d0a0e5c4f27ead9083c756cc2",
                "decimals": 18
            }
        ]
    },
    "address_label": {
        "labels": [
            {
                "address": "0xeeeeeeeeeeeeeeeeeeeeeeeeeeeeeeeeeeeeeeee",
                "label": "Ether"
            },
            {
                "address": "0x92594d0f692fc2b25a8030573f3ff10abf034bdb",
                "label": "ShroomHeads"
            },
            {
                "address": "0x0000000000000000000000000000000000000001",
                "label": "Precompiled"
            },
            {
                "address": "0x0000000000000000000000000000000000000002",
                "label": "Precompiled"
            },
            {
                "address": "0x0000000000000000000000000000000000000003",
                "label": "Precompiled"
            },
            {
                "address": "0x0000000000000000000000000000000000000004",
                "label": "Precompiled"
            }
        ]
    },
    "trace": {
        "accountLabels": null,
        "dataMap": {
            "-1": {
                "invocation": {
                    "address": "0x5b1e4a8cbb5509dc45ee7591d58dcf059ce8c828",
                    "callData": "",
                    "decodedMethod": null,
                    "errorInfo": "",
                    "fromAddress": "",
                    "gasUsed": 0,
                    "id": -1,
                    "methodDecoded": false,
                    "operation": "",
                    "output": "",
                    "revert": false,
                    "revertMessage": "",
                    "selector": "",
                    "status": false,
                    "value": ""
                },
                "nodeType": 0
            },
            "0": {
                "invocation": {
                    "address": "0x92594d0f692fc2b25a8030573f3ff10abf034bdb",
                    "callData": "0x0000000000000000000000005efdb6d8c798c2c2bea5b1961982a5944f92a5c100000000000000000000000000000000000000000000000000000000000000080000000000000000000000000000000000000000000000000000000000000001",
                    "decodedMethod": {
                        "callParams": [
                            {
                                "name": "to",
                                "type": "address",
                                "value": "0x5efdb6d8c798c2c2bea5b1961982a5944f92a5c1"
                            },
                            {
                                "name": "tokenId",
                                "type": "uint256",
                                "value": "8"
                            },
                            {
                                "name": "amount",
                                "type": "uint256",
                                "value": "1"
                            }
                        ],
                        "constructorArguments": "",
                        "name": "airdrop",
                        "returnParams": [],
                        "signature": "airdrop(address,uint256,uint256)"
                    },
                    "errorInfo": "",
                    "fromAddress": "0x5b1e4a8cbb5509dc45ee7591d58dcf059ce8c828",
                    "gasUsed": 79771,
                    "id": 0,
                    "methodDecoded": true,
                    "operation": "CALL",
                    "output": "",
                    "revert": false,
                    "revertMessage": "",
                    "selector": "0xe1bc2967",
                    "status": true,
                    "value": "0"
                },
                "nodeType": 0
            },
            "1": {
                "event": {
                    "contract": "0x92594d0f692fc2b25a8030573f3ff10abf034bdb",
                    "decodedLog": {
                        "name": "TransferSingle",
                        "params": [
                            {
                                "name": "operator",
                                "type": "address",
                                "value": "0x5b1e4a8cbb5509dc45ee7591d58dcf059ce8c828"
                            },
                            {
                                "name": "from",
                                "type": "address",
                                "value": "0x0000000000000000000000000000000000000000"
                            },
                            {
                                "name": "to",
                                "type": "address",
                                "value": "0x5efdb6d8c798c2c2bea5b1961982a5944f92a5c1"
                            },
                            {
                                "name": "id",
                                "type": "uint256",
                                "value": "8"
                            },
                            {
                                "name": "value",
                                "type": "uint256",
                                "value": "1"
                            }
                        ],
                        "signature": "TransferSingle(address,address,address,uint256,uint256)"
                    },
                    "id": 1,
                    "logData": "0x00000000000000000000000000000000000000000000000000000000000000080000000000000000000000000000000000000000000000000000000000000001",
                    "logDecoded": true,
                    "operation": "EVENT",
                    "revert": false,
                    "status": true,
                    "topics": [
                        "0xc3d58168c5ae7397731d063d5bbf3d657854427343f4c083240f7aacaa2d0f62",
                        "0x0000000000000000000000005b1e4a8cbb5509dc45ee7591d58dcf059ce8c828",
                        "0x0000000000000000000000000000000000000000000000000000000000000000",
                        "0x0000000000000000000000005efdb6d8c798c2c2bea5b1961982a5944f92a5c1"
                    ]
                },
                "nodeType": 1
            }
        },
        "gasFlame": [
            {
                "children": [
                    {
                        "children": [
                            {
                                "children": [],
                                "depth": 0,
                                "name": "Initial Gas",
                                "value": 21712
                            },
                            {
                                "children": [],
                                "depth": 0,
                                "name": "Executed Gas",
                                "value": 58059
                            }
                        ],
                        "depth": -1,
                        "name": "Actual Gas Used",
                        "value": 79771
                    },
                    {
                        "children": [],
                        "depth": -1,
                        "name": "Refunded Gas",
                        "value": 0
                    }
                ],
                "depth": -2,
                "name": "Total Gas",
                "value": 79771
            }
        ],
        "isConfirmed": true,
        "mainTrace": [
            {
                "children": [
                    {
                        "children": [
                            {
                                "children": [],
                                "depth": 1,
                                "id": 1,
                                "order": 1
                            }
                        ],
                        "depth": 0,
                        "id": 0,
                        "order": 0
                    }
                ],
                "depth": -1,
                "id": -1,
                "order": -1
            }
        ],
        "mainTraceNodeCount": 2,
        "parentIdMap": {
            "0": -1,
            "1": 0
        },
        "tidyTrace": [
            {
                "children": [
                    {
                        "children": [
                            {
                                "children": [],
                                "depth": 1,
                                "id": 1,
                                "order": 1
                            }
                        ],
                        "depth": 0,
                        "id": 0,
                        "order": 0
                    }
                ],
                "depth": -1,
                "id": -1,
                "order": -1
            }
        ],
        "tidyTraceNodeCount": 2
    },
    "state_change": {
        "stateChanges": [
            {
                "address": "0x92594d0f692fc2b25a8030573f3ff10abf034bdb",
                "erc": "ERC-1155",
                "slots": [
                    {
                        "current": "0x0000000000000000000000000000000000000000000000000000000000000001",
                        "key": "0x596804f28bb471b187359d2f8b6e53042906710a93bc8f5b0e44ca4f1da0d9dc",
                        "prev": "0x0000000000000000000000000000000000000000000000000000000000000000"
                    },
                    {
                        "current": "0x0000000000000000000000000000000000000000000000000000000000000001",
                        "key": "0xfb33122aa9f93cc639ebe80a7bc4784c11e6053dde89c6f4f7e268c6a623da1e",
                        "prev": "0x0000000000000000000000000000000000000000000000000000000000000000"
                    }
                ],
                "storageVariables": [
                    {
                        "name": "_balances",
                        "type": "mapping(uint256 => mapping(address => uint256))",
                        "value": {
                            "pairs": [
                                {
                                    "key": "8",
                                    "value": {
                                        "pairs": [
                                            {
                                                "key": "0x5efdb6d8c798c2c2bea5b1961982a5944f92a5c1",
                                                "value": {
                                                    "current": "1",
                                                    "prev": "0",
                                                    "typeTag": 1
                                                }
                                            }
                                        ],
                                        "typeTag": 4
                                    }
                                }
                            ],
                            "typeTag": 4
                        }
                    },
                    {
                        "name": "_totalSupply",
                        "type": "mapping(uint256 => uint256)",
                        "value": {
                            "pairs": [
                                {
                                    "key": "8",
                                    "value": {
                                        "current": "1",
                                        "prev": "0",
                                        "typeTag": 1
                                    }
                                }
                            ],
                            "typeTag": 4
                        }
                    }
                ]
            }
        ]
    }
}