{
    "balance_change": {
        "balanceChanges": [
            {
                "account": "0x5f9335970ba921bae073546038f1373571f5ce6c",
                "assets": [
                    {
                        "address": "0x5edc1a266e8b2c5e8086d373725df0690af7e3ea",
                        "amount": "52.4",
                        "iconUrl": "",
                        "isERC1155": false,
                        "isERC721": false,
                        "sign": true,
                        "value": ""
                    },
                    {
                        "address": "0x7c5cb1220bd293ff9cf903915732e51a71292038",
                        "amount": "7,860",
                        "iconUrl": "",
                        "isERC1155": false,
                        "isERC721": false,
                        "sign": false,
                        "value": ""
                    }
                ]
            },
            {
                "account": "0x7c5cb1220bd293ff9cf903915732e51a71292038",
                "assets": [
                    {
                        "address": "0x5edc1a266e8b2c5e8086d373725df0690af7e3ea",
                        "amount": "52.4",
                        "iconUrl": "",
                        "isERC1155": false,
                        "isERC721": false,
                        "sign": false,
                        "value": ""
                    }
                ]
            },
            {
                "account": "0x589176dfd8e9ba0bd46987afa995df15a15f1cc6",
                "assets": [
                    {
                        "address": "0x7c5cb1220bd293ff9cf903915732e51a71292038",
                        "amount": "7,860",
                        "iconUrl": "",
                        "isERC1155": false,
                        "isERC721": false,
                        "sign": true,
                        "value": ""
                    }
                ]
            }
        ]
    },
    "profile": {
        "basic_info": {
            "baseFee": "",
            "blockNumber": 7759154,
            "callData": "0xa9059cbb0000000000000000000000008c1444f0da15c379d4dc7d12ee8ea617ebcafad40000000000000000000000000000000000000000000001aa176983ef6a500000",
            "debugEnable": true,
            "errorInfo": "",
            "eventCount": 2,
            "feeRecipient": "0x06b8c5883ec71bc3f4b332081519f23834c8706e",
            "formatValue": "0",
            "gasLimit": 250000,
            "gasPrice": "10",
            "gasUsed": 218060,
            "intTxnCount": 1,
            "internalRevert": false,
            "internalRevertMessage": "",
            "isContractCreation": false,
            "isFlashloan": false,
            "maxFee": "",
            "nonce": 0,
            "overwritedBlockNumber": -1,
            "priorityFee": "",
            "receiver": "0x7c5cb1220bd293ff9cf903915732e51a71292038",
            "revertMessage": "",
            "sender": "0x5f9335970ba921bae073546038f1373571f5ce6c",
            "simulationEnable": true,
            "sourceTxnHash": "0xff805cd31797f4a33a5e4d4a400beeb6b3c72f927ebca293ad4570328329480c",
            "status": true,
            "timestamp": "2019-05-14T15:04:16Z",
            "transactionFee": "0.0021806",
            "txnHash": "0xff805cd31797f4a33a5e4d4a400beeb6b3c72f927ebca293ad4570328329480c",
            "txnIndex": 63,
            "type": 0,
            "value": "0"
        },
        "fund_flow": [
            {
                "amount": "52.4",
                "from": "0x7c5cb1220bd293ff9cf903915732e51a71292038",
                "id": 1,
                "isERC1155": false,
                "isERC721": false,
                "isReverted": false,
                "order": 1,
                "to": "0x5f9335970ba921bae073546038f1373571f5ce6c",
                "token": "0x5edc1a266e8b2c5e8086d373725df0690af7e3ea"
            },
            {
                "amount": "7,860",
                "from": "0x5f9335970ba921bae073546038f1373571f5ce6c",
                "id": 2,
                "isERC1155": false,
                "isERC721": false,
                "isReverted": false,
                "order": 2,
                "to": "0x589176dfd8e9ba0bd46987afa995df15a15f1cc6",
                "token": "0x7c5cb1220bd293ff9cf903915732e51a71292038"
            }
        ],
        "token_infos": [
            {
                "address": "0x5edc1a266e8b2c5e8086d373725df0690af7e3ea",
                "decimals": 18
            },
            {
                "address": "0x7c5cb1220bd293ff9cf903915732e51a71292038",
                "decimals": 18
            },
            {
                "address": "0xc02aaa39b223fe8d0a0e5c4f27ead9083c756cc2",
                "decimals": 18
            },
            {
                "address": "0xeeeeeeeeeeeeeeeeeeeeeeeeeeeeeeeeeeeeeeee",
                "decimals": 18
            }
        ]
    },
    "address_label": {
        "labels": [
            {
                "address": "0x5edc1a266e8b2c5e8086d373725df0690af7e3ea",
                "label": "Yotta Coin"
            },
            {
                "address": "0x7c5cb1220bd293ff9cf903915732e51a71292038",
                "label": "YottaLing (YTL)"
            },
            {
                "address": "0x0000000000000000000000000000000000000001",
                "label": "Precompiled"
            },
            {
                "address": "0x0000000000000000000000000000000000000002",
                "label": "Precompiled"
            },
            {
                "address": "0x0000000000000000000000000000000000000003",
                "label": "Precompiled"
            },
            {
                "address": "0x0000000000000000000000000000000000000004",
                "label": "Precompiled"
            },
            {
                "address": "0xeeeeeeeeeeeeeeeeeeeeeeeeeeeeeeeeeeeeeeee",
                "label": "Ether"
            }
        ]
    },
    "trace": {
        "accountLabels": null,
        "dataMap": {
            "-1": {
                "invocation": {
                    "address": "0x5f9335970ba921bae073546038f1373571f5ce6c",
                    "callData": "",
                    "decodedMethod": null,
                    "errorInfo": "",
                    "fromAddress": "",
                    "gasUsed": 0,
                    "id": -1,
                    "methodDecoded": false,
                    "operation": "",
                    "output": "",
                    "revert": false,
                    "revertMessage": "",
                    "selector": "",
                    "status": false,
                    "value": ""
                },
                "nodeType": 0
            },
            "0": {
                "invocation": {
                    "address": "0x7c5cb1220bd293ff9cf903915732e51a71292038",
                    "callData": "0x0000000000000000000000008c1444f0da15c379d4dc7d12ee8ea617ebcafad40000000000000000000000000000000000000000000001aa176983ef6a500000",
                    "decodedMethod": {
                        "callParams": [
                            {
                                "name": "recipient",
                                "type": "address",
                                "value": "0x8c1444f0da15c379d4dc7d12ee8ea617ebcafad4"
                            },
                            {
                                "decimalAvailable": true,
                                "name": "amount",
                                "type": "uint256",
                                "value": "7,860,000,000,000,000,000,000"
                            }
                        ],
                        "constructorArguments": "",
                        "name": "transfer",
                        "returnParams": [
                            {
                                "name": "",
                                "type": "bool",
                                "value": true
                            }
                        ],
                        "signature": "transfer(address,uint256)"
                    },
                    "errorInfo": "",
                    "fromAddress": "0x5f9335970ba921bae073546038f1373571f5ce6c",
                    "gasUsed": 218060,
                    "id": 0,
                    "methodDecoded": true,
                    "operation": "CALL",
                    "output": "0x0000000000000000000000000000000000000000000000000000000000000001",
                    "revert": false,
                    "revertMessage": "",
                    "selector": "0xa9059cbb",
                    "status": true,
                    "value": "0"
                },
                "nodeType": 0
            },
            "1": {
                "invocation": {
                    "address": "0x5edc1a266e8b2c5e8086d373725df0690af7e3ea",
                    "callData": "0x0000000000000000000000005f9335970ba921bae073546038f1373571f5ce6c000000000000000000000000000000000000000000000002d732325f76780000",
                    "decodedMethod": {
                        "callParams": [
                            {
                                "name": "_to",
                                "type": "address",
                                "value": "0x5f9335970ba921bae073546038f1373571f5ce6c"
                            },
                            {
                                "name": "_value",
                                "type": "uint256",
                                "value": "52,400,000,000,000,000,000"
                            }
                        ],
                        "constructorArguments": "",
                        "name": "transferfix",
                        "returnParams": [],
                        "signature": "transferfix(address,uint256)"
                    },
                    "errorInfo": "",
                    "fromAddress": "0x7c5cb1220bd293ff9cf903915732e51a71292038",
                    "gasUsed": 192441,
                    "id": 1,
                    "methodDecoded": true,
                    "operation": "CALL",
                    "output": "",
                    "revert": false,
                    "revertMessage": "",
                    "selector": "0xd54c8a56",
                    "status": true,
                    "value": "0"
                },
                "nodeType": 0
            },
            "2": {
                "event": {
                    "contract": "0x5edc1a266e8b2c5e8086d373725df0690af7e3ea",
                    "decodedLog": {
                        "name": "Transfer",
                        "params": [
                            {
                                "name": "from",
                                "type": "address",
                                "value": "0x7c5cb1220bd293ff9cf903915732e51a71292038"
                            },
                            {
                                "name": "to",
                                "type": "address",
                                "value": "0x5f9335970ba921bae073546038f1373571f5ce6c"
                            },
                            {
                                "decimalAvailable": true,
                                "name": "value",
                                "type": "uint256",
                                "value": "52,400,000,000,000,000,000"
                            }
                        ],
                        "signature": "Transfer(address,address,uint256)"
                    },
                    "id": 2,
                    "logData": "0x000000000000000000000000000000000000000000000002d732325f76780000",
                    "logDecoded": true,
                    "operation": "EVENT",
                    "revert": false,
                    "status": true,
                    "topics": [
                        "0xddf252ad1be2c89b69c2b068fc378daa952ba7f163c4a11628f55a4df523b3ef",
                        "0x0000000000000000000000007c5cb1220bd293ff9cf903915732e51a71292038",
                        "0x0000000000000000000000005f9335970ba921bae073546038f1373571f5ce6c"
                    ]
                },
                "nodeType": 1
            },
            "3": {
                "event": {
                    "contract": "0x7c5cb1220bd293ff9cf903915732e51a71292038",
                    "decodedLog": {
                        "name": "Transfer",
                        "params": [
                            {
                                "name": "from",
                                "type": "address",
                                "value": "0x5f9335970ba921bae073546038f1373571f5ce6c"
                            },
                            {
                                "name": "to",
                                "type": "address",
                                "value": "0x589176dfd8e9ba0bd46987afa995df15a15f1cc6"
                            },
                            {
                                "decimalAvailable": true,
                                "name": "value",
                                "type": "uint256",
                                "value": "7,860,000,000,000,000,000,000"
                            }
                        ],
                        "signature": "Transfer(address,address,uint256)"
                    },
                    "id": 3,
                    "logData": "0x0000000000000000000000000000000000000000000001aa176983ef6a500000",
                    "logDecoded": true,
                    "operation": "EVENT",
                    "revert": false,
                    "status": true,
                    "topics": [
                        "0xddf252ad1be2c89b69c2b068fc378daa952ba7f163c4a11628f55a4df523b3ef",
                        "0x0000000000000000000000005f9335970ba921bae073546038f1373571f5ce6c",
                        "0x000000000000000000000000589176dfd8e9ba0bd46987afa995df15a15f1cc6"
                    ]
                },
                "nodeType": 1
            }
        },
        "gasFlame": [
            {
                "children": [
                    {
                        "children": [
                            {
                                "children": [],
                                "depth": 0,
                                "name": "Initial Gas",
                                "value": 23320
                            },
                            {
                                "children": [
                                    {
                                        "children": [],
                                        "depth": 1,
                                        "name": "transferfix",
                                        "value": 192441
                                    }
                                ],
                                "depth": 0,
                                "name": "Executed Gas",
                                "value": 209740
                            }
                        ],
                        "depth": -1,
                        "name": "Actual Gas Used",
                        "value": 218060
                    },
                    {
                        "children": [],
                        "depth": -1,
                        "name": "Refunded Gas",
                        "value": 15000
                    }
                ],
                "depth": -2,
                "name": "Total Gas",
                "value": 233060
            }
        ],
        "isConfirmed": true,
        "mainTrace": [
            {
                "children": [
                    {
                        "children": [
                            {
                                "children": [
                                    {
                                        "children": [],
                                        "depth": 2,
                                        "id": 2,
                                        "order": 2
                                    }
                                ],
                                "depth": 1,
                                "id": 1,
                                "order": 1
                            },
                            {
                                "children": [],
                                "depth": 1,
                                "id": 3,
                                "order": 3
                            }
                        ],
                        "depth": 0,
                        "id": 0,
                        "order": 0
                    }
                ],
                "depth": -1,
                "id": -1,
                "order": -1
            }
        ],
        "mainTraceNodeCount": 4,
        "parentIdMap": {
            "0": -1,
            "1": 0,
            "2": 1,
            "3": 0
        },
        "tidyTrace": [
            {
                "children": [
                    {
                        "children": [
                            {
                                "children": [
                                    {
                                        "children": [],
                                        "depth": 2,
                                        "id": 2,
                                        "order": 2
                                    }
                                ],
                                "depth": 1,
                                "id": 1,
                                "order": 1
                            },
                            {
                                "children": [],
                                "depth": 1,
                                "id": 3,
                                "order": 3
                            }
                        ],
                        "depth": 0,
                        "id": 0,
                        "order": 0
                    }
                ],
                "depth": -1,
                "id": -1,
                "order": -1
            }
        ],
        "tidyTraceNodeCount": 4
    },
    "state_change": {
        "stateChanges": [
            {
                "address": "0x5edc1a266e8b2c5e8086d373725df0690af7e3ea",
                "erc": "ERC-20",
                "slots": [
                    {
                        "current": "0x000000000000000000000000000000000000000000000002d732325f76780000",
                        "key": "0x23ccd2e088665f4b2a70981e9d8a0b9c79d074f2d73a0e0db74e0ca0f846dc5d",
                        "prev": "0x0000000000000000000000000000000000000000000000000000000000000000"
                    },
                    {
                        "current": "0x0000000000000000000000000000000000000000000035ac6ec5659dd7007a7d",
                        "key": "0xb21bec81e463adedbc5bfe1d6694dc11c51859c58a7455790b3bbf730039d414",
                        "prev": "0x0000000000000000000000000000000000000000000035af45f797fd4d787a7d"
                    },
                    {
                        "current": "0x000000000000000000000000000000000000000000000002d732325f76780000",
                        "key": "0xed47f22c2af46d2f9a55184b28a7aedad63ef29ea7156a41a2dcf3cce6ed3750",
                        "prev": "0x0000000000000000000000000000000000000000000000000000000000000000"
                    }
                ],
                "storageVariables": [
                    {
                        "name": "validator",
                        "type": "struct FrozenValidator.Validator",
                        "value": {
                            "fields": [
                                {
                                    "name": "data",
                                    "type": "mapping(address => struct FrozenValidator.IndexValue)",
                                    "value": {
                                        "pairs": [
                                            {
                                                "key": "0x7c5cb1220bd293ff9cf903915732e51a71292038",
                                                "value": {
                                                    "fields": [
                                                        {
                                                            "name": "frozenBalances",
                                                            "type": "mapping(address => uint256)",
                                                            "value": {
                                                                "pairs": [
                                                                    {
                                                                        "key": "0x5f9335970ba921bae073546038f1373571f5ce6c",
                                                                        "value": {
                                                                            "current": "52400000000000000000",
                                                                            "prev": "0",
                                                                            "typeTag": 1
                                                                        }
                                                                    }
                                                                ],
                                                                "typeTag": 4
                                                            }
                                                        }
                                                    ],
                                                    "typeTag": 3
                                                }
                                            }
                                        ],
                                        "typeTag": 4
                                    }
                                }
                            ],
                            "typeTag": 3
                        }
                    },
                    {
                        "name": "balances",
                        "type": "mapping(address => uint256)",
                        "value": {
                            "pairs": [
                                {
                                    "key": "0x5f9335970ba921bae073546038f1373571f5ce6c",
                                    "value": {
                                        "current": "52400000000000000000",
                                        "prev": "0",
                                        "typeTag": 1
                                    }
                                },
                                {
                                    "key": "0x7c5cb1220bd293ff9cf903915732e51a71292038",
                                    "value": {
                                        "current": "253466245470412414679677",
                                        "prev": "253518645470412414679677",
                                        "typeTag": 1
                                    }
                                }
                            ],
                            "typeTag": 4
                        }
                    }
                ]
            },
            {
                "address": "0x7c5cb1220bd293ff9cf903915732e51a71292038",
                "erc": "",
                "slots": [
                    {
                        "current": "0x0000000000000000000000000000000000000000000000000000000000000000",
                        "key": "0xed47f22c2af46d2f9a55184b28a7aedad63ef29ea7156a41a2dcf3cce6ed3750",
                        "prev": "0x0000000000000000000000000000000000000000000001aa176983ef6a500000"
                    },
                    {
                        "current": "0x000000000000000000000000000000000000000095284b81895d9a1b7dd60200",
                        "key": "0x29dbce16fc0f3021b79c802427c61510ef8d251fa3dca28f07edb368e16dcda2",
                        "prev": "0x0000000000000000000000000000000000000000952849d771f4162c13860200"
                    }
                ],
                "storageVariables": []
            }
        ]
    }
}