{
    "balance_change": {
        "balanceChanges": [
            {
                "account": "0x167a9333bf582556f35bd4d16a7e80e191aa6476",
                "assets": [
                    {
                        "address": "0x9a642d6b3368ddc662ca244badf32cda716005bc",
                        "amount": "1",
                        "iconUrl": "",
                        "isERC1155": false,
                        "isERC721": false,
                        "sign": false,
                        "value": ""
                    }
                ]
            },
            {
                "account": "0x7cbf29d9a5446a5bab5896ea7ccf6b0e788f8603",
                "assets": [
                    {
                        "address": "0x9a642d6b3368ddc662ca244badf32cda716005bc",
                        "amount": "1",
                        "iconUrl": "",
                        "isERC1155": false,
                        "isERC721": false,
                        "sign": true,
                        "value": ""
                    }
                ]
            }
        ]
    },
    "profile": {
        "basic_info": {
            "baseFee": "",
            "blockNumber": 4337657,
            "callData": "0xa9059cbb0000000000000000000000007cbf29d9a5446a5bab5896ea7ccf6b0e788f86030000000000000000000000000000000000000000000000000de0b6b3a7640000",
            "debugEnable": true,
            "errorInfo": "",
            "eventCount": 1,
            "feeRecipient": "0x829bd824b016326a401d083b33d092293333a830",
            "formatValue": "0",
            "gasLimit": 80000,
            "gasPrice": "21",
            "gasUsed": 51475,
            "intTxnCount": 0,
            "internalRevert": false,
            "internalRevertMessage": "",
            "isContractCreation": false,
            "isFlashloan": false,
            "maxFee": "",
            "nonce": 100087,
            "overwritedBlockNumber": -1,
            "priorityFee": "",
            "receiver": "0x9a642d6b3368ddc662ca244badf32cda716005bc",
            "revertMessage": "",
            "sender": "0x167a9333bf582556f35bd4d16a7e80e191aa6476",
            "simulationEnable": true,
            "sourceTxnHash": "0xffeaba63ec1191e44e6c0745d2a1dbc76a8957300263bf542925acef28fb0484",
            "status": true,
            "timestamp": "2017-10-05T01:06:51Z",
            "transactionFee": "0.001080975",
            "txnHash": "0xffeaba63ec1191e44e6c0745d2a1dbc76a8957300263bf542925acef28fb0484",
            "txnIndex": 131,
            "type": 0,
            "value": "0"
        },
        "fund_flow": [
            {
                "amount": "1",
                "from": "0x167a9333bf582556f35bd4d16a7e80e191aa6476",
                "id": 1,
                "isERC1155": false,
                "isERC721": false,
                "isReverted": false,
                "order": 1,
                "to": "0x7cbf29d9a5446a5bab5896ea7ccf6b0e788f8603",
                "token": "0x9a642d6b3368ddc662ca244badf32cda716005bc"
            }
        ],
        "token_infos": [
            {
                "address": "0x9a642d6b3368ddc662ca244badf32cda716005bc",
                "decimals": 18
            },
            {
                "address": "0xc02aaa39b223fe8d0a0e5c4f27ead9083c756cc2",
                "decimals": 18
            },
            {
                "address": "0xeeeeeeeeeeeeeeeeeeeeeeeeeeeeeeeeeeeeeeee",
                "decimals": 18
            }
        ]
    },
    "address_label": {
        "labels": [
            {
                "address": "0x0000000000000000000000000000000000000002",
                "label": "Precompiled"
            },
            {
                "address": "0x0000000000000000000000000000000000000003",
                "label": "Precompiled"
            },
            {
                "address": "0x0000000000000000000000000000000000000004",
                "label": "Precompiled"
            },
            {
                "address": "0xeeeeeeeeeeeeeeeeeeeeeeeeeeeeeeeeeeeeeeee",
                "label": "Ether"
            },
            {
                "address": "0x9a642d6b3368ddc662ca244badf32cda716005bc",
                "label": "Qtum Token"
            },
            {
                "address": "0x167a9333bf582556f35bd4d16a7e80e191aa6476",
                "label": "Coinone"
            },
            {
                "address": "0x0000000000000000000000000000000000000001",
                "label": "Precompiled"
            }
        ]
    },
    "trace": {
        "accountLabels": null,
        "dataMap": {
            "-1": {
                "invocation": {
                    "address": "0x167a9333bf582556f35bd4d16a7e80e191aa6476",
                    "callData": "",
                    "decodedMethod": null,
                    "errorInfo": "",
                    "fromAddress": "",
                    "gasUsed": 0,
                    "id": -1,
                    "methodDecoded": false,
                    "operation": "",
                    "output": "",
                    "revert": false,
                    "revertMessage": "",
                    "selector": "",
                    "status": false,
                    "value": ""
                },
                "nodeType": 0
            },
            "0": {
                "invocation": {
                    "address": "0x9a642d6b3368ddc662ca244badf32cda716005bc",
                    "callData": "0x0000000000000000000000007cbf29d9a5446a5bab5896ea7ccf6b0e788f86030000000000000000000000000000000000000000000000000de0b6b3a7640000",
                    "decodedMethod": {
                        "callParams": [
                            {
                                "name": "_to",
                                "type": "address",
                                "value": "0x7cbf29d9a5446a5bab5896ea7ccf6b0e788f8603"
                            },
                            {
                                "decimalAvailable": true,
                                "name": "_value",
                                "type": "uint256",
                                "value": "1,000,000,000,000,000,000"
                            }
                        ],
                        "constructorArguments": "",
                        "name": "transfer",
                        "returnParams": [
                            {
                                "name": "success",
                                "type": "bool",
                                "value": true
                            }
                        ],
                        "signature": "transfer(address,uint256)"
                    },
                    "errorInfo": "",
                    "fromAddress": "0x167a9333bf582556f35bd4d16a7e80e191aa6476",
                    "gasUsed": 51475,
                    "id": 0,
                    "methodDecoded": true,
                    "operation": "CALL",
                    "output": "0x0000000000000000000000000000000000000000000000000000000000000001",
                    "revert": false,
                    "revertMessage": "",
                    "selector": "0xa9059cbb",
                    "status": true,
                    "value": "0"
                },
                "nodeType": 0
            },
            "1": {
                "event": {
                    "contract": "0x9a642d6b3368ddc662ca244badf32cda716005bc",
                    "decodedLog": {
                        "name": "Transfer",
                        "params": [
                            {
                                "name": "_from",
                                "type": "address",
                                "value": "0x167a9333bf582556f35bd4d16a7e80e191aa6476"
                            },
                            {
                                "name": "_to",
                                "type": "address",
                                "value": "0x7cbf29d9a5446a5bab5896ea7ccf6b0e788f8603"
                            },
                            {
                                "decimalAvailable": true,
                                "name": "_value",
                                "type": "uint256",
                                "value": "1,000,000,000,000,000,000"
                            }
                        ],
                        "signature": "Transfer(address,address,uint256)"
                    },
                    "id": 1,
                    "logData": "0x0000000000000000000000000000000000000000000000000de0b6b3a7640000",
                    "logDecoded": true,
                    "operation": "EVENT",
                    "revert": false,
                    "status": true,
                    "topics": [
                        "0xddf252ad1be2c89b69c2b068fc378daa952ba7f163c4a11628f55a4df523b3ef",
                        "0x000000000000000000000000167a9333bf582556f35bd4d16a7e80e191aa6476",
                        "0x0000000000000000000000007cbf29d9a5446a5bab5896ea7ccf6b0e788f8603"
                    ]
                },
                "nodeType": 1
            }
        },
        "gasFlame": [
            {
                "children": [
                    {
                        "children": [
                            {
                                "children": [],
                                "depth": 0,
                                "name": "Initial Gas",
                                "value": 23192
                            },
                            {
                                "children": [],
                                "depth": 0,
                                "name": "Executed Gas",
                                "value": 28283
                            }
                        ],
                        "depth": -1,
                        "name": "Actual Gas Used",
                        "value": 51475
                    },
                    {
                        "children": [],
                        "depth": -1,
                        "name": "Refunded Gas",
                        "value": 0
                    }
                ],
                "depth": -2,
                "name": "Total Gas",
                "value": 51475
            }
        ],
        "isConfirmed": true,
        "mainTrace": [
            {
                "children": [
                    {
                        "children": [
                            {
                                "children": [],
                                "depth": 1,
                                "id": 1,
                                "order": 1
                            }
                        ],
                        "depth": 0,
                        "id": 0,
                        "order": 0
                    }
                ],
                "depth": -1,
                "id": -1,
                "order": -1
            }
        ],
        "mainTraceNodeCount": 2,
        "parentIdMap": {
            "0": -1,
            "1": 0
        },
        "tidyTrace": [
            {
                "children": [
                    {
                        "children": [
                            {
                                "children": [],
                                "depth": 1,
                                "id": 1,
                                "order": 1
                            }
                        ],
                        "depth": 0,
                        "id": 0,
                        "order": 0
                    }
                ],
                "depth": -1,
                "id": -1,
                "order": -1
            }
        ],
        "tidyTraceNodeCount": 2
    },
    "state_change": {
        "stateChanges": [
            {
                "address": "0x9a642d6b3368ddc662ca244badf32cda716005bc",
                "erc": "ERC-20",
                "slots": [
                    {
                        "current": "0x0000000000000000000000000000000000000000000b734b1d5197ab2cb41c66",
                        "key": "0x3c679b0666c8993bc8cae81ac8e58e1779fa24110d2e6f49a9722a00ca1bf317",
                        "prev": "0x0000000000000000000000000000000000000000000b734b2b324e5ed4181c66"
                    },
                    {
                        "current": "0x0000000000000000000000000000000000000000000000000de0b6b3a7640000",
                        "key": "0x66161185fec1ff72278cc9034a8c0e05a8a63831a1af8079e84055b3d181d17b",
                        "prev": "0x0000000000000000000000000000000000000000000000000000000000000000"
                    }
                ],
                "storageVariables": []
            }
        ]
    }
}