{
    "balance_change": {
        "balanceChanges": []
    },
    "profile": {
        "basic_info": {
            "baseFee": "",
            "blockNumber": 6500997,
            "callData": "0x6488733400000000000000000000000000000000000000000000000000000000000000800000000000000000000000000000000000000000000000000000000000000100000000000000000000000000000000000000000000000000000000000063328300000000000000000000000000000000000000000000000000000000000001800000000000000000000000000000000000000000000000000000000000000003dc53d4abc4d6f5bfc02d52ff0cd6000000000000000000000000000000000000ccfb00c6024ce607652e2c5c08320000000000000000000000000000000000000808e0e42e3521c1edecf2b31bf600000000000000000000000000000000000000000000000000000000000000000000000000000000000000000000000000032cba315a40290a4a44dadb04f43200000000000000000000000000000000000039010040ffbf1cfdb4ded2affbd2000000000000000000000000000000000000f9fc2a1ed8d3e64316191253ed050000000000000000000000000000000000000000000000000000000000000000000000000000000000000000000000000003000000000000000000000000000000000000000000000000000000000000000100000000000000000000000000000000000000000000000000000000000000000000000000000000000000000000000000000000000000000000000000000002",
            "debugEnable": true,
            "errorInfo": "",
            "eventCount": 0,
            "feeRecipient": "0x52bc44d5378309ee2abf1539bf71de1b7d7be3b5",
            "formatValue": "0",
            "gasLimit": 98480,
            "gasPrice": "3.1",
            "gasUsed": 48480,
            "intTxnCount": 0,
            "internalRevert": false,
            "internalRevertMessage": "",
            "isContractCreation": false,
            "isFlashloan": false,
            "maxFee": "",
            "nonce": 178088,
            "overwritedBlockNumber": -1,
            "priorityFee": "",
            "receiver": "0x798abda6cc246d0edba912092a2a3dbd3d11191b",
            "revertMessage": "",
            "sender": "0x8bc3da587def887b5c822105729ee1d6af05a5ca",
            "simulationEnable": true,
            "sourceTxnHash": "0xffde28518e2ce85ff7fc972959923ffdde6cf43933d6ac83c842089122346beb",
            "status": true,
            "timestamp": "2018-10-12T11:42:50Z",
            "transactionFee": "0.000150288",
            "txnHash": "0xffde28518e2ce85ff7fc972959923ffdde6cf43933d6ac83c842089122346beb",
            "txnIndex": 32,
            "type": 0,
            "value": "0"
        },
        "fund_flow": [],
        "token_infos": [
            {
                "address": "0xc02aaa39b223fe8d0a0e5c4f27ead9083c756cc2",
                "decimals": 18
            },
            {
                "address": "0xeeeeeeeeeeeeeeeeeeeeeeeeeeeeeeeeeeeeeeee",
                "decimals": 18
            }
        ]
    },
    "address_label": {
        "labels": [
            {
                "address": "0xeeeeeeeeeeeeeeeeeeeeeeeeeeeeeeeeeeeeeeee",
                "label": "Ether"
            },
            {
                "address": "0x798abda6cc246d0edba912092a2a3dbd3d11191b",
                "label": "Kyber: Conversion Rates"
            },
            {
                "address": "0x0000000000000000000000000000000000000001",
                "label": "Precompiled"
            },
            {
                "address": "0x0000000000000000000000000000000000000002",
                "label": "Precompiled"
            },
            {
                "address": "0x0000000000000000000000000000000000000003",
                "label": "Precompiled"
            },
            {
                "address": "0x0000000000000000000000000000000000000004",
                "label": "Precompiled"
            }
        ]
    },
    "trace": {
        "accountLabels": null,
        "dataMap": {
            "-1": {
                "invocation": {
                    "address": "0x8bc3da587def887b5c822105729ee1d6af05a5ca",
                    "callData": "",
                    "decodedMethod": null,
                    "errorInfo": "",
                    "fromAddress": "",
                    "gasUsed": 0,
                    "id": -1,
                    "methodDecoded": false,
                    "operation": "",
                    "output": "",
                    "revert": false,
                    "revertMessage": "",
                    "selector": "",
                    "status": false,
                    "value": ""
                },
                "nodeType": 0
            },
            "0": {
                "invocation": {
                    "address": "0x798abda6cc246d0edba912092a2a3dbd3d11191b",
                    "callData": "0x00000000000000000000000000000000000000000000000000000000000000800000000000000000000000000000000000000000000000000000000000000100000000000000000000000000000000000000000000000000000000000063328300000000000000000000000000000000000000000000000000000000000001800000000000000000000000000000000000000000000000000000000000000003dc53d4abc4d6f5bfc02d52ff0cd6000000000000000000000000000000000000ccfb00c6024ce607652e2c5c08320000000000000000000000000000000000000808e0e42e3521c1edecf2b31bf600000000000000000000000000000000000000000000000000000000000000000000000000000000000000000000000000032cba315a40290a4a44dadb04f43200000000000000000000000000000000000039010040ffbf1cfdb4ded2affbd2000000000000000000000000000000000000f9fc2a1ed8d3e64316191253ed050000000000000000000000000000000000000000000000000000000000000000000000000000000000000000000000000003000000000000000000000000000000000000000000000000000000000000000100000000000000000000000000000000000000000000000000000000000000000000000000000000000000000000000000000000000000000000000000000002",
                    "decodedMethod": {
                        "callParams": [
                            {
                                "name": "buy",
                                "type": "bytes14[]",
                                "value": [
                                    "0xdc53d4abc4d6f5bfc02d52ff0cd6",
                                    "0xccfb00c6024ce607652e2c5c0832",
                                    "0x0808e0e42e3521c1edecf2b31bf6"
                                ]
                            },
                            {
                                "name": "sell",
                                "type": "bytes14[]",
                                "value": [
                                    "0x2cba315a40290a4a44dadb04f432",
                                    "0x39010040ffbf1cfdb4ded2affbd2",
                                    "0xf9fc2a1ed8d3e64316191253ed05"
                                ]
                            },
                            {
                                "name": "blockNumber",
                                "type": "uint256",
                                "value": "6,500,995"
                            },
                            {
                                "name": "indices",
                                "type": "uint256[]",
                                "value": [
                                    "1",
                                    "0",
                                    "2"
                                ]
                            }
                        ],
                        "constructorArguments": "",
                        "name": "setCompactData",
                        "returnParams": [],
                        "signature": "setCompactData(bytes14[],bytes14[],uint256,uint256[])"
                    },
                    "errorInfo": "",
                    "fromAddress": "0x8bc3da587def887b5c822105729ee1d6af05a5ca",
                    "gasUsed": 48480,
                    "id": 0,
                    "methodDecoded": true,
                    "operation": "CALL",
                    "output": "",
                    "revert": false,
                    "revertMessage": "",
                    "selector": "0x64887334",
                    "status": true,
                    "value": "0"
                },
                "nodeType": 0
            }
        },
        "gasFlame": [
            {
                "children": [
                    {
                        "children": [
                            {
                                "children": [],
                                "depth": 0,
                                "name": "Initial Gas",
                                "value": 29336
                            },
                            {
                                "children": [],
                                "depth": 0,
                                "name": "Executed Gas",
                                "value": 19144
                            }
                        ],
                        "depth": -1,
                        "name": "Actual Gas Used",
                        "value": 48480
                    },
                    {
                        "children": [],
                        "depth": -1,
                        "name": "Refunded Gas",
                        "value": 0
                    }
                ],
                "depth": -2,
                "name": "Total Gas",
                "value": 48480
            }
        ],
        "isConfirmed": true,
        "mainTrace": [
            {
                "children": [
                    {
                        "children": [],
                        "depth": 0,
                        "id": 0,
                        "order": 0
                    }
                ],
                "depth": -1,
                "id": -1,
                "order": -1
            }
        ],
        "mainTraceNodeCount": 1,
        "parentIdMap": {
            "0": -1
        },
        "tidyTrace": [
            {
                "children": [
                    {
                        "children": [],
                        "depth": 0,
                        "id": 0,
                        "order": 0
                    }
                ],
                "depth": -1,
                "id": -1,
                "order": -1
            }
        ],
        "tidyTraceNodeCount": 1
    },
    "state_change": {
        "stateChanges": [
            {
                "address": "0x798abda6cc246d0edba912092a2a3dbd3d11191b",
                "erc": "",
                "slots": [
                    {
                        "current": "0x006332832cba315a40290a4a44dadb04f432dc53d4abc4d6f5bfc02d52ff0cd6",
                        "key": "0xdf6966c971051c3d54ec59162606531493a51404a002842f56009d7e5cf4a8c8",
                        "prev": "0x0063327b2cba315940290d4a49d9de01f434dd53d5acc3d6f2bfbd2c51020bd4"
                    },
                    {
                        "current": "0x0063328339010040ffbf1cfdb4ded2affbd2ccfb00c6024ce607652e2c5c0832",
                        "key": "0xdf6966c971051c3d54ec59162606531493a51404a002842f56009d7e5cf4a8c7",
                        "prev": "0x0063327b390c0041fec01cfdb7ded0b1f8d2ccf300c5034be607622e30590a32"
                    },
                    {
                        "current": "0x00633283f9fc2a1ed8d3e64316191253ed050808e0e42e3521c1edecf2b31bf6",
                        "key": "0xdf6966c971051c3d54ec59162606531493a51404a002842f56009d7e5cf4a8c9",
                        "prev": "0x0063327bf9fc2a1ad9d3e74216181553ed090808dfe72e3520c2edecefb31bf3"
                    }
                ],
                "storageVariables": [
                    {
                        "name": "tokenRatesCompactData",
                        "type": "bytes32[]",
                        "value": {
                            "elemType": "bytes32",
                            "elems": [
                                {
                                    "index": 0,
                                    "value": {
                                        "current": "0x0063328339010040ffbf1cfdb4ded2affbd2ccfb00c6024ce607652e2c5c0832",
                                        "prev": "0x0063327b390c0041fec01cfdb7ded0b1f8d2ccf300c5034be607622e30590a32",
                                        "typeTag": 1
                                    }
                                },
                                {
                                    "index": 1,
                                    "value": {
                                        "current": "0x006332832cba315a40290a4a44dadb04f432dc53d4abc4d6f5bfc02d52ff0cd6",
                                        "prev": "0x0063327b2cba315940290d4a49d9de01f434dd53d5acc3d6f2bfbd2c51020bd4",
                                        "typeTag": 1
                                    }
                                },
                                {
                                    "index": 2,
                                    "value": {
                                        "current": "0x00633283f9fc2a1ed8d3e64316191253ed050808e0e42e3521c1edecf2b31bf6",
                                        "prev": "0x0063327bf9fc2a1ad9d3e74216181553ed090808dfe72e3520c2edecefb31bf3",
                                        "typeTag": 1
                                    }
                                }
                            ],
                            "typeTag": 2
                        }
                    }
                ]
            }
        ]
    }
}