{
    "balance_change": {
        "balanceChanges": []
    },
    "profile": {
        "basic_info": {
            "baseFee": "34.506937305",
            "blockNumber": 14535308,
            "callData": "0xa22cb4650000000000000000000000009b76ed183ef8516567cf57e6e79cd7b1cdff2cf10000000000000000000000000000000000000000000000000000000000000001",
            "debugEnable": true,
            "errorInfo": "",
            "eventCount": 1,
            "feeRecipient": "0x829bd824b016326a401d083b33d092293333a830",
            "formatValue": "0",
            "gasLimit": 46315,
            "gasPrice": "37.006937305",
            "gasUsed": 46315,
            "intTxnCount": 0,
            "internalRevert": false,
            "internalRevertMessage": "",
            "isContractCreation": false,
            "isFlashloan": false,
            "maxFee": "73.291190128",
            "nonce": 141,
            "overwritedBlockNumber": -1,
            "priorityFee": "2.5",
            "receiver": "0x4d51ecac8d585d30a882f7015211619fce3f7ded",
            "revertMessage": "",
            "sender": "0xe34bf7b707f298c4d897404b2e3fff0993d57c4b",
            "simulationEnable": true,
            "sourceTxnHash": "0xff091636ebb2b0d57e1342d5bc6c1f15f048a06c69cabb8d4d6aabe1543ff9a4",
            "status": true,
            "timestamp": "2022-04-06T23:33:43Z",
            "transactionFee": "0.001713976301281075",
            "txnHash": "0xff091636ebb2b0d57e1342d5bc6c1f15f048a06c69cabb8d4d6aabe1543ff9a4",
            "txnIndex": 41,
            "type": 2,
            "value": "0"
        },
        "fund_flow": [],
        "token_infos": [
            {
                "address": "0xc02aaa39b223fe8d0a0e5c4f27ead9083c756cc2",
                "decimals": 18
            },
            {
                "address": "0xeeeeeeeeeeeeeeeeeeeeeeeeeeeeeeeeeeeeeeee",
                "decimals": 18
            }
        ]
    },
    "address_label": {
        "labels": [
            {
                "address": "0x0000000000000000000000000000000000000004",
                "label": "Precompiled"
            },
            {
                "address": "0xeeeeeeeeeeeeeeeeeeeeeeeeeeeeeeeeeeeeeeee",
                "label": "Ether"
            },
            {
                "address": "0x4d51ecac8d585d30a882f7015211619fce3f7ded",
                "label": "Yellownauts"
            },
            {
                "address": "0x0000000000000000000000000000000000000001",
                "label": "Precompiled"
            },
            {
                "address": "0x0000000000000000000000000000000000000002",
                "label": "Precompiled"
            },
            {
                "address": "0x0000000000000000000000000000000000000003",
                "label": "Precompiled"
            }
        ]
    },
    "trace": {
        "accountLabels": null,
        "dataMap": {
            "-1": {
                "invocation": {
                    "address": "0xe34bf7b707f298c4d897404b2e3fff0993d57c4b",
                    "callData": "",
                    "decodedMethod": null,
                    "errorInfo": "",
                    "fromAddress": "",
                    "gasUsed": 0,
                    "id": -1,
                    "methodDecoded": false,
                    "operation": "",
                    "output": "",
                    "revert": false,
                    "revertMessage": "",
                    "selector": "",
                    "status": false,
                    "value": ""
                },
                "nodeType": 0
            },
            "0": {
                "invocation": {
                    "address": "0x4d51ecac8d585d30a882f7015211619fce3f7ded",
                    "callData": "0x0000000000000000000000009b76ed183ef8516567cf57e6e79cd7b1cdff2cf10000000000000000000000000000000000000000000000000000000000000001",
                    "decodedMethod": {
                        "callParams": [
                            {
                                "name": "operator",
                                "type": "address",
                                "value": "0x9b76ed183ef8516567cf57e6e79cd7b1cdff2cf1"
                            },
                            {
                                "name": "approved",
                                "type": "bool",
                                "value": true
                            }
                        ],
                        "constructorArguments": "",
                        "name": "setApprovalForAll",
                        "returnParams": [],
                        "signature": "setApprovalForAll(address,bool)"
                    },
                    "errorInfo": "",
                    "fromAddress": "0xe34bf7b707f298c4d897404b2e3fff0993d57c4b",
                    "gasUsed": 46315,
                    "id": 0,
                    "methodDecoded": true,
                    "operation": "CALL",
                    "output": "",
                    "revert": false,
                    "revertMessage": "",
                    "selector": "0xa22cb465",
                    "status": true,
                    "value": "0"
                },
                "nodeType": 0
            },
            "1": {
                "event": {
                    "contract": "0x4d51ecac8d585d30a882f7015211619fce3f7ded",
                    "decodedLog": {
                        "name": "ApprovalForAll",
                        "params": [
                            {
                                "name": "account",
                                "type": "address",
                                "value": "0xe34bf7b707f298c4d897404b2e3fff0993d57c4b"
                            },
                            {
                                "name": "operator",
                                "type": "address",
                                "value": "0x9b76ed183ef8516567cf57e6e79cd7b1cdff2cf1"
                            },
                            {
                                "name": "approved",
                                "type": "bool",
                                "value": true
                            }
                        ],
                        "signature": "ApprovalForAll(address,address,bool)"
                    },
                    "id": 1,
                    "logData": "0x0000000000000000000000000000000000000000000000000000000000000001",
                    "logDecoded": true,
                    "operation": "EVENT",
                    "revert": false,
                    "status": true,
                    "topics": [
                        "0x17307eab39ab6107e8899845ad3d59bd9653f200f220920489ca2b5937696c31",
                        "0x000000000000000000000000e34bf7b707f298c4d897404b2e3fff0993d57c4b",
                        "0x0000000000000000000000009b76ed183ef8516567cf57e6e79cd7b1cdff2cf1"
                    ]
                },
                "nodeType": 1
            }
        },
        "gasFlame": [
            {
                "children": [
                    {
                        "children": [
                            {
                                "children": [],
                                "depth": 0,
                                "name": "Initial Gas",
                                "value": 21572
                            },
                            {
                                "children": [],
                                "depth": 0,
                                "name": "Executed Gas",
                                "value": 24743
                            }
                        ],
                        "depth": -1,
                        "name": "Actual Gas Used",
                        "value": 46315
                    },
                    {
                        "children": [],
                        "depth": -1,
                        "name": "Refunded Gas",
                        "value": 0
                    }
                ],
                "depth": -2,
                "name": "Total Gas",
                "value": 46315
            }
        ],
        "isConfirmed": true,
        "mainTrace": [
            {
                "children": [
                    {
                        "children": [
                            {
                                "children": [],
                                "depth": 1,
                                "id": 1,
                                "order": 1
                            }
                        ],
                        "depth": 0,
                        "id": 0,
                        "order": 0
                    }
                ],
                "depth": -1,
                "id": -1,
                "order": -1
            }
        ],
        "mainTraceNodeCount": 2,
        "parentIdMap": {
            "0": -1,
            "1": 0
        },
        "tidyTrace": [
            {
                "children": [
                    {
                        "children": [
                            {
                                "children": [],
                                "depth": 1,
                                "id": 1,
                                "order": 1
                            }
                        ],
                        "depth": 0,
                        "id": 0,
                        "order": 0
                    }
                ],
                "depth": -1,
                "id": -1,
                "order": -1
            }
        ],
        "tidyTraceNodeCount": 2
    },
    "state_change": {
        "stateChanges": [
            {
                "address": "0x4d51ecac8d585d30a882f7015211619fce3f7ded",
                "erc": "ERC-1155",
                "slots": [
                    {
                        "current": "0x0000000000000000000000000000000000000000000000000000000000000001",
                        "key": "0xaca0ac0f06b78c089d372908c4e63896c7e32cb8454cc2c2b02f1af2f49ee63d",
                        "prev": "0x0000000000000000000000000000000000000000000000000000000000000000"
                    }
                ],
                "storageVariables": [
                    {
                        "name": "_operatorApprovals",
                        "type": "mapping(address => mapping(address => bool))",
                        "value": {
                            "pairs": [
                                {
                                    "key": "0xe34bf7b707f298c4d897404b2e3fff0993d57c4b",
                                    "value": {
                                        "pairs": [
                                            {
                                                "key": "0x9b76ed183ef8516567cf57e6e79cd7b1cdff2cf1",
                                                "value": {
                                                    "current": "true",
                                                    "prev": "false",
                                                    "typeTag": 1
                                                }
                                            }
                                        ],
                                        "typeTag": 4
                                    }
                                }
                            ],
                            "typeTag": 4
                        }
                    }
                ]
            }
        ]
    }
}