{
    "balance_change": {
        "balanceChanges": [
            {
                "account": "0xbcd645da5c16203b79462e6d27e8529499bdda6d",
                "assets": [
                    {
                        "address": "0x49b86c1c88cec2def5a8ead5b4f977445877f99a",
                        "amount": "2",
                        "iconUrl": "",
                        "isERC1155": true,
                        "isERC721": false,
                        "sign": true,
                        "tokenID": "43",
                        "value": ""
                    },
                    {
                        "address": "0xeeeeeeeeeeeeeeeeeeeeeeeeeeeeeeeeeeeeeeee",
                        "amount": "0.00138",
                        "iconUrl": "https://assets.blocksec.com/image/1663669189317-3.png",
                        "isERC1155": false,
                        "isERC721": false,
                        "sign": false,
                        "value": "2.4894786000000000378"
                    }
                ]
            },
            {
                "account": "0xe7d3982e214f9dfd53d23a7f72851a7044072250",
                "assets": [
                    {
                        "address": "0xeeeeeeeeeeeeeeeeeeeeeeeeeeeeeeeeeeeeeeee",
                        "amount": "0.00138",
                        "iconUrl": "https://assets.blocksec.com/image/1663669189317-3.png",
                        "isERC1155": false,
                        "isERC721": false,
                        "sign": true,
                        "value": "2.4894786000000000378"
                    }
                ]
            },
            {
                "account": "0x0000000000000000000000000000000000000000",
                "assets": [
                    {
                        "address": "0x49b86c1c88cec2def5a8ead5b4f977445877f99a",
                        "amount": "2",
                        "iconUrl": "",
                        "isERC1155": true,
                        "isERC721": false,
                        "sign": false,
                        "tokenID": "43",
                        "value": ""
                    }
                ]
            }
        ]
    },
    "profile": {
        "basic_info": {
            "baseFee": "23.768919448",
            "blockNumber": 16943679,
            "callData": "0x26c858a400000000000000000000000049b86c1c88cec2def5a8ead5b4f977445877f99a000000000000000000000000000000000000000000000000000000003f9570f0000000000000000000000000000000000000000000000000000000000000000200000000000000000000000000000000000000000000000000000000000000c00000000000000000000000000000000000000000000000000000000000000120000000000000000000000000bcd645da5c16203b79462e6d27e8529499bdda6d0000000000000000000000000000000000000000000000000000000000000002000000000000000000000000000000000000000000000000000000000000007b000000000000000000000000000000000000000000000000000000000000007c00000000000000000000000000000000000000000000000000000000000000020000000000000000000000000000000000000000000000000000000000000040000000000000000000000000000000000000000000000000000000000000016000000000000000000000000000000000000000000000000000000000000000083ad0c2fdfdcecb16e8abe29fd5a6419b316b8af6acfea802de4fa0edf3c2574a6cac82b3b4e35da7747067a73b08bb69a748e1277b9234fde57aa4f6117ff37ea537fdd89bfc35de69b46e405c3ed95cf1d4dd303ca5e81ebc3245b95c8a8bc50f53eed50183e880cf7224d35b7ae0ddfb5350648a9b8e0b5dfddaac962cf7fd50bc83ef85c352ea1b95a5576e48a8dcbbd2b7663c55c4a9b5acf5e8018a00a2c5ed52e51da5ac30acae76ee0c17a39ece83a35d0813c6aaa02b913bea84d28b4e52c42ec9106cde952ec358d34fa2b6acbc0a0b3d66fa41dfad10725b470249f42e90213f00819db373e38457a34ced630cb10b421fe416334b5c333a9a24a9000000000000000000000000000000000000000000000000000000000000000834121c0bfe79abb65b3fc71c9dd3f0e2a9b26daaa659b54cf5ee072dc6e35d25e36cf4770271081f4dc3f4b96c3584620983341ee1085519c9371fdc555817294eab60c52288c38914ae1a6eb4c7679119a31ebf2b12dcc062746fb48528a9280f53eed50183e880cf7224d35b7ae0ddfb5350648a9b8e0b5dfddaac962cf7fd50bc83ef85c352ea1b95a5576e48a8dcbbd2b7663c55c4a9b5acf5e8018a00a2c5ed52e51da5ac30acae76ee0c17a39ece83a35d0813c6aaa02b913bea84d28b4e52c42ec9106cde952ec358d34fa2b6acbc0a0b3d66fa41dfad10725b470249f42e90213f00819db373e38457a34ced630cb10b421fe416334b5c333a9a24a9",
            "debugEnable": true,
            "errorInfo": "",
            "eventCount": 2,
            "feeRecipient": "0x95222290dd7278aa3ddd389cc1e1d165cc4bafe5",
            "formatValue": "0.00138",
            "gasLimit": 158896,
            "gasPrice": "23.868919448",
            "gasUsed": 122420,
            "intTxnCount": 2,
            "internalRevert": false,
            "internalRevertMessage": "",
            "isContractCreation": false,
            "isFlashloan": false,
            "maxFee": "30.494729203",
            "nonce": 441,
            "overwritedBlockNumber": -1,
            "priorityFee": "0.1",
            "receiver": "0xe7d3982e214f9dfd53d23a7f72851a7044072250",
            "revertMessage": "",
            "sender": "0xbcd645da5c16203b79462e6d27e8529499bdda6d",
            "simulationEnable": true,
            "sourceTxnHash": "0xff892276d90d64f0db8450a8f13b407edfd53f9cb421c8c566c2b08810a242c6",
            "status": true,
            "timestamp": "2023-03-31T00:40:23Z",
            "transactionFee": "0.00292203311882416",
            "txnHash": "0xff892276d90d64f0db8450a8f13b407edfd53f9cb421c8c566c2b08810a242c6",
            "txnIndex": 105,
            "type": 2,
            "value": "1380000000000000"
        },
        "fund_flow": [
            {
                "amount": "0.00138",
                "from": "0xbcd645da5c16203b79462e6d27e8529499bdda6d",
                "id": 1,
                "isERC1155": false,
                "isERC721": false,
                "isReverted": false,
                "order": 1,
                "to": "0xe7d3982e214f9dfd53d23a7f72851a7044072250",
                "token": "0xeeeeeeeeeeeeeeeeeeeeeeeeeeeeeeeeeeeeeeee"
            },
            {
                "amount": "2",
                "from": "0x0000000000000000000000000000000000000000",
                "id": 2,
                "isERC1155": true,
                "isERC721": false,
                "isReverted": false,
                "order": 2,
                "to": "0xbcd645da5c16203b79462e6d27e8529499bdda6d",
                "token": "0x49b86c1c88cec2def5a8ead5b4f977445877f99a",
                "tokenID": "43"
            }
        ],
        "token_infos": [
            {
                "address": "0xc02aaa39b223fe8d0a0e5c4f27ead9083c756cc2",
                "decimals": 18
            },
            {
                "address": "0xeeeeeeeeeeeeeeeeeeeeeeeeeeeeeeeeeeeeeeee",
                "decimals": 18
            }
        ]
    },
    "address_label": {
        "labels": [
            {
                "address": "0x142fd5b9d67721efda3a5e2e9be47a96c9b724a4",
                "label": "ERC1155CreatorImplementation"
            },
            {
                "address": "0x49b86c1c88cec2def5a8ead5b4f977445877f99a",
                "label": "glgraphics"
            },
            {
                "address": "0x0000000000000000000000000000000000000001",
                "label": "Precompiled"
            },
            {
                "address": "0x0000000000000000000000000000000000000002",
                "label": "Precompiled"
            },
            {
                "address": "0x0000000000000000000000000000000000000003",
                "label": "Precompiled"
            },
            {
                "address": "0x0000000000000000000000000000000000000004",
                "label": "Precompiled"
            },
            {
                "address": "0xeeeeeeeeeeeeeeeeeeeeeeeeeeeeeeeeeeeeeeee",
                "label": "Ether"
            },
            {
                "address": "0xe7d3982e214f9dfd53d23a7f72851a7044072250",
                "label": "Manifold Finance: ERC1155 LPC 4"
            }
        ]
    },
    "trace": {
        "accountLabels": null,
        "dataMap": {
            "-1": {
                "invocation": {
                    "address": "0xbcd645da5c16203b79462e6d27e8529499bdda6d",
                    "callData": "",
                    "decodedMethod": null,
                    "errorInfo": "",
                    "fromAddress": "",
                    "gasUsed": 0,
                    "id": -1,
                    "methodDecoded": false,
                    "operation": "",
                    "output": "",
                    "revert": false,
                    "revertMessage": "",
                    "selector": "",
                    "status": false,
                    "value": ""
                },
                "nodeType": 0
            },
            "0": {
                "invocation": {
                    "address": "0xe7d3982e214f9dfd53d23a7f72851a7044072250",
                    "callData": "0x00000000000000000000000049b86c1c88cec2def5a8ead5b4f977445877f99a000000000000000000000000000000000000000000000000000000003f9570f0000000000000000000000000000000000000000000000000000000000000000200000000000000000000000000000000000000000000000000000000000000c00000000000000000000000000000000000000000000000000000000000000120000000000000000000000000bcd645da5c16203b79462e6d27e8529499bdda6d0000000000000000000000000000000000000000000000000000000000000002000000000000000000000000000000000000000000000000000000000000007b000000000000000000000000000000000000000000000000000000000000007c00000000000000000000000000000000000000000000000000000000000000020000000000000000000000000000000000000000000000000000000000000040000000000000000000000000000000000000000000000000000000000000016000000000000000000000000000000000000000000000000000000000000000083ad0c2fdfdcecb16e8abe29fd5a6419b316b8af6acfea802de4fa0edf3c2574a6cac82b3b4e35da7747067a73b08bb69a748e1277b9234fde57aa4f6117ff37ea537fdd89bfc35de69b46e405c3ed95cf1d4dd303ca5e81ebc3245b95c8a8bc50f53eed50183e880cf7224d35b7ae0ddfb5350648a9b8e0b5dfddaac962cf7fd50bc83ef85c352ea1b95a5576e48a8dcbbd2b7663c55c4a9b5acf5e8018a00a2c5ed52e51da5ac30acae76ee0c17a39ece83a35d0813c6aaa02b913bea84d28b4e52c42ec9106cde952ec358d34fa2b6acbc0a0b3d66fa41dfad10725b470249f42e90213f00819db373e38457a34ced630cb10b421fe416334b5c333a9a24a9000000000000000000000000000000000000000000000000000000000000000834121c0bfe79abb65b3fc71c9dd3f0e2a9b26daaa659b54cf5ee072dc6e35d25e36cf4770271081f4dc3f4b96c3584620983341ee1085519c9371fdc555817294eab60c52288c38914ae1a6eb4c7679119a31ebf2b12dcc062746fb48528a9280f53eed50183e880cf7224d35b7ae0ddfb5350648a9b8e0b5dfddaac962cf7fd50bc83ef85c352ea1b95a5576e48a8dcbbd2b7663c55c4a9b5acf5e8018a00a2c5ed52e51da5ac30acae76ee0c17a39ece83a35d0813c6aaa02b913bea84d28b4e52c42ec9106cde952ec358d34fa2b6acbc0a0b3d66fa41dfad10725b470249f42e90213f00819db373e38457a34ced630cb10b421fe416334b5c333a9a24a9",
                    "decodedMethod": {
                        "callParams": [
                            {
                                "name": "creatorContractAddress",
                                "type": "address",
                                "value": "0x49b86c1c88cec2def5a8ead5b4f977445877f99a"
                            },
                            {
                                "name": "claimIndex",
                                "type": "uint256",
                                "value": "1,066,758,384"
                            },
                            {
                                "name": "mintCount",
                                "type": "uint16",
                                "value": "2"
                            },
                            {
                                "name": "mintIndices",
                                "type": "uint32[]",
                                "value": [
                                    "123",
                                    "124"
                                ]
                            },
                            {
                                "name": "merkleProofs",
                                "type": "bytes32[][]",
                                "value": [
                                    [
                                        "0x3ad0c2fdfdcecb16e8abe29fd5a6419b316b8af6acfea802de4fa0edf3c2574a",
                                        "0x6cac82b3b4e35da7747067a73b08bb69a748e1277b9234fde57aa4f6117ff37e",
                                        "0xa537fdd89bfc35de69b46e405c3ed95cf1d4dd303ca5e81ebc3245b95c8a8bc5",
                                        "0x0f53eed50183e880cf7224d35b7ae0ddfb5350648a9b8e0b5dfddaac962cf7fd",
                                        "0x50bc83ef85c352ea1b95a5576e48a8dcbbd2b7663c55c4a9b5acf5e8018a00a2",
                                        "0xc5ed52e51da5ac30acae76ee0c17a39ece83a35d0813c6aaa02b913bea84d28b",
                                        "0x4e52c42ec9106cde952ec358d34fa2b6acbc0a0b3d66fa41dfad10725b470249",
                                        "0xf42e90213f00819db373e38457a34ced630cb10b421fe416334b5c333a9a24a9"
                                    ],
                                    [
                                        "0x34121c0bfe79abb65b3fc71c9dd3f0e2a9b26daaa659b54cf5ee072dc6e35d25",
                                        "0xe36cf4770271081f4dc3f4b96c3584620983341ee1085519c9371fdc55581729",
                                        "0x4eab60c52288c38914ae1a6eb4c7679119a31ebf2b12dcc062746fb48528a928",
                                        "0x0f53eed50183e880cf7224d35b7ae0ddfb5350648a9b8e0b5dfddaac962cf7fd",
                                        "0x50bc83ef85c352ea1b95a5576e48a8dcbbd2b7663c55c4a9b5acf5e8018a00a2",
                                        "0xc5ed52e51da5ac30acae76ee0c17a39ece83a35d0813c6aaa02b913bea84d28b",
                                        "0x4e52c42ec9106cde952ec358d34fa2b6acbc0a0b3d66fa41dfad10725b470249",
                                        "0xf42e90213f00819db373e38457a34ced630cb10b421fe416334b5c333a9a24a9"
                                    ]
                                ]
                            },
                            {
                                "name": "mintFor",
                                "type": "address",
                                "value": "0xbcd645da5c16203b79462e6d27e8529499bdda6d"
                            }
                        ],
                        "constructorArguments": "",
                        "name": "mintBatch",
                        "returnParams": [],
                        "signature": "mintBatch(address,uint256,uint16,uint32[],bytes32[][],address)"
                    },
                    "errorInfo": "",
                    "fromAddress": "0xbcd645da5c16203b79462e6d27e8529499bdda6d",
                    "gasUsed": 122420,
                    "id": 0,
                    "methodDecoded": true,
                    "operation": "CALL",
                    "output": "",
                    "revert": false,
                    "revertMessage": "",
                    "selector": "0x26c858a4",
                    "status": true,
                    "value": "0.00138"
                },
                "nodeType": 0
            },
            "1": {
                "invocation": {
                    "address": "0x49b86c1c88cec2def5a8ead5b4f977445877f99a",
                    "callData": "0x000000000000000000000000000000000000000000000000000000000000006000000000000000000000000000000000000000000000000000000000000000a000000000000000000000000000000000000000000000000000000000000000e00000000000000000000000000000000000000000000000000000000000000001000000000000000000000000bcd645da5c16203b79462e6d27e8529499bdda6d0000000000000000000000000000000000000000000000000000000000000001000000000000000000000000000000000000000000000000000000000000002b00000000000000000000000000000000000000000000000000000000000000010000000000000000000000000000000000000000000000000000000000000002",
                    "decodedMethod": {
                        "callParams": [
                            {
                                "name": "to",
                                "type": "address[]",
                                "value": [
                                    "0xbcd645da5c16203b79462e6d27e8529499bdda6d"
                                ]
                            },
                            {
                                "name": "tokenIds",
                                "type": "uint256[]",
                                "value": [
                                    "43"
                                ]
                            },
                            {
                                "name": "amounts",
                                "type": "uint256[]",
                                "value": [
                                    "2"
                                ]
                            }
                        ],
                        "constructorArguments": "",
                        "name": "mintExtensionExisting",
                        "returnParams": [],
                        "signature": "mintExtensionExisting(address[],uint256[],uint256[])"
                    },
                    "errorInfo": "",
                    "fromAddress": "0xe7d3982e214f9dfd53d23a7f72851a7044072250",
                    "gasUsed": 52910,
                    "id": 1,
                    "methodDecoded": true,
                    "operation": "CALL",
                    "output": "",
                    "revert": false,
                    "revertMessage": "",
                    "selector": "0xe6c884dc",
                    "status": true,
                    "value": "0"
                },
                "nodeType": 0
            },
            "2": {
                "invocation": {
                    "address": "0x142fd5b9d67721efda3a5e2e9be47a96c9b724a4",
                    "callData": "0x000000000000000000000000000000000000000000000000000000000000006000000000000000000000000000000000000000000000000000000000000000a000000000000000000000000000000000000000000000000000000000000000e00000000000000000000000000000000000000000000000000000000000000001000000000000000000000000bcd645da5c16203b79462e6d27e8529499bdda6d0000000000000000000000000000000000000000000000000000000000000001000000000000000000000000000000000000000000000000000000000000002b00000000000000000000000000000000000000000000000000000000000000010000000000000000000000000000000000000000000000000000000000000002",
                    "decodedMethod": {
                        "callParams": [
                            {
                                "name": "to",
                                "type": "address[]",
                                "value": [
                                    "0xbcd645da5c16203b79462e6d27e8529499bdda6d"
                                ]
                            },
                            {
                                "name": "tokenIds",
                                "type": "uint256[]",
                                "value": [
                                    "43"
                                ]
                            },
                            {
                                "name": "amounts",
                                "type": "uint256[]",
                                "value": [
                                    "2"
                                ]
                            }
                        ],
                        "constructorArguments": "",
                        "name": "mintExtensionExisting",
                        "returnParams": [],
                        "signature": "mintExtensionExisting(address[],uint256[],uint256[])"
                    },
                    "errorInfo": "",
                    "fromAddress": "0x49b86c1c88cec2def5a8ead5b4f977445877f99a",
                    "gasUsed": 47943,
                    "id": 2,
                    "methodDecoded": true,
                    "operation": "DELEGATECALL",
                    "output": "",
                    "revert": false,
                    "revertMessage": "",
                    "selector": "0xe6c884dc",
                    "status": true,
                    "value": "0"
                },
                "nodeType": 0
            },
            "3": {
                "event": {
                    "contract": "0x49b86c1c88cec2def5a8ead5b4f977445877f99a",
                    "decodedLog": {
                        "name": "TransferSingle",
                        "params": [
                            {
                                "name": "operator",
                                "type": "address",
                                "value": "0xe7d3982e214f9dfd53d23a7f72851a7044072250"
                            },
                            {
                                "name": "from",
                                "type": "address",
                                "value": "0x0000000000000000000000000000000000000000"
                            },
                            {
                                "name": "to",
                                "type": "address",
                                "value": "0xbcd645da5c16203b79462e6d27e8529499bdda6d"
                            },
                            {
                                "name": "id",
                                "type": "uint256",
                                "value": "43"
                            },
                            {
                                "name": "value",
                                "type": "uint256",
                                "value": "2"
                            }
                        ],
                        "signature": "TransferSingle(address,address,address,uint256,uint256)"
                    },
                    "id": 3,
                    "logData": "0x000000000000000000000000000000000000000000000000000000000000002b0000000000000000000000000000000000000000000000000000000000000002",
                    "logDecoded": true,
                    "operation": "EVENT",
                    "revert": false,
                    "status": true,
                    "topics": [
                        "0xc3d58168c5ae7397731d063d5bbf3d657854427343f4c083240f7aacaa2d0f62",
                        "0x000000000000000000000000e7d3982e214f9dfd53d23a7f72851a7044072250",
                        "0x0000000000000000000000000000000000000000000000000000000000000000",
                        "0x000000000000000000000000bcd645da5c16203b79462e6d27e8529499bdda6d"
                    ]
                },
                "nodeType": 1
            },
            "4": {
                "event": {
                    "contract": "0xe7d3982e214f9dfd53d23a7f72851a7044072250",
                    "decodedLog": {
                        "name": "ClaimMintBatch",
                        "params": [
                            {
                                "name": "creatorContract",
                                "type": "address",
                                "value": "0x49b86c1c88cec2def5a8ead5b4f977445877f99a"
                            },
                            {
                                "name": "claimIndex",
                                "type": "uint256",
                                "value": "1,066,758,384"
                            },
                            {
                                "name": "mintCount",
                                "type": "uint16",
                                "value": "2"
                            }
                        ],
                        "signature": "ClaimMintBatch(address,uint256,uint16)"
                    },
                    "id": 4,
                    "logData": "0x0000000000000000000000000000000000000000000000000000000000000002",
                    "logDecoded": true,
                    "operation": "EVENT",
                    "revert": false,
                    "status": true,
                    "topics": [
                        "0x74f5d3254dfa39a7b1217a27d5d9b3e061eafe11720eca1cf499da2dc1eb1259",
                        "0x00000000000000000000000049b86c1c88cec2def5a8ead5b4f977445877f99a",
                        "0x000000000000000000000000000000000000000000000000000000003f9570f0"
                    ]
                },
                "nodeType": 1
            }
        },
        "gasFlame": [
            {
                "children": [
                    {
                        "children": [
                            {
                                "children": [],
                                "depth": 0,
                                "name": "Initial Gas",
                                "value": 31684
                            },
                            {
                                "children": [
                                    {
                                        "children": [
                                            {
                                                "children": [],
                                                "depth": 2,
                                                "name": "mintExtensionExisting",
                                                "value": 47943
                                            }
                                        ],
                                        "depth": 1,
                                        "name": "mintExtensionExisting",
                                        "value": 52910
                                    }
                                ],
                                "depth": 0,
                                "name": "Executed Gas",
                                "value": 93536
                            }
                        ],
                        "depth": -1,
                        "name": "Actual Gas Used",
                        "value": 122420
                    },
                    {
                        "children": [],
                        "depth": -1,
                        "name": "Refunded Gas",
                        "value": 2800
                    }
                ],
                "depth": -2,
                "name": "Total Gas",
                "value": 125220
            }
        ],
        "isConfirmed": true,
        "mainTrace": [
            {
                "children": [
                    {
                        "children": [
                            {
                                "children": [
                                    {
                                        "children": [
                                            {
                                                "children": [],
                                                "depth": 3,
                                                "id": 3,
                                                "order": 3
                                            }
                                        ],
                                        "depth": 2,
                                        "id": 2,
                                        "order": 2
                                    }
                                ],
                                "depth": 1,
                                "id": 1,
                                "order": 1
                            },
                            {
                                "children": [],
                                "depth": 1,
                                "id": 4,
                                "order": 4
                            }
                        ],
                        "depth": 0,
                        "id": 0,
                        "order": 0
                    }
                ],
                "depth": -1,
                "id": -1,
                "order": -1
            }
        ],
        "mainTraceNodeCount": 5,
        "parentIdMap": {
            "0": -1,
            "1": 0,
            "2": 1,
            "3": 2,
            "4": 0
        },
        "tidyTrace": [
            {
                "children": [
                    {
                        "children": [
                            {
                                "children": [
                                    {
                                        "children": [
                                            {
                                                "children": [],
                                                "depth": 3,
                                                "id": 3,
                                                "order": 3
                                            }
                                        ],
                                        "depth": 2,
                                        "id": 2,
                                        "order": 2
                                    }
                                ],
                                "depth": 1,
                                "id": 1,
                                "order": 1
                            },
                            {
                                "children": [],
                                "depth": 1,
                                "id": 4,
                                "order": 4
                            }
                        ],
                        "depth": 0,
                        "id": 0,
                        "order": 0
                    }
                ],
                "depth": -1,
                "id": -1,
                "order": -1
            }
        ],
        "tidyTraceNodeCount": 5
    },
    "state_change": {
        "stateChanges": [
            {
                "address": "0x49b86c1c88cec2def5a8ead5b4f977445877f99a",
                "erc": "ERC-1155",
                "slots": [
                    {
                        "current": "0x0000000000000000000000000000000000000000000000000000000000000002",
                        "key": "0xbc68ec99a0571b9fb971c18f83abeb2f25699f453ed412a58840d98baa2ee0b9",
                        "prev": "0x0000000000000000000000000000000000000000000000000000000000000000"
                    },
                    {
                        "current": "0x0000000000000000000000000000000000000000000000000000000000000018",
                        "key": "0x491dfed99d61564cdc3aa640cb3fba825905ce38baae4756446d0095a97e622b",
                        "prev": "0x0000000000000000000000000000000000000000000000000000000000000016"
                    }
                ],
                "storageVariables": [
                    {
                        "name": "_balances",
                        "type": "mapping(uint256 => mapping(address => uint256))",
                        "value": {
                            "pairs": [
                                {
                                    "key": "43",
                                    "value": {
                                        "pairs": [
                                            {
                                                "key": "0xbcd645da5c16203b79462e6d27e8529499bdda6d",
                                                "value": {
                                                    "current": "2",
                                                    "prev": "0",
                                                    "typeTag": 1
                                                }
                                            }
                                        ],
                                        "typeTag": 4
                                    }
                                }
                            ],
                            "typeTag": 4
                        }
                    },
                    {
                        "name": "_totalSupply",
                        "type": "mapping(uint256 => uint256)",
                        "value": {
                            "pairs": [
                                {
                                    "key": "43",
                                    "value": {
                                        "current": "24",
                                        "prev": "22",
                                        "typeTag": 1
                                    }
                                }
                            ],
                            "typeTag": 4
                        }
                    }
                ]
            },
            {
                "address": "0xe7d3982e214f9dfd53d23a7f72851a7044072250",
                "erc": "",
                "slots": [
                    {
                        "current": "0x0000000000000002000064343280000064230f00000000000000005800000018",
                        "key": "0xe63a2f656c660103b4c43b08521a433ed27174ae1a06e1ddb445e92923be5439",
                        "prev": "0x0000000000000002000064343280000064230f00000000000000005800000016"
                    },
                    {
                        "current": "0x000000000004048000000000600100c0180018100100c00000000f80000e0000",
                        "key": "0xb7ba646f55310d4b6f77ae4b335b06a71f945fbbd66ecef8577953434748c2f6",
                        "prev": "0x000000000004048000000000600100c0000018100100c00000000f80000e0000"
                    }
                ],
                "storageVariables": [
                    {
                        "name": "_claims",
                        "type": "mapping(address => mapping(uint256 => struct IERC1155LazyPayableClaim.Claim))",
                        "value": {
                            "pairs": [
                                {
                                    "key": "0x49b86c1c88cec2def5a8ead5b4f977445877f99a",
                                    "value": {
                                        "pairs": [
                                            {
                                                "key": "1066758384",
                                                "value": {
                                                    "fields": [
                                                        {
                                                            "name": "total",
                                                            "type": "uint32",
                                                            "value": {
                                                                "current": "24",
                                                                "prev": "22",
                                                                "typeTag": 1
                                                            }
                                                        },
                                                        {
                                                            "name": "totalMax",
                                                            "type": "uint32",
                                                            "value": {
                                                                "current": "88",
                                                                "prev": "88",
                                                                "typeTag": 1
                                                            }
                                                        },
                                                        {
                                                            "name": "walletMax",
                                                            "type": "uint32",
                                                            "value": {
                                                                "current": "0",
                                                                "prev": "0",
                                                                "typeTag": 1
                                                            }
                                                        },
                                                        {
                                                            "name": "startDate",
                                                            "type": "uint48",
                                                            "value": {
                                                                "current": "1680019200",
                                                                "prev": "1680019200",
                                                                "typeTag": 1
                                                            }
                                                        },
                                                        {
                                                            "name": "endDate",
                                                            "type": "uint48",
                                                            "value": {
                                                                "current": "1681142400",
                                                                "prev": "1681142400",
                                                                "typeTag": 1
                                                            }
                                                        },
                                                        {
                                                            "name": "storageProtocol",
                                                            "type": "enum ILazyPayableClaim.StorageProtocol",
                                                            "value": {
                                                                "current": "2",
                                                                "prev": "2",
                                                                "typeTag": 1
                                                            }
                                                        },
                                                        {
                                                            "name": "location",
                                                            "type": "string",
                                                            "value": {
                                                                "current": "QXAlg3UflXPISxw1Sdy2f2lhRAeRngZzMVDchlO6p-w",
                                                                "prev": "QXAlg3UflXPISxw1Sdy2f2lhRAeRngZzMVDchlO6p-w",
                                                                "typeTag": 1
                                                            }
                                                        }
                                                    ],
                                                    "typeTag": 3
                                                }
                                            }
                                        ],
                                        "typeTag": 4
                                    }
                                }
                            ],
                            "typeTag": 4
                        }
                    },
                    {
                        "name": "_claimMintIndices",
                        "type": "mapping(address => mapping(uint256 => mapping(uint256 => uint256)))",
                        "value": {
                            "pairs": [
                                {
                                    "key": "0x49b86c1c88cec2def5a8ead5b4f977445877f99a",
                                    "value": {
                                        "pairs": [
                                            {
                                                "key": "1066758384",
                                                "value": {
                                                    "pairs": [
                                                        {
                                                            "key": "0",
                                                            "value": {
                                                                "current": "1652735778520372046480388122376419451031879256106028823584047104",
                                                                "prev": "1652735778520372046480388090474947552193898306414659376855777280",
                                                                "typeTag": 1
                                                            }
                                                        }
                                                    ],
                                                    "typeTag": 4
                                                }
                                            }
                                        ],
                                        "typeTag": 4
                                    }
                                }
                            ],
                            "typeTag": 4
                        }
                    }
                ]
            }
        ]
    }
}