{
    "balance_change": {
        "balanceChanges": []
    },
    "profile": {
        "basic_info": {
            "baseFee": "",
            "blockNumber": 9852232,
            "callData": "0x1a4813d700000000000000000000000000000000000000000000000000000000000000e00000000000000000000000000000000000000000000000000000000000000120000000000000000000000000000000000000000000000000000000000000016000000000000000000000000000000000000000000000000000000000000001a000000000000000000000000000000000000000000000000000000000000001e0000000000000000000000000000000000000000000000000000000000096554700000000000000000000000000000000000000000000000000000000000002200000000000000000000000000000000000000000000000000000000000000001000000000000000000000000519d822f0832b8e8c8dfc594e718f8dfdae74b470000000000000000000000000000000000000000000000000000000000000001000000000000000000000000000000000000000000000000000000211bc7ce000000000000000000000000000000000000000000000000000000000000000001000000000000000000000000000000000000000000000000000000000000f73b000000000000000000000000000000000000000000000000000000000000000100000000000000000000000000000000000000000000000000000000000000000000000000000000000000000000000000000000000000000000000000000001000000000000000000000000000000000000000000000000000000000000000000000000000000000000000000000000000000000000000000000000000000010000000000000000000000000000000000000000000000000000000000000000",
            "debugEnable": true,
            "errorInfo": "",
            "eventCount": 0,
            "feeRecipient": "0x4c549990a7ef3fea8784406c1eecc98bf4211fa5",
            "formatValue": "0",
            "gasLimit": 300000,
            "gasPrice": "10",
            "gasUsed": 46397,
            "intTxnCount": 0,
            "internalRevert": false,
            "internalRevertMessage": "",
            "isContractCreation": false,
            "isFlashloan": false,
            "maxFee": "",
            "nonce": 27,
            "overwritedBlockNumber": -1,
            "priorityFee": "",
            "receiver": "0x00e7ae10467f9f1f01be8e4014ba7bd29cd4a4f2",
            "revertMessage": "",
            "sender": "0x4e7f198995541d6173383713d346086a6de8d8ba",
            "simulationEnable": true,
            "sourceTxnHash": "0xffa792aa7ad627a2e9207383d3898293a847035abd0b4f7e934bb65e01d78524",
            "status": true,
            "timestamp": "2020-04-11T17:07:34Z",
            "transactionFee": "0.00046397",
            "txnHash": "0xffa792aa7ad627a2e9207383d3898293a847035abd0b4f7e934bb65e01d78524",
            "txnIndex": 49,
            "type": 0,
            "value": "0"
        },
        "fund_flow": [],
        "token_infos": [
            {
                "address": "0xc02aaa39b223fe8d0a0e5c4f27ead9083c756cc2",
                "decimals": 18
            },
            {
                "address": "0xeeeeeeeeeeeeeeeeeeeeeeeeeeeeeeeeeeeeeeee",
                "decimals": 18
            }
        ]
    },
    "address_label": {
        "labels": [
            {
                "address": "0x0000000000000000000000000000000000000001",
                "label": "Precompiled"
            },
            {
                "address": "0x0000000000000000000000000000000000000002",
                "label": "Precompiled"
            },
            {
                "address": "0x0000000000000000000000000000000000000003",
                "label": "Precompiled"
            },
            {
                "address": "0x0000000000000000000000000000000000000004",
                "label": "Precompiled"
            },
            {
                "address": "0xeeeeeeeeeeeeeeeeeeeeeeeeeeeeeeeeeeeeeeee",
                "label": "Ether"
            },
            {
                "address": "0x519d822f0832b8e8c8dfc594e718f8dfdae74b47",
                "label": "IXO"
            },
            {
                "address": "0x00e7ae10467f9f1f01be8e4014ba7bd29cd4a4f2",
                "label": "ConversionRates"
            }
        ]
    },
    "trace": {
        "accountLabels": null,
        "dataMap": {
            "-1": {
                "invocation": {
                    "address": "0x4e7f198995541d6173383713d346086a6de8d8ba",
                    "callData": "",
                    "decodedMethod": null,
                    "errorInfo": "",
                    "fromAddress": "",
                    "gasUsed": 0,
                    "id": -1,
                    "methodDecoded": false,
                    "operation": "",
                    "output": "",
                    "revert": false,
                    "revertMessage": "",
                    "selector": "",
                    "status": false,
                    "value": ""
                },
                "nodeType": 0
            },
            "0": {
                "invocation": {
                    "address": "0x00e7ae10467f9f1f01be8e4014ba7bd29cd4a4f2",
                    "callData": "0x00000000000000000000000000000000000000000000000000000000000000e00000000000000000000000000000000000000000000000000000000000000120000000000000000000000000000000000000000000000000000000000000016000000000000000000000000000000000000000000000000000000000000001a000000000000000000000000000000000000000000000000000000000000001e0000000000000000000000000000000000000000000000000000000000096554700000000000000000000000000000000000000000000000000000000000002200000000000000000000000000000000000000000000000000000000000000001000000000000000000000000519d822f0832b8e8c8dfc594e718f8dfdae74b470000000000000000000000000000000000000000000000000000000000000001000000000000000000000000000000000000000000000000000000211bc7ce000000000000000000000000000000000000000000000000000000000000000001000000000000000000000000000000000000000000000000000000000000f73b000000000000000000000000000000000000000000000000000000000000000100000000000000000000000000000000000000000000000000000000000000000000000000000000000000000000000000000000000000000000000000000001000000000000000000000000000000000000000000000000000000000000000000000000000000000000000000000000000000000000000000000000000000010000000000000000000000000000000000000000000000000000000000000000",
                    "decodedMethod": {
                        "callParams": [
                            {
                                "name": "tokens",
                                "type": "address[]",
                                "value": [
                                    "0x519d822f0832b8e8c8dfc594e718f8dfdae74b47"
                                ]
                            },
                            {
                                "name": "baseBuy",
                                "type": "uint256[]",
                                "value": [
                                    "142,200,000,000"
                                ]
                            },
                            {
                                "name": "baseSell",
                                "type": "uint256[]",
                                "value": [
                                    "63,291"
                                ]
                            },
                            {
                                "name": "buy",
                                "type": "bytes14[]",
                                "value": [
                                    "0x0000000000000000000000000000"
                                ]
                            },
                            {
                                "name": "sell",
                                "type": "bytes14[]",
                                "value": [
                                    "0x0000000000000000000000000000"
                                ]
                            },
                            {
                                "name": "blockNumber",
                                "type": "uint256",
                                "value": "9,852,231"
                            },
                            {
                                "name": "indices",
                                "type": "uint256[]",
                                "value": [
                                    "0"
                                ]
                            }
                        ],
                        "constructorArguments": "",
                        "name": "setBaseRate",
                        "returnParams": [],
                        "signature": "setBaseRate(address[],uint256[],uint256[],bytes14[],bytes14[],uint256,uint256[])"
                    },
                    "errorInfo": "",
                    "fromAddress": "0x4e7f198995541d6173383713d346086a6de8d8ba",
                    "gasUsed": 46397,
                    "id": 0,
                    "methodDecoded": true,
                    "operation": "CALL",
                    "output": "",
                    "revert": false,
                    "revertMessage": "",
                    "selector": "0x1a4813d7",
                    "status": true,
                    "value": "0"
                },
                "nodeType": 0
            }
        },
        "gasFlame": [
            {
                "children": [
                    {
                        "children": [
                            {
                                "children": [],
                                "depth": 0,
                                "name": "Initial Gas",
                                "value": 24048
                            },
                            {
                                "children": [],
                                "depth": 0,
                                "name": "Executed Gas",
                                "value": 22349
                            }
                        ],
                        "depth": -1,
                        "name": "Actual Gas Used",
                        "value": 46397
                    },
                    {
                        "children": [],
                        "depth": -1,
                        "name": "Refunded Gas",
                        "value": 0
                    }
                ],
                "depth": -2,
                "name": "Total Gas",
                "value": 46397
            }
        ],
        "isConfirmed": true,
        "mainTrace": [
            {
                "children": [
                    {
                        "children": [],
                        "depth": 0,
                        "id": 0,
                        "order": 0
                    }
                ],
                "depth": -1,
                "id": -1,
                "order": -1
            }
        ],
        "mainTraceNodeCount": 1,
        "parentIdMap": {
            "0": -1
        },
        "tidyTrace": [
            {
                "children": [
                    {
                        "children": [],
                        "depth": 0,
                        "id": 0,
                        "order": 0
                    }
                ],
                "depth": -1,
                "id": -1,
                "order": -1
            }
        ],
        "tidyTraceNodeCount": 1
    },
    "state_change": {
        "stateChanges": [
            {
                "address": "0x00e7ae10467f9f1f01be8e4014ba7bd29cd4a4f2",
                "erc": "",
                "slots": [
                    {
                        "current": "0x000000000000000000000000000000000000000000000000000000211bc7ce00",
                        "key": "0x905b971808b10538da468ef71cdbfe67a98ae3081f5be3c3d6450c67f5d9355f",
                        "prev": "0x00000000000000000000000000000000000000000000000000000021752ffd00"
                    },
                    {
                        "current": "0x000000000000000000000000000000000000000000000000000000000000f73b",
                        "key": "0x905b971808b10538da468ef71cdbfe67a98ae3081f5be3c3d6450c67f5d93560",
                        "prev": "0x000000000000000000000000000000000000000000000000000000000000f4a6"
                    },
                    {
                        "current": "0x0096554700000000000000000000000000000000000000000000000000000000",
                        "key": "0xdf6966c971051c3d54ec59162606531493a51404a002842f56009d7e5cf4a8c7",
                        "prev": "0x0096525a00000000000000000000000000000000000000000000000000000000"
                    }
                ],
                "storageVariables": [
                    {
                        "name": "tokenData",
                        "type": "mapping(address => struct ConversionRates.TokenData)",
                        "value": {
                            "pairs": [
                                {
                                    "key": "0x519d822f0832b8e8c8dfc594e718f8dfdae74b47",
                                    "value": {
                                        "fields": [
                                            {
                                                "name": "baseBuyRate",
                                                "type": "uint256",
                                                "value": {
                                                    "current": "142200000000",
                                                    "prev": "143700000000",
                                                    "typeTag": 1
                                                }
                                            },
                                            {
                                                "name": "baseSellRate",
                                                "type": "uint256",
                                                "value": {
                                                    "current": "63291",
                                                    "prev": "62630",
                                                    "typeTag": 1
                                                }
                                            }
                                        ],
                                        "typeTag": 3
                                    }
                                }
                            ],
                            "typeTag": 4
                        }
                    },
                    {
                        "name": "tokenRatesCompactData",
                        "type": "bytes32[]",
                        "value": {
                            "elemType": "bytes32",
                            "elems": [
                                {
                                    "index": 0,
                                    "value": {
                                        "current": "0x0096554700000000000000000000000000000000000000000000000000000000",
                                        "prev": "0x0096525a00000000000000000000000000000000000000000000000000000000",
                                        "typeTag": 1
                                    }
                                }
                            ],
                            "typeTag": 2
                        }
                    }
                ]
            }
        ]
    }
}